{
  "address": "0x9fa5Fd5E52D0793e4bc9A170eEF232eD15DaA6Ad",
  "abi": [
    {
      "inputs": [
        {
          "internalType": "bytes",
          "name": "_genesisHeader",
          "type": "bytes"
        },
        {
          "internalType": "uint256",
          "name": "_height",
          "type": "uint256"
        },
        {
          "internalType": "bytes32",
          "name": "_periodStart",
          "type": "bytes32"
        },
        {
          "internalType": "address",
          "name": "_TeleportDAOToken",
          "type": "address"
        },
        {
          "internalType": "address",
          "name": "_exchangeRouter",
          "type": "address"
        }
      ],
      "stateMutability": "nonpayable",
      "type": "constructor"
    },
    {
      "anonymous": false,
      "inputs": [
        {
          "indexed": false,
          "internalType": "uint256",
          "name": "firstHeight",
          "type": "uint256"
        },
        {
          "indexed": false,
          "internalType": "uint256",
          "name": "lastHeight",
          "type": "uint256"
        },
        {
          "indexed": false,
          "internalType": "address",
          "name": "relayer",
          "type": "address"
        },
        {
          "indexed": false,
          "internalType": "uint256",
          "name": "rewardAmount",
          "type": "uint256"
        },
        {
          "indexed": false,
          "internalType": "bool",
          "name": "isTDT",
          "type": "bool"
        }
      ],
      "name": "BlockAdded",
      "type": "event"
    },
    {
      "anonymous": false,
      "inputs": [
        {
          "indexed": true,
          "internalType": "bytes32",
          "name": "_from",
          "type": "bytes32"
        },
        {
          "indexed": true,
          "internalType": "bytes32",
          "name": "_to",
          "type": "bytes32"
        },
        {
          "indexed": true,
          "internalType": "bytes32",
          "name": "_gcd",
          "type": "bytes32"
        }
      ],
      "name": "NewTip",
      "type": "event"
    },
    {
      "stateMutability": "payable",
      "type": "fallback"
    },
    {
      "inputs": [],
      "name": "HEIGHT_INTERVAL",
      "outputs": [
        {
          "internalType": "uint32",
          "name": "",
          "type": "uint32"
        }
      ],
      "stateMutability": "view",
      "type": "function"
    },
    {
      "inputs": [],
      "name": "TeleportDAOToken",
      "outputs": [
        {
          "internalType": "address",
          "name": "",
          "type": "address"
        }
      ],
      "stateMutability": "view",
      "type": "function"
    },
    {
      "inputs": [],
      "name": "WAVAX",
      "outputs": [
        {
          "internalType": "address",
          "name": "",
          "type": "address"
        }
      ],
      "stateMutability": "view",
      "type": "function"
    },
    {
      "inputs": [
        {
          "internalType": "bytes",
          "name": "_anchor",
          "type": "bytes"
        },
        {
          "internalType": "bytes",
          "name": "_headers",
          "type": "bytes"
        }
      ],
      "name": "addHeaders",
      "outputs": [
        {
          "internalType": "bool",
          "name": "",
          "type": "bool"
        }
      ],
      "stateMutability": "nonpayable",
      "type": "function"
    },
    {
      "inputs": [
        {
          "internalType": "bytes",
          "name": "_oldPeriodStartHeader",
          "type": "bytes"
        },
        {
          "internalType": "bytes",
          "name": "_oldPeriodEndHeader",
          "type": "bytes"
        },
        {
          "internalType": "bytes",
          "name": "_headers",
          "type": "bytes"
        }
      ],
      "name": "addHeadersWithRetarget",
      "outputs": [
        {
          "internalType": "bool",
          "name": "",
          "type": "bool"
        }
      ],
      "stateMutability": "nonpayable",
      "type": "function"
    },
    {
      "inputs": [],
      "name": "baseQueries",
      "outputs": [
        {
          "internalType": "uint256",
          "name": "",
          "type": "uint256"
        }
      ],
      "stateMutability": "view",
      "type": "function"
    },
    {
      "inputs": [],
      "name": "buyBackPeriod",
      "outputs": [
        {
          "internalType": "uint256",
          "name": "",
          "type": "uint256"
        }
      ],
      "stateMutability": "view",
      "type": "function"
    },
    {
      "inputs": [
        {
          "internalType": "bytes4",
          "name": "_version",
          "type": "bytes4"
        },
        {
          "internalType": "bytes",
          "name": "_vin",
          "type": "bytes"
        },
        {
          "internalType": "bytes",
          "name": "_vout",
          "type": "bytes"
        },
        {
          "internalType": "bytes4",
          "name": "_locktime",
          "type": "bytes4"
        }
      ],
      "name": "calculateTxId",
      "outputs": [
        {
          "internalType": "bytes32",
          "name": "",
          "type": "bytes32"
        }
      ],
      "stateMutability": "nonpayable",
      "type": "function"
    },
    {
      "inputs": [
        {
          "internalType": "uint256",
          "name": "",
          "type": "uint256"
        },
        {
          "internalType": "uint256",
          "name": "",
          "type": "uint256"
        }
      ],
      "name": "chain",
      "outputs": [
        {
          "internalType": "bytes32",
          "name": "selfHash",
          "type": "bytes32"
        },
        {
          "internalType": "bytes32",
          "name": "parentHash",
          "type": "bytes32"
        },
        {
          "internalType": "bytes32",
          "name": "merkleRoot",
          "type": "bytes32"
        }
      ],
      "stateMutability": "view",
      "type": "function"
    },
    {
      "inputs": [
        {
          "internalType": "address",
          "name": "_owner",
          "type": "address"
        }
      ],
      "name": "changeOwner",
      "outputs": [],
      "stateMutability": "nonpayable",
      "type": "function"
    },
    {
      "inputs": [
        {
          "internalType": "bytes32",
          "name": "txid",
          "type": "bytes32"
        },
        {
          "internalType": "uint256",
          "name": "blockHeight",
          "type": "uint256"
        },
        {
          "internalType": "bytes",
          "name": "intermediateNodes",
          "type": "bytes"
        },
        {
          "internalType": "uint256",
          "name": "index",
          "type": "uint256"
        },
        {
          "internalType": "bool",
          "name": "payWithTDT",
          "type": "bool"
        },
        {
          "internalType": "uint256",
          "name": "neededConfirmations",
          "type": "uint256"
        }
      ],
      "name": "checkTxProof",
      "outputs": [
        {
          "internalType": "bool",
          "name": "",
          "type": "bool"
        }
      ],
      "stateMutability": "nonpayable",
      "type": "function"
    },
    {
      "inputs": [],
      "name": "epochLength",
      "outputs": [
        {
          "internalType": "uint256",
          "name": "",
          "type": "uint256"
        }
      ],
      "stateMutability": "view",
      "type": "function"
    },
    {
      "inputs": [],
      "name": "exchangeRouter",
      "outputs": [
        {
          "internalType": "address",
          "name": "",
          "type": "address"
        }
      ],
      "stateMutability": "view",
      "type": "function"
    },
    {
      "inputs": [],
      "name": "feeRatio",
      "outputs": [
        {
          "internalType": "uint256",
          "name": "",
          "type": "uint256"
        }
      ],
      "stateMutability": "view",
      "type": "function"
    },
    {
      "inputs": [],
      "name": "finalizationParameter",
      "outputs": [
        {
          "internalType": "uint256",
          "name": "",
          "type": "uint256"
        }
      ],
      "stateMutability": "view",
      "type": "function"
    },
    {
      "inputs": [
        {
          "internalType": "bytes32",
          "name": "_digest",
          "type": "bytes32"
        },
        {
          "internalType": "uint256",
          "name": "_offset",
          "type": "uint256"
        }
      ],
      "name": "findAncestor",
      "outputs": [
        {
          "internalType": "bytes32",
          "name": "",
          "type": "bytes32"
        }
      ],
      "stateMutability": "view",
      "type": "function"
    },
    {
      "inputs": [
        {
          "internalType": "bytes32",
          "name": "_digest",
          "type": "bytes32"
        }
      ],
      "name": "findHeight",
      "outputs": [
        {
          "internalType": "uint256",
          "name": "",
          "type": "uint256"
        }
      ],
      "stateMutability": "view",
      "type": "function"
    },
    {
      "inputs": [],
      "name": "getBestKnownDigest",
      "outputs": [
        {
          "internalType": "bytes32",
          "name": "",
          "type": "bytes32"
        }
      ],
      "stateMutability": "view",
      "type": "function"
    },
    {
      "inputs": [
        {
          "internalType": "uint256",
          "name": "height",
          "type": "uint256"
        },
        {
          "internalType": "uint256",
          "name": "index",
          "type": "uint256"
        }
      ],
      "name": "getBlockHeaderHash",
      "outputs": [
        {
          "internalType": "bytes32",
          "name": "",
          "type": "bytes32"
        }
      ],
      "stateMutability": "nonpayable",
      "type": "function"
    },
    {
      "inputs": [],
      "name": "getCurrentEpochDifficulty",
      "outputs": [
        {
          "internalType": "uint256",
          "name": "",
          "type": "uint256"
        }
      ],
      "stateMutability": "view",
      "type": "function"
    },
    {
      "inputs": [],
      "name": "getLastReorgCommonAncestor",
      "outputs": [
        {
          "internalType": "bytes32",
          "name": "",
          "type": "bytes32"
        }
      ],
      "stateMutability": "view",
      "type": "function"
    },
    {
      "inputs": [
        {
          "internalType": "uint256",
          "name": "height",
          "type": "uint256"
        }
      ],
      "name": "getNumberOfSubmittedHeaders",
      "outputs": [
        {
          "internalType": "uint256",
          "name": "",
          "type": "uint256"
        }
      ],
      "stateMutability": "view",
      "type": "function"
    },
    {
      "inputs": [],
      "name": "getPrevEpochDifficulty",
      "outputs": [
        {
          "internalType": "uint256",
          "name": "",
          "type": "uint256"
        }
      ],
      "stateMutability": "view",
      "type": "function"
    },
    {
      "inputs": [],
      "name": "getRelayGenesis",
      "outputs": [
        {
          "internalType": "bytes32",
          "name": "",
          "type": "bytes32"
        }
      ],
      "stateMutability": "view",
      "type": "function"
    },
    {
      "inputs": [],
      "name": "initialHeight",
      "outputs": [
        {
          "internalType": "uint256",
          "name": "",
          "type": "uint256"
        }
      ],
      "stateMutability": "view",
      "type": "function"
    },
    {
      "inputs": [
        {
          "internalType": "bytes32",
          "name": "_ancestor",
          "type": "bytes32"
        },
        {
          "internalType": "bytes32",
          "name": "_descendant",
          "type": "bytes32"
        },
        {
          "internalType": "uint256",
          "name": "_limit",
          "type": "uint256"
        }
      ],
      "name": "isAncestor",
      "outputs": [
        {
          "internalType": "bool",
          "name": "",
          "type": "bool"
        }
      ],
      "stateMutability": "view",
      "type": "function"
    },
    {
      "inputs": [],
      "name": "lastBuyBack",
      "outputs": [
        {
          "internalType": "uint256",
          "name": "",
          "type": "uint256"
        }
      ],
      "stateMutability": "view",
      "type": "function"
    },
    {
      "inputs": [],
      "name": "lastEpochQueries",
      "outputs": [
        {
          "internalType": "uint256",
          "name": "",
          "type": "uint256"
        }
      ],
      "stateMutability": "view",
      "type": "function"
    },
    {
      "inputs": [],
      "name": "lastSubmittedHeight",
      "outputs": [
        {
          "internalType": "uint256",
          "name": "",
          "type": "uint256"
        }
      ],
      "stateMutability": "view",
      "type": "function"
    },
    {
      "inputs": [
        {
          "internalType": "bytes32",
          "name": "_ancestor",
          "type": "bytes32"
        },
        {
          "internalType": "bytes",
          "name": "_currentBest",
          "type": "bytes"
        },
        {
          "internalType": "bytes",
          "name": "_newBest",
          "type": "bytes"
        },
        {
          "internalType": "uint256",
          "name": "_limit",
          "type": "uint256"
        }
      ],
      "name": "markNewHeaviest",
      "outputs": [
        {
          "internalType": "bool",
          "name": "",
          "type": "bool"
        }
      ],
      "stateMutability": "nonpayable",
      "type": "function"
    },
    {
      "inputs": [],
      "name": "owner",
      "outputs": [
        {
          "internalType": "address",
          "name": "",
          "type": "address"
        }
      ],
      "stateMutability": "view",
      "type": "function"
    },
    {
      "inputs": [
        {
          "internalType": "uint256",
          "name": "_baseQueries",
          "type": "uint256"
        }
      ],
      "name": "setBaseQueries",
      "outputs": [],
      "stateMutability": "nonpayable",
      "type": "function"
    },
    {
      "inputs": [
        {
          "internalType": "uint256",
          "name": "_buyBackPeriod",
          "type": "uint256"
        }
      ],
      "name": "setBuyBackPeriod",
      "outputs": [],
      "stateMutability": "nonpayable",
      "type": "function"
    },
    {
      "inputs": [
        {
          "internalType": "uint256",
          "name": "_epochLength",
          "type": "uint256"
        }
      ],
      "name": "setEpochLength",
      "outputs": [],
      "stateMutability": "nonpayable",
      "type": "function"
    },
    {
      "inputs": [
        {
          "internalType": "address",
          "name": "_exchangeRouter",
          "type": "address"
        }
      ],
      "name": "setExchangeRouter",
      "outputs": [],
      "stateMutability": "nonpayable",
      "type": "function"
    },
    {
      "inputs": [
        {
          "internalType": "uint256",
          "name": "_feeRatio",
          "type": "uint256"
        }
      ],
      "name": "setFeeRatio",
      "outputs": [],
      "stateMutability": "nonpayable",
      "type": "function"
    },
    {
      "inputs": [
        {
          "internalType": "uint256",
          "name": "_finalizationParameter",
          "type": "uint256"
        }
      ],
      "name": "setFinalizationParameter",
      "outputs": [],
      "stateMutability": "nonpayable",
      "type": "function"
    },
    {
      "inputs": [
        {
          "internalType": "uint256",
          "name": "_submissionGasUsed",
          "type": "uint256"
        }
      ],
      "name": "setSubmissionGasUsed",
      "outputs": [],
      "stateMutability": "nonpayable",
      "type": "function"
    },
    {
      "inputs": [],
      "name": "submissionGasUsed",
      "outputs": [
        {
          "internalType": "uint256",
          "name": "",
          "type": "uint256"
        }
      ],
      "stateMutability": "view",
      "type": "function"
    }
  ],
  "transactionHash": "0xff34d8e6d1a38656d3370a5b7f326205299fb63aa75c2fff38a470fd92f7d00c",
  "args": [
    "0x0000c0209deeaf5a2bb5647b988d94393623c6ffc0cb1d73bf21865145000000000000006cee4d7d00545b073c966d045982cd4f7c82520086ae5e5d027c333db8cb9b10c57b9c62ffff001d24e24fc3",
    2254154,
    "0x0000000000000024409e9c7000b9508a93e8e03d3a5fef7a90988dde30ca71ec",
    "0xa608f5B846b3e4B71C589DFAd3862f5E1C074FaA",
    "0x668D83b86A4A599c144B1124455C9bb6b7653fDF"
  ],
  "numDeployments": 1,
  "solcInputHash": "b766d894e7507eaf09e41e8de1c94935",
  "bytecode": "0x60806040523480156200001157600080fd5b506040516200480d3803806200480d833981810160405260a08110156200003757600080fd5b81019080805160405193929190846401000000008211156200005857600080fd5b9083019060208201858111156200006e57600080fd5b82516401000000008111828201881017156200008957600080fd5b82525081516020918201929091019080838360005b83811015620000b85781810151838201526020016200009e565b50505050905090810190601f168015620000e65780820380516001836020036101000a031916815260200191505b50604090815260208281015191830151606084015160809094015192955093506000906200013d906200012690889084906200156b620003c1821b17901c565b62ffffff1916620003e960201b6200158f1760201c565b90506200015b8162ffffff19166200048460201b620015f11760201c565b6200019f576040805162461bcd60e51b815260206004820152600f60248201526e29ba37b8103132b4b73390323ab6b160891b604482015290519081900360640190fd5b6000620001bd8262ffffff19166200049a60201b620016031760201c565b9050620001c962000f91565b818152620001e962ffffff198416620004ec602090811b6200165117901c565b6040828101918252600089815260086020908152828220805460018082018355918452828420875160039283029091019081558388015192810192909255945160029091015592859055600485905560058590558481526007835220889055620002649088906107e0820690620016666200050c821b17901c565b6007600088815260200190815260200160002081905550620002978362ffffff19166200056560201b620016b61760201c565b600a55600160028181558882556000898155600c80546001600160a01b03808b166001600160a01b031992831617909255600d92909255600f8490556011849055601093909355601391909155620186a0600e5560148054878416921691909117908190551615620003a057601460009054906101000a90046001600160a01b03166001600160a01b03166373b295c26040518163ffffffff1660e01b815260040160206040518083038186803b1580156200035257600080fd5b505afa15801562000367573d6000803e3d6000fd5b505050506040513d60208110156200037e57600080fd5b5051601580546001600160a01b0319166001600160a01b039092169190911790555b5050600980546001600160a01b031916331790555062000fb1945050505050565b815160009060208401620003de64ffffffffff851682846200058b565b925050505b92915050565b600081816200040e815b8362ffffff1916620005e560201b620016d61790919060201c565b506200042b8462ffffff19166200073060201b620018141760201c565b6001600160601b03166050146200045957620004516200073f60201b620018231760201c565b92506200047d565b6200047a60108562ffffff19166200074760201b6200182b1790919060201c565b92505b5050919050565b6000620004918262000759565b1590505b919050565b600080620004a88362000765565b6001600160601b031690506000620004c08462000730565b6001600160601b03169050604051602081838560025afa5060208160208360025afa5051949350505050565b6000620003e362ffffff198316602460206200183d62000774821b17811c565b80820382811115620003e3576040805162461bcd60e51b815260206004820152601560248201527f64732d6d6174682d7375622d756e646572666c6f770000000000000000000000604482015290519081900360640190fd5b60008160106200057581620003f3565b506200047a6200058585620008bd565b62000960565b600080620005a883856200098160201b620019631790919060201c565b9050604051811115620005b9575060005b80620005cd5762ffffff19915050620005de565b620005da858585620009da565b9150505b9392505050565b6000620005f38383620009ed565b6200072957600062000616620006098562000a11565b64ffffffffff1662000a17565b9150600090506200062e64ffffffffff851662000a17565b604080517f5479706520617373657274696f6e206661696c65642e20476f742030780000006020808301919091526001600160b01b031960b088811b8216603d8501526c05c408af0e0cac6e8cac84060f609b1b604785015285901b1660548301528251603e818403018152605e83019384905262461bcd60e51b909352606282018181528351608284015283519496509294508493839260a2019185019080838360005b83811015620006ed578181015183820152602001620006d3565b50505050905090810190601f1680156200071b5780820380516001836020036101000a031916815260200191505b509250505060405180910390fd5b5090919050565b60181c6001600160601b031690565b62ffffff1990565b60d81b6001600160d81b039091161790565b62ffffff199081161490565b60781c6001600160601b031690565b600060ff82166200078857506000620005de565b620007938462000730565b6001600160601b0316620007b98360ff16856200098160201b620019631790919060201c565b11156200084057620007f7620007cf8562000765565b6001600160601b0316620007e38662000730565b6001600160601b03168560ff861662000ab9565b60405162461bcd60e51b8152602060048201818152835160248401528351909283926044909101919085019080838360008315620006ed578181015183820152602001620006d3565b60208260ff161115620008855760405162461bcd60e51b815260040180806020018281038252603a8152602001806200479e603a913960400191505060405180910390fd5b600882026000620008968662000765565b6001600160601b031690506000620008ae8362000bb9565b91909501511695945050505050565b6000816010620008cd81620003f3565b506000620008f4604860038762ffffff191662000bc860201b620019b2179092919060201c565b9050600062000936600362000922604b60018a62ffffff191662000be960201b620019c7179092919060201c565b6200050c60201b620016661790919060201c565b905062000956816101000a8362000c0d60201b620019e81790919060201c565b9695505050505050565b6000620003e38261ffff60d01b62000c7c60201b62001a4b1790919060201c565b80820182811015620003e3576040805162461bcd60e51b815260206004820152601460248201527f64732d6d6174682d6164642d6f766572666c6f77000000000000000000000000604482015290519081900360640190fd5b606092831b9190911790911b1760181b90565b600064ffffffffff821662000a028462000a11565b64ffffffffff16149392505050565b60d81c90565b600080601f5b600f8160ff16111562000a665760ff600882021684901c62000a3f8162000c90565b61ffff16841793508160ff1660101462000a5b57601084901b93505b506000190162000a1d565b50600f5b60ff8160ff16101562000ab35760ff600882021684901c62000a8c8162000c90565b61ffff16831792508160ff1660001462000aa857601083901b92505b506000190162000a6a565b50915091565b6060600062000ac88662000a17565b91506000905062000ad98662000a17565b91506000905062000aea8662000a17565b91506000905062000afb8662000a17565b915050838383836040516020018080620047d8603591396001600160d01b031960d087811b821660358401526e040eed2e8d040d8cadccee8d04060f608b1b603b84015286901b16604a82015260500160216200477d82396001600160d01b031960d094851b811660218301526e040eed2e8d040d8cadccee8d04060f608b1b60278301529290931b909116603683015250601760f91b603c82015260408051601d818403018152603d90920190529b9a5050505050505050505050565b600160ff1b6000199091011d90565b600062000be162000bdb85858562000774565b62000cc4565b949350505050565b600060ff60086020849003021662000c0385858562000774565b901c949350505050565b600081158062000c2a5750508082028282828162000c2757fe5b04145b620003e3576040805162461bcd60e51b815260206004820152601460248201527f64732d6d6174682d6d756c2d6f766572666c6f77000000000000000000000000604482015290519081900360640190fd5b600081838162000c8857fe5b049392505050565b600062000ca4600f600484901c1662000e05565b60ff161760081b62ffff001662000cbb8262000e05565b60ff1617919050565b600881811c7eff00ff00ff00ff00ff00ff00ff00ff00ff00ff00ff00ff00ff00ff00ff00ff167fff00ff00ff00ff00ff00ff00ff00ff00ff00ff00ff00ff00ff00ff00ff00ff009290911b9190911617601081811c7dffff0000ffff0000ffff0000ffff0000ffff0000ffff0000ffff0000ffff167fffff0000ffff0000ffff0000ffff0000ffff0000ffff0000ffff0000ffff00009290911b9190911617602081811c7bffffffff00000000ffffffff00000000ffffffff00000000ffffffff167fffffffff00000000ffffffff00000000ffffffff00000000ffffffff000000009290911b9190911617604081811c77ffffffffffffffff0000000000000000ffffffffffffffff167fffffffffffffffff0000000000000000ffffffffffffffff00000000000000009290911b9190911617608081811c91901b1790565b600060f08083179060ff8216141562000e2357603091505062000495565b8060ff1660f1141562000e3b57603191505062000495565b8060ff1660f2141562000e5357603291505062000495565b8060ff1660f3141562000e6b57603391505062000495565b8060ff1660f4141562000e8357603491505062000495565b8060ff1660f5141562000e9b57603591505062000495565b8060ff1660f6141562000eb357603691505062000495565b8060ff1660f7141562000ecb57603791505062000495565b8060ff1660f8141562000ee357603891505062000495565b8060ff1660f9141562000efb57603991505062000495565b8060ff1660fa141562000f1357606191505062000495565b8060ff1660fb141562000f2b57606291505062000495565b8060ff1660fc141562000f4357606391505062000495565b8060ff1660fd141562000f5b57606491505062000495565b8060ff1660fe141562000f7357606591505062000495565b8060ff1660ff141562000f8b57606691505062000495565b50919050565b604080516060810182526000808252602082018190529181019190915290565b6137bc8062000fc16000396000f3fe6080604052600436106102305760003560e01c806374c3a3a91161012e578063a6f9dae1116100ab578063c32f5c9a1161006f578063c32f5c9a146109c4578063c58242cd14610b17578063e2761af014610b2c578063e3d8d8d814610b41578063fa041af514610b5657610230565b8063a6f9dae1146108ec578063b36161bd1461091f578063b985621a14610949578063b9bbd9bd1461097f578063c20dc664146109af57610230565b80638da5cb5b116100f25780638da5cb5b14610859578063926d44e21461086e5780639f15641414610898578063a072bc50146108ad578063a3db54eb146108c257610230565b806374c3a3a9146105fa5780637fa637fc146106cc578063826017b0146107e7578063838b7ccb146108115780638521fb1c1461084457610230565b806341744dd4116101bc5780636594168311610180578063659416831461041957806365da41b91461044357806370d53c181461052257806373b295c21461055057806373b63c821461056557610230565b806341744dd4146103865780634997f71b1461039b57806354eea796146103b057806357d775f8146103da57806360b5c390146103ef57610230565b80631cb85818116102035780631cb85818146102c95780631ea77144146102de5780632b97be241461032c5780632f796d901461034157806330017b3b1461035657610230565b8063108f438d14610232578063113764be146102635780631910d9731461028a57806319f4ff2f1461029f575b005b34801561023e57600080fd5b50610247610b6b565b604080516001600160a01b039092168252519081900360200190f35b34801561026f57600080fd5b50610278610b7a565b60408051918252519081900360200190f35b34801561029657600080fd5b50610278610b80565b3480156102ab57600080fd5b50610230600480360360208110156102c257600080fd5b5035610b86565b3480156102d557600080fd5b50610247610ba2565b3480156102ea57600080fd5b5061030e6004803603604081101561030157600080fd5b5080359060200135610bb1565b60408051938452602084019290925282820152519081900360600190f35b34801561033857600080fd5b50610278610bf3565b34801561034d57600080fd5b50610278610bf9565b34801561036257600080fd5b506102786004803603604081101561037957600080fd5b5080359060200135610bff565b34801561039257600080fd5b50610278610c14565b3480156103a757600080fd5b50610278610c1a565b3480156103bc57600080fd5b50610230600480360360208110156103d357600080fd5b5035610c20565b3480156103e657600080fd5b50610278610c3c565b3480156103fb57600080fd5b506102786004803603602081101561041257600080fd5b5035610c42565b34801561042557600080fd5b506102306004803603602081101561043c57600080fd5b5035610c55565b34801561044f57600080fd5b5061050e6004803603604081101561046657600080fd5b810190602081018135600160201b81111561048057600080fd5b82018360208201111561049257600080fd5b803590602001918460018302840111600160201b831117156104b357600080fd5b919390929091602081019035600160201b8111156104d057600080fd5b8201836020820111156104e257600080fd5b803590602001918460018302840111600160201b8311171561050357600080fd5b509092509050610c71565b604080519115158252519081900360200190f35b34801561052e57600080fd5b50610537610de1565b6040805163ffffffff9092168252519081900360200190f35b34801561055c57600080fd5b50610247610de6565b34801561057157600080fd5b5061050e600480360360c081101561058857600080fd5b813591602081013591810190606081016040820135600160201b8111156105ae57600080fd5b8201836020820111156105c057600080fd5b803590602001918460018302840111600160201b831117156105e157600080fd5b9193509150803590602081013515159060400135610df5565b34801561060657600080fd5b5061050e6004803603608081101561061d57600080fd5b81359190810190604081016020820135600160201b81111561063e57600080fd5b82018360208201111561065057600080fd5b803590602001918460018302840111600160201b8311171561067157600080fd5b919390929091602081019035600160201b81111561068e57600080fd5b8201836020820111156106a057600080fd5b803590602001918460018302840111600160201b831117156106c157600080fd5b919350915035610f40565b3480156106d857600080fd5b5061050e600480360360608110156106ef57600080fd5b810190602081018135600160201b81111561070957600080fd5b82018360208201111561071b57600080fd5b803590602001918460018302840111600160201b8311171561073c57600080fd5b919390929091602081019035600160201b81111561075957600080fd5b82018360208201111561076b57600080fd5b803590602001918460018302840111600160201b8311171561078c57600080fd5b919390929091602081019035600160201b8111156107a957600080fd5b8201836020820111156107bb57600080fd5b803590602001918460018302840111600160201b831117156107dc57600080fd5b509092509050611050565b3480156107f357600080fd5b506102306004803603602081101561080a57600080fd5b50356111c1565b34801561081d57600080fd5b506102306004803603602081101561083457600080fd5b50356001600160a01b03166111dd565b34801561085057600080fd5b50610278611216565b34801561086557600080fd5b5061024761121c565b34801561087a57600080fd5b506102786004803603602081101561089157600080fd5b503561122b565b3480156108a457600080fd5b5061027861123d565b3480156108b957600080fd5b50610278611243565b3480156108ce57600080fd5b50610230600480360360208110156108e557600080fd5b5035611249565b3480156108f857600080fd5b506102306004803603602081101561090f57600080fd5b50356001600160a01b0316611265565b34801561092b57600080fd5b506102306004803603602081101561094257600080fd5b503561129e565b34801561095557600080fd5b5061050e6004803603606081101561096c57600080fd5b50803590602081013590604001356112ba565b34801561098b57600080fd5b50610278600480360360408110156109a257600080fd5b50803590602001356112d1565b3480156109bb57600080fd5b50610278611307565b3480156109d057600080fd5b50610278600480360360808110156109e757600080fd5b6001600160e01b03198235169190810190604081016020820135600160201b811115610a1257600080fd5b820183602082011115610a2457600080fd5b803590602001918460018302840111600160201b83111715610a4557600080fd5b91908080601f0160208091040260200160405190810160405280939291908181526020018383808284376000920191909152509295949360208101935035915050600160201b811115610a9757600080fd5b820183602082011115610aa957600080fd5b803590602001918460018302840111600160201b83111715610aca57600080fd5b91908080601f016020809104026020016040519081016040528093929190818152602001838380828437600092019190915250929550505090356001600160e01b031916915061130d9050565b348015610b2357600080fd5b50610278611553565b348015610b3857600080fd5b50610278611559565b348015610b4d57600080fd5b5061027861155f565b348015610b6257600080fd5b50610278611565565b600c546001600160a01b031681565b600a5490565b60045490565b6009546001600160a01b03163314610b9d57600080fd5b600d55565b6014546001600160a01b031681565b60086020528160005260406000208181548110610bcd57600080fd5b600091825260209091206003909102018054600182015460029092015490935090915083565b600b5490565b60015481565b6000610c0b8383611a5e565b90505b92915050565b600d5481565b60135481565b6009546001600160a01b03163314610c3757600080fd5b600f55565b600f5481565b6000610c4d82611ad4565b90505b919050565b6009546001600160a01b03163314610c6c57600080fd5b601155565b600080610cc6610cbb600086868080601f016020809104026020016040519081016040528093929190818152602001838380828437600092019190915250929392505061156b9050565b62ffffff1916611b73565b90506000610d1c610d11600089898080601f016020809104026020016040519081016040528093929190818152602001838380828437600092019190915250929392505061156b9050565b62ffffff191661158f565b9050610d2d62ffffff1983166115f1565b610d685760405162461bcd60e51b815260040180806020018281038252602b815260200180613586602b913960400191505060405180910390fd5b610d7762ffffff1982166115f1565b610dc8576040805162461bcd60e51b815260206004820152601760248201527f416e63686f72206d757374206265203830206279746573000000000000000000604482015290519081900360640190fd5b610dd481836000611bc5565b925050505b949350505050565b600181565b6015546001600160a01b031681565b60006001546001018288011015610f315760005b600088815260086020526040902054811015610ee35760008881526008602052604081208054610e55919084908110610e3e57fe5b906000526020600020906003020160020154611e22565b90506000610eab610ea060008b8b8080601f016020809104026020016040519081016040528093929190818152602001838380828437600092019190915250929392505061156b9050565b62ffffff1916611ed8565b90506000610eb88c611e22565b9050610ec68184848b611f2a565b15610ed8576001945050505050610f35565b505050600101610e09565b506040805162461bcd60e51b815260206004820152601860248201527f747820686173206e6f74206265656e20696e636c756465640000000000000000604482015290519081900360640190fd5b5060005b979650505050505050565b600080610f8a610d11600087878080601f016020809104026020016040519081016040528093929190818152602001838380828437600092019190915250929392505061156b9050565b90506000610fd5610d1160008a8a8080601f016020809104026020016040519081016040528093929190818152602001838380828437600092019190915250929392505061156b9050565b9050610fe662ffffff1983166115f1565b8015610ffc5750610ffc62ffffff1982166115f1565b6110375760405162461bcd60e51b815260040180806020018281038252602e815260200180613637602e913960400191505060405180910390fd5b61104389828487611f7b565b9998505050505050505050565b60008061109a610d1160008a8a8080601f016020809104026020016040519081016040528093929190818152602001838380828437600092019190915250929392505061156b9050565b905060006110e5610d11600089898080601f016020809104026020016040519081016040528093929190818152602001838380828437600092019190915250929392505061156b9050565b90506000611130610cbb600088888080601f016020809104026020016040519081016040528093929190818152602001838380828437600092019190915250929392505061156b9050565b905061114162ffffff1984166115f1565b8015611157575061115762ffffff1983166115f1565b801561116d575061116d62ffffff1982166115f1565b6111a85760405162461bcd60e51b815260040180806020018281038252602e815260200180613637602e913960400191505060405180910390fd5b6111b383838361218a565b9a9950505050505050505050565b6009546001600160a01b031633146111d857600080fd5b601355565b6009546001600160a01b031633146111f457600080fd5b601480546001600160a01b0319166001600160a01b0392909216919091179055565b60125481565b6009546001600160a01b031681565b60009081526008602052604090205490565b60105481565b60025481565b6009546001600160a01b0316331461126057600080fd5b600e55565b6009546001600160a01b0316331461127c57600080fd5b600980546001600160a01b0319166001600160a01b0392909216919091179055565b6009546001600160a01b031633146112b557600080fd5b600255565b60006112c78484846123b6565b90505b9392505050565b60008281526008602052604081208054610c0b9190849081106112f057fe5b906000526020600020906003020160000154611e22565b600e5481565b60008060028686868660405160200180856001600160e01b031916815260040184805190602001908083835b602083106113585780518252601f199092019160209182019101611339565b51815160209384036101000a600019018019909216911617905286519190930192860191508083835b602083106113a05780518252601f199092019160209182019101611381565b6001836020036101000a038019825116818451168082178552505050505050905001826001600160e01b03191681526004019450505050506040516020818303038152906040526040518082805190602001908083835b602083106114165780518252601f1990920191602091820191016113f7565b51815160209384036101000a60001901801990921691161790526040519190930194509192505080830381855afa158015611455573d6000803e3d6000fd5b5050506040513d602081101561146a57600080fd5b5051604080516020818101849052825180830382018152918301928390528151939450600093600293918291908401908083835b602083106114bd5780518252601f19909201916020918201910161149e565b51815160209384036101000a60001901801990921691161790526040519190930194509192505080830381855afa1580156114fc573d6000803e3d6000fd5b5050506040513d602081101561151157600080fd5b505160408051808201909152600a81526934b7383aba2430b9b41960b11b602082015290915061154090612405565b611549816124ae565b9695505050505050565b60055490565b60005481565b60035490565b60115481565b81516000906020840161158664ffffffffff851682846124ef565b95945050505050565b600081816115a5815b62ffffff198416906116d6565b506115b562ffffff198516611814565b6001600160601b03166050146115d4576115cd611823565b92506115ea565b6115e760105b62ffffff1986169061182b565b92505b5050919050565b60006115fc82612529565b1592915050565b60008061160f83612535565b6001600160601b03169050600061162584611814565b6001600160601b03169050604051602081838560025afa5060208160208360025afa5051949350505050565b6000610c4d62ffffff1983166024602061183d565b80820382811115610c0e576040805162461bcd60e51b815260206004820152601560248201527464732d6d6174682d7375622d756e646572666c6f7760581b604482015290519081900360640190fd5b60008160106116c481611598565b506115e76116d185612544565b612595565b60006116e283836125a6565b61180d5760006117006116f4856125c8565b64ffffffffff166125ce565b91505060006117158464ffffffffff166125ce565b604080517f5479706520617373657274696f6e206661696c65642e20476f742030780000006020808301919091526001600160b01b031960b088811b8216603d8501526c05c408af0e0cac6e8cac84060f609b1b604785015285901b1660548301528251603e818403018152605e83019384905262461bcd60e51b909352606282018181528351608284015283519496509294508493839260a2019185019080838360005b838110156117d25781810151838201526020016117ba565b50505050905090810190601f1680156117ff5780820380516001836020036101000a031916815260200191505b509250505060405180910390fd5b5090919050565b60181c6001600160601b031690565b62ffffff1990565b60d81b6001600160d81b039091161790565b600060ff821661184f575060006112ca565b61185884611814565b6001600160601b031661186e8460ff8516611963565b11156118ec576118a561188085612535565b6001600160601b031661189286611814565b6001600160601b0316858560ff16612666565b60405162461bcd60e51b81526020600482018181528351602484015283519092839260449091019190850190808383600083156117d25781810151838201526020016117ba565b60208260ff16111561192f5760405162461bcd60e51b815260040180806020018281038252603a815260200180613698603a913960400191505060405180910390fd5b60088202600061193e86612535565b6001600160601b03169050600061195483612759565b91909501511695945050505050565b80820182811015610c0e576040805162461bcd60e51b815260206004820152601460248201527364732d6d6174682d6164642d6f766572666c6f7760601b604482015290519081900360640190fd5b60006112c76119c285858561183d565b612768565b60008160200360080260ff166119de85858561183d565b901c949350505050565b6000811580611a0357505080820282828281611a0057fe5b04145b610c0e576040805162461bcd60e51b815260206004820152601460248201527364732d6d6174682d6d756c2d6f766572666c6f7760601b604482015290519081900360640190fd5b6000818381611a5657fe5b049392505050565b600082815b83811015611a8e576000918252600660205260409091205490611a87816001611963565b9050611a63565b5080610c0b576040805162461bcd60e51b815260206004820152601060248201526f2ab735b737bbb71030b731b2b9ba37b960811b604482015290519081900360640190fd5b60008082815b6002811015611b3557600082815260076020526040902054925082611b0f576000918252600660205260409091205490611b23565b611b198382611963565b9350505050610c50565b611b2e816001611963565b9050611ada565b506040805162461bcd60e51b815260206004820152600d60248201526c556e6b6e6f776e20626c6f636b60981b604482015290519081900360640190fd5b60008181611b8081611598565b506050611b9262ffffff198616611814565b6001600160601b031681611ba257fe5b066001600160601b0316600014611bbb576115cd611823565b6115e760116115da565b600080611bd762ffffff198616611603565b90506000611be482611ad4565b90506000611c06611bfb62ffffff198816836128a2565b62ffffff1916612544565b905060008060005b6050611c1f62ffffff198b16611814565b6001600160601b031681611c2f57fe5b046001600160601b0316811015611d65576000611c5262ffffff198b16836128a2565b9050611c618660018401611963565b9350611c7262ffffff198216611603565b9250611c8462ffffff198216886128d4565b611cbf5760405162461bcd60e51b815260040180806020018281038252602681526020018061352d6026913960400191505060405180910390fd5b600083815260066020526040902054611d575784611cdc84612768565b1115611d2f576040805162461bcd60e51b815260206004820152601b60248201527f48656164657220776f726b20697320696e73756666696369656e740000000000604482015290519081900360640190fd5b60008381526006602090815260408083208a905560079091529020849055611d5781856128fd565b509094508490600101611c0e565b50600080611d8a33611d7c62ffffff198d16611814565b6001600160601b03166129f9565b90925090507f61281e68068a59c1359fe7670bb60800cecee1a08ee1d3a1d953553a348698ae6050611dc162ffffff198d16611814565b6001600160601b031681611dd157fe5b60408051929091046001600160601b0316870360010182526020820187905233828201526060820185905283151560808301525160a0918190039190910190a15060019a9950505050505050505050565b6000606081805b6020811015611ecc57828582601f0360208110611e4257fe5b1a60f81b6040516020018083805190602001908083835b60208310611e785780518252601f199092019160209182019101611e59565b6001836020036101000a038019825116818451168082178552505050505050905001826001600160f81b03191681526001019250505060405160208183030381529060405292508080600101915050611e29565b50506020015192915050565b60008181611ee581611598565b506020611ef762ffffff198616611814565b6001600160601b031681611f0757fe5b066001600160601b0316600014611f20576115cd611823565b6115e760146115da565b600083611f3686612bc0565b148015611f41575081155b8015611f625750611f5762ffffff198416611814565b6001600160601b0316155b15611f6f57506001610dd9565b61158685848685612c6a565b60006107e0821115611fbe5760405162461bcd60e51b81526004018080602001828103825260338152602001806135536033913960400191505060405180910390fd5b6000611fcf62ffffff198516611603565b90506000611fe262ffffff198716611603565b9050600454811461203a576040805162461bcd60e51b815260206004820181905260248201527f50617373656420696e2062657374206973206e6f742062657374206b6e6f776e604482015290519081900360640190fd5b600082815260066020526040902054612090576040805162461bcd60e51b81526020600482015260136024820152722732bb903132b9ba1034b9903ab735b737bbb760691b604482015290519081900360640190fd5b61209e876004548487612d22565b6120d95760405162461bcd60e51b815260040180806020018281038252602981526020018061375e6029913960400191505060405180910390fd5b816120e5888888612dcd565b146121215760405162461bcd60e51b81526004018080602001828103825260338152602001806136656033913960400191505060405180910390fd5b60048290556005879055600061213c62ffffff1987166116b6565b9050600a54811461214d57600a8190555b8783837f3cc13de64df0f0239626235c51a2da251bbc8c85664ecce39263da3ee03f606c60405160405180910390a4506001979650505050505050565b6000806121a461219f62ffffff198716611603565b611ad4565b905060006121ba61219f62ffffff198716611603565b90506107e081066107df146122005760405162461bcd60e51b815260040180806020018281038252603d8152602001806135fa603d913960400191505060405180910390fd5b61220c826107df611963565b81146122495760405162461bcd60e51b81526004018080602001828103825260288152602001806135b16028913960400191505060405180910390fd5b61225862ffffff1986166116b6565b61226762ffffff1988166116b6565b146122a35760405162461bcd60e51b81526004018080602001828103825260278152602001806137026027913960400191505060405180910390fd5b60006122b562ffffff198616826128a2565b905060006122c862ffffff198316612544565b9050600061230d6122de62ffffff198b16612544565b6122ed62ffffff198c16612f42565b63ffffffff1661230262ffffff198c16612f42565b63ffffffff16612f64565b90508181831614612365576040805162461bcd60e51b815260206004820152601960248201527f496e76616c69642072657461726765742070726f766964656400000000000000604482015290519081900360640190fd5b600061237662ffffff198b166116b6565b905080600b541415801561239f575061239c6107e0612396600454611ad4565b90611666565b85115b156123aa57600b8190555b6111b389896001611bc5565b600082815b838110156123f957858214156123d6576001925050506112ca565b60009182526006602052604090912054906123f2816001611963565b90506123bb565b50600095945050505050565b6124ab816040516024018080602001828103825283818151815260200191508051906020019080838360005b83811015612449578181015183820152602001612431565b50505050905090810190601f1680156124765780820380516001836020036101000a031916815260200191505b5060408051601f198184030181529190526020810180516001600160e01b031663104c13eb60e21b1790529250612fee915050565b50565b6040805160248082018490528251808303909101815260449091019091526020810180516001600160e01b03166327b7cf8560e01b1790526124ab90612fee565b6000806124fc8484611963565b905060405181111561250c575060005b8061251e5762ffffff199150506112ca565b61158685858561300f565b62ffffff199081161490565b60781c6001600160601b031690565b600081601061255281611598565b50600061256862ffffff198616604860036119b2565b90506000612584600361239662ffffff198916604b60016119c7565b90506115498261010083900a6119e8565b6000610c4d61ffff60d01b83611a4b565b60008164ffffffffff166125b9846125c8565b64ffffffffff16149392505050565b60d81c90565b600080601f5b600f8160ff1611156126185760ff600882021684901c6125f381613022565b61ffff16841793508160ff1660101461260e57601084901b93505b50600019016125d4565b50600f5b60ff8160ff1610156126605760ff600882021684901c61263b81613022565b61ffff16831792508160ff1660001461265657601083901b92505b506000190161261c565b50915091565b60606000612673866125ce565b9150506000612681866125ce565b915050600061268f866125ce565b915050600061269d866125ce565b915050838383836040516020018080613729603591396001600160d01b031960d087811b821660358401526e040eed2e8d040d8cadccee8d04060f608b1b603b84015286901b16604a82015260500160216135d982396001600160d01b031960d094851b811660218301526e040eed2e8d040d8cadccee8d04060f608b1b60278301529290931b909116603683015250601760f91b603c82015260408051601d818403018152603d90920190529b9a5050505050505050505050565b600160ff1b6000199091011d90565b600881811c7eff00ff00ff00ff00ff00ff00ff00ff00ff00ff00ff00ff00ff00ff00ff00ff167fff00ff00ff00ff00ff00ff00ff00ff00ff00ff00ff00ff00ff00ff00ff00ff009290911b9190911617601081811c7dffff0000ffff0000ffff0000ffff0000ffff0000ffff0000ffff0000ffff167fffff0000ffff0000ffff0000ffff0000ffff0000ffff0000ffff0000ffff00009290911b9190911617602081811c7bffffffff00000000ffffffff00000000ffffffff00000000ffffffff167fffffffff00000000ffffffff00000000ffffffff00000000ffffffff000000009290911b9190911617604081811c77ffffffffffffffff0000000000000000ffffffffffffffff1677ffffffffffffffff0000000000000000ffffffffffffffff199290911b9190911617608081811c91901b1790565b60008260116128b081611598565b5060006128be8560506119e8565b905061154962ffffff1987168260506010613052565b60008260106128e281611598565b50836128f362ffffff1987166130b7565b1495945050505050565b6001546002546002028201101561295b576040805162461bcd60e51b815260206004820152601760248201527f626c6f636b2068656164657220697320746f6f206f6c64000000000000000000604482015290519081900360640190fd5b61296361350c565b61297262ffffff198416611603565b815261298362ffffff1984166130b7565b602082015261299762ffffff198416611651565b604080830191825260008481526008602090815291812080546001818101835591835291839020855160039093020191825591840151818301559151600290920191909155548211156129f45760018054810190556129f46130d9565b505050565b60008060006064600d543a600e548702020281612a1257fe5b0490506000612a20826131d9565b600c549091506000906001600160a01b031615612ab557600c54604080516370a0823160e01b815230600482015290516001600160a01b03909216916370a0823191602480820192602092909190829003018186803b158015612a8257600080fd5b505afa158015612a96573d6000803e3d6000fd5b505050506040513d6020811015612aac57600080fd5b50519050612ab9565b5060005b47818311801590612aca5750600083115b15612b6157600c546040805163a9059cbb60e01b81526001600160a01b038b81166004830152602482018790529151919092169163a9059cbb9160448083019260209291908290030181600087803b158015612b2557600080fd5b505af1158015612b39573d6000803e3d6000fd5b505050506040513d6020811015612b4f57600080fd5b5092955060019450612bb99350505050565b808411158015612b715750600084115b15612bb457604051339085156108fc029086906000818181858888f19350505050158015612ba3573d6000803e3d6000fd5b508360009550955050505050612bb9565b505050505b9250929050565b6000606081805b6020811015611ecc57828582601f0360208110612be057fe5b1a60f81b6040516020018083805190602001908083835b60208310612c165780518252601f199092019160209182019101612bf7565b6001836020036101000a038019825116818451168082178552505050505050905001826001600160f81b03191681526001019250505060405160208183030381529060405292508080600101915050612bc7565b6000806020612c7e62ffffff198716611814565b6001600160601b031681612c8e57fe5b046001600160601b031690508060001415612cad575050838214610dd9565b828660005b83811015612d0a576000612cd162ffffff198a1660208085029061183d565b90506002840660011415612cf057612ce981846131df565b9250612cfd565b612cfa83826131df565b92505b50600192831c9201612cb2565b5085612d158261320b565b1498975050505050505050565b60008385148015612d3257508285145b15612d3f57506001610dd9565b8383818160005b86811015612d9457898314612d68576000838152600660205260409020549294505b898214612d82576000828152600660205260409020549193505b612d8d816001611963565b9050612d46565b5082841415612daa576000945050505050610dd9565b808214612dbe576000945050505050610dd9565b50600198975050505050505050565b600080612dd985611ad4565b90506000612def61219f62ffffff198716611603565b90506000612e0561219f62ffffff198716611603565b9050828210158015612e175750828110155b612e525760405162461bcd60e51b81526004018080602001828103825260308152602001806136d26030913960400191505060405180910390fd5b6000612e686107e08506612396866107e0611963565b9050808310818310811582612e7a5750805b15612e9b57612e8e62ffffff198a16611603565b96505050505050506112ca565b818015612ea6575080155b15612eba57612e8e62ffffff198916611603565b818015612ec45750805b15612ef45783851015612ee557612ee062ffffff198916611603565b612e8e565b612e8e62ffffff198a16611603565b612f12612f0662ffffff198a166116b6565b6107e0865b06906119e8565b612f2d612f2462ffffff198c166116b6565b6107e088612f0b565b1015612ee557612e8e62ffffff198916611603565b6000816010612f5081611598565b506115e762ffffff198516604460046119b2565b600080612f718385611666565b9050612f81621275006004611a4b565b811015612f9957612f96621275006004611a4b565b90505b612fa76212750060046119e8565b811115612fbf57612fbc6212750060046119e8565b90505b6000612fd882612fd28862010000611a4b565b906119e8565b905061154962010000612fd28362127500611a4b565b80516a636f6e736f6c652e6c6f67602083016000808483855afa5050505050565b606092831b9190911790911b1760181b90565b600061303460048360ff16901c6132b5565b60ff161760081b62ffff0016613049826132b5565b60ff1617919050565b60008061305e86612535565b6001600160601b0316905061307286613421565b613086856130808489611963565b90611963565b11156130995762ffffff19915050610dd9565b6130a38186611963565b90506115498364ffffffffff1682866124ef565b60008160106130c581611598565b506115e762ffffff1985166004602061183d565b60025460005460015403106131d75760025460015460005b821561314757600082815260086020526040812080548390811061311157fe5b90600052602060002090600302016001015490506131328160018503613446565b60001994850194939093019291506130f19050565b600082815260086020526040902080548290811061316157fe5b90600052602060002090600302016008600084815260200190815260200160002060008154811061318e57fe5b6000918252602080832084546003909302019182556001808501548184015560029485015494909201939093558482526008909252604090205411156129f4576129f4826134ac565b565b50600090565b600060405183815282602082015260208160408360025afa5060208160208360025afa50519392505050565b6000606081805b6020811015611ecc57828582601f036020811061322b57fe5b1a60f81b6040516020018083805190602001908083835b602083106132615780518252601f199092019160209182019101613242565b6001836020036101000a038019825116818451168082178552505050505050905001826001600160f81b03191681526001019250505060405160208183030381529060405292508080600101915050613212565b600060f08083179060ff821614156132d1576030915050610c50565b8060ff1660f114156132e7576031915050610c50565b8060ff1660f214156132fd576032915050610c50565b8060ff1660f31415613313576033915050610c50565b8060ff1660f41415613329576034915050610c50565b8060ff1660f5141561333f576035915050610c50565b8060ff1660f61415613355576036915050610c50565b8060ff1660f7141561336b576037915050610c50565b8060ff1660f81415613381576038915050610c50565b8060ff1660f91415613397576039915050610c50565b8060ff1660fa14156133ad576061915050610c50565b8060ff1660fb14156133c3576062915050610c50565b8060ff1660fc14156133d9576063915050610c50565b8060ff1660fd14156133ef576064915050610c50565b8060ff1660fe1415613405576065915050610c50565b8060ff1660ff141561341b576066915050610c50565b50919050565b600061342c82611814565b61343583612535565b016001600160601b03169050919050565b6000805b6000838152600860205260409020548110156134a257600083815260086020526040902080548290811061347a57fe5b90600052602060002090600302016000015484141561349a579050610c0e565b60010161344a565b5060009392505050565b60015b6000828152600860205260409020548110156135085760008281526008602052604090208054829081106134df57fe5b6000918252602082206003909102018181556001808201839055600290910191909155016134af565b5050565b60408051606081018252600080825260208201819052918101919091529056fe4865616465727320646f206e6f7420666f726d206120636f6e73697374656e7420636861696e526571756573746564206c696d69742069732067726561746572207468616e203120646966666963756c747920706572696f64486561646572206172726179206c656e677468206d75737420626520646976697369626c652062792038304d7573742070726f766964652065786163746c79203120646966666963756c747920706572696f642e20417474656d7074656420746f20696e646578206174206f66667365742030784d7573742070726f7669646520746865206c61737420686561646572206f662074686520636c6f73696e6720646966666963756c747920706572696f6442616420617267732e20436865636b2068656164657220616e642061727261792062797465206c656e677468732e4e65772062657374206861736820646f6573206e6f742068617665206d6f726520776f726b207468616e2070726576696f757354797065644d656d566965772f696e646578202d20417474656d7074656420746f20696e646578206d6f7265207468616e203332206279746573412064657363656e64616e74206865696768742069732062656c6f772074686520616e636573746f7220686569676874506572696f642068656164657220646966666963756c7469657320646f206e6f74206d6174636854797065644d656d566965772f696e646578202d204f76657272616e2074686520766965772e20536c696365206973206174203078416e636573746f72206d75737420626520686561766965737420636f6d6d6f6e20616e636573746f72a26469706673582212207662b5040fdbda095a70ad8d748f4c1c10d2072f91be5f32376a249e2ad3863e64736f6c634300070600332e20417474656d7074656420746f20696e646578206174206f666673657420307854797065644d656d566965772f696e646578202d20417474656d7074656420746f20696e646578206d6f7265207468616e20333220627974657354797065644d656d566965772f696e646578202d204f76657272616e2074686520766965772e20536c696365206973206174203078",
  "devdoc": {
    "kind": "dev",
    "methods": {
      "addHeaders(bytes,bytes)": {
        "details": "We check integrity and consistency of the header chain",
        "params": {
          "_anchor": "The header immediately preceeding the new chain",
          "_headers": "A tightly-packed list of 80-byte Bitcoin headers"
        },
        "returns": {
          "_0": "True if successfully written, error otherwise"
        }
      },
      "addHeadersWithRetarget(bytes,bytes,bytes)": {
        "details": "Checks the retarget, the heights, and the linkage",
        "params": {
          "_headers": "A tightly-packed list of 80-byte Bitcoin headers",
          "_oldPeriodEndHeader": "The last header in the difficulty period being closed",
          "_oldPeriodStartHeader": "The first header in the difficulty period being closed"
        },
        "returns": {
          "_0": "True if successfully written, error otherwise"
        }
      },
      "constructor": {
        "details": "We don't check this AT ALL really. Don't use relays with bad genesis",
        "params": {
          "_genesisHeader": "The starting header",
          "_height": "The starting height",
          "_periodStart": "The hash of the first header in the genesis epoch"
        }
      },
      "findAncestor(bytes32,uint256)": {
        "details": "Will fail if the header is unknown",
        "params": {
          "_digest": "The header digest to search for"
        },
        "returns": {
          "_0": "The height of the header, or error if unknown"
        }
      },
      "findHeight(bytes32)": {
        "details": "Will fail if the header is unknown",
        "params": {
          "_digest": "The header digest to search for"
        },
        "returns": {
          "_0": "The height of the header, or error if unknown"
        }
      },
      "getBestKnownDigest()": {
        "details": "This updated only by calling markNewHeaviest",
        "returns": {
          "_0": "The hash of the best marked chain tip"
        }
      },
      "getCurrentEpochDifficulty()": {
        "details": "This is updated when a new heavist header has a new diff",
        "returns": {
          "_0": "The difficulty of the bestKnownDigest"
        }
      },
      "getLastReorgCommonAncestor()": {
        "details": "This is updated only by calling markNewHeaviest",
        "returns": {
          "_0": "The hash of the shared ancestor of the most recent fork"
        }
      },
      "getPrevEpochDifficulty()": {
        "details": "This is updated when a difficulty change is accepted",
        "returns": {
          "_0": "The difficulty of the previous epoch"
        }
      },
      "getRelayGenesis()": {
        "details": "This is an initialization parameter",
        "returns": {
          "_0": "The hash of the first block of the relay"
        }
      },
      "isAncestor(bytes32,bytes32,uint256)": {
        "details": "Limit the amount of lookups (and thus gas usage) with _limit",
        "params": {
          "_ancestor": "The prospective ancestor",
          "_descendant": "The descendant to check",
          "_limit": "The maximum number of blocks to check"
        },
        "returns": {
          "_0": "true if ancestor is at most limit blocks lower than descendant, otherwise false"
        }
      },
      "markNewHeaviest(bytes32,bytes,bytes,uint256)": {
        "details": "We don't check this AT ALL really. Don't use relays with bad genesis",
        "params": {
          "_ancestor": "The digest of the most recent common ancestor",
          "_currentBest": "The 80-byte header referenced by bestKnownDigest",
          "_limit": "Limit the amount of traversal of the chain",
          "_newBest": "The 80-byte header to mark as the new best"
        },
        "returns": {
          "_0": "True if successfully updates bestKnownDigest, error otherwise"
        }
      }
    },
    "version": 1
  },
  "userdoc": {
    "kind": "user",
    "methods": {
      "addHeaders(bytes,bytes)": {
        "notice": "Adds headers to storage after validating"
      },
      "addHeadersWithRetarget(bytes,bytes,bytes)": {
        "notice": "Adds headers to storage, performs additional validation of retarget"
      },
      "constructor": {
        "notice": "Gives a starting point for the relay"
      },
      "findAncestor(bytes32,uint256)": {
        "notice": "Finds an ancestor for a block by its digest"
      },
      "findHeight(bytes32)": {
        "notice": "Finds the height of a header by its digest"
      },
      "getBestKnownDigest()": {
        "notice": "Getter for bestKnownDigest"
      },
      "getCurrentEpochDifficulty()": {
        "notice": "Getter for currentEpochDiff"
      },
      "getLastReorgCommonAncestor()": {
        "notice": "Getter for relayGenesis"
      },
      "getPrevEpochDifficulty()": {
        "notice": "Getter for prevEpochDiff"
      },
      "getRelayGenesis()": {
        "notice": "Getter for relayGenesis"
      },
      "isAncestor(bytes32,bytes32,uint256)": {
        "notice": "Checks if a digest is an ancestor of the current one"
      },
      "markNewHeaviest(bytes32,bytes,bytes,uint256)": {
        "notice": "Gives a starting point for the relay"
      }
    },
    "version": 1
  },
  "storageLayout": {
    "storage": [
      {
        "astId": 8674,
        "contract": "contracts/relay/BitcoinRelay.sol:BitcoinRelay",
        "label": "initialHeight",
        "offset": 0,
        "slot": "0",
        "type": "t_uint256"
      },
      {
        "astId": 8677,
        "contract": "contracts/relay/BitcoinRelay.sol:BitcoinRelay",
        "label": "lastSubmittedHeight",
        "offset": 0,
        "slot": "1",
        "type": "t_uint256"
      },
      {
        "astId": 8680,
        "contract": "contracts/relay/BitcoinRelay.sol:BitcoinRelay",
        "label": "finalizationParameter",
        "offset": 0,
        "slot": "2",
        "type": "t_uint256"
      },
      {
        "astId": 8682,
        "contract": "contracts/relay/BitcoinRelay.sol:BitcoinRelay",
        "label": "relayGenesis",
        "offset": 0,
        "slot": "3",
        "type": "t_bytes32"
      },
      {
        "astId": 8684,
        "contract": "contracts/relay/BitcoinRelay.sol:BitcoinRelay",
        "label": "bestKnownDigest",
        "offset": 0,
        "slot": "4",
        "type": "t_bytes32"
      },
      {
        "astId": 8686,
        "contract": "contracts/relay/BitcoinRelay.sol:BitcoinRelay",
        "label": "lastReorgCommonAncestor",
        "offset": 0,
        "slot": "5",
        "type": "t_bytes32"
      },
      {
        "astId": 8690,
        "contract": "contracts/relay/BitcoinRelay.sol:BitcoinRelay",
        "label": "previousBlock",
        "offset": 0,
        "slot": "6",
        "type": "t_mapping(t_bytes32,t_bytes32)"
      },
      {
        "astId": 8694,
        "contract": "contracts/relay/BitcoinRelay.sol:BitcoinRelay",
        "label": "blockHeight",
        "offset": 0,
        "slot": "7",
        "type": "t_mapping(t_bytes32,t_uint256)"
      },
      {
        "astId": 8699,
        "contract": "contracts/relay/BitcoinRelay.sol:BitcoinRelay",
        "label": "chain",
        "offset": 0,
        "slot": "8",
        "type": "t_mapping(t_uint256,t_array(t_struct(blockHeader)10783_storage)dyn_storage)"
      },
      {
        "astId": 8702,
        "contract": "contracts/relay/BitcoinRelay.sol:BitcoinRelay",
        "label": "owner",
        "offset": 0,
        "slot": "9",
        "type": "t_address"
      },
      {
        "astId": 8704,
        "contract": "contracts/relay/BitcoinRelay.sol:BitcoinRelay",
        "label": "currentEpochDiff",
        "offset": 0,
        "slot": "10",
        "type": "t_uint256"
      },
      {
        "astId": 8706,
        "contract": "contracts/relay/BitcoinRelay.sol:BitcoinRelay",
        "label": "prevEpochDiff",
        "offset": 0,
        "slot": "11",
        "type": "t_uint256"
      },
      {
        "astId": 8709,
        "contract": "contracts/relay/BitcoinRelay.sol:BitcoinRelay",
        "label": "TeleportDAOToken",
        "offset": 0,
        "slot": "12",
        "type": "t_address"
      },
      {
        "astId": 8712,
        "contract": "contracts/relay/BitcoinRelay.sol:BitcoinRelay",
        "label": "feeRatio",
        "offset": 0,
        "slot": "13",
        "type": "t_uint256"
      },
      {
        "astId": 8715,
        "contract": "contracts/relay/BitcoinRelay.sol:BitcoinRelay",
        "label": "submissionGasUsed",
        "offset": 0,
        "slot": "14",
        "type": "t_uint256"
      },
      {
        "astId": 8718,
        "contract": "contracts/relay/BitcoinRelay.sol:BitcoinRelay",
        "label": "epochLength",
        "offset": 0,
        "slot": "15",
        "type": "t_uint256"
      },
      {
        "astId": 8721,
        "contract": "contracts/relay/BitcoinRelay.sol:BitcoinRelay",
        "label": "lastEpochQueries",
        "offset": 0,
        "slot": "16",
        "type": "t_uint256"
      },
      {
        "astId": 8724,
        "contract": "contracts/relay/BitcoinRelay.sol:BitcoinRelay",
        "label": "baseQueries",
        "offset": 0,
        "slot": "17",
        "type": "t_uint256"
      },
      {
        "astId": 8727,
        "contract": "contracts/relay/BitcoinRelay.sol:BitcoinRelay",
        "label": "lastBuyBack",
        "offset": 0,
        "slot": "18",
        "type": "t_uint256"
      },
      {
        "astId": 8730,
        "contract": "contracts/relay/BitcoinRelay.sol:BitcoinRelay",
        "label": "buyBackPeriod",
        "offset": 0,
        "slot": "19",
        "type": "t_uint256"
      },
      {
        "astId": 8733,
        "contract": "contracts/relay/BitcoinRelay.sol:BitcoinRelay",
        "label": "exchangeRouter",
        "offset": 0,
        "slot": "20",
        "type": "t_address"
      },
      {
        "astId": 8736,
        "contract": "contracts/relay/BitcoinRelay.sol:BitcoinRelay",
        "label": "WAVAX",
        "offset": 0,
        "slot": "21",
        "type": "t_address"
      },
      {
        "astId": 8740,
        "contract": "contracts/relay/BitcoinRelay.sol:BitcoinRelay",
        "label": "numberOfQueries",
        "offset": 0,
        "slot": "22",
        "type": "t_mapping(t_uint256,t_uint256)"
      }
    ],
    "types": {
      "t_address": {
        "encoding": "inplace",
        "label": "address",
        "numberOfBytes": "20"
      },
      "t_array(t_struct(blockHeader)10783_storage)dyn_storage": {
        "base": "t_struct(blockHeader)10783_storage",
        "encoding": "dynamic_array",
        "label": "struct IBitcoinRelay.blockHeader[]",
        "numberOfBytes": "32"
      },
      "t_bytes32": {
        "encoding": "inplace",
        "label": "bytes32",
        "numberOfBytes": "32"
      },
      "t_mapping(t_bytes32,t_bytes32)": {
        "encoding": "mapping",
        "key": "t_bytes32",
        "label": "mapping(bytes32 => bytes32)",
        "numberOfBytes": "32",
        "value": "t_bytes32"
      },
      "t_mapping(t_bytes32,t_uint256)": {
        "encoding": "mapping",
        "key": "t_bytes32",
        "label": "mapping(bytes32 => uint256)",
        "numberOfBytes": "32",
        "value": "t_uint256"
      },
      "t_mapping(t_uint256,t_array(t_struct(blockHeader)10783_storage)dyn_storage)": {
        "encoding": "mapping",
        "key": "t_uint256",
        "label": "mapping(uint256 => struct IBitcoinRelay.blockHeader[])",
        "numberOfBytes": "32",
        "value": "t_array(t_struct(blockHeader)10783_storage)dyn_storage"
      },
      "t_mapping(t_uint256,t_uint256)": {
        "encoding": "mapping",
        "key": "t_uint256",
        "label": "mapping(uint256 => uint256)",
        "numberOfBytes": "32",
        "value": "t_uint256"
      },
      "t_struct(blockHeader)10783_storage": {
        "encoding": "inplace",
        "label": "struct IBitcoinRelay.blockHeader",
        "members": [
          {
            "astId": 10778,
            "contract": "contracts/relay/BitcoinRelay.sol:BitcoinRelay",
            "label": "selfHash",
            "offset": 0,
            "slot": "0",
            "type": "t_bytes32"
          },
          {
            "astId": 10780,
            "contract": "contracts/relay/BitcoinRelay.sol:BitcoinRelay",
            "label": "parentHash",
            "offset": 0,
            "slot": "1",
            "type": "t_bytes32"
          },
          {
            "astId": 10782,
            "contract": "contracts/relay/BitcoinRelay.sol:BitcoinRelay",
            "label": "merkleRoot",
            "offset": 0,
            "slot": "2",
            "type": "t_bytes32"
          }
        ],
        "numberOfBytes": "96"
      },
      "t_uint256": {
        "encoding": "inplace",
        "label": "uint256",
        "numberOfBytes": "32"
      }
    }
  }
}