{
  "address": "0xb2bad1EB5FB6c71613247f98E0Ea61eF0777D36d",
  "abi": [
    {
      "inputs": [
        {
          "internalType": "bytes",
          "name": "_genesisHeader",
          "type": "bytes"
        },
        {
          "internalType": "uint256",
          "name": "_height",
          "type": "uint256"
        },
        {
          "internalType": "bytes32",
          "name": "_periodStart",
          "type": "bytes32"
        },
        {
          "internalType": "address",
          "name": "_TeleportDAOToken",
          "type": "address"
        }
      ],
      "stateMutability": "nonpayable",
      "type": "constructor"
    },
    {
      "anonymous": false,
      "inputs": [
        {
          "indexed": true,
          "internalType": "uint256",
          "name": "height",
          "type": "uint256"
        },
        {
          "indexed": false,
          "internalType": "bytes32",
          "name": "selfHash",
          "type": "bytes32"
        },
        {
          "indexed": true,
          "internalType": "bytes32",
          "name": "parentHash",
          "type": "bytes32"
        },
        {
          "indexed": true,
          "internalType": "address",
          "name": "relayer",
          "type": "address"
        }
      ],
      "name": "BlockAdded",
      "type": "event"
    },
    {
      "anonymous": false,
      "inputs": [
        {
          "indexed": true,
          "internalType": "uint256",
          "name": "height",
          "type": "uint256"
        },
        {
          "indexed": false,
          "internalType": "bytes32",
          "name": "selfHash",
          "type": "bytes32"
        },
        {
          "indexed": false,
          "internalType": "bytes32",
          "name": "parentHash",
          "type": "bytes32"
        },
        {
          "indexed": true,
          "internalType": "address",
          "name": "relayer",
          "type": "address"
        },
        {
          "indexed": false,
          "internalType": "uint256",
          "name": "rewardAmountTNT",
          "type": "uint256"
        },
        {
          "indexed": false,
          "internalType": "uint256",
          "name": "rewardAmountTDT",
          "type": "uint256"
        }
      ],
      "name": "BlockFinalized",
      "type": "event"
    },
    {
      "anonymous": false,
      "inputs": [
        {
          "indexed": true,
          "internalType": "address",
          "name": "previousOwner",
          "type": "address"
        },
        {
          "indexed": true,
          "internalType": "address",
          "name": "newOwner",
          "type": "address"
        }
      ],
      "name": "OwnershipTransferred",
      "type": "event"
    },
    {
      "anonymous": false,
      "inputs": [
        {
          "indexed": false,
          "internalType": "address",
          "name": "account",
          "type": "address"
        }
      ],
      "name": "Paused",
      "type": "event"
    },
    {
      "anonymous": false,
      "inputs": [
        {
          "indexed": false,
          "internalType": "address",
          "name": "account",
          "type": "address"
        }
      ],
      "name": "Unpaused",
      "type": "event"
    },
    {
      "inputs": [],
      "name": "TeleportDAOToken",
      "outputs": [
        {
          "internalType": "address",
          "name": "",
          "type": "address"
        }
      ],
      "stateMutability": "view",
      "type": "function"
    },
    {
      "inputs": [
        {
          "internalType": "bytes",
          "name": "_anchor",
          "type": "bytes"
        },
        {
          "internalType": "bytes",
          "name": "_headers",
          "type": "bytes"
        }
      ],
      "name": "addHeaders",
      "outputs": [
        {
          "internalType": "bool",
          "name": "",
          "type": "bool"
        }
      ],
      "stateMutability": "nonpayable",
      "type": "function"
    },
    {
      "inputs": [
        {
          "internalType": "bytes",
          "name": "_oldPeriodStartHeader",
          "type": "bytes"
        },
        {
          "internalType": "bytes",
          "name": "_oldPeriodEndHeader",
          "type": "bytes"
        },
        {
          "internalType": "bytes",
          "name": "_headers",
          "type": "bytes"
        }
      ],
      "name": "addHeadersWithRetarget",
      "outputs": [
        {
          "internalType": "bool",
          "name": "",
          "type": "bool"
        }
      ],
      "stateMutability": "nonpayable",
      "type": "function"
    },
    {
      "inputs": [],
      "name": "availableTDT",
      "outputs": [
        {
          "internalType": "uint256",
          "name": "",
          "type": "uint256"
        }
      ],
      "stateMutability": "view",
      "type": "function"
    },
    {
      "inputs": [],
      "name": "availableTNT",
      "outputs": [
        {
          "internalType": "uint256",
          "name": "",
          "type": "uint256"
        }
      ],
      "stateMutability": "view",
      "type": "function"
    },
    {
      "inputs": [],
      "name": "baseQueries",
      "outputs": [
        {
          "internalType": "uint256",
          "name": "",
          "type": "uint256"
        }
      ],
      "stateMutability": "view",
      "type": "function"
    },
    {
      "inputs": [
        {
          "internalType": "bytes32",
          "name": "_txid",
          "type": "bytes32"
        },
        {
          "internalType": "uint256",
          "name": "_blockHeight",
          "type": "uint256"
        },
        {
          "internalType": "bytes",
          "name": "_intermediateNodes",
          "type": "bytes"
        },
        {
          "internalType": "uint256",
          "name": "_index",
          "type": "uint256"
        }
      ],
      "name": "checkTxProof",
      "outputs": [
        {
          "internalType": "bool",
          "name": "",
          "type": "bool"
        }
      ],
      "stateMutability": "payable",
      "type": "function"
    },
    {
      "inputs": [],
      "name": "currentEpochQueries",
      "outputs": [
        {
          "internalType": "uint256",
          "name": "",
          "type": "uint256"
        }
      ],
      "stateMutability": "view",
      "type": "function"
    },
    {
      "inputs": [],
      "name": "epochLength",
      "outputs": [
        {
          "internalType": "uint256",
          "name": "",
          "type": "uint256"
        }
      ],
      "stateMutability": "view",
      "type": "function"
    },
    {
      "inputs": [],
      "name": "finalizationParameter",
      "outputs": [
        {
          "internalType": "uint256",
          "name": "",
          "type": "uint256"
        }
      ],
      "stateMutability": "view",
      "type": "function"
    },
    {
      "inputs": [
        {
          "internalType": "bytes32",
          "name": "_hash",
          "type": "bytes32"
        },
        {
          "internalType": "uint256",
          "name": "_offset",
          "type": "uint256"
        }
      ],
      "name": "findAncestor",
      "outputs": [
        {
          "internalType": "bytes32",
          "name": "",
          "type": "bytes32"
        }
      ],
      "stateMutability": "view",
      "type": "function"
    },
    {
      "inputs": [
        {
          "internalType": "bytes32",
          "name": "_hash",
          "type": "bytes32"
        }
      ],
      "name": "findHeight",
      "outputs": [
        {
          "internalType": "uint256",
          "name": "",
          "type": "uint256"
        }
      ],
      "stateMutability": "view",
      "type": "function"
    },
    {
      "inputs": [
        {
          "internalType": "uint256",
          "name": "_height",
          "type": "uint256"
        },
        {
          "internalType": "uint256",
          "name": "_index",
          "type": "uint256"
        }
      ],
      "name": "getBlockHeaderFee",
      "outputs": [
        {
          "internalType": "uint256",
          "name": "",
          "type": "uint256"
        }
      ],
      "stateMutability": "view",
      "type": "function"
    },
    {
      "inputs": [
        {
          "internalType": "uint256",
          "name": "_height",
          "type": "uint256"
        },
        {
          "internalType": "uint256",
          "name": "_index",
          "type": "uint256"
        }
      ],
      "name": "getBlockHeaderHash",
      "outputs": [
        {
          "internalType": "bytes32",
          "name": "",
          "type": "bytes32"
        }
      ],
      "stateMutability": "view",
      "type": "function"
    },
    {
      "inputs": [
        {
          "internalType": "uint256",
          "name": "_height",
          "type": "uint256"
        }
      ],
      "name": "getNumberOfSubmittedHeaders",
      "outputs": [
        {
          "internalType": "uint256",
          "name": "",
          "type": "uint256"
        }
      ],
      "stateMutability": "view",
      "type": "function"
    },
    {
      "inputs": [],
      "name": "initialHeight",
      "outputs": [
        {
          "internalType": "uint256",
          "name": "",
          "type": "uint256"
        }
      ],
      "stateMutability": "view",
      "type": "function"
    },
    {
      "inputs": [
        {
          "internalType": "bytes32",
          "name": "_ancestor",
          "type": "bytes32"
        },
        {
          "internalType": "bytes32",
          "name": "_descendant",
          "type": "bytes32"
        },
        {
          "internalType": "uint256",
          "name": "_limit",
          "type": "uint256"
        }
      ],
      "name": "isAncestor",
      "outputs": [
        {
          "internalType": "bool",
          "name": "",
          "type": "bool"
        }
      ],
      "stateMutability": "view",
      "type": "function"
    },
    {
      "inputs": [],
      "name": "lastEpochQueries",
      "outputs": [
        {
          "internalType": "uint256",
          "name": "",
          "type": "uint256"
        }
      ],
      "stateMutability": "view",
      "type": "function"
    },
    {
      "inputs": [],
      "name": "lastSubmittedHeight",
      "outputs": [
        {
          "internalType": "uint256",
          "name": "",
          "type": "uint256"
        }
      ],
      "stateMutability": "view",
      "type": "function"
    },
    {
      "inputs": [],
      "name": "owner",
      "outputs": [
        {
          "internalType": "address",
          "name": "",
          "type": "address"
        }
      ],
      "stateMutability": "view",
      "type": "function"
    },
    {
      "inputs": [
        {
          "internalType": "bytes",
          "name": "_anchor",
          "type": "bytes"
        },
        {
          "internalType": "bytes",
          "name": "_headers",
          "type": "bytes"
        }
      ],
      "name": "ownerAddHeaders",
      "outputs": [
        {
          "internalType": "bool",
          "name": "",
          "type": "bool"
        }
      ],
      "stateMutability": "nonpayable",
      "type": "function"
    },
    {
      "inputs": [
        {
          "internalType": "bytes",
          "name": "_oldPeriodStartHeader",
          "type": "bytes"
        },
        {
          "internalType": "bytes",
          "name": "_oldPeriodEndHeader",
          "type": "bytes"
        },
        {
          "internalType": "bytes",
          "name": "_headers",
          "type": "bytes"
        }
      ],
      "name": "ownerAddHeadersWithRetarget",
      "outputs": [
        {
          "internalType": "bool",
          "name": "",
          "type": "bool"
        }
      ],
      "stateMutability": "nonpayable",
      "type": "function"
    },
    {
      "inputs": [],
      "name": "pauseRelay",
      "outputs": [],
      "stateMutability": "nonpayable",
      "type": "function"
    },
    {
      "inputs": [],
      "name": "paused",
      "outputs": [
        {
          "internalType": "bool",
          "name": "",
          "type": "bool"
        }
      ],
      "stateMutability": "view",
      "type": "function"
    },
    {
      "inputs": [],
      "name": "relayGenesisHash",
      "outputs": [
        {
          "internalType": "bytes32",
          "name": "",
          "type": "bytes32"
        }
      ],
      "stateMutability": "view",
      "type": "function"
    },
    {
      "inputs": [],
      "name": "relayerPercentageFee",
      "outputs": [
        {
          "internalType": "uint256",
          "name": "",
          "type": "uint256"
        }
      ],
      "stateMutability": "view",
      "type": "function"
    },
    {
      "inputs": [],
      "name": "renounceOwnership",
      "outputs": [],
      "stateMutability": "nonpayable",
      "type": "function"
    },
    {
      "inputs": [],
      "name": "rewardAmountInTDT",
      "outputs": [
        {
          "internalType": "uint256",
          "name": "",
          "type": "uint256"
        }
      ],
      "stateMutability": "view",
      "type": "function"
    },
    {
      "inputs": [
        {
          "internalType": "uint256",
          "name": "_baseQueries",
          "type": "uint256"
        }
      ],
      "name": "setBaseQueries",
      "outputs": [],
      "stateMutability": "nonpayable",
      "type": "function"
    },
    {
      "inputs": [
        {
          "internalType": "uint256",
          "name": "_epochLength",
          "type": "uint256"
        }
      ],
      "name": "setEpochLength",
      "outputs": [],
      "stateMutability": "nonpayable",
      "type": "function"
    },
    {
      "inputs": [
        {
          "internalType": "uint256",
          "name": "_finalizationParameter",
          "type": "uint256"
        }
      ],
      "name": "setFinalizationParameter",
      "outputs": [],
      "stateMutability": "nonpayable",
      "type": "function"
    },
    {
      "inputs": [
        {
          "internalType": "uint256",
          "name": "_relayerPercentageFee",
          "type": "uint256"
        }
      ],
      "name": "setRelayerPercentageFee",
      "outputs": [],
      "stateMutability": "nonpayable",
      "type": "function"
    },
    {
      "inputs": [
        {
          "internalType": "uint256",
          "name": "_rewardAmountInTDT",
          "type": "uint256"
        }
      ],
      "name": "setRewardAmountInTDT",
      "outputs": [],
      "stateMutability": "nonpayable",
      "type": "function"
    },
    {
      "inputs": [
        {
          "internalType": "uint256",
          "name": "_submissionGasUsed",
          "type": "uint256"
        }
      ],
      "name": "setSubmissionGasUsed",
      "outputs": [],
      "stateMutability": "nonpayable",
      "type": "function"
    },
    {
      "inputs": [],
      "name": "submissionGasUsed",
      "outputs": [
        {
          "internalType": "uint256",
          "name": "",
          "type": "uint256"
        }
      ],
      "stateMutability": "view",
      "type": "function"
    },
    {
      "inputs": [
        {
          "internalType": "address",
          "name": "newOwner",
          "type": "address"
        }
      ],
      "name": "transferOwnership",
      "outputs": [],
      "stateMutability": "nonpayable",
      "type": "function"
    },
    {
      "inputs": [],
      "name": "unpauseRelay",
      "outputs": [],
      "stateMutability": "nonpayable",
      "type": "function"
    }
  ],
  "transactionHash": "0xfdf8690f9db93654062e5d851d874bcbda7d4bfee83e48f413713c110e4b1ad8",
  "args": [
    "0x00000020dae1dedcc9994c880b1fc16a3c7cd6667ed7e3c4361f537d0a3b0300000000007eae186e0701357ebebc5c107d284f493a712cdd0b69fc5c6ae28b3cb2a84934dfb71263ffff001ddd20e3e4",
    2345209,
    "0x9477c0a1deb5c6fb039ba759472fa32d48d247a17ffe9e761300000000000000",
    "0x16657dF470D9b82aa89ED9Cd3093944733ac44C0"
  ],
  "numDeployments": 1,
  "solcInputHash": "c167bd5be69275251cc1930b00674c6f",
  "bytecode": "0x60806040523480156200001157600080fd5b506040516200451f3803806200451f833981016040819052620000349162000bbd565b6200003f336200030e565b600180556002805460ff191690556000620000826200006b86836200035e602090811b6200109717901c565b62ffffff19166200038460201b620010bb1760201c565b9050620000a08162ffffff19166200041f60201b620011131760201c565b620000f25760405162461bcd60e51b815260206004820152601d60248201527f426974636f696e52656c61793a2073746f70206265696e672064756d6200000060448201526064015b60405180910390fd5b6000620001108262ffffff19166200042f60201b620011201760201c565b600e8190556040805160a081018252600060208083018290529282018190526060820181905260808201528281529192506200015d9062ffffff198516906200118262000493821b17901c565b816020018181525050620001828362ffffff1916620004c260201b620011a41760201c565b604082810191825233606084019081526000608085018181528a825260116020908152938220805460018082018355918452928590208751600590940201928355938601519382019390935592516002840155516003830180546001600160a01b0319166001600160a01b039092169190911790555160049091015562ffffff851615620002795760405162461bcd60e51b815260206004820152603d60248201527f506572696f64207374617274206861736820646f6573206e6f7420686176652060448201527f776f726b2e2048696e743a2077726f6e672062797465206f726465723f0000006064820152608401620000e9565b6000828152601060205260409020869055620002986107e08762000d88565b620002a4908762000d15565b6000958652601060205260408620555050600360058181559085905560049490945550600d80546001600160a01b0319166001600160a01b03929092169190911790556007919091556107e06009819055600a819055600c55600b5550620493e060085562000dd5565b600080546001600160a01b038381166001600160a01b0319831681178455604051919092169283917f8be0079c531659141344cd1fd0a4f28419497f9722a3daafe3b4186f6b6457e09190a35050565b8151600090602084016200037b64ffffffffff85168284620004f1565b95945050505050565b60008181620003a9815b8362ffffff19166200053d60201b620011c61790919060201c565b50620003c68462ffffff19166200062160201b6200129f1760201c565b6001600160601b0316605014620003f457620003ec6200063060201b620012ae1760201c565b925062000418565b6200041560108562ffffff19166200063860201b620012b61790919060201c565b92505b5050919050565b62ffffff1981811614155b919050565b600080620004468360781c6001600160601b031690565b6001600160601b031690506000620004678460181c6001600160601b031690565b6001600160601b03169050604051602081838560025afa5060208160208360025afa5051949350505050565b6000816010620004a3816200038e565b506200041562ffffff19851660046020620012c86200064a821b17811c565b6000816010620004d2816200038e565b506200041562ffffff19851660246020620012c86200064a821b17811c565b60008062000500838562000cce565b905060405181111562000511575060005b80620005255762ffffff1991505062000536565b5050606083811b8317901b811760181b5b9392505050565b60006200054b8383620007b2565b6200061a5760006200056e620005618560d81c90565b64ffffffffff16620007d6565b9150600090506200058664ffffffffff8516620007d6565b6040517f5479706520617373657274696f6e206661696c65642e20476f7420307800000060208201526001600160b01b031960b086811b8216603d8401526c05c408af0e0cac6e8cac84060f609b1b604784015283901b16605482015290925060009150605e0160405160208183030381529060405290508060405162461bcd60e51b8152600401620000e9919062000c99565b5090919050565b60181c6001600160601b031690565b62ffffff1990565b60d81b6001600160d81b039091161790565b600060ff82166200065e5750600062000536565b620006728460181c6001600160601b031690565b6001600160601b03166200068a60ff84168562000cce565b1115620006f557620006da620006a98560781c6001600160601b031690565b6001600160601b0316620006c68660181c6001600160601b031690565b6001600160601b03168560ff8616620008a8565b60405162461bcd60e51b8152600401620000e9919062000c99565b60208260ff161115620007715760405162461bcd60e51b815260206004820152603a60248201527f54797065644d656d566965772f696e646578202d20417474656d70746564207460448201527f6f20696e646578206d6f7265207468616e2033322062797465730000000000006064820152608401620000e9565b6008820260006200078b8660781c6001600160601b031690565b6001600160601b031690506000600160ff1b60001984011d91909501511695945050505050565b600064ffffffffff8216620007c78460d81c90565b64ffffffffff16149392505050565b600080601f5b600f8160ff1611156200083d576000620007f882600862000ce9565b60ff1685901c90506200080b81620009e5565b61ffff16841793508160ff166010146200082757601084901b93505b506200083560018262000d2f565b9050620007dc565b50600f5b60ff8160ff161015620008a25760006200085d82600862000ce9565b60ff1685901c90506200087081620009e5565b61ffff16831792508160ff166000146200088c57601083901b92505b506200089a60018262000d2f565b905062000841565b50915091565b60606000620008b786620007d6565b915060009050620008c886620007d6565b915060009050620008d986620007d6565b915060009050620008ea86620007d6565b604080517f54797065644d656d566965772f696e646578202d204f76657272616e2074686560208201527f20766965772e20536c6963652069732061742030780000000000000000000000818301526001600160d01b031960d098891b811660558301526e040eed2e8d040d8cadccee8d04060f608b1b605b830181905297891b8116606a8301527f2e20417474656d7074656420746f20696e646578206174206f666673657420306070830152600f60fb1b609083015295881b861660918201526097810196909652951b90921660a68401525050601760f91b60ac8201528151808203608d01815260ad90910190915295945050505050565b6000620009f9600f600484901c1662000a19565b60ff161760081b62ffff001662000a108262000a19565b60ff1617919050565b600060f08083179060ff8216141562000a375760309150506200042a565b8060ff1660f1141562000a4f5760319150506200042a565b8060ff1660f2141562000a675760329150506200042a565b8060ff1660f3141562000a7f5760339150506200042a565b8060ff1660f4141562000a975760349150506200042a565b8060ff1660f5141562000aaf5760359150506200042a565b8060ff1660f6141562000ac75760369150506200042a565b8060ff1660f7141562000adf5760379150506200042a565b8060ff1660f8141562000af75760389150506200042a565b8060ff1660f9141562000b0f5760399150506200042a565b8060ff1660fa141562000b275760619150506200042a565b8060ff1660fb141562000b3f5760629150506200042a565b8060ff1660fc141562000b575760639150506200042a565b8060ff1660fd141562000b6f5760649150506200042a565b8060ff1660fe141562000b875760659150506200042a565b8060ff1660ff141562000b9f5760669150506200042a565b50919050565b80516001600160a01b03811681146200042a57600080fd5b6000806000806080858703121562000bd3578384fd5b84516001600160401b038082111562000bea578586fd5b818701915087601f83011262000bfe578586fd5b81518181111562000c135762000c1362000dbf565b604051601f8201601f19908116603f0116810190838211818310171562000c3e5762000c3e62000dbf565b816040528281528a602084870101111562000c57578889fd5b62000c6a83602083016020880162000d55565b8098505050505050602085015192506040850151915062000c8e6060860162000ba5565b905092959194509250565b600060208252825180602084015262000cba81604085016020870162000d55565b601f01601f19169190910160400192915050565b6000821982111562000ce45762000ce462000da9565b500190565b600060ff821660ff84168160ff048111821515161562000d0d5762000d0d62000da9565b029392505050565b60008282101562000d2a5762000d2a62000da9565b500390565b600060ff821660ff84168082101562000d4c5762000d4c62000da9565b90039392505050565b60005b8381101562000d7257818101518382015260200162000d58565b8381111562000d82576000848401525b50505050565b60008262000da457634e487b7160e01b81526012600452602481fd5b500690565b634e487b7160e01b600052601160045260246000fd5b634e487b7160e01b600052604160045260246000fd5b61373a8062000de56000396000f3fe60806040526004361061021a5760003560e01c8063901186bb11610123578063b9bbd9bd116100ab578063efbc7be41161006f578063efbc7be4146105c9578063f02f62fd146105df578063f2fde38b146105ff578063fa041af51461061f578063fd9c6e85146106355761021a565b8063b9bbd9bd1461053d578063b9e88ac11461055d578063c20dc6641461057d578063d0a8973914610593578063e2761af0146105b35761021a565b8063a3db54eb116100f2578063a3db54eb146104a8578063ae6e5eb0146104c8578063ae96c2ae146104e8578063b36161bd146104fd578063b985621a1461051d5761021a565b8063901186bb1461042f578063926d44e21461044f5780639f1564141461047c578063a072bc50146104925761021a565b80635c975abb116101a6578063665b634f11610175578063665b634f146103b1578063715018a6146103c75780637fa637fc146103dc578063882a5ee0146103fc5780638da5cb5b146104115761021a565b80635c975abb1461033957806360b5c39014610351578063659416831461037157806365da41b9146103915761021a565b8063465e7559116101ed578063465e7559146102c357806354eea796146102da57806357d775f8146102fa5780635b732892146103105780635b88a0e5146103265761021a565b8063108f438d1461021f5780632f796d901461025c57806330017b3b146102805780634354da25146102a0575b600080fd5b34801561022b57600080fd5b50600d5461023f906001600160a01b031681565b6040516001600160a01b0390911681526020015b60405180910390f35b34801561026857600080fd5b5061027260045481565b604051908152602001610253565b34801561028c57600080fd5b5061027261029b3660046131a0565b61064b565b6102b36102ae3660046131c1565b61065e565b6040519015158152602001610253565b3480156102cf57600080fd5b506102d86109a1565b005b3480156102e657600080fd5b506102d86102f536600461315d565b6109d5565b34801561030657600080fd5b5061027260095481565b34801561031c57600080fd5b50610272600b5481565b34801561033257600080fd5b5047610272565b34801561034557600080fd5b5060025460ff166102b3565b34801561035d57600080fd5b5061027261036c36600461315d565b610a04565b34801561037d57600080fd5b506102d861038c36600461315d565b610a17565b34801561039d57600080fd5b506102b36103ac36600461321a565b610a46565b3480156103bd57600080fd5b5061027260075481565b3480156103d357600080fd5b506102d8610b6a565b3480156103e857600080fd5b506102b36103f7366004613283565b610b9e565b34801561040857600080fd5b50610272610cfa565b34801561041d57600080fd5b506000546001600160a01b031661023f565b34801561043b57600080fd5b506102d861044a36600461315d565b610d7b565b34801561045b57600080fd5b5061027261046a36600461315d565b60009081526011602052604090205490565b34801561048857600080fd5b50610272600c5481565b34801561049e57600080fd5b5061027260055481565b3480156104b457600080fd5b506102d86104c336600461315d565b610daa565b3480156104d457600080fd5b506102b36104e3366004613283565b610dd9565b3480156104f457600080fd5b506102d8610e2d565b34801561050957600080fd5b506102d861051836600461315d565b610e5f565b34801561052957600080fd5b506102b3610538366004613175565b610e8e565b34801561054957600080fd5b506102726105583660046131a0565b610ea3565b34801561056957600080fd5b506102d861057836600461315d565b610eeb565b34801561058957600080fd5b5061027260085481565b34801561059f57600080fd5b506102726105ae3660046131a0565b610f1a565b3480156105bf57600080fd5b5061027260035481565b3480156105d557600080fd5b50610272600e5481565b3480156105eb57600080fd5b506102b36105fa36600461321a565b610fa8565b34801561060b57600080fd5b506102d861061a366004613116565b610ffc565b34801561062b57600080fd5b50610272600a5481565b34801561064157600080fd5b5061027260065481565b60006106578383611421565b9392505050565b60006002600154141561068c5760405162461bcd60e51b8152600401610683906133f2565b60405180910390fd5b600260015561069d60025460ff1690565b156106ba5760405162461bcd60e51b815260040161068390613393565b856107155760405162461bcd60e51b815260206004820152602560248201527f426974636f696e52656c61793a20747869642073686f756c64206265206e6f6e6044820152642d7a65726f60d81b6064820152608401610683565b600454610723906001613429565b6005546107309087613429565b106107975760405162461bcd60e51b815260206004820152603160248201527f426974636f696e52656c61793a20626c6f636b206973206e6f742066696e616c604482015270697a6564206f6e207468652072656c617960781b6064820152608401610683565b6003548510156108225760405162461bcd60e51b815260206004820152604a60248201527f426974636f696e52656c61793a2074686520726571756573746564206865696760448201527f6874206973206e6f74207375626d6974746564206f6e207468652072656c61796064820152692028746f6f206f6c642960b01b608482015260a401610683565b60008581526011602052604081208054610868929061085157634e487b7160e01b600052603260045260246000fd5b90600052602060002090600502016004015461149f565b6108c95760405162461bcd60e51b815260206004820152602c60248201527f426974636f696e52656c61793a2067657474696e672066656520776173206e6f60448201526b1d081cdd58d8d95cdcd99d5b60a21b6064820152608401610683565b6001600b60008282546108dc9190613429565b909155505060008581526011602052604081208054829061090d57634e487b7160e01b600052603260045260246000fd5b9060005260206000209060050201600201549050600061097561096a600088888080601f01602080910402602001604051908101604052809392919081815260200183838082843760009201919091525092939250506110979050565b62ffffff191661155d565b90506000610982896115a3565b905061099081848488611623565b600180559998505050505050505050565b6000546001600160a01b031633146109cb5760405162461bcd60e51b8152600401610683906133bd565b6109d361167d565b565b6000546001600160a01b031633146109ff5760405162461bcd60e51b8152600401610683906133bd565b600955565b6000610a0f826116f2565b90505b919050565b6000546001600160a01b03163314610a415760405162461bcd60e51b8152600401610683906133bd565b600a55565b600060026001541415610a6b5760405162461bcd60e51b8152600401610683906133f2565b6002600155610a7c60025460ff1690565b15610a995760405162461bcd60e51b815260040161068390613393565b6000610aed610ae2600086868080601f01602080910402602001604051908101604052809392919081815260200183838082843760009201919091525092939250506110979050565b62ffffff1916611762565b90506000610b43610b38600089898080601f01602080910402602001604051908101604052809392919081815260200183838082843760009201919091525092939250506110979050565b62ffffff19166110bb565b9050610b4f82826117a8565b610b5b81836000611896565b60018055979650505050505050565b6000546001600160a01b03163314610b945760405162461bcd60e51b8152600401610683906133bd565b6109d36000611d35565b600060026001541415610bc35760405162461bcd60e51b8152600401610683906133f2565b6002600155610bd460025460ff1690565b15610bf15760405162461bcd60e51b815260040161068390613393565b6000610c3a610b3860008a8a8080601f01602080910402602001604051908101604052809392919081815260200183838082843760009201919091525092939250506110979050565b90506000610c85610b38600089898080601f01602080910402602001604051908101604052809392919081815260200183838082843760009201919091525092939250506110979050565b90506000610cd0610ae2600088888080601f01602080910402602001604051908101604052809392919081815260200183838082843760009201919091525092939250506110979050565b9050610cdd838383611d85565b610ce8838383611e37565b600180559a9950505050505050505050565b600d546040516370a0823160e01b81523060048201526000916001600160a01b0316906370a082319060240160206040518083038186803b158015610d3e57600080fd5b505afa158015610d52573d6000803e3d6000fd5b505050506040513d601f19601f82011682018060405250810190610d769190613319565b905090565b6000546001600160a01b03163314610da55760405162461bcd60e51b8152600401610683906133bd565b600755565b6000546001600160a01b03163314610dd45760405162461bcd60e51b8152600401610683906133bd565b600855565b600060026001541415610dfe5760405162461bcd60e51b8152600401610683906133f2565b60026001556000546001600160a01b03163314610bf15760405162461bcd60e51b8152600401610683906133bd565b6000546001600160a01b03163314610e575760405162461bcd60e51b8152600401610683906133bd565b6109d3611e7f565b6000546001600160a01b03163314610e895760405162461bcd60e51b8152600401610683906133bd565b600555565b6000610e9b848484611ef9565b949350505050565b6000828152601160205260408120805483908110610ed157634e487b7160e01b600052603260045260246000fd5b906000526020600020906005020160000154905092915050565b6000546001600160a01b03163314610f155760405162461bcd60e51b8152600401610683906133bd565b600655565b60006064600c546009546007546064610f339190613429565b6000878152601160205260409020805487908110610f6157634e487b7160e01b600052603260045260246000fd5b906000526020600020906005020160040154600854610f8091906135ba565b610f8a91906135ba565b610f9491906135ba565b610f9e919061346c565b610657919061346c565b600060026001541415610fcd5760405162461bcd60e51b8152600401610683906133f2565b60026001556000546001600160a01b03163314610a995760405162461bcd60e51b8152600401610683906133bd565b6000546001600160a01b031633146110265760405162461bcd60e51b8152600401610683906133bd565b6001600160a01b03811661108b5760405162461bcd60e51b815260206004820152602660248201527f4f776e61626c653a206e6577206f776e657220697320746865207a65726f206160448201526564647265737360d01b6064820152608401610683565b61109481611d35565b50565b8151600090602084016110b264ffffffffff85168284611f48565b95945050505050565b600081816110d1815b62ffffff198416906111c6565b506050601885901c6001600160601b0316146110f6576110ef6112ae565b925061110c565b61110960105b62ffffff198616906112b6565b92505b5050919050565b62ffffff19908116141590565b6000806111368360781c6001600160601b031690565b6001600160601b0316905060006111568460181c6001600160601b031690565b6001600160601b03169050604051602081838560025afa5060208160208360025afa5051949350505050565b6000816010611190816110c4565b5061110962ffffff198516600460206112c8565b60008160106111b2816110c4565b5061110962ffffff198516602460206112c8565b60006111d28383611f8c565b6112985760006111f16111e58560d81c90565b64ffffffffff16611faf565b91505060006112068464ffffffffff16611faf565b6040517f5479706520617373657274696f6e206661696c65642e20476f7420307800000060208201526001600160b01b031960b086811b8216603d8401526c05c408af0e0cac6e8cac84060f609b1b604784015283901b16605482015290925060009150605e0160405160208183030381529060405290508060405162461bcd60e51b81526004016106839190613360565b5090919050565b60181c6001600160601b031690565b62ffffff1990565b60d81b6001600160d81b039091161790565b600060ff82166112da57506000610657565b6112ed8460181c6001600160601b031690565b6001600160601b031661130360ff841685613429565b11156113675761134e61131f8560781c6001600160601b031690565b6001600160601b031661133b8660181c6001600160601b031690565b6001600160601b0316858560ff1661206f565b60405162461bcd60e51b81526004016106839190613360565b60208260ff1611156113e15760405162461bcd60e51b815260206004820152603a60248201527f54797065644d656d566965772f696e646578202d20417474656d70746564207460448201527f6f20696e646578206d6f7265207468616e2033322062797465730000000000006064820152608401610683565b6008820260006113fa8660781c6001600160601b031690565b6001600160601b031690506000600160ff1b60001984011d91909501511695945050505050565b600082815b83811015611451576000918252600f602052604090912054908061144981613683565b915050611426565b50806106575760405162461bcd60e51b815260206004820152601e60248201527f426974636f696e52656c61793a20756e6b6e6f776e20616e636573746f7200006044820152606401610683565b6000806064600c5460095460075460646114b99190613429565b866008546114c791906135ba565b6114d191906135ba565b6114db91906135ba565b6114e5919061346c565b6114ef919061346c565b9050803410156115415760405162461bcd60e51b815260206004820152601f60248201527f426974636f696e52656c61793a20666565206973206e6f7420656e6f756768006044820152606401610683565b6115543361154f8334613602565b612199565b50600192915050565b6000818161156a816110c4565b506115836020601886901c6001600160601b03166136b2565b6001600160601b031615611599576110ef6112ae565b61110960146110fc565b6000606081805b60208110156116175782856115c083601f613602565b602081106115de57634e487b7160e01b600052603260045260246000fd5b1a60f81b6040516020016115f3929190613331565b6040516020818303038152906040529250808061160f90613683565b9150506115aa565b50506020015192915050565b6000826014611631816110c4565b50858714801561163f575083155b80156116565750601885901c6001600160601b0316155b156116645760019250611673565b611670878688876122b2565b92505b5050949350505050565b60025460ff16156116a05760405162461bcd60e51b815260040161068390613393565b6002805460ff191660011790557f62e78cea01bee320cd4e420270b5ea74000d11b0c9f74754ebdbfc544b05a2586116d53390565b6040516001600160a01b03909116815260200160405180910390a1565b60008181526010602052604081205461174d5760405162461bcd60e51b815260206004820152601b60248201527f426974636f696e52656c61793a20756e6b6e6f776e20626c6f636b00000000006044820152606401610683565b50600081815260106020526040902054610a12565b6000818161176f816110c4565b506117886050601886901c6001600160601b03166136b2565b6001600160601b03161561179e576110ef6112ae565b61110960116110fc565b6117b762ffffff198316611113565b6118295760405162461bcd60e51b815260206004820152603960248201527f426974636f696e52656c61793a20686561646572206172726179206c656e677460448201527f68206d75737420626520646976697369626c65206279203830000000000000006064820152608401610683565b61183862ffffff198216611113565b6118925760405162461bcd60e51b815260206004820152602560248201527f426974636f696e52656c61793a20616e63686f72206d75737420626520383020604482015264627974657360d81b6064820152608401610683565b5050565b6000806118a862ffffff198616611120565b905060006118b5826116f2565b905060006118d76118cc62ffffff1988168361237f565b62ffffff19166123b1565b905084806118f25750806118f062ffffff1989166123b1565b145b6119595760405162461bcd60e51b815260206004820152603260248201527f426974636f696e52656c61793a20756e657870656374656420726574617267656044820152711d081bdb88195e1d195c9b985b0818d85b1b60721b6064820152608401610683565b60045460055461196a846001613429565b6119749190613429565b116119d15760405162461bcd60e51b815260206004820152602760248201527f426974636f696e52656c61793a20626c6f636b206865616465727320617265206044820152661d1bdbc81bdb1960ca1b6064820152608401610683565b60008060005b6119ef605060188b901c6001600160601b0316613480565b6001600160601b0316811015611d25576000611a1162ffffff198b168361237f565b9050611a1d8287613429565b611a28906001613429565b9350611a3962ffffff198216611120565b6000818152600f602052604090205490935015611ab35760405162461bcd60e51b815260206004820152603260248201527f426974636f696e52656c61793a2074686520626c6f636b2068656164657220656044820152717869737473206f6e207468652072656c617960701b6064820152608401610683565b8880611ac95750611ac66107e08561369e565b15155b611b4f5760405162461bcd60e51b815260206004820152604b60248201527f426974636f696e52656c61793a20686561646572732073686f756c642062652060448201527f7375626d69747465642062792063616c6c696e6720616464486561646572735760648201526a1a5d1a14995d185c99d95d60aa1b608482015260a401610683565b84611b5f62ffffff1983166123b1565b14611bbe5760405162461bcd60e51b815260206004820152602960248201527f426974636f696e52656c61793a20746172676574206368616e67656420756e65604482015268787065637465646c7960b81b6064820152608401610683565b611bce62ffffff1982168861247d565b611c375760405162461bcd60e51b815260206004820152603460248201527f426974636f696e52656c61793a206865616465727320646f206e6f7420666f726044820152733690309031b7b739b4b9ba32b73a1031b430b4b760611b6064820152608401610683565b84611c41846124a0565b1115611ca15760405162461bcd60e51b815260206004820152602960248201527f426974636f696e52656c61793a2068656164657220776f726b20697320696e736044820152681d59999a58da595b9d60ba1b6064820152608401610683565b6000838152600f602090815260408083208a905560109091529020849055611cc981856125da565b336001600160a01b031687857ffb8fff3e2daa665d496373ced291b62aba4162f24632a1597e286621016e9a1f86604051611d0691815260200190565b60405180910390a4829650508080611d1d90613683565b9150506119d7565b5060019998505050505050505050565b600080546001600160a01b038381166001600160a01b0319831681178455604051919092169283917f8be0079c531659141344cd1fd0a4f28419497f9722a3daafe3b4186f6b6457e09190a35050565b611d9462ffffff198416611113565b8015611daa5750611daa62ffffff198316611113565b8015611dc05750611dc062ffffff198216611113565b611e325760405162461bcd60e51b815260206004820152603c60248201527f426974636f696e52656c61793a2062616420617267732e20436865636b20686560448201527f6164657220616e642061727261792062797465206c656e677468732e000000006064820152608401610683565b505050565b600080611e51611e4c62ffffff198716611120565b6116f2565b90506000611e67611e4c62ffffff198716611120565b9050611e7585856001611896565b9695505050505050565b60025460ff16611ec85760405162461bcd60e51b815260206004820152601460248201527314185d5cd8589b194e881b9bdd081c185d5cd95960621b6044820152606401610683565b6002805460ff191690557f5db9ee0a495bf2e6ff9c91a7834c1ba4fdd244a5e8aa4e537bd38aeae4b073aa336116d5565b600082815b83811015611f3c5785821415611f1957600192505050610657565b6000918252600f6020526040909120549080611f3481613683565b915050611efe565b50600095945050505050565b600080611f558385613429565b9050604051811115611f65575060005b80611f775762ffffff19915050610657565b5050606092831b9190911790911b1760181b90565b60008164ffffffffff16611fa08460d81c90565b64ffffffffff16149392505050565b600080601f5b600f8160ff16111561200d576000611fce8260086135d9565b60ff1685901c9050611fdf81612753565b61ffff16841793508160ff16601014611ffa57601084901b93505b50612006600182613619565b9050611fb5565b50600f5b60ff8160ff16101561206957600061202a8260086135d9565b60ff1685901c905061203b81612753565b61ffff16831792508160ff1660001461205657601083901b92505b50612062600182613619565b9050612011565b50915091565b6060600061207c86611faf565b915050600061208a86611faf565b915050600061209886611faf565b91505060006120a686611faf565b604080517f54797065644d656d566965772f696e646578202d204f76657272616e20746865602082015274040ecd2caee5c40a6d8d2c6ca40d2e640c2e84060f605b1b818301526001600160d01b031960d098891b811660558301526e040eed2e8d040d8cadccee8d04060f608b1b605b830181905297891b8116606a8301527f2e20417474656d7074656420746f20696e646578206174206f666673657420306070830152600f60fb1b609083015295881b861660918201526097810196909652951b90921660a68401525050601760f91b60ac8201528151808203608d01815260ad90910190915295945050505050565b804710156121e95760405162461bcd60e51b815260206004820152601d60248201527f416464726573733a20696e73756666696369656e742062616c616e63650000006044820152606401610683565b6000826001600160a01b03168260405160006040518083038185875af1925050503d8060008114612236576040519150601f19603f3d011682016040523d82523d6000602084013e61223b565b606091505b5050905080611e325760405162461bcd60e51b815260206004820152603a60248201527f416464726573733a20756e61626c6520746f2073656e642076616c75652c207260448201527f6563697069656e74206d617920686176652072657665727465640000000000006064820152608401610683565b60008360146122c0816110c4565b5060006122db6020601889901c6001600160601b0316613480565b6001600160601b03169050806122f657858814935050611673565b848860005b8381101561236f5760006123226123138360206135ba565b62ffffff198d169060206112c8565b905061232f60028561369e565b60011415612348576123418184612783565b9250612355565b6123528382612783565b92505b5060019290921c918061236781613683565b9150506122fb565b5090961498975050505050505050565b600082601161238d816110c4565b50600061239b8560506135ba565b9050611e7562ffffff19871682605060106127af565b60008160106123bf816110c4565b5060006123d562ffffff1986166048600361281f565b905060026123ec62ffffff198716604b6001612834565b116124445760405162461bcd60e51b815260206004820152602260248201527f566965774254433a20696e76616c69642074617267657420646966666963756c604482015261747960f01b6064820152608401610683565b6000600361245b62ffffff198816604b6001612834565b6124659190613602565b9050612473816101006134ec565b611e7590836135ba565b600082601061248b816110c4565b508361249686611182565b1495945050505050565b600881811c7eff00ff00ff00ff00ff00ff00ff00ff00ff00ff00ff00ff00ff00ff00ff00ff167fff00ff00ff00ff00ff00ff00ff00ff00ff00ff00ff00ff00ff00ff00ff00ff009290911b9190911617601081811c7dffff0000ffff0000ffff0000ffff0000ffff0000ffff0000ffff0000ffff167fffff0000ffff0000ffff0000ffff0000ffff0000ffff0000ffff0000ffff00009290911b9190911617602081811c7bffffffff00000000ffffffff00000000ffffffff00000000ffffffff167fffffffff00000000ffffffff00000000ffffffff00000000ffffffff000000009290911b9190911617604081811c77ffffffffffffffff0000000000000000ffffffffffffffff1677ffffffffffffffff0000000000000000ffffffffffffffff199290911b9190911617608081811c91901b1790565b6004546005546125ea9083613429565b116126455760405162461bcd60e51b815260206004820152602560248201527f426974636f696e52656c61793a20626c6f636b2068656164657220697320746f6044820152641bc81bdb1960da1b6064820152608401610683565b6040805160a08101825260008082526020820181905291810182905260608101829052608081019190915261267f62ffffff198416611120565b815261269062ffffff198416611182565b60208201526126a462ffffff1984166111a4565b604082810191825233606084019081523a60808501908152600086815260116020908152938120805460018082018355918352918590208751600590930201918255938601519381019390935592516002830155516003820180546001600160a01b0319166001600160a01b03909216919091179055905160049182015554821115611e325760016004600082825461273d9190613429565b9091555061274b9050612864565b611e32612b69565b600061276560048360ff16901c612b9e565b60ff161760081b62ffff001661277a82612b9e565b60ff1617919050565b600060405183815282602082015260208160408360025afa5060208160208360025afa50519392505050565b6000806127c58660781c6001600160601b031690565b6001600160601b031690506127d986612d0a565b846127e48784613429565b6127ee9190613429565b11156128015762ffffff19915050610e9b565b61280b8582613429565b9050611e758364ffffffffff168286611f48565b6000610e9b61282f8585856112c8565b6124a0565b6000612841826020613619565b61284c9060086135d9565b60ff1661285a8585856112c8565b901c949350505050565b6005546003546004546128779190613602565b106109d35760055460045460005b82156129065760008281526011602052604081208054839081106128b957634e487b7160e01b600052603260045260246000fd5b90600052602060002090600502016001015490506128e3816001856128de9190613602565b612d4b565b9150836128ef8161366c565b94505082806128fd9061366c565b93505050612885565b600082815260116020526040902080548290811061293457634e487b7160e01b600052603260045260246000fd5b90600052602060002090600502016011600084815260200190815260200160002060008154811061297557634e487b7160e01b600052603260045260246000fd5b600091825260208083208454600590930201918255600180850154818401556002808601549084015560038086015490840180546001600160a01b0319166001600160a01b0390921691909117905560049485015494909201939093558482526011909252604090205411156129ee576129ee82612dc9565b600082815260116020526040812080548291612a43918390612a2057634e487b7160e01b600052603260045260246000fd5b60009182526020909120600360059092020101546001600160a01b031685612e6d565b600086815260116020526040812080549395509193509091612a7557634e487b7160e01b600052603260045260246000fd5b600091825260208083206003600590930201919091015486835260119091526040822080546001600160a01b039092169287927f4fec6ffa2052e80db9daadc2384a8f634057472e28ea7f1bd3eebfc92b5b0f8e929190612ae657634e487b7160e01b600052603260045260246000fd5b90600052602060002090600502016000015460116000898152602001908152602001600020600081548110612b2b57634e487b7160e01b600052603260045260246000fd5b600091825260209182902060016005909202010154604080519384529183015281018690526060810185905260800160405180910390a35050505050565b600954600454612b79919061369e565b6109d357600a54600b5410612b9057600b54612b94565b600a545b600c556000600b55565b600060f08083179060ff82161415612bba576030915050610a12565b8060ff1660f11415612bd0576031915050610a12565b8060ff1660f21415612be6576032915050610a12565b8060ff1660f31415612bfc576033915050610a12565b8060ff1660f41415612c12576034915050610a12565b8060ff1660f51415612c28576035915050610a12565b8060ff1660f61415612c3e576036915050610a12565b8060ff1660f71415612c54576037915050610a12565b8060ff1660f81415612c6a576038915050610a12565b8060ff1660f91415612c80576039915050610a12565b8060ff1660fa1415612c96576061915050610a12565b8060ff1660fb1415612cac576062915050610a12565b8060ff1660fc1415612cc2576063915050610a12565b8060ff1660fd1415612cd8576064915050610a12565b8060ff1660fe1415612cee576065915050610a12565b8060ff1660ff1415612d04576066915050610a12565b50919050565b6000612d1f8260181c6001600160601b031690565b612d328360781c6001600160601b031690565b612d3c9190613441565b6001600160601b031692915050565b6000805b600083815260116020526040902054811015612dc2576000838152601160205260409020805482908110612d9357634e487b7160e01b600052603260045260246000fd5b906000526020600020906005020160000154841415612db0578091505b80612dba81613683565b915050612d4f565b5092915050565b600081815260116020526040812054612de490600190613602565b90505b8015611892576000828152601160205260409020805480612e1857634e487b7160e01b600052603160045260246000fd5b6000828152602081206005600019909301928302018181556001818101839055600282018390556003820180546001600160a01b03191690556004909101919091559155612e669082613602565b9050612de7565b600080600060646007546064612e839190613429565b60008681526011602052604081208054909190612eb057634e487b7160e01b600052603260045260246000fd5b906000526020600020906005020160040154600854612ecf91906135ba565b612ed991906135ba565b612ee3919061346c565b600d549091506000906001600160a01b031615612f7857600d546040516370a0823160e01b81523060048201526001600160a01b03909116906370a082319060240160206040518083038186803b158015612f3d57600080fd5b505afa158015612f51573d6000803e3d6000fd5b505050506040513d601f19601f82011682018060405250810190612f759190613319565b90505b60008160065411158015612f8e57506000600654115b1561301f57600d5460065460405163a9059cbb60e01b81526001600160a01b038a81166004830152602482019290925291169063a9059cbb90604401602060405180830381600087803b158015612fe457600080fd5b505af1158015612ff8573d6000803e3d6000fd5b505050506040513d601f19601f8201168201806040525081019061301c919061313d565b90505b600083471180156130305750600084115b15613089576040516001600160a01b038916908590600081818185875af1925050503d806000811461307e576040519150601f19603f3d011682016040523d82523d6000602084013e613083565b606091505b50909150505b80156130ae578161309c578360006130a1565b836006545b95509550505050506130cf565b816130bb576000806130c1565b60006006545b60ff90911696509450505050505b9250929050565b60008083601f8401126130e7578182fd5b50813567ffffffffffffffff8111156130fe578182fd5b6020830191508360208285010111156130cf57600080fd5b600060208284031215613127578081fd5b81356001600160a01b0381168114610657578182fd5b60006020828403121561314e578081fd5b81518015158114610657578182fd5b60006020828403121561316e578081fd5b5035919050565b600080600060608486031215613189578182fd5b505081359360208301359350604090920135919050565b600080604083850312156131b2578182fd5b50508035926020909101359150565b6000806000806000608086880312156131d8578081fd5b8535945060208601359350604086013567ffffffffffffffff8111156131fc578182fd5b613208888289016130d6565b96999598509660600135949350505050565b6000806000806040858703121561322f578384fd5b843567ffffffffffffffff80821115613246578586fd5b613252888389016130d6565b9096509450602087013591508082111561326a578384fd5b50613277878288016130d6565b95989497509550505050565b6000806000806000806060878903121561329b578081fd5b863567ffffffffffffffff808211156132b2578283fd5b6132be8a838b016130d6565b909850965060208901359150808211156132d6578283fd5b6132e28a838b016130d6565b909650945060408901359150808211156132fa578283fd5b5061330789828a016130d6565b979a9699509497509295939492505050565b60006020828403121561332a578081fd5b5051919050565b6000835161334381846020880161363c565b6001600160f81b0319939093169190920190815260010192915050565b600060208252825180602084015261337f81604085016020870161363c565b601f01601f19169190910160400192915050565b60208082526010908201526f14185d5cd8589b194e881c185d5cd95960821b604082015260600190565b6020808252818101527f4f776e61626c653a2063616c6c6572206973206e6f7420746865206f776e6572604082015260600190565b6020808252601f908201527f5265656e7472616e637947756172643a207265656e7472616e742063616c6c00604082015260600190565b6000821982111561343c5761343c6136d8565b500190565b60006001600160601b03808316818516808303821115613463576134636136d8565b01949350505050565b60008261347b5761347b6136ee565b500490565b60006001600160601b038084168061349a5761349a6136ee565b92169190910492915050565b80825b60018086116134b857506134e3565b8187048211156134ca576134ca6136d8565b808616156134d757918102915b9490941c9380026134a9565b94509492505050565b6000610657600019848460008261350557506001610657565b8161351257506000610657565b816001811461352857600281146135325761355f565b6001915050610657565b60ff841115613543576135436136d8565b6001841b915084821115613559576135596136d8565b50610657565b5060208310610133831016604e8410600b8410161715613592575081810a8381111561358d5761358d6136d8565b610657565b61359f84848460016134a6565b8086048211156135b1576135b16136d8565b02949350505050565b60008160001904831182151516156135d4576135d46136d8565b500290565b600060ff821660ff84168160ff04811182151516156135fa576135fa6136d8565b029392505050565b600082821015613614576136146136d8565b500390565b600060ff821660ff841680821015613633576136336136d8565b90039392505050565b60005b8381101561365757818101518382015260200161363f565b83811115613666576000848401525b50505050565b60008161367b5761367b6136d8565b506000190190565b6000600019821415613697576136976136d8565b5060010190565b6000826136ad576136ad6136ee565b500690565b60006001600160601b03808416806136cc576136cc6136ee565b92169190910692915050565b634e487b7160e01b600052601160045260246000fd5b634e487b7160e01b600052601260045260246000fdfea2646970667358221220369f8a175b32c62e256ca2d67d7e1aea2c207ebb5e314dba27ea7db05863f03164736f6c63430008020033",
  "devdoc": {
    "kind": "dev",
    "methods": {
      "addHeaders(bytes,bytes)": {
        "details": "We check integrity and consistency of the header chain",
        "params": {
          "_anchor": "The header immediately preceeding the new chain",
          "_headers": "A tightly-packed list of 80-byte Bitcoin headers"
        },
        "returns": {
          "_0": "True if successfully written, error otherwise"
        }
      },
      "addHeadersWithRetarget(bytes,bytes,bytes)": {
        "details": "Checks the retarget, the heights, and the linkage",
        "params": {
          "_headers": "A tightly-packed list of 80-byte Bitcoin headers",
          "_oldPeriodEndHeader": "The last header in the difficulty period being closed (anchor of new headers)",
          "_oldPeriodStartHeader": "The first header in the difficulty period being closed"
        },
        "returns": {
          "_0": "True if successfully written, error otherwise"
        }
      },
      "availableTDT()": {
        "returns": {
          "_0": "Amount of TDT available in Relay treasury"
        }
      },
      "availableTNT()": {
        "returns": {
          "_0": "Amount of target blockchain native token available in Relay treasury"
        }
      },
      "checkTxProof(bytes32,uint256,bytes,uint256)": {
        "details": "Checks if the block is finalized, and Merkle proof is correct",
        "params": {
          "_blockHeight": "Block height of the desired tx",
          "_index": "Part of the Merkle proof for the desired tx",
          "_intermediateNodes": "Part of the Merkle proof for the desired tx",
          "_txid": "Desired transaction's tx Id"
        },
        "returns": {
          "_0": "True if the provided tx is confirmed on the source blockchain, False otherwise"
        }
      },
      "constructor": {
        "params": {
          "_TeleportDAOToken": "The address of the TeleportDAO ERC20 token contract",
          "_genesisHeader": "The starting header",
          "_height": "The starting height",
          "_periodStart": "The hash of the first header in the genesis epoch"
        }
      },
      "findAncestor(bytes32,uint256)": {
        "details": "Will fail if the header is unknown",
        "params": {
          "_hash": "The header hash to search for"
        },
        "returns": {
          "_0": "The height of the header, or error if unknown"
        }
      },
      "findHeight(bytes32)": {
        "details": "Will fail if the header is unknown",
        "params": {
          "_hash": "The header hash to search for"
        },
        "returns": {
          "_0": "The height of the header, or error if unknown"
        }
      },
      "getBlockHeaderFee(uint256,uint256)": {
        "params": {
          "_height": "The height of the desired block header",
          "_index": "The index of the desired block header in that height"
        },
        "returns": {
          "_0": "Block header's fee price for a query"
        }
      },
      "getBlockHeaderHash(uint256,uint256)": {
        "params": {
          "_height": "The height of the desired block header",
          "_index": "The index of the desired block header in that height"
        },
        "returns": {
          "_0": "Block header's hash"
        }
      },
      "getNumberOfSubmittedHeaders(uint256)": {
        "details": "This shows the number of temporary forks in that specific height",
        "params": {
          "_height": "The desired height of the blockchain"
        },
        "returns": {
          "_0": "Number of block headers stored in the same height"
        }
      },
      "isAncestor(bytes32,bytes32,uint256)": {
        "details": "Limit the amount of lookups (and thus gas usage) with _limit",
        "params": {
          "_ancestor": "The prospective ancestor",
          "_descendant": "The descendant to check",
          "_limit": "The maximum number of blocks to check"
        },
        "returns": {
          "_0": "true if ancestor is at most limit blocks lower than descendant, otherwise false"
        }
      },
      "owner()": {
        "details": "Returns the address of the current owner."
      },
      "ownerAddHeaders(bytes,bytes)": {
        "details": "Works like the other addHeaders; we use this function when relay is paused then only owner can add the new blocks, like when a fork happens",
        "params": {
          "_anchor": "The header immediately preceeding the new chain",
          "_headers": "A tightly-packed list of 80-byte Bitcoin headers"
        },
        "returns": {
          "_0": "True if successfully written, error otherwise"
        }
      },
      "ownerAddHeadersWithRetarget(bytes,bytes,bytes)": {
        "details": "Works like the other addHeadersWithRetarget; we use this function when relay is paused then only owner can add the new blocks, like when a fork happens",
        "params": {
          "_headers": "A tightly-packed list of 80-byte Bitcoin headers",
          "_oldPeriodEndHeader": "The last header in the difficulty period being closed (anchor of new headers)",
          "_oldPeriodStartHeader": "The first header in the difficulty period being closed"
        },
        "returns": {
          "_0": "True if successfully written, error otherwise"
        }
      },
      "pauseRelay()": {
        "details": "Only functions with whenPaused modifier can be called"
      },
      "paused()": {
        "details": "Returns true if the contract is paused, and false otherwise."
      },
      "renounceOwnership()": {
        "details": "Leaves the contract without owner. It will not be possible to call `onlyOwner` functions anymore. Can only be called by the current owner. NOTE: Renouncing ownership will leave the contract without an owner, thereby removing any functionality that is only available to the owner."
      },
      "setBaseQueries(uint256)": {
        "params": {
          "_baseQueries": "The base amount of queries we assume in each epoch                                     (This is for preventing user fees to grow significantly)"
        }
      },
      "setEpochLength(uint256)": {
        "params": {
          "_epochLength": "The length of epochs for estimating the user queries hence their fees"
        }
      },
      "setFinalizationParameter(uint256)": {
        "details": "This might change if finalization rule of the source chain gets updated",
        "params": {
          "_finalizationParameter": "The finalization parameter of the source chain"
        }
      },
      "setRelayerPercentageFee(uint256)": {
        "details": "This is updated when we want to change the Relayer reward",
        "params": {
          "_relayerPercentageFee": "Ratio > 1 that determines percentage of reward to the Relayer"
        }
      },
      "setRewardAmountInTDT(uint256)": {
        "details": "This award is for the relayer who has a finalized block header",
        "params": {
          "_rewardAmountInTDT": "The reward amount in TDT"
        }
      },
      "setSubmissionGasUsed(uint256)": {
        "details": "This is updated when the smart contract changes the way of getting block headers",
        "params": {
          "_submissionGasUsed": "The gas used for submitting one block header"
        }
      },
      "transferOwnership(address)": {
        "details": "Transfers ownership of the contract to a new account (`newOwner`). Can only be called by the current owner."
      },
      "unpauseRelay()": {
        "details": "Only functions with whenNotPaused modifier can be called"
      }
    },
    "version": 1
  },
  "userdoc": {
    "events": {
      "BlockAdded(uint256,bytes32,bytes32,address)": {
        "notice": "Emits when a block header is added"
      },
      "BlockFinalized(uint256,bytes32,bytes32,address,uint256,uint256)": {
        "notice": "Emits when a block header gets finalized"
      }
    },
    "kind": "user",
    "methods": {
      "addHeaders(bytes,bytes)": {
        "notice": "Adds headers to storage after validating"
      },
      "addHeadersWithRetarget(bytes,bytes,bytes)": {
        "notice": "Adds headers to storage, performs additional validation of retarget"
      },
      "availableTDT()": {
        "notice": "Getter for available TDT in treasury"
      },
      "availableTNT()": {
        "notice": "Getter for available target native token in treasury"
      },
      "checkTxProof(bytes32,uint256,bytes,uint256)": {
        "notice": "Checks if a tx is included and finalized on the source blockchain"
      },
      "constructor": {
        "notice": "Gives a starting point for the relay"
      },
      "findAncestor(bytes32,uint256)": {
        "notice": "Finds an ancestor for a block by its hash"
      },
      "findHeight(bytes32)": {
        "notice": "Finds the height of a header by its hash"
      },
      "getBlockHeaderFee(uint256,uint256)": {
        "notice": "Getter for an specific block header's fee price for a query"
      },
      "getBlockHeaderHash(uint256,uint256)": {
        "notice": "Getter for an specific block header's hash in the stored chain"
      },
      "getNumberOfSubmittedHeaders(uint256)": {
        "notice": "Getter for the number of block headers in the same height"
      },
      "isAncestor(bytes32,bytes32,uint256)": {
        "notice": "Checks if a hash is an ancestor of the current one"
      },
      "ownerAddHeaders(bytes,bytes)": {
        "notice": "Adds headers to storage after validating"
      },
      "ownerAddHeadersWithRetarget(bytes,bytes,bytes)": {
        "notice": "Adds headers to storage, performs additional validation of retarget"
      },
      "pauseRelay()": {
        "notice": "Pause the relay"
      },
      "setBaseQueries(uint256)": {
        "notice": "Setter for baseQueries"
      },
      "setEpochLength(uint256)": {
        "notice": "Setter for epochLength"
      },
      "setFinalizationParameter(uint256)": {
        "notice": "Setter for finalizationParameter"
      },
      "setRelayerPercentageFee(uint256)": {
        "notice": "Setter for relayerPercentageFee"
      },
      "setRewardAmountInTDT(uint256)": {
        "notice": "Setter for rewardAmountInTDT"
      },
      "setSubmissionGasUsed(uint256)": {
        "notice": "Setter for submissionGasUsed"
      },
      "unpauseRelay()": {
        "notice": "Unpause the relay"
      }
    },
    "version": 1
  },
  "storageLayout": {
    "storage": [
      {
        "astId": 807,
        "contract": "contracts/relay/BitcoinRelayTestnet.sol:BitcoinRelayTestnet",
        "label": "_owner",
        "offset": 0,
        "slot": "0",
        "type": "t_address"
      },
      {
        "astId": 1634,
        "contract": "contracts/relay/BitcoinRelayTestnet.sol:BitcoinRelayTestnet",
        "label": "_status",
        "offset": 0,
        "slot": "1",
        "type": "t_uint256"
      },
      {
        "astId": 1549,
        "contract": "contracts/relay/BitcoinRelayTestnet.sol:BitcoinRelayTestnet",
        "label": "_paused",
        "offset": 0,
        "slot": "2",
        "type": "t_bool"
      },
      {
        "astId": 15580,
        "contract": "contracts/relay/BitcoinRelayTestnet.sol:BitcoinRelayTestnet",
        "label": "initialHeight",
        "offset": 0,
        "slot": "3",
        "type": "t_uint256"
      },
      {
        "astId": 15583,
        "contract": "contracts/relay/BitcoinRelayTestnet.sol:BitcoinRelayTestnet",
        "label": "lastSubmittedHeight",
        "offset": 0,
        "slot": "4",
        "type": "t_uint256"
      },
      {
        "astId": 15586,
        "contract": "contracts/relay/BitcoinRelayTestnet.sol:BitcoinRelayTestnet",
        "label": "finalizationParameter",
        "offset": 0,
        "slot": "5",
        "type": "t_uint256"
      },
      {
        "astId": 15589,
        "contract": "contracts/relay/BitcoinRelayTestnet.sol:BitcoinRelayTestnet",
        "label": "rewardAmountInTDT",
        "offset": 0,
        "slot": "6",
        "type": "t_uint256"
      },
      {
        "astId": 15592,
        "contract": "contracts/relay/BitcoinRelayTestnet.sol:BitcoinRelayTestnet",
        "label": "relayerPercentageFee",
        "offset": 0,
        "slot": "7",
        "type": "t_uint256"
      },
      {
        "astId": 15595,
        "contract": "contracts/relay/BitcoinRelayTestnet.sol:BitcoinRelayTestnet",
        "label": "submissionGasUsed",
        "offset": 0,
        "slot": "8",
        "type": "t_uint256"
      },
      {
        "astId": 15598,
        "contract": "contracts/relay/BitcoinRelayTestnet.sol:BitcoinRelayTestnet",
        "label": "epochLength",
        "offset": 0,
        "slot": "9",
        "type": "t_uint256"
      },
      {
        "astId": 15601,
        "contract": "contracts/relay/BitcoinRelayTestnet.sol:BitcoinRelayTestnet",
        "label": "baseQueries",
        "offset": 0,
        "slot": "10",
        "type": "t_uint256"
      },
      {
        "astId": 15604,
        "contract": "contracts/relay/BitcoinRelayTestnet.sol:BitcoinRelayTestnet",
        "label": "currentEpochQueries",
        "offset": 0,
        "slot": "11",
        "type": "t_uint256"
      },
      {
        "astId": 15607,
        "contract": "contracts/relay/BitcoinRelayTestnet.sol:BitcoinRelayTestnet",
        "label": "lastEpochQueries",
        "offset": 0,
        "slot": "12",
        "type": "t_uint256"
      },
      {
        "astId": 15610,
        "contract": "contracts/relay/BitcoinRelayTestnet.sol:BitcoinRelayTestnet",
        "label": "TeleportDAOToken",
        "offset": 0,
        "slot": "13",
        "type": "t_address"
      },
      {
        "astId": 15613,
        "contract": "contracts/relay/BitcoinRelayTestnet.sol:BitcoinRelayTestnet",
        "label": "relayGenesisHash",
        "offset": 0,
        "slot": "14",
        "type": "t_bytes32"
      },
      {
        "astId": 15617,
        "contract": "contracts/relay/BitcoinRelayTestnet.sol:BitcoinRelayTestnet",
        "label": "previousBlock",
        "offset": 0,
        "slot": "15",
        "type": "t_mapping(t_bytes32,t_bytes32)"
      },
      {
        "astId": 15621,
        "contract": "contracts/relay/BitcoinRelayTestnet.sol:BitcoinRelayTestnet",
        "label": "blockHeight",
        "offset": 0,
        "slot": "16",
        "type": "t_mapping(t_bytes32,t_uint256)"
      },
      {
        "astId": 15627,
        "contract": "contracts/relay/BitcoinRelayTestnet.sol:BitcoinRelayTestnet",
        "label": "chain",
        "offset": 0,
        "slot": "17",
        "type": "t_mapping(t_uint256,t_array(t_struct(blockHeader)17259_storage)dyn_storage)"
      }
    ],
    "types": {
      "t_address": {
        "encoding": "inplace",
        "label": "address",
        "numberOfBytes": "20"
      },
      "t_array(t_struct(blockHeader)17259_storage)dyn_storage": {
        "base": "t_struct(blockHeader)17259_storage",
        "encoding": "dynamic_array",
        "label": "struct IBitcoinRelay.blockHeader[]",
        "numberOfBytes": "32"
      },
      "t_bool": {
        "encoding": "inplace",
        "label": "bool",
        "numberOfBytes": "1"
      },
      "t_bytes32": {
        "encoding": "inplace",
        "label": "bytes32",
        "numberOfBytes": "32"
      },
      "t_mapping(t_bytes32,t_bytes32)": {
        "encoding": "mapping",
        "key": "t_bytes32",
        "label": "mapping(bytes32 => bytes32)",
        "numberOfBytes": "32",
        "value": "t_bytes32"
      },
      "t_mapping(t_bytes32,t_uint256)": {
        "encoding": "mapping",
        "key": "t_bytes32",
        "label": "mapping(bytes32 => uint256)",
        "numberOfBytes": "32",
        "value": "t_uint256"
      },
      "t_mapping(t_uint256,t_array(t_struct(blockHeader)17259_storage)dyn_storage)": {
        "encoding": "mapping",
        "key": "t_uint256",
        "label": "mapping(uint256 => struct IBitcoinRelay.blockHeader[])",
        "numberOfBytes": "32",
        "value": "t_array(t_struct(blockHeader)17259_storage)dyn_storage"
      },
      "t_struct(blockHeader)17259_storage": {
        "encoding": "inplace",
        "label": "struct IBitcoinRelay.blockHeader",
        "members": [
          {
            "astId": 17250,
            "contract": "contracts/relay/BitcoinRelayTestnet.sol:BitcoinRelayTestnet",
            "label": "selfHash",
            "offset": 0,
            "slot": "0",
            "type": "t_bytes32"
          },
          {
            "astId": 17252,
            "contract": "contracts/relay/BitcoinRelayTestnet.sol:BitcoinRelayTestnet",
            "label": "parentHash",
            "offset": 0,
            "slot": "1",
            "type": "t_bytes32"
          },
          {
            "astId": 17254,
            "contract": "contracts/relay/BitcoinRelayTestnet.sol:BitcoinRelayTestnet",
            "label": "merkleRoot",
            "offset": 0,
            "slot": "2",
            "type": "t_bytes32"
          },
          {
            "astId": 17256,
            "contract": "contracts/relay/BitcoinRelayTestnet.sol:BitcoinRelayTestnet",
            "label": "relayer",
            "offset": 0,
            "slot": "3",
            "type": "t_address"
          },
          {
            "astId": 17258,
            "contract": "contracts/relay/BitcoinRelayTestnet.sol:BitcoinRelayTestnet",
            "label": "gasPrice",
            "offset": 0,
            "slot": "4",
            "type": "t_uint256"
          }
        ],
        "numberOfBytes": "160"
      },
      "t_uint256": {
        "encoding": "inplace",
        "label": "uint256",
        "numberOfBytes": "32"
      }
    }
  }
}