{
  "address": "0x710bFb9AF7A8775b1f594b5D08b74D2fc7a93725",
  "abi": [
    {
      "inputs": [
        {
          "internalType": "bytes",
          "name": "_genesisHeader",
          "type": "bytes"
        },
        {
          "internalType": "uint256",
          "name": "_height",
          "type": "uint256"
        },
        {
          "internalType": "bytes32",
          "name": "_periodStart",
          "type": "bytes32"
        },
        {
          "internalType": "address",
          "name": "_TeleportDAOToken",
          "type": "address"
        }
      ],
      "stateMutability": "nonpayable",
      "type": "constructor"
    },
    {
      "anonymous": false,
      "inputs": [
        {
          "indexed": true,
          "internalType": "uint256",
          "name": "height",
          "type": "uint256"
        },
        {
          "indexed": false,
          "internalType": "bytes32",
          "name": "selfHash",
          "type": "bytes32"
        },
        {
          "indexed": true,
          "internalType": "bytes32",
          "name": "parentHash",
          "type": "bytes32"
        },
        {
          "indexed": true,
          "internalType": "address",
          "name": "relayer",
          "type": "address"
        }
      ],
      "name": "BlockAdded",
      "type": "event"
    },
    {
      "anonymous": false,
      "inputs": [
        {
          "indexed": true,
          "internalType": "uint256",
          "name": "height",
          "type": "uint256"
        },
        {
          "indexed": false,
          "internalType": "bytes32",
          "name": "selfHash",
          "type": "bytes32"
        },
        {
          "indexed": false,
          "internalType": "bytes32",
          "name": "parentHash",
          "type": "bytes32"
        },
        {
          "indexed": true,
          "internalType": "address",
          "name": "relayer",
          "type": "address"
        },
        {
          "indexed": false,
          "internalType": "uint256",
          "name": "rewardAmountTNT",
          "type": "uint256"
        },
        {
          "indexed": false,
          "internalType": "uint256",
          "name": "rewardAmountTDT",
          "type": "uint256"
        }
      ],
      "name": "BlockFinalized",
      "type": "event"
    },
    {
      "anonymous": false,
      "inputs": [
        {
          "indexed": true,
          "internalType": "address",
          "name": "previousOwner",
          "type": "address"
        },
        {
          "indexed": true,
          "internalType": "address",
          "name": "newOwner",
          "type": "address"
        }
      ],
      "name": "OwnershipTransferred",
      "type": "event"
    },
    {
      "anonymous": false,
      "inputs": [
        {
          "indexed": false,
          "internalType": "address",
          "name": "account",
          "type": "address"
        }
      ],
      "name": "Paused",
      "type": "event"
    },
    {
      "anonymous": false,
      "inputs": [
        {
          "indexed": false,
          "internalType": "address",
          "name": "account",
          "type": "address"
        }
      ],
      "name": "Unpaused",
      "type": "event"
    },
    {
      "inputs": [],
      "name": "TeleportDAOToken",
      "outputs": [
        {
          "internalType": "address",
          "name": "",
          "type": "address"
        }
      ],
      "stateMutability": "view",
      "type": "function"
    },
    {
      "inputs": [
        {
          "internalType": "bytes",
          "name": "_anchor",
          "type": "bytes"
        },
        {
          "internalType": "bytes",
          "name": "_headers",
          "type": "bytes"
        }
      ],
      "name": "addHeaders",
      "outputs": [
        {
          "internalType": "bool",
          "name": "",
          "type": "bool"
        }
      ],
      "stateMutability": "nonpayable",
      "type": "function"
    },
    {
      "inputs": [
        {
          "internalType": "bytes",
          "name": "_oldPeriodStartHeader",
          "type": "bytes"
        },
        {
          "internalType": "bytes",
          "name": "_oldPeriodEndHeader",
          "type": "bytes"
        },
        {
          "internalType": "bytes",
          "name": "_headers",
          "type": "bytes"
        }
      ],
      "name": "addHeadersWithRetarget",
      "outputs": [
        {
          "internalType": "bool",
          "name": "",
          "type": "bool"
        }
      ],
      "stateMutability": "nonpayable",
      "type": "function"
    },
    {
      "inputs": [],
      "name": "availableTDT",
      "outputs": [
        {
          "internalType": "uint256",
          "name": "",
          "type": "uint256"
        }
      ],
      "stateMutability": "view",
      "type": "function"
    },
    {
      "inputs": [],
      "name": "availableTNT",
      "outputs": [
        {
          "internalType": "uint256",
          "name": "",
          "type": "uint256"
        }
      ],
      "stateMutability": "view",
      "type": "function"
    },
    {
      "inputs": [],
      "name": "baseQueries",
      "outputs": [
        {
          "internalType": "uint256",
          "name": "",
          "type": "uint256"
        }
      ],
      "stateMutability": "view",
      "type": "function"
    },
    {
      "inputs": [
        {
          "internalType": "bytes32",
          "name": "_txid",
          "type": "bytes32"
        },
        {
          "internalType": "uint256",
          "name": "_blockHeight",
          "type": "uint256"
        },
        {
          "internalType": "bytes",
          "name": "_intermediateNodes",
          "type": "bytes"
        },
        {
          "internalType": "uint256",
          "name": "_index",
          "type": "uint256"
        }
      ],
      "name": "checkTxProof",
      "outputs": [
        {
          "internalType": "bool",
          "name": "",
          "type": "bool"
        }
      ],
      "stateMutability": "payable",
      "type": "function"
    },
    {
      "inputs": [],
      "name": "currentEpochQueries",
      "outputs": [
        {
          "internalType": "uint256",
          "name": "",
          "type": "uint256"
        }
      ],
      "stateMutability": "view",
      "type": "function"
    },
    {
      "inputs": [],
      "name": "epochLength",
      "outputs": [
        {
          "internalType": "uint256",
          "name": "",
          "type": "uint256"
        }
      ],
      "stateMutability": "view",
      "type": "function"
    },
    {
      "inputs": [],
      "name": "finalizationParameter",
      "outputs": [
        {
          "internalType": "uint256",
          "name": "",
          "type": "uint256"
        }
      ],
      "stateMutability": "view",
      "type": "function"
    },
    {
      "inputs": [
        {
          "internalType": "bytes32",
          "name": "_hash",
          "type": "bytes32"
        },
        {
          "internalType": "uint256",
          "name": "_offset",
          "type": "uint256"
        }
      ],
      "name": "findAncestor",
      "outputs": [
        {
          "internalType": "bytes32",
          "name": "",
          "type": "bytes32"
        }
      ],
      "stateMutability": "view",
      "type": "function"
    },
    {
      "inputs": [
        {
          "internalType": "bytes32",
          "name": "_hash",
          "type": "bytes32"
        }
      ],
      "name": "findHeight",
      "outputs": [
        {
          "internalType": "uint256",
          "name": "",
          "type": "uint256"
        }
      ],
      "stateMutability": "view",
      "type": "function"
    },
    {
      "inputs": [
        {
          "internalType": "uint256",
          "name": "_height",
          "type": "uint256"
        },
        {
          "internalType": "uint256",
          "name": "_index",
          "type": "uint256"
        }
      ],
      "name": "getBlockHeaderFee",
      "outputs": [
        {
          "internalType": "uint256",
          "name": "",
          "type": "uint256"
        }
      ],
      "stateMutability": "view",
      "type": "function"
    },
    {
      "inputs": [
        {
          "internalType": "uint256",
          "name": "_height",
          "type": "uint256"
        },
        {
          "internalType": "uint256",
          "name": "_index",
          "type": "uint256"
        }
      ],
      "name": "getBlockHeaderHash",
      "outputs": [
        {
          "internalType": "bytes32",
          "name": "",
          "type": "bytes32"
        }
      ],
      "stateMutability": "view",
      "type": "function"
    },
    {
      "inputs": [],
      "name": "getCurrentEpochDifficulty",
      "outputs": [
        {
          "internalType": "uint256",
          "name": "",
          "type": "uint256"
        }
      ],
      "stateMutability": "view",
      "type": "function"
    },
    {
      "inputs": [
        {
          "internalType": "uint256",
          "name": "_height",
          "type": "uint256"
        }
      ],
      "name": "getNumberOfSubmittedHeaders",
      "outputs": [
        {
          "internalType": "uint256",
          "name": "",
          "type": "uint256"
        }
      ],
      "stateMutability": "view",
      "type": "function"
    },
    {
      "inputs": [],
      "name": "getPrevEpochDifficulty",
      "outputs": [
        {
          "internalType": "uint256",
          "name": "",
          "type": "uint256"
        }
      ],
      "stateMutability": "view",
      "type": "function"
    },
    {
      "inputs": [],
      "name": "initialHeight",
      "outputs": [
        {
          "internalType": "uint256",
          "name": "",
          "type": "uint256"
        }
      ],
      "stateMutability": "view",
      "type": "function"
    },
    {
      "inputs": [
        {
          "internalType": "bytes32",
          "name": "_ancestor",
          "type": "bytes32"
        },
        {
          "internalType": "bytes32",
          "name": "_descendant",
          "type": "bytes32"
        },
        {
          "internalType": "uint256",
          "name": "_limit",
          "type": "uint256"
        }
      ],
      "name": "isAncestor",
      "outputs": [
        {
          "internalType": "bool",
          "name": "",
          "type": "bool"
        }
      ],
      "stateMutability": "view",
      "type": "function"
    },
    {
      "inputs": [],
      "name": "lastEpochQueries",
      "outputs": [
        {
          "internalType": "uint256",
          "name": "",
          "type": "uint256"
        }
      ],
      "stateMutability": "view",
      "type": "function"
    },
    {
      "inputs": [],
      "name": "lastSubmittedHeight",
      "outputs": [
        {
          "internalType": "uint256",
          "name": "",
          "type": "uint256"
        }
      ],
      "stateMutability": "view",
      "type": "function"
    },
    {
      "inputs": [],
      "name": "owner",
      "outputs": [
        {
          "internalType": "address",
          "name": "",
          "type": "address"
        }
      ],
      "stateMutability": "view",
      "type": "function"
    },
    {
      "inputs": [],
      "name": "pauseRelay",
      "outputs": [],
      "stateMutability": "nonpayable",
      "type": "function"
    },
    {
      "inputs": [],
      "name": "paused",
      "outputs": [
        {
          "internalType": "bool",
          "name": "",
          "type": "bool"
        }
      ],
      "stateMutability": "view",
      "type": "function"
    },
    {
      "inputs": [],
      "name": "relayGenesisHash",
      "outputs": [
        {
          "internalType": "bytes32",
          "name": "",
          "type": "bytes32"
        }
      ],
      "stateMutability": "view",
      "type": "function"
    },
    {
      "inputs": [],
      "name": "relayerPercentageFee",
      "outputs": [
        {
          "internalType": "uint256",
          "name": "",
          "type": "uint256"
        }
      ],
      "stateMutability": "view",
      "type": "function"
    },
    {
      "inputs": [],
      "name": "renounceOwnership",
      "outputs": [],
      "stateMutability": "nonpayable",
      "type": "function"
    },
    {
      "inputs": [],
      "name": "rewardAmountInTDT",
      "outputs": [
        {
          "internalType": "uint256",
          "name": "",
          "type": "uint256"
        }
      ],
      "stateMutability": "view",
      "type": "function"
    },
    {
      "inputs": [
        {
          "internalType": "uint256",
          "name": "_baseQueries",
          "type": "uint256"
        }
      ],
      "name": "setBaseQueries",
      "outputs": [],
      "stateMutability": "nonpayable",
      "type": "function"
    },
    {
      "inputs": [
        {
          "internalType": "uint256",
          "name": "_epochLength",
          "type": "uint256"
        }
      ],
      "name": "setEpochLength",
      "outputs": [],
      "stateMutability": "nonpayable",
      "type": "function"
    },
    {
      "inputs": [
        {
          "internalType": "uint256",
          "name": "_finalizationParameter",
          "type": "uint256"
        }
      ],
      "name": "setFinalizationParameter",
      "outputs": [],
      "stateMutability": "nonpayable",
      "type": "function"
    },
    {
      "inputs": [
        {
          "internalType": "uint256",
          "name": "_relayerPercentageFee",
          "type": "uint256"
        }
      ],
      "name": "setRelayerPercentageFee",
      "outputs": [],
      "stateMutability": "nonpayable",
      "type": "function"
    },
    {
      "inputs": [
        {
          "internalType": "uint256",
          "name": "_rewardAmountInTDT",
          "type": "uint256"
        }
      ],
      "name": "setRewardAmountInTDT",
      "outputs": [],
      "stateMutability": "nonpayable",
      "type": "function"
    },
    {
      "inputs": [
        {
          "internalType": "uint256",
          "name": "_submissionGasUsed",
          "type": "uint256"
        }
      ],
      "name": "setSubmissionGasUsed",
      "outputs": [],
      "stateMutability": "nonpayable",
      "type": "function"
    },
    {
      "inputs": [],
      "name": "submissionGasUsed",
      "outputs": [
        {
          "internalType": "uint256",
          "name": "",
          "type": "uint256"
        }
      ],
      "stateMutability": "view",
      "type": "function"
    },
    {
      "inputs": [
        {
          "internalType": "address",
          "name": "newOwner",
          "type": "address"
        }
      ],
      "name": "transferOwnership",
      "outputs": [],
      "stateMutability": "nonpayable",
      "type": "function"
    },
    {
      "inputs": [],
      "name": "unPauseRelay",
      "outputs": [],
      "stateMutability": "nonpayable",
      "type": "function"
    }
  ],
  "transactionHash": "0x79435df1335edd4c7434c2f33189f91179e7e912a9d82ba5f46391dc353e7799",
  "args": [
    "0x0000202079f4f23db28305a70c6be2bddc5a5f6c2d7219e0bae80d5616000000000000001292d21819139a09f12152e4b5f7eaabe5e8581b73b573f73e10ad6bf3b9e6901f77ff62c0f239190ad4deb3",
    2342772,
    "0x0000000000000020b5419d53b4bbc0c83ad4eb8b53c8f0ae1b5a6260eecc1c02",
    "0xd7F0E220EC7Ab0FF89EfA2dAcaC68A43264904EF"
  ],
  "numDeployments": 1,
  "solcInputHash": "6f3e3be3e786d78529510e6414d29cbe",
  "bytecode": "0x60806040523480156200001157600080fd5b506040516200474038038062004740833981016040819052620000349162000bb1565b6200003f3362000291565b600180556002805460ff191690556000620000826200006b8683620002e1602090811b620010bd17901c565b62ffffff19166200030960201b620010e11760201c565b9050620000a08162ffffff1916620003a460201b620011391760201c565b620000f25760405162461bcd60e51b815260206004820152601d60248201527f426974636f696e52656c61793a2073746f70206265696e672064756d6200000060448201526064015b60405180910390fd5b6000620001108262ffffff1916620003b460201b620011461760201c565b600e8190556040805160a081018252600060208083018290529282018190526060820181905260808201528281529192506200015d9062ffffff19851690620011a862000418821b17901c565b816020018181525050620001828362ffffff19166200044760201b620011ca1760201c565b604082810191825233606084019081526000608085018181528a825260136020908152848320805460018082018355918552828520895160059092020190815582890151918101919091559551600287015592516003860180546001600160a01b0319166001600160a01b03909216919091179055516004909401939093558483526010905290208690556200021b6107e08762000d7c565b62000227908762000d09565b600095865260106020526040862055505060016005908155600385905560049490945550600d80546001600160a01b0319166001600160a01b039290921691909117905560078190556009829055600a829055600c91909155600b5550620186a060085562000dc9565b600080546001600160a01b038381166001600160a01b0319831681178455604051919092169283917f8be0079c531659141344cd1fd0a4f28419497f9722a3daafe3b4186f6b6457e09190a35050565b815160009060208401620002fe64ffffffffff8516828462000467565b925050505b92915050565b600081816200032e815b8362ffffff1916620004c160201b620011df1790919060201c565b506200034b8462ffffff1916620005a560201b620012b81760201c565b6001600160601b0316605014620003795762000371620005b460201b620012c71760201c565b92506200039d565b6200039a60108562ffffff1916620005bc60201b620012cf1790919060201c565b92505b5050919050565b62ffffff1981811614155b919050565b600080620003cb8360781c6001600160601b031690565b6001600160601b031690506000620003ec8460181c6001600160601b031690565b6001600160601b03169050604051602081838560025afa5060208160208360025afa5051949350505050565b6000816010620004288162000313565b506200039a62ffffff19851660046020620012e1620005ce821b17811c565b60006200030362ffffff19831660246020620012e1620005ce821b17811c565b6000806200048483856200074460201b6200143a1790919060201c565b905060405181111562000495575060005b80620004a95762ffffff19915050620004ba565b5050606083811b8317901b811760181b5b9392505050565b6000620004cf8383620007a6565b6200059e576000620004f2620004e58560d81c90565b64ffffffffff16620007ca565b9150600090506200050a64ffffffffff8516620007ca565b6040517f5479706520617373657274696f6e206661696c65642e20476f7420307800000060208201526001600160b01b031960b086811b8216603d8401526c05c408af0e0cac6e8cac84060f609b1b604784015283901b16605482015290925060009150605e0160405160208183030381529060405290508060405162461bcd60e51b8152600401620000e9919062000c8d565b5090919050565b60181c6001600160601b031690565b62ffffff1990565b60d81b6001600160d81b039091161790565b600060ff8216620005e257506000620004ba565b620005f68460181c6001600160601b031690565b6001600160601b03166200061c8360ff16856200074460201b6200143a1790919060201c565b111562000687576200066c6200063b8560781c6001600160601b031690565b6001600160601b0316620006588660181c6001600160601b031690565b6001600160601b03168560ff86166200089c565b60405162461bcd60e51b8152600401620000e9919062000c8d565b60208260ff161115620007035760405162461bcd60e51b815260206004820152603a60248201527f54797065644d656d566965772f696e646578202d20417474656d70746564207460448201527f6f20696e646578206d6f7265207468616e2033322062797465730000000000006064820152608401620000e9565b6008820260006200071d8660781c6001600160601b031690565b6001600160601b031690506000600160ff1b60001984011d91909501511695945050505050565b60008262000753838262000cc2565b9150811015620003035760405162461bcd60e51b815260206004820152601460248201527f64732d6d6174682d6164642d6f766572666c6f770000000000000000000000006044820152606401620000e9565b600064ffffffffff8216620007bb8460d81c90565b64ffffffffff16149392505050565b600080601f5b600f8160ff16111562000831576000620007ec82600862000cdd565b60ff1685901c9050620007ff81620009d9565b61ffff16841793508160ff166010146200081b57601084901b93505b506200082960018262000d23565b9050620007d0565b50600f5b60ff8160ff161015620008965760006200085182600862000cdd565b60ff1685901c90506200086481620009d9565b61ffff16831792508160ff166000146200088057601083901b92505b506200088e60018262000d23565b905062000835565b50915091565b60606000620008ab86620007ca565b915060009050620008bc86620007ca565b915060009050620008cd86620007ca565b915060009050620008de86620007ca565b604080517f54797065644d656d566965772f696e646578202d204f76657272616e2074686560208201527f20766965772e20536c6963652069732061742030780000000000000000000000818301526001600160d01b031960d098891b811660558301526e040eed2e8d040d8cadccee8d04060f608b1b605b830181905297891b8116606a8301527f2e20417474656d7074656420746f20696e646578206174206f666673657420306070830152600f60fb1b609083015295881b861660918201526097810196909652951b90921660a68401525050601760f91b60ac8201528151808203608d01815260ad90910190915295945050505050565b6000620009ed600f600484901c1662000a0d565b60ff161760081b62ffff001662000a048262000a0d565b60ff1617919050565b600060f08083179060ff8216141562000a2b576030915050620003af565b8060ff1660f1141562000a43576031915050620003af565b8060ff1660f2141562000a5b576032915050620003af565b8060ff1660f3141562000a73576033915050620003af565b8060ff1660f4141562000a8b576034915050620003af565b8060ff1660f5141562000aa3576035915050620003af565b8060ff1660f6141562000abb576036915050620003af565b8060ff1660f7141562000ad3576037915050620003af565b8060ff1660f8141562000aeb576038915050620003af565b8060ff1660f9141562000b03576039915050620003af565b8060ff1660fa141562000b1b576061915050620003af565b8060ff1660fb141562000b33576062915050620003af565b8060ff1660fc141562000b4b576063915050620003af565b8060ff1660fd141562000b63576064915050620003af565b8060ff1660fe141562000b7b576065915050620003af565b8060ff1660ff141562000b93576066915050620003af565b50919050565b80516001600160a01b0381168114620003af57600080fd5b6000806000806080858703121562000bc7578384fd5b84516001600160401b038082111562000bde578586fd5b818701915087601f83011262000bf2578586fd5b81518181111562000c075762000c0762000db3565b604051601f8201601f19908116603f0116810190838211818310171562000c325762000c3262000db3565b816040528281528a602084870101111562000c4b578889fd5b62000c5e83602083016020880162000d49565b8098505050505050602085015192506040850151915062000c826060860162000b99565b905092959194509250565b600060208252825180602084015262000cae81604085016020870162000d49565b601f01601f19169190910160400192915050565b6000821982111562000cd85762000cd862000d9d565b500190565b600060ff821660ff84168160ff048111821515161562000d015762000d0162000d9d565b029392505050565b60008282101562000d1e5762000d1e62000d9d565b500390565b600060ff821660ff84168082101562000d405762000d4062000d9d565b90039392505050565b60005b8381101562000d6657818101518382015260200162000d4c565b8381111562000d76576000848401525b50505050565b60008262000d9857634e487b7160e01b81526012600452602481fd5b500690565b634e487b7160e01b600052601160045260246000fd5b634e487b7160e01b600052604160045260246000fd5b6139678062000dd96000396000f3fe60806040526004361061021a5760003560e01c8063882a5ee011610123578063b9bbd9bd116100ab578063e2761af01161006f578063e2761af0146105b9578063efbc7be4146105cf578063f2fde38b146105e5578063fa041af514610605578063fd9c6e851461061b5761021a565b8063b9bbd9bd1461052e578063b9e88ac11461054e578063c20dc6641461056e578063c781452914610584578063d0a89739146105995761021a565b80639f156414116100f25780639f156414146104a2578063a072bc50146104b8578063a3db54eb146104ce578063b36161bd146104ee578063b985621a1461050e5761021a565b8063882a5ee0146104225780638da5cb5b14610437578063901186bb14610455578063926d44e2146104755761021a565b80635b732892116101a65780636594168311610175578063659416831461039757806365da41b9146103b7578063665b634f146103d7578063715018a6146103ed5780637fa637fc146104025761021a565b80635b732892146103365780635b88a0e51461034c5780635c975abb1461035f57806360b5c390146103775761021a565b806330017b3b116101ed57806330017b3b146102a65780634354da25146102c6578063465e7559146102e957806354eea7961461030057806357d775f8146103205761021a565b8063108f438d1461021f578063113764be1461025c5780632b97be241461027b5780632f796d9014610290575b600080fd5b34801561022b57600080fd5b50600d5461023f906001600160a01b031681565b6040516001600160a01b0390911681526020015b60405180910390f35b34801561026857600080fd5b506011545b604051908152602001610253565b34801561028757600080fd5b5060125461026d565b34801561029c57600080fd5b5061026d60045481565b3480156102b257600080fd5b5061026d6102c1366004613388565b610631565b6102d96102d43660046133a9565b610646565b6040519015158152602001610253565b3480156102f557600080fd5b506102fe6108ea565b005b34801561030c57600080fd5b506102fe61031b366004613345565b61091e565b34801561032c57600080fd5b5061026d60095481565b34801561034257600080fd5b5061026d600b5481565b34801561035857600080fd5b504761026d565b34801561036b57600080fd5b5060025460ff166102d9565b34801561038357600080fd5b5061026d610392366004613345565b61094d565b3480156103a357600080fd5b506102fe6103b2366004613345565b610960565b3480156103c357600080fd5b506102d96103d2366004613402565b61098f565b3480156103e357600080fd5b5061026d60075481565b3480156103f957600080fd5b506102fe610b93565b34801561040e57600080fd5b506102d961041d36600461346b565b610bc7565b34801561042e57600080fd5b5061026d610dc5565b34801561044357600080fd5b506000546001600160a01b031661023f565b34801561046157600080fd5b506102fe610470366004613345565b610e46565b34801561048157600080fd5b5061026d610490366004613345565b60009081526013602052604090205490565b3480156104ae57600080fd5b5061026d600c5481565b3480156104c457600080fd5b5061026d60055481565b3480156104da57600080fd5b506102fe6104e9366004613345565b610e75565b3480156104fa57600080fd5b506102fe610509366004613345565b610ea4565b34801561051a57600080fd5b506102d961052936600461335d565b610ed3565b34801561053a57600080fd5b5061026d610549366004613388565b610eea565b34801561055a57600080fd5b506102fe610569366004613345565b610f34565b34801561057a57600080fd5b5061026d60085481565b34801561059057600080fd5b506102fe610f63565b3480156105a557600080fd5b5061026d6105b4366004613388565b610f95565b3480156105c557600080fd5b5061026d60035481565b3480156105db57600080fd5b5061026d600e5481565b3480156105f157600080fd5b506102fe6106003660046132fe565b611022565b34801561061157600080fd5b5061026d600a5481565b34801561062757600080fd5b5061026d60065481565b600061063d838361148f565b90505b92915050565b6000600260015414156106745760405162461bcd60e51b815260040161066b9061361f565b60405180910390fd5b600260015561068560025460ff1690565b156106a25760405162461bcd60e51b815260040161066b906135c0565b6004546106b0906001613656565b6106bb866006613656565b10156108d95760005b600086815260136020526040902054811015610881576000868152601360205260408120805461072491908490811061070d57634e487b7160e01b600052603260045260246000fd5b90600052602060002090600502016002015461150d565b9050600061077a61076f600089898080601f01602080910402602001604051908101604052809392919081815260200183838082843760009201919091525092939250506110bd9050565b62ffffff191661158d565b905060006107878a61150d565b9050610795818484896115d3565b1561086b57600089815260136020526040902080546107e49190869081106107cd57634e487b7160e01b600052603260045260246000fd5b906000526020600020906005020160040154611625565b6108455760405162461bcd60e51b815260206004820152602c60248201527f426974636f696e52656c61793a2067657474696e672066656520776173206e6f60448201526b1d081cdd58d8d95cdcd99d5b60a21b606482015260840161066b565b6001600b60008282546108589190613656565b90915550600195506108dd945050505050565b5050508080610879906138b0565b9150506106c4565b5060405162461bcd60e51b815260206004820152602660248201527f426974636f696e52656c61793a20747820686173206e6f74206265656e20696e60448201526518db1d59195960d21b606482015260840161066b565b5060005b6001805595945050505050565b6000546001600160a01b031633146109145760405162461bcd60e51b815260040161066b906135ea565b61091c6116e2565b565b6000546001600160a01b031633146109485760405162461bcd60e51b815260040161066b906135ea565b600955565b600061095882611757565b90505b919050565b6000546001600160a01b0316331461098a5760405162461bcd60e51b815260040161066b906135ea565b600a55565b6000600260015414156109b45760405162461bcd60e51b815260040161066b9061361f565b60026001556109c560025460ff1690565b156109e25760405162461bcd60e51b815260040161066b906135c0565b6000610a36610a2b600086868080601f01602080910402602001604051908101604052809392919081815260200183838082843760009201919091525092939250506110bd9050565b62ffffff19166117b7565b90506000610a8c610a81600089898080601f01602080910402602001604051908101604052809392919081815260200183838082843760009201919091525092939250506110bd9050565b62ffffff19166110e1565b9050610a9d62ffffff198316611139565b610b0f5760405162461bcd60e51b815260206004820152603960248201527f426974636f696e52656c61793a20686561646572206172726179206c656e677460448201527f68206d75737420626520646976697369626c6520627920383000000000000000606482015260840161066b565b610b1e62ffffff198216611139565b610b785760405162461bcd60e51b815260206004820152602560248201527f426974636f696e52656c61793a20616e63686f72206d75737420626520383020604482015264627974657360d81b606482015260840161066b565b610b84818360006117fd565b60018055979650505050505050565b6000546001600160a01b03163314610bbd5760405162461bcd60e51b815260040161066b906135ea565b61091c6000611bed565b600060026001541415610bec5760405162461bcd60e51b815260040161066b9061361f565b6002600155610bfd60025460ff1690565b15610c1a5760405162461bcd60e51b815260040161066b906135c0565b6000610c63610a8160008a8a8080601f01602080910402602001604051908101604052809392919081815260200183838082843760009201919091525092939250506110bd9050565b90506000610cae610a81600089898080601f01602080910402602001604051908101604052809392919081815260200183838082843760009201919091525092939250506110bd9050565b90506000610cf9610a2b600088888080601f01602080910402602001604051908101604052809392919081815260200183838082843760009201919091525092939250506110bd9050565b9050610d0a62ffffff198416611139565b8015610d205750610d2062ffffff198316611139565b8015610d365750610d3662ffffff198216611139565b610da85760405162461bcd60e51b815260206004820152603c60248201527f426974636f696e52656c61793a2062616420617267732e20436865636b20686560448201527f6164657220616e642061727261792062797465206c656e677468732e00000000606482015260840161066b565b610db3838383611c3d565b600180559a9950505050505050505050565b600d546040516370a0823160e01b81523060048201526000916001600160a01b0316906370a082319060240160206040518083038186803b158015610e0957600080fd5b505afa158015610e1d573d6000803e3d6000fd5b505050506040513d601f19601f82011682018060405250810190610e419190613501565b905090565b6000546001600160a01b03163314610e705760405162461bcd60e51b815260040161066b906135ea565b600755565b6000546001600160a01b03163314610e9f5760405162461bcd60e51b815260040161066b906135ea565b600855565b6000546001600160a01b03163314610ece5760405162461bcd60e51b815260040161066b906135ea565b600555565b6000610ee0848484611eed565b90505b9392505050565b6000828152601360205260408120805461063d919084908110610f1d57634e487b7160e01b600052603260045260246000fd5b90600052602060002090600502016000015461150d565b6000546001600160a01b03163314610f5e5760405162461bcd60e51b815260040161066b906135ea565b600655565b6000546001600160a01b03163314610f8d5760405162461bcd60e51b815260040161066b906135ea565b61091c611f3c565b6000600c546064610fa691906137e7565b600954600754610fb7906001613656565b6000868152601360205260409020805486908110610fe557634e487b7160e01b600052603260045260246000fd5b90600052602060002090600502016004015460085461100491906137e7565b61100e91906137e7565b61101891906137e7565b61063d9190613699565b6000546001600160a01b0316331461104c5760405162461bcd60e51b815260040161066b906135ea565b6001600160a01b0381166110b15760405162461bcd60e51b815260206004820152602660248201527f4f776e61626c653a206e6577206f776e657220697320746865207a65726f206160448201526564647265737360d01b606482015260840161066b565b6110ba81611bed565b50565b8151600090602084016110d864ffffffffff85168284611fb6565b95945050505050565b600081816110f7815b62ffffff198416906111df565b506050601885901c6001600160601b03161461111c576111156112c7565b9250611132565b61112f60105b62ffffff198616906112cf565b92505b5050919050565b62ffffff19908116141590565b60008061115c8360781c6001600160601b031690565b6001600160601b03169050600061117c8460181c6001600160601b031690565b6001600160601b03169050604051602081838560025afa5060208160208360025afa5051949350505050565b60008160106111b6816110ea565b5061112f62ffffff198516600460206112e1565b600061095862ffffff198316602460206112e1565b60006111eb8383611ffa565b6112b157600061120a6111fe8560d81c90565b64ffffffffff1661201d565b915050600061121f8464ffffffffff1661201d565b6040517f5479706520617373657274696f6e206661696c65642e20476f7420307800000060208201526001600160b01b031960b086811b8216603d8401526c05c408af0e0cac6e8cac84060f609b1b604784015283901b16605482015290925060009150605e0160405160208183030381529060405290508060405162461bcd60e51b815260040161066b9190613548565b5090919050565b60181c6001600160601b031690565b62ffffff1990565b60d81b6001600160d81b039091161790565b600060ff82166112f357506000610ee3565b6113068460181c6001600160601b031690565b6001600160601b031661131c8460ff851661143a565b1115611380576113676113388560781c6001600160601b031690565b6001600160601b03166113548660181c6001600160601b031690565b6001600160601b0316858560ff166120dd565b60405162461bcd60e51b815260040161066b9190613548565b60208260ff1611156113fa5760405162461bcd60e51b815260206004820152603a60248201527f54797065644d656d566965772f696e646578202d20417474656d70746564207460448201527f6f20696e646578206d6f7265207468616e203332206279746573000000000000606482015260840161066b565b6008820260006114138660781c6001600160601b031690565b6001600160601b031690506000600160ff1b60001984011d91909501511695945050505050565b6000826114478382613656565b91508110156106405760405162461bcd60e51b815260206004820152601460248201527364732d6d6174682d6164642d6f766572666c6f7760601b604482015260640161066b565b600082815b838110156114bf576000918252600f60205260409091205490806114b7816138b0565b915050611494565b508061063d5760405162461bcd60e51b815260206004820152601e60248201527f426974636f696e52656c61793a20756e6b6e6f776e20616e636573746f720000604482015260640161066b565b6000606081805b602081101561158157828561152a83601f61382f565b6020811061154857634e487b7160e01b600052603260045260246000fd5b1a60f81b60405160200161155d929190613519565b60405160208183030381529060405292508080611579906138b0565b915050611514565b50506020015192915050565b6000818161159a816110ea565b506115b36020601886901c6001600160601b03166138df565b6001600160601b0316156115c9576111156112c7565b61112f6014611122565b6000836115df86612207565b1480156115ea575081155b80156116015750601883901c6001600160601b0316155b1561160e5750600161161d565b61161a8584868561227b565b90505b949350505050565b600080600c54606461163791906137e7565b600954600754611648906001613656565b8560085461165691906137e7565b61166091906137e7565b61166a91906137e7565b6116749190613699565b9050803410156116c65760405162461bcd60e51b815260206004820152601f60248201527f426974636f696e52656c61793a20666565206973206e6f7420656e6f75676800604482015260640161066b565b6116d9336116d4833461382f565b612341565b50600192915050565b60025460ff16156117055760405162461bcd60e51b815260040161066b906135c0565b6002805460ff191660011790557f62e78cea01bee320cd4e420270b5ea74000d11b0c9f74754ebdbfc544b05a25861173a3390565b6040516001600160a01b03909116815260200160405180910390a1565b6000818152601060205260408120546117a25760405162461bcd60e51b815260206004820152600d60248201526c556e6b6e6f776e20626c6f636b60981b604482015260640161066b565b5060008181526010602052604090205461095b565b600081816117c4816110ea565b506117dd6050601886901c6001600160601b03166138df565b6001600160601b0316156117f3576111156112c7565b61112f6011611122565b60008061180f62ffffff198616611146565b9050600061181c82611757565b9050600061183e61183362ffffff1988168361245f565b62ffffff191661249b565b9050848061185957508061185762ffffff19891661249b565b145b6118c05760405162461bcd60e51b815260206004820152603260248201527f426974636f696e52656c61793a20756e657870656374656420726574617267656044820152711d081bdb88195e1d195c9b985b0818d85b1b60721b606482015260840161066b565b60008060005b6118de605060188b901c6001600160601b03166136ad565b6001600160601b0316811015611bdd57600061190062ffffff198b168361245f565b905061190c8287613656565b611917906001613656565b935061192862ffffff198216611146565b92508880611940575061193d6107e0856138cb565b15155b6119c65760405162461bcd60e51b815260206004820152604b60248201527f426974636f696e52656c61793a20686561646572732073686f756c642062652060448201527f7375626d69747465642062792063616c6c696e6720616464486561646572735760648201526a1a5d1a14995d185c99d95d60aa1b608482015260a40161066b565b846119d662ffffff19831661249b565b14611a355760405162461bcd60e51b815260206004820152602960248201527f426974636f696e52656c61793a20746172676574206368616e67656420756e65604482015268787065637465646c7960b81b606482015260840161066b565b611a4562ffffff19821688612567565b611aae5760405162461bcd60e51b815260206004820152603460248201527f426974636f696e52656c61793a206865616465727320646f206e6f7420666f726044820152733690309031b7b739b4b9ba32b73a1031b430b4b760611b606482015260840161066b565b600454600554611abe9086613656565b11611adb5760405162461bcd60e51b815260040161066b9061357b565b6000838152600f6020526040902054611bc65784611af884612590565b1115611b585760405162461bcd60e51b815260206004820152602960248201527f426974636f696e52656c61793a2068656164657220776f726b20697320696e736044820152681d59999a58da595b9d60ba1b606482015260840161066b565b6000838152600f602090815260408083208a905560109091529020849055611b8081856126ca565b336001600160a01b031687857ffb8fff3e2daa665d496373ced291b62aba4162f24632a1597e286621016e9a1f86604051611bbd91815260200190565b60405180910390a45b829650508080611bd5906138b0565b9150506118c6565b5060019998505050505050505050565b600080546001600160a01b038381166001600160a01b0319831681178455604051919092169283917f8be0079c531659141344cd1fd0a4f28419497f9722a3daafe3b4186f6b6457e09190a35050565b600080611c57611c5262ffffff198716611146565b611757565b90506000611c6d611c5262ffffff198716611146565b9050611c7b6107e0826138cb565b6107df14611d055760405162461bcd60e51b815260206004820152604b60248201527f426974636f696e52656c61793a206d7573742070726f7669646520746865206c60448201527f61737420686561646572206f662074686520636c6f73696e672064696666696360648201526a1d5b1d1e481c195c9a5bd960aa1b608482015260a40161066b565b611d11826107df613656565b8114611d7e5760405162461bcd60e51b815260206004820152603660248201527f426974636f696e52656c61793a206d7573742070726f766964652065786163746044820152751b1e480c48191a59999a58dd5b1d1e481c195c9a5bd960521b606482015260840161066b565b611d8d62ffffff198616612805565b611d9c62ffffff198816612805565b14611e075760405162461bcd60e51b815260206004820152603560248201527f426974636f696e52656c61793a20706572696f642068656164657220646966666044820152740d2c6ead8e8d2cae640c8de40dcdee840dac2e8c6d605b1b606482015260840161066b565b6000611e1962ffffff1986168261245f565b90506000611e2c62ffffff19831661249b565b90506000611e71611e4262ffffff198b1661249b565b611e5162ffffff198c16612825565b63ffffffff16611e6662ffffff198c16612825565b63ffffffff16612847565b90508181831614611ed45760405162461bcd60e51b815260206004820152602760248201527f426974636f696e52656c61793a20696e76616c696420726574617267657420706044820152661c9bdd9a59195960ca1b606482015260840161066b565b611ee0888860016117fd565b9998505050505050505050565b600082815b83811015611f305785821415611f0d57600192505050610ee3565b6000918252600f6020526040909120549080611f28816138b0565b915050611ef2565b50600095945050505050565b60025460ff16611f855760405162461bcd60e51b815260206004820152601460248201527314185d5cd8589b194e881b9bdd081c185d5cd95960621b604482015260640161066b565b6002805460ff191690557f5db9ee0a495bf2e6ff9c91a7834c1ba4fdd244a5e8aa4e537bd38aeae4b073aa3361173a565b600080611fc3848461143a565b9050604051811115611fd3575060005b80611fe55762ffffff19915050610ee3565b5050606092831b9190911790911b1760181b90565b60008164ffffffffff1661200e8460d81c90565b64ffffffffff16149392505050565b600080601f5b600f8160ff16111561207b57600061203c826008613806565b60ff1685901c905061204d816128d8565b61ffff16841793508160ff1660101461206857601084901b93505b50612074600182613846565b9050612023565b50600f5b60ff8160ff1610156120d7576000612098826008613806565b60ff1685901c90506120a9816128d8565b61ffff16831792508160ff166000146120c457601083901b92505b506120d0600182613846565b905061207f565b50915091565b606060006120ea8661201d565b91505060006120f88661201d565b91505060006121068661201d565b91505060006121148661201d565b604080517f54797065644d656d566965772f696e646578202d204f76657272616e20746865602082015274040ecd2caee5c40a6d8d2c6ca40d2e640c2e84060f605b1b818301526001600160d01b031960d098891b811660558301526e040eed2e8d040d8cadccee8d04060f608b1b605b830181905297891b8116606a8301527f2e20417474656d7074656420746f20696e646578206174206f666673657420306070830152600f60fb1b609083015295881b861660918201526097810196909652951b90921660a68401525050601760f91b60ac8201528151808203608d01815260ad90910190915295945050505050565b6000606081805b602081101561158157828561222483601f61382f565b6020811061224257634e487b7160e01b600052603260045260246000fd5b1a60f81b604051602001612257929190613519565b60405160208183030381529060405292508080612273906138b0565b91505061220e565b6000806122966020601887901c6001600160601b03166136ad565b6001600160601b03169050806122b057505083821461161d565b828660005b838110156123295760006122dc6122cd8360206137e7565b62ffffff198b169060206112e1565b90506122e96002856138cb565b60011415612302576122fb8184612908565b925061230f565b61230c8382612908565b92505b5060019290921c9180612321816138b0565b9150506122b5565b508561233482612934565b1498975050505050505050565b804710156123915760405162461bcd60e51b815260206004820152601d60248201527f416464726573733a20696e73756666696369656e742062616c616e6365000000604482015260640161066b565b6000826001600160a01b03168260405160006040518083038185875af1925050503d80600081146123de576040519150601f19603f3d011682016040523d82523d6000602084013e6123e3565b606091505b505090508061245a5760405162461bcd60e51b815260206004820152603a60248201527f416464726573733a20756e61626c6520746f2073656e642076616c75652c207260448201527f6563697069656e74206d61792068617665207265766572746564000000000000606482015260840161066b565b505050565b600082601161246d816110ea565b50600061247b8560506137e7565b905061249162ffffff19871682605060106129a8565b9695505050505050565b60008160106124a9816110ea565b5060006124bf62ffffff19861660486003612a17565b905060026124d662ffffff198716604b6001612a2c565b1161252e5760405162461bcd60e51b815260206004820152602260248201527f566965774254433a20696e76616c69642074617267657420646966666963756c604482015261747960f01b606482015260840161066b565b6000600361254562ffffff198816604b6001612a2c565b61254f919061382f565b905061255d81610100613719565b61249190836137e7565b6000826010612575816110ea565b508361258662ffffff1987166111a8565b1495945050505050565b600881811c7eff00ff00ff00ff00ff00ff00ff00ff00ff00ff00ff00ff00ff00ff00ff00ff167fff00ff00ff00ff00ff00ff00ff00ff00ff00ff00ff00ff00ff00ff00ff00ff009290911b9190911617601081811c7dffff0000ffff0000ffff0000ffff0000ffff0000ffff0000ffff0000ffff167fffff0000ffff0000ffff0000ffff0000ffff0000ffff0000ffff0000ffff00009290911b9190911617602081811c7bffffffff00000000ffffffff00000000ffffffff00000000ffffffff167fffffffff00000000ffffffff00000000ffffffff00000000ffffffff000000009290911b9190911617604081811c77ffffffffffffffff0000000000000000ffffffffffffffff1677ffffffffffffffff0000000000000000ffffffffffffffff199290911b9190911617608081811c91901b1790565b6004546005546126da9083613656565b116126f75760405162461bcd60e51b815260040161066b9061357b565b6040805160a08101825260008082526020820181905291810182905260608101829052608081019190915261273162ffffff198416611146565b815261274262ffffff1984166111a8565b602082015261275662ffffff1984166111ca565b604082810191825233606084019081523a60808501908152600086815260136020908152938120805460018082018355918352918590208751600590930201918255938601519381019390935592516002830155516003820180546001600160a01b0319166001600160a01b0390921691909117905590516004918201555482111561245a576001600460008282546127ef9190613656565b909155506127fd9050612a5c565b61245a612d60565b6000816010612813816110ea565b5061112f6128208561249b565b612d95565b6000816010612833816110ea565b5061112f62ffffff19851660446004612a17565b600080612854848461382f565b9050612864600462127500613699565b81101561287c57612879600462127500613699565b90505b61288a6212750060046137e7565b8111156128a25761289f6212750060046137e7565b90505b6000816128b26201000088613699565b6128bc91906137e7565b90506128cb8162127500612da6565b61249190620100006137e7565b60006128ea60048360ff16901c612db2565b60ff161760081b62ffff00166128ff82612db2565b60ff1617919050565b600060405183815282602082015260208160408360025afa5060208160208360025afa50519392505050565b6000606081805b602081101561158157828561295183601f61382f565b6020811061296f57634e487b7160e01b600052603260045260246000fd5b1a60f81b604051602001612984929190613519565b604051602081830303815290604052925080806129a0906138b0565b91505061293b565b6000806129be8660781c6001600160601b031690565b6001600160601b031690506129d286612f1e565b6129e6856129e0848961143a565b9061143a565b11156129f95762ffffff1991505061161d565b612a03818661143a565b90506124918364ffffffffff168286611fb6565b6000610ee0612a278585856112e1565b612590565b6000612a39826020613846565b612a44906008613806565b60ff16612a528585856112e1565b901c949350505050565b600554600354600454612a6f919061382f565b1061091c5760055460045460005b8215612afe576000828152601360205260408120805483908110612ab157634e487b7160e01b600052603260045260246000fd5b9060005260206000209060050201600101549050612adb81600185612ad6919061382f565b612f5f565b915083612ae781613899565b9450508280612af590613899565b93505050612a7d565b6000828152601360205260409020805482908110612b2c57634e487b7160e01b600052603260045260246000fd5b906000526020600020906005020160136000848152602001908152602001600020600081548110612b6d57634e487b7160e01b600052603260045260246000fd5b600091825260208083208454600590930201918255600180850154818401556002808601549084015560038086015490840180546001600160a01b0319166001600160a01b03909216919091179055600494850154949092019390935584825260139092526040902054111561245a57612be682612fe3565b600082815260136020526040812080548291612c3a918390612c1857634e487b7160e01b600052603260045260246000fd5b60009182526020909120600360059092020101546001600160a01b031661307b565b600086815260136020526040812080549395509193509091612c6c57634e487b7160e01b600052603260045260246000fd5b600091825260208083206003600590930201919091015486835260139091526040822080546001600160a01b039092169287927f4fec6ffa2052e80db9daadc2384a8f634057472e28ea7f1bd3eebfc92b5b0f8e929190612cdd57634e487b7160e01b600052603260045260246000fd5b90600052602060002090600502016000015460136000898152602001908152602001600020600081548110612d2257634e487b7160e01b600052603260045260246000fd5b600091825260209182902060016005909202010154604080519384529183015281018690526060810185905260800160405180910390a35050505050565b600954600454612d7091906138cb565b61091c57600a54600b5410612d8757600b54612d8b565b600a545b600c556000600b55565b60006109588261ffff60d01b613699565b600061063d8284613699565b600060f08083179060ff82161415612dce57603091505061095b565b8060ff1660f11415612de457603191505061095b565b8060ff1660f21415612dfa57603291505061095b565b8060ff1660f31415612e1057603391505061095b565b8060ff1660f41415612e2657603491505061095b565b8060ff1660f51415612e3c57603591505061095b565b8060ff1660f61415612e5257603691505061095b565b8060ff1660f71415612e6857603791505061095b565b8060ff1660f81415612e7e57603891505061095b565b8060ff1660f91415612e9457603991505061095b565b8060ff1660fa1415612eaa57606191505061095b565b8060ff1660fb1415612ec057606291505061095b565b8060ff1660fc1415612ed657606391505061095b565b8060ff1660fd1415612eec57606491505061095b565b8060ff1660fe1415612f0257606591505061095b565b8060ff1660ff1415612f1857606691505061095b565b50919050565b6000612f338260181c6001600160601b031690565b612f468360781c6001600160601b031690565b612f50919061366e565b6001600160601b031692915050565b6000805b600083815260136020526040902054811015612fd9576000838152601360205260409020805482908110612fa757634e487b7160e01b600052603260045260246000fd5b906000526020600020906005020160000154841415612fc7579050610640565b80612fd1816138b0565b915050612f63565b5060009392505050565b60015b60008281526013602052604090205481101561307757600082815260136020526040902080548290811061302a57634e487b7160e01b600052603260045260246000fd5b6000918252602082206005909102018181556001808201839055600282018390556003820180546001600160a01b03191690556004909101919091556130709082613656565b9050612fe6565b5050565b6000806000606460075460016130919190613656565b3a60085461309f91906137e7565b6130a991906137e7565b6130b39190613699565b600d549091506000906001600160a01b03161561314c57600d546040516370a0823160e01b81523060048201526001600160a01b03909116906370a082319060240160206040518083038186803b15801561310d57600080fd5b505afa158015613121573d6000803e3d6000fd5b505050506040513d601f19601f820116820180604052508101906131459190613501565b9050613150565b5060005b6000816006541115801561316657506000600654115b156131f757600d5460065460405163a9059cbb60e01b81526001600160a01b038981166004830152602482019290925291169063a9059cbb90604401602060405180830381600087803b1580156131bc57600080fd5b505af11580156131d0573d6000803e3d6000fd5b505050506040513d601f19601f820116820180604052508101906131f49190613325565b90505b600083471180156132085750600084115b15613261576040516001600160a01b038816908590600081818185875af1925050503d8060008114613256576040519150601f19603f3d011682016040523d82523d6000602084013e61325b565b606091505b50909150505b801561328e57811561327e578360065495509550505050506132b2565b83600095509550505050506132b2565b81156132a657600060065495509550505050506132b2565b60008095509550505050505b915091565b60008083601f8401126132c8578182fd5b50813567ffffffffffffffff8111156132df578182fd5b6020830191508360208285010111156132f757600080fd5b9250929050565b60006020828403121561330f578081fd5b81356001600160a01b038116811461063d578182fd5b600060208284031215613336578081fd5b8151801515811461063d578182fd5b600060208284031215613356578081fd5b5035919050565b600080600060608486031215613371578182fd5b505081359360208301359350604090920135919050565b6000806040838503121561339a578182fd5b50508035926020909101359150565b6000806000806000608086880312156133c0578081fd5b8535945060208601359350604086013567ffffffffffffffff8111156133e4578182fd5b6133f0888289016132b7565b96999598509660600135949350505050565b60008060008060408587031215613417578384fd5b843567ffffffffffffffff8082111561342e578586fd5b61343a888389016132b7565b90965094506020870135915080821115613452578384fd5b5061345f878288016132b7565b95989497509550505050565b60008060008060008060608789031215613483578081fd5b863567ffffffffffffffff8082111561349a578283fd5b6134a68a838b016132b7565b909850965060208901359150808211156134be578283fd5b6134ca8a838b016132b7565b909650945060408901359150808211156134e2578283fd5b506134ef89828a016132b7565b979a9699509497509295939492505050565b600060208284031215613512578081fd5b5051919050565b6000835161352b818460208801613869565b6001600160f81b0319939093169190920190815260010192915050565b6000602082528251806020840152613567816040850160208701613869565b601f01601f19169190910160400192915050565b60208082526025908201527f426974636f696e52656c61793a20626c6f636b2068656164657220697320746f6040820152641bc81bdb1960da1b606082015260800190565b60208082526010908201526f14185d5cd8589b194e881c185d5cd95960821b604082015260600190565b6020808252818101527f4f776e61626c653a2063616c6c6572206973206e6f7420746865206f776e6572604082015260600190565b6020808252601f908201527f5265656e7472616e637947756172643a207265656e7472616e742063616c6c00604082015260600190565b6000821982111561366957613669613905565b500190565b60006001600160601b0380831681851680830382111561369057613690613905565b01949350505050565b6000826136a8576136a861391b565b500490565b60006001600160601b03808416806136c7576136c761391b565b92169190910492915050565b80825b60018086116136e55750613710565b8187048211156136f7576136f7613905565b8086161561370457918102915b9490941c9380026136d6565b94509492505050565b600061063d600019848460008261373257506001610ee3565b8161373f57506000610ee3565b8160018114613755576002811461375f5761378c565b6001915050610ee3565b60ff84111561377057613770613905565b6001841b91508482111561378657613786613905565b50610ee3565b5060208310610133831016604e8410600b84101617156137bf575081810a838111156137ba576137ba613905565b610ee3565b6137cc84848460016136d3565b8086048211156137de576137de613905565b02949350505050565b600081600019048311821515161561380157613801613905565b500290565b600060ff821660ff84168160ff048111821515161561382757613827613905565b029392505050565b60008282101561384157613841613905565b500390565b600060ff821660ff84168082101561386057613860613905565b90039392505050565b60005b8381101561388457818101518382015260200161386c565b83811115613893576000848401525b50505050565b6000816138a8576138a8613905565b506000190190565b60006000198214156138c4576138c4613905565b5060010190565b6000826138da576138da61391b565b500690565b60006001600160601b03808416806138f9576138f961391b565b92169190910692915050565b634e487b7160e01b600052601160045260246000fd5b634e487b7160e01b600052601260045260246000fdfea26469706673582212209f5c5e0c290eb2120557e5297a4462845770862cb64d3836e710f24953c3e4f464736f6c63430008020033",
  "devdoc": {
    "kind": "dev",
    "methods": {
      "addHeaders(bytes,bytes)": {
        "details": "We check integrity and consistency of the header chain",
        "params": {
          "_anchor": "The header immediately preceeding the new chain",
          "_headers": "A tightly-packed list of 80-byte Bitcoin headers"
        },
        "returns": {
          "_0": "True if successfully written, error otherwise"
        }
      },
      "addHeadersWithRetarget(bytes,bytes,bytes)": {
        "details": "Checks the retarget, the heights, and the linkage",
        "params": {
          "_headers": "A tightly-packed list of 80-byte Bitcoin headers",
          "_oldPeriodEndHeader": "The last header in the difficulty period being closed (anchor of new headers)",
          "_oldPeriodStartHeader": "The first header in the difficulty period being closed"
        },
        "returns": {
          "_0": "True if successfully written, error otherwise"
        }
      },
      "availableTDT()": {
        "returns": {
          "_0": "Amount of TDT available in Relay treasury"
        }
      },
      "availableTNT()": {
        "returns": {
          "_0": "Amount of target blockchain native token available in Relay treasury"
        }
      },
      "checkTxProof(bytes32,uint256,bytes,uint256)": {
        "details": "Checks if the block is finalized, and Merkle proof is correct",
        "params": {
          "_blockHeight": "Block height of the desired tx",
          "_index": "Part of the Merkle proof for the desired tx",
          "_intermediateNodes": "Part of the Merkle proof for the desired tx",
          "_txid": "Desired transaction's tx Id"
        },
        "returns": {
          "_0": "True if the provided tx is confirmed on the source blockchain, False otherwise"
        }
      },
      "constructor": {
        "params": {
          "_genesisHeader": "The starting header",
          "_height": "The starting height",
          "_periodStart": "The hash of the first header in the genesis epoch"
        }
      },
      "findAncestor(bytes32,uint256)": {
        "details": "Will fail if the header is unknown",
        "params": {
          "_hash": "The header hash to search for"
        },
        "returns": {
          "_0": "The height of the header, or error if unknown"
        }
      },
      "findHeight(bytes32)": {
        "details": "Will fail if the header is unknown",
        "params": {
          "_hash": "The header hash to search for"
        },
        "returns": {
          "_0": "The height of the header, or error if unknown"
        }
      },
      "getBlockHeaderFee(uint256,uint256)": {
        "params": {
          "_height": "The height of the desired block header",
          "_index": "The index of the desired block header in that height"
        },
        "returns": {
          "_0": "Block header's fee price for a query"
        }
      },
      "getBlockHeaderHash(uint256,uint256)": {
        "params": {
          "_height": "The height of the desired block header",
          "_index": "The index of the desired block header in that height"
        },
        "returns": {
          "_0": "Block header's hash"
        }
      },
      "getCurrentEpochDifficulty()": {
        "details": "This is updated when a new heavist header has a new diff",
        "returns": {
          "_0": "The difficulty of the bestKnownDigest"
        }
      },
      "getNumberOfSubmittedHeaders(uint256)": {
        "details": "This shows the number of temporary forks in that specific height",
        "params": {
          "_height": "The desired height of the blockchain"
        },
        "returns": {
          "_0": "Number of block headers stored in the same height"
        }
      },
      "getPrevEpochDifficulty()": {
        "details": "This is updated when a difficulty change is accepted",
        "returns": {
          "_0": "The difficulty of the previous epoch"
        }
      },
      "isAncestor(bytes32,bytes32,uint256)": {
        "details": "Limit the amount of lookups (and thus gas usage) with _limit",
        "params": {
          "_ancestor": "The prospective ancestor",
          "_descendant": "The descendant to check",
          "_limit": "The maximum number of blocks to check"
        },
        "returns": {
          "_0": "true if ancestor is at most limit blocks lower than descendant, otherwise false"
        }
      },
      "owner()": {
        "details": "Returns the address of the current owner."
      },
      "pauseRelay()": {
        "details": "Only functions with whenPaused modifier can be called"
      },
      "paused()": {
        "details": "Returns true if the contract is paused, and false otherwise."
      },
      "renounceOwnership()": {
        "details": "Leaves the contract without owner. It will not be possible to call `onlyOwner` functions anymore. Can only be called by the current owner. NOTE: Renouncing ownership will leave the contract without an owner, thereby removing any functionality that is only available to the owner."
      },
      "setBaseQueries(uint256)": {
        "params": {
          "_baseQueries": "The base amount of queries we assume in each epoch                                     (This is for preventing user fees to grow significantly)"
        }
      },
      "setEpochLength(uint256)": {
        "params": {
          "_epochLength": "The length of epochs for estimating the user queries hence their fees"
        }
      },
      "setFinalizationParameter(uint256)": {
        "details": "This might change if finalization rule of the source chain gets updated",
        "params": {
          "_finalizationParameter": "The finalization parameter of the source chain"
        }
      },
      "setRelayerPercentageFee(uint256)": {
        "details": "This is updated when we want to change the Relayer reward",
        "params": {
          "_relayerPercentageFee": "Ratio > 1 that determines percentage of reward to the Relayer"
        }
      },
      "setRewardAmountInTDT(uint256)": {
        "details": "This award is for the relayer who has a finalized block header",
        "params": {
          "_rewardAmountInTDT": "The reward amount in TDT"
        }
      },
      "setSubmissionGasUsed(uint256)": {
        "details": "This is updated when the smart contract changes the way of getting block headers",
        "params": {
          "_submissionGasUsed": "The gas used for submitting one block header"
        }
      },
      "transferOwnership(address)": {
        "details": "Transfers ownership of the contract to a new account (`newOwner`). Can only be called by the current owner."
      },
      "unPauseRelay()": {
        "details": "Only functions with whenNotPaused modifier can be called"
      }
    },
    "version": 1
  },
  "userdoc": {
    "events": {
      "BlockAdded(uint256,bytes32,bytes32,address)": {
        "notice": "Emits when a block header is added"
      },
      "BlockFinalized(uint256,bytes32,bytes32,address,uint256,uint256)": {
        "notice": "Emits when a block header gets finalized"
      }
    },
    "kind": "user",
    "methods": {
      "addHeaders(bytes,bytes)": {
        "notice": "Adds headers to storage after validating"
      },
      "addHeadersWithRetarget(bytes,bytes,bytes)": {
        "notice": "Adds headers to storage, performs additional validation of retarget"
      },
      "availableTDT()": {
        "notice": "Getter for available TDT in treasury"
      },
      "availableTNT()": {
        "notice": "Getter for available target native token in treasury"
      },
      "checkTxProof(bytes32,uint256,bytes,uint256)": {
        "notice": "Checks if a tx is included and finalized on the source blockchain"
      },
      "constructor": {
        "notice": "Gives a starting point for the relay"
      },
      "findAncestor(bytes32,uint256)": {
        "notice": "Finds an ancestor for a block by its hash"
      },
      "findHeight(bytes32)": {
        "notice": "Finds the height of a header by its hash"
      },
      "getBlockHeaderFee(uint256,uint256)": {
        "notice": "Getter for an specific block header's fee price for a query"
      },
      "getBlockHeaderHash(uint256,uint256)": {
        "notice": "Getter for an specific block header's hash in the stored chain"
      },
      "getCurrentEpochDifficulty()": {
        "notice": "Getter for currentEpochDiff"
      },
      "getNumberOfSubmittedHeaders(uint256)": {
        "notice": "Getter for the number of block headers in the same height"
      },
      "getPrevEpochDifficulty()": {
        "notice": "Getter for prevEpochDiff"
      },
      "isAncestor(bytes32,bytes32,uint256)": {
        "notice": "Checks if a hash is an ancestor of the current one"
      },
      "pauseRelay()": {
        "notice": "Pause the relay"
      },
      "setBaseQueries(uint256)": {
        "notice": "Setter for baseQueries"
      },
      "setEpochLength(uint256)": {
        "notice": "Setter for epochLength"
      },
      "setFinalizationParameter(uint256)": {
        "notice": "Setter for finalizationParameter"
      },
      "setRelayerPercentageFee(uint256)": {
        "notice": "Setter for relayerPercentageFee"
      },
      "setRewardAmountInTDT(uint256)": {
        "notice": "Setter for rewardAmountInTDT"
      },
      "setSubmissionGasUsed(uint256)": {
        "notice": "Setter for submissionGasUsed"
      },
      "unPauseRelay()": {
        "notice": "Unpause the relay"
      }
    },
    "version": 1
  },
  "storageLayout": {
    "storage": [
      {
        "astId": 807,
        "contract": "contracts/relay/BitcoinRelay.sol:BitcoinRelay",
        "label": "_owner",
        "offset": 0,
        "slot": "0",
        "type": "t_address"
      },
      {
        "astId": 1006,
        "contract": "contracts/relay/BitcoinRelay.sol:BitcoinRelay",
        "label": "_status",
        "offset": 0,
        "slot": "1",
        "type": "t_uint256"
      },
      {
        "astId": 921,
        "contract": "contracts/relay/BitcoinRelay.sol:BitcoinRelay",
        "label": "_paused",
        "offset": 0,
        "slot": "2",
        "type": "t_bool"
      },
      {
        "astId": 11969,
        "contract": "contracts/relay/BitcoinRelay.sol:BitcoinRelay",
        "label": "initialHeight",
        "offset": 0,
        "slot": "3",
        "type": "t_uint256"
      },
      {
        "astId": 11972,
        "contract": "contracts/relay/BitcoinRelay.sol:BitcoinRelay",
        "label": "lastSubmittedHeight",
        "offset": 0,
        "slot": "4",
        "type": "t_uint256"
      },
      {
        "astId": 11975,
        "contract": "contracts/relay/BitcoinRelay.sol:BitcoinRelay",
        "label": "finalizationParameter",
        "offset": 0,
        "slot": "5",
        "type": "t_uint256"
      },
      {
        "astId": 11978,
        "contract": "contracts/relay/BitcoinRelay.sol:BitcoinRelay",
        "label": "rewardAmountInTDT",
        "offset": 0,
        "slot": "6",
        "type": "t_uint256"
      },
      {
        "astId": 11981,
        "contract": "contracts/relay/BitcoinRelay.sol:BitcoinRelay",
        "label": "relayerPercentageFee",
        "offset": 0,
        "slot": "7",
        "type": "t_uint256"
      },
      {
        "astId": 11984,
        "contract": "contracts/relay/BitcoinRelay.sol:BitcoinRelay",
        "label": "submissionGasUsed",
        "offset": 0,
        "slot": "8",
        "type": "t_uint256"
      },
      {
        "astId": 11987,
        "contract": "contracts/relay/BitcoinRelay.sol:BitcoinRelay",
        "label": "epochLength",
        "offset": 0,
        "slot": "9",
        "type": "t_uint256"
      },
      {
        "astId": 11990,
        "contract": "contracts/relay/BitcoinRelay.sol:BitcoinRelay",
        "label": "baseQueries",
        "offset": 0,
        "slot": "10",
        "type": "t_uint256"
      },
      {
        "astId": 11993,
        "contract": "contracts/relay/BitcoinRelay.sol:BitcoinRelay",
        "label": "currentEpochQueries",
        "offset": 0,
        "slot": "11",
        "type": "t_uint256"
      },
      {
        "astId": 11996,
        "contract": "contracts/relay/BitcoinRelay.sol:BitcoinRelay",
        "label": "lastEpochQueries",
        "offset": 0,
        "slot": "12",
        "type": "t_uint256"
      },
      {
        "astId": 11999,
        "contract": "contracts/relay/BitcoinRelay.sol:BitcoinRelay",
        "label": "TeleportDAOToken",
        "offset": 0,
        "slot": "13",
        "type": "t_address"
      },
      {
        "astId": 12002,
        "contract": "contracts/relay/BitcoinRelay.sol:BitcoinRelay",
        "label": "relayGenesisHash",
        "offset": 0,
        "slot": "14",
        "type": "t_bytes32"
      },
      {
        "astId": 12006,
        "contract": "contracts/relay/BitcoinRelay.sol:BitcoinRelay",
        "label": "previousBlock",
        "offset": 0,
        "slot": "15",
        "type": "t_mapping(t_bytes32,t_bytes32)"
      },
      {
        "astId": 12010,
        "contract": "contracts/relay/BitcoinRelay.sol:BitcoinRelay",
        "label": "blockHeight",
        "offset": 0,
        "slot": "16",
        "type": "t_mapping(t_bytes32,t_uint256)"
      },
      {
        "astId": 12012,
        "contract": "contracts/relay/BitcoinRelay.sol:BitcoinRelay",
        "label": "currentEpochDiff",
        "offset": 0,
        "slot": "17",
        "type": "t_uint256"
      },
      {
        "astId": 12014,
        "contract": "contracts/relay/BitcoinRelay.sol:BitcoinRelay",
        "label": "prevEpochDiff",
        "offset": 0,
        "slot": "18",
        "type": "t_uint256"
      },
      {
        "astId": 12020,
        "contract": "contracts/relay/BitcoinRelay.sol:BitcoinRelay",
        "label": "chain",
        "offset": 0,
        "slot": "19",
        "type": "t_mapping(t_uint256,t_array(t_struct(blockHeader)13606_storage)dyn_storage)"
      }
    ],
    "types": {
      "t_address": {
        "encoding": "inplace",
        "label": "address",
        "numberOfBytes": "20"
      },
      "t_array(t_struct(blockHeader)13606_storage)dyn_storage": {
        "base": "t_struct(blockHeader)13606_storage",
        "encoding": "dynamic_array",
        "label": "struct IBitcoinRelay.blockHeader[]",
        "numberOfBytes": "32"
      },
      "t_bool": {
        "encoding": "inplace",
        "label": "bool",
        "numberOfBytes": "1"
      },
      "t_bytes32": {
        "encoding": "inplace",
        "label": "bytes32",
        "numberOfBytes": "32"
      },
      "t_mapping(t_bytes32,t_bytes32)": {
        "encoding": "mapping",
        "key": "t_bytes32",
        "label": "mapping(bytes32 => bytes32)",
        "numberOfBytes": "32",
        "value": "t_bytes32"
      },
      "t_mapping(t_bytes32,t_uint256)": {
        "encoding": "mapping",
        "key": "t_bytes32",
        "label": "mapping(bytes32 => uint256)",
        "numberOfBytes": "32",
        "value": "t_uint256"
      },
      "t_mapping(t_uint256,t_array(t_struct(blockHeader)13606_storage)dyn_storage)": {
        "encoding": "mapping",
        "key": "t_uint256",
        "label": "mapping(uint256 => struct IBitcoinRelay.blockHeader[])",
        "numberOfBytes": "32",
        "value": "t_array(t_struct(blockHeader)13606_storage)dyn_storage"
      },
      "t_struct(blockHeader)13606_storage": {
        "encoding": "inplace",
        "label": "struct IBitcoinRelay.blockHeader",
        "members": [
          {
            "astId": 13597,
            "contract": "contracts/relay/BitcoinRelay.sol:BitcoinRelay",
            "label": "selfHash",
            "offset": 0,
            "slot": "0",
            "type": "t_bytes32"
          },
          {
            "astId": 13599,
            "contract": "contracts/relay/BitcoinRelay.sol:BitcoinRelay",
            "label": "parentHash",
            "offset": 0,
            "slot": "1",
            "type": "t_bytes32"
          },
          {
            "astId": 13601,
            "contract": "contracts/relay/BitcoinRelay.sol:BitcoinRelay",
            "label": "merkleRoot",
            "offset": 0,
            "slot": "2",
            "type": "t_bytes32"
          },
          {
            "astId": 13603,
            "contract": "contracts/relay/BitcoinRelay.sol:BitcoinRelay",
            "label": "relayer",
            "offset": 0,
            "slot": "3",
            "type": "t_address"
          },
          {
            "astId": 13605,
            "contract": "contracts/relay/BitcoinRelay.sol:BitcoinRelay",
            "label": "gasPrice",
            "offset": 0,
            "slot": "4",
            "type": "t_uint256"
          }
        ],
        "numberOfBytes": "160"
      },
      "t_uint256": {
        "encoding": "inplace",
        "label": "uint256",
        "numberOfBytes": "32"
      }
    }
  }
}