{
  "address": "0xD57a0FF38FE9b8803904D0F79f44792bd79524C6",
  "abi": [
    {
      "inputs": [
        {
          "internalType": "address",
          "name": "_TeleportDAOToken",
          "type": "address"
        },
        {
          "internalType": "address",
          "name": "exchangeRouter",
          "type": "address"
        },
        {
          "internalType": "uint256",
          "name": "_unlockFee",
          "type": "uint256"
        },
        {
          "internalType": "uint256",
          "name": "_unlockPeriod",
          "type": "uint256"
        },
        {
          "internalType": "uint256",
          "name": "_requiredLockedAmount",
          "type": "uint256"
        }
      ],
      "stateMutability": "nonpayable",
      "type": "constructor"
    },
    {
      "anonymous": false,
      "inputs": [
        {
          "indexed": false,
          "internalType": "bytes",
          "name": "teleporterBitcoinPubKey",
          "type": "bytes"
        },
        {
          "indexed": false,
          "internalType": "address",
          "name": "teleporterAddress",
          "type": "address"
        },
        {
          "indexed": false,
          "internalType": "uint256",
          "name": "lockedAmount",
          "type": "uint256"
        },
        {
          "indexed": false,
          "internalType": "uint256",
          "name": "addedtime",
          "type": "uint256"
        }
      ],
      "name": "AddTeleporter",
      "type": "event"
    },
    {
      "anonymous": false,
      "inputs": [
        {
          "indexed": false,
          "internalType": "bytes",
          "name": "teleporterBitcoinPubKey",
          "type": "bytes"
        },
        {
          "indexed": false,
          "internalType": "address",
          "name": "teleporterAddress",
          "type": "address"
        },
        {
          "indexed": false,
          "internalType": "uint256",
          "name": "unlockedAmount",
          "type": "uint256"
        }
      ],
      "name": "RemoveTeleporter",
      "type": "event"
    },
    {
      "inputs": [],
      "name": "TeleportDAOToken",
      "outputs": [
        {
          "internalType": "address",
          "name": "",
          "type": "address"
        }
      ],
      "stateMutability": "view",
      "type": "function"
    },
    {
      "inputs": [
        {
          "internalType": "bytes",
          "name": "_teleporterBitcoinPubKey",
          "type": "bytes"
        }
      ],
      "name": "addTeleporter",
      "outputs": [
        {
          "internalType": "bool",
          "name": "",
          "type": "bool"
        }
      ],
      "stateMutability": "nonpayable",
      "type": "function"
    },
    {
      "inputs": [],
      "name": "ccBurnRouter",
      "outputs": [
        {
          "internalType": "address",
          "name": "",
          "type": "address"
        }
      ],
      "stateMutability": "view",
      "type": "function"
    },
    {
      "inputs": [
        {
          "internalType": "address",
          "name": "_owner",
          "type": "address"
        }
      ],
      "name": "changeOwner",
      "outputs": [],
      "stateMutability": "nonpayable",
      "type": "function"
    },
    {
      "inputs": [],
      "name": "exchangeRouter",
      "outputs": [
        {
          "internalType": "address",
          "name": "",
          "type": "address"
        }
      ],
      "stateMutability": "view",
      "type": "function"
    },
    {
      "inputs": [
        {
          "internalType": "address",
          "name": "teleporter",
          "type": "address"
        },
        {
          "internalType": "uint256",
          "name": "index",
          "type": "uint256"
        }
      ],
      "name": "isTeleporter",
      "outputs": [
        {
          "internalType": "bool",
          "name": "",
          "type": "bool"
        }
      ],
      "stateMutability": "view",
      "type": "function"
    },
    {
      "inputs": [],
      "name": "lastUnlock",
      "outputs": [
        {
          "internalType": "uint256",
          "name": "",
          "type": "uint256"
        }
      ],
      "stateMutability": "view",
      "type": "function"
    },
    {
      "inputs": [],
      "name": "multisigAddress",
      "outputs": [
        {
          "internalType": "address",
          "name": "",
          "type": "address"
        }
      ],
      "stateMutability": "view",
      "type": "function"
    },
    {
      "inputs": [],
      "name": "multisigAddressBeforeEncoding",
      "outputs": [
        {
          "internalType": "bytes",
          "name": "",
          "type": "bytes"
        }
      ],
      "stateMutability": "view",
      "type": "function"
    },
    {
      "inputs": [],
      "name": "numberOfTeleporters",
      "outputs": [
        {
          "internalType": "uint256",
          "name": "",
          "type": "uint256"
        }
      ],
      "stateMutability": "view",
      "type": "function"
    },
    {
      "inputs": [],
      "name": "owner",
      "outputs": [
        {
          "internalType": "address",
          "name": "",
          "type": "address"
        }
      ],
      "stateMutability": "view",
      "type": "function"
    },
    {
      "inputs": [],
      "name": "redeemScript",
      "outputs": [
        {
          "internalType": "bytes",
          "name": "",
          "type": "bytes"
        }
      ],
      "stateMutability": "view",
      "type": "function"
    },
    {
      "inputs": [],
      "name": "redeemScriptHash",
      "outputs": [
        {
          "internalType": "address",
          "name": "",
          "type": "address"
        }
      ],
      "stateMutability": "view",
      "type": "function"
    },
    {
      "inputs": [
        {
          "internalType": "uint256",
          "name": "teleporterIndex",
          "type": "uint256"
        }
      ],
      "name": "removeTeleporter",
      "outputs": [
        {
          "internalType": "bool",
          "name": "",
          "type": "bool"
        }
      ],
      "stateMutability": "nonpayable",
      "type": "function"
    },
    {
      "inputs": [],
      "name": "requiredLockedAmount",
      "outputs": [
        {
          "internalType": "uint256",
          "name": "",
          "type": "uint256"
        }
      ],
      "stateMutability": "view",
      "type": "function"
    },
    {
      "inputs": [
        {
          "internalType": "address",
          "name": "_ccBurnRouter",
          "type": "address"
        }
      ],
      "name": "setCCBurnRouter",
      "outputs": [],
      "stateMutability": "nonpayable",
      "type": "function"
    },
    {
      "inputs": [
        {
          "internalType": "address",
          "name": "_exchangeRouter",
          "type": "address"
        }
      ],
      "name": "setExchangeRouter",
      "outputs": [],
      "stateMutability": "nonpayable",
      "type": "function"
    },
    {
      "inputs": [
        {
          "internalType": "uint256",
          "name": "_requiredLockedAmount",
          "type": "uint256"
        }
      ],
      "name": "setRequiredLockedAmount",
      "outputs": [],
      "stateMutability": "nonpayable",
      "type": "function"
    },
    {
      "inputs": [
        {
          "internalType": "uint256",
          "name": "_unlockFee",
          "type": "uint256"
        }
      ],
      "name": "setUnlockFee",
      "outputs": [],
      "stateMutability": "nonpayable",
      "type": "function"
    },
    {
      "inputs": [
        {
          "internalType": "uint256",
          "name": "_unlockPeriod",
          "type": "uint256"
        }
      ],
      "name": "setUnlockPeriod",
      "outputs": [],
      "stateMutability": "nonpayable",
      "type": "function"
    },
    {
      "inputs": [
        {
          "internalType": "address",
          "name": "_wrappedBitcoin",
          "type": "address"
        }
      ],
      "name": "setWrappedBitcoin",
      "outputs": [],
      "stateMutability": "nonpayable",
      "type": "function"
    },
    {
      "inputs": [
        {
          "internalType": "uint256",
          "name": "bitcoinAmount",
          "type": "uint256"
        },
        {
          "internalType": "address",
          "name": "recipient",
          "type": "address"
        }
      ],
      "name": "slashTeleporters",
      "outputs": [],
      "stateMutability": "nonpayable",
      "type": "function"
    },
    {
      "inputs": [
        {
          "internalType": "uint256",
          "name": "",
          "type": "uint256"
        }
      ],
      "name": "teleportersList",
      "outputs": [
        {
          "internalType": "bytes",
          "name": "teleporterBitcoinPubKey",
          "type": "bytes"
        },
        {
          "internalType": "address",
          "name": "teleporterAddress",
          "type": "address"
        }
      ],
      "stateMutability": "view",
      "type": "function"
    },
    {
      "inputs": [],
      "name": "unlockFee",
      "outputs": [
        {
          "internalType": "uint256",
          "name": "",
          "type": "uint256"
        }
      ],
      "stateMutability": "view",
      "type": "function"
    },
    {
      "inputs": [],
      "name": "unlockPeriod",
      "outputs": [
        {
          "internalType": "uint256",
          "name": "",
          "type": "uint256"
        }
      ],
      "stateMutability": "view",
      "type": "function"
    },
    {
      "inputs": [],
      "name": "wrappedBitcoin",
      "outputs": [
        {
          "internalType": "address",
          "name": "",
          "type": "address"
        }
      ],
      "stateMutability": "view",
      "type": "function"
    }
  ],
  "transactionHash": "0xfaa8b4073f731ca224c8ffe82bb7f73eef9a31d266d88c361672eaa88ca390c3",
  "args": [
    "0xa608f5B846b3e4B71C589DFAd3862f5E1C074FaA",
    "0x668D83b86A4A599c144B1124455C9bb6b7653fDF",
    0,
    0,
    0
  ],
  "numDeployments": 1,
  "solcInputHash": "b766d894e7507eaf09e41e8de1c94935",
  "bytecode": "0x608060405234801561001057600080fd5b50604051612269380380612269833981810160405260a081101561003357600080fd5b50805160408201516060830151608090930151600180546001600160a01b039094166001600160a01b031994851617905560069190915560079290925560059190915560008054909116331790556121d9806100906000396000f3fe608060405234801561001057600080fd5b506004361061018e5760003560e01c806375a31bb1116100de5780639d14aea611610097578063e2112b4c11610071578063e2112b4c146104b8578063e5b45c03146104c0578063ea7342e91461053d578063ee1f1c70146105455761018e565b80639d14aea61461045e578063a6f9dae11461048a578063b41a7dee146104b05761018e565b806375a31bb11461035d578063838b7ccb14610365578063895dde7b1461038b5780638a91af17146103935780638da5cb5b146103b05780639ad87221146103b85761018e565b8063243bbb1b1161014b5780634c1c2b01116101255780634c1c2b01146103195780635462870d146103455780635615e16f1461034d5780635a8d80b8146103555761018e565b8063243bbb1b146102ae5780633d0ddf84146102df5780634a40ee3d146102fc5761018e565b80630981a666146101935780630ea8988a146101bb578063108f438d146102605780631cb85818146102845780631d3a94d71461028c57806320d3a0b4146102a6575b600080fd5b6101b9600480360360208110156101a957600080fd5b50356001600160a01b031661056b565b005b6101d8600480360360208110156101d157600080fd5b50356105a4565b6040518080602001836001600160a01b03168152602001828103825284818151815260200191508051906020019080838360005b8381101561022457818101518382015260200161020c565b50505050905090810190601f1680156102515780820380516001836020036101000a031916815260200191505b50935050505060405180910390f35b610268610663565b604080516001600160a01b039092168252519081900360200190f35b610268610672565b610294610681565b60408051918252519081900360200190f35b610294610687565b6102cb600480360360208110156102c457600080fd5b503561068d565b604080519115158252519081900360200190f35b6101b9600480360360208110156102f557600080fd5b5035610b4f565b6101b96004803603602081101561031257600080fd5b5035610b6b565b6102cb6004803603604081101561032f57600080fd5b506001600160a01b038135169060200135610b87565b610268610bd5565b610268610be4565b610268610bf3565b610268610c02565b6101b96004803603602081101561037b57600080fd5b50356001600160a01b0316610c11565b610294610c4a565b6101b9600480360360208110156103a957600080fd5b5035610c50565b610268610c6c565b6102cb600480360360208110156103ce57600080fd5b8101906020810181356401000000008111156103e957600080fd5b8201836020820111156103fb57600080fd5b8035906020019184600183028401116401000000008311171561041d57600080fd5b91908080601f016020809104026020016040519081016040528093929190818152602001838380828437600092019190915250929550610c7b945050505050565b6101b96004803603604081101561047457600080fd5b50803590602001356001600160a01b0316610f54565b6101b9600480360360208110156104a057600080fd5b50356001600160a01b03166113c8565b610294611401565b610294611407565b6104c861140d565b6040805160208082528351818301528351919283929083019185019080838360005b838110156105025781810151838201526020016104ea565b50505050905090810190601f16801561052f5780820380516001836020036101000a031916815260200191505b509250505060405180910390f35b6104c861149b565b6101b96004803603602081101561055b57600080fd5b50356001600160a01b03166114f6565b6000546001600160a01b0316331461058257600080fd5b600280546001600160a01b0319166001600160a01b0392909216919091179055565b600981815481106105b457600080fd5b60009182526020918290206002918202018054604080516001831615610100026000190190921693909304601f81018590048502820185019093528281529093509183919083018282801561064a5780601f1061061f5761010080835404028352916020019161064a565b820191906000526020600020905b81548152906001019060200180831161062d57829003601f168201915b505050600190930154919250506001600160a01b031682565b6001546001600160a01b031681565b6004546001600160a01b031681565b60055481565b60075481565b6000336001600160a01b0316600983815481106106a657fe5b60009182526020909120600160029092020101546001600160a01b0316146106ff5760405162461bcd60e51b81526004018080602001828103825260288152602001806121426028913960400191505060405180910390fd5b6008546007544301101561075a576040805162461bcd60e51b815260206004820152601760248201527f746f6f20736f6f6e20666f72206e657720756e6c6f636b000000000000000000604482015290519081900360640190fd5b81600a54116107b0576040805162461bcd60e51b815260206004820152601e60248201527f74686520676976656e20696e64657820646f6573206e6f742065786973740000604482015290519081900360640190fd5b6000600983815481106107bf57fe5b60009182526020918290206002918202018054604080516001831615610100026000190190921693909304601f8101859004850282018501909352828152929091908301828280156108525780601f1061082757610100808354040283529160200191610852565b820191906000526020600020905b81548152906001019060200180831161083557829003601f168201915b505050505090506009838154811061086657fe5b600091825260208220600290910201906108808282611f9d565b5060010180546001600160a01b0319169055600a54600980549091600019019081106108a857fe5b9060005260206000209060020201600984815481106108c357fe5b6000918252602090912082546002928302909101916108f49183918591600019610100600183161502011604611fe4565b50600191820154910180546001600160a01b0319166001600160a01b0390921691909117905560098054600019810190811061092c57fe5b600091825260208220600290910201906109468282611f9d565b5060010180546001600160a01b0319169055600a805460001901905561096a61152f565b6109a55760405162461bcd60e51b81526004018080602001828103825260218152602001806121216021913960400191505060405180910390fd5b6109ad61184f565b6109e85760405162461bcd60e51b81526004018080602001828103825260218152602001806121216021913960400191505060405180910390fd5b6001546006546005546001600160a01b039092169163a9059cbb913391606491820302046040518363ffffffff1660e01b815260040180836001600160a01b0316815260200182815260200192505050602060405180830381600087803b158015610a5257600080fd5b505af1158015610a66573d6000803e3d6000fd5b505050506040513d6020811015610a7c57600080fd5b5050436008556006546005547f5b13dc1af32b1c240c9f033fa7c47bf77cb45e78191fe7b573bcd6dc7c879af4918391339160649190820302046040518080602001846001600160a01b03168152602001838152602001828103825285818151815260200191508051906020019080838360005b83811015610b08578181015183820152602001610af0565b50505050905090810190601f168015610b355780820380516001836020036101000a031916815260200191505b5094505050505060405180910390a160019150505b919050565b6000546001600160a01b03163314610b6657600080fd5b600755565b6000546001600160a01b03163314610b8257600080fd5b600555565b6000826001600160a01b031660098381548110610ba057fe5b60009182526020909120600160029092020101546001600160a01b03161415610bcb57506001610bcf565b5060005b92915050565b600d546001600160a01b031681565b6002546001600160a01b031681565b6003546001600160a01b031681565b600c546001600160a01b031681565b6000546001600160a01b03163314610c2857600080fd5b600480546001600160a01b0319166001600160a01b0392909216919091179055565b60065481565b6000546001600160a01b03163314610c6757600080fd5b600655565b6000546001600160a01b031681565b600154600554604080516323b872dd60e01b81523360048201523060248201526044810192909252516000926001600160a01b0316916323b872dd91606480830192602092919082900301818787803b158015610cd757600080fd5b505af1158015610ceb573d6000803e3d6000fd5b505050506040513d6020811015610d0157600080fd5b50610d0c9050612077565b828152336020820152600a546009541415610d9b57600980546001810182556000919091528151805183926002027f6e1540171b6c0c960b71a7020d9f60077f6af931a8bbf590da0223dacf75c7af0191610d6c9183916020019061208f565b5060209190910151600190910180546001600160a01b0319166001600160a01b03909216919091179055610e00565b806009600a5481548110610dab57fe5b90600052602060002090600202016000820151816000019080519060200190610dd592919061208f565b5060209190910151600190910180546001600160a01b0319166001600160a01b039092169190911790555b600a80546001019055610e1161152f565b610e4c5760405162461bcd60e51b81526004018080602001828103825260218152602001806121216021913960400191505060405180910390fd5b610e5461184f565b610e8f5760405162461bcd60e51b81526004018080602001828103825260218152602001806121216021913960400191505060405180910390fd5b7f81a2737a296318b2e688ce5fca79a6f904b4a1d39df64deb1b4ea0df18188c5a8333600554426040518080602001856001600160a01b03168152602001848152602001838152602001828103825286818151815260200191508051906020019080838360005b83811015610f0e578181015183820152602001610ef6565b50505050905090810190601f168015610f3b5780820380516001836020036101000a031916815260200191505b509550505050505060405180910390a150600192915050565b6003546001600160a01b03163314610fb3576040805162461bcd60e51b815260206004820152601d60248201527f6d6573736167652073656e646572206973206e6f7420636f7272656374000000604482015290519081900360640190fd5b604080516002808252606082018352600092602083019080368337505060015482519293506001600160a01b031691839150600090610fee57fe5b6001600160a01b03928316602091820292909201015260025482519116908290600190811061101957fe5b6001600160a01b0392831660209182029290920181019190915260048054604080516307c0329d60e21b8152928301888152602484019182528651604485015286516000969390931694631f00ca74948a9489949260649092019185810191028083838c5b8381101561109657818101518382015260200161107e565b505050509050019350505050600060405180830381600087803b1580156110bc57600080fd5b505af11580156110d0573d6000803e3d6000fd5b505050506040513d6000823e601f3d908101601f1916820160405260208110156110f957600080fd5b810190808051604051939291908464010000000082111561111957600080fd5b90830190602082018581111561112e57600080fd5b825186602082028301116401000000008211171561114b57600080fd5b82525081516020918201928201910280838360005b83811015611178578181015183820152602001611160565b5050505091909101604052505060015460045484519495506001600160a01b039182169463095ea7b394509116915084906000906111b257fe5b60200260200101516040518363ffffffff1660e01b815260040180836001600160a01b0316815260200182815260200192505050602060405180830381600087803b15801561120057600080fd5b505af1158015611214573d6000803e3d6000fd5b505050506040513d602081101561122a57600080fd5b5050600454815160014301916001600160a01b031690638803dbee908790859060009061125357fe5b60200260200101518688866040518663ffffffff1660e01b81526004018086815260200185815260200180602001846001600160a01b03168152602001838152602001828103825285818151815260200191508051906020019060200280838360005b838110156112ce5781810151838201526020016112b6565b505050509050019650505050505050600060405180830381600087803b1580156112f757600080fd5b505af115801561130b573d6000803e3d6000fd5b505050506040513d6000823e601f3d908101601f19168201604052602081101561133457600080fd5b810190808051604051939291908464010000000082111561135457600080fd5b90830190602082018581111561136957600080fd5b825186602082028301116401000000008211171561138657600080fd5b82525081516020918201928201910280838360005b838110156113b357818101518382015260200161139b565b50505050905001604052505050505050505050565b6000546001600160a01b031633146113df57600080fd5b600080546001600160a01b0319166001600160a01b0392909216919091179055565b60085481565b600a5481565b600e805460408051602060026001851615610100026000190190941693909304601f810184900484028201840190925281815292918301828280156114935780601f1061146857610100808354040283529160200191611493565b820191906000526020600020905b81548152906001019060200180831161147657829003601f168201915b505050505081565b600b805460408051602060026001851615610100026000190190941693909304601f810184900484028201840190925281815292918301828280156114935780601f1061146857610100808354040283529160200191611493565b6000546001600160a01b0316331461150d57600080fd5b600380546001600160a01b0319166001600160a01b0392909216919091179055565b600a54600090602160f81b90605760f91b9083906001141561155357506001611566565b6003600a546002028161156257fe5b0490505b6000611573600a54611b5b565b9050600061158083611b5b565b90508060405160200180826001600160f81b0319168152600101915050604051602081830303815290604052600b90805190602001906115c192919061208f565b5060005b600a548110156116eb57600b86600983815481106115df57fe5b9060005260206000209060020201600001604051602001808480546001816001161561010002031660029004801561164e5780601f1061162c57610100808354040283529182019161164e565b820191906000526020600020905b81548152906001019060200180831161163a575b5050836001600160f81b0319168152600101828054600181600116156101000203166002900480156116b75780601f106116955761010080835404028352918201916116b7565b820191906000526020600020905b8154815290600101906020018083116116a3575b50509350505050604051602081830303815290604052600b90805190602001906116e292919061208f565b506001016115c5565b50600b8285604051602001808480546001816001161561010002031660029004801561174e5780601f1061172c57610100808354040283529182019161174e565b820191906000526020600020905b81548152906001019060200180831161173a575b50506001600160f81b0319938416815291909216600182015260408051601d198184030181526002909201905280516117919350600b925060209091019061208f565b50600b8054604080516020601f60026000196101006001881615020190951694909404938401819004810282018101909252828152611829939092909183018282801561181f5780601f106117f45761010080835404028352916020019161181f565b820191906000526020600020905b81548152906001019060200180831161180257829003601f168201915b5050505050611c9d565b600c80546001600160a01b03191660609290921c91909117905550600194505050505090565b600c5460408051603160fa1b60208083018290526bffffffffffffffffffffffff19606095861b16602184015283516015818503018152603590930193849052825160009593948493849384938993849260029283928c92909182918401908083835b602083106118d15780518252601f1990920191602091820191016118b2565b51815160209384036101000a60001901801990921691161790526040519190930194509192505080830381855afa158015611910573d6000803e3d6000fd5b5050506040513d602081101561192557600080fd5b50516040805160208181019390935281518082038401815290820191829052805190928291908401908083835b602083106119715780518252601f199092019160209182019101611952565b51815160209384036101000a60001901801990921691161790526040519190930194509192505080830381855afa1580156119b0573d6000803e3d6000fd5b5050506040513d60208110156119c557600080fd5b505190508060001a60f81b8160011a60f81b8260021a60f81b8360031a60f81b60405160200180856001600160f81b0319168152600101846001600160f81b0319168152600101836001600160f81b0319168152600101826001600160f81b0319168152600101945050505050604051602081830303815290604052965087876040516020018083805190602001908083835b60208310611a775780518252601f199092019160209182019101611a58565b51815160209384036101000a600019018019909216911617905285519190930192850191508083835b60208310611abf5780518252601f199092019160209182019101611aa0565b6001836020036101000a03801982511681845116808217855250505050505090500192505050604051602081830303815290604052955085600e9080519060200190611b0c92919061208f565b50611b1e611b1987611dca565b611e0b565b9450611b2985611edf565b60140151600d80546001600160a01b0319166001600160a01b0390921691909117905550600198975050505050505050565b60008160011415611b715750605160f81b610b4a565b8160021415611b855750602960f91b610b4a565b8160031415611b995750605360f81b610b4a565b8160041415611bad5750601560fa1b610b4a565b8160051415611bc15750605560f81b610b4a565b8160061415611bd55750602b60f91b610b4a565b8160071415611be95750605760f81b610b4a565b8160081415611bfd5750600b60fb1b610b4a565b8160091415611c115750605960f81b610b4a565b81600a1415611c255750602d60f91b610b4a565b81600b1415611c395750605b60f81b610b4a565b81600c1415611c4d5750601760fa1b610b4a565b81600d1415611c615750605d60f81b610b4a565b81600e1415611c755750602f60f91b610b4a565b81600f1415611c895750605f60f81b610b4a565b8160101415610b4a5750600360fd1b610b4a565b6000806002836040518082805190602001908083835b60208310611cd25780518252601f199092019160209182019101611cb3565b51815160209384036101000a60001901801990921691161790526040519190930194509192505080830381855afa158015611d11573d6000803e3d6000fd5b5050506040513d6020811015611d2657600080fd5b5051604080516020818101849052825180830382018152918301928390528151939450600093600393918291908401908083835b60208310611d795780518252601f199092019160209182019101611d5a565b51815160209384036101000a60001901801990921691161790526040519190930194509192505080830381855afa158015611db8573d6000803e3d6000fd5b50506040515160601b95945050505050565b805160009081805b82811015611e0357848181518110611de657fe5b60209101015160f81c610100929092029190910190600101611dd2565b509392505050565b60608060005b8315611ed857603a84069050816040518060600160405280603a815260200161216a603a91398281518110611e4257fe5b602001015160f81c60f81b6040516020018083805190602001908083835b60208310611e7f5780518252601f199092019160209182019101611e60565b6001836020036101000a038019825116818451168082178552505050505050905001826001600160f81b0319168152600101925050506040516020818303038152906040529150603a8481611ed057fe5b049350611e11565b5092915050565b8051606090819060005b81811015611f9457828560018385030381518110611f0357fe5b602001015160f81c60f81b6040516020018083805190602001908083835b60208310611f405780518252601f199092019160209182019101611f21565b6001836020036101000a038019825116818451168082178552505050505050905001826001600160f81b03191681526001019250505060405160208183030381529060405292508080600101915050611ee9565b50909392505050565b50805460018160011615610100020316600290046000825580601f10611fc35750611fe1565b601f016020900490600052602060002090810190611fe1919061210b565b50565b828054600181600116156101000203166002900490600052602060002090601f01602090048101928261201a5760008555612067565b82601f1061202b5780548555612067565b8280016001018555821561206757600052602060002091601f016020900482015b8281111561206757825482559160010191906001019061204c565b5061207392915061210b565b5090565b60408051808201909152606081526000602082015290565b828054600181600116156101000203166002900490600052602060002090601f0160209004810192826120c55760008555612067565b82601f106120de57805160ff1916838001178555612067565b82800160010185558215612067579182015b828111156120675782518255916020019190600101906120f0565b5b80821115612073576000815560010161210c56fe74656c65706f727465722061646472657373206973206e6f7420636f7272656374796f7520617265206e6f7420616c6c6f77656420746f2072656d6f76652074656c65706f7274657231323334353637383941424344454647484a4b4c4d4e505152535455565758595a6162636465666768696a6b6d6e6f707172737475767778797aa264697066735822122062af96907c6ff8ba184e84f015a395b9b8ff53be613f581d82b4e54a753782ba64736f6c63430007060033",
  "devdoc": {
    "kind": "dev",
    "methods": {},
    "version": 1
  },
  "userdoc": {
    "kind": "user",
    "methods": {},
    "version": 1
  },
  "storageLayout": {
    "storage": [
      {
        "astId": 19121,
        "contract": "contracts/teleporter/BitcoinTeleporter.sol:BitcoinTeleporter",
        "label": "owner",
        "offset": 0,
        "slot": "0",
        "type": "t_address"
      },
      {
        "astId": 19124,
        "contract": "contracts/teleporter/BitcoinTeleporter.sol:BitcoinTeleporter",
        "label": "TeleportDAOToken",
        "offset": 0,
        "slot": "1",
        "type": "t_address"
      },
      {
        "astId": 19127,
        "contract": "contracts/teleporter/BitcoinTeleporter.sol:BitcoinTeleporter",
        "label": "wrappedBitcoin",
        "offset": 0,
        "slot": "2",
        "type": "t_address"
      },
      {
        "astId": 19130,
        "contract": "contracts/teleporter/BitcoinTeleporter.sol:BitcoinTeleporter",
        "label": "ccBurnRouter",
        "offset": 0,
        "slot": "3",
        "type": "t_address"
      },
      {
        "astId": 19133,
        "contract": "contracts/teleporter/BitcoinTeleporter.sol:BitcoinTeleporter",
        "label": "exchangeRouter",
        "offset": 0,
        "slot": "4",
        "type": "t_address"
      },
      {
        "astId": 19136,
        "contract": "contracts/teleporter/BitcoinTeleporter.sol:BitcoinTeleporter",
        "label": "requiredLockedAmount",
        "offset": 0,
        "slot": "5",
        "type": "t_uint256"
      },
      {
        "astId": 19138,
        "contract": "contracts/teleporter/BitcoinTeleporter.sol:BitcoinTeleporter",
        "label": "unlockFee",
        "offset": 0,
        "slot": "6",
        "type": "t_uint256"
      },
      {
        "astId": 19140,
        "contract": "contracts/teleporter/BitcoinTeleporter.sol:BitcoinTeleporter",
        "label": "unlockPeriod",
        "offset": 0,
        "slot": "7",
        "type": "t_uint256"
      },
      {
        "astId": 19142,
        "contract": "contracts/teleporter/BitcoinTeleporter.sol:BitcoinTeleporter",
        "label": "lastUnlock",
        "offset": 0,
        "slot": "8",
        "type": "t_uint256"
      },
      {
        "astId": 19145,
        "contract": "contracts/teleporter/BitcoinTeleporter.sol:BitcoinTeleporter",
        "label": "teleportersList",
        "offset": 0,
        "slot": "9",
        "type": "t_array(t_struct(teleporter)20142_storage)dyn_storage"
      },
      {
        "astId": 19148,
        "contract": "contracts/teleporter/BitcoinTeleporter.sol:BitcoinTeleporter",
        "label": "numberOfTeleporters",
        "offset": 0,
        "slot": "10",
        "type": "t_uint256"
      },
      {
        "astId": 19151,
        "contract": "contracts/teleporter/BitcoinTeleporter.sol:BitcoinTeleporter",
        "label": "redeemScript",
        "offset": 0,
        "slot": "11",
        "type": "t_bytes_storage"
      },
      {
        "astId": 19154,
        "contract": "contracts/teleporter/BitcoinTeleporter.sol:BitcoinTeleporter",
        "label": "redeemScriptHash",
        "offset": 0,
        "slot": "12",
        "type": "t_address"
      },
      {
        "astId": 19157,
        "contract": "contracts/teleporter/BitcoinTeleporter.sol:BitcoinTeleporter",
        "label": "multisigAddress",
        "offset": 0,
        "slot": "13",
        "type": "t_address"
      },
      {
        "astId": 19160,
        "contract": "contracts/teleporter/BitcoinTeleporter.sol:BitcoinTeleporter",
        "label": "multisigAddressBeforeEncoding",
        "offset": 0,
        "slot": "14",
        "type": "t_bytes_storage"
      }
    ],
    "types": {
      "t_address": {
        "encoding": "inplace",
        "label": "address",
        "numberOfBytes": "20"
      },
      "t_array(t_struct(teleporter)20142_storage)dyn_storage": {
        "base": "t_struct(teleporter)20142_storage",
        "encoding": "dynamic_array",
        "label": "struct IBitcoinTeleporter.teleporter[]",
        "numberOfBytes": "32"
      },
      "t_bytes_storage": {
        "encoding": "bytes",
        "label": "bytes",
        "numberOfBytes": "32"
      },
      "t_struct(teleporter)20142_storage": {
        "encoding": "inplace",
        "label": "struct IBitcoinTeleporter.teleporter",
        "members": [
          {
            "astId": 20139,
            "contract": "contracts/teleporter/BitcoinTeleporter.sol:BitcoinTeleporter",
            "label": "teleporterBitcoinPubKey",
            "offset": 0,
            "slot": "0",
            "type": "t_bytes_storage"
          },
          {
            "astId": 20141,
            "contract": "contracts/teleporter/BitcoinTeleporter.sol:BitcoinTeleporter",
            "label": "teleporterAddress",
            "offset": 0,
            "slot": "1",
            "type": "t_address"
          }
        ],
        "numberOfBytes": "64"
      },
      "t_uint256": {
        "encoding": "inplace",
        "label": "uint256",
        "numberOfBytes": "32"
      }
    }
  }
}