{
  "address": "0xdaa95209fd0bbF839A1F2B02b279E53492C58937",
  "abi": [
    {
      "inputs": [
        {
          "internalType": "address",
          "name": "_relay",
          "type": "address"
        },
        {
          "internalType": "address",
          "name": "_lockers",
          "type": "address"
        },
        {
          "internalType": "address",
          "name": "_treasury",
          "type": "address"
        },
        {
          "internalType": "uint256",
          "name": "_transferDeadline",
          "type": "uint256"
        },
        {
          "internalType": "uint256",
          "name": "_protocolPercentageFee",
          "type": "uint256"
        },
        {
          "internalType": "uint256",
          "name": "_slasherPercentageReward",
          "type": "uint256"
        },
        {
          "internalType": "uint256",
          "name": "_bitcoinFee",
          "type": "uint256"
        }
      ],
      "stateMutability": "nonpayable",
      "type": "constructor"
    },
    {
      "anonymous": false,
      "inputs": [
        {
          "indexed": true,
          "internalType": "address",
          "name": "userTargetAddress",
          "type": "address"
        },
        {
          "indexed": false,
          "internalType": "address",
          "name": "userPubKeyHash",
          "type": "address"
        },
        {
          "indexed": false,
          "internalType": "bool",
          "name": "isScriptHash",
          "type": "bool"
        },
        {
          "indexed": false,
          "internalType": "bool",
          "name": "isSegwit",
          "type": "bool"
        },
        {
          "indexed": false,
          "internalType": "uint256",
          "name": "amount",
          "type": "uint256"
        },
        {
          "indexed": false,
          "internalType": "uint256",
          "name": "remainedAmount",
          "type": "uint256"
        },
        {
          "indexed": true,
          "internalType": "address",
          "name": "lockerTargetAddress",
          "type": "address"
        },
        {
          "indexed": false,
          "internalType": "uint256",
          "name": "index",
          "type": "uint256"
        },
        {
          "indexed": true,
          "internalType": "uint256",
          "name": "deadline",
          "type": "uint256"
        }
      ],
      "name": "CCBurn",
      "type": "event"
    },
    {
      "anonymous": false,
      "inputs": [
        {
          "indexed": false,
          "internalType": "address",
          "name": "_lockerTargetAddress",
          "type": "address"
        },
        {
          "indexed": false,
          "internalType": "uint256",
          "name": "_blockNumber",
          "type": "uint256"
        },
        {
          "indexed": false,
          "internalType": "bytes32",
          "name": "txId",
          "type": "bytes32"
        }
      ],
      "name": "LockerDispute",
      "type": "event"
    },
    {
      "anonymous": false,
      "inputs": [
        {
          "indexed": true,
          "internalType": "address",
          "name": "previousOwner",
          "type": "address"
        },
        {
          "indexed": true,
          "internalType": "address",
          "name": "newOwner",
          "type": "address"
        }
      ],
      "name": "OwnershipTransferred",
      "type": "event"
    },
    {
      "anonymous": false,
      "inputs": [
        {
          "indexed": true,
          "internalType": "address",
          "name": "userTargetAddress",
          "type": "address"
        },
        {
          "indexed": false,
          "internalType": "address",
          "name": "userPubKeyHash",
          "type": "address"
        },
        {
          "indexed": false,
          "internalType": "uint256",
          "name": "remainedAmount",
          "type": "uint256"
        },
        {
          "indexed": true,
          "internalType": "address",
          "name": "lockerTargetAddress",
          "type": "address"
        },
        {
          "indexed": false,
          "internalType": "uint256",
          "name": "index",
          "type": "uint256"
        }
      ],
      "name": "PaidCCBurn",
      "type": "event"
    },
    {
      "inputs": [],
      "name": "bitcoinFee",
      "outputs": [
        {
          "internalType": "uint256",
          "name": "",
          "type": "uint256"
        }
      ],
      "stateMutability": "view",
      "type": "function"
    },
    {
      "inputs": [
        {
          "internalType": "bytes4",
          "name": "_version",
          "type": "bytes4"
        },
        {
          "internalType": "bytes",
          "name": "_vin",
          "type": "bytes"
        },
        {
          "internalType": "bytes",
          "name": "_vout",
          "type": "bytes"
        },
        {
          "internalType": "bytes4",
          "name": "_locktime",
          "type": "bytes4"
        },
        {
          "internalType": "uint256",
          "name": "_blockNumber",
          "type": "uint256"
        },
        {
          "internalType": "bytes",
          "name": "_intermediateNodes",
          "type": "bytes"
        },
        {
          "internalType": "uint256",
          "name": "_index",
          "type": "uint256"
        },
        {
          "internalType": "address",
          "name": "_lockerScriptHash",
          "type": "address"
        },
        {
          "internalType": "uint256",
          "name": "_startIndex",
          "type": "uint256"
        },
        {
          "internalType": "uint256",
          "name": "_endIndex",
          "type": "uint256"
        }
      ],
      "name": "burnProof",
      "outputs": [
        {
          "internalType": "bool",
          "name": "",
          "type": "bool"
        }
      ],
      "stateMutability": "payable",
      "type": "function"
    },
    {
      "inputs": [
        {
          "internalType": "address",
          "name": "",
          "type": "address"
        },
        {
          "internalType": "uint256",
          "name": "",
          "type": "uint256"
        }
      ],
      "name": "burnRequests",
      "outputs": [
        {
          "internalType": "uint256",
          "name": "amount",
          "type": "uint256"
        },
        {
          "internalType": "uint256",
          "name": "remainedAmount",
          "type": "uint256"
        },
        {
          "internalType": "address",
          "name": "sender",
          "type": "address"
        },
        {
          "internalType": "address",
          "name": "userPubKeyHash",
          "type": "address"
        },
        {
          "internalType": "bool",
          "name": "isScriptHash",
          "type": "bool"
        },
        {
          "internalType": "bool",
          "name": "isSegwit",
          "type": "bool"
        },
        {
          "internalType": "uint256",
          "name": "deadline",
          "type": "uint256"
        },
        {
          "internalType": "bool",
          "name": "isTransferred",
          "type": "bool"
        }
      ],
      "stateMutability": "view",
      "type": "function"
    },
    {
      "inputs": [
        {
          "internalType": "uint256",
          "name": "_amount",
          "type": "uint256"
        },
        {
          "internalType": "address",
          "name": "_userPubKeyHash",
          "type": "address"
        },
        {
          "internalType": "bool",
          "name": "_isScriptHash",
          "type": "bool"
        },
        {
          "internalType": "bool",
          "name": "_isSegwit",
          "type": "bool"
        },
        {
          "internalType": "address",
          "name": "_lockerScriptHash",
          "type": "address"
        }
      ],
      "name": "ccBurn",
      "outputs": [
        {
          "internalType": "bool",
          "name": "",
          "type": "bool"
        }
      ],
      "stateMutability": "nonpayable",
      "type": "function"
    },
    {
      "inputs": [
        {
          "internalType": "address",
          "name": "_lockerScriptHash",
          "type": "address"
        },
        {
          "internalType": "uint256[]",
          "name": "_indices",
          "type": "uint256[]"
        }
      ],
      "name": "disputeBurn",
      "outputs": [
        {
          "internalType": "bool",
          "name": "",
          "type": "bool"
        }
      ],
      "stateMutability": "nonpayable",
      "type": "function"
    },
    {
      "inputs": [
        {
          "internalType": "address",
          "name": "_lockerScriptHash",
          "type": "address"
        },
        {
          "internalType": "uint256",
          "name": "_inputIndex",
          "type": "uint256"
        },
        {
          "internalType": "bytes4",
          "name": "_version",
          "type": "bytes4"
        },
        {
          "internalType": "bytes",
          "name": "_vin",
          "type": "bytes"
        },
        {
          "internalType": "bytes",
          "name": "_vout",
          "type": "bytes"
        },
        {
          "internalType": "bytes4",
          "name": "_locktime",
          "type": "bytes4"
        },
        {
          "internalType": "uint256",
          "name": "_blockNumber",
          "type": "uint256"
        },
        {
          "internalType": "bytes",
          "name": "_intermediateNodes",
          "type": "bytes"
        },
        {
          "internalType": "uint256",
          "name": "_index",
          "type": "uint256"
        }
      ],
      "name": "disputeLocker",
      "outputs": [
        {
          "internalType": "bool",
          "name": "",
          "type": "bool"
        }
      ],
      "stateMutability": "payable",
      "type": "function"
    },
    {
      "inputs": [
        {
          "internalType": "address",
          "name": "_lockerTargetAddress",
          "type": "address"
        },
        {
          "internalType": "uint256",
          "name": "_index",
          "type": "uint256"
        }
      ],
      "name": "isTransferred",
      "outputs": [
        {
          "internalType": "bool",
          "name": "",
          "type": "bool"
        }
      ],
      "stateMutability": "view",
      "type": "function"
    },
    {
      "inputs": [],
      "name": "lockers",
      "outputs": [
        {
          "internalType": "address",
          "name": "",
          "type": "address"
        }
      ],
      "stateMutability": "view",
      "type": "function"
    },
    {
      "inputs": [],
      "name": "owner",
      "outputs": [
        {
          "internalType": "address",
          "name": "",
          "type": "address"
        }
      ],
      "stateMutability": "view",
      "type": "function"
    },
    {
      "inputs": [],
      "name": "protocolPercentageFee",
      "outputs": [
        {
          "internalType": "uint256",
          "name": "",
          "type": "uint256"
        }
      ],
      "stateMutability": "view",
      "type": "function"
    },
    {
      "inputs": [],
      "name": "relay",
      "outputs": [
        {
          "internalType": "address",
          "name": "",
          "type": "address"
        }
      ],
      "stateMutability": "view",
      "type": "function"
    },
    {
      "inputs": [],
      "name": "renounceOwnership",
      "outputs": [],
      "stateMutability": "nonpayable",
      "type": "function"
    },
    {
      "inputs": [
        {
          "internalType": "uint256",
          "name": "_bitcoinFee",
          "type": "uint256"
        }
      ],
      "name": "setBitcoinFee",
      "outputs": [],
      "stateMutability": "nonpayable",
      "type": "function"
    },
    {
      "inputs": [
        {
          "internalType": "address",
          "name": "_lockers",
          "type": "address"
        }
      ],
      "name": "setLockers",
      "outputs": [],
      "stateMutability": "nonpayable",
      "type": "function"
    },
    {
      "inputs": [
        {
          "internalType": "uint256",
          "name": "_protocolPercentageFee",
          "type": "uint256"
        }
      ],
      "name": "setProtocolPercentageFee",
      "outputs": [],
      "stateMutability": "nonpayable",
      "type": "function"
    },
    {
      "inputs": [
        {
          "internalType": "address",
          "name": "_relay",
          "type": "address"
        }
      ],
      "name": "setRelay",
      "outputs": [],
      "stateMutability": "nonpayable",
      "type": "function"
    },
    {
      "inputs": [
        {
          "internalType": "uint256",
          "name": "_slasherPercentageReward",
          "type": "uint256"
        }
      ],
      "name": "setSlasherPercentageReward",
      "outputs": [],
      "stateMutability": "nonpayable",
      "type": "function"
    },
    {
      "inputs": [
        {
          "internalType": "address",
          "name": "_teleBTC",
          "type": "address"
        }
      ],
      "name": "setTeleBTC",
      "outputs": [],
      "stateMutability": "nonpayable",
      "type": "function"
    },
    {
      "inputs": [
        {
          "internalType": "uint256",
          "name": "_transferDeadline",
          "type": "uint256"
        }
      ],
      "name": "setTransferDeadline",
      "outputs": [],
      "stateMutability": "nonpayable",
      "type": "function"
    },
    {
      "inputs": [
        {
          "internalType": "address",
          "name": "_treasury",
          "type": "address"
        }
      ],
      "name": "setTreasury",
      "outputs": [],
      "stateMutability": "nonpayable",
      "type": "function"
    },
    {
      "inputs": [],
      "name": "slasherPercentageReward",
      "outputs": [
        {
          "internalType": "uint256",
          "name": "",
          "type": "uint256"
        }
      ],
      "stateMutability": "view",
      "type": "function"
    },
    {
      "inputs": [],
      "name": "teleBTC",
      "outputs": [
        {
          "internalType": "address",
          "name": "",
          "type": "address"
        }
      ],
      "stateMutability": "view",
      "type": "function"
    },
    {
      "inputs": [],
      "name": "transferDeadline",
      "outputs": [
        {
          "internalType": "uint256",
          "name": "",
          "type": "uint256"
        }
      ],
      "stateMutability": "view",
      "type": "function"
    },
    {
      "inputs": [
        {
          "internalType": "address",
          "name": "newOwner",
          "type": "address"
        }
      ],
      "name": "transferOwnership",
      "outputs": [],
      "stateMutability": "nonpayable",
      "type": "function"
    },
    {
      "inputs": [],
      "name": "treasury",
      "outputs": [
        {
          "internalType": "address",
          "name": "",
          "type": "address"
        }
      ],
      "stateMutability": "view",
      "type": "function"
    }
  ],
  "transactionHash": "0x903bd5b8d243549745a5021eeee54d5d59c84488412ec14b8a7fcc23eee7f347",
  "args": [
    "0x8ed36B08134B84698C898f0A4314905e1cA7aE1d",
    "0x6c89ca66B217cA2eA87AB118De25D54013d4c891",
    "0x5364E3557572bd5D5903C0e9C21BE359F2Eac1dA",
    10,
    50,
    50,
    50
  ],
  "numDeployments": 1,
  "solcInputHash": "e12c7c9cd263aabdb11ed9046c0bd066",
  "bytecode": "0x60806040523480156200001157600080fd5b5060405162004a4438038062004a44833981016040819052620000349162000106565b6200003f3362000099565b60018055600280546001600160a01b03199081166001600160a01b03998a161790915560038054821697891697909717909655600580549096169490961693909317909355600855600991909155600a55600b5562000176565b600080546001600160a01b038381166001600160a01b0319831681178455604051919092169283917f8be0079c531659141344cd1fd0a4f28419497f9722a3daafe3b4186f6b6457e09190a35050565b80516001600160a01b03811681146200010157600080fd5b919050565b600080600080600080600060e0888a03121562000121578283fd5b6200012c88620000e9565b96506200013c60208901620000e9565b95506200014c60408901620000e9565b9450606088015193506080880151925060a0880151915060c0880151905092959891949750929550565b6148be80620001866000396000f3fe6080604052600436106101665760003560e01c80638d3d78cd116100d1578063c805f68b1161008a578063f0f4426011610064578063f0f44260146103f9578063f2fde38b14610419578063f47e224014610439578063f8f46abc146104a657610166565b8063c805f68b14610399578063cdbe3741146103b9578063e89c98c6146103d957610166565b80638d3d78cd146102ef5780638da5cb5b1461030f578063b14d35321461032d578063b59589d11461034d578063b74d0d351461036d578063bed6a6021461038357610166565b806361d027b31161012357806361d027b314610247578063715018a61461026757806375c651d51461027c5780637ed557481461028f5780637f0f1817146102af5780637ffe9a92146102cf57610166565b806316afc0c81461016b5780631812adb6146101935780631876dec4146101b7578063419cba7f146101ef5780634782bc36146102055780635c4f5f3e14610227575b600080fd5b61017e61017936600461425a565b6104c6565b60405190151581526020015b60405180910390f35b34801561019f57600080fd5b506101a960095481565b60405190815260200161018a565b3480156101c357600080fd5b506003546101d7906001600160a01b031681565b6040516001600160a01b03909116815260200161018a565b3480156101fb57600080fd5b506101a9600a5481565b34801561021157600080fd5b506102256102203660046143bb565b6107f5565b005b34801561023357600080fd5b506102256102423660046143bb565b610824565b34801561025357600080fd5b506005546101d7906001600160a01b031681565b34801561027357600080fd5b50610225610853565b61017e61028a366004614140565b610889565b34801561029b57600080fd5b506102256102aa3660046143bb565b610e1b565b3480156102bb57600080fd5b506102256102ca366004614022565b610e4a565b3480156102db57600080fd5b5061017e6102ea366004614115565b610e96565b3480156102fb57600080fd5b506004546101d7906001600160a01b031681565b34801561031b57600080fd5b506000546001600160a01b03166101d7565b34801561033957600080fd5b50610225610348366004614022565b610eee565b34801561035957600080fd5b506002546101d7906001600160a01b031681565b34801561037957600080fd5b506101a9600b5481565b34801561038f57600080fd5b506101a960085481565b3480156103a557600080fd5b506102256103b4366004614022565b610f3a565b3480156103c557600080fd5b506102256103d43660046143bb565b610f86565b3480156103e557600080fd5b5061017e6103f436600461405a565b610fb5565b34801561040557600080fd5b50610225610414366004614022565b61152a565b34801561042557600080fd5b50610225610434366004614022565b611576565b34801561044557600080fd5b50610459610454366004614115565b611611565b6040805198895260208901979097526001600160a01b039586169688019690965293909216606086015215156080850152151560a084015260c0830152151560e08201526101000161018a565b3480156104b257600080fd5b5061017e6104c13660046143d3565b61168a565b6000600260015414156104f45760405162461bcd60e51b81526004016104eb90614608565b60405180910390fd5b6002600155600354604051630906867960e01b81526001600160a01b038681166004830152600092169063090686799060240160206040518083038186803b15801561053f57600080fd5b505afa158015610553573d6000803e3d6000fd5b505050506040513d601f19601f82011682018060405250810190610577919061403e565b6001600160a01b038116600090815260066020526040902054909150831080156105a15750828411155b6105ff5760405162461bcd60e51b815260206004820152602960248201527f43434275726e526f757465723a206275726e50726f6f662077726f6e6720696e60448201526819195e081a5b9c1d5d60ba1b60648201526084016104eb565b600354604051630bb18f5f60e21b81526001600160a01b03878116600483015290911690632ec63d7c9060240160206040518083038186803b15801561064457600080fd5b505afa158015610658573d6000803e3d6000fd5b505050506040513d601f19601f8201168201806040525081019061067c9190614226565b6106985760405162461bcd60e51b81526004016104eb90614539565b60006106a78f8f8f8f8f611ba9565b90506106ec818b8b8b8080601f0160208091040260200160405190810160405280939291908181526020018383808284376000920191909152508d9250611cab915050565b6107505760405162461bcd60e51b815260206004820152602f60248201527f43434275726e526f757465723a207472616e73616374696f6e20686173206e6f60448201526e1d08199a5b985b1a5e9959081e595d608a1b60648201526084016104eb565b6000610796838f8f8080601f0160208091040260200160405190810160405280939291908181526020018383808284376000920191909152508b92508a9150611e2a9050565b90506107dc818f8f8080601f0160208091040260200160405190810160405280939291908181526020018383808284376000920191909152508c92508791506121139050565b505060018080559e9d5050505050505050505050505050565b6000546001600160a01b0316331461081f5760405162461bcd60e51b81526004016104eb906145d3565b600a55565b6000546001600160a01b0316331461084e5760405162461bcd60e51b81526004016104eb906145d3565b600855565b6000546001600160a01b0316331461087d5760405162461bcd60e51b81526004016104eb906145d3565b61088760006121a9565b565b6000600260015414156108ae5760405162461bcd60e51b81526004016104eb90614608565b6002600155600354604051630bb18f5f60e21b81526001600160a01b038e8116600483015290911690632ec63d7c9060240160206040518083038186803b1580156108f857600080fd5b505afa15801561090c573d6000803e3d6000fd5b505050506040513d601f19601f820116820180604052508101906109309190614226565b61094c5760405162461bcd60e51b81526004016104eb90614539565b600061095b8b8b8b8b8b611ba9565b90506109a0818787878080601f016020809104026020016040519081016040528093929190818152602001838380828437600092019190915250899250611cab915050565b6109ff5760405162461bcd60e51b815260206004820152602a60248201527f43434275726e526f757465723a207472616e73616374696f6e206973206e6f7460448201526908199a5b985b1a5e995960b21b60648201526084016104eb565b600354604051630906867960e01b81526001600160a01b038f81166004830152600092169063090686799060240160206040518083038186803b158015610a4557600080fd5b505afa158015610a59573d6000803e3d6000fd5b505050506040513d601f19601f82011682018060405250810190610a7d919061403e565b600354604051630daeec8160e21b81526001600160a01b038084166004830152929350600092909116906336bbb2049060240160006040518083038186803b158015610ac857600080fd5b505afa158015610adc573d6000803e3d6000fd5b505050506040513d6000823e601f3d908101601f19168201604052610b049190810190614352565b9050610b118c8f836121f9565b610b785760405162461bcd60e51b815260206004820152603260248201527f43434275726e526f757465723a207472616e73616374696f6e20646f65736e276044820152713a103132b637b733903a37903637b1b5b2b960711b60648201526084016104eb565b60008381526007602052604090205460ff1615610bee5760405162461bcd60e51b815260206004820152602e60248201527f43434275726e526f757465723a207472616e73616374696f6e2068617320626560448201526d656e2070616964206265666f726560901b60648201526084016104eb565b87600854610bfc9190614696565b600260009054906101000a90046001600160a01b03166001600160a01b0316632f796d906040518163ffffffff1660e01b815260040160206040518083038186803b158015610c4a57600080fd5b505afa158015610c5e573d6000803e3d6000fd5b505050506040513d601f19601f82011682018060405250810190610c829190614242565b11610c9f5760405162461bcd60e51b81526004016104eb90614582565b6000610ce08c8c8080601f01602080910402602001604051908101604052809392919081815260200183838082843760009201919091525061225b92505050565b600354600a546001600160401b039290921692506001600160a01b03169063683d178c908590606490610d13908661471b565b610d1d91906146fb565b60035460405160e085901b6001600160e01b03191681526001600160a01b03938416600482015260248101929092523360448301526064820186905291909116608482015260a401602060405180830381600087803b158015610d7f57600080fd5b505af1158015610d93573d6000803e3d6000fd5b505050506040513d601f19601f82011682018060405250810190610db79190614226565b50604080516001600160a01b0385168152602081018b90529081018590527ff6f1bddbffa8aee571e6ea218f1fcea640a9d004c77327bed86be0c544f0f7f49060600160405180910390a1505060018080559e9d5050505050505050505050505050565b6000546001600160a01b03163314610e455760405162461bcd60e51b81526004016104eb906145d3565b600955565b6000546001600160a01b03163314610e745760405162461bcd60e51b81526004016104eb906145d3565b600480546001600160a01b0319166001600160a01b0392909216919091179055565b6001600160a01b0382166000908152600660205260408120805483908110610ece57634e487b7160e01b600052603260045260246000fd5b600091825260209091206005600690920201015460ff1690505b92915050565b6000546001600160a01b03163314610f185760405162461bcd60e51b81526004016104eb906145d3565b600380546001600160a01b0319166001600160a01b0392909216919091179055565b6000546001600160a01b03163314610f645760405162461bcd60e51b81526004016104eb906145d3565b600280546001600160a01b0319166001600160a01b0392909216919091179055565b6000546001600160a01b03163314610fb05760405162461bcd60e51b81526004016104eb906145d3565b600b55565b600060026001541415610fda5760405162461bcd60e51b81526004016104eb90614608565b6002600155600354604051630bb18f5f60e21b81526001600160a01b03858116600483015290911690632ec63d7c9060240160206040518083038186803b15801561102457600080fd5b505afa158015611038573d6000803e3d6000fd5b505050506040513d601f19601f8201168201806040525081019061105c9190614226565b6110785760405162461bcd60e51b81526004016104eb90614539565b600354604051630906867960e01b81526001600160a01b038581166004830152600092169063090686799060240160206040518083038186803b1580156110be57600080fd5b505afa1580156110d2573d6000803e3d6000fd5b505050506040513d601f19601f820116820180604052508101906110f6919061403e565b905060005b835181101561151c576001600160a01b0382166000908152600660205260409020845185908390811061113e57634e487b7160e01b600052603260045260246000fd5b60200260200101518154811061116457634e487b7160e01b600052603260045260246000fd5b600091825260209091206005600690920201015460ff16156111db5760405162461bcd60e51b815260206004820152602a60248201527f43434275726e526f757465723a207265717565737420686173206265656e2070604482015269616964206265666f726560b01b60648201526084016104eb565b600260009054906101000a90046001600160a01b03166001600160a01b0316632f796d906040518163ffffffff1660e01b815260040160206040518083038186803b15801561122957600080fd5b505afa15801561123d573d6000803e3d6000fd5b505050506040513d601f19601f820116820180604052508101906112619190614242565b6001600160a01b0383166000908152600660205260409020855186908490811061129b57634e487b7160e01b600052603260045260246000fd5b6020026020010151815481106112c157634e487b7160e01b600052603260045260246000fd5b906000526020600020906006020160040154106112f05760405162461bcd60e51b81526004016104eb90614582565b600354600a546001600160a01b0384811660009081526006602052604090208751919093169263683d178c928692606492908a908890811061134257634e487b7160e01b600052603260045260246000fd5b60200260200101518154811061136857634e487b7160e01b600052603260045260246000fd5b906000526020600020906006020160000154611384919061471b565b61138e91906146fb565b6001600160a01b038616600090815260066020526040902088513391908a90889081106113cb57634e487b7160e01b600052603260045260246000fd5b6020026020010151815481106113f157634e487b7160e01b600052603260045260246000fd5b60009182526020808320600692830201546001600160a01b038b16845291905260409091208a518b908990811061143857634e487b7160e01b600052603260045260246000fd5b60200260200101518154811061145e57634e487b7160e01b600052603260045260246000fd5b600091825260209091206006909102016002015460405160e087901b6001600160e01b03191681526001600160a01b03958616600482015260248101949094529184166044840152606483015291909116608482015260a401602060405180830381600087803b1580156114d157600080fd5b505af11580156114e5573d6000803e3d6000fd5b505050506040513d601f19601f820116820180604052508101906115099190614226565b5080611514816147f5565b9150506110fb565b505060018080559392505050565b6000546001600160a01b031633146115545760405162461bcd60e51b81526004016104eb906145d3565b600580546001600160a01b0319166001600160a01b0392909216919091179055565b6000546001600160a01b031633146115a05760405162461bcd60e51b81526004016104eb906145d3565b6001600160a01b0381166116055760405162461bcd60e51b815260206004820152602660248201527f4f776e61626c653a206e6577206f776e657220697320746865207a65726f206160448201526564647265737360d01b60648201526084016104eb565b61160e816121a9565b50565b6006602052816000526040600020818154811061162d57600080fd5b60009182526020909120600690910201805460018201546002830154600384015460048501546005909501549396509194506001600160a01b03908116939082169260ff600160a01b8404811693600160a81b9004811692911688565b6000600260015414156116af5760405162461bcd60e51b81526004016104eb90614608565b6002600155600354604051630bb18f5f60e21b81526001600160a01b03848116600483015290911690632ec63d7c9060240160206040518083038186803b1580156116f957600080fd5b505afa15801561170d573d6000803e3d6000fd5b505050506040513d601f19601f820116820180604052508101906117319190614226565b61174d5760405162461bcd60e51b81526004016104eb90614539565b600480546040516323b872dd60e01b81523392810192909252306024830152604482018890526001600160a01b0316906323b872dd90606401602060405180830381600087803b1580156117a057600080fd5b505af11580156117b4573d6000803e3d6000fd5b505050506040513d601f19601f820116820180604052508101906117d89190614226565b50600354604051630906867960e01b81526001600160a01b038481166004830152600092611864928a929091169063090686799060240160206040518083038186803b15801561182757600080fd5b505afa15801561183b573d6000803e3d6000fd5b505050506040513d601f19601f8201168201806040525081019061185f919061403e565b6122de565b6004805460035460405163095ea7b360e01b81526001600160a01b039182169381019390935260248301849052929350919091169063095ea7b390604401602060405180830381600087803b1580156118bc57600080fd5b505af11580156118d0573d6000803e3d6000fd5b505050506040513d601f19601f820116820180604052508101906118f49190614226565b50600354604051632770a7eb60e21b81526001600160a01b038581166004830152602482018490526000921690639dc29fac90604401602060405180830381600087803b15801561194457600080fd5b505af1158015611958573d6000803e3d6000fd5b505050506040513d601f19601f8201168201806040525081019061197c9190614242565b600354604051630906867960e01b81526001600160a01b0387811660048301529293506000929091169063090686799060240160206040518083038186803b1580156119c757600080fd5b505afa1580156119db573d6000803e3d6000fd5b505050506040513d601f19601f820116820180604052508101906119ff919061403e565b9050611a9589838a8a8a600260009054906101000a90046001600160a01b03166001600160a01b0316632f796d906040518163ffffffff1660e01b815260040160206040518083038186803b158015611a5757600080fd5b505afa158015611a6b573d6000803e3d6000fd5b505050506040513d601f19601f82011682018060405250810190611a8f9190614242565b8761248b565b6001600160a01b03811660009081526006602052604090208054611abb90600190614763565b81548110611ad957634e487b7160e01b600052603260045260246000fd5b906000526020600020906006020160040154816001600160a01b0316336001600160a01b03167f948bf94cd4569aa4665ce0898f542065f4f9fe072d6d0f7a0b51d12d223b39728b8b8b8f896001600660008c6001600160a01b03166001600160a01b0316815260200190815260200160002080549050611b5a9190614763565b604080516001600160a01b039790971687529415156020870152921515858501526060850191909152608084015260a0830152519081900360c00190a450506001808055979650505050505050565b60008060028787878787604051602001611bc7959493929190614466565b60408051601f1981840301815290829052611be1916144ab565b602060405180830381855afa158015611bfe573d6000803e3d6000fd5b5050506040513d601f19601f82011682018060405250810190611c219190614242565b90506000600282604051602001611c3a91815260200190565b60408051601f1981840301815290829052611c54916144ab565b602060405180830381855afa158015611c71573d6000803e3d6000fd5b5050506040513d601f19601f82011682018060405250810190611c949190614242565b9050611c9f816125c1565b98975050505050505050565b60025460405163d0a8973960e01b8152600481018590526000602482018190529182916001600160a01b039091169063d0a897399060440160206040518083038186803b158015611cfb57600080fd5b505afa158015611d0f573d6000803e3d6000fd5b505050506040513d601f19601f82011682018060405250810190611d339190614242565b905080341015611d975760405162461bcd60e51b815260206004820152602960248201527f43434275726e526f757465723a2072656c617920666565206973206e6f7420736044820152681d59999a58da595b9d60ba1b60648201526084016104eb565b600254604051600091611df4916001600160a01b0390911690611dc4908a908a908a908a906024016144f6565b60408051601f198184030181529190526020810180516001600160e01b0316634354da2560e01b17905234612641565b9050611e0933611e048434614763565b612667565b80806020019051810190611e1d9190614226565b925050505b949350505050565b600080835b838111612109576001600160a01b0387166000908152600660205260409020805482908110611e6e57634e487b7160e01b600052603260045260246000fd5b600091825260209091206005600690920201015460ff16158015611edd57506001600160a01b0387166000908152600660205260409020805443919083908110611ec857634e487b7160e01b600052603260045260246000fd5b90600052602060002090600602016004015410155b156120f7576001600160a01b03871660009081526006602052604090208054611f4291889184908110611f2057634e487b7160e01b600052603260045260246000fd5b60009182526020909120600360069092020101546001600160a01b0316612785565b506001600160a01b038816600090815260066020526040902080546001600160401b039092169350839183908110611f8a57634e487b7160e01b600052603260045260246000fd5b90600052602060002090600602016001015414156120f7576001600160a01b038716600090815260066020526040902080546001919083908110611fde57634e487b7160e01b600052603260045260246000fd5b60009182526020909120600690910201600501805460ff191691151591909117905561200b836001614696565b6001600160a01b0388166000818152600660205260409020805492955090918390811061204857634e487b7160e01b600052603260045260246000fd5b60009182526020808320600692830201600201546001600160a01b038c81168552929091526040909220805491909216917f47767b1849eaa6c4ef7ded7ef231d038419150f57b2b489843838997a51e2a4591859081106120b957634e487b7160e01b600052603260045260246000fd5b600091825260209182902060069091020160030154604080516001600160a01b03909216825291810187905290810185905260600160405180910390a35b80612101816147f5565b915050611e2f565b5050949350505050565b600061211f8484612785565b506001600160401b03169050801580159061214b575061213e8461295d565b612149866001614696565b145b1561216e576000828152600760205260409020805460ff191660011790556121a2565b8015801561218357506121808461295d565b85145b156121a2576000828152600760205260409020805460ff191660011790555b5050505050565b600080546001600160a01b038381166001600160a01b0319831681178455604051919092169283917f8be0079c531659141344cd1fd0a4f28419497f9722a3daafe3b4186f6b6457e09190a35050565b6000606080612208868661298a565b915061222f828551845161221c9190614763565b6001855161222a9190614763565b6129bf565b90508351815114801561224f575083805190602001208180519060200120145b925050505b9392505050565b60008061227661226b8483612a44565b62ffffff1916612a5f565b90506000806000612288846000612b95565b6001600160401b0316905060005b818110156122d1576122a88582612cc6565b93506122b384612dd0565b6122bd90846146ae565b9250806122c9816147f5565b915050612296565b509093505050505b919050565b600080612710600954856122f2919061471b565b6122fc91906146fb565b90506000600b54828661230f9190614763565b6123199190614763565b90506000811161236b5760405162461bcd60e51b815260206004820152601f60248201527f43434275726e526f757465723a20616d6f756e7420697320746f6f206c6f770060448201526064016104eb565b6004805460055460405163a9059cbb60e01b81526001600160a01b039182169381019390935260248301859052169063a9059cbb90604401602060405180830381600087803b1580156123bd57600080fd5b505af11580156123d1573d6000803e3d6000fd5b505050506040513d601f19601f820116820180604052508101906123f59190614226565b5060048054600b5460405163a9059cbb60e01b81526001600160a01b0388811694820194909452602481019190915291169063a9059cbb90604401602060405180830381600087803b15801561244a57600080fd5b505af115801561245e573d6000803e3d6000fd5b505050506040513d601f19601f820116820180604052508101906124829190614226565b50949350505050565b6040805161010081018252600060c0820181905260e08201528881526020810188905233918101919091526001600160a01b0386166060820152841515608082015283151560a08201526008546124e29084614696565b60c08201908152600060e083018181526001600160a01b0394851682526006602081815260408085208054600181810183559187529583902088519690940290930194855590860151918401919091558401516002830180549187166001600160a01b03199283161790556060850151600384018054608088015160a0909801511515600160a81b0260ff60a81b19981515600160a01b0260ff60a01b1994909a16919094161791909116969096179490941693909317909355516004830155516005909101805491151560ff19909216919091179055505050505050565b6000606081805b60208110156126355782856125de83601f614763565b602081106125fc57634e487b7160e01b600052603260045260246000fd5b1a60f81b6040516020016126119291906144c7565b6040516020818303038152906040529250808061262d906147f5565b9150506125c8565b50506020015192915050565b6060611e2284848460405180606001604052806029815260200161486060299139612de4565b804710156126b75760405162461bcd60e51b815260206004820152601d60248201527f416464726573733a20696e73756666696369656e742062616c616e636500000060448201526064016104eb565b6000826001600160a01b03168260405160006040518083038185875af1925050503d8060008114612704576040519150601f19603f3d011682016040523d82523d6000602084013e612709565b606091505b50509050806127805760405162461bcd60e51b815260206004820152603a60248201527f416464726573733a20756e61626c6520746f2073656e642076616c75652c207260448201527f6563697069656e74206d6179206861766520726576657274656400000000000060648201526084016104eb565b505050565b600060608161279761226b8683612a44565b905062ffffff1980821614156127e85760405162461bcd60e51b8152602060048201526016602482015275151e12195b1c195c8e881d9bdd5d081a5cc81b9d5b1b60521b60448201526064016104eb565b60008060008060006127fb866000612b95565b6001600160401b0316905060005b8181101561294e5761281b8782612cc6565b955061282686612f01565b945061283185612f56565b935062ffffff19808516141561292a576017601886901c6001600160601b031614806128685750601885811c6001600160601b0316145b156128815761287e62ffffff198616600361302f565b92505b601a601886901c6001600160601b031614156128ab576128a862ffffff198616600461302f565b92505b6015601886901c6001600160601b031614156128d5576128d262ffffff198616600261302f565b92505b6021601886901c6001600160601b031614156128ff576128fc62ffffff198616600261302f565b92505b896001600160a01b0316836001600160a01b031614156129255761292286612dd0565b98505b61293c565b61293962ffffff19851661303d565b97505b80612946816147f5565b915050612809565b505050505050505b9250929050565b60008061296d61226b8483612a44565b905061297a816000612b95565b6001600160401b03169392505050565b60606000612998848461308d565b905060006129a5826130b4565b90506129b662ffffff19821661303d565b95945050505050565b60606000835b6129d0846001614696565b811015612a3b578581815181106129f757634e487b7160e01b600052603260045260246000fd5b602001015160f81c60f81b91508282604051602001612a179291906144c7565b60405160208183030381529060405292508080612a33906147f5565b9150506129c5565b50509392505050565b8151600090602084016129b664ffffffffff851682846130fe565b60008181612a75815b62ffffff19841690613142565b50601884901c6001600160601b0316612a955762ffffff195b9250612b8e565b6000612aa2856000612b95565b9050601885901c6001600160601b03166001600160401b038216612acf5762ffffff195b94505050612b8e565b6000612ada8361321c565b60ff16905060005b836001600160401b0316811015612b5657828210612b0b5762ffffff195b965050505050612b8e565b6000612b2b612b1a8486614763565b600e5b62ffffff198c169190613275565b9050612b36816132a8565b612b409084614696565b9250508080612b4e906147f5565b915050612ae2565b50818114612b6e5762ffffff195b9550505050612b8e565b612b88600f5b60d81b6301000000600160d81b0389161790565b95505050505b5050919050565b600080612baa62ffffff1985168460016132f1565b905060fc8111612bbb579050610ee8565b8060fd1415612c1957612be1612bd2846001614696565b62ffffff198616906002613321565b9150612bec8261321c565b60ff16600314612c1457612c12612c0d62ffffff198616856003600061346b565b6134da565b505b612cbf565b8060fe1415612c6b57612c3f612c30846001614696565b62ffffff198616906004613321565b9150612c4a8261321c565b60ff16600514612c1457612c12612c0d62ffffff198616856005600061346b565b8060ff1415612cbf57612c91612c82846001614696565b62ffffff198616906008613321565b9150612c9c8261321c565b60ff16600914612cbf57612cbd612c0d62ffffff198616856009600061346b565b505b5092915050565b600080612cd4846000612b95565b6001600160401b03169050601884901c6001600160601b0316818410612d305760405162461bcd60e51b81526020600482015260116024820152702b37baba103932b0b21037bb32b9393ab760791b60448201526064016104eb565b6000612d3b8361321c565b60ff1690506000805b86811015612d9157612d68612d598486614763565b62ffffff198a1690600e613275565b9150612d73826132a8565b612d7d9084614696565b9250612d8a600182614696565b9050612d44565b50612dae612d9f8385614763565b62ffffff19891690600e613275565b90506000612dbb826132a8565b9050611c9f62ffffff1989168483600d61346b565b6000610ee862ffffff198316826008613321565b606082471015612e455760405162461bcd60e51b815260206004820152602660248201527f416464726573733a20696e73756666696369656e742062616c616e636520666f6044820152651c8818d85b1b60d21b60648201526084016104eb565b843b612e935760405162461bcd60e51b815260206004820152601d60248201527f416464726573733a2063616c6c20746f206e6f6e2d636f6e747261637400000060448201526064016104eb565b600080866001600160a01b03168587604051612eaf91906144ab565b60006040518083038185875af1925050503d8060008114612eec576040519150601f19603f3d011682016040523d82523d6000602084013e612ef1565b606091505b5091509150611e1d828286613557565b600081600d612f0f81612a68565b506000612f1d856008612b95565b90506129b6600882612f2e8461321c565b60ff16612f3b91906146ae565b6001600160401b031660075b62ffffff19891692919061346b565b6000816007612f6481612a68565b506000612f72856000612b95565b90506000612f8962ffffff198716600360016132f1565b90506053826001600160401b03161180612fac57506004826001600160401b0316105b80612fc95750612fc462ffffff1987166001806132f1565b606a14155b80612ff95750612fda60038361477a565b6001600160401b0316612ff662ffffff198816600360016132f1565b14155b156130085762ffffff19612ac6565b61302562ffffff19871660046001600160401b038416600c61346b565b9695505050505050565b6000612254838360146132f1565b60606000806130558460181c6001600160601b031690565b60405193508392506001600160601b0316905061307c84613077846020614696565b613590565b508181016020016040529052919050565b6000806130a861309d8583612a44565b62ffffff19166136e8565b9050611e2281846137d9565b60008160046130c281612a68565b5060006130d0856024612b95565b90506129b66024826130e18461321c565b60ff166130ee91906146ae565b6001600160401b03166002612f47565b60008061310b84846138ef565b905060405181111561311b575060005b8061312d5762ffffff19915050612254565b5050606092831b9190911790911b1760181b90565b600061314e8383613944565b61321557600061316d6131618560d81c90565b64ffffffffff16613967565b91505060006131828464ffffffffff16613967565b6040517f5479706520617373657274696f6e206661696c65642e20476f7420307800000060208201526001600160b01b031960b086811b8216603d8401526c05c408af0e0cac6e8cac84060f609b1b604784015283901b16605482015290925060009150605e015b60405160208183030381529060405290508060405162461bcd60e51b81526004016104eb9190614526565b5090919050565b600060fc826001600160401b031611613237575060016122d9565b61ffff826001600160401b031611613251575060036122d9565b63ffffffff826001600160401b03161161326d575060056122d9565b5060096122d9565b6000611e22846132a1856132928860181c6001600160601b031690565b6001600160601b031690613a27565b858561346b565b600081600e6132b681612a68565b5060006132c4856008612b95565b9050806001600160401b03166132d98261321c565b60ff166132e69190614696565b6129b6906008614696565b60006132fe8260206147a2565b61330990600861473a565b60ff16613317858585613a7d565b901c949350505050565b6000611e22613331858585613a7d565b600881811c7eff00ff00ff00ff00ff00ff00ff00ff00ff00ff00ff00ff00ff00ff00ff00ff167fff00ff00ff00ff00ff00ff00ff00ff00ff00ff00ff00ff00ff00ff00ff00ff009290911b9190911617601081811c7dffff0000ffff0000ffff0000ffff0000ffff0000ffff0000ffff0000ffff167fffff0000ffff0000ffff0000ffff0000ffff0000ffff0000ffff0000ffff00009290911b9190911617602081811c7bffffffff00000000ffffffff00000000ffffffff00000000ffffffff167fffffffff00000000ffffffff00000000ffffffff00000000ffffffff000000009290911b9190911617604081811c77ffffffffffffffff0000000000000000ffffffffffffffff1677ffffffffffffffff0000000000000000ffffffffffffffff199290911b9190911617608081811c91901b1790565b6000806134818660781c6001600160601b031690565b6001600160601b0316905061349586613bd6565b6134a9856134a384896138ef565b906138ef565b11156134bc5762ffffff19915050611e22565b6134c681866138ef565b90506130258364ffffffffff1682866130fe565b606060006135046134ff62ffffff19851683601887901c6001600160601b03166132f1565b613967565b6040517f4e6f6e2d6d696e696d616c2076617220696e742e20476f74203078000000000060208201526dffffffffffffffffffffffffffff19607083901b16603b82015290925060009150604d016131ea565b60608315613566575081612254565b8251156135765782518084602001fd5b8160405162461bcd60e51b81526004016104eb9190614526565b600062ffffff1980841614156135f95760405162461bcd60e51b815260206004820152602860248201527f54797065644d656d566965772f636f7079546f202d204e756c6c20706f696e7460448201526732b9103232b932b360c11b60648201526084016104eb565b61360283613c17565b6136625760405162461bcd60e51b815260206004820152602b60248201527f54797065644d656d566965772f636f7079546f202d20496e76616c696420706f60448201526a34b73a32b9103232b932b360a91b60648201526084016104eb565b60006136778460181c6001600160601b031690565b6001600160601b0316905060006136978560781c6001600160601b031690565b6001600160601b0316905060006040519050848111156136b75760206060fd5b8285848460045afa506130256136cd8760d81c90565b64ffffffffff60601b606091821b168717901b841760181b90565b600081816136f581612a68565b50601884901c6001600160601b03166137125762ffffff19612a8e565b600061371f856000612b95565b9050601885901c6001600160601b03166001600160401b0382166137475762ffffff19612ac6565b60006137528361321c565b60ff16905060005b836001600160401b03168110156137bd5782821061377c5762ffffff19612b00565b600061379261378b8486614763565b6005612b1d565b905061379d81613c55565b6137a79084614696565b92505080806137b5906147f5565b91505061375a565b508181146137cf5762ffffff19612b64565b612b886006612b74565b60008260066137e781612a68565b5060006137f5866000612b95565b6001600160401b03169050601886901c6001600160601b03168186106138505760405162461bcd60e51b815260206004820152601060248201526f2b34b7103932b0b21037bb32b9393ab760811b60448201526064016104eb565b600061385b8361321c565b60ff1690506000805b888110156138b1576138886138798486614763565b62ffffff198c16906005613275565b915061389382613c55565b61389d9084614696565b92506138aa600182614696565b9050613864565b506138bf61378b8385614763565b905060006138cc82613c55565b90506138e162ffffff198b168483600461346b565b9a9950505050505050505050565b6000826138fc8382614696565b9150811015610ee85760405162461bcd60e51b815260206004820152601460248201527364732d6d6174682d6164642d6f766572666c6f7760601b60448201526064016104eb565b60008164ffffffffff166139588460d81c90565b64ffffffffff16149392505050565b600080601f5b600f8160ff1611156139c557600061398682600861473a565b60ff1685901c905061399781613ca9565b61ffff16841793508160ff166010146139b257601084901b93505b506139be6001826147a2565b905061396d565b50600f5b60ff8160ff161015613a215760006139e282600861473a565b60ff1685901c90506139f381613ca9565b61ffff16831792508160ff16600014613a0e57601083901b92505b50613a1a6001826147a2565b90506139c9565b50915091565b600082613a348382614763565b9150811115610ee85760405162461bcd60e51b815260206004820152601560248201527464732d6d6174682d7375622d756e646572666c6f7760581b60448201526064016104eb565b600060ff8216613a8f57506000612254565b613aa28460181c6001600160601b031690565b6001600160601b0316613ab88460ff85166138ef565b1115613b1c57613b03613ad48560781c6001600160601b031690565b6001600160601b0316613af08660181c6001600160601b031690565b6001600160601b0316858560ff16613cd9565b60405162461bcd60e51b81526004016104eb9190614526565b60208260ff161115613b965760405162461bcd60e51b815260206004820152603a60248201527f54797065644d656d566965772f696e646578202d20417474656d70746564207460448201527f6f20696e646578206d6f7265207468616e20333220627974657300000000000060648201526084016104eb565b600882026000613baf8660781c6001600160601b031690565b6001600160601b031690506000600160ff1b60001984011d91909501511695945050505050565b6000613beb8260181c6001600160601b031690565b613bfe8360781c6001600160601b031690565b613c0891906146d9565b6001600160601b031692915050565b6000613c238260d81c90565b64ffffffffff1664ffffffffff1415613c3e575060006122d9565b6000613c4983613bd6565b60405110199392505050565b6000816005613c6381612a68565b506000613c71856024612b95565b9050806001600160401b0316613c868261321c565b60ff16613c939190614696565b613c9e906024614696565b6129b6906004614696565b6000613cbb60048360ff16901c613e03565b60ff161760081b62ffff0016613cd082613e03565b60ff1617919050565b60606000613ce686613967565b9150506000613cf486613967565b9150506000613d0286613967565b9150506000613d1086613967565b604080517f54797065644d656d566965772f696e646578202d204f76657272616e20746865602082015274040ecd2caee5c40a6d8d2c6ca40d2e640c2e84060f605b1b818301526001600160d01b031960d098891b811660558301526e040eed2e8d040d8cadccee8d04060f608b1b605b830181905297891b8116606a8301527f2e20417474656d7074656420746f20696e646578206174206f666673657420306070830152600f60fb1b609083015295881b861660918201526097810196909652951b90921660a68401525050601760f91b60ac8201528151808203608d01815260ad90910190915295945050505050565b600060f08083179060ff82161415613e1f5760309150506122d9565b8060ff1660f11415613e355760319150506122d9565b8060ff1660f21415613e4b5760329150506122d9565b8060ff1660f31415613e615760339150506122d9565b8060ff1660f41415613e775760349150506122d9565b8060ff1660f51415613e8d5760359150506122d9565b8060ff1660f61415613ea35760369150506122d9565b8060ff1660f71415613eb95760379150506122d9565b8060ff1660f81415613ecf5760389150506122d9565b8060ff1660f91415613ee55760399150506122d9565b8060ff1660fa1415613efb5760619150506122d9565b8060ff1660fb1415613f115760629150506122d9565b8060ff1660fc1415613f275760639150506122d9565b8060ff1660fd1415613f3d5760649150506122d9565b8060ff1660fe1415613f535760659150506122d9565b8060ff1660ff1415613f695760669150506122d9565b50919050565b80356122d98161483c565b80356001600160e01b0319811681146122d957600080fd5b60008083601f840112613fa3578182fd5b5081356001600160401b03811115613fb9578182fd5b60208301915083602082850101111561295657600080fd5b600082601f830112613fe1578081fd5b8135613ff4613fef8261466f565b61463f565b818152846020838601011115614008578283fd5b816020850160208301379081016020019190915292915050565b600060208284031215614033578081fd5b81356122548161483c565b60006020828403121561404f578081fd5b81516122548161483c565b6000806040838503121561406c578081fd5b82356140778161483c565b91506020838101356001600160401b0380821115614093578384fd5b818601915086601f8301126140a6578384fd5b8135818111156140b8576140b8614826565b83810291506140c884830161463f565b8181528481019084860184860187018b10156140e2578788fd5b8795505b838610156141045780358352600195909501949186019186016140e6565b508096505050505050509250929050565b60008060408385031215614127578182fd5b82356141328161483c565b946020939093013593505050565b60008060008060008060008060008060006101208c8e031215614161578687fd5b61416a8c613f6f565b9a5060208c0135995061417f60408d01613f7a565b98506001600160401b038060608e01351115614199578788fd5b6141a98e60608f01358f01613fd1565b98508060808e013511156141bb578788fd5b6141cb8e60808f01358f01613f92565b90985096506141dc60a08e01613f7a565b955060c08d013594508060e08e013511156141f5578384fd5b506142068d60e08e01358e01613f92565b81945080935050506101008c013590509295989b509295989b9093969950565b600060208284031215614237578081fd5b815161225481614851565b600060208284031215614253578081fd5b5051919050565b6000806000806000806000806000806000806101408d8f03121561427c578182fd5b6142858d613f7a565b9b506001600160401b0360208e0135111561429e578182fd5b6142ae8e60208f01358f01613fd1565b9a506001600160401b0360408e013511156142c7578182fd5b6142d78e60408f01358f01613f92565b909a5098506142e860608e01613f7a565b975060808d013596506001600160401b0360a08e01351115614308578182fd5b6143188e60a08f01358f01613f92565b909650945060c08d0135935061433060e08e01613f6f565b92506101008d013591506101208d013590509295989b509295989b509295989b565b600060208284031215614363578081fd5b81516001600160401b03811115614378578182fd5b8201601f81018413614388578182fd5b8051614396613fef8261466f565b8181528560208385010111156143aa578384fd5b6129b68260208301602086016147c5565b6000602082840312156143cc578081fd5b5035919050565b600080600080600060a086880312156143ea578283fd5b8535945060208601356143fc8161483c565b9350604086013561440c81614851565b9250606086013561441c81614851565b9150608086013561442c8161483c565b809150509295509295909350565b600081518084526144528160208601602086016147c5565b601f01601f19169290920160200192915050565b600063ffffffff60e01b80881683528651614488816004860160208b016147c5565b830185876004830137931693909201600481019390935250506008019392505050565b600082516144bd8184602087016147c5565b9190910192915050565b600083516144d98184602088016147c5565b6001600160f81b0319939093169190920190815260010192915050565b600085825284602083015260806040830152614515608083018561443a565b905082606083015295945050505050565b600060208252612254602083018461443a565b60208082526029908201527f43434275726e526f757465723a206c6f636b65722061646472657373206973206040820152681b9bdd081d985b1a5960ba1b606082015260800190565b60208082526031908201527f43434275726e526f757465723a207061796261636b20646561646c696e652068604082015270185cc81b9bdd081c185cdcd959081e595d607a1b606082015260800190565b6020808252818101527f4f776e61626c653a2063616c6c6572206973206e6f7420746865206f776e6572604082015260600190565b6020808252601f908201527f5265656e7472616e637947756172643a207265656e7472616e742063616c6c00604082015260600190565b604051601f8201601f191681016001600160401b038111828210171561466757614667614826565b604052919050565b60006001600160401b0382111561468857614688614826565b50601f01601f191660200190565b600082198211156146a9576146a9614810565b500190565b60006001600160401b038083168185168083038211156146d0576146d0614810565b01949350505050565b60006001600160601b038083168185168083038211156146d0576146d0614810565b60008261471657634e487b7160e01b81526012600452602481fd5b500490565b600081600019048311821515161561473557614735614810565b500290565b600060ff821660ff84168160ff048111821515161561475b5761475b614810565b029392505050565b60008282101561477557614775614810565b500390565b60006001600160401b038381169083168181101561479a5761479a614810565b039392505050565b600060ff821660ff8416808210156147bc576147bc614810565b90039392505050565b60005b838110156147e05781810151838201526020016147c8565b838111156147ef576000848401525b50505050565b600060001982141561480957614809614810565b5060010190565b634e487b7160e01b600052601160045260246000fd5b634e487b7160e01b600052604160045260246000fd5b6001600160a01b038116811461160e57600080fd5b801515811461160e57600080fdfe416464726573733a206c6f772d6c6576656c2063616c6c20776974682076616c7565206661696c6564a2646970667358221220b0e13b1ec5b5b205b3c715c871edcaa28dc3689d3e0d203086e3ce0b08460ded64736f6c63430008020033",
  "devdoc": {
    "kind": "dev",
    "methods": {
      "burnProof(bytes4,bytes,bytes,bytes4,uint256,bytes,uint256,address,uint256,uint256)": {
        "details": "Makes isTransferred flag true for the paid requests",
        "params": {
          "_blockNumber": "Height of the block containing the burn transaction",
          "_endIndex": "Index to finish searching for unpaid burn requests in the list",
          "_index": "Index of transaction containing the burn transaction in the block",
          "_intermediateNodes": "Merkle inclusion proof for transaction containing the burn transaction",
          "_lockerScriptHash": "Locker's address on Bitcoin that this burn request belongs to",
          "_locktime": "Lock time of the transaction containing the burn transaction",
          "_startIndex": "Index to start searching for unpaid burn requests in the list",
          "_version": "Version of the transaction containing the burn transaction",
          "_vin": "Inputs of the transaction containing the burn transaction",
          "_vout": "Outputs of the transaction containing the burn transaction"
        },
        "returns": {
          "_0": ""
        }
      },
      "ccBurn(uint256,address,bool,bool,address)": {
        "details": "After submitting the burn request, lockers have a limited time to send BTC",
        "params": {
          "_amount": "Amount of wrapped tokens that user wants to burn",
          "_isScriptHash": "Whether the user's Bitcoin address is script hash or pubKey hash",
          "_isSegwit": "Whether the user's Bitcoin address is Segwit or nonSegwit",
          "_lockerScriptHash": "Locker's address on Bitcoin",
          "_userPubKeyHash": "Address of user on Bitcoin"
        },
        "returns": {
          "_0": "True if request is recorded successfully"
        }
      },
      "constructor": {
        "details": "Lockers use this contract for coordinating of burning wrapped tokens",
        "params": {
          "_bitcoinFee": "Transaction fee on Bitcoin that lockers pay",
          "_lockers": "Address of lockers contract",
          "_protocolPercentageFee": "Percentage of tokens that user pays to protocol for burning",
          "_relay": "Address of relay contract",
          "_transferDeadline": "Dealine of sending BTC to user",
          "_treasury": "Address of the treasury of the protocol"
        }
      },
      "disputeBurn(address,uint256[])": {
        "details": "@param _lockerScriptHash locker's Bitcoin address that the unpaid request belongs to",
        "params": {
          "_indices": "Array of indices of the requests for that locker"
        },
        "returns": {
          "_0": "True if dispute is successfull"
        }
      },
      "disputeLocker(address,uint256,bytes4,bytes,bytes,bytes4,uint256,bytes,uint256)": {
        "details": "@param _lockerScriptHash                Suspicious locker's script hash",
        "params": {
          "_blockNumber": "The block number in which the malicious tx has happened",
          "_index": "Index of transaction containing the malicious tx",
          "_inputIndex": "Index of the input in vin that is from the locker",
          "_intermediateNodes": "Merkle inclusion proof for the malicious transaction",
          "_locktime": "Lock time of the malicious transaction",
          "_version": "Version of the malicious transaction",
          "_vin": "Inputs of the malicious transaction",
          "_vout": "Outputs of the malicious transaction"
        },
        "returns": {
          "_0": "True if dispute is successfull"
        }
      },
      "isTransferred(address,uint256)": {
        "params": {
          "_index": "The index number of the request for the locker",
          "_lockerTargetAddress": "Locker's address on the target chain"
        }
      },
      "owner()": {
        "details": "Returns the address of the current owner."
      },
      "renounceOwnership()": {
        "details": "Leaves the contract without owner. It will not be possible to call `onlyOwner` functions anymore. Can only be called by the current owner. NOTE: Renouncing ownership will leave the contract without an owner, thereby removing any functionality that is only available to the owner."
      },
      "setBitcoinFee(uint256)": {
        "details": "Only owner can call this",
        "params": {
          "_bitcoinFee": "The new Bitcoin transaction fee"
        }
      },
      "setLockers(address)": {
        "details": "Only owner can call this",
        "params": {
          "_lockers": "The new lockers contract address"
        }
      },
      "setProtocolPercentageFee(uint256)": {
        "details": "Only owner can call this",
        "params": {
          "_protocolPercentageFee": "The new protocol percentage fee"
        }
      },
      "setRelay(address)": {
        "details": "Only owner can call this",
        "params": {
          "_relay": "The new relay contract address"
        }
      },
      "setSlasherPercentageReward(uint256)": {
        "details": "Only owner can call this",
        "params": {
          "_slasherPercentageReward": "The new slasher percentage reward"
        }
      },
      "setTeleBTC(address)": {
        "details": "Only owner can call this",
        "params": {
          "_teleBTC": "The new wrapped token contract address"
        }
      },
      "setTransferDeadline(uint256)": {
        "details": "Only owner can call this",
        "params": {
          "_transferDeadline": "The new transfer deadline"
        }
      },
      "setTreasury(address)": {
        "details": "Only owner can call this",
        "params": {
          "_treasury": "The new treasury address"
        }
      },
      "transferOwnership(address)": {
        "details": "Transfers ownership of the contract to a new account (`newOwner`). Can only be called by the current owner."
      }
    },
    "version": 1
  },
  "userdoc": {
    "events": {
      "CCBurn(address,address,bool,bool,uint256,uint256,address,uint256,uint256)": {
        "notice": "Emits when a burn request gets submitted"
      },
      "LockerDispute(address,uint256,bytes32)": {
        "notice": "Emits when a locker gets slashed for withdrawing BTC"
      },
      "PaidCCBurn(address,address,uint256,address,uint256)": {
        "notice": "Emits when a burn request gets executed"
      }
    },
    "kind": "user",
    "methods": {
      "burnProof(bytes4,bytes,bytes,bytes4,uint256,bytes,uint256,address,uint256,uint256)": {
        "notice": "Checks the correctness of burn proof"
      },
      "ccBurn(uint256,address,bool,bool,address)": {
        "notice": "Burns wrapped tokens and records the burn request"
      },
      "constructor": {
        "notice": "Handles cross-chain burn requests"
      },
      "disputeBurn(address,uint256[])": {
        "notice": "Slashes lockers if they did not paid burn request before its deadline"
      },
      "disputeLocker(address,uint256,bytes4,bytes,bytes,bytes4,uint256,bytes,uint256)": {
        "notice": "Slashes a locker if they issue a tx that doesn't match any burn request"
      },
      "isTransferred(address,uint256)": {
        "notice": "Shows if a burn request has been done or not"
      },
      "setBitcoinFee(uint256)": {
        "notice": "Changes Bitcoin transaction fee"
      },
      "setLockers(address)": {
        "notice": "Changes lockers contract address"
      },
      "setProtocolPercentageFee(uint256)": {
        "notice": "Changes protocol percentage fee for burning tokens"
      },
      "setRelay(address)": {
        "notice": "Changes relay contract address"
      },
      "setSlasherPercentageReward(uint256)": {
        "notice": "Changes slasher percentage reward for disputing lockers"
      },
      "setTeleBTC(address)": {
        "notice": "Changes wrapped token contract address"
      },
      "setTransferDeadline(uint256)": {
        "notice": "Changes deadline for sending tokens"
      },
      "setTreasury(address)": {
        "notice": "Changes protocol treasury address"
      }
    },
    "version": 1
  },
  "storageLayout": {
    "storage": [
      {
        "astId": 807,
        "contract": "contracts/routers/CCBurnRouter.sol:CCBurnRouter",
        "label": "_owner",
        "offset": 0,
        "slot": "0",
        "type": "t_address"
      },
      {
        "astId": 1006,
        "contract": "contracts/routers/CCBurnRouter.sol:CCBurnRouter",
        "label": "_status",
        "offset": 0,
        "slot": "1",
        "type": "t_uint256"
      },
      {
        "astId": 14038,
        "contract": "contracts/routers/CCBurnRouter.sol:CCBurnRouter",
        "label": "relay",
        "offset": 0,
        "slot": "2",
        "type": "t_address"
      },
      {
        "astId": 14041,
        "contract": "contracts/routers/CCBurnRouter.sol:CCBurnRouter",
        "label": "lockers",
        "offset": 0,
        "slot": "3",
        "type": "t_address"
      },
      {
        "astId": 14044,
        "contract": "contracts/routers/CCBurnRouter.sol:CCBurnRouter",
        "label": "teleBTC",
        "offset": 0,
        "slot": "4",
        "type": "t_address"
      },
      {
        "astId": 14047,
        "contract": "contracts/routers/CCBurnRouter.sol:CCBurnRouter",
        "label": "treasury",
        "offset": 0,
        "slot": "5",
        "type": "t_address"
      },
      {
        "astId": 14053,
        "contract": "contracts/routers/CCBurnRouter.sol:CCBurnRouter",
        "label": "burnRequests",
        "offset": 0,
        "slot": "6",
        "type": "t_mapping(t_address,t_array(t_struct(burnRequest)18014_storage)dyn_storage)"
      },
      {
        "astId": 14057,
        "contract": "contracts/routers/CCBurnRouter.sol:CCBurnRouter",
        "label": "isPaid",
        "offset": 0,
        "slot": "7",
        "type": "t_mapping(t_bytes32,t_bool)"
      },
      {
        "astId": 14060,
        "contract": "contracts/routers/CCBurnRouter.sol:CCBurnRouter",
        "label": "transferDeadline",
        "offset": 0,
        "slot": "8",
        "type": "t_uint256"
      },
      {
        "astId": 14063,
        "contract": "contracts/routers/CCBurnRouter.sol:CCBurnRouter",
        "label": "protocolPercentageFee",
        "offset": 0,
        "slot": "9",
        "type": "t_uint256"
      },
      {
        "astId": 14066,
        "contract": "contracts/routers/CCBurnRouter.sol:CCBurnRouter",
        "label": "slasherPercentageReward",
        "offset": 0,
        "slot": "10",
        "type": "t_uint256"
      },
      {
        "astId": 14069,
        "contract": "contracts/routers/CCBurnRouter.sol:CCBurnRouter",
        "label": "bitcoinFee",
        "offset": 0,
        "slot": "11",
        "type": "t_uint256"
      }
    ],
    "types": {
      "t_address": {
        "encoding": "inplace",
        "label": "address",
        "numberOfBytes": "20"
      },
      "t_array(t_struct(burnRequest)18014_storage)dyn_storage": {
        "base": "t_struct(burnRequest)18014_storage",
        "encoding": "dynamic_array",
        "label": "struct ICCBurnRouter.burnRequest[]",
        "numberOfBytes": "32"
      },
      "t_bool": {
        "encoding": "inplace",
        "label": "bool",
        "numberOfBytes": "1"
      },
      "t_bytes32": {
        "encoding": "inplace",
        "label": "bytes32",
        "numberOfBytes": "32"
      },
      "t_mapping(t_address,t_array(t_struct(burnRequest)18014_storage)dyn_storage)": {
        "encoding": "mapping",
        "key": "t_address",
        "label": "mapping(address => struct ICCBurnRouter.burnRequest[])",
        "numberOfBytes": "32",
        "value": "t_array(t_struct(burnRequest)18014_storage)dyn_storage"
      },
      "t_mapping(t_bytes32,t_bool)": {
        "encoding": "mapping",
        "key": "t_bytes32",
        "label": "mapping(bytes32 => bool)",
        "numberOfBytes": "32",
        "value": "t_bool"
      },
      "t_struct(burnRequest)18014_storage": {
        "encoding": "inplace",
        "label": "struct ICCBurnRouter.burnRequest",
        "members": [
          {
            "astId": 17999,
            "contract": "contracts/routers/CCBurnRouter.sol:CCBurnRouter",
            "label": "amount",
            "offset": 0,
            "slot": "0",
            "type": "t_uint256"
          },
          {
            "astId": 18001,
            "contract": "contracts/routers/CCBurnRouter.sol:CCBurnRouter",
            "label": "remainedAmount",
            "offset": 0,
            "slot": "1",
            "type": "t_uint256"
          },
          {
            "astId": 18003,
            "contract": "contracts/routers/CCBurnRouter.sol:CCBurnRouter",
            "label": "sender",
            "offset": 0,
            "slot": "2",
            "type": "t_address"
          },
          {
            "astId": 18005,
            "contract": "contracts/routers/CCBurnRouter.sol:CCBurnRouter",
            "label": "userPubKeyHash",
            "offset": 0,
            "slot": "3",
            "type": "t_address"
          },
          {
            "astId": 18007,
            "contract": "contracts/routers/CCBurnRouter.sol:CCBurnRouter",
            "label": "isScriptHash",
            "offset": 20,
            "slot": "3",
            "type": "t_bool"
          },
          {
            "astId": 18009,
            "contract": "contracts/routers/CCBurnRouter.sol:CCBurnRouter",
            "label": "isSegwit",
            "offset": 21,
            "slot": "3",
            "type": "t_bool"
          },
          {
            "astId": 18011,
            "contract": "contracts/routers/CCBurnRouter.sol:CCBurnRouter",
            "label": "deadline",
            "offset": 0,
            "slot": "4",
            "type": "t_uint256"
          },
          {
            "astId": 18013,
            "contract": "contracts/routers/CCBurnRouter.sol:CCBurnRouter",
            "label": "isTransferred",
            "offset": 0,
            "slot": "5",
            "type": "t_bool"
          }
        ],
        "numberOfBytes": "192"
      },
      "t_uint256": {
        "encoding": "inplace",
        "label": "uint256",
        "numberOfBytes": "32"
      }
    }
  }
}