{
  "address": "0x8dc9ADC41465a768e1755EC14bE6024393946741",
  "abi": [
    {
      "inputs": [
        {
          "internalType": "address",
          "name": "_relay",
          "type": "address"
        },
        {
          "internalType": "address",
          "name": "_lockers",
          "type": "address"
        },
        {
          "internalType": "address",
          "name": "_treasury",
          "type": "address"
        },
        {
          "internalType": "uint256",
          "name": "_transferDeadline",
          "type": "uint256"
        },
        {
          "internalType": "uint256",
          "name": "_protocolPercentageFee",
          "type": "uint256"
        },
        {
          "internalType": "uint256",
          "name": "_slasherPercentageReward",
          "type": "uint256"
        },
        {
          "internalType": "uint256",
          "name": "_bitcoinFee",
          "type": "uint256"
        }
      ],
      "stateMutability": "nonpayable",
      "type": "constructor"
    },
    {
      "anonymous": false,
      "inputs": [
        {
          "indexed": true,
          "internalType": "address",
          "name": "userTargetAddress",
          "type": "address"
        },
        {
          "indexed": false,
          "internalType": "bytes",
          "name": "userScript",
          "type": "bytes"
        },
        {
          "indexed": false,
          "internalType": "enum ScriptTypes",
          "name": "scriptType",
          "type": "uint8"
        },
        {
          "indexed": false,
          "internalType": "uint256",
          "name": "amount",
          "type": "uint256"
        },
        {
          "indexed": false,
          "internalType": "uint256",
          "name": "burntAmount",
          "type": "uint256"
        },
        {
          "indexed": true,
          "internalType": "address",
          "name": "lockerTargetAddress",
          "type": "address"
        },
        {
          "indexed": false,
          "internalType": "uint256",
          "name": "index",
          "type": "uint256"
        },
        {
          "indexed": true,
          "internalType": "uint256",
          "name": "deadline",
          "type": "uint256"
        }
      ],
      "name": "CCBurn",
      "type": "event"
    },
    {
      "anonymous": false,
      "inputs": [
        {
          "indexed": false,
          "internalType": "address",
          "name": "_lockerTargetAddress",
          "type": "address"
        },
        {
          "indexed": false,
          "internalType": "uint256",
          "name": "_blockNumber",
          "type": "uint256"
        },
        {
          "indexed": false,
          "internalType": "bytes32",
          "name": "txId",
          "type": "bytes32"
        },
        {
          "indexed": false,
          "internalType": "uint256",
          "name": "amount",
          "type": "uint256"
        }
      ],
      "name": "LockerDispute",
      "type": "event"
    },
    {
      "anonymous": false,
      "inputs": [
        {
          "indexed": true,
          "internalType": "address",
          "name": "previousOwner",
          "type": "address"
        },
        {
          "indexed": true,
          "internalType": "address",
          "name": "newOwner",
          "type": "address"
        }
      ],
      "name": "OwnershipTransferred",
      "type": "event"
    },
    {
      "anonymous": false,
      "inputs": [
        {
          "indexed": true,
          "internalType": "address",
          "name": "userTargetAddress",
          "type": "address"
        },
        {
          "indexed": false,
          "internalType": "bytes",
          "name": "userScript",
          "type": "bytes"
        },
        {
          "indexed": false,
          "internalType": "uint256",
          "name": "burntAmount",
          "type": "uint256"
        },
        {
          "indexed": true,
          "internalType": "address",
          "name": "lockerTargetAddress",
          "type": "address"
        },
        {
          "indexed": false,
          "internalType": "uint256",
          "name": "index",
          "type": "uint256"
        }
      ],
      "name": "PaidCCBurn",
      "type": "event"
    },
    {
      "inputs": [],
      "name": "bitcoinFee",
      "outputs": [
        {
          "internalType": "uint256",
          "name": "",
          "type": "uint256"
        }
      ],
      "stateMutability": "view",
      "type": "function"
    },
    {
      "inputs": [
        {
          "internalType": "bytes4",
          "name": "_version",
          "type": "bytes4"
        },
        {
          "internalType": "bytes",
          "name": "_vin",
          "type": "bytes"
        },
        {
          "internalType": "bytes",
          "name": "_vout",
          "type": "bytes"
        },
        {
          "internalType": "bytes4",
          "name": "_locktime",
          "type": "bytes4"
        },
        {
          "internalType": "uint256",
          "name": "_blockNumber",
          "type": "uint256"
        },
        {
          "internalType": "bytes",
          "name": "_intermediateNodes",
          "type": "bytes"
        },
        {
          "internalType": "uint256",
          "name": "_index",
          "type": "uint256"
        },
        {
          "internalType": "bytes",
          "name": "_lockerLockingScript",
          "type": "bytes"
        },
        {
          "internalType": "uint256[]",
          "name": "_burnReqIndexes",
          "type": "uint256[]"
        },
        {
          "internalType": "uint256[]",
          "name": "_voutIndexes",
          "type": "uint256[]"
        }
      ],
      "name": "burnProof",
      "outputs": [
        {
          "internalType": "bool",
          "name": "",
          "type": "bool"
        }
      ],
      "stateMutability": "payable",
      "type": "function"
    },
    {
      "inputs": [
        {
          "internalType": "address",
          "name": "",
          "type": "address"
        },
        {
          "internalType": "uint256",
          "name": "",
          "type": "uint256"
        }
      ],
      "name": "burnRequests",
      "outputs": [
        {
          "internalType": "uint256",
          "name": "amount",
          "type": "uint256"
        },
        {
          "internalType": "uint256",
          "name": "burntAmount",
          "type": "uint256"
        },
        {
          "internalType": "address",
          "name": "sender",
          "type": "address"
        },
        {
          "internalType": "bytes",
          "name": "userScript",
          "type": "bytes"
        },
        {
          "internalType": "uint256",
          "name": "deadline",
          "type": "uint256"
        },
        {
          "internalType": "bool",
          "name": "isTransferred",
          "type": "bool"
        },
        {
          "internalType": "enum ScriptTypes",
          "name": "scriptType",
          "type": "uint8"
        }
      ],
      "stateMutability": "view",
      "type": "function"
    },
    {
      "inputs": [
        {
          "internalType": "uint256",
          "name": "_amount",
          "type": "uint256"
        },
        {
          "internalType": "bytes",
          "name": "_userScript",
          "type": "bytes"
        },
        {
          "internalType": "enum ScriptTypes",
          "name": "_scriptType",
          "type": "uint8"
        },
        {
          "internalType": "bytes",
          "name": "_lockerLockingScript",
          "type": "bytes"
        }
      ],
      "name": "ccBurn",
      "outputs": [
        {
          "internalType": "uint256",
          "name": "_burntAmount",
          "type": "uint256"
        }
      ],
      "stateMutability": "nonpayable",
      "type": "function"
    },
    {
      "inputs": [
        {
          "internalType": "bytes",
          "name": "_lockerLockingScript",
          "type": "bytes"
        },
        {
          "internalType": "uint256[]",
          "name": "_indices",
          "type": "uint256[]"
        }
      ],
      "name": "disputeBurn",
      "outputs": [
        {
          "internalType": "bool",
          "name": "",
          "type": "bool"
        }
      ],
      "stateMutability": "nonpayable",
      "type": "function"
    },
    {
      "inputs": [
        {
          "internalType": "bytes",
          "name": "_lockerLockingScript",
          "type": "bytes"
        },
        {
          "internalType": "bytes4[]",
          "name": "_versions",
          "type": "bytes4[]"
        },
        {
          "internalType": "bytes",
          "name": "_inputVin",
          "type": "bytes"
        },
        {
          "internalType": "bytes",
          "name": "_inputVout",
          "type": "bytes"
        },
        {
          "internalType": "bytes",
          "name": "_outputVin",
          "type": "bytes"
        },
        {
          "internalType": "bytes",
          "name": "_outputVout",
          "type": "bytes"
        },
        {
          "internalType": "bytes4[]",
          "name": "_locktimes",
          "type": "bytes4[]"
        },
        {
          "internalType": "bytes",
          "name": "_inputIntermediateNodes",
          "type": "bytes"
        },
        {
          "internalType": "uint256[]",
          "name": "_indexesAndBlockNumbers",
          "type": "uint256[]"
        }
      ],
      "name": "disputeLocker",
      "outputs": [
        {
          "internalType": "bool",
          "name": "",
          "type": "bool"
        }
      ],
      "stateMutability": "payable",
      "type": "function"
    },
    {
      "inputs": [
        {
          "internalType": "address",
          "name": "_lockerTargetAddress",
          "type": "address"
        },
        {
          "internalType": "uint256",
          "name": "_index",
          "type": "uint256"
        }
      ],
      "name": "isTransferred",
      "outputs": [
        {
          "internalType": "bool",
          "name": "",
          "type": "bool"
        }
      ],
      "stateMutability": "view",
      "type": "function"
    },
    {
      "inputs": [
        {
          "internalType": "bytes32",
          "name": "",
          "type": "bytes32"
        }
      ],
      "name": "isUsedAsBurnProof",
      "outputs": [
        {
          "internalType": "bool",
          "name": "",
          "type": "bool"
        }
      ],
      "stateMutability": "view",
      "type": "function"
    },
    {
      "inputs": [],
      "name": "lockers",
      "outputs": [
        {
          "internalType": "address",
          "name": "",
          "type": "address"
        }
      ],
      "stateMutability": "view",
      "type": "function"
    },
    {
      "inputs": [],
      "name": "owner",
      "outputs": [
        {
          "internalType": "address",
          "name": "",
          "type": "address"
        }
      ],
      "stateMutability": "view",
      "type": "function"
    },
    {
      "inputs": [],
      "name": "protocolPercentageFee",
      "outputs": [
        {
          "internalType": "uint256",
          "name": "",
          "type": "uint256"
        }
      ],
      "stateMutability": "view",
      "type": "function"
    },
    {
      "inputs": [],
      "name": "relay",
      "outputs": [
        {
          "internalType": "address",
          "name": "",
          "type": "address"
        }
      ],
      "stateMutability": "view",
      "type": "function"
    },
    {
      "inputs": [],
      "name": "renounceOwnership",
      "outputs": [],
      "stateMutability": "nonpayable",
      "type": "function"
    },
    {
      "inputs": [
        {
          "internalType": "uint256",
          "name": "_bitcoinFee",
          "type": "uint256"
        }
      ],
      "name": "setBitcoinFee",
      "outputs": [],
      "stateMutability": "nonpayable",
      "type": "function"
    },
    {
      "inputs": [
        {
          "internalType": "address",
          "name": "_lockers",
          "type": "address"
        }
      ],
      "name": "setLockers",
      "outputs": [],
      "stateMutability": "nonpayable",
      "type": "function"
    },
    {
      "inputs": [
        {
          "internalType": "uint256",
          "name": "_protocolPercentageFee",
          "type": "uint256"
        }
      ],
      "name": "setProtocolPercentageFee",
      "outputs": [],
      "stateMutability": "nonpayable",
      "type": "function"
    },
    {
      "inputs": [
        {
          "internalType": "address",
          "name": "_relay",
          "type": "address"
        }
      ],
      "name": "setRelay",
      "outputs": [],
      "stateMutability": "nonpayable",
      "type": "function"
    },
    {
      "inputs": [
        {
          "internalType": "uint256",
          "name": "_slasherPercentageReward",
          "type": "uint256"
        }
      ],
      "name": "setSlasherPercentageReward",
      "outputs": [],
      "stateMutability": "nonpayable",
      "type": "function"
    },
    {
      "inputs": [
        {
          "internalType": "address",
          "name": "_teleBTC",
          "type": "address"
        }
      ],
      "name": "setTeleBTC",
      "outputs": [],
      "stateMutability": "nonpayable",
      "type": "function"
    },
    {
      "inputs": [
        {
          "internalType": "uint256",
          "name": "_transferDeadline",
          "type": "uint256"
        }
      ],
      "name": "setTransferDeadline",
      "outputs": [],
      "stateMutability": "nonpayable",
      "type": "function"
    },
    {
      "inputs": [
        {
          "internalType": "address",
          "name": "_treasury",
          "type": "address"
        }
      ],
      "name": "setTreasury",
      "outputs": [],
      "stateMutability": "nonpayable",
      "type": "function"
    },
    {
      "inputs": [],
      "name": "slasherPercentageReward",
      "outputs": [
        {
          "internalType": "uint256",
          "name": "",
          "type": "uint256"
        }
      ],
      "stateMutability": "view",
      "type": "function"
    },
    {
      "inputs": [],
      "name": "teleBTC",
      "outputs": [
        {
          "internalType": "address",
          "name": "",
          "type": "address"
        }
      ],
      "stateMutability": "view",
      "type": "function"
    },
    {
      "inputs": [],
      "name": "transferDeadline",
      "outputs": [
        {
          "internalType": "uint256",
          "name": "",
          "type": "uint256"
        }
      ],
      "stateMutability": "view",
      "type": "function"
    },
    {
      "inputs": [
        {
          "internalType": "address",
          "name": "newOwner",
          "type": "address"
        }
      ],
      "name": "transferOwnership",
      "outputs": [],
      "stateMutability": "nonpayable",
      "type": "function"
    },
    {
      "inputs": [],
      "name": "treasury",
      "outputs": [
        {
          "internalType": "address",
          "name": "",
          "type": "address"
        }
      ],
      "stateMutability": "view",
      "type": "function"
    },
    {
      "stateMutability": "payable",
      "type": "receive"
    }
  ],
  "transactionHash": "0xa8f681a84aff6d76219bd11b240176cf7f089c3ec7edb02efc5881b78ff0403e",
  "args": [
    "0x770f7B066e5eb859815Ab46Ae2Ce7c39E65a0F7f",
    "0xCD3022709e7f3CD0DdEF17E41392367fEd14f1a4",
    "0x5364E3557572bd5D5903C0e9C21BE359F2Eac1dA",
    10,
    50,
    50,
    50
  ],
  "numDeployments": 1,
  "solcInputHash": "b687f14c702c480478e4d15b6be75112",
  "bytecode": "0x60806040523480156200001157600080fd5b506040516200557138038062005571833981016040819052620000349162000106565b6200003f3362000099565b60018055600280546001600160a01b03199081166001600160a01b03998a16179091556003805482169789169790971790965560058054909616949096169390931790935560065560079190915560085560095562000176565b600080546001600160a01b038381166001600160a01b0319831681178455604051919092169283917f8be0079c531659141344cd1fd0a4f28419497f9722a3daafe3b4186f6b6457e09190a35050565b80516001600160a01b03811681146200010157600080fd5b919050565b600080600080600080600060e0888a03121562000121578283fd5b6200012c88620000e9565b96506200013c60208901620000e9565b95506200014c60408901620000e9565b9450606088015193506080880151925060a0880151915060c0880151905092959891949750929550565b6153eb80620001866000396000f3fe6080604052600436106101855760003560e01c80638d3d78cd116100d1578063c780c03f1161008a578063ea73263711610064578063ea7326371461045c578063f0f442601461046f578063f2fde38b1461048f578063f47e2240146104af5761018c565b8063c780c03f14610409578063c805f68b1461041c578063cdbe37411461043c5761018c565b80638d3d78cd1461035f5780638da5cb5b1461037f578063b14d35321461039d578063b59589d1146103bd578063b74d0d35146103dd578063bed6a602146103f35761018c565b80635c4f5f3e1161013e57806373532b2a1161011857806373532b2a146102df5780637ed55748146102ff5780637f0f18171461031f5780637ffe9a921461033f5761018c565b80635c4f5f3e1461028a57806361d027b3146102aa578063715018a6146102ca5761018c565b80631812adb6146101915780631876dec4146101ba5780631e236168146101f2578063419cba7f1461023257806343149dba146102485780634782bc36146102685761018c565b3661018c57005b600080fd5b34801561019d57600080fd5b506101a760075481565b6040519081526020015b60405180910390f35b3480156101c657600080fd5b506003546101da906001600160a01b031681565b6040516001600160a01b0390911681526020016101b1565b3480156101fe57600080fd5b5061022261020d36600461491a565b600b6020526000908152604090205460ff1681565b60405190151581526020016101b1565b34801561023e57600080fd5b506101a760085481565b34801561025457600080fd5b506101a7610263366004614c2e565b6104e2565b34801561027457600080fd5b5061028861028336600461491a565b6109c5565b005b34801561029657600080fd5b506102886102a536600461491a565b610a6b565b3480156102b657600080fd5b506005546101da906001600160a01b031681565b3480156102d657600080fd5b50610288610b7c565b3480156102eb57600080fd5b506102226102fa366004614a6f565b610bb2565b34801561030b57600080fd5b5061028861031a36600461491a565b6111cf565b34801561032b57600080fd5b5061028861033a366004614897565b611263565b34801561034b57600080fd5b5061022261035a3660046148cf565b6112d7565b34801561036b57600080fd5b506004546101da906001600160a01b031681565b34801561038b57600080fd5b506000546001600160a01b03166101da565b3480156103a957600080fd5b506102886103b8366004614897565b61132f565b3480156103c957600080fd5b506002546101da906001600160a01b031681565b3480156103e957600080fd5b506101a760095481565b3480156103ff57600080fd5b506101a760065481565b610222610417366004614ad4565b6113a3565b34801561042857600080fd5b50610288610437366004614897565b611908565b34801561044857600080fd5b5061028861045736600461491a565b61197c565b61022261046a36600461494a565b6119ab565b34801561047b57600080fd5b5061028861048a366004614897565b611c51565b34801561049b57600080fd5b506102886104aa366004614897565b611cc5565b3480156104bb57600080fd5b506104cf6104ca3660046148cf565b611d60565b6040516101b197969594939291906150f6565b6000600260015414156105105760405162461bcd60e51b8152600401610507906150bf565b60405180910390fd5b600260015585806105635760405162461bcd60e51b815260206004820152601b60248201527f43434275726e526f757465723a2076616c7565206973207a65726f00000000006044820152606401610507565b61056d8686611e54565b60035460405163aff2faa360e01b81526001600160a01b039091169063aff2faa39061059f9087908790600401614dfc565b60206040518083038186803b1580156105b757600080fd5b505afa1580156105cb573d6000803e3d6000fd5b505050506040513d601f19601f820116820180604052508101906105ef91906148fa565b61060b5760405162461bcd60e51b815260040161050790614fa8565b60035460405163626885b560e11b81526000916001600160a01b03169063c4d10b6a9061063e9088908890600401614dfc565b60206040518083038186803b15801561065657600080fd5b505afa15801561066a573d6000803e3d6000fd5b505050506040513d601f19601f8201168201806040525081019061068e91906148b3565b6004549091506001600160a01b03166323b872dd336040516001600160e01b031960e084901b1681526001600160a01b039091166004820152306024820152604481018b9052606401602060405180830381600087803b1580156106f157600080fd5b505af1158015610705573d6000803e3d6000fd5b505050506040513d601f19601f8201168201806040525081019061072991906148fa565b5060006107368983611ef1565b6004805460035460405163095ea7b360e01b81526001600160a01b039182169381019390935260248301849052929350919091169063095ea7b390604401602060405180830381600087803b15801561078e57600080fd5b505af11580156107a2573d6000803e3d6000fd5b505050506040513d601f19601f820116820180604052508101906107c691906148fa565b506003546040516338463cff60e01b81526001600160a01b03909116906338463cff906107fb90899089908690600401614e10565b602060405180830381600087803b15801561081557600080fd5b505af1158015610829573d6000803e3d6000fd5b505050506040513d601f19601f8201168201806040525081019061084d9190614932565b93506108e289858a8a600260009054906101000a90046001600160a01b03166001600160a01b0316632f796d906040518163ffffffff1660e01b815260040160206040518083038186803b1580156108a457600080fd5b505afa1580156108b8573d6000803e3d6000fd5b505050506040513d601f19601f820116820180604052508101906108dc9190614932565b876120ad565b6001600160a01b0382166000908152600a60205260409020805461090890600190615291565b8154811061092657634e487b7160e01b600052603260045260246000fd5b906000526020600020906006020160040154826001600160a01b03166109493390565b6001600160a01b038581166000908152600a60205260409020549116907fa5604974ff4182d74f6ab1839735f791628aa9385060f8cc07a20d415b540295908c908c908f908b9061099c90600190615291565b6040516109ad959493929190614e47565b60405180910390a45050600180555095945050505050565b6000546001600160a01b031633146109ef5760405162461bcd60e51b81526004016105079061508a565b8060641015610a665760405162461bcd60e51b815260206004820152603760248201527f43434275726e526f757465723a20736c61736865722070657263656e7461676560448201527f20726577617264206973206f7574206f662072616e67650000000000000000006064820152608401610507565b600855565b6000546001600160a01b03163314610a955760405162461bcd60e51b81526004016105079061508a565b60025460408051630a072bc560e41b815290516000926001600160a01b03169163a072bc50916004808301926020929190829003018186803b158015610ada57600080fd5b505afa158015610aee573d6000803e3d6000fd5b505050506040513d601f19601f82011682018060405250810190610b129190614932565b9050808211610b765760405162461bcd60e51b815260206004820152602a60248201527f43434275726e526f757465723a207472616e7366657220646561646c696e6520604482015269697320746f6f206c6f7760b01b6064820152608401610507565b50600655565b6000546001600160a01b03163314610ba65760405162461bcd60e51b81526004016105079061508a565b610bb0600061223e565b565b600060026001541415610bd75760405162461bcd60e51b8152600401610507906150bf565b600260015560035460405163aff2faa360e01b81526001600160a01b039091169063aff2faa390610c0e9087908790600401614dfc565b60206040518083038186803b158015610c2657600080fd5b505afa158015610c3a573d6000803e3d6000fd5b505050506040513d601f19601f82011682018060405250810190610c5e91906148fa565b610c7a5760405162461bcd60e51b815260040161050790614fa8565b60035460405163626885b560e11b81526000916001600160a01b03169063c4d10b6a90610cad9088908890600401614dfc565b60206040518083038186803b158015610cc557600080fd5b505afa158015610cd9573d6000803e3d6000fd5b505050506040513d601f19601f82011682018060405250810190610cfd91906148b3565b90506000600260009054906101000a90046001600160a01b03166001600160a01b0316632f796d906040518163ffffffff1660e01b815260040160206040518083038186803b158015610d4f57600080fd5b505afa158015610d63573d6000803e3d6000fd5b505050506040513d601f19601f82011682018060405250810190610d879190614932565b905060005b84518110156111bf576001600160a01b0383166000908152600a602052604090208551869083908110610dcf57634e487b7160e01b600052603260045260246000fd5b602002602001015181548110610df557634e487b7160e01b600052603260045260246000fd5b600091825260209091206005600690920201015460ff1615610e6c5760405162461bcd60e51b815260206004820152602a60248201527f43434275726e526f757465723a207265717565737420686173206265656e2070604482015269616964206265666f726560b01b6064820152608401610507565b6001600160a01b0383166000908152600a602052604090208551839190879084908110610ea957634e487b7160e01b600052603260045260246000fd5b602002602001015181548110610ecf57634e487b7160e01b600052603260045260246000fd5b90600052602060002090600602016004015410610efe5760405162461bcd60e51b815260040161050790614ff8565b6001600160a01b0383166000908152600a60205260409020855160019190879084908110610f3c57634e487b7160e01b600052603260045260246000fd5b602002602001015181548110610f6257634e487b7160e01b600052603260045260246000fd5b60009182526020808320600692909202909101600501805460ff1916931515939093179092556003546008546001600160a01b038781168452600a909452604090922088519390911692631697565b9287926064928b9088908110610fd757634e487b7160e01b600052603260045260246000fd5b602002602001015181548110610ffd57634e487b7160e01b600052603260045260246000fd5b9060005260206000209060060201600001546110199190615249565b6110239190615229565b336001600160a01b0388166000908152600a602052604090208a518b908890811061105e57634e487b7160e01b600052603260045260246000fd5b60200260200101518154811061108457634e487b7160e01b600052603260045260246000fd5b906000526020600020906006020160000154600a60008a6001600160a01b03166001600160a01b031681526020019081526020016000208b88815181106110db57634e487b7160e01b600052603260045260246000fd5b60200260200101518154811061110157634e487b7160e01b600052603260045260246000fd5b600091825260209091206006909102016002015460405160e087901b6001600160e01b03191681526001600160a01b03958616600482015260248101949094529184166044840152606483015291909116608482015260a401602060405180830381600087803b15801561117457600080fd5b505af1158015611188573d6000803e3d6000fd5b505050506040513d601f19601f820116820180604052508101906111ac91906148fa565b50806111b781615330565b915050610d8c565b5050600180805595945050505050565b6000546001600160a01b031633146111f95760405162461bcd60e51b81526004016105079061508a565b80612710101561125e5760405162461bcd60e51b815260206004820152602a60248201527f43434275726e526f757465723a2070726f746f636f6c20666565206973206f7560448201526974206f662072616e676560b01b6064820152608401610507565b600755565b806001600160a01b03811661128a5760405162461bcd60e51b815260040161050790614f71565b6000546001600160a01b031633146112b45760405162461bcd60e51b81526004016105079061508a565b50600480546001600160a01b0319166001600160a01b0392909216919091179055565b6001600160a01b0382166000908152600a6020526040812080548390811061130f57634e487b7160e01b600052603260045260246000fd5b600091825260209091206005600690920201015460ff1690505b92915050565b806001600160a01b0381166113565760405162461bcd60e51b815260040161050790614f71565b6000546001600160a01b031633146113805760405162461bcd60e51b81526004016105079061508a565b50600380546001600160a01b0319166001600160a01b0392909216919091179055565b6000600260015414156113c85760405162461bcd60e51b8152600401610507906150bf565b6002600181905589511480156113df575083516002145b80156113ec575081516003145b6114385760405162461bcd60e51b815260206004820152601a60248201527f43434275726e526f757465723a2077726f6e6720696e707574730000000000006044820152606401610507565b60035460405163aff2faa360e01b81526001600160a01b039091169063aff2faa390611468908d90600401614e34565b60206040518083038186803b15801561148057600080fd5b505afa158015611494573d6000803e3d6000fd5b505050506040513d601f19601f820116820180604052508101906114b891906148fa565b6114d45760405162461bcd60e51b815260040161050790614fa8565b60006115328a6000815181106114fa57634e487b7160e01b600052603260045260246000fd5b60200260200101518a8a8860008151811061152557634e487b7160e01b600052603260045260246000fd5b602002602001015161228e565b9050611590818460028151811061155957634e487b7160e01b600052603260045260246000fd5b6020026020010151868660018151811061158357634e487b7160e01b600052603260045260246000fd5b602002602001015161238f565b6115f55760405162461bcd60e51b815260206004820152603060248201527f43434275726e526f757465723a20696e707574207472616e73616374696f6e2060448201526f1a5cc81b9bdd08199a5b985b1a5e995960821b6064820152608401610507565b6000818152600b602052604090205460ff16156116725760405162461bcd60e51b815260206004820152603560248201527f43434275726e526f757465723a207472616e73616374696f6e2068617320626560448201527432b7103ab9b2b21030b990313ab93710383937b7b360591b6064820152608401610507565b6000806116a78b8660008151811061169a57634e487b7160e01b600052603260045260246000fd5b6020026020010151612501565b915091506116fa8c6001815181106116cf57634e487b7160e01b600052603260045260246000fd5b60200260200101518a8a8a60018151811061152557634e487b7160e01b600052603260045260246000fd5b82146117675760405162461bcd60e51b815260206004820152603660248201527f43434275726e526f757465723a206f7574706f696e7420747820646f65736e276044820152750e840dac2e8c6d040eed2e8d040deeae8e0eae840e8f60531b6064820152608401610507565b8c5160208e012061177889836125b0565b80519060200120146117e55760405162461bcd60e51b815260206004820152603060248201527f43434275726e526f757465723a206f757470757420747820646f65736e27742060448201526f3132b637b733903a37903637b1b5b2b960811b6064820152608401610507565b8460028151811061180657634e487b7160e01b600052603260045260246000fd5b602002602001015160065461181b919061519f565b600260009054906101000a90046001600160a01b03166001600160a01b0316632f796d906040518163ffffffff1660e01b815260040160206040518083038186803b15801561186957600080fd5b505afa15801561187d573d6000803e3d6000fd5b505050506040513d601f19601f820116820180604052508101906118a19190614932565b116118be5760405162461bcd60e51b815260040161050790614ff8565b6118f28a8e85886002815181106118e557634e487b7160e01b600052603260045260246000fd5b6020026020010151612622565b505060018080559b9a5050505050505050505050565b806001600160a01b03811661192f5760405162461bcd60e51b815260040161050790614f71565b6000546001600160a01b031633146119595760405162461bcd60e51b81526004016105079061508a565b50600280546001600160a01b0319166001600160a01b0392909216919091179055565b6000546001600160a01b031633146119a65760405162461bcd60e51b81526004016105079061508a565b600955565b6000600260015414156119d05760405162461bcd60e51b8152600401610507906150bf565b60026001556001600160e01b0319881615611a2d5760405162461bcd60e51b815260206004820181905260248201527f43434275726e526f757465723a206e6f6e2d7a65726f206c6f636b2074696d656044820152606401610507565b60035460405163aff2faa360e01b81526001600160a01b039091169063aff2faa390611a5d908790600401614e34565b60206040518083038186803b158015611a7557600080fd5b505afa158015611a89573d6000803e3d6000fd5b505050506040513d601f19601f82011682018060405250810190611aad91906148fa565b611ac95760405162461bcd60e51b815260040161050790614fa8565b60035460405163626885b560e11b81526000916001600160a01b03169063c4d10b6a90611afa908890600401614e34565b60206040518083038186803b158015611b1257600080fd5b505afa158015611b26573d6000803e3d6000fd5b505050506040513d601f19601f82011682018060405250810190611b4a91906148b3565b90508251845114611b9d5760405162461bcd60e51b815260206004820152601b60248201527f43434275726e526f757465723a2077726f6e6720696e646578657300000000006044820152606401610507565b6000611bab8d8d8d8d61228e565b9050611bb9818a8a8a61238f565b611c1d5760405162461bcd60e51b815260206004820152602f60248201527f43434275726e526f757465723a207472616e73616374696f6e20686173206e6f60448201526e1d08199a5b985b1a5e9959081e595d608a1b6064820152608401610507565b6000611c2c8a848e89896127ff565b9050611c3a818d8985612c63565b505060018080559c9b505050505050505050505050565b806001600160a01b038116611c785760405162461bcd60e51b815260040161050790614f71565b6000546001600160a01b03163314611ca25760405162461bcd60e51b81526004016105079061508a565b50600580546001600160a01b0319166001600160a01b0392909216919091179055565b6000546001600160a01b03163314611cef5760405162461bcd60e51b81526004016105079061508a565b6001600160a01b038116611d545760405162461bcd60e51b815260206004820152602660248201527f4f776e61626c653a206e6577206f776e657220697320746865207a65726f206160448201526564647265737360d01b6064820152608401610507565b611d5d8161223e565b50565b600a6020528160005260406000208181548110611d7c57600080fd5b600091825260209091206006909102018054600182015460028301546003840180549396509194506001600160a01b03169291611db8906152fb565b80601f0160208091040260200160405190810160405280929190818152602001828054611de4906152fb565b8015611e315780601f10611e0657610100808354040283529160200191611e31565b820191906000526020600020905b815481529060010190602001808311611e1457829003601f168201915b50505050600483015460059093015491929160ff80821692506101009091041687565b6000816004811115611e7657634e487b7160e01b600052602160045260246000fd5b1480611ea157506004816004811115611e9f57634e487b7160e01b600052602160045260246000fd5b145b15611ecc578151602014611ec75760405162461bcd60e51b815260040161050790615049565b611eed565b8151601414611eed5760405162461bcd60e51b815260040161050790615049565b5050565b60008061271060075485611f059190615249565b611f0f9190615229565b905060095481611f1f919061519f565b8411611f6d5760405162461bcd60e51b815260206004820152601f60248201527f43434275726e526f757465723a20616d6f756e7420697320746f6f206c6f77006044820152606401610507565b600954600090611f7d8387615291565b611f879190615291565b6004805460055460405163a9059cbb60e01b81526001600160a01b039182169381019390935260248301869052929350919091169063a9059cbb90604401602060405180830381600087803b158015611fdf57600080fd5b505af1158015611ff3573d6000803e3d6000fd5b505050506040513d601f19601f8201168201806040525081019061201791906148fa565b506004805460095460405163a9059cbb60e01b81526001600160a01b0388811694820194909452602481019190915291169063a9059cbb90604401602060405180830381600087803b15801561206c57600080fd5b505af1158015612080573d6000803e3d6000fd5b505050506040513d601f19601f820116820180604052508101906120a491906148fa565b50949350505050565b6120e96040805160e0810182526000808252602082018190529181018290526060808201526080810182905260a081018290529060c082015290565b868152602081018690523360408201526060810185905260c0810184600481111561212457634e487b7160e01b600052602160045260246000fd5b9081600481111561214557634e487b7160e01b600052602160045260246000fd5b905250600654612155908461519f565b6080820152600060a082018190526001600160a01b038381168252600a6020908152604080842080546001808201835591865294839020865160069096020194855582860151908501558401516002840180546001600160a01b0319169190931617909155606083015180518493926121d5926003850192910190614669565b50608082015160048281019190915560a083015160058301805460ff19169115159190911780825560c08501519261ff00199091169061010090849081111561222e57634e487b7160e01b600052602160045260246000fd5b0217905550505050505050505050565b600080546001600160a01b038381166001600160a01b0319831681178455604051919092169283917f8be0079c531659141344cd1fd0a4f28419497f9722a3daafe3b4186f6b6457e09190a35050565b6000806002868686866040516020016122aa9493929190614d2e565b60408051601f19818403018152908290526122c491614d81565b602060405180830381855afa1580156122e1573d6000803e3d6000fd5b5050506040513d601f19601f820116820180604052508101906123049190614932565b9050600060028260405160200161231d91815260200190565b60408051601f198184030181529082905261233791614d81565b602060405180830381855afa158015612354573d6000803e3d6000fd5b5050506040513d601f19601f820116820180604052508101906123779190614932565b905061238281612cec565b925050505b949350505050565b60025460405163d0a8973960e01b8152600481018590526000602482018190529182916001600160a01b039091169063d0a897399060440160206040518083038186803b1580156123df57600080fd5b505afa1580156123f3573d6000803e3d6000fd5b505050506040513d601f19601f820116820180604052508101906124179190614932565b90508034101561247b5760405162461bcd60e51b815260206004820152602960248201527f43434275726e526f757465723a2072656c617920666565206973206e6f7420736044820152681d59999a58da595b9d60ba1b6064820152608401610507565b6002546040516000916124d8916001600160a01b03909116906124a8908a908a908a908a90602401614dcc565b60408051601f198184030181529190526020810180516001600160e01b0316634354da2560e01b17905284612d6e565b90506124ed336124e88434615291565b612d9e565b8080602001905181019061238291906148fa565b600080806125176125128683612ebc565b612ee0565b905062ffffff19808216141561256f5760405162461bcd60e51b815260206004820152601a60248201527f426974636f696e48656c7065723a2076696e206973206e756c6c0000000000006044820152606401610507565b600061257b8286613016565b9050600061258882613134565b905061259381613158565b945061259e8161317a565b63ffffffff1693505050509250929050565b606060006125c66125c18583612ebc565b61319c565b905062ffffff1980821614156125ee5760405162461bcd60e51b815260040161050790614f3a565b60006125fa828561328d565b9050600061260782613387565b905061261862ffffff1982166133d8565b9695505050505050565b600061262d85613428565b60035460405163626885b560e11b81526001600160401b039290921692506000916001600160a01b039091169063c4d10b6a9061266e908890600401614e34565b60206040518083038186803b15801561268657600080fd5b505afa15801561269a573d6000803e3d6000fd5b505050506040513d601f19601f820116820180604052508101906126be91906148b3565b6003546008549192506001600160a01b0316906333c99e1d9083906064906126e69087615249565b6126f09190615229565b3360405160e085901b6001600160e01b03191681526001600160a01b0393841660048201526024810192909252909116604482015260648101859052608401602060405180830381600087803b15801561274957600080fd5b505af115801561275d573d6000803e3d6000fd5b505050506040513d601f19601f8201168201806040525081019061278191906148fa565b507fe184676c6adf968d3ce328b5c69512d9ab9a5155c6d6f0fd7b385003e30eea428184866064600854876127b69190615249565b6127c09190615229565b6127ca908761519f565b604080516001600160a01b039095168552602085019390935291830152606082015260800160405180910390a1505050505050565b600080805b8451811015612c5857600085828151811061282f57634e487b7160e01b600052603260045260246000fd5b60200260200101519050600a6000896001600160a01b03166001600160a01b03168152602001908152602001600020818154811061287d57634e487b7160e01b600052603260045260246000fd5b600091825260209091206005600690920201015460ff161580156128ec57506001600160a01b0388166000908152600a6020526040902080548a9190839081106128d757634e487b7160e01b600052603260045260246000fd5b90600052602060002090600602016004015410155b15612c4557612a978786848151811061291557634e487b7160e01b600052603260045260246000fd5b6020026020010151600a60008c6001600160a01b03166001600160a01b03168152602001908152602001600020848154811061296157634e487b7160e01b600052603260045260246000fd5b9060005260206000209060060201600301805461297d906152fb565b80601f01602080910402602001604051908101604052809291908181526020018280546129a9906152fb565b80156129f65780601f106129cb576101008083540402835291602001916129f6565b820191906000526020600020905b8154815290600101906020018083116129d957829003601f168201915b5050506001600160a01b038e166000908152600a6020526040902080549092508791508110612a3557634e487b7160e01b600052603260045260246000fd5b906000526020600020906006020160050160019054906101000a900460ff166004811115612a7357634e487b7160e01b600052602160045260246000fd5b6004811115612a9257634e487b7160e01b600052602160045260246000fd5b6134c0565b6001600160401b0316925082600a60008a6001600160a01b03166001600160a01b031681526020019081526020016000208281548110612ae757634e487b7160e01b600052603260045260246000fd5b9060005260206000209060060201600101541415612c45576001600160a01b0388166000908152600a6020526040902080546001919083908110612b3b57634e487b7160e01b600052603260045260246000fd5b60009182526020909120600690910201600501805460ff1916911515919091179055612b6884600161519f565b6001600160a01b0389166000818152600a602052604090208054929650909183908110612ba557634e487b7160e01b600052603260045260246000fd5b60009182526020808320600260069093020191909101546001600160a01b038c81168452600a9092526040909220805491909216917f2a19a8845319f6ff87c06307d29da11b94ed2d90a25046ed222f4bad3189d2449185908110612c1a57634e487b7160e01b600052603260045260246000fd5b90600052602060002090600602016003018685604051612c3c93929190614e85565b60405180910390a35b5080612c5081615330565b915050612804565b505095945050505050565b6000612c6f84846136fb565b6001600160401b031690506000612c85856137ff565b90508115801590612c9f575080612c9d87600161519f565b145b15612cc2576000838152600b60205260409020805460ff19166001179055612ce4565b80861415612ce4576000838152600b60205260409020805460ff191660011790555b505050505050565b6000606081805b6020811015612d60578285612d0983601f615291565b60208110612d2757634e487b7160e01b600052603260045260246000fd5b1a60f81b604051602001612d3c929190614d9d565b60405160208183030381529060405292508080612d5890615330565b915050612cf3565b50506020015190505b919050565b6060612d9484848460405180606001604052806029815260200161538d6029913961382c565b90505b9392505050565b80471015612dee5760405162461bcd60e51b815260206004820152601d60248201527f416464726573733a20696e73756666696369656e742062616c616e63650000006044820152606401610507565b6000826001600160a01b03168260405160006040518083038185875af1925050503d8060008114612e3b576040519150601f19603f3d011682016040523d82523d6000602084013e612e40565b606091505b5050905080612eb75760405162461bcd60e51b815260206004820152603a60248201527f416464726573733a20756e61626c6520746f2073656e642076616c75652c207260448201527f6563697069656e74206d617920686176652072657665727465640000000000006064820152608401610507565b505050565b815160009060208401612ed764ffffffffff85168284613949565b95945050505050565b60008181612ef6815b62ffffff1984169061398d565b50601884901c6001600160601b0316612f165762ffffff195b925061300f565b6000612f23856000613a67565b9050601885901c6001600160601b03166001600160401b038216612f505762ffffff195b9450505061300f565b6000612f5b83613b96565b60ff16905060005b836001600160401b0316811015612fd757828210612f8c5762ffffff195b96505050505061300f565b6000612fac612f9b8486615291565b60055b62ffffff198c169190613bef565b9050612fb781613c23565b612fc1908461519f565b9250508080612fcf90615330565b915050612f63565b50818114612fef5762ffffff195b955050505061300f565b61300960065b60d81b6301000000600160d81b0389161790565b95505050505b5050919050565b600082600661302481612ee9565b506000613032866000613a67565b6001600160401b03169050601886901c6001600160601b031681861061308d5760405162461bcd60e51b815260206004820152601060248201526f2b34b7103932b0b21037bb32b9393ab760811b6044820152606401610507565b600061309883613b96565b60ff1690506000805b888110156130f0576130c76130b68486615291565b60055b62ffffff198d169190613bef565b91506130d282613c23565b6130dc908461519f565b92506130e960018261519f565b90506130a1565b506130fe612f9b8385615291565b9050600061310b82613c23565b9050613124838260045b62ffffff198e16929190613c77565b975050505050505b505092915050565b600081600461314281612ee9565b5061238762ffffff198516600060246003613c77565b600081600361316681612ee9565b5061238762ffffff19851660006020613ce7565b600081600361318881612ee9565b5061238762ffffff19851660206004613e40565b600081816131a981612ee9565b50601884901c6001600160601b03166131c65762ffffff19612f0f565b60006131d3856000613a67565b9050601885901c6001600160601b03166001600160401b0382166131fb5762ffffff19612f47565b600061320683613b96565b60ff16905060005b836001600160401b0316811015613271578282106132305762ffffff19612f81565b600061324661323f8486615291565b600e612f9e565b905061325181613f8a565b61325b908461519f565b925050808061326990615330565b91505061320e565b508181146132835762ffffff19612fe5565b613009600f612ff5565b600082600f61329b81612ee9565b5060006132a9866000613a67565b6001600160401b03169050601886901c6001600160601b03168186106133055760405162461bcd60e51b81526020600482015260116024820152702b37baba103932b0b21037bb32b9393ab760791b6044820152606401610507565b600061331083613b96565b60ff1690506000805b8881101561335e5761333561332e8486615291565b600e6130b9565b915061334082613f8a565b61334a908461519f565b925061335760018261519f565b9050613319565b5061336c61323f8385615291565b9050600061337982613f8a565b90506131248382600d613115565b600081600d61339581612ee9565b5060006133a3856008613a67565b9050612ed76133b182613b96565b6133bc9060086151e2565b62ffffff1987169060ff166001600160401b0384166007613c77565b60606000806133f08460181c6001600160601b031690565b60405193508392506001600160601b031690506134178461341284602061519f565b613fd3565b508181016020016040529052919050565b6000806134386125c18483612ebc565b905062ffffff1980821614156134605760405162461bcd60e51b815260040161050790614f3a565b60008061346e836000613a67565b6001600160401b0316905060005b818110156134b75761348e848261328d565b92506134998361412b565b6134a390866151b7565b9450806134af81615330565b91505061347c565b50505050919050565b6000806134d06125c18783612ebc565b905062ffffff1980821614156134f85760405162461bcd60e51b815260040161050790614f3a565b6000613504828761328d565b9050600061351182613387565b9050600085600481111561353557634e487b7160e01b600052602160045260246000fd5b141561359a5761354e62ffffff19821660016020613ce7565b60405160200161356091815260200190565b6040516020818303038152906040528051906020012086805190602001201461358a576000613593565b6135938261412b565b93506136f0565b60018560048111156135bc57634e487b7160e01b600052602160045260246000fd5b14156135fb576135d362ffffff198216600361414d565b604051602001613560919060609190911b6bffffffffffffffffffffffff1916815260140190565b600285600481111561361d57634e487b7160e01b600052602160045260246000fd5b1415613634576135d362ffffff198216600261414d565b600385600481111561365657634e487b7160e01b600052602160045260246000fd5b141561366d576135d362ffffff198216600261414d565b600485600481111561368f57634e487b7160e01b600052602160045260246000fd5b14156136f0576136a862ffffff19821660026020613ce7565b6040516020016136ba91815260200190565b604051602081830303815290604052805190602001208680519060200120146136e45760006136ed565b6136ed8261412b565b93505b505050949350505050565b60008061370b6125c18583612ebc565b905062ffffff1980821614156137335760405162461bcd60e51b815260040161050790614f3a565b6000806000613743846000613a67565b6001600160401b0316905060005b818110156137f457613763858261328d565b935061376e84613387565b9250866040516020016137819190614d81565b604051602081830303815290604052805190602001206137a68462ffffff19166133d8565b6040516020016137b69190614d81565b6040516020818303038152906040528051906020012014156137e2576137db8461412b565b95506137f4565b806137ec81615330565b915050613751565b505050505092915050565b60008061380f6125c18483612ebc565b905061381c816000613a67565b6001600160401b03169392505050565b60608247101561388d5760405162461bcd60e51b815260206004820152602660248201527f416464726573733a20696e73756666696369656e742062616c616e636520666f6044820152651c8818d85b1b60d21b6064820152608401610507565b843b6138db5760405162461bcd60e51b815260206004820152601d60248201527f416464726573733a2063616c6c20746f206e6f6e2d636f6e74726163740000006044820152606401610507565b600080866001600160a01b031685876040516138f79190614d81565b60006040518083038185875af1925050503d8060008114613934576040519150601f19603f3d011682016040523d82523d6000602084013e613939565b606091505b509150915061238282828661415b565b600080613956838561519f565b9050604051811115613966575060005b806139785762ffffff19915050612d97565b5050606092831b9190911790911b1760181b90565b60006139998383614194565b613a605760006139b86139ac8560d81c90565b64ffffffffff166141b7565b91505060006139cd8464ffffffffff166141b7565b6040517f5479706520617373657274696f6e206661696c65642e20476f7420307800000060208201526001600160b01b031960b086811b8216603d8401526c05c408af0e0cac6e8cac84060f609b1b604784015283901b16605482015290925060009150605e015b60405160208183030381529060405290508060405162461bcd60e51b81526004016105079190614e34565b5090919050565b600080613a7c62ffffff198516846001614277565b905060fc8111613a8d579050611329565b8060fd1415613aeb57613ab3613aa484600161519f565b62ffffff198616906002613e40565b9150613abe82613b96565b60ff16600314613ae657613ae4613adf62ffffff1986168560036000613c77565b6142a7565b505b613b8f565b8060fe1415613b3d57613b11613b0284600161519f565b62ffffff198616906004613e40565b9150613b1c82613b96565b60ff16600514613ae657613ae4613adf62ffffff1986168560056000613c77565b8060ff1415613b8f57613b63613b5484600161519f565b62ffffff198616906008613e40565b9150613b6e82613b96565b60ff16600914613b8f5761312c613adf62ffffff1986168560096000613c77565b5092915050565b600060fc826001600160401b031611613bb157506001612d69565b61ffff826001600160401b031611613bcb57506003612d69565b63ffffffff826001600160401b031611613be757506005612d69565b506009612d69565b6000612d948484613c098760181c6001600160601b031690565b6001600160601b0316613c1c9190615291565b8585613c77565b6000816005613c3181612ee9565b506000613c3f856024613a67565b9050806001600160401b0316613c5482613b96565b60ff16613c61919061519f565b613c6c90602461519f565b612ed790600461519f565b600080613c8d8660781c6001600160601b031690565b6001600160601b03169050613ca186614324565b84613cac878461519f565b613cb6919061519f565b1115613cc95762ffffff19915050612387565b613cd3858261519f565b90506126188364ffffffffff168286613949565b600060ff8216613cf957506000612d97565b613d0c8460181c6001600160601b031690565b6001600160601b0316613d2260ff84168561519f565b1115613d8657613d6d613d3e8560781c6001600160601b031690565b6001600160601b0316613d5a8660181c6001600160601b031690565b6001600160601b0316858560ff16614365565b60405162461bcd60e51b81526004016105079190614e34565b60208260ff161115613e005760405162461bcd60e51b815260206004820152603a60248201527f54797065644d656d566965772f696e646578202d20417474656d70746564207460448201527f6f20696e646578206d6f7265207468616e2033322062797465730000000000006064820152608401610507565b600882026000613e198660781c6001600160601b031690565b6001600160601b031690506000600160ff1b60001984011d91909501511695945050505050565b6000612d94613e50858585613ce7565b600881811c7eff00ff00ff00ff00ff00ff00ff00ff00ff00ff00ff00ff00ff00ff00ff00ff167fff00ff00ff00ff00ff00ff00ff00ff00ff00ff00ff00ff00ff00ff00ff00ff009290911b9190911617601081811c7dffff0000ffff0000ffff0000ffff0000ffff0000ffff0000ffff0000ffff167fffff0000ffff0000ffff0000ffff0000ffff0000ffff0000ffff0000ffff00009290911b9190911617602081811c7bffffffff00000000ffffffff00000000ffffffff00000000ffffffff167fffffffff00000000ffffffff00000000ffffffff00000000ffffffff000000009290911b9190911617604081811c77ffffffffffffffff0000000000000000ffffffffffffffff1677ffffffffffffffff0000000000000000ffffffffffffffff199290911b9190911617608081811c91901b1790565b600081600e613f9881612ee9565b506000613fa6856008613a67565b9050806001600160401b0316613fbb82613b96565b60ff16613fc8919061519f565b612ed790600861519f565b600062ffffff19808416141561403c5760405162461bcd60e51b815260206004820152602860248201527f54797065644d656d566965772f636f7079546f202d204e756c6c20706f696e7460448201526732b9103232b932b360c11b6064820152608401610507565b6140458361448f565b6140a55760405162461bcd60e51b815260206004820152602b60248201527f54797065644d656d566965772f636f7079546f202d20496e76616c696420706f60448201526a34b73a32b9103232b932b360a91b6064820152608401610507565b60006140ba8460181c6001600160601b031690565b6001600160601b0316905060006140da8560781c6001600160601b031690565b6001600160601b0316905060006040519050848111156140fa5760206060fd5b8285848460045afa506126186141108760d81c90565b64ffffffffff60601b606091821b168717901b841760181b90565b600081600d61413981612ee9565b5061238762ffffff19851660006008613e40565b6000612d9783836014614277565b6060831561416a575081612d97565b82511561417a5782518084602001fd5b8160405162461bcd60e51b81526004016105079190614e34565b60008164ffffffffff166141a88460d81c90565b64ffffffffff16149392505050565b600080601f5b600f8160ff1611156142155760006141d6826008615268565b60ff1685901c90506141e7816144cd565b61ffff16841793508160ff1660101461420257601084901b93505b5061420e6001826152a8565b90506141bd565b50600f5b60ff8160ff161015614271576000614232826008615268565b60ff1685901c9050614243816144cd565b61ffff16831792508160ff1660001461425e57601083901b92505b5061426a6001826152a8565b9050614219565b50915091565b60006142848260206152a8565b61428f906008615268565b60ff1661429d858585613ce7565b901c949350505050565b606060006142d16142cc62ffffff19851683601887901c6001600160601b0316614277565b6141b7565b6040517f4e6f6e2d6d696e696d616c2076617220696e742e20476f74203078000000000060208201526dffffffffffffffffffffffffffff19607083901b16603b82015290925060009150604d01613a35565b60006143398260181c6001600160601b031690565b61434c8360781c6001600160601b031690565b6143569190615207565b6001600160601b031692915050565b60606000614372866141b7565b9150506000614380866141b7565b915050600061438e866141b7565b915050600061439c866141b7565b604080517f54797065644d656d566965772f696e646578202d204f76657272616e20746865602082015274040ecd2caee5c40a6d8d2c6ca40d2e640c2e84060f605b1b818301526001600160d01b031960d098891b811660558301526e040eed2e8d040d8cadccee8d04060f608b1b605b830181905297891b8116606a8301527f2e20417474656d7074656420746f20696e646578206174206f666673657420306070830152600f60fb1b609083015295881b861660918201526097810196909652951b90921660a68401525050601760f91b60ac8201528151808203608d01815260ad90910190915295945050505050565b600061449b8260d81c90565b64ffffffffff1664ffffffffff14156144b657506000612d69565b60006144c183614324565b60405110199392505050565b60006144df60048360ff16901c6144fd565b60ff161760081b62ffff00166144f4826144fd565b60ff1617919050565b600060f08083179060ff82161415614519576030915050612d69565b8060ff1660f1141561452f576031915050612d69565b8060ff1660f21415614545576032915050612d69565b8060ff1660f3141561455b576033915050612d69565b8060ff1660f41415614571576034915050612d69565b8060ff1660f51415614587576035915050612d69565b8060ff1660f6141561459d576036915050612d69565b8060ff1660f714156145b3576037915050612d69565b8060ff1660f814156145c9576038915050612d69565b8060ff1660f914156145df576039915050612d69565b8060ff1660fa14156145f5576061915050612d69565b8060ff1660fb141561460b576062915050612d69565b8060ff1660fc1415614621576063915050612d69565b8060ff1660fd1415614637576064915050612d69565b8060ff1660fe141561464d576065915050612d69565b8060ff1660ff1415614663576066915050612d69565b50919050565b828054614675906152fb565b90600052602060002090601f01602090048101928261469757600085556146dd565b82601f106146b057805160ff19168380011785556146dd565b828001600101855582156146dd579182015b828111156146dd5782518255916020019190600101906146c2565b506146e99291506146ed565b5090565b5b808211156146e957600081556001016146ee565b600082601f830112614712578081fd5b813560206147276147228361517c565b61514c565b8281528181019085830183850287018401881015614743578586fd5b855b8581101561476857614756826147cf565b84529284019290840190600101614745565b5090979650505050505050565b600082601f830112614785578081fd5b813560206147956147228361517c565b82815281810190858301838502870184018810156147b1578586fd5b855b85811015614768578135845292840192908401906001016147b3565b80356001600160e01b031981168114612d6957600080fd5b60008083601f8401126147f8578182fd5b5081356001600160401b0381111561480e578182fd5b60208301915083602082850101111561482657600080fd5b9250929050565b600082601f83011261483d578081fd5b81356001600160401b0381111561485657614856615361565b614869601f8201601f191660200161514c565b81815284602083860101111561487d578283fd5b816020850160208301379081016020019190915292915050565b6000602082840312156148a8578081fd5b8135612d9781615377565b6000602082840312156148c4578081fd5b8151612d9781615377565b600080604083850312156148e1578081fd5b82356148ec81615377565b946020939093013593505050565b60006020828403121561490b578081fd5b81518015158114612d97578182fd5b60006020828403121561492b578081fd5b5035919050565b600060208284031215614943578081fd5b5051919050565b6000806000806000806000806000806101408b8d031215614969578586fd5b6149728b6147cf565b995060208b01356001600160401b038082111561498d578788fd5b6149998e838f0161482d565b9a5060408d01359150808211156149ae578788fd5b6149ba8e838f0161482d565b99506149c860608e016147cf565b985060808d0135975060a08d01359150808211156149e4578687fd5b6149f08e838f0161482d565b965060c08d0135955060e08d0135915080821115614a0c578485fd5b614a188e838f0161482d565b94506101008d0135915080821115614a2e578384fd5b614a3a8e838f01614775565b93506101208d0135915080821115614a50578283fd5b50614a5d8d828e01614775565b9150509295989b9194979a5092959850565b600080600060408486031215614a83578283fd5b83356001600160401b0380821115614a99578485fd5b614aa5878388016147e7565b90955093506020860135915080821115614abd578283fd5b50614aca86828701614775565b9150509250925092565b60008060008060008060008060006101208a8c031215614af2578283fd5b89356001600160401b0380821115614b08578485fd5b614b148d838e0161482d565b9a5060208c0135915080821115614b29578485fd5b614b358d838e01614702565b995060408c0135915080821115614b4a578485fd5b614b568d838e0161482d565b985060608c0135915080821115614b6b578485fd5b614b778d838e0161482d565b975060808c0135915080821115614b8c578485fd5b614b988d838e0161482d565b965060a08c0135915080821115614bad578485fd5b614bb98d838e0161482d565b955060c08c0135915080821115614bce578485fd5b614bda8d838e01614702565b945060e08c0135915080821115614bef578384fd5b614bfb8d838e0161482d565b93506101008c0135915080821115614c11578283fd5b50614c1e8c828d01614775565b9150509295985092959850929598565b600080600080600060808688031215614c45578283fd5b8535945060208601356001600160401b0380821115614c62578485fd5b614c6e89838a0161482d565b95506040880135915060058210614c83578485fd5b90935060608701359080821115614c98578283fd5b50614ca5888289016147e7565b969995985093965092949392505050565b60008284528282602086013780602084860101526020601f19601f85011685010190509392505050565b60008151808452614cf88160208601602086016152cb565b601f01601f19169290920160200192915050565b60058110614d2a57634e487b7160e01b600052602160045260246000fd5b9052565b600063ffffffff60e01b80871683528551614d50816004860160208a016152cb565b855190840190614d67816004840160208a016152cb565b919094169301600481019390935250506008019392505050565b60008251614d938184602087016152cb565b9190910192915050565b60008351614daf8184602088016152cb565b6001600160f81b0319939093169190920190815260010192915050565b600085825284602083015260806040830152614deb6080830185614ce0565b905082606083015295945050505050565b600060208252612d94602083018486614cb6565b600060408252614e24604083018587614cb6565b9050826020830152949350505050565b600060208252612d976020830184614ce0565b600060a08252614e5a60a0830188614ce0565b9050614e696020830187614d0c565b8460408301528360608301528260808301529695505050505050565b606081528354600090819060028104600180831680614ea557607f831692505b6020808410821415614ec557634e487b7160e01b87526022600452602487fd5b6060880184905260808801828015614ee45760018114614ef557614f1f565b60ff19871682528282019750614f1f565b60008d815260209020895b87811015614f1957815484820152908601908401614f00565b83019850505b50508701989098525050506040909201929092529392505050565b6020808252601b908201527f426974636f696e48656c7065723a20766f7574206973206e756c6c0000000000604082015260600190565b6020808252601d908201527f43434275726e526f757465723a2061646472657373206973207a65726f000000604082015260600190565b60208082526030908201527f43434275726e526f757465723a20676976656e206c6f636b696e67207363726960408201526f383a1034b9903737ba103637b1b5b2b960811b606082015260800190565b60208082526031908201527f43434275726e526f757465723a207061796261636b20646561646c696e652068604082015270185cc81b9bdd081c185cdcd959081e595d607a1b606082015260800190565b60208082526021908201527f43434275726e526f757465723a20696e76616c696420757365722073637269706040820152601d60fa1b606082015260800190565b6020808252818101527f4f776e61626c653a2063616c6c6572206973206e6f7420746865206f776e6572604082015260600190565b6020808252601f908201527f5265656e7472616e637947756172643a207265656e7472616e742063616c6c00604082015260600190565b600088825287602083015260018060a01b038716604083015260e0606083015261512360e0830187614ce0565b905084608083015283151560a083015261514060c0830184614d0c565b98975050505050505050565b604051601f8201601f191681016001600160401b038111828210171561517457615174615361565b604052919050565b60006001600160401b0382111561519557615195615361565b5060209081020190565b600082198211156151b2576151b261534b565b500190565b60006001600160401b038083168185168083038211156151d9576151d961534b565b01949350505050565b600060ff821660ff84168060ff038211156151ff576151ff61534b565b019392505050565b60006001600160601b038083168185168083038211156151d9576151d961534b565b60008261524457634e487b7160e01b81526012600452602481fd5b500490565b60008160001904831182151516156152635761526361534b565b500290565b600060ff821660ff84168160ff04811182151516156152895761528961534b565b029392505050565b6000828210156152a3576152a361534b565b500390565b600060ff821660ff8416808210156152c2576152c261534b565b90039392505050565b60005b838110156152e65781810151838201526020016152ce565b838111156152f5576000848401525b50505050565b60028104600182168061530f57607f821691505b6020821081141561466357634e487b7160e01b600052602260045260246000fd5b60006000198214156153445761534461534b565b5060010190565b634e487b7160e01b600052601160045260246000fd5b634e487b7160e01b600052604160045260246000fd5b6001600160a01b0381168114611d5d57600080fdfe416464726573733a206c6f772d6c6576656c2063616c6c20776974682076616c7565206661696c6564a2646970667358221220dc251c77ed0de0474a42efb24e2519dfa6cc73e0ba51de6ed25498d7c031f22664736f6c63430008020033",
  "devdoc": {
    "kind": "dev",
    "methods": {
      "burnProof(bytes4,bytes,bytes,bytes4,uint256,bytes,uint256,bytes,uint256[],uint256[])": {
        "details": "Makes isTransferred flag true for the paid requests",
        "params": {
          "_blockNumber": "Height of the block containing the burn transaction",
          "_burnReqIndexes": "Indexes of requests that locker wants to provide proof for them",
          "_index": "Index of transaction containing the burn transaction in the block",
          "_intermediateNodes": "Merkle inclusion proof for transaction containing the burn transaction",
          "_lockerLockingScript": "Locker's locking script (on Bitcoin) that this burn request belongs to",
          "_locktime": "Lock time of the transaction containing the burn transaction",
          "_version": "Version of the transaction containing the burn transaction",
          "_vin": "Inputs of the transaction containing the burn transaction",
          "_vout": "Outputs of the transaction containing the burn transaction",
          "_voutIndexes": "Indexes of outputs that were used to pay burn requests (_voutIndexes[i] belongs to _burnReqIndexes[i])"
        },
        "returns": {
          "_0": ""
        }
      },
      "ccBurn(uint256,bytes,uint8,bytes)": {
        "details": "After submitting the burn request, lockers have a limited time                                     to send BTC and provide burn proof",
        "params": {
          "_amount": "Amount of teleBTC that user wants to burn",
          "_lockerLockingScript": "Locking script of locker that should execute the burn request",
          "_userScript": "User's script"
        },
        "returns": {
          "_burntAmount": "               Amount of teleBTC that user will receive (after reducing fees)"
        }
      },
      "constructor": {
        "params": {
          "_bitcoinFee": "Fee of submitting a transaction on Bitcoin",
          "_lockers": "Address of lockers contract",
          "_protocolPercentageFee": "Percentage of tokens that user pays to protocol for burning",
          "_relay": "Address of relay contract",
          "_slasherPercentageReward": "Percentage of tokens that slasher receives after slashing a locker",
          "_transferDeadline": "Dealine of sending BTC to user (aster submitting a burn request)",
          "_treasury": "Address of the treasury of the protocol"
        }
      },
      "disputeBurn(bytes,uint256[])": {
        "params": {
          "_indices": "Array of indices of the requests that their deadline has passed",
          "_lockerLockingScript": "locker's locking script that the unpaid request belongs to"
        },
        "returns": {
          "_0": "True if dispute is successfull"
        }
      },
      "disputeLocker(bytes,bytes4[],bytes,bytes,bytes,bytes,bytes4[],bytes,uint256[])": {
        "details": "Input tx is a malicious tx which shows that locker spent BTC                                         Output tx is the tx that was spent by locker in input tx                                         Output tx --> money goes to locker --> Input tx --> locker steals the funds",
        "params": {
          "_indexesAndBlockNumbers": "Indices of malicious input in input tx, input tx in block and block number of input tx",
          "_inputIntermediateNodes": "Merkle inclusion proof for the malicious transaction",
          "_inputVin": "Inputs of the malicious transaction",
          "_inputVout": "Outputs of the malicious transaction",
          "_lockerLockingScript": "Suspicious locker's locking script",
          "_locktimes": "Locktimes of input and output tx",
          "_outputVin": "Inputs of the spent transaction",
          "_outputVout": "Outputs of the spent transaction",
          "_versions": "Versions of input and output tx"
        },
        "returns": {
          "_0": "True if dispute is successfull"
        }
      },
      "isTransferred(address,uint256)": {
        "params": {
          "_index": "The index of the request for the locker",
          "_lockerTargetAddress": "Locker's address on the target chain"
        }
      },
      "owner()": {
        "details": "Returns the address of the current owner."
      },
      "renounceOwnership()": {
        "details": "Leaves the contract without owner. It will not be possible to call `onlyOwner` functions anymore. Can only be called by the current owner. NOTE: Renouncing ownership will leave the contract without an owner, thereby removing any functionality that is only available to the owner."
      },
      "setBitcoinFee(uint256)": {
        "details": "Only owner can call this",
        "params": {
          "_bitcoinFee": "The new Bitcoin transaction fee"
        }
      },
      "setLockers(address)": {
        "details": "Only owner can call this",
        "params": {
          "_lockers": "The new lockers contract address"
        }
      },
      "setProtocolPercentageFee(uint256)": {
        "details": "Only owner can call this",
        "params": {
          "_protocolPercentageFee": "The new protocol percentage fee"
        }
      },
      "setRelay(address)": {
        "details": "Only owner can call this",
        "params": {
          "_relay": "The new relay contract address"
        }
      },
      "setSlasherPercentageReward(uint256)": {
        "details": "Only owner can call this",
        "params": {
          "_slasherPercentageReward": "The new slasher percentage reward"
        }
      },
      "setTeleBTC(address)": {
        "details": "Only owner can call this",
        "params": {
          "_teleBTC": "The new teleBTC contract address"
        }
      },
      "setTransferDeadline(uint256)": {
        "details": "Only owner can call this                                     Deadline shoudl be greater than relay finalization parameter",
        "params": {
          "_transferDeadline": "The new transfer deadline"
        }
      },
      "setTreasury(address)": {
        "details": "Only owner can call this",
        "params": {
          "_treasury": "The new treasury address"
        }
      },
      "transferOwnership(address)": {
        "details": "Transfers ownership of the contract to a new account (`newOwner`). Can only be called by the current owner."
      }
    },
    "version": 1
  },
  "userdoc": {
    "events": {
      "CCBurn(address,bytes,uint8,uint256,uint256,address,uint256,uint256)": {
        "notice": "Emits when a burn request gets submitted"
      },
      "LockerDispute(address,uint256,bytes32,uint256)": {
        "notice": "Emits when a locker gets slashed for withdrawing BTC without proper reason"
      },
      "PaidCCBurn(address,bytes,uint256,address,uint256)": {
        "notice": "Emits when a burn proof is provided"
      }
    },
    "kind": "user",
    "methods": {
      "burnProof(bytes4,bytes,bytes,bytes4,uint256,bytes,uint256,bytes,uint256[],uint256[])": {
        "notice": "Checks the correctness of burn proof"
      },
      "ccBurn(uint256,bytes,uint8,bytes)": {
        "notice": "Burns teleBTC and records the burn request"
      },
      "constructor": {
        "notice": "Handles cross-chain burn requests"
      },
      "disputeBurn(bytes,uint256[])": {
        "notice": "Slashes a locker if she did not paid a cc burn request before its deadline"
      },
      "disputeLocker(bytes,bytes4[],bytes,bytes,bytes,bytes,bytes4[],bytes,uint256[])": {
        "notice": "Slashes a locker if they issue a tx that doesn't match any burn request"
      },
      "isTransferred(address,uint256)": {
        "notice": "Shows if a burn request has been done or not"
      },
      "setBitcoinFee(uint256)": {
        "notice": "Changes Bitcoin transaction fee"
      },
      "setLockers(address)": {
        "notice": "Changes lockers contract address"
      },
      "setProtocolPercentageFee(uint256)": {
        "notice": "Changes protocol percentage fee for burning tokens"
      },
      "setRelay(address)": {
        "notice": "Changes relay contract address"
      },
      "setSlasherPercentageReward(uint256)": {
        "notice": "Changes slasher percentage reward for disputing lockers"
      },
      "setTeleBTC(address)": {
        "notice": "Changes teleBTC contract address"
      },
      "setTransferDeadline(uint256)": {
        "notice": "Changes deadline of executing burn requests"
      },
      "setTreasury(address)": {
        "notice": "Changes protocol treasury address"
      }
    },
    "version": 1
  },
  "storageLayout": {
    "storage": [
      {
        "astId": 807,
        "contract": "contracts/routers/CCBurnRouter.sol:CCBurnRouter",
        "label": "_owner",
        "offset": 0,
        "slot": "0",
        "type": "t_address"
      },
      {
        "astId": 1634,
        "contract": "contracts/routers/CCBurnRouter.sol:CCBurnRouter",
        "label": "_status",
        "offset": 0,
        "slot": "1",
        "type": "t_uint256"
      },
      {
        "astId": 19772,
        "contract": "contracts/routers/CCBurnRouter.sol:CCBurnRouter",
        "label": "relay",
        "offset": 0,
        "slot": "2",
        "type": "t_address"
      },
      {
        "astId": 19775,
        "contract": "contracts/routers/CCBurnRouter.sol:CCBurnRouter",
        "label": "lockers",
        "offset": 0,
        "slot": "3",
        "type": "t_address"
      },
      {
        "astId": 19778,
        "contract": "contracts/routers/CCBurnRouter.sol:CCBurnRouter",
        "label": "teleBTC",
        "offset": 0,
        "slot": "4",
        "type": "t_address"
      },
      {
        "astId": 19781,
        "contract": "contracts/routers/CCBurnRouter.sol:CCBurnRouter",
        "label": "treasury",
        "offset": 0,
        "slot": "5",
        "type": "t_address"
      },
      {
        "astId": 19784,
        "contract": "contracts/routers/CCBurnRouter.sol:CCBurnRouter",
        "label": "transferDeadline",
        "offset": 0,
        "slot": "6",
        "type": "t_uint256"
      },
      {
        "astId": 19787,
        "contract": "contracts/routers/CCBurnRouter.sol:CCBurnRouter",
        "label": "protocolPercentageFee",
        "offset": 0,
        "slot": "7",
        "type": "t_uint256"
      },
      {
        "astId": 19790,
        "contract": "contracts/routers/CCBurnRouter.sol:CCBurnRouter",
        "label": "slasherPercentageReward",
        "offset": 0,
        "slot": "8",
        "type": "t_uint256"
      },
      {
        "astId": 19793,
        "contract": "contracts/routers/CCBurnRouter.sol:CCBurnRouter",
        "label": "bitcoinFee",
        "offset": 0,
        "slot": "9",
        "type": "t_uint256"
      },
      {
        "astId": 19799,
        "contract": "contracts/routers/CCBurnRouter.sol:CCBurnRouter",
        "label": "burnRequests",
        "offset": 0,
        "slot": "10",
        "type": "t_mapping(t_address,t_array(t_struct(burnRequest)24117_storage)dyn_storage)"
      },
      {
        "astId": 19804,
        "contract": "contracts/routers/CCBurnRouter.sol:CCBurnRouter",
        "label": "isUsedAsBurnProof",
        "offset": 0,
        "slot": "11",
        "type": "t_mapping(t_bytes32,t_bool)"
      }
    ],
    "types": {
      "t_address": {
        "encoding": "inplace",
        "label": "address",
        "numberOfBytes": "20"
      },
      "t_array(t_struct(burnRequest)24117_storage)dyn_storage": {
        "base": "t_struct(burnRequest)24117_storage",
        "encoding": "dynamic_array",
        "label": "struct ICCBurnRouter.burnRequest[]",
        "numberOfBytes": "32"
      },
      "t_bool": {
        "encoding": "inplace",
        "label": "bool",
        "numberOfBytes": "1"
      },
      "t_bytes32": {
        "encoding": "inplace",
        "label": "bytes32",
        "numberOfBytes": "32"
      },
      "t_bytes_storage": {
        "encoding": "bytes",
        "label": "bytes",
        "numberOfBytes": "32"
      },
      "t_enum(ScriptTypes)24959": {
        "encoding": "inplace",
        "label": "enum ScriptTypes",
        "numberOfBytes": "1"
      },
      "t_mapping(t_address,t_array(t_struct(burnRequest)24117_storage)dyn_storage)": {
        "encoding": "mapping",
        "key": "t_address",
        "label": "mapping(address => struct ICCBurnRouter.burnRequest[])",
        "numberOfBytes": "32",
        "value": "t_array(t_struct(burnRequest)24117_storage)dyn_storage"
      },
      "t_mapping(t_bytes32,t_bool)": {
        "encoding": "mapping",
        "key": "t_bytes32",
        "label": "mapping(bytes32 => bool)",
        "numberOfBytes": "32",
        "value": "t_bool"
      },
      "t_struct(burnRequest)24117_storage": {
        "encoding": "inplace",
        "label": "struct ICCBurnRouter.burnRequest",
        "members": [
          {
            "astId": 24103,
            "contract": "contracts/routers/CCBurnRouter.sol:CCBurnRouter",
            "label": "amount",
            "offset": 0,
            "slot": "0",
            "type": "t_uint256"
          },
          {
            "astId": 24105,
            "contract": "contracts/routers/CCBurnRouter.sol:CCBurnRouter",
            "label": "burntAmount",
            "offset": 0,
            "slot": "1",
            "type": "t_uint256"
          },
          {
            "astId": 24107,
            "contract": "contracts/routers/CCBurnRouter.sol:CCBurnRouter",
            "label": "sender",
            "offset": 0,
            "slot": "2",
            "type": "t_address"
          },
          {
            "astId": 24109,
            "contract": "contracts/routers/CCBurnRouter.sol:CCBurnRouter",
            "label": "userScript",
            "offset": 0,
            "slot": "3",
            "type": "t_bytes_storage"
          },
          {
            "astId": 24111,
            "contract": "contracts/routers/CCBurnRouter.sol:CCBurnRouter",
            "label": "deadline",
            "offset": 0,
            "slot": "4",
            "type": "t_uint256"
          },
          {
            "astId": 24113,
            "contract": "contracts/routers/CCBurnRouter.sol:CCBurnRouter",
            "label": "isTransferred",
            "offset": 0,
            "slot": "5",
            "type": "t_bool"
          },
          {
            "astId": 24116,
            "contract": "contracts/routers/CCBurnRouter.sol:CCBurnRouter",
            "label": "scriptType",
            "offset": 1,
            "slot": "5",
            "type": "t_enum(ScriptTypes)24959"
          }
        ],
        "numberOfBytes": "192"
      },
      "t_uint256": {
        "encoding": "inplace",
        "label": "uint256",
        "numberOfBytes": "32"
      }
    }
  }
}