{
  "address": "0xc0E3241d306FfE41d46079103f6909E338E2d370",
  "abi": [
    {
      "inputs": [
        {
          "internalType": "address",
          "name": "_bitcoinRelay",
          "type": "address"
        },
        {
          "internalType": "address",
          "name": "_bitcoinTeleporter",
          "type": "address"
        },
        {
          "internalType": "address",
          "name": "_TeleportDAOToken",
          "type": "address"
        },
        {
          "internalType": "uint256",
          "name": "_confirmationParameter",
          "type": "uint256"
        },
        {
          "internalType": "uint256",
          "name": "_transferDeadline",
          "type": "uint256"
        },
        {
          "internalType": "uint256",
          "name": "_burningFee",
          "type": "uint256"
        }
      ],
      "stateMutability": "nonpayable",
      "type": "constructor"
    },
    {
      "anonymous": false,
      "inputs": [
        {
          "indexed": false,
          "internalType": "address",
          "name": "pubKeyHash",
          "type": "address"
        },
        {
          "indexed": false,
          "internalType": "uint256",
          "name": "amount",
          "type": "uint256"
        },
        {
          "indexed": false,
          "internalType": "uint256",
          "name": "requestIndex",
          "type": "uint256"
        }
      ],
      "name": "CCBurn",
      "type": "event"
    },
    {
      "anonymous": false,
      "inputs": [
        {
          "indexed": false,
          "internalType": "address",
          "name": "pubKeyHash",
          "type": "address"
        },
        {
          "indexed": false,
          "internalType": "uint256",
          "name": "amount",
          "type": "uint256"
        },
        {
          "indexed": false,
          "internalType": "uint256",
          "name": "requestIndex",
          "type": "uint256"
        }
      ],
      "name": "PaidCCBurn",
      "type": "event"
    },
    {
      "anonymous": false,
      "inputs": [
        {
          "indexed": false,
          "internalType": "bytes",
          "name": "psbtBase",
          "type": "bytes"
        },
        {
          "indexed": false,
          "internalType": "bytes",
          "name": "psbtSigned",
          "type": "bytes"
        },
        {
          "indexed": false,
          "internalType": "uint256",
          "name": "teleporterIndex",
          "type": "uint256"
        },
        {
          "indexed": false,
          "internalType": "uint256",
          "name": "requestIndex",
          "type": "uint256"
        }
      ],
      "name": "SubmitPSBT",
      "type": "event"
    },
    {
      "inputs": [],
      "name": "TeleportDAOToken",
      "outputs": [
        {
          "internalType": "address",
          "name": "",
          "type": "address"
        }
      ],
      "stateMutability": "view",
      "type": "function"
    },
    {
      "inputs": [],
      "name": "bitcoinRelay",
      "outputs": [
        {
          "internalType": "address",
          "name": "",
          "type": "address"
        }
      ],
      "stateMutability": "view",
      "type": "function"
    },
    {
      "inputs": [],
      "name": "bitcoinTeleporter",
      "outputs": [
        {
          "internalType": "address",
          "name": "",
          "type": "address"
        }
      ],
      "stateMutability": "view",
      "type": "function"
    },
    {
      "inputs": [
        {
          "internalType": "bytes4",
          "name": "version",
          "type": "bytes4"
        },
        {
          "internalType": "bytes",
          "name": "vin",
          "type": "bytes"
        },
        {
          "internalType": "bytes",
          "name": "vout",
          "type": "bytes"
        },
        {
          "internalType": "bytes4",
          "name": "locktime",
          "type": "bytes4"
        },
        {
          "internalType": "uint256",
          "name": "blockNumber",
          "type": "uint256"
        },
        {
          "internalType": "bytes",
          "name": "intermediateNodes",
          "type": "bytes"
        },
        {
          "internalType": "uint256",
          "name": "index",
          "type": "uint256"
        },
        {
          "internalType": "bool",
          "name": "payWithTDT",
          "type": "bool"
        },
        {
          "internalType": "uint256",
          "name": "requestIndex",
          "type": "uint256"
        }
      ],
      "name": "burnProof",
      "outputs": [
        {
          "internalType": "bool",
          "name": "",
          "type": "bool"
        }
      ],
      "stateMutability": "nonpayable",
      "type": "function"
    },
    {
      "inputs": [],
      "name": "burningFee",
      "outputs": [
        {
          "internalType": "uint256",
          "name": "",
          "type": "uint256"
        }
      ],
      "stateMutability": "view",
      "type": "function"
    },
    {
      "inputs": [
        {
          "internalType": "uint256",
          "name": "amount",
          "type": "uint256"
        },
        {
          "internalType": "bytes",
          "name": "decodedAddress",
          "type": "bytes"
        }
      ],
      "name": "ccBurn",
      "outputs": [
        {
          "internalType": "bool",
          "name": "",
          "type": "bool"
        }
      ],
      "stateMutability": "nonpayable",
      "type": "function"
    },
    {
      "inputs": [],
      "name": "ccExchangeRouter",
      "outputs": [
        {
          "internalType": "address",
          "name": "",
          "type": "address"
        }
      ],
      "stateMutability": "view",
      "type": "function"
    },
    {
      "inputs": [
        {
          "internalType": "address",
          "name": "_owner",
          "type": "address"
        }
      ],
      "name": "changeOwner",
      "outputs": [],
      "stateMutability": "nonpayable",
      "type": "function"
    },
    {
      "inputs": [],
      "name": "confirmationParameter",
      "outputs": [
        {
          "internalType": "uint256",
          "name": "",
          "type": "uint256"
        }
      ],
      "stateMutability": "view",
      "type": "function"
    },
    {
      "inputs": [
        {
          "internalType": "uint256",
          "name": "requestIndex",
          "type": "uint256"
        },
        {
          "internalType": "address",
          "name": "recipient",
          "type": "address"
        }
      ],
      "name": "disputeBurn",
      "outputs": [],
      "stateMutability": "nonpayable",
      "type": "function"
    },
    {
      "inputs": [],
      "name": "owner",
      "outputs": [
        {
          "internalType": "address",
          "name": "",
          "type": "address"
        }
      ],
      "stateMutability": "view",
      "type": "function"
    },
    {
      "inputs": [
        {
          "internalType": "uint256",
          "name": "",
          "type": "uint256"
        },
        {
          "internalType": "uint256",
          "name": "",
          "type": "uint256"
        }
      ],
      "name": "psbts",
      "outputs": [
        {
          "internalType": "bytes",
          "name": "psbtBase",
          "type": "bytes"
        },
        {
          "internalType": "bytes",
          "name": "psbtSigned",
          "type": "bytes"
        }
      ],
      "stateMutability": "view",
      "type": "function"
    },
    {
      "inputs": [
        {
          "internalType": "address",
          "name": "_bitcoinRelay",
          "type": "address"
        }
      ],
      "name": "setBitcoinRelay",
      "outputs": [],
      "stateMutability": "nonpayable",
      "type": "function"
    },
    {
      "inputs": [
        {
          "internalType": "uint256",
          "name": "_confirmationParameter",
          "type": "uint256"
        }
      ],
      "name": "setConfirmationParameter",
      "outputs": [],
      "stateMutability": "nonpayable",
      "type": "function"
    },
    {
      "inputs": [
        {
          "internalType": "uint256",
          "name": "_transferDeadline",
          "type": "uint256"
        }
      ],
      "name": "setTransferDeadline",
      "outputs": [],
      "stateMutability": "nonpayable",
      "type": "function"
    },
    {
      "inputs": [
        {
          "internalType": "address",
          "name": "_wrappedBitcoin",
          "type": "address"
        }
      ],
      "name": "setWrappedBitcoin",
      "outputs": [],
      "stateMutability": "nonpayable",
      "type": "function"
    },
    {
      "inputs": [
        {
          "internalType": "uint256",
          "name": "teleporterIndex",
          "type": "uint256"
        },
        {
          "internalType": "bytes",
          "name": "psbtBase",
          "type": "bytes"
        },
        {
          "internalType": "bytes",
          "name": "psbtSigned",
          "type": "bytes"
        },
        {
          "internalType": "uint256",
          "name": "requestIndex",
          "type": "uint256"
        }
      ],
      "name": "submitPSBT",
      "outputs": [
        {
          "internalType": "bool",
          "name": "",
          "type": "bool"
        }
      ],
      "stateMutability": "nonpayable",
      "type": "function"
    },
    {
      "inputs": [],
      "name": "transferDeadline",
      "outputs": [
        {
          "internalType": "uint256",
          "name": "",
          "type": "uint256"
        }
      ],
      "stateMutability": "view",
      "type": "function"
    },
    {
      "inputs": [
        {
          "internalType": "uint256",
          "name": "",
          "type": "uint256"
        }
      ],
      "name": "unWrapRequests",
      "outputs": [
        {
          "internalType": "uint256",
          "name": "amount",
          "type": "uint256"
        },
        {
          "internalType": "address",
          "name": "requestSender",
          "type": "address"
        },
        {
          "internalType": "address",
          "name": "pubKeyHash",
          "type": "address"
        },
        {
          "internalType": "uint256",
          "name": "burningFee",
          "type": "uint256"
        },
        {
          "internalType": "uint256",
          "name": "transferDeadline",
          "type": "uint256"
        },
        {
          "internalType": "bool",
          "name": "isTransferred",
          "type": "bool"
        }
      ],
      "stateMutability": "view",
      "type": "function"
    },
    {
      "inputs": [],
      "name": "wrappedBitcoin",
      "outputs": [
        {
          "internalType": "address",
          "name": "",
          "type": "address"
        }
      ],
      "stateMutability": "view",
      "type": "function"
    }
  ],
  "transactionHash": "0x90b6d16ea30bc9d13bff4f7b783a6a04d4d8f5fbd0d26a6b4c40bbc77c913a95",
  "args": [
    "0x9fa5Fd5E52D0793e4bc9A170eEF232eD15DaA6Ad",
    "0xD57a0FF38FE9b8803904D0F79f44792bd79524C6",
    "0xa608f5B846b3e4B71C589DFAd3862f5E1C074FaA",
    3,
    100,
    0
  ],
  "numDeployments": 1,
  "solcInputHash": "b766d894e7507eaf09e41e8de1c94935",
  "bytecode": "0x608060405234801561001057600080fd5b50604051612fbc380380612fbc833981810160405260c081101561003357600080fd5b508051602082015160408301516060840151608085015160a090950151600080546001600160a01b039687166001600160a01b0319918216179091556001805495871695821695909517909455600580549590931694841694909417909155600955600792909255600855600a805490911633179055612f04806100b86000396000f3fe608060405234801561001057600080fd5b506004361061012c5760003560e01c806391847933116100ad578063bed6a60211610071578063bed6a602146105f6578063c10133de146105fe578063d1d8d2ed14610606578063d3a827861461060e578063e97fe07d146107405761012c565b80639184793314610334578063a6f9dae1146103f3578063aafcad7514610419578063b19f68d314610421578063b42143901461059a5761012c565b80635c4f5f3e116100f45780635c4f5f3e146102b25780636006bb44146102cf57806367a4b3c0146102f55780638da5cb5b1461031257806390f712cc1461031a5761012c565b80630638bedb146101315780630981a66614610232578063108f438d1461025a5780635615e16f1461027e5780635afc0bd414610286575b600080fd5b6101546004803603604081101561014757600080fd5b5080359060200135610748565b604051808060200180602001838103835285818151815260200191508051906020019080838360005b8381101561019557818101518382015260200161017d565b50505050905090810190601f1680156101c25780820380516001836020036101000a031916815260200191505b50838103825284518152845160209182019186019080838360005b838110156101f55781810151838201526020016101dd565b50505050905090810190601f1680156102225780820380516001836020036101000a031916815260200191505b5094505050505060405180910390f35b6102586004803603602081101561024857600080fd5b50356001600160a01b03166108a2565b005b6102626108db565b604080516001600160a01b039092168252519081900360200190f35b6102626108ea565b6102586004803603604081101561029c57600080fd5b50803590602001356001600160a01b03166108f9565b610258600480360360208110156102c857600080fd5b5035610b5a565b610258600480360360208110156102e557600080fd5b50356001600160a01b0316610b76565b6102586004803603602081101561030b57600080fd5b5035610baf565b610262610bcb565b610322610bda565b60408051918252519081900360200190f35b6103df6004803603604081101561034a57600080fd5b81359190810190604081016020820135600160201b81111561036b57600080fd5b82018360208201111561037d57600080fd5b803590602001918460018302840111600160201b8311171561039e57600080fd5b91908080601f016020809104026020016040519081016040528093929190818152602001838380828437600092019190915250929550610be0945050505050565b604080519115158252519081900360200190f35b6102586004803603602081101561040957600080fd5b50356001600160a01b0316610d4c565b610262610d85565b6103df600480360361012081101561043857600080fd5b6001600160e01b03198235169190810190604081016020820135600160201b81111561046357600080fd5b82018360208201111561047557600080fd5b803590602001918460018302840111600160201b8311171561049657600080fd5b91908080601f0160208091040260200160405190810160405280939291908181526020018383808284376000920191909152509295949360208101935035915050600160201b8111156104e857600080fd5b8201836020820111156104fa57600080fd5b803590602001918460018302840111600160201b8311171561051b57600080fd5b919390926001600160e01b0319833516926020810135929190606081019060400135600160201b81111561054e57600080fd5b82018360208201111561056057600080fd5b803590602001918460018302840111600160201b8311171561058157600080fd5b9193509150803590602081013515159060400135610d94565b6105b7600480360360208110156105b057600080fd5b503561108c565b604080519687526001600160a01b03958616602088015293909416858401526060850191909152608084015290151560a0830152519081900360c00190f35b6103226110e2565b6103226110e8565b6102626110ee565b6103df6004803603608081101561062457600080fd5b81359190810190604081016020820135600160201b81111561064557600080fd5b82018360208201111561065757600080fd5b803590602001918460018302840111600160201b8311171561067857600080fd5b91908080601f0160208091040260200160405190810160405280939291908181526020018383808284376000920191909152509295949360208101935035915050600160201b8111156106ca57600080fd5b8201836020820111156106dc57600080fd5b803590602001918460018302840111600160201b831117156106fd57600080fd5b91908080601f01602080910402602001604051908101604052809392919081815260200183838082843760009201919091525092955050913592506110fd915050565b61026261143c565b6003602052816000526040600020818154811061076457600080fd5b60009182526020918290206002918202018054604080516001831615610100026000190190921693909304601f8101859004850282018501909352828152909450925083918301828280156107fa5780601f106107cf576101008083540402835291602001916107fa565b820191906000526020600020905b8154815290600101906020018083116107dd57829003601f168201915b505050505090806001018054600181600116156101000203166002900480601f0160208091040260200160405190810160405280929190818152602001828054600181600116156101000203166002900480156108985780601f1061086d57610100808354040283529160200191610898565b820191906000526020600020905b81548152906001019060200180831161087b57829003601f168201915b5050505050905082565b600a546001600160a01b031633146108b957600080fd5b600680546001600160a01b0319166001600160a01b0392909216919091179055565b6005546001600160a01b031681565b6006546001600160a01b031681565b6002828154811061090657fe5b600091825260209091206005600690920201015460ff161561096f576040805162461bcd60e51b815260206004820152601c60248201527f5265717565737420686173206265656e2070616964206265666f726500000000604482015290519081900360640190fd5b60008060009054906101000a90046001600160a01b03166001600160a01b0316632f796d906040518163ffffffff1660e01b815260040160206040518083038186803b1580156109be57600080fd5b505afa1580156109d2573d6000803e3d6000fd5b505050506040513d60208110156109e857600080fd5b5051600280549192508291859081106109fd57fe5b90600052602060002090600602016004015410610a4b5760405162461bcd60e51b8152600401808060200182810382526024815260200180612dc86024913960400191505060405180910390fd5b60028381548110610a5857fe5b60009182526020909120600690910201600101546001600160a01b03163314610ac0576040805162461bcd60e51b815260206004820152601560248201527414d95b99195c881a5cc81b9bdd08185b1b1bddd959605a1b604482015290519081900360640190fd5b600154600280546001600160a01b0390921691639d14aea6919086908110610ae457fe5b906000526020600020906006020160000154846040518363ffffffff1660e01b815260040180838152602001826001600160a01b0316815260200192505050600060405180830381600087803b158015610b3d57600080fd5b505af1158015610b51573d6000803e3d6000fd5b50505050505050565b600a546001600160a01b03163314610b7157600080fd5b600755565b600a546001600160a01b03163314610b8d57600080fd5b600080546001600160a01b0319166001600160a01b0392909216919091179055565b600a546001600160a01b03163314610bc657600080fd5b600955565b600a546001600160a01b031681565b60085481565b600080610bf0836001601561144b565b600654604080516323b872dd60e01b81523360048201523060248201526044810188905290519293506001600160a01b03909116916323b872dd916064808201926020929091908290030181600087803b158015610c4d57600080fd5b505af1158015610c61573d6000803e3d6000fd5b505050506040513d6020811015610c7757600080fd5b50506006546008546001600160a01b03909116906342966c689060649081038702046040518263ffffffff1660e01b815260040180828152602001915050600060405180830381600087803b158015610ccf57600080fd5b505af1158015610ce3573d6000803e3d6000fd5b50505050610cf1848261150c565b600254604080516001600160a01b03841681526020810187905260001990920182820152517ffad80fc3234ba7399f36e6f370cff7b5967825f49e61b8b335513191d4a119cf9181900360600190a160019150505b92915050565b600a546001600160a01b03163314610d6357600080fd5b600a80546001600160a01b0319166001600160a01b0392909216919091179055565b6000546001600160a01b031681565b600060028281548110610da357fe5b600091825260209091206005600690920201015460ff1615610e0c576040805162461bcd60e51b815260206004820152601c60248201527f5265717565737420686173206265656e2070616964206265666f726500000000604482015290519081900360640190fd5b4360028381548110610e1a57fe5b9060005260206000209060060201600401541015610e7f576040805162461bcd60e51b815260206004820152601c60248201527f506179206261636b20646561646c696e65206861732070617373656400000000604482015290519081900360640190fd5b6000610e8e8d8d8d8d8d6116f8565b9050610e99816118d1565b9050610ee2818989898080601f016020809104026020016040519081016040528093929190818152602001838380828437600092019190915250506009548b92508a9150611989565b610f33576040805162461bcd60e51b815260206004820152601d60248201527f5472616e73616374696f6e20686173206e6f742066696e616c697a6564000000604482015290519081900360640190fd5b6000610fa08c8c8080601f01602080910402602001604051908101604052809392919081815260200183838082843760009201919091525050600280549092508891508110610f7e57fe5b60009182526020909120600260069092020101546001600160a01b0316611aa8565b50600280546001600160401b0390921692509085908110610fbd57fe5b90600052602060002090600602016000015481101561100d5760405162461bcd60e51b8152600401808060200182810382526021815260200180612e4e6021913960400191505060405180910390fd5b7fcdf32dd27c98f322b97e4868601f471cde5b85692fc7ba8852a33d4be5a119c96002858154811061103b57fe5b600091825260209182902060026006909202010154604080516001600160a01b03909216825291810184905280820187905290519081900360600190a15060019d9c50505050505050505050505050565b6002818154811061109c57600080fd5b60009182526020909120600690910201805460018201546002830154600384015460048501546005909501549395506001600160a01b0392831694919092169260ff1686565b60075481565b60095481565b6001546001600160a01b031681565b60015460408051634c1c2b0160e01b81523360048201526024810187905290516000926001600160a01b031691634c1c2b01916044808301926020929190829003018186803b15801561114f57600080fd5b505afa158015611163573d6000803e3d6000fd5b505050506040513d602081101561117957600080fd5b50516111cc576040805162461bcd60e51b815260206004820152601c60248201527f6d73672073656e646572206973206e6f742074656c65706f7274657200000000604482015290519081900360640190fd5b600282815481106111d957fe5b600091825260209091206005600690920201015460ff1615611242576040805162461bcd60e51b815260206004820152601c60248201527f5265717565737420686173206265656e2070616964206265666f726500000000604482015290519081900360640190fd5b436002838154811061125057fe5b90600052602060002090600602016004015410156112b5576040805162461bcd60e51b815260206004820152601c60248201527f506179206261636b20646561646c696e65206861732070617373656400000000604482015290519081900360640190fd5b6112bd612ca1565b60208082018590528582526000848152600382526040812080546001810182559082529082902083518051859460029094029092019261130292849290910190612cbb565b50602082810151805161131b9260018501920190612cbb565b5050507fde086c24c70cb3d3ec161185a4be8eefdde0517941cb0f7bc1146398beed284585858886604051808060200180602001858152602001848152602001838103835287818151815260200191508051906020019080838360005b83811015611390578181015183820152602001611378565b50505050905090810190601f1680156113bd5780820380516001836020036101000a031916815260200191505b50838103825286518152865160209182019188019080838360005b838110156113f05781810151838201526020016113d8565b50505050905090810190601f16801561141d5780820380516001836020036101000a031916815260200191505b50965050505050505060405180910390a160019150505b949350505050565b6004546001600160a01b031681565b6000806060845b846001018110156114fe5786818151811061146957fe5b602001015160f81c60f81b925081836040516020018083805190602001908083835b602083106114aa5780518252601f19909201916020918201910161148b565b6001836020036101000a038019825116818451168082178552505050505050905001826001600160f81b03191681526001019250505060405160208183030381529060405291508080600101915050611452565b506014015195945050505050565b60008060009054906101000a90046001600160a01b03166001600160a01b0316632f796d906040518163ffffffff1660e01b815260040160206040518083038186803b15801561155b57600080fd5b505afa15801561156f573d6000803e3d6000fd5b505050506040513d602081101561158557600080fd5b50519050611591612d47565b92835233602084019081526001600160a01b0392831660408501908152600854606086019081526007549390930160808601908152600060a0870181815260028054600181018255925296517f405787fa12a823e0f2b7631cc41b3ba8828b3321ca811111fa75cd3aa3bb5ace60069092029182015592517f405787fa12a823e0f2b7631cc41b3ba8828b3321ca811111fa75cd3aa3bb5acf840180546001600160a01b031990811692881692909217905591517f405787fa12a823e0f2b7631cc41b3ba8828b3321ca811111fa75cd3aa3bb5ad084018054909316951694909417905590517f405787fa12a823e0f2b7631cc41b3ba8828b3321ca811111fa75cd3aa3bb5ad182015590517f405787fa12a823e0f2b7631cc41b3ba8828b3321ca811111fa75cd3aa3bb5ad282015590517f405787fa12a823e0f2b7631cc41b3ba8828b3321ca811111fa75cd3aa3bb5ad3909101805460ff1916911515919091179055565b6000806002878787878760405160200180866001600160e01b031916815260040185805190602001908083835b602083106117445780518252601f199092019160209182019101611725565b6001836020036101000a03801982511681845116808217855250505050505090500184848082843780830192505050826001600160e01b0319168152600401955050505050506040516020818303038152906040526040518082805190602001908083835b602083106117c85780518252601f1990920191602091820191016117a9565b51815160209384036101000a60001901801990921691161790526040519190930194509192505080830381855afa158015611807573d6000803e3d6000fd5b5050506040513d602081101561181c57600080fd5b5051604080516020818101849052825180830382018152918301928390528151939450600093600293918291908401908083835b6020831061186f5780518252601f199092019160209182019101611850565b51815160209384036101000a60001901801990921691161790526040519190930194509192505080830381855afa1580156118ae573d6000803e3d6000fd5b5050506040513d60208110156118c357600080fd5b505198975050505050505050565b6000606081805b602081101561197b57828582601f03602081106118f157fe5b1a60f81b6040516020018083805190602001908083835b602083106119275780518252601f199092019160209182019101611908565b6001836020036101000a038019825116818451168082178552505050505050905001826001600160f81b031916815260010192505050604051602081830303815290604052925080806001019150506118d8565b50506020015190505b919050565b60008060009054906101000a90046001600160a01b03166001600160a01b03166373b63c828888888888886040518763ffffffff1660e01b815260040180878152602001868152602001806020018581526020018415158152602001838152602001828103825286818151815260200191508051906020019080838360005b83811015611a20578181015183820152602001611a08565b50505050905090810190601f168015611a4d5780820380516001836020036101000a031916815260200191505b50975050505050505050602060405180830381600087803b158015611a7157600080fd5b505af1158015611a85573d6000803e3d6000fd5b505050506040513d6020811015611a9b57600080fd5b5051979650505050505050565b6000606081611ac5611aba8683611be3565b62ffffff1916611c07565b9050600080600080600060606000611ade886000611d37565b6001600160401b0316905060005b81811015611bd157611afe8982611e50565b9750611b0988611f57565b9550611b1486611fad565b945062ffffff198086161415611bb757611b3362ffffff19871661207e565b6001600160601b0316601a1415611b5857611b5562ffffff198716600461208d565b93505b611b6762ffffff19871661207e565b6001600160601b031660171415611b8c57611b8962ffffff198716600361208d565b93505b8b6001600160a01b0316846001600160a01b03161415611bb257611baf886120a2565b96505b611bc9565b611bc662ffffff1986166120b6565b92505b600101611aec565b50949b909a5098505050505050505050565b815160009060208401611bfe64ffffffffff851682846120f5565b95945050505050565b60008181611c1d815b62ffffff1984169061212f565b50611c2d62ffffff19851661207e565b6001600160601b0316611c4957611c4261226d565b9250611d30565b6000611c56856000611d37565b90506000611c6962ffffff19871661207e565b6001600160601b031690506001600160401b038216611c9357611c8a61226d565b94505050611d30565b6000611c9e83612275565b60ff16905060005b836001600160401b0316811015611cff57828210611cd157611cc661226d565b965050505050611d30565b6000611ce762ffffff198a16848603600e6122ce565b9050611cf2816122f7565b9092019150600101611ca6565b50818114611d1957611d0f61226d565b9550505050611d30565b611d2a62ffffff198816600f612339565b95505050505b5050919050565b600080611d4c62ffffff19851684600161234b565b905060fc8111611d5d579050610d46565b8060fd1415611db357611d7b62ffffff19851660018501600261236c565b9150611d8682612275565b60ff16600314611dae57611dac611da762ffffff1986168560036000612381565b6123e6565b505b611e49565b8060fe1415611dfd57611dd162ffffff19851660018501600461236c565b9150611ddc82612275565b60ff16600514611dae57611dac611da762ffffff1986168560056000612381565b8060ff1415611e4957611e1b62ffffff19851660018501600861236c565b9150611e2682612275565b60ff16600914611e4957611e47611da762ffffff1986168560096000612381565b505b5092915050565b600080611e5e846000611d37565b6001600160401b031690506000611e7a62ffffff19861661207e565b6001600160601b03169050818410611ecd576040805162461bcd60e51b81526020600482015260116024820152702b37baba103932b0b21037bb32b9393ab760791b604482015290519081900360640190fd5b6000611ed883612275565b60ff1690506000805b86811015611f1457611efd62ffffff198916848603600e6122ce565b9150611f08826122f7565b90920191600101611ee1565b50611f2962ffffff198816838503600e6122ce565b90506000611f36826122f7565b9050611f4b62ffffff1989168483600d612381565b98975050505050505050565b600081600d611f6581611c10565b506000611f73856008611d37565b9050611bfe600882611f8484612275565b60ff16016001600160401b031660076014811115611f9e57fe5b62ffffff198916929190612381565b6000816007611fbb81611c10565b506000611fc9856000611d37565b90506000611fe062ffffff1987166002600161234b565b9050604d826001600160401b0316118061200357506004826001600160401b0316105b80612020575061201b62ffffff19871660018061234b565b606a14155b8061204a57506001600160401b0360011983011661204762ffffff1988166002600161234b565b14155b1561205757611c8a61226d565b61207462ffffff19871660036001600160401b038416600c612381565b9695505050505050565b60181c6001600160601b031690565b600061209b8383601461234b565b9392505050565b6000610d4662ffffff19831682600861236c565b60606000806120c48461207e565b6001600160601b0316905060405191508192506120e484836020016124b4565b508181016020016040529052919050565b60008061210284846125a2565b9050604051811115612112575060005b806121245762ffffff1991505061209b565b611bfe8585856125f1565b600061213b8383612604565b61226657600061215961214d85612626565b64ffffffffff1661262c565b915050600061216e8464ffffffffff1661262c565b604080517f5479706520617373657274696f6e206661696c65642e20476f742030780000006020808301919091526001600160b01b031960b088811b8216603d8501526c05c408af0e0cac6e8cac84060f609b1b604785015285901b1660548301528251603e818403018152605e83019384905262461bcd60e51b909352606282018181528351608284015283519496509294508493839260a2019185019080838360005b8381101561222b578181015183820152602001612213565b50505050905090810190601f1680156122585780820380516001836020036101000a031916815260200191505b509250505060405180910390fd5b5090919050565b62ffffff1990565b600060fc826001600160401b03161161229057506001611984565b61ffff826001600160401b0316116122aa57506003611984565b63ffffffff826001600160401b0316116122c657506005611984565b506009611984565b6000611434846122f0856122e18861207e565b6001600160601b0316906126c4565b8585612381565b600081600e61230581611c10565b506000612313856008611d37565b9050806001600160401b031661232882612275565b60ff16016008019350505050919050565b60d81b6001600160d81b039091161790565b60008160200360080260ff16612362858585612714565b901c949350505050565b600061143461237c858585612714565b61283a565b60008061238d86612974565b6001600160601b031690506123a186612983565b6123b5856123af84896125a2565b906125a2565b11156123c85762ffffff19915050611434565b6123d281866125a2565b90506120748364ffffffffff1682866120f5565b6060600061241361240e8261240062ffffff19871661207e565b62ffffff198716919061234b565b61262c565b604080517f4e6f6e2d6d696e696d616c2076617220696e742e20476f742030780000000000602080830191909152607084901b6dffffffffffffffffffffffffffff1916603b8301528251808303602d018152604d83019384905262461bcd60e51b9093526051820181815283516071840152835194965092945084938392609101918501908083836000831561222b578181015183820152602001612213565b60006124bf836129a8565b6124fa5760405162461bcd60e51b8152600401808060200182810382526028815260200180612e266028913960400191505060405180910390fd5b612503836129ba565b61253e5760405162461bcd60e51b815260040180806020018281038252602b815260200180612e6f602b913960400191505060405180910390fd5b60006125498461207e565b6001600160601b03169050600061255f85612974565b6001600160601b03169050600060405190508481111561257f5760206060fd5b8285848460045afa5061207461259487612626565b64ffffffffff1686856125f1565b80820182811015610d46576040805162461bcd60e51b815260206004820152601460248201527364732d6d6174682d6164642d6f766572666c6f7760601b604482015290519081900360640190fd5b606092831b9190911790911b1760181b90565b60008164ffffffffff1661261784612626565b64ffffffffff16149392505050565b60d81c90565b600080601f5b600f8160ff1611156126765760ff600882021684901c612651816129f7565b61ffff16841793508160ff1660101461266c57601084901b93505b5060001901612632565b50600f5b60ff8160ff1610156126be5760ff600882021684901c612699816129f7565b61ffff16831792508160ff166000146126b457601083901b92505b506000190161267a565b50915091565b80820382811115610d46576040805162461bcd60e51b815260206004820152601560248201527464732d6d6174682d7375622d756e646572666c6f7760581b604482015290519081900360640190fd5b600060ff82166127265750600061209b565b61272f8461207e565b6001600160601b03166127458460ff85166125a2565b11156127c35761277c61275785612974565b6001600160601b03166127698661207e565b6001600160601b0316858560ff16612a27565b60405162461bcd60e51b815260206004820181815283516024840152835190928392604490910191908501908083836000831561222b578181015183820152602001612213565b60208260ff1611156128065760405162461bcd60e51b815260040180806020018281038252603a815260200180612dec603a913960400191505060405180910390fd5b60088202600061281586612974565b6001600160601b03169050600061282b83612b1a565b91909501511695945050505050565b600881811c7eff00ff00ff00ff00ff00ff00ff00ff00ff00ff00ff00ff00ff00ff00ff00ff167fff00ff00ff00ff00ff00ff00ff00ff00ff00ff00ff00ff00ff00ff00ff00ff009290911b9190911617601081811c7dffff0000ffff0000ffff0000ffff0000ffff0000ffff0000ffff0000ffff167fffff0000ffff0000ffff0000ffff0000ffff0000ffff0000ffff0000ffff00009290911b9190911617602081811c7bffffffff00000000ffffffff00000000ffffffff00000000ffffffff167fffffffff00000000ffffffff00000000ffffffff00000000ffffffff000000009290911b9190911617604081811c77ffffffffffffffff0000000000000000ffffffffffffffff1677ffffffffffffffff0000000000000000ffffffffffffffff199290911b9190911617608081811c91901b1790565b60781c6001600160601b031690565b600061298e8261207e565b61299783612974565b016001600160601b03169050919050565b60006129b382612b29565b1592915050565b60006129c582612626565b64ffffffffff1664ffffffffff14156129e057506000611984565b60006129eb83612983565b60405110199392505050565b6000612a0960048360ff16901c612b35565b60ff161760081b62ffff0016612a1e82612b35565b60ff1617919050565b60606000612a348661262c565b9150506000612a428661262c565b9150506000612a508661262c565b9150506000612a5e8661262c565b915050838383836040516020018080612e9a603591396001600160d01b031960d087811b821660358401526e040eed2e8d040d8cadccee8d04060f608b1b603b84015286901b16604a8201526050016021612da782396001600160d01b031960d094851b811660218301526e040eed2e8d040d8cadccee8d04060f608b1b60278301529290931b909116603683015250601760f91b603c82015260408051601d818403018152603d90920190529b9a5050505050505050505050565b600160ff1b6000199091011d90565b62ffffff199081161490565b600060f08083179060ff82161415612b51576030915050611984565b8060ff1660f11415612b67576031915050611984565b8060ff1660f21415612b7d576032915050611984565b8060ff1660f31415612b93576033915050611984565b8060ff1660f41415612ba9576034915050611984565b8060ff1660f51415612bbf576035915050611984565b8060ff1660f61415612bd5576036915050611984565b8060ff1660f71415612beb576037915050611984565b8060ff1660f81415612c01576038915050611984565b8060ff1660f91415612c17576039915050611984565b8060ff1660fa1415612c2d576061915050611984565b8060ff1660fb1415612c43576062915050611984565b8060ff1660fc1415612c59576063915050611984565b8060ff1660fd1415612c6f576064915050611984565b8060ff1660fe1415612c85576065915050611984565b8060ff1660ff1415612c9b576066915050611984565b50919050565b604051806040016040528060608152602001606081525090565b828054600181600116156101000203166002900490600052602060002090601f016020900481019282612cf15760008555612d37565b82601f10612d0a57805160ff1916838001178555612d37565b82800160010185558215612d37579182015b82811115612d37578251825591602001919060010190612d1c565b50612d43929150612d91565b5090565b6040518060c001604052806000815260200160006001600160a01b0316815260200160006001600160a01b0316815260200160008152602001600081526020016000151581525090565b5b80821115612d435760008155600101612d9256fe2e20417474656d7074656420746f20696e646578206174206f6666736574203078506179206261636b20646561646c696e6520686173206e6f74207061737365642079657454797065644d656d566965772f696e646578202d20417474656d7074656420746f20696e646578206d6f7265207468616e20333220627974657354797065644d656d566965772f636f7079546f202d204e756c6c20706f696e746572206465726566506179206261636b20616d6f756e74206973206e6f742073756666696369656e7454797065644d656d566965772f636f7079546f202d20496e76616c696420706f696e74657220646572656654797065644d656d566965772f696e646578202d204f76657272616e2074686520766965772e20536c696365206973206174203078a26469706673582212204324828d88da8518cf73063a30fbab85349da690d8f41a0108d3e3e4e607fb4964736f6c63430007060033",
  "devdoc": {
    "kind": "dev",
    "methods": {},
    "version": 1
  },
  "userdoc": {
    "kind": "user",
    "methods": {},
    "version": 1
  },
  "storageLayout": {
    "storage": [
      {
        "astId": 11062,
        "contract": "contracts/routers/CCBurnRouter.sol:CCBurnRouter",
        "label": "bitcoinRelay",
        "offset": 0,
        "slot": "0",
        "type": "t_address"
      },
      {
        "astId": 11064,
        "contract": "contracts/routers/CCBurnRouter.sol:CCBurnRouter",
        "label": "bitcoinTeleporter",
        "offset": 0,
        "slot": "1",
        "type": "t_address"
      },
      {
        "astId": 11067,
        "contract": "contracts/routers/CCBurnRouter.sol:CCBurnRouter",
        "label": "unWrapRequests",
        "offset": 0,
        "slot": "2",
        "type": "t_array(t_struct(unWrapRequest)17634_storage)dyn_storage"
      },
      {
        "astId": 11072,
        "contract": "contracts/routers/CCBurnRouter.sol:CCBurnRouter",
        "label": "psbts",
        "offset": 0,
        "slot": "3",
        "type": "t_mapping(t_uint256,t_array(t_struct(psbt)17639_storage)dyn_storage)"
      },
      {
        "astId": 11074,
        "contract": "contracts/routers/CCBurnRouter.sol:CCBurnRouter",
        "label": "ccExchangeRouter",
        "offset": 0,
        "slot": "4",
        "type": "t_address"
      },
      {
        "astId": 11076,
        "contract": "contracts/routers/CCBurnRouter.sol:CCBurnRouter",
        "label": "TeleportDAOToken",
        "offset": 0,
        "slot": "5",
        "type": "t_address"
      },
      {
        "astId": 11079,
        "contract": "contracts/routers/CCBurnRouter.sol:CCBurnRouter",
        "label": "wrappedBitcoin",
        "offset": 0,
        "slot": "6",
        "type": "t_address"
      },
      {
        "astId": 11081,
        "contract": "contracts/routers/CCBurnRouter.sol:CCBurnRouter",
        "label": "transferDeadline",
        "offset": 0,
        "slot": "7",
        "type": "t_uint256"
      },
      {
        "astId": 11083,
        "contract": "contracts/routers/CCBurnRouter.sol:CCBurnRouter",
        "label": "burningFee",
        "offset": 0,
        "slot": "8",
        "type": "t_uint256"
      },
      {
        "astId": 11085,
        "contract": "contracts/routers/CCBurnRouter.sol:CCBurnRouter",
        "label": "confirmationParameter",
        "offset": 0,
        "slot": "9",
        "type": "t_uint256"
      },
      {
        "astId": 11088,
        "contract": "contracts/routers/CCBurnRouter.sol:CCBurnRouter",
        "label": "owner",
        "offset": 0,
        "slot": "10",
        "type": "t_address"
      }
    ],
    "types": {
      "t_address": {
        "encoding": "inplace",
        "label": "address",
        "numberOfBytes": "20"
      },
      "t_array(t_struct(psbt)17639_storage)dyn_storage": {
        "base": "t_struct(psbt)17639_storage",
        "encoding": "dynamic_array",
        "label": "struct ICCBurnRouter.psbt[]",
        "numberOfBytes": "32"
      },
      "t_array(t_struct(unWrapRequest)17634_storage)dyn_storage": {
        "base": "t_struct(unWrapRequest)17634_storage",
        "encoding": "dynamic_array",
        "label": "struct ICCBurnRouter.unWrapRequest[]",
        "numberOfBytes": "32"
      },
      "t_bool": {
        "encoding": "inplace",
        "label": "bool",
        "numberOfBytes": "1"
      },
      "t_bytes_storage": {
        "encoding": "bytes",
        "label": "bytes",
        "numberOfBytes": "32"
      },
      "t_mapping(t_uint256,t_array(t_struct(psbt)17639_storage)dyn_storage)": {
        "encoding": "mapping",
        "key": "t_uint256",
        "label": "mapping(uint256 => struct ICCBurnRouter.psbt[])",
        "numberOfBytes": "32",
        "value": "t_array(t_struct(psbt)17639_storage)dyn_storage"
      },
      "t_struct(psbt)17639_storage": {
        "encoding": "inplace",
        "label": "struct ICCBurnRouter.psbt",
        "members": [
          {
            "astId": 17636,
            "contract": "contracts/routers/CCBurnRouter.sol:CCBurnRouter",
            "label": "psbtBase",
            "offset": 0,
            "slot": "0",
            "type": "t_bytes_storage"
          },
          {
            "astId": 17638,
            "contract": "contracts/routers/CCBurnRouter.sol:CCBurnRouter",
            "label": "psbtSigned",
            "offset": 0,
            "slot": "1",
            "type": "t_bytes_storage"
          }
        ],
        "numberOfBytes": "64"
      },
      "t_struct(unWrapRequest)17634_storage": {
        "encoding": "inplace",
        "label": "struct ICCBurnRouter.unWrapRequest",
        "members": [
          {
            "astId": 17623,
            "contract": "contracts/routers/CCBurnRouter.sol:CCBurnRouter",
            "label": "amount",
            "offset": 0,
            "slot": "0",
            "type": "t_uint256"
          },
          {
            "astId": 17625,
            "contract": "contracts/routers/CCBurnRouter.sol:CCBurnRouter",
            "label": "requestSender",
            "offset": 0,
            "slot": "1",
            "type": "t_address"
          },
          {
            "astId": 17627,
            "contract": "contracts/routers/CCBurnRouter.sol:CCBurnRouter",
            "label": "pubKeyHash",
            "offset": 0,
            "slot": "2",
            "type": "t_address"
          },
          {
            "astId": 17629,
            "contract": "contracts/routers/CCBurnRouter.sol:CCBurnRouter",
            "label": "burningFee",
            "offset": 0,
            "slot": "3",
            "type": "t_uint256"
          },
          {
            "astId": 17631,
            "contract": "contracts/routers/CCBurnRouter.sol:CCBurnRouter",
            "label": "transferDeadline",
            "offset": 0,
            "slot": "4",
            "type": "t_uint256"
          },
          {
            "astId": 17633,
            "contract": "contracts/routers/CCBurnRouter.sol:CCBurnRouter",
            "label": "isTransferred",
            "offset": 0,
            "slot": "5",
            "type": "t_bool"
          }
        ],
        "numberOfBytes": "192"
      },
      "t_uint256": {
        "encoding": "inplace",
        "label": "uint256",
        "numberOfBytes": "32"
      }
    }
  }
}