{
  "address": "0x1caC8e4a5e51b77C7cC3b77eD3eDaD0EefFD6B62",
  "abi": [
    {
      "inputs": [
        {
          "internalType": "address",
          "name": "_relay",
          "type": "address"
        },
        {
          "internalType": "address",
          "name": "_lockers",
          "type": "address"
        },
        {
          "internalType": "address",
          "name": "_treasury",
          "type": "address"
        },
        {
          "internalType": "uint256",
          "name": "_transferDeadline",
          "type": "uint256"
        },
        {
          "internalType": "uint256",
          "name": "_protocolPercentageFee",
          "type": "uint256"
        },
        {
          "internalType": "uint256",
          "name": "_slasherPercentageReward",
          "type": "uint256"
        },
        {
          "internalType": "uint256",
          "name": "_bitcoinFee",
          "type": "uint256"
        }
      ],
      "stateMutability": "nonpayable",
      "type": "constructor"
    },
    {
      "anonymous": false,
      "inputs": [
        {
          "indexed": true,
          "internalType": "address",
          "name": "userTargetAddress",
          "type": "address"
        },
        {
          "indexed": false,
          "internalType": "bytes",
          "name": "userLockingScript",
          "type": "bytes"
        },
        {
          "indexed": false,
          "internalType": "uint256",
          "name": "amount",
          "type": "uint256"
        },
        {
          "indexed": false,
          "internalType": "uint256",
          "name": "burntAmount",
          "type": "uint256"
        },
        {
          "indexed": true,
          "internalType": "address",
          "name": "lockerTargetAddress",
          "type": "address"
        },
        {
          "indexed": false,
          "internalType": "uint256",
          "name": "index",
          "type": "uint256"
        },
        {
          "indexed": true,
          "internalType": "uint256",
          "name": "deadline",
          "type": "uint256"
        }
      ],
      "name": "CCBurn",
      "type": "event"
    },
    {
      "anonymous": false,
      "inputs": [
        {
          "indexed": false,
          "internalType": "address",
          "name": "_lockerTargetAddress",
          "type": "address"
        },
        {
          "indexed": false,
          "internalType": "uint256",
          "name": "_blockNumber",
          "type": "uint256"
        },
        {
          "indexed": false,
          "internalType": "bytes32",
          "name": "txId",
          "type": "bytes32"
        }
      ],
      "name": "LockerDispute",
      "type": "event"
    },
    {
      "anonymous": false,
      "inputs": [
        {
          "indexed": true,
          "internalType": "address",
          "name": "previousOwner",
          "type": "address"
        },
        {
          "indexed": true,
          "internalType": "address",
          "name": "newOwner",
          "type": "address"
        }
      ],
      "name": "OwnershipTransferred",
      "type": "event"
    },
    {
      "anonymous": false,
      "inputs": [
        {
          "indexed": true,
          "internalType": "address",
          "name": "userTargetAddress",
          "type": "address"
        },
        {
          "indexed": false,
          "internalType": "bytes",
          "name": "userLockingScript",
          "type": "bytes"
        },
        {
          "indexed": false,
          "internalType": "uint256",
          "name": "burntAmount",
          "type": "uint256"
        },
        {
          "indexed": true,
          "internalType": "address",
          "name": "lockerTargetAddress",
          "type": "address"
        },
        {
          "indexed": false,
          "internalType": "uint256",
          "name": "index",
          "type": "uint256"
        }
      ],
      "name": "PaidCCBurn",
      "type": "event"
    },
    {
      "inputs": [],
      "name": "bitcoinFee",
      "outputs": [
        {
          "internalType": "uint256",
          "name": "",
          "type": "uint256"
        }
      ],
      "stateMutability": "view",
      "type": "function"
    },
    {
      "inputs": [
        {
          "internalType": "bytes4",
          "name": "_version",
          "type": "bytes4"
        },
        {
          "internalType": "bytes",
          "name": "_vin",
          "type": "bytes"
        },
        {
          "internalType": "bytes",
          "name": "_vout",
          "type": "bytes"
        },
        {
          "internalType": "bytes4",
          "name": "_locktime",
          "type": "bytes4"
        },
        {
          "internalType": "uint256",
          "name": "_blockNumber",
          "type": "uint256"
        },
        {
          "internalType": "bytes",
          "name": "_intermediateNodes",
          "type": "bytes"
        },
        {
          "internalType": "uint256",
          "name": "_index",
          "type": "uint256"
        },
        {
          "internalType": "bytes",
          "name": "_lockerLockingScript",
          "type": "bytes"
        },
        {
          "internalType": "uint256",
          "name": "_startIndex",
          "type": "uint256"
        },
        {
          "internalType": "uint256",
          "name": "_endIndex",
          "type": "uint256"
        }
      ],
      "name": "burnProof",
      "outputs": [
        {
          "internalType": "bool",
          "name": "",
          "type": "bool"
        }
      ],
      "stateMutability": "payable",
      "type": "function"
    },
    {
      "inputs": [
        {
          "internalType": "address",
          "name": "",
          "type": "address"
        },
        {
          "internalType": "uint256",
          "name": "",
          "type": "uint256"
        }
      ],
      "name": "burnRequests",
      "outputs": [
        {
          "internalType": "uint256",
          "name": "amount",
          "type": "uint256"
        },
        {
          "internalType": "uint256",
          "name": "burntAmount",
          "type": "uint256"
        },
        {
          "internalType": "address",
          "name": "sender",
          "type": "address"
        },
        {
          "internalType": "bytes",
          "name": "userLockingScript",
          "type": "bytes"
        },
        {
          "internalType": "uint256",
          "name": "deadline",
          "type": "uint256"
        },
        {
          "internalType": "bool",
          "name": "isTransferred",
          "type": "bool"
        }
      ],
      "stateMutability": "view",
      "type": "function"
    },
    {
      "inputs": [
        {
          "internalType": "uint256",
          "name": "_amount",
          "type": "uint256"
        },
        {
          "internalType": "bytes",
          "name": "_userLockingScript",
          "type": "bytes"
        },
        {
          "internalType": "bytes",
          "name": "_lockerLockingScript",
          "type": "bytes"
        }
      ],
      "name": "ccBurn",
      "outputs": [
        {
          "internalType": "bool",
          "name": "",
          "type": "bool"
        }
      ],
      "stateMutability": "nonpayable",
      "type": "function"
    },
    {
      "inputs": [
        {
          "internalType": "bytes",
          "name": "_lockerLockingScript",
          "type": "bytes"
        },
        {
          "internalType": "uint256[]",
          "name": "_indices",
          "type": "uint256[]"
        }
      ],
      "name": "disputeBurn",
      "outputs": [
        {
          "internalType": "bool",
          "name": "",
          "type": "bool"
        }
      ],
      "stateMutability": "nonpayable",
      "type": "function"
    },
    {
      "inputs": [
        {
          "internalType": "bytes",
          "name": "_lockerLockingScript",
          "type": "bytes"
        },
        {
          "internalType": "bytes",
          "name": "_lockerScript",
          "type": "bytes"
        },
        {
          "internalType": "uint256",
          "name": "_inputIndex",
          "type": "uint256"
        },
        {
          "internalType": "bytes4",
          "name": "_version",
          "type": "bytes4"
        },
        {
          "internalType": "bytes",
          "name": "_vin",
          "type": "bytes"
        },
        {
          "internalType": "bytes",
          "name": "_vout",
          "type": "bytes"
        },
        {
          "internalType": "bytes4",
          "name": "_locktime",
          "type": "bytes4"
        },
        {
          "internalType": "uint256",
          "name": "_blockNumber",
          "type": "uint256"
        },
        {
          "internalType": "bytes",
          "name": "_intermediateNodes",
          "type": "bytes"
        },
        {
          "internalType": "uint256",
          "name": "_index",
          "type": "uint256"
        }
      ],
      "name": "disputeLocker",
      "outputs": [
        {
          "internalType": "bool",
          "name": "",
          "type": "bool"
        }
      ],
      "stateMutability": "payable",
      "type": "function"
    },
    {
      "inputs": [
        {
          "internalType": "address",
          "name": "_lockerTargetAddress",
          "type": "address"
        },
        {
          "internalType": "uint256",
          "name": "_index",
          "type": "uint256"
        }
      ],
      "name": "isTransferred",
      "outputs": [
        {
          "internalType": "bool",
          "name": "",
          "type": "bool"
        }
      ],
      "stateMutability": "view",
      "type": "function"
    },
    {
      "inputs": [],
      "name": "lockers",
      "outputs": [
        {
          "internalType": "address",
          "name": "",
          "type": "address"
        }
      ],
      "stateMutability": "view",
      "type": "function"
    },
    {
      "inputs": [],
      "name": "owner",
      "outputs": [
        {
          "internalType": "address",
          "name": "",
          "type": "address"
        }
      ],
      "stateMutability": "view",
      "type": "function"
    },
    {
      "inputs": [],
      "name": "protocolPercentageFee",
      "outputs": [
        {
          "internalType": "uint256",
          "name": "",
          "type": "uint256"
        }
      ],
      "stateMutability": "view",
      "type": "function"
    },
    {
      "inputs": [],
      "name": "relay",
      "outputs": [
        {
          "internalType": "address",
          "name": "",
          "type": "address"
        }
      ],
      "stateMutability": "view",
      "type": "function"
    },
    {
      "inputs": [],
      "name": "renounceOwnership",
      "outputs": [],
      "stateMutability": "nonpayable",
      "type": "function"
    },
    {
      "inputs": [
        {
          "internalType": "uint256",
          "name": "_bitcoinFee",
          "type": "uint256"
        }
      ],
      "name": "setBitcoinFee",
      "outputs": [],
      "stateMutability": "nonpayable",
      "type": "function"
    },
    {
      "inputs": [
        {
          "internalType": "address",
          "name": "_lockers",
          "type": "address"
        }
      ],
      "name": "setLockers",
      "outputs": [],
      "stateMutability": "nonpayable",
      "type": "function"
    },
    {
      "inputs": [
        {
          "internalType": "uint256",
          "name": "_protocolPercentageFee",
          "type": "uint256"
        }
      ],
      "name": "setProtocolPercentageFee",
      "outputs": [],
      "stateMutability": "nonpayable",
      "type": "function"
    },
    {
      "inputs": [
        {
          "internalType": "address",
          "name": "_relay",
          "type": "address"
        }
      ],
      "name": "setRelay",
      "outputs": [],
      "stateMutability": "nonpayable",
      "type": "function"
    },
    {
      "inputs": [
        {
          "internalType": "uint256",
          "name": "_slasherPercentageReward",
          "type": "uint256"
        }
      ],
      "name": "setSlasherPercentageReward",
      "outputs": [],
      "stateMutability": "nonpayable",
      "type": "function"
    },
    {
      "inputs": [
        {
          "internalType": "address",
          "name": "_teleBTC",
          "type": "address"
        }
      ],
      "name": "setTeleBTC",
      "outputs": [],
      "stateMutability": "nonpayable",
      "type": "function"
    },
    {
      "inputs": [
        {
          "internalType": "uint256",
          "name": "_transferDeadline",
          "type": "uint256"
        }
      ],
      "name": "setTransferDeadline",
      "outputs": [],
      "stateMutability": "nonpayable",
      "type": "function"
    },
    {
      "inputs": [
        {
          "internalType": "address",
          "name": "_treasury",
          "type": "address"
        }
      ],
      "name": "setTreasury",
      "outputs": [],
      "stateMutability": "nonpayable",
      "type": "function"
    },
    {
      "inputs": [],
      "name": "slasherPercentageReward",
      "outputs": [
        {
          "internalType": "uint256",
          "name": "",
          "type": "uint256"
        }
      ],
      "stateMutability": "view",
      "type": "function"
    },
    {
      "inputs": [],
      "name": "teleBTC",
      "outputs": [
        {
          "internalType": "address",
          "name": "",
          "type": "address"
        }
      ],
      "stateMutability": "view",
      "type": "function"
    },
    {
      "inputs": [],
      "name": "transferDeadline",
      "outputs": [
        {
          "internalType": "uint256",
          "name": "",
          "type": "uint256"
        }
      ],
      "stateMutability": "view",
      "type": "function"
    },
    {
      "inputs": [
        {
          "internalType": "address",
          "name": "newOwner",
          "type": "address"
        }
      ],
      "name": "transferOwnership",
      "outputs": [],
      "stateMutability": "nonpayable",
      "type": "function"
    },
    {
      "inputs": [],
      "name": "treasury",
      "outputs": [
        {
          "internalType": "address",
          "name": "",
          "type": "address"
        }
      ],
      "stateMutability": "view",
      "type": "function"
    }
  ],
  "transactionHash": "0x48c3f935bbc63db87f4bb0f8e4bbbf80326733ab680e95d69add88ebb7c97a9c",
  "args": [
    "0x710bFb9AF7A8775b1f594b5D08b74D2fc7a93725",
    "0x1eFfd99c2B6567a4886C5942608AA1343d2FA102",
    "0x5364E3557572bd5D5903C0e9C21BE359F2Eac1dA",
    10,
    50,
    50,
    50
  ],
  "numDeployments": 1,
  "solcInputHash": "6f3e3be3e786d78529510e6414d29cbe",
  "bytecode": "0x60806040523480156200001157600080fd5b5060405162004dfe38038062004dfe833981016040819052620000349162000106565b6200003f3362000099565b60018055600280546001600160a01b03199081166001600160a01b03998a161790915560038054821697891697909717909655600580549096169490961693909317909355600855600991909155600a55600b5562000176565b600080546001600160a01b038381166001600160a01b0319831681178455604051919092169283917f8be0079c531659141344cd1fd0a4f28419497f9722a3daafe3b4186f6b6457e09190a35050565b80516001600160a01b03811681146200010157600080fd5b919050565b600080600080600080600060e0888a03121562000121578283fd5b6200012c88620000e9565b96506200013c60208901620000e9565b95506200014c60408901620000e9565b9450606088015193506080880151925060a0880151915060c0880151905092959891949750929550565b614c7880620001866000396000f3fe6080604052600436106101665760003560e01c80637ffe9a92116100d1578063bed6a6021161008a578063e14cd20711610064578063e14cd20714610406578063f0f4426014610419578063f2fde38b14610439578063f47e22401461045957610166565b8063bed6a602146103b0578063c805f68b146103c6578063cdbe3741146103e657610166565b80637ffe9a92146102fc5780638d3d78cd1461031c5780638da5cb5b1461033c578063b14d35321461035a578063b59589d11461037a578063b74d0d351461039a57610166565b80635c4f5f3e116101235780635c4f5f3e1461024757806361d027b314610267578063715018a61461028757806373532b2a1461029c5780637ed55748146102bc5780637f0f1817146102dc57610166565b80631812adb61461016b57806318593d9d146101945780631876dec4146101b7578063419cba7f146101ef578063419f02cd146102055780634782bc3614610225575b600080fd5b34801561017757600080fd5b5061018160095481565b6040519081526020015b60405180910390f35b6101a76101a23660046142ae565b61048b565b604051901515815260200161018b565b3480156101c357600080fd5b506003546101d7906001600160a01b031681565b6040516001600160a01b03909116815260200161018b565b3480156101fb57600080fd5b50610181600a5481565b34801561021157600080fd5b506101a76102203660046145b2565b610803565b34801561023157600080fd5b5061024561024036600461459a565b610c65565b005b34801561025357600080fd5b5061024561026236600461459a565b610cf7565b34801561027357600080fd5b506005546101d7906001600160a01b031681565b34801561029357600080fd5b50610245610e08565b3480156102a857600080fd5b506101a76102b73660046143c1565b610e3e565b3480156102c857600080fd5b506102456102d736600461459a565b6113be565b3480156102e857600080fd5b506102456102f7366004614213565b611452565b34801561030857600080fd5b506101a761031736600461424b565b6114c6565b34801561032857600080fd5b506004546101d7906001600160a01b031681565b34801561034857600080fd5b506000546001600160a01b03166101d7565b34801561036657600080fd5b50610245610375366004614213565b61151e565b34801561038657600080fd5b506002546101d7906001600160a01b031681565b3480156103a657600080fd5b50610181600b5481565b3480156103bc57600080fd5b5061018160085481565b3480156103d257600080fd5b506102456103e1366004614213565b611592565b3480156103f257600080fd5b5061024561040136600461459a565b611606565b6101a761041436600461448f565b611635565b34801561042557600080fd5b50610245610434366004614213565b611b5a565b34801561044557600080fd5b50610245610454366004614213565b611bce565b34801561046557600080fd5b5061047961047436600461424b565b611c69565b60405161018b969594939291906149b5565b6000600260015414156104b95760405162461bcd60e51b81526004016104b09061497e565b60405180910390fd5b600260015560035460405163626885b560e11b81526000916001600160a01b03169063c4d10b6a906104ef90889060040161477a565b60206040518083038186803b15801561050757600080fd5b505afa15801561051b573d6000803e3d6000fd5b505050506040513d601f19601f8201168201806040525081019061053f919061422f565b6001600160a01b038116600090815260066020526040902054909150831080156105695750828411155b6105c75760405162461bcd60e51b815260206004820152602960248201527f43434275726e526f757465723a206275726e50726f6f662077726f6e6720696e60448201526819195e081a5b9c1d5d60ba1b60648201526084016104b0565b60035460405163aff2faa360e01b81526001600160a01b039091169063aff2faa3906105f790889060040161477a565b60206040518083038186803b15801561060f57600080fd5b505afa158015610623573d6000803e3d6000fd5b505050506040513d601f19601f820116820180604052508101906106479190614276565b6106635760405162461bcd60e51b81526004016104b0906148a8565b60006106b58f8f8f8f8080601f016020809104026020016040519081016040528093929190818152602001838380828437600081840152601f19601f820116905080830192505050505050508e611d54565b90506106fa818b8b8b8080601f0160208091040260200160405190810160405280939291908181526020018383808284376000920191909152508d9250611e55915050565b61075e5760405162461bcd60e51b815260206004820152602f60248201527f43434275726e526f757465723a207472616e73616374696f6e20686173206e6f60448201526e1d08199a5b985b1a5e9959081e595d608a1b60648201526084016104b0565b60006107a4838f8f8080601f0160208091040260200160405190810160405280939291908181526020018383808284376000920191909152508b92508a9150611fc79050565b90506107ea818f8f8080601f0160208091040260200160405190810160405280939291908181526020018383808284376000920191909152508c92508791506123229050565b505060018080559e9d5050505050505050505050505050565b6000600260015414156108285760405162461bcd60e51b81526004016104b09061497e565b600260015560035460405163aff2faa360e01b81526001600160a01b039091169063aff2faa39061085f9086908690600401614742565b60206040518083038186803b15801561087757600080fd5b505afa15801561088b573d6000803e3d6000fd5b505050506040513d601f19601f820116820180604052508101906108af9190614276565b6108cb5760405162461bcd60e51b81526004016104b0906148a8565b60035460405163626885b560e11b81526000916001600160a01b03169063c4d10b6a906108fe9087908790600401614742565b60206040518083038186803b15801561091657600080fd5b505afa15801561092a573d6000803e3d6000fd5b505050506040513d601f19601f8201168201806040525081019061094e919061422f565b600480546040516323b872dd60e01b81523392810192909252306024830152604482018990529192506001600160a01b03909116906323b872dd90606401602060405180830381600087803b1580156109a657600080fd5b505af11580156109ba573d6000803e3d6000fd5b505050506040513d601f19601f820116820180604052508101906109de9190614276565b5060006109eb87836123b7565b6004805460035460405163095ea7b360e01b81526001600160a01b039182169381019390935260248301849052929350919091169063095ea7b390604401602060405180830381600087803b158015610a4357600080fd5b505af1158015610a57573d6000803e3d6000fd5b505050506040513d601f19601f82011682018060405250810190610a7b9190614276565b506003546040516338463cff60e01b81526000916001600160a01b0316906338463cff90610ab190899089908790600401614756565b602060405180830381600087803b158015610acb57600080fd5b505af1158015610adf573d6000803e3d6000fd5b505050506040513d601f19601f82011682018060405250810190610b039190614296565b9050610b97888289600260009054906101000a90046001600160a01b03166001600160a01b0316632f796d906040518163ffffffff1660e01b815260040160206040518083038186803b158015610b5957600080fd5b505afa158015610b6d573d6000803e3d6000fd5b505050506040513d601f19601f82011682018060405250810190610b919190614296565b87612564565b6001600160a01b03831660009081526006602052604090208054610bbd90600190614b1e565b81548110610bdb57634e487b7160e01b600052603260045260246000fd5b60009182526020808320600692830201600401546001600160a01b0387168085529290915260409092205433907f3071ba6ae63217f498ebdd00bf3826b74cd09ff826db77b06327ca390c3a9d4f908b908d908790610c3c90600190614b1e565b604051610c4c949392919061478d565b60405180910390a4505060018080559695505050505050565b6000546001600160a01b03163314610c8f5760405162461bcd60e51b81526004016104b090614949565b8060641015610cf25760405162461bcd60e51b815260206004820152602960248201527f43434275726e526f757465723a20736c617368657220666565206973206f7574604482015268206f662072616e676560b81b60648201526084016104b0565b600a55565b6000546001600160a01b03163314610d215760405162461bcd60e51b81526004016104b090614949565b60025460408051630a072bc560e41b815290516000926001600160a01b03169163a072bc50916004808301926020929190829003018186803b158015610d6657600080fd5b505afa158015610d7a573d6000803e3d6000fd5b505050506040513d601f19601f82011682018060405250810190610d9e9190614296565b9050808211610e025760405162461bcd60e51b815260206004820152602a60248201527f43434275726e526f757465723a207472616e7366657220646561646c696e6520604482015269697320746f6f206c6f7760b01b60648201526084016104b0565b50600855565b6000546001600160a01b03163314610e325760405162461bcd60e51b81526004016104b090614949565b610e3c600061267e565b565b600060026001541415610e635760405162461bcd60e51b81526004016104b09061497e565b600260015560035460405163aff2faa360e01b81526001600160a01b039091169063aff2faa390610e9a9087908790600401614742565b60206040518083038186803b158015610eb257600080fd5b505afa158015610ec6573d6000803e3d6000fd5b505050506040513d601f19601f82011682018060405250810190610eea9190614276565b610f065760405162461bcd60e51b81526004016104b0906148a8565b60035460405163626885b560e11b81526000916001600160a01b03169063c4d10b6a90610f399088908890600401614742565b60206040518083038186803b158015610f5157600080fd5b505afa158015610f65573d6000803e3d6000fd5b505050506040513d601f19601f82011682018060405250810190610f89919061422f565b905060005b83518110156113af576001600160a01b03821660009081526006602052604090208451859083908110610fd157634e487b7160e01b600052603260045260246000fd5b602002602001015181548110610ff757634e487b7160e01b600052603260045260246000fd5b600091825260209091206005600690920201015460ff161561106e5760405162461bcd60e51b815260206004820152602a60248201527f43434275726e526f757465723a207265717565737420686173206265656e2070604482015269616964206265666f726560b01b60648201526084016104b0565b600260009054906101000a90046001600160a01b03166001600160a01b0316632f796d906040518163ffffffff1660e01b815260040160206040518083038186803b1580156110bc57600080fd5b505afa1580156110d0573d6000803e3d6000fd5b505050506040513d601f19601f820116820180604052508101906110f49190614296565b6001600160a01b0383166000908152600660205260409020855186908490811061112e57634e487b7160e01b600052603260045260246000fd5b60200260200101518154811061115457634e487b7160e01b600052603260045260246000fd5b906000526020600020906006020160040154106111835760405162461bcd60e51b81526004016104b0906148f8565b600354600a546001600160a01b0384811660009081526006602052604090208751919093169263683d178c928692606492908a90889081106111d557634e487b7160e01b600052603260045260246000fd5b6020026020010151815481106111fb57634e487b7160e01b600052603260045260246000fd5b9060005260206000209060060201600001546112179190614ad6565b6112219190614ab6565b6001600160a01b038616600090815260066020526040902088513391908a908890811061125e57634e487b7160e01b600052603260045260246000fd5b60200260200101518154811061128457634e487b7160e01b600052603260045260246000fd5b60009182526020808320600692830201546001600160a01b038b16845291905260409091208a518b90899081106112cb57634e487b7160e01b600052603260045260246000fd5b6020026020010151815481106112f157634e487b7160e01b600052603260045260246000fd5b600091825260209091206006909102016002015460405160e087901b6001600160e01b03191681526001600160a01b03958616600482015260248101949094529184166044840152606483015291909116608482015260a401602060405180830381600087803b15801561136457600080fd5b505af1158015611378573d6000803e3d6000fd5b505050506040513d601f19601f8201168201806040525081019061139c9190614276565b50806113a781614bbd565b915050610f8e565b50506001808055949350505050565b6000546001600160a01b031633146113e85760405162461bcd60e51b81526004016104b090614949565b80612710101561144d5760405162461bcd60e51b815260206004820152602a60248201527f43434275726e526f757465723a2070726f746f636f6c20666565206973206f7560448201526974206f662072616e676560b01b60648201526084016104b0565b600955565b806001600160a01b0381166114795760405162461bcd60e51b81526004016104b090614871565b6000546001600160a01b031633146114a35760405162461bcd60e51b81526004016104b090614949565b50600480546001600160a01b0319166001600160a01b0392909216919091179055565b6001600160a01b03821660009081526006602052604081208054839081106114fe57634e487b7160e01b600052603260045260246000fd5b600091825260209091206005600690920201015460ff1690505b92915050565b806001600160a01b0381166115455760405162461bcd60e51b81526004016104b090614871565b6000546001600160a01b0316331461156f5760405162461bcd60e51b81526004016104b090614949565b50600380546001600160a01b0319166001600160a01b0392909216919091179055565b806001600160a01b0381166115b95760405162461bcd60e51b81526004016104b090614871565b6000546001600160a01b031633146115e35760405162461bcd60e51b81526004016104b090614949565b50600280546001600160a01b0319166001600160a01b0392909216919091179055565b6000546001600160a01b031633146116305760405162461bcd60e51b81526004016104b090614949565b600b55565b60006002600154141561165a5760405162461bcd60e51b81526004016104b09061497e565b600260015560035460405163aff2faa360e01b81526001600160a01b039091169063aff2faa39061168f908e9060040161477a565b60206040518083038186803b1580156116a757600080fd5b505afa1580156116bb573d6000803e3d6000fd5b505050506040513d601f19601f820116820180604052508101906116df9190614276565b6116fb5760405162461bcd60e51b81526004016104b0906148a8565b6117058b8b6126ce565b61176f5760405162461bcd60e51b815260206004820152603560248201527f43434275726e526f757465723a2073637269707420646f65736e27742062656c6044820152741bdb99c81d1bc81b1bd8dada5b99c81cd8dc9a5c1d605a1b60648201526084016104b0565b600061177d89898989611d54565b905061178b81868686611e55565b6117ea5760405162461bcd60e51b815260206004820152602a60248201527f43434275726e526f757465723a207472616e73616374696f6e206973206e6f7460448201526908199a5b985b1a5e995960b21b60648201526084016104b0565b6117f5888b8d6126e5565b61185c5760405162461bcd60e51b815260206004820152603260248201527f43434275726e526f757465723a207472616e73616374696f6e20646f65736e276044820152713a103132b637b733903a37903637b1b5b2b960711b60648201526084016104b0565b60008181526007602052604090205460ff16156118d25760405162461bcd60e51b815260206004820152602e60248201527f43434275726e526f757465723a207472616e73616374696f6e2068617320626560448201526d656e2070616964206265666f726560901b60648201526084016104b0565b846008546118e09190614a2c565b600260009054906101000a90046001600160a01b03166001600160a01b0316632f796d906040518163ffffffff1660e01b815260040160206040518083038186803b15801561192e57600080fd5b505afa158015611942573d6000803e3d6000fd5b505050506040513d601f19601f820116820180604052508101906119669190614296565b116119835760405162461bcd60e51b81526004016104b0906148f8565b600061198e88612747565b6001600160401b031690506000600360009054906101000a90046001600160a01b03166001600160a01b031663c4d10b6a8f6040518263ffffffff1660e01b81526004016119dc919061477a565b60206040518083038186803b1580156119f457600080fd5b505afa158015611a08573d6000803e3d6000fd5b505050506040513d601f19601f82011682018060405250810190611a2c919061422f565b600354600a549192506001600160a01b03169063683d178c908390606490611a549087614ad6565b611a5e9190614ab6565b60035460405160e085901b6001600160e01b03191681526001600160a01b03938416600482015260248101929092523360448301526064820187905291909116608482015260a401602060405180830381600087803b158015611ac057600080fd5b505af1158015611ad4573d6000803e3d6000fd5b505050506040513d601f19601f82011682018060405250810190611af89190614276565b50604080516001600160a01b0383168152602081018990529081018490527ff6f1bddbffa8aee571e6ea218f1fcea640a9d004c77327bed86be0c544f0f7f49060600160405180910390a1505060018080559c9b505050505050505050505050565b806001600160a01b038116611b815760405162461bcd60e51b81526004016104b090614871565b6000546001600160a01b03163314611bab5760405162461bcd60e51b81526004016104b090614949565b50600580546001600160a01b0319166001600160a01b0392909216919091179055565b6000546001600160a01b03163314611bf85760405162461bcd60e51b81526004016104b090614949565b6001600160a01b038116611c5d5760405162461bcd60e51b815260206004820152602660248201527f4f776e61626c653a206e6577206f776e657220697320746865207a65726f206160448201526564647265737360d01b60648201526084016104b0565b611c668161267e565b50565b60066020528160005260406000208181548110611c8557600080fd5b600091825260209091206006909102018054600182015460028301546003840180549396509194506001600160a01b03169291611cc190614b88565b80601f0160208091040260200160405190810160405280929190818152602001828054611ced90614b88565b8015611d3a5780601f10611d0f57610100808354040283529160200191611d3a565b820191906000526020600020905b815481529060010190602001808311611d1d57829003601f168201915b50505050600483015460059093015491929160ff16905086565b600080600286868686604051602001611d709493929190614674565b60408051601f1981840301815290829052611d8a916146c7565b602060405180830381855afa158015611da7573d6000803e3d6000fd5b5050506040513d601f19601f82011682018060405250810190611dca9190614296565b90506000600282604051602001611de391815260200190565b60408051601f1981840301815290829052611dfd916146c7565b602060405180830381855afa158015611e1a573d6000803e3d6000fd5b5050506040513d601f19601f82011682018060405250810190611e3d9190614296565b9050611e48816127ca565b925050505b949350505050565b60025460405163d0a8973960e01b8152600481018590526000602482018190529182916001600160a01b039091169063d0a897399060440160206040518083038186803b158015611ea557600080fd5b505afa158015611eb9573d6000803e3d6000fd5b505050506040513d601f19601f82011682018060405250810190611edd9190614296565b905080341015611f415760405162461bcd60e51b815260206004820152602960248201527f43434275726e526f757465723a2072656c617920666565206973206e6f7420736044820152681d59999a58da595b9d60ba1b60648201526084016104b0565b600254604051600091611f9e916001600160a01b0390911690611f6e908a908a908a908a90602401614712565b60408051601f198184030181529190526020810180516001600160e01b0316634354da2560e01b1790523461284a565b9050611fb333611fae8434614b1e565b612870565b80806020019051810190611e489190614276565b600080835b838111612318576001600160a01b038716600090815260066020526040902080548290811061200b57634e487b7160e01b600052603260045260246000fd5b600091825260209091206005600690920201015460ff1615801561207a57506001600160a01b038716600090815260066020526040902080544391908390811061206557634e487b7160e01b600052603260045260246000fd5b90600052602060002090600602016004015410155b15612306576001600160a01b0387166000908152600660205260409020805461215c918891849081106120bd57634e487b7160e01b600052603260045260246000fd5b906000526020600020906006020160030180546120d990614b88565b80601f016020809104026020016040519081016040528092919081815260200182805461210590614b88565b80156121525780601f1061212757610100808354040283529160200191612152565b820191906000526020600020905b81548152906001019060200180831161213557829003601f168201915b505050505061298e565b6001600160401b031691508160066000896001600160a01b03166001600160a01b0316815260200190815260200160002082815481106121ac57634e487b7160e01b600052603260045260246000fd5b9060005260206000209060060201600101541415612306576001600160a01b03871660009081526006602052604090208054600191908390811061220057634e487b7160e01b600052603260045260246000fd5b60009182526020909120600690910201600501805460ff191691151591909117905561222d836001614a2c565b6001600160a01b0388166000818152600660205260409020805492955090918390811061226a57634e487b7160e01b600052603260045260246000fd5b60009182526020808320600692830201600201546001600160a01b038c81168552929091526040909220805491909216917f2a19a8845319f6ff87c06307d29da11b94ed2d90a25046ed222f4bad3189d24491859081106122db57634e487b7160e01b600052603260045260246000fd5b906000526020600020906006020160030185856040516122fd939291906147bc565b60405180910390a35b8061231081614bbd565b915050611fcc565b5050949350505050565b600061232e848461298e565b6001600160401b031690508015801590612359575061234c84612ab7565b612357866001614a2c565b145b1561237c576000828152600760205260409020805460ff191660011790556123b0565b80158015612391575061238e84612ab7565b85145b156123b0576000828152600760205260409020805460ff191660011790555b5050505050565b600080612710600954856123cb9190614ad6565b6123d59190614ab6565b90506000600b5482866123e89190614b1e565b6123f29190614b1e565b9050600081116124445760405162461bcd60e51b815260206004820152601f60248201527f43434275726e526f757465723a20616d6f756e7420697320746f6f206c6f770060448201526064016104b0565b6004805460055460405163a9059cbb60e01b81526001600160a01b039182169381019390935260248301859052169063a9059cbb90604401602060405180830381600087803b15801561249657600080fd5b505af11580156124aa573d6000803e3d6000fd5b505050506040513d601f19601f820116820180604052508101906124ce9190614276565b5060048054600b5460405163a9059cbb60e01b81526001600160a01b0388811694820194909452602481019190915291169063a9059cbb90604401602060405180830381600087803b15801561252357600080fd5b505af1158015612537573d6000803e3d6000fd5b505050506040513d601f19601f8201168201806040525081019061255b9190614276565b50949350505050565b6125a86040518060c00160405280600081526020016000815260200160006001600160a01b0316815260200160608152602001600081526020016000151581525090565b85815260208101859052336040820152606081018490526008546125cc9084614a2c565b6080820152600060a082018190526001600160a01b038381168252600660208181526040808520805460018082018355918752958390208751969094029093019485558186015192850192909255908401516002840180546001600160a01b0319169190931617909155606083015180518493926126519260038501929101906140b2565b506080820151600482015560a0909101516005909101805460ff1916911515919091179055505050505050565b600080546001600160a01b038381166001600160a01b0319831681178455604051919092169283917f8be0079c531659141344cd1fd0a4f28419497f9722a3daafe3b4186f6b6457e09190a35050565b6000806126da83612ae4565b506001949350505050565b60006060806126f48686612b9f565b915061271b82855184516127089190614b1e565b600185516127169190614b1e565b612bd4565b90508351815114801561273b575083805190602001208180519060200120145b925050505b9392505050565b6000806127626127578483612c59565b62ffffff1916612c74565b90506000806000612774846000612daa565b6001600160401b0316905060005b818110156127bd576127948582612edb565b935061279f84612ff1565b6127a99084614a44565b9250806127b581614bbd565b915050612782565b509093505050505b919050565b6000606081805b602081101561283e5782856127e783601f614b1e565b6020811061280557634e487b7160e01b600052603260045260246000fd5b1a60f81b60405160200161281a9291906146e3565b6040516020818303038152906040529250808061283690614bbd565b9150506127d1565b50506020015192915050565b6060611e4d848484604051806060016040528060298152602001614c1a60299139613005565b804710156128c05760405162461bcd60e51b815260206004820152601d60248201527f416464726573733a20696e73756666696369656e742062616c616e636500000060448201526064016104b0565b6000826001600160a01b03168260405160006040518083038185875af1925050503d806000811461290d576040519150601f19603f3d011682016040523d82523d6000602084013e612912565b606091505b50509050806129895760405162461bcd60e51b815260206004820152603a60248201527f416464726573733a20756e61626c6520746f2073656e642076616c75652c207260448201527f6563697069656e74206d6179206861766520726576657274656400000000000060648201526084016104b0565b505050565b60008061299e6127578583612c59565b905062ffffff1980821614156129ef5760405162461bcd60e51b8152602060048201526016602482015275151e12195b1c195c8e881d9bdd5d081a5cc81b9d5b1b60521b60448201526064016104b0565b60008060006129ff846000612daa565b6001600160401b0316905060005b81811015612aac57612a1f8582612edb565b9350612a2a84613122565b925086604051602001612a3d91906146c7565b60405160208183030381529060405280519060200120612a628462ffffff1916613176565b604051602001612a7291906146c7565b604051602081830303815290604052805190602001201415612a9a57612a9784612ff1565b95505b80612aa481614bbd565b915050612a0d565b505050505092915050565b600080612ac76127578483612c59565b9050612ad4816000612daa565b6001600160401b03169392505050565b600080600283604051612af791906146c7565b602060405180830381855afa158015612b14573d6000803e3d6000fd5b5050506040513d601f19601f82011682018060405250810190612b379190614296565b90506000600382604051602001612b5091815260200190565b60408051601f1981840301815290829052612b6a916146c7565b602060405180830381855afa158015612b87573d6000803e3d6000fd5b5050604051516001600160a01b031695945050505050565b60606000612bad84846131c6565b90506000612bba826131ed565b9050612bcb62ffffff198216613176565b95945050505050565b60606000835b612be5846001614a2c565b811015612c5057858181518110612c0c57634e487b7160e01b600052603260045260246000fd5b602001015160f81c60f81b91508282604051602001612c2c9291906146e3565b60405160208183030381529060405292508080612c4890614bbd565b915050612bda565b50509392505050565b815160009060208401612bcb64ffffffffff85168284613237565b60008181612c8a815b62ffffff1984169061327b565b50601884901c6001600160601b0316612caa5762ffffff195b9250612da3565b6000612cb7856000612daa565b9050601885901c6001600160601b03166001600160401b038216612ce45762ffffff195b94505050612da3565b6000612cef83613355565b60ff16905060005b836001600160401b0316811015612d6b57828210612d205762ffffff195b965050505050612da3565b6000612d40612d2f8486614b1e565b600e5b62ffffff198c1691906133ae565b9050612d4b816133e1565b612d559084614a2c565b9250508080612d6390614bbd565b915050612cf7565b50818114612d835762ffffff195b9550505050612da3565b612d9d600f5b60d81b6301000000600160d81b0389161790565b95505050505b5050919050565b600080612dbf62ffffff19851684600161342a565b905060fc8111612dd0579050611518565b8060fd1415612e2e57612df6612de7846001614a2c565b62ffffff19861690600261345a565b9150612e0182613355565b60ff16600314612e2957612e27612e2262ffffff19861685600360006135a4565b61361d565b505b612ed4565b8060fe1415612e8057612e54612e45846001614a2c565b62ffffff19861690600461345a565b9150612e5f82613355565b60ff16600514612e2957612e27612e2262ffffff19861685600560006135a4565b8060ff1415612ed457612ea6612e97846001614a2c565b62ffffff19861690600861345a565b9150612eb182613355565b60ff16600914612ed457612ed2612e2262ffffff19861685600960006135a4565b505b5092915050565b600080612ee9846000612daa565b6001600160401b03169050601884901c6001600160601b0316818410612f455760405162461bcd60e51b81526020600482015260116024820152702b37baba103932b0b21037bb32b9393ab760791b60448201526064016104b0565b6000612f5083613355565b60ff1690506000805b86811015612fa657612f7d612f6e8486614b1e565b62ffffff198a1690600e6133ae565b9150612f88826133e1565b612f929084614a2c565b9250612f9f600182614a2c565b9050612f59565b50612fc3612fb48385614b1e565b62ffffff19891690600e6133ae565b90506000612fd0826133e1565b9050612fe562ffffff1989168483600d6135a4565b98975050505050505050565b600061151862ffffff19831682600861345a565b6060824710156130665760405162461bcd60e51b815260206004820152602660248201527f416464726573733a20696e73756666696369656e742062616c616e636520666f6044820152651c8818d85b1b60d21b60648201526084016104b0565b843b6130b45760405162461bcd60e51b815260206004820152601d60248201527f416464726573733a2063616c6c20746f206e6f6e2d636f6e747261637400000060448201526064016104b0565b600080866001600160a01b031685876040516130d091906146c7565b60006040518083038185875af1925050503d806000811461310d576040519150601f19603f3d011682016040523d82523d6000602084013e613112565b606091505b5091509150611e4882828661369a565b600081600d61313081612c7d565b50600061313e856008612daa565b9050612bcb61314c82613355565b613157906008614a6f565b60ff166001600160401b03831660075b62ffffff1989169291906135a4565b606060008061318e8460181c6001600160601b031690565b60405193508392506001600160601b031690506131b5846131b0846020614a2c565b6136d3565b508181016020016040529052919050565b6000806131e16131d68583612c59565b62ffffff191661382b565b9050611e4d818461391c565b60008160046131fb81612c7d565b506000613209856024612daa565b9050612bcb60248261321a84613355565b60ff166132279190614a44565b6001600160401b03166002613167565b6000806132448484613a32565b9050604051811115613254575060005b806132665762ffffff19915050612740565b5050606092831b9190911790911b1760181b90565b60006132878383613a87565b61334e5760006132a661329a8560d81c90565b64ffffffffff16613aaa565b91505060006132bb8464ffffffffff16613aaa565b6040517f5479706520617373657274696f6e206661696c65642e20476f7420307800000060208201526001600160b01b031960b086811b8216603d8401526c05c408af0e0cac6e8cac84060f609b1b604784015283901b16605482015290925060009150605e015b60405160208183030381529060405290508060405162461bcd60e51b81526004016104b0919061477a565b5090919050565b600060fc826001600160401b031611613370575060016127c5565b61ffff826001600160401b03161161338a575060036127c5565b63ffffffff826001600160401b0316116133a6575060056127c5565b5060096127c5565b6000611e4d846133da856133cb8860181c6001600160601b031690565b6001600160601b031690613b6a565b85856135a4565b600081600e6133ef81612c7d565b5060006133fd856008612daa565b9050806001600160401b031661341282613355565b60ff1661341f9190614a2c565b612bcb906008614a2c565b6000613437826020614b35565b613442906008614af5565b60ff16613450858585613bc0565b901c949350505050565b6000611e4d61346a858585613bc0565b600881811c7eff00ff00ff00ff00ff00ff00ff00ff00ff00ff00ff00ff00ff00ff00ff00ff167fff00ff00ff00ff00ff00ff00ff00ff00ff00ff00ff00ff00ff00ff00ff00ff009290911b9190911617601081811c7dffff0000ffff0000ffff0000ffff0000ffff0000ffff0000ffff0000ffff167fffff0000ffff0000ffff0000ffff0000ffff0000ffff0000ffff0000ffff00009290911b9190911617602081811c7bffffffff00000000ffffffff00000000ffffffff00000000ffffffff167fffffffff00000000ffffffff00000000ffffffff00000000ffffffff000000009290911b9190911617604081811c77ffffffffffffffff0000000000000000ffffffffffffffff1677ffffffffffffffff0000000000000000ffffffffffffffff199290911b9190911617608081811c91901b1790565b6000806135ba8660781c6001600160601b031690565b6001600160601b031690506135ce86613d19565b6135e2856135dc8489613a32565b90613a32565b11156135f55762ffffff19915050611e4d565b6135ff8186613a32565b90506136138364ffffffffff168286613237565b9695505050505050565b6060600061364761364262ffffff19851683601887901c6001600160601b031661342a565b613aaa565b6040517f4e6f6e2d6d696e696d616c2076617220696e742e20476f74203078000000000060208201526dffffffffffffffffffffffffffff19607083901b16603b82015290925060009150604d01613323565b606083156136a9575081612740565b8251156136b95782518084602001fd5b8160405162461bcd60e51b81526004016104b0919061477a565b600062ffffff19808416141561373c5760405162461bcd60e51b815260206004820152602860248201527f54797065644d656d566965772f636f7079546f202d204e756c6c20706f696e7460448201526732b9103232b932b360c11b60648201526084016104b0565b61374583613d5a565b6137a55760405162461bcd60e51b815260206004820152602b60248201527f54797065644d656d566965772f636f7079546f202d20496e76616c696420706f60448201526a34b73a32b9103232b932b360a91b60648201526084016104b0565b60006137ba8460181c6001600160601b031690565b6001600160601b0316905060006137da8560781c6001600160601b031690565b6001600160601b0316905060006040519050848111156137fa5760206060fd5b8285848460045afa506136136138108760d81c90565b64ffffffffff60601b606091821b168717901b841760181b90565b6000818161383881612c7d565b50601884901c6001600160601b03166138555762ffffff19612ca3565b6000613862856000612daa565b9050601885901c6001600160601b03166001600160401b03821661388a5762ffffff19612cdb565b600061389583613355565b60ff16905060005b836001600160401b0316811015613900578282106138bf5762ffffff19612d15565b60006138d56138ce8486614b1e565b6005612d32565b90506138e081613d98565b6138ea9084614a2c565b92505080806138f890614bbd565b91505061389d565b508181146139125762ffffff19612d79565b612d9d6006612d89565b600082600661392a81612c7d565b506000613938866000612daa565b6001600160401b03169050601886901c6001600160601b03168186106139935760405162461bcd60e51b815260206004820152601060248201526f2b34b7103932b0b21037bb32b9393ab760811b60448201526064016104b0565b600061399e83613355565b60ff1690506000805b888110156139f4576139cb6139bc8486614b1e565b62ffffff198c169060056133ae565b91506139d682613d98565b6139e09084614a2c565b92506139ed600182614a2c565b90506139a7565b50613a026138ce8385614b1e565b90506000613a0f82613d98565b9050613a2462ffffff198b16848360046135a4565b9a9950505050505050505050565b600082613a3f8382614a2c565b91508110156115185760405162461bcd60e51b815260206004820152601460248201527364732d6d6174682d6164642d6f766572666c6f7760601b60448201526064016104b0565b60008164ffffffffff16613a9b8460d81c90565b64ffffffffff16149392505050565b600080601f5b600f8160ff161115613b08576000613ac9826008614af5565b60ff1685901c9050613ada81613dec565b61ffff16841793508160ff16601014613af557601084901b93505b50613b01600182614b35565b9050613ab0565b50600f5b60ff8160ff161015613b64576000613b25826008614af5565b60ff1685901c9050613b3681613dec565b61ffff16831792508160ff16600014613b5157601083901b92505b50613b5d600182614b35565b9050613b0c565b50915091565b600082613b778382614b1e565b91508111156115185760405162461bcd60e51b815260206004820152601560248201527464732d6d6174682d7375622d756e646572666c6f7760581b60448201526064016104b0565b600060ff8216613bd257506000612740565b613be58460181c6001600160601b031690565b6001600160601b0316613bfb8460ff8516613a32565b1115613c5f57613c46613c178560781c6001600160601b031690565b6001600160601b0316613c338660181c6001600160601b031690565b6001600160601b0316858560ff16613e1c565b60405162461bcd60e51b81526004016104b0919061477a565b60208260ff161115613cd95760405162461bcd60e51b815260206004820152603a60248201527f54797065644d656d566965772f696e646578202d20417474656d70746564207460448201527f6f20696e646578206d6f7265207468616e20333220627974657300000000000060648201526084016104b0565b600882026000613cf28660781c6001600160601b031690565b6001600160601b031690506000600160ff1b60001984011d91909501511695945050505050565b6000613d2e8260181c6001600160601b031690565b613d418360781c6001600160601b031690565b613d4b9190614a94565b6001600160601b031692915050565b6000613d668260d81c90565b64ffffffffff1664ffffffffff1415613d81575060006127c5565b6000613d8c83613d19565b60405110199392505050565b6000816005613da681612c7d565b506000613db4856024612daa565b9050806001600160401b0316613dc982613355565b60ff16613dd69190614a2c565b613de1906024614a2c565b612bcb906004614a2c565b6000613dfe60048360ff16901c613f46565b60ff161760081b62ffff0016613e1382613f46565b60ff1617919050565b60606000613e2986613aaa565b9150506000613e3786613aaa565b9150506000613e4586613aaa565b9150506000613e5386613aaa565b604080517f54797065644d656d566965772f696e646578202d204f76657272616e20746865602082015274040ecd2caee5c40a6d8d2c6ca40d2e640c2e84060f605b1b818301526001600160d01b031960d098891b811660558301526e040eed2e8d040d8cadccee8d04060f608b1b605b830181905297891b8116606a8301527f2e20417474656d7074656420746f20696e646578206174206f666673657420306070830152600f60fb1b609083015295881b861660918201526097810196909652951b90921660a68401525050601760f91b60ac8201528151808203608d01815260ad90910190915295945050505050565b600060f08083179060ff82161415613f625760309150506127c5565b8060ff1660f11415613f785760319150506127c5565b8060ff1660f21415613f8e5760329150506127c5565b8060ff1660f31415613fa45760339150506127c5565b8060ff1660f41415613fba5760349150506127c5565b8060ff1660f51415613fd05760359150506127c5565b8060ff1660f61415613fe65760369150506127c5565b8060ff1660f71415613ffc5760379150506127c5565b8060ff1660f814156140125760389150506127c5565b8060ff1660f914156140285760399150506127c5565b8060ff1660fa141561403e5760619150506127c5565b8060ff1660fb14156140545760629150506127c5565b8060ff1660fc141561406a5760639150506127c5565b8060ff1660fd14156140805760649150506127c5565b8060ff1660fe14156140965760659150506127c5565b8060ff1660ff14156140ac5760669150506127c5565b50919050565b8280546140be90614b88565b90600052602060002090601f0160209004810192826140e05760008555614126565b82601f106140f957805160ff1916838001178555614126565b82800160010185558215614126579182015b8281111561412657825182559160200191906001019061410b565b50614132929150614136565b5090565b5b808211156141325760008155600101614137565b80356001600160e01b0319811681146127c557600080fd5b60008083601f840112614174578182fd5b5081356001600160401b0381111561418a578182fd5b6020830191508360208285010111156141a257600080fd5b9250929050565b600082601f8301126141b9578081fd5b81356001600160401b038111156141d2576141d2614bee565b6141e5601f8201601f19166020016149fc565b8181528460208386010111156141f9578283fd5b816020850160208301379081016020019190915292915050565b600060208284031215614224578081fd5b813561274081614c04565b600060208284031215614240578081fd5b815161274081614c04565b6000806040838503121561425d578081fd5b823561426881614c04565b946020939093013593505050565b600060208284031215614287578081fd5b81518015158114612740578182fd5b6000602082840312156142a7578081fd5b5051919050565b6000806000806000806000806000806000806101408d8f0312156142d0578788fd5b6142d98d61414b565b9b506001600160401b0360208e013511156142f2578788fd5b6143028e60208f01358f016141a9565b9a506001600160401b0360408e0135111561431b578788fd5b61432b8e60408f01358f01614163565b909a50985061433c60608e0161414b565b975060808d013596506001600160401b0360a08e0135111561435c578586fd5b61436c8e60a08f01358f01614163565b909650945060c08d013593506001600160401b0360e08e0135111561438f578283fd5b61439f8e60e08f01358f016141a9565b92506101008d013591506101208d013590509295989b509295989b509295989b565b6000806000604084860312156143d5578283fd5b83356001600160401b03808211156143eb578485fd5b6143f787838801614163565b9095509350602091508582013581811115614410578384fd5b8601601f81018813614420578384fd5b80358281111561443257614432614bee565b83810292506144428484016149fc565b8181528481019083860185850187018c101561445c578788fd5b8795505b8386101561447e578035835260019590950194918601918601614460565b508096505050505050509250925092565b6000806000806000806000806000806101408b8d0312156144ae578586fd5b8a356001600160401b03808211156144c4578788fd5b6144d08e838f016141a9565b9b5060208d01359150808211156144e5578788fd5b6144f18e838f016141a9565b9a5060408d0135995061450660608e0161414b565b985060808d013591508082111561451b578788fd5b6145278e838f016141a9565b975060a08d013591508082111561453c578687fd5b6145488e838f016141a9565b965061455660c08e0161414b565b955060e08d013594506101008d0135915080821115614573578384fd5b506145808d828e016141a9565b9250506101208b013590509295989b9194979a5092959850565b6000602082840312156145ab578081fd5b5035919050565b600080600080606085870312156145c7578182fd5b8435935060208501356001600160401b03808211156145e4578384fd5b6145f0888389016141a9565b94506040870135915080821115614605578384fd5b5061461287828801614163565b95989497509550505050565b60008284528282602086013780602084860101526020601f19601f85011685010190509392505050565b60008151808452614660816020860160208601614b58565b601f01601f19169290920160200192915050565b600063ffffffff60e01b80871683528551614696816004860160208a01614b58565b8551908401906146ad816004840160208a01614b58565b919094169301600481019390935250506008019392505050565b600082516146d9818460208701614b58565b9190910192915050565b600083516146f5818460208801614b58565b6001600160f81b0319939093169190920190815260010192915050565b6000858252846020830152608060408301526147316080830185614648565b905082606083015295945050505050565b600060208252611e4d60208301848661461e565b60006040825261476a60408301858761461e565b9050826020830152949350505050565b6000602082526127406020830184614648565b6000608082526147a06080830187614648565b6020830195909552506040810192909252606090910152919050565b6060815283546000908190600281046001808316806147dc57607f831692505b60208084108214156147fc57634e487b7160e01b87526022600452602487fd5b606088018490526080880182801561481b576001811461482c57614856565b60ff19871682528282019750614856565b60008d815260209020895b8781101561485057815484820152908601908401614837565b83019850505b50508701989098525050506040909201929092529392505050565b6020808252601d908201527f43434275726e526f757465723a2061646472657373206973207a65726f000000604082015260600190565b60208082526030908201527f43434275726e526f757465723a20676976656e206c6f636b696e67207363726960408201526f383a1034b9903737ba103637b1b5b2b960811b606082015260800190565b60208082526031908201527f43434275726e526f757465723a207061796261636b20646561646c696e652068604082015270185cc81b9bdd081c185cdcd959081e595d607a1b606082015260800190565b6020808252818101527f4f776e61626c653a2063616c6c6572206973206e6f7420746865206f776e6572604082015260600190565b6020808252601f908201527f5265656e7472616e637947756172643a207265656e7472616e742063616c6c00604082015260600190565b600087825286602083015260018060a01b038616604083015260c060608301526149e260c0830186614648565b60808301949094525090151560a090910152949350505050565b604051601f8201601f191681016001600160401b0381118282101715614a2457614a24614bee565b604052919050565b60008219821115614a3f57614a3f614bd8565b500190565b60006001600160401b03808316818516808303821115614a6657614a66614bd8565b01949350505050565b600060ff821660ff84168060ff03821115614a8c57614a8c614bd8565b019392505050565b60006001600160601b03808316818516808303821115614a6657614a66614bd8565b600082614ad157634e487b7160e01b81526012600452602481fd5b500490565b6000816000190483118215151615614af057614af0614bd8565b500290565b600060ff821660ff84168160ff0481118215151615614b1657614b16614bd8565b029392505050565b600082821015614b3057614b30614bd8565b500390565b600060ff821660ff841680821015614b4f57614b4f614bd8565b90039392505050565b60005b83811015614b73578181015183820152602001614b5b565b83811115614b82576000848401525b50505050565b600281046001821680614b9c57607f821691505b602082108114156140ac57634e487b7160e01b600052602260045260246000fd5b6000600019821415614bd157614bd1614bd8565b5060010190565b634e487b7160e01b600052601160045260246000fd5b634e487b7160e01b600052604160045260246000fd5b6001600160a01b0381168114611c6657600080fdfe416464726573733a206c6f772d6c6576656c2063616c6c20776974682076616c7565206661696c6564a264697066735822122094c8fb6ae31de8a16aae7fdec7f94c0799adc235ce7275d10a3fc0e96a5673b364736f6c63430008020033",
  "devdoc": {
    "kind": "dev",
    "methods": {
      "burnProof(bytes4,bytes,bytes,bytes4,uint256,bytes,uint256,bytes,uint256,uint256)": {
        "details": "Makes isTransferred flag true for the paid requests",
        "params": {
          "_blockNumber": "Height of the block containing the burn transaction",
          "_endIndex": "Index to finish searching for unpaid burn requests in the list",
          "_index": "Index of transaction containing the burn transaction in the block",
          "_intermediateNodes": "Merkle inclusion proof for transaction containing the burn transaction",
          "_lockerLockingScript": "Locker's address on Bitcoin that this burn request belongs to",
          "_locktime": "Lock time of the transaction containing the burn transaction",
          "_startIndex": "Index to start searching for unpaid burn requests in the list",
          "_version": "Version of the transaction containing the burn transaction",
          "_vin": "Inputs of the transaction containing the burn transaction",
          "_vout": "Outputs of the transaction containing the burn transaction"
        },
        "returns": {
          "_0": ""
        }
      },
      "ccBurn(uint256,bytes,bytes)": {
        "details": "After submitting the burn request, lockers have a limited time to send BTC",
        "params": {
          "_amount": "Amount of wrapped tokens that user wants to burn",
          "_lockerLockingScript": "Locker's address on Bitcoin",
          "_userLockingScript": "Address of user on Bitcoin"
        },
        "returns": {
          "_0": "True if request is recorded successfully"
        }
      },
      "constructor": {
        "details": "Lockers use this contract for coordinating of burning wrapped tokens",
        "params": {
          "_bitcoinFee": "Transaction fee on Bitcoin that lockers pay",
          "_lockers": "Address of lockers contract",
          "_protocolPercentageFee": "Percentage of tokens that user pays to protocol for burning",
          "_relay": "Address of relay contract",
          "_transferDeadline": "Dealine of sending BTC to user",
          "_treasury": "Address of the treasury of the protocol"
        }
      },
      "disputeBurn(bytes,uint256[])": {
        "details": "@param _lockerLockingScript locker's Bitcoin address that the unpaid request belongs to",
        "params": {
          "_indices": "Array of indices of the requests for that locker"
        },
        "returns": {
          "_0": "True if dispute is successfull"
        }
      },
      "disputeLocker(bytes,bytes,uint256,bytes4,bytes,bytes,bytes4,uint256,bytes,uint256)": {
        "details": "@param _lockerLockingScript             Suspicious locker's locking script",
        "params": {
          "_blockNumber": "The block number in which the malicious tx has happened",
          "_index": "Index of transaction containing the malicious tx",
          "_inputIndex": "Index of the input in vin that is from the locker",
          "_intermediateNodes": "Merkle inclusion proof for the malicious transaction",
          "_locktime": "Lock time of the malicious transaction",
          "_version": "Version of the malicious transaction",
          "_vin": "Inputs of the malicious transaction",
          "_vout": "Outputs of the malicious transaction"
        },
        "returns": {
          "_0": "True if dispute is successfull"
        }
      },
      "isTransferred(address,uint256)": {
        "params": {
          "_index": "The index number of the request for the locker",
          "_lockerTargetAddress": "Locker's address on the target chain"
        }
      },
      "owner()": {
        "details": "Returns the address of the current owner."
      },
      "renounceOwnership()": {
        "details": "Leaves the contract without owner. It will not be possible to call `onlyOwner` functions anymore. Can only be called by the current owner. NOTE: Renouncing ownership will leave the contract without an owner, thereby removing any functionality that is only available to the owner."
      },
      "setBitcoinFee(uint256)": {
        "details": "Only owner can call this",
        "params": {
          "_bitcoinFee": "The new Bitcoin transaction fee"
        }
      },
      "setLockers(address)": {
        "details": "Only owner can call this",
        "params": {
          "_lockers": "The new lockers contract address"
        }
      },
      "setProtocolPercentageFee(uint256)": {
        "details": "Only owner can call this",
        "params": {
          "_protocolPercentageFee": "The new protocol percentage fee"
        }
      },
      "setRelay(address)": {
        "details": "Only owner can call this",
        "params": {
          "_relay": "The new relay contract address"
        }
      },
      "setSlasherPercentageReward(uint256)": {
        "details": "Only owner can call this",
        "params": {
          "_slasherPercentageReward": "The new slasher percentage reward"
        }
      },
      "setTeleBTC(address)": {
        "details": "Only owner can call this",
        "params": {
          "_teleBTC": "The new wrapped token contract address"
        }
      },
      "setTransferDeadline(uint256)": {
        "details": "Only owner can call this",
        "params": {
          "_transferDeadline": "The new transfer deadline"
        }
      },
      "setTreasury(address)": {
        "details": "Only owner can call this",
        "params": {
          "_treasury": "The new treasury address"
        }
      },
      "transferOwnership(address)": {
        "details": "Transfers ownership of the contract to a new account (`newOwner`). Can only be called by the current owner."
      }
    },
    "version": 1
  },
  "userdoc": {
    "events": {
      "CCBurn(address,bytes,uint256,uint256,address,uint256,uint256)": {
        "notice": "Emits when a burn request gets submitted"
      },
      "LockerDispute(address,uint256,bytes32)": {
        "notice": "Emits when a locker gets slashed for withdrawing BTC"
      },
      "PaidCCBurn(address,bytes,uint256,address,uint256)": {
        "notice": "Emits when a burn request gets executed"
      }
    },
    "kind": "user",
    "methods": {
      "burnProof(bytes4,bytes,bytes,bytes4,uint256,bytes,uint256,bytes,uint256,uint256)": {
        "notice": "Checks the correctness of burn proof"
      },
      "ccBurn(uint256,bytes,bytes)": {
        "notice": "Burns wrapped tokens and records the burn request"
      },
      "constructor": {
        "notice": "Handles cross-chain burn requests"
      },
      "disputeBurn(bytes,uint256[])": {
        "notice": "Slashes lockers if they did not paid burn request before its deadline"
      },
      "disputeLocker(bytes,bytes,uint256,bytes4,bytes,bytes,bytes4,uint256,bytes,uint256)": {
        "notice": "Slashes a locker if they issue a tx that doesn't match any burn request"
      },
      "isTransferred(address,uint256)": {
        "notice": "Shows if a burn request has been done or not"
      },
      "setBitcoinFee(uint256)": {
        "notice": "Changes Bitcoin transaction fee"
      },
      "setLockers(address)": {
        "notice": "Changes lockers contract address"
      },
      "setProtocolPercentageFee(uint256)": {
        "notice": "Changes protocol percentage fee for burning tokens"
      },
      "setRelay(address)": {
        "notice": "Changes relay contract address"
      },
      "setSlasherPercentageReward(uint256)": {
        "notice": "Changes slasher percentage reward for disputing lockers"
      },
      "setTeleBTC(address)": {
        "notice": "Changes wrapped token contract address"
      },
      "setTransferDeadline(uint256)": {
        "notice": "Changes deadline for sending tokens"
      },
      "setTreasury(address)": {
        "notice": "Changes protocol treasury address"
      }
    },
    "version": 1
  },
  "storageLayout": {
    "storage": [
      {
        "astId": 807,
        "contract": "contracts/routers/CCBurnRouter.sol:CCBurnRouter",
        "label": "_owner",
        "offset": 0,
        "slot": "0",
        "type": "t_address"
      },
      {
        "astId": 1006,
        "contract": "contracts/routers/CCBurnRouter.sol:CCBurnRouter",
        "label": "_status",
        "offset": 0,
        "slot": "1",
        "type": "t_uint256"
      },
      {
        "astId": 13870,
        "contract": "contracts/routers/CCBurnRouter.sol:CCBurnRouter",
        "label": "relay",
        "offset": 0,
        "slot": "2",
        "type": "t_address"
      },
      {
        "astId": 13873,
        "contract": "contracts/routers/CCBurnRouter.sol:CCBurnRouter",
        "label": "lockers",
        "offset": 0,
        "slot": "3",
        "type": "t_address"
      },
      {
        "astId": 13876,
        "contract": "contracts/routers/CCBurnRouter.sol:CCBurnRouter",
        "label": "teleBTC",
        "offset": 0,
        "slot": "4",
        "type": "t_address"
      },
      {
        "astId": 13879,
        "contract": "contracts/routers/CCBurnRouter.sol:CCBurnRouter",
        "label": "treasury",
        "offset": 0,
        "slot": "5",
        "type": "t_address"
      },
      {
        "astId": 13885,
        "contract": "contracts/routers/CCBurnRouter.sol:CCBurnRouter",
        "label": "burnRequests",
        "offset": 0,
        "slot": "6",
        "type": "t_mapping(t_address,t_array(t_struct(burnRequest)17844_storage)dyn_storage)"
      },
      {
        "astId": 13889,
        "contract": "contracts/routers/CCBurnRouter.sol:CCBurnRouter",
        "label": "isPaid",
        "offset": 0,
        "slot": "7",
        "type": "t_mapping(t_bytes32,t_bool)"
      },
      {
        "astId": 13892,
        "contract": "contracts/routers/CCBurnRouter.sol:CCBurnRouter",
        "label": "transferDeadline",
        "offset": 0,
        "slot": "8",
        "type": "t_uint256"
      },
      {
        "astId": 13895,
        "contract": "contracts/routers/CCBurnRouter.sol:CCBurnRouter",
        "label": "protocolPercentageFee",
        "offset": 0,
        "slot": "9",
        "type": "t_uint256"
      },
      {
        "astId": 13898,
        "contract": "contracts/routers/CCBurnRouter.sol:CCBurnRouter",
        "label": "slasherPercentageReward",
        "offset": 0,
        "slot": "10",
        "type": "t_uint256"
      },
      {
        "astId": 13901,
        "contract": "contracts/routers/CCBurnRouter.sol:CCBurnRouter",
        "label": "bitcoinFee",
        "offset": 0,
        "slot": "11",
        "type": "t_uint256"
      }
    ],
    "types": {
      "t_address": {
        "encoding": "inplace",
        "label": "address",
        "numberOfBytes": "20"
      },
      "t_array(t_struct(burnRequest)17844_storage)dyn_storage": {
        "base": "t_struct(burnRequest)17844_storage",
        "encoding": "dynamic_array",
        "label": "struct ICCBurnRouter.burnRequest[]",
        "numberOfBytes": "32"
      },
      "t_bool": {
        "encoding": "inplace",
        "label": "bool",
        "numberOfBytes": "1"
      },
      "t_bytes32": {
        "encoding": "inplace",
        "label": "bytes32",
        "numberOfBytes": "32"
      },
      "t_bytes_storage": {
        "encoding": "bytes",
        "label": "bytes",
        "numberOfBytes": "32"
      },
      "t_mapping(t_address,t_array(t_struct(burnRequest)17844_storage)dyn_storage)": {
        "encoding": "mapping",
        "key": "t_address",
        "label": "mapping(address => struct ICCBurnRouter.burnRequest[])",
        "numberOfBytes": "32",
        "value": "t_array(t_struct(burnRequest)17844_storage)dyn_storage"
      },
      "t_mapping(t_bytes32,t_bool)": {
        "encoding": "mapping",
        "key": "t_bytes32",
        "label": "mapping(bytes32 => bool)",
        "numberOfBytes": "32",
        "value": "t_bool"
      },
      "t_struct(burnRequest)17844_storage": {
        "encoding": "inplace",
        "label": "struct ICCBurnRouter.burnRequest",
        "members": [
          {
            "astId": 17833,
            "contract": "contracts/routers/CCBurnRouter.sol:CCBurnRouter",
            "label": "amount",
            "offset": 0,
            "slot": "0",
            "type": "t_uint256"
          },
          {
            "astId": 17835,
            "contract": "contracts/routers/CCBurnRouter.sol:CCBurnRouter",
            "label": "burntAmount",
            "offset": 0,
            "slot": "1",
            "type": "t_uint256"
          },
          {
            "astId": 17837,
            "contract": "contracts/routers/CCBurnRouter.sol:CCBurnRouter",
            "label": "sender",
            "offset": 0,
            "slot": "2",
            "type": "t_address"
          },
          {
            "astId": 17839,
            "contract": "contracts/routers/CCBurnRouter.sol:CCBurnRouter",
            "label": "userLockingScript",
            "offset": 0,
            "slot": "3",
            "type": "t_bytes_storage"
          },
          {
            "astId": 17841,
            "contract": "contracts/routers/CCBurnRouter.sol:CCBurnRouter",
            "label": "deadline",
            "offset": 0,
            "slot": "4",
            "type": "t_uint256"
          },
          {
            "astId": 17843,
            "contract": "contracts/routers/CCBurnRouter.sol:CCBurnRouter",
            "label": "isTransferred",
            "offset": 0,
            "slot": "5",
            "type": "t_bool"
          }
        ],
        "numberOfBytes": "192"
      },
      "t_uint256": {
        "encoding": "inplace",
        "label": "uint256",
        "numberOfBytes": "32"
      }
    }
  }
}