{
  "address": "0xdcE10C4aE69A34836BdD2e54d2DF462e161efC9a",
  "abi": [
    {
      "inputs": [
        {
          "internalType": "address",
          "name": "_relay",
          "type": "address"
        },
        {
          "internalType": "address",
          "name": "_lockers",
          "type": "address"
        },
        {
          "internalType": "address",
          "name": "_treasury",
          "type": "address"
        },
        {
          "internalType": "uint256",
          "name": "_transferDeadline",
          "type": "uint256"
        },
        {
          "internalType": "uint256",
          "name": "_protocolPercentageFee",
          "type": "uint256"
        },
        {
          "internalType": "uint256",
          "name": "_slasherPercentageReward",
          "type": "uint256"
        },
        {
          "internalType": "uint256",
          "name": "_bitcoinFee",
          "type": "uint256"
        }
      ],
      "stateMutability": "nonpayable",
      "type": "constructor"
    },
    {
      "anonymous": false,
      "inputs": [
        {
          "indexed": true,
          "internalType": "address",
          "name": "userTargetAddress",
          "type": "address"
        },
        {
          "indexed": false,
          "internalType": "bytes",
          "name": "userScript",
          "type": "bytes"
        },
        {
          "indexed": false,
          "internalType": "enum ScriptTypes",
          "name": "scriptType",
          "type": "uint8"
        },
        {
          "indexed": false,
          "internalType": "uint256",
          "name": "amount",
          "type": "uint256"
        },
        {
          "indexed": false,
          "internalType": "uint256",
          "name": "burntAmount",
          "type": "uint256"
        },
        {
          "indexed": true,
          "internalType": "address",
          "name": "lockerTargetAddress",
          "type": "address"
        },
        {
          "indexed": false,
          "internalType": "uint256",
          "name": "index",
          "type": "uint256"
        },
        {
          "indexed": true,
          "internalType": "uint256",
          "name": "deadline",
          "type": "uint256"
        }
      ],
      "name": "CCBurn",
      "type": "event"
    },
    {
      "anonymous": false,
      "inputs": [
        {
          "indexed": false,
          "internalType": "address",
          "name": "_lockerTargetAddress",
          "type": "address"
        },
        {
          "indexed": false,
          "internalType": "uint256",
          "name": "_blockNumber",
          "type": "uint256"
        },
        {
          "indexed": false,
          "internalType": "bytes32",
          "name": "txId",
          "type": "bytes32"
        },
        {
          "indexed": false,
          "internalType": "uint256",
          "name": "amount",
          "type": "uint256"
        }
      ],
      "name": "LockerDispute",
      "type": "event"
    },
    {
      "anonymous": false,
      "inputs": [
        {
          "indexed": true,
          "internalType": "address",
          "name": "previousOwner",
          "type": "address"
        },
        {
          "indexed": true,
          "internalType": "address",
          "name": "newOwner",
          "type": "address"
        }
      ],
      "name": "OwnershipTransferred",
      "type": "event"
    },
    {
      "anonymous": false,
      "inputs": [
        {
          "indexed": true,
          "internalType": "address",
          "name": "userTargetAddress",
          "type": "address"
        },
        {
          "indexed": false,
          "internalType": "bytes",
          "name": "userScript",
          "type": "bytes"
        },
        {
          "indexed": false,
          "internalType": "uint256",
          "name": "burntAmount",
          "type": "uint256"
        },
        {
          "indexed": true,
          "internalType": "address",
          "name": "lockerTargetAddress",
          "type": "address"
        },
        {
          "indexed": false,
          "internalType": "uint256",
          "name": "index",
          "type": "uint256"
        }
      ],
      "name": "PaidCCBurn",
      "type": "event"
    },
    {
      "inputs": [],
      "name": "bitcoinFee",
      "outputs": [
        {
          "internalType": "uint256",
          "name": "",
          "type": "uint256"
        }
      ],
      "stateMutability": "view",
      "type": "function"
    },
    {
      "inputs": [
        {
          "internalType": "bytes4",
          "name": "_version",
          "type": "bytes4"
        },
        {
          "internalType": "bytes",
          "name": "_vin",
          "type": "bytes"
        },
        {
          "internalType": "bytes",
          "name": "_vout",
          "type": "bytes"
        },
        {
          "internalType": "bytes4",
          "name": "_locktime",
          "type": "bytes4"
        },
        {
          "internalType": "uint256",
          "name": "_blockNumber",
          "type": "uint256"
        },
        {
          "internalType": "bytes",
          "name": "_intermediateNodes",
          "type": "bytes"
        },
        {
          "internalType": "uint256",
          "name": "_index",
          "type": "uint256"
        },
        {
          "internalType": "bytes",
          "name": "_lockerLockingScript",
          "type": "bytes"
        },
        {
          "internalType": "uint256[]",
          "name": "_burnReqIndexes",
          "type": "uint256[]"
        },
        {
          "internalType": "uint256[]",
          "name": "_voutIndexes",
          "type": "uint256[]"
        }
      ],
      "name": "burnProof",
      "outputs": [
        {
          "internalType": "bool",
          "name": "",
          "type": "bool"
        }
      ],
      "stateMutability": "payable",
      "type": "function"
    },
    {
      "inputs": [
        {
          "internalType": "address",
          "name": "",
          "type": "address"
        },
        {
          "internalType": "uint256",
          "name": "",
          "type": "uint256"
        }
      ],
      "name": "burnRequests",
      "outputs": [
        {
          "internalType": "uint256",
          "name": "amount",
          "type": "uint256"
        },
        {
          "internalType": "uint256",
          "name": "burntAmount",
          "type": "uint256"
        },
        {
          "internalType": "address",
          "name": "sender",
          "type": "address"
        },
        {
          "internalType": "bytes",
          "name": "userScript",
          "type": "bytes"
        },
        {
          "internalType": "uint256",
          "name": "deadline",
          "type": "uint256"
        },
        {
          "internalType": "bool",
          "name": "isTransferred",
          "type": "bool"
        },
        {
          "internalType": "enum ScriptTypes",
          "name": "scriptType",
          "type": "uint8"
        }
      ],
      "stateMutability": "view",
      "type": "function"
    },
    {
      "inputs": [
        {
          "internalType": "uint256",
          "name": "_amount",
          "type": "uint256"
        },
        {
          "internalType": "bytes",
          "name": "_userScript",
          "type": "bytes"
        },
        {
          "internalType": "enum ScriptTypes",
          "name": "_scriptType",
          "type": "uint8"
        },
        {
          "internalType": "bytes",
          "name": "_lockerLockingScript",
          "type": "bytes"
        }
      ],
      "name": "ccBurn",
      "outputs": [
        {
          "internalType": "uint256",
          "name": "_burntAmount",
          "type": "uint256"
        }
      ],
      "stateMutability": "nonpayable",
      "type": "function"
    },
    {
      "inputs": [
        {
          "internalType": "bytes",
          "name": "_lockerLockingScript",
          "type": "bytes"
        },
        {
          "internalType": "uint256[]",
          "name": "_indices",
          "type": "uint256[]"
        }
      ],
      "name": "disputeBurn",
      "outputs": [
        {
          "internalType": "bool",
          "name": "",
          "type": "bool"
        }
      ],
      "stateMutability": "nonpayable",
      "type": "function"
    },
    {
      "inputs": [
        {
          "internalType": "bytes",
          "name": "_lockerLockingScript",
          "type": "bytes"
        },
        {
          "internalType": "bytes4[]",
          "name": "_versions",
          "type": "bytes4[]"
        },
        {
          "internalType": "bytes",
          "name": "_inputVin",
          "type": "bytes"
        },
        {
          "internalType": "bytes",
          "name": "_inputVout",
          "type": "bytes"
        },
        {
          "internalType": "bytes",
          "name": "_outputVin",
          "type": "bytes"
        },
        {
          "internalType": "bytes",
          "name": "_outputVout",
          "type": "bytes"
        },
        {
          "internalType": "bytes4[]",
          "name": "_locktimes",
          "type": "bytes4[]"
        },
        {
          "internalType": "bytes",
          "name": "_inputIntermediateNodes",
          "type": "bytes"
        },
        {
          "internalType": "uint256[]",
          "name": "_indexesAndBlockNumbers",
          "type": "uint256[]"
        }
      ],
      "name": "disputeLocker",
      "outputs": [
        {
          "internalType": "bool",
          "name": "",
          "type": "bool"
        }
      ],
      "stateMutability": "payable",
      "type": "function"
    },
    {
      "inputs": [
        {
          "internalType": "address",
          "name": "_lockerTargetAddress",
          "type": "address"
        },
        {
          "internalType": "uint256",
          "name": "_index",
          "type": "uint256"
        }
      ],
      "name": "isTransferred",
      "outputs": [
        {
          "internalType": "bool",
          "name": "",
          "type": "bool"
        }
      ],
      "stateMutability": "view",
      "type": "function"
    },
    {
      "inputs": [
        {
          "internalType": "bytes32",
          "name": "",
          "type": "bytes32"
        }
      ],
      "name": "isUsedAsBurnProof",
      "outputs": [
        {
          "internalType": "bool",
          "name": "",
          "type": "bool"
        }
      ],
      "stateMutability": "view",
      "type": "function"
    },
    {
      "inputs": [],
      "name": "lockers",
      "outputs": [
        {
          "internalType": "address",
          "name": "",
          "type": "address"
        }
      ],
      "stateMutability": "view",
      "type": "function"
    },
    {
      "inputs": [],
      "name": "owner",
      "outputs": [
        {
          "internalType": "address",
          "name": "",
          "type": "address"
        }
      ],
      "stateMutability": "view",
      "type": "function"
    },
    {
      "inputs": [],
      "name": "protocolPercentageFee",
      "outputs": [
        {
          "internalType": "uint256",
          "name": "",
          "type": "uint256"
        }
      ],
      "stateMutability": "view",
      "type": "function"
    },
    {
      "inputs": [],
      "name": "relay",
      "outputs": [
        {
          "internalType": "address",
          "name": "",
          "type": "address"
        }
      ],
      "stateMutability": "view",
      "type": "function"
    },
    {
      "inputs": [],
      "name": "renounceOwnership",
      "outputs": [],
      "stateMutability": "nonpayable",
      "type": "function"
    },
    {
      "inputs": [
        {
          "internalType": "uint256",
          "name": "_bitcoinFee",
          "type": "uint256"
        }
      ],
      "name": "setBitcoinFee",
      "outputs": [],
      "stateMutability": "nonpayable",
      "type": "function"
    },
    {
      "inputs": [
        {
          "internalType": "address",
          "name": "_lockers",
          "type": "address"
        }
      ],
      "name": "setLockers",
      "outputs": [],
      "stateMutability": "nonpayable",
      "type": "function"
    },
    {
      "inputs": [
        {
          "internalType": "uint256",
          "name": "_protocolPercentageFee",
          "type": "uint256"
        }
      ],
      "name": "setProtocolPercentageFee",
      "outputs": [],
      "stateMutability": "nonpayable",
      "type": "function"
    },
    {
      "inputs": [
        {
          "internalType": "address",
          "name": "_relay",
          "type": "address"
        }
      ],
      "name": "setRelay",
      "outputs": [],
      "stateMutability": "nonpayable",
      "type": "function"
    },
    {
      "inputs": [
        {
          "internalType": "uint256",
          "name": "_slasherPercentageReward",
          "type": "uint256"
        }
      ],
      "name": "setSlasherPercentageReward",
      "outputs": [],
      "stateMutability": "nonpayable",
      "type": "function"
    },
    {
      "inputs": [
        {
          "internalType": "address",
          "name": "_teleBTC",
          "type": "address"
        }
      ],
      "name": "setTeleBTC",
      "outputs": [],
      "stateMutability": "nonpayable",
      "type": "function"
    },
    {
      "inputs": [
        {
          "internalType": "uint256",
          "name": "_transferDeadline",
          "type": "uint256"
        }
      ],
      "name": "setTransferDeadline",
      "outputs": [],
      "stateMutability": "nonpayable",
      "type": "function"
    },
    {
      "inputs": [
        {
          "internalType": "address",
          "name": "_treasury",
          "type": "address"
        }
      ],
      "name": "setTreasury",
      "outputs": [],
      "stateMutability": "nonpayable",
      "type": "function"
    },
    {
      "inputs": [],
      "name": "slasherPercentageReward",
      "outputs": [
        {
          "internalType": "uint256",
          "name": "",
          "type": "uint256"
        }
      ],
      "stateMutability": "view",
      "type": "function"
    },
    {
      "inputs": [],
      "name": "teleBTC",
      "outputs": [
        {
          "internalType": "address",
          "name": "",
          "type": "address"
        }
      ],
      "stateMutability": "view",
      "type": "function"
    },
    {
      "inputs": [],
      "name": "transferDeadline",
      "outputs": [
        {
          "internalType": "uint256",
          "name": "",
          "type": "uint256"
        }
      ],
      "stateMutability": "view",
      "type": "function"
    },
    {
      "inputs": [
        {
          "internalType": "address",
          "name": "newOwner",
          "type": "address"
        }
      ],
      "name": "transferOwnership",
      "outputs": [],
      "stateMutability": "nonpayable",
      "type": "function"
    },
    {
      "inputs": [],
      "name": "treasury",
      "outputs": [
        {
          "internalType": "address",
          "name": "",
          "type": "address"
        }
      ],
      "stateMutability": "view",
      "type": "function"
    }
  ],
  "transactionHash": "0x21e1694a2668a69c76871c120943b7b57c6e212e5d097539859183c35b3b0b42",
  "args": [
    "0xeD822340947D232F4A4cf207d31b179BC8892C21",
    "0x4F7B590B54D5cDa817Bd8eC0DCf303591A101d03",
    "0x5364E3557572bd5D5903C0e9C21BE359F2Eac1dA",
    10,
    50,
    50,
    50
  ],
  "numDeployments": 1,
  "solcInputHash": "86f0fd2b9e90320249e3db03af84b94f",
  "bytecode": "0x60806040523480156200001157600080fd5b506040516200556638038062005566833981016040819052620000349162000106565b6200003f3362000099565b60018055600280546001600160a01b03199081166001600160a01b03998a16179091556003805482169789169790971790965560058054909616949096169390931790935560065560079190915560085560095562000176565b600080546001600160a01b038381166001600160a01b0319831681178455604051919092169283917f8be0079c531659141344cd1fd0a4f28419497f9722a3daafe3b4186f6b6457e09190a35050565b80516001600160a01b03811681146200010157600080fd5b919050565b600080600080600080600060e0888a03121562000121578283fd5b6200012c88620000e9565b96506200013c60208901620000e9565b95506200014c60408901620000e9565b9450606088015193506080880151925060a0880151915060c0880151905092959891949750929550565b6153e080620001866000396000f3fe6080604052600436106101815760003560e01c80638d3d78cd116100d1578063c780c03f1161008a578063ea73263711610064578063ea73263714610451578063f0f4426014610464578063f2fde38b14610484578063f47e2240146104a457610181565b8063c780c03f146103fe578063c805f68b14610411578063cdbe37411461043157610181565b80638d3d78cd146103545780638da5cb5b14610374578063b14d353214610392578063b59589d1146103b2578063b74d0d35146103d2578063bed6a602146103e857610181565b80635c4f5f3e1161013e57806373532b2a1161011857806373532b2a146102d45780637ed55748146102f45780637f0f1817146103145780637ffe9a921461033457610181565b80635c4f5f3e1461027f57806361d027b31461029f578063715018a6146102bf57610181565b80631812adb6146101865780631876dec4146101af5780631e236168146101e7578063419cba7f1461022757806343149dba1461023d5780634782bc361461025d575b600080fd5b34801561019257600080fd5b5061019c60075481565b6040519081526020015b60405180910390f35b3480156101bb57600080fd5b506003546101cf906001600160a01b031681565b6040516001600160a01b0390911681526020016101a6565b3480156101f357600080fd5b5061021761020236600461490f565b600b6020526000908152604090205460ff1681565b60405190151581526020016101a6565b34801561023357600080fd5b5061019c60085481565b34801561024957600080fd5b5061019c610258366004614c23565b6104d7565b34801561026957600080fd5b5061027d61027836600461490f565b6109ba565b005b34801561028b57600080fd5b5061027d61029a36600461490f565b610a60565b3480156102ab57600080fd5b506005546101cf906001600160a01b031681565b3480156102cb57600080fd5b5061027d610b71565b3480156102e057600080fd5b506102176102ef366004614a64565b610ba7565b34801561030057600080fd5b5061027d61030f36600461490f565b6111c4565b34801561032057600080fd5b5061027d61032f36600461488c565b611258565b34801561034057600080fd5b5061021761034f3660046148c4565b6112cc565b34801561036057600080fd5b506004546101cf906001600160a01b031681565b34801561038057600080fd5b506000546001600160a01b03166101cf565b34801561039e57600080fd5b5061027d6103ad36600461488c565b611324565b3480156103be57600080fd5b506002546101cf906001600160a01b031681565b3480156103de57600080fd5b5061019c60095481565b3480156103f457600080fd5b5061019c60065481565b61021761040c366004614ac9565b611398565b34801561041d57600080fd5b5061027d61042c36600461488c565b6118fd565b34801561043d57600080fd5b5061027d61044c36600461490f565b611971565b61021761045f36600461493f565b6119a0565b34801561047057600080fd5b5061027d61047f36600461488c565b611c46565b34801561049057600080fd5b5061027d61049f36600461488c565b611cba565b3480156104b057600080fd5b506104c46104bf3660046148c4565b611d55565b6040516101a697969594939291906150eb565b6000600260015414156105055760405162461bcd60e51b81526004016104fc906150b4565b60405180910390fd5b600260015585806105585760405162461bcd60e51b815260206004820152601b60248201527f43434275726e526f757465723a2076616c7565206973207a65726f000000000060448201526064016104fc565b6105628686611e49565b60035460405163aff2faa360e01b81526001600160a01b039091169063aff2faa3906105949087908790600401614df1565b60206040518083038186803b1580156105ac57600080fd5b505afa1580156105c0573d6000803e3d6000fd5b505050506040513d601f19601f820116820180604052508101906105e491906148ef565b6106005760405162461bcd60e51b81526004016104fc90614f9d565b60035460405163626885b560e11b81526000916001600160a01b03169063c4d10b6a906106339088908890600401614df1565b60206040518083038186803b15801561064b57600080fd5b505afa15801561065f573d6000803e3d6000fd5b505050506040513d601f19601f8201168201806040525081019061068391906148a8565b6004549091506001600160a01b03166323b872dd336040516001600160e01b031960e084901b1681526001600160a01b039091166004820152306024820152604481018b9052606401602060405180830381600087803b1580156106e657600080fd5b505af11580156106fa573d6000803e3d6000fd5b505050506040513d601f19601f8201168201806040525081019061071e91906148ef565b50600061072b8983611ee6565b6004805460035460405163095ea7b360e01b81526001600160a01b039182169381019390935260248301849052929350919091169063095ea7b390604401602060405180830381600087803b15801561078357600080fd5b505af1158015610797573d6000803e3d6000fd5b505050506040513d601f19601f820116820180604052508101906107bb91906148ef565b506003546040516338463cff60e01b81526001600160a01b03909116906338463cff906107f090899089908690600401614e05565b602060405180830381600087803b15801561080a57600080fd5b505af115801561081e573d6000803e3d6000fd5b505050506040513d601f19601f820116820180604052508101906108429190614927565b93506108d789858a8a600260009054906101000a90046001600160a01b03166001600160a01b0316632f796d906040518163ffffffff1660e01b815260040160206040518083038186803b15801561089957600080fd5b505afa1580156108ad573d6000803e3d6000fd5b505050506040513d601f19601f820116820180604052508101906108d19190614927565b876120a2565b6001600160a01b0382166000908152600a6020526040902080546108fd90600190615286565b8154811061091b57634e487b7160e01b600052603260045260246000fd5b906000526020600020906006020160040154826001600160a01b031661093e3390565b6001600160a01b038581166000908152600a60205260409020549116907fa5604974ff4182d74f6ab1839735f791628aa9385060f8cc07a20d415b540295908c908c908f908b9061099190600190615286565b6040516109a2959493929190614e3c565b60405180910390a45050600180555095945050505050565b6000546001600160a01b031633146109e45760405162461bcd60e51b81526004016104fc9061507f565b8060641015610a5b5760405162461bcd60e51b815260206004820152603760248201527f43434275726e526f757465723a20736c61736865722070657263656e7461676560448201527f20726577617264206973206f7574206f662072616e676500000000000000000060648201526084016104fc565b600855565b6000546001600160a01b03163314610a8a5760405162461bcd60e51b81526004016104fc9061507f565b60025460408051630a072bc560e41b815290516000926001600160a01b03169163a072bc50916004808301926020929190829003018186803b158015610acf57600080fd5b505afa158015610ae3573d6000803e3d6000fd5b505050506040513d601f19601f82011682018060405250810190610b079190614927565b9050808211610b6b5760405162461bcd60e51b815260206004820152602a60248201527f43434275726e526f757465723a207472616e7366657220646561646c696e6520604482015269697320746f6f206c6f7760b01b60648201526084016104fc565b50600655565b6000546001600160a01b03163314610b9b5760405162461bcd60e51b81526004016104fc9061507f565b610ba56000612233565b565b600060026001541415610bcc5760405162461bcd60e51b81526004016104fc906150b4565b600260015560035460405163aff2faa360e01b81526001600160a01b039091169063aff2faa390610c039087908790600401614df1565b60206040518083038186803b158015610c1b57600080fd5b505afa158015610c2f573d6000803e3d6000fd5b505050506040513d601f19601f82011682018060405250810190610c5391906148ef565b610c6f5760405162461bcd60e51b81526004016104fc90614f9d565b60035460405163626885b560e11b81526000916001600160a01b03169063c4d10b6a90610ca29088908890600401614df1565b60206040518083038186803b158015610cba57600080fd5b505afa158015610cce573d6000803e3d6000fd5b505050506040513d601f19601f82011682018060405250810190610cf291906148a8565b90506000600260009054906101000a90046001600160a01b03166001600160a01b0316632f796d906040518163ffffffff1660e01b815260040160206040518083038186803b158015610d4457600080fd5b505afa158015610d58573d6000803e3d6000fd5b505050506040513d601f19601f82011682018060405250810190610d7c9190614927565b905060005b84518110156111b4576001600160a01b0383166000908152600a602052604090208551869083908110610dc457634e487b7160e01b600052603260045260246000fd5b602002602001015181548110610dea57634e487b7160e01b600052603260045260246000fd5b600091825260209091206005600690920201015460ff1615610e615760405162461bcd60e51b815260206004820152602a60248201527f43434275726e526f757465723a207265717565737420686173206265656e2070604482015269616964206265666f726560b01b60648201526084016104fc565b6001600160a01b0383166000908152600a602052604090208551839190879084908110610e9e57634e487b7160e01b600052603260045260246000fd5b602002602001015181548110610ec457634e487b7160e01b600052603260045260246000fd5b90600052602060002090600602016004015410610ef35760405162461bcd60e51b81526004016104fc90614fed565b6001600160a01b0383166000908152600a60205260409020855160019190879084908110610f3157634e487b7160e01b600052603260045260246000fd5b602002602001015181548110610f5757634e487b7160e01b600052603260045260246000fd5b60009182526020808320600692909202909101600501805460ff1916931515939093179092556003546008546001600160a01b038781168452600a909452604090922088519390911692631697565b9287926064928b9088908110610fcc57634e487b7160e01b600052603260045260246000fd5b602002602001015181548110610ff257634e487b7160e01b600052603260045260246000fd5b90600052602060002090600602016000015461100e919061523e565b611018919061521e565b336001600160a01b0388166000908152600a602052604090208a518b908890811061105357634e487b7160e01b600052603260045260246000fd5b60200260200101518154811061107957634e487b7160e01b600052603260045260246000fd5b906000526020600020906006020160000154600a60008a6001600160a01b03166001600160a01b031681526020019081526020016000208b88815181106110d057634e487b7160e01b600052603260045260246000fd5b6020026020010151815481106110f657634e487b7160e01b600052603260045260246000fd5b600091825260209091206006909102016002015460405160e087901b6001600160e01b03191681526001600160a01b03958616600482015260248101949094529184166044840152606483015291909116608482015260a401602060405180830381600087803b15801561116957600080fd5b505af115801561117d573d6000803e3d6000fd5b505050506040513d601f19601f820116820180604052508101906111a191906148ef565b50806111ac81615325565b915050610d81565b5050600180805595945050505050565b6000546001600160a01b031633146111ee5760405162461bcd60e51b81526004016104fc9061507f565b8061271010156112535760405162461bcd60e51b815260206004820152602a60248201527f43434275726e526f757465723a2070726f746f636f6c20666565206973206f7560448201526974206f662072616e676560b01b60648201526084016104fc565b600755565b806001600160a01b03811661127f5760405162461bcd60e51b81526004016104fc90614f66565b6000546001600160a01b031633146112a95760405162461bcd60e51b81526004016104fc9061507f565b50600480546001600160a01b0319166001600160a01b0392909216919091179055565b6001600160a01b0382166000908152600a6020526040812080548390811061130457634e487b7160e01b600052603260045260246000fd5b600091825260209091206005600690920201015460ff1690505b92915050565b806001600160a01b03811661134b5760405162461bcd60e51b81526004016104fc90614f66565b6000546001600160a01b031633146113755760405162461bcd60e51b81526004016104fc9061507f565b50600380546001600160a01b0319166001600160a01b0392909216919091179055565b6000600260015414156113bd5760405162461bcd60e51b81526004016104fc906150b4565b6002600181905589511480156113d4575083516002145b80156113e1575081516003145b61142d5760405162461bcd60e51b815260206004820152601a60248201527f43434275726e526f757465723a2077726f6e6720696e7075747300000000000060448201526064016104fc565b60035460405163aff2faa360e01b81526001600160a01b039091169063aff2faa39061145d908d90600401614e29565b60206040518083038186803b15801561147557600080fd5b505afa158015611489573d6000803e3d6000fd5b505050506040513d601f19601f820116820180604052508101906114ad91906148ef565b6114c95760405162461bcd60e51b81526004016104fc90614f9d565b60006115278a6000815181106114ef57634e487b7160e01b600052603260045260246000fd5b60200260200101518a8a8860008151811061151a57634e487b7160e01b600052603260045260246000fd5b6020026020010151612283565b9050611585818460028151811061154e57634e487b7160e01b600052603260045260246000fd5b6020026020010151868660018151811061157857634e487b7160e01b600052603260045260246000fd5b6020026020010151612384565b6115ea5760405162461bcd60e51b815260206004820152603060248201527f43434275726e526f757465723a20696e707574207472616e73616374696f6e2060448201526f1a5cc81b9bdd08199a5b985b1a5e995960821b60648201526084016104fc565b6000818152600b602052604090205460ff16156116675760405162461bcd60e51b815260206004820152603560248201527f43434275726e526f757465723a207472616e73616374696f6e2068617320626560448201527432b7103ab9b2b21030b990313ab93710383937b7b360591b60648201526084016104fc565b60008061169c8b8660008151811061168f57634e487b7160e01b600052603260045260246000fd5b60200260200101516124f6565b915091506116ef8c6001815181106116c457634e487b7160e01b600052603260045260246000fd5b60200260200101518a8a8a60018151811061151a57634e487b7160e01b600052603260045260246000fd5b821461175c5760405162461bcd60e51b815260206004820152603660248201527f43434275726e526f757465723a206f7574706f696e7420747820646f65736e276044820152750e840dac2e8c6d040eed2e8d040deeae8e0eae840e8f60531b60648201526084016104fc565b8c5160208e012061176d89836125a5565b80519060200120146117da5760405162461bcd60e51b815260206004820152603060248201527f43434275726e526f757465723a206f757470757420747820646f65736e27742060448201526f3132b637b733903a37903637b1b5b2b960811b60648201526084016104fc565b846002815181106117fb57634e487b7160e01b600052603260045260246000fd5b60200260200101516006546118109190615194565b600260009054906101000a90046001600160a01b03166001600160a01b0316632f796d906040518163ffffffff1660e01b815260040160206040518083038186803b15801561185e57600080fd5b505afa158015611872573d6000803e3d6000fd5b505050506040513d601f19601f820116820180604052508101906118969190614927565b116118b35760405162461bcd60e51b81526004016104fc90614fed565b6118e78a8e85886002815181106118da57634e487b7160e01b600052603260045260246000fd5b6020026020010151612617565b505060018080559b9a5050505050505050505050565b806001600160a01b0381166119245760405162461bcd60e51b81526004016104fc90614f66565b6000546001600160a01b0316331461194e5760405162461bcd60e51b81526004016104fc9061507f565b50600280546001600160a01b0319166001600160a01b0392909216919091179055565b6000546001600160a01b0316331461199b5760405162461bcd60e51b81526004016104fc9061507f565b600955565b6000600260015414156119c55760405162461bcd60e51b81526004016104fc906150b4565b60026001556001600160e01b0319881615611a225760405162461bcd60e51b815260206004820181905260248201527f43434275726e526f757465723a206e6f6e2d7a65726f206c6f636b2074696d6560448201526064016104fc565b60035460405163aff2faa360e01b81526001600160a01b039091169063aff2faa390611a52908790600401614e29565b60206040518083038186803b158015611a6a57600080fd5b505afa158015611a7e573d6000803e3d6000fd5b505050506040513d601f19601f82011682018060405250810190611aa291906148ef565b611abe5760405162461bcd60e51b81526004016104fc90614f9d565b60035460405163626885b560e11b81526000916001600160a01b03169063c4d10b6a90611aef908890600401614e29565b60206040518083038186803b158015611b0757600080fd5b505afa158015611b1b573d6000803e3d6000fd5b505050506040513d601f19601f82011682018060405250810190611b3f91906148a8565b90508251845114611b925760405162461bcd60e51b815260206004820152601b60248201527f43434275726e526f757465723a2077726f6e6720696e6465786573000000000060448201526064016104fc565b6000611ba08d8d8d8d612283565b9050611bae818a8a8a612384565b611c125760405162461bcd60e51b815260206004820152602f60248201527f43434275726e526f757465723a207472616e73616374696f6e20686173206e6f60448201526e1d08199a5b985b1a5e9959081e595d608a1b60648201526084016104fc565b6000611c218a848e89896127f4565b9050611c2f818d8985612c58565b505060018080559c9b505050505050505050505050565b806001600160a01b038116611c6d5760405162461bcd60e51b81526004016104fc90614f66565b6000546001600160a01b03163314611c975760405162461bcd60e51b81526004016104fc9061507f565b50600580546001600160a01b0319166001600160a01b0392909216919091179055565b6000546001600160a01b03163314611ce45760405162461bcd60e51b81526004016104fc9061507f565b6001600160a01b038116611d495760405162461bcd60e51b815260206004820152602660248201527f4f776e61626c653a206e6577206f776e657220697320746865207a65726f206160448201526564647265737360d01b60648201526084016104fc565b611d5281612233565b50565b600a6020528160005260406000208181548110611d7157600080fd5b600091825260209091206006909102018054600182015460028301546003840180549396509194506001600160a01b03169291611dad906152f0565b80601f0160208091040260200160405190810160405280929190818152602001828054611dd9906152f0565b8015611e265780601f10611dfb57610100808354040283529160200191611e26565b820191906000526020600020905b815481529060010190602001808311611e0957829003601f168201915b50505050600483015460059093015491929160ff80821692506101009091041687565b6000816004811115611e6b57634e487b7160e01b600052602160045260246000fd5b1480611e9657506004816004811115611e9457634e487b7160e01b600052602160045260246000fd5b145b15611ec1578151602014611ebc5760405162461bcd60e51b81526004016104fc9061503e565b611ee2565b8151601414611ee25760405162461bcd60e51b81526004016104fc9061503e565b5050565b60008061271060075485611efa919061523e565b611f04919061521e565b905060095481611f149190615194565b8411611f625760405162461bcd60e51b815260206004820152601f60248201527f43434275726e526f757465723a20616d6f756e7420697320746f6f206c6f770060448201526064016104fc565b600954600090611f728387615286565b611f7c9190615286565b6004805460055460405163a9059cbb60e01b81526001600160a01b039182169381019390935260248301869052929350919091169063a9059cbb90604401602060405180830381600087803b158015611fd457600080fd5b505af1158015611fe8573d6000803e3d6000fd5b505050506040513d601f19601f8201168201806040525081019061200c91906148ef565b506004805460095460405163a9059cbb60e01b81526001600160a01b0388811694820194909452602481019190915291169063a9059cbb90604401602060405180830381600087803b15801561206157600080fd5b505af1158015612075573d6000803e3d6000fd5b505050506040513d601f19601f8201168201806040525081019061209991906148ef565b50949350505050565b6120de6040805160e0810182526000808252602082018190529181018290526060808201526080810182905260a081018290529060c082015290565b868152602081018690523360408201526060810185905260c0810184600481111561211957634e487b7160e01b600052602160045260246000fd5b9081600481111561213a57634e487b7160e01b600052602160045260246000fd5b90525060065461214a9084615194565b6080820152600060a082018190526001600160a01b038381168252600a6020908152604080842080546001808201835591865294839020865160069096020194855582860151908501558401516002840180546001600160a01b0319169190931617909155606083015180518493926121ca92600385019291019061465e565b50608082015160048281019190915560a083015160058301805460ff19169115159190911780825560c08501519261ff00199091169061010090849081111561222357634e487b7160e01b600052602160045260246000fd5b0217905550505050505050505050565b600080546001600160a01b038381166001600160a01b0319831681178455604051919092169283917f8be0079c531659141344cd1fd0a4f28419497f9722a3daafe3b4186f6b6457e09190a35050565b60008060028686868660405160200161229f9493929190614d23565b60408051601f19818403018152908290526122b991614d76565b602060405180830381855afa1580156122d6573d6000803e3d6000fd5b5050506040513d601f19601f820116820180604052508101906122f99190614927565b9050600060028260405160200161231291815260200190565b60408051601f198184030181529082905261232c91614d76565b602060405180830381855afa158015612349573d6000803e3d6000fd5b5050506040513d601f19601f8201168201806040525081019061236c9190614927565b905061237781612ce1565b925050505b949350505050565b60025460405163d0a8973960e01b8152600481018590526000602482018190529182916001600160a01b039091169063d0a897399060440160206040518083038186803b1580156123d457600080fd5b505afa1580156123e8573d6000803e3d6000fd5b505050506040513d601f19601f8201168201806040525081019061240c9190614927565b9050803410156124705760405162461bcd60e51b815260206004820152602960248201527f43434275726e526f757465723a2072656c617920666565206973206e6f7420736044820152681d59999a58da595b9d60ba1b60648201526084016104fc565b6002546040516000916124cd916001600160a01b039091169061249d908a908a908a908a90602401614dc1565b60408051601f198184030181529190526020810180516001600160e01b0316634354da2560e01b17905284612d63565b90506124e2336124dd8434615286565b612d93565b8080602001905181019061237791906148ef565b6000808061250c6125078683612eb1565b612ed5565b905062ffffff1980821614156125645760405162461bcd60e51b815260206004820152601a60248201527f426974636f696e48656c7065723a2076696e206973206e756c6c00000000000060448201526064016104fc565b6000612570828661300b565b9050600061257d82613129565b90506125888161314d565b94506125938161316f565b63ffffffff1693505050509250929050565b606060006125bb6125b68583612eb1565b613191565b905062ffffff1980821614156125e35760405162461bcd60e51b81526004016104fc90614f2f565b60006125ef8285613282565b905060006125fc8261337c565b905061260d62ffffff1982166133cd565b9695505050505050565b60006126228561341d565b60035460405163626885b560e11b81526001600160401b039290921692506000916001600160a01b039091169063c4d10b6a90612663908890600401614e29565b60206040518083038186803b15801561267b57600080fd5b505afa15801561268f573d6000803e3d6000fd5b505050506040513d601f19601f820116820180604052508101906126b391906148a8565b6003546008549192506001600160a01b0316906333c99e1d9083906064906126db908761523e565b6126e5919061521e565b3360405160e085901b6001600160e01b03191681526001600160a01b0393841660048201526024810192909252909116604482015260648101859052608401602060405180830381600087803b15801561273e57600080fd5b505af1158015612752573d6000803e3d6000fd5b505050506040513d601f19601f8201168201806040525081019061277691906148ef565b507fe184676c6adf968d3ce328b5c69512d9ab9a5155c6d6f0fd7b385003e30eea428184866064600854876127ab919061523e565b6127b5919061521e565b6127bf9087615194565b604080516001600160a01b039095168552602085019390935291830152606082015260800160405180910390a1505050505050565b600080805b8451811015612c4d57600085828151811061282457634e487b7160e01b600052603260045260246000fd5b60200260200101519050600a6000896001600160a01b03166001600160a01b03168152602001908152602001600020818154811061287257634e487b7160e01b600052603260045260246000fd5b600091825260209091206005600690920201015460ff161580156128e157506001600160a01b0388166000908152600a6020526040902080548a9190839081106128cc57634e487b7160e01b600052603260045260246000fd5b90600052602060002090600602016004015410155b15612c3a57612a8c8786848151811061290a57634e487b7160e01b600052603260045260246000fd5b6020026020010151600a60008c6001600160a01b03166001600160a01b03168152602001908152602001600020848154811061295657634e487b7160e01b600052603260045260246000fd5b90600052602060002090600602016003018054612972906152f0565b80601f016020809104026020016040519081016040528092919081815260200182805461299e906152f0565b80156129eb5780601f106129c0576101008083540402835291602001916129eb565b820191906000526020600020905b8154815290600101906020018083116129ce57829003601f168201915b5050506001600160a01b038e166000908152600a6020526040902080549092508791508110612a2a57634e487b7160e01b600052603260045260246000fd5b906000526020600020906006020160050160019054906101000a900460ff166004811115612a6857634e487b7160e01b600052602160045260246000fd5b6004811115612a8757634e487b7160e01b600052602160045260246000fd5b6134b5565b6001600160401b0316925082600a60008a6001600160a01b03166001600160a01b031681526020019081526020016000208281548110612adc57634e487b7160e01b600052603260045260246000fd5b9060005260206000209060060201600101541415612c3a576001600160a01b0388166000908152600a6020526040902080546001919083908110612b3057634e487b7160e01b600052603260045260246000fd5b60009182526020909120600690910201600501805460ff1916911515919091179055612b5d846001615194565b6001600160a01b0389166000818152600a602052604090208054929650909183908110612b9a57634e487b7160e01b600052603260045260246000fd5b60009182526020808320600260069093020191909101546001600160a01b038c81168452600a9092526040909220805491909216917f2a19a8845319f6ff87c06307d29da11b94ed2d90a25046ed222f4bad3189d2449185908110612c0f57634e487b7160e01b600052603260045260246000fd5b90600052602060002090600602016003018685604051612c3193929190614e7a565b60405180910390a35b5080612c4581615325565b9150506127f9565b505095945050505050565b6000612c6484846136f0565b6001600160401b031690506000612c7a856137f4565b90508115801590612c94575080612c92876001615194565b145b15612cb7576000838152600b60205260409020805460ff19166001179055612cd9565b80861415612cd9576000838152600b60205260409020805460ff191660011790555b505050505050565b6000606081805b6020811015612d55578285612cfe83601f615286565b60208110612d1c57634e487b7160e01b600052603260045260246000fd5b1a60f81b604051602001612d31929190614d92565b60405160208183030381529060405292508080612d4d90615325565b915050612ce8565b50506020015190505b919050565b6060612d8984848460405180606001604052806029815260200161538260299139613821565b90505b9392505050565b80471015612de35760405162461bcd60e51b815260206004820152601d60248201527f416464726573733a20696e73756666696369656e742062616c616e636500000060448201526064016104fc565b6000826001600160a01b03168260405160006040518083038185875af1925050503d8060008114612e30576040519150601f19603f3d011682016040523d82523d6000602084013e612e35565b606091505b5050905080612eac5760405162461bcd60e51b815260206004820152603a60248201527f416464726573733a20756e61626c6520746f2073656e642076616c75652c207260448201527f6563697069656e74206d6179206861766520726576657274656400000000000060648201526084016104fc565b505050565b815160009060208401612ecc64ffffffffff8516828461393e565b95945050505050565b60008181612eeb815b62ffffff19841690613982565b50601884901c6001600160601b0316612f0b5762ffffff195b9250613004565b6000612f18856000613a5c565b9050601885901c6001600160601b03166001600160401b038216612f455762ffffff195b94505050613004565b6000612f5083613b8b565b60ff16905060005b836001600160401b0316811015612fcc57828210612f815762ffffff195b965050505050613004565b6000612fa1612f908486615286565b60055b62ffffff198c169190613be4565b9050612fac81613c18565b612fb69084615194565b9250508080612fc490615325565b915050612f58565b50818114612fe45762ffffff195b9550505050613004565b612ffe60065b60d81b6301000000600160d81b0389161790565b95505050505b5050919050565b600082600661301981612ede565b506000613027866000613a5c565b6001600160401b03169050601886901c6001600160601b03168186106130825760405162461bcd60e51b815260206004820152601060248201526f2b34b7103932b0b21037bb32b9393ab760811b60448201526064016104fc565b600061308d83613b8b565b60ff1690506000805b888110156130e5576130bc6130ab8486615286565b60055b62ffffff198d169190613be4565b91506130c782613c18565b6130d19084615194565b92506130de600182615194565b9050613096565b506130f3612f908385615286565b9050600061310082613c18565b9050613119838260045b62ffffff198e16929190613c6c565b975050505050505b505092915050565b600081600461313781612ede565b5061237c62ffffff198516600060246003613c6c565b600081600361315b81612ede565b5061237c62ffffff19851660006020613cdc565b600081600361317d81612ede565b5061237c62ffffff19851660206004613e35565b6000818161319e81612ede565b50601884901c6001600160601b03166131bb5762ffffff19612f04565b60006131c8856000613a5c565b9050601885901c6001600160601b03166001600160401b0382166131f05762ffffff19612f3c565b60006131fb83613b8b565b60ff16905060005b836001600160401b0316811015613266578282106132255762ffffff19612f76565b600061323b6132348486615286565b600e612f93565b905061324681613f7f565b6132509084615194565b925050808061325e90615325565b915050613203565b508181146132785762ffffff19612fda565b612ffe600f612fea565b600082600f61329081612ede565b50600061329e866000613a5c565b6001600160401b03169050601886901c6001600160601b03168186106132fa5760405162461bcd60e51b81526020600482015260116024820152702b37baba103932b0b21037bb32b9393ab760791b60448201526064016104fc565b600061330583613b8b565b60ff1690506000805b888110156133535761332a6133238486615286565b600e6130ae565b915061333582613f7f565b61333f9084615194565b925061334c600182615194565b905061330e565b506133616132348385615286565b9050600061336e82613f7f565b90506131198382600d61310a565b600081600d61338a81612ede565b506000613398856008613a5c565b9050612ecc6133a682613b8b565b6133b19060086151d7565b62ffffff1987169060ff166001600160401b0384166007613c6c565b60606000806133e58460181c6001600160601b031690565b60405193508392506001600160601b0316905061340c84613407846020615194565b613fc8565b508181016020016040529052919050565b60008061342d6125b68483612eb1565b905062ffffff1980821614156134555760405162461bcd60e51b81526004016104fc90614f2f565b600080613463836000613a5c565b6001600160401b0316905060005b818110156134ac576134838482613282565b925061348e83614120565b61349890866151ac565b9450806134a481615325565b915050613471565b50505050919050565b6000806134c56125b68783612eb1565b905062ffffff1980821614156134ed5760405162461bcd60e51b81526004016104fc90614f2f565b60006134f98287613282565b905060006135068261337c565b9050600085600481111561352a57634e487b7160e01b600052602160045260246000fd5b141561358f5761354362ffffff19821660016020613cdc565b60405160200161355591815260200190565b6040516020818303038152906040528051906020012086805190602001201461357f576000613588565b61358882614120565b93506136e5565b60018560048111156135b157634e487b7160e01b600052602160045260246000fd5b14156135f0576135c862ffffff1982166003614142565b604051602001613555919060609190911b6bffffffffffffffffffffffff1916815260140190565b600285600481111561361257634e487b7160e01b600052602160045260246000fd5b1415613629576135c862ffffff1982166002614142565b600385600481111561364b57634e487b7160e01b600052602160045260246000fd5b1415613662576135c862ffffff1982166002614142565b600485600481111561368457634e487b7160e01b600052602160045260246000fd5b14156136e55761369d62ffffff19821660026020613cdc565b6040516020016136af91815260200190565b604051602081830303815290604052805190602001208680519060200120146136d95760006136e2565b6136e282614120565b93505b505050949350505050565b6000806137006125b68583612eb1565b905062ffffff1980821614156137285760405162461bcd60e51b81526004016104fc90614f2f565b6000806000613738846000613a5c565b6001600160401b0316905060005b818110156137e9576137588582613282565b93506137638461337c565b9250866040516020016137769190614d76565b6040516020818303038152906040528051906020012061379b8462ffffff19166133cd565b6040516020016137ab9190614d76565b6040516020818303038152906040528051906020012014156137d7576137d084614120565b95506137e9565b806137e181615325565b915050613746565b505050505092915050565b6000806138046125b68483612eb1565b9050613811816000613a5c565b6001600160401b03169392505050565b6060824710156138825760405162461bcd60e51b815260206004820152602660248201527f416464726573733a20696e73756666696369656e742062616c616e636520666f6044820152651c8818d85b1b60d21b60648201526084016104fc565b843b6138d05760405162461bcd60e51b815260206004820152601d60248201527f416464726573733a2063616c6c20746f206e6f6e2d636f6e747261637400000060448201526064016104fc565b600080866001600160a01b031685876040516138ec9190614d76565b60006040518083038185875af1925050503d8060008114613929576040519150601f19603f3d011682016040523d82523d6000602084013e61392e565b606091505b5091509150612377828286614150565b60008061394b8385615194565b905060405181111561395b575060005b8061396d5762ffffff19915050612d8c565b5050606092831b9190911790911b1760181b90565b600061398e8383614189565b613a555760006139ad6139a18560d81c90565b64ffffffffff166141ac565b91505060006139c28464ffffffffff166141ac565b6040517f5479706520617373657274696f6e206661696c65642e20476f7420307800000060208201526001600160b01b031960b086811b8216603d8401526c05c408af0e0cac6e8cac84060f609b1b604784015283901b16605482015290925060009150605e015b60405160208183030381529060405290508060405162461bcd60e51b81526004016104fc9190614e29565b5090919050565b600080613a7162ffffff19851684600161426c565b905060fc8111613a8257905061131e565b8060fd1415613ae057613aa8613a99846001615194565b62ffffff198616906002613e35565b9150613ab382613b8b565b60ff16600314613adb57613ad9613ad462ffffff1986168560036000613c6c565b61429c565b505b613b84565b8060fe1415613b3257613b06613af7846001615194565b62ffffff198616906004613e35565b9150613b1182613b8b565b60ff16600514613adb57613ad9613ad462ffffff1986168560056000613c6c565b8060ff1415613b8457613b58613b49846001615194565b62ffffff198616906008613e35565b9150613b6382613b8b565b60ff16600914613b8457613121613ad462ffffff1986168560096000613c6c565b5092915050565b600060fc826001600160401b031611613ba657506001612d5e565b61ffff826001600160401b031611613bc057506003612d5e565b63ffffffff826001600160401b031611613bdc57506005612d5e565b506009612d5e565b6000612d898484613bfe8760181c6001600160601b031690565b6001600160601b0316613c119190615286565b8585613c6c565b6000816005613c2681612ede565b506000613c34856024613a5c565b9050806001600160401b0316613c4982613b8b565b60ff16613c569190615194565b613c61906024615194565b612ecc906004615194565b600080613c828660781c6001600160601b031690565b6001600160601b03169050613c9686614319565b84613ca18784615194565b613cab9190615194565b1115613cbe5762ffffff1991505061237c565b613cc88582615194565b905061260d8364ffffffffff16828661393e565b600060ff8216613cee57506000612d8c565b613d018460181c6001600160601b031690565b6001600160601b0316613d1760ff841685615194565b1115613d7b57613d62613d338560781c6001600160601b031690565b6001600160601b0316613d4f8660181c6001600160601b031690565b6001600160601b0316858560ff1661435a565b60405162461bcd60e51b81526004016104fc9190614e29565b60208260ff161115613df55760405162461bcd60e51b815260206004820152603a60248201527f54797065644d656d566965772f696e646578202d20417474656d70746564207460448201527f6f20696e646578206d6f7265207468616e20333220627974657300000000000060648201526084016104fc565b600882026000613e0e8660781c6001600160601b031690565b6001600160601b031690506000600160ff1b60001984011d91909501511695945050505050565b6000612d89613e45858585613cdc565b600881811c7eff00ff00ff00ff00ff00ff00ff00ff00ff00ff00ff00ff00ff00ff00ff00ff167fff00ff00ff00ff00ff00ff00ff00ff00ff00ff00ff00ff00ff00ff00ff00ff009290911b9190911617601081811c7dffff0000ffff0000ffff0000ffff0000ffff0000ffff0000ffff0000ffff167fffff0000ffff0000ffff0000ffff0000ffff0000ffff0000ffff0000ffff00009290911b9190911617602081811c7bffffffff00000000ffffffff00000000ffffffff00000000ffffffff167fffffffff00000000ffffffff00000000ffffffff00000000ffffffff000000009290911b9190911617604081811c77ffffffffffffffff0000000000000000ffffffffffffffff1677ffffffffffffffff0000000000000000ffffffffffffffff199290911b9190911617608081811c91901b1790565b600081600e613f8d81612ede565b506000613f9b856008613a5c565b9050806001600160401b0316613fb082613b8b565b60ff16613fbd9190615194565b612ecc906008615194565b600062ffffff1980841614156140315760405162461bcd60e51b815260206004820152602860248201527f54797065644d656d566965772f636f7079546f202d204e756c6c20706f696e7460448201526732b9103232b932b360c11b60648201526084016104fc565b61403a83614484565b61409a5760405162461bcd60e51b815260206004820152602b60248201527f54797065644d656d566965772f636f7079546f202d20496e76616c696420706f60448201526a34b73a32b9103232b932b360a91b60648201526084016104fc565b60006140af8460181c6001600160601b031690565b6001600160601b0316905060006140cf8560781c6001600160601b031690565b6001600160601b0316905060006040519050848111156140ef5760206060fd5b8285848460045afa5061260d6141058760d81c90565b64ffffffffff60601b606091821b168717901b841760181b90565b600081600d61412e81612ede565b5061237c62ffffff19851660006008613e35565b6000612d8c8383601461426c565b6060831561415f575081612d8c565b82511561416f5782518084602001fd5b8160405162461bcd60e51b81526004016104fc9190614e29565b60008164ffffffffff1661419d8460d81c90565b64ffffffffff16149392505050565b600080601f5b600f8160ff16111561420a5760006141cb82600861525d565b60ff1685901c90506141dc816144c2565b61ffff16841793508160ff166010146141f757601084901b93505b5061420360018261529d565b90506141b2565b50600f5b60ff8160ff16101561426657600061422782600861525d565b60ff1685901c9050614238816144c2565b61ffff16831792508160ff1660001461425357601083901b92505b5061425f60018261529d565b905061420e565b50915091565b600061427982602061529d565b61428490600861525d565b60ff16614292858585613cdc565b901c949350505050565b606060006142c66142c162ffffff19851683601887901c6001600160601b031661426c565b6141ac565b6040517f4e6f6e2d6d696e696d616c2076617220696e742e20476f74203078000000000060208201526dffffffffffffffffffffffffffff19607083901b16603b82015290925060009150604d01613a2a565b600061432e8260181c6001600160601b031690565b6143418360781c6001600160601b031690565b61434b91906151fc565b6001600160601b031692915050565b60606000614367866141ac565b9150506000614375866141ac565b9150506000614383866141ac565b9150506000614391866141ac565b604080517f54797065644d656d566965772f696e646578202d204f76657272616e20746865602082015274040ecd2caee5c40a6d8d2c6ca40d2e640c2e84060f605b1b818301526001600160d01b031960d098891b811660558301526e040eed2e8d040d8cadccee8d04060f608b1b605b830181905297891b8116606a8301527f2e20417474656d7074656420746f20696e646578206174206f666673657420306070830152600f60fb1b609083015295881b861660918201526097810196909652951b90921660a68401525050601760f91b60ac8201528151808203608d01815260ad90910190915295945050505050565b60006144908260d81c90565b64ffffffffff1664ffffffffff14156144ab57506000612d5e565b60006144b683614319565b60405110199392505050565b60006144d460048360ff16901c6144f2565b60ff161760081b62ffff00166144e9826144f2565b60ff1617919050565b600060f08083179060ff8216141561450e576030915050612d5e565b8060ff1660f11415614524576031915050612d5e565b8060ff1660f2141561453a576032915050612d5e565b8060ff1660f31415614550576033915050612d5e565b8060ff1660f41415614566576034915050612d5e565b8060ff1660f5141561457c576035915050612d5e565b8060ff1660f61415614592576036915050612d5e565b8060ff1660f714156145a8576037915050612d5e565b8060ff1660f814156145be576038915050612d5e565b8060ff1660f914156145d4576039915050612d5e565b8060ff1660fa14156145ea576061915050612d5e565b8060ff1660fb1415614600576062915050612d5e565b8060ff1660fc1415614616576063915050612d5e565b8060ff1660fd141561462c576064915050612d5e565b8060ff1660fe1415614642576065915050612d5e565b8060ff1660ff1415614658576066915050612d5e565b50919050565b82805461466a906152f0565b90600052602060002090601f01602090048101928261468c57600085556146d2565b82601f106146a557805160ff19168380011785556146d2565b828001600101855582156146d2579182015b828111156146d25782518255916020019190600101906146b7565b506146de9291506146e2565b5090565b5b808211156146de57600081556001016146e3565b600082601f830112614707578081fd5b8135602061471c61471783615171565b615141565b8281528181019085830183850287018401881015614738578586fd5b855b8581101561475d5761474b826147c4565b8452928401929084019060010161473a565b5090979650505050505050565b600082601f83011261477a578081fd5b8135602061478a61471783615171565b82815281810190858301838502870184018810156147a6578586fd5b855b8581101561475d578135845292840192908401906001016147a8565b80356001600160e01b031981168114612d5e57600080fd5b60008083601f8401126147ed578182fd5b5081356001600160401b03811115614803578182fd5b60208301915083602082850101111561481b57600080fd5b9250929050565b600082601f830112614832578081fd5b81356001600160401b0381111561484b5761484b615356565b61485e601f8201601f1916602001615141565b818152846020838601011115614872578283fd5b816020850160208301379081016020019190915292915050565b60006020828403121561489d578081fd5b8135612d8c8161536c565b6000602082840312156148b9578081fd5b8151612d8c8161536c565b600080604083850312156148d6578081fd5b82356148e18161536c565b946020939093013593505050565b600060208284031215614900578081fd5b81518015158114612d8c578182fd5b600060208284031215614920578081fd5b5035919050565b600060208284031215614938578081fd5b5051919050565b6000806000806000806000806000806101408b8d03121561495e578586fd5b6149678b6147c4565b995060208b01356001600160401b0380821115614982578788fd5b61498e8e838f01614822565b9a5060408d01359150808211156149a3578788fd5b6149af8e838f01614822565b99506149bd60608e016147c4565b985060808d0135975060a08d01359150808211156149d9578687fd5b6149e58e838f01614822565b965060c08d0135955060e08d0135915080821115614a01578485fd5b614a0d8e838f01614822565b94506101008d0135915080821115614a23578384fd5b614a2f8e838f0161476a565b93506101208d0135915080821115614a45578283fd5b50614a528d828e0161476a565b9150509295989b9194979a5092959850565b600080600060408486031215614a78578283fd5b83356001600160401b0380821115614a8e578485fd5b614a9a878388016147dc565b90955093506020860135915080821115614ab2578283fd5b50614abf8682870161476a565b9150509250925092565b60008060008060008060008060006101208a8c031215614ae7578283fd5b89356001600160401b0380821115614afd578485fd5b614b098d838e01614822565b9a5060208c0135915080821115614b1e578485fd5b614b2a8d838e016146f7565b995060408c0135915080821115614b3f578485fd5b614b4b8d838e01614822565b985060608c0135915080821115614b60578485fd5b614b6c8d838e01614822565b975060808c0135915080821115614b81578485fd5b614b8d8d838e01614822565b965060a08c0135915080821115614ba2578485fd5b614bae8d838e01614822565b955060c08c0135915080821115614bc3578485fd5b614bcf8d838e016146f7565b945060e08c0135915080821115614be4578384fd5b614bf08d838e01614822565b93506101008c0135915080821115614c06578283fd5b50614c138c828d0161476a565b9150509295985092959850929598565b600080600080600060808688031215614c3a578283fd5b8535945060208601356001600160401b0380821115614c57578485fd5b614c6389838a01614822565b95506040880135915060058210614c78578485fd5b90935060608701359080821115614c8d578283fd5b50614c9a888289016147dc565b969995985093965092949392505050565b60008284528282602086013780602084860101526020601f19601f85011685010190509392505050565b60008151808452614ced8160208601602086016152c0565b601f01601f19169290920160200192915050565b60058110614d1f57634e487b7160e01b600052602160045260246000fd5b9052565b600063ffffffff60e01b80871683528551614d45816004860160208a016152c0565b855190840190614d5c816004840160208a016152c0565b919094169301600481019390935250506008019392505050565b60008251614d888184602087016152c0565b9190910192915050565b60008351614da48184602088016152c0565b6001600160f81b0319939093169190920190815260010192915050565b600085825284602083015260806040830152614de06080830185614cd5565b905082606083015295945050505050565b600060208252612d89602083018486614cab565b600060408252614e19604083018587614cab565b9050826020830152949350505050565b600060208252612d8c6020830184614cd5565b600060a08252614e4f60a0830188614cd5565b9050614e5e6020830187614d01565b8460408301528360608301528260808301529695505050505050565b606081528354600090819060028104600180831680614e9a57607f831692505b6020808410821415614eba57634e487b7160e01b87526022600452602487fd5b6060880184905260808801828015614ed95760018114614eea57614f14565b60ff19871682528282019750614f14565b60008d815260209020895b87811015614f0e57815484820152908601908401614ef5565b83019850505b50508701989098525050506040909201929092529392505050565b6020808252601b908201527f426974636f696e48656c7065723a20766f7574206973206e756c6c0000000000604082015260600190565b6020808252601d908201527f43434275726e526f757465723a2061646472657373206973207a65726f000000604082015260600190565b60208082526030908201527f43434275726e526f757465723a20676976656e206c6f636b696e67207363726960408201526f383a1034b9903737ba103637b1b5b2b960811b606082015260800190565b60208082526031908201527f43434275726e526f757465723a207061796261636b20646561646c696e652068604082015270185cc81b9bdd081c185cdcd959081e595d607a1b606082015260800190565b60208082526021908201527f43434275726e526f757465723a20696e76616c696420757365722073637269706040820152601d60fa1b606082015260800190565b6020808252818101527f4f776e61626c653a2063616c6c6572206973206e6f7420746865206f776e6572604082015260600190565b6020808252601f908201527f5265656e7472616e637947756172643a207265656e7472616e742063616c6c00604082015260600190565b600088825287602083015260018060a01b038716604083015260e0606083015261511860e0830187614cd5565b905084608083015283151560a083015261513560c0830184614d01565b98975050505050505050565b604051601f8201601f191681016001600160401b038111828210171561516957615169615356565b604052919050565b60006001600160401b0382111561518a5761518a615356565b5060209081020190565b600082198211156151a7576151a7615340565b500190565b60006001600160401b038083168185168083038211156151ce576151ce615340565b01949350505050565b600060ff821660ff84168060ff038211156151f4576151f4615340565b019392505050565b60006001600160601b038083168185168083038211156151ce576151ce615340565b60008261523957634e487b7160e01b81526012600452602481fd5b500490565b600081600019048311821515161561525857615258615340565b500290565b600060ff821660ff84168160ff048111821515161561527e5761527e615340565b029392505050565b60008282101561529857615298615340565b500390565b600060ff821660ff8416808210156152b7576152b7615340565b90039392505050565b60005b838110156152db5781810151838201526020016152c3565b838111156152ea576000848401525b50505050565b60028104600182168061530457607f821691505b6020821081141561465857634e487b7160e01b600052602260045260246000fd5b600060001982141561533957615339615340565b5060010190565b634e487b7160e01b600052601160045260246000fd5b634e487b7160e01b600052604160045260246000fd5b6001600160a01b0381168114611d5257600080fdfe416464726573733a206c6f772d6c6576656c2063616c6c20776974682076616c7565206661696c6564a26469706673582212200019254f6c25bd2430f552619a443917de1324360c409de481934acaaba0016864736f6c63430008020033",
  "devdoc": {
    "kind": "dev",
    "methods": {
      "burnProof(bytes4,bytes,bytes,bytes4,uint256,bytes,uint256,bytes,uint256[],uint256[])": {
        "details": "Makes isTransferred flag true for the paid requests",
        "params": {
          "_blockNumber": "Height of the block containing the burn transaction",
          "_burnReqIndexes": "Indexes of requests that locker wants to provide proof for them",
          "_index": "Index of transaction containing the burn transaction in the block",
          "_intermediateNodes": "Merkle inclusion proof for transaction containing the burn transaction",
          "_lockerLockingScript": "Locker's locking script (on Bitcoin) that this burn request belongs to",
          "_locktime": "Lock time of the transaction containing the burn transaction",
          "_version": "Version of the transaction containing the burn transaction",
          "_vin": "Inputs of the transaction containing the burn transaction",
          "_vout": "Outputs of the transaction containing the burn transaction",
          "_voutIndexes": "Indexes of outputs that were used to pay burn requests (_voutIndexes[i] belongs to _burnReqIndexes[i])"
        },
        "returns": {
          "_0": ""
        }
      },
      "ccBurn(uint256,bytes,uint8,bytes)": {
        "details": "After submitting the burn request, lockers have a limited time                                     to send BTC and provide burn proof",
        "params": {
          "_amount": "Amount of teleBTC that user wants to burn",
          "_lockerLockingScript": "Locking script of locker that should execute the burn request",
          "_userScript": "User's script"
        },
        "returns": {
          "_burntAmount": "               Amount of teleBTC that user will receive (after reducing fees)"
        }
      },
      "constructor": {
        "params": {
          "_bitcoinFee": "Fee of submitting a transaction on Bitcoin",
          "_lockers": "Address of lockers contract",
          "_protocolPercentageFee": "Percentage of tokens that user pays to protocol for burning",
          "_relay": "Address of relay contract",
          "_slasherPercentageReward": "Percentage of tokens that slasher receives after slashing a locker",
          "_transferDeadline": "Dealine of sending BTC to user (aster submitting a burn request)",
          "_treasury": "Address of the treasury of the protocol"
        }
      },
      "disputeBurn(bytes,uint256[])": {
        "params": {
          "_indices": "Array of indices of the requests that their deadline has passed",
          "_lockerLockingScript": "locker's locking script that the unpaid request belongs to"
        },
        "returns": {
          "_0": "True if dispute is successfull"
        }
      },
      "disputeLocker(bytes,bytes4[],bytes,bytes,bytes,bytes,bytes4[],bytes,uint256[])": {
        "details": "Input tx is a malicious tx which shows that locker spent BTC                                         Output tx is the tx that was spent by locker in input tx                                         Output tx --> money goes to locker --> Input tx --> locker steals the funds",
        "params": {
          "_indexesAndBlockNumbers": "Indices of malicious input in input tx, input tx in block and block number of input tx",
          "_inputIntermediateNodes": "Merkle inclusion proof for the malicious transaction",
          "_inputVin": "Inputs of the malicious transaction",
          "_inputVout": "Outputs of the malicious transaction",
          "_lockerLockingScript": "Suspicious locker's locking script",
          "_locktimes": "Locktimes of input and output tx",
          "_outputVin": "Inputs of the spent transaction",
          "_outputVout": "Outputs of the spent transaction",
          "_versions": "Versions of input and output tx"
        },
        "returns": {
          "_0": "True if dispute is successfull"
        }
      },
      "isTransferred(address,uint256)": {
        "params": {
          "_index": "The index of the request for the locker",
          "_lockerTargetAddress": "Locker's address on the target chain"
        }
      },
      "owner()": {
        "details": "Returns the address of the current owner."
      },
      "renounceOwnership()": {
        "details": "Leaves the contract without owner. It will not be possible to call `onlyOwner` functions anymore. Can only be called by the current owner. NOTE: Renouncing ownership will leave the contract without an owner, thereby removing any functionality that is only available to the owner."
      },
      "setBitcoinFee(uint256)": {
        "details": "Only owner can call this",
        "params": {
          "_bitcoinFee": "The new Bitcoin transaction fee"
        }
      },
      "setLockers(address)": {
        "details": "Only owner can call this",
        "params": {
          "_lockers": "The new lockers contract address"
        }
      },
      "setProtocolPercentageFee(uint256)": {
        "details": "Only owner can call this",
        "params": {
          "_protocolPercentageFee": "The new protocol percentage fee"
        }
      },
      "setRelay(address)": {
        "details": "Only owner can call this",
        "params": {
          "_relay": "The new relay contract address"
        }
      },
      "setSlasherPercentageReward(uint256)": {
        "details": "Only owner can call this",
        "params": {
          "_slasherPercentageReward": "The new slasher percentage reward"
        }
      },
      "setTeleBTC(address)": {
        "details": "Only owner can call this",
        "params": {
          "_teleBTC": "The new teleBTC contract address"
        }
      },
      "setTransferDeadline(uint256)": {
        "details": "Only owner can call this                                     Deadline shoudl be greater than relay finalization parameter",
        "params": {
          "_transferDeadline": "The new transfer deadline"
        }
      },
      "setTreasury(address)": {
        "details": "Only owner can call this",
        "params": {
          "_treasury": "The new treasury address"
        }
      },
      "transferOwnership(address)": {
        "details": "Transfers ownership of the contract to a new account (`newOwner`). Can only be called by the current owner."
      }
    },
    "version": 1
  },
  "userdoc": {
    "events": {
      "CCBurn(address,bytes,uint8,uint256,uint256,address,uint256,uint256)": {
        "notice": "Emits when a burn request gets submitted"
      },
      "LockerDispute(address,uint256,bytes32,uint256)": {
        "notice": "Emits when a locker gets slashed for withdrawing BTC without proper reason"
      },
      "PaidCCBurn(address,bytes,uint256,address,uint256)": {
        "notice": "Emits when a burn proof is provided"
      }
    },
    "kind": "user",
    "methods": {
      "burnProof(bytes4,bytes,bytes,bytes4,uint256,bytes,uint256,bytes,uint256[],uint256[])": {
        "notice": "Checks the correctness of burn proof"
      },
      "ccBurn(uint256,bytes,uint8,bytes)": {
        "notice": "Burns teleBTC and records the burn request"
      },
      "constructor": {
        "notice": "Handles cross-chain burn requests"
      },
      "disputeBurn(bytes,uint256[])": {
        "notice": "Slashes a locker if she did not paid a cc burn request before its deadline"
      },
      "disputeLocker(bytes,bytes4[],bytes,bytes,bytes,bytes,bytes4[],bytes,uint256[])": {
        "notice": "Slashes a locker if they issue a tx that doesn't match any burn request"
      },
      "isTransferred(address,uint256)": {
        "notice": "Shows if a burn request has been done or not"
      },
      "setBitcoinFee(uint256)": {
        "notice": "Changes Bitcoin transaction fee"
      },
      "setLockers(address)": {
        "notice": "Changes lockers contract address"
      },
      "setProtocolPercentageFee(uint256)": {
        "notice": "Changes protocol percentage fee for burning tokens"
      },
      "setRelay(address)": {
        "notice": "Changes relay contract address"
      },
      "setSlasherPercentageReward(uint256)": {
        "notice": "Changes slasher percentage reward for disputing lockers"
      },
      "setTeleBTC(address)": {
        "notice": "Changes teleBTC contract address"
      },
      "setTransferDeadline(uint256)": {
        "notice": "Changes deadline of executing burn requests"
      },
      "setTreasury(address)": {
        "notice": "Changes protocol treasury address"
      }
    },
    "version": 1
  },
  "storageLayout": {
    "storage": [
      {
        "astId": 807,
        "contract": "contracts/routers/CCBurnRouter.sol:CCBurnRouter",
        "label": "_owner",
        "offset": 0,
        "slot": "0",
        "type": "t_address"
      },
      {
        "astId": 1634,
        "contract": "contracts/routers/CCBurnRouter.sol:CCBurnRouter",
        "label": "_status",
        "offset": 0,
        "slot": "1",
        "type": "t_uint256"
      },
      {
        "astId": 19772,
        "contract": "contracts/routers/CCBurnRouter.sol:CCBurnRouter",
        "label": "relay",
        "offset": 0,
        "slot": "2",
        "type": "t_address"
      },
      {
        "astId": 19775,
        "contract": "contracts/routers/CCBurnRouter.sol:CCBurnRouter",
        "label": "lockers",
        "offset": 0,
        "slot": "3",
        "type": "t_address"
      },
      {
        "astId": 19778,
        "contract": "contracts/routers/CCBurnRouter.sol:CCBurnRouter",
        "label": "teleBTC",
        "offset": 0,
        "slot": "4",
        "type": "t_address"
      },
      {
        "astId": 19781,
        "contract": "contracts/routers/CCBurnRouter.sol:CCBurnRouter",
        "label": "treasury",
        "offset": 0,
        "slot": "5",
        "type": "t_address"
      },
      {
        "astId": 19784,
        "contract": "contracts/routers/CCBurnRouter.sol:CCBurnRouter",
        "label": "transferDeadline",
        "offset": 0,
        "slot": "6",
        "type": "t_uint256"
      },
      {
        "astId": 19787,
        "contract": "contracts/routers/CCBurnRouter.sol:CCBurnRouter",
        "label": "protocolPercentageFee",
        "offset": 0,
        "slot": "7",
        "type": "t_uint256"
      },
      {
        "astId": 19790,
        "contract": "contracts/routers/CCBurnRouter.sol:CCBurnRouter",
        "label": "slasherPercentageReward",
        "offset": 0,
        "slot": "8",
        "type": "t_uint256"
      },
      {
        "astId": 19793,
        "contract": "contracts/routers/CCBurnRouter.sol:CCBurnRouter",
        "label": "bitcoinFee",
        "offset": 0,
        "slot": "9",
        "type": "t_uint256"
      },
      {
        "astId": 19799,
        "contract": "contracts/routers/CCBurnRouter.sol:CCBurnRouter",
        "label": "burnRequests",
        "offset": 0,
        "slot": "10",
        "type": "t_mapping(t_address,t_array(t_struct(burnRequest)24101_storage)dyn_storage)"
      },
      {
        "astId": 19804,
        "contract": "contracts/routers/CCBurnRouter.sol:CCBurnRouter",
        "label": "isUsedAsBurnProof",
        "offset": 0,
        "slot": "11",
        "type": "t_mapping(t_bytes32,t_bool)"
      }
    ],
    "types": {
      "t_address": {
        "encoding": "inplace",
        "label": "address",
        "numberOfBytes": "20"
      },
      "t_array(t_struct(burnRequest)24101_storage)dyn_storage": {
        "base": "t_struct(burnRequest)24101_storage",
        "encoding": "dynamic_array",
        "label": "struct ICCBurnRouter.burnRequest[]",
        "numberOfBytes": "32"
      },
      "t_bool": {
        "encoding": "inplace",
        "label": "bool",
        "numberOfBytes": "1"
      },
      "t_bytes32": {
        "encoding": "inplace",
        "label": "bytes32",
        "numberOfBytes": "32"
      },
      "t_bytes_storage": {
        "encoding": "bytes",
        "label": "bytes",
        "numberOfBytes": "32"
      },
      "t_enum(ScriptTypes)24943": {
        "encoding": "inplace",
        "label": "enum ScriptTypes",
        "numberOfBytes": "1"
      },
      "t_mapping(t_address,t_array(t_struct(burnRequest)24101_storage)dyn_storage)": {
        "encoding": "mapping",
        "key": "t_address",
        "label": "mapping(address => struct ICCBurnRouter.burnRequest[])",
        "numberOfBytes": "32",
        "value": "t_array(t_struct(burnRequest)24101_storage)dyn_storage"
      },
      "t_mapping(t_bytes32,t_bool)": {
        "encoding": "mapping",
        "key": "t_bytes32",
        "label": "mapping(bytes32 => bool)",
        "numberOfBytes": "32",
        "value": "t_bool"
      },
      "t_struct(burnRequest)24101_storage": {
        "encoding": "inplace",
        "label": "struct ICCBurnRouter.burnRequest",
        "members": [
          {
            "astId": 24087,
            "contract": "contracts/routers/CCBurnRouter.sol:CCBurnRouter",
            "label": "amount",
            "offset": 0,
            "slot": "0",
            "type": "t_uint256"
          },
          {
            "astId": 24089,
            "contract": "contracts/routers/CCBurnRouter.sol:CCBurnRouter",
            "label": "burntAmount",
            "offset": 0,
            "slot": "1",
            "type": "t_uint256"
          },
          {
            "astId": 24091,
            "contract": "contracts/routers/CCBurnRouter.sol:CCBurnRouter",
            "label": "sender",
            "offset": 0,
            "slot": "2",
            "type": "t_address"
          },
          {
            "astId": 24093,
            "contract": "contracts/routers/CCBurnRouter.sol:CCBurnRouter",
            "label": "userScript",
            "offset": 0,
            "slot": "3",
            "type": "t_bytes_storage"
          },
          {
            "astId": 24095,
            "contract": "contracts/routers/CCBurnRouter.sol:CCBurnRouter",
            "label": "deadline",
            "offset": 0,
            "slot": "4",
            "type": "t_uint256"
          },
          {
            "astId": 24097,
            "contract": "contracts/routers/CCBurnRouter.sol:CCBurnRouter",
            "label": "isTransferred",
            "offset": 0,
            "slot": "5",
            "type": "t_bool"
          },
          {
            "astId": 24100,
            "contract": "contracts/routers/CCBurnRouter.sol:CCBurnRouter",
            "label": "scriptType",
            "offset": 1,
            "slot": "5",
            "type": "t_enum(ScriptTypes)24943"
          }
        ],
        "numberOfBytes": "192"
      },
      "t_uint256": {
        "encoding": "inplace",
        "label": "uint256",
        "numberOfBytes": "32"
      }
    }
  }
}