{
  "address": "0x72B40d73d4eb6Bc3e5cCDF75B2E1ca8d209F84bd",
  "abi": [
    {
      "inputs": [
        {
          "internalType": "uint256",
          "name": "_startingBlockNumber",
          "type": "uint256"
        },
        {
          "internalType": "uint256",
          "name": "_protocolPercentageFee",
          "type": "uint256"
        },
        {
          "internalType": "uint256",
          "name": "_chainId",
          "type": "uint256"
        },
        {
          "internalType": "address",
          "name": "_lockers",
          "type": "address"
        },
        {
          "internalType": "address",
          "name": "_relay",
          "type": "address"
        },
        {
          "internalType": "address",
          "name": "_teleBTC",
          "type": "address"
        },
        {
          "internalType": "address",
          "name": "_treasury",
          "type": "address"
        }
      ],
      "stateMutability": "nonpayable",
      "type": "constructor"
    },
    {
      "anonymous": false,
      "inputs": [
        {
          "indexed": true,
          "internalType": "address",
          "name": "user",
          "type": "address"
        },
        {
          "indexed": false,
          "internalType": "address",
          "name": "inputToken",
          "type": "address"
        },
        {
          "indexed": true,
          "internalType": "address",
          "name": "outputToken",
          "type": "address"
        },
        {
          "indexed": false,
          "internalType": "uint256",
          "name": "inputAmount",
          "type": "uint256"
        },
        {
          "indexed": false,
          "internalType": "uint256",
          "name": "outputAmount",
          "type": "uint256"
        },
        {
          "indexed": true,
          "internalType": "uint256",
          "name": "speed",
          "type": "uint256"
        },
        {
          "indexed": false,
          "internalType": "address",
          "name": "teleporter",
          "type": "address"
        },
        {
          "indexed": false,
          "internalType": "uint256",
          "name": "teleporterFee",
          "type": "uint256"
        }
      ],
      "name": "CCExchange",
      "type": "event"
    },
    {
      "anonymous": false,
      "inputs": [
        {
          "indexed": false,
          "internalType": "address",
          "name": "recipientAddress",
          "type": "address"
        },
        {
          "indexed": false,
          "internalType": "uint256",
          "name": "remainedInputAmount",
          "type": "uint256"
        }
      ],
      "name": "FailedCCExchange",
      "type": "event"
    },
    {
      "anonymous": false,
      "inputs": [
        {
          "indexed": true,
          "internalType": "address",
          "name": "previousOwner",
          "type": "address"
        },
        {
          "indexed": true,
          "internalType": "address",
          "name": "newOwner",
          "type": "address"
        }
      ],
      "name": "OwnershipTransferred",
      "type": "event"
    },
    {
      "anonymous": false,
      "inputs": [
        {
          "indexed": false,
          "internalType": "uint256",
          "name": "appId",
          "type": "uint256"
        },
        {
          "indexed": false,
          "internalType": "address",
          "name": "exchangeConnector",
          "type": "address"
        }
      ],
      "name": "SetExchangeConnector",
      "type": "event"
    },
    {
      "inputs": [
        {
          "internalType": "bytes4",
          "name": "_version",
          "type": "bytes4"
        },
        {
          "internalType": "bytes",
          "name": "_vin",
          "type": "bytes"
        },
        {
          "internalType": "bytes",
          "name": "_vout",
          "type": "bytes"
        },
        {
          "internalType": "bytes4",
          "name": "_locktime",
          "type": "bytes4"
        },
        {
          "internalType": "uint256",
          "name": "_blockNumber",
          "type": "uint256"
        },
        {
          "internalType": "bytes",
          "name": "_intermediateNodes",
          "type": "bytes"
        },
        {
          "internalType": "uint256",
          "name": "_index",
          "type": "uint256"
        },
        {
          "internalType": "bytes",
          "name": "_lockerLockingScript",
          "type": "bytes"
        }
      ],
      "name": "ccExchange",
      "outputs": [
        {
          "internalType": "bool",
          "name": "",
          "type": "bool"
        }
      ],
      "stateMutability": "payable",
      "type": "function"
    },
    {
      "inputs": [],
      "name": "chainId",
      "outputs": [
        {
          "internalType": "uint256",
          "name": "",
          "type": "uint256"
        }
      ],
      "stateMutability": "view",
      "type": "function"
    },
    {
      "inputs": [
        {
          "internalType": "uint256",
          "name": "",
          "type": "uint256"
        }
      ],
      "name": "exchangeConnector",
      "outputs": [
        {
          "internalType": "address",
          "name": "",
          "type": "address"
        }
      ],
      "stateMutability": "view",
      "type": "function"
    },
    {
      "inputs": [],
      "name": "instantRouter",
      "outputs": [
        {
          "internalType": "address",
          "name": "",
          "type": "address"
        }
      ],
      "stateMutability": "view",
      "type": "function"
    },
    {
      "inputs": [
        {
          "internalType": "bytes32",
          "name": "_txId",
          "type": "bytes32"
        }
      ],
      "name": "isRequestUsed",
      "outputs": [
        {
          "internalType": "bool",
          "name": "",
          "type": "bool"
        }
      ],
      "stateMutability": "view",
      "type": "function"
    },
    {
      "inputs": [],
      "name": "lockers",
      "outputs": [
        {
          "internalType": "address",
          "name": "",
          "type": "address"
        }
      ],
      "stateMutability": "view",
      "type": "function"
    },
    {
      "inputs": [],
      "name": "owner",
      "outputs": [
        {
          "internalType": "address",
          "name": "",
          "type": "address"
        }
      ],
      "stateMutability": "view",
      "type": "function"
    },
    {
      "inputs": [],
      "name": "protocolPercentageFee",
      "outputs": [
        {
          "internalType": "uint256",
          "name": "",
          "type": "uint256"
        }
      ],
      "stateMutability": "view",
      "type": "function"
    },
    {
      "inputs": [],
      "name": "relay",
      "outputs": [
        {
          "internalType": "address",
          "name": "",
          "type": "address"
        }
      ],
      "stateMutability": "view",
      "type": "function"
    },
    {
      "inputs": [],
      "name": "renounceOwnership",
      "outputs": [],
      "stateMutability": "nonpayable",
      "type": "function"
    },
    {
      "inputs": [
        {
          "internalType": "uint256",
          "name": "_appId",
          "type": "uint256"
        },
        {
          "internalType": "address",
          "name": "_exchangeConnector",
          "type": "address"
        }
      ],
      "name": "setExchangeConnector",
      "outputs": [],
      "stateMutability": "nonpayable",
      "type": "function"
    },
    {
      "inputs": [
        {
          "internalType": "address",
          "name": "_instantRouter",
          "type": "address"
        }
      ],
      "name": "setInstantRouter",
      "outputs": [],
      "stateMutability": "nonpayable",
      "type": "function"
    },
    {
      "inputs": [
        {
          "internalType": "address",
          "name": "_lockers",
          "type": "address"
        }
      ],
      "name": "setLockers",
      "outputs": [],
      "stateMutability": "nonpayable",
      "type": "function"
    },
    {
      "inputs": [
        {
          "internalType": "uint256",
          "name": "_protocolPercentageFee",
          "type": "uint256"
        }
      ],
      "name": "setProtocolPercentageFee",
      "outputs": [],
      "stateMutability": "nonpayable",
      "type": "function"
    },
    {
      "inputs": [
        {
          "internalType": "address",
          "name": "_relay",
          "type": "address"
        }
      ],
      "name": "setRelay",
      "outputs": [],
      "stateMutability": "nonpayable",
      "type": "function"
    },
    {
      "inputs": [
        {
          "internalType": "address",
          "name": "_teleBTC",
          "type": "address"
        }
      ],
      "name": "setTeleBTC",
      "outputs": [],
      "stateMutability": "nonpayable",
      "type": "function"
    },
    {
      "inputs": [
        {
          "internalType": "address",
          "name": "_treasury",
          "type": "address"
        }
      ],
      "name": "setTreasury",
      "outputs": [],
      "stateMutability": "nonpayable",
      "type": "function"
    },
    {
      "inputs": [],
      "name": "startingBlockNumber",
      "outputs": [
        {
          "internalType": "uint256",
          "name": "",
          "type": "uint256"
        }
      ],
      "stateMutability": "view",
      "type": "function"
    },
    {
      "inputs": [],
      "name": "teleBTC",
      "outputs": [
        {
          "internalType": "address",
          "name": "",
          "type": "address"
        }
      ],
      "stateMutability": "view",
      "type": "function"
    },
    {
      "inputs": [
        {
          "internalType": "address",
          "name": "newOwner",
          "type": "address"
        }
      ],
      "name": "transferOwnership",
      "outputs": [],
      "stateMutability": "nonpayable",
      "type": "function"
    },
    {
      "inputs": [],
      "name": "treasury",
      "outputs": [
        {
          "internalType": "address",
          "name": "",
          "type": "address"
        }
      ],
      "stateMutability": "view",
      "type": "function"
    }
  ],
  "transactionHash": "0xd5af8eb095b9fdb8eee8d4311afd698c0add76500a32f53c89592d59670fd4dc",
  "args": [
    "2344636",
    50,
    3,
    "0x402900cfc188a44e23118a4452Af485E9Bb00b81",
    "0x3c0dc39dD04717510359c231f11bA28C9e4Bfb22",
    "0xD9472041c61Fb6d33F94A6D7EA4a496226349788",
    "0x5364E3557572bd5D5903C0e9C21BE359F2Eac1dA"
  ],
  "numDeployments": 1,
  "solcInputHash": "e7939e14552e724dbcf98b821fe06d72",
  "bytecode": "0x60806040523480156200001157600080fd5b506040516200420b3803806200420b83398101604081905262000034916200017e565b6200003f3362000111565b6001805560028790556004869055612710861115620000b55760405162461bcd60e51b815260206004820152602860248201527f434345786368616e6765526f757465723a20696e76616c69642070657263656e604482015267746167652066656560c01b606482015260840160405180910390fd5b600394909455600580546001600160a01b03199081166001600160a01b03948516179091556007805482169484169490941790935560088054841691831691909117905560098054909216921691909117905550620001f79050565b600080546001600160a01b038381166001600160a01b0319831681178455604051919092169283917f8be0079c531659141344cd1fd0a4f28419497f9722a3daafe3b4186f6b6457e09190a35050565b80516001600160a01b03811681146200017957600080fd5b919050565b600080600080600080600060e0888a03121562000199578283fd5b875196506020880151955060408801519450620001b96060890162000161565b9350620001c96080890162000161565b9250620001d960a0890162000161565b9150620001e960c0890162000161565b905092959891949750929550565b61400480620002076000396000f3fe60806040526004361061012a5760003560e01c806380bc4726116100ab578063b14d35321161006f578063b14d35321461032a578063b59589d11461034a578063c805f68b1461036a578063e35a0a881461038a578063f0f44260146103aa578063f2fde38b146103ca5761012a565b806380bc472614610296578063870ba6cf146102b65780638d3d78cd146102d65780638da5cb5b146102f65780639a8a0592146103145761012a565b80636e8adf61116100f25780636e8adf61146101f557806370872aa51461022b578063715018a6146102415780637ed55748146102565780637f0f1817146102765761012a565b806314e0c15f1461012f5780631812adb6146101575780631876dec41461017b57806361d027b3146101b35780636b2857ef146101d3575b600080fd5b61014261013d3660046139a7565b6103ea565b60405190151581526020015b60405180910390f35b34801561016357600080fd5b5061016d60045481565b60405190815260200161014e565b34801561018757600080fd5b5060075461019b906001600160a01b031681565b6040516001600160a01b03909116815260200161014e565b3480156101bf57600080fd5b5060095461019b906001600160a01b031681565b3480156101df57600080fd5b506101f36101ee366004613a9c565b6107c2565b005b34801561020157600080fd5b5061019b610210366004613977565b600a602052600090815260409020546001600160a01b031681565b34801561023757600080fd5b5061016d60025481565b34801561024d57600080fd5b506101f3610852565b34801561026257600080fd5b506101f3610271366004613977565b610888565b34801561028257600080fd5b506101f361029136600461386c565b610917565b3480156102a257600080fd5b506101426102b1366004613977565b61098b565b3480156102c257600080fd5b506101f36102d136600461386c565b6109b6565b3480156102e257600080fd5b5060085461019b906001600160a01b031681565b34801561030257600080fd5b506000546001600160a01b031661019b565b34801561032057600080fd5b5061016d60035481565b34801561033657600080fd5b506101f361034536600461386c565b610a2a565b34801561035657600080fd5b5060055461019b906001600160a01b031681565b34801561037657600080fd5b506101f361038536600461386c565b610a9e565b34801561039657600080fd5b5060065461019b906001600160a01b031681565b3480156103b657600080fd5b506101f36103c536600461386c565b610b12565b3480156103d657600080fd5b506101f36103e536600461386c565b610b86565b6000600260015414156104445760405162461bcd60e51b815260206004820152601f60248201527f5265656e7472616e637947756172643a207265656e7472616e742063616c6c0060448201526064015b60405180910390fd5b60026001819055548710156104a75760405162461bcd60e51b8152602060048201526024808201527f434345786368616e6765526f757465723a207265717565737420697320746f6f604482015263081bdb1960e21b606482015260840161043b565b60006104ec8d8d8d8d8080601f0160208091040260200160405190810160405280939291908181526020018383808284376000920191909152508f9250610c21915050565b6000818152600b602052604090206005015490915060ff161561056c5760405162461bcd60e51b815260206004820152603260248201527f434345786368616e6765526f757465723a20746865207265717565737420686160448201527173206265656e2075736564206265666f726560701b606482015260840161043b565b6001600160e01b03198916156105d45760405162461bcd60e51b815260206004820152602760248201527f434345786368616e6765526f757465723a206c6f636b2074696d65206973206e6044820152666f6e2d7a65726f60c81b606482015260840161043b565b61065a84848080601f016020809104026020016040519081016040528093929190818152602001838380828437600081840152601f19601f820116905080830192505050505050508c8c8080601f016020809104026020016040519081016040528093929190818152602001838380828437600092019190915250869250610d22915050565b61069d818989898080601f0160208091040260200160405190810160405280939291908181526020018383808284376000920191909152508b9250611279915050565b61070f5760405162461bcd60e51b815260206004820152603860248201527f434345786368616e6765526f757465723a207472616e73616374696f6e20686160448201527f73206e6f74206265656e2066696e616c697a6564207965740000000000000000606482015260840161043b565b6000818152600b602052604090206008015461076b5761076684848080601f0160208091040260200160405190810160405280939291908181526020018383808284376000920191909152508592506113ee915050565b6107ac565b6107ac84848080601f016020809104026020016040519081016040528093929190818152602001838380828437600092019190915250859250611cdd915050565b505060018080559b9a5050505050505050505050565b6000546001600160a01b031633146107ec5760405162461bcd60e51b815260040161043b90613ca0565b6000828152600a602090815260409182902080546001600160a01b0319166001600160a01b0385169081179091558251858152918201527f31a8c4e62daac2a3ed5d713004d9ae867d6dcddfa35603db2a4b65d9236b1bc1910160405180910390a15050565b6000546001600160a01b0316331461087c5760405162461bcd60e51b815260040161043b90613ca0565b6108866000611e17565b565b6000546001600160a01b031633146108b25760405162461bcd60e51b815260040161043b90613ca0565b8061271010156109125760405162461bcd60e51b815260206004820152602560248201527f434345786368616e6765526f757465723a20666565206973206f7574206f662060448201526472616e676560d81b606482015260840161043b565b600455565b806001600160a01b03811661093e5760405162461bcd60e51b815260040161043b90613c5f565b6000546001600160a01b031633146109685760405162461bcd60e51b815260040161043b90613ca0565b50600880546001600160a01b0319166001600160a01b0392909216919091179055565b6000818152600b602052604081206005015460ff166109ab5760006109ae565b60015b90505b919050565b806001600160a01b0381166109dd5760405162461bcd60e51b815260040161043b90613c5f565b6000546001600160a01b03163314610a075760405162461bcd60e51b815260040161043b90613ca0565b50600680546001600160a01b0319166001600160a01b0392909216919091179055565b806001600160a01b038116610a515760405162461bcd60e51b815260040161043b90613c5f565b6000546001600160a01b03163314610a7b5760405162461bcd60e51b815260040161043b90613ca0565b50600780546001600160a01b0319166001600160a01b0392909216919091179055565b806001600160a01b038116610ac55760405162461bcd60e51b815260040161043b90613c5f565b6000546001600160a01b03163314610aef5760405162461bcd60e51b815260040161043b90613ca0565b50600580546001600160a01b0319166001600160a01b0392909216919091179055565b806001600160a01b038116610b395760405162461bcd60e51b815260040161043b90613c5f565b6000546001600160a01b03163314610b635760405162461bcd60e51b815260040161043b90613ca0565b50600980546001600160a01b0319166001600160a01b0392909216919091179055565b6000546001600160a01b03163314610bb05760405162461bcd60e51b815260040161043b90613ca0565b6001600160a01b038116610c155760405162461bcd60e51b815260206004820152602660248201527f4f776e61626c653a206e6577206f776e657220697320746865207a65726f206160448201526564647265737360d01b606482015260840161043b565b610c1e81611e17565b50565b600080600286868686604051602001610c3d9493929190613b3d565b60408051601f1981840301815290829052610c5791613b90565b602060405180830381855afa158015610c74573d6000803e3d6000fd5b5050506040513d601f19601f82011682018060405250810190610c97919061398f565b90506000600282604051602001610cb091815260200190565b60408051601f1981840301815290829052610cca91613b90565b602060405180830381855afa158015610ce7573d6000803e3d6000fd5b5050506040513d601f19601f82011682018060405250810190610d0a919061398f565b9050610d1581611e67565b925050505b949350505050565b60075460405163aff2faa360e01b81526001600160a01b039091169063aff2faa390610d52908690600401613c1e565b60206040518083038186803b158015610d6a57600080fd5b505afa158015610d7e573d6000803e3d6000fd5b505050506040513d601f19601f82011682018060405250810190610da291906138a4565b610e145760405162461bcd60e51b815260206004820152603860248201527f434345786368616e6765526f757465723a206e6f206c6f636b6572207769746860448201527f2067697665207363726970742068617368206578697374730000000000000000606482015260840161043b565b610e7760405180610140016040528060008152602001600081526020016000815260200160001515815260200160006001600160a01b03168152602001600081526020016000151581526020016060815260200160008152602001600081525090565b6060610e838486611ee7565b6001600160401b0390911660208401819052909150610ef35760405162461bcd60e51b815260206004820152602660248201527f434345786368616e6765526f757465723a20696e70757420616d6f756e74206960448201526573207a65726f60d01b606482015260840161043b565b610efc8161205e565b60ff1660035414610f615760405162461bcd60e51b815260206004820152602960248201527f434345786368616e6765526f757465723a20636861696e206964206973206e6f6044820152681d0818dbdc9c9958dd60ba1b606482015260840161043b565b610f6a81612078565b61ffff1682526000610f7b82612093565b9050610f86826120ae565b6001600160e01b03166040840152610f9d826120c9565b60ff16610fb05760006060840152610fb8565b600160608401525b610fc1826120d8565b6001600160a01b03166080840152604080516002808252606082018352600092602083019080368337505060085482519293506001600160a01b03169183915060009061101e57634e487b7160e01b600052603260045260246000fd5b60200260200101906001600160a01b031690816001600160a01b031681525050818160018151811061106057634e487b7160e01b600052603260045260246000fd5b6001600160a01b039092166020928302919091019091015260e08401819052611088836120e8565b63ffffffff16610100850152600061109f84612103565b61ffff169050612710811061110e5760405162461bcd60e51b815260206004820152602f60248201527f434345786368616e6765526f757465723a2070657263656e746167652066656560448201526e081a5cc81b9bdd0818dbdc9c9958dd608a1b606482015260840161043b565b6127108560200151826111219190613e73565b61112b9190613e53565b60a086015261113984612113565b60ff166101208601819052158061115557508461012001516001145b6111b05760405162461bcd60e51b815260206004820152602660248201527f434345786368616e6765526f757465723a207370656564206973206e6f7420636044820152651bdc9c9958dd60d21b606482015260840161043b565b600160c086018181526000888152600b602090815260409182902089518155818a015194810194909455908801516002840155606088015160038401805460808b01516001600160a01b031661010002610100600160a81b031993151560ff19928316179390931692909217905560a089015160048501559151600584018054911515919093161790915560e0870151805188939261125692600685019291019061371a565b506101008201516007820155610120909101516008909101555050505050505050565b60055460405163d0a8973960e01b8152600481018590526000602482018190529182916001600160a01b039091169063d0a897399060440160206040518083038186803b1580156112c957600080fd5b505afa1580156112dd573d6000803e3d6000fd5b505050506040513d601f19601f82011682018060405250810190611301919061398f565b9050803410156113685760405162461bcd60e51b815260206004820152602c60248201527f434345786368616e6765526f757465723a207061696420666565206973206e6f60448201526b1d081cdd59999a58da595b9d60a21b606482015260840161043b565b6005546040516000916113c5916001600160a01b0390911690611395908a908a908a908a90602401613bee565b60408051601f198184030181529190526020810180516001600160e01b0316634354da2560e01b17905284612122565b90506113da336113d58434613ebb565b612152565b80806020019051810190610d1591906138a4565b60006113fa8383612270565b6000838152600b60209081526040808320548352600a909152812054919250906060906001600160a01b0316806114825760405162461bcd60e51b815260206004820152602660248201527f434345786368616e6765526f757465723a2061707020696420646f65736e277460448201526508195e1a5cdd60d21b606482015260840161043b565b60085460405163095ea7b360e01b81526001600160a01b038381166004830152602482018790529091169063095ea7b390604401602060405180830381600087803b1580156114d057600080fd5b505af11580156114e4573d6000803e3d6000fd5b505050506040513d601f19601f8201168201806040525081019061150891906138a4565b506000858152600b60205260409081902090516326d2f28960e21b81526001600160a01b03831691639b4bca24916115469160060190600401613bdb565b60206040518083038186803b15801561155e57600080fd5b505afa158015611572573d6000803e3d6000fd5b505050506040513d601f19601f8201168201806040525081019061159691906138a4565b1561165c576000858152600b602052604090819020600281015460038201546007830154935163161779b160e31b81526001600160a01b038087169563b0bbcd88956115fc958c959094600690920193610100820416929160ff90911690600401613d51565b600060405180830381600087803b15801561161657600080fd5b505af115801561162a573d6000803e3d6000fd5b505050506040513d6000823e601f3d908101601f1916820160405261165291908101906138be565b90935091506118e6565b60408051600380825260808201909252600091602082016060803683375050506000878152600b602052604081206006018054929350916116ad57634e487b7160e01b600052603260045260246000fd5b600091825260208220015482516001600160a01b039091169183916116e257634e487b7160e01b600052603260045260246000fd5b60200260200101906001600160a01b031690816001600160a01b031681525050816001600160a01b03166317fcb39b6040518163ffffffff1660e01b815260040160206040518083038186803b15801561173b57600080fd5b505afa15801561174f573d6000803e3d6000fd5b505050506040513d601f19601f820116820180604052508101906117739190613888565b8160018151811061179457634e487b7160e01b600052603260045260246000fd5b6001600160a01b039092166020928302919091018201526000878152600b90915260409020600601805460019081106117dd57634e487b7160e01b600052603260045260246000fd5b9060005260206000200160009054906101000a90046001600160a01b03168160028151811061181c57634e487b7160e01b600052603260045260246000fd5b6001600160a01b039283166020918202929092018101919091526000888152600b90915260409081902060028101546003820154600790920154925163161779b160e31b81528685169463b0bbcd8894611889948c94938993610100830416929160ff1690600401613cd5565b600060405180830381600087803b1580156118a357600080fd5b505af11580156118b7573d6000803e3d6000fd5b505050506040513d6000823e601f3d908101601f191682016040526118df91908101906138be565b9094509250505b8215611b55576000858152600b60205260409020600881015460069091018054600190811061192557634e487b7160e01b600052603260045260246000fd5b6000918252602080832090910154888352600b909152604082206003810154600690910180546001600160a01b0393841694610100909304909316927fd8d3e21a38fb9ddcfc565540f77b34cbbb084b7c985fc19fae34d906cd38687e929061199e57634e487b7160e01b600052603260045260246000fd5b600091825260208220015487516001600160a01b039091169188916119d357634e487b7160e01b600052603260045260246000fd5b602002602001015187600189516119ea9190613ebb565b81518110611a0857634e487b7160e01b600052603260045260246000fd5b60209081029190910181015160008d8152600b83526040908190206004015481516001600160a01b0396909616865292850193909352838301523360608401526080830152519081900360a00190a46000858152600b602052604090206003015460ff16611b50576008546000868152600b602052604081206003015484516001600160a01b039384169363a9059cbb9361010090930416918691611abd57634e487b7160e01b600052603260045260246000fd5b602002602001015187611ad09190613ebb565b6040516001600160e01b031960e085901b1681526001600160a01b0390921660048301526024820152604401602060405180830381600087803b158015611b1657600080fd5b505af1158015611b2a573d6000803e3d6000fd5b505050506040513d601f19601f82011682018060405250810190611b4e91906138a4565b505b611cd5565b60085460405163095ea7b360e01b81526001600160a01b038381166004830152600060248301529091169063095ea7b390604401602060405180830381600087803b158015611ba357600080fd5b505af1158015611bb7573d6000803e3d6000fd5b505050506040513d601f19601f82011682018060405250810190611bdb91906138a4565b506008546000868152600b60205260409081902060030154905163a9059cbb60e01b81526001600160a01b03610100909204821660048201526024810187905291169063a9059cbb90604401602060405180830381600087803b158015611c4157600080fd5b505af1158015611c55573d6000803e3d6000fd5b505050506040513d601f19601f82011682018060405250810190611c7991906138a4565b506000858152600b60209081526040918290206003015482516101009091046001600160a01b031681529081018690527f5d4c9311244204dc396691a2d73d8de63442225c2b160995afdd0bc508c033ad910160405180910390a15b505050505050565b6000611ce98383612270565b60085460065460405163095ea7b360e01b81526001600160a01b03918216600482015260248101849052929350169063095ea7b390604401602060405180830381600087803b158015611d3b57600080fd5b505af1158015611d4f573d6000803e3d6000fd5b505050506040513d601f19601f82011682018060405250810190611d7391906138a4565b506006546000838152600b602052604090819020600301549051631b6396ab60e31b81526001600160a01b03610100909204821660048201526024810184905291169063db1cb55890604401602060405180830381600087803b158015611dd957600080fd5b505af1158015611ded573d6000803e3d6000fd5b505050506040513d601f19601f82011682018060405250810190611e1191906138a4565b50505050565b600080546001600160a01b038381166001600160a01b0319831681178455604051919092169283917f8be0079c531659141344cd1fd0a4f28419497f9722a3daafe3b4186f6b6457e09190a35050565b6000606081805b6020811015611edb578285611e8483601f613ebb565b60208110611ea257634e487b7160e01b600052603260045260246000fd5b1a60f81b604051602001611eb7929190613bac565b60405160208183030381529060405292508080611ed390613f49565b915050611e6e565b50506020015192915050565b6000606081611f04611ef9868361248b565b62ffffff19166124b1565b905062ffffff198082161415611f555760405162461bcd60e51b8152602060048201526016602482015275151e12195b1c195c8e881d9bdd5d081a5cc81b9d5b1b60521b604482015260640161043b565b6000806000806000611f688660006125db565b6001600160401b0316905060005b8181101561205057611f88878261270c565b9550611f9386612823565b9450611f9e86612880565b9350611fa9846128ca565b925062ffffff19808416141561202c5789604051602001611fca9190613b90565b60405160208183030381529060405280519060200120611fef8662ffffff1916612999565b604051602001611fff9190613b90565b60405160208183030381529060405280519060200120141561202757612024866129e9565b98505b61203e565b61203b62ffffff198416612999565b97505b8061204881613f49565b915050611f76565b505050505050509250929050565b60008061206d83600080612a0b565b600101519392505050565b6000806120888360016002612a0b565b600201519392505050565b6000806120a383601a602d612a0b565b601401519392505050565b6000806120be83602e6049612a0b565b601c01519392505050565b60008061206d83604e80612a0b565b6000806120a38360036016612a0b565b6000806120f883604a604d612a0b565b600401519392505050565b6000806120888360176018612a0b565b60008061206d83601980612a0b565b6060612148848484604051806060016040528060298152602001613fa660299139612a90565b90505b9392505050565b804710156121a25760405162461bcd60e51b815260206004820152601d60248201527f416464726573733a20696e73756666696369656e742062616c616e6365000000604482015260640161043b565b6000826001600160a01b03168260405160006040518083038185875af1925050503d80600081146121ef576040519150601f19603f3d011682016040523d82523d6000602084013e6121f4565b606091505b505090508061226b5760405162461bcd60e51b815260206004820152603a60248201527f416464726573733a20756e61626c6520746f2073656e642076616c75652c207260448201527f6563697069656e74206d61792068617665207265766572746564000000000000606482015260840161043b565b505050565b6007546000828152600b60205260408082206001015490516307f3f86760e21b8152919283926001600160a01b0390911691631fcfe19c916122b9918891309190600401613c31565b602060405180830381600087803b1580156122d357600080fd5b505af11580156122e7573d6000803e3d6000fd5b505050506040513d601f19601f8201168201806040525081019061230b919061398f565b6004546000858152600b6020526040812060010154929350916127109161233191613e73565b61233b9190613e53565b6000858152600b602052604090206004015490915080156123dc5760085460405163a9059cbb60e01b8152336004820152602481018390526001600160a01b039091169063a9059cbb90604401602060405180830381600087803b1580156123a257600080fd5b505af11580156123b6573d6000803e3d6000fd5b505050506040513d601f19601f820116820180604052508101906123da91906138a4565b505b811561246c5760085460095460405163a9059cbb60e01b81526001600160a01b0391821660048201526024810185905291169063a9059cbb90604401602060405180830381600087803b15801561243257600080fd5b505af1158015612446573d6000803e3d6000fd5b505050506040513d601f19601f8201168201806040525081019061246a91906138a4565b505b806124778385613ebb565b6124819190613ebb565b9695505050505050565b8151600090602084016124a664ffffffffff85168284612bad565b925050505b92915050565b600081816124c7815b62ffffff19841690612bf1565b50601884901c6001600160601b03166124e65762ffffff1992506125d4565b60006124f38560006125db565b9050601885901c6001600160601b03166001600160401b0382166125205762ffffff195b945050506125d4565b600061252b83612ccb565b60ff16905060005b836001600160401b03168110156125a45782821061255b5762ffffff199650505050506125d4565b600061257961256a8486613ebb565b62ffffff198b1690600e612d24565b905061258481612d58565b61258e9084613dc9565b925050808061259c90613f49565b915050612533565b508181146125bb5762ffffff1995505050506125d4565b6301000000600160d81b038716600f60d81b1795505050505b5050919050565b6000806125f062ffffff198516846001612da1565b905060fc81116126015790506124ab565b8060fd141561265f57612627612618846001613dc9565b62ffffff198616906002612dd1565b915061263282612ccb565b60ff1660031461265a5761265861265362ffffff1986168560036000612f1b565b612f8b565b505b612705565b8060fe14156126b157612685612676846001613dc9565b62ffffff198616906004612dd1565b915061269082612ccb565b60ff1660051461265a5761265861265362ffffff1986168560056000612f1b565b8060ff1415612705576126d76126c8846001613dc9565b62ffffff198616906008612dd1565b91506126e282612ccb565b60ff166009146127055761270361265362ffffff1986168560096000612f1b565b505b5092915050565b600082600f61271a816124ba565b5060006127288660006125db565b6001600160401b03169050601886901c6001600160601b03168186106127845760405162461bcd60e51b81526020600482015260116024820152702b37baba103932b0b21037bb32b9393ab760791b604482015260640161043b565b600061278f83612ccb565b60ff1690506000805b888110156127e5576127bc6127ad8486613ebb565b62ffffff198c1690600e612d24565b91506127c782612d58565b6127d19084613dc9565b92506127de600182613dc9565b9050612798565b506127f361256a8385613ebb565b9050600061280082612d58565b905061281562ffffff198b168483600d612f1b565b9a9950505050505050505050565b600081600d612831816124ba565b50600061283f8560086125db565b905061287761284d82612ccb565b612858906008613e0c565b60ff166001600160401b03831660075b62ffffff198916929190612f1b565b95945050505050565b600081600d61288e816124ba565b50600061289c8560086125db565b90506128776008826128ad84612ccb565b60ff166128ba9190613de1565b6001600160401b03166007612868565b60008160076128d8816124ba565b5060006128e68560006125db565b905060006128fd62ffffff19871660036001612da1565b90506053826001600160401b0316118061292057506004826001600160401b0316105b8061293d575061293862ffffff198716600180612da1565b606a14155b8061296d575061294e600383613ed2565b6001600160401b031661296a62ffffff19881660036001612da1565b14155b1561297c5762ffffff19612517565b61248162ffffff19871660046001600160401b038416600c612f1b565b60606000806129b18460181c6001600160601b031690565b60405193508392506001600160601b031690506129d8846129d3846020613dc9565b613008565b508181016020016040529052919050565b600081600d6129f7816124ba565b50610d1a62ffffff19851660006008612dd1565b60606000835b612a1c846001613dc9565b811015612a8757858181518110612a4357634e487b7160e01b600052603260045260246000fd5b602001015160f81c60f81b91508282604051602001612a63929190613bac565b60405160208183030381529060405292508080612a7f90613f49565b915050612a11565b50509392505050565b606082471015612af15760405162461bcd60e51b815260206004820152602660248201527f416464726573733a20696e73756666696369656e742062616c616e636520666f6044820152651c8818d85b1b60d21b606482015260840161043b565b843b612b3f5760405162461bcd60e51b815260206004820152601d60248201527f416464726573733a2063616c6c20746f206e6f6e2d636f6e7472616374000000604482015260640161043b565b600080866001600160a01b03168587604051612b5b9190613b90565b60006040518083038185875af1925050503d8060008114612b98576040519150601f19603f3d011682016040523d82523d6000602084013e612b9d565b606091505b5091509150610d15828286613160565b600080612bba8385613dc9565b9050604051811115612bca575060005b80612bdc5762ffffff1991505061214b565b5050606092831b9190911790911b1760181b90565b6000612bfd8383613199565b612cc4576000612c1c612c108560d81c90565b64ffffffffff166131bc565b9150506000612c318464ffffffffff166131bc565b6040517f5479706520617373657274696f6e206661696c65642e20476f7420307800000060208201526001600160b01b031960b086811b8216603d8401526c05c408af0e0cac6e8cac84060f609b1b604784015283901b16605482015290925060009150605e015b60405160208183030381529060405290508060405162461bcd60e51b815260040161043b9190613c1e565b5090919050565b600060fc826001600160401b031611612ce6575060016109b1565b61ffff826001600160401b031611612d00575060036109b1565b63ffffffff826001600160401b031611612d1c575060056109b1565b5060096109b1565b60006121488484612d3e8760181c6001600160601b031690565b6001600160601b0316612d519190613ebb565b8585612f1b565b600081600e612d66816124ba565b506000612d748560086125db565b9050806001600160401b0316612d8982612ccb565b60ff16612d969190613dc9565b612877906008613dc9565b6000612dae826020613efa565b612db9906008613e92565b60ff16612dc785858561327c565b901c949350505050565b6000612148612de185858561327c565b600881811c7eff00ff00ff00ff00ff00ff00ff00ff00ff00ff00ff00ff00ff00ff00ff00ff167fff00ff00ff00ff00ff00ff00ff00ff00ff00ff00ff00ff00ff00ff00ff00ff009290911b9190911617601081811c7dffff0000ffff0000ffff0000ffff0000ffff0000ffff0000ffff0000ffff167fffff0000ffff0000ffff0000ffff0000ffff0000ffff0000ffff0000ffff00009290911b9190911617602081811c7bffffffff00000000ffffffff00000000ffffffff00000000ffffffff167fffffffff00000000ffffffff00000000ffffffff00000000ffffffff000000009290911b9190911617604081811c77ffffffffffffffff0000000000000000ffffffffffffffff1677ffffffffffffffff0000000000000000ffffffffffffffff199290911b9190911617608081811c91901b1790565b600080612f318660781c6001600160601b031690565b6001600160601b03169050612f45866133d5565b84612f508784613dc9565b612f5a9190613dc9565b1115612f6d5762ffffff19915050610d1a565b612f778582613dc9565b90506124818364ffffffffff168286612bad565b60606000612fb5612fb062ffffff19851683601887901c6001600160601b0316612da1565b6131bc565b6040517f4e6f6e2d6d696e696d616c2076617220696e742e20476f74203078000000000060208201526dffffffffffffffffffffffffffff19607083901b16603b82015290925060009150604d01612c99565b600062ffffff1980841614156130715760405162461bcd60e51b815260206004820152602860248201527f54797065644d656d566965772f636f7079546f202d204e756c6c20706f696e7460448201526732b9103232b932b360c11b606482015260840161043b565b61307a83613416565b6130da5760405162461bcd60e51b815260206004820152602b60248201527f54797065644d656d566965772f636f7079546f202d20496e76616c696420706f60448201526a34b73a32b9103232b932b360a91b606482015260840161043b565b60006130ef8460181c6001600160601b031690565b6001600160601b03169050600061310f8560781c6001600160601b031690565b6001600160601b03169050600060405190508481111561312f5760206060fd5b8285848460045afa506124816131458760d81c90565b64ffffffffff60601b606091821b168717901b841760181b90565b6060831561316f57508161214b565b82511561317f5782518084602001fd5b8160405162461bcd60e51b815260040161043b9190613c1e565b60008164ffffffffff166131ad8460d81c90565b64ffffffffff16149392505050565b600080601f5b600f8160ff16111561321a5760006131db826008613e92565b60ff1685901c90506131ec81613454565b61ffff16841793508160ff1660101461320757601084901b93505b50613213600182613efa565b90506131c2565b50600f5b60ff8160ff161015613276576000613237826008613e92565b60ff1685901c905061324881613454565b61ffff16831792508160ff1660001461326357601083901b92505b5061326f600182613efa565b905061321e565b50915091565b600060ff821661328e5750600061214b565b6132a18460181c6001600160601b031690565b6001600160601b03166132b760ff841685613dc9565b111561331b576133026132d38560781c6001600160601b031690565b6001600160601b03166132ef8660181c6001600160601b031690565b6001600160601b0316858560ff16613484565b60405162461bcd60e51b815260040161043b9190613c1e565b60208260ff1611156133955760405162461bcd60e51b815260206004820152603a60248201527f54797065644d656d566965772f696e646578202d20417474656d70746564207460448201527f6f20696e646578206d6f7265207468616e203332206279746573000000000000606482015260840161043b565b6008820260006133ae8660781c6001600160601b031690565b6001600160601b031690506000600160ff1b60001984011d91909501511695945050505050565b60006133ea8260181c6001600160601b031690565b6133fd8360781c6001600160601b031690565b6134079190613e31565b6001600160601b031692915050565b60006134228260d81c90565b64ffffffffff1664ffffffffff141561343d575060006109b1565b6000613448836133d5565b60405110199392505050565b600061346660048360ff16901c6135ae565b60ff161760081b62ffff001661347b826135ae565b60ff1617919050565b60606000613491866131bc565b915050600061349f866131bc565b91505060006134ad866131bc565b91505060006134bb866131bc565b604080517f54797065644d656d566965772f696e646578202d204f76657272616e20746865602082015274040ecd2caee5c40a6d8d2c6ca40d2e640c2e84060f605b1b818301526001600160d01b031960d098891b811660558301526e040eed2e8d040d8cadccee8d04060f608b1b605b830181905297891b8116606a8301527f2e20417474656d7074656420746f20696e646578206174206f666673657420306070830152600f60fb1b609083015295881b861660918201526097810196909652951b90921660a68401525050601760f91b60ac8201528151808203608d01815260ad90910190915295945050505050565b600060f08083179060ff821614156135ca5760309150506109b1565b8060ff1660f114156135e05760319150506109b1565b8060ff1660f214156135f65760329150506109b1565b8060ff1660f3141561360c5760339150506109b1565b8060ff1660f414156136225760349150506109b1565b8060ff1660f514156136385760359150506109b1565b8060ff1660f6141561364e5760369150506109b1565b8060ff1660f714156136645760379150506109b1565b8060ff1660f8141561367a5760389150506109b1565b8060ff1660f914156136905760399150506109b1565b8060ff1660fa14156136a65760619150506109b1565b8060ff1660fb14156136bc5760629150506109b1565b8060ff1660fc14156136d25760639150506109b1565b8060ff1660fd14156136e85760649150506109b1565b8060ff1660fe14156136fe5760659150506109b1565b8060ff1660ff14156137145760669150506109b1565b50919050565b82805482825590600052602060002090810192821561376f579160200282015b8281111561376f57825182546001600160a01b0319166001600160a01b0390911617825560209092019160019091019061373a565b5061377b92915061377f565b5090565b5b8082111561377b5760008155600101613780565b805180151581146109b157600080fd5b80356001600160e01b0319811681146109b157600080fd5b60008083601f8401126137cd578182fd5b5081356001600160401b038111156137e3578182fd5b6020830191508360208285010111156137fb57600080fd5b9250929050565b600082601f830112613812578081fd5b81356001600160401b0381111561382b5761382b613f7a565b61383e601f8201601f1916602001613d99565b818152846020838601011115613852578283fd5b816020850160208301379081016020019190915292915050565b60006020828403121561387d578081fd5b813561214b81613f90565b600060208284031215613899578081fd5b815161214b81613f90565b6000602082840312156138b5578081fd5b61214b82613794565b600080604083850312156138d0578081fd5b6138d983613794565b91506020808401516001600160401b03808211156138f5578384fd5b818601915086601f830112613908578384fd5b81518181111561391a5761391a613f7a565b838102915061392a848301613d99565b8181528481019084860184860187018b1015613944578788fd5b8795505b83861015613966578051835260019590950194918601918601613948565b508096505050505050509250929050565b600060208284031215613988578081fd5b5035919050565b6000602082840312156139a0578081fd5b5051919050565b60008060008060008060008060008060006101008c8e0312156139c8578687fd5b6139d18c6137a4565b9a506001600160401b038060208e013511156139eb578788fd5b6139fb8e60208f01358f01613802565b9a508060408e01351115613a0d578788fd5b613a1d8e60408f01358f016137bc565b909a509850613a2e60608e016137a4565b975060808d013596508060a08e01351115613a47578586fd5b613a578e60a08f01358f016137bc565b909650945060c08d0135935060e08d0135811015613a73578283fd5b50613a848d60e08e01358e016137bc565b81935080925050509295989b509295989b9093969950565b60008060408385031215613aae578182fd5b823591506020830135613ac081613f90565b809150509250929050565b6000815480845260208085019450838352808320835b83811015613b065781546001600160a01b031687529582019560019182019101613ae1565b509495945050505050565b60008151808452613b29816020860160208601613f1d565b601f01601f19169290920160200192915050565b600063ffffffff60e01b80871683528551613b5f816004860160208a01613f1d565b855190840190613b76816004840160208a01613f1d565b919094169301600481019390935250506008019392505050565b60008251613ba2818460208701613f1d565b9190910192915050565b60008351613bbe818460208801613f1d565b6001600160f81b0319939093169190920190815260010192915050565b60006020825261214b6020830184613acb565b600085825284602083015260806040830152613c0d6080830185613b11565b905082606083015295945050505050565b60006020825261214b6020830184613b11565b600060608252613c446060830186613b11565b6001600160a01b039490941660208301525060400152919050565b60208082526021908201527f434345786368616e6765526f757465723a2061646472657373206973207a65726040820152606f60f81b606082015260800190565b6020808252818101527f4f776e61626c653a2063616c6c6572206973206e6f7420746865206f776e6572604082015260600190565b600060c082018883526020888185015260c0604085015281885180845260e086019150828a019350845b81811015613d245784516001600160a01b031683529383019391830191600101613cff565b50506001600160a01b039790971660608501525050506080810192909252151560a0909101529392505050565b600087825286602083015260c06040830152613d7060c0830187613acb565b6001600160a01b03959095166060830152506080810192909252151560a0909101529392505050565b604051601f8201601f191681016001600160401b0381118282101715613dc157613dc1613f7a565b604052919050565b60008219821115613ddc57613ddc613f64565b500190565b60006001600160401b03808316818516808303821115613e0357613e03613f64565b01949350505050565b600060ff821660ff84168060ff03821115613e2957613e29613f64565b019392505050565b60006001600160601b03808316818516808303821115613e0357613e03613f64565b600082613e6e57634e487b7160e01b81526012600452602481fd5b500490565b6000816000190483118215151615613e8d57613e8d613f64565b500290565b600060ff821660ff84168160ff0481118215151615613eb357613eb3613f64565b029392505050565b600082821015613ecd57613ecd613f64565b500390565b60006001600160401b0383811690831681811015613ef257613ef2613f64565b039392505050565b600060ff821660ff841680821015613f1457613f14613f64565b90039392505050565b60005b83811015613f38578181015183820152602001613f20565b83811115611e115750506000910152565b6000600019821415613f5d57613f5d613f64565b5060010190565b634e487b7160e01b600052601160045260246000fd5b634e487b7160e01b600052604160045260246000fd5b6001600160a01b0381168114610c1e57600080fdfe416464726573733a206c6f772d6c6576656c2063616c6c20776974682076616c7565206661696c6564a264697066735822122043d3c98f3aeea8361575e70c72004dda41aecbb2222876a597e1ceca028d827764736f6c63430008020033",
  "devdoc": {
    "kind": "dev",
    "methods": {
      "ccExchange(bytes4,bytes,bytes,bytes4,uint256,bytes,uint256,bytes)": {
        "details": "Mints teleBTC for user if exchanging is not successful",
        "params": {
          "_blockNumber": "Height of the block containing the user request",
          "_index": "Index of transaction containing the user request in the block",
          "_intermediateNodes": "Merkle inclusion proof for transaction containing the user request",
          "_lockerLockingScript": "Script hash of locker that user has sent BTC to it",
          "_locktime": "Lock time of the transaction containing the user request",
          "_version": "Version of the transaction containing the user request",
          "_vin": "Inputs of the transaction containing the user request",
          "_vout": "Outputs of the transaction containing the user request"
        },
        "returns": {
          "_0": ""
        }
      },
      "constructor": {
        "params": {
          "_chainId": "Id of the underlying chain",
          "_lockers": "Lockers' contract address",
          "_protocolPercentageFee": "Percentage amount of protocol fee (min: %0.01)",
          "_relay": "The Relay address to validate data from source chain",
          "_startingBlockNumber": "Requests that are included in a block older than _startingBlockNumber cannot be executed",
          "_teleBTC": "TeleportDAO BTC ERC20 token address",
          "_treasury": "Address of treasury that collects protocol fees"
        }
      },
      "isRequestUsed(bytes32)": {
        "details": "It prevents re-submitting an executed request",
        "params": {
          "_txId": "The transaction ID of request on source chain "
        },
        "returns": {
          "_0": "True if the cc exchange request has been already executed"
        }
      },
      "owner()": {
        "details": "Returns the address of the current owner."
      },
      "renounceOwnership()": {
        "details": "Leaves the contract without owner. It will not be possible to call `onlyOwner` functions anymore. Can only be called by the current owner. NOTE: Renouncing ownership will leave the contract without an owner, thereby removing any functionality that is only available to the owner."
      },
      "setExchangeConnector(uint256,address)": {
        "details": "Only owner can call this. _exchangeConnector can be set to zero to inactive an app",
        "params": {
          "_appId": "AppId of exchange connector",
          "_exchangeConnector": "Address of exchange connector"
        }
      },
      "setInstantRouter(address)": {
        "details": "Only owner can call this",
        "params": {
          "_instantRouter": "The new instantRouter contract address"
        }
      },
      "setLockers(address)": {
        "details": "Only owner can call this",
        "params": {
          "_lockers": "The new lockers contract address"
        }
      },
      "setProtocolPercentageFee(uint256)": {
        "details": "Only owner can call this",
        "params": {
          "_protocolPercentageFee": "Percentage amount of protocol fee"
        }
      },
      "setRelay(address)": {
        "details": "Only owner can call this",
        "params": {
          "_relay": "The new relay contract address"
        }
      },
      "setTeleBTC(address)": {
        "details": "Only owner can call this",
        "params": {
          "_teleBTC": "The new teleBTC contract address"
        }
      },
      "setTreasury(address)": {
        "details": "Only owner can call this",
        "params": {
          "_treasury": "Treasury address"
        }
      },
      "transferOwnership(address)": {
        "details": "Transfers ownership of the contract to a new account (`newOwner`). Can only be called by the current owner."
      }
    },
    "version": 1
  },
  "userdoc": {
    "events": {
      "CCExchange(address,address,address,uint256,uint256,uint256,address,uint256)": {
        "notice": "Emits when a cc exchange request gets done"
      },
      "FailedCCExchange(address,uint256)": {
        "notice": "Emits when a cc exchange request fails"
      },
      "SetExchangeConnector(uint256,address)": {
        "notice": "Emits when appId for an exchange connector is set"
      }
    },
    "kind": "user",
    "methods": {
      "ccExchange(bytes4,bytes,bytes,bytes4,uint256,bytes,uint256,bytes)": {
        "notice": "Executes a cross-chain exchange request after checking its merkle inclusion proof"
      },
      "constructor": {
        "notice": "Gives default params to initiate cc exchange router"
      },
      "isRequestUsed(bytes32)": {
        "notice": "Check if the cc exchange request has been executed before"
      },
      "setExchangeConnector(uint256,address)": {
        "notice": "Sets appId for an exchange connector"
      },
      "setInstantRouter(address)": {
        "notice": "Changes instantRouter contract address"
      },
      "setLockers(address)": {
        "notice": "Changes lockers contract address"
      },
      "setProtocolPercentageFee(uint256)": {
        "notice": "Setter for protocol percentage fee"
      },
      "setRelay(address)": {
        "notice": "Changes relay contract address"
      },
      "setTeleBTC(address)": {
        "notice": "Changes teleBTC contract address"
      },
      "setTreasury(address)": {
        "notice": "Setter for treasury"
      }
    },
    "version": 1
  },
  "storageLayout": {
    "storage": [
      {
        "astId": 807,
        "contract": "contracts/routers/CCExchangeRouter.sol:CCExchangeRouter",
        "label": "_owner",
        "offset": 0,
        "slot": "0",
        "type": "t_address"
      },
      {
        "astId": 1634,
        "contract": "contracts/routers/CCExchangeRouter.sol:CCExchangeRouter",
        "label": "_status",
        "offset": 0,
        "slot": "1",
        "type": "t_uint256"
      },
      {
        "astId": 15941,
        "contract": "contracts/routers/CCExchangeRouter.sol:CCExchangeRouter",
        "label": "startingBlockNumber",
        "offset": 0,
        "slot": "2",
        "type": "t_uint256"
      },
      {
        "astId": 15944,
        "contract": "contracts/routers/CCExchangeRouter.sol:CCExchangeRouter",
        "label": "chainId",
        "offset": 0,
        "slot": "3",
        "type": "t_uint256"
      },
      {
        "astId": 15947,
        "contract": "contracts/routers/CCExchangeRouter.sol:CCExchangeRouter",
        "label": "protocolPercentageFee",
        "offset": 0,
        "slot": "4",
        "type": "t_uint256"
      },
      {
        "astId": 15950,
        "contract": "contracts/routers/CCExchangeRouter.sol:CCExchangeRouter",
        "label": "relay",
        "offset": 0,
        "slot": "5",
        "type": "t_address"
      },
      {
        "astId": 15953,
        "contract": "contracts/routers/CCExchangeRouter.sol:CCExchangeRouter",
        "label": "instantRouter",
        "offset": 0,
        "slot": "6",
        "type": "t_address"
      },
      {
        "astId": 15956,
        "contract": "contracts/routers/CCExchangeRouter.sol:CCExchangeRouter",
        "label": "lockers",
        "offset": 0,
        "slot": "7",
        "type": "t_address"
      },
      {
        "astId": 15959,
        "contract": "contracts/routers/CCExchangeRouter.sol:CCExchangeRouter",
        "label": "teleBTC",
        "offset": 0,
        "slot": "8",
        "type": "t_address"
      },
      {
        "astId": 15962,
        "contract": "contracts/routers/CCExchangeRouter.sol:CCExchangeRouter",
        "label": "treasury",
        "offset": 0,
        "slot": "9",
        "type": "t_address"
      },
      {
        "astId": 15967,
        "contract": "contracts/routers/CCExchangeRouter.sol:CCExchangeRouter",
        "label": "exchangeConnector",
        "offset": 0,
        "slot": "10",
        "type": "t_mapping(t_uint256,t_address)"
      },
      {
        "astId": 15972,
        "contract": "contracts/routers/CCExchangeRouter.sol:CCExchangeRouter",
        "label": "ccExchangeRequests",
        "offset": 0,
        "slot": "11",
        "type": "t_mapping(t_bytes32,t_struct(ccExchangeRequest)19202_storage)"
      }
    ],
    "types": {
      "t_address": {
        "encoding": "inplace",
        "label": "address",
        "numberOfBytes": "20"
      },
      "t_array(t_address)dyn_storage": {
        "base": "t_address",
        "encoding": "dynamic_array",
        "label": "address[]",
        "numberOfBytes": "32"
      },
      "t_bool": {
        "encoding": "inplace",
        "label": "bool",
        "numberOfBytes": "1"
      },
      "t_bytes32": {
        "encoding": "inplace",
        "label": "bytes32",
        "numberOfBytes": "32"
      },
      "t_mapping(t_bytes32,t_struct(ccExchangeRequest)19202_storage)": {
        "encoding": "mapping",
        "key": "t_bytes32",
        "label": "mapping(bytes32 => struct ICCExchangeRouter.ccExchangeRequest)",
        "numberOfBytes": "32",
        "value": "t_struct(ccExchangeRequest)19202_storage"
      },
      "t_mapping(t_uint256,t_address)": {
        "encoding": "mapping",
        "key": "t_uint256",
        "label": "mapping(uint256 => address)",
        "numberOfBytes": "32",
        "value": "t_address"
      },
      "t_struct(ccExchangeRequest)19202_storage": {
        "encoding": "inplace",
        "label": "struct ICCExchangeRouter.ccExchangeRequest",
        "members": [
          {
            "astId": 19182,
            "contract": "contracts/routers/CCExchangeRouter.sol:CCExchangeRouter",
            "label": "appId",
            "offset": 0,
            "slot": "0",
            "type": "t_uint256"
          },
          {
            "astId": 19184,
            "contract": "contracts/routers/CCExchangeRouter.sol:CCExchangeRouter",
            "label": "inputAmount",
            "offset": 0,
            "slot": "1",
            "type": "t_uint256"
          },
          {
            "astId": 19186,
            "contract": "contracts/routers/CCExchangeRouter.sol:CCExchangeRouter",
            "label": "outputAmount",
            "offset": 0,
            "slot": "2",
            "type": "t_uint256"
          },
          {
            "astId": 19188,
            "contract": "contracts/routers/CCExchangeRouter.sol:CCExchangeRouter",
            "label": "isFixedToken",
            "offset": 0,
            "slot": "3",
            "type": "t_bool"
          },
          {
            "astId": 19190,
            "contract": "contracts/routers/CCExchangeRouter.sol:CCExchangeRouter",
            "label": "recipientAddress",
            "offset": 1,
            "slot": "3",
            "type": "t_address"
          },
          {
            "astId": 19192,
            "contract": "contracts/routers/CCExchangeRouter.sol:CCExchangeRouter",
            "label": "fee",
            "offset": 0,
            "slot": "4",
            "type": "t_uint256"
          },
          {
            "astId": 19194,
            "contract": "contracts/routers/CCExchangeRouter.sol:CCExchangeRouter",
            "label": "isUsed",
            "offset": 0,
            "slot": "5",
            "type": "t_bool"
          },
          {
            "astId": 19197,
            "contract": "contracts/routers/CCExchangeRouter.sol:CCExchangeRouter",
            "label": "path",
            "offset": 0,
            "slot": "6",
            "type": "t_array(t_address)dyn_storage"
          },
          {
            "astId": 19199,
            "contract": "contracts/routers/CCExchangeRouter.sol:CCExchangeRouter",
            "label": "deadline",
            "offset": 0,
            "slot": "7",
            "type": "t_uint256"
          },
          {
            "astId": 19201,
            "contract": "contracts/routers/CCExchangeRouter.sol:CCExchangeRouter",
            "label": "speed",
            "offset": 0,
            "slot": "8",
            "type": "t_uint256"
          }
        ],
        "numberOfBytes": "288"
      },
      "t_uint256": {
        "encoding": "inplace",
        "label": "uint256",
        "numberOfBytes": "32"
      }
    }
  }
}