{
  "address": "0x393ACCdd5D933D2b8DD87e81675740a84c3dc9B8",
  "abi": [
    {
      "inputs": [
        {
          "internalType": "address",
          "name": "_exchangeRouter",
          "type": "address"
        },
        {
          "internalType": "address",
          "name": "_bitcoinTeleporter",
          "type": "address"
        },
        {
          "internalType": "address",
          "name": "_ccTransferRouter",
          "type": "address"
        }
      ],
      "stateMutability": "nonpayable",
      "type": "constructor"
    },
    {
      "anonymous": false,
      "inputs": [
        {
          "indexed": false,
          "internalType": "address",
          "name": "user",
          "type": "address"
        },
        {
          "indexed": false,
          "internalType": "address",
          "name": "inputToken",
          "type": "address"
        },
        {
          "indexed": false,
          "internalType": "address",
          "name": "outputToken",
          "type": "address"
        },
        {
          "indexed": false,
          "internalType": "uint256",
          "name": "inputAmount",
          "type": "uint256"
        },
        {
          "indexed": false,
          "internalType": "uint256",
          "name": "outputAmount",
          "type": "uint256"
        },
        {
          "indexed": false,
          "internalType": "uint256",
          "name": "speed",
          "type": "uint256"
        }
      ],
      "name": "CCExchange",
      "type": "event"
    },
    {
      "inputs": [],
      "name": "WAVAX",
      "outputs": [
        {
          "internalType": "address",
          "name": "",
          "type": "address"
        }
      ],
      "stateMutability": "view",
      "type": "function"
    },
    {
      "inputs": [],
      "name": "bitcoinTeleporter",
      "outputs": [
        {
          "internalType": "address",
          "name": "",
          "type": "address"
        }
      ],
      "stateMutability": "view",
      "type": "function"
    },
    {
      "inputs": [
        {
          "internalType": "bytes4",
          "name": "version",
          "type": "bytes4"
        },
        {
          "internalType": "bytes",
          "name": "vin",
          "type": "bytes"
        },
        {
          "internalType": "bytes",
          "name": "vout",
          "type": "bytes"
        },
        {
          "internalType": "bytes4",
          "name": "locktime",
          "type": "bytes4"
        },
        {
          "internalType": "uint256",
          "name": "blockNumber",
          "type": "uint256"
        },
        {
          "internalType": "bytes",
          "name": "intermediateNodes",
          "type": "bytes"
        },
        {
          "internalType": "uint256",
          "name": "index",
          "type": "uint256"
        },
        {
          "internalType": "bool",
          "name": "payWithTDT",
          "type": "bool"
        }
      ],
      "name": "ccExchange",
      "outputs": [],
      "stateMutability": "nonpayable",
      "type": "function"
    },
    {
      "inputs": [],
      "name": "ccTransferRouter",
      "outputs": [
        {
          "internalType": "address",
          "name": "",
          "type": "address"
        }
      ],
      "stateMutability": "view",
      "type": "function"
    },
    {
      "inputs": [
        {
          "internalType": "address",
          "name": "_owner",
          "type": "address"
        }
      ],
      "name": "changeOwner",
      "outputs": [],
      "stateMutability": "nonpayable",
      "type": "function"
    },
    {
      "inputs": [],
      "name": "exchangeRouter",
      "outputs": [
        {
          "internalType": "address",
          "name": "",
          "type": "address"
        }
      ],
      "stateMutability": "view",
      "type": "function"
    },
    {
      "inputs": [
        {
          "internalType": "address",
          "name": "signer",
          "type": "address"
        },
        {
          "internalType": "bytes",
          "name": "signature",
          "type": "bytes"
        },
        {
          "internalType": "uint256",
          "name": "amountIn",
          "type": "uint256"
        },
        {
          "internalType": "uint256",
          "name": "amountOutMin",
          "type": "uint256"
        },
        {
          "internalType": "address[]",
          "name": "path",
          "type": "address[]"
        },
        {
          "internalType": "address",
          "name": "receiver",
          "type": "address"
        },
        {
          "internalType": "uint256",
          "name": "deadline",
          "type": "uint256"
        }
      ],
      "name": "instantCCExchangeWithPermit",
      "outputs": [],
      "stateMutability": "nonpayable",
      "type": "function"
    },
    {
      "inputs": [],
      "name": "instantRouter",
      "outputs": [
        {
          "internalType": "address",
          "name": "",
          "type": "address"
        }
      ],
      "stateMutability": "view",
      "type": "function"
    },
    {
      "inputs": [],
      "name": "liquidityPoolFactory",
      "outputs": [
        {
          "internalType": "address",
          "name": "",
          "type": "address"
        }
      ],
      "stateMutability": "view",
      "type": "function"
    },
    {
      "inputs": [],
      "name": "owner",
      "outputs": [
        {
          "internalType": "address",
          "name": "",
          "type": "address"
        }
      ],
      "stateMutability": "view",
      "type": "function"
    },
    {
      "inputs": [
        {
          "internalType": "address",
          "name": "_bitcoinTeleporter",
          "type": "address"
        }
      ],
      "name": "setBitcoinTeleporter",
      "outputs": [],
      "stateMutability": "nonpayable",
      "type": "function"
    },
    {
      "inputs": [
        {
          "internalType": "address",
          "name": "_ccTransferRouter",
          "type": "address"
        }
      ],
      "name": "setCCTransferRouter",
      "outputs": [],
      "stateMutability": "nonpayable",
      "type": "function"
    },
    {
      "inputs": [
        {
          "internalType": "address",
          "name": "_exchangeRouter",
          "type": "address"
        }
      ],
      "name": "setExchangeRouter",
      "outputs": [],
      "stateMutability": "nonpayable",
      "type": "function"
    },
    {
      "inputs": [
        {
          "internalType": "address",
          "name": "_instantRouter",
          "type": "address"
        }
      ],
      "name": "setInstantRouter",
      "outputs": [],
      "stateMutability": "nonpayable",
      "type": "function"
    },
    {
      "inputs": [
        {
          "internalType": "address",
          "name": "_wrappedBitcoin",
          "type": "address"
        }
      ],
      "name": "setWrappedBitcoin",
      "outputs": [],
      "stateMutability": "nonpayable",
      "type": "function"
    },
    {
      "inputs": [],
      "name": "wrappedBitcoin",
      "outputs": [
        {
          "internalType": "address",
          "name": "",
          "type": "address"
        }
      ],
      "stateMutability": "view",
      "type": "function"
    }
  ],
  "transactionHash": "0xf011492c58346fc74c7b9d72205b14add6c160c45fe733524b2e97293be9f572",
  "args": [
    "0x668D83b86A4A599c144B1124455C9bb6b7653fDF",
    "0xD57a0FF38FE9b8803904D0F79f44792bd79524C6",
    "0x4a34FE2aFD275d95C8971c54e8E4deFFD9A85912"
  ],
  "numDeployments": 1,
  "solcInputHash": "b766d894e7507eaf09e41e8de1c94935",
  "bytecode": "0x6080604052600080546001600160a01b03191690553480156200002157600080fd5b50604051620033f4380380620033f4833981810160405260608110156200004757600080fd5b508051602080830151604093840151600680546001600160a01b0319166001600160a01b038087169190911791829055865163e75d75d560e01b8152965195969395929491169263e75d75d59260048083019392829003018186803b158015620000b057600080fd5b505afa158015620000c5573d6000803e3d6000fd5b505050506040513d6020811015620000dc57600080fd5b5051600480546001600160a01b0319166001600160a01b03928316178155600654604080516339d94ae160e11b8152905191909316926373b295c29281810192602092909190829003018186803b1580156200013757600080fd5b505afa1580156200014c573d6000803e3d6000fd5b505050506040513d60208110156200016357600080fd5b5051600580546001600160a01b039283166001600160a01b031991821617909155600060025560088054948316948216949094179093556009805492909116918316919091179055600b8054909116331790555061322d80620001c76000396000f3fe608060405234801561001057600080fd5b50600436106101005760003560e01c8063838b7ccb11610097578063d1d8d2ed11610066578063d1d8d2ed146104ea578063e35a0a88146104f2578063e75d75d5146104fa578063f5ded5181461050257610100565b8063838b7ccb14610470578063870ba6cf146104965780638da5cb5b146104bc578063a6f9dae1146104c457610100565b80632f1ed7cb116100d35780632f1ed7cb146102ea5780635615e16f1461043a57806373b295c2146104425780637f3c8b211461044a57610100565b806307980dcd146101055780630981a6661461027a5780631cb85818146102a05780631f8a4db9146102c4575b600080fd5b610278600480360361010081101561011c57600080fd5b6001600160e01b03198235169190810190604081016020820135600160201b81111561014757600080fd5b82018360208201111561015957600080fd5b803590602001918460018302840111600160201b8311171561017a57600080fd5b91908080601f0160208091040260200160405190810160405280939291908181526020018383808284376000920191909152509295949360208101935035915050600160201b8111156101cc57600080fd5b8201836020820111156101de57600080fd5b803590602001918460018302840111600160201b831117156101ff57600080fd5b919390926001600160e01b0319833516926020810135929190606081019060400135600160201b81111561023257600080fd5b82018360208201111561024457600080fd5b803590602001918460018302840111600160201b8311171561026557600080fd5b919350915080359060200135151561050a565b005b6102786004803603602081101561029057600080fd5b50356001600160a01b0316610cdf565b6102a8610d18565b604080516001600160a01b039092168252519081900360200190f35b610278600480360360208110156102da57600080fd5b50356001600160a01b0316610d27565b610278600480360360e081101561030057600080fd5b6001600160a01b038235169190810190604081016020820135600160201b81111561032a57600080fd5b82018360208201111561033c57600080fd5b803590602001918460018302840111600160201b8311171561035d57600080fd5b91908080601f0160208091040260200160405190810160405280939291908181526020018383808284376000920191909152509295843595602086013595919450925060608101915060400135600160201b8111156103bb57600080fd5b8201836020820111156103cd57600080fd5b803590602001918460208302840111600160201b831117156103ee57600080fd5b919080806020026020016040519081016040528093929190818152602001838360200280828437600092019190915250929550506001600160a01b038335169350505060200135610d60565b6102a8611038565b6102a8611047565b6102786004803603602081101561046057600080fd5b50356001600160a01b0316611056565b6102786004803603602081101561048657600080fd5b50356001600160a01b031661108f565b610278600480360360208110156104ac57600080fd5b50356001600160a01b03166111d4565b6102a861120d565b610278600480360360208110156104da57600080fd5b50356001600160a01b031661121c565b6102a8611255565b6102a8611264565b6102a8611273565b6102a8611282565b600254604080516020601f8b0181900481028201810190925289815261054a918b908b908190840183828082843760009201919091525061129192505050565b61059b576040805162461bcd60e51b815260206004820152601f60248201527f5472616e73616374696f6e2064617461206973206e6f7420636f727265637400604482015290519081900360640190fd5b43600101600160008381526020019081526020016000206009015410610c9e576106388b8b8b8b8080601f01602080910402602001604051908101604052809392919081815260200183838082843760009201919091525050604080516020601f8d018190048102820181019092528b81528e93508d9250908c908c90819084018382808284376000920191909152508c92508b91506115729050565b6007805460008381526001602090815260408083206008810154950154815163a9059cbb60e01b81526001600160a01b03968716600482015260248101919091529051949093169363a9059cbb93604480820194918390030190829087803b1580156106a357600080fd5b505af11580156106b7573d6000803e3d6000fd5b505050506040513d60208110156106cd57600080fd5b5050600081815260016020526040902060030154600160a01b900460ff1615801561071857506005546000828152600160205260409020600301546001600160a01b03908116911614155b156109b757600754600654600083815260016020908152604080832060020154815163095ea7b360e01b81526001600160a01b03958616600482015260248101919091529051939094169363095ea7b39360448083019491928390030190829087803b15801561078757600080fd5b505af115801561079b573d6000803e3d6000fd5b505050506040513d60208110156107b157600080fd5b50506000818152600160208181526040808420600281015493810154600690910180548351818602810186019094528084526060969561085995909492919083018282801561082957602002820191906000526020600020905b81546001600160a01b0316815260019091019060200180831161080b575b505050600089815260016020526040902060058101546009909101546001600160a01b039091169250905061176f565b909250905080156109a15760008381526001602052604081206005810154600690910180547fc8d4f413dd655a643206b602c9646c4d2a668af80f1a8d5879c9bb38911f85c0936001600160a01b0390931692906108b357fe5b60009182526020808320909101548783526001909152604090912060060180546001600160a01b039092169160001981019081106108ed57fe5b6000918252602080832090910154888352600190915260409091206002015486516001600160a01b03909216918790600019810190811061092a57fe5b6020026020010151600160008a8152602001908152602001600020600b015460405180876001600160a01b03168152602001866001600160a01b03168152602001856001600160a01b03168152602001848152602001838152602001828152602001965050505050505060405180910390a16109b4565b6109b48d8d8d8d8d8d8d8d8d8d8d6118ff565b50505b600081815260016020526040902060030154600160a01b900460ff161580156109ff57506005546000828152600160205260409020600301546001600160a01b039081169116145b15610c9e57600754600654600083815260016020908152604080832060020154815163095ea7b360e01b81526001600160a01b03958616600482015260248101919091529051939094169363095ea7b39360448083019491928390030190829087803b158015610a6e57600080fd5b505af1158015610a82573d6000803e3d6000fd5b505050506040513d6020811015610a9857600080fd5b505060008181526001602081815260408084206002810154938101546006909101805483518186028101860190945280845260609695610b40959094929190830182828015610b1057602002820191906000526020600020905b81546001600160a01b03168152600190910190602001808311610af2575b505050600089815260016020526040902060058101546009909101546001600160a01b0390911692509050611ab7565b90925090508015610c885760008381526001602052604081206005810154600690910180547fc8d4f413dd655a643206b602c9646c4d2a668af80f1a8d5879c9bb38911f85c0936001600160a01b039093169290610b9a57fe5b60009182526020808320909101548783526001909152604090912060060180546001600160a01b03909216916000198101908110610bd457fe5b6000918252602080832090910154888352600190915260409091206002015486516001600160a01b039092169187906000198101908110610c1157fe5b6020026020010151600160008a8152602001908152602001600020600b015460405180876001600160a01b03168152602001866001600160a01b03168152602001856001600160a01b03168152602001848152602001838152602001828152602001965050505050505060405180910390a1610c9b565b610c9b8d8d8d8d8d8d8d8d8d8d8d6118ff565b50505b4360010160016000838152602001908152602001600020600901541015610cd257610cd28b8b8b8b8b8b8b8b8b8b8b6118ff565b5050505050505050505050565b600b546001600160a01b03163314610cf657600080fd5b600780546001600160a01b0319166001600160a01b0392909216919091179055565b6006546001600160a01b031681565b600b546001600160a01b03163314610d3e57600080fd5b600880546001600160a01b0319166001600160a01b0392909216919091179055565b60606000600a60009054906101000a90046001600160a01b03166001600160a01b0316632f1ed7cb8a8a8a8a8a8a8a6040518863ffffffff1660e01b815260040180886001600160a01b031681526020018060200187815260200186815260200180602001856001600160a01b03168152602001848152602001838103835289818151815260200191508051906020019080838360005b83811015610e0f578181015183820152602001610df7565b50505050905090810190601f168015610e3c5780820380516001836020036101000a031916815260200191505b508381038252865181528651602091820191808901910280838360005b83811015610e71578181015183820152602001610e59565b505050509050019950505050505050505050600060405180830381600087803b158015610e9d57600080fd5b505af1158015610eb1573d6000803e3d6000fd5b505050506040513d6000823e601f3d908101601f191682016040908152811015610eda57600080fd5b8101908080516040519392919084600160201b821115610ef957600080fd5b908301906020820185811115610f0e57600080fd5b82518660208202830111600160201b82111715610f2a57600080fd5b82525081516020918201928201910280838360005b83811015610f57578181015183820152602001610f3f565b50505050919091016040525060200151885193955093507fc8d4f413dd655a643206b602c9646c4d2a668af80f1a8d5879c9bb38911f85c092879250889150600090610f9f57fe5b602002602001015187600189510381518110610fb757fe5b60200260200101518a86600188510381518110610fd057fe5b6020026020010151600260405180876001600160a01b03168152602001866001600160a01b03168152602001856001600160a01b03168152602001848152602001838152602001828152602001965050505050505060405180910390a1505050505050505050565b6007546001600160a01b031681565b6005546001600160a01b031681565b600b546001600160a01b0316331461106d57600080fd5b600980546001600160a01b0319166001600160a01b0392909216919091179055565b600b546001600160a01b031633146110a657600080fd5b600680546001600160a01b0319166001600160a01b0383811691909117918290556040805163e75d75d560e01b81529051929091169163e75d75d591600480820192602092909190829003018186803b15801561110257600080fd5b505afa158015611116573d6000803e3d6000fd5b505050506040513d602081101561112c57600080fd5b5051600480546001600160a01b0319166001600160a01b03928316178155600654604080516339d94ae160e11b8152905191909316926373b295c29281810192602092909190829003018186803b15801561118657600080fd5b505afa15801561119a573d6000803e3d6000fd5b505050506040513d60208110156111b057600080fd5b5051600580546001600160a01b0319166001600160a01b0390921691909117905550565b600b546001600160a01b031633146111eb57600080fd5b600a80546001600160a01b0319166001600160a01b0392909216919091179055565b600b546001600160a01b031681565b600b546001600160a01b0316331461123357600080fd5b600b80546001600160a01b0319166001600160a01b0392909216919091179055565b6008546001600160a01b031681565b600a546001600160a01b031681565b6004546001600160a01b031681565b6009546001600160a01b031681565b600060606000600860009054906101000a90046001600160a01b03166001600160a01b03166375a31bb16040518163ffffffff1660e01b815260040160206040518083038186803b1580156112e557600080fd5b505afa1580156112f9573d6000803e3d6000fd5b505050506040513d602081101561130f57600080fd5b5051905061131d8482611b40565b60025460009081526001602052604090206001600160401b03909216909155915061134782611c26565b6fffffffffffffffffffffffffffffffff166001600060025481526020019081526020016000206001018190555061137e82611c41565b60025460009081526001602052604090206003018054911515600160a01b0260ff60a01b199092169190911790556113b582611c8e565b600254600090815260016020526040902060050180546001600160a01b0319166001600160a01b03929092169190911790556113f082611ca9565b60025460009081526001602052604090206001600160401b039190911660079091015561141c82611cc4565b600280546000908152600160208181526040808420600390810180546001600160a01b0319166001600160a01b039889161790558151808301835260075488168152865480875285855292862091820154909716878401529352526114869260069091019161309a565b50600254600090815260016020526040902060080180546001600160a01b031916331790556114b482611cd4565b60025460009081526001602052604090206001600160401b03919091166009909101556114e082611ce4565b6002546000908152600160205260409020600a01805460ff191691151591909117905561150c82611cf3565b6002805460009081526001602052604080822060ff94909416600b948501559154815220805460078201549190920154611547929190611d0d565b600280546000908152600160208190526040909120820192909255805482019055925050505b919050565b600954604051630e70f50360e21b81526001600160e01b0319808b166004830190815290881660648301526084820187905260c4820185905283151560e4830152610100602483019081528a516101048401528a516001600160a01b03909416936339c3d40c938d938d938d938d938d938d938d938d93604481019160a4820191610124019060208d019080838360005b8381101561161b578181015183820152602001611603565b50505050905090810190601f1680156116485780820380516001836020036101000a031916815260200191505b5084810383528a5181528a516020918201918c019080838360005b8381101561167b578181015183820152602001611663565b50505050905090810190601f1680156116a85780820380516001836020036101000a031916815260200191505b50848103825287518152875160209182019189019080838360005b838110156116db5781810151838201526020016116c3565b50505050905090810190601f1680156117085780820380516001836020036101000a031916815260200191505b509b505050505050505050505050602060405180830381600087803b15801561173057600080fd5b505af1158015611744573d6000803e3d6000fd5b505050506040513d602081101561175a57600080fd5b505161176557600080fd5b5050505050505050565b6006546040516338ed173960e01b815260048101878152602482018790526001600160a01b0385811660648401526084830185905260a060448401908152875160a485015287516060956000959316936338ed1739938c938c938c938c938c93919260c490910190602080880191028083838f5b838110156117fb5781810151838201526020016117e3565b505050509050019650505050505050600060405180830381600087803b15801561182457600080fd5b505af1158015611838573d6000803e3d6000fd5b505050506040513d6000823e601f3d908101601f19168201604090815281101561186157600080fd5b8101908080516040519392919084600160201b82111561188057600080fd5b90830190602082018581111561189557600080fd5b82518660208202830111600160201b821117156118b157600080fd5b82525081516020918201928201910280838360005b838110156118de5781810151838201526020016118c6565b50505050919091016040525060200151929a92995091975050505050505050565b61197c8b8b8b8b8080601f01602080910402602001604051908101604052809392919081815260200183838082843760009201919091525050604080516020601f8d018190048102820181019092528b81528e93508d9250908c908c90819084018382808284376000920191909152508c92508b91506115729050565b60075460008281526001602090815260408083206005810154600290910154825163a9059cbb60e01b81526001600160a01b0392831660048201526024810191909152915194169363a9059cbb93604480840194938390030190829087803b1580156119e757600080fd5b505af11580156119fb573d6000803e3d6000fd5b505050506040513d6020811015611a1157600080fd5b50506007805460008381526001602090815260408083206008810154950154815163a9059cbb60e01b81526001600160a01b03968716600482015260248101919091529051949093169363a9059cbb93604480820194918390030190829087803b158015611a7e57600080fd5b505af1158015611a92573d6000803e3d6000fd5b505050506040513d6020811015611aa857600080fd5b50505050505050505050505050565b60065460405163676528d160e01b815260048101878152602482018790526001600160a01b0385811660648401526084830185905260a060448401908152875160a4850152875160609560009593169363676528d1938c938c938c938c938c93919260c490910190602087810191028083838f83156117fb5781810151838201526020016117e3565b6000606081611b5d611b528683611f17565b62ffffff1916611f3d565b9050600080600080600060606000611b7688600061206b565b6001600160401b0316905060005b81811015611c1457611b968982612184565b9750611ba18861228b565b9550611bac866122ea565b945062ffffff198086161415611bfa57611bcd62ffffff19871660036123bb565b93508b6001600160a01b0316846001600160a01b03161415611bf557611bf2886123c9565b96505b611c0c565b611c0962ffffff1986166123dd565b92505b600101611b84565b50949b909a5098505050505050505050565b600080611c36836032604161241c565b601001519392505050565b600080611c5083604a8061241c565b8051909150600090819083908290611c6457fe5b01602001516001600160f81b0319161415611c825760009250611c87565b600192505b5050919050565b600080611c9e836000601361241c565b601401519392505050565b600080611cb9836014601b61241c565b600801519392505050565b600080611c9e83601e603161241c565b600080611cb9836042604961241c565b600080611c5083601c8061241c565b600080611d0283601d8061241c565b600101519392505050565b600081611d6d57828411611d5c576040805162461bcd60e51b8152602060048201526011602482015270125b9cdd59999a58da595b9d08199d5b99607a1b604482015290519081900360640190fd5b611d6684846124d7565b9050611f10565b8160011415611ebf576009546040805163637a30c160e11b815290516000926001600160a01b03169163c6f46182916004808301926020929190829003018186803b158015611dbb57600080fd5b505afa158015611dcf573d6000803e3d6000fd5b505050506040513d6020811015611de557600080fd5b505160408051630c2dc8d960e41b815290519192506000916001600160a01b0384169163c2dc8d90916004808301926020929190829003018186803b158015611e2d57600080fd5b505afa158015611e41573d6000803e3d6000fd5b505050506040513d6020811015611e5757600080fd5b505190506064818103870204858111611eab576040805162461bcd60e51b8152602060048201526011602482015270125b9cdd59999a58da595b9d08199d5b99607a1b604482015290519081900360640190fd5b611eb581876124d7565b9350505050611f10565b8160021415611f1057828411611d5c576040805162461bcd60e51b8152602060048201526011602482015270125b9cdd59999a58da595b9d08199d5b99607a1b604482015290519081900360640190fd5b9392505050565b815160009060208401611f3264ffffffffff85168284612527565b925050505b92915050565b60008181611f53815b62ffffff19841690612561565b50611f6362ffffff19851661269f565b6001600160601b0316611f7f57611f786126ae565b9250611c87565b6000611f8c85600061206b565b90506000611f9f62ffffff19871661269f565b6001600160601b031690506001600160401b038216611fc957611fc06126ae565b94505050611c87565b6000611fd4836126b6565b60ff16905060005b836001600160401b03168110156120355782821061200757611ffc6126ae565b965050505050611c87565b600061201d62ffffff198a16848603600e61270f565b905061202881612740565b9092019150600101611fdc565b5081811461204f576120456126ae565b9550505050611c87565b61206062ffffff198816600f612782565b979650505050505050565b60008061208062ffffff198516846001612794565b905060fc8111612091579050611f37565b8060fd14156120e7576120af62ffffff1985166001850160026127b5565b91506120ba826126b6565b60ff166003146120e2576120e06120db62ffffff19861685600360006127ca565b61282f565b505b61217d565b8060fe14156121315761210562ffffff1985166001850160046127b5565b9150612110826126b6565b60ff166005146120e2576120e06120db62ffffff19861685600560006127ca565b8060ff141561217d5761214f62ffffff1985166001850160086127b5565b915061215a826126b6565b60ff1660091461217d5761217b6120db62ffffff19861685600960006127ca565b505b5092915050565b60008061219284600061206b565b6001600160401b0316905060006121ae62ffffff19861661269f565b6001600160601b03169050818410612201576040805162461bcd60e51b81526020600482015260116024820152702b37baba103932b0b21037bb32b9393ab760791b604482015290519081900360640190fd5b600061220c836126b6565b60ff1690506000805b868110156122485761223162ffffff198916848603600e61270f565b915061223c82612740565b90920191600101612215565b5061225d62ffffff198816838503600e61270f565b9050600061226a82612740565b905061227f62ffffff1989168483600d6127ca565b98975050505050505050565b600081600d61229981611f46565b5060006122a785600861206b565b90506122e16008826122b8846126b6565b60ff16016001600160401b0316600760148111156122d257fe5b62ffffff1989169291906127ca565b95945050505050565b60008160076122f881611f46565b50600061230685600061206b565b9050600061231d62ffffff19871660026001612794565b9050604d826001600160401b0316118061234057506004826001600160401b0316105b8061235d575061235862ffffff198716600180612794565b606a14155b8061238757506001600160401b0360011983011661238462ffffff19881660026001612794565b14155b1561239457611fc06126ae565b6123b162ffffff19871660036001600160401b038416600c6127ca565b9695505050505050565b6000611f1083836014612794565b6000611f3762ffffff1983168260086127b5565b60606000806123eb8461269f565b6001600160601b03169050604051915081925061240b84836020016128fd565b508181016020016040529052919050565b60606000835b836001018110156124ce5785818151811061243957fe5b602001015160f81c60f81b915082826040516020018083805190602001908083835b6020831061247a5780518252601f19909201916020918201910161245b565b6001836020036101000a038019825116818451168082178552505050505050905001826001600160f81b03191681526001019250505060405160208183030381529060405292508080600101915050612422565b50509392505050565b80820382811115611f37576040805162461bcd60e51b815260206004820152601560248201527464732d6d6174682d7375622d756e646572666c6f7760581b604482015290519081900360640190fd5b60008061253484846129eb565b9050604051811115612544575060005b806125565762ffffff19915050611f10565b6122e1858585612a3a565b600061256d8383612a4d565b61269857600061258b61257f85612a6f565b64ffffffffff16612a75565b91505060006125a08464ffffffffff16612a75565b604080517f5479706520617373657274696f6e206661696c65642e20476f742030780000006020808301919091526001600160b01b031960b088811b8216603d8501526c05c408af0e0cac6e8cac84060f609b1b604785015285901b1660548301528251603e818403018152605e83019384905262461bcd60e51b909352606282018181528351608284015283519496509294508493839260a2019185019080838360005b8381101561265d578181015183820152602001612645565b50505050905090810190601f16801561268a5780820380516001836020036101000a031916815260200191505b509250505060405180910390fd5b5090919050565b60181c6001600160601b031690565b62ffffff1990565b600060fc826001600160401b0316116126d15750600161156d565b61ffff826001600160401b0316116126eb5750600361156d565b63ffffffff826001600160401b0316116127075750600561156d565b50600961156d565b600061273884612731856127228861269f565b6001600160601b0316906124d7565b85856127ca565b949350505050565b600081600e61274e81611f46565b50600061275c85600861206b565b9050806001600160401b0316612771826126b6565b60ff16016008019350505050919050565b60d81b6001600160d81b039091161790565b60008160200360080260ff166127ab858585612b0d565b901c949350505050565b60006127386127c5858585612b0d565b612c33565b6000806127d686612d6d565b6001600160601b031690506127ea86612d7c565b6127fe856127f884896129eb565b906129eb565b11156128115762ffffff19915050612738565b61281b81866129eb565b90506123b18364ffffffffff168286612527565b6060600061285c6128578261284962ffffff19871661269f565b62ffffff1987169190612794565b612a75565b604080517f4e6f6e2d6d696e696d616c2076617220696e742e20476f742030780000000000602080830191909152607084901b6dffffffffffffffffffffffffffff1916603b8301528251808303602d018152604d83019384905262461bcd60e51b9093526051820181815283516071840152835194965092945084938392609101918501908083836000831561265d578181015183820152602001612645565b600061290883612da1565b6129435760405162461bcd60e51b81526004018080602001828103825260288152602001806131706028913960400191505060405180910390fd5b61294c83612db3565b6129875760405162461bcd60e51b815260040180806020018281038252602b815260200180613198602b913960400191505060405180910390fd5b60006129928461269f565b6001600160601b0316905060006129a885612d6d565b6001600160601b0316905060006040519050848111156129c85760206060fd5b8285848460045afa506123b16129dd87612a6f565b64ffffffffff168685612a3a565b80820182811015611f37576040805162461bcd60e51b815260206004820152601460248201527364732d6d6174682d6164642d6f766572666c6f7760601b604482015290519081900360640190fd5b606092831b9190911790911b1760181b90565b60008164ffffffffff16612a6084612a6f565b64ffffffffff16149392505050565b60d81c90565b600080601f5b600f8160ff161115612abf5760ff600882021684901c612a9a81612df0565b61ffff16841793508160ff16601014612ab557601084901b93505b5060001901612a7b565b50600f5b60ff8160ff161015612b075760ff600882021684901c612ae281612df0565b61ffff16831792508160ff16600014612afd57601083901b92505b5060001901612ac3565b50915091565b600060ff8216612b1f57506000611f10565b612b288461269f565b6001600160601b0316612b3e8460ff85166129eb565b1115612bbc57612b75612b5085612d6d565b6001600160601b0316612b628661269f565b6001600160601b0316858560ff16612e20565b60405162461bcd60e51b815260206004820181815283516024840152835190928392604490910191908501908083836000831561265d578181015183820152602001612645565b60208260ff161115612bff5760405162461bcd60e51b815260040180806020018281038252603a815260200180613136603a913960400191505060405180910390fd5b600882026000612c0e86612d6d565b6001600160601b031690506000612c2483612f13565b91909501511695945050505050565b600881811c7eff00ff00ff00ff00ff00ff00ff00ff00ff00ff00ff00ff00ff00ff00ff00ff167fff00ff00ff00ff00ff00ff00ff00ff00ff00ff00ff00ff00ff00ff00ff00ff009290911b9190911617601081811c7dffff0000ffff0000ffff0000ffff0000ffff0000ffff0000ffff0000ffff167fffff0000ffff0000ffff0000ffff0000ffff0000ffff0000ffff0000ffff00009290911b9190911617602081811c7bffffffff00000000ffffffff00000000ffffffff00000000ffffffff167fffffffff00000000ffffffff00000000ffffffff00000000ffffffff000000009290911b9190911617604081811c77ffffffffffffffff0000000000000000ffffffffffffffff1677ffffffffffffffff0000000000000000ffffffffffffffff199290911b9190911617608081811c91901b1790565b60781c6001600160601b031690565b6000612d878261269f565b612d9083612d6d565b016001600160601b03169050919050565b6000612dac82612f22565b1592915050565b6000612dbe82612a6f565b64ffffffffff1664ffffffffff1415612dd95750600061156d565b6000612de483612d7c565b60405110199392505050565b6000612e0260048360ff16901c612f2e565b60ff161760081b62ffff0016612e1782612f2e565b60ff1617919050565b60606000612e2d86612a75565b9150506000612e3b86612a75565b9150506000612e4986612a75565b9150506000612e5786612a75565b9150508383838360405160200180806131c3603591396001600160d01b031960d087811b821660358401526e040eed2e8d040d8cadccee8d04060f608b1b603b84015286901b16604a820152605001602161311582396001600160d01b031960d094851b811660218301526e040eed2e8d040d8cadccee8d04060f608b1b60278301529290931b909116603683015250601760f91b603c82015260408051601d818403018152603d90920190529b9a5050505050505050505050565b600160ff1b6000199091011d90565b62ffffff199081161490565b600060f08083179060ff82161415612f4a57603091505061156d565b8060ff1660f11415612f6057603191505061156d565b8060ff1660f21415612f7657603291505061156d565b8060ff1660f31415612f8c57603391505061156d565b8060ff1660f41415612fa257603491505061156d565b8060ff1660f51415612fb857603591505061156d565b8060ff1660f61415612fce57603691505061156d565b8060ff1660f71415612fe457603791505061156d565b8060ff1660f81415612ffa57603891505061156d565b8060ff1660f9141561301057603991505061156d565b8060ff1660fa141561302657606191505061156d565b8060ff1660fb141561303c57606291505061156d565b8060ff1660fc141561305257606391505061156d565b8060ff1660fd141561306857606491505061156d565b8060ff1660fe141561307e57606591505061156d565b8060ff1660ff141561309457606691505061156d565b50919050565b8280548282559060005260206000209081019282156130ef579160200282015b828111156130ef57825182546001600160a01b0319166001600160a01b039091161782556020909201916001909101906130ba565b506130fb9291506130ff565b5090565b5b808211156130fb576000815560010161310056fe2e20417474656d7074656420746f20696e646578206174206f666673657420307854797065644d656d566965772f696e646578202d20417474656d7074656420746f20696e646578206d6f7265207468616e20333220627974657354797065644d656d566965772f636f7079546f202d204e756c6c20706f696e74657220646572656654797065644d656d566965772f636f7079546f202d20496e76616c696420706f696e74657220646572656654797065644d656d566965772f696e646578202d204f76657272616e2074686520766965772e20536c696365206973206174203078a2646970667358221220a582a8e48090467d66bbda8db8dc3bb1cc75da0eccb04bebbdde7a04a5aa24a564736f6c63430007060033",
  "devdoc": {
    "kind": "dev",
    "methods": {},
    "version": 1
  },
  "userdoc": {
    "kind": "user",
    "methods": {},
    "version": 1
  },
  "storageLayout": {
    "storage": [
      {
        "astId": 11780,
        "contract": "contracts/routers/CCExchangeRouter.sol:CCExchangeRouter",
        "label": "ZERO_ADDRESS",
        "offset": 0,
        "slot": "0",
        "type": "t_address"
      },
      {
        "astId": 11784,
        "contract": "contracts/routers/CCExchangeRouter.sol:CCExchangeRouter",
        "label": "requests",
        "offset": 0,
        "slot": "1",
        "type": "t_mapping(t_uint256,t_struct(request)17783_storage)"
      },
      {
        "astId": 11786,
        "contract": "contracts/routers/CCExchangeRouter.sol:CCExchangeRouter",
        "label": "lastRequest",
        "offset": 0,
        "slot": "2",
        "type": "t_uint256"
      },
      {
        "astId": 11789,
        "contract": "contracts/routers/CCExchangeRouter.sol:CCExchangeRouter",
        "label": "parsedPath",
        "offset": 0,
        "slot": "3",
        "type": "t_array(t_address)dyn_storage"
      },
      {
        "astId": 11792,
        "contract": "contracts/routers/CCExchangeRouter.sol:CCExchangeRouter",
        "label": "liquidityPoolFactory",
        "offset": 0,
        "slot": "4",
        "type": "t_address"
      },
      {
        "astId": 11795,
        "contract": "contracts/routers/CCExchangeRouter.sol:CCExchangeRouter",
        "label": "WAVAX",
        "offset": 0,
        "slot": "5",
        "type": "t_address"
      },
      {
        "astId": 11798,
        "contract": "contracts/routers/CCExchangeRouter.sol:CCExchangeRouter",
        "label": "exchangeRouter",
        "offset": 0,
        "slot": "6",
        "type": "t_address"
      },
      {
        "astId": 11801,
        "contract": "contracts/routers/CCExchangeRouter.sol:CCExchangeRouter",
        "label": "wrappedBitcoin",
        "offset": 0,
        "slot": "7",
        "type": "t_address"
      },
      {
        "astId": 11803,
        "contract": "contracts/routers/CCExchangeRouter.sol:CCExchangeRouter",
        "label": "bitcoinTeleporter",
        "offset": 0,
        "slot": "8",
        "type": "t_address"
      },
      {
        "astId": 11805,
        "contract": "contracts/routers/CCExchangeRouter.sol:CCExchangeRouter",
        "label": "ccTransferRouter",
        "offset": 0,
        "slot": "9",
        "type": "t_address"
      },
      {
        "astId": 11807,
        "contract": "contracts/routers/CCExchangeRouter.sol:CCExchangeRouter",
        "label": "instantRouter",
        "offset": 0,
        "slot": "10",
        "type": "t_address"
      },
      {
        "astId": 11810,
        "contract": "contracts/routers/CCExchangeRouter.sol:CCExchangeRouter",
        "label": "owner",
        "offset": 0,
        "slot": "11",
        "type": "t_address"
      }
    ],
    "types": {
      "t_address": {
        "encoding": "inplace",
        "label": "address",
        "numberOfBytes": "20"
      },
      "t_array(t_address)dyn_storage": {
        "base": "t_address",
        "encoding": "dynamic_array",
        "label": "address[]",
        "numberOfBytes": "32"
      },
      "t_bool": {
        "encoding": "inplace",
        "label": "bool",
        "numberOfBytes": "1"
      },
      "t_mapping(t_uint256,t_struct(request)17783_storage)": {
        "encoding": "mapping",
        "key": "t_uint256",
        "label": "mapping(uint256 => struct ICCExchangeRouter.request)",
        "numberOfBytes": "32",
        "value": "t_struct(request)17783_storage"
      },
      "t_struct(request)17783_storage": {
        "encoding": "inplace",
        "label": "struct ICCExchangeRouter.request",
        "members": [
          {
            "astId": 17757,
            "contract": "contracts/routers/CCExchangeRouter.sol:CCExchangeRouter",
            "label": "bitcoinAmount",
            "offset": 0,
            "slot": "0",
            "type": "t_uint256"
          },
          {
            "astId": 17759,
            "contract": "contracts/routers/CCExchangeRouter.sol:CCExchangeRouter",
            "label": "exchangeAmount",
            "offset": 0,
            "slot": "1",
            "type": "t_uint256"
          },
          {
            "astId": 17761,
            "contract": "contracts/routers/CCExchangeRouter.sol:CCExchangeRouter",
            "label": "remainedInputAmount",
            "offset": 0,
            "slot": "2",
            "type": "t_uint256"
          },
          {
            "astId": 17763,
            "contract": "contracts/routers/CCExchangeRouter.sol:CCExchangeRouter",
            "label": "exchangeToken",
            "offset": 0,
            "slot": "3",
            "type": "t_address"
          },
          {
            "astId": 17765,
            "contract": "contracts/routers/CCExchangeRouter.sol:CCExchangeRouter",
            "label": "isFixedToken",
            "offset": 20,
            "slot": "3",
            "type": "t_bool"
          },
          {
            "astId": 17767,
            "contract": "contracts/routers/CCExchangeRouter.sol:CCExchangeRouter",
            "label": "bitcoinRecipient",
            "offset": 0,
            "slot": "4",
            "type": "t_address"
          },
          {
            "astId": 17769,
            "contract": "contracts/routers/CCExchangeRouter.sol:CCExchangeRouter",
            "label": "exchangeRecipientAddress",
            "offset": 0,
            "slot": "5",
            "type": "t_address"
          },
          {
            "astId": 17772,
            "contract": "contracts/routers/CCExchangeRouter.sol:CCExchangeRouter",
            "label": "path",
            "offset": 0,
            "slot": "6",
            "type": "t_array(t_address)dyn_storage"
          },
          {
            "astId": 17774,
            "contract": "contracts/routers/CCExchangeRouter.sol:CCExchangeRouter",
            "label": "teleporterFee",
            "offset": 0,
            "slot": "7",
            "type": "t_uint256"
          },
          {
            "astId": 17776,
            "contract": "contracts/routers/CCExchangeRouter.sol:CCExchangeRouter",
            "label": "teleporterAddress",
            "offset": 0,
            "slot": "8",
            "type": "t_address"
          },
          {
            "astId": 17778,
            "contract": "contracts/routers/CCExchangeRouter.sol:CCExchangeRouter",
            "label": "deadline",
            "offset": 0,
            "slot": "9",
            "type": "t_uint256"
          },
          {
            "astId": 17780,
            "contract": "contracts/routers/CCExchangeRouter.sol:CCExchangeRouter",
            "label": "isExchange",
            "offset": 0,
            "slot": "10",
            "type": "t_bool"
          },
          {
            "astId": 17782,
            "contract": "contracts/routers/CCExchangeRouter.sol:CCExchangeRouter",
            "label": "speed",
            "offset": 0,
            "slot": "11",
            "type": "t_uint256"
          }
        ],
        "numberOfBytes": "384"
      },
      "t_uint256": {
        "encoding": "inplace",
        "label": "uint256",
        "numberOfBytes": "32"
      }
    }
  }
}