{
  "address": "0xF143323f34E5C28826C7646aBFCD8eDACCc07711",
  "abi": [
    {
      "inputs": [
        {
          "internalType": "uint256",
          "name": "_startingBlockNumber",
          "type": "uint256"
        },
        {
          "internalType": "uint256",
          "name": "_protocolPercentageFee",
          "type": "uint256"
        },
        {
          "internalType": "uint256",
          "name": "_chainId",
          "type": "uint256"
        },
        {
          "internalType": "address",
          "name": "_lockers",
          "type": "address"
        },
        {
          "internalType": "address",
          "name": "_relay",
          "type": "address"
        },
        {
          "internalType": "address",
          "name": "_teleBTC",
          "type": "address"
        },
        {
          "internalType": "address",
          "name": "_treasury",
          "type": "address"
        }
      ],
      "stateMutability": "nonpayable",
      "type": "constructor"
    },
    {
      "anonymous": false,
      "inputs": [
        {
          "indexed": true,
          "internalType": "address",
          "name": "user",
          "type": "address"
        },
        {
          "indexed": false,
          "internalType": "address",
          "name": "inputToken",
          "type": "address"
        },
        {
          "indexed": true,
          "internalType": "address",
          "name": "outputToken",
          "type": "address"
        },
        {
          "indexed": false,
          "internalType": "uint256",
          "name": "inputAmount",
          "type": "uint256"
        },
        {
          "indexed": false,
          "internalType": "uint256",
          "name": "outputAmount",
          "type": "uint256"
        },
        {
          "indexed": true,
          "internalType": "uint256",
          "name": "speed",
          "type": "uint256"
        },
        {
          "indexed": false,
          "internalType": "address",
          "name": "teleporter",
          "type": "address"
        },
        {
          "indexed": false,
          "internalType": "uint256",
          "name": "teleporterFee",
          "type": "uint256"
        }
      ],
      "name": "CCExchange",
      "type": "event"
    },
    {
      "anonymous": false,
      "inputs": [
        {
          "indexed": false,
          "internalType": "address",
          "name": "recipientAddress",
          "type": "address"
        },
        {
          "indexed": false,
          "internalType": "uint256",
          "name": "remainedInputAmount",
          "type": "uint256"
        }
      ],
      "name": "FailedCCExchange",
      "type": "event"
    },
    {
      "anonymous": false,
      "inputs": [
        {
          "indexed": true,
          "internalType": "address",
          "name": "previousOwner",
          "type": "address"
        },
        {
          "indexed": true,
          "internalType": "address",
          "name": "newOwner",
          "type": "address"
        }
      ],
      "name": "OwnershipTransferred",
      "type": "event"
    },
    {
      "anonymous": false,
      "inputs": [
        {
          "indexed": false,
          "internalType": "uint256",
          "name": "appId",
          "type": "uint256"
        },
        {
          "indexed": false,
          "internalType": "address",
          "name": "exchangeConnector",
          "type": "address"
        }
      ],
      "name": "SetExchangeConnector",
      "type": "event"
    },
    {
      "inputs": [
        {
          "internalType": "bytes4",
          "name": "_version",
          "type": "bytes4"
        },
        {
          "internalType": "bytes",
          "name": "_vin",
          "type": "bytes"
        },
        {
          "internalType": "bytes",
          "name": "_vout",
          "type": "bytes"
        },
        {
          "internalType": "bytes4",
          "name": "_locktime",
          "type": "bytes4"
        },
        {
          "internalType": "uint256",
          "name": "_blockNumber",
          "type": "uint256"
        },
        {
          "internalType": "bytes",
          "name": "_intermediateNodes",
          "type": "bytes"
        },
        {
          "internalType": "uint256",
          "name": "_index",
          "type": "uint256"
        },
        {
          "internalType": "address",
          "name": "_lockerScriptHash",
          "type": "address"
        }
      ],
      "name": "ccExchange",
      "outputs": [
        {
          "internalType": "bool",
          "name": "",
          "type": "bool"
        }
      ],
      "stateMutability": "payable",
      "type": "function"
    },
    {
      "inputs": [],
      "name": "chainId",
      "outputs": [
        {
          "internalType": "uint256",
          "name": "",
          "type": "uint256"
        }
      ],
      "stateMutability": "view",
      "type": "function"
    },
    {
      "inputs": [
        {
          "internalType": "uint256",
          "name": "",
          "type": "uint256"
        }
      ],
      "name": "exchangeConnector",
      "outputs": [
        {
          "internalType": "address",
          "name": "",
          "type": "address"
        }
      ],
      "stateMutability": "view",
      "type": "function"
    },
    {
      "inputs": [],
      "name": "instantRouter",
      "outputs": [
        {
          "internalType": "address",
          "name": "",
          "type": "address"
        }
      ],
      "stateMutability": "view",
      "type": "function"
    },
    {
      "inputs": [
        {
          "internalType": "bytes32",
          "name": "_txId",
          "type": "bytes32"
        }
      ],
      "name": "isRequestUsed",
      "outputs": [
        {
          "internalType": "bool",
          "name": "",
          "type": "bool"
        }
      ],
      "stateMutability": "view",
      "type": "function"
    },
    {
      "inputs": [],
      "name": "lockers",
      "outputs": [
        {
          "internalType": "address",
          "name": "",
          "type": "address"
        }
      ],
      "stateMutability": "view",
      "type": "function"
    },
    {
      "inputs": [],
      "name": "owner",
      "outputs": [
        {
          "internalType": "address",
          "name": "",
          "type": "address"
        }
      ],
      "stateMutability": "view",
      "type": "function"
    },
    {
      "inputs": [],
      "name": "protocolPercentageFee",
      "outputs": [
        {
          "internalType": "uint256",
          "name": "",
          "type": "uint256"
        }
      ],
      "stateMutability": "view",
      "type": "function"
    },
    {
      "inputs": [],
      "name": "relay",
      "outputs": [
        {
          "internalType": "address",
          "name": "",
          "type": "address"
        }
      ],
      "stateMutability": "view",
      "type": "function"
    },
    {
      "inputs": [],
      "name": "renounceOwnership",
      "outputs": [],
      "stateMutability": "nonpayable",
      "type": "function"
    },
    {
      "inputs": [
        {
          "internalType": "uint256",
          "name": "_appId",
          "type": "uint256"
        },
        {
          "internalType": "address",
          "name": "_exchangeConnector",
          "type": "address"
        }
      ],
      "name": "setExchangeConnector",
      "outputs": [],
      "stateMutability": "nonpayable",
      "type": "function"
    },
    {
      "inputs": [
        {
          "internalType": "address",
          "name": "_instantRouter",
          "type": "address"
        }
      ],
      "name": "setInstantRouter",
      "outputs": [],
      "stateMutability": "nonpayable",
      "type": "function"
    },
    {
      "inputs": [
        {
          "internalType": "address",
          "name": "_lockers",
          "type": "address"
        }
      ],
      "name": "setLockers",
      "outputs": [],
      "stateMutability": "nonpayable",
      "type": "function"
    },
    {
      "inputs": [
        {
          "internalType": "uint256",
          "name": "_protocolPercentageFee",
          "type": "uint256"
        }
      ],
      "name": "setProtocolPercentageFee",
      "outputs": [],
      "stateMutability": "nonpayable",
      "type": "function"
    },
    {
      "inputs": [
        {
          "internalType": "address",
          "name": "_relay",
          "type": "address"
        }
      ],
      "name": "setRelay",
      "outputs": [],
      "stateMutability": "nonpayable",
      "type": "function"
    },
    {
      "inputs": [
        {
          "internalType": "address",
          "name": "_teleBTC",
          "type": "address"
        }
      ],
      "name": "setTeleBTC",
      "outputs": [],
      "stateMutability": "nonpayable",
      "type": "function"
    },
    {
      "inputs": [
        {
          "internalType": "address",
          "name": "_treasury",
          "type": "address"
        }
      ],
      "name": "setTreasury",
      "outputs": [],
      "stateMutability": "nonpayable",
      "type": "function"
    },
    {
      "inputs": [],
      "name": "startingBlockNumber",
      "outputs": [
        {
          "internalType": "uint256",
          "name": "",
          "type": "uint256"
        }
      ],
      "stateMutability": "view",
      "type": "function"
    },
    {
      "inputs": [],
      "name": "teleBTC",
      "outputs": [
        {
          "internalType": "address",
          "name": "",
          "type": "address"
        }
      ],
      "stateMutability": "view",
      "type": "function"
    },
    {
      "inputs": [
        {
          "internalType": "address",
          "name": "newOwner",
          "type": "address"
        }
      ],
      "name": "transferOwnership",
      "outputs": [],
      "stateMutability": "nonpayable",
      "type": "function"
    },
    {
      "inputs": [],
      "name": "treasury",
      "outputs": [
        {
          "internalType": "address",
          "name": "",
          "type": "address"
        }
      ],
      "stateMutability": "view",
      "type": "function"
    }
  ],
  "transactionHash": "0xcaabbe454e2e1dffc5c26fb4c27773a553dd1949643eddb800fd304a3ddf974f",
  "args": [
    "2341573",
    50,
    3,
    "0x6c89ca66B217cA2eA87AB118De25D54013d4c891",
    "0x8ed36B08134B84698C898f0A4314905e1cA7aE1d",
    "0xE9B3d12D7254Bb86DF10c2f03C98ee4B17598abc",
    "0x5364E3557572bd5D5903C0e9C21BE359F2Eac1dA"
  ],
  "numDeployments": 1,
  "solcInputHash": "e12c7c9cd263aabdb11ed9046c0bd066",
  "bytecode": "0x60806040523480156200001157600080fd5b5060405162003db038038062003db083398101604081905262000034916200017e565b6200003f3362000111565b6001805560028790556004869055612710861115620000b55760405162461bcd60e51b815260206004820152602860248201527f434345786368616e6765526f757465723a20696e76616c69642070657263656e604482015267746167652066656560c01b606482015260840160405180910390fd5b600394909455600580546001600160a01b03199081166001600160a01b03948516179091556007805482169484169490941790935560088054841691831691909117905560098054909216921691909117905550620001f79050565b600080546001600160a01b038381166001600160a01b0319831681178455604051919092169283917f8be0079c531659141344cd1fd0a4f28419497f9722a3daafe3b4186f6b6457e09190a35050565b80516001600160a01b03811681146200017957600080fd5b919050565b600080600080600080600060e0888a03121562000199578283fd5b875196506020880151955060408801519450620001b96060890162000161565b9350620001c96080890162000161565b9250620001d960a0890162000161565b9150620001e960c0890162000161565b905092959891949750929550565b613ba980620002076000396000f3fe60806040526004361061012a5760003560e01c8063870ba6cf116100ab578063b59589d11161006f578063b59589d114610337578063bec116ef14610357578063c805f68b1461036a578063e35a0a881461038a578063f0f44260146103aa578063f2fde38b146103ca5761012a565b8063870ba6cf146102a35780638d3d78cd146102c35780638da5cb5b146102e35780639a8a059214610301578063b14d3532146103175761012a565b806370872aa5116100f257806370872aa514610208578063715018a61461021e5780637ed55748146102335780637f0f18171461025357806380bc4726146102735761012a565b80631812adb61461012f5780631876dec41461015857806361d027b3146101905780636b2857ef146101b05780636e8adf61146101d2575b600080fd5b34801561013b57600080fd5b5061014560045481565b6040519081526020015b60405180910390f35b34801561016457600080fd5b50600754610178906001600160a01b031681565b6040516001600160a01b03909116815260200161014f565b34801561019c57600080fd5b50600954610178906001600160a01b031681565b3480156101bc57600080fd5b506101d06101cb366004613755565b6103ea565b005b3480156101de57600080fd5b506101786101ed36600461364e565b600a602052600090815260409020546001600160a01b031681565b34801561021457600080fd5b5061014560025481565b34801561022a57600080fd5b506101d0610483565b34801561023f57600080fd5b506101d061024e36600461364e565b6104b9565b34801561025f57600080fd5b506101d061026e366004613561565b610548565b34801561027f57600080fd5b5061029361028e36600461364e565b6105bc565b604051901515815260200161014f565b3480156102af57600080fd5b506101d06102be366004613561565b6105e7565b3480156102cf57600080fd5b50600854610178906001600160a01b031681565b3480156102ef57600080fd5b506000546001600160a01b0316610178565b34801561030d57600080fd5b5061014560035481565b34801561032357600080fd5b506101d0610332366004613561565b61065b565b34801561034357600080fd5b50600554610178906001600160a01b031681565b61029361036536600461367e565b6106cf565b34801561037657600080fd5b506101d0610385366004613561565b610ac8565b34801561039657600080fd5b50600654610178906001600160a01b031681565b3480156103b657600080fd5b506101d06103c5366004613561565b610b3c565b3480156103d657600080fd5b506101d06103e5366004613561565b610bb0565b6000546001600160a01b0316331461041d5760405162461bcd60e51b8152600401610414906138c0565b60405180910390fd5b6000828152600a602090815260409182902080546001600160a01b0319166001600160a01b0385169081179091558251858152918201527f31a8c4e62daac2a3ed5d713004d9ae867d6dcddfa35603db2a4b65d9236b1bc1910160405180910390a15050565b6000546001600160a01b031633146104ad5760405162461bcd60e51b8152600401610414906138c0565b6104b76000610c4b565b565b6000546001600160a01b031633146104e35760405162461bcd60e51b8152600401610414906138c0565b8061271010156105435760405162461bcd60e51b815260206004820152602560248201527f434345786368616e6765526f757465723a20666565206973206f7574206f662060448201526472616e676560d81b6064820152608401610414565b600455565b806001600160a01b03811661056f5760405162461bcd60e51b81526004016104149061387f565b6000546001600160a01b031633146105995760405162461bcd60e51b8152600401610414906138c0565b50600880546001600160a01b0319166001600160a01b0392909216919091179055565b6000818152600b602052604081206005015460ff166105dc5760006105df565b60015b90505b919050565b806001600160a01b03811661060e5760405162461bcd60e51b81526004016104149061387f565b6000546001600160a01b031633146106385760405162461bcd60e51b8152600401610414906138c0565b50600680546001600160a01b0319166001600160a01b0392909216919091179055565b806001600160a01b0381166106825760405162461bcd60e51b81526004016104149061387f565b6000546001600160a01b031633146106ac5760405162461bcd60e51b8152600401610414906138c0565b50600780546001600160a01b0319166001600160a01b0392909216919091179055565b6000600260015414156107245760405162461bcd60e51b815260206004820152601f60248201527f5265656e7472616e637947756172643a207265656e7472616e742063616c6c006044820152606401610414565b6002600155816001600160a01b0381166107505760405162461bcd60e51b81526004016104149061387f565b6002548710156107ae5760405162461bcd60e51b8152602060048201526024808201527f434345786368616e6765526f757465723a207265717565737420697320746f6f604482015263081bdb1960e21b6064820152608401610414565b60006107bd8d8d8d8d8d610c9b565b6000818152600b602052604090206005015490915060ff161561083d5760405162461bcd60e51b815260206004820152603260248201527f434345786368616e6765526f757465723a20746865207265717565737420686160448201527173206265656e2075736564206265666f726560701b6064820152608401610414565b6001600160e01b03198916156108a65760405162461bcd60e51b815260206004820152602860248201527f434345786368616e6765526f757465723a206c6f636b2074696d65206973206e6044820152676f6e202d7a65726f60c01b6064820152608401610414565b6108e8848c8c8080601f016020809104026020016040519081016040528093929190818152602001838380828437600092019190915250869250610d9d915050565b61092b818989898080601f0160208091040260200160405190810160405280939291908181526020018383808284376000920191909152508b9250611353915050565b61099d5760405162461bcd60e51b815260206004820152603860248201527f434345786368616e6765526f757465723a207472616e73616374696f6e20686160448201527f73206e6f74206265656e2066696e616c697a65642079657400000000000000006064820152608401610414565b6000818152600b6020526040902060080154610a39576109bd84826114d5565b610a2f5760405162461bcd60e51b815260206004820152603760248201527f434345786368616e6765526f757465723a206e6f726d616c206363206578636860448201527f616e676520776173206e6f74207375636365737366756c0000000000000000006064820152608401610414565b6001925050610ab5565b610a438482611953565b610a2f5760405162461bcd60e51b815260206004820152603d60248201527f434345786368616e6765526f757465723a20706179696e67206261636b20696e60448201527f7374616e74206c6f616e20776173206e6f74207375636365737366756c0000006064820152608401610414565b50600180559a9950505050505050505050565b806001600160a01b038116610aef5760405162461bcd60e51b81526004016104149061387f565b6000546001600160a01b03163314610b195760405162461bcd60e51b8152600401610414906138c0565b50600580546001600160a01b0319166001600160a01b0392909216919091179055565b806001600160a01b038116610b635760405162461bcd60e51b81526004016104149061387f565b6000546001600160a01b03163314610b8d5760405162461bcd60e51b8152600401610414906138c0565b50600980546001600160a01b0319166001600160a01b0392909216919091179055565b6000546001600160a01b03163314610bda5760405162461bcd60e51b8152600401610414906138c0565b6001600160a01b038116610c3f5760405162461bcd60e51b815260206004820152602660248201527f4f776e61626c653a206e6577206f776e657220697320746865207a65726f206160448201526564647265737360d01b6064820152608401610414565b610c4881610c4b565b50565b600080546001600160a01b038381166001600160a01b0319831681178455604051919092169283917f8be0079c531659141344cd1fd0a4f28419497f9722a3daafe3b4186f6b6457e09190a35050565b60008060028787878787604051602001610cb99594939291906137ac565b60408051601f1981840301815290829052610cd3916137f1565b602060405180830381855afa158015610cf0573d6000803e3d6000fd5b5050506040513d601f19601f82011682018060405250810190610d139190613666565b90506000600282604051602001610d2c91815260200190565b60408051601f1981840301815290829052610d46916137f1565b602060405180830381855afa158015610d63573d6000803e3d6000fd5b5050506040513d601f19601f82011682018060405250810190610d869190613666565b9050610d9181611a93565b98975050505050505050565b600754604051630bb18f5f60e21b81526001600160a01b03858116600483015290911690632ec63d7c9060240160206040518083038186803b158015610de257600080fd5b505afa158015610df6573d6000803e3d6000fd5b505050506040513d601f19601f82011682018060405250810190610e1a919061357b565b610e8c5760405162461bcd60e51b815260206004820152603860248201527f434345786368616e6765526f757465723a206e6f206c6f636b6572207769746860448201527f20676976652073637269707420686173682065786973747300000000000000006064820152608401610414565b610eef60405180610140016040528060008152602001600081526020016000815260200160001515815260200160006001600160a01b03168152602001600081526020016000151581526020016060815260200160008152602001600081525090565b6060610efb8486611b13565b6001600160401b0390911660208401819052909150610f6b5760405162461bcd60e51b815260206004820152602660248201527f434345786368616e6765526f757465723a20696e70757420616d6f756e74206960448201526573207a65726f60d01b6064820152608401610414565b610f7481611cf6565b60ff1660035414610fd95760405162461bcd60e51b815260206004820152602960248201527f434345786368616e6765526f757465723a20636861696e206964206973206e6f6044820152681d0818dbdc9c9958dd60ba1b6064820152608401610414565b610fe281611d10565b61ffff1682526000610ff382611d2b565b90506001600160a01b0381166110575760405162461bcd60e51b815260206004820152602360248201527f434345786368616e6765526f757465723a206e6f2065786368616e676520746f60448201526235b2b760e91b6064820152608401610414565b61106082611d46565b6001600160e01b0316604084015261107782611d61565b60ff1661108a5760006060840152611092565b600160608401525b61109b82611d70565b6001600160a01b03166080840152604080516002808252606082018352600092602083019080368337505060085482519293506001600160a01b0316918391506000906110f857634e487b7160e01b600052603260045260246000fd5b60200260200101906001600160a01b031690816001600160a01b031681525050818160018151811061113a57634e487b7160e01b600052603260045260246000fd5b6001600160a01b039092166020928302919091019091015260e0840181905261116283611d80565b63ffffffff16610100850152600061117984611d9b565b61ffff16905061271081106111e85760405162461bcd60e51b815260206004820152602f60248201527f434345786368616e6765526f757465723a2070657263656e746167652066656560448201526e081a5cc81b9bdd0818dbdc9c9958dd608a1b6064820152608401610414565b6127108560200151826111fb9190613a29565b6112059190613a09565b60a086015261121384611dab565b60ff166101208601819052158061122f57508461012001516001145b61128a5760405162461bcd60e51b815260206004820152602660248201527f434345786368616e6765526f757465723a207370656564206973206e6f7420636044820152651bdc9c9958dd60d21b6064820152608401610414565b600160c086018181526000888152600b602090815260409182902089518155818a015194810194909455908801516002840155606088015160038401805460808b01516001600160a01b031661010002610100600160a81b031993151560ff19928316179390931692909217905560a089015160048501559151600584018054911515919093161790915560e087015180518893926113309260068501929101906133ff565b506101008201516007820155610120909101516008909101555050505050505050565b60055460405163d0a8973960e01b8152600481018590526000602482018190529182916001600160a01b039091169063d0a897399060440160206040518083038186803b1580156113a357600080fd5b505afa1580156113b7573d6000803e3d6000fd5b505050506040513d601f19601f820116820180604052508101906113db9190613666565b9050803410156114425760405162461bcd60e51b815260206004820152602c60248201527f434345786368616e6765526f757465723a207061696420666565206973206e6f60448201526b1d081cdd59999a58da595b9d60a21b6064820152608401610414565b60055460405160009161149f916001600160a01b039091169061146f908a908a908a908a9060240161383c565b60408051601f198184030181529190526020810180516001600160e01b0316634354da2560e01b17905284611dba565b90506114b4336114af8434613a71565b611dea565b808060200190518101906114c8919061357b565b925050505b949350505050565b6000806114e28484611f08565b6000848152600b60209081526040808320548352600a909152812054919250906060906001600160a01b0316801561165c5760085460405163095ea7b360e01b81526001600160a01b038381166004830152602482018790529091169063095ea7b390604401602060405180830381600087803b15801561156257600080fd5b505af1158015611576573d6000803e3d6000fd5b505050506040513d601f19601f8201168201806040525081019061159a919061357b565b506000868152600b602052604090819020600281015460038201546007830154935163161779b160e31b81526001600160a01b038087169563b0bbcd88956115fc958c959094600690920193610100820416929160ff909116906004016138f5565b600060405180830381600087803b15801561161657600080fd5b505af115801561162a573d6000803e3d6000fd5b505050506040513d6000823e601f3d908101601f191682016040526116529190810190613595565b9093509150611661565b600092505b82156117c4576000868152600b6020526040902060088101546006909101805461168d90600190613a71565b815481106116ab57634e487b7160e01b600052603260045260246000fd5b6000918252602080832090910154898352600b909152604082206003810154600690910180546001600160a01b0393841694610100909304909316927fd8d3e21a38fb9ddcfc565540f77b34cbbb084b7c985fc19fae34d906cd38687e929061172457634e487b7160e01b600052603260045260246000fd5b9060005260206000200160009054906101000a90046001600160a01b03168887600189516117529190613a71565b8151811061177057634e487b7160e01b600052603260045260246000fd5b60209081029190910181015160008e8152600b83526040908190206004015481516001600160a01b0396909616865292850193909352838301523360608401526080830152519081900360a00190a4611944565b60085460405163095ea7b360e01b81526001600160a01b038381166004830152600060248301529091169063095ea7b390604401602060405180830381600087803b15801561181257600080fd5b505af1158015611826573d6000803e3d6000fd5b505050506040513d601f19601f8201168201806040525081019061184a919061357b565b506008546000878152600b60205260409081902060030154905163a9059cbb60e01b81526001600160a01b03610100909204821660048201526024810187905291169063a9059cbb90604401602060405180830381600087803b1580156118b057600080fd5b505af11580156118c4573d6000803e3d6000fd5b505050506040513d601f19601f820116820180604052508101906118e8919061357b565b506000868152600b60209081526040918290206003015482516101009091046001600160a01b031681529081018690527f5d4c9311244204dc396691a2d73d8de63442225c2b160995afdd0bc508c033ad910160405180910390a15b60019450505050505b92915050565b6000806119608484611f08565b60085460065460405163095ea7b360e01b81526001600160a01b03918216600482015260248101849052929350169063095ea7b390604401602060405180830381600087803b1580156119b257600080fd5b505af11580156119c6573d6000803e3d6000fd5b505050506040513d601f19601f820116820180604052508101906119ea919061357b565b506006546000848152600b602052604090819020600301549051631b6396ab60e31b81526001600160a01b03610100909204821660048201526024810184905291169063db1cb55890604401602060405180830381600087803b158015611a5057600080fd5b505af1158015611a64573d6000803e3d6000fd5b505050506040513d601f19601f82011682018060405250810190611a88919061357b565b506001949350505050565b6000606081805b6020811015611b07578285611ab083601f613a71565b60208110611ace57634e487b7160e01b600052603260045260246000fd5b1a60f81b604051602001611ae392919061380d565b60405160208183030381529060405292508080611aff90613b03565b915050611a9a565b50506020015192915050565b6000606081611b30611b25868361212a565b62ffffff191661214e565b905062ffffff198082161415611b815760405162461bcd60e51b8152602060048201526016602482015275151e12195b1c195c8e881d9bdd5d081a5cc81b9d5b1b60521b6044820152606401610414565b6000806000806000611b94866000612278565b6001600160401b0316905060005b81811015611ce757611bb487826123a9565b9550611bbf866124b3565b9450611bca85612506565b935062ffffff198085161415611cc3576017601886901c6001600160601b03161480611c015750601885811c6001600160601b0316145b15611c1a57611c1762ffffff19861660036125d5565b92505b601a601886901c6001600160601b03161415611c4457611c4162ffffff19861660046125d5565b92505b6015601886901c6001600160601b03161415611c6e57611c6b62ffffff19861660026125d5565b92505b6021601886901c6001600160601b03161415611c9857611c9562ffffff19861660026125d5565b92505b896001600160a01b0316836001600160a01b03161415611cbe57611cbb866125e3565b98505b611cd5565b611cd262ffffff1985166125f7565b97505b80611cdf81613b03565b915050611ba2565b505050505050505b9250929050565b600080611d0583600080612647565b600101519392505050565b600080611d208360016002612647565b600201519392505050565b600080611d3b83601a602d612647565b601401519392505050565b600080611d5683602e6049612647565b601c01519392505050565b600080611d0583604e80612647565b600080611d3b8360036016612647565b600080611d9083604a604d612647565b600401519392505050565b600080611d208360176018612647565b600080611d0583601980612647565b6060611de0848484604051806060016040528060298152602001613b4b602991396126cc565b90505b9392505050565b80471015611e3a5760405162461bcd60e51b815260206004820152601d60248201527f416464726573733a20696e73756666696369656e742062616c616e63650000006044820152606401610414565b6000826001600160a01b03168260405160006040518083038185875af1925050503d8060008114611e87576040519150601f19603f3d011682016040523d82523d6000602084013e611e8c565b606091505b5050905080611f035760405162461bcd60e51b815260206004820152603a60248201527f416464726573733a20756e61626c6520746f2073656e642076616c75652c207260448201527f6563697069656e74206d617920686176652072657665727465640000000000006064820152608401610414565b505050565b6007546000828152600b6020526040808220600101549051636361ddf360e11b81526001600160a01b03868116600483015230602483015260448201929092529192839291169063c6c3bbe690606401602060405180830381600087803b158015611f7257600080fd5b505af1158015611f86573d6000803e3d6000fd5b505050506040513d601f19601f82011682018060405250810190611faa9190613666565b6004546000858152600b60205260408120600101549293509161271091611fd091613a29565b611fda9190613a09565b6000858152600b6020526040902060040154909150801561207b5760085460405163a9059cbb60e01b8152336004820152602481018390526001600160a01b039091169063a9059cbb90604401602060405180830381600087803b15801561204157600080fd5b505af1158015612055573d6000803e3d6000fd5b505050506040513d601f19601f82011682018060405250810190612079919061357b565b505b811561210b5760085460095460405163a9059cbb60e01b81526001600160a01b0391821660048201526024810185905291169063a9059cbb90604401602060405180830381600087803b1580156120d157600080fd5b505af11580156120e5573d6000803e3d6000fd5b505050506040513d601f19601f82011682018060405250810190612109919061357b565b505b806121168385613a71565b6121209190613a71565b9695505050505050565b81516000906020840161214564ffffffffff851682846127e9565b95945050505050565b60008181612164815b62ffffff1984169061282d565b50601884901c6001600160601b03166121835762ffffff199250612271565b6000612190856000612278565b9050601885901c6001600160601b03166001600160401b0382166121bd5762ffffff195b94505050612271565b60006121c883612907565b60ff16905060005b836001600160401b0316811015612241578282106121f85762ffffff19965050505050612271565b60006122166122078486613a71565b62ffffff198b1690600e612960565b905061222181612993565b61222b90846139a4565b925050808061223990613b03565b9150506121d0565b508181146122585762ffffff199550505050612271565b6301000000600160d81b038716600f60d81b1795505050505b5050919050565b60008061228d62ffffff1985168460016129dc565b905060fc811161229e57905061194d565b8060fd14156122fc576122c46122b58460016139a4565b62ffffff198616906002612a0c565b91506122cf82612907565b60ff166003146122f7576122f56122f062ffffff1986168560036000612b56565b612bc5565b505b6123a2565b8060fe141561234e576123226123138460016139a4565b62ffffff198616906004612a0c565b915061232d82612907565b60ff166005146122f7576122f56122f062ffffff1986168560056000612b56565b8060ff14156123a2576123746123658460016139a4565b62ffffff198616906008612a0c565b915061237f82612907565b60ff166009146123a2576123a06122f062ffffff1986168560096000612b56565b505b5092915050565b6000806123b7846000612278565b6001600160401b03169050601884901c6001600160601b03168184106124135760405162461bcd60e51b81526020600482015260116024820152702b37baba103932b0b21037bb32b9393ab760791b6044820152606401610414565b600061241e83612907565b60ff1690506000805b868110156124745761244b61243c8486613a71565b62ffffff198a1690600e612960565b915061245682612993565b61246090846139a4565b925061246d6001826139a4565b9050612427565b506124916124828385613a71565b62ffffff19891690600e612960565b9050600061249e82612993565b9050610d9162ffffff1989168483600d612b56565b600081600d6124c181612157565b5060006124cf856008612278565b90506121456008826124e084612907565b60ff166124ed91906139bc565b62ffffff19881691906001600160401b03166007612b56565b600081600761251481612157565b506000612522856000612278565b9050600061253962ffffff198716600360016129dc565b90506053826001600160401b0316118061255c57506004826001600160401b0316105b80612579575061257462ffffff1987166001806129dc565b606a14155b806125a9575061258a600383613a88565b6001600160401b03166125a662ffffff198816600360016129dc565b14155b156125b85762ffffff196121b4565b61212062ffffff19871660046001600160401b038416600c612b56565b6000611de3838360146129dc565b60006105df62ffffff198316826008612a0c565b606060008061260f8460181c6001600160601b031690565b60405193508392506001600160601b03169050612636846126318460206139a4565b612c42565b508181016020016040529052919050565b60606000835b6126588460016139a4565b8110156126c35785818151811061267f57634e487b7160e01b600052603260045260246000fd5b602001015160f81c60f81b9150828260405160200161269f92919061380d565b604051602081830303815290604052925080806126bb90613b03565b91505061264d565b50509392505050565b60608247101561272d5760405162461bcd60e51b815260206004820152602660248201527f416464726573733a20696e73756666696369656e742062616c616e636520666f6044820152651c8818d85b1b60d21b6064820152608401610414565b843b61277b5760405162461bcd60e51b815260206004820152601d60248201527f416464726573733a2063616c6c20746f206e6f6e2d636f6e74726163740000006044820152606401610414565b600080866001600160a01b0316858760405161279791906137f1565b60006040518083038185875af1925050503d80600081146127d4576040519150601f19603f3d011682016040523d82523d6000602084013e6127d9565b606091505b50915091506114c8828286612d9a565b6000806127f68484612dd3565b9050604051811115612806575060005b806128185762ffffff19915050611de3565b5050606092831b9190911790911b1760181b90565b60006128398383612e28565b61290057600061285861284c8560d81c90565b64ffffffffff16612e4b565b915050600061286d8464ffffffffff16612e4b565b6040517f5479706520617373657274696f6e206661696c65642e20476f7420307800000060208201526001600160b01b031960b086811b8216603d8401526c05c408af0e0cac6e8cac84060f609b1b604784015283901b16605482015290925060009150605e015b60405160208183030381529060405290508060405162461bcd60e51b8152600401610414919061386c565b5090919050565b600060fc826001600160401b031611612922575060016105e2565b61ffff826001600160401b03161161293c575060036105e2565b63ffffffff826001600160401b031611612958575060056105e2565b5060096105e2565b6000611de08461298c8561297d8860181c6001600160601b031690565b6001600160601b031690612f0b565b8585612b56565b600081600e6129a181612157565b5060006129af856008612278565b9050806001600160401b03166129c482612907565b60ff166129d191906139a4565b6121459060086139a4565b60006129e9826020613ab0565b6129f4906008613a48565b60ff16612a02858585612f61565b901c949350505050565b6000611de0612a1c858585612f61565b600881811c7eff00ff00ff00ff00ff00ff00ff00ff00ff00ff00ff00ff00ff00ff00ff00ff167fff00ff00ff00ff00ff00ff00ff00ff00ff00ff00ff00ff00ff00ff00ff00ff009290911b9190911617601081811c7dffff0000ffff0000ffff0000ffff0000ffff0000ffff0000ffff0000ffff167fffff0000ffff0000ffff0000ffff0000ffff0000ffff0000ffff0000ffff00009290911b9190911617602081811c7bffffffff00000000ffffffff00000000ffffffff00000000ffffffff167fffffffff00000000ffffffff00000000ffffffff00000000ffffffff000000009290911b9190911617604081811c77ffffffffffffffff0000000000000000ffffffffffffffff1677ffffffffffffffff0000000000000000ffffffffffffffff199290911b9190911617608081811c91901b1790565b600080612b6c8660781c6001600160601b031690565b6001600160601b03169050612b80866130ba565b612b9485612b8e8489612dd3565b90612dd3565b1115612ba75762ffffff199150506114cd565b612bb18186612dd3565b90506121208364ffffffffff1682866127e9565b60606000612bef612bea62ffffff19851683601887901c6001600160601b03166129dc565b612e4b565b6040517f4e6f6e2d6d696e696d616c2076617220696e742e20476f74203078000000000060208201526dffffffffffffffffffffffffffff19607083901b16603b82015290925060009150604d016128d5565b600062ffffff198084161415612cab5760405162461bcd60e51b815260206004820152602860248201527f54797065644d656d566965772f636f7079546f202d204e756c6c20706f696e7460448201526732b9103232b932b360c11b6064820152608401610414565b612cb4836130fb565b612d145760405162461bcd60e51b815260206004820152602b60248201527f54797065644d656d566965772f636f7079546f202d20496e76616c696420706f60448201526a34b73a32b9103232b932b360a91b6064820152608401610414565b6000612d298460181c6001600160601b031690565b6001600160601b031690506000612d498560781c6001600160601b031690565b6001600160601b031690506000604051905084811115612d695760206060fd5b8285848460045afa50612120612d7f8760d81c90565b64ffffffffff60601b606091821b168717901b841760181b90565b60608315612da9575081611de3565b825115612db95782518084602001fd5b8160405162461bcd60e51b8152600401610414919061386c565b600082612de083826139a4565b915081101561194d5760405162461bcd60e51b815260206004820152601460248201527364732d6d6174682d6164642d6f766572666c6f7760601b6044820152606401610414565b60008164ffffffffff16612e3c8460d81c90565b64ffffffffff16149392505050565b600080601f5b600f8160ff161115612ea9576000612e6a826008613a48565b60ff1685901c9050612e7b81613139565b61ffff16841793508160ff16601014612e9657601084901b93505b50612ea2600182613ab0565b9050612e51565b50600f5b60ff8160ff161015612f05576000612ec6826008613a48565b60ff1685901c9050612ed781613139565b61ffff16831792508160ff16600014612ef257601083901b92505b50612efe600182613ab0565b9050612ead565b50915091565b600082612f188382613a71565b915081111561194d5760405162461bcd60e51b815260206004820152601560248201527464732d6d6174682d7375622d756e646572666c6f7760581b6044820152606401610414565b600060ff8216612f7357506000611de3565b612f868460181c6001600160601b031690565b6001600160601b0316612f9c8460ff8516612dd3565b111561300057612fe7612fb88560781c6001600160601b031690565b6001600160601b0316612fd48660181c6001600160601b031690565b6001600160601b0316858560ff16613169565b60405162461bcd60e51b8152600401610414919061386c565b60208260ff16111561307a5760405162461bcd60e51b815260206004820152603a60248201527f54797065644d656d566965772f696e646578202d20417474656d70746564207460448201527f6f20696e646578206d6f7265207468616e2033322062797465730000000000006064820152608401610414565b6008820260006130938660781c6001600160601b031690565b6001600160601b031690506000600160ff1b60001984011d91909501511695945050505050565b60006130cf8260181c6001600160601b031690565b6130e28360781c6001600160601b031690565b6130ec91906139e7565b6001600160601b031692915050565b60006131078260d81c90565b64ffffffffff1664ffffffffff1415613122575060006105e2565b600061312d836130ba565b60405110199392505050565b600061314b60048360ff16901c613293565b60ff161760081b62ffff001661316082613293565b60ff1617919050565b6060600061317686612e4b565b915050600061318486612e4b565b915050600061319286612e4b565b91505060006131a086612e4b565b604080517f54797065644d656d566965772f696e646578202d204f76657272616e20746865602082015274040ecd2caee5c40a6d8d2c6ca40d2e640c2e84060f605b1b818301526001600160d01b031960d098891b811660558301526e040eed2e8d040d8cadccee8d04060f608b1b605b830181905297891b8116606a8301527f2e20417474656d7074656420746f20696e646578206174206f666673657420306070830152600f60fb1b609083015295881b861660918201526097810196909652951b90921660a68401525050601760f91b60ac8201528151808203608d01815260ad90910190915295945050505050565b600060f08083179060ff821614156132af5760309150506105e2565b8060ff1660f114156132c55760319150506105e2565b8060ff1660f214156132db5760329150506105e2565b8060ff1660f314156132f15760339150506105e2565b8060ff1660f414156133075760349150506105e2565b8060ff1660f5141561331d5760359150506105e2565b8060ff1660f614156133335760369150506105e2565b8060ff1660f714156133495760379150506105e2565b8060ff1660f8141561335f5760389150506105e2565b8060ff1660f914156133755760399150506105e2565b8060ff1660fa141561338b5760619150506105e2565b8060ff1660fb14156133a15760629150506105e2565b8060ff1660fc14156133b75760639150506105e2565b8060ff1660fd14156133cd5760649150506105e2565b8060ff1660fe14156133e35760659150506105e2565b8060ff1660ff14156133f95760669150506105e2565b50919050565b828054828255906000526020600020908101928215613454579160200282015b8281111561345457825182546001600160a01b0319166001600160a01b0390911617825560209092019160019091019061341f565b50613460929150613464565b5090565b5b808211156134605760008155600101613465565b80356001600160a01b03811681146105e257600080fd5b805180151581146105e257600080fd5b80356001600160e01b0319811681146105e257600080fd5b60008083601f8401126134c9578182fd5b5081356001600160401b038111156134df578182fd5b602083019150836020828501011115611cef57600080fd5b600082601f830112613507578081fd5b81356001600160401b0381111561352057613520613b34565b613533601f8201601f1916602001613974565b818152846020838601011115613547578283fd5b816020850160208301379081016020019190915292915050565b600060208284031215613572578081fd5b611de382613479565b60006020828403121561358c578081fd5b611de382613490565b600080604083850312156135a7578081fd5b6135b083613490565b91506020808401516001600160401b03808211156135cc578384fd5b818601915086601f8301126135df578384fd5b8151818111156135f1576135f1613b34565b8381029150613601848301613974565b8181528481019084860184860187018b101561361b578788fd5b8795505b8386101561363d57805183526001959095019491860191860161361f565b508096505050505050509250929050565b60006020828403121561365f578081fd5b5035919050565b600060208284031215613677578081fd5b5051919050565b6000806000806000806000806000806101008b8d03121561369d578586fd5b6136a68b6134a0565b995060208b01356001600160401b03808211156136c1578788fd5b6136cd8e838f016134f7565b9a5060408d01359150808211156136e2578788fd5b6136ee8e838f016134b8565b909a50985088915061370260608e016134a0565b975060808d0135965060a08d013591508082111561371e578586fd5b5061372b8d828e016134b8565b90955093505060c08b0135915061374460e08c01613479565b90509295989b9194979a5092959850565b60008060408385031215613767578182fd5b8235915061377760208401613479565b90509250929050565b60008151808452613798816020860160208601613ad3565b601f01601f19169290920160200192915050565b600063ffffffff60e01b808816835286516137ce816004860160208b01613ad3565b830185876004830137931693909201600481019390935250506008019392505050565b60008251613803818460208701613ad3565b9190910192915050565b6000835161381f818460208801613ad3565b6001600160f81b0319939093169190920190815260010192915050565b60008582528460208301526080604083015261385b6080830185613780565b905082606083015295945050505050565b600060208252611de36020830184613780565b60208082526021908201527f434345786368616e6765526f757465723a2061646472657373206973207a65726040820152606f60f81b606082015260800190565b6020808252818101527f4f776e61626c653a2063616c6c6572206973206e6f7420746865206f776e6572604082015260600190565b600060c082018883526020888185015260c0604085015281885480845260e0860191508985528285209350845b818110156139475784546001600160a01b031683526001948501949284019201613922565b50506001600160a01b039790971660608501525050506080810192909252151560a0909101529392505050565b604051601f8201601f191681016001600160401b038111828210171561399c5761399c613b34565b604052919050565b600082198211156139b7576139b7613b1e565b500190565b60006001600160401b038083168185168083038211156139de576139de613b1e565b01949350505050565b60006001600160601b038083168185168083038211156139de576139de613b1e565b600082613a2457634e487b7160e01b81526012600452602481fd5b500490565b6000816000190483118215151615613a4357613a43613b1e565b500290565b600060ff821660ff84168160ff0481118215151615613a6957613a69613b1e565b029392505050565b600082821015613a8357613a83613b1e565b500390565b60006001600160401b0383811690831681811015613aa857613aa8613b1e565b039392505050565b600060ff821660ff841680821015613aca57613aca613b1e565b90039392505050565b60005b83811015613aee578181015183820152602001613ad6565b83811115613afd576000848401525b50505050565b6000600019821415613b1757613b17613b1e565b5060010190565b634e487b7160e01b600052601160045260246000fd5b634e487b7160e01b600052604160045260246000fdfe416464726573733a206c6f772d6c6576656c2063616c6c20776974682076616c7565206661696c6564a26469706673582212204a8204b0e035afd9371637355459b93cd075b16122a75af0b58a2e56d2dd1c9d64736f6c63430008020033",
  "devdoc": {
    "kind": "dev",
    "methods": {
      "ccExchange(bytes4,bytes,bytes,bytes4,uint256,bytes,uint256,address)": {
        "details": "Mints teleBTC for user if exchanging is not successful",
        "params": {
          "_blockNumber": "Height of the block containing the user request",
          "_index": "Index of transaction containing the user request in the block",
          "_intermediateNodes": "Merkle inclusion proof for transaction containing the user request",
          "_lockerScriptHash": "Script hash of locker that user has sent BTC to it",
          "_locktime": "Lock time of the transaction containing the user request",
          "_version": "Version of the transaction containing the user request",
          "_vin": "Inputs of the transaction containing the user request",
          "_vout": "Outputs of the transaction containing the user request"
        },
        "returns": {
          "_0": ""
        }
      },
      "constructor": {
        "params": {
          "_chainId": "Id of the underlying chain",
          "_lockers": "Lockers' contract address",
          "_protocolPercentageFee": "Percentage amount of protocol fee (min: %0.01)",
          "_relay": "The Relay address to validate data from source chain",
          "_startingBlockNumber": "Requests that are included in a block older than _startingBlockNumber cannot be executed",
          "_teleBTC": "TeleportDAO BTC ERC20 token address",
          "_treasury": "Address of treasury that collects protocol fees"
        }
      },
      "isRequestUsed(bytes32)": {
        "details": "It prevents re-submitting an executed request",
        "params": {
          "_txId": "The transaction ID of request on source chain "
        },
        "returns": {
          "_0": "True if the cc exchange request has been already executed"
        }
      },
      "owner()": {
        "details": "Returns the address of the current owner."
      },
      "renounceOwnership()": {
        "details": "Leaves the contract without owner. It will not be possible to call `onlyOwner` functions anymore. Can only be called by the current owner. NOTE: Renouncing ownership will leave the contract without an owner, thereby removing any functionality that is only available to the owner."
      },
      "setExchangeConnector(uint256,address)": {
        "details": "Only owner can call this. _exchangeConnector can be set to zero to inactive an app",
        "params": {
          "_appId": "AppId of exchange connector",
          "_exchangeConnector": "Address of exchange connector"
        }
      },
      "setInstantRouter(address)": {
        "details": "Only owner can call this",
        "params": {
          "_instantRouter": "The new instantRouter contract address"
        }
      },
      "setLockers(address)": {
        "details": "Only owner can call this",
        "params": {
          "_lockers": "The new lockers contract address"
        }
      },
      "setProtocolPercentageFee(uint256)": {
        "details": "Only owner can call this",
        "params": {
          "_protocolPercentageFee": "Percentage amount of protocol fee"
        }
      },
      "setRelay(address)": {
        "details": "Only owner can call this",
        "params": {
          "_relay": "The new relay contract address"
        }
      },
      "setTeleBTC(address)": {
        "details": "Only owner can call this",
        "params": {
          "_teleBTC": "The new teleBTC contract address"
        }
      },
      "setTreasury(address)": {
        "details": "Only owner can call this",
        "params": {
          "_treasury": "Treasury address"
        }
      },
      "transferOwnership(address)": {
        "details": "Transfers ownership of the contract to a new account (`newOwner`). Can only be called by the current owner."
      }
    },
    "version": 1
  },
  "userdoc": {
    "events": {
      "CCExchange(address,address,address,uint256,uint256,uint256,address,uint256)": {
        "notice": "Emits when a cc exchange request gets done"
      },
      "FailedCCExchange(address,uint256)": {
        "notice": "Emits when a cc exchange request fails"
      },
      "SetExchangeConnector(uint256,address)": {
        "notice": "Emits when appId for an exchange connector is set"
      }
    },
    "kind": "user",
    "methods": {
      "ccExchange(bytes4,bytes,bytes,bytes4,uint256,bytes,uint256,address)": {
        "notice": "Executes a cross-chain exchange request after checking its merkle inclusion proof"
      },
      "constructor": {
        "notice": "Gives default params to initiate cc exchange router"
      },
      "isRequestUsed(bytes32)": {
        "notice": "Check if the cc exchange request has been executed before"
      },
      "setExchangeConnector(uint256,address)": {
        "notice": "Sets appId for an exchange connector"
      },
      "setInstantRouter(address)": {
        "notice": "Changes instantRouter contract address"
      },
      "setLockers(address)": {
        "notice": "Changes lockers contract address"
      },
      "setProtocolPercentageFee(uint256)": {
        "notice": "Setter for protocol percentage fee"
      },
      "setRelay(address)": {
        "notice": "Changes relay contract address"
      },
      "setTeleBTC(address)": {
        "notice": "Changes teleBTC contract address"
      },
      "setTreasury(address)": {
        "notice": "Setter for treasury"
      }
    },
    "version": 1
  },
  "storageLayout": {
    "storage": [
      {
        "astId": 807,
        "contract": "contracts/routers/CCExchangeRouter.sol:CCExchangeRouter",
        "label": "_owner",
        "offset": 0,
        "slot": "0",
        "type": "t_address"
      },
      {
        "astId": 1006,
        "contract": "contracts/routers/CCExchangeRouter.sol:CCExchangeRouter",
        "label": "_status",
        "offset": 0,
        "slot": "1",
        "type": "t_uint256"
      },
      {
        "astId": 15283,
        "contract": "contracts/routers/CCExchangeRouter.sol:CCExchangeRouter",
        "label": "startingBlockNumber",
        "offset": 0,
        "slot": "2",
        "type": "t_uint256"
      },
      {
        "astId": 15286,
        "contract": "contracts/routers/CCExchangeRouter.sol:CCExchangeRouter",
        "label": "chainId",
        "offset": 0,
        "slot": "3",
        "type": "t_uint256"
      },
      {
        "astId": 15289,
        "contract": "contracts/routers/CCExchangeRouter.sol:CCExchangeRouter",
        "label": "protocolPercentageFee",
        "offset": 0,
        "slot": "4",
        "type": "t_uint256"
      },
      {
        "astId": 15292,
        "contract": "contracts/routers/CCExchangeRouter.sol:CCExchangeRouter",
        "label": "relay",
        "offset": 0,
        "slot": "5",
        "type": "t_address"
      },
      {
        "astId": 15295,
        "contract": "contracts/routers/CCExchangeRouter.sol:CCExchangeRouter",
        "label": "instantRouter",
        "offset": 0,
        "slot": "6",
        "type": "t_address"
      },
      {
        "astId": 15298,
        "contract": "contracts/routers/CCExchangeRouter.sol:CCExchangeRouter",
        "label": "lockers",
        "offset": 0,
        "slot": "7",
        "type": "t_address"
      },
      {
        "astId": 15301,
        "contract": "contracts/routers/CCExchangeRouter.sol:CCExchangeRouter",
        "label": "teleBTC",
        "offset": 0,
        "slot": "8",
        "type": "t_address"
      },
      {
        "astId": 15304,
        "contract": "contracts/routers/CCExchangeRouter.sol:CCExchangeRouter",
        "label": "treasury",
        "offset": 0,
        "slot": "9",
        "type": "t_address"
      },
      {
        "astId": 15309,
        "contract": "contracts/routers/CCExchangeRouter.sol:CCExchangeRouter",
        "label": "exchangeConnector",
        "offset": 0,
        "slot": "10",
        "type": "t_mapping(t_uint256,t_address)"
      },
      {
        "astId": 15314,
        "contract": "contracts/routers/CCExchangeRouter.sol:CCExchangeRouter",
        "label": "ccExchangeRequests",
        "offset": 0,
        "slot": "11",
        "type": "t_mapping(t_bytes32,t_struct(ccExchangeRequest)18244_storage)"
      }
    ],
    "types": {
      "t_address": {
        "encoding": "inplace",
        "label": "address",
        "numberOfBytes": "20"
      },
      "t_array(t_address)dyn_storage": {
        "base": "t_address",
        "encoding": "dynamic_array",
        "label": "address[]",
        "numberOfBytes": "32"
      },
      "t_bool": {
        "encoding": "inplace",
        "label": "bool",
        "numberOfBytes": "1"
      },
      "t_bytes32": {
        "encoding": "inplace",
        "label": "bytes32",
        "numberOfBytes": "32"
      },
      "t_mapping(t_bytes32,t_struct(ccExchangeRequest)18244_storage)": {
        "encoding": "mapping",
        "key": "t_bytes32",
        "label": "mapping(bytes32 => struct ICCExchangeRouter.ccExchangeRequest)",
        "numberOfBytes": "32",
        "value": "t_struct(ccExchangeRequest)18244_storage"
      },
      "t_mapping(t_uint256,t_address)": {
        "encoding": "mapping",
        "key": "t_uint256",
        "label": "mapping(uint256 => address)",
        "numberOfBytes": "32",
        "value": "t_address"
      },
      "t_struct(ccExchangeRequest)18244_storage": {
        "encoding": "inplace",
        "label": "struct ICCExchangeRouter.ccExchangeRequest",
        "members": [
          {
            "astId": 18224,
            "contract": "contracts/routers/CCExchangeRouter.sol:CCExchangeRouter",
            "label": "appId",
            "offset": 0,
            "slot": "0",
            "type": "t_uint256"
          },
          {
            "astId": 18226,
            "contract": "contracts/routers/CCExchangeRouter.sol:CCExchangeRouter",
            "label": "inputAmount",
            "offset": 0,
            "slot": "1",
            "type": "t_uint256"
          },
          {
            "astId": 18228,
            "contract": "contracts/routers/CCExchangeRouter.sol:CCExchangeRouter",
            "label": "outputAmount",
            "offset": 0,
            "slot": "2",
            "type": "t_uint256"
          },
          {
            "astId": 18230,
            "contract": "contracts/routers/CCExchangeRouter.sol:CCExchangeRouter",
            "label": "isFixedToken",
            "offset": 0,
            "slot": "3",
            "type": "t_bool"
          },
          {
            "astId": 18232,
            "contract": "contracts/routers/CCExchangeRouter.sol:CCExchangeRouter",
            "label": "recipientAddress",
            "offset": 1,
            "slot": "3",
            "type": "t_address"
          },
          {
            "astId": 18234,
            "contract": "contracts/routers/CCExchangeRouter.sol:CCExchangeRouter",
            "label": "fee",
            "offset": 0,
            "slot": "4",
            "type": "t_uint256"
          },
          {
            "astId": 18236,
            "contract": "contracts/routers/CCExchangeRouter.sol:CCExchangeRouter",
            "label": "isUsed",
            "offset": 0,
            "slot": "5",
            "type": "t_bool"
          },
          {
            "astId": 18239,
            "contract": "contracts/routers/CCExchangeRouter.sol:CCExchangeRouter",
            "label": "path",
            "offset": 0,
            "slot": "6",
            "type": "t_array(t_address)dyn_storage"
          },
          {
            "astId": 18241,
            "contract": "contracts/routers/CCExchangeRouter.sol:CCExchangeRouter",
            "label": "deadline",
            "offset": 0,
            "slot": "7",
            "type": "t_uint256"
          },
          {
            "astId": 18243,
            "contract": "contracts/routers/CCExchangeRouter.sol:CCExchangeRouter",
            "label": "speed",
            "offset": 0,
            "slot": "8",
            "type": "t_uint256"
          }
        ],
        "numberOfBytes": "288"
      },
      "t_uint256": {
        "encoding": "inplace",
        "label": "uint256",
        "numberOfBytes": "32"
      }
    }
  }
}