{
  "address": "0x2885b0e9B7fA2A14a22443D6bF5f19a5A835eBeA",
  "abi": [
    {
      "inputs": [
        {
          "internalType": "uint256",
          "name": "_startingBlockNumber",
          "type": "uint256"
        },
        {
          "internalType": "uint256",
          "name": "_protocolPercentageFee",
          "type": "uint256"
        },
        {
          "internalType": "uint256",
          "name": "_chainId",
          "type": "uint256"
        },
        {
          "internalType": "uint256",
          "name": "_appId",
          "type": "uint256"
        },
        {
          "internalType": "address",
          "name": "_relay",
          "type": "address"
        },
        {
          "internalType": "address",
          "name": "_lockers",
          "type": "address"
        },
        {
          "internalType": "address",
          "name": "_teleBTC",
          "type": "address"
        },
        {
          "internalType": "address",
          "name": "_treasury",
          "type": "address"
        }
      ],
      "stateMutability": "nonpayable",
      "type": "constructor"
    },
    {
      "anonymous": false,
      "inputs": [
        {
          "indexed": true,
          "internalType": "address",
          "name": "user",
          "type": "address"
        },
        {
          "indexed": false,
          "internalType": "uint256",
          "name": "inputAmount",
          "type": "uint256"
        },
        {
          "indexed": false,
          "internalType": "uint256",
          "name": "receivedAmount",
          "type": "uint256"
        },
        {
          "indexed": true,
          "internalType": "uint256",
          "name": "speed",
          "type": "uint256"
        },
        {
          "indexed": false,
          "internalType": "address",
          "name": "teleporter",
          "type": "address"
        },
        {
          "indexed": false,
          "internalType": "uint256",
          "name": "teleporterFee",
          "type": "uint256"
        }
      ],
      "name": "CCTransfer",
      "type": "event"
    },
    {
      "anonymous": false,
      "inputs": [
        {
          "indexed": true,
          "internalType": "address",
          "name": "previousOwner",
          "type": "address"
        },
        {
          "indexed": true,
          "internalType": "address",
          "name": "newOwner",
          "type": "address"
        }
      ],
      "name": "OwnershipTransferred",
      "type": "event"
    },
    {
      "inputs": [],
      "name": "appId",
      "outputs": [
        {
          "internalType": "uint256",
          "name": "",
          "type": "uint256"
        }
      ],
      "stateMutability": "view",
      "type": "function"
    },
    {
      "inputs": [
        {
          "internalType": "bytes4",
          "name": "_version",
          "type": "bytes4"
        },
        {
          "internalType": "bytes",
          "name": "_vin",
          "type": "bytes"
        },
        {
          "internalType": "bytes",
          "name": "_vout",
          "type": "bytes"
        },
        {
          "internalType": "bytes4",
          "name": "_locktime",
          "type": "bytes4"
        },
        {
          "internalType": "uint256",
          "name": "_blockNumber",
          "type": "uint256"
        },
        {
          "internalType": "bytes",
          "name": "_intermediateNodes",
          "type": "bytes"
        },
        {
          "internalType": "uint256",
          "name": "_index",
          "type": "uint256"
        },
        {
          "internalType": "bytes",
          "name": "_lockerLockingScript",
          "type": "bytes"
        }
      ],
      "name": "ccTransfer",
      "outputs": [
        {
          "internalType": "bool",
          "name": "",
          "type": "bool"
        }
      ],
      "stateMutability": "payable",
      "type": "function"
    },
    {
      "inputs": [
        {
          "internalType": "bytes32",
          "name": "",
          "type": "bytes32"
        }
      ],
      "name": "ccTransferRequests",
      "outputs": [
        {
          "internalType": "uint256",
          "name": "inputAmount",
          "type": "uint256"
        },
        {
          "internalType": "address",
          "name": "recipientAddress",
          "type": "address"
        },
        {
          "internalType": "uint256",
          "name": "fee",
          "type": "uint256"
        },
        {
          "internalType": "uint256",
          "name": "speed",
          "type": "uint256"
        },
        {
          "internalType": "bool",
          "name": "isUsed",
          "type": "bool"
        }
      ],
      "stateMutability": "view",
      "type": "function"
    },
    {
      "inputs": [],
      "name": "chainId",
      "outputs": [
        {
          "internalType": "uint256",
          "name": "",
          "type": "uint256"
        }
      ],
      "stateMutability": "view",
      "type": "function"
    },
    {
      "inputs": [],
      "name": "instantRouter",
      "outputs": [
        {
          "internalType": "address",
          "name": "",
          "type": "address"
        }
      ],
      "stateMutability": "view",
      "type": "function"
    },
    {
      "inputs": [
        {
          "internalType": "bytes32",
          "name": "_txId",
          "type": "bytes32"
        }
      ],
      "name": "isRequestUsed",
      "outputs": [
        {
          "internalType": "bool",
          "name": "",
          "type": "bool"
        }
      ],
      "stateMutability": "view",
      "type": "function"
    },
    {
      "inputs": [],
      "name": "lockers",
      "outputs": [
        {
          "internalType": "address",
          "name": "",
          "type": "address"
        }
      ],
      "stateMutability": "view",
      "type": "function"
    },
    {
      "inputs": [],
      "name": "owner",
      "outputs": [
        {
          "internalType": "address",
          "name": "",
          "type": "address"
        }
      ],
      "stateMutability": "view",
      "type": "function"
    },
    {
      "inputs": [],
      "name": "protocolPercentageFee",
      "outputs": [
        {
          "internalType": "uint256",
          "name": "",
          "type": "uint256"
        }
      ],
      "stateMutability": "view",
      "type": "function"
    },
    {
      "inputs": [],
      "name": "relay",
      "outputs": [
        {
          "internalType": "address",
          "name": "",
          "type": "address"
        }
      ],
      "stateMutability": "view",
      "type": "function"
    },
    {
      "inputs": [],
      "name": "renounceOwnership",
      "outputs": [],
      "stateMutability": "nonpayable",
      "type": "function"
    },
    {
      "inputs": [
        {
          "internalType": "address",
          "name": "_instantRouter",
          "type": "address"
        }
      ],
      "name": "setInstantRouter",
      "outputs": [],
      "stateMutability": "nonpayable",
      "type": "function"
    },
    {
      "inputs": [
        {
          "internalType": "address",
          "name": "_lockers",
          "type": "address"
        }
      ],
      "name": "setLockers",
      "outputs": [],
      "stateMutability": "nonpayable",
      "type": "function"
    },
    {
      "inputs": [
        {
          "internalType": "uint256",
          "name": "_protocolPercentageFee",
          "type": "uint256"
        }
      ],
      "name": "setProtocolPercentageFee",
      "outputs": [],
      "stateMutability": "nonpayable",
      "type": "function"
    },
    {
      "inputs": [
        {
          "internalType": "address",
          "name": "_relay",
          "type": "address"
        }
      ],
      "name": "setRelay",
      "outputs": [],
      "stateMutability": "nonpayable",
      "type": "function"
    },
    {
      "inputs": [
        {
          "internalType": "address",
          "name": "_teleBTC",
          "type": "address"
        }
      ],
      "name": "setTeleBTC",
      "outputs": [],
      "stateMutability": "nonpayable",
      "type": "function"
    },
    {
      "inputs": [
        {
          "internalType": "address",
          "name": "_treasury",
          "type": "address"
        }
      ],
      "name": "setTreasury",
      "outputs": [],
      "stateMutability": "nonpayable",
      "type": "function"
    },
    {
      "inputs": [],
      "name": "startingBlockNumber",
      "outputs": [
        {
          "internalType": "uint256",
          "name": "",
          "type": "uint256"
        }
      ],
      "stateMutability": "view",
      "type": "function"
    },
    {
      "inputs": [],
      "name": "teleBTC",
      "outputs": [
        {
          "internalType": "address",
          "name": "",
          "type": "address"
        }
      ],
      "stateMutability": "view",
      "type": "function"
    },
    {
      "inputs": [
        {
          "internalType": "address",
          "name": "newOwner",
          "type": "address"
        }
      ],
      "name": "transferOwnership",
      "outputs": [],
      "stateMutability": "nonpayable",
      "type": "function"
    },
    {
      "inputs": [],
      "name": "treasury",
      "outputs": [
        {
          "internalType": "address",
          "name": "",
          "type": "address"
        }
      ],
      "stateMutability": "view",
      "type": "function"
    }
  ],
  "transactionHash": "0x4d6d2ac2debc15b0c40b877aabed87b3be9e8ddb52ea1262eeaf007fd82bf65e",
  "args": [
    "2345227",
    50,
    3,
    0,
    "0xeD822340947D232F4A4cf207d31b179BC8892C21",
    "0x4F7B590B54D5cDa817Bd8eC0DCf303591A101d03",
    "0x702B942b88128FD792FF4cDce8eAE9c625014111",
    "0x5364E3557572bd5D5903C0e9C21BE359F2Eac1dA"
  ],
  "numDeployments": 1,
  "solcInputHash": "86f0fd2b9e90320249e3db03af84b94f",
  "bytecode": "0x60806040523480156200001157600080fd5b506040516200357f3803806200357f833981016040819052620000349162000185565b6200003f3362000118565b6001805560028890556005879055612710871115620000b55760405162461bcd60e51b815260206004820152602860248201527f43435472616e73666572526f757465723a20696e76616c69642070657263656e604482015267746167652066656560c01b606482015260840160405180910390fd5b600395909555600493909355600680546001600160a01b03199081166001600160a01b03948516179091556007805482169284169290921790915560088054821693831693909317909255600a8054909216921691909117905550620002089050565b600080546001600160a01b038381166001600160a01b0319831681178455604051919092169283917f8be0079c531659141344cd1fd0a4f28419497f9722a3daafe3b4186f6b6457e09190a35050565b80516001600160a01b03811681146200018057600080fd5b919050565b600080600080600080600080610100898b031215620001a2578384fd5b88519750602089015196506040890151955060608901519450620001c960808a0162000168565b9350620001d960a08a0162000168565b9250620001e960c08a0162000168565b9150620001f960e08a0162000168565b90509295985092959890939650565b61336780620002186000396000f3fe60806040526004361061012a5760003560e01c806380bc4726116100ab578063b14d35321161006f578063b14d353214610373578063b59589d114610393578063c805f68b146103b3578063e35a0a88146103d3578063f0f44260146103f3578063f2fde38b146104135761012a565b806380bc4726146102df578063870ba6cf146102ff5780638d3d78cd1461031f5780638da5cb5b1461033f5780639a8a05921461035d5761012a565b8063765f0233116100f2578063765f0233146101dd57806378943c73146102665780637ed55748146102895780637f0f1817146102a957806380afdea8146102c95761012a565b80631812adb61461012f5780631876dec41461015857806361d027b31461019057806370872aa5146101b0578063715018a6146101c6575b600080fd5b34801561013b57600080fd5b5061014560055481565b6040519081526020015b60405180910390f35b34801561016457600080fd5b50600754610178906001600160a01b031681565b6040516001600160a01b03909116815260200161014f565b34801561019c57600080fd5b50600a54610178906001600160a01b031681565b3480156101bc57600080fd5b5061014560025481565b3480156101d257600080fd5b506101db610433565b005b3480156101e957600080fd5b506102346101f8366004612e67565b600b602052600090815260409020805460018201546002830154600384015460049094015492936001600160a01b039092169290919060ff1685565b604080519586526001600160a01b0390941660208601529284019190915260608301521515608082015260a00161014f565b610279610274366004612e97565b610472565b604051901515815260200161014f565b34801561029557600080fd5b506101db6102a4366004612e67565b6108c3565b3480156102b557600080fd5b506101db6102c4366004612e20565b61095b565b3480156102d557600080fd5b5061014560045481565b3480156102eb57600080fd5b506102796102fa366004612e67565b6109cf565b34801561030b57600080fd5b506101db61031a366004612e20565b6109fa565b34801561032b57600080fd5b50600854610178906001600160a01b031681565b34801561034b57600080fd5b506000546001600160a01b0316610178565b34801561036957600080fd5b5061014560035481565b34801561037f57600080fd5b506101db61038e366004612e20565b610a6e565b34801561039f57600080fd5b50600654610178906001600160a01b031681565b3480156103bf57600080fd5b506101db6103ce366004612e20565b610ae2565b3480156103df57600080fd5b50600954610178906001600160a01b031681565b3480156103ff57600080fd5b506101db61040e366004612e20565b610b56565b34801561041f57600080fd5b506101db61042e366004612e20565b610bca565b6000546001600160a01b031633146104665760405162461bcd60e51b815260040161045d90613108565b60405180910390fd5b6104706000610c65565b565b6000600260015414156104c75760405162461bcd60e51b815260206004820152601f60248201527f5265656e7472616e637947756172643a207265656e7472616e742063616c6c00604482015260640161045d565b600260018190555487101561052a5760405162461bcd60e51b8152602060048201526024808201527f43435472616e73666572526f757465723a207265717565737420697320746f6f604482015263081bdb1960e21b606482015260840161045d565b600061056f8d8d8d8d8080601f0160208091040260200160405190810160405280939291908181526020018383808284376000920191909152508f9250610cb5915050565b6000818152600b602052604090206004015490915060ff16156105eb5760405162461bcd60e51b815260206004820152602e60248201527f43435472616e73666572526f757465723a20726571756573742068617320626560448201526d656e2075736564206265666f726560901b606482015260840161045d565b6001600160e01b03198916156106545760405162461bcd60e51b815260206004820152602860248201527f43435472616e73666572526f757465723a206c6f636b2074696d65206973206e6044820152676f6e202d7a65726f60c01b606482015260840161045d565b6106da84848080601f016020809104026020016040519081016040528093929190818152602001838380828437600081840152601f19601f820116905080830192505050505050508c8c8080601f016020809104026020016040519081016040528093929190818152602001838380828437600092019190915250869250610db6915050565b61071d818989898080601f0160208091040260200160405190810160405280939291908181526020018383808284376000920191909152508b92506111df915050565b61078f5760405162461bcd60e51b815260206004820152603860248201527f43435472616e73666572526f757465723a207472616e73616374696f6e20686160448201527f73206e6f74206265656e2066696e616c697a6564207965740000000000000000606482015260840161045d565b6000818152600b602052604090206003015461086d5760006107e885858080601f016020809104026020016040519081016040528093929190818152602001838380828437600092019190915250869250611354915050565b6000838152600b6020908152604091829020600381015460018201548254600290930154855193845293830186905233838601526060830193909352925193945091926001600160a01b03909116917f08a51b22dd24d38c51ccc9872362ff33007184fcfb312edb79d074a40a8953b2919081900360800190a36001925050506108b0565b60006107e885858080601f016020809104026020016040519081016040528093929190818152602001838380828437600092019190915250869250611402915050565b600180559b9a5050505050505050505050565b6000546001600160a01b031633146108ed5760405162461bcd60e51b815260040161045d90613108565b8061271010156109565760405162461bcd60e51b815260206004820152602e60248201527f43435472616e73666572526f757465723a2070726f746f636f6c20666565206960448201526d73206f7574206f662072616e676560901b606482015260840161045d565b600555565b806001600160a01b0381166109825760405162461bcd60e51b815260040161045d906130c7565b6000546001600160a01b031633146109ac5760405162461bcd60e51b815260040161045d90613108565b50600880546001600160a01b0319166001600160a01b0392909216919091179055565b6000818152600b602052604081206004015460ff166109ef5760006109f2565b60015b90505b919050565b806001600160a01b038116610a215760405162461bcd60e51b815260040161045d906130c7565b6000546001600160a01b03163314610a4b5760405162461bcd60e51b815260040161045d90613108565b50600980546001600160a01b0319166001600160a01b0392909216919091179055565b806001600160a01b038116610a955760405162461bcd60e51b815260040161045d906130c7565b6000546001600160a01b03163314610abf5760405162461bcd60e51b815260040161045d90613108565b50600780546001600160a01b0319166001600160a01b0392909216919091179055565b806001600160a01b038116610b095760405162461bcd60e51b815260040161045d906130c7565b6000546001600160a01b03163314610b335760405162461bcd60e51b815260040161045d90613108565b50600680546001600160a01b0319166001600160a01b0392909216919091179055565b806001600160a01b038116610b7d5760405162461bcd60e51b815260040161045d906130c7565b6000546001600160a01b03163314610ba75760405162461bcd60e51b815260040161045d90613108565b50600a80546001600160a01b0319166001600160a01b0392909216919091179055565b6000546001600160a01b03163314610bf45760405162461bcd60e51b815260040161045d90613108565b6001600160a01b038116610c595760405162461bcd60e51b815260206004820152602660248201527f4f776e61626c653a206e6577206f776e657220697320746865207a65726f206160448201526564647265737360d01b606482015260840161045d565b610c6281610c65565b50565b600080546001600160a01b038381166001600160a01b0319831681178455604051919092169283917f8be0079c531659141344cd1fd0a4f28419497f9722a3daafe3b4186f6b6457e09190a35050565b600080600286868686604051602001610cd19493929190612fb8565b60408051601f1981840301815290829052610ceb9161300b565b602060405180830381855afa158015610d08573d6000803e3d6000fd5b5050506040513d601f19601f82011682018060405250810190610d2b9190612e7f565b90506000600282604051602001610d4491815260200190565b60408051601f1981840301815290829052610d5e9161300b565b602060405180830381855afa158015610d7b573d6000803e3d6000fd5b5050506040513d601f19601f82011682018060405250810190610d9e9190612e7f565b9050610da9816114e4565b925050505b949350505050565b60075460405163aff2faa360e01b81526001600160a01b039091169063aff2faa390610de6908690600401613086565b60206040518083038186803b158015610dfe57600080fd5b505afa158015610e12573d6000803e3d6000fd5b505050506040513d601f19601f82011682018060405250810190610e369190612e47565b610eaa576040805162461bcd60e51b81526020600482015260248101919091527f43435472616e73666572526f757465723a206e6f206c6f636b6572207769746860448201527f2074686520676976656e206c6f636b696e672073637269707420657869737473606482015260840161045d565b610ee76040518060a001604052806000815260200160006001600160a01b0316815260200160008152602001600081526020016000151581525090565b6060610ef38486611564565b6001600160401b03909116808452909150610f5f5760405162461bcd60e51b815260206004820152602660248201527f43435472616e73666572526f757465723a20696e70757420616d6f756e74206960448201526573207a65726f60d01b606482015260840161045d565b600354610f6b826116dc565b60ff1614610fcd5760405162461bcd60e51b815260206004820152602960248201527f43435472616e73666572526f757465723a20636861696e206964206973206e6f6044820152681d0818dbdc9c9958dd60ba1b606482015260840161045d565b600454610fd9826116f6565b61ffff161461103a5760405162461bcd60e51b815260206004820152602760248201527f43435472616e73666572526f757465723a20617070206964206973206e6f742060448201526618dbdc9c9958dd60ca1b606482015260840161045d565b600061104582611711565b61ffff1690506127108111156110b65760405162461bcd60e51b815260206004820152603060248201527f43435472616e73666572526f757465723a2070657263656e746167652066656560448201526f206973206f7574206f662072616e676560801b606482015260840161045d565b8251612710906110c690836131e7565b6110d091906131c7565b60408401526110de82611721565b6001600160a01b031660208401526110f58261173c565b60ff1660608401819052158061110f575082606001516001145b61116b5760405162461bcd60e51b815260206004820152602760248201527f43435472616e73666572526f757465723a207370656564206973206f7574206f604482015266662072616e676560c81b606482015260840161045d565b50506001608082018181526000938452600b6020908152604094859020845181559084015192810180546001600160a01b0319166001600160a01b0390941693909317909255928201516002820155606090910151600382015590516004909101805460ff19169115159190911790555050565b60065460405163d0a8973960e01b8152600481018590526000602482018190529182916001600160a01b039091169063d0a897399060440160206040518083038186803b15801561122f57600080fd5b505afa158015611243573d6000803e3d6000fd5b505050506040513d601f19601f820116820180604052508101906112679190612e7f565b9050803410156112ce5760405162461bcd60e51b815260206004820152602c60248201527f43435472616e73666572526f757465723a207061696420666565206973206e6f60448201526b1d081cdd59999a58da595b9d60a21b606482015260840161045d565b60065460405160009161132b916001600160a01b03909116906112fb908a908a908a908a90602401613056565b60408051601f198184030181529190526020810180516001600160e01b0316634354da2560e01b1790528461174b565b90506113403361133b843461322f565b61177b565b80806020019051810190610da99190612e47565b60006113608383611899565b6008546000848152600b60205260409081902060010154905163a9059cbb60e01b81526001600160a01b03918216600482015260248101849052929350169063a9059cbb906044015b602060405180830381600087803b1580156113c357600080fd5b505af11580156113d7573d6000803e3d6000fd5b505050506040513d601f19601f820116820180604052508101906113fb9190612e47565b5092915050565b600061140e8383611899565b60085460095460405163095ea7b360e01b81526001600160a01b03918216600482015260248101849052929350169063095ea7b390604401602060405180830381600087803b15801561146057600080fd5b505af1158015611474573d6000803e3d6000fd5b505050506040513d601f19601f820116820180604052508101906114989190612e47565b506009546000838152600b602052604090819020600101549051631b6396ab60e31b81526001600160a01b0391821660048201526024810184905291169063db1cb558906044016113a9565b6000606081805b602081101561155857828561150183601f61322f565b6020811061151f57634e487b7160e01b600052603260045260246000fd5b1a60f81b604051602001611534929190613027565b60405160208183030381529060405292508080611550906132c1565b9150506114eb565b50506020015192915050565b600060608161157b6115768683611aae565b611ad4565b905062ffffff1980821614156115d35760405162461bcd60e51b815260206004820152601b60248201527f426974636f696e48656c7065723a20766f7574206973206e756c6c0000000000604482015260640161045d565b60008060008060006115e6866000611bfe565b6001600160401b0316905060005b818110156116ce576116068782611d2e565b955061161186611e45565b945061161c86611ea2565b935061162784611eec565b925062ffffff1980841614156116aa5789604051602001611648919061300b565b6040516020818303038152906040528051906020012061166d8662ffffff1916611fbb565b60405160200161167d919061300b565b6040516020818303038152906040528051906020012014156116a5576116a28661200b565b98505b6116bc565b6116b962ffffff198416611fbb565b97505b806116c6816132c1565b9150506115f4565b505050505050509250929050565b6000806116eb8360008061202d565b600101519392505050565b600080611706836001600261202d565b600201519392505050565b600080611706836017601861202d565b600080611731836003601661202d565b601401519392505050565b6000806116eb8360198061202d565b6060611771848484604051806060016040528060298152602001613309602991396120b2565b90505b9392505050565b804710156117cb5760405162461bcd60e51b815260206004820152601d60248201527f416464726573733a20696e73756666696369656e742062616c616e6365000000604482015260640161045d565b6000826001600160a01b03168260405160006040518083038185875af1925050503d8060008114611818576040519150601f19603f3d011682016040523d82523d6000602084013e61181d565b606091505b50509050806118945760405162461bcd60e51b815260206004820152603a60248201527f416464726573733a20756e61626c6520746f2073656e642076616c75652c207260448201527f6563697069656e74206d61792068617665207265766572746564000000000000606482015260840161045d565b505050565b6007546000828152600b60205260408082205490516307f3f86760e21b8152919283926001600160a01b0390911691631fcfe19c916118df918891309190600401613099565b602060405180830381600087803b1580156118f957600080fd5b505af115801561190d573d6000803e3d6000fd5b505050506040513d601f19601f820116820180604052508101906119319190612e7f565b6005546000858152600b60205260408120549293509161271091611954916131e7565b61195e91906131c7565b6000858152600b602052604090206002015490915080156119ff5760085460405163a9059cbb60e01b8152336004820152602481018390526001600160a01b039091169063a9059cbb90604401602060405180830381600087803b1580156119c557600080fd5b505af11580156119d9573d6000803e3d6000fd5b505050506040513d601f19601f820116820180604052508101906119fd9190612e47565b505b8115611a8f57600854600a5460405163a9059cbb60e01b81526001600160a01b0391821660048201526024810185905291169063a9059cbb90604401602060405180830381600087803b158015611a5557600080fd5b505af1158015611a69573d6000803e3d6000fd5b505050506040513d601f19601f82011682018060405250810190611a8d9190612e47565b505b80611a9a838561322f565b611aa4919061322f565b9695505050505050565b815160009060208401611ac964ffffffffff851682846121cf565b925050505b92915050565b60008181611aea815b62ffffff19841690612213565b50601884901c6001600160601b0316611b095762ffffff199250611bf7565b6000611b16856000611bfe565b9050601885901c6001600160601b03166001600160401b038216611b435762ffffff195b94505050611bf7565b6000611b4e836122ed565b60ff16905060005b836001600160401b0316811015611bc757828210611b7e5762ffffff19965050505050611bf7565b6000611b9c611b8d848661322f565b62ffffff198b1690600e612346565b9050611ba78161237a565b611bb1908461313d565b9250508080611bbf906132c1565b915050611b56565b50818114611bde5762ffffff199550505050611bf7565b6301000000600160d81b038716600f60d81b1795505050505b5050919050565b600080611c1362ffffff1985168460016123c3565b905060fc8111611c24579050611ace565b8060fd1415611c8257611c4a611c3b84600161313d565b62ffffff1986169060026123f3565b9150611c55826122ed565b60ff16600314611c7d57611c7b611c7662ffffff198616856003600061253d565b6125ad565b505b6113fb565b8060fe1415611cd457611ca8611c9984600161313d565b62ffffff1986169060046123f3565b9150611cb3826122ed565b60ff16600514611c7d57611c7b611c7662ffffff198616856005600061253d565b8060ff14156113fb57611cfa611ceb84600161313d565b62ffffff1986169060086123f3565b9150611d05826122ed565b60ff166009146113fb57611d26611c7662ffffff198616856009600061253d565b505092915050565b600082600f611d3c81611add565b506000611d4a866000611bfe565b6001600160401b03169050601886901c6001600160601b0316818610611da65760405162461bcd60e51b81526020600482015260116024820152702b37baba103932b0b21037bb32b9393ab760791b604482015260640161045d565b6000611db1836122ed565b60ff1690506000805b88811015611e0757611dde611dcf848661322f565b62ffffff198c1690600e612346565b9150611de98261237a565b611df3908461313d565b9250611e0060018261313d565b9050611dba565b50611e15611b8d838561322f565b90506000611e228261237a565b9050611e3762ffffff198b168483600d61253d565b9a9950505050505050505050565b600081600d611e5381611add565b506000611e61856008611bfe565b9050611e99611e6f826122ed565b611e7a906008613180565b60ff166001600160401b03831660075b62ffffff19891692919061253d565b95945050505050565b600081600d611eb081611add565b506000611ebe856008611bfe565b9050611e99600882611ecf846122ed565b60ff16611edc9190613155565b6001600160401b03166007611e8a565b6000816007611efa81611add565b506000611f08856000611bfe565b90506000611f1f62ffffff198716600260016123c3565b9050604d826001600160401b03161180611f4257506004826001600160401b0316105b80611f5f5750611f5a62ffffff1987166001806123c3565b606a14155b80611f8f5750611f70600283613246565b6001600160401b0316611f8c62ffffff198816600260016123c3565b14155b15611f9e5762ffffff19611b3a565b611aa462ffffff19871660036001600160401b038416600c61253d565b6060600080611fd38460181c6001600160601b031690565b60405193508392506001600160601b03169050611ffa84611ff584602061313d565b61262a565b508181016020016040529052919050565b600081600d61201981611add565b50610dae62ffffff198516600060086123f3565b60606000835b61203e84600161313d565b8110156120a95785818151811061206557634e487b7160e01b600052603260045260246000fd5b602001015160f81c60f81b91508282604051602001612085929190613027565b604051602081830303815290604052925080806120a1906132c1565b915050612033565b50509392505050565b6060824710156121135760405162461bcd60e51b815260206004820152602660248201527f416464726573733a20696e73756666696369656e742062616c616e636520666f6044820152651c8818d85b1b60d21b606482015260840161045d565b843b6121615760405162461bcd60e51b815260206004820152601d60248201527f416464726573733a2063616c6c20746f206e6f6e2d636f6e7472616374000000604482015260640161045d565b600080866001600160a01b0316858760405161217d919061300b565b60006040518083038185875af1925050503d80600081146121ba576040519150601f19603f3d011682016040523d82523d6000602084013e6121bf565b606091505b5091509150610da9828286612782565b6000806121dc838561313d565b90506040518111156121ec575060005b806121fe5762ffffff19915050611774565b5050606092831b9190911790911b1760181b90565b600061221f83836127bb565b6122e657600061223e6122328560d81c90565b64ffffffffff166127de565b91505060006122538464ffffffffff166127de565b6040517f5479706520617373657274696f6e206661696c65642e20476f7420307800000060208201526001600160b01b031960b086811b8216603d8401526c05c408af0e0cac6e8cac84060f609b1b604784015283901b16605482015290925060009150605e015b60405160208183030381529060405290508060405162461bcd60e51b815260040161045d9190613086565b5090919050565b600060fc826001600160401b031611612308575060016109f5565b61ffff826001600160401b031611612322575060036109f5565b63ffffffff826001600160401b03161161233e575060056109f5565b5060096109f5565b600061177184846123608760181c6001600160601b031690565b6001600160601b0316612373919061322f565b858561253d565b600081600e61238881611add565b506000612396856008611bfe565b9050806001600160401b03166123ab826122ed565b60ff166123b8919061313d565b611e9990600861313d565b60006123d082602061326e565b6123db906008613206565b60ff166123e985858561289e565b901c949350505050565b600061177161240385858561289e565b600881811c7eff00ff00ff00ff00ff00ff00ff00ff00ff00ff00ff00ff00ff00ff00ff00ff167fff00ff00ff00ff00ff00ff00ff00ff00ff00ff00ff00ff00ff00ff00ff00ff009290911b9190911617601081811c7dffff0000ffff0000ffff0000ffff0000ffff0000ffff0000ffff0000ffff167fffff0000ffff0000ffff0000ffff0000ffff0000ffff0000ffff0000ffff00009290911b9190911617602081811c7bffffffff00000000ffffffff00000000ffffffff00000000ffffffff167fffffffff00000000ffffffff00000000ffffffff00000000ffffffff000000009290911b9190911617604081811c77ffffffffffffffff0000000000000000ffffffffffffffff1677ffffffffffffffff0000000000000000ffffffffffffffff199290911b9190911617608081811c91901b1790565b6000806125538660781c6001600160601b031690565b6001600160601b03169050612567866129f7565b84612572878461313d565b61257c919061313d565b111561258f5762ffffff19915050610dae565b612599858261313d565b9050611aa48364ffffffffff1682866121cf565b606060006125d76125d262ffffff19851683601887901c6001600160601b03166123c3565b6127de565b6040517f4e6f6e2d6d696e696d616c2076617220696e742e20476f74203078000000000060208201526dffffffffffffffffffffffffffff19607083901b16603b82015290925060009150604d016122bb565b600062ffffff1980841614156126935760405162461bcd60e51b815260206004820152602860248201527f54797065644d656d566965772f636f7079546f202d204e756c6c20706f696e7460448201526732b9103232b932b360c11b606482015260840161045d565b61269c83612a38565b6126fc5760405162461bcd60e51b815260206004820152602b60248201527f54797065644d656d566965772f636f7079546f202d20496e76616c696420706f60448201526a34b73a32b9103232b932b360a91b606482015260840161045d565b60006127118460181c6001600160601b031690565b6001600160601b0316905060006127318560781c6001600160601b031690565b6001600160601b0316905060006040519050848111156127515760206060fd5b8285848460045afa50611aa46127678760d81c90565b64ffffffffff60601b606091821b168717901b841760181b90565b60608315612791575081611774565b8251156127a15782518084602001fd5b8160405162461bcd60e51b815260040161045d9190613086565b60008164ffffffffff166127cf8460d81c90565b64ffffffffff16149392505050565b600080601f5b600f8160ff16111561283c5760006127fd826008613206565b60ff1685901c905061280e81612a76565b61ffff16841793508160ff1660101461282957601084901b93505b5061283560018261326e565b90506127e4565b50600f5b60ff8160ff161015612898576000612859826008613206565b60ff1685901c905061286a81612a76565b61ffff16831792508160ff1660001461288557601083901b92505b5061289160018261326e565b9050612840565b50915091565b600060ff82166128b057506000611774565b6128c38460181c6001600160601b031690565b6001600160601b03166128d960ff84168561313d565b111561293d576129246128f58560781c6001600160601b031690565b6001600160601b03166129118660181c6001600160601b031690565b6001600160601b0316858560ff16612aa6565b60405162461bcd60e51b815260040161045d9190613086565b60208260ff1611156129b75760405162461bcd60e51b815260206004820152603a60248201527f54797065644d656d566965772f696e646578202d20417474656d70746564207460448201527f6f20696e646578206d6f7265207468616e203332206279746573000000000000606482015260840161045d565b6008820260006129d08660781c6001600160601b031690565b6001600160601b031690506000600160ff1b60001984011d91909501511695945050505050565b6000612a0c8260181c6001600160601b031690565b612a1f8360781c6001600160601b031690565b612a2991906131a5565b6001600160601b031692915050565b6000612a448260d81c90565b64ffffffffff1664ffffffffff1415612a5f575060006109f5565b6000612a6a836129f7565b60405110199392505050565b6000612a8860048360ff16901c612bd0565b60ff161760081b62ffff0016612a9d82612bd0565b60ff1617919050565b60606000612ab3866127de565b9150506000612ac1866127de565b9150506000612acf866127de565b9150506000612add866127de565b604080517f54797065644d656d566965772f696e646578202d204f76657272616e20746865602082015274040ecd2caee5c40a6d8d2c6ca40d2e640c2e84060f605b1b818301526001600160d01b031960d098891b811660558301526e040eed2e8d040d8cadccee8d04060f608b1b605b830181905297891b8116606a8301527f2e20417474656d7074656420746f20696e646578206174206f666673657420306070830152600f60fb1b609083015295881b861660918201526097810196909652951b90921660a68401525050601760f91b60ac8201528151808203608d01815260ad90910190915295945050505050565b600060f08083179060ff82161415612bec5760309150506109f5565b8060ff1660f11415612c025760319150506109f5565b8060ff1660f21415612c185760329150506109f5565b8060ff1660f31415612c2e5760339150506109f5565b8060ff1660f41415612c445760349150506109f5565b8060ff1660f51415612c5a5760359150506109f5565b8060ff1660f61415612c705760369150506109f5565b8060ff1660f71415612c865760379150506109f5565b8060ff1660f81415612c9c5760389150506109f5565b8060ff1660f91415612cb25760399150506109f5565b8060ff1660fa1415612cc85760619150506109f5565b8060ff1660fb1415612cde5760629150506109f5565b8060ff1660fc1415612cf45760639150506109f5565b8060ff1660fd1415612d0a5760649150506109f5565b8060ff1660fe1415612d205760659150506109f5565b8060ff1660ff1415612d365760669150506109f5565b50919050565b80356001600160e01b0319811681146109f557600080fd5b60008083601f840112612d65578182fd5b5081356001600160401b03811115612d7b578182fd5b602083019150836020828501011115612d9357600080fd5b9250929050565b600082601f830112612daa578081fd5b81356001600160401b0380821115612dc457612dc46132f2565b604051601f8301601f19908116603f01168101908282118183101715612dec57612dec6132f2565b81604052838152866020858801011115612e04578485fd5b8360208701602083013792830160200193909352509392505050565b600060208284031215612e31578081fd5b81356001600160a01b0381168114611774578182fd5b600060208284031215612e58578081fd5b81518015158114611774578182fd5b600060208284031215612e78578081fd5b5035919050565b600060208284031215612e90578081fd5b5051919050565b60008060008060008060008060008060006101008c8e031215612eb8578687fd5b612ec18c612d3c565b9a506001600160401b038060208e01351115612edb578788fd5b612eeb8e60208f01358f01612d9a565b9a508060408e01351115612efd578788fd5b612f0d8e60408f01358f01612d54565b909a509850612f1e60608e01612d3c565b975060808d013596508060a08e01351115612f37578586fd5b612f478e60a08f01358f01612d54565b909650945060c08d0135935060e08d0135811015612f63578283fd5b50612f748d60e08e01358e01612d54565b81935080925050509295989b509295989b9093969950565b60008151808452612fa4816020860160208601613291565b601f01601f19169290920160200192915050565b600063ffffffff60e01b80871683528551612fda816004860160208a01613291565b855190840190612ff1816004840160208a01613291565b919094169301600481019390935250506008019392505050565b6000825161301d818460208701613291565b9190910192915050565b60008351613039818460208801613291565b6001600160f81b0319939093169190920190815260010192915050565b6000858252846020830152608060408301526130756080830185612f8c565b905082606083015295945050505050565b6000602082526117746020830184612f8c565b6000606082526130ac6060830186612f8c565b6001600160a01b039490941660208301525060400152919050565b60208082526021908201527f43435472616e73666572526f757465723a2061646472657373206973207a65726040820152606f60f81b606082015260800190565b6020808252818101527f4f776e61626c653a2063616c6c6572206973206e6f7420746865206f776e6572604082015260600190565b60008219821115613150576131506132dc565b500190565b60006001600160401b03808316818516808303821115613177576131776132dc565b01949350505050565b600060ff821660ff84168060ff0382111561319d5761319d6132dc565b019392505050565b60006001600160601b03808316818516808303821115613177576131776132dc565b6000826131e257634e487b7160e01b81526012600452602481fd5b500490565b6000816000190483118215151615613201576132016132dc565b500290565b600060ff821660ff84168160ff0481118215151615613227576132276132dc565b029392505050565b600082821015613241576132416132dc565b500390565b60006001600160401b0383811690831681811015613266576132666132dc565b039392505050565b600060ff821660ff841680821015613288576132886132dc565b90039392505050565b60005b838110156132ac578181015183820152602001613294565b838111156132bb576000848401525b50505050565b60006000198214156132d5576132d56132dc565b5060010190565b634e487b7160e01b600052601160045260246000fd5b634e487b7160e01b600052604160045260246000fdfe416464726573733a206c6f772d6c6576656c2063616c6c20776974682076616c7565206661696c6564a264697066735822122042d858c5ba02e05989b0cddaf593d6d15d98a604b333184c18a748d7cd8551c864736f6c63430008020033",
  "devdoc": {
    "kind": "dev",
    "methods": {
      "ccTransfer(bytes4,bytes,bytes,bytes4,uint256,bytes,uint256,bytes)": {
        "details": "Validates the transfer request, then,                                     if speed is 1, the request is instant                                     which pays back the loan,                                     if the speed is 0, it is a normal transfer",
        "params": {
          "_blockNumber": "The block number of the request tx",
          "_index": "Index of tx in the block",
          "_intermediateNodes": "Merkle proof for tx",
          "_lockerLockingScript": "Locking script of locker that user has sent BTC to it",
          "_locktime": "Bitcoin transaction locktime",
          "_version": "Version of the Bitcoin transaction",
          "_vin": "Transaction inputs",
          "_vout": "Transaction outputs"
        },
        "returns": {
          "_0": "True if the transfer is successful"
        }
      },
      "constructor": {
        "params": {
          "_appId": "Id of ccTransfer dApp",
          "_chainId": "Id of the underlying chain",
          "_lockers": "Lockers' contract address",
          "_protocolPercentageFee": "Percentage amount of protocol fee (min: %0.01)",
          "_relay": "The Relay address to validate data from source chain",
          "_startingBlockNumber": "Requests that are included in a block older than _startingBlockNumber cannot be executed",
          "_teleBTC": "TeleportDAO BTC ERC20 token address",
          "_treasury": "Address of treasury that collects protocol fees"
        }
      },
      "isRequestUsed(bytes32)": {
        "details": "This is to avoid re-submitting a used request",
        "params": {
          "_txId": "The txId of request on the source chain"
        },
        "returns": {
          "_0": "True if the request has been executed"
        }
      },
      "owner()": {
        "details": "Returns the address of the current owner."
      },
      "renounceOwnership()": {
        "details": "Leaves the contract without owner. It will not be possible to call `onlyOwner` functions anymore. Can only be called by the current owner. NOTE: Renouncing ownership will leave the contract without an owner, thereby removing any functionality that is only available to the owner."
      },
      "setInstantRouter(address)": {
        "params": {
          "_instantRouter": "Address of the instant router contract"
        }
      },
      "setLockers(address)": {
        "params": {
          "_lockers": "Address of the lockers contract"
        }
      },
      "setProtocolPercentageFee(uint256)": {
        "details": "Only owner can call this",
        "params": {
          "_protocolPercentageFee": "Percentage amount of protocol fee"
        }
      },
      "setRelay(address)": {
        "params": {
          "_relay": "Address of the relay contract"
        }
      },
      "setTeleBTC(address)": {
        "params": {
          "_teleBTC": "TeleportDAO BTC ERC20 token address"
        }
      },
      "setTreasury(address)": {
        "params": {
          "_treasury": "Treasury address"
        }
      },
      "transferOwnership(address)": {
        "details": "Transfers ownership of the contract to a new account (`newOwner`). Can only be called by the current owner."
      }
    },
    "version": 1
  },
  "userdoc": {
    "events": {
      "CCTransfer(address,uint256,uint256,uint256,address,uint256)": {
        "notice": "Emits when a cc transfer request gets done"
      }
    },
    "kind": "user",
    "methods": {
      "ccTransfer(bytes4,bytes,bytes,bytes4,uint256,bytes,uint256,bytes)": {
        "notice": "Executes the cross chain transfer request"
      },
      "constructor": {
        "notice": "Gives default params to initiate cc transfer router"
      },
      "isRequestUsed(bytes32)": {
        "notice": "Check if the request has been executed before"
      },
      "setInstantRouter(address)": {
        "notice": "Setter for instant router"
      },
      "setLockers(address)": {
        "notice": "Setter for relay"
      },
      "setProtocolPercentageFee(uint256)": {
        "notice": "Setter for protocol percentage fee"
      },
      "setRelay(address)": {
        "notice": "Setter for relay"
      },
      "setTeleBTC(address)": {
        "notice": "Setter for teleBTC"
      },
      "setTreasury(address)": {
        "notice": "Setter for treasury"
      }
    },
    "version": 1
  },
  "storageLayout": {
    "storage": [
      {
        "astId": 807,
        "contract": "contracts/routers/CCTransferRouter.sol:CCTransferRouter",
        "label": "_owner",
        "offset": 0,
        "slot": "0",
        "type": "t_address"
      },
      {
        "astId": 1634,
        "contract": "contracts/routers/CCTransferRouter.sol:CCTransferRouter",
        "label": "_status",
        "offset": 0,
        "slot": "1",
        "type": "t_uint256"
      },
      {
        "astId": 22106,
        "contract": "contracts/routers/CCTransferRouter.sol:CCTransferRouter",
        "label": "startingBlockNumber",
        "offset": 0,
        "slot": "2",
        "type": "t_uint256"
      },
      {
        "astId": 22109,
        "contract": "contracts/routers/CCTransferRouter.sol:CCTransferRouter",
        "label": "chainId",
        "offset": 0,
        "slot": "3",
        "type": "t_uint256"
      },
      {
        "astId": 22112,
        "contract": "contracts/routers/CCTransferRouter.sol:CCTransferRouter",
        "label": "appId",
        "offset": 0,
        "slot": "4",
        "type": "t_uint256"
      },
      {
        "astId": 22115,
        "contract": "contracts/routers/CCTransferRouter.sol:CCTransferRouter",
        "label": "protocolPercentageFee",
        "offset": 0,
        "slot": "5",
        "type": "t_uint256"
      },
      {
        "astId": 22118,
        "contract": "contracts/routers/CCTransferRouter.sol:CCTransferRouter",
        "label": "relay",
        "offset": 0,
        "slot": "6",
        "type": "t_address"
      },
      {
        "astId": 22121,
        "contract": "contracts/routers/CCTransferRouter.sol:CCTransferRouter",
        "label": "lockers",
        "offset": 0,
        "slot": "7",
        "type": "t_address"
      },
      {
        "astId": 22124,
        "contract": "contracts/routers/CCTransferRouter.sol:CCTransferRouter",
        "label": "teleBTC",
        "offset": 0,
        "slot": "8",
        "type": "t_address"
      },
      {
        "astId": 22127,
        "contract": "contracts/routers/CCTransferRouter.sol:CCTransferRouter",
        "label": "instantRouter",
        "offset": 0,
        "slot": "9",
        "type": "t_address"
      },
      {
        "astId": 22130,
        "contract": "contracts/routers/CCTransferRouter.sol:CCTransferRouter",
        "label": "treasury",
        "offset": 0,
        "slot": "10",
        "type": "t_address"
      },
      {
        "astId": 22135,
        "contract": "contracts/routers/CCTransferRouter.sol:CCTransferRouter",
        "label": "ccTransferRequests",
        "offset": 0,
        "slot": "11",
        "type": "t_mapping(t_bytes32,t_struct(ccTransferRequest)24502_storage)"
      }
    ],
    "types": {
      "t_address": {
        "encoding": "inplace",
        "label": "address",
        "numberOfBytes": "20"
      },
      "t_bool": {
        "encoding": "inplace",
        "label": "bool",
        "numberOfBytes": "1"
      },
      "t_bytes32": {
        "encoding": "inplace",
        "label": "bytes32",
        "numberOfBytes": "32"
      },
      "t_mapping(t_bytes32,t_struct(ccTransferRequest)24502_storage)": {
        "encoding": "mapping",
        "key": "t_bytes32",
        "label": "mapping(bytes32 => struct ICCTransferRouter.ccTransferRequest)",
        "numberOfBytes": "32",
        "value": "t_struct(ccTransferRequest)24502_storage"
      },
      "t_struct(ccTransferRequest)24502_storage": {
        "encoding": "inplace",
        "label": "struct ICCTransferRouter.ccTransferRequest",
        "members": [
          {
            "astId": 24493,
            "contract": "contracts/routers/CCTransferRouter.sol:CCTransferRouter",
            "label": "inputAmount",
            "offset": 0,
            "slot": "0",
            "type": "t_uint256"
          },
          {
            "astId": 24495,
            "contract": "contracts/routers/CCTransferRouter.sol:CCTransferRouter",
            "label": "recipientAddress",
            "offset": 0,
            "slot": "1",
            "type": "t_address"
          },
          {
            "astId": 24497,
            "contract": "contracts/routers/CCTransferRouter.sol:CCTransferRouter",
            "label": "fee",
            "offset": 0,
            "slot": "2",
            "type": "t_uint256"
          },
          {
            "astId": 24499,
            "contract": "contracts/routers/CCTransferRouter.sol:CCTransferRouter",
            "label": "speed",
            "offset": 0,
            "slot": "3",
            "type": "t_uint256"
          },
          {
            "astId": 24501,
            "contract": "contracts/routers/CCTransferRouter.sol:CCTransferRouter",
            "label": "isUsed",
            "offset": 0,
            "slot": "4",
            "type": "t_bool"
          }
        ],
        "numberOfBytes": "160"
      },
      "t_uint256": {
        "encoding": "inplace",
        "label": "uint256",
        "numberOfBytes": "32"
      }
    }
  }
}