{
  "address": "0xA2A74ea64Bed2974b16FDbAd365E884D9F7781E3",
  "abi": [
    {
      "inputs": [
        {
          "internalType": "uint256",
          "name": "_startingBlockNumber",
          "type": "uint256"
        },
        {
          "internalType": "uint256",
          "name": "_protocolPercentageFee",
          "type": "uint256"
        },
        {
          "internalType": "uint256",
          "name": "_chainId",
          "type": "uint256"
        },
        {
          "internalType": "uint256",
          "name": "_appId",
          "type": "uint256"
        },
        {
          "internalType": "address",
          "name": "_relay",
          "type": "address"
        },
        {
          "internalType": "address",
          "name": "_lockers",
          "type": "address"
        },
        {
          "internalType": "address",
          "name": "_teleBTC",
          "type": "address"
        },
        {
          "internalType": "address",
          "name": "_treasury",
          "type": "address"
        }
      ],
      "stateMutability": "nonpayable",
      "type": "constructor"
    },
    {
      "anonymous": false,
      "inputs": [
        {
          "indexed": true,
          "internalType": "address",
          "name": "user",
          "type": "address"
        },
        {
          "indexed": false,
          "internalType": "uint256",
          "name": "inputAmount",
          "type": "uint256"
        },
        {
          "indexed": false,
          "internalType": "uint256",
          "name": "receivedAmount",
          "type": "uint256"
        },
        {
          "indexed": true,
          "internalType": "uint256",
          "name": "speed",
          "type": "uint256"
        },
        {
          "indexed": false,
          "internalType": "address",
          "name": "teleporter",
          "type": "address"
        },
        {
          "indexed": false,
          "internalType": "uint256",
          "name": "teleporterFee",
          "type": "uint256"
        }
      ],
      "name": "CCTransfer",
      "type": "event"
    },
    {
      "anonymous": false,
      "inputs": [
        {
          "indexed": true,
          "internalType": "address",
          "name": "previousOwner",
          "type": "address"
        },
        {
          "indexed": true,
          "internalType": "address",
          "name": "newOwner",
          "type": "address"
        }
      ],
      "name": "OwnershipTransferred",
      "type": "event"
    },
    {
      "inputs": [],
      "name": "appId",
      "outputs": [
        {
          "internalType": "uint256",
          "name": "",
          "type": "uint256"
        }
      ],
      "stateMutability": "view",
      "type": "function"
    },
    {
      "inputs": [
        {
          "internalType": "bytes4",
          "name": "_version",
          "type": "bytes4"
        },
        {
          "internalType": "bytes",
          "name": "_vin",
          "type": "bytes"
        },
        {
          "internalType": "bytes",
          "name": "_vout",
          "type": "bytes"
        },
        {
          "internalType": "bytes4",
          "name": "_locktime",
          "type": "bytes4"
        },
        {
          "internalType": "uint256",
          "name": "_blockNumber",
          "type": "uint256"
        },
        {
          "internalType": "bytes",
          "name": "_intermediateNodes",
          "type": "bytes"
        },
        {
          "internalType": "uint256",
          "name": "_index",
          "type": "uint256"
        },
        {
          "internalType": "address",
          "name": "_lockerScriptHash",
          "type": "address"
        }
      ],
      "name": "ccTransfer",
      "outputs": [
        {
          "internalType": "bool",
          "name": "",
          "type": "bool"
        }
      ],
      "stateMutability": "payable",
      "type": "function"
    },
    {
      "inputs": [
        {
          "internalType": "bytes32",
          "name": "",
          "type": "bytes32"
        }
      ],
      "name": "ccTransferRequests",
      "outputs": [
        {
          "internalType": "uint256",
          "name": "inputAmount",
          "type": "uint256"
        },
        {
          "internalType": "address",
          "name": "recipientAddress",
          "type": "address"
        },
        {
          "internalType": "uint256",
          "name": "fee",
          "type": "uint256"
        },
        {
          "internalType": "uint256",
          "name": "speed",
          "type": "uint256"
        },
        {
          "internalType": "bool",
          "name": "isUsed",
          "type": "bool"
        }
      ],
      "stateMutability": "view",
      "type": "function"
    },
    {
      "inputs": [],
      "name": "chainId",
      "outputs": [
        {
          "internalType": "uint256",
          "name": "",
          "type": "uint256"
        }
      ],
      "stateMutability": "view",
      "type": "function"
    },
    {
      "inputs": [],
      "name": "instantRouter",
      "outputs": [
        {
          "internalType": "address",
          "name": "",
          "type": "address"
        }
      ],
      "stateMutability": "view",
      "type": "function"
    },
    {
      "inputs": [
        {
          "internalType": "bytes32",
          "name": "_txId",
          "type": "bytes32"
        }
      ],
      "name": "isRequestUsed",
      "outputs": [
        {
          "internalType": "bool",
          "name": "",
          "type": "bool"
        }
      ],
      "stateMutability": "view",
      "type": "function"
    },
    {
      "inputs": [],
      "name": "lockers",
      "outputs": [
        {
          "internalType": "address",
          "name": "",
          "type": "address"
        }
      ],
      "stateMutability": "view",
      "type": "function"
    },
    {
      "inputs": [],
      "name": "owner",
      "outputs": [
        {
          "internalType": "address",
          "name": "",
          "type": "address"
        }
      ],
      "stateMutability": "view",
      "type": "function"
    },
    {
      "inputs": [],
      "name": "protocolPercentageFee",
      "outputs": [
        {
          "internalType": "uint256",
          "name": "",
          "type": "uint256"
        }
      ],
      "stateMutability": "view",
      "type": "function"
    },
    {
      "inputs": [],
      "name": "relay",
      "outputs": [
        {
          "internalType": "address",
          "name": "",
          "type": "address"
        }
      ],
      "stateMutability": "view",
      "type": "function"
    },
    {
      "inputs": [],
      "name": "renounceOwnership",
      "outputs": [],
      "stateMutability": "nonpayable",
      "type": "function"
    },
    {
      "inputs": [
        {
          "internalType": "address",
          "name": "_instantRouter",
          "type": "address"
        }
      ],
      "name": "setInstantRouter",
      "outputs": [],
      "stateMutability": "nonpayable",
      "type": "function"
    },
    {
      "inputs": [
        {
          "internalType": "address",
          "name": "_lockers",
          "type": "address"
        }
      ],
      "name": "setLockers",
      "outputs": [],
      "stateMutability": "nonpayable",
      "type": "function"
    },
    {
      "inputs": [
        {
          "internalType": "uint256",
          "name": "_protocolPercentageFee",
          "type": "uint256"
        }
      ],
      "name": "setProtocolPercentageFee",
      "outputs": [],
      "stateMutability": "nonpayable",
      "type": "function"
    },
    {
      "inputs": [
        {
          "internalType": "address",
          "name": "_relay",
          "type": "address"
        }
      ],
      "name": "setRelay",
      "outputs": [],
      "stateMutability": "nonpayable",
      "type": "function"
    },
    {
      "inputs": [
        {
          "internalType": "address",
          "name": "_teleBTC",
          "type": "address"
        }
      ],
      "name": "setTeleBTC",
      "outputs": [],
      "stateMutability": "nonpayable",
      "type": "function"
    },
    {
      "inputs": [
        {
          "internalType": "address",
          "name": "_treasury",
          "type": "address"
        }
      ],
      "name": "setTreasury",
      "outputs": [],
      "stateMutability": "nonpayable",
      "type": "function"
    },
    {
      "inputs": [],
      "name": "startingBlockNumber",
      "outputs": [
        {
          "internalType": "uint256",
          "name": "",
          "type": "uint256"
        }
      ],
      "stateMutability": "view",
      "type": "function"
    },
    {
      "inputs": [],
      "name": "teleBTC",
      "outputs": [
        {
          "internalType": "address",
          "name": "",
          "type": "address"
        }
      ],
      "stateMutability": "view",
      "type": "function"
    },
    {
      "inputs": [
        {
          "internalType": "address",
          "name": "newOwner",
          "type": "address"
        }
      ],
      "name": "transferOwnership",
      "outputs": [],
      "stateMutability": "nonpayable",
      "type": "function"
    },
    {
      "inputs": [],
      "name": "treasury",
      "outputs": [
        {
          "internalType": "address",
          "name": "",
          "type": "address"
        }
      ],
      "stateMutability": "view",
      "type": "function"
    }
  ],
  "transactionHash": "0x6d9c95f107d5ae229b9a29408e9693f16342c29dbc637be4219608be6560c1e6",
  "args": [
    "2341573",
    50,
    3,
    0,
    "0x8ed36B08134B84698C898f0A4314905e1cA7aE1d",
    "0x6c89ca66B217cA2eA87AB118De25D54013d4c891",
    "0xE9B3d12D7254Bb86DF10c2f03C98ee4B17598abc",
    "0x5364E3557572bd5D5903C0e9C21BE359F2Eac1dA"
  ],
  "numDeployments": 1,
  "solcInputHash": "e12c7c9cd263aabdb11ed9046c0bd066",
  "bytecode": "0x60806040523480156200001157600080fd5b506040516200350d3803806200350d833981016040819052620000349162000185565b6200003f3362000118565b6001805560028890556005879055612710871115620000b55760405162461bcd60e51b815260206004820152602860248201527f43435472616e73666572526f757465723a20696e76616c69642070657263656e604482015267746167652066656560c01b606482015260840160405180910390fd5b600395909555600493909355600680546001600160a01b03199081166001600160a01b03948516179091556007805482169284169290921790915560088054821693831693909317909255600a8054909216921691909117905550620002089050565b600080546001600160a01b038381166001600160a01b0319831681178455604051919092169283917f8be0079c531659141344cd1fd0a4f28419497f9722a3daafe3b4186f6b6457e09190a35050565b80516001600160a01b03811681146200018057600080fd5b919050565b600080600080600080600080610100898b031215620001a2578384fd5b88519750602089015196506040890151955060608901519450620001c960808a0162000168565b9350620001d960a08a0162000168565b9250620001e960c08a0162000168565b9150620001f960e08a0162000168565b90509295985092959890939650565b6132f580620002186000396000f3fe60806040526004361061012a5760003560e01c8063870ba6cf116100ab578063b59589d11161006f578063b59589d114610380578063c805f68b146103a0578063d944d391146103c0578063e35a0a88146103d3578063f0f44260146103f3578063f2fde38b146104135761012a565b8063870ba6cf146102ec5780638d3d78cd1461030c5780638da5cb5b1461032c5780639a8a05921461034a578063b14d3532146103605761012a565b8063765f0233116100f2578063765f0233146101dd5780637ed55748146102665780637f0f18171461028657806380afdea8146102a657806380bc4726146102bc5761012a565b80631812adb61461012f5780631876dec41461015857806361d027b31461019057806370872aa5146101b0578063715018a6146101c6575b600080fd5b34801561013b57600080fd5b5061014560055481565b6040519081526020015b60405180910390f35b34801561016457600080fd5b50600754610178906001600160a01b031681565b6040516001600160a01b03909116815260200161014f565b34801561019c57600080fd5b50600a54610178906001600160a01b031681565b3480156101bc57600080fd5b5061014560025481565b3480156101d257600080fd5b506101db610433565b005b3480156101e957600080fd5b506102346101f8366004612e74565b600b602052600090815260409020805460018201546002830154600384015460049094015492936001600160a01b039092169290919060ff1685565b604080519586526001600160a01b0390941660208601529284019190915260608301521515608082015260a00161014f565b34801561027257600080fd5b506101db610281366004612e74565b610472565b34801561029257600080fd5b506101db6102a1366004612e3a565b61050a565b3480156102b257600080fd5b5061014560045481565b3480156102c857600080fd5b506102dc6102d7366004612e74565b61057e565b604051901515815260200161014f565b3480156102f857600080fd5b506101db610307366004612e3a565b6105a9565b34801561031857600080fd5b50600854610178906001600160a01b031681565b34801561033857600080fd5b506000546001600160a01b0316610178565b34801561035657600080fd5b5061014560035481565b34801561036c57600080fd5b506101db61037b366004612e3a565b61061d565b34801561038c57600080fd5b50600654610178906001600160a01b031681565b3480156103ac57600080fd5b506101db6103bb366004612e3a565b610691565b6102dc6103ce366004612ea4565b610705565b3480156103df57600080fd5b50600954610178906001600160a01b031681565b3480156103ff57600080fd5b506101db61040e366004612e3a565b610a95565b34801561041f57600080fd5b506101db61042e366004612e3a565b610b09565b6000546001600160a01b031633146104665760405162461bcd60e51b815260040161045d906130bb565b60405180910390fd5b6104706000610ba4565b565b6000546001600160a01b0316331461049c5760405162461bcd60e51b815260040161045d906130bb565b8061271010156105055760405162461bcd60e51b815260206004820152602e60248201527f43435472616e73666572526f757465723a2070726f746f636f6c20666565206960448201526d73206f7574206f662072616e676560901b606482015260840161045d565b600555565b806001600160a01b0381166105315760405162461bcd60e51b815260040161045d9061307a565b6000546001600160a01b0316331461055b5760405162461bcd60e51b815260040161045d906130bb565b50600880546001600160a01b0319166001600160a01b0392909216919091179055565b6000818152600b602052604081206004015460ff1661059e5760006105a1565b60015b90505b919050565b806001600160a01b0381166105d05760405162461bcd60e51b815260040161045d9061307a565b6000546001600160a01b031633146105fa5760405162461bcd60e51b815260040161045d906130bb565b50600980546001600160a01b0319166001600160a01b0392909216919091179055565b806001600160a01b0381166106445760405162461bcd60e51b815260040161045d9061307a565b6000546001600160a01b0316331461066e5760405162461bcd60e51b815260040161045d906130bb565b50600780546001600160a01b0319166001600160a01b0392909216919091179055565b806001600160a01b0381166106b85760405162461bcd60e51b815260040161045d9061307a565b6000546001600160a01b031633146106e25760405162461bcd60e51b815260040161045d906130bb565b50600680546001600160a01b0319166001600160a01b0392909216919091179055565b60006002600154141561075a5760405162461bcd60e51b815260206004820152601f60248201527f5265656e7472616e637947756172643a207265656e7472616e742063616c6c00604482015260640161045d565b6002600155816001600160a01b0381166107865760405162461bcd60e51b815260040161045d9061307a565b6002548710156107e45760405162461bcd60e51b8152602060048201526024808201527f43435472616e73666572526f757465723a207265717565737420697320746f6f604482015263081bdb1960e21b606482015260840161045d565b60006107f38d8d8d8d8d610bf4565b6000818152600b602052604090206004015490915060ff161561086f5760405162461bcd60e51b815260206004820152602e60248201527f43435472616e73666572526f757465723a20726571756573742068617320626560448201526d656e2075736564206265666f726560901b606482015260840161045d565b6001600160e01b03198916156108d85760405162461bcd60e51b815260206004820152602860248201527f43435472616e73666572526f757465723a206c6f636b2074696d65206973206e6044820152676f6e202d7a65726f60c01b606482015260840161045d565b61091a848c8c8080601f016020809104026020016040519081016040528093929190818152602001838380828437600092019190915250869250610cf6915050565b61095d818989898080601f0160208091040260200160405190810160405280939291908181526020018383808284376000920191909152508b9250611119915050565b6109cf5760405162461bcd60e51b815260206004820152603860248201527f43435472616e73666572526f757465723a207472616e73616374696f6e20686160448201527f73206e6f74206265656e2066696e616c697a6564207965740000000000000000606482015260840161045d565b6000818152600b6020526040902060030154610a765760006109f1858361129b565b6000838152600b6020908152604091829020600381015460018201548254600290930154855193845293830186905233838601526060830193909352925193945091926001600160a01b03909116917f08a51b22dd24d38c51ccc9872362ff33007184fcfb312edb79d074a40a8953b2919081900360800190a3600193505050610a82565b60006109f18583611349565b50600180559a9950505050505050505050565b806001600160a01b038116610abc5760405162461bcd60e51b815260040161045d9061307a565b6000546001600160a01b03163314610ae65760405162461bcd60e51b815260040161045d906130bb565b50600a80546001600160a01b0319166001600160a01b0392909216919091179055565b6000546001600160a01b03163314610b335760405162461bcd60e51b815260040161045d906130bb565b6001600160a01b038116610b985760405162461bcd60e51b815260206004820152602660248201527f4f776e61626c653a206e6577206f776e657220697320746865207a65726f206160448201526564647265737360d01b606482015260840161045d565b610ba181610ba4565b50565b600080546001600160a01b038381166001600160a01b0319831681178455604051919092169283917f8be0079c531659141344cd1fd0a4f28419497f9722a3daafe3b4186f6b6457e09190a35050565b60008060028787878787604051602001610c12959493929190612fa7565b60408051601f1981840301815290829052610c2c91612fec565b602060405180830381855afa158015610c49573d6000803e3d6000fd5b5050506040513d601f19601f82011682018060405250810190610c6c9190612e8c565b90506000600282604051602001610c8591815260200190565b60408051601f1981840301815290829052610c9f91612fec565b602060405180830381855afa158015610cbc573d6000803e3d6000fd5b5050506040513d601f19601f82011682018060405250810190610cdf9190612e8c565b9050610cea8161142b565b98975050505050505050565b600754604051630bb18f5f60e21b81526001600160a01b03858116600483015290911690632ec63d7c9060240160206040518083038186803b158015610d3b57600080fd5b505afa158015610d4f573d6000803e3d6000fd5b505050506040513d601f19601f82011682018060405250810190610d739190612e54565b610de55760405162461bcd60e51b815260206004820152603d60248201527f43435472616e73666572526f757465723a206e6f206c6f636b6572207769746860448201527f2074686520676976656e20736372697074206861736820657869737473000000606482015260840161045d565b610e226040518060a001604052806000815260200160006001600160a01b0316815260200160008152602001600081526020016000151581525090565b6060610e2e84866114ab565b6001600160401b03909116808452909150610e9a5760405162461bcd60e51b815260206004820152602660248201527f43435472616e73666572526f757465723a20696e70757420616d6f756e74206960448201526573207a65726f60d01b606482015260840161045d565b600354610ea68261168e565b60ff1614610f085760405162461bcd60e51b815260206004820152602960248201527f43435472616e73666572526f757465723a20636861696e206964206973206e6f6044820152681d0818dbdc9c9958dd60ba1b606482015260840161045d565b600454610f14826116a8565b61ffff1614610f755760405162461bcd60e51b815260206004820152602760248201527f43435472616e73666572526f757465723a20617070206964206973206e6f742060448201526618dbdc9c9958dd60ca1b606482015260840161045d565b6000610f80826116c3565b61ffff1690506127108110610ff05760405162461bcd60e51b815260206004820152603060248201527f43435472616e73666572526f757465723a2070657263656e746167652066656560448201526f206973206f7574206f662072616e676560801b606482015260840161045d565b8251612710906110009083613175565b61100a9190613155565b6040840152611018826116d3565b6001600160a01b0316602084015261102f826116ee565b60ff16606084018190521580611049575082606001516001145b6110a55760405162461bcd60e51b815260206004820152602760248201527f43435472616e73666572526f757465723a207370656564206973206f7574206f604482015266662072616e676560c81b606482015260840161045d565b50506001608082018181526000938452600b6020908152604094859020845181559084015192810180546001600160a01b0319166001600160a01b0390941693909317909255928201516002820155606090910151600382015590516004909101805460ff19169115159190911790555050565b60065460405163d0a8973960e01b8152600481018590526000602482018190529182916001600160a01b039091169063d0a897399060440160206040518083038186803b15801561116957600080fd5b505afa15801561117d573d6000803e3d6000fd5b505050506040513d601f19601f820116820180604052508101906111a19190612e8c565b9050803410156112085760405162461bcd60e51b815260206004820152602c60248201527f43435472616e73666572526f757465723a207061696420666565206973206e6f60448201526b1d081cdd59999a58da595b9d60a21b606482015260840161045d565b600654604051600091611265916001600160a01b0390911690611235908a908a908a908a90602401613037565b60408051601f198184030181529190526020810180516001600160e01b0316634354da2560e01b179052846116fd565b905061127a3361127584346131bd565b61172d565b8080602001905181019061128e9190612e54565b925050505b949350505050565b60006112a7838361184b565b6008546000848152600b60205260409081902060010154905163a9059cbb60e01b81526001600160a01b03918216600482015260248101849052929350169063a9059cbb906044015b602060405180830381600087803b15801561130a57600080fd5b505af115801561131e573d6000803e3d6000fd5b505050506040513d601f19601f820116820180604052508101906113429190612e54565b5092915050565b6000611355838361184b565b60085460095460405163095ea7b360e01b81526001600160a01b03918216600482015260248101849052929350169063095ea7b390604401602060405180830381600087803b1580156113a757600080fd5b505af11580156113bb573d6000803e3d6000fd5b505050506040513d601f19601f820116820180604052508101906113df9190612e54565b506009546000838152600b602052604090819020600101549051631b6396ab60e31b81526001600160a01b0391821660048201526024810184905291169063db1cb558906044016112f0565b6000606081805b602081101561149f57828561144883601f6131bd565b6020811061146657634e487b7160e01b600052603260045260246000fd5b1a60f81b60405160200161147b929190613008565b604051602081830303815290604052925080806114979061324f565b915050611432565b50506020015192915050565b60006060816114c86114bd8683611a67565b62ffffff1916611a8d565b905062ffffff1980821614156115195760405162461bcd60e51b8152602060048201526016602482015275151e12195b1c195c8e881d9bdd5d081a5cc81b9d5b1b60521b604482015260640161045d565b600080600080600061152c866000611bb7565b6001600160401b0316905060005b8181101561167f5761154c8782611ce7565b955061155786611df1565b945061156285611e4d565b935062ffffff19808516141561165b576017601886901c6001600160601b031614806115995750601885811c6001600160601b0316145b156115b2576115af62ffffff1986166003611f1c565b92505b601a601886901c6001600160601b031614156115dc576115d962ffffff1986166004611f1c565b92505b6015601886901c6001600160601b031614156116065761160362ffffff1986166002611f1c565b92505b6021601886901c6001600160601b031614156116305761162d62ffffff1986166002611f1c565b92505b896001600160a01b0316836001600160a01b031614156116565761165386611f2a565b98505b61166d565b61166a62ffffff198516611f3e565b97505b806116778161324f565b91505061153a565b505050505050505b9250929050565b60008061169d83600080611f8e565b600101519392505050565b6000806116b88360016002611f8e565b600201519392505050565b6000806116b88360176018611f8e565b6000806116e38360036016611f8e565b601401519392505050565b60008061169d83601980611f8e565b606061172384848460405180606001604052806029815260200161329760299139612013565b90505b9392505050565b8047101561177d5760405162461bcd60e51b815260206004820152601d60248201527f416464726573733a20696e73756666696369656e742062616c616e6365000000604482015260640161045d565b6000826001600160a01b03168260405160006040518083038185875af1925050503d80600081146117ca576040519150601f19603f3d011682016040523d82523d6000602084013e6117cf565b606091505b50509050806118465760405162461bcd60e51b815260206004820152603a60248201527f416464726573733a20756e61626c6520746f2073656e642076616c75652c207260448201527f6563697069656e74206d61792068617665207265766572746564000000000000606482015260840161045d565b505050565b6007546000828152600b6020526040808220549051636361ddf360e11b81526001600160a01b03868116600483015230602483015260448201929092529192839291169063c6c3bbe690606401602060405180830381600087803b1580156118b257600080fd5b505af11580156118c6573d6000803e3d6000fd5b505050506040513d601f19601f820116820180604052508101906118ea9190612e8c565b6005546000858152600b6020526040812054929350916127109161190d91613175565b6119179190613155565b6000858152600b602052604090206002015490915080156119b85760085460405163a9059cbb60e01b8152336004820152602481018390526001600160a01b039091169063a9059cbb90604401602060405180830381600087803b15801561197e57600080fd5b505af1158015611992573d6000803e3d6000fd5b505050506040513d601f19601f820116820180604052508101906119b69190612e54565b505b8115611a4857600854600a5460405163a9059cbb60e01b81526001600160a01b0391821660048201526024810185905291169063a9059cbb90604401602060405180830381600087803b158015611a0e57600080fd5b505af1158015611a22573d6000803e3d6000fd5b505050506040513d601f19601f82011682018060405250810190611a469190612e54565b505b80611a5383856131bd565b611a5d91906131bd565b9695505050505050565b815160009060208401611a8264ffffffffff85168284612130565b925050505b92915050565b60008181611aa3815b62ffffff19841690612174565b50601884901c6001600160601b0316611ac25762ffffff199250611bb0565b6000611acf856000611bb7565b9050601885901c6001600160601b03166001600160401b038216611afc5762ffffff195b94505050611bb0565b6000611b078361224e565b60ff16905060005b836001600160401b0316811015611b8057828210611b375762ffffff19965050505050611bb0565b6000611b55611b4684866131bd565b62ffffff198b1690600e6122a7565b9050611b60816122da565b611b6a90846130f0565b9250508080611b789061324f565b915050611b0f565b50818114611b975762ffffff199550505050611bb0565b6301000000600160d81b038716600f60d81b1795505050505b5050919050565b600080611bcc62ffffff198516846001612323565b905060fc8111611bdd579050611a87565b8060fd1415611c3b57611c03611bf48460016130f0565b62ffffff198616906002612353565b9150611c0e8261224e565b60ff16600314611c3657611c34611c2f62ffffff198616856003600061249d565b61250c565b505b611342565b8060fe1415611c8d57611c61611c528460016130f0565b62ffffff198616906004612353565b9150611c6c8261224e565b60ff16600514611c3657611c34611c2f62ffffff198616856005600061249d565b8060ff141561134257611cb3611ca48460016130f0565b62ffffff198616906008612353565b9150611cbe8261224e565b60ff1660091461134257611cdf611c2f62ffffff198616856009600061249d565b505092915050565b600080611cf5846000611bb7565b6001600160401b03169050601884901c6001600160601b0316818410611d515760405162461bcd60e51b81526020600482015260116024820152702b37baba103932b0b21037bb32b9393ab760791b604482015260640161045d565b6000611d5c8361224e565b60ff1690506000805b86811015611db257611d89611d7a84866131bd565b62ffffff198a1690600e6122a7565b9150611d94826122da565b611d9e90846130f0565b9250611dab6001826130f0565b9050611d65565b50611dcf611dc083856131bd565b62ffffff19891690600e6122a7565b90506000611ddc826122da565b9050610cea62ffffff1989168483600d61249d565b600081600d611dff81611a96565b506000611e0d856008611bb7565b9050611e44600882611e1e8461224e565b60ff16611e2b9190613108565b62ffffff19881691906001600160401b0316600761249d565b95945050505050565b6000816007611e5b81611a96565b506000611e69856000611bb7565b90506000611e8062ffffff19871660036001612323565b90506053826001600160401b03161180611ea357506004826001600160401b0316105b80611ec05750611ebb62ffffff198716600180612323565b606a14155b80611ef05750611ed16003836131d4565b6001600160401b0316611eed62ffffff19881660036001612323565b14155b15611eff5762ffffff19611af3565b611a5d62ffffff19871660046001600160401b038416600c61249d565b600061172683836014612323565b60006105a162ffffff198316826008612353565b6060600080611f568460181c6001600160601b031690565b60405193508392506001600160601b03169050611f7d84611f788460206130f0565b612589565b508181016020016040529052919050565b60606000835b611f9f8460016130f0565b81101561200a57858181518110611fc657634e487b7160e01b600052603260045260246000fd5b602001015160f81c60f81b91508282604051602001611fe6929190613008565b604051602081830303815290604052925080806120029061324f565b915050611f94565b50509392505050565b6060824710156120745760405162461bcd60e51b815260206004820152602660248201527f416464726573733a20696e73756666696369656e742062616c616e636520666f6044820152651c8818d85b1b60d21b606482015260840161045d565b843b6120c25760405162461bcd60e51b815260206004820152601d60248201527f416464726573733a2063616c6c20746f206e6f6e2d636f6e7472616374000000604482015260640161045d565b600080866001600160a01b031685876040516120de9190612fec565b60006040518083038185875af1925050503d806000811461211b576040519150601f19603f3d011682016040523d82523d6000602084013e612120565b606091505b509150915061128e8282866126e1565b60008061213d848461271a565b905060405181111561214d575060005b8061215f5762ffffff19915050611726565b5050606092831b9190911790911b1760181b90565b6000612180838361276f565b61224757600061219f6121938560d81c90565b64ffffffffff16612792565b91505060006121b48464ffffffffff16612792565b6040517f5479706520617373657274696f6e206661696c65642e20476f7420307800000060208201526001600160b01b031960b086811b8216603d8401526c05c408af0e0cac6e8cac84060f609b1b604784015283901b16605482015290925060009150605e015b60405160208183030381529060405290508060405162461bcd60e51b815260040161045d9190613067565b5090919050565b600060fc826001600160401b031611612269575060016105a4565b61ffff826001600160401b031611612283575060036105a4565b63ffffffff826001600160401b03161161229f575060056105a4565b5060096105a4565b6000611723846122d3856122c48860181c6001600160601b031690565b6001600160601b031690612852565b858561249d565b600081600e6122e881611a96565b5060006122f6856008611bb7565b9050806001600160401b031661230b8261224e565b60ff1661231891906130f0565b611e449060086130f0565b60006123308260206131fc565b61233b906008613194565b60ff166123498585856128a8565b901c949350505050565b60006117236123638585856128a8565b600881811c7eff00ff00ff00ff00ff00ff00ff00ff00ff00ff00ff00ff00ff00ff00ff00ff167fff00ff00ff00ff00ff00ff00ff00ff00ff00ff00ff00ff00ff00ff00ff00ff009290911b9190911617601081811c7dffff0000ffff0000ffff0000ffff0000ffff0000ffff0000ffff0000ffff167fffff0000ffff0000ffff0000ffff0000ffff0000ffff0000ffff0000ffff00009290911b9190911617602081811c7bffffffff00000000ffffffff00000000ffffffff00000000ffffffff167fffffffff00000000ffffffff00000000ffffffff00000000ffffffff000000009290911b9190911617604081811c77ffffffffffffffff0000000000000000ffffffffffffffff1677ffffffffffffffff0000000000000000ffffffffffffffff199290911b9190911617608081811c91901b1790565b6000806124b38660781c6001600160601b031690565b6001600160601b031690506124c786612a01565b6124db856124d5848961271a565b9061271a565b11156124ee5762ffffff19915050611293565b6124f8818661271a565b9050611a5d8364ffffffffff168286612130565b6060600061253661253162ffffff19851683601887901c6001600160601b0316612323565b612792565b6040517f4e6f6e2d6d696e696d616c2076617220696e742e20476f74203078000000000060208201526dffffffffffffffffffffffffffff19607083901b16603b82015290925060009150604d0161221c565b600062ffffff1980841614156125f25760405162461bcd60e51b815260206004820152602860248201527f54797065644d656d566965772f636f7079546f202d204e756c6c20706f696e7460448201526732b9103232b932b360c11b606482015260840161045d565b6125fb83612a42565b61265b5760405162461bcd60e51b815260206004820152602b60248201527f54797065644d656d566965772f636f7079546f202d20496e76616c696420706f60448201526a34b73a32b9103232b932b360a91b606482015260840161045d565b60006126708460181c6001600160601b031690565b6001600160601b0316905060006126908560781c6001600160601b031690565b6001600160601b0316905060006040519050848111156126b05760206060fd5b8285848460045afa50611a5d6126c68760d81c90565b64ffffffffff60601b606091821b168717901b841760181b90565b606083156126f0575081611726565b8251156127005782518084602001fd5b8160405162461bcd60e51b815260040161045d9190613067565b60008261272783826130f0565b9150811015611a875760405162461bcd60e51b815260206004820152601460248201527364732d6d6174682d6164642d6f766572666c6f7760601b604482015260640161045d565b60008164ffffffffff166127838460d81c90565b64ffffffffff16149392505050565b600080601f5b600f8160ff1611156127f05760006127b1826008613194565b60ff1685901c90506127c281612a80565b61ffff16841793508160ff166010146127dd57601084901b93505b506127e96001826131fc565b9050612798565b50600f5b60ff8160ff16101561284c57600061280d826008613194565b60ff1685901c905061281e81612a80565b61ffff16831792508160ff1660001461283957601083901b92505b506128456001826131fc565b90506127f4565b50915091565b60008261285f83826131bd565b9150811115611a875760405162461bcd60e51b815260206004820152601560248201527464732d6d6174682d7375622d756e646572666c6f7760581b604482015260640161045d565b600060ff82166128ba57506000611726565b6128cd8460181c6001600160601b031690565b6001600160601b03166128e38460ff851661271a565b11156129475761292e6128ff8560781c6001600160601b031690565b6001600160601b031661291b8660181c6001600160601b031690565b6001600160601b0316858560ff16612ab0565b60405162461bcd60e51b815260040161045d9190613067565b60208260ff1611156129c15760405162461bcd60e51b815260206004820152603a60248201527f54797065644d656d566965772f696e646578202d20417474656d70746564207460448201527f6f20696e646578206d6f7265207468616e203332206279746573000000000000606482015260840161045d565b6008820260006129da8660781c6001600160601b031690565b6001600160601b031690506000600160ff1b60001984011d91909501511695945050505050565b6000612a168260181c6001600160601b031690565b612a298360781c6001600160601b031690565b612a339190613133565b6001600160601b031692915050565b6000612a4e8260d81c90565b64ffffffffff1664ffffffffff1415612a69575060006105a4565b6000612a7483612a01565b60405110199392505050565b6000612a9260048360ff16901c612bda565b60ff161760081b62ffff0016612aa782612bda565b60ff1617919050565b60606000612abd86612792565b9150506000612acb86612792565b9150506000612ad986612792565b9150506000612ae786612792565b604080517f54797065644d656d566965772f696e646578202d204f76657272616e20746865602082015274040ecd2caee5c40a6d8d2c6ca40d2e640c2e84060f605b1b818301526001600160d01b031960d098891b811660558301526e040eed2e8d040d8cadccee8d04060f608b1b605b830181905297891b8116606a8301527f2e20417474656d7074656420746f20696e646578206174206f666673657420306070830152600f60fb1b609083015295881b861660918201526097810196909652951b90921660a68401525050601760f91b60ac8201528151808203608d01815260ad90910190915295945050505050565b600060f08083179060ff82161415612bf65760309150506105a4565b8060ff1660f11415612c0c5760319150506105a4565b8060ff1660f21415612c225760329150506105a4565b8060ff1660f31415612c385760339150506105a4565b8060ff1660f41415612c4e5760349150506105a4565b8060ff1660f51415612c645760359150506105a4565b8060ff1660f61415612c7a5760369150506105a4565b8060ff1660f71415612c905760379150506105a4565b8060ff1660f81415612ca65760389150506105a4565b8060ff1660f91415612cbc5760399150506105a4565b8060ff1660fa1415612cd25760619150506105a4565b8060ff1660fb1415612ce85760629150506105a4565b8060ff1660fc1415612cfe5760639150506105a4565b8060ff1660fd1415612d145760649150506105a4565b8060ff1660fe1415612d2a5760659150506105a4565b8060ff1660ff1415612d405760669150506105a4565b50919050565b80356001600160a01b03811681146105a457600080fd5b80356001600160e01b0319811681146105a457600080fd5b60008083601f840112612d86578182fd5b5081356001600160401b03811115612d9c578182fd5b60208301915083602082850101111561168757600080fd5b600082601f830112612dc4578081fd5b81356001600160401b0380821115612dde57612dde613280565b604051601f8301601f19908116603f01168101908282118183101715612e0657612e06613280565b81604052838152866020858801011115612e1e578485fd5b8360208701602083013792830160200193909352509392505050565b600060208284031215612e4b578081fd5b61172682612d46565b600060208284031215612e65578081fd5b81518015158114611726578182fd5b600060208284031215612e85578081fd5b5035919050565b600060208284031215612e9d578081fd5b5051919050565b6000806000806000806000806000806101008b8d031215612ec3578586fd5b612ecc8b612d5d565b995060208b01356001600160401b0380821115612ee7578788fd5b612ef38e838f01612db4565b9a5060408d0135915080821115612f08578788fd5b612f148e838f01612d75565b909a509850889150612f2860608e01612d5d565b975060808d0135965060a08d0135915080821115612f44578586fd5b50612f518d828e01612d75565b90955093505060c08b01359150612f6a60e08c01612d46565b90509295989b9194979a5092959850565b60008151808452612f9381602086016020860161321f565b601f01601f19169290920160200192915050565b600063ffffffff60e01b80881683528651612fc9816004860160208b0161321f565b830185876004830137931693909201600481019390935250506008019392505050565b60008251612ffe81846020870161321f565b9190910192915050565b6000835161301a81846020880161321f565b6001600160f81b0319939093169190920190815260010192915050565b6000858252846020830152608060408301526130566080830185612f7b565b905082606083015295945050505050565b6000602082526117266020830184612f7b565b60208082526021908201527f43435472616e73666572526f757465723a2061646472657373206973207a65726040820152606f60f81b606082015260800190565b6020808252818101527f4f776e61626c653a2063616c6c6572206973206e6f7420746865206f776e6572604082015260600190565b600082198211156131035761310361326a565b500190565b60006001600160401b0380831681851680830382111561312a5761312a61326a565b01949350505050565b60006001600160601b0380831681851680830382111561312a5761312a61326a565b60008261317057634e487b7160e01b81526012600452602481fd5b500490565b600081600019048311821515161561318f5761318f61326a565b500290565b600060ff821660ff84168160ff04811182151516156131b5576131b561326a565b029392505050565b6000828210156131cf576131cf61326a565b500390565b60006001600160401b03838116908316818110156131f4576131f461326a565b039392505050565b600060ff821660ff8416808210156132165761321661326a565b90039392505050565b60005b8381101561323a578181015183820152602001613222565b83811115613249576000848401525b50505050565b60006000198214156132635761326361326a565b5060010190565b634e487b7160e01b600052601160045260246000fd5b634e487b7160e01b600052604160045260246000fdfe416464726573733a206c6f772d6c6576656c2063616c6c20776974682076616c7565206661696c6564a26469706673582212208bd2e34213946717a1eb8201dbbeeb03ee208d7d86e67054cb02f1f1134f327964736f6c63430008020033",
  "devdoc": {
    "kind": "dev",
    "methods": {
      "ccTransfer(bytes4,bytes,bytes,bytes4,uint256,bytes,uint256,address)": {
        "details": "Validates the transfer request, then,                                     if speed is 1, the request is instant                                     which pays back the loan,                                     if the speed is 0, it is a normal transfer",
        "params": {
          "_blockNumber": "The block number of the request tx",
          "_index": "Index of tx in the block",
          "_intermediateNodes": "Merkle proof for tx",
          "_lockerScriptHash": "Script hash of locker that user has sent BTC to it",
          "_locktime": "Bitcoin transaction locktime",
          "_version": "Version of the Bitcoin transaction",
          "_vin": "Transaction inputs",
          "_vout": "Transaction outputs"
        },
        "returns": {
          "_0": "True if the transfer is successful"
        }
      },
      "constructor": {
        "params": {
          "_appId": "Id of ccTransfer dApp",
          "_chainId": "Id of the underlying chain",
          "_lockers": "Lockers' contract address",
          "_protocolPercentageFee": "Percentage amount of protocol fee (min: %0.01)",
          "_relay": "The Relay address to validate data from source chain",
          "_startingBlockNumber": "Requests that are included in a block older than _startingBlockNumber cannot be executed",
          "_teleBTC": "TeleportDAO BTC ERC20 token address",
          "_treasury": "Address of treasury that collects protocol fees"
        }
      },
      "isRequestUsed(bytes32)": {
        "details": "This is to avoid re-submitting a used request",
        "params": {
          "_txId": "The txId of request on the source chain"
        },
        "returns": {
          "_0": "True if the request has been executed"
        }
      },
      "owner()": {
        "details": "Returns the address of the current owner."
      },
      "renounceOwnership()": {
        "details": "Leaves the contract without owner. It will not be possible to call `onlyOwner` functions anymore. Can only be called by the current owner. NOTE: Renouncing ownership will leave the contract without an owner, thereby removing any functionality that is only available to the owner."
      },
      "setInstantRouter(address)": {
        "params": {
          "_instantRouter": "Address of the instant router contract"
        }
      },
      "setLockers(address)": {
        "params": {
          "_lockers": "Address of the lockers contract"
        }
      },
      "setProtocolPercentageFee(uint256)": {
        "details": "Only owner can call this",
        "params": {
          "_protocolPercentageFee": "Percentage amount of protocol fee"
        }
      },
      "setRelay(address)": {
        "params": {
          "_relay": "Address of the relay contract"
        }
      },
      "setTeleBTC(address)": {
        "params": {
          "_teleBTC": "TeleportDAO BTC ERC20 token address"
        }
      },
      "setTreasury(address)": {
        "params": {
          "_treasury": "Treasury address"
        }
      },
      "transferOwnership(address)": {
        "details": "Transfers ownership of the contract to a new account (`newOwner`). Can only be called by the current owner."
      }
    },
    "version": 1
  },
  "userdoc": {
    "events": {
      "CCTransfer(address,uint256,uint256,uint256,address,uint256)": {
        "notice": "Emits when a cc transfer request gets done"
      }
    },
    "kind": "user",
    "methods": {
      "ccTransfer(bytes4,bytes,bytes,bytes4,uint256,bytes,uint256,address)": {
        "notice": "Executes the cross chain transfer request"
      },
      "constructor": {
        "notice": "Gives default params to initiate cc transfer router"
      },
      "isRequestUsed(bytes32)": {
        "notice": "Check if the request has been executed before"
      },
      "setInstantRouter(address)": {
        "notice": "Setter for instant router"
      },
      "setLockers(address)": {
        "notice": "Setter for relay"
      },
      "setProtocolPercentageFee(uint256)": {
        "notice": "Setter for protocol percentage fee"
      },
      "setRelay(address)": {
        "notice": "Setter for relay"
      },
      "setTeleBTC(address)": {
        "notice": "Setter for teleBTC"
      },
      "setTreasury(address)": {
        "notice": "Setter for treasury"
      }
    },
    "version": 1
  },
  "storageLayout": {
    "storage": [
      {
        "astId": 807,
        "contract": "contracts/routers/CCTransferRouter.sol:CCTransferRouter",
        "label": "_owner",
        "offset": 0,
        "slot": "0",
        "type": "t_address"
      },
      {
        "astId": 1006,
        "contract": "contracts/routers/CCTransferRouter.sol:CCTransferRouter",
        "label": "_status",
        "offset": 0,
        "slot": "1",
        "type": "t_uint256"
      },
      {
        "astId": 16237,
        "contract": "contracts/routers/CCTransferRouter.sol:CCTransferRouter",
        "label": "startingBlockNumber",
        "offset": 0,
        "slot": "2",
        "type": "t_uint256"
      },
      {
        "astId": 16240,
        "contract": "contracts/routers/CCTransferRouter.sol:CCTransferRouter",
        "label": "chainId",
        "offset": 0,
        "slot": "3",
        "type": "t_uint256"
      },
      {
        "astId": 16243,
        "contract": "contracts/routers/CCTransferRouter.sol:CCTransferRouter",
        "label": "appId",
        "offset": 0,
        "slot": "4",
        "type": "t_uint256"
      },
      {
        "astId": 16246,
        "contract": "contracts/routers/CCTransferRouter.sol:CCTransferRouter",
        "label": "protocolPercentageFee",
        "offset": 0,
        "slot": "5",
        "type": "t_uint256"
      },
      {
        "astId": 16249,
        "contract": "contracts/routers/CCTransferRouter.sol:CCTransferRouter",
        "label": "relay",
        "offset": 0,
        "slot": "6",
        "type": "t_address"
      },
      {
        "astId": 16252,
        "contract": "contracts/routers/CCTransferRouter.sol:CCTransferRouter",
        "label": "lockers",
        "offset": 0,
        "slot": "7",
        "type": "t_address"
      },
      {
        "astId": 16255,
        "contract": "contracts/routers/CCTransferRouter.sol:CCTransferRouter",
        "label": "teleBTC",
        "offset": 0,
        "slot": "8",
        "type": "t_address"
      },
      {
        "astId": 16258,
        "contract": "contracts/routers/CCTransferRouter.sol:CCTransferRouter",
        "label": "instantRouter",
        "offset": 0,
        "slot": "9",
        "type": "t_address"
      },
      {
        "astId": 16261,
        "contract": "contracts/routers/CCTransferRouter.sol:CCTransferRouter",
        "label": "treasury",
        "offset": 0,
        "slot": "10",
        "type": "t_address"
      },
      {
        "astId": 16266,
        "contract": "contracts/routers/CCTransferRouter.sol:CCTransferRouter",
        "label": "ccTransferRequests",
        "offset": 0,
        "slot": "11",
        "type": "t_mapping(t_bytes32,t_struct(ccTransferRequest)18403_storage)"
      }
    ],
    "types": {
      "t_address": {
        "encoding": "inplace",
        "label": "address",
        "numberOfBytes": "20"
      },
      "t_bool": {
        "encoding": "inplace",
        "label": "bool",
        "numberOfBytes": "1"
      },
      "t_bytes32": {
        "encoding": "inplace",
        "label": "bytes32",
        "numberOfBytes": "32"
      },
      "t_mapping(t_bytes32,t_struct(ccTransferRequest)18403_storage)": {
        "encoding": "mapping",
        "key": "t_bytes32",
        "label": "mapping(bytes32 => struct ICCTransferRouter.ccTransferRequest)",
        "numberOfBytes": "32",
        "value": "t_struct(ccTransferRequest)18403_storage"
      },
      "t_struct(ccTransferRequest)18403_storage": {
        "encoding": "inplace",
        "label": "struct ICCTransferRouter.ccTransferRequest",
        "members": [
          {
            "astId": 18394,
            "contract": "contracts/routers/CCTransferRouter.sol:CCTransferRouter",
            "label": "inputAmount",
            "offset": 0,
            "slot": "0",
            "type": "t_uint256"
          },
          {
            "astId": 18396,
            "contract": "contracts/routers/CCTransferRouter.sol:CCTransferRouter",
            "label": "recipientAddress",
            "offset": 0,
            "slot": "1",
            "type": "t_address"
          },
          {
            "astId": 18398,
            "contract": "contracts/routers/CCTransferRouter.sol:CCTransferRouter",
            "label": "fee",
            "offset": 0,
            "slot": "2",
            "type": "t_uint256"
          },
          {
            "astId": 18400,
            "contract": "contracts/routers/CCTransferRouter.sol:CCTransferRouter",
            "label": "speed",
            "offset": 0,
            "slot": "3",
            "type": "t_uint256"
          },
          {
            "astId": 18402,
            "contract": "contracts/routers/CCTransferRouter.sol:CCTransferRouter",
            "label": "isUsed",
            "offset": 0,
            "slot": "4",
            "type": "t_bool"
          }
        ],
        "numberOfBytes": "160"
      },
      "t_uint256": {
        "encoding": "inplace",
        "label": "uint256",
        "numberOfBytes": "32"
      }
    }
  }
}