{
  "address": "0x4a34FE2aFD275d95C8971c54e8E4deFFD9A85912",
  "abi": [
    {
      "inputs": [
        {
          "internalType": "address",
          "name": "_bitcoinRelay",
          "type": "address"
        },
        {
          "internalType": "address",
          "name": "_bitcoinTeleporter",
          "type": "address"
        },
        {
          "internalType": "uint256",
          "name": "_normalConfirmationParameter",
          "type": "uint256"
        }
      ],
      "stateMutability": "nonpayable",
      "type": "constructor"
    },
    {
      "anonymous": false,
      "inputs": [
        {
          "indexed": false,
          "internalType": "address",
          "name": "user",
          "type": "address"
        },
        {
          "indexed": false,
          "internalType": "address",
          "name": "inputToken",
          "type": "address"
        },
        {
          "indexed": false,
          "internalType": "uint256",
          "name": "inputAmount",
          "type": "uint256"
        },
        {
          "indexed": false,
          "internalType": "uint256",
          "name": "speed",
          "type": "uint256"
        }
      ],
      "name": "CCTransfer",
      "type": "event"
    },
    {
      "anonymous": false,
      "inputs": [
        {
          "indexed": false,
          "internalType": "address",
          "name": "user",
          "type": "address"
        },
        {
          "indexed": false,
          "internalType": "uint256",
          "name": "amount",
          "type": "uint256"
        }
      ],
      "name": "PaybackFastLoan",
      "type": "event"
    },
    {
      "inputs": [],
      "name": "bitcoinFastPool",
      "outputs": [
        {
          "internalType": "address",
          "name": "",
          "type": "address"
        }
      ],
      "stateMutability": "view",
      "type": "function"
    },
    {
      "inputs": [],
      "name": "bitcoinInstantPool",
      "outputs": [
        {
          "internalType": "address",
          "name": "",
          "type": "address"
        }
      ],
      "stateMutability": "view",
      "type": "function"
    },
    {
      "inputs": [],
      "name": "bitcoinRelay",
      "outputs": [
        {
          "internalType": "address",
          "name": "",
          "type": "address"
        }
      ],
      "stateMutability": "view",
      "type": "function"
    },
    {
      "inputs": [],
      "name": "bitcoinTeleporter",
      "outputs": [
        {
          "internalType": "address",
          "name": "",
          "type": "address"
        }
      ],
      "stateMutability": "view",
      "type": "function"
    },
    {
      "inputs": [],
      "name": "ccExchangeRouter",
      "outputs": [
        {
          "internalType": "address",
          "name": "",
          "type": "address"
        }
      ],
      "stateMutability": "view",
      "type": "function"
    },
    {
      "inputs": [
        {
          "internalType": "bytes4",
          "name": "version",
          "type": "bytes4"
        },
        {
          "internalType": "bytes",
          "name": "vin",
          "type": "bytes"
        },
        {
          "internalType": "bytes",
          "name": "vout",
          "type": "bytes"
        },
        {
          "internalType": "bytes4",
          "name": "locktime",
          "type": "bytes4"
        },
        {
          "internalType": "uint256",
          "name": "blockNumber",
          "type": "uint256"
        },
        {
          "internalType": "bytes",
          "name": "intermediateNodes",
          "type": "bytes"
        },
        {
          "internalType": "uint256",
          "name": "index",
          "type": "uint256"
        },
        {
          "internalType": "bool",
          "name": "payWithTDT",
          "type": "bool"
        }
      ],
      "name": "ccTransfer",
      "outputs": [
        {
          "internalType": "bool",
          "name": "",
          "type": "bool"
        }
      ],
      "stateMutability": "nonpayable",
      "type": "function"
    },
    {
      "inputs": [
        {
          "internalType": "address",
          "name": "_owner",
          "type": "address"
        }
      ],
      "name": "changeOwner",
      "outputs": [],
      "stateMutability": "nonpayable",
      "type": "function"
    },
    {
      "inputs": [],
      "name": "fastRouter",
      "outputs": [
        {
          "internalType": "address",
          "name": "",
          "type": "address"
        }
      ],
      "stateMutability": "view",
      "type": "function"
    },
    {
      "inputs": [
        {
          "internalType": "address",
          "name": "signer",
          "type": "address"
        },
        {
          "internalType": "bytes",
          "name": "signature",
          "type": "bytes"
        },
        {
          "internalType": "address",
          "name": "receiver",
          "type": "address"
        },
        {
          "internalType": "uint256",
          "name": "instantTokenAmount",
          "type": "uint256"
        },
        {
          "internalType": "uint256",
          "name": "deadline",
          "type": "uint256"
        }
      ],
      "name": "instantCCTransferWithPermit",
      "outputs": [
        {
          "internalType": "bool",
          "name": "",
          "type": "bool"
        }
      ],
      "stateMutability": "nonpayable",
      "type": "function"
    },
    {
      "inputs": [],
      "name": "instantRouter",
      "outputs": [
        {
          "internalType": "address",
          "name": "",
          "type": "address"
        }
      ],
      "stateMutability": "view",
      "type": "function"
    },
    {
      "inputs": [
        {
          "internalType": "bytes32",
          "name": "txId",
          "type": "bytes32"
        }
      ],
      "name": "isRequestMinted",
      "outputs": [
        {
          "internalType": "bool",
          "name": "",
          "type": "bool"
        }
      ],
      "stateMutability": "view",
      "type": "function"
    },
    {
      "inputs": [
        {
          "internalType": "bytes32",
          "name": "txId",
          "type": "bytes32"
        }
      ],
      "name": "isRequestUsed",
      "outputs": [
        {
          "internalType": "bool",
          "name": "",
          "type": "bool"
        }
      ],
      "stateMutability": "view",
      "type": "function"
    },
    {
      "inputs": [
        {
          "internalType": "bytes32",
          "name": "txId",
          "type": "bytes32"
        }
      ],
      "name": "mintAfterFinalization",
      "outputs": [
        {
          "internalType": "bool",
          "name": "",
          "type": "bool"
        }
      ],
      "stateMutability": "nonpayable",
      "type": "function"
    },
    {
      "inputs": [],
      "name": "normalConfirmationParameter",
      "outputs": [
        {
          "internalType": "uint256",
          "name": "",
          "type": "uint256"
        }
      ],
      "stateMutability": "view",
      "type": "function"
    },
    {
      "inputs": [],
      "name": "owner",
      "outputs": [
        {
          "internalType": "address",
          "name": "",
          "type": "address"
        }
      ],
      "stateMutability": "view",
      "type": "function"
    },
    {
      "inputs": [
        {
          "internalType": "address",
          "name": "_bitcoinRelay",
          "type": "address"
        }
      ],
      "name": "setBitcoinRelay",
      "outputs": [],
      "stateMutability": "nonpayable",
      "type": "function"
    },
    {
      "inputs": [
        {
          "internalType": "address",
          "name": "_ccExchangeRouter",
          "type": "address"
        }
      ],
      "name": "setCCExchangeRouter",
      "outputs": [],
      "stateMutability": "nonpayable",
      "type": "function"
    },
    {
      "inputs": [
        {
          "internalType": "address",
          "name": "_fastRouter",
          "type": "address"
        }
      ],
      "name": "setFastRouter",
      "outputs": [],
      "stateMutability": "nonpayable",
      "type": "function"
    },
    {
      "inputs": [
        {
          "internalType": "address",
          "name": "_instantRouter",
          "type": "address"
        }
      ],
      "name": "setInstantRouter",
      "outputs": [],
      "stateMutability": "nonpayable",
      "type": "function"
    },
    {
      "inputs": [
        {
          "internalType": "uint256",
          "name": "_normalConfirmationParameter",
          "type": "uint256"
        }
      ],
      "name": "setNormalConfirmationParameter",
      "outputs": [],
      "stateMutability": "nonpayable",
      "type": "function"
    },
    {
      "inputs": [
        {
          "internalType": "address",
          "name": "_wrappedBitcoin",
          "type": "address"
        }
      ],
      "name": "setWrappedBitcoin",
      "outputs": [
        {
          "internalType": "bool",
          "name": "",
          "type": "bool"
        }
      ],
      "stateMutability": "nonpayable",
      "type": "function"
    },
    {
      "inputs": [
        {
          "internalType": "bytes32",
          "name": "",
          "type": "bytes32"
        }
      ],
      "name": "wrapRequests",
      "outputs": [
        {
          "internalType": "uint256",
          "name": "bitcoinAmount",
          "type": "uint256"
        },
        {
          "internalType": "address",
          "name": "recipientAddress",
          "type": "address"
        },
        {
          "internalType": "bool",
          "name": "isExchange",
          "type": "bool"
        },
        {
          "internalType": "uint256",
          "name": "teleporterFee",
          "type": "uint256"
        },
        {
          "internalType": "uint256",
          "name": "speed",
          "type": "uint256"
        },
        {
          "internalType": "bool",
          "name": "isUsed",
          "type": "bool"
        },
        {
          "internalType": "uint256",
          "name": "deadline",
          "type": "uint256"
        },
        {
          "internalType": "uint256",
          "name": "blockNumber",
          "type": "uint256"
        },
        {
          "internalType": "bytes",
          "name": "intermediateNodes",
          "type": "bytes"
        },
        {
          "internalType": "uint256",
          "name": "index",
          "type": "uint256"
        },
        {
          "internalType": "bool",
          "name": "isMinted",
          "type": "bool"
        },
        {
          "internalType": "uint256",
          "name": "exchangeAmount",
          "type": "uint256"
        },
        {
          "internalType": "address",
          "name": "exchangeToken",
          "type": "address"
        }
      ],
      "stateMutability": "view",
      "type": "function"
    },
    {
      "inputs": [],
      "name": "wrappedBitcoin",
      "outputs": [
        {
          "internalType": "address",
          "name": "",
          "type": "address"
        }
      ],
      "stateMutability": "view",
      "type": "function"
    }
  ],
  "transactionHash": "0x34952ba6536ec7fe469fba846ccacd2c6ede8688ab4b5017a83d1f3be5004fd5",
  "args": [
    "0x9fa5Fd5E52D0793e4bc9A170eEF232eD15DaA6Ad",
    "0xD57a0FF38FE9b8803904D0F79f44792bd79524C6",
    3
  ],
  "numDeployments": 1,
  "solcInputHash": "b766d894e7507eaf09e41e8de1c94935",
  "bytecode": "0x608060405234801561001057600080fd5b50604051613cb8380380613cb88339818101604052606081101561003357600080fd5b5080516020820151604090920151600080546001600160a01b039384166001600160a01b0319918216178255600180549490951693811693909317909355600955600a805490911633179055613c2990819061008f90396000f3fe608060405234801561001057600080fd5b506004361061014d5760003560e01c80638c99247b116100c3578063c6f461821161007c578063c6f4618214610623578063cc1c29901461062b578063d1d8d2ed14610645578063e35a0a881461064d578063e7740b2714610655578063e97fe07d146106725761014d565b80638c99247b146104e25780638da5cb5b146105aa578063a6f9dae1146105b2578063a7edfd92146105d8578063aafcad75146105f5578063ae13be3b146105fd5761014d565b806339c3d40c1161011557806339c3d40c146102e15780635615e16f146104545780636006bb441461045c5780637a7db8c71461048257806380bc47261461049f578063870ba6cf146104bc5761014d565b806302b0b472146101525780630981a666146101765780630c03c205146101b05780630e232b45146101d857806325dcd36a146102d9575b600080fd5b61015a61067a565b604080516001600160a01b039092168252519081900360200190f35b61019c6004803603602081101561018c57600080fd5b50356001600160a01b0316610689565b604080519115158252519081900360200190f35b6101d6600480360360208110156101c657600080fd5b50356001600160a01b03166106c7565b005b6101f5600480360360208110156101ee57600080fd5b5035610788565b604051808e81526020018d6001600160a01b031681526020018c151581526020018b81526020018a81526020018915158152602001888152602001878152602001806020018681526020018515158152602001848152602001836001600160a01b03168152602001828103825287818151815260200191508051906020019080838360005b8381101561029257818101518382015260200161027a565b50505050905090810190601f1680156102bf5780820380516001836020036101000a031916815260200191505b509e50505050505050505050505050505060405180910390f35b61015a610893565b61019c60048036036101008110156102f857600080fd5b6001600160e01b03198235169190810190604081016020820135600160201b81111561032357600080fd5b82018360208201111561033557600080fd5b803590602001918460018302840111600160201b8311171561035657600080fd5b91908080601f0160208091040260200160405190810160405280939291908181526020018383808284376000920191909152509295949360208101935035915050600160201b8111156103a857600080fd5b8201836020820111156103ba57600080fd5b803590602001918460018302840111600160201b831117156103db57600080fd5b919390926001600160e01b0319833516926020810135929190606081019060400135600160201b81111561040e57600080fd5b82018360208201111561042057600080fd5b803590602001918460018302840111600160201b8311171561044157600080fd5b91935091508035906020013515156108a2565b61015a610e1e565b6101d66004803603602081101561047257600080fd5b50356001600160a01b0316610e2d565b6101d66004803603602081101561049857600080fd5b5035610e66565b61019c600480360360208110156104b557600080fd5b5035610e82565b6101d6600480360360208110156104d257600080fd5b50356001600160a01b0316610eb1565b61019c600480360360a08110156104f857600080fd5b6001600160a01b038235169190810190604081016020820135600160201b81111561052257600080fd5b82018360208201111561053457600080fd5b803590602001918460018302840111600160201b8311171561055557600080fd5b91908080601f016020809104026020016040519081016040528093929190818152602001838380828437600092019190915250929550506001600160a01b038335169350505060208101359060400135610f6e565b61015a6110eb565b6101d6600480360360208110156105c857600080fd5b50356001600160a01b03166110fa565b61019c600480360360208110156105ee57600080fd5b5035611133565b61015a61115a565b6101d66004803603602081101561061357600080fd5b50356001600160a01b0316611169565b61015a6111a2565b6106336111b1565b60408051918252519081900360200190f35b61015a6111b7565b61015a6111c6565b61019c6004803603602081101561066b57600080fd5b50356111d5565b61015a6115aa565b6008546001600160a01b031681565b600a546000906001600160a01b031633146106a357600080fd5b50600680546001600160a01b0319166001600160a01b03831617905560015b919050565b600a546001600160a01b031633146106de57600080fd5b600580546001600160a01b0319166001600160a01b0383811691909117918290556040805163637a30c160e11b81529051929091169163c6f4618291600480820192602092909190829003018186803b15801561073a57600080fd5b505afa15801561074e573d6000803e3d6000fd5b505050506040513d602081101561076457600080fd5b5051600780546001600160a01b0319166001600160a01b0390921691909117905550565b60026020818152600092835260409283902080546001808301548386015460038501546004860154600587015460068801546007890180548d51610100998216159990990260001901169b909b04601f81018b90048b0288018b01909c528b8752969a6001600160a01b0386169a600160a01b90960460ff9081169a95999498931696919592949192918301828280156108635780601f1061083857610100808354040283529160200191610863565b820191906000526020600020905b81548152906001019060200180831161084657829003601f168201915b5050505060088301546009840154600a850154600b909501549394919360ff90911692506001600160a01b03168d565b6005546001600160a01b031681565b6000806108b28c8c8c8c8c6115b9565b90506108bd81611792565b60008181526002602052604090206004015490915060ff1615610927576040805162461bcd60e51b815260206004820152601c60248201527f5265717565737420686173206265656e2075736564206265666f726500000000604482015290519081900360640190fd5b6109a08a8a8080601f01602080910402602001604051908101604052809392919081815260200183838082843760009201919091525050604080516020601f8c018190048102820181019092528a81528c935091508a908a90819084018382808284376000920191909152508a92508791506118489050565b600081815260026020526040902060030154610b10576109fd818888888080601f016020809104026020016040519081016040528093929190818152602001838380828437600092019190915250506009548a9250899150611acb565b610a4e576040805162461bcd60e51b815260206004820152601d60248201527f5472616e73616374696f6e20686173206e6f742066696e616c697a6564000000604482015290519081900360640190fd5b610a5781611bea565b610a925760405162461bcd60e51b8152600401808060200182810382526025815260200180613a5c6025913960400191505060405180910390fd5b6000818152600260209081526040918290206001810154600654825460039093015485516001600160a01b039384168152919092169381019390935282840191909152606082015290517f4dd447d32b0eb26431cafc536583d8145b95b1eb93077de974f521fcea816e1c9181900360800190a16001915050610e10565b60008181526002602052604090206003015460011415610d1757610b71818888888080601f016020809104026020016040519081016040528093929190818152602001838380828437600092019190915250506009548a9250899150611acb565b151560011415610c4157610b8481611bea565b610bbf5760405162461bcd60e51b8152600401808060200182810382526023815260200180613acb6023913960400191505060405180910390fd5b600081815260026020908152604080832060098101805460ff19166001908117909155810154600654915483516001600160a01b039283168152919092169381019390935282820152606082019290925290517f4dd447d32b0eb26431cafc536583d8145b95b1eb93077de974f521fcea816e1c9181900360800190a1610d0d565b610c8e818888888080601f0160208091040260200160405190810160405280939291908181526020018383808284376000920191909152508a9250899150610c899050611f4c565b611acb565b610cc95760405162461bcd60e51b8152600401808060200182810382526031815260200180613a056031913960400191505060405180910390fd5b610cd281611fc2565b610a925760405162461bcd60e51b8152600401808060200182810382526023815260200180613acb6023913960400191505060405180910390fd5b6001915050610e10565b6000818152600260208190526040909120600301541415610e0e57610d79818888888080601f016020809104026020016040519081016040528093929190818152602001838380828437600092019190915250506009548a9250899150611acb565b610dca576040805162461bcd60e51b815260206004820152601d60248201527f5472616e73616374696f6e20686173206e6f742066696e616c697a6564000000604482015290519081900360640190fd5b610dd3816121c1565b610d0d5760405162461bcd60e51b8152600401808060200182810382526026815260200180613a366026913960400191505060405180910390fd5b505b9a9950505050505050505050565b6006546001600160a01b031681565b600a546001600160a01b03163314610e4457600080fd5b600080546001600160a01b0319166001600160a01b0392909216919091179055565b600a546001600160a01b03163314610e7d57600080fd5b600955565b60008181526002602052604081206004015460ff16151560011415610ea9575060016106c2565b5060006106c2565b600a546001600160a01b03163314610ec857600080fd5b600480546001600160a01b0319166001600160a01b0383811691909117808355604080516301585a3960e11b8152905191909216926302b0b47292808201926020929091829003018186803b158015610f2057600080fd5b505afa158015610f34573d6000803e3d6000fd5b505050506040513d6020811015610f4a57600080fd5b5051600880546001600160a01b0319166001600160a01b0390921691909117905550565b6000600460009054906101000a90046001600160a01b03166001600160a01b0316638c99247b87878787876040518663ffffffff1660e01b815260040180866001600160a01b0316815260200180602001856001600160a01b03168152602001848152602001838152602001828103825286818151815260200191508051906020019080838360005b8381101561100f578181015183820152602001610ff7565b50505050905090810190601f16801561103c5780820380516001836020036101000a031916815260200191505b509650505050505050602060405180830381600087803b15801561105f57600080fd5b505af1158015611073573d6000803e3d6000fd5b505050506040513d602081101561108957600080fd5b5050600654604080516001600160a01b038088168252909216602083015281810185905260026060830152517f4dd447d32b0eb26431cafc536583d8145b95b1eb93077de974f521fcea816e1c9181900360800190a150600195945050505050565b600a546001600160a01b031681565b600a546001600160a01b0316331461111157600080fd5b600a80546001600160a01b0319166001600160a01b0392909216919091179055565b60008181526002602052604081206009015460ff16151560011415610ea9575060016106c2565b6000546001600160a01b031681565b600a546001600160a01b0316331461118057600080fd5b600380546001600160a01b0319166001600160a01b0392909216919091179055565b6007546001600160a01b031681565b60095481565b6001546001600160a01b031681565b6004546001600160a01b031681565b60006111df6138bd565b60008381526002602081815260409283902083516101a081018552815481526001808301546001600160a01b03811683860152600160a01b900460ff90811615158388015283860154606084015260038401546080840152600484015416151560a0830152600583015460c0830152600683015460e083015260078301805487516101009382161584026000190190911696909604601f810186900486028701860190975286865291959294908601939092908301828280156112e35780601f106112b8576101008083540402835291602001916112e3565b820191906000526020600020905b8154815290600101906020018083116112c657829003601f168201915b505050918352505060088201546020820152600982015460ff1615156040820152600a8201546060820152600b909101546001600160a01b031660809091015260a0810151909150151560011461136b5760405162461bcd60e51b8152600401808060200182810382526029815260200180613aa26029913960400191505060405180910390fd5b610140810151156113ad5760405162461bcd60e51b8152600401808060200182810382526022815260200180613b286022913960400191505060405180910390fd5b6113cc838260e001518361010001518461012001516001600954611acb565b6114075760405162461bcd60e51b8152600401808060200182810382526022815260200180613b4a6022913960400191505060405180910390fd5b600083815260026020818152604080842060098101805460ff1916600117905560065460075482860154925484516340c10f1960e01b81526001600160a01b03928316600482015296909304909203602486015291519116936340c10f19936044808201949392918390030190829087803b15801561148557600080fd5b505af1158015611499573d6000803e3d6000fd5b505050506040513d60208110156114af57600080fd5b5050600654600084815260026020818152604080842083015481516340c10f1960e01b81523360048201529390046024840152516001600160a01b03909416936340c10f19936044808501948390030190829087803b15801561151157600080fd5b505af1158015611525573d6000803e3d6000fd5b505050506040513d602081101561153b57600080fd5b5050600083815260026020818152604092839020600181015481840154915485516001600160a01b039092168252939091049092039082015281517f04b4e6dca8cce7a9ba30efb65be30df4386de23abacb58603039fbd821ab9038929181900390910190a150600192915050565b6003546001600160a01b031681565b6000806002878787878760405160200180866001600160e01b031916815260040185805190602001908083835b602083106116055780518252601f1990920191602091820191016115e6565b6001836020036101000a03801982511681845116808217855250505050505090500184848082843780830192505050826001600160e01b0319168152600401955050505050506040516020818303038152906040526040518082805190602001908083835b602083106116895780518252601f19909201916020918201910161166a565b51815160209384036101000a60001901801990921691161790526040519190930194509192505080830381855afa1580156116c8573d6000803e3d6000fd5b5050506040513d60208110156116dd57600080fd5b5051604080516020818101849052825180830382018152918301928390528151939450600093600293918291908401908083835b602083106117305780518252601f199092019160209182019101611711565b51815160209384036101000a60001901801990921691161790526040519190930194509192505080830381855afa15801561176f573d6000803e3d6000fd5b5050506040513d602081101561178457600080fd5b505198975050505050505050565b6000606081805b602081101561183c57828582601f03602081106117b257fe5b1a60f81b6040516020018083805190602001908083835b602083106117e85780518252601f1990920191602091820191016117c9565b6001836020036101000a038019825116818451168082178552505050505050905001826001600160f81b03191681526001019250505060405160208183030381529060405292508080600101915050611799565b50506020015192915050565b60606118526138bd565b600154604080516375a31bb160e01b815290516000926001600160a01b0316916375a31bb1916004808301926020929190829003018186803b15801561189757600080fd5b505afa1580156118ab573d6000803e3d6000fd5b505050506040513d60208110156118c157600080fd5b505190506118cf88826124eb565b6001600160401b03909116835292506118e7836125d1565b6001600160a01b031660208301526118fe836125ec565b6001600160401b0316606083015261191583612607565b1515604083015261192583612654565b60ff1660808301526119368361266e565b6001600160401b031660c08301526080820151600114156119695760e08201879052610100820186905261012082018590525b8160800151600214156119b05761197f8361267e565b6001600160a01b03166101808301526119978361268e565b6fffffffffffffffffffffffffffffffff166101608301525b600160a0830181815260008681526002602081815260409283902087518155818801519581018054948901516001600160a01b03199095166001600160a01b039097169690961760ff60a01b1916600160a01b941515949094029390931790945560608601519082015560808501516003820155905160048201805460ff191691151591909117905560c0840151600582015560e0840151600682015561010084015180518593611a6892600785019291019061393d565b50610120820151600882015561014082015160098201805460ff1916911515919091179055610160820151600a82015561018090910151600b90910180546001600160a01b0319166001600160a01b039092169190911790555050505050505050565b60008060009054906101000a90046001600160a01b03166001600160a01b03166373b63c828888888888886040518763ffffffff1660e01b815260040180878152602001868152602001806020018581526020018415158152602001838152602001828103825286818151815260200191508051906020019080838360005b83811015611b62578181015183820152602001611b4a565b50505050905090810190601f168015611b8f5780820380516001836020036101000a031916815260200191505b50975050505050505050602060405180830381600087803b158015611bb357600080fd5b505af1158015611bc7573d6000803e3d6000fd5b505050506040513d6020811015611bdd57600080fd5b5051979650505050505050565b6000818152600260205260408120600190810154600160a01b900460ff1615151415611ec7576003546001600160a01b0316331415611cc05760065460035460008481526002602090815260408083205481516340c10f1960e01b81526001600160a01b0395861660048201526024810191909152905193909416936340c10f199360448083019491928390030190829087803b158015611c8a57600080fd5b505af1158015611c9e573d6000803e3d6000fd5b505050506040513d6020811015611cb457600080fd5b50600191506106c29050565b6003546001600160a01b03163314611ec7576000828152600260205260409020600501544311611d37576040805162461bcd60e51b815260206004820152601b60248201527f646561646c696e6520686173206e6f7420706173736564207965740000000000604482015290519081900360640190fd5b600082815260026020819052604090912080549101541115611d9d576040805162461bcd60e51b815260206004820152601a6024820152790e8cad8cae0dee4e8cae440cccaca40d2e640e8dede40daeac6d60331b604482015290519081900360640190fd5b6000828152600260208190526040909120015415611e445760065460008381526002602081815260408084209092015482516340c10f1960e01b8152336004820152602481019190915291516001600160a01b03909416936340c10f19936044808501948390030190829087803b158015611e1757600080fd5b505af1158015611e2b573d6000803e3d6000fd5b505050506040513d6020811015611e4157600080fd5b50505b600654600083815260026020819052604090912060018101549181015490546001600160a01b03938416936340c10f19931691611e8191906126a9565b6040518363ffffffff1660e01b815260040180836001600160a01b0316815260200182815260200192505050602060405180830381600087803b158015611c8a57600080fd5b600082815260026020526040902060010154600160a01b900460ff166106c2576000828152600260208190526040909120805491015410611d9d576040805162461bcd60e51b815260206004820152601a6024820152790e8cad8cae0dee4e8cae440cccaca40d2e640e8dede40daeac6d60331b604482015290519081900360640190fd5b6005546040805163794cc65960e11b815290516000926001600160a01b03169163f2998cb2916004808301926020929190829003018186803b158015611f9157600080fd5b505afa158015611fa5573d6000803e3d6000fd5b505050506040513d6020811015611fbb57600080fd5b5051905090565b6000818152600260205260408120600190810154600160a01b900460ff161515141561209b576003546001600160a01b03163314156120815760035460008381526002602052604090208054600690910154612028926001600160a01b031691906126ff565b612079576040805162461bcd60e51b815260206004820152601860248201527f66617374207472616e7366657220776173206661696c65640000000000000000604482015290519081900360640190fd5b5060016106c2565b6003546001600160a01b0316331461209b575060016106c2565b600082815260026020526040902060010154600160a01b900460ff166106c2576000828152600260208190526040909120015415612136576000828152600260208190526040909120808201546006909101546120fb92339204906126ff565b6121365760405162461bcd60e51b81526004018080602001828103825260268152602001806139df6026913960400191505060405180910390fd5b60008281526002602081905260409091206001810154918101548154600690920154612170936001600160a01b03169291909103906126ff565b612079576040805162461bcd60e51b815260206004820181905260248201527f66617374207472616e7366657220746f207573657220776173206661696c6564604482015290519081900360640190fd5b60008181526002602081905260408220805491015410612225576040805162461bcd60e51b815260206004820152601a6024820152790e8cad8cae0dee4e8cae440cccaca40d2e640e8dede40daeac6d60331b604482015290519081900360640190fd5b60008281526002602081905260409091200154156122cc5760065460008381526002602081815260408084209092015482516340c10f1960e01b8152336004820152602481019190915291516001600160a01b03909416936340c10f19936044808501948390030190829087803b15801561229f57600080fd5b505af11580156122b3573d6000803e3d6000fd5b505050506040513d60208110156122c957600080fd5b50505b60065460008381526002602081905260409091209081015490546001600160a01b03909216916340c10f19913091612303916126a9565b6040518363ffffffff1660e01b815260040180836001600160a01b0316815260200182815260200192505050602060405180830381600087803b15801561234957600080fd5b505af115801561235d573d6000803e3d6000fd5b505050506040513d602081101561237357600080fd5b505060065460045460008481526002602081905260409091209081015490546001600160a01b039384169363095ea7b39316916123b091906126a9565b6040518363ffffffff1660e01b815260040180836001600160a01b0316815260200182815260200192505050602060405180830381600087803b1580156123f657600080fd5b505af115801561240a573d6000803e3d6000fd5b505050506040513d602081101561242057600080fd5b50506004546000838152600260208190526040822090810154905491926001600160a01b031691634324a0009161245791906126a9565b60008681526002602090815260408083206001015481516001600160e01b031960e088901b16815260048101959095526001600160a01b0316602485015251604480850194929391928390030190829087803b1580156124b657600080fd5b505af11580156124ca573d6000803e3d6000fd5b505050506040513d60208110156124e057600080fd5b506001949350505050565b60006060816125086124fd8683612795565b62ffffff19166127b9565b90506000806000806000606060006125218860006128e7565b6001600160401b0316905060005b818110156125bf576125418982612a00565b975061254c88612b07565b955061255786612b5d565b945062ffffff1980861614156125a55761257862ffffff1987166003612c2e565b93508b6001600160a01b0316846001600160a01b031614156125a05761259d88612c3c565b96505b6125b7565b6125b462ffffff198616612c50565b92505b60010161252f565b50949b909a5098505050505050505050565b6000806125e18360006013612c8f565b601401519392505050565b6000806125fc836014601b612c8f565b600801519392505050565b60008061261683601c80612c8f565b805190915060009081908390829061262a57fe5b01602001516001600160f81b0319161415612648576000925061264d565b600192505b5050919050565b60008061266383601d80612c8f565b600101519392505050565b6000806125fc8360426049612c8f565b6000806125e183601e6031612c8f565b60008061269e8360326041612c8f565b601001519392505050565b808203828111156126f9576040805162461bcd60e51b815260206004820152601560248201527464732d6d6174682d7375622d756e646572666c6f7760581b604482015290519081900360640190fd5b92915050565b60055460408051632049504760e01b81526001600160a01b03868116600483015260248201869052604482018590529151600093929092169163204950479160648082019260209290919082900301818787803b15801561275f57600080fd5b505af1158015612773573d6000803e3d6000fd5b505050506040513d602081101561278957600080fd5b505190505b9392505050565b8151600090602084016127b064ffffffffff85168284612d4a565b95945050505050565b600081816127cf815b62ffffff19841690612d84565b506127df62ffffff198516612ec2565b6001600160601b03166127fb576127f4612ed1565b925061264d565b60006128088560006128e7565b9050600061281b62ffffff198716612ec2565b6001600160601b031690506001600160401b0382166128455761283c612ed1565b9450505061264d565b600061285083612ed9565b60ff16905060005b836001600160401b03168110156128b15782821061288357612878612ed1565b96505050505061264d565b600061289962ffffff198a16848603600e612f32565b90506128a481612f63565b9092019150600101612858565b508181146128cb576128c1612ed1565b955050505061264d565b6128dc62ffffff198816600f612fa5565b979650505050505050565b6000806128fc62ffffff198516846001612fb7565b905060fc811161290d5790506126f9565b8060fd14156129635761292b62ffffff198516600185016002612fd8565b915061293682612ed9565b60ff1660031461295e5761295c61295762ffffff1986168560036000612fed565b613052565b505b6129f9565b8060fe14156129ad5761298162ffffff198516600185016004612fd8565b915061298c82612ed9565b60ff1660051461295e5761295c61295762ffffff1986168560056000612fed565b8060ff14156129f9576129cb62ffffff198516600185016008612fd8565b91506129d682612ed9565b60ff166009146129f9576129f761295762ffffff1986168560096000612fed565b505b5092915050565b600080612a0e8460006128e7565b6001600160401b031690506000612a2a62ffffff198616612ec2565b6001600160601b03169050818410612a7d576040805162461bcd60e51b81526020600482015260116024820152702b37baba103932b0b21037bb32b9393ab760791b604482015290519081900360640190fd5b6000612a8883612ed9565b60ff1690506000805b86811015612ac457612aad62ffffff198916848603600e612f32565b9150612ab882612f63565b90920191600101612a91565b50612ad962ffffff198816838503600e612f32565b90506000612ae682612f63565b9050612afb62ffffff1989168483600d612fed565b98975050505050505050565b600081600d612b15816127c2565b506000612b238560086128e7565b90506127b0600882612b3484612ed9565b60ff16016001600160401b031660076014811115612b4e57fe5b62ffffff198916929190612fed565b6000816007612b6b816127c2565b506000612b798560006128e7565b90506000612b9062ffffff19871660026001612fb7565b9050604d826001600160401b03161180612bb357506004826001600160401b0316105b80612bd05750612bcb62ffffff198716600180612fb7565b606a14155b80612bfa57506001600160401b03600119830116612bf762ffffff19881660026001612fb7565b14155b15612c075761283c612ed1565b612c2462ffffff19871660036001600160401b038416600c612fed565b9695505050505050565b600061278e83836014612fb7565b60006126f962ffffff198316826008612fd8565b6060600080612c5e84612ec2565b6001600160601b031690506040519150819250612c7e8483602001613120565b508181016020016040529052919050565b60606000835b83600101811015612d4157858181518110612cac57fe5b602001015160f81c60f81b915082826040516020018083805190602001908083835b60208310612ced5780518252601f199092019160209182019101612cce565b6001836020036101000a038019825116818451168082178552505050505050905001826001600160f81b03191681526001019250505060405160208183030381529060405292508080600101915050612c95565b50509392505050565b600080612d57848461320e565b9050604051811115612d67575060005b80612d795762ffffff1991505061278e565b6127b085858561325d565b6000612d908383613270565b612ebb576000612dae612da285613292565b64ffffffffff16613298565b9150506000612dc38464ffffffffff16613298565b604080517f5479706520617373657274696f6e206661696c65642e20476f742030780000006020808301919091526001600160b01b031960b088811b8216603d8501526c05c408af0e0cac6e8cac84060f609b1b604785015285901b1660548301528251603e818403018152605e83019384905262461bcd60e51b909352606282018181528351608284015283519496509294508493839260a2019185019080838360005b83811015612e80578181015183820152602001612e68565b50505050905090810190601f168015612ead5780820380516001836020036101000a031916815260200191505b509250505060405180910390fd5b5090919050565b60181c6001600160601b031690565b62ffffff1990565b600060fc826001600160401b031611612ef4575060016106c2565b61ffff826001600160401b031611612f0e575060036106c2565b63ffffffff826001600160401b031611612f2a575060056106c2565b5060096106c2565b6000612f5b84612f5485612f4588612ec2565b6001600160601b0316906126a9565b8585612fed565b949350505050565b600081600e612f71816127c2565b506000612f7f8560086128e7565b9050806001600160401b0316612f9482612ed9565b60ff16016008019350505050919050565b60d81b6001600160d81b039091161790565b60008160200360080260ff16612fce858585613330565b901c949350505050565b6000612f5b612fe8858585613330565b613456565b600080612ff986613590565b6001600160601b0316905061300d8661359f565b6130218561301b848961320e565b9061320e565b11156130345762ffffff19915050612f5b565b61303e818661320e565b9050612c248364ffffffffff168286612d4a565b6060600061307f61307a8261306c62ffffff198716612ec2565b62ffffff1987169190612fb7565b613298565b604080517f4e6f6e2d6d696e696d616c2076617220696e742e20476f742030780000000000602080830191909152607084901b6dffffffffffffffffffffffffffff1916603b8301528251808303602d018152604d83019384905262461bcd60e51b90935260518201818152835160718401528351949650929450849383926091019185019080838360008315612e80578181015183820152602001612e68565b600061312b836135c4565b6131665760405162461bcd60e51b8152600401808060200182810382526028815260200180613b6c6028913960400191505060405180910390fd5b61316f836135d6565b6131aa5760405162461bcd60e51b815260040180806020018281038252602b815260200180613b94602b913960400191505060405180910390fd5b60006131b584612ec2565b6001600160601b0316905060006131cb85613590565b6001600160601b0316905060006040519050848111156131eb5760206060fd5b8285848460045afa50612c2461320087613292565b64ffffffffff16868561325d565b808201828110156126f9576040805162461bcd60e51b815260206004820152601460248201527364732d6d6174682d6164642d6f766572666c6f7760601b604482015290519081900360640190fd5b606092831b9190911790911b1760181b90565b60008164ffffffffff1661328384613292565b64ffffffffff16149392505050565b60d81c90565b600080601f5b600f8160ff1611156132e25760ff600882021684901c6132bd81613613565b61ffff16841793508160ff166010146132d857601084901b93505b506000190161329e565b50600f5b60ff8160ff16101561332a5760ff600882021684901c61330581613613565b61ffff16831792508160ff1660001461332057601083901b92505b50600019016132e6565b50915091565b600060ff82166133425750600061278e565b61334b84612ec2565b6001600160601b03166133618460ff851661320e565b11156133df5761339861337385613590565b6001600160601b031661338586612ec2565b6001600160601b0316858560ff16613643565b60405162461bcd60e51b8152602060048201818152835160248401528351909283926044909101919085019080838360008315612e80578181015183820152602001612e68565b60208260ff1611156134225760405162461bcd60e51b815260040180806020018281038252603a815260200180613aee603a913960400191505060405180910390fd5b60088202600061343186613590565b6001600160601b03169050600061344783613736565b91909501511695945050505050565b600881811c7eff00ff00ff00ff00ff00ff00ff00ff00ff00ff00ff00ff00ff00ff00ff00ff167fff00ff00ff00ff00ff00ff00ff00ff00ff00ff00ff00ff00ff00ff00ff00ff009290911b9190911617601081811c7dffff0000ffff0000ffff0000ffff0000ffff0000ffff0000ffff0000ffff167fffff0000ffff0000ffff0000ffff0000ffff0000ffff0000ffff0000ffff00009290911b9190911617602081811c7bffffffff00000000ffffffff00000000ffffffff00000000ffffffff167fffffffff00000000ffffffff00000000ffffffff00000000ffffffff000000009290911b9190911617604081811c77ffffffffffffffff0000000000000000ffffffffffffffff1677ffffffffffffffff0000000000000000ffffffffffffffff199290911b9190911617608081811c91901b1790565b60781c6001600160601b031690565b60006135aa82612ec2565b6135b383613590565b016001600160601b03169050919050565b60006135cf82613745565b1592915050565b60006135e182613292565b64ffffffffff1664ffffffffff14156135fc575060006106c2565b60006136078361359f565b60405110199392505050565b600061362560048360ff16901c613751565b60ff161760081b62ffff001661363a82613751565b60ff1617919050565b6060600061365086613298565b915050600061365e86613298565b915050600061366c86613298565b915050600061367a86613298565b915050838383836040516020018080613bbf603591396001600160d01b031960d087811b821660358401526e040eed2e8d040d8cadccee8d04060f608b1b603b84015286901b16604a8201526050016021613a8182396001600160d01b031960d094851b811660218301526e040eed2e8d040d8cadccee8d04060f608b1b60278301529290931b909116603683015250601760f91b603c82015260408051601d818403018152603d90920190529b9a5050505050505050505050565b600160ff1b6000199091011d90565b62ffffff199081161490565b600060f08083179060ff8216141561376d5760309150506106c2565b8060ff1660f114156137835760319150506106c2565b8060ff1660f214156137995760329150506106c2565b8060ff1660f314156137af5760339150506106c2565b8060ff1660f414156137c55760349150506106c2565b8060ff1660f514156137db5760359150506106c2565b8060ff1660f614156137f15760369150506106c2565b8060ff1660f714156138075760379150506106c2565b8060ff1660f8141561381d5760389150506106c2565b8060ff1660f914156138335760399150506106c2565b8060ff1660fa14156138495760619150506106c2565b8060ff1660fb141561385f5760629150506106c2565b8060ff1660fc14156138755760639150506106c2565b8060ff1660fd141561388b5760649150506106c2565b8060ff1660fe14156138a15760659150506106c2565b8060ff1660ff14156138b75760669150506106c2565b50919050565b604051806101a001604052806000815260200160006001600160a01b031681526020016000151581526020016000815260200160008152602001600015158152602001600081526020016000815260200160608152602001600081526020016000151581526020016000815260200160006001600160a01b031681525090565b828054600181600116156101000203166002900490600052602060002090601f01602090048101928261397357600085556139b9565b82601f1061398c57805160ff19168380011785556139b9565b828001600101855582156139b9579182015b828111156139b957825182559160200191906001019061399e565b506139c59291506139c9565b5090565b5b808211156139c557600081556001016139ca56fe66617374207472616e7366657220746f2074656c65706f7274657220776173206661696c65645472616e73616374696f6e20686173206e6f7420726563656976656420656e6f75676820636f6e6669726d6174696f6e73696e7374616e74206363207472616e7366657220776173206e6f74207375636365737366756c6e6f726d616c206363207472616e7366657220776173206e6f74207375636365737366756c2e20417474656d7074656420746f20696e646578206174206f6666736574203078546865207265757165737420686173206e6f74206265656e207375626d6974746564206265666f726566617374206363207472616e7366657220776173206e6f74207375636365737366756c54797065644d656d566965772f696e646578202d20417474656d7074656420746f20696e646578206d6f7265207468616e203332206279746573546865207265757165737420686173206265656e206d696e746564206265666f72655472616e73616374696f6e20686173206e6f74206265656e2066696e616c697a656454797065644d656d566965772f636f7079546f202d204e756c6c20706f696e74657220646572656654797065644d656d566965772f636f7079546f202d20496e76616c696420706f696e74657220646572656654797065644d656d566965772f696e646578202d204f76657272616e2074686520766965772e20536c696365206973206174203078a2646970667358221220395a7663b0e38285610e35b9ff1b38c39bc9110d9a28956668cfeb085648c76264736f6c63430007060033",
  "devdoc": {
    "kind": "dev",
    "methods": {},
    "version": 1
  },
  "userdoc": {
    "kind": "user",
    "methods": {},
    "version": 1
  },
  "storageLayout": {
    "storage": [
      {
        "astId": 12902,
        "contract": "contracts/routers/CCTransferRouter.sol:CCTransferRouter",
        "label": "bitcoinRelay",
        "offset": 0,
        "slot": "0",
        "type": "t_address"
      },
      {
        "astId": 12904,
        "contract": "contracts/routers/CCTransferRouter.sol:CCTransferRouter",
        "label": "bitcoinTeleporter",
        "offset": 0,
        "slot": "1",
        "type": "t_address"
      },
      {
        "astId": 12908,
        "contract": "contracts/routers/CCTransferRouter.sol:CCTransferRouter",
        "label": "wrapRequests",
        "offset": 0,
        "slot": "2",
        "type": "t_mapping(t_bytes32,t_struct(wrapRequest)17919_storage)"
      },
      {
        "astId": 12910,
        "contract": "contracts/routers/CCTransferRouter.sol:CCTransferRouter",
        "label": "ccExchangeRouter",
        "offset": 0,
        "slot": "3",
        "type": "t_address"
      },
      {
        "astId": 12912,
        "contract": "contracts/routers/CCTransferRouter.sol:CCTransferRouter",
        "label": "instantRouter",
        "offset": 0,
        "slot": "4",
        "type": "t_address"
      },
      {
        "astId": 12914,
        "contract": "contracts/routers/CCTransferRouter.sol:CCTransferRouter",
        "label": "fastRouter",
        "offset": 0,
        "slot": "5",
        "type": "t_address"
      },
      {
        "astId": 12917,
        "contract": "contracts/routers/CCTransferRouter.sol:CCTransferRouter",
        "label": "wrappedBitcoin",
        "offset": 0,
        "slot": "6",
        "type": "t_address"
      },
      {
        "astId": 12920,
        "contract": "contracts/routers/CCTransferRouter.sol:CCTransferRouter",
        "label": "bitcoinFastPool",
        "offset": 0,
        "slot": "7",
        "type": "t_address"
      },
      {
        "astId": 12922,
        "contract": "contracts/routers/CCTransferRouter.sol:CCTransferRouter",
        "label": "bitcoinInstantPool",
        "offset": 0,
        "slot": "8",
        "type": "t_address"
      },
      {
        "astId": 12925,
        "contract": "contracts/routers/CCTransferRouter.sol:CCTransferRouter",
        "label": "normalConfirmationParameter",
        "offset": 0,
        "slot": "9",
        "type": "t_uint256"
      },
      {
        "astId": 12928,
        "contract": "contracts/routers/CCTransferRouter.sol:CCTransferRouter",
        "label": "owner",
        "offset": 0,
        "slot": "10",
        "type": "t_address"
      }
    ],
    "types": {
      "t_address": {
        "encoding": "inplace",
        "label": "address",
        "numberOfBytes": "20"
      },
      "t_bool": {
        "encoding": "inplace",
        "label": "bool",
        "numberOfBytes": "1"
      },
      "t_bytes32": {
        "encoding": "inplace",
        "label": "bytes32",
        "numberOfBytes": "32"
      },
      "t_bytes_storage": {
        "encoding": "bytes",
        "label": "bytes",
        "numberOfBytes": "32"
      },
      "t_mapping(t_bytes32,t_struct(wrapRequest)17919_storage)": {
        "encoding": "mapping",
        "key": "t_bytes32",
        "label": "mapping(bytes32 => struct ICCTransferRouter.wrapRequest)",
        "numberOfBytes": "32",
        "value": "t_struct(wrapRequest)17919_storage"
      },
      "t_struct(wrapRequest)17919_storage": {
        "encoding": "inplace",
        "label": "struct ICCTransferRouter.wrapRequest",
        "members": [
          {
            "astId": 17894,
            "contract": "contracts/routers/CCTransferRouter.sol:CCTransferRouter",
            "label": "bitcoinAmount",
            "offset": 0,
            "slot": "0",
            "type": "t_uint256"
          },
          {
            "astId": 17896,
            "contract": "contracts/routers/CCTransferRouter.sol:CCTransferRouter",
            "label": "recipientAddress",
            "offset": 0,
            "slot": "1",
            "type": "t_address"
          },
          {
            "astId": 17898,
            "contract": "contracts/routers/CCTransferRouter.sol:CCTransferRouter",
            "label": "isExchange",
            "offset": 20,
            "slot": "1",
            "type": "t_bool"
          },
          {
            "astId": 17900,
            "contract": "contracts/routers/CCTransferRouter.sol:CCTransferRouter",
            "label": "teleporterFee",
            "offset": 0,
            "slot": "2",
            "type": "t_uint256"
          },
          {
            "astId": 17902,
            "contract": "contracts/routers/CCTransferRouter.sol:CCTransferRouter",
            "label": "speed",
            "offset": 0,
            "slot": "3",
            "type": "t_uint256"
          },
          {
            "astId": 17904,
            "contract": "contracts/routers/CCTransferRouter.sol:CCTransferRouter",
            "label": "isUsed",
            "offset": 0,
            "slot": "4",
            "type": "t_bool"
          },
          {
            "astId": 17906,
            "contract": "contracts/routers/CCTransferRouter.sol:CCTransferRouter",
            "label": "deadline",
            "offset": 0,
            "slot": "5",
            "type": "t_uint256"
          },
          {
            "astId": 17908,
            "contract": "contracts/routers/CCTransferRouter.sol:CCTransferRouter",
            "label": "blockNumber",
            "offset": 0,
            "slot": "6",
            "type": "t_uint256"
          },
          {
            "astId": 17910,
            "contract": "contracts/routers/CCTransferRouter.sol:CCTransferRouter",
            "label": "intermediateNodes",
            "offset": 0,
            "slot": "7",
            "type": "t_bytes_storage"
          },
          {
            "astId": 17912,
            "contract": "contracts/routers/CCTransferRouter.sol:CCTransferRouter",
            "label": "index",
            "offset": 0,
            "slot": "8",
            "type": "t_uint256"
          },
          {
            "astId": 17914,
            "contract": "contracts/routers/CCTransferRouter.sol:CCTransferRouter",
            "label": "isMinted",
            "offset": 0,
            "slot": "9",
            "type": "t_bool"
          },
          {
            "astId": 17916,
            "contract": "contracts/routers/CCTransferRouter.sol:CCTransferRouter",
            "label": "exchangeAmount",
            "offset": 0,
            "slot": "10",
            "type": "t_uint256"
          },
          {
            "astId": 17918,
            "contract": "contracts/routers/CCTransferRouter.sol:CCTransferRouter",
            "label": "exchangeToken",
            "offset": 0,
            "slot": "11",
            "type": "t_address"
          }
        ],
        "numberOfBytes": "384"
      },
      "t_uint256": {
        "encoding": "inplace",
        "label": "uint256",
        "numberOfBytes": "32"
      }
    }
  }
}