{
  "address": "0x8A062C6D5a59918a4a21A14602aC6fd03760Ad29",
  "abi": [
    {
      "inputs": [
        {
          "internalType": "address",
          "name": "_instantRouter",
          "type": "address"
        }
      ],
      "stateMutability": "nonpayable",
      "type": "constructor"
    },
    {
      "anonymous": false,
      "inputs": [
        {
          "indexed": false,
          "internalType": "string",
          "name": "name",
          "type": "string"
        },
        {
          "indexed": true,
          "internalType": "address",
          "name": "collateralToken",
          "type": "address"
        },
        {
          "indexed": false,
          "internalType": "uint256",
          "name": "collateralizationRatio",
          "type": "uint256"
        },
        {
          "indexed": false,
          "internalType": "address",
          "name": "collateralPool",
          "type": "address"
        }
      ],
      "name": "CreateCollateralPool",
      "type": "event"
    },
    {
      "anonymous": false,
      "inputs": [
        {
          "indexed": true,
          "internalType": "address",
          "name": "previousOwner",
          "type": "address"
        },
        {
          "indexed": true,
          "internalType": "address",
          "name": "newOwner",
          "type": "address"
        }
      ],
      "name": "OwnershipTransferred",
      "type": "event"
    },
    {
      "anonymous": false,
      "inputs": [
        {
          "indexed": true,
          "internalType": "address",
          "name": "collateralToken",
          "type": "address"
        },
        {
          "indexed": false,
          "internalType": "address",
          "name": "collateralPool",
          "type": "address"
        }
      ],
      "name": "RemoveCollateralPool",
      "type": "event"
    },
    {
      "inputs": [
        {
          "internalType": "uint256",
          "name": "",
          "type": "uint256"
        }
      ],
      "name": "allCollateralPools",
      "outputs": [
        {
          "internalType": "address",
          "name": "",
          "type": "address"
        }
      ],
      "stateMutability": "view",
      "type": "function"
    },
    {
      "inputs": [],
      "name": "allCollateralPoolsLength",
      "outputs": [
        {
          "internalType": "uint256",
          "name": "",
          "type": "uint256"
        }
      ],
      "stateMutability": "view",
      "type": "function"
    },
    {
      "inputs": [
        {
          "internalType": "address",
          "name": "_collateralToken",
          "type": "address"
        },
        {
          "internalType": "uint256",
          "name": "_collateralizationRatio",
          "type": "uint256"
        }
      ],
      "name": "createCollateralPool",
      "outputs": [
        {
          "internalType": "address",
          "name": "",
          "type": "address"
        }
      ],
      "stateMutability": "nonpayable",
      "type": "function"
    },
    {
      "inputs": [
        {
          "internalType": "address",
          "name": "",
          "type": "address"
        }
      ],
      "name": "getCollateralPoolByToken",
      "outputs": [
        {
          "internalType": "address",
          "name": "",
          "type": "address"
        }
      ],
      "stateMutability": "view",
      "type": "function"
    },
    {
      "inputs": [],
      "name": "instantRouter",
      "outputs": [
        {
          "internalType": "address",
          "name": "",
          "type": "address"
        }
      ],
      "stateMutability": "view",
      "type": "function"
    },
    {
      "inputs": [
        {
          "internalType": "address",
          "name": "_collateralToken",
          "type": "address"
        }
      ],
      "name": "isCollateral",
      "outputs": [
        {
          "internalType": "bool",
          "name": "",
          "type": "bool"
        }
      ],
      "stateMutability": "view",
      "type": "function"
    },
    {
      "inputs": [],
      "name": "owner",
      "outputs": [
        {
          "internalType": "address",
          "name": "",
          "type": "address"
        }
      ],
      "stateMutability": "view",
      "type": "function"
    },
    {
      "inputs": [
        {
          "internalType": "address",
          "name": "_collateralToken",
          "type": "address"
        },
        {
          "internalType": "uint256",
          "name": "_index",
          "type": "uint256"
        }
      ],
      "name": "removeCollateralPool",
      "outputs": [
        {
          "internalType": "bool",
          "name": "",
          "type": "bool"
        }
      ],
      "stateMutability": "nonpayable",
      "type": "function"
    },
    {
      "inputs": [],
      "name": "renounceOwnership",
      "outputs": [],
      "stateMutability": "nonpayable",
      "type": "function"
    },
    {
      "inputs": [
        {
          "internalType": "address",
          "name": "_instantRouter",
          "type": "address"
        }
      ],
      "name": "setInstantRouter",
      "outputs": [],
      "stateMutability": "nonpayable",
      "type": "function"
    },
    {
      "inputs": [
        {
          "internalType": "address",
          "name": "newOwner",
          "type": "address"
        }
      ],
      "name": "transferOwnership",
      "outputs": [],
      "stateMutability": "nonpayable",
      "type": "function"
    }
  ],
  "transactionHash": "0xefd62bf8bbbec1006cc0420cf322671c07498df3858af3be04a88f9756b24a2b",
  "args": [
    "0x0000000000000000000000000000000000000000"
  ],
  "numDeployments": 1,
  "solcInputHash": "6f3e3be3e786d78529510e6414d29cbe",
  "bytecode": "0x608060405234801561001057600080fd5b5060405161288a38038061288a83398101604081905261002f916100b1565b61003833610061565b60018055600480546001600160a01b0319166001600160a01b03929092169190911790556100df565b600080546001600160a01b038381166001600160a01b0319831681178455604051919092169283917f8be0079c531659141344cd1fd0a4f28419497f9722a3daafe3b4186f6b6457e09190a35050565b6000602082840312156100c2578081fd5b81516001600160a01b03811681146100d8578182fd5b9392505050565b61279c806100ee6000396000f3fe60806040523480156200001157600080fd5b5060043610620000b85760003560e01c80638b41c4fe116200007b5780638b41c4fe146200014e5780638da5cb5b1462000165578063dbd248e61462000177578063dc5f013e146200018e578063e35a0a8814620001ba578063f2fde38b14620001ce57620000b8565b80630ee21e5414620000bd5780631b7293cd14620000e95780635df0f55014620000fb578063715018a6146200012b578063870ba6cf1462000137575b600080fd5b620000d4620000ce36600462000b6a565b620001e5565b60405190151581526020015b60405180910390f35b600354604051908152602001620000e0565b620001126200010c36600462000c6f565b6200021b565b6040516001600160a01b039091168152602001620000e0565b6200013562000246565b005b620001356200014836600462000b6a565b6200028a565b620001126200015f36600462000b8e565b620002d9565b6000546001600160a01b031662000112565b620000d46200018836600462000b8e565b620006df565b620001126200019f36600462000b6a565b6002602052600090815260409020546001600160a01b031681565b60045462000112906001600160a01b031681565b62000135620001df36600462000b6a565b6200091f565b6001600160a01b03818116600090815260026020526040812054909116156200021057600162000213565b60005b90505b919050565b600381815481106200022c57600080fd5b6000918252602090912001546001600160a01b0316905081565b6000546001600160a01b031633146200027c5760405162461bcd60e51b8152600401620002739062000de4565b60405180910390fd5b620002886000620009c1565b565b6000546001600160a01b03163314620002b75760405162461bcd60e51b8152600401620002739062000de4565b600480546001600160a01b0319166001600160a01b0392909216919091179055565b600060026001541415620003305760405162461bcd60e51b815260206004820152601f60248201527f5265656e7472616e637947756172643a207265656e7472616e742063616c6c00604482015260640162000273565b60026001556000546001600160a01b03163314620003625760405162461bcd60e51b8152600401620002739062000de4565b6001600160a01b038316620003cf5760405162461bcd60e51b815260206004820152603c60248201526000805160206200274783398151915260448201527f6c20746f6b656e2061646472657373206973206e6f742076616c696400000000606482015260840162000273565b81620004335760405162461bcd60e51b815260206004820152603d60248201526000805160206200274783398151915260448201527f6c697a6174696f6e20726174696f2063616e6e6f74206265207a65726f000000606482015260840162000273565b6001600160a01b038381166000908152600260205260409020541615620004aa5760405162461bcd60e51b81526020600482015260356024820152600080516020620027478339815191526044820152746c20706f6f6c20616c72656164792065786973747360581b606482015260840162000273565b6000606080856001600160a01b03166306fdde036040518163ffffffff1660e01b815260040160006040518083038186803b158015620004e957600080fd5b505afa158015620004fe573d6000803e3d6000fd5b505050506040513d6000823e601f3d908101601f1916820160405262000528919081019062000bba565b6040516020016200053a919062000cde565b6040516020818303038152906040529150856001600160a01b03166395d89b416040518163ffffffff1660e01b815260040160006040518083038186803b1580156200058557600080fd5b505afa1580156200059a573d6000803e3d6000fd5b505050506040513d6000823e601f3d908101601f19168201604052620005c4919081019062000bba565b604051602001620005d6919062000cb6565b604051602081830303815290604052905081818787604051620005f99062000b44565b62000608949392919062000d1d565b604051809103906000f08015801562000625573d6000803e3d6000fd5b506001600160a01b0380881660008181526002602052604080822080549486166001600160a01b031995861681179091556003805460018101825593527fc2575a0e9e593c00f959f8c92f12db2869c3395a3b0502d05e2516446f71f85b90920180549094169091179092559051919450907f6e86e4d8eed057ac88a84132c45db161d6c5a1f32b997ed913edf0bef4fb47c290620006ca9085908990889062000d63565b60405180910390a25050600180559392505050565b600060026001541415620007365760405162461bcd60e51b815260206004820152601f60248201527f5265656e7472616e637947756172643a207265656e7472616e742063616c6c00604482015260640162000273565b60026001556000546001600160a01b03163314620007685760405162461bcd60e51b8152600401620002739062000de4565b6001600160a01b038084166000908152600260205260409020541680620007df5760405162461bcd60e51b81526020600482015260356024820152600080516020620027478339815191526044820152741b081c1bdbdb08191bd95cc81b9bdd08195e1a5cdd605a1b606482015260840162000273565b6003548310620008035760405162461bcd60e51b8152600401620002739062000d98565b600383815481106200082557634e487b7160e01b600052603260045260246000fd5b6000918252602090912001546001600160a01b03828116911614620008a15760405162461bcd60e51b815260206004820152602b60248201527f436f6c6c61746572616c506f6f6c466163746f72793a20496e6465782069732060448201526a1b9bdd0818dbdc9c9958dd60aa1b606482015260840162000273565b6001600160a01b038416600090815260026020526040902080546001600160a01b0319169055620008d28362000a11565b6040516001600160a01b0382811682528516907fc32b19b2496954379b1aca293ceef03a9f78ec6bd7114c2e7a82dfa6c33017a39060200160405180910390a25050600180805592915050565b6000546001600160a01b031633146200094c5760405162461bcd60e51b8152600401620002739062000de4565b6001600160a01b038116620009b35760405162461bcd60e51b815260206004820152602660248201527f4f776e61626c653a206e6577206f776e657220697320746865207a65726f206160448201526564647265737360d01b606482015260840162000273565b620009be81620009c1565b50565b600080546001600160a01b038381166001600160a01b0319831681178455604051919092169283917f8be0079c531659141344cd1fd0a4f28419497f9722a3daafe3b4186f6b6457e09190a35050565b600354811062000a355760405162461bcd60e51b8152600401620002739062000d98565b805b600162000a4360035490565b62000a4f919062000e34565b81101562000afe57600362000a6682600162000e19565b8154811062000a8557634e487b7160e01b600052603260045260246000fd5b600091825260209091200154600380546001600160a01b03909216918390811062000ac057634e487b7160e01b600052603260045260246000fd5b600091825260209091200180546001600160a01b0319166001600160a01b03929092169190911790558062000af58162000e81565b91505062000a37565b50600380548062000b1f57634e487b7160e01b600052603160045260246000fd5b600082815260209020810160001990810180546001600160a01b031916905501905550565b61187b8062000ecc83390190565b80356001600160a01b03811681146200021657600080fd5b60006020828403121562000b7c578081fd5b62000b878262000b52565b9392505050565b6000806040838503121562000ba1578081fd5b62000bac8362000b52565b946020939093013593505050565b60006020828403121562000bcc578081fd5b815167ffffffffffffffff8082111562000be4578283fd5b818401915084601f83011262000bf8578283fd5b81518181111562000c0d5762000c0d62000eb5565b604051601f8201601f19908116603f0116810190838211818310171562000c385762000c3862000eb5565b8160405282815287602084870101111562000c51578586fd5b62000c6483602083016020880162000e4e565b979650505050505050565b60006020828403121562000c81578081fd5b5035919050565b6000815180845262000ca281602086016020860162000e4e565b601f01601f19169290920160200192915050565b6000825162000cca81846020870162000e4e565b61043560f41b920191825250600201919050565b6000825162000cf281846020870162000e4e565b602d60f81b9201918252506e10dbdb1b185d195c985b0b541bdbdb608a1b6001820152601001919050565b60006080825262000d32608083018762000c88565b828103602084015262000d46818762000c88565b6001600160a01b0395909516604084015250506060015292915050565b60006060825262000d78606083018662000c88565b6020830194909452506001600160a01b0391909116604090910152919050565b6020808252602c908201527f436f6c6c61746572616c506f6f6c466163746f72793a20496e6465782069732060408201526b6f7574206f662072616e676560a01b606082015260800190565b6020808252818101527f4f776e61626c653a2063616c6c6572206973206e6f7420746865206f776e6572604082015260600190565b6000821982111562000e2f5762000e2f62000e9f565b500190565b60008282101562000e495762000e4962000e9f565b500390565b60005b8381101562000e6b57818101518382015260200162000e51565b8381111562000e7b576000848401525b50505050565b600060001982141562000e985762000e9862000e9f565b5060010190565b634e487b7160e01b600052601160045260246000fd5b634e487b7160e01b600052604160045260246000fdfe60806040523480156200001157600080fd5b506040516200187b3803806200187b833981016040819052620000349162000305565b83836000826003908051906020019062000050929190620001ac565b50815162000066906004906020850190620001ac565b5080156200007a576200007a3382620000c9565b50505062000097620000916200015660201b60201c565b6200015a565b6001600655600780546001600160a01b0319166001600160a01b039390931692909217909155600855506200040c9050565b8060026000828254620000dd919062000394565b90915550506001600160a01b038216600090815260208190526040812080548392906200010c90849062000394565b90915550506040518181526001600160a01b038316906000907fddf252ad1be2c89b69c2b068fc378daa952ba7f163c4a11628f55a4df523b3ef9060200160405180910390a35050565b3390565b600580546001600160a01b038381166001600160a01b0319831681179093556040519116919082907f8be0079c531659141344cd1fd0a4f28419497f9722a3daafe3b4186f6b6457e090600090a35050565b828054620001ba90620003b9565b90600052602060002090601f016020900481019282620001de576000855562000229565b82601f10620001f957805160ff191683800117855562000229565b8280016001018555821562000229579182015b82811115620002295782518255916020019190600101906200020c565b50620002379291506200023b565b5090565b5b808211156200023757600081556001016200023c565b600082601f83011262000263578081fd5b81516001600160401b0380821115620002805762000280620003f6565b604051601f8301601f19908116603f01168101908282118183101715620002ab57620002ab620003f6565b81604052838152602092508683858801011115620002c7578485fd5b8491505b83821015620002ea5785820183015181830184015290820190620002cb565b83821115620002fb57848385830101525b9695505050505050565b600080600080608085870312156200031b578384fd5b84516001600160401b038082111562000332578586fd5b620003408883890162000252565b9550602087015191508082111562000356578485fd5b50620003658782880162000252565b604087015190945090506001600160a01b038116811462000384578283fd5b6060959095015193969295505050565b60008219821115620003b457634e487b7160e01b81526011600452602481fd5b500190565b600281046001821680620003ce57607f821691505b60208210811415620003f057634e487b7160e01b600052602260045260246000fd5b50919050565b634e487b7160e01b600052604160045260246000fd5b61145f806200041c6000396000f3fe608060405234801561001057600080fd5b50600436106101425760003560e01c8063715018a6116100b8578063a9059cbb1161007c578063a9059cbb1461029a578063b2016bd4146102ad578063dcaf9c44146102c0578063dd62ed3e146102c9578063e5829d2014610302578063f2fde38b1461031557610142565b8063715018a6146102485780638da5cb5b1461025257806395d89b41146102775780639840c0511461027f578063a457c2d71461028757610142565b8063313ce5671161010a578063313ce567146101c45780633237c158146101d3578063392f2ddd146101e657806339509351146101f95780636d75b9ee1461020c57806370a082311461021f57610142565b806306fdde0314610147578063095ea7b31461016557806313f5a46e1461018857806318160ddd146101a957806323b872dd146101b1575b600080fd5b61014f610328565b60405161015c919061124f565b60405180910390f35b6101786101733660046111d6565b6103ba565b604051901515815260200161015c565b61019b61019636600461121f565b6103d0565b60405190815260200161015c565b60025461019b565b6101786101bf36600461119b565b610450565b6040516012815260200161015c565b6101786101e136600461121f565b6104ff565b61019b6101f436600461121f565b610715565b6101786102073660046111d6565b610771565b61017861021a3660046111d6565b6107a8565b61019b61022d366004611148565b6001600160a01b031660009081526020819052604090205490565b6102506109d2565b005b6005546001600160a01b03165b6040516001600160a01b03909116815260200161015c565b61014f610a08565b61019b610a17565b6101786102953660046111d6565b610a98565b6101786102a83660046111d6565b610b33565b60075461025f906001600160a01b031681565b61019b60085481565b61019b6102d7366004611169565b6001600160a01b03918216600090815260016020908152604080832093909416825291909152205490565b61025061031036600461121f565b610b40565b610250610323366004611148565b610b6f565b606060038054610337906113d8565b80601f0160208091040260200160405190810160405280929190818152602001828054610363906113d8565b80156103b05780601f10610385576101008083540402835291602001916103b0565b820191906000526020600020905b81548152906001019060200180831161039357829003601f168201915b5050505050905090565b60006103c7338484610c0a565b50600192915050565b6000806103db610a17565b116104015760405162461bcd60e51b81526004016103f8906112a2565b60405180910390fd5b8161040a610a17565b10156104285760405162461bcd60e51b81526004016103f8906112ea565b610430610a17565b6002545b61043e90846113a2565b6104489190611382565b90505b919050565b6001600160a01b0383166000908152600160209081526040808320338452909152812054828110156104d55760405162461bcd60e51b815260206004820152602860248201527f45524332303a207472616e7366657220616d6f756e74206578636565647320616044820152676c6c6f77616e636560c01b60648201526084016103f8565b6104e0858585610d2f565b6104f485336104ef86856113c1565b610c0a565b506001949350505050565b6000600260065414156105545760405162461bcd60e51b815260206004820152601f60248201527f5265656e7472616e637947756172643a207265656e7472616e742063616c6c0060448201526064016103f8565b6002600655816105a65760405162461bcd60e51b815260206004820152601e60248201527f436f6c6c61746572616c506f6f6c3a20416d6f756e74206973207a65726f000060448201526064016103f8565b336000908152602081905260409020548211156106135760405162461bcd60e51b815260206004820152602560248201527f436f6c6c61746572616c506f6f6c3a2062616c616e6365206973206e6f7420656044820152640dcdeeaced60db1b60648201526084016103f8565b600061061e60025490565b610626610a17565b61063090856113a2565b61063a9190611382565b90506106463384610f07565b60075460405163a9059cbb60e01b8152336004820152602481018390526001600160a01b039091169063a9059cbb90604401602060405180830381600087803b15801561069257600080fd5b505af11580156106a6573d6000803e3d6000fd5b505050506040513d601f19601f820116820180604052508101906106ca91906111ff565b50604080518281526020810185905233917fdec5d726a70bdc7ab7e167507e34e068ab89db504d9ddcb08618c73a1f10a93e910160405180910390a260019150506001600655919050565b60008061072160025490565b1161073e5760405162461bcd60e51b81526004016103f8906112a2565b8161074860025490565b10156107665760405162461bcd60e51b81526004016103f8906112ea565b600254610434610a17565b3360008181526001602090815260408083206001600160a01b038716845290915281205490916103c79185906104ef90869061136a565b6000600260065414156107fd5760405162461bcd60e51b815260206004820152601f60248201527f5265656e7472616e637947756172643a207265656e7472616e742063616c6c0060448201526064016103f8565b60026006556001600160a01b0383166108645760405162461bcd60e51b8152602060048201526024808201527f436f6c6c61746572616c506f6f6c3a20557365722061646472657373206973206044820152637a65726f60e01b60648201526084016103f8565b816108b15760405162461bcd60e51b815260206004820152601e60248201527f436f6c6c61746572616c506f6f6c3a20416d6f756e74206973207a65726f000060448201526064016103f8565b60006108bc60025490565b6108c75750816108e9565b6108cf610a17565b6002546108dc90856113a2565b6108e69190611382565b90505b6007546040516323b872dd60e01b8152336004820152306024820152604481018590526001600160a01b03909116906323b872dd90606401602060405180830381600087803b15801561093b57600080fd5b505af115801561094f573d6000803e3d6000fd5b505050506040513d601f19601f8201168201806040525081019061097391906111ff565b5061097e8482611056565b60408051848152602081018390526001600160a01b038616917fe3f4fa74d049cf7d64965afd6ce83c826cd313cec824ecfb9aacf36886090b49910160405180910390a26001915050600160065592915050565b6005546001600160a01b031633146109fc5760405162461bcd60e51b81526004016103f890611335565b610a0660006110df565b565b606060048054610337906113d8565b6007546040516370a0823160e01b81523060048201526000916001600160a01b0316906370a082319060240160206040518083038186803b158015610a5b57600080fd5b505afa158015610a6f573d6000803e3d6000fd5b505050506040513d601f19601f82011682018060405250810190610a939190611237565b905090565b3360009081526001602090815260408083206001600160a01b038616845290915281205482811015610b1a5760405162461bcd60e51b815260206004820152602560248201527f45524332303a2064656372656173656420616c6c6f77616e63652062656c6f77604482015264207a65726f60d81b60648201526084016103f8565b610b2933856104ef86856113c1565b5060019392505050565b60006103c7338484610d2f565b6005546001600160a01b03163314610b6a5760405162461bcd60e51b81526004016103f890611335565b600855565b6005546001600160a01b03163314610b995760405162461bcd60e51b81526004016103f890611335565b6001600160a01b038116610bfe5760405162461bcd60e51b815260206004820152602660248201527f4f776e61626c653a206e6577206f776e657220697320746865207a65726f206160448201526564647265737360d01b60648201526084016103f8565b610c07816110df565b50565b6001600160a01b038316610c6c5760405162461bcd60e51b8152602060048201526024808201527f45524332303a20617070726f76652066726f6d20746865207a65726f206164646044820152637265737360e01b60648201526084016103f8565b6001600160a01b038216610ccd5760405162461bcd60e51b815260206004820152602260248201527f45524332303a20617070726f766520746f20746865207a65726f206164647265604482015261737360f01b60648201526084016103f8565b6001600160a01b0383811660008181526001602090815260408083209487168084529482529182902085905590518481527f8c5be1e5ebec7d5bd14f71427d1e84f3dd0314c0f7b2291e5b200ac8c7c3b92591015b60405180910390a3505050565b6001600160a01b038316610d935760405162461bcd60e51b815260206004820152602560248201527f45524332303a207472616e736665722066726f6d20746865207a65726f206164604482015264647265737360d81b60648201526084016103f8565b6001600160a01b038216610df55760405162461bcd60e51b815260206004820152602360248201527f45524332303a207472616e7366657220746f20746865207a65726f206164647260448201526265737360e81b60648201526084016103f8565b6001600160a01b03831660009081526020819052604090205481811015610e6d5760405162461bcd60e51b815260206004820152602660248201527f45524332303a207472616e7366657220616d6f756e7420657863656564732062604482015265616c616e636560d01b60648201526084016103f8565b610e7782826113c1565b6001600160a01b038086166000908152602081905260408082209390935590851681529081208054849290610ead90849061136a565b92505081905550826001600160a01b0316846001600160a01b03167fddf252ad1be2c89b69c2b068fc378daa952ba7f163c4a11628f55a4df523b3ef84604051610ef991815260200190565b60405180910390a350505050565b6001600160a01b038216610f675760405162461bcd60e51b815260206004820152602160248201527f45524332303a206275726e2066726f6d20746865207a65726f206164647265736044820152607360f81b60648201526084016103f8565b6001600160a01b03821660009081526020819052604090205481811015610fdb5760405162461bcd60e51b815260206004820152602260248201527f45524332303a206275726e20616d6f756e7420657863656564732062616c616e604482015261636560f01b60648201526084016103f8565b610fe582826113c1565b6001600160a01b038416600090815260208190526040812091909155600280548492906110139084906113c1565b90915550506040518281526000906001600160a01b038516907fddf252ad1be2c89b69c2b068fc378daa952ba7f163c4a11628f55a4df523b3ef90602001610d22565b8060026000828254611068919061136a565b90915550506001600160a01b0382166000908152602081905260408120805483929061109590849061136a565b90915550506040518181526001600160a01b038316906000907fddf252ad1be2c89b69c2b068fc378daa952ba7f163c4a11628f55a4df523b3ef9060200160405180910390a35050565b600580546001600160a01b038381166001600160a01b0319831681179093556040519116919082907f8be0079c531659141344cd1fd0a4f28419497f9722a3daafe3b4186f6b6457e090600090a35050565b80356001600160a01b038116811461044b57600080fd5b600060208284031215611159578081fd5b61116282611131565b9392505050565b6000806040838503121561117b578081fd5b61118483611131565b915061119260208401611131565b90509250929050565b6000806000606084860312156111af578081fd5b6111b884611131565b92506111c660208501611131565b9150604084013590509250925092565b600080604083850312156111e8578182fd5b6111f183611131565b946020939093013593505050565b600060208284031215611210578081fd5b81518015158114611162578182fd5b600060208284031215611230578081fd5b5035919050565b600060208284031215611248578081fd5b5051919050565b6000602080835283518082850152825b8181101561127b5785810183015185820160400152820161125f565b8181111561128c5783604083870101525b50601f01601f1916929092016040019392505050565b60208082526028908201527f436f6c6c61746572616c506f6f6c3a20636f6c6c61746572616c20706f6f6c20604082015267697320656d70747960c01b606082015260800190565b6020808252602b908201527f436f6c6c61746572616c506f6f6c3a206c6971756964697479206973206e6f7460408201526a081cdd59999a58da595b9d60aa1b606082015260800190565b6020808252818101527f4f776e61626c653a2063616c6c6572206973206e6f7420746865206f776e6572604082015260600190565b6000821982111561137d5761137d611413565b500190565b60008261139d57634e487b7160e01b81526012600452602481fd5b500490565b60008160001904831182151516156113bc576113bc611413565b500290565b6000828210156113d3576113d3611413565b500390565b6002810460018216806113ec57607f821691505b6020821081141561140d57634e487b7160e01b600052602260045260246000fd5b50919050565b634e487b7160e01b600052601160045260246000fdfea26469706673582212209c73e03634ad56ea91d348b9cd1cd60bfd3026e4c1feeca5def5863bcac4136564736f6c63430008020033436f6c6c61746572616c506f6f6c466163746f72793a20436f6c6c6174657261a2646970667358221220f4f891d4b8b7d09511a45545ccd9d38b5a2d7ae36d9338ece528b319c20b333364736f6c63430008020033",
  "devdoc": {
    "kind": "dev",
    "methods": {
      "allCollateralPoolsLength()": {
        "returns": {
          "_0": "Total number of collateral pools"
        }
      },
      "createCollateralPool(address,uint256)": {
        "details": "Only owner can call this",
        "params": {
          "_collateralToken": "Address of underlying collateral token",
          "_collateralizationRatio": "The ratio of over collateralization"
        },
        "returns": {
          "_0": "Address of newly created collateral pool"
        }
      },
      "isCollateral(address)": {
        "params": {
          "_collateralToken": "Address of collateral token"
        },
        "returns": {
          "_0": "True if the corresponding collateral pool exists"
        }
      },
      "owner()": {
        "details": "Returns the address of the current owner."
      },
      "removeCollateralPool(address,uint256)": {
        "details": "Only owner can call this",
        "params": {
          "_collateralToken": "Address of underlying collateral token",
          "_index": "Index of collateral pool in allCollateralPools"
        },
        "returns": {
          "_0": "True if collateral pool is removed successfully"
        }
      },
      "renounceOwnership()": {
        "details": "Leaves the contract without owner. It will not be possible to call `onlyOwner` functions anymore. Can only be called by the current owner. NOTE: Renouncing ownership will leave the contract without an owner, thereby removing any functionality that is only available to the owner."
      },
      "setInstantRouter(address)": {
        "details": "Only owner can call this",
        "params": {
          "_instantRouter": "The new instant router contract address"
        }
      },
      "transferOwnership(address)": {
        "details": "Transfers ownership of the contract to a new account (`newOwner`). Can only be called by the current owner."
      }
    },
    "version": 1
  },
  "userdoc": {
    "events": {
      "CreateCollateralPool(string,address,uint256,address)": {
        "notice": "Emits when a collateral pool is created"
      },
      "RemoveCollateralPool(address,address)": {
        "notice": "Emits when a collateral pool is removed"
      }
    },
    "kind": "user",
    "methods": {
      "createCollateralPool(address,uint256)": {
        "notice": "Creates a new collateral pool"
      },
      "isCollateral(address)": {
        "notice": "Checks that whether the token is accepted as collateral or not"
      },
      "removeCollateralPool(address,uint256)": {
        "notice": "Removes an existing collateral pool"
      },
      "setInstantRouter(address)": {
        "notice": "Changes instant router contract address"
      }
    },
    "version": 1
  },
  "storageLayout": {
    "storage": [
      {
        "astId": 807,
        "contract": "contracts/pools/CollateralPoolFactory.sol:CollateralPoolFactory",
        "label": "_owner",
        "offset": 0,
        "slot": "0",
        "type": "t_address"
      },
      {
        "astId": 1006,
        "contract": "contracts/pools/CollateralPoolFactory.sol:CollateralPoolFactory",
        "label": "_status",
        "offset": 0,
        "slot": "1",
        "type": "t_uint256"
      },
      {
        "astId": 10972,
        "contract": "contracts/pools/CollateralPoolFactory.sol:CollateralPoolFactory",
        "label": "getCollateralPoolByToken",
        "offset": 0,
        "slot": "2",
        "type": "t_mapping(t_address,t_address)"
      },
      {
        "astId": 10976,
        "contract": "contracts/pools/CollateralPoolFactory.sol:CollateralPoolFactory",
        "label": "allCollateralPools",
        "offset": 0,
        "slot": "3",
        "type": "t_array(t_address)dyn_storage"
      },
      {
        "astId": 10979,
        "contract": "contracts/pools/CollateralPoolFactory.sol:CollateralPoolFactory",
        "label": "instantRouter",
        "offset": 0,
        "slot": "4",
        "type": "t_address"
      }
    ],
    "types": {
      "t_address": {
        "encoding": "inplace",
        "label": "address",
        "numberOfBytes": "20"
      },
      "t_array(t_address)dyn_storage": {
        "base": "t_address",
        "encoding": "dynamic_array",
        "label": "address[]",
        "numberOfBytes": "32"
      },
      "t_mapping(t_address,t_address)": {
        "encoding": "mapping",
        "key": "t_address",
        "label": "mapping(address => address)",
        "numberOfBytes": "32",
        "value": "t_address"
      },
      "t_uint256": {
        "encoding": "inplace",
        "label": "uint256",
        "numberOfBytes": "32"
      }
    }
  }
}