{
  "address": "0xB4f6A712e212319f43C04824ea7630e55D2867FF",
  "abi": [
    {
      "inputs": [
        {
          "internalType": "address",
          "name": "_liquidityPoolFactory",
          "type": "address"
        },
        {
          "internalType": "address",
          "name": "_WAVAX",
          "type": "address"
        }
      ],
      "stateMutability": "nonpayable",
      "type": "constructor"
    },
    {
      "inputs": [],
      "name": "WAVAX",
      "outputs": [
        {
          "internalType": "address",
          "name": "",
          "type": "address"
        }
      ],
      "stateMutability": "view",
      "type": "function"
    },
    {
      "inputs": [
        {
          "internalType": "address",
          "name": "tokenA",
          "type": "address"
        },
        {
          "internalType": "address",
          "name": "tokenB",
          "type": "address"
        },
        {
          "internalType": "uint256",
          "name": "amountADesired",
          "type": "uint256"
        },
        {
          "internalType": "uint256",
          "name": "amountBDesired",
          "type": "uint256"
        },
        {
          "internalType": "uint256",
          "name": "amountAMin",
          "type": "uint256"
        },
        {
          "internalType": "uint256",
          "name": "amountBMin",
          "type": "uint256"
        },
        {
          "internalType": "address",
          "name": "to",
          "type": "address"
        },
        {
          "internalType": "uint256",
          "name": "deadline",
          "type": "uint256"
        }
      ],
      "name": "addLiquidity",
      "outputs": [
        {
          "internalType": "uint256",
          "name": "amountA",
          "type": "uint256"
        },
        {
          "internalType": "uint256",
          "name": "amountB",
          "type": "uint256"
        },
        {
          "internalType": "uint256",
          "name": "liquidity",
          "type": "uint256"
        }
      ],
      "stateMutability": "nonpayable",
      "type": "function"
    },
    {
      "inputs": [
        {
          "internalType": "address",
          "name": "token",
          "type": "address"
        },
        {
          "internalType": "uint256",
          "name": "amountTokenDesired",
          "type": "uint256"
        },
        {
          "internalType": "uint256",
          "name": "amountTokenMin",
          "type": "uint256"
        },
        {
          "internalType": "uint256",
          "name": "amountAVAXMin",
          "type": "uint256"
        },
        {
          "internalType": "address",
          "name": "to",
          "type": "address"
        },
        {
          "internalType": "uint256",
          "name": "deadline",
          "type": "uint256"
        }
      ],
      "name": "addLiquidityAVAX",
      "outputs": [
        {
          "internalType": "uint256",
          "name": "amountToken",
          "type": "uint256"
        },
        {
          "internalType": "uint256",
          "name": "amountAVAX",
          "type": "uint256"
        },
        {
          "internalType": "uint256",
          "name": "liquidity",
          "type": "uint256"
        }
      ],
      "stateMutability": "payable",
      "type": "function"
    },
    {
      "inputs": [
        {
          "internalType": "uint256",
          "name": "amountOut",
          "type": "uint256"
        },
        {
          "internalType": "uint256",
          "name": "reserveIn",
          "type": "uint256"
        },
        {
          "internalType": "uint256",
          "name": "reserveOut",
          "type": "uint256"
        }
      ],
      "name": "getAmountIn",
      "outputs": [
        {
          "internalType": "uint256",
          "name": "amountIn",
          "type": "uint256"
        }
      ],
      "stateMutability": "pure",
      "type": "function"
    },
    {
      "inputs": [
        {
          "internalType": "uint256",
          "name": "amountIn",
          "type": "uint256"
        },
        {
          "internalType": "uint256",
          "name": "reserveIn",
          "type": "uint256"
        },
        {
          "internalType": "uint256",
          "name": "reserveOut",
          "type": "uint256"
        }
      ],
      "name": "getAmountOut",
      "outputs": [
        {
          "internalType": "uint256",
          "name": "amountOut",
          "type": "uint256"
        }
      ],
      "stateMutability": "pure",
      "type": "function"
    },
    {
      "inputs": [
        {
          "internalType": "uint256",
          "name": "amountOut",
          "type": "uint256"
        },
        {
          "internalType": "address[]",
          "name": "path",
          "type": "address[]"
        }
      ],
      "name": "getAmountsIn",
      "outputs": [
        {
          "internalType": "uint256[]",
          "name": "amounts",
          "type": "uint256[]"
        }
      ],
      "stateMutability": "nonpayable",
      "type": "function"
    },
    {
      "inputs": [
        {
          "internalType": "uint256",
          "name": "amountIn",
          "type": "uint256"
        },
        {
          "internalType": "address[]",
          "name": "path",
          "type": "address[]"
        }
      ],
      "name": "getAmountsOut",
      "outputs": [
        {
          "internalType": "uint256[]",
          "name": "amounts",
          "type": "uint256[]"
        }
      ],
      "stateMutability": "nonpayable",
      "type": "function"
    },
    {
      "inputs": [],
      "name": "liquidityPoolFactory",
      "outputs": [
        {
          "internalType": "address",
          "name": "",
          "type": "address"
        }
      ],
      "stateMutability": "view",
      "type": "function"
    },
    {
      "inputs": [
        {
          "internalType": "uint256",
          "name": "amountA",
          "type": "uint256"
        },
        {
          "internalType": "uint256",
          "name": "reserveA",
          "type": "uint256"
        },
        {
          "internalType": "uint256",
          "name": "reserveB",
          "type": "uint256"
        }
      ],
      "name": "quote",
      "outputs": [
        {
          "internalType": "uint256",
          "name": "amountB",
          "type": "uint256"
        }
      ],
      "stateMutability": "pure",
      "type": "function"
    },
    {
      "inputs": [
        {
          "internalType": "address",
          "name": "tokenA",
          "type": "address"
        },
        {
          "internalType": "address",
          "name": "tokenB",
          "type": "address"
        },
        {
          "internalType": "uint256",
          "name": "liquidity",
          "type": "uint256"
        },
        {
          "internalType": "uint256",
          "name": "amountAMin",
          "type": "uint256"
        },
        {
          "internalType": "uint256",
          "name": "amountBMin",
          "type": "uint256"
        },
        {
          "internalType": "address",
          "name": "to",
          "type": "address"
        },
        {
          "internalType": "uint256",
          "name": "deadline",
          "type": "uint256"
        }
      ],
      "name": "removeLiquidity",
      "outputs": [
        {
          "internalType": "uint256",
          "name": "amountA",
          "type": "uint256"
        },
        {
          "internalType": "uint256",
          "name": "amountB",
          "type": "uint256"
        }
      ],
      "stateMutability": "nonpayable",
      "type": "function"
    },
    {
      "inputs": [
        {
          "internalType": "address",
          "name": "token",
          "type": "address"
        },
        {
          "internalType": "uint256",
          "name": "liquidity",
          "type": "uint256"
        },
        {
          "internalType": "uint256",
          "name": "amountTokenMin",
          "type": "uint256"
        },
        {
          "internalType": "uint256",
          "name": "amountAVAXMin",
          "type": "uint256"
        },
        {
          "internalType": "address",
          "name": "to",
          "type": "address"
        },
        {
          "internalType": "uint256",
          "name": "deadline",
          "type": "uint256"
        }
      ],
      "name": "removeLiquidityAVAX",
      "outputs": [
        {
          "internalType": "uint256",
          "name": "amountToken",
          "type": "uint256"
        },
        {
          "internalType": "uint256",
          "name": "amountAVAX",
          "type": "uint256"
        }
      ],
      "stateMutability": "nonpayable",
      "type": "function"
    },
    {
      "inputs": [
        {
          "internalType": "uint256",
          "name": "amountOut",
          "type": "uint256"
        },
        {
          "internalType": "address[]",
          "name": "path",
          "type": "address[]"
        },
        {
          "internalType": "address",
          "name": "to",
          "type": "address"
        },
        {
          "internalType": "uint256",
          "name": "deadline",
          "type": "uint256"
        }
      ],
      "name": "swapAVAXForExactTokens",
      "outputs": [
        {
          "internalType": "uint256[]",
          "name": "amounts",
          "type": "uint256[]"
        }
      ],
      "stateMutability": "payable",
      "type": "function"
    },
    {
      "inputs": [
        {
          "internalType": "uint256",
          "name": "amountOutMin",
          "type": "uint256"
        },
        {
          "internalType": "address[]",
          "name": "path",
          "type": "address[]"
        },
        {
          "internalType": "address",
          "name": "to",
          "type": "address"
        },
        {
          "internalType": "uint256",
          "name": "deadline",
          "type": "uint256"
        }
      ],
      "name": "swapExactAVAXForTokens",
      "outputs": [
        {
          "internalType": "uint256[]",
          "name": "amounts",
          "type": "uint256[]"
        }
      ],
      "stateMutability": "payable",
      "type": "function"
    },
    {
      "inputs": [
        {
          "internalType": "uint256",
          "name": "amountOutMin",
          "type": "uint256"
        },
        {
          "internalType": "address[]",
          "name": "path",
          "type": "address[]"
        },
        {
          "internalType": "address",
          "name": "to",
          "type": "address"
        },
        {
          "internalType": "uint256",
          "name": "deadline",
          "type": "uint256"
        }
      ],
      "name": "swapExactAVAXForTokensSupportingFeeOnTransferTokens",
      "outputs": [],
      "stateMutability": "payable",
      "type": "function"
    },
    {
      "inputs": [
        {
          "internalType": "uint256",
          "name": "amountIn",
          "type": "uint256"
        },
        {
          "internalType": "uint256",
          "name": "amountOutMin",
          "type": "uint256"
        },
        {
          "internalType": "address[]",
          "name": "path",
          "type": "address[]"
        },
        {
          "internalType": "address",
          "name": "to",
          "type": "address"
        },
        {
          "internalType": "uint256",
          "name": "deadline",
          "type": "uint256"
        }
      ],
      "name": "swapExactTokensForAVAX",
      "outputs": [
        {
          "internalType": "uint256[]",
          "name": "amounts",
          "type": "uint256[]"
        },
        {
          "internalType": "bool",
          "name": "result",
          "type": "bool"
        }
      ],
      "stateMutability": "nonpayable",
      "type": "function"
    },
    {
      "inputs": [
        {
          "internalType": "uint256",
          "name": "amountIn",
          "type": "uint256"
        },
        {
          "internalType": "uint256",
          "name": "amountOutMin",
          "type": "uint256"
        },
        {
          "internalType": "address[]",
          "name": "path",
          "type": "address[]"
        },
        {
          "internalType": "address",
          "name": "to",
          "type": "address"
        },
        {
          "internalType": "uint256",
          "name": "deadline",
          "type": "uint256"
        }
      ],
      "name": "swapExactTokensForAVAXSupportingFeeOnTransferTokens",
      "outputs": [],
      "stateMutability": "nonpayable",
      "type": "function"
    },
    {
      "inputs": [
        {
          "internalType": "uint256",
          "name": "amountIn",
          "type": "uint256"
        },
        {
          "internalType": "uint256",
          "name": "amountOutMin",
          "type": "uint256"
        },
        {
          "internalType": "address[]",
          "name": "path",
          "type": "address[]"
        },
        {
          "internalType": "address",
          "name": "to",
          "type": "address"
        },
        {
          "internalType": "uint256",
          "name": "deadline",
          "type": "uint256"
        }
      ],
      "name": "swapExactTokensForTokens",
      "outputs": [
        {
          "internalType": "uint256[]",
          "name": "amounts",
          "type": "uint256[]"
        },
        {
          "internalType": "bool",
          "name": "result",
          "type": "bool"
        }
      ],
      "stateMutability": "nonpayable",
      "type": "function"
    },
    {
      "inputs": [
        {
          "internalType": "uint256",
          "name": "amountIn",
          "type": "uint256"
        },
        {
          "internalType": "uint256",
          "name": "amountOutMin",
          "type": "uint256"
        },
        {
          "internalType": "address[]",
          "name": "path",
          "type": "address[]"
        },
        {
          "internalType": "address",
          "name": "to",
          "type": "address"
        },
        {
          "internalType": "uint256",
          "name": "deadline",
          "type": "uint256"
        }
      ],
      "name": "swapExactTokensForTokensSupportingFeeOnTransferTokens",
      "outputs": [],
      "stateMutability": "nonpayable",
      "type": "function"
    },
    {
      "inputs": [
        {
          "internalType": "uint256",
          "name": "amountOut",
          "type": "uint256"
        },
        {
          "internalType": "uint256",
          "name": "amountInMax",
          "type": "uint256"
        },
        {
          "internalType": "address[]",
          "name": "path",
          "type": "address[]"
        },
        {
          "internalType": "address",
          "name": "to",
          "type": "address"
        },
        {
          "internalType": "uint256",
          "name": "deadline",
          "type": "uint256"
        }
      ],
      "name": "swapTokensForExactAVAX",
      "outputs": [
        {
          "internalType": "uint256[]",
          "name": "amounts",
          "type": "uint256[]"
        }
      ],
      "stateMutability": "nonpayable",
      "type": "function"
    },
    {
      "inputs": [
        {
          "internalType": "uint256",
          "name": "amountOut",
          "type": "uint256"
        },
        {
          "internalType": "uint256",
          "name": "amountInMax",
          "type": "uint256"
        },
        {
          "internalType": "address[]",
          "name": "path",
          "type": "address[]"
        },
        {
          "internalType": "address",
          "name": "to",
          "type": "address"
        },
        {
          "internalType": "uint256",
          "name": "deadline",
          "type": "uint256"
        }
      ],
      "name": "swapTokensForExactTokens",
      "outputs": [
        {
          "internalType": "uint256[]",
          "name": "amounts",
          "type": "uint256[]"
        }
      ],
      "stateMutability": "nonpayable",
      "type": "function"
    },
    {
      "stateMutability": "payable",
      "type": "receive"
    }
  ],
  "transactionHash": "0xe3345c47dec90d45df263f30be694cf5d93a7fd37b4bbf1e34ce4ba107fe056f",
  "args": [
    "0x6295e9cd42E6641E4c18063544759adf6fFd6aA9",
    "0xa466586AfCCf8A2718434E8B7F23a018F82A88A3"
  ],
  "numDeployments": 1,
  "solcInputHash": "b766d894e7507eaf09e41e8de1c94935",
  "bytecode": "0x60c060405234801561001057600080fd5b5060405162004222380380620042228339818101604052604081101561003557600080fd5b5080516020909101516001600160601b0319606092831b8116608052911b1660a05260805160601c60a05160601c6140b66200016c600039806101335280610ba95280610be452806111015280611259528061130f528061137f528061145a5280611534528061160a52806118035280611a525280611b955280611c1d5280611dd55280611f1b5280611fa3528061235e52806123f35280612467528061287852806128ce52806129025280612976525080610b2d5280610cc35280610d625280610e9c528061118f5280611698528061176c528061190d5280611ae55280611c4f5280611e685280611fd552806121225280612499528061269052806126b8528061273d52806128ac52806132f9528061333c52806134de52806136545280613a455280613afe5280613bb152506140b66000f3fe6080604052600436106101235760003560e01c80638803dbee116100a0578063c57559dd11610064578063c57559dd146108fd578063d06ca61f14610981578063e75d75d514610a36578063e8e3370014610a4b578063f91b3f7214610acb5761015c565b80638803dbee146106cc5780638a657e6714610762578063a2a1623d146107e6578063ad615dec1461086a578063baa2abde146108a05761015c565b8063676528d1116100e7578063676528d1146104a357806373b295c214610539578063762b15621461056a5780637a42416a1461060057806385f8c259146106965761015c565b8063054d50d4146101615780631f00ca74146101a957806333c6b725146102ae57806338ed17391461031a5780635c11d7951461040d5761015c565b3661015c57336001600160a01b037f0000000000000000000000000000000000000000000000000000000000000000161461015a57fe5b005b600080fd5b34801561016d57600080fd5b506101976004803603606081101561018457600080fd5b5080359060208101359060400135610b11565b60408051918252519081900360200190f35b3480156101b557600080fd5b5061025e600480360360408110156101cc57600080fd5b81359190810190604081016020820135600160201b8111156101ed57600080fd5b8201836020820111156101ff57600080fd5b803590602001918460208302840111600160201b8311171561022057600080fd5b919080806020026020016040519081016040528093929190818152602001838360200280828437600092019190915250929550610b26945050505050565b60408051602080825283518183015283519192839290830191858101910280838360005b8381101561029a578181015183820152602001610282565b505050509050019250505060405180910390f35b3480156102ba57600080fd5b50610301600480360360c08110156102d157600080fd5b506001600160a01b0381358116916020810135916040820135916060810135916080820135169060a00135610b5c565b6040805192835260208301919091528051918290030190f35b34801561032657600080fd5b506103b0600480360360a081101561033d57600080fd5b813591602081013591810190606081016040820135600160201b81111561036357600080fd5b82018360208201111561037557600080fd5b803590602001918460208302840111600160201b8311171561039657600080fd5b91935091506001600160a01b038135169060200135610c76565b60405180806020018315158152602001828103825284818151815260200191508051906020019060200280838360005b838110156103f85781810151838201526020016103e0565b50505050905001935050505060405180910390f35b34801561041957600080fd5b5061015a600480360360a081101561043057600080fd5b813591602081013591810190606081016040820135600160201b81111561045657600080fd5b82018360208201111561046857600080fd5b803590602001918460208302840111600160201b8311171561048957600080fd5b91935091506001600160a01b038135169060200135610e32565b3480156104af57600080fd5b506103b0600480360360a08110156104c657600080fd5b813591602081013591810190606081016040820135600160201b8111156104ec57600080fd5b8201836020820111156104fe57600080fd5b803590602001918460208302840111600160201b8311171561051f57600080fd5b91935091506001600160a01b0381351690602001356110af565b34801561054557600080fd5b5061054e61130d565b604080516001600160a01b039092168252519081900360200190f35b34801561057657600080fd5b5061015a600480360360a081101561058d57600080fd5b813591602081013591810190606081016040820135600160201b8111156105b357600080fd5b8201836020820111156105c557600080fd5b803590602001918460208302840111600160201b831117156105e657600080fd5b91935091506001600160a01b038135169060200135611331565b34801561060c57600080fd5b5061025e600480360360a081101561062357600080fd5b813591602081013591810190606081016040820135600160201b81111561064957600080fd5b82018360208201111561065b57600080fd5b803590602001918460208302840111600160201b8311171561067c57600080fd5b91935091506001600160a01b0381351690602001356115ba565b3480156106a257600080fd5b50610197600480360360608110156106b957600080fd5b50803590602081013590604001356118b5565b3480156106d857600080fd5b5061025e600480360360a08110156106ef57600080fd5b813591602081013591810190606081016040820135600160201b81111561071557600080fd5b82018360208201111561072757600080fd5b803590602001918460208302840111600160201b8311171561074857600080fd5b91935091506001600160a01b0381351690602001356118c2565b61025e6004803603608081101561077857600080fd5b81359190810190604081016020820135600160201b81111561079957600080fd5b8201836020820111156107ab57600080fd5b803590602001918460208302840111600160201b831117156107cc57600080fd5b91935091506001600160a01b038135169060200135611a0a565b61025e600480360360808110156107fc57600080fd5b81359190810190604081016020820135600160201b81111561081d57600080fd5b82018360208201111561082f57600080fd5b803590602001918460208302840111600160201b8311171561085057600080fd5b91935091506001600160a01b038135169060200135611d8d565b34801561087657600080fd5b506101976004803603606081101561088d57600080fd5b50803590602081013590604001356120c7565b3480156108ac57600080fd5b50610301600480360360e08110156108c357600080fd5b506001600160a01b038135811691602081013582169160408201359160608101359160808201359160a08101359091169060c001356120d4565b61015a6004803603608081101561091357600080fd5b81359190810190604081016020820135600160201b81111561093457600080fd5b82018360208201111561094657600080fd5b803590602001918460208302840111600160201b8311171561096757600080fd5b91935091506001600160a01b038135169060200135612318565b34801561098d57600080fd5b5061025e600480360360408110156109a457600080fd5b81359190810190604081016020820135600160201b8111156109c557600080fd5b8201836020820111156109d757600080fd5b803590602001918460208302840111600160201b831117156109f857600080fd5b919080806020026020016040519081016040528093929190818152602001838360200280828437600092019190915250929550612689945050505050565b348015610a4257600080fd5b5061054e6126b6565b348015610a5757600080fd5b50610aad6004803603610100811015610a6f57600080fd5b506001600160a01b038135811691602081013582169160408201359160608101359160808201359160a08101359160c0820135169060e001356126da565b60408051938452602084019290925282820152519081900360600190f35b610aad600480360360c0811015610ae157600080fd5b506001600160a01b0381358116916020810135916040820135916060810135916080820135169060a00135612829565b6000610b1e848484612ab3565b949350505050565b6060610b537f00000000000000000000000000000000000000000000000000000000000000008484612b8b565b90505b92915050565b6000808243811015610ba3576040805162461bcd60e51b81526020600482015260176024820152600080516020613e76833981519152604482015290519081900360640190fd5b610bd2897f00000000000000000000000000000000000000000000000000000000000000008a8a8a308a6120d4565b9093509150610be2898685612cd8565b7f00000000000000000000000000000000000000000000000000000000000000006001600160a01b0316632e1a7d4d836040518263ffffffff1660e01b815260040180828152602001915050600060405180830381600087803b158015610c4857600080fd5b505af1158015610c5c573d6000803e3d6000fd5b50505050610c6a8583612e2b565b50965096945050505050565b606060008243811015610cbe576040805162461bcd60e51b81526020600482015260176024820152600080516020613e76833981519152604482015290519081900360640190fd5b610d1c7f00000000000000000000000000000000000000000000000000000000000000008a898980806020026020016040519081016040528093929190818152602001838360200280828437600092019190915250612f2392505050565b92508783600185510381518110610d2f57fe5b602002602001015110610e2257610dda87876000818110610d4c57fe5b905060200201356001600160a01b031633610dc07f00000000000000000000000000000000000000000000000000000000000000008b8b6000818110610d8e57fe5b905060200201356001600160a01b03168c8c6001818110610dab57fe5b905060200201356001600160a01b031661305a565b86600081518110610dcd57fe5b60200260200101516130ee565b610e19838888808060200260200160405190810160405280939291908181526020018383602002808284376000920191909152508a925061324a915050565b60019150610c6a565b6000915050965096945050505050565b8043811015610e76576040805162461bcd60e51b81526020600482015260176024820152600080516020613e76833981519152604482015290519081900360640190fd5b610eeb85856000818110610e8657fe5b905060200201356001600160a01b031633610ee57f000000000000000000000000000000000000000000000000000000000000000089896000818110610ec857fe5b905060200201356001600160a01b03168a8a6001818110610dab57fe5b8a6130ee565b600085856000198101818110610efd57fe5b905060200201356001600160a01b03166001600160a01b03166370a08231856040518263ffffffff1660e01b815260040180826001600160a01b0316815260200191505060206040518083038186803b158015610f5957600080fd5b505afa158015610f6d573d6000803e3d6000fd5b505050506040513d6020811015610f8357600080fd5b50516040805160208881028281018201909352888252929350610fc5929091899189918291850190849080828437600092019190915250889250613487915050565b866110688288886000198101818110610fda57fe5b905060200201356001600160a01b03166001600160a01b03166370a08231886040518263ffffffff1660e01b815260040180826001600160a01b0316815260200191505060206040518083038186803b15801561103657600080fd5b505afa15801561104a573d6000803e3d6000fd5b505050506040513d602081101561106057600080fd5b505190613789565b10156110a55760405162461bcd60e51b815260040180806020018281038252602a815260200180613fd6602a913960400191505060405180910390fd5b5050505050505050565b6060600082438110156110f7576040805162461bcd60e51b81526020600482015260176024820152600080516020613e76833981519152604482015290519081900360640190fd5b6001600160a01b037f0000000000000000000000000000000000000000000000000000000000000000168787600019810181811061113157fe5b905060200201356001600160a01b03166001600160a01b03161461118a576040805162461bcd60e51b815260206004820152601c6024820152600080516020613f5e833981519152604482015290519081900360640190fd5b6111e87f00000000000000000000000000000000000000000000000000000000000000008a898980806020026020016040519081016040528093929190818152602001838360200280828437600092019190915250612f2392505050565b925087836001855103815181106111fb57fe5b602002602001015110610e225761121887876000818110610d4c57fe5b6112578388888080602002602001604051908101604052809392919081815260200183836020028082843760009201919091525030925061324a915050565b7f00000000000000000000000000000000000000000000000000000000000000006001600160a01b0316632e1a7d4d8460018651038151811061129657fe5b60200260200101516040518263ffffffff1660e01b815260040180828152602001915050600060405180830381600087803b1580156112d457600080fd5b505af11580156112e8573d6000803e3d6000fd5b50505050610e19858460018651038151811061130057fe5b6020026020010151612e2b565b7f000000000000000000000000000000000000000000000000000000000000000081565b8043811015611375576040805162461bcd60e51b81526020600482015260176024820152600080516020613e76833981519152604482015290519081900360640190fd5b6001600160a01b037f000000000000000000000000000000000000000000000000000000000000000016858560001981018181106113af57fe5b905060200201356001600160a01b03166001600160a01b031614611408576040805162461bcd60e51b815260206004820152601c6024820152600080516020613f5e833981519152604482015290519081900360640190fd5b61141885856000818110610e8657fe5b611456858580806020026020016040519081016040528093929190818152602001838360200280828437600092019190915250309250613487915050565b60007f00000000000000000000000000000000000000000000000000000000000000006001600160a01b03166370a08231306040518263ffffffff1660e01b815260040180826001600160a01b0316815260200191505060206040518083038186803b1580156114c557600080fd5b505afa1580156114d9573d6000803e3d6000fd5b505050506040513d60208110156114ef57600080fd5b50519050868110156115325760405162461bcd60e51b815260040180806020018281038252602a815260200180613fd6602a913960400191505060405180910390fd5b7f00000000000000000000000000000000000000000000000000000000000000006001600160a01b0316632e1a7d4d826040518263ffffffff1660e01b815260040180828152602001915050600060405180830381600087803b15801561159857600080fd5b505af11580156115ac573d6000803e3d6000fd5b505050506110a58482612e2b565b60608143811015611600576040805162461bcd60e51b81526020600482015260176024820152600080516020613e76833981519152604482015290519081900360640190fd5b6001600160a01b037f0000000000000000000000000000000000000000000000000000000000000000168686600019810181811061163a57fe5b905060200201356001600160a01b03166001600160a01b031614611693576040805162461bcd60e51b815260206004820152601c6024820152600080516020613f5e833981519152604482015290519081900360640190fd5b6116f17f000000000000000000000000000000000000000000000000000000000000000089888880806020026020016040519081016040528093929190818152602001838360200280828437600092019190915250612b8b92505050565b9150868260008151811061170157fe5b602002602001015111156117465760405162461bcd60e51b8152600401808060200182810382526026815260200180613eec6026913960400191505060405180910390fd5b6117c28686600081811061175657fe5b905060200201356001600160a01b0316336117b57f00000000000000000000000000000000000000000000000000000000000000008a8a600081811061179857fe5b905060200201356001600160a01b03168b8b6001818110610dab57fe5b85600081518110610dcd57fe5b6118018287878080602002602001604051908101604052809392919081815260200183836020028082843760009201919091525030925061324a915050565b7f00000000000000000000000000000000000000000000000000000000000000006001600160a01b0316632e1a7d4d8360018551038151811061184057fe5b60200260200101516040518263ffffffff1660e01b815260040180828152602001915050600060405180830381600087803b15801561187e57600080fd5b505af1158015611892573d6000803e3d6000fd5b505050506118aa848360018551038151811061130057fe5b509695505050505050565b6000610b1e8484846137d9565b60608143811015611908576040805162461bcd60e51b81526020600482015260176024820152600080516020613e76833981519152604482015290519081900360640190fd5b6119667f000000000000000000000000000000000000000000000000000000000000000089888880806020026020016040519081016040528093929190818152602001838360200280828437600092019190915250612b8b92505050565b9150868260008151811061197657fe5b602002602001015111156119bb5760405162461bcd60e51b8152600401808060200182810382526026815260200180613eec6026913960400191505060405180910390fd5b6119cb8686600081811061175657fe5b6118aa8287878080602002602001604051908101604052809392919081815260200183836020028082843760009201919091525089925061324a915050565b60608143811015611a50576040805162461bcd60e51b81526020600482015260176024820152600080516020613e76833981519152604482015290519081900360640190fd5b7f00000000000000000000000000000000000000000000000000000000000000006001600160a01b031686866000818110611a8757fe5b905060200201356001600160a01b03166001600160a01b031614611ae0576040805162461bcd60e51b815260206004820152601c6024820152600080516020613f5e833981519152604482015290519081900360640190fd5b611b3e7f000000000000000000000000000000000000000000000000000000000000000088888880806020026020016040519081016040528093929190818152602001838360200280828437600092019190915250612b8b92505050565b91503482600081518110611b4e57fe5b60200260200101511115611b935760405162461bcd60e51b8152600401808060200182810382526026815260200180613eec6026913960400191505060405180910390fd5b7f00000000000000000000000000000000000000000000000000000000000000006001600160a01b031663d0e30db083600081518110611bcf57fe5b60200260200101516040518263ffffffff1660e01b81526004016000604051808303818588803b158015611c0257600080fd5b505af1158015611c16573d6000803e3d6000fd5b50505050507f00000000000000000000000000000000000000000000000000000000000000006001600160a01b031663a9059cbb611c7b7f000000000000000000000000000000000000000000000000000000000000000089896000818110610ec857fe5b84600081518110611c8857fe5b60200260200101516040518363ffffffff1660e01b815260040180836001600160a01b0316815260200182815260200192505050602060405180830381600087803b158015611cd657600080fd5b505af1158015611cea573d6000803e3d6000fd5b505050506040513d6020811015611d0057600080fd5b5051611d0857fe5b611d478287878080602002602001604051908101604052809392919081815260200183836020028082843760009201919091525089925061324a915050565b81600081518110611d5457fe5b6020026020010151341115611d8357611d833383600081518110611d7457fe5b60200260200101513403612e2b565b5095945050505050565b60608143811015611dd3576040805162461bcd60e51b81526020600482015260176024820152600080516020613e76833981519152604482015290519081900360640190fd5b7f00000000000000000000000000000000000000000000000000000000000000006001600160a01b031686866000818110611e0a57fe5b905060200201356001600160a01b03166001600160a01b031614611e63576040805162461bcd60e51b815260206004820152601c6024820152600080516020613f5e833981519152604482015290519081900360640190fd5b611ec17f000000000000000000000000000000000000000000000000000000000000000034888880806020026020016040519081016040528093929190818152602001838360200280828437600092019190915250612f2392505050565b91508682600184510381518110611ed457fe5b60200260200101511015611f195760405162461bcd60e51b815260040180806020018281038252602a815260200180613fd6602a913960400191505060405180910390fd5b7f00000000000000000000000000000000000000000000000000000000000000006001600160a01b031663d0e30db083600081518110611f5557fe5b60200260200101516040518263ffffffff1660e01b81526004016000604051808303818588803b158015611f8857600080fd5b505af1158015611f9c573d6000803e3d6000fd5b50505050507f00000000000000000000000000000000000000000000000000000000000000006001600160a01b031663a9059cbb6120017f000000000000000000000000000000000000000000000000000000000000000089896000818110610ec857fe5b8460008151811061200e57fe5b60200260200101516040518363ffffffff1660e01b815260040180836001600160a01b0316815260200182815260200192505050602060405180830381600087803b15801561205c57600080fd5b505af1158015612070573d6000803e3d6000fd5b505050506040513d602081101561208657600080fd5b50506040805160208781028281018201909352878252611d83928592918a918a9182919085019084908082843760009201919091525089925061324a915050565b6000610b1e8484846138b1565b600080824381101561211b576040805162461bcd60e51b81526020600482015260176024820152600080516020613e76833981519152604482015290519081900360640190fd5b60006121487f00000000000000000000000000000000000000000000000000000000000000008c8c61305a565b604080516323b872dd60e01b81523360048201526001600160a01b03831660248201819052604482018d9052915192935090916323b872dd916064808201926020929091908290030181600087803b1580156121a357600080fd5b505af11580156121b7573d6000803e3d6000fd5b505050506040513d60208110156121cd57600080fd5b50506040805163226bf2d160e21b81526001600160a01b03888116600483015282516000938493928616926389afcb44926024808301939282900301818787803b15801561221a57600080fd5b505af115801561222e573d6000803e3d6000fd5b505050506040513d604081101561224457600080fd5b5080516020909101519092509050600061225e8e8e613957565b509050806001600160a01b03168e6001600160a01b031614612281578183612284565b82825b90975095508a8710156122c85760405162461bcd60e51b8152600401808060200182810382526025815260200180613ec76025913960400191505060405180910390fd5b898610156123075760405162461bcd60e51b8152600401808060200182810382526025815260200180613f126025913960400191505060405180910390fd5b505050505097509795505050505050565b804381101561235c576040805162461bcd60e51b81526020600482015260176024820152600080516020613e76833981519152604482015290519081900360640190fd5b7f00000000000000000000000000000000000000000000000000000000000000006001600160a01b03168585600081811061239357fe5b905060200201356001600160a01b03166001600160a01b0316146123ec576040805162461bcd60e51b815260206004820152601c6024820152600080516020613f5e833981519152604482015290519081900360640190fd5b60003490507f00000000000000000000000000000000000000000000000000000000000000006001600160a01b031663d0e30db0826040518263ffffffff1660e01b81526004016000604051808303818588803b15801561244c57600080fd5b505af1158015612460573d6000803e3d6000fd5b50505050507f00000000000000000000000000000000000000000000000000000000000000006001600160a01b031663a9059cbb6124c57f000000000000000000000000000000000000000000000000000000000000000089896000818110610ec857fe5b836040518363ffffffff1660e01b815260040180836001600160a01b0316815260200182815260200192505050602060405180830381600087803b15801561250c57600080fd5b505af1158015612520573d6000803e3d6000fd5b505050506040513d602081101561253657600080fd5b505161253e57fe5b60008686600019810181811061255057fe5b905060200201356001600160a01b03166001600160a01b03166370a08231866040518263ffffffff1660e01b815260040180826001600160a01b0316815260200191505060206040518083038186803b1580156125ac57600080fd5b505afa1580156125c0573d6000803e3d6000fd5b505050506040513d60208110156125d657600080fd5b505160408051602089810282810182019093528982529293506126189290918a918a918291850190849080828437600092019190915250899250613487915050565b87611068828989600019810181811061262d57fe5b905060200201356001600160a01b03166001600160a01b03166370a08231896040518263ffffffff1660e01b815260040180826001600160a01b0316815260200191505060206040518083038186803b15801561103657600080fd5b6060610b537f00000000000000000000000000000000000000000000000000000000000000008484612f23565b7f000000000000000000000000000000000000000000000000000000000000000081565b60008060008343811015612723576040805162461bcd60e51b81526020600482015260176024820152600080516020613e76833981519152604482015290519081900360640190fd5b6127318c8c8c8c8c8c613a35565b909450925060006127637f00000000000000000000000000000000000000000000000000000000000000008e8e61305a565b90506127718d3383886130ee565b61277d8c3383876130ee565b61278b8d3330888f036130ee565b6127998c3330878e036130ee565b806001600160a01b0316636a627842886040518263ffffffff1660e01b815260040180826001600160a01b03168152602001915050602060405180830381600087803b1580156127e857600080fd5b505af11580156127fc573d6000803e3d6000fd5b505050506040513d602081101561281257600080fd5b5051949d939c50939a509198505050505050505050565b60008060008343811015612872576040805162461bcd60e51b81526020600482015260176024820152600080516020613e76833981519152604482015290519081900360640190fd5b6128a08a7f00000000000000000000000000000000000000000000000000000000000000008b348c8c613a35565b909450925060006128f27f00000000000000000000000000000000000000000000000000000000000000008c7f000000000000000000000000000000000000000000000000000000000000000061305a565b90506129008b3383886130ee565b7f00000000000000000000000000000000000000000000000000000000000000006001600160a01b031663d0e30db0856040518263ffffffff1660e01b81526004016000604051808303818588803b15801561295b57600080fd5b505af115801561296f573d6000803e3d6000fd5b50505050507f00000000000000000000000000000000000000000000000000000000000000006001600160a01b031663a9059cbb82866040518363ffffffff1660e01b815260040180836001600160a01b0316815260200182815260200192505050602060405180830381600087803b1580156129eb57600080fd5b505af11580156129ff573d6000803e3d6000fd5b505050506040513d6020811015612a1557600080fd5b5050604080516335313c2160e11b81526001600160a01b038981166004830152915191831691636a627842916024808201926020929091908290030181600087803b158015612a6357600080fd5b505af1158015612a77573d6000803e3d6000fd5b505050506040513d6020811015612a8d57600080fd5b5051925034841015612aa557612aa533853403612e2b565b505096509650969350505050565b6000808411612af35760405162461bcd60e51b815260040180806020018281038252602d81526020018061402d602d913960400191505060405180910390fd5b600083118015612b035750600082115b612b3e5760405162461bcd60e51b815260040180806020018281038252602a815260200180613f7e602a913960400191505060405180910390fd5b6000612b4c856103e5613cc6565b90506000612b5a8285613cc6565b90506000612b7483612b6e886103e8613cc6565b90613d29565b9050808281612b7f57fe5b04979650505050505050565b6060600282511015612be4576040805162461bcd60e51b815260206004820181905260248201527f54656c65706f727444414f4c6962726172793a20494e56414c49445f50415448604482015290519081900360640190fd5b815167ffffffffffffffff81118015612bfc57600080fd5b50604051908082528060200260200182016040528015612c26578160200160208202803683370190505b5090508281600183510381518110612c3a57fe5b60209081029190910101528151600019015b8015612cd057600080612c8987866001860381518110612c6857fe5b6020026020010151878681518110612c7c57fe5b6020026020010151613d78565b91509150612cab848481518110612c9c57fe5b602002602001015183836137d9565b846001850381518110612cba57fe5b6020908102919091010152505060001901612c4c565b509392505050565b604080516001600160a01b038481166024830152604480830185905283518084039091018152606490920183526020820180516001600160e01b031663a9059cbb60e01b1781529251825160009485949389169392918291908083835b60208310612d545780518252601f199092019160209182019101612d35565b6001836020036101000a0380198251168184511680821785525050505050509050019150506000604051808303816000865af19150503d8060008114612db6576040519150601f19603f3d011682016040523d82523d6000602084013e612dbb565b606091505b5091509150818015612de9575080511580612de95750808060200190516020811015612de657600080fd5b50515b612e245760405162461bcd60e51b815260040180806020018281038252602d815260200180614000602d913960400191505060405180910390fd5b5050505050565b604080516000808252602082019092526001600160a01b0384169083906040518082805190602001908083835b60208310612e775780518252601f199092019160209182019101612e58565b6001836020036101000a03801982511681845116808217855250505050505090500191505060006040518083038185875af1925050503d8060008114612ed9576040519150601f19603f3d011682016040523d82523d6000602084013e612ede565b606091505b5050905080612f1e5760405162461bcd60e51b8152600401808060200182810382526036815260200180613e406036913960400191505060405180910390fd5b505050565b6060600282511015612f7c576040805162461bcd60e51b815260206004820181905260248201527f54656c65706f727444414f4c6962726172793a20494e56414c49445f50415448604482015290519081900360640190fd5b815167ffffffffffffffff81118015612f9457600080fd5b50604051908082528060200260200182016040528015612fbe578160200160208202803683370190505b5090508281600081518110612fcf57fe5b60200260200101818152505060005b6001835103811015612cd05760008061301487868581518110612ffd57fe5b6020026020010151878660010181518110612c7c57fe5b9150915061303684848151811061302757fe5b60200260200101518383612ab3565b84846001018151811061304557fe5b60209081029190910101525050600101612fde565b6000836001600160a01b031663f4f31ede84846040518363ffffffff1660e01b815260040180836001600160a01b03168152602001826001600160a01b031681526020019250505060206040518083038186803b1580156130ba57600080fd5b505afa1580156130ce573d6000803e3d6000fd5b505050506040513d60208110156130e457600080fd5b5051949350505050565b604080516001600160a01b0385811660248301528481166044830152606480830185905283518084039091018152608490920183526020820180516001600160e01b03166323b872dd60e01b178152925182516000948594938a169392918291908083835b602083106131725780518252601f199092019160209182019101613153565b6001836020036101000a0380198251168184511680821785525050505050509050019150506000604051808303816000865af19150503d80600081146131d4576040519150601f19603f3d011682016040523d82523d6000602084013e6131d9565b606091505b5091509150818015613207575080511580613207575080806020019051602081101561320457600080fd5b50515b6132425760405162461bcd60e51b8152600401808060200182810382526031815260200180613e966031913960400191505060405180910390fd5b505050505050565b60005b60018351038110156134815760008084838151811061326857fe5b602002602001015185846001018151811061327f57fe5b60200260200101519150915060006132978383613957565b50905060008785600101815181106132ab57fe5b60200260200101519050600080836001600160a01b0316866001600160a01b0316146132d9578260006132dd565b6000835b91509150600060028a510388106132f45788613335565b6133357f0000000000000000000000000000000000000000000000000000000000000000878c8b6002018151811061332857fe5b602002602001015161305a565b90506133627f0000000000000000000000000000000000000000000000000000000000000000888861305a565b6001600160a01b031663022c0d9f84848460006040519080825280601f01601f19166020018201604052801561339f576020820181803683370190505b506040518563ffffffff1660e01b815260040180858152602001848152602001836001600160a01b0316815260200180602001828103825283818151815260200191508051906020019080838360005b838110156134075781810151838201526020016133ef565b50505050905090810190601f1680156134345780820380516001836020036101000a031916815260200191505b5095505050505050600060405180830381600087803b15801561345657600080fd5b505af115801561346a573d6000803e3d6000fd5b50506001909901985061324d975050505050505050565b50505050565b60005b6001835103811015612f1e576000808483815181106134a557fe5b60200260200101518584600101815181106134bc57fe5b60200260200101519150915060006134d48383613957565b50905060006135047f0000000000000000000000000000000000000000000000000000000000000000858561305a565b9050600080600080846001600160a01b0316630902f1ac6040518163ffffffff1660e01b815260040160606040518083038186803b15801561354557600080fd5b505afa158015613559573d6000803e3d6000fd5b505050506040513d606081101561356f57600080fd5b5080516020909101516001600160701b0391821693501690506000806001600160a01b038a8116908916146135a55782846135a8565b83835b915091506135fd828b6001600160a01b03166370a082318a6040518263ffffffff1660e01b815260040180826001600160a01b0316815260200191505060206040518083038186803b15801561103657600080fd5b955061360a868383612ab3565b945050505050600080856001600160a01b0316886001600160a01b03161461363457826000613638565b6000835b91509150600060028c51038a1061364f578a613683565b6136837f0000000000000000000000000000000000000000000000000000000000000000898e8d6002018151811061332857fe5b604080516000808252602082019283905263022c0d9f60e01b835260248201878152604483018790526001600160a01b038086166064850152608060848501908152845160a48601819052969750908c169563022c0d9f958a958a958a9591949193919260c486019290918190849084905b8381101561370d5781810151838201526020016136f5565b50505050905090810190601f16801561373a5780820380516001836020036101000a031916815260200191505b5095505050505050600060405180830381600087803b15801561375c57600080fd5b505af1158015613770573d6000803e3d6000fd5b50506001909b019a5061348a9950505050505050505050565b80820382811115610b56576040805162461bcd60e51b815260206004820152601560248201527464732d6d6174682d7375622d756e646572666c6f7760581b604482015290519081900360640190fd5b60008084116138195760405162461bcd60e51b815260040180806020018281038252602e815260200180613fa8602e913960400191505060405180910390fd5b6000831180156138295750600082115b6138645760405162461bcd60e51b815260040180806020018281038252602a815260200180613f7e602a913960400191505060405180910390fd5b600061387c6103e86138768688613cc6565b90613cc6565b905060006138906103e56138768689613789565b90506138a760018284816138a057fe5b0490613d29565b9695505050505050565b60008084116138f15760405162461bcd60e51b815260040180806020018281038252602781526020018061405a6027913960400191505060405180910390fd5b6000831180156139015750600082115b61393c5760405162461bcd60e51b815260040180806020018281038252602a815260200180613f7e602a913960400191505060405180910390fd5b826139478584613cc6565b8161394e57fe5b04949350505050565b600080826001600160a01b0316846001600160a01b031614156139ab5760405162461bcd60e51b8152600401808060200182810382526027815260200180613f376027913960400191505060405180910390fd5b826001600160a01b0316846001600160a01b0316106139cb5782846139ce565b83835b90925090506001600160a01b038216613a2e576040805162461bcd60e51b815260206004820181905260248201527f54656c65706f727444414f4c6962726172793a205a45524f5f41444452455353604482015290519081900360640190fd5b9250929050565b60008060006001600160a01b03167f00000000000000000000000000000000000000000000000000000000000000006001600160a01b031663f4f31ede8a8a6040518363ffffffff1660e01b815260040180836001600160a01b03168152602001826001600160a01b031681526020019250505060206040518083038186803b158015613ac157600080fd5b505afa158015613ad5573d6000803e3d6000fd5b505050506040513d6020811015613aeb57600080fd5b50516001600160a01b03161415613ba9577f00000000000000000000000000000000000000000000000000000000000000006001600160a01b0316632384d3d089896040518363ffffffff1660e01b815260040180836001600160a01b03168152602001826001600160a01b0316815260200192505050602060405180830381600087803b158015613b7c57600080fd5b505af1158015613b90573d6000803e3d6000fd5b505050506040513d6020811015613ba657600080fd5b50505b600080613bd77f00000000000000000000000000000000000000000000000000000000000000008b8b613d78565b91509150816000148015613be9575080155b15613bf957879350869250613cb9565b6000613c068984846138b1565b9050878111613c595785811015613c4e5760405162461bcd60e51b8152600401808060200182810382526025815260200180613f126025913960400191505060405180910390fd5b889450925082613cb7565b6000613c668984866138b1565b905089811115613c7257fe5b87811015613cb15760405162461bcd60e51b8152600401808060200182810382526025815260200180613ec76025913960400191505060405180910390fd5b94508793505b505b5050965096945050505050565b6000811580613ce157505080820282828281613cde57fe5b04145b610b56576040805162461bcd60e51b815260206004820152601460248201527364732d6d6174682d6d756c2d6f766572666c6f7760601b604482015290519081900360640190fd5b80820182811015610b56576040805162461bcd60e51b815260206004820152601460248201527364732d6d6174682d6164642d6f766572666c6f7760601b604482015290519081900360640190fd5b6000806000613d878585613957565b509050600080613d9888888861305a565b6001600160a01b0316630902f1ac6040518163ffffffff1660e01b815260040160606040518083038186803b158015613dd057600080fd5b505afa158015613de4573d6000803e3d6000fd5b505050506040513d6060811015613dfa57600080fd5b5080516020909101516001600160701b0391821693501690506001600160a01b0387811690841614613e2d578082613e30565b81815b9099909850965050505050505056fe5472616e7366657248656c7065723a3a736166655472616e73666572415641583a2041564158207472616e73666572206661696c656445786368616e6765526f757465723a20455850495245440000000000000000005472616e7366657248656c7065723a3a7472616e7366657246726f6d3a207472616e7366657246726f6d206661696c656445786368616e6765526f757465723a20494e53554646494349454e545f415f414d4f554e5445786368616e6765526f757465723a204558434553534956455f494e5055545f414d4f554e5445786368616e6765526f757465723a20494e53554646494349454e545f425f414d4f554e5454656c65706f727444414f4c6962726172793a204944454e544943414c5f41444452455353455345786368616e6765526f757465723a20494e56414c49445f504154480000000054656c65706f727444414f4c6962726172793a20494e53554646494349454e545f4c495155494449545954656c65706f727444414f4c6962726172793a20494e53554646494349454e545f4f55545055545f414d4f554e5445786368616e6765526f757465723a20494e53554646494349454e545f4f55545055545f414d4f554e545472616e7366657248656c7065723a3a736166655472616e736665723a207472616e73666572206661696c656454656c65706f727444414f4c6962726172793a20494e53554646494349454e545f494e5055545f414d4f554e5454656c65706f727444414f4c6962726172793a20494e53554646494349454e545f414d4f554e54a26469706673582212208f9859cc783fb28bf1481ae3680aa2c7182abe5f08e10e049c910dab6779512864736f6c63430007060033",
  "devdoc": {
    "kind": "dev",
    "methods": {},
    "version": 1
  },
  "userdoc": {
    "kind": "user",
    "methods": {},
    "version": 1
  },
  "storageLayout": {
    "storage": [],
    "types": null
  }
}