{
  "address": "0xeEA649F1EA6a276C88B44A4D85CDa8eb9a141848",
  "abi": [
    {
      "inputs": [
        {
          "internalType": "address",
          "name": "_ccTransferRouter",
          "type": "address"
        },
        {
          "internalType": "uint256",
          "name": "_fastLimit",
          "type": "uint256"
        },
        {
          "internalType": "uint256",
          "name": "_fastFee",
          "type": "uint256"
        },
        {
          "internalType": "uint256",
          "name": "_neededConfirmations",
          "type": "uint256"
        }
      ],
      "stateMutability": "nonpayable",
      "type": "constructor"
    },
    {
      "inputs": [
        {
          "internalType": "address",
          "name": "user",
          "type": "address"
        },
        {
          "internalType": "uint256",
          "name": "wrappedBitcoinAmount",
          "type": "uint256"
        }
      ],
      "name": "addLiquidity",
      "outputs": [
        {
          "internalType": "uint256",
          "name": "",
          "type": "uint256"
        }
      ],
      "stateMutability": "nonpayable",
      "type": "function"
    },
    {
      "inputs": [],
      "name": "bitcoinFastPool",
      "outputs": [
        {
          "internalType": "address",
          "name": "",
          "type": "address"
        }
      ],
      "stateMutability": "view",
      "type": "function"
    },
    {
      "inputs": [],
      "name": "ccTransferRouter",
      "outputs": [
        {
          "internalType": "address",
          "name": "",
          "type": "address"
        }
      ],
      "stateMutability": "view",
      "type": "function"
    },
    {
      "inputs": [
        {
          "internalType": "address",
          "name": "_owner",
          "type": "address"
        }
      ],
      "name": "changeOwner",
      "outputs": [],
      "stateMutability": "nonpayable",
      "type": "function"
    },
    {
      "inputs": [
        {
          "internalType": "address",
          "name": "receiver",
          "type": "address"
        },
        {
          "internalType": "uint256",
          "name": "amount",
          "type": "uint256"
        },
        {
          "internalType": "uint256",
          "name": "blockNumber",
          "type": "uint256"
        }
      ],
      "name": "fastTransfer",
      "outputs": [
        {
          "internalType": "bool",
          "name": "",
          "type": "bool"
        }
      ],
      "stateMutability": "nonpayable",
      "type": "function"
    },
    {
      "inputs": [],
      "name": "getNeededConfirmations",
      "outputs": [
        {
          "internalType": "uint256",
          "name": "",
          "type": "uint256"
        }
      ],
      "stateMutability": "view",
      "type": "function"
    },
    {
      "inputs": [],
      "name": "owner",
      "outputs": [
        {
          "internalType": "address",
          "name": "",
          "type": "address"
        }
      ],
      "stateMutability": "view",
      "type": "function"
    },
    {
      "inputs": [
        {
          "internalType": "address",
          "name": "user",
          "type": "address"
        },
        {
          "internalType": "uint256",
          "name": "fastPoolTokenAmount",
          "type": "uint256"
        }
      ],
      "name": "removeLiquidity",
      "outputs": [
        {
          "internalType": "uint256",
          "name": "",
          "type": "uint256"
        }
      ],
      "stateMutability": "nonpayable",
      "type": "function"
    },
    {
      "inputs": [
        {
          "internalType": "address",
          "name": "_ccTransferRouter",
          "type": "address"
        }
      ],
      "name": "setCCTransferRouter",
      "outputs": [],
      "stateMutability": "nonpayable",
      "type": "function"
    },
    {
      "inputs": [],
      "name": "wrappedBitcoin",
      "outputs": [
        {
          "internalType": "address",
          "name": "",
          "type": "address"
        }
      ],
      "stateMutability": "view",
      "type": "function"
    }
  ],
  "transactionHash": "0xf4aa70a52aea911740f4fabfd8a683b0b58b81375bb697554e901b49291da3ce",
  "args": [
    "0x4a34FE2aFD275d95C8971c54e8E4deFFD9A85912",
    1000,
    10,
    6
  ],
  "numDeployments": 1,
  "solcInputHash": "b766d894e7507eaf09e41e8de1c94935",
  "bytecode": "0x608060405234801561001057600080fd5b506040516121b23803806121b28339818101604052608081101561003357600080fd5b508051602080830151604080850151606090950151600180546001600160a01b0319166001600160a01b0380881691909117918290558351635615e16f60e01b815293519697949694959294911692635615e16f926004808301939192829003018186803b1580156100a457600080fd5b505afa1580156100b8573d6000803e3d6000fd5b505050506040513d60208110156100ce57600080fd5b5051600280546001600160a01b0319166001600160a01b03928316179081905560405160009291909116903090869086908690339061010c906101ed565b6001600160a01b0396871681529486166020860152608085019390935260a084019190915260c083015290911660e082015261010060408083018290526014918301919091527f426974636f696e46617374506f6f6c546f6b656e0000000000000000000000006101208301526101406060830181905260069083015265109510d1941560d21b610160830152519081900361018001906000f0801580156101b8573d6000803e3d6000fd5b50600080546001600160a01b039092166001600160a01b03199283161790556003805490911633179055506101fa9350505050565b61178a80610a2883390190565b61081f806102096000396000f3fe608060405234801561001057600080fd5b506004361061009e5760003560e01c8063a201ccf611610066578063a201ccf61461017b578063a6f9dae1146101a7578063c6f46182146101cd578063f2998cb2146101d5578063f5ded518146101dd5761009e565b806320495047146100a35780635615e16f146100e9578063566887001461010d5780637f3c8b211461014b5780638da5cb5b14610173575b600080fd5b6100d5600480360360608110156100b957600080fd5b506001600160a01b0381351690602081013590604001356101e5565b604080519115158252519081900360200190f35b6100f1610318565b604080516001600160a01b039092168252519081900360200190f35b6101396004803603604081101561012357600080fd5b506001600160a01b038135169060200135610327565b60408051918252519081900360200190f35b6101716004803603602081101561016157600080fd5b50356001600160a01b031661054c565b005b6100f1610585565b6101396004803603604081101561019157600080fd5b506001600160a01b038135169060200135610594565b610171600480360360208110156101bd57600080fd5b50356001600160a01b03166106c4565b6100f16106fd565b61013961070c565b6100f161078c565b6001546000906001600160a01b031633146102315760405162461bcd60e51b815260040180806020018281038252602981526020018061079c6029913960400191505060405180910390fd5b6000805460408051632049504760e01b81526001600160a01b038881166004830152602482018890526044820187905291519190921692632049504792606480820193602093909283900390910190829087803b15801561029157600080fd5b505af11580156102a5573d6000803e3d6000fd5b505050506040513d60208110156102bb57600080fd5b505161030e576040805162461bcd60e51b815260206004820152601b60248201527f7472616e7366657220776173206e6f742073756363657366756c6c0000000000604482015290519081900360640190fd5b5060019392505050565b6002546001600160a01b031681565b600254604080516323b872dd60e01b81523360048201523060248201526044810184905290516000926001600160a01b0316916323b872dd91606480830192602092919082900301818787803b15801561038057600080fd5b505af1158015610394573d6000803e3d6000fd5b505050506040513d60208110156103aa57600080fd5b50516103fd576040805162461bcd60e51b815260206004820152601e60248201527f757365722062616c616e6365206973206e6f742073756666696369656e740000604482015290519081900360640190fd5b600254600080546040805163095ea7b360e01b81526001600160a01b039283166004820152602481018790529051919093169263095ea7b39260448083019360209390929083900390910190829087803b15801561045a57600080fd5b505af115801561046e573d6000803e3d6000fd5b505050506040513d602081101561048457600080fd5b50516104c15760405162461bcd60e51b81526004018080602001828103825260258152602001806107c56025913960400191505060405180910390fd5b60008054604080516256688760e81b81526001600160a01b0387811660048301526024820187905291519190921692635668870092604480820193602093909283900390910190829087803b15801561051957600080fd5b505af115801561052d573d6000803e3d6000fd5b505050506040513d602081101561054357600080fd5b50519392505050565b6003546001600160a01b0316331461056357600080fd5b600180546001600160a01b0319166001600160a01b0392909216919091179055565b6003546001600160a01b031681565b60008054604080516323b872dd60e01b81523360048201523060248201526044810185905290516001600160a01b03909216916323b872dd9160648082019260209290919082900301818787803b1580156105ee57600080fd5b505af1158015610602573d6000803e3d6000fd5b505050506040513d602081101561061857600080fd5b505161066b576040805162461bcd60e51b815260206004820152601e60248201527f757365722062616c616e6365206973206e6f742073756666696369656e740000604482015290519081900360640190fd5b6000805460408051635100e67b60e11b81526001600160a01b038781166004830152602482018790529151919092169263a201ccf692604480820193602093909283900390910190829087803b15801561051957600080fd5b6003546001600160a01b031633146106db57600080fd5b600380546001600160a01b0319166001600160a01b0392909216919091179055565b6000546001600160a01b031681565b60008060009054906101000a90046001600160a01b03166001600160a01b031663a2706b656040518163ffffffff1660e01b815260040160206040518083038186803b15801561075b57600080fd5b505afa15801561076f573d6000803e3d6000fd5b505050506040513d602081101561078557600080fd5b5051905090565b6001546001600160a01b03168156fe6d6573736167652073656e64657220776173206e6f74206363207472616e7366657220726f757465726661737420726f757465722062616c616e6365206973206e6f742073756666696369656e74a2646970667358221220c8b7da86d80d5a3016b3e16023c2b93b7edb5a966c7b22fd93a69a38f76e681764736f6c6343000706003360806040523480156200001157600080fd5b506040516200178a3803806200178a83398181016040526101008110156200003857600080fd5b815160208301516040808501805191519395929483019291846401000000008211156200006457600080fd5b9083019060208201858111156200007a57600080fd5b82516401000000008111828201881017156200009557600080fd5b82525081516020918201929091019080838360005b83811015620000c4578181015183820152602001620000aa565b50505050905090810190601f168015620000f25780820380516001836020036101000a031916815260200191505b50604052602001805160405193929190846401000000008211156200011657600080fd5b9083019060208201858111156200012c57600080fd5b82516401000000008111828201881017156200014757600080fd5b82525081516020918201929091019080838360005b83811015620001765781810151838201526020016200015c565b50505050905090810190601f168015620001a45780820380516001836020036101000a031916815260200191505b50604090815260208281015191830151606084015160809094015188519396509094509187918791600091620001e091600391860190620002d4565b508151620001f6906004906020850190620002d4565b5080156200020a576200020a338262000264565b5050600580546001600160a01b03199081166001600160a01b039b8c1617909155600680548216998b169990991790985550600d93909355600e91909155600f556010805490941694169390931790915550620003809050565b6200027260008383620002cf565b60028054820190556001600160a01b038216600081815260208181526040808320805486019055805185815290517fddf252ad1be2c89b69c2b068fc378daa952ba7f163c4a11628f55a4df523b3ef929181900390910190a35050565b505050565b828054600181600116156101000203166002900490600052602060002090601f0160209004810192826200030c576000855562000357565b82601f106200032757805160ff191683800117855562000357565b8280016001018555821562000357579182015b82811115620003575782518255916020019190600101906200033a565b506200036592915062000369565b5090565b5b808211156200036557600081556001016200036a565b6113fa80620003906000396000f3fe608060405234801561001057600080fd5b50600436106101a95760003560e01c806370a08231116100f9578063a6f9dae111610097578063b69c323511610071578063b69c3235146104e9578063c2dc8d9014610506578063d3fc3bd11461050e578063dd62ed3e1461052b576101a9565b8063a6f9dae11461048f578063a9059cbb146104b5578063b0d5acf9146104e1576101a9565b806395d89b41116100d357806395d89b4114610427578063a201ccf61461042f578063a2706b651461045b578063a457c2d714610463576101a9565b806370a08231146103f157806384c5a2ec146104175780638da5cb5b1461041f576101a9565b80632049504711610166578063313ce56711610140578063313ce5671461037357806339509351146103915780635615e16f146103bd57806356688700146103c5576101a9565b806320495047146102e757806323b872dd1461031957806325dcd36a1461034f576101a9565b80630573abbb146101ae57806306fdde03146101cd578063095ea7b31461024a5780630c03c2051461028a5780630d67463d146102b057806318160ddd146102df575b600080fd5b6101cb600480360360208110156101c457600080fd5b5035610559565b005b6101d5610575565b6040805160208082528351818301528351919283929083019185019080838360005b8381101561020f5781810151838201526020016101f7565b50505050905090810190601f16801561023c5780820380516001836020036101000a031916815260200191505b509250505060405180910390f35b6102766004803603604081101561026057600080fd5b506001600160a01b03813516906020013561060b565b604080519115158252519081900360200190f35b6101cb600480360360208110156102a057600080fd5b50356001600160a01b0316610628565b6102cd600480360360208110156102c657600080fd5b5035610661565b60408051918252519081900360200190f35b6102cd610673565b610276600480360360608110156102fd57600080fd5b506001600160a01b038135169060208101359060400135610679565b6102766004803603606081101561032f57600080fd5b506001600160a01b0381358116916020810135909116906040013561088a565b610357610939565b604080516001600160a01b039092168252519081900360200190f35b61037b610948565b6040805160ff9092168252519081900360200190f35b610276600480360360408110156103a757600080fd5b506001600160a01b03813516906020013561094d565b610357610998565b6102cd600480360360408110156103db57600080fd5b506001600160a01b0381351690602001356109a7565b6102cd6004803603602081101561040757600080fd5b50356001600160a01b0316610ab2565b6102cd610acd565b610357610ad3565b6101d5610ae2565b6102cd6004803603604081101561044557600080fd5b506001600160a01b038135169060200135610b43565b6102cd610ce3565b6102766004803603604081101561047957600080fd5b506001600160a01b038135169060200135610ce9565b6101cb600480360360208110156104a557600080fd5b50356001600160a01b0316610d81565b610276600480360360408110156104cb57600080fd5b506001600160a01b038135169060200135610dba565b6102cd610dce565b6101cb600480360360208110156104ff57600080fd5b5035610e4a565b6102cd610e4f565b6101cb6004803603602081101561052457600080fd5b5035610e55565b6102cd6004803603604081101561054157600080fd5b506001600160a01b0381358116916020013516610e71565b6010546001600160a01b0316331461057057600080fd5b600d55565b60038054604080516020601f60026000196101006001881615020190951694909404938401819004810282018101909252828152606093909290918301828280156106015780601f106105d657610100808354040283529160200191610601565b820191906000526020600020905b8154815290600101906020018083116105e457829003601f168201915b5050505050905090565b600061061f610618610e9c565b8484610ea0565b50600192915050565b6010546001600160a01b0316331461063f57600080fd5b600680546001600160a01b0319166001600160a01b0392909216919091179055565b60076020526000908152604090205481565b60025490565b6006546000906001600160a01b031633146106db576040805162461bcd60e51b815260206004820152601960248201527f73656e646572206973206e6f74206661737420726f7574657200000000000000604482015290519081900360640190fd5b600d54600083815260076020526040902054840110610739576040805162461bcd60e51b815260206004820152601560248201527419985cdd081b1a5b5a5d081a5cc81c995858da1959605a1b604482015290519081900360640190fd5b82610742610dce565b101561077f5760405162461bcd60e51b81526004018080602001828103825260268152602001806112c26026913960400191505060405180910390fd5b60006064600e5460640385028161079257fe5b6005546040805163a9059cbb60e01b81526001600160a01b038a811660048301529490930460248401819052905190945092169163a9059cbb916044808201926020929091908290030181600087803b1580156107ee57600080fd5b505af1158015610802573d6000803e3d6000fd5b505050506040513d602081101561081857600080fd5b505060008381526007602090815260409182902080548701905581516001600160a01b03881681529081018690528082018390526060810185905290517f2256692cae38746cd6878a11fb2049316b234e1315b419545ddc8af382c3a68a9181900360800190a1506001949350505050565b6000610897848484610f8c565b6001600160a01b0384166000908152600160205260408120816108b8610e9c565b6001600160a01b03166001600160a01b031681526020019081526020016000205490508281101561091a5760405162461bcd60e51b815260040180806020018281038252602881526020018061130e6028913960400191505060405180910390fd5b61092e85610926610e9c565b858403610ea0565b506001949350505050565b6006546001600160a01b031681565b601290565b600061061f61095a610e9c565b848460016000610968610e9c565b6001600160a01b03908116825260208083019390935260409182016000908120918b168152925290205401610ea0565b6005546001600160a01b031681565b60008060006109b4610dce565b9050806109c3578391506109d4565b80600a548502816109d057fe5b0491505b600554604080516323b872dd60e01b81523360048201523060248201526044810187905290516001600160a01b03909216916323b872dd916064808201926020929091908290030181600087803b158015610a2e57600080fd5b505af1158015610a42573d6000803e3d6000fd5b505050506040513d6020811015610a5857600080fd5b50610a65905085836110e2565b604080516001600160a01b03871681526020810186905281517fbb37879e252460856212dc4e8c6edf174e473df9423e3a7feccd21f8c28d587a929181900390910190a150919392505050565b6001600160a01b031660009081526020819052604090205490565b600d5481565b6010546001600160a01b031681565b60048054604080516020601f60026000196101006001881615020190951694909404938401819004810282018101909252828152606093909290918301828280156106015780601f106105d657610100808354040283529160200191610601565b33600090815260086020526040812054821115610ba3576040805162461bcd60e51b815260206004820152601960248201527818985b185b98d9481a5cc81b9bdd081cdd59999a58da595b9d603a1b604482015290519081900360640190fd5b6000600a5483610bb1610dce565b0281610bb957fe5b6005546040805163a9059cbb60e01b81526001600160a01b0389811660048301529490930460248401819052905190945092169163a9059cbb916044808201926020929091908290030181600087803b158015610c1557600080fd5b505af1158015610c29573d6000803e3d6000fd5b505050506040513d6020811015610c3f57600080fd5b5051610c8e576040805162461bcd60e51b815260206004820152601960248201527818985b185b98d9481a5cc81b9bdd081cdd59999a58da595b9d603a1b604482015290519081900360640190fd5b610c98338461114b565b604080516001600160a01b03861681526020810183905281517fdfdd120ded9b7afc0c23dd5310e93aaa3e1c3b9f75af9b805fab3030842439f2929181900390910190a19392505050565b600f5481565b60008060016000610cf8610e9c565b6001600160a01b0390811682526020808301939093526040918201600090812091881681529252902054905082811015610d635760405162461bcd60e51b81526004018080602001828103825260258152602001806113a06025913960400191505060405180910390fd5b610d77610d6e610e9c565b85858403610ea0565b5060019392505050565b6010546001600160a01b03163314610d9857600080fd5b601080546001600160a01b0319166001600160a01b0392909216919091179055565b600061061f610dc7610e9c565b8484610f8c565b600554604080516370a0823160e01b815230600482015290516000926001600160a01b0316916370a08231916024808301926020929190829003018186803b158015610e1957600080fd5b505afa158015610e2d573d6000803e3d6000fd5b505050506040513d6020811015610e4357600080fd5b5051905090565b600f55565b600e5481565b6010546001600160a01b03163314610e6c57600080fd5b600e55565b6001600160a01b03918216600090815260016020908152604080832093909416825291909152205490565b3390565b6001600160a01b038316610ee55760405162461bcd60e51b815260040180806020018281038252602481526020018061137c6024913960400191505060405180910390fd5b6001600160a01b038216610f2a5760405162461bcd60e51b81526004018080602001828103825260228152602001806112a06022913960400191505060405180910390fd5b6001600160a01b03808416600081815260016020908152604080832094871680845294825291829020859055815185815291517f8c5be1e5ebec7d5bd14f71427d1e84f3dd0314c0f7b2291e5b200ac8c7c3b9259281900390910190a3505050565b6001600160a01b038316610fd15760405162461bcd60e51b81526004018080602001828103825260258152602001806113576025913960400191505060405180910390fd5b6001600160a01b0382166110165760405162461bcd60e51b815260040180806020018281038252602381526020018061125b6023913960400191505060405180910390fd5b611021838383611255565b6001600160a01b038316600090815260208190526040902054818110156110795760405162461bcd60e51b81526004018080602001828103825260268152602001806112e86026913960400191505060405180910390fd5b6001600160a01b038085166000818152602081815260408083208787039055938716808352918490208054870190558351868152935191937fddf252ad1be2c89b69c2b068fc378daa952ba7f163c4a11628f55a4df523b3ef929081900390910190a350505050565b6110ee60008383611255565b60028054820190556001600160a01b038216600081815260208181526040808320805486019055805185815290517fddf252ad1be2c89b69c2b068fc378daa952ba7f163c4a11628f55a4df523b3ef929181900390910190a35050565b6001600160a01b0382166111905760405162461bcd60e51b81526004018080602001828103825260218152602001806113366021913960400191505060405180910390fd5b61119c82600083611255565b6001600160a01b038216600090815260208190526040902054818110156111f45760405162461bcd60e51b815260040180806020018281038252602281526020018061127e6022913960400191505060405180910390fd5b6001600160a01b0383166000818152602081815260408083208686039055600280548790039055805186815290519293927fddf252ad1be2c89b69c2b068fc378daa952ba7f163c4a11628f55a4df523b3ef929181900390910190a3505050565b50505056fe45524332303a207472616e7366657220746f20746865207a65726f206164647265737345524332303a206275726e20616d6f756e7420657863656564732062616c616e636545524332303a20617070726f766520746f20746865207a65726f20616464726573736661737420706f6f6c20646f6573206e6f74206861766520656e6f7567682062616c616e636545524332303a207472616e7366657220616d6f756e7420657863656564732062616c616e636545524332303a207472616e7366657220616d6f756e74206578636565647320616c6c6f77616e636545524332303a206275726e2066726f6d20746865207a65726f206164647265737345524332303a207472616e736665722066726f6d20746865207a65726f206164647265737345524332303a20617070726f76652066726f6d20746865207a65726f206164647265737345524332303a2064656372656173656420616c6c6f77616e63652062656c6f77207a65726fa264697066735822122083ca872504785715126f017a27bb0c9f63a61ef3b542c204f2c36ad9602fc5b564736f6c63430007060033",
  "devdoc": {
    "kind": "dev",
    "methods": {},
    "version": 1
  },
  "userdoc": {
    "kind": "user",
    "methods": {},
    "version": 1
  },
  "storageLayout": {
    "storage": [
      {
        "astId": 15946,
        "contract": "contracts/routers/FastRouter.sol:FastRouter",
        "label": "bitcoinFastPool",
        "offset": 0,
        "slot": "0",
        "type": "t_address"
      },
      {
        "astId": 15949,
        "contract": "contracts/routers/FastRouter.sol:FastRouter",
        "label": "ccTransferRouter",
        "offset": 0,
        "slot": "1",
        "type": "t_address"
      },
      {
        "astId": 15951,
        "contract": "contracts/routers/FastRouter.sol:FastRouter",
        "label": "wrappedBitcoin",
        "offset": 0,
        "slot": "2",
        "type": "t_address"
      },
      {
        "astId": 15954,
        "contract": "contracts/routers/FastRouter.sol:FastRouter",
        "label": "owner",
        "offset": 0,
        "slot": "3",
        "type": "t_address"
      }
    ],
    "types": {
      "t_address": {
        "encoding": "inplace",
        "label": "address",
        "numberOfBytes": "20"
      }
    }
  }
}