{
  "address": "0x2a19eb9146DB64dc8cbCdD8Ff77cFB3204118362",
  "abi": [
    {
      "inputs": [
        {
          "internalType": "address",
          "name": "_teleBTC",
          "type": "address"
        },
        {
          "internalType": "address",
          "name": "_relay",
          "type": "address"
        },
        {
          "internalType": "address",
          "name": "_priceOracle",
          "type": "address"
        },
        {
          "internalType": "address",
          "name": "_collateralPoolFactory",
          "type": "address"
        },
        {
          "internalType": "uint256",
          "name": "_slasherPercentageReward",
          "type": "uint256"
        },
        {
          "internalType": "uint256",
          "name": "_paybackDeadline",
          "type": "uint256"
        }
      ],
      "stateMutability": "nonpayable",
      "type": "constructor"
    },
    {
      "anonymous": false,
      "inputs": [
        {
          "indexed": true,
          "internalType": "address",
          "name": "user",
          "type": "address"
        },
        {
          "indexed": false,
          "internalType": "address",
          "name": "receiver",
          "type": "address"
        },
        {
          "indexed": false,
          "internalType": "uint256",
          "name": "loanAmount",
          "type": "uint256"
        },
        {
          "indexed": false,
          "internalType": "uint256",
          "name": "instantFee",
          "type": "uint256"
        },
        {
          "indexed": false,
          "internalType": "uint256",
          "name": "amountOut",
          "type": "uint256"
        },
        {
          "indexed": false,
          "internalType": "address[]",
          "name": "path",
          "type": "address[]"
        },
        {
          "indexed": false,
          "internalType": "bool",
          "name": "isFixed",
          "type": "bool"
        },
        {
          "indexed": true,
          "internalType": "uint256",
          "name": "deadline",
          "type": "uint256"
        },
        {
          "indexed": true,
          "internalType": "address",
          "name": "collateralToken",
          "type": "address"
        }
      ],
      "name": "InstantExchange",
      "type": "event"
    },
    {
      "anonymous": false,
      "inputs": [
        {
          "indexed": true,
          "internalType": "address",
          "name": "user",
          "type": "address"
        },
        {
          "indexed": false,
          "internalType": "address",
          "name": "receiver",
          "type": "address"
        },
        {
          "indexed": false,
          "internalType": "uint256",
          "name": "loanAmount",
          "type": "uint256"
        },
        {
          "indexed": false,
          "internalType": "uint256",
          "name": "instantFee",
          "type": "uint256"
        },
        {
          "indexed": true,
          "internalType": "uint256",
          "name": "deadline",
          "type": "uint256"
        },
        {
          "indexed": true,
          "internalType": "address",
          "name": "collateralToken",
          "type": "address"
        }
      ],
      "name": "InstantTransfer",
      "type": "event"
    },
    {
      "anonymous": false,
      "inputs": [
        {
          "indexed": true,
          "internalType": "address",
          "name": "previousOwner",
          "type": "address"
        },
        {
          "indexed": true,
          "internalType": "address",
          "name": "newOwner",
          "type": "address"
        }
      ],
      "name": "OwnershipTransferred",
      "type": "event"
    },
    {
      "anonymous": false,
      "inputs": [
        {
          "indexed": true,
          "internalType": "address",
          "name": "user",
          "type": "address"
        },
        {
          "indexed": false,
          "internalType": "uint256",
          "name": "paybackAmount",
          "type": "uint256"
        },
        {
          "indexed": true,
          "internalType": "address",
          "name": "collateralToken",
          "type": "address"
        },
        {
          "indexed": false,
          "internalType": "uint256",
          "name": "lockedCollateralPoolToken",
          "type": "uint256"
        }
      ],
      "name": "PaybackLoan",
      "type": "event"
    },
    {
      "anonymous": false,
      "inputs": [
        {
          "indexed": true,
          "internalType": "address",
          "name": "user",
          "type": "address"
        },
        {
          "indexed": true,
          "internalType": "address",
          "name": "collateralToken",
          "type": "address"
        },
        {
          "indexed": false,
          "internalType": "uint256",
          "name": "slashedAmount",
          "type": "uint256"
        },
        {
          "indexed": false,
          "internalType": "uint256",
          "name": "paybackAmount",
          "type": "uint256"
        }
      ],
      "name": "SlashUser",
      "type": "event"
    },
    {
      "inputs": [],
      "name": "collateralPoolFactory",
      "outputs": [
        {
          "internalType": "address",
          "name": "",
          "type": "address"
        }
      ],
      "stateMutability": "view",
      "type": "function"
    },
    {
      "inputs": [
        {
          "internalType": "address",
          "name": "_user",
          "type": "address"
        },
        {
          "internalType": "uint256",
          "name": "_index",
          "type": "uint256"
        }
      ],
      "name": "getLockedCollateralPoolTokenAmount",
      "outputs": [
        {
          "internalType": "uint256",
          "name": "",
          "type": "uint256"
        }
      ],
      "stateMutability": "view",
      "type": "function"
    },
    {
      "inputs": [
        {
          "internalType": "address",
          "name": "_user",
          "type": "address"
        },
        {
          "internalType": "uint256",
          "name": "_index",
          "type": "uint256"
        }
      ],
      "name": "getUserRequestDeadline",
      "outputs": [
        {
          "internalType": "uint256",
          "name": "",
          "type": "uint256"
        }
      ],
      "stateMutability": "view",
      "type": "function"
    },
    {
      "inputs": [
        {
          "internalType": "address",
          "name": "_user",
          "type": "address"
        }
      ],
      "name": "getUserRequestsLength",
      "outputs": [
        {
          "internalType": "uint256",
          "name": "",
          "type": "uint256"
        }
      ],
      "stateMutability": "view",
      "type": "function"
    },
    {
      "inputs": [
        {
          "internalType": "address",
          "name": "_exchangeConnector",
          "type": "address"
        },
        {
          "internalType": "address",
          "name": "_receiver",
          "type": "address"
        },
        {
          "internalType": "uint256",
          "name": "_loanAmount",
          "type": "uint256"
        },
        {
          "internalType": "uint256",
          "name": "_amountOut",
          "type": "uint256"
        },
        {
          "internalType": "address[]",
          "name": "_path",
          "type": "address[]"
        },
        {
          "internalType": "uint256",
          "name": "_deadline",
          "type": "uint256"
        },
        {
          "internalType": "address",
          "name": "_collateralToken",
          "type": "address"
        },
        {
          "internalType": "bool",
          "name": "_isFixedToken",
          "type": "bool"
        }
      ],
      "name": "instantCCExchange",
      "outputs": [
        {
          "internalType": "uint256[]",
          "name": "",
          "type": "uint256[]"
        }
      ],
      "stateMutability": "nonpayable",
      "type": "function"
    },
    {
      "inputs": [
        {
          "internalType": "address",
          "name": "_receiver",
          "type": "address"
        },
        {
          "internalType": "uint256",
          "name": "_loanAmount",
          "type": "uint256"
        },
        {
          "internalType": "uint256",
          "name": "_deadline",
          "type": "uint256"
        },
        {
          "internalType": "address",
          "name": "_collateralToken",
          "type": "address"
        }
      ],
      "name": "instantCCTransfer",
      "outputs": [
        {
          "internalType": "bool",
          "name": "",
          "type": "bool"
        }
      ],
      "stateMutability": "nonpayable",
      "type": "function"
    },
    {
      "inputs": [
        {
          "internalType": "address",
          "name": "",
          "type": "address"
        },
        {
          "internalType": "uint256",
          "name": "",
          "type": "uint256"
        }
      ],
      "name": "instantRequests",
      "outputs": [
        {
          "internalType": "address",
          "name": "user",
          "type": "address"
        },
        {
          "internalType": "address",
          "name": "collateralPool",
          "type": "address"
        },
        {
          "internalType": "address",
          "name": "collateralToken",
          "type": "address"
        },
        {
          "internalType": "uint256",
          "name": "paybackAmount",
          "type": "uint256"
        },
        {
          "internalType": "uint256",
          "name": "lockedCollateralPoolTokenAmount",
          "type": "uint256"
        },
        {
          "internalType": "uint256",
          "name": "deadline",
          "type": "uint256"
        }
      ],
      "stateMutability": "view",
      "type": "function"
    },
    {
      "inputs": [],
      "name": "owner",
      "outputs": [
        {
          "internalType": "address",
          "name": "",
          "type": "address"
        }
      ],
      "stateMutability": "view",
      "type": "function"
    },
    {
      "inputs": [
        {
          "internalType": "address",
          "name": "_user",
          "type": "address"
        },
        {
          "internalType": "uint256",
          "name": "_teleBTCAmount",
          "type": "uint256"
        }
      ],
      "name": "payBackLoan",
      "outputs": [
        {
          "internalType": "bool",
          "name": "",
          "type": "bool"
        }
      ],
      "stateMutability": "nonpayable",
      "type": "function"
    },
    {
      "inputs": [],
      "name": "paybackDeadline",
      "outputs": [
        {
          "internalType": "uint256",
          "name": "",
          "type": "uint256"
        }
      ],
      "stateMutability": "view",
      "type": "function"
    },
    {
      "inputs": [],
      "name": "priceOracle",
      "outputs": [
        {
          "internalType": "address",
          "name": "",
          "type": "address"
        }
      ],
      "stateMutability": "view",
      "type": "function"
    },
    {
      "inputs": [],
      "name": "relay",
      "outputs": [
        {
          "internalType": "address",
          "name": "",
          "type": "address"
        }
      ],
      "stateMutability": "view",
      "type": "function"
    },
    {
      "inputs": [],
      "name": "renounceOwnership",
      "outputs": [],
      "stateMutability": "nonpayable",
      "type": "function"
    },
    {
      "inputs": [
        {
          "internalType": "uint256",
          "name": "_paybackDeadline",
          "type": "uint256"
        }
      ],
      "name": "setPaybackDeadline",
      "outputs": [],
      "stateMutability": "nonpayable",
      "type": "function"
    },
    {
      "inputs": [
        {
          "internalType": "uint256",
          "name": "_slasherPercentageReward",
          "type": "uint256"
        }
      ],
      "name": "setSlasherPercentageReward",
      "outputs": [],
      "stateMutability": "nonpayable",
      "type": "function"
    },
    {
      "inputs": [
        {
          "internalType": "address",
          "name": "_teleBTCInstantPool",
          "type": "address"
        }
      ],
      "name": "setTeleBTCInstantPool",
      "outputs": [],
      "stateMutability": "nonpayable",
      "type": "function"
    },
    {
      "inputs": [
        {
          "internalType": "address",
          "name": "_exchangeRouter",
          "type": "address"
        },
        {
          "internalType": "address",
          "name": "_user",
          "type": "address"
        },
        {
          "internalType": "uint256",
          "name": "_requestIndex",
          "type": "uint256"
        }
      ],
      "name": "slashUser",
      "outputs": [
        {
          "internalType": "bool",
          "name": "",
          "type": "bool"
        }
      ],
      "stateMutability": "nonpayable",
      "type": "function"
    },
    {
      "inputs": [],
      "name": "slasherPercentageReward",
      "outputs": [
        {
          "internalType": "uint256",
          "name": "",
          "type": "uint256"
        }
      ],
      "stateMutability": "view",
      "type": "function"
    },
    {
      "inputs": [],
      "name": "teleBTC",
      "outputs": [
        {
          "internalType": "address",
          "name": "",
          "type": "address"
        }
      ],
      "stateMutability": "view",
      "type": "function"
    },
    {
      "inputs": [],
      "name": "teleBTCInstantPool",
      "outputs": [
        {
          "internalType": "address",
          "name": "",
          "type": "address"
        }
      ],
      "stateMutability": "view",
      "type": "function"
    },
    {
      "inputs": [
        {
          "internalType": "address",
          "name": "newOwner",
          "type": "address"
        }
      ],
      "name": "transferOwnership",
      "outputs": [],
      "stateMutability": "nonpayable",
      "type": "function"
    }
  ],
  "transactionHash": "0x00023adf78b4dd6c5644877bc6ee96571263df363873f9752fed05b03e8c8bc8",
  "args": [
    "0xE9B3d12D7254Bb86DF10c2f03C98ee4B17598abc",
    "0x8ed36B08134B84698C898f0A4314905e1cA7aE1d",
    "0x1562A83dB2d6A7DAf652EbD8dD497DE4e68E6717",
    "0xBc6aCDe2c0E9BC472f4e0808Af5cCf62698a7a8C",
    10,
    12
  ],
  "numDeployments": 1,
  "solcInputHash": "e12c7c9cd263aabdb11ed9046c0bd066",
  "bytecode": "0x60806040523480156200001157600080fd5b5060405162002e0a38038062002e0a83398101604081905262000034916200010d565b6200003f33620000a0565b60018055600580546001600160a01b039788166001600160a01b03199182161790915560078054968816968216969096179095556008805494871694861694909417909355600980549290951691909316179092556003556004556200017b565b600080546001600160a01b038381166001600160a01b0319831681178455604051919092169283917f8be0079c531659141344cd1fd0a4f28419497f9722a3daafe3b4186f6b6457e09190a35050565b80516001600160a01b03811681146200010857600080fd5b919050565b60008060008060008060c0878903121562000126578182fd5b6200013187620000f0565b95506200014160208801620000f0565b94506200015160408801620000f0565b93506200016160608801620000f0565b92506080870151915060a087015190509295509295509295565b612c7f806200018b6000396000f3fe608060405234801561001057600080fd5b50600436106101375760003560e01c80636f6ef7c9116100b857806397091b891161007c57806397091b891461028c578063a36be9a1146102dd578063b59589d1146102e6578063b701b1cf146102f9578063db1cb5581461030c578063f2fde38b1461031f57610137565b80636f6ef7c91461022d578063715018a61461024d578063763360db146102555780638d3d78cd146102685780638da5cb5b1461027b57610137565b80634782bc36116100ff5780634782bc36146101be5780634cf46825146101d15780634d61878e146101e457806369539c70146101f7578063697380b21461020a57610137565b8063059d02381461013c5780632630c12f14610151578063387bb22d14610181578063419cba7f146101a257806346e897fd146101ab575b600080fd5b61014f61014a366004612607565b610332565b005b600854610164906001600160a01b031681565b6040516001600160a01b0390911681526020015b60405180910390f35b61019461018f366004612607565b610387565b604051908152602001610178565b61019460035481565b600654610164906001600160a01b031681565b61014f6101cc3660046128ef565b6103a6565b61014f6101df3660046128ef565b6103d5565b6101946101f236600461278b565b610404565b61019461020536600461278b565b610456565b61021d6102183660046127b6565b6104a8565b6040519015158152602001610178565b61024061023b366004612686565b6106e6565b60405161017891906129cb565b61014f610b41565b600954610164906001600160a01b031681565b600554610164906001600160a01b031681565b6000546001600160a01b0316610164565b61029f61029a36600461278b565b610b77565b604080516001600160a01b039788168152958716602087015293909516928401929092526060830152608082015260a081019190915260c001610178565b61019460045481565b600754610164906001600160a01b031681565b61021d610307366004612646565b610bd8565b61021d61031a36600461278b565b61168e565b61014f61032d366004612607565b611cc5565b6000546001600160a01b031633146103655760405162461bcd60e51b815260040161035c90612a51565b60405180910390fd5b600680546001600160a01b0319166001600160a01b0392909216919091179055565b6001600160a01b0381166000908152600260205260409020545b919050565b6000546001600160a01b031633146103d05760405162461bcd60e51b815260040161035c90612a51565b600355565b6000546001600160a01b031633146103ff5760405162461bcd60e51b815260040161035c90612a51565b600455565b6001600160a01b038216600090815260026020526040812080548390811061043c57634e487b7160e01b600052603260045260246000fd5b906000526020600020906006020160050154905092915050565b6001600160a01b038216600090815260026020526040812080548390811061048e57634e487b7160e01b600052603260045260246000fd5b906000526020600020906006020160040154905092915050565b6000600260015414156104cd5760405162461bcd60e51b815260040161035c90612a86565b6002600155428310156104f25760405162461bcd60e51b815260040161035c90612a0f565b600061271085600660009054906101000a90046001600160a01b03166001600160a01b031663e49bce3c6040518163ffffffff1660e01b815260040160206040518083038186803b15801561054657600080fd5b505afa15801561055a573d6000803e3d6000fd5b505050506040513d601f19601f8201168201806040525081019061057e9190612907565b6105889190612b92565b6105929190612b72565b90506105a8336105a28388612b5a565b85611d60565b506006546040516350e28ac360e11b81526001600160a01b038881166004830152602482018890529091169063a1c5158690604401602060405180830381600087803b1580156105f757600080fd5b505af115801561060b573d6000803e3d6000fd5b505050506040513d601f19601f8201168201806040525081019061062f91906127ff565b5033600090815260026020526040902080546001600160a01b038516919061065990600190612bb1565b8154811061067757634e487b7160e01b600052603260045260246000fd5b600091825260209182902060056006909202010154604080516001600160a01b038b16815292830189905282018490529033907f0b2045d07f2d7eb237fca6d4f5f6f90d2862df59632c726bb4c5aacca23bf01e9060600160405180910390a450506001808055949350505050565b60606002600154141561070b5760405162461bcd60e51b815260040161035c90612a86565b6002600155428410156107305760405162461bcd60e51b815260040161035c90612a0f565b60055485516001600160a01b0390911690869060009061076057634e487b7160e01b600052603260045260246000fd5b60200260200101516001600160a01b0316146107ce5760405162461bcd60e51b815260206004820152602760248201527f496e7374616e74526f757465723a20696e70757420746f6b656e206973206e6f6044820152661d081d985b1a5960ca1b606482015260840161035c565b600061271088600660009054906101000a90046001600160a01b03166001600160a01b031663e49bce3c6040518163ffffffff1660e01b815260040160206040518083038186803b15801561082257600080fd5b505afa158015610836573d6000803e3d6000fd5b505050506040513d601f19601f8201168201806040525081019061085a9190612907565b6108649190612b92565b61086e9190612b72565b90506108843361087e838b612b5a565b86611d60565b506006546040516350e28ac360e11b8152306004820152602481018a90526001600160a01b039091169063a1c5158690604401602060405180830381600087803b1580156108d157600080fd5b505af11580156108e5573d6000803e3d6000fd5b505050506040513d601f19601f8201168201806040525081019061090991906127ff565b5060055460405163095ea7b360e01b81526001600160a01b038c81166004830152602482018b90529091169063095ea7b390604401602060405180830381600087803b15801561095857600080fd5b505af115801561096c573d6000803e3d6000fd5b505050506040513d601f19601f8201168201806040525081019061099091906127ff565b506000808b6001600160a01b031663b0bbcd888b8b8b8f8c8b6040518763ffffffff1660e01b81526004016109ca96959493929190612abd565b600060405180830381600087803b1580156109e457600080fd5b505af11580156109f8573d6000803e3d6000fd5b505050506040513d6000823e601f3d908101601f19168201604052610a20919081019061281b565b9092509050600182151514610a8a5760405162461bcd60e51b815260206004820152602a60248201527f496e7374616e74526f757465723a2065786368616e676520776173206e6f74206044820152691cdd58d8d95cdcd99d5b60b21b606482015260840161035c565b33600090815260026020526040902080546001600160a01b0388169190610ab390600190612bb1565b81548110610ad157634e487b7160e01b600052603260045260246000fd5b906000526020600020906006020160050154336001600160a01b03167fd828a9b1563fcc52e2c0a608016ad8117306786d7adf9a7810dd683103cb1a5d8e8e888f8f8d604051610b2696959493929190612983565b60405180910390a4600180559b9a5050505050505050505050565b6000546001600160a01b03163314610b6b5760405162461bcd60e51b815260040161035c90612a51565b610b75600061235c565b565b60026020528160005260406000208181548110610b9357600080fd5b60009182526020909120600690910201805460018201546002830154600384015460048501546005909501546001600160a01b03948516975092841695509216929086565b600060026001541415610bfd5760405162461bcd60e51b815260040161035c90612a86565b600260015560085460405163d86faec760e01b81526001600160a01b038681166004830152600092169063d86faec79060240160206040518083038186803b158015610c4857600080fd5b505afa158015610c5c573d6000803e3d6000fd5b505050506040513d601f19601f82011682018060405250810190610c80919061262a565b90506001600160a01b038116610cf45760405162461bcd60e51b815260206004820152603360248201527f496e7374616e74526f757465723a2065786368616e676520636f6e6e6563746f60448201527272206973206e6f742061636365707461626c6560681b606482015260840161035c565b6001600160a01b0384166000908152600260205260409020548310610d6f5760405162461bcd60e51b815260206004820152602b60248201527f496e7374616e74526f757465723a207265717565737420696e64657820646f6560448201526a1cc81b9bdd08195e1a5cdd60aa1b606482015260840161035c565b600754604080516302f796d960e41b815290516000926001600160a01b031691632f796d90916004808301926020929190829003018186803b158015610db457600080fd5b505afa158015610dc8573d6000803e3d6000fd5b505050506040513d601f19601f82011682018060405250810190610dec9190612907565b6001600160a01b03861660009081526002602052604090208054919250829186908110610e2957634e487b7160e01b600052603260045260246000fd5b90600052602060002090600602016005015410610e9b5760405162461bcd60e51b815260206004820152602a60248201527f496e7374616e74526f757465723a20646561646c696e6520686173206e6f74206044820152691c185cdcd959081e595d60b21b606482015260840161035c565b6001600160a01b0385166000908152600260205260408120805486908110610ed357634e487b7160e01b600052603260045260246000fd5b9060005260206000209060060201600401549050600060026000886001600160a01b03166001600160a01b031681526020019081526020016000208681548110610f2d57634e487b7160e01b600052603260045260246000fd5b6000918252602080832060026006909302018201546001600160a01b038b81168552929091526040832080549290911693509088908110610f7e57634e487b7160e01b600052603260045260246000fd5b60009182526020808320600160069093020191909101546001600160a01b038b8116845260029092526040832080549290911693509089908110610fd257634e487b7160e01b600052603260045260246000fd5b60009182526020822060069190910201600301546005546040516322620c1d60e21b8152600481018390526001600160a01b03878116602483015291821660448201529193508291908916906389883074906064016040805180830381600087803b15801561104057600080fd5b505af1158015611054573d6000803e3d6000fd5b505050506040513d601f19601f8201168201806040525081019061107891906128c2565b60405163392f2ddd60e01b81526004810189905291935091506000906001600160a01b0386169063392f2ddd9060240160206040518083038186803b1580156110c057600080fd5b505afa1580156110d4573d6000803e3d6000fd5b505050506040513d601f19601f820116820180604052508101906110f89190612907565b6040805160028082526060820183529293506000929091602083019080368337019050509050868160008151811061114057634e487b7160e01b600052603260045260246000fd5b6001600160a01b03928316602091820292909201015260055482519116908290600190811061117f57634e487b7160e01b600052603260045260246000fd5b6001600160a01b039283166020918202929092010152604051630646f82b60e31b8152600481018a905290871690633237c15890602401602060405180830381600087803b1580156111d057600080fd5b505af11580156111e4573d6000803e3d6000fd5b505050506040513d601f19601f8201168201806040525081019061120891906127ff565b5082821015801561121b57506001841515145b156114f05760405163095ea7b360e01b81526001600160a01b038b811660048301526024820185905288169063095ea7b390604401602060405180830381600087803b15801561126a57600080fd5b505af115801561127e573d6000803e3d6000fd5b505050506040513d601f19601f820116820180604052508101906112a291906127ff565b506006546001600160a01b03808c169163b0bbcd8891869189918691166112ca426001612b5a565b60006040518763ffffffff1660e01b81526004016112ed96959493929190612abd565b600060405180830381600087803b15801561130757600080fd5b505af115801561131b573d6000803e3d6000fd5b505050506040513d6000823e601f3d908101601f19168201604052611343919081019061281b565b50506000606460035485856113589190612bb1565b6113629190612b92565b61136c9190612b72565b60405163a9059cbb60e01b8152336004820152602481018290529091506001600160a01b0389169063a9059cbb90604401602060405180830381600087803b1580156113b757600080fd5b505af11580156113cb573d6000803e3d6000fd5b505050506040513d601f19601f820116820180604052508101906113ef91906127ff565b506001600160a01b038716636d75b9ee8f8361140b8888612bb1565b6114159190612bb1565b6040516001600160e01b031960e085901b1681526001600160a01b0390921660048301526024820152604401602060405180830381600087803b15801561145b57600080fd5b505af115801561146f573d6000803e3d6000fd5b505050506040513d601f19601f8201168201806040525081019061149391906127ff565b50876001600160a01b03168e6001600160a01b03167f02328bbf482c913c71ddadcaf039f13cdb6499e9341bfa670de43de6f2fc35a086896040516114e2929190918252602082015260400190565b60405180910390a35061166d565b60405163095ea7b360e01b81526001600160a01b038b811660048301526024820184905288169063095ea7b390604401602060405180830381600087803b15801561153a57600080fd5b505af115801561154e573d6000803e3d6000fd5b505050506040513d601f19601f8201168201806040525081019061157291906127ff565b506006546001600160a01b03808c169163b0bbcd8891859160009186911661159b426001612b5a565b60016040518763ffffffff1660e01b81526004016115be96959493929190612abd565b600060405180830381600087803b1580156115d857600080fd5b505af11580156115ec573d6000803e3d6000fd5b505050506040513d6000823e601f3d908101601f19168201604052611614919081019061281b565b5050866001600160a01b03168d6001600160a01b03167f02328bbf482c913c71ddadcaf039f13cdb6499e9341bfa670de43de6f2fc35a08488604051611664929190918252602082015260400190565b60405180910390a35b6116778d8d6123ac565b505060018080559c9b505050505050505050505050565b6000600260015414156116b35760405162461bcd60e51b815260040161035c90612a86565b6002600155600754604080516302f796d960e41b8152905184926000926001600160a01b0390911691632f796d9091600480820192602092909190829003018186803b15801561170257600080fd5b505afa158015611716573d6000803e3d6000fd5b505050506040513d601f19601f8201168201806040525081019061173a9190612907565b905060015b6001600160a01b0386166000908152600260205260409020548111611c22576001600160a01b0386166000908152600260205260409020611781600183612bb1565b8154811061179f57634e487b7160e01b600052603260045260246000fd5b906000526020600020906006020160030154831015801561181357506001600160a01b038616600090815260026020526040902082906117e0600184612bb1565b815481106117fe57634e487b7160e01b600052603260045260246000fd5b90600052602060002090600602016005015410155b15611c06576001600160a01b038616600090815260026020526040902061183b600183612bb1565b8154811061185957634e487b7160e01b600052603260045260246000fd5b906000526020600020906006020160030154836118769190612bb1565b6005546006546001600160a01b038981166000908152600260205260409020939650918216926323b872dd92339216906118b1600187612bb1565b815481106118cf57634e487b7160e01b600052603260045260246000fd5b60009182526020909120600360069092020101546040516001600160e01b031960e086901b1681526001600160a01b0393841660048201529290911660248301526044820152606401602060405180830381600087803b15801561193257600080fd5b505af1158015611946573d6000803e3d6000fd5b505050506040513d601f19601f8201168201806040525081019061196a91906127ff565b506001600160a01b038616600090815260026020526040902061198e600183612bb1565b815481106119ac57634e487b7160e01b600052603260045260246000fd5b6000918252602080832060016006909302018201546001600160a01b038a811685526002909252604090932092169163a9059cbb918991906119ee9086612bb1565b81548110611a0c57634e487b7160e01b600052603260045260246000fd5b9060005260206000209060060201600401546040518363ffffffff1660e01b8152600401611a4f9291906001600160a01b03929092168252602082015260400190565b602060405180830381600087803b158015611a6957600080fd5b505af1158015611a7d573d6000803e3d6000fd5b505050506040513d601f19601f82011682018060405250810190611aa191906127ff565b506001600160a01b0386166000908152600260205260409020611ac5600183612bb1565b81548110611ae357634e487b7160e01b600052603260045260246000fd5b6000918252602080832060026006909302018201546001600160a01b038a81168086529390925260409093209216917f343bb576b6b598ba7c85893ea7b9f4c8d595035329a0dd23a96aafabb291519d90611b3f600186612bb1565b81548110611b5d57634e487b7160e01b600052603260045260246000fd5b60009182526020808320600360069093020191909101546001600160a01b038c16835260029091526040909120611b95600187612bb1565b81548110611bb357634e487b7160e01b600052603260045260246000fd5b906000526020600020906006020160040154604051611bdc929190918252602082015260400190565b60405180910390a3611bf886611bf3600184612bb1565b6123ac565b80611c0281612bc8565b9150505b82611c1057611c22565b80611c1a81612bdf565b91505061173f565b508115611cb7576005546040516323b872dd60e01b81523360048201526001600160a01b03878116602483015260448201859052909116906323b872dd90606401602060405180830381600087803b158015611c7d57600080fd5b505af1158015611c91573d6000803e3d6000fd5b505050506040513d601f19601f82011682018060405250810190611cb591906127ff565b505b505060018080559392505050565b6000546001600160a01b03163314611cef5760405162461bcd60e51b815260040161035c90612a51565b6001600160a01b038116611d545760405162461bcd60e51b815260206004820152602660248201527f4f776e61626c653a206e6577206f776e657220697320746865207a65726f206160448201526564647265737360d01b606482015260840161035c565b611d5d8161235c565b50565b6009546040516303b8879560e21b81526001600160a01b0383811660048301526000921690630ee21e549060240160206040518083038186803b158015611da657600080fd5b505afa158015611dba573d6000803e3d6000fd5b505050506040513d601f19601f82011682018060405250810190611dde91906127ff565b611e445760405162461bcd60e51b815260206004820152603160248201527f496e7374616e74526f757465723a20636f6c6c61746572616c20746f6b656e206044820152706973206e6f742061636365707461626c6560781b606482015260840161035c565b600954604051636e2f809f60e11b81526001600160a01b038481166004830152600092169063dc5f013e9060240160206040518083038186803b158015611e8a57600080fd5b505afa158015611e9e573d6000803e3d6000fd5b505050506040513d601f19601f82011682018060405250810190611ec2919061262a565b90506000816001600160a01b031663dcaf9c446040518163ffffffff1660e01b815260040160206040518083038186803b158015611eff57600080fd5b505afa158015611f13573d6000803e3d6000fd5b505050506040513d601f19601f82011682018060405250810190611f379190612907565b6008546005546040805163313ce56760e01b815290519394506000936001600160a01b03938416936316fac92a938b9391169163313ce56791600480820192602092909190829003018186803b158015611f9057600080fd5b505afa158015611fa4573d6000803e3d6000fd5b505050506040513d601f19601f82011682018060405250810190611fc8919061291f565b886001600160a01b031663313ce5676040518163ffffffff1660e01b815260040160206040518083038186803b15801561200157600080fd5b505afa158015612015573d6000803e3d6000fd5b505050506040513d601f19601f82011682018060405250810190612039919061291f565b60055460405160e086901b6001600160e01b0319168152600481019490945260ff9283166024850152911660448301526001600160a01b0390811660648301528816608482015260a40160206040518083038186803b15801561209b57600080fd5b505afa1580156120af573d6000803e3d6000fd5b505050506040513d601f19601f820116820180604052508101906120d39190612907565b9050600060646120e38484612b92565b6120ed9190612b72565b6040516309fad23760e11b8152600481018290529091506000906001600160a01b038616906313f5a46e9060240160206040518083038186803b15801561213357600080fd5b505afa158015612147573d6000803e3d6000fd5b505050506040513d601f19601f8201168201806040525081019061216b9190612907565b6040516323b872dd60e01b81526001600160a01b038b8116600483015230602483015260448201839052919250908616906323b872dd90606401602060405180830381600087803b1580156121bf57600080fd5b505af11580156121d3573d6000803e3d6000fd5b505050506040513d601f19601f820116820180604052508101906121f791906127ff565b506040805160c081018252600060a08201526001600160a01b038b81168252606082018b9052608082018490528781166020808401919091528a8216838501526004805460075486516302f796d960e41b8152965195969195941693632f796d9093828401939092829003018186803b15801561227357600080fd5b505afa158015612287573d6000803e3d6000fd5b505050506040513d601f19601f820116820180604052508101906122ab9190612907565b6122b59190612b5a565b60a082019081526001600160a01b03808c16600090815260026020818152604080842080546001818101835591865294839020885160069096020180549587166001600160a01b03199687161781559288015183820180549188169187169190911790559087015192820180549390951692909316919091179092556060840151600383015560809093015160048201559051600590910155955050505050509392505050565b600080546001600160a01b038381166001600160a01b0319831681178455604051919092169283917f8be0079c531659141344cd1fd0a4f28419497f9722a3daafe3b4186f6b6457e09190a35050565b6001600160a01b038216600090815260026020526040902054811061241f5760405162461bcd60e51b8152602060048201526024808201527f496e7374616e74526f757465723a20696e646578206973206f7574206f6620626044820152631bdd5b9960e21b606482015260840161035c565b805b6001600160a01b03831660009081526002602052604090205461244690600190612bb1565b811015612569576001600160a01b0383166000908152600260205260409020612470826001612b5a565b8154811061248e57634e487b7160e01b600052603260045260246000fd5b906000526020600020906006020160026000856001600160a01b03166001600160a01b0316815260200190815260200160002082815481106124e057634e487b7160e01b600052603260045260246000fd5b60009182526020909120825460069092020180546001600160a01b039283166001600160a01b0319918216178255600180850154908301805491851691831691909117905560028085015490830180549190941691161790915560038083015490820155600480830154908201556005918201549101558061256181612bdf565b915050612421565b506001600160a01b038216600090815260026020526040902080548061259f57634e487b7160e01b600052603160045260246000fd5b60008281526020812060066000199093019283020180546001600160a01b0319908116825560018201805482169055600282018054909116905560038101829055600481018290556005015590555050565b80356103a181612c26565b80356103a181612c3b565b600060208284031215612618578081fd5b813561262381612c26565b9392505050565b60006020828403121561263b578081fd5b815161262381612c26565b60008060006060848603121561265a578182fd5b833561266581612c26565b9250602084013561267581612c26565b929592945050506040919091013590565b600080600080600080600080610100898b0312156126a2578384fd5b88356126ad81612c26565b97506020898101356126be81612c26565b975060408a0135965060608a0135955060808a013567ffffffffffffffff8111156126e7578586fd5b8a01601f81018c136126f7578586fd5b803561270a61270582612b36565b612b05565b8082825284820191508484018f86878602870101111561272857898afd5b8994505b8385101561275357803561273f81612c26565b83526001949094019391850191850161272c565b50975050505060a08a0135935061276e905060c08a016125f1565b915061277c60e08a016125fc565b90509295985092959890939650565b6000806040838503121561279d578182fd5b82356127a881612c26565b946020939093013593505050565b600080600080608085870312156127cb578384fd5b84356127d681612c26565b9350602085013592506040850135915060608501356127f481612c26565b939692955090935050565b600060208284031215612810578081fd5b815161262381612c3b565b6000806040838503121561282d578182fd5b825161283881612c3b565b8092505060208084015167ffffffffffffffff811115612856578283fd5b8401601f81018613612866578283fd5b805161287461270582612b36565b81815283810190838501858402850186018a1015612890578687fd5b8694505b838510156128b2578051835260019490940193918501918501612894565b5080955050505050509250929050565b600080604083850312156128d4578182fd5b82516128df81612c3b565b6020939093015192949293505050565b600060208284031215612900578081fd5b5035919050565b600060208284031215612918578081fd5b5051919050565b600060208284031215612930578081fd5b815160ff81168114612623578182fd5b6000815180845260208085019450808401835b838110156129785781516001600160a01b031687529582019590820190600101612953565b509495945050505050565b600060018060a01b038816825286602083015285604083015284606083015260c060808301526129b660c0830185612940565b905082151560a0830152979650505050505050565b6020808252825182820181905260009190848201906040850190845b81811015612a03578351835292840192918401916001016129e7565b50909695505050505050565b60208082526022908201527f496e7374616e74526f757465723a20646561646c696e65206861732070617373604082015261195960f21b606082015260800190565b6020808252818101527f4f776e61626c653a2063616c6c6572206973206e6f7420746865206f776e6572604082015260600190565b6020808252601f908201527f5265656e7472616e637947756172643a207265656e7472616e742063616c6c00604082015260600190565b600087825286602083015260c06040830152612adc60c0830187612940565b6001600160a01b03959095166060830152506080810192909252151560a0909101529392505050565b604051601f8201601f1916810167ffffffffffffffff81118282101715612b2e57612b2e612c10565b604052919050565b600067ffffffffffffffff821115612b5057612b50612c10565b5060209081020190565b60008219821115612b6d57612b6d612bfa565b500190565b600082612b8d57634e487b7160e01b81526012600452602481fd5b500490565b6000816000190483118215151615612bac57612bac612bfa565b500290565b600082821015612bc357612bc3612bfa565b500390565b600081612bd757612bd7612bfa565b506000190190565b6000600019821415612bf357612bf3612bfa565b5060010190565b634e487b7160e01b600052601160045260246000fd5b634e487b7160e01b600052604160045260246000fd5b6001600160a01b0381168114611d5d57600080fd5b8015158114611d5d57600080fdfea2646970667358221220f9dea155e23cb2d7313c497a43a4cba29c7e2476400d9da84aaec37f6717178d64736f6c63430008020033",
  "devdoc": {
    "kind": "dev",
    "methods": {
      "constructor": {
        "details": "It manages instant pool contract",
        "params": {
          "_collateralPoolFactory": "Address of relay contract",
          "_paybackDeadline": "Dealine of paying back the borrowed tokens from instant pool",
          "_priceOracle": "Address of collateral pool factory contract",
          "_relay": "Address of price oracle contract",
          "_slasherPercentageReward": "Percentage of total collateral that goes to slasher",
          "_teleBTC": "Address of teleBTC contract"
        }
      },
      "getLockedCollateralPoolTokenAmount(address,uint256)": {
        "params": {
          "_index": "Number of the instant request",
          "_user": "Address of the user"
        },
        "returns": {
          "_0": "Amount of locked collateral"
        }
      },
      "getUserRequestDeadline(address,uint256)": {
        "params": {
          "_index": "Index of the request in user request list",
          "_user": "Address of the user"
        },
        "returns": {
          "_0": "The deadline of that request"
        }
      },
      "getUserRequestsLength(address)": {
        "params": {
          "_user": "Address of the user"
        },
        "returns": {
          "_0": "The total number of user's requests"
        }
      },
      "instantCCExchange(address,address,uint256,uint256,address[],uint256,address,bool)": {
        "details": "Locks the required collateral amount of the user",
        "params": {
          "_amountOut": "Amount of the output token",
          "_collateralToken": "Address of collateral token",
          "_deadline": "Deadline of getting the loan",
          "_isFixedToken": "Shows whether input or output is fixed in exchange",
          "_loanAmount": "Amount of the loan",
          "_path": "Path of exchanging tokens",
          "_receiver": "Address of the loan receiver"
        },
        "returns": {
          "_0": ""
        }
      },
      "instantCCTransfer(address,uint256,uint256,address)": {
        "details": "Transfes required collateral pool token of user to itself",
        "params": {
          "_collateralToken": "Address of the collateral token",
          "_deadline": "Deadline of getting the loan",
          "_loanAmount": "Amount of the loan",
          "_receiver": "Address of the loan receiver"
        },
        "returns": {
          "_0": "True if getting loan was successful"
        }
      },
      "owner()": {
        "details": "Returns the address of the current owner."
      },
      "payBackLoan(address,uint256)": {
        "params": {
          "_teleBTCAmount": "Amount of available teleBTC to pay back loans",
          "_user": "Address of the user who wants to pay back loans"
        },
        "returns": {
          "_0": "True if paying back is successful"
        }
      },
      "renounceOwnership()": {
        "details": "Leaves the contract without owner. It will not be possible to call `onlyOwner` functions anymore. Can only be called by the current owner. NOTE: Renouncing ownership will leave the contract without an owner, thereby removing any functionality that is only available to the owner."
      },
      "setPaybackDeadline(uint256)": {
        "details": "Only owner can call this",
        "params": {
          "_paybackDeadline": "The new payback _deadline"
        }
      },
      "setSlasherPercentageReward(uint256)": {
        "details": "Only owner can call this",
        "params": {
          "_slasherPercentageReward": "The new slasher reward"
        }
      },
      "setTeleBTCInstantPool(address)": {
        "details": "Only owner can call this",
        "params": {
          "_teleBTCInstantPool": "The new teleBTC instant pool address"
        }
      },
      "slashUser(address,address,uint256)": {
        "details": "Buys teleBTC using the collateral",
        "params": {
          "_exchangeRouter": "Address of exchange router that is used to exchange collateral tokens to teleBTC",
          "_requestIndex": "Index of the request that have not been paid back before deadline",
          "_user": "Address of the slashed user"
        },
        "returns": {
          "_0": "True if slashing is successful"
        }
      },
      "transferOwnership(address)": {
        "details": "Transfers ownership of the contract to a new account (`newOwner`). Can only be called by the current owner."
      }
    },
    "version": 1
  },
  "userdoc": {
    "events": {
      "InstantExchange(address,address,uint256,uint256,uint256,address[],bool,uint256,address)": {
        "notice": "Emits when a user submits instant exchange request"
      },
      "InstantTransfer(address,address,uint256,uint256,uint256,address)": {
        "notice": "Emits when a user submits instant transfer request"
      },
      "PaybackLoan(address,uint256,address,uint256)": {
        "notice": "Emits when a loan gets paid back"
      },
      "SlashUser(address,address,uint256,uint256)": {
        "notice": "Emits when a user gets slashed"
      }
    },
    "kind": "user",
    "methods": {
      "constructor": {
        "notice": "This contract handles instant transfer and instant exchange requests"
      },
      "getLockedCollateralPoolTokenAmount(address,uint256)": {
        "notice": "Gives the collateral amount corresponding to the request"
      },
      "getUserRequestDeadline(address,uint256)": {
        "notice": "Gives the user request deadline"
      },
      "getUserRequestsLength(address)": {
        "notice": "Gives the total number of user's requests"
      },
      "instantCCExchange(address,address,uint256,uint256,address[],uint256,address,bool)": {
        "notice": "Exchanges the loan amount instantly for the user"
      },
      "instantCCTransfer(address,uint256,uint256,address)": {
        "notice": "Transfers the loan amount to the user"
      },
      "payBackLoan(address,uint256)": {
        "notice": "Settles loans of the user"
      },
      "setPaybackDeadline(uint256)": {
        "notice": "Changes the payback _deadline"
      },
      "setSlasherPercentageReward(uint256)": {
        "notice": "Changes the slasher reward"
      },
      "setTeleBTCInstantPool(address)": {
        "notice": "Sets the teleBTC instant pool address"
      },
      "slashUser(address,address,uint256)": {
        "notice": "Slashes collateral of user who did not pay back loan"
      }
    },
    "version": 1
  },
  "storageLayout": {
    "storage": [
      {
        "astId": 807,
        "contract": "contracts/routers/InstantRouter.sol:InstantRouter",
        "label": "_owner",
        "offset": 0,
        "slot": "0",
        "type": "t_address"
      },
      {
        "astId": 1006,
        "contract": "contracts/routers/InstantRouter.sol:InstantRouter",
        "label": "_status",
        "offset": 0,
        "slot": "1",
        "type": "t_uint256"
      },
      {
        "astId": 16982,
        "contract": "contracts/routers/InstantRouter.sol:InstantRouter",
        "label": "instantRequests",
        "offset": 0,
        "slot": "2",
        "type": "t_mapping(t_address,t_array(t_struct(instantRequest)18537_storage)dyn_storage)"
      },
      {
        "astId": 16985,
        "contract": "contracts/routers/InstantRouter.sol:InstantRouter",
        "label": "slasherPercentageReward",
        "offset": 0,
        "slot": "3",
        "type": "t_uint256"
      },
      {
        "astId": 16988,
        "contract": "contracts/routers/InstantRouter.sol:InstantRouter",
        "label": "paybackDeadline",
        "offset": 0,
        "slot": "4",
        "type": "t_uint256"
      },
      {
        "astId": 16991,
        "contract": "contracts/routers/InstantRouter.sol:InstantRouter",
        "label": "teleBTC",
        "offset": 0,
        "slot": "5",
        "type": "t_address"
      },
      {
        "astId": 16994,
        "contract": "contracts/routers/InstantRouter.sol:InstantRouter",
        "label": "teleBTCInstantPool",
        "offset": 0,
        "slot": "6",
        "type": "t_address"
      },
      {
        "astId": 16997,
        "contract": "contracts/routers/InstantRouter.sol:InstantRouter",
        "label": "relay",
        "offset": 0,
        "slot": "7",
        "type": "t_address"
      },
      {
        "astId": 17000,
        "contract": "contracts/routers/InstantRouter.sol:InstantRouter",
        "label": "priceOracle",
        "offset": 0,
        "slot": "8",
        "type": "t_address"
      },
      {
        "astId": 17003,
        "contract": "contracts/routers/InstantRouter.sol:InstantRouter",
        "label": "collateralPoolFactory",
        "offset": 0,
        "slot": "9",
        "type": "t_address"
      }
    ],
    "types": {
      "t_address": {
        "encoding": "inplace",
        "label": "address",
        "numberOfBytes": "20"
      },
      "t_array(t_struct(instantRequest)18537_storage)dyn_storage": {
        "base": "t_struct(instantRequest)18537_storage",
        "encoding": "dynamic_array",
        "label": "struct IInstantRouter.instantRequest[]",
        "numberOfBytes": "32"
      },
      "t_mapping(t_address,t_array(t_struct(instantRequest)18537_storage)dyn_storage)": {
        "encoding": "mapping",
        "key": "t_address",
        "label": "mapping(address => struct IInstantRouter.instantRequest[])",
        "numberOfBytes": "32",
        "value": "t_array(t_struct(instantRequest)18537_storage)dyn_storage"
      },
      "t_struct(instantRequest)18537_storage": {
        "encoding": "inplace",
        "label": "struct IInstantRouter.instantRequest",
        "members": [
          {
            "astId": 18526,
            "contract": "contracts/routers/InstantRouter.sol:InstantRouter",
            "label": "user",
            "offset": 0,
            "slot": "0",
            "type": "t_address"
          },
          {
            "astId": 18528,
            "contract": "contracts/routers/InstantRouter.sol:InstantRouter",
            "label": "collateralPool",
            "offset": 0,
            "slot": "1",
            "type": "t_address"
          },
          {
            "astId": 18530,
            "contract": "contracts/routers/InstantRouter.sol:InstantRouter",
            "label": "collateralToken",
            "offset": 0,
            "slot": "2",
            "type": "t_address"
          },
          {
            "astId": 18532,
            "contract": "contracts/routers/InstantRouter.sol:InstantRouter",
            "label": "paybackAmount",
            "offset": 0,
            "slot": "3",
            "type": "t_uint256"
          },
          {
            "astId": 18534,
            "contract": "contracts/routers/InstantRouter.sol:InstantRouter",
            "label": "lockedCollateralPoolTokenAmount",
            "offset": 0,
            "slot": "4",
            "type": "t_uint256"
          },
          {
            "astId": 18536,
            "contract": "contracts/routers/InstantRouter.sol:InstantRouter",
            "label": "deadline",
            "offset": 0,
            "slot": "5",
            "type": "t_uint256"
          }
        ],
        "numberOfBytes": "192"
      },
      "t_uint256": {
        "encoding": "inplace",
        "label": "uint256",
        "numberOfBytes": "32"
      }
    }
  }
}