{
  "address": "0x77bf396455E6552cBD5DB2a4ad94d01a4397Deb6",
  "abi": [
    {
      "inputs": [
        {
          "internalType": "address",
          "name": "_ccTransferRouter",
          "type": "address"
        },
        {
          "internalType": "address",
          "name": "_exchangeRouter",
          "type": "address"
        },
        {
          "internalType": "address",
          "name": "_TeleportDAOToken",
          "type": "address"
        },
        {
          "internalType": "address",
          "name": "_liquidityPoolFactory",
          "type": "address"
        },
        {
          "internalType": "address",
          "name": "_staking",
          "type": "address"
        },
        {
          "internalType": "address",
          "name": "_bitcoinRelay",
          "type": "address"
        },
        {
          "internalType": "uint256",
          "name": "_punisherReward",
          "type": "uint256"
        },
        {
          "internalType": "uint256",
          "name": "_paybackDeadline",
          "type": "uint256"
        },
        {
          "internalType": "uint256",
          "name": "_collateralRatio",
          "type": "uint256"
        },
        {
          "internalType": "uint256",
          "name": "_instantFee",
          "type": "uint256"
        }
      ],
      "stateMutability": "nonpayable",
      "type": "constructor"
    },
    {
      "anonymous": false,
      "inputs": [
        {
          "indexed": false,
          "internalType": "address",
          "name": "user",
          "type": "address"
        },
        {
          "indexed": false,
          "internalType": "uint256",
          "name": "bitcoinAmount",
          "type": "uint256"
        }
      ],
      "name": "PaybackInstantLoan",
      "type": "event"
    },
    {
      "anonymous": false,
      "inputs": [
        {
          "indexed": false,
          "internalType": "address",
          "name": "user",
          "type": "address"
        },
        {
          "indexed": false,
          "internalType": "uint256",
          "name": "slashedAmount",
          "type": "uint256"
        }
      ],
      "name": "PunishUser",
      "type": "event"
    },
    {
      "inputs": [],
      "name": "TeleportDAOToken",
      "outputs": [
        {
          "internalType": "address",
          "name": "",
          "type": "address"
        }
      ],
      "stateMutability": "view",
      "type": "function"
    },
    {
      "inputs": [],
      "name": "WAVAX",
      "outputs": [
        {
          "internalType": "address",
          "name": "",
          "type": "address"
        }
      ],
      "stateMutability": "view",
      "type": "function"
    },
    {
      "inputs": [
        {
          "internalType": "address",
          "name": "user",
          "type": "address"
        },
        {
          "internalType": "uint256",
          "name": "wrappedBitcoinAmount",
          "type": "uint256"
        }
      ],
      "name": "addLiquidity",
      "outputs": [
        {
          "internalType": "uint256",
          "name": "",
          "type": "uint256"
        }
      ],
      "stateMutability": "nonpayable",
      "type": "function"
    },
    {
      "inputs": [],
      "name": "bitcoinInstantPool",
      "outputs": [
        {
          "internalType": "address",
          "name": "",
          "type": "address"
        }
      ],
      "stateMutability": "view",
      "type": "function"
    },
    {
      "inputs": [],
      "name": "bitcoinRelay",
      "outputs": [
        {
          "internalType": "address",
          "name": "",
          "type": "address"
        }
      ],
      "stateMutability": "view",
      "type": "function"
    },
    {
      "inputs": [],
      "name": "ccTransferRouter",
      "outputs": [
        {
          "internalType": "address",
          "name": "",
          "type": "address"
        }
      ],
      "stateMutability": "view",
      "type": "function"
    },
    {
      "inputs": [
        {
          "internalType": "address",
          "name": "_owner",
          "type": "address"
        }
      ],
      "name": "changeOwner",
      "outputs": [],
      "stateMutability": "nonpayable",
      "type": "function"
    },
    {
      "inputs": [],
      "name": "collateralRatio",
      "outputs": [
        {
          "internalType": "uint256",
          "name": "",
          "type": "uint256"
        }
      ],
      "stateMutability": "view",
      "type": "function"
    },
    {
      "inputs": [
        {
          "internalType": "address",
          "name": "",
          "type": "address"
        },
        {
          "internalType": "uint256",
          "name": "",
          "type": "uint256"
        }
      ],
      "name": "debts",
      "outputs": [
        {
          "internalType": "address",
          "name": "user",
          "type": "address"
        },
        {
          "internalType": "uint256",
          "name": "wrappedBitcoinAmount",
          "type": "uint256"
        },
        {
          "internalType": "uint256",
          "name": "collateralAmount",
          "type": "uint256"
        },
        {
          "internalType": "uint256",
          "name": "deadline",
          "type": "uint256"
        }
      ],
      "stateMutability": "view",
      "type": "function"
    },
    {
      "inputs": [],
      "name": "exchangeRouter",
      "outputs": [
        {
          "internalType": "address",
          "name": "",
          "type": "address"
        }
      ],
      "stateMutability": "view",
      "type": "function"
    },
    {
      "inputs": [
        {
          "internalType": "uint256",
          "name": "amountIn",
          "type": "uint256"
        },
        {
          "internalType": "uint256",
          "name": "amountOutMin",
          "type": "uint256"
        },
        {
          "internalType": "address[]",
          "name": "path",
          "type": "address[]"
        },
        {
          "internalType": "address",
          "name": "receiver",
          "type": "address"
        },
        {
          "internalType": "uint256",
          "name": "deadline",
          "type": "uint256"
        }
      ],
      "name": "instantCCExchange",
      "outputs": [
        {
          "internalType": "uint256[]",
          "name": "amounts",
          "type": "uint256[]"
        },
        {
          "internalType": "bool",
          "name": "result",
          "type": "bool"
        }
      ],
      "stateMutability": "nonpayable",
      "type": "function"
    },
    {
      "inputs": [
        {
          "internalType": "address",
          "name": "signer",
          "type": "address"
        },
        {
          "internalType": "bytes",
          "name": "signature",
          "type": "bytes"
        },
        {
          "internalType": "uint256",
          "name": "amountIn",
          "type": "uint256"
        },
        {
          "internalType": "uint256",
          "name": "amountOutMin",
          "type": "uint256"
        },
        {
          "internalType": "address[]",
          "name": "path",
          "type": "address[]"
        },
        {
          "internalType": "address",
          "name": "receiver",
          "type": "address"
        },
        {
          "internalType": "uint256",
          "name": "deadline",
          "type": "uint256"
        }
      ],
      "name": "instantCCExchangeWithPermit",
      "outputs": [
        {
          "internalType": "uint256[]",
          "name": "amounts",
          "type": "uint256[]"
        },
        {
          "internalType": "bool",
          "name": "result",
          "type": "bool"
        }
      ],
      "stateMutability": "nonpayable",
      "type": "function"
    },
    {
      "inputs": [
        {
          "internalType": "address",
          "name": "receiver",
          "type": "address"
        },
        {
          "internalType": "uint256",
          "name": "amount",
          "type": "uint256"
        },
        {
          "internalType": "uint256",
          "name": "deadline",
          "type": "uint256"
        }
      ],
      "name": "instantCCTransfer",
      "outputs": [
        {
          "internalType": "bool",
          "name": "",
          "type": "bool"
        }
      ],
      "stateMutability": "nonpayable",
      "type": "function"
    },
    {
      "inputs": [
        {
          "internalType": "address",
          "name": "signer",
          "type": "address"
        },
        {
          "internalType": "bytes",
          "name": "signature",
          "type": "bytes"
        },
        {
          "internalType": "address",
          "name": "receiver",
          "type": "address"
        },
        {
          "internalType": "uint256",
          "name": "amount",
          "type": "uint256"
        },
        {
          "internalType": "uint256",
          "name": "deadline",
          "type": "uint256"
        }
      ],
      "name": "instantCCTransferWithPermit",
      "outputs": [
        {
          "internalType": "bool",
          "name": "",
          "type": "bool"
        }
      ],
      "stateMutability": "nonpayable",
      "type": "function"
    },
    {
      "inputs": [
        {
          "internalType": "bytes32",
          "name": "",
          "type": "bytes32"
        }
      ],
      "name": "isUsed",
      "outputs": [
        {
          "internalType": "bool",
          "name": "",
          "type": "bool"
        }
      ],
      "stateMutability": "view",
      "type": "function"
    },
    {
      "inputs": [],
      "name": "liquidityPoolFactory",
      "outputs": [
        {
          "internalType": "address",
          "name": "",
          "type": "address"
        }
      ],
      "stateMutability": "view",
      "type": "function"
    },
    {
      "inputs": [],
      "name": "owner",
      "outputs": [
        {
          "internalType": "address",
          "name": "",
          "type": "address"
        }
      ],
      "stateMutability": "view",
      "type": "function"
    },
    {
      "inputs": [
        {
          "internalType": "uint256",
          "name": "bitcoinAmount",
          "type": "uint256"
        },
        {
          "internalType": "address",
          "name": "user",
          "type": "address"
        }
      ],
      "name": "payBackInstantTransfer",
      "outputs": [
        {
          "internalType": "bool",
          "name": "",
          "type": "bool"
        }
      ],
      "stateMutability": "nonpayable",
      "type": "function"
    },
    {
      "inputs": [],
      "name": "paybackDeadline",
      "outputs": [
        {
          "internalType": "uint256",
          "name": "",
          "type": "uint256"
        }
      ],
      "stateMutability": "view",
      "type": "function"
    },
    {
      "inputs": [
        {
          "internalType": "address",
          "name": "user",
          "type": "address"
        },
        {
          "internalType": "uint256[]",
          "name": "debtIndex",
          "type": "uint256[]"
        }
      ],
      "name": "punishUser",
      "outputs": [
        {
          "internalType": "bool",
          "name": "",
          "type": "bool"
        }
      ],
      "stateMutability": "nonpayable",
      "type": "function"
    },
    {
      "inputs": [
        {
          "internalType": "address",
          "name": "user",
          "type": "address"
        },
        {
          "internalType": "uint256",
          "name": "instantPoolTokenAmount",
          "type": "uint256"
        }
      ],
      "name": "removeLiquidity",
      "outputs": [
        {
          "internalType": "uint256",
          "name": "",
          "type": "uint256"
        }
      ],
      "stateMutability": "nonpayable",
      "type": "function"
    },
    {
      "inputs": [
        {
          "internalType": "bytes32",
          "name": "messageHash",
          "type": "bytes32"
        }
      ],
      "name": "requestCollateralAmount",
      "outputs": [
        {
          "internalType": "uint256",
          "name": "",
          "type": "uint256"
        }
      ],
      "stateMutability": "view",
      "type": "function"
    },
    {
      "inputs": [
        {
          "internalType": "bytes32",
          "name": "",
          "type": "bytes32"
        }
      ],
      "name": "requests",
      "outputs": [
        {
          "internalType": "address",
          "name": "user",
          "type": "address"
        },
        {
          "internalType": "uint256",
          "name": "collateralAmount",
          "type": "uint256"
        },
        {
          "internalType": "uint256",
          "name": "wrappedBitcoinAmount",
          "type": "uint256"
        },
        {
          "internalType": "uint256",
          "name": "creationTime",
          "type": "uint256"
        },
        {
          "internalType": "uint256",
          "name": "deadline",
          "type": "uint256"
        },
        {
          "internalType": "uint256",
          "name": "paybackDeadline",
          "type": "uint256"
        },
        {
          "internalType": "bool",
          "name": "isPaidback",
          "type": "bool"
        },
        {
          "internalType": "bool",
          "name": "isUsed",
          "type": "bool"
        }
      ],
      "stateMutability": "view",
      "type": "function"
    },
    {
      "inputs": [
        {
          "internalType": "address",
          "name": "_ccTransferRouter",
          "type": "address"
        }
      ],
      "name": "setCCTransferRouter",
      "outputs": [],
      "stateMutability": "nonpayable",
      "type": "function"
    },
    {
      "inputs": [
        {
          "internalType": "uint256",
          "name": "_paybackDeadline",
          "type": "uint256"
        }
      ],
      "name": "setCollateralRatio",
      "outputs": [],
      "stateMutability": "nonpayable",
      "type": "function"
    },
    {
      "inputs": [
        {
          "internalType": "address",
          "name": "_exchangeRouter",
          "type": "address"
        }
      ],
      "name": "setExchangeRouter",
      "outputs": [],
      "stateMutability": "nonpayable",
      "type": "function"
    },
    {
      "inputs": [
        {
          "internalType": "uint256",
          "name": "_paybackDeadline",
          "type": "uint256"
        }
      ],
      "name": "setPaybackDeadline",
      "outputs": [],
      "stateMutability": "nonpayable",
      "type": "function"
    },
    {
      "inputs": [
        {
          "internalType": "uint256",
          "name": "_punisherReward",
          "type": "uint256"
        }
      ],
      "name": "setPunisherReward",
      "outputs": [],
      "stateMutability": "nonpayable",
      "type": "function"
    },
    {
      "inputs": [],
      "name": "staking",
      "outputs": [
        {
          "internalType": "address",
          "name": "",
          "type": "address"
        }
      ],
      "stateMutability": "view",
      "type": "function"
    },
    {
      "inputs": [],
      "name": "wrappedBitcoin",
      "outputs": [
        {
          "internalType": "address",
          "name": "",
          "type": "address"
        }
      ],
      "stateMutability": "view",
      "type": "function"
    }
  ],
  "transactionHash": "0xa4617c888d8e4fdc92a2222c04f5ff1e8d37f4eef07ef4bbd8790b6eb7bc035e",
  "args": [
    "0xd2d0BDa00f2f0B0C64C2c14E8BF7627B7De052f2",
    "0xB4f6A712e212319f43C04824ea7630e55D2867FF",
    "0x0B47E8d6F8Ea758aE125963974b10A016Da8ce36",
    "0x6295e9cd42E6641E4c18063544759adf6fFd6aA9",
    "0x8214210869038ca711A01f73285d963A387bC943",
    "0x85c374D4aece0fe8D63bd131e1fd1d00420aE989",
    10,
    10,
    100,
    10
  ],
  "numDeployments": 1,
  "solcInputHash": "b766d894e7507eaf09e41e8de1c94935",
  "bytecode": "0x60806040523480156200001157600080fd5b5060405162004b1738038062004b1783398181016040526101408110156200003857600080fd5b5080516020808301516040808501516060860151608087015160a088015160c089015160e08a01516101008b0151610120909b0151600780546001600160a01b0319166001600160a01b03808e1691909117918290558951635615e16f60e01b815299519c9d9a9c989b979a9699959894979396959294911692635615e16f9260048082019391829003018186803b158015620000d457600080fd5b505afa158015620000e9573d6000803e3d6000fd5b505050506040513d60208110156200010057600080fd5b5051600680546001600160a01b03199081166001600160a01b0393841617909155600b80549091168b83161790819055604080516339d94ae160e11b8152905191909216916373b295c2916004808301926020929190829003018186803b1580156200016b57600080fd5b505afa15801562000180573d6000803e3d6000fd5b505050506040513d60208110156200019757600080fd5b5051600a80546001600160a01b03199081166001600160a01b03938416179091556009805482168b8416179055600c80548216898416179055600d805482168884161790556003869055600580549091168983161790556004849055600e83905560065460405160009230921690339085906200021490620002eb565b6001600160a01b03948516815292841660208401529216608082015260a081019190915260c060408083018290526017918301919091527f426974636f696e496e7374616e74506f6f6c546f6b656e00000000000000000060e083015261010060608301819052600490830152631092541560e21b610120830152519081900361014001906000f080158015620002af573d6000803e3d6000fd5b50600880546001600160a01b039092166001600160a01b0319928316179055600f80549091163317905550620002f99950505050505050505050565b61152180620035f683390190565b6132ed80620003096000396000f3fe608060405234801561001057600080fd5b50600436106101da5760003560e01c8063838b7ccb11610104578063a6f9dae1116100a2578063e75d75d511610071578063e75d75d51461087e578063f5ded51814610886578063f7459aec1461088e578063fe255a18146108ab576101da565b8063a6f9dae114610816578063a8c15dd81461083c578063aafcad751461086e578063b4eae1cb14610876576101da565b80638da5cb5b116100de5780638da5cb5b1461076e5780639d86698514610776578063a201ccf6146107e2578063a36be9a11461080e576101da565b8063838b7ccb146105cf5780638a0a71c5146105f55780638c99247b146106a6576101da565b80634cf088d91161017c5780636060663e1161014b5780636060663e146104e25780636f81a8011461054557806373b295c2146105a15780637f3c8b21146105a9576101da565b80634cf088d9146104da5780634cf46825146104e25780635615e16f146104ff5780635668870014610507576101da565b80631cb85818116101b85780631cb85818146103235780632f1ed7cb1461032b57806332aa59761461047b5780634324a0001461049a576101da565b806302b0b472146101df578063108f438d146102035780631bfd1c811461020b575b600080fd5b6101e76108c8565b604080516001600160a01b039092168252519081900360200190f35b6101e76108d7565b6102c6600480360360a081101561022157600080fd5b813591602081013591810190606081016040820135600160201b81111561024757600080fd5b82018360208201111561025957600080fd5b803590602001918460208302840111600160201b8311171561027a57600080fd5b919080806020026020016040519081016040528093929190818152602001838360200280828437600092019190915250929550506001600160a01b0383351693505050602001356108e6565b60405180806020018315158152602001828103825284818151815260200191508051906020019060200280838360005b8381101561030e5781810151838201526020016102f6565b50505050905001935050505060405180910390f35b6101e7610981565b6102c6600480360360e081101561034157600080fd5b6001600160a01b038235169190810190604081016020820135600160201b81111561036b57600080fd5b82018360208201111561037d57600080fd5b803590602001918460018302840111600160201b8311171561039e57600080fd5b91908080601f0160208091040260200160405190810160405280939291908181526020018383808284376000920191909152509295843595602086013595919450925060608101915060400135600160201b8111156103fc57600080fd5b82018360208201111561040e57600080fd5b803590602001918460208302840111600160201b8311171561042f57600080fd5b919080806020026020016040519081016040528093929190818152602001838360200280828437600092019190915250929550506001600160a01b038335169350505060200135610990565b6104986004803603602081101561049157600080fd5b5035610ae4565b005b6104c6600480360360408110156104b057600080fd5b50803590602001356001600160a01b0316610b00565b604080519115158252519081900360200190f35b6101e7611107565b610498600480360360208110156104f857600080fd5b5035611116565b6101e7611132565b6105336004803603604081101561051d57600080fd5b506001600160a01b038135169060200135611141565b60408051918252519081900360200190f35b6105716004803603604081101561055b57600080fd5b506001600160a01b0381351690602001356112d3565b604080516001600160a01b0390951685526020850193909352838301919091526060830152519081900360800190f35b6101e7611323565b610498600480360360208110156105bf57600080fd5b50356001600160a01b0316611332565b610498600480360360208110156105e557600080fd5b50356001600160a01b031661136b565b6104c66004803603604081101561060b57600080fd5b6001600160a01b038235169190810190604081016020820135600160201b81111561063557600080fd5b82018360208201111561064757600080fd5b803590602001918460208302840111600160201b8311171561066857600080fd5b91908080602002602001604051908101604052809392919081815260200183836020028082843760009201919091525092955061142c945050505050565b6104c6600480360360a08110156106bc57600080fd5b6001600160a01b038235169190810190604081016020820135600160201b8111156106e657600080fd5b8201836020820111156106f857600080fd5b803590602001918460018302840111600160201b8311171561071957600080fd5b91908080601f016020809104026020016040519081016040528093929190818152602001838380828437600092019190915250929550506001600160a01b038335169350505060208101359060400135611861565b6101e761197e565b6107936004803603602081101561078c57600080fd5b503561198d565b604080516001600160a01b0390991689526020890197909752878701959095526060870193909352608086019190915260a0850152151560c0840152151560e083015251908190036101000190f35b610533600480360360408110156107f857600080fd5b506001600160a01b0381351690602001356119e0565b610533611bc3565b6104986004803603602081101561082c57600080fd5b50356001600160a01b0316611bc9565b6104c66004803603606081101561085257600080fd5b506001600160a01b038135169060208101359060400135611c02565b6101e7611c60565b610533611c6f565b6101e7611c75565b6101e7611c84565b610533600480360360208110156108a457600080fd5b5035611c93565b6104c6600480360360208110156108c157600080fd5b5035611ca8565b6008546001600160a01b031681565b6009546001600160a01b031681565b60606000808787876001895103815181106108fd57fe5b6020026020010151338760405160200180868152602001858152602001846001600160a01b031660601b8152601401836001600160a01b031660601b81526014018281526020019550505050505060405160208183030381529060405280519060200120905061097233868a8a8a8987611cbd565b92509250509550959350505050565b600b546001600160a01b031681565b60606000808787876001895103815181106109a757fe5b6020908102919091018101516040805180840195909552848101939093526bffffffffffffffffffffffff19606091821b8116828601529089901b16607484015260888084018890528251808503909101815260a890930182528251928101929092206000818152600190935291205490915060ff1615610a6f576040805162461bcd60e51b815260206004820181905260248201527f7265717565737420686173206265656e206578656375746564206265666f7265604482015290519081900360640190fd5b610a7a8a8a836125bd565b610ac4576040805162461bcd60e51b81526020600482015260166024820152751cda59db985d1d5c99481a5cc81b9bdd081d985b1a5960521b604482015290519081900360640190fd5b610ad38a868a8a8a8987611cbd565b925092505097509795505050505050565b600f546001600160a01b03163314610afb57600080fd5b600355565b600d54604080516302f796d960e41b815290516000928392869284926001600160a01b031691632f796d90916004808301926020929190829003018186803b158015610b4b57600080fd5b505afa158015610b5f573d6000803e3d6000fd5b505050506040513d6020811015610b7557600080fd5b5051905060005b6001600160a01b038616600090815260026020526040902054811015610f2c576001600160a01b0386166000908152600260205260409020805482908110610bc057fe5b9060005260206000209060040201600101548310158015610c1857506001600160a01b0386166000908152600260205260409020805483919083908110610c0357fe5b90600052602060002090600402016003015410155b15610dcf576006546008546001600160a01b0388811660009081526002602052604090208054938216936323b872dd93339316919086908110610c5757fe5b9060005260206000209060040201600101546040518463ffffffff1660e01b815260040180846001600160a01b03168152602001836001600160a01b031681526020018281526020019350505050602060405180830381600087803b158015610cbf57600080fd5b505af1158015610cd3573d6000803e3d6000fd5b505050506040513d6020811015610ce957600080fd5b50506001600160a01b0386166000908152600260205260409020805482908110610d0f57fe5b9060005260206000209060040201600201548401935060026000876001600160a01b03166001600160a01b031681526020019081526020016000208181548110610d5557fe5b9060005260206000209060040201600101548303925060026000876001600160a01b03166001600160a01b031681526020019081526020016000208181548110610d9b57fe5b60009182526020822060049091020180546001600160a01b0319168155600181018290556002810182905560030155610f24565b6001600160a01b0386166000908152600260205260409020805483919083908110610df657fe5b90600052602060002090600402016003015411610f2457600654600754600854604080516323b872dd60e01b81526001600160a01b0393841660048201529183166024830152604482018790525191909216916323b872dd9160648083019260209291908290030181600087803b158015610e7057600080fd5b505af1158015610e84573d6000803e3d6000fd5b505050506040513d6020811015610e9a57600080fd5b50506001600160a01b0386166000908152600260205260409020805484919083908110610ec357fe5b9060005260206000209060040201600101540360026000886001600160a01b03166001600160a01b031681526020019081526020016000208281548110610f0657fe5b90600052602060002090600402016001018190555060009250610f2c565b600101610b7c565b508115610fbc57600654604080516323b872dd60e01b81523360048201526001600160a01b03888116602483015260448201869052915191909216916323b872dd9160648083019260209291908290030181600087803b158015610f8f57600080fd5b505af1158015610fa3573d6000803e3d6000fd5b505050506040513d6020811015610fb957600080fd5b50505b82156110b557600954600c546040805163095ea7b360e01b81526001600160a01b039283166004820152602481018790529051919092169163095ea7b39160448083019260209291908290030181600087803b15801561101b57600080fd5b505af115801561102f573d6000803e3d6000fd5b505050506040513d602081101561104557600080fd5b5050600c54604080516356e4bb9760e11b81526001600160a01b038881166004830152602482018790529151919092169163adc9772e91604480830192600092919082900301818387803b15801561109c57600080fd5b505af11580156110b0573d6000803e3d6000fd5b505050505b604080516001600160a01b03871681526020810188905281517f28520e61686cee221ace76f701c84e093d0d7d515df88144bdce3b0e599423d0929181900390910190a1600193505050505b92915050565b600c546001600160a01b031681565b600f546001600160a01b0316331461112d57600080fd5b600455565b6006546001600160a01b031681565b600654604080516323b872dd60e01b81523360048201523060248201526044810184905290516000926001600160a01b0316916323b872dd91606480830192602092919082900301818787803b15801561119a57600080fd5b505af11580156111ae573d6000803e3d6000fd5b505050506040513d60208110156111c457600080fd5b50506006546008546040805163095ea7b360e01b81526001600160a01b039283166004820152602481018690529051919092169163095ea7b39160448083019260209291908290030181600087803b15801561121f57600080fd5b505af1158015611233573d6000803e3d6000fd5b505050506040513d602081101561124957600080fd5b5050600854604080516256688760e81b81526001600160a01b038681166004830152602482018690529151919092169163566887009160448083019260209291908290030181600087803b1580156112a057600080fd5b505af11580156112b4573d6000803e3d6000fd5b505050506040513d60208110156112ca57600080fd5b50519392505050565b600260205281600052604060002081815481106112ef57600080fd5b600091825260209091206004909102018054600182015460028301546003909301546001600160a01b039092169450925084565b600a546001600160a01b031681565b600f546001600160a01b0316331461134957600080fd5b600780546001600160a01b0319166001600160a01b0392909216919091179055565b600f546001600160a01b0316331461138257600080fd5b600b80546001600160a01b0319166001600160a01b038381169190911791829055604080516339d94ae160e11b8152905192909116916373b295c291600480820192602092909190829003018186803b1580156113de57600080fd5b505afa1580156113f2573d6000803e3d6000fd5b505050506040513d602081101561140857600080fd5b5051600a80546001600160a01b0319166001600160a01b0390921691909117905550565b80516001600160a01b0383166000908152600260205260408120549091111561148f576040805162461bcd60e51b815260206004820152601060248201526f746f6f206d616e7920696e646578657360801b604482015290519081900360640190fd5b6000806000600d60009054906101000a90046001600160a01b03166001600160a01b0316632f796d906040518163ffffffff1660e01b815260040160206040518083038186803b1580156114e257600080fd5b505afa1580156114f6573d6000803e3d6000fd5b505050506040513d602081101561150c57600080fd5b5051905060005b85518110156116e0576001600160a01b0387166000908152600260205260409020865183919088908490811061154557fe5b60200260200101518154811061155757fe5b906000526020600020906004020160030154106115bb576040805162461bcd60e51b815260206004820152601760248201527f646561646c696e6520686173206e6f7420706173736564000000000000000000604482015290519081900360640190fd5b6001600160a01b038716600090815260026020526040902086518790839081106115e157fe5b6020026020010151815481106115f357fe5b9060005260206000209060040201600101548401935060026000886001600160a01b03166001600160a01b0316815260200190815260200160002086828151811061163a57fe5b60200260200101518154811061164c57fe5b9060005260206000209060040201600201548301925060026000886001600160a01b03166001600160a01b0316815260200190815260200160002086828151811061169357fe5b6020026020010151815481106116a557fe5b60009182526020822060049091020180546001600160a01b031916815560018082018390556002820183905560039091019190915501611513565b5060006116ec84612638565b6040805160028082526060820183529293506000929091602083019080368337505060095482519293506001600160a01b03169183915060009061172c57fe5b6001600160a01b03928316602091820292909201015260065482519116908290600190811061175757fe5b6001600160a01b03928316602091820292909201015260085461178491849188918591166002420261267b565b6009546003546040805163a9059cbb60e01b81523360048201526064868903938402046024820152905191926001600160a01b03169163a9059cbb916044808201926020929091908290030181600087803b1580156117e257600080fd5b505af11580156117f6573d6000803e3d6000fd5b505050506040513d602081101561180c57600080fd5b5050604080516001600160a01b038b1681526020810188905281517f3422ace09a4c49424f8dd89efa0bc1c023631ccea374fd574054090605a4f9ab929181900390910190a150600198975050505050505050565b604080516bffffffffffffffffffffffff19606088901b166020808301919091526034820185905260548083018590528351808403909101815260749092018352815191810191909120600081815260019092529181205490919060ff1615611911576040805162461bcd60e51b815260206004820181905260248201527f7265717565737420686173206265656e206578656375746564206265666f7265604482015290519081900360640190fd5b61191c8787836125bd565b611966576040805162461bcd60e51b81526020600482015260166024820152751cda59db985d1d5c99481a5cc81b9bdd081d985b1a5960521b604482015290519081900360640190fd5b6119738786868685612882565b505095945050505050565b600f546001600160a01b031681565b60006020819052908152604090208054600182015460028301546003840154600485015460058601546006909601546001600160a01b039095169593949293919290919060ff8082169161010090041688565b600854604080516370a0823160e01b8152336004820152905160009283926001600160a01b03909116916370a0823191602480820192602092909190829003018186803b158015611a3057600080fd5b505afa158015611a44573d6000803e3d6000fd5b505050506040513d6020811015611a5a57600080fd5b5051905082811015611ab3576040805162461bcd60e51b815260206004820181905260248201527f696e7374616e7420706f6f6c20746f6b656e206973206e6f7420656e6f756768604482015290519081900360640190fd5b600854604080516323b872dd60e01b81523360048201523060248201526044810186905290516001600160a01b03909216916323b872dd916064808201926020929091908290030181600087803b158015611b0d57600080fd5b505af1158015611b21573d6000803e3d6000fd5b505050506040513d6020811015611b3757600080fd5b505060085460408051635100e67b60e11b81526001600160a01b038781166004830152602482018790529151919092169163a201ccf69160448083019260209291908290030181600087803b158015611b8f57600080fd5b505af1158015611ba3573d6000803e3d6000fd5b505050506040513d6020811015611bb957600080fd5b5051949350505050565b60045481565b600f546001600160a01b03163314611be057600080fd5b600f80546001600160a01b0319166001600160a01b0392909216919091179055565b60008033848460405160200180846001600160a01b031660601b81526014018381526020018281526020019350505050604051602081830303815290604052805190602001209050611c573386868685612882565b50509392505050565b600d546001600160a01b031681565b600e5481565b6005546001600160a01b031681565b6007546001600160a01b031681565b60009081526020819052604090206001015490565b60016020526000908152604090205460ff1681565b6060600043841015611d0c576040805162461bcd60e51b8152602060048201526013602482015272191958591b1a5b99481a185cc81c185cdcd959606a1b604482015290519081900360640190fd5b60065485516001600160a01b03909116908690600090611d2857fe5b60200260200101516001600160a01b031614611d8b576040805162461bcd60e51b815260206004820152601a60248201527f696e70757420746f6b656e206973206e6f7420636f7272656374000000000000604482015290519081900360640190fd5b60006064600e5481611d9957fe5b04611da389612638565b0290506000600c60009054906101000a90046001600160a01b03166001600160a01b0316633b845eb9836040518263ffffffff1660e01b815260040180828152602001915050602060405180830381600087803b158015611e0357600080fd5b505af1158015611e17573d6000803e3d6000fd5b505050506040513d6020811015611e2d57600080fd5b5051600c5460408051632848362760e11b81526001600160a01b038f811660048301529151939450849391909216916350906c4e9160248083019260209291908290030181600087803b158015611e8357600080fd5b505af1158015611e97573d6000803e3d6000fd5b505050506040513d6020811015611ead57600080fd5b50511015611eec5760405162461bcd60e51b81526004018080602001828103825260238152602001806132956023913960400191505060405180910390fd5b600c5460408051630615339760e51b81526001600160a01b038e81166004830152602482018590529151919092169163c2a672e091604480830192600092919082900301818387803b158015611f4157600080fd5b505af1158015611f55573d6000803e3d6000fd5b50506008546040805163d084d91760e01b8152306004820152602481018e905290516001600160a01b03909216935063d084d91792506044808201926020929091908290030181600087803b158015611fad57600080fd5b505af1158015611fc1573d6000803e3d6000fd5b505050506040513d6020811015611fd757600080fd5b505161202a576040805162461bcd60e51b815260206004820152601b60248201527f7472616e7366657220776173206e6f742073756363657366756c6c0000000000604482015290519081900360640190fd5b6120326131e4565b6001600160a01b03808d16825260208083018c9052604080840186905260048054600d5483516302f796d960e41b8152935191951693632f796d90938084019391929190829003018186803b15801561208a57600080fd5b505afa15801561209e573d6000803e3d6000fd5b505050506040513d60208110156120b457600080fd5b505101606082019081526001600160a01b038d811660009081526002602081815260408084208054600180820183559186528386208951600492830290910180546001600160a01b031916918916919091178155848a015181840155838a01519581019590955596516003909401939093558b845282825292839020805460ff1916909217909155600854825163623ea8df60e11b81529251606495919094169363c47d51be93808301939290829003018186803b15801561217557600080fd5b505afa158015612189573d6000803e3d6000fd5b505050506040513d602081101561219f57600080fd5b50516064038b02816121ad57fe5b049950876000815181106121bd57fe5b602090810291909101810151600b546040805163095ea7b360e01b81526001600160a01b039283166004820152602481018f90529051919092169263095ea7b392604480820193918290030181600087803b15801561221b57600080fd5b505af115801561222f573d6000803e3d6000fd5b505050506040513d602081101561224557600080fd5b5050600a5488516001600160a01b03909116908990600019810190811061226857fe5b60200260200101516001600160a01b0316141561241957600b60009054906101000a90046001600160a01b03166001600160a01b031663676528d18b8b8b8f8c6040518663ffffffff1660e01b81526004018086815260200185815260200180602001846001600160a01b03168152602001838152602001828103825285818151815260200191508051906020019060200280838360005b83811015612318578181015183820152602001612300565b505050509050019650505050505050600060405180830381600087803b15801561234157600080fd5b505af1158015612355573d6000803e3d6000fd5b505050506040513d6000823e601f3d908101601f19168201604090815281101561237e57600080fd5b8101908080516040519392919084600160201b82111561239d57600080fd5b9083019060208201858111156123b257600080fd5b82518660208202830111600160201b821117156123ce57600080fd5b82525081516020918201928201910280838360005b838110156123fb5781810151838201526020016123e3565b505050509190910160405250602001519297509195506125ae915050565b600b60009054906101000a90046001600160a01b03166001600160a01b03166338ed17398b8b8b8f8c6040518663ffffffff1660e01b81526004018086815260200185815260200180602001846001600160a01b03168152602001838152602001828103825285818151815260200191508051906020019060200280838360005b838110156124b257818101518382015260200161249a565b505050509050019650505050505050600060405180830381600087803b1580156124db57600080fd5b505af11580156124ef573d6000803e3d6000fd5b505050506040513d6000823e601f3d908101601f19168201604090815281101561251857600080fd5b8101908080516040519392919084600160201b82111561253757600080fd5b90830190602082018581111561254c57600080fd5b82518660208202830111600160201b8211171561256857600080fd5b82525081516020918201928201910280838360005b8381101561259557818101518382015260200161257d565b5050505091909101604052506020015192975091955050505b50505097509795505050505050565b6000808260405160200180807f19457468657265756d205369676e6564204d6573736167653a0a333200000000815250601c01828152602001915050604051602081830303815290604052805190602001209050846001600160a01b03166126258286612ced565b6001600160a01b03161495945050505050565b60055460065460095460009283928392612661926001600160a01b039081169281169116612d71565b915091506000612672858385612e3f565b95945050505050565b600954600b546040805163095ea7b360e01b81526001600160a01b039283166004820152602481018990529051919092169163095ea7b39160448083019260209291908290030181600087803b1580156126d457600080fd5b505af11580156126e8573d6000803e3d6000fd5b505050506040513d60208110156126fe57600080fd5b5050600b546040516338ed173960e01b815260048101878152602482018790526001600160a01b0385811660648401526084830185905260a060448401908152875160a4850152875191909416936338ed1739938a938a938a938a938a939260c4909101906020878101910280838360005b83811015612788578181015183820152602001612770565b505050509050019650505050505050600060405180830381600087803b1580156127b157600080fd5b505af11580156127c5573d6000803e3d6000fd5b505050506040513d6000823e601f3d908101601f1916820160409081528110156127ee57600080fd5b8101908080516040519392919084600160201b82111561280d57600080fd5b90830190602082018581111561282257600080fd5b82518660208202830111600160201b8211171561283e57600080fd5b82525081516020918201928201910280838360005b8381101561286b578181015183820152602001612853565b505050509190910160405250505050505050505050565b6000438310156128cf576040805162461bcd60e51b8152602060048201526013602482015272191958591b1a5b99481a185cc81c185cdcd959606a1b604482015290519081900360640190fd5b60006064600e54816128dd57fe5b046128e786612638565b0290506000600c60009054906101000a90046001600160a01b03166001600160a01b0316633b845eb9836040518263ffffffff1660e01b815260040180828152602001915050602060405180830381600087803b15801561294757600080fd5b505af115801561295b573d6000803e3d6000fd5b505050506040513d602081101561297157600080fd5b5051600c5460408051632848362760e11b81526001600160a01b038c81166004830152915193945060009391909216916350906c4e91602480830192602092919082900301818787803b1580156129c757600080fd5b505af11580156129db573d6000803e3d6000fd5b505050506040513d60208110156129f157600080fd5b5051905081811015612a345760405162461bcd60e51b81526004018080602001828103825260238152602001806132956023913960400191505060405180910390fd5b600c5460408051630615339760e51b81526001600160a01b038c81166004830152602482018690529151919092169163c2a672e091604480830192600092919082900301818387803b158015612a8957600080fd5b505af1158015612a9d573d6000803e3d6000fd5b50506008546040805163d084d91760e01b81526001600160a01b038d81166004830152602482018d9052915191909216935063d084d917925060448083019260209291908290030181600087803b158015612af757600080fd5b505af1158015612b0b573d6000803e3d6000fd5b505050506040513d6020811015612b2157600080fd5b5051612b74576040805162461bcd60e51b815260206004820152601b60248201527f7472616e7366657220776173206e6f742073756363657366756c6c0000000000604482015290519081900360640190fd5b612b7c6131e4565b6001600160a01b03808b16825260208083018a9052604080840187905260048054600d5483516302f796d960e41b8152935191951693632f796d90938084019391929190829003018186803b158015612bd457600080fd5b505afa158015612be8573d6000803e3d6000fd5b505050506040513d6020811015612bfe57600080fd5b810190808051906020019092919050505001816060018181525050600260008b6001600160a01b03166001600160a01b0316815260200190815260200160002081908060018154018082558091505060019003906000526020600020906004020160009091909190915060008201518160000160006101000a8154816001600160a01b0302191690836001600160a01b031602179055506020820151816001015560408201518160020155606082015181600301555050600180600088815260200190815260200160002060006101000a81548160ff0219169083151502179055505050505095945050505050565b600080600080612cfc85612f17565b92509250925060018682858560405160008152602001604052604051808581526020018460ff1681526020018381526020018281526020019450505050506020604051602081039080840390855afa158015612d5c573d6000803e3d6000fd5b5050604051601f190151979650505050505050565b6000806000612d808585612f90565b509050600080612d9188888861306e565b6001600160a01b0316630902f1ac6040518163ffffffff1660e01b815260040160606040518083038186803b158015612dc957600080fd5b505afa158015612ddd573d6000803e3d6000fd5b505050506040513d6060811015612df357600080fd5b5080516020909101516dffffffffffffffffffffffffffff91821693501690506001600160a01b0387811690841614612e2d578082612e30565b81815b90999098509650505050505050565b6000808411612e7f5760405162461bcd60e51b815260040180806020018281038252602e815260200180613267602e913960400191505060405180910390fd5b600083118015612e8f5750600082115b612eca5760405162461bcd60e51b815260040180806020018281038252602a81526020018061323d602a913960400191505060405180910390fd5b6000612ee26103e8612edc86886130e2565b906130e2565b90506000612ef66103e5612edc8689613145565b9050612f0d6001828481612f0657fe5b0490613195565b9695505050505050565b60008060008351604114612f72576040805162461bcd60e51b815260206004820152601860248201527f696e76616c6964207369676e6174757265206c656e6774680000000000000000604482015290519081900360640190fd5b50505060208101516040820151606090920151909260009190911a90565b600080826001600160a01b0316846001600160a01b03161415612fe45760405162461bcd60e51b81526004018080602001828103825260278152602001806132166027913960400191505060405180910390fd5b826001600160a01b0316846001600160a01b031610613004578284613007565b83835b90925090506001600160a01b038216613067576040805162461bcd60e51b815260206004820181905260248201527f54656c65706f727444414f4c6962726172793a205a45524f5f41444452455353604482015290519081900360640190fd5b9250929050565b6000836001600160a01b031663f4f31ede84846040518363ffffffff1660e01b815260040180836001600160a01b03168152602001826001600160a01b031681526020019250505060206040518083038186803b1580156130ce57600080fd5b505afa158015611ba3573d6000803e3d6000fd5b60008115806130fd575050808202828282816130fa57fe5b04145b611101576040805162461bcd60e51b815260206004820152601460248201527364732d6d6174682d6d756c2d6f766572666c6f7760601b604482015290519081900360640190fd5b80820382811115611101576040805162461bcd60e51b815260206004820152601560248201527464732d6d6174682d7375622d756e646572666c6f7760581b604482015290519081900360640190fd5b80820182811015611101576040805162461bcd60e51b815260206004820152601460248201527364732d6d6174682d6164642d6f766572666c6f7760601b604482015290519081900360640190fd5b604051806080016040528060006001600160a01b03168152602001600081526020016000815260200160008152509056fe54656c65706f727444414f4c6962726172793a204944454e544943414c5f41444452455353455354656c65706f727444414f4c6962726172793a20494e53554646494349454e545f4c495155494449545954656c65706f727444414f4c6962726172793a20494e53554646494349454e545f4f55545055545f414d4f554e54544454207374616b656420616d6f756e74206973206e6f742073756666696369656e74a2646970667358221220eaedaf27eef57f7ce7c83afaf4ee3836caeb7a052b02864f1b69526c942578dc64736f6c6343000706003360806040523480156200001157600080fd5b506040516200152138038062001521833981810160405260c08110156200003757600080fd5b815160208301516040808501805191519395929483019291846401000000008211156200006357600080fd5b9083019060208201858111156200007957600080fd5b82516401000000008111828201881017156200009457600080fd5b82525081516020918201929091019080838360005b83811015620000c3578181015183820152602001620000a9565b50505050905090810190601f168015620000f15780820380516001836020036101000a031916815260200191505b50604052602001805160405193929190846401000000008211156200011557600080fd5b9083019060208201858111156200012b57600080fd5b82516401000000008111828201881017156200014657600080fd5b82525081516020918201929091019080838360005b83811015620001755781810151838201526020016200015b565b50505050905090810190601f168015620001a35780820380516001836020036101000a031916815260200191505b50604090815260208281015192909101518651929450925085918591600091620001d49160039190860190620002ba565b508151620001ea906004906020850190620002ba565b508015620001fe57620001fe33826200024a565b5050600680546001600160a01b03199081166001600160a01b03998a161790915560058054821697891697909717909655506007805490951691909516179092555050600d5562000366565b6200025860008383620002b5565b60028054820190556001600160a01b038216600081815260208181526040808320805486019055805185815290517fddf252ad1be2c89b69c2b068fc378daa952ba7f163c4a11628f55a4df523b3ef929181900390910190a35050565b505050565b828054600181600116156101000203166002900490600052602060002090601f016020900481019282620002f257600085556200033d565b82601f106200030d57805160ff19168380011785556200033d565b828001600101855582156200033d579182015b828111156200033d57825182559160200191906001019062000320565b506200034b9291506200034f565b5090565b5b808211156200034b576000815560010162000350565b6111ab80620003766000396000f3fe608060405234801561001057600080fd5b50600436106101425760003560e01c806395d89b41116100b8578063ad9e56491161007c578063ad9e5649146103f6578063b0d5acf914610413578063c47d51be1461041b578063d084d91714610423578063dd62ed3e1461044f578063e35a0a881461047d57610142565b806395d89b4114610344578063a201ccf61461034c578063a457c2d714610378578063a6f9dae1146103a4578063a9059cbb146103ca57610142565b8063395093511161010a57806339509351146102725780635615e16f1461029e57806356688700146102c257806370a08231146102ee578063870ba6cf146103145780638da5cb5b1461033c57610142565b806306fdde0314610147578063095ea7b3146101c457806318160ddd1461020457806323b872dd1461021e578063313ce56714610254575b600080fd5b61014f610485565b6040805160208082528351818301528351919283929083019185019080838360005b83811015610189578181015183820152602001610171565b50505050905090810190601f1680156101b65780820380516001836020036101000a031916815260200191505b509250505060405180910390f35b6101f0600480360360408110156101da57600080fd5b506001600160a01b03813516906020013561051b565b604080519115158252519081900360200190f35b61020c610538565b60408051918252519081900360200190f35b6101f06004803603606081101561023457600080fd5b506001600160a01b0381358116916020810135909116906040013561053e565b61025c6105ed565b6040805160ff9092168252519081900360200190f35b6101f06004803603604081101561028857600080fd5b506001600160a01b0381351690602001356105f2565b6102a661063d565b604080516001600160a01b039092168252519081900360200190f35b61020c600480360360408110156102d857600080fd5b506001600160a01b03813516906020013561064c565b61020c6004803603602081101561030457600080fd5b50356001600160a01b0316610757565b61033a6004803603602081101561032a57600080fd5b50356001600160a01b0316610772565b005b6102a66107ab565b61014f6107ba565b61020c6004803603604081101561036257600080fd5b506001600160a01b03813516906020013561081b565b6101f06004803603604081101561038e57600080fd5b506001600160a01b038135169060200135610966565b61033a600480360360208110156103ba57600080fd5b50356001600160a01b03166109fe565b6101f0600480360360408110156103e057600080fd5b506001600160a01b038135169060200135610a37565b61033a6004803603602081101561040c57600080fd5b5035610a4b565b61020c610a67565b61020c610ae3565b6101f06004803603604081101561043957600080fd5b506001600160a01b038135169060200135610ae9565b61020c6004803603604081101561046557600080fd5b506001600160a01b0381358116916020013516610c39565b6102a6610c64565b60038054604080516020601f60026000196101006001881615020190951694909404938401819004810282018101909252828152606093909290918301828280156105115780601f106104e657610100808354040283529160200191610511565b820191906000526020600020905b8154815290600101906020018083116104f457829003601f168201915b5050505050905090565b600061052f610528610c73565b8484610c77565b50600192915050565b60025490565b600061054b848484610d63565b6001600160a01b03841660009081526001602052604081208161056c610c73565b6001600160a01b03166001600160a01b03168152602001908152602001600020549050828110156105ce5760405162461bcd60e51b81526004018080602001828103825260288152602001806110bf6028913960400191505060405180910390fd5b6105e2856105da610c73565b858403610c77565b506001949350505050565b601290565b600061052f6105ff610c73565b84846001600061060d610c73565b6001600160a01b03908116825260208083019390935260409182016000908120918b168152925290205401610c77565b6005546001600160a01b031681565b6000806000610659610a67565b90508061066857839150610679565b80600a5485028161067557fe5b0491505b600554604080516323b872dd60e01b81523360048201523060248201526044810187905290516001600160a01b03909216916323b872dd916064808201926020929091908290030181600087803b1580156106d357600080fd5b505af11580156106e7573d6000803e3d6000fd5b505050506040513d60208110156106fd57600080fd5b5061070a90508583610eb9565b604080516001600160a01b03871681526020810186905281517fbb37879e252460856212dc4e8c6edf174e473df9423e3a7feccd21f8c28d587a929181900390910190a150919392505050565b6001600160a01b031660009081526020819052604090205490565b6007546001600160a01b0316331461078957600080fd5b600680546001600160a01b0319166001600160a01b0392909216919091179055565b6007546001600160a01b031681565b60048054604080516020601f60026000196101006001881615020190951694909404938401819004810282018101909252828152606093909290918301828280156105115780601f106104e657610100808354040283529160200191610511565b3360009081526008602052604081205482111561087f576040805162461bcd60e51b815260206004820152601960248201527f62616c616e6365206973206e6f742073756666696369656e7400000000000000604482015290519081900360640190fd5b6000600a5461088c610a67565b84028161089557fe5b6005546040805163a9059cbb60e01b8152336004820152939092046024840181905291519193506001600160a01b03169163a9059cbb9160448083019260209291908290030181600087803b1580156108ed57600080fd5b505af1158015610901573d6000803e3d6000fd5b505050506040513d602081101561091757600080fd5b5061092490503384610f22565b604080513381526020810183905281517fdfdd120ded9b7afc0c23dd5310e93aaa3e1c3b9f75af9b805fab3030842439f2929181900390910190a19392505050565b60008060016000610975610c73565b6001600160a01b03908116825260208083019390935260409182016000908120918816815292529020549050828110156109e05760405162461bcd60e51b81526004018080602001828103825260258152602001806111516025913960400191505060405180910390fd5b6109f46109eb610c73565b85858403610c77565b5060019392505050565b6007546001600160a01b03163314610a1557600080fd5b600780546001600160a01b0319166001600160a01b0392909216919091179055565b600061052f610a44610c73565b8484610d63565b6007546001600160a01b03163314610a6257600080fd5b600d55565b600554604080516370a0823160e01b815230600482015290516000926001600160a01b0316916370a08231916024808301926020929190829003018186803b158015610ab257600080fd5b505afa158015610ac6573d6000803e3d6000fd5b505050506040513d6020811015610adc57600080fd5b5051905090565b600d5481565b6006546000906001600160a01b03163314610b4b576040805162461bcd60e51b815260206004820152601c60248201527f73656e646572206973206e6f7420696e7374616e7420726f7574657200000000604482015290519081900360640190fd5b60006064600d54606403840281610b5e57fe5b6005546040805163a9059cbb60e01b81526001600160a01b0389811660048301529490930460248401819052905190945092169163a9059cbb916044808201926020929091908290030181600087803b158015610bba57600080fd5b505af1158015610bce573d6000803e3d6000fd5b505050506040513d6020811015610be457600080fd5b5050604080516001600160a01b03861681526020810185905280820183905290517f563def844270db2fb308a534b66bcb3505c53567b74fcc152013248ee986e0e19181900360600190a15060019392505050565b6001600160a01b03918216600090815260016020908152604080832093909416825291909152205490565b6006546001600160a01b031681565b3390565b6001600160a01b038316610cbc5760405162461bcd60e51b815260040180806020018281038252602481526020018061112d6024913960400191505060405180910390fd5b6001600160a01b038216610d015760405162461bcd60e51b81526004018080602001828103825260228152602001806110776022913960400191505060405180910390fd5b6001600160a01b03808416600081815260016020908152604080832094871680845294825291829020859055815185815291517f8c5be1e5ebec7d5bd14f71427d1e84f3dd0314c0f7b2291e5b200ac8c7c3b9259281900390910190a3505050565b6001600160a01b038316610da85760405162461bcd60e51b81526004018080602001828103825260258152602001806111086025913960400191505060405180910390fd5b6001600160a01b038216610ded5760405162461bcd60e51b81526004018080602001828103825260238152602001806110326023913960400191505060405180910390fd5b610df883838361102c565b6001600160a01b03831660009081526020819052604090205481811015610e505760405162461bcd60e51b81526004018080602001828103825260268152602001806110996026913960400191505060405180910390fd5b6001600160a01b038085166000818152602081815260408083208787039055938716808352918490208054870190558351868152935191937fddf252ad1be2c89b69c2b068fc378daa952ba7f163c4a11628f55a4df523b3ef929081900390910190a350505050565b610ec56000838361102c565b60028054820190556001600160a01b038216600081815260208181526040808320805486019055805185815290517fddf252ad1be2c89b69c2b068fc378daa952ba7f163c4a11628f55a4df523b3ef929181900390910190a35050565b6001600160a01b038216610f675760405162461bcd60e51b81526004018080602001828103825260218152602001806110e76021913960400191505060405180910390fd5b610f738260008361102c565b6001600160a01b03821660009081526020819052604090205481811015610fcb5760405162461bcd60e51b81526004018080602001828103825260228152602001806110556022913960400191505060405180910390fd5b6001600160a01b0383166000818152602081815260408083208686039055600280548790039055805186815290519293927fddf252ad1be2c89b69c2b068fc378daa952ba7f163c4a11628f55a4df523b3ef929181900390910190a3505050565b50505056fe45524332303a207472616e7366657220746f20746865207a65726f206164647265737345524332303a206275726e20616d6f756e7420657863656564732062616c616e636545524332303a20617070726f766520746f20746865207a65726f206164647265737345524332303a207472616e7366657220616d6f756e7420657863656564732062616c616e636545524332303a207472616e7366657220616d6f756e74206578636565647320616c6c6f77616e636545524332303a206275726e2066726f6d20746865207a65726f206164647265737345524332303a207472616e736665722066726f6d20746865207a65726f206164647265737345524332303a20617070726f76652066726f6d20746865207a65726f206164647265737345524332303a2064656372656173656420616c6c6f77616e63652062656c6f77207a65726fa2646970667358221220497c8e36a692755527d00f36ee021020409fef917c0acd1365130735acd8203e64736f6c63430007060033",
  "devdoc": {
    "kind": "dev",
    "methods": {},
    "version": 1
  },
  "userdoc": {
    "kind": "user",
    "methods": {},
    "version": 1
  },
  "storageLayout": {
    "storage": [
      {
        "astId": 16201,
        "contract": "contracts/routers/InstantRouter.sol:InstantRouter",
        "label": "requests",
        "offset": 0,
        "slot": "0",
        "type": "t_mapping(t_bytes32,t_struct(InstantTransferRequest)18427_storage)"
      },
      {
        "astId": 16205,
        "contract": "contracts/routers/InstantRouter.sol:InstantRouter",
        "label": "isUsed",
        "offset": 0,
        "slot": "1",
        "type": "t_mapping(t_bytes32,t_bool)"
      },
      {
        "astId": 16210,
        "contract": "contracts/routers/InstantRouter.sol:InstantRouter",
        "label": "debts",
        "offset": 0,
        "slot": "2",
        "type": "t_mapping(t_address,t_array(t_struct(debt)18436_storage)dyn_storage)"
      },
      {
        "astId": 16212,
        "contract": "contracts/routers/InstantRouter.sol:InstantRouter",
        "label": "punisherReward",
        "offset": 0,
        "slot": "3",
        "type": "t_uint256"
      },
      {
        "astId": 16215,
        "contract": "contracts/routers/InstantRouter.sol:InstantRouter",
        "label": "paybackDeadline",
        "offset": 0,
        "slot": "4",
        "type": "t_uint256"
      },
      {
        "astId": 16217,
        "contract": "contracts/routers/InstantRouter.sol:InstantRouter",
        "label": "liquidityPoolFactory",
        "offset": 0,
        "slot": "5",
        "type": "t_address"
      },
      {
        "astId": 16220,
        "contract": "contracts/routers/InstantRouter.sol:InstantRouter",
        "label": "wrappedBitcoin",
        "offset": 0,
        "slot": "6",
        "type": "t_address"
      },
      {
        "astId": 16223,
        "contract": "contracts/routers/InstantRouter.sol:InstantRouter",
        "label": "ccTransferRouter",
        "offset": 0,
        "slot": "7",
        "type": "t_address"
      },
      {
        "astId": 16226,
        "contract": "contracts/routers/InstantRouter.sol:InstantRouter",
        "label": "bitcoinInstantPool",
        "offset": 0,
        "slot": "8",
        "type": "t_address"
      },
      {
        "astId": 16228,
        "contract": "contracts/routers/InstantRouter.sol:InstantRouter",
        "label": "TeleportDAOToken",
        "offset": 0,
        "slot": "9",
        "type": "t_address"
      },
      {
        "astId": 16230,
        "contract": "contracts/routers/InstantRouter.sol:InstantRouter",
        "label": "WAVAX",
        "offset": 0,
        "slot": "10",
        "type": "t_address"
      },
      {
        "astId": 16232,
        "contract": "contracts/routers/InstantRouter.sol:InstantRouter",
        "label": "exchangeRouter",
        "offset": 0,
        "slot": "11",
        "type": "t_address"
      },
      {
        "astId": 16234,
        "contract": "contracts/routers/InstantRouter.sol:InstantRouter",
        "label": "staking",
        "offset": 0,
        "slot": "12",
        "type": "t_address"
      },
      {
        "astId": 16236,
        "contract": "contracts/routers/InstantRouter.sol:InstantRouter",
        "label": "bitcoinRelay",
        "offset": 0,
        "slot": "13",
        "type": "t_address"
      },
      {
        "astId": 16239,
        "contract": "contracts/routers/InstantRouter.sol:InstantRouter",
        "label": "collateralRatio",
        "offset": 0,
        "slot": "14",
        "type": "t_uint256"
      },
      {
        "astId": 16242,
        "contract": "contracts/routers/InstantRouter.sol:InstantRouter",
        "label": "owner",
        "offset": 0,
        "slot": "15",
        "type": "t_address"
      }
    ],
    "types": {
      "t_address": {
        "encoding": "inplace",
        "label": "address",
        "numberOfBytes": "20"
      },
      "t_array(t_struct(debt)18436_storage)dyn_storage": {
        "base": "t_struct(debt)18436_storage",
        "encoding": "dynamic_array",
        "label": "struct IInstantRouter.debt[]",
        "numberOfBytes": "32"
      },
      "t_bool": {
        "encoding": "inplace",
        "label": "bool",
        "numberOfBytes": "1"
      },
      "t_bytes32": {
        "encoding": "inplace",
        "label": "bytes32",
        "numberOfBytes": "32"
      },
      "t_mapping(t_address,t_array(t_struct(debt)18436_storage)dyn_storage)": {
        "encoding": "mapping",
        "key": "t_address",
        "label": "mapping(address => struct IInstantRouter.debt[])",
        "numberOfBytes": "32",
        "value": "t_array(t_struct(debt)18436_storage)dyn_storage"
      },
      "t_mapping(t_bytes32,t_bool)": {
        "encoding": "mapping",
        "key": "t_bytes32",
        "label": "mapping(bytes32 => bool)",
        "numberOfBytes": "32",
        "value": "t_bool"
      },
      "t_mapping(t_bytes32,t_struct(InstantTransferRequest)18427_storage)": {
        "encoding": "mapping",
        "key": "t_bytes32",
        "label": "mapping(bytes32 => struct IInstantRouter.InstantTransferRequest)",
        "numberOfBytes": "32",
        "value": "t_struct(InstantTransferRequest)18427_storage"
      },
      "t_struct(InstantTransferRequest)18427_storage": {
        "encoding": "inplace",
        "label": "struct IInstantRouter.InstantTransferRequest",
        "members": [
          {
            "astId": 18412,
            "contract": "contracts/routers/InstantRouter.sol:InstantRouter",
            "label": "user",
            "offset": 0,
            "slot": "0",
            "type": "t_address"
          },
          {
            "astId": 18414,
            "contract": "contracts/routers/InstantRouter.sol:InstantRouter",
            "label": "collateralAmount",
            "offset": 0,
            "slot": "1",
            "type": "t_uint256"
          },
          {
            "astId": 18416,
            "contract": "contracts/routers/InstantRouter.sol:InstantRouter",
            "label": "wrappedBitcoinAmount",
            "offset": 0,
            "slot": "2",
            "type": "t_uint256"
          },
          {
            "astId": 18418,
            "contract": "contracts/routers/InstantRouter.sol:InstantRouter",
            "label": "creationTime",
            "offset": 0,
            "slot": "3",
            "type": "t_uint256"
          },
          {
            "astId": 18420,
            "contract": "contracts/routers/InstantRouter.sol:InstantRouter",
            "label": "deadline",
            "offset": 0,
            "slot": "4",
            "type": "t_uint256"
          },
          {
            "astId": 18422,
            "contract": "contracts/routers/InstantRouter.sol:InstantRouter",
            "label": "paybackDeadline",
            "offset": 0,
            "slot": "5",
            "type": "t_uint256"
          },
          {
            "astId": 18424,
            "contract": "contracts/routers/InstantRouter.sol:InstantRouter",
            "label": "isPaidback",
            "offset": 0,
            "slot": "6",
            "type": "t_bool"
          },
          {
            "astId": 18426,
            "contract": "contracts/routers/InstantRouter.sol:InstantRouter",
            "label": "isUsed",
            "offset": 1,
            "slot": "6",
            "type": "t_bool"
          }
        ],
        "numberOfBytes": "224"
      },
      "t_struct(debt)18436_storage": {
        "encoding": "inplace",
        "label": "struct IInstantRouter.debt",
        "members": [
          {
            "astId": 18429,
            "contract": "contracts/routers/InstantRouter.sol:InstantRouter",
            "label": "user",
            "offset": 0,
            "slot": "0",
            "type": "t_address"
          },
          {
            "astId": 18431,
            "contract": "contracts/routers/InstantRouter.sol:InstantRouter",
            "label": "wrappedBitcoinAmount",
            "offset": 0,
            "slot": "1",
            "type": "t_uint256"
          },
          {
            "astId": 18433,
            "contract": "contracts/routers/InstantRouter.sol:InstantRouter",
            "label": "collateralAmount",
            "offset": 0,
            "slot": "2",
            "type": "t_uint256"
          },
          {
            "astId": 18435,
            "contract": "contracts/routers/InstantRouter.sol:InstantRouter",
            "label": "deadline",
            "offset": 0,
            "slot": "3",
            "type": "t_uint256"
          }
        ],
        "numberOfBytes": "128"
      },
      "t_uint256": {
        "encoding": "inplace",
        "label": "uint256",
        "numberOfBytes": "32"
      }
    }
  }
}