{
  "address": "0x4F5FfB0b5330deAD061f4c4Dc183ae4119eAa29f",
  "abi": [
    {
      "inputs": [
        {
          "internalType": "address",
          "name": "_teleBTC",
          "type": "address"
        },
        {
          "internalType": "address",
          "name": "_instantRouter",
          "type": "address"
        },
        {
          "internalType": "uint256",
          "name": "_instantPercentageFee",
          "type": "uint256"
        },
        {
          "internalType": "string",
          "name": "_name",
          "type": "string"
        },
        {
          "internalType": "string",
          "name": "_symbol",
          "type": "string"
        }
      ],
      "stateMutability": "nonpayable",
      "type": "constructor"
    },
    {
      "anonymous": false,
      "inputs": [
        {
          "indexed": true,
          "internalType": "address",
          "name": "user",
          "type": "address"
        },
        {
          "indexed": false,
          "internalType": "uint256",
          "name": "teleBTCAmount",
          "type": "uint256"
        },
        {
          "indexed": false,
          "internalType": "uint256",
          "name": "instantPoolTokenAmount",
          "type": "uint256"
        }
      ],
      "name": "AddLiquidity",
      "type": "event"
    },
    {
      "anonymous": false,
      "inputs": [
        {
          "indexed": true,
          "internalType": "address",
          "name": "owner",
          "type": "address"
        },
        {
          "indexed": true,
          "internalType": "address",
          "name": "spender",
          "type": "address"
        },
        {
          "indexed": false,
          "internalType": "uint256",
          "name": "value",
          "type": "uint256"
        }
      ],
      "name": "Approval",
      "type": "event"
    },
    {
      "anonymous": false,
      "inputs": [
        {
          "indexed": true,
          "internalType": "address",
          "name": "user",
          "type": "address"
        },
        {
          "indexed": false,
          "internalType": "uint256",
          "name": "requestedAmount",
          "type": "uint256"
        },
        {
          "indexed": false,
          "internalType": "uint256",
          "name": "instantFee",
          "type": "uint256"
        }
      ],
      "name": "InstantLoan",
      "type": "event"
    },
    {
      "anonymous": false,
      "inputs": [
        {
          "indexed": true,
          "internalType": "address",
          "name": "previousOwner",
          "type": "address"
        },
        {
          "indexed": true,
          "internalType": "address",
          "name": "newOwner",
          "type": "address"
        }
      ],
      "name": "OwnershipTransferred",
      "type": "event"
    },
    {
      "anonymous": false,
      "inputs": [
        {
          "indexed": true,
          "internalType": "address",
          "name": "user",
          "type": "address"
        },
        {
          "indexed": false,
          "internalType": "uint256",
          "name": "teleBTCAmount",
          "type": "uint256"
        },
        {
          "indexed": false,
          "internalType": "uint256",
          "name": "instantPoolTokenAmount",
          "type": "uint256"
        }
      ],
      "name": "RemoveLiquidity",
      "type": "event"
    },
    {
      "anonymous": false,
      "inputs": [
        {
          "indexed": true,
          "internalType": "address",
          "name": "from",
          "type": "address"
        },
        {
          "indexed": true,
          "internalType": "address",
          "name": "to",
          "type": "address"
        },
        {
          "indexed": false,
          "internalType": "uint256",
          "name": "value",
          "type": "uint256"
        }
      ],
      "name": "Transfer",
      "type": "event"
    },
    {
      "inputs": [
        {
          "internalType": "address",
          "name": "_user",
          "type": "address"
        },
        {
          "internalType": "uint256",
          "name": "_amount",
          "type": "uint256"
        }
      ],
      "name": "addLiquidity",
      "outputs": [
        {
          "internalType": "uint256",
          "name": "",
          "type": "uint256"
        }
      ],
      "stateMutability": "nonpayable",
      "type": "function"
    },
    {
      "inputs": [
        {
          "internalType": "uint256",
          "name": "_amount",
          "type": "uint256"
        }
      ],
      "name": "addLiquidityWithoutMint",
      "outputs": [
        {
          "internalType": "bool",
          "name": "",
          "type": "bool"
        }
      ],
      "stateMutability": "nonpayable",
      "type": "function"
    },
    {
      "inputs": [
        {
          "internalType": "address",
          "name": "owner",
          "type": "address"
        },
        {
          "internalType": "address",
          "name": "spender",
          "type": "address"
        }
      ],
      "name": "allowance",
      "outputs": [
        {
          "internalType": "uint256",
          "name": "",
          "type": "uint256"
        }
      ],
      "stateMutability": "view",
      "type": "function"
    },
    {
      "inputs": [
        {
          "internalType": "address",
          "name": "spender",
          "type": "address"
        },
        {
          "internalType": "uint256",
          "name": "amount",
          "type": "uint256"
        }
      ],
      "name": "approve",
      "outputs": [
        {
          "internalType": "bool",
          "name": "",
          "type": "bool"
        }
      ],
      "stateMutability": "nonpayable",
      "type": "function"
    },
    {
      "inputs": [],
      "name": "availableTeleBTC",
      "outputs": [
        {
          "internalType": "uint256",
          "name": "",
          "type": "uint256"
        }
      ],
      "stateMutability": "view",
      "type": "function"
    },
    {
      "inputs": [
        {
          "internalType": "address",
          "name": "account",
          "type": "address"
        }
      ],
      "name": "balanceOf",
      "outputs": [
        {
          "internalType": "uint256",
          "name": "",
          "type": "uint256"
        }
      ],
      "stateMutability": "view",
      "type": "function"
    },
    {
      "inputs": [],
      "name": "decimals",
      "outputs": [
        {
          "internalType": "uint8",
          "name": "",
          "type": "uint8"
        }
      ],
      "stateMutability": "view",
      "type": "function"
    },
    {
      "inputs": [
        {
          "internalType": "address",
          "name": "spender",
          "type": "address"
        },
        {
          "internalType": "uint256",
          "name": "subtractedValue",
          "type": "uint256"
        }
      ],
      "name": "decreaseAllowance",
      "outputs": [
        {
          "internalType": "bool",
          "name": "",
          "type": "bool"
        }
      ],
      "stateMutability": "nonpayable",
      "type": "function"
    },
    {
      "inputs": [
        {
          "internalType": "address",
          "name": "_user",
          "type": "address"
        },
        {
          "internalType": "uint256",
          "name": "_amount",
          "type": "uint256"
        }
      ],
      "name": "getLoan",
      "outputs": [
        {
          "internalType": "bool",
          "name": "",
          "type": "bool"
        }
      ],
      "stateMutability": "nonpayable",
      "type": "function"
    },
    {
      "inputs": [
        {
          "internalType": "address",
          "name": "spender",
          "type": "address"
        },
        {
          "internalType": "uint256",
          "name": "addedValue",
          "type": "uint256"
        }
      ],
      "name": "increaseAllowance",
      "outputs": [
        {
          "internalType": "bool",
          "name": "",
          "type": "bool"
        }
      ],
      "stateMutability": "nonpayable",
      "type": "function"
    },
    {
      "inputs": [],
      "name": "instantPercentageFee",
      "outputs": [
        {
          "internalType": "uint256",
          "name": "",
          "type": "uint256"
        }
      ],
      "stateMutability": "view",
      "type": "function"
    },
    {
      "inputs": [],
      "name": "instantRouter",
      "outputs": [
        {
          "internalType": "address",
          "name": "",
          "type": "address"
        }
      ],
      "stateMutability": "view",
      "type": "function"
    },
    {
      "inputs": [],
      "name": "name",
      "outputs": [
        {
          "internalType": "string",
          "name": "",
          "type": "string"
        }
      ],
      "stateMutability": "view",
      "type": "function"
    },
    {
      "inputs": [],
      "name": "owner",
      "outputs": [
        {
          "internalType": "address",
          "name": "",
          "type": "address"
        }
      ],
      "stateMutability": "view",
      "type": "function"
    },
    {
      "inputs": [
        {
          "internalType": "address",
          "name": "_user",
          "type": "address"
        },
        {
          "internalType": "uint256",
          "name": "_instantPoolTokenAmount",
          "type": "uint256"
        }
      ],
      "name": "removeLiquidity",
      "outputs": [
        {
          "internalType": "uint256",
          "name": "",
          "type": "uint256"
        }
      ],
      "stateMutability": "nonpayable",
      "type": "function"
    },
    {
      "inputs": [],
      "name": "renounceOwnership",
      "outputs": [],
      "stateMutability": "nonpayable",
      "type": "function"
    },
    {
      "inputs": [
        {
          "internalType": "uint256",
          "name": "_instantPercentageFee",
          "type": "uint256"
        }
      ],
      "name": "setInstantPercentageFee",
      "outputs": [],
      "stateMutability": "nonpayable",
      "type": "function"
    },
    {
      "inputs": [
        {
          "internalType": "address",
          "name": "_instantRouter",
          "type": "address"
        }
      ],
      "name": "setInstantRouter",
      "outputs": [],
      "stateMutability": "nonpayable",
      "type": "function"
    },
    {
      "inputs": [
        {
          "internalType": "address",
          "name": "_teleBTC",
          "type": "address"
        }
      ],
      "name": "setTeleBTC",
      "outputs": [],
      "stateMutability": "nonpayable",
      "type": "function"
    },
    {
      "inputs": [],
      "name": "symbol",
      "outputs": [
        {
          "internalType": "string",
          "name": "",
          "type": "string"
        }
      ],
      "stateMutability": "view",
      "type": "function"
    },
    {
      "inputs": [],
      "name": "teleBTC",
      "outputs": [
        {
          "internalType": "address",
          "name": "",
          "type": "address"
        }
      ],
      "stateMutability": "view",
      "type": "function"
    },
    {
      "inputs": [],
      "name": "totalAddedTeleBTC",
      "outputs": [
        {
          "internalType": "uint256",
          "name": "",
          "type": "uint256"
        }
      ],
      "stateMutability": "view",
      "type": "function"
    },
    {
      "inputs": [],
      "name": "totalSupply",
      "outputs": [
        {
          "internalType": "uint256",
          "name": "",
          "type": "uint256"
        }
      ],
      "stateMutability": "view",
      "type": "function"
    },
    {
      "inputs": [],
      "name": "totalUnpaidLoan",
      "outputs": [
        {
          "internalType": "uint256",
          "name": "",
          "type": "uint256"
        }
      ],
      "stateMutability": "view",
      "type": "function"
    },
    {
      "inputs": [
        {
          "internalType": "address",
          "name": "recipient",
          "type": "address"
        },
        {
          "internalType": "uint256",
          "name": "amount",
          "type": "uint256"
        }
      ],
      "name": "transfer",
      "outputs": [
        {
          "internalType": "bool",
          "name": "",
          "type": "bool"
        }
      ],
      "stateMutability": "nonpayable",
      "type": "function"
    },
    {
      "inputs": [
        {
          "internalType": "address",
          "name": "sender",
          "type": "address"
        },
        {
          "internalType": "address",
          "name": "recipient",
          "type": "address"
        },
        {
          "internalType": "uint256",
          "name": "amount",
          "type": "uint256"
        }
      ],
      "name": "transferFrom",
      "outputs": [
        {
          "internalType": "bool",
          "name": "",
          "type": "bool"
        }
      ],
      "stateMutability": "nonpayable",
      "type": "function"
    },
    {
      "inputs": [
        {
          "internalType": "address",
          "name": "newOwner",
          "type": "address"
        }
      ],
      "name": "transferOwnership",
      "outputs": [],
      "stateMutability": "nonpayable",
      "type": "function"
    }
  ],
  "transactionHash": "0x8a411928b7b4c32aabb5489af8381df9fbb9c4a5b57a03d7340d9388cb46ce2d",
  "args": [
    "0x54e0DC67bE95D07460FCD82Cf97f88300046775a",
    "0x0618D164B7ab796Be9A3E6bB2D42182aD2DFeE8c",
    50,
    "InstantPoolToken",
    "IPT"
  ],
  "numDeployments": 1,
  "solcInputHash": "6f3e3be3e786d78529510e6414d29cbe",
  "bytecode": "0x60806040523480156200001157600080fd5b5060405162001b4138038062001b41833981016040819052620000349162000330565b81816000826003908051906020019062000050929190620001ba565b50815162000066906004906020850190620001ba565b5080156200007a576200007a3382620000d7565b50505062000097620000916200016460201b60201c565b62000168565b50506001600655600780546001600160a01b039485166001600160a01b031991821617909155600a8054939094169216919091179091556008556200043f565b8060026000828254620000eb9190620003c7565b90915550506001600160a01b038216600090815260208190526040812080548392906200011a908490620003c7565b90915550506040518181526001600160a01b038316906000907fddf252ad1be2c89b69c2b068fc378daa952ba7f163c4a11628f55a4df523b3ef9060200160405180910390a35050565b3390565b600580546001600160a01b038381166001600160a01b0319831681179093556040519116919082907f8be0079c531659141344cd1fd0a4f28419497f9722a3daafe3b4186f6b6457e090600090a35050565b828054620001c890620003ec565b90600052602060002090601f016020900481019282620001ec576000855562000237565b82601f106200020757805160ff191683800117855562000237565b8280016001018555821562000237579182015b82811115620002375782518255916020019190600101906200021a565b506200024592915062000249565b5090565b5b808211156200024557600081556001016200024a565b80516001600160a01b03811681146200027857600080fd5b919050565b600082601f8301126200028e578081fd5b81516001600160401b0380821115620002ab57620002ab62000429565b604051601f8301601f19908116603f01168101908282118183101715620002d657620002d662000429565b81604052838152602092508683858801011115620002f2578485fd5b8491505b83821015620003155785820183015181830184015290820190620002f6565b838211156200032657848385830101525b9695505050505050565b600080600080600060a0868803121562000348578081fd5b620003538662000260565b9450620003636020870162000260565b6040870151606088015191955093506001600160401b038082111562000387578283fd5b6200039589838a016200027d565b93506080880151915080821115620003ab578283fd5b50620003ba888289016200027d565b9150509295509295909350565b60008219821115620003e757634e487b7160e01b81526011600452602481fd5b500190565b6002810460018216806200040157607f821691505b602082108114156200042357634e487b7160e01b600052602260045260246000fd5b50919050565b634e487b7160e01b600052604160045260246000fd5b6116f2806200044f6000396000f3fe608060405234801561001057600080fd5b50600436106101a85760003560e01c8063870ba6cf116100f9578063a9059cbb11610097578063dd62ed3e11610071578063dd62ed3e1461035a578063e35a0a8814610393578063e49bce3c146103a6578063f2fde38b146103af576101a8565b8063a9059cbb1461032b578063cfff37f81461033e578063dcebe9bb14610351576101a8565b806395d89b41116100d357806395d89b41146102ea578063a1c51586146102f2578063a201ccf614610305578063a457c2d714610318576101a8565b8063870ba6cf1461029b5780638d3d78cd146102ae5780638da5cb5b146102d9576101a8565b8063313ce5671161016657806370a082311161014057806370a0823114610265578063715018a61461027857806375e67005146102805780637f0f181714610288576101a8565b8063313ce56714610230578063395093511461023f5780635668870014610252576101a8565b8062440914146101ad57806306fdde03146101c2578063095ea7b3146101e057806318160ddd1461020357806323b872dd1461021557806329894ff114610228575b600080fd5b6101c06101bb3660046114cd565b6103c2565b005b6101ca6103fa565b6040516101d791906114fd565b60405180910390f35b6101f36101ee366004611484565b61048c565b60405190151581526020016101d7565b6002545b6040519081526020016101d7565b6101f3610223366004611449565b6104a2565b610207610551565b604051601281526020016101d7565b6101f361024d366004611484565b6105d2565b610207610260366004611484565b610609565b6102076102733660046113f6565b610780565b6101c061079f565b6102076107d5565b6101c06102963660046113f6565b610807565b6101c06102a93660046113f6565b610853565b6007546102c1906001600160a01b031681565b6040516001600160a01b0390911681526020016101d7565b6005546001600160a01b03166102c1565b6101ca61089f565b6101f3610300366004611484565b6108ae565b610207610313366004611484565b610a9f565b6101f3610326366004611484565b610c4b565b6101f3610339366004611484565b610ce6565b6101f361034c3660046114cd565b610cf3565b61020760095481565b610207610368366004611417565b6001600160a01b03918216600090815260016020908152604080832093909416825291909152205490565b600a546102c1906001600160a01b031681565b61020760085481565b6101c06103bd3660046113f6565b610e1d565b6005546001600160a01b031633146103f55760405162461bcd60e51b81526004016103ec90611591565b60405180910390fd5b600855565b6060600380546104099061166b565b80601f01602080910402602001604051908101604052809291908181526020018280546104359061166b565b80156104825780601f1061045757610100808354040283529160200191610482565b820191906000526020600020905b81548152906001019060200180831161046557829003601f168201915b5050505050905090565b6000610499338484610eb8565b50600192915050565b6001600160a01b0383166000908152600160209081526040808320338452909152812054828110156105275760405162461bcd60e51b815260206004820152602860248201527f45524332303a207472616e7366657220616d6f756e74206578636565647320616044820152676c6c6f77616e636560c01b60648201526084016103ec565b610532858585610fdd565b61054685336105418685611654565b610eb8565b506001949350505050565b6007546040516370a0823160e01b81523060048201526000916001600160a01b0316906370a082319060240160206040518083038186803b15801561059557600080fd5b505afa1580156105a9573d6000803e3d6000fd5b505050506040513d601f19601f820116820180604052508101906105cd91906114e5565b905090565b3360008181526001602090815260408083206001600160a01b038716845290915281205490916104999185906105419086906115fd565b60006002600654141561062e5760405162461bcd60e51b81526004016103ec906115c6565b6002600655816106505760405162461bcd60e51b81526004016103ec90611550565b6007546040516323b872dd60e01b8152336004820152306024820152604481018490526000916001600160a01b0316906323b872dd90606401602060405180830381600087803b1580156106a357600080fd5b505af11580156106b7573d6000803e3d6000fd5b505050506040513d601f19601f820116820180604052508101906106db91906114ad565b5060095415806106eb5750600254155b156106f7575081610714565b6009546002546107079085611635565b6107119190611615565b90505b8260095461072291906115fd565b60095561072f84826111b5565b60408051848152602081018390526001600160a01b038616917f06239653922ac7bea6aa2b19dc486b9361821d37712eb796adfd38d81de278ca91015b60405180910390a260016006559392505050565b6001600160a01b0381166000908152602081905260409020545b919050565b6005546001600160a01b031633146107c95760405162461bcd60e51b81526004016103ec90611591565b6107d3600061123e565b565b6000806107e0610551565b90508060095410156107f3576000610801565b806009546108019190611654565b91505090565b6005546001600160a01b031633146108315760405162461bcd60e51b81526004016103ec90611591565b600780546001600160a01b0319166001600160a01b0392909216919091179055565b6005546001600160a01b0316331461087d5760405162461bcd60e51b81526004016103ec90611591565b600a80546001600160a01b0319166001600160a01b0392909216919091179055565b6060600480546104099061166b565b6000600260065414156108d35760405162461bcd60e51b81526004016103ec906115c6565b6002600655600a546001600160a01b0316331461093d5760405162461bcd60e51b815260206004820152602260248201527f496e7374616e74506f6f6c3a2073656e646572206973206e6f7420616c6c6f77604482015261195960f21b60648201526084016103ec565b81610946610551565b10156109a55760405162461bcd60e51b815260206004820152602860248201527f496e7374616e74506f6f6c3a206c6971756964697479206973206e6f7420737560448201526719999a58da595b9d60c21b60648201526084016103ec565b6000612710600854846109b89190611635565b6109c29190611615565b60075460405163a9059cbb60e01b81526001600160a01b0387811660048301526024820187905292935091169063a9059cbb90604401602060405180830381600087803b158015610a1257600080fd5b505af1158015610a26573d6000803e3d6000fd5b505050506040513d601f19601f82011682018060405250810190610a4a91906114ad565b5060408051848152602081018390526001600160a01b038616917f0b4a3e47d690ec5b072e50757ed5caa5883ea1453ec15bca511e106f721a351f910160405180910390a26001915050600160065592915050565b600060026006541415610ac45760405162461bcd60e51b81526004016103ec906115c6565b600260065581610ae65760405162461bcd60e51b81526004016103ec90611550565b81610af033610780565b1015610b4d5760405162461bcd60e51b815260206004820152602660248201527f496e7374616e74506f6f6c3a2062616c616e6365206973206e6f7420737566666044820152651a58da595b9d60d21b60648201526084016103ec565b6000610b5860025490565b600954610b659085611635565b610b6f9190611615565b905080600954610b7f9190611654565b60095560075460405163a9059cbb60e01b81526001600160a01b038681166004830152602482018490529091169063a9059cbb90604401602060405180830381600087803b158015610bd057600080fd5b505af1158015610be4573d6000803e3d6000fd5b505050506040513d601f19601f82011682018060405250810190610c0891906114ad565b50610c133384611290565b604080518281526020810185905233917f0fbf06c058b90cb038a618f8c2acbf6145f8b3570fd1fa56abb8f0f3f05b36e8910161076c565b3360009081526001602090815260408083206001600160a01b038616845290915281205482811015610ccd5760405162461bcd60e51b815260206004820152602560248201527f45524332303a2064656372656173656420616c6c6f77616e63652062656c6f77604482015264207a65726f60d81b60648201526084016103ec565b610cdc33856105418685611654565b5060019392505050565b6000610499338484610fdd565b600060026006541415610d185760405162461bcd60e51b81526004016103ec906115c6565b600260065581610d3a5760405162461bcd60e51b81526004016103ec90611550565b6007546040516323b872dd60e01b8152336004820152306024820152604481018490526001600160a01b03909116906323b872dd90606401602060405180830381600087803b158015610d8c57600080fd5b505af1158015610da0573d6000803e3d6000fd5b505050506040513d601f19601f82011682018060405250810190610dc491906114ad565b5081600954610dd391906115fd565b600955604080518381526000602082015233917f06239653922ac7bea6aa2b19dc486b9361821d37712eb796adfd38d81de278ca910160405180910390a250600180600655919050565b6005546001600160a01b03163314610e475760405162461bcd60e51b81526004016103ec90611591565b6001600160a01b038116610eac5760405162461bcd60e51b815260206004820152602660248201527f4f776e61626c653a206e6577206f776e657220697320746865207a65726f206160448201526564647265737360d01b60648201526084016103ec565b610eb58161123e565b50565b6001600160a01b038316610f1a5760405162461bcd60e51b8152602060048201526024808201527f45524332303a20617070726f76652066726f6d20746865207a65726f206164646044820152637265737360e01b60648201526084016103ec565b6001600160a01b038216610f7b5760405162461bcd60e51b815260206004820152602260248201527f45524332303a20617070726f766520746f20746865207a65726f206164647265604482015261737360f01b60648201526084016103ec565b6001600160a01b0383811660008181526001602090815260408083209487168084529482529182902085905590518481527f8c5be1e5ebec7d5bd14f71427d1e84f3dd0314c0f7b2291e5b200ac8c7c3b92591015b60405180910390a3505050565b6001600160a01b0383166110415760405162461bcd60e51b815260206004820152602560248201527f45524332303a207472616e736665722066726f6d20746865207a65726f206164604482015264647265737360d81b60648201526084016103ec565b6001600160a01b0382166110a35760405162461bcd60e51b815260206004820152602360248201527f45524332303a207472616e7366657220746f20746865207a65726f206164647260448201526265737360e81b60648201526084016103ec565b6001600160a01b0383166000908152602081905260409020548181101561111b5760405162461bcd60e51b815260206004820152602660248201527f45524332303a207472616e7366657220616d6f756e7420657863656564732062604482015265616c616e636560d01b60648201526084016103ec565b6111258282611654565b6001600160a01b03808616600090815260208190526040808220939093559085168152908120805484929061115b9084906115fd565b92505081905550826001600160a01b0316846001600160a01b03167fddf252ad1be2c89b69c2b068fc378daa952ba7f163c4a11628f55a4df523b3ef846040516111a791815260200190565b60405180910390a350505050565b80600260008282546111c791906115fd565b90915550506001600160a01b038216600090815260208190526040812080548392906111f49084906115fd565b90915550506040518181526001600160a01b038316906000907fddf252ad1be2c89b69c2b068fc378daa952ba7f163c4a11628f55a4df523b3ef9060200160405180910390a35050565b600580546001600160a01b038381166001600160a01b0319831681179093556040519116919082907f8be0079c531659141344cd1fd0a4f28419497f9722a3daafe3b4186f6b6457e090600090a35050565b6001600160a01b0382166112f05760405162461bcd60e51b815260206004820152602160248201527f45524332303a206275726e2066726f6d20746865207a65726f206164647265736044820152607360f81b60648201526084016103ec565b6001600160a01b038216600090815260208190526040902054818110156113645760405162461bcd60e51b815260206004820152602260248201527f45524332303a206275726e20616d6f756e7420657863656564732062616c616e604482015261636560f01b60648201526084016103ec565b61136e8282611654565b6001600160a01b0384166000908152602081905260408120919091556002805484929061139c908490611654565b90915550506040518281526000906001600160a01b038516907fddf252ad1be2c89b69c2b068fc378daa952ba7f163c4a11628f55a4df523b3ef90602001610fd0565b80356001600160a01b038116811461079a57600080fd5b600060208284031215611407578081fd5b611410826113df565b9392505050565b60008060408385031215611429578081fd5b611432836113df565b9150611440602084016113df565b90509250929050565b60008060006060848603121561145d578081fd5b611466846113df565b9250611474602085016113df565b9150604084013590509250925092565b60008060408385031215611496578182fd5b61149f836113df565b946020939093013593505050565b6000602082840312156114be578081fd5b81518015158114611410578182fd5b6000602082840312156114de578081fd5b5035919050565b6000602082840312156114f6578081fd5b5051919050565b6000602080835283518082850152825b818110156115295785810183015185820160400152820161150d565b8181111561153a5783604083870101525b50601f01601f1916929092016040019392505050565b60208082526021908201527f496e7374616e74506f6f6c3a20696e70757420616d6f756e74206973207a65726040820152606f60f81b606082015260800190565b6020808252818101527f4f776e61626c653a2063616c6c6572206973206e6f7420746865206f776e6572604082015260600190565b6020808252601f908201527f5265656e7472616e637947756172643a207265656e7472616e742063616c6c00604082015260600190565b60008219821115611610576116106116a6565b500190565b60008261163057634e487b7160e01b81526012600452602481fd5b500490565b600081600019048311821515161561164f5761164f6116a6565b500290565b600082821015611666576116666116a6565b500390565b60028104600182168061167f57607f821691505b602082108114156116a057634e487b7160e01b600052602260045260246000fd5b50919050565b634e487b7160e01b600052601160045260246000fdfea2646970667358221220cf87564924c5c011229fd816edee69cbf99da17144d899a228e8349ed4e4a37e64736f6c63430008020033",
  "devdoc": {
    "kind": "dev",
    "methods": {
      "addLiquidity(address,uint256)": {
        "params": {
          "_amount": "Amount of liquidity that user wants to add   ",
          "_user": "Address of user who receives instant pool token        "
        },
        "returns": {
          "_0": "Amount of instant pool token that user receives"
        }
      },
      "addLiquidityWithoutMint(uint256)": {
        "details": "Updates totalAddedTeleBTC (transferring teleBTC directly does not update it)",
        "params": {
          "_amount": "Amount of liquidity that user wants to add   "
        },
        "returns": {
          "_0": "True if liquidity is added successfully"
        }
      },
      "allowance(address,address)": {
        "details": "See {IERC20-allowance}."
      },
      "approve(address,uint256)": {
        "details": "See {IERC20-approve}. Requirements: - `spender` cannot be the zero address."
      },
      "availableTeleBTC()": {
        "returns": {
          "_0": "Available amount of teleBTC that can be borrowed    "
        }
      },
      "balanceOf(address)": {
        "details": "See {IERC20-balanceOf}."
      },
      "decimals()": {
        "details": "Returns the number of decimals used to get its user representation. For example, if `decimals` equals `2`, a balance of `505` tokens should be displayed to a user as `5,05` (`505 / 10 ** 2`). Tokens usually opt for a value of 18, imitating the relationship between Ether and Wei. This is the value {ERC20} uses, unless this function is overridden; NOTE: This information is only used for _display_ purposes: it in no way affects any of the arithmetic of the contract, including {IERC20-balanceOf} and {IERC20-transfer}."
      },
      "decreaseAllowance(address,uint256)": {
        "details": "Atomically decreases the allowance granted to `spender` by the caller. This is an alternative to {approve} that can be used as a mitigation for problems described in {IERC20-approve}. Emits an {Approval} event indicating the updated allowance. Requirements: - `spender` cannot be the zero address. - `spender` must have allowance for the caller of at least `subtractedValue`."
      },
      "getLoan(address,uint256)": {
        "details": "Only instant router contract can call this",
        "params": {
          "_amount": "Amount of requested loan",
          "_user": "Address of user who wants loan "
        },
        "returns": {
          "_0": "Amount of given loan after reducing the fee "
        }
      },
      "increaseAllowance(address,uint256)": {
        "details": "Atomically increases the allowance granted to `spender` by the caller. This is an alternative to {approve} that can be used as a mitigation for problems described in {IERC20-approve}. Emits an {Approval} event indicating the updated allowance. Requirements: - `spender` cannot be the zero address."
      },
      "name()": {
        "details": "Returns the name of the token."
      },
      "owner()": {
        "details": "Returns the address of the current owner."
      },
      "removeLiquidity(address,uint256)": {
        "params": {
          "_instantPoolTokenAmount": "Amount of instant pool token that is burnt  ",
          "_user": "Address of user who receives teleBTC       "
        },
        "returns": {
          "_0": "Amount of teleBTC that user receives"
        }
      },
      "renounceOwnership()": {
        "details": "Leaves the contract without owner. It will not be possible to call `onlyOwner` functions anymore. Can only be called by the current owner. NOTE: Renouncing ownership will leave the contract without an owner, thereby removing any functionality that is only available to the owner."
      },
      "setInstantPercentageFee(uint256)": {
        "details": "Only current owner can call this",
        "params": {
          "_instantPercentageFee": "The new percentage fee    "
        }
      },
      "setInstantRouter(address)": {
        "details": "Only owner can call this",
        "params": {
          "_instantRouter": "The new instant router contract address"
        }
      },
      "setTeleBTC(address)": {
        "details": "Only owner can call this",
        "params": {
          "_teleBTC": "The new teleBTC contract address"
        }
      },
      "symbol()": {
        "details": "Returns the symbol of the token, usually a shorter version of the name."
      },
      "totalSupply()": {
        "details": "See {IERC20-totalSupply}."
      },
      "totalUnpaidLoan()": {
        "returns": {
          "_0": "Amount of teleBTC that has been borrowed but has not been paid back"
        }
      },
      "transfer(address,uint256)": {
        "details": "See {IERC20-transfer}. Requirements: - `recipient` cannot be the zero address. - the caller must have a balance of at least `amount`."
      },
      "transferFrom(address,address,uint256)": {
        "details": "See {IERC20-transferFrom}. Emits an {Approval} event indicating the updated allowance. This is not required by the EIP. See the note at the beginning of {ERC20}. Requirements: - `sender` and `recipient` cannot be the zero address. - `sender` must have a balance of at least `amount`. - the caller must have allowance for ``sender``'s tokens of at least `amount`."
      },
      "transferOwnership(address)": {
        "details": "Transfers ownership of the contract to a new account (`newOwner`). Can only be called by the current owner."
      }
    },
    "version": 1
  },
  "userdoc": {
    "events": {
      "AddLiquidity(address,uint256,uint256)": {
        "notice": "emits when some liquidity gets added to the pool               "
      },
      "InstantLoan(address,uint256,uint256)": {
        "notice": "Adds collateral to collateral pool"
      },
      "RemoveLiquidity(address,uint256,uint256)": {
        "notice": "Emits when some liquidity gets removed from the pool"
      }
    },
    "kind": "user",
    "methods": {
      "addLiquidity(address,uint256)": {
        "notice": "Adds liquidity to instant pool"
      },
      "addLiquidityWithoutMint(uint256)": {
        "notice": "Adds liquidity to instant pool without minting instant pool tokens"
      },
      "availableTeleBTC()": {
        "notice": "Gives available teleBTC amount                                 "
      },
      "getLoan(address,uint256)": {
        "notice": "Gives loan to user"
      },
      "removeLiquidity(address,uint256)": {
        "notice": "Removes liquidity from instant pool"
      },
      "setInstantPercentageFee(uint256)": {
        "notice": "Changes instant loan fee"
      },
      "setInstantRouter(address)": {
        "notice": "Changes instant router contract address"
      },
      "setTeleBTC(address)": {
        "notice": "Changes teleBTC contract address"
      },
      "totalUnpaidLoan()": {
        "notice": "Gives the unpaid loans amount"
      }
    },
    "version": 1
  },
  "storageLayout": {
    "storage": [
      {
        "astId": 2338,
        "contract": "contracts/pools/InstantPool.sol:InstantPool",
        "label": "_balances",
        "offset": 0,
        "slot": "0",
        "type": "t_mapping(t_address,t_uint256)"
      },
      {
        "astId": 2344,
        "contract": "contracts/pools/InstantPool.sol:InstantPool",
        "label": "_allowances",
        "offset": 0,
        "slot": "1",
        "type": "t_mapping(t_address,t_mapping(t_address,t_uint256))"
      },
      {
        "astId": 2346,
        "contract": "contracts/pools/InstantPool.sol:InstantPool",
        "label": "_totalSupply",
        "offset": 0,
        "slot": "2",
        "type": "t_uint256"
      },
      {
        "astId": 2348,
        "contract": "contracts/pools/InstantPool.sol:InstantPool",
        "label": "_name",
        "offset": 0,
        "slot": "3",
        "type": "t_string_storage"
      },
      {
        "astId": 2350,
        "contract": "contracts/pools/InstantPool.sol:InstantPool",
        "label": "_symbol",
        "offset": 0,
        "slot": "4",
        "type": "t_string_storage"
      },
      {
        "astId": 807,
        "contract": "contracts/pools/InstantPool.sol:InstantPool",
        "label": "_owner",
        "offset": 0,
        "slot": "5",
        "type": "t_address"
      },
      {
        "astId": 1006,
        "contract": "contracts/pools/InstantPool.sol:InstantPool",
        "label": "_status",
        "offset": 0,
        "slot": "6",
        "type": "t_uint256"
      },
      {
        "astId": 11302,
        "contract": "contracts/pools/InstantPool.sol:InstantPool",
        "label": "teleBTC",
        "offset": 0,
        "slot": "7",
        "type": "t_address"
      },
      {
        "astId": 11305,
        "contract": "contracts/pools/InstantPool.sol:InstantPool",
        "label": "instantPercentageFee",
        "offset": 0,
        "slot": "8",
        "type": "t_uint256"
      },
      {
        "astId": 11308,
        "contract": "contracts/pools/InstantPool.sol:InstantPool",
        "label": "totalAddedTeleBTC",
        "offset": 0,
        "slot": "9",
        "type": "t_uint256"
      },
      {
        "astId": 11311,
        "contract": "contracts/pools/InstantPool.sol:InstantPool",
        "label": "instantRouter",
        "offset": 0,
        "slot": "10",
        "type": "t_address"
      }
    ],
    "types": {
      "t_address": {
        "encoding": "inplace",
        "label": "address",
        "numberOfBytes": "20"
      },
      "t_mapping(t_address,t_mapping(t_address,t_uint256))": {
        "encoding": "mapping",
        "key": "t_address",
        "label": "mapping(address => mapping(address => uint256))",
        "numberOfBytes": "32",
        "value": "t_mapping(t_address,t_uint256)"
      },
      "t_mapping(t_address,t_uint256)": {
        "encoding": "mapping",
        "key": "t_address",
        "label": "mapping(address => uint256)",
        "numberOfBytes": "32",
        "value": "t_uint256"
      },
      "t_string_storage": {
        "encoding": "bytes",
        "label": "string",
        "numberOfBytes": "32"
      },
      "t_uint256": {
        "encoding": "inplace",
        "label": "uint256",
        "numberOfBytes": "32"
      }
    }
  }
}