{
  "address": "0x4C275e7eaC9C475B89e314F15F187F678eFd100A",
  "abi": [
    {
      "inputs": [
        {
          "internalType": "address",
          "name": "_feeToSetter",
          "type": "address"
        }
      ],
      "stateMutability": "nonpayable",
      "type": "constructor"
    },
    {
      "anonymous": false,
      "inputs": [
        {
          "indexed": true,
          "internalType": "address",
          "name": "token0",
          "type": "address"
        },
        {
          "indexed": true,
          "internalType": "address",
          "name": "token1",
          "type": "address"
        },
        {
          "indexed": false,
          "internalType": "address",
          "name": "pair",
          "type": "address"
        },
        {
          "indexed": false,
          "internalType": "uint256",
          "name": "liquidityPoolsLength",
          "type": "uint256"
        }
      ],
      "name": "LiquidityPoolCreated",
      "type": "event"
    },
    {
      "inputs": [
        {
          "internalType": "uint256",
          "name": "",
          "type": "uint256"
        }
      ],
      "name": "allLiquidityPools",
      "outputs": [
        {
          "internalType": "address",
          "name": "",
          "type": "address"
        }
      ],
      "stateMutability": "view",
      "type": "function"
    },
    {
      "inputs": [],
      "name": "allLiquidityPoolsLength",
      "outputs": [
        {
          "internalType": "uint256",
          "name": "",
          "type": "uint256"
        }
      ],
      "stateMutability": "view",
      "type": "function"
    },
    {
      "inputs": [
        {
          "internalType": "address",
          "name": "tokenA",
          "type": "address"
        },
        {
          "internalType": "address",
          "name": "tokenB",
          "type": "address"
        }
      ],
      "name": "createLiquidityPool",
      "outputs": [
        {
          "internalType": "address",
          "name": "pair",
          "type": "address"
        }
      ],
      "stateMutability": "nonpayable",
      "type": "function"
    },
    {
      "inputs": [],
      "name": "feeTo",
      "outputs": [
        {
          "internalType": "address",
          "name": "",
          "type": "address"
        }
      ],
      "stateMutability": "view",
      "type": "function"
    },
    {
      "inputs": [],
      "name": "feeToSetter",
      "outputs": [
        {
          "internalType": "address",
          "name": "",
          "type": "address"
        }
      ],
      "stateMutability": "view",
      "type": "function"
    },
    {
      "inputs": [
        {
          "internalType": "address",
          "name": "",
          "type": "address"
        },
        {
          "internalType": "address",
          "name": "",
          "type": "address"
        }
      ],
      "name": "getLiquidityPool",
      "outputs": [
        {
          "internalType": "address",
          "name": "",
          "type": "address"
        }
      ],
      "stateMutability": "view",
      "type": "function"
    },
    {
      "inputs": [
        {
          "internalType": "address",
          "name": "_feeTo",
          "type": "address"
        }
      ],
      "name": "setFeeTo",
      "outputs": [],
      "stateMutability": "nonpayable",
      "type": "function"
    },
    {
      "inputs": [
        {
          "internalType": "address",
          "name": "_feeToSetter",
          "type": "address"
        }
      ],
      "name": "setFeeToSetter",
      "outputs": [],
      "stateMutability": "nonpayable",
      "type": "function"
    }
  ],
  "transactionHash": "0x59ecbdc7c8b4e2ed09e6010ddc3072b31c1240f7cd89ffc24a0466bad77a48e2",
  "args": [
    "0x0000000000000000000000000000000000000000"
  ],
  "numDeployments": 1,
  "solcInputHash": "01c801e691902c2968961793d2b90882",
  "bytecode": "0x608060405234801561001057600080fd5b5060405161344b38038061344b8339818101604052602081101561003357600080fd5b5051600180546001600160a01b0319166001600160a01b039092169190911790556133e8806100636000396000f3fe60806040523480156200001157600080fd5b5060043610620000945760003560e01c8063dcdf60e81162000063578063dcdf60e81462000125578063e479e8871462000145578063f46901ed1462000161578063f4f31ede146200018a5762000094565b8063017e7e581462000099578063094b741514620000bf5780632384d3d014620000c9578063a2e74af614620000fa575b600080fd5b620000a3620001bb565b604080516001600160a01b039092168252519081900360200190f35b620000a3620001ca565b620000a360048036036040811015620000e157600080fd5b506001600160a01b0381358116916020013516620001d9565b62000123600480360360208110156200011257600080fd5b50356001600160a01b031662000bb6565b005b620000a3600480360360208110156200013d57600080fd5b503562000c31565b6200014f62000c5c565b60408051918252519081900360200190f35b62000123600480360360208110156200017957600080fd5b50356001600160a01b031662000c62565b620000a360048036036040811015620001a257600080fd5b506001600160a01b038135811691602001351662000cdd565b6000546001600160a01b031681565b6001546001600160a01b031681565b6000816001600160a01b0316836001600160a01b0316141562000243576040805162461bcd60e51b815260206004820181905260248201527f54656c65706f727444414f3a204944454e544943414c5f414444524553534553604482015290519081900360640190fd5b600080836001600160a01b0316856001600160a01b031610620002685783856200026b565b84845b90925090506001600160a01b038216620002cc576040805162461bcd60e51b815260206004820152601960248201527f54656c65706f727444414f3a205a45524f5f4144445245535300000000000000604482015290519081900360640190fd5b6001600160a01b0382811660009081526002602090815260408083208585168452909152902054161562000347576040805162461bcd60e51b815260206004820152601860248201527f54656c65706f727444414f3a20504149525f4558495354530000000000000000604482015290519081900360640190fd5b6000606080846001600160a01b03166306fdde036040518163ffffffff1660e01b815260040160006040518083038186803b1580156200038657600080fd5b505afa1580156200039b573d6000803e3d6000fd5b505050506040513d6000823e601f3d908101601f191682016040526020811015620003c557600080fd5b8101908080516040519392919084600160201b821115620003e557600080fd5b908301906020820185811115620003fb57600080fd5b8251600160201b8111828201881017156200041557600080fd5b82525081516020918201929091019080838360005b83811015620004445781810151838201526020016200042a565b50505050905090810190601f168015620004725780820380516001836020036101000a031916815260200191505b50604052505050846001600160a01b03166306fdde036040518163ffffffff1660e01b815260040160006040518083038186803b158015620004b357600080fd5b505afa158015620004c8573d6000803e3d6000fd5b505050506040513d6000823e601f3d908101601f191682016040526020811015620004f257600080fd5b8101908080516040519392919084600160201b8211156200051257600080fd5b9083019060208201858111156200052857600080fd5b8251600160201b8111828201881017156200054257600080fd5b82525081516020918201929091019080838360005b838110156200057157818101518382015260200162000557565b50505050905090810190601f1680156200059f5780820380516001836020036101000a031916815260200191505b506040525050506040516020018083805190602001908083835b60208310620005da5780518252601f199092019160209182019101620005b9565b6001836020036101000a03801982511681845116808217855250505050505090500180602d60f81b81525060010182805190602001908083835b60208310620006355780518252601f19909201916020918201910162000614565b6001836020036101000a038019825116818451168082178552505050505050905001806d131a5c5d5a591a5d1e4b541bdbdb60921b815250600e01925050506040516020818303038152906040529150846001600160a01b03166395d89b416040518163ffffffff1660e01b815260040160006040518083038186803b158015620006bf57600080fd5b505afa158015620006d4573d6000803e3d6000fd5b505050506040513d6000823e601f3d908101601f191682016040526020811015620006fe57600080fd5b8101908080516040519392919084600160201b8211156200071e57600080fd5b9083019060208201858111156200073457600080fd5b8251600160201b8111828201881017156200074e57600080fd5b82525081516020918201929091019080838360005b838110156200077d57818101518382015260200162000763565b50505050905090810190601f168015620007ab5780820380516001836020036101000a031916815260200191505b50604052505050846001600160a01b03166395d89b416040518163ffffffff1660e01b815260040160006040518083038186803b158015620007ec57600080fd5b505afa15801562000801573d6000803e3d6000fd5b505050506040513d6000823e601f3d908101601f1916820160405260208110156200082b57600080fd5b8101908080516040519392919084600160201b8211156200084b57600080fd5b9083019060208201858111156200086157600080fd5b8251600160201b8111828201881017156200087b57600080fd5b82525081516020918201929091019080838360005b83811015620008aa57818101518382015260200162000890565b50505050905090810190601f168015620008d85780820380516001836020036101000a031916815260200191505b506040525050506040516020018083805190602001908083835b60208310620009135780518252601f199092019160209182019101620008f2565b6001836020036101000a03801982511681845116808217855250505050505090500180602d60f81b81525060010182805190602001908083835b602083106200096e5780518252601f1990920191602091820191016200094d565b6001836020036101000a038019825116818451168082178552505050505050905001806213141560ea1b81525060030192505050604051602081830303815290604052905084848383604051620009c59062000d03565b80856001600160a01b03168152602001846001600160a01b031681526020018060200180602001838103835285818151815260200191508051906020019080838360005b8381101562000a2357818101518382015260200162000a09565b50505050905090810190601f16801562000a515780820380516001836020036101000a031916815260200191505b50838103825284518152845160209182019186019080838360005b8381101562000a8657818101518382015260200162000a6c565b50505050905090810190601f16801562000ab45780820380516001836020036101000a031916815260200191505b509650505050505050604051809103906000f08015801562000ada573d6000803e3d6000fd5b506001600160a01b0380871660008181526002602081815260408084208b871680865290835281852080549789166001600160a01b031998891681179091559383528185208686528352818520805488168517905560038054600181018255958190527fc2575a0e9e593c00f959f8c92f12db2869c3395a3b0502d05e2516446f71f85b9095018054909716841790965592548351928352908201528151949750929391927fc48e1806581a08f33217dc84530035be4d51d45ef74412db8f687e53a0d83d54929081900390910190a350909695505050505050565b6001546001600160a01b0316331462000c0f576040805162461bcd60e51b81526020600482015260166024820152752a32b632b837b93a2220a79d102327a92124a22222a760511b604482015290519081900360640190fd5b600180546001600160a01b0319166001600160a01b0392909216919091179055565b6003818154811062000c4257600080fd5b6000918252602090912001546001600160a01b0316905081565b60035490565b6001546001600160a01b0316331462000cbb576040805162461bcd60e51b81526020600482015260166024820152752a32b632b837b93a2220a79d102327a92124a22222a760511b604482015290519081900360640190fd5b600080546001600160a01b0319166001600160a01b0392909216919091179055565b60026020908152600092835260408084209091529082529020546001600160a01b031681565b6126a18062000d128339019056fe60806040526001600c553480156200001657600080fd5b50604051620026a1380380620026a1833981810160405260808110156200003c57600080fd5b815160208301516040808501805191519395929483019291846401000000008211156200006857600080fd5b9083019060208201858111156200007e57600080fd5b82516401000000008111828201881017156200009957600080fd5b82525081516020918201929091019080838360005b83811015620000c8578181015183820152602001620000ae565b50505050905090810190601f168015620000f65780820380516001836020036101000a031916815260200191505b50604052602001805160405193929190846401000000008211156200011a57600080fd5b9083019060208201858111156200013057600080fd5b82516401000000008111828201881017156200014b57600080fd5b82525081516020918201929091019080838360005b838110156200017a57818101518382015260200162000160565b50505050905090810190601f168015620001a85780820380516001836020036101000a031916815260200191505b50604052505050818160008260039080519060200190620001cb929190620002ac565b508151620001e1906004906020850190620002ac565b508015620001f557620001f533826200023c565b5050600580546001600160a01b03199081163317909155600680546001600160a01b0397881690831617905560078054959096169416939093179093555062000358915050565b6200024a60008383620002a7565b60028054820190556001600160a01b038216600081815260208181526040808320805486019055805185815290517fddf252ad1be2c89b69c2b068fc378daa952ba7f163c4a11628f55a4df523b3ef929181900390910190a35050565b505050565b828054600181600116156101000203166002900490600052602060002090601f016020900481019282620002e457600085556200032f565b82601f10620002ff57805160ff19168380011785556200032f565b828001600101855582156200032f579182015b828111156200032f57825182559160200191906001019062000312565b506200033d92915062000341565b5090565b5b808211156200033d576000815560010162000342565b61233980620003686000396000f3fe608060405234801561001057600080fd5b50600436106101585760003560e01c806370a08231116100c3578063ba9a7a561161007c578063ba9a7a56146104a1578063bc25cf77146104a9578063c45a0155146104cf578063d21220a7146104d7578063dd62ed3e146104df578063fff6cae91461050d57610158565b806370a08231146103d45780637464fc3d146103fa57806389afcb441461040257806395d89b4114610441578063a457c2d714610449578063a9059cbb1461047557610158565b806323b872dd1161011557806323b872dd1461031e578063313ce5671461035457806339509351146103725780635909c0d51461039e5780635a3d5493146103a65780636a627842146103ae57610158565b8063022c0d9f1461015d57806306fdde03146101eb5780630902f1ac14610268578063095ea7b3146102a05780630dfe1681146102e057806318160ddd14610304575b600080fd5b6101e96004803603608081101561017357600080fd5b8135916020810135916001600160a01b0360408301351691908101906080810160608201356401000000008111156101aa57600080fd5b8201836020820111156101bc57600080fd5b803590602001918460018302840111640100000000831117156101de57600080fd5b509092509050610515565b005b6101f3610a29565b6040805160208082528351818301528351919283929083019185019080838360005b8381101561022d578181015183820152602001610215565b50505050905090810190601f16801561025a5780820380516001836020036101000a031916815260200191505b509250505060405180910390f35b610270610abf565b604080516001600160701b03948516815292909316602083015263ffffffff168183015290519081900360600190f35b6102cc600480360360408110156102b657600080fd5b506001600160a01b038135169060200135610ae9565b604080519115158252519081900360200190f35b6102e8610b07565b604080516001600160a01b039092168252519081900360200190f35b61030c610b16565b60408051918252519081900360200190f35b6102cc6004803603606081101561033457600080fd5b506001600160a01b03813581169160208101359091169060400135610b1c565b61035c610bcb565b6040805160ff9092168252519081900360200190f35b6102cc6004803603604081101561038857600080fd5b506001600160a01b038135169060200135610bd0565b61030c610c1b565b61030c610c21565b61030c600480360360208110156103c457600080fd5b50356001600160a01b0316610c27565b61030c600480360360208110156103ea57600080fd5b50356001600160a01b0316610f0d565b61030c610f2c565b6104286004803603602081101561041857600080fd5b50356001600160a01b0316610f32565b6040805192835260208301919091528051918290030190f35b6101f36112ce565b6102cc6004803603604081101561045f57600080fd5b506001600160a01b03813516906020013561132f565b6102cc6004803603604081101561048b57600080fd5b506001600160a01b0381351690602001356113c7565b61030c6113db565b6101e9600480360360208110156104bf57600080fd5b50356001600160a01b03166113e1565b6102e8611555565b6102e8611564565b61030c600480360360408110156104f557600080fd5b506001600160a01b0381358116916020013516611573565b6101e961159e565b600c54600114610562576040805162461bcd60e51b815260206004820152601360248201527215195b195c1bdc9d111053ce881313d0d2d151606a1b604482015290519081900360640190fd5b6000600c55841515806105755750600084115b6105b05760405162461bcd60e51b81526004018080602001828103825260278152602001806121b36027913960400191505060405180910390fd5b6000806105bb610abf565b5091509150816001600160701b0316871080156105e05750806001600160701b031686105b61061b5760405162461bcd60e51b81526004018080602001828103825260238152602001806121da6023913960400191505060405180910390fd5b60065460075460009182916001600160a01b039182169190811690891682148015906106595750806001600160a01b0316896001600160a01b031614155b6106aa576040805162461bcd60e51b815260206004820152601760248201527f54656c65706f727444414f3a20494e56414c49445f544f000000000000000000604482015290519081900360640190fd5b8a156106bb576106bb828a8d611702565b89156106cc576106cc818a8c611702565b861561077e57886001600160a01b03166332c40f20338d8d8c8c6040518663ffffffff1660e01b815260040180866001600160a01b03168152602001858152602001848152602001806020018281038252848482818152602001925080828437600081840152601f19601f8201169050808301925050509650505050505050600060405180830381600087803b15801561076557600080fd5b505af1158015610779573d6000803e3d6000fd5b505050505b604080516370a0823160e01b815230600482015290516001600160a01b038416916370a08231916024808301926020929190829003018186803b1580156107c457600080fd5b505afa1580156107d8573d6000803e3d6000fd5b505050506040513d60208110156107ee57600080fd5b5051604080516370a0823160e01b815230600482015290519195506001600160a01b038316916370a0823191602480820192602092909190829003018186803b15801561083a57600080fd5b505afa15801561084e573d6000803e3d6000fd5b505050506040513d602081101561086457600080fd5b5051925060009150506001600160701b0385168a90038311610887576000610896565b89856001600160701b03160383035b9050600089856001600160701b03160383116108b35760006108c2565b89856001600160701b03160383035b905060008211806108d35750600081115b61090e5760405162461bcd60e51b81526004018080602001828103825260268152602001806122706026913960400191505060405180910390fd5b600061093061091e84600361189b565b61092a876103e861189b565b906118fe565b9050600061094261091e84600361189b565b9050610967620f42406109616001600160701b038b8116908b1661189b565b9061189b565b610971838361189b565b10156109b5576040805162461bcd60e51b815260206004820152600e60248201526d54656c65706f727444414f3a204b60901b604482015290519081900360640190fd5b50506109c38484888861194e565b60408051838152602081018390528082018d9052606081018c905290516001600160a01b038b169133917fd78ad95fa46c994b6551d0da85fc275fe613ce37657fb8d5e3d130840159d8229181900360800190a350506001600c55505050505050505050565b60038054604080516020601f6002600019610100600188161502019095169490940493840181900481028201810190925282815260609390929091830182828015610ab55780601f10610a8a57610100808354040283529160200191610ab5565b820191906000526020600020905b815481529060010190602001808311610a9857829003601f168201915b5050505050905090565b6008546001600160701b0380821692600160701b830490911691600160e01b900463ffffffff1690565b6000610afd610af6611b0f565b8484611b13565b5060015b92915050565b6006546001600160a01b031681565b60025490565b6000610b29848484611bff565b6001600160a01b038416600090815260016020526040812081610b4a611b0f565b6001600160a01b03166001600160a01b0316815260200190815260200160002054905082811015610bac5760405162461bcd60e51b81526004018080602001828103825260288152602001806122276028913960400191505060405180910390fd5b610bc085610bb8611b0f565b858403611b13565b506001949350505050565b601290565b6000610afd610bdd611b0f565b848460016000610beb611b0f565b6001600160a01b03908116825260208083019390935260409182016000908120918b168152925290205401611b13565b60095481565b600a5481565b6000600c54600114610c76576040805162461bcd60e51b815260206004820152601360248201527215195b195c1bdc9d111053ce881313d0d2d151606a1b604482015290519081900360640190fd5b6000600c81905580610c86610abf565b50600654604080516370a0823160e01b815230600482015290519395509193506000926001600160a01b03909116916370a08231916024808301926020929190829003018186803b158015610cda57600080fd5b505afa158015610cee573d6000803e3d6000fd5b505050506040513d6020811015610d0457600080fd5b5051600754604080516370a0823160e01b815230600482015290519293506000926001600160a01b03909216916370a0823191602480820192602092909190829003018186803b158015610d5757600080fd5b505afa158015610d6b573d6000803e3d6000fd5b505050506040513d6020811015610d8157600080fd5b505190506000610d9a836001600160701b0387166118fe565b90506000610db1836001600160701b0387166118fe565b90506000610dbf8787611d55565b90506000610dcb610b16565b905080610dfe57610dea6103e861092a610de5878761189b565b611e94565b9850610df960006103e8611ee5565b610e41565b610e3e6001600160701b038916610e15868461189b565b81610e1c57fe5b046001600160701b038916610e31868561189b565b81610e3857fe5b04611f4e565b98505b60008911610e805760405162461bcd60e51b815260040180806020018281038252602a8152602001806121fd602a913960400191505060405180910390fd5b610e8a8a8a611ee5565b610e9686868a8a61194e565b8115610ec057600854610ebc906001600160701b0380821691600160701b90041661189b565b600b555b6040805185815260208101859052815133927f4c209b5fc8ad50758f13e2e1088ba56a560dff690a1c6fef26394f4c03821c4f928290030190a250506001600c5550949695505050505050565b6001600160a01b0381166000908152602081905260409020545b919050565b600b5481565b600080600c54600114610f82576040805162461bcd60e51b815260206004820152601360248201527215195b195c1bdc9d111053ce881313d0d2d151606a1b604482015290519081900360640190fd5b6000600c81905580610f92610abf565b50600654600754604080516370a0823160e01b815230600482015290519496509294506001600160a01b039182169391169160009184916370a08231916024808301926020929190829003018186803b158015610fee57600080fd5b505afa158015611002573d6000803e3d6000fd5b505050506040513d602081101561101857600080fd5b5051604080516370a0823160e01b815230600482015290519192506000916001600160a01b038516916370a08231916024808301926020929190829003018186803b15801561106657600080fd5b505afa15801561107a573d6000803e3d6000fd5b505050506040513d602081101561109057600080fd5b50519050600061109f30610f0d565b905060006110ad8888611d55565b905060006110b9610b16565b9050806110c6848761189b565b816110cd57fe5b049a50806110db848661189b565b816110e257fe5b04995060008b1180156110f5575060008a115b6111305760405162461bcd60e51b815260040180806020018281038252602a815260200180612163602a913960400191505060405180910390fd5b61113a3084611f66565b611145878d8d611702565b611150868d8c611702565b604080516370a0823160e01b815230600482015290516001600160a01b038916916370a08231916024808301926020929190829003018186803b15801561119657600080fd5b505afa1580156111aa573d6000803e3d6000fd5b505050506040513d60208110156111c057600080fd5b5051604080516370a0823160e01b815230600482015290519196506001600160a01b038816916370a0823191602480820192602092909190829003018186803b15801561120c57600080fd5b505afa158015611220573d6000803e3d6000fd5b505050506040513d602081101561123657600080fd5b5051935061124685858b8b61194e565b81156112705760085461126c906001600160701b0380821691600160701b90041661189b565b600b555b604080518c8152602081018c905281516001600160a01b038f169233927fdccd412f0b1252819cb1fd330b93224ca42612892bb3f4f789976e6d81936496929081900390910190a35050505050505050506001600c81905550915091565b60048054604080516020601f6002600019610100600188161502019095169490940493840181900481028201810190925282815260609390929091830182828015610ab55780601f10610a8a57610100808354040283529160200191610ab5565b6000806001600061133e611b0f565b6001600160a01b03908116825260208083019390935260409182016000908120918816815292529020549050828110156113a95760405162461bcd60e51b81526004018080602001828103825260258152602001806122df6025913960400191505060405180910390fd5b6113bd6113b4611b0f565b85858403611b13565b5060019392505050565b6000610afd6113d4611b0f565b8484611bff565b6103e881565b600c5460011461142e576040805162461bcd60e51b815260206004820152601360248201527215195b195c1bdc9d111053ce881313d0d2d151606a1b604482015290519081900360640190fd5b6000600c55600654600754600854604080516370a0823160e01b815230600482015290516001600160a01b0394851694909316926114d792859287926114d2926001600160701b03169185916370a0823191602480820192602092909190829003018186803b1580156114a057600080fd5b505afa1580156114b4573d6000803e3d6000fd5b505050506040513d60208110156114ca57600080fd5b5051906118fe565b611702565b61154b81846114d26008600e9054906101000a90046001600160701b03166001600160701b0316856001600160a01b03166370a08231306040518263ffffffff1660e01b815260040180826001600160a01b0316815260200191505060206040518083038186803b1580156114a057600080fd5b50506001600c5550565b6005546001600160a01b031681565b6007546001600160a01b031681565b6001600160a01b03918216600090815260016020908152604080832093909416825291909152205490565b600c546001146115eb576040805162461bcd60e51b815260206004820152601360248201527215195b195c1bdc9d111053ce881313d0d2d151606a1b604482015290519081900360640190fd5b6000600c55600654604080516370a0823160e01b815230600482015290516116fb926001600160a01b0316916370a08231916024808301926020929190829003018186803b15801561163c57600080fd5b505afa158015611650573d6000803e3d6000fd5b505050506040513d602081101561166657600080fd5b5051600754604080516370a0823160e01b815230600482015290516001600160a01b03909216916370a0823191602480820192602092909190829003018186803b1580156116b357600080fd5b505afa1580156116c7573d6000803e3d6000fd5b505050506040513d60208110156116dd57600080fd5b50516008546001600160701b0380821691600160701b90041661194e565b6001600c55565b604080518082018252601981527f7472616e7366657228616464726573732c75696e74323536290000000000000060209182015281516001600160a01b0385811660248301526044808301869052845180840390910181526064909201845291810180516001600160e01b031663a9059cbb60e01b17815292518151600094859489169392918291908083835b602083106117ae5780518252601f19909201916020918201910161178f565b6001836020036101000a0380198251168184511680821785525050505050509050019150506000604051808303816000865af19150503d8060008114611810576040519150601f19603f3d011682016040523d82523d6000602084013e611815565b606091505b5091509150818015611843575080511580611843575080806020019051602081101561184057600080fd5b50515b611894576040805162461bcd60e51b815260206004820152601c60248201527f54656c65706f727444414f3a205452414e534645525f4641494c454400000000604482015290519081900360640190fd5b5050505050565b60008115806118b6575050808202828282816118b357fe5b04145b610b01576040805162461bcd60e51b815260206004820152601460248201527364732d6d6174682d6d756c2d6f766572666c6f7760601b604482015290519081900360640190fd5b80820382811115610b01576040805162461bcd60e51b815260206004820152601560248201527464732d6d6174682d7375622d756e646572666c6f7760581b604482015290519081900360640190fd5b6001600160701b03841180159061196c57506001600160701b038311155b6119b5576040805162461bcd60e51b815260206004820152601560248201527454656c65706f727444414f3a204f564552464c4f5760581b604482015290519081900360640190fd5b60085463ffffffff42811691600160e01b900481168203908116158015906119e557506001600160701b03841615155b80156119f957506001600160701b03831615155b15611a64578063ffffffff16611a2185611a1286612070565b6001600160e01b031690612082565b600980546001600160e01b03929092169290920201905563ffffffff8116611a4c84611a1287612070565b600a80546001600160e01b0392909216929092020190555b600880546dffffffffffffffffffffffffffff19166001600160701b03888116919091176dffffffffffffffffffffffffffff60701b1916600160701b8883168102919091176001600160e01b0316600160e01b63ffffffff871602179283905560408051848416815291909304909116602082015281517f1c411e9a96e071241c2f21f7726b17ae89e3cab4c78be50e062b03a9fffbbad1929181900390910190a1505050505050565b3390565b6001600160a01b038316611b585760405162461bcd60e51b81526004018080602001828103825260248152602001806122bb6024913960400191505060405180910390fd5b6001600160a01b038216611b9d5760405162461bcd60e51b81526004018080602001828103825260228152602001806121416022913960400191505060405180910390fd5b6001600160a01b03808416600081815260016020908152604080832094871680845294825291829020859055815185815291517f8c5be1e5ebec7d5bd14f71427d1e84f3dd0314c0f7b2291e5b200ac8c7c3b9259281900390910190a3505050565b6001600160a01b038316611c445760405162461bcd60e51b81526004018080602001828103825260258152602001806122966025913960400191505060405180910390fd5b6001600160a01b038216611c895760405162461bcd60e51b81526004018080602001828103825260238152602001806120fc6023913960400191505060405180910390fd5b611c948383836120a7565b6001600160a01b03831660009081526020819052604090205481811015611cec5760405162461bcd60e51b815260040180806020018281038252602681526020018061218d6026913960400191505060405180910390fd5b6001600160a01b038085166000818152602081815260408083208787039055938716808352918490208054870190558351868152935191937fddf252ad1be2c89b69c2b068fc378daa952ba7f163c4a11628f55a4df523b3ef929081900390910190a350505050565b600080600560009054906101000a90046001600160a01b03166001600160a01b031663017e7e586040518163ffffffff1660e01b815260040160206040518083038186803b158015611da657600080fd5b505afa158015611dba573d6000803e3d6000fd5b505050506040513d6020811015611dd057600080fd5b5051600b546001600160a01b038216158015945091925090611e80578015611e7b576000611e0d610de56001600160701b0388811690881661189b565b90506000611e1a83611e94565b905080821115611e78576000611e3b611e3384846118fe565b610961610b16565b90506000611e5483611e4e86600561189b565b906120ac565b90506000818381611e6157fe5b0490508015611e7457611e748782611ee5565b5050505b50505b611e8c565b8015611e8c576000600b555b505092915050565b60006003821115611ed7575080600160028204015b81811015611ed157809150600281828581611ec057fe5b040181611ec957fe5b049050611ea9565b50610f27565b8115610f2757506001919050565b611ef1600083836120a7565b60028054820190556001600160a01b038216600081815260208181526040808320805486019055805185815290517fddf252ad1be2c89b69c2b068fc378daa952ba7f163c4a11628f55a4df523b3ef929181900390910190a35050565b6000818310611f5d5781611f5f565b825b9392505050565b6001600160a01b038216611fab5760405162461bcd60e51b815260040180806020018281038252602181526020018061224f6021913960400191505060405180910390fd5b611fb7826000836120a7565b6001600160a01b0382166000908152602081905260409020548181101561200f5760405162461bcd60e51b815260040180806020018281038252602281526020018061211f6022913960400191505060405180910390fd5b6001600160a01b0383166000818152602081815260408083208686039055600280548790039055805186815290519293927fddf252ad1be2c89b69c2b068fc378daa952ba7f163c4a11628f55a4df523b3ef929181900390910190a3505050565b6001600160701b0316600160701b0290565b60006001600160701b0382166001600160e01b0384168161209f57fe5b049392505050565b505050565b80820182811015610b01576040805162461bcd60e51b815260206004820152601460248201527364732d6d6174682d6164642d6f766572666c6f7760601b604482015290519081900360640190fdfe45524332303a207472616e7366657220746f20746865207a65726f206164647265737345524332303a206275726e20616d6f756e7420657863656564732062616c616e636545524332303a20617070726f766520746f20746865207a65726f206164647265737354656c65706f727444414f3a20494e53554646494349454e545f4c49515549444954595f4255524e454445524332303a207472616e7366657220616d6f756e7420657863656564732062616c616e636554656c65706f727444414f3a20494e53554646494349454e545f4f55545055545f414d4f554e5454656c65706f727444414f3a20494e53554646494349454e545f4c495155494449545954656c65706f727444414f3a20494e53554646494349454e545f4c49515549444954595f4d494e54454445524332303a207472616e7366657220616d6f756e74206578636565647320616c6c6f77616e636545524332303a206275726e2066726f6d20746865207a65726f206164647265737354656c65706f727444414f3a20494e53554646494349454e545f494e5055545f414d4f554e5445524332303a207472616e736665722066726f6d20746865207a65726f206164647265737345524332303a20617070726f76652066726f6d20746865207a65726f206164647265737345524332303a2064656372656173656420616c6c6f77616e63652062656c6f77207a65726fa2646970667358221220a1a336c2a1cb40318c9ec8904a3bfbf9e9f3a66a364d18e04e1695febbc97d7564736f6c63430007060033a26469706673582212205c89d2e36bf2e8c9f50a11ab3ec16b04fb2d2be6a0fe5ff77aba9e9f73188b4d64736f6c63430007060033",
  "devdoc": {
    "kind": "dev",
    "methods": {},
    "version": 1
  },
  "userdoc": {
    "kind": "user",
    "methods": {},
    "version": 1
  },
  "storageLayout": {
    "storage": [
      {
        "astId": 7832,
        "contract": "contracts/pools/LiquidityPoolFactory.sol:LiquidityPoolFactory",
        "label": "feeTo",
        "offset": 0,
        "slot": "0",
        "type": "t_address"
      },
      {
        "astId": 7835,
        "contract": "contracts/pools/LiquidityPoolFactory.sol:LiquidityPoolFactory",
        "label": "feeToSetter",
        "offset": 0,
        "slot": "1",
        "type": "t_address"
      },
      {
        "astId": 7842,
        "contract": "contracts/pools/LiquidityPoolFactory.sol:LiquidityPoolFactory",
        "label": "getLiquidityPool",
        "offset": 0,
        "slot": "2",
        "type": "t_mapping(t_address,t_mapping(t_address,t_address))"
      },
      {
        "astId": 7846,
        "contract": "contracts/pools/LiquidityPoolFactory.sol:LiquidityPoolFactory",
        "label": "allLiquidityPools",
        "offset": 0,
        "slot": "3",
        "type": "t_array(t_address)dyn_storage"
      }
    ],
    "types": {
      "t_address": {
        "encoding": "inplace",
        "label": "address",
        "numberOfBytes": "20"
      },
      "t_array(t_address)dyn_storage": {
        "base": "t_address",
        "encoding": "dynamic_array",
        "label": "address[]",
        "numberOfBytes": "32"
      },
      "t_mapping(t_address,t_address)": {
        "encoding": "mapping",
        "key": "t_address",
        "label": "mapping(address => address)",
        "numberOfBytes": "32",
        "value": "t_address"
      },
      "t_mapping(t_address,t_mapping(t_address,t_address))": {
        "encoding": "mapping",
        "key": "t_address",
        "label": "mapping(address => mapping(address => address))",
        "numberOfBytes": "32",
        "value": "t_mapping(t_address,t_address)"
      }
    }
  }
}