{
  "address": "0x6c89ca66B217cA2eA87AB118De25D54013d4c891",
  "abi": [
    {
      "inputs": [
        {
          "internalType": "address",
          "name": "_lockersLogic",
          "type": "address"
        }
      ],
      "stateMutability": "nonpayable",
      "type": "constructor"
    },
    {
      "anonymous": false,
      "inputs": [
        {
          "indexed": false,
          "internalType": "uint8",
          "name": "version",
          "type": "uint8"
        }
      ],
      "name": "Initialized",
      "type": "event"
    },
    {
      "anonymous": false,
      "inputs": [
        {
          "indexed": true,
          "internalType": "address",
          "name": "previousOwner",
          "type": "address"
        },
        {
          "indexed": true,
          "internalType": "address",
          "name": "newOwner",
          "type": "address"
        }
      ],
      "name": "OwnershipTransferred",
      "type": "event"
    },
    {
      "anonymous": false,
      "inputs": [
        {
          "indexed": false,
          "internalType": "address",
          "name": "account",
          "type": "address"
        }
      ],
      "name": "Paused",
      "type": "event"
    },
    {
      "anonymous": false,
      "inputs": [
        {
          "indexed": false,
          "internalType": "address",
          "name": "account",
          "type": "address"
        }
      ],
      "name": "Unpaused",
      "type": "event"
    },
    {
      "stateMutability": "payable",
      "type": "fallback"
    },
    {
      "inputs": [],
      "name": "NATIVE_TOKEN",
      "outputs": [
        {
          "internalType": "address",
          "name": "",
          "type": "address"
        }
      ],
      "stateMutability": "view",
      "type": "function"
    },
    {
      "inputs": [],
      "name": "TeleportDAOToken",
      "outputs": [
        {
          "internalType": "address",
          "name": "",
          "type": "address"
        }
      ],
      "stateMutability": "view",
      "type": "function"
    },
    {
      "inputs": [],
      "name": "ccBurnRouter",
      "outputs": [
        {
          "internalType": "address",
          "name": "",
          "type": "address"
        }
      ],
      "stateMutability": "view",
      "type": "function"
    },
    {
      "inputs": [],
      "name": "collateralRatio",
      "outputs": [
        {
          "internalType": "uint256",
          "name": "",
          "type": "uint256"
        }
      ],
      "stateMutability": "view",
      "type": "function"
    },
    {
      "inputs": [],
      "name": "exchangeConnector",
      "outputs": [
        {
          "internalType": "address",
          "name": "",
          "type": "address"
        }
      ],
      "stateMutability": "view",
      "type": "function"
    },
    {
      "inputs": [
        {
          "internalType": "address",
          "name": "_TeleportDAOToken",
          "type": "address"
        },
        {
          "internalType": "address",
          "name": "_exchangeConnector",
          "type": "address"
        },
        {
          "internalType": "address",
          "name": "_priceOracle",
          "type": "address"
        },
        {
          "internalType": "uint256",
          "name": "_minRequiredTDTLockedAmount",
          "type": "uint256"
        },
        {
          "internalType": "uint256",
          "name": "_minRequiredTNTLockedAmount",
          "type": "uint256"
        },
        {
          "internalType": "uint256",
          "name": "_collateralRatio",
          "type": "uint256"
        },
        {
          "internalType": "uint256",
          "name": "_liquidationRatio",
          "type": "uint256"
        },
        {
          "internalType": "uint256",
          "name": "_lockerPercentageFee",
          "type": "uint256"
        }
      ],
      "name": "initialize",
      "outputs": [],
      "stateMutability": "nonpayable",
      "type": "function"
    },
    {
      "inputs": [],
      "name": "liquidationRatio",
      "outputs": [
        {
          "internalType": "uint256",
          "name": "",
          "type": "uint256"
        }
      ],
      "stateMutability": "view",
      "type": "function"
    },
    {
      "inputs": [
        {
          "internalType": "address",
          "name": "",
          "type": "address"
        }
      ],
      "name": "lockerLeavingAcceptance",
      "outputs": [
        {
          "internalType": "bool",
          "name": "",
          "type": "bool"
        }
      ],
      "stateMutability": "view",
      "type": "function"
    },
    {
      "inputs": [
        {
          "internalType": "address",
          "name": "",
          "type": "address"
        }
      ],
      "name": "lockerLeavingRequests",
      "outputs": [
        {
          "internalType": "bool",
          "name": "",
          "type": "bool"
        }
      ],
      "stateMutability": "view",
      "type": "function"
    },
    {
      "inputs": [],
      "name": "lockerPercentageFee",
      "outputs": [
        {
          "internalType": "uint256",
          "name": "",
          "type": "uint256"
        }
      ],
      "stateMutability": "view",
      "type": "function"
    },
    {
      "inputs": [
        {
          "internalType": "address",
          "name": "",
          "type": "address"
        }
      ],
      "name": "lockerTargetAddress",
      "outputs": [
        {
          "internalType": "address",
          "name": "",
          "type": "address"
        }
      ],
      "stateMutability": "view",
      "type": "function"
    },
    {
      "inputs": [],
      "name": "lockersLogic",
      "outputs": [
        {
          "internalType": "address",
          "name": "",
          "type": "address"
        }
      ],
      "stateMutability": "view",
      "type": "function"
    },
    {
      "inputs": [
        {
          "internalType": "address",
          "name": "",
          "type": "address"
        }
      ],
      "name": "lockersMapping",
      "outputs": [
        {
          "internalType": "bytes",
          "name": "lockerRedeemScript",
          "type": "bytes"
        },
        {
          "internalType": "address",
          "name": "lockerScriptHash",
          "type": "address"
        },
        {
          "internalType": "uint256",
          "name": "TDTLockedAmount",
          "type": "uint256"
        },
        {
          "internalType": "uint256",
          "name": "nativeTokenLockedAmount",
          "type": "uint256"
        },
        {
          "internalType": "uint256",
          "name": "netMinted",
          "type": "uint256"
        },
        {
          "internalType": "bool",
          "name": "isLocker",
          "type": "bool"
        },
        {
          "internalType": "bool",
          "name": "isCandidate",
          "type": "bool"
        },
        {
          "internalType": "bool",
          "name": "isScriptHash",
          "type": "bool"
        },
        {
          "internalType": "bool",
          "name": "isActive",
          "type": "bool"
        }
      ],
      "stateMutability": "view",
      "type": "function"
    },
    {
      "inputs": [],
      "name": "minRequiredTDTLockedAmount",
      "outputs": [
        {
          "internalType": "uint256",
          "name": "",
          "type": "uint256"
        }
      ],
      "stateMutability": "view",
      "type": "function"
    },
    {
      "inputs": [],
      "name": "minRequiredTNTLockedAmount",
      "outputs": [
        {
          "internalType": "uint256",
          "name": "",
          "type": "uint256"
        }
      ],
      "stateMutability": "view",
      "type": "function"
    },
    {
      "inputs": [],
      "name": "owner",
      "outputs": [
        {
          "internalType": "address",
          "name": "",
          "type": "address"
        }
      ],
      "stateMutability": "view",
      "type": "function"
    },
    {
      "inputs": [],
      "name": "paused",
      "outputs": [
        {
          "internalType": "bool",
          "name": "",
          "type": "bool"
        }
      ],
      "stateMutability": "view",
      "type": "function"
    },
    {
      "inputs": [],
      "name": "priceOracle",
      "outputs": [
        {
          "internalType": "address",
          "name": "",
          "type": "address"
        }
      ],
      "stateMutability": "view",
      "type": "function"
    },
    {
      "inputs": [],
      "name": "renounceOwnership",
      "outputs": [],
      "stateMutability": "nonpayable",
      "type": "function"
    },
    {
      "inputs": [],
      "name": "teleBTC",
      "outputs": [
        {
          "internalType": "address",
          "name": "",
          "type": "address"
        }
      ],
      "stateMutability": "view",
      "type": "function"
    },
    {
      "inputs": [],
      "name": "totalNumberOfCandidates",
      "outputs": [
        {
          "internalType": "uint256",
          "name": "",
          "type": "uint256"
        }
      ],
      "stateMutability": "view",
      "type": "function"
    },
    {
      "inputs": [],
      "name": "totalNumberOfLockers",
      "outputs": [
        {
          "internalType": "uint256",
          "name": "",
          "type": "uint256"
        }
      ],
      "stateMutability": "view",
      "type": "function"
    },
    {
      "inputs": [
        {
          "internalType": "address",
          "name": "newOwner",
          "type": "address"
        }
      ],
      "name": "transferOwnership",
      "outputs": [],
      "stateMutability": "nonpayable",
      "type": "function"
    },
    {
      "inputs": [
        {
          "internalType": "address",
          "name": "_newLogic",
          "type": "address"
        }
      ],
      "name": "updateLogic",
      "outputs": [],
      "stateMutability": "nonpayable",
      "type": "function"
    },
    {
      "stateMutability": "payable",
      "type": "receive"
    }
  ],
  "transactionHash": "0x55625e0a4b846957ea310238a8db0e023441306ece13eb6868cd7f8773f71b9c",
  "args": [
    "0xAB649ed4904e46787534942A8846656368AaaED4"
  ],
  "numDeployments": 1,
  "solcInputHash": "e12c7c9cd263aabdb11ed9046c0bd066",
  "bytecode": "0x608060405260d180546001600160a01b031916600117905534801561002357600080fd5b50604051610c7a380380610c7a83398101604081905261004291610067565b60c980546001600160a01b0319166001600160a01b0392909216919091179055610095565b600060208284031215610078578081fd5b81516001600160a01b038116811461008e578182fd5b9392505050565b610bd6806100a46000396000f3fe60806040526004361061014f5760003560e01c80637da5f0da116100b6578063b4eae1cb1161006f578063b4eae1cb146103fb578063c0924b8014610411578063cac9319b14610431578063df8fa43014610467578063ed110a9c14610487578063f2fde38b1461049d57610156565b80637da5f0da146103225780637edb79bc1461035257806388aa0a52146103725780638d3d78cd146103885780638da5cb5b146103a8578063af1ea795146103c657610156565b80635a8d80b8116101085780635a8d80b8146102875780635c975abb146102a757806363908020146102bf5780636d32395c146102d5578063715018a6146102eb578063795e617e1461030257610156565b8063043fd54b14610190578063108f438d146101d55780631775765f1461020d5780632630c12f1461023157806331f7d9641461025157806341fae5791461027157610156565b3661015657005b60c9546001600160a01b03168061016c57600080fd5b3660008037600080366000845af43d6000803e80801561018b573d6000f35b3d6000fd5b34801561019c57600080fd5b506101c06101ab3660046109d9565b60d86020526000908152604090205460ff1681565b60405190151581526020015b60405180910390f35b3480156101e157600080fd5b5060cb546101f5906001600160a01b031681565b6040516001600160a01b0390911681526020016101cc565b34801561021957600080fd5b5061022360d35481565b6040519081526020016101cc565b34801561023d57600080fd5b5060d4546101f5906001600160a01b031681565b34801561025d57600080fd5b5060d1546101f5906001600160a01b031681565b34801561027d57600080fd5b5061022360cf5481565b34801561029357600080fd5b5060cd546101f5906001600160a01b031681565b3480156102b357600080fd5b5060975460ff166101c0565b3480156102cb57600080fd5b5061022360ca5481565b3480156102e157600080fd5b5061022360d05481565b3480156102f757600080fd5b506103006104bd565b005b34801561030e57600080fd5b5061030061031d3660046109d9565b6104d1565b34801561032e57600080fd5b506101c061033d3660046109d9565b60d96020526000908152604090205460ff1681565b34801561035e57600080fd5b5060c9546101f5906001600160a01b031681565b34801561037e57600080fd5b5061022360d65481565b34801561039457600080fd5b5060cc546101f5906001600160a01b031681565b3480156103b457600080fd5b506033546001600160a01b03166101f5565b3480156103d257600080fd5b506103e66103e13660046109d9565b6104fb565b6040516101cc99989796959493929190610a6a565b34801561040757600080fd5b5061022360d25481565b34801561041d57600080fd5b5060ce546101f5906001600160a01b031681565b34801561043d57600080fd5b506101f561044c3660046109d9565b60da602052600090815260409020546001600160a01b031681565b34801561047357600080fd5b506103006104823660046109fa565b6105e1565b34801561049357600080fd5b5061022360d75481565b3480156104a957600080fd5b506103006104b83660046109d9565b61076c565b6104c56107e5565b6104cf600061083f565b565b6104d96107e5565b60c980546001600160a01b0319166001600160a01b0392909216919091179055565b60d56020526000908152604090208054819061051690610b65565b80601f016020809104026020016040519081016040528092919081815260200182805461054290610b65565b801561058f5780601f106105645761010080835404028352916020019161058f565b820191906000526020600020905b81548152906001019060200180831161057257829003601f168201915b505050600184015460028501546003860154600487015460059097015495966001600160a01b0390931695919450925060ff808216916101008104821691620100008204811691630100000090041689565b600054610100900460ff16158080156106015750600054600160ff909116105b80610622575061061030610891565b158015610622575060005460ff166001145b61068a5760405162461bcd60e51b815260206004820152602e60248201527f496e697469616c697a61626c653a20636f6e747261637420697320616c72656160448201526d191e481a5b9a5d1a585b1a5e995960921b60648201526084015b60405180910390fd5b6000805460ff1916600117905580156106ad576000805461ff0019166101001790555b6106b56108a4565b6106bd6108d3565b6106c5610902565b60cb80546001600160a01b03808c166001600160a01b03199283161790925560ce80548b841690831617905560d48054928a169290911691909117905560cf86905560d085905560d284905560d383905560ca8290558015610761576000805461ff0019169055604051600181527f7f26b83ff96e1f2b6a682f133852f6798a09c465da95921460cefb38474024989060200160405180910390a15b505050505050505050565b6107746107e5565b6001600160a01b0381166107d95760405162461bcd60e51b815260206004820152602660248201527f4f776e61626c653a206e6577206f776e657220697320746865207a65726f206160448201526564647265737360d01b6064820152608401610681565b6107e28161083f565b50565b6033546001600160a01b031633146104cf5760405162461bcd60e51b815260206004820181905260248201527f4f776e61626c653a2063616c6c6572206973206e6f7420746865206f776e65726044820152606401610681565b603380546001600160a01b038381166001600160a01b0319831681179093556040519116919082907f8be0079c531659141344cd1fd0a4f28419497f9722a3daafe3b4186f6b6457e090600090a35050565b6001600160a01b0381163b15155b919050565b600054610100900460ff166108cb5760405162461bcd60e51b815260040161068190610b1a565b6104cf610931565b600054610100900460ff166108fa5760405162461bcd60e51b815260040161068190610b1a565b6104cf610961565b600054610100900460ff166109295760405162461bcd60e51b815260040161068190610b1a565b6104cf61098f565b600054610100900460ff166109585760405162461bcd60e51b815260040161068190610b1a565b6104cf3361083f565b600054610100900460ff166109885760405162461bcd60e51b815260040161068190610b1a565b6001606555565b600054610100900460ff166109b65760405162461bcd60e51b815260040161068190610b1a565b6097805460ff19169055565b80356001600160a01b038116811461089f57600080fd5b6000602082840312156109ea578081fd5b6109f3826109c2565b9392505050565b600080600080600080600080610100898b031215610a16578384fd5b610a1f896109c2565b9750610a2d60208a016109c2565b9650610a3b60408a016109c2565b979a96995096976060810135975060808101359660a0820135965060c0820135955060e0909101359350915050565b60006101208083528b5180828501528291505b80821015610a9f576020828e0101516101408386010152602082019150610a7d565b80821115610ab1578261014082860101525b601f01601f19168301610140019150610ad79050602083018b6001600160a01b03169052565b886040830152876060830152866080830152610af760a083018715159052565b93151560c082015291151560e08301521515610100909101529695505050505050565b6020808252602b908201527f496e697469616c697a61626c653a20636f6e7472616374206973206e6f74206960408201526a6e697469616c697a696e6760a81b606082015260800190565b600281046001821680610b7957607f821691505b60208210811415610b9a57634e487b7160e01b600052602260045260246000fd5b5091905056fea2646970667358221220c2f58a1690b7a523f8d585e4eb06970cd6fc75e117852f19f35e9d3daa365e1a64736f6c63430008020033",
  "devdoc": {
    "kind": "dev",
    "methods": {
      "owner()": {
        "details": "Returns the address of the current owner."
      },
      "paused()": {
        "details": "Returns true if the contract is paused, and false otherwise."
      },
      "renounceOwnership()": {
        "details": "Leaves the contract without owner. It will not be possible to call `onlyOwner` functions anymore. Can only be called by the current owner. NOTE: Renouncing ownership will leave the contract without an owner, thereby removing any functionality that is only available to the owner."
      },
      "transferOwnership(address)": {
        "details": "Transfers ownership of the contract to a new account (`newOwner`). Can only be called by the current owner."
      }
    },
    "version": 1
  },
  "userdoc": {
    "kind": "user",
    "methods": {},
    "version": 1
  },
  "storageLayout": {
    "storage": [
      {
        "astId": 184,
        "contract": "contracts/lockers/LockersProxy.sol:LockersProxy",
        "label": "_initialized",
        "offset": 0,
        "slot": "0",
        "type": "t_uint8"
      },
      {
        "astId": 187,
        "contract": "contracts/lockers/LockersProxy.sol:LockersProxy",
        "label": "_initializing",
        "offset": 1,
        "slot": "0",
        "type": "t_bool"
      },
      {
        "astId": 798,
        "contract": "contracts/lockers/LockersProxy.sol:LockersProxy",
        "label": "__gap",
        "offset": 0,
        "slot": "1",
        "type": "t_array(t_uint256)50_storage"
      },
      {
        "astId": 56,
        "contract": "contracts/lockers/LockersProxy.sol:LockersProxy",
        "label": "_owner",
        "offset": 0,
        "slot": "51",
        "type": "t_address"
      },
      {
        "astId": 176,
        "contract": "contracts/lockers/LockersProxy.sol:LockersProxy",
        "label": "__gap",
        "offset": 0,
        "slot": "52",
        "type": "t_array(t_uint256)49_storage"
      },
      {
        "astId": 469,
        "contract": "contracts/lockers/LockersProxy.sol:LockersProxy",
        "label": "_status",
        "offset": 0,
        "slot": "101",
        "type": "t_uint256"
      },
      {
        "astId": 513,
        "contract": "contracts/lockers/LockersProxy.sol:LockersProxy",
        "label": "__gap",
        "offset": 0,
        "slot": "102",
        "type": "t_array(t_uint256)49_storage"
      },
      {
        "astId": 349,
        "contract": "contracts/lockers/LockersProxy.sol:LockersProxy",
        "label": "_paused",
        "offset": 0,
        "slot": "151",
        "type": "t_bool"
      },
      {
        "astId": 454,
        "contract": "contracts/lockers/LockersProxy.sol:LockersProxy",
        "label": "__gap",
        "offset": 0,
        "slot": "152",
        "type": "t_array(t_uint256)49_storage"
      },
      {
        "astId": 9706,
        "contract": "contracts/lockers/LockersProxy.sol:LockersProxy",
        "label": "lockersLogic",
        "offset": 0,
        "slot": "201",
        "type": "t_address"
      },
      {
        "astId": 9708,
        "contract": "contracts/lockers/LockersProxy.sol:LockersProxy",
        "label": "lockerPercentageFee",
        "offset": 0,
        "slot": "202",
        "type": "t_uint256"
      },
      {
        "astId": 9710,
        "contract": "contracts/lockers/LockersProxy.sol:LockersProxy",
        "label": "TeleportDAOToken",
        "offset": 0,
        "slot": "203",
        "type": "t_address"
      },
      {
        "astId": 9712,
        "contract": "contracts/lockers/LockersProxy.sol:LockersProxy",
        "label": "teleBTC",
        "offset": 0,
        "slot": "204",
        "type": "t_address"
      },
      {
        "astId": 9714,
        "contract": "contracts/lockers/LockersProxy.sol:LockersProxy",
        "label": "ccBurnRouter",
        "offset": 0,
        "slot": "205",
        "type": "t_address"
      },
      {
        "astId": 9716,
        "contract": "contracts/lockers/LockersProxy.sol:LockersProxy",
        "label": "exchangeConnector",
        "offset": 0,
        "slot": "206",
        "type": "t_address"
      },
      {
        "astId": 9718,
        "contract": "contracts/lockers/LockersProxy.sol:LockersProxy",
        "label": "minRequiredTDTLockedAmount",
        "offset": 0,
        "slot": "207",
        "type": "t_uint256"
      },
      {
        "astId": 9720,
        "contract": "contracts/lockers/LockersProxy.sol:LockersProxy",
        "label": "minRequiredTNTLockedAmount",
        "offset": 0,
        "slot": "208",
        "type": "t_uint256"
      },
      {
        "astId": 9726,
        "contract": "contracts/lockers/LockersProxy.sol:LockersProxy",
        "label": "NATIVE_TOKEN",
        "offset": 0,
        "slot": "209",
        "type": "t_address"
      },
      {
        "astId": 9728,
        "contract": "contracts/lockers/LockersProxy.sol:LockersProxy",
        "label": "collateralRatio",
        "offset": 0,
        "slot": "210",
        "type": "t_uint256"
      },
      {
        "astId": 9730,
        "contract": "contracts/lockers/LockersProxy.sol:LockersProxy",
        "label": "liquidationRatio",
        "offset": 0,
        "slot": "211",
        "type": "t_uint256"
      },
      {
        "astId": 9732,
        "contract": "contracts/lockers/LockersProxy.sol:LockersProxy",
        "label": "priceOracle",
        "offset": 0,
        "slot": "212",
        "type": "t_address"
      },
      {
        "astId": 9737,
        "contract": "contracts/lockers/LockersProxy.sol:LockersProxy",
        "label": "lockersMapping",
        "offset": 0,
        "slot": "213",
        "type": "t_mapping(t_address,t_struct(locker)9704_storage)"
      },
      {
        "astId": 9739,
        "contract": "contracts/lockers/LockersProxy.sol:LockersProxy",
        "label": "totalNumberOfCandidates",
        "offset": 0,
        "slot": "214",
        "type": "t_uint256"
      },
      {
        "astId": 9741,
        "contract": "contracts/lockers/LockersProxy.sol:LockersProxy",
        "label": "totalNumberOfLockers",
        "offset": 0,
        "slot": "215",
        "type": "t_uint256"
      },
      {
        "astId": 9745,
        "contract": "contracts/lockers/LockersProxy.sol:LockersProxy",
        "label": "lockerLeavingRequests",
        "offset": 0,
        "slot": "216",
        "type": "t_mapping(t_address,t_bool)"
      },
      {
        "astId": 9749,
        "contract": "contracts/lockers/LockersProxy.sol:LockersProxy",
        "label": "lockerLeavingAcceptance",
        "offset": 0,
        "slot": "217",
        "type": "t_mapping(t_address,t_bool)"
      },
      {
        "astId": 9753,
        "contract": "contracts/lockers/LockersProxy.sol:LockersProxy",
        "label": "lockerTargetAddress",
        "offset": 0,
        "slot": "218",
        "type": "t_mapping(t_address,t_address)"
      },
      {
        "astId": 9757,
        "contract": "contracts/lockers/LockersProxy.sol:LockersProxy",
        "label": "minters",
        "offset": 0,
        "slot": "219",
        "type": "t_mapping(t_address,t_bool)"
      },
      {
        "astId": 9761,
        "contract": "contracts/lockers/LockersProxy.sol:LockersProxy",
        "label": "burners",
        "offset": 0,
        "slot": "220",
        "type": "t_mapping(t_address,t_bool)"
      }
    ],
    "types": {
      "t_address": {
        "encoding": "inplace",
        "label": "address",
        "numberOfBytes": "20"
      },
      "t_array(t_uint256)49_storage": {
        "base": "t_uint256",
        "encoding": "inplace",
        "label": "uint256[49]",
        "numberOfBytes": "1568"
      },
      "t_array(t_uint256)50_storage": {
        "base": "t_uint256",
        "encoding": "inplace",
        "label": "uint256[50]",
        "numberOfBytes": "1600"
      },
      "t_bool": {
        "encoding": "inplace",
        "label": "bool",
        "numberOfBytes": "1"
      },
      "t_bytes_storage": {
        "encoding": "bytes",
        "label": "bytes",
        "numberOfBytes": "32"
      },
      "t_mapping(t_address,t_address)": {
        "encoding": "mapping",
        "key": "t_address",
        "label": "mapping(address => address)",
        "numberOfBytes": "32",
        "value": "t_address"
      },
      "t_mapping(t_address,t_bool)": {
        "encoding": "mapping",
        "key": "t_address",
        "label": "mapping(address => bool)",
        "numberOfBytes": "32",
        "value": "t_bool"
      },
      "t_mapping(t_address,t_struct(locker)9704_storage)": {
        "encoding": "mapping",
        "key": "t_address",
        "label": "mapping(address => struct LockersStorageStructure.locker)",
        "numberOfBytes": "32",
        "value": "t_struct(locker)9704_storage"
      },
      "t_struct(locker)9704_storage": {
        "encoding": "inplace",
        "label": "struct LockersStorageStructure.locker",
        "members": [
          {
            "astId": 9687,
            "contract": "contracts/lockers/LockersProxy.sol:LockersProxy",
            "label": "lockerRedeemScript",
            "offset": 0,
            "slot": "0",
            "type": "t_bytes_storage"
          },
          {
            "astId": 9689,
            "contract": "contracts/lockers/LockersProxy.sol:LockersProxy",
            "label": "lockerScriptHash",
            "offset": 0,
            "slot": "1",
            "type": "t_address"
          },
          {
            "astId": 9691,
            "contract": "contracts/lockers/LockersProxy.sol:LockersProxy",
            "label": "TDTLockedAmount",
            "offset": 0,
            "slot": "2",
            "type": "t_uint256"
          },
          {
            "astId": 9693,
            "contract": "contracts/lockers/LockersProxy.sol:LockersProxy",
            "label": "nativeTokenLockedAmount",
            "offset": 0,
            "slot": "3",
            "type": "t_uint256"
          },
          {
            "astId": 9695,
            "contract": "contracts/lockers/LockersProxy.sol:LockersProxy",
            "label": "netMinted",
            "offset": 0,
            "slot": "4",
            "type": "t_uint256"
          },
          {
            "astId": 9697,
            "contract": "contracts/lockers/LockersProxy.sol:LockersProxy",
            "label": "isLocker",
            "offset": 0,
            "slot": "5",
            "type": "t_bool"
          },
          {
            "astId": 9699,
            "contract": "contracts/lockers/LockersProxy.sol:LockersProxy",
            "label": "isCandidate",
            "offset": 1,
            "slot": "5",
            "type": "t_bool"
          },
          {
            "astId": 9701,
            "contract": "contracts/lockers/LockersProxy.sol:LockersProxy",
            "label": "isScriptHash",
            "offset": 2,
            "slot": "5",
            "type": "t_bool"
          },
          {
            "astId": 9703,
            "contract": "contracts/lockers/LockersProxy.sol:LockersProxy",
            "label": "isActive",
            "offset": 3,
            "slot": "5",
            "type": "t_bool"
          }
        ],
        "numberOfBytes": "192"
      },
      "t_uint256": {
        "encoding": "inplace",
        "label": "uint256",
        "numberOfBytes": "32"
      },
      "t_uint8": {
        "encoding": "inplace",
        "label": "uint8",
        "numberOfBytes": "1"
      }
    }
  }
}