{
  "address": "0x22e7A6c96eB9233408C701f6be9e9228FBAe1afA",
  "abi": [
    {
      "anonymous": false,
      "inputs": [
        {
          "indexed": false,
          "internalType": "uint8",
          "name": "version",
          "type": "uint8"
        }
      ],
      "name": "Initialized",
      "type": "event"
    },
    {
      "anonymous": false,
      "inputs": [
        {
          "indexed": true,
          "internalType": "address",
          "name": "lockerTargetAddress",
          "type": "address"
        },
        {
          "indexed": false,
          "internalType": "bytes",
          "name": "lockerLockingScript",
          "type": "bytes"
        },
        {
          "indexed": false,
          "internalType": "uint256",
          "name": "TDTLockedAmount",
          "type": "uint256"
        },
        {
          "indexed": false,
          "internalType": "uint256",
          "name": "nativeTokenLockedAmount",
          "type": "uint256"
        },
        {
          "indexed": false,
          "internalType": "uint256",
          "name": "addingTime",
          "type": "uint256"
        }
      ],
      "name": "LockerAdded",
      "type": "event"
    },
    {
      "anonymous": false,
      "inputs": [
        {
          "indexed": true,
          "internalType": "address",
          "name": "lockerTargetAddress",
          "type": "address"
        },
        {
          "indexed": false,
          "internalType": "bytes",
          "name": "lockerLockingScript",
          "type": "bytes"
        },
        {
          "indexed": false,
          "internalType": "uint256",
          "name": "TDTUnlockedAmount",
          "type": "uint256"
        },
        {
          "indexed": false,
          "internalType": "uint256",
          "name": "nativeTokenUnlockedAmount",
          "type": "uint256"
        }
      ],
      "name": "LockerRemoved",
      "type": "event"
    },
    {
      "anonymous": false,
      "inputs": [
        {
          "indexed": true,
          "internalType": "address",
          "name": "lockerTargetAddress",
          "type": "address"
        },
        {
          "indexed": false,
          "internalType": "uint256",
          "name": "slashedCollateralAmount",
          "type": "uint256"
        }
      ],
      "name": "LockerSlashed",
      "type": "event"
    },
    {
      "anonymous": false,
      "inputs": [
        {
          "indexed": true,
          "internalType": "address",
          "name": "previousOwner",
          "type": "address"
        },
        {
          "indexed": true,
          "internalType": "address",
          "name": "newOwner",
          "type": "address"
        }
      ],
      "name": "OwnershipTransferred",
      "type": "event"
    },
    {
      "anonymous": false,
      "inputs": [
        {
          "indexed": false,
          "internalType": "address",
          "name": "account",
          "type": "address"
        }
      ],
      "name": "Paused",
      "type": "event"
    },
    {
      "anonymous": false,
      "inputs": [
        {
          "indexed": true,
          "internalType": "address",
          "name": "lockerTargetAddress",
          "type": "address"
        },
        {
          "indexed": false,
          "internalType": "bytes",
          "name": "lockerLockingScript",
          "type": "bytes"
        },
        {
          "indexed": false,
          "internalType": "uint256",
          "name": "TDTLockedAmount",
          "type": "uint256"
        },
        {
          "indexed": false,
          "internalType": "uint256",
          "name": "nativeTokenLockedAmount",
          "type": "uint256"
        }
      ],
      "name": "RequestAddLocker",
      "type": "event"
    },
    {
      "anonymous": false,
      "inputs": [
        {
          "indexed": true,
          "internalType": "address",
          "name": "lockerTargetAddress",
          "type": "address"
        },
        {
          "indexed": false,
          "internalType": "bytes",
          "name": "lockerLockingScript",
          "type": "bytes"
        },
        {
          "indexed": false,
          "internalType": "uint256",
          "name": "TDTUnlockedAmount",
          "type": "uint256"
        },
        {
          "indexed": false,
          "internalType": "uint256",
          "name": "nativeTokenUnlockedAmount",
          "type": "uint256"
        },
        {
          "indexed": false,
          "internalType": "uint256",
          "name": "netMinted",
          "type": "uint256"
        }
      ],
      "name": "RequestRemoveLocker",
      "type": "event"
    },
    {
      "anonymous": false,
      "inputs": [
        {
          "indexed": false,
          "internalType": "address",
          "name": "account",
          "type": "address"
        }
      ],
      "name": "Unpaused",
      "type": "event"
    },
    {
      "inputs": [],
      "name": "HEALTH_FACTOR",
      "outputs": [
        {
          "internalType": "uint256",
          "name": "",
          "type": "uint256"
        }
      ],
      "stateMutability": "view",
      "type": "function"
    },
    {
      "inputs": [],
      "name": "NATIVE_TOKEN",
      "outputs": [
        {
          "internalType": "address",
          "name": "",
          "type": "address"
        }
      ],
      "stateMutability": "view",
      "type": "function"
    },
    {
      "inputs": [],
      "name": "TeleportDAOToken",
      "outputs": [
        {
          "internalType": "address",
          "name": "",
          "type": "address"
        }
      ],
      "stateMutability": "view",
      "type": "function"
    },
    {
      "inputs": [],
      "name": "UPPER_HEALTH_FACTOR",
      "outputs": [
        {
          "internalType": "uint256",
          "name": "",
          "type": "uint256"
        }
      ],
      "stateMutability": "view",
      "type": "function"
    },
    {
      "inputs": [
        {
          "internalType": "address",
          "name": "_account",
          "type": "address"
        }
      ],
      "name": "addBurner",
      "outputs": [],
      "stateMutability": "nonpayable",
      "type": "function"
    },
    {
      "inputs": [
        {
          "internalType": "address",
          "name": "_lockerTargetAddress",
          "type": "address"
        }
      ],
      "name": "addLocker",
      "outputs": [
        {
          "internalType": "bool",
          "name": "",
          "type": "bool"
        }
      ],
      "stateMutability": "nonpayable",
      "type": "function"
    },
    {
      "inputs": [
        {
          "internalType": "address",
          "name": "_account",
          "type": "address"
        }
      ],
      "name": "addMinter",
      "outputs": [],
      "stateMutability": "nonpayable",
      "type": "function"
    },
    {
      "inputs": [
        {
          "internalType": "bytes",
          "name": "_lockerLockingScript",
          "type": "bytes"
        },
        {
          "internalType": "uint256",
          "name": "_amount",
          "type": "uint256"
        }
      ],
      "name": "burn",
      "outputs": [
        {
          "internalType": "uint256",
          "name": "",
          "type": "uint256"
        }
      ],
      "stateMutability": "nonpayable",
      "type": "function"
    },
    {
      "inputs": [],
      "name": "ccBurnRouter",
      "outputs": [
        {
          "internalType": "address",
          "name": "",
          "type": "address"
        }
      ],
      "stateMutability": "view",
      "type": "function"
    },
    {
      "inputs": [],
      "name": "collateralRatio",
      "outputs": [
        {
          "internalType": "uint256",
          "name": "",
          "type": "uint256"
        }
      ],
      "stateMutability": "view",
      "type": "function"
    },
    {
      "inputs": [],
      "name": "exchangeConnector",
      "outputs": [
        {
          "internalType": "address",
          "name": "",
          "type": "address"
        }
      ],
      "stateMutability": "view",
      "type": "function"
    },
    {
      "inputs": [
        {
          "internalType": "address",
          "name": "_lockerTargetAddress",
          "type": "address"
        }
      ],
      "name": "getLockerCapacity",
      "outputs": [
        {
          "internalType": "uint256",
          "name": "",
          "type": "uint256"
        }
      ],
      "stateMutability": "view",
      "type": "function"
    },
    {
      "inputs": [
        {
          "internalType": "address",
          "name": "_lockerTargetAddress",
          "type": "address"
        }
      ],
      "name": "getLockerLockingScript",
      "outputs": [
        {
          "internalType": "bytes",
          "name": "",
          "type": "bytes"
        }
      ],
      "stateMutability": "view",
      "type": "function"
    },
    {
      "inputs": [
        {
          "internalType": "bytes",
          "name": "_lockerLockingScript",
          "type": "bytes"
        }
      ],
      "name": "getLockerTargetAddress",
      "outputs": [
        {
          "internalType": "address",
          "name": "",
          "type": "address"
        }
      ],
      "stateMutability": "view",
      "type": "function"
    },
    {
      "inputs": [],
      "name": "getNumberOfLockers",
      "outputs": [
        {
          "internalType": "uint256",
          "name": "",
          "type": "uint256"
        }
      ],
      "stateMutability": "view",
      "type": "function"
    },
    {
      "inputs": [
        {
          "internalType": "address",
          "name": "_TeleportDAOToken",
          "type": "address"
        },
        {
          "internalType": "address",
          "name": "_exchangeConnector",
          "type": "address"
        },
        {
          "internalType": "address",
          "name": "_priceOracle",
          "type": "address"
        },
        {
          "internalType": "uint256",
          "name": "_minRequiredTDTLockedAmount",
          "type": "uint256"
        },
        {
          "internalType": "uint256",
          "name": "_minRequiredTNTLockedAmount",
          "type": "uint256"
        },
        {
          "internalType": "uint256",
          "name": "_collateralRatio",
          "type": "uint256"
        },
        {
          "internalType": "uint256",
          "name": "_liquidationRatio",
          "type": "uint256"
        },
        {
          "internalType": "uint256",
          "name": "_lockerPercentageFee",
          "type": "uint256"
        },
        {
          "internalType": "uint256",
          "name": "_priceWithDiscountRatio",
          "type": "uint256"
        }
      ],
      "name": "initialize",
      "outputs": [],
      "stateMutability": "nonpayable",
      "type": "function"
    },
    {
      "inputs": [
        {
          "internalType": "address",
          "name": "_lockerTargetAddress",
          "type": "address"
        }
      ],
      "name": "isActive",
      "outputs": [
        {
          "internalType": "bool",
          "name": "",
          "type": "bool"
        }
      ],
      "stateMutability": "view",
      "type": "function"
    },
    {
      "inputs": [
        {
          "internalType": "bytes",
          "name": "_lockerLockingScript",
          "type": "bytes"
        }
      ],
      "name": "isLocker",
      "outputs": [
        {
          "internalType": "bool",
          "name": "",
          "type": "bool"
        }
      ],
      "stateMutability": "view",
      "type": "function"
    },
    {
      "inputs": [
        {
          "internalType": "address",
          "name": "_lockerTargetAddress",
          "type": "address"
        },
        {
          "internalType": "uint256",
          "name": "_collateralAmount",
          "type": "uint256"
        }
      ],
      "name": "liquidateLocker",
      "outputs": [
        {
          "internalType": "bool",
          "name": "result",
          "type": "bool"
        }
      ],
      "stateMutability": "nonpayable",
      "type": "function"
    },
    {
      "inputs": [],
      "name": "liquidationRatio",
      "outputs": [
        {
          "internalType": "uint256",
          "name": "",
          "type": "uint256"
        }
      ],
      "stateMutability": "view",
      "type": "function"
    },
    {
      "inputs": [
        {
          "internalType": "address",
          "name": "",
          "type": "address"
        }
      ],
      "name": "lockerLeavingAcceptance",
      "outputs": [
        {
          "internalType": "bool",
          "name": "",
          "type": "bool"
        }
      ],
      "stateMutability": "view",
      "type": "function"
    },
    {
      "inputs": [
        {
          "internalType": "address",
          "name": "",
          "type": "address"
        }
      ],
      "name": "lockerLeavingRequests",
      "outputs": [
        {
          "internalType": "bool",
          "name": "",
          "type": "bool"
        }
      ],
      "stateMutability": "view",
      "type": "function"
    },
    {
      "inputs": [],
      "name": "lockerPercentageFee",
      "outputs": [
        {
          "internalType": "uint256",
          "name": "",
          "type": "uint256"
        }
      ],
      "stateMutability": "view",
      "type": "function"
    },
    {
      "inputs": [
        {
          "internalType": "bytes",
          "name": "",
          "type": "bytes"
        }
      ],
      "name": "lockerTargetAddress",
      "outputs": [
        {
          "internalType": "address",
          "name": "",
          "type": "address"
        }
      ],
      "stateMutability": "view",
      "type": "function"
    },
    {
      "inputs": [],
      "name": "lockersLogic",
      "outputs": [
        {
          "internalType": "address",
          "name": "",
          "type": "address"
        }
      ],
      "stateMutability": "view",
      "type": "function"
    },
    {
      "inputs": [
        {
          "internalType": "address",
          "name": "",
          "type": "address"
        }
      ],
      "name": "lockersMapping",
      "outputs": [
        {
          "internalType": "bytes",
          "name": "lockerLockingScript",
          "type": "bytes"
        },
        {
          "internalType": "uint256",
          "name": "TDTLockedAmount",
          "type": "uint256"
        },
        {
          "internalType": "uint256",
          "name": "nativeTokenLockedAmount",
          "type": "uint256"
        },
        {
          "internalType": "uint256",
          "name": "netMinted",
          "type": "uint256"
        },
        {
          "internalType": "bool",
          "name": "isLocker",
          "type": "bool"
        },
        {
          "internalType": "bool",
          "name": "isCandidate",
          "type": "bool"
        },
        {
          "internalType": "bool",
          "name": "isScriptHash",
          "type": "bool"
        },
        {
          "internalType": "bool",
          "name": "isActive",
          "type": "bool"
        }
      ],
      "stateMutability": "view",
      "type": "function"
    },
    {
      "inputs": [],
      "name": "minRequiredTDTLockedAmount",
      "outputs": [
        {
          "internalType": "uint256",
          "name": "",
          "type": "uint256"
        }
      ],
      "stateMutability": "view",
      "type": "function"
    },
    {
      "inputs": [],
      "name": "minRequiredTNTLockedAmount",
      "outputs": [
        {
          "internalType": "uint256",
          "name": "",
          "type": "uint256"
        }
      ],
      "stateMutability": "view",
      "type": "function"
    },
    {
      "inputs": [
        {
          "internalType": "bytes",
          "name": "_lockerLockingScript",
          "type": "bytes"
        },
        {
          "internalType": "address",
          "name": "_receiver",
          "type": "address"
        },
        {
          "internalType": "uint256",
          "name": "_amount",
          "type": "uint256"
        }
      ],
      "name": "mint",
      "outputs": [
        {
          "internalType": "uint256",
          "name": "",
          "type": "uint256"
        }
      ],
      "stateMutability": "nonpayable",
      "type": "function"
    },
    {
      "inputs": [],
      "name": "owner",
      "outputs": [
        {
          "internalType": "address",
          "name": "",
          "type": "address"
        }
      ],
      "stateMutability": "view",
      "type": "function"
    },
    {
      "inputs": [],
      "name": "pauseLocker",
      "outputs": [],
      "stateMutability": "nonpayable",
      "type": "function"
    },
    {
      "inputs": [],
      "name": "paused",
      "outputs": [
        {
          "internalType": "bool",
          "name": "",
          "type": "bool"
        }
      ],
      "stateMutability": "view",
      "type": "function"
    },
    {
      "inputs": [],
      "name": "priceOracle",
      "outputs": [
        {
          "internalType": "address",
          "name": "",
          "type": "address"
        }
      ],
      "stateMutability": "view",
      "type": "function"
    },
    {
      "inputs": [],
      "name": "priceWithDiscountRatio",
      "outputs": [
        {
          "internalType": "uint256",
          "name": "",
          "type": "uint256"
        }
      ],
      "stateMutability": "view",
      "type": "function"
    },
    {
      "inputs": [
        {
          "internalType": "address",
          "name": "_account",
          "type": "address"
        }
      ],
      "name": "removeBurner",
      "outputs": [],
      "stateMutability": "nonpayable",
      "type": "function"
    },
    {
      "inputs": [
        {
          "internalType": "address",
          "name": "_lockerTargetAddress",
          "type": "address"
        }
      ],
      "name": "removeLocker",
      "outputs": [
        {
          "internalType": "bool",
          "name": "",
          "type": "bool"
        }
      ],
      "stateMutability": "nonpayable",
      "type": "function"
    },
    {
      "inputs": [
        {
          "internalType": "address",
          "name": "_account",
          "type": "address"
        }
      ],
      "name": "removeMinter",
      "outputs": [],
      "stateMutability": "nonpayable",
      "type": "function"
    },
    {
      "inputs": [],
      "name": "renounceOwnership",
      "outputs": [],
      "stateMutability": "nonpayable",
      "type": "function"
    },
    {
      "inputs": [
        {
          "internalType": "bytes",
          "name": "_candidateLockingScript",
          "type": "bytes"
        },
        {
          "internalType": "uint256",
          "name": "_lockedTDTAmount",
          "type": "uint256"
        },
        {
          "internalType": "uint256",
          "name": "_lockedNativeTokenAmount",
          "type": "uint256"
        }
      ],
      "name": "requestToBecomeLocker",
      "outputs": [
        {
          "internalType": "bool",
          "name": "",
          "type": "bool"
        }
      ],
      "stateMutability": "payable",
      "type": "function"
    },
    {
      "inputs": [],
      "name": "requestToRemoveLocker",
      "outputs": [
        {
          "internalType": "bool",
          "name": "",
          "type": "bool"
        }
      ],
      "stateMutability": "nonpayable",
      "type": "function"
    },
    {
      "inputs": [],
      "name": "revokeRequest",
      "outputs": [
        {
          "internalType": "bool",
          "name": "",
          "type": "bool"
        }
      ],
      "stateMutability": "nonpayable",
      "type": "function"
    },
    {
      "inputs": [],
      "name": "selfRemoveLocker",
      "outputs": [
        {
          "internalType": "bool",
          "name": "",
          "type": "bool"
        }
      ],
      "stateMutability": "nonpayable",
      "type": "function"
    },
    {
      "inputs": [
        {
          "internalType": "address",
          "name": "_ccBurnRouter",
          "type": "address"
        }
      ],
      "name": "setCCBurnRouter",
      "outputs": [],
      "stateMutability": "nonpayable",
      "type": "function"
    },
    {
      "inputs": [
        {
          "internalType": "uint256",
          "name": "_collateralRatio",
          "type": "uint256"
        }
      ],
      "name": "setCollateralRatio",
      "outputs": [],
      "stateMutability": "nonpayable",
      "type": "function"
    },
    {
      "inputs": [
        {
          "internalType": "address",
          "name": "_exchangeConnector",
          "type": "address"
        }
      ],
      "name": "setExchangeConnector",
      "outputs": [],
      "stateMutability": "nonpayable",
      "type": "function"
    },
    {
      "inputs": [
        {
          "internalType": "uint256",
          "name": "_minRequiredTDTLockedAmount",
          "type": "uint256"
        }
      ],
      "name": "setMinRequiredTDTLockedAmount",
      "outputs": [],
      "stateMutability": "nonpayable",
      "type": "function"
    },
    {
      "inputs": [
        {
          "internalType": "uint256",
          "name": "_minRequiredTNTLockedAmount",
          "type": "uint256"
        }
      ],
      "name": "setMinRequiredTNTLockedAmount",
      "outputs": [],
      "stateMutability": "nonpayable",
      "type": "function"
    },
    {
      "inputs": [
        {
          "internalType": "address",
          "name": "_priceOracle",
          "type": "address"
        }
      ],
      "name": "setPriceOracle",
      "outputs": [],
      "stateMutability": "nonpayable",
      "type": "function"
    },
    {
      "inputs": [
        {
          "internalType": "address",
          "name": "_teleBTC",
          "type": "address"
        }
      ],
      "name": "setTeleBTC",
      "outputs": [],
      "stateMutability": "nonpayable",
      "type": "function"
    },
    {
      "inputs": [
        {
          "internalType": "address",
          "name": "_lockerTargetAddress",
          "type": "address"
        },
        {
          "internalType": "uint256",
          "name": "_rewardAmount",
          "type": "uint256"
        },
        {
          "internalType": "address",
          "name": "_rewardRecipient",
          "type": "address"
        },
        {
          "internalType": "uint256",
          "name": "_amount",
          "type": "uint256"
        },
        {
          "internalType": "address",
          "name": "_recipient",
          "type": "address"
        }
      ],
      "name": "slashLocker",
      "outputs": [
        {
          "internalType": "bool",
          "name": "",
          "type": "bool"
        }
      ],
      "stateMutability": "nonpayable",
      "type": "function"
    },
    {
      "inputs": [],
      "name": "teleBTC",
      "outputs": [
        {
          "internalType": "address",
          "name": "",
          "type": "address"
        }
      ],
      "stateMutability": "view",
      "type": "function"
    },
    {
      "inputs": [],
      "name": "totalNumberOfCandidates",
      "outputs": [
        {
          "internalType": "uint256",
          "name": "",
          "type": "uint256"
        }
      ],
      "stateMutability": "view",
      "type": "function"
    },
    {
      "inputs": [],
      "name": "totalNumberOfLockers",
      "outputs": [
        {
          "internalType": "uint256",
          "name": "",
          "type": "uint256"
        }
      ],
      "stateMutability": "view",
      "type": "function"
    },
    {
      "inputs": [
        {
          "internalType": "address",
          "name": "newOwner",
          "type": "address"
        }
      ],
      "name": "transferOwnership",
      "outputs": [],
      "stateMutability": "nonpayable",
      "type": "function"
    },
    {
      "inputs": [],
      "name": "unPauseLocker",
      "outputs": [],
      "stateMutability": "nonpayable",
      "type": "function"
    }
  ],
  "transactionHash": "0xea7e7c66855625a9357f21e0a787747406a0b6fb124bda2acf7eaaf9f9a0198a",
  "args": [],
  "numDeployments": 1,
  "solcInputHash": "e7939e14552e724dbcf98b821fe06d72",
  "bytecode": "0x608060405260d180546001600160a01b031916600117905534801561002357600080fd5b50614617806100336000396000f3fe6080604052600436106103505760003560e01c80638d3d78cd116101c6578063c0924b80116100f7578063e955de4511610095578063ef69a7bc1161006f578063ef69a7bc146109a2578063f2fde38b146109b7578063f44637ba146109d7578063ffc9f704146109f757610350565b8063e955de4514610957578063ed110a9c1461096c578063ee1f1c701461098257610350565b8063cab1344e116100d1578063cab1344e146108e2578063ce62cd4a14610902578063d5a38a9114610922578063e85501d81461094257610350565b8063c0924b801461088d578063c4d10b6a146108ad578063ca666b84146108cd57610350565b8063a839db2411610164578063b291ec131161013e578063b291ec131461082b578063b4eae1cb14610841578063bb4a250914610857578063bc805d1d1461087757610350565b8063a839db24146107b7578063af1ea795146107d7578063aff2faa31461080b57610350565b8063983b2d56116101a0578063983b2d56146107445780639bf09882146107645780639f8a13d714610784578063a796705f146107a457610350565b80638d3d78cd146106e65780638da5cb5b1461070657806396ec39e81461072457610350565b80635a8d80b8116102a05780636d32395c1161023e5780637da5f0da116102185780637da5f0da146106605780637edb79bc146106905780637f0f1817146106b057806388aa0a52146106d057610350565b80636d32395c1461061f578063715018a614610635578063768ebb121461064a57610350565b80636060663e1161027a5780636060663e146105b4578063613e2e1e146105d457806363908020146105e9578063683d178c146105ff57610350565b80635a8d80b81461054f5780635c975abb1461056f5780635d6464ba1461058757610350565b80633092afd51161030d57806341f3ec11116102e757806341f3ec11146104b857806341fae579146104f957806345cc58901461050f578063530e784f1461052f57610350565b80633092afd51461045857806331f7d9641461047857806338463cff1461049857610350565b80630284685814610355578063043fd54b14610377578063108f438d146103bc5780631775765f146103f45780631fcfe19c146104185780632630c12f14610438575b600080fd5b34801561036157600080fd5b50610375610370366004613d38565b610a0c565b005b34801561038357600080fd5b506103a7610392366004613d38565b60d96020526000908152604090205460ff1681565b60405190151581526020015b60405180910390f35b3480156103c857600080fd5b5060cb546103dc906001600160a01b031681565b6040516001600160a01b0390911681526020016103b3565b34801561040057600080fd5b5061040a60d35481565b6040519081526020016103b3565b34801561042457600080fd5b5061040a610433366004613eab565b610a8b565b34801561044457600080fd5b5060d5546103dc906001600160a01b031681565b34801561046457600080fd5b50610375610473366004613d38565b610da7565b34801561048457600080fd5b5060d1546103dc906001600160a01b031681565b3480156104a457600080fd5b5061040a6104b3366004613f05565b610e1d565b3480156104c457600080fd5b506103dc6104d3366004613f9e565b805160208183018101805160db825292820191909301209152546001600160a01b031681565b34801561050557600080fd5b5061040a60cf5481565b34801561051b57600080fd5b506103a761052a366004613d38565b611176565b34801561053b57600080fd5b5061037561054a366004613d38565b61135d565b34801561055b57600080fd5b5060cd546103dc906001600160a01b031681565b34801561057b57600080fd5b5060975460ff166103a7565b34801561059357600080fd5b506105a76105a2366004613d38565b6113af565b6040516103b39190614181565b3480156105c057600080fd5b506103756105cf366004614048565b611482565b3480156105e057600080fd5b5061037561148f565b3480156105f557600080fd5b5061040a60ca5481565b34801561060b57600080fd5b506103a761061a366004613df5565b6114a1565b34801561062b57600080fd5b5061040a60d05481565b34801561064157600080fd5b5061037561183e565b34801561065657600080fd5b5061040a61271081565b34801561066c57600080fd5b506103a761067b366004613d38565b60da6020526000908152604090205460ff1681565b34801561069c57600080fd5b5060c9546103dc906001600160a01b031681565b3480156106bc57600080fd5b506103756106cb366004613d38565b611850565b3480156106dc57600080fd5b5061040a60d75481565b3480156106f257600080fd5b5060cc546103dc906001600160a01b031681565b34801561071257600080fd5b506033546001600160a01b03166103dc565b34801561073057600080fd5b506103a761073f366004613dcc565b6118a2565b34801561075057600080fd5b5061037561075f366004613d38565b611ccb565b34801561077057600080fd5b5061037561077f366004614048565b611d45565b34801561079057600080fd5b506103a761079f366004613d38565b611d52565b6103a76107b2366004613f4f565b611da5565b3480156107c357600080fd5b506103756107d2366004614048565b612221565b3480156107e357600080fd5b506107f76107f2366004613d38565b61222e565b6040516103b39897969594939291906141b9565b34801561081757600080fd5b506103a7610826366004613e6b565b612304565b34801561083757600080fd5b5061040a60d45481565b34801561084d57600080fd5b5061040a60d25481565b34801561086357600080fd5b50610375610872366004613d52565b612352565b34801561088357600080fd5b5061040a612ee081565b34801561089957600080fd5b5060ce546103dc906001600160a01b031681565b3480156108b957600080fd5b506103dc6108c8366004613e6b565b6124de565b3480156108d957600080fd5b506103a7612513565b3480156108ee57600080fd5b506103756108fd366004613d38565b612635565b34801561090e57600080fd5b506103a761091d366004613d38565b612687565b34801561092e57600080fd5b5061040a61093d366004613d38565b612a00565b34801561094e57600080fd5b506103a7612a78565b34801561096357600080fd5b50610375612cfb565b34801561097857600080fd5b5061040a60d85481565b34801561098e57600080fd5b5061037561099d366004613d38565b612d0b565b3480156109ae57600080fd5b5060d85461040a565b3480156109c357600080fd5b506103756109d2366004613d38565b612d5d565b3480156109e357600080fd5b506103756109f2366004613d38565b612dd6565b348015610a0357600080fd5b506103a7612e50565b806001600160a01b038116610a3c5760405162461bcd60e51b8152600401610a33906143c8565b60405180910390fd5b610a44613165565b610a4d826131bf565b610a695760405162461bcd60e51b8152600401610a33906142d0565b506001600160a01b0316600090815260dd60205260409020805460ff19169055565b6000826001600160a01b038116610ab45760405162461bcd60e51b8152600401610a33906143c8565b8260008111610ad55760405162461bcd60e51b8152600401610a3390614398565b60026065541415610af85760405162461bcd60e51b8152600401610a33906144db565b6002606555610b05613208565b610b0e3361324e565b610b5a5760405162461bcd60e51b815260206004820152601e60248201527f4c6f636b6572733a206f6e6c79206d696e746572732063616e206d696e7400006044820152606401610a33565b600060db8888604051610b6e9291906140c3565b908152604051908190036020019020546001600160a01b031690506000610b9482612a00565b905085811015610bfe5760405162461bcd60e51b815260206004820152602f60248201527f4c6f636b6572733a2074686973206c6f636b6572206861736e2774207375666660448201526e696369656e7420636170616369747960881b6064820152608401610a33565b6001600160a01b038216600090815260d66020526040902060030154610c25908790614512565b6001600160a01b038316600090815260d6602052604081206003019190915560ca5461271090610c55908961454a565b610c5f919061452a565b90508015610cef5760cc546040516340c10f1960e01b81526001600160a01b03858116600483015260248201849052909116906340c10f1990604401602060405180830381600087803b158015610cb557600080fd5b505af1158015610cc9573d6000803e3d6000fd5b505050506040513d601f19601f82011682018060405250810190610ced9190613e4b565b505b60cc546001600160a01b03166340c10f1989610d0b848b614569565b6040516001600160e01b031960e085901b1681526001600160a01b0390921660048301526024820152604401602060405180830381600087803b158015610d5157600080fd5b505af1158015610d65573d6000803e3d6000fd5b505050506040513d601f19601f82011682018060405250810190610d899190613e4b565b50610d948188614569565b60016065559a9950505050505050505050565b806001600160a01b038116610dce5760405162461bcd60e51b8152600401610a33906143c8565b610dd6613165565b610ddf8261324e565b610dfb5760405162461bcd60e51b8152600401610a33906142d0565b506001600160a01b0316600090815260dc60205260409020805460ff19169055565b60008160008111610e405760405162461bcd60e51b8152600401610a3390614398565b60026065541415610e635760405162461bcd60e51b8152600401610a33906144db565b6002606555610e70613208565b610e79336131bf565b610ec55760405162461bcd60e51b815260206004820152601e60248201527f4c6f636b6572733a206f6e6c79206275726e6572732063616e206275726e00006044820152606401610a33565b600060db8686604051610ed99291906140c3565b9081526040519081900360200190205460cc546001600160a01b039182169250166323b872dd610f063390565b6040516001600160e01b031960e084901b1681526001600160a01b03909116600482015230602482015260448101879052606401602060405180830381600087803b158015610f5457600080fd5b505af1158015610f68573d6000803e3d6000fd5b505050506040513d601f19601f82011682018060405250810190610f8c9190613e4b565b50600061271060ca5486610fa0919061454a565b610faa919061452a565b90506000610fb88287614569565b6001600160a01b038416600090815260d660205260409020600301549091508181101561103d5760405162461bcd60e51b815260206004820152602d60248201527f4c6f636b6572733a206c6f636b657220646f65736e277420686176652073756660448201526c66696369656e742066756e647360981b6064820152608401610a33565b6110478282614569565b6001600160a01b03858116600090815260d66020526040908190206003019290925560cc549151630852cd8d60e31b8152600481018590529116906342966c6890602401602060405180830381600087803b1580156110a557600080fd5b505af11580156110b9573d6000803e3d6000fd5b505050506040513d601f19601f820116820180604052508101906110dd9190613e4b565b5060cc5460405163a9059cbb60e01b81526001600160a01b038681166004830152602482018690529091169063a9059cbb90604401602060405180830381600087803b15801561112c57600080fd5b505af1158015611140573d6000803e3d6000fd5b505050506040513d601f19601f820116820180604052508101906111649190613e4b565b50506001606555979650505050505050565b6000816001600160a01b03811661119f5760405162461bcd60e51b8152600401610a33906143c8565b600260655414156111c25760405162461bcd60e51b8152600401610a33906144db565b60026065556111cf613165565b6001600160a01b038316600090815260d66020526040902060040154610100900460ff1661124d5760405162461bcd60e51b815260206004820152602560248201527f4c6f636b6572733a206e6f207265717565737420776974682074686973206164604482015264647265737360d81b6064820152608401610a33565b6001600160a01b038316600090815260d66020526040902060040180546301000000600161ffff19909216821763ff00000019161790915560d7546112929190614569565b60d75560d8546112a3906001614512565b60d8556001600160a01b038316600090815260d66020526040908190209051849160db916112d191906140d3565b908152604080516020928190038301812080546001600160a01b0319166001600160a01b03958616179055928616600081815260d690935291206001810154600282015492937f3840128cd2c146a0ea7739b8440e824c6d2d498ae32274812561d689d751e75e93611346939291429061420a565b60405180910390a260019150506001606555919050565b806001600160a01b0381166113845760405162461bcd60e51b8152600401610a33906143c8565b61138c613165565b5060d580546001600160a01b0319166001600160a01b0392909216919091179055565b6060816001600160a01b0381166113d85760405162461bcd60e51b8152600401610a33906143c8565b6001600160a01b038316600090815260d66020526040902080546113fb90614580565b80601f016020809104026020016040519081016040528092919081815260200182805461142790614580565b80156114745780601f1061144957610100808354040283529160200191611474565b820191906000526020600020905b81548152906001019060200180831161145757829003601f168201915b505050505091505b50919050565b61148a613165565b60d255565b611497613165565b61149f613297565b565b6000600260655414156114c65760405162461bcd60e51b8152600401610a33906144db565b60026065556114d3613208565b60cd546001600160a01b0316331461152d5760405162461bcd60e51b815260206004820152601b60248201527f4c6f636b6572733a2043616c6c65722063616e277420736c61736800000000006044820152606401610a33565b6001600160a01b038616600090815260d6602052604090206004015460ff166115685760405162461bcd60e51b8152600401610a339061444a565b60d5546000906001600160a01b03166316fac92a6115868689614512565b60cc5460d15460405160e085901b6001600160e01b03191681526115c393926008926012926001600160a01b0392831692909116906004016142a1565b60206040518083038186803b1580156115db57600080fd5b505afa1580156115ef573d6000803e3d6000fd5b505050506040513d601f19601f820116820180604052508101906116139190614060565b6001600160a01b038816600090815260d660205260409020600201549091508111156116975760405162461bcd60e51b815260206004820152602d60248201527f4c6f636b6572733a20696e73756666696369656e74206e617469766520746f6b60448201526c195b8818dbdb1b185d195c985b609a1b6064820152608401610a33565b6001600160a01b038716600090815260d660205260409020600201546116be908290614569565b6001600160a01b03808916600090815260d6602052604090206002019190915583163014611793576001600160a01b0383166108fc6116fd8887614512565b611707878561454a565b611711919061452a565b6040518115909202916000818181858888f19350505050158015611739573d6000803e3d6000fd5b506001600160a01b0385166108fc6117518887614512565b61175b898561454a565b611765919061452a565b6040518115909202916000818181858888f1935050505015801561178d573d6000803e3d6000fd5b506117e8565b6001600160a01b0385166108fc6117aa8887614512565b6117b4898561454a565b6117be919061452a565b6040518115909202916000818181858888f193505050501580156117e6573d6000803e3d6000fd5b505b866001600160a01b03167f09b1cd8a7b8b86d3143a517bfb6ca74cf5ae9d37fcd80c35e140205e704f553d8260405161182391815260200190565b60405180910390a26001915050600160655595945050505050565b611846613165565b61149f60006132e9565b806001600160a01b0381166118775760405162461bcd60e51b8152600401610a33906143c8565b61187f613165565b5060cc80546001600160a01b0319166001600160a01b0392909216919091179055565b6000826001600160a01b0381166118cb5760405162461bcd60e51b8152600401610a33906143c8565b82600081116118ec5760405162461bcd60e51b8152600401610a3390614398565b6002606554141561190f5760405162461bcd60e51b8152600401610a33906144db565b600260655561191c613208565b6001600160a01b038516600090815260d6602052604090206004015460ff166119575760405162461bcd60e51b8152600401610a339061444a565b6001600160a01b038516600090815260d660205260408082208151610100810190925280548290829061198990614580565b80601f01602080910402602001604051908101604052809291908181526020018280546119b590614580565b8015611a025780601f106119d757610100808354040283529160200191611a02565b820191906000526020600020905b8154815290600101906020018083116119e557829003601f168201915b505050918352505060018201546020820152600282015460408201526003820154606082015260049091015460ff8082161515608084015261010082048116151560a08401526201000082048116151560c0840152630100000090910416151560e09091015290506000611a7461333b565b9050612710611a8388836133de565b10611ae45760405162461bcd60e51b815260206004820152602b60248201527f4c6f636b6572733a20746865206c6f636b6572277320636f6c6c61746572616c60448201526a206973206865616c74687960a81b6064820152608401610a33565b6000611af08883613560565b90508260400151811115611b05575060408201515b80871115611b605760405162461bcd60e51b815260206004820152602260248201527f4c6f636b6572733a206d6f7265207468616e206d6178696d756d2062757961626044820152616c6560f01b6064820152608401610a33565b600061271060d45484611b73919061454a565b611b7d919061452a565b90506000670de0b6b3a7640000611b94838b61454a565b611b9e919061452a565b60cc549091506001600160a01b03166323b872dd336040516001600160e01b031960e084901b1681526001600160a01b03909116600482015230602482015260448101849052606401602060405180830381600087803b158015611c0157600080fd5b505af1158015611c15573d6000803e3d6000fd5b505050506040513d601f19601f82011682018060405250810190611c399190613e4b565b506001600160a01b038a16600090815260d66020526040902060030154611c61908290614569565b6001600160a01b038b16600090815260d660205260409020600381019190915560020154611c90908a90614569565b6001600160a01b038b16600090815260d66020526040902060020155611cb6338a613762565b50506001606581905598975050505050505050565b806001600160a01b038116611cf25760405162461bcd60e51b8152600401610a33906143c8565b611cfa613165565b611d038261324e565b15611d205760405162461bcd60e51b8152600401610a3390614313565b506001600160a01b0316600090815260dc60205260409020805460ff19166001179055565b611d4d613165565b60cf55565b6000816001600160a01b038116611d7b5760405162461bcd60e51b8152600401610a33906143c8565b50506001600160a01b0316600090815260d660205260409020600401546301000000900460ff1690565b600060026065541415611dca5760405162461bcd60e51b8152600401610a33906144db565b600260655533600090815260d66020526040902060040154610100900460ff1615611e435760405162461bcd60e51b8152602060048201526024808201527f4c6f636b6572733a207573657220697320616c726561647920612063616e64696044820152636461746560e01b6064820152608401610a33565b33600090815260d6602052604090206004015460ff1615611eb05760405162461bcd60e51b815260206004820152602160248201527f4c6f636b6572733a207573657220697320616c72656164792061206c6f636b656044820152603960f91b6064820152608401610a33565b60cf54831015611f025760405162461bcd60e51b815260206004820152601f60248201527f4c6f636b6572733a206c6f77206c6f636b696e672054445420616d6f756e74006044820152606401610a33565b60d0548210158015611f1357508134145b611f5f5760405162461bcd60e51b815260206004820152601f60248201527f4c6f636b6572733a206c6f77206c6f636b696e6720544e5420616d6f756e74006044820152606401610a33565b60006001600160a01b031660db8686604051611f7c9291906140c3565b908152604051908190036020019020546001600160a01b031614611ff55760405162461bcd60e51b815260206004820152602a60248201527f4c6f636b6572733a2072656465656d2073637269707420686173682069732075604482015269736564206265666f726560b01b6064820152608401610a33565b60cb546040516323b872dd60e01b8152336004820152306024820152604481018590526001600160a01b03909116906323b872dd90606401602060405180830381600087803b15801561204757600080fd5b505af115801561205b573d6000803e3d6000fd5b505050506040513d601f19601f8201168201806040525081019061207f9190613e4b565b61208857600080fd5b6040805161010081018252606080825260006020830181905292820183905281018290526080810182905260a0810182905260c0810182905260e081019190915285858080601f016020809104026020016040519081016040528093929190818152602001838380828437600092018290525093855250505060208083018690526040808401869052600160a085015233835260d68252909120825180518493612136928492910190613c09565b506020820151600180830191909155604083015160028301556060830151600383015560808301516004909201805460a085015160c086015160e090960151151563010000000263ff00000019961515620100000262ff0000199215156101000261ff001997151560ff199095169490941796909616929092171693909317939093169190911790915560d7546121cc91614512565b60d75560405133907fe5f7957016a87f9d7bacdd371a516d7f2c5667aa5676c7e07cc8c0bbc6e5067b90612207908990899089908990614142565b60405180910390a260019150506001606555949350505050565b612229613165565b60d055565b60d66020526000908152604090208054819061224990614580565b80601f016020809104026020016040519081016040528092919081815260200182805461227590614580565b80156122c25780601f10612297576101008083540402835291602001916122c2565b820191906000526020600020905b8154815290600101906020018083116122a557829003601f168201915b505050506001830154600284015460038501546004909501549394919390925060ff808216916101008104821691620100008204811691630100000090041688565b600060d6600060db858560405161231c9291906140c3565b9081526040805160209281900383019020546001600160a01b0316835290820192909252016000206004015460ff169392505050565b600054610100900460ff16158080156123725750600054600160ff909116105b80612393575061238130613880565b158015612393575060005460ff166001145b6123f65760405162461bcd60e51b815260206004820152602e60248201527f496e697469616c697a61626c653a20636f6e747261637420697320616c72656160448201526d191e481a5b9a5d1a585b1a5e995960921b6064820152608401610a33565b6000805460ff191660011790558015612419576000805461ff0019166101001790555b612421613893565b6124296138c2565b6124316138f1565b60cb80546001600160a01b03808d166001600160a01b03199283161790925560ce80548c841690831617905560d58054928b169290911691909117905560cf87905560d086905560d285905560d384905560ca83905560d482905580156124d2576000805461ff0019169055604051600181527f7f26b83ff96e1f2b6a682f133852f6798a09c465da95921460cefb38474024989060200160405180910390a15b50505050505050505050565b600060db83836040516124f29291906140c3565b908152604051908190036020019020546001600160a01b0316905092915050565b6000600260655414156125385760405162461bcd60e51b8152600401610a33906144db565b600260655533600090815260d6602052604090206004015460ff166125a95760405162461bcd60e51b815260206004820152602160248201527f4c6f636b6572733a204d73672073656e646572206973206e6f74206c6f636b656044820152603960f91b6064820152608401610a33565b33600081815260d66020818152604080842060048101805463ff0000001916905560d9835293819020805460ff1916600190811790915592909152908201546002830154600384015492517f2cf13a17a26f23ac9b786e628031eac7ebf6bb0b34e3f477f340079eb68d9a3e94612623949093929161420a565b60405180910390a25060018060655590565b806001600160a01b03811661265c5760405162461bcd60e51b8152600401610a33906143c8565b612664613165565b5060ce80546001600160a01b0319166001600160a01b0392909216919091179055565b6000816001600160a01b0381166126b05760405162461bcd60e51b8152600401610a33906143c8565b600260655414156126d35760405162461bcd60e51b8152600401610a33906144db565b60026065556126e0613165565b6001600160a01b038316600090815260d6602052604090206004015460ff1661271b5760405162461bcd60e51b8152600401610a3390614354565b6001600160a01b038316600090815260d9602052604090205460ff166127535760405162461bcd60e51b8152600401610a339061448f565b6001600160a01b038316600090815260d66020526040902060030154156127bc5760405162461bcd60e51b815260206004820152601f60248201527f4c6f636b6572733a206e6574206d696e746564206973206e6f74207a65726f006044820152606401610a33565b6001600160a01b038316600090815260d66020526040808220815161010081019092528054829082906127ee90614580565b80601f016020809104026020016040519081016040528092919081815260200182805461281a90614580565b80156128675780601f1061283c57610100808354040283529160200191612867565b820191906000526020600020905b81548152906001019060200180831161284a57829003601f168201915b5050509183525050600182015460208083019190915260028301546040808401919091526003840154606084015260049384015460ff8082161515608086015261010082048116151560a08601526201000082048116151560c0860152630100000090910416151560e09093019290925260cb5490840151915163a9059cbb60e01b81529394506001600160a01b03169263a9059cbb926129209289929091016001600160a01b03929092168252602082015260400190565b602060405180830381600087803b15801561293a57600080fd5b505af115801561294e573d6000803e3d6000fd5b505050506040513d601f19601f820116820180604052508101906129729190613e4b565b50612981848260400151613762565b61298a84613920565b600160d8546129999190614569565b60d881905550836001600160a01b03167f628f3d67160bc1a892a1779c6475e128010a54df63af5dcdbf3c7b06ca5dfa978260000151836020015184604001516040516129e893929190614194565b60405180910390a26001925050506001606555919050565b6000816001600160a01b038116612a295760405162461bcd60e51b8152600401610a33906143c8565b6001600160a01b038316600090815260d6602052604090206003015460d254612a51856139d5565b612a5d9061271061454a565b612a67919061452a565b612a719190614569565b9392505050565b600060026065541415612a9d5760405162461bcd60e51b8152600401610a33906144db565b600260655533600090815260d66020526040902060040154610100900460ff16612b245760405162461bcd60e51b815260206004820152603260248201527f4c6f636b6572733a207265717565737420646f65736e2774206578697374206f6044820152711c88185b1c9958591e481858d8d95c1d195960721b6064820152608401610a33565b33600090815260d6602052604080822081516101008101909252805482908290612b4d90614580565b80601f0160208091040260200160405190810160405280929190818152602001828054612b7990614580565b8015612bc65780601f10612b9b57610100808354040283529160200191612bc6565b820191906000526020600020905b815481529060010190602001808311612ba957829003601f168201915b505050918352505060018201546020820152600282015460408201526003820154606082015260049091015460ff8082161515608084015261010082048116151560a08401526201000082048116151560c0840152630100000090910416151560e0909101529050612c3733613a82565b600160d754612c469190614569565b60d75560cb546001600160a01b031663a9059cbb3360208401516040516001600160e01b031960e085901b1681526001600160a01b0390921660048301526024820152604401602060405180830381600087803b158015612ca657600080fd5b505af1158015612cba573d6000803e3d6000fd5b505050506040513d601f19601f82011682018060405250810190612cde9190613e4b565b50612cee335b8260400151613762565b6001915050600160655590565b612d03613165565b61149f613af2565b806001600160a01b038116612d325760405162461bcd60e51b8152600401610a33906143c8565b612d3a613165565b5060cd80546001600160a01b0319166001600160a01b0392909216919091179055565b612d65613165565b6001600160a01b038116612dca5760405162461bcd60e51b815260206004820152602660248201527f4f776e61626c653a206e6577206f776e657220697320746865207a65726f206160448201526564647265737360d01b6064820152608401610a33565b612dd3816132e9565b50565b806001600160a01b038116612dfd5760405162461bcd60e51b8152600401610a33906143c8565b612e05613165565b612e0e826131bf565b15612e2b5760405162461bcd60e51b8152600401610a3390614313565b506001600160a01b0316600090815260dd60205260409020805460ff19166001179055565b600060026065541415612e755760405162461bcd60e51b8152600401610a33906144db565b6002606555612e82613208565b33600090815260d6602052604090206004015460ff16612eb45760405162461bcd60e51b8152600401610a3390614354565b33600090815260d9602052604090205460ff16612ee35760405162461bcd60e51b8152600401610a339061448f565b33600090815260d6602052604090206003015415612f435760405162461bcd60e51b815260206004820152601f60248201527f4c6f636b6572733a206e6574206d696e746564206973206e6f74207a65726f006044820152606401610a33565b33600090815260d6602052604080822081516101008101909252805482908290612f6c90614580565b80601f0160208091040260200160405190810160405280929190818152602001828054612f9890614580565b8015612fe55780601f10612fba57610100808354040283529160200191612fe5565b820191906000526020600020905b815481529060010190602001808311612fc857829003601f168201915b505050918352505060018201546020820152600282015460408201526003820154606082015260049091015460ff8082161515608084015261010082048116151560a08401526201000082048116151560c0840152630100000090910416151560e090910152905061305633613920565b600160d8546130659190614569565b60d85560cb546001600160a01b031663a9059cbb3360208401516040516001600160e01b031960e085901b1681526001600160a01b0390921660048301526024820152604401602060405180830381600087803b1580156130c557600080fd5b505af11580156130d9573d6000803e3d6000fd5b505050506040513d601f19601f820116820180604052508101906130fd9190613e4b565b5061310733612ce4565b336001600160a01b03167f628f3d67160bc1a892a1779c6475e128010a54df63af5dcdbf3c7b06ca5dfa9782600001518360200151846040015160405161315093929190614194565b60405180910390a26001915050600160655590565b6033546001600160a01b0316331461149f5760405162461bcd60e51b815260206004820181905260248201527f4f776e61626c653a2063616c6c6572206973206e6f7420746865206f776e65726044820152606401610a33565b6000816001600160a01b0381166131e85760405162461bcd60e51b8152600401610a33906143c8565b50506001600160a01b0316600090815260dd602052604090205460ff1690565b60975460ff161561149f5760405162461bcd60e51b815260206004820152601060248201526f14185d5cd8589b194e881c185d5cd95960821b6044820152606401610a33565b6000816001600160a01b0381166132775760405162461bcd60e51b8152600401610a33906143c8565b50506001600160a01b0316600090815260dc602052604090205460ff1690565b61329f613b2f565b6097805460ff191690557f5db9ee0a495bf2e6ff9c91a7834c1ba4fdd244a5e8aa4e537bd38aeae4b073aa335b6040516001600160a01b03909116815260200160405180910390a1565b603380546001600160a01b038381166001600160a01b0319831681179093556040519116919082907f8be0079c531659141344cd1fd0a4f28419497f9722a3daafe3b4186f6b6457e090600090a35050565b60d55460d15460cc54604051630b7d649560e11b81526000936001600160a01b03908116936316fac92a9361338993670de0b6b3a764000093601293600893908216929116906004016142a1565b60206040518083038186803b1580156133a157600080fd5b505afa1580156133b5573d6000803e3d6000fd5b505050506040513d601f19601f820116820180604052508101906133d99190614060565b905090565b6000826001600160a01b0381166134075760405162461bcd60e51b8152600401610a33906143c8565b6001600160a01b038416600090815260d660205260408082208151610100810190925280548290829061343990614580565b80601f016020809104026020016040519081016040528092919081815260200182805461346590614580565b80156134b25780601f10613487576101008083540402835291602001916134b2565b820191906000526020600020905b81548152906001019060200180831161349557829003601f168201915b50505091835250506001820154602082015260028201546040820152600382015460608083019190915260049092015460ff8082161515608084015261010082048116151560a08401526201000082048116151560c0840152630100000090910416151560e09091015260d3549082015191925061352f9161454a565b61353e906402540be40061454a565b604082015161354d908661454a565b613557919061452a565b95945050505050565b6000826001600160a01b0381166135895760405162461bcd60e51b8152600401610a33906143c8565b6001600160a01b038416600090815260d66020526040808220815161010081019092528054829082906135bb90614580565b80601f01602080910402602001604051908101604052809291908181526020018280546135e790614580565b80156136345780601f1061360957610100808354040283529160200191613634565b820191906000526020600020905b81548152906001019060200180831161361757829003601f168201915b50505091835250506001820154602082015260028201546040808301919091526003830154606083015260049092015460ff8082161515608084015261010082048116151560a08401526201000082048116151560c0840152630100000090910416151560e0909101528101519091506000906136b290869061454a565b6136c0906305f5e10061454a565b60d35460608401516136d490612ee061454a565b6136de919061454a565b6136f090670de0b6b3a764000061454a565b6136fa9190614569565b9050600061370c866305f5e10061454a565b61271060d4548860d354612ee0613723919061454a565b61372d919061454a565b613737919061454a565b613741919061452a565b61374b9190614569565b9050613757818361452a565b979650505050505050565b804710156137b25760405162461bcd60e51b815260206004820152601d60248201527f416464726573733a20696e73756666696369656e742062616c616e63650000006044820152606401610a33565b6000826001600160a01b03168260405160006040518083038185875af1925050503d80600081146137ff576040519150601f19603f3d011682016040523d82523d6000602084013e613804565b606091505b505090508061387b5760405162461bcd60e51b815260206004820152603a60248201527f416464726573733a20756e61626c6520746f2073656e642076616c75652c207260448201527f6563697069656e74206d617920686176652072657665727465640000000000006064820152608401610a33565b505050565b6001600160a01b0381163b15155b919050565b600054610100900460ff166138ba5760405162461bcd60e51b8152600401610a33906143ff565b61149f613b78565b600054610100900460ff166138e95760405162461bcd60e51b8152600401610a33906143ff565b61149f613ba8565b600054610100900460ff166139185760405162461bcd60e51b8152600401610a33906143ff565b61149f613bd6565b6001600160a01b038116600090815260d6602052604090206004015460ff1661398b5760405162461bcd60e51b815260206004820152601d60248201527f4c6f636b6572733a206c6f636b657220646f65736e27742065786973740000006044820152606401610a33565b6001600160a01b038116600090815260d660205260408120906139ae8282613c8d565b50600060018201819055600282018190556003820155600401805463ffffffff1916905550565b60d5546001600160a01b03828116600090815260d660205260408082206002015460d15460cc549251630b7d649560e11b815293958516946316fac92a94613a2c94601293600893908116929116906004016142a1565b60206040518083038186803b158015613a4457600080fd5b505afa158015613a58573d6000803e3d6000fd5b505050506040513d601f19601f82011682018060405250810190613a7c9190614060565b92915050565b6001600160a01b038116600090815260d66020526040902060040154610100900460ff1661398b5760405162461bcd60e51b815260206004820181905260248201527f4c6f636b6572733a2063616e64696461746520646f65736e27742065786973746044820152606401610a33565b613afa613208565b6097805460ff191660011790557f62e78cea01bee320cd4e420270b5ea74000d11b0c9f74754ebdbfc544b05a2586132cc3390565b60975460ff1661149f5760405162461bcd60e51b815260206004820152601460248201527314185d5cd8589b194e881b9bdd081c185d5cd95960621b6044820152606401610a33565b600054610100900460ff16613b9f5760405162461bcd60e51b8152600401610a33906143ff565b61149f336132e9565b600054610100900460ff16613bcf5760405162461bcd60e51b8152600401610a33906143ff565b6001606555565b600054610100900460ff16613bfd5760405162461bcd60e51b8152600401610a33906143ff565b6097805460ff19169055565b828054613c1590614580565b90600052602060002090601f016020900481019282613c375760008555613c7d565b82601f10613c5057805160ff1916838001178555613c7d565b82800160010185558215613c7d579182015b82811115613c7d578251825591602001919060010190613c62565b50613c89929150613cc5565b5090565b508054613c9990614580565b6000825580601f10613cab5750612dd3565b601f016020900490600052602060002090810190612dd391905b5b80821115613c895760008155600101613cc6565b80356001600160a01b038116811461388e57600080fd5b60008083601f840112613d02578081fd5b50813567ffffffffffffffff811115613d19578182fd5b602083019150836020828501011115613d3157600080fd5b9250929050565b600060208284031215613d49578081fd5b612a7182613cda565b60008060008060008060008060006101208a8c031215613d70578485fd5b613d798a613cda565b9850613d8760208b01613cda565b9750613d9560408b01613cda565b989b979a5097986060810135985060808101359760a0820135975060c0820135965060e08201359550610100909101359350915050565b60008060408385031215613dde578182fd5b613de783613cda565b946020939093013593505050565b600080600080600060a08688031215613e0c578081fd5b613e1586613cda565b945060208601359350613e2a60408701613cda565b925060608601359150613e3f60808701613cda565b90509295509295909350565b600060208284031215613e5c578081fd5b81518015158114612a71578182fd5b60008060208385031215613e7d578182fd5b823567ffffffffffffffff811115613e93578283fd5b613e9f85828601613cf1565b90969095509350505050565b60008060008060608587031215613ec0578384fd5b843567ffffffffffffffff811115613ed6578485fd5b613ee287828801613cf1565b9095509350613ef5905060208601613cda565b9396929550929360400135925050565b600080600060408486031215613f19578283fd5b833567ffffffffffffffff811115613f2f578384fd5b613f3b86828701613cf1565b909790965060209590950135949350505050565b60008060008060608587031215613f64578384fd5b843567ffffffffffffffff811115613f7a578485fd5b613f8687828801613cf1565b90989097506020870135966040013595509350505050565b600060208284031215613faf578081fd5b813567ffffffffffffffff80821115613fc6578283fd5b818401915084601f830112613fd9578283fd5b813581811115613feb57613feb6145cb565b604051601f8201601f19908116603f01168101908382118183101715614013576140136145cb565b8160405282815287602084870101111561402b578586fd5b826020860160208301379182016020019490945295945050505050565b600060208284031215614059578081fd5b5035919050565b600060208284031215614071578081fd5b5051919050565b60008151808452815b8181101561409d57602081850181015186830182015201614081565b818111156140ae5782602083870101525b50601f01601f19169290920160200192915050565b6000828483379101908152919050565b60008083546140e181614580565b600182811680156140f9576001811461410a57614136565b60ff19841687528287019450614136565b8786526020808720875b8581101561412d5781548a820152908401908201614114565b50505082870194505b50929695505050505050565b6000606082528460608301528486608084013780608086840101526080601f19601f870116830101905083602083015282604083015295945050505050565b600060208252612a716020830184614078565b6000606082526141a76060830186614078565b60208301949094525060400152919050565b60006101008083526141cd8184018c614078565b602084019a909a525050604081019690965260608601949094529115156080850152151560a0840152151560c0830152151560e090910152919050565b60006080825280865461421c81614580565b80608086015260a060018084166000811461423e576001811461425257614280565b60ff1985168884015260c088019550614280565b8b87526020808820885b868110156142775781548b820187015290840190820161425c565b8a018501975050505b50505050506020830195909552506040810192909252606090910152919050565b948552602085019390935260408401919091526001600160a01b03908116606084015216608082015260a00190565b60208082526023908201527f4c6f636b6572733a206163636f756e7420646f6573206e6f74206861766520726040820152626f6c6560e81b606082015260800190565b60208082526021908201527f4c6f636b6572733a206163636f756e7420616c72656164792068617320726f6c6040820152606560f81b606082015260800190565b60208082526024908201527f4c6f636b6572733a206e6f206c6f636b657220776974682074686973206164646040820152637265737360e01b606082015260800190565b6020808252601690820152754c6f636b6572733a2076616c7565206973207a65726f60501b604082015260600190565b60208082526018908201527f4c6f636b6572733a2061646472657373206973207a65726f0000000000000000604082015260600190565b6020808252602b908201527f496e697469616c697a61626c653a20636f6e7472616374206973206e6f74206960408201526a6e697469616c697a696e6760a81b606082015260800190565b60208082526025908201527f4c6f636b6572733a207461726765742061646472657373206973206e6f74206c60408201526437b1b5b2b960d91b606082015260800190565b6020808252602c908201527f4c6f636b6572733a206c6f636b6572206469646e27742072657175657374207460408201526b1bc81899481c995b5bdd995960a21b606082015260800190565b6020808252601f908201527f5265656e7472616e637947756172643a207265656e7472616e742063616c6c00604082015260600190565b60008219821115614525576145256145b5565b500190565b60008261454557634e487b7160e01b81526012600452602481fd5b500490565b6000816000190483118215151615614564576145646145b5565b500290565b60008282101561457b5761457b6145b5565b500390565b60028104600182168061459457607f821691505b6020821081141561147c57634e487b7160e01b600052602260045260246000fd5b634e487b7160e01b600052601160045260246000fd5b634e487b7160e01b600052604160045260246000fdfea2646970667358221220627eb24d433fdd26646c5c5674df3d647b329ae50fa4a0a3218bcf5056ed795264736f6c63430008020033",
  "devdoc": {
    "kind": "dev",
    "methods": {
      "addBurner(address)": {
        "details": "Give an account access to burn."
      },
      "addLocker(address)": {
        "details": "Only owner can call this",
        "params": {
          "_lockerTargetAddress": "Locker's target chain address"
        },
        "returns": {
          "_0": "True if candidate is added successfully"
        }
      },
      "addMinter(address)": {
        "details": "Give an account access to mint."
      },
      "burn(bytes,uint256)": {
        "details": "Burn teleBTC and also get the locker's fee",
        "params": {
          "_amount": "Amount of the teleBTC which is minted, including the locker's fee",
          "_lockerLockingScript": "Locking script of a locker"
        },
        "returns": {
          "_0": "uint                  The amount of teleBTC burned the"
        }
      },
      "getLockerCapacity(address)": {
        "details": "Net minted amount is total minted minus total burnt for the locker",
        "params": {
          "_lockerTargetAddress": "Address of locker on the target chain"
        },
        "returns": {
          "_0": "The net minted of the locker"
        }
      },
      "getLockerLockingScript(address)": {
        "details": "@param _lockerTargetAddress         Address of locker on the target chain",
        "returns": {
          "_0": "Bitcoin public key of locker"
        }
      },
      "getNumberOfLockers()": {
        "details": "@return                           Number of lockers"
      },
      "isActive(address)": {
        "details": "An active locker is not in the process of being removed and has enough capacity to mint more tokens (minted - burnt << their collateral)",
        "params": {
          "_lockerTargetAddress": "Address of locker on the target chain"
        },
        "returns": {
          "_0": "True if the locker is active and accepts mint requests"
        }
      },
      "isLocker(bytes)": {
        "details": "@param _lockerTargetAddress       Address of locker on the target chain",
        "returns": {
          "_0": "True if user is locker"
        }
      },
      "liquidateLocker(address,uint256)": {
        "details": "Everyone can liquidate a locker which its health factor is less than 10000 (100%) by providing a sufficient amount of teleBTC",
        "params": {
          "_collateralAmount": "Amount of collateral that someone is intend to buy with discount",
          "_lockerTargetAddress": "Locker's target chain address"
        },
        "returns": {
          "result": "result"
        }
      },
      "mint(bytes,address,uint256)": {
        "details": "Mint teleBTC for an account and got the locker fee as well",
        "params": {
          "_amount": "Amount of the teleBTC which is minted, including the locker's fee",
          "_lockerLockingScript": "Locking script of a locker",
          "_receiver": "Address of the receiver of the minted teleBTCs"
        },
        "returns": {
          "_0": "uint                  The amount of teleBTC minted for the receiver"
        }
      },
      "owner()": {
        "details": "Returns the address of the current owner."
      },
      "pauseLocker()": {
        "details": "@param"
      },
      "paused()": {
        "details": "Returns true if the contract is paused, and false otherwise."
      },
      "removeBurner(address)": {
        "details": "Remove an account's access to burn."
      },
      "removeLocker(address)": {
        "returns": {
          "_0": "True if locker is removed successfully"
        }
      },
      "removeMinter(address)": {
        "details": "Remove an account's access to mint."
      },
      "renounceOwnership()": {
        "details": "Leaves the contract without owner. It will not be possible to call `onlyOwner` functions anymore. Can only be called by the current owner. NOTE: Renouncing ownership will leave the contract without an owner, thereby removing any functionality that is only available to the owner."
      },
      "requestToBecomeLocker(bytes,uint256,uint256)": {
        "details": "@param _candidateLockingScript         Bitcoin address of the candidate",
        "params": {
          "_lockedNativeTokenAmount": "Bond amount of locker in native token of the target chain",
          "_lockedTDTAmount": "Bond amount of locker in TDT"
        },
        "returns": {
          "_0": "True if candidate is added successfully"
        }
      },
      "requestToRemoveLocker()": {
        "details": "Deactivates the status of the locker so that no one is allowed to send mint requests to this locker. It gives time to the locker to burn the required amount of teleBTC to make itself eligible to be removed.",
        "returns": {
          "_0": "True if deactivated successfully"
        }
      },
      "revokeRequest()": {
        "returns": {
          "_0": "True if candidate is removed successfully"
        }
      },
      "selfRemoveLocker()": {
        "returns": {
          "_0": "True if locker is removed successfully"
        }
      },
      "setCCBurnRouter(address)": {
        "details": "Only current owner can call this",
        "params": {
          "_ccBurnRouter": "The new cc burn router contract address"
        }
      },
      "setCollateralRatio(uint256)": {
        "details": "Only owner can call this",
        "params": {
          "_collateralRatio": "The new collateral ratio"
        }
      },
      "setExchangeConnector(address)": {
        "details": "Only owner can call this",
        "params": {
          "_exchangeConnector": "The new exchange router contract address"
        }
      },
      "setMinRequiredTDTLockedAmount(uint256)": {
        "details": "Only current owner can call this",
        "params": {
          "_minRequiredTDTLockedAmount": "The new required bond amount"
        }
      },
      "setMinRequiredTNTLockedAmount(uint256)": {
        "details": "Only current owner can call this",
        "params": {
          "_minRequiredTNTLockedAmount": "The new required bond amount"
        }
      },
      "setPriceOracle(address)": {
        "details": "Only current owner can call this",
        "params": {
          "_priceOracle": "The new price oracle"
        }
      },
      "setTeleBTC(address)": {
        "details": "Only owner can call this",
        "params": {
          "_teleBTC": "The new wrapped token contract address"
        }
      },
      "slashLocker(address,uint256,address,uint256,address)": {
        "details": "Only cc burn router can call this",
        "params": {
          "_amount": "Amount of teleBTC that is slashed from lockers",
          "_lockerTargetAddress": "Locker's target chain address",
          "_recipient": "Address of user who receives the slashed amount"
        },
        "returns": {
          "_0": "True if lockers are slashed successfully"
        }
      },
      "transferOwnership(address)": {
        "details": "Transfers ownership of the contract to a new account (`newOwner`). Can only be called by the current owner."
      },
      "unPauseLocker()": {
        "details": "@param"
      }
    },
    "version": 1
  },
  "userdoc": {
    "kind": "user",
    "methods": {
      "addLocker(address)": {
        "notice": "Approves a candidate request to become locker"
      },
      "burn(bytes,uint256)": {
        "notice": "Burn teleBTC of an account"
      },
      "getLockerCapacity(address)": {
        "notice": "Get how much net this locker has minted"
      },
      "getLockerLockingScript(address)": {
        "notice": "Give Bitcoin public key of locker"
      },
      "getNumberOfLockers()": {
        "notice": "Give number of lockers"
      },
      "isActive(address)": {
        "notice": "Tells if a locker is active or not"
      },
      "isLocker(bytes)": {
        "notice": "Checks whether an address is locker"
      },
      "liquidateLocker(address,uint256)": {
        "notice": "Liquidate the locker with an unhealthy collateral"
      },
      "mint(bytes,address,uint256)": {
        "notice": "Mint teleBTC for an account"
      },
      "pauseLocker()": {
        "notice": "Pause the locker, so only the functions can be called which are whenPaused"
      },
      "removeLocker(address)": {
        "notice": "Removes a locker from lockers pool"
      },
      "requestToBecomeLocker(bytes,uint256,uint256)": {
        "notice": "Adds user to candidates list"
      },
      "requestToRemoveLocker()": {
        "notice": "Requests to remove a locker from lockers list"
      },
      "revokeRequest()": {
        "notice": "Removes a candidate from candidates list"
      },
      "selfRemoveLocker()": {
        "notice": "Removes a locker from lockers pool"
      },
      "setCCBurnRouter(address)": {
        "notice": "Changes cc burn router contract"
      },
      "setCollateralRatio(uint256)": {
        "notice": "Changes collateral ratio"
      },
      "setExchangeConnector(address)": {
        "notice": "Changes exchange router contract address and updates wrapped avax addresses"
      },
      "setMinRequiredTDTLockedAmount(uint256)": {
        "notice": "Changes the required bond amount to become locker"
      },
      "setMinRequiredTNTLockedAmount(uint256)": {
        "notice": "Changes the required bond amount to become locker"
      },
      "setPriceOracle(address)": {
        "notice": "Changes the price oracle"
      },
      "setTeleBTC(address)": {
        "notice": "Changes wrapped token contract address"
      },
      "slashLocker(address,uint256,address,uint256,address)": {
        "notice": "Slashes lockers"
      },
      "unPauseLocker()": {
        "notice": "Un-pause the locker, so only the functions can be called which are whenNotPaused"
      }
    },
    "version": 1
  },
  "storageLayout": {
    "storage": [
      {
        "astId": 184,
        "contract": "contracts/lockers/LockersLogic.sol:LockersLogic",
        "label": "_initialized",
        "offset": 0,
        "slot": "0",
        "type": "t_uint8"
      },
      {
        "astId": 187,
        "contract": "contracts/lockers/LockersLogic.sol:LockersLogic",
        "label": "_initializing",
        "offset": 1,
        "slot": "0",
        "type": "t_bool"
      },
      {
        "astId": 798,
        "contract": "contracts/lockers/LockersLogic.sol:LockersLogic",
        "label": "__gap",
        "offset": 0,
        "slot": "1",
        "type": "t_array(t_uint256)50_storage"
      },
      {
        "astId": 56,
        "contract": "contracts/lockers/LockersLogic.sol:LockersLogic",
        "label": "_owner",
        "offset": 0,
        "slot": "51",
        "type": "t_address"
      },
      {
        "astId": 176,
        "contract": "contracts/lockers/LockersLogic.sol:LockersLogic",
        "label": "__gap",
        "offset": 0,
        "slot": "52",
        "type": "t_array(t_uint256)49_storage"
      },
      {
        "astId": 469,
        "contract": "contracts/lockers/LockersLogic.sol:LockersLogic",
        "label": "_status",
        "offset": 0,
        "slot": "101",
        "type": "t_uint256"
      },
      {
        "astId": 513,
        "contract": "contracts/lockers/LockersLogic.sol:LockersLogic",
        "label": "__gap",
        "offset": 0,
        "slot": "102",
        "type": "t_array(t_uint256)49_storage"
      },
      {
        "astId": 349,
        "contract": "contracts/lockers/LockersLogic.sol:LockersLogic",
        "label": "_paused",
        "offset": 0,
        "slot": "151",
        "type": "t_bool"
      },
      {
        "astId": 454,
        "contract": "contracts/lockers/LockersLogic.sol:LockersLogic",
        "label": "__gap",
        "offset": 0,
        "slot": "152",
        "type": "t_array(t_uint256)49_storage"
      },
      {
        "astId": 10050,
        "contract": "contracts/lockers/LockersLogic.sol:LockersLogic",
        "label": "lockersLogic",
        "offset": 0,
        "slot": "201",
        "type": "t_address"
      },
      {
        "astId": 10052,
        "contract": "contracts/lockers/LockersLogic.sol:LockersLogic",
        "label": "lockerPercentageFee",
        "offset": 0,
        "slot": "202",
        "type": "t_uint256"
      },
      {
        "astId": 10054,
        "contract": "contracts/lockers/LockersLogic.sol:LockersLogic",
        "label": "TeleportDAOToken",
        "offset": 0,
        "slot": "203",
        "type": "t_address"
      },
      {
        "astId": 10056,
        "contract": "contracts/lockers/LockersLogic.sol:LockersLogic",
        "label": "teleBTC",
        "offset": 0,
        "slot": "204",
        "type": "t_address"
      },
      {
        "astId": 10058,
        "contract": "contracts/lockers/LockersLogic.sol:LockersLogic",
        "label": "ccBurnRouter",
        "offset": 0,
        "slot": "205",
        "type": "t_address"
      },
      {
        "astId": 10060,
        "contract": "contracts/lockers/LockersLogic.sol:LockersLogic",
        "label": "exchangeConnector",
        "offset": 0,
        "slot": "206",
        "type": "t_address"
      },
      {
        "astId": 10062,
        "contract": "contracts/lockers/LockersLogic.sol:LockersLogic",
        "label": "minRequiredTDTLockedAmount",
        "offset": 0,
        "slot": "207",
        "type": "t_uint256"
      },
      {
        "astId": 10064,
        "contract": "contracts/lockers/LockersLogic.sol:LockersLogic",
        "label": "minRequiredTNTLockedAmount",
        "offset": 0,
        "slot": "208",
        "type": "t_uint256"
      },
      {
        "astId": 10070,
        "contract": "contracts/lockers/LockersLogic.sol:LockersLogic",
        "label": "NATIVE_TOKEN",
        "offset": 0,
        "slot": "209",
        "type": "t_address"
      },
      {
        "astId": 10072,
        "contract": "contracts/lockers/LockersLogic.sol:LockersLogic",
        "label": "collateralRatio",
        "offset": 0,
        "slot": "210",
        "type": "t_uint256"
      },
      {
        "astId": 10074,
        "contract": "contracts/lockers/LockersLogic.sol:LockersLogic",
        "label": "liquidationRatio",
        "offset": 0,
        "slot": "211",
        "type": "t_uint256"
      },
      {
        "astId": 10076,
        "contract": "contracts/lockers/LockersLogic.sol:LockersLogic",
        "label": "priceWithDiscountRatio",
        "offset": 0,
        "slot": "212",
        "type": "t_uint256"
      },
      {
        "astId": 10084,
        "contract": "contracts/lockers/LockersLogic.sol:LockersLogic",
        "label": "priceOracle",
        "offset": 0,
        "slot": "213",
        "type": "t_address"
      },
      {
        "astId": 10089,
        "contract": "contracts/lockers/LockersLogic.sol:LockersLogic",
        "label": "lockersMapping",
        "offset": 0,
        "slot": "214",
        "type": "t_mapping(t_address,t_struct(locker)10048_storage)"
      },
      {
        "astId": 10091,
        "contract": "contracts/lockers/LockersLogic.sol:LockersLogic",
        "label": "totalNumberOfCandidates",
        "offset": 0,
        "slot": "215",
        "type": "t_uint256"
      },
      {
        "astId": 10093,
        "contract": "contracts/lockers/LockersLogic.sol:LockersLogic",
        "label": "totalNumberOfLockers",
        "offset": 0,
        "slot": "216",
        "type": "t_uint256"
      },
      {
        "astId": 10097,
        "contract": "contracts/lockers/LockersLogic.sol:LockersLogic",
        "label": "lockerLeavingRequests",
        "offset": 0,
        "slot": "217",
        "type": "t_mapping(t_address,t_bool)"
      },
      {
        "astId": 10101,
        "contract": "contracts/lockers/LockersLogic.sol:LockersLogic",
        "label": "lockerLeavingAcceptance",
        "offset": 0,
        "slot": "218",
        "type": "t_mapping(t_address,t_bool)"
      },
      {
        "astId": 10105,
        "contract": "contracts/lockers/LockersLogic.sol:LockersLogic",
        "label": "lockerTargetAddress",
        "offset": 0,
        "slot": "219",
        "type": "t_mapping(t_bytes_memory_ptr,t_address)"
      },
      {
        "astId": 10109,
        "contract": "contracts/lockers/LockersLogic.sol:LockersLogic",
        "label": "minters",
        "offset": 0,
        "slot": "220",
        "type": "t_mapping(t_address,t_bool)"
      },
      {
        "astId": 10113,
        "contract": "contracts/lockers/LockersLogic.sol:LockersLogic",
        "label": "burners",
        "offset": 0,
        "slot": "221",
        "type": "t_mapping(t_address,t_bool)"
      }
    ],
    "types": {
      "t_address": {
        "encoding": "inplace",
        "label": "address",
        "numberOfBytes": "20"
      },
      "t_array(t_uint256)49_storage": {
        "base": "t_uint256",
        "encoding": "inplace",
        "label": "uint256[49]",
        "numberOfBytes": "1568"
      },
      "t_array(t_uint256)50_storage": {
        "base": "t_uint256",
        "encoding": "inplace",
        "label": "uint256[50]",
        "numberOfBytes": "1600"
      },
      "t_bool": {
        "encoding": "inplace",
        "label": "bool",
        "numberOfBytes": "1"
      },
      "t_bytes_memory_ptr": {
        "encoding": "bytes",
        "label": "bytes",
        "numberOfBytes": "32"
      },
      "t_bytes_storage": {
        "encoding": "bytes",
        "label": "bytes",
        "numberOfBytes": "32"
      },
      "t_mapping(t_address,t_bool)": {
        "encoding": "mapping",
        "key": "t_address",
        "label": "mapping(address => bool)",
        "numberOfBytes": "32",
        "value": "t_bool"
      },
      "t_mapping(t_address,t_struct(locker)10048_storage)": {
        "encoding": "mapping",
        "key": "t_address",
        "label": "mapping(address => struct LockersStorageStructure.locker)",
        "numberOfBytes": "32",
        "value": "t_struct(locker)10048_storage"
      },
      "t_mapping(t_bytes_memory_ptr,t_address)": {
        "encoding": "mapping",
        "key": "t_bytes_memory_ptr",
        "label": "mapping(bytes => address)",
        "numberOfBytes": "32",
        "value": "t_address"
      },
      "t_struct(locker)10048_storage": {
        "encoding": "inplace",
        "label": "struct LockersStorageStructure.locker",
        "members": [
          {
            "astId": 10033,
            "contract": "contracts/lockers/LockersLogic.sol:LockersLogic",
            "label": "lockerLockingScript",
            "offset": 0,
            "slot": "0",
            "type": "t_bytes_storage"
          },
          {
            "astId": 10035,
            "contract": "contracts/lockers/LockersLogic.sol:LockersLogic",
            "label": "TDTLockedAmount",
            "offset": 0,
            "slot": "1",
            "type": "t_uint256"
          },
          {
            "astId": 10037,
            "contract": "contracts/lockers/LockersLogic.sol:LockersLogic",
            "label": "nativeTokenLockedAmount",
            "offset": 0,
            "slot": "2",
            "type": "t_uint256"
          },
          {
            "astId": 10039,
            "contract": "contracts/lockers/LockersLogic.sol:LockersLogic",
            "label": "netMinted",
            "offset": 0,
            "slot": "3",
            "type": "t_uint256"
          },
          {
            "astId": 10041,
            "contract": "contracts/lockers/LockersLogic.sol:LockersLogic",
            "label": "isLocker",
            "offset": 0,
            "slot": "4",
            "type": "t_bool"
          },
          {
            "astId": 10043,
            "contract": "contracts/lockers/LockersLogic.sol:LockersLogic",
            "label": "isCandidate",
            "offset": 1,
            "slot": "4",
            "type": "t_bool"
          },
          {
            "astId": 10045,
            "contract": "contracts/lockers/LockersLogic.sol:LockersLogic",
            "label": "isScriptHash",
            "offset": 2,
            "slot": "4",
            "type": "t_bool"
          },
          {
            "astId": 10047,
            "contract": "contracts/lockers/LockersLogic.sol:LockersLogic",
            "label": "isActive",
            "offset": 3,
            "slot": "4",
            "type": "t_bool"
          }
        ],
        "numberOfBytes": "160"
      },
      "t_uint256": {
        "encoding": "inplace",
        "label": "uint256",
        "numberOfBytes": "32"
      },
      "t_uint8": {
        "encoding": "inplace",
        "label": "uint8",
        "numberOfBytes": "1"
      }
    }
  }
}