{
  "address": "0xAB649ed4904e46787534942A8846656368AaaED4",
  "abi": [
    {
      "anonymous": false,
      "inputs": [
        {
          "indexed": false,
          "internalType": "uint8",
          "name": "version",
          "type": "uint8"
        }
      ],
      "name": "Initialized",
      "type": "event"
    },
    {
      "anonymous": false,
      "inputs": [
        {
          "indexed": true,
          "internalType": "address",
          "name": "lockerTargetAddress",
          "type": "address"
        },
        {
          "indexed": false,
          "internalType": "bytes",
          "name": "lockerRedeemScript",
          "type": "bytes"
        },
        {
          "indexed": false,
          "internalType": "uint256",
          "name": "TDTLockedAmount",
          "type": "uint256"
        },
        {
          "indexed": false,
          "internalType": "uint256",
          "name": "nativeTokenLockedAmount",
          "type": "uint256"
        },
        {
          "indexed": false,
          "internalType": "bool",
          "name": "isScriptHash",
          "type": "bool"
        }
      ],
      "name": "LockerAdded",
      "type": "event"
    },
    {
      "anonymous": false,
      "inputs": [
        {
          "indexed": true,
          "internalType": "address",
          "name": "lockerTargetAddress",
          "type": "address"
        },
        {
          "indexed": false,
          "internalType": "bytes",
          "name": "lockerRedeemScript",
          "type": "bytes"
        },
        {
          "indexed": false,
          "internalType": "uint256",
          "name": "TDTUnlockedAmount",
          "type": "uint256"
        },
        {
          "indexed": false,
          "internalType": "uint256",
          "name": "nativeTokenUnlockedAmount",
          "type": "uint256"
        }
      ],
      "name": "LockerRemoved",
      "type": "event"
    },
    {
      "anonymous": false,
      "inputs": [
        {
          "indexed": true,
          "internalType": "address",
          "name": "lockerTargetAddress",
          "type": "address"
        },
        {
          "indexed": false,
          "internalType": "uint256",
          "name": "slashedCollateralAmount",
          "type": "uint256"
        }
      ],
      "name": "LockerSlashed",
      "type": "event"
    },
    {
      "anonymous": false,
      "inputs": [
        {
          "indexed": true,
          "internalType": "address",
          "name": "previousOwner",
          "type": "address"
        },
        {
          "indexed": true,
          "internalType": "address",
          "name": "newOwner",
          "type": "address"
        }
      ],
      "name": "OwnershipTransferred",
      "type": "event"
    },
    {
      "anonymous": false,
      "inputs": [
        {
          "indexed": false,
          "internalType": "address",
          "name": "account",
          "type": "address"
        }
      ],
      "name": "Paused",
      "type": "event"
    },
    {
      "anonymous": false,
      "inputs": [
        {
          "indexed": true,
          "internalType": "address",
          "name": "lockerTargetAddress",
          "type": "address"
        },
        {
          "indexed": false,
          "internalType": "bytes",
          "name": "lockerRedeemScript",
          "type": "bytes"
        },
        {
          "indexed": false,
          "internalType": "uint256",
          "name": "TDTLockedAmount",
          "type": "uint256"
        },
        {
          "indexed": false,
          "internalType": "uint256",
          "name": "nativeTokenLockedAmount",
          "type": "uint256"
        },
        {
          "indexed": true,
          "internalType": "bool",
          "name": "isScriptHash",
          "type": "bool"
        }
      ],
      "name": "RequestAddLocker",
      "type": "event"
    },
    {
      "anonymous": false,
      "inputs": [
        {
          "indexed": true,
          "internalType": "address",
          "name": "lockerTargetAddress",
          "type": "address"
        },
        {
          "indexed": false,
          "internalType": "bytes",
          "name": "lockerRedeemScript",
          "type": "bytes"
        },
        {
          "indexed": false,
          "internalType": "uint256",
          "name": "TDTUnlockedAmount",
          "type": "uint256"
        },
        {
          "indexed": false,
          "internalType": "uint256",
          "name": "nativeTokenUnlockedAmount",
          "type": "uint256"
        },
        {
          "indexed": false,
          "internalType": "uint256",
          "name": "netMinted",
          "type": "uint256"
        }
      ],
      "name": "RequestRemoveLocker",
      "type": "event"
    },
    {
      "anonymous": false,
      "inputs": [
        {
          "indexed": false,
          "internalType": "address",
          "name": "account",
          "type": "address"
        }
      ],
      "name": "Unpaused",
      "type": "event"
    },
    {
      "inputs": [],
      "name": "NATIVE_TOKEN",
      "outputs": [
        {
          "internalType": "address",
          "name": "",
          "type": "address"
        }
      ],
      "stateMutability": "view",
      "type": "function"
    },
    {
      "inputs": [],
      "name": "TeleportDAOToken",
      "outputs": [
        {
          "internalType": "address",
          "name": "",
          "type": "address"
        }
      ],
      "stateMutability": "view",
      "type": "function"
    },
    {
      "inputs": [
        {
          "internalType": "address",
          "name": "_account",
          "type": "address"
        }
      ],
      "name": "addBurner",
      "outputs": [],
      "stateMutability": "nonpayable",
      "type": "function"
    },
    {
      "inputs": [
        {
          "internalType": "address",
          "name": "_lockerTargetAddress",
          "type": "address"
        }
      ],
      "name": "addLocker",
      "outputs": [
        {
          "internalType": "bool",
          "name": "",
          "type": "bool"
        }
      ],
      "stateMutability": "nonpayable",
      "type": "function"
    },
    {
      "inputs": [
        {
          "internalType": "address",
          "name": "_account",
          "type": "address"
        }
      ],
      "name": "addMinter",
      "outputs": [],
      "stateMutability": "nonpayable",
      "type": "function"
    },
    {
      "inputs": [
        {
          "internalType": "address",
          "name": "_lockerScriptHash",
          "type": "address"
        },
        {
          "internalType": "uint256",
          "name": "_amount",
          "type": "uint256"
        }
      ],
      "name": "burn",
      "outputs": [
        {
          "internalType": "uint256",
          "name": "",
          "type": "uint256"
        }
      ],
      "stateMutability": "nonpayable",
      "type": "function"
    },
    {
      "inputs": [],
      "name": "ccBurnRouter",
      "outputs": [
        {
          "internalType": "address",
          "name": "",
          "type": "address"
        }
      ],
      "stateMutability": "view",
      "type": "function"
    },
    {
      "inputs": [],
      "name": "collateralRatio",
      "outputs": [
        {
          "internalType": "uint256",
          "name": "",
          "type": "uint256"
        }
      ],
      "stateMutability": "view",
      "type": "function"
    },
    {
      "inputs": [],
      "name": "exchangeConnector",
      "outputs": [
        {
          "internalType": "address",
          "name": "",
          "type": "address"
        }
      ],
      "stateMutability": "view",
      "type": "function"
    },
    {
      "inputs": [
        {
          "internalType": "address",
          "name": "_lockerTargetAddress",
          "type": "address"
        }
      ],
      "name": "getLockerCapacity",
      "outputs": [
        {
          "internalType": "uint256",
          "name": "",
          "type": "uint256"
        }
      ],
      "stateMutability": "view",
      "type": "function"
    },
    {
      "inputs": [
        {
          "internalType": "address",
          "name": "_lockerTargetAddress",
          "type": "address"
        }
      ],
      "name": "getLockerRedeemScript",
      "outputs": [
        {
          "internalType": "bytes",
          "name": "",
          "type": "bytes"
        }
      ],
      "stateMutability": "view",
      "type": "function"
    },
    {
      "inputs": [
        {
          "internalType": "address",
          "name": "_lockerScriptHash",
          "type": "address"
        }
      ],
      "name": "getLockerTargetAddress",
      "outputs": [
        {
          "internalType": "address",
          "name": "",
          "type": "address"
        }
      ],
      "stateMutability": "view",
      "type": "function"
    },
    {
      "inputs": [],
      "name": "getNumberOfLockers",
      "outputs": [
        {
          "internalType": "uint256",
          "name": "",
          "type": "uint256"
        }
      ],
      "stateMutability": "view",
      "type": "function"
    },
    {
      "inputs": [
        {
          "internalType": "address",
          "name": "_lockerTargetAddress",
          "type": "address"
        }
      ],
      "name": "isActive",
      "outputs": [
        {
          "internalType": "bool",
          "name": "",
          "type": "bool"
        }
      ],
      "stateMutability": "view",
      "type": "function"
    },
    {
      "inputs": [
        {
          "internalType": "address",
          "name": "_lockerScriptHash",
          "type": "address"
        }
      ],
      "name": "isLocker",
      "outputs": [
        {
          "internalType": "bool",
          "name": "",
          "type": "bool"
        }
      ],
      "stateMutability": "view",
      "type": "function"
    },
    {
      "inputs": [
        {
          "internalType": "address",
          "name": "_lockerTargetAddress",
          "type": "address"
        },
        {
          "internalType": "uint256",
          "name": "_btcAmount",
          "type": "uint256"
        }
      ],
      "name": "liquidateLocker",
      "outputs": [
        {
          "internalType": "bool",
          "name": "result",
          "type": "bool"
        }
      ],
      "stateMutability": "nonpayable",
      "type": "function"
    },
    {
      "inputs": [],
      "name": "liquidationRatio",
      "outputs": [
        {
          "internalType": "uint256",
          "name": "",
          "type": "uint256"
        }
      ],
      "stateMutability": "view",
      "type": "function"
    },
    {
      "inputs": [
        {
          "internalType": "address",
          "name": "",
          "type": "address"
        }
      ],
      "name": "lockerLeavingAcceptance",
      "outputs": [
        {
          "internalType": "bool",
          "name": "",
          "type": "bool"
        }
      ],
      "stateMutability": "view",
      "type": "function"
    },
    {
      "inputs": [
        {
          "internalType": "address",
          "name": "",
          "type": "address"
        }
      ],
      "name": "lockerLeavingRequests",
      "outputs": [
        {
          "internalType": "bool",
          "name": "",
          "type": "bool"
        }
      ],
      "stateMutability": "view",
      "type": "function"
    },
    {
      "inputs": [],
      "name": "lockerPercentageFee",
      "outputs": [
        {
          "internalType": "uint256",
          "name": "",
          "type": "uint256"
        }
      ],
      "stateMutability": "view",
      "type": "function"
    },
    {
      "inputs": [
        {
          "internalType": "address",
          "name": "",
          "type": "address"
        }
      ],
      "name": "lockerTargetAddress",
      "outputs": [
        {
          "internalType": "address",
          "name": "",
          "type": "address"
        }
      ],
      "stateMutability": "view",
      "type": "function"
    },
    {
      "inputs": [],
      "name": "lockersLogic",
      "outputs": [
        {
          "internalType": "address",
          "name": "",
          "type": "address"
        }
      ],
      "stateMutability": "view",
      "type": "function"
    },
    {
      "inputs": [
        {
          "internalType": "address",
          "name": "",
          "type": "address"
        }
      ],
      "name": "lockersMapping",
      "outputs": [
        {
          "internalType": "bytes",
          "name": "lockerRedeemScript",
          "type": "bytes"
        },
        {
          "internalType": "address",
          "name": "lockerScriptHash",
          "type": "address"
        },
        {
          "internalType": "uint256",
          "name": "TDTLockedAmount",
          "type": "uint256"
        },
        {
          "internalType": "uint256",
          "name": "nativeTokenLockedAmount",
          "type": "uint256"
        },
        {
          "internalType": "uint256",
          "name": "netMinted",
          "type": "uint256"
        },
        {
          "internalType": "bool",
          "name": "isLocker",
          "type": "bool"
        },
        {
          "internalType": "bool",
          "name": "isCandidate",
          "type": "bool"
        },
        {
          "internalType": "bool",
          "name": "isScriptHash",
          "type": "bool"
        },
        {
          "internalType": "bool",
          "name": "isActive",
          "type": "bool"
        }
      ],
      "stateMutability": "view",
      "type": "function"
    },
    {
      "inputs": [],
      "name": "minRequiredTDTLockedAmount",
      "outputs": [
        {
          "internalType": "uint256",
          "name": "",
          "type": "uint256"
        }
      ],
      "stateMutability": "view",
      "type": "function"
    },
    {
      "inputs": [],
      "name": "minRequiredTNTLockedAmount",
      "outputs": [
        {
          "internalType": "uint256",
          "name": "",
          "type": "uint256"
        }
      ],
      "stateMutability": "view",
      "type": "function"
    },
    {
      "inputs": [
        {
          "internalType": "address",
          "name": "_lockerScriptHash",
          "type": "address"
        },
        {
          "internalType": "address",
          "name": "_receiver",
          "type": "address"
        },
        {
          "internalType": "uint256",
          "name": "_amount",
          "type": "uint256"
        }
      ],
      "name": "mint",
      "outputs": [
        {
          "internalType": "uint256",
          "name": "",
          "type": "uint256"
        }
      ],
      "stateMutability": "nonpayable",
      "type": "function"
    },
    {
      "inputs": [],
      "name": "owner",
      "outputs": [
        {
          "internalType": "address",
          "name": "",
          "type": "address"
        }
      ],
      "stateMutability": "view",
      "type": "function"
    },
    {
      "inputs": [],
      "name": "pauseLocker",
      "outputs": [],
      "stateMutability": "nonpayable",
      "type": "function"
    },
    {
      "inputs": [],
      "name": "paused",
      "outputs": [
        {
          "internalType": "bool",
          "name": "",
          "type": "bool"
        }
      ],
      "stateMutability": "view",
      "type": "function"
    },
    {
      "inputs": [],
      "name": "priceOracle",
      "outputs": [
        {
          "internalType": "address",
          "name": "",
          "type": "address"
        }
      ],
      "stateMutability": "view",
      "type": "function"
    },
    {
      "inputs": [
        {
          "internalType": "address",
          "name": "_account",
          "type": "address"
        }
      ],
      "name": "removeBurner",
      "outputs": [],
      "stateMutability": "nonpayable",
      "type": "function"
    },
    {
      "inputs": [
        {
          "internalType": "address",
          "name": "_lockerTargetAddress",
          "type": "address"
        }
      ],
      "name": "removeLocker",
      "outputs": [
        {
          "internalType": "bool",
          "name": "",
          "type": "bool"
        }
      ],
      "stateMutability": "nonpayable",
      "type": "function"
    },
    {
      "inputs": [
        {
          "internalType": "address",
          "name": "_account",
          "type": "address"
        }
      ],
      "name": "removeMinter",
      "outputs": [],
      "stateMutability": "nonpayable",
      "type": "function"
    },
    {
      "inputs": [],
      "name": "renounceOwnership",
      "outputs": [],
      "stateMutability": "nonpayable",
      "type": "function"
    },
    {
      "inputs": [
        {
          "internalType": "bytes",
          "name": "_candidateRedeemScript",
          "type": "bytes"
        },
        {
          "internalType": "address",
          "name": "_candidateScriptHash",
          "type": "address"
        },
        {
          "internalType": "uint256",
          "name": "_lockedTDTAmount",
          "type": "uint256"
        },
        {
          "internalType": "uint256",
          "name": "_lockedNativeTokenAmount",
          "type": "uint256"
        }
      ],
      "name": "requestToBecomeLocker",
      "outputs": [
        {
          "internalType": "bool",
          "name": "",
          "type": "bool"
        }
      ],
      "stateMutability": "payable",
      "type": "function"
    },
    {
      "inputs": [],
      "name": "requestToRemoveLocker",
      "outputs": [
        {
          "internalType": "bool",
          "name": "",
          "type": "bool"
        }
      ],
      "stateMutability": "nonpayable",
      "type": "function"
    },
    {
      "inputs": [],
      "name": "revokeRequest",
      "outputs": [
        {
          "internalType": "bool",
          "name": "",
          "type": "bool"
        }
      ],
      "stateMutability": "nonpayable",
      "type": "function"
    },
    {
      "inputs": [],
      "name": "selfRemoveLocker",
      "outputs": [
        {
          "internalType": "bool",
          "name": "",
          "type": "bool"
        }
      ],
      "stateMutability": "nonpayable",
      "type": "function"
    },
    {
      "inputs": [
        {
          "internalType": "address",
          "name": "_ccBurnRouter",
          "type": "address"
        }
      ],
      "name": "setCCBurnRouter",
      "outputs": [],
      "stateMutability": "nonpayable",
      "type": "function"
    },
    {
      "inputs": [
        {
          "internalType": "uint256",
          "name": "_collateralRatio",
          "type": "uint256"
        }
      ],
      "name": "setCollateralRatio",
      "outputs": [],
      "stateMutability": "nonpayable",
      "type": "function"
    },
    {
      "inputs": [
        {
          "internalType": "address",
          "name": "_exchangeConnector",
          "type": "address"
        }
      ],
      "name": "setExchangeConnector",
      "outputs": [],
      "stateMutability": "nonpayable",
      "type": "function"
    },
    {
      "inputs": [
        {
          "internalType": "uint256",
          "name": "_minRequiredTDTLockedAmount",
          "type": "uint256"
        }
      ],
      "name": "setMinRequiredTDTLockedAmount",
      "outputs": [],
      "stateMutability": "nonpayable",
      "type": "function"
    },
    {
      "inputs": [
        {
          "internalType": "uint256",
          "name": "_minRequiredTNTLockedAmount",
          "type": "uint256"
        }
      ],
      "name": "setMinRequiredTNTLockedAmount",
      "outputs": [],
      "stateMutability": "nonpayable",
      "type": "function"
    },
    {
      "inputs": [
        {
          "internalType": "address",
          "name": "_priceOracle",
          "type": "address"
        }
      ],
      "name": "setPriceOracle",
      "outputs": [],
      "stateMutability": "nonpayable",
      "type": "function"
    },
    {
      "inputs": [
        {
          "internalType": "address",
          "name": "_teleBTC",
          "type": "address"
        }
      ],
      "name": "setTeleBTC",
      "outputs": [],
      "stateMutability": "nonpayable",
      "type": "function"
    },
    {
      "inputs": [
        {
          "internalType": "address",
          "name": "_lockerTargetAddress",
          "type": "address"
        },
        {
          "internalType": "uint256",
          "name": "_rewardAmount",
          "type": "uint256"
        },
        {
          "internalType": "address",
          "name": "_rewardRecipient",
          "type": "address"
        },
        {
          "internalType": "uint256",
          "name": "_amount",
          "type": "uint256"
        },
        {
          "internalType": "address",
          "name": "_recipient",
          "type": "address"
        }
      ],
      "name": "slashLocker",
      "outputs": [
        {
          "internalType": "bool",
          "name": "",
          "type": "bool"
        }
      ],
      "stateMutability": "nonpayable",
      "type": "function"
    },
    {
      "inputs": [],
      "name": "teleBTC",
      "outputs": [
        {
          "internalType": "address",
          "name": "",
          "type": "address"
        }
      ],
      "stateMutability": "view",
      "type": "function"
    },
    {
      "inputs": [],
      "name": "totalNumberOfCandidates",
      "outputs": [
        {
          "internalType": "uint256",
          "name": "",
          "type": "uint256"
        }
      ],
      "stateMutability": "view",
      "type": "function"
    },
    {
      "inputs": [],
      "name": "totalNumberOfLockers",
      "outputs": [
        {
          "internalType": "uint256",
          "name": "",
          "type": "uint256"
        }
      ],
      "stateMutability": "view",
      "type": "function"
    },
    {
      "inputs": [
        {
          "internalType": "address",
          "name": "newOwner",
          "type": "address"
        }
      ],
      "name": "transferOwnership",
      "outputs": [],
      "stateMutability": "nonpayable",
      "type": "function"
    },
    {
      "inputs": [],
      "name": "unPauseLocker",
      "outputs": [],
      "stateMutability": "nonpayable",
      "type": "function"
    }
  ],
  "transactionHash": "0x92f316d0399400fc57a1f3e6ccb26ad7646dc4bfabe7e4501376ca9d55954e27",
  "args": [],
  "numDeployments": 1,
  "solcInputHash": "e12c7c9cd263aabdb11ed9046c0bd066",
  "bytecode": "0x608060405260d180546001600160a01b031916600117905534801561002357600080fd5b50613e8b806100336000396000f3fe6080604052600436106102e45760003560e01c80638d3d78cd11610190578063ca666b84116100dc578063e955de4511610095578063ef69a7bc1161006f578063ef69a7bc146108ca578063f2fde38b146108df578063f44637ba146108ff578063ffc9f7041461091f576102e4565b8063e955de451461087f578063ed110a9c14610894578063ee1f1c70146108aa576102e4565b8063ca666b84146107bf578063cab1344e146107d4578063cac9319b146107f4578063ce62cd4a1461082a578063d5a38a911461084a578063e85501d81461086a576102e4565b80639f8a13d711610149578063b4eae1cb11610123578063b4eae1cb14610756578063c0924b801461076c578063c6c3bbe61461078c578063c8c19b57146107ac576102e4565b80639f8a13d7146106e1578063a839db2414610701578063af1ea79514610721576102e4565b80638d3d78cd146106235780638da5cb5b1461064357806396ec39e814610661578063983b2d56146106815780639bf09882146106a15780639dc29fac146106c1576102e4565b8063530e784f1161024f578063683d178c116102085780637da5f0da116101e25780637da5f0da1461059d5780637edb79bc146105cd5780637f0f1817146105ed57806388aa0a521461060d576102e4565b8063683d178c146105525780636d32395c14610572578063715018a614610588576102e4565b8063530e784f146104af5780635a8d80b8146104cf5780635c975abb146104ef5780636060663e14610507578063613e2e1e14610527578063639080201461053c576102e4565b80632ec63d7c116102a15780632ec63d7c146103ec5780633092afd51461040c57806331f7d9641461042c57806336bbb2041461044c57806341fae5791461047957806345cc58901461048f576102e4565b806302846858146102e9578063043fd54b1461030b5780630906867914610350578063108f438d146103885780631775765f146103a85780632630c12f146103cc575b600080fd5b3480156102f557600080fd5b5061030961030436600461375f565b610934565b005b34801561031757600080fd5b5061033b61032636600461375f565b60d86020526000908152604090205460ff1681565b60405190151581526020015b60405180910390f35b34801561035c57600080fd5b5061037061036b36600461375f565b6109b3565b6040516001600160a01b039091168152602001610347565b34801561039457600080fd5b5060cb54610370906001600160a01b031681565b3480156103b457600080fd5b506103be60d35481565b604051908152602001610347565b3480156103d857600080fd5b5060d454610370906001600160a01b031681565b3480156103f857600080fd5b5061033b61040736600461375f565b6109d4565b34801561041857600080fd5b5061030961042736600461375f565b610a34565b34801561043857600080fd5b5060d154610370906001600160a01b031681565b34801561045857600080fd5b5061046c61046736600461375f565b610aaa565b6040516103479190613a35565b34801561048557600080fd5b506103be60cf5481565b34801561049b57600080fd5b5061033b6104aa36600461375f565b610b7c565b3480156104bb57600080fd5b506103096104ca36600461375f565b610d51565b3480156104db57600080fd5b5060cd54610370906001600160a01b031681565b3480156104fb57600080fd5b5060975460ff1661033b565b34801561051357600080fd5b50610309610522366004613937565b610da3565b34801561053357600080fd5b50610309610db0565b34801561054857600080fd5b506103be60ca5481565b34801561055e57600080fd5b5061033b61056d3660046137dd565b610dc2565b34801561057e57600080fd5b506103be60d05481565b34801561059457600080fd5b5061030961115f565b3480156105a957600080fd5b5061033b6105b836600461375f565b60d96020526000908152604090205460ff1681565b3480156105d957600080fd5b5060c954610370906001600160a01b031681565b3480156105f957600080fd5b5061030961060836600461375f565b611171565b34801561061957600080fd5b506103be60d65481565b34801561062f57600080fd5b5060cc54610370906001600160a01b031681565b34801561064f57600080fd5b506033546001600160a01b0316610370565b34801561066d57600080fd5b5061033b61067c3660046137b4565b6111c3565b34801561068d57600080fd5b5061030961069c36600461375f565b61168f565b3480156106ad57600080fd5b506103096106bc366004613937565b611709565b3480156106cd57600080fd5b506103be6106dc3660046137b4565b611716565b3480156106ed57600080fd5b5061033b6106fc36600461375f565b611a7d565b34801561070d57600080fd5b5061030961071c366004613937565b611ad0565b34801561072d57600080fd5b5061074161073c36600461375f565b611add565b60405161034799989796959493929190613a48565b34801561076257600080fd5b506103be60d25481565b34801561077857600080fd5b5060ce54610370906001600160a01b031681565b34801561079857600080fd5b506103be6107a7366004613779565b611bc3565b61033b6107ba36600461386b565b611ef3565b3480156107cb57600080fd5b5061033b6123f5565b3480156107e057600080fd5b506103096107ef36600461375f565b612514565b34801561080057600080fd5b5061037061080f36600461375f565b60da602052600090815260409020546001600160a01b031681565b34801561083657600080fd5b5061033b61084536600461375f565b612566565b34801561085657600080fd5b506103be61086536600461375f565b6128e2565b34801561087657600080fd5b5061033b61295a565b34801561088b57600080fd5b50610309612bee565b3480156108a057600080fd5b506103be60d75481565b3480156108b657600080fd5b506103096108c536600461375f565b612bfe565b3480156108d657600080fd5b5060d7546103be565b3480156108eb57600080fd5b506103096108fa36600461375f565b612c50565b34801561090b57600080fd5b5061030961091a36600461375f565b612cc9565b34801561092b57600080fd5b5061033b612d43565b806001600160a01b0381166109645760405162461bcd60e51b815260040161095b90613c28565b60405180910390fd5b61096c61305e565b610975826130b8565b6109915760405162461bcd60e51b815260040161095b90613b30565b506001600160a01b0316600090815260dc60205260409020805460ff19169055565b6001600160a01b03808216600090815260da6020526040902054165b919050565b6000816001600160a01b0381166109fd5760405162461bcd60e51b815260040161095b90613c28565b6001600160a01b03808416600090815260da6020908152604080832054909316825260d59052206005015460ff1691505b50919050565b806001600160a01b038116610a5b5760405162461bcd60e51b815260040161095b90613c28565b610a6361305e565b610a6c82613101565b610a885760405162461bcd60e51b815260040161095b90613b30565b506001600160a01b0316600090815260db60205260409020805460ff19169055565b6060816001600160a01b038116610ad35760405162461bcd60e51b815260040161095b90613c28565b6001600160a01b038316600090815260d5602052604090208054610af690613df4565b80601f0160208091040260200160405190810160405280929190818152602001828054610b2290613df4565b8015610b6f5780601f10610b4457610100808354040283529160200191610b6f565b820191906000526020600020905b815481529060010190602001808311610b5257829003601f168201915b5050505050915050919050565b6000816001600160a01b038116610ba55760405162461bcd60e51b815260040161095b90613c28565b60026065541415610bc85760405162461bcd60e51b815260040161095b90613cf0565b6002606555610bd561305e565b6001600160a01b038316600090815260d56020526040902060050154610100900460ff16610c535760405162461bcd60e51b815260206004820152602560248201527f4c6f636b6572733a206e6f207265717565737420776974682074686973206164604482015264647265737360d81b606482015260840161095b565b6001600160a01b038316600090815260d56020526040902060050180546301000000600161ffff19909216821763ff00000019161790915560d654610c989190613dad565b60d65560d754610ca9906001613d56565b60d7556001600160a01b03838116600081815260d5602081815260408084206001810154909616845260da825280842080546001600160a01b031916861790559284905252600283015460038401546005850154925193947f50bff2b930d5e10df6638f03dfb73e14d65664fecb85e9e46515fdb23414bfa494610d3a949193929162010000900460ff1690613ad0565b60405180910390a260019150506001606555919050565b806001600160a01b038116610d785760405162461bcd60e51b815260040161095b90613c28565b610d8061305e565b5060d480546001600160a01b0319166001600160a01b0392909216919091179055565b610dab61305e565b60d255565b610db861305e565b610dc061314a565b565b600060026065541415610de75760405162461bcd60e51b815260040161095b90613cf0565b6002606555610df461319c565b60cd546001600160a01b03163314610e4e5760405162461bcd60e51b815260206004820152601b60248201527f4c6f636b6572733a2043616c6c65722063616e277420736c6173680000000000604482015260640161095b565b6001600160a01b038616600090815260d5602052604090206005015460ff16610e895760405162461bcd60e51b815260040161095b90613c5f565b60d4546000906001600160a01b03166316fac92a610ea78689613d56565b60cc5460d15460405160e085901b6001600160e01b0319168152610ee493926008926012926001600160a01b039283169290911690600401613d27565b60206040518083038186803b158015610efc57600080fd5b505afa158015610f10573d6000803e3d6000fd5b505050506040513d601f19601f82011682018060405250810190610f349190613853565b6001600160a01b038816600090815260d56020526040902060030154909150811115610fb85760405162461bcd60e51b815260206004820152602d60248201527f4c6f636b6572733a20696e73756666696369656e74206e617469766520746f6b60448201526c195b8818dbdb1b185d195c985b609a1b606482015260840161095b565b6001600160a01b038716600090815260d56020526040902060030154610fdf908290613dad565b6001600160a01b03808916600090815260d56020526040902060030191909155831630146110b4576001600160a01b0383166108fc61101e8887613d56565b6110288785613d8e565b6110329190613d6e565b6040518115909202916000818181858888f1935050505015801561105a573d6000803e3d6000fd5b506001600160a01b0385166108fc6110728887613d56565b61107c8985613d8e565b6110869190613d6e565b6040518115909202916000818181858888f193505050501580156110ae573d6000803e3d6000fd5b50611109565b6001600160a01b0385166108fc6110cb8887613d56565b6110d58985613d8e565b6110df9190613d6e565b6040518115909202916000818181858888f19350505050158015611107573d6000803e3d6000fd5b505b866001600160a01b03167f09b1cd8a7b8b86d3143a517bfb6ca74cf5ae9d37fcd80c35e140205e704f553d8260405161114491815260200190565b60405180910390a26001915050600160655595945050505050565b61116761305e565b610dc060006131e2565b806001600160a01b0381166111985760405162461bcd60e51b815260040161095b90613c28565b6111a061305e565b5060cc80546001600160a01b0319166001600160a01b0392909216919091179055565b6000826001600160a01b0381166111ec5760405162461bcd60e51b815260040161095b90613c28565b826000811161120d5760405162461bcd60e51b815260040161095b90613bf8565b600260655414156112305760405162461bcd60e51b815260040161095b90613cf0565b600260655561123d61319c565b6001600160a01b038516600090815260d5602052604090206005015460ff166112785760405162461bcd60e51b815260040161095b90613c5f565b6001600160a01b038516600090815260d56020526040808220815161012081019092528054829082906112aa90613df4565b80601f01602080910402602001604051908101604052809291908181526020018280546112d690613df4565b80156113235780601f106112f857610100808354040283529160200191611323565b820191906000526020600020905b81548152906001019060200180831161130657829003601f168201915b505050918352505060018201546001600160a01b0316602082015260028201546040820152600382015460608201526004820154608082015260059091015460ff808216151560a08401526101008083048216151560c08501526201000083048216151560e08501526301000000909204161515910152905060006113a787613234565b90508061271060d35484608001516113bf9190613d8e565b6113c99190613d6e565b1161142e5760405162461bcd60e51b815260206004820152602f60248201527f4c6f636b6572733a2074686973206c6f636b65722069732061626f7665206c7560448201526e717569646174696f6e20726174696f60881b606482015260840161095b565b60006127108060d2546114419190613dad565b61144b9190613d6e565b8261271060d25486608001516114619190613d8e565b61146b9190613d6e565b6114759190613dad565b61147f9190613d6e565b90508260800151811115611494575060808201515b808711156114fc5760405162461bcd60e51b815260206004820152602f60248201527f4c6f636b6572733a2061626f766520746865206c6f636b65722773206c75717560448201526e69646174696f6e2070656e616c747960881b606482015260840161095b565b60cc546001600160a01b03166323b872dd336040516001600160e01b031960e084901b1681526001600160a01b039091166004820152306024820152604481018a9052606401602060405180830381600087803b15801561155c57600080fd5b505af1158015611570573d6000803e3d6000fd5b505050506040513d601f19601f820116820180604052508101906115949190613833565b5060d45460cc5460d154604051630b7d649560e11b81526000936001600160a01b03908116936316fac92a936115db938e9360089360129390821692911690600401613d27565b60206040518083038186803b1580156115f357600080fd5b505afa158015611607573d6000803e3d6000fd5b505050506040513d601f19601f8201168201806040525081019061162b9190613853565b6001600160a01b038a16600090815260d56020526040902060040154909150611655908990613dad565b6001600160a01b038a16600090815260d5602052604090206004015561167b33826132e1565b505060016065819055979650505050505050565b806001600160a01b0381166116b65760405162461bcd60e51b815260040161095b90613c28565b6116be61305e565b6116c782613101565b156116e45760405162461bcd60e51b815260040161095b90613b73565b506001600160a01b0316600090815260db60205260409020805460ff19166001179055565b61171161305e565b60cf55565b6000826001600160a01b03811661173f5760405162461bcd60e51b815260040161095b90613c28565b82600081116117605760405162461bcd60e51b815260040161095b90613bf8565b600260655414156117835760405162461bcd60e51b815260040161095b90613cf0565b600260655561179061319c565b611799336130b8565b6117e55760405162461bcd60e51b815260206004820152601e60248201527f4c6f636b6572733a206f6e6c79206275726e6572732063616e206275726e0000604482015260640161095b565b6001600160a01b03858116600090815260da602052604090205460cc5490821691166323b872dd336040516001600160e01b031960e084901b1681526001600160a01b03909116600482015230602482015260448101889052606401602060405180830381600087803b15801561185b57600080fd5b505af115801561186f573d6000803e3d6000fd5b505050506040513d601f19601f820116820180604052508101906118939190613833565b50600061271060ca54876118a79190613d8e565b6118b19190613d6e565b905060006118bf8288613dad565b6001600160a01b038416600090815260d56020526040902060040154909150818110156119445760405162461bcd60e51b815260206004820152602d60248201527f4c6f636b6572733a206c6f636b657220646f65736e277420686176652073756660448201526c66696369656e742066756e647360981b606482015260840161095b565b61194e8282613dad565b6001600160a01b03858116600090815260d560205260409081902060049081019390935560cc549051630852cd8d60e31b815292830185905216906342966c6890602401602060405180830381600087803b1580156119ac57600080fd5b505af11580156119c0573d6000803e3d6000fd5b505050506040513d601f19601f820116820180604052508101906119e49190613833565b5060cc5460405163a9059cbb60e01b81526001600160a01b038681166004830152602482018690529091169063a9059cbb90604401602060405180830381600087803b158015611a3357600080fd5b505af1158015611a47573d6000803e3d6000fd5b505050506040513d601f19601f82011682018060405250810190611a6b9190613833565b50506001606555979650505050505050565b6000816001600160a01b038116611aa65760405162461bcd60e51b815260040161095b90613c28565b50506001600160a01b0316600090815260d560205260409020600501546301000000900460ff1690565b611ad861305e565b60d055565b60d560205260009081526040902080548190611af890613df4565b80601f0160208091040260200160405190810160405280929190818152602001828054611b2490613df4565b8015611b715780601f10611b4657610100808354040283529160200191611b71565b820191906000526020600020905b815481529060010190602001808311611b5457829003601f168201915b505050600184015460028501546003860154600487015460059097015495966001600160a01b0390931695919450925060ff808216916101008104821691620100008204811691630100000090041689565b6000836001600160a01b038116611bec5760405162461bcd60e51b815260040161095b90613c28565b836001600160a01b038116611c135760405162461bcd60e51b815260040161095b90613c28565b8360008111611c345760405162461bcd60e51b815260040161095b90613bf8565b60026065541415611c575760405162461bcd60e51b815260040161095b90613cf0565b6002606555611c6461319c565b611c6d33613101565b611cb95760405162461bcd60e51b815260206004820152601e60248201527f4c6f636b6572733a206f6e6c79206d696e746572732063616e206d696e740000604482015260640161095b565b6001600160a01b03808816600090815260da602052604081205490911690611ce0826128e2565b905086811015611d4a5760405162461bcd60e51b815260206004820152602f60248201527f4c6f636b6572733a2074686973206c6f636b6572206861736e2774207375666660448201526e696369656e7420636170616369747960881b606482015260840161095b565b6001600160a01b038216600090815260d56020526040902060040154611d71908890613d56565b6001600160a01b038316600090815260d5602052604081206004019190915560ca5461271090611da1908a613d8e565b611dab9190613d6e565b90508015611e3b5760cc546040516340c10f1960e01b81526001600160a01b03858116600483015260248201849052909116906340c10f1990604401602060405180830381600087803b158015611e0157600080fd5b505af1158015611e15573d6000803e3d6000fd5b505050506040513d601f19601f82011682018060405250810190611e399190613833565b505b60cc546001600160a01b03166340c10f198a611e57848c613dad565b6040516001600160e01b031960e085901b1681526001600160a01b0390921660048301526024820152604401602060405180830381600087803b158015611e9d57600080fd5b505af1158015611eb1573d6000803e3d6000fd5b505050506040513d601f19601f82011682018060405250810190611ed59190613833565b50611ee08189613dad565b60016065559a9950505050505050505050565b6000836001600160a01b038116611f1c5760405162461bcd60e51b815260040161095b90613c28565b60026065541415611f3f5760405162461bcd60e51b815260040161095b90613cf0565b60026065556001600160a01b038516611f57876133ff565b6001600160a01b031614611fd35760405162461bcd60e51b815260206004820152603c60248201527f4c6f636b6572733a2072656465656d20736372697074206861736820646f657360448201527f6e2774206d6174636820776974682072656465656d2073637269707400000000606482015260840161095b565b33600090815260d56020526040902060050154610100900460ff16156120475760405162461bcd60e51b8152602060048201526024808201527f4c6f636b6572733a207573657220697320616c726561647920612063616e64696044820152636461746560e01b606482015260840161095b565b33600090815260d5602052604090206005015460ff16156120b45760405162461bcd60e51b815260206004820152602160248201527f4c6f636b6572733a207573657220697320616c72656164792061206c6f636b656044820152603960f91b606482015260840161095b565b60cf548410156121065760405162461bcd60e51b815260206004820152601f60248201527f4c6f636b6572733a206c6f77206c6f636b696e672054445420616d6f756e7400604482015260640161095b565b60d054831015801561211757508234145b6121635760405162461bcd60e51b815260206004820152601f60248201527f4c6f636b6572733a206c6f77206c6f636b696e6720544e5420616d6f756e7400604482015260640161095b565b6001600160a01b03858116600090815260da602052604090205416156121de5760405162461bcd60e51b815260206004820152602a60248201527f4c6f636b6572733a2072656465656d2073637269707420686173682069732075604482015269736564206265666f726560b01b606482015260840161095b565b60cb546040516323b872dd60e01b8152336004820152306024820152604481018690526001600160a01b03909116906323b872dd90606401602060405180830381600087803b15801561223057600080fd5b505af1158015612244573d6000803e3d6000fd5b505050506040513d601f19601f820116820180604052508101906122689190613833565b61227157600080fd5b604080516101208101825260006080820181905260a0820181905260e0820181905261010082018190528882526001600160a01b03881660208084019190915282840188905260608301879052600160c084015233825260d5815292902081518051929384936122e49284920190613677565b506020820151600182810180546001600160a01b0319166001600160a01b039093169290921790915560408301516002830155606083015160038301556080830151600483015560a08301516005909201805460c085015160e08601516101009687015160ff199093169515159590951761ff0019169015159095029490941762ff0000191662010000931515939093029290921763ff000000191663010000009315159390930292909217905560d65461239e91613d56565b60d65560405160009033907fd863369ddc33178451c0f2c0a2aa10f9fc21c04a7a512d76f0a80038fa5b7035906123da908b908a908690613aab565b60405180910390a36001925050506001606555949350505050565b60006002606554141561241a5760405162461bcd60e51b815260040161095b90613cf0565b600260655533600090815260d5602052604090206005015460ff1661248b5760405162461bcd60e51b815260206004820152602160248201527f4c6f636b6572733a204d73672073656e646572206973206e6f74206c6f636b656044820152603960f91b606482015260840161095b565b33600081815260d56020818152604080842060058101805463ff0000001916905560d8835293819020805460ff1916600117905591905260028201546003830154600484015492517f2cf13a17a26f23ac9b786e628031eac7ebf6bb0b34e3f477f340079eb68d9a3e946125029490939291613b01565b60405180910390a25060018060655590565b806001600160a01b03811661253b5760405162461bcd60e51b815260040161095b90613c28565b61254361305e565b5060ce80546001600160a01b0319166001600160a01b0392909216919091179055565b6000816001600160a01b03811661258f5760405162461bcd60e51b815260040161095b90613c28565b600260655414156125b25760405162461bcd60e51b815260040161095b90613cf0565b60026065556125bf61305e565b6001600160a01b038316600090815260d5602052604090206005015460ff166125fa5760405162461bcd60e51b815260040161095b90613bb4565b6001600160a01b038316600090815260d8602052604090205460ff166126325760405162461bcd60e51b815260040161095b90613ca4565b6001600160a01b038316600090815260d560205260409020600401541561269b5760405162461bcd60e51b815260206004820152601f60248201527f4c6f636b6572733a206e6574206d696e746564206973206e6f74207a65726f00604482015260640161095b565b6001600160a01b038316600090815260d56020526040808220815161012081019092528054829082906126cd90613df4565b80601f01602080910402602001604051908101604052809291908181526020018280546126f990613df4565b80156127465780601f1061271b57610100808354040283529160200191612746565b820191906000526020600020905b81548152906001019060200180831161272957829003601f168201915b505050918352505060018201546001600160a01b039081166020830152600283015460408084019190915260038401546060840152600480850154608085015260059094015460ff808216151560a08601526101008083048216151560c08701526201000083048216151560e0870152630100000090920416151593019290925260cb5484830151925163a9059cbb60e01b8152949550169263a9059cbb926128079289929091016001600160a01b03929092168252602082015260400190565b602060405180830381600087803b15801561282157600080fd5b505af1158015612835573d6000803e3d6000fd5b505050506040513d601f19601f820116820180604052508101906128599190613833565b506128688482606001516132e1565b612871846134ba565b600160d7546128809190613dad565b60d7558051604080830151606084015191516001600160a01b038816937f628f3d67160bc1a892a1779c6475e128010a54df63af5dcdbf3c7b06ca5dfa97936128ca939192613aab565b60405180910390a26001925050506001606555919050565b6000816001600160a01b03811661290b5760405162461bcd60e51b815260040161095b90613c28565b6001600160a01b038316600090815260d5602052604090206004015460d25461293385613234565b61293f90612710613d8e565b6129499190613d6e565b6129539190613dad565b9392505050565b60006002606554141561297f5760405162461bcd60e51b815260040161095b90613cf0565b600260655533600090815260d56020526040902060050154610100900460ff16612a065760405162461bcd60e51b815260206004820152603260248201527f4c6f636b6572733a207265717565737420646f65736e2774206578697374206f6044820152711c88185b1c9958591e481858d8d95c1d195960721b606482015260840161095b565b33600090815260d5602052604080822081516101208101909252805482908290612a2f90613df4565b80601f0160208091040260200160405190810160405280929190818152602001828054612a5b90613df4565b8015612aa85780601f10612a7d57610100808354040283529160200191612aa8565b820191906000526020600020905b815481529060010190602001808311612a8b57829003601f168201915b505050918352505060018201546001600160a01b0316602082015260028201546040820152600382015460608201526004820154608082015260059091015460ff808216151560a08401526101008083048216151560c08501526201000083048216151560e085015263010000009092041615159101529050612b2a33613581565b600160d654612b399190613dad565b60d65560cb546001600160a01b031663a9059cbb3360408085015190516001600160e01b031960e085901b1681526001600160a01b0390921660048301526024820152604401602060405180830381600087803b158015612b9957600080fd5b505af1158015612bad573d6000803e3d6000fd5b505050506040513d601f19601f82011682018060405250810190612bd19190613833565b50612be1335b82606001516132e1565b6001915050600160655590565b612bf661305e565b610dc06135f1565b806001600160a01b038116612c255760405162461bcd60e51b815260040161095b90613c28565b612c2d61305e565b5060cd80546001600160a01b0319166001600160a01b0392909216919091179055565b612c5861305e565b6001600160a01b038116612cbd5760405162461bcd60e51b815260206004820152602660248201527f4f776e61626c653a206e6577206f776e657220697320746865207a65726f206160448201526564647265737360d01b606482015260840161095b565b612cc6816131e2565b50565b806001600160a01b038116612cf05760405162461bcd60e51b815260040161095b90613c28565b612cf861305e565b612d01826130b8565b15612d1e5760405162461bcd60e51b815260040161095b90613b73565b506001600160a01b0316600090815260dc60205260409020805460ff19166001179055565b600060026065541415612d685760405162461bcd60e51b815260040161095b90613cf0565b6002606555612d7561319c565b33600090815260d5602052604090206005015460ff16612da75760405162461bcd60e51b815260040161095b90613bb4565b33600090815260d8602052604090205460ff16612dd65760405162461bcd60e51b815260040161095b90613ca4565b33600090815260d5602052604090206004015415612e365760405162461bcd60e51b815260206004820152601f60248201527f4c6f636b6572733a206e6574206d696e746564206973206e6f74207a65726f00604482015260640161095b565b33600090815260d5602052604080822081516101208101909252805482908290612e5f90613df4565b80601f0160208091040260200160405190810160405280929190818152602001828054612e8b90613df4565b8015612ed85780601f10612ead57610100808354040283529160200191612ed8565b820191906000526020600020905b815481529060010190602001808311612ebb57829003601f168201915b505050918352505060018201546001600160a01b0316602082015260028201546040820152600382015460608201526004820154608082015260059091015460ff808216151560a08401526101008083048216151560c08501526201000083048216151560e085015263010000009092041615159101529050612f5a336134ba565b600160d754612f699190613dad565b60d75560cb546001600160a01b031663a9059cbb3360408085015190516001600160e01b031960e085901b1681526001600160a01b0390921660048301526024820152604401602060405180830381600087803b158015612fc957600080fd5b505af1158015612fdd573d6000803e3d6000fd5b505050506040513d601f19601f820116820180604052508101906130019190613833565b5061300b33612bd7565b80516040808301516060840151915133937f628f3d67160bc1a892a1779c6475e128010a54df63af5dcdbf3c7b06ca5dfa9793613049939192613aab565b60405180910390a26001915050600160655590565b6033546001600160a01b03163314610dc05760405162461bcd60e51b815260206004820181905260248201527f4f776e61626c653a2063616c6c6572206973206e6f7420746865206f776e6572604482015260640161095b565b6000816001600160a01b0381166130e15760405162461bcd60e51b815260040161095b90613c28565b50506001600160a01b0316600090815260dc602052604090205460ff1690565b6000816001600160a01b03811661312a5760405162461bcd60e51b815260040161095b90613c28565b50506001600160a01b0316600090815260db602052604090205460ff1690565b61315261362e565b6097805460ff191690557f5db9ee0a495bf2e6ff9c91a7834c1ba4fdd244a5e8aa4e537bd38aeae4b073aa335b6040516001600160a01b03909116815260200160405180910390a1565b60975460ff1615610dc05760405162461bcd60e51b815260206004820152601060248201526f14185d5cd8589b194e881c185d5cd95960821b604482015260640161095b565b603380546001600160a01b038381166001600160a01b0319831681179093556040519116919082907f8be0079c531659141344cd1fd0a4f28419497f9722a3daafe3b4186f6b6457e090600090a35050565b60d4546001600160a01b03828116600090815260d560205260408082206003015460d15460cc549251630b7d649560e11b815293958516946316fac92a9461328b9460129360089390811692911690600401613d27565b60206040518083038186803b1580156132a357600080fd5b505afa1580156132b7573d6000803e3d6000fd5b505050506040513d601f19601f820116820180604052508101906132db9190613853565b92915050565b804710156133315760405162461bcd60e51b815260206004820152601d60248201527f416464726573733a20696e73756666696369656e742062616c616e6365000000604482015260640161095b565b6000826001600160a01b03168260405160006040518083038185875af1925050503d806000811461337e576040519150601f19603f3d011682016040523d82523d6000602084013e613383565b606091505b50509050806133fa5760405162461bcd60e51b815260206004820152603a60248201527f416464726573733a20756e61626c6520746f2073656e642076616c75652c207260448201527f6563697069656e74206d61792068617665207265766572746564000000000000606482015260840161095b565b505050565b6000806002836040516134129190613a19565b602060405180830381855afa15801561342f573d6000803e3d6000fd5b5050506040513d601f19601f820116820180604052508101906134529190613853565b9050600060038260405160200161346b91815260200190565b60408051601f198184030181529082905261348591613a19565b602060405180830381855afa1580156134a2573d6000803e3d6000fd5b5050604051516001600160a01b031695945050505050565b6001600160a01b038116600090815260d5602052604090206005015460ff166135255760405162461bcd60e51b815260206004820152601d60248201527f4c6f636b6572733a206c6f636b657220646f65736e2774206578697374000000604482015260640161095b565b6001600160a01b038116600090815260d5602052604081209061354882826136fb565b506001810180546001600160a01b0319169055600060028201819055600382018190556004820155600501805463ffffffff1916905550565b6001600160a01b038116600090815260d56020526040902060050154610100900460ff166135255760405162461bcd60e51b815260206004820181905260248201527f4c6f636b6572733a2063616e64696461746520646f65736e2774206578697374604482015260640161095b565b6135f961319c565b6097805460ff191660011790557f62e78cea01bee320cd4e420270b5ea74000d11b0c9f74754ebdbfc544b05a25861317f3390565b60975460ff16610dc05760405162461bcd60e51b815260206004820152601460248201527314185d5cd8589b194e881b9bdd081c185d5cd95960621b604482015260640161095b565b82805461368390613df4565b90600052602060002090601f0160209004810192826136a557600085556136eb565b82601f106136be57805160ff19168380011785556136eb565b828001600101855582156136eb579182015b828111156136eb5782518255916020019190600101906136d0565b506136f7929150613733565b5090565b50805461370790613df4565b6000825580601f106137195750612cc6565b601f016020900490600052602060002090810190612cc691905b5b808211156136f75760008155600101613734565b80356001600160a01b03811681146109cf57600080fd5b600060208284031215613770578081fd5b61295382613748565b60008060006060848603121561378d578182fd5b61379684613748565b92506137a460208501613748565b9150604084013590509250925092565b600080604083850312156137c6578182fd5b6137cf83613748565b946020939093013593505050565b600080600080600060a086880312156137f4578081fd5b6137fd86613748565b94506020860135935061381260408701613748565b92506060860135915061382760808701613748565b90509295509295909350565b600060208284031215613844578081fd5b81518015158114612953578182fd5b600060208284031215613864578081fd5b5051919050565b60008060008060808587031215613880578384fd5b843567ffffffffffffffff80821115613897578586fd5b818701915087601f8301126138aa578586fd5b8135818111156138bc576138bc613e3f565b604051601f8201601f19908116603f011681019083821181831017156138e4576138e4613e3f565b816040528281528a60208487010111156138fc578889fd5b826020860160208301378860208483010152809850505050505061392260208601613748565b93969395505050506040820135916060013590565b600060208284031215613948578081fd5b5035919050565b60008151808452613967816020860160208601613dc4565b601f01601f19169290920160200192915050565b80546000906002810460018083168061399557607f831692505b60208084108214156139b557634e487b7160e01b86526022600452602486fd5b838852602088018280156139d057600181146139e157613a0c565b60ff19871682528282019750613a0c565b60008981526020902060005b87811015613a06578154848201529086019084016139ed565b83019850505b5050505050505092915050565b60008251613a2b818460208701613dc4565b9190910192915050565b600060208252612953602083018461394f565b6000610120808352613a5c8184018d61394f565b6001600160a01b039b909b166020840152505060408101979097526060870195909552608086019390935290151560a0850152151560c0840152151560e0830152151561010090910152919050565b600060608252613abe606083018661394f565b60208301949094525060400152919050565b600060808252613ae3608083018761397b565b60208301959095525060408101929092521515606090910152919050565b600060808252613b14608083018761397b565b6020830195909552506040810192909252606090910152919050565b60208082526023908201527f4c6f636b6572733a206163636f756e7420646f6573206e6f74206861766520726040820152626f6c6560e81b606082015260800190565b60208082526021908201527f4c6f636b6572733a206163636f756e7420616c72656164792068617320726f6c6040820152606560f81b606082015260800190565b60208082526024908201527f4c6f636b6572733a206e6f206c6f636b657220776974682074686973206164646040820152637265737360e01b606082015260800190565b6020808252601690820152754c6f636b6572733a2076616c7565206973207a65726f60501b604082015260600190565b60208082526018908201527f4c6f636b6572733a2061646472657373206973207a65726f0000000000000000604082015260600190565b60208082526025908201527f4c6f636b6572733a207461726765742061646472657373206973206e6f74206c60408201526437b1b5b2b960d91b606082015260800190565b6020808252602c908201527f4c6f636b6572733a206c6f636b6572206469646e27742072657175657374207460408201526b1bc81899481c995b5bdd995960a21b606082015260800190565b6020808252601f908201527f5265656e7472616e637947756172643a207265656e7472616e742063616c6c00604082015260600190565b948552602085019390935260408401919091526001600160a01b03908116606084015216608082015260a00190565b60008219821115613d6957613d69613e29565b500190565b600082613d8957634e487b7160e01b81526012600452602481fd5b500490565b6000816000190483118215151615613da857613da8613e29565b500290565b600082821015613dbf57613dbf613e29565b500390565b60005b83811015613ddf578181015183820152602001613dc7565b83811115613dee576000848401525b50505050565b600281046001821680613e0857607f821691505b60208210811415610a2e57634e487b7160e01b600052602260045260246000fd5b634e487b7160e01b600052601160045260246000fd5b634e487b7160e01b600052604160045260246000fdfea2646970667358221220726c9acfc848f459a91c456dc2c4793b76a51a602b1f850d8ef175ef5a82acf364736f6c63430008020033",
  "devdoc": {
    "kind": "dev",
    "methods": {
      "addBurner(address)": {
        "details": "Give an account access to burn."
      },
      "addLocker(address)": {
        "details": "Only owner can call this",
        "params": {
          "_lockerTargetAddress": "Locker's target chain address"
        },
        "returns": {
          "_0": "True if candidate is added successfully"
        }
      },
      "addMinter(address)": {
        "details": "Give an account access to mint."
      },
      "getLockerCapacity(address)": {
        "details": "Net minted amount is total minted minus total burnt for the locker",
        "params": {
          "_lockerTargetAddress": "Address of locker on the target chain"
        },
        "returns": {
          "_0": "The net minted of the locker"
        }
      },
      "getLockerRedeemScript(address)": {
        "details": "@param _lockerTargetAddress         Address of locker on the target chain",
        "returns": {
          "_0": "Bitcoin public key of locker"
        }
      },
      "getNumberOfLockers()": {
        "details": "@return                           Number of lockers"
      },
      "isActive(address)": {
        "details": "An active locker is not in the process of being removed and has enough capacity to mint more tokens (minted - burnt << their collateral)",
        "params": {
          "_lockerTargetAddress": "Address of locker on the target chain"
        },
        "returns": {
          "_0": "True if the locker is active and accepts mint requests"
        }
      },
      "isLocker(address)": {
        "details": "@param _lockerTargetAddress       Address of locker on the target chain",
        "returns": {
          "_0": "True if user is locker"
        }
      },
      "owner()": {
        "details": "Returns the address of the current owner."
      },
      "pauseLocker()": {
        "details": "@param"
      },
      "paused()": {
        "details": "Returns true if the contract is paused, and false otherwise."
      },
      "removeBurner(address)": {
        "details": "Remove an account's access to burn."
      },
      "removeLocker(address)": {
        "returns": {
          "_0": "True if locker is removed successfully"
        }
      },
      "removeMinter(address)": {
        "details": "Remove an account's access to mint."
      },
      "renounceOwnership()": {
        "details": "Leaves the contract without owner. It will not be possible to call `onlyOwner` functions anymore. Can only be called by the current owner. NOTE: Renouncing ownership will leave the contract without an owner, thereby removing any functionality that is only available to the owner."
      },
      "requestToBecomeLocker(bytes,address,uint256,uint256)": {
        "details": "@param _candidateRedeemScript         Bitcoin address of the candidate",
        "params": {
          "_lockedNativeTokenAmount": "Bond amount of locker in native token of the target chain",
          "_lockedTDTAmount": "Bond amount of locker in TDT"
        },
        "returns": {
          "_0": "True if candidate is added successfully"
        }
      },
      "requestToRemoveLocker()": {
        "details": "Deactivates the status of the locker so that no one is allowed to send mint requests to this locker. It gives time to the locker to burn the required amount of teleBTC to make itself eligible to be removed.",
        "returns": {
          "_0": "True if deactivated successfully"
        }
      },
      "revokeRequest()": {
        "returns": {
          "_0": "True if candidate is removed successfully"
        }
      },
      "selfRemoveLocker()": {
        "returns": {
          "_0": "True if locker is removed successfully"
        }
      },
      "setCCBurnRouter(address)": {
        "details": "Only current owner can call this",
        "params": {
          "_ccBurnRouter": "The new cc burn router contract address"
        }
      },
      "setCollateralRatio(uint256)": {
        "details": "Only owner can call this",
        "params": {
          "_collateralRatio": "The new collateral ratio"
        }
      },
      "setExchangeConnector(address)": {
        "details": "Only owner can call this",
        "params": {
          "_exchangeConnector": "The new exchange router contract address"
        }
      },
      "setMinRequiredTDTLockedAmount(uint256)": {
        "details": "Only current owner can call this",
        "params": {
          "_minRequiredTDTLockedAmount": "The new required bond amount"
        }
      },
      "setMinRequiredTNTLockedAmount(uint256)": {
        "details": "Only current owner can call this",
        "params": {
          "_minRequiredTNTLockedAmount": "The new required bond amount"
        }
      },
      "setPriceOracle(address)": {
        "details": "Only current owner can call this",
        "params": {
          "_priceOracle": "The new price oracle"
        }
      },
      "setTeleBTC(address)": {
        "details": "Only owner can call this",
        "params": {
          "_teleBTC": "The new wrapped token contract address"
        }
      },
      "slashLocker(address,uint256,address,uint256,address)": {
        "details": "Only cc burn router can call this",
        "params": {
          "_amount": "Amount of teleBTC that is slashed from lockers",
          "_lockerTargetAddress": "Locker's target chain address",
          "_recipient": "Address of user who receives the slashed amount"
        },
        "returns": {
          "_0": "True if lockers are slashed successfully"
        }
      },
      "transferOwnership(address)": {
        "details": "Transfers ownership of the contract to a new account (`newOwner`). Can only be called by the current owner."
      },
      "unPauseLocker()": {
        "details": "@param"
      }
    },
    "version": 1
  },
  "userdoc": {
    "kind": "user",
    "methods": {
      "addLocker(address)": {
        "notice": "Approves a candidate request to become locker"
      },
      "getLockerCapacity(address)": {
        "notice": "Get how much net this locker has minted"
      },
      "getLockerRedeemScript(address)": {
        "notice": "Give Bitcoin public key of locker"
      },
      "getNumberOfLockers()": {
        "notice": "Give number of lockers"
      },
      "isActive(address)": {
        "notice": "Tells if a locker is active or not"
      },
      "isLocker(address)": {
        "notice": "Checks whether an address is locker"
      },
      "pauseLocker()": {
        "notice": "Pause the locker, so only the functions can be called which are whenPaused"
      },
      "removeLocker(address)": {
        "notice": "Removes a locker from lockers pool"
      },
      "requestToBecomeLocker(bytes,address,uint256,uint256)": {
        "notice": "Adds user to candidates list"
      },
      "requestToRemoveLocker()": {
        "notice": "Requests to remove a locker from lockers list"
      },
      "revokeRequest()": {
        "notice": "Removes a candidate from candidates list"
      },
      "selfRemoveLocker()": {
        "notice": "Removes a locker from lockers pool"
      },
      "setCCBurnRouter(address)": {
        "notice": "Changes cc burn router contract"
      },
      "setCollateralRatio(uint256)": {
        "notice": "Changes collateral ratio"
      },
      "setExchangeConnector(address)": {
        "notice": "Changes exchange router contract address and updates wrapped avax addresses"
      },
      "setMinRequiredTDTLockedAmount(uint256)": {
        "notice": "Changes the required bond amount to become locker"
      },
      "setMinRequiredTNTLockedAmount(uint256)": {
        "notice": "Changes the required bond amount to become locker"
      },
      "setPriceOracle(address)": {
        "notice": "Changes the price oracle"
      },
      "setTeleBTC(address)": {
        "notice": "Changes wrapped token contract address"
      },
      "slashLocker(address,uint256,address,uint256,address)": {
        "notice": "Slashes lockers"
      },
      "unPauseLocker()": {
        "notice": "Un-pause the locker, so only the functions can be called which are whenNotPaused"
      }
    },
    "version": 1
  },
  "storageLayout": {
    "storage": [
      {
        "astId": 184,
        "contract": "contracts/lockers/LockersLogic.sol:LockersLogic",
        "label": "_initialized",
        "offset": 0,
        "slot": "0",
        "type": "t_uint8"
      },
      {
        "astId": 187,
        "contract": "contracts/lockers/LockersLogic.sol:LockersLogic",
        "label": "_initializing",
        "offset": 1,
        "slot": "0",
        "type": "t_bool"
      },
      {
        "astId": 798,
        "contract": "contracts/lockers/LockersLogic.sol:LockersLogic",
        "label": "__gap",
        "offset": 0,
        "slot": "1",
        "type": "t_array(t_uint256)50_storage"
      },
      {
        "astId": 56,
        "contract": "contracts/lockers/LockersLogic.sol:LockersLogic",
        "label": "_owner",
        "offset": 0,
        "slot": "51",
        "type": "t_address"
      },
      {
        "astId": 176,
        "contract": "contracts/lockers/LockersLogic.sol:LockersLogic",
        "label": "__gap",
        "offset": 0,
        "slot": "52",
        "type": "t_array(t_uint256)49_storage"
      },
      {
        "astId": 469,
        "contract": "contracts/lockers/LockersLogic.sol:LockersLogic",
        "label": "_status",
        "offset": 0,
        "slot": "101",
        "type": "t_uint256"
      },
      {
        "astId": 513,
        "contract": "contracts/lockers/LockersLogic.sol:LockersLogic",
        "label": "__gap",
        "offset": 0,
        "slot": "102",
        "type": "t_array(t_uint256)49_storage"
      },
      {
        "astId": 349,
        "contract": "contracts/lockers/LockersLogic.sol:LockersLogic",
        "label": "_paused",
        "offset": 0,
        "slot": "151",
        "type": "t_bool"
      },
      {
        "astId": 454,
        "contract": "contracts/lockers/LockersLogic.sol:LockersLogic",
        "label": "__gap",
        "offset": 0,
        "slot": "152",
        "type": "t_array(t_uint256)49_storage"
      },
      {
        "astId": 9706,
        "contract": "contracts/lockers/LockersLogic.sol:LockersLogic",
        "label": "lockersLogic",
        "offset": 0,
        "slot": "201",
        "type": "t_address"
      },
      {
        "astId": 9708,
        "contract": "contracts/lockers/LockersLogic.sol:LockersLogic",
        "label": "lockerPercentageFee",
        "offset": 0,
        "slot": "202",
        "type": "t_uint256"
      },
      {
        "astId": 9710,
        "contract": "contracts/lockers/LockersLogic.sol:LockersLogic",
        "label": "TeleportDAOToken",
        "offset": 0,
        "slot": "203",
        "type": "t_address"
      },
      {
        "astId": 9712,
        "contract": "contracts/lockers/LockersLogic.sol:LockersLogic",
        "label": "teleBTC",
        "offset": 0,
        "slot": "204",
        "type": "t_address"
      },
      {
        "astId": 9714,
        "contract": "contracts/lockers/LockersLogic.sol:LockersLogic",
        "label": "ccBurnRouter",
        "offset": 0,
        "slot": "205",
        "type": "t_address"
      },
      {
        "astId": 9716,
        "contract": "contracts/lockers/LockersLogic.sol:LockersLogic",
        "label": "exchangeConnector",
        "offset": 0,
        "slot": "206",
        "type": "t_address"
      },
      {
        "astId": 9718,
        "contract": "contracts/lockers/LockersLogic.sol:LockersLogic",
        "label": "minRequiredTDTLockedAmount",
        "offset": 0,
        "slot": "207",
        "type": "t_uint256"
      },
      {
        "astId": 9720,
        "contract": "contracts/lockers/LockersLogic.sol:LockersLogic",
        "label": "minRequiredTNTLockedAmount",
        "offset": 0,
        "slot": "208",
        "type": "t_uint256"
      },
      {
        "astId": 9726,
        "contract": "contracts/lockers/LockersLogic.sol:LockersLogic",
        "label": "NATIVE_TOKEN",
        "offset": 0,
        "slot": "209",
        "type": "t_address"
      },
      {
        "astId": 9728,
        "contract": "contracts/lockers/LockersLogic.sol:LockersLogic",
        "label": "collateralRatio",
        "offset": 0,
        "slot": "210",
        "type": "t_uint256"
      },
      {
        "astId": 9730,
        "contract": "contracts/lockers/LockersLogic.sol:LockersLogic",
        "label": "liquidationRatio",
        "offset": 0,
        "slot": "211",
        "type": "t_uint256"
      },
      {
        "astId": 9732,
        "contract": "contracts/lockers/LockersLogic.sol:LockersLogic",
        "label": "priceOracle",
        "offset": 0,
        "slot": "212",
        "type": "t_address"
      },
      {
        "astId": 9737,
        "contract": "contracts/lockers/LockersLogic.sol:LockersLogic",
        "label": "lockersMapping",
        "offset": 0,
        "slot": "213",
        "type": "t_mapping(t_address,t_struct(locker)9704_storage)"
      },
      {
        "astId": 9739,
        "contract": "contracts/lockers/LockersLogic.sol:LockersLogic",
        "label": "totalNumberOfCandidates",
        "offset": 0,
        "slot": "214",
        "type": "t_uint256"
      },
      {
        "astId": 9741,
        "contract": "contracts/lockers/LockersLogic.sol:LockersLogic",
        "label": "totalNumberOfLockers",
        "offset": 0,
        "slot": "215",
        "type": "t_uint256"
      },
      {
        "astId": 9745,
        "contract": "contracts/lockers/LockersLogic.sol:LockersLogic",
        "label": "lockerLeavingRequests",
        "offset": 0,
        "slot": "216",
        "type": "t_mapping(t_address,t_bool)"
      },
      {
        "astId": 9749,
        "contract": "contracts/lockers/LockersLogic.sol:LockersLogic",
        "label": "lockerLeavingAcceptance",
        "offset": 0,
        "slot": "217",
        "type": "t_mapping(t_address,t_bool)"
      },
      {
        "astId": 9753,
        "contract": "contracts/lockers/LockersLogic.sol:LockersLogic",
        "label": "lockerTargetAddress",
        "offset": 0,
        "slot": "218",
        "type": "t_mapping(t_address,t_address)"
      },
      {
        "astId": 9757,
        "contract": "contracts/lockers/LockersLogic.sol:LockersLogic",
        "label": "minters",
        "offset": 0,
        "slot": "219",
        "type": "t_mapping(t_address,t_bool)"
      },
      {
        "astId": 9761,
        "contract": "contracts/lockers/LockersLogic.sol:LockersLogic",
        "label": "burners",
        "offset": 0,
        "slot": "220",
        "type": "t_mapping(t_address,t_bool)"
      }
    ],
    "types": {
      "t_address": {
        "encoding": "inplace",
        "label": "address",
        "numberOfBytes": "20"
      },
      "t_array(t_uint256)49_storage": {
        "base": "t_uint256",
        "encoding": "inplace",
        "label": "uint256[49]",
        "numberOfBytes": "1568"
      },
      "t_array(t_uint256)50_storage": {
        "base": "t_uint256",
        "encoding": "inplace",
        "label": "uint256[50]",
        "numberOfBytes": "1600"
      },
      "t_bool": {
        "encoding": "inplace",
        "label": "bool",
        "numberOfBytes": "1"
      },
      "t_bytes_storage": {
        "encoding": "bytes",
        "label": "bytes",
        "numberOfBytes": "32"
      },
      "t_mapping(t_address,t_address)": {
        "encoding": "mapping",
        "key": "t_address",
        "label": "mapping(address => address)",
        "numberOfBytes": "32",
        "value": "t_address"
      },
      "t_mapping(t_address,t_bool)": {
        "encoding": "mapping",
        "key": "t_address",
        "label": "mapping(address => bool)",
        "numberOfBytes": "32",
        "value": "t_bool"
      },
      "t_mapping(t_address,t_struct(locker)9704_storage)": {
        "encoding": "mapping",
        "key": "t_address",
        "label": "mapping(address => struct LockersStorageStructure.locker)",
        "numberOfBytes": "32",
        "value": "t_struct(locker)9704_storage"
      },
      "t_struct(locker)9704_storage": {
        "encoding": "inplace",
        "label": "struct LockersStorageStructure.locker",
        "members": [
          {
            "astId": 9687,
            "contract": "contracts/lockers/LockersLogic.sol:LockersLogic",
            "label": "lockerRedeemScript",
            "offset": 0,
            "slot": "0",
            "type": "t_bytes_storage"
          },
          {
            "astId": 9689,
            "contract": "contracts/lockers/LockersLogic.sol:LockersLogic",
            "label": "lockerScriptHash",
            "offset": 0,
            "slot": "1",
            "type": "t_address"
          },
          {
            "astId": 9691,
            "contract": "contracts/lockers/LockersLogic.sol:LockersLogic",
            "label": "TDTLockedAmount",
            "offset": 0,
            "slot": "2",
            "type": "t_uint256"
          },
          {
            "astId": 9693,
            "contract": "contracts/lockers/LockersLogic.sol:LockersLogic",
            "label": "nativeTokenLockedAmount",
            "offset": 0,
            "slot": "3",
            "type": "t_uint256"
          },
          {
            "astId": 9695,
            "contract": "contracts/lockers/LockersLogic.sol:LockersLogic",
            "label": "netMinted",
            "offset": 0,
            "slot": "4",
            "type": "t_uint256"
          },
          {
            "astId": 9697,
            "contract": "contracts/lockers/LockersLogic.sol:LockersLogic",
            "label": "isLocker",
            "offset": 0,
            "slot": "5",
            "type": "t_bool"
          },
          {
            "astId": 9699,
            "contract": "contracts/lockers/LockersLogic.sol:LockersLogic",
            "label": "isCandidate",
            "offset": 1,
            "slot": "5",
            "type": "t_bool"
          },
          {
            "astId": 9701,
            "contract": "contracts/lockers/LockersLogic.sol:LockersLogic",
            "label": "isScriptHash",
            "offset": 2,
            "slot": "5",
            "type": "t_bool"
          },
          {
            "astId": 9703,
            "contract": "contracts/lockers/LockersLogic.sol:LockersLogic",
            "label": "isActive",
            "offset": 3,
            "slot": "5",
            "type": "t_bool"
          }
        ],
        "numberOfBytes": "192"
      },
      "t_uint256": {
        "encoding": "inplace",
        "label": "uint256",
        "numberOfBytes": "32"
      },
      "t_uint8": {
        "encoding": "inplace",
        "label": "uint8",
        "numberOfBytes": "1"
      }
    }
  }
}