{
  "address": "0x6975e78d05B10a16F852202aE8BF7De542fD8cF0",
  "abi": [
    {
      "anonymous": false,
      "inputs": [
        {
          "indexed": false,
          "internalType": "uint8",
          "name": "version",
          "type": "uint8"
        }
      ],
      "name": "Initialized",
      "type": "event"
    },
    {
      "anonymous": false,
      "inputs": [
        {
          "indexed": true,
          "internalType": "address",
          "name": "lockerTargetAddress",
          "type": "address"
        },
        {
          "indexed": false,
          "internalType": "bytes",
          "name": "lockerLockingScript",
          "type": "bytes"
        },
        {
          "indexed": false,
          "internalType": "uint256",
          "name": "TDTLockedAmount",
          "type": "uint256"
        },
        {
          "indexed": false,
          "internalType": "uint256",
          "name": "nativeTokenLockedAmount",
          "type": "uint256"
        },
        {
          "indexed": false,
          "internalType": "uint256",
          "name": "addingTime",
          "type": "uint256"
        }
      ],
      "name": "LockerAdded",
      "type": "event"
    },
    {
      "anonymous": false,
      "inputs": [
        {
          "indexed": true,
          "internalType": "address",
          "name": "lockerTargetAddress",
          "type": "address"
        },
        {
          "indexed": false,
          "internalType": "bytes",
          "name": "lockerLockingScript",
          "type": "bytes"
        },
        {
          "indexed": false,
          "internalType": "uint256",
          "name": "TDTUnlockedAmount",
          "type": "uint256"
        },
        {
          "indexed": false,
          "internalType": "uint256",
          "name": "nativeTokenUnlockedAmount",
          "type": "uint256"
        }
      ],
      "name": "LockerRemoved",
      "type": "event"
    },
    {
      "anonymous": false,
      "inputs": [
        {
          "indexed": true,
          "internalType": "address",
          "name": "lockerTargetAddress",
          "type": "address"
        },
        {
          "indexed": false,
          "internalType": "uint256",
          "name": "slashedCollateralAmount",
          "type": "uint256"
        }
      ],
      "name": "LockerSlashed",
      "type": "event"
    },
    {
      "anonymous": false,
      "inputs": [
        {
          "indexed": true,
          "internalType": "address",
          "name": "previousOwner",
          "type": "address"
        },
        {
          "indexed": true,
          "internalType": "address",
          "name": "newOwner",
          "type": "address"
        }
      ],
      "name": "OwnershipTransferred",
      "type": "event"
    },
    {
      "anonymous": false,
      "inputs": [
        {
          "indexed": false,
          "internalType": "address",
          "name": "account",
          "type": "address"
        }
      ],
      "name": "Paused",
      "type": "event"
    },
    {
      "anonymous": false,
      "inputs": [
        {
          "indexed": true,
          "internalType": "address",
          "name": "lockerTargetAddress",
          "type": "address"
        },
        {
          "indexed": false,
          "internalType": "bytes",
          "name": "lockerLockingScript",
          "type": "bytes"
        },
        {
          "indexed": false,
          "internalType": "uint256",
          "name": "TDTLockedAmount",
          "type": "uint256"
        },
        {
          "indexed": false,
          "internalType": "uint256",
          "name": "nativeTokenLockedAmount",
          "type": "uint256"
        }
      ],
      "name": "RequestAddLocker",
      "type": "event"
    },
    {
      "anonymous": false,
      "inputs": [
        {
          "indexed": true,
          "internalType": "address",
          "name": "lockerTargetAddress",
          "type": "address"
        },
        {
          "indexed": false,
          "internalType": "bytes",
          "name": "lockerLockingScript",
          "type": "bytes"
        },
        {
          "indexed": false,
          "internalType": "uint256",
          "name": "TDTUnlockedAmount",
          "type": "uint256"
        },
        {
          "indexed": false,
          "internalType": "uint256",
          "name": "nativeTokenUnlockedAmount",
          "type": "uint256"
        },
        {
          "indexed": false,
          "internalType": "uint256",
          "name": "netMinted",
          "type": "uint256"
        }
      ],
      "name": "RequestRemoveLocker",
      "type": "event"
    },
    {
      "anonymous": false,
      "inputs": [
        {
          "indexed": false,
          "internalType": "address",
          "name": "account",
          "type": "address"
        }
      ],
      "name": "Unpaused",
      "type": "event"
    },
    {
      "inputs": [],
      "name": "NATIVE_TOKEN",
      "outputs": [
        {
          "internalType": "address",
          "name": "",
          "type": "address"
        }
      ],
      "stateMutability": "view",
      "type": "function"
    },
    {
      "inputs": [],
      "name": "TeleportDAOToken",
      "outputs": [
        {
          "internalType": "address",
          "name": "",
          "type": "address"
        }
      ],
      "stateMutability": "view",
      "type": "function"
    },
    {
      "inputs": [
        {
          "internalType": "address",
          "name": "_account",
          "type": "address"
        }
      ],
      "name": "addBurner",
      "outputs": [],
      "stateMutability": "nonpayable",
      "type": "function"
    },
    {
      "inputs": [
        {
          "internalType": "address",
          "name": "_lockerTargetAddress",
          "type": "address"
        }
      ],
      "name": "addLocker",
      "outputs": [
        {
          "internalType": "bool",
          "name": "",
          "type": "bool"
        }
      ],
      "stateMutability": "nonpayable",
      "type": "function"
    },
    {
      "inputs": [
        {
          "internalType": "address",
          "name": "_account",
          "type": "address"
        }
      ],
      "name": "addMinter",
      "outputs": [],
      "stateMutability": "nonpayable",
      "type": "function"
    },
    {
      "inputs": [
        {
          "internalType": "bytes",
          "name": "_lockerLockingScript",
          "type": "bytes"
        },
        {
          "internalType": "uint256",
          "name": "_amount",
          "type": "uint256"
        }
      ],
      "name": "burn",
      "outputs": [
        {
          "internalType": "uint256",
          "name": "",
          "type": "uint256"
        }
      ],
      "stateMutability": "nonpayable",
      "type": "function"
    },
    {
      "inputs": [],
      "name": "ccBurnRouter",
      "outputs": [
        {
          "internalType": "address",
          "name": "",
          "type": "address"
        }
      ],
      "stateMutability": "view",
      "type": "function"
    },
    {
      "inputs": [],
      "name": "collateralRatio",
      "outputs": [
        {
          "internalType": "uint256",
          "name": "",
          "type": "uint256"
        }
      ],
      "stateMutability": "view",
      "type": "function"
    },
    {
      "inputs": [],
      "name": "exchangeConnector",
      "outputs": [
        {
          "internalType": "address",
          "name": "",
          "type": "address"
        }
      ],
      "stateMutability": "view",
      "type": "function"
    },
    {
      "inputs": [
        {
          "internalType": "address",
          "name": "_lockerTargetAddress",
          "type": "address"
        }
      ],
      "name": "getLockerCapacity",
      "outputs": [
        {
          "internalType": "uint256",
          "name": "",
          "type": "uint256"
        }
      ],
      "stateMutability": "view",
      "type": "function"
    },
    {
      "inputs": [
        {
          "internalType": "address",
          "name": "_lockerTargetAddress",
          "type": "address"
        }
      ],
      "name": "getLockerLockingScript",
      "outputs": [
        {
          "internalType": "bytes",
          "name": "",
          "type": "bytes"
        }
      ],
      "stateMutability": "view",
      "type": "function"
    },
    {
      "inputs": [
        {
          "internalType": "bytes",
          "name": "_lockerLockingScript",
          "type": "bytes"
        }
      ],
      "name": "getLockerTargetAddress",
      "outputs": [
        {
          "internalType": "address",
          "name": "",
          "type": "address"
        }
      ],
      "stateMutability": "view",
      "type": "function"
    },
    {
      "inputs": [],
      "name": "getNumberOfLockers",
      "outputs": [
        {
          "internalType": "uint256",
          "name": "",
          "type": "uint256"
        }
      ],
      "stateMutability": "view",
      "type": "function"
    },
    {
      "inputs": [
        {
          "internalType": "address",
          "name": "_lockerTargetAddress",
          "type": "address"
        }
      ],
      "name": "isActive",
      "outputs": [
        {
          "internalType": "bool",
          "name": "",
          "type": "bool"
        }
      ],
      "stateMutability": "view",
      "type": "function"
    },
    {
      "inputs": [
        {
          "internalType": "bytes",
          "name": "_lockerLockingScript",
          "type": "bytes"
        }
      ],
      "name": "isLocker",
      "outputs": [
        {
          "internalType": "bool",
          "name": "",
          "type": "bool"
        }
      ],
      "stateMutability": "view",
      "type": "function"
    },
    {
      "inputs": [
        {
          "internalType": "address",
          "name": "_lockerTargetAddress",
          "type": "address"
        },
        {
          "internalType": "uint256",
          "name": "_btcAmount",
          "type": "uint256"
        }
      ],
      "name": "liquidateLocker",
      "outputs": [
        {
          "internalType": "bool",
          "name": "result",
          "type": "bool"
        }
      ],
      "stateMutability": "nonpayable",
      "type": "function"
    },
    {
      "inputs": [],
      "name": "liquidationRatio",
      "outputs": [
        {
          "internalType": "uint256",
          "name": "",
          "type": "uint256"
        }
      ],
      "stateMutability": "view",
      "type": "function"
    },
    {
      "inputs": [
        {
          "internalType": "address",
          "name": "",
          "type": "address"
        }
      ],
      "name": "lockerLeavingAcceptance",
      "outputs": [
        {
          "internalType": "bool",
          "name": "",
          "type": "bool"
        }
      ],
      "stateMutability": "view",
      "type": "function"
    },
    {
      "inputs": [
        {
          "internalType": "address",
          "name": "",
          "type": "address"
        }
      ],
      "name": "lockerLeavingRequests",
      "outputs": [
        {
          "internalType": "bool",
          "name": "",
          "type": "bool"
        }
      ],
      "stateMutability": "view",
      "type": "function"
    },
    {
      "inputs": [],
      "name": "lockerPercentageFee",
      "outputs": [
        {
          "internalType": "uint256",
          "name": "",
          "type": "uint256"
        }
      ],
      "stateMutability": "view",
      "type": "function"
    },
    {
      "inputs": [
        {
          "internalType": "bytes",
          "name": "",
          "type": "bytes"
        }
      ],
      "name": "lockerTargetAddress",
      "outputs": [
        {
          "internalType": "address",
          "name": "",
          "type": "address"
        }
      ],
      "stateMutability": "view",
      "type": "function"
    },
    {
      "inputs": [],
      "name": "lockersLogic",
      "outputs": [
        {
          "internalType": "address",
          "name": "",
          "type": "address"
        }
      ],
      "stateMutability": "view",
      "type": "function"
    },
    {
      "inputs": [
        {
          "internalType": "address",
          "name": "",
          "type": "address"
        }
      ],
      "name": "lockersMapping",
      "outputs": [
        {
          "internalType": "bytes",
          "name": "lockerLockingScript",
          "type": "bytes"
        },
        {
          "internalType": "uint256",
          "name": "TDTLockedAmount",
          "type": "uint256"
        },
        {
          "internalType": "uint256",
          "name": "nativeTokenLockedAmount",
          "type": "uint256"
        },
        {
          "internalType": "uint256",
          "name": "netMinted",
          "type": "uint256"
        },
        {
          "internalType": "bool",
          "name": "isLocker",
          "type": "bool"
        },
        {
          "internalType": "bool",
          "name": "isCandidate",
          "type": "bool"
        },
        {
          "internalType": "bool",
          "name": "isScriptHash",
          "type": "bool"
        },
        {
          "internalType": "bool",
          "name": "isActive",
          "type": "bool"
        }
      ],
      "stateMutability": "view",
      "type": "function"
    },
    {
      "inputs": [],
      "name": "minRequiredTDTLockedAmount",
      "outputs": [
        {
          "internalType": "uint256",
          "name": "",
          "type": "uint256"
        }
      ],
      "stateMutability": "view",
      "type": "function"
    },
    {
      "inputs": [],
      "name": "minRequiredTNTLockedAmount",
      "outputs": [
        {
          "internalType": "uint256",
          "name": "",
          "type": "uint256"
        }
      ],
      "stateMutability": "view",
      "type": "function"
    },
    {
      "inputs": [
        {
          "internalType": "bytes",
          "name": "_lockerLockingScript",
          "type": "bytes"
        },
        {
          "internalType": "address",
          "name": "_receiver",
          "type": "address"
        },
        {
          "internalType": "uint256",
          "name": "_amount",
          "type": "uint256"
        }
      ],
      "name": "mint",
      "outputs": [
        {
          "internalType": "uint256",
          "name": "",
          "type": "uint256"
        }
      ],
      "stateMutability": "nonpayable",
      "type": "function"
    },
    {
      "inputs": [],
      "name": "owner",
      "outputs": [
        {
          "internalType": "address",
          "name": "",
          "type": "address"
        }
      ],
      "stateMutability": "view",
      "type": "function"
    },
    {
      "inputs": [],
      "name": "pauseLocker",
      "outputs": [],
      "stateMutability": "nonpayable",
      "type": "function"
    },
    {
      "inputs": [],
      "name": "paused",
      "outputs": [
        {
          "internalType": "bool",
          "name": "",
          "type": "bool"
        }
      ],
      "stateMutability": "view",
      "type": "function"
    },
    {
      "inputs": [],
      "name": "priceOracle",
      "outputs": [
        {
          "internalType": "address",
          "name": "",
          "type": "address"
        }
      ],
      "stateMutability": "view",
      "type": "function"
    },
    {
      "inputs": [
        {
          "internalType": "address",
          "name": "_account",
          "type": "address"
        }
      ],
      "name": "removeBurner",
      "outputs": [],
      "stateMutability": "nonpayable",
      "type": "function"
    },
    {
      "inputs": [
        {
          "internalType": "address",
          "name": "_lockerTargetAddress",
          "type": "address"
        }
      ],
      "name": "removeLocker",
      "outputs": [
        {
          "internalType": "bool",
          "name": "",
          "type": "bool"
        }
      ],
      "stateMutability": "nonpayable",
      "type": "function"
    },
    {
      "inputs": [
        {
          "internalType": "address",
          "name": "_account",
          "type": "address"
        }
      ],
      "name": "removeMinter",
      "outputs": [],
      "stateMutability": "nonpayable",
      "type": "function"
    },
    {
      "inputs": [],
      "name": "renounceOwnership",
      "outputs": [],
      "stateMutability": "nonpayable",
      "type": "function"
    },
    {
      "inputs": [
        {
          "internalType": "bytes",
          "name": "_candidateLockingScript",
          "type": "bytes"
        },
        {
          "internalType": "uint256",
          "name": "_lockedTDTAmount",
          "type": "uint256"
        },
        {
          "internalType": "uint256",
          "name": "_lockedNativeTokenAmount",
          "type": "uint256"
        }
      ],
      "name": "requestToBecomeLocker",
      "outputs": [
        {
          "internalType": "bool",
          "name": "",
          "type": "bool"
        }
      ],
      "stateMutability": "payable",
      "type": "function"
    },
    {
      "inputs": [],
      "name": "requestToRemoveLocker",
      "outputs": [
        {
          "internalType": "bool",
          "name": "",
          "type": "bool"
        }
      ],
      "stateMutability": "nonpayable",
      "type": "function"
    },
    {
      "inputs": [],
      "name": "revokeRequest",
      "outputs": [
        {
          "internalType": "bool",
          "name": "",
          "type": "bool"
        }
      ],
      "stateMutability": "nonpayable",
      "type": "function"
    },
    {
      "inputs": [],
      "name": "selfRemoveLocker",
      "outputs": [
        {
          "internalType": "bool",
          "name": "",
          "type": "bool"
        }
      ],
      "stateMutability": "nonpayable",
      "type": "function"
    },
    {
      "inputs": [
        {
          "internalType": "address",
          "name": "_ccBurnRouter",
          "type": "address"
        }
      ],
      "name": "setCCBurnRouter",
      "outputs": [],
      "stateMutability": "nonpayable",
      "type": "function"
    },
    {
      "inputs": [
        {
          "internalType": "uint256",
          "name": "_collateralRatio",
          "type": "uint256"
        }
      ],
      "name": "setCollateralRatio",
      "outputs": [],
      "stateMutability": "nonpayable",
      "type": "function"
    },
    {
      "inputs": [
        {
          "internalType": "address",
          "name": "_exchangeConnector",
          "type": "address"
        }
      ],
      "name": "setExchangeConnector",
      "outputs": [],
      "stateMutability": "nonpayable",
      "type": "function"
    },
    {
      "inputs": [
        {
          "internalType": "uint256",
          "name": "_minRequiredTDTLockedAmount",
          "type": "uint256"
        }
      ],
      "name": "setMinRequiredTDTLockedAmount",
      "outputs": [],
      "stateMutability": "nonpayable",
      "type": "function"
    },
    {
      "inputs": [
        {
          "internalType": "uint256",
          "name": "_minRequiredTNTLockedAmount",
          "type": "uint256"
        }
      ],
      "name": "setMinRequiredTNTLockedAmount",
      "outputs": [],
      "stateMutability": "nonpayable",
      "type": "function"
    },
    {
      "inputs": [
        {
          "internalType": "address",
          "name": "_priceOracle",
          "type": "address"
        }
      ],
      "name": "setPriceOracle",
      "outputs": [],
      "stateMutability": "nonpayable",
      "type": "function"
    },
    {
      "inputs": [
        {
          "internalType": "address",
          "name": "_teleBTC",
          "type": "address"
        }
      ],
      "name": "setTeleBTC",
      "outputs": [],
      "stateMutability": "nonpayable",
      "type": "function"
    },
    {
      "inputs": [
        {
          "internalType": "address",
          "name": "_lockerTargetAddress",
          "type": "address"
        },
        {
          "internalType": "uint256",
          "name": "_rewardAmount",
          "type": "uint256"
        },
        {
          "internalType": "address",
          "name": "_rewardRecipient",
          "type": "address"
        },
        {
          "internalType": "uint256",
          "name": "_amount",
          "type": "uint256"
        },
        {
          "internalType": "address",
          "name": "_recipient",
          "type": "address"
        }
      ],
      "name": "slashLocker",
      "outputs": [
        {
          "internalType": "bool",
          "name": "",
          "type": "bool"
        }
      ],
      "stateMutability": "nonpayable",
      "type": "function"
    },
    {
      "inputs": [],
      "name": "teleBTC",
      "outputs": [
        {
          "internalType": "address",
          "name": "",
          "type": "address"
        }
      ],
      "stateMutability": "view",
      "type": "function"
    },
    {
      "inputs": [],
      "name": "totalNumberOfCandidates",
      "outputs": [
        {
          "internalType": "uint256",
          "name": "",
          "type": "uint256"
        }
      ],
      "stateMutability": "view",
      "type": "function"
    },
    {
      "inputs": [],
      "name": "totalNumberOfLockers",
      "outputs": [
        {
          "internalType": "uint256",
          "name": "",
          "type": "uint256"
        }
      ],
      "stateMutability": "view",
      "type": "function"
    },
    {
      "inputs": [
        {
          "internalType": "address",
          "name": "newOwner",
          "type": "address"
        }
      ],
      "name": "transferOwnership",
      "outputs": [],
      "stateMutability": "nonpayable",
      "type": "function"
    },
    {
      "inputs": [],
      "name": "unPauseLocker",
      "outputs": [],
      "stateMutability": "nonpayable",
      "type": "function"
    }
  ],
  "transactionHash": "0x583e207590cafb140d1ed3255ad45de0726f93ee84a6529d1097f8638c90f37a",
  "args": [],
  "numDeployments": 1,
  "solcInputHash": "6f3e3be3e786d78529510e6414d29cbe",
  "bytecode": "0x608060405260d180546001600160a01b031916600117905534801561002357600080fd5b50613e35806100336000396000f3fe6080604052600436106102e45760003560e01c806388aa0a5211610190578063c4d10b6a116100dc578063e955de4511610095578063ef69a7bc1161006f578063ef69a7bc146108d4578063f2fde38b146108e9578063f44637ba14610909578063ffc9f70414610929576102e4565b8063e955de4514610889578063ed110a9c1461089e578063ee1f1c70146108b4576102e4565b8063c4d10b6a146107df578063ca666b84146107ff578063cab1344e14610814578063ce62cd4a14610834578063d5a38a9114610854578063e85501d814610874576102e4565b80639f8a13d711610149578063af1ea79511610123578063af1ea79514610755578063aff2faa314610789578063b4eae1cb146107a9578063c0924b80146107bf576102e4565b80639f8a13d714610702578063a796705f14610722578063a839db2414610735576102e4565b806388aa0a521461064e5780638d3d78cd146106645780638da5cb5b1461068457806396ec39e8146106a2578063983b2d56146106c25780639bf09882146106e2576102e4565b8063530e784f1161024f5780636390802011610208578063715018a6116101e2578063715018a6146105c95780637da5f0da146105de5780637edb79bc1461060e5780637f0f18171461062e576102e4565b8063639080201461057d578063683d178c146105935780636d32395c146105b3576102e4565b8063530e784f146104c35780635a8d80b8146104e35780635c975abb146105035780635d6464ba1461051b5780636060663e14610548578063613e2e1e14610568576102e4565b80633092afd5116102a15780633092afd5146103ec57806331f7d9641461040c57806338463cff1461042c57806341f3ec111461044c57806341fae5791461048d57806345cc5890146104a3576102e4565b806302846858146102e9578063043fd54b1461030b578063108f438d146103505780631775765f146103885780631fcfe19c146103ac5780632630c12f146103cc575b600080fd5b3480156102f557600080fd5b5061030961030436600461361b565b61093e565b005b34801561031757600080fd5b5061033b61032636600461361b565b60d86020526000908152604090205460ff1681565b60405190151581526020015b60405180910390f35b34801561035c57600080fd5b5060cb54610370906001600160a01b031681565b6040516001600160a01b039091168152602001610347565b34801561039457600080fd5b5061039e60d35481565b604051908152602001610347565b3480156103b857600080fd5b5061039e6103c7366004613714565b6109bd565b3480156103d857600080fd5b5060d454610370906001600160a01b031681565b3480156103f857600080fd5b5061030961040736600461361b565b610cd9565b34801561041857600080fd5b5060d154610370906001600160a01b031681565b34801561043857600080fd5b5061039e61044736600461376e565b610d4f565b34801561045857600080fd5b50610370610467366004613807565b805160208183018101805160da825292820191909301209152546001600160a01b031681565b34801561049957600080fd5b5061039e60cf5481565b3480156104af57600080fd5b5061033b6104be36600461361b565b6110a8565b3480156104cf57600080fd5b506103096104de36600461361b565b61128f565b3480156104ef57600080fd5b5060cd54610370906001600160a01b031681565b34801561050f57600080fd5b5060975460ff1661033b565b34801561052757600080fd5b5061053b61053636600461361b565b6112e1565b60405161034791906139ea565b34801561055457600080fd5b506103096105633660046138b1565b6113b4565b34801561057457600080fd5b506103096113c1565b34801561058957600080fd5b5061039e60ca5481565b34801561059f57600080fd5b5061033b6105ae36600461365e565b6113d3565b3480156105bf57600080fd5b5061039e60d05481565b3480156105d557600080fd5b50610309611770565b3480156105ea57600080fd5b5061033b6105f936600461361b565b60d96020526000908152604090205460ff1681565b34801561061a57600080fd5b5060c954610370906001600160a01b031681565b34801561063a57600080fd5b5061030961064936600461361b565b611782565b34801561065a57600080fd5b5061039e60d65481565b34801561067057600080fd5b5060cc54610370906001600160a01b031681565b34801561069057600080fd5b506033546001600160a01b0316610370565b3480156106ae57600080fd5b5061033b6106bd366004613635565b6117d4565b3480156106ce57600080fd5b506103096106dd36600461361b565b611c8f565b3480156106ee57600080fd5b506103096106fd3660046138b1565b611d09565b34801561070e57600080fd5b5061033b61071d36600461361b565b611d16565b61033b6107303660046137b8565b611d69565b34801561074157600080fd5b506103096107503660046138b1565b6121e6565b34801561076157600080fd5b5061077561077036600461361b565b6121f3565b604051610347989796959493929190613a22565b34801561079557600080fd5b5061033b6107a43660046136d4565b6122c9565b3480156107b557600080fd5b5061039e60d25481565b3480156107cb57600080fd5b5060ce54610370906001600160a01b031681565b3480156107eb57600080fd5b506103706107fa3660046136d4565b612317565b34801561080b57600080fd5b5061033b61234c565b34801561082057600080fd5b5061030961082f36600461361b565b61246e565b34801561084057600080fd5b5061033b61084f36600461361b565b6124c0565b34801561086057600080fd5b5061039e61086f36600461361b565b612839565b34801561088057600080fd5b5061033b6128b1565b34801561089557600080fd5b50610309612b34565b3480156108aa57600080fd5b5061039e60d75481565b3480156108c057600080fd5b506103096108cf36600461361b565b612b44565b3480156108e057600080fd5b5060d75461039e565b3480156108f557600080fd5b5061030961090436600461361b565b612b96565b34801561091557600080fd5b5061030961092436600461361b565b612c0f565b34801561093557600080fd5b5061033b612c89565b806001600160a01b03811661096e5760405162461bcd60e51b815260040161096590613c02565b60405180910390fd5b610976612f9e565b61097f82612ff8565b61099b5760405162461bcd60e51b815260040161096590613b0a565b506001600160a01b0316600090815260dc60205260409020805460ff19169055565b6000826001600160a01b0381166109e65760405162461bcd60e51b815260040161096590613c02565b8260008111610a075760405162461bcd60e51b815260040161096590613bd2565b60026065541415610a2a5760405162461bcd60e51b815260040161096590613cca565b6002606555610a37613041565b610a4033613087565b610a8c5760405162461bcd60e51b815260206004820152601e60248201527f4c6f636b6572733a206f6e6c79206d696e746572732063616e206d696e7400006044820152606401610965565b600060da8888604051610aa092919061392c565b908152604051908190036020019020546001600160a01b031690506000610ac682612839565b905085811015610b305760405162461bcd60e51b815260206004820152602f60248201527f4c6f636b6572733a2074686973206c6f636b6572206861736e2774207375666660448201526e696369656e7420636170616369747960881b6064820152608401610965565b6001600160a01b038216600090815260d56020526040902060030154610b57908790613d30565b6001600160a01b038316600090815260d5602052604081206003019190915560ca5461271090610b879089613d68565b610b919190613d48565b90508015610c215760cc546040516340c10f1960e01b81526001600160a01b03858116600483015260248201849052909116906340c10f1990604401602060405180830381600087803b158015610be757600080fd5b505af1158015610bfb573d6000803e3d6000fd5b505050506040513d601f19601f82011682018060405250810190610c1f91906136b4565b505b60cc546001600160a01b03166340c10f1989610c3d848b613d87565b6040516001600160e01b031960e085901b1681526001600160a01b0390921660048301526024820152604401602060405180830381600087803b158015610c8357600080fd5b505af1158015610c97573d6000803e3d6000fd5b505050506040513d601f19601f82011682018060405250810190610cbb91906136b4565b50610cc68188613d87565b60016065559a9950505050505050505050565b806001600160a01b038116610d005760405162461bcd60e51b815260040161096590613c02565b610d08612f9e565b610d1182613087565b610d2d5760405162461bcd60e51b815260040161096590613b0a565b506001600160a01b0316600090815260db60205260409020805460ff19169055565b60008160008111610d725760405162461bcd60e51b815260040161096590613bd2565b60026065541415610d955760405162461bcd60e51b815260040161096590613cca565b6002606555610da2613041565b610dab33612ff8565b610df75760405162461bcd60e51b815260206004820152601e60248201527f4c6f636b6572733a206f6e6c79206275726e6572732063616e206275726e00006044820152606401610965565b600060da8686604051610e0b92919061392c565b9081526040519081900360200190205460cc546001600160a01b039182169250166323b872dd610e383390565b6040516001600160e01b031960e084901b1681526001600160a01b03909116600482015230602482015260448101879052606401602060405180830381600087803b158015610e8657600080fd5b505af1158015610e9a573d6000803e3d6000fd5b505050506040513d601f19601f82011682018060405250810190610ebe91906136b4565b50600061271060ca5486610ed29190613d68565b610edc9190613d48565b90506000610eea8287613d87565b6001600160a01b038416600090815260d5602052604090206003015490915081811015610f6f5760405162461bcd60e51b815260206004820152602d60248201527f4c6f636b6572733a206c6f636b657220646f65736e277420686176652073756660448201526c66696369656e742066756e647360981b6064820152608401610965565b610f798282613d87565b6001600160a01b03858116600090815260d56020526040908190206003019290925560cc549151630852cd8d60e31b8152600481018590529116906342966c6890602401602060405180830381600087803b158015610fd757600080fd5b505af1158015610feb573d6000803e3d6000fd5b505050506040513d601f19601f8201168201806040525081019061100f91906136b4565b5060cc5460405163a9059cbb60e01b81526001600160a01b038681166004830152602482018690529091169063a9059cbb90604401602060405180830381600087803b15801561105e57600080fd5b505af1158015611072573d6000803e3d6000fd5b505050506040513d601f19601f8201168201806040525081019061109691906136b4565b50506001606555979650505050505050565b6000816001600160a01b0381166110d15760405162461bcd60e51b815260040161096590613c02565b600260655414156110f45760405162461bcd60e51b815260040161096590613cca565b6002606555611101612f9e565b6001600160a01b038316600090815260d56020526040902060040154610100900460ff1661117f5760405162461bcd60e51b815260206004820152602560248201527f4c6f636b6572733a206e6f207265717565737420776974682074686973206164604482015264647265737360d81b6064820152608401610965565b6001600160a01b038316600090815260d56020526040902060040180546301000000600161ffff19909216821763ff00000019161790915560d6546111c49190613d87565b60d65560d7546111d5906001613d30565b60d7556001600160a01b038316600090815260d56020526040908190209051849160da91611203919061393c565b908152604080516020928190038301812080546001600160a01b0319166001600160a01b03958616179055928616600081815260d590935291206001810154600282015492937f3840128cd2c146a0ea7739b8440e824c6d2d498ae32274812561d689d751e75e936112789392914290613a73565b60405180910390a260019150506001606555919050565b806001600160a01b0381166112b65760405162461bcd60e51b815260040161096590613c02565b6112be612f9e565b5060d480546001600160a01b0319166001600160a01b0392909216919091179055565b6060816001600160a01b03811661130a5760405162461bcd60e51b815260040161096590613c02565b6001600160a01b038316600090815260d560205260409020805461132d90613d9e565b80601f016020809104026020016040519081016040528092919081815260200182805461135990613d9e565b80156113a65780601f1061137b576101008083540402835291602001916113a6565b820191906000526020600020905b81548152906001019060200180831161138957829003601f168201915b505050505091505b50919050565b6113bc612f9e565b60d255565b6113c9612f9e565b6113d16130d0565b565b6000600260655414156113f85760405162461bcd60e51b815260040161096590613cca565b6002606555611405613041565b60cd546001600160a01b0316331461145f5760405162461bcd60e51b815260206004820152601b60248201527f4c6f636b6572733a2043616c6c65722063616e277420736c61736800000000006044820152606401610965565b6001600160a01b038616600090815260d5602052604090206004015460ff1661149a5760405162461bcd60e51b815260040161096590613c39565b60d4546000906001600160a01b03166316fac92a6114b88689613d30565b60cc5460d15460405160e085901b6001600160e01b03191681526114f593926008926012926001600160a01b039283169290911690600401613d01565b60206040518083038186803b15801561150d57600080fd5b505afa158015611521573d6000803e3d6000fd5b505050506040513d601f19601f8201168201806040525081019061154591906138c9565b6001600160a01b038816600090815260d560205260409020600201549091508111156115c95760405162461bcd60e51b815260206004820152602d60248201527f4c6f636b6572733a20696e73756666696369656e74206e617469766520746f6b60448201526c195b8818dbdb1b185d195c985b609a1b6064820152608401610965565b6001600160a01b038716600090815260d560205260409020600201546115f0908290613d87565b6001600160a01b03808916600090815260d56020526040902060020191909155831630146116c5576001600160a01b0383166108fc61162f8887613d30565b6116398785613d68565b6116439190613d48565b6040518115909202916000818181858888f1935050505015801561166b573d6000803e3d6000fd5b506001600160a01b0385166108fc6116838887613d30565b61168d8985613d68565b6116979190613d48565b6040518115909202916000818181858888f193505050501580156116bf573d6000803e3d6000fd5b5061171a565b6001600160a01b0385166108fc6116dc8887613d30565b6116e68985613d68565b6116f09190613d48565b6040518115909202916000818181858888f19350505050158015611718573d6000803e3d6000fd5b505b866001600160a01b03167f09b1cd8a7b8b86d3143a517bfb6ca74cf5ae9d37fcd80c35e140205e704f553d8260405161175591815260200190565b60405180910390a26001915050600160655595945050505050565b611778612f9e565b6113d16000613122565b806001600160a01b0381166117a95760405162461bcd60e51b815260040161096590613c02565b6117b1612f9e565b5060cc80546001600160a01b0319166001600160a01b0392909216919091179055565b6000826001600160a01b0381166117fd5760405162461bcd60e51b815260040161096590613c02565b826000811161181e5760405162461bcd60e51b815260040161096590613bd2565b600260655414156118415760405162461bcd60e51b815260040161096590613cca565b600260655561184e613041565b6001600160a01b038516600090815260d5602052604090206004015460ff166118895760405162461bcd60e51b815260040161096590613c39565b6001600160a01b038516600090815260d56020526040808220815161010081019092528054829082906118bb90613d9e565b80601f01602080910402602001604051908101604052809291908181526020018280546118e790613d9e565b80156119345780601f1061190957610100808354040283529160200191611934565b820191906000526020600020905b81548152906001019060200180831161191757829003601f168201915b505050918352505060018201546020820152600282015460408201526003820154606082015260049091015460ff8082161515608084015261010082048116151560a08401526201000082048116151560c0840152630100000090910416151560e090910152905060006119a787613174565b90508061271060d35484606001516119bf9190613d68565b6119c99190613d48565b11611a2e5760405162461bcd60e51b815260206004820152602f60248201527f4c6f636b6572733a2074686973206c6f636b65722069732061626f7665206c7560448201526e717569646174696f6e20726174696f60881b6064820152608401610965565b60006127108060d254611a419190613d87565b611a4b9190613d48565b8261271060d2548660600151611a619190613d68565b611a6b9190613d48565b611a759190613d87565b611a7f9190613d48565b90508260600151811115611a94575060608201515b80871115611afc5760405162461bcd60e51b815260206004820152602f60248201527f4c6f636b6572733a2061626f766520746865206c6f636b65722773206c75717560448201526e69646174696f6e2070656e616c747960881b6064820152608401610965565b60cc546001600160a01b03166323b872dd336040516001600160e01b031960e084901b1681526001600160a01b039091166004820152306024820152604481018a9052606401602060405180830381600087803b158015611b5c57600080fd5b505af1158015611b70573d6000803e3d6000fd5b505050506040513d601f19601f82011682018060405250810190611b9491906136b4565b5060d45460cc5460d154604051630b7d649560e11b81526000936001600160a01b03908116936316fac92a93611bdb938e9360089360129390821692911690600401613d01565b60206040518083038186803b158015611bf357600080fd5b505afa158015611c07573d6000803e3d6000fd5b505050506040513d601f19601f82011682018060405250810190611c2b91906138c9565b6001600160a01b038a16600090815260d56020526040902060030154909150611c55908990613d87565b6001600160a01b038a16600090815260d56020526040902060030155611c7b3382613223565b505060016065819055979650505050505050565b806001600160a01b038116611cb65760405162461bcd60e51b815260040161096590613c02565b611cbe612f9e565b611cc782613087565b15611ce45760405162461bcd60e51b815260040161096590613b4d565b506001600160a01b0316600090815260db60205260409020805460ff19166001179055565b611d11612f9e565b60cf55565b6000816001600160a01b038116611d3f5760405162461bcd60e51b815260040161096590613c02565b50506001600160a01b0316600090815260d560205260409020600401546301000000900460ff1690565b600060026065541415611d8e5760405162461bcd60e51b815260040161096590613cca565b600260655533600090815260d56020526040902060040154610100900460ff1615611e075760405162461bcd60e51b8152602060048201526024808201527f4c6f636b6572733a207573657220697320616c726561647920612063616e64696044820152636461746560e01b6064820152608401610965565b33600090815260d5602052604090206004015460ff1615611e745760405162461bcd60e51b815260206004820152602160248201527f4c6f636b6572733a207573657220697320616c72656164792061206c6f636b656044820152603960f91b6064820152608401610965565b60cf54831015611ec65760405162461bcd60e51b815260206004820152601f60248201527f4c6f636b6572733a206c6f77206c6f636b696e672054445420616d6f756e74006044820152606401610965565b60d0548210158015611ed757508134145b611f235760405162461bcd60e51b815260206004820152601f60248201527f4c6f636b6572733a206c6f77206c6f636b696e6720544e5420616d6f756e74006044820152606401610965565b60006001600160a01b031660da8686604051611f4092919061392c565b908152604051908190036020019020546001600160a01b031614611fb95760405162461bcd60e51b815260206004820152602a60248201527f4c6f636b6572733a2072656465656d2073637269707420686173682069732075604482015269736564206265666f726560b01b6064820152608401610965565b60cb546040516323b872dd60e01b8152336004820152306024820152604481018590526001600160a01b03909116906323b872dd90606401602060405180830381600087803b15801561200b57600080fd5b505af115801561201f573d6000803e3d6000fd5b505050506040513d601f19601f8201168201806040525081019061204391906136b4565b61204c57600080fd5b6040805161010081018252606080825260006020830181905292820183905281018290526080810182905260a0810182905260c0810182905260e081019190915285858080601f016020809104026020016040519081016040528093929190818152602001838380828437600092018290525093855250505060208083018690526040808401869052600160a085015233835260d582529091208251805184936120fa9284929101906134ec565b506020820151600180830191909155604083015160028301556060830151600383015560808301516004909201805460a085015160c086015160e090960151151563010000000263ff00000019961515620100000262ff0000199215156101000261ff001997151560ff199095169490941796909616929092171693909317939093169190911790915560d65461219091613d30565b60d65560405133907fe5f7957016a87f9d7bacdd371a516d7f2c5667aa5676c7e07cc8c0bbc6e5067b906121cc908990899089906000906139ab565b60405180910390a260019150506001606555949350505050565b6121ee612f9e565b60d055565b60d56020526000908152604090208054819061220e90613d9e565b80601f016020809104026020016040519081016040528092919081815260200182805461223a90613d9e565b80156122875780601f1061225c57610100808354040283529160200191612287565b820191906000526020600020905b81548152906001019060200180831161226a57829003601f168201915b505050506001830154600284015460038501546004909501549394919390925060ff808216916101008104821691620100008204811691630100000090041688565b600060d5600060da85856040516122e192919061392c565b9081526040805160209281900383019020546001600160a01b0316835290820192909252016000206004015460ff169392505050565b600060da838360405161232b92919061392c565b908152604051908190036020019020546001600160a01b0316905092915050565b6000600260655414156123715760405162461bcd60e51b815260040161096590613cca565b600260655533600090815260d5602052604090206004015460ff166123e25760405162461bcd60e51b815260206004820152602160248201527f4c6f636b6572733a204d73672073656e646572206973206e6f74206c6f636b656044820152603960f91b6064820152608401610965565b33600081815260d56020818152604080842060048101805463ff0000001916905560d8835293819020805460ff1916600190811790915592909152908201546002830154600384015492517f2cf13a17a26f23ac9b786e628031eac7ebf6bb0b34e3f477f340079eb68d9a3e9461245c9490939291613a73565b60405180910390a25060018060655590565b806001600160a01b0381166124955760405162461bcd60e51b815260040161096590613c02565b61249d612f9e565b5060ce80546001600160a01b0319166001600160a01b0392909216919091179055565b6000816001600160a01b0381166124e95760405162461bcd60e51b815260040161096590613c02565b6002606554141561250c5760405162461bcd60e51b815260040161096590613cca565b6002606555612519612f9e565b6001600160a01b038316600090815260d5602052604090206004015460ff166125545760405162461bcd60e51b815260040161096590613b8e565b6001600160a01b038316600090815260d8602052604090205460ff1661258c5760405162461bcd60e51b815260040161096590613c7e565b6001600160a01b038316600090815260d56020526040902060030154156125f55760405162461bcd60e51b815260206004820152601f60248201527f4c6f636b6572733a206e6574206d696e746564206973206e6f74207a65726f006044820152606401610965565b6001600160a01b038316600090815260d560205260408082208151610100810190925280548290829061262790613d9e565b80601f016020809104026020016040519081016040528092919081815260200182805461265390613d9e565b80156126a05780601f10612675576101008083540402835291602001916126a0565b820191906000526020600020905b81548152906001019060200180831161268357829003601f168201915b5050509183525050600182015460208083019190915260028301546040808401919091526003840154606084015260049384015460ff8082161515608086015261010082048116151560a08601526201000082048116151560c0860152630100000090910416151560e09093019290925260cb5490840151915163a9059cbb60e01b81529394506001600160a01b03169263a9059cbb926127599289929091016001600160a01b03929092168252602082015260400190565b602060405180830381600087803b15801561277357600080fd5b505af1158015612787573d6000803e3d6000fd5b505050506040513d601f19601f820116820180604052508101906127ab91906136b4565b506127ba848260400151613223565b6127c384613341565b600160d7546127d29190613d87565b60d781905550836001600160a01b03167f628f3d67160bc1a892a1779c6475e128010a54df63af5dcdbf3c7b06ca5dfa97826000015183602001518460400151604051612821939291906139fd565b60405180910390a26001925050506001606555919050565b6000816001600160a01b0381166128625760405162461bcd60e51b815260040161096590613c02565b6001600160a01b038316600090815260d5602052604090206003015460d25461288a85613174565b61289690612710613d68565b6128a09190613d48565b6128aa9190613d87565b9392505050565b6000600260655414156128d65760405162461bcd60e51b815260040161096590613cca565b600260655533600090815260d56020526040902060040154610100900460ff1661295d5760405162461bcd60e51b815260206004820152603260248201527f4c6f636b6572733a207265717565737420646f65736e2774206578697374206f6044820152711c88185b1c9958591e481858d8d95c1d195960721b6064820152608401610965565b33600090815260d560205260408082208151610100810190925280548290829061298690613d9e565b80601f01602080910402602001604051908101604052809291908181526020018280546129b290613d9e565b80156129ff5780601f106129d4576101008083540402835291602001916129ff565b820191906000526020600020905b8154815290600101906020018083116129e257829003601f168201915b505050918352505060018201546020820152600282015460408201526003820154606082015260049091015460ff8082161515608084015261010082048116151560a08401526201000082048116151560c0840152630100000090910416151560e0909101529050612a70336133f6565b600160d654612a7f9190613d87565b60d65560cb546001600160a01b031663a9059cbb3360208401516040516001600160e01b031960e085901b1681526001600160a01b0390921660048301526024820152604401602060405180830381600087803b158015612adf57600080fd5b505af1158015612af3573d6000803e3d6000fd5b505050506040513d601f19601f82011682018060405250810190612b1791906136b4565b50612b27335b8260400151613223565b6001915050600160655590565b612b3c612f9e565b6113d1613466565b806001600160a01b038116612b6b5760405162461bcd60e51b815260040161096590613c02565b612b73612f9e565b5060cd80546001600160a01b0319166001600160a01b0392909216919091179055565b612b9e612f9e565b6001600160a01b038116612c035760405162461bcd60e51b815260206004820152602660248201527f4f776e61626c653a206e6577206f776e657220697320746865207a65726f206160448201526564647265737360d01b6064820152608401610965565b612c0c81613122565b50565b806001600160a01b038116612c365760405162461bcd60e51b815260040161096590613c02565b612c3e612f9e565b612c4782612ff8565b15612c645760405162461bcd60e51b815260040161096590613b4d565b506001600160a01b0316600090815260dc60205260409020805460ff19166001179055565b600060026065541415612cae5760405162461bcd60e51b815260040161096590613cca565b6002606555612cbb613041565b33600090815260d5602052604090206004015460ff16612ced5760405162461bcd60e51b815260040161096590613b8e565b33600090815260d8602052604090205460ff16612d1c5760405162461bcd60e51b815260040161096590613c7e565b33600090815260d5602052604090206003015415612d7c5760405162461bcd60e51b815260206004820152601f60248201527f4c6f636b6572733a206e6574206d696e746564206973206e6f74207a65726f006044820152606401610965565b33600090815260d5602052604080822081516101008101909252805482908290612da590613d9e565b80601f0160208091040260200160405190810160405280929190818152602001828054612dd190613d9e565b8015612e1e5780601f10612df357610100808354040283529160200191612e1e565b820191906000526020600020905b815481529060010190602001808311612e0157829003601f168201915b505050918352505060018201546020820152600282015460408201526003820154606082015260049091015460ff8082161515608084015261010082048116151560a08401526201000082048116151560c0840152630100000090910416151560e0909101529050612e8f33613341565b600160d754612e9e9190613d87565b60d75560cb546001600160a01b031663a9059cbb3360208401516040516001600160e01b031960e085901b1681526001600160a01b0390921660048301526024820152604401602060405180830381600087803b158015612efe57600080fd5b505af1158015612f12573d6000803e3d6000fd5b505050506040513d601f19601f82011682018060405250810190612f3691906136b4565b50612f4033612b1d565b336001600160a01b03167f628f3d67160bc1a892a1779c6475e128010a54df63af5dcdbf3c7b06ca5dfa97826000015183602001518460400151604051612f89939291906139fd565b60405180910390a26001915050600160655590565b6033546001600160a01b031633146113d15760405162461bcd60e51b815260206004820181905260248201527f4f776e61626c653a2063616c6c6572206973206e6f7420746865206f776e65726044820152606401610965565b6000816001600160a01b0381166130215760405162461bcd60e51b815260040161096590613c02565b50506001600160a01b0316600090815260dc602052604090205460ff1690565b60975460ff16156113d15760405162461bcd60e51b815260206004820152601060248201526f14185d5cd8589b194e881c185d5cd95960821b6044820152606401610965565b6000816001600160a01b0381166130b05760405162461bcd60e51b815260040161096590613c02565b50506001600160a01b0316600090815260db602052604090205460ff1690565b6130d86134a3565b6097805460ff191690557f5db9ee0a495bf2e6ff9c91a7834c1ba4fdd244a5e8aa4e537bd38aeae4b073aa335b6040516001600160a01b03909116815260200160405180910390a1565b603380546001600160a01b038381166001600160a01b0319831681179093556040519116919082907f8be0079c531659141344cd1fd0a4f28419497f9722a3daafe3b4186f6b6457e090600090a35050565b60d4546001600160a01b03828116600090815260d560205260408082206002015460d15460cc549251630b7d649560e11b815293958516946316fac92a946131cb9460129360089390811692911690600401613d01565b60206040518083038186803b1580156131e357600080fd5b505afa1580156131f7573d6000803e3d6000fd5b505050506040513d601f19601f8201168201806040525081019061321b91906138c9565b90505b919050565b804710156132735760405162461bcd60e51b815260206004820152601d60248201527f416464726573733a20696e73756666696369656e742062616c616e63650000006044820152606401610965565b6000826001600160a01b03168260405160006040518083038185875af1925050503d80600081146132c0576040519150601f19603f3d011682016040523d82523d6000602084013e6132c5565b606091505b505090508061333c5760405162461bcd60e51b815260206004820152603a60248201527f416464726573733a20756e61626c6520746f2073656e642076616c75652c207260448201527f6563697069656e74206d617920686176652072657665727465640000000000006064820152608401610965565b505050565b6001600160a01b038116600090815260d5602052604090206004015460ff166133ac5760405162461bcd60e51b815260206004820152601d60248201527f4c6f636b6572733a206c6f636b657220646f65736e27742065786973740000006044820152606401610965565b6001600160a01b038116600090815260d560205260408120906133cf8282613570565b50600060018201819055600282018190556003820155600401805463ffffffff1916905550565b6001600160a01b038116600090815260d56020526040902060040154610100900460ff166133ac5760405162461bcd60e51b815260206004820181905260248201527f4c6f636b6572733a2063616e64696461746520646f65736e27742065786973746044820152606401610965565b61346e613041565b6097805460ff191660011790557f62e78cea01bee320cd4e420270b5ea74000d11b0c9f74754ebdbfc544b05a2586131053390565b60975460ff166113d15760405162461bcd60e51b815260206004820152601460248201527314185d5cd8589b194e881b9bdd081c185d5cd95960621b6044820152606401610965565b8280546134f890613d9e565b90600052602060002090601f01602090048101928261351a5760008555613560565b82601f1061353357805160ff1916838001178555613560565b82800160010185558215613560579182015b82811115613560578251825591602001919060010190613545565b5061356c9291506135a8565b5090565b50805461357c90613d9e565b6000825580601f1061358e5750612c0c565b601f016020900490600052602060002090810190612c0c91905b5b8082111561356c57600081556001016135a9565b80356001600160a01b038116811461321e57600080fd5b60008083601f8401126135e5578081fd5b50813567ffffffffffffffff8111156135fc578182fd5b60208301915083602082850101111561361457600080fd5b9250929050565b60006020828403121561362c578081fd5b6128aa826135bd565b60008060408385031215613647578081fd5b613650836135bd565b946020939093013593505050565b600080600080600060a08688031215613675578081fd5b61367e866135bd565b945060208601359350613693604087016135bd565b9250606086013591506136a8608087016135bd565b90509295509295909350565b6000602082840312156136c5578081fd5b815180151581146128aa578182fd5b600080602083850312156136e6578182fd5b823567ffffffffffffffff8111156136fc578283fd5b613708858286016135d4565b90969095509350505050565b60008060008060608587031215613729578384fd5b843567ffffffffffffffff81111561373f578485fd5b61374b878288016135d4565b909550935061375e9050602086016135bd565b9396929550929360400135925050565b600080600060408486031215613782578283fd5b833567ffffffffffffffff811115613798578384fd5b6137a4868287016135d4565b909790965060209590950135949350505050565b600080600080606085870312156137cd578384fd5b843567ffffffffffffffff8111156137e3578485fd5b6137ef878288016135d4565b90989097506020870135966040013595509350505050565b600060208284031215613818578081fd5b813567ffffffffffffffff8082111561382f578283fd5b818401915084601f830112613842578283fd5b81358181111561385457613854613de9565b604051601f8201601f19908116603f0116810190838211818310171561387c5761387c613de9565b81604052828152876020848701011115613894578586fd5b826020860160208301379182016020019490945295945050505050565b6000602082840312156138c2578081fd5b5035919050565b6000602082840312156138da578081fd5b5051919050565b60008151808452815b81811015613906576020818501810151868301820152016138ea565b818111156139175782602083870101525b50601f01601f19169290920160200192915050565b6000828483379101908152919050565b600080835461394a81613d9e565b6001828116801561396257600181146139735761399f565b60ff1984168752828701945061399f565b8786526020808720875b858110156139965781548a82015290840190820161397d565b50505082870194505b50929695505050505050565b6000606082528460608301528486608084013780608086840101526080601f19601f870116830101905083602083015282604083015295945050505050565b6000602082526128aa60208301846138e1565b600060608252613a1060608301866138e1565b60208301949094525060400152919050565b6000610100808352613a368184018c6138e1565b602084019a909a525050604081019690965260608601949094529115156080850152151560a0840152151560c0830152151560e090910152919050565b600060808252808654613a8581613d9e565b80608086015260a0600180841660008114613aa75760018114613abb57613ae9565b60ff1985168884015260c088019550613ae9565b8b87526020808820885b86811015613ae05781548b8201870152908401908201613ac5565b8a018501975050505b50505050506020830195909552506040810192909252606090910152919050565b60208082526023908201527f4c6f636b6572733a206163636f756e7420646f6573206e6f74206861766520726040820152626f6c6560e81b606082015260800190565b60208082526021908201527f4c6f636b6572733a206163636f756e7420616c72656164792068617320726f6c6040820152606560f81b606082015260800190565b60208082526024908201527f4c6f636b6572733a206e6f206c6f636b657220776974682074686973206164646040820152637265737360e01b606082015260800190565b6020808252601690820152754c6f636b6572733a2076616c7565206973207a65726f60501b604082015260600190565b60208082526018908201527f4c6f636b6572733a2061646472657373206973207a65726f0000000000000000604082015260600190565b60208082526025908201527f4c6f636b6572733a207461726765742061646472657373206973206e6f74206c60408201526437b1b5b2b960d91b606082015260800190565b6020808252602c908201527f4c6f636b6572733a206c6f636b6572206469646e27742072657175657374207460408201526b1bc81899481c995b5bdd995960a21b606082015260800190565b6020808252601f908201527f5265656e7472616e637947756172643a207265656e7472616e742063616c6c00604082015260600190565b948552602085019390935260408401919091526001600160a01b03908116606084015216608082015260a00190565b60008219821115613d4357613d43613dd3565b500190565b600082613d6357634e487b7160e01b81526012600452602481fd5b500490565b6000816000190483118215151615613d8257613d82613dd3565b500290565b600082821015613d9957613d99613dd3565b500390565b600281046001821680613db257607f821691505b602082108114156113ae57634e487b7160e01b600052602260045260246000fd5b634e487b7160e01b600052601160045260246000fd5b634e487b7160e01b600052604160045260246000fdfea26469706673582212206277805c86629863984c5e3df3bc3ce60d8becebd837e4f4a6993decab73772064736f6c63430008020033",
  "devdoc": {
    "kind": "dev",
    "methods": {
      "addBurner(address)": {
        "details": "Give an account access to burn."
      },
      "addLocker(address)": {
        "details": "Only owner can call this",
        "params": {
          "_lockerTargetAddress": "Locker's target chain address"
        },
        "returns": {
          "_0": "True if candidate is added successfully"
        }
      },
      "addMinter(address)": {
        "details": "Give an account access to mint."
      },
      "getLockerCapacity(address)": {
        "details": "Net minted amount is total minted minus total burnt for the locker",
        "params": {
          "_lockerTargetAddress": "Address of locker on the target chain"
        },
        "returns": {
          "_0": "The net minted of the locker"
        }
      },
      "getLockerLockingScript(address)": {
        "details": "@param _lockerTargetAddress         Address of locker on the target chain",
        "returns": {
          "_0": "Bitcoin public key of locker"
        }
      },
      "getNumberOfLockers()": {
        "details": "@return                           Number of lockers"
      },
      "isActive(address)": {
        "details": "An active locker is not in the process of being removed and has enough capacity to mint more tokens (minted - burnt << their collateral)",
        "params": {
          "_lockerTargetAddress": "Address of locker on the target chain"
        },
        "returns": {
          "_0": "True if the locker is active and accepts mint requests"
        }
      },
      "isLocker(bytes)": {
        "details": "@param _lockerTargetAddress       Address of locker on the target chain",
        "returns": {
          "_0": "True if user is locker"
        }
      },
      "owner()": {
        "details": "Returns the address of the current owner."
      },
      "pauseLocker()": {
        "details": "@param"
      },
      "paused()": {
        "details": "Returns true if the contract is paused, and false otherwise."
      },
      "removeBurner(address)": {
        "details": "Remove an account's access to burn."
      },
      "removeLocker(address)": {
        "returns": {
          "_0": "True if locker is removed successfully"
        }
      },
      "removeMinter(address)": {
        "details": "Remove an account's access to mint."
      },
      "renounceOwnership()": {
        "details": "Leaves the contract without owner. It will not be possible to call `onlyOwner` functions anymore. Can only be called by the current owner. NOTE: Renouncing ownership will leave the contract without an owner, thereby removing any functionality that is only available to the owner."
      },
      "requestToBecomeLocker(bytes,uint256,uint256)": {
        "details": "@param _candidateLockingScript         Bitcoin address of the candidate",
        "params": {
          "_lockedNativeTokenAmount": "Bond amount of locker in native token of the target chain",
          "_lockedTDTAmount": "Bond amount of locker in TDT"
        },
        "returns": {
          "_0": "True if candidate is added successfully"
        }
      },
      "requestToRemoveLocker()": {
        "details": "Deactivates the status of the locker so that no one is allowed to send mint requests to this locker. It gives time to the locker to burn the required amount of teleBTC to make itself eligible to be removed.",
        "returns": {
          "_0": "True if deactivated successfully"
        }
      },
      "revokeRequest()": {
        "returns": {
          "_0": "True if candidate is removed successfully"
        }
      },
      "selfRemoveLocker()": {
        "returns": {
          "_0": "True if locker is removed successfully"
        }
      },
      "setCCBurnRouter(address)": {
        "details": "Only current owner can call this",
        "params": {
          "_ccBurnRouter": "The new cc burn router contract address"
        }
      },
      "setCollateralRatio(uint256)": {
        "details": "Only owner can call this",
        "params": {
          "_collateralRatio": "The new collateral ratio"
        }
      },
      "setExchangeConnector(address)": {
        "details": "Only owner can call this",
        "params": {
          "_exchangeConnector": "The new exchange router contract address"
        }
      },
      "setMinRequiredTDTLockedAmount(uint256)": {
        "details": "Only current owner can call this",
        "params": {
          "_minRequiredTDTLockedAmount": "The new required bond amount"
        }
      },
      "setMinRequiredTNTLockedAmount(uint256)": {
        "details": "Only current owner can call this",
        "params": {
          "_minRequiredTNTLockedAmount": "The new required bond amount"
        }
      },
      "setPriceOracle(address)": {
        "details": "Only current owner can call this",
        "params": {
          "_priceOracle": "The new price oracle"
        }
      },
      "setTeleBTC(address)": {
        "details": "Only owner can call this",
        "params": {
          "_teleBTC": "The new wrapped token contract address"
        }
      },
      "slashLocker(address,uint256,address,uint256,address)": {
        "details": "Only cc burn router can call this",
        "params": {
          "_amount": "Amount of teleBTC that is slashed from lockers",
          "_lockerTargetAddress": "Locker's target chain address",
          "_recipient": "Address of user who receives the slashed amount"
        },
        "returns": {
          "_0": "True if lockers are slashed successfully"
        }
      },
      "transferOwnership(address)": {
        "details": "Transfers ownership of the contract to a new account (`newOwner`). Can only be called by the current owner."
      },
      "unPauseLocker()": {
        "details": "@param"
      }
    },
    "version": 1
  },
  "userdoc": {
    "kind": "user",
    "methods": {
      "addLocker(address)": {
        "notice": "Approves a candidate request to become locker"
      },
      "getLockerCapacity(address)": {
        "notice": "Get how much net this locker has minted"
      },
      "getLockerLockingScript(address)": {
        "notice": "Give Bitcoin public key of locker"
      },
      "getNumberOfLockers()": {
        "notice": "Give number of lockers"
      },
      "isActive(address)": {
        "notice": "Tells if a locker is active or not"
      },
      "isLocker(bytes)": {
        "notice": "Checks whether an address is locker"
      },
      "pauseLocker()": {
        "notice": "Pause the locker, so only the functions can be called which are whenPaused"
      },
      "removeLocker(address)": {
        "notice": "Removes a locker from lockers pool"
      },
      "requestToBecomeLocker(bytes,uint256,uint256)": {
        "notice": "Adds user to candidates list"
      },
      "requestToRemoveLocker()": {
        "notice": "Requests to remove a locker from lockers list"
      },
      "revokeRequest()": {
        "notice": "Removes a candidate from candidates list"
      },
      "selfRemoveLocker()": {
        "notice": "Removes a locker from lockers pool"
      },
      "setCCBurnRouter(address)": {
        "notice": "Changes cc burn router contract"
      },
      "setCollateralRatio(uint256)": {
        "notice": "Changes collateral ratio"
      },
      "setExchangeConnector(address)": {
        "notice": "Changes exchange router contract address and updates wrapped avax addresses"
      },
      "setMinRequiredTDTLockedAmount(uint256)": {
        "notice": "Changes the required bond amount to become locker"
      },
      "setMinRequiredTNTLockedAmount(uint256)": {
        "notice": "Changes the required bond amount to become locker"
      },
      "setPriceOracle(address)": {
        "notice": "Changes the price oracle"
      },
      "setTeleBTC(address)": {
        "notice": "Changes wrapped token contract address"
      },
      "slashLocker(address,uint256,address,uint256,address)": {
        "notice": "Slashes lockers"
      },
      "unPauseLocker()": {
        "notice": "Un-pause the locker, so only the functions can be called which are whenNotPaused"
      }
    },
    "version": 1
  },
  "storageLayout": {
    "storage": [
      {
        "astId": 184,
        "contract": "contracts/lockers/LockersLogic.sol:LockersLogic",
        "label": "_initialized",
        "offset": 0,
        "slot": "0",
        "type": "t_uint8"
      },
      {
        "astId": 187,
        "contract": "contracts/lockers/LockersLogic.sol:LockersLogic",
        "label": "_initializing",
        "offset": 1,
        "slot": "0",
        "type": "t_bool"
      },
      {
        "astId": 798,
        "contract": "contracts/lockers/LockersLogic.sol:LockersLogic",
        "label": "__gap",
        "offset": 0,
        "slot": "1",
        "type": "t_array(t_uint256)50_storage"
      },
      {
        "astId": 56,
        "contract": "contracts/lockers/LockersLogic.sol:LockersLogic",
        "label": "_owner",
        "offset": 0,
        "slot": "51",
        "type": "t_address"
      },
      {
        "astId": 176,
        "contract": "contracts/lockers/LockersLogic.sol:LockersLogic",
        "label": "__gap",
        "offset": 0,
        "slot": "52",
        "type": "t_array(t_uint256)49_storage"
      },
      {
        "astId": 469,
        "contract": "contracts/lockers/LockersLogic.sol:LockersLogic",
        "label": "_status",
        "offset": 0,
        "slot": "101",
        "type": "t_uint256"
      },
      {
        "astId": 513,
        "contract": "contracts/lockers/LockersLogic.sol:LockersLogic",
        "label": "__gap",
        "offset": 0,
        "slot": "102",
        "type": "t_array(t_uint256)49_storage"
      },
      {
        "astId": 349,
        "contract": "contracts/lockers/LockersLogic.sol:LockersLogic",
        "label": "_paused",
        "offset": 0,
        "slot": "151",
        "type": "t_bool"
      },
      {
        "astId": 454,
        "contract": "contracts/lockers/LockersLogic.sol:LockersLogic",
        "label": "__gap",
        "offset": 0,
        "slot": "152",
        "type": "t_array(t_uint256)49_storage"
      },
      {
        "astId": 9526,
        "contract": "contracts/lockers/LockersLogic.sol:LockersLogic",
        "label": "lockersLogic",
        "offset": 0,
        "slot": "201",
        "type": "t_address"
      },
      {
        "astId": 9528,
        "contract": "contracts/lockers/LockersLogic.sol:LockersLogic",
        "label": "lockerPercentageFee",
        "offset": 0,
        "slot": "202",
        "type": "t_uint256"
      },
      {
        "astId": 9530,
        "contract": "contracts/lockers/LockersLogic.sol:LockersLogic",
        "label": "TeleportDAOToken",
        "offset": 0,
        "slot": "203",
        "type": "t_address"
      },
      {
        "astId": 9532,
        "contract": "contracts/lockers/LockersLogic.sol:LockersLogic",
        "label": "teleBTC",
        "offset": 0,
        "slot": "204",
        "type": "t_address"
      },
      {
        "astId": 9534,
        "contract": "contracts/lockers/LockersLogic.sol:LockersLogic",
        "label": "ccBurnRouter",
        "offset": 0,
        "slot": "205",
        "type": "t_address"
      },
      {
        "astId": 9536,
        "contract": "contracts/lockers/LockersLogic.sol:LockersLogic",
        "label": "exchangeConnector",
        "offset": 0,
        "slot": "206",
        "type": "t_address"
      },
      {
        "astId": 9538,
        "contract": "contracts/lockers/LockersLogic.sol:LockersLogic",
        "label": "minRequiredTDTLockedAmount",
        "offset": 0,
        "slot": "207",
        "type": "t_uint256"
      },
      {
        "astId": 9540,
        "contract": "contracts/lockers/LockersLogic.sol:LockersLogic",
        "label": "minRequiredTNTLockedAmount",
        "offset": 0,
        "slot": "208",
        "type": "t_uint256"
      },
      {
        "astId": 9546,
        "contract": "contracts/lockers/LockersLogic.sol:LockersLogic",
        "label": "NATIVE_TOKEN",
        "offset": 0,
        "slot": "209",
        "type": "t_address"
      },
      {
        "astId": 9548,
        "contract": "contracts/lockers/LockersLogic.sol:LockersLogic",
        "label": "collateralRatio",
        "offset": 0,
        "slot": "210",
        "type": "t_uint256"
      },
      {
        "astId": 9550,
        "contract": "contracts/lockers/LockersLogic.sol:LockersLogic",
        "label": "liquidationRatio",
        "offset": 0,
        "slot": "211",
        "type": "t_uint256"
      },
      {
        "astId": 9552,
        "contract": "contracts/lockers/LockersLogic.sol:LockersLogic",
        "label": "priceOracle",
        "offset": 0,
        "slot": "212",
        "type": "t_address"
      },
      {
        "astId": 9557,
        "contract": "contracts/lockers/LockersLogic.sol:LockersLogic",
        "label": "lockersMapping",
        "offset": 0,
        "slot": "213",
        "type": "t_mapping(t_address,t_struct(locker)9524_storage)"
      },
      {
        "astId": 9559,
        "contract": "contracts/lockers/LockersLogic.sol:LockersLogic",
        "label": "totalNumberOfCandidates",
        "offset": 0,
        "slot": "214",
        "type": "t_uint256"
      },
      {
        "astId": 9561,
        "contract": "contracts/lockers/LockersLogic.sol:LockersLogic",
        "label": "totalNumberOfLockers",
        "offset": 0,
        "slot": "215",
        "type": "t_uint256"
      },
      {
        "astId": 9565,
        "contract": "contracts/lockers/LockersLogic.sol:LockersLogic",
        "label": "lockerLeavingRequests",
        "offset": 0,
        "slot": "216",
        "type": "t_mapping(t_address,t_bool)"
      },
      {
        "astId": 9569,
        "contract": "contracts/lockers/LockersLogic.sol:LockersLogic",
        "label": "lockerLeavingAcceptance",
        "offset": 0,
        "slot": "217",
        "type": "t_mapping(t_address,t_bool)"
      },
      {
        "astId": 9573,
        "contract": "contracts/lockers/LockersLogic.sol:LockersLogic",
        "label": "lockerTargetAddress",
        "offset": 0,
        "slot": "218",
        "type": "t_mapping(t_bytes_memory_ptr,t_address)"
      },
      {
        "astId": 9577,
        "contract": "contracts/lockers/LockersLogic.sol:LockersLogic",
        "label": "minters",
        "offset": 0,
        "slot": "219",
        "type": "t_mapping(t_address,t_bool)"
      },
      {
        "astId": 9581,
        "contract": "contracts/lockers/LockersLogic.sol:LockersLogic",
        "label": "burners",
        "offset": 0,
        "slot": "220",
        "type": "t_mapping(t_address,t_bool)"
      }
    ],
    "types": {
      "t_address": {
        "encoding": "inplace",
        "label": "address",
        "numberOfBytes": "20"
      },
      "t_array(t_uint256)49_storage": {
        "base": "t_uint256",
        "encoding": "inplace",
        "label": "uint256[49]",
        "numberOfBytes": "1568"
      },
      "t_array(t_uint256)50_storage": {
        "base": "t_uint256",
        "encoding": "inplace",
        "label": "uint256[50]",
        "numberOfBytes": "1600"
      },
      "t_bool": {
        "encoding": "inplace",
        "label": "bool",
        "numberOfBytes": "1"
      },
      "t_bytes_memory_ptr": {
        "encoding": "bytes",
        "label": "bytes",
        "numberOfBytes": "32"
      },
      "t_bytes_storage": {
        "encoding": "bytes",
        "label": "bytes",
        "numberOfBytes": "32"
      },
      "t_mapping(t_address,t_bool)": {
        "encoding": "mapping",
        "key": "t_address",
        "label": "mapping(address => bool)",
        "numberOfBytes": "32",
        "value": "t_bool"
      },
      "t_mapping(t_address,t_struct(locker)9524_storage)": {
        "encoding": "mapping",
        "key": "t_address",
        "label": "mapping(address => struct LockersStorageStructure.locker)",
        "numberOfBytes": "32",
        "value": "t_struct(locker)9524_storage"
      },
      "t_mapping(t_bytes_memory_ptr,t_address)": {
        "encoding": "mapping",
        "key": "t_bytes_memory_ptr",
        "label": "mapping(bytes => address)",
        "numberOfBytes": "32",
        "value": "t_address"
      },
      "t_struct(locker)9524_storage": {
        "encoding": "inplace",
        "label": "struct LockersStorageStructure.locker",
        "members": [
          {
            "astId": 9509,
            "contract": "contracts/lockers/LockersLogic.sol:LockersLogic",
            "label": "lockerLockingScript",
            "offset": 0,
            "slot": "0",
            "type": "t_bytes_storage"
          },
          {
            "astId": 9511,
            "contract": "contracts/lockers/LockersLogic.sol:LockersLogic",
            "label": "TDTLockedAmount",
            "offset": 0,
            "slot": "1",
            "type": "t_uint256"
          },
          {
            "astId": 9513,
            "contract": "contracts/lockers/LockersLogic.sol:LockersLogic",
            "label": "nativeTokenLockedAmount",
            "offset": 0,
            "slot": "2",
            "type": "t_uint256"
          },
          {
            "astId": 9515,
            "contract": "contracts/lockers/LockersLogic.sol:LockersLogic",
            "label": "netMinted",
            "offset": 0,
            "slot": "3",
            "type": "t_uint256"
          },
          {
            "astId": 9517,
            "contract": "contracts/lockers/LockersLogic.sol:LockersLogic",
            "label": "isLocker",
            "offset": 0,
            "slot": "4",
            "type": "t_bool"
          },
          {
            "astId": 9519,
            "contract": "contracts/lockers/LockersLogic.sol:LockersLogic",
            "label": "isCandidate",
            "offset": 1,
            "slot": "4",
            "type": "t_bool"
          },
          {
            "astId": 9521,
            "contract": "contracts/lockers/LockersLogic.sol:LockersLogic",
            "label": "isScriptHash",
            "offset": 2,
            "slot": "4",
            "type": "t_bool"
          },
          {
            "astId": 9523,
            "contract": "contracts/lockers/LockersLogic.sol:LockersLogic",
            "label": "isActive",
            "offset": 3,
            "slot": "4",
            "type": "t_bool"
          }
        ],
        "numberOfBytes": "160"
      },
      "t_uint256": {
        "encoding": "inplace",
        "label": "uint256",
        "numberOfBytes": "32"
      },
      "t_uint8": {
        "encoding": "inplace",
        "label": "uint8",
        "numberOfBytes": "1"
      }
    }
  }
}