{
  "address": "0x0280F676DbCAD652EC3e3672E9EB824ec3A521fF",
  "abi": [
    {
      "inputs": [
        {
          "internalType": "uint256",
          "name": "_acceptableDelay",
          "type": "uint256"
        }
      ],
      "stateMutability": "nonpayable",
      "type": "constructor"
    },
    {
      "anonymous": false,
      "inputs": [
        {
          "indexed": false,
          "internalType": "address",
          "name": "exchangeRouter",
          "type": "address"
        },
        {
          "indexed": false,
          "internalType": "address",
          "name": "exchangeConnector",
          "type": "address"
        }
      ],
      "name": "ExchangeConnectorAdded",
      "type": "event"
    },
    {
      "anonymous": false,
      "inputs": [
        {
          "indexed": false,
          "internalType": "address",
          "name": "exchangeRouter",
          "type": "address"
        }
      ],
      "name": "ExchangeConnectorRemoved",
      "type": "event"
    },
    {
      "anonymous": false,
      "inputs": [
        {
          "indexed": true,
          "internalType": "address",
          "name": "previousOwner",
          "type": "address"
        },
        {
          "indexed": true,
          "internalType": "address",
          "name": "newOwner",
          "type": "address"
        }
      ],
      "name": "OwnershipTransferred",
      "type": "event"
    },
    {
      "anonymous": false,
      "inputs": [
        {
          "indexed": false,
          "internalType": "address",
          "name": "_firstToken",
          "type": "address"
        },
        {
          "indexed": false,
          "internalType": "address",
          "name": "_secondToken",
          "type": "address"
        },
        {
          "indexed": false,
          "internalType": "address",
          "name": "_priceProxyAddress",
          "type": "address"
        }
      ],
      "name": "SetPriceProxy",
      "type": "event"
    },
    {
      "inputs": [
        {
          "internalType": "address",
          "name": "",
          "type": "address"
        },
        {
          "internalType": "address",
          "name": "",
          "type": "address"
        }
      ],
      "name": "ChainlinkPriceProxy",
      "outputs": [
        {
          "internalType": "address",
          "name": "",
          "type": "address"
        }
      ],
      "stateMutability": "view",
      "type": "function"
    },
    {
      "inputs": [],
      "name": "NATIVE_TOKEN",
      "outputs": [
        {
          "internalType": "address",
          "name": "",
          "type": "address"
        }
      ],
      "stateMutability": "view",
      "type": "function"
    },
    {
      "inputs": [],
      "name": "acceptableDelay",
      "outputs": [
        {
          "internalType": "uint256",
          "name": "",
          "type": "uint256"
        }
      ],
      "stateMutability": "view",
      "type": "function"
    },
    {
      "inputs": [
        {
          "internalType": "address",
          "name": "_exchangeRouter",
          "type": "address"
        },
        {
          "internalType": "address",
          "name": "_exchangeConnector",
          "type": "address"
        }
      ],
      "name": "addExchangeConnector",
      "outputs": [],
      "stateMutability": "nonpayable",
      "type": "function"
    },
    {
      "inputs": [
        {
          "internalType": "uint256",
          "name": "_inputAmount",
          "type": "uint256"
        },
        {
          "internalType": "uint256",
          "name": "_inputDecimals",
          "type": "uint256"
        },
        {
          "internalType": "uint256",
          "name": "_outputDecimals",
          "type": "uint256"
        },
        {
          "internalType": "address",
          "name": "_inputToken",
          "type": "address"
        },
        {
          "internalType": "address",
          "name": "_outputToken",
          "type": "address"
        }
      ],
      "name": "equivalentOutputAmount",
      "outputs": [
        {
          "internalType": "uint256",
          "name": "",
          "type": "uint256"
        }
      ],
      "stateMutability": "view",
      "type": "function"
    },
    {
      "inputs": [
        {
          "internalType": "address",
          "name": "_exchangeRouter",
          "type": "address"
        },
        {
          "internalType": "uint256",
          "name": "_inputAmount",
          "type": "uint256"
        },
        {
          "internalType": "address",
          "name": "_inputToken",
          "type": "address"
        },
        {
          "internalType": "address",
          "name": "_outputToken",
          "type": "address"
        }
      ],
      "name": "equivalentOutputAmountFromExchange",
      "outputs": [
        {
          "internalType": "uint256",
          "name": "",
          "type": "uint256"
        }
      ],
      "stateMutability": "view",
      "type": "function"
    },
    {
      "inputs": [
        {
          "internalType": "uint256",
          "name": "_inputAmount",
          "type": "uint256"
        },
        {
          "internalType": "uint256",
          "name": "_inputDecimals",
          "type": "uint256"
        },
        {
          "internalType": "uint256",
          "name": "_outputDecimals",
          "type": "uint256"
        },
        {
          "internalType": "address",
          "name": "_inputToken",
          "type": "address"
        },
        {
          "internalType": "address",
          "name": "_outputToken",
          "type": "address"
        }
      ],
      "name": "equivalentOutputAmountFromOracle",
      "outputs": [
        {
          "internalType": "uint256",
          "name": "_outputAmount",
          "type": "uint256"
        }
      ],
      "stateMutability": "view",
      "type": "function"
    },
    {
      "inputs": [
        {
          "internalType": "address",
          "name": "",
          "type": "address"
        }
      ],
      "name": "exchangeConnector",
      "outputs": [
        {
          "internalType": "address",
          "name": "",
          "type": "address"
        }
      ],
      "stateMutability": "view",
      "type": "function"
    },
    {
      "inputs": [
        {
          "internalType": "uint256",
          "name": "",
          "type": "uint256"
        }
      ],
      "name": "exchangeRoutersList",
      "outputs": [
        {
          "internalType": "address",
          "name": "",
          "type": "address"
        }
      ],
      "stateMutability": "view",
      "type": "function"
    },
    {
      "inputs": [],
      "name": "getExchangeRoutersListLength",
      "outputs": [
        {
          "internalType": "uint256",
          "name": "",
          "type": "uint256"
        }
      ],
      "stateMutability": "view",
      "type": "function"
    },
    {
      "inputs": [],
      "name": "owner",
      "outputs": [
        {
          "internalType": "address",
          "name": "",
          "type": "address"
        }
      ],
      "stateMutability": "view",
      "type": "function"
    },
    {
      "inputs": [
        {
          "internalType": "uint256",
          "name": "_exchangeRouterIndex",
          "type": "uint256"
        }
      ],
      "name": "removeExchangeConnector",
      "outputs": [],
      "stateMutability": "nonpayable",
      "type": "function"
    },
    {
      "inputs": [],
      "name": "renounceOwnership",
      "outputs": [],
      "stateMutability": "nonpayable",
      "type": "function"
    },
    {
      "inputs": [
        {
          "internalType": "uint256",
          "name": "_acceptableDelay",
          "type": "uint256"
        }
      ],
      "name": "setAcceptableDelay",
      "outputs": [],
      "stateMutability": "nonpayable",
      "type": "function"
    },
    {
      "inputs": [
        {
          "internalType": "address",
          "name": "_firstToken",
          "type": "address"
        },
        {
          "internalType": "address",
          "name": "_secondToken",
          "type": "address"
        },
        {
          "internalType": "address",
          "name": "_priceProxyAddress",
          "type": "address"
        }
      ],
      "name": "setPriceProxy",
      "outputs": [],
      "stateMutability": "nonpayable",
      "type": "function"
    },
    {
      "inputs": [
        {
          "internalType": "address",
          "name": "newOwner",
          "type": "address"
        }
      ],
      "name": "transferOwnership",
      "outputs": [],
      "stateMutability": "nonpayable",
      "type": "function"
    }
  ],
  "transactionHash": "0x197e4ab591e9aee48d6154c6b0fa867659e689df0604d334d6ec14d608a530da",
  "args": [
    1000
  ],
  "numDeployments": 1,
  "solcInputHash": "6f3e3be3e786d78529510e6414d29cbe",
  "bytecode": "0x608060405234801561001057600080fd5b506040516115e33803806115e383398101604081905261002f91610090565b61003833610040565b6004556100a8565b600080546001600160a01b038381166001600160a01b0319831681178455604051919092169283917f8be0079c531659141344cd1fd0a4f28419497f9722a3daafe3b4186f6b6457e09190a35050565b6000602082840312156100a1578081fd5b5051919050565b61152c806100b76000396000f3fe608060405234801561001057600080fd5b50600436106101005760003560e01c80638da5cb5b11610097578063e70f330311610066578063e70f33031461022b578063f2e0b6a51461023e578063f2fde38b14610251578063f4fe5e6f1461026457610100565b80638da5cb5b146101cb578063ab440484146101dc578063d86faec7146101ef578063de03d10d1461021857610100565b8063715018a6116100d3578063715018a6146101735780638593c3d01461017b578063862efd4b146101af5780638b2c3c0d146101b857610100565b8063092307da1461010557806316fac92a1461012b5780631d4a7b211461013e57806331f7d96414610153575b600080fd5b610118610113366004611149565b61026c565b6040519081526020015b60405180910390f35b6101186101393660046111e4565b6102f8565b61015161014c3660046111cc565b610413565b005b61015b600181565b6040516001600160a01b039091168152602001610122565b610151610442565b61015b6101893660046110c7565b60016020908152600092835260408084209091529082529020546001600160a01b031681565b61011860045481565b6101516101c63660046110ff565b610478565b6000546001600160a01b031661015b565b6101186101ea3660046111e4565b610523565b61015b6101fd366004611088565b6002602052600090815260409020546001600160a01b031681565b6101516102263660046111cc565b6105a4565b61015b6102393660046111cc565b610670565b61015161024c3660046110c7565b61069a565b61015161025f366004611088565b610760565b600354610118565b600080600061027d878787876107fb565b90925090506001821515146102ee5760405162461bcd60e51b815260206004820152602c60248201527f50726963654f7261636c653a205061697220646f6573206e6f7420657869737460448201526b206f6e2065786368616e676560a01b60648201526084015b60405180910390fd5b9695505050505050565b60008060008061030b8989898989610ada565b919450925090506001831515148015610336575060045461033461032f4284611440565b610ea3565b105b156103455750915061040a9050565b60008080806001871515141561035c575084905060015b60005b6003548110156103e6576103aa6003828154811061038d57634e487b7160e01b600052603260045260246000fd5b6000918252602090912001546001600160a01b03168f8d8d6107fb565b9095509350600185151514156103d4576103c58260016112de565b91506103d184846112de565b92505b806103de81611496565b91505061035f565b50600081116103f6576000610400565b61040081836112f6565b9750505050505050505b95945050505050565b6000546001600160a01b0316331461043d5760405162461bcd60e51b81526004016102e5906112a9565b600455565b6000546001600160a01b0316331461046c5760405162461bcd60e51b81526004016102e5906112a9565b6104766000610ec5565b565b6000546001600160a01b031633146104a25760405162461bcd60e51b81526004016102e5906112a9565b6001600160a01b0383811660008181526001602090815260408083208786168085529083529281902080546001600160a01b03191695871695861790558051938452908301919091528101919091527f6abcc480f7f47354dfac3d61ab87879f4acf371d04837e85d7b977ab6aa2b4e09060600160405180910390a1505050565b6000806105338787878787610ada565b509250905060018115151461059a5760405162461bcd60e51b815260206004820152602760248201527f50726963654f7261636c653a2050726963652070726f787920646f6573206e6f6044820152661d08195e1a5cdd60ca1b60648201526084016102e5565b5095945050505050565b6000546001600160a01b031633146105ce5760405162461bcd60e51b81526004016102e5906112a9565b6000600382815481106105f157634e487b7160e01b600052603260045260246000fd5b6000918252602090912001546001600160a01b0316905061061182610f15565b6001600160a01b03811660008181526002602090815260409182902080546001600160a01b031916905590519182527fd4c309ca8e170bf136bae67942030e0ac2e3992e9ea36936196c38be6d67a47d91015b60405180910390a15050565b6003818154811061068057600080fd5b6000918252602090912001546001600160a01b0316905081565b6000546001600160a01b031633146106c45760405162461bcd60e51b81526004016102e5906112a9565b60038054600181019091557fc2575a0e9e593c00f959f8c92f12db2869c3395a3b0502d05e2516446f71f85b0180546001600160a01b038481166001600160a01b0319928316811790935560008381526002602090815260409182902080549387169390941683179093558051938452918301527f19dd93282347163d78a1e91a8278207144203887305da5724821079ffcc138ad9101610664565b6000546001600160a01b0316331461078a5760405162461bcd60e51b81526004016102e5906112a9565b6001600160a01b0381166107ef5760405162461bcd60e51b815260206004820152602660248201527f4f776e61626c653a206e6577206f776e657220697320746865207a65726f206160448201526564647265737360d01b60648201526084016102e5565b6107f881610ec5565b50565b6000806001600160a01b03841660011415610943576001600160a01b0380871660009081526002602090815260408083205481516317fcb39b60e01b81529151939416926317fcb39b92600480840193919291829003018186803b15801561086257600080fd5b505afa158015610876573d6000803e3d6000fd5b505050506040513d601f19601f8201168201806040525081019061089a91906110ab565b6001600160a01b038881166000908152600260205260409081902054905163df71d7f360e01b8152600481018a905283831660248201528783166044820152929350169063df71d7f3906064015b604080518083038186803b1580156108ff57600080fd5b505afa158015610913573d6000803e3d6000fd5b505050506040513d601f19601f82011682018060405250810190610937919061119b565b9093509150610ad19050565b6001600160a01b03831660011415610a31576001600160a01b0380871660009081526002602090815260408083205481516317fcb39b60e01b81529151939416926317fcb39b92600480840193919291829003018186803b1580156109a757600080fd5b505afa1580156109bb573d6000803e3d6000fd5b505050506040513d601f19601f820116820180604052508101906109df91906110ab565b6001600160a01b038881166000908152600260205260409081902054905163df71d7f360e01b8152600481018a905288831660248201528383166044820152929350169063df71d7f3906064016108e8565b6001600160a01b038681166000908152600260205260409081902054905163df71d7f360e01b8152600481018890528683166024820152858316604482015291169063df71d7f390606401604080518083038186803b158015610a9357600080fd5b505afa158015610aa7573d6000803e3d6000fd5b505050506040513d601f19601f82011682018060405250810190610acb919061119b565b90925090505b94509492505050565b6001600160a01b0382811660009081526001602090815260408083208585168452909152812054909182918291829182911615610cac576001600160a01b0380881660009081526001602090815260408083208a8516845290915290819020548151633fabe5a360e21b8152915192169163feaf968c9160048082019260a092909190829003018186803b158015610b7157600080fd5b505afa158015610b85573d6000803e3d6000fd5b505050506040513d601f19601f82011682018060405250810190610ba99190611239565b506001600160a01b03808c1660009081526001602090815260408083208e8516845282529182902054825163313ce56760e01b81529251949a5095975094909116945063313ce5679360048083019450909291829003018186803b158015610c1057600080fd5b505afa158015610c24573d6000803e3d6000fd5b505050506040513d601f19601f82011682018060405250810190610c489190611288565b60ff169150610c5789836112de565b610c629060016112de565b610c6d90600a611353565b610c788960016112de565b610c8390600a611353565b610c8d8c84611421565b610c979190611421565b610ca191906112f6565b935060019450610e95565b6001600160a01b0386811660009081526001602090815260408083208b851684529091529020541615610e83576001600160a01b0380871660009081526001602090815260408083208b8516845290915290819020548151633fabe5a360e21b8152915192169163feaf968c9160048082019260a092909190829003018186803b158015610d3957600080fd5b505afa158015610d4d573d6000803e3d6000fd5b505050506040513d601f19601f82011682018060405250810190610d719190611239565b506001600160a01b03808b1660009081526001602090815260408083208f8516845282529182902054825163313ce56760e01b81529251949a5095975094909116945063313ce5679360048083019450909291829003018186803b158015610dd857600080fd5b505afa158015610dec573d6000803e3d6000fd5b505050506040513d601f19601f82011682018060405250810190610e109190611288565b60ff16915080610e218a60016112de565b610e2c90600a611353565b600a610e398b60016112de565b610e4490600a611353565b8d610e508760016112de565b610e5b90600a611353565b610e659190611421565b610e6f9190611421565b610e7991906112f6565b610c9791906112f6565b60008060009450945094505050610e98565b50505b955095509592505050565b600080821215610ebb57610eb6826114b1565b610ebd565b815b90505b919050565b600080546001600160a01b038381166001600160a01b0319831681178455604051919092169283917f8be0079c531659141344cd1fd0a4f28419497f9722a3daafe3b4186f6b6457e09190a35050565b6003548110610f715760405162461bcd60e51b815260206004820152602260248201527f50726963654f7261636c653a20496e646578206973206f7574206f6620626f756044820152611b9960f21b60648201526084016102e5565b805b600354610f829060019061147f565b811015611029576003610f968260016112de565b81548110610fb457634e487b7160e01b600052603260045260246000fd5b600091825260209091200154600380546001600160a01b039092169183908110610fee57634e487b7160e01b600052603260045260246000fd5b600091825260209091200180546001600160a01b0319166001600160a01b03929092169190911790558061102181611496565b915050610f73565b50600380548061104957634e487b7160e01b600052603160045260246000fd5b600082815260209020810160001990810180546001600160a01b031916905501905550565b805169ffffffffffffffffffff81168114610ec057600080fd5b600060208284031215611099578081fd5b81356110a4816114e1565b9392505050565b6000602082840312156110bc578081fd5b81516110a4816114e1565b600080604083850312156110d9578081fd5b82356110e4816114e1565b915060208301356110f4816114e1565b809150509250929050565b600080600060608486031215611113578081fd5b833561111e816114e1565b9250602084013561112e816114e1565b9150604084013561113e816114e1565b809150509250925092565b6000806000806080858703121561115e578081fd5b8435611169816114e1565b9350602085013592506040850135611180816114e1565b91506060850135611190816114e1565b939692955090935050565b600080604083850312156111ad578182fd5b825180151581146111bc578283fd5b6020939093015192949293505050565b6000602082840312156111dd578081fd5b5035919050565b600080600080600060a086880312156111fb578081fd5b853594506020860135935060408601359250606086013561121b816114e1565b9150608086013561122b816114e1565b809150509295509295909350565b600080600080600060a08688031215611250578081fd5b6112598661106e565b945060208601519350604086015192506060860151915061127c6080870161106e565b90509295509295909350565b600060208284031215611299578081fd5b815160ff811681146110a4578182fd5b6020808252818101527f4f776e61626c653a2063616c6c6572206973206e6f7420746865206f776e6572604082015260600190565b600082198211156112f1576112f16114cb565b500190565b60008261131157634e487b7160e01b81526012600452602481fd5b500490565b80825b60018086116113285750610ad1565b81870482111561133a5761133a6114cb565b8086161561134757918102915b9490941c938002611319565b60006110a4600019848460008261136c575060016110a4565b81611379575060006110a4565b816001811461138f5760028114611399576113c6565b60019150506110a4565b60ff8411156113aa576113aa6114cb565b6001841b9150848211156113c0576113c06114cb565b506110a4565b5060208310610133831016604e8410600b84101617156113f9575081810a838111156113f4576113f46114cb565b6110a4565b6114068484846001611316565b808604821115611418576114186114cb565b02949350505050565b600081600019048311821515161561143b5761143b6114cb565b500290565b60008083128015600160ff1b85018412161561145e5761145e6114cb565b6001600160ff1b0384018313811615611479576114796114cb565b50500390565b600082821015611491576114916114cb565b500390565b60006000198214156114aa576114aa6114cb565b5060010190565b6000600160ff1b8214156114c7576114c76114cb565b0390565b634e487b7160e01b600052601160045260246000fd5b6001600160a01b03811681146107f857600080fdfea2646970667358221220c6ffe561a21e05870c5c8830699341bda1b1270c7874ca2898fa609418a4627464736f6c63430008020033",
  "devdoc": {
    "kind": "dev",
    "methods": {
      "addExchangeConnector(address,address)": {
        "details": "Only owner can call this",
        "params": {
          "_exchangeConnector": "New exchange connector contract address",
          "_exchangeRouter": "Exchange router contract address"
        }
      },
      "equivalentOutputAmount(uint256,uint256,uint256,address,address)": {
        "params": {
          "_inputAmount": "Amount of the input token",
          "_inputDecimals": "Number of input token decimals",
          "_inputToken": "Address of the input token",
          "_outputDecimals": "Number of output token decimals",
          "_outputToken": "Address of output token"
        },
        "returns": {
          "_0": "Amount of the output token"
        }
      },
      "equivalentOutputAmountFromExchange(address,uint256,address,address)": {
        "params": {
          "_exchangeRouter": "Address of the exchange we are reading the price from",
          "_inputAmount": "Amount of the input token",
          "_inputToken": "Address of the input token",
          "_outputToken": "Address of output token"
        },
        "returns": {
          "_0": "Amount of the output token"
        }
      },
      "equivalentOutputAmountFromOracle(uint256,uint256,uint256,address,address)": {
        "details": "The oracle is ChainLink",
        "params": {
          "_inputAmount": "Amount of the input token",
          "_inputDecimals": "Number of input token decimals",
          "_inputToken": "Address of the input token",
          "_outputDecimals": "Number of output token decimals",
          "_outputToken": "Address of output token"
        },
        "returns": {
          "_outputAmount": "          Amount of the output token"
        }
      },
      "owner()": {
        "details": "Returns the address of the current owner."
      },
      "removeExchangeConnector(uint256)": {
        "details": "Only owner can call this",
        "params": {
          "_exchangeRouterIndex": "The exchange router index in the list"
        }
      },
      "renounceOwnership()": {
        "details": "Leaves the contract without owner. It will not be possible to call `onlyOwner` functions anymore. Can only be called by the current owner. NOTE: Renouncing ownership will leave the contract without an owner, thereby removing any functionality that is only available to the owner."
      },
      "setAcceptableDelay(uint256)": {
        "details": "If oracle data has not been updated for a while, we will get data from exchange routers",
        "params": {
          "_acceptableDelay": "Maximum acceptable delay (in seconds)"
        }
      },
      "setPriceProxy(address,address,address)": {
        "details": "Only owner can call this",
        "params": {
          "_firstToken": "Address of the first token",
          "_priceProxyAddress": "The address of the proxy price",
          "_secondToken": "Address of the second token"
        }
      },
      "transferOwnership(address)": {
        "details": "Transfers ownership of the contract to a new account (`newOwner`). Can only be called by the current owner."
      }
    },
    "stateVariables": {
      "ChainlinkPriceProxy": {
        "params": {
          "_firstToken": "Address of the first token",
          "_secondToken": "Address of the second token"
        },
        "return": "Address of price proxy contract"
      },
      "exchangeConnector": {
        "params": {
          "_exchangeRouter": "Address of exchange router"
        },
        "return": "Address of exchange connector"
      },
      "exchangeRoutersList": {
        "params": {
          "_index": "Index of exchange router"
        },
        "return": "Address of exchange router"
      }
    },
    "version": 1
  },
  "userdoc": {
    "events": {
      "ExchangeConnectorAdded(address,address)": {
        "notice": "Emits when new exchange router is added"
      },
      "ExchangeConnectorRemoved(address)": {
        "notice": "Emits when an exchange router is removed"
      },
      "SetPriceProxy(address,address,address)": {
        "notice": "Emits when a price proxy is set"
      }
    },
    "kind": "user",
    "methods": {
      "ChainlinkPriceProxy(address,address)": {
        "notice": "Gives price proxy address for a pair of tokens"
      },
      "addExchangeConnector(address,address)": {
        "notice": "Adds an exchange connector"
      },
      "equivalentOutputAmount(uint256,uint256,uint256,address,address)": {
        "notice": "Finds amount of output token that has equal value to the input amount of the input token"
      },
      "equivalentOutputAmountFromExchange(address,uint256,address,address)": {
        "notice": "Finds amount of output token that is equal to the input amount of the input token"
      },
      "equivalentOutputAmountFromOracle(uint256,uint256,uint256,address,address)": {
        "notice": "Finds amount of output token that is equal to the input amount of the input token"
      },
      "exchangeConnector(address)": {
        "notice": "Gives exchange connector address for an exchange router"
      },
      "exchangeRoutersList(uint256)": {
        "notice": "Gives address of an exchange router from exchange routers list"
      },
      "getExchangeRoutersListLength()": {
        "notice": "Getter for the length of exchange router list"
      },
      "removeExchangeConnector(uint256)": {
        "notice": "Removes an exchange connector"
      },
      "setAcceptableDelay(uint256)": {
        "notice": "Sets acceptable delay for oracle responses"
      },
      "setPriceProxy(address,address,address)": {
        "notice": "Sets a price proxy for a pair of tokens"
      }
    },
    "version": 1
  },
  "storageLayout": {
    "storage": [
      {
        "astId": 807,
        "contract": "contracts/oracle/PriceOracle.sol:PriceOracle",
        "label": "_owner",
        "offset": 0,
        "slot": "0",
        "type": "t_address"
      },
      {
        "astId": 9838,
        "contract": "contracts/oracle/PriceOracle.sol:PriceOracle",
        "label": "ChainlinkPriceProxy",
        "offset": 0,
        "slot": "1",
        "type": "t_mapping(t_address,t_mapping(t_address,t_address))"
      },
      {
        "astId": 9843,
        "contract": "contracts/oracle/PriceOracle.sol:PriceOracle",
        "label": "exchangeConnector",
        "offset": 0,
        "slot": "2",
        "type": "t_mapping(t_address,t_address)"
      },
      {
        "astId": 9847,
        "contract": "contracts/oracle/PriceOracle.sol:PriceOracle",
        "label": "exchangeRoutersList",
        "offset": 0,
        "slot": "3",
        "type": "t_array(t_address)dyn_storage"
      },
      {
        "astId": 9850,
        "contract": "contracts/oracle/PriceOracle.sol:PriceOracle",
        "label": "acceptableDelay",
        "offset": 0,
        "slot": "4",
        "type": "t_uint256"
      }
    ],
    "types": {
      "t_address": {
        "encoding": "inplace",
        "label": "address",
        "numberOfBytes": "20"
      },
      "t_array(t_address)dyn_storage": {
        "base": "t_address",
        "encoding": "dynamic_array",
        "label": "address[]",
        "numberOfBytes": "32"
      },
      "t_mapping(t_address,t_address)": {
        "encoding": "mapping",
        "key": "t_address",
        "label": "mapping(address => address)",
        "numberOfBytes": "32",
        "value": "t_address"
      },
      "t_mapping(t_address,t_mapping(t_address,t_address))": {
        "encoding": "mapping",
        "key": "t_address",
        "label": "mapping(address => mapping(address => address))",
        "numberOfBytes": "32",
        "value": "t_mapping(t_address,t_address)"
      },
      "t_uint256": {
        "encoding": "inplace",
        "label": "uint256",
        "numberOfBytes": "32"
      }
    }
  }
}