{
  "address": "0x90B38c9cd898691c0AB276B89A617A71E4d0174b",
  "abi": [
    {
      "inputs": [
        {
          "internalType": "string",
          "name": "_name",
          "type": "string"
        },
        {
          "internalType": "address",
          "name": "_exchangeRouter",
          "type": "address"
        },
        {
          "internalType": "address",
          "name": "_wrappedNativeToken",
          "type": "address"
        }
      ],
      "stateMutability": "nonpayable",
      "type": "constructor"
    },
    {
      "anonymous": false,
      "inputs": [
        {
          "indexed": true,
          "internalType": "address",
          "name": "previousOwner",
          "type": "address"
        },
        {
          "indexed": true,
          "internalType": "address",
          "name": "newOwner",
          "type": "address"
        }
      ],
      "name": "OwnershipTransferred",
      "type": "event"
    },
    {
      "anonymous": false,
      "inputs": [
        {
          "indexed": false,
          "internalType": "address[]",
          "name": "path",
          "type": "address[]"
        },
        {
          "indexed": false,
          "internalType": "uint256[]",
          "name": "amounts",
          "type": "uint256[]"
        },
        {
          "indexed": false,
          "internalType": "address",
          "name": "receiver",
          "type": "address"
        }
      ],
      "name": "Swap",
      "type": "event"
    },
    {
      "inputs": [],
      "name": "exchangeRouter",
      "outputs": [
        {
          "internalType": "address",
          "name": "",
          "type": "address"
        }
      ],
      "stateMutability": "view",
      "type": "function"
    },
    {
      "inputs": [
        {
          "internalType": "uint256",
          "name": "_outputAmount",
          "type": "uint256"
        },
        {
          "internalType": "address",
          "name": "_inputToken",
          "type": "address"
        },
        {
          "internalType": "address",
          "name": "_outputToken",
          "type": "address"
        }
      ],
      "name": "getInputAmount",
      "outputs": [
        {
          "internalType": "bool",
          "name": "",
          "type": "bool"
        },
        {
          "internalType": "uint256",
          "name": "",
          "type": "uint256"
        }
      ],
      "stateMutability": "view",
      "type": "function"
    },
    {
      "inputs": [
        {
          "internalType": "uint256",
          "name": "_inputAmount",
          "type": "uint256"
        },
        {
          "internalType": "address",
          "name": "_inputToken",
          "type": "address"
        },
        {
          "internalType": "address",
          "name": "_outputToken",
          "type": "address"
        }
      ],
      "name": "getOutputAmount",
      "outputs": [
        {
          "internalType": "bool",
          "name": "",
          "type": "bool"
        },
        {
          "internalType": "uint256",
          "name": "",
          "type": "uint256"
        }
      ],
      "stateMutability": "view",
      "type": "function"
    },
    {
      "inputs": [
        {
          "internalType": "address[]",
          "name": "_path",
          "type": "address[]"
        }
      ],
      "name": "isPathValid",
      "outputs": [
        {
          "internalType": "bool",
          "name": "_result",
          "type": "bool"
        }
      ],
      "stateMutability": "view",
      "type": "function"
    },
    {
      "inputs": [],
      "name": "liquidityPoolFactory",
      "outputs": [
        {
          "internalType": "address",
          "name": "",
          "type": "address"
        }
      ],
      "stateMutability": "view",
      "type": "function"
    },
    {
      "inputs": [],
      "name": "name",
      "outputs": [
        {
          "internalType": "string",
          "name": "",
          "type": "string"
        }
      ],
      "stateMutability": "view",
      "type": "function"
    },
    {
      "inputs": [],
      "name": "owner",
      "outputs": [
        {
          "internalType": "address",
          "name": "",
          "type": "address"
        }
      ],
      "stateMutability": "view",
      "type": "function"
    },
    {
      "inputs": [],
      "name": "renounceOwnership",
      "outputs": [],
      "stateMutability": "nonpayable",
      "type": "function"
    },
    {
      "inputs": [
        {
          "internalType": "address",
          "name": "_exchangeRouter",
          "type": "address"
        }
      ],
      "name": "setExchangeRouter",
      "outputs": [],
      "stateMutability": "nonpayable",
      "type": "function"
    },
    {
      "inputs": [],
      "name": "setLiquidityPoolFactory",
      "outputs": [],
      "stateMutability": "nonpayable",
      "type": "function"
    },
    {
      "inputs": [
        {
          "internalType": "address",
          "name": "_wrappedNativeToken",
          "type": "address"
        }
      ],
      "name": "setWrappedNativeToken",
      "outputs": [],
      "stateMutability": "nonpayable",
      "type": "function"
    },
    {
      "inputs": [
        {
          "internalType": "uint256",
          "name": "_inputAmount",
          "type": "uint256"
        },
        {
          "internalType": "uint256",
          "name": "_outputAmount",
          "type": "uint256"
        },
        {
          "internalType": "address[]",
          "name": "_path",
          "type": "address[]"
        },
        {
          "internalType": "address",
          "name": "_to",
          "type": "address"
        },
        {
          "internalType": "uint256",
          "name": "_deadline",
          "type": "uint256"
        },
        {
          "internalType": "bool",
          "name": "_isFixedToken",
          "type": "bool"
        }
      ],
      "name": "swap",
      "outputs": [
        {
          "internalType": "bool",
          "name": "_result",
          "type": "bool"
        },
        {
          "internalType": "uint256[]",
          "name": "_amounts",
          "type": "uint256[]"
        }
      ],
      "stateMutability": "nonpayable",
      "type": "function"
    },
    {
      "inputs": [
        {
          "internalType": "address",
          "name": "newOwner",
          "type": "address"
        }
      ],
      "name": "transferOwnership",
      "outputs": [],
      "stateMutability": "nonpayable",
      "type": "function"
    },
    {
      "inputs": [],
      "name": "wrappedNativeToken",
      "outputs": [
        {
          "internalType": "address",
          "name": "",
          "type": "address"
        }
      ],
      "stateMutability": "view",
      "type": "function"
    }
  ],
  "transactionHash": "0x418d649aa9a3ec05747f8872249d4a678a09ef853ed1a2a081b5c231dd3599f4",
  "args": [
    "TheConnector",
    "0x2Aa0bCdfa1D8962828066c0692E61310aB24d77f",
    "0x8847D65ba1F841D7DeEbD9c13303C7AB4e5593bd"
  ],
  "numDeployments": 1,
  "solcInputHash": "e7939e14552e724dbcf98b821fe06d72",
  "bytecode": "0x60806040523480156200001157600080fd5b5060405162001bb238038062001bb2833981016040819052620000349162000260565b6200003f3362000129565b6001805582516200005890600290602086019062000179565b50600380546001600160a01b0319166001600160a01b0384811691909117918290556040805163c45a015560e01b81529051929091169163c45a015591600480820192602092909190829003018186803b158015620000b657600080fd5b505afa158015620000cb573d6000803e3d6000fd5b505050506040513d601f19601f82011682018060405250810190620000f191906200023c565b600480546001600160a01b039283166001600160a01b0319918216179091556005805493909216921691909117905550620003b09050565b600080546001600160a01b038381166001600160a01b0319831681178455604051919092169283917f8be0079c531659141344cd1fd0a4f28419497f9722a3daafe3b4186f6b6457e09190a35050565b82805462000187906200035d565b90600052602060002090601f016020900481019282620001ab5760008555620001f6565b82601f10620001c657805160ff1916838001178555620001f6565b82800160010185558215620001f6579182015b82811115620001f6578251825591602001919060010190620001d9565b506200020492915062000208565b5090565b5b8082111562000204576000815560010162000209565b80516001600160a01b03811681146200023757600080fd5b919050565b6000602082840312156200024e578081fd5b62000259826200021f565b9392505050565b60008060006060848603121562000275578182fd5b83516001600160401b03808211156200028c578384fd5b818601915086601f830112620002a0578384fd5b815181811115620002b557620002b56200039a565b604051601f8201601f19908116603f01168101908382118183101715620002e057620002e06200039a565b81604052828152602093508984848701011115620002fc578687fd5b8691505b828210156200031f578482018401518183018501529083019062000300565b828211156200033057868484830101525b9650620003429150508682016200021f565b9350505062000354604085016200021f565b90509250925092565b6002810460018216806200037257607f821691505b602082108114156200039457634e487b7160e01b600052602260045260246000fd5b50919050565b634e487b7160e01b600052604160045260246000fd5b6117f280620003c06000396000f3fe608060405234801561001057600080fd5b50600436106100ea5760003560e01c80639b4bca241161008c578063da058ae311610066578063da058ae3146101ef578063df71d7f314610202578063e75d75d514610215578063f2fde38b14610228576100ea565b80639b4bca24146101a3578063b0bbcd88146101c6578063b23e4fc6146101e7576100ea565b8063715018a6116100c8578063715018a61461014b578063838b7ccb1461015557806389883074146101685780638da5cb5b14610192576100ea565b806306fdde03146100ef57806317fcb39b1461010d5780631cb8581814610138575b600080fd5b6100f761023b565b60405161010491906115b6565b60405180910390f35b600554610120906001600160a01b031681565b6040516001600160a01b039091168152602001610104565b600354610120906001600160a01b031681565b6101536102c9565b005b610153610163366004611306565b610308565b61017b61017636600461142c565b6103e9565b604080519215158352602083019190915201610104565b6000546001600160a01b0316610120565b6101b66101b1366004611345565b6105ea565b6040519015158152602001610104565b6101d96101d436600461146d565b610747565b60405161010492919061159b565b610153610d37565b6101536101fd366004611306565b610e09565b61017b61021036600461142c565b610e55565b600454610120906001600160a01b031681565b610153610236366004611306565b610fc6565b6002805461024890611717565b80601f016020809104026020016040519081016040528092919081815260200182805461027490611717565b80156102c15780601f10610296576101008083540402835291602001916102c1565b820191906000526020600020905b8154815290600101906020018083116102a457829003601f168201915b505050505081565b6000546001600160a01b031633146102fc5760405162461bcd60e51b81526004016102f390611609565b60405180910390fd5b6103066000611061565b565b6000546001600160a01b031633146103325760405162461bcd60e51b81526004016102f390611609565b600380546001600160a01b0319166001600160a01b0383811691909117918290556040805163c45a015560e01b81529051929091169163c45a015591600480820192602092909190829003018186803b15801561038e57600080fd5b505afa1580156103a2573d6000803e3d6000fd5b505050506040513d601f19601f820116820180604052508101906103c69190611329565b600480546001600160a01b0319166001600160a01b039290921691909117905550565b6004805460405163e6a4390560e01b81526001600160a01b038581169382019390935283831660248201526000928392839291169063e6a439059060440160206040518083038186803b15801561043f57600080fd5b505afa158015610453573d6000803e3d6000fd5b505050506040513d601f19601f820116820180604052508101906104779190611329565b6001600160a01b03161415610491575060009050806105e2565b60408051600280825260608201835260009260208301908036833701905050905084816000815181106104d457634e487b7160e01b600052603260045260246000fd5b60200260200101906001600160a01b031690816001600160a01b031681525050838160018151811061051657634e487b7160e01b600052603260045260246000fd5b6001600160a01b0392831660209182029290920101526003546040516307c0329d60e21b81526000929190911690631f00ca749061055a908a90869060040161163e565b60006040518083038186803b15801561057257600080fd5b505afa158015610586573d6000803e3d6000fd5b505050506040513d6000823e601f3d908101601f191682016040526105ae9190810190611380565b90506001816000815181106105d357634e487b7160e01b600052603260045260246000fd5b60200260200101519350935050505b935093915050565b600080600283511015610601576000915050610742565b60005b600184516106129190611700565b81101561073b5760045484516001600160a01b039091169063e6a439059086908490811061065057634e487b7160e01b600052603260045260246000fd5b60200260200101518684600161066691906116e8565b8151811061068457634e487b7160e01b600052603260045260246000fd5b60200260200101516040518363ffffffff1660e01b81526004016106be9291906001600160a01b0392831681529116602082015260400190565b60206040518083038186803b1580156106d657600080fd5b505afa1580156106ea573d6000803e3d6000fd5b505050506040513d601f19601f8201168201806040525081019061070e9190611329565b91506001600160a01b03821661072957600092505050610742565b8061073381611752565b915050610604565b5060019150505b919050565b600060606002600154141561079e5760405162461bcd60e51b815260206004820152601f60248201527f5265656e7472616e637947756172643a207265656e7472616e742063616c6c0060448201526064016102f3565b600260015560006107b289898988886110b1565b90935090508215610d2557866000815181106107de57634e487b7160e01b600052603260045260246000fd5b60209081029190910101516040516323b872dd60e01b8152336004820152306024820152604481018390526001600160a01b03909116906323b872dd90606401602060405180830381600087803b15801561083857600080fd5b505af115801561084c573d6000803e3d6000fd5b505050506040513d601f19601f820116820180604052508101906108709190611410565b508660008151811061089257634e487b7160e01b600052603260045260246000fd5b602090810291909101015160035460405163095ea7b360e01b81526001600160a01b0391821660048201526024810184905291169063095ea7b390604401602060405180830381600087803b1580156108ea57600080fd5b505af11580156108fe573d6000803e3d6000fd5b505050506040513d601f19601f820116820180604052508101906109229190611410565b508315801561097d575060055487516001600160a01b0390911690889061094b90600190611700565b8151811061096957634e487b7160e01b600052603260045260246000fd5b60200260200101516001600160a01b031614155b15610a1357600354604051634401edf760e11b81526001600160a01b0390911690638803dbee906109ba908b908d908c908c908c90600401611657565b600060405180830381600087803b1580156109d457600080fd5b505af11580156109e8573d6000803e3d6000fd5b505050506040513d6000823e601f3d908101601f19168201604052610a109190810190611380565b91505b83158015610a6c575060055487516001600160a01b03909116908890610a3b90600190611700565b81518110610a5957634e487b7160e01b600052603260045260246000fd5b60200260200101516001600160a01b0316145b15610b0257600354604051632512eca560e11b81526001600160a01b0390911690634a25d94a90610aa9908b908d908c908c908c90600401611657565b600060405180830381600087803b158015610ac357600080fd5b505af1158015610ad7573d6000803e3d6000fd5b505050506040513d6000823e601f3d908101601f19168201604052610aff9190810190611380565b91505b6001841515148015610b60575060055487516001600160a01b03909116908890610b2e90600190611700565b81518110610b4c57634e487b7160e01b600052603260045260246000fd5b60200260200101516001600160a01b031614155b15610bf6576003546040516338ed173960e01b81526001600160a01b03909116906338ed173990610b9d908c908c908c908c908c90600401611657565b600060405180830381600087803b158015610bb757600080fd5b505af1158015610bcb573d6000803e3d6000fd5b505050506040513d6000823e601f3d908101601f19168201604052610bf39190810190611380565b91505b6001841515148015610c53575060055487516001600160a01b03909116908890610c2290600190611700565b81518110610c4057634e487b7160e01b600052603260045260246000fd5b60200260200101516001600160a01b0316145b15610ce9576003546040516318cbafe560e01b81526001600160a01b03909116906318cbafe590610c90908c908c908c908c908c90600401611657565b600060405180830381600087803b158015610caa57600080fd5b505af1158015610cbe573d6000803e3d6000fd5b505050506040513d6000823e601f3d908101601f19168201604052610ce69190810190611380565b91505b7fe1010d0ab476908054981d12fbb96915efcceb8d57a09ae8ca62f4bda7318373878388604051610d1c9392919061155d565b60405180910390a15b50600180559097909650945050505050565b6000546001600160a01b03163314610d615760405162461bcd60e51b81526004016102f390611609565b600360009054906101000a90046001600160a01b03166001600160a01b031663c45a01556040518163ffffffff1660e01b815260040160206040518083038186803b158015610daf57600080fd5b505afa158015610dc3573d6000803e3d6000fd5b505050506040513d601f19601f82011682018060405250810190610de79190611329565b600480546001600160a01b0319166001600160a01b0392909216919091179055565b6000546001600160a01b03163314610e335760405162461bcd60e51b81526004016102f390611609565b600580546001600160a01b0319166001600160a01b0392909216919091179055565b6004805460405163e6a4390560e01b81526001600160a01b038581169382019390935283831660248201526000928392839291169063e6a439059060440160206040518083038186803b158015610eab57600080fd5b505afa158015610ebf573d6000803e3d6000fd5b505050506040513d601f19601f82011682018060405250810190610ee39190611329565b6001600160a01b03161415610efd575060009050806105e2565b6040805160028082526060820183526000926020830190803683370190505090508481600081518110610f4057634e487b7160e01b600052603260045260246000fd5b60200260200101906001600160a01b031690816001600160a01b0316815250508381600181518110610f8257634e487b7160e01b600052603260045260246000fd5b6001600160a01b03928316602091820292909201015260035460405163d06ca61f60e01b8152600092919091169063d06ca61f9061055a908a90869060040161163e565b6000546001600160a01b03163314610ff05760405162461bcd60e51b81526004016102f390611609565b6001600160a01b0381166110555760405162461bcd60e51b815260206004820152602660248201527f4f776e61626c653a206e6577206f776e657220697320746865207a65726f206160448201526564647265737360d01b60648201526084016102f3565b61105e81611061565b50565b600080546001600160a01b038381166001600160a01b0319831681178455604051919092169283917f8be0079c531659141344cd1fd0a4f28419497f9722a3daafe3b4186f6b6457e09190a35050565b600080622222188410156110ca57506000905080611287565b6110d3856105ea565b6110e257506000905080611287565b60035460405163d06ca61f60e01b81526000916001600160a01b03169063d06ca61f90611115908b908a9060040161163e565b60006040518083038186803b15801561112d57600080fd5b505afa158015611141573d6000803e3d6000fd5b505050506040513d6000823e601f3d908101601f191682016040526111699190810190611380565b9050806001875161117a9190611700565b8151811061119857634e487b7160e01b600052603260045260246000fd5b60200260200101518711156111b4576000809250925050611287565b600184151514156111cc576001889250925050611287565b6003546040516307c0329d60e21b81526000916001600160a01b031690631f00ca74906111ff908b908b9060040161163e565b60006040518083038186803b15801561121757600080fd5b505afa15801561122b573d6000803e3d6000fd5b505050506040513d6000823e601f3d908101601f191682016040526112539190810190611380565b905060018160008151811061127857634e487b7160e01b600052603260045260246000fd5b60200260200101519350935050505b9550959350505050565b600082601f8301126112a1578081fd5b813560206112b66112b1836116c4565b611693565b82815281810190858301838502870184018810156112d2578586fd5b855b858110156112f95781356112e781611799565b845292840192908401906001016112d4565b5090979650505050505050565b600060208284031215611317578081fd5b813561132281611799565b9392505050565b60006020828403121561133a578081fd5b815161132281611799565b600060208284031215611356578081fd5b813567ffffffffffffffff81111561136c578182fd5b61137884828501611291565b949350505050565b60006020808385031215611392578182fd5b825167ffffffffffffffff8111156113a8578283fd5b8301601f810185136113b8578283fd5b80516113c66112b1826116c4565b81815283810190838501858402850186018910156113e2578687fd5b8694505b838510156114045780518352600194909401939185019185016113e6565b50979650505050505050565b600060208284031215611421578081fd5b8151611322816117ae565b600080600060608486031215611440578182fd5b83359250602084013561145281611799565b9150604084013561146281611799565b809150509250925092565b60008060008060008060c08789031215611485578182fd5b8635955060208701359450604087013567ffffffffffffffff8111156114a9578283fd5b6114b589828a01611291565b94505060608701356114c681611799565b92506080870135915060a08701356114dd816117ae565b809150509295509295509295565b6000815180845260208085019450808401835b838110156115235781516001600160a01b0316875295820195908201906001016114fe565b509495945050505050565b6000815180845260208085019450808401835b8381101561152357815187529582019590820190600101611541565b60006060825261157060608301866114eb565b8281036020840152611582818661152e565b91505060018060a01b0383166040830152949350505050565b6000831515825260406020830152611378604083018461152e565b6000602080835283518082850152825b818110156115e2578581018301518582016040015282016115c6565b818111156115f35783604083870101525b50601f01601f1916929092016040019392505050565b6020808252818101527f4f776e61626c653a2063616c6c6572206973206e6f7420746865206f776e6572604082015260600190565b60008382526040602083015261137860408301846114eb565b600086825285602083015260a0604083015261167660a08301866114eb565b6001600160a01b0394909416606083015250608001529392505050565b604051601f8201601f1916810167ffffffffffffffff811182821017156116bc576116bc611783565b604052919050565b600067ffffffffffffffff8211156116de576116de611783565b5060209081020190565b600082198211156116fb576116fb61176d565b500190565b6000828210156117125761171261176d565b500390565b60028104600182168061172b57607f821691505b6020821081141561174c57634e487b7160e01b600052602260045260246000fd5b50919050565b60006000198214156117665761176661176d565b5060010190565b634e487b7160e01b600052601160045260246000fd5b634e487b7160e01b600052604160045260246000fd5b6001600160a01b038116811461105e57600080fd5b801515811461105e57600080fdfea26469706673582212204b177a6af65e25868f17246dc9963ccb1c8cd64efee01683ecb176b626ffe2af64736f6c63430008020033",
  "devdoc": {
    "kind": "dev",
    "methods": {
      "constructor": {
        "params": {
          "_exchangeRouter": "Address of the connected exchange",
          "_name": "Name of the connected exchange",
          "_wrappedNativeToken": "Address of the wrapped native token that exchange uses"
        }
      },
      "isPathValid(address[])": {
        "params": {
          "_path": "List of tokens that are used for exchanging"
        }
      },
      "owner()": {
        "details": "Returns the address of the current owner."
      },
      "renounceOwnership()": {
        "details": "Leaves the contract without owner. It will not be possible to call `onlyOwner` functions anymore. Can only be called by the current owner. NOTE: Renouncing ownership will leave the contract without an owner, thereby removing any functionality that is only available to the owner."
      },
      "setExchangeRouter(address)": {
        "details": "Gets address of liquidity pool factory from new exchange router",
        "params": {
          "_exchangeRouter": "Address of the exchange router contract"
        }
      },
      "setLiquidityPoolFactory()": {
        "details": "Gets address from exchange router"
      },
      "setWrappedNativeToken(address)": {
        "params": {
          "_wrappedNativeToken": "Address of the wrapped native token contract"
        }
      },
      "swap(uint256,uint256,address[],address,uint256,bool)": {
        "details": "Checks exchange conditions before exchanging",
        "params": {
          "_deadline": "Deadline of exchanging tokens",
          "_inputAmount": "Amount of input token",
          "_isFixedToken": "True if the first token amount is fixed",
          "_outputAmount": "Amount of output token",
          "_path": "List of tokens that are used for exchanging",
          "_to": "Receiver address"
        },
        "returns": {
          "_amounts": "           Amounts of tokens that are involved in exchanging",
          "_result": "            True if the exchange is successful"
        }
      },
      "transferOwnership(address)": {
        "details": "Transfers ownership of the contract to a new account (`newOwner`). Can only be called by the current owner."
      }
    },
    "version": 1
  },
  "userdoc": {
    "kind": "user",
    "methods": {
      "constructor": {
        "notice": "Setter for exchange router"
      },
      "isPathValid(address[])": {
        "notice": "Returns true if the exchange path is valid"
      },
      "setExchangeRouter(address)": {
        "notice": "Setter for exchange router"
      },
      "setLiquidityPoolFactory()": {
        "notice": "Setter for liquidity pool factory"
      },
      "setWrappedNativeToken(address)": {
        "notice": "Setter for wrapped native token"
      },
      "swap(uint256,uint256,address[],address,uint256,bool)": {
        "notice": "Exchanges input token for output token through exchange router"
      }
    },
    "version": 1
  },
  "storageLayout": {
    "storage": [
      {
        "astId": 807,
        "contract": "contracts/connectors/UniswapV2Connector.sol:UniswapV2Connector",
        "label": "_owner",
        "offset": 0,
        "slot": "0",
        "type": "t_address"
      },
      {
        "astId": 1634,
        "contract": "contracts/connectors/UniswapV2Connector.sol:UniswapV2Connector",
        "label": "_status",
        "offset": 0,
        "slot": "1",
        "type": "t_uint256"
      },
      {
        "astId": 2366,
        "contract": "contracts/connectors/UniswapV2Connector.sol:UniswapV2Connector",
        "label": "name",
        "offset": 0,
        "slot": "2",
        "type": "t_string_storage"
      },
      {
        "astId": 2369,
        "contract": "contracts/connectors/UniswapV2Connector.sol:UniswapV2Connector",
        "label": "exchangeRouter",
        "offset": 0,
        "slot": "3",
        "type": "t_address"
      },
      {
        "astId": 2372,
        "contract": "contracts/connectors/UniswapV2Connector.sol:UniswapV2Connector",
        "label": "liquidityPoolFactory",
        "offset": 0,
        "slot": "4",
        "type": "t_address"
      },
      {
        "astId": 2375,
        "contract": "contracts/connectors/UniswapV2Connector.sol:UniswapV2Connector",
        "label": "wrappedNativeToken",
        "offset": 0,
        "slot": "5",
        "type": "t_address"
      }
    ],
    "types": {
      "t_address": {
        "encoding": "inplace",
        "label": "address",
        "numberOfBytes": "20"
      },
      "t_string_storage": {
        "encoding": "bytes",
        "label": "string",
        "numberOfBytes": "32"
      },
      "t_uint256": {
        "encoding": "inplace",
        "label": "uint256",
        "numberOfBytes": "32"
      }
    }
  }
}