{
  "address": "0x75141817aE14C2d8b8e488e6156bE40E2652cd95",
  "abi": [
    {
      "inputs": [
        {
          "internalType": "string",
          "name": "_name",
          "type": "string"
        },
        {
          "internalType": "address",
          "name": "_exchangeRouter",
          "type": "address"
        },
        {
          "internalType": "address",
          "name": "_wrappedNativeToken",
          "type": "address"
        }
      ],
      "stateMutability": "nonpayable",
      "type": "constructor"
    },
    {
      "anonymous": false,
      "inputs": [
        {
          "indexed": true,
          "internalType": "address",
          "name": "previousOwner",
          "type": "address"
        },
        {
          "indexed": true,
          "internalType": "address",
          "name": "newOwner",
          "type": "address"
        }
      ],
      "name": "OwnershipTransferred",
      "type": "event"
    },
    {
      "anonymous": false,
      "inputs": [
        {
          "indexed": false,
          "internalType": "address[]",
          "name": "path",
          "type": "address[]"
        },
        {
          "indexed": false,
          "internalType": "uint256[]",
          "name": "amounts",
          "type": "uint256[]"
        },
        {
          "indexed": false,
          "internalType": "address",
          "name": "receiver",
          "type": "address"
        }
      ],
      "name": "Swap",
      "type": "event"
    },
    {
      "inputs": [],
      "name": "exchangeRouter",
      "outputs": [
        {
          "internalType": "address",
          "name": "",
          "type": "address"
        }
      ],
      "stateMutability": "view",
      "type": "function"
    },
    {
      "inputs": [
        {
          "internalType": "uint256",
          "name": "_outputAmount",
          "type": "uint256"
        },
        {
          "internalType": "address",
          "name": "_inputToken",
          "type": "address"
        },
        {
          "internalType": "address",
          "name": "_outputToken",
          "type": "address"
        }
      ],
      "name": "getInputAmount",
      "outputs": [
        {
          "internalType": "bool",
          "name": "",
          "type": "bool"
        },
        {
          "internalType": "uint256",
          "name": "",
          "type": "uint256"
        }
      ],
      "stateMutability": "view",
      "type": "function"
    },
    {
      "inputs": [
        {
          "internalType": "uint256",
          "name": "_inputAmount",
          "type": "uint256"
        },
        {
          "internalType": "address",
          "name": "_inputToken",
          "type": "address"
        },
        {
          "internalType": "address",
          "name": "_outputToken",
          "type": "address"
        }
      ],
      "name": "getOutputAmount",
      "outputs": [
        {
          "internalType": "bool",
          "name": "",
          "type": "bool"
        },
        {
          "internalType": "uint256",
          "name": "",
          "type": "uint256"
        }
      ],
      "stateMutability": "view",
      "type": "function"
    },
    {
      "inputs": [],
      "name": "liquidityPoolFactory",
      "outputs": [
        {
          "internalType": "address",
          "name": "",
          "type": "address"
        }
      ],
      "stateMutability": "view",
      "type": "function"
    },
    {
      "inputs": [],
      "name": "name",
      "outputs": [
        {
          "internalType": "string",
          "name": "",
          "type": "string"
        }
      ],
      "stateMutability": "view",
      "type": "function"
    },
    {
      "inputs": [],
      "name": "owner",
      "outputs": [
        {
          "internalType": "address",
          "name": "",
          "type": "address"
        }
      ],
      "stateMutability": "view",
      "type": "function"
    },
    {
      "inputs": [],
      "name": "renounceOwnership",
      "outputs": [],
      "stateMutability": "nonpayable",
      "type": "function"
    },
    {
      "inputs": [
        {
          "internalType": "address",
          "name": "_exchangeRouter",
          "type": "address"
        }
      ],
      "name": "setExchangeRouter",
      "outputs": [],
      "stateMutability": "nonpayable",
      "type": "function"
    },
    {
      "inputs": [],
      "name": "setLiquidityPoolFactory",
      "outputs": [],
      "stateMutability": "nonpayable",
      "type": "function"
    },
    {
      "inputs": [
        {
          "internalType": "address",
          "name": "_wrappedNativeToken",
          "type": "address"
        }
      ],
      "name": "setWrappedNativeToken",
      "outputs": [],
      "stateMutability": "nonpayable",
      "type": "function"
    },
    {
      "inputs": [
        {
          "internalType": "uint256",
          "name": "_inputAmount",
          "type": "uint256"
        },
        {
          "internalType": "uint256",
          "name": "_outputAmount",
          "type": "uint256"
        },
        {
          "internalType": "address[]",
          "name": "_path",
          "type": "address[]"
        },
        {
          "internalType": "address",
          "name": "_to",
          "type": "address"
        },
        {
          "internalType": "uint256",
          "name": "_deadline",
          "type": "uint256"
        },
        {
          "internalType": "bool",
          "name": "_isFixedToken",
          "type": "bool"
        }
      ],
      "name": "swap",
      "outputs": [
        {
          "internalType": "bool",
          "name": "_result",
          "type": "bool"
        },
        {
          "internalType": "uint256[]",
          "name": "_amounts",
          "type": "uint256[]"
        }
      ],
      "stateMutability": "nonpayable",
      "type": "function"
    },
    {
      "inputs": [
        {
          "internalType": "address",
          "name": "newOwner",
          "type": "address"
        }
      ],
      "name": "transferOwnership",
      "outputs": [],
      "stateMutability": "nonpayable",
      "type": "function"
    },
    {
      "inputs": [],
      "name": "wrappedNativeToken",
      "outputs": [
        {
          "internalType": "address",
          "name": "",
          "type": "address"
        }
      ],
      "stateMutability": "view",
      "type": "function"
    }
  ],
  "transactionHash": "0x30d22f382ed2ba1402f2006b5adb0233a9edc277d8051a72558cd5d8ad109a16",
  "args": [
    "TheConnector",
    "0x457AF167f28E57AaFEC0070089E801Daeab8d46b",
    "0x247Cd15A706D567E0543C55E67a30E4A6814e3D0"
  ],
  "numDeployments": 1,
  "solcInputHash": "6f3e3be3e786d78529510e6414d29cbe",
  "bytecode": "0x60806040523480156200001157600080fd5b5060405162001b6f38038062001b6f833981016040819052620000349162000260565b6200003f3362000129565b6001805582516200005890600290602086019062000179565b50600380546001600160a01b0319166001600160a01b0384811691909117918290556040805163c45a015560e01b81529051929091169163c45a015591600480820192602092909190829003018186803b158015620000b657600080fd5b505afa158015620000cb573d6000803e3d6000fd5b505050506040513d601f19601f82011682018060405250810190620000f191906200023c565b600480546001600160a01b039283166001600160a01b0319918216179091556005805493909216921691909117905550620003b09050565b600080546001600160a01b038381166001600160a01b0319831681178455604051919092169283917f8be0079c531659141344cd1fd0a4f28419497f9722a3daafe3b4186f6b6457e09190a35050565b82805462000187906200035d565b90600052602060002090601f016020900481019282620001ab5760008555620001f6565b82601f10620001c657805160ff1916838001178555620001f6565b82800160010185558215620001f6579182015b82811115620001f6578251825591602001919060010190620001d9565b506200020492915062000208565b5090565b5b8082111562000204576000815560010162000209565b80516001600160a01b03811681146200023757600080fd5b919050565b6000602082840312156200024e578081fd5b62000259826200021f565b9392505050565b60008060006060848603121562000275578182fd5b83516001600160401b03808211156200028c578384fd5b818601915086601f830112620002a0578384fd5b815181811115620002b557620002b56200039a565b604051601f8201601f19908116603f01168101908382118183101715620002e057620002e06200039a565b81604052828152602093508984848701011115620002fc578687fd5b8691505b828210156200031f578482018401518183018501529083019062000300565b828211156200033057868484830101525b9650620003429150508682016200021f565b9350505062000354604085016200021f565b90509250925092565b6002810460018216806200037257607f821691505b602082108114156200039457634e487b7160e01b600052602260045260246000fd5b50919050565b634e487b7160e01b600052604160045260246000fd5b6117af80620003c06000396000f3fe608060405234801561001057600080fd5b50600436106100cf5760003560e01c80638da5cb5b1161008c578063da058ae311610066578063da058ae3146101b1578063df71d7f3146101c4578063e75d75d5146101d7578063f2fde38b146101ea576100cf565b80638da5cb5b14610177578063b0bbcd8814610188578063b23e4fc6146101a9576100cf565b806306fdde03146100d457806317fcb39b146100f25780631cb858181461011d578063715018a614610130578063838b7ccb1461013a578063898830741461014d575b600080fd5b6100dc6101fd565b6040516100e991906115b0565b60405180910390f35b600554610105906001600160a01b031681565b6040516001600160a01b0390911681526020016100e9565b600354610105906001600160a01b031681565b61013861028b565b005b610138610148366004611279565b6102ca565b61016061015b3660046113cf565b6103ab565b6040805192151583526020830191909152016100e9565b6000546001600160a01b0316610105565b61019b610196366004611405565b6105ac565b6040516100e992919061158d565b610138610b9c565b6101386101bf366004611279565b610c6e565b6101606101d23660046113cf565b610cba565b600454610105906001600160a01b031681565b6101386101f8366004611279565b610e2b565b6002805461020a90611705565b80601f016020809104026020016040519081016040528092919081815260200182805461023690611705565b80156102835780601f1061025857610100808354040283529160200191610283565b820191906000526020600020905b81548152906001019060200180831161026657829003601f168201915b505050505081565b6000546001600160a01b031633146102be5760405162461bcd60e51b81526004016102b590611603565b60405180910390fd5b6102c86000610ec6565b565b6000546001600160a01b031633146102f45760405162461bcd60e51b81526004016102b590611603565b600380546001600160a01b0319166001600160a01b0383811691909117918290556040805163c45a015560e01b81529051929091169163c45a015591600480820192602092909190829003018186803b15801561035057600080fd5b505afa158015610364573d6000803e3d6000fd5b505050506040513d601f19601f82011682018060405250810190610388919061129c565b600480546001600160a01b0319166001600160a01b039290921691909117905550565b6004805460405163e6a4390560e01b81526001600160a01b038581169382019390935283831660248201526000928392839291169063e6a439059060440160206040518083038186803b15801561040157600080fd5b505afa158015610415573d6000803e3d6000fd5b505050506040513d601f19601f82011682018060405250810190610439919061129c565b6001600160a01b03161415610453575060009050806105a4565b604080516002808252606082018352600092602083019080368337019050509050848160008151811061049657634e487b7160e01b600052603260045260246000fd5b60200260200101906001600160a01b031690816001600160a01b03168152505083816001815181106104d857634e487b7160e01b600052603260045260246000fd5b6001600160a01b0392831660209182029290920101526003546040516307c0329d60e21b81526000929190911690631f00ca749061051c908a908690600401611638565b60006040518083038186803b15801561053457600080fd5b505afa158015610548573d6000803e3d6000fd5b505050506040513d6000823e601f3d908101601f1916820160405261057091908101906112b8565b905060018160008151811061059557634e487b7160e01b600052603260045260246000fd5b60200260200101519350935050505b935093915050565b60006060600260015414156106035760405162461bcd60e51b815260206004820152601f60248201527f5265656e7472616e637947756172643a207265656e7472616e742063616c6c0060448201526064016102b5565b600260015560006106178989898888610f16565b90935090508215610b8a578660008151811061064357634e487b7160e01b600052603260045260246000fd5b60209081029190910101516040516323b872dd60e01b8152336004820152306024820152604481018390526001600160a01b03909116906323b872dd90606401602060405180830381600087803b15801561069d57600080fd5b505af11580156106b1573d6000803e3d6000fd5b505050506040513d601f19601f820116820180604052508101906106d5919061134d565b50866000815181106106f757634e487b7160e01b600052603260045260246000fd5b602090810291909101015160035460405163095ea7b360e01b81526001600160a01b0391821660048201526024810184905291169063095ea7b390604401602060405180830381600087803b15801561074f57600080fd5b505af1158015610763573d6000803e3d6000fd5b505050506040513d601f19601f82011682018060405250810190610787919061134d565b50831580156107e2575060055487516001600160a01b039091169088906107b0906001906116e2565b815181106107ce57634e487b7160e01b600052603260045260246000fd5b60200260200101516001600160a01b031614155b1561087857600354604051634401edf760e11b81526001600160a01b0390911690638803dbee9061081f908b908d908c908c908c90600401611651565b600060405180830381600087803b15801561083957600080fd5b505af115801561084d573d6000803e3d6000fd5b505050506040513d6000823e601f3d908101601f1916820160405261087591908101906112b8565b91505b831580156108d1575060055487516001600160a01b039091169088906108a0906001906116e2565b815181106108be57634e487b7160e01b600052603260045260246000fd5b60200260200101516001600160a01b0316145b1561096757600354604051632512eca560e11b81526001600160a01b0390911690634a25d94a9061090e908b908d908c908c908c90600401611651565b600060405180830381600087803b15801561092857600080fd5b505af115801561093c573d6000803e3d6000fd5b505050506040513d6000823e601f3d908101601f1916820160405261096491908101906112b8565b91505b60018415151480156109c5575060055487516001600160a01b03909116908890610993906001906116e2565b815181106109b157634e487b7160e01b600052603260045260246000fd5b60200260200101516001600160a01b031614155b15610a5b576003546040516338ed173960e01b81526001600160a01b03909116906338ed173990610a02908c908c908c908c908c90600401611651565b600060405180830381600087803b158015610a1c57600080fd5b505af1158015610a30573d6000803e3d6000fd5b505050506040513d6000823e601f3d908101601f19168201604052610a5891908101906112b8565b91505b6001841515148015610ab8575060055487516001600160a01b03909116908890610a87906001906116e2565b81518110610aa557634e487b7160e01b600052603260045260246000fd5b60200260200101516001600160a01b0316145b15610b4e576003546040516318cbafe560e01b81526001600160a01b03909116906318cbafe590610af5908c908c908c908c908c90600401611651565b600060405180830381600087803b158015610b0f57600080fd5b505af1158015610b23573d6000803e3d6000fd5b505050506040513d6000823e601f3d908101601f19168201604052610b4b91908101906112b8565b91505b7fe1010d0ab476908054981d12fbb96915efcceb8d57a09ae8ca62f4bda7318373878388604051610b819392919061154f565b60405180910390a15b50600180559097909650945050505050565b6000546001600160a01b03163314610bc65760405162461bcd60e51b81526004016102b590611603565b600360009054906101000a90046001600160a01b03166001600160a01b031663c45a01556040518163ffffffff1660e01b815260040160206040518083038186803b158015610c1457600080fd5b505afa158015610c28573d6000803e3d6000fd5b505050506040513d601f19601f82011682018060405250810190610c4c919061129c565b600480546001600160a01b0319166001600160a01b0392909216919091179055565b6000546001600160a01b03163314610c985760405162461bcd60e51b81526004016102b590611603565b600580546001600160a01b0319166001600160a01b0392909216919091179055565b6004805460405163e6a4390560e01b81526001600160a01b038581169382019390935283831660248201526000928392839291169063e6a439059060440160206040518083038186803b158015610d1057600080fd5b505afa158015610d24573d6000803e3d6000fd5b505050506040513d601f19601f82011682018060405250810190610d48919061129c565b6001600160a01b03161415610d62575060009050806105a4565b6040805160028082526060820183526000926020830190803683370190505090508481600081518110610da557634e487b7160e01b600052603260045260246000fd5b60200260200101906001600160a01b031690816001600160a01b0316815250508381600181518110610de757634e487b7160e01b600052603260045260246000fd5b6001600160a01b03928316602091820292909201015260035460405163d06ca61f60e01b8152600092919091169063d06ca61f9061051c908a908690600401611638565b6000546001600160a01b03163314610e555760405162461bcd60e51b81526004016102b590611603565b6001600160a01b038116610eba5760405162461bcd60e51b815260206004820152602660248201527f4f776e61626c653a206e6577206f776e657220697320746865207a65726f206160448201526564647265737360d01b60648201526084016102b5565b610ec381610ec6565b50565b600080546001600160a01b038381166001600160a01b0319831681178455604051919092169283917f8be0079c531659141344cd1fd0a4f28419497f9722a3daafe3b4186f6b6457e09190a35050565b60008062222218841015610f2f5750600090508061123d565b60045485516000916001600160a01b03169063e6a439059088908490610f6557634e487b7160e01b600052603260045260246000fd5b60200260200101518860018a51610f7c91906116e2565b81518110610f9a57634e487b7160e01b600052603260045260246000fd5b60200260200101516040518363ffffffff1660e01b8152600401610fd49291906001600160a01b0392831681529116602082015260400190565b60206040518083038186803b158015610fec57600080fd5b505afa158015611000573d6000803e3d6000fd5b505050506040513d601f19601f82011682018060405250810190611024919061129c565b90506001600160a01b03811661104157600080925092505061123d565b600080826001600160a01b0316630902f1ac6040518163ffffffff1660e01b815260040160606040518083038186803b15801561107d57600080fd5b505afa158015611091573d6000803e3d6000fd5b505050506040513d601f19601f820116820180604052508101906110b59190611369565b506001600160701b031691506001600160701b03169150808911156110e3576000809450945050505061123d565b85611194576003546040516385f8c25960e01b8152600481018b905260248101849052604481018390526000916001600160a01b0316906385f8c2599060640160206040518083038186803b15801561113b57600080fd5b505afa15801561114f573d6000803e3d6000fd5b505050506040513d601f19601f8201168201806040525081019061117391906113b7565b9050808b1015611184576000611187565b60015b9550935061123d92505050565b600354604051630153543560e21b8152600481018c905260248101849052604481018390526000916001600160a01b03169063054d50d49060640160206040518083038186803b1580156111e757600080fd5b505afa1580156111fb573d6000803e3d6000fd5b505050506040513d601f19601f8201168201806040525081019061121f91906113b7565b905089811015611230576000611233565b60015b8b95509550505050505b9550959350505050565b803561125281611756565b919050565b80356112528161176b565b80516001600160701b038116811461125257600080fd5b60006020828403121561128a578081fd5b813561129581611756565b9392505050565b6000602082840312156112ad578081fd5b815161129581611756565b600060208083850312156112ca578182fd5b825167ffffffffffffffff8111156112e0578283fd5b8301601f810185136112f0578283fd5b80516113036112fe826116be565b61168d565b818152838101908385018584028501860189101561131f578687fd5b8694505b83851015611341578051835260019490940193918501918501611323565b50979650505050505050565b60006020828403121561135e578081fd5b81516112958161176b565b60008060006060848603121561137d578182fd5b61138684611262565b925061139460208501611262565b9150604084015163ffffffff811681146113ac578182fd5b809150509250925092565b6000602082840312156113c8578081fd5b5051919050565b6000806000606084860312156113e3578283fd5b8335925060208401356113f581611756565b915060408401356113ac81611756565b60008060008060008060c0878903121561141d578182fd5b863595506020808801359550604088013567ffffffffffffffff811115611442578384fd5b8801601f81018a13611452578384fd5b80356114606112fe826116be565b81815283810190838501858402850186018e101561147c578788fd5b8794505b838510156114a757803561149381611756565b835260019490940193918501918501611480565b5080985050505050506114bc60608801611247565b9250608087013591506114d160a08801611257565b90509295509295509295565b6000815180845260208085019450808401835b838110156115155781516001600160a01b0316875295820195908201906001016114f0565b509495945050505050565b6000815180845260208085019450808401835b8381101561151557815187529582019590820190600101611533565b60006060825261156260608301866114dd565b82810360208401526115748186611520565b91505060018060a01b0383166040830152949350505050565b60008315158252604060208301526115a86040830184611520565b949350505050565b6000602080835283518082850152825b818110156115dc578581018301518582016040015282016115c0565b818111156115ed5783604083870101525b50601f01601f1916929092016040019392505050565b6020808252818101527f4f776e61626c653a2063616c6c6572206973206e6f7420746865206f776e6572604082015260600190565b6000838252604060208301526115a860408301846114dd565b600086825285602083015260a0604083015261167060a08301866114dd565b6001600160a01b0394909416606083015250608001529392505050565b604051601f8201601f1916810167ffffffffffffffff811182821017156116b6576116b6611740565b604052919050565b600067ffffffffffffffff8211156116d8576116d8611740565b5060209081020190565b60008282101561170057634e487b7160e01b81526011600452602481fd5b500390565b60028104600182168061171957607f821691505b6020821081141561173a57634e487b7160e01b600052602260045260246000fd5b50919050565b634e487b7160e01b600052604160045260246000fd5b6001600160a01b0381168114610ec357600080fd5b8015158114610ec357600080fdfea26469706673582212206d000abdc7398234fe258c896eb3f1e2b8403113167ad5861d6a0672a7e812f964736f6c63430008020033",
  "devdoc": {
    "kind": "dev",
    "methods": {
      "constructor": {
        "params": {
          "_exchangeRouter": "Address of the connected exchange",
          "_name": "Name of the connected exchange",
          "_wrappedNativeToken": "Address of the wrapped native token that exchange uses"
        }
      },
      "owner()": {
        "details": "Returns the address of the current owner."
      },
      "renounceOwnership()": {
        "details": "Leaves the contract without owner. It will not be possible to call `onlyOwner` functions anymore. Can only be called by the current owner. NOTE: Renouncing ownership will leave the contract without an owner, thereby removing any functionality that is only available to the owner."
      },
      "setExchangeRouter(address)": {
        "details": "Gets address of liquidity pool factory from new exchange router",
        "params": {
          "_exchangeRouter": "Address of the exchange router contract"
        }
      },
      "setLiquidityPoolFactory()": {
        "details": "Gets address from exchange router"
      },
      "setWrappedNativeToken(address)": {
        "params": {
          "_wrappedNativeToken": "Address of the wrapped native token contract"
        }
      },
      "swap(uint256,uint256,address[],address,uint256,bool)": {
        "details": "Checks exchange conditions before exchanging",
        "params": {
          "_deadline": "Deadline of exchanging tokens",
          "_inputAmount": "Amount of input token",
          "_isFixedToken": "True if the first token amount is fixed",
          "_outputAmount": "Amount of output token",
          "_path": "List of tokens that are used for exchanging",
          "_to": "Receiver address"
        },
        "returns": {
          "_amounts": "           Amounts of tokens that are involved in exchanging",
          "_result": "            True if the exchange is successful"
        }
      },
      "transferOwnership(address)": {
        "details": "Transfers ownership of the contract to a new account (`newOwner`). Can only be called by the current owner."
      }
    },
    "version": 1
  },
  "userdoc": {
    "kind": "user",
    "methods": {
      "constructor": {
        "notice": "Setter for exchange router"
      },
      "setExchangeRouter(address)": {
        "notice": "Setter for exchange router"
      },
      "setLiquidityPoolFactory()": {
        "notice": "Setter for liquidity pool factory"
      },
      "setWrappedNativeToken(address)": {
        "notice": "Setter for wrapped native token"
      },
      "swap(uint256,uint256,address[],address,uint256,bool)": {
        "notice": "Exchanges input token for output token through exchange router"
      }
    },
    "version": 1
  },
  "storageLayout": {
    "storage": [
      {
        "astId": 807,
        "contract": "contracts/connectors/UniswapV2Connector.sol:UniswapV2Connector",
        "label": "_owner",
        "offset": 0,
        "slot": "0",
        "type": "t_address"
      },
      {
        "astId": 1006,
        "contract": "contracts/connectors/UniswapV2Connector.sol:UniswapV2Connector",
        "label": "_status",
        "offset": 0,
        "slot": "1",
        "type": "t_uint256"
      },
      {
        "astId": 1678,
        "contract": "contracts/connectors/UniswapV2Connector.sol:UniswapV2Connector",
        "label": "name",
        "offset": 0,
        "slot": "2",
        "type": "t_string_storage"
      },
      {
        "astId": 1681,
        "contract": "contracts/connectors/UniswapV2Connector.sol:UniswapV2Connector",
        "label": "exchangeRouter",
        "offset": 0,
        "slot": "3",
        "type": "t_address"
      },
      {
        "astId": 1684,
        "contract": "contracts/connectors/UniswapV2Connector.sol:UniswapV2Connector",
        "label": "liquidityPoolFactory",
        "offset": 0,
        "slot": "4",
        "type": "t_address"
      },
      {
        "astId": 1687,
        "contract": "contracts/connectors/UniswapV2Connector.sol:UniswapV2Connector",
        "label": "wrappedNativeToken",
        "offset": 0,
        "slot": "5",
        "type": "t_address"
      }
    ],
    "types": {
      "t_address": {
        "encoding": "inplace",
        "label": "address",
        "numberOfBytes": "20"
      },
      "t_string_storage": {
        "encoding": "bytes",
        "label": "string",
        "numberOfBytes": "32"
      },
      "t_uint256": {
        "encoding": "inplace",
        "label": "uint256",
        "numberOfBytes": "32"
      }
    }
  }
}