{
  "address": "0xd5bF663A5862333282B45636c2d76050f27eEEeF",
  "abi": [
    {
      "inputs": [
        {
          "internalType": "bytes4",
          "name": "_version",
          "type": "bytes4"
        },
        {
          "internalType": "bytes29",
          "name": "_vin",
          "type": "bytes29"
        },
        {
          "internalType": "bytes29",
          "name": "_vout",
          "type": "bytes29"
        },
        {
          "internalType": "bytes4",
          "name": "_locktime",
          "type": "bytes4"
        }
      ],
      "name": "calculateTxId",
      "outputs": [
        {
          "internalType": "bytes32",
          "name": "",
          "type": "bytes32"
        }
      ],
      "stateMutability": "view",
      "type": "function"
    },
    {
      "inputs": [
        {
          "internalType": "bytes29",
          "name": "_headers",
          "type": "bytes29"
        }
      ],
      "name": "checkChain",
      "outputs": [
        {
          "internalType": "uint256",
          "name": "_totalDifficulty",
          "type": "uint256"
        }
      ],
      "stateMutability": "view",
      "type": "function"
    },
    {
      "inputs": [
        {
          "internalType": "bytes29",
          "name": "_header",
          "type": "bytes29"
        },
        {
          "internalType": "bytes32",
          "name": "_prevHeaderDigest",
          "type": "bytes32"
        }
      ],
      "name": "checkParent",
      "outputs": [
        {
          "internalType": "bool",
          "name": "",
          "type": "bool"
        }
      ],
      "stateMutability": "pure",
      "type": "function"
    },
    {
      "inputs": [
        {
          "internalType": "bytes29",
          "name": "_header",
          "type": "bytes29"
        },
        {
          "internalType": "uint256",
          "name": "_target",
          "type": "uint256"
        }
      ],
      "name": "checkWork",
      "outputs": [
        {
          "internalType": "bool",
          "name": "",
          "type": "bool"
        }
      ],
      "stateMutability": "view",
      "type": "function"
    },
    {
      "inputs": [],
      "name": "getErrBadLength",
      "outputs": [
        {
          "internalType": "uint256",
          "name": "",
          "type": "uint256"
        }
      ],
      "stateMutability": "pure",
      "type": "function"
    },
    {
      "inputs": [],
      "name": "getErrInvalidChain",
      "outputs": [
        {
          "internalType": "uint256",
          "name": "",
          "type": "uint256"
        }
      ],
      "stateMutability": "pure",
      "type": "function"
    },
    {
      "inputs": [],
      "name": "getErrLowWork",
      "outputs": [
        {
          "internalType": "uint256",
          "name": "",
          "type": "uint256"
        }
      ],
      "stateMutability": "pure",
      "type": "function"
    },
    {
      "inputs": [
        {
          "internalType": "bytes32",
          "name": "_txid",
          "type": "bytes32"
        },
        {
          "internalType": "bytes32",
          "name": "_merkleRoot",
          "type": "bytes32"
        },
        {
          "internalType": "bytes29",
          "name": "_intermediateNodes",
          "type": "bytes29"
        },
        {
          "internalType": "uint256",
          "name": "_index",
          "type": "uint256"
        }
      ],
      "name": "prove",
      "outputs": [
        {
          "internalType": "bool",
          "name": "",
          "type": "bool"
        }
      ],
      "stateMutability": "view",
      "type": "function"
    },
    {
      "inputs": [
        {
          "internalType": "bytes32",
          "name": "input",
          "type": "bytes32"
        }
      ],
      "name": "revertBytes32",
      "outputs": [
        {
          "internalType": "bytes32",
          "name": "",
          "type": "bytes32"
        }
      ],
      "stateMutability": "pure",
      "type": "function"
    }
  ],
  "transactionHash": "0x6a277e48d1216271c6270c9ef57c89a9f5752312ae1348f9a3acfc8b7c5e1d8a",
  "args": [],
  "numDeployments": 1,
  "solcInputHash": "9bccde1a4f7e4627724163f00e6fb00c",
  "bytecode": "0x6111f561003a600b82828239805160001a60731461002d57634e487b7160e01b600052600060045260246000fd5b30600052607381538281f3fe730000000000000000000000000000000000000000301460806040526004361061009d5760003560e01c8063aa65716d11610070578063aa65716d146100f2578063b14b305014610115578063b39247f41461011d578063e68c184f14610130578063fff38bdd146101385761009d565b806322430239146100a2578063331ac449146100b95780633c445e3c146100cc5780633f67af86146100df575b600080fd5b6001195b6040519081526020015b60405180910390f35b6100a66100c7366004610eb9565b61014b565b6100a66100da366004610e4b565b6104da565b6100a66100ed366004610dd6565b61055c565b610105610100366004610e7b565b6109d0565b60405190151581526020016100b0565b6000196100a6565b61010561012b366004610e39565b610b3b565b6002196100a6565b610105610146366004610e0e565b610c69565b600083600673a7e24f80E66bb09819D813e9c4b1B176e22C2d4463a60a728262ffffff198416836040518363ffffffff1660e01b815260040161018f929190611073565b60206040518083038186803b1580156101a757600080fd5b505af41580156101bb573d6000803e3d6000fd5b505050506040513d601f19601f820116820180604052508101906101df9190610df2565b5084600f73a7e24f80E66bb09819D813e9c4b1B176e22C2d4463a60a728262ffffff198416836040518363ffffffff1660e01b8152600401610222929190611073565b60206040518083038186803b15801561023a57600080fd5b505af415801561024e573d6000803e3d6000fd5b505050506040513d601f19601f820116820180604052508101906102729190610df2565b5060405163bac4b38d60e01b8152899073a7e24f80E66bb09819D813e9c4b1B176e22C2d449063bac4b38d906102b29062ffffff198d1690600401611062565b60006040518083038186803b1580156102ca57600080fd5b505af41580156102de573d6000803e3d6000fd5b505050506040513d6000823e601f3d908101601f191682016040526103069190810190610f10565b60405163bac4b38d60e01b815273a7e24f80E66bb09819D813e9c4b1B176e22C2d449063bac4b38d906103439062ffffff198d1690600401611062565b60006040518083038186803b15801561035b57600080fd5b505af415801561036f573d6000803e3d6000fd5b505050506040513d6000823e601f3d908101601f191682016040526103979190810190610f10565b886040516020016103ab9493929190610fe0565b60408051601f19818403018152908290526334fcca5360e11b825273a7e24f80E66bb09819D813e9c4b1B176e22C2d44916369f994a6916103f191600090600401611090565b60206040518083038186803b15801561040957600080fd5b505af415801561041d573d6000803e3d6000fd5b505050506040513d601f19601f820116820180604052508101906104419190610df2565b6040516307f6f12360e21b815273a7e24f80E66bb09819D813e9c4b1B176e22C2d4491631fdbc48c9161047d9162ffffff191690600401611062565b60206040518083038186803b15801561049557600080fd5b505af41580156104a9573d6000803e3d6000fd5b505050506040513d601f19601f820116820180604052508101906104cd9190610e63565b9998505050505050505050565b6000606081805b602081101561054e5782856104f783601f61111c565b6020811061051557634e487b7160e01b600052603260045260246000fd5b1a60f81b60405160200161052a929190611033565b6040516020818303038152906040529250808061054690611163565b9150506104e1565b50506020015190505b919050565b600081601173a7e24f80E66bb09819D813e9c4b1B176e22C2d4463a60a728262ffffff198416836040518363ffffffff1660e01b81526004016105a0929190611073565b60206040518083038186803b1580156105b857600080fd5b505af41580156105cc573d6000803e3d6000fd5b505050506040513d601f19601f820116820180604052508101906105f09190610df2565b50604051639cb855cb60e01b8152600090819060509073a7e24f80E66bb09819D813e9c4b1B176e22C2d4490639cb855cb906106369062ffffff198b1690600401611062565b60206040518083038186803b15801561064e57600080fd5b505af4158015610662573d6000803e3d6000fd5b505050506040513d601f19601f820116820180604052508101906106869190610fb9565b61069091906110ea565b6001600160601b0316905060005b818110156109c55760405163df90556160e01b815262ffffff198816600482015260248101829052600090733b377E98B51867e03CE140b709BAA02ffBB31A519063df9055619060440160206040518083038186803b15801561070057600080fd5b505af4158015610714573d6000803e3d6000fd5b505050506040513d601f19601f820116820180604052508101906107389190610df2565b9050811561075c5761074a8185610c69565b61075c576001199650505050506109c9565b60405163f89fd37560e01b8152733b377E98B51867e03CE140b709BAA02ffBB31A519063f89fd375906107999062ffffff19851690600401611062565b60206040518083038186803b1580156107b157600080fd5b505af41580156107c5573d6000803e3d6000fd5b505050506040513d601f19601f820116820180604052508101906107e99190610e63565b6040516340bec88f60e01b81526004810182905290945060009073a7e24f80E66bb09819D813e9c4b1B176e22C2d44906340bec88f9060240160206040518083038186803b15801561083a57600080fd5b505af415801561084e573d6000803e3d6000fd5b505050506040513d601f19601f820116820180604052508101906108729190610e63565b6040516362ef7dad60e01b8152909150600090733b377E98B51867e03CE140b709BAA02ffBB31A51906362ef7dad906108b59062ffffff19871690600401611062565b60206040518083038186803b1580156108cd57600080fd5b505af41580156108e1573d6000803e3d6000fd5b505050506040513d601f19601f820116820180604052508101906109059190610e63565b90508082111561091f5760021998505050505050506109c9565b604051630979480360e01b815260048101829052733b377E98B51867e03CE140b709BAA02ffBB31A519063097948039060240160206040518083038186803b15801561096a57600080fd5b505af415801561097e573d6000803e3d6000fd5b505050506040513d601f19601f820116820180604052508101906109a29190610e63565b6109ac908a6110d2565b98505050506001816109be91906110d2565b905061069e565b5050505b5050919050565b6000836109dc866104da565b1480156109e7575081155b8015610a865750604051639cb855cb60e01b815273a7e24f80E66bb09819D813e9c4b1B176e22C2d4490639cb855cb90610a2b9062ffffff19871690600401611062565b60206040518083038186803b158015610a4357600080fd5b505af4158015610a57573d6000803e3d6000fd5b505050506040513d601f19601f82011682018060405250810190610a7b9190610fb9565b6001600160601b0316155b15610a9357506001610b33565b6040516307d1afa960e01b81526004810186905262ffffff19841660248201526044810185905260648101839052733b377E98B51867e03CE140b709BAA02ffBB31A51906307d1afa99060840160206040518083038186803b158015610af857600080fd5b505af4158015610b0c573d6000803e3d6000fd5b505050506040513d601f19601f82011682018060405250810190610b309190610daf565b90505b949350505050565b600082601073a7e24f80E66bb09819D813e9c4b1B176e22C2d4463a60a728262ffffff198416836040518363ffffffff1660e01b8152600401610b7f929190611073565b60206040518083038186803b158015610b9757600080fd5b505af4158015610bab573d6000803e3d6000fd5b505050506040513d601f19601f82011682018060405250810190610bcf9190610df2565b5060405163372da9ed60e01b81528490733b377E98B51867e03CE140b709BAA02ffBB31A519063372da9ed90610c0f9062ffffff198a1690600401611062565b60206040518083038186803b158015610c2757600080fd5b505af4158015610c3b573d6000803e3d6000fd5b505050506040513d601f19601f82011682018060405250810190610c5f9190610e63565b1095945050505050565b600082601073a7e24f80E66bb09819D813e9c4b1B176e22C2d4463a60a728262ffffff198416836040518363ffffffff1660e01b8152600401610cad929190611073565b60206040518083038186803b158015610cc557600080fd5b505af4158015610cd9573d6000803e3d6000fd5b505050506040513d601f19601f82011682018060405250810190610cfd9190610df2565b5060405163383ef31360e11b81528490733b377E98B51867e03CE140b709BAA02ffBB31A519063707de62690610d3d9062ffffff198a1690600401611062565b60206040518083038186803b158015610d5557600080fd5b505af4158015610d69573d6000803e3d6000fd5b505050506040513d601f19601f82011682018060405250810190610d8d9190610e63565b1495945050505050565b80356001600160e01b03198116811461055757600080fd5b600060208284031215610dc0578081fd5b81518015158114610dcf578182fd5b9392505050565b600060208284031215610de7578081fd5b8135610dcf816111aa565b600060208284031215610e03578081fd5b8151610dcf816111aa565b60008060408385031215610e20578081fd5b8235610e2b816111aa565b946020939093013593505050565b60008060408385031215610e20578182fd5b600060208284031215610e5c578081fd5b5035919050565b600060208284031215610e74578081fd5b5051919050565b60008060008060808587031215610e90578182fd5b84359350602085013592506040850135610ea9816111aa565b9396929550929360600135925050565b60008060008060808587031215610ece578384fd5b610ed785610d97565b93506020850135610ee7816111aa565b92506040850135610ef7816111aa565b9150610f0560608601610d97565b905092959194509250565b600060208284031215610f21578081fd5b815167ffffffffffffffff80821115610f38578283fd5b818401915084601f830112610f4b578283fd5b815181811115610f5d57610f5d611194565b604051601f8201601f19908116603f01168101908382118183101715610f8557610f85611194565b81604052828152876020848701011115610f9d578586fd5b610fae836020830160208801611133565b979650505050505050565b600060208284031215610fca578081fd5b81516001600160601b0381168114610dcf578182fd5b600063ffffffff60e01b80871683528551611002816004860160208a01611133565b855190840190611019816004840160208a01611133565b919094169301600481019390935250506008019392505050565b60008351611045818460208801611133565b6001600160f81b0319939093169190920190815260010192915050565b62ffffff1991909116815260200190565b62ffffff1992909216825264ffffffffff16602082015260400190565b60006040825283518060408401526110af816060850160208801611133565b64ffffffffff93909316602083015250601f91909101601f191601606001919050565b600082198211156110e5576110e561117e565b500190565b60006001600160601b038084168061111057634e487b7160e01b83526012600452602483fd5b92169190910492915050565b60008282101561112e5761112e61117e565b500390565b60005b8381101561114e578181015183820152602001611136565b8381111561115d576000848401525b50505050565b60006000198214156111775761117761117e565b5060010190565b634e487b7160e01b600052601160045260246000fd5b634e487b7160e01b600052604160045260246000fd5b62ffffff19811681146111bc57600080fd5b5056fea26469706673582212202dc443f17c78adcee53921295e29383abd1f1303512b6320fe0c9a67c99c0e8364736f6c63430008020033",
  "deployedBytecode": "0x730000000000000000000000000000000000000000301460806040526004361061009d5760003560e01c8063aa65716d11610070578063aa65716d146100f2578063b14b305014610115578063b39247f41461011d578063e68c184f14610130578063fff38bdd146101385761009d565b806322430239146100a2578063331ac449146100b95780633c445e3c146100cc5780633f67af86146100df575b600080fd5b6001195b6040519081526020015b60405180910390f35b6100a66100c7366004610eb9565b61014b565b6100a66100da366004610e4b565b6104da565b6100a66100ed366004610dd6565b61055c565b610105610100366004610e7b565b6109d0565b60405190151581526020016100b0565b6000196100a6565b61010561012b366004610e39565b610b3b565b6002196100a6565b610105610146366004610e0e565b610c69565b600083600673__$23851852cf97a1ff2525b5bae2bad8f731$__63a60a728262ffffff198416836040518363ffffffff1660e01b815260040161018f929190611073565b60206040518083038186803b1580156101a757600080fd5b505af41580156101bb573d6000803e3d6000fd5b505050506040513d601f19601f820116820180604052508101906101df9190610df2565b5084600f73__$23851852cf97a1ff2525b5bae2bad8f731$__63a60a728262ffffff198416836040518363ffffffff1660e01b8152600401610222929190611073565b60206040518083038186803b15801561023a57600080fd5b505af415801561024e573d6000803e3d6000fd5b505050506040513d601f19601f820116820180604052508101906102729190610df2565b5060405163bac4b38d60e01b8152899073__$23851852cf97a1ff2525b5bae2bad8f731$__9063bac4b38d906102b29062ffffff198d1690600401611062565b60006040518083038186803b1580156102ca57600080fd5b505af41580156102de573d6000803e3d6000fd5b505050506040513d6000823e601f3d908101601f191682016040526103069190810190610f10565b60405163bac4b38d60e01b815273__$23851852cf97a1ff2525b5bae2bad8f731$__9063bac4b38d906103439062ffffff198d1690600401611062565b60006040518083038186803b15801561035b57600080fd5b505af415801561036f573d6000803e3d6000fd5b505050506040513d6000823e601f3d908101601f191682016040526103979190810190610f10565b886040516020016103ab9493929190610fe0565b60408051601f19818403018152908290526334fcca5360e11b825273__$23851852cf97a1ff2525b5bae2bad8f731$__916369f994a6916103f191600090600401611090565b60206040518083038186803b15801561040957600080fd5b505af415801561041d573d6000803e3d6000fd5b505050506040513d601f19601f820116820180604052508101906104419190610df2565b6040516307f6f12360e21b815273__$23851852cf97a1ff2525b5bae2bad8f731$__91631fdbc48c9161047d9162ffffff191690600401611062565b60206040518083038186803b15801561049557600080fd5b505af41580156104a9573d6000803e3d6000fd5b505050506040513d601f19601f820116820180604052508101906104cd9190610e63565b9998505050505050505050565b6000606081805b602081101561054e5782856104f783601f61111c565b6020811061051557634e487b7160e01b600052603260045260246000fd5b1a60f81b60405160200161052a929190611033565b6040516020818303038152906040529250808061054690611163565b9150506104e1565b50506020015190505b919050565b600081601173__$23851852cf97a1ff2525b5bae2bad8f731$__63a60a728262ffffff198416836040518363ffffffff1660e01b81526004016105a0929190611073565b60206040518083038186803b1580156105b857600080fd5b505af41580156105cc573d6000803e3d6000fd5b505050506040513d601f19601f820116820180604052508101906105f09190610df2565b50604051639cb855cb60e01b8152600090819060509073__$23851852cf97a1ff2525b5bae2bad8f731$__90639cb855cb906106369062ffffff198b1690600401611062565b60206040518083038186803b15801561064e57600080fd5b505af4158015610662573d6000803e3d6000fd5b505050506040513d601f19601f820116820180604052508101906106869190610fb9565b61069091906110ea565b6001600160601b0316905060005b818110156109c55760405163df90556160e01b815262ffffff19881660048201526024810182905260009073__$0502a3cf6a2bcad1c419a18d02ea8187d1$__9063df9055619060440160206040518083038186803b15801561070057600080fd5b505af4158015610714573d6000803e3d6000fd5b505050506040513d601f19601f820116820180604052508101906107389190610df2565b9050811561075c5761074a8185610c69565b61075c576001199650505050506109c9565b60405163f89fd37560e01b815273__$0502a3cf6a2bcad1c419a18d02ea8187d1$__9063f89fd375906107999062ffffff19851690600401611062565b60206040518083038186803b1580156107b157600080fd5b505af41580156107c5573d6000803e3d6000fd5b505050506040513d601f19601f820116820180604052508101906107e99190610e63565b6040516340bec88f60e01b81526004810182905290945060009073__$23851852cf97a1ff2525b5bae2bad8f731$__906340bec88f9060240160206040518083038186803b15801561083a57600080fd5b505af415801561084e573d6000803e3d6000fd5b505050506040513d601f19601f820116820180604052508101906108729190610e63565b6040516362ef7dad60e01b815290915060009073__$0502a3cf6a2bcad1c419a18d02ea8187d1$__906362ef7dad906108b59062ffffff19871690600401611062565b60206040518083038186803b1580156108cd57600080fd5b505af41580156108e1573d6000803e3d6000fd5b505050506040513d601f19601f820116820180604052508101906109059190610e63565b90508082111561091f5760021998505050505050506109c9565b604051630979480360e01b81526004810182905273__$0502a3cf6a2bcad1c419a18d02ea8187d1$__9063097948039060240160206040518083038186803b15801561096a57600080fd5b505af415801561097e573d6000803e3d6000fd5b505050506040513d601f19601f820116820180604052508101906109a29190610e63565b6109ac908a6110d2565b98505050506001816109be91906110d2565b905061069e565b5050505b5050919050565b6000836109dc866104da565b1480156109e7575081155b8015610a865750604051639cb855cb60e01b815273__$23851852cf97a1ff2525b5bae2bad8f731$__90639cb855cb90610a2b9062ffffff19871690600401611062565b60206040518083038186803b158015610a4357600080fd5b505af4158015610a57573d6000803e3d6000fd5b505050506040513d601f19601f82011682018060405250810190610a7b9190610fb9565b6001600160601b0316155b15610a9357506001610b33565b6040516307d1afa960e01b81526004810186905262ffffff1984166024820152604481018590526064810183905273__$0502a3cf6a2bcad1c419a18d02ea8187d1$__906307d1afa99060840160206040518083038186803b158015610af857600080fd5b505af4158015610b0c573d6000803e3d6000fd5b505050506040513d601f19601f82011682018060405250810190610b309190610daf565b90505b949350505050565b600082601073__$23851852cf97a1ff2525b5bae2bad8f731$__63a60a728262ffffff198416836040518363ffffffff1660e01b8152600401610b7f929190611073565b60206040518083038186803b158015610b9757600080fd5b505af4158015610bab573d6000803e3d6000fd5b505050506040513d601f19601f82011682018060405250810190610bcf9190610df2565b5060405163372da9ed60e01b8152849073__$0502a3cf6a2bcad1c419a18d02ea8187d1$__9063372da9ed90610c0f9062ffffff198a1690600401611062565b60206040518083038186803b158015610c2757600080fd5b505af4158015610c3b573d6000803e3d6000fd5b505050506040513d601f19601f82011682018060405250810190610c5f9190610e63565b1095945050505050565b600082601073__$23851852cf97a1ff2525b5bae2bad8f731$__63a60a728262ffffff198416836040518363ffffffff1660e01b8152600401610cad929190611073565b60206040518083038186803b158015610cc557600080fd5b505af4158015610cd9573d6000803e3d6000fd5b505050506040513d601f19601f82011682018060405250810190610cfd9190610df2565b5060405163383ef31360e11b8152849073__$0502a3cf6a2bcad1c419a18d02ea8187d1$__9063707de62690610d3d9062ffffff198a1690600401611062565b60206040518083038186803b158015610d5557600080fd5b505af4158015610d69573d6000803e3d6000fd5b505050506040513d601f19601f82011682018060405250810190610d8d9190610e63565b1495945050505050565b80356001600160e01b03198116811461055757600080fd5b600060208284031215610dc0578081fd5b81518015158114610dcf578182fd5b9392505050565b600060208284031215610de7578081fd5b8135610dcf816111aa565b600060208284031215610e03578081fd5b8151610dcf816111aa565b60008060408385031215610e20578081fd5b8235610e2b816111aa565b946020939093013593505050565b60008060408385031215610e20578182fd5b600060208284031215610e5c578081fd5b5035919050565b600060208284031215610e74578081fd5b5051919050565b60008060008060808587031215610e90578182fd5b84359350602085013592506040850135610ea9816111aa565b9396929550929360600135925050565b60008060008060808587031215610ece578384fd5b610ed785610d97565b93506020850135610ee7816111aa565b92506040850135610ef7816111aa565b9150610f0560608601610d97565b905092959194509250565b600060208284031215610f21578081fd5b815167ffffffffffffffff80821115610f38578283fd5b818401915084601f830112610f4b578283fd5b815181811115610f5d57610f5d611194565b604051601f8201601f19908116603f01168101908382118183101715610f8557610f85611194565b81604052828152876020848701011115610f9d578586fd5b610fae836020830160208801611133565b979650505050505050565b600060208284031215610fca578081fd5b81516001600160601b0381168114610dcf578182fd5b600063ffffffff60e01b80871683528551611002816004860160208a01611133565b855190840190611019816004840160208a01611133565b919094169301600481019390935250506008019392505050565b60008351611045818460208801611133565b6001600160f81b0319939093169190920190815260010192915050565b62ffffff1991909116815260200190565b62ffffff1992909216825264ffffffffff16602082015260400190565b60006040825283518060408401526110af816060850160208801611133565b64ffffffffff93909316602083015250601f91909101601f191601606001919050565b600082198211156110e5576110e561117e565b500190565b60006001600160601b038084168061111057634e487b7160e01b83526012600452602483fd5b92169190910492915050565b60008282101561112e5761112e61117e565b500390565b60005b8381101561114e578181015183820152602001611136565b8381111561115d576000848401525b50505050565b60006000198214156111775761117761117e565b5060010190565b634e487b7160e01b600052601160045260246000fd5b634e487b7160e01b600052604160045260246000fd5b62ffffff19811681146111bc57600080fd5b5056fea26469706673582212202dc443f17c78adcee53921295e29383abd1f1303512b6320fe0c9a67c99c0e8364736f6c63430008020033",
  "libraries": {
    "TypedMemView": "0xa7e24f80E66bb09819D813e9c4b1B176e22C2d44",
    "ViewBTC": "0x3b377E98B51867e03CE140b709BAA02ffBB31A51"
  },
  "devdoc": {
    "kind": "dev",
    "methods": {},
    "version": 1
  },
  "userdoc": {
    "kind": "user",
    "methods": {},
    "version": 1
  },
  "storageLayout": {
    "storage": [],
    "types": null
  }
}