{
  "address": "0x3b377E98B51867e03CE140b709BAA02ffBB31A51",
  "abi": [
    {
      "inputs": [],
      "name": "DIFF1_TARGET",
      "outputs": [
        {
          "internalType": "uint256",
          "name": "",
          "type": "uint256"
        }
      ],
      "stateMutability": "view",
      "type": "function"
    },
    {
      "inputs": [],
      "name": "RETARGET_PERIOD",
      "outputs": [
        {
          "internalType": "uint256",
          "name": "",
          "type": "uint256"
        }
      ],
      "stateMutability": "view",
      "type": "function"
    },
    {
      "inputs": [],
      "name": "RETARGET_PERIOD_BLOCKS",
      "outputs": [
        {
          "internalType": "uint256",
          "name": "",
          "type": "uint256"
        }
      ],
      "stateMutability": "view",
      "type": "function"
    },
    {
      "inputs": [
        {
          "internalType": "bytes32",
          "name": "_a",
          "type": "bytes32"
        },
        {
          "internalType": "bytes32",
          "name": "_b",
          "type": "bytes32"
        }
      ],
      "name": "_merkleStep",
      "outputs": [
        {
          "internalType": "bytes32",
          "name": "digest",
          "type": "bytes32"
        }
      ],
      "stateMutability": "view",
      "type": "function"
    },
    {
      "inputs": [
        {
          "internalType": "bytes32",
          "name": "_leaf",
          "type": "bytes32"
        },
        {
          "internalType": "bytes29",
          "name": "_proof",
          "type": "bytes29"
        },
        {
          "internalType": "bytes32",
          "name": "_root",
          "type": "bytes32"
        },
        {
          "internalType": "uint256",
          "name": "_index",
          "type": "uint256"
        }
      ],
      "name": "checkMerkle",
      "outputs": [
        {
          "internalType": "bool",
          "name": "",
          "type": "bool"
        }
      ],
      "stateMutability": "view",
      "type": "function"
    },
    {
      "inputs": [
        {
          "internalType": "uint64",
          "name": "number",
          "type": "uint64"
        }
      ],
      "name": "compactIntLength",
      "outputs": [
        {
          "internalType": "uint8",
          "name": "",
          "type": "uint8"
        }
      ],
      "stateMutability": "pure",
      "type": "function"
    },
    {
      "inputs": [
        {
          "internalType": "bytes29",
          "name": "_header",
          "type": "bytes29"
        }
      ],
      "name": "diff",
      "outputs": [
        {
          "internalType": "uint256",
          "name": "",
          "type": "uint256"
        }
      ],
      "stateMutability": "pure",
      "type": "function"
    },
    {
      "inputs": [
        {
          "internalType": "bytes29",
          "name": "memView",
          "type": "bytes29"
        },
        {
          "internalType": "uint256",
          "name": "_index",
          "type": "uint256"
        }
      ],
      "name": "indexCompactInt",
      "outputs": [
        {
          "internalType": "uint64",
          "name": "number",
          "type": "uint64"
        }
      ],
      "stateMutability": "pure",
      "type": "function"
    },
    {
      "inputs": [
        {
          "internalType": "bytes29",
          "name": "_arr",
          "type": "bytes29"
        },
        {
          "internalType": "uint256",
          "name": "index",
          "type": "uint256"
        }
      ],
      "name": "indexHeaderArray",
      "outputs": [
        {
          "internalType": "bytes29",
          "name": "",
          "type": "bytes29"
        }
      ],
      "stateMutability": "pure",
      "type": "function"
    },
    {
      "inputs": [
        {
          "internalType": "bytes29",
          "name": "_vin",
          "type": "bytes29"
        },
        {
          "internalType": "uint256",
          "name": "_index",
          "type": "uint256"
        }
      ],
      "name": "indexVin",
      "outputs": [
        {
          "internalType": "bytes29",
          "name": "",
          "type": "bytes29"
        }
      ],
      "stateMutability": "pure",
      "type": "function"
    },
    {
      "inputs": [
        {
          "internalType": "bytes29",
          "name": "_vout",
          "type": "bytes29"
        },
        {
          "internalType": "uint256",
          "name": "_index",
          "type": "uint256"
        }
      ],
      "name": "indexVout",
      "outputs": [
        {
          "internalType": "bytes29",
          "name": "",
          "type": "bytes29"
        }
      ],
      "stateMutability": "pure",
      "type": "function"
    },
    {
      "inputs": [
        {
          "internalType": "bytes29",
          "name": "_inputs",
          "type": "bytes29"
        }
      ],
      "name": "inputLength",
      "outputs": [
        {
          "internalType": "uint256",
          "name": "",
          "type": "uint256"
        }
      ],
      "stateMutability": "pure",
      "type": "function"
    },
    {
      "inputs": [
        {
          "internalType": "bytes29",
          "name": "_header",
          "type": "bytes29"
        }
      ],
      "name": "merkleRoot",
      "outputs": [
        {
          "internalType": "bytes32",
          "name": "",
          "type": "bytes32"
        }
      ],
      "stateMutability": "pure",
      "type": "function"
    },
    {
      "inputs": [
        {
          "internalType": "bytes29",
          "name": "_spk",
          "type": "bytes29"
        }
      ],
      "name": "opReturnPayload",
      "outputs": [
        {
          "internalType": "bytes29",
          "name": "",
          "type": "bytes29"
        }
      ],
      "stateMutability": "pure",
      "type": "function"
    },
    {
      "inputs": [
        {
          "internalType": "bytes29",
          "name": "_input",
          "type": "bytes29"
        }
      ],
      "name": "outpoint",
      "outputs": [
        {
          "internalType": "bytes29",
          "name": "",
          "type": "bytes29"
        }
      ],
      "stateMutability": "pure",
      "type": "function"
    },
    {
      "inputs": [
        {
          "internalType": "bytes29",
          "name": "_outpoint",
          "type": "bytes29"
        }
      ],
      "name": "outpointIdx",
      "outputs": [
        {
          "internalType": "uint32",
          "name": "",
          "type": "uint32"
        }
      ],
      "stateMutability": "pure",
      "type": "function"
    },
    {
      "inputs": [
        {
          "internalType": "bytes29",
          "name": "_outputs",
          "type": "bytes29"
        }
      ],
      "name": "outputLength",
      "outputs": [
        {
          "internalType": "uint256",
          "name": "",
          "type": "uint256"
        }
      ],
      "stateMutability": "pure",
      "type": "function"
    },
    {
      "inputs": [
        {
          "internalType": "bytes29",
          "name": "_header",
          "type": "bytes29"
        }
      ],
      "name": "parent",
      "outputs": [
        {
          "internalType": "bytes32",
          "name": "",
          "type": "bytes32"
        }
      ],
      "stateMutability": "pure",
      "type": "function"
    },
    {
      "inputs": [
        {
          "internalType": "bytes29",
          "name": "_spk",
          "type": "bytes29"
        }
      ],
      "name": "payload",
      "outputs": [
        {
          "internalType": "bytes29",
          "name": "",
          "type": "bytes29"
        }
      ],
      "stateMutability": "pure",
      "type": "function"
    },
    {
      "inputs": [
        {
          "internalType": "uint256",
          "name": "_previousTarget",
          "type": "uint256"
        },
        {
          "internalType": "uint256",
          "name": "_firstTimestamp",
          "type": "uint256"
        },
        {
          "internalType": "uint256",
          "name": "_secondTimestamp",
          "type": "uint256"
        }
      ],
      "name": "retargetAlgorithm",
      "outputs": [
        {
          "internalType": "uint256",
          "name": "",
          "type": "uint256"
        }
      ],
      "stateMutability": "pure",
      "type": "function"
    },
    {
      "inputs": [
        {
          "internalType": "bytes32",
          "name": "input",
          "type": "bytes32"
        }
      ],
      "name": "revertBytes32",
      "outputs": [
        {
          "internalType": "bytes32",
          "name": "",
          "type": "bytes32"
        }
      ],
      "stateMutability": "pure",
      "type": "function"
    },
    {
      "inputs": [
        {
          "internalType": "bytes29",
          "name": "_output",
          "type": "bytes29"
        }
      ],
      "name": "scriptPubkey",
      "outputs": [
        {
          "internalType": "bytes29",
          "name": "",
          "type": "bytes29"
        }
      ],
      "stateMutability": "pure",
      "type": "function"
    },
    {
      "inputs": [
        {
          "internalType": "bytes29",
          "name": "_output",
          "type": "bytes29"
        }
      ],
      "name": "scriptPubkeyBytes",
      "outputs": [
        {
          "internalType": "bytes32",
          "name": "",
          "type": "bytes32"
        }
      ],
      "stateMutability": "pure",
      "type": "function"
    },
    {
      "inputs": [
        {
          "internalType": "bytes29",
          "name": "_input",
          "type": "bytes29"
        }
      ],
      "name": "scriptSig",
      "outputs": [
        {
          "internalType": "bytes29",
          "name": "",
          "type": "bytes29"
        }
      ],
      "stateMutability": "pure",
      "type": "function"
    },
    {
      "inputs": [
        {
          "internalType": "bytes29",
          "name": "_input",
          "type": "bytes29"
        }
      ],
      "name": "sequence",
      "outputs": [
        {
          "internalType": "uint32",
          "name": "",
          "type": "uint32"
        }
      ],
      "stateMutability": "pure",
      "type": "function"
    },
    {
      "inputs": [
        {
          "internalType": "bytes29",
          "name": "_header",
          "type": "bytes29"
        }
      ],
      "name": "target",
      "outputs": [
        {
          "internalType": "uint256",
          "name": "",
          "type": "uint256"
        }
      ],
      "stateMutability": "pure",
      "type": "function"
    },
    {
      "inputs": [
        {
          "internalType": "bytes29",
          "name": "_header",
          "type": "bytes29"
        }
      ],
      "name": "time",
      "outputs": [
        {
          "internalType": "uint32",
          "name": "",
          "type": "uint32"
        }
      ],
      "stateMutability": "pure",
      "type": "function"
    },
    {
      "inputs": [
        {
          "internalType": "uint256",
          "name": "_target",
          "type": "uint256"
        }
      ],
      "name": "toDiff",
      "outputs": [
        {
          "internalType": "uint256",
          "name": "",
          "type": "uint256"
        }
      ],
      "stateMutability": "pure",
      "type": "function"
    },
    {
      "inputs": [
        {
          "internalType": "bytes29",
          "name": "_header",
          "type": "bytes29"
        }
      ],
      "name": "tryAsHeader",
      "outputs": [
        {
          "internalType": "bytes29",
          "name": "",
          "type": "bytes29"
        }
      ],
      "stateMutability": "pure",
      "type": "function"
    },
    {
      "inputs": [
        {
          "internalType": "bytes29",
          "name": "_arr",
          "type": "bytes29"
        }
      ],
      "name": "tryAsHeaderArray",
      "outputs": [
        {
          "internalType": "bytes29",
          "name": "",
          "type": "bytes29"
        }
      ],
      "stateMutability": "pure",
      "type": "function"
    },
    {
      "inputs": [
        {
          "internalType": "bytes29",
          "name": "_arr",
          "type": "bytes29"
        }
      ],
      "name": "tryAsMerkleArray",
      "outputs": [
        {
          "internalType": "bytes29",
          "name": "",
          "type": "bytes29"
        }
      ],
      "stateMutability": "pure",
      "type": "function"
    },
    {
      "inputs": [
        {
          "internalType": "bytes29",
          "name": "_spk",
          "type": "bytes29"
        }
      ],
      "name": "tryAsSPK",
      "outputs": [
        {
          "internalType": "bytes29",
          "name": "",
          "type": "bytes29"
        }
      ],
      "stateMutability": "pure",
      "type": "function"
    },
    {
      "inputs": [
        {
          "internalType": "bytes29",
          "name": "_vin",
          "type": "bytes29"
        }
      ],
      "name": "tryAsVin",
      "outputs": [
        {
          "internalType": "bytes29",
          "name": "",
          "type": "bytes29"
        }
      ],
      "stateMutability": "pure",
      "type": "function"
    },
    {
      "inputs": [
        {
          "internalType": "bytes29",
          "name": "_vout",
          "type": "bytes29"
        }
      ],
      "name": "tryAsVout",
      "outputs": [
        {
          "internalType": "bytes29",
          "name": "",
          "type": "bytes29"
        }
      ],
      "stateMutability": "pure",
      "type": "function"
    },
    {
      "inputs": [
        {
          "internalType": "bytes29",
          "name": "_outpoint",
          "type": "bytes29"
        }
      ],
      "name": "txidLE",
      "outputs": [
        {
          "internalType": "bytes32",
          "name": "",
          "type": "bytes32"
        }
      ],
      "stateMutability": "pure",
      "type": "function"
    },
    {
      "inputs": [
        {
          "internalType": "bytes29",
          "name": "_output",
          "type": "bytes29"
        }
      ],
      "name": "value",
      "outputs": [
        {
          "internalType": "uint64",
          "name": "",
          "type": "uint64"
        }
      ],
      "stateMutability": "pure",
      "type": "function"
    },
    {
      "inputs": [
        {
          "internalType": "bytes29",
          "name": "_output",
          "type": "bytes29"
        }
      ],
      "name": "valueBytes",
      "outputs": [
        {
          "internalType": "bytes8",
          "name": "",
          "type": "bytes8"
        }
      ],
      "stateMutability": "pure",
      "type": "function"
    },
    {
      "inputs": [
        {
          "internalType": "bytes29",
          "name": "_header",
          "type": "bytes29"
        }
      ],
      "name": "work",
      "outputs": [
        {
          "internalType": "uint256",
          "name": "",
          "type": "uint256"
        }
      ],
      "stateMutability": "view",
      "type": "function"
    },
    {
      "inputs": [
        {
          "internalType": "bytes29",
          "name": "_header",
          "type": "bytes29"
        }
      ],
      "name": "workHash",
      "outputs": [
        {
          "internalType": "bytes32",
          "name": "",
          "type": "bytes32"
        }
      ],
      "stateMutability": "view",
      "type": "function"
    }
  ],
  "transactionHash": "0x74d62b5aaef9baa3e5cc9f0d8fec6eb23f9044b30b292303fca0eaf21f684251",
  "args": [],
  "numDeployments": 1,
  "solcInputHash": "9bccde1a4f7e4627724163f00e6fb00c",
  "bytecode": "0x614c5761003a600b82828239805160001a60731461002d57634e487b7160e01b600052600060045260246000fd5b30600052607381538281f3fe73000000000000000000000000000000000000000030146080604052600436106102475760003560e01c80638c1be5c911610145578063cddb4507116100c2578063f172b06011610086578063f172b0601461052e578063f594d59f14610541578063f867eaac14610554578063f89fd37514610579578063fe5a59b61461058c57610247565b8063cddb4507146104bd578063d4258ca7146104d0578063dccd7f0f146104dc578063df90556114610508578063e6e3b2be1461051b57610247565b80639dbf87aa116101095780639dbf87aa1461045e578063a54d8e6414610471578063ade29ec114610484578063b259123214610497578063cb71c49b146104aa57610247565b80638c1be5c9146104095780638cc715691461041c578063905bf5281461042557806393c90681146104385780639d8e299f1461044b57610247565b80634ed7e908116101d3578063701acc1f11610197578063701acc1f146103aa578063707de626146103bd578063746a1631146103d05780637e5dc0eb146103e357806388330e53146103f657610247565b80634ed7e9081461034b57806357315b481461035e57806360234fc51461037157806362ef7dad146103845780636c3029ad1461039757610247565b80632ea56fa11161021a5780632ea56fa1146102ca578063372da9ed146102dd5780633c445e3c146102f0578063451f393d14610303578063454495e61461032b57610247565b8063056e04ec1461024c57806307d1afa914610269578063097948031461028c578063208d043a1461029f575b600080fd5b6102566212750081565b6040519081526020015b60405180910390f35b61027c61027736600461471b565b61059f565b6040519015158152602001610260565b61025661029a3660046146eb565b61076a565b6102b26102ad3660046146c0565b610783565b6040516001600160401b039091168152602001610260565b6102566102d8366004614688565b610b9a565b6102566102eb366004614688565b610ccc565b6102566102fe3660046146eb565b610da8565b610316610311366004614688565b610e28565b60405163ffffffff9091168152602001610260565b61033e610339366004614688565b610f99565b6040516102609190614843565b61033e610359366004614688565b6111e9565b61033e61036c3660046146c0565b611386565b61033e61037f3660046146c0565b611745565b610256610392366004614688565b611a6b565b6102566103a5366004614688565b611d42565b6102566103b8366004614757565b611e25565b6102566103cb366004614688565b611e51565b6102b26103de366004614688565b611f28565b61033e6103f1366004614688565b611fbd565b61033e610404366004614688565b612511565b61033e610417366004614688565b61292b565b6102566107e081565b610256610433366004614688565b612c48565b610316610446366004614688565b612dff565b610256610459366004614688565b612ed6565b61025661046c366004614688565b612fa5565b61033e61047f366004614688565b612feb565b61033e610492366004614688565b613193565b6102566104a536600461479b565b613920565b61033e6104b8366004614688565b6139bd565b6102566104cb366004614688565b613b0d565b61025661ffff60d01b81565b6104ef6104ea366004614688565b613bae565b6040516001600160c01b03199091168152602001610260565b61033e6105163660046146c0565b613c86565b61033e610529366004614688565b613d88565b61031661053c366004614688565b613e63565b61033e61054f366004614688565b613f3a565b6105676105623660046147c6565b614276565b60405160ff9091168152602001610260565b610256610587366004614688565b6142cf565b61033e61059a366004614688565b6143a1565b604051639cb855cb60e01b8152600090819060209073a7e24f80E66bb09819D813e9c4b1B176e22C2d4490639cb855cb906105e49062ffffff198a1690600401614843565b60206040518083038186803b1580156105fc57600080fd5b505af4158015610610573d6000803e3d6000fd5b505050506040513d601f19601f8201168201806040525081019061063491906147ed565b61063e91906149c3565b6001600160601b0316905080610658575050838214610762565b828660005b8381101561075057600073a7e24f80E66bb09819D813e9c4b1B176e22C2d446338c17a3f62ffffff198b16610693856020614afd565b60206040518463ffffffff1660e01b81526004016106b393929190614854565b60206040518083038186803b1580156106cb57600080fd5b505af41580156106df573d6000803e3d6000fd5b505050506040513d601f19601f820116820180604052508101906107039190614703565b9050610710600285614ba6565b60011415610729576107228184611e25565b9250610736565b6107338382611e25565b92505b5060019290921c918061074881614b8b565b91505061065d565b508561075b82610da8565b1493505050505b949350505050565b600061077b8261ffff60d01b6149af565b90505b919050565b60405163da98f02b60e01b8152600090819073a7e24f80E66bb09819D813e9c4b1B176e22C2d449063da98f02b906107ca9062ffffff198816908790600190600401614854565b60206040518083038186803b1580156107e257600080fd5b505af41580156107f6573d6000803e3d6000fd5b505050506040513d601f19601f8201168201806040525081019061081a9190614703565b905060fc811161082b579050610b94565b8060fd141561098a5773a7e24f80E66bb09819D813e9c4b1B176e22C2d4463c197cfef62ffffff198616610860866001614947565b60026040518463ffffffff1660e01b815260040161088093929190614854565b60206040518083038186803b15801561089857600080fd5b505af41580156108ac573d6000803e3d6000fd5b505050506040513d601f19601f820116820180604052508101906108d09190614703565b91506108db82614276565b60ff166003146109855760405163373f671760e11b81526109839073a7e24f80E66bb09819D813e9c4b1B176e22C2d4490636e7ece2e9061092e9062ffffff198916908890600390600090600401614875565b60206040518083038186803b15801561094657600080fd5b505af415801561095a573d6000803e3d6000fd5b505050506040513d601f19601f8201168201806040525081019061097e91906146a4565b614486565b505b610b92565b8060fe1415610a8d5773a7e24f80E66bb09819D813e9c4b1B176e22C2d4463c197cfef62ffffff1986166109bf866001614947565b60046040518463ffffffff1660e01b81526004016109df93929190614854565b60206040518083038186803b1580156109f757600080fd5b505af4158015610a0b573d6000803e3d6000fd5b505050506040513d601f19601f82011682018060405250810190610a2f9190614703565b9150610a3a82614276565b60ff166005146109855760405163373f671760e11b81526109839073a7e24f80E66bb09819D813e9c4b1B176e22C2d4490636e7ece2e9061092e9062ffffff198916908890600590600090600401614875565b8060ff1415610b925773a7e24f80E66bb09819D813e9c4b1B176e22C2d4463c197cfef62ffffff198616610ac2866001614947565b60086040518463ffffffff1660e01b8152600401610ae293929190614854565b60206040518083038186803b158015610afa57600080fd5b505af4158015610b0e573d6000803e3d6000fd5b505050506040513d601f19601f82011682018060405250810190610b329190614703565b9150610b3d82614276565b60ff16600914610b925760405163373f671760e11b8152610b909073a7e24f80E66bb09819D813e9c4b1B176e22C2d4490636e7ece2e9061092e9062ffffff198916908890600990600090600401614875565b505b505b92915050565b600081600373a7e24f80E66bb09819D813e9c4b1B176e22C2d4463a60a728262ffffff198416836040518363ffffffff1660e01b8152600401610bde9291906148f7565b60206040518083038186803b158015610bf657600080fd5b505af4158015610c0a573d6000803e3d6000fd5b505050506040513d601f19601f82011682018060405250810190610c2e91906146a4565b506040516338c17a3f60e01b815273a7e24f80E66bb09819D813e9c4b1B176e22C2d44906338c17a3f90610c729062ffffff19881690600090602090600401614854565b60206040518083038186803b158015610c8a57600080fd5b505af4158015610c9e573d6000803e3d6000fd5b505050506040513d601f19601f82011682018060405250810190610cc29190614703565b92505b5050919050565b600081601073a7e24f80E66bb09819D813e9c4b1B176e22C2d4463a60a728262ffffff198416836040518363ffffffff1660e01b8152600401610d109291906148f7565b60206040518083038186803b158015610d2857600080fd5b505af4158015610d3c573d6000803e3d6000fd5b505050506040513d601f19601f82011682018060405250810190610d6091906146a4565b5073a7e24f80E66bb09819D813e9c4b1B176e22C2d446340bec88f610d84866142cf565b60405160e083901b6001600160e01b03191681526004810191909152602401610c72565b6000606081805b6020811015610e1c578285610dc583601f614b1c565b60208110610de357634e487b7160e01b600052603260045260246000fd5b1a60f81b604051602001610df8929190614814565b60405160208183030381529060405292508080610e1490614b8b565b915050610daf565b50506020015192915050565b600081600473a7e24f80E66bb09819D813e9c4b1B176e22C2d4463a60a728262ffffff198416836040518363ffffffff1660e01b8152600401610e6c9291906148f7565b60206040518083038186803b158015610e8457600080fd5b505af4158015610e98573d6000803e3d6000fd5b505050506040513d601f19601f82011682018060405250810190610ebc91906146a4565b506000610eca856024610783565b9050600081610ed883614276565b610ee390602461498a565b60ff16610ef0919061495f565b60405163c197cfef60e01b81526001600160401b0391909116915073a7e24f80E66bb09819D813e9c4b1B176e22C2d449063c197cfef90610f3f9062ffffff198a169085906004908101614854565b60206040518083038186803b158015610f5757600080fd5b505af4158015610f6b573d6000803e3d6000fd5b505050506040513d601f19601f82011682018060405250810190610f8f9190614703565b9695505050505050565b6000818173a7e24f80E66bb09819D813e9c4b1B176e22C2d4463a60a728262ffffff198416836040518363ffffffff1660e01b8152600401610fdc9291906148f7565b60206040518083038186803b158015610ff457600080fd5b505af4158015611008573d6000803e3d6000fd5b505050506040513d601f19601f8201168201806040525081019061102c91906146a4565b50604051639cb855cb60e01b815260209073a7e24f80E66bb09819D813e9c4b1B176e22C2d4490639cb855cb9061106d9062ffffff19891690600401614843565b60206040518083038186803b15801561108557600080fd5b505af4158015611099573d6000803e3d6000fd5b505050506040513d601f19601f820116820180604052508101906110bd91906147ed565b6110c79190614bba565b6001600160601b0316156111585773a7e24f80E66bb09819D813e9c4b1B176e22C2d446365acccba6040518163ffffffff1660e01b815260040160206040518083038186803b15801561111957600080fd5b505af415801561112d573d6000803e3d6000fd5b505050506040513d601f19601f8201168201806040525081019061115191906146a4565b9250610cc5565b73a7e24f80E66bb09819D813e9c4b1B176e22C2d446308d5a72762ffffff19861660145b6040518363ffffffff1660e01b81526004016111999291906148f7565b60206040518083038186803b1580156111b157600080fd5b505af41580156111c5573d6000803e3d6000fd5b505050506040513d601f19601f82011682018060405250810190610cc291906146a4565b6000818173a7e24f80E66bb09819D813e9c4b1B176e22C2d4463a60a728262ffffff198416836040518363ffffffff1660e01b815260040161122c9291906148f7565b60206040518083038186803b15801561124457600080fd5b505af4158015611258573d6000803e3d6000fd5b505050506040513d601f19601f8201168201806040525081019061127c91906146a4565b50604051639cb855cb60e01b815273a7e24f80E66bb09819D813e9c4b1B176e22C2d4490639cb855cb906112ba9062ffffff19881690600401614843565b60206040518083038186803b1580156112d257600080fd5b505af41580156112e6573d6000803e3d6000fd5b505050506040513d601f19601f8201168201806040525081019061130a91906147ed565b6001600160601b031660501461135e5773a7e24f80E66bb09819D813e9c4b1B176e22C2d446365acccba6040518163ffffffff1660e01b815260040160206040518083038186803b15801561111957600080fd5b73a7e24f80E66bb09819D813e9c4b1B176e22C2d446308d5a72762ffffff198616601061117c565b600082600673a7e24f80E66bb09819D813e9c4b1B176e22C2d4463a60a728262ffffff198416836040518363ffffffff1660e01b81526004016113ca9291906148f7565b60206040518083038186803b1580156113e257600080fd5b505af41580156113f6573d6000803e3d6000fd5b505050506040513d601f19601f8201168201806040525081019061141a91906146a4565b506000611428866000610783565b604051639cb855cb60e01b81526001600160401b0391909116915060009073a7e24f80E66bb09819D813e9c4b1B176e22C2d4490639cb855cb906114769062ffffff198b1690600401614843565b60206040518083038186803b15801561148e57600080fd5b505af41580156114a2573d6000803e3d6000fd5b505050506040513d601f19601f820116820180604052508101906114c691906147ed565b6001600160601b031690508186106115185760405162461bcd60e51b815260206004820152601060248201526f2b34b7103932b0b21037bb32b9393ab760811b60448201526064015b60405180910390fd5b600061152383614276565b60ff1690506000805b888110156115f85773a7e24f80E66bb09819D813e9c4b1B176e22C2d4463758a15c862ffffff198c1661155f8688614b1c565b60056040518463ffffffff1660e01b815260040161157f939291906148d2565b60206040518083038186803b15801561159757600080fd5b505af41580156115ab573d6000803e3d6000fd5b505050506040513d601f19601f820116820180604052508101906115cf91906146a4565b91506115da82611d42565b6115e49084614947565b92506115f1600182614947565b905061152c565b5073a7e24f80E66bb09819D813e9c4b1B176e22C2d4463758a15c862ffffff198b166116248587614b1c565b60056040518463ffffffff1660e01b8152600401611644939291906148d2565b60206040518083038186803b15801561165c57600080fd5b505af4158015611670573d6000803e3d6000fd5b505050506040513d601f19601f8201168201806040525081019061169491906146a4565b905060006116a182611d42565b60405163373f671760e11b815290915073a7e24f80E66bb09819D813e9c4b1B176e22C2d4490636e7ece2e906116e79062ffffff198e1690879086906004908101614875565b60206040518083038186803b1580156116ff57600080fd5b505af4158015611713573d6000803e3d6000fd5b505050506040513d601f19601f8201168201806040525081019061173791906146a4565b9a9950505050505050505050565b600080611753846000610783565b604051639cb855cb60e01b81526001600160401b0391909116915060009073a7e24f80E66bb09819D813e9c4b1B176e22C2d4490639cb855cb906117a19062ffffff19891690600401614843565b60206040518083038186803b1580156117b957600080fd5b505af41580156117cd573d6000803e3d6000fd5b505050506040513d601f19601f820116820180604052508101906117f191906147ed565b6001600160601b0316905081841061183f5760405162461bcd60e51b81526020600482015260116024820152702b37baba103932b0b21037bb32b9393ab760791b604482015260640161150f565b600061184a83614276565b60ff1690506000805b8681101561191f5773a7e24f80E66bb09819D813e9c4b1B176e22C2d4463758a15c862ffffff198a166118868688614b1c565b600e6040518463ffffffff1660e01b81526004016118a6939291906148d2565b60206040518083038186803b1580156118be57600080fd5b505af41580156118d2573d6000803e3d6000fd5b505050506040513d601f19601f820116820180604052508101906118f691906146a4565b915061190182612ed6565b61190b9084614947565b9250611918600182614947565b9050611853565b5073a7e24f80E66bb09819D813e9c4b1B176e22C2d4463758a15c862ffffff19891661194b8587614b1c565b600e6040518463ffffffff1660e01b815260040161196b939291906148d2565b60206040518083038186803b15801561198357600080fd5b505af4158015611997573d6000803e3d6000fd5b505050506040513d601f19601f820116820180604052508101906119bb91906146a4565b905060006119c882612ed6565b60405163373f671760e11b815290915073a7e24f80E66bb09819D813e9c4b1B176e22C2d4490636e7ece2e90611a0f9062ffffff198c169087908690600d90600401614875565b60206040518083038186803b158015611a2757600080fd5b505af4158015611a3b573d6000803e3d6000fd5b505050506040513d601f19601f82011682018060405250810190611a5f91906146a4565b98975050505050505050565b600081601073a7e24f80E66bb09819D813e9c4b1B176e22C2d4463a60a728262ffffff198416836040518363ffffffff1660e01b8152600401611aaf9291906148f7565b60206040518083038186803b158015611ac757600080fd5b505af4158015611adb573d6000803e3d6000fd5b505050506040513d601f19601f82011682018060405250810190611aff91906146a4565b5060405163c197cfef60e01b815260009073a7e24f80E66bb09819D813e9c4b1B176e22C2d449063c197cfef90611b469062ffffff19891690604890600390600401614854565b60206040518083038186803b158015611b5e57600080fd5b505af4158015611b72573d6000803e3d6000fd5b505050506040513d601f19601f82011682018060405250810190611b969190614703565b60405163da98f02b60e01b815290915060029073a7e24f80E66bb09819D813e9c4b1B176e22C2d449063da98f02b90611bdf9062ffffff198a1690604b90600190600401614854565b60206040518083038186803b158015611bf757600080fd5b505af4158015611c0b573d6000803e3d6000fd5b505050506040513d601f19601f82011682018060405250810190611c2f9190614703565b11611c875760405162461bcd60e51b815260206004820152602260248201527f566965774254433a20696e76616c69642074617267657420646966666963756c604482015261747960f01b606482015260840161150f565b60405163da98f02b60e01b815260009060039073a7e24f80E66bb09819D813e9c4b1B176e22C2d449063da98f02b90611cd09062ffffff198b1690604b90600190600401614854565b60206040518083038186803b158015611ce857600080fd5b505af4158015611cfc573d6000803e3d6000fd5b505050506040513d601f19601f82011682018060405250810190611d209190614703565b611d2a9190614b1c565b9050611d3881610100614a2f565b610f8f9083614afd565b600081600573a7e24f80E66bb09819D813e9c4b1B176e22C2d4463a60a728262ffffff198416836040518363ffffffff1660e01b8152600401611d869291906148f7565b60206040518083038186803b158015611d9e57600080fd5b505af4158015611db2573d6000803e3d6000fd5b505050506040513d601f19601f82011682018060405250810190611dd691906146a4565b506000611de4856024610783565b9050806001600160401b0316611df982614276565b60ff16611e069190614947565b611e11906024614947565b611e1c906004614947565b95945050505050565b600060405183815282602082015260208160408360025afa5060208160208360025afa50519392505050565b600081601073a7e24f80E66bb09819D813e9c4b1B176e22C2d4463a60a728262ffffff198416836040518363ffffffff1660e01b8152600401611e959291906148f7565b60206040518083038186803b158015611ead57600080fd5b505af4158015611ec1573d6000803e3d6000fd5b505050506040513d601f19601f82011682018060405250810190611ee591906146a4565b506040516338c17a3f60e01b815273a7e24f80E66bb09819D813e9c4b1B176e22C2d44906338c17a3f90610c729062ffffff198816906004906020908201614854565b60405163c197cfef60e01b815260009073a7e24f80E66bb09819D813e9c4b1B176e22C2d449063c197cfef90611f6d9062ffffff198616908590600890600401614854565b60206040518083038186803b158015611f8557600080fd5b505af4158015611f99573d6000803e3d6000fd5b505050506040513d601f19601f8201168201806040525081019061077b9190614703565b6000818173a7e24f80E66bb09819D813e9c4b1B176e22C2d4463a60a728262ffffff198416836040518363ffffffff1660e01b81526004016120009291906148f7565b60206040518083038186803b15801561201857600080fd5b505af415801561202c573d6000803e3d6000fd5b505050506040513d601f19601f8201168201806040525081019061205091906146a4565b50604051639cb855cb60e01b815273a7e24f80E66bb09819D813e9c4b1B176e22C2d4490639cb855cb9061208e9062ffffff19881690600401614843565b60206040518083038186803b1580156120a657600080fd5b505af41580156120ba573d6000803e3d6000fd5b505050506040513d601f19601f820116820180604052508101906120de91906147ed565b6001600160601b031661212f5773a7e24f80E66bb09819D813e9c4b1B176e22C2d446365acccba6040518163ffffffff1660e01b815260040160206040518083038186803b15801561111957600080fd5b600061213c856000610783565b604051639cb855cb60e01b815290915060009073a7e24f80E66bb09819D813e9c4b1B176e22C2d4490639cb855cb9061217f9062ffffff198a1690600401614843565b60206040518083038186803b15801561219757600080fd5b505af41580156121ab573d6000803e3d6000fd5b505050506040513d601f19601f820116820180604052508101906121cf91906147ed565b6001600160601b031690506001600160401b03821661226d5773a7e24f80E66bb09819D813e9c4b1B176e22C2d446365acccba6040518163ffffffff1660e01b815260040160206040518083038186803b15801561222c57600080fd5b505af4158015612240573d6000803e3d6000fd5b505050506040513d601f19601f8201168201806040525081019061226491906146a4565b94505050610cc5565b600061227883614276565b60ff16905060005b836001600160401b03168110156123e75782821061231f5773a7e24f80E66bb09819D813e9c4b1B176e22C2d446365acccba6040518163ffffffff1660e01b815260040160206040518083038186803b1580156122dc57600080fd5b505af41580156122f0573d6000803e3d6000fd5b505050506040513d601f19601f8201168201806040525081019061231491906146a4565b965050505050610cc5565b600073a7e24f80E66bb09819D813e9c4b1B176e22C2d4463758a15c862ffffff198b1661234c8688614b1c565b600e6040518463ffffffff1660e01b815260040161236c939291906148d2565b60206040518083038186803b15801561238457600080fd5b505af4158015612398573d6000803e3d6000fd5b505050506040513d601f19601f820116820180604052508101906123bc91906146a4565b90506123c781612ed6565b6123d19084614947565b92505080806123df90614b8b565b915050612280565b508181146124755773a7e24f80E66bb09819D813e9c4b1B176e22C2d446365acccba6040518163ffffffff1660e01b815260040160206040518083038186803b15801561243357600080fd5b505af4158015612447573d6000803e3d6000fd5b505050506040513d601f19601f8201168201806040525081019061246b91906146a4565b9550505050610cc5565b73a7e24f80E66bb09819D813e9c4b1B176e22C2d446308d5a72762ffffff198916600f5b6040518363ffffffff1660e01b81526004016124b69291906148f7565b60206040518083038186803b1580156124ce57600080fd5b505af41580156124e2573d6000803e3d6000fd5b505050506040513d601f19601f8201168201806040525081019061250691906146a4565b979650505050505050565b6000818173a7e24f80E66bb09819D813e9c4b1B176e22C2d4463a60a728262ffffff198416836040518363ffffffff1660e01b81526004016125549291906148f7565b60206040518083038186803b15801561256c57600080fd5b505af4158015612580573d6000803e3d6000fd5b505050506040513d601f19601f820116820180604052508101906125a491906146a4565b50604051639cb855cb60e01b815273a7e24f80E66bb09819D813e9c4b1B176e22C2d4490639cb855cb906125e29062ffffff19881690600401614843565b60206040518083038186803b1580156125fa57600080fd5b505af415801561260e573d6000803e3d6000fd5b505050506040513d601f19601f8201168201806040525081019061263291906147ed565b6001600160601b03166126835773a7e24f80E66bb09819D813e9c4b1B176e22C2d446365acccba6040518163ffffffff1660e01b815260040160206040518083038186803b15801561111957600080fd5b6000612690856000610783565b604051639cb855cb60e01b815290915060009073a7e24f80E66bb09819D813e9c4b1B176e22C2d4490639cb855cb906126d39062ffffff198a1690600401614843565b60206040518083038186803b1580156126eb57600080fd5b505af41580156126ff573d6000803e3d6000fd5b505050506040513d601f19601f8201168201806040525081019061272391906147ed565b6001600160601b031690506001600160401b0382166127805773a7e24f80E66bb09819D813e9c4b1B176e22C2d446365acccba6040518163ffffffff1660e01b815260040160206040518083038186803b15801561222c57600080fd5b600061278b83614276565b60ff16905060005b836001600160401b03168110156128b7578282106127ef5773a7e24f80E66bb09819D813e9c4b1B176e22C2d446365acccba6040518163ffffffff1660e01b815260040160206040518083038186803b1580156122dc57600080fd5b600073a7e24f80E66bb09819D813e9c4b1B176e22C2d4463758a15c862ffffff198b1661281c8688614b1c565b60056040518463ffffffff1660e01b815260040161283c939291906148d2565b60206040518083038186803b15801561285457600080fd5b505af4158015612868573d6000803e3d6000fd5b505050506040513d601f19601f8201168201806040525081019061288c91906146a4565b905061289781611d42565b6128a19084614947565b92505080806128af90614b8b565b915050612793565b508181146129035773a7e24f80E66bb09819D813e9c4b1B176e22C2d446365acccba6040518163ffffffff1660e01b815260040160206040518083038186803b15801561243357600080fd5b73a7e24f80E66bb09819D813e9c4b1B176e22C2d446308d5a72762ffffff1989166006612499565b6000818173a7e24f80E66bb09819D813e9c4b1B176e22C2d4463a60a728262ffffff198416836040518363ffffffff1660e01b815260040161296e9291906148f7565b60206040518083038186803b15801561298657600080fd5b505af415801561299a573d6000803e3d6000fd5b505050506040513d601f19601f820116820180604052508101906129be91906146a4565b50604051639cb855cb60e01b815273a7e24f80E66bb09819D813e9c4b1B176e22C2d4490639cb855cb906129fc9062ffffff19881690600401614843565b60206040518083038186803b158015612a1457600080fd5b505af4158015612a28573d6000803e3d6000fd5b505050506040513d601f19601f82011682018060405250810190612a4c91906147ed565b6001600160601b0316612a9d5773a7e24f80E66bb09819D813e9c4b1B176e22C2d446365acccba6040518163ffffffff1660e01b815260040160206040518083038186803b15801561111957600080fd5b6000612aaa856000610783565b905080612ab682614276565b60ff16612ac3919061495f565b604051639cb855cb60e01b81526001600160401b03919091169073a7e24f80E66bb09819D813e9c4b1B176e22C2d4490639cb855cb90612b0d9062ffffff198a1690600401614843565b60206040518083038186803b158015612b2557600080fd5b505af4158015612b39573d6000803e3d6000fd5b505050506040513d601f19601f82011682018060405250810190612b5d91906147ed565b6001600160601b03161415612c04576040516308d5a72760e01b815273a7e24f80E66bb09819D813e9c4b1B176e22C2d44906308d5a72790612bac9062ffffff198916906007906004016148f7565b60206040518083038186803b158015612bc457600080fd5b505af4158015612bd8573d6000803e3d6000fd5b505050506040513d601f19601f82011682018060405250810190612bfc91906146a4565b935050610cc5565b73a7e24f80E66bb09819D813e9c4b1B176e22C2d446365acccba6040518163ffffffff1660e01b815260040160206040518083038186803b158015612bc457600080fd5b600081600d73a7e24f80E66bb09819D813e9c4b1B176e22C2d4463a60a728262ffffff198416836040518363ffffffff1660e01b8152600401612c8c9291906148f7565b60206040518083038186803b158015612ca457600080fd5b505af4158015612cb8573d6000803e3d6000fd5b505050506040513d601f19601f82011682018060405250810190612cdc91906146a4565b506000612cea856008610783565b9050600073a7e24f80E66bb09819D813e9c4b1B176e22C2d44636e7ece2e62ffffff198816600885612d1b81614276565b60ff16612d28919061495f565b60076040518563ffffffff1660e01b8152600401612d49949392919061489f565b60206040518083038186803b158015612d6157600080fd5b505af4158015612d75573d6000803e3d6000fd5b505050506040513d601f19601f82011682018060405250810190612d9991906146a4565b905073a7e24f80E66bb09819D813e9c4b1B176e22C2d446338c17a3f62ffffff198316612dc585614276565b6040516001600160e01b031960e085901b16815262ffffff19909216600483015260ff908116602483015285166044820152606401610f3f565b600081600373a7e24f80E66bb09819D813e9c4b1B176e22C2d4463a60a728262ffffff198416836040518363ffffffff1660e01b8152600401612e439291906148f7565b60206040518083038186803b158015612e5b57600080fd5b505af4158015612e6f573d6000803e3d6000fd5b505050506040513d601f19601f82011682018060405250810190612e9391906146a4565b5060405163c197cfef60e01b815273a7e24f80E66bb09819D813e9c4b1B176e22C2d449063c197cfef90610c729062ffffff198816906020906004908101614854565b600081600e73a7e24f80E66bb09819D813e9c4b1B176e22C2d4463a60a728262ffffff198416836040518363ffffffff1660e01b8152600401612f1a9291906148f7565b60206040518083038186803b158015612f3257600080fd5b505af4158015612f46573d6000803e3d6000fd5b505050506040513d601f19601f82011682018060405250810190612f6a91906146a4565b506000612f78856008610783565b9050806001600160401b0316612f8d82614276565b60ff16612f9a9190614947565b611e1c906008614947565b6040516338c17a3f60e01b815260009073a7e24f80E66bb09819D813e9c4b1B176e22C2d44906338c17a3f90611f6d9062ffffff19861690602490602090600401614854565b6000818173a7e24f80E66bb09819D813e9c4b1B176e22C2d4463a60a728262ffffff198416836040518363ffffffff1660e01b815260040161302e9291906148f7565b60206040518083038186803b15801561304657600080fd5b505af415801561305a573d6000803e3d6000fd5b505050506040513d601f19601f8201168201806040525081019061307e91906146a4565b50604051639cb855cb60e01b815260509073a7e24f80E66bb09819D813e9c4b1B176e22C2d4490639cb855cb906130bf9062ffffff19891690600401614843565b60206040518083038186803b1580156130d757600080fd5b505af41580156130eb573d6000803e3d6000fd5b505050506040513d601f19601f8201168201806040525081019061310f91906147ed565b6131199190614bba565b6001600160601b03161561316b5773a7e24f80E66bb09819D813e9c4b1B176e22C2d446365acccba6040518163ffffffff1660e01b815260040160206040518083038186803b15801561111957600080fd5b73a7e24f80E66bb09819D813e9c4b1B176e22C2d446308d5a72762ffffff198616601161117c565b600081600773a7e24f80E66bb09819D813e9c4b1B176e22C2d4463a60a728262ffffff198416836040518363ffffffff1660e01b81526004016131d79291906148f7565b60206040518083038186803b1580156131ef57600080fd5b505af4158015613203573d6000803e3d6000fd5b505050506040513d601f19601f8201168201806040525081019061322791906146a4565b50604051639cb855cb60e01b815260009073a7e24f80E66bb09819D813e9c4b1B176e22C2d4490639cb855cb906132689062ffffff19891690600401614843565b60206040518083038186803b15801561328057600080fd5b505af4158015613294573d6000803e3d6000fd5b505050506040513d601f19601f820116820180604052508101906132b891906147ed565b6001600160601b0316905060006132d0866000610783565b6001600160401b0316905060228111806132ea5750601681105b806132ff5750816132fc826001614947565b14155b156133485773a7e24f80E66bb09819D813e9c4b1B176e22C2d446365acccba6040518163ffffffff1660e01b815260040160206040518083038186803b15801561222c57600080fd5b8060191480156133ec575060405163da98f02b60e01b815273a7e24f80E66bb09819D813e9c4b1B176e22C2d449063da98f02b906133959062ffffff198a16906000906004908101614854565b60206040518083038186803b1580156133ad57600080fd5b505af41580156133c1573d6000803e3d6000fd5b505050506040513d601f19601f820116820180604052508101906133e59190614703565b631976a914145b8015613494575073a7e24f80E66bb09819D813e9c4b1B176e22C2d4463da98f02b62ffffff19881661341f600286614b1c565b60026040518463ffffffff1660e01b815260040161343f93929190614854565b60206040518083038186803b15801561345757600080fd5b505af415801561346b573d6000803e3d6000fd5b505050506040513d601f19601f8201168201806040525081019061348f9190614703565b6188ac145b156134f85773a7e24f80E66bb09819D813e9c4b1B176e22C2d44636e7ece2e62ffffff1988166004601460085b6040518563ffffffff1660e01b81526004016134e09493929190614875565b60206040518083038186803b15801561222c57600080fd5b80601714801561359c575060405163da98f02b60e01b815273a7e24f80E66bb09819D813e9c4b1B176e22C2d449063da98f02b906135469062ffffff198a1690600090600390600401614854565b60206040518083038186803b15801561355e57600080fd5b505af4158015613572573d6000803e3d6000fd5b505050506040513d601f19601f820116820180604052508101906135969190614703565b6217a914145b8015613643575073a7e24f80E66bb09819D813e9c4b1B176e22C2d4463da98f02b62ffffff1988166135cf600186614b1c565b60016040518463ffffffff1660e01b81526004016135ef93929190614854565b60206040518083038186803b15801561360757600080fd5b505af415801561361b573d6000803e3d6000fd5b505050506040513d601f19601f8201168201806040525081019061363f9190614703565b6087145b156136745773a7e24f80E66bb09819D813e9c4b1B176e22C2d44636e7ece2e62ffffff19881660036014600b6134c1565b60405163da98f02b60e01b815273a7e24f80E66bb09819D813e9c4b1B176e22C2d449063da98f02b906136b69062ffffff198a16906001908190600401614854565b60206040518083038186803b1580156136ce57600080fd5b505af41580156136e2573d6000803e3d6000fd5b505050506040513d601f19601f820116820180604052508101906137069190614703565b6138a45760405163da98f02b60e01b815260009073a7e24f80E66bb09819D813e9c4b1B176e22C2d449063da98f02b906137509062ffffff198b1690600290600190600401614854565b60206040518083038186803b15801561376857600080fd5b505af415801561377c573d6000803e3d6000fd5b505050506040513d601f19601f820116820180604052508101906137a09190614703565b9050816022141580156137b4575081601614155b806137c957506137c5600283614b1c565b8114155b156138125773a7e24f80E66bb09819D813e9c4b1B176e22C2d446365acccba6040518163ffffffff1660e01b815260040160206040518083038186803b15801561243357600080fd5b600081602014613823576009613826565b600a5b601481111561384557634e487b7160e01b600052602160045260246000fd5b60405163373f671760e11b815290915073a7e24f80E66bb09819D813e9c4b1B176e22C2d4490636e7ece2e9061388c9062ffffff198c169060039087908790600401614875565b60206040518083038186803b1580156122dc57600080fd5b73a7e24f80E66bb09819D813e9c4b1B176e22C2d446365acccba6040518163ffffffff1660e01b815260040160206040518083038186803b1580156138e857600080fd5b505af41580156138fc573d6000803e3d6000fd5b505050506040513d601f19601f82011682018060405250810190610f8f91906146a4565b60008061392d8484614b1c565b905061393d6004621275006149af565b811015613955576139526004621275006149af565b90505b613963621275006004614afd565b81111561397b57613978621275006004614afd565b90505b60008161398b62010000886149af565b6139959190614afd565b90506139a4816212750061467c565b6139b19062010000614afd565b925050505b9392505050565b600081600473a7e24f80E66bb09819D813e9c4b1B176e22C2d4463a60a728262ffffff198416836040518363ffffffff1660e01b8152600401613a019291906148f7565b60206040518083038186803b158015613a1957600080fd5b505af4158015613a2d573d6000803e3d6000fd5b505050506040513d601f19601f82011682018060405250810190613a5191906146a4565b506000613a5f856024610783565b905073a7e24f80E66bb09819D813e9c4b1B176e22C2d44636e7ece2e62ffffff198716602484613a8e81614276565b60ff16613a9b919061495f565b60025b6040518563ffffffff1660e01b8152600401613abd949392919061489f565b60206040518083038186803b158015613ad557600080fd5b505af4158015613ae9573d6000803e3d6000fd5b505050506040513d601f19601f82011682018060405250810190611e1c91906146a4565b600081601073a7e24f80E66bb09819D813e9c4b1B176e22C2d4463a60a728262ffffff198416836040518363ffffffff1660e01b8152600401613b519291906148f7565b60206040518083038186803b158015613b6957600080fd5b505af4158015613b7d573d6000803e3d6000fd5b505050506040513d601f19601f82011682018060405250810190613ba191906146a4565b50610cc261029a85611a6b565b600081600d73a7e24f80E66bb09819D813e9c4b1B176e22C2d4463a60a728262ffffff198416836040518363ffffffff1660e01b8152600401613bf29291906148f7565b60206040518083038186803b158015613c0a57600080fd5b505af4158015613c1e573d6000803e3d6000fd5b505050506040513d601f19601f82011682018060405250810190613c4291906146a4565b506040516338c17a3f60e01b815273a7e24f80E66bb09819D813e9c4b1B176e22C2d44906338c17a3f90610c729062ffffff19881690600090600890600401614854565b600082601173a7e24f80E66bb09819D813e9c4b1B176e22C2d4463a60a728262ffffff198416836040518363ffffffff1660e01b8152600401613cca9291906148f7565b60206040518083038186803b158015613ce257600080fd5b505af4158015613cf6573d6000803e3d6000fd5b505050506040513d601f19601f82011682018060405250810190613d1a91906146a4565b506000613d28856050614afd565b60405163373f671760e11b815290915073a7e24f80E66bb09819D813e9c4b1B176e22C2d4490636e7ece2e90613d709062ffffff198a16908590605090601090600401614875565b60206040518083038186803b1580156138e857600080fd5b600081600473a7e24f80E66bb09819D813e9c4b1B176e22C2d4463a60a728262ffffff198416836040518363ffffffff1660e01b8152600401613dcc9291906148f7565b60206040518083038186803b158015613de457600080fd5b505af4158015613df8573d6000803e3d6000fd5b505050506040513d601f19601f82011682018060405250810190613e1c91906146a4565b5060405163373f671760e11b815273a7e24f80E66bb09819D813e9c4b1B176e22C2d4490636e7ece2e906111999062ffffff19881690600090602490600390600401614875565b600081601073a7e24f80E66bb09819D813e9c4b1B176e22C2d4463a60a728262ffffff198416836040518363ffffffff1660e01b8152600401613ea79291906148f7565b60206040518083038186803b158015613ebf57600080fd5b505af4158015613ed3573d6000803e3d6000fd5b505050506040513d601f19601f82011682018060405250810190613ef791906146a4565b5060405163c197cfef60e01b815273a7e24f80E66bb09819D813e9c4b1B176e22C2d449063c197cfef90610c729062ffffff198816906044906004908101614854565b600081600773a7e24f80E66bb09819D813e9c4b1B176e22C2d4463a60a728262ffffff198416836040518363ffffffff1660e01b8152600401613f7e9291906148f7565b60206040518083038186803b158015613f9657600080fd5b505af4158015613faa573d6000803e3d6000fd5b505050506040513d601f19601f82011682018060405250810190613fce91906146a4565b506000613fdc856000610783565b60405163da98f02b60e01b815290915060009073a7e24f80E66bb09819D813e9c4b1B176e22C2d449063da98f02b906140259062ffffff198a1690600390600190600401614854565b60206040518083038186803b15801561403d57600080fd5b505af4158015614051573d6000803e3d6000fd5b505050506040513d601f19601f820116820180604052508101906140759190614703565b90506053826001600160401b0316118061409857506004826001600160401b0316105b80614135575060405163da98f02b60e01b815273a7e24f80E66bb09819D813e9c4b1B176e22C2d449063da98f02b906140e09062ffffff198a16906001908190600401614854565b60206040518083038186803b1580156140f857600080fd5b505af415801561410c573d6000803e3d6000fd5b505050506040513d601f19601f820116820180604052508101906141309190614703565b606a14155b806141e95750614146600383614b33565b60405163da98f02b60e01b81526001600160401b03919091169073a7e24f80E66bb09819D813e9c4b1B176e22C2d449063da98f02b906141969062ffffff198b1690600390600190600401614854565b60206040518083038186803b1580156141ae57600080fd5b505af41580156141c2573d6000803e3d6000fd5b505050506040513d601f19601f820116820180604052508101906141e69190614703565b14155b156142325773a7e24f80E66bb09819D813e9c4b1B176e22C2d446365acccba6040518163ffffffff1660e01b815260040160206040518083038186803b15801561222c57600080fd5b60405163373f671760e11b815273a7e24f80E66bb09819D813e9c4b1B176e22C2d4490636e7ece2e90613d709062ffffff198a16906004908690600c90830161489f565b600060fc826001600160401b0316116142915750600161077e565b61ffff826001600160401b0316116142ab5750600361077e565b63ffffffff826001600160401b0316116142c75750600561077e565b50600961077e565b600081601073a7e24f80E66bb09819D813e9c4b1B176e22C2d4463a60a728262ffffff198416836040518363ffffffff1660e01b81526004016143139291906148f7565b60206040518083038186803b15801561432b57600080fd5b505af415801561433f573d6000803e3d6000fd5b505050506040513d601f19601f8201168201806040525081019061436391906146a4565b506040516307f6f12360e21b815273a7e24f80E66bb09819D813e9c4b1B176e22C2d4490631fdbc48c90610c729062ffffff19881690600401614843565b600081600d73a7e24f80E66bb09819D813e9c4b1B176e22C2d4463a60a728262ffffff198416836040518363ffffffff1660e01b81526004016143e59291906148f7565b60206040518083038186803b1580156143fd57600080fd5b505af4158015614411573d6000803e3d6000fd5b505050506040513d601f19601f8201168201806040525081019061443591906146a4565b506000614443856008610783565b905073a7e24f80E66bb09819D813e9c4b1B176e22C2d44636e7ece2e62ffffff19871660088461447281614276565b60ff1661447f919061495f565b6007613a9e565b604051639cb855cb60e01b815260609060009073a7e24f80E66bb09819D813e9c4b1B176e22C2d449063a1ce10e690829063da98f02b9062ffffff1988169086908490639cb855cb906144dd908590600401614843565b60206040518083038186803b1580156144f557600080fd5b505af4158015614509573d6000803e3d6000fd5b505050506040513d601f19601f8201168201806040525081019061452d91906147ed565b6040518463ffffffff1660e01b815260040161454b93929190614854565b60206040518083038186803b15801561456357600080fd5b505af4158015614577573d6000803e3d6000fd5b505050506040513d601f19601f8201168201806040525081019061459b9190614703565b6040518263ffffffff1660e01b81526004016145b991815260200190565b604080518083038186803b1580156145d057600080fd5b505af41580156145e4573d6000803e3d6000fd5b505050506040513d601f19601f820116820180604052508101906146089190614778565b604080517f4e6f6e2d6d696e696d616c2076617220696e742e20476f7420307800000000006020820152607083901b6dffffffffffffffffffffffffffff1916603b8201528151602d818303018152604d82019283905262461bcd60e51b909252919350915061150f908290605101614914565b60006139b682846149af565b600060208284031215614699578081fd5b81356139b681614c0c565b6000602082840312156146b5578081fd5b81516139b681614c0c565b600080604083850312156146d2578081fd5b82356146dd81614c0c565b946020939093013593505050565b6000602082840312156146fc578081fd5b5035919050565b600060208284031215614714578081fd5b5051919050565b60008060008060808587031215614730578182fd5b84359350602085013561474281614c0c565b93969395505050506040820135916060013590565b60008060408385031215614769578182fd5b50508035926020909101359150565b6000806040838503121561478a578182fd5b505080516020909101519092909150565b6000806000606084860312156147af578283fd5b505081359360208301359350604090920135919050565b6000602082840312156147d7578081fd5b81356001600160401b03811681146139b6578182fd5b6000602082840312156147fe578081fd5b81516001600160601b03811681146139b6578182fd5b60008351614826818460208801614b5b565b6001600160f81b0319939093169190920190815260010192915050565b62ffffff1991909116815260200190565b62ffffff19939093168352602083019190915260ff16604082015260600190565b62ffffff199490941684526020840192909252604083015264ffffffffff16606082015260800190565b62ffffff1994909416845260208401929092526001600160401b0316604083015264ffffffffff16606082015260800190565b62ffffff19939093168352602083019190915264ffffffffff16604082015260600190565b62ffffff1992909216825264ffffffffff16602082015260400190565b6000602082528251806020840152614933816040850160208701614b5b565b601f01601f19169190910160400192915050565b6000821982111561495a5761495a614be0565b500190565b60006001600160401b0380831681851680830382111561498157614981614be0565b01949350505050565b600060ff821660ff84168060ff038211156149a7576149a7614be0565b019392505050565b6000826149be576149be614bf6565b500490565b60006001600160601b03808416806149dd576149dd614bf6565b92169190910492915050565b80825b60018086116149fb5750614a26565b818704821115614a0d57614a0d614be0565b80861615614a1a57918102915b9490941c9380026149ec565b94509492505050565b60006139b66000198484600082614a48575060016139b6565b81614a55575060006139b6565b8160018114614a6b5760028114614a7557614aa2565b60019150506139b6565b60ff841115614a8657614a86614be0565b6001841b915084821115614a9c57614a9c614be0565b506139b6565b5060208310610133831016604e8410600b8410161715614ad5575081810a83811115614ad057614ad0614be0565b6139b6565b614ae284848460016149e9565b808604821115614af457614af4614be0565b02949350505050565b6000816000190483118215151615614b1757614b17614be0565b500290565b600082821015614b2e57614b2e614be0565b500390565b60006001600160401b0383811690831681811015614b5357614b53614be0565b039392505050565b60005b83811015614b76578181015183820152602001614b5e565b83811115614b85576000848401525b50505050565b6000600019821415614b9f57614b9f614be0565b5060010190565b600082614bb557614bb5614bf6565b500690565b60006001600160601b0380841680614bd457614bd4614bf6565b92169190910692915050565b634e487b7160e01b600052601160045260246000fd5b634e487b7160e01b600052601260045260246000fd5b62ffffff1981168114614c1e57600080fd5b5056fea264697066735822122008ad39fdea71e405608bf2f5cdcdacc97a8cecf6ac3ba1d91b8839387d5b574064736f6c63430008020033",
  "deployedBytecode": "0x73000000000000000000000000000000000000000030146080604052600436106102475760003560e01c80638c1be5c911610145578063cddb4507116100c2578063f172b06011610086578063f172b0601461052e578063f594d59f14610541578063f867eaac14610554578063f89fd37514610579578063fe5a59b61461058c57610247565b8063cddb4507146104bd578063d4258ca7146104d0578063dccd7f0f146104dc578063df90556114610508578063e6e3b2be1461051b57610247565b80639dbf87aa116101095780639dbf87aa1461045e578063a54d8e6414610471578063ade29ec114610484578063b259123214610497578063cb71c49b146104aa57610247565b80638c1be5c9146104095780638cc715691461041c578063905bf5281461042557806393c90681146104385780639d8e299f1461044b57610247565b80634ed7e908116101d3578063701acc1f11610197578063701acc1f146103aa578063707de626146103bd578063746a1631146103d05780637e5dc0eb146103e357806388330e53146103f657610247565b80634ed7e9081461034b57806357315b481461035e57806360234fc51461037157806362ef7dad146103845780636c3029ad1461039757610247565b80632ea56fa11161021a5780632ea56fa1146102ca578063372da9ed146102dd5780633c445e3c146102f0578063451f393d14610303578063454495e61461032b57610247565b8063056e04ec1461024c57806307d1afa914610269578063097948031461028c578063208d043a1461029f575b600080fd5b6102566212750081565b6040519081526020015b60405180910390f35b61027c61027736600461471b565b61059f565b6040519015158152602001610260565b61025661029a3660046146eb565b61076a565b6102b26102ad3660046146c0565b610783565b6040516001600160401b039091168152602001610260565b6102566102d8366004614688565b610b9a565b6102566102eb366004614688565b610ccc565b6102566102fe3660046146eb565b610da8565b610316610311366004614688565b610e28565b60405163ffffffff9091168152602001610260565b61033e610339366004614688565b610f99565b6040516102609190614843565b61033e610359366004614688565b6111e9565b61033e61036c3660046146c0565b611386565b61033e61037f3660046146c0565b611745565b610256610392366004614688565b611a6b565b6102566103a5366004614688565b611d42565b6102566103b8366004614757565b611e25565b6102566103cb366004614688565b611e51565b6102b26103de366004614688565b611f28565b61033e6103f1366004614688565b611fbd565b61033e610404366004614688565b612511565b61033e610417366004614688565b61292b565b6102566107e081565b610256610433366004614688565b612c48565b610316610446366004614688565b612dff565b610256610459366004614688565b612ed6565b61025661046c366004614688565b612fa5565b61033e61047f366004614688565b612feb565b61033e610492366004614688565b613193565b6102566104a536600461479b565b613920565b61033e6104b8366004614688565b6139bd565b6102566104cb366004614688565b613b0d565b61025661ffff60d01b81565b6104ef6104ea366004614688565b613bae565b6040516001600160c01b03199091168152602001610260565b61033e6105163660046146c0565b613c86565b61033e610529366004614688565b613d88565b61031661053c366004614688565b613e63565b61033e61054f366004614688565b613f3a565b6105676105623660046147c6565b614276565b60405160ff9091168152602001610260565b610256610587366004614688565b6142cf565b61033e61059a366004614688565b6143a1565b604051639cb855cb60e01b8152600090819060209073__$23851852cf97a1ff2525b5bae2bad8f731$__90639cb855cb906105e49062ffffff198a1690600401614843565b60206040518083038186803b1580156105fc57600080fd5b505af4158015610610573d6000803e3d6000fd5b505050506040513d601f19601f8201168201806040525081019061063491906147ed565b61063e91906149c3565b6001600160601b0316905080610658575050838214610762565b828660005b8381101561075057600073__$23851852cf97a1ff2525b5bae2bad8f731$__6338c17a3f62ffffff198b16610693856020614afd565b60206040518463ffffffff1660e01b81526004016106b393929190614854565b60206040518083038186803b1580156106cb57600080fd5b505af41580156106df573d6000803e3d6000fd5b505050506040513d601f19601f820116820180604052508101906107039190614703565b9050610710600285614ba6565b60011415610729576107228184611e25565b9250610736565b6107338382611e25565b92505b5060019290921c918061074881614b8b565b91505061065d565b508561075b82610da8565b1493505050505b949350505050565b600061077b8261ffff60d01b6149af565b90505b919050565b60405163da98f02b60e01b8152600090819073__$23851852cf97a1ff2525b5bae2bad8f731$__9063da98f02b906107ca9062ffffff198816908790600190600401614854565b60206040518083038186803b1580156107e257600080fd5b505af41580156107f6573d6000803e3d6000fd5b505050506040513d601f19601f8201168201806040525081019061081a9190614703565b905060fc811161082b579050610b94565b8060fd141561098a5773__$23851852cf97a1ff2525b5bae2bad8f731$__63c197cfef62ffffff198616610860866001614947565b60026040518463ffffffff1660e01b815260040161088093929190614854565b60206040518083038186803b15801561089857600080fd5b505af41580156108ac573d6000803e3d6000fd5b505050506040513d601f19601f820116820180604052508101906108d09190614703565b91506108db82614276565b60ff166003146109855760405163373f671760e11b81526109839073__$23851852cf97a1ff2525b5bae2bad8f731$__90636e7ece2e9061092e9062ffffff198916908890600390600090600401614875565b60206040518083038186803b15801561094657600080fd5b505af415801561095a573d6000803e3d6000fd5b505050506040513d601f19601f8201168201806040525081019061097e91906146a4565b614486565b505b610b92565b8060fe1415610a8d5773__$23851852cf97a1ff2525b5bae2bad8f731$__63c197cfef62ffffff1986166109bf866001614947565b60046040518463ffffffff1660e01b81526004016109df93929190614854565b60206040518083038186803b1580156109f757600080fd5b505af4158015610a0b573d6000803e3d6000fd5b505050506040513d601f19601f82011682018060405250810190610a2f9190614703565b9150610a3a82614276565b60ff166005146109855760405163373f671760e11b81526109839073__$23851852cf97a1ff2525b5bae2bad8f731$__90636e7ece2e9061092e9062ffffff198916908890600590600090600401614875565b8060ff1415610b925773__$23851852cf97a1ff2525b5bae2bad8f731$__63c197cfef62ffffff198616610ac2866001614947565b60086040518463ffffffff1660e01b8152600401610ae293929190614854565b60206040518083038186803b158015610afa57600080fd5b505af4158015610b0e573d6000803e3d6000fd5b505050506040513d601f19601f82011682018060405250810190610b329190614703565b9150610b3d82614276565b60ff16600914610b925760405163373f671760e11b8152610b909073__$23851852cf97a1ff2525b5bae2bad8f731$__90636e7ece2e9061092e9062ffffff198916908890600990600090600401614875565b505b505b92915050565b600081600373__$23851852cf97a1ff2525b5bae2bad8f731$__63a60a728262ffffff198416836040518363ffffffff1660e01b8152600401610bde9291906148f7565b60206040518083038186803b158015610bf657600080fd5b505af4158015610c0a573d6000803e3d6000fd5b505050506040513d601f19601f82011682018060405250810190610c2e91906146a4565b506040516338c17a3f60e01b815273__$23851852cf97a1ff2525b5bae2bad8f731$__906338c17a3f90610c729062ffffff19881690600090602090600401614854565b60206040518083038186803b158015610c8a57600080fd5b505af4158015610c9e573d6000803e3d6000fd5b505050506040513d601f19601f82011682018060405250810190610cc29190614703565b92505b5050919050565b600081601073__$23851852cf97a1ff2525b5bae2bad8f731$__63a60a728262ffffff198416836040518363ffffffff1660e01b8152600401610d109291906148f7565b60206040518083038186803b158015610d2857600080fd5b505af4158015610d3c573d6000803e3d6000fd5b505050506040513d601f19601f82011682018060405250810190610d6091906146a4565b5073__$23851852cf97a1ff2525b5bae2bad8f731$__6340bec88f610d84866142cf565b60405160e083901b6001600160e01b03191681526004810191909152602401610c72565b6000606081805b6020811015610e1c578285610dc583601f614b1c565b60208110610de357634e487b7160e01b600052603260045260246000fd5b1a60f81b604051602001610df8929190614814565b60405160208183030381529060405292508080610e1490614b8b565b915050610daf565b50506020015192915050565b600081600473__$23851852cf97a1ff2525b5bae2bad8f731$__63a60a728262ffffff198416836040518363ffffffff1660e01b8152600401610e6c9291906148f7565b60206040518083038186803b158015610e8457600080fd5b505af4158015610e98573d6000803e3d6000fd5b505050506040513d601f19601f82011682018060405250810190610ebc91906146a4565b506000610eca856024610783565b9050600081610ed883614276565b610ee390602461498a565b60ff16610ef0919061495f565b60405163c197cfef60e01b81526001600160401b0391909116915073__$23851852cf97a1ff2525b5bae2bad8f731$__9063c197cfef90610f3f9062ffffff198a169085906004908101614854565b60206040518083038186803b158015610f5757600080fd5b505af4158015610f6b573d6000803e3d6000fd5b505050506040513d601f19601f82011682018060405250810190610f8f9190614703565b9695505050505050565b6000818173__$23851852cf97a1ff2525b5bae2bad8f731$__63a60a728262ffffff198416836040518363ffffffff1660e01b8152600401610fdc9291906148f7565b60206040518083038186803b158015610ff457600080fd5b505af4158015611008573d6000803e3d6000fd5b505050506040513d601f19601f8201168201806040525081019061102c91906146a4565b50604051639cb855cb60e01b815260209073__$23851852cf97a1ff2525b5bae2bad8f731$__90639cb855cb9061106d9062ffffff19891690600401614843565b60206040518083038186803b15801561108557600080fd5b505af4158015611099573d6000803e3d6000fd5b505050506040513d601f19601f820116820180604052508101906110bd91906147ed565b6110c79190614bba565b6001600160601b0316156111585773__$23851852cf97a1ff2525b5bae2bad8f731$__6365acccba6040518163ffffffff1660e01b815260040160206040518083038186803b15801561111957600080fd5b505af415801561112d573d6000803e3d6000fd5b505050506040513d601f19601f8201168201806040525081019061115191906146a4565b9250610cc5565b73__$23851852cf97a1ff2525b5bae2bad8f731$__6308d5a72762ffffff19861660145b6040518363ffffffff1660e01b81526004016111999291906148f7565b60206040518083038186803b1580156111b157600080fd5b505af41580156111c5573d6000803e3d6000fd5b505050506040513d601f19601f82011682018060405250810190610cc291906146a4565b6000818173__$23851852cf97a1ff2525b5bae2bad8f731$__63a60a728262ffffff198416836040518363ffffffff1660e01b815260040161122c9291906148f7565b60206040518083038186803b15801561124457600080fd5b505af4158015611258573d6000803e3d6000fd5b505050506040513d601f19601f8201168201806040525081019061127c91906146a4565b50604051639cb855cb60e01b815273__$23851852cf97a1ff2525b5bae2bad8f731$__90639cb855cb906112ba9062ffffff19881690600401614843565b60206040518083038186803b1580156112d257600080fd5b505af41580156112e6573d6000803e3d6000fd5b505050506040513d601f19601f8201168201806040525081019061130a91906147ed565b6001600160601b031660501461135e5773__$23851852cf97a1ff2525b5bae2bad8f731$__6365acccba6040518163ffffffff1660e01b815260040160206040518083038186803b15801561111957600080fd5b73__$23851852cf97a1ff2525b5bae2bad8f731$__6308d5a72762ffffff198616601061117c565b600082600673__$23851852cf97a1ff2525b5bae2bad8f731$__63a60a728262ffffff198416836040518363ffffffff1660e01b81526004016113ca9291906148f7565b60206040518083038186803b1580156113e257600080fd5b505af41580156113f6573d6000803e3d6000fd5b505050506040513d601f19601f8201168201806040525081019061141a91906146a4565b506000611428866000610783565b604051639cb855cb60e01b81526001600160401b0391909116915060009073__$23851852cf97a1ff2525b5bae2bad8f731$__90639cb855cb906114769062ffffff198b1690600401614843565b60206040518083038186803b15801561148e57600080fd5b505af41580156114a2573d6000803e3d6000fd5b505050506040513d601f19601f820116820180604052508101906114c691906147ed565b6001600160601b031690508186106115185760405162461bcd60e51b815260206004820152601060248201526f2b34b7103932b0b21037bb32b9393ab760811b60448201526064015b60405180910390fd5b600061152383614276565b60ff1690506000805b888110156115f85773__$23851852cf97a1ff2525b5bae2bad8f731$__63758a15c862ffffff198c1661155f8688614b1c565b60056040518463ffffffff1660e01b815260040161157f939291906148d2565b60206040518083038186803b15801561159757600080fd5b505af41580156115ab573d6000803e3d6000fd5b505050506040513d601f19601f820116820180604052508101906115cf91906146a4565b91506115da82611d42565b6115e49084614947565b92506115f1600182614947565b905061152c565b5073__$23851852cf97a1ff2525b5bae2bad8f731$__63758a15c862ffffff198b166116248587614b1c565b60056040518463ffffffff1660e01b8152600401611644939291906148d2565b60206040518083038186803b15801561165c57600080fd5b505af4158015611670573d6000803e3d6000fd5b505050506040513d601f19601f8201168201806040525081019061169491906146a4565b905060006116a182611d42565b60405163373f671760e11b815290915073__$23851852cf97a1ff2525b5bae2bad8f731$__90636e7ece2e906116e79062ffffff198e1690879086906004908101614875565b60206040518083038186803b1580156116ff57600080fd5b505af4158015611713573d6000803e3d6000fd5b505050506040513d601f19601f8201168201806040525081019061173791906146a4565b9a9950505050505050505050565b600080611753846000610783565b604051639cb855cb60e01b81526001600160401b0391909116915060009073__$23851852cf97a1ff2525b5bae2bad8f731$__90639cb855cb906117a19062ffffff19891690600401614843565b60206040518083038186803b1580156117b957600080fd5b505af41580156117cd573d6000803e3d6000fd5b505050506040513d601f19601f820116820180604052508101906117f191906147ed565b6001600160601b0316905081841061183f5760405162461bcd60e51b81526020600482015260116024820152702b37baba103932b0b21037bb32b9393ab760791b604482015260640161150f565b600061184a83614276565b60ff1690506000805b8681101561191f5773__$23851852cf97a1ff2525b5bae2bad8f731$__63758a15c862ffffff198a166118868688614b1c565b600e6040518463ffffffff1660e01b81526004016118a6939291906148d2565b60206040518083038186803b1580156118be57600080fd5b505af41580156118d2573d6000803e3d6000fd5b505050506040513d601f19601f820116820180604052508101906118f691906146a4565b915061190182612ed6565b61190b9084614947565b9250611918600182614947565b9050611853565b5073__$23851852cf97a1ff2525b5bae2bad8f731$__63758a15c862ffffff19891661194b8587614b1c565b600e6040518463ffffffff1660e01b815260040161196b939291906148d2565b60206040518083038186803b15801561198357600080fd5b505af4158015611997573d6000803e3d6000fd5b505050506040513d601f19601f820116820180604052508101906119bb91906146a4565b905060006119c882612ed6565b60405163373f671760e11b815290915073__$23851852cf97a1ff2525b5bae2bad8f731$__90636e7ece2e90611a0f9062ffffff198c169087908690600d90600401614875565b60206040518083038186803b158015611a2757600080fd5b505af4158015611a3b573d6000803e3d6000fd5b505050506040513d601f19601f82011682018060405250810190611a5f91906146a4565b98975050505050505050565b600081601073__$23851852cf97a1ff2525b5bae2bad8f731$__63a60a728262ffffff198416836040518363ffffffff1660e01b8152600401611aaf9291906148f7565b60206040518083038186803b158015611ac757600080fd5b505af4158015611adb573d6000803e3d6000fd5b505050506040513d601f19601f82011682018060405250810190611aff91906146a4565b5060405163c197cfef60e01b815260009073__$23851852cf97a1ff2525b5bae2bad8f731$__9063c197cfef90611b469062ffffff19891690604890600390600401614854565b60206040518083038186803b158015611b5e57600080fd5b505af4158015611b72573d6000803e3d6000fd5b505050506040513d601f19601f82011682018060405250810190611b969190614703565b60405163da98f02b60e01b815290915060029073__$23851852cf97a1ff2525b5bae2bad8f731$__9063da98f02b90611bdf9062ffffff198a1690604b90600190600401614854565b60206040518083038186803b158015611bf757600080fd5b505af4158015611c0b573d6000803e3d6000fd5b505050506040513d601f19601f82011682018060405250810190611c2f9190614703565b11611c875760405162461bcd60e51b815260206004820152602260248201527f566965774254433a20696e76616c69642074617267657420646966666963756c604482015261747960f01b606482015260840161150f565b60405163da98f02b60e01b815260009060039073__$23851852cf97a1ff2525b5bae2bad8f731$__9063da98f02b90611cd09062ffffff198b1690604b90600190600401614854565b60206040518083038186803b158015611ce857600080fd5b505af4158015611cfc573d6000803e3d6000fd5b505050506040513d601f19601f82011682018060405250810190611d209190614703565b611d2a9190614b1c565b9050611d3881610100614a2f565b610f8f9083614afd565b600081600573__$23851852cf97a1ff2525b5bae2bad8f731$__63a60a728262ffffff198416836040518363ffffffff1660e01b8152600401611d869291906148f7565b60206040518083038186803b158015611d9e57600080fd5b505af4158015611db2573d6000803e3d6000fd5b505050506040513d601f19601f82011682018060405250810190611dd691906146a4565b506000611de4856024610783565b9050806001600160401b0316611df982614276565b60ff16611e069190614947565b611e11906024614947565b611e1c906004614947565b95945050505050565b600060405183815282602082015260208160408360025afa5060208160208360025afa50519392505050565b600081601073__$23851852cf97a1ff2525b5bae2bad8f731$__63a60a728262ffffff198416836040518363ffffffff1660e01b8152600401611e959291906148f7565b60206040518083038186803b158015611ead57600080fd5b505af4158015611ec1573d6000803e3d6000fd5b505050506040513d601f19601f82011682018060405250810190611ee591906146a4565b506040516338c17a3f60e01b815273__$23851852cf97a1ff2525b5bae2bad8f731$__906338c17a3f90610c729062ffffff198816906004906020908201614854565b60405163c197cfef60e01b815260009073__$23851852cf97a1ff2525b5bae2bad8f731$__9063c197cfef90611f6d9062ffffff198616908590600890600401614854565b60206040518083038186803b158015611f8557600080fd5b505af4158015611f99573d6000803e3d6000fd5b505050506040513d601f19601f8201168201806040525081019061077b9190614703565b6000818173__$23851852cf97a1ff2525b5bae2bad8f731$__63a60a728262ffffff198416836040518363ffffffff1660e01b81526004016120009291906148f7565b60206040518083038186803b15801561201857600080fd5b505af415801561202c573d6000803e3d6000fd5b505050506040513d601f19601f8201168201806040525081019061205091906146a4565b50604051639cb855cb60e01b815273__$23851852cf97a1ff2525b5bae2bad8f731$__90639cb855cb9061208e9062ffffff19881690600401614843565b60206040518083038186803b1580156120a657600080fd5b505af41580156120ba573d6000803e3d6000fd5b505050506040513d601f19601f820116820180604052508101906120de91906147ed565b6001600160601b031661212f5773__$23851852cf97a1ff2525b5bae2bad8f731$__6365acccba6040518163ffffffff1660e01b815260040160206040518083038186803b15801561111957600080fd5b600061213c856000610783565b604051639cb855cb60e01b815290915060009073__$23851852cf97a1ff2525b5bae2bad8f731$__90639cb855cb9061217f9062ffffff198a1690600401614843565b60206040518083038186803b15801561219757600080fd5b505af41580156121ab573d6000803e3d6000fd5b505050506040513d601f19601f820116820180604052508101906121cf91906147ed565b6001600160601b031690506001600160401b03821661226d5773__$23851852cf97a1ff2525b5bae2bad8f731$__6365acccba6040518163ffffffff1660e01b815260040160206040518083038186803b15801561222c57600080fd5b505af4158015612240573d6000803e3d6000fd5b505050506040513d601f19601f8201168201806040525081019061226491906146a4565b94505050610cc5565b600061227883614276565b60ff16905060005b836001600160401b03168110156123e75782821061231f5773__$23851852cf97a1ff2525b5bae2bad8f731$__6365acccba6040518163ffffffff1660e01b815260040160206040518083038186803b1580156122dc57600080fd5b505af41580156122f0573d6000803e3d6000fd5b505050506040513d601f19601f8201168201806040525081019061231491906146a4565b965050505050610cc5565b600073__$23851852cf97a1ff2525b5bae2bad8f731$__63758a15c862ffffff198b1661234c8688614b1c565b600e6040518463ffffffff1660e01b815260040161236c939291906148d2565b60206040518083038186803b15801561238457600080fd5b505af4158015612398573d6000803e3d6000fd5b505050506040513d601f19601f820116820180604052508101906123bc91906146a4565b90506123c781612ed6565b6123d19084614947565b92505080806123df90614b8b565b915050612280565b508181146124755773__$23851852cf97a1ff2525b5bae2bad8f731$__6365acccba6040518163ffffffff1660e01b815260040160206040518083038186803b15801561243357600080fd5b505af4158015612447573d6000803e3d6000fd5b505050506040513d601f19601f8201168201806040525081019061246b91906146a4565b9550505050610cc5565b73__$23851852cf97a1ff2525b5bae2bad8f731$__6308d5a72762ffffff198916600f5b6040518363ffffffff1660e01b81526004016124b69291906148f7565b60206040518083038186803b1580156124ce57600080fd5b505af41580156124e2573d6000803e3d6000fd5b505050506040513d601f19601f8201168201806040525081019061250691906146a4565b979650505050505050565b6000818173__$23851852cf97a1ff2525b5bae2bad8f731$__63a60a728262ffffff198416836040518363ffffffff1660e01b81526004016125549291906148f7565b60206040518083038186803b15801561256c57600080fd5b505af4158015612580573d6000803e3d6000fd5b505050506040513d601f19601f820116820180604052508101906125a491906146a4565b50604051639cb855cb60e01b815273__$23851852cf97a1ff2525b5bae2bad8f731$__90639cb855cb906125e29062ffffff19881690600401614843565b60206040518083038186803b1580156125fa57600080fd5b505af415801561260e573d6000803e3d6000fd5b505050506040513d601f19601f8201168201806040525081019061263291906147ed565b6001600160601b03166126835773__$23851852cf97a1ff2525b5bae2bad8f731$__6365acccba6040518163ffffffff1660e01b815260040160206040518083038186803b15801561111957600080fd5b6000612690856000610783565b604051639cb855cb60e01b815290915060009073__$23851852cf97a1ff2525b5bae2bad8f731$__90639cb855cb906126d39062ffffff198a1690600401614843565b60206040518083038186803b1580156126eb57600080fd5b505af41580156126ff573d6000803e3d6000fd5b505050506040513d601f19601f8201168201806040525081019061272391906147ed565b6001600160601b031690506001600160401b0382166127805773__$23851852cf97a1ff2525b5bae2bad8f731$__6365acccba6040518163ffffffff1660e01b815260040160206040518083038186803b15801561222c57600080fd5b600061278b83614276565b60ff16905060005b836001600160401b03168110156128b7578282106127ef5773__$23851852cf97a1ff2525b5bae2bad8f731$__6365acccba6040518163ffffffff1660e01b815260040160206040518083038186803b1580156122dc57600080fd5b600073__$23851852cf97a1ff2525b5bae2bad8f731$__63758a15c862ffffff198b1661281c8688614b1c565b60056040518463ffffffff1660e01b815260040161283c939291906148d2565b60206040518083038186803b15801561285457600080fd5b505af4158015612868573d6000803e3d6000fd5b505050506040513d601f19601f8201168201806040525081019061288c91906146a4565b905061289781611d42565b6128a19084614947565b92505080806128af90614b8b565b915050612793565b508181146129035773__$23851852cf97a1ff2525b5bae2bad8f731$__6365acccba6040518163ffffffff1660e01b815260040160206040518083038186803b15801561243357600080fd5b73__$23851852cf97a1ff2525b5bae2bad8f731$__6308d5a72762ffffff1989166006612499565b6000818173__$23851852cf97a1ff2525b5bae2bad8f731$__63a60a728262ffffff198416836040518363ffffffff1660e01b815260040161296e9291906148f7565b60206040518083038186803b15801561298657600080fd5b505af415801561299a573d6000803e3d6000fd5b505050506040513d601f19601f820116820180604052508101906129be91906146a4565b50604051639cb855cb60e01b815273__$23851852cf97a1ff2525b5bae2bad8f731$__90639cb855cb906129fc9062ffffff19881690600401614843565b60206040518083038186803b158015612a1457600080fd5b505af4158015612a28573d6000803e3d6000fd5b505050506040513d601f19601f82011682018060405250810190612a4c91906147ed565b6001600160601b0316612a9d5773__$23851852cf97a1ff2525b5bae2bad8f731$__6365acccba6040518163ffffffff1660e01b815260040160206040518083038186803b15801561111957600080fd5b6000612aaa856000610783565b905080612ab682614276565b60ff16612ac3919061495f565b604051639cb855cb60e01b81526001600160401b03919091169073__$23851852cf97a1ff2525b5bae2bad8f731$__90639cb855cb90612b0d9062ffffff198a1690600401614843565b60206040518083038186803b158015612b2557600080fd5b505af4158015612b39573d6000803e3d6000fd5b505050506040513d601f19601f82011682018060405250810190612b5d91906147ed565b6001600160601b03161415612c04576040516308d5a72760e01b815273__$23851852cf97a1ff2525b5bae2bad8f731$__906308d5a72790612bac9062ffffff198916906007906004016148f7565b60206040518083038186803b158015612bc457600080fd5b505af4158015612bd8573d6000803e3d6000fd5b505050506040513d601f19601f82011682018060405250810190612bfc91906146a4565b935050610cc5565b73__$23851852cf97a1ff2525b5bae2bad8f731$__6365acccba6040518163ffffffff1660e01b815260040160206040518083038186803b158015612bc457600080fd5b600081600d73__$23851852cf97a1ff2525b5bae2bad8f731$__63a60a728262ffffff198416836040518363ffffffff1660e01b8152600401612c8c9291906148f7565b60206040518083038186803b158015612ca457600080fd5b505af4158015612cb8573d6000803e3d6000fd5b505050506040513d601f19601f82011682018060405250810190612cdc91906146a4565b506000612cea856008610783565b9050600073__$23851852cf97a1ff2525b5bae2bad8f731$__636e7ece2e62ffffff198816600885612d1b81614276565b60ff16612d28919061495f565b60076040518563ffffffff1660e01b8152600401612d49949392919061489f565b60206040518083038186803b158015612d6157600080fd5b505af4158015612d75573d6000803e3d6000fd5b505050506040513d601f19601f82011682018060405250810190612d9991906146a4565b905073__$23851852cf97a1ff2525b5bae2bad8f731$__6338c17a3f62ffffff198316612dc585614276565b6040516001600160e01b031960e085901b16815262ffffff19909216600483015260ff908116602483015285166044820152606401610f3f565b600081600373__$23851852cf97a1ff2525b5bae2bad8f731$__63a60a728262ffffff198416836040518363ffffffff1660e01b8152600401612e439291906148f7565b60206040518083038186803b158015612e5b57600080fd5b505af4158015612e6f573d6000803e3d6000fd5b505050506040513d601f19601f82011682018060405250810190612e9391906146a4565b5060405163c197cfef60e01b815273__$23851852cf97a1ff2525b5bae2bad8f731$__9063c197cfef90610c729062ffffff198816906020906004908101614854565b600081600e73__$23851852cf97a1ff2525b5bae2bad8f731$__63a60a728262ffffff198416836040518363ffffffff1660e01b8152600401612f1a9291906148f7565b60206040518083038186803b158015612f3257600080fd5b505af4158015612f46573d6000803e3d6000fd5b505050506040513d601f19601f82011682018060405250810190612f6a91906146a4565b506000612f78856008610783565b9050806001600160401b0316612f8d82614276565b60ff16612f9a9190614947565b611e1c906008614947565b6040516338c17a3f60e01b815260009073__$23851852cf97a1ff2525b5bae2bad8f731$__906338c17a3f90611f6d9062ffffff19861690602490602090600401614854565b6000818173__$23851852cf97a1ff2525b5bae2bad8f731$__63a60a728262ffffff198416836040518363ffffffff1660e01b815260040161302e9291906148f7565b60206040518083038186803b15801561304657600080fd5b505af415801561305a573d6000803e3d6000fd5b505050506040513d601f19601f8201168201806040525081019061307e91906146a4565b50604051639cb855cb60e01b815260509073__$23851852cf97a1ff2525b5bae2bad8f731$__90639cb855cb906130bf9062ffffff19891690600401614843565b60206040518083038186803b1580156130d757600080fd5b505af41580156130eb573d6000803e3d6000fd5b505050506040513d601f19601f8201168201806040525081019061310f91906147ed565b6131199190614bba565b6001600160601b03161561316b5773__$23851852cf97a1ff2525b5bae2bad8f731$__6365acccba6040518163ffffffff1660e01b815260040160206040518083038186803b15801561111957600080fd5b73__$23851852cf97a1ff2525b5bae2bad8f731$__6308d5a72762ffffff198616601161117c565b600081600773__$23851852cf97a1ff2525b5bae2bad8f731$__63a60a728262ffffff198416836040518363ffffffff1660e01b81526004016131d79291906148f7565b60206040518083038186803b1580156131ef57600080fd5b505af4158015613203573d6000803e3d6000fd5b505050506040513d601f19601f8201168201806040525081019061322791906146a4565b50604051639cb855cb60e01b815260009073__$23851852cf97a1ff2525b5bae2bad8f731$__90639cb855cb906132689062ffffff19891690600401614843565b60206040518083038186803b15801561328057600080fd5b505af4158015613294573d6000803e3d6000fd5b505050506040513d601f19601f820116820180604052508101906132b891906147ed565b6001600160601b0316905060006132d0866000610783565b6001600160401b0316905060228111806132ea5750601681105b806132ff5750816132fc826001614947565b14155b156133485773__$23851852cf97a1ff2525b5bae2bad8f731$__6365acccba6040518163ffffffff1660e01b815260040160206040518083038186803b15801561222c57600080fd5b8060191480156133ec575060405163da98f02b60e01b815273__$23851852cf97a1ff2525b5bae2bad8f731$__9063da98f02b906133959062ffffff198a16906000906004908101614854565b60206040518083038186803b1580156133ad57600080fd5b505af41580156133c1573d6000803e3d6000fd5b505050506040513d601f19601f820116820180604052508101906133e59190614703565b631976a914145b8015613494575073__$23851852cf97a1ff2525b5bae2bad8f731$__63da98f02b62ffffff19881661341f600286614b1c565b60026040518463ffffffff1660e01b815260040161343f93929190614854565b60206040518083038186803b15801561345757600080fd5b505af415801561346b573d6000803e3d6000fd5b505050506040513d601f19601f8201168201806040525081019061348f9190614703565b6188ac145b156134f85773__$23851852cf97a1ff2525b5bae2bad8f731$__636e7ece2e62ffffff1988166004601460085b6040518563ffffffff1660e01b81526004016134e09493929190614875565b60206040518083038186803b15801561222c57600080fd5b80601714801561359c575060405163da98f02b60e01b815273__$23851852cf97a1ff2525b5bae2bad8f731$__9063da98f02b906135469062ffffff198a1690600090600390600401614854565b60206040518083038186803b15801561355e57600080fd5b505af4158015613572573d6000803e3d6000fd5b505050506040513d601f19601f820116820180604052508101906135969190614703565b6217a914145b8015613643575073__$23851852cf97a1ff2525b5bae2bad8f731$__63da98f02b62ffffff1988166135cf600186614b1c565b60016040518463ffffffff1660e01b81526004016135ef93929190614854565b60206040518083038186803b15801561360757600080fd5b505af415801561361b573d6000803e3d6000fd5b505050506040513d601f19601f8201168201806040525081019061363f9190614703565b6087145b156136745773__$23851852cf97a1ff2525b5bae2bad8f731$__636e7ece2e62ffffff19881660036014600b6134c1565b60405163da98f02b60e01b815273__$23851852cf97a1ff2525b5bae2bad8f731$__9063da98f02b906136b69062ffffff198a16906001908190600401614854565b60206040518083038186803b1580156136ce57600080fd5b505af41580156136e2573d6000803e3d6000fd5b505050506040513d601f19601f820116820180604052508101906137069190614703565b6138a45760405163da98f02b60e01b815260009073__$23851852cf97a1ff2525b5bae2bad8f731$__9063da98f02b906137509062ffffff198b1690600290600190600401614854565b60206040518083038186803b15801561376857600080fd5b505af415801561377c573d6000803e3d6000fd5b505050506040513d601f19601f820116820180604052508101906137a09190614703565b9050816022141580156137b4575081601614155b806137c957506137c5600283614b1c565b8114155b156138125773__$23851852cf97a1ff2525b5bae2bad8f731$__6365acccba6040518163ffffffff1660e01b815260040160206040518083038186803b15801561243357600080fd5b600081602014613823576009613826565b600a5b601481111561384557634e487b7160e01b600052602160045260246000fd5b60405163373f671760e11b815290915073__$23851852cf97a1ff2525b5bae2bad8f731$__90636e7ece2e9061388c9062ffffff198c169060039087908790600401614875565b60206040518083038186803b1580156122dc57600080fd5b73__$23851852cf97a1ff2525b5bae2bad8f731$__6365acccba6040518163ffffffff1660e01b815260040160206040518083038186803b1580156138e857600080fd5b505af41580156138fc573d6000803e3d6000fd5b505050506040513d601f19601f82011682018060405250810190610f8f91906146a4565b60008061392d8484614b1c565b905061393d6004621275006149af565b811015613955576139526004621275006149af565b90505b613963621275006004614afd565b81111561397b57613978621275006004614afd565b90505b60008161398b62010000886149af565b6139959190614afd565b90506139a4816212750061467c565b6139b19062010000614afd565b925050505b9392505050565b600081600473__$23851852cf97a1ff2525b5bae2bad8f731$__63a60a728262ffffff198416836040518363ffffffff1660e01b8152600401613a019291906148f7565b60206040518083038186803b158015613a1957600080fd5b505af4158015613a2d573d6000803e3d6000fd5b505050506040513d601f19601f82011682018060405250810190613a5191906146a4565b506000613a5f856024610783565b905073__$23851852cf97a1ff2525b5bae2bad8f731$__636e7ece2e62ffffff198716602484613a8e81614276565b60ff16613a9b919061495f565b60025b6040518563ffffffff1660e01b8152600401613abd949392919061489f565b60206040518083038186803b158015613ad557600080fd5b505af4158015613ae9573d6000803e3d6000fd5b505050506040513d601f19601f82011682018060405250810190611e1c91906146a4565b600081601073__$23851852cf97a1ff2525b5bae2bad8f731$__63a60a728262ffffff198416836040518363ffffffff1660e01b8152600401613b519291906148f7565b60206040518083038186803b158015613b6957600080fd5b505af4158015613b7d573d6000803e3d6000fd5b505050506040513d601f19601f82011682018060405250810190613ba191906146a4565b50610cc261029a85611a6b565b600081600d73__$23851852cf97a1ff2525b5bae2bad8f731$__63a60a728262ffffff198416836040518363ffffffff1660e01b8152600401613bf29291906148f7565b60206040518083038186803b158015613c0a57600080fd5b505af4158015613c1e573d6000803e3d6000fd5b505050506040513d601f19601f82011682018060405250810190613c4291906146a4565b506040516338c17a3f60e01b815273__$23851852cf97a1ff2525b5bae2bad8f731$__906338c17a3f90610c729062ffffff19881690600090600890600401614854565b600082601173__$23851852cf97a1ff2525b5bae2bad8f731$__63a60a728262ffffff198416836040518363ffffffff1660e01b8152600401613cca9291906148f7565b60206040518083038186803b158015613ce257600080fd5b505af4158015613cf6573d6000803e3d6000fd5b505050506040513d601f19601f82011682018060405250810190613d1a91906146a4565b506000613d28856050614afd565b60405163373f671760e11b815290915073__$23851852cf97a1ff2525b5bae2bad8f731$__90636e7ece2e90613d709062ffffff198a16908590605090601090600401614875565b60206040518083038186803b1580156138e857600080fd5b600081600473__$23851852cf97a1ff2525b5bae2bad8f731$__63a60a728262ffffff198416836040518363ffffffff1660e01b8152600401613dcc9291906148f7565b60206040518083038186803b158015613de457600080fd5b505af4158015613df8573d6000803e3d6000fd5b505050506040513d601f19601f82011682018060405250810190613e1c91906146a4565b5060405163373f671760e11b815273__$23851852cf97a1ff2525b5bae2bad8f731$__90636e7ece2e906111999062ffffff19881690600090602490600390600401614875565b600081601073__$23851852cf97a1ff2525b5bae2bad8f731$__63a60a728262ffffff198416836040518363ffffffff1660e01b8152600401613ea79291906148f7565b60206040518083038186803b158015613ebf57600080fd5b505af4158015613ed3573d6000803e3d6000fd5b505050506040513d601f19601f82011682018060405250810190613ef791906146a4565b5060405163c197cfef60e01b815273__$23851852cf97a1ff2525b5bae2bad8f731$__9063c197cfef90610c729062ffffff198816906044906004908101614854565b600081600773__$23851852cf97a1ff2525b5bae2bad8f731$__63a60a728262ffffff198416836040518363ffffffff1660e01b8152600401613f7e9291906148f7565b60206040518083038186803b158015613f9657600080fd5b505af4158015613faa573d6000803e3d6000fd5b505050506040513d601f19601f82011682018060405250810190613fce91906146a4565b506000613fdc856000610783565b60405163da98f02b60e01b815290915060009073__$23851852cf97a1ff2525b5bae2bad8f731$__9063da98f02b906140259062ffffff198a1690600390600190600401614854565b60206040518083038186803b15801561403d57600080fd5b505af4158015614051573d6000803e3d6000fd5b505050506040513d601f19601f820116820180604052508101906140759190614703565b90506053826001600160401b0316118061409857506004826001600160401b0316105b80614135575060405163da98f02b60e01b815273__$23851852cf97a1ff2525b5bae2bad8f731$__9063da98f02b906140e09062ffffff198a16906001908190600401614854565b60206040518083038186803b1580156140f857600080fd5b505af415801561410c573d6000803e3d6000fd5b505050506040513d601f19601f820116820180604052508101906141309190614703565b606a14155b806141e95750614146600383614b33565b60405163da98f02b60e01b81526001600160401b03919091169073__$23851852cf97a1ff2525b5bae2bad8f731$__9063da98f02b906141969062ffffff198b1690600390600190600401614854565b60206040518083038186803b1580156141ae57600080fd5b505af41580156141c2573d6000803e3d6000fd5b505050506040513d601f19601f820116820180604052508101906141e69190614703565b14155b156142325773__$23851852cf97a1ff2525b5bae2bad8f731$__6365acccba6040518163ffffffff1660e01b815260040160206040518083038186803b15801561222c57600080fd5b60405163373f671760e11b815273__$23851852cf97a1ff2525b5bae2bad8f731$__90636e7ece2e90613d709062ffffff198a16906004908690600c90830161489f565b600060fc826001600160401b0316116142915750600161077e565b61ffff826001600160401b0316116142ab5750600361077e565b63ffffffff826001600160401b0316116142c75750600561077e565b50600961077e565b600081601073__$23851852cf97a1ff2525b5bae2bad8f731$__63a60a728262ffffff198416836040518363ffffffff1660e01b81526004016143139291906148f7565b60206040518083038186803b15801561432b57600080fd5b505af415801561433f573d6000803e3d6000fd5b505050506040513d601f19601f8201168201806040525081019061436391906146a4565b506040516307f6f12360e21b815273__$23851852cf97a1ff2525b5bae2bad8f731$__90631fdbc48c90610c729062ffffff19881690600401614843565b600081600d73__$23851852cf97a1ff2525b5bae2bad8f731$__63a60a728262ffffff198416836040518363ffffffff1660e01b81526004016143e59291906148f7565b60206040518083038186803b1580156143fd57600080fd5b505af4158015614411573d6000803e3d6000fd5b505050506040513d601f19601f8201168201806040525081019061443591906146a4565b506000614443856008610783565b905073__$23851852cf97a1ff2525b5bae2bad8f731$__636e7ece2e62ffffff19871660088461447281614276565b60ff1661447f919061495f565b6007613a9e565b604051639cb855cb60e01b815260609060009073__$23851852cf97a1ff2525b5bae2bad8f731$__9063a1ce10e690829063da98f02b9062ffffff1988169086908490639cb855cb906144dd908590600401614843565b60206040518083038186803b1580156144f557600080fd5b505af4158015614509573d6000803e3d6000fd5b505050506040513d601f19601f8201168201806040525081019061452d91906147ed565b6040518463ffffffff1660e01b815260040161454b93929190614854565b60206040518083038186803b15801561456357600080fd5b505af4158015614577573d6000803e3d6000fd5b505050506040513d601f19601f8201168201806040525081019061459b9190614703565b6040518263ffffffff1660e01b81526004016145b991815260200190565b604080518083038186803b1580156145d057600080fd5b505af41580156145e4573d6000803e3d6000fd5b505050506040513d601f19601f820116820180604052508101906146089190614778565b604080517f4e6f6e2d6d696e696d616c2076617220696e742e20476f7420307800000000006020820152607083901b6dffffffffffffffffffffffffffff1916603b8201528151602d818303018152604d82019283905262461bcd60e51b909252919350915061150f908290605101614914565b60006139b682846149af565b600060208284031215614699578081fd5b81356139b681614c0c565b6000602082840312156146b5578081fd5b81516139b681614c0c565b600080604083850312156146d2578081fd5b82356146dd81614c0c565b946020939093013593505050565b6000602082840312156146fc578081fd5b5035919050565b600060208284031215614714578081fd5b5051919050565b60008060008060808587031215614730578182fd5b84359350602085013561474281614c0c565b93969395505050506040820135916060013590565b60008060408385031215614769578182fd5b50508035926020909101359150565b6000806040838503121561478a578182fd5b505080516020909101519092909150565b6000806000606084860312156147af578283fd5b505081359360208301359350604090920135919050565b6000602082840312156147d7578081fd5b81356001600160401b03811681146139b6578182fd5b6000602082840312156147fe578081fd5b81516001600160601b03811681146139b6578182fd5b60008351614826818460208801614b5b565b6001600160f81b0319939093169190920190815260010192915050565b62ffffff1991909116815260200190565b62ffffff19939093168352602083019190915260ff16604082015260600190565b62ffffff199490941684526020840192909252604083015264ffffffffff16606082015260800190565b62ffffff1994909416845260208401929092526001600160401b0316604083015264ffffffffff16606082015260800190565b62ffffff19939093168352602083019190915264ffffffffff16604082015260600190565b62ffffff1992909216825264ffffffffff16602082015260400190565b6000602082528251806020840152614933816040850160208701614b5b565b601f01601f19169190910160400192915050565b6000821982111561495a5761495a614be0565b500190565b60006001600160401b0380831681851680830382111561498157614981614be0565b01949350505050565b600060ff821660ff84168060ff038211156149a7576149a7614be0565b019392505050565b6000826149be576149be614bf6565b500490565b60006001600160601b03808416806149dd576149dd614bf6565b92169190910492915050565b80825b60018086116149fb5750614a26565b818704821115614a0d57614a0d614be0565b80861615614a1a57918102915b9490941c9380026149ec565b94509492505050565b60006139b66000198484600082614a48575060016139b6565b81614a55575060006139b6565b8160018114614a6b5760028114614a7557614aa2565b60019150506139b6565b60ff841115614a8657614a86614be0565b6001841b915084821115614a9c57614a9c614be0565b506139b6565b5060208310610133831016604e8410600b8410161715614ad5575081810a83811115614ad057614ad0614be0565b6139b6565b614ae284848460016149e9565b808604821115614af457614af4614be0565b02949350505050565b6000816000190483118215151615614b1757614b17614be0565b500290565b600082821015614b2e57614b2e614be0565b500390565b60006001600160401b0383811690831681811015614b5357614b53614be0565b039392505050565b60005b83811015614b76578181015183820152602001614b5e565b83811115614b85576000848401525b50505050565b6000600019821415614b9f57614b9f614be0565b5060010190565b600082614bb557614bb5614bf6565b500690565b60006001600160601b0380841680614bd457614bd4614bf6565b92169190910692915050565b634e487b7160e01b600052601160045260246000fd5b634e487b7160e01b600052601260045260246000fd5b62ffffff1981168114614c1e57600080fd5b5056fea264697066735822122008ad39fdea71e405608bf2f5cdcdacc97a8cecf6ac3ba1d91b8839387d5b574064736f6c63430008020033",
  "libraries": {
    "TypedMemView": "0xa7e24f80E66bb09819D813e9c4b1B176e22C2d44"
  },
  "devdoc": {
    "kind": "dev",
    "methods": {},
    "version": 1
  },
  "userdoc": {
    "kind": "user",
    "methods": {},
    "version": 1
  },
  "storageLayout": {
    "storage": [],
    "types": null
  }
}