{
  "address": "0x632B64d1bC331655b950D03f1988F0cb7c672ea9",
  "abi": [
    {
      "inputs": [],
      "name": "ZeroAddress",
      "type": "error"
    },
    {
      "anonymous": false,
      "inputs": [
        {
          "indexed": true,
          "internalType": "address",
          "name": "userTargetAddress",
          "type": "address"
        },
        {
          "indexed": true,
          "internalType": "address",
          "name": "_lockerTargetAddress",
          "type": "address"
        },
        {
          "indexed": false,
          "internalType": "bytes",
          "name": "lockerLockingScript",
          "type": "bytes"
        },
        {
          "indexed": false,
          "internalType": "uint256",
          "name": "requestIdOfLocker",
          "type": "uint256"
        }
      ],
      "name": "BurnDispute",
      "type": "event"
    },
    {
      "anonymous": false,
      "inputs": [
        {
          "indexed": false,
          "internalType": "uint8",
          "name": "version",
          "type": "uint8"
        }
      ],
      "name": "Initialized",
      "type": "event"
    },
    {
      "anonymous": false,
      "inputs": [
        {
          "indexed": false,
          "internalType": "address",
          "name": "_lockerTargetAddress",
          "type": "address"
        },
        {
          "indexed": false,
          "internalType": "bytes",
          "name": "lockerLockingScript",
          "type": "bytes"
        },
        {
          "indexed": false,
          "internalType": "uint256",
          "name": "_blockNumber",
          "type": "uint256"
        },
        {
          "indexed": false,
          "internalType": "bytes32",
          "name": "txId",
          "type": "bytes32"
        },
        {
          "indexed": false,
          "internalType": "uint256",
          "name": "amount",
          "type": "uint256"
        }
      ],
      "name": "LockerDispute",
      "type": "event"
    },
    {
      "anonymous": false,
      "inputs": [
        {
          "indexed": false,
          "internalType": "address",
          "name": "oldLockers",
          "type": "address"
        },
        {
          "indexed": false,
          "internalType": "address",
          "name": "newLockers",
          "type": "address"
        }
      ],
      "name": "NewLockers",
      "type": "event"
    },
    {
      "anonymous": false,
      "inputs": [
        {
          "indexed": false,
          "internalType": "uint256",
          "name": "oldNetworkFee",
          "type": "uint256"
        },
        {
          "indexed": false,
          "internalType": "uint256",
          "name": "newNetworkFee",
          "type": "uint256"
        }
      ],
      "name": "NewNetworkFee",
      "type": "event"
    },
    {
      "anonymous": false,
      "inputs": [
        {
          "indexed": false,
          "internalType": "address",
          "name": "oldNetworkFeeOracle",
          "type": "address"
        },
        {
          "indexed": false,
          "internalType": "address",
          "name": "newNetworkFeeOracle",
          "type": "address"
        }
      ],
      "name": "NewNetworkFeeOracle",
      "type": "event"
    },
    {
      "anonymous": false,
      "inputs": [
        {
          "indexed": false,
          "internalType": "uint256",
          "name": "oldProtocolPercentageFee",
          "type": "uint256"
        },
        {
          "indexed": false,
          "internalType": "uint256",
          "name": "newProtocolPercentageFee",
          "type": "uint256"
        }
      ],
      "name": "NewProtocolPercentageFee",
      "type": "event"
    },
    {
      "anonymous": false,
      "inputs": [
        {
          "indexed": false,
          "internalType": "address",
          "name": "oldRelay",
          "type": "address"
        },
        {
          "indexed": false,
          "internalType": "address",
          "name": "newRelay",
          "type": "address"
        }
      ],
      "name": "NewRelay",
      "type": "event"
    },
    {
      "anonymous": false,
      "inputs": [
        {
          "indexed": false,
          "internalType": "uint256",
          "name": "oldSlasherPercentageFee",
          "type": "uint256"
        },
        {
          "indexed": false,
          "internalType": "uint256",
          "name": "newSlasherPercentageFee",
          "type": "uint256"
        }
      ],
      "name": "NewSlasherPercentageFee",
      "type": "event"
    },
    {
      "anonymous": false,
      "inputs": [
        {
          "indexed": false,
          "internalType": "address",
          "name": "oldTeleBTC",
          "type": "address"
        },
        {
          "indexed": false,
          "internalType": "address",
          "name": "newTeleBTC",
          "type": "address"
        }
      ],
      "name": "NewTeleBTC",
      "type": "event"
    },
    {
      "anonymous": false,
      "inputs": [
        {
          "indexed": false,
          "internalType": "uint256",
          "name": "thirdPartyId",
          "type": "uint256"
        },
        {
          "indexed": false,
          "internalType": "address",
          "name": "oldThirdPartyAddress",
          "type": "address"
        },
        {
          "indexed": false,
          "internalType": "address",
          "name": "newThirdPartyAddress",
          "type": "address"
        }
      ],
      "name": "NewThirdPartyAddress",
      "type": "event"
    },
    {
      "anonymous": false,
      "inputs": [
        {
          "indexed": false,
          "internalType": "uint256",
          "name": "thirdPartyId",
          "type": "uint256"
        },
        {
          "indexed": false,
          "internalType": "uint256",
          "name": "oldThirdPartyFee",
          "type": "uint256"
        },
        {
          "indexed": false,
          "internalType": "uint256",
          "name": "newThirdPartyFee",
          "type": "uint256"
        }
      ],
      "name": "NewThirdPartyFee",
      "type": "event"
    },
    {
      "anonymous": false,
      "inputs": [
        {
          "indexed": false,
          "internalType": "uint256",
          "name": "oldTransferDeadline",
          "type": "uint256"
        },
        {
          "indexed": false,
          "internalType": "uint256",
          "name": "newTransferDeadline",
          "type": "uint256"
        }
      ],
      "name": "NewTransferDeadline",
      "type": "event"
    },
    {
      "anonymous": false,
      "inputs": [
        {
          "indexed": false,
          "internalType": "address",
          "name": "oldTreasury",
          "type": "address"
        },
        {
          "indexed": false,
          "internalType": "address",
          "name": "newTreasury",
          "type": "address"
        }
      ],
      "name": "NewTreasury",
      "type": "event"
    },
    {
      "anonymous": false,
      "inputs": [
        {
          "indexed": false,
          "internalType": "bytes",
          "name": "userScript",
          "type": "bytes"
        },
        {
          "indexed": false,
          "internalType": "enum ScriptTypes",
          "name": "scriptType",
          "type": "uint8"
        },
        {
          "indexed": false,
          "internalType": "address",
          "name": "lockerTargetAddress",
          "type": "address"
        },
        {
          "indexed": true,
          "internalType": "address",
          "name": "userTargetAddress",
          "type": "address"
        },
        {
          "indexed": false,
          "internalType": "uint256",
          "name": "requestIdOfLocker",
          "type": "uint256"
        },
        {
          "indexed": true,
          "internalType": "uint256",
          "name": "deadline",
          "type": "uint256"
        },
        {
          "indexed": false,
          "internalType": "uint256",
          "name": "thirdPartyId",
          "type": "uint256"
        },
        {
          "indexed": false,
          "internalType": "address",
          "name": "inputToken",
          "type": "address"
        },
        {
          "indexed": false,
          "internalType": "uint256[3]",
          "name": "amounts",
          "type": "uint256[3]"
        },
        {
          "indexed": false,
          "internalType": "uint256[4]",
          "name": "fees",
          "type": "uint256[4]"
        }
      ],
      "name": "NewUnwrap",
      "type": "event"
    },
    {
      "anonymous": false,
      "inputs": [
        {
          "indexed": false,
          "internalType": "address",
          "name": "oldWrappedNativeToken",
          "type": "address"
        },
        {
          "indexed": false,
          "internalType": "address",
          "name": "newWrappedNativeToken",
          "type": "address"
        }
      ],
      "name": "NewWrappedNativeToken",
      "type": "event"
    },
    {
      "anonymous": false,
      "inputs": [
        {
          "indexed": true,
          "internalType": "address",
          "name": "previousOwner",
          "type": "address"
        },
        {
          "indexed": true,
          "internalType": "address",
          "name": "newOwner",
          "type": "address"
        }
      ],
      "name": "OwnershipTransferred",
      "type": "event"
    },
    {
      "anonymous": false,
      "inputs": [
        {
          "indexed": true,
          "internalType": "address",
          "name": "lockerTargetAddress",
          "type": "address"
        },
        {
          "indexed": false,
          "internalType": "uint256",
          "name": "requestIdOfLocker",
          "type": "uint256"
        },
        {
          "indexed": false,
          "internalType": "bytes32",
          "name": "bitcoinTxId",
          "type": "bytes32"
        },
        {
          "indexed": false,
          "internalType": "uint256",
          "name": "bitcoinTxOutputIndex",
          "type": "uint256"
        }
      ],
      "name": "PaidUnwrap",
      "type": "event"
    },
    {
      "inputs": [],
      "name": "bitcoinFee",
      "outputs": [
        {
          "internalType": "uint256",
          "name": "",
          "type": "uint256"
        }
      ],
      "stateMutability": "view",
      "type": "function"
    },
    {
      "inputs": [],
      "name": "bitcoinFeeOracle",
      "outputs": [
        {
          "internalType": "address",
          "name": "",
          "type": "address"
        }
      ],
      "stateMutability": "view",
      "type": "function"
    },
    {
      "inputs": [
        {
          "internalType": "bytes4",
          "name": "_version",
          "type": "bytes4"
        },
        {
          "internalType": "bytes",
          "name": "_vin",
          "type": "bytes"
        },
        {
          "internalType": "bytes",
          "name": "_vout",
          "type": "bytes"
        },
        {
          "internalType": "bytes4",
          "name": "_locktime",
          "type": "bytes4"
        },
        {
          "internalType": "uint256",
          "name": "_blockNumber",
          "type": "uint256"
        },
        {
          "internalType": "bytes",
          "name": "_intermediateNodes",
          "type": "bytes"
        },
        {
          "internalType": "uint256",
          "name": "_index",
          "type": "uint256"
        },
        {
          "internalType": "bytes",
          "name": "_lockerLockingScript",
          "type": "bytes"
        },
        {
          "internalType": "uint256[]",
          "name": "_burnReqIndexes",
          "type": "uint256[]"
        },
        {
          "internalType": "uint256[]",
          "name": "_voutIndexes",
          "type": "uint256[]"
        }
      ],
      "name": "burnProof",
      "outputs": [
        {
          "internalType": "bool",
          "name": "",
          "type": "bool"
        }
      ],
      "stateMutability": "payable",
      "type": "function"
    },
    {
      "inputs": [
        {
          "internalType": "address",
          "name": "",
          "type": "address"
        }
      ],
      "name": "burnRequestCounter",
      "outputs": [
        {
          "internalType": "uint256",
          "name": "",
          "type": "uint256"
        }
      ],
      "stateMutability": "view",
      "type": "function"
    },
    {
      "inputs": [
        {
          "internalType": "address",
          "name": "",
          "type": "address"
        },
        {
          "internalType": "uint256",
          "name": "",
          "type": "uint256"
        }
      ],
      "name": "burnRequests",
      "outputs": [
        {
          "internalType": "uint256",
          "name": "amount",
          "type": "uint256"
        },
        {
          "internalType": "uint256",
          "name": "burntAmount",
          "type": "uint256"
        },
        {
          "internalType": "address",
          "name": "sender",
          "type": "address"
        },
        {
          "internalType": "bytes",
          "name": "userScript",
          "type": "bytes"
        },
        {
          "internalType": "uint256",
          "name": "deadline",
          "type": "uint256"
        },
        {
          "internalType": "bool",
          "name": "isTransferred",
          "type": "bool"
        },
        {
          "internalType": "enum ScriptTypes",
          "name": "scriptType",
          "type": "uint8"
        },
        {
          "internalType": "uint256",
          "name": "requestIdOfLocker",
          "type": "uint256"
        }
      ],
      "stateMutability": "view",
      "type": "function"
    },
    {
      "inputs": [
        {
          "internalType": "bytes",
          "name": "_lockerLockingScript",
          "type": "bytes"
        },
        {
          "internalType": "uint256[]",
          "name": "_indices",
          "type": "uint256[]"
        }
      ],
      "name": "disputeBurn",
      "outputs": [],
      "stateMutability": "nonpayable",
      "type": "function"
    },
    {
      "inputs": [
        {
          "internalType": "bytes",
          "name": "_lockerLockingScript",
          "type": "bytes"
        },
        {
          "internalType": "bytes4[]",
          "name": "_versions",
          "type": "bytes4[]"
        },
        {
          "internalType": "bytes",
          "name": "_inputVin",
          "type": "bytes"
        },
        {
          "internalType": "bytes",
          "name": "_inputVout",
          "type": "bytes"
        },
        {
          "internalType": "bytes",
          "name": "_outputVin",
          "type": "bytes"
        },
        {
          "internalType": "bytes",
          "name": "_outputVout",
          "type": "bytes"
        },
        {
          "internalType": "bytes4[]",
          "name": "_locktimes",
          "type": "bytes4[]"
        },
        {
          "internalType": "bytes",
          "name": "_inputIntermediateNodes",
          "type": "bytes"
        },
        {
          "internalType": "uint256[]",
          "name": "_indexesAndBlockNumbers",
          "type": "uint256[]"
        }
      ],
      "name": "disputeLocker",
      "outputs": [],
      "stateMutability": "payable",
      "type": "function"
    },
    {
      "inputs": [
        {
          "internalType": "uint256",
          "name": "_startingBlockNumber",
          "type": "uint256"
        },
        {
          "internalType": "address",
          "name": "_relay",
          "type": "address"
        },
        {
          "internalType": "address",
          "name": "_lockers",
          "type": "address"
        },
        {
          "internalType": "address",
          "name": "_treasury",
          "type": "address"
        },
        {
          "internalType": "address",
          "name": "_teleBTC",
          "type": "address"
        },
        {
          "internalType": "uint256",
          "name": "_transferDeadline",
          "type": "uint256"
        },
        {
          "internalType": "uint256",
          "name": "_protocolPercentageFee",
          "type": "uint256"
        },
        {
          "internalType": "uint256",
          "name": "_slasherPercentageReward",
          "type": "uint256"
        },
        {
          "internalType": "uint256",
          "name": "_networkFee",
          "type": "uint256"
        },
        {
          "internalType": "address",
          "name": "_wrappedNativeToken",
          "type": "address"
        }
      ],
      "name": "initialize",
      "outputs": [],
      "stateMutability": "nonpayable",
      "type": "function"
    },
    {
      "inputs": [
        {
          "internalType": "address",
          "name": "_lockerTargetAddress",
          "type": "address"
        },
        {
          "internalType": "uint256",
          "name": "_index",
          "type": "uint256"
        }
      ],
      "name": "isTransferred",
      "outputs": [
        {
          "internalType": "bool",
          "name": "",
          "type": "bool"
        }
      ],
      "stateMutability": "view",
      "type": "function"
    },
    {
      "inputs": [
        {
          "internalType": "bytes32",
          "name": "",
          "type": "bytes32"
        }
      ],
      "name": "isUsedAsBurnProof",
      "outputs": [
        {
          "internalType": "bool",
          "name": "",
          "type": "bool"
        }
      ],
      "stateMutability": "view",
      "type": "function"
    },
    {
      "inputs": [],
      "name": "lockers",
      "outputs": [
        {
          "internalType": "address",
          "name": "",
          "type": "address"
        }
      ],
      "stateMutability": "view",
      "type": "function"
    },
    {
      "inputs": [],
      "name": "owner",
      "outputs": [
        {
          "internalType": "address",
          "name": "",
          "type": "address"
        }
      ],
      "stateMutability": "view",
      "type": "function"
    },
    {
      "inputs": [],
      "name": "protocolPercentageFee",
      "outputs": [
        {
          "internalType": "uint256",
          "name": "",
          "type": "uint256"
        }
      ],
      "stateMutability": "view",
      "type": "function"
    },
    {
      "inputs": [],
      "name": "relay",
      "outputs": [
        {
          "internalType": "address",
          "name": "",
          "type": "address"
        }
      ],
      "stateMutability": "view",
      "type": "function"
    },
    {
      "inputs": [],
      "name": "renounceOwnership",
      "outputs": [],
      "stateMutability": "nonpayable",
      "type": "function"
    },
    {
      "inputs": [
        {
          "internalType": "address",
          "name": "_lockers",
          "type": "address"
        }
      ],
      "name": "setLockers",
      "outputs": [],
      "stateMutability": "nonpayable",
      "type": "function"
    },
    {
      "inputs": [
        {
          "internalType": "uint256",
          "name": "_networkFee",
          "type": "uint256"
        }
      ],
      "name": "setNetworkFee",
      "outputs": [],
      "stateMutability": "nonpayable",
      "type": "function"
    },
    {
      "inputs": [
        {
          "internalType": "address",
          "name": "_networkFeeOracle",
          "type": "address"
        }
      ],
      "name": "setNetworkFeeOracle",
      "outputs": [],
      "stateMutability": "nonpayable",
      "type": "function"
    },
    {
      "inputs": [
        {
          "internalType": "uint256",
          "name": "_protocolPercentageFee",
          "type": "uint256"
        }
      ],
      "name": "setProtocolPercentageFee",
      "outputs": [],
      "stateMutability": "nonpayable",
      "type": "function"
    },
    {
      "inputs": [
        {
          "internalType": "address",
          "name": "_relay",
          "type": "address"
        }
      ],
      "name": "setRelay",
      "outputs": [],
      "stateMutability": "nonpayable",
      "type": "function"
    },
    {
      "inputs": [
        {
          "internalType": "uint256",
          "name": "_slasherPercentageReward",
          "type": "uint256"
        }
      ],
      "name": "setSlasherPercentageReward",
      "outputs": [],
      "stateMutability": "nonpayable",
      "type": "function"
    },
    {
      "inputs": [
        {
          "internalType": "uint256",
          "name": "_startingBlockNumber",
          "type": "uint256"
        }
      ],
      "name": "setStartingBlockNumber",
      "outputs": [],
      "stateMutability": "nonpayable",
      "type": "function"
    },
    {
      "inputs": [
        {
          "internalType": "address",
          "name": "_teleBTC",
          "type": "address"
        }
      ],
      "name": "setTeleBTC",
      "outputs": [],
      "stateMutability": "nonpayable",
      "type": "function"
    },
    {
      "inputs": [
        {
          "internalType": "uint256",
          "name": "_thirdPartyId",
          "type": "uint256"
        },
        {
          "internalType": "address",
          "name": "_thirdPartyAddress",
          "type": "address"
        }
      ],
      "name": "setThirdPartyAddress",
      "outputs": [],
      "stateMutability": "nonpayable",
      "type": "function"
    },
    {
      "inputs": [
        {
          "internalType": "uint256",
          "name": "_thirdPartyId",
          "type": "uint256"
        },
        {
          "internalType": "uint256",
          "name": "_thirdPartyFee",
          "type": "uint256"
        }
      ],
      "name": "setThirdPartyFee",
      "outputs": [],
      "stateMutability": "nonpayable",
      "type": "function"
    },
    {
      "inputs": [
        {
          "internalType": "uint256",
          "name": "_transferDeadline",
          "type": "uint256"
        }
      ],
      "name": "setTransferDeadline",
      "outputs": [],
      "stateMutability": "nonpayable",
      "type": "function"
    },
    {
      "inputs": [
        {
          "internalType": "address",
          "name": "_treasury",
          "type": "address"
        }
      ],
      "name": "setTreasury",
      "outputs": [],
      "stateMutability": "nonpayable",
      "type": "function"
    },
    {
      "inputs": [
        {
          "internalType": "address",
          "name": "_wrappedNativeToken",
          "type": "address"
        }
      ],
      "name": "setWrappedNativeToken",
      "outputs": [],
      "stateMutability": "nonpayable",
      "type": "function"
    },
    {
      "inputs": [],
      "name": "slasherPercentageReward",
      "outputs": [
        {
          "internalType": "uint256",
          "name": "",
          "type": "uint256"
        }
      ],
      "stateMutability": "view",
      "type": "function"
    },
    {
      "inputs": [],
      "name": "startingBlockNumber",
      "outputs": [
        {
          "internalType": "uint256",
          "name": "",
          "type": "uint256"
        }
      ],
      "stateMutability": "view",
      "type": "function"
    },
    {
      "inputs": [
        {
          "internalType": "address",
          "name": "_exchangeConnector",
          "type": "address"
        },
        {
          "internalType": "uint256[]",
          "name": "_amounts",
          "type": "uint256[]"
        },
        {
          "internalType": "bool",
          "name": "_isFixedToken",
          "type": "bool"
        },
        {
          "internalType": "address[]",
          "name": "_path",
          "type": "address[]"
        },
        {
          "internalType": "uint256",
          "name": "_deadline",
          "type": "uint256"
        },
        {
          "internalType": "bytes",
          "name": "_userScript",
          "type": "bytes"
        },
        {
          "internalType": "enum ScriptTypes",
          "name": "_scriptType",
          "type": "uint8"
        },
        {
          "internalType": "bytes",
          "name": "_lockerLockingScript",
          "type": "bytes"
        },
        {
          "internalType": "uint256",
          "name": "thirdParty",
          "type": "uint256"
        }
      ],
      "name": "swapAndUnwrap",
      "outputs": [
        {
          "internalType": "uint256",
          "name": "",
          "type": "uint256"
        }
      ],
      "stateMutability": "payable",
      "type": "function"
    },
    {
      "inputs": [],
      "name": "teleBTC",
      "outputs": [
        {
          "internalType": "address",
          "name": "",
          "type": "address"
        }
      ],
      "stateMutability": "view",
      "type": "function"
    },
    {
      "inputs": [
        {
          "internalType": "uint256",
          "name": "",
          "type": "uint256"
        }
      ],
      "name": "thirdPartyAddress",
      "outputs": [
        {
          "internalType": "address",
          "name": "",
          "type": "address"
        }
      ],
      "stateMutability": "view",
      "type": "function"
    },
    {
      "inputs": [
        {
          "internalType": "uint256",
          "name": "",
          "type": "uint256"
        }
      ],
      "name": "thirdPartyFee",
      "outputs": [
        {
          "internalType": "uint256",
          "name": "",
          "type": "uint256"
        }
      ],
      "stateMutability": "view",
      "type": "function"
    },
    {
      "inputs": [],
      "name": "transferDeadline",
      "outputs": [
        {
          "internalType": "uint256",
          "name": "",
          "type": "uint256"
        }
      ],
      "stateMutability": "view",
      "type": "function"
    },
    {
      "inputs": [
        {
          "internalType": "address",
          "name": "newOwner",
          "type": "address"
        }
      ],
      "name": "transferOwnership",
      "outputs": [],
      "stateMutability": "nonpayable",
      "type": "function"
    },
    {
      "inputs": [],
      "name": "treasury",
      "outputs": [
        {
          "internalType": "address",
          "name": "",
          "type": "address"
        }
      ],
      "stateMutability": "view",
      "type": "function"
    },
    {
      "inputs": [
        {
          "internalType": "uint256",
          "name": "_amount",
          "type": "uint256"
        },
        {
          "internalType": "bytes",
          "name": "_userScript",
          "type": "bytes"
        },
        {
          "internalType": "enum ScriptTypes",
          "name": "_scriptType",
          "type": "uint8"
        },
        {
          "internalType": "bytes",
          "name": "_lockerLockingScript",
          "type": "bytes"
        },
        {
          "internalType": "uint256",
          "name": "thirdParty",
          "type": "uint256"
        }
      ],
      "name": "unwrap",
      "outputs": [
        {
          "internalType": "uint256",
          "name": "",
          "type": "uint256"
        }
      ],
      "stateMutability": "nonpayable",
      "type": "function"
    },
    {
      "inputs": [],
      "name": "wrappedNativeToken",
      "outputs": [
        {
          "internalType": "address",
          "name": "",
          "type": "address"
        }
      ],
      "stateMutability": "view",
      "type": "function"
    },
    {
      "stateMutability": "payable",
      "type": "receive"
    }
  ],
  "transactionHash": "0x35259305f60c13aa954c6b8bbbf9323a5625edd7da431af23a6231a6a64481f3",
  "args": [],
  "numDeployments": 1,
  "solcInputHash": "843c4c8638e3464c0a37fbdefb43c3d5",
  "bytecode": "0x608060405234801561001057600080fd5b50615e4b80620000216000396000f3fe6080604052600436106101c45760003560e01c80630e757850146101d057806317fcb39b146101f25780631812adb6146102285780631876dec41461024c5780631e2361681461026c5780631e7107c7146102ac57806333453d15146102cc5780633fea4367146102ec578063419cba7f1461030c57806344dd6aa5146103225780634782bc361461033557806350a058361461035557806359fd0b0c146103755780635c4f5f3e146103a257806361d027b3146103c257806370872aa5146103e2578063715018a6146103f857806373532b2a1461040d5780637ed557481461042d5780637f0f18171461044d5780637ffe9a921461046d5780638d3d78cd1461048d5780638d5fc1d4146104ad5780638da5cb5b146104cd5780638f9eb78b146104e2578063930a60e814610502578063a9b682711461052f578063b14d353214610565578063b59589d114610585578063b74d0d35146105a5578063bed6a602146105bb578063c780c03f146105d1578063c805f68b146105e4578063cf54ce4714610604578063da058ae314610624578063ea73263714610644578063f0f4426014610657578063f2fde38b14610677578063f47e22401461069757600080fd5b366101cb57005b600080fd5b3480156101dc57600080fd5b506101f06101eb366004615357565b6106cb565b005b3480156101fe57600080fd5b5060a654610212906001600160a01b031681565b60405161021f919061564d565b60405180910390f35b34801561023457600080fd5b5061023e60075481565b60405190815260200161021f565b34801561025857600080fd5b50600154610212906001600160a01b031681565b34801561027857600080fd5b5061029c610287366004615014565b600c6020526000908152604090205460ff1681565b604051901515815260200161021f565b3480156102b857600080fd5b506101f06102c7366004615014565b610858565b3480156102d857600080fd5b506101f06102e7366004614dd4565b6108c7565b3480156102f857600080fd5b5061023e6103073660046153f9565b610938565b34801561031857600080fd5b5061023e60085481565b61023e610330366004614e0c565b610a54565b34801561034157600080fd5b506101f0610350366004615014565b610afa565b34801561036157600080fd5b50600454610212906001600160a01b031681565b34801561038157600080fd5b5061023e610390366004615014565b60a46020526000908152604090205481565b3480156103ae57600080fd5b506101f06103bd366004615014565b610b94565b3480156103ce57600080fd5b50600354610212906001600160a01b031681565b3480156103ee57600080fd5b5061023e60055481565b34801561040457600080fd5b506101f0610d2a565b34801561041957600080fd5b506101f0610428366004615169565b610d34565b34801561043957600080fd5b506101f0610448366004615014565b61135a565b34801561045957600080fd5b506101f0610468366004614dd4565b6113f3565b34801561047957600080fd5b5061029c610488366004614f24565b61148d565b34801561049957600080fd5b50600254610212906001600160a01b031681565b3480156104b957600080fd5b506101f06104c8366004615328565b6114e5565b3480156104d957600080fd5b50610212611589565b3480156104ee57600080fd5b506101f06104fd366004615482565b611598565b34801561050e57600080fd5b5061023e61051d366004614dd4565b600b6020526000908152604090205481565b34801561053b57600080fd5b5061021261054a366004615014565b60a5602052600090815260409020546001600160a01b031681565b34801561057157600080fd5b506101f0610580366004614dd4565b6115fd565b34801561059157600080fd5b50600054610212906001600160a01b031681565b3480156105b157600080fd5b5061023e60095481565b3480156105c757600080fd5b5061023e60065481565b6101f06105df3660046151ce565b611697565b3480156105f057600080fd5b506101f06105ff366004614dd4565b611815565b34801561061057600080fd5b506101f061061f366004615014565b6118af565b34801561063057600080fd5b506101f061063f366004614dd4565b61194a565b61029c610652366004615044565b6119bb565b34801561066357600080fd5b506101f0610672366004614dd4565b611d2c565b34801561068357600080fd5b506101f0610692366004614dd4565b611dc6565b3480156106a357600080fd5b506106b76106b2366004614f24565b611e3f565b60405161021f989796959493929190615a8e565b600d54610100900460ff16158080156106eb5750600d54600160ff909116105b806107055750303b1580156107055750600d5460ff166001145b61076d5760405162461bcd60e51b815260206004820152602e60248201527f496e697469616c697a61626c653a20636f6e747261637420697320616c72656160448201526d191e481a5b9a5d1a585b1a5e995960921b60648201526084015b60405180910390fd5b600d805460ff19166001179055801561079057600d805461ff0019166101001790555b610798611f3c565b6107a0611f6b565b6107a98b610858565b6107b28a611815565b6107bb896115fd565b6107c488611d2c565b6107cd876113f3565b6107d686610b94565b6107df8561135a565b6107e884610afa565b6107f36102e7611589565b6107fc836118af565b6108058261194a565b801561084b57600d805461ff0019169055604051600181527f7f26b83ff96e1f2b6a682f133852f6798a09c465da95921460cefb38474024989060200160405180910390a15b5050505050505050505050565b610860611f9a565b60055481116108c25760405162461bcd60e51b815260206004820152602860248201527f4275726e526f757465724c6f6769633a206c6f77207374617274696e67426c6f60448201526731b5a73ab6b132b960c11b6064820152608401610764565b600555565b6108cf611f9a565b6004546040517f68bf625687194a1bbeeccbaa327c37aa1f9940a3c6c9e8fe84f06f1dc14fd1769161090e916001600160a01b03909116908490615661565b60405180910390a1600480546001600160a01b0319166001600160a01b0392909216919091179055565b6000610942611ff9565b6002546001600160a01b03166323b872dd33308a6040518463ffffffff1660e01b81526004016109749392919061567b565b602060405180830381600087803b15801561098e57600080fd5b505af11580156109a2573d6000803e3d6000fd5b505050506040513d601f19601f820116820180604052508101906109c69190614f4f565b610a1e5760405162461bcd60e51b8152602060048201526024808201527f4275726e526f757465724c6f6769633a207472616e7366657246726f6d2066616044820152631a5b195960e21b6064820152608401610764565b600254600090610a3d906001600160a01b031689808a8a8a8a8a612053565b915050610a4a6001607255565b9695505050505050565b6000610a5e611ff9565b6000610a6f8e8e8e8e8e8e8e6124c2565b9050610add8d8d6000818110610a9557634e487b7160e01b600052603260045260246000fd5b905060200201358b8b6000818110610abd57634e487b7160e01b600052603260045260246000fd5b9050602002016020810190610ad29190614dd4565b838a8a8a8a8a612a04565b915050610aea6001607255565b9c9b505050505050505050505050565b610b02611f9a565b806127101015610b545760405162461bcd60e51b815260206004820152601f60248201527f4275726e526f757465724c6f6769633a20696e76616c696420726577617264006044820152606401610764565b7faa50b3683e42a13535a5b9c2c32780cccf956fb546b523a3542ac4ad8b544f6760085482604051610b87929190615a80565b60405180910390a1600855565b600080546040516353bcd1c960e11b8152734C71A5814b1DE10aF31c2524CcB66B582Df410E19163a779a39291610bd7916001600160a01b03169060040161564d565b60206040518083038186803b158015610bef57600080fd5b505af4158015610c03573d6000803e3d6000fd5b505050506040513d601f19601f82011682018060405250810190610c27919061502c565b9050610c31611589565b6001600160a01b0316336001600160a01b03161480610c51575080600654105b610c9a5760405162461bcd60e51b815260206004820152601a602482015279109d5c9b949bdd5d195c931bd9da58ce881b9bc81c195c9b5a5d60321b6044820152606401610764565b808211610ce95760405162461bcd60e51b815260206004820152601d60248201527f4275726e526f757465724c6f6769633a206c6f7720646561646c696e650000006044820152606401610764565b7f92c10a242ca42973030420e2ee32b3ba7818cc643f896958f620c606cf30041660065483604051610d1c929190615a80565b60405180910390a150600655565b610d32611f9a565b565b610d3c611ff9565b610d44611f9a565b60015460405163aff2faa360e01b81526001600160a01b039091169063aff2faa390610d7690869086906004016157f8565b60206040518083038186803b158015610d8e57600080fd5b505afa158015610da2573d6000803e3d6000fd5b505050506040513d601f19601f82011682018060405250810190610dc69190614f4f565b610de25760405162461bcd60e51b8152600401610764906159b3565b60015460405163626885b560e11b81526000916001600160a01b03169063c4d10b6a90610e1590879087906004016157f8565b60206040518083038186803b158015610e2d57600080fd5b505afa158015610e41573d6000803e3d6000fd5b505050506040513d601f19601f82011682018060405250810190610e659190614df0565b905060005b825181101561134957734C71A5814b1DE10aF31c2524CcB66B582Df410E16315755789600a84868581518110610eb057634e487b7160e01b600052603260045260246000fd5b60209081029190910101516006546000546040516310889dc360e01b8152734C71A5814b1DE10aF31c2524CcB66B582Df410E1916310889dc391610f00916001600160a01b03169060040161564d565b60206040518083038186803b158015610f1857600080fd5b505af4158015610f2c573d6000803e3d6000fd5b505050506040513d601f19601f82011682018060405250810190610f50919061502c565b6005546040516001600160e01b031960e089901b16815260048101969096526001600160a01b03909416602486015260448501929092526064840152608483015260a482015260c40160006040518083038186803b158015610fb157600080fd5b505af4158015610fc5573d6000803e3d6000fd5b50506001546008546001600160a01b038681166000908152600a602052604090208851919093169450631697565b93508692612710929189908890811061101c57634e487b7160e01b600052603260045260246000fd5b60200260200101518154811061104257634e487b7160e01b600052603260045260246000fd5b90600052602060002090600702016000015461105e9190615cc4565b6110689190615ca4565b336001600160a01b0387166000908152600a6020526040902088518990889081106110a357634e487b7160e01b600052603260045260246000fd5b6020026020010151815481106110c957634e487b7160e01b600052603260045260246000fd5b906000526020600020906007020160000154600a6000896001600160a01b03166001600160a01b0316815260200190815260200160002089888151811061112057634e487b7160e01b600052603260045260246000fd5b60200260200101518154811061114657634e487b7160e01b600052603260045260246000fd5b600091825260209091206007909102016002015460405160e087901b6001600160e01b03191681526001600160a01b03958616600482015260248101949094529184166044840152606483015291909116608482015260a401602060405180830381600087803b1580156111b957600080fd5b505af11580156111cd573d6000803e3d6000fd5b505050506040513d601f19601f820116820180604052508101906111f19190614f4f565b506001600160a01b0382166000818152600a60205260409020845185908490811061122c57634e487b7160e01b600052603260045260246000fd5b60200260200101518154811061125257634e487b7160e01b600052603260045260246000fd5b906000526020600020906007020160020160009054906101000a90046001600160a01b03166001600160a01b03167f58c23b4ae0617be275628875bcfd65759a441263099a256eeb27899fb5dd846d8787600a6000886001600160a01b03166001600160a01b031681526020019081526020016000208887815181106112e857634e487b7160e01b600052603260045260246000fd5b60200260200101518154811061130e57634e487b7160e01b600052603260045260246000fd5b90600052602060002090600702016006015460405161132f9392919061580c565b60405180910390a38061134181615dab565b915050610e6a565b50506113556001607255565b505050565b611362611f9a565b8061271010156113b35760405162461bcd60e51b815260206004820152601c60248201527b4275726e526f757465724c6f6769633a20696e76616c69642066656560201b6044820152606401610764565b7f7d205f60891f60851c61cd244ba387d72b6589e7c0ac41b9d909ab0ce2c2a53b600754826040516113e6929190615a80565b60405180910390a1600755565b6113fb611f9a565b806001600160a01b0381166114235760405163d92e233d60e01b815260040160405180910390fd5b6002546040517f36a4c08a38b736dcecb6c328dba61238529620e83ccb23db2cc43cd34ec2609691611462916001600160a01b03909116908590615661565b60405180910390a150600280546001600160a01b0319166001600160a01b0392909216919091179055565b6001600160a01b0382166000908152600a602052604081208054839081106114c557634e487b7160e01b600052603260045260246000fd5b600091825260209091206005600790920201015460ff1690505b92915050565b6114ed611f9a565b600082815260a56020526040908190205490517f1e73962bcff5b98a9ac70c9b0f71fbb31dc0f5a09348c6d3ceab164169a9e729916115539185916001600160a01b03169085909283526001600160a01b03918216602084015216604082015260600190565b60405180910390a1600091825260a5602052604090912080546001600160a01b0319166001600160a01b03909216919091179055565b6040546001600160a01b031690565b6115a0611f9a565b600082815260a46020526040908190205490517f188adabf806a6b6d814acc1dbd9f09e5a251c8c065d6285749a5824e4579b645916115e3918591908590615a6a565b60405180910390a1600091825260a4602052604090912055565b611605611f9a565b806001600160a01b03811661162d5760405163d92e233d60e01b815260040160405180910390fd5b6001546040517ffa021c2ec0f46429a53e7f88b88065e40001f50c9d38b2e8b713beaf9828d4c39161166c916001600160a01b03909116908590615661565b60405180910390a150600180546001600160a01b0319166001600160a01b0392909216919091179055565b61169f611ff9565b6116a7611f9a565b6000611705896000815181106116cd57634e487b7160e01b600052603260045260246000fd5b60200260200101518989876000815181106116f857634e487b7160e01b600052603260045260246000fd5b6020026020010151612a17565b9050734C71A5814b1DE10aF31c2524CcB66B582Df410E163441d3a21600160009054906101000a90046001600160a01b03168c8c60405180606001604052808e81526020018c81526020018b815250600c60065460008054906101000a90046001600160a01b03166005548a8e8e8e6040518d63ffffffff1660e01b815260040161179b9c9b9a999897969594939291906156de565b60006040518083038186803b1580156117b357600080fd5b505af41580156117c7573d6000803e3d6000fd5b505050506117ff878b83856002815181106117f257634e487b7160e01b600052603260045260246000fd5b6020026020010151612b7d565b5061180a6001607255565b505050505050505050565b61181d611f9a565b806001600160a01b0381166118455760405163d92e233d60e01b815260040160405180910390fd5b6000546040517f4c28a3f61a715259c4dc930c23e7423b8fa52e13232c061a6e488729c66184f491611884916001600160a01b03909116908590615661565b60405180910390a150600080546001600160a01b0319166001600160a01b0392909216919091179055565b60045433906001600160a01b031681146119095760405162461bcd60e51b815260206004820152601b60248201527a4275726e526f757465724c6f6769633a206e6f74206f7261636c6560281b6044820152606401610764565b7f890eb41e398fd9cf425695b34269b781ad56c257422859094a28db47fb78f1b36009548360405161193c929190615a80565b60405180910390a150600955565b611952611f9a565b60a6546040517f4da8064030e901e42f6de0ab04f4c322d7936d0120503addfe8a51f12709068991611991916001600160a01b03909116908490615661565b60405180910390a160a680546001600160a01b0319166001600160a01b0392909216919091179055565b60006119c5611ff9565b60015460405163626885b560e11b81526000916001600160a01b03169063c4d10b6a906119f6908890600401615830565b60206040518083038186803b158015611a0e57600080fd5b505afa158015611a22573d6000803e3d6000fd5b505050506040513d601f19601f82011682018060405250810190611a469190614df0565b9050336001600160a01b0382161480611a7257506004546001600160a01b0316336001600160a01b0316145b611a8e5760405162461bcd60e51b8152600401610764906159b3565b734C71A5814b1DE10aF31c2524CcB66B582Df410E16344922b64896005548c600160009054906101000a90046001600160a01b03168a8a518a516040518863ffffffff1660e01b8152600401611aea9796959493929190615b70565b60006040518083038186803b158015611b0257600080fd5b505af4158015611b16573d6000803e3d6000fd5b505050506000611b288d8d8d8d612a17565b600054604051637ebc232760e01b8152919250734C71A5814b1DE10aF31c2524CcB66B582Df410E191637ebc232791611b77916001600160a01b039091169085908e908e908e9060040161569f565b60206040518083038186803b158015611b8f57600080fd5b505af4158015611ba3573d6000803e3d6000fd5b505050506040513d601f19601f82011682018060405250810190611bc79190614f4f565b611c135760405162461bcd60e51b815260206004820152601e60248201527f4275726e526f757465724c6f6769633a206e6f742066696e616c697a656400006044820152606401610764565b6000611c23828b858f8a8a612d49565b9050734C71A5814b1DE10aF31c2524CcB66B582Df410E163191e28dc600c838f8b876040518663ffffffff1660e01b8152600401611c6595949392919061593a565b60206040518083038186803b158015611c7d57600080fd5b505af4158015611c91573d6000803e3d6000fd5b505050506040513d601f19601f82011682018060405250810190611cb59190614f4f565b611d0d5760405162461bcd60e51b815260206004820152602360248201527f4275726e526f757465724c6f6769633a20696e76616c6964206275726e20707260448201526237b7b360e91b6064820152608401610764565b60019350505050611d1e6001607255565b9a9950505050505050505050565b611d34611f9a565b806001600160a01b038116611d5c5760405163d92e233d60e01b815260040160405180910390fd5b6003546040517f567657fa3f286518b318f4a29870674f433f622fdfc819691acb13105b22822591611d9b916001600160a01b03909116908590615661565b60405180910390a150600380546001600160a01b0319166001600160a01b0392909216919091179055565b611dce611f9a565b6001600160a01b038116611e335760405162461bcd60e51b815260206004820152602660248201527f4f776e61626c653a206e6577206f776e657220697320746865207a65726f206160448201526564647265737360d01b6064820152608401610764565b611e3c8161322d565b50565b600a6020528160005260406000208181548110611e5b57600080fd5b600091825260209091206007909102018054600182015460028301546003840180549396509194506001600160a01b03169291611e9790615d76565b80601f0160208091040260200160405190810160405280929190818152602001828054611ec390615d76565b8015611f105780601f10611ee557610100808354040283529160200191611f10565b820191906000526020600020905b815481529060010190602001808311611ef357829003601f168201915b505050600484015460058501546006909501549394909360ff8083169450610100909204909116915088565b600d54610100900460ff16611f635760405162461bcd60e51b8152600401610764906159e8565b610d3261327d565b600d54610100900460ff16611f925760405162461bcd60e51b8152600401610764906159e8565b610d326132ad565b33611fa3611589565b6001600160a01b031614610d325760405162461bcd60e51b815260206004820181905260248201527f4f776e61626c653a2063616c6c6572206973206e6f7420746865206f776e65726044820152606401610764565b6002607254141561204c5760405162461bcd60e51b815260206004820152601f60248201527f5265656e7472616e637947756172643a207265656e7472616e742063616c6c006044820152606401610764565b6002607255565b600154604051630f87661560e41b8152600091734C71A5814b1DE10aF31c2524CcB66B582Df410E19163f8766150916120a2918a918a916001600160a01b03909116908a908a90600401615843565b60006040518083038186803b1580156120ba57600080fd5b505af41580156120ce573d6000803e3d6000fd5b5050505060008060006120e18a866132d4565b60025460015460405163095ea7b360e01b81529497509295509093506001600160a01b039081169263095ea7b39261211f92169087906004016157df565b602060405180830381600087803b15801561213957600080fd5b505af115801561214d573d6000803e3d6000fd5b505050506040513d601f19601f820116820180604052508101906121719190614f4f565b506001546040516338463cff60e01b81526001600160a01b03909116906338463cff906121a6908a908a90889060040161580c565b602060405180830381600087803b1580156121c057600080fd5b505af11580156121d4573d6000803e3d6000fd5b505050506040513d601f19601f820116820180604052508101906121f8919061502c565b60015460405163626885b560e11b81529195506000916001600160a01b039091169063c4d10b6a90612230908b908b906004016157f8565b60206040518083038186803b15801561224857600080fd5b505afa15801561225c573d6000803e3d6000fd5b505050506040513d601f19601f820116820180604052508101906122809190614df0565b6000546040516310889dc360e01b8152919250612327918d9188918e918e91734C71A5814b1DE10aF31c2524CcB66B582Df410E1916310889dc3916122d1916001600160a01b03169060040161564d565b60206040518083038186803b1580156122e957600080fd5b505af41580156122fd573d6000803e3d6000fd5b505050506040513d601f19601f82011682018060405250810190612321919061502c565b86613674565b604080516060810182528d815260208082018e905281830188905282516080810190935260095483528f9260009181016123618a8a615d0c565b8152602080820189905260409182018890526001600160a01b0387166000908152600a9091522080549192509061239a90600190615d0c565b815481106123b857634e487b7160e01b600052603260045260246000fd5b9060005260206000209060070201600401546123d13390565b6001600160a01b03167f6b5c22e69db87534a562352580358411dc7b2d98d24684765342f2ebf2dd8c318f8f88600a60008b6001600160a01b03166001600160a01b031681526020019081526020016000206001600a60008d6001600160a01b03166001600160a01b03168152602001908152602001600020805490506124589190615d0c565b8154811061247657634e487b7160e01b600052603260045260246000fd5b9060005260206000209060070201600601548f8a8a8a6040516124a0989796959493929190615891565b60405180910390a35050505050505098975050505050505050565b6001607255565b6002546000906001600160a01b031684846124de600182615d0c565b8181106124fb57634e487b7160e01b600052603260045260246000fd5b90506020020160208101906125109190614dd4565b6001600160a01b0316146125365760405162461bcd60e51b815260040161076490615a33565b600286146125865760405162461bcd60e51b815260206004820152601e60248201527f4275726e526f757465724c6f6769633a2077726f6e6720616d6f756e747300006044820152606401610764565b34156126d357868660008181106125ad57634e487b7160e01b600052603260045260246000fd5b9050602002013534146126025760405162461bcd60e51b815260206004820152601f60248201527f4275726e526f757465724c6f6769633a20696e76616c696420616d6f756e74006044820152606401610764565b8383600081811061262357634e487b7160e01b600052603260045260246000fd5b90506020020160208101906126389190614dd4565b60a6546001600160a01b039081169116146126655760405162461bcd60e51b815260040161076490615a33565b60a660009054906101000a90046001600160a01b03166001600160a01b031663d0e30db0346040518263ffffffff1660e01b81526004016000604051808303818588803b1580156126b557600080fd5b505af11580156126c9573d6000803e3d6000fd5b50505050506127b3565b838360008181106126f457634e487b7160e01b600052603260045260246000fd5b90506020020160208101906127099190614dd4565b6001600160a01b03166323b872dd33308a8a600081811061273a57634e487b7160e01b600052603260045260246000fd5b905060200201356040518463ffffffff1660e01b815260040161275f9392919061567b565b602060405180830381600087803b15801561277957600080fd5b505af115801561278d573d6000803e3d6000fd5b505050506040513d601f19601f820116820180604052508101906127b19190614f4f565b505b838360008181106127d457634e487b7160e01b600052603260045260246000fd5b90506020020160208101906127e99190614dd4565b6001600160a01b031663095ea7b3898989600081811061281957634e487b7160e01b600052603260045260246000fd5b905060200201356040518363ffffffff1660e01b815260040161283d9291906157df565b602060405180830381600087803b15801561285757600080fd5b505af115801561286b573d6000803e3d6000fd5b505050506040513d601f19601f8201168201806040525081019061288f9190614f4f565b50600080896001600160a01b031663b0bbcd888a8a60008181106128c357634e487b7160e01b600052603260045260246000fd5b905060200201358b8b60018181106128eb57634e487b7160e01b600052603260045260246000fd5b905060200201358989308a8e6040518863ffffffff1660e01b81526004016129199796959493929190615af1565b600060405180830381600087803b15801561293357600080fd5b505af1158015612947573d6000803e3d6000fd5b505050506040513d6000823e601f3d908101601f1916820160405261296f9190810190614f6b565b91509150816129c05760405162461bcd60e51b815260206004820181905260248201527f4275726e526f757465724c6f6769633a2065786368616e6765206661696c65646044820152606401610764565b80600182516129cf9190615d0c565b815181106129ed57634e487b7160e01b600052603260045260246000fd5b602002602001015192505050979650505050505050565b600080611d1e898b8a8a8a8a8a8a612053565b600080612a2c612a278683613844565b613868565b9050612a3d62ffffff1982166139be565b15612a875760405162461bcd60e51b815260206004820152601a602482015279109a5d18dbda5b92195b1c195c8e881d9a5b881a5cc81b9d5b1b60321b6044820152606401610764565b6000600287878787604051602001612aa294939291906155de565b60408051601f1981840301815290829052612abc91615631565b602060405180830381855afa158015612ad9573d6000803e3d6000fd5b5050506040513d601f19601f82011682018060405250810190612afc919061502c565b90506000600282604051602001612b1591815260200190565b60408051601f1981840301815290829052612b2f91615631565b602060405180830381855afa158015612b4c573d6000803e3d6000fd5b5050506040513d601f19601f82011682018060405250810190612b6f919061502c565b93505050505b949350505050565b6000612b88856139ca565b60015460405163626885b560e11b81526001600160401b039290921692506000916001600160a01b039091169063c4d10b6a90612bc9908890600401615830565b60206040518083038186803b158015612be157600080fd5b505afa158015612bf5573d6000803e3d6000fd5b505050506040513d601f19601f82011682018060405250810190612c199190614df0565b6001546008549192506001600160a01b03169063b734de2690839061271090612c429087615cc4565b612c4c9190615ca4565b3360405160e085901b6001600160e01b03191681526001600160a01b0393841660048201526024810192909252909116604482015260648101859052608401602060405180830381600087803b158015612ca557600080fd5b505af1158015612cb9573d6000803e3d6000fd5b505050506040513d601f19601f82011682018060405250810190612cdd9190614f4f565b507f7ff138134e34ccab071315c38e38eec079f54726b890304ab46e2c5ab6f722bb8186858761271060085488612d149190615cc4565b612d1e9190615ca4565b612d289088615c1a565b604051612d3995949392919061579e565b60405180910390a1505050505050565b60008080805b85518110156132205780612d8c57848181518110612d7d57634e487b7160e01b600052603260045260246000fd5b60200260200101519150612e3d565b81858281518110612dad57634e487b7160e01b600052603260045260246000fd5b602002602001015111612e125760405162461bcd60e51b815260206004820152602760248201527f4275726e526f757465724c6f6769633a20756e2d736f7274656420766f757420604482015266696e646578657360c81b6064820152608401610764565b848181518110612e3257634e487b7160e01b600052603260045260246000fd5b602002602001015191505b6000868281518110612e5f57634e487b7160e01b600052603260045260246000fd5b60200260200101519050600a60008a6001600160a01b03166001600160a01b031681526020019081526020016000208181548110612ead57634e487b7160e01b600052603260045260246000fd5b600091825260209091206005600790920201015460ff16158015612f1c57506001600160a01b0389166000908152600a6020526040902080548b919083908110612f0757634e487b7160e01b600052603260045260246000fd5b90600052602060002090600702016004015410155b1561320d5761308988878481518110612f4557634e487b7160e01b600052603260045260246000fd5b6020026020010151600a60008d6001600160a01b03166001600160a01b031681526020019081526020016000208481548110612f9157634e487b7160e01b600052603260045260246000fd5b90600052602060002090600702016003018054612fad90615d76565b80601f0160208091040260200160405190810160405280929190818152602001828054612fd990615d76565b80156130265780601f10612ffb57610100808354040283529160200191613026565b820191906000526020600020905b81548152906001019060200180831161300957829003601f168201915b5050506001600160a01b038f166000908152600a602052604090208054909250879150811061306557634e487b7160e01b600052603260045260246000fd5b906000526020600020906007020160050160019054906101000a900460ff16613a6d565b6001600160401b0316935083600a60008b6001600160a01b03166001600160a01b0316815260200190815260200160002082815481106130d957634e487b7160e01b600052603260045260246000fd5b906000526020600020906007020160010154141561320d576001600160a01b0389166000908152600a602052604090208054600191908390811061312d57634e487b7160e01b600052603260045260246000fd5b60009182526020909120600790910201600501805460ff191691151591909117905561315a856001615c1a565b6001600160a01b038a166000818152600a60205260409020805492975090917f7b8cb33b1d4dc1e5d05c58e9945c383eb161ac22029c5b963989d08c3d0ef4da9190849081106131ba57634e487b7160e01b600052603260045260246000fd5b9060005260206000209060070201600601548d8986815181106131ed57634e487b7160e01b600052603260045260246000fd5b602002602001015160405161320493929190615a6a565b60405180910390a25b508061321881615dab565b915050612d4f565b5050509695505050505050565b604080546001600160a01b038381166001600160a01b031983168117845592519116919082907f8be0079c531659141344cd1fd0a4f28419497f9722a3daafe3b4186f6b6457e090600090a35050565b600d54610100900460ff166132a45760405162461bcd60e51b8152600401610764906159e8565b610d323361322d565b600d54610100900460ff166124bb5760405162461bcd60e51b8152600401610764906159e8565b6000806000612710600754866132ea9190615cc4565b6132f49190615ca4565b600085815260a46020526040902054909250612710906133149087615cc4565b61331e9190615ca4565b6009549091508161332f8488615d0c565b6133399190615d0c565b6133439190615d0c565b92506009548310156133955760405162461bcd60e51b815260206004820152601b60248201527a109d5c9b949bdd5d195c931bd9da58ce881b1bddc8185b5bdd5b9d602a1b6044820152606401610764565b811561347b5760025460035460405163a9059cbb60e01b81526001600160a01b039283169263a9059cbb926133d19291169086906004016157df565b602060405180830381600087803b1580156133eb57600080fd5b505af11580156133ff573d6000803e3d6000fd5b505050506040513d601f19601f820116820180604052508101906134239190614f4f565b61347b5760405162461bcd60e51b8152602060048201526024808201527f4275726e526f757465724c6f6769633a20666565207472616e736665722066616044820152631a5b195960e21b6064820152608401610764565b801561357b57600254600085815260a560205260409081902054905163a9059cbb60e01b81526001600160a01b039283169263a9059cbb926134c49291169085906004016157df565b602060405180830381600087803b1580156134de57600080fd5b505af11580156134f2573d6000803e3d6000fd5b505050506040513d601f19601f820116820180604052508101906135169190614f4f565b61357b5760405162461bcd60e51b815260206004820152603060248201527f4275726e526f757465724c6f6769633a2074686972642070617274792066656560448201526f081d1c985b9cd9995c8819985a5b195960821b6064820152608401610764565b6009541561366d5760025460015460095460405163a9059cbb60e01b81526001600160a01b039384169363a9059cbb936135ba939116916004016157df565b602060405180830381600087803b1580156135d457600080fd5b505af11580156135e8573d6000803e3d6000fd5b505050506040513d601f19601f8201168201806040525081019061360c9190614f4f565b61366d5760405162461bcd60e51b815260206004820152602c60248201527f4275726e526f757465724c6f6769633a206e6574776f726b206665652074726160448201526b1b9cd9995c8819985a5b195960a21b6064820152608401610764565b9250925092565b604080516101008101825260006080820181905260a0820181905260c0820181815260e083019190915288825260208201889052339282019290925260608101869052908460058111156136d857634e487b7160e01b600052602160045260246000fd5b908160058111156136f957634e487b7160e01b600052602160045260246000fd5b9052506006546137099084615c1a565b6080820152600060a082018190526001600160a01b038316808252600b6020818152604084205460e0860181905292909352909152613749906001615c1a565b6001600160a01b038381166000908152600b6020908152604080832094909455600a81528382208054600180820183559184529282902086516007909402019283558582015190830155928401516002820180546001600160a01b03191691909316179091556060830151805184936137c9926003850192910190614b42565b506080820151600482015560a08201516005808301805492151560ff1984168117825560c086015193919261ff001990911661ffff19909216919091179061010090849081111561382a57634e487b7160e01b600052602160045260246000fd5b021790555060e08201518160060155505050505050505050565b81516000906020840161385f64ffffffffff85168284613ce1565b95945050505050565b6000818161387e815b62ffffff19841690613d28565b5061388e62ffffff198516613e02565b6001600160601b03166138aa576138a3613e11565b92506139b7565b60006138b7856000613e19565b905060006138ca62ffffff198716613e02565b6001600160601b031690506001600160401b0382166138f4576138eb613e11565b945050506139b7565b60006138ff83613f62565b60ff16905060005b836001600160401b031681101561397d5782821061393257613927613e11565b9650505050506139b7565b60006139526139418486615d0c565b60055b62ffffff198c169190613fc0565b905061395d81613fea565b6139679084615c1a565b925050808061397590615dab565b915050613907565b508181146139975761398d613e11565b95505050506139b7565b6139b160065b60d81b6301000000600160d81b0389161790565b95505050505b5050919050565b62ffffff199081161490565b6000806139df6139da8483613844565b61403e565b90506139f062ffffff1982166139be565b15613a0d5760405162461bcd60e51b81526004016107649061597e565b600080613a1b836000613e19565b6001600160401b0316905060005b81811015613a6457613a3b848261413f565b9250613a4683614256565b613a509086615c32565b945080613a5c81615dab565b915050613a29565b50505050919050565b600080613a7d6139da8783613844565b9050613a8e62ffffff1982166139be565b15613aab5760405162461bcd60e51b81526004016107649061597e565b6000613ab7828761413f565b90506000613ac48261427b565b90506005856005811115613ae857634e487b7160e01b600052602160045260246000fd5b1415613b4d57613b0162ffffff198216600260206142cc565b604051602001613b1391815260200190565b60405160208183030381529060405280519060200120868051906020012014613b3d576000613b46565b613b4682614256565b9350613cd6565b6000856005811115613b6f57634e487b7160e01b600052602160045260246000fd5b1415613b8857613b0162ffffff198216600160206142cc565b6001856005811115613baa57634e487b7160e01b600052602160045260246000fd5b1415613be457613bc162ffffff19821660036143fa565b604051602001613b13919060609190911b6001600160601b031916815260140190565b6002856005811115613c0657634e487b7160e01b600052602160045260246000fd5b1415613c1d57613bc162ffffff19821660026143fa565b6003856005811115613c3f57634e487b7160e01b600052602160045260246000fd5b1415613c5657613bc162ffffff19821660026143fa565b6004856005811115613c7857634e487b7160e01b600052602160045260246000fd5b1415613cd657613c9162ffffff198216600260206142cc565b604051602001613ca391815260200190565b60405160208183030381529060405280519060200120868051906020012014613ccd576000612b6f565b612b6f82614256565b505050949350505050565b600080613cee8385615c1a565b9050604051811115613cfe575060005b80613d105762ffffff19915050613d21565b5050606083811b8317901b811760181b5b9392505050565b6000613d348383614408565b613dfb576000613d53613d478560d81c90565b64ffffffffff1661442b565b9150506000613d688464ffffffffff1661442b565b6040517f5479706520617373657274696f6e206661696c65642e20476f7420307800000060208201526001600160b01b031960b086811b8216603d8401526c05c408af0e0cac6e8cac84060f609b1b604784015283901b16605482015290925060009150605e015b60405160208183030381529060405290508060405162461bcd60e51b81526004016107649190615830565b5090919050565b60181c6001600160601b031690565b62ffffff1990565b600080613e2e62ffffff1985168460016144d7565b905060fc8111613e4957613e4181614507565b9150506114df565b8060fd1415613eaf57613e77613e72613e63856001615c1a565b62ffffff198716906002614573565b614507565b9150613e8282613f62565b60ff16600314613eaa57613ea8613ea362ffffff19861685600360006146b6565b61471c565b505b613f5b565b8060fe1415613f0457613ed8613e72613ec9856001615c1a565b62ffffff198716906004614573565b9150613ee382613f62565b60ff16600514613eaa57613ea8613ea362ffffff19861685600560006146b6565b8060ff1415613f5b57613f2d613e72613f1e856001615c1a565b62ffffff198716906008614573565b9150613f3882613f62565b60ff16600914613f5b57613f59613ea362ffffff19861685600960006146b6565b505b5092915050565b600060fc826001600160401b031611613f7d57506001919050565b61ffff826001600160401b031611613f9757506003919050565b63ffffffff826001600160401b031611613fb357506005919050565b506009919050565b919050565b6000612b758484613fd087613e02565b6001600160601b0316613fe39190615d0c565b85856146b6565b6000816005613ff881613871565b506000614006856024613e19565b9050806001600160401b031661401b82613f62565b60ff166140289190615c1a565b614033906024615c1a565b61385f906004615c1a565b6000818161404b81613871565b5061405b62ffffff198516613e02565b6001600160601b0316614070576138a3613e11565b600061407d856000613e19565b9050600061409062ffffff198716613e02565b6001600160601b031690506001600160401b0382166140b1576138eb613e11565b60006140bc83613f62565b60ff16905060005b836001600160401b0316811015614125578282106140e457613927613e11565b60006140fa6140f38486615d0c565b600e613944565b9050614105816147a4565b61410f9084615c1a565b925050808061411d90615dab565b9150506140c4565b508181146141355761398d613e11565b6139b1600f61399d565b600082600f61414d81613871565b50600061415b866000613e19565b6001600160401b03169050600061417762ffffff198816613e02565b6001600160601b031690508186106141c55760405162461bcd60e51b81526020600482015260116024820152702b37baba103932b0b21037bb32b9393ab760791b6044820152606401610764565b60006141d083613f62565b60ff1690506000805b88811015614226576141fd6141ee8486615d0c565b62ffffff198c1690600e613fc0565b9150614208826147a4565b6142129084615c1a565b925061421f600182615c1a565b90506141d9565b506142346140f38385615d0c565b90506000614241826147a4565b9050611d1e62ffffff198b168483600d6146b6565b600081600d61426481613871565b50612b75613e7262ffffff19861660006008614573565b600081600d61428981613871565b506000614297856008613e19565b905061385f6142a582613f62565b6142b0906008615c5d565b62ffffff1987169060ff166001600160401b03841660076146b6565b600060ff82166142de57506000613d21565b6142e784613e02565b6001600160601b03166142fd60ff841685615c1a565b111561434d5761433461430f856147ed565b6001600160601b031661432186613e02565b6001600160601b0316858560ff166147fc565b60405162461bcd60e51b81526004016107649190615830565b60208260ff1611156143c45760405162461bcd60e51b815260206004820152603a60248201527f54797065644d656d566965772f696e646578202d20417474656d7074656420746044820152796f20696e646578206d6f7265207468616e20333220627974657360301b6064820152608401610764565b6008820260006143d3866147ed565b6001600160601b031690506000600160ff1b60001984011d91909501511695945050505050565b6000613d21838360146144d7565b60008164ffffffffff1661441c8460d81c90565b64ffffffffff16149392505050565b600080601f5b600f8160ff16111561448957600061444a826008615ce3565b60ff1685901c905061445b81614926565b61ffff16841793508160ff1660101461447657601084901b93505b50614482600182615d23565b9050614431565b50600f5b60ff8160ff1610156144d15760ff600882021684901c6144ac81614926565b61ffff16831792508160ff166000146144c757601083901b92505b506000190161448d565b50915091565b60006144e4826020615d23565b6144ef906008615ce3565b60ff166144fd8585856142cc565b901c949350505050565b60006001600160401b0382111561456f5760405162461bcd60e51b815260206004820152602660248201527f53616665436173743a2076616c756520646f65736e27742066697420696e203660448201526534206269747360d01b6064820152608401610764565b5090565b6000612b756145838585856142cc565b60008190506008817eff00ff00ff00ff00ff00ff00ff00ff00ff00ff00ff00ff00ff00ff00ff00ff16901b600882901c7eff00ff00ff00ff00ff00ff00ff00ff00ff00ff00ff00ff00ff00ff00ff00ff161790506010817dffff0000ffff0000ffff0000ffff0000ffff0000ffff0000ffff0000ffff16901b601082901c7dffff0000ffff0000ffff0000ffff0000ffff0000ffff0000ffff0000ffff161790506020817bffffffff00000000ffffffff00000000ffffffff00000000ffffffff16901b602082901c7bffffffff00000000ffffffff00000000ffffffff00000000ffffffff161790506040816001600160401b03600160801b03600160c01b0316901b604082901c6001600160401b03600160801b03600160c01b0316179050608081901b608082901c179050919050565b6000806146c2866147ed565b6001600160601b031690506146d686614958565b846146e18784615c1a565b6146eb9190615c1a565b11156146fe5762ffffff19915050612b75565b6147088582615c1a565b9050610a4a8364ffffffffff168286613ce1565b6060600061475a6147558261474761473962ffffff198816613e02565b6001600160601b0316614985565b62ffffff19871691906144d7565b61442b565b6040517a09cdedc5adad2dcd2dac2d840ecc2e440d2dce85c408edee84060f602b1b60208201526001600160701b0319607083901b16603b82015290925060009150604d01613dd0565b600081600e6147b281613871565b5060006147c0856008613e19565b9050806001600160401b03166147d582613f62565b60ff166147e29190615c1a565b61385f906008615c1a565b60781c6001600160601b031690565b606060006148098661442b565b91505060006148178661442b565b91505060006148258661442b565b91505060006148338661442b565b604080517f54797065644d656d566965772f696e646578202d204f76657272616e20746865602082015274040ecd2caee5c40a6d8d2c6ca40d2e640c2e84060f605b1b818301526001600160d01b031960d098891b811660558301526e040eed2e8d040d8cadccee8d04060f608b1b605b830181905297891b8116606a8301527f2e20417474656d7074656420746f20696e646578206174206f666673657420306070830152600f60fb1b609083015295881b861660918201526097810196909652951b90921660a68401525050601760f91b60ac8201528151808203608d01815260ad90910190915295945050505050565b600061493860048360ff16901c6149e6565b60ff1661ffff919091161760081b61494f826149e6565b60ff1617919050565b600061496382613e02565b61496c836147ed565b6149769190615c82565b6001600160601b031692915050565b600060ff82111561456f5760405162461bcd60e51b815260206004820152602560248201527f53616665436173743a2076616c756520646f65736e27742066697420696e2038604482015264206269747360d81b6064820152608401610764565b600060f08083179060ff82161415614a015750603092915050565b8060ff1660f11415614a165750603192915050565b8060ff1660f21415614a2b5750603292915050565b8060ff1660f31415614a405750603392915050565b8060ff1660f41415614a555750603492915050565b8060ff1660f51415614a6a5750603592915050565b8060ff1660f61415614a7f5750603692915050565b8060ff1660f71415614a945750603792915050565b8060ff1660f81415614aa95750603892915050565b8060ff1660f91415614abe5750603992915050565b8060ff1660fa1415614ad35750606192915050565b8060ff1660fb1415614ae85750606292915050565b8060ff1660fc1415614afd5750606392915050565b8060ff1660fd1415614b125750606492915050565b8060ff1660fe1415614b275750606592915050565b8060ff1660ff1415614b3c5750606692915050565b50919050565b828054614b4e90615d76565b90600052602060002090601f016020900481019282614b705760008555614bb6565b82601f10614b8957805160ff1916838001178555614bb6565b82800160010185558215614bb6579182015b82811115614bb6578251825591602001919060010190614b9b565b5061456f9291505b8082111561456f5760008155600101614bbe565b8035613fbb81615df2565b60008083601f840112614bee578182fd5b5081356001600160401b03811115614c04578182fd5b6020830191508360208260051b8501011115614c1f57600080fd5b9250929050565b600082601f830112614c36578081fd5b81356020614c4b614c4683615bf7565b615bc7565b80838252828201915082860187848660051b8901011115614c6a578586fd5b855b85811015614c8f57614c7d82614d04565b84529284019290840190600101614c6c565b5090979650505050505050565b600082601f830112614cac578081fd5b81356020614cbc614c4683615bf7565b80838252828201915082860187848660051b8901011115614cdb578586fd5b855b85811015614c8f57813584529284019290840190600101614cdd565b8035613fbb81615e07565b80356001600160e01b031981168114613fbb57600080fd5b60008083601f840112614d2d578182fd5b5081356001600160401b03811115614d43578182fd5b602083019150836020828501011115614c1f57600080fd5b600082601f830112614d6b578081fd5b81356001600160401b03811115614d8457614d84615ddc565b614d97601f8201601f1916602001615bc7565b818152846020838601011115614dab578283fd5b816020850160208301379081016020019190915292915050565b803560068110613fbb57600080fd5b600060208284031215614de5578081fd5b8135613d2181615df2565b600060208284031215614e01578081fd5b8151613d2181615df2565b6000806000806000806000806000806000806101208d8f031215614e2e578788fd5b614e378d614bd2565b9b506001600160401b0360208e01351115614e50578788fd5b614e608e60208f01358f01614bdd565b909b509950614e7160408e01614cf9565b98506001600160401b0360608e01351115614e8a578788fd5b614e9a8e60608f01358f01614bdd565b909850965060808d013595506001600160401b0360a08e01351115614ebd578485fd5b614ecd8e60a08f01358f01614d5b565b9450614edb60c08e01614dc5565b93506001600160401b0360e08e01351115614ef4578283fd5b614f048e60e08f01358f01614d1c565b81945080935050506101008d013590509295989b509295989b509295989b565b60008060408385031215614f36578182fd5b8235614f4181615df2565b946020939093013593505050565b600060208284031215614f60578081fd5b8151613d2181615e07565b60008060408385031215614f7d578182fd5b8251614f8881615e07565b602084810151919350906001600160401b03811115614fa5578283fd5b8401601f81018613614fb5578283fd5b8051614fc3614c4682615bf7565b80828252848201915084840189868560051b8701011115614fe2578687fd5b8694505b83851015615004578051835260019490940193918501918501614fe6565b5080955050505050509250929050565b600060208284031215615025578081fd5b5035919050565b60006020828403121561503d578081fd5b5051919050565b6000806000806000806000806000806101408b8d031215615063578384fd5b61506c8b614d04565b995060208b01356001600160401b0380821115615087578586fd5b6150938e838f01614d5b565b9a5060408d01359150808211156150a8578586fd5b6150b48e838f01614d5b565b99506150c260608e01614d04565b985060808d0135975060a08d01359150808211156150de578586fd5b6150ea8e838f01614d5b565b965060c08d0135955060e08d0135915080821115615106578485fd5b6151128e838f01614d5b565b94506101008d0135915080821115615128578384fd5b6151348e838f01614c9c565b93506101208d013591508082111561514a578283fd5b506151578d828e01614c9c565b9150509295989b9194979a5092959850565b60008060006040848603121561517d578081fd5b83356001600160401b0380821115615193578283fd5b61519f87838801614d1c565b909550935060208601359150808211156151b7578283fd5b506151c486828701614c9c565b9150509250925092565b60008060008060008060008060006101208a8c0312156151ec578283fd5b89356001600160401b0380821115615202578485fd5b61520e8d838e01614d5b565b9a5060208c0135915080821115615223578485fd5b61522f8d838e01614c26565b995060408c0135915080821115615244578485fd5b6152508d838e01614d5b565b985060608c0135915080821115615265578485fd5b6152718d838e01614d5b565b975060808c0135915080821115615286578485fd5b6152928d838e01614d5b565b965060a08c01359150808211156152a7578485fd5b6152b38d838e01614d5b565b955060c08c01359150808211156152c8578485fd5b6152d48d838e01614c26565b945060e08c01359150808211156152e9578384fd5b6152f58d838e01614d5b565b93506101008c013591508082111561530b578283fd5b506153188c828d01614c9c565b9150509295985092959850929598565b6000806040838503121561533a578182fd5b82359150602083013561534c81615df2565b809150509250929050565b6000806000806000806000806000806101408b8d031215615376578384fd5b8a35995060208b013561538881615df2565b985060408b013561539881615df2565b975060608b01356153a881615df2565b965060808b01356153b881615df2565b955060a08b0135945060c08b0135935060e08b013592506101008b013591506101208b01356153e681615df2565b809150509295989b9194979a5092959850565b60008060008060008060a08789031215615411578384fd5b8635955060208701356001600160401b038082111561542e578586fd5b61543a8a838b01614d5b565b965061544860408a01614dc5565b9550606089013591508082111561545d578384fd5b5061546a89828a01614d1c565b979a9699509497949695608090950135949350505050565b60008060408385031215615494578182fd5b50508035926020909101359150565b6001600160a01b03169052565b6000815180845260208085019450808401835b838110156154e95781516001600160e01b031916875295820195908201906001016154c3565b509495945050505050565b6000826060810183835b600381101561552d578383038752615517838351615590565b60209788019790935091909101906001016154fe565b509095945050505050565b6000815180845260208085019450808401835b838110156154e95781518752958201959082019060010161554b565b81835281816020850137506000828201602090810191909152601f909101601f19169091010190565b600081518084526155a8816020860160208601615d46565b601f01601f19169290920160200192915050565b600681106155da57634e487b7160e01b600052602160045260246000fd5b9052565b600063ffffffff60e01b80871683528551615600816004860160208a01615d46565b855190840190615617816004840160208a01615d46565b919094169301600481019390935250506008019392505050565b60008251615643818460208701615d46565b9190910192915050565b6001600160a01b0391909116815260200190565b6001600160a01b0392831681529116602082015260400190565b6001600160a01b039384168152919092166020820152604081019190915260600190565b60018060a01b038616815284602082015283604082015260a0606082015260006156cc60a0830185615590565b90508260808301529695505050505050565b6156e8818e6154a3565b6101806020820152600061570061018083018e615590565b8281036040840152615712818e6154b0565b90508281036060840152615726818d6154f4565b90508a60808401528960a084015261574160c084018a6154a3565b8760e08401528661010084015282810361012084015261576181876154b0565b90508281036101408401526157768186615590565b905082810361016084015261578b8185615538565b9f9e505050505050505050505050505050565b6001600160a01b038616815260a0602082018190526000906157c290830187615590565b604083019590955250606081019290925260809091015292915050565b6001600160a01b03929092168252602082015260400190565b602081526000612b75602083018486615567565b604081526000615820604083018587615567565b9050826020830152949350505050565b602081526000613d216020830184615590565b6080815260006158566080830188615590565b61586360208401886155bc565b6001600160a01b03861660408401528281036060840152615885818587615567565b98975050505050505050565b60006101a08083526158a58184018c615590565b91505060206158b68184018b6155bc565b6001600160a01b0389811660408501526060840189905260808401889052861660a084015260c083018560005b6003811015615900578151835291830191908301906001016158e3565b50505061012083018460005b60048110156159295781518352918301919083019060010161590c565b505050509998505050505050505050565b85815284602082015260a06040820152600061595960a0830186615590565b828103606084015261596b8186615590565b9150508260808301529695505050505050565b6020808252601b908201527a109a5d18dbda5b92195b1c195c8e881d9bdd5d081a5cc81b9d5b1b602a1b604082015260600190565b6020808252601b908201527a213ab9372937baba32b92637b3b4b19d103737ba103637b1b5b2b960291b604082015260600190565b6020808252602b908201527f496e697469616c697a61626c653a20636f6e7472616374206973206e6f74206960408201526a6e697469616c697a696e6760a81b606082015260800190565b6020808252601d908201527f4275726e526f757465724c6f6769633a20696e76616c69642070617468000000604082015260600190565b9283526020830191909152604082015260600190565b918252602082015260400190565b888152602081018890526001600160a01b038716604082015261010060608201819052600090615ac083820189615590565b91505085608083015284151560a0830152615ade60c08301856155bc565b8260e08301529998505050505050505050565b878152602080820188905260c0604083018190528201869052600090879060e08401835b89811015615b43578335615b2881615df2565b6001600160a01b031682529282019290820190600101615b15565b506001600160a01b039790971660608501525050506080810192909252151560a090910152949350505050565b878152602081018790526001600160e01b0319861660408201526001600160a01b038516606082015260e060808201819052600090615bb190830186615590565b60a08301949094525060c0015295945050505050565b604051601f8201601f191681016001600160401b0381118282101715615bef57615bef615ddc565b604052919050565b60006001600160401b03821115615c1057615c10615ddc565b5060051b60200190565b60008219821115615c2d57615c2d615dc6565b500190565b60006001600160401b03828116848216808303821115615c5457615c54615dc6565b01949350505050565b600060ff821660ff84168060ff03821115615c7a57615c7a615dc6565b019392505050565b60006001600160601b03828116848216808303821115615c5457615c54615dc6565b600082615cbf57634e487b7160e01b81526012600452602481fd5b500490565b6000816000190483118215151615615cde57615cde615dc6565b500290565b600060ff821660ff84168160ff0481118215151615615d0457615d04615dc6565b029392505050565b600082821015615d1e57615d1e615dc6565b500390565b600060ff821660ff841680821015615d3d57615d3d615dc6565b90039392505050565b60005b83811015615d61578181015183820152602001615d49565b83811115615d70576000848401525b50505050565b600181811c90821680615d8a57607f821691505b60208210811415614b3c57634e487b7160e01b600052602260045260246000fd5b6000600019821415615dbf57615dbf615dc6565b5060010190565b634e487b7160e01b600052601160045260246000fd5b634e487b7160e01b600052604160045260246000fd5b6001600160a01b0381168114611e3c57600080fd5b8015158114611e3c57600080fdfea2646970667358221220af645685ca1685dbaa44465429e425d454bb180971792704bb63f8890d2df13664736f6c63430008040033",
  "deployedBytecode": "0x6080604052600436106101c45760003560e01c80630e757850146101d057806317fcb39b146101f25780631812adb6146102285780631876dec41461024c5780631e2361681461026c5780631e7107c7146102ac57806333453d15146102cc5780633fea4367146102ec578063419cba7f1461030c57806344dd6aa5146103225780634782bc361461033557806350a058361461035557806359fd0b0c146103755780635c4f5f3e146103a257806361d027b3146103c257806370872aa5146103e2578063715018a6146103f857806373532b2a1461040d5780637ed557481461042d5780637f0f18171461044d5780637ffe9a921461046d5780638d3d78cd1461048d5780638d5fc1d4146104ad5780638da5cb5b146104cd5780638f9eb78b146104e2578063930a60e814610502578063a9b682711461052f578063b14d353214610565578063b59589d114610585578063b74d0d35146105a5578063bed6a602146105bb578063c780c03f146105d1578063c805f68b146105e4578063cf54ce4714610604578063da058ae314610624578063ea73263714610644578063f0f4426014610657578063f2fde38b14610677578063f47e22401461069757600080fd5b366101cb57005b600080fd5b3480156101dc57600080fd5b506101f06101eb366004615357565b6106cb565b005b3480156101fe57600080fd5b5060a654610212906001600160a01b031681565b60405161021f919061564d565b60405180910390f35b34801561023457600080fd5b5061023e60075481565b60405190815260200161021f565b34801561025857600080fd5b50600154610212906001600160a01b031681565b34801561027857600080fd5b5061029c610287366004615014565b600c6020526000908152604090205460ff1681565b604051901515815260200161021f565b3480156102b857600080fd5b506101f06102c7366004615014565b610858565b3480156102d857600080fd5b506101f06102e7366004614dd4565b6108c7565b3480156102f857600080fd5b5061023e6103073660046153f9565b610938565b34801561031857600080fd5b5061023e60085481565b61023e610330366004614e0c565b610a54565b34801561034157600080fd5b506101f0610350366004615014565b610afa565b34801561036157600080fd5b50600454610212906001600160a01b031681565b34801561038157600080fd5b5061023e610390366004615014565b60a46020526000908152604090205481565b3480156103ae57600080fd5b506101f06103bd366004615014565b610b94565b3480156103ce57600080fd5b50600354610212906001600160a01b031681565b3480156103ee57600080fd5b5061023e60055481565b34801561040457600080fd5b506101f0610d2a565b34801561041957600080fd5b506101f0610428366004615169565b610d34565b34801561043957600080fd5b506101f0610448366004615014565b61135a565b34801561045957600080fd5b506101f0610468366004614dd4565b6113f3565b34801561047957600080fd5b5061029c610488366004614f24565b61148d565b34801561049957600080fd5b50600254610212906001600160a01b031681565b3480156104b957600080fd5b506101f06104c8366004615328565b6114e5565b3480156104d957600080fd5b50610212611589565b3480156104ee57600080fd5b506101f06104fd366004615482565b611598565b34801561050e57600080fd5b5061023e61051d366004614dd4565b600b6020526000908152604090205481565b34801561053b57600080fd5b5061021261054a366004615014565b60a5602052600090815260409020546001600160a01b031681565b34801561057157600080fd5b506101f0610580366004614dd4565b6115fd565b34801561059157600080fd5b50600054610212906001600160a01b031681565b3480156105b157600080fd5b5061023e60095481565b3480156105c757600080fd5b5061023e60065481565b6101f06105df3660046151ce565b611697565b3480156105f057600080fd5b506101f06105ff366004614dd4565b611815565b34801561061057600080fd5b506101f061061f366004615014565b6118af565b34801561063057600080fd5b506101f061063f366004614dd4565b61194a565b61029c610652366004615044565b6119bb565b34801561066357600080fd5b506101f0610672366004614dd4565b611d2c565b34801561068357600080fd5b506101f0610692366004614dd4565b611dc6565b3480156106a357600080fd5b506106b76106b2366004614f24565b611e3f565b60405161021f989796959493929190615a8e565b600d54610100900460ff16158080156106eb5750600d54600160ff909116105b806107055750303b1580156107055750600d5460ff166001145b61076d5760405162461bcd60e51b815260206004820152602e60248201527f496e697469616c697a61626c653a20636f6e747261637420697320616c72656160448201526d191e481a5b9a5d1a585b1a5e995960921b60648201526084015b60405180910390fd5b600d805460ff19166001179055801561079057600d805461ff0019166101001790555b610798611f3c565b6107a0611f6b565b6107a98b610858565b6107b28a611815565b6107bb896115fd565b6107c488611d2c565b6107cd876113f3565b6107d686610b94565b6107df8561135a565b6107e884610afa565b6107f36102e7611589565b6107fc836118af565b6108058261194a565b801561084b57600d805461ff0019169055604051600181527f7f26b83ff96e1f2b6a682f133852f6798a09c465da95921460cefb38474024989060200160405180910390a15b5050505050505050505050565b610860611f9a565b60055481116108c25760405162461bcd60e51b815260206004820152602860248201527f4275726e526f757465724c6f6769633a206c6f77207374617274696e67426c6f60448201526731b5a73ab6b132b960c11b6064820152608401610764565b600555565b6108cf611f9a565b6004546040517f68bf625687194a1bbeeccbaa327c37aa1f9940a3c6c9e8fe84f06f1dc14fd1769161090e916001600160a01b03909116908490615661565b60405180910390a1600480546001600160a01b0319166001600160a01b0392909216919091179055565b6000610942611ff9565b6002546001600160a01b03166323b872dd33308a6040518463ffffffff1660e01b81526004016109749392919061567b565b602060405180830381600087803b15801561098e57600080fd5b505af11580156109a2573d6000803e3d6000fd5b505050506040513d601f19601f820116820180604052508101906109c69190614f4f565b610a1e5760405162461bcd60e51b8152602060048201526024808201527f4275726e526f757465724c6f6769633a207472616e7366657246726f6d2066616044820152631a5b195960e21b6064820152608401610764565b600254600090610a3d906001600160a01b031689808a8a8a8a8a612053565b915050610a4a6001607255565b9695505050505050565b6000610a5e611ff9565b6000610a6f8e8e8e8e8e8e8e6124c2565b9050610add8d8d6000818110610a9557634e487b7160e01b600052603260045260246000fd5b905060200201358b8b6000818110610abd57634e487b7160e01b600052603260045260246000fd5b9050602002016020810190610ad29190614dd4565b838a8a8a8a8a612a04565b915050610aea6001607255565b9c9b505050505050505050505050565b610b02611f9a565b806127101015610b545760405162461bcd60e51b815260206004820152601f60248201527f4275726e526f757465724c6f6769633a20696e76616c696420726577617264006044820152606401610764565b7faa50b3683e42a13535a5b9c2c32780cccf956fb546b523a3542ac4ad8b544f6760085482604051610b87929190615a80565b60405180910390a1600855565b600080546040516353bcd1c960e11b815273__$b2d4c044db363f4bd023a450a1a4a26d98$__9163a779a39291610bd7916001600160a01b03169060040161564d565b60206040518083038186803b158015610bef57600080fd5b505af4158015610c03573d6000803e3d6000fd5b505050506040513d601f19601f82011682018060405250810190610c27919061502c565b9050610c31611589565b6001600160a01b0316336001600160a01b03161480610c51575080600654105b610c9a5760405162461bcd60e51b815260206004820152601a602482015279109d5c9b949bdd5d195c931bd9da58ce881b9bc81c195c9b5a5d60321b6044820152606401610764565b808211610ce95760405162461bcd60e51b815260206004820152601d60248201527f4275726e526f757465724c6f6769633a206c6f7720646561646c696e650000006044820152606401610764565b7f92c10a242ca42973030420e2ee32b3ba7818cc643f896958f620c606cf30041660065483604051610d1c929190615a80565b60405180910390a150600655565b610d32611f9a565b565b610d3c611ff9565b610d44611f9a565b60015460405163aff2faa360e01b81526001600160a01b039091169063aff2faa390610d7690869086906004016157f8565b60206040518083038186803b158015610d8e57600080fd5b505afa158015610da2573d6000803e3d6000fd5b505050506040513d601f19601f82011682018060405250810190610dc69190614f4f565b610de25760405162461bcd60e51b8152600401610764906159b3565b60015460405163626885b560e11b81526000916001600160a01b03169063c4d10b6a90610e1590879087906004016157f8565b60206040518083038186803b158015610e2d57600080fd5b505afa158015610e41573d6000803e3d6000fd5b505050506040513d601f19601f82011682018060405250810190610e659190614df0565b905060005b82518110156113495773__$b2d4c044db363f4bd023a450a1a4a26d98$__6315755789600a84868581518110610eb057634e487b7160e01b600052603260045260246000fd5b60209081029190910101516006546000546040516310889dc360e01b815273__$b2d4c044db363f4bd023a450a1a4a26d98$__916310889dc391610f00916001600160a01b03169060040161564d565b60206040518083038186803b158015610f1857600080fd5b505af4158015610f2c573d6000803e3d6000fd5b505050506040513d601f19601f82011682018060405250810190610f50919061502c565b6005546040516001600160e01b031960e089901b16815260048101969096526001600160a01b03909416602486015260448501929092526064840152608483015260a482015260c40160006040518083038186803b158015610fb157600080fd5b505af4158015610fc5573d6000803e3d6000fd5b50506001546008546001600160a01b038681166000908152600a602052604090208851919093169450631697565b93508692612710929189908890811061101c57634e487b7160e01b600052603260045260246000fd5b60200260200101518154811061104257634e487b7160e01b600052603260045260246000fd5b90600052602060002090600702016000015461105e9190615cc4565b6110689190615ca4565b336001600160a01b0387166000908152600a6020526040902088518990889081106110a357634e487b7160e01b600052603260045260246000fd5b6020026020010151815481106110c957634e487b7160e01b600052603260045260246000fd5b906000526020600020906007020160000154600a6000896001600160a01b03166001600160a01b0316815260200190815260200160002089888151811061112057634e487b7160e01b600052603260045260246000fd5b60200260200101518154811061114657634e487b7160e01b600052603260045260246000fd5b600091825260209091206007909102016002015460405160e087901b6001600160e01b03191681526001600160a01b03958616600482015260248101949094529184166044840152606483015291909116608482015260a401602060405180830381600087803b1580156111b957600080fd5b505af11580156111cd573d6000803e3d6000fd5b505050506040513d601f19601f820116820180604052508101906111f19190614f4f565b506001600160a01b0382166000818152600a60205260409020845185908490811061122c57634e487b7160e01b600052603260045260246000fd5b60200260200101518154811061125257634e487b7160e01b600052603260045260246000fd5b906000526020600020906007020160020160009054906101000a90046001600160a01b03166001600160a01b03167f58c23b4ae0617be275628875bcfd65759a441263099a256eeb27899fb5dd846d8787600a6000886001600160a01b03166001600160a01b031681526020019081526020016000208887815181106112e857634e487b7160e01b600052603260045260246000fd5b60200260200101518154811061130e57634e487b7160e01b600052603260045260246000fd5b90600052602060002090600702016006015460405161132f9392919061580c565b60405180910390a38061134181615dab565b915050610e6a565b50506113556001607255565b505050565b611362611f9a565b8061271010156113b35760405162461bcd60e51b815260206004820152601c60248201527b4275726e526f757465724c6f6769633a20696e76616c69642066656560201b6044820152606401610764565b7f7d205f60891f60851c61cd244ba387d72b6589e7c0ac41b9d909ab0ce2c2a53b600754826040516113e6929190615a80565b60405180910390a1600755565b6113fb611f9a565b806001600160a01b0381166114235760405163d92e233d60e01b815260040160405180910390fd5b6002546040517f36a4c08a38b736dcecb6c328dba61238529620e83ccb23db2cc43cd34ec2609691611462916001600160a01b03909116908590615661565b60405180910390a150600280546001600160a01b0319166001600160a01b0392909216919091179055565b6001600160a01b0382166000908152600a602052604081208054839081106114c557634e487b7160e01b600052603260045260246000fd5b600091825260209091206005600790920201015460ff1690505b92915050565b6114ed611f9a565b600082815260a56020526040908190205490517f1e73962bcff5b98a9ac70c9b0f71fbb31dc0f5a09348c6d3ceab164169a9e729916115539185916001600160a01b03169085909283526001600160a01b03918216602084015216604082015260600190565b60405180910390a1600091825260a5602052604090912080546001600160a01b0319166001600160a01b03909216919091179055565b6040546001600160a01b031690565b6115a0611f9a565b600082815260a46020526040908190205490517f188adabf806a6b6d814acc1dbd9f09e5a251c8c065d6285749a5824e4579b645916115e3918591908590615a6a565b60405180910390a1600091825260a4602052604090912055565b611605611f9a565b806001600160a01b03811661162d5760405163d92e233d60e01b815260040160405180910390fd5b6001546040517ffa021c2ec0f46429a53e7f88b88065e40001f50c9d38b2e8b713beaf9828d4c39161166c916001600160a01b03909116908590615661565b60405180910390a150600180546001600160a01b0319166001600160a01b0392909216919091179055565b61169f611ff9565b6116a7611f9a565b6000611705896000815181106116cd57634e487b7160e01b600052603260045260246000fd5b60200260200101518989876000815181106116f857634e487b7160e01b600052603260045260246000fd5b6020026020010151612a17565b905073__$b2d4c044db363f4bd023a450a1a4a26d98$__63441d3a21600160009054906101000a90046001600160a01b03168c8c60405180606001604052808e81526020018c81526020018b815250600c60065460008054906101000a90046001600160a01b03166005548a8e8e8e6040518d63ffffffff1660e01b815260040161179b9c9b9a999897969594939291906156de565b60006040518083038186803b1580156117b357600080fd5b505af41580156117c7573d6000803e3d6000fd5b505050506117ff878b83856002815181106117f257634e487b7160e01b600052603260045260246000fd5b6020026020010151612b7d565b5061180a6001607255565b505050505050505050565b61181d611f9a565b806001600160a01b0381166118455760405163d92e233d60e01b815260040160405180910390fd5b6000546040517f4c28a3f61a715259c4dc930c23e7423b8fa52e13232c061a6e488729c66184f491611884916001600160a01b03909116908590615661565b60405180910390a150600080546001600160a01b0319166001600160a01b0392909216919091179055565b60045433906001600160a01b031681146119095760405162461bcd60e51b815260206004820152601b60248201527a4275726e526f757465724c6f6769633a206e6f74206f7261636c6560281b6044820152606401610764565b7f890eb41e398fd9cf425695b34269b781ad56c257422859094a28db47fb78f1b36009548360405161193c929190615a80565b60405180910390a150600955565b611952611f9a565b60a6546040517f4da8064030e901e42f6de0ab04f4c322d7936d0120503addfe8a51f12709068991611991916001600160a01b03909116908490615661565b60405180910390a160a680546001600160a01b0319166001600160a01b0392909216919091179055565b60006119c5611ff9565b60015460405163626885b560e11b81526000916001600160a01b03169063c4d10b6a906119f6908890600401615830565b60206040518083038186803b158015611a0e57600080fd5b505afa158015611a22573d6000803e3d6000fd5b505050506040513d601f19601f82011682018060405250810190611a469190614df0565b9050336001600160a01b0382161480611a7257506004546001600160a01b0316336001600160a01b0316145b611a8e5760405162461bcd60e51b8152600401610764906159b3565b73__$b2d4c044db363f4bd023a450a1a4a26d98$__6344922b64896005548c600160009054906101000a90046001600160a01b03168a8a518a516040518863ffffffff1660e01b8152600401611aea9796959493929190615b70565b60006040518083038186803b158015611b0257600080fd5b505af4158015611b16573d6000803e3d6000fd5b505050506000611b288d8d8d8d612a17565b600054604051637ebc232760e01b815291925073__$b2d4c044db363f4bd023a450a1a4a26d98$__91637ebc232791611b77916001600160a01b039091169085908e908e908e9060040161569f565b60206040518083038186803b158015611b8f57600080fd5b505af4158015611ba3573d6000803e3d6000fd5b505050506040513d601f19601f82011682018060405250810190611bc79190614f4f565b611c135760405162461bcd60e51b815260206004820152601e60248201527f4275726e526f757465724c6f6769633a206e6f742066696e616c697a656400006044820152606401610764565b6000611c23828b858f8a8a612d49565b905073__$b2d4c044db363f4bd023a450a1a4a26d98$__63191e28dc600c838f8b876040518663ffffffff1660e01b8152600401611c6595949392919061593a565b60206040518083038186803b158015611c7d57600080fd5b505af4158015611c91573d6000803e3d6000fd5b505050506040513d601f19601f82011682018060405250810190611cb59190614f4f565b611d0d5760405162461bcd60e51b815260206004820152602360248201527f4275726e526f757465724c6f6769633a20696e76616c6964206275726e20707260448201526237b7b360e91b6064820152608401610764565b60019350505050611d1e6001607255565b9a9950505050505050505050565b611d34611f9a565b806001600160a01b038116611d5c5760405163d92e233d60e01b815260040160405180910390fd5b6003546040517f567657fa3f286518b318f4a29870674f433f622fdfc819691acb13105b22822591611d9b916001600160a01b03909116908590615661565b60405180910390a150600380546001600160a01b0319166001600160a01b0392909216919091179055565b611dce611f9a565b6001600160a01b038116611e335760405162461bcd60e51b815260206004820152602660248201527f4f776e61626c653a206e6577206f776e657220697320746865207a65726f206160448201526564647265737360d01b6064820152608401610764565b611e3c8161322d565b50565b600a6020528160005260406000208181548110611e5b57600080fd5b600091825260209091206007909102018054600182015460028301546003840180549396509194506001600160a01b03169291611e9790615d76565b80601f0160208091040260200160405190810160405280929190818152602001828054611ec390615d76565b8015611f105780601f10611ee557610100808354040283529160200191611f10565b820191906000526020600020905b815481529060010190602001808311611ef357829003601f168201915b505050600484015460058501546006909501549394909360ff8083169450610100909204909116915088565b600d54610100900460ff16611f635760405162461bcd60e51b8152600401610764906159e8565b610d3261327d565b600d54610100900460ff16611f925760405162461bcd60e51b8152600401610764906159e8565b610d326132ad565b33611fa3611589565b6001600160a01b031614610d325760405162461bcd60e51b815260206004820181905260248201527f4f776e61626c653a2063616c6c6572206973206e6f7420746865206f776e65726044820152606401610764565b6002607254141561204c5760405162461bcd60e51b815260206004820152601f60248201527f5265656e7472616e637947756172643a207265656e7472616e742063616c6c006044820152606401610764565b6002607255565b600154604051630f87661560e41b815260009173__$b2d4c044db363f4bd023a450a1a4a26d98$__9163f8766150916120a2918a918a916001600160a01b03909116908a908a90600401615843565b60006040518083038186803b1580156120ba57600080fd5b505af41580156120ce573d6000803e3d6000fd5b5050505060008060006120e18a866132d4565b60025460015460405163095ea7b360e01b81529497509295509093506001600160a01b039081169263095ea7b39261211f92169087906004016157df565b602060405180830381600087803b15801561213957600080fd5b505af115801561214d573d6000803e3d6000fd5b505050506040513d601f19601f820116820180604052508101906121719190614f4f565b506001546040516338463cff60e01b81526001600160a01b03909116906338463cff906121a6908a908a90889060040161580c565b602060405180830381600087803b1580156121c057600080fd5b505af11580156121d4573d6000803e3d6000fd5b505050506040513d601f19601f820116820180604052508101906121f8919061502c565b60015460405163626885b560e11b81529195506000916001600160a01b039091169063c4d10b6a90612230908b908b906004016157f8565b60206040518083038186803b15801561224857600080fd5b505afa15801561225c573d6000803e3d6000fd5b505050506040513d601f19601f820116820180604052508101906122809190614df0565b6000546040516310889dc360e01b8152919250612327918d9188918e918e9173__$b2d4c044db363f4bd023a450a1a4a26d98$__916310889dc3916122d1916001600160a01b03169060040161564d565b60206040518083038186803b1580156122e957600080fd5b505af41580156122fd573d6000803e3d6000fd5b505050506040513d601f19601f82011682018060405250810190612321919061502c565b86613674565b604080516060810182528d815260208082018e905281830188905282516080810190935260095483528f9260009181016123618a8a615d0c565b8152602080820189905260409182018890526001600160a01b0387166000908152600a9091522080549192509061239a90600190615d0c565b815481106123b857634e487b7160e01b600052603260045260246000fd5b9060005260206000209060070201600401546123d13390565b6001600160a01b03167f6b5c22e69db87534a562352580358411dc7b2d98d24684765342f2ebf2dd8c318f8f88600a60008b6001600160a01b03166001600160a01b031681526020019081526020016000206001600a60008d6001600160a01b03166001600160a01b03168152602001908152602001600020805490506124589190615d0c565b8154811061247657634e487b7160e01b600052603260045260246000fd5b9060005260206000209060070201600601548f8a8a8a6040516124a0989796959493929190615891565b60405180910390a35050505050505098975050505050505050565b6001607255565b6002546000906001600160a01b031684846124de600182615d0c565b8181106124fb57634e487b7160e01b600052603260045260246000fd5b90506020020160208101906125109190614dd4565b6001600160a01b0316146125365760405162461bcd60e51b815260040161076490615a33565b600286146125865760405162461bcd60e51b815260206004820152601e60248201527f4275726e526f757465724c6f6769633a2077726f6e6720616d6f756e747300006044820152606401610764565b34156126d357868660008181106125ad57634e487b7160e01b600052603260045260246000fd5b9050602002013534146126025760405162461bcd60e51b815260206004820152601f60248201527f4275726e526f757465724c6f6769633a20696e76616c696420616d6f756e74006044820152606401610764565b8383600081811061262357634e487b7160e01b600052603260045260246000fd5b90506020020160208101906126389190614dd4565b60a6546001600160a01b039081169116146126655760405162461bcd60e51b815260040161076490615a33565b60a660009054906101000a90046001600160a01b03166001600160a01b031663d0e30db0346040518263ffffffff1660e01b81526004016000604051808303818588803b1580156126b557600080fd5b505af11580156126c9573d6000803e3d6000fd5b50505050506127b3565b838360008181106126f457634e487b7160e01b600052603260045260246000fd5b90506020020160208101906127099190614dd4565b6001600160a01b03166323b872dd33308a8a600081811061273a57634e487b7160e01b600052603260045260246000fd5b905060200201356040518463ffffffff1660e01b815260040161275f9392919061567b565b602060405180830381600087803b15801561277957600080fd5b505af115801561278d573d6000803e3d6000fd5b505050506040513d601f19601f820116820180604052508101906127b19190614f4f565b505b838360008181106127d457634e487b7160e01b600052603260045260246000fd5b90506020020160208101906127e99190614dd4565b6001600160a01b031663095ea7b3898989600081811061281957634e487b7160e01b600052603260045260246000fd5b905060200201356040518363ffffffff1660e01b815260040161283d9291906157df565b602060405180830381600087803b15801561285757600080fd5b505af115801561286b573d6000803e3d6000fd5b505050506040513d601f19601f8201168201806040525081019061288f9190614f4f565b50600080896001600160a01b031663b0bbcd888a8a60008181106128c357634e487b7160e01b600052603260045260246000fd5b905060200201358b8b60018181106128eb57634e487b7160e01b600052603260045260246000fd5b905060200201358989308a8e6040518863ffffffff1660e01b81526004016129199796959493929190615af1565b600060405180830381600087803b15801561293357600080fd5b505af1158015612947573d6000803e3d6000fd5b505050506040513d6000823e601f3d908101601f1916820160405261296f9190810190614f6b565b91509150816129c05760405162461bcd60e51b815260206004820181905260248201527f4275726e526f757465724c6f6769633a2065786368616e6765206661696c65646044820152606401610764565b80600182516129cf9190615d0c565b815181106129ed57634e487b7160e01b600052603260045260246000fd5b602002602001015192505050979650505050505050565b600080611d1e898b8a8a8a8a8a8a612053565b600080612a2c612a278683613844565b613868565b9050612a3d62ffffff1982166139be565b15612a875760405162461bcd60e51b815260206004820152601a602482015279109a5d18dbda5b92195b1c195c8e881d9a5b881a5cc81b9d5b1b60321b6044820152606401610764565b6000600287878787604051602001612aa294939291906155de565b60408051601f1981840301815290829052612abc91615631565b602060405180830381855afa158015612ad9573d6000803e3d6000fd5b5050506040513d601f19601f82011682018060405250810190612afc919061502c565b90506000600282604051602001612b1591815260200190565b60408051601f1981840301815290829052612b2f91615631565b602060405180830381855afa158015612b4c573d6000803e3d6000fd5b5050506040513d601f19601f82011682018060405250810190612b6f919061502c565b93505050505b949350505050565b6000612b88856139ca565b60015460405163626885b560e11b81526001600160401b039290921692506000916001600160a01b039091169063c4d10b6a90612bc9908890600401615830565b60206040518083038186803b158015612be157600080fd5b505afa158015612bf5573d6000803e3d6000fd5b505050506040513d601f19601f82011682018060405250810190612c199190614df0565b6001546008549192506001600160a01b03169063b734de2690839061271090612c429087615cc4565b612c4c9190615ca4565b3360405160e085901b6001600160e01b03191681526001600160a01b0393841660048201526024810192909252909116604482015260648101859052608401602060405180830381600087803b158015612ca557600080fd5b505af1158015612cb9573d6000803e3d6000fd5b505050506040513d601f19601f82011682018060405250810190612cdd9190614f4f565b507f7ff138134e34ccab071315c38e38eec079f54726b890304ab46e2c5ab6f722bb8186858761271060085488612d149190615cc4565b612d1e9190615ca4565b612d289088615c1a565b604051612d3995949392919061579e565b60405180910390a1505050505050565b60008080805b85518110156132205780612d8c57848181518110612d7d57634e487b7160e01b600052603260045260246000fd5b60200260200101519150612e3d565b81858281518110612dad57634e487b7160e01b600052603260045260246000fd5b602002602001015111612e125760405162461bcd60e51b815260206004820152602760248201527f4275726e526f757465724c6f6769633a20756e2d736f7274656420766f757420604482015266696e646578657360c81b6064820152608401610764565b848181518110612e3257634e487b7160e01b600052603260045260246000fd5b602002602001015191505b6000868281518110612e5f57634e487b7160e01b600052603260045260246000fd5b60200260200101519050600a60008a6001600160a01b03166001600160a01b031681526020019081526020016000208181548110612ead57634e487b7160e01b600052603260045260246000fd5b600091825260209091206005600790920201015460ff16158015612f1c57506001600160a01b0389166000908152600a6020526040902080548b919083908110612f0757634e487b7160e01b600052603260045260246000fd5b90600052602060002090600702016004015410155b1561320d5761308988878481518110612f4557634e487b7160e01b600052603260045260246000fd5b6020026020010151600a60008d6001600160a01b03166001600160a01b031681526020019081526020016000208481548110612f9157634e487b7160e01b600052603260045260246000fd5b90600052602060002090600702016003018054612fad90615d76565b80601f0160208091040260200160405190810160405280929190818152602001828054612fd990615d76565b80156130265780601f10612ffb57610100808354040283529160200191613026565b820191906000526020600020905b81548152906001019060200180831161300957829003601f168201915b5050506001600160a01b038f166000908152600a602052604090208054909250879150811061306557634e487b7160e01b600052603260045260246000fd5b906000526020600020906007020160050160019054906101000a900460ff16613a6d565b6001600160401b0316935083600a60008b6001600160a01b03166001600160a01b0316815260200190815260200160002082815481106130d957634e487b7160e01b600052603260045260246000fd5b906000526020600020906007020160010154141561320d576001600160a01b0389166000908152600a602052604090208054600191908390811061312d57634e487b7160e01b600052603260045260246000fd5b60009182526020909120600790910201600501805460ff191691151591909117905561315a856001615c1a565b6001600160a01b038a166000818152600a60205260409020805492975090917f7b8cb33b1d4dc1e5d05c58e9945c383eb161ac22029c5b963989d08c3d0ef4da9190849081106131ba57634e487b7160e01b600052603260045260246000fd5b9060005260206000209060070201600601548d8986815181106131ed57634e487b7160e01b600052603260045260246000fd5b602002602001015160405161320493929190615a6a565b60405180910390a25b508061321881615dab565b915050612d4f565b5050509695505050505050565b604080546001600160a01b038381166001600160a01b031983168117845592519116919082907f8be0079c531659141344cd1fd0a4f28419497f9722a3daafe3b4186f6b6457e090600090a35050565b600d54610100900460ff166132a45760405162461bcd60e51b8152600401610764906159e8565b610d323361322d565b600d54610100900460ff166124bb5760405162461bcd60e51b8152600401610764906159e8565b6000806000612710600754866132ea9190615cc4565b6132f49190615ca4565b600085815260a46020526040902054909250612710906133149087615cc4565b61331e9190615ca4565b6009549091508161332f8488615d0c565b6133399190615d0c565b6133439190615d0c565b92506009548310156133955760405162461bcd60e51b815260206004820152601b60248201527a109d5c9b949bdd5d195c931bd9da58ce881b1bddc8185b5bdd5b9d602a1b6044820152606401610764565b811561347b5760025460035460405163a9059cbb60e01b81526001600160a01b039283169263a9059cbb926133d19291169086906004016157df565b602060405180830381600087803b1580156133eb57600080fd5b505af11580156133ff573d6000803e3d6000fd5b505050506040513d601f19601f820116820180604052508101906134239190614f4f565b61347b5760405162461bcd60e51b8152602060048201526024808201527f4275726e526f757465724c6f6769633a20666565207472616e736665722066616044820152631a5b195960e21b6064820152608401610764565b801561357b57600254600085815260a560205260409081902054905163a9059cbb60e01b81526001600160a01b039283169263a9059cbb926134c49291169085906004016157df565b602060405180830381600087803b1580156134de57600080fd5b505af11580156134f2573d6000803e3d6000fd5b505050506040513d601f19601f820116820180604052508101906135169190614f4f565b61357b5760405162461bcd60e51b815260206004820152603060248201527f4275726e526f757465724c6f6769633a2074686972642070617274792066656560448201526f081d1c985b9cd9995c8819985a5b195960821b6064820152608401610764565b6009541561366d5760025460015460095460405163a9059cbb60e01b81526001600160a01b039384169363a9059cbb936135ba939116916004016157df565b602060405180830381600087803b1580156135d457600080fd5b505af11580156135e8573d6000803e3d6000fd5b505050506040513d601f19601f8201168201806040525081019061360c9190614f4f565b61366d5760405162461bcd60e51b815260206004820152602c60248201527f4275726e526f757465724c6f6769633a206e6574776f726b206665652074726160448201526b1b9cd9995c8819985a5b195960a21b6064820152608401610764565b9250925092565b604080516101008101825260006080820181905260a0820181905260c0820181815260e083019190915288825260208201889052339282019290925260608101869052908460058111156136d857634e487b7160e01b600052602160045260246000fd5b908160058111156136f957634e487b7160e01b600052602160045260246000fd5b9052506006546137099084615c1a565b6080820152600060a082018190526001600160a01b038316808252600b6020818152604084205460e0860181905292909352909152613749906001615c1a565b6001600160a01b038381166000908152600b6020908152604080832094909455600a81528382208054600180820183559184529282902086516007909402019283558582015190830155928401516002820180546001600160a01b03191691909316179091556060830151805184936137c9926003850192910190614b42565b506080820151600482015560a08201516005808301805492151560ff1984168117825560c086015193919261ff001990911661ffff19909216919091179061010090849081111561382a57634e487b7160e01b600052602160045260246000fd5b021790555060e08201518160060155505050505050505050565b81516000906020840161385f64ffffffffff85168284613ce1565b95945050505050565b6000818161387e815b62ffffff19841690613d28565b5061388e62ffffff198516613e02565b6001600160601b03166138aa576138a3613e11565b92506139b7565b60006138b7856000613e19565b905060006138ca62ffffff198716613e02565b6001600160601b031690506001600160401b0382166138f4576138eb613e11565b945050506139b7565b60006138ff83613f62565b60ff16905060005b836001600160401b031681101561397d5782821061393257613927613e11565b9650505050506139b7565b60006139526139418486615d0c565b60055b62ffffff198c169190613fc0565b905061395d81613fea565b6139679084615c1a565b925050808061397590615dab565b915050613907565b508181146139975761398d613e11565b95505050506139b7565b6139b160065b60d81b6301000000600160d81b0389161790565b95505050505b5050919050565b62ffffff199081161490565b6000806139df6139da8483613844565b61403e565b90506139f062ffffff1982166139be565b15613a0d5760405162461bcd60e51b81526004016107649061597e565b600080613a1b836000613e19565b6001600160401b0316905060005b81811015613a6457613a3b848261413f565b9250613a4683614256565b613a509086615c32565b945080613a5c81615dab565b915050613a29565b50505050919050565b600080613a7d6139da8783613844565b9050613a8e62ffffff1982166139be565b15613aab5760405162461bcd60e51b81526004016107649061597e565b6000613ab7828761413f565b90506000613ac48261427b565b90506005856005811115613ae857634e487b7160e01b600052602160045260246000fd5b1415613b4d57613b0162ffffff198216600260206142cc565b604051602001613b1391815260200190565b60405160208183030381529060405280519060200120868051906020012014613b3d576000613b46565b613b4682614256565b9350613cd6565b6000856005811115613b6f57634e487b7160e01b600052602160045260246000fd5b1415613b8857613b0162ffffff198216600160206142cc565b6001856005811115613baa57634e487b7160e01b600052602160045260246000fd5b1415613be457613bc162ffffff19821660036143fa565b604051602001613b13919060609190911b6001600160601b031916815260140190565b6002856005811115613c0657634e487b7160e01b600052602160045260246000fd5b1415613c1d57613bc162ffffff19821660026143fa565b6003856005811115613c3f57634e487b7160e01b600052602160045260246000fd5b1415613c5657613bc162ffffff19821660026143fa565b6004856005811115613c7857634e487b7160e01b600052602160045260246000fd5b1415613cd657613c9162ffffff198216600260206142cc565b604051602001613ca391815260200190565b60405160208183030381529060405280519060200120868051906020012014613ccd576000612b6f565b612b6f82614256565b505050949350505050565b600080613cee8385615c1a565b9050604051811115613cfe575060005b80613d105762ffffff19915050613d21565b5050606083811b8317901b811760181b5b9392505050565b6000613d348383614408565b613dfb576000613d53613d478560d81c90565b64ffffffffff1661442b565b9150506000613d688464ffffffffff1661442b565b6040517f5479706520617373657274696f6e206661696c65642e20476f7420307800000060208201526001600160b01b031960b086811b8216603d8401526c05c408af0e0cac6e8cac84060f609b1b604784015283901b16605482015290925060009150605e015b60405160208183030381529060405290508060405162461bcd60e51b81526004016107649190615830565b5090919050565b60181c6001600160601b031690565b62ffffff1990565b600080613e2e62ffffff1985168460016144d7565b905060fc8111613e4957613e4181614507565b9150506114df565b8060fd1415613eaf57613e77613e72613e63856001615c1a565b62ffffff198716906002614573565b614507565b9150613e8282613f62565b60ff16600314613eaa57613ea8613ea362ffffff19861685600360006146b6565b61471c565b505b613f5b565b8060fe1415613f0457613ed8613e72613ec9856001615c1a565b62ffffff198716906004614573565b9150613ee382613f62565b60ff16600514613eaa57613ea8613ea362ffffff19861685600560006146b6565b8060ff1415613f5b57613f2d613e72613f1e856001615c1a565b62ffffff198716906008614573565b9150613f3882613f62565b60ff16600914613f5b57613f59613ea362ffffff19861685600960006146b6565b505b5092915050565b600060fc826001600160401b031611613f7d57506001919050565b61ffff826001600160401b031611613f9757506003919050565b63ffffffff826001600160401b031611613fb357506005919050565b506009919050565b919050565b6000612b758484613fd087613e02565b6001600160601b0316613fe39190615d0c565b85856146b6565b6000816005613ff881613871565b506000614006856024613e19565b9050806001600160401b031661401b82613f62565b60ff166140289190615c1a565b614033906024615c1a565b61385f906004615c1a565b6000818161404b81613871565b5061405b62ffffff198516613e02565b6001600160601b0316614070576138a3613e11565b600061407d856000613e19565b9050600061409062ffffff198716613e02565b6001600160601b031690506001600160401b0382166140b1576138eb613e11565b60006140bc83613f62565b60ff16905060005b836001600160401b0316811015614125578282106140e457613927613e11565b60006140fa6140f38486615d0c565b600e613944565b9050614105816147a4565b61410f9084615c1a565b925050808061411d90615dab565b9150506140c4565b508181146141355761398d613e11565b6139b1600f61399d565b600082600f61414d81613871565b50600061415b866000613e19565b6001600160401b03169050600061417762ffffff198816613e02565b6001600160601b031690508186106141c55760405162461bcd60e51b81526020600482015260116024820152702b37baba103932b0b21037bb32b9393ab760791b6044820152606401610764565b60006141d083613f62565b60ff1690506000805b88811015614226576141fd6141ee8486615d0c565b62ffffff198c1690600e613fc0565b9150614208826147a4565b6142129084615c1a565b925061421f600182615c1a565b90506141d9565b506142346140f38385615d0c565b90506000614241826147a4565b9050611d1e62ffffff198b168483600d6146b6565b600081600d61426481613871565b50612b75613e7262ffffff19861660006008614573565b600081600d61428981613871565b506000614297856008613e19565b905061385f6142a582613f62565b6142b0906008615c5d565b62ffffff1987169060ff166001600160401b03841660076146b6565b600060ff82166142de57506000613d21565b6142e784613e02565b6001600160601b03166142fd60ff841685615c1a565b111561434d5761433461430f856147ed565b6001600160601b031661432186613e02565b6001600160601b0316858560ff166147fc565b60405162461bcd60e51b81526004016107649190615830565b60208260ff1611156143c45760405162461bcd60e51b815260206004820152603a60248201527f54797065644d656d566965772f696e646578202d20417474656d7074656420746044820152796f20696e646578206d6f7265207468616e20333220627974657360301b6064820152608401610764565b6008820260006143d3866147ed565b6001600160601b031690506000600160ff1b60001984011d91909501511695945050505050565b6000613d21838360146144d7565b60008164ffffffffff1661441c8460d81c90565b64ffffffffff16149392505050565b600080601f5b600f8160ff16111561448957600061444a826008615ce3565b60ff1685901c905061445b81614926565b61ffff16841793508160ff1660101461447657601084901b93505b50614482600182615d23565b9050614431565b50600f5b60ff8160ff1610156144d15760ff600882021684901c6144ac81614926565b61ffff16831792508160ff166000146144c757601083901b92505b506000190161448d565b50915091565b60006144e4826020615d23565b6144ef906008615ce3565b60ff166144fd8585856142cc565b901c949350505050565b60006001600160401b0382111561456f5760405162461bcd60e51b815260206004820152602660248201527f53616665436173743a2076616c756520646f65736e27742066697420696e203660448201526534206269747360d01b6064820152608401610764565b5090565b6000612b756145838585856142cc565b60008190506008817eff00ff00ff00ff00ff00ff00ff00ff00ff00ff00ff00ff00ff00ff00ff00ff16901b600882901c7eff00ff00ff00ff00ff00ff00ff00ff00ff00ff00ff00ff00ff00ff00ff00ff161790506010817dffff0000ffff0000ffff0000ffff0000ffff0000ffff0000ffff0000ffff16901b601082901c7dffff0000ffff0000ffff0000ffff0000ffff0000ffff0000ffff0000ffff161790506020817bffffffff00000000ffffffff00000000ffffffff00000000ffffffff16901b602082901c7bffffffff00000000ffffffff00000000ffffffff00000000ffffffff161790506040816001600160401b03600160801b03600160c01b0316901b604082901c6001600160401b03600160801b03600160c01b0316179050608081901b608082901c179050919050565b6000806146c2866147ed565b6001600160601b031690506146d686614958565b846146e18784615c1a565b6146eb9190615c1a565b11156146fe5762ffffff19915050612b75565b6147088582615c1a565b9050610a4a8364ffffffffff168286613ce1565b6060600061475a6147558261474761473962ffffff198816613e02565b6001600160601b0316614985565b62ffffff19871691906144d7565b61442b565b6040517a09cdedc5adad2dcd2dac2d840ecc2e440d2dce85c408edee84060f602b1b60208201526001600160701b0319607083901b16603b82015290925060009150604d01613dd0565b600081600e6147b281613871565b5060006147c0856008613e19565b9050806001600160401b03166147d582613f62565b60ff166147e29190615c1a565b61385f906008615c1a565b60781c6001600160601b031690565b606060006148098661442b565b91505060006148178661442b565b91505060006148258661442b565b91505060006148338661442b565b604080517f54797065644d656d566965772f696e646578202d204f76657272616e20746865602082015274040ecd2caee5c40a6d8d2c6ca40d2e640c2e84060f605b1b818301526001600160d01b031960d098891b811660558301526e040eed2e8d040d8cadccee8d04060f608b1b605b830181905297891b8116606a8301527f2e20417474656d7074656420746f20696e646578206174206f666673657420306070830152600f60fb1b609083015295881b861660918201526097810196909652951b90921660a68401525050601760f91b60ac8201528151808203608d01815260ad90910190915295945050505050565b600061493860048360ff16901c6149e6565b60ff1661ffff919091161760081b61494f826149e6565b60ff1617919050565b600061496382613e02565b61496c836147ed565b6149769190615c82565b6001600160601b031692915050565b600060ff82111561456f5760405162461bcd60e51b815260206004820152602560248201527f53616665436173743a2076616c756520646f65736e27742066697420696e2038604482015264206269747360d81b6064820152608401610764565b600060f08083179060ff82161415614a015750603092915050565b8060ff1660f11415614a165750603192915050565b8060ff1660f21415614a2b5750603292915050565b8060ff1660f31415614a405750603392915050565b8060ff1660f41415614a555750603492915050565b8060ff1660f51415614a6a5750603592915050565b8060ff1660f61415614a7f5750603692915050565b8060ff1660f71415614a945750603792915050565b8060ff1660f81415614aa95750603892915050565b8060ff1660f91415614abe5750603992915050565b8060ff1660fa1415614ad35750606192915050565b8060ff1660fb1415614ae85750606292915050565b8060ff1660fc1415614afd5750606392915050565b8060ff1660fd1415614b125750606492915050565b8060ff1660fe1415614b275750606592915050565b8060ff1660ff1415614b3c5750606692915050565b50919050565b828054614b4e90615d76565b90600052602060002090601f016020900481019282614b705760008555614bb6565b82601f10614b8957805160ff1916838001178555614bb6565b82800160010185558215614bb6579182015b82811115614bb6578251825591602001919060010190614b9b565b5061456f9291505b8082111561456f5760008155600101614bbe565b8035613fbb81615df2565b60008083601f840112614bee578182fd5b5081356001600160401b03811115614c04578182fd5b6020830191508360208260051b8501011115614c1f57600080fd5b9250929050565b600082601f830112614c36578081fd5b81356020614c4b614c4683615bf7565b615bc7565b80838252828201915082860187848660051b8901011115614c6a578586fd5b855b85811015614c8f57614c7d82614d04565b84529284019290840190600101614c6c565b5090979650505050505050565b600082601f830112614cac578081fd5b81356020614cbc614c4683615bf7565b80838252828201915082860187848660051b8901011115614cdb578586fd5b855b85811015614c8f57813584529284019290840190600101614cdd565b8035613fbb81615e07565b80356001600160e01b031981168114613fbb57600080fd5b60008083601f840112614d2d578182fd5b5081356001600160401b03811115614d43578182fd5b602083019150836020828501011115614c1f57600080fd5b600082601f830112614d6b578081fd5b81356001600160401b03811115614d8457614d84615ddc565b614d97601f8201601f1916602001615bc7565b818152846020838601011115614dab578283fd5b816020850160208301379081016020019190915292915050565b803560068110613fbb57600080fd5b600060208284031215614de5578081fd5b8135613d2181615df2565b600060208284031215614e01578081fd5b8151613d2181615df2565b6000806000806000806000806000806000806101208d8f031215614e2e578788fd5b614e378d614bd2565b9b506001600160401b0360208e01351115614e50578788fd5b614e608e60208f01358f01614bdd565b909b509950614e7160408e01614cf9565b98506001600160401b0360608e01351115614e8a578788fd5b614e9a8e60608f01358f01614bdd565b909850965060808d013595506001600160401b0360a08e01351115614ebd578485fd5b614ecd8e60a08f01358f01614d5b565b9450614edb60c08e01614dc5565b93506001600160401b0360e08e01351115614ef4578283fd5b614f048e60e08f01358f01614d1c565b81945080935050506101008d013590509295989b509295989b509295989b565b60008060408385031215614f36578182fd5b8235614f4181615df2565b946020939093013593505050565b600060208284031215614f60578081fd5b8151613d2181615e07565b60008060408385031215614f7d578182fd5b8251614f8881615e07565b602084810151919350906001600160401b03811115614fa5578283fd5b8401601f81018613614fb5578283fd5b8051614fc3614c4682615bf7565b80828252848201915084840189868560051b8701011115614fe2578687fd5b8694505b83851015615004578051835260019490940193918501918501614fe6565b5080955050505050509250929050565b600060208284031215615025578081fd5b5035919050565b60006020828403121561503d578081fd5b5051919050565b6000806000806000806000806000806101408b8d031215615063578384fd5b61506c8b614d04565b995060208b01356001600160401b0380821115615087578586fd5b6150938e838f01614d5b565b9a5060408d01359150808211156150a8578586fd5b6150b48e838f01614d5b565b99506150c260608e01614d04565b985060808d0135975060a08d01359150808211156150de578586fd5b6150ea8e838f01614d5b565b965060c08d0135955060e08d0135915080821115615106578485fd5b6151128e838f01614d5b565b94506101008d0135915080821115615128578384fd5b6151348e838f01614c9c565b93506101208d013591508082111561514a578283fd5b506151578d828e01614c9c565b9150509295989b9194979a5092959850565b60008060006040848603121561517d578081fd5b83356001600160401b0380821115615193578283fd5b61519f87838801614d1c565b909550935060208601359150808211156151b7578283fd5b506151c486828701614c9c565b9150509250925092565b60008060008060008060008060006101208a8c0312156151ec578283fd5b89356001600160401b0380821115615202578485fd5b61520e8d838e01614d5b565b9a5060208c0135915080821115615223578485fd5b61522f8d838e01614c26565b995060408c0135915080821115615244578485fd5b6152508d838e01614d5b565b985060608c0135915080821115615265578485fd5b6152718d838e01614d5b565b975060808c0135915080821115615286578485fd5b6152928d838e01614d5b565b965060a08c01359150808211156152a7578485fd5b6152b38d838e01614d5b565b955060c08c01359150808211156152c8578485fd5b6152d48d838e01614c26565b945060e08c01359150808211156152e9578384fd5b6152f58d838e01614d5b565b93506101008c013591508082111561530b578283fd5b506153188c828d01614c9c565b9150509295985092959850929598565b6000806040838503121561533a578182fd5b82359150602083013561534c81615df2565b809150509250929050565b6000806000806000806000806000806101408b8d031215615376578384fd5b8a35995060208b013561538881615df2565b985060408b013561539881615df2565b975060608b01356153a881615df2565b965060808b01356153b881615df2565b955060a08b0135945060c08b0135935060e08b013592506101008b013591506101208b01356153e681615df2565b809150509295989b9194979a5092959850565b60008060008060008060a08789031215615411578384fd5b8635955060208701356001600160401b038082111561542e578586fd5b61543a8a838b01614d5b565b965061544860408a01614dc5565b9550606089013591508082111561545d578384fd5b5061546a89828a01614d1c565b979a9699509497949695608090950135949350505050565b60008060408385031215615494578182fd5b50508035926020909101359150565b6001600160a01b03169052565b6000815180845260208085019450808401835b838110156154e95781516001600160e01b031916875295820195908201906001016154c3565b509495945050505050565b6000826060810183835b600381101561552d578383038752615517838351615590565b60209788019790935091909101906001016154fe565b509095945050505050565b6000815180845260208085019450808401835b838110156154e95781518752958201959082019060010161554b565b81835281816020850137506000828201602090810191909152601f909101601f19169091010190565b600081518084526155a8816020860160208601615d46565b601f01601f19169290920160200192915050565b600681106155da57634e487b7160e01b600052602160045260246000fd5b9052565b600063ffffffff60e01b80871683528551615600816004860160208a01615d46565b855190840190615617816004840160208a01615d46565b919094169301600481019390935250506008019392505050565b60008251615643818460208701615d46565b9190910192915050565b6001600160a01b0391909116815260200190565b6001600160a01b0392831681529116602082015260400190565b6001600160a01b039384168152919092166020820152604081019190915260600190565b60018060a01b038616815284602082015283604082015260a0606082015260006156cc60a0830185615590565b90508260808301529695505050505050565b6156e8818e6154a3565b6101806020820152600061570061018083018e615590565b8281036040840152615712818e6154b0565b90508281036060840152615726818d6154f4565b90508a60808401528960a084015261574160c084018a6154a3565b8760e08401528661010084015282810361012084015261576181876154b0565b90508281036101408401526157768186615590565b905082810361016084015261578b8185615538565b9f9e505050505050505050505050505050565b6001600160a01b038616815260a0602082018190526000906157c290830187615590565b604083019590955250606081019290925260809091015292915050565b6001600160a01b03929092168252602082015260400190565b602081526000612b75602083018486615567565b604081526000615820604083018587615567565b9050826020830152949350505050565b602081526000613d216020830184615590565b6080815260006158566080830188615590565b61586360208401886155bc565b6001600160a01b03861660408401528281036060840152615885818587615567565b98975050505050505050565b60006101a08083526158a58184018c615590565b91505060206158b68184018b6155bc565b6001600160a01b0389811660408501526060840189905260808401889052861660a084015260c083018560005b6003811015615900578151835291830191908301906001016158e3565b50505061012083018460005b60048110156159295781518352918301919083019060010161590c565b505050509998505050505050505050565b85815284602082015260a06040820152600061595960a0830186615590565b828103606084015261596b8186615590565b9150508260808301529695505050505050565b6020808252601b908201527a109a5d18dbda5b92195b1c195c8e881d9bdd5d081a5cc81b9d5b1b602a1b604082015260600190565b6020808252601b908201527a213ab9372937baba32b92637b3b4b19d103737ba103637b1b5b2b960291b604082015260600190565b6020808252602b908201527f496e697469616c697a61626c653a20636f6e7472616374206973206e6f74206960408201526a6e697469616c697a696e6760a81b606082015260800190565b6020808252601d908201527f4275726e526f757465724c6f6769633a20696e76616c69642070617468000000604082015260600190565b9283526020830191909152604082015260600190565b918252602082015260400190565b888152602081018890526001600160a01b038716604082015261010060608201819052600090615ac083820189615590565b91505085608083015284151560a0830152615ade60c08301856155bc565b8260e08301529998505050505050505050565b878152602080820188905260c0604083018190528201869052600090879060e08401835b89811015615b43578335615b2881615df2565b6001600160a01b031682529282019290820190600101615b15565b506001600160a01b039790971660608501525050506080810192909252151560a090910152949350505050565b878152602081018790526001600160e01b0319861660408201526001600160a01b038516606082015260e060808201819052600090615bb190830186615590565b60a08301949094525060c0015295945050505050565b604051601f8201601f191681016001600160401b0381118282101715615bef57615bef615ddc565b604052919050565b60006001600160401b03821115615c1057615c10615ddc565b5060051b60200190565b60008219821115615c2d57615c2d615dc6565b500190565b60006001600160401b03828116848216808303821115615c5457615c54615dc6565b01949350505050565b600060ff821660ff84168060ff03821115615c7a57615c7a615dc6565b019392505050565b60006001600160601b03828116848216808303821115615c5457615c54615dc6565b600082615cbf57634e487b7160e01b81526012600452602481fd5b500490565b6000816000190483118215151615615cde57615cde615dc6565b500290565b600060ff821660ff84168160ff0481118215151615615d0457615d04615dc6565b029392505050565b600082821015615d1e57615d1e615dc6565b500390565b600060ff821660ff841680821015615d3d57615d3d615dc6565b90039392505050565b60005b83811015615d61578181015183820152602001615d49565b83811115615d70576000848401525b50505050565b600181811c90821680615d8a57607f821691505b60208210811415614b3c57634e487b7160e01b600052602260045260246000fd5b6000600019821415615dbf57615dbf615dc6565b5060010190565b634e487b7160e01b600052601160045260246000fd5b634e487b7160e01b600052604160045260246000fd5b6001600160a01b0381168114611e3c57600080fd5b8015158114611e3c57600080fdfea2646970667358221220af645685ca1685dbaa44465429e425d454bb180971792704bb63f8890d2df13664736f6c63430008040033",
  "libraries": {
    "BurnRouterLib": "0x4C71A5814b1DE10aF31c2524CcB66B582Df410E1"
  },
  "devdoc": {
    "kind": "dev",
    "methods": {
      "burnProof(bytes4,bytes,bytes,bytes4,uint256,bytes,uint256,bytes,uint256[],uint256[])": {
        "details": "Makes isTransferred flag true for the paid requests",
        "params": {
          "_blockNumber": "Height of the block containing the Bitcoin tx",
          "_burnReqIndexes": "Indexes of requests that locker wants to provide proof for them",
          "_index": "Index of the Bitcoin tx the block",
          "_intermediateNodes": "Merkle inclusion proof for the Bitcoin tx",
          "_lockerLockingScript": "Locker's locking script that this burn request belongs to",
          "_locktime": "Lock time of the Bitcoin tx",
          "_version": "Version of the Bitcoin tx",
          "_vin": "Inputs of the Bitcoin tx",
          "_vout": "Outputs of the Bitcoin tx",
          "_voutIndexes": "Indexes of outputs that were used to pay burn requests.                     _voutIndexes[i] belongs to _burnReqIndexes[i]"
        }
      },
      "disputeBurn(bytes,uint256[])": {
        "params": {
          "_indices": "Indices of requests that their deadline has passed",
          "_lockerLockingScript": "Locker's locking script that the unpaid request belongs to"
        }
      },
      "disputeLocker(bytes,bytes4[],bytes,bytes,bytes,bytes,bytes4[],bytes,uint256[])": {
        "details": "Input tx is a malicious tx which shows that locker spent BTC      Output tx is the tx that was spent by locker in input tx      Output tx shows money goes to locker      Input tx shows locker steals the funds",
        "params": {
          "_indexesAndBlockNumbers": "Indices of malicious input in input tx,                                input tx in block and block number of input tx",
          "_inputIntermediateNodes": "Merkle inclusion proof for the malicious transaction",
          "_inputVin": "Inputs of the malicious transaction",
          "_inputVout": "Outputs of the malicious transaction",
          "_lockerLockingScript": "Suspicious locker's locking script",
          "_locktimes": "Locktimes of input and output tx",
          "_outputVin": "Inputs of the spent transaction",
          "_outputVout": "Outputs of the spent transaction",
          "_versions": "Versions of input and output tx"
        }
      },
      "initialize(uint256,address,address,address,address,uint256,uint256,uint256,uint256,address)": {
        "params": {
          "_lockers": "Address of lockers contract",
          "_networkFee": "Fee of submitting a transaction on Network",
          "_protocolPercentageFee": "Percentage of tokens that user pays to protocol for burning",
          "_relay": "Address of relay contract",
          "_slasherPercentageReward": "Percentage of tokens that slasher receives after slashing a locker",
          "_startingBlockNumber": "Requests that are included in a block older                             than _startingBlockNumber cannot be executed",
          "_teleBTC": "Address of teleBTC contract",
          "_transferDeadline": "of sending BTC to user (aster submitting a burn request)",
          "_treasury": "Address of the treasury of the protocol"
        }
      },
      "isTransferred(address,uint256)": {
        "params": {
          "_index": "the request for the locker",
          "_lockerTargetAddress": "Locker address on the target chain"
        }
      },
      "owner()": {
        "details": "Returns the address of the current owner."
      },
      "renounceOwnership()": {
        "details": "Leaves the contract without owner. It will not be possible to call `onlyOwner` functions. Can only be called by the current owner. NOTE: Renouncing ownership will leave the contract without an owner, thereby disabling any functionality that is only available to the owner."
      },
      "setLockers(address)": {
        "details": "Only owner can call this",
        "params": {
          "_lockers": "The new lockers contract address"
        }
      },
      "setNetworkFee(uint256)": {
        "details": "Only owner can call this",
        "params": {
          "_networkFee": "The new Bitcoin transaction fee"
        }
      },
      "setNetworkFeeOracle(address)": {
        "details": "Only owner can call this",
        "params": {
          "_networkFeeOracle": "Address of oracle who can update burn fee"
        }
      },
      "setProtocolPercentageFee(uint256)": {
        "details": "Only owner can call this",
        "params": {
          "_protocolPercentageFee": "The new protocol percentage fee"
        }
      },
      "setRelay(address)": {
        "details": "Only owner can call this",
        "params": {
          "_relay": "The new relay contract address"
        }
      },
      "setSlasherPercentageReward(uint256)": {
        "details": "Only owner can call this",
        "params": {
          "_slasherPercentageReward": "The new slasher percentage reward"
        }
      },
      "setTeleBTC(address)": {
        "details": "Only owner can call this",
        "params": {
          "_teleBTC": "The new teleBTC contract address"
        }
      },
      "setThirdPartyAddress(uint256,address)": {
        "details": "Only owner can call this",
        "params": {
          "_thirdPartyAddress": "third party address"
        }
      },
      "setThirdPartyFee(uint256,uint256)": {
        "details": "Only owner can call this",
        "params": {
          "_thirdPartyFee": "third party fee"
        }
      },
      "setTransferDeadline(uint256)": {
        "details": "Only owner can call this      Deadline should be greater than relay finalization parameter",
        "params": {
          "_transferDeadline": "The new transfer deadline"
        }
      },
      "setTreasury(address)": {
        "details": "Only owner can call this",
        "params": {
          "_treasury": "The new treasury address"
        }
      },
      "swapAndUnwrap(address,uint256[],bool,address[],uint256,bytes,uint8,bytes,uint256)": {
        "details": "After exchanging, rest of the process is similar to ccBurn",
        "params": {
          "_amounts": "[inputTokenAmount, teleBTCAmount]",
          "_deadline": "of exchanging",
          "_exchangeConnector": "Address of exchange connectBurnRouterLogicor to be used",
          "_isFixedToken": "True if input token amount is fixed",
          "_path": "of exchanging inputToken to teleBTC",
          "thirdParty": "Third party id"
        },
        "returns": {
          "_0": "Amount of BTC that user receives"
        }
      },
      "transferOwnership(address)": {
        "details": "Transfers ownership of the contract to a new account (`newOwner`). Can only be called by the current owner."
      },
      "unwrap(uint256,bytes,uint8,bytes,uint256)": {
        "details": "After submitting the burn request, Locker has a limited time      to send BTC and provide burn proof",
        "params": {
          "_amount": "of teleBTC that user wants to burn",
          "_lockerLockingScript": "of locker that should execute the burn request",
          "_scriptType": "User script type",
          "_userScript": "User script hash",
          "thirdParty": "Third party id"
        },
        "returns": {
          "_0": "Amount of BTC that user receives"
        }
      }
    },
    "version": 1
  },
  "userdoc": {
    "events": {
      "LockerDispute(address,bytes,uint256,bytes32,uint256)": {
        "notice": "Emits when a locker gets slashed for withdrawing BTC without proper reason"
      },
      "NewLockers(address,address)": {
        "notice": "Emits when lockers address is updated"
      },
      "NewNetworkFee(uint256,uint256)": {
        "notice": "Emits when network fee is updated"
      },
      "NewNetworkFeeOracle(address,address)": {
        "notice": "Emits when network fee oracle is updated"
      },
      "NewProtocolPercentageFee(uint256,uint256)": {
        "notice": "Emits when percentage fee is updated"
      },
      "NewRelay(address,address)": {
        "notice": "Emits when relay address is updated"
      },
      "NewSlasherPercentageFee(uint256,uint256)": {
        "notice": "Emits when slasher percentage fee is updated"
      },
      "NewTeleBTC(address,address)": {
        "notice": "Emits when TeleBTC address is updated"
      },
      "NewThirdPartyAddress(uint256,address,address)": {
        "notice": "Emits when changes made to third party address"
      },
      "NewThirdPartyFee(uint256,uint256,uint256)": {
        "notice": "Emits when changes made to third party fee"
      },
      "NewTransferDeadline(uint256,uint256)": {
        "notice": "Emits when transfer deadline is updated"
      },
      "NewTreasury(address,address)": {
        "notice": "Emits when treasury address is updated"
      },
      "NewUnwrap(bytes,uint8,address,address,uint256,uint256,uint256,address,uint256[3],uint256[4])": {
        "notice": "Emits when a burn request gets submitted"
      },
      "PaidUnwrap(address,uint256,bytes32,uint256)": {
        "notice": "Emits when a burn proof is provided"
      }
    },
    "kind": "user",
    "methods": {
      "burnProof(bytes4,bytes,bytes,bytes4,uint256,bytes,uint256,bytes,uint256[],uint256[])": {
        "notice": "Checks the correctness of burn proof (which is a Bitcoin tx)"
      },
      "disputeBurn(bytes,uint256[])": {
        "notice": "Slashes a locker if did not pay a cc burn request before its deadline"
      },
      "disputeLocker(bytes,bytes4[],bytes,bytes,bytes,bytes,bytes4[],bytes,uint256[])": {
        "notice": "Slashes a locker if they issue a tx that doesn't match any burn request"
      },
      "initialize(uint256,address,address,address,address,uint256,uint256,uint256,uint256,address)": {
        "notice": "Handles cross-chain burn requests"
      },
      "isTransferred(address,uint256)": {
        "notice": "Returns true is request has been processed"
      },
      "setLockers(address)": {
        "notice": "Updates lockers contract address"
      },
      "setNetworkFee(uint256)": {
        "notice": "Updates Bitcoin transaction fee"
      },
      "setNetworkFeeOracle(address)": {
        "notice": "Updates Bitcoin oracle"
      },
      "setProtocolPercentageFee(uint256)": {
        "notice": "Updates protocol percentage fee for burning tokens"
      },
      "setRelay(address)": {
        "notice": "Updates relay contract address"
      },
      "setSlasherPercentageReward(uint256)": {
        "notice": "Updates slasher percentage reward for disputing lockers"
      },
      "setStartingBlockNumber(uint256)": {
        "notice": "Setter for starting block number"
      },
      "setTeleBTC(address)": {
        "notice": "Updates teleBTC contract address"
      },
      "setThirdPartyAddress(uint256,address)": {
        "notice": "Setter for third party address"
      },
      "setThirdPartyFee(uint256,uint256)": {
        "notice": "Setter for third party fee"
      },
      "setTransferDeadline(uint256)": {
        "notice": "Updates deadline of executing burn requests"
      },
      "setTreasury(address)": {
        "notice": "Updates protocol treasury address"
      },
      "setWrappedNativeToken(address)": {
        "notice": "Change the wrapped native token address"
      },
      "swapAndUnwrap(address,uint256[],bool,address[],uint256,bytes,uint8,bytes,uint256)": {
        "notice": "Exchanges input token for teleBTC then burns it"
      },
      "unwrap(uint256,bytes,uint8,bytes,uint256)": {
        "notice": "Records users burn request"
      }
    },
    "version": 1
  },
  "storageLayout": {
    "storage": [
      {
        "astId": 20935,
        "contract": "contracts/routers/BurnRouterLogic.sol:BurnRouterLogic",
        "label": "relay",
        "offset": 0,
        "slot": "0",
        "type": "t_address"
      },
      {
        "astId": 20938,
        "contract": "contracts/routers/BurnRouterLogic.sol:BurnRouterLogic",
        "label": "lockers",
        "offset": 0,
        "slot": "1",
        "type": "t_address"
      },
      {
        "astId": 20941,
        "contract": "contracts/routers/BurnRouterLogic.sol:BurnRouterLogic",
        "label": "teleBTC",
        "offset": 0,
        "slot": "2",
        "type": "t_address"
      },
      {
        "astId": 20944,
        "contract": "contracts/routers/BurnRouterLogic.sol:BurnRouterLogic",
        "label": "treasury",
        "offset": 0,
        "slot": "3",
        "type": "t_address"
      },
      {
        "astId": 20947,
        "contract": "contracts/routers/BurnRouterLogic.sol:BurnRouterLogic",
        "label": "bitcoinFeeOracle",
        "offset": 0,
        "slot": "4",
        "type": "t_address"
      },
      {
        "astId": 20950,
        "contract": "contracts/routers/BurnRouterLogic.sol:BurnRouterLogic",
        "label": "startingBlockNumber",
        "offset": 0,
        "slot": "5",
        "type": "t_uint256"
      },
      {
        "astId": 20953,
        "contract": "contracts/routers/BurnRouterLogic.sol:BurnRouterLogic",
        "label": "transferDeadline",
        "offset": 0,
        "slot": "6",
        "type": "t_uint256"
      },
      {
        "astId": 20956,
        "contract": "contracts/routers/BurnRouterLogic.sol:BurnRouterLogic",
        "label": "protocolPercentageFee",
        "offset": 0,
        "slot": "7",
        "type": "t_uint256"
      },
      {
        "astId": 20959,
        "contract": "contracts/routers/BurnRouterLogic.sol:BurnRouterLogic",
        "label": "slasherPercentageReward",
        "offset": 0,
        "slot": "8",
        "type": "t_uint256"
      },
      {
        "astId": 20962,
        "contract": "contracts/routers/BurnRouterLogic.sol:BurnRouterLogic",
        "label": "bitcoinFee",
        "offset": 0,
        "slot": "9",
        "type": "t_uint256"
      },
      {
        "astId": 20968,
        "contract": "contracts/routers/BurnRouterLogic.sol:BurnRouterLogic",
        "label": "burnRequests",
        "offset": 0,
        "slot": "10",
        "type": "t_mapping(t_address,t_array(t_struct(burnRequest)24023_storage)dyn_storage)"
      },
      {
        "astId": 20972,
        "contract": "contracts/routers/BurnRouterLogic.sol:BurnRouterLogic",
        "label": "burnRequestCounter",
        "offset": 0,
        "slot": "11",
        "type": "t_mapping(t_address,t_uint256)"
      },
      {
        "astId": 20977,
        "contract": "contracts/routers/BurnRouterLogic.sol:BurnRouterLogic",
        "label": "isUsedAsBurnProof",
        "offset": 0,
        "slot": "12",
        "type": "t_mapping(t_bytes32,t_bool)"
      },
      {
        "astId": 326,
        "contract": "contracts/routers/BurnRouterLogic.sol:BurnRouterLogic",
        "label": "_initialized",
        "offset": 0,
        "slot": "13",
        "type": "t_uint8"
      },
      {
        "astId": 329,
        "contract": "contracts/routers/BurnRouterLogic.sol:BurnRouterLogic",
        "label": "_initializing",
        "offset": 1,
        "slot": "13",
        "type": "t_bool"
      },
      {
        "astId": 1797,
        "contract": "contracts/routers/BurnRouterLogic.sol:BurnRouterLogic",
        "label": "__gap",
        "offset": 0,
        "slot": "14",
        "type": "t_array(t_uint256)50_storage"
      },
      {
        "astId": 198,
        "contract": "contracts/routers/BurnRouterLogic.sol:BurnRouterLogic",
        "label": "_owner",
        "offset": 0,
        "slot": "64",
        "type": "t_address"
      },
      {
        "astId": 318,
        "contract": "contracts/routers/BurnRouterLogic.sol:BurnRouterLogic",
        "label": "__gap",
        "offset": 0,
        "slot": "65",
        "type": "t_array(t_uint256)49_storage"
      },
      {
        "astId": 631,
        "contract": "contracts/routers/BurnRouterLogic.sol:BurnRouterLogic",
        "label": "_status",
        "offset": 0,
        "slot": "114",
        "type": "t_uint256"
      },
      {
        "astId": 700,
        "contract": "contracts/routers/BurnRouterLogic.sol:BurnRouterLogic",
        "label": "__gap",
        "offset": 0,
        "slot": "115",
        "type": "t_array(t_uint256)49_storage"
      },
      {
        "astId": 20987,
        "contract": "contracts/routers/BurnRouterLogic.sol:BurnRouterLogic",
        "label": "thirdPartyFee",
        "offset": 0,
        "slot": "164",
        "type": "t_mapping(t_uint256,t_uint256)"
      },
      {
        "astId": 20991,
        "contract": "contracts/routers/BurnRouterLogic.sol:BurnRouterLogic",
        "label": "thirdPartyAddress",
        "offset": 0,
        "slot": "165",
        "type": "t_mapping(t_uint256,t_address)"
      },
      {
        "astId": 20993,
        "contract": "contracts/routers/BurnRouterLogic.sol:BurnRouterLogic",
        "label": "wrappedNativeToken",
        "offset": 0,
        "slot": "166",
        "type": "t_address"
      }
    ],
    "types": {
      "t_address": {
        "encoding": "inplace",
        "label": "address",
        "numberOfBytes": "20"
      },
      "t_array(t_struct(burnRequest)24023_storage)dyn_storage": {
        "base": "t_struct(burnRequest)24023_storage",
        "encoding": "dynamic_array",
        "label": "struct IBurnRouter.burnRequest[]",
        "numberOfBytes": "32"
      },
      "t_array(t_uint256)49_storage": {
        "base": "t_uint256",
        "encoding": "inplace",
        "label": "uint256[49]",
        "numberOfBytes": "1568"
      },
      "t_array(t_uint256)50_storage": {
        "base": "t_uint256",
        "encoding": "inplace",
        "label": "uint256[50]",
        "numberOfBytes": "1600"
      },
      "t_bool": {
        "encoding": "inplace",
        "label": "bool",
        "numberOfBytes": "1"
      },
      "t_bytes32": {
        "encoding": "inplace",
        "label": "bytes32",
        "numberOfBytes": "32"
      },
      "t_bytes_storage": {
        "encoding": "bytes",
        "label": "bytes",
        "numberOfBytes": "32"
      },
      "t_enum(ScriptTypes)8680": {
        "encoding": "inplace",
        "label": "enum ScriptTypes",
        "numberOfBytes": "1"
      },
      "t_mapping(t_address,t_array(t_struct(burnRequest)24023_storage)dyn_storage)": {
        "encoding": "mapping",
        "key": "t_address",
        "label": "mapping(address => struct IBurnRouter.burnRequest[])",
        "numberOfBytes": "32",
        "value": "t_array(t_struct(burnRequest)24023_storage)dyn_storage"
      },
      "t_mapping(t_address,t_uint256)": {
        "encoding": "mapping",
        "key": "t_address",
        "label": "mapping(address => uint256)",
        "numberOfBytes": "32",
        "value": "t_uint256"
      },
      "t_mapping(t_bytes32,t_bool)": {
        "encoding": "mapping",
        "key": "t_bytes32",
        "label": "mapping(bytes32 => bool)",
        "numberOfBytes": "32",
        "value": "t_bool"
      },
      "t_mapping(t_uint256,t_address)": {
        "encoding": "mapping",
        "key": "t_uint256",
        "label": "mapping(uint256 => address)",
        "numberOfBytes": "32",
        "value": "t_address"
      },
      "t_mapping(t_uint256,t_uint256)": {
        "encoding": "mapping",
        "key": "t_uint256",
        "label": "mapping(uint256 => uint256)",
        "numberOfBytes": "32",
        "value": "t_uint256"
      },
      "t_struct(burnRequest)24023_storage": {
        "encoding": "inplace",
        "label": "struct IBurnRouter.burnRequest",
        "members": [
          {
            "astId": 24007,
            "contract": "contracts/routers/BurnRouterLogic.sol:BurnRouterLogic",
            "label": "amount",
            "offset": 0,
            "slot": "0",
            "type": "t_uint256"
          },
          {
            "astId": 24009,
            "contract": "contracts/routers/BurnRouterLogic.sol:BurnRouterLogic",
            "label": "burntAmount",
            "offset": 0,
            "slot": "1",
            "type": "t_uint256"
          },
          {
            "astId": 24011,
            "contract": "contracts/routers/BurnRouterLogic.sol:BurnRouterLogic",
            "label": "sender",
            "offset": 0,
            "slot": "2",
            "type": "t_address"
          },
          {
            "astId": 24013,
            "contract": "contracts/routers/BurnRouterLogic.sol:BurnRouterLogic",
            "label": "userScript",
            "offset": 0,
            "slot": "3",
            "type": "t_bytes_storage"
          },
          {
            "astId": 24015,
            "contract": "contracts/routers/BurnRouterLogic.sol:BurnRouterLogic",
            "label": "deadline",
            "offset": 0,
            "slot": "4",
            "type": "t_uint256"
          },
          {
            "astId": 24017,
            "contract": "contracts/routers/BurnRouterLogic.sol:BurnRouterLogic",
            "label": "isTransferred",
            "offset": 0,
            "slot": "5",
            "type": "t_bool"
          },
          {
            "astId": 24020,
            "contract": "contracts/routers/BurnRouterLogic.sol:BurnRouterLogic",
            "label": "scriptType",
            "offset": 1,
            "slot": "5",
            "type": "t_enum(ScriptTypes)8680"
          },
          {
            "astId": 24022,
            "contract": "contracts/routers/BurnRouterLogic.sol:BurnRouterLogic",
            "label": "requestIdOfLocker",
            "offset": 0,
            "slot": "6",
            "type": "t_uint256"
          }
        ],
        "numberOfBytes": "224"
      },
      "t_uint256": {
        "encoding": "inplace",
        "label": "uint256",
        "numberOfBytes": "32"
      },
      "t_uint8": {
        "encoding": "inplace",
        "label": "uint8",
        "numberOfBytes": "1"
      }
    }
  }
}