{
  "address": "0x0150Ea9e1Ca9718eea696921d3d4337FFe962864",
  "abi": [
    {
      "inputs": [],
      "name": "AlreadyHasRole",
      "type": "error"
    },
    {
      "inputs": [],
      "name": "BurnFailed",
      "type": "error"
    },
    {
      "inputs": [],
      "name": "InsufficientFunds",
      "type": "error"
    },
    {
      "inputs": [],
      "name": "InvalidValue",
      "type": "error"
    },
    {
      "inputs": [],
      "name": "LockerActive",
      "type": "error"
    },
    {
      "inputs": [],
      "name": "LockerNotActive",
      "type": "error"
    },
    {
      "inputs": [],
      "name": "NotBurner",
      "type": "error"
    },
    {
      "inputs": [],
      "name": "NotLocker",
      "type": "error"
    },
    {
      "inputs": [],
      "name": "NotMinter",
      "type": "error"
    },
    {
      "inputs": [],
      "name": "NotRequested",
      "type": "error"
    },
    {
      "inputs": [],
      "name": "TransferFailed",
      "type": "error"
    },
    {
      "inputs": [],
      "name": "ZeroAddress",
      "type": "error"
    },
    {
      "inputs": [],
      "name": "ZeroValue",
      "type": "error"
    },
    {
      "anonymous": false,
      "inputs": [
        {
          "indexed": true,
          "internalType": "address",
          "name": "lockerTargetAddress",
          "type": "address"
        },
        {
          "indexed": false,
          "internalType": "bytes",
          "name": "lockerLockingScript",
          "type": "bytes"
        },
        {
          "indexed": false,
          "internalType": "uint256",
          "name": "TSTLockedAmount",
          "type": "uint256"
        },
        {
          "indexed": false,
          "internalType": "address",
          "name": "collateralToken",
          "type": "address"
        },
        {
          "indexed": false,
          "internalType": "uint256",
          "name": "collateralTokenLockedAmount",
          "type": "uint256"
        },
        {
          "indexed": false,
          "internalType": "uint256",
          "name": "netMinted",
          "type": "uint256"
        }
      ],
      "name": "ActivateLocker",
      "type": "event"
    },
    {
      "anonymous": false,
      "inputs": [
        {
          "indexed": true,
          "internalType": "address",
          "name": "lockerTargetAddress",
          "type": "address"
        },
        {
          "indexed": false,
          "internalType": "uint256",
          "name": "burntAmount",
          "type": "uint256"
        },
        {
          "indexed": false,
          "internalType": "uint256",
          "name": "lockerFee",
          "type": "uint256"
        },
        {
          "indexed": false,
          "internalType": "uint256",
          "name": "burningTime",
          "type": "uint256"
        }
      ],
      "name": "BurnByLocker",
      "type": "event"
    },
    {
      "anonymous": false,
      "inputs": [
        {
          "indexed": true,
          "internalType": "address",
          "name": "account",
          "type": "address"
        }
      ],
      "name": "BurnerAdded",
      "type": "event"
    },
    {
      "anonymous": false,
      "inputs": [
        {
          "indexed": true,
          "internalType": "address",
          "name": "account",
          "type": "address"
        }
      ],
      "name": "BurnerRemoved",
      "type": "event"
    },
    {
      "anonymous": false,
      "inputs": [
        {
          "indexed": true,
          "internalType": "address",
          "name": "lockerTargetAddress",
          "type": "address"
        },
        {
          "indexed": true,
          "internalType": "address",
          "name": "collateralToken",
          "type": "address"
        },
        {
          "indexed": false,
          "internalType": "uint256",
          "name": "addedCollateral",
          "type": "uint256"
        },
        {
          "indexed": false,
          "internalType": "uint256",
          "name": "totalCollateral",
          "type": "uint256"
        },
        {
          "indexed": false,
          "internalType": "uint256",
          "name": "addingTime",
          "type": "uint256"
        }
      ],
      "name": "CollateralAdded",
      "type": "event"
    },
    {
      "anonymous": false,
      "inputs": [
        {
          "indexed": true,
          "internalType": "address",
          "name": "lockerTargetAddress",
          "type": "address"
        },
        {
          "indexed": true,
          "internalType": "address",
          "name": "collateralToken",
          "type": "address"
        },
        {
          "indexed": false,
          "internalType": "uint256",
          "name": "removedCollateral",
          "type": "uint256"
        },
        {
          "indexed": false,
          "internalType": "uint256",
          "name": "totalCollateral",
          "type": "uint256"
        },
        {
          "indexed": false,
          "internalType": "uint256",
          "name": "removingTime",
          "type": "uint256"
        }
      ],
      "name": "CollateralRemoved",
      "type": "event"
    },
    {
      "anonymous": false,
      "inputs": [
        {
          "indexed": false,
          "internalType": "uint8",
          "name": "version",
          "type": "uint8"
        }
      ],
      "name": "Initialized",
      "type": "event"
    },
    {
      "anonymous": false,
      "inputs": [
        {
          "indexed": true,
          "internalType": "address",
          "name": "lockerTargetAddress",
          "type": "address"
        },
        {
          "indexed": false,
          "internalType": "bytes",
          "name": "lockerLockingScript",
          "type": "bytes"
        },
        {
          "indexed": false,
          "internalType": "uint256",
          "name": "TSTLockedAmount",
          "type": "uint256"
        },
        {
          "indexed": true,
          "internalType": "address",
          "name": "collateralToken",
          "type": "address"
        },
        {
          "indexed": false,
          "internalType": "uint256",
          "name": "collateralTokenLockedAmount",
          "type": "uint256"
        },
        {
          "indexed": false,
          "internalType": "uint256",
          "name": "reliabilityFactor",
          "type": "uint256"
        },
        {
          "indexed": false,
          "internalType": "uint256",
          "name": "addingTime",
          "type": "uint256"
        }
      ],
      "name": "LockerAdded",
      "type": "event"
    },
    {
      "anonymous": false,
      "inputs": [
        {
          "indexed": true,
          "internalType": "address",
          "name": "lockerTargetAddress",
          "type": "address"
        },
        {
          "indexed": true,
          "internalType": "address",
          "name": "liquidatorAddress",
          "type": "address"
        },
        {
          "indexed": false,
          "internalType": "address",
          "name": "collateralToken",
          "type": "address"
        },
        {
          "indexed": false,
          "internalType": "uint256",
          "name": "collateralAmount",
          "type": "uint256"
        },
        {
          "indexed": false,
          "internalType": "uint256",
          "name": "teleBTCAmount",
          "type": "uint256"
        },
        {
          "indexed": false,
          "internalType": "uint256",
          "name": "liquidateTime",
          "type": "uint256"
        }
      ],
      "name": "LockerLiquidated",
      "type": "event"
    },
    {
      "anonymous": false,
      "inputs": [
        {
          "indexed": true,
          "internalType": "address",
          "name": "lockerTargetAddress",
          "type": "address"
        },
        {
          "indexed": false,
          "internalType": "bytes",
          "name": "lockerLockingScript",
          "type": "bytes"
        },
        {
          "indexed": false,
          "internalType": "uint256",
          "name": "TSTUnlockedAmount",
          "type": "uint256"
        },
        {
          "indexed": true,
          "internalType": "address",
          "name": "collateralToken",
          "type": "address"
        },
        {
          "indexed": false,
          "internalType": "uint256",
          "name": "collateralTokenUnlockedAmount",
          "type": "uint256"
        }
      ],
      "name": "LockerRemoved",
      "type": "event"
    },
    {
      "anonymous": false,
      "inputs": [
        {
          "indexed": true,
          "internalType": "address",
          "name": "lockerTargetAddress",
          "type": "address"
        },
        {
          "indexed": false,
          "internalType": "address",
          "name": "collateralToken",
          "type": "address"
        },
        {
          "indexed": false,
          "internalType": "uint256",
          "name": "rewardAmount",
          "type": "uint256"
        },
        {
          "indexed": true,
          "internalType": "address",
          "name": "rewardRecipient",
          "type": "address"
        },
        {
          "indexed": false,
          "internalType": "uint256",
          "name": "amount",
          "type": "uint256"
        },
        {
          "indexed": true,
          "internalType": "address",
          "name": "recipient",
          "type": "address"
        },
        {
          "indexed": false,
          "internalType": "uint256",
          "name": "slashedCollateralAmount",
          "type": "uint256"
        },
        {
          "indexed": false,
          "internalType": "uint256",
          "name": "slashTime",
          "type": "uint256"
        },
        {
          "indexed": false,
          "internalType": "bool",
          "name": "isForCCBurn",
          "type": "bool"
        }
      ],
      "name": "LockerSlashed",
      "type": "event"
    },
    {
      "anonymous": false,
      "inputs": [
        {
          "indexed": true,
          "internalType": "address",
          "name": "lockerTargetAddress",
          "type": "address"
        },
        {
          "indexed": true,
          "internalType": "address",
          "name": "buyerAddress",
          "type": "address"
        },
        {
          "indexed": true,
          "internalType": "address",
          "name": "collateralToken",
          "type": "address"
        },
        {
          "indexed": false,
          "internalType": "uint256",
          "name": "slashingAmount",
          "type": "uint256"
        },
        {
          "indexed": false,
          "internalType": "uint256",
          "name": "teleBTCAmount",
          "type": "uint256"
        },
        {
          "indexed": false,
          "internalType": "uint256",
          "name": "slashingTime",
          "type": "uint256"
        }
      ],
      "name": "LockerSlashedCollateralSold",
      "type": "event"
    },
    {
      "anonymous": false,
      "inputs": [
        {
          "indexed": true,
          "internalType": "address",
          "name": "lockerTargetAddress",
          "type": "address"
        },
        {
          "indexed": true,
          "internalType": "address",
          "name": "receiver",
          "type": "address"
        },
        {
          "indexed": false,
          "internalType": "uint256",
          "name": "mintedAmount",
          "type": "uint256"
        },
        {
          "indexed": false,
          "internalType": "uint256",
          "name": "lockerFee",
          "type": "uint256"
        },
        {
          "indexed": false,
          "internalType": "uint256",
          "name": "mintingTime",
          "type": "uint256"
        }
      ],
      "name": "MintByLocker",
      "type": "event"
    },
    {
      "anonymous": false,
      "inputs": [
        {
          "indexed": true,
          "internalType": "address",
          "name": "account",
          "type": "address"
        }
      ],
      "name": "MinterAdded",
      "type": "event"
    },
    {
      "anonymous": false,
      "inputs": [
        {
          "indexed": true,
          "internalType": "address",
          "name": "account",
          "type": "address"
        }
      ],
      "name": "MinterRemoved",
      "type": "event"
    },
    {
      "anonymous": false,
      "inputs": [
        {
          "indexed": false,
          "internalType": "address",
          "name": "oldBurnRouter",
          "type": "address"
        },
        {
          "indexed": false,
          "internalType": "address",
          "name": "newBurnRouter",
          "type": "address"
        }
      ],
      "name": "NewBurnRouter",
      "type": "event"
    },
    {
      "anonymous": false,
      "inputs": [
        {
          "indexed": false,
          "internalType": "uint256",
          "name": "oldCollateralRatio",
          "type": "uint256"
        },
        {
          "indexed": false,
          "internalType": "uint256",
          "name": "newCollateralRatio",
          "type": "uint256"
        }
      ],
      "name": "NewCollateralRatio",
      "type": "event"
    },
    {
      "anonymous": false,
      "inputs": [
        {
          "indexed": false,
          "internalType": "address",
          "name": "token",
          "type": "address"
        },
        {
          "indexed": false,
          "internalType": "uint256",
          "name": "decimal",
          "type": "uint256"
        }
      ],
      "name": "NewCollateralToken",
      "type": "event"
    },
    {
      "anonymous": false,
      "inputs": [
        {
          "indexed": false,
          "internalType": "uint256",
          "name": "oldLiquidationRatio",
          "type": "uint256"
        },
        {
          "indexed": false,
          "internalType": "uint256",
          "name": "newLiquidationRatio",
          "type": "uint256"
        }
      ],
      "name": "NewLiquidationRatio",
      "type": "event"
    },
    {
      "anonymous": false,
      "inputs": [
        {
          "indexed": false,
          "internalType": "uint256",
          "name": "oldLockerPercentageFee",
          "type": "uint256"
        },
        {
          "indexed": false,
          "internalType": "uint256",
          "name": "newLockerPercentageFee",
          "type": "uint256"
        }
      ],
      "name": "NewLockerPercentageFee",
      "type": "event"
    },
    {
      "anonymous": false,
      "inputs": [
        {
          "indexed": false,
          "internalType": "uint256",
          "name": "oldMinRequiredTNTLockedAmount",
          "type": "uint256"
        },
        {
          "indexed": false,
          "internalType": "uint256",
          "name": "newMinRequiredTNTLockedAmount",
          "type": "uint256"
        }
      ],
      "name": "NewMinRequiredTNTLockedAmount",
      "type": "event"
    },
    {
      "anonymous": false,
      "inputs": [
        {
          "indexed": false,
          "internalType": "uint256",
          "name": "oldMinRequiredTSTLockedAmount",
          "type": "uint256"
        },
        {
          "indexed": false,
          "internalType": "uint256",
          "name": "newMinRequiredTSTLockedAmount",
          "type": "uint256"
        }
      ],
      "name": "NewMinRequiredTSTLockedAmount",
      "type": "event"
    },
    {
      "anonymous": false,
      "inputs": [
        {
          "indexed": false,
          "internalType": "address",
          "name": "oldPriceOracle",
          "type": "address"
        },
        {
          "indexed": false,
          "internalType": "address",
          "name": "newPriceOracle",
          "type": "address"
        }
      ],
      "name": "NewPriceOracle",
      "type": "event"
    },
    {
      "anonymous": false,
      "inputs": [
        {
          "indexed": false,
          "internalType": "uint256",
          "name": "oldPriceWithDiscountRatio",
          "type": "uint256"
        },
        {
          "indexed": false,
          "internalType": "uint256",
          "name": "newPriceWithDiscountRatio",
          "type": "uint256"
        }
      ],
      "name": "NewPriceWithDiscountRatio",
      "type": "event"
    },
    {
      "anonymous": false,
      "inputs": [
        {
          "indexed": false,
          "internalType": "address",
          "name": "lockerTargetAddress",
          "type": "address"
        },
        {
          "indexed": false,
          "internalType": "uint256",
          "name": "oldReliabilityFactor",
          "type": "uint256"
        },
        {
          "indexed": false,
          "internalType": "uint256",
          "name": "newReliabilityFactor",
          "type": "uint256"
        }
      ],
      "name": "NewReliabilityFactor",
      "type": "event"
    },
    {
      "anonymous": false,
      "inputs": [
        {
          "indexed": false,
          "internalType": "address",
          "name": "oldTST",
          "type": "address"
        },
        {
          "indexed": false,
          "internalType": "address",
          "name": "newTST",
          "type": "address"
        }
      ],
      "name": "NewTST",
      "type": "event"
    },
    {
      "anonymous": false,
      "inputs": [
        {
          "indexed": false,
          "internalType": "address",
          "name": "oldTeleBTC",
          "type": "address"
        },
        {
          "indexed": false,
          "internalType": "address",
          "name": "newTeleBTC",
          "type": "address"
        }
      ],
      "name": "NewTeleBTC",
      "type": "event"
    },
    {
      "anonymous": false,
      "inputs": [
        {
          "indexed": true,
          "internalType": "address",
          "name": "previousOwner",
          "type": "address"
        },
        {
          "indexed": true,
          "internalType": "address",
          "name": "newOwner",
          "type": "address"
        }
      ],
      "name": "OwnershipTransferred",
      "type": "event"
    },
    {
      "anonymous": false,
      "inputs": [
        {
          "indexed": false,
          "internalType": "address",
          "name": "account",
          "type": "address"
        }
      ],
      "name": "Paused",
      "type": "event"
    },
    {
      "anonymous": false,
      "inputs": [
        {
          "indexed": true,
          "internalType": "address",
          "name": "lockerTargetAddress",
          "type": "address"
        },
        {
          "indexed": false,
          "internalType": "bytes",
          "name": "lockerLockingScript",
          "type": "bytes"
        },
        {
          "indexed": false,
          "internalType": "uint256",
          "name": "TSTLockedAmount",
          "type": "uint256"
        },
        {
          "indexed": true,
          "internalType": "address",
          "name": "collateralToken",
          "type": "address"
        },
        {
          "indexed": false,
          "internalType": "uint256",
          "name": "collateralTokenLockedAmount",
          "type": "uint256"
        }
      ],
      "name": "RequestAddLocker",
      "type": "event"
    },
    {
      "anonymous": false,
      "inputs": [
        {
          "indexed": true,
          "internalType": "address",
          "name": "lockerTargetAddress",
          "type": "address"
        },
        {
          "indexed": true,
          "internalType": "uint256",
          "name": "inactivationTimestamp",
          "type": "uint256"
        },
        {
          "indexed": false,
          "internalType": "bytes",
          "name": "lockerLockingScript",
          "type": "bytes"
        },
        {
          "indexed": false,
          "internalType": "uint256",
          "name": "TSTLockedAmount",
          "type": "uint256"
        },
        {
          "indexed": false,
          "internalType": "address",
          "name": "collateralToken",
          "type": "address"
        },
        {
          "indexed": false,
          "internalType": "uint256",
          "name": "collateralTokenLockedAmount",
          "type": "uint256"
        },
        {
          "indexed": false,
          "internalType": "uint256",
          "name": "netMinted",
          "type": "uint256"
        }
      ],
      "name": "RequestInactivateLocker",
      "type": "event"
    },
    {
      "anonymous": false,
      "inputs": [
        {
          "indexed": true,
          "internalType": "address",
          "name": "lockerTargetAddress",
          "type": "address"
        },
        {
          "indexed": false,
          "internalType": "bytes",
          "name": "lockerLockingScript",
          "type": "bytes"
        },
        {
          "indexed": false,
          "internalType": "uint256",
          "name": "TSTLockedAmount",
          "type": "uint256"
        },
        {
          "indexed": true,
          "internalType": "address",
          "name": "collateralToken",
          "type": "address"
        },
        {
          "indexed": false,
          "internalType": "uint256",
          "name": "collateralTokenLockedAmount",
          "type": "uint256"
        }
      ],
      "name": "RevokeAddLockerRequest",
      "type": "event"
    },
    {
      "anonymous": false,
      "inputs": [
        {
          "indexed": false,
          "internalType": "address",
          "name": "account",
          "type": "address"
        }
      ],
      "name": "Unpaused",
      "type": "event"
    },
    {
      "inputs": [],
      "name": "HEALTH_FACTOR",
      "outputs": [
        {
          "internalType": "uint256",
          "name": "",
          "type": "uint256"
        }
      ],
      "stateMutability": "view",
      "type": "function"
    },
    {
      "inputs": [],
      "name": "INACTIVATION_DELAY",
      "outputs": [
        {
          "internalType": "uint256",
          "name": "",
          "type": "uint256"
        }
      ],
      "stateMutability": "view",
      "type": "function"
    },
    {
      "inputs": [],
      "name": "MAX_LOCKER_FEE",
      "outputs": [
        {
          "internalType": "uint256",
          "name": "",
          "type": "uint256"
        }
      ],
      "stateMutability": "view",
      "type": "function"
    },
    {
      "inputs": [],
      "name": "NATIVE_TOKEN",
      "outputs": [
        {
          "internalType": "address",
          "name": "",
          "type": "address"
        }
      ],
      "stateMutability": "view",
      "type": "function"
    },
    {
      "inputs": [],
      "name": "NATIVE_TOKEN_DECIMAL",
      "outputs": [
        {
          "internalType": "uint256",
          "name": "",
          "type": "uint256"
        }
      ],
      "stateMutability": "view",
      "type": "function"
    },
    {
      "inputs": [],
      "name": "ONE_HUNDRED_PERCENT",
      "outputs": [
        {
          "internalType": "uint256",
          "name": "",
          "type": "uint256"
        }
      ],
      "stateMutability": "view",
      "type": "function"
    },
    {
      "inputs": [],
      "name": "TeleportSystemToken",
      "outputs": [
        {
          "internalType": "address",
          "name": "",
          "type": "address"
        }
      ],
      "stateMutability": "view",
      "type": "function"
    },
    {
      "inputs": [],
      "name": "UPPER_HEALTH_FACTOR",
      "outputs": [
        {
          "internalType": "uint256",
          "name": "",
          "type": "uint256"
        }
      ],
      "stateMutability": "view",
      "type": "function"
    },
    {
      "inputs": [
        {
          "internalType": "address",
          "name": "_account",
          "type": "address"
        }
      ],
      "name": "addBurner",
      "outputs": [],
      "stateMutability": "nonpayable",
      "type": "function"
    },
    {
      "inputs": [
        {
          "internalType": "address",
          "name": "_lockerTargetAddress",
          "type": "address"
        },
        {
          "internalType": "uint256",
          "name": "_addingCollateralTokenAmount",
          "type": "uint256"
        }
      ],
      "name": "addCollateral",
      "outputs": [
        {
          "internalType": "bool",
          "name": "",
          "type": "bool"
        }
      ],
      "stateMutability": "payable",
      "type": "function"
    },
    {
      "inputs": [
        {
          "internalType": "address",
          "name": "_token",
          "type": "address"
        },
        {
          "internalType": "uint256",
          "name": "_decimal",
          "type": "uint256"
        }
      ],
      "name": "addCollateralToken",
      "outputs": [],
      "stateMutability": "nonpayable",
      "type": "function"
    },
    {
      "inputs": [
        {
          "internalType": "address",
          "name": "_lockerTargetAddress",
          "type": "address"
        },
        {
          "internalType": "uint256",
          "name": "_lockerReliabilityFactor",
          "type": "uint256"
        }
      ],
      "name": "addLocker",
      "outputs": [
        {
          "internalType": "bool",
          "name": "",
          "type": "bool"
        }
      ],
      "stateMutability": "nonpayable",
      "type": "function"
    },
    {
      "inputs": [
        {
          "internalType": "address",
          "name": "_account",
          "type": "address"
        }
      ],
      "name": "addMinter",
      "outputs": [],
      "stateMutability": "nonpayable",
      "type": "function"
    },
    {
      "inputs": [
        {
          "internalType": "bytes",
          "name": "_lockerLockingScript",
          "type": "bytes"
        },
        {
          "internalType": "uint256",
          "name": "_amount",
          "type": "uint256"
        }
      ],
      "name": "burn",
      "outputs": [
        {
          "internalType": "uint256",
          "name": "",
          "type": "uint256"
        }
      ],
      "stateMutability": "nonpayable",
      "type": "function"
    },
    {
      "inputs": [],
      "name": "burnRouter",
      "outputs": [
        {
          "internalType": "address",
          "name": "",
          "type": "address"
        }
      ],
      "stateMutability": "view",
      "type": "function"
    },
    {
      "inputs": [
        {
          "internalType": "address",
          "name": "",
          "type": "address"
        }
      ],
      "name": "burners",
      "outputs": [
        {
          "internalType": "bool",
          "name": "",
          "type": "bool"
        }
      ],
      "stateMutability": "view",
      "type": "function"
    },
    {
      "inputs": [
        {
          "internalType": "address",
          "name": "_lockerTargetAddress",
          "type": "address"
        },
        {
          "internalType": "uint256",
          "name": "_collateralAmount",
          "type": "uint256"
        }
      ],
      "name": "buySlashedCollateralOfLocker",
      "outputs": [
        {
          "internalType": "bool",
          "name": "",
          "type": "bool"
        }
      ],
      "stateMutability": "nonpayable",
      "type": "function"
    },
    {
      "inputs": [
        {
          "internalType": "address",
          "name": "",
          "type": "address"
        }
      ],
      "name": "collateralDecimal",
      "outputs": [
        {
          "internalType": "uint256",
          "name": "",
          "type": "uint256"
        }
      ],
      "stateMutability": "view",
      "type": "function"
    },
    {
      "inputs": [],
      "name": "collateralRatio",
      "outputs": [
        {
          "internalType": "uint256",
          "name": "",
          "type": "uint256"
        }
      ],
      "stateMutability": "view",
      "type": "function"
    },
    {
      "inputs": [],
      "name": "exchangeConnector",
      "outputs": [
        {
          "internalType": "address",
          "name": "",
          "type": "address"
        }
      ],
      "stateMutability": "view",
      "type": "function"
    },
    {
      "inputs": [
        {
          "internalType": "address",
          "name": "_lockerTargetAddress",
          "type": "address"
        }
      ],
      "name": "getLockerCapacity",
      "outputs": [
        {
          "internalType": "uint256",
          "name": "theLockerCapacity",
          "type": "uint256"
        }
      ],
      "stateMutability": "view",
      "type": "function"
    },
    {
      "inputs": [
        {
          "internalType": "address",
          "name": "_lockerTargetAddress",
          "type": "address"
        }
      ],
      "name": "getLockerHealthFactor",
      "outputs": [
        {
          "internalType": "uint256",
          "name": "",
          "type": "uint256"
        }
      ],
      "stateMutability": "view",
      "type": "function"
    },
    {
      "inputs": [
        {
          "internalType": "bytes",
          "name": "",
          "type": "bytes"
        }
      ],
      "name": "getLockerTargetAddress",
      "outputs": [
        {
          "internalType": "address",
          "name": "",
          "type": "address"
        }
      ],
      "stateMutability": "view",
      "type": "function"
    },
    {
      "inputs": [
        {
          "internalType": "address",
          "name": "_teleBTC",
          "type": "address"
        },
        {
          "internalType": "address",
          "name": "_priceOracle",
          "type": "address"
        },
        {
          "internalType": "address",
          "name": "_burnRouter",
          "type": "address"
        },
        {
          "internalType": "uint256",
          "name": "_minRequiredTSTLockedAmount",
          "type": "uint256"
        },
        {
          "internalType": "uint256",
          "name": "_collateralRatio",
          "type": "uint256"
        },
        {
          "internalType": "uint256",
          "name": "_liquidationRatio",
          "type": "uint256"
        },
        {
          "internalType": "uint256",
          "name": "_lockerPercentageFee",
          "type": "uint256"
        },
        {
          "internalType": "uint256",
          "name": "_priceWithDiscountRatio",
          "type": "uint256"
        }
      ],
      "name": "initialize",
      "outputs": [],
      "stateMutability": "nonpayable",
      "type": "function"
    },
    {
      "inputs": [
        {
          "internalType": "bytes",
          "name": "_lockerLockingScript",
          "type": "bytes"
        }
      ],
      "name": "isLocker",
      "outputs": [
        {
          "internalType": "bool",
          "name": "",
          "type": "bool"
        }
      ],
      "stateMutability": "view",
      "type": "function"
    },
    {
      "inputs": [
        {
          "internalType": "address",
          "name": "_lockerTargetAddress",
          "type": "address"
        }
      ],
      "name": "isLockerActive",
      "outputs": [
        {
          "internalType": "bool",
          "name": "",
          "type": "bool"
        }
      ],
      "stateMutability": "view",
      "type": "function"
    },
    {
      "inputs": [],
      "name": "libConstants",
      "outputs": [
        {
          "internalType": "uint256",
          "name": "OneHundredPercent",
          "type": "uint256"
        },
        {
          "internalType": "uint256",
          "name": "HealthFactor",
          "type": "uint256"
        },
        {
          "internalType": "uint256",
          "name": "UpperHealthFactor",
          "type": "uint256"
        },
        {
          "internalType": "uint256",
          "name": "MaxLockerFee",
          "type": "uint256"
        },
        {
          "internalType": "uint256",
          "name": "NativeTokenDecimal",
          "type": "uint256"
        },
        {
          "internalType": "address",
          "name": "NativeToken",
          "type": "address"
        }
      ],
      "stateMutability": "view",
      "type": "function"
    },
    {
      "inputs": [],
      "name": "libParams",
      "outputs": [
        {
          "internalType": "address",
          "name": "TeleportSystemToken",
          "type": "address"
        },
        {
          "internalType": "address",
          "name": "teleBTC",
          "type": "address"
        },
        {
          "internalType": "address",
          "name": "burnRouter",
          "type": "address"
        },
        {
          "internalType": "address",
          "name": "exchangeConnector",
          "type": "address"
        },
        {
          "internalType": "address",
          "name": "priceOracle",
          "type": "address"
        },
        {
          "internalType": "uint256",
          "name": "minRequiredTSTLockedAmount",
          "type": "uint256"
        },
        {
          "internalType": "uint256",
          "name": "minRequiredTNTLockedAmount",
          "type": "uint256"
        },
        {
          "internalType": "uint256",
          "name": "lockerPercentageFee",
          "type": "uint256"
        },
        {
          "internalType": "uint256",
          "name": "collateralRatio",
          "type": "uint256"
        },
        {
          "internalType": "uint256",
          "name": "liquidationRatio",
          "type": "uint256"
        },
        {
          "internalType": "uint256",
          "name": "priceWithDiscountRatio",
          "type": "uint256"
        },
        {
          "internalType": "uint256",
          "name": "inactivationDelay",
          "type": "uint256"
        }
      ],
      "stateMutability": "view",
      "type": "function"
    },
    {
      "inputs": [
        {
          "internalType": "address",
          "name": "_lockerTargetAddress",
          "type": "address"
        },
        {
          "internalType": "uint256",
          "name": "_collateralAmount",
          "type": "uint256"
        }
      ],
      "name": "liquidateLocker",
      "outputs": [
        {
          "internalType": "bool",
          "name": "",
          "type": "bool"
        }
      ],
      "stateMutability": "nonpayable",
      "type": "function"
    },
    {
      "inputs": [],
      "name": "liquidationRatio",
      "outputs": [
        {
          "internalType": "uint256",
          "name": "",
          "type": "uint256"
        }
      ],
      "stateMutability": "view",
      "type": "function"
    },
    {
      "inputs": [
        {
          "internalType": "address",
          "name": "",
          "type": "address"
        }
      ],
      "name": "lockerCollateralToken",
      "outputs": [
        {
          "internalType": "address",
          "name": "",
          "type": "address"
        }
      ],
      "stateMutability": "view",
      "type": "function"
    },
    {
      "inputs": [
        {
          "internalType": "address",
          "name": "",
          "type": "address"
        }
      ],
      "name": "lockerInactivationTimestamp",
      "outputs": [
        {
          "internalType": "uint256",
          "name": "",
          "type": "uint256"
        }
      ],
      "stateMutability": "view",
      "type": "function"
    },
    {
      "inputs": [
        {
          "internalType": "address",
          "name": "",
          "type": "address"
        }
      ],
      "name": "lockerLeavingAcceptance",
      "outputs": [
        {
          "internalType": "bool",
          "name": "",
          "type": "bool"
        }
      ],
      "stateMutability": "view",
      "type": "function"
    },
    {
      "inputs": [],
      "name": "lockerPercentageFee",
      "outputs": [
        {
          "internalType": "uint256",
          "name": "",
          "type": "uint256"
        }
      ],
      "stateMutability": "view",
      "type": "function"
    },
    {
      "inputs": [
        {
          "internalType": "address",
          "name": "",
          "type": "address"
        }
      ],
      "name": "lockerReliabilityFactor",
      "outputs": [
        {
          "internalType": "uint256",
          "name": "",
          "type": "uint256"
        }
      ],
      "stateMutability": "view",
      "type": "function"
    },
    {
      "inputs": [
        {
          "internalType": "address",
          "name": "",
          "type": "address"
        }
      ],
      "name": "lockersMapping",
      "outputs": [
        {
          "internalType": "bytes",
          "name": "lockerLockingScript",
          "type": "bytes"
        },
        {
          "internalType": "enum ScriptTypes",
          "name": "lockerRescueType",
          "type": "uint8"
        },
        {
          "internalType": "bytes",
          "name": "lockerRescueScript",
          "type": "bytes"
        },
        {
          "internalType": "uint256",
          "name": "TSTLockedAmount",
          "type": "uint256"
        },
        {
          "internalType": "uint256",
          "name": "collateralTokenLockedAmount",
          "type": "uint256"
        },
        {
          "internalType": "uint256",
          "name": "netMinted",
          "type": "uint256"
        },
        {
          "internalType": "uint256",
          "name": "slashingTeleBTCAmount",
          "type": "uint256"
        },
        {
          "internalType": "uint256",
          "name": "reservedCollateralTokenForSlash",
          "type": "uint256"
        },
        {
          "internalType": "bool",
          "name": "isLocker",
          "type": "bool"
        },
        {
          "internalType": "bool",
          "name": "isCandidate",
          "type": "bool"
        },
        {
          "internalType": "bool",
          "name": "isScriptHash",
          "type": "bool"
        }
      ],
      "stateMutability": "view",
      "type": "function"
    },
    {
      "inputs": [],
      "name": "minRequiredTNTLockedAmount",
      "outputs": [
        {
          "internalType": "uint256",
          "name": "",
          "type": "uint256"
        }
      ],
      "stateMutability": "view",
      "type": "function"
    },
    {
      "inputs": [],
      "name": "minRequiredTSTLockedAmount",
      "outputs": [
        {
          "internalType": "uint256",
          "name": "",
          "type": "uint256"
        }
      ],
      "stateMutability": "view",
      "type": "function"
    },
    {
      "inputs": [
        {
          "internalType": "bytes",
          "name": "_lockerLockingScript",
          "type": "bytes"
        },
        {
          "internalType": "address",
          "name": "_receiver",
          "type": "address"
        },
        {
          "internalType": "uint256",
          "name": "_amount",
          "type": "uint256"
        }
      ],
      "name": "mint",
      "outputs": [
        {
          "internalType": "uint256",
          "name": "",
          "type": "uint256"
        }
      ],
      "stateMutability": "nonpayable",
      "type": "function"
    },
    {
      "inputs": [
        {
          "internalType": "address",
          "name": "",
          "type": "address"
        }
      ],
      "name": "minters",
      "outputs": [
        {
          "internalType": "bool",
          "name": "",
          "type": "bool"
        }
      ],
      "stateMutability": "view",
      "type": "function"
    },
    {
      "inputs": [],
      "name": "owner",
      "outputs": [
        {
          "internalType": "address",
          "name": "",
          "type": "address"
        }
      ],
      "stateMutability": "view",
      "type": "function"
    },
    {
      "inputs": [],
      "name": "pauseLocker",
      "outputs": [],
      "stateMutability": "nonpayable",
      "type": "function"
    },
    {
      "inputs": [],
      "name": "paused",
      "outputs": [
        {
          "internalType": "bool",
          "name": "",
          "type": "bool"
        }
      ],
      "stateMutability": "view",
      "type": "function"
    },
    {
      "inputs": [
        {
          "internalType": "address",
          "name": "_collateralToken",
          "type": "address"
        },
        {
          "internalType": "uint256",
          "name": "_collateralDecimal",
          "type": "uint256"
        }
      ],
      "name": "priceOfOneUnitOfCollateralInBTC",
      "outputs": [
        {
          "internalType": "uint256",
          "name": "",
          "type": "uint256"
        }
      ],
      "stateMutability": "view",
      "type": "function"
    },
    {
      "inputs": [],
      "name": "priceOracle",
      "outputs": [
        {
          "internalType": "address",
          "name": "",
          "type": "address"
        }
      ],
      "stateMutability": "view",
      "type": "function"
    },
    {
      "inputs": [],
      "name": "priceWithDiscountRatio",
      "outputs": [
        {
          "internalType": "uint256",
          "name": "",
          "type": "uint256"
        }
      ],
      "stateMutability": "view",
      "type": "function"
    },
    {
      "inputs": [
        {
          "internalType": "address",
          "name": "_account",
          "type": "address"
        }
      ],
      "name": "removeBurner",
      "outputs": [],
      "stateMutability": "nonpayable",
      "type": "function"
    },
    {
      "inputs": [
        {
          "internalType": "uint256",
          "name": "_removingCollateralTokenAmount",
          "type": "uint256"
        }
      ],
      "name": "removeCollateral",
      "outputs": [
        {
          "internalType": "bool",
          "name": "",
          "type": "bool"
        }
      ],
      "stateMutability": "payable",
      "type": "function"
    },
    {
      "inputs": [
        {
          "internalType": "address",
          "name": "_lockerTargetAddress",
          "type": "address"
        }
      ],
      "name": "removeLockerByOwner",
      "outputs": [
        {
          "internalType": "bool",
          "name": "",
          "type": "bool"
        }
      ],
      "stateMutability": "nonpayable",
      "type": "function"
    },
    {
      "inputs": [
        {
          "internalType": "address",
          "name": "_account",
          "type": "address"
        }
      ],
      "name": "removeMinter",
      "outputs": [],
      "stateMutability": "nonpayable",
      "type": "function"
    },
    {
      "inputs": [],
      "name": "renounceOwnership",
      "outputs": [],
      "stateMutability": "nonpayable",
      "type": "function"
    },
    {
      "inputs": [],
      "name": "requestActivation",
      "outputs": [
        {
          "internalType": "bool",
          "name": "",
          "type": "bool"
        }
      ],
      "stateMutability": "nonpayable",
      "type": "function"
    },
    {
      "inputs": [],
      "name": "requestInactivation",
      "outputs": [
        {
          "internalType": "bool",
          "name": "",
          "type": "bool"
        }
      ],
      "stateMutability": "nonpayable",
      "type": "function"
    },
    {
      "inputs": [
        {
          "internalType": "bytes",
          "name": "_candidateLockingScript",
          "type": "bytes"
        },
        {
          "internalType": "address",
          "name": "_collateralToken",
          "type": "address"
        },
        {
          "internalType": "uint256",
          "name": "_lockedTSTAmount",
          "type": "uint256"
        },
        {
          "internalType": "uint256",
          "name": "_lockedCollateralTokenAmount",
          "type": "uint256"
        },
        {
          "internalType": "enum ScriptTypes",
          "name": "_lockerRescueType",
          "type": "uint8"
        },
        {
          "internalType": "bytes",
          "name": "_lockerRescueScript",
          "type": "bytes"
        }
      ],
      "name": "requestToBecomeLocker",
      "outputs": [
        {
          "internalType": "bool",
          "name": "",
          "type": "bool"
        }
      ],
      "stateMutability": "payable",
      "type": "function"
    },
    {
      "inputs": [],
      "name": "revokeRequest",
      "outputs": [
        {
          "internalType": "bool",
          "name": "",
          "type": "bool"
        }
      ],
      "stateMutability": "nonpayable",
      "type": "function"
    },
    {
      "inputs": [],
      "name": "selfRemoveLocker",
      "outputs": [
        {
          "internalType": "bool",
          "name": "",
          "type": "bool"
        }
      ],
      "stateMutability": "nonpayable",
      "type": "function"
    },
    {
      "inputs": [
        {
          "internalType": "address",
          "name": "_burnRouter",
          "type": "address"
        }
      ],
      "name": "setBurnRouter",
      "outputs": [],
      "stateMutability": "nonpayable",
      "type": "function"
    },
    {
      "inputs": [
        {
          "internalType": "uint256",
          "name": "_collateralRatio",
          "type": "uint256"
        }
      ],
      "name": "setCollateralRatio",
      "outputs": [],
      "stateMutability": "nonpayable",
      "type": "function"
    },
    {
      "inputs": [
        {
          "internalType": "uint256",
          "name": "_liquidationRatio",
          "type": "uint256"
        }
      ],
      "name": "setLiquidationRatio",
      "outputs": [],
      "stateMutability": "nonpayable",
      "type": "function"
    },
    {
      "inputs": [
        {
          "internalType": "address",
          "name": "lockerTargetAddress",
          "type": "address"
        },
        {
          "internalType": "address",
          "name": "collateralToken",
          "type": "address"
        }
      ],
      "name": "setLockerCollateralToken",
      "outputs": [],
      "stateMutability": "nonpayable",
      "type": "function"
    },
    {
      "inputs": [
        {
          "internalType": "uint256",
          "name": "_lockerPercentageFee",
          "type": "uint256"
        }
      ],
      "name": "setLockerPercentageFee",
      "outputs": [],
      "stateMutability": "nonpayable",
      "type": "function"
    },
    {
      "inputs": [
        {
          "internalType": "address",
          "name": "lockerTargetAddress",
          "type": "address"
        },
        {
          "internalType": "uint256",
          "name": "reliabilityFactor",
          "type": "uint256"
        }
      ],
      "name": "setLockerReliabilityFactor",
      "outputs": [],
      "stateMutability": "nonpayable",
      "type": "function"
    },
    {
      "inputs": [
        {
          "internalType": "uint256",
          "name": "_minRequiredTSTLockedAmount",
          "type": "uint256"
        }
      ],
      "name": "setMinRequiredTSTLockedAmount",
      "outputs": [],
      "stateMutability": "nonpayable",
      "type": "function"
    },
    {
      "inputs": [
        {
          "internalType": "address",
          "name": "_priceOracle",
          "type": "address"
        }
      ],
      "name": "setPriceOracle",
      "outputs": [],
      "stateMutability": "nonpayable",
      "type": "function"
    },
    {
      "inputs": [
        {
          "internalType": "uint256",
          "name": "_priceWithDiscountRatio",
          "type": "uint256"
        }
      ],
      "name": "setPriceWithDiscountRatio",
      "outputs": [],
      "stateMutability": "nonpayable",
      "type": "function"
    },
    {
      "inputs": [
        {
          "internalType": "address",
          "name": "_TST",
          "type": "address"
        }
      ],
      "name": "setTST",
      "outputs": [],
      "stateMutability": "nonpayable",
      "type": "function"
    },
    {
      "inputs": [
        {
          "internalType": "address",
          "name": "_teleBTC",
          "type": "address"
        }
      ],
      "name": "setTeleBTC",
      "outputs": [],
      "stateMutability": "nonpayable",
      "type": "function"
    },
    {
      "inputs": [
        {
          "internalType": "address",
          "name": "_lockerTargetAddress",
          "type": "address"
        },
        {
          "internalType": "uint256",
          "name": "_rewardAmount",
          "type": "uint256"
        },
        {
          "internalType": "address",
          "name": "_slasher",
          "type": "address"
        },
        {
          "internalType": "uint256",
          "name": "_amount",
          "type": "uint256"
        },
        {
          "internalType": "address",
          "name": "_recipient",
          "type": "address"
        }
      ],
      "name": "slashIdleLocker",
      "outputs": [
        {
          "internalType": "bool",
          "name": "",
          "type": "bool"
        }
      ],
      "stateMutability": "nonpayable",
      "type": "function"
    },
    {
      "inputs": [
        {
          "internalType": "address",
          "name": "_lockerTargetAddress",
          "type": "address"
        },
        {
          "internalType": "uint256",
          "name": "_rewardAmount",
          "type": "uint256"
        },
        {
          "internalType": "address",
          "name": "_slasher",
          "type": "address"
        },
        {
          "internalType": "uint256",
          "name": "_amount",
          "type": "uint256"
        }
      ],
      "name": "slashThiefLocker",
      "outputs": [
        {
          "internalType": "bool",
          "name": "",
          "type": "bool"
        }
      ],
      "stateMutability": "nonpayable",
      "type": "function"
    },
    {
      "inputs": [],
      "name": "teleBTC",
      "outputs": [
        {
          "internalType": "address",
          "name": "",
          "type": "address"
        }
      ],
      "stateMutability": "view",
      "type": "function"
    },
    {
      "inputs": [],
      "name": "totalNumberOfCandidates",
      "outputs": [
        {
          "internalType": "uint256",
          "name": "",
          "type": "uint256"
        }
      ],
      "stateMutability": "view",
      "type": "function"
    },
    {
      "inputs": [],
      "name": "totalNumberOfLockers",
      "outputs": [
        {
          "internalType": "uint256",
          "name": "",
          "type": "uint256"
        }
      ],
      "stateMutability": "view",
      "type": "function"
    },
    {
      "inputs": [
        {
          "internalType": "address",
          "name": "newOwner",
          "type": "address"
        }
      ],
      "name": "transferOwnership",
      "outputs": [],
      "stateMutability": "nonpayable",
      "type": "function"
    },
    {
      "inputs": [],
      "name": "unPauseLocker",
      "outputs": [],
      "stateMutability": "nonpayable",
      "type": "function"
    }
  ],
  "transactionHash": "0x58ca8ce717cf004123be61e42ee97ee5eedf90f4c05a78caa6776eccbc36ca3e",
  "args": [],
  "numDeployments": 1,
  "solcInputHash": "51e815d0f859adaa5bd2294ba67e1f5d",
  "bytecode": "0x608060405234801561001057600080fd5b50615f7c80620000216000396000f3fe6080604052600436106103415760003560e01c8063028468581461034657806303d41e0e1461036857806306e2415d146103ad5780630c42cbc9146103cd5780631697565b146103f05780631775765f146104105780631dc4b09c146104265780631fcfe19c146104465780632630c12f14610466578063287983ab146104935780632f5b04ac146104b35780633092afd5146104ca57806331f7d964146104ea5780633237c158146104ff5780633794dc9b1461051257806338463cff1461053f5780633fb99c201461055f57806343b9370714610595578063530e784f146105b557806354509b97146105d557806359bb9189146105eb5780635c975abb146106005780635f73871e146106185780636060663e146106385780636136c21f14610658578063613e2e1e146106855780636369f8df1461069a57806363908020146106ad5780636600203d146106c35780636a030fc3146106e35780636c32b2ec146107035780636d32395c146107235780636d75b9ee14610739578063709e147a1461074c578063715018a61461076c5780637597922d14610781578063768ebb12146105d55780637da5f0da146107ae5780637f0f1817146107de57806383a9954f146107fe57806388aa0a521461081e5780638d3d78cd146108345780638da5cb5b146108545780638fe85fe714610869578063946ce8cd1461088957806396ec39e8146108a9578063983b2d56146108c9578063a7cc34b5146108e9578063af1ea795146108ff578063aff2faa314610936578063b291ec1314610956578063b43022581461096c578063b4eae1cb14610981578063b52cd3ec14610997578063b734de26146109b7578063bc805d1d146109d7578063bd60e794146109ed578063c0924b8014610ab2578063c4d10b6a14610ad2578063cdcbc87914610b13578063d14948f814610b7d578063d5a38a9114610b9d578063dd0081c7146105d5578063df8fa43014610bbd578063e85501d814610bdd578063e955de4514610bf2578063ed110a9c14610c07578063f2fde38b14610c1d578063f3e27c4f14610c3d578063f44637ba14610c5d578063f46eccc414610c7d578063f73e3a9514610cad578063fe89f32a14610ccd578063ffc9f70414610ced575b600080fd5b34801561035257600080fd5b50610366610361366004614ee6565b610d02565b005b34801561037457600080fd5b50610398610383366004614ee6565b60126020526000908152604090205460ff1681565b60405190151581526020015b60405180910390f35b3480156103b957600080fd5b506103666103c8366004614f00565b610d53565b3480156103d957600080fd5b506103e2601281565b6040519081526020016103a4565b3480156103fc57600080fd5b5061039861040b36600461500e565b610d89565b34801561041c57600080fd5b506103e260095481565b34801561043257600080fd5b50610366610441366004614ee6565b611049565b34801561045257600080fd5b506103e26104613660046150c3565b61110c565b34801561047257600080fd5b50600454610486906001600160a01b031681565b6040516103a49190615626565b34801561049f57600080fd5b506103986104ae366004614ee6565b611422565b3480156104bf57600080fd5b506103e26205460081565b3480156104d657600080fd5b506103666104e5366004614ee6565b61192b565b3480156104f657600080fd5b50610486600181565b61039861050d3660046152b8565b6119b5565b34801561051e57600080fd5b506103e261052d366004614ee6565b60ee6020526000908152604090205481565b34801561054b57600080fd5b506103e261055a3660046151c6565b611bdf565b34801561056b57600080fd5b5061048661057a366004614ee6565b60ef602052600090815260409020546001600160a01b031681565b3480156105a157600080fd5b506103986105b0366004614fa2565b611f15565b3480156105c157600080fd5b506103666105d0366004614ee6565b61224c565b3480156105e157600080fd5b506103e261271081565b3480156105f757600080fd5b506103986122f0565b34801561060c57600080fd5b5060bc5460ff16610398565b34801561062457600080fd5b50610366610633366004614fa2565b612421565b34801561064457600080fd5b506103666106533660046152b8565b6124bd565b34801561066457600080fd5b506103e2610673366004614ee6565b600e6020526000908152604090205481565b34801561069157600080fd5b5061036661252c565b6103986106a836600461511c565b61253e565b3480156106b957600080fd5b506103e260075481565b3480156106cf57600080fd5b506103666106de3660046152b8565b6129c3565b3480156106ef57600080fd5b506103986106fe366004614ee6565b612a33565b34801561070f57600080fd5b50600254610486906001600160a01b031681565b34801561072f57600080fd5b506103e260065481565b610398610747366004614fa2565b612a88565b34801561075857600080fd5b50610398610767366004614fa2565b612bec565b34801561077857600080fd5b50610366612daa565b34801561078d57600080fd5b506103e261079c366004614ee6565b60f06020526000908152604090205481565b3480156107ba57600080fd5b506103986107c9366004614ee6565b600f6020526000908152604090205460ff1681565b3480156107ea57600080fd5b506103666107f9366004614ee6565b612db2565b34801561080a57600080fd5b506103e2610819366004614ee6565b612e56565b34801561082a57600080fd5b506103e2600b5481565b34801561084057600080fd5b50600154610486906001600160a01b031681565b34801561086057600080fd5b50610486612f27565b34801561087557600080fd5b506103666108843660046152b8565b612f36565b34801561089557600080fd5b506103666108a43660046152b8565b612fa6565b3480156108b557600080fd5b506103986108c4366004614fa2565b613015565b3480156108d557600080fd5b506103666108e4366004614ee6565b6135db565b3480156108f557600080fd5b506103e260055481565b34801561090b57600080fd5b5061091f61091a366004614ee6565b613692565b6040516103a49b9a9998979695949392919061572a565b34801561094257600080fd5b50610398610951366004615084565b61380a565b34801561096257600080fd5b506103e2600a5481565b34801561097857600080fd5b50610398613858565b34801561098d57600080fd5b506103e260085481565b3480156109a357600080fd5b50600054610486906001600160a01b031681565b3480156109c357600080fd5b506103986109d2366004614fcb565b61391e565b3480156109e357600080fd5b506103e26130d481565b3480156109f957600080fd5b50601954601a54601b54601c54601d54601e54601f54602054602154602254602354602454610a429b6001600160a01b039081169b81169a81169981169816969594939291908c565b604080516001600160a01b039d8e1681529b8d1660208d0152998c16998b0199909952968a1660608a015298909416608088015260a087019290925260c086015260e0850152610100840152610120830193909352610140820192909252610160810191909152610180016103a4565b348015610abe57600080fd5b50600354610486906001600160a01b031681565b348015610ade57600080fd5b50610486610aed36600461520f565b80516020818301810180516010825292820191909301209152546001600160a01b031681565b348015610b1f57600080fd5b50601354601454601554601654601754601854610b479594939291906001600160a01b031686565b60408051968752602087019590955293850192909252606084015260808301526001600160a01b031660a082015260c0016103a4565b348015610b8957600080fd5b506103e2610b98366004614fa2565b613bb5565b348015610ba957600080fd5b506103e2610bb8366004614ee6565b613c44565b348015610bc957600080fd5b50610366610bd8366004614f32565b613cc6565b348015610be957600080fd5b50610398613e65565b348015610bfe57600080fd5b5061036661429d565b348015610c1357600080fd5b506103e2600c5481565b348015610c2957600080fd5b50610366610c38366004614ee6565b6142ad565b348015610c4957600080fd5b50610366610c58366004614fa2565b614326565b348015610c6957600080fd5b50610366610c78366004614ee6565b6143b0565b348015610c8957600080fd5b50610398610c98366004614ee6565b60116020526000908152604090205460ff1681565b348015610cb957600080fd5b50610366610cc8366004614ee6565b614467565b348015610cd957600080fd5b50610366610ce83660046152b8565b6144e2565b348015610cf957600080fd5b5061039861452f565b610d0a614539565b6001600160a01b038116600081815260126020526040808220805460ff19169055517f90eabbc0c667db2a5029ed6bc0f5fe9f356d11684a4ca9fcfaec0e53f12b9c8e9190a250565b610d5b614539565b6001600160a01b03918216600090815260ef6020526040902080546001600160a01b03191691909216179055565b6000610d93614598565b610d9b6145f2565b6001600160a01b038087166000908152600d6020908152604080832060ef83528184205490941680845260ee909252808320549051631bcc6d6960e31b81529293849373754DC006F4a748f80CcaF27C0efBfF412e54160D9363de636b4893610e0e93926019908e908d906004016159de565b604080518083038186803b158015610e2557600080fd5b505af4158015610e39573d6000803e3d6000fd5b505050506040513d601f19601f82011682018060405250810190610e5d91906152e8565b6001600160a01b038a8116600090815260ef60205260409020549294509092501660011415610ea857610e9984610e948385615e76565b614638565b610ea38682614638565b610fd8565b6001600160a01b03808916600090815260ef60205260409020541663a9059cbb85610ed38486615e76565b6040518363ffffffff1660e01b8152600401610ef0929190615678565b602060405180830381600087803b158015610f0a57600080fd5b505af1158015610f1e573d6000803e3d6000fd5b505050506040513d601f19601f82011682018060405250810190610f429190615064565b506001600160a01b03808916600090815260ef60205260409081902054905163a9059cbb60e01b815291169063a9059cbb90610f849089908590600401615678565b602060405180830381600087803b158015610f9e57600080fd5b505af1158015610fb2573d6000803e3d6000fd5b505050506040513d601f19601f82011682018060405250810190610fd69190615064565b505b6001600160a01b03888116600081815260ef602052604090819020549051838816938a81169392600080516020615f278339815191529261102892919091169087908c908a9042906001906156b6565b60405180910390a46001925050506110406001608a55565b95945050505050565b806001600160a01b0381166110715760405163d92e233d60e01b815260040160405180910390fd5b611079614539565b6002546040517f51ea9f7356591c4833bcb294538a4db90cfa61b532eac2411e70ebfdff9f1bf1916110b8916001600160a01b0390911690859061563a565b60405180910390a16002546110d5906001600160a01b0316610d02565b600280546001600160a01b0384166001600160a01b03199182168117909255601b805490911682179055611108906143b0565b5050565b6000826001600160a01b0381166111365760405163d92e233d60e01b815260040160405180910390fd5b61113e614598565b6111466145f2565b3360009081526011602052604090205460ff1661117657604051633e34a41b60e21b815260040160405180910390fd5b60006010878760405161118a92919061558b565b908152604051908190036020019020546001600160a01b031690506111ae81612a33565b6111cb576040516380bcdf5160e01b815260040160405180910390fd5b6001600160a01b038082166000818152600d6020908152604080832060ef83528184205490951680845260ee83528184205494845260f090925291829020549151631ec627b360e01b815273754DC006F4a748f80CcaF27C0efBfF412e54160D94631ec627b39461124b9491936013936019938a93918e90600401615b38565b60006040518083038186803b15801561126357600080fd5b505af4158015611277573d6000803e3d6000fd5b5050505060006127106007548661128e9190615e57565b6112989190615d4c565b90508015611326576001546040516340c10f1960e01b81526001600160a01b03909116906340c10f19906112d29085908590600401615678565b602060405180830381600087803b1580156112ec57600080fd5b505af1158015611300573d6000803e3d6000fd5b505050506040513d601f19601f820116820180604052508101906113249190615064565b505b6001546001600160a01b03166340c10f19876113428489615e76565b6040518363ffffffff1660e01b815260040161135f929190615678565b602060405180830381600087803b15801561137957600080fd5b505af115801561138d573d6000803e3d6000fd5b505050506040513d601f19601f820116820180604052508101906113b19190615064565b50856001600160a01b0316826001600160a01b03167f8ad706b338c5d2a20b0d038b5cfdaf2b2f943f43048723bde0dccdf129598a118784426040516113f993929190615d1e565b60405180910390a361140b8186615e76565b935050506114196001608a55565b50949350505050565b600061142c614539565b611434614598565b6001600160a01b0382166000908152600d60205260408082208151610160810190925280548290829061146690615ec5565b80601f016020809104026020016040519081016040528092919081815260200182805461149290615ec5565b80156114df5780601f106114b4576101008083540402835291602001916114df565b820191906000526020600020905b8154815290600101906020018083116114c257829003601f168201915b5050509183525050600182015460209091019060ff16600581111561151457634e487b7160e01b600052602160045260246000fd5b600581111561153357634e487b7160e01b600052602160045260246000fd5b815260200160028201805461154790615ec5565b80601f016020809104026020016040519081016040528092919081815260200182805461157390615ec5565b80156115c05780601f10611595576101008083540402835291602001916115c0565b820191906000526020600020905b8154815290600101906020018083116115a357829003601f168201915b505050918352505060038201546020820152600482015460408201526005820154606082015260068201546080820152600782015460a082015260089091015460ff808216151560c08401526101008083048216151560e085015262010000909204161515918101919091528101519091506116575760405162461bcd60e51b815260040161164e90615967565b60405180910390fd5b60a0810151156117765760015460a08201516040516323b872dd60e01b81526001600160a01b03909216916323b872dd916116989133913091600401615654565b602060405180830381600087803b1580156116b257600080fd5b505af11580156116c6573d6000803e3d6000fd5b505050506040513d601f19601f820116820180604052508101906116ea9190615064565b5060015460a0820151604051630852cd8d60e31b81526001600160a01b03909216916342966c68916117229160040190815260200190565b602060405180830381600087803b15801561173c57600080fd5b505af1158015611750573d6000803e3d6000fd5b505050506040513d601f19601f820116820180604052508101906117749190615064565b505b60c0810151156117c35760405162461bcd60e51b81526020600482015260186024820152774c6f636b6572733a203020736c617368696e67205442544360401b604482015260640161164e565b6001600160a01b0383166000908152600d60205260409081902090516010916117eb916155b7565b908152604080516020928190038301902080546001600160a01b03191690556001600160a01b0385166000908152600d90925281209061182b8282614e3b565b60018201805460ff19169055611845600283016000614e3b565b506000600382018190556004820181905560058201819055600682018190556007820155600801805462ffffff19169055600c5461188590600190615e76565b600c5560608101516000546118a7916001600160a01b0390911690859061475a565b6118b5838260800151614638565b6001600160a01b03808416600081815260ef60205260409081902054845160608601516080870151935192909516947f89e0136053e5fb3b6e55cac61cebd11e85b3cbc19a56d52fa34e152a94286f279361190f936157a9565b60405180910390a360019150506119266001608a55565b919050565b611933614539565b6001600160a01b03811660009081526011602052604090205460ff1661196c57604051633e34a41b60e21b815260040160405180910390fd5b6001600160a01b038116600081815260116020526040808220805460ff19169055517fe94479a9f7e1952cc78f2d6baab678adc1b772d936c6583def489e524cb666929190a250565b600081806119d657604051637c946ed760e01b815260040160405180910390fd5b6119de614598565b336000818152600d60209081526040808320815160c08082018452601354825260145482860152601554828501526016546060808401919091526017546080808501919091526018546001600160a01b0390811660a08087019190915287516101808101895260195483168152601a548316818b0152601b548316818a0152601c54831694810194909452601d54821692840192909252601e5491830191909152601f5492820192909252855460e082015260215461010082015260225461012082015260235461014082015260245461016082015296865260f085528386205460ef86528487205490911680875260ee9095529290942054611ae89591949391929190896147b0565b611af133612a33565b15611b0f57604051631fefc40d60e01b815260040160405180910390fd5b33600090815260ef60205260409020546001600160a01b031660011415611b3f57611b3a3384614638565b611b65565b33600081815260ef6020526040902054611b65916001600160a01b03909116908561475a565b33600081815260ef6020908152604080832054600d909252918290206004015491516001600160a01b0390911692917ff38dac2f851b07d9c651f6721a0ab772c2dcdb3b7af3f8a38b013a5a6551837b91611bc39188914290615d1e565b60405180910390a360019150611bd96001608a55565b50919050565b6000611be9614598565b611bf16145f2565b3360009081526012602052604090205460ff16611c215760405163f019b1af60e01b815260040160405180910390fd5b600060108585604051611c3592919061558b565b908152604051908190036020019020546001546001600160a01b039182169250166323b872dd611c623390565b30866040518463ffffffff1660e01b8152600401611c8293929190615654565b602060405180830381600087803b158015611c9c57600080fd5b505af1158015611cb0573d6000803e3d6000fd5b505050506040513d601f19601f82011682018060405250810190611cd49190615064565b611cf1576040516312171d8360e31b815260040160405180910390fd5b600061271060075485611d049190615e57565b611d0e9190615d4c565b90506000611d1c8286615e76565b6001600160a01b0384166000908152600d602052604090206005015490915081811015611d5c5760405163356680b760e01b815260040160405180910390fd5b611d668282615e76565b6001600160a01b038581166000908152600d602052604090819020600501929092556001549151630852cd8d60e31b8152600481018590529116906342966c6890602401602060405180830381600087803b158015611dc457600080fd5b505af1158015611dd8573d6000803e3d6000fd5b505050506040513d601f19601f82011682018060405250810190611dfc9190615064565b611e1957604051631bc5aabf60e21b815260040160405180910390fd5b60015460405163a9059cbb60e01b81526001600160a01b039091169063a9059cbb90611e4b9087908790600401615678565b602060405180830381600087803b158015611e6557600080fd5b505af1158015611e79573d6000803e3d6000fd5b505050506040513d601f19601f82011682018060405250810190611e9d9190615064565b611eba576040516312171d8360e31b815260040160405180910390fd5b836001600160a01b03167f66fb54322c407b04a077a306e72cdd780f0f374ba5dac9f6901a56a6255bc34a878542604051611ef793929190615d1e565b60405180910390a25092505050611f0e6001608a55565b9392505050565b60008180611f3657604051637c946ed760e01b815260040160405180910390fd5b611f3e614598565b611f466145f2565b6001600160a01b0384166000908152600d602052604080822090516201412760e01b815273754DC006F4a748f80CcaF27C0efBfF412e54160D916201412791611f9491908890600401615c34565b60206040518083038186803b158015611fac57600080fd5b505af4158015611fc0573d6000803e3d6000fd5b505050506040513d601f19601f82011682018060405250810190611fe491906152d0565b6001546040516323b872dd60e01b81529192506001600160a01b0316906323b872dd9061201990339030908690600401615654565b602060405180830381600087803b15801561203357600080fd5b505af1158015612047573d6000803e3d6000fd5b505050506040513d601f19601f8201168201806040525081019061206b9190615064565b612088576040516312171d8360e31b815260040160405180910390fd5b600154604051630852cd8d60e31b8152600481018390526001600160a01b03909116906342966c6890602401602060405180830381600087803b1580156120ce57600080fd5b505af11580156120e2573d6000803e3d6000fd5b505050506040513d601f19601f820116820180604052508101906121069190615064565b506001600160a01b03858116600090815260ef60205260409020541660011415612139576121343385614638565b6121cc565b6001600160a01b03858116600090815260ef60205260409020541663a9059cbb33866040518363ffffffff1660e01b8152600401612178929190615678565b602060405180830381600087803b15801561219257600080fd5b505af11580156121a6573d6000803e3d6000fd5b505050506040513d601f19601f820116820180604052508101906121ca9190615064565b505b6001600160a01b03858116600090815260ef602052604090205416336001600160a01b0316866001600160a01b03167f65f9ab20b9a3f1f824f2a5c4d1c1a8bcebf301234b63767c9cc70b01f81668c887854260405161222e93929190615d1e565b60405180910390a460019250506122456001608a55565b5092915050565b806001600160a01b0381166122745760405163d92e233d60e01b815260040160405180910390fd5b61227c614539565b6004546040517fd52b2b9b7e9ee655fcb95d2e5b9e0c9f69e7ef2b8e9d2d0ea78402d576d22e22916122bb916001600160a01b0390911690859061563a565b60405180910390a150600480546001600160a01b039092166001600160a01b03199283168117909155601d8054909216179055565b60006122fa614598565b336000908152600d602052604090206008015460ff1661232d57604051631c12f2e960e01b815260040160405180910390fd5b336000908152600e6020526040902054156123875760405162461bcd60e51b815260206004820152601a602482015279131bd8dad95c9cce88185b1c9958591e481c995c5d595cdd195960321b604482015260640161164e565b6123946205460042615d34565b336000818152600e60209081526040808320859055600d808352818420600381015460ef85529483902054919093526004830154600584015492517f8182b13ac61f04ab77079b11ee12f4baaf75bf72023d25249903ed23a89e975595612408959490936001600160a01b031692916157ce565b60405180910390a35060015b61241e6001608a55565b90565b808061244057604051637c946ed760e01b815260040160405180910390fd5b612448614539565b6001600160a01b038316600081815260f060209081526040918290205482519384529083015281018390527f361ade43c0f49aaa908c4b2681c1a214e911aef3dc524fa182e2905abe1c1ffa9060600160405180910390a1506001600160a01b03909116600090815260f06020526040902055565b6124c5614539565b60095481116124e757604051632a9ffab760e21b815260040160405180910390fd5b7f1e29d1b5c8926360f3ac632d884775772b07f31fec4077d433e58ce823f913476008548260405161251a929190615c34565b60405180910390a16008819055602155565b612534614539565b61253c6148fc565b565b6000866001600160a01b0381166125685760405163d92e233d60e01b815260040160405180910390fd5b612570614598565b73754DC006F4a748f80CcaF27C0efBfF412e54160D6317b4e32b600d60405180610140016040528060136040518060c001604052908160008201548152602001600182015481526020016002820154815260200160038201548152602001600482015481526020016005820160009054906101000a90046001600160a01b03166001600160a01b03166001600160a01b03168152505081526020016019604051806101800160405290816000820160009054906101000a90046001600160a01b03166001600160a01b03166001600160a01b031681526020016001820160009054906101000a90046001600160a01b03166001600160a01b03166001600160a01b031681526020016002820160009054906101000a90046001600160a01b03166001600160a01b03166001600160a01b031681526020016003820160009054906101000a90046001600160a01b03166001600160a01b03166001600160a01b031681526020016004820160009054906101000a90046001600160a01b03166001600160a01b03166001600160a01b031681526020016005820154815260200160068201548152602001600782015481526020016008820154815260200160098201548152602001600a8201548152602001600b82015481525050815260200160108f8f60405161276192919061558b565b908152602001604051809103902060009054906101000a90046001600160a01b03166001600160a01b031681526020018c6001600160a01b0316815260200160ee60008e6001600160a01b03166001600160a01b031681526020019081526020016000205481526020018b81526020018a81526020018e8e8080601f01602080910402602001604051908101604052809392919081815260200183838082843760009201919091525050509082525060200189600581111561283357634e487b7160e01b600052602160045260246000fd5b815260200188888080601f01602080910402602001604051908101604052809392919081815260200183838082843760009201919091525050509152506040516001600160e01b031960e085901b168152612892929190600401615845565b60006040518083038186803b1580156128aa57600080fd5b505af41580156128be573d6000803e3d6000fd5b505050508760ef60006128ce3390565b6001600160a01b039081168252602082019290925260400160002080546001600160a01b03191692821692909217909155881660011461291d5761291d6001600160a01b038916333089614948565b6019546001600160a01b03161561294657612946336019546001600160a01b031690308a614948565b600b54612954906001615d34565b600b556001600160a01b038816336001600160a01b03167f3f0bf63ee63c9aa7634598066ac9872e91c9e1713d764ae0ef781a9413d73af48c8c8b8b6040516129a094939291906156eb565b60405180910390a3600191506129b66001608a55565b5098975050505050505050565b6129cb614539565b6127108111156129ee57604051632a9ffab760e21b815260040160405180910390fd5b7f44c6802691f6adea249930369a511db979a5e9a3603bdb37ceee1036da80e98060075482604051612a21929190615c34565b60405180910390a16007819055602055565b6001600160a01b0381166000908152600e6020526040812054612a5857506001919050565b6001600160a01b0382166000908152600e6020526040902054421015612a8057506001919050565b506000919050565b6000612a92614598565b6001600160a01b038084166000908152600d6020908152604080832060ef90925291829020549151637e82487360e01b815273754DC006F4a748f80CcaF27C0efBfF412e54160D93637e82487393612af593601393909289921690600401615c9f565b60006040518083038186803b158015612b0d57600080fd5b505af4158015612b21573d6000803e3d6000fd5b505050506001600160a01b03838116600090815260ef602052604090205416600114612b6e57612b6e336001600160a01b03808616600090815260ef602052604090205416903085614948565b33600090815260ef60209081526040808320546001600160a01b03878116808652600d909452938290206004015491519316927fb7b1cd4dbd3f7787dcc190657396c1db6ad94a5df8e5d669a8f907d03117520591612bd1918791904290615d1e565b60405180910390a3506001612be66001608a55565b92915050565b6000826001600160a01b038116612c165760405163d92e233d60e01b815260040160405180910390fd5b8280612c3557604051637c946ed760e01b815260040160405180910390fd5b612c3d614598565b612c45614539565b6001600160a01b0385166000908152600d6020526040902060080154610100900460ff16612c85576040516294861760e21b815260040160405180910390fd5b6001600160a01b0385166000908152600d60205260409020600801805461ffff19166001908117909155600b54612cbc9190615e76565b600b55600c54612ccd906001615d34565b600c556001600160a01b0385166000908152600d60205260409081902090518691601091612cfb91906155b7565b908152604080516020928190038301812080546001600160a01b0319166001600160a01b03958616179055888416600081815260f085528381208a905560ef855283812054600d9095529290922060038101546004820154949095169492937fbd529f70cdff05eff7a5a8aad1d0b2926c1f644df27da30cb7de1f546909d16a93612d8c939091908b90429061580e565b60405180910390a360019250612da26001608a55565b505092915050565b61253c614539565b806001600160a01b038116612dda5760405163d92e233d60e01b815260040160405180910390fd5b612de2614539565b6001546040517f36a4c08a38b736dcecb6c328dba61238529620e83ccb23db2cc43cd34ec2609691612e21916001600160a01b0390911690859061563a565b60405180910390a150600180546001600160a01b039092166001600160a01b03199283168117909155601a8054909216179055565b6001600160a01b038082166000818152600d6020908152604080832060ef83528184205490951680845260ee83528184205494845260f0909252808320549051630e233ebf60e21b8152929473754DC006F4a748f80CcaF27C0efBfF412e54160D9463388cfafc94612ed79492936013936019939092909190600401615b95565b60206040518083038186803b158015612eef57600080fd5b505af4158015612f03573d6000803e3d6000fd5b505050506040513d601f19601f82011682018060405250810190612be691906152d0565b6058546001600160a01b031690565b612f3e614539565b612710811115612f6157604051632a9ffab760e21b815260040160405180910390fd5b7f5e4dd01049cdfe5a081b404bff8e27de919fd9c8ae2145007e0921ec227f207a600a5482604051612f94929190615c34565b60405180910390a1600a819055602355565b612fae614539565b8060085411612fd057604051632a9ffab760e21b815260040160405180910390fd5b7f883242c2a857ca527a432dfca231b1e49233fde2a96802809a0f3866e9f19e1360095482604051613003929190615c34565b60405180910390a16009819055602255565b6000818061303657604051637c946ed760e01b815260040160405180910390fd5b61303e614598565b6130466145f2565b6001600160a01b038085166000818152600d6020908152604080832060ef83528184205490951680845260ee83528184205494845260f0909252808320549051635d6cad1f60e11b8152929473754DC006F4a748f80CcaF27C0efBfF412e54160D9463bad95a3e946130c8949293601393601993909290918d91600401615be0565b60206040518083038186803b1580156130e057600080fd5b505af41580156130f4573d6000803e3d6000fd5b505050506040513d601f19601f8201168201806040525081019061311891906152d0565b90506000600d6000876001600160a01b03166001600160a01b031681526020019081526020016000206040518061016001604052908160008201805461315d90615ec5565b80601f016020809104026020016040519081016040528092919081815260200182805461318990615ec5565b80156131d65780601f106131ab576101008083540402835291602001916131d6565b820191906000526020600020905b8154815290600101906020018083116131b957829003601f168201915b5050509183525050600182015460209091019060ff16600581111561320b57634e487b7160e01b600052602160045260246000fd5b600581111561322a57634e487b7160e01b600052602160045260246000fd5b815260200160028201805461323e90615ec5565b80601f016020809104026020016040519081016040528092919081815260200182805461326a90615ec5565b80156132b75780601f1061328c576101008083540402835291602001916132b7565b820191906000526020600020905b81548152906001019060200180831161329a57829003601f168201915b505050918352505060038201546020808301919091526004808401546040808501919091526005850154606085015260068501546080850152600785015460a085015260089094015460ff808216151560c08601526101008083048216151560e0870152620100009092041615159301929092526001600160a01b038a166000908152600d909152919091200154909150613353908690615e76565b6001600160a01b038088166000908152600d60205260409020600401919091556001546133839116333085614948565b60015460025460405163095ea7b360e01b81526001600160a01b039283169263095ea7b3926133b9929116908690600401615678565b602060405180830381600087803b1580156133d357600080fd5b505af11580156133e7573d6000803e3d6000fd5b505050506040513d601f19601f8201168201806040525081019061340b9190615064565b50600254604080830151602084015184519251633fea436760e01b81526001600160a01b0390941693633fea4367936134509388939092909190600090600401615cd3565b602060405180830381600087803b15801561346a57600080fd5b505af115801561347e573d6000803e3d6000fd5b505050506040513d601f19601f820116820180604052508101906134a291906152d0565b506001600160a01b03868116600090815260ef602052604090205416600114156134d5576134d03386614638565b613568565b6001600160a01b03868116600090815260ef60205260409020541663a9059cbb33876040518363ffffffff1660e01b8152600401613514929190615678565b602060405180830381600087803b15801561352e57600080fd5b505af1158015613542573d6000803e3d6000fd5b505050506040513d601f19601f820116820180604052508101906135669190615064565b505b6001600160a01b03868116600081815260ef60209081526040918290205482519416845283018890528281018590524260608401525133927f19ac06de95d67912d84cd839d617200570c30562b34ba4f6a3a19fbd14a8f9a9919081900360800190a36001935050506122456001608a55565b806001600160a01b0381166136035760405163d92e233d60e01b815260040160405180910390fd5b61360b614539565b6001600160a01b03821660009081526011602052604090205460ff1615613645576040516314571ee960e31b815260040160405180910390fd5b6001600160a01b038216600081815260116020526040808220805460ff19166001179055517f6ae172837ea30b801fbfcdd4108aa1d5bf8ff775444fd70256b44e6bf3dfc3f69190a25050565b600d602052600090815260409020805481906136ad90615ec5565b80601f01602080910402602001604051908101604052809291908181526020018280546136d990615ec5565b80156137265780601f106136fb57610100808354040283529160200191613726565b820191906000526020600020905b81548152906001019060200180831161370957829003601f168201915b5050506001840154600285018054949560ff90921694919350915061374a90615ec5565b80601f016020809104026020016040519081016040528092919081815260200182805461377690615ec5565b80156137c35780601f10613798576101008083540402835291602001916137c3565b820191906000526020600020905b8154815290600101906020018083116137a657829003601f168201915b5050506003840154600485015460058601546006870154600788015460089098015496979396929550909350919060ff80821691610100810482169162010000909104168b565b6000600d60006010858560405161382292919061558b565b9081526040805160209281900383019020546001600160a01b0316835290820192909252016000206008015460ff169392505050565b6000613862614598565b336000908152600d602052604090206008015460ff1661389557604051631c12f2e960e01b815260040160405180910390fd5b336000818152600e60209081526040808320839055600d808352818420600381015460ef85529483902054919093526004830154600584015492517f99776ecfc004a01cfaf5810ae30a9cb86ca4a5831f0a617dd3c4b461f906fc8695613909959490936001600160a01b031692916157ce565b60405180910390a250600161241e6001608a55565b6000613928614598565b6139306145f2565b600060ef6000876001600160a01b03166001600160a01b0316815260200190815260200160002060009054906101000a90046001600160a01b0316905060008073754DC006F4a748f80CcaF27C0efBfF412e54160D631eac9f46600d60008b6001600160a01b03166001600160a01b0316815260200190815260200160002060f060008c6001600160a01b03166001600160a01b0316815260200190815260200160002054601360198860ee60008b6001600160a01b03166001600160a01b03168152602001908152602001600020548e8d6040518963ffffffff1660e01b8152600401613a25989796959493929190615c42565b604080518083038186803b158015613a3c57600080fd5b505af4158015613a50573d6000803e3d6000fd5b505050506040513d601f19601f82011682018060405250810190613a7491906152e8565b6001600160a01b038a8116600090815260ef60205260409020549294509092501660011415613aac57613aa78683614638565b613b41565b6001600160a01b03808916600090815260ef60205260409081902054905163a9059cbb60e01b815291169063a9059cbb90613aed9089908690600401615678565b602060405180830381600087803b158015613b0757600080fd5b505af1158015613b1b573d6000803e3d6000fd5b505050506040513d601f19601f82011682018060405250810190613b3f9190615064565b505b6001600160a01b03888116600081815260ef602052604090205430928981169291600080516020615f278339815191529116868a613b7f8289615d34565b426000604051613b94969594939291906156b6565b60405180910390a460019350505050613bad6001608a55565b949350505050565b60405163e8de982560e01b815260009073754DC006F4a748f80CcaF27C0efBfF412e54160D9063e8de982590613bf49086908690601990600401615691565b60206040518083038186803b158015613c0c57600080fd5b505af4158015613c20573d6000803e3d6000fd5b505050506040513d601f19601f82011682018060405250810190611f0e91906152d0565b6001600160a01b038082166000818152600d6020908152604080832060ef83528184205490951680845260ee83528184205494845260f090925280832054905163f7fdd5bf60e01b8152929473754DC006F4a748f80CcaF27C0efBfF412e54160D9463f7fdd5bf94612ed79492936013936019938b9391929091600401615a1f565b602554610100900460ff1615808015613ce65750602554600160ff909116105b80613d005750303b158015613d00575060255460ff166001145b613d635760405162461bcd60e51b815260206004820152602e60248201527f496e697469616c697a61626c653a20636f6e747261637420697320616c72656160448201526d191e481a5b9a5d1a585b1a5e995960921b606482015260840161164e565b6025805460ff191660011790558015613d86576025805461ff0019166101001790555b613d8e61496f565b613d9661499e565b613d9e6149cd565b613da789612db2565b613db087611049565b613db98861224c565b613dc2866144e2565b613dcb856124bd565b613dd484612fa6565b613ddd836129c3565b613de682612f36565b612710601381905560148190556130d46015556016556012601755601880546001600160a01b03191660011790558015613e5a576025805461ff0019169055604051600181527f7f26b83ff96e1f2b6a682f133852f6798a09c465da95921460cefb38474024989060200160405180910390a15b505050505050505050565b6000613e6f614598565b336000908152600d6020526040902060080154610100900460ff16613ea6576040516294861760e21b815260040160405180910390fd5b336000908152600d602052604080822081516101608101909252805482908290613ecf90615ec5565b80601f0160208091040260200160405190810160405280929190818152602001828054613efb90615ec5565b8015613f485780601f10613f1d57610100808354040283529160200191613f48565b820191906000526020600020905b815481529060010190602001808311613f2b57829003601f168201915b5050509183525050600182015460209091019060ff166005811115613f7d57634e487b7160e01b600052602160045260246000fd5b6005811115613f9c57634e487b7160e01b600052602160045260246000fd5b8152602001600282018054613fb090615ec5565b80601f0160208091040260200160405190810160405280929190818152602001828054613fdc90615ec5565b80156140295780601f10613ffe57610100808354040283529160200191614029565b820191906000526020600020905b81548152906001019060200180831161400c57829003601f168201915b505050918352505060038201546020820152600482015460408201526005820154606082015260068201546080820152600782015460a082015260089091015460ff808216151560c08401526101008083048216151560e0850152620100009092041615159101529050600d6000336001600160a01b0316815260208101919091526040016000908120906140be8282614e3b565b60018201805460ff191690556140d8600283016000614e3b565b506000600382018190556004820181905560058201819055600682018190556007820155600801805462ffffff19169055600b5461411890600190615e76565b600b556019546001600160a01b031615614148576141483360608301516000546001600160a01b0316919061475a565b33600090815260ef60205260409020546001600160a01b03166001141561417c57614177338260800151614638565b614211565b33600081815260ef602052604090819020546080840151915163a9059cbb60e01b81526001600160a01b039091169263a9059cbb926141bd92600401615678565b602060405180830381600087803b1580156141d757600080fd5b505af11580156141eb573d6000803e3d6000fd5b505050506040513d601f19601f8201168201806040525081019061420f9190615064565b505b33600081815260ef6020526040908190205483516060850151608086015193516001600160a01b0390931694937f034f85a3d66ac9cab89b6466deabcf2efeaf8e0f57b917ea5aeae7cf9cf216959361426c939291906157a9565b60405180910390a3505033600090815260ef6020526040902080546001600160a01b03191690556001608a81905590565b6142a5614539565b61253c6149fc565b6142b5614539565b6001600160a01b03811661431a5760405162461bcd60e51b815260206004820152602660248201527f4f776e61626c653a206e6577206f776e657220697320746865207a65726f206160448201526564647265737360d01b606482015260840161164e565b61432381614a39565b50565b816001600160a01b03811661434e5760405163d92e233d60e01b815260040160405180910390fd5b614356614539565b6001600160a01b038316600090815260ee602052604090819020839055517f229dd40a1182603dfbbdb7e80317ef3ab986422307a417d04ad62daabbad38d7906143a39085908590615678565b60405180910390a1505050565b806001600160a01b0381166143d85760405163d92e233d60e01b815260040160405180910390fd5b6143e0614539565b6001600160a01b03821660009081526012602052604090205460ff161561441a576040516314571ee960e31b815260040160405180910390fd5b6001600160a01b038216600081815260126020526040808220805460ff19166001179055517f86e57fd2b90329052917118de7c3f521f400d439b9650deaa906a25b08b945609190a25050565b61446f614539565b6000546040517f3e4520ab29fdd336aca22cca0657921e53eb42307038c1895b6b5e60eec3796f916144ae916001600160a01b0390911690849061563a565b60405180910390a1600080546001600160a01b039092166001600160a01b0319928316811790915560198054909216179055565b6144ea614539565b7f54d41b4e6bd425df3262062a56eab005e730ff6660f1c81895a70dcea8baf2716005548260405161451d929190615c34565b60405180910390a16005819055601e55565b6000612414614598565b33614542612f27565b6001600160a01b03161461253c5760405162461bcd60e51b815260206004820181905260248201527f4f776e61626c653a2063616c6c6572206973206e6f7420746865206f776e6572604482015260640161164e565b6002608a5414156145eb5760405162461bcd60e51b815260206004820152601f60248201527f5265656e7472616e637947756172643a207265656e7472616e742063616c6c00604482015260640161164e565b6002608a55565b60bc5460ff161561253c5760405162461bcd60e51b815260206004820152601060248201526f14185d5cd8589b194e881c185d5cd95960821b604482015260640161164e565b804710156146885760405162461bcd60e51b815260206004820152601d60248201527f416464726573733a20696e73756666696369656e742062616c616e6365000000604482015260640161164e565b6000826001600160a01b03168260405160006040518083038185875af1925050503d80600081146146d5576040519150601f19603f3d011682016040523d82523d6000602084013e6146da565b606091505b505090508061474e5760405162461bcd60e51b815260206004820152603a60248201527f416464726573733a20756e61626c6520746f2073656e642076616c75652c20726044820152791958da5c1a595b9d081b585e481a185d99481c995d995c9d195960321b606482015260840161164e565b505050565b6001608a55565b61474e8363a9059cbb60e01b8484604051602401614779929190615678565b60408051601f198184030181529190526020810180516001600160e01b03166001600160e01b031990931692909217909152614a8b565b600887015460ff166147d45760405162461bcd60e51b815260040161164e90615967565b60006147e1848488614b5d565b90506000886005015484600a6147f79190615daf565b878961010001516148089190615e57565b6148129190615e57565b895160048c01548190614826908790615e57565b6148309190615e57565b61483a9190615e57565b6148449190615d4c565b61484e9190615e76565b905060008261485e86600a615daf565b6148689084615e57565b6148729190615d4c565b9050808411156148d85760405162461bcd60e51b815260206004820152602b60248201527f4c6f636b6572733a206d6f7265207468616e206d61782072656d6f7661626c6560448201526a0818dbdb1b185d195c985b60aa1b606482015260840161164e565b838a600401546148e89190615e76565b8a6004018190555050505050505050505050565b614904614c5d565b60bc805460ff191690557f5db9ee0a495bf2e6ff9c91a7834c1ba4fdd244a5e8aa4e537bd38aeae4b073aa335b60405161493e9190615626565b60405180910390a1565b614969846323b872dd60e01b85858560405160240161477993929190615654565b50505050565b602554610100900460ff166149965760405162461bcd60e51b815260040161164e90615993565b61253c614ca6565b602554610100900460ff166149c55760405162461bcd60e51b815260040161164e90615993565b61253c614cd6565b602554610100900460ff166149f45760405162461bcd60e51b815260040161164e90615993565b61253c614cfd565b614a046145f2565b60bc805460ff191660011790557f62e78cea01bee320cd4e420270b5ea74000d11b0c9f74754ebdbfc544b05a2586149313390565b605880546001600160a01b038381166001600160a01b0319831681179093556040519116919082907f8be0079c531659141344cd1fd0a4f28419497f9722a3daafe3b4186f6b6457e090600090a35050565b6000614ae0826040518060400160405280602081526020017f5361666545524332303a206c6f772d6c6576656c2063616c6c206661696c6564815250856001600160a01b0316614d309092919063ffffffff16565b80519091501561474e5780806020019051810190614afe9190615064565b61474e5760405162461bcd60e51b815260206004820152602a60248201527f5361666545524332303a204552433230206f7065726174696f6e20646964206e6044820152691bdd081cdd58d8d9595960b21b606482015260840161164e565b600082614ba75760405162461bcd60e51b8152602060048201526018602482015277131bd8dad95c9cce881b9bdd081dda1a5d195b1a5cdd195960421b604482015260640161164e565b60808201516001600160a01b03166316fac92a614bc585600a615daf565b60208501516040516001600160e01b031960e085901b168152600481019290925260248201879052600860448301526001600160a01b03808916606484015216608482015260a40160206040518083038186803b158015614c2557600080fd5b505afa158015614c39573d6000803e3d6000fd5b505050506040513d601f19601f82011682018060405250810190613bad91906152d0565b60bc5460ff1661253c5760405162461bcd60e51b815260206004820152601460248201527314185d5cd8589b194e881b9bdd081c185d5cd95960621b604482015260640161164e565b602554610100900460ff16614ccd5760405162461bcd60e51b815260040161164e90615993565b61253c33614a39565b602554610100900460ff166147535760405162461bcd60e51b815260040161164e90615993565b602554610100900460ff16614d245760405162461bcd60e51b815260040161164e90615993565b60bc805460ff19169055565b6060613bad848460008585843b614d895760405162461bcd60e51b815260206004820152601d60248201527f416464726573733a2063616c6c20746f206e6f6e2d636f6e7472616374000000604482015260640161164e565b600080866001600160a01b03168587604051614da5919061559b565b60006040518083038185875af1925050503d8060008114614de2576040519150601f19603f3d011682016040523d82523d6000602084013e614de7565b606091505b5091509150614df7828286614e02565b979650505050505050565b60608315614e11575081611f0e565b825115614e215782518084602001fd5b8160405162461bcd60e51b815260040161164e9190615954565b508054614e4790615ec5565b6000825580601f10614e57575050565b601f01602090049060005260206000209081019061432391905b80821115614e855760008155600101614e71565b5090565b80356001600160a01b038116811461192657600080fd5b60008083601f840112614eb1578081fd5b5081356001600160401b03811115614ec7578182fd5b602083019150836020828501011115614edf57600080fd5b9250929050565b600060208284031215614ef7578081fd5b611f0e82614e89565b60008060408385031215614f12578081fd5b614f1b83614e89565b9150614f2960208401614e89565b90509250929050565b600080600080600080600080610100898b031215614f4e578384fd5b614f5789614e89565b9750614f6560208a01614e89565b9650614f7360408a01614e89565b979a96995096976060810135975060808101359660a0820135965060c0820135955060e0909101359350915050565b60008060408385031215614fb4578182fd5b614fbd83614e89565b946020939093013593505050565b60008060008060808587031215614fe0578384fd5b614fe985614e89565b935060208501359250614ffe60408601614e89565b9396929550929360600135925050565b600080600080600060a08688031215615025578081fd5b61502e86614e89565b94506020860135935061504360408701614e89565b92506060860135915061505860808701614e89565b90509295509295909350565b600060208284031215615075578081fd5b81518015158114611f0e578182fd5b60008060208385031215615096578182fd5b82356001600160401b038111156150ab578283fd5b6150b785828601614ea0565b90969095509350505050565b600080600080606085870312156150d8578384fd5b84356001600160401b038111156150ed578485fd5b6150f987828801614ea0565b909550935061510c905060208601614e89565b9396929550929360400135925050565b60008060008060008060008060c0898b031215615137578384fd5b88356001600160401b038082111561514d578586fd5b6151598c838d01614ea0565b909a50985088915061516d60208c01614e89565b975060408b0135965060608b0135955060808b0135915060068210615190578485fd5b90935060a08a013590808211156151a5578384fd5b506151b28b828c01614ea0565b999c989b5096995094979396929594505050565b6000806000604084860312156151da578081fd5b83356001600160401b038111156151ef578182fd5b6151fb86828701614ea0565b909790965060209590950135949350505050565b600060208284031215615220578081fd5b81356001600160401b0380821115615236578283fd5b818401915084601f830112615249578283fd5b81358181111561525b5761525b615f10565b604051601f8201601f19908116603f0116810190838211818310171561528357615283615f10565b8160405282815287602084870101111561529b578586fd5b826020860160208301379182016020019490945295945050505050565b6000602082840312156152c9578081fd5b5035919050565b6000602082840312156152e1578081fd5b5051919050565b600080604083850312156152fa578182fd5b505080516020909101519092909150565b6001600160a01b03169052565b60008151808452615330816020860160208601615e99565b601f01601f19169290920160200192915050565b6000815461535181615ec5565b80855260206001838116801561536e5760018114615382576153b0565b60ff198516888401526040880195506153b0565b866000528260002060005b858110156153a85781548a820186015290830190840161538d565b890184019650505b505050505092915050565b600681106153d957634e487b7160e01b600052602160045260246000fd5b9052565b8054825260018101546020830152600281015460408301526003810154606083015260048101546080830152600501546001600160a01b031660a090910152565b61542982825161530b565b602081015161543b602084018261530b565b50604081015161544e604084018261530b565b506060810151615461606084018261530b565b506080810151615474608084018261530b565b5060a0818101519083015260c0808201519083015260e0808201519083015261010080820151908301526101208082015190830152610140808201519083015261016090810151910152565b6154d3826154ce8354615e8d565b61530b565b6154e06001820154615e8d565b6154ed602084018261530b565b506154fb6002820154615e8d565b615508604084018261530b565b506155166003820154615e8d565b615523606084018261530b565b506155316004820154615e8d565b61553e608084018261530b565b50600581015460a0830152600681015460c0830152600781015460e083015260088101546101008301526009810154610120830152600a810154610140830152600b015461016090910152565b8183823760009101908152919050565b600082516155ad818460208701615e99565b9190910192915050565b60008083546155c581615ec5565b600182811680156155dd57600181146155ee5761561a565b60ff1984168752828701945061561a565b8786526020808720875b858110156156115781548a8201529084019082016155f8565b50505082870194505b50929695505050505050565b6001600160a01b0391909116815260200190565b6001600160a01b0392831681529116602082015260400190565b6001600160a01b039384168152919092166020820152604081019190915260600190565b6001600160a01b03929092168252602082015260400190565b6001600160a01b0384168152602081018390526101c08101613bad60408301846154c0565b6001600160a01b039690961686526020860194909452604085019290925260608401526080830152151560a082015260c00190565b6060815283606082015283856080830137600080608086840101526080601f19601f870116830101905083602083015282604083015295945050505050565b600061016080835261573e8184018f615318565b905061574d602084018e6153bb565b828103604084015261575f818d615318565b606084019b909b525050608081019790975260a087019590955260c086019390935260e0850191909152151561010084015215156101208301521515610140909101529392505050565b6060815260006157bc6060830186615318565b60208301949094525060400152919050565b60a0815260006157e160a0830188615344565b6020830196909652506001600160a01b039390931660408401526060830191909152608090910152919050565b60a08152600061582160a0830188615344565b90508560208301528460408301528360608301528260808301529695505050505050565b82815260406020820152615898604082018351805182526020808201519083015260408082015190830152606080820151908301526080808201519083015260a0908101516001600160a01b0316910152565b600060208301516101006158ae8185018361541e565b604085015191506158c361028085018361530b565b606085015191506158d86102a085018361530b565b60808501516102c085015260a08501516102e085015260c085015161030085015260e0850151915061034080610320860152615918610380860184615318565b9186015191925061592b858201836153bb565b5050610120840151838203603f190161036085015261594a8282615318565b9695505050505050565b602081526000611f0e6020830184615318565b6020808252601290820152712637b1b5b2b9399d103737903637b1b5b2b960711b604082015260600190565b6020808252602b908201527f496e697469616c697a61626c653a20636f6e7472616374206973206e6f74206960408201526a6e697469616c697a696e6760a81b606082015260800190565b8681526001600160a01b0386166020820152604081018590526102208101615a0960608301866154c0565b6101e08201939093526102000152949350505050565b6102e0808252610160908201526000615a3c61044083018a615344565b60018a015460ff16615a526103008501826153bb565b508281036102df1901610320840152615a6e8160028c01615344565b905060038a015461034084015260048a015461036084015260058a015461038084015260068a01546103a084015260078a01546103c084015260088a0154615abe6103e0850160ff831615159052565b615ad3610400850160ff8360081c1615159052565b615ae8610420850160ff8360101c1615159052565b509050615af860208301896153dd565b615b0560e08301886154c0565b615b1361026083018761530b565b615b2161028083018661530b565b6102a08201939093526102c0015295945050505050565b8881526103008101615b4d602083018a6153dd565b615b5a60e08301896154c0565b6001600160a01b03968716610260830152949095166102808601526102a08501929092526102c08401526102e0909201919091529392505050565b8681526102c08101615baa60208301886153dd565b615bb760e08301876154c0565b6001600160a01b03949094166102608201526102808101929092526102a0909101529392505050565b8781526102e08101615bf560208301896153dd565b615c0260e08301886154c0565b6001600160a01b03959095166102608201526102808101939093526102a08301919091526102c0909101529392505050565b918252602082015260400190565b888152602081018890526103008101615c5e60408301896153dd565b615c6c6101008301886154c0565b6001600160a01b03959095166102808201526102a08101939093526102c08301919091526102e090910152949350505050565b6101208101615cae82876153dd565b60c082019490945260e08101929092526001600160a01b031661010090910152919050565b85815260a060208201526000615cec60a0830187615318565b615cf960408401876153bb565b8281036060840152615d0b8186615318565b9150508260808301529695505050505050565b9283526020830191909152604082015260600190565b60008219821115615d4757615d47615efa565b500190565b600082615d6757634e487b7160e01b81526012600452602481fd5b500490565b600181815b80851115615da7578160001904821115615d8d57615d8d615efa565b80851615615d9a57918102915b93841c9390800290615d71565b509250929050565b6000611f0e8383600082615dc557506001612be6565b81615dd257506000612be6565b8160018114615de85760028114615df257615e0e565b6001915050612be6565b60ff841115615e0357615e03615efa565b50506001821b612be6565b5060208310610133831016604e8410600b8410161715615e31575081810a612be6565b615e3b8383615d6c565b8060001904821115615e4f57615e4f615efa565b029392505050565b6000816000190483118215151615615e7157615e71615efa565b500290565b600082821015615e8857615e88615efa565b500390565b6001600160a01b031690565b60005b83811015615eb4578181015183820152602001615e9c565b838111156149695750506000910152565b600181811c90821680615ed957607f821691505b60208210811415611bd957634e487b7160e01b600052602260045260246000fd5b634e487b7160e01b600052601160045260246000fd5b634e487b7160e01b600052604160045260246000fdfe5e4485631c54370ddbcded30559851c5dd670a232b8a7502b9d0b47ba9090d47a2646970667358221220b87b254148cdc723e81307948daf3d817bed8dfb45fce7c8111654c4be086b1364736f6c63430008040033",
  "deployedBytecode": "0x6080604052600436106103415760003560e01c8063028468581461034657806303d41e0e1461036857806306e2415d146103ad5780630c42cbc9146103cd5780631697565b146103f05780631775765f146104105780631dc4b09c146104265780631fcfe19c146104465780632630c12f14610466578063287983ab146104935780632f5b04ac146104b35780633092afd5146104ca57806331f7d964146104ea5780633237c158146104ff5780633794dc9b1461051257806338463cff1461053f5780633fb99c201461055f57806343b9370714610595578063530e784f146105b557806354509b97146105d557806359bb9189146105eb5780635c975abb146106005780635f73871e146106185780636060663e146106385780636136c21f14610658578063613e2e1e146106855780636369f8df1461069a57806363908020146106ad5780636600203d146106c35780636a030fc3146106e35780636c32b2ec146107035780636d32395c146107235780636d75b9ee14610739578063709e147a1461074c578063715018a61461076c5780637597922d14610781578063768ebb12146105d55780637da5f0da146107ae5780637f0f1817146107de57806383a9954f146107fe57806388aa0a521461081e5780638d3d78cd146108345780638da5cb5b146108545780638fe85fe714610869578063946ce8cd1461088957806396ec39e8146108a9578063983b2d56146108c9578063a7cc34b5146108e9578063af1ea795146108ff578063aff2faa314610936578063b291ec1314610956578063b43022581461096c578063b4eae1cb14610981578063b52cd3ec14610997578063b734de26146109b7578063bc805d1d146109d7578063bd60e794146109ed578063c0924b8014610ab2578063c4d10b6a14610ad2578063cdcbc87914610b13578063d14948f814610b7d578063d5a38a9114610b9d578063dd0081c7146105d5578063df8fa43014610bbd578063e85501d814610bdd578063e955de4514610bf2578063ed110a9c14610c07578063f2fde38b14610c1d578063f3e27c4f14610c3d578063f44637ba14610c5d578063f46eccc414610c7d578063f73e3a9514610cad578063fe89f32a14610ccd578063ffc9f70414610ced575b600080fd5b34801561035257600080fd5b50610366610361366004614ee6565b610d02565b005b34801561037457600080fd5b50610398610383366004614ee6565b60126020526000908152604090205460ff1681565b60405190151581526020015b60405180910390f35b3480156103b957600080fd5b506103666103c8366004614f00565b610d53565b3480156103d957600080fd5b506103e2601281565b6040519081526020016103a4565b3480156103fc57600080fd5b5061039861040b36600461500e565b610d89565b34801561041c57600080fd5b506103e260095481565b34801561043257600080fd5b50610366610441366004614ee6565b611049565b34801561045257600080fd5b506103e26104613660046150c3565b61110c565b34801561047257600080fd5b50600454610486906001600160a01b031681565b6040516103a49190615626565b34801561049f57600080fd5b506103986104ae366004614ee6565b611422565b3480156104bf57600080fd5b506103e26205460081565b3480156104d657600080fd5b506103666104e5366004614ee6565b61192b565b3480156104f657600080fd5b50610486600181565b61039861050d3660046152b8565b6119b5565b34801561051e57600080fd5b506103e261052d366004614ee6565b60ee6020526000908152604090205481565b34801561054b57600080fd5b506103e261055a3660046151c6565b611bdf565b34801561056b57600080fd5b5061048661057a366004614ee6565b60ef602052600090815260409020546001600160a01b031681565b3480156105a157600080fd5b506103986105b0366004614fa2565b611f15565b3480156105c157600080fd5b506103666105d0366004614ee6565b61224c565b3480156105e157600080fd5b506103e261271081565b3480156105f757600080fd5b506103986122f0565b34801561060c57600080fd5b5060bc5460ff16610398565b34801561062457600080fd5b50610366610633366004614fa2565b612421565b34801561064457600080fd5b506103666106533660046152b8565b6124bd565b34801561066457600080fd5b506103e2610673366004614ee6565b600e6020526000908152604090205481565b34801561069157600080fd5b5061036661252c565b6103986106a836600461511c565b61253e565b3480156106b957600080fd5b506103e260075481565b3480156106cf57600080fd5b506103666106de3660046152b8565b6129c3565b3480156106ef57600080fd5b506103986106fe366004614ee6565b612a33565b34801561070f57600080fd5b50600254610486906001600160a01b031681565b34801561072f57600080fd5b506103e260065481565b610398610747366004614fa2565b612a88565b34801561075857600080fd5b50610398610767366004614fa2565b612bec565b34801561077857600080fd5b50610366612daa565b34801561078d57600080fd5b506103e261079c366004614ee6565b60f06020526000908152604090205481565b3480156107ba57600080fd5b506103986107c9366004614ee6565b600f6020526000908152604090205460ff1681565b3480156107ea57600080fd5b506103666107f9366004614ee6565b612db2565b34801561080a57600080fd5b506103e2610819366004614ee6565b612e56565b34801561082a57600080fd5b506103e2600b5481565b34801561084057600080fd5b50600154610486906001600160a01b031681565b34801561086057600080fd5b50610486612f27565b34801561087557600080fd5b506103666108843660046152b8565b612f36565b34801561089557600080fd5b506103666108a43660046152b8565b612fa6565b3480156108b557600080fd5b506103986108c4366004614fa2565b613015565b3480156108d557600080fd5b506103666108e4366004614ee6565b6135db565b3480156108f557600080fd5b506103e260055481565b34801561090b57600080fd5b5061091f61091a366004614ee6565b613692565b6040516103a49b9a9998979695949392919061572a565b34801561094257600080fd5b50610398610951366004615084565b61380a565b34801561096257600080fd5b506103e2600a5481565b34801561097857600080fd5b50610398613858565b34801561098d57600080fd5b506103e260085481565b3480156109a357600080fd5b50600054610486906001600160a01b031681565b3480156109c357600080fd5b506103986109d2366004614fcb565b61391e565b3480156109e357600080fd5b506103e26130d481565b3480156109f957600080fd5b50601954601a54601b54601c54601d54601e54601f54602054602154602254602354602454610a429b6001600160a01b039081169b81169a81169981169816969594939291908c565b604080516001600160a01b039d8e1681529b8d1660208d0152998c16998b0199909952968a1660608a015298909416608088015260a087019290925260c086015260e0850152610100840152610120830193909352610140820192909252610160810191909152610180016103a4565b348015610abe57600080fd5b50600354610486906001600160a01b031681565b348015610ade57600080fd5b50610486610aed36600461520f565b80516020818301810180516010825292820191909301209152546001600160a01b031681565b348015610b1f57600080fd5b50601354601454601554601654601754601854610b479594939291906001600160a01b031686565b60408051968752602087019590955293850192909252606084015260808301526001600160a01b031660a082015260c0016103a4565b348015610b8957600080fd5b506103e2610b98366004614fa2565b613bb5565b348015610ba957600080fd5b506103e2610bb8366004614ee6565b613c44565b348015610bc957600080fd5b50610366610bd8366004614f32565b613cc6565b348015610be957600080fd5b50610398613e65565b348015610bfe57600080fd5b5061036661429d565b348015610c1357600080fd5b506103e2600c5481565b348015610c2957600080fd5b50610366610c38366004614ee6565b6142ad565b348015610c4957600080fd5b50610366610c58366004614fa2565b614326565b348015610c6957600080fd5b50610366610c78366004614ee6565b6143b0565b348015610c8957600080fd5b50610398610c98366004614ee6565b60116020526000908152604090205460ff1681565b348015610cb957600080fd5b50610366610cc8366004614ee6565b614467565b348015610cd957600080fd5b50610366610ce83660046152b8565b6144e2565b348015610cf957600080fd5b5061039861452f565b610d0a614539565b6001600160a01b038116600081815260126020526040808220805460ff19169055517f90eabbc0c667db2a5029ed6bc0f5fe9f356d11684a4ca9fcfaec0e53f12b9c8e9190a250565b610d5b614539565b6001600160a01b03918216600090815260ef6020526040902080546001600160a01b03191691909216179055565b6000610d93614598565b610d9b6145f2565b6001600160a01b038087166000908152600d6020908152604080832060ef83528184205490941680845260ee909252808320549051631bcc6d6960e31b81529293849373__$e73bdc529e43686130bc0575eb4e830f23$__9363de636b4893610e0e93926019908e908d906004016159de565b604080518083038186803b158015610e2557600080fd5b505af4158015610e39573d6000803e3d6000fd5b505050506040513d601f19601f82011682018060405250810190610e5d91906152e8565b6001600160a01b038a8116600090815260ef60205260409020549294509092501660011415610ea857610e9984610e948385615e76565b614638565b610ea38682614638565b610fd8565b6001600160a01b03808916600090815260ef60205260409020541663a9059cbb85610ed38486615e76565b6040518363ffffffff1660e01b8152600401610ef0929190615678565b602060405180830381600087803b158015610f0a57600080fd5b505af1158015610f1e573d6000803e3d6000fd5b505050506040513d601f19601f82011682018060405250810190610f429190615064565b506001600160a01b03808916600090815260ef60205260409081902054905163a9059cbb60e01b815291169063a9059cbb90610f849089908590600401615678565b602060405180830381600087803b158015610f9e57600080fd5b505af1158015610fb2573d6000803e3d6000fd5b505050506040513d601f19601f82011682018060405250810190610fd69190615064565b505b6001600160a01b03888116600081815260ef602052604090819020549051838816938a81169392600080516020615f278339815191529261102892919091169087908c908a9042906001906156b6565b60405180910390a46001925050506110406001608a55565b95945050505050565b806001600160a01b0381166110715760405163d92e233d60e01b815260040160405180910390fd5b611079614539565b6002546040517f51ea9f7356591c4833bcb294538a4db90cfa61b532eac2411e70ebfdff9f1bf1916110b8916001600160a01b0390911690859061563a565b60405180910390a16002546110d5906001600160a01b0316610d02565b600280546001600160a01b0384166001600160a01b03199182168117909255601b805490911682179055611108906143b0565b5050565b6000826001600160a01b0381166111365760405163d92e233d60e01b815260040160405180910390fd5b61113e614598565b6111466145f2565b3360009081526011602052604090205460ff1661117657604051633e34a41b60e21b815260040160405180910390fd5b60006010878760405161118a92919061558b565b908152604051908190036020019020546001600160a01b031690506111ae81612a33565b6111cb576040516380bcdf5160e01b815260040160405180910390fd5b6001600160a01b038082166000818152600d6020908152604080832060ef83528184205490951680845260ee83528184205494845260f090925291829020549151631ec627b360e01b815273__$e73bdc529e43686130bc0575eb4e830f23$__94631ec627b39461124b9491936013936019938a93918e90600401615b38565b60006040518083038186803b15801561126357600080fd5b505af4158015611277573d6000803e3d6000fd5b5050505060006127106007548661128e9190615e57565b6112989190615d4c565b90508015611326576001546040516340c10f1960e01b81526001600160a01b03909116906340c10f19906112d29085908590600401615678565b602060405180830381600087803b1580156112ec57600080fd5b505af1158015611300573d6000803e3d6000fd5b505050506040513d601f19601f820116820180604052508101906113249190615064565b505b6001546001600160a01b03166340c10f19876113428489615e76565b6040518363ffffffff1660e01b815260040161135f929190615678565b602060405180830381600087803b15801561137957600080fd5b505af115801561138d573d6000803e3d6000fd5b505050506040513d601f19601f820116820180604052508101906113b19190615064565b50856001600160a01b0316826001600160a01b03167f8ad706b338c5d2a20b0d038b5cfdaf2b2f943f43048723bde0dccdf129598a118784426040516113f993929190615d1e565b60405180910390a361140b8186615e76565b935050506114196001608a55565b50949350505050565b600061142c614539565b611434614598565b6001600160a01b0382166000908152600d60205260408082208151610160810190925280548290829061146690615ec5565b80601f016020809104026020016040519081016040528092919081815260200182805461149290615ec5565b80156114df5780601f106114b4576101008083540402835291602001916114df565b820191906000526020600020905b8154815290600101906020018083116114c257829003601f168201915b5050509183525050600182015460209091019060ff16600581111561151457634e487b7160e01b600052602160045260246000fd5b600581111561153357634e487b7160e01b600052602160045260246000fd5b815260200160028201805461154790615ec5565b80601f016020809104026020016040519081016040528092919081815260200182805461157390615ec5565b80156115c05780601f10611595576101008083540402835291602001916115c0565b820191906000526020600020905b8154815290600101906020018083116115a357829003601f168201915b505050918352505060038201546020820152600482015460408201526005820154606082015260068201546080820152600782015460a082015260089091015460ff808216151560c08401526101008083048216151560e085015262010000909204161515918101919091528101519091506116575760405162461bcd60e51b815260040161164e90615967565b60405180910390fd5b60a0810151156117765760015460a08201516040516323b872dd60e01b81526001600160a01b03909216916323b872dd916116989133913091600401615654565b602060405180830381600087803b1580156116b257600080fd5b505af11580156116c6573d6000803e3d6000fd5b505050506040513d601f19601f820116820180604052508101906116ea9190615064565b5060015460a0820151604051630852cd8d60e31b81526001600160a01b03909216916342966c68916117229160040190815260200190565b602060405180830381600087803b15801561173c57600080fd5b505af1158015611750573d6000803e3d6000fd5b505050506040513d601f19601f820116820180604052508101906117749190615064565b505b60c0810151156117c35760405162461bcd60e51b81526020600482015260186024820152774c6f636b6572733a203020736c617368696e67205442544360401b604482015260640161164e565b6001600160a01b0383166000908152600d60205260409081902090516010916117eb916155b7565b908152604080516020928190038301902080546001600160a01b03191690556001600160a01b0385166000908152600d90925281209061182b8282614e3b565b60018201805460ff19169055611845600283016000614e3b565b506000600382018190556004820181905560058201819055600682018190556007820155600801805462ffffff19169055600c5461188590600190615e76565b600c5560608101516000546118a7916001600160a01b0390911690859061475a565b6118b5838260800151614638565b6001600160a01b03808416600081815260ef60205260409081902054845160608601516080870151935192909516947f89e0136053e5fb3b6e55cac61cebd11e85b3cbc19a56d52fa34e152a94286f279361190f936157a9565b60405180910390a360019150506119266001608a55565b919050565b611933614539565b6001600160a01b03811660009081526011602052604090205460ff1661196c57604051633e34a41b60e21b815260040160405180910390fd5b6001600160a01b038116600081815260116020526040808220805460ff19169055517fe94479a9f7e1952cc78f2d6baab678adc1b772d936c6583def489e524cb666929190a250565b600081806119d657604051637c946ed760e01b815260040160405180910390fd5b6119de614598565b336000818152600d60209081526040808320815160c08082018452601354825260145482860152601554828501526016546060808401919091526017546080808501919091526018546001600160a01b0390811660a08087019190915287516101808101895260195483168152601a548316818b0152601b548316818a0152601c54831694810194909452601d54821692840192909252601e5491830191909152601f5492820192909252855460e082015260215461010082015260225461012082015260235461014082015260245461016082015296865260f085528386205460ef86528487205490911680875260ee9095529290942054611ae89591949391929190896147b0565b611af133612a33565b15611b0f57604051631fefc40d60e01b815260040160405180910390fd5b33600090815260ef60205260409020546001600160a01b031660011415611b3f57611b3a3384614638565b611b65565b33600081815260ef6020526040902054611b65916001600160a01b03909116908561475a565b33600081815260ef6020908152604080832054600d909252918290206004015491516001600160a01b0390911692917ff38dac2f851b07d9c651f6721a0ab772c2dcdb3b7af3f8a38b013a5a6551837b91611bc39188914290615d1e565b60405180910390a360019150611bd96001608a55565b50919050565b6000611be9614598565b611bf16145f2565b3360009081526012602052604090205460ff16611c215760405163f019b1af60e01b815260040160405180910390fd5b600060108585604051611c3592919061558b565b908152604051908190036020019020546001546001600160a01b039182169250166323b872dd611c623390565b30866040518463ffffffff1660e01b8152600401611c8293929190615654565b602060405180830381600087803b158015611c9c57600080fd5b505af1158015611cb0573d6000803e3d6000fd5b505050506040513d601f19601f82011682018060405250810190611cd49190615064565b611cf1576040516312171d8360e31b815260040160405180910390fd5b600061271060075485611d049190615e57565b611d0e9190615d4c565b90506000611d1c8286615e76565b6001600160a01b0384166000908152600d602052604090206005015490915081811015611d5c5760405163356680b760e01b815260040160405180910390fd5b611d668282615e76565b6001600160a01b038581166000908152600d602052604090819020600501929092556001549151630852cd8d60e31b8152600481018590529116906342966c6890602401602060405180830381600087803b158015611dc457600080fd5b505af1158015611dd8573d6000803e3d6000fd5b505050506040513d601f19601f82011682018060405250810190611dfc9190615064565b611e1957604051631bc5aabf60e21b815260040160405180910390fd5b60015460405163a9059cbb60e01b81526001600160a01b039091169063a9059cbb90611e4b9087908790600401615678565b602060405180830381600087803b158015611e6557600080fd5b505af1158015611e79573d6000803e3d6000fd5b505050506040513d601f19601f82011682018060405250810190611e9d9190615064565b611eba576040516312171d8360e31b815260040160405180910390fd5b836001600160a01b03167f66fb54322c407b04a077a306e72cdd780f0f374ba5dac9f6901a56a6255bc34a878542604051611ef793929190615d1e565b60405180910390a25092505050611f0e6001608a55565b9392505050565b60008180611f3657604051637c946ed760e01b815260040160405180910390fd5b611f3e614598565b611f466145f2565b6001600160a01b0384166000908152600d602052604080822090516201412760e01b815273__$e73bdc529e43686130bc0575eb4e830f23$__916201412791611f9491908890600401615c34565b60206040518083038186803b158015611fac57600080fd5b505af4158015611fc0573d6000803e3d6000fd5b505050506040513d601f19601f82011682018060405250810190611fe491906152d0565b6001546040516323b872dd60e01b81529192506001600160a01b0316906323b872dd9061201990339030908690600401615654565b602060405180830381600087803b15801561203357600080fd5b505af1158015612047573d6000803e3d6000fd5b505050506040513d601f19601f8201168201806040525081019061206b9190615064565b612088576040516312171d8360e31b815260040160405180910390fd5b600154604051630852cd8d60e31b8152600481018390526001600160a01b03909116906342966c6890602401602060405180830381600087803b1580156120ce57600080fd5b505af11580156120e2573d6000803e3d6000fd5b505050506040513d601f19601f820116820180604052508101906121069190615064565b506001600160a01b03858116600090815260ef60205260409020541660011415612139576121343385614638565b6121cc565b6001600160a01b03858116600090815260ef60205260409020541663a9059cbb33866040518363ffffffff1660e01b8152600401612178929190615678565b602060405180830381600087803b15801561219257600080fd5b505af11580156121a6573d6000803e3d6000fd5b505050506040513d601f19601f820116820180604052508101906121ca9190615064565b505b6001600160a01b03858116600090815260ef602052604090205416336001600160a01b0316866001600160a01b03167f65f9ab20b9a3f1f824f2a5c4d1c1a8bcebf301234b63767c9cc70b01f81668c887854260405161222e93929190615d1e565b60405180910390a460019250506122456001608a55565b5092915050565b806001600160a01b0381166122745760405163d92e233d60e01b815260040160405180910390fd5b61227c614539565b6004546040517fd52b2b9b7e9ee655fcb95d2e5b9e0c9f69e7ef2b8e9d2d0ea78402d576d22e22916122bb916001600160a01b0390911690859061563a565b60405180910390a150600480546001600160a01b039092166001600160a01b03199283168117909155601d8054909216179055565b60006122fa614598565b336000908152600d602052604090206008015460ff1661232d57604051631c12f2e960e01b815260040160405180910390fd5b336000908152600e6020526040902054156123875760405162461bcd60e51b815260206004820152601a602482015279131bd8dad95c9cce88185b1c9958591e481c995c5d595cdd195960321b604482015260640161164e565b6123946205460042615d34565b336000818152600e60209081526040808320859055600d808352818420600381015460ef85529483902054919093526004830154600584015492517f8182b13ac61f04ab77079b11ee12f4baaf75bf72023d25249903ed23a89e975595612408959490936001600160a01b031692916157ce565b60405180910390a35060015b61241e6001608a55565b90565b808061244057604051637c946ed760e01b815260040160405180910390fd5b612448614539565b6001600160a01b038316600081815260f060209081526040918290205482519384529083015281018390527f361ade43c0f49aaa908c4b2681c1a214e911aef3dc524fa182e2905abe1c1ffa9060600160405180910390a1506001600160a01b03909116600090815260f06020526040902055565b6124c5614539565b60095481116124e757604051632a9ffab760e21b815260040160405180910390fd5b7f1e29d1b5c8926360f3ac632d884775772b07f31fec4077d433e58ce823f913476008548260405161251a929190615c34565b60405180910390a16008819055602155565b612534614539565b61253c6148fc565b565b6000866001600160a01b0381166125685760405163d92e233d60e01b815260040160405180910390fd5b612570614598565b73__$e73bdc529e43686130bc0575eb4e830f23$__6317b4e32b600d60405180610140016040528060136040518060c001604052908160008201548152602001600182015481526020016002820154815260200160038201548152602001600482015481526020016005820160009054906101000a90046001600160a01b03166001600160a01b03166001600160a01b03168152505081526020016019604051806101800160405290816000820160009054906101000a90046001600160a01b03166001600160a01b03166001600160a01b031681526020016001820160009054906101000a90046001600160a01b03166001600160a01b03166001600160a01b031681526020016002820160009054906101000a90046001600160a01b03166001600160a01b03166001600160a01b031681526020016003820160009054906101000a90046001600160a01b03166001600160a01b03166001600160a01b031681526020016004820160009054906101000a90046001600160a01b03166001600160a01b03166001600160a01b031681526020016005820154815260200160068201548152602001600782015481526020016008820154815260200160098201548152602001600a8201548152602001600b82015481525050815260200160108f8f60405161276192919061558b565b908152602001604051809103902060009054906101000a90046001600160a01b03166001600160a01b031681526020018c6001600160a01b0316815260200160ee60008e6001600160a01b03166001600160a01b031681526020019081526020016000205481526020018b81526020018a81526020018e8e8080601f01602080910402602001604051908101604052809392919081815260200183838082843760009201919091525050509082525060200189600581111561283357634e487b7160e01b600052602160045260246000fd5b815260200188888080601f01602080910402602001604051908101604052809392919081815260200183838082843760009201919091525050509152506040516001600160e01b031960e085901b168152612892929190600401615845565b60006040518083038186803b1580156128aa57600080fd5b505af41580156128be573d6000803e3d6000fd5b505050508760ef60006128ce3390565b6001600160a01b039081168252602082019290925260400160002080546001600160a01b03191692821692909217909155881660011461291d5761291d6001600160a01b038916333089614948565b6019546001600160a01b03161561294657612946336019546001600160a01b031690308a614948565b600b54612954906001615d34565b600b556001600160a01b038816336001600160a01b03167f3f0bf63ee63c9aa7634598066ac9872e91c9e1713d764ae0ef781a9413d73af48c8c8b8b6040516129a094939291906156eb565b60405180910390a3600191506129b66001608a55565b5098975050505050505050565b6129cb614539565b6127108111156129ee57604051632a9ffab760e21b815260040160405180910390fd5b7f44c6802691f6adea249930369a511db979a5e9a3603bdb37ceee1036da80e98060075482604051612a21929190615c34565b60405180910390a16007819055602055565b6001600160a01b0381166000908152600e6020526040812054612a5857506001919050565b6001600160a01b0382166000908152600e6020526040902054421015612a8057506001919050565b506000919050565b6000612a92614598565b6001600160a01b038084166000908152600d6020908152604080832060ef90925291829020549151637e82487360e01b815273__$e73bdc529e43686130bc0575eb4e830f23$__93637e82487393612af593601393909289921690600401615c9f565b60006040518083038186803b158015612b0d57600080fd5b505af4158015612b21573d6000803e3d6000fd5b505050506001600160a01b03838116600090815260ef602052604090205416600114612b6e57612b6e336001600160a01b03808616600090815260ef602052604090205416903085614948565b33600090815260ef60209081526040808320546001600160a01b03878116808652600d909452938290206004015491519316927fb7b1cd4dbd3f7787dcc190657396c1db6ad94a5df8e5d669a8f907d03117520591612bd1918791904290615d1e565b60405180910390a3506001612be66001608a55565b92915050565b6000826001600160a01b038116612c165760405163d92e233d60e01b815260040160405180910390fd5b8280612c3557604051637c946ed760e01b815260040160405180910390fd5b612c3d614598565b612c45614539565b6001600160a01b0385166000908152600d6020526040902060080154610100900460ff16612c85576040516294861760e21b815260040160405180910390fd5b6001600160a01b0385166000908152600d60205260409020600801805461ffff19166001908117909155600b54612cbc9190615e76565b600b55600c54612ccd906001615d34565b600c556001600160a01b0385166000908152600d60205260409081902090518691601091612cfb91906155b7565b908152604080516020928190038301812080546001600160a01b0319166001600160a01b03958616179055888416600081815260f085528381208a905560ef855283812054600d9095529290922060038101546004820154949095169492937fbd529f70cdff05eff7a5a8aad1d0b2926c1f644df27da30cb7de1f546909d16a93612d8c939091908b90429061580e565b60405180910390a360019250612da26001608a55565b505092915050565b61253c614539565b806001600160a01b038116612dda5760405163d92e233d60e01b815260040160405180910390fd5b612de2614539565b6001546040517f36a4c08a38b736dcecb6c328dba61238529620e83ccb23db2cc43cd34ec2609691612e21916001600160a01b0390911690859061563a565b60405180910390a150600180546001600160a01b039092166001600160a01b03199283168117909155601a8054909216179055565b6001600160a01b038082166000818152600d6020908152604080832060ef83528184205490951680845260ee83528184205494845260f0909252808320549051630e233ebf60e21b8152929473__$e73bdc529e43686130bc0575eb4e830f23$__9463388cfafc94612ed79492936013936019939092909190600401615b95565b60206040518083038186803b158015612eef57600080fd5b505af4158015612f03573d6000803e3d6000fd5b505050506040513d601f19601f82011682018060405250810190612be691906152d0565b6058546001600160a01b031690565b612f3e614539565b612710811115612f6157604051632a9ffab760e21b815260040160405180910390fd5b7f5e4dd01049cdfe5a081b404bff8e27de919fd9c8ae2145007e0921ec227f207a600a5482604051612f94929190615c34565b60405180910390a1600a819055602355565b612fae614539565b8060085411612fd057604051632a9ffab760e21b815260040160405180910390fd5b7f883242c2a857ca527a432dfca231b1e49233fde2a96802809a0f3866e9f19e1360095482604051613003929190615c34565b60405180910390a16009819055602255565b6000818061303657604051637c946ed760e01b815260040160405180910390fd5b61303e614598565b6130466145f2565b6001600160a01b038085166000818152600d6020908152604080832060ef83528184205490951680845260ee83528184205494845260f0909252808320549051635d6cad1f60e11b8152929473__$e73bdc529e43686130bc0575eb4e830f23$__9463bad95a3e946130c8949293601393601993909290918d91600401615be0565b60206040518083038186803b1580156130e057600080fd5b505af41580156130f4573d6000803e3d6000fd5b505050506040513d601f19601f8201168201806040525081019061311891906152d0565b90506000600d6000876001600160a01b03166001600160a01b031681526020019081526020016000206040518061016001604052908160008201805461315d90615ec5565b80601f016020809104026020016040519081016040528092919081815260200182805461318990615ec5565b80156131d65780601f106131ab576101008083540402835291602001916131d6565b820191906000526020600020905b8154815290600101906020018083116131b957829003601f168201915b5050509183525050600182015460209091019060ff16600581111561320b57634e487b7160e01b600052602160045260246000fd5b600581111561322a57634e487b7160e01b600052602160045260246000fd5b815260200160028201805461323e90615ec5565b80601f016020809104026020016040519081016040528092919081815260200182805461326a90615ec5565b80156132b75780601f1061328c576101008083540402835291602001916132b7565b820191906000526020600020905b81548152906001019060200180831161329a57829003601f168201915b505050918352505060038201546020808301919091526004808401546040808501919091526005850154606085015260068501546080850152600785015460a085015260089094015460ff808216151560c08601526101008083048216151560e0870152620100009092041615159301929092526001600160a01b038a166000908152600d909152919091200154909150613353908690615e76565b6001600160a01b038088166000908152600d60205260409020600401919091556001546133839116333085614948565b60015460025460405163095ea7b360e01b81526001600160a01b039283169263095ea7b3926133b9929116908690600401615678565b602060405180830381600087803b1580156133d357600080fd5b505af11580156133e7573d6000803e3d6000fd5b505050506040513d601f19601f8201168201806040525081019061340b9190615064565b50600254604080830151602084015184519251633fea436760e01b81526001600160a01b0390941693633fea4367936134509388939092909190600090600401615cd3565b602060405180830381600087803b15801561346a57600080fd5b505af115801561347e573d6000803e3d6000fd5b505050506040513d601f19601f820116820180604052508101906134a291906152d0565b506001600160a01b03868116600090815260ef602052604090205416600114156134d5576134d03386614638565b613568565b6001600160a01b03868116600090815260ef60205260409020541663a9059cbb33876040518363ffffffff1660e01b8152600401613514929190615678565b602060405180830381600087803b15801561352e57600080fd5b505af1158015613542573d6000803e3d6000fd5b505050506040513d601f19601f820116820180604052508101906135669190615064565b505b6001600160a01b03868116600081815260ef60209081526040918290205482519416845283018890528281018590524260608401525133927f19ac06de95d67912d84cd839d617200570c30562b34ba4f6a3a19fbd14a8f9a9919081900360800190a36001935050506122456001608a55565b806001600160a01b0381166136035760405163d92e233d60e01b815260040160405180910390fd5b61360b614539565b6001600160a01b03821660009081526011602052604090205460ff1615613645576040516314571ee960e31b815260040160405180910390fd5b6001600160a01b038216600081815260116020526040808220805460ff19166001179055517f6ae172837ea30b801fbfcdd4108aa1d5bf8ff775444fd70256b44e6bf3dfc3f69190a25050565b600d602052600090815260409020805481906136ad90615ec5565b80601f01602080910402602001604051908101604052809291908181526020018280546136d990615ec5565b80156137265780601f106136fb57610100808354040283529160200191613726565b820191906000526020600020905b81548152906001019060200180831161370957829003601f168201915b5050506001840154600285018054949560ff90921694919350915061374a90615ec5565b80601f016020809104026020016040519081016040528092919081815260200182805461377690615ec5565b80156137c35780601f10613798576101008083540402835291602001916137c3565b820191906000526020600020905b8154815290600101906020018083116137a657829003601f168201915b5050506003840154600485015460058601546006870154600788015460089098015496979396929550909350919060ff80821691610100810482169162010000909104168b565b6000600d60006010858560405161382292919061558b565b9081526040805160209281900383019020546001600160a01b0316835290820192909252016000206008015460ff169392505050565b6000613862614598565b336000908152600d602052604090206008015460ff1661389557604051631c12f2e960e01b815260040160405180910390fd5b336000818152600e60209081526040808320839055600d808352818420600381015460ef85529483902054919093526004830154600584015492517f99776ecfc004a01cfaf5810ae30a9cb86ca4a5831f0a617dd3c4b461f906fc8695613909959490936001600160a01b031692916157ce565b60405180910390a250600161241e6001608a55565b6000613928614598565b6139306145f2565b600060ef6000876001600160a01b03166001600160a01b0316815260200190815260200160002060009054906101000a90046001600160a01b0316905060008073__$e73bdc529e43686130bc0575eb4e830f23$__631eac9f46600d60008b6001600160a01b03166001600160a01b0316815260200190815260200160002060f060008c6001600160a01b03166001600160a01b0316815260200190815260200160002054601360198860ee60008b6001600160a01b03166001600160a01b03168152602001908152602001600020548e8d6040518963ffffffff1660e01b8152600401613a25989796959493929190615c42565b604080518083038186803b158015613a3c57600080fd5b505af4158015613a50573d6000803e3d6000fd5b505050506040513d601f19601f82011682018060405250810190613a7491906152e8565b6001600160a01b038a8116600090815260ef60205260409020549294509092501660011415613aac57613aa78683614638565b613b41565b6001600160a01b03808916600090815260ef60205260409081902054905163a9059cbb60e01b815291169063a9059cbb90613aed9089908690600401615678565b602060405180830381600087803b158015613b0757600080fd5b505af1158015613b1b573d6000803e3d6000fd5b505050506040513d601f19601f82011682018060405250810190613b3f9190615064565b505b6001600160a01b03888116600081815260ef602052604090205430928981169291600080516020615f278339815191529116868a613b7f8289615d34565b426000604051613b94969594939291906156b6565b60405180910390a460019350505050613bad6001608a55565b949350505050565b60405163e8de982560e01b815260009073__$e73bdc529e43686130bc0575eb4e830f23$__9063e8de982590613bf49086908690601990600401615691565b60206040518083038186803b158015613c0c57600080fd5b505af4158015613c20573d6000803e3d6000fd5b505050506040513d601f19601f82011682018060405250810190611f0e91906152d0565b6001600160a01b038082166000818152600d6020908152604080832060ef83528184205490951680845260ee83528184205494845260f090925280832054905163f7fdd5bf60e01b8152929473__$e73bdc529e43686130bc0575eb4e830f23$__9463f7fdd5bf94612ed79492936013936019938b9391929091600401615a1f565b602554610100900460ff1615808015613ce65750602554600160ff909116105b80613d005750303b158015613d00575060255460ff166001145b613d635760405162461bcd60e51b815260206004820152602e60248201527f496e697469616c697a61626c653a20636f6e747261637420697320616c72656160448201526d191e481a5b9a5d1a585b1a5e995960921b606482015260840161164e565b6025805460ff191660011790558015613d86576025805461ff0019166101001790555b613d8e61496f565b613d9661499e565b613d9e6149cd565b613da789612db2565b613db087611049565b613db98861224c565b613dc2866144e2565b613dcb856124bd565b613dd484612fa6565b613ddd836129c3565b613de682612f36565b612710601381905560148190556130d46015556016556012601755601880546001600160a01b03191660011790558015613e5a576025805461ff0019169055604051600181527f7f26b83ff96e1f2b6a682f133852f6798a09c465da95921460cefb38474024989060200160405180910390a15b505050505050505050565b6000613e6f614598565b336000908152600d6020526040902060080154610100900460ff16613ea6576040516294861760e21b815260040160405180910390fd5b336000908152600d602052604080822081516101608101909252805482908290613ecf90615ec5565b80601f0160208091040260200160405190810160405280929190818152602001828054613efb90615ec5565b8015613f485780601f10613f1d57610100808354040283529160200191613f48565b820191906000526020600020905b815481529060010190602001808311613f2b57829003601f168201915b5050509183525050600182015460209091019060ff166005811115613f7d57634e487b7160e01b600052602160045260246000fd5b6005811115613f9c57634e487b7160e01b600052602160045260246000fd5b8152602001600282018054613fb090615ec5565b80601f0160208091040260200160405190810160405280929190818152602001828054613fdc90615ec5565b80156140295780601f10613ffe57610100808354040283529160200191614029565b820191906000526020600020905b81548152906001019060200180831161400c57829003601f168201915b505050918352505060038201546020820152600482015460408201526005820154606082015260068201546080820152600782015460a082015260089091015460ff808216151560c08401526101008083048216151560e0850152620100009092041615159101529050600d6000336001600160a01b0316815260208101919091526040016000908120906140be8282614e3b565b60018201805460ff191690556140d8600283016000614e3b565b506000600382018190556004820181905560058201819055600682018190556007820155600801805462ffffff19169055600b5461411890600190615e76565b600b556019546001600160a01b031615614148576141483360608301516000546001600160a01b0316919061475a565b33600090815260ef60205260409020546001600160a01b03166001141561417c57614177338260800151614638565b614211565b33600081815260ef602052604090819020546080840151915163a9059cbb60e01b81526001600160a01b039091169263a9059cbb926141bd92600401615678565b602060405180830381600087803b1580156141d757600080fd5b505af11580156141eb573d6000803e3d6000fd5b505050506040513d601f19601f8201168201806040525081019061420f9190615064565b505b33600081815260ef6020526040908190205483516060850151608086015193516001600160a01b0390931694937f034f85a3d66ac9cab89b6466deabcf2efeaf8e0f57b917ea5aeae7cf9cf216959361426c939291906157a9565b60405180910390a3505033600090815260ef6020526040902080546001600160a01b03191690556001608a81905590565b6142a5614539565b61253c6149fc565b6142b5614539565b6001600160a01b03811661431a5760405162461bcd60e51b815260206004820152602660248201527f4f776e61626c653a206e6577206f776e657220697320746865207a65726f206160448201526564647265737360d01b606482015260840161164e565b61432381614a39565b50565b816001600160a01b03811661434e5760405163d92e233d60e01b815260040160405180910390fd5b614356614539565b6001600160a01b038316600090815260ee602052604090819020839055517f229dd40a1182603dfbbdb7e80317ef3ab986422307a417d04ad62daabbad38d7906143a39085908590615678565b60405180910390a1505050565b806001600160a01b0381166143d85760405163d92e233d60e01b815260040160405180910390fd5b6143e0614539565b6001600160a01b03821660009081526012602052604090205460ff161561441a576040516314571ee960e31b815260040160405180910390fd5b6001600160a01b038216600081815260126020526040808220805460ff19166001179055517f86e57fd2b90329052917118de7c3f521f400d439b9650deaa906a25b08b945609190a25050565b61446f614539565b6000546040517f3e4520ab29fdd336aca22cca0657921e53eb42307038c1895b6b5e60eec3796f916144ae916001600160a01b0390911690849061563a565b60405180910390a1600080546001600160a01b039092166001600160a01b0319928316811790915560198054909216179055565b6144ea614539565b7f54d41b4e6bd425df3262062a56eab005e730ff6660f1c81895a70dcea8baf2716005548260405161451d929190615c34565b60405180910390a16005819055601e55565b6000612414614598565b33614542612f27565b6001600160a01b03161461253c5760405162461bcd60e51b815260206004820181905260248201527f4f776e61626c653a2063616c6c6572206973206e6f7420746865206f776e6572604482015260640161164e565b6002608a5414156145eb5760405162461bcd60e51b815260206004820152601f60248201527f5265656e7472616e637947756172643a207265656e7472616e742063616c6c00604482015260640161164e565b6002608a55565b60bc5460ff161561253c5760405162461bcd60e51b815260206004820152601060248201526f14185d5cd8589b194e881c185d5cd95960821b604482015260640161164e565b804710156146885760405162461bcd60e51b815260206004820152601d60248201527f416464726573733a20696e73756666696369656e742062616c616e6365000000604482015260640161164e565b6000826001600160a01b03168260405160006040518083038185875af1925050503d80600081146146d5576040519150601f19603f3d011682016040523d82523d6000602084013e6146da565b606091505b505090508061474e5760405162461bcd60e51b815260206004820152603a60248201527f416464726573733a20756e61626c6520746f2073656e642076616c75652c20726044820152791958da5c1a595b9d081b585e481a185d99481c995d995c9d195960321b606482015260840161164e565b505050565b6001608a55565b61474e8363a9059cbb60e01b8484604051602401614779929190615678565b60408051601f198184030181529190526020810180516001600160e01b03166001600160e01b031990931692909217909152614a8b565b600887015460ff166147d45760405162461bcd60e51b815260040161164e90615967565b60006147e1848488614b5d565b90506000886005015484600a6147f79190615daf565b878961010001516148089190615e57565b6148129190615e57565b895160048c01548190614826908790615e57565b6148309190615e57565b61483a9190615e57565b6148449190615d4c565b61484e9190615e76565b905060008261485e86600a615daf565b6148689084615e57565b6148729190615d4c565b9050808411156148d85760405162461bcd60e51b815260206004820152602b60248201527f4c6f636b6572733a206d6f7265207468616e206d61782072656d6f7661626c6560448201526a0818dbdb1b185d195c985b60aa1b606482015260840161164e565b838a600401546148e89190615e76565b8a6004018190555050505050505050505050565b614904614c5d565b60bc805460ff191690557f5db9ee0a495bf2e6ff9c91a7834c1ba4fdd244a5e8aa4e537bd38aeae4b073aa335b60405161493e9190615626565b60405180910390a1565b614969846323b872dd60e01b85858560405160240161477993929190615654565b50505050565b602554610100900460ff166149965760405162461bcd60e51b815260040161164e90615993565b61253c614ca6565b602554610100900460ff166149c55760405162461bcd60e51b815260040161164e90615993565b61253c614cd6565b602554610100900460ff166149f45760405162461bcd60e51b815260040161164e90615993565b61253c614cfd565b614a046145f2565b60bc805460ff191660011790557f62e78cea01bee320cd4e420270b5ea74000d11b0c9f74754ebdbfc544b05a2586149313390565b605880546001600160a01b038381166001600160a01b0319831681179093556040519116919082907f8be0079c531659141344cd1fd0a4f28419497f9722a3daafe3b4186f6b6457e090600090a35050565b6000614ae0826040518060400160405280602081526020017f5361666545524332303a206c6f772d6c6576656c2063616c6c206661696c6564815250856001600160a01b0316614d309092919063ffffffff16565b80519091501561474e5780806020019051810190614afe9190615064565b61474e5760405162461bcd60e51b815260206004820152602a60248201527f5361666545524332303a204552433230206f7065726174696f6e20646964206e6044820152691bdd081cdd58d8d9595960b21b606482015260840161164e565b600082614ba75760405162461bcd60e51b8152602060048201526018602482015277131bd8dad95c9cce881b9bdd081dda1a5d195b1a5cdd195960421b604482015260640161164e565b60808201516001600160a01b03166316fac92a614bc585600a615daf565b60208501516040516001600160e01b031960e085901b168152600481019290925260248201879052600860448301526001600160a01b03808916606484015216608482015260a40160206040518083038186803b158015614c2557600080fd5b505afa158015614c39573d6000803e3d6000fd5b505050506040513d601f19601f82011682018060405250810190613bad91906152d0565b60bc5460ff1661253c5760405162461bcd60e51b815260206004820152601460248201527314185d5cd8589b194e881b9bdd081c185d5cd95960621b604482015260640161164e565b602554610100900460ff16614ccd5760405162461bcd60e51b815260040161164e90615993565b61253c33614a39565b602554610100900460ff166147535760405162461bcd60e51b815260040161164e90615993565b602554610100900460ff16614d245760405162461bcd60e51b815260040161164e90615993565b60bc805460ff19169055565b6060613bad848460008585843b614d895760405162461bcd60e51b815260206004820152601d60248201527f416464726573733a2063616c6c20746f206e6f6e2d636f6e7472616374000000604482015260640161164e565b600080866001600160a01b03168587604051614da5919061559b565b60006040518083038185875af1925050503d8060008114614de2576040519150601f19603f3d011682016040523d82523d6000602084013e614de7565b606091505b5091509150614df7828286614e02565b979650505050505050565b60608315614e11575081611f0e565b825115614e215782518084602001fd5b8160405162461bcd60e51b815260040161164e9190615954565b508054614e4790615ec5565b6000825580601f10614e57575050565b601f01602090049060005260206000209081019061432391905b80821115614e855760008155600101614e71565b5090565b80356001600160a01b038116811461192657600080fd5b60008083601f840112614eb1578081fd5b5081356001600160401b03811115614ec7578182fd5b602083019150836020828501011115614edf57600080fd5b9250929050565b600060208284031215614ef7578081fd5b611f0e82614e89565b60008060408385031215614f12578081fd5b614f1b83614e89565b9150614f2960208401614e89565b90509250929050565b600080600080600080600080610100898b031215614f4e578384fd5b614f5789614e89565b9750614f6560208a01614e89565b9650614f7360408a01614e89565b979a96995096976060810135975060808101359660a0820135965060c0820135955060e0909101359350915050565b60008060408385031215614fb4578182fd5b614fbd83614e89565b946020939093013593505050565b60008060008060808587031215614fe0578384fd5b614fe985614e89565b935060208501359250614ffe60408601614e89565b9396929550929360600135925050565b600080600080600060a08688031215615025578081fd5b61502e86614e89565b94506020860135935061504360408701614e89565b92506060860135915061505860808701614e89565b90509295509295909350565b600060208284031215615075578081fd5b81518015158114611f0e578182fd5b60008060208385031215615096578182fd5b82356001600160401b038111156150ab578283fd5b6150b785828601614ea0565b90969095509350505050565b600080600080606085870312156150d8578384fd5b84356001600160401b038111156150ed578485fd5b6150f987828801614ea0565b909550935061510c905060208601614e89565b9396929550929360400135925050565b60008060008060008060008060c0898b031215615137578384fd5b88356001600160401b038082111561514d578586fd5b6151598c838d01614ea0565b909a50985088915061516d60208c01614e89565b975060408b0135965060608b0135955060808b0135915060068210615190578485fd5b90935060a08a013590808211156151a5578384fd5b506151b28b828c01614ea0565b999c989b5096995094979396929594505050565b6000806000604084860312156151da578081fd5b83356001600160401b038111156151ef578182fd5b6151fb86828701614ea0565b909790965060209590950135949350505050565b600060208284031215615220578081fd5b81356001600160401b0380821115615236578283fd5b818401915084601f830112615249578283fd5b81358181111561525b5761525b615f10565b604051601f8201601f19908116603f0116810190838211818310171561528357615283615f10565b8160405282815287602084870101111561529b578586fd5b826020860160208301379182016020019490945295945050505050565b6000602082840312156152c9578081fd5b5035919050565b6000602082840312156152e1578081fd5b5051919050565b600080604083850312156152fa578182fd5b505080516020909101519092909150565b6001600160a01b03169052565b60008151808452615330816020860160208601615e99565b601f01601f19169290920160200192915050565b6000815461535181615ec5565b80855260206001838116801561536e5760018114615382576153b0565b60ff198516888401526040880195506153b0565b866000528260002060005b858110156153a85781548a820186015290830190840161538d565b890184019650505b505050505092915050565b600681106153d957634e487b7160e01b600052602160045260246000fd5b9052565b8054825260018101546020830152600281015460408301526003810154606083015260048101546080830152600501546001600160a01b031660a090910152565b61542982825161530b565b602081015161543b602084018261530b565b50604081015161544e604084018261530b565b506060810151615461606084018261530b565b506080810151615474608084018261530b565b5060a0818101519083015260c0808201519083015260e0808201519083015261010080820151908301526101208082015190830152610140808201519083015261016090810151910152565b6154d3826154ce8354615e8d565b61530b565b6154e06001820154615e8d565b6154ed602084018261530b565b506154fb6002820154615e8d565b615508604084018261530b565b506155166003820154615e8d565b615523606084018261530b565b506155316004820154615e8d565b61553e608084018261530b565b50600581015460a0830152600681015460c0830152600781015460e083015260088101546101008301526009810154610120830152600a810154610140830152600b015461016090910152565b8183823760009101908152919050565b600082516155ad818460208701615e99565b9190910192915050565b60008083546155c581615ec5565b600182811680156155dd57600181146155ee5761561a565b60ff1984168752828701945061561a565b8786526020808720875b858110156156115781548a8201529084019082016155f8565b50505082870194505b50929695505050505050565b6001600160a01b0391909116815260200190565b6001600160a01b0392831681529116602082015260400190565b6001600160a01b039384168152919092166020820152604081019190915260600190565b6001600160a01b03929092168252602082015260400190565b6001600160a01b0384168152602081018390526101c08101613bad60408301846154c0565b6001600160a01b039690961686526020860194909452604085019290925260608401526080830152151560a082015260c00190565b6060815283606082015283856080830137600080608086840101526080601f19601f870116830101905083602083015282604083015295945050505050565b600061016080835261573e8184018f615318565b905061574d602084018e6153bb565b828103604084015261575f818d615318565b606084019b909b525050608081019790975260a087019590955260c086019390935260e0850191909152151561010084015215156101208301521515610140909101529392505050565b6060815260006157bc6060830186615318565b60208301949094525060400152919050565b60a0815260006157e160a0830188615344565b6020830196909652506001600160a01b039390931660408401526060830191909152608090910152919050565b60a08152600061582160a0830188615344565b90508560208301528460408301528360608301528260808301529695505050505050565b82815260406020820152615898604082018351805182526020808201519083015260408082015190830152606080820151908301526080808201519083015260a0908101516001600160a01b0316910152565b600060208301516101006158ae8185018361541e565b604085015191506158c361028085018361530b565b606085015191506158d86102a085018361530b565b60808501516102c085015260a08501516102e085015260c085015161030085015260e0850151915061034080610320860152615918610380860184615318565b9186015191925061592b858201836153bb565b5050610120840151838203603f190161036085015261594a8282615318565b9695505050505050565b602081526000611f0e6020830184615318565b6020808252601290820152712637b1b5b2b9399d103737903637b1b5b2b960711b604082015260600190565b6020808252602b908201527f496e697469616c697a61626c653a20636f6e7472616374206973206e6f74206960408201526a6e697469616c697a696e6760a81b606082015260800190565b8681526001600160a01b0386166020820152604081018590526102208101615a0960608301866154c0565b6101e08201939093526102000152949350505050565b6102e0808252610160908201526000615a3c61044083018a615344565b60018a015460ff16615a526103008501826153bb565b508281036102df1901610320840152615a6e8160028c01615344565b905060038a015461034084015260048a015461036084015260058a015461038084015260068a01546103a084015260078a01546103c084015260088a0154615abe6103e0850160ff831615159052565b615ad3610400850160ff8360081c1615159052565b615ae8610420850160ff8360101c1615159052565b509050615af860208301896153dd565b615b0560e08301886154c0565b615b1361026083018761530b565b615b2161028083018661530b565b6102a08201939093526102c0015295945050505050565b8881526103008101615b4d602083018a6153dd565b615b5a60e08301896154c0565b6001600160a01b03968716610260830152949095166102808601526102a08501929092526102c08401526102e0909201919091529392505050565b8681526102c08101615baa60208301886153dd565b615bb760e08301876154c0565b6001600160a01b03949094166102608201526102808101929092526102a0909101529392505050565b8781526102e08101615bf560208301896153dd565b615c0260e08301886154c0565b6001600160a01b03959095166102608201526102808101939093526102a08301919091526102c0909101529392505050565b918252602082015260400190565b888152602081018890526103008101615c5e60408301896153dd565b615c6c6101008301886154c0565b6001600160a01b03959095166102808201526102a08101939093526102c08301919091526102e090910152949350505050565b6101208101615cae82876153dd565b60c082019490945260e08101929092526001600160a01b031661010090910152919050565b85815260a060208201526000615cec60a0830187615318565b615cf960408401876153bb565b8281036060840152615d0b8186615318565b9150508260808301529695505050505050565b9283526020830191909152604082015260600190565b60008219821115615d4757615d47615efa565b500190565b600082615d6757634e487b7160e01b81526012600452602481fd5b500490565b600181815b80851115615da7578160001904821115615d8d57615d8d615efa565b80851615615d9a57918102915b93841c9390800290615d71565b509250929050565b6000611f0e8383600082615dc557506001612be6565b81615dd257506000612be6565b8160018114615de85760028114615df257615e0e565b6001915050612be6565b60ff841115615e0357615e03615efa565b50506001821b612be6565b5060208310610133831016604e8410600b8410161715615e31575081810a612be6565b615e3b8383615d6c565b8060001904821115615e4f57615e4f615efa565b029392505050565b6000816000190483118215151615615e7157615e71615efa565b500290565b600082821015615e8857615e88615efa565b500390565b6001600160a01b031690565b60005b83811015615eb4578181015183820152602001615e9c565b838111156149695750506000910152565b600181811c90821680615ed957607f821691505b60208210811415611bd957634e487b7160e01b600052602260045260246000fd5b634e487b7160e01b600052601160045260246000fd5b634e487b7160e01b600052604160045260246000fdfe5e4485631c54370ddbcded30559851c5dd670a232b8a7502b9d0b47ba9090d47a2646970667358221220b87b254148cdc723e81307948daf3d817bed8dfb45fce7c8111654c4be086b1364736f6c63430008040033",
  "libraries": {
    "LockersManagerLib": "0x754DC006F4a748f80CcaF27C0efBfF412e54160D"
  },
  "devdoc": {
    "kind": "dev",
    "methods": {
      "addCollateral(address,uint256)": {
        "params": {
          "_addingCollateralTokenAmount": "Amount of added collateral",
          "_lockerTargetAddress": "Locker's target chain address"
        },
        "returns": {
          "_0": "True if collateral is added successfully"
        }
      },
      "addCollateralToken(address,uint256)": {
        "details": "Set decimal to 0 to remove token from whitelist"
      },
      "addLocker(address,uint256)": {
        "details": "Only owner can call this. The isCandidate is also set to false.",
        "params": {
          "_lockerTargetAddress": "Locker's target chain address"
        },
        "returns": {
          "_0": "True if the candidate is added successfully"
        }
      },
      "burn(bytes,uint256)": {
        "details": "Burn teleBTC and also get the locker's fee",
        "params": {
          "_amount": "Amount of the teleBTC which is minted, including the locker's fee",
          "_lockerLockingScript": "Locking script of a locker"
        },
        "returns": {
          "_0": "uint The amount of burnt teleBTC"
        }
      },
      "buySlashedCollateralOfLocker(address,uint256)": {
        "details": "Users buy the slashed collateral using TeleBTC with discount      The paid TeleBTC will be burnt to keep the system safe      If all the needed TeleBTC is collected and burnt,      the rest of slashed collateral is sent back to locker",
        "params": {
          "_collateralAmount": "Amount of collateral that someone intends to buy with discount",
          "_lockerTargetAddress": "Locker's target chain address"
        },
        "returns": {
          "_0": "True if buying was successful"
        }
      },
      "isLockerActive(address)": {
        "details": "We check a locker status in below cases:      1. Minting TeleBTC      2. Removing locker's collateral      3. Removing locker",
        "params": {
          "_lockerTargetAddress": "Address of locker on the target chain"
        },
        "returns": {
          "_0": "True if the locker is active"
        }
      },
      "liquidateLocker(address,uint256)": {
        "details": "Anyone can liquidate Locker with health factor under      100% by providing a sufficient amount of TeleBTC.",
        "params": {
          "_collateralAmount": "Amount of collateral that someone wants to buy with discount",
          "_lockerTargetAddress": "Locker's target chain address"
        },
        "returns": {
          "_0": "True if liquidation was successful"
        }
      },
      "mint(bytes,address,uint256)": {
        "details": "Mint teleBTC for an account and the locker fee as well",
        "params": {
          "_amount": "Amount of the teleBTC which is minted, including the locker's fee",
          "_lockerLockingScript": "Locking script of a locker",
          "_receiver": "Address of the receiver of the minted teleBTCs"
        },
        "returns": {
          "_0": "uint The amount of teleBTC minted for the receiver"
        }
      },
      "owner()": {
        "details": "Returns the address of the current owner."
      },
      "pauseLocker()": {
        "details": "Only functions with whenPaused modifier can be called"
      },
      "paused()": {
        "details": "Returns true if the contract is paused, and false otherwise."
      },
      "removeCollateral(uint256)": {
        "params": {
          "_removingCollateralTokenAmount": "Amount of removed collateral"
        },
        "returns": {
          "_0": "True if collateral is removed successfully"
        }
      },
      "removeLockerByOwner(address)": {
        "details": "Owner need to pay net minted TeleBTC to the contract"
      },
      "renounceOwnership()": {
        "details": "Leaves the contract without owner. It will not be possible to call `onlyOwner` functions. Can only be called by the current owner. NOTE: Renouncing ownership will leave the contract without an owner, thereby disabling any functionality that is only available to the owner."
      },
      "requestActivation()": {
        "details": "Users can only mint TeleBTC by active locker      Note: lockerInactivationTimestamp = 0 means that the Locker is active",
        "returns": {
          "_0": "True if activated successfully"
        }
      },
      "requestInactivation()": {
        "details": "This would inactivate Locker after INACTIVATION_DELAY. The impact of inactivation is:      1. No one can mint TeleBTC by the Locker      2. Locker can be removed      3. Locker can withdraw unused collateral",
        "returns": {
          "_0": "True if deactivated successfully"
        }
      },
      "requestToBecomeLocker(bytes,address,uint256,uint256,uint8,bytes)": {
        "details": "This request may be approved by the owner",
        "params": {
          "_candidateLockingScript": "Locking script of the Locker. Users can use this script to lock BTC.",
          "_lockedCollateralTokenAmount": "target collateral token bond amount",
          "_lockedTSTAmount": "TST bond amount",
          "_lockerRescueScript": "Rescue script of Locker. In the case of liqudation, BTC is sent to this script.",
          "_lockerRescueType": "Type of Locker's rescue script (e.g. P2SH)"
        },
        "returns": {
          "_0": "True if candidate added successfully"
        }
      },
      "revokeRequest()": {
        "details": "Send back TST and collateral to the candidate",
        "returns": {
          "_0": "True if the candidate is removed successfully"
        }
      },
      "setCollateralRatio(uint256)": {
        "details": "This ratio is used to calculate the maximum mintable TeleBTC by a Locker"
      },
      "setLockerCollateralToken(address,address)": {
        "details": "This ratio is used as a helper to calculate the maximum mintable TeleBTC by a Locker"
      },
      "setLockerPercentageFee(uint256)": {
        "details": "This fee is taken by Locker for every minting or burning"
      },
      "setLockerReliabilityFactor(address,uint256)": {
        "details": "This ratio is used as a helper to calculate the maximum mintable TeleBTC by a Locker"
      },
      "setPriceOracle(address)": {
        "details": "This oracle is used to get the price of token in BTC"
      },
      "setPriceWithDiscountRatio(uint256)": {
        "details": "This ratio gives discount to users who participate in Locker liquidation"
      },
      "slashIdleLocker(address,uint256,address,uint256,address)": {
        "details": "Only burn router can call this. Locker is slashed since he doesn't provide burn proof      before the request deadline. User who made the burn request will receive the slashed bond.",
        "params": {
          "_amount": "Amount of TeleBTC that is slashed from Locker",
          "_lockerTargetAddress": "Locker's target chain address",
          "_recipient": "Address of user who receives the slashed collateral",
          "_rewardAmount": "Amount of TeleBTC that slasher receives",
          "_slasher": "Address of slasher who receives reward"
        },
        "returns": {
          "_0": "True if the locker is slashed successfully"
        }
      },
      "slashThiefLocker(address,uint256,address,uint256)": {
        "details": "Only burn router can call. Locker is slashed because he moved BTC from      Locker's Bitcoin address without any corresponding burn req.      The slashed bond will be sold with discount.",
        "params": {
          "_amount": "Value of slashed collateral (in TeleBTC)",
          "_lockerTargetAddress": "Locker's target chain address",
          "_rewardAmount": "Value of slashed reward (in TeleBTC)",
          "_slasher": "Address of slasher who receives reward"
        },
        "returns": {
          "_0": "True if the locker is slashed successfully"
        }
      },
      "transferOwnership(address)": {
        "details": "Transfers ownership of the contract to a new account (`newOwner`). Can only be called by the current owner."
      },
      "unPauseLocker()": {
        "details": "Only functions with whenNotPaused modifier can be called"
      }
    },
    "version": 1
  },
  "userdoc": {
    "kind": "user",
    "methods": {
      "addBurner(address)": {
        "notice": "Give an account access to burn"
      },
      "addCollateral(address,uint256)": {
        "notice": "Increase collateral of the lockerNo need to pass _addingCollateralTokenAmount if collateral token is native token"
      },
      "addCollateralToken(address,uint256)": {
        "notice": "Whitelist new collateral token with decimal"
      },
      "addLocker(address,uint256)": {
        "notice": "Approve the candidate request to become Locker"
      },
      "addMinter(address)": {
        "notice": "Give an account access to mint"
      },
      "burn(bytes,uint256)": {
        "notice": "Burn teleBTC of an account"
      },
      "buySlashedCollateralOfLocker(address,uint256)": {
        "notice": "Sell slashed collateral of a Locker"
      },
      "getLockerHealthFactor(address)": {
        "notice": "Return the health factor of locker"
      },
      "isLocker(bytes)": {
        "notice": "Return true if _lockerLockingScript is Locker"
      },
      "isLockerActive(address)": {
        "notice": "Return the Locker status"
      },
      "liquidateLocker(address,uint256)": {
        "notice": "Liquidate Locker with unhealthy collateral"
      },
      "mint(bytes,address,uint256)": {
        "notice": "Mint teleBTC for an account"
      },
      "pauseLocker()": {
        "notice": "Pause the contract"
      },
      "removeBurner(address)": {
        "notice": "Remove an account's access to burn"
      },
      "removeCollateral(uint256)": {
        "notice": "Decreases collateral of the locker"
      },
      "removeLockerByOwner(address)": {
        "notice": "Remove Locker from system and send back Locker TST and collateral."
      },
      "removeMinter(address)": {
        "notice": "Remove an account's access to mint"
      },
      "requestActivation()": {
        "notice": "Activate Locker"
      },
      "requestInactivation()": {
        "notice": "Request to inactivate Locker"
      },
      "requestToBecomeLocker(bytes,address,uint256,uint256,uint8,bytes)": {
        "notice": "Submit request to become Locker"
      },
      "revokeRequest()": {
        "notice": "Revoke request to become Locker"
      },
      "setBurnRouter(address)": {
        "notice": "Update burn router address"
      },
      "setCollateralRatio(uint256)": {
        "notice": "Update collateral ratio"
      },
      "setLiquidationRatio(uint256)": {
        "notice": "Update liquidation ratio"
      },
      "setLockerCollateralToken(address,address)": {
        "notice": "Update locker reliability factor"
      },
      "setLockerPercentageFee(uint256)": {
        "notice": "Update locker percentage fee"
      },
      "setLockerReliabilityFactor(address,uint256)": {
        "notice": "Update locker reliability factor"
      },
      "setMinRequiredTSTLockedAmount(uint256)": {
        "notice": "Update the required TST bond to become Locker"
      },
      "setPriceOracle(address)": {
        "notice": "Update the price oracle"
      },
      "setPriceWithDiscountRatio(uint256)": {
        "notice": "Update price with discount ratio"
      },
      "setTST(address)": {
        "notice": "Update TST contract address"
      },
      "setTeleBTC(address)": {
        "notice": "Update wrapped BTC address"
      },
      "slashIdleLocker(address,uint256,address,uint256,address)": {
        "notice": "Slash Locker for unprocessed unwrap request"
      },
      "slashThiefLocker(address,uint256,address,uint256)": {
        "notice": "Slash Locker for stealing users BTC"
      },
      "unPauseLocker()": {
        "notice": "Un-pause the contract"
      }
    },
    "version": 1
  },
  "storageLayout": {
    "storage": [
      {
        "astId": 5071,
        "contract": "contracts/lockersManager/LockersManagerLogic.sol:LockersManagerLogic",
        "label": "TeleportSystemToken",
        "offset": 0,
        "slot": "0",
        "type": "t_address"
      },
      {
        "astId": 5074,
        "contract": "contracts/lockersManager/LockersManagerLogic.sol:LockersManagerLogic",
        "label": "teleBTC",
        "offset": 0,
        "slot": "1",
        "type": "t_address"
      },
      {
        "astId": 5077,
        "contract": "contracts/lockersManager/LockersManagerLogic.sol:LockersManagerLogic",
        "label": "burnRouter",
        "offset": 0,
        "slot": "2",
        "type": "t_address"
      },
      {
        "astId": 5080,
        "contract": "contracts/lockersManager/LockersManagerLogic.sol:LockersManagerLogic",
        "label": "exchangeConnector",
        "offset": 0,
        "slot": "3",
        "type": "t_address"
      },
      {
        "astId": 5083,
        "contract": "contracts/lockersManager/LockersManagerLogic.sol:LockersManagerLogic",
        "label": "priceOracle",
        "offset": 0,
        "slot": "4",
        "type": "t_address"
      },
      {
        "astId": 5086,
        "contract": "contracts/lockersManager/LockersManagerLogic.sol:LockersManagerLogic",
        "label": "minRequiredTSTLockedAmount",
        "offset": 0,
        "slot": "5",
        "type": "t_uint256"
      },
      {
        "astId": 5089,
        "contract": "contracts/lockersManager/LockersManagerLogic.sol:LockersManagerLogic",
        "label": "minRequiredTNTLockedAmount",
        "offset": 0,
        "slot": "6",
        "type": "t_uint256"
      },
      {
        "astId": 5092,
        "contract": "contracts/lockersManager/LockersManagerLogic.sol:LockersManagerLogic",
        "label": "lockerPercentageFee",
        "offset": 0,
        "slot": "7",
        "type": "t_uint256"
      },
      {
        "astId": 5095,
        "contract": "contracts/lockersManager/LockersManagerLogic.sol:LockersManagerLogic",
        "label": "collateralRatio",
        "offset": 0,
        "slot": "8",
        "type": "t_uint256"
      },
      {
        "astId": 5098,
        "contract": "contracts/lockersManager/LockersManagerLogic.sol:LockersManagerLogic",
        "label": "liquidationRatio",
        "offset": 0,
        "slot": "9",
        "type": "t_uint256"
      },
      {
        "astId": 5101,
        "contract": "contracts/lockersManager/LockersManagerLogic.sol:LockersManagerLogic",
        "label": "priceWithDiscountRatio",
        "offset": 0,
        "slot": "10",
        "type": "t_uint256"
      },
      {
        "astId": 5104,
        "contract": "contracts/lockersManager/LockersManagerLogic.sol:LockersManagerLogic",
        "label": "totalNumberOfCandidates",
        "offset": 0,
        "slot": "11",
        "type": "t_uint256"
      },
      {
        "astId": 5107,
        "contract": "contracts/lockersManager/LockersManagerLogic.sol:LockersManagerLogic",
        "label": "totalNumberOfLockers",
        "offset": 0,
        "slot": "12",
        "type": "t_uint256"
      },
      {
        "astId": 5112,
        "contract": "contracts/lockersManager/LockersManagerLogic.sol:LockersManagerLogic",
        "label": "lockersMapping",
        "offset": 0,
        "slot": "13",
        "type": "t_mapping(t_address,t_struct(locker)5187_storage)"
      },
      {
        "astId": 5116,
        "contract": "contracts/lockersManager/LockersManagerLogic.sol:LockersManagerLogic",
        "label": "lockerInactivationTimestamp",
        "offset": 0,
        "slot": "14",
        "type": "t_mapping(t_address,t_uint256)"
      },
      {
        "astId": 5120,
        "contract": "contracts/lockersManager/LockersManagerLogic.sol:LockersManagerLogic",
        "label": "lockerLeavingAcceptance",
        "offset": 0,
        "slot": "15",
        "type": "t_mapping(t_address,t_bool)"
      },
      {
        "astId": 5125,
        "contract": "contracts/lockersManager/LockersManagerLogic.sol:LockersManagerLogic",
        "label": "getLockerTargetAddress",
        "offset": 0,
        "slot": "16",
        "type": "t_mapping(t_bytes_memory_ptr,t_address)"
      },
      {
        "astId": 5130,
        "contract": "contracts/lockersManager/LockersManagerLogic.sol:LockersManagerLogic",
        "label": "minters",
        "offset": 0,
        "slot": "17",
        "type": "t_mapping(t_address,t_bool)"
      },
      {
        "astId": 5135,
        "contract": "contracts/lockersManager/LockersManagerLogic.sol:LockersManagerLogic",
        "label": "burners",
        "offset": 0,
        "slot": "18",
        "type": "t_mapping(t_address,t_bool)"
      },
      {
        "astId": 5138,
        "contract": "contracts/lockersManager/LockersManagerLogic.sol:LockersManagerLogic",
        "label": "libConstants",
        "offset": 0,
        "slot": "19",
        "type": "t_struct(lockersLibConstants)5200_storage"
      },
      {
        "astId": 5141,
        "contract": "contracts/lockersManager/LockersManagerLogic.sol:LockersManagerLogic",
        "label": "libParams",
        "offset": 0,
        "slot": "25",
        "type": "t_struct(lockersLibParam)5225_storage"
      },
      {
        "astId": 139,
        "contract": "contracts/lockersManager/LockersManagerLogic.sol:LockersManagerLogic",
        "label": "_initialized",
        "offset": 0,
        "slot": "37",
        "type": "t_uint8"
      },
      {
        "astId": 142,
        "contract": "contracts/lockersManager/LockersManagerLogic.sol:LockersManagerLogic",
        "label": "_initializing",
        "offset": 1,
        "slot": "37",
        "type": "t_bool"
      },
      {
        "astId": 972,
        "contract": "contracts/lockersManager/LockersManagerLogic.sol:LockersManagerLogic",
        "label": "__gap",
        "offset": 0,
        "slot": "38",
        "type": "t_array(t_uint256)50_storage"
      },
      {
        "astId": 11,
        "contract": "contracts/lockersManager/LockersManagerLogic.sol:LockersManagerLogic",
        "label": "_owner",
        "offset": 0,
        "slot": "88",
        "type": "t_address"
      },
      {
        "astId": 131,
        "contract": "contracts/lockersManager/LockersManagerLogic.sol:LockersManagerLogic",
        "label": "__gap",
        "offset": 0,
        "slot": "89",
        "type": "t_array(t_uint256)49_storage"
      },
      {
        "astId": 444,
        "contract": "contracts/lockersManager/LockersManagerLogic.sol:LockersManagerLogic",
        "label": "_status",
        "offset": 0,
        "slot": "138",
        "type": "t_uint256"
      },
      {
        "astId": 513,
        "contract": "contracts/lockersManager/LockersManagerLogic.sol:LockersManagerLogic",
        "label": "__gap",
        "offset": 0,
        "slot": "139",
        "type": "t_array(t_uint256)49_storage"
      },
      {
        "astId": 323,
        "contract": "contracts/lockersManager/LockersManagerLogic.sol:LockersManagerLogic",
        "label": "_paused",
        "offset": 0,
        "slot": "188",
        "type": "t_bool"
      },
      {
        "astId": 428,
        "contract": "contracts/lockersManager/LockersManagerLogic.sol:LockersManagerLogic",
        "label": "__gap",
        "offset": 0,
        "slot": "189",
        "type": "t_array(t_uint256)49_storage"
      },
      {
        "astId": 5151,
        "contract": "contracts/lockersManager/LockersManagerLogic.sol:LockersManagerLogic",
        "label": "collateralDecimal",
        "offset": 0,
        "slot": "238",
        "type": "t_mapping(t_address,t_uint256)"
      },
      {
        "astId": 5155,
        "contract": "contracts/lockersManager/LockersManagerLogic.sol:LockersManagerLogic",
        "label": "lockerCollateralToken",
        "offset": 0,
        "slot": "239",
        "type": "t_mapping(t_address,t_address)"
      },
      {
        "astId": 5159,
        "contract": "contracts/lockersManager/LockersManagerLogic.sol:LockersManagerLogic",
        "label": "lockerReliabilityFactor",
        "offset": 0,
        "slot": "240",
        "type": "t_mapping(t_address,t_uint256)"
      }
    ],
    "types": {
      "t_address": {
        "encoding": "inplace",
        "label": "address",
        "numberOfBytes": "20"
      },
      "t_array(t_uint256)49_storage": {
        "base": "t_uint256",
        "encoding": "inplace",
        "label": "uint256[49]",
        "numberOfBytes": "1568"
      },
      "t_array(t_uint256)50_storage": {
        "base": "t_uint256",
        "encoding": "inplace",
        "label": "uint256[50]",
        "numberOfBytes": "1600"
      },
      "t_bool": {
        "encoding": "inplace",
        "label": "bool",
        "numberOfBytes": "1"
      },
      "t_bytes_memory_ptr": {
        "encoding": "bytes",
        "label": "bytes",
        "numberOfBytes": "32"
      },
      "t_bytes_storage": {
        "encoding": "bytes",
        "label": "bytes",
        "numberOfBytes": "32"
      },
      "t_enum(ScriptTypes)1581": {
        "encoding": "inplace",
        "label": "enum ScriptTypes",
        "numberOfBytes": "1"
      },
      "t_mapping(t_address,t_address)": {
        "encoding": "mapping",
        "key": "t_address",
        "label": "mapping(address => address)",
        "numberOfBytes": "32",
        "value": "t_address"
      },
      "t_mapping(t_address,t_bool)": {
        "encoding": "mapping",
        "key": "t_address",
        "label": "mapping(address => bool)",
        "numberOfBytes": "32",
        "value": "t_bool"
      },
      "t_mapping(t_address,t_struct(locker)5187_storage)": {
        "encoding": "mapping",
        "key": "t_address",
        "label": "mapping(address => struct ILockersManager.locker)",
        "numberOfBytes": "32",
        "value": "t_struct(locker)5187_storage"
      },
      "t_mapping(t_address,t_uint256)": {
        "encoding": "mapping",
        "key": "t_address",
        "label": "mapping(address => uint256)",
        "numberOfBytes": "32",
        "value": "t_uint256"
      },
      "t_mapping(t_bytes_memory_ptr,t_address)": {
        "encoding": "mapping",
        "key": "t_bytes_memory_ptr",
        "label": "mapping(bytes => address)",
        "numberOfBytes": "32",
        "value": "t_address"
      },
      "t_struct(locker)5187_storage": {
        "encoding": "inplace",
        "label": "struct ILockersManager.locker",
        "members": [
          {
            "astId": 5165,
            "contract": "contracts/lockersManager/LockersManagerLogic.sol:LockersManagerLogic",
            "label": "lockerLockingScript",
            "offset": 0,
            "slot": "0",
            "type": "t_bytes_storage"
          },
          {
            "astId": 5168,
            "contract": "contracts/lockersManager/LockersManagerLogic.sol:LockersManagerLogic",
            "label": "lockerRescueType",
            "offset": 0,
            "slot": "1",
            "type": "t_enum(ScriptTypes)1581"
          },
          {
            "astId": 5170,
            "contract": "contracts/lockersManager/LockersManagerLogic.sol:LockersManagerLogic",
            "label": "lockerRescueScript",
            "offset": 0,
            "slot": "2",
            "type": "t_bytes_storage"
          },
          {
            "astId": 5172,
            "contract": "contracts/lockersManager/LockersManagerLogic.sol:LockersManagerLogic",
            "label": "TSTLockedAmount",
            "offset": 0,
            "slot": "3",
            "type": "t_uint256"
          },
          {
            "astId": 5174,
            "contract": "contracts/lockersManager/LockersManagerLogic.sol:LockersManagerLogic",
            "label": "collateralTokenLockedAmount",
            "offset": 0,
            "slot": "4",
            "type": "t_uint256"
          },
          {
            "astId": 5176,
            "contract": "contracts/lockersManager/LockersManagerLogic.sol:LockersManagerLogic",
            "label": "netMinted",
            "offset": 0,
            "slot": "5",
            "type": "t_uint256"
          },
          {
            "astId": 5178,
            "contract": "contracts/lockersManager/LockersManagerLogic.sol:LockersManagerLogic",
            "label": "slashingTeleBTCAmount",
            "offset": 0,
            "slot": "6",
            "type": "t_uint256"
          },
          {
            "astId": 5180,
            "contract": "contracts/lockersManager/LockersManagerLogic.sol:LockersManagerLogic",
            "label": "reservedCollateralTokenForSlash",
            "offset": 0,
            "slot": "7",
            "type": "t_uint256"
          },
          {
            "astId": 5182,
            "contract": "contracts/lockersManager/LockersManagerLogic.sol:LockersManagerLogic",
            "label": "isLocker",
            "offset": 0,
            "slot": "8",
            "type": "t_bool"
          },
          {
            "astId": 5184,
            "contract": "contracts/lockersManager/LockersManagerLogic.sol:LockersManagerLogic",
            "label": "isCandidate",
            "offset": 1,
            "slot": "8",
            "type": "t_bool"
          },
          {
            "astId": 5186,
            "contract": "contracts/lockersManager/LockersManagerLogic.sol:LockersManagerLogic",
            "label": "isScriptHash",
            "offset": 2,
            "slot": "8",
            "type": "t_bool"
          }
        ],
        "numberOfBytes": "288"
      },
      "t_struct(lockersLibConstants)5200_storage": {
        "encoding": "inplace",
        "label": "struct ILockersManager.lockersLibConstants",
        "members": [
          {
            "astId": 5189,
            "contract": "contracts/lockersManager/LockersManagerLogic.sol:LockersManagerLogic",
            "label": "OneHundredPercent",
            "offset": 0,
            "slot": "0",
            "type": "t_uint256"
          },
          {
            "astId": 5191,
            "contract": "contracts/lockersManager/LockersManagerLogic.sol:LockersManagerLogic",
            "label": "HealthFactor",
            "offset": 0,
            "slot": "1",
            "type": "t_uint256"
          },
          {
            "astId": 5193,
            "contract": "contracts/lockersManager/LockersManagerLogic.sol:LockersManagerLogic",
            "label": "UpperHealthFactor",
            "offset": 0,
            "slot": "2",
            "type": "t_uint256"
          },
          {
            "astId": 5195,
            "contract": "contracts/lockersManager/LockersManagerLogic.sol:LockersManagerLogic",
            "label": "MaxLockerFee",
            "offset": 0,
            "slot": "3",
            "type": "t_uint256"
          },
          {
            "astId": 5197,
            "contract": "contracts/lockersManager/LockersManagerLogic.sol:LockersManagerLogic",
            "label": "NativeTokenDecimal",
            "offset": 0,
            "slot": "4",
            "type": "t_uint256"
          },
          {
            "astId": 5199,
            "contract": "contracts/lockersManager/LockersManagerLogic.sol:LockersManagerLogic",
            "label": "NativeToken",
            "offset": 0,
            "slot": "5",
            "type": "t_address"
          }
        ],
        "numberOfBytes": "192"
      },
      "t_struct(lockersLibParam)5225_storage": {
        "encoding": "inplace",
        "label": "struct ILockersManager.lockersLibParam",
        "members": [
          {
            "astId": 5202,
            "contract": "contracts/lockersManager/LockersManagerLogic.sol:LockersManagerLogic",
            "label": "TeleportSystemToken",
            "offset": 0,
            "slot": "0",
            "type": "t_address"
          },
          {
            "astId": 5204,
            "contract": "contracts/lockersManager/LockersManagerLogic.sol:LockersManagerLogic",
            "label": "teleBTC",
            "offset": 0,
            "slot": "1",
            "type": "t_address"
          },
          {
            "astId": 5206,
            "contract": "contracts/lockersManager/LockersManagerLogic.sol:LockersManagerLogic",
            "label": "burnRouter",
            "offset": 0,
            "slot": "2",
            "type": "t_address"
          },
          {
            "astId": 5208,
            "contract": "contracts/lockersManager/LockersManagerLogic.sol:LockersManagerLogic",
            "label": "exchangeConnector",
            "offset": 0,
            "slot": "3",
            "type": "t_address"
          },
          {
            "astId": 5210,
            "contract": "contracts/lockersManager/LockersManagerLogic.sol:LockersManagerLogic",
            "label": "priceOracle",
            "offset": 0,
            "slot": "4",
            "type": "t_address"
          },
          {
            "astId": 5212,
            "contract": "contracts/lockersManager/LockersManagerLogic.sol:LockersManagerLogic",
            "label": "minRequiredTSTLockedAmount",
            "offset": 0,
            "slot": "5",
            "type": "t_uint256"
          },
          {
            "astId": 5214,
            "contract": "contracts/lockersManager/LockersManagerLogic.sol:LockersManagerLogic",
            "label": "minRequiredTNTLockedAmount",
            "offset": 0,
            "slot": "6",
            "type": "t_uint256"
          },
          {
            "astId": 5216,
            "contract": "contracts/lockersManager/LockersManagerLogic.sol:LockersManagerLogic",
            "label": "lockerPercentageFee",
            "offset": 0,
            "slot": "7",
            "type": "t_uint256"
          },
          {
            "astId": 5218,
            "contract": "contracts/lockersManager/LockersManagerLogic.sol:LockersManagerLogic",
            "label": "collateralRatio",
            "offset": 0,
            "slot": "8",
            "type": "t_uint256"
          },
          {
            "astId": 5220,
            "contract": "contracts/lockersManager/LockersManagerLogic.sol:LockersManagerLogic",
            "label": "liquidationRatio",
            "offset": 0,
            "slot": "9",
            "type": "t_uint256"
          },
          {
            "astId": 5222,
            "contract": "contracts/lockersManager/LockersManagerLogic.sol:LockersManagerLogic",
            "label": "priceWithDiscountRatio",
            "offset": 0,
            "slot": "10",
            "type": "t_uint256"
          },
          {
            "astId": 5224,
            "contract": "contracts/lockersManager/LockersManagerLogic.sol:LockersManagerLogic",
            "label": "inactivationDelay",
            "offset": 0,
            "slot": "11",
            "type": "t_uint256"
          }
        ],
        "numberOfBytes": "384"
      },
      "t_uint256": {
        "encoding": "inplace",
        "label": "uint256",
        "numberOfBytes": "32"
      },
      "t_uint8": {
        "encoding": "inplace",
        "label": "uint8",
        "numberOfBytes": "1"
      }
    }
  }
}