{
  "address": "0xA926930fd9cf76fDF544DF591Db9F210b5232E06",
  "abi": [
    {
      "inputs": [
        {
          "internalType": "uint256",
          "name": "_startingBlockNumber",
          "type": "uint256"
        },
        {
          "internalType": "uint256",
          "name": "_protocolPercentageFee",
          "type": "uint256"
        },
        {
          "internalType": "uint256",
          "name": "_chainId",
          "type": "uint256"
        },
        {
          "internalType": "address",
          "name": "_lockers",
          "type": "address"
        },
        {
          "internalType": "address",
          "name": "_relay",
          "type": "address"
        },
        {
          "internalType": "address",
          "name": "_teleBTC",
          "type": "address"
        },
        {
          "internalType": "address",
          "name": "_treasury",
          "type": "address"
        }
      ],
      "stateMutability": "nonpayable",
      "type": "constructor"
    },
    {
      "anonymous": false,
      "inputs": [
        {
          "indexed": false,
          "internalType": "bytes",
          "name": "lockerLockingScript",
          "type": "bytes"
        },
        {
          "indexed": false,
          "internalType": "uint256",
          "name": "lockerScriptType",
          "type": "uint256"
        },
        {
          "indexed": false,
          "internalType": "address",
          "name": "lockerTargetAddress",
          "type": "address"
        },
        {
          "indexed": true,
          "internalType": "address",
          "name": "user",
          "type": "address"
        },
        {
          "indexed": false,
          "internalType": "address[2]",
          "name": "inputAndOutputToken",
          "type": "address[2]"
        },
        {
          "indexed": false,
          "internalType": "uint256[2]",
          "name": "inputAndOutputAmount",
          "type": "uint256[2]"
        },
        {
          "indexed": true,
          "internalType": "uint256",
          "name": "speed",
          "type": "uint256"
        },
        {
          "indexed": false,
          "internalType": "address",
          "name": "teleporter",
          "type": "address"
        },
        {
          "indexed": false,
          "internalType": "uint256",
          "name": "teleporterFee",
          "type": "uint256"
        },
        {
          "indexed": false,
          "internalType": "bytes32",
          "name": "bitcoinTxId",
          "type": "bytes32"
        },
        {
          "indexed": false,
          "internalType": "uint256",
          "name": "appId",
          "type": "uint256"
        }
      ],
      "name": "CCExchange",
      "type": "event"
    },
    {
      "anonymous": false,
      "inputs": [
        {
          "indexed": false,
          "internalType": "bytes",
          "name": "lockerLockingScript",
          "type": "bytes"
        },
        {
          "indexed": false,
          "internalType": "uint256",
          "name": "lockerScriptType",
          "type": "uint256"
        },
        {
          "indexed": false,
          "internalType": "address",
          "name": "lockerTargetAddress",
          "type": "address"
        },
        {
          "indexed": true,
          "internalType": "address",
          "name": "recipientAddress",
          "type": "address"
        },
        {
          "indexed": false,
          "internalType": "address[2]",
          "name": "inputAndOutputToken",
          "type": "address[2]"
        },
        {
          "indexed": false,
          "internalType": "uint256[2]",
          "name": "inputAndOutputAmount",
          "type": "uint256[2]"
        },
        {
          "indexed": true,
          "internalType": "uint256",
          "name": "speed",
          "type": "uint256"
        },
        {
          "indexed": false,
          "internalType": "address",
          "name": "teleporter",
          "type": "address"
        },
        {
          "indexed": false,
          "internalType": "uint256",
          "name": "teleporterFee",
          "type": "uint256"
        },
        {
          "indexed": false,
          "internalType": "bytes32",
          "name": "bitcoinTxId",
          "type": "bytes32"
        },
        {
          "indexed": false,
          "internalType": "uint256",
          "name": "appId",
          "type": "uint256"
        }
      ],
      "name": "FailedCCExchange",
      "type": "event"
    },
    {
      "anonymous": false,
      "inputs": [
        {
          "indexed": true,
          "internalType": "address",
          "name": "previousOwner",
          "type": "address"
        },
        {
          "indexed": true,
          "internalType": "address",
          "name": "newOwner",
          "type": "address"
        }
      ],
      "name": "OwnershipTransferred",
      "type": "event"
    },
    {
      "anonymous": false,
      "inputs": [
        {
          "indexed": false,
          "internalType": "uint256",
          "name": "appId",
          "type": "uint256"
        },
        {
          "indexed": false,
          "internalType": "address",
          "name": "exchangeConnector",
          "type": "address"
        }
      ],
      "name": "SetExchangeConnector",
      "type": "event"
    },
    {
      "inputs": [
        {
          "internalType": "bytes4",
          "name": "_version",
          "type": "bytes4"
        },
        {
          "internalType": "bytes",
          "name": "_vin",
          "type": "bytes"
        },
        {
          "internalType": "bytes",
          "name": "_vout",
          "type": "bytes"
        },
        {
          "internalType": "bytes4",
          "name": "_locktime",
          "type": "bytes4"
        },
        {
          "internalType": "uint256",
          "name": "_blockNumber",
          "type": "uint256"
        },
        {
          "internalType": "bytes",
          "name": "_intermediateNodes",
          "type": "bytes"
        },
        {
          "internalType": "uint256",
          "name": "_index",
          "type": "uint256"
        },
        {
          "internalType": "bytes",
          "name": "_lockerLockingScript",
          "type": "bytes"
        }
      ],
      "name": "ccExchange",
      "outputs": [
        {
          "internalType": "bool",
          "name": "",
          "type": "bool"
        }
      ],
      "stateMutability": "payable",
      "type": "function"
    },
    {
      "inputs": [],
      "name": "chainId",
      "outputs": [
        {
          "internalType": "uint256",
          "name": "",
          "type": "uint256"
        }
      ],
      "stateMutability": "view",
      "type": "function"
    },
    {
      "inputs": [
        {
          "internalType": "uint256",
          "name": "",
          "type": "uint256"
        }
      ],
      "name": "exchangeConnector",
      "outputs": [
        {
          "internalType": "address",
          "name": "",
          "type": "address"
        }
      ],
      "stateMutability": "view",
      "type": "function"
    },
    {
      "inputs": [],
      "name": "instantRouter",
      "outputs": [
        {
          "internalType": "address",
          "name": "",
          "type": "address"
        }
      ],
      "stateMutability": "view",
      "type": "function"
    },
    {
      "inputs": [
        {
          "internalType": "bytes32",
          "name": "_txId",
          "type": "bytes32"
        }
      ],
      "name": "isRequestUsed",
      "outputs": [
        {
          "internalType": "bool",
          "name": "",
          "type": "bool"
        }
      ],
      "stateMutability": "view",
      "type": "function"
    },
    {
      "inputs": [],
      "name": "lockers",
      "outputs": [
        {
          "internalType": "address",
          "name": "",
          "type": "address"
        }
      ],
      "stateMutability": "view",
      "type": "function"
    },
    {
      "inputs": [],
      "name": "owner",
      "outputs": [
        {
          "internalType": "address",
          "name": "",
          "type": "address"
        }
      ],
      "stateMutability": "view",
      "type": "function"
    },
    {
      "inputs": [],
      "name": "protocolPercentageFee",
      "outputs": [
        {
          "internalType": "uint256",
          "name": "",
          "type": "uint256"
        }
      ],
      "stateMutability": "view",
      "type": "function"
    },
    {
      "inputs": [],
      "name": "relay",
      "outputs": [
        {
          "internalType": "address",
          "name": "",
          "type": "address"
        }
      ],
      "stateMutability": "view",
      "type": "function"
    },
    {
      "inputs": [],
      "name": "renounceOwnership",
      "outputs": [],
      "stateMutability": "nonpayable",
      "type": "function"
    },
    {
      "inputs": [
        {
          "internalType": "uint256",
          "name": "_appId",
          "type": "uint256"
        },
        {
          "internalType": "address",
          "name": "_exchangeConnector",
          "type": "address"
        }
      ],
      "name": "setExchangeConnector",
      "outputs": [],
      "stateMutability": "nonpayable",
      "type": "function"
    },
    {
      "inputs": [
        {
          "internalType": "address",
          "name": "_instantRouter",
          "type": "address"
        }
      ],
      "name": "setInstantRouter",
      "outputs": [],
      "stateMutability": "nonpayable",
      "type": "function"
    },
    {
      "inputs": [
        {
          "internalType": "address",
          "name": "_lockers",
          "type": "address"
        }
      ],
      "name": "setLockers",
      "outputs": [],
      "stateMutability": "nonpayable",
      "type": "function"
    },
    {
      "inputs": [
        {
          "internalType": "uint256",
          "name": "_protocolPercentageFee",
          "type": "uint256"
        }
      ],
      "name": "setProtocolPercentageFee",
      "outputs": [],
      "stateMutability": "nonpayable",
      "type": "function"
    },
    {
      "inputs": [
        {
          "internalType": "address",
          "name": "_relay",
          "type": "address"
        }
      ],
      "name": "setRelay",
      "outputs": [],
      "stateMutability": "nonpayable",
      "type": "function"
    },
    {
      "inputs": [
        {
          "internalType": "address",
          "name": "_teleBTC",
          "type": "address"
        }
      ],
      "name": "setTeleBTC",
      "outputs": [],
      "stateMutability": "nonpayable",
      "type": "function"
    },
    {
      "inputs": [
        {
          "internalType": "address",
          "name": "_treasury",
          "type": "address"
        }
      ],
      "name": "setTreasury",
      "outputs": [],
      "stateMutability": "nonpayable",
      "type": "function"
    },
    {
      "inputs": [],
      "name": "startingBlockNumber",
      "outputs": [
        {
          "internalType": "uint256",
          "name": "",
          "type": "uint256"
        }
      ],
      "stateMutability": "view",
      "type": "function"
    },
    {
      "inputs": [],
      "name": "teleBTC",
      "outputs": [
        {
          "internalType": "address",
          "name": "",
          "type": "address"
        }
      ],
      "stateMutability": "view",
      "type": "function"
    },
    {
      "inputs": [
        {
          "internalType": "address",
          "name": "newOwner",
          "type": "address"
        }
      ],
      "name": "transferOwnership",
      "outputs": [],
      "stateMutability": "nonpayable",
      "type": "function"
    },
    {
      "inputs": [],
      "name": "treasury",
      "outputs": [
        {
          "internalType": "address",
          "name": "",
          "type": "address"
        }
      ],
      "stateMutability": "view",
      "type": "function"
    },
    {
      "stateMutability": "payable",
      "type": "receive"
    }
  ],
  "transactionHash": "0xf3ed1cd827e7b2af30d5ee2d6d43eb0ec57aaebf4c91b2aa0d6a5f4ee4cada35",
  "args": [
    "2350306",
    50,
    3,
    "0x09e4e794A4E06427BaED82F181ED9BC5f59E4c0A",
    "0x417a66DE74cCe5352F7A1717d94B3c52DAe52F77",
    "0x06C1B1CFBDA08547EaeDdc808d8Fe92b6fb87B33",
    "0x5364E3557572bd5D5903C0e9C21BE359F2Eac1dA"
  ],
  "numDeployments": 1,
  "solcInputHash": "4f511ac1c119e8e9520a01cfa46dea87",
  "bytecode": "0x60806040523480156200001157600080fd5b50604051620044ab380380620044ab83398101604081905262000034916200017e565b6200003f3362000111565b6001805560028790556004869055612710861115620000b55760405162461bcd60e51b815260206004820152602860248201527f434345786368616e6765526f757465723a20696e76616c69642070657263656e604482015267746167652066656560c01b606482015260840160405180910390fd5b600394909455600580546001600160a01b03199081166001600160a01b03948516179091556007805482169484169490941790935560088054841691831691909117905560098054909216921691909117905550620001f79050565b600080546001600160a01b038381166001600160a01b0319831681178455604051919092169283917f8be0079c531659141344cd1fd0a4f28419497f9722a3daafe3b4186f6b6457e09190a35050565b80516001600160a01b03811681146200017957600080fd5b919050565b600080600080600080600060e0888a03121562000199578283fd5b875196506020880151955060408801519450620001b96060890162000161565b9350620001c96080890162000161565b9250620001d960a0890162000161565b9150620001e960c0890162000161565b905092959891949750929550565b6142a480620002076000396000f3fe60806040526004361061012e5760003560e01c806380bc4726116100ab578063b14d35321161006f578063b14d353214610335578063b59589d114610355578063c805f68b14610375578063e35a0a8814610395578063f0f44260146103b5578063f2fde38b146103d557610135565b806380bc4726146102a1578063870ba6cf146102c15780638d3d78cd146102e15780638da5cb5b146103015780639a8a05921461031f57610135565b80636e8adf61116100f25780636e8adf611461020057806370872aa514610236578063715018a61461024c5780637ed55748146102615780637f0f18171461028157610135565b806314e0c15f1461013a5780631812adb6146101625780631876dec41461018657806361d027b3146101be5780636b2857ef146101de57610135565b3661013557005b600080fd5b61014d610148366004613c00565b6103f5565b60405190151581526020015b60405180910390f35b34801561016e57600080fd5b5061017860045481565b604051908152602001610159565b34801561019257600080fd5b506007546101a6906001600160a01b031681565b6040516001600160a01b039091168152602001610159565b3480156101ca57600080fd5b506009546101a6906001600160a01b031681565b3480156101ea57600080fd5b506101fe6101f9366004613cf5565b6107cd565b005b34801561020c57600080fd5b506101a661021b366004613bd0565b600a602052600090815260409020546001600160a01b031681565b34801561024257600080fd5b5061017860025481565b34801561025857600080fd5b506101fe61085d565b34801561026d57600080fd5b506101fe61027c366004613bd0565b610893565b34801561028d57600080fd5b506101fe61029c366004613ac5565b610922565b3480156102ad57600080fd5b5061014d6102bc366004613bd0565b610996565b3480156102cd57600080fd5b506101fe6102dc366004613ac5565b6109c1565b3480156102ed57600080fd5b506008546101a6906001600160a01b031681565b34801561030d57600080fd5b506000546001600160a01b03166101a6565b34801561032b57600080fd5b5061017860035481565b34801561034157600080fd5b506101fe610350366004613ac5565b610a35565b34801561036157600080fd5b506005546101a6906001600160a01b031681565b34801561038157600080fd5b506101fe610390366004613ac5565b610aa9565b3480156103a157600080fd5b506006546101a6906001600160a01b031681565b3480156103c157600080fd5b506101fe6103d0366004613ac5565b610b1d565b3480156103e157600080fd5b506101fe6103f0366004613ac5565b610b91565b60006002600154141561044f5760405162461bcd60e51b815260206004820152601f60248201527f5265656e7472616e637947756172643a207265656e7472616e742063616c6c0060448201526064015b60405180910390fd5b60026001819055548710156104b25760405162461bcd60e51b8152602060048201526024808201527f434345786368616e6765526f757465723a207265717565737420697320746f6f604482015263081bdb1960e21b6064820152608401610446565b60006104f78d8d8d8d8080601f0160208091040260200160405190810160405280939291908181526020018383808284376000920191909152508f9250610c2c915050565b6000818152600b602052604090206005015490915060ff16156105775760405162461bcd60e51b815260206004820152603260248201527f434345786368616e6765526f757465723a20746865207265717565737420686160448201527173206265656e2075736564206265666f726560701b6064820152608401610446565b6001600160e01b03198916156105df5760405162461bcd60e51b815260206004820152602760248201527f434345786368616e6765526f757465723a206c6f636b2074696d65206973206e6044820152666f6e2d7a65726f60c81b6064820152608401610446565b61066584848080601f016020809104026020016040519081016040528093929190818152602001838380828437600081840152601f19601f820116905080830192505050505050508c8c8080601f016020809104026020016040519081016040528093929190818152602001838380828437600092019190915250869250610d2d915050565b6106a8818989898080601f0160208091040260200160405190810160405280939291908181526020018383808284376000920191909152508b9250611285915050565b61071a5760405162461bcd60e51b815260206004820152603860248201527f434345786368616e6765526f757465723a207472616e73616374696f6e20686160448201527f73206e6f74206265656e2066696e616c697a65642079657400000000000000006064820152608401610446565b6000818152600b60205260409020600801546107765761077184848080601f0160208091040260200160405190810160405280939291908181526020018383808284376000920191909152508592506113fa915050565b6107b7565b6107b784848080601f016020809104026020016040519081016040528093929190818152602001838380828437600092019190915250859250611f35915050565b505060018080559b9a5050505050505050505050565b6000546001600160a01b031633146107f75760405162461bcd60e51b815260040161044690613fbc565b6000828152600a602090815260409182902080546001600160a01b0319166001600160a01b0385169081179091558251858152918201527f31a8c4e62daac2a3ed5d713004d9ae867d6dcddfa35603db2a4b65d9236b1bc1910160405180910390a15050565b6000546001600160a01b031633146108875760405162461bcd60e51b815260040161044690613fbc565b610891600061206f565b565b6000546001600160a01b031633146108bd5760405162461bcd60e51b815260040161044690613fbc565b80612710101561091d5760405162461bcd60e51b815260206004820152602560248201527f434345786368616e6765526f757465723a20666565206973206f7574206f662060448201526472616e676560d81b6064820152608401610446565b600455565b806001600160a01b0381166109495760405162461bcd60e51b815260040161044690613f7b565b6000546001600160a01b031633146109735760405162461bcd60e51b815260040161044690613fbc565b50600880546001600160a01b0319166001600160a01b0392909216919091179055565b6000818152600b602052604081206005015460ff166109b65760006109b9565b60015b90505b919050565b806001600160a01b0381166109e85760405162461bcd60e51b815260040161044690613f7b565b6000546001600160a01b03163314610a125760405162461bcd60e51b815260040161044690613fbc565b50600680546001600160a01b0319166001600160a01b0392909216919091179055565b806001600160a01b038116610a5c5760405162461bcd60e51b815260040161044690613f7b565b6000546001600160a01b03163314610a865760405162461bcd60e51b815260040161044690613fbc565b50600780546001600160a01b0319166001600160a01b0392909216919091179055565b806001600160a01b038116610ad05760405162461bcd60e51b815260040161044690613f7b565b6000546001600160a01b03163314610afa5760405162461bcd60e51b815260040161044690613fbc565b50600580546001600160a01b0319166001600160a01b0392909216919091179055565b806001600160a01b038116610b445760405162461bcd60e51b815260040161044690613f7b565b6000546001600160a01b03163314610b6e5760405162461bcd60e51b815260040161044690613fbc565b50600980546001600160a01b0319166001600160a01b0392909216919091179055565b6000546001600160a01b03163314610bbb5760405162461bcd60e51b815260040161044690613fbc565b6001600160a01b038116610c205760405162461bcd60e51b815260206004820152602660248201527f4f776e61626c653a206e6577206f776e657220697320746865207a65726f206160448201526564647265737360d01b6064820152608401610446565b610c298161206f565b50565b600080600286868686604051602001610c489493929190613db6565b60408051601f1981840301815290829052610c6291613e09565b602060405180830381855afa158015610c7f573d6000803e3d6000fd5b5050506040513d601f19601f82011682018060405250810190610ca29190613be8565b90506000600282604051602001610cbb91815260200190565b60408051601f1981840301815290829052610cd591613e09565b602060405180830381855afa158015610cf2573d6000803e3d6000fd5b5050506040513d601f19601f82011682018060405250810190610d159190613be8565b9050610d20816120bf565b925050505b949350505050565b60075460405163aff2faa360e01b81526001600160a01b039091169063aff2faa390610d5d908690600401613e97565b60206040518083038186803b158015610d7557600080fd5b505afa158015610d89573d6000803e3d6000fd5b505050506040513d601f19601f82011682018060405250810190610dad9190613afd565b610e1f5760405162461bcd60e51b815260206004820152603860248201527f434345786368616e6765526f757465723a206e6f206c6f636b6572207769746860448201527f20676976652073637269707420686173682065786973747300000000000000006064820152608401610446565b610e8260405180610140016040528060008152602001600081526020016000815260200160001515815260200160006001600160a01b03168152602001600081526020016000151581526020016060815260200160008152602001600081525090565b6060610e8e848661213f565b6001600160401b0390911660208401819052909150610efe5760405162461bcd60e51b815260206004820152602660248201527f434345786368616e6765526f757465723a20696e70757420616d6f756e74206960448201526573207a65726f60d01b6064820152608401610446565b610f07816122b7565b60ff1660035414610f6c5760405162461bcd60e51b815260206004820152602960248201527f434345786368616e6765526f757465723a20636861696e206964206973206e6f6044820152681d0818dbdc9c9958dd60ba1b6064820152608401610446565b610f75816122d1565b61ffff1682526000610f86826122ec565b9050610f9182612307565b6001600160e01b03166040840152610fa882612322565b60ff16610fbb5760006060840152610fc3565b600160608401525b610fcc82612331565b6001600160a01b03166080840152604080516002808252606082018352600092602083019080368337505060085482519293506001600160a01b03169183915060009061102957634e487b7160e01b600052603260045260246000fd5b60200260200101906001600160a01b031690816001600160a01b031681525050818160018151811061106b57634e487b7160e01b600052603260045260246000fd5b6001600160a01b039092166020928302919091019091015260e0840181905261109383612341565b63ffffffff1661010085015260006110aa8461235c565b61ffff16905061271081111561111a5760405162461bcd60e51b815260206004820152602f60248201527f434345786368616e6765526f757465723a2070657263656e746167652066656560448201526e081a5cc81b9bdd0818dbdc9c9958dd608a1b6064820152608401610446565b61271085602001518261112d9190614113565b61113791906140f3565b60a08601526111458461236c565b60ff166101208601819052158061116157508461012001516001145b6111bc5760405162461bcd60e51b815260206004820152602660248201527f434345786368616e6765526f757465723a207370656564206973206e6f7420636044820152651bdc9c9958dd60d21b6064820152608401610446565b600160c086018181526000888152600b602090815260409182902089518155818a015194810194909455908801516002840155606088015160038401805460808b01516001600160a01b031661010002610100600160a81b031993151560ff19928316179390931692909217905560a089015160048501559151600584018054911515919093161790915560e08701518051889392611262926006850192910190613973565b506101008201516007820155610120909101516008909101555050505050505050565b60055460405163d0a8973960e01b8152600481018590526000602482018190529182916001600160a01b039091169063d0a897399060440160206040518083038186803b1580156112d557600080fd5b505afa1580156112e9573d6000803e3d6000fd5b505050506040513d601f19601f8201168201806040525081019061130d9190613be8565b9050803410156113745760405162461bcd60e51b815260206004820152602c60248201527f434345786368616e6765526f757465723a207061696420666565206973206e6f60448201526b1d081cdd59999a58da595b9d60a21b6064820152608401610446565b6005546040516000916113d1916001600160a01b03909116906113a1908a908a908a908a90602401613e67565b60408051601f198184030181529190526020810180516001600160e01b0316634354da2560e01b1790528461237b565b90506113e6336113e1843461415b565b6123ab565b80806020019051810190610d209190613afd565b600061140683836124c9565b6000838152600b60209081526040808320548352600a909152812054919250906060906001600160a01b03168061148e5760405162461bcd60e51b815260206004820152602660248201527f434345786368616e6765526f757465723a2061707020696420646f65736e277460448201526508195e1a5cdd60d21b6064820152608401610446565b60085460405163095ea7b360e01b81526001600160a01b038381166004830152602482018790529091169063095ea7b390604401602060405180830381600087803b1580156114dc57600080fd5b505af11580156114f0573d6000803e3d6000fd5b505050506040513d601f19601f820116820180604052508101906115149190613afd565b506000858152600b6020908152604080832081516101408101835281548152600182015481850152600282015481840152600382015460ff808216151560608401526101009091046001600160a01b03166080830152600483015460a0830152600583015416151560c08201526006820180548451818702810187019095528085529194929360e08601939092908301828280156115db57602002820191906000526020600020905b81546001600160a01b031681526001909101906020018083116115bd575b50505091835250506007820154602082015260089091015460409182015260e082015190516326d2f28960e21b81529192506001600160a01b03841691639b4bca249161162a91600401613e54565b60206040518083038186803b15801561164257600080fd5b505afa158015611656573d6000803e3d6000fd5b505050506040513d601f19601f8201168201806040525081019061167a9190613afd565b1561172a57816001600160a01b031663b0bbcd888683604001518460e00151856080015186610100015187606001516040518763ffffffff1660e01b81526004016116ca96959493929190613ff1565b600060405180830381600087803b1580156116e457600080fd5b505af11580156116f8573d6000803e3d6000fd5b505050506040513d6000823e601f3d908101601f191682016040526117209190810190613b17565b909450925061199f565b60408051600380825260808201909252600091602082016060803683375050506000888152600b6020526040812060060180549293509161177b57634e487b7160e01b600052603260045260246000fd5b600091825260208220015482516001600160a01b039091169183916117b057634e487b7160e01b600052603260045260246000fd5b60200260200101906001600160a01b031690816001600160a01b031681525050826001600160a01b03166317fcb39b6040518163ffffffff1660e01b815260040160206040518083038186803b15801561180957600080fd5b505afa15801561181d573d6000803e3d6000fd5b505050506040513d601f19601f820116820180604052508101906118419190613ae1565b8160018151811061186257634e487b7160e01b600052603260045260246000fd5b6001600160a01b039092166020928302919091018201526000888152600b90915260409020600601805460019081106118ab57634e487b7160e01b600052603260045260246000fd5b9060005260206000200160009054906101000a90046001600160a01b0316816002815181106118ea57634e487b7160e01b600052603260045260246000fd5b6001600160a01b03928316602091820292909201015260408084015160808501516101008601516060870151935163161779b160e31b81529488169463b0bbcd8894611942948d949093899391929091600401613ff1565b600060405180830381600087803b15801561195c57600080fd5b505af1158015611970573d6000803e3d6000fd5b505050506040513d6000823e601f3d908101601f191682016040526119989190810190613b17565b9095509350505b8315611c7a57610120810151608082015160075460405163626885b560e11b81526001600160a01b03928316927faabd2491617d55a54050f8b4413d1f212bcb91f448d495fb64fe3bd94baf1b9a928c926000929091169063c4d10b6a90611a0b908590600401613e97565b60206040518083038186803b158015611a2357600080fd5b505afa158015611a37573d6000803e3d6000fd5b505050506040513d601f19601f82011682018060405250810190611a5b9190613ae1565b60405180604001604052808860e00151600081518110611a8b57634e487b7160e01b600052603260045260246000fd5b60200260200101516001600160a01b03166001600160a01b031681526020018860e00151600181518110611acf57634e487b7160e01b600052603260045260246000fd5b60200260200101516001600160a01b03166001600160a01b031681525060405180604001604052808b600081518110611b1857634e487b7160e01b600052603260045260246000fd5b602002602001015181526020018b60018d51611b34919061415b565b81518110611b5257634e487b7160e01b600052603260045260246000fd5b6020026020010151815250611b643390565b8960a001518f8b60000151604051611b8499989796959493929190613ed8565b60405180910390a36060810151611c75576008546000878152600b602052604081206003015485516001600160a01b039384169363a9059cbb9361010090930416918791611be257634e487b7160e01b600052603260045260246000fd5b602002602001015188611bf5919061415b565b6040516001600160e01b031960e085901b1681526001600160a01b0390921660048301526024820152604401602060405180830381600087803b158015611c3b57600080fd5b505af1158015611c4f573d6000803e3d6000fd5b505050506040513d601f19601f82011682018060405250810190611c739190613afd565b505b611f2c565b60085460405163095ea7b360e01b81526001600160a01b038481166004830152600060248301529091169063095ea7b390604401602060405180830381600087803b158015611cc857600080fd5b505af1158015611cdc573d6000803e3d6000fd5b505050506040513d601f19601f82011682018060405250810190611d009190613afd565b506008546000878152600b60205260409081902060030154905163a9059cbb60e01b81526001600160a01b03610100909204821660048201526024810188905291169063a9059cbb90604401602060405180830381600087803b158015611d6657600080fd5b505af1158015611d7a573d6000803e3d6000fd5b505050506040513d601f19601f82011682018060405250810190611d9e9190613afd565b50610120810151608082015160075460405163626885b560e11b81526001600160a01b03928316927fb3a2e879f0f08374624d8dbddf7f56f6d95250b9b009208652d6751e6f737e3a928c926000929091169063c4d10b6a90611e05908590600401613e97565b60206040518083038186803b158015611e1d57600080fd5b505afa158015611e31573d6000803e3d6000fd5b505050506040513d601f19601f82011682018060405250810190611e559190613ae1565b60405180604001604052808860e00151600081518110611e8557634e487b7160e01b600052603260045260246000fd5b60200260200101516001600160a01b03166001600160a01b031681526020018860e00151600181518110611ec957634e487b7160e01b600052603260045260246000fd5b60200260200101516001600160a01b03166001600160a01b031681525060405180604001604052808d81526020016000815250611f033390565b8960a001518f8b60000151604051611f2399989796959493929190613ed8565b60405180910390a35b50505050505050565b6000611f4183836124c9565b60085460065460405163095ea7b360e01b81526001600160a01b03918216600482015260248101849052929350169063095ea7b390604401602060405180830381600087803b158015611f9357600080fd5b505af1158015611fa7573d6000803e3d6000fd5b505050506040513d601f19601f82011682018060405250810190611fcb9190613afd565b506006546000838152600b602052604090819020600301549051631b6396ab60e31b81526001600160a01b03610100909204821660048201526024810184905291169063db1cb55890604401602060405180830381600087803b15801561203157600080fd5b505af1158015612045573d6000803e3d6000fd5b505050506040513d601f19601f820116820180604052508101906120699190613afd565b50505050565b600080546001600160a01b038381166001600160a01b0319831681178455604051919092169283917f8be0079c531659141344cd1fd0a4f28419497f9722a3daafe3b4186f6b6457e09190a35050565b6000606081805b60208110156121335782856120dc83601f61415b565b602081106120fa57634e487b7160e01b600052603260045260246000fd5b1a60f81b60405160200161210f929190613e25565b6040516020818303038152906040529250808061212b906141e9565b9150506120c6565b50506020015192915050565b600060608161215661215186836126e4565b61270a565b905062ffffff1980821614156121ae5760405162461bcd60e51b815260206004820152601b60248201527f426974636f696e48656c7065723a20766f7574206973206e756c6c00000000006044820152606401610446565b60008060008060006121c1866000612834565b6001600160401b0316905060005b818110156122a9576121e18782612965565b95506121ec86612a7c565b94506121f786612ad9565b935061220284612b23565b925062ffffff19808416141561228557896040516020016122239190613e09565b604051602081830303815290604052805190602001206122488662ffffff1916612bf2565b6040516020016122589190613e09565b6040516020818303038152906040528051906020012014156122805761227d86612c42565b98505b612297565b61229462ffffff198416612bf2565b97505b806122a1816141e9565b9150506121cf565b505050505050509250929050565b6000806122c683600080612c64565b600101519392505050565b6000806122e18360016002612c64565b600201519392505050565b6000806122fc83601a602d612c64565b601401519392505050565b60008061231783602e6049612c64565b601c01519392505050565b6000806122c683604e80612c64565b6000806122fc8360036016612c64565b60008061235183604a604d612c64565b600401519392505050565b6000806122e18360176018612c64565b6000806122c683601980612c64565b60606123a184848460405180606001604052806029815260200161424660299139612ce9565b90505b9392505050565b804710156123fb5760405162461bcd60e51b815260206004820152601d60248201527f416464726573733a20696e73756666696369656e742062616c616e63650000006044820152606401610446565b6000826001600160a01b03168260405160006040518083038185875af1925050503d8060008114612448576040519150601f19603f3d011682016040523d82523d6000602084013e61244d565b606091505b50509050806124c45760405162461bcd60e51b815260206004820152603a60248201527f416464726573733a20756e61626c6520746f2073656e642076616c75652c207260448201527f6563697069656e74206d617920686176652072657665727465640000000000006064820152608401610446565b505050565b6007546000828152600b60205260408082206001015490516307f3f86760e21b8152919283926001600160a01b0390911691631fcfe19c91612512918891309190600401613eaa565b602060405180830381600087803b15801561252c57600080fd5b505af1158015612540573d6000803e3d6000fd5b505050506040513d601f19601f820116820180604052508101906125649190613be8565b6004546000858152600b6020526040812060010154929350916127109161258a91614113565b61259491906140f3565b6000858152600b602052604090206004015490915080156126355760085460405163a9059cbb60e01b8152336004820152602481018390526001600160a01b039091169063a9059cbb90604401602060405180830381600087803b1580156125fb57600080fd5b505af115801561260f573d6000803e3d6000fd5b505050506040513d601f19601f820116820180604052508101906126339190613afd565b505b81156126c55760085460095460405163a9059cbb60e01b81526001600160a01b0391821660048201526024810185905291169063a9059cbb90604401602060405180830381600087803b15801561268b57600080fd5b505af115801561269f573d6000803e3d6000fd5b505050506040513d601f19601f820116820180604052508101906126c39190613afd565b505b806126d0838561415b565b6126da919061415b565b9695505050505050565b8151600090602084016126ff64ffffffffff85168284612e06565b925050505b92915050565b60008181612720815b62ffffff19841690612e4a565b50601884901c6001600160601b031661273f5762ffffff19925061282d565b600061274c856000612834565b9050601885901c6001600160601b03166001600160401b0382166127795762ffffff195b9450505061282d565b600061278483612f24565b60ff16905060005b836001600160401b03168110156127fd578282106127b45762ffffff1996505050505061282d565b60006127d26127c3848661415b565b62ffffff198b1690600e612f7d565b90506127dd81612fb1565b6127e79084614069565b92505080806127f5906141e9565b91505061278c565b508181146128145762ffffff19955050505061282d565b6301000000600160d81b038716600f60d81b1795505050505b5050919050565b60008061284962ffffff198516846001612ffa565b905060fc811161285a579050612704565b8060fd14156128b857612880612871846001614069565b62ffffff19861690600261302a565b915061288b82612f24565b60ff166003146128b3576128b16128ac62ffffff1986168560036000613174565b6131e4565b505b61295e565b8060fe141561290a576128de6128cf846001614069565b62ffffff19861690600461302a565b91506128e982612f24565b60ff166005146128b3576128b16128ac62ffffff1986168560056000613174565b8060ff141561295e57612930612921846001614069565b62ffffff19861690600861302a565b915061293b82612f24565b60ff1660091461295e5761295c6128ac62ffffff1986168560096000613174565b505b5092915050565b600082600f61297381612713565b506000612981866000612834565b6001600160401b03169050601886901c6001600160601b03168186106129dd5760405162461bcd60e51b81526020600482015260116024820152702b37baba103932b0b21037bb32b9393ab760791b6044820152606401610446565b60006129e883612f24565b60ff1690506000805b88811015612a3e57612a15612a06848661415b565b62ffffff198c1690600e612f7d565b9150612a2082612fb1565b612a2a9084614069565b9250612a37600182614069565b90506129f1565b50612a4c6127c3838561415b565b90506000612a5982612fb1565b9050612a6e62ffffff198b168483600d613174565b9a9950505050505050505050565b600081600d612a8a81612713565b506000612a98856008612834565b9050612ad0612aa682612f24565b612ab19060086140ac565b60ff166001600160401b03831660075b62ffffff198916929190613174565b95945050505050565b600081600d612ae781612713565b506000612af5856008612834565b9050612ad0600882612b0684612f24565b60ff16612b139190614081565b6001600160401b03166007612ac1565b6000816007612b3181612713565b506000612b3f856000612834565b90506000612b5662ffffff19871660036001612ffa565b90506053826001600160401b03161180612b7957506004826001600160401b0316105b80612b965750612b9162ffffff198716600180612ffa565b606a14155b80612bc65750612ba7600383614172565b6001600160401b0316612bc362ffffff19881660036001612ffa565b14155b15612bd55762ffffff19612770565b6126da62ffffff19871660046001600160401b038416600c613174565b6060600080612c0a8460181c6001600160601b031690565b60405193508392506001600160601b03169050612c3184612c2c846020614069565b613261565b508181016020016040529052919050565b600081600d612c5081612713565b50610d2562ffffff1985166000600861302a565b60606000835b612c75846001614069565b811015612ce057858181518110612c9c57634e487b7160e01b600052603260045260246000fd5b602001015160f81c60f81b91508282604051602001612cbc929190613e25565b60405160208183030381529060405292508080612cd8906141e9565b915050612c6a565b50509392505050565b606082471015612d4a5760405162461bcd60e51b815260206004820152602660248201527f416464726573733a20696e73756666696369656e742062616c616e636520666f6044820152651c8818d85b1b60d21b6064820152608401610446565b843b612d985760405162461bcd60e51b815260206004820152601d60248201527f416464726573733a2063616c6c20746f206e6f6e2d636f6e74726163740000006044820152606401610446565b600080866001600160a01b03168587604051612db49190613e09565b60006040518083038185875af1925050503d8060008114612df1576040519150601f19603f3d011682016040523d82523d6000602084013e612df6565b606091505b5091509150610d208282866133b9565b600080612e138385614069565b9050604051811115612e23575060005b80612e355762ffffff199150506123a4565b5050606092831b9190911790911b1760181b90565b6000612e5683836133f2565b612f1d576000612e75612e698560d81c90565b64ffffffffff16613415565b9150506000612e8a8464ffffffffff16613415565b6040517f5479706520617373657274696f6e206661696c65642e20476f7420307800000060208201526001600160b01b031960b086811b8216603d8401526c05c408af0e0cac6e8cac84060f609b1b604784015283901b16605482015290925060009150605e015b60405160208183030381529060405290508060405162461bcd60e51b81526004016104469190613e97565b5090919050565b600060fc826001600160401b031611612f3f575060016109bc565b61ffff826001600160401b031611612f59575060036109bc565b63ffffffff826001600160401b031611612f75575060056109bc565b5060096109bc565b60006123a18484612f978760181c6001600160601b031690565b6001600160601b0316612faa919061415b565b8585613174565b600081600e612fbf81612713565b506000612fcd856008612834565b9050806001600160401b0316612fe282612f24565b60ff16612fef9190614069565b612ad0906008614069565b600061300782602061419a565b613012906008614132565b60ff166130208585856134d5565b901c949350505050565b60006123a161303a8585856134d5565b600881811c7eff00ff00ff00ff00ff00ff00ff00ff00ff00ff00ff00ff00ff00ff00ff00ff167fff00ff00ff00ff00ff00ff00ff00ff00ff00ff00ff00ff00ff00ff00ff00ff009290911b9190911617601081811c7dffff0000ffff0000ffff0000ffff0000ffff0000ffff0000ffff0000ffff167fffff0000ffff0000ffff0000ffff0000ffff0000ffff0000ffff0000ffff00009290911b9190911617602081811c7bffffffff00000000ffffffff00000000ffffffff00000000ffffffff167fffffffff00000000ffffffff00000000ffffffff00000000ffffffff000000009290911b9190911617604081811c77ffffffffffffffff0000000000000000ffffffffffffffff1677ffffffffffffffff0000000000000000ffffffffffffffff199290911b9190911617608081811c91901b1790565b60008061318a8660781c6001600160601b031690565b6001600160601b0316905061319e8661362e565b846131a98784614069565b6131b39190614069565b11156131c65762ffffff19915050610d25565b6131d08582614069565b90506126da8364ffffffffff168286612e06565b6060600061320e61320962ffffff19851683601887901c6001600160601b0316612ffa565b613415565b6040517f4e6f6e2d6d696e696d616c2076617220696e742e20476f74203078000000000060208201526dffffffffffffffffffffffffffff19607083901b16603b82015290925060009150604d01612ef2565b600062ffffff1980841614156132ca5760405162461bcd60e51b815260206004820152602860248201527f54797065644d656d566965772f636f7079546f202d204e756c6c20706f696e7460448201526732b9103232b932b360c11b6064820152608401610446565b6132d38361366f565b6133335760405162461bcd60e51b815260206004820152602b60248201527f54797065644d656d566965772f636f7079546f202d20496e76616c696420706f60448201526a34b73a32b9103232b932b360a91b6064820152608401610446565b60006133488460181c6001600160601b031690565b6001600160601b0316905060006133688560781c6001600160601b031690565b6001600160601b0316905060006040519050848111156133885760206060fd5b8285848460045afa506126da61339e8760d81c90565b64ffffffffff60601b606091821b168717901b841760181b90565b606083156133c85750816123a4565b8251156133d85782518084602001fd5b8160405162461bcd60e51b81526004016104469190613e97565b60008164ffffffffff166134068460d81c90565b64ffffffffff16149392505050565b600080601f5b600f8160ff161115613473576000613434826008614132565b60ff1685901c9050613445816136ad565b61ffff16841793508160ff1660101461346057601084901b93505b5061346c60018261419a565b905061341b565b50600f5b60ff8160ff1610156134cf576000613490826008614132565b60ff1685901c90506134a1816136ad565b61ffff16831792508160ff166000146134bc57601083901b92505b506134c860018261419a565b9050613477565b50915091565b600060ff82166134e7575060006123a4565b6134fa8460181c6001600160601b031690565b6001600160601b031661351060ff841685614069565b11156135745761355b61352c8560781c6001600160601b031690565b6001600160601b03166135488660181c6001600160601b031690565b6001600160601b0316858560ff166136dd565b60405162461bcd60e51b81526004016104469190613e97565b60208260ff1611156135ee5760405162461bcd60e51b815260206004820152603a60248201527f54797065644d656d566965772f696e646578202d20417474656d70746564207460448201527f6f20696e646578206d6f7265207468616e2033322062797465730000000000006064820152608401610446565b6008820260006136078660781c6001600160601b031690565b6001600160601b031690506000600160ff1b60001984011d91909501511695945050505050565b60006136438260181c6001600160601b031690565b6136568360781c6001600160601b031690565b61366091906140d1565b6001600160601b031692915050565b600061367b8260d81c90565b64ffffffffff1664ffffffffff1415613696575060006109bc565b60006136a18361362e565b60405110199392505050565b60006136bf60048360ff16901c613807565b60ff161760081b62ffff00166136d482613807565b60ff1617919050565b606060006136ea86613415565b91505060006136f886613415565b915050600061370686613415565b915050600061371486613415565b604080517f54797065644d656d566965772f696e646578202d204f76657272616e20746865602082015274040ecd2caee5c40a6d8d2c6ca40d2e640c2e84060f605b1b818301526001600160d01b031960d098891b811660558301526e040eed2e8d040d8cadccee8d04060f608b1b605b830181905297891b8116606a8301527f2e20417474656d7074656420746f20696e646578206174206f666673657420306070830152600f60fb1b609083015295881b861660918201526097810196909652951b90921660a68401525050601760f91b60ac8201528151808203608d01815260ad90910190915295945050505050565b600060f08083179060ff821614156138235760309150506109bc565b8060ff1660f114156138395760319150506109bc565b8060ff1660f2141561384f5760329150506109bc565b8060ff1660f314156138655760339150506109bc565b8060ff1660f4141561387b5760349150506109bc565b8060ff1660f514156138915760359150506109bc565b8060ff1660f614156138a75760369150506109bc565b8060ff1660f714156138bd5760379150506109bc565b8060ff1660f814156138d35760389150506109bc565b8060ff1660f914156138e95760399150506109bc565b8060ff1660fa14156138ff5760619150506109bc565b8060ff1660fb14156139155760629150506109bc565b8060ff1660fc141561392b5760639150506109bc565b8060ff1660fd14156139415760649150506109bc565b8060ff1660fe14156139575760659150506109bc565b8060ff1660ff141561396d5760669150506109bc565b50919050565b8280548282559060005260206000209081019282156139c8579160200282015b828111156139c857825182546001600160a01b0319166001600160a01b03909116178255602090920191600190910190613993565b506139d49291506139d8565b5090565b5b808211156139d457600081556001016139d9565b805180151581146109bc57600080fd5b80356001600160e01b0319811681146109bc57600080fd5b60008083601f840112613a26578182fd5b5081356001600160401b03811115613a3c578182fd5b602083019150836020828501011115613a5457600080fd5b9250929050565b600082601f830112613a6b578081fd5b81356001600160401b03811115613a8457613a8461421a565b613a97601f8201601f1916602001614039565b818152846020838601011115613aab578283fd5b816020850160208301379081016020019190915292915050565b600060208284031215613ad6578081fd5b81356123a481614230565b600060208284031215613af2578081fd5b81516123a481614230565b600060208284031215613b0e578081fd5b6123a4826139ed565b60008060408385031215613b29578081fd5b613b32836139ed565b91506020808401516001600160401b0380821115613b4e578384fd5b818601915086601f830112613b61578384fd5b815181811115613b7357613b7361421a565b8381029150613b83848301614039565b8181528481019084860184860187018b1015613b9d578788fd5b8795505b83861015613bbf578051835260019590950194918601918601613ba1565b508096505050505050509250929050565b600060208284031215613be1578081fd5b5035919050565b600060208284031215613bf9578081fd5b5051919050565b60008060008060008060008060008060006101008c8e031215613c21578687fd5b613c2a8c6139fd565b9a506001600160401b038060208e01351115613c44578788fd5b613c548e60208f01358f01613a5b565b9a508060408e01351115613c66578788fd5b613c768e60408f01358f01613a15565b909a509850613c8760608e016139fd565b975060808d013596508060a08e01351115613ca0578586fd5b613cb08e60a08f01358f01613a15565b909650945060c08d0135935060e08d0135811015613ccc578283fd5b50613cdd8d60e08e01358e01613a15565b81935080925050509295989b509295989b9093969950565b60008060408385031215613d07578182fd5b823591506020830135613d1981614230565b809150509250929050565b6000815180845260208085019450808401835b83811015613d5c5781516001600160a01b031687529582019590820190600101613d37565b509495945050505050565b8060005b6002811015612069578151845260209384019390910190600101613d6b565b60008151808452613da28160208601602086016141bd565b601f01601f19169290920160200192915050565b600063ffffffff60e01b80871683528551613dd8816004860160208a016141bd565b855190840190613def816004840160208a016141bd565b919094169301600481019390935250506008019392505050565b60008251613e1b8184602087016141bd565b9190910192915050565b60008351613e378184602088016141bd565b6001600160f81b0319939093169190920190815260010192915050565b6000602082526123a46020830184613d24565b600085825284602083015260806040830152613e866080830185613d8a565b905082606083015295945050505050565b6000602082526123a46020830184613d8a565b600060608252613ebd6060830186613d8a565b6001600160a01b039490941660208301525060400152919050565b6000610160808352613eec8184018d613d8a565b60208481018d90526001600160a01b038c1660408601529092509050606083018960005b6002811015613f385781516001600160a01b0316835260208301925090830190600101613f10565b50505050613f4960a0830188613d67565b6001600160a01b03861660e08301528461010083015283610120830152826101408301529a9950505050505050505050565b60208082526021908201527f434345786368616e6765526f757465723a2061646472657373206973207a65726040820152606f60f81b606082015260800190565b6020808252818101527f4f776e61626c653a2063616c6c6572206973206e6f7420746865206f776e6572604082015260600190565b600087825286602083015260c0604083015261401060c0830187613d24565b6001600160a01b03959095166060830152506080810192909252151560a0909101529392505050565b604051601f8201601f191681016001600160401b03811182821017156140615761406161421a565b604052919050565b6000821982111561407c5761407c614204565b500190565b60006001600160401b038083168185168083038211156140a3576140a3614204565b01949350505050565b600060ff821660ff84168060ff038211156140c9576140c9614204565b019392505050565b60006001600160601b038083168185168083038211156140a3576140a3614204565b60008261410e57634e487b7160e01b81526012600452602481fd5b500490565b600081600019048311821515161561412d5761412d614204565b500290565b600060ff821660ff84168160ff048111821515161561415357614153614204565b029392505050565b60008282101561416d5761416d614204565b500390565b60006001600160401b038381169083168181101561419257614192614204565b039392505050565b600060ff821660ff8416808210156141b4576141b4614204565b90039392505050565b60005b838110156141d85781810151838201526020016141c0565b838111156120695750506000910152565b60006000198214156141fd576141fd614204565b5060010190565b634e487b7160e01b600052601160045260246000fd5b634e487b7160e01b600052604160045260246000fd5b6001600160a01b0381168114610c2957600080fdfe416464726573733a206c6f772d6c6576656c2063616c6c20776974682076616c7565206661696c6564a2646970667358221220b2bb7820ffafc21684a0bbe78365390de6acfb0e361b4e394df8839ef4d341da64736f6c63430008020033",
  "devdoc": {
    "kind": "dev",
    "methods": {
      "ccExchange(bytes4,bytes,bytes,bytes4,uint256,bytes,uint256,bytes)": {
        "details": "Mints teleBTC for user if exchanging is not successful",
        "params": {
          "_blockNumber": "Height of the block containing the user request",
          "_index": "Index of transaction containing the user request in the block",
          "_intermediateNodes": "Merkle inclusion proof for transaction containing the user request",
          "_lockerLockingScript": "Script hash of locker that user has sent BTC to it",
          "_locktime": "Lock time of the transaction containing the user request",
          "_version": "Version of the transaction containing the user request",
          "_vin": "Inputs of the transaction containing the user request",
          "_vout": "Outputs of the transaction containing the user request"
        },
        "returns": {
          "_0": ""
        }
      },
      "constructor": {
        "params": {
          "_chainId": "Id of the underlying chain",
          "_lockers": "Lockers' contract address",
          "_protocolPercentageFee": "Percentage amount of protocol fee (min: %0.01)",
          "_relay": "The Relay address to validate data from source chain",
          "_startingBlockNumber": "Requests that are included in a block older than _startingBlockNumber cannot be executed",
          "_teleBTC": "TeleportDAO BTC ERC20 token address",
          "_treasury": "Address of treasury that collects protocol fees"
        }
      },
      "isRequestUsed(bytes32)": {
        "details": "It prevents re-submitting an executed request",
        "params": {
          "_txId": "The transaction ID of request on source chain"
        },
        "returns": {
          "_0": "True if the cc exchange request has been already executed"
        }
      },
      "owner()": {
        "details": "Returns the address of the current owner."
      },
      "renounceOwnership()": {
        "details": "Leaves the contract without owner. It will not be possible to call `onlyOwner` functions anymore. Can only be called by the current owner. NOTE: Renouncing ownership will leave the contract without an owner, thereby removing any functionality that is only available to the owner."
      },
      "setExchangeConnector(uint256,address)": {
        "details": "Only owner can call this. _exchangeConnector can be set to zero to inactive an app",
        "params": {
          "_appId": "AppId of exchange connector",
          "_exchangeConnector": "Address of exchange connector"
        }
      },
      "setInstantRouter(address)": {
        "details": "Only owner can call this",
        "params": {
          "_instantRouter": "The new instantRouter contract address"
        }
      },
      "setLockers(address)": {
        "details": "Only owner can call this",
        "params": {
          "_lockers": "The new lockers contract address"
        }
      },
      "setProtocolPercentageFee(uint256)": {
        "details": "Only owner can call this",
        "params": {
          "_protocolPercentageFee": "Percentage amount of protocol fee"
        }
      },
      "setRelay(address)": {
        "details": "Only owner can call this",
        "params": {
          "_relay": "The new relay contract address"
        }
      },
      "setTeleBTC(address)": {
        "details": "Only owner can call this",
        "params": {
          "_teleBTC": "The new teleBTC contract address"
        }
      },
      "setTreasury(address)": {
        "details": "Only owner can call this",
        "params": {
          "_treasury": "Treasury address"
        }
      },
      "transferOwnership(address)": {
        "details": "Transfers ownership of the contract to a new account (`newOwner`). Can only be called by the current owner."
      }
    },
    "version": 1
  },
  "userdoc": {
    "events": {
      "CCExchange(bytes,uint256,address,address,address[2],uint256[2],uint256,address,uint256,bytes32,uint256)": {
        "notice": "Emits when a cc exchange request gets done"
      },
      "FailedCCExchange(bytes,uint256,address,address,address[2],uint256[2],uint256,address,uint256,bytes32,uint256)": {
        "notice": "Emits when a cc exchange request fails"
      },
      "SetExchangeConnector(uint256,address)": {
        "notice": "Emits when appId for an exchange connector is set"
      }
    },
    "kind": "user",
    "methods": {
      "ccExchange(bytes4,bytes,bytes,bytes4,uint256,bytes,uint256,bytes)": {
        "notice": "Executes a cross-chain exchange request after checking its merkle inclusion proof"
      },
      "constructor": {
        "notice": "Gives default params to initiate cc exchange router"
      },
      "isRequestUsed(bytes32)": {
        "notice": "Check if the cc exchange request has been executed before"
      },
      "setExchangeConnector(uint256,address)": {
        "notice": "Sets appId for an exchange connector"
      },
      "setInstantRouter(address)": {
        "notice": "Changes instantRouter contract address"
      },
      "setLockers(address)": {
        "notice": "Changes lockers contract address"
      },
      "setProtocolPercentageFee(uint256)": {
        "notice": "Setter for protocol percentage fee"
      },
      "setRelay(address)": {
        "notice": "Changes relay contract address"
      },
      "setTeleBTC(address)": {
        "notice": "Changes teleBTC contract address"
      },
      "setTreasury(address)": {
        "notice": "Setter for treasury"
      }
    },
    "version": 1
  },
  "storageLayout": {
    "storage": [
      {
        "astId": 807,
        "contract": "contracts/routers/CCExchangeRouter.sol:CCExchangeRouter",
        "label": "_owner",
        "offset": 0,
        "slot": "0",
        "type": "t_address"
      },
      {
        "astId": 1634,
        "contract": "contracts/routers/CCExchangeRouter.sol:CCExchangeRouter",
        "label": "_status",
        "offset": 0,
        "slot": "1",
        "type": "t_uint256"
      },
      {
        "astId": 21217,
        "contract": "contracts/routers/CCExchangeRouter.sol:CCExchangeRouter",
        "label": "startingBlockNumber",
        "offset": 0,
        "slot": "2",
        "type": "t_uint256"
      },
      {
        "astId": 21220,
        "contract": "contracts/routers/CCExchangeRouter.sol:CCExchangeRouter",
        "label": "chainId",
        "offset": 0,
        "slot": "3",
        "type": "t_uint256"
      },
      {
        "astId": 21223,
        "contract": "contracts/routers/CCExchangeRouter.sol:CCExchangeRouter",
        "label": "protocolPercentageFee",
        "offset": 0,
        "slot": "4",
        "type": "t_uint256"
      },
      {
        "astId": 21226,
        "contract": "contracts/routers/CCExchangeRouter.sol:CCExchangeRouter",
        "label": "relay",
        "offset": 0,
        "slot": "5",
        "type": "t_address"
      },
      {
        "astId": 21229,
        "contract": "contracts/routers/CCExchangeRouter.sol:CCExchangeRouter",
        "label": "instantRouter",
        "offset": 0,
        "slot": "6",
        "type": "t_address"
      },
      {
        "astId": 21232,
        "contract": "contracts/routers/CCExchangeRouter.sol:CCExchangeRouter",
        "label": "lockers",
        "offset": 0,
        "slot": "7",
        "type": "t_address"
      },
      {
        "astId": 21235,
        "contract": "contracts/routers/CCExchangeRouter.sol:CCExchangeRouter",
        "label": "teleBTC",
        "offset": 0,
        "slot": "8",
        "type": "t_address"
      },
      {
        "astId": 21238,
        "contract": "contracts/routers/CCExchangeRouter.sol:CCExchangeRouter",
        "label": "treasury",
        "offset": 0,
        "slot": "9",
        "type": "t_address"
      },
      {
        "astId": 21243,
        "contract": "contracts/routers/CCExchangeRouter.sol:CCExchangeRouter",
        "label": "exchangeConnector",
        "offset": 0,
        "slot": "10",
        "type": "t_mapping(t_uint256,t_address)"
      },
      {
        "astId": 21248,
        "contract": "contracts/routers/CCExchangeRouter.sol:CCExchangeRouter",
        "label": "ccExchangeRequests",
        "offset": 0,
        "slot": "11",
        "type": "t_mapping(t_bytes32,t_struct(ccExchangeRequest)24577_storage)"
      }
    ],
    "types": {
      "t_address": {
        "encoding": "inplace",
        "label": "address",
        "numberOfBytes": "20"
      },
      "t_array(t_address)dyn_storage": {
        "base": "t_address",
        "encoding": "dynamic_array",
        "label": "address[]",
        "numberOfBytes": "32"
      },
      "t_bool": {
        "encoding": "inplace",
        "label": "bool",
        "numberOfBytes": "1"
      },
      "t_bytes32": {
        "encoding": "inplace",
        "label": "bytes32",
        "numberOfBytes": "32"
      },
      "t_mapping(t_bytes32,t_struct(ccExchangeRequest)24577_storage)": {
        "encoding": "mapping",
        "key": "t_bytes32",
        "label": "mapping(bytes32 => struct ICCExchangeRouter.ccExchangeRequest)",
        "numberOfBytes": "32",
        "value": "t_struct(ccExchangeRequest)24577_storage"
      },
      "t_mapping(t_uint256,t_address)": {
        "encoding": "mapping",
        "key": "t_uint256",
        "label": "mapping(uint256 => address)",
        "numberOfBytes": "32",
        "value": "t_address"
      },
      "t_struct(ccExchangeRequest)24577_storage": {
        "encoding": "inplace",
        "label": "struct ICCExchangeRouter.ccExchangeRequest",
        "members": [
          {
            "astId": 24557,
            "contract": "contracts/routers/CCExchangeRouter.sol:CCExchangeRouter",
            "label": "appId",
            "offset": 0,
            "slot": "0",
            "type": "t_uint256"
          },
          {
            "astId": 24559,
            "contract": "contracts/routers/CCExchangeRouter.sol:CCExchangeRouter",
            "label": "inputAmount",
            "offset": 0,
            "slot": "1",
            "type": "t_uint256"
          },
          {
            "astId": 24561,
            "contract": "contracts/routers/CCExchangeRouter.sol:CCExchangeRouter",
            "label": "outputAmount",
            "offset": 0,
            "slot": "2",
            "type": "t_uint256"
          },
          {
            "astId": 24563,
            "contract": "contracts/routers/CCExchangeRouter.sol:CCExchangeRouter",
            "label": "isFixedToken",
            "offset": 0,
            "slot": "3",
            "type": "t_bool"
          },
          {
            "astId": 24565,
            "contract": "contracts/routers/CCExchangeRouter.sol:CCExchangeRouter",
            "label": "recipientAddress",
            "offset": 1,
            "slot": "3",
            "type": "t_address"
          },
          {
            "astId": 24567,
            "contract": "contracts/routers/CCExchangeRouter.sol:CCExchangeRouter",
            "label": "fee",
            "offset": 0,
            "slot": "4",
            "type": "t_uint256"
          },
          {
            "astId": 24569,
            "contract": "contracts/routers/CCExchangeRouter.sol:CCExchangeRouter",
            "label": "isUsed",
            "offset": 0,
            "slot": "5",
            "type": "t_bool"
          },
          {
            "astId": 24572,
            "contract": "contracts/routers/CCExchangeRouter.sol:CCExchangeRouter",
            "label": "path",
            "offset": 0,
            "slot": "6",
            "type": "t_array(t_address)dyn_storage"
          },
          {
            "astId": 24574,
            "contract": "contracts/routers/CCExchangeRouter.sol:CCExchangeRouter",
            "label": "deadline",
            "offset": 0,
            "slot": "7",
            "type": "t_uint256"
          },
          {
            "astId": 24576,
            "contract": "contracts/routers/CCExchangeRouter.sol:CCExchangeRouter",
            "label": "speed",
            "offset": 0,
            "slot": "8",
            "type": "t_uint256"
          }
        ],
        "numberOfBytes": "288"
      },
      "t_uint256": {
        "encoding": "inplace",
        "label": "uint256",
        "numberOfBytes": "32"
      }
    }
  }
}