{
  "address": "0x75bDfE06C89Ab5437f031395e8a9458cCc858f5A",
  "abi": [
    {
      "inputs": [
        {
          "internalType": "address",
          "name": "_teleBTC",
          "type": "address"
        },
        {
          "internalType": "address",
          "name": "_instantRouter",
          "type": "address"
        },
        {
          "internalType": "uint256",
          "name": "_instantPercentageFee",
          "type": "uint256"
        },
        {
          "internalType": "string",
          "name": "_name",
          "type": "string"
        },
        {
          "internalType": "string",
          "name": "_symbol",
          "type": "string"
        }
      ],
      "stateMutability": "nonpayable",
      "type": "constructor"
    },
    {
      "anonymous": false,
      "inputs": [
        {
          "indexed": true,
          "internalType": "address",
          "name": "user",
          "type": "address"
        },
        {
          "indexed": false,
          "internalType": "uint256",
          "name": "teleBTCAmount",
          "type": "uint256"
        },
        {
          "indexed": false,
          "internalType": "uint256",
          "name": "instantPoolTokenAmount",
          "type": "uint256"
        }
      ],
      "name": "AddLiquidity",
      "type": "event"
    },
    {
      "anonymous": false,
      "inputs": [
        {
          "indexed": true,
          "internalType": "address",
          "name": "owner",
          "type": "address"
        },
        {
          "indexed": true,
          "internalType": "address",
          "name": "spender",
          "type": "address"
        },
        {
          "indexed": false,
          "internalType": "uint256",
          "name": "value",
          "type": "uint256"
        }
      ],
      "name": "Approval",
      "type": "event"
    },
    {
      "anonymous": false,
      "inputs": [
        {
          "indexed": true,
          "internalType": "address",
          "name": "instnatToken",
          "type": "address"
        }
      ],
      "name": "CreatedInstantPool",
      "type": "event"
    },
    {
      "anonymous": false,
      "inputs": [
        {
          "indexed": true,
          "internalType": "address",
          "name": "user",
          "type": "address"
        },
        {
          "indexed": false,
          "internalType": "uint256",
          "name": "requestedAmount",
          "type": "uint256"
        },
        {
          "indexed": false,
          "internalType": "uint256",
          "name": "instantFee",
          "type": "uint256"
        }
      ],
      "name": "InstantLoan",
      "type": "event"
    },
    {
      "anonymous": false,
      "inputs": [
        {
          "indexed": true,
          "internalType": "address",
          "name": "previousOwner",
          "type": "address"
        },
        {
          "indexed": true,
          "internalType": "address",
          "name": "newOwner",
          "type": "address"
        }
      ],
      "name": "OwnershipTransferred",
      "type": "event"
    },
    {
      "anonymous": false,
      "inputs": [
        {
          "indexed": true,
          "internalType": "address",
          "name": "user",
          "type": "address"
        },
        {
          "indexed": false,
          "internalType": "uint256",
          "name": "teleBTCAmount",
          "type": "uint256"
        },
        {
          "indexed": false,
          "internalType": "uint256",
          "name": "instantPoolTokenAmount",
          "type": "uint256"
        }
      ],
      "name": "RemoveLiquidity",
      "type": "event"
    },
    {
      "anonymous": false,
      "inputs": [
        {
          "indexed": true,
          "internalType": "address",
          "name": "from",
          "type": "address"
        },
        {
          "indexed": true,
          "internalType": "address",
          "name": "to",
          "type": "address"
        },
        {
          "indexed": false,
          "internalType": "uint256",
          "name": "value",
          "type": "uint256"
        }
      ],
      "name": "Transfer",
      "type": "event"
    },
    {
      "inputs": [
        {
          "internalType": "address",
          "name": "_user",
          "type": "address"
        },
        {
          "internalType": "uint256",
          "name": "_amount",
          "type": "uint256"
        }
      ],
      "name": "addLiquidity",
      "outputs": [
        {
          "internalType": "uint256",
          "name": "",
          "type": "uint256"
        }
      ],
      "stateMutability": "nonpayable",
      "type": "function"
    },
    {
      "inputs": [
        {
          "internalType": "uint256",
          "name": "_amount",
          "type": "uint256"
        }
      ],
      "name": "addLiquidityWithoutMint",
      "outputs": [
        {
          "internalType": "bool",
          "name": "",
          "type": "bool"
        }
      ],
      "stateMutability": "nonpayable",
      "type": "function"
    },
    {
      "inputs": [
        {
          "internalType": "address",
          "name": "owner",
          "type": "address"
        },
        {
          "internalType": "address",
          "name": "spender",
          "type": "address"
        }
      ],
      "name": "allowance",
      "outputs": [
        {
          "internalType": "uint256",
          "name": "",
          "type": "uint256"
        }
      ],
      "stateMutability": "view",
      "type": "function"
    },
    {
      "inputs": [
        {
          "internalType": "address",
          "name": "spender",
          "type": "address"
        },
        {
          "internalType": "uint256",
          "name": "amount",
          "type": "uint256"
        }
      ],
      "name": "approve",
      "outputs": [
        {
          "internalType": "bool",
          "name": "",
          "type": "bool"
        }
      ],
      "stateMutability": "nonpayable",
      "type": "function"
    },
    {
      "inputs": [],
      "name": "availableTeleBTC",
      "outputs": [
        {
          "internalType": "uint256",
          "name": "",
          "type": "uint256"
        }
      ],
      "stateMutability": "view",
      "type": "function"
    },
    {
      "inputs": [
        {
          "internalType": "address",
          "name": "account",
          "type": "address"
        }
      ],
      "name": "balanceOf",
      "outputs": [
        {
          "internalType": "uint256",
          "name": "",
          "type": "uint256"
        }
      ],
      "stateMutability": "view",
      "type": "function"
    },
    {
      "inputs": [],
      "name": "decimals",
      "outputs": [
        {
          "internalType": "uint8",
          "name": "",
          "type": "uint8"
        }
      ],
      "stateMutability": "view",
      "type": "function"
    },
    {
      "inputs": [
        {
          "internalType": "address",
          "name": "spender",
          "type": "address"
        },
        {
          "internalType": "uint256",
          "name": "subtractedValue",
          "type": "uint256"
        }
      ],
      "name": "decreaseAllowance",
      "outputs": [
        {
          "internalType": "bool",
          "name": "",
          "type": "bool"
        }
      ],
      "stateMutability": "nonpayable",
      "type": "function"
    },
    {
      "inputs": [
        {
          "internalType": "uint256",
          "name": "_loanAmount",
          "type": "uint256"
        }
      ],
      "name": "getFee",
      "outputs": [
        {
          "internalType": "uint256",
          "name": "",
          "type": "uint256"
        }
      ],
      "stateMutability": "view",
      "type": "function"
    },
    {
      "inputs": [
        {
          "internalType": "address",
          "name": "_user",
          "type": "address"
        },
        {
          "internalType": "uint256",
          "name": "_amount",
          "type": "uint256"
        }
      ],
      "name": "getLoan",
      "outputs": [
        {
          "internalType": "bool",
          "name": "",
          "type": "bool"
        }
      ],
      "stateMutability": "nonpayable",
      "type": "function"
    },
    {
      "inputs": [
        {
          "internalType": "address",
          "name": "spender",
          "type": "address"
        },
        {
          "internalType": "uint256",
          "name": "addedValue",
          "type": "uint256"
        }
      ],
      "name": "increaseAllowance",
      "outputs": [
        {
          "internalType": "bool",
          "name": "",
          "type": "bool"
        }
      ],
      "stateMutability": "nonpayable",
      "type": "function"
    },
    {
      "inputs": [],
      "name": "instantPercentageFee",
      "outputs": [
        {
          "internalType": "uint256",
          "name": "",
          "type": "uint256"
        }
      ],
      "stateMutability": "view",
      "type": "function"
    },
    {
      "inputs": [],
      "name": "instantRouter",
      "outputs": [
        {
          "internalType": "address",
          "name": "",
          "type": "address"
        }
      ],
      "stateMutability": "view",
      "type": "function"
    },
    {
      "inputs": [],
      "name": "name",
      "outputs": [
        {
          "internalType": "string",
          "name": "",
          "type": "string"
        }
      ],
      "stateMutability": "view",
      "type": "function"
    },
    {
      "inputs": [],
      "name": "owner",
      "outputs": [
        {
          "internalType": "address",
          "name": "",
          "type": "address"
        }
      ],
      "stateMutability": "view",
      "type": "function"
    },
    {
      "inputs": [
        {
          "internalType": "address",
          "name": "_user",
          "type": "address"
        },
        {
          "internalType": "uint256",
          "name": "_instantPoolTokenAmount",
          "type": "uint256"
        }
      ],
      "name": "removeLiquidity",
      "outputs": [
        {
          "internalType": "uint256",
          "name": "",
          "type": "uint256"
        }
      ],
      "stateMutability": "nonpayable",
      "type": "function"
    },
    {
      "inputs": [],
      "name": "renounceOwnership",
      "outputs": [],
      "stateMutability": "nonpayable",
      "type": "function"
    },
    {
      "inputs": [
        {
          "internalType": "uint256",
          "name": "_instantPercentageFee",
          "type": "uint256"
        }
      ],
      "name": "setInstantPercentageFee",
      "outputs": [],
      "stateMutability": "nonpayable",
      "type": "function"
    },
    {
      "inputs": [
        {
          "internalType": "address",
          "name": "_instantRouter",
          "type": "address"
        }
      ],
      "name": "setInstantRouter",
      "outputs": [],
      "stateMutability": "nonpayable",
      "type": "function"
    },
    {
      "inputs": [
        {
          "internalType": "address",
          "name": "_teleBTC",
          "type": "address"
        }
      ],
      "name": "setTeleBTC",
      "outputs": [],
      "stateMutability": "nonpayable",
      "type": "function"
    },
    {
      "inputs": [],
      "name": "symbol",
      "outputs": [
        {
          "internalType": "string",
          "name": "",
          "type": "string"
        }
      ],
      "stateMutability": "view",
      "type": "function"
    },
    {
      "inputs": [],
      "name": "teleBTC",
      "outputs": [
        {
          "internalType": "address",
          "name": "",
          "type": "address"
        }
      ],
      "stateMutability": "view",
      "type": "function"
    },
    {
      "inputs": [],
      "name": "totalAddedTeleBTC",
      "outputs": [
        {
          "internalType": "uint256",
          "name": "",
          "type": "uint256"
        }
      ],
      "stateMutability": "view",
      "type": "function"
    },
    {
      "inputs": [],
      "name": "totalSupply",
      "outputs": [
        {
          "internalType": "uint256",
          "name": "",
          "type": "uint256"
        }
      ],
      "stateMutability": "view",
      "type": "function"
    },
    {
      "inputs": [],
      "name": "totalUnpaidLoan",
      "outputs": [
        {
          "internalType": "uint256",
          "name": "",
          "type": "uint256"
        }
      ],
      "stateMutability": "view",
      "type": "function"
    },
    {
      "inputs": [
        {
          "internalType": "address",
          "name": "recipient",
          "type": "address"
        },
        {
          "internalType": "uint256",
          "name": "amount",
          "type": "uint256"
        }
      ],
      "name": "transfer",
      "outputs": [
        {
          "internalType": "bool",
          "name": "",
          "type": "bool"
        }
      ],
      "stateMutability": "nonpayable",
      "type": "function"
    },
    {
      "inputs": [
        {
          "internalType": "address",
          "name": "sender",
          "type": "address"
        },
        {
          "internalType": "address",
          "name": "recipient",
          "type": "address"
        },
        {
          "internalType": "uint256",
          "name": "amount",
          "type": "uint256"
        }
      ],
      "name": "transferFrom",
      "outputs": [
        {
          "internalType": "bool",
          "name": "",
          "type": "bool"
        }
      ],
      "stateMutability": "nonpayable",
      "type": "function"
    },
    {
      "inputs": [
        {
          "internalType": "address",
          "name": "newOwner",
          "type": "address"
        }
      ],
      "name": "transferOwnership",
      "outputs": [],
      "stateMutability": "nonpayable",
      "type": "function"
    }
  ],
  "transactionHash": "0xc1796e48504d9fae41581837ace1513eff4ab0453c1c41c18272c600c6840fa9",
  "args": [
    "0x06C1B1CFBDA08547EaeDdc808d8Fe92b6fb87B33",
    "0xCdDF4c5af1748A4f962Cfa96B541f60cE9D1Cad4",
    50,
    "InstantPoolToken",
    "IPT"
  ],
  "numDeployments": 1,
  "solcInputHash": "4f511ac1c119e8e9520a01cfa46dea87",
  "bytecode": "0x60806040523480156200001157600080fd5b5060405162001be538038062001be583398101604081905262000034916200035c565b81816000826003908051906020019062000050929190620001e6565b50815162000066906004906020850190620001e6565b5080156200007a576200007a338262000103565b50505062000097620000916200019060201b60201c565b62000194565b6001600655600780546001600160a01b038088166001600160a01b03199283168117909355600a80549188169190921617905560088490556040517fe23e0079f9641e026de850166f88913c635aeec5ccabb427c5775d3717c3216a90600090a250505050506200046b565b8060026000828254620001179190620003f3565b90915550506001600160a01b0382166000908152602081905260408120805483929062000146908490620003f3565b90915550506040518181526001600160a01b038316906000907fddf252ad1be2c89b69c2b068fc378daa952ba7f163c4a11628f55a4df523b3ef9060200160405180910390a35050565b3390565b600580546001600160a01b038381166001600160a01b0319831681179093556040519116919082907f8be0079c531659141344cd1fd0a4f28419497f9722a3daafe3b4186f6b6457e090600090a35050565b828054620001f49062000418565b90600052602060002090601f01602090048101928262000218576000855562000263565b82601f106200023357805160ff191683800117855562000263565b8280016001018555821562000263579182015b828111156200026357825182559160200191906001019062000246565b506200027192915062000275565b5090565b5b8082111562000271576000815560010162000276565b80516001600160a01b0381168114620002a457600080fd5b919050565b600082601f830112620002ba578081fd5b81516001600160401b0380821115620002d757620002d762000455565b604051601f8301601f19908116603f0116810190828211818310171562000302576200030262000455565b816040528381526020925086838588010111156200031e578485fd5b8491505b8382101562000341578582018301518183018401529082019062000322565b838211156200035257848385830101525b9695505050505050565b600080600080600060a0868803121562000374578081fd5b6200037f866200028c565b94506200038f602087016200028c565b6040870151606088015191955093506001600160401b0380821115620003b3578283fd5b620003c189838a01620002a9565b93506080880151915080821115620003d7578283fd5b50620003e688828901620002a9565b9150509295509295909350565b600082198211156200041357634e487b7160e01b81526011600452602481fd5b500190565b6002810460018216806200042d57607f821691505b602082108114156200044f57634e487b7160e01b600052602260045260246000fd5b50919050565b634e487b7160e01b600052604160045260246000fd5b61176a806200047b6000396000f3fe608060405234801561001057600080fd5b50600436106101c35760003560e01c80638d3d78cd116100f9578063cfff37f811610097578063e35a0a8811610071578063e35a0a88146103ae578063e49bce3c146103c1578063f2fde38b146103ca578063fcee45f4146103dd576101c3565b8063cfff37f814610359578063dcebe9bb1461036c578063dd62ed3e14610375576101c3565b8063a1c51586116100d3578063a1c515861461030d578063a201ccf614610320578063a457c2d714610333578063a9059cbb14610346576101c3565b80638d3d78cd146102c95780638da5cb5b146102f457806395d89b4114610305576101c3565b80633950935111610166578063715018a611610140578063715018a61461029357806375e670051461029b5780637f0f1817146102a3578063870ba6cf146102b6576101c3565b8063395093511461025a578063566887001461026d57806370a0823114610280576101c3565b806318160ddd116101a257806318160ddd1461021e57806323b872dd1461023057806329894ff114610243578063313ce5671461024b576101c3565b8062440914146101c857806306fdde03146101dd578063095ea7b3146101fb575b600080fd5b6101db6101d6366004611545565b6103f0565b005b6101e5610428565b6040516101f29190611575565b60405180910390f35b61020e6102093660046114fc565b6104ba565b60405190151581526020016101f2565b6002545b6040519081526020016101f2565b61020e61023e3660046114c1565b6104d0565b61022261057f565b604051601281526020016101f2565b61020e6102683660046114fc565b610600565b61022261027b3660046114fc565b610637565b61022261028e36600461146e565b6107be565b6101db6107dd565b610222610813565b6101db6102b136600461146e565b610845565b6101db6102c436600461146e565b610891565b6007546102dc906001600160a01b031681565b6040516001600160a01b0390911681526020016101f2565b6005546001600160a01b03166102dc565b6101e56108dd565b61020e61031b3660046114fc565b6108ec565b61022261032e3660046114fc565b610ae6565b61020e6103413660046114fc565b610c92565b61020e6103543660046114fc565b610d2d565b61020e610367366004611545565b610d3a565b61022260095481565b61022261038336600461148f565b6001600160a01b03918216600090815260016020908152604080832093909416825291909152205490565b600a546102dc906001600160a01b031681565b61022260085481565b6101db6103d836600461146e565b610e72565b6102226103eb366004611545565b610f0d565b6005546001600160a01b031633146104235760405162461bcd60e51b815260040161041a90611609565b60405180910390fd5b600855565b606060038054610437906116e3565b80601f0160208091040260200160405190810160405280929190818152602001828054610463906116e3565b80156104b05780601f10610485576101008083540402835291602001916104b0565b820191906000526020600020905b81548152906001019060200180831161049357829003601f168201915b5050505050905090565b60006104c7338484610f30565b50600192915050565b6001600160a01b0383166000908152600160209081526040808320338452909152812054828110156105555760405162461bcd60e51b815260206004820152602860248201527f45524332303a207472616e7366657220616d6f756e74206578636565647320616044820152676c6c6f77616e636560c01b606482015260840161041a565b610560858585611055565b610574853361056f86856116cc565b610f30565b506001949350505050565b6007546040516370a0823160e01b81523060048201526000916001600160a01b0316906370a082319060240160206040518083038186803b1580156105c357600080fd5b505afa1580156105d7573d6000803e3d6000fd5b505050506040513d601f19601f820116820180604052508101906105fb919061155d565b905090565b3360008181526001602090815260408083206001600160a01b038716845290915281205490916104c791859061056f908690611675565b60006002600654141561065c5760405162461bcd60e51b815260040161041a9061163e565b60026006558161067e5760405162461bcd60e51b815260040161041a906115c8565b6007546000906001600160a01b03166323b872dd336040516001600160e01b031960e084901b1681526001600160a01b03909116600482015230602482015260448101869052606401602060405180830381600087803b1580156106e157600080fd5b505af11580156106f5573d6000803e3d6000fd5b505050506040513d601f19601f820116820180604052508101906107199190611525565b5060095415806107295750600254155b15610735575081610752565b60095460025461074590856116ad565b61074f919061168d565b90505b826009546107609190611675565b60095561076d848261122d565b60408051848152602081018390526001600160a01b038616917f06239653922ac7bea6aa2b19dc486b9361821d37712eb796adfd38d81de278ca91015b60405180910390a260016006559392505050565b6001600160a01b0381166000908152602081905260409020545b919050565b6005546001600160a01b031633146108075760405162461bcd60e51b815260040161041a90611609565b61081160006112b6565b565b60008061081e61057f565b905080600954101561083157600061083f565b8060095461083f91906116cc565b91505090565b6005546001600160a01b0316331461086f5760405162461bcd60e51b815260040161041a90611609565b600780546001600160a01b0319166001600160a01b0392909216919091179055565b6005546001600160a01b031633146108bb5760405162461bcd60e51b815260040161041a90611609565b600a80546001600160a01b0319166001600160a01b0392909216919091179055565b606060048054610437906116e3565b6000600260065414156109115760405162461bcd60e51b815260040161041a9061163e565b6002600655600a546001600160a01b0316336001600160a01b0316146109845760405162461bcd60e51b815260206004820152602260248201527f496e7374616e74506f6f6c3a2073656e646572206973206e6f7420616c6c6f77604482015261195960f21b606482015260840161041a565b8161098d61057f565b10156109ec5760405162461bcd60e51b815260206004820152602860248201527f496e7374616e74506f6f6c3a206c6971756964697479206973206e6f7420737560448201526719999a58da595b9d60c21b606482015260840161041a565b6000612710600854846109ff91906116ad565b610a09919061168d565b60075460405163a9059cbb60e01b81526001600160a01b0387811660048301526024820187905292935091169063a9059cbb90604401602060405180830381600087803b158015610a5957600080fd5b505af1158015610a6d573d6000803e3d6000fd5b505050506040513d601f19601f82011682018060405250810190610a919190611525565b5060408051848152602081018390526001600160a01b038616917f0b4a3e47d690ec5b072e50757ed5caa5883ea1453ec15bca511e106f721a351f910160405180910390a26001915050600160065592915050565b600060026006541415610b0b5760405162461bcd60e51b815260040161041a9061163e565b600260065581610b2d5760405162461bcd60e51b815260040161041a906115c8565b81610b373361028e565b1015610b945760405162461bcd60e51b815260206004820152602660248201527f496e7374616e74506f6f6c3a2062616c616e6365206973206e6f7420737566666044820152651a58da595b9d60d21b606482015260840161041a565b6000610b9f60025490565b600954610bac90856116ad565b610bb6919061168d565b905080600954610bc691906116cc565b60095560075460405163a9059cbb60e01b81526001600160a01b038681166004830152602482018490529091169063a9059cbb90604401602060405180830381600087803b158015610c1757600080fd5b505af1158015610c2b573d6000803e3d6000fd5b505050506040513d601f19601f82011682018060405250810190610c4f9190611525565b50610c5a3384611308565b604080518281526020810185905233917f0fbf06c058b90cb038a618f8c2acbf6145f8b3570fd1fa56abb8f0f3f05b36e891016107aa565b3360009081526001602090815260408083206001600160a01b038616845290915281205482811015610d145760405162461bcd60e51b815260206004820152602560248201527f45524332303a2064656372656173656420616c6c6f77616e63652062656c6f77604482015264207a65726f60d81b606482015260840161041a565b610d23338561056f86856116cc565b5060019392505050565b60006104c7338484611055565b600060026006541415610d5f5760405162461bcd60e51b815260040161041a9061163e565b600260065581610d815760405162461bcd60e51b815260040161041a906115c8565b6007546001600160a01b03166323b872dd336040516001600160e01b031960e084901b1681526001600160a01b03909116600482015230602482015260448101859052606401602060405180830381600087803b158015610de157600080fd5b505af1158015610df5573d6000803e3d6000fd5b505050506040513d601f19601f82011682018060405250810190610e199190611525565b5081600954610e289190611675565b600955604080518381526000602082015233917f06239653922ac7bea6aa2b19dc486b9361821d37712eb796adfd38d81de278ca910160405180910390a250600180600655919050565b6005546001600160a01b03163314610e9c5760405162461bcd60e51b815260040161041a90611609565b6001600160a01b038116610f015760405162461bcd60e51b815260206004820152602660248201527f4f776e61626c653a206e6577206f776e657220697320746865207a65726f206160448201526564647265737360d01b606482015260840161041a565b610f0a816112b6565b50565b600061271060085483610f2091906116ad565b610f2a919061168d565b92915050565b6001600160a01b038316610f925760405162461bcd60e51b8152602060048201526024808201527f45524332303a20617070726f76652066726f6d20746865207a65726f206164646044820152637265737360e01b606482015260840161041a565b6001600160a01b038216610ff35760405162461bcd60e51b815260206004820152602260248201527f45524332303a20617070726f766520746f20746865207a65726f206164647265604482015261737360f01b606482015260840161041a565b6001600160a01b0383811660008181526001602090815260408083209487168084529482529182902085905590518481527f8c5be1e5ebec7d5bd14f71427d1e84f3dd0314c0f7b2291e5b200ac8c7c3b92591015b60405180910390a3505050565b6001600160a01b0383166110b95760405162461bcd60e51b815260206004820152602560248201527f45524332303a207472616e736665722066726f6d20746865207a65726f206164604482015264647265737360d81b606482015260840161041a565b6001600160a01b03821661111b5760405162461bcd60e51b815260206004820152602360248201527f45524332303a207472616e7366657220746f20746865207a65726f206164647260448201526265737360e81b606482015260840161041a565b6001600160a01b038316600090815260208190526040902054818110156111935760405162461bcd60e51b815260206004820152602660248201527f45524332303a207472616e7366657220616d6f756e7420657863656564732062604482015265616c616e636560d01b606482015260840161041a565b61119d82826116cc565b6001600160a01b0380861660009081526020819052604080822093909355908516815290812080548492906111d3908490611675565b92505081905550826001600160a01b0316846001600160a01b03167fddf252ad1be2c89b69c2b068fc378daa952ba7f163c4a11628f55a4df523b3ef8460405161121f91815260200190565b60405180910390a350505050565b806002600082825461123f9190611675565b90915550506001600160a01b0382166000908152602081905260408120805483929061126c908490611675565b90915550506040518181526001600160a01b038316906000907fddf252ad1be2c89b69c2b068fc378daa952ba7f163c4a11628f55a4df523b3ef9060200160405180910390a35050565b600580546001600160a01b038381166001600160a01b0319831681179093556040519116919082907f8be0079c531659141344cd1fd0a4f28419497f9722a3daafe3b4186f6b6457e090600090a35050565b6001600160a01b0382166113685760405162461bcd60e51b815260206004820152602160248201527f45524332303a206275726e2066726f6d20746865207a65726f206164647265736044820152607360f81b606482015260840161041a565b6001600160a01b038216600090815260208190526040902054818110156113dc5760405162461bcd60e51b815260206004820152602260248201527f45524332303a206275726e20616d6f756e7420657863656564732062616c616e604482015261636560f01b606482015260840161041a565b6113e682826116cc565b6001600160a01b038416600090815260208190526040812091909155600280548492906114149084906116cc565b90915550506040518281526000906001600160a01b038516907fddf252ad1be2c89b69c2b068fc378daa952ba7f163c4a11628f55a4df523b3ef90602001611048565b80356001600160a01b03811681146107d857600080fd5b60006020828403121561147f578081fd5b61148882611457565b9392505050565b600080604083850312156114a1578081fd5b6114aa83611457565b91506114b860208401611457565b90509250929050565b6000806000606084860312156114d5578081fd5b6114de84611457565b92506114ec60208501611457565b9150604084013590509250925092565b6000806040838503121561150e578182fd5b61151783611457565b946020939093013593505050565b600060208284031215611536578081fd5b81518015158114611488578182fd5b600060208284031215611556578081fd5b5035919050565b60006020828403121561156e578081fd5b5051919050565b6000602080835283518082850152825b818110156115a157858101830151858201604001528201611585565b818111156115b25783604083870101525b50601f01601f1916929092016040019392505050565b60208082526021908201527f496e7374616e74506f6f6c3a20696e70757420616d6f756e74206973207a65726040820152606f60f81b606082015260800190565b6020808252818101527f4f776e61626c653a2063616c6c6572206973206e6f7420746865206f776e6572604082015260600190565b6020808252601f908201527f5265656e7472616e637947756172643a207265656e7472616e742063616c6c00604082015260600190565b600082198211156116885761168861171e565b500190565b6000826116a857634e487b7160e01b81526012600452602481fd5b500490565b60008160001904831182151516156116c7576116c761171e565b500290565b6000828210156116de576116de61171e565b500390565b6002810460018216806116f757607f821691505b6020821081141561171857634e487b7160e01b600052602260045260246000fd5b50919050565b634e487b7160e01b600052601160045260246000fdfea26469706673582212207e04a5482d0f86696f0a56a9cd22c22731718f897b3ee37518551bc5c57f45f964736f6c63430008020033",
  "devdoc": {
    "kind": "dev",
    "methods": {
      "addLiquidity(address,uint256)": {
        "details": "@param _user          Address of user who receives instant pool token",
        "params": {
          "_amount": "Amount of liquidity that user wants to add"
        },
        "returns": {
          "_0": "Amount of instant pool token that user receives"
        }
      },
      "addLiquidityWithoutMint(uint256)": {
        "details": "Updates totalAddedTeleBTC (transferring teleBTC directly does not update it)",
        "params": {
          "_amount": "Amount of liquidity that user wants to add"
        },
        "returns": {
          "_0": "True if liquidity is added successfully"
        }
      },
      "allowance(address,address)": {
        "details": "See {IERC20-allowance}."
      },
      "approve(address,uint256)": {
        "details": "See {IERC20-approve}. Requirements: - `spender` cannot be the zero address."
      },
      "availableTeleBTC()": {
        "returns": {
          "_0": "Available amount of teleBTC that can be borrowed"
        }
      },
      "balanceOf(address)": {
        "details": "See {IERC20-balanceOf}."
      },
      "decimals()": {
        "details": "Returns the number of decimals used to get its user representation. For example, if `decimals` equals `2`, a balance of `505` tokens should be displayed to a user as `5,05` (`505 / 10 ** 2`). Tokens usually opt for a value of 18, imitating the relationship between Ether and Wei. This is the value {ERC20} uses, unless this function is overridden; NOTE: This information is only used for _display_ purposes: it in no way affects any of the arithmetic of the contract, including {IERC20-balanceOf} and {IERC20-transfer}."
      },
      "decreaseAllowance(address,uint256)": {
        "details": "Atomically decreases the allowance granted to `spender` by the caller. This is an alternative to {approve} that can be used as a mitigation for problems described in {IERC20-approve}. Emits an {Approval} event indicating the updated allowance. Requirements: - `spender` cannot be the zero address. - `spender` must have allowance for the caller of at least `subtractedValue`."
      },
      "getLoan(address,uint256)": {
        "details": "Only instant router contract can call this",
        "params": {
          "_amount": "Amount of requested loan",
          "_user": "Address of user who wants loan"
        },
        "returns": {
          "_0": "Amount of given loan after reducing the fee"
        }
      },
      "increaseAllowance(address,uint256)": {
        "details": "Atomically increases the allowance granted to `spender` by the caller. This is an alternative to {approve} that can be used as a mitigation for problems described in {IERC20-approve}. Emits an {Approval} event indicating the updated allowance. Requirements: - `spender` cannot be the zero address."
      },
      "name()": {
        "details": "Returns the name of the token."
      },
      "owner()": {
        "details": "Returns the address of the current owner."
      },
      "removeLiquidity(address,uint256)": {
        "details": "@param _user                          Address of user who receives teleBTC",
        "params": {
          "_instantPoolTokenAmount": "Amount of instant pool token that is burnt"
        },
        "returns": {
          "_0": "Amount of teleBTC that user receives"
        }
      },
      "renounceOwnership()": {
        "details": "Leaves the contract without owner. It will not be possible to call `onlyOwner` functions anymore. Can only be called by the current owner. NOTE: Renouncing ownership will leave the contract without an owner, thereby removing any functionality that is only available to the owner."
      },
      "setInstantPercentageFee(uint256)": {
        "details": "Only current owner can call this",
        "params": {
          "_instantPercentageFee": "The new percentage fee"
        }
      },
      "setInstantRouter(address)": {
        "details": "Only owner can call this",
        "params": {
          "_instantRouter": "The new instant router contract address"
        }
      },
      "setTeleBTC(address)": {
        "details": "Only owner can call this",
        "params": {
          "_teleBTC": "The new teleBTC contract address"
        }
      },
      "symbol()": {
        "details": "Returns the symbol of the token, usually a shorter version of the name."
      },
      "totalSupply()": {
        "details": "See {IERC20-totalSupply}."
      },
      "totalUnpaidLoan()": {
        "returns": {
          "_0": "Amount of teleBTC that has been borrowed but has not been paid back"
        }
      },
      "transfer(address,uint256)": {
        "details": "See {IERC20-transfer}. Requirements: - `recipient` cannot be the zero address. - the caller must have a balance of at least `amount`."
      },
      "transferFrom(address,address,uint256)": {
        "details": "See {IERC20-transferFrom}. Emits an {Approval} event indicating the updated allowance. This is not required by the EIP. See the note at the beginning of {ERC20}. Requirements: - `sender` and `recipient` cannot be the zero address. - `sender` must have a balance of at least `amount`. - the caller must have allowance for ``sender``'s tokens of at least `amount`."
      },
      "transferOwnership(address)": {
        "details": "Transfers ownership of the contract to a new account (`newOwner`). Can only be called by the current owner."
      }
    },
    "version": 1
  },
  "userdoc": {
    "events": {
      "AddLiquidity(address,uint256,uint256)": {
        "notice": "emits when some liquidity gets added to the pool"
      },
      "InstantLoan(address,uint256,uint256)": {
        "notice": "Adds collateral to collateral pool"
      },
      "RemoveLiquidity(address,uint256,uint256)": {
        "notice": "Emits when some liquidity gets removed from the pool"
      }
    },
    "kind": "user",
    "methods": {
      "addLiquidity(address,uint256)": {
        "notice": "Adds liquidity to instant pool"
      },
      "addLiquidityWithoutMint(uint256)": {
        "notice": "Adds liquidity to instant pool without minting instant pool tokens"
      },
      "availableTeleBTC()": {
        "notice": "Gives available teleBTC amount"
      },
      "getLoan(address,uint256)": {
        "notice": "Gives loan to user"
      },
      "removeLiquidity(address,uint256)": {
        "notice": "Removes liquidity from instant pool"
      },
      "setInstantPercentageFee(uint256)": {
        "notice": "Changes instant loan fee"
      },
      "setInstantRouter(address)": {
        "notice": "Changes instant router contract address"
      },
      "setTeleBTC(address)": {
        "notice": "Changes teleBTC contract address"
      },
      "totalUnpaidLoan()": {
        "notice": "Gives the unpaid loans amount"
      }
    },
    "version": 1
  },
  "storageLayout": {
    "storage": [
      {
        "astId": 3140,
        "contract": "contracts/pools/InstantPool.sol:InstantPool",
        "label": "_balances",
        "offset": 0,
        "slot": "0",
        "type": "t_mapping(t_address,t_uint256)"
      },
      {
        "astId": 3146,
        "contract": "contracts/pools/InstantPool.sol:InstantPool",
        "label": "_allowances",
        "offset": 0,
        "slot": "1",
        "type": "t_mapping(t_address,t_mapping(t_address,t_uint256))"
      },
      {
        "astId": 3148,
        "contract": "contracts/pools/InstantPool.sol:InstantPool",
        "label": "_totalSupply",
        "offset": 0,
        "slot": "2",
        "type": "t_uint256"
      },
      {
        "astId": 3150,
        "contract": "contracts/pools/InstantPool.sol:InstantPool",
        "label": "_name",
        "offset": 0,
        "slot": "3",
        "type": "t_string_storage"
      },
      {
        "astId": 3152,
        "contract": "contracts/pools/InstantPool.sol:InstantPool",
        "label": "_symbol",
        "offset": 0,
        "slot": "4",
        "type": "t_string_storage"
      },
      {
        "astId": 807,
        "contract": "contracts/pools/InstantPool.sol:InstantPool",
        "label": "_owner",
        "offset": 0,
        "slot": "5",
        "type": "t_address"
      },
      {
        "astId": 1634,
        "contract": "contracts/pools/InstantPool.sol:InstantPool",
        "label": "_status",
        "offset": 0,
        "slot": "6",
        "type": "t_uint256"
      },
      {
        "astId": 15448,
        "contract": "contracts/pools/InstantPool.sol:InstantPool",
        "label": "teleBTC",
        "offset": 0,
        "slot": "7",
        "type": "t_address"
      },
      {
        "astId": 15451,
        "contract": "contracts/pools/InstantPool.sol:InstantPool",
        "label": "instantPercentageFee",
        "offset": 0,
        "slot": "8",
        "type": "t_uint256"
      },
      {
        "astId": 15454,
        "contract": "contracts/pools/InstantPool.sol:InstantPool",
        "label": "totalAddedTeleBTC",
        "offset": 0,
        "slot": "9",
        "type": "t_uint256"
      },
      {
        "astId": 15457,
        "contract": "contracts/pools/InstantPool.sol:InstantPool",
        "label": "instantRouter",
        "offset": 0,
        "slot": "10",
        "type": "t_address"
      }
    ],
    "types": {
      "t_address": {
        "encoding": "inplace",
        "label": "address",
        "numberOfBytes": "20"
      },
      "t_mapping(t_address,t_mapping(t_address,t_uint256))": {
        "encoding": "mapping",
        "key": "t_address",
        "label": "mapping(address => mapping(address => uint256))",
        "numberOfBytes": "32",
        "value": "t_mapping(t_address,t_uint256)"
      },
      "t_mapping(t_address,t_uint256)": {
        "encoding": "mapping",
        "key": "t_address",
        "label": "mapping(address => uint256)",
        "numberOfBytes": "32",
        "value": "t_uint256"
      },
      "t_string_storage": {
        "encoding": "bytes",
        "label": "string",
        "numberOfBytes": "32"
      },
      "t_uint256": {
        "encoding": "inplace",
        "label": "uint256",
        "numberOfBytes": "32"
      }
    }
  }
}