{
  "address": "0xBDB73A7C79cc2E6FB8fB744627BfAd69a6160357",
  "abi": [
    {
      "inputs": [
        {
          "internalType": "address",
          "name": "_relay",
          "type": "address"
        }
      ],
      "name": "finalizationParameter",
      "outputs": [
        {
          "internalType": "uint256",
          "name": "",
          "type": "uint256"
        }
      ],
      "stateMutability": "view",
      "type": "function"
    },
    {
      "inputs": [
        {
          "internalType": "address",
          "name": "_relay",
          "type": "address"
        },
        {
          "internalType": "uint256",
          "name": "_blockNumber",
          "type": "uint256"
        }
      ],
      "name": "getFinalizedBlockHeaderFee",
      "outputs": [
        {
          "internalType": "uint256",
          "name": "",
          "type": "uint256"
        }
      ],
      "stateMutability": "view",
      "type": "function"
    },
    {
      "inputs": [
        {
          "internalType": "address",
          "name": "_relay",
          "type": "address"
        }
      ],
      "name": "lastSubmittedHeight",
      "outputs": [
        {
          "internalType": "uint256",
          "name": "",
          "type": "uint256"
        }
      ],
      "stateMutability": "view",
      "type": "function"
    }
  ],
  "transactionHash": "0x09f18ba90995b29f76cfaa66a22cd56c236ec3aaa988c25aa4901351ec8cb010",
  "args": [],
  "numDeployments": 1,
  "solcInputHash": "0343131eed077976e2216bdb6340d37b",
  "bytecode": "0x6123ef61003a600b82828239805160001a60731461002d57634e487b7160e01b600052600060045260246000fd5b30600052607381538281f3fe73000000000000000000000000000000000000000030146080604052600436106100875760003560e01c80637ebc2327116100655780637ebc2327146100f45780638d9da59914610124578063a779a39214610137578063e87c58821461014a57610087565b806310889dc31461008c578063191e28dc146100b257806352335c02146100d4575b600080fd5b61009f61009a366004611dbc565b61016a565b6040519081526020015b60405180910390f35b8180156100be57600080fd5b506100d26100cd366004611fb1565b6101e5565b005b8180156100e057600080fd5b506100d26100ef366004611e85565b61026f565b81801561010057600080fd5b5061011461010f366004611dd6565b610481565b60405190151581526020016100a9565b61009f610132366004611e3c565b61055a565b61009f610145366004611dbc565b6105e5565b81801561015657600080fd5b506100d2610165366004611ed2565b610620565b6000816001600160a01b0316632f796d906040518163ffffffff1660e01b815260040160206040518083038186803b1580156101a557600080fd5b505afa1580156101b9573d6000803e3d6000fd5b505050506040513d601f19601f820116820180604052508101906101dd919061201a565b90505b919050565b60006101f1848461088b565b6001600160401b031690506000610207856109c4565b9050811580159061022157508061021f87600161224e565b145b15610244576000838152602088905260409020805460ff19166001179055610266565b80861415610266576000838152602088905260409020805460ff191660011790555b50505050505050565b6001600160a01b03851660009081526020879052604090208054859081106102a757634e487b7160e01b600052603260045260246000fd5b600091825260209091206005600790920201015460ff16156103105760405162461bcd60e51b815260206004820152601d60248201527f4275726e526f757465724c6f6769633a20616c7265616479207061696400000060448201526064015b60405180910390fd5b6001600160a01b038516600090815260208790526040902080548391908690811061034b57634e487b7160e01b600052603260045260246000fd5b9060005260206000209060070201600401541061037a5760405162461bcd60e51b8152600401610307906121b7565b610384838261224e565b6001600160a01b03861660009081526020889052604090208054869081106103bc57634e487b7160e01b600052603260045260246000fd5b9060005260206000209060070201600401541161041b5760405162461bcd60e51b815260206004820152601c60248201527f4275726e526f757465724c6f6769633a206f6c642072657175657374000000006044820152606401610307565b6001600160a01b03851660009081526020879052604090208054600191908690811061045757634e487b7160e01b600052603260045260246000fd5b60009182526020909120600790910201600501805460ff1916911515919091179055505050505050565b60008061048e878661055a565b9050803410156104d85760405162461bcd60e51b8152602060048201526015602482015274426974636f696e52656c61793a206c6f772066656560581b6044820152606401610307565b600061052588888888886040516024016104f59493929190612174565b60408051601f198184030181529190526020810180516001600160e01b0316634354da2560e01b179052846109f1565b905061053a3361053584346122df565b610a21565b8080602001905181019061054e9190611e65565b98975050505050505050565b60405163d0a8973960e01b815260048101829052600060248201819052906001600160a01b0384169063d0a897399060440160206040518083038186803b1580156105a457600080fd5b505afa1580156105b8573d6000803e3d6000fd5b505050506040513d601f19601f820116820180604052508101906105dc919061201a565b90505b92915050565b6000816001600160a01b031663a072bc506040518163ffffffff1660e01b815260040160206040518083038186803b1580156101a557600080fd5b83516002148015610632575082516002145b801561063f575080516003145b61068b5760405162461bcd60e51b815260206004820152601d60248201527f4275726e526f757465724c6f6769633a2077726f6e6720696e707574730000006044820152606401610307565b85816002815181106106ad57634e487b7160e01b600052603260045260246000fd5b602002602001015110156107035760405162461bcd60e51b815260206004820152601c60248201527f4275726e526f757465724c6f6769633a206f6c642072657175657374000000006044820152606401610307565b61076087868360028151811061072957634e487b7160e01b600052603260045260246000fd5b6020026020010151858560018151811061075357634e487b7160e01b600052603260045260246000fd5b6020026020010151610481565b6107ac5760405162461bcd60e51b815260206004820152601e60248201527f4275726e526f757465724c6f6769633a206e6f742066696e616c697a656400006044820152606401610307565b600085815260208a9052604090205460ff161561080b5760405162461bcd60e51b815260206004820152601d60248201527f4275726e526f757465724c6f6769633a20616c726561647920757365640000006044820152606401610307565b600085815260208a905260409020805460ff1916600117905580518190600290811061084757634e487b7160e01b600052603260045260246000fd5b60200260200101518861085a919061224e565b6108638861016a565b116108805760405162461bcd60e51b8152600401610307906121b7565b505050505050505050565b6000806108a061089b8583610b3f565b610b63565b905062ffffff1980821614156108f85760405162461bcd60e51b815260206004820152601b60248201527f426974636f696e48656c7065723a20766f7574206973206e756c6c00000000006044820152606401610307565b6000806000610908846000610c8c565b6001600160401b0316905060005b818110156109b9576109288582610dd5565b935061093384610eec565b925086604051602001610946919061205e565b6040516020818303038152906040528051906020012061096b8462ffffff1916610f3d565b60405160200161097b919061205e565b6040516020818303038152906040528051906020012014156109a7576109a084610f8d565b95506109b9565b806109b181612349565b915050610916565b505050505092915050565b6000806109d461089b8483610b3f565b90506109e1816000610c8c565b6001600160401b03169392505050565b6060610a1784848460405180606001604052806029815260200161239160299139610fba565b90505b9392505050565b80471015610a715760405162461bcd60e51b815260206004820152601d60248201527f416464726573733a20696e73756666696369656e742062616c616e63650000006044820152606401610307565b6000826001600160a01b03168260405160006040518083038185875af1925050503d8060008114610abe576040519150601f19603f3d011682016040523d82523d6000602084013e610ac3565b606091505b5050905080610b3a5760405162461bcd60e51b815260206004820152603a60248201527f416464726573733a20756e61626c6520746f2073656e642076616c75652c207260448201527f6563697069656e74206d617920686176652072657665727465640000000000006064820152608401610307565b505050565b815160009060208401610b5a64ffffffffff851682846110e2565b95945050505050565b60008181610b79815b62ffffff19841690611126565b50601884901c6001600160601b0316610b985762ffffff199250610c85565b6000610ba5856000610c8c565b9050601885901c6001600160601b03166001600160401b038216610bd15762ffffff1994505050610c85565b6000610bdc83611200565b60ff16905060005b836001600160401b0316811015610c5557828210610c0c5762ffffff19965050505050610c85565b6000610c2a610c1b84866122df565b62ffffff198b1690600e611259565b9050610c358161128d565b610c3f908461224e565b9250508080610c4d90612349565b915050610be4565b50818114610c6c5762ffffff199550505050610c85565b6301000000600160d81b038716600f60d81b1795505050505b5050919050565b600080610ca162ffffff1985168460016112d6565b905060fc8111610cbc57610cb481611306565b9150506105df565b8060fd1415610d2257610cea610ce5610cd685600161224e565b62ffffff198716906002611372565b611306565b9150610cf582611200565b60ff16600314610d1d57610d1b610d1662ffffff19861685600360006114bc565b611536565b505b610dce565b8060fe1415610d7757610d4b610ce5610d3c85600161224e565b62ffffff198716906004611372565b9150610d5682611200565b60ff16600514610d1d57610d1b610d1662ffffff19861685600560006114bc565b8060ff1415610dce57610da0610ce5610d9185600161224e565b62ffffff198716906008611372565b9150610dab82611200565b60ff16600914610dce57610dcc610d1662ffffff19861685600960006114bc565b505b5092915050565b600082600f610de381610b6c565b506000610df1866000610c8c565b6001600160401b03169050601886901c6001600160601b0316818610610e4d5760405162461bcd60e51b81526020600482015260116024820152702b37baba103932b0b21037bb32b9393ab760791b6044820152606401610307565b6000610e5883611200565b60ff1690506000805b88811015610eae57610e85610e7684866122df565b62ffffff198c1690600e611259565b9150610e908261128d565b610e9a908461224e565b9250610ea760018261224e565b9050610e61565b50610ebc610c1b83856122df565b90506000610ec98261128d565b9050610ede62ffffff198b168483600d6114bc565b9a9950505050505050505050565b600081600d610efa81610b6c565b506000610f08856008610c8c565b9050610b5a610f1682611200565b610f21906008612266565b62ffffff1987169060ff166001600160401b03841660076114bc565b6060600080610f558460181c6001600160601b031690565b60405193508392506001600160601b03169050610f7c84610f7784602061224e565b6115bd565b508181016020016040529052919050565b600081600d610f9b81610b6c565b50610fb2610ce562ffffff19861660006008611372565b949350505050565b60608247101561101b5760405162461bcd60e51b815260206004820152602660248201527f416464726573733a20696e73756666696369656e742062616c616e636520666f6044820152651c8818d85b1b60d21b6064820152608401610307565b843b6110695760405162461bcd60e51b815260206004820152601d60248201527f416464726573733a2063616c6c20746f206e6f6e2d636f6e74726163740000006044820152606401610307565b600080866001600160a01b03168587604051611085919061205e565b60006040518083038185875af1925050503d80600081146110c2576040519150601f19603f3d011682016040523d82523d6000602084013e6110c7565b606091505b50915091506110d7828286611715565b979650505050505050565b6000806110ef838561224e565b90506040518111156110ff575060005b806111115762ffffff19915050610a1a565b5050606092831b9190911790911b1760181b90565b6000611132838361174e565b6111f95760006111516111458560d81c90565b64ffffffffff16611771565b91505060006111668464ffffffffff16611771565b6040517f5479706520617373657274696f6e206661696c65642e20476f7420307800000060208201526001600160b01b031960b086811b8216603d8401526c05c408af0e0cac6e8cac84060f609b1b604784015283901b16605482015290925060009150605e015b60405160208183030381529060405290508060405162461bcd60e51b815260040161030791906121a4565b5090919050565b600060fc826001600160401b03161161121b575060016101e0565b61ffff826001600160401b031611611235575060036101e0565b63ffffffff826001600160401b031611611251575060056101e0565b5060096101e0565b6000610a1784846112738760181c6001600160601b031690565b6001600160601b031661128691906122df565b85856114bc565b600081600e61129b81610b6c565b5060006112a9856008610c8c565b9050806001600160401b03166112be82611200565b60ff166112cb919061224e565b610b5a90600861224e565b60006112e38260206122f6565b6112ee9060086122b6565b60ff166112fc85858561181d565b901c949350505050565b60006001600160401b0382111561136e5760405162461bcd60e51b815260206004820152602660248201527f53616665436173743a2076616c756520646f65736e27742066697420696e203660448201526534206269747360d01b6064820152608401610307565b5090565b6000610a1761138285858561181d565b600881811c7eff00ff00ff00ff00ff00ff00ff00ff00ff00ff00ff00ff00ff00ff00ff00ff167fff00ff00ff00ff00ff00ff00ff00ff00ff00ff00ff00ff00ff00ff00ff00ff009290911b9190911617601081811c7dffff0000ffff0000ffff0000ffff0000ffff0000ffff0000ffff0000ffff167fffff0000ffff0000ffff0000ffff0000ffff0000ffff0000ffff0000ffff00009290911b9190911617602081811c7bffffffff00000000ffffffff00000000ffffffff00000000ffffffff167fffffffff00000000ffffffff00000000ffffffff00000000ffffffff000000009290911b9190911617604081811c77ffffffffffffffff0000000000000000ffffffffffffffff1677ffffffffffffffff0000000000000000ffffffffffffffff199290911b9190911617608081811c91901b1790565b6000806114d28660781c6001600160601b031690565b6001600160601b031690506114e686611976565b846114f1878461224e565b6114fb919061224e565b111561150e5762ffffff19915050610fb2565b611518858261224e565b905061152c8364ffffffffff1682866110e2565b9695505050505050565b6060600061156a61156582611557601887901c6001600160601b03166119b7565b62ffffff19871691906112d6565b611771565b6040517f4e6f6e2d6d696e696d616c2076617220696e742e20476f74203078000000000060208201526dffffffffffffffffffffffffffff19607083901b16603b82015290925060009150604d016111ce565b600062ffffff1980841614156116265760405162461bcd60e51b815260206004820152602860248201527f54797065644d656d566965772f636f7079546f202d204e756c6c20706f696e7460448201526732b9103232b932b360c11b6064820152608401610307565b61162f83611a18565b61168f5760405162461bcd60e51b815260206004820152602b60248201527f54797065644d656d566965772f636f7079546f202d20496e76616c696420706f60448201526a34b73a32b9103232b932b360a91b6064820152608401610307565b60006116a48460181c6001600160601b031690565b6001600160601b0316905060006116c48560781c6001600160601b031690565b6001600160601b0316905060006040519050848111156116e45760206060fd5b8285848460045afa5061152c6116fa8760d81c90565b64ffffffffff60601b606091821b168717901b841760181b90565b60608315611724575081610a1a565b8251156117345782518084602001fd5b8160405162461bcd60e51b815260040161030791906121a4565b60008164ffffffffff166117628460d81c90565b64ffffffffff16149392505050565b600080601f5b600f8160ff1611156117cf5760006117908260086122b6565b60ff1685901c90506117a181611a56565b61ffff16841793508160ff166010146117bc57601084901b93505b506117c86001826122f6565b9050611777565b50600f5b60ff8160ff1610156118175760ff600882021684901c6117f281611a56565b61ffff16831792508160ff1660001461180d57601083901b92505b50600019016117d3565b50915091565b600060ff821661182f57506000610a1a565b6118428460181c6001600160601b031690565b6001600160601b031661185860ff84168561224e565b11156118bc576118a36118748560781c6001600160601b031690565b6001600160601b03166118908660181c6001600160601b031690565b6001600160601b0316858560ff16611a86565b60405162461bcd60e51b815260040161030791906121a4565b60208260ff1611156119365760405162461bcd60e51b815260206004820152603a60248201527f54797065644d656d566965772f696e646578202d20417474656d70746564207460448201527f6f20696e646578206d6f7265207468616e2033322062797465730000000000006064820152608401610307565b60088202600061194f8660781c6001600160601b031690565b6001600160601b031690506000600160ff1b60001984011d91909501511695945050505050565b600061198b8260181c6001600160601b031690565b61199e8360781c6001600160601b031690565b6119a8919061228b565b6001600160601b031692915050565b600060ff82111561136e5760405162461bcd60e51b815260206004820152602560248201527f53616665436173743a2076616c756520646f65736e27742066697420696e2038604482015264206269747360d81b6064820152608401610307565b6000611a248260d81c90565b64ffffffffff1664ffffffffff1415611a3f575060006101e0565b6000611a4a83611976565b60405110199392505050565b6000611a6860048360ff16901c611af4565b60ff161760081b62ffff0016611a7d82611af4565b60ff1617919050565b60606000611a9386611771565b9150506000611aa186611771565b9150506000611aaf86611771565b9150506000611abd86611771565b91505083838383604051602001611ad7949392919061207a565b604051602081830303815290604052945050505050949350505050565b600060f08083179060ff82161415611b105760309150506101e0565b8060ff1660f11415611b265760319150506101e0565b8060ff1660f21415611b3c5760329150506101e0565b8060ff1660f31415611b525760339150506101e0565b8060ff1660f41415611b685760349150506101e0565b8060ff1660f51415611b7e5760359150506101e0565b8060ff1660f61415611b945760369150506101e0565b8060ff1660f71415611baa5760379150506101e0565b8060ff1660f81415611bc05760389150506101e0565b8060ff1660f91415611bd65760399150506101e0565b8060ff1660fa1415611bec5760619150506101e0565b8060ff1660fb1415611c025760629150506101e0565b8060ff1660fc1415611c185760639150506101e0565b8060ff1660fd1415611c2e5760649150506101e0565b8060ff1660fe1415611c445760659150506101e0565b8060ff1660ff1415611c5a5760669150506101e0565b50919050565b80356001600160a01b03811681146101e057600080fd5b600082601f830112611c87578081fd5b81356020611c9c611c978361222b565b6121fb565b8281528181019085830183850287018401881015611cb8578586fd5b855b85811015611ceb5781356001600160e01b031981168114611cd9578788fd5b84529284019290840190600101611cba565b5090979650505050505050565b600082601f830112611d08578081fd5b81356020611d18611c978361222b565b8281528181019085830183850287018401881015611d34578586fd5b855b85811015611ceb57813584529284019290840190600101611d36565b600082601f830112611d62578081fd5b81356001600160401b03811115611d7b57611d7b61237a565b611d8e601f8201601f19166020016121fb565b818152846020838601011115611da2578283fd5b816020850160208301379081016020019190915292915050565b600060208284031215611dcd578081fd5b6105dc82611c60565b600080600080600060a08688031215611ded578081fd5b611df686611c60565b9450602086013593506040860135925060608601356001600160401b03811115611e1e578182fd5b611e2a88828901611d52565b95989497509295608001359392505050565b60008060408385031215611e4e578182fd5b611e5783611c60565b946020939093013593505050565b600060208284031215611e76578081fd5b81518015158114610a1a578182fd5b60008060008060008060c08789031215611e9d578081fd5b86359550611ead60208801611c60565b95989597505050506040840135936060810135936080820135935060a0909101359150565b60008060008060008060008060006101208a8c031215611ef0578283fd5b8935985060208a01359750611f0760408b01611c60565b965060608a0135955060808a0135945060a08a01356001600160401b0380821115611f30578485fd5b611f3c8d838e01611c77565b955060c08c0135915080821115611f51578485fd5b611f5d8d838e01611c77565b945060e08c0135915080821115611f72578384fd5b611f7e8d838e01611d52565b93506101008c0135915080821115611f94578283fd5b50611fa18c828d01611cf8565b9150509295985092959850929598565b600080600080600060a08688031215611fc8578283fd5b853594506020860135935060408601356001600160401b0380821115611fec578485fd5b611ff889838a01611d52565b9450606088013591508082111561200d578283fd5b50611e2a88828901611d52565b60006020828403121561202b578081fd5b5051919050565b6000815180845261204a816020860160208601612319565b601f01601f19169290920160200192915050565b60008251612070818460208701612319565b9190910192915050565b60007f54797065644d656d566965772f696e646578202d204f76657272616e20746865825274040ecd2caee5c40a6d8d2c6ca40d2e640c2e84060f605b1b602083015265ffffffffffff60d01b808760d01b1660358401526e040eed2e8d040d8cadccee8d04060f608b1b80603b850152818760d01b16604a8501527f2e20417474656d7074656420746f20696e646578206174206f666673657420306050850152600f60fb1b607085015261213f607185018760d01b6001600160d01b0319169052565b60778401525061215e608683018460d01b6001600160d01b0319169052565b50601760f91b608c820152608d01949350505050565b6000858252846020830152608060408301526121936080830185612032565b905082606083015295945050505050565b6000602082526105dc6020830184612032565b60208082526024908201527f4275726e526f757465724c6f6769633a20646561646c696e65206e6f742070616040820152631cdcd95960e21b606082015260800190565b604051601f8201601f191681016001600160401b03811182821017156122235761222361237a565b604052919050565b60006001600160401b038211156122445761224461237a565b5060209081020190565b6000821982111561226157612261612364565b500190565b600060ff821660ff84168060ff0382111561228357612283612364565b019392505050565b60006001600160601b038083168185168083038211156122ad576122ad612364565b01949350505050565b600060ff821660ff84168160ff04811182151516156122d7576122d7612364565b029392505050565b6000828210156122f1576122f1612364565b500390565b600060ff821660ff84168082101561231057612310612364565b90039392505050565b60005b8381101561233457818101518382015260200161231c565b83811115612343576000848401525b50505050565b600060001982141561235d5761235d612364565b5060010190565b634e487b7160e01b600052601160045260246000fd5b634e487b7160e01b600052604160045260246000fdfe416464726573733a206c6f772d6c6576656c2063616c6c20776974682076616c7565206661696c6564a264697066735822122094c06a47c159ae1eeb6e24405feabe9cee72649ac6b2f532ef2cbb1cb83ac3fb64736f6c63430008020033",
  "devdoc": {
    "kind": "dev",
    "methods": {
      "isConfirmed(address,bytes32,uint256,bytes,uint256)": {
        "details": "Calls the relay contract to check Merkle inclusion proof",
        "params": {
          "_blockNumber": "Height of the block containing the transaction",
          "_index": "Index of transaction in the block",
          "_intermediateNodes": "Merkle inclusion proof for the transaction",
          "_relay": "Address of Relay contract",
          "_txId": "of the transaction"
        },
        "returns": {
          "_0": "True if the transaction was included in the block"
        }
      },
      "updateIsUsedAsBurnProof(mapping(bytes32 => bool) storage,uint256,bytes,bytes,bytes32)": {
        "details": "One output might return the remaining value to the locker",
        "params": {
          "_lockerLockingScript": "Locking script of locker",
          "_paidOutputCounter": "Number of the tx outputs that pay a cc burn request",
          "_txId": "Transaction id",
          "_vout": "Outputs of a transaction"
        }
      }
    },
    "version": 1
  },
  "userdoc": {
    "kind": "user",
    "methods": {
      "isConfirmed(address,bytes32,uint256,bytes,uint256)": {
        "notice": "Checks inclusion of the transaction in the specified block"
      },
      "updateIsUsedAsBurnProof(mapping(bytes32 => bool) storage,uint256,bytes,bytes,bytes32)": {
        "notice": "Checks if all outputs of the transaction used to pay a cc burn request"
      }
    },
    "version": 1
  },
  "storageLayout": {
    "storage": [],
    "types": null
  }
}