{
  "address": "0x51A0b53BF810f7Dc65ea8e185fbf2BC6E0043620",
  "abi": [
    {
      "inputs": [],
      "name": "ZeroAddress",
      "type": "error"
    },
    {
      "anonymous": false,
      "inputs": [
        {
          "indexed": true,
          "internalType": "address",
          "name": "userTargetAddress",
          "type": "address"
        },
        {
          "indexed": true,
          "internalType": "address",
          "name": "_lockerTargetAddress",
          "type": "address"
        },
        {
          "indexed": false,
          "internalType": "bytes",
          "name": "lockerLockingScript",
          "type": "bytes"
        },
        {
          "indexed": false,
          "internalType": "uint256",
          "name": "requestIdOfLocker",
          "type": "uint256"
        }
      ],
      "name": "BurnDispute",
      "type": "event"
    },
    {
      "anonymous": false,
      "inputs": [
        {
          "indexed": false,
          "internalType": "uint8",
          "name": "version",
          "type": "uint8"
        }
      ],
      "name": "Initialized",
      "type": "event"
    },
    {
      "anonymous": false,
      "inputs": [
        {
          "indexed": false,
          "internalType": "address",
          "name": "_lockerTargetAddress",
          "type": "address"
        },
        {
          "indexed": false,
          "internalType": "bytes",
          "name": "lockerLockingScript",
          "type": "bytes"
        },
        {
          "indexed": false,
          "internalType": "uint256",
          "name": "_blockNumber",
          "type": "uint256"
        },
        {
          "indexed": false,
          "internalType": "bytes32",
          "name": "txId",
          "type": "bytes32"
        },
        {
          "indexed": false,
          "internalType": "uint256",
          "name": "amount",
          "type": "uint256"
        }
      ],
      "name": "LockerDispute",
      "type": "event"
    },
    {
      "anonymous": false,
      "inputs": [
        {
          "indexed": false,
          "internalType": "address",
          "name": "oldLockers",
          "type": "address"
        },
        {
          "indexed": false,
          "internalType": "address",
          "name": "newLockers",
          "type": "address"
        }
      ],
      "name": "NewLockers",
      "type": "event"
    },
    {
      "anonymous": false,
      "inputs": [
        {
          "indexed": false,
          "internalType": "uint256",
          "name": "oldNetworkFee",
          "type": "uint256"
        },
        {
          "indexed": false,
          "internalType": "uint256",
          "name": "newNetworkFee",
          "type": "uint256"
        }
      ],
      "name": "NewNetworkFee",
      "type": "event"
    },
    {
      "anonymous": false,
      "inputs": [
        {
          "indexed": false,
          "internalType": "address",
          "name": "oldNetworkFeeOracle",
          "type": "address"
        },
        {
          "indexed": false,
          "internalType": "address",
          "name": "newNetworkFeeOracle",
          "type": "address"
        }
      ],
      "name": "NewNetworkFeeOracle",
      "type": "event"
    },
    {
      "anonymous": false,
      "inputs": [
        {
          "indexed": false,
          "internalType": "uint256",
          "name": "oldProtocolPercentageFee",
          "type": "uint256"
        },
        {
          "indexed": false,
          "internalType": "uint256",
          "name": "newProtocolPercentageFee",
          "type": "uint256"
        }
      ],
      "name": "NewProtocolPercentageFee",
      "type": "event"
    },
    {
      "anonymous": false,
      "inputs": [
        {
          "indexed": false,
          "internalType": "address",
          "name": "oldRelay",
          "type": "address"
        },
        {
          "indexed": false,
          "internalType": "address",
          "name": "newRelay",
          "type": "address"
        }
      ],
      "name": "NewRelay",
      "type": "event"
    },
    {
      "anonymous": false,
      "inputs": [
        {
          "indexed": false,
          "internalType": "uint256",
          "name": "oldSlasherPercentageFee",
          "type": "uint256"
        },
        {
          "indexed": false,
          "internalType": "uint256",
          "name": "newSlasherPercentageFee",
          "type": "uint256"
        }
      ],
      "name": "NewSlasherPercentageFee",
      "type": "event"
    },
    {
      "anonymous": false,
      "inputs": [
        {
          "indexed": false,
          "internalType": "address",
          "name": "oldTeleBTC",
          "type": "address"
        },
        {
          "indexed": false,
          "internalType": "address",
          "name": "newTeleBTC",
          "type": "address"
        }
      ],
      "name": "NewTeleBTC",
      "type": "event"
    },
    {
      "anonymous": false,
      "inputs": [
        {
          "indexed": false,
          "internalType": "uint256",
          "name": "thirdPartyId",
          "type": "uint256"
        },
        {
          "indexed": false,
          "internalType": "address",
          "name": "oldThirdPartyAddress",
          "type": "address"
        },
        {
          "indexed": false,
          "internalType": "address",
          "name": "newThirdPartyAddress",
          "type": "address"
        }
      ],
      "name": "NewThirdPartyAddress",
      "type": "event"
    },
    {
      "anonymous": false,
      "inputs": [
        {
          "indexed": false,
          "internalType": "uint256",
          "name": "thirdPartyId",
          "type": "uint256"
        },
        {
          "indexed": false,
          "internalType": "uint256",
          "name": "oldThirdPartyFee",
          "type": "uint256"
        },
        {
          "indexed": false,
          "internalType": "uint256",
          "name": "newThirdPartyFee",
          "type": "uint256"
        }
      ],
      "name": "NewThirdPartyFee",
      "type": "event"
    },
    {
      "anonymous": false,
      "inputs": [
        {
          "indexed": false,
          "internalType": "uint256",
          "name": "oldTransferDeadline",
          "type": "uint256"
        },
        {
          "indexed": false,
          "internalType": "uint256",
          "name": "newTransferDeadline",
          "type": "uint256"
        }
      ],
      "name": "NewTransferDeadline",
      "type": "event"
    },
    {
      "anonymous": false,
      "inputs": [
        {
          "indexed": false,
          "internalType": "address",
          "name": "oldTreasury",
          "type": "address"
        },
        {
          "indexed": false,
          "internalType": "address",
          "name": "newTreasury",
          "type": "address"
        }
      ],
      "name": "NewTreasury",
      "type": "event"
    },
    {
      "anonymous": false,
      "inputs": [
        {
          "indexed": false,
          "internalType": "bytes",
          "name": "userScript",
          "type": "bytes"
        },
        {
          "indexed": false,
          "internalType": "enum ScriptTypes",
          "name": "scriptType",
          "type": "uint8"
        },
        {
          "indexed": false,
          "internalType": "address",
          "name": "lockerTargetAddress",
          "type": "address"
        },
        {
          "indexed": true,
          "internalType": "address",
          "name": "userTargetAddress",
          "type": "address"
        },
        {
          "indexed": false,
          "internalType": "uint256",
          "name": "requestIdOfLocker",
          "type": "uint256"
        },
        {
          "indexed": true,
          "internalType": "uint256",
          "name": "deadline",
          "type": "uint256"
        },
        {
          "indexed": false,
          "internalType": "uint256",
          "name": "thirdPartyId",
          "type": "uint256"
        },
        {
          "indexed": false,
          "internalType": "address",
          "name": "inputToken",
          "type": "address"
        },
        {
          "indexed": false,
          "internalType": "uint256[3]",
          "name": "amounts",
          "type": "uint256[3]"
        },
        {
          "indexed": false,
          "internalType": "uint256[4]",
          "name": "fees",
          "type": "uint256[4]"
        }
      ],
      "name": "NewUnwrap",
      "type": "event"
    },
    {
      "anonymous": false,
      "inputs": [
        {
          "indexed": true,
          "internalType": "address",
          "name": "previousOwner",
          "type": "address"
        },
        {
          "indexed": true,
          "internalType": "address",
          "name": "newOwner",
          "type": "address"
        }
      ],
      "name": "OwnershipTransferred",
      "type": "event"
    },
    {
      "anonymous": false,
      "inputs": [
        {
          "indexed": true,
          "internalType": "address",
          "name": "lockerTargetAddress",
          "type": "address"
        },
        {
          "indexed": false,
          "internalType": "uint256",
          "name": "requestIdOfLocker",
          "type": "uint256"
        },
        {
          "indexed": false,
          "internalType": "bytes32",
          "name": "bitcoinTxId",
          "type": "bytes32"
        },
        {
          "indexed": false,
          "internalType": "uint256",
          "name": "bitcoinTxOutputIndex",
          "type": "uint256"
        }
      ],
      "name": "PaidUnwrap",
      "type": "event"
    },
    {
      "inputs": [],
      "name": "bitcoinFee",
      "outputs": [
        {
          "internalType": "uint256",
          "name": "",
          "type": "uint256"
        }
      ],
      "stateMutability": "view",
      "type": "function"
    },
    {
      "inputs": [],
      "name": "bitcoinFeeOracle",
      "outputs": [
        {
          "internalType": "address",
          "name": "",
          "type": "address"
        }
      ],
      "stateMutability": "view",
      "type": "function"
    },
    {
      "inputs": [
        {
          "internalType": "bytes4",
          "name": "_version",
          "type": "bytes4"
        },
        {
          "internalType": "bytes",
          "name": "_vin",
          "type": "bytes"
        },
        {
          "internalType": "bytes",
          "name": "_vout",
          "type": "bytes"
        },
        {
          "internalType": "bytes4",
          "name": "_locktime",
          "type": "bytes4"
        },
        {
          "internalType": "uint256",
          "name": "_blockNumber",
          "type": "uint256"
        },
        {
          "internalType": "bytes",
          "name": "_intermediateNodes",
          "type": "bytes"
        },
        {
          "internalType": "uint256",
          "name": "_index",
          "type": "uint256"
        },
        {
          "internalType": "bytes",
          "name": "_lockerLockingScript",
          "type": "bytes"
        },
        {
          "internalType": "uint256[]",
          "name": "_burnReqIndexes",
          "type": "uint256[]"
        },
        {
          "internalType": "uint256[]",
          "name": "_voutIndexes",
          "type": "uint256[]"
        }
      ],
      "name": "burnProof",
      "outputs": [
        {
          "internalType": "bool",
          "name": "",
          "type": "bool"
        }
      ],
      "stateMutability": "payable",
      "type": "function"
    },
    {
      "inputs": [
        {
          "internalType": "address",
          "name": "",
          "type": "address"
        }
      ],
      "name": "burnRequestCounter",
      "outputs": [
        {
          "internalType": "uint256",
          "name": "",
          "type": "uint256"
        }
      ],
      "stateMutability": "view",
      "type": "function"
    },
    {
      "inputs": [
        {
          "internalType": "address",
          "name": "",
          "type": "address"
        },
        {
          "internalType": "uint256",
          "name": "",
          "type": "uint256"
        }
      ],
      "name": "burnRequests",
      "outputs": [
        {
          "internalType": "uint256",
          "name": "amount",
          "type": "uint256"
        },
        {
          "internalType": "uint256",
          "name": "burntAmount",
          "type": "uint256"
        },
        {
          "internalType": "address",
          "name": "sender",
          "type": "address"
        },
        {
          "internalType": "bytes",
          "name": "userScript",
          "type": "bytes"
        },
        {
          "internalType": "uint256",
          "name": "deadline",
          "type": "uint256"
        },
        {
          "internalType": "bool",
          "name": "isTransferred",
          "type": "bool"
        },
        {
          "internalType": "enum ScriptTypes",
          "name": "scriptType",
          "type": "uint8"
        },
        {
          "internalType": "uint256",
          "name": "requestIdOfLocker",
          "type": "uint256"
        }
      ],
      "stateMutability": "view",
      "type": "function"
    },
    {
      "inputs": [
        {
          "internalType": "bytes",
          "name": "_lockerLockingScript",
          "type": "bytes"
        },
        {
          "internalType": "uint256[]",
          "name": "_indices",
          "type": "uint256[]"
        }
      ],
      "name": "disputeBurn",
      "outputs": [],
      "stateMutability": "nonpayable",
      "type": "function"
    },
    {
      "inputs": [
        {
          "internalType": "bytes",
          "name": "_lockerLockingScript",
          "type": "bytes"
        },
        {
          "internalType": "bytes4[]",
          "name": "_versions",
          "type": "bytes4[]"
        },
        {
          "internalType": "bytes",
          "name": "_inputVin",
          "type": "bytes"
        },
        {
          "internalType": "bytes",
          "name": "_inputVout",
          "type": "bytes"
        },
        {
          "internalType": "bytes",
          "name": "_outputVin",
          "type": "bytes"
        },
        {
          "internalType": "bytes",
          "name": "_outputVout",
          "type": "bytes"
        },
        {
          "internalType": "bytes4[]",
          "name": "_locktimes",
          "type": "bytes4[]"
        },
        {
          "internalType": "bytes",
          "name": "_inputIntermediateNodes",
          "type": "bytes"
        },
        {
          "internalType": "uint256[]",
          "name": "_indexesAndBlockNumbers",
          "type": "uint256[]"
        }
      ],
      "name": "disputeLocker",
      "outputs": [],
      "stateMutability": "payable",
      "type": "function"
    },
    {
      "inputs": [
        {
          "internalType": "uint256",
          "name": "_startingBlockNumber",
          "type": "uint256"
        },
        {
          "internalType": "address",
          "name": "_relay",
          "type": "address"
        },
        {
          "internalType": "address",
          "name": "_lockers",
          "type": "address"
        },
        {
          "internalType": "address",
          "name": "_treasury",
          "type": "address"
        },
        {
          "internalType": "address",
          "name": "_teleBTC",
          "type": "address"
        },
        {
          "internalType": "uint256",
          "name": "_transferDeadline",
          "type": "uint256"
        },
        {
          "internalType": "uint256",
          "name": "_protocolPercentageFee",
          "type": "uint256"
        },
        {
          "internalType": "uint256",
          "name": "_slasherPercentageReward",
          "type": "uint256"
        },
        {
          "internalType": "uint256",
          "name": "_networkFee",
          "type": "uint256"
        }
      ],
      "name": "initialize",
      "outputs": [],
      "stateMutability": "nonpayable",
      "type": "function"
    },
    {
      "inputs": [
        {
          "internalType": "address",
          "name": "_lockerTargetAddress",
          "type": "address"
        },
        {
          "internalType": "uint256",
          "name": "_index",
          "type": "uint256"
        }
      ],
      "name": "isTransferred",
      "outputs": [
        {
          "internalType": "bool",
          "name": "",
          "type": "bool"
        }
      ],
      "stateMutability": "view",
      "type": "function"
    },
    {
      "inputs": [
        {
          "internalType": "bytes32",
          "name": "",
          "type": "bytes32"
        }
      ],
      "name": "isUsedAsBurnProof",
      "outputs": [
        {
          "internalType": "bool",
          "name": "",
          "type": "bool"
        }
      ],
      "stateMutability": "view",
      "type": "function"
    },
    {
      "inputs": [],
      "name": "lockers",
      "outputs": [
        {
          "internalType": "address",
          "name": "",
          "type": "address"
        }
      ],
      "stateMutability": "view",
      "type": "function"
    },
    {
      "inputs": [],
      "name": "owner",
      "outputs": [
        {
          "internalType": "address",
          "name": "",
          "type": "address"
        }
      ],
      "stateMutability": "view",
      "type": "function"
    },
    {
      "inputs": [],
      "name": "protocolPercentageFee",
      "outputs": [
        {
          "internalType": "uint256",
          "name": "",
          "type": "uint256"
        }
      ],
      "stateMutability": "view",
      "type": "function"
    },
    {
      "inputs": [],
      "name": "relay",
      "outputs": [
        {
          "internalType": "address",
          "name": "",
          "type": "address"
        }
      ],
      "stateMutability": "view",
      "type": "function"
    },
    {
      "inputs": [],
      "name": "renounceOwnership",
      "outputs": [],
      "stateMutability": "nonpayable",
      "type": "function"
    },
    {
      "inputs": [
        {
          "internalType": "address",
          "name": "_lockers",
          "type": "address"
        }
      ],
      "name": "setLockers",
      "outputs": [],
      "stateMutability": "nonpayable",
      "type": "function"
    },
    {
      "inputs": [
        {
          "internalType": "uint256",
          "name": "_networkFee",
          "type": "uint256"
        }
      ],
      "name": "setNetworkFee",
      "outputs": [],
      "stateMutability": "nonpayable",
      "type": "function"
    },
    {
      "inputs": [
        {
          "internalType": "address",
          "name": "_networkFeeOracle",
          "type": "address"
        }
      ],
      "name": "setNetworkFeeOracle",
      "outputs": [],
      "stateMutability": "nonpayable",
      "type": "function"
    },
    {
      "inputs": [
        {
          "internalType": "uint256",
          "name": "_protocolPercentageFee",
          "type": "uint256"
        }
      ],
      "name": "setProtocolPercentageFee",
      "outputs": [],
      "stateMutability": "nonpayable",
      "type": "function"
    },
    {
      "inputs": [
        {
          "internalType": "address",
          "name": "_relay",
          "type": "address"
        }
      ],
      "name": "setRelay",
      "outputs": [],
      "stateMutability": "nonpayable",
      "type": "function"
    },
    {
      "inputs": [
        {
          "internalType": "uint256",
          "name": "_slasherPercentageReward",
          "type": "uint256"
        }
      ],
      "name": "setSlasherPercentageReward",
      "outputs": [],
      "stateMutability": "nonpayable",
      "type": "function"
    },
    {
      "inputs": [
        {
          "internalType": "uint256",
          "name": "_startingBlockNumber",
          "type": "uint256"
        }
      ],
      "name": "setStartingBlockNumber",
      "outputs": [],
      "stateMutability": "nonpayable",
      "type": "function"
    },
    {
      "inputs": [
        {
          "internalType": "address",
          "name": "_teleBTC",
          "type": "address"
        }
      ],
      "name": "setTeleBTC",
      "outputs": [],
      "stateMutability": "nonpayable",
      "type": "function"
    },
    {
      "inputs": [
        {
          "internalType": "uint256",
          "name": "_thirdPartyId",
          "type": "uint256"
        },
        {
          "internalType": "address",
          "name": "_thirdPartyAddress",
          "type": "address"
        }
      ],
      "name": "setThirdPartyAddress",
      "outputs": [],
      "stateMutability": "nonpayable",
      "type": "function"
    },
    {
      "inputs": [
        {
          "internalType": "uint256",
          "name": "_thirdPartyId",
          "type": "uint256"
        },
        {
          "internalType": "uint256",
          "name": "_thirdPartyFee",
          "type": "uint256"
        }
      ],
      "name": "setThirdPartyFee",
      "outputs": [],
      "stateMutability": "nonpayable",
      "type": "function"
    },
    {
      "inputs": [
        {
          "internalType": "uint256",
          "name": "_transferDeadline",
          "type": "uint256"
        }
      ],
      "name": "setTransferDeadline",
      "outputs": [],
      "stateMutability": "nonpayable",
      "type": "function"
    },
    {
      "inputs": [
        {
          "internalType": "address",
          "name": "_treasury",
          "type": "address"
        }
      ],
      "name": "setTreasury",
      "outputs": [],
      "stateMutability": "nonpayable",
      "type": "function"
    },
    {
      "inputs": [],
      "name": "slasherPercentageReward",
      "outputs": [
        {
          "internalType": "uint256",
          "name": "",
          "type": "uint256"
        }
      ],
      "stateMutability": "view",
      "type": "function"
    },
    {
      "inputs": [],
      "name": "startingBlockNumber",
      "outputs": [
        {
          "internalType": "uint256",
          "name": "",
          "type": "uint256"
        }
      ],
      "stateMutability": "view",
      "type": "function"
    },
    {
      "inputs": [
        {
          "internalType": "address",
          "name": "_exchangeConnector",
          "type": "address"
        },
        {
          "internalType": "uint256[]",
          "name": "_amounts",
          "type": "uint256[]"
        },
        {
          "internalType": "bool",
          "name": "_isFixedToken",
          "type": "bool"
        },
        {
          "internalType": "address[]",
          "name": "_path",
          "type": "address[]"
        },
        {
          "internalType": "uint256",
          "name": "_deadline",
          "type": "uint256"
        },
        {
          "internalType": "bytes",
          "name": "_userScript",
          "type": "bytes"
        },
        {
          "internalType": "enum ScriptTypes",
          "name": "_scriptType",
          "type": "uint8"
        },
        {
          "internalType": "bytes",
          "name": "_lockerLockingScript",
          "type": "bytes"
        },
        {
          "internalType": "uint256",
          "name": "thirdParty",
          "type": "uint256"
        }
      ],
      "name": "swapAndUnwrap",
      "outputs": [
        {
          "internalType": "uint256",
          "name": "",
          "type": "uint256"
        }
      ],
      "stateMutability": "nonpayable",
      "type": "function"
    },
    {
      "inputs": [],
      "name": "teleBTC",
      "outputs": [
        {
          "internalType": "address",
          "name": "",
          "type": "address"
        }
      ],
      "stateMutability": "view",
      "type": "function"
    },
    {
      "inputs": [
        {
          "internalType": "uint256",
          "name": "",
          "type": "uint256"
        }
      ],
      "name": "thirdPartyAddress",
      "outputs": [
        {
          "internalType": "address",
          "name": "",
          "type": "address"
        }
      ],
      "stateMutability": "view",
      "type": "function"
    },
    {
      "inputs": [
        {
          "internalType": "uint256",
          "name": "",
          "type": "uint256"
        }
      ],
      "name": "thirdPartyFee",
      "outputs": [
        {
          "internalType": "uint256",
          "name": "",
          "type": "uint256"
        }
      ],
      "stateMutability": "view",
      "type": "function"
    },
    {
      "inputs": [],
      "name": "transferDeadline",
      "outputs": [
        {
          "internalType": "uint256",
          "name": "",
          "type": "uint256"
        }
      ],
      "stateMutability": "view",
      "type": "function"
    },
    {
      "inputs": [
        {
          "internalType": "address",
          "name": "newOwner",
          "type": "address"
        }
      ],
      "name": "transferOwnership",
      "outputs": [],
      "stateMutability": "nonpayable",
      "type": "function"
    },
    {
      "inputs": [],
      "name": "treasury",
      "outputs": [
        {
          "internalType": "address",
          "name": "",
          "type": "address"
        }
      ],
      "stateMutability": "view",
      "type": "function"
    },
    {
      "inputs": [
        {
          "internalType": "uint256",
          "name": "_amount",
          "type": "uint256"
        },
        {
          "internalType": "bytes",
          "name": "_userScript",
          "type": "bytes"
        },
        {
          "internalType": "enum ScriptTypes",
          "name": "_scriptType",
          "type": "uint8"
        },
        {
          "internalType": "bytes",
          "name": "_lockerLockingScript",
          "type": "bytes"
        },
        {
          "internalType": "uint256",
          "name": "thirdParty",
          "type": "uint256"
        }
      ],
      "name": "unwrap",
      "outputs": [
        {
          "internalType": "uint256",
          "name": "",
          "type": "uint256"
        }
      ],
      "stateMutability": "nonpayable",
      "type": "function"
    },
    {
      "stateMutability": "payable",
      "type": "receive"
    }
  ],
  "transactionHash": "0x3f5ec66bc490010d7cc2b83dcdf1eb29e313e6c2c2650c71fa0adb6356b3109b",
  "args": [],
  "numDeployments": 1,
  "solcInputHash": "9ca654810ef97c60adfed8de3af802a8",
  "bytecode": "0x608060405234801561001057600080fd5b50615bfd80620000216000396000f3fe6080604052600436106101be5760003560e01c80637f0f1817116100f35780637f0f1817146104305780637ffe9a92146104505780638d3d78cd146104705780638d5fc1d4146104905780638da5cb5b146104b05780638f9eb78b146104c5578063930a60e8146104e5578063a9b6827114610512578063b14d353214610548578063b59589d114610568578063b74d0d3514610588578063bed6a6021461059e578063c780c03f146105b4578063c805f68b146105c7578063cf54ce47146105e7578063ea73263714610607578063f0f442601461061a578063f2fde38b1461063a578063f47e22401461065a57600080fd5b80631812adb6146101ca5780631876dec4146101f35780631d927898146102205780631e236168146102425780631e7107c71461028257806333453d15146102a25780633fea4367146102c2578063419cba7f146102e257806344dd6aa5146102f85780634782bc361461031857806350a058361461033857806359fd0b0c146103585780635c4f5f3e1461038557806361d027b3146103a557806370872aa5146103c5578063715018a6146103db57806373532b2a146103f05780637ed557481461041057600080fd5b366101c557005b600080fd5b3480156101d657600080fd5b506101e060075481565b6040519081526020015b60405180910390f35b3480156101ff57600080fd5b50600154610213906001600160a01b031681565b6040516101ea919061545a565b34801561022c57600080fd5b5061024061023b36600461517c565b61068e565b005b34801561024e57600080fd5b5061027261025d366004614e39565b600c6020526000908152604090205460ff1681565b60405190151581526020016101ea565b34801561028e57600080fd5b5061024061029d366004614e39565b610811565b3480156102ae57600080fd5b506102406102bd366004614bf9565b610880565b3480156102ce57600080fd5b506101e06102dd366004615206565b6108f1565b3480156102ee57600080fd5b506101e060085481565b34801561030457600080fd5b506101e0610313366004614c31565b610a0d565b34801561032457600080fd5b50610240610333366004614e39565b610ab3565b34801561034457600080fd5b50600454610213906001600160a01b031681565b34801561036457600080fd5b506101e0610373366004614e39565b60a46020526000908152604090205481565b34801561039157600080fd5b506102406103a0366004614e39565b610b4e565b3480156103b157600080fd5b50600354610213906001600160a01b031681565b3480156103d157600080fd5b506101e060055481565b3480156103e757600080fd5b50610240610ce5565b3480156103fc57600080fd5b5061024061040b366004614f8e565b610cef565b34801561041c57600080fd5b5061024061042b366004614e39565b611315565b34801561043c57600080fd5b5061024061044b366004614bf9565b6113af565b34801561045c57600080fd5b5061027261046b366004614d49565b611449565b34801561047c57600080fd5b50600254610213906001600160a01b031681565b34801561049c57600080fd5b506102406104ab36600461514d565b6114a1565b3480156104bc57600080fd5b50610213611545565b3480156104d157600080fd5b506102406104e036600461528f565b611554565b3480156104f157600080fd5b506101e0610500366004614bf9565b600b6020526000908152604090205481565b34801561051e57600080fd5b5061021361052d366004614e39565b60a5602052600090815260409020546001600160a01b031681565b34801561055457600080fd5b50610240610563366004614bf9565b6115bd565b34801561057457600080fd5b50600054610213906001600160a01b031681565b34801561059457600080fd5b506101e060095481565b3480156105aa57600080fd5b506101e060065481565b6102406105c2366004614ff3565b611657565b3480156105d357600080fd5b506102406105e2366004614bf9565b6117d5565b3480156105f357600080fd5b50610240610602366004614e39565b61186f565b610272610615366004614e69565b61190b565b34801561062657600080fd5b50610240610635366004614bf9565b611c5e565b34801561064657600080fd5b50610240610655366004614bf9565b611cf8565b34801561066657600080fd5b5061067a610675366004614d49565b611d71565b6040516101ea989796959493929190615840565b600d54610100900460ff16158080156106ae5750600d54600160ff909116105b806106c85750303b1580156106c85750600d5460ff166001145b6107305760405162461bcd60e51b815260206004820152602e60248201527f496e697469616c697a61626c653a20636f6e747261637420697320616c72656160448201526d191e481a5b9a5d1a585b1a5e995960921b60648201526084015b60405180910390fd5b600d805460ff19166001179055801561075357600d805461ff0019166101001790555b61075b611e6e565b610763611e9d565b61076c8a610811565b610775896117d5565b61077e886115bd565b61078787611c5e565b610790866113af565b61079985610b4e565b6107a284611315565b6107ab83610ab3565b6107b66102bd611545565b6107bf8261186f565b801561080557600d805461ff0019169055604051600181527f7f26b83ff96e1f2b6a682f133852f6798a09c465da95921460cefb38474024989060200160405180910390a15b50505050505050505050565b610819611ecc565b600554811161087b5760405162461bcd60e51b815260206004820152602860248201527f4275726e526f757465724c6f6769633a206c6f77207374617274696e67426c6f60448201526731b5a73ab6b132b960c11b6064820152608401610727565b600555565b610888611ecc565b6004546040517f68bf625687194a1bbeeccbaa327c37aa1f9940a3c6c9e8fe84f06f1dc14fd176916108c7916001600160a01b0390911690849061546e565b60405180910390a1600480546001600160a01b0319166001600160a01b0392909216919091179055565b60006108fb611f2b565b6002546001600160a01b03166323b872dd33308a6040518463ffffffff1660e01b815260040161092d93929190615488565b602060405180830381600087803b15801561094757600080fd5b505af115801561095b573d6000803e3d6000fd5b505050506040513d601f19601f8201168201806040525081019061097f9190614d74565b6109d75760405162461bcd60e51b8152602060048201526024808201527f4275726e526f757465724c6f6769633a207472616e7366657246726f6d2066616044820152631a5b195960e21b6064820152608401610727565b6002546000906109f6906001600160a01b031689808a8a8a8a8a611f85565b915050610a036001607255565b9695505050505050565b6000610a17611f2b565b6000610a288e8e8e8e8e8e8e6123f4565b9050610a968d8d6000818110610a4e57634e487b7160e01b600052603260045260246000fd5b905060200201358b8b6000818110610a7657634e487b7160e01b600052603260045260246000fd5b9050602002016020810190610a8b9190614bf9565b838a8a8a8a8a612818565b915050610aa36001607255565b9c9b505050505050505050505050565b610abb611ecc565b806127101015610b0d5760405162461bcd60e51b815260206004820152601f60248201527f4275726e526f757465724c6f6769633a20696e76616c696420726577617264006044820152606401610727565b60085460408051918252602082018390527faa50b3683e42a13535a5b9c2c32780cccf956fb546b523a3542ac4ad8b544f67910160405180910390a1600855565b600080546040516353bcd1c960e11b815273c7BdBecE57a8021a9a2137eeA1474BF978832D699163a779a39291610b91916001600160a01b03169060040161545a565b60206040518083038186803b158015610ba957600080fd5b505af4158015610bbd573d6000803e3d6000fd5b505050506040513d601f19601f82011682018060405250810190610be19190614e51565b9050610beb611545565b6001600160a01b0316336001600160a01b03161480610c0b575080600654105b610c545760405162461bcd60e51b815260206004820152601a602482015279109d5c9b949bdd5d195c931bd9da58ce881b9bc81c195c9b5a5d60321b6044820152606401610727565b808211610ca35760405162461bcd60e51b815260206004820152601d60248201527f4275726e526f757465724c6f6769633a206c6f7720646561646c696e650000006044820152606401610727565b60065460408051918252602082018490527f92c10a242ca42973030420e2ee32b3ba7818cc643f896958f620c606cf300416910160405180910390a150600655565b610ced611ecc565b565b610cf7611f2b565b610cff611ecc565b60015460405163aff2faa360e01b81526001600160a01b039091169063aff2faa390610d319086908690600401615605565b60206040518083038186803b158015610d4957600080fd5b505afa158015610d5d573d6000803e3d6000fd5b505050506040513d601f19601f82011682018060405250810190610d819190614d74565b610d9d5760405162461bcd60e51b8152600401610727906157c0565b60015460405163626885b560e11b81526000916001600160a01b03169063c4d10b6a90610dd09087908790600401615605565b60206040518083038186803b158015610de857600080fd5b505afa158015610dfc573d6000803e3d6000fd5b505050506040513d601f19601f82011682018060405250810190610e209190614c15565b905060005b82518110156113045773c7BdBecE57a8021a9a2137eeA1474BF978832D696315755789600a84868581518110610e6b57634e487b7160e01b600052603260045260246000fd5b60209081029190910101516006546000546040516310889dc360e01b815273c7BdBecE57a8021a9a2137eeA1474BF978832D69916310889dc391610ebb916001600160a01b03169060040161545a565b60206040518083038186803b158015610ed357600080fd5b505af4158015610ee7573d6000803e3d6000fd5b505050506040513d601f19601f82011682018060405250810190610f0b9190614e51565b6005546040516001600160e01b031960e089901b16815260048101969096526001600160a01b03909416602486015260448501929092526064840152608483015260a482015260c40160006040518083038186803b158015610f6c57600080fd5b505af4158015610f80573d6000803e3d6000fd5b50506001546008546001600160a01b038681166000908152600a602052604090208851919093169450631697565b935086926127109291899088908110610fd757634e487b7160e01b600052603260045260246000fd5b602002602001015181548110610ffd57634e487b7160e01b600052603260045260246000fd5b9060005260206000209060070201600001546110199190615a76565b6110239190615a56565b336001600160a01b0387166000908152600a60205260409020885189908890811061105e57634e487b7160e01b600052603260045260246000fd5b60200260200101518154811061108457634e487b7160e01b600052603260045260246000fd5b906000526020600020906007020160000154600a6000896001600160a01b03166001600160a01b031681526020019081526020016000208988815181106110db57634e487b7160e01b600052603260045260246000fd5b60200260200101518154811061110157634e487b7160e01b600052603260045260246000fd5b600091825260209091206007909102016002015460405160e087901b6001600160e01b03191681526001600160a01b03958616600482015260248101949094529184166044840152606483015291909116608482015260a401602060405180830381600087803b15801561117457600080fd5b505af1158015611188573d6000803e3d6000fd5b505050506040513d601f19601f820116820180604052508101906111ac9190614d74565b506001600160a01b0382166000818152600a6020526040902084518590849081106111e757634e487b7160e01b600052603260045260246000fd5b60200260200101518154811061120d57634e487b7160e01b600052603260045260246000fd5b906000526020600020906007020160020160009054906101000a90046001600160a01b03166001600160a01b03167f58c23b4ae0617be275628875bcfd65759a441263099a256eeb27899fb5dd846d8787600a6000886001600160a01b03166001600160a01b031681526020019081526020016000208887815181106112a357634e487b7160e01b600052603260045260246000fd5b6020026020010151815481106112c957634e487b7160e01b600052603260045260246000fd5b9060005260206000209060070201600601546040516112ea93929190615619565b60405180910390a3806112fc81615b5d565b915050610e25565b50506113106001607255565b505050565b61131d611ecc565b80612710101561136e5760405162461bcd60e51b815260206004820152601c60248201527b4275726e526f757465724c6f6769633a20696e76616c69642066656560201b6044820152606401610727565b60075460408051918252602082018390527f7d205f60891f60851c61cd244ba387d72b6589e7c0ac41b9d909ab0ce2c2a53b910160405180910390a1600755565b6113b7611ecc565b806001600160a01b0381166113df5760405163d92e233d60e01b815260040160405180910390fd5b6002546040517f36a4c08a38b736dcecb6c328dba61238529620e83ccb23db2cc43cd34ec260969161141e916001600160a01b0390911690859061546e565b60405180910390a150600280546001600160a01b0319166001600160a01b0392909216919091179055565b6001600160a01b0382166000908152600a6020526040812080548390811061148157634e487b7160e01b600052603260045260246000fd5b600091825260209091206005600790920201015460ff1690505b92915050565b6114a9611ecc565b600082815260a56020526040908190205490517f1e73962bcff5b98a9ac70c9b0f71fbb31dc0f5a09348c6d3ceab164169a9e7299161150f9185916001600160a01b03169085909283526001600160a01b03918216602084015216604082015260600190565b60405180910390a1600091825260a5602052604090912080546001600160a01b0319166001600160a01b03909216919091179055565b6040546001600160a01b031690565b61155c611ecc565b600082815260a46020908152604091829020548251858152918201529081018290527f188adabf806a6b6d814acc1dbd9f09e5a251c8c065d6285749a5824e4579b6459060600160405180910390a1600091825260a4602052604090912055565b6115c5611ecc565b806001600160a01b0381166115ed5760405163d92e233d60e01b815260040160405180910390fd5b6001546040517ffa021c2ec0f46429a53e7f88b88065e40001f50c9d38b2e8b713beaf9828d4c39161162c916001600160a01b0390911690859061546e565b60405180910390a150600180546001600160a01b0319166001600160a01b0392909216919091179055565b61165f611f2b565b611667611ecc565b60006116c58960008151811061168d57634e487b7160e01b600052603260045260246000fd5b60200260200101518989876000815181106116b857634e487b7160e01b600052603260045260246000fd5b602002602001015161282b565b905073c7BdBecE57a8021a9a2137eeA1474BF978832D6963441d3a21600160009054906101000a90046001600160a01b03168c8c60405180606001604052808e81526020018c81526020018b815250600c60065460008054906101000a90046001600160a01b03166005548a8e8e8e6040518d63ffffffff1660e01b815260040161175b9c9b9a999897969594939291906154eb565b60006040518083038186803b15801561177357600080fd5b505af4158015611787573d6000803e3d6000fd5b505050506117bf878b83856002815181106117b257634e487b7160e01b600052603260045260246000fd5b6020026020010151612991565b506117ca6001607255565b505050505050505050565b6117dd611ecc565b806001600160a01b0381166118055760405163d92e233d60e01b815260040160405180910390fd5b6000546040517f4c28a3f61a715259c4dc930c23e7423b8fa52e13232c061a6e488729c66184f491611844916001600160a01b0390911690859061546e565b60405180910390a150600080546001600160a01b0319166001600160a01b0392909216919091179055565b60045433906001600160a01b031681146118c95760405162461bcd60e51b815260206004820152601b60248201527a4275726e526f757465724c6f6769633a206e6f74206f7261636c6560281b6044820152606401610727565b60095460408051918252602082018490527f890eb41e398fd9cf425695b34269b781ad56c257422859094a28db47fb78f1b3910160405180910390a150600955565b6000611915611f2b565b60015460405163626885b560e11b81526000916001600160a01b03169063c4d10b6a9061194690889060040161563d565b60206040518083038186803b15801561195e57600080fd5b505afa158015611972573d6000803e3d6000fd5b505050506040513d601f19601f820116820180604052508101906119969190614c15565b9050336001600160a01b038216146119c05760405162461bcd60e51b8152600401610727906157c0565b73c7BdBecE57a8021a9a2137eeA1474BF978832D696344922b64896005548c600160009054906101000a90046001600160a01b03168a8a518a516040518863ffffffff1660e01b8152600401611a1c9796959493929190615922565b60006040518083038186803b158015611a3457600080fd5b505af4158015611a48573d6000803e3d6000fd5b505050506000611a5a8d8d8d8d61282b565b600054604051637ebc232760e01b815291925073c7BdBecE57a8021a9a2137eeA1474BF978832D6991637ebc232791611aa9916001600160a01b039091169085908e908e908e906004016154ac565b60206040518083038186803b158015611ac157600080fd5b505af4158015611ad5573d6000803e3d6000fd5b505050506040513d601f19601f82011682018060405250810190611af99190614d74565b611b455760405162461bcd60e51b815260206004820152601e60248201527f4275726e526f757465724c6f6769633a206e6f742066696e616c697a656400006044820152606401610727565b6000611b55828b858f8a8a612b5d565b905073c7BdBecE57a8021a9a2137eeA1474BF978832D6963191e28dc600c838f8b876040518663ffffffff1660e01b8152600401611b97959493929190615747565b60206040518083038186803b158015611baf57600080fd5b505af4158015611bc3573d6000803e3d6000fd5b505050506040513d601f19601f82011682018060405250810190611be79190614d74565b611c3f5760405162461bcd60e51b815260206004820152602360248201527f4275726e526f757465724c6f6769633a20696e76616c6964206275726e20707260448201526237b7b360e91b6064820152608401610727565b60019350505050611c506001607255565b9a9950505050505050505050565b611c66611ecc565b806001600160a01b038116611c8e5760405163d92e233d60e01b815260040160405180910390fd5b6003546040517f567657fa3f286518b318f4a29870674f433f622fdfc819691acb13105b22822591611ccd916001600160a01b0390911690859061546e565b60405180910390a150600380546001600160a01b0319166001600160a01b0392909216919091179055565b611d00611ecc565b6001600160a01b038116611d655760405162461bcd60e51b815260206004820152602660248201527f4f776e61626c653a206e6577206f776e657220697320746865207a65726f206160448201526564647265737360d01b6064820152608401610727565b611d6e81613052565b50565b600a6020528160005260406000208181548110611d8d57600080fd5b600091825260209091206007909102018054600182015460028301546003840180549396509194506001600160a01b03169291611dc990615b28565b80601f0160208091040260200160405190810160405280929190818152602001828054611df590615b28565b8015611e425780601f10611e1757610100808354040283529160200191611e42565b820191906000526020600020905b815481529060010190602001808311611e2557829003601f168201915b505050600484015460058501546006909501549394909360ff8083169450610100909204909116915088565b600d54610100900460ff16611e955760405162461bcd60e51b8152600401610727906157f5565b610ced6130a2565b600d54610100900460ff16611ec45760405162461bcd60e51b8152600401610727906157f5565b610ced6130d2565b33611ed5611545565b6001600160a01b031614610ced5760405162461bcd60e51b815260206004820181905260248201527f4f776e61626c653a2063616c6c6572206973206e6f7420746865206f776e65726044820152606401610727565b60026072541415611f7e5760405162461bcd60e51b815260206004820152601f60248201527f5265656e7472616e637947756172643a207265656e7472616e742063616c6c006044820152606401610727565b6002607255565b600154604051630f87661560e41b815260009173c7BdBecE57a8021a9a2137eeA1474BF978832D699163f876615091611fd4918a918a916001600160a01b03909116908a908a90600401615650565b60006040518083038186803b158015611fec57600080fd5b505af4158015612000573d6000803e3d6000fd5b5050505060008060006120138a866130f9565b60025460015460405163095ea7b360e01b81529497509295509093506001600160a01b039081169263095ea7b39261205192169087906004016155ec565b602060405180830381600087803b15801561206b57600080fd5b505af115801561207f573d6000803e3d6000fd5b505050506040513d601f19601f820116820180604052508101906120a39190614d74565b506001546040516338463cff60e01b81526001600160a01b03909116906338463cff906120d8908a908a908890600401615619565b602060405180830381600087803b1580156120f257600080fd5b505af1158015612106573d6000803e3d6000fd5b505050506040513d601f19601f8201168201806040525081019061212a9190614e51565b60015460405163626885b560e11b81529195506000916001600160a01b039091169063c4d10b6a90612162908b908b90600401615605565b60206040518083038186803b15801561217a57600080fd5b505afa15801561218e573d6000803e3d6000fd5b505050506040513d601f19601f820116820180604052508101906121b29190614c15565b6000546040516310889dc360e01b8152919250612259918d9188918e918e9173c7BdBecE57a8021a9a2137eeA1474BF978832D69916310889dc391612203916001600160a01b03169060040161545a565b60206040518083038186803b15801561221b57600080fd5b505af415801561222f573d6000803e3d6000fd5b505050506040513d601f19601f820116820180604052508101906122539190614e51565b86613499565b604080516060810182528d815260208082018e905281830188905282516080810190935260095483528f9260009181016122938a8a615abe565b8152602080820189905260409182018890526001600160a01b0387166000908152600a909152208054919250906122cc90600190615abe565b815481106122ea57634e487b7160e01b600052603260045260246000fd5b9060005260206000209060070201600401546123033390565b6001600160a01b03167f6b5c22e69db87534a562352580358411dc7b2d98d24684765342f2ebf2dd8c318f8f88600a60008b6001600160a01b03166001600160a01b031681526020019081526020016000206001600a60008d6001600160a01b03166001600160a01b031681526020019081526020016000208054905061238a9190615abe565b815481106123a857634e487b7160e01b600052603260045260246000fd5b9060005260206000209060070201600601548f8a8a8a6040516123d298979695949392919061569e565b60405180910390a35050505050505098975050505050505050565b6001607255565b6002546000906001600160a01b03168484612410600182615abe565b81811061242d57634e487b7160e01b600052603260045260246000fd5b90506020020160208101906124429190614bf9565b6001600160a01b0316146124985760405162461bcd60e51b815260206004820152601d60248201527f4275726e526f757465724c6f6769633a20696e76616c696420706174680000006044820152606401610727565b600286146124e85760405162461bcd60e51b815260206004820152601e60248201527f4275726e526f757465724c6f6769633a2077726f6e6720616d6f756e747300006044820152606401610727565b8383600081811061250957634e487b7160e01b600052603260045260246000fd5b905060200201602081019061251e9190614bf9565b6001600160a01b03166323b872dd33308a8a600081811061254f57634e487b7160e01b600052603260045260246000fd5b905060200201356040518463ffffffff1660e01b815260040161257493929190615488565b602060405180830381600087803b15801561258e57600080fd5b505af11580156125a2573d6000803e3d6000fd5b505050506040513d601f19601f820116820180604052508101906125c69190614d74565b50838360008181106125e857634e487b7160e01b600052603260045260246000fd5b90506020020160208101906125fd9190614bf9565b6001600160a01b031663095ea7b3898989600081811061262d57634e487b7160e01b600052603260045260246000fd5b905060200201356040518363ffffffff1660e01b81526004016126519291906155ec565b602060405180830381600087803b15801561266b57600080fd5b505af115801561267f573d6000803e3d6000fd5b505050506040513d601f19601f820116820180604052508101906126a39190614d74565b50600080896001600160a01b031663b0bbcd888a8a60008181106126d757634e487b7160e01b600052603260045260246000fd5b905060200201358b8b60018181106126ff57634e487b7160e01b600052603260045260246000fd5b905060200201358989308a8e6040518863ffffffff1660e01b815260040161272d97969594939291906158a3565b600060405180830381600087803b15801561274757600080fd5b505af115801561275b573d6000803e3d6000fd5b505050506040513d6000823e601f3d908101601f191682016040526127839190810190614d90565b91509150816127d45760405162461bcd60e51b815260206004820181905260248201527f4275726e526f757465724c6f6769633a2065786368616e6765206661696c65646044820152606401610727565b80600182516127e39190615abe565b8151811061280157634e487b7160e01b600052603260045260246000fd5b602002602001015192505050979650505050505050565b600080611c50898b8a8a8a8a8a8a611f85565b60008061284061283b8683613669565b61368d565b905061285162ffffff1982166137e3565b1561289b5760405162461bcd60e51b815260206004820152601a602482015279109a5d18dbda5b92195b1c195c8e881d9a5b881a5cc81b9d5b1b60321b6044820152606401610727565b60006002878787876040516020016128b694939291906153eb565b60408051601f19818403018152908290526128d09161543e565b602060405180830381855afa1580156128ed573d6000803e3d6000fd5b5050506040513d601f19601f820116820180604052508101906129109190614e51565b9050600060028260405160200161292991815260200190565b60408051601f19818403018152908290526129439161543e565b602060405180830381855afa158015612960573d6000803e3d6000fd5b5050506040513d601f19601f820116820180604052508101906129839190614e51565b93505050505b949350505050565b600061299c856137ef565b60015460405163626885b560e11b81526001600160401b039290921692506000916001600160a01b039091169063c4d10b6a906129dd90889060040161563d565b60206040518083038186803b1580156129f557600080fd5b505afa158015612a09573d6000803e3d6000fd5b505050506040513d601f19601f82011682018060405250810190612a2d9190614c15565b6001546008549192506001600160a01b03169063b734de2690839061271090612a569087615a76565b612a609190615a56565b3360405160e085901b6001600160e01b03191681526001600160a01b0393841660048201526024810192909252909116604482015260648101859052608401602060405180830381600087803b158015612ab957600080fd5b505af1158015612acd573d6000803e3d6000fd5b505050506040513d601f19601f82011682018060405250810190612af19190614d74565b507f7ff138134e34ccab071315c38e38eec079f54726b890304ab46e2c5ab6f722bb8186858761271060085488612b289190615a76565b612b329190615a56565b612b3c90886159cc565b604051612b4d9594939291906155ab565b60405180910390a1505050505050565b60008080805b85518110156130455780612ba057848181518110612b9157634e487b7160e01b600052603260045260246000fd5b60200260200101519150612c51565b81858281518110612bc157634e487b7160e01b600052603260045260246000fd5b602002602001015111612c265760405162461bcd60e51b815260206004820152602760248201527f4275726e526f757465724c6f6769633a20756e2d736f7274656420766f757420604482015266696e646578657360c81b6064820152608401610727565b848181518110612c4657634e487b7160e01b600052603260045260246000fd5b602002602001015191505b6000868281518110612c7357634e487b7160e01b600052603260045260246000fd5b60200260200101519050600a60008a6001600160a01b03166001600160a01b031681526020019081526020016000208181548110612cc157634e487b7160e01b600052603260045260246000fd5b600091825260209091206005600790920201015460ff16158015612d3057506001600160a01b0389166000908152600a6020526040902080548b919083908110612d1b57634e487b7160e01b600052603260045260246000fd5b90600052602060002090600702016004015410155b1561303257612e9d88878481518110612d5957634e487b7160e01b600052603260045260246000fd5b6020026020010151600a60008d6001600160a01b03166001600160a01b031681526020019081526020016000208481548110612da557634e487b7160e01b600052603260045260246000fd5b90600052602060002090600702016003018054612dc190615b28565b80601f0160208091040260200160405190810160405280929190818152602001828054612ded90615b28565b8015612e3a5780601f10612e0f57610100808354040283529160200191612e3a565b820191906000526020600020905b815481529060010190602001808311612e1d57829003601f168201915b5050506001600160a01b038f166000908152600a6020526040902080549092508791508110612e7957634e487b7160e01b600052603260045260246000fd5b906000526020600020906007020160050160019054906101000a900460ff16613892565b6001600160401b0316935083600a60008b6001600160a01b03166001600160a01b031681526020019081526020016000208281548110612eed57634e487b7160e01b600052603260045260246000fd5b9060005260206000209060070201600101541415613032576001600160a01b0389166000908152600a6020526040902080546001919083908110612f4157634e487b7160e01b600052603260045260246000fd5b60009182526020909120600790910201600501805460ff1916911515919091179055612f6e8560016159cc565b6001600160a01b038a166000818152600a60205260409020805492975090917f7b8cb33b1d4dc1e5d05c58e9945c383eb161ac22029c5b963989d08c3d0ef4da919084908110612fce57634e487b7160e01b600052603260045260246000fd5b9060005260206000209060070201600601548d89868151811061300157634e487b7160e01b600052603260045260246000fd5b6020026020010151604051613029939291909283526020830191909152604082015260600190565b60405180910390a25b508061303d81615b5d565b915050612b63565b5050509695505050505050565b604080546001600160a01b038381166001600160a01b031983168117845592519116919082907f8be0079c531659141344cd1fd0a4f28419497f9722a3daafe3b4186f6b6457e090600090a35050565b600d54610100900460ff166130c95760405162461bcd60e51b8152600401610727906157f5565b610ced33613052565b600d54610100900460ff166123ed5760405162461bcd60e51b8152600401610727906157f5565b60008060006127106007548661310f9190615a76565b6131199190615a56565b600085815260a46020526040902054909250612710906131399087615a76565b6131439190615a56565b600954909150816131548488615abe565b61315e9190615abe565b6131689190615abe565b92506009548310156131ba5760405162461bcd60e51b815260206004820152601b60248201527a109d5c9b949bdd5d195c931bd9da58ce881b1bddc8185b5bdd5b9d602a1b6044820152606401610727565b81156132a05760025460035460405163a9059cbb60e01b81526001600160a01b039283169263a9059cbb926131f69291169086906004016155ec565b602060405180830381600087803b15801561321057600080fd5b505af1158015613224573d6000803e3d6000fd5b505050506040513d601f19601f820116820180604052508101906132489190614d74565b6132a05760405162461bcd60e51b8152602060048201526024808201527f4275726e526f757465724c6f6769633a20666565207472616e736665722066616044820152631a5b195960e21b6064820152608401610727565b80156133a057600254600085815260a560205260409081902054905163a9059cbb60e01b81526001600160a01b039283169263a9059cbb926132e99291169085906004016155ec565b602060405180830381600087803b15801561330357600080fd5b505af1158015613317573d6000803e3d6000fd5b505050506040513d601f19601f8201168201806040525081019061333b9190614d74565b6133a05760405162461bcd60e51b815260206004820152603060248201527f4275726e526f757465724c6f6769633a2074686972642070617274792066656560448201526f081d1c985b9cd9995c8819985a5b195960821b6064820152608401610727565b600954156134925760025460015460095460405163a9059cbb60e01b81526001600160a01b039384169363a9059cbb936133df939116916004016155ec565b602060405180830381600087803b1580156133f957600080fd5b505af115801561340d573d6000803e3d6000fd5b505050506040513d601f19601f820116820180604052508101906134319190614d74565b6134925760405162461bcd60e51b815260206004820152602c60248201527f4275726e526f757465724c6f6769633a206e6574776f726b206665652074726160448201526b1b9cd9995c8819985a5b195960a21b6064820152608401610727565b9250925092565b604080516101008101825260006080820181905260a0820181905260c0820181815260e083019190915288825260208201889052339282019290925260608101869052908460058111156134fd57634e487b7160e01b600052602160045260246000fd5b9081600581111561351e57634e487b7160e01b600052602160045260246000fd5b90525060065461352e90846159cc565b6080820152600060a082018190526001600160a01b038316808252600b6020818152604084205460e086018190529290935290915261356e9060016159cc565b6001600160a01b038381166000908152600b6020908152604080832094909455600a81528382208054600180820183559184529282902086516007909402019283558582015190830155928401516002820180546001600160a01b03191691909316179091556060830151805184936135ee926003850192910190614967565b506080820151600482015560a08201516005808301805492151560ff1984168117825560c086015193919261ff001990911661ffff19909216919091179061010090849081111561364f57634e487b7160e01b600052602160045260246000fd5b021790555060e08201518160060155505050505050505050565b81516000906020840161368464ffffffffff85168284613b06565b95945050505050565b600081816136a3815b62ffffff19841690613b4d565b506136b362ffffff198516613c27565b6001600160601b03166136cf576136c8613c36565b92506137dc565b60006136dc856000613c3e565b905060006136ef62ffffff198716613c27565b6001600160601b031690506001600160401b03821661371957613710613c36565b945050506137dc565b600061372483613d87565b60ff16905060005b836001600160401b03168110156137a2578282106137575761374c613c36565b9650505050506137dc565b60006137776137668486615abe565b60055b62ffffff198c169190613de5565b905061378281613e0f565b61378c90846159cc565b925050808061379a90615b5d565b91505061372c565b508181146137bc576137b2613c36565b95505050506137dc565b6137d660065b60d81b6301000000600160d81b0389161790565b95505050505b5050919050565b62ffffff199081161490565b6000806138046137ff8483613669565b613e63565b905061381562ffffff1982166137e3565b156138325760405162461bcd60e51b81526004016107279061578b565b600080613840836000613c3e565b6001600160401b0316905060005b81811015613889576138608482613f64565b925061386b8361407b565b61387590866159e4565b94508061388181615b5d565b91505061384e565b50505050919050565b6000806138a26137ff8783613669565b90506138b362ffffff1982166137e3565b156138d05760405162461bcd60e51b81526004016107279061578b565b60006138dc8287613f64565b905060006138e9826140a0565b9050600585600581111561390d57634e487b7160e01b600052602160045260246000fd5b14156139725761392662ffffff198216600260206140f1565b60405160200161393891815260200190565b6040516020818303038152906040528051906020012086805190602001201461396257600061396b565b61396b8261407b565b9350613afb565b600085600581111561399457634e487b7160e01b600052602160045260246000fd5b14156139ad5761392662ffffff198216600160206140f1565b60018560058111156139cf57634e487b7160e01b600052602160045260246000fd5b1415613a09576139e662ffffff198216600361421f565b604051602001613938919060609190911b6001600160601b031916815260140190565b6002856005811115613a2b57634e487b7160e01b600052602160045260246000fd5b1415613a42576139e662ffffff198216600261421f565b6003856005811115613a6457634e487b7160e01b600052602160045260246000fd5b1415613a7b576139e662ffffff198216600261421f565b6004856005811115613a9d57634e487b7160e01b600052602160045260246000fd5b1415613afb57613ab662ffffff198216600260206140f1565b604051602001613ac891815260200190565b60405160208183030381529060405280519060200120868051906020012014613af2576000612983565b6129838261407b565b505050949350505050565b600080613b1383856159cc565b9050604051811115613b23575060005b80613b355762ffffff19915050613b46565b5050606083811b8317901b811760181b5b9392505050565b6000613b59838361422d565b613c20576000613b78613b6c8560d81c90565b64ffffffffff16614250565b9150506000613b8d8464ffffffffff16614250565b6040517f5479706520617373657274696f6e206661696c65642e20476f7420307800000060208201526001600160b01b031960b086811b8216603d8401526c05c408af0e0cac6e8cac84060f609b1b604784015283901b16605482015290925060009150605e015b60405160208183030381529060405290508060405162461bcd60e51b8152600401610727919061563d565b5090919050565b60181c6001600160601b031690565b62ffffff1990565b600080613c5362ffffff1985168460016142fc565b905060fc8111613c6e57613c668161432c565b91505061149b565b8060fd1415613cd457613c9c613c97613c888560016159cc565b62ffffff198716906002614398565b61432c565b9150613ca782613d87565b60ff16600314613ccf57613ccd613cc862ffffff19861685600360006144db565b614541565b505b613d80565b8060fe1415613d2957613cfd613c97613cee8560016159cc565b62ffffff198716906004614398565b9150613d0882613d87565b60ff16600514613ccf57613ccd613cc862ffffff19861685600560006144db565b8060ff1415613d8057613d52613c97613d438560016159cc565b62ffffff198716906008614398565b9150613d5d82613d87565b60ff16600914613d8057613d7e613cc862ffffff19861685600960006144db565b505b5092915050565b600060fc826001600160401b031611613da257506001919050565b61ffff826001600160401b031611613dbc57506003919050565b63ffffffff826001600160401b031611613dd857506005919050565b506009919050565b919050565b60006129898484613df587613c27565b6001600160601b0316613e089190615abe565b85856144db565b6000816005613e1d81613696565b506000613e2b856024613c3e565b9050806001600160401b0316613e4082613d87565b60ff16613e4d91906159cc565b613e589060246159cc565b6136849060046159cc565b60008181613e7081613696565b50613e8062ffffff198516613c27565b6001600160601b0316613e95576136c8613c36565b6000613ea2856000613c3e565b90506000613eb562ffffff198716613c27565b6001600160601b031690506001600160401b038216613ed657613710613c36565b6000613ee183613d87565b60ff16905060005b836001600160401b0316811015613f4a57828210613f095761374c613c36565b6000613f1f613f188486615abe565b600e613769565b9050613f2a816145c9565b613f3490846159cc565b9250508080613f4290615b5d565b915050613ee9565b50818114613f5a576137b2613c36565b6137d6600f6137c2565b600082600f613f7281613696565b506000613f80866000613c3e565b6001600160401b031690506000613f9c62ffffff198816613c27565b6001600160601b03169050818610613fea5760405162461bcd60e51b81526020600482015260116024820152702b37baba103932b0b21037bb32b9393ab760791b6044820152606401610727565b6000613ff583613d87565b60ff1690506000805b8881101561404b576140226140138486615abe565b62ffffff198c1690600e613de5565b915061402d826145c9565b61403790846159cc565b92506140446001826159cc565b9050613ffe565b50614059613f188385615abe565b90506000614066826145c9565b9050611c5062ffffff198b168483600d6144db565b600081600d61408981613696565b50612989613c9762ffffff19861660006008614398565b600081600d6140ae81613696565b5060006140bc856008613c3e565b90506136846140ca82613d87565b6140d5906008615a0f565b62ffffff1987169060ff166001600160401b03841660076144db565b600060ff821661410357506000613b46565b61410c84613c27565b6001600160601b031661412260ff8416856159cc565b11156141725761415961413485614612565b6001600160601b031661414686613c27565b6001600160601b0316858560ff16614621565b60405162461bcd60e51b8152600401610727919061563d565b60208260ff1611156141e95760405162461bcd60e51b815260206004820152603a60248201527f54797065644d656d566965772f696e646578202d20417474656d7074656420746044820152796f20696e646578206d6f7265207468616e20333220627974657360301b6064820152608401610727565b6008820260006141f886614612565b6001600160601b031690506000600160ff1b60001984011d91909501511695945050505050565b6000613b46838360146142fc565b60008164ffffffffff166142418460d81c90565b64ffffffffff16149392505050565b600080601f5b600f8160ff1611156142ae57600061426f826008615a95565b60ff1685901c90506142808161474b565b61ffff16841793508160ff1660101461429b57601084901b93505b506142a7600182615ad5565b9050614256565b50600f5b60ff8160ff1610156142f65760ff600882021684901c6142d18161474b565b61ffff16831792508160ff166000146142ec57601083901b92505b50600019016142b2565b50915091565b6000614309826020615ad5565b614314906008615a95565b60ff166143228585856140f1565b901c949350505050565b60006001600160401b038211156143945760405162461bcd60e51b815260206004820152602660248201527f53616665436173743a2076616c756520646f65736e27742066697420696e203660448201526534206269747360d01b6064820152608401610727565b5090565b60006129896143a88585856140f1565b60008190506008817eff00ff00ff00ff00ff00ff00ff00ff00ff00ff00ff00ff00ff00ff00ff00ff16901b600882901c7eff00ff00ff00ff00ff00ff00ff00ff00ff00ff00ff00ff00ff00ff00ff00ff161790506010817dffff0000ffff0000ffff0000ffff0000ffff0000ffff0000ffff0000ffff16901b601082901c7dffff0000ffff0000ffff0000ffff0000ffff0000ffff0000ffff0000ffff161790506020817bffffffff00000000ffffffff00000000ffffffff00000000ffffffff16901b602082901c7bffffffff00000000ffffffff00000000ffffffff00000000ffffffff161790506040816001600160401b03600160801b03600160c01b0316901b604082901c6001600160401b03600160801b03600160c01b0316179050608081901b608082901c179050919050565b6000806144e786614612565b6001600160601b031690506144fb8661477d565b8461450687846159cc565b61451091906159cc565b11156145235762ffffff19915050612989565b61452d85826159cc565b9050610a038364ffffffffff168286613b06565b6060600061457f61457a8261456c61455e62ffffff198816613c27565b6001600160601b03166147aa565b62ffffff19871691906142fc565b614250565b6040517a09cdedc5adad2dcd2dac2d840ecc2e440d2dce85c408edee84060f602b1b60208201526001600160701b0319607083901b16603b82015290925060009150604d01613bf5565b600081600e6145d781613696565b5060006145e5856008613c3e565b9050806001600160401b03166145fa82613d87565b60ff1661460791906159cc565b6136849060086159cc565b60781c6001600160601b031690565b6060600061462e86614250565b915050600061463c86614250565b915050600061464a86614250565b915050600061465886614250565b604080517f54797065644d656d566965772f696e646578202d204f76657272616e20746865602082015274040ecd2caee5c40a6d8d2c6ca40d2e640c2e84060f605b1b818301526001600160d01b031960d098891b811660558301526e040eed2e8d040d8cadccee8d04060f608b1b605b830181905297891b8116606a8301527f2e20417474656d7074656420746f20696e646578206174206f666673657420306070830152600f60fb1b609083015295881b861660918201526097810196909652951b90921660a68401525050601760f91b60ac8201528151808203608d01815260ad90910190915295945050505050565b600061475d60048360ff16901c61480b565b60ff1661ffff919091161760081b6147748261480b565b60ff1617919050565b600061478882613c27565b61479183614612565b61479b9190615a34565b6001600160601b031692915050565b600060ff8211156143945760405162461bcd60e51b815260206004820152602560248201527f53616665436173743a2076616c756520646f65736e27742066697420696e2038604482015264206269747360d81b6064820152608401610727565b600060f08083179060ff821614156148265750603092915050565b8060ff1660f1141561483b5750603192915050565b8060ff1660f214156148505750603292915050565b8060ff1660f314156148655750603392915050565b8060ff1660f4141561487a5750603492915050565b8060ff1660f5141561488f5750603592915050565b8060ff1660f614156148a45750603692915050565b8060ff1660f714156148b95750603792915050565b8060ff1660f814156148ce5750603892915050565b8060ff1660f914156148e35750603992915050565b8060ff1660fa14156148f85750606192915050565b8060ff1660fb141561490d5750606292915050565b8060ff1660fc14156149225750606392915050565b8060ff1660fd14156149375750606492915050565b8060ff1660fe141561494c5750606592915050565b8060ff1660ff14156149615750606692915050565b50919050565b82805461497390615b28565b90600052602060002090601f01602090048101928261499557600085556149db565b82601f106149ae57805160ff19168380011785556149db565b828001600101855582156149db579182015b828111156149db5782518255916020019190600101906149c0565b506143949291505b8082111561439457600081556001016149e3565b8035613de081615ba4565b60008083601f840112614a13578182fd5b5081356001600160401b03811115614a29578182fd5b6020830191508360208260051b8501011115614a4457600080fd5b9250929050565b600082601f830112614a5b578081fd5b81356020614a70614a6b836159a9565b615979565b80838252828201915082860187848660051b8901011115614a8f578586fd5b855b85811015614ab457614aa282614b29565b84529284019290840190600101614a91565b5090979650505050505050565b600082601f830112614ad1578081fd5b81356020614ae1614a6b836159a9565b80838252828201915082860187848660051b8901011115614b00578586fd5b855b85811015614ab457813584529284019290840190600101614b02565b8035613de081615bb9565b80356001600160e01b031981168114613de057600080fd5b60008083601f840112614b52578182fd5b5081356001600160401b03811115614b68578182fd5b602083019150836020828501011115614a4457600080fd5b600082601f830112614b90578081fd5b81356001600160401b03811115614ba957614ba9615b8e565b614bbc601f8201601f1916602001615979565b818152846020838601011115614bd0578283fd5b816020850160208301379081016020019190915292915050565b803560068110613de057600080fd5b600060208284031215614c0a578081fd5b8135613b4681615ba4565b600060208284031215614c26578081fd5b8151613b4681615ba4565b6000806000806000806000806000806000806101208d8f031215614c53578788fd5b614c5c8d6149f7565b9b506001600160401b0360208e01351115614c75578788fd5b614c858e60208f01358f01614a02565b909b509950614c9660408e01614b1e565b98506001600160401b0360608e01351115614caf578788fd5b614cbf8e60608f01358f01614a02565b909850965060808d013595506001600160401b0360a08e01351115614ce2578485fd5b614cf28e60a08f01358f01614b80565b9450614d0060c08e01614bea565b93506001600160401b0360e08e01351115614d19578283fd5b614d298e60e08f01358f01614b41565b81945080935050506101008d013590509295989b509295989b509295989b565b60008060408385031215614d5b578182fd5b8235614d6681615ba4565b946020939093013593505050565b600060208284031215614d85578081fd5b8151613b4681615bb9565b60008060408385031215614da2578182fd5b8251614dad81615bb9565b809250506020808401516001600160401b03811115614dca578283fd5b8401601f81018613614dda578283fd5b8051614de8614a6b826159a9565b80828252848201915084840189868560051b8701011115614e07578687fd5b8694505b83851015614e29578051835260019490940193918501918501614e0b565b5080955050505050509250929050565b600060208284031215614e4a578081fd5b5035919050565b600060208284031215614e62578081fd5b5051919050565b6000806000806000806000806000806101408b8d031215614e88578384fd5b614e918b614b29565b995060208b01356001600160401b0380821115614eac578586fd5b614eb88e838f01614b80565b9a5060408d0135915080821115614ecd578586fd5b614ed98e838f01614b80565b9950614ee760608e01614b29565b985060808d0135975060a08d0135915080821115614f03578586fd5b614f0f8e838f01614b80565b965060c08d0135955060e08d0135915080821115614f2b578485fd5b614f378e838f01614b80565b94506101008d0135915080821115614f4d578384fd5b614f598e838f01614ac1565b93506101208d0135915080821115614f6f578283fd5b50614f7c8d828e01614ac1565b9150509295989b9194979a5092959850565b600080600060408486031215614fa2578081fd5b83356001600160401b0380821115614fb8578283fd5b614fc487838801614b41565b90955093506020860135915080821115614fdc578283fd5b50614fe986828701614ac1565b9150509250925092565b60008060008060008060008060006101208a8c031215615011578283fd5b89356001600160401b0380821115615027578485fd5b6150338d838e01614b80565b9a5060208c0135915080821115615048578485fd5b6150548d838e01614a4b565b995060408c0135915080821115615069578485fd5b6150758d838e01614b80565b985060608c013591508082111561508a578485fd5b6150968d838e01614b80565b975060808c01359150808211156150ab578485fd5b6150b78d838e01614b80565b965060a08c01359150808211156150cc578485fd5b6150d88d838e01614b80565b955060c08c01359150808211156150ed578485fd5b6150f98d838e01614a4b565b945060e08c013591508082111561510e578384fd5b61511a8d838e01614b80565b93506101008c0135915080821115615130578283fd5b5061513d8c828d01614ac1565b9150509295985092959850929598565b6000806040838503121561515f578182fd5b82359150602083013561517181615ba4565b809150509250929050565b60008060008060008060008060006101208a8c03121561519a578283fd5b8935985060208a01356151ac81615ba4565b975060408a01356151bc81615ba4565b965060608a01356151cc81615ba4565b955060808a01356151dc81615ba4565b989b979a50959894979660a0860135965060c08601359560e0810135955061010001359350915050565b60008060008060008060a0878903121561521e578384fd5b8635955060208701356001600160401b038082111561523b578586fd5b6152478a838b01614b80565b965061525560408a01614bea565b9550606089013591508082111561526a578384fd5b5061527789828a01614b41565b979a9699509497949695608090950135949350505050565b600080604083850312156152a1578182fd5b50508035926020909101359150565b6001600160a01b03169052565b6000815180845260208085019450808401835b838110156152f65781516001600160e01b031916875295820195908201906001016152d0565b509495945050505050565b6000826060810183835b600381101561533a57838303875261532483835161539d565b602097880197909350919091019060010161530b565b509095945050505050565b6000815180845260208085019450808401835b838110156152f657815187529582019590820190600101615358565b81835281816020850137506000828201602090810191909152601f909101601f19169091010190565b600081518084526153b5816020860160208601615af8565b601f01601f19169290920160200192915050565b600681106153e757634e487b7160e01b600052602160045260246000fd5b9052565b600063ffffffff60e01b8087168352855161540d816004860160208a01615af8565b855190840190615424816004840160208a01615af8565b919094169301600481019390935250506008019392505050565b60008251615450818460208701615af8565b9190910192915050565b6001600160a01b0391909116815260200190565b6001600160a01b0392831681529116602082015260400190565b6001600160a01b039384168152919092166020820152604081019190915260600190565b60018060a01b038616815284602082015283604082015260a0606082015260006154d960a083018561539d565b90508260808301529695505050505050565b6154f5818e6152b0565b6101806020820152600061550d61018083018e61539d565b828103604084015261551f818e6152bd565b90508281036060840152615533818d615301565b90508a60808401528960a084015261554e60c084018a6152b0565b8760e08401528661010084015282810361012084015261556e81876152bd565b9050828103610140840152615583818661539d565b90508281036101608401526155988185615345565b9f9e505050505050505050505050505050565b6001600160a01b038616815260a0602082018190526000906155cf9083018761539d565b604083019590955250606081019290925260809091015292915050565b6001600160a01b03929092168252602082015260400190565b602081526000612989602083018486615374565b60408152600061562d604083018587615374565b9050826020830152949350505050565b602081526000613b46602083018461539d565b608081526000615663608083018861539d565b61567060208401886153c9565b6001600160a01b03861660408401528281036060840152615692818587615374565b98975050505050505050565b60006101a08083526156b28184018c61539d565b91505060206156c38184018b6153c9565b6001600160a01b0389811660408501526060840189905260808401889052861660a084015260c083018560005b600381101561570d578151835291830191908301906001016156f0565b50505061012083018460005b600481101561573657815183529183019190830190600101615719565b505050509998505050505050505050565b85815284602082015260a06040820152600061576660a083018661539d565b8281036060840152615778818661539d565b9150508260808301529695505050505050565b6020808252601b908201527a109a5d18dbda5b92195b1c195c8e881d9bdd5d081a5cc81b9d5b1b602a1b604082015260600190565b6020808252601b908201527a213ab9372937baba32b92637b3b4b19d103737ba103637b1b5b2b960291b604082015260600190565b6020808252602b908201527f496e697469616c697a61626c653a20636f6e7472616374206973206e6f74206960408201526a6e697469616c697a696e6760a81b606082015260800190565b888152602081018890526001600160a01b0387166040820152610100606082018190526000906158728382018961539d565b91505085608083015284151560a083015261589060c08301856153c9565b8260e08301529998505050505050505050565b878152602080820188905260c0604083018190528201869052600090879060e08401835b898110156158f55783356158da81615ba4565b6001600160a01b0316825292820192908201906001016158c7565b506001600160a01b039790971660608501525050506080810192909252151560a090910152949350505050565b878152602081018790526001600160e01b0319861660408201526001600160a01b038516606082015260e0608082018190526000906159639083018661539d565b60a08301949094525060c0015295945050505050565b604051601f8201601f191681016001600160401b03811182821017156159a1576159a1615b8e565b604052919050565b60006001600160401b038211156159c2576159c2615b8e565b5060051b60200190565b600082198211156159df576159df615b78565b500190565b60006001600160401b03808316818516808303821115615a0657615a06615b78565b01949350505050565b600060ff821660ff84168060ff03821115615a2c57615a2c615b78565b019392505050565b60006001600160601b03828116848216808303821115615a0657615a06615b78565b600082615a7157634e487b7160e01b81526012600452602481fd5b500490565b6000816000190483118215151615615a9057615a90615b78565b500290565b600060ff821660ff84168160ff0481118215151615615ab657615ab6615b78565b029392505050565b600082821015615ad057615ad0615b78565b500390565b600060ff821660ff841680821015615aef57615aef615b78565b90039392505050565b60005b83811015615b13578181015183820152602001615afb565b83811115615b22576000848401525b50505050565b600181811c90821680615b3c57607f821691505b6020821081141561496157634e487b7160e01b600052602260045260246000fd5b6000600019821415615b7157615b71615b78565b5060010190565b634e487b7160e01b600052601160045260246000fd5b634e487b7160e01b600052604160045260246000fd5b6001600160a01b0381168114611d6e57600080fd5b8015158114611d6e57600080fdfea2646970667358221220ed095ac99f3f81256567572a34b6ea8badf35e7c4027d0300123872cff48b1f364736f6c63430008040033",
  "deployedBytecode": "0x6080604052600436106101be5760003560e01c80637f0f1817116100f35780637f0f1817146104305780637ffe9a92146104505780638d3d78cd146104705780638d5fc1d4146104905780638da5cb5b146104b05780638f9eb78b146104c5578063930a60e8146104e5578063a9b6827114610512578063b14d353214610548578063b59589d114610568578063b74d0d3514610588578063bed6a6021461059e578063c780c03f146105b4578063c805f68b146105c7578063cf54ce47146105e7578063ea73263714610607578063f0f442601461061a578063f2fde38b1461063a578063f47e22401461065a57600080fd5b80631812adb6146101ca5780631876dec4146101f35780631d927898146102205780631e236168146102425780631e7107c71461028257806333453d15146102a25780633fea4367146102c2578063419cba7f146102e257806344dd6aa5146102f85780634782bc361461031857806350a058361461033857806359fd0b0c146103585780635c4f5f3e1461038557806361d027b3146103a557806370872aa5146103c5578063715018a6146103db57806373532b2a146103f05780637ed557481461041057600080fd5b366101c557005b600080fd5b3480156101d657600080fd5b506101e060075481565b6040519081526020015b60405180910390f35b3480156101ff57600080fd5b50600154610213906001600160a01b031681565b6040516101ea919061545a565b34801561022c57600080fd5b5061024061023b36600461517c565b61068e565b005b34801561024e57600080fd5b5061027261025d366004614e39565b600c6020526000908152604090205460ff1681565b60405190151581526020016101ea565b34801561028e57600080fd5b5061024061029d366004614e39565b610811565b3480156102ae57600080fd5b506102406102bd366004614bf9565b610880565b3480156102ce57600080fd5b506101e06102dd366004615206565b6108f1565b3480156102ee57600080fd5b506101e060085481565b34801561030457600080fd5b506101e0610313366004614c31565b610a0d565b34801561032457600080fd5b50610240610333366004614e39565b610ab3565b34801561034457600080fd5b50600454610213906001600160a01b031681565b34801561036457600080fd5b506101e0610373366004614e39565b60a46020526000908152604090205481565b34801561039157600080fd5b506102406103a0366004614e39565b610b4e565b3480156103b157600080fd5b50600354610213906001600160a01b031681565b3480156103d157600080fd5b506101e060055481565b3480156103e757600080fd5b50610240610ce5565b3480156103fc57600080fd5b5061024061040b366004614f8e565b610cef565b34801561041c57600080fd5b5061024061042b366004614e39565b611315565b34801561043c57600080fd5b5061024061044b366004614bf9565b6113af565b34801561045c57600080fd5b5061027261046b366004614d49565b611449565b34801561047c57600080fd5b50600254610213906001600160a01b031681565b34801561049c57600080fd5b506102406104ab36600461514d565b6114a1565b3480156104bc57600080fd5b50610213611545565b3480156104d157600080fd5b506102406104e036600461528f565b611554565b3480156104f157600080fd5b506101e0610500366004614bf9565b600b6020526000908152604090205481565b34801561051e57600080fd5b5061021361052d366004614e39565b60a5602052600090815260409020546001600160a01b031681565b34801561055457600080fd5b50610240610563366004614bf9565b6115bd565b34801561057457600080fd5b50600054610213906001600160a01b031681565b34801561059457600080fd5b506101e060095481565b3480156105aa57600080fd5b506101e060065481565b6102406105c2366004614ff3565b611657565b3480156105d357600080fd5b506102406105e2366004614bf9565b6117d5565b3480156105f357600080fd5b50610240610602366004614e39565b61186f565b610272610615366004614e69565b61190b565b34801561062657600080fd5b50610240610635366004614bf9565b611c5e565b34801561064657600080fd5b50610240610655366004614bf9565b611cf8565b34801561066657600080fd5b5061067a610675366004614d49565b611d71565b6040516101ea989796959493929190615840565b600d54610100900460ff16158080156106ae5750600d54600160ff909116105b806106c85750303b1580156106c85750600d5460ff166001145b6107305760405162461bcd60e51b815260206004820152602e60248201527f496e697469616c697a61626c653a20636f6e747261637420697320616c72656160448201526d191e481a5b9a5d1a585b1a5e995960921b60648201526084015b60405180910390fd5b600d805460ff19166001179055801561075357600d805461ff0019166101001790555b61075b611e6e565b610763611e9d565b61076c8a610811565b610775896117d5565b61077e886115bd565b61078787611c5e565b610790866113af565b61079985610b4e565b6107a284611315565b6107ab83610ab3565b6107b66102bd611545565b6107bf8261186f565b801561080557600d805461ff0019169055604051600181527f7f26b83ff96e1f2b6a682f133852f6798a09c465da95921460cefb38474024989060200160405180910390a15b50505050505050505050565b610819611ecc565b600554811161087b5760405162461bcd60e51b815260206004820152602860248201527f4275726e526f757465724c6f6769633a206c6f77207374617274696e67426c6f60448201526731b5a73ab6b132b960c11b6064820152608401610727565b600555565b610888611ecc565b6004546040517f68bf625687194a1bbeeccbaa327c37aa1f9940a3c6c9e8fe84f06f1dc14fd176916108c7916001600160a01b0390911690849061546e565b60405180910390a1600480546001600160a01b0319166001600160a01b0392909216919091179055565b60006108fb611f2b565b6002546001600160a01b03166323b872dd33308a6040518463ffffffff1660e01b815260040161092d93929190615488565b602060405180830381600087803b15801561094757600080fd5b505af115801561095b573d6000803e3d6000fd5b505050506040513d601f19601f8201168201806040525081019061097f9190614d74565b6109d75760405162461bcd60e51b8152602060048201526024808201527f4275726e526f757465724c6f6769633a207472616e7366657246726f6d2066616044820152631a5b195960e21b6064820152608401610727565b6002546000906109f6906001600160a01b031689808a8a8a8a8a611f85565b915050610a036001607255565b9695505050505050565b6000610a17611f2b565b6000610a288e8e8e8e8e8e8e6123f4565b9050610a968d8d6000818110610a4e57634e487b7160e01b600052603260045260246000fd5b905060200201358b8b6000818110610a7657634e487b7160e01b600052603260045260246000fd5b9050602002016020810190610a8b9190614bf9565b838a8a8a8a8a612818565b915050610aa36001607255565b9c9b505050505050505050505050565b610abb611ecc565b806127101015610b0d5760405162461bcd60e51b815260206004820152601f60248201527f4275726e526f757465724c6f6769633a20696e76616c696420726577617264006044820152606401610727565b60085460408051918252602082018390527faa50b3683e42a13535a5b9c2c32780cccf956fb546b523a3542ac4ad8b544f67910160405180910390a1600855565b600080546040516353bcd1c960e11b815273__$b2d4c044db363f4bd023a450a1a4a26d98$__9163a779a39291610b91916001600160a01b03169060040161545a565b60206040518083038186803b158015610ba957600080fd5b505af4158015610bbd573d6000803e3d6000fd5b505050506040513d601f19601f82011682018060405250810190610be19190614e51565b9050610beb611545565b6001600160a01b0316336001600160a01b03161480610c0b575080600654105b610c545760405162461bcd60e51b815260206004820152601a602482015279109d5c9b949bdd5d195c931bd9da58ce881b9bc81c195c9b5a5d60321b6044820152606401610727565b808211610ca35760405162461bcd60e51b815260206004820152601d60248201527f4275726e526f757465724c6f6769633a206c6f7720646561646c696e650000006044820152606401610727565b60065460408051918252602082018490527f92c10a242ca42973030420e2ee32b3ba7818cc643f896958f620c606cf300416910160405180910390a150600655565b610ced611ecc565b565b610cf7611f2b565b610cff611ecc565b60015460405163aff2faa360e01b81526001600160a01b039091169063aff2faa390610d319086908690600401615605565b60206040518083038186803b158015610d4957600080fd5b505afa158015610d5d573d6000803e3d6000fd5b505050506040513d601f19601f82011682018060405250810190610d819190614d74565b610d9d5760405162461bcd60e51b8152600401610727906157c0565b60015460405163626885b560e11b81526000916001600160a01b03169063c4d10b6a90610dd09087908790600401615605565b60206040518083038186803b158015610de857600080fd5b505afa158015610dfc573d6000803e3d6000fd5b505050506040513d601f19601f82011682018060405250810190610e209190614c15565b905060005b82518110156113045773__$b2d4c044db363f4bd023a450a1a4a26d98$__6315755789600a84868581518110610e6b57634e487b7160e01b600052603260045260246000fd5b60209081029190910101516006546000546040516310889dc360e01b815273__$b2d4c044db363f4bd023a450a1a4a26d98$__916310889dc391610ebb916001600160a01b03169060040161545a565b60206040518083038186803b158015610ed357600080fd5b505af4158015610ee7573d6000803e3d6000fd5b505050506040513d601f19601f82011682018060405250810190610f0b9190614e51565b6005546040516001600160e01b031960e089901b16815260048101969096526001600160a01b03909416602486015260448501929092526064840152608483015260a482015260c40160006040518083038186803b158015610f6c57600080fd5b505af4158015610f80573d6000803e3d6000fd5b50506001546008546001600160a01b038681166000908152600a602052604090208851919093169450631697565b935086926127109291899088908110610fd757634e487b7160e01b600052603260045260246000fd5b602002602001015181548110610ffd57634e487b7160e01b600052603260045260246000fd5b9060005260206000209060070201600001546110199190615a76565b6110239190615a56565b336001600160a01b0387166000908152600a60205260409020885189908890811061105e57634e487b7160e01b600052603260045260246000fd5b60200260200101518154811061108457634e487b7160e01b600052603260045260246000fd5b906000526020600020906007020160000154600a6000896001600160a01b03166001600160a01b031681526020019081526020016000208988815181106110db57634e487b7160e01b600052603260045260246000fd5b60200260200101518154811061110157634e487b7160e01b600052603260045260246000fd5b600091825260209091206007909102016002015460405160e087901b6001600160e01b03191681526001600160a01b03958616600482015260248101949094529184166044840152606483015291909116608482015260a401602060405180830381600087803b15801561117457600080fd5b505af1158015611188573d6000803e3d6000fd5b505050506040513d601f19601f820116820180604052508101906111ac9190614d74565b506001600160a01b0382166000818152600a6020526040902084518590849081106111e757634e487b7160e01b600052603260045260246000fd5b60200260200101518154811061120d57634e487b7160e01b600052603260045260246000fd5b906000526020600020906007020160020160009054906101000a90046001600160a01b03166001600160a01b03167f58c23b4ae0617be275628875bcfd65759a441263099a256eeb27899fb5dd846d8787600a6000886001600160a01b03166001600160a01b031681526020019081526020016000208887815181106112a357634e487b7160e01b600052603260045260246000fd5b6020026020010151815481106112c957634e487b7160e01b600052603260045260246000fd5b9060005260206000209060070201600601546040516112ea93929190615619565b60405180910390a3806112fc81615b5d565b915050610e25565b50506113106001607255565b505050565b61131d611ecc565b80612710101561136e5760405162461bcd60e51b815260206004820152601c60248201527b4275726e526f757465724c6f6769633a20696e76616c69642066656560201b6044820152606401610727565b60075460408051918252602082018390527f7d205f60891f60851c61cd244ba387d72b6589e7c0ac41b9d909ab0ce2c2a53b910160405180910390a1600755565b6113b7611ecc565b806001600160a01b0381166113df5760405163d92e233d60e01b815260040160405180910390fd5b6002546040517f36a4c08a38b736dcecb6c328dba61238529620e83ccb23db2cc43cd34ec260969161141e916001600160a01b0390911690859061546e565b60405180910390a150600280546001600160a01b0319166001600160a01b0392909216919091179055565b6001600160a01b0382166000908152600a6020526040812080548390811061148157634e487b7160e01b600052603260045260246000fd5b600091825260209091206005600790920201015460ff1690505b92915050565b6114a9611ecc565b600082815260a56020526040908190205490517f1e73962bcff5b98a9ac70c9b0f71fbb31dc0f5a09348c6d3ceab164169a9e7299161150f9185916001600160a01b03169085909283526001600160a01b03918216602084015216604082015260600190565b60405180910390a1600091825260a5602052604090912080546001600160a01b0319166001600160a01b03909216919091179055565b6040546001600160a01b031690565b61155c611ecc565b600082815260a46020908152604091829020548251858152918201529081018290527f188adabf806a6b6d814acc1dbd9f09e5a251c8c065d6285749a5824e4579b6459060600160405180910390a1600091825260a4602052604090912055565b6115c5611ecc565b806001600160a01b0381166115ed5760405163d92e233d60e01b815260040160405180910390fd5b6001546040517ffa021c2ec0f46429a53e7f88b88065e40001f50c9d38b2e8b713beaf9828d4c39161162c916001600160a01b0390911690859061546e565b60405180910390a150600180546001600160a01b0319166001600160a01b0392909216919091179055565b61165f611f2b565b611667611ecc565b60006116c58960008151811061168d57634e487b7160e01b600052603260045260246000fd5b60200260200101518989876000815181106116b857634e487b7160e01b600052603260045260246000fd5b602002602001015161282b565b905073__$b2d4c044db363f4bd023a450a1a4a26d98$__63441d3a21600160009054906101000a90046001600160a01b03168c8c60405180606001604052808e81526020018c81526020018b815250600c60065460008054906101000a90046001600160a01b03166005548a8e8e8e6040518d63ffffffff1660e01b815260040161175b9c9b9a999897969594939291906154eb565b60006040518083038186803b15801561177357600080fd5b505af4158015611787573d6000803e3d6000fd5b505050506117bf878b83856002815181106117b257634e487b7160e01b600052603260045260246000fd5b6020026020010151612991565b506117ca6001607255565b505050505050505050565b6117dd611ecc565b806001600160a01b0381166118055760405163d92e233d60e01b815260040160405180910390fd5b6000546040517f4c28a3f61a715259c4dc930c23e7423b8fa52e13232c061a6e488729c66184f491611844916001600160a01b0390911690859061546e565b60405180910390a150600080546001600160a01b0319166001600160a01b0392909216919091179055565b60045433906001600160a01b031681146118c95760405162461bcd60e51b815260206004820152601b60248201527a4275726e526f757465724c6f6769633a206e6f74206f7261636c6560281b6044820152606401610727565b60095460408051918252602082018490527f890eb41e398fd9cf425695b34269b781ad56c257422859094a28db47fb78f1b3910160405180910390a150600955565b6000611915611f2b565b60015460405163626885b560e11b81526000916001600160a01b03169063c4d10b6a9061194690889060040161563d565b60206040518083038186803b15801561195e57600080fd5b505afa158015611972573d6000803e3d6000fd5b505050506040513d601f19601f820116820180604052508101906119969190614c15565b9050336001600160a01b038216146119c05760405162461bcd60e51b8152600401610727906157c0565b73__$b2d4c044db363f4bd023a450a1a4a26d98$__6344922b64896005548c600160009054906101000a90046001600160a01b03168a8a518a516040518863ffffffff1660e01b8152600401611a1c9796959493929190615922565b60006040518083038186803b158015611a3457600080fd5b505af4158015611a48573d6000803e3d6000fd5b505050506000611a5a8d8d8d8d61282b565b600054604051637ebc232760e01b815291925073__$b2d4c044db363f4bd023a450a1a4a26d98$__91637ebc232791611aa9916001600160a01b039091169085908e908e908e906004016154ac565b60206040518083038186803b158015611ac157600080fd5b505af4158015611ad5573d6000803e3d6000fd5b505050506040513d601f19601f82011682018060405250810190611af99190614d74565b611b455760405162461bcd60e51b815260206004820152601e60248201527f4275726e526f757465724c6f6769633a206e6f742066696e616c697a656400006044820152606401610727565b6000611b55828b858f8a8a612b5d565b905073__$b2d4c044db363f4bd023a450a1a4a26d98$__63191e28dc600c838f8b876040518663ffffffff1660e01b8152600401611b97959493929190615747565b60206040518083038186803b158015611baf57600080fd5b505af4158015611bc3573d6000803e3d6000fd5b505050506040513d601f19601f82011682018060405250810190611be79190614d74565b611c3f5760405162461bcd60e51b815260206004820152602360248201527f4275726e526f757465724c6f6769633a20696e76616c6964206275726e20707260448201526237b7b360e91b6064820152608401610727565b60019350505050611c506001607255565b9a9950505050505050505050565b611c66611ecc565b806001600160a01b038116611c8e5760405163d92e233d60e01b815260040160405180910390fd5b6003546040517f567657fa3f286518b318f4a29870674f433f622fdfc819691acb13105b22822591611ccd916001600160a01b0390911690859061546e565b60405180910390a150600380546001600160a01b0319166001600160a01b0392909216919091179055565b611d00611ecc565b6001600160a01b038116611d655760405162461bcd60e51b815260206004820152602660248201527f4f776e61626c653a206e6577206f776e657220697320746865207a65726f206160448201526564647265737360d01b6064820152608401610727565b611d6e81613052565b50565b600a6020528160005260406000208181548110611d8d57600080fd5b600091825260209091206007909102018054600182015460028301546003840180549396509194506001600160a01b03169291611dc990615b28565b80601f0160208091040260200160405190810160405280929190818152602001828054611df590615b28565b8015611e425780601f10611e1757610100808354040283529160200191611e42565b820191906000526020600020905b815481529060010190602001808311611e2557829003601f168201915b505050600484015460058501546006909501549394909360ff8083169450610100909204909116915088565b600d54610100900460ff16611e955760405162461bcd60e51b8152600401610727906157f5565b610ced6130a2565b600d54610100900460ff16611ec45760405162461bcd60e51b8152600401610727906157f5565b610ced6130d2565b33611ed5611545565b6001600160a01b031614610ced5760405162461bcd60e51b815260206004820181905260248201527f4f776e61626c653a2063616c6c6572206973206e6f7420746865206f776e65726044820152606401610727565b60026072541415611f7e5760405162461bcd60e51b815260206004820152601f60248201527f5265656e7472616e637947756172643a207265656e7472616e742063616c6c006044820152606401610727565b6002607255565b600154604051630f87661560e41b815260009173__$b2d4c044db363f4bd023a450a1a4a26d98$__9163f876615091611fd4918a918a916001600160a01b03909116908a908a90600401615650565b60006040518083038186803b158015611fec57600080fd5b505af4158015612000573d6000803e3d6000fd5b5050505060008060006120138a866130f9565b60025460015460405163095ea7b360e01b81529497509295509093506001600160a01b039081169263095ea7b39261205192169087906004016155ec565b602060405180830381600087803b15801561206b57600080fd5b505af115801561207f573d6000803e3d6000fd5b505050506040513d601f19601f820116820180604052508101906120a39190614d74565b506001546040516338463cff60e01b81526001600160a01b03909116906338463cff906120d8908a908a908890600401615619565b602060405180830381600087803b1580156120f257600080fd5b505af1158015612106573d6000803e3d6000fd5b505050506040513d601f19601f8201168201806040525081019061212a9190614e51565b60015460405163626885b560e11b81529195506000916001600160a01b039091169063c4d10b6a90612162908b908b90600401615605565b60206040518083038186803b15801561217a57600080fd5b505afa15801561218e573d6000803e3d6000fd5b505050506040513d601f19601f820116820180604052508101906121b29190614c15565b6000546040516310889dc360e01b8152919250612259918d9188918e918e9173__$b2d4c044db363f4bd023a450a1a4a26d98$__916310889dc391612203916001600160a01b03169060040161545a565b60206040518083038186803b15801561221b57600080fd5b505af415801561222f573d6000803e3d6000fd5b505050506040513d601f19601f820116820180604052508101906122539190614e51565b86613499565b604080516060810182528d815260208082018e905281830188905282516080810190935260095483528f9260009181016122938a8a615abe565b8152602080820189905260409182018890526001600160a01b0387166000908152600a909152208054919250906122cc90600190615abe565b815481106122ea57634e487b7160e01b600052603260045260246000fd5b9060005260206000209060070201600401546123033390565b6001600160a01b03167f6b5c22e69db87534a562352580358411dc7b2d98d24684765342f2ebf2dd8c318f8f88600a60008b6001600160a01b03166001600160a01b031681526020019081526020016000206001600a60008d6001600160a01b03166001600160a01b031681526020019081526020016000208054905061238a9190615abe565b815481106123a857634e487b7160e01b600052603260045260246000fd5b9060005260206000209060070201600601548f8a8a8a6040516123d298979695949392919061569e565b60405180910390a35050505050505098975050505050505050565b6001607255565b6002546000906001600160a01b03168484612410600182615abe565b81811061242d57634e487b7160e01b600052603260045260246000fd5b90506020020160208101906124429190614bf9565b6001600160a01b0316146124985760405162461bcd60e51b815260206004820152601d60248201527f4275726e526f757465724c6f6769633a20696e76616c696420706174680000006044820152606401610727565b600286146124e85760405162461bcd60e51b815260206004820152601e60248201527f4275726e526f757465724c6f6769633a2077726f6e6720616d6f756e747300006044820152606401610727565b8383600081811061250957634e487b7160e01b600052603260045260246000fd5b905060200201602081019061251e9190614bf9565b6001600160a01b03166323b872dd33308a8a600081811061254f57634e487b7160e01b600052603260045260246000fd5b905060200201356040518463ffffffff1660e01b815260040161257493929190615488565b602060405180830381600087803b15801561258e57600080fd5b505af11580156125a2573d6000803e3d6000fd5b505050506040513d601f19601f820116820180604052508101906125c69190614d74565b50838360008181106125e857634e487b7160e01b600052603260045260246000fd5b90506020020160208101906125fd9190614bf9565b6001600160a01b031663095ea7b3898989600081811061262d57634e487b7160e01b600052603260045260246000fd5b905060200201356040518363ffffffff1660e01b81526004016126519291906155ec565b602060405180830381600087803b15801561266b57600080fd5b505af115801561267f573d6000803e3d6000fd5b505050506040513d601f19601f820116820180604052508101906126a39190614d74565b50600080896001600160a01b031663b0bbcd888a8a60008181106126d757634e487b7160e01b600052603260045260246000fd5b905060200201358b8b60018181106126ff57634e487b7160e01b600052603260045260246000fd5b905060200201358989308a8e6040518863ffffffff1660e01b815260040161272d97969594939291906158a3565b600060405180830381600087803b15801561274757600080fd5b505af115801561275b573d6000803e3d6000fd5b505050506040513d6000823e601f3d908101601f191682016040526127839190810190614d90565b91509150816127d45760405162461bcd60e51b815260206004820181905260248201527f4275726e526f757465724c6f6769633a2065786368616e6765206661696c65646044820152606401610727565b80600182516127e39190615abe565b8151811061280157634e487b7160e01b600052603260045260246000fd5b602002602001015192505050979650505050505050565b600080611c50898b8a8a8a8a8a8a611f85565b60008061284061283b8683613669565b61368d565b905061285162ffffff1982166137e3565b1561289b5760405162461bcd60e51b815260206004820152601a602482015279109a5d18dbda5b92195b1c195c8e881d9a5b881a5cc81b9d5b1b60321b6044820152606401610727565b60006002878787876040516020016128b694939291906153eb565b60408051601f19818403018152908290526128d09161543e565b602060405180830381855afa1580156128ed573d6000803e3d6000fd5b5050506040513d601f19601f820116820180604052508101906129109190614e51565b9050600060028260405160200161292991815260200190565b60408051601f19818403018152908290526129439161543e565b602060405180830381855afa158015612960573d6000803e3d6000fd5b5050506040513d601f19601f820116820180604052508101906129839190614e51565b93505050505b949350505050565b600061299c856137ef565b60015460405163626885b560e11b81526001600160401b039290921692506000916001600160a01b039091169063c4d10b6a906129dd90889060040161563d565b60206040518083038186803b1580156129f557600080fd5b505afa158015612a09573d6000803e3d6000fd5b505050506040513d601f19601f82011682018060405250810190612a2d9190614c15565b6001546008549192506001600160a01b03169063b734de2690839061271090612a569087615a76565b612a609190615a56565b3360405160e085901b6001600160e01b03191681526001600160a01b0393841660048201526024810192909252909116604482015260648101859052608401602060405180830381600087803b158015612ab957600080fd5b505af1158015612acd573d6000803e3d6000fd5b505050506040513d601f19601f82011682018060405250810190612af19190614d74565b507f7ff138134e34ccab071315c38e38eec079f54726b890304ab46e2c5ab6f722bb8186858761271060085488612b289190615a76565b612b329190615a56565b612b3c90886159cc565b604051612b4d9594939291906155ab565b60405180910390a1505050505050565b60008080805b85518110156130455780612ba057848181518110612b9157634e487b7160e01b600052603260045260246000fd5b60200260200101519150612c51565b81858281518110612bc157634e487b7160e01b600052603260045260246000fd5b602002602001015111612c265760405162461bcd60e51b815260206004820152602760248201527f4275726e526f757465724c6f6769633a20756e2d736f7274656420766f757420604482015266696e646578657360c81b6064820152608401610727565b848181518110612c4657634e487b7160e01b600052603260045260246000fd5b602002602001015191505b6000868281518110612c7357634e487b7160e01b600052603260045260246000fd5b60200260200101519050600a60008a6001600160a01b03166001600160a01b031681526020019081526020016000208181548110612cc157634e487b7160e01b600052603260045260246000fd5b600091825260209091206005600790920201015460ff16158015612d3057506001600160a01b0389166000908152600a6020526040902080548b919083908110612d1b57634e487b7160e01b600052603260045260246000fd5b90600052602060002090600702016004015410155b1561303257612e9d88878481518110612d5957634e487b7160e01b600052603260045260246000fd5b6020026020010151600a60008d6001600160a01b03166001600160a01b031681526020019081526020016000208481548110612da557634e487b7160e01b600052603260045260246000fd5b90600052602060002090600702016003018054612dc190615b28565b80601f0160208091040260200160405190810160405280929190818152602001828054612ded90615b28565b8015612e3a5780601f10612e0f57610100808354040283529160200191612e3a565b820191906000526020600020905b815481529060010190602001808311612e1d57829003601f168201915b5050506001600160a01b038f166000908152600a6020526040902080549092508791508110612e7957634e487b7160e01b600052603260045260246000fd5b906000526020600020906007020160050160019054906101000a900460ff16613892565b6001600160401b0316935083600a60008b6001600160a01b03166001600160a01b031681526020019081526020016000208281548110612eed57634e487b7160e01b600052603260045260246000fd5b9060005260206000209060070201600101541415613032576001600160a01b0389166000908152600a6020526040902080546001919083908110612f4157634e487b7160e01b600052603260045260246000fd5b60009182526020909120600790910201600501805460ff1916911515919091179055612f6e8560016159cc565b6001600160a01b038a166000818152600a60205260409020805492975090917f7b8cb33b1d4dc1e5d05c58e9945c383eb161ac22029c5b963989d08c3d0ef4da919084908110612fce57634e487b7160e01b600052603260045260246000fd5b9060005260206000209060070201600601548d89868151811061300157634e487b7160e01b600052603260045260246000fd5b6020026020010151604051613029939291909283526020830191909152604082015260600190565b60405180910390a25b508061303d81615b5d565b915050612b63565b5050509695505050505050565b604080546001600160a01b038381166001600160a01b031983168117845592519116919082907f8be0079c531659141344cd1fd0a4f28419497f9722a3daafe3b4186f6b6457e090600090a35050565b600d54610100900460ff166130c95760405162461bcd60e51b8152600401610727906157f5565b610ced33613052565b600d54610100900460ff166123ed5760405162461bcd60e51b8152600401610727906157f5565b60008060006127106007548661310f9190615a76565b6131199190615a56565b600085815260a46020526040902054909250612710906131399087615a76565b6131439190615a56565b600954909150816131548488615abe565b61315e9190615abe565b6131689190615abe565b92506009548310156131ba5760405162461bcd60e51b815260206004820152601b60248201527a109d5c9b949bdd5d195c931bd9da58ce881b1bddc8185b5bdd5b9d602a1b6044820152606401610727565b81156132a05760025460035460405163a9059cbb60e01b81526001600160a01b039283169263a9059cbb926131f69291169086906004016155ec565b602060405180830381600087803b15801561321057600080fd5b505af1158015613224573d6000803e3d6000fd5b505050506040513d601f19601f820116820180604052508101906132489190614d74565b6132a05760405162461bcd60e51b8152602060048201526024808201527f4275726e526f757465724c6f6769633a20666565207472616e736665722066616044820152631a5b195960e21b6064820152608401610727565b80156133a057600254600085815260a560205260409081902054905163a9059cbb60e01b81526001600160a01b039283169263a9059cbb926132e99291169085906004016155ec565b602060405180830381600087803b15801561330357600080fd5b505af1158015613317573d6000803e3d6000fd5b505050506040513d601f19601f8201168201806040525081019061333b9190614d74565b6133a05760405162461bcd60e51b815260206004820152603060248201527f4275726e526f757465724c6f6769633a2074686972642070617274792066656560448201526f081d1c985b9cd9995c8819985a5b195960821b6064820152608401610727565b600954156134925760025460015460095460405163a9059cbb60e01b81526001600160a01b039384169363a9059cbb936133df939116916004016155ec565b602060405180830381600087803b1580156133f957600080fd5b505af115801561340d573d6000803e3d6000fd5b505050506040513d601f19601f820116820180604052508101906134319190614d74565b6134925760405162461bcd60e51b815260206004820152602c60248201527f4275726e526f757465724c6f6769633a206e6574776f726b206665652074726160448201526b1b9cd9995c8819985a5b195960a21b6064820152608401610727565b9250925092565b604080516101008101825260006080820181905260a0820181905260c0820181815260e083019190915288825260208201889052339282019290925260608101869052908460058111156134fd57634e487b7160e01b600052602160045260246000fd5b9081600581111561351e57634e487b7160e01b600052602160045260246000fd5b90525060065461352e90846159cc565b6080820152600060a082018190526001600160a01b038316808252600b6020818152604084205460e086018190529290935290915261356e9060016159cc565b6001600160a01b038381166000908152600b6020908152604080832094909455600a81528382208054600180820183559184529282902086516007909402019283558582015190830155928401516002820180546001600160a01b03191691909316179091556060830151805184936135ee926003850192910190614967565b506080820151600482015560a08201516005808301805492151560ff1984168117825560c086015193919261ff001990911661ffff19909216919091179061010090849081111561364f57634e487b7160e01b600052602160045260246000fd5b021790555060e08201518160060155505050505050505050565b81516000906020840161368464ffffffffff85168284613b06565b95945050505050565b600081816136a3815b62ffffff19841690613b4d565b506136b362ffffff198516613c27565b6001600160601b03166136cf576136c8613c36565b92506137dc565b60006136dc856000613c3e565b905060006136ef62ffffff198716613c27565b6001600160601b031690506001600160401b03821661371957613710613c36565b945050506137dc565b600061372483613d87565b60ff16905060005b836001600160401b03168110156137a2578282106137575761374c613c36565b9650505050506137dc565b60006137776137668486615abe565b60055b62ffffff198c169190613de5565b905061378281613e0f565b61378c90846159cc565b925050808061379a90615b5d565b91505061372c565b508181146137bc576137b2613c36565b95505050506137dc565b6137d660065b60d81b6301000000600160d81b0389161790565b95505050505b5050919050565b62ffffff199081161490565b6000806138046137ff8483613669565b613e63565b905061381562ffffff1982166137e3565b156138325760405162461bcd60e51b81526004016107279061578b565b600080613840836000613c3e565b6001600160401b0316905060005b81811015613889576138608482613f64565b925061386b8361407b565b61387590866159e4565b94508061388181615b5d565b91505061384e565b50505050919050565b6000806138a26137ff8783613669565b90506138b362ffffff1982166137e3565b156138d05760405162461bcd60e51b81526004016107279061578b565b60006138dc8287613f64565b905060006138e9826140a0565b9050600585600581111561390d57634e487b7160e01b600052602160045260246000fd5b14156139725761392662ffffff198216600260206140f1565b60405160200161393891815260200190565b6040516020818303038152906040528051906020012086805190602001201461396257600061396b565b61396b8261407b565b9350613afb565b600085600581111561399457634e487b7160e01b600052602160045260246000fd5b14156139ad5761392662ffffff198216600160206140f1565b60018560058111156139cf57634e487b7160e01b600052602160045260246000fd5b1415613a09576139e662ffffff198216600361421f565b604051602001613938919060609190911b6001600160601b031916815260140190565b6002856005811115613a2b57634e487b7160e01b600052602160045260246000fd5b1415613a42576139e662ffffff198216600261421f565b6003856005811115613a6457634e487b7160e01b600052602160045260246000fd5b1415613a7b576139e662ffffff198216600261421f565b6004856005811115613a9d57634e487b7160e01b600052602160045260246000fd5b1415613afb57613ab662ffffff198216600260206140f1565b604051602001613ac891815260200190565b60405160208183030381529060405280519060200120868051906020012014613af2576000612983565b6129838261407b565b505050949350505050565b600080613b1383856159cc565b9050604051811115613b23575060005b80613b355762ffffff19915050613b46565b5050606083811b8317901b811760181b5b9392505050565b6000613b59838361422d565b613c20576000613b78613b6c8560d81c90565b64ffffffffff16614250565b9150506000613b8d8464ffffffffff16614250565b6040517f5479706520617373657274696f6e206661696c65642e20476f7420307800000060208201526001600160b01b031960b086811b8216603d8401526c05c408af0e0cac6e8cac84060f609b1b604784015283901b16605482015290925060009150605e015b60405160208183030381529060405290508060405162461bcd60e51b8152600401610727919061563d565b5090919050565b60181c6001600160601b031690565b62ffffff1990565b600080613c5362ffffff1985168460016142fc565b905060fc8111613c6e57613c668161432c565b91505061149b565b8060fd1415613cd457613c9c613c97613c888560016159cc565b62ffffff198716906002614398565b61432c565b9150613ca782613d87565b60ff16600314613ccf57613ccd613cc862ffffff19861685600360006144db565b614541565b505b613d80565b8060fe1415613d2957613cfd613c97613cee8560016159cc565b62ffffff198716906004614398565b9150613d0882613d87565b60ff16600514613ccf57613ccd613cc862ffffff19861685600560006144db565b8060ff1415613d8057613d52613c97613d438560016159cc565b62ffffff198716906008614398565b9150613d5d82613d87565b60ff16600914613d8057613d7e613cc862ffffff19861685600960006144db565b505b5092915050565b600060fc826001600160401b031611613da257506001919050565b61ffff826001600160401b031611613dbc57506003919050565b63ffffffff826001600160401b031611613dd857506005919050565b506009919050565b919050565b60006129898484613df587613c27565b6001600160601b0316613e089190615abe565b85856144db565b6000816005613e1d81613696565b506000613e2b856024613c3e565b9050806001600160401b0316613e4082613d87565b60ff16613e4d91906159cc565b613e589060246159cc565b6136849060046159cc565b60008181613e7081613696565b50613e8062ffffff198516613c27565b6001600160601b0316613e95576136c8613c36565b6000613ea2856000613c3e565b90506000613eb562ffffff198716613c27565b6001600160601b031690506001600160401b038216613ed657613710613c36565b6000613ee183613d87565b60ff16905060005b836001600160401b0316811015613f4a57828210613f095761374c613c36565b6000613f1f613f188486615abe565b600e613769565b9050613f2a816145c9565b613f3490846159cc565b9250508080613f4290615b5d565b915050613ee9565b50818114613f5a576137b2613c36565b6137d6600f6137c2565b600082600f613f7281613696565b506000613f80866000613c3e565b6001600160401b031690506000613f9c62ffffff198816613c27565b6001600160601b03169050818610613fea5760405162461bcd60e51b81526020600482015260116024820152702b37baba103932b0b21037bb32b9393ab760791b6044820152606401610727565b6000613ff583613d87565b60ff1690506000805b8881101561404b576140226140138486615abe565b62ffffff198c1690600e613de5565b915061402d826145c9565b61403790846159cc565b92506140446001826159cc565b9050613ffe565b50614059613f188385615abe565b90506000614066826145c9565b9050611c5062ffffff198b168483600d6144db565b600081600d61408981613696565b50612989613c9762ffffff19861660006008614398565b600081600d6140ae81613696565b5060006140bc856008613c3e565b90506136846140ca82613d87565b6140d5906008615a0f565b62ffffff1987169060ff166001600160401b03841660076144db565b600060ff821661410357506000613b46565b61410c84613c27565b6001600160601b031661412260ff8416856159cc565b11156141725761415961413485614612565b6001600160601b031661414686613c27565b6001600160601b0316858560ff16614621565b60405162461bcd60e51b8152600401610727919061563d565b60208260ff1611156141e95760405162461bcd60e51b815260206004820152603a60248201527f54797065644d656d566965772f696e646578202d20417474656d7074656420746044820152796f20696e646578206d6f7265207468616e20333220627974657360301b6064820152608401610727565b6008820260006141f886614612565b6001600160601b031690506000600160ff1b60001984011d91909501511695945050505050565b6000613b46838360146142fc565b60008164ffffffffff166142418460d81c90565b64ffffffffff16149392505050565b600080601f5b600f8160ff1611156142ae57600061426f826008615a95565b60ff1685901c90506142808161474b565b61ffff16841793508160ff1660101461429b57601084901b93505b506142a7600182615ad5565b9050614256565b50600f5b60ff8160ff1610156142f65760ff600882021684901c6142d18161474b565b61ffff16831792508160ff166000146142ec57601083901b92505b50600019016142b2565b50915091565b6000614309826020615ad5565b614314906008615a95565b60ff166143228585856140f1565b901c949350505050565b60006001600160401b038211156143945760405162461bcd60e51b815260206004820152602660248201527f53616665436173743a2076616c756520646f65736e27742066697420696e203660448201526534206269747360d01b6064820152608401610727565b5090565b60006129896143a88585856140f1565b60008190506008817eff00ff00ff00ff00ff00ff00ff00ff00ff00ff00ff00ff00ff00ff00ff00ff16901b600882901c7eff00ff00ff00ff00ff00ff00ff00ff00ff00ff00ff00ff00ff00ff00ff00ff161790506010817dffff0000ffff0000ffff0000ffff0000ffff0000ffff0000ffff0000ffff16901b601082901c7dffff0000ffff0000ffff0000ffff0000ffff0000ffff0000ffff0000ffff161790506020817bffffffff00000000ffffffff00000000ffffffff00000000ffffffff16901b602082901c7bffffffff00000000ffffffff00000000ffffffff00000000ffffffff161790506040816001600160401b03600160801b03600160c01b0316901b604082901c6001600160401b03600160801b03600160c01b0316179050608081901b608082901c179050919050565b6000806144e786614612565b6001600160601b031690506144fb8661477d565b8461450687846159cc565b61451091906159cc565b11156145235762ffffff19915050612989565b61452d85826159cc565b9050610a038364ffffffffff168286613b06565b6060600061457f61457a8261456c61455e62ffffff198816613c27565b6001600160601b03166147aa565b62ffffff19871691906142fc565b614250565b6040517a09cdedc5adad2dcd2dac2d840ecc2e440d2dce85c408edee84060f602b1b60208201526001600160701b0319607083901b16603b82015290925060009150604d01613bf5565b600081600e6145d781613696565b5060006145e5856008613c3e565b9050806001600160401b03166145fa82613d87565b60ff1661460791906159cc565b6136849060086159cc565b60781c6001600160601b031690565b6060600061462e86614250565b915050600061463c86614250565b915050600061464a86614250565b915050600061465886614250565b604080517f54797065644d656d566965772f696e646578202d204f76657272616e20746865602082015274040ecd2caee5c40a6d8d2c6ca40d2e640c2e84060f605b1b818301526001600160d01b031960d098891b811660558301526e040eed2e8d040d8cadccee8d04060f608b1b605b830181905297891b8116606a8301527f2e20417474656d7074656420746f20696e646578206174206f666673657420306070830152600f60fb1b609083015295881b861660918201526097810196909652951b90921660a68401525050601760f91b60ac8201528151808203608d01815260ad90910190915295945050505050565b600061475d60048360ff16901c61480b565b60ff1661ffff919091161760081b6147748261480b565b60ff1617919050565b600061478882613c27565b61479183614612565b61479b9190615a34565b6001600160601b031692915050565b600060ff8211156143945760405162461bcd60e51b815260206004820152602560248201527f53616665436173743a2076616c756520646f65736e27742066697420696e2038604482015264206269747360d81b6064820152608401610727565b600060f08083179060ff821614156148265750603092915050565b8060ff1660f1141561483b5750603192915050565b8060ff1660f214156148505750603292915050565b8060ff1660f314156148655750603392915050565b8060ff1660f4141561487a5750603492915050565b8060ff1660f5141561488f5750603592915050565b8060ff1660f614156148a45750603692915050565b8060ff1660f714156148b95750603792915050565b8060ff1660f814156148ce5750603892915050565b8060ff1660f914156148e35750603992915050565b8060ff1660fa14156148f85750606192915050565b8060ff1660fb141561490d5750606292915050565b8060ff1660fc14156149225750606392915050565b8060ff1660fd14156149375750606492915050565b8060ff1660fe141561494c5750606592915050565b8060ff1660ff14156149615750606692915050565b50919050565b82805461497390615b28565b90600052602060002090601f01602090048101928261499557600085556149db565b82601f106149ae57805160ff19168380011785556149db565b828001600101855582156149db579182015b828111156149db5782518255916020019190600101906149c0565b506143949291505b8082111561439457600081556001016149e3565b8035613de081615ba4565b60008083601f840112614a13578182fd5b5081356001600160401b03811115614a29578182fd5b6020830191508360208260051b8501011115614a4457600080fd5b9250929050565b600082601f830112614a5b578081fd5b81356020614a70614a6b836159a9565b615979565b80838252828201915082860187848660051b8901011115614a8f578586fd5b855b85811015614ab457614aa282614b29565b84529284019290840190600101614a91565b5090979650505050505050565b600082601f830112614ad1578081fd5b81356020614ae1614a6b836159a9565b80838252828201915082860187848660051b8901011115614b00578586fd5b855b85811015614ab457813584529284019290840190600101614b02565b8035613de081615bb9565b80356001600160e01b031981168114613de057600080fd5b60008083601f840112614b52578182fd5b5081356001600160401b03811115614b68578182fd5b602083019150836020828501011115614a4457600080fd5b600082601f830112614b90578081fd5b81356001600160401b03811115614ba957614ba9615b8e565b614bbc601f8201601f1916602001615979565b818152846020838601011115614bd0578283fd5b816020850160208301379081016020019190915292915050565b803560068110613de057600080fd5b600060208284031215614c0a578081fd5b8135613b4681615ba4565b600060208284031215614c26578081fd5b8151613b4681615ba4565b6000806000806000806000806000806000806101208d8f031215614c53578788fd5b614c5c8d6149f7565b9b506001600160401b0360208e01351115614c75578788fd5b614c858e60208f01358f01614a02565b909b509950614c9660408e01614b1e565b98506001600160401b0360608e01351115614caf578788fd5b614cbf8e60608f01358f01614a02565b909850965060808d013595506001600160401b0360a08e01351115614ce2578485fd5b614cf28e60a08f01358f01614b80565b9450614d0060c08e01614bea565b93506001600160401b0360e08e01351115614d19578283fd5b614d298e60e08f01358f01614b41565b81945080935050506101008d013590509295989b509295989b509295989b565b60008060408385031215614d5b578182fd5b8235614d6681615ba4565b946020939093013593505050565b600060208284031215614d85578081fd5b8151613b4681615bb9565b60008060408385031215614da2578182fd5b8251614dad81615bb9565b809250506020808401516001600160401b03811115614dca578283fd5b8401601f81018613614dda578283fd5b8051614de8614a6b826159a9565b80828252848201915084840189868560051b8701011115614e07578687fd5b8694505b83851015614e29578051835260019490940193918501918501614e0b565b5080955050505050509250929050565b600060208284031215614e4a578081fd5b5035919050565b600060208284031215614e62578081fd5b5051919050565b6000806000806000806000806000806101408b8d031215614e88578384fd5b614e918b614b29565b995060208b01356001600160401b0380821115614eac578586fd5b614eb88e838f01614b80565b9a5060408d0135915080821115614ecd578586fd5b614ed98e838f01614b80565b9950614ee760608e01614b29565b985060808d0135975060a08d0135915080821115614f03578586fd5b614f0f8e838f01614b80565b965060c08d0135955060e08d0135915080821115614f2b578485fd5b614f378e838f01614b80565b94506101008d0135915080821115614f4d578384fd5b614f598e838f01614ac1565b93506101208d0135915080821115614f6f578283fd5b50614f7c8d828e01614ac1565b9150509295989b9194979a5092959850565b600080600060408486031215614fa2578081fd5b83356001600160401b0380821115614fb8578283fd5b614fc487838801614b41565b90955093506020860135915080821115614fdc578283fd5b50614fe986828701614ac1565b9150509250925092565b60008060008060008060008060006101208a8c031215615011578283fd5b89356001600160401b0380821115615027578485fd5b6150338d838e01614b80565b9a5060208c0135915080821115615048578485fd5b6150548d838e01614a4b565b995060408c0135915080821115615069578485fd5b6150758d838e01614b80565b985060608c013591508082111561508a578485fd5b6150968d838e01614b80565b975060808c01359150808211156150ab578485fd5b6150b78d838e01614b80565b965060a08c01359150808211156150cc578485fd5b6150d88d838e01614b80565b955060c08c01359150808211156150ed578485fd5b6150f98d838e01614a4b565b945060e08c013591508082111561510e578384fd5b61511a8d838e01614b80565b93506101008c0135915080821115615130578283fd5b5061513d8c828d01614ac1565b9150509295985092959850929598565b6000806040838503121561515f578182fd5b82359150602083013561517181615ba4565b809150509250929050565b60008060008060008060008060006101208a8c03121561519a578283fd5b8935985060208a01356151ac81615ba4565b975060408a01356151bc81615ba4565b965060608a01356151cc81615ba4565b955060808a01356151dc81615ba4565b989b979a50959894979660a0860135965060c08601359560e0810135955061010001359350915050565b60008060008060008060a0878903121561521e578384fd5b8635955060208701356001600160401b038082111561523b578586fd5b6152478a838b01614b80565b965061525560408a01614bea565b9550606089013591508082111561526a578384fd5b5061527789828a01614b41565b979a9699509497949695608090950135949350505050565b600080604083850312156152a1578182fd5b50508035926020909101359150565b6001600160a01b03169052565b6000815180845260208085019450808401835b838110156152f65781516001600160e01b031916875295820195908201906001016152d0565b509495945050505050565b6000826060810183835b600381101561533a57838303875261532483835161539d565b602097880197909350919091019060010161530b565b509095945050505050565b6000815180845260208085019450808401835b838110156152f657815187529582019590820190600101615358565b81835281816020850137506000828201602090810191909152601f909101601f19169091010190565b600081518084526153b5816020860160208601615af8565b601f01601f19169290920160200192915050565b600681106153e757634e487b7160e01b600052602160045260246000fd5b9052565b600063ffffffff60e01b8087168352855161540d816004860160208a01615af8565b855190840190615424816004840160208a01615af8565b919094169301600481019390935250506008019392505050565b60008251615450818460208701615af8565b9190910192915050565b6001600160a01b0391909116815260200190565b6001600160a01b0392831681529116602082015260400190565b6001600160a01b039384168152919092166020820152604081019190915260600190565b60018060a01b038616815284602082015283604082015260a0606082015260006154d960a083018561539d565b90508260808301529695505050505050565b6154f5818e6152b0565b6101806020820152600061550d61018083018e61539d565b828103604084015261551f818e6152bd565b90508281036060840152615533818d615301565b90508a60808401528960a084015261554e60c084018a6152b0565b8760e08401528661010084015282810361012084015261556e81876152bd565b9050828103610140840152615583818661539d565b90508281036101608401526155988185615345565b9f9e505050505050505050505050505050565b6001600160a01b038616815260a0602082018190526000906155cf9083018761539d565b604083019590955250606081019290925260809091015292915050565b6001600160a01b03929092168252602082015260400190565b602081526000612989602083018486615374565b60408152600061562d604083018587615374565b9050826020830152949350505050565b602081526000613b46602083018461539d565b608081526000615663608083018861539d565b61567060208401886153c9565b6001600160a01b03861660408401528281036060840152615692818587615374565b98975050505050505050565b60006101a08083526156b28184018c61539d565b91505060206156c38184018b6153c9565b6001600160a01b0389811660408501526060840189905260808401889052861660a084015260c083018560005b600381101561570d578151835291830191908301906001016156f0565b50505061012083018460005b600481101561573657815183529183019190830190600101615719565b505050509998505050505050505050565b85815284602082015260a06040820152600061576660a083018661539d565b8281036060840152615778818661539d565b9150508260808301529695505050505050565b6020808252601b908201527a109a5d18dbda5b92195b1c195c8e881d9bdd5d081a5cc81b9d5b1b602a1b604082015260600190565b6020808252601b908201527a213ab9372937baba32b92637b3b4b19d103737ba103637b1b5b2b960291b604082015260600190565b6020808252602b908201527f496e697469616c697a61626c653a20636f6e7472616374206973206e6f74206960408201526a6e697469616c697a696e6760a81b606082015260800190565b888152602081018890526001600160a01b0387166040820152610100606082018190526000906158728382018961539d565b91505085608083015284151560a083015261589060c08301856153c9565b8260e08301529998505050505050505050565b878152602080820188905260c0604083018190528201869052600090879060e08401835b898110156158f55783356158da81615ba4565b6001600160a01b0316825292820192908201906001016158c7565b506001600160a01b039790971660608501525050506080810192909252151560a090910152949350505050565b878152602081018790526001600160e01b0319861660408201526001600160a01b038516606082015260e0608082018190526000906159639083018661539d565b60a08301949094525060c0015295945050505050565b604051601f8201601f191681016001600160401b03811182821017156159a1576159a1615b8e565b604052919050565b60006001600160401b038211156159c2576159c2615b8e565b5060051b60200190565b600082198211156159df576159df615b78565b500190565b60006001600160401b03808316818516808303821115615a0657615a06615b78565b01949350505050565b600060ff821660ff84168060ff03821115615a2c57615a2c615b78565b019392505050565b60006001600160601b03828116848216808303821115615a0657615a06615b78565b600082615a7157634e487b7160e01b81526012600452602481fd5b500490565b6000816000190483118215151615615a9057615a90615b78565b500290565b600060ff821660ff84168160ff0481118215151615615ab657615ab6615b78565b029392505050565b600082821015615ad057615ad0615b78565b500390565b600060ff821660ff841680821015615aef57615aef615b78565b90039392505050565b60005b83811015615b13578181015183820152602001615afb565b83811115615b22576000848401525b50505050565b600181811c90821680615b3c57607f821691505b6020821081141561496157634e487b7160e01b600052602260045260246000fd5b6000600019821415615b7157615b71615b78565b5060010190565b634e487b7160e01b600052601160045260246000fd5b634e487b7160e01b600052604160045260246000fd5b6001600160a01b0381168114611d6e57600080fd5b8015158114611d6e57600080fdfea2646970667358221220ed095ac99f3f81256567572a34b6ea8badf35e7c4027d0300123872cff48b1f364736f6c63430008040033",
  "libraries": {
    "BurnRouterLib": "0xc7BdBecE57a8021a9a2137eeA1474BF978832D69"
  },
  "devdoc": {
    "kind": "dev",
    "methods": {
      "burnProof(bytes4,bytes,bytes,bytes4,uint256,bytes,uint256,bytes,uint256[],uint256[])": {
        "details": "Makes isTransferred flag true for the paid requests",
        "params": {
          "_blockNumber": "Height of the block containing the Bitcoin tx",
          "_burnReqIndexes": "Indexes of requests that locker wants to provide proof for them",
          "_index": "Index of the Bitcoin tx the block",
          "_intermediateNodes": "Merkle inclusion proof for the Bitcoin tx",
          "_lockerLockingScript": "Locker's locking script that this burn request belongs to",
          "_locktime": "Lock time of the Bitcoin tx",
          "_version": "Version of the Bitcoin tx",
          "_vin": "Inputs of the Bitcoin tx",
          "_vout": "Outputs of the Bitcoin tx",
          "_voutIndexes": "Indexes of outputs that were used to pay burn requests.                     _voutIndexes[i] belongs to _burnReqIndexes[i]"
        }
      },
      "disputeBurn(bytes,uint256[])": {
        "params": {
          "_indices": "Indices of requests that their deadline has passed",
          "_lockerLockingScript": "Locker's locking script that the unpaid request belongs to"
        }
      },
      "disputeLocker(bytes,bytes4[],bytes,bytes,bytes,bytes,bytes4[],bytes,uint256[])": {
        "details": "Input tx is a malicious tx which shows that locker spent BTC      Output tx is the tx that was spent by locker in input tx      Output tx shows money goes to locker      Input tx shows locker steals the funds",
        "params": {
          "_indexesAndBlockNumbers": "Indices of malicious input in input tx,                                input tx in block and block number of input tx",
          "_inputIntermediateNodes": "Merkle inclusion proof for the malicious transaction",
          "_inputVin": "Inputs of the malicious transaction",
          "_inputVout": "Outputs of the malicious transaction",
          "_lockerLockingScript": "Suspicious locker's locking script",
          "_locktimes": "Locktimes of input and output tx",
          "_outputVin": "Inputs of the spent transaction",
          "_outputVout": "Outputs of the spent transaction",
          "_versions": "Versions of input and output tx"
        }
      },
      "initialize(uint256,address,address,address,address,uint256,uint256,uint256,uint256)": {
        "params": {
          "_lockers": "Address of lockers contract",
          "_networkFee": "Fee of submitting a transaction on Network",
          "_protocolPercentageFee": "Percentage of tokens that user pays to protocol for burning",
          "_relay": "Address of relay contract",
          "_slasherPercentageReward": "Percentage of tokens that slasher receives after slashing a locker",
          "_startingBlockNumber": "Requests that are included in a block older                             than _startingBlockNumber cannot be executed",
          "_teleBTC": "Address of teleBTC contract",
          "_transferDeadline": "of sending BTC to user (aster submitting a burn request)",
          "_treasury": "Address of the treasury of the protocol"
        }
      },
      "isTransferred(address,uint256)": {
        "params": {
          "_index": "the request for the locker",
          "_lockerTargetAddress": "Locker address on the target chain"
        }
      },
      "owner()": {
        "details": "Returns the address of the current owner."
      },
      "renounceOwnership()": {
        "details": "Leaves the contract without owner. It will not be possible to call `onlyOwner` functions. Can only be called by the current owner. NOTE: Renouncing ownership will leave the contract without an owner, thereby disabling any functionality that is only available to the owner."
      },
      "setLockers(address)": {
        "details": "Only owner can call this",
        "params": {
          "_lockers": "The new lockers contract address"
        }
      },
      "setNetworkFee(uint256)": {
        "details": "Only owner can call this",
        "params": {
          "_networkFee": "The new Bitcoin transaction fee"
        }
      },
      "setNetworkFeeOracle(address)": {
        "details": "Only owner can call this",
        "params": {
          "_networkFeeOracle": "Address of oracle who can update burn fee"
        }
      },
      "setProtocolPercentageFee(uint256)": {
        "details": "Only owner can call this",
        "params": {
          "_protocolPercentageFee": "The new protocol percentage fee"
        }
      },
      "setRelay(address)": {
        "details": "Only owner can call this",
        "params": {
          "_relay": "The new relay contract address"
        }
      },
      "setSlasherPercentageReward(uint256)": {
        "details": "Only owner can call this",
        "params": {
          "_slasherPercentageReward": "The new slasher percentage reward"
        }
      },
      "setTeleBTC(address)": {
        "details": "Only owner can call this",
        "params": {
          "_teleBTC": "The new teleBTC contract address"
        }
      },
      "setThirdPartyAddress(uint256,address)": {
        "details": "Only owner can call this",
        "params": {
          "_thirdPartyAddress": "third party address"
        }
      },
      "setThirdPartyFee(uint256,uint256)": {
        "details": "Only owner can call this",
        "params": {
          "_thirdPartyFee": "third party fee"
        }
      },
      "setTransferDeadline(uint256)": {
        "details": "Only owner can call this      Deadline should be greater than relay finalization parameter",
        "params": {
          "_transferDeadline": "The new transfer deadline"
        }
      },
      "setTreasury(address)": {
        "details": "Only owner can call this",
        "params": {
          "_treasury": "The new treasury address"
        }
      },
      "swapAndUnwrap(address,uint256[],bool,address[],uint256,bytes,uint8,bytes,uint256)": {
        "details": "After exchanging, rest of the process is similar to ccBurn",
        "params": {
          "_amounts": "[inputTokenAmount, teleBTCAmount]",
          "_deadline": "of exchanging",
          "_exchangeConnector": "Address of exchange connectBurnRouterLogicor to be used",
          "_isFixedToken": "True if input token amount is fixed",
          "_path": "of exchanging inputToken to teleBTC",
          "thirdParty": "Third party id"
        },
        "returns": {
          "_0": "Amount of BTC that user receives"
        }
      },
      "transferOwnership(address)": {
        "details": "Transfers ownership of the contract to a new account (`newOwner`). Can only be called by the current owner."
      },
      "unwrap(uint256,bytes,uint8,bytes,uint256)": {
        "details": "After submitting the burn request, Locker has a limited time      to send BTC and provide burn proof",
        "params": {
          "_amount": "of teleBTC that user wants to burn",
          "_lockerLockingScript": "of locker that should execute the burn request",
          "_scriptType": "User script type",
          "_userScript": "User script hash",
          "thirdParty": "Third party id"
        },
        "returns": {
          "_0": "Amount of BTC that user receives"
        }
      }
    },
    "version": 1
  },
  "userdoc": {
    "events": {
      "LockerDispute(address,bytes,uint256,bytes32,uint256)": {
        "notice": "Emits when a locker gets slashed for withdrawing BTC without proper reason"
      },
      "NewLockers(address,address)": {
        "notice": "Emits when lockers address is updated"
      },
      "NewNetworkFee(uint256,uint256)": {
        "notice": "Emits when network fee is updated"
      },
      "NewNetworkFeeOracle(address,address)": {
        "notice": "Emits when network fee oracle is updated"
      },
      "NewProtocolPercentageFee(uint256,uint256)": {
        "notice": "Emits when percentage fee is updated"
      },
      "NewRelay(address,address)": {
        "notice": "Emits when relay address is updated"
      },
      "NewSlasherPercentageFee(uint256,uint256)": {
        "notice": "Emits when slasher percentage fee is updated"
      },
      "NewTeleBTC(address,address)": {
        "notice": "Emits when TeleBTC address is updated"
      },
      "NewThirdPartyAddress(uint256,address,address)": {
        "notice": "Emits when changes made to third party address"
      },
      "NewThirdPartyFee(uint256,uint256,uint256)": {
        "notice": "Emits when changes made to third party fee"
      },
      "NewTransferDeadline(uint256,uint256)": {
        "notice": "Emits when transfer deadline is updated"
      },
      "NewTreasury(address,address)": {
        "notice": "Emits when treasury address is updated"
      },
      "NewUnwrap(bytes,uint8,address,address,uint256,uint256,uint256,address,uint256[3],uint256[4])": {
        "notice": "Emits when a burn request gets submitted"
      },
      "PaidUnwrap(address,uint256,bytes32,uint256)": {
        "notice": "Emits when a burn proof is provided"
      }
    },
    "kind": "user",
    "methods": {
      "burnProof(bytes4,bytes,bytes,bytes4,uint256,bytes,uint256,bytes,uint256[],uint256[])": {
        "notice": "Checks the correctness of burn proof (which is a Bitcoin tx)"
      },
      "disputeBurn(bytes,uint256[])": {
        "notice": "Slashes a locker if did not pay a cc burn request before its deadline"
      },
      "disputeLocker(bytes,bytes4[],bytes,bytes,bytes,bytes,bytes4[],bytes,uint256[])": {
        "notice": "Slashes a locker if they issue a tx that doesn't match any burn request"
      },
      "initialize(uint256,address,address,address,address,uint256,uint256,uint256,uint256)": {
        "notice": "Handles cross-chain burn requests"
      },
      "isTransferred(address,uint256)": {
        "notice": "Returns true is request has been processed"
      },
      "setLockers(address)": {
        "notice": "Updates lockers contract address"
      },
      "setNetworkFee(uint256)": {
        "notice": "Updates Bitcoin transaction fee"
      },
      "setNetworkFeeOracle(address)": {
        "notice": "Updates Bitcoin oracle"
      },
      "setProtocolPercentageFee(uint256)": {
        "notice": "Updates protocol percentage fee for burning tokens"
      },
      "setRelay(address)": {
        "notice": "Updates relay contract address"
      },
      "setSlasherPercentageReward(uint256)": {
        "notice": "Updates slasher percentage reward for disputing lockers"
      },
      "setStartingBlockNumber(uint256)": {
        "notice": "Setter for starting block number"
      },
      "setTeleBTC(address)": {
        "notice": "Updates teleBTC contract address"
      },
      "setThirdPartyAddress(uint256,address)": {
        "notice": "Setter for third party address"
      },
      "setThirdPartyFee(uint256,uint256)": {
        "notice": "Setter for third party fee"
      },
      "setTransferDeadline(uint256)": {
        "notice": "Updates deadline of executing burn requests"
      },
      "setTreasury(address)": {
        "notice": "Updates protocol treasury address"
      },
      "swapAndUnwrap(address,uint256[],bool,address[],uint256,bytes,uint8,bytes,uint256)": {
        "notice": "Exchanges input token for teleBTC then burns it"
      },
      "unwrap(uint256,bytes,uint8,bytes,uint256)": {
        "notice": "Records users burn request"
      }
    },
    "version": 1
  },
  "storageLayout": {
    "storage": [
      {
        "astId": 14338,
        "contract": "contracts/routers/BurnRouterLogic.sol:BurnRouterLogic",
        "label": "relay",
        "offset": 0,
        "slot": "0",
        "type": "t_address"
      },
      {
        "astId": 14341,
        "contract": "contracts/routers/BurnRouterLogic.sol:BurnRouterLogic",
        "label": "lockers",
        "offset": 0,
        "slot": "1",
        "type": "t_address"
      },
      {
        "astId": 14344,
        "contract": "contracts/routers/BurnRouterLogic.sol:BurnRouterLogic",
        "label": "teleBTC",
        "offset": 0,
        "slot": "2",
        "type": "t_address"
      },
      {
        "astId": 14347,
        "contract": "contracts/routers/BurnRouterLogic.sol:BurnRouterLogic",
        "label": "treasury",
        "offset": 0,
        "slot": "3",
        "type": "t_address"
      },
      {
        "astId": 14350,
        "contract": "contracts/routers/BurnRouterLogic.sol:BurnRouterLogic",
        "label": "bitcoinFeeOracle",
        "offset": 0,
        "slot": "4",
        "type": "t_address"
      },
      {
        "astId": 14353,
        "contract": "contracts/routers/BurnRouterLogic.sol:BurnRouterLogic",
        "label": "startingBlockNumber",
        "offset": 0,
        "slot": "5",
        "type": "t_uint256"
      },
      {
        "astId": 14356,
        "contract": "contracts/routers/BurnRouterLogic.sol:BurnRouterLogic",
        "label": "transferDeadline",
        "offset": 0,
        "slot": "6",
        "type": "t_uint256"
      },
      {
        "astId": 14359,
        "contract": "contracts/routers/BurnRouterLogic.sol:BurnRouterLogic",
        "label": "protocolPercentageFee",
        "offset": 0,
        "slot": "7",
        "type": "t_uint256"
      },
      {
        "astId": 14362,
        "contract": "contracts/routers/BurnRouterLogic.sol:BurnRouterLogic",
        "label": "slasherPercentageReward",
        "offset": 0,
        "slot": "8",
        "type": "t_uint256"
      },
      {
        "astId": 14365,
        "contract": "contracts/routers/BurnRouterLogic.sol:BurnRouterLogic",
        "label": "bitcoinFee",
        "offset": 0,
        "slot": "9",
        "type": "t_uint256"
      },
      {
        "astId": 14371,
        "contract": "contracts/routers/BurnRouterLogic.sol:BurnRouterLogic",
        "label": "burnRequests",
        "offset": 0,
        "slot": "10",
        "type": "t_mapping(t_address,t_array(t_struct(burnRequest)17378_storage)dyn_storage)"
      },
      {
        "astId": 14375,
        "contract": "contracts/routers/BurnRouterLogic.sol:BurnRouterLogic",
        "label": "burnRequestCounter",
        "offset": 0,
        "slot": "11",
        "type": "t_mapping(t_address,t_uint256)"
      },
      {
        "astId": 14380,
        "contract": "contracts/routers/BurnRouterLogic.sol:BurnRouterLogic",
        "label": "isUsedAsBurnProof",
        "offset": 0,
        "slot": "12",
        "type": "t_mapping(t_bytes32,t_bool)"
      },
      {
        "astId": 280,
        "contract": "contracts/routers/BurnRouterLogic.sol:BurnRouterLogic",
        "label": "_initialized",
        "offset": 0,
        "slot": "13",
        "type": "t_uint8"
      },
      {
        "astId": 283,
        "contract": "contracts/routers/BurnRouterLogic.sol:BurnRouterLogic",
        "label": "_initializing",
        "offset": 1,
        "slot": "13",
        "type": "t_bool"
      },
      {
        "astId": 1113,
        "contract": "contracts/routers/BurnRouterLogic.sol:BurnRouterLogic",
        "label": "__gap",
        "offset": 0,
        "slot": "14",
        "type": "t_array(t_uint256)50_storage"
      },
      {
        "astId": 152,
        "contract": "contracts/routers/BurnRouterLogic.sol:BurnRouterLogic",
        "label": "_owner",
        "offset": 0,
        "slot": "64",
        "type": "t_address"
      },
      {
        "astId": 272,
        "contract": "contracts/routers/BurnRouterLogic.sol:BurnRouterLogic",
        "label": "__gap",
        "offset": 0,
        "slot": "65",
        "type": "t_array(t_uint256)49_storage"
      },
      {
        "astId": 585,
        "contract": "contracts/routers/BurnRouterLogic.sol:BurnRouterLogic",
        "label": "_status",
        "offset": 0,
        "slot": "114",
        "type": "t_uint256"
      },
      {
        "astId": 654,
        "contract": "contracts/routers/BurnRouterLogic.sol:BurnRouterLogic",
        "label": "__gap",
        "offset": 0,
        "slot": "115",
        "type": "t_array(t_uint256)49_storage"
      },
      {
        "astId": 14390,
        "contract": "contracts/routers/BurnRouterLogic.sol:BurnRouterLogic",
        "label": "thirdPartyFee",
        "offset": 0,
        "slot": "164",
        "type": "t_mapping(t_uint256,t_uint256)"
      },
      {
        "astId": 14394,
        "contract": "contracts/routers/BurnRouterLogic.sol:BurnRouterLogic",
        "label": "thirdPartyAddress",
        "offset": 0,
        "slot": "165",
        "type": "t_mapping(t_uint256,t_address)"
      }
    ],
    "types": {
      "t_address": {
        "encoding": "inplace",
        "label": "address",
        "numberOfBytes": "20"
      },
      "t_array(t_struct(burnRequest)17378_storage)dyn_storage": {
        "base": "t_struct(burnRequest)17378_storage",
        "encoding": "dynamic_array",
        "label": "struct IBurnRouter.burnRequest[]",
        "numberOfBytes": "32"
      },
      "t_array(t_uint256)49_storage": {
        "base": "t_uint256",
        "encoding": "inplace",
        "label": "uint256[49]",
        "numberOfBytes": "1568"
      },
      "t_array(t_uint256)50_storage": {
        "base": "t_uint256",
        "encoding": "inplace",
        "label": "uint256[50]",
        "numberOfBytes": "1600"
      },
      "t_bool": {
        "encoding": "inplace",
        "label": "bool",
        "numberOfBytes": "1"
      },
      "t_bytes32": {
        "encoding": "inplace",
        "label": "bytes32",
        "numberOfBytes": "32"
      },
      "t_bytes_storage": {
        "encoding": "bytes",
        "label": "bytes",
        "numberOfBytes": "32"
      },
      "t_enum(ScriptTypes)7072": {
        "encoding": "inplace",
        "label": "enum ScriptTypes",
        "numberOfBytes": "1"
      },
      "t_mapping(t_address,t_array(t_struct(burnRequest)17378_storage)dyn_storage)": {
        "encoding": "mapping",
        "key": "t_address",
        "label": "mapping(address => struct IBurnRouter.burnRequest[])",
        "numberOfBytes": "32",
        "value": "t_array(t_struct(burnRequest)17378_storage)dyn_storage"
      },
      "t_mapping(t_address,t_uint256)": {
        "encoding": "mapping",
        "key": "t_address",
        "label": "mapping(address => uint256)",
        "numberOfBytes": "32",
        "value": "t_uint256"
      },
      "t_mapping(t_bytes32,t_bool)": {
        "encoding": "mapping",
        "key": "t_bytes32",
        "label": "mapping(bytes32 => bool)",
        "numberOfBytes": "32",
        "value": "t_bool"
      },
      "t_mapping(t_uint256,t_address)": {
        "encoding": "mapping",
        "key": "t_uint256",
        "label": "mapping(uint256 => address)",
        "numberOfBytes": "32",
        "value": "t_address"
      },
      "t_mapping(t_uint256,t_uint256)": {
        "encoding": "mapping",
        "key": "t_uint256",
        "label": "mapping(uint256 => uint256)",
        "numberOfBytes": "32",
        "value": "t_uint256"
      },
      "t_struct(burnRequest)17378_storage": {
        "encoding": "inplace",
        "label": "struct IBurnRouter.burnRequest",
        "members": [
          {
            "astId": 17362,
            "contract": "contracts/routers/BurnRouterLogic.sol:BurnRouterLogic",
            "label": "amount",
            "offset": 0,
            "slot": "0",
            "type": "t_uint256"
          },
          {
            "astId": 17364,
            "contract": "contracts/routers/BurnRouterLogic.sol:BurnRouterLogic",
            "label": "burntAmount",
            "offset": 0,
            "slot": "1",
            "type": "t_uint256"
          },
          {
            "astId": 17366,
            "contract": "contracts/routers/BurnRouterLogic.sol:BurnRouterLogic",
            "label": "sender",
            "offset": 0,
            "slot": "2",
            "type": "t_address"
          },
          {
            "astId": 17368,
            "contract": "contracts/routers/BurnRouterLogic.sol:BurnRouterLogic",
            "label": "userScript",
            "offset": 0,
            "slot": "3",
            "type": "t_bytes_storage"
          },
          {
            "astId": 17370,
            "contract": "contracts/routers/BurnRouterLogic.sol:BurnRouterLogic",
            "label": "deadline",
            "offset": 0,
            "slot": "4",
            "type": "t_uint256"
          },
          {
            "astId": 17372,
            "contract": "contracts/routers/BurnRouterLogic.sol:BurnRouterLogic",
            "label": "isTransferred",
            "offset": 0,
            "slot": "5",
            "type": "t_bool"
          },
          {
            "astId": 17375,
            "contract": "contracts/routers/BurnRouterLogic.sol:BurnRouterLogic",
            "label": "scriptType",
            "offset": 1,
            "slot": "5",
            "type": "t_enum(ScriptTypes)7072"
          },
          {
            "astId": 17377,
            "contract": "contracts/routers/BurnRouterLogic.sol:BurnRouterLogic",
            "label": "requestIdOfLocker",
            "offset": 0,
            "slot": "6",
            "type": "t_uint256"
          }
        ],
        "numberOfBytes": "224"
      },
      "t_uint256": {
        "encoding": "inplace",
        "label": "uint256",
        "numberOfBytes": "32"
      },
      "t_uint8": {
        "encoding": "inplace",
        "label": "uint8",
        "numberOfBytes": "1"
      }
    }
  }
}