{
  "address": "0x5985c005650408deAAB377C8c5db455951716f57",
  "abi": [
    {
      "anonymous": false,
      "inputs": [
        {
          "indexed": true,
          "internalType": "address",
          "name": "userTargetAddress",
          "type": "address"
        },
        {
          "indexed": true,
          "internalType": "address",
          "name": "_lockerTargetAddress",
          "type": "address"
        },
        {
          "indexed": false,
          "internalType": "bytes",
          "name": "lockerLockingScript",
          "type": "bytes"
        },
        {
          "indexed": false,
          "internalType": "uint256",
          "name": "requestIdOfLocker",
          "type": "uint256"
        }
      ],
      "name": "BurnDispute",
      "type": "event"
    },
    {
      "anonymous": false,
      "inputs": [
        {
          "indexed": true,
          "internalType": "address",
          "name": "userTargetAddress",
          "type": "address"
        },
        {
          "indexed": false,
          "internalType": "bytes",
          "name": "userScript",
          "type": "bytes"
        },
        {
          "indexed": false,
          "internalType": "enum ScriptTypes",
          "name": "scriptType",
          "type": "uint8"
        },
        {
          "indexed": false,
          "internalType": "uint256",
          "name": "inputAmount",
          "type": "uint256"
        },
        {
          "indexed": false,
          "internalType": "address",
          "name": "inputToken",
          "type": "address"
        },
        {
          "indexed": false,
          "internalType": "uint256",
          "name": "teleBTCAmount",
          "type": "uint256"
        },
        {
          "indexed": false,
          "internalType": "uint256",
          "name": "burntAmount",
          "type": "uint256"
        },
        {
          "indexed": false,
          "internalType": "address",
          "name": "lockerTargetAddress",
          "type": "address"
        },
        {
          "indexed": false,
          "internalType": "uint256",
          "name": "requestIdOfLocker",
          "type": "uint256"
        },
        {
          "indexed": true,
          "internalType": "uint256",
          "name": "deadline",
          "type": "uint256"
        }
      ],
      "name": "CCBurn",
      "type": "event"
    },
    {
      "anonymous": false,
      "inputs": [
        {
          "indexed": false,
          "internalType": "uint8",
          "name": "version",
          "type": "uint8"
        }
      ],
      "name": "Initialized",
      "type": "event"
    },
    {
      "anonymous": false,
      "inputs": [
        {
          "indexed": false,
          "internalType": "address",
          "name": "_lockerTargetAddress",
          "type": "address"
        },
        {
          "indexed": false,
          "internalType": "bytes",
          "name": "lockerLockingScript",
          "type": "bytes"
        },
        {
          "indexed": false,
          "internalType": "uint256",
          "name": "_blockNumber",
          "type": "uint256"
        },
        {
          "indexed": false,
          "internalType": "bytes32",
          "name": "txId",
          "type": "bytes32"
        },
        {
          "indexed": false,
          "internalType": "uint256",
          "name": "amount",
          "type": "uint256"
        }
      ],
      "name": "LockerDispute",
      "type": "event"
    },
    {
      "anonymous": false,
      "inputs": [
        {
          "indexed": false,
          "internalType": "uint256",
          "name": "oldBitcoinFee",
          "type": "uint256"
        },
        {
          "indexed": false,
          "internalType": "uint256",
          "name": "newBitcoinFee",
          "type": "uint256"
        }
      ],
      "name": "NewBitcoinFee",
      "type": "event"
    },
    {
      "anonymous": false,
      "inputs": [
        {
          "indexed": false,
          "internalType": "address",
          "name": "oldBitcoinFeeOracle",
          "type": "address"
        },
        {
          "indexed": false,
          "internalType": "address",
          "name": "newBitcoinFeeOracle",
          "type": "address"
        }
      ],
      "name": "NewBitcoinFeeOracle",
      "type": "event"
    },
    {
      "anonymous": false,
      "inputs": [
        {
          "indexed": false,
          "internalType": "address",
          "name": "oldLockers",
          "type": "address"
        },
        {
          "indexed": false,
          "internalType": "address",
          "name": "newLockers",
          "type": "address"
        }
      ],
      "name": "NewLockers",
      "type": "event"
    },
    {
      "anonymous": false,
      "inputs": [
        {
          "indexed": false,
          "internalType": "uint256",
          "name": "oldProtocolPercentageFee",
          "type": "uint256"
        },
        {
          "indexed": false,
          "internalType": "uint256",
          "name": "newProtocolPercentageFee",
          "type": "uint256"
        }
      ],
      "name": "NewProtocolPercentageFee",
      "type": "event"
    },
    {
      "anonymous": false,
      "inputs": [
        {
          "indexed": false,
          "internalType": "address",
          "name": "oldRelay",
          "type": "address"
        },
        {
          "indexed": false,
          "internalType": "address",
          "name": "newRelay",
          "type": "address"
        }
      ],
      "name": "NewRelay",
      "type": "event"
    },
    {
      "anonymous": false,
      "inputs": [
        {
          "indexed": false,
          "internalType": "uint256",
          "name": "oldSlasherPercentageFee",
          "type": "uint256"
        },
        {
          "indexed": false,
          "internalType": "uint256",
          "name": "newSlasherPercentageFee",
          "type": "uint256"
        }
      ],
      "name": "NewSlasherPercentageFee",
      "type": "event"
    },
    {
      "anonymous": false,
      "inputs": [
        {
          "indexed": false,
          "internalType": "address",
          "name": "oldTeleBTC",
          "type": "address"
        },
        {
          "indexed": false,
          "internalType": "address",
          "name": "newTeleBTC",
          "type": "address"
        }
      ],
      "name": "NewTeleBTC",
      "type": "event"
    },
    {
      "anonymous": false,
      "inputs": [
        {
          "indexed": false,
          "internalType": "uint256",
          "name": "oldTransferDeadline",
          "type": "uint256"
        },
        {
          "indexed": false,
          "internalType": "uint256",
          "name": "newTransferDeadline",
          "type": "uint256"
        }
      ],
      "name": "NewTransferDeadline",
      "type": "event"
    },
    {
      "anonymous": false,
      "inputs": [
        {
          "indexed": false,
          "internalType": "address",
          "name": "oldTreasury",
          "type": "address"
        },
        {
          "indexed": false,
          "internalType": "address",
          "name": "newTreasury",
          "type": "address"
        }
      ],
      "name": "NewTreasury",
      "type": "event"
    },
    {
      "anonymous": false,
      "inputs": [
        {
          "indexed": true,
          "internalType": "address",
          "name": "previousOwner",
          "type": "address"
        },
        {
          "indexed": true,
          "internalType": "address",
          "name": "newOwner",
          "type": "address"
        }
      ],
      "name": "OwnershipTransferred",
      "type": "event"
    },
    {
      "anonymous": false,
      "inputs": [
        {
          "indexed": true,
          "internalType": "address",
          "name": "lockerTargetAddress",
          "type": "address"
        },
        {
          "indexed": false,
          "internalType": "uint256",
          "name": "requestIdOfLocker",
          "type": "uint256"
        },
        {
          "indexed": false,
          "internalType": "bytes32",
          "name": "bitcoinTxId",
          "type": "bytes32"
        },
        {
          "indexed": false,
          "internalType": "uint256",
          "name": "bitcoinTxOutputIndex",
          "type": "uint256"
        }
      ],
      "name": "PaidCCBurn",
      "type": "event"
    },
    {
      "inputs": [],
      "name": "bitcoinFee",
      "outputs": [
        {
          "internalType": "uint256",
          "name": "",
          "type": "uint256"
        }
      ],
      "stateMutability": "view",
      "type": "function"
    },
    {
      "inputs": [],
      "name": "bitcoinFeeOracle",
      "outputs": [
        {
          "internalType": "address",
          "name": "",
          "type": "address"
        }
      ],
      "stateMutability": "view",
      "type": "function"
    },
    {
      "inputs": [
        {
          "internalType": "bytes4",
          "name": "_version",
          "type": "bytes4"
        },
        {
          "internalType": "bytes",
          "name": "_vin",
          "type": "bytes"
        },
        {
          "internalType": "bytes",
          "name": "_vout",
          "type": "bytes"
        },
        {
          "internalType": "bytes4",
          "name": "_locktime",
          "type": "bytes4"
        },
        {
          "internalType": "uint256",
          "name": "_blockNumber",
          "type": "uint256"
        },
        {
          "internalType": "bytes",
          "name": "_intermediateNodes",
          "type": "bytes"
        },
        {
          "internalType": "uint256",
          "name": "_index",
          "type": "uint256"
        },
        {
          "internalType": "bytes",
          "name": "_lockerLockingScript",
          "type": "bytes"
        },
        {
          "internalType": "uint256[]",
          "name": "_burnReqIndexes",
          "type": "uint256[]"
        },
        {
          "internalType": "uint256[]",
          "name": "_voutIndexes",
          "type": "uint256[]"
        }
      ],
      "name": "burnProof",
      "outputs": [
        {
          "internalType": "bool",
          "name": "",
          "type": "bool"
        }
      ],
      "stateMutability": "payable",
      "type": "function"
    },
    {
      "inputs": [
        {
          "internalType": "address",
          "name": "",
          "type": "address"
        }
      ],
      "name": "burnRequestCounter",
      "outputs": [
        {
          "internalType": "uint256",
          "name": "",
          "type": "uint256"
        }
      ],
      "stateMutability": "view",
      "type": "function"
    },
    {
      "inputs": [
        {
          "internalType": "address",
          "name": "",
          "type": "address"
        },
        {
          "internalType": "uint256",
          "name": "",
          "type": "uint256"
        }
      ],
      "name": "burnRequests",
      "outputs": [
        {
          "internalType": "uint256",
          "name": "amount",
          "type": "uint256"
        },
        {
          "internalType": "uint256",
          "name": "burntAmount",
          "type": "uint256"
        },
        {
          "internalType": "address",
          "name": "sender",
          "type": "address"
        },
        {
          "internalType": "bytes",
          "name": "userScript",
          "type": "bytes"
        },
        {
          "internalType": "uint256",
          "name": "deadline",
          "type": "uint256"
        },
        {
          "internalType": "bool",
          "name": "isTransferred",
          "type": "bool"
        },
        {
          "internalType": "enum ScriptTypes",
          "name": "scriptType",
          "type": "uint8"
        },
        {
          "internalType": "uint256",
          "name": "requestIdOfLocker",
          "type": "uint256"
        }
      ],
      "stateMutability": "view",
      "type": "function"
    },
    {
      "inputs": [
        {
          "internalType": "uint256",
          "name": "_amount",
          "type": "uint256"
        },
        {
          "internalType": "bytes",
          "name": "_userScript",
          "type": "bytes"
        },
        {
          "internalType": "enum ScriptTypes",
          "name": "_scriptType",
          "type": "uint8"
        },
        {
          "internalType": "bytes",
          "name": "_lockerLockingScript",
          "type": "bytes"
        }
      ],
      "name": "ccBurn",
      "outputs": [
        {
          "internalType": "uint256",
          "name": "",
          "type": "uint256"
        }
      ],
      "stateMutability": "nonpayable",
      "type": "function"
    },
    {
      "inputs": [
        {
          "internalType": "address",
          "name": "_exchangeConnector",
          "type": "address"
        },
        {
          "internalType": "uint256[]",
          "name": "_amounts",
          "type": "uint256[]"
        },
        {
          "internalType": "bool",
          "name": "_isFixedToken",
          "type": "bool"
        },
        {
          "internalType": "address[]",
          "name": "_path",
          "type": "address[]"
        },
        {
          "internalType": "uint256",
          "name": "_deadline",
          "type": "uint256"
        },
        {
          "internalType": "bytes",
          "name": "_userScript",
          "type": "bytes"
        },
        {
          "internalType": "enum ScriptTypes",
          "name": "_scriptType",
          "type": "uint8"
        },
        {
          "internalType": "bytes",
          "name": "_lockerLockingScript",
          "type": "bytes"
        }
      ],
      "name": "ccExchangeAndBurn",
      "outputs": [
        {
          "internalType": "uint256",
          "name": "",
          "type": "uint256"
        }
      ],
      "stateMutability": "nonpayable",
      "type": "function"
    },
    {
      "inputs": [
        {
          "internalType": "bytes",
          "name": "_lockerLockingScript",
          "type": "bytes"
        },
        {
          "internalType": "uint256[]",
          "name": "_indices",
          "type": "uint256[]"
        }
      ],
      "name": "disputeBurn",
      "outputs": [],
      "stateMutability": "nonpayable",
      "type": "function"
    },
    {
      "inputs": [
        {
          "internalType": "bytes",
          "name": "_lockerLockingScript",
          "type": "bytes"
        },
        {
          "internalType": "bytes4[]",
          "name": "_versions",
          "type": "bytes4[]"
        },
        {
          "internalType": "bytes",
          "name": "_inputVin",
          "type": "bytes"
        },
        {
          "internalType": "bytes",
          "name": "_inputVout",
          "type": "bytes"
        },
        {
          "internalType": "bytes",
          "name": "_outputVin",
          "type": "bytes"
        },
        {
          "internalType": "bytes",
          "name": "_outputVout",
          "type": "bytes"
        },
        {
          "internalType": "bytes4[]",
          "name": "_locktimes",
          "type": "bytes4[]"
        },
        {
          "internalType": "bytes",
          "name": "_inputIntermediateNodes",
          "type": "bytes"
        },
        {
          "internalType": "uint256[]",
          "name": "_indexesAndBlockNumbers",
          "type": "uint256[]"
        }
      ],
      "name": "disputeLocker",
      "outputs": [],
      "stateMutability": "payable",
      "type": "function"
    },
    {
      "inputs": [
        {
          "internalType": "uint256",
          "name": "_startingBlockNumber",
          "type": "uint256"
        },
        {
          "internalType": "address",
          "name": "_relay",
          "type": "address"
        },
        {
          "internalType": "address",
          "name": "_lockers",
          "type": "address"
        },
        {
          "internalType": "address",
          "name": "_treasury",
          "type": "address"
        },
        {
          "internalType": "address",
          "name": "_teleBTC",
          "type": "address"
        },
        {
          "internalType": "uint256",
          "name": "_transferDeadline",
          "type": "uint256"
        },
        {
          "internalType": "uint256",
          "name": "_protocolPercentageFee",
          "type": "uint256"
        },
        {
          "internalType": "uint256",
          "name": "_slasherPercentageReward",
          "type": "uint256"
        },
        {
          "internalType": "uint256",
          "name": "_bitcoinFee",
          "type": "uint256"
        }
      ],
      "name": "initialize",
      "outputs": [],
      "stateMutability": "nonpayable",
      "type": "function"
    },
    {
      "inputs": [
        {
          "internalType": "address",
          "name": "_lockerTargetAddress",
          "type": "address"
        },
        {
          "internalType": "uint256",
          "name": "_index",
          "type": "uint256"
        }
      ],
      "name": "isTransferred",
      "outputs": [
        {
          "internalType": "bool",
          "name": "",
          "type": "bool"
        }
      ],
      "stateMutability": "view",
      "type": "function"
    },
    {
      "inputs": [
        {
          "internalType": "bytes32",
          "name": "",
          "type": "bytes32"
        }
      ],
      "name": "isUsedAsBurnProof",
      "outputs": [
        {
          "internalType": "bool",
          "name": "",
          "type": "bool"
        }
      ],
      "stateMutability": "view",
      "type": "function"
    },
    {
      "inputs": [],
      "name": "lockers",
      "outputs": [
        {
          "internalType": "address",
          "name": "",
          "type": "address"
        }
      ],
      "stateMutability": "view",
      "type": "function"
    },
    {
      "inputs": [],
      "name": "owner",
      "outputs": [
        {
          "internalType": "address",
          "name": "",
          "type": "address"
        }
      ],
      "stateMutability": "view",
      "type": "function"
    },
    {
      "inputs": [],
      "name": "protocolPercentageFee",
      "outputs": [
        {
          "internalType": "uint256",
          "name": "",
          "type": "uint256"
        }
      ],
      "stateMutability": "view",
      "type": "function"
    },
    {
      "inputs": [],
      "name": "relay",
      "outputs": [
        {
          "internalType": "address",
          "name": "",
          "type": "address"
        }
      ],
      "stateMutability": "view",
      "type": "function"
    },
    {
      "inputs": [],
      "name": "renounceOwnership",
      "outputs": [],
      "stateMutability": "nonpayable",
      "type": "function"
    },
    {
      "inputs": [
        {
          "internalType": "uint256",
          "name": "_bitcoinFee",
          "type": "uint256"
        }
      ],
      "name": "setBitcoinFee",
      "outputs": [],
      "stateMutability": "nonpayable",
      "type": "function"
    },
    {
      "inputs": [
        {
          "internalType": "address",
          "name": "_bitcoinFeeOracle",
          "type": "address"
        }
      ],
      "name": "setBitcoinFeeOracle",
      "outputs": [],
      "stateMutability": "nonpayable",
      "type": "function"
    },
    {
      "inputs": [
        {
          "internalType": "address",
          "name": "_lockers",
          "type": "address"
        }
      ],
      "name": "setLockers",
      "outputs": [],
      "stateMutability": "nonpayable",
      "type": "function"
    },
    {
      "inputs": [
        {
          "internalType": "uint256",
          "name": "_protocolPercentageFee",
          "type": "uint256"
        }
      ],
      "name": "setProtocolPercentageFee",
      "outputs": [],
      "stateMutability": "nonpayable",
      "type": "function"
    },
    {
      "inputs": [
        {
          "internalType": "address",
          "name": "_relay",
          "type": "address"
        }
      ],
      "name": "setRelay",
      "outputs": [],
      "stateMutability": "nonpayable",
      "type": "function"
    },
    {
      "inputs": [
        {
          "internalType": "uint256",
          "name": "_slasherPercentageReward",
          "type": "uint256"
        }
      ],
      "name": "setSlasherPercentageReward",
      "outputs": [],
      "stateMutability": "nonpayable",
      "type": "function"
    },
    {
      "inputs": [
        {
          "internalType": "uint256",
          "name": "_startingBlockNumber",
          "type": "uint256"
        }
      ],
      "name": "setStartingBlockNumber",
      "outputs": [],
      "stateMutability": "nonpayable",
      "type": "function"
    },
    {
      "inputs": [
        {
          "internalType": "address",
          "name": "_teleBTC",
          "type": "address"
        }
      ],
      "name": "setTeleBTC",
      "outputs": [],
      "stateMutability": "nonpayable",
      "type": "function"
    },
    {
      "inputs": [
        {
          "internalType": "uint256",
          "name": "_transferDeadline",
          "type": "uint256"
        }
      ],
      "name": "setTransferDeadline",
      "outputs": [],
      "stateMutability": "nonpayable",
      "type": "function"
    },
    {
      "inputs": [
        {
          "internalType": "address",
          "name": "_treasury",
          "type": "address"
        }
      ],
      "name": "setTreasury",
      "outputs": [],
      "stateMutability": "nonpayable",
      "type": "function"
    },
    {
      "inputs": [],
      "name": "slasherPercentageReward",
      "outputs": [
        {
          "internalType": "uint256",
          "name": "",
          "type": "uint256"
        }
      ],
      "stateMutability": "view",
      "type": "function"
    },
    {
      "inputs": [],
      "name": "startingBlockNumber",
      "outputs": [
        {
          "internalType": "uint256",
          "name": "",
          "type": "uint256"
        }
      ],
      "stateMutability": "view",
      "type": "function"
    },
    {
      "inputs": [],
      "name": "teleBTC",
      "outputs": [
        {
          "internalType": "address",
          "name": "",
          "type": "address"
        }
      ],
      "stateMutability": "view",
      "type": "function"
    },
    {
      "inputs": [],
      "name": "transferDeadline",
      "outputs": [
        {
          "internalType": "uint256",
          "name": "",
          "type": "uint256"
        }
      ],
      "stateMutability": "view",
      "type": "function"
    },
    {
      "inputs": [
        {
          "internalType": "address",
          "name": "newOwner",
          "type": "address"
        }
      ],
      "name": "transferOwnership",
      "outputs": [],
      "stateMutability": "nonpayable",
      "type": "function"
    },
    {
      "inputs": [],
      "name": "treasury",
      "outputs": [
        {
          "internalType": "address",
          "name": "",
          "type": "address"
        }
      ],
      "stateMutability": "view",
      "type": "function"
    },
    {
      "stateMutability": "payable",
      "type": "receive"
    }
  ],
  "transactionHash": "0xdcdf4d3da5a6f30fd0f4ec68f8674d3902fcd24e12c658e0d70fb93df4543c71",
  "args": [],
  "numDeployments": 1,
  "solcInputHash": "0343131eed077976e2216bdb6340d37b",
  "bytecode": "0x608060405234801561001057600080fd5b50615fc680620000216000396000f3fe6080604052600436106101f25760003560e01c80637ffe9a921161010d578063bed6a602116100a0578063cdbe37411161006f578063cdbe37411461058c578063ea732637146105ac578063f0f44260146105bf578063f2fde38b146105df578063f47e2240146105ff576101f9565b8063bed6a60214610523578063c19e86e714610539578063c780c03f14610559578063c805f68b1461056c576101f9565b8063930a60e8116100dc578063930a60e8146104a0578063b14d3532146104cd578063b59589d1146104ed578063b74d0d351461050d576101f9565b80637ffe9a92146104225780638d3d78cd146104425780638d774f8e146104625780638da5cb5b14610482576101f9565b806350a0583611610185578063715018a611610154578063715018a6146103ad57806373532b2a146103c25780637ed55748146103e25780637f0f181714610402576101f9565b806350a05836146103375780635c4f5f3e1461035757806361d027b31461037757806370872aa514610397576101f9565b80631e7107c7116101c15780631e7107c7146102c1578063419cba7f146102e157806343149dba146102f75780634782bc3614610317576101f9565b80631812adb6146101fe5780631876dec4146102275780631d9278981461025f5780631e23616814610281576101f9565b366101f957005b600080fd5b34801561020a57600080fd5b5061021460075481565b6040519081526020015b60405180910390f35b34801561023357600080fd5b50600154610247906001600160a01b031681565b6040516001600160a01b03909116815260200161021e565b34801561026b57600080fd5b5061027f61027a366004615728565b610633565b005b34801561028d57600080fd5b506102b161029c366004615414565b600c6020526000908152604090205460ff1681565b604051901515815260200161021e565b3480156102cd57600080fd5b5061027f6102dc366004615414565b6107cc565b3480156102ed57600080fd5b5061021460085481565b34801561030357600080fd5b506102146103123660046157b2565b6107e0565b34801561032357600080fd5b5061027f610332366004615414565b610a30565b34801561034357600080fd5b50600454610247906001600160a01b031681565b34801561036357600080fd5b5061027f610372366004615414565b610a41565b34801561038357600080fd5b50600354610247906001600160a01b031681565b3480156103a357600080fd5b5061021460055481565b3480156103b957600080fd5b5061027f610a4a565b3480156103ce57600080fd5b5061027f6103dd366004615569565b610a54565b3480156103ee57600080fd5b5061027f6103fd366004615414565b611077565b34801561040e57600080fd5b5061027f61041d3660046151f3565b611088565b34801561042e57600080fd5b506102b161043d366004615327565b611099565b34801561044e57600080fd5b50600254610247906001600160a01b031681565b34801561046e57600080fd5b5061021461047d36600461522b565b6110f1565b34801561048e57600080fd5b506040546001600160a01b0316610247565b3480156104ac57600080fd5b506102146104bb3660046151f3565b600b6020526000908152604090205481565b3480156104d957600080fd5b5061027f6104e83660046151f3565b611195565b3480156104f957600080fd5b50600054610247906001600160a01b031681565b34801561051957600080fd5b5061021460095481565b34801561052f57600080fd5b5061021460065481565b34801561054557600080fd5b5061027f6105543660046151f3565b6111a6565b61027f6105673660046155ce565b6111b7565b34801561057857600080fd5b5061027f6105873660046151f3565b6114d9565b34801561059857600080fd5b5061027f6105a7366004615414565b6114ea565b6102b16105ba366004615444565b61154c565b3480156105cb57600080fd5b5061027f6105da3660046151f3565b61190a565b3480156105eb57600080fd5b5061027f6105fa3660046151f3565b61191b565b34801561060b57600080fd5b5061061f61061a366004615327565b611991565b60405161021e989796959493929190615c60565b600d54610100900460ff16158080156106535750600d54600160ff909116105b80610674575061066230611a8e565b1580156106745750600d5460ff166001145b6106dc5760405162461bcd60e51b815260206004820152602e60248201527f496e697469616c697a61626c653a20636f6e747261637420697320616c72656160448201526d191e481a5b9a5d1a585b1a5e995960921b60648201526084015b60405180910390fd5b600d805460ff1916600117905580156106ff57600d805461ff0019166101001790555b610707611aa1565b61070f611ad0565b6107188a611aff565b61072189611b61565b61072a88611bf2565b61073387611c83565b61073c86611d14565b61074585611da5565b61074e84611f3e565b61075783611fd1565b61076082612064565b61077a6107756040546001600160a01b031690565b6120a5565b80156107c057600d805461ff0019169055604051600181527f7f26b83ff96e1f2b6a682f133852f6798a09c465da95921460cefb38474024989060200160405180910390a15b50505050505050505050565b6107d461210e565b6107dd81611aff565b50565b60006107ea612168565b6002546001600160a01b03166323b872dd336040516001600160e01b031960e084901b1681526001600160a01b03909116600482015230602482015260448101899052606401602060405180830381600087803b15801561084a57600080fd5b505af115801561085e573d6000803e3d6000fd5b505050506040513d601f19601f820116820180604052508101906108829190615352565b6108ce5760405162461bcd60e51b815260206004820152601f60248201527f4275726e526f757465723a207472616e7366657246726f6d206661696c65640060448201526064016106d3565b6000806108de88888888886121c2565b6001600160a01b0381166000908152600a6020526040902080549294509092509061090b90600190615e87565b8154811061092957634e487b7160e01b600052603260045260246000fd5b9060005260206000209060070201600401546109423390565b6001600160a01b03167fc19dabf19fdfd8c6124bed2178a4564d0c5d5812bfb916777cc90d1b53ed5a5a89896000808e8989600a60008c6001600160a01b03166001600160a01b031681526020019081526020016000206001600a60008e6001600160a01b03166001600160a01b03168152602001908152602001600020805490506109ce9190615e87565b815481106109ec57634e487b7160e01b600052603260045260246000fd5b906000526020600020906007020160060154604051610a12989796959493929190615a29565b60405180910390a3509050610a276001607255565b95945050505050565b610a3861210e565b6107dd81611fd1565b6107dd81611da5565b610a5261210e565b565b610a5c612168565b610a6461210e565b60015460405163aff2faa360e01b81526001600160a01b039091169063aff2faa390610a9690869086906004016159de565b60206040518083038186803b158015610aae57600080fd5b505afa158015610ac2573d6000803e3d6000fd5b505050506040513d601f19601f82011682018060405250810190610ae69190615352565b610b025760405162461bcd60e51b81526004016106d390615be5565b60015460405163626885b560e11b81526000916001600160a01b03169063c4d10b6a90610b3590879087906004016159de565b60206040518083038186803b158015610b4d57600080fd5b505afa158015610b61573d6000803e3d6000fd5b505050506040513d601f19601f82011682018060405250810190610b85919061520f565b905060005b82518110156110665773BDB73A7C79cc2E6FB8fB744627BfAd69a61603576352335c02600a84868581518110610bd057634e487b7160e01b600052603260045260246000fd5b60209081029190910101516000546040516310889dc360e01b81526001600160a01b03909116600482015273BDB73A7C79cc2E6FB8fB744627BfAd69a6160357906310889dc39060240160206040518083038186803b158015610c3257600080fd5b505af4158015610c46573d6000803e3d6000fd5b505050506040513d601f19601f82011682018060405250810190610c6a919061542c565b6006546005546040516001600160e01b031960e089901b16815260048101969096526001600160a01b03909416602486015260448501929092526064840152608483015260a482015260c40160006040518083038186803b158015610cce57600080fd5b505af4158015610ce2573d6000803e3d6000fd5b50506001546008546001600160a01b038681166000908152600a602052604090208851919093169450631697565b935086926127109291899088908110610d3957634e487b7160e01b600052603260045260246000fd5b602002602001015181548110610d5f57634e487b7160e01b600052603260045260246000fd5b906000526020600020906007020160000154610d7b9190615e3f565b610d859190615e1f565b336001600160a01b0387166000908152600a602052604090208851899088908110610dc057634e487b7160e01b600052603260045260246000fd5b602002602001015181548110610de657634e487b7160e01b600052603260045260246000fd5b906000526020600020906007020160000154600a6000896001600160a01b03166001600160a01b03168152602001908152602001600020898881518110610e3d57634e487b7160e01b600052603260045260246000fd5b602002602001015181548110610e6357634e487b7160e01b600052603260045260246000fd5b600091825260209091206007909102016002015460405160e087901b6001600160e01b03191681526001600160a01b03958616600482015260248101949094529184166044840152606483015291909116608482015260a401602060405180830381600087803b158015610ed657600080fd5b505af1158015610eea573d6000803e3d6000fd5b505050506040513d601f19601f82011682018060405250810190610f0e9190615352565b506001600160a01b0382166000818152600a602052604090208451859084908110610f4957634e487b7160e01b600052603260045260246000fd5b602002602001015181548110610f6f57634e487b7160e01b600052603260045260246000fd5b906000526020600020906007020160020160009054906101000a90046001600160a01b03166001600160a01b03167f58c23b4ae0617be275628875bcfd65759a441263099a256eeb27899fb5dd846d8787600a6000886001600160a01b03166001600160a01b0316815260200190815260200160002088878151811061100557634e487b7160e01b600052603260045260246000fd5b60200260200101518154811061102b57634e487b7160e01b600052603260045260246000fd5b90600052602060002090600702016006015460405161104c939291906159f2565b60405180910390a38061105e81615f26565b915050610b8a565b50506110726001607255565b505050565b61107f61210e565b6107dd81611f3e565b61109061210e565b6107dd81611d14565b6001600160a01b0382166000908152600a602052604081208054839081106110d157634e487b7160e01b600052603260045260246000fd5b600091825260209091206005600790920201015460ff1690505b92915050565b60006110fb612168565b600061110c8d8d8d8d8d8d8d6124e6565b90506111798c8c600081811061113257634e487b7160e01b600052603260045260246000fd5b905060200201358a8a600081811061115a57634e487b7160e01b600052603260045260246000fd5b905060200201602081019061116f91906151f3565b8389898989612933565b9150506111866001607255565b9b9a5050505050505050505050565b61119d61210e565b6107dd81611bf2565b6111ae61210e565b6107dd816120a5565b6111bf612168565b6111c761210e565b60015460405163aff2faa360e01b81526001600160a01b039091169063aff2faa3906111f7908c90600401615a16565b60206040518083038186803b15801561120f57600080fd5b505afa158015611223573d6000803e3d6000fd5b505050506040513d601f19601f820116820180604052508101906112479190615352565b6112635760405162461bcd60e51b81526004016106d390615be5565b60006112c18960008151811061128957634e487b7160e01b600052603260045260246000fd5b60200260200101518989876000815181106112b457634e487b7160e01b600052603260045260246000fd5b6020026020010151612a8d565b905073BDB73A7C79cc2E6FB8fB744627BfAd69a616035763e87c5882600c60065460008054906101000a90046001600160a01b0316600554868f8b8b8b6040518a63ffffffff1660e01b815260040161132299989796959493929190615a87565b60006040518083038186803b15801561133a57600080fd5b505af415801561134e573d6000803e3d6000fd5b505050506000806113878a8560008151811061137a57634e487b7160e01b600052603260045260246000fd5b6020026020010151612bf2565b915091506113da8b6001815181106113af57634e487b7160e01b600052603260045260246000fd5b60200260200101518989896001815181106112b457634e487b7160e01b600052603260045260246000fd5b82146114285760405162461bcd60e51b815260206004820152601b60248201527f4275726e526f757465723a2077726f6e67206f7574707574207478000000000060448201526064016106d3565b8b5160208d01206114398883612c9b565b805190602001201461148d5760405162461bcd60e51b815260206004820152601a60248201527f4275726e526f757465723a206e6f7420666f72206c6f636b657200000000000060448201526064016106d3565b6114c1898d85876002815181106114b457634e487b7160e01b600052603260045260246000fd5b6020026020010151612d0d565b5050506114ce6001607255565b505050505050505050565b6114e161210e565b6107dd81611b61565b60045433906001600160a01b0316811461153f5760405162461bcd60e51b81526020600482015260166024820152754275726e526f757465723a206e6f74206f7261636c6560501b60448201526064016106d3565b61154882612064565b5050565b6000611556612168565b6005548710156115a85760405162461bcd60e51b815260206004820152601760248201527f4275726e526f757465723a206f6c64207265717565737400000000000000000060448201526064016106d3565b6001600160e01b03198816156116005760405162461bcd60e51b815260206004820152601e60248201527f4275726e526f757465723a206e6f6e2d7a65726f206c6f636b2074696d65000060448201526064016106d3565b60015460405163aff2faa360e01b81526001600160a01b039091169063aff2faa390611630908790600401615a16565b60206040518083038186803b15801561164857600080fd5b505afa15801561165c573d6000803e3d6000fd5b505050506040513d601f19601f820116820180604052508101906116809190615352565b61169c5760405162461bcd60e51b81526004016106d390615be5565b81518351146116ed5760405162461bcd60e51b815260206004820152601960248201527f4275726e526f757465723a2077726f6e6720696e64657865730000000000000060448201526064016106d3565b60006116fb8c8c8c8c612a8d565b600054604051637ebc232760e01b815291925073BDB73A7C79cc2E6FB8fB744627BfAd69a616035791637ebc23279161174a916001600160a01b039091169085908d908d908d9060040161595e565b60206040518083038186803b15801561176257600080fd5b505af4158015611776573d6000803e3d6000fd5b505050506040513d601f19601f8201168201806040525081019061179a9190615352565b6117e65760405162461bcd60e51b815260206004820152601960248201527f4275726e526f757465723a206e6f742066696e616c697a65640000000000000060448201526064016106d3565b60015460405163626885b560e11b81526000916001600160a01b03169063c4d10b6a90611817908990600401615a16565b60206040518083038186803b15801561182f57600080fd5b505afa158015611843573d6000803e3d6000fd5b505050506040513d601f19601f82011682018060405250810190611867919061520f565b90506000611879838b848f8a8a612ed9565b905073BDB73A7C79cc2E6FB8fB744627BfAd69a616035763191e28dc600c838f8b886040518663ffffffff1660e01b81526004016118bb959493929190615b33565b60006040518083038186803b1580156118d357600080fd5b505af41580156118e7573d6000803e3d6000fd5b50505050600193505050506118fc6001607255565b9a9950505050505050505050565b61191261210e565b6107dd81611c83565b61192361210e565b6001600160a01b0381166119885760405162461bcd60e51b815260206004820152602660248201527f4f776e61626c653a206e6577206f776e657220697320746865207a65726f206160448201526564647265737360d01b60648201526084016106d3565b6107dd816133c9565b600a60205281600052604060002081815481106119ad57600080fd5b600091825260209091206007909102018054600182015460028301546003840180549396509194506001600160a01b031692916119e990615ef1565b80601f0160208091040260200160405190810160405280929190818152602001828054611a1590615ef1565b8015611a625780601f10611a3757610100808354040283529160200191611a62565b820191906000526020600020905b815481529060010190602001808311611a4557829003601f168201915b505050600484015460058501546006909501549394909360ff8083169450610100909204909116915088565b6001600160a01b0381163b15155b919050565b600d54610100900460ff16611ac85760405162461bcd60e51b81526004016106d390615c15565b610a52613419565b600d54610100900460ff16611af75760405162461bcd60e51b81526004016106d390615c15565b610a52613449565b6005548111611b5c5760405162461bcd60e51b815260206004820152602360248201527f4275726e526f757465723a206c6f77207374617274696e67426c6f636b4e756d6044820152623132b960e91b60648201526084016106d3565b600555565b806001600160a01b038116611b885760405162461bcd60e51b81526004016106d390615b77565b600054604080516001600160a01b03928316815291841660208301527f4c28a3f61a715259c4dc930c23e7423b8fa52e13232c061a6e488729c66184f4910160405180910390a150600080546001600160a01b0319166001600160a01b0392909216919091179055565b806001600160a01b038116611c195760405162461bcd60e51b81526004016106d390615b77565b600154604080516001600160a01b03928316815291841660208301527ffa021c2ec0f46429a53e7f88b88065e40001f50c9d38b2e8b713beaf9828d4c3910160405180910390a150600180546001600160a01b0319166001600160a01b0392909216919091179055565b806001600160a01b038116611caa5760405162461bcd60e51b81526004016106d390615b77565b600354604080516001600160a01b03928316815291841660208301527f567657fa3f286518b318f4a29870674f433f622fdfc819691acb13105b228225910160405180910390a150600380546001600160a01b0319166001600160a01b0392909216919091179055565b806001600160a01b038116611d3b5760405162461bcd60e51b81526004016106d390615b77565b600254604080516001600160a01b03928316815291841660208301527f36a4c08a38b736dcecb6c328dba61238529620e83ccb23db2cc43cd34ec26096910160405180910390a150600280546001600160a01b0319166001600160a01b0392909216919091179055565b600080546040516353bcd1c960e11b81526001600160a01b03909116600482015273BDB73A7C79cc2E6FB8fB744627BfAd69a61603579063a779a3929060240160206040518083038186803b158015611dfd57600080fd5b505af4158015611e11573d6000803e3d6000fd5b505050506040513d601f19601f82011682018060405250810190611e35919061542c565b9050611e496040546001600160a01b031690565b6001600160a01b0316336001600160a01b03161480611e69575080600654105b611ead5760405162461bcd60e51b8152602060048201526015602482015274109d5c9b949bdd5d195c8e881b9bc81c195c9b5a5d605a1b60448201526064016106d3565b808211611efc5760405162461bcd60e51b815260206004820152601860248201527f4275726e526f757465723a206c6f7720646561646c696e65000000000000000060448201526064016106d3565b60065460408051918252602082018490527f92c10a242ca42973030420e2ee32b3ba7818cc643f896958f620c606cf300416910160405180910390a150600655565b806127101015611f905760405162461bcd60e51b815260206004820152601760248201527f4275726e526f757465723a20696e76616c69642066656500000000000000000060448201526064016106d3565b60075460408051918252602082018390527f7d205f60891f60851c61cd244ba387d72b6589e7c0ac41b9d909ab0ce2c2a53b910160405180910390a1600755565b8061271010156120235760405162461bcd60e51b815260206004820152601a60248201527f4275726e526f757465723a20696e76616c69642072657761726400000000000060448201526064016106d3565b60085460408051918252602082018390527faa50b3683e42a13535a5b9c2c32780cccf956fb546b523a3542ac4ad8b544f67910160405180910390a1600855565b60095460408051918252602082018390527f47c5f9c13c35ebb166f6a8d8c56af73f8b323ac0fee7aec4a5e0490bbf67a4fe910160405180910390a1600955565b600454604080516001600160a01b03928316815291831660208301527ff68296962c28bcee9d0e2e78c34b1ed65997ff5ce894f72e9165fbc75b937600910160405180910390a1600480546001600160a01b0319166001600160a01b0392909216919091179055565b6040546001600160a01b03163314610a525760405162461bcd60e51b815260206004820181905260248201527f4f776e61626c653a2063616c6c6572206973206e6f7420746865206f776e657260448201526064016106d3565b600260725414156121bb5760405162461bcd60e51b815260206004820152601f60248201527f5265656e7472616e637947756172643a207265656e7472616e742063616c6c0060448201526064016106d3565b6002607255565b6000806121cf8686613470565b60015460405163aff2faa360e01b81526001600160a01b039091169063aff2faa39061220190879087906004016159de565b60206040518083038186803b15801561221957600080fd5b505afa15801561222d573d6000803e3d6000fd5b505050506040513d601f19601f820116820180604052508101906122519190615352565b61226d5760405162461bcd60e51b81526004016106d390615be5565b60015460405163626885b560e11b81526001600160a01b039091169063c4d10b6a9061229f90879087906004016159de565b60206040518083038186803b1580156122b757600080fd5b505afa1580156122cb573d6000803e3d6000fd5b505050506040513d601f19601f820116820180604052508101906122ef919061520f565b905060006122fc88613593565b60025460015460405163095ea7b360e01b81526001600160a01b03918216600482015260248101849052929350169063095ea7b390604401602060405180830381600087803b15801561234e57600080fd5b505af1158015612362573d6000803e3d6000fd5b505050506040513d601f19601f820116820180604052508101906123869190615352565b5080600954826123969190615e87565b6001546040516338463cff60e01b81526001600160a01b03909116906338463cff906123ca908a908a9088906004016159f2565b602060405180830381600087803b1580156123e457600080fd5b505af11580156123f8573d6000803e3d6000fd5b505050506040513d601f19601f8201168201806040525081019061241c919061542c565b6124269190615e3f565b6124309190615e1f565b6000546040516310889dc360e01b81526001600160a01b0390911660048201529093506124d490899085908a908a9073BDB73A7C79cc2E6FB8fB744627BfAd69a6160357906310889dc39060240160206040518083038186803b15801561249657600080fd5b505af41580156124aa573d6000803e3d6000fd5b505050506040513d601f19601f820116820180604052508101906124ce919061542c565b87613702565b509550959350505050565b6001607255565b6002546000906001600160a01b03168484612502600182615e87565b81811061251f57634e487b7160e01b600052603260045260246000fd5b905060200201602081019061253491906151f3565b6001600160a01b03161461258a5760405162461bcd60e51b815260206004820152601860248201527f4275726e526f757465723a20696e76616c69642070617468000000000000000060448201526064016106d3565b600286146125da5760405162461bcd60e51b815260206004820152601960248201527f4275726e526f757465723a2077726f6e6720616d6f756e74730000000000000060448201526064016106d3565b838360008181106125fb57634e487b7160e01b600052603260045260246000fd5b905060200201602081019061261091906151f3565b6001600160a01b03166323b872dd33308a8a600081811061264157634e487b7160e01b600052603260045260246000fd5b6040516001600160e01b031960e088901b1681526001600160a01b03958616600482015294909316602485015250602090910201356044820152606401602060405180830381600087803b15801561269857600080fd5b505af11580156126ac573d6000803e3d6000fd5b505050506040513d601f19601f820116820180604052508101906126d09190615352565b50838360008181106126f257634e487b7160e01b600052603260045260246000fd5b905060200201602081019061270791906151f3565b6001600160a01b031663095ea7b3898989600081811061273757634e487b7160e01b600052603260045260246000fd5b6040516001600160e01b031960e087901b1681526001600160a01b0390941660048501526020029190910135602483015250604401602060405180830381600087803b15801561278657600080fd5b505af115801561279a573d6000803e3d6000fd5b505050506040513d601f19601f820116820180604052508101906127be9190615352565b50600080896001600160a01b031663b0bbcd888a8a60008181106127f257634e487b7160e01b600052603260045260246000fd5b905060200201358b8b600181811061281a57634e487b7160e01b600052603260045260246000fd5b905060200201358989308a8e6040518863ffffffff1660e01b81526004016128489796959493929190615cc3565b600060405180830381600087803b15801561286257600080fd5b505af1158015612876573d6000803e3d6000fd5b505050506040513d6000823e601f3d908101601f1916820160405261289e919081019061536e565b91509150816128ef5760405162461bcd60e51b815260206004820152601b60248201527f4275726e526f757465723a2065786368616e6765206661696c6564000000000060448201526064016106d3565b80600182516128fe9190615e87565b8151811061291c57634e487b7160e01b600052603260045260246000fd5b602002602001015192505050979650505050505050565b600080600061294588888888886121c2565b6001600160a01b0381166000908152600a6020526040902080549294509092509061297290600190615e87565b8154811061299057634e487b7160e01b600052603260045260246000fd5b9060005260206000209060070201600401546129a93390565b6001600160a01b03167fc19dabf19fdfd8c6124bed2178a4564d0c5d5812bfb916777cc90d1b53ed5a5a89898e8e8e8989600a60008c6001600160a01b03166001600160a01b031681526020019081526020016000206001600a60008e6001600160a01b03166001600160a01b0316815260200190815260200160002080549050612a349190615e87565b81548110612a5257634e487b7160e01b600052603260045260246000fd5b906000526020600020906007020160060154604051612a78989796959493929190615a29565b60405180910390a35098975050505050505050565b600080612aa4612a9f825b87906138c8565b6138e3565b905062ffffff198082161415612afc5760405162461bcd60e51b815260206004820152601a60248201527f426974636f696e48656c7065723a2076696e206973206e756c6c00000000000060448201526064016106d3565b6000600287878787604051602001612b1794939291906158ef565b60408051601f1981840301815290829052612b3191615942565b602060405180830381855afa158015612b4e573d6000803e3d6000fd5b5050506040513d601f19601f82011682018060405250810190612b71919061542c565b90506000600282604051602001612b8a91815260200190565b60408051601f1981840301815290829052612ba491615942565b602060405180830381855afa158015612bc1573d6000803e3d6000fd5b5050506040513d601f19601f82011682018060405250810190612be4919061542c565b93505050505b949350505050565b60008080612c02612a9f82612a98565b905062ffffff198082161415612c5a5760405162461bcd60e51b815260206004820152601a60248201527f426974636f696e48656c7065723a2076696e206973206e756c6c00000000000060448201526064016106d3565b6000612c668286613a19565b90506000612c7382613b37565b9050612c7e81613b5b565b9450612c8981613b7d565b63ffffffff1693505050509250929050565b60606000612cb1612cac85836138c8565b613ba7565b905062ffffff198082161415612cd95760405162461bcd60e51b81526004016106d390615bae565b6000612ce58285613c98565b90506000612cf282613d92565b9050612d0362ffffff198216613de3565b9695505050505050565b6000612d1885613e33565b60015460405163626885b560e11b81526001600160401b039290921692506000916001600160a01b039091169063c4d10b6a90612d59908890600401615a16565b60206040518083038186803b158015612d7157600080fd5b505afa158015612d85573d6000803e3d6000fd5b505050506040513d601f19601f82011682018060405250810190612da9919061520f565b6001546008549192506001600160a01b03169063b734de2690839061271090612dd29087615e3f565b612ddc9190615e1f565b3360405160e085901b6001600160e01b03191681526001600160a01b0393841660048201526024810192909252909116604482015260648101859052608401602060405180830381600087803b158015612e3557600080fd5b505af1158015612e49573d6000803e3d6000fd5b505050506040513d601f19601f82011682018060405250810190612e6d9190615352565b507f7ff138134e34ccab071315c38e38eec079f54726b890304ab46e2c5ab6f722bb8186858761271060085488612ea49190615e3f565b612eae9190615e1f565b612eb89088615d95565b604051612ec995949392919061599d565b60405180910390a1505050505050565b60008080805b85518110156133bc5780612f1c57848181518110612f0d57634e487b7160e01b600052603260045260246000fd5b60200260200101519150612fc8565b81858281518110612f3d57634e487b7160e01b600052603260045260246000fd5b602002602001015111612f9d5760405162461bcd60e51b815260206004820152602260248201527f4275726e526f757465723a20756e2d736f7274656420766f757420696e646578604482015261657360f01b60648201526084016106d3565b848181518110612fbd57634e487b7160e01b600052603260045260246000fd5b602002602001015191505b6000868281518110612fea57634e487b7160e01b600052603260045260246000fd5b60200260200101519050600a60008a6001600160a01b03166001600160a01b03168152602001908152602001600020818154811061303857634e487b7160e01b600052603260045260246000fd5b600091825260209091206005600790920201015460ff161580156130a757506001600160a01b0389166000908152600a6020526040902080548b91908390811061309257634e487b7160e01b600052603260045260246000fd5b90600052602060002090600702016004015410155b156133a957613214888784815181106130d057634e487b7160e01b600052603260045260246000fd5b6020026020010151600a60008d6001600160a01b03166001600160a01b03168152602001908152602001600020848154811061311c57634e487b7160e01b600052603260045260246000fd5b9060005260206000209060070201600301805461313890615ef1565b80601f016020809104026020016040519081016040528092919081815260200182805461316490615ef1565b80156131b15780601f10613186576101008083540402835291602001916131b1565b820191906000526020600020905b81548152906001019060200180831161319457829003601f168201915b5050506001600160a01b038f166000908152600a60205260409020805490925087915081106131f057634e487b7160e01b600052603260045260246000fd5b906000526020600020906007020160050160019054906101000a900460ff16613ecb565b6001600160401b0316935083600a60008b6001600160a01b03166001600160a01b03168152602001908152602001600020828154811061326457634e487b7160e01b600052603260045260246000fd5b90600052602060002090600702016001015414156133a9576001600160a01b0389166000908152600a60205260409020805460019190839081106132b857634e487b7160e01b600052603260045260246000fd5b60009182526020909120600790910201600501805460ff19169115159190911790556132e5856001615d95565b6001600160a01b038a166000818152600a60205260409020805492975090917f1b46655c2f394f2191cb246d5982dbe00ad671f0b590e75e97c90ee97f1f782a91908490811061334557634e487b7160e01b600052603260045260246000fd5b9060005260206000209060070201600601548d89868151811061337857634e487b7160e01b600052603260045260246000fd5b60200260200101516040516133a0939291909283526020830191909152604082015260600190565b60405180910390a25b50806133b481615f26565b915050612edf565b5050509695505050505050565b604080546001600160a01b038381166001600160a01b031983168117845592519116919082907f8be0079c531659141344cd1fd0a4f28419497f9722a3daafe3b4186f6b6457e090600090a35050565b600d54610100900460ff166134405760405162461bcd60e51b81526004016106d390615c15565b610a52336133c9565b600d54610100900460ff166124df5760405162461bcd60e51b81526004016106d390615c15565b600081600581111561349257634e487b7160e01b600052602160045260246000fd5b14806134bd575060048160058111156134bb57634e487b7160e01b600052602160045260246000fd5b145b806134e7575060058160058111156134e557634e487b7160e01b600052602160045260246000fd5b145b1561354257815160201461353d5760405162461bcd60e51b815260206004820152601a60248201527f4275726e526f757465723a20696e76616c69642073637269707400000000000060448201526064016106d3565b611548565b81516014146115485760405162461bcd60e51b815260206004820152601a60248201527f4275726e526f757465723a20696e76616c69642073637269707400000000000060448201526064016106d3565b600080612710600754846135a79190615e3f565b6135b19190615e1f565b905060095460026135c29190615e3f565b6135cc9082615d95565b83116136135760405162461bcd60e51b8152602060048201526016602482015275109d5c9b949bdd5d195c8e881b1bddc8185b5bdd5b9d60521b60448201526064016106d3565b600061361f8285615e87565b905081156136fb5760025460035460405163a9059cbb60e01b81526001600160a01b0391821660048201526024810185905291169063a9059cbb90604401602060405180830381600087803b15801561367757600080fd5b505af115801561368b573d6000803e3d6000fd5b505050506040513d601f19601f820116820180604052508101906136af9190615352565b6136fb5760405162461bcd60e51b815260206004820152601f60248201527f4275726e526f757465723a20666565207472616e73666572206661696c65640060448201526064016106d3565b9392505050565b604080516101008101825260006080820181905260a0820181905260c0820181815260e0830191909152888252602082018890523392820192909252606081018690529084600581111561376657634e487b7160e01b600052602160045260246000fd5b9081600581111561378757634e487b7160e01b600052602160045260246000fd5b9052506006546137979084615d95565b6080820152600060a082018190526001600160a01b038316808252600b6020818152604084205460e08601819052929093529091526137d7906001615d95565b6001600160a01b038381166000908152600b6020908152604080832094909455600a81528382208054600180820183559184529282902086516007909402019283558582015190830155928401516002820180546001600160a01b0319169190931617909155606083015180518493613857926003850192910190614f68565b506080820151600482015560a08201516005808301805460ff19169215159290921780835560c0850151929161ff0019909116906101009084908111156138ae57634e487b7160e01b600052602160045260246000fd5b021790555060e08201518160060155505050505050505050565b815160009060208401610a2764ffffffffff8516828461413e565b600081816138f9815b62ffffff19841690614182565b50601884901c6001600160601b03166139195762ffffff195b9250613a12565b600061392685600061425c565b9050601885901c6001600160601b03166001600160401b0382166139535762ffffff195b94505050613a12565b600061395e836143a3565b60ff16905060005b836001600160401b03168110156139da5782821061398f5762ffffff195b965050505050613a12565b60006139af61399e8486615e87565b60055b62ffffff198c1691906143fc565b90506139ba81614430565b6139c49084615d95565b92505080806139d290615f26565b915050613966565b508181146139f25762ffffff195b9550505050613a12565b613a0c60065b60d81b6301000000600160d81b0389161790565b95505050505b5050919050565b6000826006613a27816138ec565b506000613a3586600061425c565b6001600160401b03169050601886901c6001600160601b0316818610613a905760405162461bcd60e51b815260206004820152601060248201526f2b34b7103932b0b21037bb32b9393ab760811b60448201526064016106d3565b6000613a9b836143a3565b60ff1690506000805b88811015613af357613aca613ab98486615e87565b60055b62ffffff198d1691906143fc565b9150613ad582614430565b613adf9084615d95565b9250613aec600182615d95565b9050613aa4565b50613b0161399e8385615e87565b90506000613b0e82614430565b9050613b27838260045b62ffffff198e16929190614484565b975050505050505b505092915050565b6000816004613b45816138ec565b50612bea62ffffff198516600060246003614484565b6000816003613b69816138ec565b50612bea62ffffff198516600060206144f4565b6000816003613b8b816138ec565b50612bea613ba262ffffff1986166020600461464d565b614797565b60008181613bb4816138ec565b50601884901c6001600160601b0316613bd15762ffffff19613912565b6000613bde85600061425c565b9050601885901c6001600160601b03166001600160401b038216613c065762ffffff1961394a565b6000613c11836143a3565b60ff16905060005b836001600160401b0316811015613c7c57828210613c3b5762ffffff19613984565b6000613c51613c4a8486615e87565b600e6139a1565b9050613c5c81614800565b613c669084615d95565b9250508080613c7490615f26565b915050613c19565b50818114613c8e5762ffffff196139e8565b613a0c600f6139f8565b600082600f613ca6816138ec565b506000613cb486600061425c565b6001600160401b03169050601886901c6001600160601b0316818610613d105760405162461bcd60e51b81526020600482015260116024820152702b37baba103932b0b21037bb32b9393ab760791b60448201526064016106d3565b6000613d1b836143a3565b60ff1690506000805b88811015613d6957613d40613d398486615e87565b600e613abc565b9150613d4b82614800565b613d559084615d95565b9250613d62600182615d95565b9050613d24565b50613d77613c4a8385615e87565b90506000613d8482614800565b9050613b278382600d613b18565b600081600d613da0816138ec565b506000613dae85600861425c565b9050610a27613dbc826143a3565b613dc7906008615dd8565b62ffffff1987169060ff166001600160401b0384166007614484565b6060600080613dfb8460181c6001600160601b031690565b60405193508392506001600160601b03169050613e2284613e1d846020615d95565b614849565b508181016020016040529052919050565b600080613e43612cac84836138c8565b905062ffffff198082161415613e6b5760405162461bcd60e51b81526004016106d390615bae565b600080613e7983600061425c565b6001600160401b0316905060005b81811015613ec257613e998482613c98565b9250613ea4836149a1565b613eae9086615dad565b945080613eba81615f26565b915050613e87565b50505050919050565b600080613edb612cac87836138c8565b905062ffffff198082161415613f035760405162461bcd60e51b81526004016106d390615bae565b6000613f0f8287613c98565b90506000613f1c82613d92565b90506005856005811115613f4057634e487b7160e01b600052602160045260246000fd5b1415613fa557613f5962ffffff198216600260206144f4565b604051602001613f6b91815260200190565b60405160208183030381529060405280519060200120868051906020012014613f95576000613f9e565b613f9e826149a1565b9350614133565b6000856005811115613fc757634e487b7160e01b600052602160045260246000fd5b1415613fe057613f5962ffffff198216600160206144f4565b600185600581111561400257634e487b7160e01b600052602160045260246000fd5b14156140415761401962ffffff19821660036149c6565b604051602001613f6b919060609190911b6bffffffffffffffffffffffff1916815260140190565b600285600581111561406357634e487b7160e01b600052602160045260246000fd5b141561407a5761401962ffffff19821660026149c6565b600385600581111561409c57634e487b7160e01b600052602160045260246000fd5b14156140b35761401962ffffff19821660026149c6565b60048560058111156140d557634e487b7160e01b600052602160045260246000fd5b1415614133576140ee62ffffff198216600260206144f4565b60405160200161410091815260200190565b6040516020818303038152906040528051906020012086805190602001201461412a576000612be4565b612be4826149a1565b505050949350505050565b60008061414b8385615d95565b905060405181111561415b575060005b8061416d5762ffffff199150506136fb565b5050606092831b9190911790911b1760181b90565b600061418e83836149d4565b6142555760006141ad6141a18560d81c90565b64ffffffffff166149f7565b91505060006141c28464ffffffffff166149f7565b6040517f5479706520617373657274696f6e206661696c65642e20476f7420307800000060208201526001600160b01b031960b086811b8216603d8401526c05c408af0e0cac6e8cac84060f609b1b604784015283901b16605482015290925060009150605e015b60405160208183030381529060405290508060405162461bcd60e51b81526004016106d39190615a16565b5090919050565b60008061427162ffffff198516846001614aa3565b905060fc811161428c5761428481614ad3565b9150506110eb565b8060fd14156142f2576142ba6142b56142a6856001615d95565b62ffffff19871690600261464d565b614ad3565b91506142c5826143a3565b60ff166003146142ed576142eb6142e662ffffff1986168560036000614484565b614b3b565b505b61439c565b8060fe14156143475761431b6142b561430c856001615d95565b62ffffff19871690600461464d565b9150614326826143a3565b60ff166005146142ed576142eb6142e662ffffff1986168560056000614484565b8060ff141561439c576143706142b5614361856001615d95565b62ffffff19871690600861464d565b915061437b826143a3565b60ff1660091461439c57613b2f6142e662ffffff1986168560096000614484565b5092915050565b600060fc826001600160401b0316116143be57506001611a9c565b61ffff826001600160401b0316116143d857506003611a9c565b63ffffffff826001600160401b0316116143f457506005611a9c565b506009611a9c565b6000612bea84846144168760181c6001600160601b031690565b6001600160601b03166144299190615e87565b8585614484565b600081600561443e816138ec565b50600061444c85602461425c565b9050806001600160401b0316614461826143a3565b60ff1661446e9190615d95565b614479906024615d95565b610a27906004615d95565b60008061449a8660781c6001600160601b031690565b6001600160601b031690506144ae86614bc2565b846144b98784615d95565b6144c39190615d95565b11156144d65762ffffff19915050612bea565b6144e08582615d95565b9050612d038364ffffffffff16828661413e565b600060ff8216614506575060006136fb565b6145198460181c6001600160601b031690565b6001600160601b031661452f60ff841685615d95565b11156145935761457a61454b8560781c6001600160601b031690565b6001600160601b03166145678660181c6001600160601b031690565b6001600160601b0316858560ff16614c03565b60405162461bcd60e51b81526004016106d39190615a16565b60208260ff16111561460d5760405162461bcd60e51b815260206004820152603a60248201527f54797065644d656d566965772f696e646578202d20417474656d70746564207460448201527f6f20696e646578206d6f7265207468616e20333220627974657300000000000060648201526084016106d3565b6008820260006146268660781c6001600160601b031690565b6001600160601b031690506000600160ff1b60001984011d91909501511695945050505050565b6000612bea61465d8585856144f4565b600881811c7eff00ff00ff00ff00ff00ff00ff00ff00ff00ff00ff00ff00ff00ff00ff00ff167fff00ff00ff00ff00ff00ff00ff00ff00ff00ff00ff00ff00ff00ff00ff00ff009290911b9190911617601081811c7dffff0000ffff0000ffff0000ffff0000ffff0000ffff0000ffff0000ffff167fffff0000ffff0000ffff0000ffff0000ffff0000ffff0000ffff0000ffff00009290911b9190911617602081811c7bffffffff00000000ffffffff00000000ffffffff00000000ffffffff167fffffffff00000000ffffffff00000000ffffffff00000000ffffffff000000009290911b9190911617604081811c77ffffffffffffffff0000000000000000ffffffffffffffff1677ffffffffffffffff0000000000000000ffffffffffffffff199290911b9190911617608081811c91901b1790565b600063ffffffff8211156147fc5760405162461bcd60e51b815260206004820152602660248201527f53616665436173743a2076616c756520646f65736e27742066697420696e203360448201526532206269747360d01b60648201526084016106d3565b5090565b600081600e61480e816138ec565b50600061481c85600861425c565b9050806001600160401b0316614831826143a3565b60ff1661483e9190615d95565b610a27906008615d95565b600062ffffff1980841614156148b25760405162461bcd60e51b815260206004820152602860248201527f54797065644d656d566965772f636f7079546f202d204e756c6c20706f696e7460448201526732b9103232b932b360c11b60648201526084016106d3565b6148bb83614d2d565b61491b5760405162461bcd60e51b815260206004820152602b60248201527f54797065644d656d566965772f636f7079546f202d20496e76616c696420706f60448201526a34b73a32b9103232b932b360a91b60648201526084016106d3565b60006149308460181c6001600160601b031690565b6001600160601b0316905060006149508560781c6001600160601b031690565b6001600160601b0316905060006040519050848111156149705760206060fd5b8285848460045afa50612d036149868760d81c90565b64ffffffffff60601b606091821b168717901b841760181b90565b600081600d6149af816138ec565b50612bea6142b562ffffff1986166000600861464d565b60006136fb83836014614aa3565b60008164ffffffffff166149e88460d81c90565b64ffffffffff16149392505050565b600080601f5b600f8160ff161115614a55576000614a16826008615e5e565b60ff1685901c9050614a2781614d6b565b61ffff16841793508160ff16601014614a4257601084901b93505b50614a4e600182615e9e565b90506149fd565b50600f5b60ff8160ff161015614a9d5760ff600882021684901c614a7881614d6b565b61ffff16831792508160ff16600014614a9357601083901b92505b5060001901614a59565b50915091565b6000614ab0826020615e9e565b614abb906008615e5e565b60ff16614ac98585856144f4565b901c949350505050565b60006001600160401b038211156147fc5760405162461bcd60e51b815260206004820152602660248201527f53616665436173743a2076616c756520646f65736e27742066697420696e203660448201526534206269747360d01b60648201526084016106d3565b60606000614b6f614b6a82614b5c601887901c6001600160601b0316614d9b565b62ffffff1987169190614aa3565b6149f7565b6040517f4e6f6e2d6d696e696d616c2076617220696e742e20476f74203078000000000060208201526dffffffffffffffffffffffffffff19607083901b16603b82015290925060009150604d0161422a565b6000614bd78260181c6001600160601b031690565b614bea8360781c6001600160601b031690565b614bf49190615dfd565b6001600160601b031692915050565b60606000614c10866149f7565b9150506000614c1e866149f7565b9150506000614c2c866149f7565b9150506000614c3a866149f7565b604080517f54797065644d656d566965772f696e646578202d204f76657272616e20746865602082015274040ecd2caee5c40a6d8d2c6ca40d2e640c2e84060f605b1b818301526001600160d01b031960d098891b811660558301526e040eed2e8d040d8cadccee8d04060f608b1b605b830181905297891b8116606a8301527f2e20417474656d7074656420746f20696e646578206174206f666673657420306070830152600f60fb1b609083015295881b861660918201526097810196909652951b90921660a68401525050601760f91b60ac8201528151808203608d01815260ad90910190915295945050505050565b6000614d398260d81c90565b64ffffffffff1664ffffffffff1415614d5457506000611a9c565b6000614d5f83614bc2565b60405110199392505050565b6000614d7d60048360ff16901c614dfc565b60ff161760081b62ffff0016614d9282614dfc565b60ff1617919050565b600060ff8211156147fc5760405162461bcd60e51b815260206004820152602560248201527f53616665436173743a2076616c756520646f65736e27742066697420696e2038604482015264206269747360d81b60648201526084016106d3565b600060f08083179060ff82161415614e18576030915050611a9c565b8060ff1660f11415614e2e576031915050611a9c565b8060ff1660f21415614e44576032915050611a9c565b8060ff1660f31415614e5a576033915050611a9c565b8060ff1660f41415614e70576034915050611a9c565b8060ff1660f51415614e86576035915050611a9c565b8060ff1660f61415614e9c576036915050611a9c565b8060ff1660f71415614eb2576037915050611a9c565b8060ff1660f81415614ec8576038915050611a9c565b8060ff1660f91415614ede576039915050611a9c565b8060ff1660fa1415614ef4576061915050611a9c565b8060ff1660fb1415614f0a576062915050611a9c565b8060ff1660fc1415614f20576063915050611a9c565b8060ff1660fd1415614f36576064915050611a9c565b8060ff1660fe1415614f4c576065915050611a9c565b8060ff1660ff1415614f62576066915050611a9c565b50919050565b828054614f7490615ef1565b90600052602060002090601f016020900481019282614f965760008555614fdc565b82601f10614faf57805160ff1916838001178555614fdc565b82800160010185558215614fdc579182015b82811115614fdc578251825591602001919060010190614fc1565b506147fc9291505b808211156147fc5760008155600101614fe4565b8035611a9c81615f6d565b60008083601f840112615014578182fd5b5081356001600160401b0381111561502a578182fd5b602083019150836020808302850101111561504457600080fd5b9250929050565b600082601f83011261505b578081fd5b8135602061507061506b83615d72565b615d42565b828152818101908583018385028701840188101561508c578586fd5b855b858110156150b15761509f82615123565b8452928401929084019060010161508e565b5090979650505050505050565b600082601f8301126150ce578081fd5b813560206150de61506b83615d72565b82815281810190858301838502870184018810156150fa578586fd5b855b858110156150b1578135845292840192908401906001016150fc565b8035611a9c81615f82565b80356001600160e01b031981168114611a9c57600080fd5b60008083601f84011261514c578182fd5b5081356001600160401b03811115615162578182fd5b60208301915083602082850101111561504457600080fd5b600082601f83011261518a578081fd5b81356001600160401b038111156151a3576151a3615f57565b6151b6601f8201601f1916602001615d42565b8181528460208386010111156151ca578283fd5b816020850160208301379081016020019190915292915050565b803560068110611a9c57600080fd5b600060208284031215615204578081fd5b81356136fb81615f6d565b600060208284031215615220578081fd5b81516136fb81615f6d565b60008060008060008060008060008060006101008c8e03121561524c578687fd5b6152558c614ff8565b9a506001600160401b038060208e0135111561526f578788fd5b61527f8e60208f01358f01615003565b909b50995061529060408e01615118565b98508060608e013511156152a2578788fd5b6152b28e60608f01358f01615003565b909850965060808d0135955060a08d01358110156152ce578485fd5b6152de8e60a08f01358f0161517a565b94506152ec60c08e016151e4565b93508060e08e013511156152fe578283fd5b5061530f8d60e08e01358e0161513b565b81935080925050509295989b509295989b9093969950565b60008060408385031215615339578182fd5b823561534481615f6d565b946020939093013593505050565b600060208284031215615363578081fd5b81516136fb81615f82565b60008060408385031215615380578182fd5b825161538b81615f82565b809250506020808401516001600160401b038111156153a8578283fd5b8401601f810186136153b8578283fd5b80516153c661506b82615d72565b81815283810190838501858402850186018a10156153e2578687fd5b8694505b838510156154045780518352600194909401939185019185016153e6565b5080955050505050509250929050565b600060208284031215615425578081fd5b5035919050565b60006020828403121561543d578081fd5b5051919050565b6000806000806000806000806000806101408b8d031215615463578384fd5b61546c8b615123565b995060208b01356001600160401b0380821115615487578586fd5b6154938e838f0161517a565b9a5060408d01359150808211156154a8578586fd5b6154b48e838f0161517a565b99506154c260608e01615123565b985060808d0135975060a08d01359150808211156154de578586fd5b6154ea8e838f0161517a565b965060c08d0135955060e08d0135915080821115615506578485fd5b6155128e838f0161517a565b94506101008d0135915080821115615528578384fd5b6155348e838f016150be565b93506101208d013591508082111561554a578283fd5b506155578d828e016150be565b9150509295989b9194979a5092959850565b60008060006040848603121561557d578081fd5b83356001600160401b0380821115615593578283fd5b61559f8783880161513b565b909550935060208601359150808211156155b7578283fd5b506155c4868287016150be565b9150509250925092565b60008060008060008060008060006101208a8c0312156155ec578283fd5b89356001600160401b0380821115615602578485fd5b61560e8d838e0161517a565b9a5060208c0135915080821115615623578485fd5b61562f8d838e0161504b565b995060408c0135915080821115615644578485fd5b6156508d838e0161517a565b985060608c0135915080821115615665578485fd5b6156718d838e0161517a565b975060808c0135915080821115615686578485fd5b6156928d838e0161517a565b965060a08c01359150808211156156a7578485fd5b6156b38d838e0161517a565b955060c08c01359150808211156156c8578485fd5b6156d48d838e0161504b565b945060e08c01359150808211156156e9578384fd5b6156f58d838e0161517a565b93506101008c013591508082111561570b578283fd5b506157188c828d016150be565b9150509295985092959850929598565b60008060008060008060008060006101208a8c031215615746578283fd5b8935985060208a013561575881615f6d565b975060408a013561576881615f6d565b965060608a013561577881615f6d565b955060808a013561578881615f6d565b989b979a50959894979660a0860135965060c08601359560e0810135955061010001359350915050565b6000806000806000608086880312156157c9578283fd5b8535945060208601356001600160401b03808211156157e6578485fd5b6157f289838a0161517a565b9550615800604089016151e4565b94506060880135915080821115615815578283fd5b506158228882890161513b565b969995985093965092949392505050565b6000815180845260208085019450808401835b8381101561586c5781516001600160e01b03191687529582019590820190600101615846565b509495945050505050565b60008284528282602086013780602084860101526020601f19601f85011685010190509392505050565b600081518084526158b9816020860160208601615ec1565b601f01601f19169290920160200192915050565b600681106158eb57634e487b7160e01b600052602160045260246000fd5b9052565b600063ffffffff60e01b80871683528551615911816004860160208a01615ec1565b855190840190615928816004840160208a01615ec1565b919094169301600481019390935250506008019392505050565b60008251615954818460208701615ec1565b9190910192915050565b600060018060a01b038716825285602083015284604083015260a0606083015261598b60a08301856158a1565b90508260808301529695505050505050565b6001600160a01b038616815260a0602082018190526000906159c1908301876158a1565b604083019590955250606081019290925260809091015292915050565b600060208252612bea602083018486615877565b600060408252615a06604083018587615877565b9050826020830152949350505050565b6000602082526136fb60208301846158a1565b6000610100808352615a3d8184018c6158a1565b915050615a4d602083018a6158cd565b60408201979097526001600160a01b039586166060820152608081019490945260a084019290925290921660c082015260e0015292915050565b60006101208b835260208b8185015260018060a01b038b1660408501528960608501528860808501528160a0850152615ac282850189615833565b915083820360c0850152615ad68288615833565b915083820360e0850152615aea82876158a1565b8481036101008601528551808252828701935090820190845b81811015615b1f57845183529383019391830191600101615b03565b50909e9d5050505050505050505050505050565b600086825285602083015260a06040830152615b5260a08301866158a1565b8281036060840152615b6481866158a1565b9150508260808301529695505050505050565b60208082526018908201527f4275726e526f757465723a207a65726f20616464726573730000000000000000604082015260600190565b6020808252601b908201527f426974636f696e48656c7065723a20766f7574206973206e756c6c0000000000604082015260600190565b602080825260169082015275213ab9372937baba32b91d103737ba103637b1b5b2b960511b604082015260600190565b6020808252602b908201527f496e697469616c697a61626c653a20636f6e7472616374206973206e6f74206960408201526a6e697469616c697a696e6760a81b606082015260800190565b888152602081018890526001600160a01b038716604082015261010060608201819052600090615c92838201896158a1565b91505085608083015284151560a0830152615cb060c08301856158cd565b8260e08301529998505050505050505050565b878152602080820188905260c0604083018190528201869052600090879060e08401835b89811015615d15578335615cfa81615f6d565b6001600160a01b031682529282019290820190600101615ce7565b506001600160a01b039790971660608501525050506080810192909252151560a090910152949350505050565b604051601f8201601f191681016001600160401b0381118282101715615d6a57615d6a615f57565b604052919050565b60006001600160401b03821115615d8b57615d8b615f57565b5060209081020190565b60008219821115615da857615da8615f41565b500190565b60006001600160401b03808316818516808303821115615dcf57615dcf615f41565b01949350505050565b600060ff821660ff84168060ff03821115615df557615df5615f41565b019392505050565b60006001600160601b03808316818516808303821115615dcf57615dcf615f41565b600082615e3a57634e487b7160e01b81526012600452602481fd5b500490565b6000816000190483118215151615615e5957615e59615f41565b500290565b600060ff821660ff84168160ff0481118215151615615e7f57615e7f615f41565b029392505050565b600082821015615e9957615e99615f41565b500390565b600060ff821660ff841680821015615eb857615eb8615f41565b90039392505050565b60005b83811015615edc578181015183820152602001615ec4565b83811115615eeb576000848401525b50505050565b600281046001821680615f0557607f821691505b60208210811415614f6257634e487b7160e01b600052602260045260246000fd5b6000600019821415615f3a57615f3a615f41565b5060010190565b634e487b7160e01b600052601160045260246000fd5b634e487b7160e01b600052604160045260246000fd5b6001600160a01b03811681146107dd57600080fd5b80151581146107dd57600080fdfea2646970667358221220afe6c90655a1cd6ba9d3cc7e40450f2ee2557c833b717c5f77c85ac57d1c57b864736f6c63430008020033",
  "deployedBytecode": "0x6080604052600436106101f25760003560e01c80637ffe9a921161010d578063bed6a602116100a0578063cdbe37411161006f578063cdbe37411461058c578063ea732637146105ac578063f0f44260146105bf578063f2fde38b146105df578063f47e2240146105ff576101f9565b8063bed6a60214610523578063c19e86e714610539578063c780c03f14610559578063c805f68b1461056c576101f9565b8063930a60e8116100dc578063930a60e8146104a0578063b14d3532146104cd578063b59589d1146104ed578063b74d0d351461050d576101f9565b80637ffe9a92146104225780638d3d78cd146104425780638d774f8e146104625780638da5cb5b14610482576101f9565b806350a0583611610185578063715018a611610154578063715018a6146103ad57806373532b2a146103c25780637ed55748146103e25780637f0f181714610402576101f9565b806350a05836146103375780635c4f5f3e1461035757806361d027b31461037757806370872aa514610397576101f9565b80631e7107c7116101c15780631e7107c7146102c1578063419cba7f146102e157806343149dba146102f75780634782bc3614610317576101f9565b80631812adb6146101fe5780631876dec4146102275780631d9278981461025f5780631e23616814610281576101f9565b366101f957005b600080fd5b34801561020a57600080fd5b5061021460075481565b6040519081526020015b60405180910390f35b34801561023357600080fd5b50600154610247906001600160a01b031681565b6040516001600160a01b03909116815260200161021e565b34801561026b57600080fd5b5061027f61027a366004615728565b610633565b005b34801561028d57600080fd5b506102b161029c366004615414565b600c6020526000908152604090205460ff1681565b604051901515815260200161021e565b3480156102cd57600080fd5b5061027f6102dc366004615414565b6107cc565b3480156102ed57600080fd5b5061021460085481565b34801561030357600080fd5b506102146103123660046157b2565b6107e0565b34801561032357600080fd5b5061027f610332366004615414565b610a30565b34801561034357600080fd5b50600454610247906001600160a01b031681565b34801561036357600080fd5b5061027f610372366004615414565b610a41565b34801561038357600080fd5b50600354610247906001600160a01b031681565b3480156103a357600080fd5b5061021460055481565b3480156103b957600080fd5b5061027f610a4a565b3480156103ce57600080fd5b5061027f6103dd366004615569565b610a54565b3480156103ee57600080fd5b5061027f6103fd366004615414565b611077565b34801561040e57600080fd5b5061027f61041d3660046151f3565b611088565b34801561042e57600080fd5b506102b161043d366004615327565b611099565b34801561044e57600080fd5b50600254610247906001600160a01b031681565b34801561046e57600080fd5b5061021461047d36600461522b565b6110f1565b34801561048e57600080fd5b506040546001600160a01b0316610247565b3480156104ac57600080fd5b506102146104bb3660046151f3565b600b6020526000908152604090205481565b3480156104d957600080fd5b5061027f6104e83660046151f3565b611195565b3480156104f957600080fd5b50600054610247906001600160a01b031681565b34801561051957600080fd5b5061021460095481565b34801561052f57600080fd5b5061021460065481565b34801561054557600080fd5b5061027f6105543660046151f3565b6111a6565b61027f6105673660046155ce565b6111b7565b34801561057857600080fd5b5061027f6105873660046151f3565b6114d9565b34801561059857600080fd5b5061027f6105a7366004615414565b6114ea565b6102b16105ba366004615444565b61154c565b3480156105cb57600080fd5b5061027f6105da3660046151f3565b61190a565b3480156105eb57600080fd5b5061027f6105fa3660046151f3565b61191b565b34801561060b57600080fd5b5061061f61061a366004615327565b611991565b60405161021e989796959493929190615c60565b600d54610100900460ff16158080156106535750600d54600160ff909116105b80610674575061066230611a8e565b1580156106745750600d5460ff166001145b6106dc5760405162461bcd60e51b815260206004820152602e60248201527f496e697469616c697a61626c653a20636f6e747261637420697320616c72656160448201526d191e481a5b9a5d1a585b1a5e995960921b60648201526084015b60405180910390fd5b600d805460ff1916600117905580156106ff57600d805461ff0019166101001790555b610707611aa1565b61070f611ad0565b6107188a611aff565b61072189611b61565b61072a88611bf2565b61073387611c83565b61073c86611d14565b61074585611da5565b61074e84611f3e565b61075783611fd1565b61076082612064565b61077a6107756040546001600160a01b031690565b6120a5565b80156107c057600d805461ff0019169055604051600181527f7f26b83ff96e1f2b6a682f133852f6798a09c465da95921460cefb38474024989060200160405180910390a15b50505050505050505050565b6107d461210e565b6107dd81611aff565b50565b60006107ea612168565b6002546001600160a01b03166323b872dd336040516001600160e01b031960e084901b1681526001600160a01b03909116600482015230602482015260448101899052606401602060405180830381600087803b15801561084a57600080fd5b505af115801561085e573d6000803e3d6000fd5b505050506040513d601f19601f820116820180604052508101906108829190615352565b6108ce5760405162461bcd60e51b815260206004820152601f60248201527f4275726e526f757465723a207472616e7366657246726f6d206661696c65640060448201526064016106d3565b6000806108de88888888886121c2565b6001600160a01b0381166000908152600a6020526040902080549294509092509061090b90600190615e87565b8154811061092957634e487b7160e01b600052603260045260246000fd5b9060005260206000209060070201600401546109423390565b6001600160a01b03167fc19dabf19fdfd8c6124bed2178a4564d0c5d5812bfb916777cc90d1b53ed5a5a89896000808e8989600a60008c6001600160a01b03166001600160a01b031681526020019081526020016000206001600a60008e6001600160a01b03166001600160a01b03168152602001908152602001600020805490506109ce9190615e87565b815481106109ec57634e487b7160e01b600052603260045260246000fd5b906000526020600020906007020160060154604051610a12989796959493929190615a29565b60405180910390a3509050610a276001607255565b95945050505050565b610a3861210e565b6107dd81611fd1565b6107dd81611da5565b610a5261210e565b565b610a5c612168565b610a6461210e565b60015460405163aff2faa360e01b81526001600160a01b039091169063aff2faa390610a9690869086906004016159de565b60206040518083038186803b158015610aae57600080fd5b505afa158015610ac2573d6000803e3d6000fd5b505050506040513d601f19601f82011682018060405250810190610ae69190615352565b610b025760405162461bcd60e51b81526004016106d390615be5565b60015460405163626885b560e11b81526000916001600160a01b03169063c4d10b6a90610b3590879087906004016159de565b60206040518083038186803b158015610b4d57600080fd5b505afa158015610b61573d6000803e3d6000fd5b505050506040513d601f19601f82011682018060405250810190610b85919061520f565b905060005b82518110156110665773__$b2d4c044db363f4bd023a450a1a4a26d98$__6352335c02600a84868581518110610bd057634e487b7160e01b600052603260045260246000fd5b60209081029190910101516000546040516310889dc360e01b81526001600160a01b03909116600482015273__$b2d4c044db363f4bd023a450a1a4a26d98$__906310889dc39060240160206040518083038186803b158015610c3257600080fd5b505af4158015610c46573d6000803e3d6000fd5b505050506040513d601f19601f82011682018060405250810190610c6a919061542c565b6006546005546040516001600160e01b031960e089901b16815260048101969096526001600160a01b03909416602486015260448501929092526064840152608483015260a482015260c40160006040518083038186803b158015610cce57600080fd5b505af4158015610ce2573d6000803e3d6000fd5b50506001546008546001600160a01b038681166000908152600a602052604090208851919093169450631697565b935086926127109291899088908110610d3957634e487b7160e01b600052603260045260246000fd5b602002602001015181548110610d5f57634e487b7160e01b600052603260045260246000fd5b906000526020600020906007020160000154610d7b9190615e3f565b610d859190615e1f565b336001600160a01b0387166000908152600a602052604090208851899088908110610dc057634e487b7160e01b600052603260045260246000fd5b602002602001015181548110610de657634e487b7160e01b600052603260045260246000fd5b906000526020600020906007020160000154600a6000896001600160a01b03166001600160a01b03168152602001908152602001600020898881518110610e3d57634e487b7160e01b600052603260045260246000fd5b602002602001015181548110610e6357634e487b7160e01b600052603260045260246000fd5b600091825260209091206007909102016002015460405160e087901b6001600160e01b03191681526001600160a01b03958616600482015260248101949094529184166044840152606483015291909116608482015260a401602060405180830381600087803b158015610ed657600080fd5b505af1158015610eea573d6000803e3d6000fd5b505050506040513d601f19601f82011682018060405250810190610f0e9190615352565b506001600160a01b0382166000818152600a602052604090208451859084908110610f4957634e487b7160e01b600052603260045260246000fd5b602002602001015181548110610f6f57634e487b7160e01b600052603260045260246000fd5b906000526020600020906007020160020160009054906101000a90046001600160a01b03166001600160a01b03167f58c23b4ae0617be275628875bcfd65759a441263099a256eeb27899fb5dd846d8787600a6000886001600160a01b03166001600160a01b0316815260200190815260200160002088878151811061100557634e487b7160e01b600052603260045260246000fd5b60200260200101518154811061102b57634e487b7160e01b600052603260045260246000fd5b90600052602060002090600702016006015460405161104c939291906159f2565b60405180910390a38061105e81615f26565b915050610b8a565b50506110726001607255565b505050565b61107f61210e565b6107dd81611f3e565b61109061210e565b6107dd81611d14565b6001600160a01b0382166000908152600a602052604081208054839081106110d157634e487b7160e01b600052603260045260246000fd5b600091825260209091206005600790920201015460ff1690505b92915050565b60006110fb612168565b600061110c8d8d8d8d8d8d8d6124e6565b90506111798c8c600081811061113257634e487b7160e01b600052603260045260246000fd5b905060200201358a8a600081811061115a57634e487b7160e01b600052603260045260246000fd5b905060200201602081019061116f91906151f3565b8389898989612933565b9150506111866001607255565b9b9a5050505050505050505050565b61119d61210e565b6107dd81611bf2565b6111ae61210e565b6107dd816120a5565b6111bf612168565b6111c761210e565b60015460405163aff2faa360e01b81526001600160a01b039091169063aff2faa3906111f7908c90600401615a16565b60206040518083038186803b15801561120f57600080fd5b505afa158015611223573d6000803e3d6000fd5b505050506040513d601f19601f820116820180604052508101906112479190615352565b6112635760405162461bcd60e51b81526004016106d390615be5565b60006112c18960008151811061128957634e487b7160e01b600052603260045260246000fd5b60200260200101518989876000815181106112b457634e487b7160e01b600052603260045260246000fd5b6020026020010151612a8d565b905073__$b2d4c044db363f4bd023a450a1a4a26d98$__63e87c5882600c60065460008054906101000a90046001600160a01b0316600554868f8b8b8b6040518a63ffffffff1660e01b815260040161132299989796959493929190615a87565b60006040518083038186803b15801561133a57600080fd5b505af415801561134e573d6000803e3d6000fd5b505050506000806113878a8560008151811061137a57634e487b7160e01b600052603260045260246000fd5b6020026020010151612bf2565b915091506113da8b6001815181106113af57634e487b7160e01b600052603260045260246000fd5b60200260200101518989896001815181106112b457634e487b7160e01b600052603260045260246000fd5b82146114285760405162461bcd60e51b815260206004820152601b60248201527f4275726e526f757465723a2077726f6e67206f7574707574207478000000000060448201526064016106d3565b8b5160208d01206114398883612c9b565b805190602001201461148d5760405162461bcd60e51b815260206004820152601a60248201527f4275726e526f757465723a206e6f7420666f72206c6f636b657200000000000060448201526064016106d3565b6114c1898d85876002815181106114b457634e487b7160e01b600052603260045260246000fd5b6020026020010151612d0d565b5050506114ce6001607255565b505050505050505050565b6114e161210e565b6107dd81611b61565b60045433906001600160a01b0316811461153f5760405162461bcd60e51b81526020600482015260166024820152754275726e526f757465723a206e6f74206f7261636c6560501b60448201526064016106d3565b61154882612064565b5050565b6000611556612168565b6005548710156115a85760405162461bcd60e51b815260206004820152601760248201527f4275726e526f757465723a206f6c64207265717565737400000000000000000060448201526064016106d3565b6001600160e01b03198816156116005760405162461bcd60e51b815260206004820152601e60248201527f4275726e526f757465723a206e6f6e2d7a65726f206c6f636b2074696d65000060448201526064016106d3565b60015460405163aff2faa360e01b81526001600160a01b039091169063aff2faa390611630908790600401615a16565b60206040518083038186803b15801561164857600080fd5b505afa15801561165c573d6000803e3d6000fd5b505050506040513d601f19601f820116820180604052508101906116809190615352565b61169c5760405162461bcd60e51b81526004016106d390615be5565b81518351146116ed5760405162461bcd60e51b815260206004820152601960248201527f4275726e526f757465723a2077726f6e6720696e64657865730000000000000060448201526064016106d3565b60006116fb8c8c8c8c612a8d565b600054604051637ebc232760e01b815291925073__$b2d4c044db363f4bd023a450a1a4a26d98$__91637ebc23279161174a916001600160a01b039091169085908d908d908d9060040161595e565b60206040518083038186803b15801561176257600080fd5b505af4158015611776573d6000803e3d6000fd5b505050506040513d601f19601f8201168201806040525081019061179a9190615352565b6117e65760405162461bcd60e51b815260206004820152601960248201527f4275726e526f757465723a206e6f742066696e616c697a65640000000000000060448201526064016106d3565b60015460405163626885b560e11b81526000916001600160a01b03169063c4d10b6a90611817908990600401615a16565b60206040518083038186803b15801561182f57600080fd5b505afa158015611843573d6000803e3d6000fd5b505050506040513d601f19601f82011682018060405250810190611867919061520f565b90506000611879838b848f8a8a612ed9565b905073__$b2d4c044db363f4bd023a450a1a4a26d98$__63191e28dc600c838f8b886040518663ffffffff1660e01b81526004016118bb959493929190615b33565b60006040518083038186803b1580156118d357600080fd5b505af41580156118e7573d6000803e3d6000fd5b50505050600193505050506118fc6001607255565b9a9950505050505050505050565b61191261210e565b6107dd81611c83565b61192361210e565b6001600160a01b0381166119885760405162461bcd60e51b815260206004820152602660248201527f4f776e61626c653a206e6577206f776e657220697320746865207a65726f206160448201526564647265737360d01b60648201526084016106d3565b6107dd816133c9565b600a60205281600052604060002081815481106119ad57600080fd5b600091825260209091206007909102018054600182015460028301546003840180549396509194506001600160a01b031692916119e990615ef1565b80601f0160208091040260200160405190810160405280929190818152602001828054611a1590615ef1565b8015611a625780601f10611a3757610100808354040283529160200191611a62565b820191906000526020600020905b815481529060010190602001808311611a4557829003601f168201915b505050600484015460058501546006909501549394909360ff8083169450610100909204909116915088565b6001600160a01b0381163b15155b919050565b600d54610100900460ff16611ac85760405162461bcd60e51b81526004016106d390615c15565b610a52613419565b600d54610100900460ff16611af75760405162461bcd60e51b81526004016106d390615c15565b610a52613449565b6005548111611b5c5760405162461bcd60e51b815260206004820152602360248201527f4275726e526f757465723a206c6f77207374617274696e67426c6f636b4e756d6044820152623132b960e91b60648201526084016106d3565b600555565b806001600160a01b038116611b885760405162461bcd60e51b81526004016106d390615b77565b600054604080516001600160a01b03928316815291841660208301527f4c28a3f61a715259c4dc930c23e7423b8fa52e13232c061a6e488729c66184f4910160405180910390a150600080546001600160a01b0319166001600160a01b0392909216919091179055565b806001600160a01b038116611c195760405162461bcd60e51b81526004016106d390615b77565b600154604080516001600160a01b03928316815291841660208301527ffa021c2ec0f46429a53e7f88b88065e40001f50c9d38b2e8b713beaf9828d4c3910160405180910390a150600180546001600160a01b0319166001600160a01b0392909216919091179055565b806001600160a01b038116611caa5760405162461bcd60e51b81526004016106d390615b77565b600354604080516001600160a01b03928316815291841660208301527f567657fa3f286518b318f4a29870674f433f622fdfc819691acb13105b228225910160405180910390a150600380546001600160a01b0319166001600160a01b0392909216919091179055565b806001600160a01b038116611d3b5760405162461bcd60e51b81526004016106d390615b77565b600254604080516001600160a01b03928316815291841660208301527f36a4c08a38b736dcecb6c328dba61238529620e83ccb23db2cc43cd34ec26096910160405180910390a150600280546001600160a01b0319166001600160a01b0392909216919091179055565b600080546040516353bcd1c960e11b81526001600160a01b03909116600482015273__$b2d4c044db363f4bd023a450a1a4a26d98$__9063a779a3929060240160206040518083038186803b158015611dfd57600080fd5b505af4158015611e11573d6000803e3d6000fd5b505050506040513d601f19601f82011682018060405250810190611e35919061542c565b9050611e496040546001600160a01b031690565b6001600160a01b0316336001600160a01b03161480611e69575080600654105b611ead5760405162461bcd60e51b8152602060048201526015602482015274109d5c9b949bdd5d195c8e881b9bc81c195c9b5a5d605a1b60448201526064016106d3565b808211611efc5760405162461bcd60e51b815260206004820152601860248201527f4275726e526f757465723a206c6f7720646561646c696e65000000000000000060448201526064016106d3565b60065460408051918252602082018490527f92c10a242ca42973030420e2ee32b3ba7818cc643f896958f620c606cf300416910160405180910390a150600655565b806127101015611f905760405162461bcd60e51b815260206004820152601760248201527f4275726e526f757465723a20696e76616c69642066656500000000000000000060448201526064016106d3565b60075460408051918252602082018390527f7d205f60891f60851c61cd244ba387d72b6589e7c0ac41b9d909ab0ce2c2a53b910160405180910390a1600755565b8061271010156120235760405162461bcd60e51b815260206004820152601a60248201527f4275726e526f757465723a20696e76616c69642072657761726400000000000060448201526064016106d3565b60085460408051918252602082018390527faa50b3683e42a13535a5b9c2c32780cccf956fb546b523a3542ac4ad8b544f67910160405180910390a1600855565b60095460408051918252602082018390527f47c5f9c13c35ebb166f6a8d8c56af73f8b323ac0fee7aec4a5e0490bbf67a4fe910160405180910390a1600955565b600454604080516001600160a01b03928316815291831660208301527ff68296962c28bcee9d0e2e78c34b1ed65997ff5ce894f72e9165fbc75b937600910160405180910390a1600480546001600160a01b0319166001600160a01b0392909216919091179055565b6040546001600160a01b03163314610a525760405162461bcd60e51b815260206004820181905260248201527f4f776e61626c653a2063616c6c6572206973206e6f7420746865206f776e657260448201526064016106d3565b600260725414156121bb5760405162461bcd60e51b815260206004820152601f60248201527f5265656e7472616e637947756172643a207265656e7472616e742063616c6c0060448201526064016106d3565b6002607255565b6000806121cf8686613470565b60015460405163aff2faa360e01b81526001600160a01b039091169063aff2faa39061220190879087906004016159de565b60206040518083038186803b15801561221957600080fd5b505afa15801561222d573d6000803e3d6000fd5b505050506040513d601f19601f820116820180604052508101906122519190615352565b61226d5760405162461bcd60e51b81526004016106d390615be5565b60015460405163626885b560e11b81526001600160a01b039091169063c4d10b6a9061229f90879087906004016159de565b60206040518083038186803b1580156122b757600080fd5b505afa1580156122cb573d6000803e3d6000fd5b505050506040513d601f19601f820116820180604052508101906122ef919061520f565b905060006122fc88613593565b60025460015460405163095ea7b360e01b81526001600160a01b03918216600482015260248101849052929350169063095ea7b390604401602060405180830381600087803b15801561234e57600080fd5b505af1158015612362573d6000803e3d6000fd5b505050506040513d601f19601f820116820180604052508101906123869190615352565b5080600954826123969190615e87565b6001546040516338463cff60e01b81526001600160a01b03909116906338463cff906123ca908a908a9088906004016159f2565b602060405180830381600087803b1580156123e457600080fd5b505af11580156123f8573d6000803e3d6000fd5b505050506040513d601f19601f8201168201806040525081019061241c919061542c565b6124269190615e3f565b6124309190615e1f565b6000546040516310889dc360e01b81526001600160a01b0390911660048201529093506124d490899085908a908a9073__$b2d4c044db363f4bd023a450a1a4a26d98$__906310889dc39060240160206040518083038186803b15801561249657600080fd5b505af41580156124aa573d6000803e3d6000fd5b505050506040513d601f19601f820116820180604052508101906124ce919061542c565b87613702565b509550959350505050565b6001607255565b6002546000906001600160a01b03168484612502600182615e87565b81811061251f57634e487b7160e01b600052603260045260246000fd5b905060200201602081019061253491906151f3565b6001600160a01b03161461258a5760405162461bcd60e51b815260206004820152601860248201527f4275726e526f757465723a20696e76616c69642070617468000000000000000060448201526064016106d3565b600286146125da5760405162461bcd60e51b815260206004820152601960248201527f4275726e526f757465723a2077726f6e6720616d6f756e74730000000000000060448201526064016106d3565b838360008181106125fb57634e487b7160e01b600052603260045260246000fd5b905060200201602081019061261091906151f3565b6001600160a01b03166323b872dd33308a8a600081811061264157634e487b7160e01b600052603260045260246000fd5b6040516001600160e01b031960e088901b1681526001600160a01b03958616600482015294909316602485015250602090910201356044820152606401602060405180830381600087803b15801561269857600080fd5b505af11580156126ac573d6000803e3d6000fd5b505050506040513d601f19601f820116820180604052508101906126d09190615352565b50838360008181106126f257634e487b7160e01b600052603260045260246000fd5b905060200201602081019061270791906151f3565b6001600160a01b031663095ea7b3898989600081811061273757634e487b7160e01b600052603260045260246000fd5b6040516001600160e01b031960e087901b1681526001600160a01b0390941660048501526020029190910135602483015250604401602060405180830381600087803b15801561278657600080fd5b505af115801561279a573d6000803e3d6000fd5b505050506040513d601f19601f820116820180604052508101906127be9190615352565b50600080896001600160a01b031663b0bbcd888a8a60008181106127f257634e487b7160e01b600052603260045260246000fd5b905060200201358b8b600181811061281a57634e487b7160e01b600052603260045260246000fd5b905060200201358989308a8e6040518863ffffffff1660e01b81526004016128489796959493929190615cc3565b600060405180830381600087803b15801561286257600080fd5b505af1158015612876573d6000803e3d6000fd5b505050506040513d6000823e601f3d908101601f1916820160405261289e919081019061536e565b91509150816128ef5760405162461bcd60e51b815260206004820152601b60248201527f4275726e526f757465723a2065786368616e6765206661696c6564000000000060448201526064016106d3565b80600182516128fe9190615e87565b8151811061291c57634e487b7160e01b600052603260045260246000fd5b602002602001015192505050979650505050505050565b600080600061294588888888886121c2565b6001600160a01b0381166000908152600a6020526040902080549294509092509061297290600190615e87565b8154811061299057634e487b7160e01b600052603260045260246000fd5b9060005260206000209060070201600401546129a93390565b6001600160a01b03167fc19dabf19fdfd8c6124bed2178a4564d0c5d5812bfb916777cc90d1b53ed5a5a89898e8e8e8989600a60008c6001600160a01b03166001600160a01b031681526020019081526020016000206001600a60008e6001600160a01b03166001600160a01b0316815260200190815260200160002080549050612a349190615e87565b81548110612a5257634e487b7160e01b600052603260045260246000fd5b906000526020600020906007020160060154604051612a78989796959493929190615a29565b60405180910390a35098975050505050505050565b600080612aa4612a9f825b87906138c8565b6138e3565b905062ffffff198082161415612afc5760405162461bcd60e51b815260206004820152601a60248201527f426974636f696e48656c7065723a2076696e206973206e756c6c00000000000060448201526064016106d3565b6000600287878787604051602001612b1794939291906158ef565b60408051601f1981840301815290829052612b3191615942565b602060405180830381855afa158015612b4e573d6000803e3d6000fd5b5050506040513d601f19601f82011682018060405250810190612b71919061542c565b90506000600282604051602001612b8a91815260200190565b60408051601f1981840301815290829052612ba491615942565b602060405180830381855afa158015612bc1573d6000803e3d6000fd5b5050506040513d601f19601f82011682018060405250810190612be4919061542c565b93505050505b949350505050565b60008080612c02612a9f82612a98565b905062ffffff198082161415612c5a5760405162461bcd60e51b815260206004820152601a60248201527f426974636f696e48656c7065723a2076696e206973206e756c6c00000000000060448201526064016106d3565b6000612c668286613a19565b90506000612c7382613b37565b9050612c7e81613b5b565b9450612c8981613b7d565b63ffffffff1693505050509250929050565b60606000612cb1612cac85836138c8565b613ba7565b905062ffffff198082161415612cd95760405162461bcd60e51b81526004016106d390615bae565b6000612ce58285613c98565b90506000612cf282613d92565b9050612d0362ffffff198216613de3565b9695505050505050565b6000612d1885613e33565b60015460405163626885b560e11b81526001600160401b039290921692506000916001600160a01b039091169063c4d10b6a90612d59908890600401615a16565b60206040518083038186803b158015612d7157600080fd5b505afa158015612d85573d6000803e3d6000fd5b505050506040513d601f19601f82011682018060405250810190612da9919061520f565b6001546008549192506001600160a01b03169063b734de2690839061271090612dd29087615e3f565b612ddc9190615e1f565b3360405160e085901b6001600160e01b03191681526001600160a01b0393841660048201526024810192909252909116604482015260648101859052608401602060405180830381600087803b158015612e3557600080fd5b505af1158015612e49573d6000803e3d6000fd5b505050506040513d601f19601f82011682018060405250810190612e6d9190615352565b507f7ff138134e34ccab071315c38e38eec079f54726b890304ab46e2c5ab6f722bb8186858761271060085488612ea49190615e3f565b612eae9190615e1f565b612eb89088615d95565b604051612ec995949392919061599d565b60405180910390a1505050505050565b60008080805b85518110156133bc5780612f1c57848181518110612f0d57634e487b7160e01b600052603260045260246000fd5b60200260200101519150612fc8565b81858281518110612f3d57634e487b7160e01b600052603260045260246000fd5b602002602001015111612f9d5760405162461bcd60e51b815260206004820152602260248201527f4275726e526f757465723a20756e2d736f7274656420766f757420696e646578604482015261657360f01b60648201526084016106d3565b848181518110612fbd57634e487b7160e01b600052603260045260246000fd5b602002602001015191505b6000868281518110612fea57634e487b7160e01b600052603260045260246000fd5b60200260200101519050600a60008a6001600160a01b03166001600160a01b03168152602001908152602001600020818154811061303857634e487b7160e01b600052603260045260246000fd5b600091825260209091206005600790920201015460ff161580156130a757506001600160a01b0389166000908152600a6020526040902080548b91908390811061309257634e487b7160e01b600052603260045260246000fd5b90600052602060002090600702016004015410155b156133a957613214888784815181106130d057634e487b7160e01b600052603260045260246000fd5b6020026020010151600a60008d6001600160a01b03166001600160a01b03168152602001908152602001600020848154811061311c57634e487b7160e01b600052603260045260246000fd5b9060005260206000209060070201600301805461313890615ef1565b80601f016020809104026020016040519081016040528092919081815260200182805461316490615ef1565b80156131b15780601f10613186576101008083540402835291602001916131b1565b820191906000526020600020905b81548152906001019060200180831161319457829003601f168201915b5050506001600160a01b038f166000908152600a60205260409020805490925087915081106131f057634e487b7160e01b600052603260045260246000fd5b906000526020600020906007020160050160019054906101000a900460ff16613ecb565b6001600160401b0316935083600a60008b6001600160a01b03166001600160a01b03168152602001908152602001600020828154811061326457634e487b7160e01b600052603260045260246000fd5b90600052602060002090600702016001015414156133a9576001600160a01b0389166000908152600a60205260409020805460019190839081106132b857634e487b7160e01b600052603260045260246000fd5b60009182526020909120600790910201600501805460ff19169115159190911790556132e5856001615d95565b6001600160a01b038a166000818152600a60205260409020805492975090917f1b46655c2f394f2191cb246d5982dbe00ad671f0b590e75e97c90ee97f1f782a91908490811061334557634e487b7160e01b600052603260045260246000fd5b9060005260206000209060070201600601548d89868151811061337857634e487b7160e01b600052603260045260246000fd5b60200260200101516040516133a0939291909283526020830191909152604082015260600190565b60405180910390a25b50806133b481615f26565b915050612edf565b5050509695505050505050565b604080546001600160a01b038381166001600160a01b031983168117845592519116919082907f8be0079c531659141344cd1fd0a4f28419497f9722a3daafe3b4186f6b6457e090600090a35050565b600d54610100900460ff166134405760405162461bcd60e51b81526004016106d390615c15565b610a52336133c9565b600d54610100900460ff166124df5760405162461bcd60e51b81526004016106d390615c15565b600081600581111561349257634e487b7160e01b600052602160045260246000fd5b14806134bd575060048160058111156134bb57634e487b7160e01b600052602160045260246000fd5b145b806134e7575060058160058111156134e557634e487b7160e01b600052602160045260246000fd5b145b1561354257815160201461353d5760405162461bcd60e51b815260206004820152601a60248201527f4275726e526f757465723a20696e76616c69642073637269707400000000000060448201526064016106d3565b611548565b81516014146115485760405162461bcd60e51b815260206004820152601a60248201527f4275726e526f757465723a20696e76616c69642073637269707400000000000060448201526064016106d3565b600080612710600754846135a79190615e3f565b6135b19190615e1f565b905060095460026135c29190615e3f565b6135cc9082615d95565b83116136135760405162461bcd60e51b8152602060048201526016602482015275109d5c9b949bdd5d195c8e881b1bddc8185b5bdd5b9d60521b60448201526064016106d3565b600061361f8285615e87565b905081156136fb5760025460035460405163a9059cbb60e01b81526001600160a01b0391821660048201526024810185905291169063a9059cbb90604401602060405180830381600087803b15801561367757600080fd5b505af115801561368b573d6000803e3d6000fd5b505050506040513d601f19601f820116820180604052508101906136af9190615352565b6136fb5760405162461bcd60e51b815260206004820152601f60248201527f4275726e526f757465723a20666565207472616e73666572206661696c65640060448201526064016106d3565b9392505050565b604080516101008101825260006080820181905260a0820181905260c0820181815260e0830191909152888252602082018890523392820192909252606081018690529084600581111561376657634e487b7160e01b600052602160045260246000fd5b9081600581111561378757634e487b7160e01b600052602160045260246000fd5b9052506006546137979084615d95565b6080820152600060a082018190526001600160a01b038316808252600b6020818152604084205460e08601819052929093529091526137d7906001615d95565b6001600160a01b038381166000908152600b6020908152604080832094909455600a81528382208054600180820183559184529282902086516007909402019283558582015190830155928401516002820180546001600160a01b0319169190931617909155606083015180518493613857926003850192910190614f68565b506080820151600482015560a08201516005808301805460ff19169215159290921780835560c0850151929161ff0019909116906101009084908111156138ae57634e487b7160e01b600052602160045260246000fd5b021790555060e08201518160060155505050505050505050565b815160009060208401610a2764ffffffffff8516828461413e565b600081816138f9815b62ffffff19841690614182565b50601884901c6001600160601b03166139195762ffffff195b9250613a12565b600061392685600061425c565b9050601885901c6001600160601b03166001600160401b0382166139535762ffffff195b94505050613a12565b600061395e836143a3565b60ff16905060005b836001600160401b03168110156139da5782821061398f5762ffffff195b965050505050613a12565b60006139af61399e8486615e87565b60055b62ffffff198c1691906143fc565b90506139ba81614430565b6139c49084615d95565b92505080806139d290615f26565b915050613966565b508181146139f25762ffffff195b9550505050613a12565b613a0c60065b60d81b6301000000600160d81b0389161790565b95505050505b5050919050565b6000826006613a27816138ec565b506000613a3586600061425c565b6001600160401b03169050601886901c6001600160601b0316818610613a905760405162461bcd60e51b815260206004820152601060248201526f2b34b7103932b0b21037bb32b9393ab760811b60448201526064016106d3565b6000613a9b836143a3565b60ff1690506000805b88811015613af357613aca613ab98486615e87565b60055b62ffffff198d1691906143fc565b9150613ad582614430565b613adf9084615d95565b9250613aec600182615d95565b9050613aa4565b50613b0161399e8385615e87565b90506000613b0e82614430565b9050613b27838260045b62ffffff198e16929190614484565b975050505050505b505092915050565b6000816004613b45816138ec565b50612bea62ffffff198516600060246003614484565b6000816003613b69816138ec565b50612bea62ffffff198516600060206144f4565b6000816003613b8b816138ec565b50612bea613ba262ffffff1986166020600461464d565b614797565b60008181613bb4816138ec565b50601884901c6001600160601b0316613bd15762ffffff19613912565b6000613bde85600061425c565b9050601885901c6001600160601b03166001600160401b038216613c065762ffffff1961394a565b6000613c11836143a3565b60ff16905060005b836001600160401b0316811015613c7c57828210613c3b5762ffffff19613984565b6000613c51613c4a8486615e87565b600e6139a1565b9050613c5c81614800565b613c669084615d95565b9250508080613c7490615f26565b915050613c19565b50818114613c8e5762ffffff196139e8565b613a0c600f6139f8565b600082600f613ca6816138ec565b506000613cb486600061425c565b6001600160401b03169050601886901c6001600160601b0316818610613d105760405162461bcd60e51b81526020600482015260116024820152702b37baba103932b0b21037bb32b9393ab760791b60448201526064016106d3565b6000613d1b836143a3565b60ff1690506000805b88811015613d6957613d40613d398486615e87565b600e613abc565b9150613d4b82614800565b613d559084615d95565b9250613d62600182615d95565b9050613d24565b50613d77613c4a8385615e87565b90506000613d8482614800565b9050613b278382600d613b18565b600081600d613da0816138ec565b506000613dae85600861425c565b9050610a27613dbc826143a3565b613dc7906008615dd8565b62ffffff1987169060ff166001600160401b0384166007614484565b6060600080613dfb8460181c6001600160601b031690565b60405193508392506001600160601b03169050613e2284613e1d846020615d95565b614849565b508181016020016040529052919050565b600080613e43612cac84836138c8565b905062ffffff198082161415613e6b5760405162461bcd60e51b81526004016106d390615bae565b600080613e7983600061425c565b6001600160401b0316905060005b81811015613ec257613e998482613c98565b9250613ea4836149a1565b613eae9086615dad565b945080613eba81615f26565b915050613e87565b50505050919050565b600080613edb612cac87836138c8565b905062ffffff198082161415613f035760405162461bcd60e51b81526004016106d390615bae565b6000613f0f8287613c98565b90506000613f1c82613d92565b90506005856005811115613f4057634e487b7160e01b600052602160045260246000fd5b1415613fa557613f5962ffffff198216600260206144f4565b604051602001613f6b91815260200190565b60405160208183030381529060405280519060200120868051906020012014613f95576000613f9e565b613f9e826149a1565b9350614133565b6000856005811115613fc757634e487b7160e01b600052602160045260246000fd5b1415613fe057613f5962ffffff198216600160206144f4565b600185600581111561400257634e487b7160e01b600052602160045260246000fd5b14156140415761401962ffffff19821660036149c6565b604051602001613f6b919060609190911b6bffffffffffffffffffffffff1916815260140190565b600285600581111561406357634e487b7160e01b600052602160045260246000fd5b141561407a5761401962ffffff19821660026149c6565b600385600581111561409c57634e487b7160e01b600052602160045260246000fd5b14156140b35761401962ffffff19821660026149c6565b60048560058111156140d557634e487b7160e01b600052602160045260246000fd5b1415614133576140ee62ffffff198216600260206144f4565b60405160200161410091815260200190565b6040516020818303038152906040528051906020012086805190602001201461412a576000612be4565b612be4826149a1565b505050949350505050565b60008061414b8385615d95565b905060405181111561415b575060005b8061416d5762ffffff199150506136fb565b5050606092831b9190911790911b1760181b90565b600061418e83836149d4565b6142555760006141ad6141a18560d81c90565b64ffffffffff166149f7565b91505060006141c28464ffffffffff166149f7565b6040517f5479706520617373657274696f6e206661696c65642e20476f7420307800000060208201526001600160b01b031960b086811b8216603d8401526c05c408af0e0cac6e8cac84060f609b1b604784015283901b16605482015290925060009150605e015b60405160208183030381529060405290508060405162461bcd60e51b81526004016106d39190615a16565b5090919050565b60008061427162ffffff198516846001614aa3565b905060fc811161428c5761428481614ad3565b9150506110eb565b8060fd14156142f2576142ba6142b56142a6856001615d95565b62ffffff19871690600261464d565b614ad3565b91506142c5826143a3565b60ff166003146142ed576142eb6142e662ffffff1986168560036000614484565b614b3b565b505b61439c565b8060fe14156143475761431b6142b561430c856001615d95565b62ffffff19871690600461464d565b9150614326826143a3565b60ff166005146142ed576142eb6142e662ffffff1986168560056000614484565b8060ff141561439c576143706142b5614361856001615d95565b62ffffff19871690600861464d565b915061437b826143a3565b60ff1660091461439c57613b2f6142e662ffffff1986168560096000614484565b5092915050565b600060fc826001600160401b0316116143be57506001611a9c565b61ffff826001600160401b0316116143d857506003611a9c565b63ffffffff826001600160401b0316116143f457506005611a9c565b506009611a9c565b6000612bea84846144168760181c6001600160601b031690565b6001600160601b03166144299190615e87565b8585614484565b600081600561443e816138ec565b50600061444c85602461425c565b9050806001600160401b0316614461826143a3565b60ff1661446e9190615d95565b614479906024615d95565b610a27906004615d95565b60008061449a8660781c6001600160601b031690565b6001600160601b031690506144ae86614bc2565b846144b98784615d95565b6144c39190615d95565b11156144d65762ffffff19915050612bea565b6144e08582615d95565b9050612d038364ffffffffff16828661413e565b600060ff8216614506575060006136fb565b6145198460181c6001600160601b031690565b6001600160601b031661452f60ff841685615d95565b11156145935761457a61454b8560781c6001600160601b031690565b6001600160601b03166145678660181c6001600160601b031690565b6001600160601b0316858560ff16614c03565b60405162461bcd60e51b81526004016106d39190615a16565b60208260ff16111561460d5760405162461bcd60e51b815260206004820152603a60248201527f54797065644d656d566965772f696e646578202d20417474656d70746564207460448201527f6f20696e646578206d6f7265207468616e20333220627974657300000000000060648201526084016106d3565b6008820260006146268660781c6001600160601b031690565b6001600160601b031690506000600160ff1b60001984011d91909501511695945050505050565b6000612bea61465d8585856144f4565b600881811c7eff00ff00ff00ff00ff00ff00ff00ff00ff00ff00ff00ff00ff00ff00ff00ff167fff00ff00ff00ff00ff00ff00ff00ff00ff00ff00ff00ff00ff00ff00ff00ff009290911b9190911617601081811c7dffff0000ffff0000ffff0000ffff0000ffff0000ffff0000ffff0000ffff167fffff0000ffff0000ffff0000ffff0000ffff0000ffff0000ffff0000ffff00009290911b9190911617602081811c7bffffffff00000000ffffffff00000000ffffffff00000000ffffffff167fffffffff00000000ffffffff00000000ffffffff00000000ffffffff000000009290911b9190911617604081811c77ffffffffffffffff0000000000000000ffffffffffffffff1677ffffffffffffffff0000000000000000ffffffffffffffff199290911b9190911617608081811c91901b1790565b600063ffffffff8211156147fc5760405162461bcd60e51b815260206004820152602660248201527f53616665436173743a2076616c756520646f65736e27742066697420696e203360448201526532206269747360d01b60648201526084016106d3565b5090565b600081600e61480e816138ec565b50600061481c85600861425c565b9050806001600160401b0316614831826143a3565b60ff1661483e9190615d95565b610a27906008615d95565b600062ffffff1980841614156148b25760405162461bcd60e51b815260206004820152602860248201527f54797065644d656d566965772f636f7079546f202d204e756c6c20706f696e7460448201526732b9103232b932b360c11b60648201526084016106d3565b6148bb83614d2d565b61491b5760405162461bcd60e51b815260206004820152602b60248201527f54797065644d656d566965772f636f7079546f202d20496e76616c696420706f60448201526a34b73a32b9103232b932b360a91b60648201526084016106d3565b60006149308460181c6001600160601b031690565b6001600160601b0316905060006149508560781c6001600160601b031690565b6001600160601b0316905060006040519050848111156149705760206060fd5b8285848460045afa50612d036149868760d81c90565b64ffffffffff60601b606091821b168717901b841760181b90565b600081600d6149af816138ec565b50612bea6142b562ffffff1986166000600861464d565b60006136fb83836014614aa3565b60008164ffffffffff166149e88460d81c90565b64ffffffffff16149392505050565b600080601f5b600f8160ff161115614a55576000614a16826008615e5e565b60ff1685901c9050614a2781614d6b565b61ffff16841793508160ff16601014614a4257601084901b93505b50614a4e600182615e9e565b90506149fd565b50600f5b60ff8160ff161015614a9d5760ff600882021684901c614a7881614d6b565b61ffff16831792508160ff16600014614a9357601083901b92505b5060001901614a59565b50915091565b6000614ab0826020615e9e565b614abb906008615e5e565b60ff16614ac98585856144f4565b901c949350505050565b60006001600160401b038211156147fc5760405162461bcd60e51b815260206004820152602660248201527f53616665436173743a2076616c756520646f65736e27742066697420696e203660448201526534206269747360d01b60648201526084016106d3565b60606000614b6f614b6a82614b5c601887901c6001600160601b0316614d9b565b62ffffff1987169190614aa3565b6149f7565b6040517f4e6f6e2d6d696e696d616c2076617220696e742e20476f74203078000000000060208201526dffffffffffffffffffffffffffff19607083901b16603b82015290925060009150604d0161422a565b6000614bd78260181c6001600160601b031690565b614bea8360781c6001600160601b031690565b614bf49190615dfd565b6001600160601b031692915050565b60606000614c10866149f7565b9150506000614c1e866149f7565b9150506000614c2c866149f7565b9150506000614c3a866149f7565b604080517f54797065644d656d566965772f696e646578202d204f76657272616e20746865602082015274040ecd2caee5c40a6d8d2c6ca40d2e640c2e84060f605b1b818301526001600160d01b031960d098891b811660558301526e040eed2e8d040d8cadccee8d04060f608b1b605b830181905297891b8116606a8301527f2e20417474656d7074656420746f20696e646578206174206f666673657420306070830152600f60fb1b609083015295881b861660918201526097810196909652951b90921660a68401525050601760f91b60ac8201528151808203608d01815260ad90910190915295945050505050565b6000614d398260d81c90565b64ffffffffff1664ffffffffff1415614d5457506000611a9c565b6000614d5f83614bc2565b60405110199392505050565b6000614d7d60048360ff16901c614dfc565b60ff161760081b62ffff0016614d9282614dfc565b60ff1617919050565b600060ff8211156147fc5760405162461bcd60e51b815260206004820152602560248201527f53616665436173743a2076616c756520646f65736e27742066697420696e2038604482015264206269747360d81b60648201526084016106d3565b600060f08083179060ff82161415614e18576030915050611a9c565b8060ff1660f11415614e2e576031915050611a9c565b8060ff1660f21415614e44576032915050611a9c565b8060ff1660f31415614e5a576033915050611a9c565b8060ff1660f41415614e70576034915050611a9c565b8060ff1660f51415614e86576035915050611a9c565b8060ff1660f61415614e9c576036915050611a9c565b8060ff1660f71415614eb2576037915050611a9c565b8060ff1660f81415614ec8576038915050611a9c565b8060ff1660f91415614ede576039915050611a9c565b8060ff1660fa1415614ef4576061915050611a9c565b8060ff1660fb1415614f0a576062915050611a9c565b8060ff1660fc1415614f20576063915050611a9c565b8060ff1660fd1415614f36576064915050611a9c565b8060ff1660fe1415614f4c576065915050611a9c565b8060ff1660ff1415614f62576066915050611a9c565b50919050565b828054614f7490615ef1565b90600052602060002090601f016020900481019282614f965760008555614fdc565b82601f10614faf57805160ff1916838001178555614fdc565b82800160010185558215614fdc579182015b82811115614fdc578251825591602001919060010190614fc1565b506147fc9291505b808211156147fc5760008155600101614fe4565b8035611a9c81615f6d565b60008083601f840112615014578182fd5b5081356001600160401b0381111561502a578182fd5b602083019150836020808302850101111561504457600080fd5b9250929050565b600082601f83011261505b578081fd5b8135602061507061506b83615d72565b615d42565b828152818101908583018385028701840188101561508c578586fd5b855b858110156150b15761509f82615123565b8452928401929084019060010161508e565b5090979650505050505050565b600082601f8301126150ce578081fd5b813560206150de61506b83615d72565b82815281810190858301838502870184018810156150fa578586fd5b855b858110156150b1578135845292840192908401906001016150fc565b8035611a9c81615f82565b80356001600160e01b031981168114611a9c57600080fd5b60008083601f84011261514c578182fd5b5081356001600160401b03811115615162578182fd5b60208301915083602082850101111561504457600080fd5b600082601f83011261518a578081fd5b81356001600160401b038111156151a3576151a3615f57565b6151b6601f8201601f1916602001615d42565b8181528460208386010111156151ca578283fd5b816020850160208301379081016020019190915292915050565b803560068110611a9c57600080fd5b600060208284031215615204578081fd5b81356136fb81615f6d565b600060208284031215615220578081fd5b81516136fb81615f6d565b60008060008060008060008060008060006101008c8e03121561524c578687fd5b6152558c614ff8565b9a506001600160401b038060208e0135111561526f578788fd5b61527f8e60208f01358f01615003565b909b50995061529060408e01615118565b98508060608e013511156152a2578788fd5b6152b28e60608f01358f01615003565b909850965060808d0135955060a08d01358110156152ce578485fd5b6152de8e60a08f01358f0161517a565b94506152ec60c08e016151e4565b93508060e08e013511156152fe578283fd5b5061530f8d60e08e01358e0161513b565b81935080925050509295989b509295989b9093969950565b60008060408385031215615339578182fd5b823561534481615f6d565b946020939093013593505050565b600060208284031215615363578081fd5b81516136fb81615f82565b60008060408385031215615380578182fd5b825161538b81615f82565b809250506020808401516001600160401b038111156153a8578283fd5b8401601f810186136153b8578283fd5b80516153c661506b82615d72565b81815283810190838501858402850186018a10156153e2578687fd5b8694505b838510156154045780518352600194909401939185019185016153e6565b5080955050505050509250929050565b600060208284031215615425578081fd5b5035919050565b60006020828403121561543d578081fd5b5051919050565b6000806000806000806000806000806101408b8d031215615463578384fd5b61546c8b615123565b995060208b01356001600160401b0380821115615487578586fd5b6154938e838f0161517a565b9a5060408d01359150808211156154a8578586fd5b6154b48e838f0161517a565b99506154c260608e01615123565b985060808d0135975060a08d01359150808211156154de578586fd5b6154ea8e838f0161517a565b965060c08d0135955060e08d0135915080821115615506578485fd5b6155128e838f0161517a565b94506101008d0135915080821115615528578384fd5b6155348e838f016150be565b93506101208d013591508082111561554a578283fd5b506155578d828e016150be565b9150509295989b9194979a5092959850565b60008060006040848603121561557d578081fd5b83356001600160401b0380821115615593578283fd5b61559f8783880161513b565b909550935060208601359150808211156155b7578283fd5b506155c4868287016150be565b9150509250925092565b60008060008060008060008060006101208a8c0312156155ec578283fd5b89356001600160401b0380821115615602578485fd5b61560e8d838e0161517a565b9a5060208c0135915080821115615623578485fd5b61562f8d838e0161504b565b995060408c0135915080821115615644578485fd5b6156508d838e0161517a565b985060608c0135915080821115615665578485fd5b6156718d838e0161517a565b975060808c0135915080821115615686578485fd5b6156928d838e0161517a565b965060a08c01359150808211156156a7578485fd5b6156b38d838e0161517a565b955060c08c01359150808211156156c8578485fd5b6156d48d838e0161504b565b945060e08c01359150808211156156e9578384fd5b6156f58d838e0161517a565b93506101008c013591508082111561570b578283fd5b506157188c828d016150be565b9150509295985092959850929598565b60008060008060008060008060006101208a8c031215615746578283fd5b8935985060208a013561575881615f6d565b975060408a013561576881615f6d565b965060608a013561577881615f6d565b955060808a013561578881615f6d565b989b979a50959894979660a0860135965060c08601359560e0810135955061010001359350915050565b6000806000806000608086880312156157c9578283fd5b8535945060208601356001600160401b03808211156157e6578485fd5b6157f289838a0161517a565b9550615800604089016151e4565b94506060880135915080821115615815578283fd5b506158228882890161513b565b969995985093965092949392505050565b6000815180845260208085019450808401835b8381101561586c5781516001600160e01b03191687529582019590820190600101615846565b509495945050505050565b60008284528282602086013780602084860101526020601f19601f85011685010190509392505050565b600081518084526158b9816020860160208601615ec1565b601f01601f19169290920160200192915050565b600681106158eb57634e487b7160e01b600052602160045260246000fd5b9052565b600063ffffffff60e01b80871683528551615911816004860160208a01615ec1565b855190840190615928816004840160208a01615ec1565b919094169301600481019390935250506008019392505050565b60008251615954818460208701615ec1565b9190910192915050565b600060018060a01b038716825285602083015284604083015260a0606083015261598b60a08301856158a1565b90508260808301529695505050505050565b6001600160a01b038616815260a0602082018190526000906159c1908301876158a1565b604083019590955250606081019290925260809091015292915050565b600060208252612bea602083018486615877565b600060408252615a06604083018587615877565b9050826020830152949350505050565b6000602082526136fb60208301846158a1565b6000610100808352615a3d8184018c6158a1565b915050615a4d602083018a6158cd565b60408201979097526001600160a01b039586166060820152608081019490945260a084019290925290921660c082015260e0015292915050565b60006101208b835260208b8185015260018060a01b038b1660408501528960608501528860808501528160a0850152615ac282850189615833565b915083820360c0850152615ad68288615833565b915083820360e0850152615aea82876158a1565b8481036101008601528551808252828701935090820190845b81811015615b1f57845183529383019391830191600101615b03565b50909e9d5050505050505050505050505050565b600086825285602083015260a06040830152615b5260a08301866158a1565b8281036060840152615b6481866158a1565b9150508260808301529695505050505050565b60208082526018908201527f4275726e526f757465723a207a65726f20616464726573730000000000000000604082015260600190565b6020808252601b908201527f426974636f696e48656c7065723a20766f7574206973206e756c6c0000000000604082015260600190565b602080825260169082015275213ab9372937baba32b91d103737ba103637b1b5b2b960511b604082015260600190565b6020808252602b908201527f496e697469616c697a61626c653a20636f6e7472616374206973206e6f74206960408201526a6e697469616c697a696e6760a81b606082015260800190565b888152602081018890526001600160a01b038716604082015261010060608201819052600090615c92838201896158a1565b91505085608083015284151560a0830152615cb060c08301856158cd565b8260e08301529998505050505050505050565b878152602080820188905260c0604083018190528201869052600090879060e08401835b89811015615d15578335615cfa81615f6d565b6001600160a01b031682529282019290820190600101615ce7565b506001600160a01b039790971660608501525050506080810192909252151560a090910152949350505050565b604051601f8201601f191681016001600160401b0381118282101715615d6a57615d6a615f57565b604052919050565b60006001600160401b03821115615d8b57615d8b615f57565b5060209081020190565b60008219821115615da857615da8615f41565b500190565b60006001600160401b03808316818516808303821115615dcf57615dcf615f41565b01949350505050565b600060ff821660ff84168060ff03821115615df557615df5615f41565b019392505050565b60006001600160601b03808316818516808303821115615dcf57615dcf615f41565b600082615e3a57634e487b7160e01b81526012600452602481fd5b500490565b6000816000190483118215151615615e5957615e59615f41565b500290565b600060ff821660ff84168160ff0481118215151615615e7f57615e7f615f41565b029392505050565b600082821015615e9957615e99615f41565b500390565b600060ff821660ff841680821015615eb857615eb8615f41565b90039392505050565b60005b83811015615edc578181015183820152602001615ec4565b83811115615eeb576000848401525b50505050565b600281046001821680615f0557607f821691505b60208210811415614f6257634e487b7160e01b600052602260045260246000fd5b6000600019821415615f3a57615f3a615f41565b5060010190565b634e487b7160e01b600052601160045260246000fd5b634e487b7160e01b600052604160045260246000fd5b6001600160a01b03811681146107dd57600080fd5b80151581146107dd57600080fdfea2646970667358221220afe6c90655a1cd6ba9d3cc7e40450f2ee2557c833b717c5f77c85ac57d1c57b864736f6c63430008020033",
  "libraries": {
    "BurnRouterLib": "0xBDB73A7C79cc2E6FB8fB744627BfAd69a6160357"
  },
  "devdoc": {
    "kind": "dev",
    "methods": {
      "burnProof(bytes4,bytes,bytes,bytes4,uint256,bytes,uint256,bytes,uint256[],uint256[])": {
        "details": "Makes isTransferred flag true for the paid requests",
        "params": {
          "_blockNumber": "Height of the block containing the Bitcoin tx",
          "_burnReqIndexes": "Indexes of requests that locker wants to provide proof for them",
          "_index": "Index of the Bitcoin tx the block",
          "_intermediateNodes": "Merkle inclusion proof for the Bitcoin tx",
          "_lockerLockingScript": "Locker's locking script that this burn request belongs to",
          "_locktime": "Lock time of the Bitcoin tx",
          "_version": "Version of the Bitcoin tx",
          "_vin": "Inputs of the Bitcoin tx",
          "_vout": "Outputs of the Bitcoin tx",
          "_voutIndexes": "Indexes of outputs that were used to pay burn requests.                      _voutIndexes[i] belongs to _burnReqIndexes[i]"
        }
      },
      "ccBurn(uint256,bytes,uint8,bytes)": {
        "details": "After submitting the burn request, Locker has a limited time      to send BTC and provide burn proof",
        "params": {
          "_amount": "of teleBTC that user wants to burn",
          "_lockerLockingScript": "of locker that should execute the burn request",
          "_scriptType": "User script type",
          "_userScript": "User script hash"
        },
        "returns": {
          "_0": "Amount of BTC that user receives"
        }
      },
      "ccExchangeAndBurn(address,uint256[],bool,address[],uint256,bytes,uint8,bytes)": {
        "details": "After exchanging, rest of the process is similar to ccBurn",
        "params": {
          "_amounts": "[inputTokenAmount, teleBTCAmount]",
          "_deadline": "of exchanging",
          "_exchangeConnector": "Address of exchange connectBurnRouterLogicor to be used",
          "_isFixedToken": "True if input token amount is fixed",
          "_path": "of exchanging inputToken to teleBTC"
        },
        "returns": {
          "_0": "Amount of BTC that user receives"
        }
      },
      "disputeBurn(bytes,uint256[])": {
        "params": {
          "_indices": "Indices of requests that their deadline has passed",
          "_lockerLockingScript": "Locker's locking script that the unpaid request belongs to"
        }
      },
      "disputeLocker(bytes,bytes4[],bytes,bytes,bytes,bytes,bytes4[],bytes,uint256[])": {
        "details": "Input tx is a malicious tx which shows that locker spent BTC      Output tx is the tx that was spent by locker in input tx      Output tx shows money goes to locker      Input tx shows locker steals the funds",
        "params": {
          "_indexesAndBlockNumbers": "Indices of malicious input in input tx,                                 input tx in block and block number of input tx",
          "_inputIntermediateNodes": "Merkle inclusion proof for the malicious transaction",
          "_inputVin": "Inputs of the malicious transaction",
          "_inputVout": "Outputs of the malicious transaction",
          "_lockerLockingScript": "Suspicious locker's locking script",
          "_locktimes": "Locktimes of input and output tx",
          "_outputVin": "Inputs of the spent transaction",
          "_outputVout": "Outputs of the spent transaction",
          "_versions": "Versions of input and output tx"
        }
      },
      "initialize(uint256,address,address,address,address,uint256,uint256,uint256,uint256)": {
        "params": {
          "_bitcoinFee": "Fee of submitting a transaction on Bitcoin",
          "_lockers": "Address of lockers contract",
          "_protocolPercentageFee": "Percentage of tokens that user pays to protocol for burning",
          "_relay": "Address of relay contract",
          "_slasherPercentageReward": "Percentage of tokens that slasher receives after slashing a locker",
          "_startingBlockNumber": "Requests that are included in a block older                              than _startingBlockNumber cannot be executed",
          "_teleBTC": "Address of teleBTC contract",
          "_transferDeadline": "of sending BTC to user (aster submitting a burn request)",
          "_treasury": "Address of the treasury of the protocol"
        }
      },
      "isTransferred(address,uint256)": {
        "params": {
          "_index": "the request for the locker",
          "_lockerTargetAddress": "Locker address on the target chain"
        }
      },
      "owner()": {
        "details": "Returns the address of the current owner."
      },
      "renounceOwnership()": {
        "details": "Leaves the contract without owner. It will not be possible to call `onlyOwner` functions anymore. Can only be called by the current owner. NOTE: Renouncing ownership will leave the contract without an owner, thereby removing any functionality that is only available to the owner."
      },
      "setBitcoinFee(uint256)": {
        "details": "Only owner can call this",
        "params": {
          "_bitcoinFee": "The new Bitcoin transaction fee"
        }
      },
      "setBitcoinFeeOracle(address)": {
        "details": "Only owner can call this",
        "params": {
          "_bitcoinFeeOracle": "Address of oracle who can update burn fee"
        }
      },
      "setLockers(address)": {
        "details": "Only owner can call this",
        "params": {
          "_lockers": "The new lockers contract address"
        }
      },
      "setProtocolPercentageFee(uint256)": {
        "details": "Only owner can call this",
        "params": {
          "_protocolPercentageFee": "The new protocol percentage fee"
        }
      },
      "setRelay(address)": {
        "details": "Only owner can call this",
        "params": {
          "_relay": "The new relay contract address"
        }
      },
      "setSlasherPercentageReward(uint256)": {
        "details": "Only owner can call this",
        "params": {
          "_slasherPercentageReward": "The new slasher percentage reward"
        }
      },
      "setTeleBTC(address)": {
        "details": "Only owner can call this",
        "params": {
          "_teleBTC": "The new teleBTC contract address"
        }
      },
      "setTransferDeadline(uint256)": {
        "details": "Only owner can call this      Deadline should be greater than relay finalization parameter",
        "params": {
          "_transferDeadline": "The new transfer deadline"
        }
      },
      "setTreasury(address)": {
        "details": "Only owner can call this",
        "params": {
          "_treasury": "The new treasury address"
        }
      },
      "transferOwnership(address)": {
        "details": "Transfers ownership of the contract to a new account (`newOwner`). Can only be called by the current owner."
      }
    },
    "version": 1
  },
  "userdoc": {
    "events": {
      "CCBurn(address,bytes,uint8,uint256,address,uint256,uint256,address,uint256,uint256)": {
        "notice": "Emits when a burn request gets submitted"
      },
      "LockerDispute(address,bytes,uint256,bytes32,uint256)": {
        "notice": "Emits when a locker gets slashed for withdrawing BTC without proper reason"
      },
      "NewBitcoinFee(uint256,uint256)": {
        "notice": "Emits when bitcoin fee is updated"
      },
      "NewBitcoinFeeOracle(address,address)": {
        "notice": "Emits when bitcoin fee oracle is updated"
      },
      "NewLockers(address,address)": {
        "notice": "Emits when lockers address is updated"
      },
      "NewProtocolPercentageFee(uint256,uint256)": {
        "notice": "Emits when percentage fee is updated"
      },
      "NewRelay(address,address)": {
        "notice": "Emits when relay address is updated"
      },
      "NewSlasherPercentageFee(uint256,uint256)": {
        "notice": "Emits when slasher percentage fee is updated"
      },
      "NewTeleBTC(address,address)": {
        "notice": "Emits when TeleBTC address is updated"
      },
      "NewTransferDeadline(uint256,uint256)": {
        "notice": "Emits when transfer deadline is updated"
      },
      "NewTreasury(address,address)": {
        "notice": "Emits when treasury address is updated"
      },
      "PaidCCBurn(address,uint256,bytes32,uint256)": {
        "notice": "Emits when a burn proof is provided"
      }
    },
    "kind": "user",
    "methods": {
      "burnProof(bytes4,bytes,bytes,bytes4,uint256,bytes,uint256,bytes,uint256[],uint256[])": {
        "notice": "Checks the correctness of burn proof (which is a Bitcoin tx)"
      },
      "ccBurn(uint256,bytes,uint8,bytes)": {
        "notice": "Records users burn request"
      },
      "ccExchangeAndBurn(address,uint256[],bool,address[],uint256,bytes,uint8,bytes)": {
        "notice": "Exchanges input token for teleBTC then burns it"
      },
      "disputeBurn(bytes,uint256[])": {
        "notice": "Slashes a locker if did not pay a cc burn request before its deadline"
      },
      "disputeLocker(bytes,bytes4[],bytes,bytes,bytes,bytes,bytes4[],bytes,uint256[])": {
        "notice": "Slashes a locker if they issue a tx that doesn't match any burn request"
      },
      "initialize(uint256,address,address,address,address,uint256,uint256,uint256,uint256)": {
        "notice": "Handles cross-chain burn requests"
      },
      "isTransferred(address,uint256)": {
        "notice": "Returns true is request has been processed"
      },
      "setBitcoinFee(uint256)": {
        "notice": "Updates Bitcoin transaction fee"
      },
      "setBitcoinFeeOracle(address)": {
        "notice": "Updates Bitcoin oracle"
      },
      "setLockers(address)": {
        "notice": "Updates lockers contract address"
      },
      "setProtocolPercentageFee(uint256)": {
        "notice": "Updates protocol percentage fee for burning tokens"
      },
      "setRelay(address)": {
        "notice": "Updates relay contract address"
      },
      "setSlasherPercentageReward(uint256)": {
        "notice": "Updates slasher percentage reward for disputing lockers"
      },
      "setStartingBlockNumber(uint256)": {
        "notice": "Setter for starting block number"
      },
      "setTeleBTC(address)": {
        "notice": "Updates teleBTC contract address"
      },
      "setTransferDeadline(uint256)": {
        "notice": "Updates deadline of executing burn requests"
      },
      "setTreasury(address)": {
        "notice": "Updates protocol treasury address"
      }
    },
    "version": 1
  },
  "storageLayout": {
    "storage": [
      {
        "astId": 18827,
        "contract": "contracts/routers/BurnRouterLogic.sol:BurnRouterLogic",
        "label": "relay",
        "offset": 0,
        "slot": "0",
        "type": "t_address"
      },
      {
        "astId": 18830,
        "contract": "contracts/routers/BurnRouterLogic.sol:BurnRouterLogic",
        "label": "lockers",
        "offset": 0,
        "slot": "1",
        "type": "t_address"
      },
      {
        "astId": 18833,
        "contract": "contracts/routers/BurnRouterLogic.sol:BurnRouterLogic",
        "label": "teleBTC",
        "offset": 0,
        "slot": "2",
        "type": "t_address"
      },
      {
        "astId": 18836,
        "contract": "contracts/routers/BurnRouterLogic.sol:BurnRouterLogic",
        "label": "treasury",
        "offset": 0,
        "slot": "3",
        "type": "t_address"
      },
      {
        "astId": 18839,
        "contract": "contracts/routers/BurnRouterLogic.sol:BurnRouterLogic",
        "label": "bitcoinFeeOracle",
        "offset": 0,
        "slot": "4",
        "type": "t_address"
      },
      {
        "astId": 18842,
        "contract": "contracts/routers/BurnRouterLogic.sol:BurnRouterLogic",
        "label": "startingBlockNumber",
        "offset": 0,
        "slot": "5",
        "type": "t_uint256"
      },
      {
        "astId": 18845,
        "contract": "contracts/routers/BurnRouterLogic.sol:BurnRouterLogic",
        "label": "transferDeadline",
        "offset": 0,
        "slot": "6",
        "type": "t_uint256"
      },
      {
        "astId": 18848,
        "contract": "contracts/routers/BurnRouterLogic.sol:BurnRouterLogic",
        "label": "protocolPercentageFee",
        "offset": 0,
        "slot": "7",
        "type": "t_uint256"
      },
      {
        "astId": 18851,
        "contract": "contracts/routers/BurnRouterLogic.sol:BurnRouterLogic",
        "label": "slasherPercentageReward",
        "offset": 0,
        "slot": "8",
        "type": "t_uint256"
      },
      {
        "astId": 18854,
        "contract": "contracts/routers/BurnRouterLogic.sol:BurnRouterLogic",
        "label": "bitcoinFee",
        "offset": 0,
        "slot": "9",
        "type": "t_uint256"
      },
      {
        "astId": 18860,
        "contract": "contracts/routers/BurnRouterLogic.sol:BurnRouterLogic",
        "label": "burnRequests",
        "offset": 0,
        "slot": "10",
        "type": "t_mapping(t_address,t_array(t_struct(burnRequest)18818_storage)dyn_storage)"
      },
      {
        "astId": 18864,
        "contract": "contracts/routers/BurnRouterLogic.sol:BurnRouterLogic",
        "label": "burnRequestCounter",
        "offset": 0,
        "slot": "11",
        "type": "t_mapping(t_address,t_uint256)"
      },
      {
        "astId": 18869,
        "contract": "contracts/routers/BurnRouterLogic.sol:BurnRouterLogic",
        "label": "isUsedAsBurnProof",
        "offset": 0,
        "slot": "12",
        "type": "t_mapping(t_bytes32,t_bool)"
      },
      {
        "astId": 184,
        "contract": "contracts/routers/BurnRouterLogic.sol:BurnRouterLogic",
        "label": "_initialized",
        "offset": 0,
        "slot": "13",
        "type": "t_uint8"
      },
      {
        "astId": 187,
        "contract": "contracts/routers/BurnRouterLogic.sol:BurnRouterLogic",
        "label": "_initializing",
        "offset": 1,
        "slot": "13",
        "type": "t_bool"
      },
      {
        "astId": 1586,
        "contract": "contracts/routers/BurnRouterLogic.sol:BurnRouterLogic",
        "label": "__gap",
        "offset": 0,
        "slot": "14",
        "type": "t_array(t_uint256)50_storage"
      },
      {
        "astId": 56,
        "contract": "contracts/routers/BurnRouterLogic.sol:BurnRouterLogic",
        "label": "_owner",
        "offset": 0,
        "slot": "64",
        "type": "t_address"
      },
      {
        "astId": 176,
        "contract": "contracts/routers/BurnRouterLogic.sol:BurnRouterLogic",
        "label": "__gap",
        "offset": 0,
        "slot": "65",
        "type": "t_array(t_uint256)49_storage"
      },
      {
        "astId": 487,
        "contract": "contracts/routers/BurnRouterLogic.sol:BurnRouterLogic",
        "label": "_status",
        "offset": 0,
        "slot": "114",
        "type": "t_uint256"
      },
      {
        "astId": 545,
        "contract": "contracts/routers/BurnRouterLogic.sol:BurnRouterLogic",
        "label": "__gap",
        "offset": 0,
        "slot": "115",
        "type": "t_array(t_uint256)49_storage"
      }
    ],
    "types": {
      "t_address": {
        "encoding": "inplace",
        "label": "address",
        "numberOfBytes": "20"
      },
      "t_array(t_struct(burnRequest)18818_storage)dyn_storage": {
        "base": "t_struct(burnRequest)18818_storage",
        "encoding": "dynamic_array",
        "label": "struct BurnRouterStorage.burnRequest[]",
        "numberOfBytes": "32"
      },
      "t_array(t_uint256)49_storage": {
        "base": "t_uint256",
        "encoding": "inplace",
        "label": "uint256[49]",
        "numberOfBytes": "1568"
      },
      "t_array(t_uint256)50_storage": {
        "base": "t_uint256",
        "encoding": "inplace",
        "label": "uint256[50]",
        "numberOfBytes": "1600"
      },
      "t_bool": {
        "encoding": "inplace",
        "label": "bool",
        "numberOfBytes": "1"
      },
      "t_bytes32": {
        "encoding": "inplace",
        "label": "bytes32",
        "numberOfBytes": "32"
      },
      "t_bytes_storage": {
        "encoding": "bytes",
        "label": "bytes",
        "numberOfBytes": "32"
      },
      "t_enum(ScriptTypes)8377": {
        "encoding": "inplace",
        "label": "enum ScriptTypes",
        "numberOfBytes": "1"
      },
      "t_mapping(t_address,t_array(t_struct(burnRequest)18818_storage)dyn_storage)": {
        "encoding": "mapping",
        "key": "t_address",
        "label": "mapping(address => struct BurnRouterStorage.burnRequest[])",
        "numberOfBytes": "32",
        "value": "t_array(t_struct(burnRequest)18818_storage)dyn_storage"
      },
      "t_mapping(t_address,t_uint256)": {
        "encoding": "mapping",
        "key": "t_address",
        "label": "mapping(address => uint256)",
        "numberOfBytes": "32",
        "value": "t_uint256"
      },
      "t_mapping(t_bytes32,t_bool)": {
        "encoding": "mapping",
        "key": "t_bytes32",
        "label": "mapping(bytes32 => bool)",
        "numberOfBytes": "32",
        "value": "t_bool"
      },
      "t_struct(burnRequest)18818_storage": {
        "encoding": "inplace",
        "label": "struct BurnRouterStorage.burnRequest",
        "members": [
          {
            "astId": 18802,
            "contract": "contracts/routers/BurnRouterLogic.sol:BurnRouterLogic",
            "label": "amount",
            "offset": 0,
            "slot": "0",
            "type": "t_uint256"
          },
          {
            "astId": 18804,
            "contract": "contracts/routers/BurnRouterLogic.sol:BurnRouterLogic",
            "label": "burntAmount",
            "offset": 0,
            "slot": "1",
            "type": "t_uint256"
          },
          {
            "astId": 18806,
            "contract": "contracts/routers/BurnRouterLogic.sol:BurnRouterLogic",
            "label": "sender",
            "offset": 0,
            "slot": "2",
            "type": "t_address"
          },
          {
            "astId": 18808,
            "contract": "contracts/routers/BurnRouterLogic.sol:BurnRouterLogic",
            "label": "userScript",
            "offset": 0,
            "slot": "3",
            "type": "t_bytes_storage"
          },
          {
            "astId": 18810,
            "contract": "contracts/routers/BurnRouterLogic.sol:BurnRouterLogic",
            "label": "deadline",
            "offset": 0,
            "slot": "4",
            "type": "t_uint256"
          },
          {
            "astId": 18812,
            "contract": "contracts/routers/BurnRouterLogic.sol:BurnRouterLogic",
            "label": "isTransferred",
            "offset": 0,
            "slot": "5",
            "type": "t_bool"
          },
          {
            "astId": 18815,
            "contract": "contracts/routers/BurnRouterLogic.sol:BurnRouterLogic",
            "label": "scriptType",
            "offset": 1,
            "slot": "5",
            "type": "t_enum(ScriptTypes)8377"
          },
          {
            "astId": 18817,
            "contract": "contracts/routers/BurnRouterLogic.sol:BurnRouterLogic",
            "label": "requestIdOfLocker",
            "offset": 0,
            "slot": "6",
            "type": "t_uint256"
          }
        ],
        "numberOfBytes": "224"
      },
      "t_uint256": {
        "encoding": "inplace",
        "label": "uint256",
        "numberOfBytes": "32"
      },
      "t_uint8": {
        "encoding": "inplace",
        "label": "uint8",
        "numberOfBytes": "1"
      }
    }
  }
}