{
  "address": "0x3Aa97FF96cA4FaB3bDBbf806487D4c1c0c24F886",
  "abi": [
    {
      "inputs": [],
      "name": "ZeroAddress",
      "type": "error"
    },
    {
      "anonymous": false,
      "inputs": [
        {
          "indexed": false,
          "internalType": "address",
          "name": "oldAcross",
          "type": "address"
        },
        {
          "indexed": false,
          "internalType": "address",
          "name": "newAcross",
          "type": "address"
        }
      ],
      "name": "AcrossUpdated",
      "type": "event"
    },
    {
      "anonymous": false,
      "inputs": [
        {
          "indexed": false,
          "internalType": "address",
          "name": "oldBurnRouter",
          "type": "address"
        },
        {
          "indexed": false,
          "internalType": "address",
          "name": "newBurnRouter",
          "type": "address"
        }
      ],
      "name": "BurnRouterUpdated",
      "type": "event"
    },
    {
      "anonymous": false,
      "inputs": [
        {
          "indexed": false,
          "internalType": "uint256",
          "name": "newChain",
          "type": "uint256"
        }
      ],
      "name": "ChainAdded",
      "type": "event"
    },
    {
      "anonymous": false,
      "inputs": [
        {
          "indexed": false,
          "internalType": "uint256",
          "name": "oldChain",
          "type": "uint256"
        }
      ],
      "name": "ChainRemoved",
      "type": "event"
    },
    {
      "anonymous": false,
      "inputs": [
        {
          "indexed": false,
          "internalType": "address",
          "name": "lockerTargetAddress",
          "type": "address"
        },
        {
          "indexed": true,
          "internalType": "address",
          "name": "recipientAddress",
          "type": "address"
        },
        {
          "indexed": false,
          "internalType": "address[2]",
          "name": "inputAndOutputToken",
          "type": "address[2]"
        },
        {
          "indexed": false,
          "internalType": "uint256[2]",
          "name": "inputAndOutputAmount",
          "type": "uint256[2]"
        },
        {
          "indexed": true,
          "internalType": "uint256",
          "name": "speed",
          "type": "uint256"
        },
        {
          "indexed": true,
          "internalType": "address",
          "name": "teleporter",
          "type": "address"
        },
        {
          "indexed": false,
          "internalType": "bytes32",
          "name": "bitcoinTxId",
          "type": "bytes32"
        },
        {
          "indexed": false,
          "internalType": "uint256",
          "name": "appId",
          "type": "uint256"
        },
        {
          "indexed": false,
          "internalType": "uint256",
          "name": "thirdPartyId",
          "type": "uint256"
        },
        {
          "indexed": false,
          "internalType": "uint256[5]",
          "name": "fees",
          "type": "uint256[5]"
        },
        {
          "indexed": false,
          "internalType": "uint256",
          "name": "destinationChainId",
          "type": "uint256"
        }
      ],
      "name": "FailedWrapAndSwap",
      "type": "event"
    },
    {
      "anonymous": false,
      "inputs": [
        {
          "indexed": false,
          "internalType": "bytes32",
          "name": "txId",
          "type": "bytes32"
        },
        {
          "indexed": false,
          "internalType": "uint256",
          "name": "time",
          "type": "uint256"
        }
      ],
      "name": "FillStarted",
      "type": "event"
    },
    {
      "anonymous": false,
      "inputs": [
        {
          "indexed": false,
          "internalType": "uint256",
          "name": "amount",
          "type": "uint256"
        },
        {
          "indexed": false,
          "internalType": "uint256",
          "name": "remainingAmount",
          "type": "uint256"
        },
        {
          "indexed": false,
          "internalType": "address",
          "name": "token",
          "type": "address"
        },
        {
          "indexed": false,
          "internalType": "address",
          "name": "filler",
          "type": "address"
        },
        {
          "indexed": false,
          "internalType": "uint256",
          "name": "fillIdx",
          "type": "uint256"
        },
        {
          "indexed": false,
          "internalType": "bytes32",
          "name": "txId",
          "type": "bytes32"
        },
        {
          "indexed": false,
          "internalType": "uint256",
          "name": "reqMintedTeleBtc",
          "type": "uint256"
        },
        {
          "indexed": false,
          "internalType": "uint256",
          "name": "sentTeleBtc",
          "type": "uint256"
        }
      ],
      "name": "FillTeleBtcSent",
      "type": "event"
    },
    {
      "anonymous": false,
      "inputs": [
        {
          "indexed": false,
          "internalType": "uint256",
          "name": "amount",
          "type": "uint256"
        },
        {
          "indexed": false,
          "internalType": "address",
          "name": "token",
          "type": "address"
        },
        {
          "indexed": false,
          "internalType": "address",
          "name": "filler",
          "type": "address"
        },
        {
          "indexed": false,
          "internalType": "uint256",
          "name": "fillIdx",
          "type": "uint256"
        },
        {
          "indexed": false,
          "internalType": "bytes32",
          "name": "txId",
          "type": "bytes32"
        }
      ],
      "name": "FillTokensReturned",
      "type": "event"
    },
    {
      "anonymous": false,
      "inputs": [
        {
          "indexed": false,
          "internalType": "uint8",
          "name": "version",
          "type": "uint8"
        }
      ],
      "name": "Initialized",
      "type": "event"
    },
    {
      "anonymous": false,
      "inputs": [
        {
          "indexed": false,
          "internalType": "uint256",
          "name": "mappedId",
          "type": "uint256"
        },
        {
          "indexed": false,
          "internalType": "uint256",
          "name": "middleChain",
          "type": "uint256"
        },
        {
          "indexed": false,
          "internalType": "uint256",
          "name": "destinationChain",
          "type": "uint256"
        }
      ],
      "name": "NewChainIdMapping",
      "type": "event"
    },
    {
      "anonymous": false,
      "inputs": [
        {
          "indexed": false,
          "internalType": "address",
          "name": "filler",
          "type": "address"
        },
        {
          "indexed": false,
          "internalType": "bytes32",
          "name": "txId",
          "type": "bytes32"
        },
        {
          "indexed": false,
          "internalType": "address",
          "name": "token",
          "type": "address"
        },
        {
          "indexed": false,
          "internalType": "uint256",
          "name": "amount",
          "type": "uint256"
        }
      ],
      "name": "NewFill",
      "type": "event"
    },
    {
      "anonymous": false,
      "inputs": [
        {
          "indexed": false,
          "internalType": "uint256",
          "name": "oldFillerWithdrawInterval",
          "type": "uint256"
        },
        {
          "indexed": false,
          "internalType": "uint256",
          "name": "newFillerWithdrawInterval",
          "type": "uint256"
        }
      ],
      "name": "NewFillerWithdrawInterval",
      "type": "event"
    },
    {
      "anonymous": false,
      "inputs": [
        {
          "indexed": false,
          "internalType": "address",
          "name": "oldInstantRouter",
          "type": "address"
        },
        {
          "indexed": false,
          "internalType": "address",
          "name": "newInstantRouter",
          "type": "address"
        }
      ],
      "name": "NewInstantRouter",
      "type": "event"
    },
    {
      "anonymous": false,
      "inputs": [
        {
          "indexed": false,
          "internalType": "address",
          "name": "oldLockers",
          "type": "address"
        },
        {
          "indexed": false,
          "internalType": "address",
          "name": "newLockers",
          "type": "address"
        }
      ],
      "name": "NewLockers",
      "type": "event"
    },
    {
      "anonymous": false,
      "inputs": [
        {
          "indexed": false,
          "internalType": "uint256",
          "name": "oldProtocolPercentageFee",
          "type": "uint256"
        },
        {
          "indexed": false,
          "internalType": "uint256",
          "name": "newProtocolPercentageFee",
          "type": "uint256"
        }
      ],
      "name": "NewProtocolPercentageFee",
      "type": "event"
    },
    {
      "anonymous": false,
      "inputs": [
        {
          "indexed": false,
          "internalType": "address",
          "name": "oldRelay",
          "type": "address"
        },
        {
          "indexed": false,
          "internalType": "address",
          "name": "newRelay",
          "type": "address"
        }
      ],
      "name": "NewRelay",
      "type": "event"
    },
    {
      "anonymous": false,
      "inputs": [
        {
          "indexed": false,
          "internalType": "address",
          "name": "oldTeleBTC",
          "type": "address"
        },
        {
          "indexed": false,
          "internalType": "address",
          "name": "newTeleBTC",
          "type": "address"
        }
      ],
      "name": "NewTeleBTC",
      "type": "event"
    },
    {
      "anonymous": false,
      "inputs": [
        {
          "indexed": false,
          "internalType": "uint256",
          "name": "thirdPartyId",
          "type": "uint256"
        },
        {
          "indexed": false,
          "internalType": "address",
          "name": "oldThirdPartyAddress",
          "type": "address"
        },
        {
          "indexed": false,
          "internalType": "address",
          "name": "newThirdPartyAddress",
          "type": "address"
        }
      ],
      "name": "NewThirdPartyAddress",
      "type": "event"
    },
    {
      "anonymous": false,
      "inputs": [
        {
          "indexed": false,
          "internalType": "uint256",
          "name": "thirdPartyId",
          "type": "uint256"
        },
        {
          "indexed": false,
          "internalType": "uint256",
          "name": "oldThirdPartyFee",
          "type": "uint256"
        },
        {
          "indexed": false,
          "internalType": "uint256",
          "name": "newThirdPartyFee",
          "type": "uint256"
        }
      ],
      "name": "NewThirdPartyFee",
      "type": "event"
    },
    {
      "anonymous": false,
      "inputs": [
        {
          "indexed": false,
          "internalType": "address",
          "name": "oldTreasury",
          "type": "address"
        },
        {
          "indexed": false,
          "internalType": "address",
          "name": "newTreasury",
          "type": "address"
        }
      ],
      "name": "NewTreasury",
      "type": "event"
    },
    {
      "anonymous": false,
      "inputs": [
        {
          "indexed": false,
          "internalType": "address",
          "name": "lockerTargetAddress",
          "type": "address"
        },
        {
          "indexed": true,
          "internalType": "address",
          "name": "user",
          "type": "address"
        },
        {
          "indexed": false,
          "internalType": "address[2]",
          "name": "inputAndOutputToken",
          "type": "address[2]"
        },
        {
          "indexed": false,
          "internalType": "uint256[2]",
          "name": "inputAndOutputAmount",
          "type": "uint256[2]"
        },
        {
          "indexed": true,
          "internalType": "uint256",
          "name": "speed",
          "type": "uint256"
        },
        {
          "indexed": true,
          "internalType": "address",
          "name": "teleporter",
          "type": "address"
        },
        {
          "indexed": false,
          "internalType": "bytes32",
          "name": "bitcoinTxId",
          "type": "bytes32"
        },
        {
          "indexed": false,
          "internalType": "uint256",
          "name": "appId",
          "type": "uint256"
        },
        {
          "indexed": false,
          "internalType": "uint256",
          "name": "thirdPartyId",
          "type": "uint256"
        },
        {
          "indexed": false,
          "internalType": "uint256[5]",
          "name": "fees",
          "type": "uint256[5]"
        },
        {
          "indexed": false,
          "internalType": "uint256",
          "name": "destinationChainId",
          "type": "uint256"
        }
      ],
      "name": "NewWrapAndSwap",
      "type": "event"
    },
    {
      "anonymous": false,
      "inputs": [
        {
          "indexed": false,
          "internalType": "address",
          "name": "oldWrappedNativeToken",
          "type": "address"
        },
        {
          "indexed": false,
          "internalType": "address",
          "name": "newWrappedNativeToken",
          "type": "address"
        }
      ],
      "name": "NewWrappedNativeToken",
      "type": "event"
    },
    {
      "anonymous": false,
      "inputs": [
        {
          "indexed": true,
          "internalType": "address",
          "name": "previousOwner",
          "type": "address"
        },
        {
          "indexed": true,
          "internalType": "address",
          "name": "newOwner",
          "type": "address"
        }
      ],
      "name": "OwnershipTransferred",
      "type": "event"
    },
    {
      "anonymous": false,
      "inputs": [
        {
          "indexed": false,
          "internalType": "uint256",
          "name": "appId",
          "type": "uint256"
        },
        {
          "indexed": false,
          "internalType": "address",
          "name": "exchangeConnector",
          "type": "address"
        }
      ],
      "name": "SetExchangeConnector",
      "type": "event"
    },
    {
      "anonymous": false,
      "inputs": [
        {
          "indexed": false,
          "internalType": "uint256",
          "name": "chainId",
          "type": "uint256"
        },
        {
          "indexed": false,
          "internalType": "address",
          "name": "newToken",
          "type": "address"
        }
      ],
      "name": "TokenAdded",
      "type": "event"
    },
    {
      "anonymous": false,
      "inputs": [
        {
          "indexed": false,
          "internalType": "uint256",
          "name": "chainId",
          "type": "uint256"
        },
        {
          "indexed": false,
          "internalType": "address",
          "name": "oldToken",
          "type": "address"
        }
      ],
      "name": "TokenRemoved",
      "type": "event"
    },
    {
      "inputs": [],
      "name": "across",
      "outputs": [
        {
          "internalType": "address",
          "name": "",
          "type": "address"
        }
      ],
      "stateMutability": "view",
      "type": "function"
    },
    {
      "inputs": [],
      "name": "burnRouter",
      "outputs": [
        {
          "internalType": "address",
          "name": "",
          "type": "address"
        }
      ],
      "stateMutability": "view",
      "type": "function"
    },
    {
      "inputs": [],
      "name": "chainId",
      "outputs": [
        {
          "internalType": "uint256",
          "name": "",
          "type": "uint256"
        }
      ],
      "stateMutability": "view",
      "type": "function"
    },
    {
      "inputs": [
        {
          "internalType": "uint256",
          "name": "",
          "type": "uint256"
        }
      ],
      "name": "chainIdMapping",
      "outputs": [
        {
          "internalType": "uint256",
          "name": "middleChain",
          "type": "uint256"
        },
        {
          "internalType": "uint256",
          "name": "destinationChain",
          "type": "uint256"
        }
      ],
      "stateMutability": "view",
      "type": "function"
    },
    {
      "inputs": [
        {
          "internalType": "uint256",
          "name": "",
          "type": "uint256"
        }
      ],
      "name": "exchangeConnector",
      "outputs": [
        {
          "internalType": "address",
          "name": "",
          "type": "address"
        }
      ],
      "stateMutability": "view",
      "type": "function"
    },
    {
      "inputs": [
        {
          "internalType": "bytes32",
          "name": "",
          "type": "bytes32"
        }
      ],
      "name": "extendedCcExchangeRequests",
      "outputs": [
        {
          "internalType": "uint256",
          "name": "chainId",
          "type": "uint256"
        },
        {
          "internalType": "bool",
          "name": "isTransferredToOtherChain",
          "type": "bool"
        },
        {
          "internalType": "uint256",
          "name": "remainedInputAmount",
          "type": "uint256"
        },
        {
          "internalType": "uint256",
          "name": "bridgeFee",
          "type": "uint256"
        },
        {
          "internalType": "uint256",
          "name": "thirdParty",
          "type": "uint256"
        },
        {
          "internalType": "uint256",
          "name": "protocolFee",
          "type": "uint256"
        },
        {
          "internalType": "uint256",
          "name": "thirdPartyFee",
          "type": "uint256"
        },
        {
          "internalType": "uint256",
          "name": "lockerFee",
          "type": "uint256"
        }
      ],
      "stateMutability": "view",
      "type": "function"
    },
    {
      "inputs": [
        {
          "internalType": "uint256",
          "name": "chainId",
          "type": "uint256"
        }
      ],
      "name": "extractChainId",
      "outputs": [
        {
          "internalType": "uint256",
          "name": "",
          "type": "uint256"
        },
        {
          "internalType": "uint256",
          "name": "",
          "type": "uint256"
        }
      ],
      "stateMutability": "view",
      "type": "function"
    },
    {
      "inputs": [
        {
          "internalType": "uint256",
          "name": "chainId",
          "type": "uint256"
        }
      ],
      "name": "extractDestinationChainId",
      "outputs": [
        {
          "internalType": "uint256",
          "name": "",
          "type": "uint256"
        }
      ],
      "stateMutability": "view",
      "type": "function"
    },
    {
      "inputs": [],
      "name": "fillerWithdrawInterval",
      "outputs": [
        {
          "internalType": "uint256",
          "name": "",
          "type": "uint256"
        }
      ],
      "stateMutability": "view",
      "type": "function"
    },
    {
      "inputs": [
        {
          "internalType": "bytes32",
          "name": "",
          "type": "bytes32"
        },
        {
          "internalType": "address",
          "name": "",
          "type": "address"
        }
      ],
      "name": "fillersData",
      "outputs": [
        {
          "internalType": "uint256",
          "name": "index",
          "type": "uint256"
        },
        {
          "internalType": "address",
          "name": "token",
          "type": "address"
        },
        {
          "internalType": "uint256",
          "name": "amount",
          "type": "uint256"
        }
      ],
      "stateMutability": "view",
      "type": "function"
    },
    {
      "inputs": [
        {
          "internalType": "bytes32",
          "name": "",
          "type": "bytes32"
        }
      ],
      "name": "fillsData",
      "outputs": [
        {
          "internalType": "uint256",
          "name": "startingTime",
          "type": "uint256"
        },
        {
          "internalType": "address",
          "name": "reqToken",
          "type": "address"
        },
        {
          "internalType": "uint256",
          "name": "lastUsedIdx",
          "type": "uint256"
        },
        {
          "internalType": "uint256",
          "name": "remainingAmountOfLastFill",
          "type": "uint256"
        },
        {
          "internalType": "bool",
          "name": "isWithdrawnLastFill",
          "type": "bool"
        }
      ],
      "stateMutability": "view",
      "type": "function"
    },
    {
      "inputs": [
        {
          "internalType": "uint256",
          "name": "_startingBlockNumber",
          "type": "uint256"
        },
        {
          "internalType": "uint256",
          "name": "_protocolPercentageFee",
          "type": "uint256"
        },
        {
          "internalType": "uint256",
          "name": "_chainId",
          "type": "uint256"
        },
        {
          "internalType": "address",
          "name": "_lockers",
          "type": "address"
        },
        {
          "internalType": "address",
          "name": "_relay",
          "type": "address"
        },
        {
          "internalType": "address",
          "name": "_teleBTC",
          "type": "address"
        },
        {
          "internalType": "address",
          "name": "_treasury",
          "type": "address"
        },
        {
          "internalType": "address",
          "name": "_across",
          "type": "address"
        },
        {
          "internalType": "address",
          "name": "_burnRouter",
          "type": "address"
        }
      ],
      "name": "initialize",
      "outputs": [],
      "stateMutability": "nonpayable",
      "type": "function"
    },
    {
      "inputs": [],
      "name": "instantRouter",
      "outputs": [
        {
          "internalType": "address",
          "name": "",
          "type": "address"
        }
      ],
      "stateMutability": "view",
      "type": "function"
    },
    {
      "inputs": [
        {
          "internalType": "uint256",
          "name": "",
          "type": "uint256"
        }
      ],
      "name": "isChainSupported",
      "outputs": [
        {
          "internalType": "bool",
          "name": "",
          "type": "bool"
        }
      ],
      "stateMutability": "view",
      "type": "function"
    },
    {
      "inputs": [
        {
          "internalType": "bytes32",
          "name": "_txId",
          "type": "bytes32"
        }
      ],
      "name": "isRequestUsed",
      "outputs": [
        {
          "internalType": "bool",
          "name": "",
          "type": "bool"
        }
      ],
      "stateMutability": "view",
      "type": "function"
    },
    {
      "inputs": [
        {
          "internalType": "uint256",
          "name": "",
          "type": "uint256"
        },
        {
          "internalType": "address",
          "name": "",
          "type": "address"
        }
      ],
      "name": "isTokenSupported",
      "outputs": [
        {
          "internalType": "bool",
          "name": "",
          "type": "bool"
        }
      ],
      "stateMutability": "view",
      "type": "function"
    },
    {
      "inputs": [],
      "name": "lockers",
      "outputs": [
        {
          "internalType": "address",
          "name": "",
          "type": "address"
        }
      ],
      "stateMutability": "view",
      "type": "function"
    },
    {
      "inputs": [],
      "name": "owner",
      "outputs": [
        {
          "internalType": "address",
          "name": "",
          "type": "address"
        }
      ],
      "stateMutability": "view",
      "type": "function"
    },
    {
      "inputs": [
        {
          "internalType": "bytes32",
          "name": "",
          "type": "bytes32"
        },
        {
          "internalType": "address",
          "name": "",
          "type": "address"
        }
      ],
      "name": "prefixFillSums",
      "outputs": [
        {
          "internalType": "uint256",
          "name": "currentIndex",
          "type": "uint256"
        }
      ],
      "stateMutability": "view",
      "type": "function"
    },
    {
      "inputs": [],
      "name": "protocolPercentageFee",
      "outputs": [
        {
          "internalType": "uint256",
          "name": "",
          "type": "uint256"
        }
      ],
      "stateMutability": "view",
      "type": "function"
    },
    {
      "inputs": [],
      "name": "relay",
      "outputs": [
        {
          "internalType": "address",
          "name": "",
          "type": "address"
        }
      ],
      "stateMutability": "view",
      "type": "function"
    },
    {
      "inputs": [
        {
          "internalType": "uint256",
          "name": "_chainId",
          "type": "uint256"
        }
      ],
      "name": "removeChain",
      "outputs": [],
      "stateMutability": "nonpayable",
      "type": "function"
    },
    {
      "inputs": [
        {
          "internalType": "uint256",
          "name": "chainId",
          "type": "uint256"
        },
        {
          "internalType": "address",
          "name": "_token",
          "type": "address"
        }
      ],
      "name": "removeToken",
      "outputs": [],
      "stateMutability": "nonpayable",
      "type": "function"
    },
    {
      "inputs": [],
      "name": "renounceOwnership",
      "outputs": [],
      "stateMutability": "nonpayable",
      "type": "function"
    },
    {
      "inputs": [
        {
          "internalType": "bytes",
          "name": "_message",
          "type": "bytes"
        },
        {
          "internalType": "bytes32",
          "name": "_r",
          "type": "bytes32"
        },
        {
          "internalType": "bytes32",
          "name": "_s",
          "type": "bytes32"
        },
        {
          "internalType": "uint8",
          "name": "_v",
          "type": "uint8"
        }
      ],
      "name": "retryFailedWrapAndSwap",
      "outputs": [
        {
          "internalType": "bool",
          "name": "",
          "type": "bool"
        }
      ],
      "stateMutability": "nonpayable",
      "type": "function"
    },
    {
      "inputs": [
        {
          "internalType": "address",
          "name": "_across",
          "type": "address"
        }
      ],
      "name": "setAcross",
      "outputs": [],
      "stateMutability": "nonpayable",
      "type": "function"
    },
    {
      "inputs": [
        {
          "internalType": "address",
          "name": "_burnRouter",
          "type": "address"
        }
      ],
      "name": "setBurnRouter",
      "outputs": [],
      "stateMutability": "nonpayable",
      "type": "function"
    },
    {
      "inputs": [
        {
          "internalType": "uint256",
          "name": "_mappedId",
          "type": "uint256"
        },
        {
          "internalType": "uint256",
          "name": "_middleChain",
          "type": "uint256"
        },
        {
          "internalType": "uint256",
          "name": "_destinationChain",
          "type": "uint256"
        }
      ],
      "name": "setChainIdMapping",
      "outputs": [],
      "stateMutability": "nonpayable",
      "type": "function"
    },
    {
      "inputs": [
        {
          "internalType": "uint256",
          "name": "_appId",
          "type": "uint256"
        },
        {
          "internalType": "address",
          "name": "_exchangeConnector",
          "type": "address"
        }
      ],
      "name": "setExchangeConnector",
      "outputs": [],
      "stateMutability": "nonpayable",
      "type": "function"
    },
    {
      "inputs": [
        {
          "internalType": "address",
          "name": "_instantRouter",
          "type": "address"
        }
      ],
      "name": "setInstantRouter",
      "outputs": [],
      "stateMutability": "nonpayable",
      "type": "function"
    },
    {
      "inputs": [
        {
          "internalType": "address",
          "name": "_lockers",
          "type": "address"
        }
      ],
      "name": "setLockers",
      "outputs": [],
      "stateMutability": "nonpayable",
      "type": "function"
    },
    {
      "inputs": [
        {
          "internalType": "uint256",
          "name": "_protocolPercentageFee",
          "type": "uint256"
        }
      ],
      "name": "setProtocolPercentageFee",
      "outputs": [],
      "stateMutability": "nonpayable",
      "type": "function"
    },
    {
      "inputs": [
        {
          "internalType": "address",
          "name": "_relay",
          "type": "address"
        }
      ],
      "name": "setRelay",
      "outputs": [],
      "stateMutability": "nonpayable",
      "type": "function"
    },
    {
      "inputs": [
        {
          "internalType": "uint256",
          "name": "_startingBlockNumber",
          "type": "uint256"
        }
      ],
      "name": "setStartingBlockNumber",
      "outputs": [],
      "stateMutability": "nonpayable",
      "type": "function"
    },
    {
      "inputs": [
        {
          "internalType": "address",
          "name": "_teleBTC",
          "type": "address"
        }
      ],
      "name": "setTeleBTC",
      "outputs": [],
      "stateMutability": "nonpayable",
      "type": "function"
    },
    {
      "inputs": [
        {
          "internalType": "uint256",
          "name": "_thirdPartyId",
          "type": "uint256"
        },
        {
          "internalType": "address",
          "name": "_thirdPartyAddress",
          "type": "address"
        }
      ],
      "name": "setThirdPartyAddress",
      "outputs": [],
      "stateMutability": "nonpayable",
      "type": "function"
    },
    {
      "inputs": [
        {
          "internalType": "uint256",
          "name": "_thirdPartyId",
          "type": "uint256"
        },
        {
          "internalType": "uint256",
          "name": "_thirdPartyFee",
          "type": "uint256"
        }
      ],
      "name": "setThirdPartyFee",
      "outputs": [],
      "stateMutability": "nonpayable",
      "type": "function"
    },
    {
      "inputs": [
        {
          "internalType": "address",
          "name": "_treasury",
          "type": "address"
        }
      ],
      "name": "setTreasury",
      "outputs": [],
      "stateMutability": "nonpayable",
      "type": "function"
    },
    {
      "inputs": [
        {
          "internalType": "address",
          "name": "_wrappedNativeToken",
          "type": "address"
        }
      ],
      "name": "setWrappedNativeToken",
      "outputs": [],
      "stateMutability": "nonpayable",
      "type": "function"
    },
    {
      "inputs": [],
      "name": "startingBlockNumber",
      "outputs": [
        {
          "internalType": "uint256",
          "name": "",
          "type": "uint256"
        }
      ],
      "stateMutability": "view",
      "type": "function"
    },
    {
      "inputs": [
        {
          "internalType": "uint256",
          "name": "_chainId",
          "type": "uint256"
        }
      ],
      "name": "supportChain",
      "outputs": [],
      "stateMutability": "nonpayable",
      "type": "function"
    },
    {
      "inputs": [
        {
          "internalType": "uint256",
          "name": "chainId",
          "type": "uint256"
        },
        {
          "internalType": "address",
          "name": "_token",
          "type": "address"
        }
      ],
      "name": "supportToken",
      "outputs": [],
      "stateMutability": "nonpayable",
      "type": "function"
    },
    {
      "inputs": [],
      "name": "teleBTC",
      "outputs": [
        {
          "internalType": "address",
          "name": "",
          "type": "address"
        }
      ],
      "stateMutability": "view",
      "type": "function"
    },
    {
      "inputs": [
        {
          "internalType": "uint256",
          "name": "",
          "type": "uint256"
        }
      ],
      "name": "thirdPartyAddress",
      "outputs": [
        {
          "internalType": "address",
          "name": "",
          "type": "address"
        }
      ],
      "stateMutability": "view",
      "type": "function"
    },
    {
      "inputs": [
        {
          "internalType": "uint256",
          "name": "",
          "type": "uint256"
        }
      ],
      "name": "thirdPartyFee",
      "outputs": [
        {
          "internalType": "uint256",
          "name": "",
          "type": "uint256"
        }
      ],
      "stateMutability": "view",
      "type": "function"
    },
    {
      "inputs": [
        {
          "internalType": "address",
          "name": "newOwner",
          "type": "address"
        }
      ],
      "name": "transferOwnership",
      "outputs": [],
      "stateMutability": "nonpayable",
      "type": "function"
    },
    {
      "inputs": [],
      "name": "treasury",
      "outputs": [
        {
          "internalType": "address",
          "name": "",
          "type": "address"
        }
      ],
      "stateMutability": "view",
      "type": "function"
    },
    {
      "inputs": [
        {
          "internalType": "bytes",
          "name": "_message",
          "type": "bytes"
        },
        {
          "internalType": "bytes32",
          "name": "_r",
          "type": "bytes32"
        },
        {
          "internalType": "bytes32",
          "name": "_s",
          "type": "bytes32"
        },
        {
          "internalType": "uint8",
          "name": "_v",
          "type": "uint8"
        },
        {
          "internalType": "bytes",
          "name": "_lockerLockingScript",
          "type": "bytes"
        }
      ],
      "name": "withdrawFailedWrapAndSwap",
      "outputs": [
        {
          "internalType": "bool",
          "name": "",
          "type": "bool"
        }
      ],
      "stateMutability": "nonpayable",
      "type": "function"
    },
    {
      "inputs": [
        {
          "components": [
            {
              "internalType": "bytes4",
              "name": "version",
              "type": "bytes4"
            },
            {
              "internalType": "bytes",
              "name": "vin",
              "type": "bytes"
            },
            {
              "internalType": "bytes",
              "name": "vout",
              "type": "bytes"
            },
            {
              "internalType": "bytes4",
              "name": "locktime",
              "type": "bytes4"
            },
            {
              "internalType": "uint256",
              "name": "blockNumber",
              "type": "uint256"
            },
            {
              "internalType": "bytes",
              "name": "intermediateNodes",
              "type": "bytes"
            },
            {
              "internalType": "uint256",
              "name": "index",
              "type": "uint256"
            }
          ],
          "internalType": "struct ICcExchangeRouter.TxAndProof",
          "name": "_txAndProof",
          "type": "tuple"
        },
        {
          "internalType": "bytes",
          "name": "_lockerLockingScript",
          "type": "bytes"
        },
        {
          "internalType": "address[]",
          "name": "_path",
          "type": "address[]"
        }
      ],
      "name": "wrapAndSwap",
      "outputs": [
        {
          "internalType": "bool",
          "name": "",
          "type": "bool"
        }
      ],
      "stateMutability": "payable",
      "type": "function"
    },
    {
      "inputs": [],
      "name": "wrappedNativeToken",
      "outputs": [
        {
          "internalType": "address",
          "name": "",
          "type": "address"
        }
      ],
      "stateMutability": "view",
      "type": "function"
    },
    {
      "stateMutability": "payable",
      "type": "receive"
    }
  ],
  "transactionHash": "0xc21daa01460c71fec569a479bdfeed3739af0b7d2fb1a46db4a86442cb4d0636",
  "args": [],
  "numDeployments": 1,
  "solcInputHash": "9ca654810ef97c60adfed8de3af802a8",
  "bytecode": "0x608060405234801561001057600080fd5b50614615806100206000396000f3fe60806040526004361061024d5760003560e01c80637f0f1817116101355780637f0f18171461068457806380615bb9146106a457806380bc4726146106c4578063870ba6cf146106e45780638d3d78cd146107045780638d5fc1d4146107245780638da5cb5b146107445780638f9eb78b14610759578063913967d31461077957806393c5c73a146108025780639a8a059214610822578063a015f99c14610838578063a9ac591914610858578063a9b6827114610878578063b14d3532146108ae578063b59589d1146108ce578063bd51aaa3146108ee578063c805f68b14610961578063cbf50bb614610981578063da058ae3146109a1578063e35a0a88146109c1578063e45b5c29146109e1578063ea2979ee14610a1c578063f0f4426014610a3c578063f2fde38b14610a5c57600080fd5b806306be8b0e1461025957806317fcb39b146102fb5780631812adb6146103335780631876dec4146103575780631dc4b09c146103775780631e7107c714610399578063292c1d92146103b957806333fe5676146103d957806342b5dcd0146103f95780634e63ba951461040f5780635221c1f0146104585780635279feed14610498578063527b42a6146104b857806359fd0b0c146104e857806361849f751461051557806361be10f21461053557806361d027b3146105555780636b2857ef146105755780636c32b2ec146105955780636e8adf61146105b557806370872aa5146105eb578063715018a61461060157806375979f79146106165780637a218135146106515780637ed557481461066457600080fd5b3661025457005b600080fd5b34801561026557600080fd5b506102bb610274366004613b25565b60a76020526000908152604090208054600182015460028301546003840154600485015460058601546006870154600790970154959660ff90951695939492939192909188565b604080519889529615156020890152958701949094526060860192909252608085015260a084015260c083015260e0820152610100015b60405180910390f35b34801561030757600080fd5b5060a95461031b906001600160a01b031681565b6040516001600160a01b0390911681526020016102f2565b34801561033f57600080fd5b5061034960025481565b6040519081526020016102f2565b34801561036357600080fd5b5060055461031b906001600160a01b031681565b34801561038357600080fd5b50610397610392366004613a27565b610a7c565b005b3480156103a557600080fd5b506103976103b4366004613b25565b610a90565b3480156103c557600080fd5b5060a85461031b906001600160a01b031681565b3480156103e557600080fd5b506103976103f4366004613b55565b610aa1565b34801561040557600080fd5b5061034960a15481565b34801561041b57600080fd5b5061044361042a366004613b25565b60ab602052600090815260409020805460019091015482565b604080519283526020830191909152016102f2565b34801561046457600080fd5b50610488610473366004613b25565b60a66020526000908152604090205460ff1681565b60405190151581526020016102f2565b3480156104a457600080fd5b506103976104b3366004613f07565b610b0f565b3480156104c457600080fd5b506103496104d3366004613b25565b600090815260ab602052604090206001015490565b3480156104f457600080fd5b50610349610503366004613b25565b60ac6020526000908152604090205481565b34801561052157600080fd5b50610488610530366004613cc5565b610b27565b34801561054157600080fd5b50610397610550366004613a27565b610f4e565b34801561056157600080fd5b5060075461031b906001600160a01b031681565b34801561058157600080fd5b50610397610590366004613b55565b610f5f565b3480156105a157600080fd5b5060aa5461031b906001600160a01b031681565b3480156105c157600080fd5b5061031b6105d0366004613b25565b6008602052600090815260409020546001600160a01b031681565b3480156105f757600080fd5b5061034960005481565b34801561060d57600080fd5b50610397610fcc565b34801561062257600080fd5b50610488610631366004613b55565b60a560209081526000928352604080842090915290825290205460ff1681565b61048861065f366004613db3565b610fd6565b34801561067057600080fd5b5061039761067f366004613b25565b611619565b34801561069057600080fd5b5061039761069f366004613a27565b61162a565b3480156106b057600080fd5b506104886106bf366004613d25565b61163b565b3480156106d057600080fd5b506104886106df366004613b25565b61191d565b3480156106f057600080fd5b506103976106ff366004613a27565b611946565b34801561071057600080fd5b5060065461031b906001600160a01b031681565b34801561073057600080fd5b5061039761073f366004613b55565b611957565b34801561075057600080fd5b5061031b61196d565b34801561076557600080fd5b50610397610774366004613ee6565b61197c565b34801561078557600080fd5b506107d0610794366004613b25565b60a4602052600090815260409020805460018201546002830154600384015460049094015492936001600160a01b039092169290919060ff1685565b604080519586526001600160a01b0390941660208601529284019190915260608301521515608082015260a0016102f2565b34801561080e57600080fd5b5061044361081d366004613b25565b61198e565b34801561082e57600080fd5b5061034960015481565b34801561084457600080fd5b50610397610853366004613f32565b6119a8565b34801561086457600080fd5b50610397610873366004613b55565b611b17565b34801561088457600080fd5b5061031b610893366004613b25565b60ad602052600090815260409020546001600160a01b031681565b3480156108ba57600080fd5b506103976108c9366004613a27565b611b88565b3480156108da57600080fd5b5060035461031b906001600160a01b031681565b3480156108fa57600080fd5b5061093e610909366004613b55565b60a260209081526000928352604080842090915290825290208054600182015460029092015490916001600160a01b03169083565b604080519384526001600160a01b039092166020840152908201526060016102f2565b34801561096d57600080fd5b5061039761097c366004613a27565b611b99565b34801561098d57600080fd5b5061039761099c366004613b25565b611baa565b3480156109ad57600080fd5b506103976109bc366004613a27565b611bfd565b3480156109cd57600080fd5b5060045461031b906001600160a01b031681565b3480156109ed57600080fd5b506103496109fc366004613b55565b60a360209081526000928352604080842090915290825290206001015481565b348015610a2857600080fd5b50610397610a37366004613b25565b611c0e565b348015610a4857600080fd5b50610397610a57366004613a27565b611c64565b348015610a6857600080fd5b50610397610a77366004613a27565b611c75565b610a84611ceb565b610a8d81611d4a565b50565b610a98611ceb565b610a8d81611ddc565b610aa9611ceb565b7fb3036f81a7a8205f3b94de16897df636d553839d92289fb7ec72dd2d541328428282604051610ada9291906143aa565b60405180910390a1600091825260a5602090815260408084206001600160a01b0390931684529190529020805460ff19169055565b610b17611ceb565b610b22828285611e44565b505050565b6000610b31611eb1565b600080600080600089806020019051810190610b4d9190613b84565b600085815260096020908152604080832081516101608101835281548152600182015481850152600282015481840152600382015460ff808216151560608401526101009091046001600160a01b03166080830152600483015460a0830152600583015416151560c08201526006820180548451818702810187019095528085529a9f50989d50969b5094995092975090959394929360e086019391830182828015610c2257602002820191906000526020600020905b81546001600160a01b03168152600190910190602001808311610c04575b5050509183525050600782810154602080840191909152600884015460408085019190915260099094015460609384015260008b815260a7808352858220865161010081018852815480825260018084015460ff1615158388015260028401549983019990995260038301549782019790975260048201546080820152600582015460a0820152600682015460c082015294015460e08501529454908c905293905292935014801590610ce75750600087815260a7602052604090206001015460ff16155b610d0c5760405162461bcd60e51b8152600401610d039061420a565b60405180910390fd5b600160a7600089815260200190815260200160002060010160006101000a81548160ff02191690831515021790555081608001516001600160a01b0316735DbF9901Ed5a3ea8DBFAa96e57a118a8A1AAEF016328e25ef28e8e8e8e6040518563ffffffff1660e01b8152600401610d8694939291906141d8565b60206040518083038186803b158015610d9e57600080fd5b505af4158015610db2573d6000803e3d6000fd5b505050506040513d601f19601f82011682018060405250810190610dd69190613a4a565b6001600160a01b031614610dfc5760405162461bcd60e51b8152600401610d0390614296565b6040805160e08101825282518152602080820186905281830185905260608201849052608082018a905260a08201879052845160009081526008909152918220546001600160a01b031660c08201528190610e5690611f0b565b9150915081610ea55760405162461bcd60e51b815260206004820152601b60248201527a115e18da185b99d9549bdd5d195c8e881cddd85c0819985a5b1959602a1b6044820152606401610d03565b600089815260a760205260409020548651610f2f91908890610ec99060019061454c565b81518110610ee757634e487b7160e01b600052603260045260246000fd5b60200260200101518360018551610efe919061454c565b81518110610f1c57634e487b7160e01b600052603260045260246000fd5b602002602001015187608001518b6127ba565b60019950505050505050505050610f466001606f55565b949350505050565b610f56611ceb565b610a8d81612923565b610f67611ceb565b6000828152600860205260409081902080546001600160a01b0319166001600160a01b038416179055517f31a8c4e62daac2a3ed5d713004d9ae867d6dcddfa35603db2a4b65d9236b1bc190610fc090849084906143aa565b60405180910390a15050565b610fd4611ceb565b565b6000610fe0611eb1565b6004546001600160a01b0316336001600160a01b0316146110435760405162461bcd60e51b815260206004820152601e60248201527f45786368616e6765526f757465723a20696e76616c69642073656e64657200006044820152606401610d03565b600054856080015110156110975760405162461bcd60e51b815260206004820152601b60248201527a115e18da185b99d9549bdd5d195c8e881bdb19081c995c5d595cdd602a1b6044820152606401610d03565b60608501516001600160e01b031916156110fd5760405162461bcd60e51b815260206004820152602160248201527f45786368616e6765526f757465723a206e6f6e2d7a65726f206c6f636b74696d6044820152606560f81b6064820152608401610d03565b60055460405163aff2faa360e01b81526001600160a01b039091169063aff2faa39061112f9087908790600401614183565b60206040518083038186803b15801561114757600080fd5b505afa15801561115b573d6000803e3d6000fd5b505050506040513d601f19601f8201168201806040525081019061117f9190613a66565b6111c85760405162461bcd60e51b815260206004820152601a60248201527922bc31b430b733b2a937baba32b91d103737ba103637b1b5b2b960311b6044820152606401610d03565b6006546003546040516342cfb5c360e11b8152600092735DbF9901Ed5a3ea8DBFAa96e57a118a8A1AAEF019263859f6b8692611222928b9260099260a7926001600160a01b03908116928e928e92909116906004016142cd565b60206040518083038186803b15801561123a57600080fd5b505af415801561124e573d6000803e3d6000fd5b505050506040513d601f19601f820116820180604052508101906112729190613b3d565b600081815260a760205260408120549192509081906112909061198e565b9150915060015482146112e35760405162461bcd60e51b815260206004820152601b60248201527a22bc31b430b733b2a937baba32b91d103bb937b7339031b430b4b760291b6044820152606401610d03565b600081815260a6602052604090205460ff1680611301575060015481145b61134d5760405162461bcd60e51b815260206004820181905260248201527f45786368616e6765526f757465723a20696e76616c696420636861696e2069646044820152606401610d03565b808214156113bf57600083815260a76020526040902060030154156113bf5760405162461bcd60e51b815260206004820152602260248201527f45786368616e6765526f757465723a20696e76616c6964206272646967652066604482015261656560f01b6064820152608401610d03565b600083815260096020908152604080832081516101608101835281548152600182015481850152600282015481840152600382015460ff808216151560608401526101009091046001600160a01b03166080830152600483015460a0830152600583015416151560c08201526006820180548451818702810187019095528085529194929360e086019390929083018282801561148557602002820191906000526020600020905b81546001600160a01b03168152600190910190602001808311611467575b505050918352505060078201546020808301919091526008808401546040808501919091526009909401546060909301929092528351600090815291905220549091506001600160a01b03168061151e5760405162461bcd60e51b815260206004820152601d60248201527f45786368616e6765526f757465723a20696e76616c69642061707049640000006044820152606401610d03565b61155f89898080601f0160208091040260200160405190810160405280939291908181526020018383808284376000920191909152508992506129b5915050565b6001548314156115b2576115ad818a8a8080601f0160208091040260200160405190810160405280939291908181526020018383808284376000920191909152508a92508c9150612d669050565b611606565b611606818a8a8080601f01602080910402602001604051908101604052809392919081815260200183838082843760009201829052508b815260a760205260409020600301548b93508d9250905088612fbd565b600195505050505050610f466001606f55565b611621611ceb565b610a8d816132c5565b611632611ceb565b610a8d81613366565b6000611645611eb1565b60008060008980602001905181019061165e9190613c66565b50600154600084815260a760205260409020549396509194509250148015906116995750600083815260a7602052604090206001015460ff16155b6116b55760405162461bcd60e51b8152600401610d039061420a565b600083815260a7602090815260408083206001908101805460ff191690911790556009909152908190206003015490516314712f7960e11b81526101009091046001600160a01b031690735DbF9901Ed5a3ea8DBFAa96e57a118a8A1AAEF01906328e25ef29061172f908e908e908e908e906004016141d8565b60206040518083038186803b15801561174757600080fd5b505af415801561175b573d6000803e3d6000fd5b505050506040513d601f19601f8201168201806040525081019061177f9190613a4a565b6001600160a01b0316146117a55760405162461bcd60e51b8152600401610d0390614296565b60065460aa54600085815260a760205260409081902060020154905163095ea7b360e01b81526001600160a01b039384169363095ea7b3936117ec93911691600401614157565b602060405180830381600087803b15801561180657600080fd5b505af115801561181a573d6000803e3d6000fd5b505050506040513d601f19601f8201168201806040525081019061183e9190613a66565b5060aa54600084815260a760205260409020600201546001600160a01b0390911690633fea4367908360ff8616600581111561188a57634e487b7160e01b600052602160045260246000fd5b8a8a60006040518763ffffffff1660e01b81526004016118af969594939291906143c1565b602060405180830381600087803b1580156118c957600080fd5b505af11580156118dd573d6000803e3d6000fd5b505050506040513d601f19601f820116820180604052508101906119019190613b3d565b50600193505050506119136001606f55565b9695505050505050565b60008181526009602052604081206005015460ff1661193d576000611940565b60015b92915050565b61194e611ceb565b610a8d816133f8565b61195f611ceb565b611969828261348a565b5050565b603d546001600160a01b031690565b611984611ceb565b6119698282613526565b600090815260ab6020526040902080546001909101549091565b600a54610100900460ff16158080156119c85750600a54600160ff909116105b806119e25750303b1580156119e25750600a5460ff166001145b611a455760405162461bcd60e51b815260206004820152602e60248201527f496e697469616c697a61626c653a20636f6e747261637420697320616c72656160448201526d191e481a5b9a5d1a585b1a5e995960921b6064820152608401610d03565b600a805460ff191660011790558015611a6857600a805461ff0019166101001790555b611a70613587565b611a786135b6565b6001889055611a868a611ddc565b611a8f896132c5565b611a98866135e5565b611aa187613677565b611aaa85613366565b611ab384613709565b611abc83612923565b611ac582611d4a565b8015611b0b57600a805461ff0019169055604051600181527f7f26b83ff96e1f2b6a682f133852f6798a09c465da95921460cefb38474024989060200160405180910390a15b50505050505050505050565b611b1f611ceb565b7fca37a60f79854243dcab36b6ad6fcaafc7ae13448087ee70547943babc7dccf08282604051611b509291906143aa565b60405180910390a1600091825260a5602090815260408084206001600160a01b0390931684529190529020805460ff19166001179055565b611b90611ceb565b610a8d81613677565b611ba1611ceb565b610a8d816135e5565b611bb2611ceb565b6040518181527f11a9d1a77f76361ed131c19b1dc5758504c51dbde2e49fc973a0ef9577ad13d59060200160405180910390a1600090815260a660205260409020805460ff19169055565b611c05611ceb565b610a8d8161379b565b611c16611ceb565b6040518181527fbba9d55e9fd1a441b1617724e2fdb76777d15ec77ab2b72ac15952cbe97085db9060200160405180910390a1600090815260a660205260409020805460ff19166001179055565b611c6c611ceb565b610a8d81613709565b611c7d611ceb565b6001600160a01b038116611ce25760405162461bcd60e51b815260206004820152602660248201527f4f776e61626c653a206e6577206f776e657220697320746865207a65726f206160448201526564647265737360d01b6064820152608401610d03565b610a8d81613804565b33611cf461196d565b6001600160a01b031614610fd45760405162461bcd60e51b815260206004820181905260248201527f4f776e61626c653a2063616c6c6572206973206e6f7420746865206f776e65726044820152606401610d03565b806001600160a01b038116611d725760405163d92e233d60e01b815260040160405180910390fd5b60aa546040517f5b663d57fa8cf393f8c8019f514b25c1b3223c9324a2ce3efe28ce5aef0e62fe91611db1916001600160a01b039091169085906140a0565b60405180910390a15060aa80546001600160a01b0319166001600160a01b0392909216919091179055565b6000548111611e3f5760405162461bcd60e51b815260206004820152602960248201527f434345786368616e6765526f757465723a206c6f77207374617274696e67426c60448201526837b1b5a73ab6b132b960b91b6064820152608401610d03565b600055565b60408051828152602081018590529081018390527fd4d81e1736e6dd2e97d0c6eff0dc7ec7184dec2bd4e03ce98d84d6057a8045c49060600160405180910390a16040805180820182529384526020808501938452600092835260ab905290209151825551600190910155565b6002606f541415611f045760405162461bcd60e51b815260206004820152601f60248201527f5265656e7472616e637947756172643a207265656e7472616e742063616c6c006044820152606401610d03565b6002606f55565b6000606060015483600001511480611f8a57508251600090815260a56020526040812060a08501518051919291611f449060019061454c565b81518110611f6257634e487b7160e01b600052603260045260246000fd5b6020908102919091018101516001600160a01b031682528101919091526040016000205460ff165b1561233a5760065460c08401516060850151604090810151905163095ea7b360e01b81526001600160a01b039093169263095ea7b392611fce929091600401614157565b602060405180830381600087803b158015611fe857600080fd5b505af1158015611ffc573d6000803e3d6000fd5b505050506040513d601f19601f820116820180604052508101906120209190613a66565b5060c083015160a08401516040516326d2f28960e21b81526001600160a01b0390921691639b4bca249161205691600401614170565b60206040518083038186803b15801561206e57600080fd5b505afa158015612082573d6000803e3d6000fd5b505050506040513d601f19601f820116820180604052508101906120a69190613a66565b156123355760065460a084015180516001600160a01b03909216916000906120de57634e487b7160e01b600052603260045260246000fd5b60200260200101516001600160a01b03161480156121855750604083015160e00151805161210e9060019061454c565b8151811061212c57634e487b7160e01b600052603260045260246000fd5b60200260200101516001600160a01b03168360a0015160018560a0015151612154919061454c565b8151811061217257634e487b7160e01b600052603260045260246000fd5b60200260200101516001600160a01b0316145b6121d15760405162461bcd60e51b815260206004820152601e60248201527f436345786368616e6765526f757465723a20696e76616c6964207061746800006044820152606401610d03565b60c08301516060840151604090810151818601518083015160a0880151608090920151935163161779b160e31b81526001600160a01b039095169463b0bbcd88946122259493914290600190600401614423565b600060405180830381600087803b15801561223f57600080fd5b505af1158015612253573d6000803e3d6000fd5b505050506040513d6000823e601f3d908101601f1916820160405261227b9190810190613a80565b9092509050816123355760c08301516060840151604090810151818601518083015160e0820151608090920151935163161779b160e31b81526001600160a01b039095169463b0bbcd88946122d99493914290600190600401614423565b600060405180830381600087803b1580156122f357600080fd5b505af1158015612307573d6000803e3d6000fd5b505050506040513d6000823e601f3d908101601f1916820160405261232f9190810190613a80565b90925090505b61233f565b600091505b81156125de576000670de0b6b3a76400008460600151606001518360018551612368919061454c565b8151811061238657634e487b7160e01b600052603260045260246000fd5b6020026020010151612398919061452d565b6123a2919061450d565b905060006040518060a00160405280866040015160a001518152602001866060015160e001518152602001866060015160a001518152602001866060015160c0015181526020018381525090506123f63390565b60408087015161012081015160809091015160055460208a0151935163626885b560e11b81526001600160a01b03958616959394928416937f83f3c3e82621afa914bb49ee3bc3bcadb1d41b3d6f836aa437172cbb3d4dbb6e9392169163c4d10b6a916124669190600401614197565b60206040518083038186803b15801561247e57600080fd5b505afa158015612492573d6000803e3d6000fd5b505050506040513d601f19601f820116820180604052508101906124b69190613a4a565b604080518082019091526006546001600160a01b0316815260a08b015180516020830191906124e79060019061454c565b8151811061250557634e487b7160e01b600052603260045260246000fd5b60200260200101516001600160a01b03166001600160a01b031681525060405180604001604052808a60008151811061254e57634e487b7160e01b600052603260045260246000fd5b60200260200101518152602001898b60018d5161256b919061454c565b8151811061258957634e487b7160e01b600052603260045260246000fd5b602002602001015161259b919061454c565b8152508b608001518c60400151600001518d60600151608001518a8f600001516040516125cf9897969594939291906140ba565b60405180910390a45050915091565b60006040518060a00160405280856040015160a001518152602001856060015160e001518152602001856060015160a001518152602001856060015160c001518152602001600081525090506126313390565b6040808601516101208101516080909101516005546020890151935163626885b560e11b81526001600160a01b03958616959394928416937f4bdbd9bfa84241c4a39e7be48e0a8678cfbecfbcfae5d87f01b13de30b8c9e9a9392169163c4d10b6a916126a19190600401614197565b60206040518083038186803b1580156126b957600080fd5b505afa1580156126cd573d6000803e3d6000fd5b505050506040513d601f19601f820116820180604052508101906126f19190613a4a565b604080518082019091526006546001600160a01b0316815260a08a015180516020830191906127229060019061454c565b8151811061274057634e487b7160e01b600052603260045260246000fd5b60200260200101516001600160a01b03166001600160a01b031681525060405180604001604052808b6060015160400151815260200160008152508a608001518b60400151600001518c60600151608001518a8e600001516040516127ac9897969594939291906140ba565b60405180910390a450915091565b60a85460405163095ea7b360e01b81526001600160a01b038681169263095ea7b3926127ee92909116908790600401614157565b602060405180830381600087803b15801561280857600080fd5b505af115801561281c573d6000803e3d6000fd5b505050506040513d601f19601f820116820180604052508101906128409190613a66565b5060a8546001600160a01b0316631186ec3383868661286e8a600090815260ab602052604090206001015490565b6040516001600160e01b031960e087901b1681526001600160a01b03948516600482015293909216602484015260448301526064820152600784900b608482015263ffffffff421660a482015261010060c4820152600261010482015261060f60f31b61012482015260001960e482015261014401600060405180830381600087803b1580156128fd57600080fd5b505af1158015612911573d6000803e3d6000fd5b505050505050505050565b6001606f55565b806001600160a01b03811661294b5760405163d92e233d60e01b815260040160405180910390fd5b60a8546040517f06e5f2ca1234f717a2031f662608c02182d4f8bdc3dab013ec4c04eb975531329161298a916001600160a01b039091169085906140a0565b60405180910390a15060a880546001600160a01b0319166001600160a01b0392909216919091179055565b6005546000828152600960205260408082206001015490516307f3f86760e21b815291926001600160a01b031691631fcfe19c916129f991879130916004016141aa565b602060405180830381600087803b158015612a1357600080fd5b505af1158015612a27573d6000803e3d6000fd5b505050506040513d601f19601f82011682018060405250810190612a4b9190613b3d565b60025460008481526009602052604090206001015491925061271091612a71919061452d565b612a7b919061450d565b600083815260a76020908152604080832060058101949094556009808352818420600480820154960154855260ac845291842054938790529091526001015461271091612ac79161452d565b612ad1919061450d565b600084815260a76020908152604080832060060193909355600990522060010154612afd90839061454c565b600084815260a760205260409020600701558015612b99576006546001600160a01b031663a9059cbb33836040518363ffffffff1660e01b8152600401612b45929190614157565b602060405180830381600087803b158015612b5f57600080fd5b505af1158015612b73573d6000803e3d6000fd5b505050506040513d601f19601f82011682018060405250810190612b979190613a66565b505b600083815260a7602052604090206005015415612c4b57600654600754600085815260a760205260409081902060050154905163a9059cbb60e01b81526001600160a01b039384169363a9059cbb93612bf793911691600401614157565b602060405180830381600087803b158015612c1157600080fd5b505af1158015612c25573d6000803e3d6000fd5b505050506040513d601f19601f82011682018060405250810190612c499190613a66565b505b600083815260a7602052604090206006015415612d125760068054600085815260a760208181526040808420600480820154865260ad845282862054958b905293909252940154935163a9059cbb60e01b81526001600160a01b039384169463a9059cbb94612cbe941692909101614157565b602060405180830381600087803b158015612cd857600080fd5b505af1158015612cec573d6000803e3d6000fd5b505050506040513d601f19601f82011682018060405250810190612d109190613a66565b505b600083815260a76020526040902060068101546005909101548290612d37908561454c565b612d41919061454c565b612d4b919061454c565b600093845260a7602052604090932060020192909255505050565b6040805160e080820183526001805483526020808401889052600087815260098252858120865161016081018852815481529381015484840152600281015484880152600381015460ff808216151560608701526101009091046001600160a01b03166080860152600482015460a0860152600582015416151560c08501526006810180548851818602810186018a528181529398612f029897908801969593949086019390929190830182828015612e4857602002820191906000526020600020905b81546001600160a01b03168152600190910190602001808311612e2a575b5050509183525050600782810154602080840191909152600884015460408085019190915260099094015460609384015293855260008a815260a7855283902083516101008101855281548152600182015460ff161515818701526002820154818601526003820154818501526004820154608080830191909152600583015460a0830152600683015460c0830152919092015460e08301529385015290830188905282018690526001600160a01b038916910152611f0b565b50905080612fb65760065460008481526009602090815260408083206003015460a79092529182902060020154915163a9059cbb60e01b81526001600160a01b039384169363a9059cbb93612f6293610100900490911691600401614157565b602060405180830381600087803b158015612f7c57600080fd5b505af1158015612f90573d6000803e3d6000fd5b505050506040513d601f19601f82011682018060405250810190612fb49190613a66565b505b5050505050565b6040805160e08082018352838252602080830189905260008881526009825284812085516101608101875281548152600182015481850152600282015481880152600382015460ff808216151560608401526101009091046001600160a01b03166080830152600483015460a0830152600583015416151560c08201526006820180548851818702810187018a528181529498899861315a9890979188019694959490860193909290918301828280156130a057602002820191906000526020600020905b81546001600160a01b03168152600190910190602001808311613082575b5050509183525050600782810154602080840191909152600884015460408085019190915260099094015460609384015293855260008d815260a7855283902083516101008101855281548152600182015460ff161515818701526002820154818601526003820154818501526004820154608080830191909152600583015460a0830152600683015460c0830152919092015460e0830152938501529083018b905282018990526001600160a01b038c16910152611f0b565b91509150811561322557600086815260a7602052604090206001818101805460ff19168217905590548651613220928891613195919061454c565b815181106131b357634e487b7160e01b600052603260045260246000fd5b602002602001015183600185516131ca919061454c565b815181106131e857634e487b7160e01b600052603260045260246000fd5b6020026020010151600960008b815260200190815260200160002060030160019054906101000a90046001600160a01b0316886127ba565b6132bb565b600654600087815260a760205260409081902060020154905163095ea7b360e01b81526001600160a01b039092169163095ea7b391613269918c9190600401614157565b602060405180830381600087803b15801561328357600080fd5b505af1158015613297573d6000803e3d6000fd5b505050506040513d601f19601f820116820180604052508101906129119190613a66565b5050505050505050565b8061271010156133255760405162461bcd60e51b815260206004820152602560248201527f434345786368616e6765526f757465723a20666565206973206f7574206f662060448201526472616e676560d81b6064820152608401610d03565b60025460408051918252602082018390527f7d205f60891f60851c61cd244ba387d72b6589e7c0ac41b9d909ab0ce2c2a53b910160405180910390a1600255565b806001600160a01b03811661338e5760405163d92e233d60e01b815260040160405180910390fd5b6006546040517f36a4c08a38b736dcecb6c328dba61238529620e83ccb23db2cc43cd34ec26096916133cd916001600160a01b039091169085906140a0565b60405180910390a150600680546001600160a01b0319166001600160a01b0392909216919091179055565b806001600160a01b0381166134205760405163d92e233d60e01b815260040160405180910390fd5b6004546040517f12ad124e13af4c31364ad22aa74320e167b37f005dafb75d71a210c49da3629e9161345f916001600160a01b039091169085906140a0565b60405180910390a150600480546001600160a01b0319166001600160a01b0392909216919091179055565b600082815260ad6020526040908190205490517f1e73962bcff5b98a9ac70c9b0f71fbb31dc0f5a09348c6d3ceab164169a9e729916134f09185916001600160a01b03169085909283526001600160a01b03918216602084015216604082015260600190565b60405180910390a1600091825260ad602052604090912080546001600160a01b0319166001600160a01b03909216919091179055565b600082815260ac6020908152604091829020548251858152918201529081018290527f188adabf806a6b6d814acc1dbd9f09e5a251c8c065d6285749a5824e4579b6459060600160405180910390a1600091825260ac602052604090912055565b600a54610100900460ff166135ae5760405162461bcd60e51b8152600401610d039061424b565b610fd4613856565b600a54610100900460ff166135dd5760405162461bcd60e51b8152600401610d039061424b565b610fd4613886565b806001600160a01b03811661360d5760405163d92e233d60e01b815260040160405180910390fd5b6003546040517f4c28a3f61a715259c4dc930c23e7423b8fa52e13232c061a6e488729c66184f49161364c916001600160a01b039091169085906140a0565b60405180910390a150600380546001600160a01b0319166001600160a01b0392909216919091179055565b806001600160a01b03811661369f5760405163d92e233d60e01b815260040160405180910390fd5b6005546040517ffa021c2ec0f46429a53e7f88b88065e40001f50c9d38b2e8b713beaf9828d4c3916136de916001600160a01b039091169085906140a0565b60405180910390a150600580546001600160a01b0319166001600160a01b0392909216919091179055565b806001600160a01b0381166137315760405163d92e233d60e01b815260040160405180910390fd5b6007546040517f567657fa3f286518b318f4a29870674f433f622fdfc819691acb13105b22822591613770916001600160a01b039091169085906140a0565b60405180910390a150600780546001600160a01b0319166001600160a01b0392909216919091179055565b60a9546040517f4da8064030e901e42f6de0ab04f4c322d7936d0120503addfe8a51f127090689916137da916001600160a01b039091169084906140a0565b60405180910390a160a980546001600160a01b0319166001600160a01b0392909216919091179055565b603d80546001600160a01b038381166001600160a01b0319831681179093556040519116919082907f8be0079c531659141344cd1fd0a4f28419497f9722a3daafe3b4186f6b6457e090600090a35050565b600a54610100900460ff1661387d5760405162461bcd60e51b8152600401610d039061424b565b610fd433613804565b600a54610100900460ff1661291c5760405162461bcd60e51b8152600401610d039061424b565b600082601f8301126138bd578081fd5b813560206138d26138cd836144c3565b614493565b80838252828201915082860187848660051b89010111156138f1578586fd5b855b85811015613918578135613906816145bb565b845292840192908401906001016138f3565b5090979650505050505050565b8051801515811461393557600080fd5b919050565b80356001600160e01b03198116811461393557600080fd5b60008083601f840112613963578182fd5b5081356001600160401b03811115613979578182fd5b60208301915083602082850101111561399157600080fd5b9250929050565b600082601f8301126139a8578081fd5b81356139b66138cd826144e6565b8181528460208386010111156139ca578283fd5b816020850160208301379081016020019190915292915050565b600082601f8301126139f4578081fd5b8151613a026138cd826144e6565b818152846020838601011115613a16578283fd5b610f46826020830160208701614563565b600060208284031215613a38578081fd5b8135613a43816145bb565b9392505050565b600060208284031215613a5b578081fd5b8151613a43816145bb565b600060208284031215613a77578081fd5b613a4382613925565b60008060408385031215613a92578081fd5b613a9b83613925565b91506020808401516001600160401b03811115613ab6578283fd5b8401601f81018613613ac6578283fd5b8051613ad46138cd826144c3565b80828252848201915084840189868560051b8701011115613af3578687fd5b8694505b83851015613b15578051835260019490940193918501918501613af7565b5080955050505050509250929050565b600060208284031215613b36578081fd5b5035919050565b600060208284031215613b4e578081fd5b5051919050565b60008060408385031215613b67578182fd5b823591506020830135613b79816145bb565b809150509250929050565b600080600080600060a08688031215613b9b578081fd5b8551945060208087015194506040870151935060608701516001600160401b0380821115613bc7578384fd5b818901915089601f830112613bda578384fd5b8151613be86138cd826144c3565b8082825285820191508585018d878560051b8801011115613c07578788fd5b8795505b83861015613c32578051613c1e816145bb565b835260019590950194918601918601613c0b565b5060808c01519097509450505080831115613c4b578384fd5b5050613c59888289016139e4565b9150509295509295909350565b60008060008060808587031215613c7b578182fd5b845193506020850151613c8d816145d0565b60408601519093506001600160401b03811115613ca8578283fd5b613cb4878288016139e4565b606096909601519497939650505050565b60008060008060808587031215613cda578182fd5b84356001600160401b03811115613cef578283fd5b613cfb87828801613998565b94505060208501359250604085013591506060850135613d1a816145d0565b939692955090935050565b60008060008060008060a08789031215613d3d578384fd5b86356001600160401b0380821115613d53578586fd5b613d5f8a838b01613998565b9750602089013596506040890135955060608901359150613d7f826145d0565b90935060808801359080821115613d94578283fd5b50613da189828a01613952565b979a9699509497509295939492505050565b60008060008060608587031215613dc8578182fd5b84356001600160401b0380821115613dde578384fd5b9086019060e08289031215613df1578384fd5b613df961446b565b613e028361393a565b8152602083013582811115613e15578586fd5b613e218a828601613998565b602083015250604083013582811115613e38578586fd5b613e448a828601613998565b604083015250613e566060840161393a565b60608201526080830135608082015260a083013582811115613e76578586fd5b613e828a828601613998565b60a08301525060c083013560c0820152809650506020870135915080821115613ea9578384fd5b613eb588838901613952565b90955093506040870135915080821115613ecd578283fd5b50613eda878288016138ad565b91505092959194509250565b60008060408385031215613ef8578182fd5b50508035926020909101359150565b600080600060608486031215613f1b578081fd5b505081359360208301359350604090920135919050565b60008060008060008060008060006101208a8c031215613f50578687fd5b8935985060208a0135975060408a0135965060608a0135613f70816145bb565b955060808a0135613f80816145bb565b945060a08a0135613f90816145bb565b935060c08a0135613fa0816145bb565b925060e08a0135613fb0816145bb565b91506101008a0135613fc1816145bb565b809150509295985092959850929598565b6001600160a01b03169052565b6000815180845260208085019450808401835b838110156140175781516001600160a01b031687529582019590820190600101613ff2565b509495945050505050565b8060005b6005811015614045578151845260209384019390910190600101614026565b50505050565b81835281816020850137506000828201602090810191909152601f909101601f19169091010190565b6000815180845261408c816020860160208601614563565b601f01601f19169290920160200192915050565b6001600160a01b0392831681529116602082015260400190565b6001600160a01b0389811682526101c082019060208084018b60005b60028110156140f55781518516835291830191908301906001016140d6565b5050506060840191508960005b600281101561411f57815184529282019290820190600101614102565b505050508660a08301528560c08301528460e0830152614143610100830185614022565b826101a08301529998505050505050505050565b6001600160a01b03929092168252602082015260400190565b602081526000613a436020830184613fdf565b602081526000610f4660208301848661404b565b602081526000613a436020830184614074565b6060815260006141bd6060830186614074565b6001600160a01b039490941660208301525060400152919050565b6080815260006141eb6080830187614074565b602083019590955250604081019290925260ff16606090910152919050565b60208082526021908201527f45786368616e6765526f757465723a20616c72656164792070726f63657373656040820152601960fa1b606082015260800190565b6020808252602b908201527f496e697469616c697a61626c653a20636f6e7472616374206973206e6f74206960408201526a6e697469616c697a696e6760a81b606082015260800190565b6020808252601e908201527f45786368616e6765526f757465723a20696e76616c6964207369676e65720000604082015260600190565b60c08152600063ffffffff60e01b808a511660c084015260208a015160e0808501526142fd6101a0850182614074565b905060408b015160bf19808684030161010087015261431c8383614074565b92508360608e01511661012087015260808d015161014087015260a08d01519350808684030161016087015250506143548183614074565b91505060c08a015161018084015288602084015287604084015261437b6060840188613fd2565b828103608084015261438e81868861404b565b91505061439e60a0830184613fd2565b98975050505050505050565b9182526001600160a01b0316602082015260400190565b86815260a0602082015260006143da60a0830188614074565b600687106143f657634e487b7160e01b82526021600452602482fd5b866040840152828103606084015261440f81868861404b565b915050826080830152979650505050505050565b86815285602082015260c06040820152600061444260c0830187613fdf565b6001600160a01b03959095166060830152506080810192909252151560a0909101529392505050565b60405160e081016001600160401b038111828210171561448d5761448d6145a5565b60405290565b604051601f8201601f191681016001600160401b03811182821017156144bb576144bb6145a5565b604052919050565b60006001600160401b038211156144dc576144dc6145a5565b5060051b60200190565b60006001600160401b038211156144ff576144ff6145a5565b50601f01601f191660200190565b60008261452857634e487b7160e01b81526012600452602481fd5b500490565b60008160001904831182151516156145475761454761458f565b500290565b60008282101561455e5761455e61458f565b500390565b60005b8381101561457e578181015183820152602001614566565b838111156140455750506000910152565b634e487b7160e01b600052601160045260246000fd5b634e487b7160e01b600052604160045260246000fd5b6001600160a01b0381168114610a8d57600080fd5b60ff81168114610a8d57600080fdfea2646970667358221220dc2f9d2af73236c46d052b719c9ec102272d7dbd0939ea962682369a99408b4d64736f6c63430008040033",
  "deployedBytecode": "0x60806040526004361061024d5760003560e01c80637f0f1817116101355780637f0f18171461068457806380615bb9146106a457806380bc4726146106c4578063870ba6cf146106e45780638d3d78cd146107045780638d5fc1d4146107245780638da5cb5b146107445780638f9eb78b14610759578063913967d31461077957806393c5c73a146108025780639a8a059214610822578063a015f99c14610838578063a9ac591914610858578063a9b6827114610878578063b14d3532146108ae578063b59589d1146108ce578063bd51aaa3146108ee578063c805f68b14610961578063cbf50bb614610981578063da058ae3146109a1578063e35a0a88146109c1578063e45b5c29146109e1578063ea2979ee14610a1c578063f0f4426014610a3c578063f2fde38b14610a5c57600080fd5b806306be8b0e1461025957806317fcb39b146102fb5780631812adb6146103335780631876dec4146103575780631dc4b09c146103775780631e7107c714610399578063292c1d92146103b957806333fe5676146103d957806342b5dcd0146103f95780634e63ba951461040f5780635221c1f0146104585780635279feed14610498578063527b42a6146104b857806359fd0b0c146104e857806361849f751461051557806361be10f21461053557806361d027b3146105555780636b2857ef146105755780636c32b2ec146105955780636e8adf61146105b557806370872aa5146105eb578063715018a61461060157806375979f79146106165780637a218135146106515780637ed557481461066457600080fd5b3661025457005b600080fd5b34801561026557600080fd5b506102bb610274366004613b25565b60a76020526000908152604090208054600182015460028301546003840154600485015460058601546006870154600790970154959660ff90951695939492939192909188565b604080519889529615156020890152958701949094526060860192909252608085015260a084015260c083015260e0820152610100015b60405180910390f35b34801561030757600080fd5b5060a95461031b906001600160a01b031681565b6040516001600160a01b0390911681526020016102f2565b34801561033f57600080fd5b5061034960025481565b6040519081526020016102f2565b34801561036357600080fd5b5060055461031b906001600160a01b031681565b34801561038357600080fd5b50610397610392366004613a27565b610a7c565b005b3480156103a557600080fd5b506103976103b4366004613b25565b610a90565b3480156103c557600080fd5b5060a85461031b906001600160a01b031681565b3480156103e557600080fd5b506103976103f4366004613b55565b610aa1565b34801561040557600080fd5b5061034960a15481565b34801561041b57600080fd5b5061044361042a366004613b25565b60ab602052600090815260409020805460019091015482565b604080519283526020830191909152016102f2565b34801561046457600080fd5b50610488610473366004613b25565b60a66020526000908152604090205460ff1681565b60405190151581526020016102f2565b3480156104a457600080fd5b506103976104b3366004613f07565b610b0f565b3480156104c457600080fd5b506103496104d3366004613b25565b600090815260ab602052604090206001015490565b3480156104f457600080fd5b50610349610503366004613b25565b60ac6020526000908152604090205481565b34801561052157600080fd5b50610488610530366004613cc5565b610b27565b34801561054157600080fd5b50610397610550366004613a27565b610f4e565b34801561056157600080fd5b5060075461031b906001600160a01b031681565b34801561058157600080fd5b50610397610590366004613b55565b610f5f565b3480156105a157600080fd5b5060aa5461031b906001600160a01b031681565b3480156105c157600080fd5b5061031b6105d0366004613b25565b6008602052600090815260409020546001600160a01b031681565b3480156105f757600080fd5b5061034960005481565b34801561060d57600080fd5b50610397610fcc565b34801561062257600080fd5b50610488610631366004613b55565b60a560209081526000928352604080842090915290825290205460ff1681565b61048861065f366004613db3565b610fd6565b34801561067057600080fd5b5061039761067f366004613b25565b611619565b34801561069057600080fd5b5061039761069f366004613a27565b61162a565b3480156106b057600080fd5b506104886106bf366004613d25565b61163b565b3480156106d057600080fd5b506104886106df366004613b25565b61191d565b3480156106f057600080fd5b506103976106ff366004613a27565b611946565b34801561071057600080fd5b5060065461031b906001600160a01b031681565b34801561073057600080fd5b5061039761073f366004613b55565b611957565b34801561075057600080fd5b5061031b61196d565b34801561076557600080fd5b50610397610774366004613ee6565b61197c565b34801561078557600080fd5b506107d0610794366004613b25565b60a4602052600090815260409020805460018201546002830154600384015460049094015492936001600160a01b039092169290919060ff1685565b604080519586526001600160a01b0390941660208601529284019190915260608301521515608082015260a0016102f2565b34801561080e57600080fd5b5061044361081d366004613b25565b61198e565b34801561082e57600080fd5b5061034960015481565b34801561084457600080fd5b50610397610853366004613f32565b6119a8565b34801561086457600080fd5b50610397610873366004613b55565b611b17565b34801561088457600080fd5b5061031b610893366004613b25565b60ad602052600090815260409020546001600160a01b031681565b3480156108ba57600080fd5b506103976108c9366004613a27565b611b88565b3480156108da57600080fd5b5060035461031b906001600160a01b031681565b3480156108fa57600080fd5b5061093e610909366004613b55565b60a260209081526000928352604080842090915290825290208054600182015460029092015490916001600160a01b03169083565b604080519384526001600160a01b039092166020840152908201526060016102f2565b34801561096d57600080fd5b5061039761097c366004613a27565b611b99565b34801561098d57600080fd5b5061039761099c366004613b25565b611baa565b3480156109ad57600080fd5b506103976109bc366004613a27565b611bfd565b3480156109cd57600080fd5b5060045461031b906001600160a01b031681565b3480156109ed57600080fd5b506103496109fc366004613b55565b60a360209081526000928352604080842090915290825290206001015481565b348015610a2857600080fd5b50610397610a37366004613b25565b611c0e565b348015610a4857600080fd5b50610397610a57366004613a27565b611c64565b348015610a6857600080fd5b50610397610a77366004613a27565b611c75565b610a84611ceb565b610a8d81611d4a565b50565b610a98611ceb565b610a8d81611ddc565b610aa9611ceb565b7fb3036f81a7a8205f3b94de16897df636d553839d92289fb7ec72dd2d541328428282604051610ada9291906143aa565b60405180910390a1600091825260a5602090815260408084206001600160a01b0390931684529190529020805460ff19169055565b610b17611ceb565b610b22828285611e44565b505050565b6000610b31611eb1565b600080600080600089806020019051810190610b4d9190613b84565b600085815260096020908152604080832081516101608101835281548152600182015481850152600282015481840152600382015460ff808216151560608401526101009091046001600160a01b03166080830152600483015460a0830152600583015416151560c08201526006820180548451818702810187019095528085529a9f50989d50969b5094995092975090959394929360e086019391830182828015610c2257602002820191906000526020600020905b81546001600160a01b03168152600190910190602001808311610c04575b5050509183525050600782810154602080840191909152600884015460408085019190915260099094015460609384015260008b815260a7808352858220865161010081018852815480825260018084015460ff1615158388015260028401549983019990995260038301549782019790975260048201546080820152600582015460a0820152600682015460c082015294015460e08501529454908c905293905292935014801590610ce75750600087815260a7602052604090206001015460ff16155b610d0c5760405162461bcd60e51b8152600401610d039061420a565b60405180910390fd5b600160a7600089815260200190815260200160002060010160006101000a81548160ff02191690831515021790555081608001516001600160a01b031673__$5188ca1ef01dc999a9b560e2e2728f759b$__6328e25ef28e8e8e8e6040518563ffffffff1660e01b8152600401610d8694939291906141d8565b60206040518083038186803b158015610d9e57600080fd5b505af4158015610db2573d6000803e3d6000fd5b505050506040513d601f19601f82011682018060405250810190610dd69190613a4a565b6001600160a01b031614610dfc5760405162461bcd60e51b8152600401610d0390614296565b6040805160e08101825282518152602080820186905281830185905260608201849052608082018a905260a08201879052845160009081526008909152918220546001600160a01b031660c08201528190610e5690611f0b565b9150915081610ea55760405162461bcd60e51b815260206004820152601b60248201527a115e18da185b99d9549bdd5d195c8e881cddd85c0819985a5b1959602a1b6044820152606401610d03565b600089815260a760205260409020548651610f2f91908890610ec99060019061454c565b81518110610ee757634e487b7160e01b600052603260045260246000fd5b60200260200101518360018551610efe919061454c565b81518110610f1c57634e487b7160e01b600052603260045260246000fd5b602002602001015187608001518b6127ba565b60019950505050505050505050610f466001606f55565b949350505050565b610f56611ceb565b610a8d81612923565b610f67611ceb565b6000828152600860205260409081902080546001600160a01b0319166001600160a01b038416179055517f31a8c4e62daac2a3ed5d713004d9ae867d6dcddfa35603db2a4b65d9236b1bc190610fc090849084906143aa565b60405180910390a15050565b610fd4611ceb565b565b6000610fe0611eb1565b6004546001600160a01b0316336001600160a01b0316146110435760405162461bcd60e51b815260206004820152601e60248201527f45786368616e6765526f757465723a20696e76616c69642073656e64657200006044820152606401610d03565b600054856080015110156110975760405162461bcd60e51b815260206004820152601b60248201527a115e18da185b99d9549bdd5d195c8e881bdb19081c995c5d595cdd602a1b6044820152606401610d03565b60608501516001600160e01b031916156110fd5760405162461bcd60e51b815260206004820152602160248201527f45786368616e6765526f757465723a206e6f6e2d7a65726f206c6f636b74696d6044820152606560f81b6064820152608401610d03565b60055460405163aff2faa360e01b81526001600160a01b039091169063aff2faa39061112f9087908790600401614183565b60206040518083038186803b15801561114757600080fd5b505afa15801561115b573d6000803e3d6000fd5b505050506040513d601f19601f8201168201806040525081019061117f9190613a66565b6111c85760405162461bcd60e51b815260206004820152601a60248201527922bc31b430b733b2a937baba32b91d103737ba103637b1b5b2b960311b6044820152606401610d03565b6006546003546040516342cfb5c360e11b815260009273__$5188ca1ef01dc999a9b560e2e2728f759b$__9263859f6b8692611222928b9260099260a7926001600160a01b03908116928e928e92909116906004016142cd565b60206040518083038186803b15801561123a57600080fd5b505af415801561124e573d6000803e3d6000fd5b505050506040513d601f19601f820116820180604052508101906112729190613b3d565b600081815260a760205260408120549192509081906112909061198e565b9150915060015482146112e35760405162461bcd60e51b815260206004820152601b60248201527a22bc31b430b733b2a937baba32b91d103bb937b7339031b430b4b760291b6044820152606401610d03565b600081815260a6602052604090205460ff1680611301575060015481145b61134d5760405162461bcd60e51b815260206004820181905260248201527f45786368616e6765526f757465723a20696e76616c696420636861696e2069646044820152606401610d03565b808214156113bf57600083815260a76020526040902060030154156113bf5760405162461bcd60e51b815260206004820152602260248201527f45786368616e6765526f757465723a20696e76616c6964206272646967652066604482015261656560f01b6064820152608401610d03565b600083815260096020908152604080832081516101608101835281548152600182015481850152600282015481840152600382015460ff808216151560608401526101009091046001600160a01b03166080830152600483015460a0830152600583015416151560c08201526006820180548451818702810187019095528085529194929360e086019390929083018282801561148557602002820191906000526020600020905b81546001600160a01b03168152600190910190602001808311611467575b505050918352505060078201546020808301919091526008808401546040808501919091526009909401546060909301929092528351600090815291905220549091506001600160a01b03168061151e5760405162461bcd60e51b815260206004820152601d60248201527f45786368616e6765526f757465723a20696e76616c69642061707049640000006044820152606401610d03565b61155f89898080601f0160208091040260200160405190810160405280939291908181526020018383808284376000920191909152508992506129b5915050565b6001548314156115b2576115ad818a8a8080601f0160208091040260200160405190810160405280939291908181526020018383808284376000920191909152508a92508c9150612d669050565b611606565b611606818a8a8080601f01602080910402602001604051908101604052809392919081815260200183838082843760009201829052508b815260a760205260409020600301548b93508d9250905088612fbd565b600195505050505050610f466001606f55565b611621611ceb565b610a8d816132c5565b611632611ceb565b610a8d81613366565b6000611645611eb1565b60008060008980602001905181019061165e9190613c66565b50600154600084815260a760205260409020549396509194509250148015906116995750600083815260a7602052604090206001015460ff16155b6116b55760405162461bcd60e51b8152600401610d039061420a565b600083815260a7602090815260408083206001908101805460ff191690911790556009909152908190206003015490516314712f7960e11b81526101009091046001600160a01b03169073__$5188ca1ef01dc999a9b560e2e2728f759b$__906328e25ef29061172f908e908e908e908e906004016141d8565b60206040518083038186803b15801561174757600080fd5b505af415801561175b573d6000803e3d6000fd5b505050506040513d601f19601f8201168201806040525081019061177f9190613a4a565b6001600160a01b0316146117a55760405162461bcd60e51b8152600401610d0390614296565b60065460aa54600085815260a760205260409081902060020154905163095ea7b360e01b81526001600160a01b039384169363095ea7b3936117ec93911691600401614157565b602060405180830381600087803b15801561180657600080fd5b505af115801561181a573d6000803e3d6000fd5b505050506040513d601f19601f8201168201806040525081019061183e9190613a66565b5060aa54600084815260a760205260409020600201546001600160a01b0390911690633fea4367908360ff8616600581111561188a57634e487b7160e01b600052602160045260246000fd5b8a8a60006040518763ffffffff1660e01b81526004016118af969594939291906143c1565b602060405180830381600087803b1580156118c957600080fd5b505af11580156118dd573d6000803e3d6000fd5b505050506040513d601f19601f820116820180604052508101906119019190613b3d565b50600193505050506119136001606f55565b9695505050505050565b60008181526009602052604081206005015460ff1661193d576000611940565b60015b92915050565b61194e611ceb565b610a8d816133f8565b61195f611ceb565b611969828261348a565b5050565b603d546001600160a01b031690565b611984611ceb565b6119698282613526565b600090815260ab6020526040902080546001909101549091565b600a54610100900460ff16158080156119c85750600a54600160ff909116105b806119e25750303b1580156119e25750600a5460ff166001145b611a455760405162461bcd60e51b815260206004820152602e60248201527f496e697469616c697a61626c653a20636f6e747261637420697320616c72656160448201526d191e481a5b9a5d1a585b1a5e995960921b6064820152608401610d03565b600a805460ff191660011790558015611a6857600a805461ff0019166101001790555b611a70613587565b611a786135b6565b6001889055611a868a611ddc565b611a8f896132c5565b611a98866135e5565b611aa187613677565b611aaa85613366565b611ab384613709565b611abc83612923565b611ac582611d4a565b8015611b0b57600a805461ff0019169055604051600181527f7f26b83ff96e1f2b6a682f133852f6798a09c465da95921460cefb38474024989060200160405180910390a15b50505050505050505050565b611b1f611ceb565b7fca37a60f79854243dcab36b6ad6fcaafc7ae13448087ee70547943babc7dccf08282604051611b509291906143aa565b60405180910390a1600091825260a5602090815260408084206001600160a01b0390931684529190529020805460ff19166001179055565b611b90611ceb565b610a8d81613677565b611ba1611ceb565b610a8d816135e5565b611bb2611ceb565b6040518181527f11a9d1a77f76361ed131c19b1dc5758504c51dbde2e49fc973a0ef9577ad13d59060200160405180910390a1600090815260a660205260409020805460ff19169055565b611c05611ceb565b610a8d8161379b565b611c16611ceb565b6040518181527fbba9d55e9fd1a441b1617724e2fdb76777d15ec77ab2b72ac15952cbe97085db9060200160405180910390a1600090815260a660205260409020805460ff19166001179055565b611c6c611ceb565b610a8d81613709565b611c7d611ceb565b6001600160a01b038116611ce25760405162461bcd60e51b815260206004820152602660248201527f4f776e61626c653a206e6577206f776e657220697320746865207a65726f206160448201526564647265737360d01b6064820152608401610d03565b610a8d81613804565b33611cf461196d565b6001600160a01b031614610fd45760405162461bcd60e51b815260206004820181905260248201527f4f776e61626c653a2063616c6c6572206973206e6f7420746865206f776e65726044820152606401610d03565b806001600160a01b038116611d725760405163d92e233d60e01b815260040160405180910390fd5b60aa546040517f5b663d57fa8cf393f8c8019f514b25c1b3223c9324a2ce3efe28ce5aef0e62fe91611db1916001600160a01b039091169085906140a0565b60405180910390a15060aa80546001600160a01b0319166001600160a01b0392909216919091179055565b6000548111611e3f5760405162461bcd60e51b815260206004820152602960248201527f434345786368616e6765526f757465723a206c6f77207374617274696e67426c60448201526837b1b5a73ab6b132b960b91b6064820152608401610d03565b600055565b60408051828152602081018590529081018390527fd4d81e1736e6dd2e97d0c6eff0dc7ec7184dec2bd4e03ce98d84d6057a8045c49060600160405180910390a16040805180820182529384526020808501938452600092835260ab905290209151825551600190910155565b6002606f541415611f045760405162461bcd60e51b815260206004820152601f60248201527f5265656e7472616e637947756172643a207265656e7472616e742063616c6c006044820152606401610d03565b6002606f55565b6000606060015483600001511480611f8a57508251600090815260a56020526040812060a08501518051919291611f449060019061454c565b81518110611f6257634e487b7160e01b600052603260045260246000fd5b6020908102919091018101516001600160a01b031682528101919091526040016000205460ff165b1561233a5760065460c08401516060850151604090810151905163095ea7b360e01b81526001600160a01b039093169263095ea7b392611fce929091600401614157565b602060405180830381600087803b158015611fe857600080fd5b505af1158015611ffc573d6000803e3d6000fd5b505050506040513d601f19601f820116820180604052508101906120209190613a66565b5060c083015160a08401516040516326d2f28960e21b81526001600160a01b0390921691639b4bca249161205691600401614170565b60206040518083038186803b15801561206e57600080fd5b505afa158015612082573d6000803e3d6000fd5b505050506040513d601f19601f820116820180604052508101906120a69190613a66565b156123355760065460a084015180516001600160a01b03909216916000906120de57634e487b7160e01b600052603260045260246000fd5b60200260200101516001600160a01b03161480156121855750604083015160e00151805161210e9060019061454c565b8151811061212c57634e487b7160e01b600052603260045260246000fd5b60200260200101516001600160a01b03168360a0015160018560a0015151612154919061454c565b8151811061217257634e487b7160e01b600052603260045260246000fd5b60200260200101516001600160a01b0316145b6121d15760405162461bcd60e51b815260206004820152601e60248201527f436345786368616e6765526f757465723a20696e76616c6964207061746800006044820152606401610d03565b60c08301516060840151604090810151818601518083015160a0880151608090920151935163161779b160e31b81526001600160a01b039095169463b0bbcd88946122259493914290600190600401614423565b600060405180830381600087803b15801561223f57600080fd5b505af1158015612253573d6000803e3d6000fd5b505050506040513d6000823e601f3d908101601f1916820160405261227b9190810190613a80565b9092509050816123355760c08301516060840151604090810151818601518083015160e0820151608090920151935163161779b160e31b81526001600160a01b039095169463b0bbcd88946122d99493914290600190600401614423565b600060405180830381600087803b1580156122f357600080fd5b505af1158015612307573d6000803e3d6000fd5b505050506040513d6000823e601f3d908101601f1916820160405261232f9190810190613a80565b90925090505b61233f565b600091505b81156125de576000670de0b6b3a76400008460600151606001518360018551612368919061454c565b8151811061238657634e487b7160e01b600052603260045260246000fd5b6020026020010151612398919061452d565b6123a2919061450d565b905060006040518060a00160405280866040015160a001518152602001866060015160e001518152602001866060015160a001518152602001866060015160c0015181526020018381525090506123f63390565b60408087015161012081015160809091015160055460208a0151935163626885b560e11b81526001600160a01b03958616959394928416937f83f3c3e82621afa914bb49ee3bc3bcadb1d41b3d6f836aa437172cbb3d4dbb6e9392169163c4d10b6a916124669190600401614197565b60206040518083038186803b15801561247e57600080fd5b505afa158015612492573d6000803e3d6000fd5b505050506040513d601f19601f820116820180604052508101906124b69190613a4a565b604080518082019091526006546001600160a01b0316815260a08b015180516020830191906124e79060019061454c565b8151811061250557634e487b7160e01b600052603260045260246000fd5b60200260200101516001600160a01b03166001600160a01b031681525060405180604001604052808a60008151811061254e57634e487b7160e01b600052603260045260246000fd5b60200260200101518152602001898b60018d5161256b919061454c565b8151811061258957634e487b7160e01b600052603260045260246000fd5b602002602001015161259b919061454c565b8152508b608001518c60400151600001518d60600151608001518a8f600001516040516125cf9897969594939291906140ba565b60405180910390a45050915091565b60006040518060a00160405280856040015160a001518152602001856060015160e001518152602001856060015160a001518152602001856060015160c001518152602001600081525090506126313390565b6040808601516101208101516080909101516005546020890151935163626885b560e11b81526001600160a01b03958616959394928416937f4bdbd9bfa84241c4a39e7be48e0a8678cfbecfbcfae5d87f01b13de30b8c9e9a9392169163c4d10b6a916126a19190600401614197565b60206040518083038186803b1580156126b957600080fd5b505afa1580156126cd573d6000803e3d6000fd5b505050506040513d601f19601f820116820180604052508101906126f19190613a4a565b604080518082019091526006546001600160a01b0316815260a08a015180516020830191906127229060019061454c565b8151811061274057634e487b7160e01b600052603260045260246000fd5b60200260200101516001600160a01b03166001600160a01b031681525060405180604001604052808b6060015160400151815260200160008152508a608001518b60400151600001518c60600151608001518a8e600001516040516127ac9897969594939291906140ba565b60405180910390a450915091565b60a85460405163095ea7b360e01b81526001600160a01b038681169263095ea7b3926127ee92909116908790600401614157565b602060405180830381600087803b15801561280857600080fd5b505af115801561281c573d6000803e3d6000fd5b505050506040513d601f19601f820116820180604052508101906128409190613a66565b5060a8546001600160a01b0316631186ec3383868661286e8a600090815260ab602052604090206001015490565b6040516001600160e01b031960e087901b1681526001600160a01b03948516600482015293909216602484015260448301526064820152600784900b608482015263ffffffff421660a482015261010060c4820152600261010482015261060f60f31b61012482015260001960e482015261014401600060405180830381600087803b1580156128fd57600080fd5b505af1158015612911573d6000803e3d6000fd5b505050505050505050565b6001606f55565b806001600160a01b03811661294b5760405163d92e233d60e01b815260040160405180910390fd5b60a8546040517f06e5f2ca1234f717a2031f662608c02182d4f8bdc3dab013ec4c04eb975531329161298a916001600160a01b039091169085906140a0565b60405180910390a15060a880546001600160a01b0319166001600160a01b0392909216919091179055565b6005546000828152600960205260408082206001015490516307f3f86760e21b815291926001600160a01b031691631fcfe19c916129f991879130916004016141aa565b602060405180830381600087803b158015612a1357600080fd5b505af1158015612a27573d6000803e3d6000fd5b505050506040513d601f19601f82011682018060405250810190612a4b9190613b3d565b60025460008481526009602052604090206001015491925061271091612a71919061452d565b612a7b919061450d565b600083815260a76020908152604080832060058101949094556009808352818420600480820154960154855260ac845291842054938790529091526001015461271091612ac79161452d565b612ad1919061450d565b600084815260a76020908152604080832060060193909355600990522060010154612afd90839061454c565b600084815260a760205260409020600701558015612b99576006546001600160a01b031663a9059cbb33836040518363ffffffff1660e01b8152600401612b45929190614157565b602060405180830381600087803b158015612b5f57600080fd5b505af1158015612b73573d6000803e3d6000fd5b505050506040513d601f19601f82011682018060405250810190612b979190613a66565b505b600083815260a7602052604090206005015415612c4b57600654600754600085815260a760205260409081902060050154905163a9059cbb60e01b81526001600160a01b039384169363a9059cbb93612bf793911691600401614157565b602060405180830381600087803b158015612c1157600080fd5b505af1158015612c25573d6000803e3d6000fd5b505050506040513d601f19601f82011682018060405250810190612c499190613a66565b505b600083815260a7602052604090206006015415612d125760068054600085815260a760208181526040808420600480820154865260ad845282862054958b905293909252940154935163a9059cbb60e01b81526001600160a01b039384169463a9059cbb94612cbe941692909101614157565b602060405180830381600087803b158015612cd857600080fd5b505af1158015612cec573d6000803e3d6000fd5b505050506040513d601f19601f82011682018060405250810190612d109190613a66565b505b600083815260a76020526040902060068101546005909101548290612d37908561454c565b612d41919061454c565b612d4b919061454c565b600093845260a7602052604090932060020192909255505050565b6040805160e080820183526001805483526020808401889052600087815260098252858120865161016081018852815481529381015484840152600281015484880152600381015460ff808216151560608701526101009091046001600160a01b03166080860152600482015460a0860152600582015416151560c08501526006810180548851818602810186018a528181529398612f029897908801969593949086019390929190830182828015612e4857602002820191906000526020600020905b81546001600160a01b03168152600190910190602001808311612e2a575b5050509183525050600782810154602080840191909152600884015460408085019190915260099094015460609384015293855260008a815260a7855283902083516101008101855281548152600182015460ff161515818701526002820154818601526003820154818501526004820154608080830191909152600583015460a0830152600683015460c0830152919092015460e08301529385015290830188905282018690526001600160a01b038916910152611f0b565b50905080612fb65760065460008481526009602090815260408083206003015460a79092529182902060020154915163a9059cbb60e01b81526001600160a01b039384169363a9059cbb93612f6293610100900490911691600401614157565b602060405180830381600087803b158015612f7c57600080fd5b505af1158015612f90573d6000803e3d6000fd5b505050506040513d601f19601f82011682018060405250810190612fb49190613a66565b505b5050505050565b6040805160e08082018352838252602080830189905260008881526009825284812085516101608101875281548152600182015481850152600282015481880152600382015460ff808216151560608401526101009091046001600160a01b03166080830152600483015460a0830152600583015416151560c08201526006820180548851818702810187018a528181529498899861315a9890979188019694959490860193909290918301828280156130a057602002820191906000526020600020905b81546001600160a01b03168152600190910190602001808311613082575b5050509183525050600782810154602080840191909152600884015460408085019190915260099094015460609384015293855260008d815260a7855283902083516101008101855281548152600182015460ff161515818701526002820154818601526003820154818501526004820154608080830191909152600583015460a0830152600683015460c0830152919092015460e0830152938501529083018b905282018990526001600160a01b038c16910152611f0b565b91509150811561322557600086815260a7602052604090206001818101805460ff19168217905590548651613220928891613195919061454c565b815181106131b357634e487b7160e01b600052603260045260246000fd5b602002602001015183600185516131ca919061454c565b815181106131e857634e487b7160e01b600052603260045260246000fd5b6020026020010151600960008b815260200190815260200160002060030160019054906101000a90046001600160a01b0316886127ba565b6132bb565b600654600087815260a760205260409081902060020154905163095ea7b360e01b81526001600160a01b039092169163095ea7b391613269918c9190600401614157565b602060405180830381600087803b15801561328357600080fd5b505af1158015613297573d6000803e3d6000fd5b505050506040513d601f19601f820116820180604052508101906129119190613a66565b5050505050505050565b8061271010156133255760405162461bcd60e51b815260206004820152602560248201527f434345786368616e6765526f757465723a20666565206973206f7574206f662060448201526472616e676560d81b6064820152608401610d03565b60025460408051918252602082018390527f7d205f60891f60851c61cd244ba387d72b6589e7c0ac41b9d909ab0ce2c2a53b910160405180910390a1600255565b806001600160a01b03811661338e5760405163d92e233d60e01b815260040160405180910390fd5b6006546040517f36a4c08a38b736dcecb6c328dba61238529620e83ccb23db2cc43cd34ec26096916133cd916001600160a01b039091169085906140a0565b60405180910390a150600680546001600160a01b0319166001600160a01b0392909216919091179055565b806001600160a01b0381166134205760405163d92e233d60e01b815260040160405180910390fd5b6004546040517f12ad124e13af4c31364ad22aa74320e167b37f005dafb75d71a210c49da3629e9161345f916001600160a01b039091169085906140a0565b60405180910390a150600480546001600160a01b0319166001600160a01b0392909216919091179055565b600082815260ad6020526040908190205490517f1e73962bcff5b98a9ac70c9b0f71fbb31dc0f5a09348c6d3ceab164169a9e729916134f09185916001600160a01b03169085909283526001600160a01b03918216602084015216604082015260600190565b60405180910390a1600091825260ad602052604090912080546001600160a01b0319166001600160a01b03909216919091179055565b600082815260ac6020908152604091829020548251858152918201529081018290527f188adabf806a6b6d814acc1dbd9f09e5a251c8c065d6285749a5824e4579b6459060600160405180910390a1600091825260ac602052604090912055565b600a54610100900460ff166135ae5760405162461bcd60e51b8152600401610d039061424b565b610fd4613856565b600a54610100900460ff166135dd5760405162461bcd60e51b8152600401610d039061424b565b610fd4613886565b806001600160a01b03811661360d5760405163d92e233d60e01b815260040160405180910390fd5b6003546040517f4c28a3f61a715259c4dc930c23e7423b8fa52e13232c061a6e488729c66184f49161364c916001600160a01b039091169085906140a0565b60405180910390a150600380546001600160a01b0319166001600160a01b0392909216919091179055565b806001600160a01b03811661369f5760405163d92e233d60e01b815260040160405180910390fd5b6005546040517ffa021c2ec0f46429a53e7f88b88065e40001f50c9d38b2e8b713beaf9828d4c3916136de916001600160a01b039091169085906140a0565b60405180910390a150600580546001600160a01b0319166001600160a01b0392909216919091179055565b806001600160a01b0381166137315760405163d92e233d60e01b815260040160405180910390fd5b6007546040517f567657fa3f286518b318f4a29870674f433f622fdfc819691acb13105b22822591613770916001600160a01b039091169085906140a0565b60405180910390a150600780546001600160a01b0319166001600160a01b0392909216919091179055565b60a9546040517f4da8064030e901e42f6de0ab04f4c322d7936d0120503addfe8a51f127090689916137da916001600160a01b039091169084906140a0565b60405180910390a160a980546001600160a01b0319166001600160a01b0392909216919091179055565b603d80546001600160a01b038381166001600160a01b0319831681179093556040519116919082907f8be0079c531659141344cd1fd0a4f28419497f9722a3daafe3b4186f6b6457e090600090a35050565b600a54610100900460ff1661387d5760405162461bcd60e51b8152600401610d039061424b565b610fd433613804565b600a54610100900460ff1661291c5760405162461bcd60e51b8152600401610d039061424b565b600082601f8301126138bd578081fd5b813560206138d26138cd836144c3565b614493565b80838252828201915082860187848660051b89010111156138f1578586fd5b855b85811015613918578135613906816145bb565b845292840192908401906001016138f3565b5090979650505050505050565b8051801515811461393557600080fd5b919050565b80356001600160e01b03198116811461393557600080fd5b60008083601f840112613963578182fd5b5081356001600160401b03811115613979578182fd5b60208301915083602082850101111561399157600080fd5b9250929050565b600082601f8301126139a8578081fd5b81356139b66138cd826144e6565b8181528460208386010111156139ca578283fd5b816020850160208301379081016020019190915292915050565b600082601f8301126139f4578081fd5b8151613a026138cd826144e6565b818152846020838601011115613a16578283fd5b610f46826020830160208701614563565b600060208284031215613a38578081fd5b8135613a43816145bb565b9392505050565b600060208284031215613a5b578081fd5b8151613a43816145bb565b600060208284031215613a77578081fd5b613a4382613925565b60008060408385031215613a92578081fd5b613a9b83613925565b91506020808401516001600160401b03811115613ab6578283fd5b8401601f81018613613ac6578283fd5b8051613ad46138cd826144c3565b80828252848201915084840189868560051b8701011115613af3578687fd5b8694505b83851015613b15578051835260019490940193918501918501613af7565b5080955050505050509250929050565b600060208284031215613b36578081fd5b5035919050565b600060208284031215613b4e578081fd5b5051919050565b60008060408385031215613b67578182fd5b823591506020830135613b79816145bb565b809150509250929050565b600080600080600060a08688031215613b9b578081fd5b8551945060208087015194506040870151935060608701516001600160401b0380821115613bc7578384fd5b818901915089601f830112613bda578384fd5b8151613be86138cd826144c3565b8082825285820191508585018d878560051b8801011115613c07578788fd5b8795505b83861015613c32578051613c1e816145bb565b835260019590950194918601918601613c0b565b5060808c01519097509450505080831115613c4b578384fd5b5050613c59888289016139e4565b9150509295509295909350565b60008060008060808587031215613c7b578182fd5b845193506020850151613c8d816145d0565b60408601519093506001600160401b03811115613ca8578283fd5b613cb4878288016139e4565b606096909601519497939650505050565b60008060008060808587031215613cda578182fd5b84356001600160401b03811115613cef578283fd5b613cfb87828801613998565b94505060208501359250604085013591506060850135613d1a816145d0565b939692955090935050565b60008060008060008060a08789031215613d3d578384fd5b86356001600160401b0380821115613d53578586fd5b613d5f8a838b01613998565b9750602089013596506040890135955060608901359150613d7f826145d0565b90935060808801359080821115613d94578283fd5b50613da189828a01613952565b979a9699509497509295939492505050565b60008060008060608587031215613dc8578182fd5b84356001600160401b0380821115613dde578384fd5b9086019060e08289031215613df1578384fd5b613df961446b565b613e028361393a565b8152602083013582811115613e15578586fd5b613e218a828601613998565b602083015250604083013582811115613e38578586fd5b613e448a828601613998565b604083015250613e566060840161393a565b60608201526080830135608082015260a083013582811115613e76578586fd5b613e828a828601613998565b60a08301525060c083013560c0820152809650506020870135915080821115613ea9578384fd5b613eb588838901613952565b90955093506040870135915080821115613ecd578283fd5b50613eda878288016138ad565b91505092959194509250565b60008060408385031215613ef8578182fd5b50508035926020909101359150565b600080600060608486031215613f1b578081fd5b505081359360208301359350604090920135919050565b60008060008060008060008060006101208a8c031215613f50578687fd5b8935985060208a0135975060408a0135965060608a0135613f70816145bb565b955060808a0135613f80816145bb565b945060a08a0135613f90816145bb565b935060c08a0135613fa0816145bb565b925060e08a0135613fb0816145bb565b91506101008a0135613fc1816145bb565b809150509295985092959850929598565b6001600160a01b03169052565b6000815180845260208085019450808401835b838110156140175781516001600160a01b031687529582019590820190600101613ff2565b509495945050505050565b8060005b6005811015614045578151845260209384019390910190600101614026565b50505050565b81835281816020850137506000828201602090810191909152601f909101601f19169091010190565b6000815180845261408c816020860160208601614563565b601f01601f19169290920160200192915050565b6001600160a01b0392831681529116602082015260400190565b6001600160a01b0389811682526101c082019060208084018b60005b60028110156140f55781518516835291830191908301906001016140d6565b5050506060840191508960005b600281101561411f57815184529282019290820190600101614102565b505050508660a08301528560c08301528460e0830152614143610100830185614022565b826101a08301529998505050505050505050565b6001600160a01b03929092168252602082015260400190565b602081526000613a436020830184613fdf565b602081526000610f4660208301848661404b565b602081526000613a436020830184614074565b6060815260006141bd6060830186614074565b6001600160a01b039490941660208301525060400152919050565b6080815260006141eb6080830187614074565b602083019590955250604081019290925260ff16606090910152919050565b60208082526021908201527f45786368616e6765526f757465723a20616c72656164792070726f63657373656040820152601960fa1b606082015260800190565b6020808252602b908201527f496e697469616c697a61626c653a20636f6e7472616374206973206e6f74206960408201526a6e697469616c697a696e6760a81b606082015260800190565b6020808252601e908201527f45786368616e6765526f757465723a20696e76616c6964207369676e65720000604082015260600190565b60c08152600063ffffffff60e01b808a511660c084015260208a015160e0808501526142fd6101a0850182614074565b905060408b015160bf19808684030161010087015261431c8383614074565b92508360608e01511661012087015260808d015161014087015260a08d01519350808684030161016087015250506143548183614074565b91505060c08a015161018084015288602084015287604084015261437b6060840188613fd2565b828103608084015261438e81868861404b565b91505061439e60a0830184613fd2565b98975050505050505050565b9182526001600160a01b0316602082015260400190565b86815260a0602082015260006143da60a0830188614074565b600687106143f657634e487b7160e01b82526021600452602482fd5b866040840152828103606084015261440f81868861404b565b915050826080830152979650505050505050565b86815285602082015260c06040820152600061444260c0830187613fdf565b6001600160a01b03959095166060830152506080810192909252151560a0909101529392505050565b60405160e081016001600160401b038111828210171561448d5761448d6145a5565b60405290565b604051601f8201601f191681016001600160401b03811182821017156144bb576144bb6145a5565b604052919050565b60006001600160401b038211156144dc576144dc6145a5565b5060051b60200190565b60006001600160401b038211156144ff576144ff6145a5565b50601f01601f191660200190565b60008261452857634e487b7160e01b81526012600452602481fd5b500490565b60008160001904831182151516156145475761454761458f565b500290565b60008282101561455e5761455e61458f565b500390565b60005b8381101561457e578181015183820152602001614566565b838111156140455750506000910152565b634e487b7160e01b600052601160045260246000fd5b634e487b7160e01b600052604160045260246000fd5b6001600160a01b0381168114610a8d57600080fd5b60ff81168114610a8d57600080fdfea2646970667358221220dc2f9d2af73236c46d052b719c9ec102272d7dbd0939ea962682369a99408b4d64736f6c63430008040033",
  "libraries": {
    "CcExchangeRouterLib": "0x5DbF9901Ed5a3ea8DBFAa96e57a118a8A1AAEF01"
  },
  "devdoc": {
    "kind": "dev",
    "methods": {
      "initialize(uint256,uint256,uint256,address,address,address,address,address,address)": {
        "params": {
          "_chainId": "Chain Id of the current chain",
          "_lockers": "LockersManager contract address",
          "_protocolPercentageFee": "Protocol percentage fee (min: %0.01).                               This fee goes to treasury from each wrapAndSwap request",
          "_relay": "Address of BitcoinRelay which checks Bitcoin transactions inclusion",
          "_startingBlockNumber": "Transactions that are included in blocks older                             than _startingBlockNumber cannot be processed",
          "_teleBTC": "TeleBTC token",
          "_treasury": "Treasury collects protocol fees"
        }
      },
      "isRequestUsed(bytes32)": {
        "details": "It prevents re-submitting a processed request",
        "params": {
          "_txId": "The transaction ID of request on Bitcoin"
        },
        "returns": {
          "_0": "True if the cc exchange request has been already executed"
        }
      },
      "owner()": {
        "details": "Returns the address of the current owner."
      },
      "renounceOwnership()": {
        "details": "Leaves the contract without owner. It will not be possible to call `onlyOwner` functions. Can only be called by the current owner. NOTE: Renouncing ownership will leave the contract without an owner, thereby disabling any functionality that is only available to the owner."
      },
      "retryFailedWrapAndSwap(bytes,bytes32,bytes32,uint8)": {
        "details": "Users can retry their failed exchange request if      their request destination is different from the current chain",
        "params": {
          "_message": "ABI encode of (txId, outputAmount, acrossRelayerFee, exchangePath)",
          "_r": "Signature r",
          "_s": "Signature s",
          "_v": "Signature v"
        }
      },
      "setAcross(address)": {
        "details": "Across is used to send exchanged tokens to other chains"
      },
      "setChainIdMapping(uint256,uint256,uint256)": {
        "details": "Requests are submitted on the middle chain and the final token is sent to the destination chain.For example, for Ethereum, the middle chain is Polygon and the destination chain is Ethereum."
      },
      "setExchangeConnector(uint256,address)": {
        "details": "Users determine which DEX to use by determining the app id."
      },
      "setThirdPartyAddress(uint256,address)": {
        "details": "Each third party has an id and an address.      Users determine the third party by determining the id in the request.      Third party fee is sent to the third party address."
      },
      "setThirdPartyFee(uint256,uint256)": {
        "details": "Third party fee is a percentage of the input amount.      Third parties can set their own fees."
      },
      "supportChain(uint256)": {
        "details": "Users can only submit exchange requests for supported chains."
      },
      "supportToken(uint256,address)": {
        "details": "Users can only submit exchange requests for supported tokens.      By default, all tokens are supported on the current chain."
      },
      "transferOwnership(address)": {
        "details": "Transfers ownership of the contract to a new account (`newOwner`). Can only be called by the current owner."
      },
      "withdrawFailedWrapAndSwap(bytes,bytes32,bytes32,uint8,bytes)": {
        "details": "Users can get their BTC back if the request execution failed      and their request destination is different from the current chain",
        "params": {
          "_lockerLockingScript": "Script hash of locker that user has sent BTC to it",
          "_message": "ABI encode of (txId, scriptType, userScript, acrossRelayerFee)",
          "_r": "Signature r",
          "_s": "Signature s",
          "_v": "Signature v"
        },
        "returns": {
          "_0": ""
        }
      },
      "wrapAndSwap((bytes4,bytes,bytes,bytes4,uint256,bytes,uint256),bytes,address[])": {
        "details": "Steps to process a request:      1. Check transaction inclusion on Bitcoin      2. Extract the request info      3. Mint TeleBTC and send fees to protocol, Locker, and third party      4. Exchange TeleBTC for the output token      5.1 Send the output token to the user      5.2 Send TeleBTC to user if exchange fails and the request belongs to the current chain      5.3 Keep TeleBTC if exchange fails and the request doesn't blong to the current chain",
        "params": {
          "_lockerLockingScript": "Script hash of Locker that user has sent BTC to it",
          "_path": "(Optional) Exchange path from teleBTC to the output token.",
          "_txAndProof": "Transaction and inclusion proof data"
        }
      }
    },
    "version": 1
  },
  "userdoc": {
    "events": {
      "FailedWrapAndSwap(address,address,address[2],uint256[2],uint256,address,bytes32,uint256,uint256,uint256[5],uint256)": {
        "notice": "Emits when a cc exchange request fails"
      },
      "FillStarted(bytes32,uint256)": {
        "notice": "Emits when a request is filled for the first time"
      },
      "FillTeleBtcSent(uint256,uint256,address,address,uint256,bytes32,uint256,uint256)": {
        "notice": "Emits when filler withdraws teleBTC"
      },
      "FillTokensReturned(uint256,address,address,uint256,bytes32)": {
        "notice": "Emits when unused tokens withdrawn"
      },
      "NewChainIdMapping(uint256,uint256,uint256)": {
        "notice": "Emits when changes made to chain id mapping"
      },
      "NewFill(address,bytes32,address,uint256)": {
        "notice": "Emits when a new filler fills a request"
      },
      "NewInstantRouter(address,address)": {
        "notice": "Emits when instant router contract updated"
      },
      "NewLockers(address,address)": {
        "notice": "Emits when lockers contract updated"
      },
      "NewProtocolPercentageFee(uint256,uint256)": {
        "notice": "Emits when protocol fee updated"
      },
      "NewRelay(address,address)": {
        "notice": "Emits when relay contract updated"
      },
      "NewTeleBTC(address,address)": {
        "notice": "Emits when telebtc contract updated"
      },
      "NewThirdPartyAddress(uint256,address,address)": {
        "notice": "Emits when changes made to third party address"
      },
      "NewThirdPartyFee(uint256,uint256,uint256)": {
        "notice": "Emits when changes made to third party fee"
      },
      "NewTreasury(address,address)": {
        "notice": "Emits when treasury address updated"
      },
      "NewWrapAndSwap(address,address,address[2],uint256[2],uint256,address,bytes32,uint256,uint256,uint256[5],uint256)": {
        "notice": "Emits when a cc exchange request gets done"
      },
      "NewWrappedNativeToken(address,address)": {
        "notice": "Emits when changes made to wrapped native token"
      },
      "SetExchangeConnector(uint256,address)": {
        "notice": "Emits when appId for an exchange connector is set"
      }
    },
    "kind": "user",
    "methods": {
      "extractChainId(uint256)": {
        "notice": "Return the middle chain and destination chain from chainId"
      },
      "extractDestinationChainId(uint256)": {
        "notice": "Return the destination chain from chainId"
      },
      "initialize(uint256,uint256,uint256,address,address,address,address,address,address)": {
        "notice": "Initialize CcExchangeRouter"
      },
      "isRequestUsed(bytes32)": {
        "notice": "Check if a request has been processed"
      },
      "removeChain(uint256)": {
        "notice": "Remove a chain from supported chains"
      },
      "removeToken(uint256,address)": {
        "notice": "Remove a token from supported tokens"
      },
      "retryFailedWrapAndSwap(bytes,bytes32,bytes32,uint8)": {
        "notice": "Retry for failed exchange request"
      },
      "setAcross(address)": {
        "notice": "Setter for across"
      },
      "setBurnRouter(address)": {
        "notice": "Setter for BurnRouter"
      },
      "setChainIdMapping(uint256,uint256,uint256)": {
        "notice": "Setter for chain id mapping"
      },
      "setExchangeConnector(uint256,address)": {
        "notice": "Assign an exchange connector to an app id"
      },
      "setInstantRouter(address)": {
        "notice": "Address of special Teleporter that can submit requests"
      },
      "setLockers(address)": {
        "notice": "Update LockersManager address"
      },
      "setProtocolPercentageFee(uint256)": {
        "notice": "Setter for protocol percentage fee"
      },
      "setRelay(address)": {
        "notice": "Update Relay address"
      },
      "setStartingBlockNumber(uint256)": {
        "notice": "Setter for starting block number"
      },
      "setTeleBTC(address)": {
        "notice": "Update TeleBTC address"
      },
      "setThirdPartyAddress(uint256,address)": {
        "notice": "Setter for third party"
      },
      "setThirdPartyFee(uint256,uint256)": {
        "notice": "Setter for third party fee"
      },
      "setTreasury(address)": {
        "notice": "Setter for treasury"
      },
      "setWrappedNativeToken(address)": {
        "notice": "Setter for wrapped native token"
      },
      "supportChain(uint256)": {
        "notice": "Support a new chain"
      },
      "supportToken(uint256,address)": {
        "notice": "Support a new token on specific chain"
      },
      "withdrawFailedWrapAndSwap(bytes,bytes32,bytes32,uint8,bytes)": {
        "notice": "Request BTC for failed exchange request"
      },
      "wrapAndSwap((bytes4,bytes,bytes,bytes4,uint256,bytes,uint256),bytes,address[])": {
        "notice": "Process a wrapAndSwap request after checking its inclusion on Bitcoin"
      }
    },
    "version": 1
  },
  "storageLayout": {
    "storage": [
      {
        "astId": 16220,
        "contract": "contracts/routers/CcExchangeRouterLogic.sol:CcExchangeRouterLogic",
        "label": "startingBlockNumber",
        "offset": 0,
        "slot": "0",
        "type": "t_uint256"
      },
      {
        "astId": 16223,
        "contract": "contracts/routers/CcExchangeRouterLogic.sol:CcExchangeRouterLogic",
        "label": "chainId",
        "offset": 0,
        "slot": "1",
        "type": "t_uint256"
      },
      {
        "astId": 16226,
        "contract": "contracts/routers/CcExchangeRouterLogic.sol:CcExchangeRouterLogic",
        "label": "protocolPercentageFee",
        "offset": 0,
        "slot": "2",
        "type": "t_uint256"
      },
      {
        "astId": 16229,
        "contract": "contracts/routers/CcExchangeRouterLogic.sol:CcExchangeRouterLogic",
        "label": "relay",
        "offset": 0,
        "slot": "3",
        "type": "t_address"
      },
      {
        "astId": 16232,
        "contract": "contracts/routers/CcExchangeRouterLogic.sol:CcExchangeRouterLogic",
        "label": "instantRouter",
        "offset": 0,
        "slot": "4",
        "type": "t_address"
      },
      {
        "astId": 16235,
        "contract": "contracts/routers/CcExchangeRouterLogic.sol:CcExchangeRouterLogic",
        "label": "lockers",
        "offset": 0,
        "slot": "5",
        "type": "t_address"
      },
      {
        "astId": 16238,
        "contract": "contracts/routers/CcExchangeRouterLogic.sol:CcExchangeRouterLogic",
        "label": "teleBTC",
        "offset": 0,
        "slot": "6",
        "type": "t_address"
      },
      {
        "astId": 16241,
        "contract": "contracts/routers/CcExchangeRouterLogic.sol:CcExchangeRouterLogic",
        "label": "treasury",
        "offset": 0,
        "slot": "7",
        "type": "t_address"
      },
      {
        "astId": 16246,
        "contract": "contracts/routers/CcExchangeRouterLogic.sol:CcExchangeRouterLogic",
        "label": "exchangeConnector",
        "offset": 0,
        "slot": "8",
        "type": "t_mapping(t_uint256,t_address)"
      },
      {
        "astId": 16251,
        "contract": "contracts/routers/CcExchangeRouterLogic.sol:CcExchangeRouterLogic",
        "label": "ccExchangeRequests",
        "offset": 0,
        "slot": "9",
        "type": "t_mapping(t_bytes32,t_struct(ccExchangeRequest)17784_storage)"
      },
      {
        "astId": 280,
        "contract": "contracts/routers/CcExchangeRouterLogic.sol:CcExchangeRouterLogic",
        "label": "_initialized",
        "offset": 0,
        "slot": "10",
        "type": "t_uint8"
      },
      {
        "astId": 283,
        "contract": "contracts/routers/CcExchangeRouterLogic.sol:CcExchangeRouterLogic",
        "label": "_initializing",
        "offset": 1,
        "slot": "10",
        "type": "t_bool"
      },
      {
        "astId": 1113,
        "contract": "contracts/routers/CcExchangeRouterLogic.sol:CcExchangeRouterLogic",
        "label": "__gap",
        "offset": 0,
        "slot": "11",
        "type": "t_array(t_uint256)50_storage"
      },
      {
        "astId": 152,
        "contract": "contracts/routers/CcExchangeRouterLogic.sol:CcExchangeRouterLogic",
        "label": "_owner",
        "offset": 0,
        "slot": "61",
        "type": "t_address"
      },
      {
        "astId": 272,
        "contract": "contracts/routers/CcExchangeRouterLogic.sol:CcExchangeRouterLogic",
        "label": "__gap",
        "offset": 0,
        "slot": "62",
        "type": "t_array(t_uint256)49_storage"
      },
      {
        "astId": 585,
        "contract": "contracts/routers/CcExchangeRouterLogic.sol:CcExchangeRouterLogic",
        "label": "_status",
        "offset": 0,
        "slot": "111",
        "type": "t_uint256"
      },
      {
        "astId": 654,
        "contract": "contracts/routers/CcExchangeRouterLogic.sol:CcExchangeRouterLogic",
        "label": "__gap",
        "offset": 0,
        "slot": "112",
        "type": "t_array(t_uint256)49_storage"
      },
      {
        "astId": 16270,
        "contract": "contracts/routers/CcExchangeRouterLogic.sol:CcExchangeRouterLogic",
        "label": "fillerWithdrawInterval",
        "offset": 0,
        "slot": "161",
        "type": "t_uint256"
      },
      {
        "astId": 16277,
        "contract": "contracts/routers/CcExchangeRouterLogic.sol:CcExchangeRouterLogic",
        "label": "fillersData",
        "offset": 0,
        "slot": "162",
        "type": "t_mapping(t_bytes32,t_mapping(t_address,t_struct(FillerData)17834_storage))"
      },
      {
        "astId": 16284,
        "contract": "contracts/routers/CcExchangeRouterLogic.sol:CcExchangeRouterLogic",
        "label": "prefixFillSums",
        "offset": 0,
        "slot": "163",
        "type": "t_mapping(t_bytes32,t_mapping(t_address,t_struct(PrefixFillSum)17840_storage))"
      },
      {
        "astId": 16289,
        "contract": "contracts/routers/CcExchangeRouterLogic.sol:CcExchangeRouterLogic",
        "label": "fillsData",
        "offset": 0,
        "slot": "164",
        "type": "t_mapping(t_bytes32,t_struct(FillData)17827_storage)"
      },
      {
        "astId": 16296,
        "contract": "contracts/routers/CcExchangeRouterLogic.sol:CcExchangeRouterLogic",
        "label": "isTokenSupported",
        "offset": 0,
        "slot": "165",
        "type": "t_mapping(t_uint256,t_mapping(t_address,t_bool))"
      },
      {
        "astId": 16301,
        "contract": "contracts/routers/CcExchangeRouterLogic.sol:CcExchangeRouterLogic",
        "label": "isChainSupported",
        "offset": 0,
        "slot": "166",
        "type": "t_mapping(t_uint256,t_bool)"
      },
      {
        "astId": 16306,
        "contract": "contracts/routers/CcExchangeRouterLogic.sol:CcExchangeRouterLogic",
        "label": "extendedCcExchangeRequests",
        "offset": 0,
        "slot": "167",
        "type": "t_mapping(t_bytes32,t_struct(extendedCcExchangeRequest)17801_storage)"
      },
      {
        "astId": 16309,
        "contract": "contracts/routers/CcExchangeRouterLogic.sol:CcExchangeRouterLogic",
        "label": "across",
        "offset": 0,
        "slot": "168",
        "type": "t_address"
      },
      {
        "astId": 16311,
        "contract": "contracts/routers/CcExchangeRouterLogic.sol:CcExchangeRouterLogic",
        "label": "wrappedNativeToken",
        "offset": 0,
        "slot": "169",
        "type": "t_address"
      },
      {
        "astId": 16314,
        "contract": "contracts/routers/CcExchangeRouterLogic.sol:CcExchangeRouterLogic",
        "label": "burnRouter",
        "offset": 0,
        "slot": "170",
        "type": "t_address"
      },
      {
        "astId": 16319,
        "contract": "contracts/routers/CcExchangeRouterLogic.sol:CcExchangeRouterLogic",
        "label": "chainIdMapping",
        "offset": 0,
        "slot": "171",
        "type": "t_mapping(t_uint256,t_struct(chainIdStruct)17760_storage)"
      },
      {
        "astId": 16323,
        "contract": "contracts/routers/CcExchangeRouterLogic.sol:CcExchangeRouterLogic",
        "label": "thirdPartyFee",
        "offset": 0,
        "slot": "172",
        "type": "t_mapping(t_uint256,t_uint256)"
      },
      {
        "astId": 16327,
        "contract": "contracts/routers/CcExchangeRouterLogic.sol:CcExchangeRouterLogic",
        "label": "thirdPartyAddress",
        "offset": 0,
        "slot": "173",
        "type": "t_mapping(t_uint256,t_address)"
      }
    ],
    "types": {
      "t_address": {
        "encoding": "inplace",
        "label": "address",
        "numberOfBytes": "20"
      },
      "t_array(t_address)dyn_storage": {
        "base": "t_address",
        "encoding": "dynamic_array",
        "label": "address[]",
        "numberOfBytes": "32"
      },
      "t_array(t_uint256)49_storage": {
        "base": "t_uint256",
        "encoding": "inplace",
        "label": "uint256[49]",
        "numberOfBytes": "1568"
      },
      "t_array(t_uint256)50_storage": {
        "base": "t_uint256",
        "encoding": "inplace",
        "label": "uint256[50]",
        "numberOfBytes": "1600"
      },
      "t_array(t_uint256)dyn_storage": {
        "base": "t_uint256",
        "encoding": "dynamic_array",
        "label": "uint256[]",
        "numberOfBytes": "32"
      },
      "t_bool": {
        "encoding": "inplace",
        "label": "bool",
        "numberOfBytes": "1"
      },
      "t_bytes32": {
        "encoding": "inplace",
        "label": "bytes32",
        "numberOfBytes": "32"
      },
      "t_mapping(t_address,t_bool)": {
        "encoding": "mapping",
        "key": "t_address",
        "label": "mapping(address => bool)",
        "numberOfBytes": "32",
        "value": "t_bool"
      },
      "t_mapping(t_address,t_struct(FillerData)17834_storage)": {
        "encoding": "mapping",
        "key": "t_address",
        "label": "mapping(address => struct ICcExchangeRouter.FillerData)",
        "numberOfBytes": "32",
        "value": "t_struct(FillerData)17834_storage"
      },
      "t_mapping(t_address,t_struct(PrefixFillSum)17840_storage)": {
        "encoding": "mapping",
        "key": "t_address",
        "label": "mapping(address => struct ICcExchangeRouter.PrefixFillSum)",
        "numberOfBytes": "32",
        "value": "t_struct(PrefixFillSum)17840_storage"
      },
      "t_mapping(t_bytes32,t_mapping(t_address,t_struct(FillerData)17834_storage))": {
        "encoding": "mapping",
        "key": "t_bytes32",
        "label": "mapping(bytes32 => mapping(address => struct ICcExchangeRouter.FillerData))",
        "numberOfBytes": "32",
        "value": "t_mapping(t_address,t_struct(FillerData)17834_storage)"
      },
      "t_mapping(t_bytes32,t_mapping(t_address,t_struct(PrefixFillSum)17840_storage))": {
        "encoding": "mapping",
        "key": "t_bytes32",
        "label": "mapping(bytes32 => mapping(address => struct ICcExchangeRouter.PrefixFillSum))",
        "numberOfBytes": "32",
        "value": "t_mapping(t_address,t_struct(PrefixFillSum)17840_storage)"
      },
      "t_mapping(t_bytes32,t_struct(FillData)17827_storage)": {
        "encoding": "mapping",
        "key": "t_bytes32",
        "label": "mapping(bytes32 => struct ICcExchangeRouter.FillData)",
        "numberOfBytes": "32",
        "value": "t_struct(FillData)17827_storage"
      },
      "t_mapping(t_bytes32,t_struct(ccExchangeRequest)17784_storage)": {
        "encoding": "mapping",
        "key": "t_bytes32",
        "label": "mapping(bytes32 => struct ICcExchangeRouter.ccExchangeRequest)",
        "numberOfBytes": "32",
        "value": "t_struct(ccExchangeRequest)17784_storage"
      },
      "t_mapping(t_bytes32,t_struct(extendedCcExchangeRequest)17801_storage)": {
        "encoding": "mapping",
        "key": "t_bytes32",
        "label": "mapping(bytes32 => struct ICcExchangeRouter.extendedCcExchangeRequest)",
        "numberOfBytes": "32",
        "value": "t_struct(extendedCcExchangeRequest)17801_storage"
      },
      "t_mapping(t_uint256,t_address)": {
        "encoding": "mapping",
        "key": "t_uint256",
        "label": "mapping(uint256 => address)",
        "numberOfBytes": "32",
        "value": "t_address"
      },
      "t_mapping(t_uint256,t_bool)": {
        "encoding": "mapping",
        "key": "t_uint256",
        "label": "mapping(uint256 => bool)",
        "numberOfBytes": "32",
        "value": "t_bool"
      },
      "t_mapping(t_uint256,t_mapping(t_address,t_bool))": {
        "encoding": "mapping",
        "key": "t_uint256",
        "label": "mapping(uint256 => mapping(address => bool))",
        "numberOfBytes": "32",
        "value": "t_mapping(t_address,t_bool)"
      },
      "t_mapping(t_uint256,t_struct(chainIdStruct)17760_storage)": {
        "encoding": "mapping",
        "key": "t_uint256",
        "label": "mapping(uint256 => struct ICcExchangeRouter.chainIdStruct)",
        "numberOfBytes": "32",
        "value": "t_struct(chainIdStruct)17760_storage"
      },
      "t_mapping(t_uint256,t_uint256)": {
        "encoding": "mapping",
        "key": "t_uint256",
        "label": "mapping(uint256 => uint256)",
        "numberOfBytes": "32",
        "value": "t_uint256"
      },
      "t_struct(FillData)17827_storage": {
        "encoding": "inplace",
        "label": "struct ICcExchangeRouter.FillData",
        "members": [
          {
            "astId": 17818,
            "contract": "contracts/routers/CcExchangeRouterLogic.sol:CcExchangeRouterLogic",
            "label": "startingTime",
            "offset": 0,
            "slot": "0",
            "type": "t_uint256"
          },
          {
            "astId": 17820,
            "contract": "contracts/routers/CcExchangeRouterLogic.sol:CcExchangeRouterLogic",
            "label": "reqToken",
            "offset": 0,
            "slot": "1",
            "type": "t_address"
          },
          {
            "astId": 17822,
            "contract": "contracts/routers/CcExchangeRouterLogic.sol:CcExchangeRouterLogic",
            "label": "lastUsedIdx",
            "offset": 0,
            "slot": "2",
            "type": "t_uint256"
          },
          {
            "astId": 17824,
            "contract": "contracts/routers/CcExchangeRouterLogic.sol:CcExchangeRouterLogic",
            "label": "remainingAmountOfLastFill",
            "offset": 0,
            "slot": "3",
            "type": "t_uint256"
          },
          {
            "astId": 17826,
            "contract": "contracts/routers/CcExchangeRouterLogic.sol:CcExchangeRouterLogic",
            "label": "isWithdrawnLastFill",
            "offset": 0,
            "slot": "4",
            "type": "t_bool"
          }
        ],
        "numberOfBytes": "160"
      },
      "t_struct(FillerData)17834_storage": {
        "encoding": "inplace",
        "label": "struct ICcExchangeRouter.FillerData",
        "members": [
          {
            "astId": 17829,
            "contract": "contracts/routers/CcExchangeRouterLogic.sol:CcExchangeRouterLogic",
            "label": "index",
            "offset": 0,
            "slot": "0",
            "type": "t_uint256"
          },
          {
            "astId": 17831,
            "contract": "contracts/routers/CcExchangeRouterLogic.sol:CcExchangeRouterLogic",
            "label": "token",
            "offset": 0,
            "slot": "1",
            "type": "t_address"
          },
          {
            "astId": 17833,
            "contract": "contracts/routers/CcExchangeRouterLogic.sol:CcExchangeRouterLogic",
            "label": "amount",
            "offset": 0,
            "slot": "2",
            "type": "t_uint256"
          }
        ],
        "numberOfBytes": "96"
      },
      "t_struct(PrefixFillSum)17840_storage": {
        "encoding": "inplace",
        "label": "struct ICcExchangeRouter.PrefixFillSum",
        "members": [
          {
            "astId": 17837,
            "contract": "contracts/routers/CcExchangeRouterLogic.sol:CcExchangeRouterLogic",
            "label": "prefixSum",
            "offset": 0,
            "slot": "0",
            "type": "t_array(t_uint256)dyn_storage"
          },
          {
            "astId": 17839,
            "contract": "contracts/routers/CcExchangeRouterLogic.sol:CcExchangeRouterLogic",
            "label": "currentIndex",
            "offset": 0,
            "slot": "1",
            "type": "t_uint256"
          }
        ],
        "numberOfBytes": "64"
      },
      "t_struct(ccExchangeRequest)17784_storage": {
        "encoding": "inplace",
        "label": "struct ICcExchangeRouter.ccExchangeRequest",
        "members": [
          {
            "astId": 17762,
            "contract": "contracts/routers/CcExchangeRouterLogic.sol:CcExchangeRouterLogic",
            "label": "appId",
            "offset": 0,
            "slot": "0",
            "type": "t_uint256"
          },
          {
            "astId": 17764,
            "contract": "contracts/routers/CcExchangeRouterLogic.sol:CcExchangeRouterLogic",
            "label": "inputAmount",
            "offset": 0,
            "slot": "1",
            "type": "t_uint256"
          },
          {
            "astId": 17766,
            "contract": "contracts/routers/CcExchangeRouterLogic.sol:CcExchangeRouterLogic",
            "label": "outputAmount",
            "offset": 0,
            "slot": "2",
            "type": "t_uint256"
          },
          {
            "astId": 17768,
            "contract": "contracts/routers/CcExchangeRouterLogic.sol:CcExchangeRouterLogic",
            "label": "isFixedToken",
            "offset": 0,
            "slot": "3",
            "type": "t_bool"
          },
          {
            "astId": 17770,
            "contract": "contracts/routers/CcExchangeRouterLogic.sol:CcExchangeRouterLogic",
            "label": "recipientAddress",
            "offset": 1,
            "slot": "3",
            "type": "t_address"
          },
          {
            "astId": 17772,
            "contract": "contracts/routers/CcExchangeRouterLogic.sol:CcExchangeRouterLogic",
            "label": "fee",
            "offset": 0,
            "slot": "4",
            "type": "t_uint256"
          },
          {
            "astId": 17774,
            "contract": "contracts/routers/CcExchangeRouterLogic.sol:CcExchangeRouterLogic",
            "label": "isUsed",
            "offset": 0,
            "slot": "5",
            "type": "t_bool"
          },
          {
            "astId": 17777,
            "contract": "contracts/routers/CcExchangeRouterLogic.sol:CcExchangeRouterLogic",
            "label": "path",
            "offset": 0,
            "slot": "6",
            "type": "t_array(t_address)dyn_storage"
          },
          {
            "astId": 17779,
            "contract": "contracts/routers/CcExchangeRouterLogic.sol:CcExchangeRouterLogic",
            "label": "deadline",
            "offset": 0,
            "slot": "7",
            "type": "t_uint256"
          },
          {
            "astId": 17781,
            "contract": "contracts/routers/CcExchangeRouterLogic.sol:CcExchangeRouterLogic",
            "label": "speed",
            "offset": 0,
            "slot": "8",
            "type": "t_uint256"
          },
          {
            "astId": 17783,
            "contract": "contracts/routers/CcExchangeRouterLogic.sol:CcExchangeRouterLogic",
            "label": "destinationChain",
            "offset": 0,
            "slot": "9",
            "type": "t_uint256"
          }
        ],
        "numberOfBytes": "320"
      },
      "t_struct(chainIdStruct)17760_storage": {
        "encoding": "inplace",
        "label": "struct ICcExchangeRouter.chainIdStruct",
        "members": [
          {
            "astId": 17757,
            "contract": "contracts/routers/CcExchangeRouterLogic.sol:CcExchangeRouterLogic",
            "label": "middleChain",
            "offset": 0,
            "slot": "0",
            "type": "t_uint256"
          },
          {
            "astId": 17759,
            "contract": "contracts/routers/CcExchangeRouterLogic.sol:CcExchangeRouterLogic",
            "label": "destinationChain",
            "offset": 0,
            "slot": "1",
            "type": "t_uint256"
          }
        ],
        "numberOfBytes": "64"
      },
      "t_struct(extendedCcExchangeRequest)17801_storage": {
        "encoding": "inplace",
        "label": "struct ICcExchangeRouter.extendedCcExchangeRequest",
        "members": [
          {
            "astId": 17786,
            "contract": "contracts/routers/CcExchangeRouterLogic.sol:CcExchangeRouterLogic",
            "label": "chainId",
            "offset": 0,
            "slot": "0",
            "type": "t_uint256"
          },
          {
            "astId": 17788,
            "contract": "contracts/routers/CcExchangeRouterLogic.sol:CcExchangeRouterLogic",
            "label": "isTransferredToOtherChain",
            "offset": 0,
            "slot": "1",
            "type": "t_bool"
          },
          {
            "astId": 17790,
            "contract": "contracts/routers/CcExchangeRouterLogic.sol:CcExchangeRouterLogic",
            "label": "remainedInputAmount",
            "offset": 0,
            "slot": "2",
            "type": "t_uint256"
          },
          {
            "astId": 17792,
            "contract": "contracts/routers/CcExchangeRouterLogic.sol:CcExchangeRouterLogic",
            "label": "bridgeFee",
            "offset": 0,
            "slot": "3",
            "type": "t_uint256"
          },
          {
            "astId": 17794,
            "contract": "contracts/routers/CcExchangeRouterLogic.sol:CcExchangeRouterLogic",
            "label": "thirdParty",
            "offset": 0,
            "slot": "4",
            "type": "t_uint256"
          },
          {
            "astId": 17796,
            "contract": "contracts/routers/CcExchangeRouterLogic.sol:CcExchangeRouterLogic",
            "label": "protocolFee",
            "offset": 0,
            "slot": "5",
            "type": "t_uint256"
          },
          {
            "astId": 17798,
            "contract": "contracts/routers/CcExchangeRouterLogic.sol:CcExchangeRouterLogic",
            "label": "thirdPartyFee",
            "offset": 0,
            "slot": "6",
            "type": "t_uint256"
          },
          {
            "astId": 17800,
            "contract": "contracts/routers/CcExchangeRouterLogic.sol:CcExchangeRouterLogic",
            "label": "lockerFee",
            "offset": 0,
            "slot": "7",
            "type": "t_uint256"
          }
        ],
        "numberOfBytes": "256"
      },
      "t_uint256": {
        "encoding": "inplace",
        "label": "uint256",
        "numberOfBytes": "32"
      },
      "t_uint8": {
        "encoding": "inplace",
        "label": "uint8",
        "numberOfBytes": "1"
      }
    }
  }
}