{
  "address": "0xBe9F70A171b24FfacB59eF758BbC4B7b15ec9cA9",
  "abi": [
    {
      "inputs": [
        {
          "internalType": "bytes",
          "name": "message",
          "type": "bytes"
        },
        {
          "internalType": "bytes32",
          "name": "r",
          "type": "bytes32"
        },
        {
          "internalType": "bytes32",
          "name": "s",
          "type": "bytes32"
        },
        {
          "internalType": "uint8",
          "name": "v",
          "type": "uint8"
        }
      ],
      "name": "_verifySig",
      "outputs": [
        {
          "internalType": "address",
          "name": "",
          "type": "address"
        }
      ],
      "stateMutability": "pure",
      "type": "function"
    }
  ],
  "transactionHash": "0xe1ead81d516380a019fb733f51b107f9e77d55de84af63df7970e7b19233a938",
  "args": [],
  "numDeployments": 1,
  "solcInputHash": "2582edfbfb17d2cd4b443361f672477d",
  "bytecode": "0x6128bc61003a600b82828239805160001a60731461002d57634e487b7160e01b600052600060045260246000fd5b30600052607381538281f3fe73000000000000000000000000000000000000000030146080604052600436106100405760003560e01c806328e25ef214610045578063859f6b8614610075575b600080fd5b6100586100533660046123dd565b6100a3565b6040516001600160a01b0390911681526020015b60405180910390f35b81801561008157600080fd5b50610095610090366004612442565b6101d9565b60405190815260200161006c565b600080858051906020012090506000816040516020016100ee91907b0ca2ba3432b932bab69029b4b3b732b21026b2b9b9b0b3b29d05199960211b8152601c810191909152603c0190565b60408051601f198184030181528282528051602091820120600080855291840180845281905260ff88169284019290925260608301899052608083018890529092509060019060a0016020604051602081039080840390855afa158015610159573d6000803e3d6000fd5b5050604051601f1901519150506001600160a01b0381166101cc5760405162461bcd60e51b815260206004820152602260248201527f506f6c79676f6e436f6e6e6563746f724c6f6769633a20496e76616c69642073604482015261696760f01b60648201526084015b60405180910390fd5b925050505b949350505050565b6000806101f8886000015189602001518a604001518b60600151610717565b60008181526020899052604090206005015490915060ff161561025d5760405162461bcd60e51b815260206004820152601f60248201527f45786368616e6765526f757465724c69623a20616c726561647920757365640060448201526064016101c3565b6102c760405180610160016040528060008152602001600081526020016000815260200160001515815260200160006001600160a01b0316815260200160008152602001600015158152602001606081526020016000815260200160008152602001600081525090565b60606102d78a604001518761087d565b6001600160401b039091166020840152805190915060411461033b5760405162461bcd60e51b815260206004820152601e60248201527f45786368616e6765526f757465724c69623a20696e76616c6964206c656e000060448201526064016101c3565b600082602001511161038f5760405162461bcd60e51b815260206004820152601d60248201527f45786368616e6765526f757465724c69623a207a65726f20696e70757400000060448201526064016101c3565b610398816109f8565b600084815260208a90526040902061ffff9190911690556103b881610a13565b6103cc9062ffffff1664174876e80061273c565b600084815260208a905260409020600301556103e781610a2e565b600084815260208a90526040902060ff9190911660049091015561040a81610a48565b60ff168252600061041a82610a57565b905061042582610a72565b6001600160701b031660408401526001606084015261044382610a8d565b6001600160a01b03166080840152604080516002808252606082018352909160208301908036833750505060e08401819052805189919060009061049757634e487b7160e01b600052603260045260246000fd5b60200260200101906001600160a01b031690816001600160a01b031681525050808360e001516001815181106104dd57634e487b7160e01b600052603260045260246000fd5b60200260200101906001600160a01b031690816001600160a01b031681525050600061050883610a9d565b62ffffff16905083602001518111156105625760405162461bcd60e51b815260206004820152601c60248201527b45786368616e6765526f757465724c69623a2077726f6e672066656560201b60448201526064016101c3565b60a0840181905261057283610aad565b60ff166101208501819052156105dd5760405162461bcd60e51b815260206004820152602a60248201527f45786368616e6765526f757465724c69623a2066696c6c6572206973206e6f74604482015269081cdd5c1c1bdc9d195960b21b60648201526084016101c3565b600160c08501818152600087815260208e8152604091829020885181558189015194810194909455908701516002840155606087015160038401805460808a01516001600160a01b031661010002610100600160a81b0319931515939093166001600160a81b03199091161791909117905560a08701516004840155905160058301805491151560ff199290921691909117905560e0860151805187939261068c92600685019291019061227f565b5061010082015160078201556101208201516008820155610140909101516009909101556106bb8c8887610abc565b6107075760405162461bcd60e51b815260206004820152601d60248201527f45786368616e6765526f757465723a206e6f742066696e616c697a656400000060448201526064016101c3565b50929a9950505050505050505050565b60008061072e610729825b8790610baa565b610bd0565b905061073f62ffffff198216610d26565b156107895760405162461bcd60e51b815260206004820152601a602482015279109a5d18dbda5b92195b1c195c8e881d9a5b881a5cc81b9d5b1b60321b60448201526064016101c3565b60006002878787876040516020016107a494939291906125a9565b60408051601f19818403018152908290526107be916125fc565b602060405180830381855afa1580156107db573d6000803e3d6000fd5b5050506040513d601f19601f820116820180604052508101906107fe91906123c5565b9050600060028260405160200161081791815260200190565b60408051601f1981840301815290829052610831916125fc565b602060405180830381855afa15801561084e573d6000803e3d6000fd5b5050506040513d601f19601f8201168201806040525081019061087191906123c5565b98975050505050505050565b600060608161089361088e82610722565b610d32565b90506108a462ffffff198216610d26565b156108ef5760405162461bcd60e51b815260206004820152601b60248201527a109a5d18dbda5b92195b1c195c8e881d9bdd5d081a5cc81b9d5b1b602a1b60448201526064016101c3565b6000806000806000610902866000610e33565b6001600160401b0316905060005b818110156109ea576109228782610f7c565b955061092d866110a1565b9450610938866110fe565b935061094384611148565b925062ffffff1980841614156109c6578960405160200161096491906125fc565b604051602081830303815290604052805190602001206109898662ffffff191661126a565b60405160200161099991906125fc565b6040516020818303038152906040528051906020012014156109c1576109be866112b0565b98505b6109d8565b6109d562ffffff19841661126a565b97505b806109e281612816565b915050610910565b505050505050509250929050565b600080610a0883600060016112d5565b600201519392505050565b600080610a2383603e60406112d5565b600301519392505050565b600080610a3d83601b806112d5565b600101519392505050565b600080610a3d836002806112d5565b600080610a6783601c602f6112d5565b601401519392505050565b600080610a82836030603d6112d5565b600e01519392505050565b600080610a6783600360166112d5565b600080610a2383601760196112d5565b600080610a3d83601a806112d5565b600080610acd84866080015161135a565b905080341015610b1c5760405162461bcd60e51b815260206004820152601a60248201527945786368616e6765526f757465724c69623a206c6f772066656560301b60448201526064016101c3565b6000610b75858588608001518960a001518a60c00151604051602401610b459493929190612647565b60408051601f198184030181529190526020810180516001600160e01b0316634354da2560e01b179052846113dc565b9050610b8a33610b858434612784565b611402565b80806020019051810190610b9e91906123a5565b925050505b9392505050565b815160009060208401610bc564ffffffffff8516828461151d565b925050505b92915050565b60008181610be6815b62ffffff19841690611561565b50610bf662ffffff19851661163b565b6001600160601b0316610c1257610c0b61164a565b9250610d1f565b6000610c1f856000610e33565b90506000610c3262ffffff19871661163b565b6001600160601b031690506001600160401b038216610c5c57610c5361164a565b94505050610d1f565b6000610c6783611652565b60ff16905060005b836001600160401b0316811015610ce557828210610c9a57610c8f61164a565b965050505050610d1f565b6000610cba610ca98486612784565b60055b62ffffff198c1691906116b0565b9050610cc5816116da565b610ccf90846126b2565b9250508080610cdd90612816565b915050610c6f565b50818114610cff57610cf561164a565b9550505050610d1f565b610d1960065b60d81b6301000000600160d81b0389161790565b95505050505b5050919050565b62ffffff199081161490565b60008181610d3f81610bd9565b50610d4f62ffffff19851661163b565b6001600160601b0316610d6457610c0b61164a565b6000610d71856000610e33565b90506000610d8462ffffff19871661163b565b6001600160601b031690506001600160401b038216610da557610c5361164a565b6000610db083611652565b60ff16905060005b836001600160401b0316811015610e1957828210610dd857610c8f61164a565b6000610dee610de78486612784565b600e610cac565b9050610df98161172e565b610e0390846126b2565b9250508080610e1190612816565b915050610db8565b50818114610e2957610cf561164a565b610d19600f610d05565b600080610e4862ffffff198516846001611777565b905060fc8111610e6357610e5b816117a7565b915050610bca565b8060fd1415610ec957610e91610e8c610e7d8560016126b2565b62ffffff198716906002611813565b6117a7565b9150610e9c82611652565b60ff16600314610ec457610ec2610ebd62ffffff1986168560036000611956565b6119bc565b505b610f75565b8060fe1415610f1e57610ef2610e8c610ee38560016126b2565b62ffffff198716906004611813565b9150610efd82611652565b60ff16600514610ec457610ec2610ebd62ffffff1986168560056000611956565b8060ff1415610f7557610f47610e8c610f388560016126b2565b62ffffff198716906008611813565b9150610f5282611652565b60ff16600914610f7557610f73610ebd62ffffff1986168560096000611956565b505b5092915050565b600082600f610f8a81610bd9565b506000610f98866000610e33565b6001600160401b031690506000610fb462ffffff19881661163b565b6001600160601b031690508186106110025760405162461bcd60e51b81526020600482015260116024820152702b37baba103932b0b21037bb32b9393ab760791b60448201526064016101c3565b600061100d83611652565b60ff1690506000805b888110156110635761103a61102b8486612784565b62ffffff198c1690600e6116b0565b91506110458261172e565b61104f90846126b2565b925061105c6001826126b2565b9050611016565b50611071610de78385612784565b9050600061107e8261172e565b905061109362ffffff198b168483600d611956565b9a9950505050505050505050565b600081600d6110af81610bd9565b5060006110bd856008610e33565b90506110f56110cb82611652565b6110d69060086126f5565b60ff166001600160401b03831660075b62ffffff198916929190611956565b95945050505050565b600081600d61110c81610bd9565b50600061111a856008610e33565b90506110f560088261112b84611652565b60ff1661113891906126ca565b6001600160401b031660076110e6565b600081600761115681610bd9565b506000611164856000610e33565b9050600061117e610e8c62ffffff19881660026001611777565b905061119262ffffff198716600180611777565b606a1415806111c657506111a760028361279b565b6001600160401b03166111c362ffffff19881660026001611777565b14155b156111d357610c5361164a565b604d826001600160401b0316111580156111f757506004826001600160401b031610155b6112435760405162461bcd60e51b815260206004820152601f60248201527f426974636f696e48656c7065723a20696e76616c6964206f7072657475726e0060448201526064016101c3565b61126062ffffff19871660036001600160401b038416600c611956565b9695505050505050565b60606000806112788461163b565b60405193508392506001600160601b0316905061129f8461129a8460206126b2565b611a44565b508181016020016040529052919050565b600081600d6112be81610bd9565b506101d1610e8c62ffffff19861660006008611813565b60606000835b6112e68460016126b2565b8110156113515785818151811061130d57634e487b7160e01b600052603260045260246000fd5b602001015160f81c60f81b9150828260405160200161132d929190612618565b6040516020818303038152906040529250808061134990612816565b9150506112db565b50509392505050565b60405163d0a8973960e01b815260048101829052600060248201819052906001600160a01b0384169063d0a897399060440160206040518083038186803b1580156113a457600080fd5b505afa1580156113b8573d6000803e3d6000fd5b505050506040513d601f19601f82011682018060405250810190610ba391906123c5565b60606101d184848460405180606001604052806029815260200161285e60299139611b87565b804710156114525760405162461bcd60e51b815260206004820152601d60248201527f416464726573733a20696e73756666696369656e742062616c616e636500000060448201526064016101c3565b6000826001600160a01b03168260405160006040518083038185875af1925050503d806000811461149f576040519150601f19603f3d011682016040523d82523d6000602084013e6114a4565b606091505b50509050806115185760405162461bcd60e51b815260206004820152603a60248201527f416464726573733a20756e61626c6520746f2073656e642076616c75652c20726044820152791958da5c1a595b9d081b585e481a185d99481c995d995c9d195960321b60648201526084016101c3565b505050565b60008061152a83856126b2565b905060405181111561153a575060005b8061154c5762ffffff19915050610ba3565b5050606092831b9190911790911b1760181b90565b600061156d8383611ca4565b61163457600061158c6115808560d81c90565b64ffffffffff16611cc7565b91505060006115a18464ffffffffff16611cc7565b6040517f5479706520617373657274696f6e206661696c65642e20476f7420307800000060208201526001600160b01b031960b086811b8216603d8401526c05c408af0e0cac6e8cac84060f609b1b604784015283901b16605482015290925060009150605e015b60405160208183030381529060405290508060405162461bcd60e51b81526004016101c39190612677565b5090919050565b60181c6001600160601b031690565b62ffffff1990565b600060fc826001600160401b03161161166d57506001919050565b61ffff826001600160401b03161161168757506003919050565b63ffffffff826001600160401b0316116116a357506005919050565b506009919050565b919050565b60006101d184846116c08761163b565b6001600160601b03166116d39190612784565b8585611956565b60008160056116e881610bd9565b5060006116f6856024610e33565b9050806001600160401b031661170b82611652565b60ff1661171891906126b2565b6117239060246126b2565b6110f59060046126b2565b600081600e61173c81610bd9565b50600061174a856008610e33565b9050806001600160401b031661175f82611652565b60ff1661176c91906126b2565b6110f59060086126b2565b60006117848260206127c3565b61178f90600861275b565b60ff1661179d858585611d73565b901c949350505050565b60006001600160401b0382111561180f5760405162461bcd60e51b815260206004820152602660248201527f53616665436173743a2076616c756520646f65736e27742066697420696e203660448201526534206269747360d01b60648201526084016101c3565b5090565b60006101d1611823858585611d73565b60008190506008817eff00ff00ff00ff00ff00ff00ff00ff00ff00ff00ff00ff00ff00ff00ff00ff16901b600882901c7eff00ff00ff00ff00ff00ff00ff00ff00ff00ff00ff00ff00ff00ff00ff00ff161790506010817dffff0000ffff0000ffff0000ffff0000ffff0000ffff0000ffff0000ffff16901b601082901c7dffff0000ffff0000ffff0000ffff0000ffff0000ffff0000ffff0000ffff161790506020817bffffffff00000000ffffffff00000000ffffffff00000000ffffffff16901b602082901c7bffffffff00000000ffffffff00000000ffffffff00000000ffffffff161790506040816001600160401b03600160801b03600160c01b0316901b604082901c6001600160401b03600160801b03600160c01b0316179050608081901b608082901c179050919050565b60008061196286611ea1565b6001600160601b0316905061197686611eb0565b8461198187846126b2565b61198b91906126b2565b111561199e5762ffffff199150506101d1565b6119a885826126b2565b90506112608364ffffffffff16828661151d565b606060006119fa6119f5826119e76119d962ffffff19881661163b565b6001600160601b0316611edd565b62ffffff1987169190611777565b611cc7565b6040517a09cdedc5adad2dcd2dac2d840ecc2e440d2dce85c408edee84060f602b1b60208201526001600160701b0319607083901b16603b82015290925060009150604d01611609565b6000611a4f83611f3e565b611aac5760405162461bcd60e51b815260206004820152602860248201527f54797065644d656d566965772f636f7079546f202d204e756c6c20706f696e7460448201526732b9103232b932b360c11b60648201526084016101c3565b611ab583611f50565b611b155760405162461bcd60e51b815260206004820152602b60248201527f54797065644d656d566965772f636f7079546f202d20496e76616c696420706f60448201526a34b73a32b9103232b932b360a91b60648201526084016101c3565b6000611b208461163b565b6001600160601b031690506000611b3685611ea1565b6001600160601b031690506000604051905084811115611b565760206060fd5b8285848460045afa50611260611b6c8760d81c90565b64ffffffffff60601b606091821b168717901b841760181b90565b606082471015611be85760405162461bcd60e51b815260206004820152602660248201527f416464726573733a20696e73756666696369656e742062616c616e636520666f6044820152651c8818d85b1b60d21b60648201526084016101c3565b843b611c365760405162461bcd60e51b815260206004820152601d60248201527f416464726573733a2063616c6c20746f206e6f6e2d636f6e747261637400000060448201526064016101c3565b600080866001600160a01b03168587604051611c5291906125fc565b60006040518083038185875af1925050503d8060008114611c8f576040519150601f19603f3d011682016040523d82523d6000602084013e611c94565b606091505b50915091506101cc828286611f8e565b60008164ffffffffff16611cb88460d81c90565b64ffffffffff16149392505050565b600080601f5b600f8160ff161115611d25576000611ce682600861275b565b60ff1685901c9050611cf781611fc7565b61ffff16841793508160ff16601014611d1257601084901b93505b50611d1e6001826127c3565b9050611ccd565b50600f5b60ff8160ff161015611d6d5760ff600882021684901c611d4881611fc7565b61ffff16831792508160ff16600014611d6357601083901b92505b5060001901611d29565b50915091565b600060ff8216611d8557506000610ba3565b611d8e8461163b565b6001600160601b0316611da460ff8416856126b2565b1115611df457611ddb611db685611ea1565b6001600160601b0316611dc88661163b565b6001600160601b0316858560ff16611ff9565b60405162461bcd60e51b81526004016101c39190612677565b60208260ff161115611e6b5760405162461bcd60e51b815260206004820152603a60248201527f54797065644d656d566965772f696e646578202d20417474656d7074656420746044820152796f20696e646578206d6f7265207468616e20333220627974657360301b60648201526084016101c3565b600882026000611e7a86611ea1565b6001600160601b031690506000600160ff1b60001984011d91909501511695945050505050565b60781c6001600160601b031690565b6000611ebb8261163b565b611ec483611ea1565b611ece919061271a565b6001600160601b031692915050565b600060ff82111561180f5760405162461bcd60e51b815260206004820152602560248201527f53616665436173743a2076616c756520646f65736e27742066697420696e2038604482015264206269747360d81b60648201526084016101c3565b6000611f4982610d26565b1592915050565b6000611f5c8260d81c90565b64ffffffffff1664ffffffffff1415611f7757506000919050565b6000611f8283611eb0565b60405110199392505050565b60608315611f9d575081610ba3565b825115611fad5782518084602001fd5b8160405162461bcd60e51b81526004016101c39190612677565b6000611fd960048360ff16901c612123565b60ff1661ffff919091161760081b611ff082612123565b60ff1617919050565b6060600061200686611cc7565b915050600061201486611cc7565b915050600061202286611cc7565b915050600061203086611cc7565b604080517f54797065644d656d566965772f696e646578202d204f76657272616e20746865602082015274040ecd2caee5c40a6d8d2c6ca40d2e640c2e84060f605b1b818301526001600160d01b031960d098891b811660558301526e040eed2e8d040d8cadccee8d04060f608b1b605b830181905297891b8116606a8301527f2e20417474656d7074656420746f20696e646578206174206f666673657420306070830152600f60fb1b609083015295881b861660918201526097810196909652951b90921660a68401525050601760f91b60ac8201528151808203608d01815260ad90910190915295945050505050565b600060f08083179060ff8216141561213e5750603092915050565b8060ff1660f114156121535750603192915050565b8060ff1660f214156121685750603292915050565b8060ff1660f3141561217d5750603392915050565b8060ff1660f414156121925750603492915050565b8060ff1660f514156121a75750603592915050565b8060ff1660f614156121bc5750603692915050565b8060ff1660f714156121d15750603792915050565b8060ff1660f814156121e65750603892915050565b8060ff1660f914156121fb5750603992915050565b8060ff1660fa14156122105750606192915050565b8060ff1660fb14156122255750606292915050565b8060ff1660fc141561223a5750606392915050565b8060ff1660fd141561224f5750606492915050565b8060ff1660fe14156122645750606592915050565b8060ff1660ff14156122795750606692915050565b50919050565b8280548282559060005260206000209081019282156122d4579160200282015b828111156122d457825182546001600160a01b0319166001600160a01b0390911617825560209092019160019091019061229f565b5061180f9291505b8082111561180f57600081556001016122dc565b80356001600160a01b03811681146116ab57600080fd5b80356001600160e01b0319811681146116ab57600080fd5b600082601f83011261232f578081fd5b81356001600160401b038082111561234957612349612847565b604051601f8301601f19908116603f0116810190828211818310171561237157612371612847565b81604052838152866020858801011115612389578485fd5b8360208701602083013792830160200193909352509392505050565b6000602082840312156123b6578081fd5b81518015158114610ba3578182fd5b6000602082840312156123d6578081fd5b5051919050565b600080600080608085870312156123f2578283fd5b84356001600160401b03811115612407578384fd5b6124138782880161231f565b9450506020850135925060408501359150606085013560ff81168114612437578182fd5b939692955090935050565b60008060008060008060c0878903121561245a578182fd5b86356001600160401b0380821115612470578384fd5b9088019060e0828b031215612483578384fd5b61248b61268a565b61249483612307565b81526020830135828111156124a7578586fd5b6124b38c82860161231f565b6020830152506040830135828111156124ca578586fd5b6124d68c82860161231f565b6040830152506124e860608401612307565b60608201526080830135608082015260a083013582811115612508578586fd5b6125148c82860161231f565b60a08301525060c083810135908201529750602089013596506040890135955061254060608a016122f0565b94506080890135915080821115612555578384fd5b5061256289828a0161231f565b92505061257160a088016122f0565b90509295509295509295565b600081518084526125958160208601602086016127e6565b601f01601f19169290920160200192915050565b600063ffffffff60e01b808716835285516125cb816004860160208a016127e6565b8551908401906125e2816004840160208a016127e6565b919094169301600481019390935250506008019392505050565b6000825161260e8184602087016127e6565b9190910192915050565b6000835161262a8184602088016127e6565b6001600160f81b0319939093169190920190815260010192915050565b848152836020820152608060408201526000612666608083018561257d565b905082606083015295945050505050565b602081526000610ba3602083018461257d565b60405160e081016001600160401b03811182821017156126ac576126ac612847565b60405290565b600082198211156126c5576126c5612831565b500190565b60006001600160401b038083168185168083038211156126ec576126ec612831565b01949350505050565b600060ff821660ff84168060ff0382111561271257612712612831565b019392505050565b60006001600160601b038281168482168083038211156126ec576126ec612831565b600081600019048311821515161561275657612756612831565b500290565b600060ff821660ff84168160ff048111821515161561277c5761277c612831565b029392505050565b60008282101561279657612796612831565b500390565b60006001600160401b03838116908316818110156127bb576127bb612831565b039392505050565b600060ff821660ff8416808210156127dd576127dd612831565b90039392505050565b60005b838110156128015781810151838201526020016127e9565b83811115612810576000848401525b50505050565b600060001982141561282a5761282a612831565b5060010190565b634e487b7160e01b600052601160045260246000fd5b634e487b7160e01b600052604160045260246000fdfe416464726573733a206c6f772d6c6576656c2063616c6c20776974682076616c7565206661696c6564a2646970667358221220a16d34bbca2fe4e8af07e0e18a444bb15301f9c36361e98b2a99a6390ca1c18464736f6c63430008040033",
  "devdoc": {
    "kind": "dev",
    "methods": {
      "_verifySig(bytes,bytes32,bytes32,uint8)": {
        "returns": {
          "_0": "_signer Address of message signer (if signature is valid)"
        }
      }
    },
    "version": 1
  },
  "userdoc": {
    "kind": "user",
    "methods": {
      "_verifySig(bytes,bytes32,bytes32,uint8)": {
        "notice": "Verifies the signature of _msgHash"
      },
      "ccExchangeHelper(ICcExchangeRouter.TxAndProof,mapping(bytes32 => ICcExchangeRouter.ccExchangeRequest) storage,mapping(bytes32 => ICcExchangeRouter.extendedCcExchangeRequest) storage,address,bytes,address)": {
        "notice": "Parses and stores exchange request if it's valid"
      }
    },
    "version": 1
  },
  "storageLayout": {
    "storage": [],
    "types": null
  }
}