{
  "address": "0x6B662AF014cf1467444510627458d709c3ae4936",
  "abi": [
    {
      "anonymous": false,
      "inputs": [
        {
          "indexed": true,
          "internalType": "bytes",
          "name": "lockerLockingScript",
          "type": "bytes"
        },
        {
          "indexed": false,
          "internalType": "uint256",
          "name": "lockerScriptType",
          "type": "uint256"
        },
        {
          "indexed": false,
          "internalType": "address",
          "name": "lockerTargetAddress",
          "type": "address"
        },
        {
          "indexed": true,
          "internalType": "address",
          "name": "user",
          "type": "address"
        },
        {
          "indexed": false,
          "internalType": "uint256",
          "name": "inputAmount",
          "type": "uint256"
        },
        {
          "indexed": false,
          "internalType": "uint256",
          "name": "receivedAmount",
          "type": "uint256"
        },
        {
          "indexed": true,
          "internalType": "uint256",
          "name": "speed",
          "type": "uint256"
        },
        {
          "indexed": false,
          "internalType": "address",
          "name": "teleporter",
          "type": "address"
        },
        {
          "indexed": false,
          "internalType": "uint256",
          "name": "teleporterFee",
          "type": "uint256"
        },
        {
          "indexed": false,
          "internalType": "uint256",
          "name": "relayFee",
          "type": "uint256"
        },
        {
          "indexed": false,
          "internalType": "uint256",
          "name": "protocolFee",
          "type": "uint256"
        },
        {
          "indexed": false,
          "internalType": "bytes32",
          "name": "bitcoinTxId",
          "type": "bytes32"
        }
      ],
      "name": "CCTransfer",
      "type": "event"
    },
    {
      "anonymous": false,
      "inputs": [
        {
          "indexed": false,
          "internalType": "uint8",
          "name": "version",
          "type": "uint8"
        }
      ],
      "name": "Initialized",
      "type": "event"
    },
    {
      "anonymous": false,
      "inputs": [
        {
          "indexed": false,
          "internalType": "address",
          "name": "oldInstantRouter",
          "type": "address"
        },
        {
          "indexed": false,
          "internalType": "address",
          "name": "newInstantRouter",
          "type": "address"
        }
      ],
      "name": "NewInstantRouter",
      "type": "event"
    },
    {
      "anonymous": false,
      "inputs": [
        {
          "indexed": false,
          "internalType": "address",
          "name": "oldLockers",
          "type": "address"
        },
        {
          "indexed": false,
          "internalType": "address",
          "name": "newLockers",
          "type": "address"
        }
      ],
      "name": "NewLockers",
      "type": "event"
    },
    {
      "anonymous": false,
      "inputs": [
        {
          "indexed": false,
          "internalType": "uint256",
          "name": "oldProtocolPercentageFee",
          "type": "uint256"
        },
        {
          "indexed": false,
          "internalType": "uint256",
          "name": "newProtocolPercentageFee",
          "type": "uint256"
        }
      ],
      "name": "NewProtocolPercentageFee",
      "type": "event"
    },
    {
      "anonymous": false,
      "inputs": [
        {
          "indexed": false,
          "internalType": "address",
          "name": "oldRelay",
          "type": "address"
        },
        {
          "indexed": false,
          "internalType": "address",
          "name": "newRelay",
          "type": "address"
        }
      ],
      "name": "NewRelay",
      "type": "event"
    },
    {
      "anonymous": false,
      "inputs": [
        {
          "indexed": false,
          "internalType": "address",
          "name": "oldTeleBTC",
          "type": "address"
        },
        {
          "indexed": false,
          "internalType": "address",
          "name": "newTeleBTC",
          "type": "address"
        }
      ],
      "name": "NewTeleBTC",
      "type": "event"
    },
    {
      "anonymous": false,
      "inputs": [
        {
          "indexed": false,
          "internalType": "address",
          "name": "oldTreasury",
          "type": "address"
        },
        {
          "indexed": false,
          "internalType": "address",
          "name": "newTreasury",
          "type": "address"
        }
      ],
      "name": "NewTreasury",
      "type": "event"
    },
    {
      "anonymous": false,
      "inputs": [
        {
          "indexed": true,
          "internalType": "address",
          "name": "previousOwner",
          "type": "address"
        },
        {
          "indexed": true,
          "internalType": "address",
          "name": "newOwner",
          "type": "address"
        }
      ],
      "name": "OwnershipTransferred",
      "type": "event"
    },
    {
      "inputs": [],
      "name": "appId",
      "outputs": [
        {
          "internalType": "uint256",
          "name": "",
          "type": "uint256"
        }
      ],
      "stateMutability": "view",
      "type": "function"
    },
    {
      "inputs": [
        {
          "internalType": "bytes4",
          "name": "_version",
          "type": "bytes4"
        },
        {
          "internalType": "bytes",
          "name": "_vin",
          "type": "bytes"
        },
        {
          "internalType": "bytes",
          "name": "_vout",
          "type": "bytes"
        },
        {
          "internalType": "bytes4",
          "name": "_locktime",
          "type": "bytes4"
        },
        {
          "internalType": "uint256",
          "name": "_blockNumber",
          "type": "uint256"
        },
        {
          "internalType": "bytes",
          "name": "_intermediateNodes",
          "type": "bytes"
        },
        {
          "internalType": "uint256",
          "name": "_index",
          "type": "uint256"
        },
        {
          "internalType": "bytes",
          "name": "_lockerLockingScript",
          "type": "bytes"
        }
      ],
      "name": "ccTransfer",
      "outputs": [
        {
          "internalType": "bool",
          "name": "",
          "type": "bool"
        }
      ],
      "stateMutability": "payable",
      "type": "function"
    },
    {
      "inputs": [
        {
          "internalType": "bytes32",
          "name": "",
          "type": "bytes32"
        }
      ],
      "name": "ccTransferRequests",
      "outputs": [
        {
          "internalType": "uint256",
          "name": "inputAmount",
          "type": "uint256"
        },
        {
          "internalType": "address",
          "name": "recipientAddress",
          "type": "address"
        },
        {
          "internalType": "uint256",
          "name": "fee",
          "type": "uint256"
        },
        {
          "internalType": "uint256",
          "name": "speed",
          "type": "uint256"
        },
        {
          "internalType": "bool",
          "name": "isUsed",
          "type": "bool"
        }
      ],
      "stateMutability": "view",
      "type": "function"
    },
    {
      "inputs": [],
      "name": "chainId",
      "outputs": [
        {
          "internalType": "uint256",
          "name": "",
          "type": "uint256"
        }
      ],
      "stateMutability": "view",
      "type": "function"
    },
    {
      "inputs": [
        {
          "internalType": "uint256",
          "name": "_startingBlockNumber",
          "type": "uint256"
        },
        {
          "internalType": "uint256",
          "name": "_protocolPercentageFee",
          "type": "uint256"
        },
        {
          "internalType": "uint256",
          "name": "_chainId",
          "type": "uint256"
        },
        {
          "internalType": "uint256",
          "name": "_appId",
          "type": "uint256"
        },
        {
          "internalType": "address",
          "name": "_relay",
          "type": "address"
        },
        {
          "internalType": "address",
          "name": "_lockers",
          "type": "address"
        },
        {
          "internalType": "address",
          "name": "_teleBTC",
          "type": "address"
        },
        {
          "internalType": "address",
          "name": "_treasury",
          "type": "address"
        }
      ],
      "name": "initialize",
      "outputs": [],
      "stateMutability": "nonpayable",
      "type": "function"
    },
    {
      "inputs": [],
      "name": "instantRouter",
      "outputs": [
        {
          "internalType": "address",
          "name": "",
          "type": "address"
        }
      ],
      "stateMutability": "view",
      "type": "function"
    },
    {
      "inputs": [
        {
          "internalType": "bytes32",
          "name": "_txId",
          "type": "bytes32"
        }
      ],
      "name": "isRequestUsed",
      "outputs": [
        {
          "internalType": "bool",
          "name": "",
          "type": "bool"
        }
      ],
      "stateMutability": "view",
      "type": "function"
    },
    {
      "inputs": [],
      "name": "lockers",
      "outputs": [
        {
          "internalType": "address",
          "name": "",
          "type": "address"
        }
      ],
      "stateMutability": "view",
      "type": "function"
    },
    {
      "inputs": [],
      "name": "owner",
      "outputs": [
        {
          "internalType": "address",
          "name": "",
          "type": "address"
        }
      ],
      "stateMutability": "view",
      "type": "function"
    },
    {
      "inputs": [],
      "name": "protocolPercentageFee",
      "outputs": [
        {
          "internalType": "uint256",
          "name": "",
          "type": "uint256"
        }
      ],
      "stateMutability": "view",
      "type": "function"
    },
    {
      "inputs": [],
      "name": "relay",
      "outputs": [
        {
          "internalType": "address",
          "name": "",
          "type": "address"
        }
      ],
      "stateMutability": "view",
      "type": "function"
    },
    {
      "inputs": [],
      "name": "renounceOwnership",
      "outputs": [],
      "stateMutability": "nonpayable",
      "type": "function"
    },
    {
      "inputs": [
        {
          "internalType": "address",
          "name": "_instantRouter",
          "type": "address"
        }
      ],
      "name": "setInstantRouter",
      "outputs": [],
      "stateMutability": "nonpayable",
      "type": "function"
    },
    {
      "inputs": [
        {
          "internalType": "address",
          "name": "_lockers",
          "type": "address"
        }
      ],
      "name": "setLockers",
      "outputs": [],
      "stateMutability": "nonpayable",
      "type": "function"
    },
    {
      "inputs": [
        {
          "internalType": "uint256",
          "name": "_protocolPercentageFee",
          "type": "uint256"
        }
      ],
      "name": "setProtocolPercentageFee",
      "outputs": [],
      "stateMutability": "nonpayable",
      "type": "function"
    },
    {
      "inputs": [
        {
          "internalType": "address",
          "name": "_relay",
          "type": "address"
        }
      ],
      "name": "setRelay",
      "outputs": [],
      "stateMutability": "nonpayable",
      "type": "function"
    },
    {
      "inputs": [
        {
          "internalType": "uint256",
          "name": "_startingBlockNumber",
          "type": "uint256"
        }
      ],
      "name": "setStartingBlockNumber",
      "outputs": [],
      "stateMutability": "nonpayable",
      "type": "function"
    },
    {
      "inputs": [
        {
          "internalType": "address",
          "name": "_teleBTC",
          "type": "address"
        }
      ],
      "name": "setTeleBTC",
      "outputs": [],
      "stateMutability": "nonpayable",
      "type": "function"
    },
    {
      "inputs": [
        {
          "internalType": "address",
          "name": "_treasury",
          "type": "address"
        }
      ],
      "name": "setTreasury",
      "outputs": [],
      "stateMutability": "nonpayable",
      "type": "function"
    },
    {
      "inputs": [],
      "name": "startingBlockNumber",
      "outputs": [
        {
          "internalType": "uint256",
          "name": "",
          "type": "uint256"
        }
      ],
      "stateMutability": "view",
      "type": "function"
    },
    {
      "inputs": [],
      "name": "teleBTC",
      "outputs": [
        {
          "internalType": "address",
          "name": "",
          "type": "address"
        }
      ],
      "stateMutability": "view",
      "type": "function"
    },
    {
      "inputs": [
        {
          "internalType": "address",
          "name": "newOwner",
          "type": "address"
        }
      ],
      "name": "transferOwnership",
      "outputs": [],
      "stateMutability": "nonpayable",
      "type": "function"
    },
    {
      "inputs": [],
      "name": "treasury",
      "outputs": [
        {
          "internalType": "address",
          "name": "",
          "type": "address"
        }
      ],
      "stateMutability": "view",
      "type": "function"
    },
    {
      "stateMutability": "payable",
      "type": "receive"
    }
  ],
  "transactionHash": "0x23e5d480ffcb405d00ac77d070f546bff72e5ed6b9fe8ce77a03dd5447241c3c",
  "args": [],
  "numDeployments": 1,
  "solcInputHash": "0343131eed077976e2216bdb6340d37b",
  "bytecode": "0x608060405234801561001057600080fd5b50613c0f806100206000396000f3fe6080604052600436106101445760003560e01c806380afdea8116100b6578063b14d35321161006f578063b14d3532146103d4578063b59589d1146103f4578063c805f68b14610414578063e35a0a8814610434578063f0f4426014610454578063f2fde38b146104745761014b565b806380afdea81461032a57806380bc472614610340578063870ba6cf146103605780638d3d78cd146103805780638da5cb5b146103a05780639a8a0592146103be5761014b565b806370872aa51161010857806370872aa514610213578063715018a614610229578063765f02331461023e57806378943c73146102c75780637ed55748146102ea5780637f0f18171461030a5761014b565b80631812adb6146101505780631876dec4146101795780631e7107c7146101b15780633a5d4213146101d357806361d027b3146101f35761014b565b3661014b57005b600080fd5b34801561015c57600080fd5b5061016660035481565b6040519081526020015b60405180910390f35b34801561018557600080fd5b50600554610199906001600160a01b031681565b6040516001600160a01b039091168152602001610170565b3480156101bd57600080fd5b506101d16101cc366004613621565b610494565b005b3480156101df57600080fd5b506101d16101ee366004613746565b6104a8565b3480156101ff57600080fd5b50600854610199906001600160a01b031681565b34801561021f57600080fd5b5061016660005481565b34801561023557600080fd5b506101d161060e565b34801561024a57600080fd5b50610295610259366004613621565b6009602052600090815260409020805460018201546002830154600384015460049094015492936001600160a01b039092169290919060ff1685565b604080519586526001600160a01b0390941660208601529284019190915260608301521515608082015260a001610170565b6102da6102d5366004613651565b610618565b6040519015158152602001610170565b3480156102f657600080fd5b506101d1610305366004613621565b610b01565b34801561031657600080fd5b506101d16103253660046135c9565b610b12565b34801561033657600080fd5b5061016660025481565b34801561034c57600080fd5b506102da61035b366004613621565b610b4e565b34801561036c57600080fd5b506101d161037b3660046135c9565b610b79565b34801561038c57600080fd5b50600654610199906001600160a01b031681565b3480156103ac57600080fd5b50603d546001600160a01b0316610199565b3480156103ca57600080fd5b5061016660015481565b3480156103e057600080fd5b506101d16103ef3660046135c9565b610bb1565b34801561040057600080fd5b50600454610199906001600160a01b031681565b34801561042057600080fd5b506101d161042f3660046135c9565b610be9565b34801561044057600080fd5b50600754610199906001600160a01b031681565b34801561046057600080fd5b506101d161046f3660046135c9565b610c21565b34801561048057600080fd5b506101d161048f3660046135c9565b610c59565b61049c610ccf565b6104a581610d29565b50565b600a54610100900460ff16158080156104c85750600a54600160ff909116105b806104e25750303b1580156104e25750600a5460ff166001145b61054a5760405162461bcd60e51b815260206004820152602e60248201527f496e697469616c697a61626c653a20636f6e747261637420697320616c72656160448201526d191e481a5b9a5d1a585b1a5e995960921b60648201526084015b60405180910390fd5b600a805460ff19166001179055801561056d57600a805461ff0019166101001790555b610575610d91565b61057d610dc0565b6001879055600286905561059089610d29565b61059988610def565b6105a285610e99565b6105ab84610f2a565b6105b483610fbb565b6105bd8261104c565b801561060357600a805461ff0019169055604051600181527f7f26b83ff96e1f2b6a682f133852f6798a09c465da95921460cefb38474024989060200160405180910390a15b505050505050505050565b610616610ccf565b565b60006106226110dd565b6007546001600160a01b0316336001600160a01b0316146106855760405162461bcd60e51b815260206004820181905260248201527f43435472616e73666572526f757465723a20696e76616c69642073656e6465726044820152606401610541565b6000548710156106e35760405162461bcd60e51b8152602060048201526024808201527f43435472616e73666572526f757465723a207265717565737420697320746f6f604482015263081bdb1960e21b6064820152608401610541565b60006107288d8d8d8d8080601f0160208091040260200160405190810160405280939291908181526020018383808284376000920191909152508f9250611137915050565b60008181526009602052604090206004015490915060ff16156107a45760405162461bcd60e51b815260206004820152602e60248201527f43435472616e73666572526f757465723a20726571756573742068617320626560448201526d656e2075736564206265666f726560901b6064820152608401610541565b6001600160e01b031989161561080d5760405162461bcd60e51b815260206004820152602860248201527f43435472616e73666572526f757465723a206c6f636b2074696d65206973206e6044820152676f6e202d7a65726f60c01b6064820152608401610541565b61089384848080601f016020809104026020016040519081016040528093929190818152602001838380828437600081840152601f19601f820116905080830192505050505050508c8c8080601f01602080910402602001604051908101604052809392919081815260200183838082843760009201919091525086925061129c915050565b6108d6818989898080601f0160208091040260200160405190810160405280939291908181526020018383808284376000920191909152508b9250611708915050565b6109485760405162461bcd60e51b815260206004820152603860248201527f43435472616e73666572526f757465723a207472616e73616374696f6e20686160448201527f73206e6f74206265656e2066696e616c697a65642079657400000000000000006064820152608401610541565b600080600061098e87878080601f016020809104026020016040519081016040528093929190818152602001838380828437600092019190915250889250611886915050565b600087815260096020526040908190206003810154600190910154915194975092955090935090916001600160a01b03909116906109cf908a908a90613849565b60405190819003812060055463626885b560e11b835290917f4e5aca8a7de151db886a79d287fb0335e05705a91fd8071e29a61f08346197b9916000916001600160a01b039091169063c4d10b6a90610a2e908f908f906004016138d4565b60206040518083038186803b158015610a4657600080fd5b505afa158015610a5a573d6000803e3d6000fd5b505050506040513d601f19601f82011682018060405250810190610a7e91906135e5565b60008a8152600960205260409020548933604080519586526001600160a01b039485166020870152850192909252606084015216608082015260a08101869052600060c082015260e0810187905261010081018990526101200160405180910390a46001945050505050610af26001606f55565b9b9a5050505050505050505050565b610b09610ccf565b6104a581610def565b806001600160a01b038116610b395760405162461bcd60e51b815260040161054190613944565b610b41610ccf565b610b4a82610fbb565b5050565b60008181526009602052604081206004015460ff16610b6e576000610b71565b60015b90505b919050565b806001600160a01b038116610ba05760405162461bcd60e51b815260040161054190613944565b610ba8610ccf565b610b4a82611944565b806001600160a01b038116610bd85760405162461bcd60e51b815260040161054190613944565b610be0610ccf565b610b4a82610f2a565b806001600160a01b038116610c105760405162461bcd60e51b815260040161054190613944565b610c18610ccf565b610b4a82610e99565b806001600160a01b038116610c485760405162461bcd60e51b815260040161054190613944565b610c50610ccf565b610b4a8261104c565b610c61610ccf565b6001600160a01b038116610cc65760405162461bcd60e51b815260206004820152602660248201527f4f776e61626c653a206e6577206f776e657220697320746865207a65726f206160448201526564647265737360d01b6064820152608401610541565b6104a5816119d5565b603d546001600160a01b031633146106165760405162461bcd60e51b815260206004820181905260248201527f4f776e61626c653a2063616c6c6572206973206e6f7420746865206f776e65726044820152606401610541565b6000548111610d8c5760405162461bcd60e51b815260206004820152602960248201527f43435472616e73666572526f757465723a206c6f77207374617274696e67426c60448201526837b1b5a73ab6b132b960b91b6064820152608401610541565b600055565b600a54610100900460ff16610db85760405162461bcd60e51b815260040161054190613985565b610616611a27565b600a54610100900460ff16610de75760405162461bcd60e51b815260040161054190613985565b610616611a57565b806127101015610e585760405162461bcd60e51b815260206004820152602e60248201527f43435472616e73666572526f757465723a2070726f746f636f6c20666565206960448201526d73206f7574206f662072616e676560901b6064820152608401610541565b60035460408051918252602082018390527f7d205f60891f60851c61cd244ba387d72b6589e7c0ac41b9d909ab0ce2c2a53b910160405180910390a1600355565b806001600160a01b038116610ec05760405162461bcd60e51b815260040161054190613944565b600454604080516001600160a01b03928316815291841660208301527f4c28a3f61a715259c4dc930c23e7423b8fa52e13232c061a6e488729c66184f4910160405180910390a150600480546001600160a01b0319166001600160a01b0392909216919091179055565b806001600160a01b038116610f515760405162461bcd60e51b815260040161054190613944565b600554604080516001600160a01b03928316815291841660208301527ffa021c2ec0f46429a53e7f88b88065e40001f50c9d38b2e8b713beaf9828d4c3910160405180910390a150600580546001600160a01b0319166001600160a01b0392909216919091179055565b806001600160a01b038116610fe25760405162461bcd60e51b815260040161054190613944565b600654604080516001600160a01b03928316815291841660208301527f36a4c08a38b736dcecb6c328dba61238529620e83ccb23db2cc43cd34ec26096910160405180910390a150600680546001600160a01b0319166001600160a01b0392909216919091179055565b806001600160a01b0381166110735760405162461bcd60e51b815260040161054190613944565b600854604080516001600160a01b03928316815291841660208301527f567657fa3f286518b318f4a29870674f433f622fdfc819691acb13105b228225910160405180910390a150600880546001600160a01b0319166001600160a01b0392909216919091179055565b6002606f5414156111305760405162461bcd60e51b815260206004820152601f60248201527f5265656e7472616e637947756172643a207265656e7472616e742063616c6c006044820152606401610541565b6002606f55565b60008061114e611149825b8790611a7e565b611aa4565b905062ffffff1980821614156111a65760405162461bcd60e51b815260206004820152601a60248201527f426974636f696e48656c7065723a2076696e206973206e756c6c0000000000006044820152606401610541565b60006002878787876040516020016111c194939291906137f6565b60408051601f19818403018152908290526111db91613859565b602060405180830381855afa1580156111f8573d6000803e3d6000fd5b5050506040513d601f19601f8201168201806040525081019061121b9190613639565b9050600060028260405160200161123491815260200190565b60408051601f198184030181529082905261124e91613859565b602060405180830381855afa15801561126b573d6000803e3d6000fd5b5050506040513d601f19601f8201168201806040525081019061128e9190613639565b93505050505b949350505050565b60055460405163aff2faa360e01b81526001600160a01b039091169063aff2faa3906112cc908690600401613903565b60206040518083038186803b1580156112e457600080fd5b505afa1580156112f8573d6000803e3d6000fd5b505050506040513d601f19601f8201168201806040525081019061131c9190613601565b611390576040805162461bcd60e51b81526020600482015260248101919091527f43435472616e73666572526f757465723a206e6f206c6f636b6572207769746860448201527f2074686520676976656e206c6f636b696e6720736372697074206578697374736064820152608401610541565b6113cd6040518060a001604052806000815260200160006001600160a01b0316815260200160008152602001600081526020016000151581525090565b60606113d98486611bda565b6001600160401b0390911683528051909150601a1461143a5760405162461bcd60e51b815260206004820152601d60248201527f43435472616e73666572526f757465723a20696e76616c6964206c656e0000006044820152606401610541565b81516114975760405162461bcd60e51b815260206004820152602660248201527f43435472616e73666572526f757465723a20696e70757420616d6f756e74206960448201526573207a65726f60d01b6064820152608401610541565b6001546114a382611d51565b60ff16146115055760405162461bcd60e51b815260206004820152602960248201527f43435472616e73666572526f757465723a20636861696e206964206973206e6f6044820152681d0818dbdc9c9958dd60ba1b6064820152608401610541565b60025461151182611d6b565b61ffff16146115725760405162461bcd60e51b815260206004820152602760248201527f43435472616e73666572526f757465723a20617070206964206973206e6f742060448201526618dbdc9c9958dd60ca1b6064820152608401610541565b600061157d82611d86565b61ffff1690506127108111156115ee5760405162461bcd60e51b815260206004820152603060248201527f43435472616e73666572526f757465723a2070657263656e746167652066656560448201526f206973206f7574206f662072616e676560801b6064820152608401610541565b8251612710906115fe9083613a7a565b6116089190613a5a565b604084015261161682611d96565b6001600160a01b0316602084015261162d82611db1565b60ff1660608401819052156116945760405162461bcd60e51b815260206004820152602760248201527f43435472616e73666572526f757465723a207370656564206973206f7574206f604482015266662072616e676560c81b6064820152608401610541565b5050600160808201818152600093845260096020908152604094859020845181559084015192810180546001600160a01b0319166001600160a01b0390941693909317909255928201516002820155606090910151600382015590516004909101805460ff19169115159190911790555050565b6004805460405163d0a8973960e01b81529182018590526000602483018190529182916001600160a01b03169063d0a897399060440160206040518083038186803b15801561175657600080fd5b505afa15801561176a573d6000803e3d6000fd5b505050506040513d601f19601f8201168201806040525081019061178e9190613639565b9050803410156117f55760405162461bcd60e51b815260206004820152602c60248201527f43435472616e73666572526f757465723a207061696420666565206973206e6f60448201526b1d081cdd59999a58da595b9d60a21b6064820152608401610541565b600454604051600091611852916001600160a01b0390911690611822908a908a908a908a906024016138a4565b60408051601f198184030181529190526020810180516001600160e01b0316634354da2560e01b17905284611dc0565b9050611867336118628434613ac2565b611df0565b8080602001905181019061187b9190613601565b979650505050505050565b60008060006118958585611f0e565b6006546000888152600960205260409081902060010154905163a9059cbb60e01b81526001600160a01b03918216600482015260248101869052949750929550909350169063a9059cbb90604401602060405180830381600087803b1580156118fd57600080fd5b505af1158015611911573d6000803e3d6000fd5b505050506040513d601f19601f820116820180604052508101906119359190613601565b509250925092565b6001606f55565b806001600160a01b03811661196b5760405162461bcd60e51b815260040161054190613944565b600754604080516001600160a01b03928316815291841660208301527f12ad124e13af4c31364ad22aa74320e167b37f005dafb75d71a210c49da3629e910160405180910390a150600780546001600160a01b0319166001600160a01b0392909216919091179055565b603d80546001600160a01b038381166001600160a01b0319831681179093556040519116919082907f8be0079c531659141344cd1fd0a4f28419497f9722a3daafe3b4186f6b6457e090600090a35050565b600a54610100900460ff16611a4e5760405162461bcd60e51b815260040161054190613985565b610616336119d5565b600a54610100900460ff1661193d5760405162461bcd60e51b815260040161054190613985565b815160009060208401611a9964ffffffffff85168284612134565b925050505b92915050565b60008181611aba815b62ffffff1984169061217b565b50601884901c6001600160601b0316611ada5762ffffff195b9250611bd3565b6000611ae7856000612255565b9050601885901c6001600160601b03166001600160401b038216611b145762ffffff195b94505050611bd3565b6000611b1f8361239e565b60ff16905060005b836001600160401b0316811015611b9b57828210611b505762ffffff195b965050505050611bd3565b6000611b70611b5f8486613ac2565b60055b62ffffff198c1691906123f7565b9050611b7b8161242b565b611b8590846139d0565b9250508080611b9390613b54565b915050611b27565b50818114611bb35762ffffff195b9550505050611bd3565b611bcd60065b60d81b6301000000600160d81b0389161790565b95505050505b5050919050565b6000606081611bf0611beb82611142565b61247f565b905062ffffff198082161415611c485760405162461bcd60e51b815260206004820152601b60248201527f426974636f696e48656c7065723a20766f7574206973206e756c6c00000000006044820152606401610541565b6000806000806000611c5b866000612255565b6001600160401b0316905060005b81811015611d4357611c7b8782612570565b9550611c8686612687565b9450611c91866126db565b9350611c9c84612725565b925062ffffff198084161415611d1f5789604051602001611cbd9190613859565b60405160208183030381529060405280519060200120611ce28662ffffff1916612849565b604051602001611cf29190613859565b604051602081830303815290604052805190602001201415611d1a57611d1786612899565b98505b611d31565b611d2e62ffffff198416612849565b97505b80611d3b81613b54565b915050611c69565b505050505050509250929050565b600080611d60836000806128be565b600101519392505050565b600080611d7b83600160026128be565b600201519392505050565b600080611d7b83601760186128be565b600080611da683600360166128be565b601401519392505050565b600080611d60836019806128be565b6060611de6848484604051806060016040528060298152602001613bb160299139612943565b90505b9392505050565b80471015611e405760405162461bcd60e51b815260206004820152601d60248201527f416464726573733a20696e73756666696369656e742062616c616e63650000006044820152606401610541565b6000826001600160a01b03168260405160006040518083038185875af1925050503d8060008114611e8d576040519150601f19603f3d011682016040523d82523d6000602084013e611e92565b606091505b5050905080611f095760405162461bcd60e51b815260206004820152603a60248201527f416464726573733a20756e61626c6520746f2073656e642076616c75652c207260448201527f6563697069656e74206d617920686176652072657665727465640000000000006064820152608401610541565b505050565b6005546000828152600960205260408082205490516307f3f86760e21b815291928392839283926001600160a01b031691631fcfe19c91611f55918a913091600401613916565b602060405180830381600087803b158015611f6f57600080fd5b505af1158015611f83573d6000803e3d6000fd5b505050506040513d601f19601f82011682018060405250810190611fa79190613639565b60035460008781526009602052604090205491925061271091611fca9190613a7a565b611fd49190613a5a565b60008681526009602052604090206002015490935091508115612085576006546001600160a01b031663a9059cbb336040516001600160e01b031960e084901b1681526001600160a01b03909116600482015260248101859052604401602060405180830381600087803b15801561204b57600080fd5b505af115801561205f573d6000803e3d6000fd5b505050506040513d601f19601f820116820180604052508101906120839190613601565b505b82156121155760065460085460405163a9059cbb60e01b81526001600160a01b0391821660048201526024810186905291169063a9059cbb90604401602060405180830381600087803b1580156120db57600080fd5b505af11580156120ef573d6000803e3d6000fd5b505050506040513d601f19601f820116820180604052508101906121139190613601565b505b816121208483613ac2565b61212a9190613ac2565b9350509250925092565b60008061214183856139d0565b9050604051811115612151575060005b806121635762ffffff19915050611de9565b606085811b8517901b831760181b5b95945050505050565b60006121878383612a60565b61224e5760006121a661219a8560d81c90565b64ffffffffff16612a83565b91505060006121bb8464ffffffffff16612a83565b6040517f5479706520617373657274696f6e206661696c65642e20476f7420307800000060208201526001600160b01b031960b086811b8216603d8401526c05c408af0e0cac6e8cac84060f609b1b604784015283901b16605482015290925060009150605e015b60405160208183030381529060405290508060405162461bcd60e51b81526004016105419190613903565b5090919050565b60008061226a62ffffff198516846001612b2f565b905060fc81116122855761227d81612b5f565b915050611a9e565b8060fd14156122eb576122b36122ae61229f8560016139d0565b62ffffff198716906002612bcb565b612b5f565b91506122be8261239e565b60ff166003146122e6576122e46122df62ffffff1986168560036000612d15565b612d85565b505b612397565b8060fe1415612340576123146122ae6123058560016139d0565b62ffffff198716906004612bcb565b915061231f8261239e565b60ff166005146122e6576122e46122df62ffffff1986168560056000612d15565b8060ff1415612397576123696122ae61235a8560016139d0565b62ffffff198716906008612bcb565b91506123748261239e565b60ff16600914612397576123956122df62ffffff1986168560096000612d15565b505b5092915050565b600060fc826001600160401b0316116123b957506001610b74565b61ffff826001600160401b0316116123d357506003610b74565b63ffffffff826001600160401b0316116123ef57506005610b74565b506009610b74565b6000611de684846124118760181c6001600160601b031690565b6001600160601b03166124249190613ac2565b8585612d15565b600081600561243981611aad565b506000612447856024612255565b9050806001600160401b031661245c8261239e565b60ff1661246991906139d0565b6124749060246139d0565b6121729060046139d0565b6000818161248c81611aad565b50601884901c6001600160601b03166124a95762ffffff19611ad3565b60006124b6856000612255565b9050601885901c6001600160601b03166001600160401b0382166124de5762ffffff19611b0b565b60006124e98361239e565b60ff16905060005b836001600160401b0316811015612554578282106125135762ffffff19611b45565b60006125296125228486613ac2565b600e611b62565b905061253481612e0c565b61253e90846139d0565b925050808061254c90613b54565b9150506124f1565b508181146125665762ffffff19611ba9565b611bcd600f611bb9565b600082600f61257e81611aad565b50600061258c866000612255565b6001600160401b03169050601886901c6001600160601b03168186106125e85760405162461bcd60e51b81526020600482015260116024820152702b37baba103932b0b21037bb32b9393ab760791b6044820152606401610541565b60006125f38361239e565b60ff1690506000805b88811015612649576126206126118486613ac2565b62ffffff198c1690600e6123f7565b915061262b82612e0c565b61263590846139d0565b92506126426001826139d0565b90506125fc565b506126576125228385613ac2565b9050600061266482612e0c565b905061267962ffffff198b168483600d612d15565b9a9950505050505050505050565b600081600d61269581611aad565b5060006126a3856008612255565b90506121726126b18261239e565b6126bc906008613a13565b60ff166001600160401b03831660075b62ffffff198916929190612d15565b600081600d6126e981611aad565b5060006126f7856008612255565b90506121726008826127088461239e565b60ff1661271591906139e8565b6001600160401b031660076126cc565b600081600761273381611aad565b506000612741856000612255565b9050600061275b6122ae62ffffff19881660026001612b2f565b905061276f62ffffff198716600180612b2f565b606a1415806127a35750612784600283613ad9565b6001600160401b03166127a062ffffff19881660026001612b2f565b14155b156127b25762ffffff19611b0b565b604d826001600160401b0316111580156127d657506004826001600160401b031610155b6128225760405162461bcd60e51b815260206004820152601f60248201527f426974636f696e48656c7065723a20696e76616c6964206f7072657475726e006044820152606401610541565b61283f62ffffff19871660036001600160401b038416600c612d15565b9695505050505050565b60606000806128618460181c6001600160601b031690565b60405193508392506001600160601b03169050612888846128838460206139d0565b612e55565b508181016020016040529052919050565b600081600d6128a781611aad565b506112946122ae62ffffff19861660006008612bcb565b60606000835b6128cf8460016139d0565b81101561293a578581815181106128f657634e487b7160e01b600052603260045260246000fd5b602001015160f81c60f81b91508282604051602001612916929190613875565b6040516020818303038152906040529250808061293290613b54565b9150506128c4565b50509392505050565b6060824710156129a45760405162461bcd60e51b815260206004820152602660248201527f416464726573733a20696e73756666696369656e742062616c616e636520666f6044820152651c8818d85b1b60d21b6064820152608401610541565b843b6129f25760405162461bcd60e51b815260206004820152601d60248201527f416464726573733a2063616c6c20746f206e6f6e2d636f6e74726163740000006044820152606401610541565b600080866001600160a01b03168587604051612a0e9190613859565b60006040518083038185875af1925050503d8060008114612a4b576040519150601f19603f3d011682016040523d82523d6000602084013e612a50565b606091505b509150915061187b828286612fad565b60008164ffffffffff16612a748460d81c90565b64ffffffffff16149392505050565b600080601f5b600f8160ff161115612ae1576000612aa2826008613a99565b60ff1685901c9050612ab381612fe6565b61ffff16841793508160ff16601014612ace57601084901b93505b50612ada600182613b01565b9050612a89565b50600f5b60ff8160ff161015612b295760ff600882021684901c612b0481612fe6565b61ffff16831792508160ff16600014612b1f57601083901b92505b5060001901612ae5565b50915091565b6000612b3c826020613b01565b612b47906008613a99565b60ff16612b55858585613016565b901c949350505050565b60006001600160401b03821115612bc75760405162461bcd60e51b815260206004820152602660248201527f53616665436173743a2076616c756520646f65736e27742066697420696e203660448201526534206269747360d01b6064820152608401610541565b5090565b6000611de6612bdb858585613016565b600881811c7eff00ff00ff00ff00ff00ff00ff00ff00ff00ff00ff00ff00ff00ff00ff00ff167fff00ff00ff00ff00ff00ff00ff00ff00ff00ff00ff00ff00ff00ff00ff00ff009290911b9190911617601081811c7dffff0000ffff0000ffff0000ffff0000ffff0000ffff0000ffff0000ffff167fffff0000ffff0000ffff0000ffff0000ffff0000ffff0000ffff0000ffff00009290911b9190911617602081811c7bffffffff00000000ffffffff00000000ffffffff00000000ffffffff167fffffffff00000000ffffffff00000000ffffffff00000000ffffffff000000009290911b9190911617604081811c77ffffffffffffffff0000000000000000ffffffffffffffff1677ffffffffffffffff0000000000000000ffffffffffffffff199290911b9190911617608081811c91901b1790565b600080612d2b8660781c6001600160601b031690565b6001600160601b03169050612d3f8661316f565b84612d4a87846139d0565b612d5491906139d0565b1115612d675762ffffff19915050611294565b612d7185826139d0565b905061283f8364ffffffffff168286612134565b60606000612db9612db482612da6601887901c6001600160601b03166131b0565b62ffffff1987169190612b2f565b612a83565b6040517f4e6f6e2d6d696e696d616c2076617220696e742e20476f74203078000000000060208201526dffffffffffffffffffffffffffff19607083901b16603b82015290925060009150604d01612223565b600081600e612e1a81611aad565b506000612e28856008612255565b9050806001600160401b0316612e3d8261239e565b60ff16612e4a91906139d0565b6121729060086139d0565b600062ffffff198084161415612ebe5760405162461bcd60e51b815260206004820152602860248201527f54797065644d656d566965772f636f7079546f202d204e756c6c20706f696e7460448201526732b9103232b932b360c11b6064820152608401610541565b612ec783613211565b612f275760405162461bcd60e51b815260206004820152602b60248201527f54797065644d656d566965772f636f7079546f202d20496e76616c696420706f60448201526a34b73a32b9103232b932b360a91b6064820152608401610541565b6000612f3c8460181c6001600160601b031690565b6001600160601b031690506000612f5c8560781c6001600160601b031690565b6001600160601b031690506000604051905084811115612f7c5760206060fd5b8285848460045afa5061283f612f928760d81c90565b64ffffffffff60601b606091821b168717901b841760181b90565b60608315612fbc575081611de9565b825115612fcc5782518084602001fd5b8160405162461bcd60e51b81526004016105419190613903565b6000612ff860048360ff16901c61324f565b60ff161760081b62ffff001661300d8261324f565b60ff1617919050565b600060ff821661302857506000611de9565b61303b8460181c6001600160601b031690565b6001600160601b031661305160ff8416856139d0565b11156130b55761309c61306d8560781c6001600160601b031690565b6001600160601b03166130898660181c6001600160601b031690565b6001600160601b0316858560ff166133bb565b60405162461bcd60e51b81526004016105419190613903565b60208260ff16111561312f5760405162461bcd60e51b815260206004820152603a60248201527f54797065644d656d566965772f696e646578202d20417474656d70746564207460448201527f6f20696e646578206d6f7265207468616e2033322062797465730000000000006064820152608401610541565b6008820260006131488660781c6001600160601b031690565b6001600160601b031690506000600160ff1b60001984011d91909501511695945050505050565b60006131848260181c6001600160601b031690565b6131978360781c6001600160601b031690565b6131a19190613a38565b6001600160601b031692915050565b600060ff821115612bc75760405162461bcd60e51b815260206004820152602560248201527f53616665436173743a2076616c756520646f65736e27742066697420696e2038604482015264206269747360d81b6064820152608401610541565b600061321d8260d81c90565b64ffffffffff1664ffffffffff141561323857506000610b74565b60006132438361316f565b60405110199392505050565b600060f08083179060ff8216141561326b576030915050610b74565b8060ff1660f11415613281576031915050610b74565b8060ff1660f21415613297576032915050610b74565b8060ff1660f314156132ad576033915050610b74565b8060ff1660f414156132c3576034915050610b74565b8060ff1660f514156132d9576035915050610b74565b8060ff1660f614156132ef576036915050610b74565b8060ff1660f71415613305576037915050610b74565b8060ff1660f8141561331b576038915050610b74565b8060ff1660f91415613331576039915050610b74565b8060ff1660fa1415613347576061915050610b74565b8060ff1660fb141561335d576062915050610b74565b8060ff1660fc1415613373576063915050610b74565b8060ff1660fd1415613389576064915050610b74565b8060ff1660fe141561339f576065915050610b74565b8060ff1660ff14156133b5576066915050610b74565b50919050565b606060006133c886612a83565b91505060006133d686612a83565b91505060006133e486612a83565b91505060006133f286612a83565b604080517f54797065644d656d566965772f696e646578202d204f76657272616e20746865602082015274040ecd2caee5c40a6d8d2c6ca40d2e640c2e84060f605b1b818301526001600160d01b031960d098891b811660558301526e040eed2e8d040d8cadccee8d04060f608b1b605b830181905297891b8116606a8301527f2e20417474656d7074656420746f20696e646578206174206f666673657420306070830152600f60fb1b609083015295881b861660918201526097810196909652951b90921660a68401525050601760f91b60ac8201528151808203608d01815260ad90910190915295945050505050565b80356001600160e01b031981168114610b7457600080fd5b60008083601f84011261350e578182fd5b5081356001600160401b03811115613524578182fd5b60208301915083602082850101111561353c57600080fd5b9250929050565b600082601f830112613553578081fd5b81356001600160401b038082111561356d5761356d613b85565b604051601f8301601f19908116603f0116810190828211818310171561359557613595613b85565b816040528381528660208588010111156135ad578485fd5b8360208701602083013792830160200193909352509392505050565b6000602082840312156135da578081fd5b8135611de981613b9b565b6000602082840312156135f6578081fd5b8151611de981613b9b565b600060208284031215613612578081fd5b81518015158114611de9578182fd5b600060208284031215613632578081fd5b5035919050565b60006020828403121561364a578081fd5b5051919050565b60008060008060008060008060008060006101008c8e031215613672578687fd5b61367b8c6134e5565b9a506001600160401b038060208e01351115613695578788fd5b6136a58e60208f01358f01613543565b9a508060408e013511156136b7578788fd5b6136c78e60408f01358f016134fd565b909a5098506136d860608e016134e5565b975060808d013596508060a08e013511156136f1578586fd5b6137018e60a08f01358f016134fd565b909650945060c08d0135935060e08d013581101561371d578283fd5b5061372e8d60e08e01358e016134fd565b81935080925050509295989b509295989b9093969950565b600080600080600080600080610100898b031215613762578384fd5b88359750602089013596506040890135955060608901359450608089013561378981613b9b565b935060a089013561379981613b9b565b925060c08901356137a981613b9b565b915060e08901356137b981613b9b565b809150509295985092959890939650565b600081518084526137e2816020860160208601613b24565b601f01601f19169290920160200192915050565b600063ffffffff60e01b80871683528551613818816004860160208a01613b24565b85519084019061382f816004840160208a01613b24565b919094169301600481019390935250506008019392505050565b6000828483379101908152919050565b6000825161386b818460208701613b24565b9190910192915050565b60008351613887818460208801613b24565b6001600160f81b0319939093169190920190815260010192915050565b6000858252846020830152608060408301526138c360808301856137ca565b905082606083015295945050505050565b60006020825282602083015282846040840137818301604090810191909152601f909201601f19160101919050565b600060208252611de960208301846137ca565b60006060825261392960608301866137ca565b6001600160a01b039490941660208301525060400152919050565b60208082526021908201527f43435472616e73666572526f757465723a2061646472657373206973207a65726040820152606f60f81b606082015260800190565b6020808252602b908201527f496e697469616c697a61626c653a20636f6e7472616374206973206e6f74206960408201526a6e697469616c697a696e6760a81b606082015260800190565b600082198211156139e3576139e3613b6f565b500190565b60006001600160401b03808316818516808303821115613a0a57613a0a613b6f565b01949350505050565b600060ff821660ff84168060ff03821115613a3057613a30613b6f565b019392505050565b60006001600160601b03808316818516808303821115613a0a57613a0a613b6f565b600082613a7557634e487b7160e01b81526012600452602481fd5b500490565b6000816000190483118215151615613a9457613a94613b6f565b500290565b600060ff821660ff84168160ff0481118215151615613aba57613aba613b6f565b029392505050565b600082821015613ad457613ad4613b6f565b500390565b60006001600160401b0383811690831681811015613af957613af9613b6f565b039392505050565b600060ff821660ff841680821015613b1b57613b1b613b6f565b90039392505050565b60005b83811015613b3f578181015183820152602001613b27565b83811115613b4e576000848401525b50505050565b6000600019821415613b6857613b68613b6f565b5060010190565b634e487b7160e01b600052601160045260246000fd5b634e487b7160e01b600052604160045260246000fd5b6001600160a01b03811681146104a557600080fdfe416464726573733a206c6f772d6c6576656c2063616c6c20776974682076616c7565206661696c6564a2646970667358221220e99e685a1b35c215b4d62cc48fcde1ffbea82821ddd7be49b0061a535d4507fe64736f6c63430008020033",
  "devdoc": {
    "kind": "dev",
    "methods": {
      "ccTransfer(bytes4,bytes,bytes,bytes4,uint256,bytes,uint256,bytes)": {
        "details": "Validates the transfer request, then,                                     if speed is 1, the request is instant                                     which pays back the loan,                                     if the speed is 0, it is a normal transfer",
        "params": {
          "_blockNumber": "The block number of the request tx",
          "_index": "Index of tx in the block",
          "_intermediateNodes": "Merkle proof for tx",
          "_lockerLockingScript": "Locking script of locker that user has sent BTC to it",
          "_locktime": "Bitcoin transaction locktime",
          "_version": "Version of the Bitcoin transaction",
          "_vin": "Transaction inputs",
          "_vout": "Transaction outputs"
        },
        "returns": {
          "_0": "True if the transfer is successful"
        }
      },
      "initialize(uint256,uint256,uint256,uint256,address,address,address,address)": {
        "params": {
          "_appId": "Id of ccTransfer dApp",
          "_chainId": "Id of the underlying chain",
          "_lockers": "Lockers' contract address",
          "_protocolPercentageFee": "Percentage amount of protocol fee (min: %0.01)",
          "_relay": "The Relay address to validate data from source chain",
          "_startingBlockNumber": "Requests that are included in a block older than _startingBlockNumber cannot be executed",
          "_teleBTC": "TeleportDAO BTC ERC20 token address",
          "_treasury": "Address of treasury that collects protocol fees"
        }
      },
      "isRequestUsed(bytes32)": {
        "details": "This is to avoid re-submitting a used request",
        "params": {
          "_txId": "The txId of request on the source chain"
        },
        "returns": {
          "_0": "True if the request has been executed"
        }
      },
      "owner()": {
        "details": "Returns the address of the current owner."
      },
      "renounceOwnership()": {
        "details": "Leaves the contract without owner. It will not be possible to call `onlyOwner` functions anymore. Can only be called by the current owner. NOTE: Renouncing ownership will leave the contract without an owner, thereby removing any functionality that is only available to the owner."
      },
      "setInstantRouter(address)": {
        "details": "Only owner can call this",
        "params": {
          "_instantRouter": "Address of the instant router contract"
        }
      },
      "setLockers(address)": {
        "details": "Only owner can call this",
        "params": {
          "_lockers": "Address of the lockers contract"
        }
      },
      "setProtocolPercentageFee(uint256)": {
        "details": "Only owner can call this",
        "params": {
          "_protocolPercentageFee": "Percentage amount of protocol fee"
        }
      },
      "setRelay(address)": {
        "details": "Only owner can call this",
        "params": {
          "_relay": "Address of the relay contract"
        }
      },
      "setTeleBTC(address)": {
        "details": "Only owner can call this",
        "params": {
          "_teleBTC": "TeleportDAO BTC ERC20 token address"
        }
      },
      "setTreasury(address)": {
        "details": "Only owner can call this",
        "params": {
          "_treasury": "Treasury address"
        }
      },
      "transferOwnership(address)": {
        "details": "Transfers ownership of the contract to a new account (`newOwner`). Can only be called by the current owner."
      }
    },
    "version": 1
  },
  "userdoc": {
    "events": {
      "CCTransfer(bytes,uint256,address,address,uint256,uint256,uint256,address,uint256,uint256,uint256,bytes32)": {
        "notice": "Emits when a cc transfer request gets done"
      },
      "NewInstantRouter(address,address)": {
        "notice": "Emits when changes made to InstantRouter address"
      },
      "NewLockers(address,address)": {
        "notice": "Emits when changes made to Lockers address"
      },
      "NewProtocolPercentageFee(uint256,uint256)": {
        "notice": "Emits when changes made to protocol percentage fee"
      },
      "NewRelay(address,address)": {
        "notice": "Emits when changes made to relay address"
      },
      "NewTeleBTC(address,address)": {
        "notice": "Emits when changes made to TeleBTC address"
      },
      "NewTreasury(address,address)": {
        "notice": "Emits when changes made to Treasury address"
      }
    },
    "kind": "user",
    "methods": {
      "ccTransfer(bytes4,bytes,bytes,bytes4,uint256,bytes,uint256,bytes)": {
        "notice": "Executes the cross chain transfer request"
      },
      "initialize(uint256,uint256,uint256,uint256,address,address,address,address)": {
        "notice": "Gives default params to initiate cc transfer router"
      },
      "isRequestUsed(bytes32)": {
        "notice": "Check if the request has been executed before"
      },
      "setInstantRouter(address)": {
        "notice": "Setter for instant router"
      },
      "setLockers(address)": {
        "notice": "Setter for lockers"
      },
      "setProtocolPercentageFee(uint256)": {
        "notice": "Setter for protocol percentage fee"
      },
      "setRelay(address)": {
        "notice": "Setter for relay"
      },
      "setStartingBlockNumber(uint256)": {
        "notice": "Setter for starting block number"
      },
      "setTeleBTC(address)": {
        "notice": "Setter for teleBTC"
      },
      "setTreasury(address)": {
        "notice": "Setter for treasury"
      }
    },
    "version": 1
  },
  "storageLayout": {
    "storage": [
      {
        "astId": 20911,
        "contract": "contracts/routers/CcTransferRouterLogic.sol:CcTransferRouterLogic",
        "label": "startingBlockNumber",
        "offset": 0,
        "slot": "0",
        "type": "t_uint256"
      },
      {
        "astId": 20914,
        "contract": "contracts/routers/CcTransferRouterLogic.sol:CcTransferRouterLogic",
        "label": "chainId",
        "offset": 0,
        "slot": "1",
        "type": "t_uint256"
      },
      {
        "astId": 20917,
        "contract": "contracts/routers/CcTransferRouterLogic.sol:CcTransferRouterLogic",
        "label": "appId",
        "offset": 0,
        "slot": "2",
        "type": "t_uint256"
      },
      {
        "astId": 20920,
        "contract": "contracts/routers/CcTransferRouterLogic.sol:CcTransferRouterLogic",
        "label": "protocolPercentageFee",
        "offset": 0,
        "slot": "3",
        "type": "t_uint256"
      },
      {
        "astId": 20923,
        "contract": "contracts/routers/CcTransferRouterLogic.sol:CcTransferRouterLogic",
        "label": "relay",
        "offset": 0,
        "slot": "4",
        "type": "t_address"
      },
      {
        "astId": 20926,
        "contract": "contracts/routers/CcTransferRouterLogic.sol:CcTransferRouterLogic",
        "label": "lockers",
        "offset": 0,
        "slot": "5",
        "type": "t_address"
      },
      {
        "astId": 20929,
        "contract": "contracts/routers/CcTransferRouterLogic.sol:CcTransferRouterLogic",
        "label": "teleBTC",
        "offset": 0,
        "slot": "6",
        "type": "t_address"
      },
      {
        "astId": 20932,
        "contract": "contracts/routers/CcTransferRouterLogic.sol:CcTransferRouterLogic",
        "label": "instantRouter",
        "offset": 0,
        "slot": "7",
        "type": "t_address"
      },
      {
        "astId": 20935,
        "contract": "contracts/routers/CcTransferRouterLogic.sol:CcTransferRouterLogic",
        "label": "treasury",
        "offset": 0,
        "slot": "8",
        "type": "t_address"
      },
      {
        "astId": 20940,
        "contract": "contracts/routers/CcTransferRouterLogic.sol:CcTransferRouterLogic",
        "label": "ccTransferRequests",
        "offset": 0,
        "slot": "9",
        "type": "t_mapping(t_bytes32,t_struct(ccTransferRequest)21683_storage)"
      },
      {
        "astId": 184,
        "contract": "contracts/routers/CcTransferRouterLogic.sol:CcTransferRouterLogic",
        "label": "_initialized",
        "offset": 0,
        "slot": "10",
        "type": "t_uint8"
      },
      {
        "astId": 187,
        "contract": "contracts/routers/CcTransferRouterLogic.sol:CcTransferRouterLogic",
        "label": "_initializing",
        "offset": 1,
        "slot": "10",
        "type": "t_bool"
      },
      {
        "astId": 1586,
        "contract": "contracts/routers/CcTransferRouterLogic.sol:CcTransferRouterLogic",
        "label": "__gap",
        "offset": 0,
        "slot": "11",
        "type": "t_array(t_uint256)50_storage"
      },
      {
        "astId": 56,
        "contract": "contracts/routers/CcTransferRouterLogic.sol:CcTransferRouterLogic",
        "label": "_owner",
        "offset": 0,
        "slot": "61",
        "type": "t_address"
      },
      {
        "astId": 176,
        "contract": "contracts/routers/CcTransferRouterLogic.sol:CcTransferRouterLogic",
        "label": "__gap",
        "offset": 0,
        "slot": "62",
        "type": "t_array(t_uint256)49_storage"
      },
      {
        "astId": 487,
        "contract": "contracts/routers/CcTransferRouterLogic.sol:CcTransferRouterLogic",
        "label": "_status",
        "offset": 0,
        "slot": "111",
        "type": "t_uint256"
      },
      {
        "astId": 545,
        "contract": "contracts/routers/CcTransferRouterLogic.sol:CcTransferRouterLogic",
        "label": "__gap",
        "offset": 0,
        "slot": "112",
        "type": "t_array(t_uint256)49_storage"
      }
    ],
    "types": {
      "t_address": {
        "encoding": "inplace",
        "label": "address",
        "numberOfBytes": "20"
      },
      "t_array(t_uint256)49_storage": {
        "base": "t_uint256",
        "encoding": "inplace",
        "label": "uint256[49]",
        "numberOfBytes": "1568"
      },
      "t_array(t_uint256)50_storage": {
        "base": "t_uint256",
        "encoding": "inplace",
        "label": "uint256[50]",
        "numberOfBytes": "1600"
      },
      "t_bool": {
        "encoding": "inplace",
        "label": "bool",
        "numberOfBytes": "1"
      },
      "t_bytes32": {
        "encoding": "inplace",
        "label": "bytes32",
        "numberOfBytes": "32"
      },
      "t_mapping(t_bytes32,t_struct(ccTransferRequest)21683_storage)": {
        "encoding": "mapping",
        "key": "t_bytes32",
        "label": "mapping(bytes32 => struct ICcTransferRouterStorage.ccTransferRequest)",
        "numberOfBytes": "32",
        "value": "t_struct(ccTransferRequest)21683_storage"
      },
      "t_struct(ccTransferRequest)21683_storage": {
        "encoding": "inplace",
        "label": "struct ICcTransferRouterStorage.ccTransferRequest",
        "members": [
          {
            "astId": 21674,
            "contract": "contracts/routers/CcTransferRouterLogic.sol:CcTransferRouterLogic",
            "label": "inputAmount",
            "offset": 0,
            "slot": "0",
            "type": "t_uint256"
          },
          {
            "astId": 21676,
            "contract": "contracts/routers/CcTransferRouterLogic.sol:CcTransferRouterLogic",
            "label": "recipientAddress",
            "offset": 0,
            "slot": "1",
            "type": "t_address"
          },
          {
            "astId": 21678,
            "contract": "contracts/routers/CcTransferRouterLogic.sol:CcTransferRouterLogic",
            "label": "fee",
            "offset": 0,
            "slot": "2",
            "type": "t_uint256"
          },
          {
            "astId": 21680,
            "contract": "contracts/routers/CcTransferRouterLogic.sol:CcTransferRouterLogic",
            "label": "speed",
            "offset": 0,
            "slot": "3",
            "type": "t_uint256"
          },
          {
            "astId": 21682,
            "contract": "contracts/routers/CcTransferRouterLogic.sol:CcTransferRouterLogic",
            "label": "isUsed",
            "offset": 0,
            "slot": "4",
            "type": "t_bool"
          }
        ],
        "numberOfBytes": "160"
      },
      "t_uint256": {
        "encoding": "inplace",
        "label": "uint256",
        "numberOfBytes": "32"
      },
      "t_uint8": {
        "encoding": "inplace",
        "label": "uint8",
        "numberOfBytes": "1"
      }
    }
  }
}