{
  "address": "0xc10A67F9744A8F31F9Beed14EFd92cDCAC3bCe6b",
  "abi": [
    {
      "inputs": [],
      "stateMutability": "nonpayable",
      "type": "constructor"
    },
    {
      "anonymous": false,
      "inputs": [
        {
          "indexed": false,
          "internalType": "string",
          "name": "name",
          "type": "string"
        },
        {
          "indexed": true,
          "internalType": "address",
          "name": "collateralToken",
          "type": "address"
        },
        {
          "indexed": false,
          "internalType": "uint256",
          "name": "collateralizationRatio",
          "type": "uint256"
        },
        {
          "indexed": true,
          "internalType": "address",
          "name": "collateralPool",
          "type": "address"
        }
      ],
      "name": "CreateCollateralPool",
      "type": "event"
    },
    {
      "anonymous": false,
      "inputs": [
        {
          "indexed": true,
          "internalType": "address",
          "name": "previousOwner",
          "type": "address"
        },
        {
          "indexed": true,
          "internalType": "address",
          "name": "newOwner",
          "type": "address"
        }
      ],
      "name": "OwnershipTransferred",
      "type": "event"
    },
    {
      "anonymous": false,
      "inputs": [
        {
          "indexed": true,
          "internalType": "address",
          "name": "collateralToken",
          "type": "address"
        },
        {
          "indexed": true,
          "internalType": "address",
          "name": "collateralPool",
          "type": "address"
        }
      ],
      "name": "RemoveCollateralPool",
      "type": "event"
    },
    {
      "inputs": [
        {
          "internalType": "uint256",
          "name": "",
          "type": "uint256"
        }
      ],
      "name": "allCollateralPools",
      "outputs": [
        {
          "internalType": "address",
          "name": "",
          "type": "address"
        }
      ],
      "stateMutability": "view",
      "type": "function"
    },
    {
      "inputs": [],
      "name": "allCollateralPoolsLength",
      "outputs": [
        {
          "internalType": "uint256",
          "name": "",
          "type": "uint256"
        }
      ],
      "stateMutability": "view",
      "type": "function"
    },
    {
      "inputs": [
        {
          "internalType": "address",
          "name": "_collateralToken",
          "type": "address"
        },
        {
          "internalType": "uint256",
          "name": "_collateralizationRatio",
          "type": "uint256"
        }
      ],
      "name": "createCollateralPool",
      "outputs": [
        {
          "internalType": "address",
          "name": "",
          "type": "address"
        }
      ],
      "stateMutability": "nonpayable",
      "type": "function"
    },
    {
      "inputs": [
        {
          "internalType": "address",
          "name": "",
          "type": "address"
        }
      ],
      "name": "getCollateralPoolByToken",
      "outputs": [
        {
          "internalType": "address",
          "name": "",
          "type": "address"
        }
      ],
      "stateMutability": "view",
      "type": "function"
    },
    {
      "inputs": [
        {
          "internalType": "address",
          "name": "_collateralToken",
          "type": "address"
        }
      ],
      "name": "isCollateral",
      "outputs": [
        {
          "internalType": "bool",
          "name": "",
          "type": "bool"
        }
      ],
      "stateMutability": "view",
      "type": "function"
    },
    {
      "inputs": [],
      "name": "owner",
      "outputs": [
        {
          "internalType": "address",
          "name": "",
          "type": "address"
        }
      ],
      "stateMutability": "view",
      "type": "function"
    },
    {
      "inputs": [
        {
          "internalType": "address",
          "name": "_collateralToken",
          "type": "address"
        },
        {
          "internalType": "uint256",
          "name": "_index",
          "type": "uint256"
        }
      ],
      "name": "removeCollateralPool",
      "outputs": [
        {
          "internalType": "bool",
          "name": "",
          "type": "bool"
        }
      ],
      "stateMutability": "nonpayable",
      "type": "function"
    },
    {
      "inputs": [],
      "name": "renounceOwnership",
      "outputs": [],
      "stateMutability": "nonpayable",
      "type": "function"
    },
    {
      "inputs": [
        {
          "internalType": "address",
          "name": "newOwner",
          "type": "address"
        }
      ],
      "name": "transferOwnership",
      "outputs": [],
      "stateMutability": "nonpayable",
      "type": "function"
    }
  ],
  "transactionHash": "0xa9850b746aef0b0f286c775357c44de00567a881016a140d231be5121ee64956",
  "args": [],
  "numDeployments": 1,
  "solcInputHash": "fc31ff436828a23789c4e522a7ac2ff7",
  "bytecode": "0x608060405234801561001057600080fd5b5061001a33610023565b60018055610073565b600080546001600160a01b038381166001600160a01b0319831681178455604051919092169283917f8be0079c531659141344cd1fd0a4f28419497f9722a3daafe3b4186f6b6457e09190a35050565b612b3e806100826000396000f3fe60806040523480156200001157600080fd5b5060043610620000a05760003560e01c80638b41c4fe116200006f5780638b41c4fe146200011f5780638da5cb5b1462000136578063dbd248e61462000148578063dc5f013e146200015f578063f2fde38b146200018b57620000a0565b80630ee21e5414620000a55780631b7293cd14620000d15780635df0f55014620000e3578063715018a61462000113575b600080fd5b620000bc620000b636600462000c09565b620001a2565b60405190151581526020015b60405180910390f35b600354604051908152602001620000c8565b620000fa620000f436600462000d0e565b620001d8565b6040516001600160a01b039091168152602001620000c8565b6200011d62000203565b005b620000fa6200013036600462000c2d565b6200023b565b6000546001600160a01b0316620000fa565b620000bc6200015936600462000c2d565b6200074a565b620000fa6200017036600462000c09565b6002602052600090815260409020546001600160a01b031681565b6200011d6200019c36600462000c09565b62000a0a565b6001600160a01b0381811660009081526002602052604081205490911615620001cd576001620001d0565b60005b90505b919050565b60038181548110620001e957600080fd5b6000918252602090912001546001600160a01b0316905081565b6000546001600160a01b03163314620002395760405162461bcd60e51b8152600401620002309062000e99565b60405180910390fd5b565b6000826001600160a01b038116620002675760405162461bcd60e51b8152600401620002309062000e56565b8260008111620002c45760405162461bcd60e51b815260206004820152602160248201527f436f6c6c61746572616c506f6f6c466163746f72793a207a65726f2076616c756044820152606560f81b606482015260840162000230565b60026001541415620003195760405162461bcd60e51b815260206004820152601f60248201527f5265656e7472616e637947756172643a207265656e7472616e742063616c6c00604482015260640162000230565b60026001556000546001600160a01b031633146200034b5760405162461bcd60e51b8152600401620002309062000e99565b6001600160a01b038581166000908152600260205260409020541615620003d35760405162461bcd60e51b815260206004820152603560248201527f436f6c6c61746572616c506f6f6c466163746f72793a20636f6c6c61746572616044820152746c20706f6f6c20616c72656164792065786973747360581b606482015260840162000230565b612710841015620004315760405162461bcd60e51b815260206004820152602160248201527f436f6c6c61746572616c506f6f6c466163746f72793a206c6f7720616d6f756e6044820152601d60fa1b606482015260840162000230565b60006060806000886001600160a01b03166306fdde036040518163ffffffff1660e01b815260040160006040518083038186803b1580156200047257600080fd5b505afa15801562000487573d6000803e3d6000fd5b505050506040513d6000823e601f3d908101601f19168201604052620004b1919081019062000c59565b604051602001620004c3919062000da0565b6040516020818303038152906040529250886001600160a01b03166395d89b416040518163ffffffff1660e01b815260040160006040518083038186803b1580156200050e57600080fd5b505afa15801562000523573d6000803e3d6000fd5b505050506040513d6000823e601f3d908101601f191682016040526200054d919081019062000c59565b6040516020016200055f919062000d78565b6040516020818303038152906040529150886001600160a01b031663313ce5676040518163ffffffff1660e01b815260040160206040518083038186803b158015620005aa57600080fd5b505afa158015620005bf573d6000803e3d6000fd5b505050506040513d601f19601f82011682018060405250810190620005e5919062000d27565b905082828a8a84604051620005fa9062000be3565b6200060a95949392919062000ddf565b604051809103906000f08015801562000627573d6000803e3d6000fd5b5093506001600160a01b03841663f2fde38b336040516001600160e01b031960e084901b1681526001600160a01b039091166004820152602401600060405180830381600087803b1580156200067c57600080fd5b505af115801562000691573d6000803e3d6000fd5b505050506001600160a01b0389811660008181526002602052604080822080546001600160a01b0319908116958a169586179091556003805460018101825593527fc2575a0e9e593c00f959f8c92f12db2869c3395a3b0502d05e2516446f71f85b90920180549092168417909155517f6e86e4d8eed057ac88a84132c45db161d6c5a1f32b997ed913edf0bef4fb47c290620007329087908d9062000e32565b60405180910390a35050600180555095945050505050565b600060026001541415620007a15760405162461bcd60e51b815260206004820152601f60248201527f5265656e7472616e637947756172643a207265656e7472616e742063616c6c00604482015260640162000230565b6002600155826001600160a01b038116620007d05760405162461bcd60e51b8152600401620002309062000e56565b6000546001600160a01b03163314620007fd5760405162461bcd60e51b8152600401620002309062000e99565b6001600160a01b038085166000908152600260205260409020541680620008855760405162461bcd60e51b815260206004820152603560248201527f436f6c6c61746572616c506f6f6c466163746f72793a20636f6c6c61746572616044820152741b081c1bdbdb08191bd95cc81b9bdd08195e1a5cdd605a1b606482015260840162000230565b6003548410620008ed5760405162461bcd60e51b815260206004820152602c60248201527f436f6c6c61746572616c506f6f6c466163746f72793a20696e6465782069732060448201526b6f7574206f662072616e676560a01b606482015260840162000230565b600384815481106200090f57634e487b7160e01b600052603260045260246000fd5b6000918252602090912001546001600160a01b038281169116146200098b5760405162461bcd60e51b815260206004820152602b60248201527f436f6c6c61746572616c506f6f6c466163746f72793a20696e6465782069732060448201526a1b9bdd0818dbdc9c9958dd60aa1b606482015260840162000230565b6001600160a01b038516600090815260026020526040902080546001600160a01b0319169055620009bc8462000aac565b806001600160a01b0316856001600160a01b03167fc32b19b2496954379b1aca293ceef03a9f78ec6bd7114c2e7a82dfa6c33017a360405160405180910390a3505060018080559392505050565b6000546001600160a01b0316331462000a375760405162461bcd60e51b8152600401620002309062000e99565b6001600160a01b03811662000a9e5760405162461bcd60e51b815260206004820152602660248201527f4f776e61626c653a206e6577206f776e657220697320746865207a65726f206160448201526564647265737360d01b606482015260840162000230565b62000aa98162000b93565b50565b6003600162000aba60035490565b62000ac6919062000ece565b8154811062000ae557634e487b7160e01b600052603260045260246000fd5b600091825260209091200154600380546001600160a01b03909216918390811062000b2057634e487b7160e01b600052603260045260246000fd5b9060005260206000200160006101000a8154816001600160a01b0302191690836001600160a01b03160217905550600380548062000b6e57634e487b7160e01b600052603160045260246000fd5b600082815260209020810160001990810180546001600160a01b031916905501905550565b600080546001600160a01b038381166001600160a01b0319831681178455604051919092169283917f8be0079c531659141344cd1fd0a4f28419497f9722a3daafe3b4186f6b6457e09190a35050565b611bcd8062000f3c83390190565b80356001600160a01b0381168114620001d357600080fd5b60006020828403121562000c1b578081fd5b62000c268262000bf1565b9392505050565b6000806040838503121562000c40578081fd5b62000c4b8362000bf1565b946020939093013593505050565b60006020828403121562000c6b578081fd5b815167ffffffffffffffff8082111562000c83578283fd5b818401915084601f83011262000c97578283fd5b81518181111562000cac5762000cac62000f25565b604051601f8201601f19908116603f0116810190838211818310171562000cd75762000cd762000f25565b8160405282815287602084870101111562000cf0578586fd5b62000d0383602083016020880162000ef2565b979650505050505050565b60006020828403121562000d20578081fd5b5035919050565b60006020828403121562000d39578081fd5b815160ff8116811462000c26578182fd5b6000815180845262000d6481602086016020860162000ef2565b601f01601f19169290920160200192915050565b6000825162000d8c81846020870162000ef2565b61043560f41b920191825250600201919050565b6000825162000db481846020870162000ef2565b602d60f81b9201918252506e10dbdb1b185d195c985b0b541bdbdb608a1b6001820152601001919050565b600060a0825262000df460a083018862000d4a565b828103602084015262000e08818862000d4a565b6001600160a01b039690961660408401525050606081019290925260ff1660809091015292915050565b60006040825262000e47604083018562000d4a565b90508260208301529392505050565b60208082526023908201527f436f6c6c61746572616c506f6f6c466163746f72793a207a65726f206164647260408201526265737360e81b606082015260800190565b6020808252818101527f4f776e61626c653a2063616c6c6572206973206e6f7420746865206f776e6572604082015260600190565b60008282101562000eed57634e487b7160e01b81526011600452602481fd5b500390565b60005b8381101562000f0f57818101518382015260200162000ef5565b8381111562000f1f576000848401525b50505050565b634e487b7160e01b600052604160045260246000fdfe60806040523480156200001157600080fd5b5060405162001bcd38038062001bcd833981016040819052620000349162000366565b8451859085906200004d9060039060208501906200020d565b508051620000639060049060208401906200020d565b505050620000806200007a620000ca60201b60201c565b620000ce565b6001600655600780546001600160a01b0319166001600160a01b038516179055620000ab8262000120565b6009805460ff191660ff92909216919091179055506200046692505050565b3390565b600580546001600160a01b038381166001600160a01b0319831681179093556040519116919082907f8be0079c531659141344cd1fd0a4f28419497f9722a3daafe3b4186f6b6457e090600090a35050565b8060008111620001775760405162461bcd60e51b815260206004820152601a60248201527f436f6c6c61746572616c506f6f6c3a207a65726f2076616c756500000000000060448201526064015b60405180910390fd5b60085460408051918252602082018490527f0fab315f9afe740b3379e4b31444de1a4bcd656591a311349a83cd3297434546910160405180910390a1612710821015620002075760405162461bcd60e51b815260206004820152601960248201527f436f6c6c61746572616c506f6f6c3a204352206973206c6f770000000000000060448201526064016200016e565b50600855565b8280546200021b9062000413565b90600052602060002090601f0160209004810192826200023f57600085556200028a565b82601f106200025a57805160ff19168380011785556200028a565b828001600101855582156200028a579182015b828111156200028a5782518255916020019190600101906200026d565b50620002989291506200029c565b5090565b5b808211156200029857600081556001016200029d565b600082601f830112620002c4578081fd5b81516001600160401b0380821115620002e157620002e162000450565b604051601f8301601f19908116603f011681019082821181831017156200030c576200030c62000450565b8160405283815260209250868385880101111562000328578485fd5b8491505b838210156200034b57858201830151818301840152908201906200032c565b838211156200035c57848385830101525b9695505050505050565b600080600080600060a086880312156200037e578081fd5b85516001600160401b038082111562000395578283fd5b620003a389838a01620002b3565b96506020880151915080821115620003b9578283fd5b50620003c888828901620002b3565b604088015190955090506001600160a01b0381168114620003e7578182fd5b60608701516080880151919450925060ff8116811462000405578182fd5b809150509295509295909350565b6002810460018216806200042857607f821691505b602082108114156200044a57634e487b7160e01b600052602260045260246000fd5b50919050565b634e487b7160e01b600052604160045260246000fd5b61175780620004766000396000f3fe608060405234801561001057600080fd5b50600436106101425760003560e01c8063715018a6116100b8578063a9059cbb1161007c578063a9059cbb146102a0578063b2016bd4146102b3578063dcaf9c44146102c6578063dd62ed3e146102cf578063e5829d2014610308578063f2fde38b1461031b57610142565b8063715018a61461024e5780638da5cb5b1461025857806395d89b411461027d5780639840c05114610285578063a457c2d71461028d57610142565b8063313ce5671161010a578063313ce567146101c45780633237c158146101d9578063392f2ddd146101ec57806339509351146101ff5780636d75b9ee1461021257806370a082311461022557610142565b806306fdde0314610147578063095ea7b31461016557806313f5a46e1461018857806318160ddd146101a957806323b872dd146101b1575b600080fd5b61014f61032e565b60405161015c9190611504565b60405180910390f35b61017861017336600461146f565b6103c0565b604051901515815260200161015c565b61019b6101963660046114b8565b6103d6565b60405190815260200161015c565b60025461019b565b6101786101bf366004611434565b610456565b60095460405160ff909116815260200161015c565b6101786101e73660046114b8565b610502565b61019b6101fa3660046114b8565b61067a565b61017861020d36600461146f565b6106d6565b61017861022036600461146f565b610712565b61019b6102333660046113e8565b6001600160a01b031660009081526020819052604090205490565b610256610896565b005b6005546001600160a01b03165b6040516001600160a01b03909116815260200161015c565b61014f6108c2565b61019b6108d1565b61017861029b36600461146f565b610952565b6101786102ae36600461146f565b6109eb565b600754610265906001600160a01b031681565b61019b60085481565b61019b6102dd366004611402565b6001600160a01b03918216600090815260016020908152604080832093909416825291909152205490565b6102566103163660046114b8565b6109f8565b6102566103293660046113e8565b610a2e565b60606003805461033d906116d0565b80601f0160208091040260200160405190810160405280929190818152602001828054610369906116d0565b80156103b65780601f1061038b576101008083540402835291602001916103b6565b820191906000526020600020905b81548152906001019060200180831161039957829003601f168201915b5050505050905090565b60006103cd338484610ac6565b50600192915050565b6000806103e16108d1565b116104075760405162461bcd60e51b81526004016103fe90611537565b60405180910390fd5b816104106108d1565b101561042e5760405162461bcd60e51b81526004016103fe9061157f565b6104366108d1565b6002545b610444908461166e565b61044e919061164e565b90505b919050565b6000610463848484610beb565b6001600160a01b0384166000908152600160209081526040808320338452909152902054828110156104e85760405162461bcd60e51b815260206004820152602860248201527f45524332303a207472616e7366657220616d6f756e74206578636565647320616044820152676c6c6f77616e636560c01b60648201526084016103fe565b6104f58533858403610ac6565b60019150505b9392505050565b600081600081116105255760405162461bcd60e51b81526004016103fe906115ff565b600260065414156105785760405162461bcd60e51b815260206004820152601f60248201527f5265656e7472616e637947756172643a207265656e7472616e742063616c6c0060448201526064016103fe565b60026006558261058733610233565b10156105e35760405162461bcd60e51b815260206004820152602560248201527f436f6c6c61746572616c506f6f6c3a2062616c616e6365206973206e6f7420656044820152640dcdeeaced60db1b60648201526084016103fe565b60006105ee60025490565b6105f66108d1565b610600908661166e565b61060a919061164e565b90506106163385610dbb565b61062d336007546001600160a01b03169083610f06565b6040805182815260208101869052339182917f37c4d2e6036e28a1f1ed3eed26620e1e370df577673d4eb2decef5d3ea44a949910160405180910390a36001925050506001600655919050565b60008061068660025490565b116106a35760405162461bcd60e51b81526004016103fe90611537565b816106ad60025490565b10156106cb5760405162461bcd60e51b81526004016103fe9061157f565b60025461043a6108d1565b3360008181526001602090815260408083206001600160a01b038716845290915281205490916103cd91859061070d908690611636565b610ac6565b6000826001600160a01b03811661076b5760405162461bcd60e51b815260206004820152601c60248201527f436f6c6c61746572616c506f6f6c3a207a65726f20616464726573730000000060448201526064016103fe565b826000811161078c5760405162461bcd60e51b81526004016103fe906115ff565b600260065414156107df5760405162461bcd60e51b815260206004820152601f60248201527f5265656e7472616e637947756172643a207265656e7472616e742063616c6c0060448201526064016103fe565b600260065560006107ef60025490565b6107fa57508361081c565b6108026108d1565b60025461080f908761166e565b610819919061164e565b90505b610834336007546001600160a01b0316903088610f69565b61083e8682610fa1565b60408051868152602081018390526001600160a01b0388169133917f33a089d94f9a0b7d0fe21e69b40d7dbe1965be652c7382cc778d46963db8c49b910160405180910390a360019350505050600160065592915050565b6005546001600160a01b031633146108c05760405162461bcd60e51b81526004016103fe906115ca565b565b60606004805461033d906116d0565b6007546040516370a0823160e01b81523060048201526000916001600160a01b0316906370a082319060240160206040518083038186803b15801561091557600080fd5b505afa158015610929573d6000803e3d6000fd5b505050506040513d601f19601f8201168201806040525081019061094d91906114d0565b905090565b3360009081526001602090815260408083206001600160a01b0386168452909152812054828110156109d45760405162461bcd60e51b815260206004820152602560248201527f45524332303a2064656372656173656420616c6c6f77616e63652062656c6f77604482015264207a65726f60d81b60648201526084016103fe565b6109e13385858403610ac6565b5060019392505050565b60006103cd338484610beb565b6005546001600160a01b03163314610a225760405162461bcd60e51b81526004016103fe906115ca565b610a2b81611080565b50565b6005546001600160a01b03163314610a585760405162461bcd60e51b81526004016103fe906115ca565b6001600160a01b038116610abd5760405162461bcd60e51b815260206004820152602660248201527f4f776e61626c653a206e6577206f776e657220697320746865207a65726f206160448201526564647265737360d01b60648201526084016103fe565b610a2b81611135565b6001600160a01b038316610b285760405162461bcd60e51b8152602060048201526024808201527f45524332303a20617070726f76652066726f6d20746865207a65726f206164646044820152637265737360e01b60648201526084016103fe565b6001600160a01b038216610b895760405162461bcd60e51b815260206004820152602260248201527f45524332303a20617070726f766520746f20746865207a65726f206164647265604482015261737360f01b60648201526084016103fe565b6001600160a01b0383811660008181526001602090815260408083209487168084529482529182902085905590518481527f8c5be1e5ebec7d5bd14f71427d1e84f3dd0314c0f7b2291e5b200ac8c7c3b92591015b60405180910390a3505050565b6001600160a01b038316610c4f5760405162461bcd60e51b815260206004820152602560248201527f45524332303a207472616e736665722066726f6d20746865207a65726f206164604482015264647265737360d81b60648201526084016103fe565b6001600160a01b038216610cb15760405162461bcd60e51b815260206004820152602360248201527f45524332303a207472616e7366657220746f20746865207a65726f206164647260448201526265737360e81b60648201526084016103fe565b6001600160a01b03831660009081526020819052604090205481811015610d295760405162461bcd60e51b815260206004820152602660248201527f45524332303a207472616e7366657220616d6f756e7420657863656564732062604482015265616c616e636560d01b60648201526084016103fe565b6001600160a01b03808516600090815260208190526040808220858503905591851681529081208054849290610d60908490611636565b92505081905550826001600160a01b0316846001600160a01b03167fddf252ad1be2c89b69c2b068fc378daa952ba7f163c4a11628f55a4df523b3ef84604051610dac91815260200190565b60405180910390a35b50505050565b6001600160a01b038216610e1b5760405162461bcd60e51b815260206004820152602160248201527f45524332303a206275726e2066726f6d20746865207a65726f206164647265736044820152607360f81b60648201526084016103fe565b6001600160a01b03821660009081526020819052604090205481811015610e8f5760405162461bcd60e51b815260206004820152602260248201527f45524332303a206275726e20616d6f756e7420657863656564732062616c616e604482015261636560f01b60648201526084016103fe565b6001600160a01b0383166000908152602081905260408120838303905560028054849290610ebe90849061168d565b90915550506040518281526000906001600160a01b038516907fddf252ad1be2c89b69c2b068fc378daa952ba7f163c4a11628f55a4df523b3ef90602001610bde565b505050565b6040516001600160a01b038316602482015260448101829052610f0190849063a9059cbb60e01b906064015b60408051601f198184030181529190526020810180516001600160e01b03166001600160e01b031990931692909217909152611187565b6040516001600160a01b0380851660248301528316604482015260648101829052610db59085906323b872dd60e01b90608401610f32565b6001600160a01b038216610ff75760405162461bcd60e51b815260206004820152601f60248201527f45524332303a206d696e7420746f20746865207a65726f20616464726573730060448201526064016103fe565b80600260008282546110099190611636565b90915550506001600160a01b03821660009081526020819052604081208054839290611036908490611636565b90915550506040518181526001600160a01b038316906000907fddf252ad1be2c89b69c2b068fc378daa952ba7f163c4a11628f55a4df523b3ef9060200160405180910390a35050565b80600081116110a15760405162461bcd60e51b81526004016103fe906115ff565b60085460408051918252602082018490527f0fab315f9afe740b3379e4b31444de1a4bcd656591a311349a83cd3297434546910160405180910390a161271082101561112f5760405162461bcd60e51b815260206004820152601960248201527f436f6c6c61746572616c506f6f6c3a204352206973206c6f770000000000000060448201526064016103fe565b50600855565b600580546001600160a01b038381166001600160a01b0319831681179093556040519116919082907f8be0079c531659141344cd1fd0a4f28419497f9722a3daafe3b4186f6b6457e090600090a35050565b60006111dc826040518060400160405280602081526020017f5361666545524332303a206c6f772d6c6576656c2063616c6c206661696c6564815250856001600160a01b03166112599092919063ffffffff16565b805190915015610f0157808060200190518101906111fa9190611498565b610f015760405162461bcd60e51b815260206004820152602a60248201527f5361666545524332303a204552433230206f7065726174696f6e20646964206e6044820152691bdd081cdd58d8d9595960b21b60648201526084016103fe565b60606112688484600085611270565b949350505050565b6060824710156112d15760405162461bcd60e51b815260206004820152602660248201527f416464726573733a20696e73756666696369656e742062616c616e636520666f6044820152651c8818d85b1b60d21b60648201526084016103fe565b843b61131f5760405162461bcd60e51b815260206004820152601d60248201527f416464726573733a2063616c6c20746f206e6f6e2d636f6e747261637400000060448201526064016103fe565b600080866001600160a01b0316858760405161133b91906114e8565b60006040518083038185875af1925050503d8060008114611378576040519150601f19603f3d011682016040523d82523d6000602084013e61137d565b606091505b509150915061138d828286611398565b979650505050505050565b606083156113a75750816104fb565b8251156113b75782518084602001fd5b8160405162461bcd60e51b81526004016103fe9190611504565b80356001600160a01b038116811461045157600080fd5b6000602082840312156113f9578081fd5b6104fb826113d1565b60008060408385031215611414578081fd5b61141d836113d1565b915061142b602084016113d1565b90509250929050565b600080600060608486031215611448578081fd5b611451846113d1565b925061145f602085016113d1565b9150604084013590509250925092565b60008060408385031215611481578182fd5b61148a836113d1565b946020939093013593505050565b6000602082840312156114a9578081fd5b815180151581146104fb578182fd5b6000602082840312156114c9578081fd5b5035919050565b6000602082840312156114e1578081fd5b5051919050565b600082516114fa8184602087016116a4565b9190910192915050565b60006020825282518060208401526115238160408501602087016116a4565b601f01601f19169190910160400192915050565b60208082526028908201527f436f6c6c61746572616c506f6f6c3a20636f6c6c61746572616c20706f6f6c20604082015267697320656d70747960c01b606082015260800190565b6020808252602b908201527f436f6c6c61746572616c506f6f6c3a206c6971756964697479206973206e6f7460408201526a081cdd59999a58da595b9d60aa1b606082015260800190565b6020808252818101527f4f776e61626c653a2063616c6c6572206973206e6f7420746865206f776e6572604082015260600190565b6020808252601a908201527f436f6c6c61746572616c506f6f6c3a207a65726f2076616c7565000000000000604082015260600190565b600082198211156116495761164961170b565b500190565b60008261166957634e487b7160e01b81526012600452602481fd5b500490565b60008160001904831182151516156116885761168861170b565b500290565b60008282101561169f5761169f61170b565b500390565b60005b838110156116bf5781810151838201526020016116a7565b83811115610db55750506000910152565b6002810460018216806116e457607f821691505b6020821081141561170557634e487b7160e01b600052602260045260246000fd5b50919050565b634e487b7160e01b600052601160045260246000fdfea264697066735822122042a55ebb34ac37101b33a352055143ff4e97cdc3c9e42783fb446ba26bd5dede64736f6c63430008020033a26469706673582212201340fdbc7d0bc8094a34b9c44018680310854befb42d736fb49d3b8278ee860664736f6c63430008020033",
  "devdoc": {
    "kind": "dev",
    "methods": {
      "allCollateralPoolsLength()": {
        "returns": {
          "_0": "Total number of collateral pools"
        }
      },
      "createCollateralPool(address,uint256)": {
        "details": "Only owner can call this",
        "params": {
          "_collateralToken": "Address of underlying collateral token",
          "_collateralizationRatio": "The ratio of over collateralization"
        },
        "returns": {
          "_0": "Address of newly created collateral pool"
        }
      },
      "isCollateral(address)": {
        "params": {
          "_collateralToken": "Address of collateral token"
        },
        "returns": {
          "_0": "True if the corresponding collateral pool exists"
        }
      },
      "owner()": {
        "details": "Returns the address of the current owner."
      },
      "removeCollateralPool(address,uint256)": {
        "details": "Only owner can call this",
        "params": {
          "_collateralToken": "Address of underlying collateral token",
          "_index": "Index of collateral pool in allCollateralPools"
        },
        "returns": {
          "_0": "True if collateral pool is removed successfully"
        }
      },
      "renounceOwnership()": {
        "details": "Leaves the contract without owner. It will not be possible to call `onlyOwner` functions anymore. Can only be called by the current owner. NOTE: Renouncing ownership will leave the contract without an owner, thereby removing any functionality that is only available to the owner."
      },
      "transferOwnership(address)": {
        "details": "Transfers ownership of the contract to a new account (`newOwner`). Can only be called by the current owner."
      }
    },
    "version": 1
  },
  "userdoc": {
    "events": {
      "CreateCollateralPool(string,address,uint256,address)": {
        "notice": "Emits when a collateral pool is created"
      },
      "RemoveCollateralPool(address,address)": {
        "notice": "Emits when a collateral pool is removed"
      }
    },
    "kind": "user",
    "methods": {
      "constructor": {
        "notice": "This contract creates collateral pool for tokens"
      },
      "createCollateralPool(address,uint256)": {
        "notice": "Creates a new collateral pool"
      },
      "isCollateral(address)": {
        "notice": "Checks whether the token is accepted as collateral or not"
      },
      "removeCollateralPool(address,uint256)": {
        "notice": "Removes an existing collateral pool"
      }
    },
    "version": 1
  },
  "storageLayout": {
    "storage": [
      {
        "astId": 807,
        "contract": "contracts/pools/CollateralPoolFactory.sol:CollateralPoolFactory",
        "label": "_owner",
        "offset": 0,
        "slot": "0",
        "type": "t_address"
      },
      {
        "astId": 1634,
        "contract": "contracts/pools/CollateralPoolFactory.sol:CollateralPoolFactory",
        "label": "_status",
        "offset": 0,
        "slot": "1",
        "type": "t_uint256"
      },
      {
        "astId": 14730,
        "contract": "contracts/pools/CollateralPoolFactory.sol:CollateralPoolFactory",
        "label": "getCollateralPoolByToken",
        "offset": 0,
        "slot": "2",
        "type": "t_mapping(t_address,t_address)"
      },
      {
        "astId": 14734,
        "contract": "contracts/pools/CollateralPoolFactory.sol:CollateralPoolFactory",
        "label": "allCollateralPools",
        "offset": 0,
        "slot": "3",
        "type": "t_array(t_address)dyn_storage"
      }
    ],
    "types": {
      "t_address": {
        "encoding": "inplace",
        "label": "address",
        "numberOfBytes": "20"
      },
      "t_array(t_address)dyn_storage": {
        "base": "t_address",
        "encoding": "dynamic_array",
        "label": "address[]",
        "numberOfBytes": "32"
      },
      "t_mapping(t_address,t_address)": {
        "encoding": "mapping",
        "key": "t_address",
        "label": "mapping(address => address)",
        "numberOfBytes": "32",
        "value": "t_address"
      },
      "t_uint256": {
        "encoding": "inplace",
        "label": "uint256",
        "numberOfBytes": "32"
      }
    }
  }
}