{
  "address": "0xe2dC1afeE166734A3D4fccc36B18D1CB77CA93C6",
  "abi": [
    {
      "inputs": [
        {
          "internalType": "address",
          "name": "_teleBTC",
          "type": "address"
        },
        {
          "internalType": "address",
          "name": "_relay",
          "type": "address"
        },
        {
          "internalType": "address",
          "name": "_priceOracle",
          "type": "address"
        },
        {
          "internalType": "address",
          "name": "_collateralPoolFactory",
          "type": "address"
        },
        {
          "internalType": "uint256",
          "name": "_slasherPercentageReward",
          "type": "uint256"
        },
        {
          "internalType": "uint256",
          "name": "_paybackDeadline",
          "type": "uint256"
        },
        {
          "internalType": "address",
          "name": "_defaultExchangeConnector",
          "type": "address"
        },
        {
          "internalType": "uint256",
          "name": "_maxPriceDifferencePercent",
          "type": "uint256"
        },
        {
          "internalType": "address",
          "name": "_treasuaryAddress",
          "type": "address"
        }
      ],
      "stateMutability": "nonpayable",
      "type": "constructor"
    },
    {
      "anonymous": false,
      "inputs": [
        {
          "indexed": true,
          "internalType": "address",
          "name": "user",
          "type": "address"
        },
        {
          "indexed": false,
          "internalType": "address",
          "name": "receiver",
          "type": "address"
        },
        {
          "indexed": false,
          "internalType": "uint256",
          "name": "loanAmount",
          "type": "uint256"
        },
        {
          "indexed": false,
          "internalType": "uint256",
          "name": "instantFee",
          "type": "uint256"
        },
        {
          "indexed": false,
          "internalType": "uint256",
          "name": "amountOut",
          "type": "uint256"
        },
        {
          "indexed": false,
          "internalType": "address[]",
          "name": "path",
          "type": "address[]"
        },
        {
          "indexed": false,
          "internalType": "bool",
          "name": "isFixed",
          "type": "bool"
        },
        {
          "indexed": true,
          "internalType": "uint256",
          "name": "deadline",
          "type": "uint256"
        },
        {
          "indexed": true,
          "internalType": "address",
          "name": "collateralToken",
          "type": "address"
        },
        {
          "indexed": false,
          "internalType": "uint256",
          "name": "lockedCollateralPoolToken",
          "type": "uint256"
        },
        {
          "indexed": false,
          "internalType": "uint256",
          "name": "requestCounterOfUser",
          "type": "uint256"
        }
      ],
      "name": "InstantExchange",
      "type": "event"
    },
    {
      "anonymous": false,
      "inputs": [
        {
          "indexed": true,
          "internalType": "address",
          "name": "user",
          "type": "address"
        },
        {
          "indexed": false,
          "internalType": "address",
          "name": "receiver",
          "type": "address"
        },
        {
          "indexed": false,
          "internalType": "uint256",
          "name": "loanAmount",
          "type": "uint256"
        },
        {
          "indexed": false,
          "internalType": "uint256",
          "name": "instantFee",
          "type": "uint256"
        },
        {
          "indexed": true,
          "internalType": "uint256",
          "name": "deadline",
          "type": "uint256"
        },
        {
          "indexed": true,
          "internalType": "address",
          "name": "collateralToken",
          "type": "address"
        },
        {
          "indexed": false,
          "internalType": "uint256",
          "name": "lockedCollateralPoolToken",
          "type": "uint256"
        },
        {
          "indexed": false,
          "internalType": "uint256",
          "name": "requestCounterOfUser",
          "type": "uint256"
        }
      ],
      "name": "InstantTransfer",
      "type": "event"
    },
    {
      "anonymous": false,
      "inputs": [
        {
          "indexed": false,
          "internalType": "address",
          "name": "oldCollateralPoolFactory",
          "type": "address"
        },
        {
          "indexed": false,
          "internalType": "address",
          "name": "newCollateralPoolFactory",
          "type": "address"
        }
      ],
      "name": "NewCollateralPoolFactory",
      "type": "event"
    },
    {
      "anonymous": false,
      "inputs": [
        {
          "indexed": false,
          "internalType": "address",
          "name": "oldDefaultExchangeConnector",
          "type": "address"
        },
        {
          "indexed": false,
          "internalType": "address",
          "name": "newDefaultExchangeConnector",
          "type": "address"
        }
      ],
      "name": "NewDefaultExchangeConnector",
      "type": "event"
    },
    {
      "anonymous": false,
      "inputs": [
        {
          "indexed": false,
          "internalType": "uint256",
          "name": "oldMaxPriceDifferencePercent",
          "type": "uint256"
        },
        {
          "indexed": false,
          "internalType": "uint256",
          "name": "newMaxPriceDifferencePercent",
          "type": "uint256"
        }
      ],
      "name": "NewMaxPriceDifferencePercent",
      "type": "event"
    },
    {
      "anonymous": false,
      "inputs": [
        {
          "indexed": false,
          "internalType": "uint256",
          "name": "oldPaybackDeadline",
          "type": "uint256"
        },
        {
          "indexed": false,
          "internalType": "uint256",
          "name": "newPaybackDeadline",
          "type": "uint256"
        }
      ],
      "name": "NewPaybackDeadline",
      "type": "event"
    },
    {
      "anonymous": false,
      "inputs": [
        {
          "indexed": false,
          "internalType": "address",
          "name": "oldPriceOracle",
          "type": "address"
        },
        {
          "indexed": false,
          "internalType": "address",
          "name": "newPriceOracle",
          "type": "address"
        }
      ],
      "name": "NewPriceOracle",
      "type": "event"
    },
    {
      "anonymous": false,
      "inputs": [
        {
          "indexed": false,
          "internalType": "address",
          "name": "oldRelay",
          "type": "address"
        },
        {
          "indexed": false,
          "internalType": "address",
          "name": "newRelay",
          "type": "address"
        }
      ],
      "name": "NewRelay",
      "type": "event"
    },
    {
      "anonymous": false,
      "inputs": [
        {
          "indexed": false,
          "internalType": "uint256",
          "name": "oldSlasherPercentageReward",
          "type": "uint256"
        },
        {
          "indexed": false,
          "internalType": "uint256",
          "name": "newSlasherPercentageReward",
          "type": "uint256"
        }
      ],
      "name": "NewSlasherPercentageReward",
      "type": "event"
    },
    {
      "anonymous": false,
      "inputs": [
        {
          "indexed": false,
          "internalType": "address",
          "name": "oldTeleBTC",
          "type": "address"
        },
        {
          "indexed": false,
          "internalType": "address",
          "name": "newTeleBTC",
          "type": "address"
        }
      ],
      "name": "NewTeleBTC",
      "type": "event"
    },
    {
      "anonymous": false,
      "inputs": [
        {
          "indexed": false,
          "internalType": "address",
          "name": "oldTeleBTCInstantPool",
          "type": "address"
        },
        {
          "indexed": false,
          "internalType": "address",
          "name": "newTeleBTCInstantPool",
          "type": "address"
        }
      ],
      "name": "NewTeleBTCInstantPool",
      "type": "event"
    },
    {
      "anonymous": false,
      "inputs": [
        {
          "indexed": false,
          "internalType": "address",
          "name": "oldTreasuaryAddress",
          "type": "address"
        },
        {
          "indexed": false,
          "internalType": "address",
          "name": "newTreasuaryAddress",
          "type": "address"
        }
      ],
      "name": "NewTreasuaryAddress",
      "type": "event"
    },
    {
      "anonymous": false,
      "inputs": [
        {
          "indexed": true,
          "internalType": "address",
          "name": "previousOwner",
          "type": "address"
        },
        {
          "indexed": true,
          "internalType": "address",
          "name": "newOwner",
          "type": "address"
        }
      ],
      "name": "OwnershipTransferred",
      "type": "event"
    },
    {
      "anonymous": false,
      "inputs": [
        {
          "indexed": false,
          "internalType": "address",
          "name": "account",
          "type": "address"
        }
      ],
      "name": "Paused",
      "type": "event"
    },
    {
      "anonymous": false,
      "inputs": [
        {
          "indexed": true,
          "internalType": "address",
          "name": "user",
          "type": "address"
        },
        {
          "indexed": false,
          "internalType": "uint256",
          "name": "paybackAmount",
          "type": "uint256"
        },
        {
          "indexed": true,
          "internalType": "address",
          "name": "collateralToken",
          "type": "address"
        },
        {
          "indexed": false,
          "internalType": "uint256",
          "name": "lockedCollateralPoolToken",
          "type": "uint256"
        },
        {
          "indexed": false,
          "internalType": "uint256",
          "name": "requestCounterOfUser",
          "type": "uint256"
        }
      ],
      "name": "PaybackLoan",
      "type": "event"
    },
    {
      "anonymous": false,
      "inputs": [
        {
          "indexed": true,
          "internalType": "address",
          "name": "user",
          "type": "address"
        },
        {
          "indexed": true,
          "internalType": "address",
          "name": "collateralToken",
          "type": "address"
        },
        {
          "indexed": false,
          "internalType": "uint256",
          "name": "slashedAmount",
          "type": "uint256"
        },
        {
          "indexed": false,
          "internalType": "uint256",
          "name": "paybackAmount",
          "type": "uint256"
        },
        {
          "indexed": true,
          "internalType": "address",
          "name": "slasher",
          "type": "address"
        },
        {
          "indexed": false,
          "internalType": "uint256",
          "name": "slasherReward",
          "type": "uint256"
        },
        {
          "indexed": false,
          "internalType": "uint256",
          "name": "requestCounterOfUser",
          "type": "uint256"
        }
      ],
      "name": "SlashUser",
      "type": "event"
    },
    {
      "anonymous": false,
      "inputs": [
        {
          "indexed": false,
          "internalType": "address",
          "name": "account",
          "type": "address"
        }
      ],
      "name": "Unpaused",
      "type": "event"
    },
    {
      "inputs": [],
      "name": "collateralPoolFactory",
      "outputs": [
        {
          "internalType": "address",
          "name": "",
          "type": "address"
        }
      ],
      "stateMutability": "view",
      "type": "function"
    },
    {
      "inputs": [],
      "name": "defaultExchangeConnector",
      "outputs": [
        {
          "internalType": "address",
          "name": "",
          "type": "address"
        }
      ],
      "stateMutability": "view",
      "type": "function"
    },
    {
      "inputs": [],
      "name": "fixPaybackDeadline",
      "outputs": [],
      "stateMutability": "nonpayable",
      "type": "function"
    },
    {
      "inputs": [
        {
          "internalType": "address",
          "name": "_user",
          "type": "address"
        },
        {
          "internalType": "uint256",
          "name": "_index",
          "type": "uint256"
        }
      ],
      "name": "getLockedCollateralPoolTokenAmount",
      "outputs": [
        {
          "internalType": "uint256",
          "name": "",
          "type": "uint256"
        }
      ],
      "stateMutability": "view",
      "type": "function"
    },
    {
      "inputs": [
        {
          "internalType": "address",
          "name": "_user",
          "type": "address"
        },
        {
          "internalType": "uint256",
          "name": "_index",
          "type": "uint256"
        }
      ],
      "name": "getUserRequestDeadline",
      "outputs": [
        {
          "internalType": "uint256",
          "name": "",
          "type": "uint256"
        }
      ],
      "stateMutability": "view",
      "type": "function"
    },
    {
      "inputs": [
        {
          "internalType": "address",
          "name": "_user",
          "type": "address"
        }
      ],
      "name": "getUserRequestsLength",
      "outputs": [
        {
          "internalType": "uint256",
          "name": "",
          "type": "uint256"
        }
      ],
      "stateMutability": "view",
      "type": "function"
    },
    {
      "inputs": [
        {
          "internalType": "address",
          "name": "_exchangeConnector",
          "type": "address"
        },
        {
          "internalType": "address",
          "name": "_receiver",
          "type": "address"
        },
        {
          "internalType": "uint256",
          "name": "_loanAmount",
          "type": "uint256"
        },
        {
          "internalType": "uint256",
          "name": "_amountOut",
          "type": "uint256"
        },
        {
          "internalType": "address[]",
          "name": "_path",
          "type": "address[]"
        },
        {
          "internalType": "uint256",
          "name": "_deadline",
          "type": "uint256"
        },
        {
          "internalType": "address",
          "name": "_collateralToken",
          "type": "address"
        },
        {
          "internalType": "bool",
          "name": "_isFixedToken",
          "type": "bool"
        }
      ],
      "name": "instantCCExchange",
      "outputs": [
        {
          "internalType": "uint256[]",
          "name": "_amounts",
          "type": "uint256[]"
        }
      ],
      "stateMutability": "nonpayable",
      "type": "function"
    },
    {
      "inputs": [
        {
          "internalType": "address",
          "name": "_receiver",
          "type": "address"
        },
        {
          "internalType": "uint256",
          "name": "_loanAmount",
          "type": "uint256"
        },
        {
          "internalType": "uint256",
          "name": "_deadline",
          "type": "uint256"
        },
        {
          "internalType": "address",
          "name": "_collateralToken",
          "type": "address"
        }
      ],
      "name": "instantCCTransfer",
      "outputs": [
        {
          "internalType": "bool",
          "name": "",
          "type": "bool"
        }
      ],
      "stateMutability": "nonpayable",
      "type": "function"
    },
    {
      "inputs": [
        {
          "internalType": "address",
          "name": "",
          "type": "address"
        }
      ],
      "name": "instantRequestCounter",
      "outputs": [
        {
          "internalType": "uint256",
          "name": "",
          "type": "uint256"
        }
      ],
      "stateMutability": "view",
      "type": "function"
    },
    {
      "inputs": [
        {
          "internalType": "address",
          "name": "",
          "type": "address"
        },
        {
          "internalType": "uint256",
          "name": "",
          "type": "uint256"
        }
      ],
      "name": "instantRequests",
      "outputs": [
        {
          "internalType": "address",
          "name": "user",
          "type": "address"
        },
        {
          "internalType": "address",
          "name": "collateralPool",
          "type": "address"
        },
        {
          "internalType": "address",
          "name": "collateralToken",
          "type": "address"
        },
        {
          "internalType": "uint256",
          "name": "paybackAmount",
          "type": "uint256"
        },
        {
          "internalType": "uint256",
          "name": "lockedCollateralPoolTokenAmount",
          "type": "uint256"
        },
        {
          "internalType": "uint256",
          "name": "deadline",
          "type": "uint256"
        },
        {
          "internalType": "uint256",
          "name": "requestCounterOfUser",
          "type": "uint256"
        }
      ],
      "stateMutability": "view",
      "type": "function"
    },
    {
      "inputs": [],
      "name": "maxPriceDifferencePercent",
      "outputs": [
        {
          "internalType": "uint256",
          "name": "",
          "type": "uint256"
        }
      ],
      "stateMutability": "view",
      "type": "function"
    },
    {
      "inputs": [],
      "name": "owner",
      "outputs": [
        {
          "internalType": "address",
          "name": "",
          "type": "address"
        }
      ],
      "stateMutability": "view",
      "type": "function"
    },
    {
      "inputs": [],
      "name": "pause",
      "outputs": [],
      "stateMutability": "nonpayable",
      "type": "function"
    },
    {
      "inputs": [],
      "name": "paused",
      "outputs": [
        {
          "internalType": "bool",
          "name": "",
          "type": "bool"
        }
      ],
      "stateMutability": "view",
      "type": "function"
    },
    {
      "inputs": [
        {
          "internalType": "address",
          "name": "_user",
          "type": "address"
        },
        {
          "internalType": "uint256",
          "name": "_teleBTCAmount",
          "type": "uint256"
        }
      ],
      "name": "payBackLoan",
      "outputs": [
        {
          "internalType": "bool",
          "name": "",
          "type": "bool"
        }
      ],
      "stateMutability": "nonpayable",
      "type": "function"
    },
    {
      "inputs": [],
      "name": "paybackDeadline",
      "outputs": [
        {
          "internalType": "uint256",
          "name": "",
          "type": "uint256"
        }
      ],
      "stateMutability": "view",
      "type": "function"
    },
    {
      "inputs": [],
      "name": "priceOracle",
      "outputs": [
        {
          "internalType": "address",
          "name": "",
          "type": "address"
        }
      ],
      "stateMutability": "view",
      "type": "function"
    },
    {
      "inputs": [],
      "name": "relay",
      "outputs": [
        {
          "internalType": "address",
          "name": "",
          "type": "address"
        }
      ],
      "stateMutability": "view",
      "type": "function"
    },
    {
      "inputs": [],
      "name": "renounceOwnership",
      "outputs": [],
      "stateMutability": "nonpayable",
      "type": "function"
    },
    {
      "inputs": [
        {
          "internalType": "address",
          "name": "_collateralPoolFactory",
          "type": "address"
        }
      ],
      "name": "setCollateralPoolFactory",
      "outputs": [],
      "stateMutability": "nonpayable",
      "type": "function"
    },
    {
      "inputs": [
        {
          "internalType": "address",
          "name": "_defaultExchangeConnector",
          "type": "address"
        }
      ],
      "name": "setDefaultExchangeConnector",
      "outputs": [],
      "stateMutability": "nonpayable",
      "type": "function"
    },
    {
      "inputs": [
        {
          "internalType": "uint256",
          "name": "_maxPriceDifferencePercent",
          "type": "uint256"
        }
      ],
      "name": "setMaxPriceDifferencePercent",
      "outputs": [],
      "stateMutability": "nonpayable",
      "type": "function"
    },
    {
      "inputs": [
        {
          "internalType": "uint256",
          "name": "_paybackDeadline",
          "type": "uint256"
        }
      ],
      "name": "setPaybackDeadline",
      "outputs": [],
      "stateMutability": "nonpayable",
      "type": "function"
    },
    {
      "inputs": [
        {
          "internalType": "address",
          "name": "_priceOracle",
          "type": "address"
        }
      ],
      "name": "setPriceOracle",
      "outputs": [],
      "stateMutability": "nonpayable",
      "type": "function"
    },
    {
      "inputs": [
        {
          "internalType": "address",
          "name": "_relay",
          "type": "address"
        }
      ],
      "name": "setRelay",
      "outputs": [],
      "stateMutability": "nonpayable",
      "type": "function"
    },
    {
      "inputs": [
        {
          "internalType": "uint256",
          "name": "_slasherPercentageReward",
          "type": "uint256"
        }
      ],
      "name": "setSlasherPercentageReward",
      "outputs": [],
      "stateMutability": "nonpayable",
      "type": "function"
    },
    {
      "inputs": [
        {
          "internalType": "address",
          "name": "_teleBTC",
          "type": "address"
        }
      ],
      "name": "setTeleBTC",
      "outputs": [],
      "stateMutability": "nonpayable",
      "type": "function"
    },
    {
      "inputs": [
        {
          "internalType": "address",
          "name": "_teleBTCInstantPool",
          "type": "address"
        }
      ],
      "name": "setTeleBTCInstantPool",
      "outputs": [],
      "stateMutability": "nonpayable",
      "type": "function"
    },
    {
      "inputs": [
        {
          "internalType": "address",
          "name": "_treasuaryAddress",
          "type": "address"
        }
      ],
      "name": "setTreasuaryAddress",
      "outputs": [],
      "stateMutability": "nonpayable",
      "type": "function"
    },
    {
      "inputs": [
        {
          "internalType": "address",
          "name": "_user",
          "type": "address"
        },
        {
          "internalType": "uint256",
          "name": "_requestIndex",
          "type": "uint256"
        }
      ],
      "name": "slashUser",
      "outputs": [
        {
          "internalType": "bool",
          "name": "",
          "type": "bool"
        }
      ],
      "stateMutability": "nonpayable",
      "type": "function"
    },
    {
      "inputs": [],
      "name": "slasherPercentageReward",
      "outputs": [
        {
          "internalType": "uint256",
          "name": "",
          "type": "uint256"
        }
      ],
      "stateMutability": "view",
      "type": "function"
    },
    {
      "inputs": [],
      "name": "teleBTC",
      "outputs": [
        {
          "internalType": "address",
          "name": "",
          "type": "address"
        }
      ],
      "stateMutability": "view",
      "type": "function"
    },
    {
      "inputs": [],
      "name": "teleBTCInstantPool",
      "outputs": [
        {
          "internalType": "address",
          "name": "",
          "type": "address"
        }
      ],
      "stateMutability": "view",
      "type": "function"
    },
    {
      "inputs": [
        {
          "internalType": "address",
          "name": "newOwner",
          "type": "address"
        }
      ],
      "name": "transferOwnership",
      "outputs": [],
      "stateMutability": "nonpayable",
      "type": "function"
    },
    {
      "inputs": [],
      "name": "treasuaryAddress",
      "outputs": [
        {
          "internalType": "address",
          "name": "",
          "type": "address"
        }
      ],
      "stateMutability": "view",
      "type": "function"
    },
    {
      "inputs": [],
      "name": "unpause",
      "outputs": [],
      "stateMutability": "nonpayable",
      "type": "function"
    },
    {
      "stateMutability": "payable",
      "type": "receive"
    }
  ],
  "transactionHash": "0x787a32714a304de2fe8b9923a385ad0e064ddbb0244826e42c23023cf1f9a9b1",
  "args": [
    "0x515D720B9D219f1931205D5B8D842bE1Fe2FeBDE",
    "0xc7a7C6AB475138565FE0D2476EE4616862Bf2467",
    "0x96b76ab42289688b68882cdccd071b2c39b0165e",
    "0x5ceC6212E67A23c77B3FE0607077fA4EBb0E2dA0",
    500,
    12,
    "0x0C28968d8A3Af022F47D493402D35Cb42EFF0597",
    500,
    "0x5364E3557572bd5D5903C0e9C21BE359F2Eac1dA"
  ],
  "numDeployments": 1,
  "solcInputHash": "07f5874b6e85d3b13dfc72f329a7ef51",
  "bytecode": "0x60806040523480156200001157600080fd5b50604051620050943803806200509483398101604081905262000034916200076d565b6200003f33620000bf565b600180556002805460ff1916905562000058896200010f565b6200006388620001c5565b6200006e8762000277565b620000798662000329565b6200008485620003db565b6200008f8462000487565b6200009a83620005ab565b620000a5826200065d565b620000b0816200069e565b50505050505050505062000825565b600080546001600160a01b038381166001600160a01b0319831681178455604051919092169283917f8be0079c531659141344cd1fd0a4f28419497f9722a3daafe3b4186f6b6457e09190a35050565b806001600160a01b0381166200015b5760405162461bcd60e51b815260206004820152601b60248201526000805160206200507483398151915260448201526064015b60405180910390fd5b600954604080516001600160a01b03928316815291841660208301527f36a4c08a38b736dcecb6c328dba61238529620e83ccb23db2cc43cd34ec26096910160405180910390a150600980546001600160a01b0319166001600160a01b0392909216919091179055565b806001600160a01b0381166200020d5760405162461bcd60e51b815260206004820152601b602482015260008051602062005074833981519152604482015260640162000152565b600b54604080516001600160a01b03928316815291841660208301527f4c28a3f61a715259c4dc930c23e7423b8fa52e13232c061a6e488729c66184f4910160405180910390a150600b80546001600160a01b0319166001600160a01b0392909216919091179055565b806001600160a01b038116620002bf5760405162461bcd60e51b815260206004820152601b602482015260008051602062005074833981519152604482015260640162000152565b600c54604080516001600160a01b03928316815291841660208301527fd52b2b9b7e9ee655fcb95d2e5b9e0c9f69e7ef2b8e9d2d0ea78402d576d22e22910160405180910390a150600c80546001600160a01b0319166001600160a01b0392909216919091179055565b806001600160a01b038116620003715760405162461bcd60e51b815260206004820152601b602482015260008051602062005074833981519152604482015260640162000152565b600d54604080516001600160a01b03928316815291841660208301527fd51c31ccb4333b99667a51924b3f89f75c155d6187aff592fa8ef986a20ad09d910160405180910390a150600d80546001600160a01b0319166001600160a01b0392909216919091179055565b612710811115620004465760405162461bcd60e51b815260206004820152602e60248201527f496e7374616e74526f757465723a2077726f6e6720736c61736865722070657260448201526d18d95b9d1859d9481c995dd85c9960921b606482015260840162000152565b60055460408051918252602082018390527fbafa1687bdcc9d362e353e72d948d31c10ccb6cc807954aeb60b22c3d9c1f7fc910160405180910390a1600555565b600b5460408051630a072bc560e41b815290516000926001600160a01b03169163a072bc50916004808301926020929190829003018186803b158015620004cd57600080fd5b505afa158015620004e2573d6000803e3d6000fd5b505050506040513d601f19601f820116820180604052508101906200050891906200080c565b9050808211620005695760405162461bcd60e51b815260206004820152602560248201527f496e7374616e74526f757465723a2077726f6e67207061796261636b20646561604482015264646c696e6560d81b606482015260840162000152565b60065460408051918252602082018490527f8961dc7f3b9bf9cae4b1bb7adf97b539964e3b1ce06bb594e07eb749abccd154910160405180910390a150600655565b806001600160a01b038116620005f35760405162461bcd60e51b815260206004820152601b602482015260008051602062005074833981519152604482015260640162000152565b600e54604080516001600160a01b03928316815291841660208301527f6f7d06859da91e8b95419b65f1ad86a2bdf0bab9da3901262f9589238fb6bef9910160405180910390a150600e80546001600160a01b0319166001600160a01b0392909216919091179055565b60075460408051918252602082018390527fa9502d1c6a80fff555ed4c36e06560904db6a20f46584016871880899b90d81e910160405180910390a1600755565b806001600160a01b038116620006e65760405162461bcd60e51b815260206004820152601b602482015260008051602062005074833981519152604482015260640162000152565b600854604080516001600160a01b03928316815291841660208301527fe8208543ecfdd06a600179d039c5c8f0d8ae4823b4e5343162f091ad22672aed910160405180910390a150600880546001600160a01b0319166001600160a01b0392909216919091179055565b80516001600160a01b03811681146200076857600080fd5b919050565b60008060008060008060008060006101208a8c0312156200078c578485fd5b620007978a62000750565b9850620007a760208b0162000750565b9750620007b760408b0162000750565b9650620007c760608b0162000750565b955060808a0151945060a08a01519350620007e560c08b0162000750565b925060e08a01519150620007fd6101008b0162000750565b90509295985092959850929598565b6000602082840312156200081e578081fd5b5051919050565b61483f80620008356000396000f3fe6080604052600436106102135760003560e01c8063763360db11610118578063a36be9a1116100a0578063c805f68b1161006f578063c805f68b14610644578063d7aa5e7a14610664578063db1cb55814610684578063f2fde38b146106a4578063fbe2a7d9146106c45761021a565b8063a36be9a1146105d9578063a8463b5f146105ef578063b2dd6ba314610604578063b59589d1146106245761021a565b80638d3d78cd116100e75780638d3d78cd146104ff5780638da5cb5b1461051f5780639441f9ec1461053d57806397091b89146105535780639dec3525146105b95761021a565b8063763360db1461048a57806378b58675146104aa5780637f0f1817146104ca5780638456cb59146104ea5761021a565b80634d61878e1161019b578063697380b21161016a578063697380b2146103db5780636b7b3719146103fb5780636dd3d589146104285780636f6ef7c914610448578063715018a6146104755761021a565b80634d61878e14610357578063530e784f146103775780635c975abb1461039757806369539c70146103bb5761021a565b80633f4ba83a116101e25780633f4ba83a146102cc578063419cba7f146102e157806346e897fd146102f75780634782bc36146103175780634cf46825146103375761021a565b8063059d02381461021f5780631c9d583c146102415780632630c12f14610261578063387bb22d1461029e5761021a565b3661021a57005b600080fd5b34801561022b57600080fd5b5061023f61023a3660046140cc565b6106e4565b005b34801561024d57600080fd5b5061023f61025c3660046140cc565b610723565b34801561026d57600080fd5b50600c54610281906001600160a01b031681565b6040516001600160a01b0390911681526020015b60405180910390f35b3480156102aa57600080fd5b506102be6102b93660046140cc565b610756565b604051908152602001610295565b3480156102d857600080fd5b5061023f610775565b3480156102ed57600080fd5b506102be60055481565b34801561030357600080fd5b50600a54610281906001600160a01b031681565b34801561032357600080fd5b5061023f61033236600461436d565b6107a9565b34801561034357600080fd5b5061023f61035236600461436d565b6107dc565b34801561036357600080fd5b506102be610372366004614209565b61080f565b34801561038357600080fd5b5061023f6103923660046140cc565b6108c8565b3480156103a357600080fd5b5060025460ff165b6040519015158152602001610295565b3480156103c757600080fd5b506102be6103d6366004614209565b6108fb565b3480156103e757600080fd5b506103ab6103f6366004614234565b6109b4565b34801561040757600080fd5b506102be6104163660046140cc565b60046020526000908152604090205481565b34801561043457600080fd5b5061023f6104433660046140cc565b610d6f565b34801561045457600080fd5b50610468610463366004614104565b610da2565b6040516102959190614472565b34801561048157600080fd5b5061023f611332565b34801561049657600080fd5b50600d54610281906001600160a01b031681565b3480156104b657600080fd5b506103ab6104c5366004614209565b61135c565b3480156104d657600080fd5b5061023f6104e53660046140cc565b6122eb565b3480156104f657600080fd5b5061023f61231e565b34801561050b57600080fd5b50600954610281906001600160a01b031681565b34801561052b57600080fd5b506000546001600160a01b0316610281565b34801561054957600080fd5b506102be60075481565b34801561055f57600080fd5b5061057361056e366004614209565b612350565b604080516001600160a01b039889168152968816602088015294909616938501939093526060840191909152608083015260a082015260c081019190915260e001610295565b3480156105c557600080fd5b5061023f6105d436600461436d565b6123b9565b3480156105e557600080fd5b506102be60065481565b3480156105fb57600080fd5b5061023f6123ec565b34801561061057600080fd5b50600854610281906001600160a01b031681565b34801561063057600080fd5b50600b54610281906001600160a01b031681565b34801561065057600080fd5b5061023f61065f3660046140cc565b61251d565b34801561067057600080fd5b50600e54610281906001600160a01b031681565b34801561069057600080fd5b506103ab61069f366004614209565b612550565b3480156106b057600080fd5b5061023f6106bf3660046140cc565b612bab565b3480156106d057600080fd5b5061023f6106df3660046140cc565b612c43565b6000546001600160a01b031633146107175760405162461bcd60e51b815260040161070e9061458c565b60405180910390fd5b61072081612c76565b50565b6000546001600160a01b0316331461074d5760405162461bcd60e51b815260040161070e9061458c565b61072081612d07565b6001600160a01b0381166000908152600360205260409020545b919050565b6000546001600160a01b0316331461079f5760405162461bcd60e51b815260040161070e9061458c565b6107a7612d98565b565b6000546001600160a01b031633146107d35760405162461bcd60e51b815260040161070e9061458c565b61072081612e2b565b6000546001600160a01b031633146108065760405162461bcd60e51b815260040161070e9061458c565b61072081612ed5565b6001600160a01b03821660009081526003602052604081205482106108765760405162461bcd60e51b815260206004820152601a60248201527f496e7374616e74526f757465723a2077726f6e6720696e646578000000000000604482015260640161070e565b6001600160a01b03831660009081526003602052604090208054839081106108ae57634e487b7160e01b600052603260045260246000fd5b906000526020600020906007020160050154905092915050565b6000546001600160a01b031633146108f25760405162461bcd60e51b815260040161070e9061458c565b61072081612ff3565b6001600160a01b03821660009081526003602052604081205482106109625760405162461bcd60e51b815260206004820152601a60248201527f496e7374616e74526f757465723a2077726f6e6720696e646578000000000000604482015260640161070e565b6001600160a01b038316600090815260036020526040902080548390811061099a57634e487b7160e01b600052603260045260246000fd5b906000526020600020906007020160040154905092915050565b6000600260015414156109d95760405162461bcd60e51b815260040161070e906145c1565b6002600155846001600160a01b038116610a055760405162461bcd60e51b815260040161070e906144e9565b826001600160a01b038116610a2c5760405162461bcd60e51b815260040161070e906144e9565b60025460ff1615610a4f5760405162461bcd60e51b815260040161070e90614520565b42851015610a6f5760405162461bcd60e51b815260040161070e9061454a565b600a54604051633f3b917d60e21b8152600481018890526000916001600160a01b03169063fcee45f49060240160206040518083038186803b158015610ab457600080fd5b505afa158015610ac8573d6000803e3d6000fd5b505050506040513d601f19601f82011682018060405250810190610aec9190614385565b9050610b0233610afc838a614695565b87613084565b600a546040516350e28ac360e11b81526001600160a01b038a81166004830152602482018a90529091169063a1c5158690604401602060405180830381600087803b158015610b5057600080fd5b505af1158015610b64573d6000803e3d6000fd5b505050506040513d601f19601f82011682018060405250810190610b88919061427d565b5033600090815260036020526040902080546001600160a01b0387169190610bb29060019061472b565b81548110610bd057634e487b7160e01b600052603260045260246000fd5b906000526020600020906007020160050154610be93390565b6001600160a01b03167f78f6eb344326b271069e0b49a8b066463a9801e7056092522e83ef7b947f0c968b8b8660036000336001600160a01b03166001600160a01b03168152602001908152602001600020600160036000610c483390565b6001600160a01b03168152602081019190915260400160002054610c6c919061472b565b81548110610c8a57634e487b7160e01b600052603260045260246000fd5b90600052602060002090600702016004015460036000610ca73390565b6001600160a01b03166001600160a01b03168152602001908152602001600020600160036000610cd43390565b6001600160a01b03168152602081019190915260400160002054610cf8919061472b565b81548110610d1657634e487b7160e01b600052603260045260246000fd5b600091825260209182902060066007909202010154604080516001600160a01b039097168752918601949094528401919091526060830152608082015260a00160405180910390a4505060018080559695505050505050565b6000546001600160a01b03163314610d995760405162461bcd60e51b815260040161070e9061458c565b610720816137ba565b606060026001541415610dc75760405162461bcd60e51b815260040161070e906145c1565b6002600155886001600160a01b038116610df35760405162461bcd60e51b815260040161070e906144e9565b60025460ff1615610e165760405162461bcd60e51b815260040161070e90614520565b42851015610e365760405162461bcd60e51b815260040161070e9061454a565b60095486516001600160a01b03909116908790600090610e6657634e487b7160e01b600052603260045260246000fd5b60200260200101516001600160a01b0316148015610e85575060018651115b610ed15760405162461bcd60e51b815260206004820152601e60248201527f496e7374616e74526f757465723a207061746820697320696e76616c69640000604482015260640161070e565b600a54604051633f3b917d60e21b8152600481018a90526000916001600160a01b03169063fcee45f49060240160206040518083038186803b158015610f1657600080fd5b505afa158015610f2a573d6000803e3d6000fd5b505050506040513d601f19601f82011682018060405250810190610f4e9190614385565b9050610f5e33610afc838c614695565b600a546040516350e28ac360e11b8152306004820152602481018b90526001600160a01b039091169063a1c5158690604401602060405180830381600087803b158015610faa57600080fd5b505af1158015610fbe573d6000803e3d6000fd5b505050506040513d601f19601f82011682018060405250810190610fe2919061427d565b5060095460405163095ea7b360e01b81526001600160a01b038d81166004830152602482018c90529091169063095ea7b390604401602060405180830381600087803b15801561103157600080fd5b505af1158015611045573d6000803e3d6000fd5b505050506040513d601f19601f82011682018060405250810190611069919061427d565b5060008b6001600160a01b031663b0bbcd888b8b8b8f8c8b6040518763ffffffff1660e01b81526004016110a2969594939291906145f8565b600060405180830381600087803b1580156110bc57600080fd5b505af11580156110d0573d6000803e3d6000fd5b505050506040513d6000823e601f3d908101601f191682016040526110f89190810190614299565b945090506001811515146111615760405162461bcd60e51b815260206004820152602a60248201527f496e7374616e74526f757465723a2065786368616e676520776173206e6f74206044820152691cdd58d8d95cdcd99d5b60b21b606482015260840161070e565b33600090815260036020526040902080546001600160a01b038816919061118a9060019061472b565b815481106111a857634e487b7160e01b600052603260045260246000fd5b9060005260206000209060070201600501546111c13390565b6001600160a01b03167f420fb2c476199fbcc4a0ce247fea400eef537161a974799739298de5e80e33a98e8e878f8f8d60036000336001600160a01b03166001600160a01b031681526020019081526020016000206001600360006112233390565b6001600160a01b03168152602081019190915260400160002054611247919061472b565b8154811061126557634e487b7160e01b600052603260045260246000fd5b906000526020600020906007020160040154600360006112823390565b6001600160a01b03166001600160a01b031681526020019081526020016000206001600360006112af3390565b6001600160a01b031681526020810191909152604001600020546112d3919061472b565b815481106112f157634e487b7160e01b600052603260045260246000fd5b90600052602060002090600702016006015460405161131798979695949392919061441d565b60405180910390a45050600180555098975050505050505050565b6000546001600160a01b031633146107a75760405162461bcd60e51b815260040161070e9061458c565b6000600260015414156113815760405162461bcd60e51b815260040161070e906145c1565b6002600155826001600160a01b0381166113ad5760405162461bcd60e51b815260040161070e906144e9565b6001600160a01b03841660009081526003602052604090205483106114285760405162461bcd60e51b815260206004820152602b60248201527f496e7374616e74526f757465723a207265717565737420696e64657820646f6560448201526a1cc81b9bdd08195e1a5cdd60aa1b606482015260840161070e565b600b60009054906101000a90046001600160a01b03166001600160a01b0316632f796d906040518163ffffffff1660e01b815260040160206040518083038186803b15801561147657600080fd5b505afa15801561148a573d6000803e3d6000fd5b505050506040513d601f19601f820116820180604052508101906114ae9190614385565b6001600160a01b03851660009081526003602052604090208054859081106114e657634e487b7160e01b600052603260045260246000fd5b906000526020600020906007020160050154106115585760405162461bcd60e51b815260206004820152602a60248201527f496e7374616e74526f757465723a20646561646c696e6520686173206e6f74206044820152691c185cdcd959081e595d60b21b606482015260840161070e565b6001600160a01b038416600090815260036020526040812080548590811061159057634e487b7160e01b600052603260045260246000fd5b600091825260208083206040805160e081018252600794850290920180546001600160a01b03908116845260018201548116948401949094526002810154909316908201526003820154606082015260048201546080820152600582015460a082015260069091015460c08201529054909250612710906116119082614695565b836060015161162091906146cd565b61162a91906146ad565b600e5460408481015160095491516322620c1d60e21b8152600481018590526001600160a01b039182166024820152918116604483015292935060009290911690638988307490606401604080518083038186803b15801561168b57600080fd5b505afa15801561169f573d6000803e3d6000fd5b505050506040513d601f19601f820116820180604052508101906116c39190614340565b9150508061174c5760405162461bcd60e51b815260206004820152604a60248201527f496e7374616e74526f757465723a206c697175696469747920706f6f6c20646f60448201527f65736e2774206578697374206f72206c6971756964697479206973206e6f74206064820152691cdd59999a58da595b9d60b21b608482015260a40161070e565b600c546009546040805163313ce56760e01b815290516000936001600160a01b03908116936316fac92a938893919092169163313ce567916004808301926020929190829003018186803b1580156117a357600080fd5b505afa1580156117b7573d6000803e3d6000fd5b505050506040513d601f19601f820116820180604052508101906117db919061439d565b87604001516001600160a01b031663313ce5676040518163ffffffff1660e01b815260040160206040518083038186803b15801561181857600080fd5b505afa15801561182c573d6000803e3d6000fd5b505050506040513d601f19601f82011682018060405250810190611850919061439d565b60095460408a810151905160e087901b6001600160e01b0319168152600481019590955260ff93841660248601529290911660448401526001600160a01b03908116606484015216608482015260a40160206040518083038186803b1580156118b857600080fd5b505afa1580156118cc573d6000803e3d6000fd5b505050506040513d601f19601f820116820180604052508101906118f09190614385565b905060006119186119008461384b565b6119098461384b565b61191391906146ec565b6138b9565b90506127106007548461192b91906146cd565b61193591906146ad565b8111156119a05760405162461bcd60e51b815260206004820152603360248201527f496e7374616e74526f757465723a2062696720676170206265747765656e206f6044820152727261636c6520616e6420414d4d20707269636560681b606482015260840161070e565b8183106119b357846060015193506119d1565b828286606001516119c491906146cd565b6119ce91906146ad565b93505b6020850151608086015160405163392f2ddd60e01b815260048101919091526000916001600160a01b03169063392f2ddd9060240160206040518083038186803b158015611a1e57600080fd5b505afa158015611a32573d6000803e3d6000fd5b505050506040513d601f19601f82011682018060405250810190611a569190614385565b6040805160028082526060820183529293506000929091602083019080368337019050509050866040015181600081518110611aa257634e487b7160e01b600052603260045260246000fd5b6001600160a01b039283166020918202929092010152600954825191169082906001908110611ae157634e487b7160e01b600052603260045260246000fd5b60200260200101906001600160a01b031690816001600160a01b03168152505086602001516001600160a01b0316633237c15888608001516040518263ffffffff1660e01b8152600401611b3791815260200190565b602060405180830381600087803b158015611b5157600080fd5b505af1158015611b65573d6000803e3d6000fd5b505050506040513d601f19601f82011682018060405250810190611b89919061427d565b506060858310611fd657604088810151600e54915163095ea7b360e01b81526001600160a01b0392831660048201526024810189905291169063095ea7b390604401602060405180830381600087803b158015611be557600080fd5b505af1158015611bf9573d6000803e3d6000fd5b505050506040513d601f19601f82011682018060405250810190611c1d919061427d565b50600e546001600160a01b031663b0bbcd8887898530611c3e426001614695565b60006040518763ffffffff1660e01b8152600401611c61969594939291906145f8565b600060405180830381600087803b158015611c7b57600080fd5b505af1158015611c8f573d6000803e3d6000fd5b505050506040513d6000823e601f3d908101601f19168201604052611cb79190810190614299565b600a5460608b0151600954929450611cdf93506001600160a01b0392831692909116906138d2565b8760600151871115611d1e576008546060890151611d1e916001600160a01b031690611d0b908a61472b565b6009546001600160a01b031691906138d2565b600061271060055483600081518110611d4757634e487b7160e01b600052603260045260246000fd5b602002602001015186611d5a919061472b565b611d6491906146cd565b611d6e91906146ad565b9050611d893360408b01516001600160a01b031690836138d2565b88604001516001600160a01b031663095ea7b38a602001518385600081518110611dc357634e487b7160e01b600052603260045260246000fd5b602002602001015188611dd6919061472b565b611de0919061472b565b6040516001600160e01b031960e085901b1681526001600160a01b0390921660048301526024820152604401602060405180830381600087803b158015611e2657600080fd5b505af1158015611e3a573d6000803e3d6000fd5b505050506040513d601f19601f82011682018060405250810190611e5e919061427d565b5088602001516001600160a01b0316636d75b9ee8e8385600081518110611e9557634e487b7160e01b600052603260045260246000fd5b602002602001015188611ea8919061472b565b611eb2919061472b565b6040516001600160e01b031960e085901b1681526001600160a01b0390921660048301526024820152604401602060405180830381600087803b158015611ef857600080fd5b505af1158015611f0c573d6000803e3d6000fd5b505050506040513d601f19601f82011682018060405250810190611f30919061427d565b50336001600160a01b031689604001516001600160a01b03168e6001600160a01b03167fc2baf6a73c7688a95aaa152e46e1683e51426f3e2dd2badc3d0c8d7b52e297b88486600081518110611f9657634e487b7160e01b600052603260045260246000fd5b6020026020010151611fa89190614695565b60c08e015160408051928352602083018f90528201879052606082015260800160405180910390a4506122cc565b604088810151600e54915163095ea7b360e01b81526001600160a01b0392831660048201526024810186905291169063095ea7b390604401602060405180830381600087803b15801561202857600080fd5b505af115801561203c573d6000803e3d6000fd5b505050506040513d601f19601f82011682018060405250810190612060919061427d565b50600e546001600160a01b031663b0bbcd888460008530612082426001614695565b60016040518763ffffffff1660e01b81526004016120a5969594939291906145f8565b600060405180830381600087803b1580156120bf57600080fd5b505af11580156120d3573d6000803e3d6000fd5b505050506040513d6000823e601f3d908101601f191682016040526120fb9190810190614299565b90508091505087606001518160018351612115919061472b565b8151811061213357634e487b7160e01b600052603260045260246000fd5b602002602001015111156121c057600a546060890151600954612164926001600160a01b03918216929116906138d2565b600854606089015182516121bb926001600160a01b03169190849061218b9060019061472b565b815181106121a957634e487b7160e01b600052603260045260246000fd5b6020026020010151611d0b919061472b565b61221d565b600a54815161221d916001600160a01b03169083906121e19060019061472b565b815181106121ff57634e487b7160e01b600052603260045260246000fd5b60209081029190910101516009546001600160a01b031691906138d2565b336001600160a01b031688604001516001600160a01b03168d6001600160a01b03167fc2baf6a73c7688a95aaa152e46e1683e51426f3e2dd2badc3d0c8d7b52e297b8868560018751612270919061472b565b8151811061228e57634e487b7160e01b600052603260045260246000fd5b602002602001015160008e60c001516040516122c3949392919093845260208401929092526040830152606082015260800190565b60405180910390a45b6122d68c8c61393a565b505060018080559a9950505050505050505050565b6000546001600160a01b031633146123155760405162461bcd60e51b815260040161070e9061458c565b61072081613b90565b6000546001600160a01b031633146123485760405162461bcd60e51b815260040161070e9061458c565b6107a7613c21565b6003602052816000526040600020818154811061236c57600080fd5b600091825260209091206007909102018054600182015460028301546003840154600485015460058601546006909601546001600160a01b03958616985093851696509190931693909187565b6000546001600160a01b031633146123e35760405162461bcd60e51b815260040161070e9061458c565b61072081613c79565b600b5460408051630a072bc560e41b815290516000926001600160a01b03169163a072bc50916004808301926020929190829003018186803b15801561243157600080fd5b505afa158015612445573d6000803e3d6000fd5b505050506040513d601f19601f820116820180604052508101906124699190614385565b90506006548111156124f65760405162461bcd60e51b815260206004820152604a60248201527f496e7374616e74526f757465723a2066696e616c697a6174696f6e207061726160448201527f6d65746572206973206e6f742067726561746572207468616e207061796261636064820152696b20646561646c696e6560b01b608482015260a40161070e565b60006125038260026146cd565b61250e906001614695565b905061251981612ed5565b5050565b6000546001600160a01b031633146125475760405162461bcd60e51b815260040161070e9061458c565b61072081613cba565b6000600260015414156125755760405162461bcd60e51b815260040161070e906145c1565b6002600155826001600160a01b0381166125a15760405162461bcd60e51b815260040161070e906144e9565b600b54604080516302f796d960e41b8152905185926000926001600160a01b0390911691632f796d9091600480820192602092909190829003018186803b1580156125eb57600080fd5b505afa1580156125ff573d6000803e3d6000fd5b505050506040513d601f19601f820116820180604052508101906126239190614385565b9050600060015b6001600160a01b0388166000908152600360205260409020548111612a5b576001600160a01b038816600090815260036020526040902061266c60018361472b565b8154811061268a57634e487b7160e01b600052603260045260246000fd5b90600052602060002090600702016003015484101580156126fe57506001600160a01b038816600090815260036020526040902083906126cb60018461472b565b815481106126e957634e487b7160e01b600052603260045260246000fd5b90600052602060002090600702016005015410155b15612a3f576001600160a01b038816600090815260036020526040902061272660018361472b565b8154811061274457634e487b7160e01b600052603260045260246000fd5b90600052602060002090600702016003015484612761919061472b565b6001600160a01b038916600090815260036020526040902090945061278760018361472b565b815481106127a557634e487b7160e01b600052603260045260246000fd5b906000526020600020906007020160030154826127c29190614695565b6001600160a01b03891660009081526003602052604090209092506128869089906127ee60018561472b565b8154811061280c57634e487b7160e01b600052603260045260246000fd5b60009182526020808320600460079093020191909101546001600160a01b038d1683526003909152604090912061284460018661472b565b8154811061286257634e487b7160e01b600052603260045260246000fd5b60009182526020909120600160079092020101546001600160a01b031691906138d2565b6001600160a01b03881660009081526003602052604090206128a960018361472b565b815481106128c757634e487b7160e01b600052603260045260246000fd5b60009182526020808320600260079093020191909101546001600160a01b038b8116808552600390935260409093209216917f10230d50e08046aa8fd499b9535a95c9b8d13f9a644a03087f010c0bc3e0deb49061292660018661472b565b8154811061294457634e487b7160e01b600052603260045260246000fd5b6000918252602080832060036007909302018201546001600160a01b038f168452919052604090912061297860018761472b565b8154811061299657634e487b7160e01b600052603260045260246000fd5b60009182526020808320600460079093020191909101546001600160a01b038f168352600390915260409091206129ce60018861472b565b815481106129ec57634e487b7160e01b600052603260045260246000fd5b600091825260209182902060066007909202010154604080519485529184019290925282015260600160405180910390a3612a3188612a2c60018461472b565b61393a565b80612a3b8161476e565b9150505b83612a4957612a5b565b80612a5381614785565b91505061262a565b506009546001600160a01b03166323b872dd33600a5460405160e084901b6001600160e01b03191681526001600160a01b0392831660048201529116602482015260448101849052606401602060405180830381600087803b158015612ac057600080fd5b505af1158015612ad4573d6000803e3d6000fd5b505050506040513d601f19601f82011682018060405250810190612af8919061427d565b508215612b9b576009546001600160a01b03166323b872dd336040516001600160e01b031960e084901b1681526001600160a01b039182166004820152908a16602482015260448101869052606401602060405180830381600087803b158015612b6157600080fd5b505af1158015612b75573d6000803e3d6000fd5b505050506040513d601f19601f82011682018060405250810190612b99919061427d565b505b5050600180805595945050505050565b6000546001600160a01b03163314612bd55760405162461bcd60e51b815260040161070e9061458c565b6001600160a01b038116612c3a5760405162461bcd60e51b815260206004820152602660248201527f4f776e61626c653a206e6577206f776e657220697320746865207a65726f206160448201526564647265737360d01b606482015260840161070e565b61072081613d4b565b6000546001600160a01b03163314612c6d5760405162461bcd60e51b815260040161070e9061458c565b61072081613d9b565b806001600160a01b038116612c9d5760405162461bcd60e51b815260040161070e906144e9565b600a54604080516001600160a01b03928316815291841660208301527f4501c7a19a4c866a4da8d06cf169cf17b87b88dc6c051dbab96d998dbbb133ef910160405180910390a150600a80546001600160a01b0319166001600160a01b0392909216919091179055565b806001600160a01b038116612d2e5760405162461bcd60e51b815260040161070e906144e9565b600e54604080516001600160a01b03928316815291841660208301527f6f7d06859da91e8b95419b65f1ad86a2bdf0bab9da3901262f9589238fb6bef9910160405180910390a150600e80546001600160a01b0319166001600160a01b0392909216919091179055565b60025460ff16612de15760405162461bcd60e51b815260206004820152601460248201527314185d5cd8589b194e881b9bdd081c185d5cd95960621b604482015260640161070e565b6002805460ff191690557f5db9ee0a495bf2e6ff9c91a7834c1ba4fdd244a5e8aa4e537bd38aeae4b073aa335b6040516001600160a01b03909116815260200160405180910390a1565b612710811115612e945760405162461bcd60e51b815260206004820152602e60248201527f496e7374616e74526f757465723a2077726f6e6720736c61736865722070657260448201526d18d95b9d1859d9481c995dd85c9960921b606482015260840161070e565b60055460408051918252602082018390527fbafa1687bdcc9d362e353e72d948d31c10ccb6cc807954aeb60b22c3d9c1f7fc910160405180910390a1600555565b600b5460408051630a072bc560e41b815290516000926001600160a01b03169163a072bc50916004808301926020929190829003018186803b158015612f1a57600080fd5b505afa158015612f2e573d6000803e3d6000fd5b505050506040513d601f19601f82011682018060405250810190612f529190614385565b9050808211612fb15760405162461bcd60e51b815260206004820152602560248201527f496e7374616e74526f757465723a2077726f6e67207061796261636b20646561604482015264646c696e6560d81b606482015260840161070e565b60065460408051918252602082018490527f8961dc7f3b9bf9cae4b1bb7adf97b539964e3b1ce06bb594e07eb749abccd154910160405180910390a150600655565b806001600160a01b03811661301a5760405162461bcd60e51b815260040161070e906144e9565b600c54604080516001600160a01b03928316815291841660208301527fd52b2b9b7e9ee655fcb95d2e5b9e0c9f69e7ef2b8e9d2d0ea78402d576d22e22910160405180910390a150600c80546001600160a01b0319166001600160a01b0392909216919091179055565b806001600160a01b0381166130ab5760405162461bcd60e51b815260040161070e906144e9565b600d546040516303b8879560e21b81526001600160a01b03848116600483015290911690630ee21e549060240160206040518083038186803b1580156130f057600080fd5b505afa158015613104573d6000803e3d6000fd5b505050506040513d601f19601f82011682018060405250810190613128919061427d565b61318e5760405162461bcd60e51b815260206004820152603160248201527f496e7374616e74526f757465723a20636f6c6c61746572616c20746f6b656e206044820152706973206e6f742061636365707461626c6560781b606482015260840161070e565b6001600160a01b038416600090815260036020526040902054600a116132055760405162461bcd60e51b815260206004820152602660248201527f496e7374616e74526f757465723a2072656163686564206d6178206c6f616e20604482015265373ab6b132b960d11b606482015260840161070e565b600d54604051636e2f809f60e11b81526001600160a01b038481166004830152600092169063dc5f013e9060240160206040518083038186803b15801561324b57600080fd5b505afa15801561325f573d6000803e3d6000fd5b505050506040513d601f19601f8201168201806040525081019061328391906140e8565b90506000816001600160a01b031663dcaf9c446040518163ffffffff1660e01b815260040160206040518083038186803b1580156132c057600080fd5b505afa1580156132d4573d6000803e3d6000fd5b505050506040513d601f19601f820116820180604052508101906132f89190614385565b600c546009546040805163313ce56760e01b815290519394506000936001600160a01b03938416936316fac92a938b9391169163313ce56791600480820192602092909190829003018186803b15801561335157600080fd5b505afa158015613365573d6000803e3d6000fd5b505050506040513d601f19601f82011682018060405250810190613389919061439d565b886001600160a01b031663313ce5676040518163ffffffff1660e01b815260040160206040518083038186803b1580156133c257600080fd5b505afa1580156133d6573d6000803e3d6000fd5b505050506040513d601f19601f820116820180604052508101906133fa919061439d565b60095460405160e086901b6001600160e01b0319168152600481019490945260ff9283166024850152911660448301526001600160a01b0390811660648301528816608482015260a40160206040518083038186803b15801561345c57600080fd5b505afa158015613470573d6000803e3d6000fd5b505050506040513d601f19601f820116820180604052508101906134949190614385565b905060006127106134a584846146cd565b6134af91906146ad565b6040516309fad23760e11b8152600481018290529091506000906001600160a01b038616906313f5a46e9060240160206040518083038186803b1580156134f557600080fd5b505afa158015613509573d6000803e3d6000fd5b505050506040513d601f19601f8201168201806040525081019061352d9190614385565b90506135446001600160a01b0386168a3084613e2c565b61359f6040518060e0016040528060006001600160a01b0316815260200160006001600160a01b0316815260200160006001600160a01b03168152602001600081526020016000815260200160008152602001600081525090565b6001600160a01b03808b168252606082018a905260808201839052868116602080840191909152898216604080850191909152600654600b5482516302f796d960e41b8152925191941692632f796d909260048082019391829003018186803b15801561360b57600080fd5b505afa15801561361f573d6000803e3d6000fd5b505050506040513d601f19601f820116820180604052508101906136439190614385565b61364d9190614695565b60a08201526001600160a01b038a16600081815260046020818152604083205460c08601819052939092529052613685906001614695565b600460008c6001600160a01b03166001600160a01b0316815260200190815260200160002081905550600360008b6001600160a01b03166001600160a01b0316815260200190815260200160002081908060018154018082558091505060019003906000526020600020906007020160009091909190915060008201518160000160006101000a8154816001600160a01b0302191690836001600160a01b0316021790555060208201518160010160006101000a8154816001600160a01b0302191690836001600160a01b0316021790555060408201518160020160006101000a8154816001600160a01b0302191690836001600160a01b03160217905550606082015181600301556080820151816004015560a0820151816005015560c08201518160060155505050505050505050505050565b806001600160a01b0381166137e15760405162461bcd60e51b815260040161070e906144e9565b600d54604080516001600160a01b03928316815291841660208301527fd51c31ccb4333b99667a51924b3f89f75c155d6187aff592fa8ef986a20ad09d910160405180910390a150600d80546001600160a01b0319166001600160a01b0392909216919091179055565b60006001600160ff1b038211156138b55760405162461bcd60e51b815260206004820152602860248201527f53616665436173743a2076616c756520646f65736e27742066697420696e2061604482015267371034b73a191a9b60c11b606482015260840161070e565b5090565b6000808212156138b5576138cc826147a0565b92915050565b6040516001600160a01b03831660248201526044810182905261393590849063a9059cbb60e01b906064015b60408051601f198184030181529190526020810180516001600160e01b03166001600160e01b031990931692909217909152613e6a565b505050565b6001600160a01b03821660009081526003602052604090205481106139ad5760405162461bcd60e51b8152602060048201526024808201527f496e7374616e74526f757465723a20696e646578206973206f7574206f6620626044820152631bdd5b9960e21b606482015260840161070e565b805b6001600160a01b0383166000908152600360205260409020546139d49060019061472b565b811015613b01576001600160a01b03831660009081526003602052604090206139fe826001614695565b81548110613a1c57634e487b7160e01b600052603260045260246000fd5b906000526020600020906007020160036000856001600160a01b03166001600160a01b031681526020019081526020016000208281548110613a6e57634e487b7160e01b600052603260045260246000fd5b60009182526020909120825460079092020180546001600160a01b039283166001600160a01b0319918216178255600180850154908301805491851691831691909117905560028085015490830180549190941691161790915560038083015490820155600480830154908201556005808301549082015560069182015491015580613af981614785565b9150506139af565b506001600160a01b0382166000908152600360205260409020805480613b3757634e487b7160e01b600052603160045260246000fd5b60008281526020812060076000199093019283020180546001600160a01b031990811682556001820180548216905560028201805490911690556003810182905560048101829055600581018290556006015590555050565b806001600160a01b038116613bb75760405162461bcd60e51b815260040161070e906144e9565b600954604080516001600160a01b03928316815291841660208301527f36a4c08a38b736dcecb6c328dba61238529620e83ccb23db2cc43cd34ec26096910160405180910390a150600980546001600160a01b0319166001600160a01b0392909216919091179055565b60025460ff1615613c445760405162461bcd60e51b815260040161070e90614520565b6002805460ff191660011790557f62e78cea01bee320cd4e420270b5ea74000d11b0c9f74754ebdbfc544b05a258612e0e3390565b60075460408051918252602082018390527fa9502d1c6a80fff555ed4c36e06560904db6a20f46584016871880899b90d81e910160405180910390a1600755565b806001600160a01b038116613ce15760405162461bcd60e51b815260040161070e906144e9565b600b54604080516001600160a01b03928316815291841660208301527f4c28a3f61a715259c4dc930c23e7423b8fa52e13232c061a6e488729c66184f4910160405180910390a150600b80546001600160a01b0319166001600160a01b0392909216919091179055565b600080546001600160a01b038381166001600160a01b0319831681178455604051919092169283917f8be0079c531659141344cd1fd0a4f28419497f9722a3daafe3b4186f6b6457e09190a35050565b806001600160a01b038116613dc25760405162461bcd60e51b815260040161070e906144e9565b600854604080516001600160a01b03928316815291841660208301527fe8208543ecfdd06a600179d039c5c8f0d8ae4823b4e5343162f091ad22672aed910160405180910390a150600880546001600160a01b0319166001600160a01b0392909216919091179055565b6040516001600160a01b0380851660248301528316604482015260648101829052613e649085906323b872dd60e01b906084016138fe565b50505050565b6000613ebf826040518060400160405280602081526020017f5361666545524332303a206c6f772d6c6576656c2063616c6c206661696c6564815250856001600160a01b0316613f3c9092919063ffffffff16565b8051909150156139355780806020019051810190613edd919061427d565b6139355760405162461bcd60e51b815260206004820152602a60248201527f5361666545524332303a204552433230206f7065726174696f6e20646964206e6044820152691bdd081cdd58d8d9595960b21b606482015260840161070e565b6060613f4b8484600085613f55565b90505b9392505050565b606082471015613fb65760405162461bcd60e51b815260206004820152602660248201527f416464726573733a20696e73756666696369656e742062616c616e636520666f6044820152651c8818d85b1b60d21b606482015260840161070e565b843b6140045760405162461bcd60e51b815260206004820152601d60248201527f416464726573733a2063616c6c20746f206e6f6e2d636f6e7472616374000000604482015260640161070e565b600080866001600160a01b031685876040516140209190614401565b60006040518083038185875af1925050503d806000811461405d576040519150601f19603f3d011682016040523d82523d6000602084013e614062565b606091505b509150915061407282828661407d565b979650505050505050565b6060831561408c575081613f4e565b82511561409c5782518084602001fd5b8160405162461bcd60e51b815260040161070e91906144b6565b8035610770816147e6565b8035610770816147fb565b6000602082840312156140dd578081fd5b8135613f4e816147e6565b6000602082840312156140f9578081fd5b8151613f4e816147e6565b600080600080600080600080610100898b031215614120578384fd5b883561412b816147e6565b975060208981013561413c816147e6565b975060408a0135965060608a0135955060808a013567ffffffffffffffff811115614165578586fd5b8a01601f81018c13614175578586fd5b803561418861418382614671565b614640565b8082825284820191508484018f8687860287010111156141a657898afd5b8994505b838510156141d15780356141bd816147e6565b8352600194909401939185019185016141aa565b50975050505060a08a013593506141ec905060c08a016140b6565b91506141fa60e08a016140c1565b90509295985092959890939650565b6000806040838503121561421b578182fd5b8235614226816147e6565b946020939093013593505050565b60008060008060808587031215614249578384fd5b8435614254816147e6565b935060208501359250604085013591506060850135614272816147e6565b939692955090935050565b60006020828403121561428e578081fd5b8151613f4e816147fb565b600080604083850312156142ab578182fd5b82516142b6816147fb565b8092505060208084015167ffffffffffffffff8111156142d4578283fd5b8401601f810186136142e4578283fd5b80516142f261418382614671565b81815283810190838501858402850186018a101561430e578687fd5b8694505b83851015614330578051835260019490940193918501918501614312565b5080955050505050509250929050565b60008060408385031215614352578182fd5b825161435d816147fb565b6020939093015192949293505050565b60006020828403121561437e578081fd5b5035919050565b600060208284031215614396578081fd5b5051919050565b6000602082840312156143ae578081fd5b815160ff81168114613f4e578182fd5b6000815180845260208085019450808401835b838110156143f65781516001600160a01b0316875295820195908201906001016143d1565b509495945050505050565b60008251614413818460208701614742565b9190910192915050565b600061010060018060a01b038b168352896020840152886040840152876060840152806080840152614451818401886143be565b95151560a0840152505060c081019290925260e09091015295945050505050565b6020808252825182820181905260009190848201906040850190845b818110156144aa5783518352928401929184019160010161448e565b50909695505050505050565b60006020825282518060208401526144d5816040850160208701614742565b601f01601f19169190910160400192915050565b6020808252601b908201527f496e7374616e74526f757465723a207a65726f20616464726573730000000000604082015260600190565b60208082526010908201526f14185d5cd8589b194e881c185d5cd95960821b604082015260600190565b60208082526022908201527f496e7374616e74526f757465723a20646561646c696e65206861732070617373604082015261195960f21b606082015260800190565b6020808252818101527f4f776e61626c653a2063616c6c6572206973206e6f7420746865206f776e6572604082015260600190565b6020808252601f908201527f5265656e7472616e637947756172643a207265656e7472616e742063616c6c00604082015260600190565b600087825286602083015260c0604083015261461760c08301876143be565b6001600160a01b03959095166060830152506080810192909252151560a0909101529392505050565b604051601f8201601f1916810167ffffffffffffffff81118282101715614669576146696147d0565b604052919050565b600067ffffffffffffffff82111561468b5761468b6147d0565b5060209081020190565b600082198211156146a8576146a86147ba565b500190565b6000826146c857634e487b7160e01b81526012600452602481fd5b500490565b60008160001904831182151516156146e7576146e76147ba565b500290565b60008083128015600160ff1b85018412161561470a5761470a6147ba565b6001600160ff1b0384018313811615614725576147256147ba565b50500390565b60008282101561473d5761473d6147ba565b500390565b60005b8381101561475d578181015183820152602001614745565b83811115613e645750506000910152565b60008161477d5761477d6147ba565b506000190190565b6000600019821415614799576147996147ba565b5060010190565b6000600160ff1b8214156147b6576147b66147ba565b0390565b634e487b7160e01b600052601160045260246000fd5b634e487b7160e01b600052604160045260246000fd5b6001600160a01b038116811461072057600080fd5b801515811461072057600080fdfea2646970667358221220d2fa2d96eae8bbe3a85d5ba98d997b016c76e0bb2ca42c6b935085a6939cf37e64736f6c63430008020033496e7374616e74526f757465723a207a65726f20616464726573730000000000",
  "devdoc": {
    "kind": "dev",
    "methods": {
      "constructor": {
        "details": "It manages instant pool contract to give loan to users",
        "params": {
          "_collateralPoolFactory": "Address of collateral pool factory contract",
          "_defaultExchangeConnector": "Exchange connector that is used for exchanging user's collateral to teleBTC (in the case of slashing)",
          "_maxPriceDifferencePercent": "Maximum acceptable price different between chainlink price oracle and dex price",
          "_paybackDeadline": "Deadline of paying back the borrowed tokens",
          "_priceOracle": "Address of price oracle contract",
          "_relay": "Address of relay contract",
          "_slasherPercentageReward": "Percentage of total collateral that goes to slasher",
          "_teleBTC": "Address of teleBTC contract",
          "_treasuaryAddress": "Treasury address to which the extra TeleBTCs will go "
        }
      },
      "getLockedCollateralPoolTokenAmount(address,uint256)": {
        "params": {
          "_index": "Index of the request in user's request list",
          "_user": "Address of the user"
        },
        "returns": {
          "_0": "Amount of locked collateral pool token (not collateral token)"
        }
      },
      "getUserRequestDeadline(address,uint256)": {
        "params": {
          "_index": "Index of the request in user's request list",
          "_user": "Address of the user"
        },
        "returns": {
          "_0": "Deadline of that request"
        }
      },
      "getUserRequestsLength(address)": {
        "params": {
          "_user": "Address of the user"
        },
        "returns": {
          "_0": "The total number of user's requests"
        }
      },
      "instantCCExchange(address,address,uint256,uint256,address[],uint256,address,bool)": {
        "details": "Locks the required collateral amount of the user. Only works when contract is not paused.",
        "params": {
          "_amountOut": "Amount of the output token",
          "_collateralToken": "Address of collateral token",
          "_deadline": "Deadline for getting the loan",
          "_exchangeConnector": "Address of exchange connector that user wants to exchange the borrowed teleBTC in it",
          "_isFixedToken": "Shows whether input or output is fixed in exchange",
          "_loanAmount": "Amount of the loan",
          "_path": "Path of exchanging tokens",
          "_receiver": "Address of the loan receiver"
        },
        "returns": {
          "_amounts": "         Amounts of tokens involved in the exchange"
        }
      },
      "instantCCTransfer(address,uint256,uint256,address)": {
        "details": "Transfers required collateral pool token of user to itself. Only works when contract is not paused.",
        "params": {
          "_collateralToken": "Address of the collateral token",
          "_deadline": "Deadline for getting the loan",
          "_loanAmount": "Amount of the loan",
          "_receiver": "Address of the loan receiver"
        },
        "returns": {
          "_0": "True if getting loan was successful"
        }
      },
      "owner()": {
        "details": "Returns the address of the current owner."
      },
      "paused()": {
        "details": "Returns true if the contract is paused, and false otherwise."
      },
      "payBackLoan(address,uint256)": {
        "details": "Caller should give allowance for teleBTC to instant router",
        "params": {
          "_teleBTCAmount": "Amount of available teleBTC to pay back loans",
          "_user": "Address of user who wants to pay back loans"
        },
        "returns": {
          "_0": "True if paying back is successful"
        }
      },
      "renounceOwnership()": {
        "details": "Leaves the contract without owner. It will not be possible to call `onlyOwner` functions anymore. Can only be called by the current owner. NOTE: Renouncing ownership will leave the contract without an owner, thereby removing any functionality that is only available to the owner."
      },
      "setCollateralPoolFactory(address)": {
        "details": "Only owner can call this",
        "params": {
          "_collateralPoolFactory": "The new collateral pool factory address"
        }
      },
      "setDefaultExchangeConnector(address)": {
        "details": "Only owner can call this",
        "params": {
          "_defaultExchangeConnector": "The new defaultExchangeConnector address"
        }
      },
      "setMaxPriceDifferencePercent(uint256)": {
        "details": "Only owner can call this",
        "params": {
          "_maxPriceDifferencePercent": "The new maxPriceDifferencePercent "
        }
      },
      "setPaybackDeadline(uint256)": {
        "details": "Only owner can call this. It should be greater than relay finalization parameter so user has enough time to payback loan",
        "params": {
          "_paybackDeadline": "The new payback deadline"
        }
      },
      "setPriceOracle(address)": {
        "details": "Only owner can call this",
        "params": {
          "_priceOracle": "The new price oracle address"
        }
      },
      "setRelay(address)": {
        "details": "Only owner can call this",
        "params": {
          "_relay": "The new relay address"
        }
      },
      "setSlasherPercentageReward(uint256)": {
        "details": "Only owner can call this",
        "params": {
          "_slasherPercentageReward": "The new slasher reward"
        }
      },
      "setTeleBTC(address)": {
        "details": "Only owner can call this",
        "params": {
          "_teleBTC": "The new teleBTC address"
        }
      },
      "setTeleBTCInstantPool(address)": {
        "details": "Only owner can call this",
        "params": {
          "_teleBTCInstantPool": "The new teleBTC instant pool address"
        }
      },
      "setTreasuaryAddress(address)": {
        "details": "Only owner can call this",
        "params": {
          "_treasuaryAddress": "The new treasury address"
        }
      },
      "slashUser(address,uint256)": {
        "details": "Buys teleBTC using the collateral and sends it to instant pool",
        "params": {
          "_requestIndex": "Index of the request that have not been paid back before deadline",
          "_user": "Address of the slashed user"
        },
        "returns": {
          "_0": "True if slashing is successful"
        }
      },
      "transferOwnership(address)": {
        "details": "Transfers ownership of the contract to a new account (`newOwner`). Can only be called by the current owner."
      }
    },
    "version": 1
  },
  "userdoc": {
    "events": {
      "InstantExchange(address,address,uint256,uint256,uint256,address[],bool,uint256,address,uint256,uint256)": {
        "notice": "Emits when a user gets loan for exchange"
      },
      "InstantTransfer(address,address,uint256,uint256,uint256,address,uint256,uint256)": {
        "notice": "Emits when a user gets loan for transfer"
      },
      "NewCollateralPoolFactory(address,address)": {
        "notice": "Emits when changes made to collateral pool factory address"
      },
      "NewDefaultExchangeConnector(address,address)": {
        "notice": "Emits when changes made to default exchange connector address"
      },
      "NewMaxPriceDifferencePercent(uint256,uint256)": {
        "notice": "Emits when changes made to max price difference percent"
      },
      "NewPaybackDeadline(uint256,uint256)": {
        "notice": "Emits when changes made to payback deadline"
      },
      "NewPriceOracle(address,address)": {
        "notice": "Emits when changes made to price oracle address"
      },
      "NewRelay(address,address)": {
        "notice": "Emits when changes made to relay address"
      },
      "NewSlasherPercentageReward(uint256,uint256)": {
        "notice": "Emits when changes made to slasher percentage reward"
      },
      "NewTeleBTC(address,address)": {
        "notice": "Emits when changes made to TeleBTC address"
      },
      "NewTeleBTCInstantPool(address,address)": {
        "notice": "Emits when changes made to TeleBTC instant pool address"
      },
      "NewTreasuaryAddress(address,address)": {
        "notice": "Emits when changes made to treasuray overhead percnet"
      },
      "PaybackLoan(address,uint256,address,uint256,uint256)": {
        "notice": "Emits when a loan gets paid back"
      },
      "SlashUser(address,address,uint256,uint256,address,uint256,uint256)": {
        "notice": "Emits when a user gets slashed"
      }
    },
    "kind": "user",
    "methods": {
      "constructor": {
        "notice": "This contract handles instant transfer and instant exchange requests"
      },
      "fixPaybackDeadline()": {
        "notice": "Fixing payback deadline after changing finalization parameter"
      },
      "getLockedCollateralPoolTokenAmount(address,uint256)": {
        "notice": "Gives the locked collateral pool token corresponding to a request"
      },
      "getUserRequestDeadline(address,uint256)": {
        "notice": "Gives deadline of a specefic request"
      },
      "getUserRequestsLength(address)": {
        "notice": "Gives the total number of user's unpaid loans"
      },
      "instantCCExchange(address,address,uint256,uint256,address[],uint256,address,bool)": {
        "notice": "Exchanges the loan amount (in teleBTC) for the user"
      },
      "instantCCTransfer(address,uint256,uint256,address)": {
        "notice": "Transfers the loan amount (in teleBTC) to the user"
      },
      "pause()": {
        "notice": "Pause the contract"
      },
      "payBackLoan(address,uint256)": {
        "notice": "Settles loans of the user"
      },
      "setCollateralPoolFactory(address)": {
        "notice": "Setter for collateral pool factory"
      },
      "setDefaultExchangeConnector(address)": {
        "notice": "Setter for default exchange connector"
      },
      "setMaxPriceDifferencePercent(uint256)": {
        "notice": "Setter for max price differnce in percent "
      },
      "setPaybackDeadline(uint256)": {
        "notice": "Setter for payback deadline"
      },
      "setPriceOracle(address)": {
        "notice": "Setter for price oracle"
      },
      "setRelay(address)": {
        "notice": "Setter for relay"
      },
      "setSlasherPercentageReward(uint256)": {
        "notice": "Setter for slasher percentage reward"
      },
      "setTeleBTC(address)": {
        "notice": "Setter for teleBTC"
      },
      "setTeleBTCInstantPool(address)": {
        "notice": "Setter for teleBTC instant pool"
      },
      "setTreasuaryAddress(address)": {
        "notice": "Setter for treasury address"
      },
      "slashUser(address,uint256)": {
        "notice": "Slashes collateral of user who did not pay back loan before its deadline"
      },
      "unpause()": {
        "notice": "Unpause the contract"
      }
    },
    "version": 1
  },
  "storageLayout": {
    "storage": [
      {
        "astId": 807,
        "contract": "contracts/routers/InstantRouter.sol:InstantRouter",
        "label": "_owner",
        "offset": 0,
        "slot": "0",
        "type": "t_address"
      },
      {
        "astId": 1634,
        "contract": "contracts/routers/InstantRouter.sol:InstantRouter",
        "label": "_status",
        "offset": 0,
        "slot": "1",
        "type": "t_uint256"
      },
      {
        "astId": 1549,
        "contract": "contracts/routers/InstantRouter.sol:InstantRouter",
        "label": "_paused",
        "offset": 0,
        "slot": "2",
        "type": "t_bool"
      },
      {
        "astId": 21767,
        "contract": "contracts/routers/InstantRouter.sol:InstantRouter",
        "label": "instantRequests",
        "offset": 0,
        "slot": "3",
        "type": "t_mapping(t_address,t_array(t_struct(instantRequest)24265_storage)dyn_storage)"
      },
      {
        "astId": 21771,
        "contract": "contracts/routers/InstantRouter.sol:InstantRouter",
        "label": "instantRequestCounter",
        "offset": 0,
        "slot": "4",
        "type": "t_mapping(t_address,t_uint256)"
      },
      {
        "astId": 21774,
        "contract": "contracts/routers/InstantRouter.sol:InstantRouter",
        "label": "slasherPercentageReward",
        "offset": 0,
        "slot": "5",
        "type": "t_uint256"
      },
      {
        "astId": 21777,
        "contract": "contracts/routers/InstantRouter.sol:InstantRouter",
        "label": "paybackDeadline",
        "offset": 0,
        "slot": "6",
        "type": "t_uint256"
      },
      {
        "astId": 21780,
        "contract": "contracts/routers/InstantRouter.sol:InstantRouter",
        "label": "maxPriceDifferencePercent",
        "offset": 0,
        "slot": "7",
        "type": "t_uint256"
      },
      {
        "astId": 21783,
        "contract": "contracts/routers/InstantRouter.sol:InstantRouter",
        "label": "treasuaryAddress",
        "offset": 0,
        "slot": "8",
        "type": "t_address"
      },
      {
        "astId": 21786,
        "contract": "contracts/routers/InstantRouter.sol:InstantRouter",
        "label": "teleBTC",
        "offset": 0,
        "slot": "9",
        "type": "t_address"
      },
      {
        "astId": 21789,
        "contract": "contracts/routers/InstantRouter.sol:InstantRouter",
        "label": "teleBTCInstantPool",
        "offset": 0,
        "slot": "10",
        "type": "t_address"
      },
      {
        "astId": 21792,
        "contract": "contracts/routers/InstantRouter.sol:InstantRouter",
        "label": "relay",
        "offset": 0,
        "slot": "11",
        "type": "t_address"
      },
      {
        "astId": 21795,
        "contract": "contracts/routers/InstantRouter.sol:InstantRouter",
        "label": "priceOracle",
        "offset": 0,
        "slot": "12",
        "type": "t_address"
      },
      {
        "astId": 21798,
        "contract": "contracts/routers/InstantRouter.sol:InstantRouter",
        "label": "collateralPoolFactory",
        "offset": 0,
        "slot": "13",
        "type": "t_address"
      },
      {
        "astId": 21801,
        "contract": "contracts/routers/InstantRouter.sol:InstantRouter",
        "label": "defaultExchangeConnector",
        "offset": 0,
        "slot": "14",
        "type": "t_address"
      }
    ],
    "types": {
      "t_address": {
        "encoding": "inplace",
        "label": "address",
        "numberOfBytes": "20"
      },
      "t_array(t_struct(instantRequest)24265_storage)dyn_storage": {
        "base": "t_struct(instantRequest)24265_storage",
        "encoding": "dynamic_array",
        "label": "struct IInstantRouter.instantRequest[]",
        "numberOfBytes": "32"
      },
      "t_bool": {
        "encoding": "inplace",
        "label": "bool",
        "numberOfBytes": "1"
      },
      "t_mapping(t_address,t_array(t_struct(instantRequest)24265_storage)dyn_storage)": {
        "encoding": "mapping",
        "key": "t_address",
        "label": "mapping(address => struct IInstantRouter.instantRequest[])",
        "numberOfBytes": "32",
        "value": "t_array(t_struct(instantRequest)24265_storage)dyn_storage"
      },
      "t_mapping(t_address,t_uint256)": {
        "encoding": "mapping",
        "key": "t_address",
        "label": "mapping(address => uint256)",
        "numberOfBytes": "32",
        "value": "t_uint256"
      },
      "t_struct(instantRequest)24265_storage": {
        "encoding": "inplace",
        "label": "struct IInstantRouter.instantRequest",
        "members": [
          {
            "astId": 24252,
            "contract": "contracts/routers/InstantRouter.sol:InstantRouter",
            "label": "user",
            "offset": 0,
            "slot": "0",
            "type": "t_address"
          },
          {
            "astId": 24254,
            "contract": "contracts/routers/InstantRouter.sol:InstantRouter",
            "label": "collateralPool",
            "offset": 0,
            "slot": "1",
            "type": "t_address"
          },
          {
            "astId": 24256,
            "contract": "contracts/routers/InstantRouter.sol:InstantRouter",
            "label": "collateralToken",
            "offset": 0,
            "slot": "2",
            "type": "t_address"
          },
          {
            "astId": 24258,
            "contract": "contracts/routers/InstantRouter.sol:InstantRouter",
            "label": "paybackAmount",
            "offset": 0,
            "slot": "3",
            "type": "t_uint256"
          },
          {
            "astId": 24260,
            "contract": "contracts/routers/InstantRouter.sol:InstantRouter",
            "label": "lockedCollateralPoolTokenAmount",
            "offset": 0,
            "slot": "4",
            "type": "t_uint256"
          },
          {
            "astId": 24262,
            "contract": "contracts/routers/InstantRouter.sol:InstantRouter",
            "label": "deadline",
            "offset": 0,
            "slot": "5",
            "type": "t_uint256"
          },
          {
            "astId": 24264,
            "contract": "contracts/routers/InstantRouter.sol:InstantRouter",
            "label": "requestCounterOfUser",
            "offset": 0,
            "slot": "6",
            "type": "t_uint256"
          }
        ],
        "numberOfBytes": "224"
      },
      "t_uint256": {
        "encoding": "inplace",
        "label": "uint256",
        "numberOfBytes": "32"
      }
    }
  }
}