{
  "address": "0xA6B132B8B162AE74E9876F30da2A6462149BF172",
  "abi": [
    {
      "inputs": [],
      "name": "ZeroAddress",
      "type": "error"
    },
    {
      "anonymous": false,
      "inputs": [
        {
          "indexed": false,
          "internalType": "address",
          "name": "oldAcross",
          "type": "address"
        },
        {
          "indexed": false,
          "internalType": "address",
          "name": "newAcross",
          "type": "address"
        }
      ],
      "name": "AcrossUpdated",
      "type": "event"
    },
    {
      "anonymous": false,
      "inputs": [
        {
          "indexed": false,
          "internalType": "address",
          "name": "oldBurnRouter",
          "type": "address"
        },
        {
          "indexed": false,
          "internalType": "address",
          "name": "newBurnRouter",
          "type": "address"
        }
      ],
      "name": "BurnRouterUpdated",
      "type": "event"
    },
    {
      "anonymous": false,
      "inputs": [
        {
          "indexed": false,
          "internalType": "address",
          "name": "oldEthConnector",
          "type": "address"
        },
        {
          "indexed": false,
          "internalType": "address",
          "name": "newEthConnector",
          "type": "address"
        }
      ],
      "name": "EthConnectorUpdated",
      "type": "event"
    },
    {
      "anonymous": false,
      "inputs": [
        {
          "indexed": false,
          "internalType": "uint256",
          "name": "uniqueCounter",
          "type": "uint256"
        },
        {
          "indexed": false,
          "internalType": "uint256",
          "name": "chainId",
          "type": "uint256"
        },
        {
          "indexed": false,
          "internalType": "address",
          "name": "exchangeConnector",
          "type": "address"
        },
        {
          "indexed": false,
          "internalType": "address",
          "name": "inputToken",
          "type": "address"
        },
        {
          "indexed": false,
          "internalType": "uint256",
          "name": "inputAmount",
          "type": "uint256"
        },
        {
          "indexed": true,
          "internalType": "address",
          "name": "userTargetAddress",
          "type": "address"
        },
        {
          "indexed": false,
          "internalType": "bytes",
          "name": "userScript",
          "type": "bytes"
        },
        {
          "indexed": false,
          "internalType": "enum ScriptTypes",
          "name": "scriptType",
          "type": "uint8"
        },
        {
          "indexed": false,
          "internalType": "address[]",
          "name": "path",
          "type": "address[]"
        },
        {
          "indexed": false,
          "internalType": "uint256",
          "name": "thirdPartyId",
          "type": "uint256"
        }
      ],
      "name": "FailedSwapAndUnwrap",
      "type": "event"
    },
    {
      "anonymous": false,
      "inputs": [
        {
          "indexed": false,
          "internalType": "uint256",
          "name": "chainId",
          "type": "uint256"
        },
        {
          "indexed": true,
          "internalType": "address",
          "name": "userTargetAddress",
          "type": "address"
        },
        {
          "indexed": false,
          "internalType": "uint256",
          "name": "thirdPartyId",
          "type": "uint256"
        },
        {
          "indexed": false,
          "internalType": "uint256",
          "name": "internalId",
          "type": "uint256"
        },
        {
          "indexed": false,
          "internalType": "uint256",
          "name": "appId",
          "type": "uint256"
        },
        {
          "indexed": false,
          "internalType": "uint256",
          "name": "amount",
          "type": "uint256"
        },
        {
          "indexed": false,
          "internalType": "uint256",
          "name": "inputAmount",
          "type": "uint256"
        },
        {
          "indexed": false,
          "internalType": "address[]",
          "name": "path",
          "type": "address[]"
        },
        {
          "indexed": false,
          "internalType": "bytes",
          "name": "userScript",
          "type": "bytes"
        },
        {
          "indexed": false,
          "internalType": "enum ScriptTypes",
          "name": "scriptType",
          "type": "uint8"
        }
      ],
      "name": "FailedSwapAndUnwrapRune",
      "type": "event"
    },
    {
      "anonymous": false,
      "inputs": [
        {
          "indexed": false,
          "internalType": "uint8",
          "name": "version",
          "type": "uint8"
        }
      ],
      "name": "Initialized",
      "type": "event"
    },
    {
      "anonymous": false,
      "inputs": [
        {
          "indexed": false,
          "internalType": "address",
          "name": "oldLockersProxy",
          "type": "address"
        },
        {
          "indexed": false,
          "internalType": "address",
          "name": "newLockersProxy",
          "type": "address"
        }
      ],
      "name": "LockersProxyUpdated",
      "type": "event"
    },
    {
      "anonymous": false,
      "inputs": [
        {
          "indexed": false,
          "internalType": "string",
          "name": "functionName",
          "type": "string"
        },
        {
          "indexed": false,
          "internalType": "uint256",
          "name": "uniqueCounter",
          "type": "uint256"
        },
        {
          "indexed": false,
          "internalType": "uint256",
          "name": "chainId",
          "type": "uint256"
        },
        {
          "indexed": false,
          "internalType": "bytes",
          "name": "data",
          "type": "bytes"
        }
      ],
      "name": "MsgReceived",
      "type": "event"
    },
    {
      "anonymous": false,
      "inputs": [
        {
          "indexed": false,
          "internalType": "uint256",
          "name": "uniqueCounter",
          "type": "uint256"
        },
        {
          "indexed": false,
          "internalType": "uint256",
          "name": "chainId",
          "type": "uint256"
        },
        {
          "indexed": false,
          "internalType": "address",
          "name": "exchangeConnector",
          "type": "address"
        },
        {
          "indexed": false,
          "internalType": "address",
          "name": "inputToken",
          "type": "address"
        },
        {
          "indexed": false,
          "internalType": "uint256",
          "name": "inputAmount",
          "type": "uint256"
        },
        {
          "indexed": true,
          "internalType": "address",
          "name": "userTargetAddress",
          "type": "address"
        },
        {
          "indexed": false,
          "internalType": "bytes",
          "name": "userScript",
          "type": "bytes"
        },
        {
          "indexed": false,
          "internalType": "enum ScriptTypes",
          "name": "scriptType",
          "type": "uint8"
        },
        {
          "indexed": false,
          "internalType": "address",
          "name": "lockerTargetAddress",
          "type": "address"
        },
        {
          "indexed": false,
          "internalType": "uint256",
          "name": "requestIdOfLocker",
          "type": "uint256"
        },
        {
          "indexed": false,
          "internalType": "address[]",
          "name": "path",
          "type": "address[]"
        },
        {
          "indexed": false,
          "internalType": "uint256",
          "name": "thirdPartyId",
          "type": "uint256"
        }
      ],
      "name": "NewSwapAndUnwrap",
      "type": "event"
    },
    {
      "anonymous": false,
      "inputs": [
        {
          "indexed": false,
          "internalType": "uint256",
          "name": "chainId",
          "type": "uint256"
        },
        {
          "indexed": true,
          "internalType": "address",
          "name": "userTargetAddress",
          "type": "address"
        },
        {
          "indexed": false,
          "internalType": "uint256",
          "name": "thirdPartyId",
          "type": "uint256"
        },
        {
          "indexed": false,
          "internalType": "uint256",
          "name": "internalId",
          "type": "uint256"
        },
        {
          "indexed": false,
          "internalType": "uint256",
          "name": "appId",
          "type": "uint256"
        },
        {
          "indexed": false,
          "internalType": "uint256",
          "name": "amount",
          "type": "uint256"
        },
        {
          "indexed": false,
          "internalType": "uint256",
          "name": "inputAmount",
          "type": "uint256"
        },
        {
          "indexed": false,
          "internalType": "address[]",
          "name": "path",
          "type": "address[]"
        },
        {
          "indexed": false,
          "internalType": "bytes",
          "name": "userScript",
          "type": "bytes"
        },
        {
          "indexed": false,
          "internalType": "enum ScriptTypes",
          "name": "scriptType",
          "type": "uint8"
        },
        {
          "indexed": false,
          "internalType": "uint256",
          "name": "requestIdOfLocker",
          "type": "uint256"
        }
      ],
      "name": "NewSwapAndUnwrapRune",
      "type": "event"
    },
    {
      "anonymous": false,
      "inputs": [
        {
          "indexed": true,
          "internalType": "address",
          "name": "previousOwner",
          "type": "address"
        },
        {
          "indexed": true,
          "internalType": "address",
          "name": "newOwner",
          "type": "address"
        }
      ],
      "name": "OwnershipTransferred",
      "type": "event"
    },
    {
      "anonymous": false,
      "inputs": [
        {
          "indexed": false,
          "internalType": "address",
          "name": "account",
          "type": "address"
        }
      ],
      "name": "Paused",
      "type": "event"
    },
    {
      "anonymous": false,
      "inputs": [
        {
          "indexed": false,
          "internalType": "uint256",
          "name": "uniqueCounter",
          "type": "uint256"
        },
        {
          "indexed": false,
          "internalType": "uint256",
          "name": "chainId",
          "type": "uint256"
        },
        {
          "indexed": false,
          "internalType": "address",
          "name": "exchangeConnector",
          "type": "address"
        },
        {
          "indexed": false,
          "internalType": "address",
          "name": "inputToken",
          "type": "address"
        },
        {
          "indexed": false,
          "internalType": "uint256",
          "name": "inputAmount",
          "type": "uint256"
        },
        {
          "indexed": true,
          "internalType": "address",
          "name": "userTargetAddress",
          "type": "address"
        },
        {
          "indexed": false,
          "internalType": "bytes",
          "name": "userScript",
          "type": "bytes"
        },
        {
          "indexed": false,
          "internalType": "enum ScriptTypes",
          "name": "scriptType",
          "type": "uint8"
        },
        {
          "indexed": false,
          "internalType": "address",
          "name": "lockerTargetAddress",
          "type": "address"
        },
        {
          "indexed": false,
          "internalType": "uint256",
          "name": "requestIdOfLocker",
          "type": "uint256"
        },
        {
          "indexed": false,
          "internalType": "address[]",
          "name": "path",
          "type": "address[]"
        },
        {
          "indexed": false,
          "internalType": "uint256",
          "name": "thirdPartyId",
          "type": "uint256"
        }
      ],
      "name": "RetriedSwapAndUnwrap",
      "type": "event"
    },
    {
      "anonymous": false,
      "inputs": [
        {
          "indexed": false,
          "internalType": "uint256",
          "name": "chainId",
          "type": "uint256"
        },
        {
          "indexed": true,
          "internalType": "address",
          "name": "userTargetAddress",
          "type": "address"
        },
        {
          "indexed": false,
          "internalType": "uint256",
          "name": "thirdPartyId",
          "type": "uint256"
        },
        {
          "indexed": false,
          "internalType": "uint256",
          "name": "internalId",
          "type": "uint256"
        },
        {
          "indexed": false,
          "internalType": "uint256",
          "name": "appId",
          "type": "uint256"
        },
        {
          "indexed": false,
          "internalType": "uint256",
          "name": "amount",
          "type": "uint256"
        },
        {
          "indexed": false,
          "internalType": "uint256",
          "name": "inputAmount",
          "type": "uint256"
        },
        {
          "indexed": false,
          "internalType": "address[]",
          "name": "path",
          "type": "address[]"
        },
        {
          "indexed": false,
          "internalType": "bytes",
          "name": "userScript",
          "type": "bytes"
        },
        {
          "indexed": false,
          "internalType": "enum ScriptTypes",
          "name": "scriptType",
          "type": "uint8"
        },
        {
          "indexed": false,
          "internalType": "uint256",
          "name": "requestIdOfLocker",
          "type": "uint256"
        }
      ],
      "name": "RetriedSwapAndUnwrapRune",
      "type": "event"
    },
    {
      "anonymous": false,
      "inputs": [
        {
          "indexed": false,
          "internalType": "address",
          "name": "account",
          "type": "address"
        }
      ],
      "name": "Unpaused",
      "type": "event"
    },
    {
      "anonymous": false,
      "inputs": [
        {
          "indexed": false,
          "internalType": "uint256",
          "name": "uniqueCounter",
          "type": "uint256"
        },
        {
          "indexed": false,
          "internalType": "uint256",
          "name": "chainId",
          "type": "uint256"
        },
        {
          "indexed": false,
          "internalType": "address",
          "name": "token",
          "type": "address"
        },
        {
          "indexed": false,
          "internalType": "uint256",
          "name": "amount",
          "type": "uint256"
        },
        {
          "indexed": false,
          "internalType": "int64",
          "name": "relayerFeePercentage",
          "type": "int64"
        },
        {
          "indexed": false,
          "internalType": "address",
          "name": "user",
          "type": "address"
        }
      ],
      "name": "WithdrawnFundsToSourceChain",
      "type": "event"
    },
    {
      "inputs": [],
      "name": "ETH_ADDR",
      "outputs": [
        {
          "internalType": "address",
          "name": "",
          "type": "address"
        }
      ],
      "stateMutability": "view",
      "type": "function"
    },
    {
      "inputs": [],
      "name": "across",
      "outputs": [
        {
          "internalType": "address",
          "name": "",
          "type": "address"
        }
      ],
      "stateMutability": "view",
      "type": "function"
    },
    {
      "inputs": [],
      "name": "burnRouterProxy",
      "outputs": [
        {
          "internalType": "address",
          "name": "",
          "type": "address"
        }
      ],
      "stateMutability": "view",
      "type": "function"
    },
    {
      "inputs": [
        {
          "internalType": "address",
          "name": "_token",
          "type": "address"
        },
        {
          "internalType": "address",
          "name": "_to",
          "type": "address"
        },
        {
          "internalType": "uint256",
          "name": "_amount",
          "type": "uint256"
        }
      ],
      "name": "emergencyWithdraw",
      "outputs": [],
      "stateMutability": "nonpayable",
      "type": "function"
    },
    {
      "inputs": [
        {
          "internalType": "address",
          "name": "",
          "type": "address"
        },
        {
          "internalType": "uint256",
          "name": "",
          "type": "uint256"
        },
        {
          "internalType": "address",
          "name": "",
          "type": "address"
        }
      ],
      "name": "failedReqs",
      "outputs": [
        {
          "internalType": "uint256",
          "name": "",
          "type": "uint256"
        }
      ],
      "stateMutability": "view",
      "type": "function"
    },
    {
      "inputs": [
        {
          "internalType": "address",
          "name": "_tokenSent",
          "type": "address"
        },
        {
          "internalType": "uint256",
          "name": "_amount",
          "type": "uint256"
        },
        {
          "internalType": "address",
          "name": "",
          "type": "address"
        },
        {
          "internalType": "bytes",
          "name": "_message",
          "type": "bytes"
        }
      ],
      "name": "handleV3AcrossMessage",
      "outputs": [],
      "stateMutability": "nonpayable",
      "type": "function"
    },
    {
      "inputs": [
        {
          "internalType": "address",
          "name": "_lockersProxy",
          "type": "address"
        },
        {
          "internalType": "address",
          "name": "_burnRouterProxy",
          "type": "address"
        },
        {
          "internalType": "address",
          "name": "_across",
          "type": "address"
        },
        {
          "internalType": "address",
          "name": "_runeRouterProxy",
          "type": "address"
        }
      ],
      "name": "initialize",
      "outputs": [],
      "stateMutability": "nonpayable",
      "type": "function"
    },
    {
      "inputs": [],
      "name": "lockersProxy",
      "outputs": [
        {
          "internalType": "address",
          "name": "",
          "type": "address"
        }
      ],
      "stateMutability": "view",
      "type": "function"
    },
    {
      "inputs": [
        {
          "internalType": "address",
          "name": "",
          "type": "address"
        },
        {
          "internalType": "uint256",
          "name": "",
          "type": "uint256"
        },
        {
          "internalType": "uint256",
          "name": "",
          "type": "uint256"
        },
        {
          "internalType": "address",
          "name": "",
          "type": "address"
        }
      ],
      "name": "newFailedReqs",
      "outputs": [
        {
          "internalType": "uint256",
          "name": "",
          "type": "uint256"
        }
      ],
      "stateMutability": "view",
      "type": "function"
    },
    {
      "inputs": [],
      "name": "owner",
      "outputs": [
        {
          "internalType": "address",
          "name": "",
          "type": "address"
        }
      ],
      "stateMutability": "view",
      "type": "function"
    },
    {
      "inputs": [],
      "name": "paused",
      "outputs": [
        {
          "internalType": "bool",
          "name": "",
          "type": "bool"
        }
      ],
      "stateMutability": "view",
      "type": "function"
    },
    {
      "inputs": [],
      "name": "renounceOwnership",
      "outputs": [],
      "stateMutability": "nonpayable",
      "type": "function"
    },
    {
      "inputs": [
        {
          "internalType": "bytes",
          "name": "_message",
          "type": "bytes"
        },
        {
          "internalType": "uint8",
          "name": "_v",
          "type": "uint8"
        },
        {
          "internalType": "bytes32",
          "name": "_r",
          "type": "bytes32"
        },
        {
          "internalType": "bytes32",
          "name": "_s",
          "type": "bytes32"
        }
      ],
      "name": "retrySwapAndUnwrap",
      "outputs": [],
      "stateMutability": "nonpayable",
      "type": "function"
    },
    {
      "inputs": [
        {
          "internalType": "bytes",
          "name": "_message",
          "type": "bytes"
        },
        {
          "internalType": "uint8",
          "name": "_v",
          "type": "uint8"
        },
        {
          "internalType": "bytes32",
          "name": "_r",
          "type": "bytes32"
        },
        {
          "internalType": "bytes32",
          "name": "_s",
          "type": "bytes32"
        }
      ],
      "name": "retrySwapAndUnwrapRune",
      "outputs": [],
      "stateMutability": "nonpayable",
      "type": "function"
    },
    {
      "inputs": [],
      "name": "runeRouterProxy",
      "outputs": [
        {
          "internalType": "address",
          "name": "",
          "type": "address"
        }
      ],
      "stateMutability": "view",
      "type": "function"
    },
    {
      "inputs": [
        {
          "internalType": "address",
          "name": "_across",
          "type": "address"
        }
      ],
      "name": "setAcross",
      "outputs": [],
      "stateMutability": "nonpayable",
      "type": "function"
    },
    {
      "inputs": [
        {
          "internalType": "address",
          "name": "_burnRouterProxy",
          "type": "address"
        }
      ],
      "name": "setBurnRouterProxy",
      "outputs": [],
      "stateMutability": "nonpayable",
      "type": "function"
    },
    {
      "inputs": [
        {
          "internalType": "address",
          "name": "_lockersProxy",
          "type": "address"
        }
      ],
      "name": "setLockersProxy",
      "outputs": [],
      "stateMutability": "nonpayable",
      "type": "function"
    },
    {
      "inputs": [
        {
          "internalType": "address",
          "name": "_runeRouterProxy",
          "type": "address"
        }
      ],
      "name": "setRuneRouterProxy",
      "outputs": [],
      "stateMutability": "nonpayable",
      "type": "function"
    },
    {
      "inputs": [
        {
          "internalType": "address",
          "name": "newOwner",
          "type": "address"
        }
      ],
      "name": "transferOwnership",
      "outputs": [],
      "stateMutability": "nonpayable",
      "type": "function"
    },
    {
      "inputs": [
        {
          "internalType": "bytes",
          "name": "_message",
          "type": "bytes"
        },
        {
          "internalType": "uint8",
          "name": "_v",
          "type": "uint8"
        },
        {
          "internalType": "bytes32",
          "name": "_r",
          "type": "bytes32"
        },
        {
          "internalType": "bytes32",
          "name": "_s",
          "type": "bytes32"
        }
      ],
      "name": "withdrawFundsToSourceChain",
      "outputs": [],
      "stateMutability": "nonpayable",
      "type": "function"
    },
    {
      "stateMutability": "payable",
      "type": "receive"
    }
  ],
  "transactionHash": "0x9fdc2ebf08df82b7edb95d13e48235d1b16a3b745ce0fc0f648a3bc9be23b404",
  "args": [],
  "numDeployments": 1,
  "solcInputHash": "9898c9f978e25ef421e6ffe4ab22f78b",
  "bytecode": "0x608060405234801561001057600080fd5b50613223806100206000396000f3fe6080604052600436106100fe5760003560e01c80630597865c1461010a5780631dbd94ff14610140578063292c1d9214610162578063296079f1146101825780633a5be8cb146101a25780633e938097146101c25780633f8c6ae0146101e25780634d6e8f9d1461020257806359841888146102225780635c975abb1461024257806361be10f214610265578063715018a6146102855780637753f47b1461029a5780638907eb5c146102c25780638da5cb5b1461030e578063a088bb2014610323578063baf7f91814610343578063cf2568541461038a578063e63ea408146103aa578063f2fde38b146103ca578063f8c8765e146103ea57600080fd5b3661010557005b600080fd5b34801561011657600080fd5b5060ce5461012a906001600160a01b031681565b6040516101379190612cdc565b60405180910390f35b34801561014c57600080fd5b5061016061015b36600461261c565b61040a565b005b34801561016e57600080fd5b5060cb5461012a906001600160a01b031681565b34801561018e57600080fd5b5060c95461012a906001600160a01b031681565b3480156101ae57600080fd5b506101606101bd366004612737565b61045d565b3480156101ce57600080fd5b506101606101dd3660046127f8565b6105bf565b3480156101ee57600080fd5b5060ca5461012a906001600160a01b031681565b34801561020e57600080fd5b5061016061021d36600461261c565b610713565b34801561022e57600080fd5b5061016061023d36600461261c565b610766565b34801561024e57600080fd5b5060975460ff166040519015158152602001610137565b34801561027157600080fd5b5061016061028036600461261c565b6107b9565b34801561029157600080fd5b5061016061080c565b3480156102a657600080fd5b5061012a73eeeeeeeeeeeeeeeeeeeeeeeeeeeeeeeeeeeeeeee81565b3480156102ce57600080fd5b506103006102dd3660046126f6565b60cc60209081526000938452604080852082529284528284209052825290205481565b604051908152602001610137565b34801561031a57600080fd5b5061012a610820565b34801561032f57600080fd5b5061016061033e3660046127f8565b61082f565b34801561034f57600080fd5b5061030061035e3660046127a0565b60cd60209081526000948552604080862082529385528385208152918452828420909152825290205481565b34801561039657600080fd5b506101606103a53660046127f8565b610c5a565b3480156103b657600080fd5b506101606103c53660046126b6565b6110f5565b3480156103d657600080fd5b506101606103e536600461261c565b6111f8565b3480156103f657600080fd5b5061016061040536600461265b565b611271565b6104126113e0565b806001600160a01b03811661043a5760405163d92e233d60e01b815260040160405180910390fd5b5060ce80546001600160a01b0319166001600160a01b0392909216919091179055565b61046561143f565b60cb546001600160a01b031633146104ce5760405162461bcd60e51b815260206004820152602160248201527f506f6c79676f6e436f6e6e6563746f724c6f6769633a206e6f74206163726f736044820152607360f81b60648201526084015b60405180910390fd5b6000806000838060200190518101906104e79190612859565b9250925092507fd8883c6af9aa96506569d2db74cafb52037a26374320a8aeaf9fd5cd7df3d228838383876040516105229493929190612e30565b60405180910390a1610559836040518060400160405280600d81526020016c073776170416e64556e7772617609c1b815250611499565b15610569576105698685896114f2565b61059c836040518060400160405280601181526020017073776170416e64556e7772617052756e6560781b815250611499565b156105ac576105ac8685896119eb565b5050506105b96001606555565b50505050565b6105c761143f565b60006105d585848487611e3c565b9050600080600080888060200190518101906105f19190612bea565b6001600160a01b03898116600090815260cd60209081526040808320888452825280832087845282528083209386168352929052908120805491905593975091955093509150806106955760405162461bcd60e51b815260206004820152602860248201527f506f6c79676f6e436f6e6e6563746f724c6f6769633a20616c7265616479207760448201526734ba34323930bbb760c11b60648201526084016104c5565b6106a28686858486611f6b565b60408051858152602081018790526001600160a01b038581168284015260608201849052600785900b6080830152881660a082015290517ff43f17a174cd55d7d75e934475f1cec7890c2bf3fabbf376de3868f0d8ce68979181900360c00190a15050505050506105b96001606555565b61071b6113e0565b806001600160a01b0381166107435760405163d92e233d60e01b815260040160405180910390fd5b5060ca80546001600160a01b0319166001600160a01b0392909216919091179055565b61076e6113e0565b806001600160a01b0381166107965760405163d92e233d60e01b815260040160405180910390fd5b5060c980546001600160a01b0319166001600160a01b0392909216919091179055565b6107c16113e0565b806001600160a01b0381166107e95760405163d92e233d60e01b815260040160405180910390fd5b5060cb80546001600160a01b0319166001600160a01b0392909216919091179055565b6108146113e0565b61081e600061206f565b565b6033546001600160a01b031690565b61083761143f565b600061084585848487611e3c565b90506000610852866120c1565b6001600160a01b038316600090815260cd60209081526040808320828501518452825280832084518452909152812060e0830151805193945091929091839182906108ad57634e487b7160e01b600052603260045260246000fd5b6020908102919091018101516001600160a01b039081168352828201939093526040918201600090812054938716815260cd825282812086830151825282528281208651825290915290812060e085015180519394509092829061092157634e487b7160e01b600052603260045260246000fd5b60200260200101516001600160a01b03166001600160a01b03168152602001908152602001600020600090556000811161096d5760405162461bcd60e51b81526004016104c590612e61565b8160e0015160008151811061099257634e487b7160e01b600052603260045260246000fd5b602090810291909101015160ce5460405163095ea7b360e01b81526001600160a01b039283169263095ea7b3926109d0929116908590600401612e04565b602060405180830381600087803b1580156109ea57600080fd5b505af11580156109fe573d6000803e3d6000fd5b505050506040513d601f19601f82011682018060405250810190610a2291906127de565b5060ce5460408051639aed427960e01b815290516000926001600160a01b031691639aed4279916004808301926020929190829003018186803b158015610a6857600080fd5b505afa158015610a7c573d6000803e3d6000fd5b505050506040513d601f19601f82011682018060405250810190610aa09190612b0d565b60ce546060850151608086015160c0870151610100880151805160209091015160a08a015160e08b015160405163e91ffefd60e01b81529899506001600160a01b039097169763e91ffefd978a97610b08979096909590949093909290918d91600401612fdc565b6000604051808303818588803b158015610b2157600080fd5b505af1158015610b35573d6000803e3d6000fd5b505050505082604001516001600160a01b03167f92560894e7925ca324b18a01bbe4bcc5ded859959687ab10489795f489cdcdeb8460200151856060015186608001518760a001518860c00151888a60e001518b6101000151600001518c610100015160200151600160ce60009054906101000a90046001600160a01b03166001600160a01b03166390665eca6040518163ffffffff1660e01b815260040160206040518083038186803b158015610bec57600080fd5b505afa158015610c00573d6000803e3d6000fd5b505050506040513d601f19601f82011682018060405250810190610c249190612b0d565b610c2e9190613173565b604051610c449a999897969594939291906130a9565b60405180910390a2505050506105b96001606555565b610c6261143f565b6000610c7085848487611e3c565b90506000806000806000806000806000808e806020019051810190610c959190612b25565b9950995099509950995099509950995099509950600060cd60008d6001600160a01b03166001600160a01b0316815260200190815260200160002060008c815260200190815260200160002060008b815260200190815260200160002060008a6001600160a01b03166001600160a01b0316815260200190815260200160002054905060cd60008d6001600160a01b03166001600160a01b0316815260200190815260200160002060008c815260200190815260200160002060008b815260200190815260200160002060008a6001600160a01b03166001600160a01b031681526020019081526020016000206000905560008111610da65760405162461bcd60e51b81526004016104c590612e61565b6040805160028082526060820183526000926020830190803683370190505090508181600081518110610de957634e487b7160e01b600052603260045260246000fd5b6020026020010181815250508781600181518110610e1757634e487b7160e01b600052603260045260246000fd5b60200260200101818152505083600081518110610e4457634e487b7160e01b600052603260045260246000fd5b602090810291909101015160ca5460405163095ea7b360e01b81526001600160a01b039283169263095ea7b392610e82929116908690600401612e04565b602060405180830381600087803b158015610e9c57600080fd5b505af1158015610eb0573d6000803e3d6000fd5b505050506040513d601f19601f82011682018060405250810190610ed491906127de565b5060ca546040516344dd6aa560e01b81526001600160a01b03909116906344dd6aa590610f16908c9085906001908a9042908f908f908f908e90600401612d61565b602060405180830381600087803b158015610f3057600080fd5b505af1158015610f44573d6000803e3d6000fd5b505050506040513d601f19601f82011682018060405250810190610f689190612b0d565b5060c95460405163626885b560e11b81526000916001600160a01b03169063c4d10b6a90610f9a908990600401612e1d565b60206040518083038186803b158015610fb257600080fd5b505afa158015610fc6573d6000803e3d6000fd5b505050506040513d601f19601f82011682018060405250810190610fea919061263f565b90508d6001600160a01b03167fc3fa5dbbc53aa478b310dddcc3bd2527072ac6794c00d92e4ad7201827297fc08d8f8d8f888e8e89600160ca60009054906101000a90046001600160a01b03166001600160a01b031663930a60e88d6040518263ffffffff1660e01b81526004016110629190612cdc565b60206040518083038186803b15801561107a57600080fd5b505afa15801561108e573d6000803e3d6000fd5b505050506040513d601f19601f820116820180604052508101906110b29190612b0d565b6110bc9190613173565b8f8f6040516110d59b9a99989796959493929190612ef2565b60405180910390a250505050505050505050505050506105b96001606555565b6110fd6113e0565b6001600160a01b03831673eeeeeeeeeeeeeeeeeeeeeeeeeeeeeeeeeeeeeeee1415611178576040516001600160a01b038316908290600081818185875af1925050503d806000811461116b576040519150601f19603f3d011682016040523d82523d6000602084013e611170565b606091505b505050505050565b60405163a9059cbb60e01b81526001600160a01b0384169063a9059cbb906111a69085908590600401612e04565b602060405180830381600087803b1580156111c057600080fd5b505af11580156111d4573d6000803e3d6000fd5b505050506040513d601f19601f820116820180604052508101906105b991906127de565b6112006113e0565b6001600160a01b0381166112655760405162461bcd60e51b815260206004820152602660248201527f4f776e61626c653a206e6577206f776e657220697320746865207a65726f206160448201526564647265737360d01b60648201526084016104c5565b61126e8161206f565b50565b600054610100900460ff16158080156112915750600054600160ff909116105b806112ab5750303b1580156112ab575060005460ff166001145b61130e5760405162461bcd60e51b815260206004820152602e60248201527f496e697469616c697a61626c653a20636f6e747261637420697320616c72656160448201526d191e481a5b9a5d1a585b1a5e995960921b60648201526084016104c5565b6000805460ff191660011790558015611331576000805461ff0019166101001790555b611339612139565b611341612168565b611349612197565b60c980546001600160a01b038088166001600160a01b03199283161790925560ca805487841690831617905560cb805486841690831617905560ce80549285169290911691909117905580156113d9576000805461ff0019169055604051600181527f7f26b83ff96e1f2b6a682f133852f6798a09c465da95921460cefb38474024989060200160405180910390a15b5050505050565b336113e9610820565b6001600160a01b03161461081e5760405162461bcd60e51b815260206004820181905260248201527f4f776e61626c653a2063616c6c6572206973206e6f7420746865206f776e657260448201526064016104c5565b600260655414156114925760405162461bcd60e51b815260206004820152601f60248201527f5265656e7472616e637947756172643a207265656e7472616e742063616c6c0060448201526064016104c5565b6002606555565b6000816040516020016114ac9190612cc0565b60405160208183030381529060405280519060200120836040516020016114d39190612cc0565b6040516020818303038152906040528051906020012014905092915050565b60006114fd836121c6565b6040805160028082526060820183529293506000929091602083019080368337019050509050848160008151811061154557634e487b7160e01b600052603260045260246000fd5b60200260200101818152505081608001518160018151811061157757634e487b7160e01b600052603260045260246000fd5b602090810291909101015260ca5460405163095ea7b360e01b81526001600160a01b038581169263095ea7b3926115b692909116908990600401612e04565b602060405180830381600087803b1580156115d057600080fd5b505af11580156115e4573d6000803e3d6000fd5b505050506040513d601f19601f8201168201806040525081019061160891906127de565b5060ca54606083015160a084015160c085015160e0860151805160208201516040928301516101008a015193516344dd6aa560e01b81526001600160a01b03909816976344dd6aa59761166c9790968b969195909442949193909290600401612d61565b602060405180830381600087803b15801561168657600080fd5b505af19250505080156116b6575060408051601f3d908101601f191682019092526116b391810190612b0d565b60015b61183c5760ca5460405163095ea7b360e01b81526001600160a01b038581169263095ea7b3926116ef9290911690600090600401612e04565b602060405180830381600087803b15801561170957600080fd5b505af115801561171d573d6000803e3d6000fd5b505050506040513d601f19601f8201168201806040525081019061174191906127de565b508460cd600084604001516001600160a01b03166001600160a01b031681526020019081526020016000206000846020015181526020019081526020016000206000846000015181526020019081526020016000206000856001600160a01b03166001600160a01b031681526020019081526020016000208190555081604001516001600160a01b03167fa79aee2abfa3037b36c3689636c9932b113a82cebda0057ac4ce2386371fc969836000015184602001518560600151878a8860e00151600001518960e00151602001518a60c001518b610100015160405161182f99989796959493929190612f7a565b60405180910390a26113d9565b5060c95460e0830151604090810151905163626885b560e11b81526000926001600160a01b03169163c4d10b6a916118779190600401612e1d565b60206040518083038186803b15801561188f57600080fd5b505afa1580156118a3573d6000803e3d6000fd5b505050506040513d601f19601f820116820180604052508101906118c7919061263f565b905082604001516001600160a01b03167f124f82fb68081b8c772a74ce98c0c92b659dd79e4fd3f03cf49988818eb04e8b846000015185602001518660600151888b8960e00151600001518a60e001516020015189600160ca60009054906101000a90046001600160a01b03166001600160a01b031663930a60e88d6040518263ffffffff1660e01b815260040161195f9190612cdc565b60206040518083038186803b15801561197757600080fd5b505afa15801561198b573d6000803e3d6000fd5b505050506040513d601f19601f820116820180604052508101906119af9190612b0d565b6119b99190613173565b8d60c001518e61010001516040516119db9b9a99989796959493929190612ef2565b60405180910390a2505050505050565b60006119f6836120c1565b60ce5460405163095ea7b360e01b81529192506001600160a01b038085169263095ea7b392611a2b9216908890600401612e04565b602060405180830381600087803b158015611a4557600080fd5b505af1158015611a59573d6000803e3d6000fd5b505050506040513d601f19601f82011682018060405250810190611a7d91906127de565b5060ce5460408051639aed427960e01b815290516000926001600160a01b031691639aed4279916004808301926020929190829003018186803b158015611ac357600080fd5b505afa158015611ad7573d6000803e3d6000fd5b505050506040513d601f19601f82011682018060405250810190611afb9190612b0d565b905060ce60009054906101000a90046001600160a01b03166001600160a01b031663e91ffefd82846060015185608001518660c0015187610100015160000151886101000151602001518960a001518d8b60e001516040518a63ffffffff1660e01b8152600401611b73989796959493929190612fdc565b6000604051808303818588803b158015611b8c57600080fd5b505af193505050508015611b9e575060015b611d1c5760ce5460405163095ea7b360e01b81526001600160a01b038581169263095ea7b392611bd79290911690600090600401612e04565b602060405180830381600087803b158015611bf157600080fd5b505af1158015611c05573d6000803e3d6000fd5b505050506040513d601f19601f82011682018060405250810190611c2991906127de565b508460cd600084604001516001600160a01b03166001600160a01b031681526020019081526020016000206000846020015181526020019081526020016000206000846000015181526020019081526020016000206000856001600160a01b03166001600160a01b031681526020019081526020016000208190555081604001516001600160a01b03167f7d65d8bb82c4e84c52a9b363cf584e1ce4c2267912f495a43918f8641b3e3e628360200151846060015185608001518660a001518760c001518b8960e001518a6101000151600001518b61010001516020015160405161182f9998979695949392919061303e565b81604001516001600160a01b03167f8ae087792dfbf19fcf7ec66a2176ac12b2ccefd4dcaa310396f2a131dfc58ccf8360200151846060015185608001518660a001518760c001518b8960e001518a6101000151600001518b610100015160200151600160ce60009054906101000a90046001600160a01b03166001600160a01b03166390665eca6040518163ffffffff1660e01b815260040160206040518083038186803b158015611dce57600080fd5b505afa158015611de2573d6000803e3d6000fd5b505050506040513d601f19601f82011682018060405250810190611e069190612b0d565b611e109190613173565b604051611e269a999897969594939291906130a9565b60405180910390a25050505050565b6001606555565b60008085805190602001209050600081604051602001611e8791907b0ca2ba3432b932bab69029b4b3b732b21026b2b9b9b0b3b29d05199960211b8152601c810191909152603c0190565b60408051601f198184030181528282528051602091820120600080855291840180845281905260ff88169284019290925260608301899052608083018890529092509060019060a0016020604051602081039080840390855afa158015611ef2573d6000803e3d6000fd5b5050604051601f1901519150506001600160a01b038116611f605760405162461bcd60e51b815260206004820152602260248201527f506f6c79676f6e436f6e6e6563746f724c6f6769633a20496e76616c69642073604482015261696760f01b60648201526084016104c5565b979650505050505050565b60cb5460405163095ea7b360e01b81526060916001600160a01b038087169263095ea7b392611fa09216908790600401612e04565b602060405180830381600087803b158015611fba57600080fd5b505af1158015611fce573d6000803e3d6000fd5b505050506040513d601f19601f82011682018060405250810190611ff291906127de565b5060cb54604051631507d3c560e21b81526001600160a01b039091169063541f4f14906120359089908190899089908c908a9042908b9060001990600401612cf0565b600060405180830381600087803b15801561204f57600080fd5b505af1158015612063573d6000803e3d6000fd5b50505050505050505050565b603380546001600160a01b038381166001600160a01b0319831681179093556040519116919082907f8be0079c531659141344cd1fd0a4f28419497f9722a3daafe3b4186f6b6457e090600090a35050565b6120c96122cc565b818060200190518101906120dd9190612a57565b505050608088015260c087015260a08601526001600160a01b03166040850152602080850191909152908352835161211c925084018101908401612a57565b60608b01526101008a015260e08901525095979650505050505050565b600054610100900460ff166121605760405162461bcd60e51b81526004016104c590612ea7565b61081e612242565b600054610100900460ff1661218f5760405162461bcd60e51b81526004016104c590612ea7565b61081e612272565b600054610100900460ff166121be5760405162461bcd60e51b81526004016104c590612ea7565b61081e612299565b6121ce612339565b818060200190518101906121e291906128a6565b60e08a015260c0890152151560a088015260808701526001600160a01b039081166060870152166040850152602080850191909152908352835161222d925084018101908401612979565b6101008b015250979998505050505050505050565b600054610100900460ff166122695760405162461bcd60e51b81526004016104c590612ea7565b61081e3361206f565b600054610100900460ff16611e355760405162461bcd60e51b81526004016104c590612ea7565b600054610100900460ff166122c05760405162461bcd60e51b81526004016104c590612ea7565b6097805460ff19169055565b604051806101200160405280600081526020016000815260200160006001600160a01b03168152602001600081526020016000815260200160008152602001600081526020016060815260200161233460408051808201909152606081526000602082015290565b905290565b604051806101200160405280600081526020016000815260200160006001600160a01b0316815260200160006001600160a01b0316815260200160008152602001600015158152602001606081526020016123ac6040805160608082018352808252600060208301529181019190915290565b8152602001600081525090565b80516123c4816131d8565b919050565b600082601f8301126123d9578081fd5b815160206001600160401b038211156123f4576123f46131c2565b8160051b61240382820161311c565b83815282810190868401838801850189101561241d578687fd5b8693505b85841015612448578051612434816131d8565b835260019390930192918401918401612421565b50979650505050505050565b805180151581146123c457600080fd5b600082601f830112612474578081fd5b81356124876124828261314c565b61311c565b81815284602083860101111561249b578283fd5b816020850160208301379081016020019190915292915050565b600082601f8301126124c5578081fd5b81516124d36124828261314c565b8181528460208386010111156124e7578283fd5b6124f8826020830160208701613196565b949350505050565b8051600681106123c457600080fd5b600060608284031215612520578081fd5b604051606081016001600160401b038082118383101715612543576125436131c2565b81604052829350845191508082111561255b57600080fd5b612567868387016124b5565b835261257560208601612500565b6020840152604085015191508082111561258e57600080fd5b5061259b858286016124b5565b6040830152505092915050565b6000604082840312156125b9578081fd5b604080519081016001600160401b0380821183831017156125dc576125dc6131c2565b8160405282935084519150808211156125f457600080fd5b50612601858286016124b5565b82525061261060208401612500565b60208201525092915050565b60006020828403121561262d578081fd5b8135612638816131d8565b9392505050565b600060208284031215612650578081fd5b8151612638816131d8565b60008060008060808587031215612670578283fd5b843561267b816131d8565b9350602085013561268b816131d8565b9250604085013561269b816131d8565b915060608501356126ab816131d8565b939692955090935050565b6000806000606084860312156126ca578283fd5b83356126d5816131d8565b925060208401356126e5816131d8565b929592945050506040919091013590565b60008060006060848603121561270a578283fd5b8335612715816131d8565b925060208401359150604084013561272c816131d8565b809150509250925092565b6000806000806080858703121561274c578182fd5b8435612757816131d8565b935060208501359250604085013561276e816131d8565b915060608501356001600160401b03811115612788578182fd5b61279487828801612464565b91505092959194509250565b600080600080608085870312156127b5578182fd5b84356127c0816131d8565b9350602085013592506040850135915060608501356126ab816131d8565b6000602082840312156127ef578081fd5b61263882612454565b6000806000806080858703121561280d578182fd5b84356001600160401b03811115612822578283fd5b61282e87828801612464565b945050602085013560ff81168114612844578283fd5b93969395505050506040820135916060013590565b60008060006060848603121561286d578081fd5b83516001600160401b03811115612882578182fd5b61288e868287016124b5565b93505060208401519150604084015190509250925092565b60008060008060008060008060006101208a8c0312156128c4578687fd5b89516001600160401b03808211156128da578889fd5b6128e68d838e016124b5565b9a5060208c0151995060408c0151985061290260608d016123b9565b975061291060808d016123b9565b965060a08c0151955061292560c08d01612454565b945060e08c015191508082111561293a578384fd5b6129468d838e016123c9565b93506101008c015191508082111561295c578283fd5b506129698c828d0161250f565b9150509295985092959850929598565b6000806000806000806000806000806101408b8d031215612998578384fd5b8a516001600160401b03808211156129ae578586fd5b6129ba8e838f016124b5565b9b5060208d01519a5060408d015199506129d660608e016123b9565b98506129e460808e016123b9565b975060a08d015196506129f960c08e01612454565b955060e08d0151915080821115612a0e578283fd5b612a1a8e838f016123c9565b94506101008d0151915080821115612a30578283fd5b50612a3d8d828e0161250f565b9250506101208b015190509295989b9194979a5092959850565b6000806000806000806000806000806101408b8d031215612a76578384fd5b8a516001600160401b0380821115612a8c578586fd5b612a988e838f016124b5565b9b5060208d01519a5060408d01519950612ab460608e016123b9565b985060808d0151975060a08d0151965060c08d0151955060e08d0151915080821115612ade578485fd5b612aea8e838f016123c9565b94506101008d0151915080821115612b00578384fd5b50612a3d8d828e016125a8565b600060208284031215612b1e578081fd5b5051919050565b6000806000806000806000806000806101408b8d031215612b44578384fd5b8a51995060208b01519850612b5b60408c016123b9565b9750612b6960608c016123b9565b60808c015160a08d015191985096506001600160401b0380821115612b8c578586fd5b612b988e838f016124b5565b9650612ba660c08e01612500565b955060e08d0151915080821115612bbb578485fd5b612bc78e838f016124b5565b94506101008d0151915080821115612bdd578384fd5b50612a3d8d828e016123c9565b60008060008060808587031215612bff578182fd5b84519350602085015192506040850151612c18816131d8565b8092505060608501518060070b81146126ab578182fd5b6000815180845260208085019450808401835b83811015612c675781516001600160a01b031687529582019590820190600101612c42565b509495945050505050565b60008151808452612c8a816020860160208601613196565b601f01601f19169290920160200192915050565b60068110612cbc57634e487b7160e01b600052602160045260246000fd5b9052565b60008251612cd2818460208701613196565b9190910192915050565b6001600160a01b0391909116815260200190565b6001600160a01b038a811682528981166020830152881660408201526060810187905260808101869052600785900b60a082015263ffffffff841660c082015261012060e08201819052600090612d4983820186612c72565b915050826101008301529a9950505050505050505050565b6001600160a01b038a16815261012060208083018290528a519183018290526000916101408401918c810191845b81811015612dab57835185529382019392820192600101612d8f565b5050505089151560408401528281036060840152612dc9818a612c2f565b905087608084015282810360a0840152612de38188612c72565b9050612df260c0840187612c9e565b82810360e0840152612d498186612c72565b6001600160a01b03929092168252602082015260400190565b6020815260006126386020830184612c72565b608081526000612e436080830187612c72565b8560208401528460408401528281036060840152611f608185612c72565b60208082526026908201527f506f6c79676f6e436f6e6e6563746f724c6f6769633a20616c72656164792072604082015265195d1c9a595960d21b606082015260800190565b6020808252602b908201527f496e697469616c697a61626c653a20636f6e7472616374206973206e6f74206960408201526a6e697469616c697a696e6760a81b606082015260800190565b60006101608d83528c602084015260018060a01b03808d166040850152808c1660608501528a60808501528160a0850152612f2f8285018b612c72565b9150612f3e60c085018a612c9e565b871660e08401526101008301869052828103610120840152612f608186612c2f565b915050826101408301529c9b505050505050505050505050565b898152602081018990526001600160a01b038881166040830152871660608201526080810186905261012060a08201819052600090612fbb83820188612c72565b9050612fca60c0840187612c9e565b82810360e0840152612d498186612c2f565b60006101008a835289602084015288604084015280606084015261300281840189612c72565b90506130116080840188612c9e565b8560a08401528460c084015282810360e084015261302f8185612c2f565b9b9a5050505050505050505050565b60006101208b83528a60208401528960408401528860608401528760808401528660a08401528060c084015261307681840187612c2f565b905082810360e084015261308a8186612c72565b91505061309b610100830184612c9e565b9a9950505050505050505050565b60006101408c83528b60208401528a60408401528960608401528860808401528760a08401528060c08401526130e181840188612c2f565b905082810360e08401526130f58187612c72565b915050613106610100830185612c9e565b826101208301529b9a5050505050505050505050565b604051601f8201601f191681016001600160401b0381118282101715613144576131446131c2565b604052919050565b60006001600160401b03821115613165576131656131c2565b50601f01601f191660200190565b60008282101561319157634e487b7160e01b81526011600452602481fd5b500390565b60005b838110156131b1578181015183820152602001613199565b838111156105b95750506000910152565b634e487b7160e01b600052604160045260246000fd5b6001600160a01b038116811461126e57600080fdfea26469706673582212207d3bc7968b51798c926b6084bb9eb2cd0a17786fea2dcac7eba87b26e833c3c564736f6c63430008040033",
  "devdoc": {
    "kind": "dev",
    "methods": {
      "emergencyWithdraw(address,address,uint256)": {
        "details": "Only owner can call this"
      },
      "owner()": {
        "details": "Returns the address of the current owner."
      },
      "paused()": {
        "details": "Returns true if the contract is paused, and false otherwise."
      },
      "renounceOwnership()": {
        "details": "Leaves the contract without owner. It will not be possible to call `onlyOwner` functions. Can only be called by the current owner. NOTE: Renouncing ownership will leave the contract without an owner, thereby disabling any functionality that is only available to the owner."
      },
      "retrySwapAndUnwrap(bytes,uint8,bytes32,bytes32)": {
        "details": "User signs a message for retrying its request",
        "params": {
          "_message": "The signed message",
          "_r": "Signature r",
          "_s": "Signature s",
          "_v": "Signature v"
        }
      },
      "retrySwapAndUnwrapRune(bytes,uint8,bytes32,bytes32)": {
        "details": "User signs a message for retrying its request",
        "params": {
          "_message": "The signed message",
          "_r": "Signature r",
          "_s": "Signature s",
          "_v": "Signature v"
        }
      },
      "transferOwnership(address)": {
        "details": "Transfers ownership of the contract to a new account (`newOwner`). Can only be called by the current owner."
      },
      "withdrawFundsToSourceChain(bytes,uint8,bytes32,bytes32)": {
        "params": {
          "_message": "The signed message",
          "_r": "Signature r",
          "_s": "Signature s",
          "_v": "Signature v"
        }
      }
    },
    "version": 1
  },
  "userdoc": {
    "kind": "user",
    "methods": {
      "emergencyWithdraw(address,address,uint256)": {
        "notice": "Withdraws tokens in the emergency case"
      },
      "handleV3AcrossMessage(address,uint256,address,bytes)": {
        "notice": "Process requests coming from Ethereum (using Across V3)"
      },
      "retrySwapAndUnwrap(bytes,uint8,bytes32,bytes32)": {
        "notice": "Retry to swap and unwrap tokens"
      },
      "retrySwapAndUnwrapRune(bytes,uint8,bytes32,bytes32)": {
        "notice": "Retry to swap and unwrap tokens"
      },
      "setAcross(address)": {
        "notice": "Setter for AcrossV3"
      },
      "setBurnRouterProxy(address)": {
        "notice": "Setter for BurnRouterProxy"
      },
      "setLockersProxy(address)": {
        "notice": "Setter for LockersProxy"
      },
      "setRuneRouterProxy(address)": {
        "notice": "Setter for runeRouterProxy"
      },
      "withdrawFundsToSourceChain(bytes,uint8,bytes32,bytes32)": {
        "notice": "Send back tokens to the source chain"
      }
    },
    "version": 1
  },
  "storageLayout": {
    "storage": [
      {
        "astId": 280,
        "contract": "contracts/chain_connectors/PolyConnectorLogic.sol:PolyConnectorLogic",
        "label": "_initialized",
        "offset": 0,
        "slot": "0",
        "type": "t_uint8"
      },
      {
        "astId": 283,
        "contract": "contracts/chain_connectors/PolyConnectorLogic.sol:PolyConnectorLogic",
        "label": "_initializing",
        "offset": 1,
        "slot": "0",
        "type": "t_bool"
      },
      {
        "astId": 1035,
        "contract": "contracts/chain_connectors/PolyConnectorLogic.sol:PolyConnectorLogic",
        "label": "__gap",
        "offset": 0,
        "slot": "1",
        "type": "t_array(t_uint256)50_storage"
      },
      {
        "astId": 152,
        "contract": "contracts/chain_connectors/PolyConnectorLogic.sol:PolyConnectorLogic",
        "label": "_owner",
        "offset": 0,
        "slot": "51",
        "type": "t_address"
      },
      {
        "astId": 272,
        "contract": "contracts/chain_connectors/PolyConnectorLogic.sol:PolyConnectorLogic",
        "label": "__gap",
        "offset": 0,
        "slot": "52",
        "type": "t_array(t_uint256)49_storage"
      },
      {
        "astId": 585,
        "contract": "contracts/chain_connectors/PolyConnectorLogic.sol:PolyConnectorLogic",
        "label": "_status",
        "offset": 0,
        "slot": "101",
        "type": "t_uint256"
      },
      {
        "astId": 654,
        "contract": "contracts/chain_connectors/PolyConnectorLogic.sol:PolyConnectorLogic",
        "label": "__gap",
        "offset": 0,
        "slot": "102",
        "type": "t_array(t_uint256)49_storage"
      },
      {
        "astId": 464,
        "contract": "contracts/chain_connectors/PolyConnectorLogic.sol:PolyConnectorLogic",
        "label": "_paused",
        "offset": 0,
        "slot": "151",
        "type": "t_bool"
      },
      {
        "astId": 569,
        "contract": "contracts/chain_connectors/PolyConnectorLogic.sol:PolyConnectorLogic",
        "label": "__gap",
        "offset": 0,
        "slot": "152",
        "type": "t_array(t_uint256)49_storage"
      },
      {
        "astId": 2438,
        "contract": "contracts/chain_connectors/PolyConnectorLogic.sol:PolyConnectorLogic",
        "label": "lockersProxy",
        "offset": 0,
        "slot": "201",
        "type": "t_address"
      },
      {
        "astId": 2441,
        "contract": "contracts/chain_connectors/PolyConnectorLogic.sol:PolyConnectorLogic",
        "label": "burnRouterProxy",
        "offset": 0,
        "slot": "202",
        "type": "t_address"
      },
      {
        "astId": 2444,
        "contract": "contracts/chain_connectors/PolyConnectorLogic.sol:PolyConnectorLogic",
        "label": "across",
        "offset": 0,
        "slot": "203",
        "type": "t_address"
      },
      {
        "astId": 2453,
        "contract": "contracts/chain_connectors/PolyConnectorLogic.sol:PolyConnectorLogic",
        "label": "failedReqs",
        "offset": 0,
        "slot": "204",
        "type": "t_mapping(t_address,t_mapping(t_uint256,t_mapping(t_address,t_uint256)))"
      },
      {
        "astId": 2464,
        "contract": "contracts/chain_connectors/PolyConnectorLogic.sol:PolyConnectorLogic",
        "label": "newFailedReqs",
        "offset": 0,
        "slot": "205",
        "type": "t_mapping(t_address,t_mapping(t_uint256,t_mapping(t_uint256,t_mapping(t_address,t_uint256))))"
      },
      {
        "astId": 2467,
        "contract": "contracts/chain_connectors/PolyConnectorLogic.sol:PolyConnectorLogic",
        "label": "runeRouterProxy",
        "offset": 0,
        "slot": "206",
        "type": "t_address"
      }
    ],
    "types": {
      "t_address": {
        "encoding": "inplace",
        "label": "address",
        "numberOfBytes": "20"
      },
      "t_array(t_uint256)49_storage": {
        "base": "t_uint256",
        "encoding": "inplace",
        "label": "uint256[49]",
        "numberOfBytes": "1568"
      },
      "t_array(t_uint256)50_storage": {
        "base": "t_uint256",
        "encoding": "inplace",
        "label": "uint256[50]",
        "numberOfBytes": "1600"
      },
      "t_bool": {
        "encoding": "inplace",
        "label": "bool",
        "numberOfBytes": "1"
      },
      "t_mapping(t_address,t_mapping(t_uint256,t_mapping(t_address,t_uint256)))": {
        "encoding": "mapping",
        "key": "t_address",
        "label": "mapping(address => mapping(uint256 => mapping(address => uint256)))",
        "numberOfBytes": "32",
        "value": "t_mapping(t_uint256,t_mapping(t_address,t_uint256))"
      },
      "t_mapping(t_address,t_mapping(t_uint256,t_mapping(t_uint256,t_mapping(t_address,t_uint256))))": {
        "encoding": "mapping",
        "key": "t_address",
        "label": "mapping(address => mapping(uint256 => mapping(uint256 => mapping(address => uint256))))",
        "numberOfBytes": "32",
        "value": "t_mapping(t_uint256,t_mapping(t_uint256,t_mapping(t_address,t_uint256)))"
      },
      "t_mapping(t_address,t_uint256)": {
        "encoding": "mapping",
        "key": "t_address",
        "label": "mapping(address => uint256)",
        "numberOfBytes": "32",
        "value": "t_uint256"
      },
      "t_mapping(t_uint256,t_mapping(t_address,t_uint256))": {
        "encoding": "mapping",
        "key": "t_uint256",
        "label": "mapping(uint256 => mapping(address => uint256))",
        "numberOfBytes": "32",
        "value": "t_mapping(t_address,t_uint256)"
      },
      "t_mapping(t_uint256,t_mapping(t_uint256,t_mapping(t_address,t_uint256)))": {
        "encoding": "mapping",
        "key": "t_uint256",
        "label": "mapping(uint256 => mapping(uint256 => mapping(address => uint256)))",
        "numberOfBytes": "32",
        "value": "t_mapping(t_uint256,t_mapping(t_address,t_uint256))"
      },
      "t_uint256": {
        "encoding": "inplace",
        "label": "uint256",
        "numberOfBytes": "32"
      },
      "t_uint8": {
        "encoding": "inplace",
        "label": "uint8",
        "numberOfBytes": "1"
      }
    }
  }
}