{
  "address": "0x570a5c00897f4E81D5226244bE5C789c65D26aD9",
  "abi": [
    {
      "anonymous": false,
      "inputs": [
        {
          "indexed": false,
          "internalType": "address",
          "name": "user",
          "type": "address"
        },
        {
          "indexed": false,
          "internalType": "uint256",
          "name": "remainingAmount",
          "type": "uint256"
        },
        {
          "indexed": false,
          "internalType": "address",
          "name": "inputToken",
          "type": "address"
        },
        {
          "indexed": false,
          "internalType": "uint256",
          "name": "outputAmount",
          "type": "uint256"
        },
        {
          "indexed": false,
          "internalType": "address",
          "name": "outputToken",
          "type": "address"
        },
        {
          "components": [
            {
              "internalType": "uint256",
              "name": "protocolFee",
              "type": "uint256"
            },
            {
              "internalType": "uint256",
              "name": "lockerFee",
              "type": "uint256"
            },
            {
              "internalType": "uint256",
              "name": "thirdPartyFee",
              "type": "uint256"
            }
          ],
          "indexed": false,
          "internalType": "struct IRuneRouter.fees",
          "name": "fee",
          "type": "tuple"
        },
        {
          "indexed": false,
          "internalType": "address",
          "name": "thirdPartyAddress",
          "type": "address"
        },
        {
          "indexed": false,
          "internalType": "bytes32",
          "name": "txId",
          "type": "bytes32"
        }
      ],
      "name": "FailedRuneWrapAndSwap",
      "type": "event"
    },
    {
      "anonymous": false,
      "inputs": [
        {
          "indexed": false,
          "internalType": "uint8",
          "name": "version",
          "type": "uint8"
        }
      ],
      "name": "Initialized",
      "type": "event"
    },
    {
      "anonymous": false,
      "inputs": [
        {
          "indexed": false,
          "internalType": "address",
          "name": "oldLocker",
          "type": "address"
        },
        {
          "indexed": false,
          "internalType": "address",
          "name": "newLocker",
          "type": "address"
        }
      ],
      "name": "NewLocker",
      "type": "event"
    },
    {
      "anonymous": false,
      "inputs": [
        {
          "indexed": false,
          "internalType": "uint256",
          "name": "oldProtocolPercentageFee",
          "type": "uint256"
        },
        {
          "indexed": false,
          "internalType": "uint256",
          "name": "newProtocolPercentageFee",
          "type": "uint256"
        }
      ],
      "name": "NewProtocolPercentageFee",
      "type": "event"
    },
    {
      "anonymous": false,
      "inputs": [
        {
          "indexed": false,
          "internalType": "address",
          "name": "oldRelay",
          "type": "address"
        },
        {
          "indexed": false,
          "internalType": "address",
          "name": "newRelay",
          "type": "address"
        }
      ],
      "name": "NewRelay",
      "type": "event"
    },
    {
      "anonymous": false,
      "inputs": [
        {
          "indexed": false,
          "internalType": "string",
          "name": "name",
          "type": "string"
        },
        {
          "indexed": false,
          "internalType": "string",
          "name": "symbol",
          "type": "string"
        },
        {
          "indexed": false,
          "internalType": "string",
          "name": "runeId",
          "type": "string"
        },
        {
          "indexed": false,
          "internalType": "uint256",
          "name": "decimal",
          "type": "uint256"
        },
        {
          "indexed": false,
          "internalType": "uint256",
          "name": "internalId",
          "type": "uint256"
        },
        {
          "indexed": false,
          "internalType": "address",
          "name": "wRuneProxy",
          "type": "address"
        },
        {
          "indexed": false,
          "internalType": "address",
          "name": "wRuneLogic",
          "type": "address"
        }
      ],
      "name": "NewRune",
      "type": "event"
    },
    {
      "anonymous": false,
      "inputs": [
        {
          "indexed": false,
          "internalType": "address",
          "name": "user",
          "type": "address"
        },
        {
          "indexed": false,
          "internalType": "bytes",
          "name": "userScript",
          "type": "bytes"
        },
        {
          "indexed": false,
          "internalType": "enum ScriptTypes",
          "name": "scriptType",
          "type": "uint8"
        },
        {
          "indexed": false,
          "internalType": "uint256",
          "name": "inputAmount",
          "type": "uint256"
        },
        {
          "indexed": false,
          "internalType": "address",
          "name": "inputToken",
          "type": "address"
        },
        {
          "indexed": false,
          "internalType": "uint256",
          "name": "outputAmount",
          "type": "uint256"
        },
        {
          "indexed": false,
          "internalType": "uint256",
          "name": "remainingAmount",
          "type": "uint256"
        },
        {
          "indexed": false,
          "internalType": "address",
          "name": "outputToken",
          "type": "address"
        },
        {
          "components": [
            {
              "internalType": "uint256",
              "name": "protocolFee",
              "type": "uint256"
            },
            {
              "internalType": "uint256",
              "name": "lockerFee",
              "type": "uint256"
            },
            {
              "internalType": "uint256",
              "name": "thirdPartyFee",
              "type": "uint256"
            }
          ],
          "indexed": false,
          "internalType": "struct IRuneRouter.fees",
          "name": "fee",
          "type": "tuple"
        },
        {
          "indexed": false,
          "internalType": "uint256",
          "name": "unwrapFee",
          "type": "uint256"
        },
        {
          "indexed": false,
          "internalType": "address",
          "name": "thirdPartyAddress",
          "type": "address"
        },
        {
          "indexed": false,
          "internalType": "uint256",
          "name": "reqIdx",
          "type": "uint256"
        }
      ],
      "name": "NewRuneSwapAndUnwrap",
      "type": "event"
    },
    {
      "anonymous": false,
      "inputs": [
        {
          "indexed": false,
          "internalType": "address",
          "name": "user",
          "type": "address"
        },
        {
          "indexed": false,
          "internalType": "bytes",
          "name": "userScript",
          "type": "bytes"
        },
        {
          "indexed": false,
          "internalType": "enum ScriptTypes",
          "name": "scriptType",
          "type": "uint8"
        },
        {
          "indexed": false,
          "internalType": "address",
          "name": "inputToken",
          "type": "address"
        },
        {
          "indexed": false,
          "internalType": "uint256",
          "name": "inputAmount",
          "type": "uint256"
        },
        {
          "indexed": false,
          "internalType": "uint256",
          "name": "remainingAmount",
          "type": "uint256"
        },
        {
          "components": [
            {
              "internalType": "uint256",
              "name": "protocolFee",
              "type": "uint256"
            },
            {
              "internalType": "uint256",
              "name": "lockerFee",
              "type": "uint256"
            },
            {
              "internalType": "uint256",
              "name": "thirdPartyFee",
              "type": "uint256"
            }
          ],
          "indexed": false,
          "internalType": "struct IRuneRouter.fees",
          "name": "fee",
          "type": "tuple"
        },
        {
          "indexed": false,
          "internalType": "uint256",
          "name": "unwrapFee",
          "type": "uint256"
        },
        {
          "indexed": false,
          "internalType": "address",
          "name": "thirdPartyAddress",
          "type": "address"
        },
        {
          "indexed": false,
          "internalType": "uint256",
          "name": "reqIdx",
          "type": "uint256"
        }
      ],
      "name": "NewRuneUnwrap",
      "type": "event"
    },
    {
      "anonymous": false,
      "inputs": [
        {
          "indexed": false,
          "internalType": "address",
          "name": "user",
          "type": "address"
        },
        {
          "indexed": false,
          "internalType": "uint256",
          "name": "remainingAmount",
          "type": "uint256"
        },
        {
          "indexed": false,
          "internalType": "address",
          "name": "inputToken",
          "type": "address"
        },
        {
          "components": [
            {
              "internalType": "uint256",
              "name": "protocolFee",
              "type": "uint256"
            },
            {
              "internalType": "uint256",
              "name": "lockerFee",
              "type": "uint256"
            },
            {
              "internalType": "uint256",
              "name": "thirdPartyFee",
              "type": "uint256"
            }
          ],
          "indexed": false,
          "internalType": "struct IRuneRouter.fees",
          "name": "fee",
          "type": "tuple"
        },
        {
          "indexed": false,
          "internalType": "address",
          "name": "thirdPartyAddress",
          "type": "address"
        },
        {
          "indexed": false,
          "internalType": "bytes32",
          "name": "txId",
          "type": "bytes32"
        }
      ],
      "name": "NewRuneWrap",
      "type": "event"
    },
    {
      "anonymous": false,
      "inputs": [
        {
          "indexed": false,
          "internalType": "address",
          "name": "user",
          "type": "address"
        },
        {
          "indexed": false,
          "internalType": "uint256",
          "name": "remainingAmount",
          "type": "uint256"
        },
        {
          "indexed": false,
          "internalType": "address",
          "name": "inputToken",
          "type": "address"
        },
        {
          "indexed": false,
          "internalType": "uint256",
          "name": "outputAmount",
          "type": "uint256"
        },
        {
          "indexed": false,
          "internalType": "address",
          "name": "outputToken",
          "type": "address"
        },
        {
          "components": [
            {
              "internalType": "uint256",
              "name": "protocolFee",
              "type": "uint256"
            },
            {
              "internalType": "uint256",
              "name": "lockerFee",
              "type": "uint256"
            },
            {
              "internalType": "uint256",
              "name": "thirdPartyFee",
              "type": "uint256"
            }
          ],
          "indexed": false,
          "internalType": "struct IRuneRouter.fees",
          "name": "fee",
          "type": "tuple"
        },
        {
          "indexed": false,
          "internalType": "address",
          "name": "thirdPartyAddress",
          "type": "address"
        },
        {
          "indexed": false,
          "internalType": "bytes32",
          "name": "txId",
          "type": "bytes32"
        }
      ],
      "name": "NewRuneWrapAndSwap",
      "type": "event"
    },
    {
      "anonymous": false,
      "inputs": [
        {
          "indexed": false,
          "internalType": "address",
          "name": "oldTeleporter",
          "type": "address"
        },
        {
          "indexed": false,
          "internalType": "address",
          "name": "newTeleporter",
          "type": "address"
        }
      ],
      "name": "NewTeleporter",
      "type": "event"
    },
    {
      "anonymous": false,
      "inputs": [
        {
          "indexed": false,
          "internalType": "address",
          "name": "oldTreasury",
          "type": "address"
        },
        {
          "indexed": false,
          "internalType": "address",
          "name": "newTreasury",
          "type": "address"
        }
      ],
      "name": "NewTreasury",
      "type": "event"
    },
    {
      "anonymous": false,
      "inputs": [
        {
          "indexed": true,
          "internalType": "address",
          "name": "previousOwner",
          "type": "address"
        },
        {
          "indexed": true,
          "internalType": "address",
          "name": "newOwner",
          "type": "address"
        }
      ],
      "name": "OwnershipTransferred",
      "type": "event"
    },
    {
      "anonymous": false,
      "inputs": [
        {
          "indexed": false,
          "internalType": "uint256",
          "name": "tokenId",
          "type": "uint256"
        },
        {
          "indexed": false,
          "internalType": "address",
          "name": "wRuneProxy",
          "type": "address"
        }
      ],
      "name": "RuneRemoved",
      "type": "event"
    },
    {
      "anonymous": false,
      "inputs": [
        {
          "indexed": false,
          "internalType": "uint256",
          "name": "appId",
          "type": "uint256"
        },
        {
          "indexed": false,
          "internalType": "address",
          "name": "exchangeConnector",
          "type": "address"
        }
      ],
      "name": "SetExchangeConnector",
      "type": "event"
    },
    {
      "anonymous": false,
      "inputs": [
        {
          "indexed": false,
          "internalType": "uint256",
          "name": "thirdPartyId",
          "type": "uint256"
        },
        {
          "indexed": false,
          "internalType": "address",
          "name": "oldAddress",
          "type": "address"
        },
        {
          "indexed": false,
          "internalType": "uint256",
          "name": "oldFee",
          "type": "uint256"
        },
        {
          "indexed": false,
          "internalType": "address",
          "name": "newAddress",
          "type": "address"
        },
        {
          "indexed": false,
          "internalType": "uint256",
          "name": "newFee",
          "type": "uint256"
        }
      ],
      "name": "ThirdPartyInfoUpdated",
      "type": "event"
    },
    {
      "anonymous": false,
      "inputs": [
        {
          "indexed": false,
          "internalType": "uint256",
          "name": "oldFee",
          "type": "uint256"
        },
        {
          "indexed": false,
          "internalType": "uint256",
          "name": "newFee",
          "type": "uint256"
        }
      ],
      "name": "UnwrapFeeUpdated",
      "type": "event"
    },
    {
      "anonymous": false,
      "inputs": [
        {
          "indexed": false,
          "internalType": "address",
          "name": "user",
          "type": "address"
        },
        {
          "indexed": false,
          "internalType": "uint256",
          "name": "remainingAmount",
          "type": "uint256"
        },
        {
          "indexed": false,
          "internalType": "bytes",
          "name": "userScript",
          "type": "bytes"
        },
        {
          "indexed": false,
          "internalType": "enum ScriptTypes",
          "name": "scriptType",
          "type": "uint8"
        },
        {
          "indexed": false,
          "internalType": "uint256",
          "name": "reqIdx",
          "type": "uint256"
        }
      ],
      "name": "UnwrapRuneProcessed",
      "type": "event"
    },
    {
      "inputs": [
        {
          "internalType": "string",
          "name": "_name",
          "type": "string"
        },
        {
          "internalType": "string",
          "name": "_symbol",
          "type": "string"
        },
        {
          "internalType": "string",
          "name": "_runeId",
          "type": "string"
        },
        {
          "internalType": "uint8",
          "name": "_decimal",
          "type": "uint8"
        },
        {
          "internalType": "uint256",
          "name": "_internalId",
          "type": "uint256"
        }
      ],
      "name": "addRune",
      "outputs": [],
      "stateMutability": "nonpayable",
      "type": "function"
    },
    {
      "inputs": [],
      "name": "chainId",
      "outputs": [
        {
          "internalType": "uint256",
          "name": "",
          "type": "uint256"
        }
      ],
      "stateMutability": "view",
      "type": "function"
    },
    {
      "inputs": [
        {
          "internalType": "uint256",
          "name": "",
          "type": "uint256"
        }
      ],
      "name": "exchangeConnector",
      "outputs": [
        {
          "internalType": "address",
          "name": "",
          "type": "address"
        }
      ],
      "stateMutability": "view",
      "type": "function"
    },
    {
      "inputs": [
        {
          "internalType": "uint256",
          "name": "_startingBlockNumber",
          "type": "uint256"
        },
        {
          "internalType": "uint256",
          "name": "_protocolPercentageFee",
          "type": "uint256"
        },
        {
          "internalType": "uint256",
          "name": "_chainId",
          "type": "uint256"
        },
        {
          "internalType": "address",
          "name": "_relay",
          "type": "address"
        },
        {
          "internalType": "address",
          "name": "_locker",
          "type": "address"
        },
        {
          "internalType": "bytes",
          "name": "_lockerLockingScript",
          "type": "bytes"
        },
        {
          "internalType": "enum ScriptTypes",
          "name": "_lockerScriptType",
          "type": "uint8"
        },
        {
          "internalType": "address",
          "name": "_teleporter",
          "type": "address"
        },
        {
          "internalType": "address",
          "name": "_treasury",
          "type": "address"
        }
      ],
      "name": "initialize",
      "outputs": [],
      "stateMutability": "nonpayable",
      "type": "function"
    },
    {
      "inputs": [
        {
          "internalType": "address",
          "name": "",
          "type": "address"
        }
      ],
      "name": "internalIds",
      "outputs": [
        {
          "internalType": "uint256",
          "name": "",
          "type": "uint256"
        }
      ],
      "stateMutability": "view",
      "type": "function"
    },
    {
      "inputs": [
        {
          "internalType": "uint256",
          "name": "_reqIdx",
          "type": "uint256"
        }
      ],
      "name": "isUnwrapRequestProcessed",
      "outputs": [
        {
          "internalType": "bool",
          "name": "",
          "type": "bool"
        }
      ],
      "stateMutability": "view",
      "type": "function"
    },
    {
      "inputs": [
        {
          "internalType": "bytes32",
          "name": "_txId",
          "type": "bytes32"
        }
      ],
      "name": "isWrapRequestProcessed",
      "outputs": [
        {
          "internalType": "bool",
          "name": "",
          "type": "bool"
        }
      ],
      "stateMutability": "view",
      "type": "function"
    },
    {
      "inputs": [],
      "name": "locker",
      "outputs": [
        {
          "internalType": "address",
          "name": "",
          "type": "address"
        }
      ],
      "stateMutability": "view",
      "type": "function"
    },
    {
      "inputs": [],
      "name": "lockerLockingScript",
      "outputs": [
        {
          "internalType": "bytes",
          "name": "",
          "type": "bytes"
        }
      ],
      "stateMutability": "view",
      "type": "function"
    },
    {
      "inputs": [],
      "name": "lockerPercentageFee",
      "outputs": [
        {
          "internalType": "uint256",
          "name": "",
          "type": "uint256"
        }
      ],
      "stateMutability": "view",
      "type": "function"
    },
    {
      "inputs": [],
      "name": "lockerScriptType",
      "outputs": [
        {
          "internalType": "enum ScriptTypes",
          "name": "",
          "type": "uint8"
        }
      ],
      "stateMutability": "view",
      "type": "function"
    },
    {
      "inputs": [],
      "name": "owner",
      "outputs": [
        {
          "internalType": "address",
          "name": "",
          "type": "address"
        }
      ],
      "stateMutability": "view",
      "type": "function"
    },
    {
      "inputs": [],
      "name": "protocolPercentageFee",
      "outputs": [
        {
          "internalType": "uint256",
          "name": "",
          "type": "uint256"
        }
      ],
      "stateMutability": "view",
      "type": "function"
    },
    {
      "inputs": [],
      "name": "relay",
      "outputs": [
        {
          "internalType": "address",
          "name": "",
          "type": "address"
        }
      ],
      "stateMutability": "view",
      "type": "function"
    },
    {
      "inputs": [
        {
          "internalType": "uint256",
          "name": "_internalId",
          "type": "uint256"
        }
      ],
      "name": "removeRune",
      "outputs": [],
      "stateMutability": "nonpayable",
      "type": "function"
    },
    {
      "inputs": [],
      "name": "renounceOwnership",
      "outputs": [],
      "stateMutability": "nonpayable",
      "type": "function"
    },
    {
      "inputs": [
        {
          "internalType": "address",
          "name": "",
          "type": "address"
        }
      ],
      "name": "runeIds",
      "outputs": [
        {
          "internalType": "string",
          "name": "",
          "type": "string"
        }
      ],
      "stateMutability": "view",
      "type": "function"
    },
    {
      "inputs": [],
      "name": "runeUnwrapCounter",
      "outputs": [
        {
          "internalType": "uint256",
          "name": "",
          "type": "uint256"
        }
      ],
      "stateMutability": "view",
      "type": "function"
    },
    {
      "inputs": [
        {
          "internalType": "uint256",
          "name": "",
          "type": "uint256"
        }
      ],
      "name": "runeUnwrapRequests",
      "outputs": [
        {
          "internalType": "bool",
          "name": "isProcessed",
          "type": "bool"
        },
        {
          "internalType": "uint256",
          "name": "amount",
          "type": "uint256"
        },
        {
          "internalType": "uint256",
          "name": "burntAmount",
          "type": "uint256"
        },
        {
          "internalType": "uint256",
          "name": "appId",
          "type": "uint256"
        },
        {
          "internalType": "address",
          "name": "sender",
          "type": "address"
        },
        {
          "internalType": "bytes",
          "name": "userScript",
          "type": "bytes"
        },
        {
          "internalType": "enum ScriptTypes",
          "name": "scriptType",
          "type": "uint8"
        }
      ],
      "stateMutability": "view",
      "type": "function"
    },
    {
      "inputs": [
        {
          "internalType": "bytes32",
          "name": "",
          "type": "bytes32"
        }
      ],
      "name": "runeWrapRequests",
      "outputs": [
        {
          "internalType": "bool",
          "name": "isUsed",
          "type": "bool"
        },
        {
          "internalType": "uint256",
          "name": "chainId",
          "type": "uint256"
        },
        {
          "internalType": "uint256",
          "name": "appId",
          "type": "uint256"
        },
        {
          "internalType": "uint256",
          "name": "tokenId",
          "type": "uint256"
        },
        {
          "internalType": "uint256",
          "name": "inputAmount",
          "type": "uint256"
        },
        {
          "internalType": "address",
          "name": "inputToken",
          "type": "address"
        },
        {
          "internalType": "address",
          "name": "recipientAddress",
          "type": "address"
        },
        {
          "internalType": "uint256",
          "name": "thirdPartyId",
          "type": "uint256"
        },
        {
          "internalType": "uint256",
          "name": "fee",
          "type": "uint256"
        },
        {
          "internalType": "uint256",
          "name": "outputAmount",
          "type": "uint256"
        },
        {
          "internalType": "address",
          "name": "outputToken",
          "type": "address"
        }
      ],
      "stateMutability": "view",
      "type": "function"
    },
    {
      "inputs": [
        {
          "internalType": "uint256",
          "name": "_chainId",
          "type": "uint256"
        }
      ],
      "name": "setChainId",
      "outputs": [],
      "stateMutability": "nonpayable",
      "type": "function"
    },
    {
      "inputs": [
        {
          "internalType": "uint256",
          "name": "_appId",
          "type": "uint256"
        },
        {
          "internalType": "address",
          "name": "_exchangeConnector",
          "type": "address"
        }
      ],
      "name": "setExchangeConnector",
      "outputs": [],
      "stateMutability": "nonpayable",
      "type": "function"
    },
    {
      "inputs": [
        {
          "internalType": "address",
          "name": "_locker",
          "type": "address"
        }
      ],
      "name": "setLocker",
      "outputs": [],
      "stateMutability": "nonpayable",
      "type": "function"
    },
    {
      "inputs": [
        {
          "internalType": "bytes",
          "name": "_lockerLockingScript",
          "type": "bytes"
        },
        {
          "internalType": "enum ScriptTypes",
          "name": "_lockerScriptType",
          "type": "uint8"
        }
      ],
      "name": "setLockerLockingScript",
      "outputs": [],
      "stateMutability": "nonpayable",
      "type": "function"
    },
    {
      "inputs": [
        {
          "internalType": "uint256",
          "name": "_protocolPercentageFee",
          "type": "uint256"
        }
      ],
      "name": "setProtocolPercentageFee",
      "outputs": [],
      "stateMutability": "nonpayable",
      "type": "function"
    },
    {
      "inputs": [
        {
          "internalType": "address",
          "name": "_relay",
          "type": "address"
        }
      ],
      "name": "setRelay",
      "outputs": [],
      "stateMutability": "nonpayable",
      "type": "function"
    },
    {
      "inputs": [
        {
          "internalType": "uint256",
          "name": "_startingBlockNumber",
          "type": "uint256"
        }
      ],
      "name": "setStartingBlockNumber",
      "outputs": [],
      "stateMutability": "nonpayable",
      "type": "function"
    },
    {
      "inputs": [
        {
          "internalType": "address",
          "name": "_teleporter",
          "type": "address"
        }
      ],
      "name": "setTeleporter",
      "outputs": [],
      "stateMutability": "nonpayable",
      "type": "function"
    },
    {
      "inputs": [
        {
          "internalType": "uint256",
          "name": "_thirdPartyId",
          "type": "uint256"
        },
        {
          "internalType": "address",
          "name": "_thirdPartyAddress",
          "type": "address"
        },
        {
          "internalType": "uint256",
          "name": "_thirdPartyFee",
          "type": "uint256"
        }
      ],
      "name": "setThirdParty",
      "outputs": [],
      "stateMutability": "nonpayable",
      "type": "function"
    },
    {
      "inputs": [
        {
          "internalType": "address",
          "name": "_treasury",
          "type": "address"
        }
      ],
      "name": "setTreasury",
      "outputs": [],
      "stateMutability": "nonpayable",
      "type": "function"
    },
    {
      "inputs": [
        {
          "internalType": "uint256",
          "name": "_newFee",
          "type": "uint256"
        }
      ],
      "name": "setUnwrapFee",
      "outputs": [],
      "stateMutability": "nonpayable",
      "type": "function"
    },
    {
      "inputs": [],
      "name": "startingBlockNumber",
      "outputs": [
        {
          "internalType": "uint256",
          "name": "",
          "type": "uint256"
        }
      ],
      "stateMutability": "view",
      "type": "function"
    },
    {
      "inputs": [
        {
          "internalType": "uint256",
          "name": "",
          "type": "uint256"
        }
      ],
      "name": "supportedRunes",
      "outputs": [
        {
          "internalType": "address",
          "name": "",
          "type": "address"
        }
      ],
      "stateMutability": "view",
      "type": "function"
    },
    {
      "inputs": [],
      "name": "teleporter",
      "outputs": [
        {
          "internalType": "address",
          "name": "",
          "type": "address"
        }
      ],
      "stateMutability": "view",
      "type": "function"
    },
    {
      "inputs": [
        {
          "internalType": "uint256",
          "name": "",
          "type": "uint256"
        }
      ],
      "name": "thirdParties",
      "outputs": [
        {
          "internalType": "address",
          "name": "thirdPartyAddress",
          "type": "address"
        },
        {
          "internalType": "uint256",
          "name": "thirdPartyFee",
          "type": "uint256"
        }
      ],
      "stateMutability": "view",
      "type": "function"
    },
    {
      "inputs": [
        {
          "internalType": "address",
          "name": "newOwner",
          "type": "address"
        }
      ],
      "name": "transferOwnership",
      "outputs": [],
      "stateMutability": "nonpayable",
      "type": "function"
    },
    {
      "inputs": [],
      "name": "treasury",
      "outputs": [
        {
          "internalType": "address",
          "name": "",
          "type": "address"
        }
      ],
      "stateMutability": "view",
      "type": "function"
    },
    {
      "inputs": [],
      "name": "unwrapFee",
      "outputs": [
        {
          "internalType": "uint256",
          "name": "",
          "type": "uint256"
        }
      ],
      "stateMutability": "view",
      "type": "function"
    },
    {
      "inputs": [
        {
          "internalType": "bytes4",
          "name": "_version",
          "type": "bytes4"
        },
        {
          "internalType": "bytes",
          "name": "_vin",
          "type": "bytes"
        },
        {
          "internalType": "bytes",
          "name": "_vout",
          "type": "bytes"
        },
        {
          "internalType": "bytes4",
          "name": "_locktime",
          "type": "bytes4"
        },
        {
          "internalType": "uint256",
          "name": "_blockNumber",
          "type": "uint256"
        },
        {
          "internalType": "bytes",
          "name": "_intermediateNodes",
          "type": "bytes"
        },
        {
          "internalType": "uint256",
          "name": "_index",
          "type": "uint256"
        },
        {
          "internalType": "uint256[]",
          "name": "_reqIndexes",
          "type": "uint256[]"
        }
      ],
      "name": "unwrapProofRune",
      "outputs": [],
      "stateMutability": "payable",
      "type": "function"
    },
    {
      "inputs": [
        {
          "internalType": "uint256",
          "name": "_thirdPartyId",
          "type": "uint256"
        },
        {
          "internalType": "uint256",
          "name": "_internalId",
          "type": "uint256"
        },
        {
          "internalType": "uint256",
          "name": "_amount",
          "type": "uint256"
        },
        {
          "internalType": "bytes",
          "name": "_userScript",
          "type": "bytes"
        },
        {
          "internalType": "enum ScriptTypes",
          "name": "_scriptType",
          "type": "uint8"
        },
        {
          "internalType": "uint256",
          "name": "_appId",
          "type": "uint256"
        },
        {
          "internalType": "uint256",
          "name": "_inputAmount",
          "type": "uint256"
        },
        {
          "internalType": "address[]",
          "name": "_path",
          "type": "address[]"
        }
      ],
      "name": "unwrapRune",
      "outputs": [],
      "stateMutability": "payable",
      "type": "function"
    },
    {
      "inputs": [
        {
          "internalType": "bytes4",
          "name": "_version",
          "type": "bytes4"
        },
        {
          "internalType": "bytes",
          "name": "_vin",
          "type": "bytes"
        },
        {
          "internalType": "bytes",
          "name": "_vout",
          "type": "bytes"
        },
        {
          "internalType": "bytes4",
          "name": "_locktime",
          "type": "bytes4"
        },
        {
          "internalType": "uint256",
          "name": "_blockNumber",
          "type": "uint256"
        },
        {
          "internalType": "bytes",
          "name": "_intermediateNodes",
          "type": "bytes"
        },
        {
          "internalType": "uint256",
          "name": "_index",
          "type": "uint256"
        },
        {
          "internalType": "address[]",
          "name": "_path",
          "type": "address[]"
        }
      ],
      "name": "wrapRune",
      "outputs": [],
      "stateMutability": "payable",
      "type": "function"
    },
    {
      "stateMutability": "payable",
      "type": "receive"
    }
  ],
  "transactionHash": "0xd6331ef32c17b2ebfa8ee60c55f52edb50cb2cc482a04daff6b001356fd7ee85",
  "args": [],
  "numDeployments": 1,
  "solcInputHash": "e6aa667d4c07254733e6024aa1be90cd",
  "bytecode": "0x608060405234801561001057600080fd5b506152ba806100206000396000f3fe608060405260043610620002045760003560e01c8063023e25b41462000211578063068bf8741462000263578063088302a6146200028a5780630e72e41e14620002b1578063171060ec14620002e75780631812adb6146200030c5780631e7107c714620003335780633669391e1462000358578063402e01f8146200037057806349c544e1146200039557806350d7446814620003ac57806361d027b314620003d15780636390802014620003f35780636b2857ef146200040b5780636e8adf61146200043057806370872aa5146200046a578063715018a6146200048257806375122f62146200049a5780637ed5574814620004bf578063839ae1d714620004e45780638be727e114620004fb5780638da5cb5b14620005205780639637e4a814620005385780639a8a0592146200055d5780639aed427914620005755780639eca4453146200058d578063a3696a0914620005e1578063a44c2b9a1462000606578063ae2a74ee146200062b578063b3ff9f49146200065c578063b4e183f41462000683578063b59589d114620006a8578063c805f68b14620006ca578063d4603f4c14620006ef578063d7b96d4e1462000729578063d8484ef5146200074b578063e76507881462000776578063e91ffefd146200086a578063ef0e2ff41462000881578063f0f4426014620008a6578063f2fde38b14620008cb57600080fd5b366200020c57005b600080fd5b3480156200021e57600080fd5b506200024b6200023036600462003476565b609f602052600090815260409020546001600160a01b031681565b6040516200025a919062003aee565b60405180910390f35b3480156200027057600080fd5b506200028862000282366004620036e1565b620008f0565b005b3480156200029757600080fd5b50620002a262000c00565b6040516200025a919062003eff565b348015620002be57600080fd5b50620002d6620002d036600462003476565b62000c96565b60405190151581526020016200025a565b348015620002f457600080fd5b50620002886200030636600462003362565b62000ce4565b3480156200031957600080fd5b506200032460995481565b6040519081526020016200025a565b3480156200034057600080fd5b50620002886200035236600462003476565b62000d84565b3480156200036557600080fd5b5062000324609b5481565b3480156200037d57600080fd5b50620002a26200038f36600462003362565b62000de4565b62000288620003a6366004620034a8565b62000dff565b348015620003b957600080fd5b5062000288620003cb36600462003899565b62001672565b348015620003de57600080fd5b50609d546200024b906001600160a01b031681565b3480156200040057600080fd5b5062000324609a5481565b3480156200041857600080fd5b50620002886200042a366004620037d4565b620017f1565b3480156200043d57600080fd5b506200024b6200044f36600462003476565b60a3602052600090815260409020546001600160a01b031681565b3480156200047757600080fd5b506200032460975481565b3480156200048f57600080fd5b506200028862001864565b348015620004a757600080fd5b5062000288620004b936600462003806565b62001870565b348015620004cc57600080fd5b5062000288620004de36600462003476565b62001931565b62000288620004f5366004620035a3565b620019d0565b3480156200050857600080fd5b50620002886200051a36600462003476565b62001e41565b3480156200052d57600080fd5b506200024b62001f41565b3480156200054557600080fd5b50620002886200055736600462003476565b62001f50565b3480156200056a57600080fd5b506200032460985481565b3480156200058257600080fd5b506200032460a85481565b3480156200059a57600080fd5b50620005d1620005ac36600462003476565b60a760205260009081526040902080546001909101546001600160a01b039091169082565b6040516200025a92919062003c8d565b348015620005ee57600080fd5b50620002886200060036600462003362565b62001f9b565b3480156200061357600080fd5b50620002d66200062536600462003476565b62002048565b3480156200063857600080fd5b50620003246200064a36600462003362565b60a16020526000908152604090205481565b3480156200066957600080fd5b5060a6546200024b9061010090046001600160a01b031681565b3480156200069057600080fd5b5062000288620006a236600462003690565b62002067565b348015620006b557600080fd5b50609c546200024b906001600160a01b031681565b348015620006d757600080fd5b5062000288620006e936600462003362565b620020be565b348015620006fc57600080fd5b50620007146200070e36600462003476565b6200215e565b6040516200025a979695949392919062003ea5565b3480156200073657600080fd5b50609e546200024b906001600160a01b031681565b3480156200075857600080fd5b5060a654620007679060ff1681565b6040516200025a919062003f14565b3480156200078357600080fd5b50620008006200079536600462003476565b60a260205260009081526040902080546001820154600283015460038401546004850154600586015460068701546007880154600889015460098a0154600a909a015460ff9099169997989697959694956001600160a01b039485169593851694929391929091168b565b604080519b15158c5260208c019a909a52988a0197909752606089019590955260808801939093526001600160a01b0391821660a0880152811660c087015260e086019190915261010085019190915261012084019190915216610140820152610160016200025a565b620002886200087b3660046200395c565b62002252565b3480156200088e57600080fd5b5062000288620008a036600462003476565b62002671565b348015620008b357600080fd5b5062000288620008c536600462003362565b62002680565b348015620008d857600080fd5b5062000288620008ea36600462003362565b62002720565b620008fa6200279f565b6000818152609f60205260409020546001600160a01b031615620009605760405162461bcd60e51b8152602060048201526018602482015277149d5b99549bdd5d195c931bd9da58ce881d5cd959081a5960421b60448201526064015b60405180910390fd5b600073C2276ee54B85Da9c7F61872Bf6e1C761dE170B396374c6d02c6040518163ffffffff1660e01b815260040160206040518083038186803b158015620009a757600080fd5b505af4158015620009bc573d6000803e3d6000fd5b505050506040513d601f19601f82011682018060405250810190620009e2919062003388565b90506060600082620009f362001f41565b8360405162000a029062003037565b62000a109392919062003b1c565b604051809103906000f08015801562000a2d573d6000803e3d6000fd5b50604051630b127b6360e11b815290915081906001600160a01b03821690631624f6c69062000a65908c908c908b9060040162003f96565b600060405180830381600087803b15801562000a8057600080fd5b505af115801562000a95573d6000803e3d6000fd5b5050604051634c1d96ab60e11b81526001600160a01b038416925063983b2d56915062000ac790309060040162003aee565b600060405180830381600087803b15801562000ae257600080fd5b505af115801562000af7573d6000803e3d6000fd5b5050604051637a231bdd60e11b81526001600160a01b038416925063f44637ba915062000b2990309060040162003aee565b600060405180830381600087803b15801562000b4457600080fd5b505af115801562000b59573d6000803e3d6000fd5b5050506000868152609f6020908152604080832080546001600160a01b0319166001600160a01b038716908117909155835260a1825280832089905560a08252909120895162000baf935090918a019062003045565b507f175ec5a73d18c14429b1199d5fac7097c1c021f98a45d4bcfdeddedfbcc04f3c8989898989868a60405162000bed979695949392919062003f24565b60405180910390a1505050505050505050565b60a5805462000c0f90620042bb565b80601f016020809104026020016040519081016040528092919081815260200182805462000c3d90620042bb565b801562000c8e5780601f1062000c625761010080835404028352916020019162000c8e565b820191906000526020600020905b81548152906001019060200180831162000c7057829003601f168201915b505050505081565b600060a4828154811062000cba57634e487b7160e01b600052603260045260246000fd5b600091825260209091206007909102015460ff1662000cdb57600062000cde565b60015b92915050565b806001600160a01b03811662000d0e5760405162461bcd60e51b815260040162000957906200401e565b62000d186200279f565b609e546040517f69253c7023f628e3a302b63087a3bfc1dfdb256780182f81b9f0df9eff9542b09162000d59916001600160a01b0390911690859062003b02565b60405180910390a150609e80546001600160a01b0319166001600160a01b0392909216919091179055565b62000d8e6200279f565b609754811162000ddf5760405162461bcd60e51b815260206004820152601b60248201527a293ab732a937baba32b92637b3b4b19d103637bb90373ab6b132b960291b604482015260640162000957565b609755565b60a0602052600090815260409020805462000c0f90620042bb565b62000e0962002802565b60a65461010090046001600160a01b0316336001600160a01b03161462000e735760405162461bcd60e51b815260206004820152601f60248201527f52756e65526f757465724c6f6769633a206e6f742074656c65706f7274657200604482015260640162000957565b600073C2276ee54B85Da9c7F61872Bf6e1C761dE170B3963e291283d609754609c60009054906101000a90046001600160a01b03168e8e8e8e8e8e8e8e8e6040518c63ffffffff1660e01b815260040162000ed99b9a999897969594939291906200406c565b60206040518083038186803b15801562000ef257600080fd5b505af415801562000f07573d6000803e3d6000fd5b505050506040513d601f19601f8201168201806040525081019062000f2d91906200348f565b905060008060008073C2276ee54B85Da9c7F61872Bf6e1C761dE170B3963d27fd71f6098548f8f8960a2609f60a7609954609a546040518a63ffffffff1660e01b815260040162000f879998979695949392919062004192565b60c06040518083038186803b15801562000fa057600080fd5b505af415801562000fb5573d6000803e3d6000fd5b505050506040513d601f19601f8201168201806040525081019062000fdb919062003840565b9350935093509350806001600160a01b03166340c10f1930868660400151876020015188600001516200100f919062004286565b6200101b919062004286565b62001027919062004286565b6040518363ffffffff1660e01b81526004016200104692919062003c8d565b602060405180830381600087803b1580156200106157600080fd5b505af115801562001076573d6000803e3d6000fd5b505050506040513d601f19601f820116820180604052508101906200109c9190620033a7565b50609d54835160405163a9059cbb60e01b81526001600160a01b038481169363a9059cbb93620010d493929091169160040162003c8d565b602060405180830381600087803b158015620010ef57600080fd5b505af115801562001104573d6000803e3d6000fd5b505050506040513d601f19601f820116820180604052508101906200112a9190620033a7565b50609e54602084015160405163a9059cbb60e01b81526001600160a01b038481169363a9059cbb936200116593929091169160040162003c8d565b602060405180830381600087803b1580156200118057600080fd5b505af115801562001195573d6000803e3d6000fd5b505050506040513d601f19601f82011682018060405250810190620011bb9190620033a7565b506001600160a01b038216156200125757604080840151905163a9059cbb60e01b81526001600160a01b0383169163a9059cbb91620011ff91869160040162003c8d565b602060405180830381600087803b1580156200121a57600080fd5b505af11580156200122f573d6000803e3d6000fd5b505050506040513d601f19601f82011682018060405250810190620012559190620033a7565b505b600085815260a26020908152604091829020825161016081018452815460ff16151581526001820154928101929092526002810154928201839052600381015460608301526004810154608083015260058101546001600160a01b0390811660a08401526006820154811660c0840152600782015460e084015260088201546101008401526009820154610120840152600a909101541661014082015290620013d25760c081015160405163a9059cbb60e01b81526001600160a01b0384169163a9059cbb916200132e9190899060040162003c8d565b602060405180830381600087803b1580156200134957600080fd5b505af11580156200135e573d6000803e3d6000fd5b505050506040513d601f19601f82011682018060405250810190620013849190620033a7565b507f43c9c64e3d0a7d664252e89fe26c8958a77098900ebf13f7aa95030a371bc4328160c00151868487878b604051620013c49695949392919062003ca6565b60405180910390a162001655565b8060a001516001600160a01b0316876000815181106200140257634e487b7160e01b600052603260045260246000fd5b60200260200101516001600160a01b03161480156200146e57508061014001516001600160a01b031687600189516200143c9190620042a1565b815181106200145b57634e487b7160e01b600052603260045260246000fd5b60200260200101516001600160a01b0316145b620014ba5760405162461bcd60e51b815260206004820152601b60248201527a0a4eadccaa4deeae8cae498deced2c67440eee4dedcce40e0c2e8d602b1b604482015260640162000957565b600080620014d983604001518460c00151898661012001518d6200285e565b91509150811562001571577fed12b1e275b408eb8b01de7d246293c2daf02f98422b51b0af3012463e2a725e8360c00151888684600186516200151d9190620042a1565b815181106200153c57634e487b7160e01b600052603260045260246000fd5b60200260200101518761014001518b8b8f6040516200156398979695949392919062003cec565b60405180910390a162001652565b7f2eefdda27738a7be93aea5dafceb4d8af2e8e046fd411a8c94bb449508af05a28360c0015188868661012001518761014001518b8b8f604051620015be98979695949392919062003cec565b60405180910390a160c083015160405163a9059cbb60e01b81526001600160a01b0386169163a9059cbb91620015fa91908b9060040162003c8d565b602060405180830381600087803b1580156200161557600080fd5b505af11580156200162a573d6000803e3d6000fd5b505050506040513d601f19601f82011682018060405250810190620016509190620033a7565b505b50505b505050505050620016666001606555565b50505050505050505050565b600054610100900460ff1615808015620016935750600054600160ff909116105b80620016af5750303b158015620016af575060005460ff166001145b620017145760405162461bcd60e51b815260206004820152602e60248201527f496e697469616c697a61626c653a20636f6e747261637420697320616c72656160448201526d191e481a5b9a5d1a585b1a5e995960921b606482015260840162000957565b6000805460ff19166001179055801562001738576000805461ff0019166101001790555b6200174262002ab5565b6200174c62002ae9565b60988890556200175c8a62000d84565b620017678962001931565b6200177287620020be565b6200177d8662000ce4565b62001789858562002067565b620017948362001f9b565b6200179f8262002680565b801562001666576000805461ff0019169055604051600181527f7f26b83ff96e1f2b6a682f133852f6798a09c465da95921460cefb38474024989060200160405180910390a150505050505050505050565b620017fb6200279f565b7f31a8c4e62daac2a3ed5d713004d9ae867d6dcddfa35603db2a4b65d9236b1bc182826040516200182e92919062004055565b60405180910390a1600091825260a3602052604090912080546001600160a01b0319166001600160a01b03909216919091179055565b6200186e6200279f565b565b6200187a6200279f565b600083815260a76020908152604091829020805460019091015483518781526001600160a01b039283169381019390935282840152841660608201526080810183905290517f23385740814648db624aa52a0c990fc42def14e1b04e7fe5b2bf87b85e1294529181900360a00190a16040805180820182526001600160a01b0393841681526020808201938452600095865260a790529320925183546001600160a01b031916921691909117825551600190910155565b6200193b6200279f565b8061271010156200198f5760405162461bcd60e51b815260206004820152601d60248201527f52756e65526f757465724c6f6769633a206f7574206f662072616e6765000000604482015260640162000957565b60995460408051918252602082018390527f7d205f60891f60851c61cd244ba387d72b6589e7c0ac41b9d909ab0ce2c2a53b910160405180910390a1609955565b620019da62002802565b609e546001600160a01b0316336001600160a01b03161462001a3d5760405162461bcd60e51b815260206004820152601b60248201527a293ab732a937baba32b92637b3b4b19d103737ba103637b1b5b2b960291b604482015260640162000957565b609754609c5460405163e291283d60e01b815273C2276ee54B85Da9c7F61872Bf6e1C761dE170B399263e291283d9262001a94926001600160a01b03909116908d908d908d908d908d908d908d9060040162004101565b60206040518083038186803b15801562001aad57600080fd5b505af415801562001ac2573d6000803e3d6000fd5b505050506040513d601f19601f8201168201806040525081019062001ae891906200348f565b5060005b815181101562001e2b5760a482828151811062001b1957634e487b7160e01b600052603260045260246000fd5b60200260200101518154811062001b4057634e487b7160e01b600052603260045260246000fd5b600091825260209091206007909102015460ff161562001bae5760405162461bcd60e51b815260206004820152602260248201527f52756e65526f757465724c6f6769633a20616c72656164792070726f63657373604482015261195960f21b606482015260840162000957565b600160a483838151811062001bd357634e487b7160e01b600052603260045260246000fd5b60200260200101518154811062001bfa57634e487b7160e01b600052603260045260246000fd5b906000526020600020906007020160000160006101000a81548160ff0219169083151502179055507f42975333d773ba95b24fa6c9b8127fc4a9bc1bafb6293c8c9daa4f6aed0bc34960a483838151811062001c6657634e487b7160e01b600052603260045260246000fd5b60200260200101518154811062001c8d57634e487b7160e01b600052603260045260246000fd5b906000526020600020906007020160040160009054906101000a90046001600160a01b031660a484848151811062001cd557634e487b7160e01b600052603260045260246000fd5b60200260200101518154811062001cfc57634e487b7160e01b600052603260045260246000fd5b90600052602060002090600702016002015460a485858151811062001d3157634e487b7160e01b600052603260045260246000fd5b60200260200101518154811062001d5857634e487b7160e01b600052603260045260246000fd5b906000526020600020906007020160050160a486868151811062001d8c57634e487b7160e01b600052603260045260246000fd5b60200260200101518154811062001db357634e487b7160e01b600052603260045260246000fd5b906000526020600020906007020160060160009054906101000a900460ff1686868151811062001df357634e487b7160e01b600052603260045260246000fd5b602002602001015160405162001e0e95949392919062003d45565b60405180910390a18062001e2281620042f8565b91505062001aec565b5062001e376001606555565b5050505050505050565b62001e4b6200279f565b6000818152609f60205260409020546001600160a01b03168062001eae5760405162461bcd60e51b8152602060048201526019602482015278293ab732a937baba32b92637b3b4b19d103737903a37b5b2b760391b604482015260640162000957565b7ff61991393940604b8433d5f9a855624b8452e131d66e476a45c7139651df9699828260405162001ee192919062004055565b60405180910390a16001600160a01b038116600090815260a06020526040812062001f0c91620030d4565b6001600160a01b0316600090815260a160209081526040808320839055928252609f90522080546001600160a01b0319169055565b6033546001600160a01b031690565b62001f5a6200279f565b60a85460408051918252602082018390527f24a1cf21e7b4eac23dffa41704078ed28bbe2a42187f6aa014899c5413cd01b7910160405180910390a160a855565b806001600160a01b03811662001fc55760405162461bcd60e51b815260040162000957906200401e565b62001fcf6200279f565b7f150b77d21bd499fd0dccea9fe32513c7b65aa34ccde41e7dafac74ace8e19c9460a660019054906101000a90046001600160a01b0316836040516200201792919062003b02565b60405180910390a15060a680546001600160a01b0390921661010002610100600160a81b0319909216919091179055565b600081815260a2602052604081205460ff1662000cdb57600062000cde565b620020716200279f565b8151620020869060a590602085019062003045565b5060a6805482919060ff19166001836005811115620020b557634e487b7160e01b600052602160045260246000fd5b02179055505050565b806001600160a01b038116620020e85760405162461bcd60e51b815260040162000957906200401e565b620020f26200279f565b609c546040517f4c28a3f61a715259c4dc930c23e7423b8fa52e13232c061a6e488729c66184f49162002133916001600160a01b0390911690859062003b02565b60405180910390a150609c80546001600160a01b0319166001600160a01b0392909216919091179055565b60a481815481106200216f57600080fd5b600091825260209091206007909102018054600182015460028301546003840154600485015460058601805460ff90961697509395929491936001600160a01b039091169291620021c090620042bb565b80601f0160208091040260200160405190810160405280929190818152602001828054620021ee90620042bb565b80156200223f5780601f1062002213576101008083540402835291602001916200223f565b820191906000526020600020905b8154815290600101906020018083116200222157829003601f168201915b5050506006909301549192505060ff1687565b6200225c62002802565b6000878152609f60205260409020546001600160a01b031680620022c35760405162461bcd60e51b815260206004820152601e60248201527f52756e65526f757465724c6f6769633a206e6f7420737570706f727465640000604482015260640162000957565b60a8543414620023135760405162461bcd60e51b815260206004820152601a60248201527952756e65526f757465724c6f6769633a2077726f6e672066656560301b604482015260640162000957565b8151156200247357816000815181106200233d57634e487b7160e01b600052603260045260246000fd5b60200260200101516001600160a01b03166323b872dd3330866040518463ffffffff1660e01b8152600401620023769392919062003b53565b602060405180830381600087803b1580156200239157600080fd5b505af1158015620023a6573d6000803e3d6000fd5b505050506040513d601f19601f82011682018060405250810190620023cc9190620033a7565b50600080620023df8630878c886200285e565b9150915081620024315760405162461bcd60e51b815260206004820152601c60248201527b149d5b99549bdd5d195c931bd9da58ce881cddd85c0819985a5b195960221b604482015260640162000957565b8060018251620024429190620042a1565b815181106200246157634e487b7160e01b600052603260045260246000fd5b60200260200101519850505062002549565b6040516323b872dd60e01b81526001600160a01b038216906323b872dd90620024a590339030908c9060040162003b53565b602060405180830381600087803b158015620024c057600080fd5b505af1158015620024d5573d6000803e3d6000fd5b505050506040513d601f19601f82011682018060405250810190620024fb9190620033a7565b620025495760405162461bcd60e51b815260206004820181905260248201527f52756e65526f757465724c6f6769633a207472616e73666572206661696c6564604482015260640162000957565b60008060006200255d8c858c8c8c62002b1d565b925092509250845160001415620025d4577f7ded23d6204f0918dc93f275df51659538e59e8aaf5698ce1f49180c22857b53338a8a878e868960a8548a600160a480549050620025ae9190620042a1565b604051620025c69a9998979695949392919062003b77565b60405180910390a162002662565b7fe17d30e84f141d5effc904ed29262988eb565f53a8c01270148776b88451bb71338a8a89896000815181106200261b57634e487b7160e01b600052603260045260246000fd5b60200260200101518f878b8b60a8548c600160a4805490506200263f9190620042a1565b604051620026599c9b9a9998979695949392919062003bfb565b60405180910390a15b5050505062001e376001606555565b6200267b6200279f565b609855565b806001600160a01b038116620026aa5760405162461bcd60e51b815260040162000957906200401e565b620026b46200279f565b609d546040517f567657fa3f286518b318f4a29870674f433f622fdfc819691acb13105b22822591620026f5916001600160a01b0390911690859062003b02565b60405180910390a150609d80546001600160a01b0319166001600160a01b0392909216919091179055565b6200272a6200279f565b6001600160a01b038116620027915760405162461bcd60e51b815260206004820152602660248201527f4f776e61626c653a206e6577206f776e657220697320746865207a65726f206160448201526564647265737360d01b606482015260840162000957565b6200279c8162002e65565b50565b33620027aa62001f41565b6001600160a01b0316146200186e5760405162461bcd60e51b815260206004820181905260248201527f4f776e61626c653a2063616c6c6572206973206e6f7420746865206f776e6572604482015260640162000957565b60026065541415620028575760405162461bcd60e51b815260206004820152601f60248201527f5265656e7472616e637947756172643a207265656e7472616e742063616c6c00604482015260640162000957565b6002606555565b600085815260a360205260408120546060906001600160a01b031680620028c85760405162461bcd60e51b815260206004820152601e60248201527f52756e65526f757465724c6f6769633a20696e76616c69642061707049640000604482015260640162000957565b83600081518110620028ea57634e487b7160e01b600052603260045260246000fd5b60200260200101516001600160a01b031663095ea7b382886040518363ffffffff1660e01b81526004016200292192919062003c8d565b602060405180830381600087803b1580156200293c57600080fd5b505af115801562002951573d6000803e3d6000fd5b505050506040513d601f19601f82011682018060405250810190620029779190620033a7565b506040516326d2f28960e21b81526001600160a01b03821690639b4bca2490620029a690879060040162003e90565b60206040518083038186803b158015620029bf57600080fd5b505afa158015620029d4573d6000803e3d6000fd5b505050506040513d601f19601f82011682018060405250810190620029fa9190620033a7565b1562002a9e5760405163161779b160e31b81526001600160a01b0382169063b0bbcd889062002a39908990899089908d904290600190600401620041e3565b600060405180830381600087803b15801562002a5457600080fd5b505af115801562002a69573d6000803e3d6000fd5b505050506040513d6000823e601f3d908101601f1916820160405262002a939190810190620033c4565b909350915062002aa3565b600092505b509550959350505050565b6001606555565b600054610100900460ff1662002adf5760405162461bcd60e51b8152600401620009579062003fd3565b6200186e62002eb7565b600054610100900460ff1662002b135760405162461bcd60e51b8152600401620009579062003fd3565b6200186e62002eec565b62002b4260405180606001604052806000815260200160008152602001600081525090565b60008073C2276ee54B85Da9c7F61872Bf6e1C761dE170B396394d8bc6a33609954609a5460a460a78e8d8d8d6040518a63ffffffff1660e01b815260040162002b949998979695949392919062003e27565b60a06040518083038186803b15801562002bad57600080fd5b505af415801562002bc2573d6000803e3d6000fd5b505050506040513d601f19601f8201168201806040525081019062002be891906200378f565b609b80549396509194509250600062002c0183620042f8565b9091555050609d54835160405163a9059cbb60e01b81526001600160a01b038a81169363a9059cbb9362002c3d93929091169160040162003c8d565b602060405180830381600087803b15801562002c5857600080fd5b505af115801562002c6d573d6000803e3d6000fd5b505050506040513d601f19601f8201168201806040525081019062002c939190620033a7565b50609e54602084015160405163a9059cbb60e01b81526001600160a01b038a81169363a9059cbb9362002cce93929091169160040162003c8d565b602060405180830381600087803b15801562002ce957600080fd5b505af115801562002cfe573d6000803e3d6000fd5b505050506040513d601f19601f8201168201806040525081019062002d249190620033a7565b506001600160a01b0382161562002dc057604080840151905163a9059cbb60e01b81526001600160a01b0389169163a9059cbb9162002d6891869160040162003c8d565b602060405180830381600087803b15801562002d8357600080fd5b505af115801562002d98573d6000803e3d6000fd5b505050506040513d601f19601f8201168201806040525081019062002dbe9190620033a7565b505b609e5460a85462002ddb916001600160a01b03169062002f16565b604051630852cd8d60e31b8152600481018290526001600160a01b038816906342966c6890602401602060405180830381600087803b15801562002e1e57600080fd5b505af115801562002e33573d6000803e3d6000fd5b505050506040513d601f19601f8201168201806040525081019062002e599190620033a7565b50955095509592505050565b603380546001600160a01b038381166001600160a01b0319831681179093556040519116919082907f8be0079c531659141344cd1fd0a4f28419497f9722a3daafe3b4186f6b6457e090600090a35050565b600054610100900460ff1662002ee15760405162461bcd60e51b8152600401620009579062003fd3565b6200186e3362002e65565b600054610100900460ff1662002aae5760405162461bcd60e51b8152600401620009579062003fd3565b8047101562002f685760405162461bcd60e51b815260206004820152601d60248201527f416464726573733a20696e73756666696369656e742062616c616e6365000000604482015260640162000957565b6000826001600160a01b03168260405160006040518083038185875af1925050503d806000811462002fb7576040519150601f19603f3d011682016040523d82523d6000602084013e62002fbc565b606091505b5050905080620030325760405162461bcd60e51b815260206004820152603a60248201527f416464726573733a20756e61626c6520746f2073656e642076616c75652c20726044820152791958da5c1a595b9d081b585e481a185d99481c995d995c9d195960321b606482015260840162000957565b505050565b610f2c806200435983390190565b8280546200305390620042bb565b90600052602060002090601f016020900481019282620030775760008555620030c2565b82601f106200309257805160ff1916838001178555620030c2565b82800160010185558215620030c2579182015b82811115620030c2578251825591602001919060010190620030a5565b50620030d09291506200310e565b5090565b508054620030e290620042bb565b6000825580601f10620030f3575050565b601f0160209004906000526020600020908101906200279c91905b5b80821115620030d057600081556001016200310f565b600082601f83011262003136578081fd5b813560206200314f620031498362004260565b6200422d565b80838252828201915082860187848660051b89010111156200316f578586fd5b855b858110156200319a578135620031878162004342565b8452928401929084019060010162003171565b5090979650505050505050565b600082601f830112620031b8578081fd5b81356020620031cb620031498362004260565b80838252828201915082860187848660051b8901011115620031eb578586fd5b855b858110156200319a57813584529284019290840190600101620031ed565b805180151581146200321c57600080fd5b919050565b80356001600160e01b0319811681146200321c57600080fd5b60008083601f8401126200324c578182fd5b5081356001600160401b0381111562003263578182fd5b6020830191508360208285010111156200327c57600080fd5b9250929050565b600082601f83011262003294578081fd5b81356001600160401b03811115620032b057620032b06200432c565b620032c5601f8201601f19166020016200422d565b818152846020838601011115620032da578283fd5b816020850160208301379081016020019190915292915050565b8035600681106200321c57600080fd5b60006060828403121562003316578081fd5b604051606081016001600160401b03811182821017156200333b576200333b6200432c565b80604052508091508251815260208301516020820152604083015160408201525092915050565b60006020828403121562003374578081fd5b8135620033818162004342565b9392505050565b6000602082840312156200339a578081fd5b8151620033818162004342565b600060208284031215620033b9578081fd5b62003381826200320b565b60008060408385031215620033d7578081fd5b620033e2836200320b565b602084810151919350906001600160401b0381111562003400578283fd5b8401601f8101861362003411578283fd5b805162003422620031498262004260565b80828252848201915084840189868560051b870101111562003442578687fd5b8694505b838510156200346657805183526001949094019391850191850162003446565b5080955050505050509250929050565b60006020828403121562003488578081fd5b5035919050565b600060208284031215620034a1578081fd5b5051919050565b6000806000806000806000806000806101008b8d031215620034c8578586fd5b620034d38b62003221565b995060208b01356001600160401b0380821115620034ef578788fd5b620034fd8e838f0162003283565b9a5060408d013591508082111562003513578788fd5b620035218e838f016200323a565b909a5098508891506200353760608e0162003221565b975060808d0135965060a08d013591508082111562003554578586fd5b620035628e838f016200323a565b909650945060c08d0135935060e08d013591508082111562003582578283fd5b50620035918d828e0162003125565b9150509295989b9194979a5092959850565b600080600080600080600080610100898b031215620035c0578182fd5b620035cb8962003221565b975060208901356001600160401b0380821115620035e7578384fd5b620035f58c838d0162003283565b985060408b01359150808211156200360b578384fd5b620036198c838d0162003283565b97506200362960608c0162003221565b965060808b0135955060a08b013591508082111562003646578384fd5b620036548c838d0162003283565b945060c08b0135935060e08b013591508082111562003671578283fd5b50620036808b828c01620031a7565b9150509295985092959890939650565b60008060408385031215620036a3578182fd5b82356001600160401b03811115620036b9578283fd5b620036c78582860162003283565b925050620036d860208401620032f4565b90509250929050565b600080600080600060a08688031215620036f9578283fd5b85356001600160401b038082111562003710578485fd5b6200371e89838a0162003283565b9650602088013591508082111562003734578485fd5b6200374289838a0162003283565b9550604088013591508082111562003758578485fd5b50620037678882890162003283565b935050606086013560ff811681146200377e578182fd5b949793965091946080013592915050565b600080600060a08486031215620037a4578081fd5b620037b0858562003304565b92506060840151620037c28162004342565b80925050608084015190509250925092565b60008060408385031215620037e7578182fd5b823591506020830135620037fb8162004342565b809150509250929050565b6000806000606084860312156200381b578081fd5b8335925060208401356200382f8162004342565b929592945050506040919091013590565b60008060008060c0858703121562003856578182fd5b8451935062003869866020870162003304565b925060808501516200387b8162004342565b60a08601519092506200388e8162004342565b939692955090935050565b60008060008060008060008060006101208a8c031215620038b8578283fd5b8935985060208a0135975060408a0135965060608a0135620038da8162004342565b955060808a0135620038ec8162004342565b945060a08a01356001600160401b0381111562003907578384fd5b620039158c828d0162003283565b9450506200392660c08b01620032f4565b925060e08a0135620039388162004342565b91506101008a01356200394b8162004342565b809150509295985092959850929598565b600080600080600080600080610100898b03121562003979578182fd5b88359750602089013596506040890135955060608901356001600160401b0380821115620039a5578384fd5b620039b38c838d0162003283565b9650620039c360808c01620032f4565b955060a08b0135945060c08b0135935060e08b0135915080821115620039e7578283fd5b50620036808b828c0162003125565b6000815180845260208085019450808401835b8381101562003a305781516001600160a01b03168752958201959082019060010162003a09565b509495945050505050565b81835281816020850137506000828201602090810191909152601f909101601f19169091010190565b60008151808452815b8181101562003a8b5760208185018101518683018201520162003a6d565b8181111562003a9d5782602083870101525b50601f01601f19169290920160200192915050565b6006811062003ad157634e487b7160e01b600052602160045260246000fd5b9052565b8051825260208082015190830152604090810151910152565b6001600160a01b0391909116815260200190565b6001600160a01b0392831681529116602082015260400190565b6001600160a01b0384811682528316602082015260606040820181905260009062003b4a9083018462003a64565b95945050505050565b6001600160a01b039384168152919092166020820152604081019190915260600190565b6001600160a01b038b811682526101806020830181905260009162003b9f8483018e62003a64565b925062003bb0604085018d62003ab2565b808b1660608501528960808501528860a085015262003bd360c085018962003ad5565b866101208501528086166101408501525050826101608301529b9a5050505050505050505050565b600060018060a01b03808f1683526101c0602084015262003c216101c084018f62003a64565b915062003c32604084018e62003ab2565b8b6060840152808b1660808401528960a08401528860c084015280881660e084015262003c6461010084018862003ad5565b8561016084015280851661018084015250826101a08301529d9c50505050505050505050505050565b6001600160a01b03929092168252602082015260400190565b6001600160a01b03878116825260208201879052858116604083015261010082019062003cd7606084018762003ad5565b9390931660c082015260e00152949350505050565b6001600160a01b03898116825260208201899052878116604083015260608201879052858116608083015261014082019062003d2c60a084018762003ad5565b9390931661010082015261012001529695505050505050565b6001600160a01b0386168152602080820186905260a060408301528454600091908290600181811c908281168062003d7e57607f831692505b85831081141562003d9d57634e487b7160e01b87526022600452602487fd5b60a0880183905260c0880181801562003dbf576001811462003dd15762003dfd565b60ff1986168252878201965062003dfd565b60008d815260209020895b8681101562003df75781548482015290850190890162003ddc565b83019750505b505050505050809250505062003e17606083018562003ab2565b8260808301529695505050505050565b600061012060018060a01b038c1683528a60208401528960408401528860608401528760808401528660a08401528560c08401528060e084015262003e6f8184018662003a64565b91505062003e8261010083018462003ab2565b9a9950505050505050505050565b602081526000620033816020830184620039f6565b871515815286602082015285604082015284606082015260018060a01b038416608082015260e060a0820152600062003ee260e083018562003a64565b905062003ef360c083018462003ab2565b98975050505050505050565b60208152600062003381602083018462003a64565b6020810162000cde828462003ab2565b60e08152600062003f3960e083018a62003a64565b828103602084015262003f4d818a62003a64565b9050828103604084015262003f63818962003a64565b60ff979097166060840152505060808101939093526001600160a01b0391821660a08401521660c0909101529392505050565b60608152600062003fab606083018662003a64565b828103602084015262003fbf818662003a64565b91505060ff83166040830152949350505050565b6020808252602b908201527f496e697469616c697a61626c653a20636f6e7472616374206973206e6f74206960408201526a6e697469616c697a696e6760a81b606082015260800190565b6020808252601d908201527f52756e65526f757465724c6f6769633a207a65726f2061646472657373000000604082015260600190565b9182526001600160a01b0316602082015260400190565b8b81526001600160a01b038b1660208201526001600160e01b03198a8116604083015261012060608301819052600091620040aa8483018d62003a64565b91508382036080850152620040c1828b8d62003a3b565b915080891660a0850152508660c084015282810360e0840152620040e781868862003a3b565b915050826101008301529c9b505050505050505050505050565b8981526001600160a01b03891660208201526001600160e01b03198881166040830152610120606083018190526000916200413f8483018b62003a64565b9150838203608085015262004155828a62003a64565b915080881660a0850152508560c084015282810360e08401526200417a818662003a64565b915050826101008301529a9950505050505050505050565b60006101008b8352806020840152620041af8184018b8d62003a3b565b604084019990995250506060810195909552608085019390935260a084019190915260c083015260e0909101529392505050565b86815285602082015260c0604082015260006200420460c0830187620039f6565b6001600160a01b03959095166060830152506080810192909252151560a0909101529392505050565b604051601f8201601f191681016001600160401b03811182821017156200425857620042586200432c565b604052919050565b60006001600160401b038211156200427c576200427c6200432c565b5060051b60200190565b600082198211156200429c576200429c62004316565b500190565b600082821015620042b657620042b662004316565b500390565b600181811c90821680620042d057607f821691505b60208210811415620042f257634e487b7160e01b600052602260045260246000fd5b50919050565b60006000198214156200430f576200430f62004316565b5060010190565b634e487b7160e01b600052601160045260246000fd5b634e487b7160e01b600052604160045260246000fd5b6001600160a01b03811681146200279c57600080fdfe608060405260405162000f2c38038062000f2c8339810160408190526200002691620004e0565b82828282816200005860017f360894a13ba1a3210667c828492db98dca3e2076cc3735a920a3ca505d382bbd6200060f565b60008051602062000ee5833981519152146200008457634e487b7160e01b600052600160045260246000fd5b620000928282600062000105565b50620000c2905060017fb53127684a568b3173ae13b9f8a6016e243e63b6e8ee1178d6a717850b5d61046200060f565b60008051602062000ec583398151915214620000ee57634e487b7160e01b600052600160045260246000fd5b620000f98262000142565b50505050505062000678565b62000110836200019d565b6000825111806200011e5750805b156200013d576200013b8383620001df60201b620002601760201c565b505b505050565b7f7e644d79422f17c01e4894b5f4f588d331ebfa28653d42ae832dc59e38c9798f6200016d6200020e565b604080516001600160a01b03928316815291841660208301520160405180910390a16200019a8162000247565b50565b620001a881620002fc565b6040516001600160a01b038216907fbc7cd75a20ee27fd9adebab32041f755214dbc6bffa90cc0225b39da2e5c2d3b90600090a250565b606062000207838360405180606001604052806027815260200162000f05602791396200039f565b9392505050565b60006200023860008051602062000ec583398151915260001b6200047c60201b620002081760201c565b546001600160a01b0316919050565b6001600160a01b038116620002b25760405162461bcd60e51b815260206004820152602660248201527f455243313936373a206e65772061646d696e20697320746865207a65726f206160448201526564647265737360d01b60648201526084015b60405180910390fd5b80620002db60008051602062000ec583398151915260001b6200047c60201b620002081760201c565b80546001600160a01b0319166001600160a01b039290921691909117905550565b62000312816200047f60201b6200028c1760201c565b620003765760405162461bcd60e51b815260206004820152602d60248201527f455243313936373a206e657720696d706c656d656e746174696f6e206973206e60448201526c1bdd08184818dbdb9d1c9858dd609a1b6064820152608401620002a9565b80620002db60008051602062000ee583398151915260001b6200047c60201b620002081760201c565b6060833b620004005760405162461bcd60e51b815260206004820152602660248201527f416464726573733a2064656c65676174652063616c6c20746f206e6f6e2d636f6044820152651b9d1c9858dd60d21b6064820152608401620002a9565b600080856001600160a01b0316856040516200041d9190620005bc565b600060405180830381855af49150503d80600081146200045a576040519150601f19603f3d011682016040523d82523d6000602084013e6200045f565b606091505b5090925090506200047282828662000485565b9695505050505050565b90565b3b151590565b606083156200049657508162000207565b825115620004a75782518084602001fd5b8160405162461bcd60e51b8152600401620002a99190620005da565b80516001600160a01b0381168114620004db57600080fd5b919050565b600080600060608486031215620004f5578283fd5b6200050084620004c3565b92506200051060208501620004c3565b60408501519092506001600160401b03808211156200052d578283fd5b818601915086601f83011262000541578283fd5b81518181111562000556576200055662000662565b604051601f8201601f19908116603f0116810190838211818310171562000581576200058162000662565b816040528281528960208487010111156200059a578586fd5b620005ad83602083016020880162000633565b80955050505050509250925092565b60008251620005d081846020870162000633565b9190910192915050565b6020815260008251806020840152620005fb81604085016020870162000633565b601f01601f19169190910160400192915050565b6000828210156200062e57634e487b7160e01b81526011600452602481fd5b500390565b60005b838110156200065057818101518382015260200162000636565b838111156200013b5750506000910152565b634e487b7160e01b600052604160045260246000fd5b61083d80620006886000396000f3fe60806040526004361061004e5760003560e01c80633659cfe6146100655780634f1ef286146100855780635c60da1b146100985780638f283970146100c9578063f851a440146100e95761005d565b3661005d5761005b6100fe565b005b61005b6100fe565b34801561007157600080fd5b5061005b61008036600461068e565b610118565b61005b6100933660046106a8565b61015f565b3480156100a457600080fd5b506100ad6101d0565b6040516001600160a01b03909116815260200160405180910390f35b3480156100d557600080fd5b5061005b6100e436600461068e565b61020b565b3480156100f557600080fd5b506100ad610235565b610106610292565b610116610111610331565b61033b565b565b61012061035f565b6001600160a01b0316336001600160a01b031614156101575761015481604051806020016040528060008152506000610380565b50565b6101546100fe565b61016761035f565b6001600160a01b0316336001600160a01b031614156101c8576101c38383838080601f01602080910402602001604051908101604052809392919081815260200183838082843760009201919091525060019250610380915050565b505050565b6101c36100fe565b60006101da61035f565b6001600160a01b0316336001600160a01b03161415610200576101fb610331565b905090565b6102086100fe565b90565b61021361035f565b6001600160a01b0316336001600160a01b0316141561015757610154816103ab565b600061023f61035f565b6001600160a01b0316336001600160a01b03161415610200576101fb61035f565b606061028583836040518060600160405280602781526020016107e1602791396103ff565b9392505050565b3b151590565b61029a61035f565b6001600160a01b0316336001600160a01b031614156101165760405162461bcd60e51b815260206004820152604260248201527f5472616e73706172656e745570677261646561626c6550726f78793a2061646d60448201527f696e2063616e6e6f742066616c6c6261636b20746f2070726f78792074617267606482015261195d60f21b608482015260a4015b60405180910390fd5b60006101fb6104d3565b3660008037600080366000845af43d6000803e80801561035a573d6000f35b3d6000fd5b60006000805160206107a18339815191525b546001600160a01b0316919050565b610389836104e9565b6000825111806103965750805b156101c3576103a58383610260565b50505050565b7f7e644d79422f17c01e4894b5f4f588d331ebfa28653d42ae832dc59e38c9798f6103d461035f565b604080516001600160a01b03928316815291841660208301520160405180910390a161015481610529565b6060833b61045e5760405162461bcd60e51b815260206004820152602660248201527f416464726573733a2064656c65676174652063616c6c20746f206e6f6e2d636f6044820152651b9d1c9858dd60d21b6064820152608401610328565b600080856001600160a01b0316856040516104799190610725565b600060405180830381855af49150503d80600081146104b4576040519150601f19603f3d011682016040523d82523d6000602084013e6104b9565b606091505b50915091506104c98282866105c0565b9695505050505050565b60006000805160206107c1833981519152610371565b6104f2816105f9565b6040516001600160a01b038216907fbc7cd75a20ee27fd9adebab32041f755214dbc6bffa90cc0225b39da2e5c2d3b90600090a250565b6001600160a01b03811661058e5760405162461bcd60e51b815260206004820152602660248201527f455243313936373a206e65772061646d696e20697320746865207a65726f206160448201526564647265737360d01b6064820152608401610328565b806000805160206107a18339815191525b80546001600160a01b0319166001600160a01b039290921691909117905550565b606083156105cf575081610285565b8251156105df5782518084602001fd5b8160405162461bcd60e51b81526004016103289190610741565b803b61065d5760405162461bcd60e51b815260206004820152602d60248201527f455243313936373a206e657720696d706c656d656e746174696f6e206973206e60448201526c1bdd08184818dbdb9d1c9858dd609a1b6064820152608401610328565b806000805160206107c183398151915261059f565b80356001600160a01b038116811461068957600080fd5b919050565b60006020828403121561069f578081fd5b61028582610672565b6000806000604084860312156106bc578182fd5b6106c584610672565b925060208401356001600160401b03808211156106e0578384fd5b818601915086601f8301126106f3578384fd5b813581811115610701578485fd5b876020828501011115610712578485fd5b6020830194508093505050509250925092565b60008251610737818460208701610774565b9190910192915050565b6020815260008251806020840152610760816040850160208701610774565b601f01601f19169190910160400192915050565b60005b8381101561078f578181015183820152602001610777565b838111156103a5575050600091015256feb53127684a568b3173ae13b9f8a6016e243e63b6e8ee1178d6a717850b5d6103360894a13ba1a3210667c828492db98dca3e2076cc3735a920a3ca505d382bbc416464726573733a206c6f772d6c6576656c2064656c65676174652063616c6c206661696c6564a264697066735822122064b11b2157d61600a09abbd0eaeb0a67e43f14e3005703114add6fac6fd353ec64736f6c63430008040033b53127684a568b3173ae13b9f8a6016e243e63b6e8ee1178d6a717850b5d6103360894a13ba1a3210667c828492db98dca3e2076cc3735a920a3ca505d382bbc416464726573733a206c6f772d6c6576656c2064656c65676174652063616c6c206661696c6564a2646970667358221220f80ff2c533ca244e9606f6886fd857c74b48261bda4d2c71e9eb36bc87645c1964736f6c63430008040033",
  "deployedBytecode": "0x608060405260043610620002045760003560e01c8063023e25b41462000211578063068bf8741462000263578063088302a6146200028a5780630e72e41e14620002b1578063171060ec14620002e75780631812adb6146200030c5780631e7107c714620003335780633669391e1462000358578063402e01f8146200037057806349c544e1146200039557806350d7446814620003ac57806361d027b314620003d15780636390802014620003f35780636b2857ef146200040b5780636e8adf61146200043057806370872aa5146200046a578063715018a6146200048257806375122f62146200049a5780637ed5574814620004bf578063839ae1d714620004e45780638be727e114620004fb5780638da5cb5b14620005205780639637e4a814620005385780639a8a0592146200055d5780639aed427914620005755780639eca4453146200058d578063a3696a0914620005e1578063a44c2b9a1462000606578063ae2a74ee146200062b578063b3ff9f49146200065c578063b4e183f41462000683578063b59589d114620006a8578063c805f68b14620006ca578063d4603f4c14620006ef578063d7b96d4e1462000729578063d8484ef5146200074b578063e76507881462000776578063e91ffefd146200086a578063ef0e2ff41462000881578063f0f4426014620008a6578063f2fde38b14620008cb57600080fd5b366200020c57005b600080fd5b3480156200021e57600080fd5b506200024b6200023036600462003476565b609f602052600090815260409020546001600160a01b031681565b6040516200025a919062003aee565b60405180910390f35b3480156200027057600080fd5b506200028862000282366004620036e1565b620008f0565b005b3480156200029757600080fd5b50620002a262000c00565b6040516200025a919062003eff565b348015620002be57600080fd5b50620002d6620002d036600462003476565b62000c96565b60405190151581526020016200025a565b348015620002f457600080fd5b50620002886200030636600462003362565b62000ce4565b3480156200031957600080fd5b506200032460995481565b6040519081526020016200025a565b3480156200034057600080fd5b50620002886200035236600462003476565b62000d84565b3480156200036557600080fd5b5062000324609b5481565b3480156200037d57600080fd5b50620002a26200038f36600462003362565b62000de4565b62000288620003a6366004620034a8565b62000dff565b348015620003b957600080fd5b5062000288620003cb36600462003899565b62001672565b348015620003de57600080fd5b50609d546200024b906001600160a01b031681565b3480156200040057600080fd5b5062000324609a5481565b3480156200041857600080fd5b50620002886200042a366004620037d4565b620017f1565b3480156200043d57600080fd5b506200024b6200044f36600462003476565b60a3602052600090815260409020546001600160a01b031681565b3480156200047757600080fd5b506200032460975481565b3480156200048f57600080fd5b506200028862001864565b348015620004a757600080fd5b5062000288620004b936600462003806565b62001870565b348015620004cc57600080fd5b5062000288620004de36600462003476565b62001931565b62000288620004f5366004620035a3565b620019d0565b3480156200050857600080fd5b50620002886200051a36600462003476565b62001e41565b3480156200052d57600080fd5b506200024b62001f41565b3480156200054557600080fd5b50620002886200055736600462003476565b62001f50565b3480156200056a57600080fd5b506200032460985481565b3480156200058257600080fd5b506200032460a85481565b3480156200059a57600080fd5b50620005d1620005ac36600462003476565b60a760205260009081526040902080546001909101546001600160a01b039091169082565b6040516200025a92919062003c8d565b348015620005ee57600080fd5b50620002886200060036600462003362565b62001f9b565b3480156200061357600080fd5b50620002d66200062536600462003476565b62002048565b3480156200063857600080fd5b50620003246200064a36600462003362565b60a16020526000908152604090205481565b3480156200066957600080fd5b5060a6546200024b9061010090046001600160a01b031681565b3480156200069057600080fd5b5062000288620006a236600462003690565b62002067565b348015620006b557600080fd5b50609c546200024b906001600160a01b031681565b348015620006d757600080fd5b5062000288620006e936600462003362565b620020be565b348015620006fc57600080fd5b50620007146200070e36600462003476565b6200215e565b6040516200025a979695949392919062003ea5565b3480156200073657600080fd5b50609e546200024b906001600160a01b031681565b3480156200075857600080fd5b5060a654620007679060ff1681565b6040516200025a919062003f14565b3480156200078357600080fd5b50620008006200079536600462003476565b60a260205260009081526040902080546001820154600283015460038401546004850154600586015460068701546007880154600889015460098a0154600a909a015460ff9099169997989697959694956001600160a01b039485169593851694929391929091168b565b604080519b15158c5260208c019a909a52988a0197909752606089019590955260808801939093526001600160a01b0391821660a0880152811660c087015260e086019190915261010085019190915261012084019190915216610140820152610160016200025a565b620002886200087b3660046200395c565b62002252565b3480156200088e57600080fd5b5062000288620008a036600462003476565b62002671565b348015620008b357600080fd5b5062000288620008c536600462003362565b62002680565b348015620008d857600080fd5b5062000288620008ea36600462003362565b62002720565b620008fa6200279f565b6000818152609f60205260409020546001600160a01b031615620009605760405162461bcd60e51b8152602060048201526018602482015277149d5b99549bdd5d195c931bd9da58ce881d5cd959081a5960421b60448201526064015b60405180910390fd5b600073__$67e4a81169bd42f3bd76691a8cba760d26$__6374c6d02c6040518163ffffffff1660e01b815260040160206040518083038186803b158015620009a757600080fd5b505af4158015620009bc573d6000803e3d6000fd5b505050506040513d601f19601f82011682018060405250810190620009e2919062003388565b90506060600082620009f362001f41565b8360405162000a029062003037565b62000a109392919062003b1c565b604051809103906000f08015801562000a2d573d6000803e3d6000fd5b50604051630b127b6360e11b815290915081906001600160a01b03821690631624f6c69062000a65908c908c908b9060040162003f96565b600060405180830381600087803b15801562000a8057600080fd5b505af115801562000a95573d6000803e3d6000fd5b5050604051634c1d96ab60e11b81526001600160a01b038416925063983b2d56915062000ac790309060040162003aee565b600060405180830381600087803b15801562000ae257600080fd5b505af115801562000af7573d6000803e3d6000fd5b5050604051637a231bdd60e11b81526001600160a01b038416925063f44637ba915062000b2990309060040162003aee565b600060405180830381600087803b15801562000b4457600080fd5b505af115801562000b59573d6000803e3d6000fd5b5050506000868152609f6020908152604080832080546001600160a01b0319166001600160a01b038716908117909155835260a1825280832089905560a08252909120895162000baf935090918a019062003045565b507f175ec5a73d18c14429b1199d5fac7097c1c021f98a45d4bcfdeddedfbcc04f3c8989898989868a60405162000bed979695949392919062003f24565b60405180910390a1505050505050505050565b60a5805462000c0f90620042bb565b80601f016020809104026020016040519081016040528092919081815260200182805462000c3d90620042bb565b801562000c8e5780601f1062000c625761010080835404028352916020019162000c8e565b820191906000526020600020905b81548152906001019060200180831162000c7057829003601f168201915b505050505081565b600060a4828154811062000cba57634e487b7160e01b600052603260045260246000fd5b600091825260209091206007909102015460ff1662000cdb57600062000cde565b60015b92915050565b806001600160a01b03811662000d0e5760405162461bcd60e51b815260040162000957906200401e565b62000d186200279f565b609e546040517f69253c7023f628e3a302b63087a3bfc1dfdb256780182f81b9f0df9eff9542b09162000d59916001600160a01b0390911690859062003b02565b60405180910390a150609e80546001600160a01b0319166001600160a01b0392909216919091179055565b62000d8e6200279f565b609754811162000ddf5760405162461bcd60e51b815260206004820152601b60248201527a293ab732a937baba32b92637b3b4b19d103637bb90373ab6b132b960291b604482015260640162000957565b609755565b60a0602052600090815260409020805462000c0f90620042bb565b62000e0962002802565b60a65461010090046001600160a01b0316336001600160a01b03161462000e735760405162461bcd60e51b815260206004820152601f60248201527f52756e65526f757465724c6f6769633a206e6f742074656c65706f7274657200604482015260640162000957565b600073__$67e4a81169bd42f3bd76691a8cba760d26$__63e291283d609754609c60009054906101000a90046001600160a01b03168e8e8e8e8e8e8e8e8e6040518c63ffffffff1660e01b815260040162000ed99b9a999897969594939291906200406c565b60206040518083038186803b15801562000ef257600080fd5b505af415801562000f07573d6000803e3d6000fd5b505050506040513d601f19601f8201168201806040525081019062000f2d91906200348f565b905060008060008073__$67e4a81169bd42f3bd76691a8cba760d26$__63d27fd71f6098548f8f8960a2609f60a7609954609a546040518a63ffffffff1660e01b815260040162000f879998979695949392919062004192565b60c06040518083038186803b15801562000fa057600080fd5b505af415801562000fb5573d6000803e3d6000fd5b505050506040513d601f19601f8201168201806040525081019062000fdb919062003840565b9350935093509350806001600160a01b03166340c10f1930868660400151876020015188600001516200100f919062004286565b6200101b919062004286565b62001027919062004286565b6040518363ffffffff1660e01b81526004016200104692919062003c8d565b602060405180830381600087803b1580156200106157600080fd5b505af115801562001076573d6000803e3d6000fd5b505050506040513d601f19601f820116820180604052508101906200109c9190620033a7565b50609d54835160405163a9059cbb60e01b81526001600160a01b038481169363a9059cbb93620010d493929091169160040162003c8d565b602060405180830381600087803b158015620010ef57600080fd5b505af115801562001104573d6000803e3d6000fd5b505050506040513d601f19601f820116820180604052508101906200112a9190620033a7565b50609e54602084015160405163a9059cbb60e01b81526001600160a01b038481169363a9059cbb936200116593929091169160040162003c8d565b602060405180830381600087803b1580156200118057600080fd5b505af115801562001195573d6000803e3d6000fd5b505050506040513d601f19601f82011682018060405250810190620011bb9190620033a7565b506001600160a01b038216156200125757604080840151905163a9059cbb60e01b81526001600160a01b0383169163a9059cbb91620011ff91869160040162003c8d565b602060405180830381600087803b1580156200121a57600080fd5b505af11580156200122f573d6000803e3d6000fd5b505050506040513d601f19601f82011682018060405250810190620012559190620033a7565b505b600085815260a26020908152604091829020825161016081018452815460ff16151581526001820154928101929092526002810154928201839052600381015460608301526004810154608083015260058101546001600160a01b0390811660a08401526006820154811660c0840152600782015460e084015260088201546101008401526009820154610120840152600a909101541661014082015290620013d25760c081015160405163a9059cbb60e01b81526001600160a01b0384169163a9059cbb916200132e9190899060040162003c8d565b602060405180830381600087803b1580156200134957600080fd5b505af11580156200135e573d6000803e3d6000fd5b505050506040513d601f19601f82011682018060405250810190620013849190620033a7565b507f43c9c64e3d0a7d664252e89fe26c8958a77098900ebf13f7aa95030a371bc4328160c00151868487878b604051620013c49695949392919062003ca6565b60405180910390a162001655565b8060a001516001600160a01b0316876000815181106200140257634e487b7160e01b600052603260045260246000fd5b60200260200101516001600160a01b03161480156200146e57508061014001516001600160a01b031687600189516200143c9190620042a1565b815181106200145b57634e487b7160e01b600052603260045260246000fd5b60200260200101516001600160a01b0316145b620014ba5760405162461bcd60e51b815260206004820152601b60248201527a0a4eadccaa4deeae8cae498deced2c67440eee4dedcce40e0c2e8d602b1b604482015260640162000957565b600080620014d983604001518460c00151898661012001518d6200285e565b91509150811562001571577fed12b1e275b408eb8b01de7d246293c2daf02f98422b51b0af3012463e2a725e8360c00151888684600186516200151d9190620042a1565b815181106200153c57634e487b7160e01b600052603260045260246000fd5b60200260200101518761014001518b8b8f6040516200156398979695949392919062003cec565b60405180910390a162001652565b7f2eefdda27738a7be93aea5dafceb4d8af2e8e046fd411a8c94bb449508af05a28360c0015188868661012001518761014001518b8b8f604051620015be98979695949392919062003cec565b60405180910390a160c083015160405163a9059cbb60e01b81526001600160a01b0386169163a9059cbb91620015fa91908b9060040162003c8d565b602060405180830381600087803b1580156200161557600080fd5b505af11580156200162a573d6000803e3d6000fd5b505050506040513d601f19601f82011682018060405250810190620016509190620033a7565b505b50505b505050505050620016666001606555565b50505050505050505050565b600054610100900460ff1615808015620016935750600054600160ff909116105b80620016af5750303b158015620016af575060005460ff166001145b620017145760405162461bcd60e51b815260206004820152602e60248201527f496e697469616c697a61626c653a20636f6e747261637420697320616c72656160448201526d191e481a5b9a5d1a585b1a5e995960921b606482015260840162000957565b6000805460ff19166001179055801562001738576000805461ff0019166101001790555b6200174262002ab5565b6200174c62002ae9565b60988890556200175c8a62000d84565b620017678962001931565b6200177287620020be565b6200177d8662000ce4565b62001789858562002067565b620017948362001f9b565b6200179f8262002680565b801562001666576000805461ff0019169055604051600181527f7f26b83ff96e1f2b6a682f133852f6798a09c465da95921460cefb38474024989060200160405180910390a150505050505050505050565b620017fb6200279f565b7f31a8c4e62daac2a3ed5d713004d9ae867d6dcddfa35603db2a4b65d9236b1bc182826040516200182e92919062004055565b60405180910390a1600091825260a3602052604090912080546001600160a01b0319166001600160a01b03909216919091179055565b6200186e6200279f565b565b6200187a6200279f565b600083815260a76020908152604091829020805460019091015483518781526001600160a01b039283169381019390935282840152841660608201526080810183905290517f23385740814648db624aa52a0c990fc42def14e1b04e7fe5b2bf87b85e1294529181900360a00190a16040805180820182526001600160a01b0393841681526020808201938452600095865260a790529320925183546001600160a01b031916921691909117825551600190910155565b6200193b6200279f565b8061271010156200198f5760405162461bcd60e51b815260206004820152601d60248201527f52756e65526f757465724c6f6769633a206f7574206f662072616e6765000000604482015260640162000957565b60995460408051918252602082018390527f7d205f60891f60851c61cd244ba387d72b6589e7c0ac41b9d909ab0ce2c2a53b910160405180910390a1609955565b620019da62002802565b609e546001600160a01b0316336001600160a01b03161462001a3d5760405162461bcd60e51b815260206004820152601b60248201527a293ab732a937baba32b92637b3b4b19d103737ba103637b1b5b2b960291b604482015260640162000957565b609754609c5460405163e291283d60e01b815273__$67e4a81169bd42f3bd76691a8cba760d26$__9263e291283d9262001a94926001600160a01b03909116908d908d908d908d908d908d908d9060040162004101565b60206040518083038186803b15801562001aad57600080fd5b505af415801562001ac2573d6000803e3d6000fd5b505050506040513d601f19601f8201168201806040525081019062001ae891906200348f565b5060005b815181101562001e2b5760a482828151811062001b1957634e487b7160e01b600052603260045260246000fd5b60200260200101518154811062001b4057634e487b7160e01b600052603260045260246000fd5b600091825260209091206007909102015460ff161562001bae5760405162461bcd60e51b815260206004820152602260248201527f52756e65526f757465724c6f6769633a20616c72656164792070726f63657373604482015261195960f21b606482015260840162000957565b600160a483838151811062001bd357634e487b7160e01b600052603260045260246000fd5b60200260200101518154811062001bfa57634e487b7160e01b600052603260045260246000fd5b906000526020600020906007020160000160006101000a81548160ff0219169083151502179055507f42975333d773ba95b24fa6c9b8127fc4a9bc1bafb6293c8c9daa4f6aed0bc34960a483838151811062001c6657634e487b7160e01b600052603260045260246000fd5b60200260200101518154811062001c8d57634e487b7160e01b600052603260045260246000fd5b906000526020600020906007020160040160009054906101000a90046001600160a01b031660a484848151811062001cd557634e487b7160e01b600052603260045260246000fd5b60200260200101518154811062001cfc57634e487b7160e01b600052603260045260246000fd5b90600052602060002090600702016002015460a485858151811062001d3157634e487b7160e01b600052603260045260246000fd5b60200260200101518154811062001d5857634e487b7160e01b600052603260045260246000fd5b906000526020600020906007020160050160a486868151811062001d8c57634e487b7160e01b600052603260045260246000fd5b60200260200101518154811062001db357634e487b7160e01b600052603260045260246000fd5b906000526020600020906007020160060160009054906101000a900460ff1686868151811062001df357634e487b7160e01b600052603260045260246000fd5b602002602001015160405162001e0e95949392919062003d45565b60405180910390a18062001e2281620042f8565b91505062001aec565b5062001e376001606555565b5050505050505050565b62001e4b6200279f565b6000818152609f60205260409020546001600160a01b03168062001eae5760405162461bcd60e51b8152602060048201526019602482015278293ab732a937baba32b92637b3b4b19d103737903a37b5b2b760391b604482015260640162000957565b7ff61991393940604b8433d5f9a855624b8452e131d66e476a45c7139651df9699828260405162001ee192919062004055565b60405180910390a16001600160a01b038116600090815260a06020526040812062001f0c91620030d4565b6001600160a01b0316600090815260a160209081526040808320839055928252609f90522080546001600160a01b0319169055565b6033546001600160a01b031690565b62001f5a6200279f565b60a85460408051918252602082018390527f24a1cf21e7b4eac23dffa41704078ed28bbe2a42187f6aa014899c5413cd01b7910160405180910390a160a855565b806001600160a01b03811662001fc55760405162461bcd60e51b815260040162000957906200401e565b62001fcf6200279f565b7f150b77d21bd499fd0dccea9fe32513c7b65aa34ccde41e7dafac74ace8e19c9460a660019054906101000a90046001600160a01b0316836040516200201792919062003b02565b60405180910390a15060a680546001600160a01b0390921661010002610100600160a81b0319909216919091179055565b600081815260a2602052604081205460ff1662000cdb57600062000cde565b620020716200279f565b8151620020869060a590602085019062003045565b5060a6805482919060ff19166001836005811115620020b557634e487b7160e01b600052602160045260246000fd5b02179055505050565b806001600160a01b038116620020e85760405162461bcd60e51b815260040162000957906200401e565b620020f26200279f565b609c546040517f4c28a3f61a715259c4dc930c23e7423b8fa52e13232c061a6e488729c66184f49162002133916001600160a01b0390911690859062003b02565b60405180910390a150609c80546001600160a01b0319166001600160a01b0392909216919091179055565b60a481815481106200216f57600080fd5b600091825260209091206007909102018054600182015460028301546003840154600485015460058601805460ff90961697509395929491936001600160a01b039091169291620021c090620042bb565b80601f0160208091040260200160405190810160405280929190818152602001828054620021ee90620042bb565b80156200223f5780601f1062002213576101008083540402835291602001916200223f565b820191906000526020600020905b8154815290600101906020018083116200222157829003601f168201915b5050506006909301549192505060ff1687565b6200225c62002802565b6000878152609f60205260409020546001600160a01b031680620022c35760405162461bcd60e51b815260206004820152601e60248201527f52756e65526f757465724c6f6769633a206e6f7420737570706f727465640000604482015260640162000957565b60a8543414620023135760405162461bcd60e51b815260206004820152601a60248201527952756e65526f757465724c6f6769633a2077726f6e672066656560301b604482015260640162000957565b8151156200247357816000815181106200233d57634e487b7160e01b600052603260045260246000fd5b60200260200101516001600160a01b03166323b872dd3330866040518463ffffffff1660e01b8152600401620023769392919062003b53565b602060405180830381600087803b1580156200239157600080fd5b505af1158015620023a6573d6000803e3d6000fd5b505050506040513d601f19601f82011682018060405250810190620023cc9190620033a7565b50600080620023df8630878c886200285e565b9150915081620024315760405162461bcd60e51b815260206004820152601c60248201527b149d5b99549bdd5d195c931bd9da58ce881cddd85c0819985a5b195960221b604482015260640162000957565b8060018251620024429190620042a1565b815181106200246157634e487b7160e01b600052603260045260246000fd5b60200260200101519850505062002549565b6040516323b872dd60e01b81526001600160a01b038216906323b872dd90620024a590339030908c9060040162003b53565b602060405180830381600087803b158015620024c057600080fd5b505af1158015620024d5573d6000803e3d6000fd5b505050506040513d601f19601f82011682018060405250810190620024fb9190620033a7565b620025495760405162461bcd60e51b815260206004820181905260248201527f52756e65526f757465724c6f6769633a207472616e73666572206661696c6564604482015260640162000957565b60008060006200255d8c858c8c8c62002b1d565b925092509250845160001415620025d4577f7ded23d6204f0918dc93f275df51659538e59e8aaf5698ce1f49180c22857b53338a8a878e868960a8548a600160a480549050620025ae9190620042a1565b604051620025c69a9998979695949392919062003b77565b60405180910390a162002662565b7fe17d30e84f141d5effc904ed29262988eb565f53a8c01270148776b88451bb71338a8a89896000815181106200261b57634e487b7160e01b600052603260045260246000fd5b60200260200101518f878b8b60a8548c600160a4805490506200263f9190620042a1565b604051620026599c9b9a9998979695949392919062003bfb565b60405180910390a15b5050505062001e376001606555565b6200267b6200279f565b609855565b806001600160a01b038116620026aa5760405162461bcd60e51b815260040162000957906200401e565b620026b46200279f565b609d546040517f567657fa3f286518b318f4a29870674f433f622fdfc819691acb13105b22822591620026f5916001600160a01b0390911690859062003b02565b60405180910390a150609d80546001600160a01b0319166001600160a01b0392909216919091179055565b6200272a6200279f565b6001600160a01b038116620027915760405162461bcd60e51b815260206004820152602660248201527f4f776e61626c653a206e6577206f776e657220697320746865207a65726f206160448201526564647265737360d01b606482015260840162000957565b6200279c8162002e65565b50565b33620027aa62001f41565b6001600160a01b0316146200186e5760405162461bcd60e51b815260206004820181905260248201527f4f776e61626c653a2063616c6c6572206973206e6f7420746865206f776e6572604482015260640162000957565b60026065541415620028575760405162461bcd60e51b815260206004820152601f60248201527f5265656e7472616e637947756172643a207265656e7472616e742063616c6c00604482015260640162000957565b6002606555565b600085815260a360205260408120546060906001600160a01b031680620028c85760405162461bcd60e51b815260206004820152601e60248201527f52756e65526f757465724c6f6769633a20696e76616c69642061707049640000604482015260640162000957565b83600081518110620028ea57634e487b7160e01b600052603260045260246000fd5b60200260200101516001600160a01b031663095ea7b382886040518363ffffffff1660e01b81526004016200292192919062003c8d565b602060405180830381600087803b1580156200293c57600080fd5b505af115801562002951573d6000803e3d6000fd5b505050506040513d601f19601f82011682018060405250810190620029779190620033a7565b506040516326d2f28960e21b81526001600160a01b03821690639b4bca2490620029a690879060040162003e90565b60206040518083038186803b158015620029bf57600080fd5b505afa158015620029d4573d6000803e3d6000fd5b505050506040513d601f19601f82011682018060405250810190620029fa9190620033a7565b1562002a9e5760405163161779b160e31b81526001600160a01b0382169063b0bbcd889062002a39908990899089908d904290600190600401620041e3565b600060405180830381600087803b15801562002a5457600080fd5b505af115801562002a69573d6000803e3d6000fd5b505050506040513d6000823e601f3d908101601f1916820160405262002a939190810190620033c4565b909350915062002aa3565b600092505b509550959350505050565b6001606555565b600054610100900460ff1662002adf5760405162461bcd60e51b8152600401620009579062003fd3565b6200186e62002eb7565b600054610100900460ff1662002b135760405162461bcd60e51b8152600401620009579062003fd3565b6200186e62002eec565b62002b4260405180606001604052806000815260200160008152602001600081525090565b60008073__$67e4a81169bd42f3bd76691a8cba760d26$__6394d8bc6a33609954609a5460a460a78e8d8d8d6040518a63ffffffff1660e01b815260040162002b949998979695949392919062003e27565b60a06040518083038186803b15801562002bad57600080fd5b505af415801562002bc2573d6000803e3d6000fd5b505050506040513d601f19601f8201168201806040525081019062002be891906200378f565b609b80549396509194509250600062002c0183620042f8565b9091555050609d54835160405163a9059cbb60e01b81526001600160a01b038a81169363a9059cbb9362002c3d93929091169160040162003c8d565b602060405180830381600087803b15801562002c5857600080fd5b505af115801562002c6d573d6000803e3d6000fd5b505050506040513d601f19601f8201168201806040525081019062002c939190620033a7565b50609e54602084015160405163a9059cbb60e01b81526001600160a01b038a81169363a9059cbb9362002cce93929091169160040162003c8d565b602060405180830381600087803b15801562002ce957600080fd5b505af115801562002cfe573d6000803e3d6000fd5b505050506040513d601f19601f8201168201806040525081019062002d249190620033a7565b506001600160a01b0382161562002dc057604080840151905163a9059cbb60e01b81526001600160a01b0389169163a9059cbb9162002d6891869160040162003c8d565b602060405180830381600087803b15801562002d8357600080fd5b505af115801562002d98573d6000803e3d6000fd5b505050506040513d601f19601f8201168201806040525081019062002dbe9190620033a7565b505b609e5460a85462002ddb916001600160a01b03169062002f16565b604051630852cd8d60e31b8152600481018290526001600160a01b038816906342966c6890602401602060405180830381600087803b15801562002e1e57600080fd5b505af115801562002e33573d6000803e3d6000fd5b505050506040513d601f19601f8201168201806040525081019062002e599190620033a7565b50955095509592505050565b603380546001600160a01b038381166001600160a01b0319831681179093556040519116919082907f8be0079c531659141344cd1fd0a4f28419497f9722a3daafe3b4186f6b6457e090600090a35050565b600054610100900460ff1662002ee15760405162461bcd60e51b8152600401620009579062003fd3565b6200186e3362002e65565b600054610100900460ff1662002aae5760405162461bcd60e51b8152600401620009579062003fd3565b8047101562002f685760405162461bcd60e51b815260206004820152601d60248201527f416464726573733a20696e73756666696369656e742062616c616e6365000000604482015260640162000957565b6000826001600160a01b03168260405160006040518083038185875af1925050503d806000811462002fb7576040519150601f19603f3d011682016040523d82523d6000602084013e62002fbc565b606091505b5050905080620030325760405162461bcd60e51b815260206004820152603a60248201527f416464726573733a20756e61626c6520746f2073656e642076616c75652c20726044820152791958da5c1a595b9d081b585e481a185d99481c995d995c9d195960321b606482015260840162000957565b505050565b610f2c806200435983390190565b8280546200305390620042bb565b90600052602060002090601f016020900481019282620030775760008555620030c2565b82601f106200309257805160ff1916838001178555620030c2565b82800160010185558215620030c2579182015b82811115620030c2578251825591602001919060010190620030a5565b50620030d09291506200310e565b5090565b508054620030e290620042bb565b6000825580601f10620030f3575050565b601f0160209004906000526020600020908101906200279c91905b5b80821115620030d057600081556001016200310f565b600082601f83011262003136578081fd5b813560206200314f620031498362004260565b6200422d565b80838252828201915082860187848660051b89010111156200316f578586fd5b855b858110156200319a578135620031878162004342565b8452928401929084019060010162003171565b5090979650505050505050565b600082601f830112620031b8578081fd5b81356020620031cb620031498362004260565b80838252828201915082860187848660051b8901011115620031eb578586fd5b855b858110156200319a57813584529284019290840190600101620031ed565b805180151581146200321c57600080fd5b919050565b80356001600160e01b0319811681146200321c57600080fd5b60008083601f8401126200324c578182fd5b5081356001600160401b0381111562003263578182fd5b6020830191508360208285010111156200327c57600080fd5b9250929050565b600082601f83011262003294578081fd5b81356001600160401b03811115620032b057620032b06200432c565b620032c5601f8201601f19166020016200422d565b818152846020838601011115620032da578283fd5b816020850160208301379081016020019190915292915050565b8035600681106200321c57600080fd5b60006060828403121562003316578081fd5b604051606081016001600160401b03811182821017156200333b576200333b6200432c565b80604052508091508251815260208301516020820152604083015160408201525092915050565b60006020828403121562003374578081fd5b8135620033818162004342565b9392505050565b6000602082840312156200339a578081fd5b8151620033818162004342565b600060208284031215620033b9578081fd5b62003381826200320b565b60008060408385031215620033d7578081fd5b620033e2836200320b565b602084810151919350906001600160401b0381111562003400578283fd5b8401601f8101861362003411578283fd5b805162003422620031498262004260565b80828252848201915084840189868560051b870101111562003442578687fd5b8694505b838510156200346657805183526001949094019391850191850162003446565b5080955050505050509250929050565b60006020828403121562003488578081fd5b5035919050565b600060208284031215620034a1578081fd5b5051919050565b6000806000806000806000806000806101008b8d031215620034c8578586fd5b620034d38b62003221565b995060208b01356001600160401b0380821115620034ef578788fd5b620034fd8e838f0162003283565b9a5060408d013591508082111562003513578788fd5b620035218e838f016200323a565b909a5098508891506200353760608e0162003221565b975060808d0135965060a08d013591508082111562003554578586fd5b620035628e838f016200323a565b909650945060c08d0135935060e08d013591508082111562003582578283fd5b50620035918d828e0162003125565b9150509295989b9194979a5092959850565b600080600080600080600080610100898b031215620035c0578182fd5b620035cb8962003221565b975060208901356001600160401b0380821115620035e7578384fd5b620035f58c838d0162003283565b985060408b01359150808211156200360b578384fd5b620036198c838d0162003283565b97506200362960608c0162003221565b965060808b0135955060a08b013591508082111562003646578384fd5b620036548c838d0162003283565b945060c08b0135935060e08b013591508082111562003671578283fd5b50620036808b828c01620031a7565b9150509295985092959890939650565b60008060408385031215620036a3578182fd5b82356001600160401b03811115620036b9578283fd5b620036c78582860162003283565b925050620036d860208401620032f4565b90509250929050565b600080600080600060a08688031215620036f9578283fd5b85356001600160401b038082111562003710578485fd5b6200371e89838a0162003283565b9650602088013591508082111562003734578485fd5b6200374289838a0162003283565b9550604088013591508082111562003758578485fd5b50620037678882890162003283565b935050606086013560ff811681146200377e578182fd5b949793965091946080013592915050565b600080600060a08486031215620037a4578081fd5b620037b0858562003304565b92506060840151620037c28162004342565b80925050608084015190509250925092565b60008060408385031215620037e7578182fd5b823591506020830135620037fb8162004342565b809150509250929050565b6000806000606084860312156200381b578081fd5b8335925060208401356200382f8162004342565b929592945050506040919091013590565b60008060008060c0858703121562003856578182fd5b8451935062003869866020870162003304565b925060808501516200387b8162004342565b60a08601519092506200388e8162004342565b939692955090935050565b60008060008060008060008060006101208a8c031215620038b8578283fd5b8935985060208a0135975060408a0135965060608a0135620038da8162004342565b955060808a0135620038ec8162004342565b945060a08a01356001600160401b0381111562003907578384fd5b620039158c828d0162003283565b9450506200392660c08b01620032f4565b925060e08a0135620039388162004342565b91506101008a01356200394b8162004342565b809150509295985092959850929598565b600080600080600080600080610100898b03121562003979578182fd5b88359750602089013596506040890135955060608901356001600160401b0380821115620039a5578384fd5b620039b38c838d0162003283565b9650620039c360808c01620032f4565b955060a08b0135945060c08b0135935060e08b0135915080821115620039e7578283fd5b50620036808b828c0162003125565b6000815180845260208085019450808401835b8381101562003a305781516001600160a01b03168752958201959082019060010162003a09565b509495945050505050565b81835281816020850137506000828201602090810191909152601f909101601f19169091010190565b60008151808452815b8181101562003a8b5760208185018101518683018201520162003a6d565b8181111562003a9d5782602083870101525b50601f01601f19169290920160200192915050565b6006811062003ad157634e487b7160e01b600052602160045260246000fd5b9052565b8051825260208082015190830152604090810151910152565b6001600160a01b0391909116815260200190565b6001600160a01b0392831681529116602082015260400190565b6001600160a01b0384811682528316602082015260606040820181905260009062003b4a9083018462003a64565b95945050505050565b6001600160a01b039384168152919092166020820152604081019190915260600190565b6001600160a01b038b811682526101806020830181905260009162003b9f8483018e62003a64565b925062003bb0604085018d62003ab2565b808b1660608501528960808501528860a085015262003bd360c085018962003ad5565b866101208501528086166101408501525050826101608301529b9a5050505050505050505050565b600060018060a01b03808f1683526101c0602084015262003c216101c084018f62003a64565b915062003c32604084018e62003ab2565b8b6060840152808b1660808401528960a08401528860c084015280881660e084015262003c6461010084018862003ad5565b8561016084015280851661018084015250826101a08301529d9c50505050505050505050505050565b6001600160a01b03929092168252602082015260400190565b6001600160a01b03878116825260208201879052858116604083015261010082019062003cd7606084018762003ad5565b9390931660c082015260e00152949350505050565b6001600160a01b03898116825260208201899052878116604083015260608201879052858116608083015261014082019062003d2c60a084018762003ad5565b9390931661010082015261012001529695505050505050565b6001600160a01b0386168152602080820186905260a060408301528454600091908290600181811c908281168062003d7e57607f831692505b85831081141562003d9d57634e487b7160e01b87526022600452602487fd5b60a0880183905260c0880181801562003dbf576001811462003dd15762003dfd565b60ff1986168252878201965062003dfd565b60008d815260209020895b8681101562003df75781548482015290850190890162003ddc565b83019750505b505050505050809250505062003e17606083018562003ab2565b8260808301529695505050505050565b600061012060018060a01b038c1683528a60208401528960408401528860608401528760808401528660a08401528560c08401528060e084015262003e6f8184018662003a64565b91505062003e8261010083018462003ab2565b9a9950505050505050505050565b602081526000620033816020830184620039f6565b871515815286602082015285604082015284606082015260018060a01b038416608082015260e060a0820152600062003ee260e083018562003a64565b905062003ef360c083018462003ab2565b98975050505050505050565b60208152600062003381602083018462003a64565b6020810162000cde828462003ab2565b60e08152600062003f3960e083018a62003a64565b828103602084015262003f4d818a62003a64565b9050828103604084015262003f63818962003a64565b60ff979097166060840152505060808101939093526001600160a01b0391821660a08401521660c0909101529392505050565b60608152600062003fab606083018662003a64565b828103602084015262003fbf818662003a64565b91505060ff83166040830152949350505050565b6020808252602b908201527f496e697469616c697a61626c653a20636f6e7472616374206973206e6f74206960408201526a6e697469616c697a696e6760a81b606082015260800190565b6020808252601d908201527f52756e65526f757465724c6f6769633a207a65726f2061646472657373000000604082015260600190565b9182526001600160a01b0316602082015260400190565b8b81526001600160a01b038b1660208201526001600160e01b03198a8116604083015261012060608301819052600091620040aa8483018d62003a64565b91508382036080850152620040c1828b8d62003a3b565b915080891660a0850152508660c084015282810360e0840152620040e781868862003a3b565b915050826101008301529c9b505050505050505050505050565b8981526001600160a01b03891660208201526001600160e01b03198881166040830152610120606083018190526000916200413f8483018b62003a64565b9150838203608085015262004155828a62003a64565b915080881660a0850152508560c084015282810360e08401526200417a818662003a64565b915050826101008301529a9950505050505050505050565b60006101008b8352806020840152620041af8184018b8d62003a3b565b604084019990995250506060810195909552608085019390935260a084019190915260c083015260e0909101529392505050565b86815285602082015260c0604082015260006200420460c0830187620039f6565b6001600160a01b03959095166060830152506080810192909252151560a0909101529392505050565b604051601f8201601f191681016001600160401b03811182821017156200425857620042586200432c565b604052919050565b60006001600160401b038211156200427c576200427c6200432c565b5060051b60200190565b600082198211156200429c576200429c62004316565b500190565b600082821015620042b657620042b662004316565b500390565b600181811c90821680620042d057607f821691505b60208210811415620042f257634e487b7160e01b600052602260045260246000fd5b50919050565b60006000198214156200430f576200430f62004316565b5060010190565b634e487b7160e01b600052601160045260246000fd5b634e487b7160e01b600052604160045260246000fd5b6001600160a01b03811681146200279c57600080fdfe608060405260405162000f2c38038062000f2c8339810160408190526200002691620004e0565b82828282816200005860017f360894a13ba1a3210667c828492db98dca3e2076cc3735a920a3ca505d382bbd6200060f565b60008051602062000ee5833981519152146200008457634e487b7160e01b600052600160045260246000fd5b620000928282600062000105565b50620000c2905060017fb53127684a568b3173ae13b9f8a6016e243e63b6e8ee1178d6a717850b5d61046200060f565b60008051602062000ec583398151915214620000ee57634e487b7160e01b600052600160045260246000fd5b620000f98262000142565b50505050505062000678565b62000110836200019d565b6000825111806200011e5750805b156200013d576200013b8383620001df60201b620002601760201c565b505b505050565b7f7e644d79422f17c01e4894b5f4f588d331ebfa28653d42ae832dc59e38c9798f6200016d6200020e565b604080516001600160a01b03928316815291841660208301520160405180910390a16200019a8162000247565b50565b620001a881620002fc565b6040516001600160a01b038216907fbc7cd75a20ee27fd9adebab32041f755214dbc6bffa90cc0225b39da2e5c2d3b90600090a250565b606062000207838360405180606001604052806027815260200162000f05602791396200039f565b9392505050565b60006200023860008051602062000ec583398151915260001b6200047c60201b620002081760201c565b546001600160a01b0316919050565b6001600160a01b038116620002b25760405162461bcd60e51b815260206004820152602660248201527f455243313936373a206e65772061646d696e20697320746865207a65726f206160448201526564647265737360d01b60648201526084015b60405180910390fd5b80620002db60008051602062000ec583398151915260001b6200047c60201b620002081760201c565b80546001600160a01b0319166001600160a01b039290921691909117905550565b62000312816200047f60201b6200028c1760201c565b620003765760405162461bcd60e51b815260206004820152602d60248201527f455243313936373a206e657720696d706c656d656e746174696f6e206973206e60448201526c1bdd08184818dbdb9d1c9858dd609a1b6064820152608401620002a9565b80620002db60008051602062000ee583398151915260001b6200047c60201b620002081760201c565b6060833b620004005760405162461bcd60e51b815260206004820152602660248201527f416464726573733a2064656c65676174652063616c6c20746f206e6f6e2d636f6044820152651b9d1c9858dd60d21b6064820152608401620002a9565b600080856001600160a01b0316856040516200041d9190620005bc565b600060405180830381855af49150503d80600081146200045a576040519150601f19603f3d011682016040523d82523d6000602084013e6200045f565b606091505b5090925090506200047282828662000485565b9695505050505050565b90565b3b151590565b606083156200049657508162000207565b825115620004a75782518084602001fd5b8160405162461bcd60e51b8152600401620002a99190620005da565b80516001600160a01b0381168114620004db57600080fd5b919050565b600080600060608486031215620004f5578283fd5b6200050084620004c3565b92506200051060208501620004c3565b60408501519092506001600160401b03808211156200052d578283fd5b818601915086601f83011262000541578283fd5b81518181111562000556576200055662000662565b604051601f8201601f19908116603f0116810190838211818310171562000581576200058162000662565b816040528281528960208487010111156200059a578586fd5b620005ad83602083016020880162000633565b80955050505050509250925092565b60008251620005d081846020870162000633565b9190910192915050565b6020815260008251806020840152620005fb81604085016020870162000633565b601f01601f19169190910160400192915050565b6000828210156200062e57634e487b7160e01b81526011600452602481fd5b500390565b60005b838110156200065057818101518382015260200162000636565b838111156200013b5750506000910152565b634e487b7160e01b600052604160045260246000fd5b61083d80620006886000396000f3fe60806040526004361061004e5760003560e01c80633659cfe6146100655780634f1ef286146100855780635c60da1b146100985780638f283970146100c9578063f851a440146100e95761005d565b3661005d5761005b6100fe565b005b61005b6100fe565b34801561007157600080fd5b5061005b61008036600461068e565b610118565b61005b6100933660046106a8565b61015f565b3480156100a457600080fd5b506100ad6101d0565b6040516001600160a01b03909116815260200160405180910390f35b3480156100d557600080fd5b5061005b6100e436600461068e565b61020b565b3480156100f557600080fd5b506100ad610235565b610106610292565b610116610111610331565b61033b565b565b61012061035f565b6001600160a01b0316336001600160a01b031614156101575761015481604051806020016040528060008152506000610380565b50565b6101546100fe565b61016761035f565b6001600160a01b0316336001600160a01b031614156101c8576101c38383838080601f01602080910402602001604051908101604052809392919081815260200183838082843760009201919091525060019250610380915050565b505050565b6101c36100fe565b60006101da61035f565b6001600160a01b0316336001600160a01b03161415610200576101fb610331565b905090565b6102086100fe565b90565b61021361035f565b6001600160a01b0316336001600160a01b0316141561015757610154816103ab565b600061023f61035f565b6001600160a01b0316336001600160a01b03161415610200576101fb61035f565b606061028583836040518060600160405280602781526020016107e1602791396103ff565b9392505050565b3b151590565b61029a61035f565b6001600160a01b0316336001600160a01b031614156101165760405162461bcd60e51b815260206004820152604260248201527f5472616e73706172656e745570677261646561626c6550726f78793a2061646d60448201527f696e2063616e6e6f742066616c6c6261636b20746f2070726f78792074617267606482015261195d60f21b608482015260a4015b60405180910390fd5b60006101fb6104d3565b3660008037600080366000845af43d6000803e80801561035a573d6000f35b3d6000fd5b60006000805160206107a18339815191525b546001600160a01b0316919050565b610389836104e9565b6000825111806103965750805b156101c3576103a58383610260565b50505050565b7f7e644d79422f17c01e4894b5f4f588d331ebfa28653d42ae832dc59e38c9798f6103d461035f565b604080516001600160a01b03928316815291841660208301520160405180910390a161015481610529565b6060833b61045e5760405162461bcd60e51b815260206004820152602660248201527f416464726573733a2064656c65676174652063616c6c20746f206e6f6e2d636f6044820152651b9d1c9858dd60d21b6064820152608401610328565b600080856001600160a01b0316856040516104799190610725565b600060405180830381855af49150503d80600081146104b4576040519150601f19603f3d011682016040523d82523d6000602084013e6104b9565b606091505b50915091506104c98282866105c0565b9695505050505050565b60006000805160206107c1833981519152610371565b6104f2816105f9565b6040516001600160a01b038216907fbc7cd75a20ee27fd9adebab32041f755214dbc6bffa90cc0225b39da2e5c2d3b90600090a250565b6001600160a01b03811661058e5760405162461bcd60e51b815260206004820152602660248201527f455243313936373a206e65772061646d696e20697320746865207a65726f206160448201526564647265737360d01b6064820152608401610328565b806000805160206107a18339815191525b80546001600160a01b0319166001600160a01b039290921691909117905550565b606083156105cf575081610285565b8251156105df5782518084602001fd5b8160405162461bcd60e51b81526004016103289190610741565b803b61065d5760405162461bcd60e51b815260206004820152602d60248201527f455243313936373a206e657720696d706c656d656e746174696f6e206973206e60448201526c1bdd08184818dbdb9d1c9858dd609a1b6064820152608401610328565b806000805160206107c183398151915261059f565b80356001600160a01b038116811461068957600080fd5b919050565b60006020828403121561069f578081fd5b61028582610672565b6000806000604084860312156106bc578182fd5b6106c584610672565b925060208401356001600160401b03808211156106e0578384fd5b818601915086601f8301126106f3578384fd5b813581811115610701578485fd5b876020828501011115610712578485fd5b6020830194508093505050509250925092565b60008251610737818460208701610774565b9190910192915050565b6020815260008251806020840152610760816040850160208701610774565b601f01601f19169190910160400192915050565b60005b8381101561078f578181015183820152602001610777565b838111156103a5575050600091015256feb53127684a568b3173ae13b9f8a6016e243e63b6e8ee1178d6a717850b5d6103360894a13ba1a3210667c828492db98dca3e2076cc3735a920a3ca505d382bbc416464726573733a206c6f772d6c6576656c2064656c65676174652063616c6c206661696c6564a264697066735822122064b11b2157d61600a09abbd0eaeb0a67e43f14e3005703114add6fac6fd353ec64736f6c63430008040033b53127684a568b3173ae13b9f8a6016e243e63b6e8ee1178d6a717850b5d6103360894a13ba1a3210667c828492db98dca3e2076cc3735a920a3ca505d382bbc416464726573733a206c6f772d6c6576656c2064656c65676174652063616c6c206661696c6564a2646970667358221220f80ff2c533ca244e9606f6886fd857c74b48261bda4d2c71e9eb36bc87645c1964736f6c63430008040033",
  "libraries": {
    "RuneRouterLib": "0xC2276ee54B85Da9c7F61872Bf6e1C761dE170B39"
  },
  "devdoc": {
    "kind": "dev",
    "methods": {
      "addRune(string,string,string,uint8,uint256)": {
        "details": "We assign tokenId to a supported Rune",
        "params": {
          "_internalId": "Internal id",
          "_runeId": "Real rune id"
        }
      },
      "initialize(uint256,uint256,uint256,address,address,bytes,uint8,address,address)": {
        "params": {
          "_chainId": "Id of the underlying chain",
          "_protocolPercentageFee": "Percentage amount of protocol fee (min: %0.01)",
          "_relay": "Bitcoin bridge address which validates Bitcoin tx",
          "_startingBlockNumber": "Requests included in a block older than _startingBlockNumber cannot be processed",
          "_treasury": "Address of treasury that collects protocol fees"
        }
      },
      "isWrapRequestProcessed(bytes32)": {
        "params": {
          "_txId": "of the request on Bitcoin"
        }
      },
      "owner()": {
        "details": "Returns the address of the current owner."
      },
      "renounceOwnership()": {
        "details": "Leaves the contract without owner. It will not be possible to call `onlyOwner` functions. Can only be called by the current owner. NOTE: Renouncing ownership will leave the contract without an owner, thereby disabling any functionality that is only available to the owner."
      },
      "setExchangeConnector(uint256,address)": {
        "details": "If address(0) is set for an appId, that appId is inactive"
      },
      "setUnwrapFee(uint256)": {
        "details": "This fee is taken for unwrap requests to cover the Bitcoin network fee"
      },
      "transferOwnership(address)": {
        "details": "Transfers ownership of the contract to a new account (`newOwner`). Can only be called by the current owner."
      },
      "unwrapRune(uint256,uint256,uint256,bytes,uint8,uint256,uint256,address[])": {
        "details": "For unwrap requests (not swap & unwrap), pass _appId,      _inputAmount and _path ZERO",
        "params": {
          "_amount": "of WRune that user wants to burn",
          "_scriptType": "User script type",
          "_userScript": "User script hash"
        }
      },
      "wrapRune(bytes4,bytes,bytes,bytes4,uint256,bytes,uint256,address[])": {
        "details": "Locker submits wrap requests to this function for:      1) Checking tx inclusion      2) Extracting wrap request info from the OP_RETURN output      3) Exchanging wrapped Rune (if request is wrap & exchange) using the path         provided by the locker",
        "params": {
          "_blockNumber": "that includes the tx",
          "_index": "of tx in the block",
          "_intermediateNodes": "Merkle proof for tx",
          "_locktime": "Tx locktime",
          "_version": "of Bitcoin tx",
          "_vin": "Tx inputs",
          "_vout": "Tx outputs"
        }
      }
    },
    "version": 1
  },
  "userdoc": {
    "events": {
      "FailedRuneWrapAndSwap(address,uint256,address,uint256,address,(uint256,uint256,uint256),address,bytes32)": {
        "notice": "Emit when a wrap&swap request is processed but swap failed"
      },
      "NewLocker(address,address)": {
        "notice": "Emit when locker address updated"
      },
      "NewProtocolPercentageFee(uint256,uint256)": {
        "notice": "Emit when protocol fee updated"
      },
      "NewRelay(address,address)": {
        "notice": "Emit when relay address updated"
      },
      "NewRune(string,string,string,uint256,uint256,address,address)": {
        "notice": "Emit when new Rune added"
      },
      "NewRuneSwapAndUnwrap(address,bytes,uint8,uint256,address,uint256,uint256,address,(uint256,uint256,uint256),uint256,address,uint256)": {
        "notice": "Emit when a new rune swap&unwrap request is created"
      },
      "NewRuneUnwrap(address,bytes,uint8,address,uint256,uint256,(uint256,uint256,uint256),uint256,address,uint256)": {
        "notice": "Emit when a new rune unwrap request is created"
      },
      "NewRuneWrap(address,uint256,address,(uint256,uint256,uint256),address,bytes32)": {
        "notice": "Emit when a rune wrap request is processed"
      },
      "NewRuneWrapAndSwap(address,uint256,address,uint256,address,(uint256,uint256,uint256),address,bytes32)": {
        "notice": "Emit when a wrap&swap request is processed"
      },
      "NewTeleporter(address,address)": {
        "notice": "Emit when teleporter address updated"
      },
      "NewTreasury(address,address)": {
        "notice": "Emit when treasury address updated"
      },
      "RuneRemoved(uint256,address)": {
        "notice": "Emit when Rune removed"
      },
      "SetExchangeConnector(uint256,address)": {
        "notice": "Emits when appId for an exchange connector is set"
      },
      "ThirdPartyInfoUpdated(uint256,address,uint256,address,uint256)": {
        "notice": "Emit when third party fee updated"
      },
      "UnwrapFeeUpdated(uint256,uint256)": {
        "notice": "Emit when unwrap fee updated"
      },
      "UnwrapRuneProcessed(address,uint256,bytes,uint8,uint256)": {
        "notice": "Emit when a unwrap request is processed"
      }
    },
    "kind": "user",
    "methods": {
      "addRune(string,string,string,uint8,uint256)": {
        "notice": "Deploy wrapped Rune token contract"
      },
      "initialize(uint256,uint256,uint256,address,address,bytes,uint8,address,address)": {
        "notice": "Initialize the contract"
      },
      "isUnwrapRequestProcessed(uint256)": {
        "notice": "Check if the unwrap request has been processed before"
      },
      "isWrapRequestProcessed(bytes32)": {
        "notice": "Check if the wrap request has been processed before"
      },
      "removeRune(uint256)": {
        "notice": "Remove support of a wrapped RUNE token"
      },
      "setChainId(uint256)": {
        "notice": "Setter for chainId"
      },
      "setExchangeConnector(uint256,address)": {
        "notice": "Set exchange connector for appId"
      },
      "setLocker(address)": {
        "notice": "Setter for locker"
      },
      "setLockerLockingScript(bytes,uint8)": {
        "notice": "Setter for locker locking script"
      },
      "setProtocolPercentageFee(uint256)": {
        "notice": "Setter for protocol percentage fee"
      },
      "setRelay(address)": {
        "notice": "Setter for Bitcoin relay"
      },
      "setStartingBlockNumber(uint256)": {
        "notice": "Setter for starting block number"
      },
      "setTeleporter(address)": {
        "notice": "Setter for teleporter"
      },
      "setThirdParty(uint256,address,uint256)": {
        "notice": "Setter for third party address and fee"
      },
      "setTreasury(address)": {
        "notice": "Setter for treasury"
      },
      "setUnwrapFee(uint256)": {
        "notice": "Setter for unwrap fee"
      },
      "unwrapProofRune(bytes4,bytes,bytes,bytes4,uint256,bytes,uint256,uint256[])": {
        "notice": "Check proof of unwraping Runes"
      },
      "unwrapRune(uint256,uint256,uint256,bytes,uint8,uint256,uint256,address[])": {
        "notice": "Process user rune unwrap request"
      },
      "wrapRune(bytes4,bytes,bytes,bytes4,uint256,bytes,uint256,address[])": {
        "notice": "Process wrap Rune request"
      }
    },
    "version": 1
  },
  "storageLayout": {
    "storage": [
      {
        "astId": 3849,
        "contract": "contracts/rune_router/RuneRouterLogic.sol:RuneRouterLogic",
        "label": "_initialized",
        "offset": 0,
        "slot": "0",
        "type": "t_uint8"
      },
      {
        "astId": 3852,
        "contract": "contracts/rune_router/RuneRouterLogic.sol:RuneRouterLogic",
        "label": "_initializing",
        "offset": 1,
        "slot": "0",
        "type": "t_bool"
      },
      {
        "astId": 5320,
        "contract": "contracts/rune_router/RuneRouterLogic.sol:RuneRouterLogic",
        "label": "__gap",
        "offset": 0,
        "slot": "1",
        "type": "t_array(t_uint256)50_storage"
      },
      {
        "astId": 3721,
        "contract": "contracts/rune_router/RuneRouterLogic.sol:RuneRouterLogic",
        "label": "_owner",
        "offset": 0,
        "slot": "51",
        "type": "t_address"
      },
      {
        "astId": 3841,
        "contract": "contracts/rune_router/RuneRouterLogic.sol:RuneRouterLogic",
        "label": "__gap",
        "offset": 0,
        "slot": "52",
        "type": "t_array(t_uint256)49_storage"
      },
      {
        "astId": 4154,
        "contract": "contracts/rune_router/RuneRouterLogic.sol:RuneRouterLogic",
        "label": "_status",
        "offset": 0,
        "slot": "101",
        "type": "t_uint256"
      },
      {
        "astId": 4223,
        "contract": "contracts/rune_router/RuneRouterLogic.sol:RuneRouterLogic",
        "label": "__gap",
        "offset": 0,
        "slot": "102",
        "type": "t_array(t_uint256)49_storage"
      },
      {
        "astId": 35843,
        "contract": "contracts/rune_router/RuneRouterLogic.sol:RuneRouterLogic",
        "label": "startingBlockNumber",
        "offset": 0,
        "slot": "151",
        "type": "t_uint256"
      },
      {
        "astId": 35846,
        "contract": "contracts/rune_router/RuneRouterLogic.sol:RuneRouterLogic",
        "label": "chainId",
        "offset": 0,
        "slot": "152",
        "type": "t_uint256"
      },
      {
        "astId": 35849,
        "contract": "contracts/rune_router/RuneRouterLogic.sol:RuneRouterLogic",
        "label": "protocolPercentageFee",
        "offset": 0,
        "slot": "153",
        "type": "t_uint256"
      },
      {
        "astId": 35851,
        "contract": "contracts/rune_router/RuneRouterLogic.sol:RuneRouterLogic",
        "label": "lockerPercentageFee",
        "offset": 0,
        "slot": "154",
        "type": "t_uint256"
      },
      {
        "astId": 35853,
        "contract": "contracts/rune_router/RuneRouterLogic.sol:RuneRouterLogic",
        "label": "runeUnwrapCounter",
        "offset": 0,
        "slot": "155",
        "type": "t_uint256"
      },
      {
        "astId": 35856,
        "contract": "contracts/rune_router/RuneRouterLogic.sol:RuneRouterLogic",
        "label": "relay",
        "offset": 0,
        "slot": "156",
        "type": "t_address"
      },
      {
        "astId": 35859,
        "contract": "contracts/rune_router/RuneRouterLogic.sol:RuneRouterLogic",
        "label": "treasury",
        "offset": 0,
        "slot": "157",
        "type": "t_address"
      },
      {
        "astId": 35862,
        "contract": "contracts/rune_router/RuneRouterLogic.sol:RuneRouterLogic",
        "label": "locker",
        "offset": 0,
        "slot": "158",
        "type": "t_address"
      },
      {
        "astId": 35866,
        "contract": "contracts/rune_router/RuneRouterLogic.sol:RuneRouterLogic",
        "label": "supportedRunes",
        "offset": 0,
        "slot": "159",
        "type": "t_mapping(t_uint256,t_address)"
      },
      {
        "astId": 35870,
        "contract": "contracts/rune_router/RuneRouterLogic.sol:RuneRouterLogic",
        "label": "runeIds",
        "offset": 0,
        "slot": "160",
        "type": "t_mapping(t_address,t_string_storage)"
      },
      {
        "astId": 35874,
        "contract": "contracts/rune_router/RuneRouterLogic.sol:RuneRouterLogic",
        "label": "internalIds",
        "offset": 0,
        "slot": "161",
        "type": "t_mapping(t_address,t_uint256)"
      },
      {
        "astId": 35879,
        "contract": "contracts/rune_router/RuneRouterLogic.sol:RuneRouterLogic",
        "label": "runeWrapRequests",
        "offset": 0,
        "slot": "162",
        "type": "t_mapping(t_bytes32,t_struct(runeWrapRequest)35932_storage)"
      },
      {
        "astId": 35884,
        "contract": "contracts/rune_router/RuneRouterLogic.sol:RuneRouterLogic",
        "label": "exchangeConnector",
        "offset": 0,
        "slot": "163",
        "type": "t_mapping(t_uint256,t_address)"
      },
      {
        "astId": 35888,
        "contract": "contracts/rune_router/RuneRouterLogic.sol:RuneRouterLogic",
        "label": "runeUnwrapRequests",
        "offset": 0,
        "slot": "164",
        "type": "t_array(t_struct(runeUnwrapRequest)35948_storage)dyn_storage"
      },
      {
        "astId": 35891,
        "contract": "contracts/rune_router/RuneRouterLogic.sol:RuneRouterLogic",
        "label": "lockerLockingScript",
        "offset": 0,
        "slot": "165",
        "type": "t_bytes_storage"
      },
      {
        "astId": 35895,
        "contract": "contracts/rune_router/RuneRouterLogic.sol:RuneRouterLogic",
        "label": "lockerScriptType",
        "offset": 0,
        "slot": "166",
        "type": "t_enum(ScriptTypes)12111"
      },
      {
        "astId": 35898,
        "contract": "contracts/rune_router/RuneRouterLogic.sol:RuneRouterLogic",
        "label": "teleporter",
        "offset": 1,
        "slot": "166",
        "type": "t_address"
      },
      {
        "astId": 35903,
        "contract": "contracts/rune_router/RuneRouterLogic.sol:RuneRouterLogic",
        "label": "thirdParties",
        "offset": 0,
        "slot": "167",
        "type": "t_mapping(t_uint256,t_struct(thirdParty)35953_storage)"
      },
      {
        "astId": 35905,
        "contract": "contracts/rune_router/RuneRouterLogic.sol:RuneRouterLogic",
        "label": "unwrapFee",
        "offset": 0,
        "slot": "168",
        "type": "t_uint256"
      }
    ],
    "types": {
      "t_address": {
        "encoding": "inplace",
        "label": "address",
        "numberOfBytes": "20"
      },
      "t_array(t_struct(runeUnwrapRequest)35948_storage)dyn_storage": {
        "base": "t_struct(runeUnwrapRequest)35948_storage",
        "encoding": "dynamic_array",
        "label": "struct IRuneRouter.runeUnwrapRequest[]",
        "numberOfBytes": "32"
      },
      "t_array(t_uint256)49_storage": {
        "base": "t_uint256",
        "encoding": "inplace",
        "label": "uint256[49]",
        "numberOfBytes": "1568"
      },
      "t_array(t_uint256)50_storage": {
        "base": "t_uint256",
        "encoding": "inplace",
        "label": "uint256[50]",
        "numberOfBytes": "1600"
      },
      "t_bool": {
        "encoding": "inplace",
        "label": "bool",
        "numberOfBytes": "1"
      },
      "t_bytes32": {
        "encoding": "inplace",
        "label": "bytes32",
        "numberOfBytes": "32"
      },
      "t_bytes_storage": {
        "encoding": "bytes",
        "label": "bytes",
        "numberOfBytes": "32"
      },
      "t_enum(ScriptTypes)12111": {
        "encoding": "inplace",
        "label": "enum ScriptTypes",
        "numberOfBytes": "1"
      },
      "t_mapping(t_address,t_string_storage)": {
        "encoding": "mapping",
        "key": "t_address",
        "label": "mapping(address => string)",
        "numberOfBytes": "32",
        "value": "t_string_storage"
      },
      "t_mapping(t_address,t_uint256)": {
        "encoding": "mapping",
        "key": "t_address",
        "label": "mapping(address => uint256)",
        "numberOfBytes": "32",
        "value": "t_uint256"
      },
      "t_mapping(t_bytes32,t_struct(runeWrapRequest)35932_storage)": {
        "encoding": "mapping",
        "key": "t_bytes32",
        "label": "mapping(bytes32 => struct IRuneRouter.runeWrapRequest)",
        "numberOfBytes": "32",
        "value": "t_struct(runeWrapRequest)35932_storage"
      },
      "t_mapping(t_uint256,t_address)": {
        "encoding": "mapping",
        "key": "t_uint256",
        "label": "mapping(uint256 => address)",
        "numberOfBytes": "32",
        "value": "t_address"
      },
      "t_mapping(t_uint256,t_struct(thirdParty)35953_storage)": {
        "encoding": "mapping",
        "key": "t_uint256",
        "label": "mapping(uint256 => struct IRuneRouter.thirdParty)",
        "numberOfBytes": "32",
        "value": "t_struct(thirdParty)35953_storage"
      },
      "t_string_storage": {
        "encoding": "bytes",
        "label": "string",
        "numberOfBytes": "32"
      },
      "t_struct(runeUnwrapRequest)35948_storage": {
        "encoding": "inplace",
        "label": "struct IRuneRouter.runeUnwrapRequest",
        "members": [
          {
            "astId": 35934,
            "contract": "contracts/rune_router/RuneRouterLogic.sol:RuneRouterLogic",
            "label": "isProcessed",
            "offset": 0,
            "slot": "0",
            "type": "t_bool"
          },
          {
            "astId": 35936,
            "contract": "contracts/rune_router/RuneRouterLogic.sol:RuneRouterLogic",
            "label": "amount",
            "offset": 0,
            "slot": "1",
            "type": "t_uint256"
          },
          {
            "astId": 35938,
            "contract": "contracts/rune_router/RuneRouterLogic.sol:RuneRouterLogic",
            "label": "burntAmount",
            "offset": 0,
            "slot": "2",
            "type": "t_uint256"
          },
          {
            "astId": 35940,
            "contract": "contracts/rune_router/RuneRouterLogic.sol:RuneRouterLogic",
            "label": "appId",
            "offset": 0,
            "slot": "3",
            "type": "t_uint256"
          },
          {
            "astId": 35942,
            "contract": "contracts/rune_router/RuneRouterLogic.sol:RuneRouterLogic",
            "label": "sender",
            "offset": 0,
            "slot": "4",
            "type": "t_address"
          },
          {
            "astId": 35944,
            "contract": "contracts/rune_router/RuneRouterLogic.sol:RuneRouterLogic",
            "label": "userScript",
            "offset": 0,
            "slot": "5",
            "type": "t_bytes_storage"
          },
          {
            "astId": 35947,
            "contract": "contracts/rune_router/RuneRouterLogic.sol:RuneRouterLogic",
            "label": "scriptType",
            "offset": 0,
            "slot": "6",
            "type": "t_enum(ScriptTypes)12111"
          }
        ],
        "numberOfBytes": "224"
      },
      "t_struct(runeWrapRequest)35932_storage": {
        "encoding": "inplace",
        "label": "struct IRuneRouter.runeWrapRequest",
        "members": [
          {
            "astId": 35911,
            "contract": "contracts/rune_router/RuneRouterLogic.sol:RuneRouterLogic",
            "label": "isUsed",
            "offset": 0,
            "slot": "0",
            "type": "t_bool"
          },
          {
            "astId": 35913,
            "contract": "contracts/rune_router/RuneRouterLogic.sol:RuneRouterLogic",
            "label": "chainId",
            "offset": 0,
            "slot": "1",
            "type": "t_uint256"
          },
          {
            "astId": 35915,
            "contract": "contracts/rune_router/RuneRouterLogic.sol:RuneRouterLogic",
            "label": "appId",
            "offset": 0,
            "slot": "2",
            "type": "t_uint256"
          },
          {
            "astId": 35917,
            "contract": "contracts/rune_router/RuneRouterLogic.sol:RuneRouterLogic",
            "label": "tokenId",
            "offset": 0,
            "slot": "3",
            "type": "t_uint256"
          },
          {
            "astId": 35919,
            "contract": "contracts/rune_router/RuneRouterLogic.sol:RuneRouterLogic",
            "label": "inputAmount",
            "offset": 0,
            "slot": "4",
            "type": "t_uint256"
          },
          {
            "astId": 35921,
            "contract": "contracts/rune_router/RuneRouterLogic.sol:RuneRouterLogic",
            "label": "inputToken",
            "offset": 0,
            "slot": "5",
            "type": "t_address"
          },
          {
            "astId": 35923,
            "contract": "contracts/rune_router/RuneRouterLogic.sol:RuneRouterLogic",
            "label": "recipientAddress",
            "offset": 0,
            "slot": "6",
            "type": "t_address"
          },
          {
            "astId": 35925,
            "contract": "contracts/rune_router/RuneRouterLogic.sol:RuneRouterLogic",
            "label": "thirdPartyId",
            "offset": 0,
            "slot": "7",
            "type": "t_uint256"
          },
          {
            "astId": 35927,
            "contract": "contracts/rune_router/RuneRouterLogic.sol:RuneRouterLogic",
            "label": "fee",
            "offset": 0,
            "slot": "8",
            "type": "t_uint256"
          },
          {
            "astId": 35929,
            "contract": "contracts/rune_router/RuneRouterLogic.sol:RuneRouterLogic",
            "label": "outputAmount",
            "offset": 0,
            "slot": "9",
            "type": "t_uint256"
          },
          {
            "astId": 35931,
            "contract": "contracts/rune_router/RuneRouterLogic.sol:RuneRouterLogic",
            "label": "outputToken",
            "offset": 0,
            "slot": "10",
            "type": "t_address"
          }
        ],
        "numberOfBytes": "352"
      },
      "t_struct(thirdParty)35953_storage": {
        "encoding": "inplace",
        "label": "struct IRuneRouter.thirdParty",
        "members": [
          {
            "astId": 35950,
            "contract": "contracts/rune_router/RuneRouterLogic.sol:RuneRouterLogic",
            "label": "thirdPartyAddress",
            "offset": 0,
            "slot": "0",
            "type": "t_address"
          },
          {
            "astId": 35952,
            "contract": "contracts/rune_router/RuneRouterLogic.sol:RuneRouterLogic",
            "label": "thirdPartyFee",
            "offset": 0,
            "slot": "1",
            "type": "t_uint256"
          }
        ],
        "numberOfBytes": "64"
      },
      "t_uint256": {
        "encoding": "inplace",
        "label": "uint256",
        "numberOfBytes": "32"
      },
      "t_uint8": {
        "encoding": "inplace",
        "label": "uint8",
        "numberOfBytes": "1"
      }
    }
  }
}