{
  "address": "0x4A9017fbcf9e7929ef6300F065d69Abd7Ea02A04",
  "abi": [
    {
      "anonymous": false,
      "inputs": [
        {
          "indexed": false,
          "internalType": "address",
          "name": "user",
          "type": "address"
        },
        {
          "indexed": false,
          "internalType": "uint256",
          "name": "remainingAmount",
          "type": "uint256"
        },
        {
          "indexed": false,
          "internalType": "address",
          "name": "inputToken",
          "type": "address"
        },
        {
          "indexed": false,
          "internalType": "uint256",
          "name": "outputAmount",
          "type": "uint256"
        },
        {
          "indexed": false,
          "internalType": "address",
          "name": "outputToken",
          "type": "address"
        },
        {
          "components": [
            {
              "internalType": "uint256",
              "name": "protocolFee",
              "type": "uint256"
            },
            {
              "internalType": "uint256",
              "name": "lockerFee",
              "type": "uint256"
            },
            {
              "internalType": "uint256",
              "name": "thirdPartyFee",
              "type": "uint256"
            }
          ],
          "indexed": false,
          "internalType": "struct IRuneRouter.fees",
          "name": "fee",
          "type": "tuple"
        },
        {
          "indexed": false,
          "internalType": "address",
          "name": "thirdPartyAddress",
          "type": "address"
        },
        {
          "indexed": false,
          "internalType": "bytes32",
          "name": "txId",
          "type": "bytes32"
        }
      ],
      "name": "FailedRuneWrapAndSwap",
      "type": "event"
    },
    {
      "anonymous": false,
      "inputs": [
        {
          "indexed": false,
          "internalType": "uint8",
          "name": "version",
          "type": "uint8"
        }
      ],
      "name": "Initialized",
      "type": "event"
    },
    {
      "anonymous": false,
      "inputs": [
        {
          "indexed": false,
          "internalType": "address",
          "name": "oldLocker",
          "type": "address"
        },
        {
          "indexed": false,
          "internalType": "address",
          "name": "newLocker",
          "type": "address"
        }
      ],
      "name": "NewLocker",
      "type": "event"
    },
    {
      "anonymous": false,
      "inputs": [
        {
          "indexed": false,
          "internalType": "uint256",
          "name": "oldProtocolPercentageFee",
          "type": "uint256"
        },
        {
          "indexed": false,
          "internalType": "uint256",
          "name": "newProtocolPercentageFee",
          "type": "uint256"
        }
      ],
      "name": "NewProtocolPercentageFee",
      "type": "event"
    },
    {
      "anonymous": false,
      "inputs": [
        {
          "indexed": false,
          "internalType": "address",
          "name": "oldRelay",
          "type": "address"
        },
        {
          "indexed": false,
          "internalType": "address",
          "name": "newRelay",
          "type": "address"
        }
      ],
      "name": "NewRelay",
      "type": "event"
    },
    {
      "anonymous": false,
      "inputs": [
        {
          "indexed": false,
          "internalType": "string",
          "name": "name",
          "type": "string"
        },
        {
          "indexed": false,
          "internalType": "string",
          "name": "symbol",
          "type": "string"
        },
        {
          "indexed": false,
          "internalType": "string",
          "name": "runeId",
          "type": "string"
        },
        {
          "indexed": false,
          "internalType": "uint256",
          "name": "decimal",
          "type": "uint256"
        },
        {
          "indexed": false,
          "internalType": "uint256",
          "name": "internalId",
          "type": "uint256"
        },
        {
          "indexed": false,
          "internalType": "address",
          "name": "wRuneProxy",
          "type": "address"
        },
        {
          "indexed": false,
          "internalType": "address",
          "name": "wRuneLogic",
          "type": "address"
        }
      ],
      "name": "NewRune",
      "type": "event"
    },
    {
      "anonymous": false,
      "inputs": [
        {
          "indexed": false,
          "internalType": "address",
          "name": "user",
          "type": "address"
        },
        {
          "indexed": false,
          "internalType": "bytes",
          "name": "userScript",
          "type": "bytes"
        },
        {
          "indexed": false,
          "internalType": "enum ScriptTypes",
          "name": "scriptType",
          "type": "uint8"
        },
        {
          "indexed": false,
          "internalType": "uint256",
          "name": "inputAmount",
          "type": "uint256"
        },
        {
          "indexed": false,
          "internalType": "address",
          "name": "inputToken",
          "type": "address"
        },
        {
          "indexed": false,
          "internalType": "uint256",
          "name": "outputAmount",
          "type": "uint256"
        },
        {
          "indexed": false,
          "internalType": "uint256",
          "name": "remainingAmount",
          "type": "uint256"
        },
        {
          "indexed": false,
          "internalType": "address",
          "name": "outputToken",
          "type": "address"
        },
        {
          "components": [
            {
              "internalType": "uint256",
              "name": "protocolFee",
              "type": "uint256"
            },
            {
              "internalType": "uint256",
              "name": "lockerFee",
              "type": "uint256"
            },
            {
              "internalType": "uint256",
              "name": "thirdPartyFee",
              "type": "uint256"
            }
          ],
          "indexed": false,
          "internalType": "struct IRuneRouter.fees",
          "name": "fee",
          "type": "tuple"
        },
        {
          "indexed": false,
          "internalType": "uint256",
          "name": "unwrapFee",
          "type": "uint256"
        },
        {
          "indexed": false,
          "internalType": "address",
          "name": "thirdPartyAddress",
          "type": "address"
        },
        {
          "indexed": false,
          "internalType": "uint256",
          "name": "reqIdx",
          "type": "uint256"
        }
      ],
      "name": "NewRuneSwapAndUnwrap",
      "type": "event"
    },
    {
      "anonymous": false,
      "inputs": [
        {
          "indexed": false,
          "internalType": "address",
          "name": "user",
          "type": "address"
        },
        {
          "indexed": false,
          "internalType": "bytes",
          "name": "userScript",
          "type": "bytes"
        },
        {
          "indexed": false,
          "internalType": "enum ScriptTypes",
          "name": "scriptType",
          "type": "uint8"
        },
        {
          "indexed": false,
          "internalType": "address",
          "name": "inputToken",
          "type": "address"
        },
        {
          "indexed": false,
          "internalType": "uint256",
          "name": "inputAmount",
          "type": "uint256"
        },
        {
          "indexed": false,
          "internalType": "uint256",
          "name": "remainingAmount",
          "type": "uint256"
        },
        {
          "components": [
            {
              "internalType": "uint256",
              "name": "protocolFee",
              "type": "uint256"
            },
            {
              "internalType": "uint256",
              "name": "lockerFee",
              "type": "uint256"
            },
            {
              "internalType": "uint256",
              "name": "thirdPartyFee",
              "type": "uint256"
            }
          ],
          "indexed": false,
          "internalType": "struct IRuneRouter.fees",
          "name": "fee",
          "type": "tuple"
        },
        {
          "indexed": false,
          "internalType": "uint256",
          "name": "unwrapFee",
          "type": "uint256"
        },
        {
          "indexed": false,
          "internalType": "address",
          "name": "thirdPartyAddress",
          "type": "address"
        },
        {
          "indexed": false,
          "internalType": "uint256",
          "name": "reqIdx",
          "type": "uint256"
        }
      ],
      "name": "NewRuneUnwrap",
      "type": "event"
    },
    {
      "anonymous": false,
      "inputs": [
        {
          "indexed": false,
          "internalType": "address",
          "name": "user",
          "type": "address"
        },
        {
          "indexed": false,
          "internalType": "uint256",
          "name": "remainingAmount",
          "type": "uint256"
        },
        {
          "indexed": false,
          "internalType": "address",
          "name": "inputToken",
          "type": "address"
        },
        {
          "components": [
            {
              "internalType": "uint256",
              "name": "protocolFee",
              "type": "uint256"
            },
            {
              "internalType": "uint256",
              "name": "lockerFee",
              "type": "uint256"
            },
            {
              "internalType": "uint256",
              "name": "thirdPartyFee",
              "type": "uint256"
            }
          ],
          "indexed": false,
          "internalType": "struct IRuneRouter.fees",
          "name": "fee",
          "type": "tuple"
        },
        {
          "indexed": false,
          "internalType": "address",
          "name": "thirdPartyAddress",
          "type": "address"
        },
        {
          "indexed": false,
          "internalType": "bytes32",
          "name": "txId",
          "type": "bytes32"
        }
      ],
      "name": "NewRuneWrap",
      "type": "event"
    },
    {
      "anonymous": false,
      "inputs": [
        {
          "indexed": false,
          "internalType": "address",
          "name": "user",
          "type": "address"
        },
        {
          "indexed": false,
          "internalType": "uint256",
          "name": "remainingAmount",
          "type": "uint256"
        },
        {
          "indexed": false,
          "internalType": "address",
          "name": "inputToken",
          "type": "address"
        },
        {
          "indexed": false,
          "internalType": "uint256",
          "name": "outputAmount",
          "type": "uint256"
        },
        {
          "indexed": false,
          "internalType": "address",
          "name": "outputToken",
          "type": "address"
        },
        {
          "components": [
            {
              "internalType": "uint256",
              "name": "protocolFee",
              "type": "uint256"
            },
            {
              "internalType": "uint256",
              "name": "lockerFee",
              "type": "uint256"
            },
            {
              "internalType": "uint256",
              "name": "thirdPartyFee",
              "type": "uint256"
            }
          ],
          "indexed": false,
          "internalType": "struct IRuneRouter.fees",
          "name": "fee",
          "type": "tuple"
        },
        {
          "indexed": false,
          "internalType": "address",
          "name": "thirdPartyAddress",
          "type": "address"
        },
        {
          "indexed": false,
          "internalType": "bytes32",
          "name": "txId",
          "type": "bytes32"
        }
      ],
      "name": "NewRuneWrapAndSwap",
      "type": "event"
    },
    {
      "anonymous": false,
      "inputs": [
        {
          "indexed": false,
          "internalType": "address",
          "name": "oldTeleporter",
          "type": "address"
        },
        {
          "indexed": false,
          "internalType": "address",
          "name": "newTeleporter",
          "type": "address"
        }
      ],
      "name": "NewTeleporter",
      "type": "event"
    },
    {
      "anonymous": false,
      "inputs": [
        {
          "indexed": false,
          "internalType": "address",
          "name": "oldTreasury",
          "type": "address"
        },
        {
          "indexed": false,
          "internalType": "address",
          "name": "newTreasury",
          "type": "address"
        }
      ],
      "name": "NewTreasury",
      "type": "event"
    },
    {
      "anonymous": false,
      "inputs": [
        {
          "indexed": true,
          "internalType": "address",
          "name": "previousOwner",
          "type": "address"
        },
        {
          "indexed": true,
          "internalType": "address",
          "name": "newOwner",
          "type": "address"
        }
      ],
      "name": "OwnershipTransferred",
      "type": "event"
    },
    {
      "anonymous": false,
      "inputs": [
        {
          "indexed": false,
          "internalType": "uint256",
          "name": "tokenId",
          "type": "uint256"
        },
        {
          "indexed": false,
          "internalType": "address",
          "name": "wRuneProxy",
          "type": "address"
        }
      ],
      "name": "RuneRemoved",
      "type": "event"
    },
    {
      "anonymous": false,
      "inputs": [
        {
          "indexed": false,
          "internalType": "uint256",
          "name": "appId",
          "type": "uint256"
        },
        {
          "indexed": false,
          "internalType": "address",
          "name": "exchangeConnector",
          "type": "address"
        }
      ],
      "name": "SetExchangeConnector",
      "type": "event"
    },
    {
      "anonymous": false,
      "inputs": [
        {
          "indexed": false,
          "internalType": "uint256",
          "name": "thirdPartyId",
          "type": "uint256"
        },
        {
          "indexed": false,
          "internalType": "address",
          "name": "oldAddress",
          "type": "address"
        },
        {
          "indexed": false,
          "internalType": "uint256",
          "name": "oldFee",
          "type": "uint256"
        },
        {
          "indexed": false,
          "internalType": "address",
          "name": "newAddress",
          "type": "address"
        },
        {
          "indexed": false,
          "internalType": "uint256",
          "name": "newFee",
          "type": "uint256"
        }
      ],
      "name": "ThirdPartyInfoUpdated",
      "type": "event"
    },
    {
      "anonymous": false,
      "inputs": [
        {
          "indexed": false,
          "internalType": "uint256",
          "name": "oldFee",
          "type": "uint256"
        },
        {
          "indexed": false,
          "internalType": "uint256",
          "name": "newFee",
          "type": "uint256"
        }
      ],
      "name": "UnwrapFeeUpdated",
      "type": "event"
    },
    {
      "anonymous": false,
      "inputs": [
        {
          "indexed": false,
          "internalType": "address",
          "name": "user",
          "type": "address"
        },
        {
          "indexed": false,
          "internalType": "uint256",
          "name": "remainingAmount",
          "type": "uint256"
        },
        {
          "indexed": false,
          "internalType": "bytes",
          "name": "userScript",
          "type": "bytes"
        },
        {
          "indexed": false,
          "internalType": "enum ScriptTypes",
          "name": "scriptType",
          "type": "uint8"
        },
        {
          "indexed": false,
          "internalType": "uint256",
          "name": "reqIdx",
          "type": "uint256"
        }
      ],
      "name": "UnwrapRuneProcessed",
      "type": "event"
    },
    {
      "inputs": [
        {
          "internalType": "string",
          "name": "_name",
          "type": "string"
        },
        {
          "internalType": "string",
          "name": "_symbol",
          "type": "string"
        },
        {
          "internalType": "string",
          "name": "_runeId",
          "type": "string"
        },
        {
          "internalType": "uint8",
          "name": "_decimal",
          "type": "uint8"
        },
        {
          "internalType": "uint256",
          "name": "_internalId",
          "type": "uint256"
        }
      ],
      "name": "addRune",
      "outputs": [],
      "stateMutability": "nonpayable",
      "type": "function"
    },
    {
      "inputs": [],
      "name": "chainId",
      "outputs": [
        {
          "internalType": "uint256",
          "name": "",
          "type": "uint256"
        }
      ],
      "stateMutability": "view",
      "type": "function"
    },
    {
      "inputs": [
        {
          "internalType": "uint256",
          "name": "",
          "type": "uint256"
        }
      ],
      "name": "exchangeConnector",
      "outputs": [
        {
          "internalType": "address",
          "name": "",
          "type": "address"
        }
      ],
      "stateMutability": "view",
      "type": "function"
    },
    {
      "inputs": [
        {
          "internalType": "uint256",
          "name": "_startingBlockNumber",
          "type": "uint256"
        },
        {
          "internalType": "uint256",
          "name": "_protocolPercentageFee",
          "type": "uint256"
        },
        {
          "internalType": "uint256",
          "name": "_chainId",
          "type": "uint256"
        },
        {
          "internalType": "address",
          "name": "_relay",
          "type": "address"
        },
        {
          "internalType": "address",
          "name": "_locker",
          "type": "address"
        },
        {
          "internalType": "bytes",
          "name": "_lockerLockingScript",
          "type": "bytes"
        },
        {
          "internalType": "enum ScriptTypes",
          "name": "_lockerScriptType",
          "type": "uint8"
        },
        {
          "internalType": "address",
          "name": "_teleporter",
          "type": "address"
        },
        {
          "internalType": "address",
          "name": "_treasury",
          "type": "address"
        },
        {
          "internalType": "address",
          "name": "_wrappedNativeToken",
          "type": "address"
        }
      ],
      "name": "initialize",
      "outputs": [],
      "stateMutability": "nonpayable",
      "type": "function"
    },
    {
      "inputs": [
        {
          "internalType": "address",
          "name": "",
          "type": "address"
        }
      ],
      "name": "internalIds",
      "outputs": [
        {
          "internalType": "uint256",
          "name": "",
          "type": "uint256"
        }
      ],
      "stateMutability": "view",
      "type": "function"
    },
    {
      "inputs": [
        {
          "internalType": "uint256",
          "name": "_reqIdx",
          "type": "uint256"
        }
      ],
      "name": "isUnwrapRequestProcessed",
      "outputs": [
        {
          "internalType": "bool",
          "name": "",
          "type": "bool"
        }
      ],
      "stateMutability": "view",
      "type": "function"
    },
    {
      "inputs": [
        {
          "internalType": "bytes32",
          "name": "_txId",
          "type": "bytes32"
        }
      ],
      "name": "isWrapRequestProcessed",
      "outputs": [
        {
          "internalType": "bool",
          "name": "",
          "type": "bool"
        }
      ],
      "stateMutability": "view",
      "type": "function"
    },
    {
      "inputs": [],
      "name": "locker",
      "outputs": [
        {
          "internalType": "address",
          "name": "",
          "type": "address"
        }
      ],
      "stateMutability": "view",
      "type": "function"
    },
    {
      "inputs": [],
      "name": "lockerLockingScript",
      "outputs": [
        {
          "internalType": "bytes",
          "name": "",
          "type": "bytes"
        }
      ],
      "stateMutability": "view",
      "type": "function"
    },
    {
      "inputs": [],
      "name": "lockerPercentageFee",
      "outputs": [
        {
          "internalType": "uint256",
          "name": "",
          "type": "uint256"
        }
      ],
      "stateMutability": "view",
      "type": "function"
    },
    {
      "inputs": [],
      "name": "lockerScriptType",
      "outputs": [
        {
          "internalType": "enum ScriptTypes",
          "name": "",
          "type": "uint8"
        }
      ],
      "stateMutability": "view",
      "type": "function"
    },
    {
      "inputs": [],
      "name": "owner",
      "outputs": [
        {
          "internalType": "address",
          "name": "",
          "type": "address"
        }
      ],
      "stateMutability": "view",
      "type": "function"
    },
    {
      "inputs": [],
      "name": "protocolPercentageFee",
      "outputs": [
        {
          "internalType": "uint256",
          "name": "",
          "type": "uint256"
        }
      ],
      "stateMutability": "view",
      "type": "function"
    },
    {
      "inputs": [],
      "name": "relay",
      "outputs": [
        {
          "internalType": "address",
          "name": "",
          "type": "address"
        }
      ],
      "stateMutability": "view",
      "type": "function"
    },
    {
      "inputs": [
        {
          "internalType": "uint256",
          "name": "_internalId",
          "type": "uint256"
        }
      ],
      "name": "removeRune",
      "outputs": [],
      "stateMutability": "nonpayable",
      "type": "function"
    },
    {
      "inputs": [],
      "name": "renounceOwnership",
      "outputs": [],
      "stateMutability": "nonpayable",
      "type": "function"
    },
    {
      "inputs": [
        {
          "internalType": "address",
          "name": "",
          "type": "address"
        }
      ],
      "name": "runeIds",
      "outputs": [
        {
          "internalType": "string",
          "name": "",
          "type": "string"
        }
      ],
      "stateMutability": "view",
      "type": "function"
    },
    {
      "inputs": [],
      "name": "runeUnwrapCounter",
      "outputs": [
        {
          "internalType": "uint256",
          "name": "",
          "type": "uint256"
        }
      ],
      "stateMutability": "view",
      "type": "function"
    },
    {
      "inputs": [
        {
          "internalType": "uint256",
          "name": "",
          "type": "uint256"
        }
      ],
      "name": "runeUnwrapRequests",
      "outputs": [
        {
          "internalType": "bool",
          "name": "isProcessed",
          "type": "bool"
        },
        {
          "internalType": "uint256",
          "name": "amount",
          "type": "uint256"
        },
        {
          "internalType": "uint256",
          "name": "burntAmount",
          "type": "uint256"
        },
        {
          "internalType": "uint256",
          "name": "appId",
          "type": "uint256"
        },
        {
          "internalType": "address",
          "name": "sender",
          "type": "address"
        },
        {
          "internalType": "bytes",
          "name": "userScript",
          "type": "bytes"
        },
        {
          "internalType": "enum ScriptTypes",
          "name": "scriptType",
          "type": "uint8"
        }
      ],
      "stateMutability": "view",
      "type": "function"
    },
    {
      "inputs": [
        {
          "internalType": "bytes32",
          "name": "",
          "type": "bytes32"
        }
      ],
      "name": "runeWrapRequests",
      "outputs": [
        {
          "internalType": "bool",
          "name": "isUsed",
          "type": "bool"
        },
        {
          "internalType": "uint256",
          "name": "chainId",
          "type": "uint256"
        },
        {
          "internalType": "uint256",
          "name": "appId",
          "type": "uint256"
        },
        {
          "internalType": "uint256",
          "name": "tokenId",
          "type": "uint256"
        },
        {
          "internalType": "uint256",
          "name": "inputAmount",
          "type": "uint256"
        },
        {
          "internalType": "address",
          "name": "inputToken",
          "type": "address"
        },
        {
          "internalType": "address",
          "name": "recipientAddress",
          "type": "address"
        },
        {
          "internalType": "uint256",
          "name": "thirdPartyId",
          "type": "uint256"
        },
        {
          "internalType": "uint256",
          "name": "fee",
          "type": "uint256"
        },
        {
          "internalType": "uint256",
          "name": "outputAmount",
          "type": "uint256"
        },
        {
          "internalType": "address",
          "name": "outputToken",
          "type": "address"
        }
      ],
      "stateMutability": "view",
      "type": "function"
    },
    {
      "inputs": [
        {
          "internalType": "uint256",
          "name": "_chainId",
          "type": "uint256"
        }
      ],
      "name": "setChainId",
      "outputs": [],
      "stateMutability": "nonpayable",
      "type": "function"
    },
    {
      "inputs": [
        {
          "internalType": "uint256",
          "name": "_appId",
          "type": "uint256"
        },
        {
          "internalType": "address",
          "name": "_exchangeConnector",
          "type": "address"
        }
      ],
      "name": "setExchangeConnector",
      "outputs": [],
      "stateMutability": "nonpayable",
      "type": "function"
    },
    {
      "inputs": [
        {
          "internalType": "address",
          "name": "_locker",
          "type": "address"
        }
      ],
      "name": "setLocker",
      "outputs": [],
      "stateMutability": "nonpayable",
      "type": "function"
    },
    {
      "inputs": [
        {
          "internalType": "bytes",
          "name": "_lockerLockingScript",
          "type": "bytes"
        },
        {
          "internalType": "enum ScriptTypes",
          "name": "_lockerScriptType",
          "type": "uint8"
        }
      ],
      "name": "setLockerLockingScript",
      "outputs": [],
      "stateMutability": "nonpayable",
      "type": "function"
    },
    {
      "inputs": [
        {
          "internalType": "uint256",
          "name": "_protocolPercentageFee",
          "type": "uint256"
        }
      ],
      "name": "setProtocolPercentageFee",
      "outputs": [],
      "stateMutability": "nonpayable",
      "type": "function"
    },
    {
      "inputs": [
        {
          "internalType": "address",
          "name": "_relay",
          "type": "address"
        }
      ],
      "name": "setRelay",
      "outputs": [],
      "stateMutability": "nonpayable",
      "type": "function"
    },
    {
      "inputs": [
        {
          "internalType": "uint256",
          "name": "_startingBlockNumber",
          "type": "uint256"
        }
      ],
      "name": "setStartingBlockNumber",
      "outputs": [],
      "stateMutability": "nonpayable",
      "type": "function"
    },
    {
      "inputs": [
        {
          "internalType": "address",
          "name": "_teleporter",
          "type": "address"
        }
      ],
      "name": "setTeleporter",
      "outputs": [],
      "stateMutability": "nonpayable",
      "type": "function"
    },
    {
      "inputs": [
        {
          "internalType": "uint256",
          "name": "_thirdPartyId",
          "type": "uint256"
        },
        {
          "internalType": "address",
          "name": "_thirdPartyAddress",
          "type": "address"
        },
        {
          "internalType": "uint256",
          "name": "_thirdPartyFee",
          "type": "uint256"
        }
      ],
      "name": "setThirdParty",
      "outputs": [],
      "stateMutability": "nonpayable",
      "type": "function"
    },
    {
      "inputs": [
        {
          "internalType": "address",
          "name": "_treasury",
          "type": "address"
        }
      ],
      "name": "setTreasury",
      "outputs": [],
      "stateMutability": "nonpayable",
      "type": "function"
    },
    {
      "inputs": [
        {
          "internalType": "uint256",
          "name": "_newFee",
          "type": "uint256"
        }
      ],
      "name": "setUnwrapFee",
      "outputs": [],
      "stateMutability": "nonpayable",
      "type": "function"
    },
    {
      "inputs": [
        {
          "internalType": "address",
          "name": "_wrappedNativeToken",
          "type": "address"
        }
      ],
      "name": "setWrappedNativeToken",
      "outputs": [],
      "stateMutability": "nonpayable",
      "type": "function"
    },
    {
      "inputs": [],
      "name": "startingBlockNumber",
      "outputs": [
        {
          "internalType": "uint256",
          "name": "",
          "type": "uint256"
        }
      ],
      "stateMutability": "view",
      "type": "function"
    },
    {
      "inputs": [
        {
          "internalType": "uint256",
          "name": "",
          "type": "uint256"
        }
      ],
      "name": "supportedRunes",
      "outputs": [
        {
          "internalType": "address",
          "name": "",
          "type": "address"
        }
      ],
      "stateMutability": "view",
      "type": "function"
    },
    {
      "inputs": [],
      "name": "teleporter",
      "outputs": [
        {
          "internalType": "address",
          "name": "",
          "type": "address"
        }
      ],
      "stateMutability": "view",
      "type": "function"
    },
    {
      "inputs": [
        {
          "internalType": "uint256",
          "name": "",
          "type": "uint256"
        }
      ],
      "name": "thirdParties",
      "outputs": [
        {
          "internalType": "address",
          "name": "thirdPartyAddress",
          "type": "address"
        },
        {
          "internalType": "uint256",
          "name": "thirdPartyFee",
          "type": "uint256"
        }
      ],
      "stateMutability": "view",
      "type": "function"
    },
    {
      "inputs": [],
      "name": "totalRuneUnwrapRequests",
      "outputs": [
        {
          "internalType": "uint256",
          "name": "",
          "type": "uint256"
        }
      ],
      "stateMutability": "view",
      "type": "function"
    },
    {
      "inputs": [
        {
          "internalType": "address",
          "name": "newOwner",
          "type": "address"
        }
      ],
      "name": "transferOwnership",
      "outputs": [],
      "stateMutability": "nonpayable",
      "type": "function"
    },
    {
      "inputs": [],
      "name": "treasury",
      "outputs": [
        {
          "internalType": "address",
          "name": "",
          "type": "address"
        }
      ],
      "stateMutability": "view",
      "type": "function"
    },
    {
      "inputs": [],
      "name": "unwrapFee",
      "outputs": [
        {
          "internalType": "uint256",
          "name": "",
          "type": "uint256"
        }
      ],
      "stateMutability": "view",
      "type": "function"
    },
    {
      "inputs": [
        {
          "internalType": "bytes4",
          "name": "_version",
          "type": "bytes4"
        },
        {
          "internalType": "bytes",
          "name": "_vin",
          "type": "bytes"
        },
        {
          "internalType": "bytes",
          "name": "_vout",
          "type": "bytes"
        },
        {
          "internalType": "bytes4",
          "name": "_locktime",
          "type": "bytes4"
        },
        {
          "internalType": "uint256",
          "name": "_blockNumber",
          "type": "uint256"
        },
        {
          "internalType": "bytes",
          "name": "_intermediateNodes",
          "type": "bytes"
        },
        {
          "internalType": "uint256",
          "name": "_index",
          "type": "uint256"
        },
        {
          "internalType": "uint256[]",
          "name": "_reqIndexes",
          "type": "uint256[]"
        }
      ],
      "name": "unwrapProofRune",
      "outputs": [],
      "stateMutability": "payable",
      "type": "function"
    },
    {
      "inputs": [
        {
          "internalType": "uint256",
          "name": "_thirdPartyId",
          "type": "uint256"
        },
        {
          "internalType": "uint256",
          "name": "_internalId",
          "type": "uint256"
        },
        {
          "internalType": "uint256",
          "name": "_amount",
          "type": "uint256"
        },
        {
          "internalType": "bytes",
          "name": "_userScript",
          "type": "bytes"
        },
        {
          "internalType": "enum ScriptTypes",
          "name": "_scriptType",
          "type": "uint8"
        },
        {
          "internalType": "uint256",
          "name": "_appId",
          "type": "uint256"
        },
        {
          "internalType": "uint256",
          "name": "_inputAmount",
          "type": "uint256"
        },
        {
          "internalType": "address[]",
          "name": "_path",
          "type": "address[]"
        }
      ],
      "name": "unwrapRune",
      "outputs": [],
      "stateMutability": "payable",
      "type": "function"
    },
    {
      "inputs": [
        {
          "internalType": "bytes4",
          "name": "_version",
          "type": "bytes4"
        },
        {
          "internalType": "bytes",
          "name": "_vin",
          "type": "bytes"
        },
        {
          "internalType": "bytes",
          "name": "_vout",
          "type": "bytes"
        },
        {
          "internalType": "bytes4",
          "name": "_locktime",
          "type": "bytes4"
        },
        {
          "internalType": "uint256",
          "name": "_blockNumber",
          "type": "uint256"
        },
        {
          "internalType": "bytes",
          "name": "_intermediateNodes",
          "type": "bytes"
        },
        {
          "internalType": "uint256",
          "name": "_index",
          "type": "uint256"
        },
        {
          "internalType": "address[]",
          "name": "_path",
          "type": "address[]"
        }
      ],
      "name": "wrapRune",
      "outputs": [],
      "stateMutability": "payable",
      "type": "function"
    },
    {
      "inputs": [],
      "name": "wrappedNativeToken",
      "outputs": [
        {
          "internalType": "address",
          "name": "",
          "type": "address"
        }
      ],
      "stateMutability": "view",
      "type": "function"
    },
    {
      "stateMutability": "payable",
      "type": "receive"
    }
  ],
  "transactionHash": "0xf75afe84c2bf876e2c7d3b1da671231b05a62f723f8f288d3afbcba726e89f59",
  "args": [],
  "numDeployments": 1,
  "solcInputHash": "4d68c76d24a81a74f4e584768b483737",
  "bytecode": "0x608060405234801561001057600080fd5b5061552f806100206000396000f3fe608060405260043610620002285760003560e01c8063023e25b41462000235578063068bf8741462000287578063088302a614620002ae5780630e72e41e14620002d5578063171060ec146200030b57806317fcb39b14620003305780631812adb614620003525780631e7107c714620003795780632104cb6b146200039e5780633669391e14620003c3578063402e01f814620003db57806349c544e1146200040057806361d027b314620004175780636390802014620004395780636b2857ef14620004515780636e8adf61146200047657806370872aa514620004b0578063715018a614620004c857806375122f6214620004e05780637ed557481462000505578063839ae1d7146200052a5780638be727e114620005415780638da5cb5b146200056657806390665eca146200057e5780639637e4a814620005955780639a8a059214620005ba5780639aed427914620005d25780639eca445314620005ea578063a3696a09146200063e578063a44c2b9a1462000663578063ae2a74ee1462000688578063b3ff9f4914620006b9578063b4e183f414620006e0578063b59589d11462000705578063c805f68b1462000727578063d4603f4c146200074c578063d7b96d4e1462000786578063d8484ef514620007a8578063da058ae314620007d3578063e765078814620007f8578063e91ffefd14620008ec578063ef0e2ff41462000903578063f0f442601462000928578063f2fde38b146200094d57600080fd5b366200023057005b600080fd5b3480156200024257600080fd5b506200026f62000254366004620036d5565b609f602052600090815260409020546001600160a01b031681565b6040516200027e919062003d63565b60405180910390f35b3480156200029457600080fd5b50620002ac620002a636600462003940565b62000972565b005b348015620002bb57600080fd5b50620002c662000c82565b6040516200027e919062004174565b348015620002e257600080fd5b50620002fa620002f4366004620036d5565b62000d18565b60405190151581526020016200027e565b3480156200031857600080fd5b50620002ac6200032a366004620035c1565b62000d66565b3480156200033d57600080fd5b5060a9546200026f906001600160a01b031681565b3480156200035f57600080fd5b506200036a60995481565b6040519081526020016200027e565b3480156200038657600080fd5b50620002ac62000398366004620036d5565b62000e06565b348015620003ab57600080fd5b50620002ac620003bd36600462003af8565b62000e66565b348015620003d057600080fd5b506200036a609b5481565b348015620003e857600080fd5b50620002c6620003fa366004620035c1565b62000ff2565b620002ac6200041136600462003707565b6200100d565b3480156200042457600080fd5b50609d546200026f906001600160a01b031681565b3480156200044657600080fd5b506200036a609a5481565b3480156200045e57600080fd5b50620002ac6200047036600462003a33565b62001880565b3480156200048357600080fd5b506200026f62000495366004620036d5565b60a3602052600090815260409020546001600160a01b031681565b348015620004bd57600080fd5b506200036a60975481565b348015620004d557600080fd5b50620002ac620018f3565b348015620004ed57600080fd5b50620002ac620004ff36600462003a65565b620018ff565b3480156200051257600080fd5b50620002ac62000524366004620036d5565b620019c0565b620002ac6200053b36600462003802565b62001a5f565b3480156200054e57600080fd5b50620002ac62000560366004620036d5565b62001ed0565b3480156200057357600080fd5b506200026f62001fd0565b3480156200058b57600080fd5b5060a4546200036a565b348015620005a257600080fd5b50620002ac620005b4366004620036d5565b62001fdf565b348015620005c757600080fd5b506200036a60985481565b348015620005df57600080fd5b506200036a60a85481565b348015620005f757600080fd5b506200062e62000609366004620036d5565b60a760205260009081526040902080546001909101546001600160a01b039091169082565b6040516200027e92919062003f02565b3480156200064b57600080fd5b50620002ac6200065d366004620035c1565b6200202a565b3480156200067057600080fd5b50620002fa62000682366004620036d5565b620020d7565b3480156200069557600080fd5b506200036a620006a7366004620035c1565b60a16020526000908152604090205481565b348015620006c657600080fd5b5060a6546200026f9061010090046001600160a01b031681565b348015620006ed57600080fd5b50620002ac620006ff366004620038ef565b620020f6565b3480156200071257600080fd5b50609c546200026f906001600160a01b031681565b3480156200073457600080fd5b50620002ac62000746366004620035c1565b6200214d565b3480156200075957600080fd5b50620007716200076b366004620036d5565b620021ed565b6040516200027e97969594939291906200411a565b3480156200079357600080fd5b50609e546200026f906001600160a01b031681565b348015620007b557600080fd5b5060a654620007c49060ff1681565b6040516200027e919062004189565b348015620007e057600080fd5b50620002ac620007f2366004620035c1565b620022e1565b3480156200080557600080fd5b506200088262000817366004620036d5565b60a260205260009081526040902080546001820154600283015460038401546004850154600586015460068701546007880154600889015460098a0154600a909a015460ff9099169997989697959694956001600160a01b039485169593851694929391929091168b565b604080519b15158c5260208c019a909a52988a0197909752606089019590955260808801939093526001600160a01b0391821660a0880152811660c087015260e086019190915261010085019190915261012084019190915216610140820152610160016200027e565b620002ac620008fd36600462003bd1565b62002338565b3480156200091057600080fd5b50620002ac62000922366004620036d5565b620028d0565b3480156200093557600080fd5b50620002ac62000947366004620035c1565b620028df565b3480156200095a57600080fd5b50620002ac6200096c366004620035c1565b6200297f565b6200097c620029fe565b6000818152609f60205260409020546001600160a01b031615620009e25760405162461bcd60e51b8152602060048201526018602482015277149d5b99549bdd5d195c931bd9da58ce881d5cd959081a5960421b60448201526064015b60405180910390fd5b600073C2276ee54B85Da9c7F61872Bf6e1C761dE170B396374c6d02c6040518163ffffffff1660e01b815260040160206040518083038186803b15801562000a2957600080fd5b505af415801562000a3e573d6000803e3d6000fd5b505050506040513d601f19601f8201168201806040525081019062000a649190620035e7565b9050606060008262000a7562001fd0565b8360405162000a849062003296565b62000a929392919062003d91565b604051809103906000f08015801562000aaf573d6000803e3d6000fd5b50604051630b127b6360e11b815290915081906001600160a01b03821690631624f6c69062000ae7908c908c908b906004016200420b565b600060405180830381600087803b15801562000b0257600080fd5b505af115801562000b17573d6000803e3d6000fd5b5050604051634c1d96ab60e11b81526001600160a01b038416925063983b2d56915062000b4990309060040162003d63565b600060405180830381600087803b15801562000b6457600080fd5b505af115801562000b79573d6000803e3d6000fd5b5050604051637a231bdd60e11b81526001600160a01b038416925063f44637ba915062000bab90309060040162003d63565b600060405180830381600087803b15801562000bc657600080fd5b505af115801562000bdb573d6000803e3d6000fd5b5050506000868152609f6020908152604080832080546001600160a01b0319166001600160a01b038716908117909155835260a1825280832089905560a08252909120895162000c31935090918a0190620032a4565b507f175ec5a73d18c14429b1199d5fac7097c1c021f98a45d4bcfdeddedfbcc04f3c8989898989868a60405162000c6f979695949392919062004199565b60405180910390a1505050505050505050565b60a5805462000c919062004530565b80601f016020809104026020016040519081016040528092919081815260200182805462000cbf9062004530565b801562000d105780601f1062000ce45761010080835404028352916020019162000d10565b820191906000526020600020905b81548152906001019060200180831162000cf257829003601f168201915b505050505081565b600060a4828154811062000d3c57634e487b7160e01b600052603260045260246000fd5b600091825260209091206007909102015460ff1662000d5d57600062000d60565b60015b92915050565b806001600160a01b03811662000d905760405162461bcd60e51b8152600401620009d99062004293565b62000d9a620029fe565b609e546040517f69253c7023f628e3a302b63087a3bfc1dfdb256780182f81b9f0df9eff9542b09162000ddb916001600160a01b0390911690859062003d77565b60405180910390a150609e80546001600160a01b0319166001600160a01b0392909216919091179055565b62000e10620029fe565b609754811162000e615760405162461bcd60e51b815260206004820152601b60248201527a293ab732a937baba32b92637b3b4b19d103637bb90373ab6b132b960291b6044820152606401620009d9565b609755565b600054610100900460ff161580801562000e875750600054600160ff909116105b8062000ea35750303b15801562000ea3575060005460ff166001145b62000f085760405162461bcd60e51b815260206004820152602e60248201527f496e697469616c697a61626c653a20636f6e747261637420697320616c72656160448201526d191e481a5b9a5d1a585b1a5e995960921b6064820152608401620009d9565b6000805460ff19166001179055801562000f2c576000805461ff0019166101001790555b62000f3662002a61565b62000f4062002a95565b609889905562000f508b62000e06565b62000f5b8a620019c0565b62000f66886200214d565b62000f718762000d66565b62000f7d8686620020f6565b62000f88846200202a565b62000f9383620028df565b62000f9e82620022e1565b801562000fe5576000805461ff0019169055604051600181527f7f26b83ff96e1f2b6a682f133852f6798a09c465da95921460cefb38474024989060200160405180910390a15b5050505050505050505050565b60a0602052600090815260409020805462000c919062004530565b6200101762002ac9565b60a65461010090046001600160a01b0316336001600160a01b031614620010815760405162461bcd60e51b815260206004820152601f60248201527f52756e65526f757465724c6f6769633a206e6f742074656c65706f72746572006044820152606401620009d9565b600073C2276ee54B85Da9c7F61872Bf6e1C761dE170B3963e291283d609754609c60009054906101000a90046001600160a01b03168e8e8e8e8e8e8e8e8e6040518c63ffffffff1660e01b8152600401620010e79b9a99989796959493929190620042e1565b60206040518083038186803b1580156200110057600080fd5b505af415801562001115573d6000803e3d6000fd5b505050506040513d601f19601f820116820180604052508101906200113b9190620036ee565b905060008060008073C2276ee54B85Da9c7F61872Bf6e1C761dE170B3963d27fd71f6098548f8f8960a2609f60a7609954609a546040518a63ffffffff1660e01b8152600401620011959998979695949392919062004407565b60c06040518083038186803b158015620011ae57600080fd5b505af4158015620011c3573d6000803e3d6000fd5b505050506040513d601f19601f82011682018060405250810190620011e9919062003a9f565b9350935093509350806001600160a01b03166340c10f1930868660400151876020015188600001516200121d9190620044fb565b620012299190620044fb565b620012359190620044fb565b6040518363ffffffff1660e01b81526004016200125492919062003f02565b602060405180830381600087803b1580156200126f57600080fd5b505af115801562001284573d6000803e3d6000fd5b505050506040513d601f19601f82011682018060405250810190620012aa919062003606565b50609d54835160405163a9059cbb60e01b81526001600160a01b038481169363a9059cbb93620012e293929091169160040162003f02565b602060405180830381600087803b158015620012fd57600080fd5b505af115801562001312573d6000803e3d6000fd5b505050506040513d601f19601f8201168201806040525081019062001338919062003606565b50609e54602084015160405163a9059cbb60e01b81526001600160a01b038481169363a9059cbb936200137393929091169160040162003f02565b602060405180830381600087803b1580156200138e57600080fd5b505af1158015620013a3573d6000803e3d6000fd5b505050506040513d601f19601f82011682018060405250810190620013c9919062003606565b506001600160a01b038216156200146557604080840151905163a9059cbb60e01b81526001600160a01b0383169163a9059cbb916200140d91869160040162003f02565b602060405180830381600087803b1580156200142857600080fd5b505af11580156200143d573d6000803e3d6000fd5b505050506040513d601f19601f8201168201806040525081019062001463919062003606565b505b600085815260a26020908152604091829020825161016081018452815460ff16151581526001820154928101929092526002810154928201839052600381015460608301526004810154608083015260058101546001600160a01b0390811660a08401526006820154811660c0840152600782015460e084015260088201546101008401526009820154610120840152600a909101541661014082015290620015e05760c081015160405163a9059cbb60e01b81526001600160a01b0384169163a9059cbb916200153c9190899060040162003f02565b602060405180830381600087803b1580156200155757600080fd5b505af11580156200156c573d6000803e3d6000fd5b505050506040513d601f19601f8201168201806040525081019062001592919062003606565b507f43c9c64e3d0a7d664252e89fe26c8958a77098900ebf13f7aa95030a371bc4328160c00151868487878b604051620015d29695949392919062003f1b565b60405180910390a162001863565b8060a001516001600160a01b0316876000815181106200161057634e487b7160e01b600052603260045260246000fd5b60200260200101516001600160a01b03161480156200167c57508061014001516001600160a01b031687600189516200164a919062004516565b815181106200166957634e487b7160e01b600052603260045260246000fd5b60200260200101516001600160a01b0316145b620016c85760405162461bcd60e51b815260206004820152601b60248201527a0a4eadccaa4deeae8cae498deced2c67440eee4dedcce40e0c2e8d602b1b6044820152606401620009d9565b600080620016e783604001518460c00151898661012001518d62002b25565b9150915081156200177f577fed12b1e275b408eb8b01de7d246293c2daf02f98422b51b0af3012463e2a725e8360c00151888684600186516200172b919062004516565b815181106200174a57634e487b7160e01b600052603260045260246000fd5b60200260200101518761014001518b8b8f6040516200177198979695949392919062003f61565b60405180910390a162001860565b7f2eefdda27738a7be93aea5dafceb4d8af2e8e046fd411a8c94bb449508af05a28360c0015188868661012001518761014001518b8b8f604051620017cc98979695949392919062003f61565b60405180910390a160c083015160405163a9059cbb60e01b81526001600160a01b0386169163a9059cbb916200180891908b9060040162003f02565b602060405180830381600087803b1580156200182357600080fd5b505af115801562001838573d6000803e3d6000fd5b505050506040513d601f19601f820116820180604052508101906200185e919062003606565b505b50505b505050505050620018746001606555565b50505050505050505050565b6200188a620029fe565b7f31a8c4e62daac2a3ed5d713004d9ae867d6dcddfa35603db2a4b65d9236b1bc18282604051620018bd929190620042ca565b60405180910390a1600091825260a3602052604090912080546001600160a01b0319166001600160a01b03909216919091179055565b620018fd620029fe565b565b62001909620029fe565b600083815260a76020908152604091829020805460019091015483518781526001600160a01b039283169381019390935282840152841660608201526080810183905290517f23385740814648db624aa52a0c990fc42def14e1b04e7fe5b2bf87b85e1294529181900360a00190a16040805180820182526001600160a01b0393841681526020808201938452600095865260a790529320925183546001600160a01b031916921691909117825551600190910155565b620019ca620029fe565b80612710101562001a1e5760405162461bcd60e51b815260206004820152601d60248201527f52756e65526f757465724c6f6769633a206f7574206f662072616e67650000006044820152606401620009d9565b60995460408051918252602082018390527f7d205f60891f60851c61cd244ba387d72b6589e7c0ac41b9d909ab0ce2c2a53b910160405180910390a1609955565b62001a6962002ac9565b609e546001600160a01b0316336001600160a01b03161462001acc5760405162461bcd60e51b815260206004820152601b60248201527a293ab732a937baba32b92637b3b4b19d103737ba103637b1b5b2b960291b6044820152606401620009d9565b609754609c5460405163e291283d60e01b815273C2276ee54B85Da9c7F61872Bf6e1C761dE170B399263e291283d9262001b23926001600160a01b03909116908d908d908d908d908d908d908d9060040162004376565b60206040518083038186803b15801562001b3c57600080fd5b505af415801562001b51573d6000803e3d6000fd5b505050506040513d601f19601f8201168201806040525081019062001b779190620036ee565b5060005b815181101562001eba5760a482828151811062001ba857634e487b7160e01b600052603260045260246000fd5b60200260200101518154811062001bcf57634e487b7160e01b600052603260045260246000fd5b600091825260209091206007909102015460ff161562001c3d5760405162461bcd60e51b815260206004820152602260248201527f52756e65526f757465724c6f6769633a20616c72656164792070726f63657373604482015261195960f21b6064820152608401620009d9565b600160a483838151811062001c6257634e487b7160e01b600052603260045260246000fd5b60200260200101518154811062001c8957634e487b7160e01b600052603260045260246000fd5b906000526020600020906007020160000160006101000a81548160ff0219169083151502179055507f42975333d773ba95b24fa6c9b8127fc4a9bc1bafb6293c8c9daa4f6aed0bc34960a483838151811062001cf557634e487b7160e01b600052603260045260246000fd5b60200260200101518154811062001d1c57634e487b7160e01b600052603260045260246000fd5b906000526020600020906007020160040160009054906101000a90046001600160a01b031660a484848151811062001d6457634e487b7160e01b600052603260045260246000fd5b60200260200101518154811062001d8b57634e487b7160e01b600052603260045260246000fd5b90600052602060002090600702016002015460a485858151811062001dc057634e487b7160e01b600052603260045260246000fd5b60200260200101518154811062001de757634e487b7160e01b600052603260045260246000fd5b906000526020600020906007020160050160a486868151811062001e1b57634e487b7160e01b600052603260045260246000fd5b60200260200101518154811062001e4257634e487b7160e01b600052603260045260246000fd5b906000526020600020906007020160060160009054906101000a900460ff1686868151811062001e8257634e487b7160e01b600052603260045260246000fd5b602002602001015160405162001e9d95949392919062003fba565b60405180910390a18062001eb1816200456d565b91505062001b7b565b5062001ec66001606555565b5050505050505050565b62001eda620029fe565b6000818152609f60205260409020546001600160a01b03168062001f3d5760405162461bcd60e51b8152602060048201526019602482015278293ab732a937baba32b92637b3b4b19d103737903a37b5b2b760391b6044820152606401620009d9565b7ff61991393940604b8433d5f9a855624b8452e131d66e476a45c7139651df9699828260405162001f70929190620042ca565b60405180910390a16001600160a01b038116600090815260a06020526040812062001f9b9162003333565b6001600160a01b0316600090815260a160209081526040808320839055928252609f90522080546001600160a01b0319169055565b6033546001600160a01b031690565b62001fe9620029fe565b60a85460408051918252602082018390527f24a1cf21e7b4eac23dffa41704078ed28bbe2a42187f6aa014899c5413cd01b7910160405180910390a160a855565b806001600160a01b038116620020545760405162461bcd60e51b8152600401620009d99062004293565b6200205e620029fe565b7f150b77d21bd499fd0dccea9fe32513c7b65aa34ccde41e7dafac74ace8e19c9460a660019054906101000a90046001600160a01b031683604051620020a692919062003d77565b60405180910390a15060a680546001600160a01b0390921661010002610100600160a81b0319909216919091179055565b600081815260a2602052604081205460ff1662000d5d57600062000d60565b62002100620029fe565b8151620021159060a5906020850190620032a4565b5060a6805482919060ff191660018360058111156200214457634e487b7160e01b600052602160045260246000fd5b02179055505050565b806001600160a01b038116620021775760405162461bcd60e51b8152600401620009d99062004293565b62002181620029fe565b609c546040517f4c28a3f61a715259c4dc930c23e7423b8fa52e13232c061a6e488729c66184f491620021c2916001600160a01b0390911690859062003d77565b60405180910390a150609c80546001600160a01b0319166001600160a01b0392909216919091179055565b60a48181548110620021fe57600080fd5b600091825260209091206007909102018054600182015460028301546003840154600485015460058601805460ff90961697509395929491936001600160a01b0390911692916200224f9062004530565b80601f01602080910402602001604051908101604052809291908181526020018280546200227d9062004530565b8015620022ce5780601f10620022a257610100808354040283529160200191620022ce565b820191906000526020600020905b815481529060010190602001808311620022b057829003601f168201915b5050506006909301549192505060ff1687565b806001600160a01b0381166200230b5760405162461bcd60e51b8152600401620009d99062004293565b62002315620029fe565b5060a980546001600160a01b0319166001600160a01b0392909216919091179055565b6200234262002ac9565b6000878152609f60205260409020546001600160a01b031680620023a95760405162461bcd60e51b815260206004820152601e60248201527f52756e65526f757465724c6f6769633a206e6f7420737570706f7274656400006044820152606401620009d9565b60a8543411156200250f5760a854620023c39084620044fb565b3414620024125760405162461bcd60e51b815260206004820152601c60248201527b52756e65526f757465724c6f6769633a2077726f6e672076616c756560201b6044820152606401620009d9565b816000815181106200243457634e487b7160e01b600052603260045260246000fd5b602090810291909101015160a9546001600160a01b039081169116146200249e5760405162461bcd60e51b815260206004820152601d60248201527f52756e65526f757465724c6f6769633a20696e76616c696420706174680000006044820152606401620009d9565b60a960009054906101000a90046001600160a01b03166001600160a01b031663d0e30db0846040518263ffffffff1660e01b81526004016000604051808303818588803b158015620024ef57600080fd5b505af115801562002504573d6000803e3d6000fd5b50505050506200255f565b60a85434146200255f5760405162461bcd60e51b815260206004820152601a60248201527952756e65526f757465724c6f6769633a2077726f6e672066656560301b6044820152606401620009d9565b815115620026d25760a8543414156200262c57816000815181106200259457634e487b7160e01b600052603260045260246000fd5b60200260200101516001600160a01b03166323b872dd620025b23390565b30866040518463ffffffff1660e01b8152600401620025d49392919062003dc8565b602060405180830381600087803b158015620025ef57600080fd5b505af115801562002604573d6000803e3d6000fd5b505050506040513d601f19601f820116820180604052508101906200262a919062003606565b505b6000806200263e8630878c8862002b25565b9150915081620026905760405162461bcd60e51b815260206004820152601c60248201527b149d5b99549bdd5d195c931bd9da58ce881cddd85c0819985a5b195960221b6044820152606401620009d9565b8060018251620026a1919062004516565b81518110620026c057634e487b7160e01b600052603260045260246000fd5b602002602001015198505050620027a8565b6040516323b872dd60e01b81526001600160a01b038216906323b872dd906200270490339030908c9060040162003dc8565b602060405180830381600087803b1580156200271f57600080fd5b505af115801562002734573d6000803e3d6000fd5b505050506040513d601f19601f820116820180604052508101906200275a919062003606565b620027a85760405162461bcd60e51b815260206004820181905260248201527f52756e65526f757465724c6f6769633a207472616e73666572206661696c65646044820152606401620009d9565b6000806000620027bc8c858c8c8c62002d7c565b92509250925084516000141562002833577f7ded23d6204f0918dc93f275df51659538e59e8aaf5698ce1f49180c22857b53338a8a878e868960a8548a600160a4805490506200280d919062004516565b604051620028259a9998979695949392919062003dec565b60405180910390a1620028c1565b7fe17d30e84f141d5effc904ed29262988eb565f53a8c01270148776b88451bb71338a8a89896000815181106200287a57634e487b7160e01b600052603260045260246000fd5b60200260200101518f878b8b60a8548c600160a4805490506200289e919062004516565b604051620028b89c9b9a9998979695949392919062003e70565b60405180910390a15b5050505062001ec66001606555565b620028da620029fe565b609855565b806001600160a01b038116620029095760405162461bcd60e51b8152600401620009d99062004293565b62002913620029fe565b609d546040517f567657fa3f286518b318f4a29870674f433f622fdfc819691acb13105b2282259162002954916001600160a01b0390911690859062003d77565b60405180910390a150609d80546001600160a01b0319166001600160a01b0392909216919091179055565b62002989620029fe565b6001600160a01b038116620029f05760405162461bcd60e51b815260206004820152602660248201527f4f776e61626c653a206e6577206f776e657220697320746865207a65726f206160448201526564647265737360d01b6064820152608401620009d9565b620029fb81620030c4565b50565b3362002a0962001fd0565b6001600160a01b031614620018fd5760405162461bcd60e51b815260206004820181905260248201527f4f776e61626c653a2063616c6c6572206973206e6f7420746865206f776e65726044820152606401620009d9565b600054610100900460ff1662002a8b5760405162461bcd60e51b8152600401620009d99062004248565b620018fd62003116565b600054610100900460ff1662002abf5760405162461bcd60e51b8152600401620009d99062004248565b620018fd6200314b565b6002606554141562002b1e5760405162461bcd60e51b815260206004820152601f60248201527f5265656e7472616e637947756172643a207265656e7472616e742063616c6c006044820152606401620009d9565b6002606555565b600085815260a360205260408120546060906001600160a01b03168062002b8f5760405162461bcd60e51b815260206004820152601e60248201527f52756e65526f757465724c6f6769633a20696e76616c696420617070496400006044820152606401620009d9565b8360008151811062002bb157634e487b7160e01b600052603260045260246000fd5b60200260200101516001600160a01b031663095ea7b382886040518363ffffffff1660e01b815260040162002be892919062003f02565b602060405180830381600087803b15801562002c0357600080fd5b505af115801562002c18573d6000803e3d6000fd5b505050506040513d601f19601f8201168201806040525081019062002c3e919062003606565b506040516326d2f28960e21b81526001600160a01b03821690639b4bca249062002c6d90879060040162004105565b60206040518083038186803b15801562002c8657600080fd5b505afa15801562002c9b573d6000803e3d6000fd5b505050506040513d601f19601f8201168201806040525081019062002cc1919062003606565b1562002d655760405163161779b160e31b81526001600160a01b0382169063b0bbcd889062002d00908990899089908d90429060019060040162004458565b600060405180830381600087803b15801562002d1b57600080fd5b505af115801562002d30573d6000803e3d6000fd5b505050506040513d6000823e601f3d908101601f1916820160405262002d5a919081019062003623565b909350915062002d6a565b600092505b509550959350505050565b6001606555565b62002da160405180606001604052806000815260200160008152602001600081525090565b60008073C2276ee54B85Da9c7F61872Bf6e1C761dE170B396394d8bc6a33609954609a5460a460a78e8d8d8d6040518a63ffffffff1660e01b815260040162002df3999897969594939291906200409c565b60a06040518083038186803b15801562002e0c57600080fd5b505af415801562002e21573d6000803e3d6000fd5b505050506040513d601f19601f8201168201806040525081019062002e479190620039ee565b609b80549396509194509250600062002e60836200456d565b9091555050609d54835160405163a9059cbb60e01b81526001600160a01b038a81169363a9059cbb9362002e9c93929091169160040162003f02565b602060405180830381600087803b15801562002eb757600080fd5b505af115801562002ecc573d6000803e3d6000fd5b505050506040513d601f19601f8201168201806040525081019062002ef2919062003606565b50609e54602084015160405163a9059cbb60e01b81526001600160a01b038a81169363a9059cbb9362002f2d93929091169160040162003f02565b602060405180830381600087803b15801562002f4857600080fd5b505af115801562002f5d573d6000803e3d6000fd5b505050506040513d601f19601f8201168201806040525081019062002f83919062003606565b506001600160a01b038216156200301f57604080840151905163a9059cbb60e01b81526001600160a01b0389169163a9059cbb9162002fc791869160040162003f02565b602060405180830381600087803b15801562002fe257600080fd5b505af115801562002ff7573d6000803e3d6000fd5b505050506040513d601f19601f820116820180604052508101906200301d919062003606565b505b609e5460a8546200303a916001600160a01b03169062003175565b604051630852cd8d60e31b8152600481018290526001600160a01b038816906342966c6890602401602060405180830381600087803b1580156200307d57600080fd5b505af115801562003092573d6000803e3d6000fd5b505050506040513d601f19601f82011682018060405250810190620030b8919062003606565b50955095509592505050565b603380546001600160a01b038381166001600160a01b0319831681179093556040519116919082907f8be0079c531659141344cd1fd0a4f28419497f9722a3daafe3b4186f6b6457e090600090a35050565b600054610100900460ff16620031405760405162461bcd60e51b8152600401620009d99062004248565b620018fd33620030c4565b600054610100900460ff1662002d755760405162461bcd60e51b8152600401620009d99062004248565b80471015620031c75760405162461bcd60e51b815260206004820152601d60248201527f416464726573733a20696e73756666696369656e742062616c616e63650000006044820152606401620009d9565b6000826001600160a01b03168260405160006040518083038185875af1925050503d806000811462003216576040519150601f19603f3d011682016040523d82523d6000602084013e6200321b565b606091505b5050905080620032915760405162461bcd60e51b815260206004820152603a60248201527f416464726573733a20756e61626c6520746f2073656e642076616c75652c20726044820152791958da5c1a595b9d081b585e481a185d99481c995d995c9d195960321b6064820152608401620009d9565b505050565b610f2c80620045ce83390190565b828054620032b29062004530565b90600052602060002090601f016020900481019282620032d6576000855562003321565b82601f10620032f157805160ff191683800117855562003321565b8280016001018555821562003321579182015b828111156200332157825182559160200191906001019062003304565b506200332f9291506200336d565b5090565b508054620033419062004530565b6000825580601f1062003352575050565b601f016020900490600052602060002090810190620029fb91905b5b808211156200332f57600081556001016200336e565b600082601f83011262003395578081fd5b81356020620033ae620033a883620044d5565b620044a2565b80838252828201915082860187848660051b8901011115620033ce578586fd5b855b85811015620033f9578135620033e681620045b7565b84529284019290840190600101620033d0565b5090979650505050505050565b600082601f83011262003417578081fd5b813560206200342a620033a883620044d5565b80838252828201915082860187848660051b89010111156200344a578586fd5b855b85811015620033f9578135845292840192908401906001016200344c565b805180151581146200347b57600080fd5b919050565b80356001600160e01b0319811681146200347b57600080fd5b60008083601f840112620034ab578182fd5b5081356001600160401b03811115620034c2578182fd5b602083019150836020828501011115620034db57600080fd5b9250929050565b600082601f830112620034f3578081fd5b81356001600160401b038111156200350f576200350f620045a1565b62003524601f8201601f1916602001620044a2565b81815284602083860101111562003539578283fd5b816020850160208301379081016020019190915292915050565b8035600681106200347b57600080fd5b60006060828403121562003575578081fd5b604051606081016001600160401b03811182821017156200359a576200359a620045a1565b80604052508091508251815260208301516020820152604083015160408201525092915050565b600060208284031215620035d3578081fd5b8135620035e081620045b7565b9392505050565b600060208284031215620035f9578081fd5b8151620035e081620045b7565b60006020828403121562003618578081fd5b620035e0826200346a565b6000806040838503121562003636578081fd5b62003641836200346a565b602084810151919350906001600160401b038111156200365f578283fd5b8401601f8101861362003670578283fd5b805162003681620033a882620044d5565b80828252848201915084840189868560051b8701011115620036a1578687fd5b8694505b83851015620036c5578051835260019490940193918501918501620036a5565b5080955050505050509250929050565b600060208284031215620036e7578081fd5b5035919050565b60006020828403121562003700578081fd5b5051919050565b6000806000806000806000806000806101008b8d03121562003727578586fd5b620037328b62003480565b995060208b01356001600160401b03808211156200374e578788fd5b6200375c8e838f01620034e2565b9a5060408d013591508082111562003772578788fd5b620037808e838f0162003499565b909a5098508891506200379660608e0162003480565b975060808d0135965060a08d0135915080821115620037b3578586fd5b620037c18e838f0162003499565b909650945060c08d0135935060e08d0135915080821115620037e1578283fd5b50620037f08d828e0162003384565b9150509295989b9194979a5092959850565b600080600080600080600080610100898b0312156200381f578182fd5b6200382a8962003480565b975060208901356001600160401b038082111562003846578384fd5b620038548c838d01620034e2565b985060408b01359150808211156200386a578384fd5b620038788c838d01620034e2565b97506200388860608c0162003480565b965060808b0135955060a08b0135915080821115620038a5578384fd5b620038b38c838d01620034e2565b945060c08b0135935060e08b0135915080821115620038d0578283fd5b50620038df8b828c0162003406565b9150509295985092959890939650565b6000806040838503121562003902578182fd5b82356001600160401b0381111562003918578283fd5b6200392685828601620034e2565b925050620039376020840162003553565b90509250929050565b600080600080600060a0868803121562003958578283fd5b85356001600160401b03808211156200396f578485fd5b6200397d89838a01620034e2565b9650602088013591508082111562003993578485fd5b620039a189838a01620034e2565b95506040880135915080821115620039b7578485fd5b50620039c688828901620034e2565b935050606086013560ff81168114620039dd578182fd5b949793965091946080013592915050565b600080600060a0848603121562003a03578081fd5b62003a0f858562003563565b9250606084015162003a2181620045b7565b80925050608084015190509250925092565b6000806040838503121562003a46578182fd5b82359150602083013562003a5a81620045b7565b809150509250929050565b60008060006060848603121562003a7a578081fd5b83359250602084013562003a8e81620045b7565b929592945050506040919091013590565b60008060008060c0858703121562003ab5578182fd5b8451935062003ac8866020870162003563565b9250608085015162003ada81620045b7565b60a086015190925062003aed81620045b7565b939692955090935050565b6000806000806000806000806000806101408b8d03121562003b18578384fd5b8a35995060208b0135985060408b0135975060608b013562003b3a81620045b7565b965060808b013562003b4c81620045b7565b955060a08b01356001600160401b0381111562003b67578485fd5b62003b758d828e01620034e2565b95505062003b8660c08c0162003553565b935060e08b013562003b9881620045b7565b92506101008b013562003bab81620045b7565b91506101208b013562003bbe81620045b7565b809150509295989b9194979a5092959850565b600080600080600080600080610100898b03121562003bee578182fd5b88359750602089013596506040890135955060608901356001600160401b038082111562003c1a578384fd5b62003c288c838d01620034e2565b965062003c3860808c0162003553565b955060a08b0135945060c08b0135935060e08b013591508082111562003c5c578283fd5b50620038df8b828c0162003384565b6000815180845260208085019450808401835b8381101562003ca55781516001600160a01b03168752958201959082019060010162003c7e565b509495945050505050565b81835281816020850137506000828201602090810191909152601f909101601f19169091010190565b60008151808452815b8181101562003d005760208185018101518683018201520162003ce2565b8181111562003d125782602083870101525b50601f01601f19169290920160200192915050565b6006811062003d4657634e487b7160e01b600052602160045260246000fd5b9052565b8051825260208082015190830152604090810151910152565b6001600160a01b0391909116815260200190565b6001600160a01b0392831681529116602082015260400190565b6001600160a01b0384811682528316602082015260606040820181905260009062003dbf9083018462003cd9565b95945050505050565b6001600160a01b039384168152919092166020820152604081019190915260600190565b6001600160a01b038b811682526101806020830181905260009162003e148483018e62003cd9565b925062003e25604085018d62003d27565b808b1660608501528960808501528860a085015262003e4860c085018962003d4a565b866101208501528086166101408501525050826101608301529b9a5050505050505050505050565b600060018060a01b03808f1683526101c0602084015262003e966101c084018f62003cd9565b915062003ea7604084018e62003d27565b8b6060840152808b1660808401528960a08401528860c084015280881660e084015262003ed961010084018862003d4a565b8561016084015280851661018084015250826101a08301529d9c50505050505050505050505050565b6001600160a01b03929092168252602082015260400190565b6001600160a01b03878116825260208201879052858116604083015261010082019062003f4c606084018762003d4a565b9390931660c082015260e00152949350505050565b6001600160a01b03898116825260208201899052878116604083015260608201879052858116608083015261014082019062003fa160a084018762003d4a565b9390931661010082015261012001529695505050505050565b6001600160a01b0386168152602080820186905260a060408301528454600091908290600181811c908281168062003ff357607f831692505b8583108114156200401257634e487b7160e01b87526022600452602487fd5b60a0880183905260c08801818015620040345760018114620040465762004072565b60ff1986168252878201965062004072565b60008d815260209020895b868110156200406c5781548482015290850190890162004051565b83019750505b50505050505080925050506200408c606083018562003d27565b8260808301529695505050505050565b600061012060018060a01b038c1683528a60208401528960408401528860608401528760808401528660a08401528560c08401528060e0840152620040e48184018662003cd9565b915050620040f761010083018462003d27565b9a9950505050505050505050565b602081526000620035e0602083018462003c6b565b871515815286602082015285604082015284606082015260018060a01b038416608082015260e060a082015260006200415760e083018562003cd9565b90506200416860c083018462003d27565b98975050505050505050565b602081526000620035e0602083018462003cd9565b6020810162000d60828462003d27565b60e081526000620041ae60e083018a62003cd9565b8281036020840152620041c2818a62003cd9565b90508281036040840152620041d8818962003cd9565b60ff979097166060840152505060808101939093526001600160a01b0391821660a08401521660c0909101529392505050565b60608152600062004220606083018662003cd9565b828103602084015262004234818662003cd9565b91505060ff83166040830152949350505050565b6020808252602b908201527f496e697469616c697a61626c653a20636f6e7472616374206973206e6f74206960408201526a6e697469616c697a696e6760a81b606082015260800190565b6020808252601d908201527f52756e65526f757465724c6f6769633a207a65726f2061646472657373000000604082015260600190565b9182526001600160a01b0316602082015260400190565b8b81526001600160a01b038b1660208201526001600160e01b03198a81166040830152610120606083018190526000916200431f8483018d62003cd9565b9150838203608085015262004336828b8d62003cb0565b915080891660a0850152508660c084015282810360e08401526200435c81868862003cb0565b915050826101008301529c9b505050505050505050505050565b8981526001600160a01b03891660208201526001600160e01b0319888116604083015261012060608301819052600091620043b48483018b62003cd9565b91508382036080850152620043ca828a62003cd9565b915080881660a0850152508560c084015282810360e0840152620043ef818662003cd9565b915050826101008301529a9950505050505050505050565b60006101008b8352806020840152620044248184018b8d62003cb0565b604084019990995250506060810195909552608085019390935260a084019190915260c083015260e0909101529392505050565b86815285602082015260c0604082015260006200447960c083018762003c6b565b6001600160a01b03959095166060830152506080810192909252151560a0909101529392505050565b604051601f8201601f191681016001600160401b0381118282101715620044cd57620044cd620045a1565b604052919050565b60006001600160401b03821115620044f157620044f1620045a1565b5060051b60200190565b600082198211156200451157620045116200458b565b500190565b6000828210156200452b576200452b6200458b565b500390565b600181811c908216806200454557607f821691505b602082108114156200456757634e487b7160e01b600052602260045260246000fd5b50919050565b60006000198214156200458457620045846200458b565b5060010190565b634e487b7160e01b600052601160045260246000fd5b634e487b7160e01b600052604160045260246000fd5b6001600160a01b0381168114620029fb57600080fdfe608060405260405162000f2c38038062000f2c8339810160408190526200002691620004e0565b82828282816200005860017f360894a13ba1a3210667c828492db98dca3e2076cc3735a920a3ca505d382bbd6200060f565b60008051602062000ee5833981519152146200008457634e487b7160e01b600052600160045260246000fd5b620000928282600062000105565b50620000c2905060017fb53127684a568b3173ae13b9f8a6016e243e63b6e8ee1178d6a717850b5d61046200060f565b60008051602062000ec583398151915214620000ee57634e487b7160e01b600052600160045260246000fd5b620000f98262000142565b50505050505062000678565b62000110836200019d565b6000825111806200011e5750805b156200013d576200013b8383620001df60201b620002601760201c565b505b505050565b7f7e644d79422f17c01e4894b5f4f588d331ebfa28653d42ae832dc59e38c9798f6200016d6200020e565b604080516001600160a01b03928316815291841660208301520160405180910390a16200019a8162000247565b50565b620001a881620002fc565b6040516001600160a01b038216907fbc7cd75a20ee27fd9adebab32041f755214dbc6bffa90cc0225b39da2e5c2d3b90600090a250565b606062000207838360405180606001604052806027815260200162000f05602791396200039f565b9392505050565b60006200023860008051602062000ec583398151915260001b6200047c60201b620002081760201c565b546001600160a01b0316919050565b6001600160a01b038116620002b25760405162461bcd60e51b815260206004820152602660248201527f455243313936373a206e65772061646d696e20697320746865207a65726f206160448201526564647265737360d01b60648201526084015b60405180910390fd5b80620002db60008051602062000ec583398151915260001b6200047c60201b620002081760201c565b80546001600160a01b0319166001600160a01b039290921691909117905550565b62000312816200047f60201b6200028c1760201c565b620003765760405162461bcd60e51b815260206004820152602d60248201527f455243313936373a206e657720696d706c656d656e746174696f6e206973206e60448201526c1bdd08184818dbdb9d1c9858dd609a1b6064820152608401620002a9565b80620002db60008051602062000ee583398151915260001b6200047c60201b620002081760201c565b6060833b620004005760405162461bcd60e51b815260206004820152602660248201527f416464726573733a2064656c65676174652063616c6c20746f206e6f6e2d636f6044820152651b9d1c9858dd60d21b6064820152608401620002a9565b600080856001600160a01b0316856040516200041d9190620005bc565b600060405180830381855af49150503d80600081146200045a576040519150601f19603f3d011682016040523d82523d6000602084013e6200045f565b606091505b5090925090506200047282828662000485565b9695505050505050565b90565b3b151590565b606083156200049657508162000207565b825115620004a75782518084602001fd5b8160405162461bcd60e51b8152600401620002a99190620005da565b80516001600160a01b0381168114620004db57600080fd5b919050565b600080600060608486031215620004f5578283fd5b6200050084620004c3565b92506200051060208501620004c3565b60408501519092506001600160401b03808211156200052d578283fd5b818601915086601f83011262000541578283fd5b81518181111562000556576200055662000662565b604051601f8201601f19908116603f0116810190838211818310171562000581576200058162000662565b816040528281528960208487010111156200059a578586fd5b620005ad83602083016020880162000633565b80955050505050509250925092565b60008251620005d081846020870162000633565b9190910192915050565b6020815260008251806020840152620005fb81604085016020870162000633565b601f01601f19169190910160400192915050565b6000828210156200062e57634e487b7160e01b81526011600452602481fd5b500390565b60005b838110156200065057818101518382015260200162000636565b838111156200013b5750506000910152565b634e487b7160e01b600052604160045260246000fd5b61083d80620006886000396000f3fe60806040526004361061004e5760003560e01c80633659cfe6146100655780634f1ef286146100855780635c60da1b146100985780638f283970146100c9578063f851a440146100e95761005d565b3661005d5761005b6100fe565b005b61005b6100fe565b34801561007157600080fd5b5061005b61008036600461068e565b610118565b61005b6100933660046106a8565b61015f565b3480156100a457600080fd5b506100ad6101d0565b6040516001600160a01b03909116815260200160405180910390f35b3480156100d557600080fd5b5061005b6100e436600461068e565b61020b565b3480156100f557600080fd5b506100ad610235565b610106610292565b610116610111610331565b61033b565b565b61012061035f565b6001600160a01b0316336001600160a01b031614156101575761015481604051806020016040528060008152506000610380565b50565b6101546100fe565b61016761035f565b6001600160a01b0316336001600160a01b031614156101c8576101c38383838080601f01602080910402602001604051908101604052809392919081815260200183838082843760009201919091525060019250610380915050565b505050565b6101c36100fe565b60006101da61035f565b6001600160a01b0316336001600160a01b03161415610200576101fb610331565b905090565b6102086100fe565b90565b61021361035f565b6001600160a01b0316336001600160a01b0316141561015757610154816103ab565b600061023f61035f565b6001600160a01b0316336001600160a01b03161415610200576101fb61035f565b606061028583836040518060600160405280602781526020016107e1602791396103ff565b9392505050565b3b151590565b61029a61035f565b6001600160a01b0316336001600160a01b031614156101165760405162461bcd60e51b815260206004820152604260248201527f5472616e73706172656e745570677261646561626c6550726f78793a2061646d60448201527f696e2063616e6e6f742066616c6c6261636b20746f2070726f78792074617267606482015261195d60f21b608482015260a4015b60405180910390fd5b60006101fb6104d3565b3660008037600080366000845af43d6000803e80801561035a573d6000f35b3d6000fd5b60006000805160206107a18339815191525b546001600160a01b0316919050565b610389836104e9565b6000825111806103965750805b156101c3576103a58383610260565b50505050565b7f7e644d79422f17c01e4894b5f4f588d331ebfa28653d42ae832dc59e38c9798f6103d461035f565b604080516001600160a01b03928316815291841660208301520160405180910390a161015481610529565b6060833b61045e5760405162461bcd60e51b815260206004820152602660248201527f416464726573733a2064656c65676174652063616c6c20746f206e6f6e2d636f6044820152651b9d1c9858dd60d21b6064820152608401610328565b600080856001600160a01b0316856040516104799190610725565b600060405180830381855af49150503d80600081146104b4576040519150601f19603f3d011682016040523d82523d6000602084013e6104b9565b606091505b50915091506104c98282866105c0565b9695505050505050565b60006000805160206107c1833981519152610371565b6104f2816105f9565b6040516001600160a01b038216907fbc7cd75a20ee27fd9adebab32041f755214dbc6bffa90cc0225b39da2e5c2d3b90600090a250565b6001600160a01b03811661058e5760405162461bcd60e51b815260206004820152602660248201527f455243313936373a206e65772061646d696e20697320746865207a65726f206160448201526564647265737360d01b6064820152608401610328565b806000805160206107a18339815191525b80546001600160a01b0319166001600160a01b039290921691909117905550565b606083156105cf575081610285565b8251156105df5782518084602001fd5b8160405162461bcd60e51b81526004016103289190610741565b803b61065d5760405162461bcd60e51b815260206004820152602d60248201527f455243313936373a206e657720696d706c656d656e746174696f6e206973206e60448201526c1bdd08184818dbdb9d1c9858dd609a1b6064820152608401610328565b806000805160206107c183398151915261059f565b80356001600160a01b038116811461068957600080fd5b919050565b60006020828403121561069f578081fd5b61028582610672565b6000806000604084860312156106bc578182fd5b6106c584610672565b925060208401356001600160401b03808211156106e0578384fd5b818601915086601f8301126106f3578384fd5b813581811115610701578485fd5b876020828501011115610712578485fd5b6020830194508093505050509250925092565b60008251610737818460208701610774565b9190910192915050565b6020815260008251806020840152610760816040850160208701610774565b601f01601f19169190910160400192915050565b60005b8381101561078f578181015183820152602001610777565b838111156103a5575050600091015256feb53127684a568b3173ae13b9f8a6016e243e63b6e8ee1178d6a717850b5d6103360894a13ba1a3210667c828492db98dca3e2076cc3735a920a3ca505d382bbc416464726573733a206c6f772d6c6576656c2064656c65676174652063616c6c206661696c6564a264697066735822122064b11b2157d61600a09abbd0eaeb0a67e43f14e3005703114add6fac6fd353ec64736f6c63430008040033b53127684a568b3173ae13b9f8a6016e243e63b6e8ee1178d6a717850b5d6103360894a13ba1a3210667c828492db98dca3e2076cc3735a920a3ca505d382bbc416464726573733a206c6f772d6c6576656c2064656c65676174652063616c6c206661696c6564a2646970667358221220a6fa5b59bae11f2b3c47f5355ec54b04831422cfaba778b1cd3c908988a9359864736f6c63430008040033",
  "deployedBytecode": "0x608060405260043610620002285760003560e01c8063023e25b41462000235578063068bf8741462000287578063088302a614620002ae5780630e72e41e14620002d5578063171060ec146200030b57806317fcb39b14620003305780631812adb614620003525780631e7107c714620003795780632104cb6b146200039e5780633669391e14620003c3578063402e01f814620003db57806349c544e1146200040057806361d027b314620004175780636390802014620004395780636b2857ef14620004515780636e8adf61146200047657806370872aa514620004b0578063715018a614620004c857806375122f6214620004e05780637ed557481462000505578063839ae1d7146200052a5780638be727e114620005415780638da5cb5b146200056657806390665eca146200057e5780639637e4a814620005955780639a8a059214620005ba5780639aed427914620005d25780639eca445314620005ea578063a3696a09146200063e578063a44c2b9a1462000663578063ae2a74ee1462000688578063b3ff9f4914620006b9578063b4e183f414620006e0578063b59589d11462000705578063c805f68b1462000727578063d4603f4c146200074c578063d7b96d4e1462000786578063d8484ef514620007a8578063da058ae314620007d3578063e765078814620007f8578063e91ffefd14620008ec578063ef0e2ff41462000903578063f0f442601462000928578063f2fde38b146200094d57600080fd5b366200023057005b600080fd5b3480156200024257600080fd5b506200026f62000254366004620036d5565b609f602052600090815260409020546001600160a01b031681565b6040516200027e919062003d63565b60405180910390f35b3480156200029457600080fd5b50620002ac620002a636600462003940565b62000972565b005b348015620002bb57600080fd5b50620002c662000c82565b6040516200027e919062004174565b348015620002e257600080fd5b50620002fa620002f4366004620036d5565b62000d18565b60405190151581526020016200027e565b3480156200031857600080fd5b50620002ac6200032a366004620035c1565b62000d66565b3480156200033d57600080fd5b5060a9546200026f906001600160a01b031681565b3480156200035f57600080fd5b506200036a60995481565b6040519081526020016200027e565b3480156200038657600080fd5b50620002ac62000398366004620036d5565b62000e06565b348015620003ab57600080fd5b50620002ac620003bd36600462003af8565b62000e66565b348015620003d057600080fd5b506200036a609b5481565b348015620003e857600080fd5b50620002c6620003fa366004620035c1565b62000ff2565b620002ac6200041136600462003707565b6200100d565b3480156200042457600080fd5b50609d546200026f906001600160a01b031681565b3480156200044657600080fd5b506200036a609a5481565b3480156200045e57600080fd5b50620002ac6200047036600462003a33565b62001880565b3480156200048357600080fd5b506200026f62000495366004620036d5565b60a3602052600090815260409020546001600160a01b031681565b348015620004bd57600080fd5b506200036a60975481565b348015620004d557600080fd5b50620002ac620018f3565b348015620004ed57600080fd5b50620002ac620004ff36600462003a65565b620018ff565b3480156200051257600080fd5b50620002ac62000524366004620036d5565b620019c0565b620002ac6200053b36600462003802565b62001a5f565b3480156200054e57600080fd5b50620002ac62000560366004620036d5565b62001ed0565b3480156200057357600080fd5b506200026f62001fd0565b3480156200058b57600080fd5b5060a4546200036a565b348015620005a257600080fd5b50620002ac620005b4366004620036d5565b62001fdf565b348015620005c757600080fd5b506200036a60985481565b348015620005df57600080fd5b506200036a60a85481565b348015620005f757600080fd5b506200062e62000609366004620036d5565b60a760205260009081526040902080546001909101546001600160a01b039091169082565b6040516200027e92919062003f02565b3480156200064b57600080fd5b50620002ac6200065d366004620035c1565b6200202a565b3480156200067057600080fd5b50620002fa62000682366004620036d5565b620020d7565b3480156200069557600080fd5b506200036a620006a7366004620035c1565b60a16020526000908152604090205481565b348015620006c657600080fd5b5060a6546200026f9061010090046001600160a01b031681565b348015620006ed57600080fd5b50620002ac620006ff366004620038ef565b620020f6565b3480156200071257600080fd5b50609c546200026f906001600160a01b031681565b3480156200073457600080fd5b50620002ac62000746366004620035c1565b6200214d565b3480156200075957600080fd5b50620007716200076b366004620036d5565b620021ed565b6040516200027e97969594939291906200411a565b3480156200079357600080fd5b50609e546200026f906001600160a01b031681565b348015620007b557600080fd5b5060a654620007c49060ff1681565b6040516200027e919062004189565b348015620007e057600080fd5b50620002ac620007f2366004620035c1565b620022e1565b3480156200080557600080fd5b506200088262000817366004620036d5565b60a260205260009081526040902080546001820154600283015460038401546004850154600586015460068701546007880154600889015460098a0154600a909a015460ff9099169997989697959694956001600160a01b039485169593851694929391929091168b565b604080519b15158c5260208c019a909a52988a0197909752606089019590955260808801939093526001600160a01b0391821660a0880152811660c087015260e086019190915261010085019190915261012084019190915216610140820152610160016200027e565b620002ac620008fd36600462003bd1565b62002338565b3480156200091057600080fd5b50620002ac62000922366004620036d5565b620028d0565b3480156200093557600080fd5b50620002ac62000947366004620035c1565b620028df565b3480156200095a57600080fd5b50620002ac6200096c366004620035c1565b6200297f565b6200097c620029fe565b6000818152609f60205260409020546001600160a01b031615620009e25760405162461bcd60e51b8152602060048201526018602482015277149d5b99549bdd5d195c931bd9da58ce881d5cd959081a5960421b60448201526064015b60405180910390fd5b600073__$67e4a81169bd42f3bd76691a8cba760d26$__6374c6d02c6040518163ffffffff1660e01b815260040160206040518083038186803b15801562000a2957600080fd5b505af415801562000a3e573d6000803e3d6000fd5b505050506040513d601f19601f8201168201806040525081019062000a649190620035e7565b9050606060008262000a7562001fd0565b8360405162000a849062003296565b62000a929392919062003d91565b604051809103906000f08015801562000aaf573d6000803e3d6000fd5b50604051630b127b6360e11b815290915081906001600160a01b03821690631624f6c69062000ae7908c908c908b906004016200420b565b600060405180830381600087803b15801562000b0257600080fd5b505af115801562000b17573d6000803e3d6000fd5b5050604051634c1d96ab60e11b81526001600160a01b038416925063983b2d56915062000b4990309060040162003d63565b600060405180830381600087803b15801562000b6457600080fd5b505af115801562000b79573d6000803e3d6000fd5b5050604051637a231bdd60e11b81526001600160a01b038416925063f44637ba915062000bab90309060040162003d63565b600060405180830381600087803b15801562000bc657600080fd5b505af115801562000bdb573d6000803e3d6000fd5b5050506000868152609f6020908152604080832080546001600160a01b0319166001600160a01b038716908117909155835260a1825280832089905560a08252909120895162000c31935090918a0190620032a4565b507f175ec5a73d18c14429b1199d5fac7097c1c021f98a45d4bcfdeddedfbcc04f3c8989898989868a60405162000c6f979695949392919062004199565b60405180910390a1505050505050505050565b60a5805462000c919062004530565b80601f016020809104026020016040519081016040528092919081815260200182805462000cbf9062004530565b801562000d105780601f1062000ce45761010080835404028352916020019162000d10565b820191906000526020600020905b81548152906001019060200180831162000cf257829003601f168201915b505050505081565b600060a4828154811062000d3c57634e487b7160e01b600052603260045260246000fd5b600091825260209091206007909102015460ff1662000d5d57600062000d60565b60015b92915050565b806001600160a01b03811662000d905760405162461bcd60e51b8152600401620009d99062004293565b62000d9a620029fe565b609e546040517f69253c7023f628e3a302b63087a3bfc1dfdb256780182f81b9f0df9eff9542b09162000ddb916001600160a01b0390911690859062003d77565b60405180910390a150609e80546001600160a01b0319166001600160a01b0392909216919091179055565b62000e10620029fe565b609754811162000e615760405162461bcd60e51b815260206004820152601b60248201527a293ab732a937baba32b92637b3b4b19d103637bb90373ab6b132b960291b6044820152606401620009d9565b609755565b600054610100900460ff161580801562000e875750600054600160ff909116105b8062000ea35750303b15801562000ea3575060005460ff166001145b62000f085760405162461bcd60e51b815260206004820152602e60248201527f496e697469616c697a61626c653a20636f6e747261637420697320616c72656160448201526d191e481a5b9a5d1a585b1a5e995960921b6064820152608401620009d9565b6000805460ff19166001179055801562000f2c576000805461ff0019166101001790555b62000f3662002a61565b62000f4062002a95565b609889905562000f508b62000e06565b62000f5b8a620019c0565b62000f66886200214d565b62000f718762000d66565b62000f7d8686620020f6565b62000f88846200202a565b62000f9383620028df565b62000f9e82620022e1565b801562000fe5576000805461ff0019169055604051600181527f7f26b83ff96e1f2b6a682f133852f6798a09c465da95921460cefb38474024989060200160405180910390a15b5050505050505050505050565b60a0602052600090815260409020805462000c919062004530565b6200101762002ac9565b60a65461010090046001600160a01b0316336001600160a01b031614620010815760405162461bcd60e51b815260206004820152601f60248201527f52756e65526f757465724c6f6769633a206e6f742074656c65706f72746572006044820152606401620009d9565b600073__$67e4a81169bd42f3bd76691a8cba760d26$__63e291283d609754609c60009054906101000a90046001600160a01b03168e8e8e8e8e8e8e8e8e6040518c63ffffffff1660e01b8152600401620010e79b9a99989796959493929190620042e1565b60206040518083038186803b1580156200110057600080fd5b505af415801562001115573d6000803e3d6000fd5b505050506040513d601f19601f820116820180604052508101906200113b9190620036ee565b905060008060008073__$67e4a81169bd42f3bd76691a8cba760d26$__63d27fd71f6098548f8f8960a2609f60a7609954609a546040518a63ffffffff1660e01b8152600401620011959998979695949392919062004407565b60c06040518083038186803b158015620011ae57600080fd5b505af4158015620011c3573d6000803e3d6000fd5b505050506040513d601f19601f82011682018060405250810190620011e9919062003a9f565b9350935093509350806001600160a01b03166340c10f1930868660400151876020015188600001516200121d9190620044fb565b620012299190620044fb565b620012359190620044fb565b6040518363ffffffff1660e01b81526004016200125492919062003f02565b602060405180830381600087803b1580156200126f57600080fd5b505af115801562001284573d6000803e3d6000fd5b505050506040513d601f19601f82011682018060405250810190620012aa919062003606565b50609d54835160405163a9059cbb60e01b81526001600160a01b038481169363a9059cbb93620012e293929091169160040162003f02565b602060405180830381600087803b158015620012fd57600080fd5b505af115801562001312573d6000803e3d6000fd5b505050506040513d601f19601f8201168201806040525081019062001338919062003606565b50609e54602084015160405163a9059cbb60e01b81526001600160a01b038481169363a9059cbb936200137393929091169160040162003f02565b602060405180830381600087803b1580156200138e57600080fd5b505af1158015620013a3573d6000803e3d6000fd5b505050506040513d601f19601f82011682018060405250810190620013c9919062003606565b506001600160a01b038216156200146557604080840151905163a9059cbb60e01b81526001600160a01b0383169163a9059cbb916200140d91869160040162003f02565b602060405180830381600087803b1580156200142857600080fd5b505af11580156200143d573d6000803e3d6000fd5b505050506040513d601f19601f8201168201806040525081019062001463919062003606565b505b600085815260a26020908152604091829020825161016081018452815460ff16151581526001820154928101929092526002810154928201839052600381015460608301526004810154608083015260058101546001600160a01b0390811660a08401526006820154811660c0840152600782015460e084015260088201546101008401526009820154610120840152600a909101541661014082015290620015e05760c081015160405163a9059cbb60e01b81526001600160a01b0384169163a9059cbb916200153c9190899060040162003f02565b602060405180830381600087803b1580156200155757600080fd5b505af11580156200156c573d6000803e3d6000fd5b505050506040513d601f19601f8201168201806040525081019062001592919062003606565b507f43c9c64e3d0a7d664252e89fe26c8958a77098900ebf13f7aa95030a371bc4328160c00151868487878b604051620015d29695949392919062003f1b565b60405180910390a162001863565b8060a001516001600160a01b0316876000815181106200161057634e487b7160e01b600052603260045260246000fd5b60200260200101516001600160a01b03161480156200167c57508061014001516001600160a01b031687600189516200164a919062004516565b815181106200166957634e487b7160e01b600052603260045260246000fd5b60200260200101516001600160a01b0316145b620016c85760405162461bcd60e51b815260206004820152601b60248201527a0a4eadccaa4deeae8cae498deced2c67440eee4dedcce40e0c2e8d602b1b6044820152606401620009d9565b600080620016e783604001518460c00151898661012001518d62002b25565b9150915081156200177f577fed12b1e275b408eb8b01de7d246293c2daf02f98422b51b0af3012463e2a725e8360c00151888684600186516200172b919062004516565b815181106200174a57634e487b7160e01b600052603260045260246000fd5b60200260200101518761014001518b8b8f6040516200177198979695949392919062003f61565b60405180910390a162001860565b7f2eefdda27738a7be93aea5dafceb4d8af2e8e046fd411a8c94bb449508af05a28360c0015188868661012001518761014001518b8b8f604051620017cc98979695949392919062003f61565b60405180910390a160c083015160405163a9059cbb60e01b81526001600160a01b0386169163a9059cbb916200180891908b9060040162003f02565b602060405180830381600087803b1580156200182357600080fd5b505af115801562001838573d6000803e3d6000fd5b505050506040513d601f19601f820116820180604052508101906200185e919062003606565b505b50505b505050505050620018746001606555565b50505050505050505050565b6200188a620029fe565b7f31a8c4e62daac2a3ed5d713004d9ae867d6dcddfa35603db2a4b65d9236b1bc18282604051620018bd929190620042ca565b60405180910390a1600091825260a3602052604090912080546001600160a01b0319166001600160a01b03909216919091179055565b620018fd620029fe565b565b62001909620029fe565b600083815260a76020908152604091829020805460019091015483518781526001600160a01b039283169381019390935282840152841660608201526080810183905290517f23385740814648db624aa52a0c990fc42def14e1b04e7fe5b2bf87b85e1294529181900360a00190a16040805180820182526001600160a01b0393841681526020808201938452600095865260a790529320925183546001600160a01b031916921691909117825551600190910155565b620019ca620029fe565b80612710101562001a1e5760405162461bcd60e51b815260206004820152601d60248201527f52756e65526f757465724c6f6769633a206f7574206f662072616e67650000006044820152606401620009d9565b60995460408051918252602082018390527f7d205f60891f60851c61cd244ba387d72b6589e7c0ac41b9d909ab0ce2c2a53b910160405180910390a1609955565b62001a6962002ac9565b609e546001600160a01b0316336001600160a01b03161462001acc5760405162461bcd60e51b815260206004820152601b60248201527a293ab732a937baba32b92637b3b4b19d103737ba103637b1b5b2b960291b6044820152606401620009d9565b609754609c5460405163e291283d60e01b815273__$67e4a81169bd42f3bd76691a8cba760d26$__9263e291283d9262001b23926001600160a01b03909116908d908d908d908d908d908d908d9060040162004376565b60206040518083038186803b15801562001b3c57600080fd5b505af415801562001b51573d6000803e3d6000fd5b505050506040513d601f19601f8201168201806040525081019062001b779190620036ee565b5060005b815181101562001eba5760a482828151811062001ba857634e487b7160e01b600052603260045260246000fd5b60200260200101518154811062001bcf57634e487b7160e01b600052603260045260246000fd5b600091825260209091206007909102015460ff161562001c3d5760405162461bcd60e51b815260206004820152602260248201527f52756e65526f757465724c6f6769633a20616c72656164792070726f63657373604482015261195960f21b6064820152608401620009d9565b600160a483838151811062001c6257634e487b7160e01b600052603260045260246000fd5b60200260200101518154811062001c8957634e487b7160e01b600052603260045260246000fd5b906000526020600020906007020160000160006101000a81548160ff0219169083151502179055507f42975333d773ba95b24fa6c9b8127fc4a9bc1bafb6293c8c9daa4f6aed0bc34960a483838151811062001cf557634e487b7160e01b600052603260045260246000fd5b60200260200101518154811062001d1c57634e487b7160e01b600052603260045260246000fd5b906000526020600020906007020160040160009054906101000a90046001600160a01b031660a484848151811062001d6457634e487b7160e01b600052603260045260246000fd5b60200260200101518154811062001d8b57634e487b7160e01b600052603260045260246000fd5b90600052602060002090600702016002015460a485858151811062001dc057634e487b7160e01b600052603260045260246000fd5b60200260200101518154811062001de757634e487b7160e01b600052603260045260246000fd5b906000526020600020906007020160050160a486868151811062001e1b57634e487b7160e01b600052603260045260246000fd5b60200260200101518154811062001e4257634e487b7160e01b600052603260045260246000fd5b906000526020600020906007020160060160009054906101000a900460ff1686868151811062001e8257634e487b7160e01b600052603260045260246000fd5b602002602001015160405162001e9d95949392919062003fba565b60405180910390a18062001eb1816200456d565b91505062001b7b565b5062001ec66001606555565b5050505050505050565b62001eda620029fe565b6000818152609f60205260409020546001600160a01b03168062001f3d5760405162461bcd60e51b8152602060048201526019602482015278293ab732a937baba32b92637b3b4b19d103737903a37b5b2b760391b6044820152606401620009d9565b7ff61991393940604b8433d5f9a855624b8452e131d66e476a45c7139651df9699828260405162001f70929190620042ca565b60405180910390a16001600160a01b038116600090815260a06020526040812062001f9b9162003333565b6001600160a01b0316600090815260a160209081526040808320839055928252609f90522080546001600160a01b0319169055565b6033546001600160a01b031690565b62001fe9620029fe565b60a85460408051918252602082018390527f24a1cf21e7b4eac23dffa41704078ed28bbe2a42187f6aa014899c5413cd01b7910160405180910390a160a855565b806001600160a01b038116620020545760405162461bcd60e51b8152600401620009d99062004293565b6200205e620029fe565b7f150b77d21bd499fd0dccea9fe32513c7b65aa34ccde41e7dafac74ace8e19c9460a660019054906101000a90046001600160a01b031683604051620020a692919062003d77565b60405180910390a15060a680546001600160a01b0390921661010002610100600160a81b0319909216919091179055565b600081815260a2602052604081205460ff1662000d5d57600062000d60565b62002100620029fe565b8151620021159060a5906020850190620032a4565b5060a6805482919060ff191660018360058111156200214457634e487b7160e01b600052602160045260246000fd5b02179055505050565b806001600160a01b038116620021775760405162461bcd60e51b8152600401620009d99062004293565b62002181620029fe565b609c546040517f4c28a3f61a715259c4dc930c23e7423b8fa52e13232c061a6e488729c66184f491620021c2916001600160a01b0390911690859062003d77565b60405180910390a150609c80546001600160a01b0319166001600160a01b0392909216919091179055565b60a48181548110620021fe57600080fd5b600091825260209091206007909102018054600182015460028301546003840154600485015460058601805460ff90961697509395929491936001600160a01b0390911692916200224f9062004530565b80601f01602080910402602001604051908101604052809291908181526020018280546200227d9062004530565b8015620022ce5780601f10620022a257610100808354040283529160200191620022ce565b820191906000526020600020905b815481529060010190602001808311620022b057829003601f168201915b5050506006909301549192505060ff1687565b806001600160a01b0381166200230b5760405162461bcd60e51b8152600401620009d99062004293565b62002315620029fe565b5060a980546001600160a01b0319166001600160a01b0392909216919091179055565b6200234262002ac9565b6000878152609f60205260409020546001600160a01b031680620023a95760405162461bcd60e51b815260206004820152601e60248201527f52756e65526f757465724c6f6769633a206e6f7420737570706f7274656400006044820152606401620009d9565b60a8543411156200250f5760a854620023c39084620044fb565b3414620024125760405162461bcd60e51b815260206004820152601c60248201527b52756e65526f757465724c6f6769633a2077726f6e672076616c756560201b6044820152606401620009d9565b816000815181106200243457634e487b7160e01b600052603260045260246000fd5b602090810291909101015160a9546001600160a01b039081169116146200249e5760405162461bcd60e51b815260206004820152601d60248201527f52756e65526f757465724c6f6769633a20696e76616c696420706174680000006044820152606401620009d9565b60a960009054906101000a90046001600160a01b03166001600160a01b031663d0e30db0846040518263ffffffff1660e01b81526004016000604051808303818588803b158015620024ef57600080fd5b505af115801562002504573d6000803e3d6000fd5b50505050506200255f565b60a85434146200255f5760405162461bcd60e51b815260206004820152601a60248201527952756e65526f757465724c6f6769633a2077726f6e672066656560301b6044820152606401620009d9565b815115620026d25760a8543414156200262c57816000815181106200259457634e487b7160e01b600052603260045260246000fd5b60200260200101516001600160a01b03166323b872dd620025b23390565b30866040518463ffffffff1660e01b8152600401620025d49392919062003dc8565b602060405180830381600087803b158015620025ef57600080fd5b505af115801562002604573d6000803e3d6000fd5b505050506040513d601f19601f820116820180604052508101906200262a919062003606565b505b6000806200263e8630878c8862002b25565b9150915081620026905760405162461bcd60e51b815260206004820152601c60248201527b149d5b99549bdd5d195c931bd9da58ce881cddd85c0819985a5b195960221b6044820152606401620009d9565b8060018251620026a1919062004516565b81518110620026c057634e487b7160e01b600052603260045260246000fd5b602002602001015198505050620027a8565b6040516323b872dd60e01b81526001600160a01b038216906323b872dd906200270490339030908c9060040162003dc8565b602060405180830381600087803b1580156200271f57600080fd5b505af115801562002734573d6000803e3d6000fd5b505050506040513d601f19601f820116820180604052508101906200275a919062003606565b620027a85760405162461bcd60e51b815260206004820181905260248201527f52756e65526f757465724c6f6769633a207472616e73666572206661696c65646044820152606401620009d9565b6000806000620027bc8c858c8c8c62002d7c565b92509250925084516000141562002833577f7ded23d6204f0918dc93f275df51659538e59e8aaf5698ce1f49180c22857b53338a8a878e868960a8548a600160a4805490506200280d919062004516565b604051620028259a9998979695949392919062003dec565b60405180910390a1620028c1565b7fe17d30e84f141d5effc904ed29262988eb565f53a8c01270148776b88451bb71338a8a89896000815181106200287a57634e487b7160e01b600052603260045260246000fd5b60200260200101518f878b8b60a8548c600160a4805490506200289e919062004516565b604051620028b89c9b9a9998979695949392919062003e70565b60405180910390a15b5050505062001ec66001606555565b620028da620029fe565b609855565b806001600160a01b038116620029095760405162461bcd60e51b8152600401620009d99062004293565b62002913620029fe565b609d546040517f567657fa3f286518b318f4a29870674f433f622fdfc819691acb13105b2282259162002954916001600160a01b0390911690859062003d77565b60405180910390a150609d80546001600160a01b0319166001600160a01b0392909216919091179055565b62002989620029fe565b6001600160a01b038116620029f05760405162461bcd60e51b815260206004820152602660248201527f4f776e61626c653a206e6577206f776e657220697320746865207a65726f206160448201526564647265737360d01b6064820152608401620009d9565b620029fb81620030c4565b50565b3362002a0962001fd0565b6001600160a01b031614620018fd5760405162461bcd60e51b815260206004820181905260248201527f4f776e61626c653a2063616c6c6572206973206e6f7420746865206f776e65726044820152606401620009d9565b600054610100900460ff1662002a8b5760405162461bcd60e51b8152600401620009d99062004248565b620018fd62003116565b600054610100900460ff1662002abf5760405162461bcd60e51b8152600401620009d99062004248565b620018fd6200314b565b6002606554141562002b1e5760405162461bcd60e51b815260206004820152601f60248201527f5265656e7472616e637947756172643a207265656e7472616e742063616c6c006044820152606401620009d9565b6002606555565b600085815260a360205260408120546060906001600160a01b03168062002b8f5760405162461bcd60e51b815260206004820152601e60248201527f52756e65526f757465724c6f6769633a20696e76616c696420617070496400006044820152606401620009d9565b8360008151811062002bb157634e487b7160e01b600052603260045260246000fd5b60200260200101516001600160a01b031663095ea7b382886040518363ffffffff1660e01b815260040162002be892919062003f02565b602060405180830381600087803b15801562002c0357600080fd5b505af115801562002c18573d6000803e3d6000fd5b505050506040513d601f19601f8201168201806040525081019062002c3e919062003606565b506040516326d2f28960e21b81526001600160a01b03821690639b4bca249062002c6d90879060040162004105565b60206040518083038186803b15801562002c8657600080fd5b505afa15801562002c9b573d6000803e3d6000fd5b505050506040513d601f19601f8201168201806040525081019062002cc1919062003606565b1562002d655760405163161779b160e31b81526001600160a01b0382169063b0bbcd889062002d00908990899089908d90429060019060040162004458565b600060405180830381600087803b15801562002d1b57600080fd5b505af115801562002d30573d6000803e3d6000fd5b505050506040513d6000823e601f3d908101601f1916820160405262002d5a919081019062003623565b909350915062002d6a565b600092505b509550959350505050565b6001606555565b62002da160405180606001604052806000815260200160008152602001600081525090565b60008073__$67e4a81169bd42f3bd76691a8cba760d26$__6394d8bc6a33609954609a5460a460a78e8d8d8d6040518a63ffffffff1660e01b815260040162002df3999897969594939291906200409c565b60a06040518083038186803b15801562002e0c57600080fd5b505af415801562002e21573d6000803e3d6000fd5b505050506040513d601f19601f8201168201806040525081019062002e479190620039ee565b609b80549396509194509250600062002e60836200456d565b9091555050609d54835160405163a9059cbb60e01b81526001600160a01b038a81169363a9059cbb9362002e9c93929091169160040162003f02565b602060405180830381600087803b15801562002eb757600080fd5b505af115801562002ecc573d6000803e3d6000fd5b505050506040513d601f19601f8201168201806040525081019062002ef2919062003606565b50609e54602084015160405163a9059cbb60e01b81526001600160a01b038a81169363a9059cbb9362002f2d93929091169160040162003f02565b602060405180830381600087803b15801562002f4857600080fd5b505af115801562002f5d573d6000803e3d6000fd5b505050506040513d601f19601f8201168201806040525081019062002f83919062003606565b506001600160a01b038216156200301f57604080840151905163a9059cbb60e01b81526001600160a01b0389169163a9059cbb9162002fc791869160040162003f02565b602060405180830381600087803b15801562002fe257600080fd5b505af115801562002ff7573d6000803e3d6000fd5b505050506040513d601f19601f820116820180604052508101906200301d919062003606565b505b609e5460a8546200303a916001600160a01b03169062003175565b604051630852cd8d60e31b8152600481018290526001600160a01b038816906342966c6890602401602060405180830381600087803b1580156200307d57600080fd5b505af115801562003092573d6000803e3d6000fd5b505050506040513d601f19601f82011682018060405250810190620030b8919062003606565b50955095509592505050565b603380546001600160a01b038381166001600160a01b0319831681179093556040519116919082907f8be0079c531659141344cd1fd0a4f28419497f9722a3daafe3b4186f6b6457e090600090a35050565b600054610100900460ff16620031405760405162461bcd60e51b8152600401620009d99062004248565b620018fd33620030c4565b600054610100900460ff1662002d755760405162461bcd60e51b8152600401620009d99062004248565b80471015620031c75760405162461bcd60e51b815260206004820152601d60248201527f416464726573733a20696e73756666696369656e742062616c616e63650000006044820152606401620009d9565b6000826001600160a01b03168260405160006040518083038185875af1925050503d806000811462003216576040519150601f19603f3d011682016040523d82523d6000602084013e6200321b565b606091505b5050905080620032915760405162461bcd60e51b815260206004820152603a60248201527f416464726573733a20756e61626c6520746f2073656e642076616c75652c20726044820152791958da5c1a595b9d081b585e481a185d99481c995d995c9d195960321b6064820152608401620009d9565b505050565b610f2c80620045ce83390190565b828054620032b29062004530565b90600052602060002090601f016020900481019282620032d6576000855562003321565b82601f10620032f157805160ff191683800117855562003321565b8280016001018555821562003321579182015b828111156200332157825182559160200191906001019062003304565b506200332f9291506200336d565b5090565b508054620033419062004530565b6000825580601f1062003352575050565b601f016020900490600052602060002090810190620029fb91905b5b808211156200332f57600081556001016200336e565b600082601f83011262003395578081fd5b81356020620033ae620033a883620044d5565b620044a2565b80838252828201915082860187848660051b8901011115620033ce578586fd5b855b85811015620033f9578135620033e681620045b7565b84529284019290840190600101620033d0565b5090979650505050505050565b600082601f83011262003417578081fd5b813560206200342a620033a883620044d5565b80838252828201915082860187848660051b89010111156200344a578586fd5b855b85811015620033f9578135845292840192908401906001016200344c565b805180151581146200347b57600080fd5b919050565b80356001600160e01b0319811681146200347b57600080fd5b60008083601f840112620034ab578182fd5b5081356001600160401b03811115620034c2578182fd5b602083019150836020828501011115620034db57600080fd5b9250929050565b600082601f830112620034f3578081fd5b81356001600160401b038111156200350f576200350f620045a1565b62003524601f8201601f1916602001620044a2565b81815284602083860101111562003539578283fd5b816020850160208301379081016020019190915292915050565b8035600681106200347b57600080fd5b60006060828403121562003575578081fd5b604051606081016001600160401b03811182821017156200359a576200359a620045a1565b80604052508091508251815260208301516020820152604083015160408201525092915050565b600060208284031215620035d3578081fd5b8135620035e081620045b7565b9392505050565b600060208284031215620035f9578081fd5b8151620035e081620045b7565b60006020828403121562003618578081fd5b620035e0826200346a565b6000806040838503121562003636578081fd5b62003641836200346a565b602084810151919350906001600160401b038111156200365f578283fd5b8401601f8101861362003670578283fd5b805162003681620033a882620044d5565b80828252848201915084840189868560051b8701011115620036a1578687fd5b8694505b83851015620036c5578051835260019490940193918501918501620036a5565b5080955050505050509250929050565b600060208284031215620036e7578081fd5b5035919050565b60006020828403121562003700578081fd5b5051919050565b6000806000806000806000806000806101008b8d03121562003727578586fd5b620037328b62003480565b995060208b01356001600160401b03808211156200374e578788fd5b6200375c8e838f01620034e2565b9a5060408d013591508082111562003772578788fd5b620037808e838f0162003499565b909a5098508891506200379660608e0162003480565b975060808d0135965060a08d0135915080821115620037b3578586fd5b620037c18e838f0162003499565b909650945060c08d0135935060e08d0135915080821115620037e1578283fd5b50620037f08d828e0162003384565b9150509295989b9194979a5092959850565b600080600080600080600080610100898b0312156200381f578182fd5b6200382a8962003480565b975060208901356001600160401b038082111562003846578384fd5b620038548c838d01620034e2565b985060408b01359150808211156200386a578384fd5b620038788c838d01620034e2565b97506200388860608c0162003480565b965060808b0135955060a08b0135915080821115620038a5578384fd5b620038b38c838d01620034e2565b945060c08b0135935060e08b0135915080821115620038d0578283fd5b50620038df8b828c0162003406565b9150509295985092959890939650565b6000806040838503121562003902578182fd5b82356001600160401b0381111562003918578283fd5b6200392685828601620034e2565b925050620039376020840162003553565b90509250929050565b600080600080600060a0868803121562003958578283fd5b85356001600160401b03808211156200396f578485fd5b6200397d89838a01620034e2565b9650602088013591508082111562003993578485fd5b620039a189838a01620034e2565b95506040880135915080821115620039b7578485fd5b50620039c688828901620034e2565b935050606086013560ff81168114620039dd578182fd5b949793965091946080013592915050565b600080600060a0848603121562003a03578081fd5b62003a0f858562003563565b9250606084015162003a2181620045b7565b80925050608084015190509250925092565b6000806040838503121562003a46578182fd5b82359150602083013562003a5a81620045b7565b809150509250929050565b60008060006060848603121562003a7a578081fd5b83359250602084013562003a8e81620045b7565b929592945050506040919091013590565b60008060008060c0858703121562003ab5578182fd5b8451935062003ac8866020870162003563565b9250608085015162003ada81620045b7565b60a086015190925062003aed81620045b7565b939692955090935050565b6000806000806000806000806000806101408b8d03121562003b18578384fd5b8a35995060208b0135985060408b0135975060608b013562003b3a81620045b7565b965060808b013562003b4c81620045b7565b955060a08b01356001600160401b0381111562003b67578485fd5b62003b758d828e01620034e2565b95505062003b8660c08c0162003553565b935060e08b013562003b9881620045b7565b92506101008b013562003bab81620045b7565b91506101208b013562003bbe81620045b7565b809150509295989b9194979a5092959850565b600080600080600080600080610100898b03121562003bee578182fd5b88359750602089013596506040890135955060608901356001600160401b038082111562003c1a578384fd5b62003c288c838d01620034e2565b965062003c3860808c0162003553565b955060a08b0135945060c08b0135935060e08b013591508082111562003c5c578283fd5b50620038df8b828c0162003384565b6000815180845260208085019450808401835b8381101562003ca55781516001600160a01b03168752958201959082019060010162003c7e565b509495945050505050565b81835281816020850137506000828201602090810191909152601f909101601f19169091010190565b60008151808452815b8181101562003d005760208185018101518683018201520162003ce2565b8181111562003d125782602083870101525b50601f01601f19169290920160200192915050565b6006811062003d4657634e487b7160e01b600052602160045260246000fd5b9052565b8051825260208082015190830152604090810151910152565b6001600160a01b0391909116815260200190565b6001600160a01b0392831681529116602082015260400190565b6001600160a01b0384811682528316602082015260606040820181905260009062003dbf9083018462003cd9565b95945050505050565b6001600160a01b039384168152919092166020820152604081019190915260600190565b6001600160a01b038b811682526101806020830181905260009162003e148483018e62003cd9565b925062003e25604085018d62003d27565b808b1660608501528960808501528860a085015262003e4860c085018962003d4a565b866101208501528086166101408501525050826101608301529b9a5050505050505050505050565b600060018060a01b03808f1683526101c0602084015262003e966101c084018f62003cd9565b915062003ea7604084018e62003d27565b8b6060840152808b1660808401528960a08401528860c084015280881660e084015262003ed961010084018862003d4a565b8561016084015280851661018084015250826101a08301529d9c50505050505050505050505050565b6001600160a01b03929092168252602082015260400190565b6001600160a01b03878116825260208201879052858116604083015261010082019062003f4c606084018762003d4a565b9390931660c082015260e00152949350505050565b6001600160a01b03898116825260208201899052878116604083015260608201879052858116608083015261014082019062003fa160a084018762003d4a565b9390931661010082015261012001529695505050505050565b6001600160a01b0386168152602080820186905260a060408301528454600091908290600181811c908281168062003ff357607f831692505b8583108114156200401257634e487b7160e01b87526022600452602487fd5b60a0880183905260c08801818015620040345760018114620040465762004072565b60ff1986168252878201965062004072565b60008d815260209020895b868110156200406c5781548482015290850190890162004051565b83019750505b50505050505080925050506200408c606083018562003d27565b8260808301529695505050505050565b600061012060018060a01b038c1683528a60208401528960408401528860608401528760808401528660a08401528560c08401528060e0840152620040e48184018662003cd9565b915050620040f761010083018462003d27565b9a9950505050505050505050565b602081526000620035e0602083018462003c6b565b871515815286602082015285604082015284606082015260018060a01b038416608082015260e060a082015260006200415760e083018562003cd9565b90506200416860c083018462003d27565b98975050505050505050565b602081526000620035e0602083018462003cd9565b6020810162000d60828462003d27565b60e081526000620041ae60e083018a62003cd9565b8281036020840152620041c2818a62003cd9565b90508281036040840152620041d8818962003cd9565b60ff979097166060840152505060808101939093526001600160a01b0391821660a08401521660c0909101529392505050565b60608152600062004220606083018662003cd9565b828103602084015262004234818662003cd9565b91505060ff83166040830152949350505050565b6020808252602b908201527f496e697469616c697a61626c653a20636f6e7472616374206973206e6f74206960408201526a6e697469616c697a696e6760a81b606082015260800190565b6020808252601d908201527f52756e65526f757465724c6f6769633a207a65726f2061646472657373000000604082015260600190565b9182526001600160a01b0316602082015260400190565b8b81526001600160a01b038b1660208201526001600160e01b03198a81166040830152610120606083018190526000916200431f8483018d62003cd9565b9150838203608085015262004336828b8d62003cb0565b915080891660a0850152508660c084015282810360e08401526200435c81868862003cb0565b915050826101008301529c9b505050505050505050505050565b8981526001600160a01b03891660208201526001600160e01b0319888116604083015261012060608301819052600091620043b48483018b62003cd9565b91508382036080850152620043ca828a62003cd9565b915080881660a0850152508560c084015282810360e0840152620043ef818662003cd9565b915050826101008301529a9950505050505050505050565b60006101008b8352806020840152620044248184018b8d62003cb0565b604084019990995250506060810195909552608085019390935260a084019190915260c083015260e0909101529392505050565b86815285602082015260c0604082015260006200447960c083018762003c6b565b6001600160a01b03959095166060830152506080810192909252151560a0909101529392505050565b604051601f8201601f191681016001600160401b0381118282101715620044cd57620044cd620045a1565b604052919050565b60006001600160401b03821115620044f157620044f1620045a1565b5060051b60200190565b600082198211156200451157620045116200458b565b500190565b6000828210156200452b576200452b6200458b565b500390565b600181811c908216806200454557607f821691505b602082108114156200456757634e487b7160e01b600052602260045260246000fd5b50919050565b60006000198214156200458457620045846200458b565b5060010190565b634e487b7160e01b600052601160045260246000fd5b634e487b7160e01b600052604160045260246000fd5b6001600160a01b0381168114620029fb57600080fdfe608060405260405162000f2c38038062000f2c8339810160408190526200002691620004e0565b82828282816200005860017f360894a13ba1a3210667c828492db98dca3e2076cc3735a920a3ca505d382bbd6200060f565b60008051602062000ee5833981519152146200008457634e487b7160e01b600052600160045260246000fd5b620000928282600062000105565b50620000c2905060017fb53127684a568b3173ae13b9f8a6016e243e63b6e8ee1178d6a717850b5d61046200060f565b60008051602062000ec583398151915214620000ee57634e487b7160e01b600052600160045260246000fd5b620000f98262000142565b50505050505062000678565b62000110836200019d565b6000825111806200011e5750805b156200013d576200013b8383620001df60201b620002601760201c565b505b505050565b7f7e644d79422f17c01e4894b5f4f588d331ebfa28653d42ae832dc59e38c9798f6200016d6200020e565b604080516001600160a01b03928316815291841660208301520160405180910390a16200019a8162000247565b50565b620001a881620002fc565b6040516001600160a01b038216907fbc7cd75a20ee27fd9adebab32041f755214dbc6bffa90cc0225b39da2e5c2d3b90600090a250565b606062000207838360405180606001604052806027815260200162000f05602791396200039f565b9392505050565b60006200023860008051602062000ec583398151915260001b6200047c60201b620002081760201c565b546001600160a01b0316919050565b6001600160a01b038116620002b25760405162461bcd60e51b815260206004820152602660248201527f455243313936373a206e65772061646d696e20697320746865207a65726f206160448201526564647265737360d01b60648201526084015b60405180910390fd5b80620002db60008051602062000ec583398151915260001b6200047c60201b620002081760201c565b80546001600160a01b0319166001600160a01b039290921691909117905550565b62000312816200047f60201b6200028c1760201c565b620003765760405162461bcd60e51b815260206004820152602d60248201527f455243313936373a206e657720696d706c656d656e746174696f6e206973206e60448201526c1bdd08184818dbdb9d1c9858dd609a1b6064820152608401620002a9565b80620002db60008051602062000ee583398151915260001b6200047c60201b620002081760201c565b6060833b620004005760405162461bcd60e51b815260206004820152602660248201527f416464726573733a2064656c65676174652063616c6c20746f206e6f6e2d636f6044820152651b9d1c9858dd60d21b6064820152608401620002a9565b600080856001600160a01b0316856040516200041d9190620005bc565b600060405180830381855af49150503d80600081146200045a576040519150601f19603f3d011682016040523d82523d6000602084013e6200045f565b606091505b5090925090506200047282828662000485565b9695505050505050565b90565b3b151590565b606083156200049657508162000207565b825115620004a75782518084602001fd5b8160405162461bcd60e51b8152600401620002a99190620005da565b80516001600160a01b0381168114620004db57600080fd5b919050565b600080600060608486031215620004f5578283fd5b6200050084620004c3565b92506200051060208501620004c3565b60408501519092506001600160401b03808211156200052d578283fd5b818601915086601f83011262000541578283fd5b81518181111562000556576200055662000662565b604051601f8201601f19908116603f0116810190838211818310171562000581576200058162000662565b816040528281528960208487010111156200059a578586fd5b620005ad83602083016020880162000633565b80955050505050509250925092565b60008251620005d081846020870162000633565b9190910192915050565b6020815260008251806020840152620005fb81604085016020870162000633565b601f01601f19169190910160400192915050565b6000828210156200062e57634e487b7160e01b81526011600452602481fd5b500390565b60005b838110156200065057818101518382015260200162000636565b838111156200013b5750506000910152565b634e487b7160e01b600052604160045260246000fd5b61083d80620006886000396000f3fe60806040526004361061004e5760003560e01c80633659cfe6146100655780634f1ef286146100855780635c60da1b146100985780638f283970146100c9578063f851a440146100e95761005d565b3661005d5761005b6100fe565b005b61005b6100fe565b34801561007157600080fd5b5061005b61008036600461068e565b610118565b61005b6100933660046106a8565b61015f565b3480156100a457600080fd5b506100ad6101d0565b6040516001600160a01b03909116815260200160405180910390f35b3480156100d557600080fd5b5061005b6100e436600461068e565b61020b565b3480156100f557600080fd5b506100ad610235565b610106610292565b610116610111610331565b61033b565b565b61012061035f565b6001600160a01b0316336001600160a01b031614156101575761015481604051806020016040528060008152506000610380565b50565b6101546100fe565b61016761035f565b6001600160a01b0316336001600160a01b031614156101c8576101c38383838080601f01602080910402602001604051908101604052809392919081815260200183838082843760009201919091525060019250610380915050565b505050565b6101c36100fe565b60006101da61035f565b6001600160a01b0316336001600160a01b03161415610200576101fb610331565b905090565b6102086100fe565b90565b61021361035f565b6001600160a01b0316336001600160a01b0316141561015757610154816103ab565b600061023f61035f565b6001600160a01b0316336001600160a01b03161415610200576101fb61035f565b606061028583836040518060600160405280602781526020016107e1602791396103ff565b9392505050565b3b151590565b61029a61035f565b6001600160a01b0316336001600160a01b031614156101165760405162461bcd60e51b815260206004820152604260248201527f5472616e73706172656e745570677261646561626c6550726f78793a2061646d60448201527f696e2063616e6e6f742066616c6c6261636b20746f2070726f78792074617267606482015261195d60f21b608482015260a4015b60405180910390fd5b60006101fb6104d3565b3660008037600080366000845af43d6000803e80801561035a573d6000f35b3d6000fd5b60006000805160206107a18339815191525b546001600160a01b0316919050565b610389836104e9565b6000825111806103965750805b156101c3576103a58383610260565b50505050565b7f7e644d79422f17c01e4894b5f4f588d331ebfa28653d42ae832dc59e38c9798f6103d461035f565b604080516001600160a01b03928316815291841660208301520160405180910390a161015481610529565b6060833b61045e5760405162461bcd60e51b815260206004820152602660248201527f416464726573733a2064656c65676174652063616c6c20746f206e6f6e2d636f6044820152651b9d1c9858dd60d21b6064820152608401610328565b600080856001600160a01b0316856040516104799190610725565b600060405180830381855af49150503d80600081146104b4576040519150601f19603f3d011682016040523d82523d6000602084013e6104b9565b606091505b50915091506104c98282866105c0565b9695505050505050565b60006000805160206107c1833981519152610371565b6104f2816105f9565b6040516001600160a01b038216907fbc7cd75a20ee27fd9adebab32041f755214dbc6bffa90cc0225b39da2e5c2d3b90600090a250565b6001600160a01b03811661058e5760405162461bcd60e51b815260206004820152602660248201527f455243313936373a206e65772061646d696e20697320746865207a65726f206160448201526564647265737360d01b6064820152608401610328565b806000805160206107a18339815191525b80546001600160a01b0319166001600160a01b039290921691909117905550565b606083156105cf575081610285565b8251156105df5782518084602001fd5b8160405162461bcd60e51b81526004016103289190610741565b803b61065d5760405162461bcd60e51b815260206004820152602d60248201527f455243313936373a206e657720696d706c656d656e746174696f6e206973206e60448201526c1bdd08184818dbdb9d1c9858dd609a1b6064820152608401610328565b806000805160206107c183398151915261059f565b80356001600160a01b038116811461068957600080fd5b919050565b60006020828403121561069f578081fd5b61028582610672565b6000806000604084860312156106bc578182fd5b6106c584610672565b925060208401356001600160401b03808211156106e0578384fd5b818601915086601f8301126106f3578384fd5b813581811115610701578485fd5b876020828501011115610712578485fd5b6020830194508093505050509250925092565b60008251610737818460208701610774565b9190910192915050565b6020815260008251806020840152610760816040850160208701610774565b601f01601f19169190910160400192915050565b60005b8381101561078f578181015183820152602001610777565b838111156103a5575050600091015256feb53127684a568b3173ae13b9f8a6016e243e63b6e8ee1178d6a717850b5d6103360894a13ba1a3210667c828492db98dca3e2076cc3735a920a3ca505d382bbc416464726573733a206c6f772d6c6576656c2064656c65676174652063616c6c206661696c6564a264697066735822122064b11b2157d61600a09abbd0eaeb0a67e43f14e3005703114add6fac6fd353ec64736f6c63430008040033b53127684a568b3173ae13b9f8a6016e243e63b6e8ee1178d6a717850b5d6103360894a13ba1a3210667c828492db98dca3e2076cc3735a920a3ca505d382bbc416464726573733a206c6f772d6c6576656c2064656c65676174652063616c6c206661696c6564a2646970667358221220a6fa5b59bae11f2b3c47f5355ec54b04831422cfaba778b1cd3c908988a9359864736f6c63430008040033",
  "libraries": {
    "RuneRouterLib": "0xC2276ee54B85Da9c7F61872Bf6e1C761dE170B39"
  },
  "devdoc": {
    "kind": "dev",
    "methods": {
      "addRune(string,string,string,uint8,uint256)": {
        "details": "We assign tokenId to a supported Rune",
        "params": {
          "_internalId": "Internal id",
          "_runeId": "Real rune id"
        }
      },
      "initialize(uint256,uint256,uint256,address,address,bytes,uint8,address,address,address)": {
        "params": {
          "_chainId": "Id of the underlying chain",
          "_protocolPercentageFee": "Percentage amount of protocol fee (min: %0.01)",
          "_relay": "Bitcoin bridge address which validates Bitcoin tx",
          "_startingBlockNumber": "Requests included in a block older than _startingBlockNumber cannot be processed",
          "_treasury": "Address of treasury that collects protocol fees"
        }
      },
      "isWrapRequestProcessed(bytes32)": {
        "params": {
          "_txId": "of the request on Bitcoin"
        }
      },
      "owner()": {
        "details": "Returns the address of the current owner."
      },
      "renounceOwnership()": {
        "details": "Leaves the contract without owner. It will not be possible to call `onlyOwner` functions. Can only be called by the current owner. NOTE: Renouncing ownership will leave the contract without an owner, thereby disabling any functionality that is only available to the owner."
      },
      "setExchangeConnector(uint256,address)": {
        "details": "If address(0) is set for an appId, that appId is inactive"
      },
      "setUnwrapFee(uint256)": {
        "details": "This fee is taken for unwrap requests to cover the Bitcoin network fee"
      },
      "transferOwnership(address)": {
        "details": "Transfers ownership of the contract to a new account (`newOwner`). Can only be called by the current owner."
      },
      "unwrapRune(uint256,uint256,uint256,bytes,uint8,uint256,uint256,address[])": {
        "details": "For unwrap requests (not swap & unwrap), pass _appId,      _inputAmount and _path ZERO",
        "params": {
          "_amount": "of WRune that user wants to burn",
          "_scriptType": "User script type",
          "_userScript": "User script hash"
        }
      },
      "wrapRune(bytes4,bytes,bytes,bytes4,uint256,bytes,uint256,address[])": {
        "details": "Locker submits wrap requests to this function for:      1) Checking tx inclusion      2) Extracting wrap request info from the OP_RETURN output      3) Exchanging wrapped Rune (if request is wrap & exchange) using the path         provided by the locker",
        "params": {
          "_blockNumber": "that includes the tx",
          "_index": "of tx in the block",
          "_intermediateNodes": "Merkle proof for tx",
          "_locktime": "Tx locktime",
          "_version": "of Bitcoin tx",
          "_vin": "Tx inputs",
          "_vout": "Tx outputs"
        }
      }
    },
    "version": 1
  },
  "userdoc": {
    "events": {
      "FailedRuneWrapAndSwap(address,uint256,address,uint256,address,(uint256,uint256,uint256),address,bytes32)": {
        "notice": "Emit when a wrap&swap request is processed but swap failed"
      },
      "NewLocker(address,address)": {
        "notice": "Emit when locker address updated"
      },
      "NewProtocolPercentageFee(uint256,uint256)": {
        "notice": "Emit when protocol fee updated"
      },
      "NewRelay(address,address)": {
        "notice": "Emit when relay address updated"
      },
      "NewRune(string,string,string,uint256,uint256,address,address)": {
        "notice": "Emit when new Rune added"
      },
      "NewRuneSwapAndUnwrap(address,bytes,uint8,uint256,address,uint256,uint256,address,(uint256,uint256,uint256),uint256,address,uint256)": {
        "notice": "Emit when a new rune swap&unwrap request is created"
      },
      "NewRuneUnwrap(address,bytes,uint8,address,uint256,uint256,(uint256,uint256,uint256),uint256,address,uint256)": {
        "notice": "Emit when a new rune unwrap request is created"
      },
      "NewRuneWrap(address,uint256,address,(uint256,uint256,uint256),address,bytes32)": {
        "notice": "Emit when a rune wrap request is processed"
      },
      "NewRuneWrapAndSwap(address,uint256,address,uint256,address,(uint256,uint256,uint256),address,bytes32)": {
        "notice": "Emit when a wrap&swap request is processed"
      },
      "NewTeleporter(address,address)": {
        "notice": "Emit when teleporter address updated"
      },
      "NewTreasury(address,address)": {
        "notice": "Emit when treasury address updated"
      },
      "RuneRemoved(uint256,address)": {
        "notice": "Emit when Rune removed"
      },
      "SetExchangeConnector(uint256,address)": {
        "notice": "Emits when appId for an exchange connector is set"
      },
      "ThirdPartyInfoUpdated(uint256,address,uint256,address,uint256)": {
        "notice": "Emit when third party fee updated"
      },
      "UnwrapFeeUpdated(uint256,uint256)": {
        "notice": "Emit when unwrap fee updated"
      },
      "UnwrapRuneProcessed(address,uint256,bytes,uint8,uint256)": {
        "notice": "Emit when a unwrap request is processed"
      }
    },
    "kind": "user",
    "methods": {
      "addRune(string,string,string,uint8,uint256)": {
        "notice": "Deploy wrapped Rune token contract"
      },
      "initialize(uint256,uint256,uint256,address,address,bytes,uint8,address,address,address)": {
        "notice": "Initialize the contract"
      },
      "isUnwrapRequestProcessed(uint256)": {
        "notice": "Check if the unwrap request has been processed before"
      },
      "isWrapRequestProcessed(bytes32)": {
        "notice": "Check if the wrap request has been processed before"
      },
      "removeRune(uint256)": {
        "notice": "Remove support of a wrapped RUNE token"
      },
      "setChainId(uint256)": {
        "notice": "Setter for chainId"
      },
      "setExchangeConnector(uint256,address)": {
        "notice": "Set exchange connector for appId"
      },
      "setLocker(address)": {
        "notice": "Setter for locker"
      },
      "setLockerLockingScript(bytes,uint8)": {
        "notice": "Setter for locker locking script"
      },
      "setProtocolPercentageFee(uint256)": {
        "notice": "Setter for protocol percentage fee"
      },
      "setRelay(address)": {
        "notice": "Setter for Bitcoin relay"
      },
      "setStartingBlockNumber(uint256)": {
        "notice": "Setter for starting block number"
      },
      "setTeleporter(address)": {
        "notice": "Setter for teleporter"
      },
      "setThirdParty(uint256,address,uint256)": {
        "notice": "Setter for third party address and fee"
      },
      "setTreasury(address)": {
        "notice": "Setter for treasury"
      },
      "setUnwrapFee(uint256)": {
        "notice": "Setter for unwrap fee"
      },
      "setWrappedNativeToken(address)": {
        "notice": "Setter for wrapped native token"
      },
      "unwrapProofRune(bytes4,bytes,bytes,bytes4,uint256,bytes,uint256,uint256[])": {
        "notice": "Check proof of unwraping Runes"
      },
      "unwrapRune(uint256,uint256,uint256,bytes,uint8,uint256,uint256,address[])": {
        "notice": "Process user rune unwrap request"
      },
      "wrapRune(bytes4,bytes,bytes,bytes4,uint256,bytes,uint256,address[])": {
        "notice": "Process wrap Rune request"
      }
    },
    "version": 1
  },
  "storageLayout": {
    "storage": [
      {
        "astId": 280,
        "contract": "contracts/rune_router/RuneRouterLogic.sol:RuneRouterLogic",
        "label": "_initialized",
        "offset": 0,
        "slot": "0",
        "type": "t_uint8"
      },
      {
        "astId": 283,
        "contract": "contracts/rune_router/RuneRouterLogic.sol:RuneRouterLogic",
        "label": "_initializing",
        "offset": 1,
        "slot": "0",
        "type": "t_bool"
      },
      {
        "astId": 1751,
        "contract": "contracts/rune_router/RuneRouterLogic.sol:RuneRouterLogic",
        "label": "__gap",
        "offset": 0,
        "slot": "1",
        "type": "t_array(t_uint256)50_storage"
      },
      {
        "astId": 152,
        "contract": "contracts/rune_router/RuneRouterLogic.sol:RuneRouterLogic",
        "label": "_owner",
        "offset": 0,
        "slot": "51",
        "type": "t_address"
      },
      {
        "astId": 272,
        "contract": "contracts/rune_router/RuneRouterLogic.sol:RuneRouterLogic",
        "label": "__gap",
        "offset": 0,
        "slot": "52",
        "type": "t_array(t_uint256)49_storage"
      },
      {
        "astId": 585,
        "contract": "contracts/rune_router/RuneRouterLogic.sol:RuneRouterLogic",
        "label": "_status",
        "offset": 0,
        "slot": "101",
        "type": "t_uint256"
      },
      {
        "astId": 654,
        "contract": "contracts/rune_router/RuneRouterLogic.sol:RuneRouterLogic",
        "label": "__gap",
        "offset": 0,
        "slot": "102",
        "type": "t_array(t_uint256)49_storage"
      },
      {
        "astId": 13098,
        "contract": "contracts/rune_router/RuneRouterLogic.sol:RuneRouterLogic",
        "label": "startingBlockNumber",
        "offset": 0,
        "slot": "151",
        "type": "t_uint256"
      },
      {
        "astId": 13101,
        "contract": "contracts/rune_router/RuneRouterLogic.sol:RuneRouterLogic",
        "label": "chainId",
        "offset": 0,
        "slot": "152",
        "type": "t_uint256"
      },
      {
        "astId": 13104,
        "contract": "contracts/rune_router/RuneRouterLogic.sol:RuneRouterLogic",
        "label": "protocolPercentageFee",
        "offset": 0,
        "slot": "153",
        "type": "t_uint256"
      },
      {
        "astId": 13106,
        "contract": "contracts/rune_router/RuneRouterLogic.sol:RuneRouterLogic",
        "label": "lockerPercentageFee",
        "offset": 0,
        "slot": "154",
        "type": "t_uint256"
      },
      {
        "astId": 13108,
        "contract": "contracts/rune_router/RuneRouterLogic.sol:RuneRouterLogic",
        "label": "runeUnwrapCounter",
        "offset": 0,
        "slot": "155",
        "type": "t_uint256"
      },
      {
        "astId": 13111,
        "contract": "contracts/rune_router/RuneRouterLogic.sol:RuneRouterLogic",
        "label": "relay",
        "offset": 0,
        "slot": "156",
        "type": "t_address"
      },
      {
        "astId": 13114,
        "contract": "contracts/rune_router/RuneRouterLogic.sol:RuneRouterLogic",
        "label": "treasury",
        "offset": 0,
        "slot": "157",
        "type": "t_address"
      },
      {
        "astId": 13117,
        "contract": "contracts/rune_router/RuneRouterLogic.sol:RuneRouterLogic",
        "label": "locker",
        "offset": 0,
        "slot": "158",
        "type": "t_address"
      },
      {
        "astId": 13121,
        "contract": "contracts/rune_router/RuneRouterLogic.sol:RuneRouterLogic",
        "label": "supportedRunes",
        "offset": 0,
        "slot": "159",
        "type": "t_mapping(t_uint256,t_address)"
      },
      {
        "astId": 13125,
        "contract": "contracts/rune_router/RuneRouterLogic.sol:RuneRouterLogic",
        "label": "runeIds",
        "offset": 0,
        "slot": "160",
        "type": "t_mapping(t_address,t_string_storage)"
      },
      {
        "astId": 13129,
        "contract": "contracts/rune_router/RuneRouterLogic.sol:RuneRouterLogic",
        "label": "internalIds",
        "offset": 0,
        "slot": "161",
        "type": "t_mapping(t_address,t_uint256)"
      },
      {
        "astId": 13134,
        "contract": "contracts/rune_router/RuneRouterLogic.sol:RuneRouterLogic",
        "label": "runeWrapRequests",
        "offset": 0,
        "slot": "162",
        "type": "t_mapping(t_bytes32,t_struct(runeWrapRequest)13190_storage)"
      },
      {
        "astId": 13139,
        "contract": "contracts/rune_router/RuneRouterLogic.sol:RuneRouterLogic",
        "label": "exchangeConnector",
        "offset": 0,
        "slot": "163",
        "type": "t_mapping(t_uint256,t_address)"
      },
      {
        "astId": 13143,
        "contract": "contracts/rune_router/RuneRouterLogic.sol:RuneRouterLogic",
        "label": "runeUnwrapRequests",
        "offset": 0,
        "slot": "164",
        "type": "t_array(t_struct(runeUnwrapRequest)13206_storage)dyn_storage"
      },
      {
        "astId": 13146,
        "contract": "contracts/rune_router/RuneRouterLogic.sol:RuneRouterLogic",
        "label": "lockerLockingScript",
        "offset": 0,
        "slot": "165",
        "type": "t_bytes_storage"
      },
      {
        "astId": 13150,
        "contract": "contracts/rune_router/RuneRouterLogic.sol:RuneRouterLogic",
        "label": "lockerScriptType",
        "offset": 0,
        "slot": "166",
        "type": "t_enum(ScriptTypes)7581"
      },
      {
        "astId": 13153,
        "contract": "contracts/rune_router/RuneRouterLogic.sol:RuneRouterLogic",
        "label": "teleporter",
        "offset": 1,
        "slot": "166",
        "type": "t_address"
      },
      {
        "astId": 13158,
        "contract": "contracts/rune_router/RuneRouterLogic.sol:RuneRouterLogic",
        "label": "thirdParties",
        "offset": 0,
        "slot": "167",
        "type": "t_mapping(t_uint256,t_struct(thirdParty)13211_storage)"
      },
      {
        "astId": 13161,
        "contract": "contracts/rune_router/RuneRouterLogic.sol:RuneRouterLogic",
        "label": "unwrapFee",
        "offset": 0,
        "slot": "168",
        "type": "t_uint256"
      },
      {
        "astId": 13163,
        "contract": "contracts/rune_router/RuneRouterLogic.sol:RuneRouterLogic",
        "label": "wrappedNativeToken",
        "offset": 0,
        "slot": "169",
        "type": "t_address"
      }
    ],
    "types": {
      "t_address": {
        "encoding": "inplace",
        "label": "address",
        "numberOfBytes": "20"
      },
      "t_array(t_struct(runeUnwrapRequest)13206_storage)dyn_storage": {
        "base": "t_struct(runeUnwrapRequest)13206_storage",
        "encoding": "dynamic_array",
        "label": "struct IRuneRouter.runeUnwrapRequest[]",
        "numberOfBytes": "32"
      },
      "t_array(t_uint256)49_storage": {
        "base": "t_uint256",
        "encoding": "inplace",
        "label": "uint256[49]",
        "numberOfBytes": "1568"
      },
      "t_array(t_uint256)50_storage": {
        "base": "t_uint256",
        "encoding": "inplace",
        "label": "uint256[50]",
        "numberOfBytes": "1600"
      },
      "t_bool": {
        "encoding": "inplace",
        "label": "bool",
        "numberOfBytes": "1"
      },
      "t_bytes32": {
        "encoding": "inplace",
        "label": "bytes32",
        "numberOfBytes": "32"
      },
      "t_bytes_storage": {
        "encoding": "bytes",
        "label": "bytes",
        "numberOfBytes": "32"
      },
      "t_enum(ScriptTypes)7581": {
        "encoding": "inplace",
        "label": "enum ScriptTypes",
        "numberOfBytes": "1"
      },
      "t_mapping(t_address,t_string_storage)": {
        "encoding": "mapping",
        "key": "t_address",
        "label": "mapping(address => string)",
        "numberOfBytes": "32",
        "value": "t_string_storage"
      },
      "t_mapping(t_address,t_uint256)": {
        "encoding": "mapping",
        "key": "t_address",
        "label": "mapping(address => uint256)",
        "numberOfBytes": "32",
        "value": "t_uint256"
      },
      "t_mapping(t_bytes32,t_struct(runeWrapRequest)13190_storage)": {
        "encoding": "mapping",
        "key": "t_bytes32",
        "label": "mapping(bytes32 => struct IRuneRouter.runeWrapRequest)",
        "numberOfBytes": "32",
        "value": "t_struct(runeWrapRequest)13190_storage"
      },
      "t_mapping(t_uint256,t_address)": {
        "encoding": "mapping",
        "key": "t_uint256",
        "label": "mapping(uint256 => address)",
        "numberOfBytes": "32",
        "value": "t_address"
      },
      "t_mapping(t_uint256,t_struct(thirdParty)13211_storage)": {
        "encoding": "mapping",
        "key": "t_uint256",
        "label": "mapping(uint256 => struct IRuneRouter.thirdParty)",
        "numberOfBytes": "32",
        "value": "t_struct(thirdParty)13211_storage"
      },
      "t_string_storage": {
        "encoding": "bytes",
        "label": "string",
        "numberOfBytes": "32"
      },
      "t_struct(runeUnwrapRequest)13206_storage": {
        "encoding": "inplace",
        "label": "struct IRuneRouter.runeUnwrapRequest",
        "members": [
          {
            "astId": 13192,
            "contract": "contracts/rune_router/RuneRouterLogic.sol:RuneRouterLogic",
            "label": "isProcessed",
            "offset": 0,
            "slot": "0",
            "type": "t_bool"
          },
          {
            "astId": 13194,
            "contract": "contracts/rune_router/RuneRouterLogic.sol:RuneRouterLogic",
            "label": "amount",
            "offset": 0,
            "slot": "1",
            "type": "t_uint256"
          },
          {
            "astId": 13196,
            "contract": "contracts/rune_router/RuneRouterLogic.sol:RuneRouterLogic",
            "label": "burntAmount",
            "offset": 0,
            "slot": "2",
            "type": "t_uint256"
          },
          {
            "astId": 13198,
            "contract": "contracts/rune_router/RuneRouterLogic.sol:RuneRouterLogic",
            "label": "appId",
            "offset": 0,
            "slot": "3",
            "type": "t_uint256"
          },
          {
            "astId": 13200,
            "contract": "contracts/rune_router/RuneRouterLogic.sol:RuneRouterLogic",
            "label": "sender",
            "offset": 0,
            "slot": "4",
            "type": "t_address"
          },
          {
            "astId": 13202,
            "contract": "contracts/rune_router/RuneRouterLogic.sol:RuneRouterLogic",
            "label": "userScript",
            "offset": 0,
            "slot": "5",
            "type": "t_bytes_storage"
          },
          {
            "astId": 13205,
            "contract": "contracts/rune_router/RuneRouterLogic.sol:RuneRouterLogic",
            "label": "scriptType",
            "offset": 0,
            "slot": "6",
            "type": "t_enum(ScriptTypes)7581"
          }
        ],
        "numberOfBytes": "224"
      },
      "t_struct(runeWrapRequest)13190_storage": {
        "encoding": "inplace",
        "label": "struct IRuneRouter.runeWrapRequest",
        "members": [
          {
            "astId": 13169,
            "contract": "contracts/rune_router/RuneRouterLogic.sol:RuneRouterLogic",
            "label": "isUsed",
            "offset": 0,
            "slot": "0",
            "type": "t_bool"
          },
          {
            "astId": 13171,
            "contract": "contracts/rune_router/RuneRouterLogic.sol:RuneRouterLogic",
            "label": "chainId",
            "offset": 0,
            "slot": "1",
            "type": "t_uint256"
          },
          {
            "astId": 13173,
            "contract": "contracts/rune_router/RuneRouterLogic.sol:RuneRouterLogic",
            "label": "appId",
            "offset": 0,
            "slot": "2",
            "type": "t_uint256"
          },
          {
            "astId": 13175,
            "contract": "contracts/rune_router/RuneRouterLogic.sol:RuneRouterLogic",
            "label": "tokenId",
            "offset": 0,
            "slot": "3",
            "type": "t_uint256"
          },
          {
            "astId": 13177,
            "contract": "contracts/rune_router/RuneRouterLogic.sol:RuneRouterLogic",
            "label": "inputAmount",
            "offset": 0,
            "slot": "4",
            "type": "t_uint256"
          },
          {
            "astId": 13179,
            "contract": "contracts/rune_router/RuneRouterLogic.sol:RuneRouterLogic",
            "label": "inputToken",
            "offset": 0,
            "slot": "5",
            "type": "t_address"
          },
          {
            "astId": 13181,
            "contract": "contracts/rune_router/RuneRouterLogic.sol:RuneRouterLogic",
            "label": "recipientAddress",
            "offset": 0,
            "slot": "6",
            "type": "t_address"
          },
          {
            "astId": 13183,
            "contract": "contracts/rune_router/RuneRouterLogic.sol:RuneRouterLogic",
            "label": "thirdPartyId",
            "offset": 0,
            "slot": "7",
            "type": "t_uint256"
          },
          {
            "astId": 13185,
            "contract": "contracts/rune_router/RuneRouterLogic.sol:RuneRouterLogic",
            "label": "fee",
            "offset": 0,
            "slot": "8",
            "type": "t_uint256"
          },
          {
            "astId": 13187,
            "contract": "contracts/rune_router/RuneRouterLogic.sol:RuneRouterLogic",
            "label": "outputAmount",
            "offset": 0,
            "slot": "9",
            "type": "t_uint256"
          },
          {
            "astId": 13189,
            "contract": "contracts/rune_router/RuneRouterLogic.sol:RuneRouterLogic",
            "label": "outputToken",
            "offset": 0,
            "slot": "10",
            "type": "t_address"
          }
        ],
        "numberOfBytes": "352"
      },
      "t_struct(thirdParty)13211_storage": {
        "encoding": "inplace",
        "label": "struct IRuneRouter.thirdParty",
        "members": [
          {
            "astId": 13208,
            "contract": "contracts/rune_router/RuneRouterLogic.sol:RuneRouterLogic",
            "label": "thirdPartyAddress",
            "offset": 0,
            "slot": "0",
            "type": "t_address"
          },
          {
            "astId": 13210,
            "contract": "contracts/rune_router/RuneRouterLogic.sol:RuneRouterLogic",
            "label": "thirdPartyFee",
            "offset": 0,
            "slot": "1",
            "type": "t_uint256"
          }
        ],
        "numberOfBytes": "64"
      },
      "t_uint256": {
        "encoding": "inplace",
        "label": "uint256",
        "numberOfBytes": "32"
      },
      "t_uint8": {
        "encoding": "inplace",
        "label": "uint8",
        "numberOfBytes": "1"
      }
    }
  }
}