{
  "address": "0xcF8a5D4694a4a17ec43876D557896BafdC709b86",
  "abi": [
    {
      "inputs": [
        {
          "internalType": "address",
          "name": "_token",
          "type": "address"
        }
      ],
      "stateMutability": "nonpayable",
      "type": "constructor"
    },
    {
      "anonymous": false,
      "inputs": [
        {
          "indexed": false,
          "internalType": "address",
          "name": "transferOperator",
          "type": "address"
        }
      ],
      "name": "NewOperator",
      "type": "event"
    },
    {
      "anonymous": false,
      "inputs": [
        {
          "indexed": true,
          "internalType": "address",
          "name": "previousOwner",
          "type": "address"
        },
        {
          "indexed": true,
          "internalType": "address",
          "name": "newOwner",
          "type": "address"
        }
      ],
      "name": "OwnershipTransferred",
      "type": "event"
    },
    {
      "anonymous": false,
      "inputs": [
        {
          "indexed": true,
          "internalType": "address",
          "name": "owner",
          "type": "address"
        },
        {
          "indexed": false,
          "internalType": "uint256",
          "name": "stakeAmount",
          "type": "uint256"
        }
      ],
      "name": "WithdrawToken",
      "type": "event"
    },
    {
      "inputs": [
        {
          "internalType": "address[]",
          "name": "tokenHolders",
          "type": "address[]"
        },
        {
          "internalType": "uint256[]",
          "name": "amounts",
          "type": "uint256[]"
        }
      ],
      "name": "batchTransfer",
      "outputs": [],
      "stateMutability": "nonpayable",
      "type": "function"
    },
    {
      "inputs": [],
      "name": "owner",
      "outputs": [
        {
          "internalType": "address",
          "name": "",
          "type": "address"
        }
      ],
      "stateMutability": "view",
      "type": "function"
    },
    {
      "inputs": [],
      "name": "renounceOwnership",
      "outputs": [],
      "stateMutability": "nonpayable",
      "type": "function"
    },
    {
      "inputs": [],
      "name": "token",
      "outputs": [
        {
          "internalType": "contract ERC20",
          "name": "",
          "type": "address"
        }
      ],
      "stateMutability": "view",
      "type": "function"
    },
    {
      "inputs": [],
      "name": "transferOperator",
      "outputs": [
        {
          "internalType": "address",
          "name": "",
          "type": "address"
        }
      ],
      "stateMutability": "view",
      "type": "function"
    },
    {
      "inputs": [
        {
          "internalType": "address",
          "name": "newOwner",
          "type": "address"
        }
      ],
      "name": "transferOwnership",
      "outputs": [],
      "stateMutability": "nonpayable",
      "type": "function"
    },
    {
      "inputs": [
        {
          "internalType": "address",
          "name": "newOperator",
          "type": "address"
        }
      ],
      "name": "updateOperator",
      "outputs": [],
      "stateMutability": "nonpayable",
      "type": "function"
    },
    {
      "inputs": [
        {
          "internalType": "uint256",
          "name": "value",
          "type": "uint256"
        }
      ],
      "name": "withdrawToken",
      "outputs": [],
      "stateMutability": "nonpayable",
      "type": "function"
    }
  ],
  "transactionHash": "0x93328c71d19fb91042b55ebc777eb152036f4b09daee6d0e18ba24ba481fa2aa",
  "args": [
    "0x3BF668Fe1ec79a84cA8481CEAD5dbb30d61cC685"
  ],
  "numDeployments": 1,
  "solcInputHash": "0343131eed077976e2216bdb6340d37b",
  "bytecode": "0x608060405234801561001057600080fd5b50604051610a57380380610a5783398101604081905261002f916100b6565b61003833610066565b600180546001600160a01b039092166001600160a01b031992831617905560028054909116331790556100e4565b600080546001600160a01b038381166001600160a01b0319831681178455604051919092169283917f8be0079c531659141344cd1fd0a4f28419497f9722a3daafe3b4186f6b6457e09190a35050565b6000602082840312156100c7578081fd5b81516001600160a01b03811681146100dd578182fd5b9392505050565b610964806100f36000396000f3fe608060405234801561001057600080fd5b50600436106100885760003560e01c8063ac7475ed1161005b578063ac7475ed146100e6578063d0835895146100f9578063f2fde38b1461010c578063fc0c546a1461011f57610088565b806350baa6221461008d578063715018a6146100a257806388d695b2146100aa5780638da5cb5b146100bd575b600080fd5b6100a061009b366004610852565b610132565b005b6100a061035b565b6100a06100b83660046107c9565b610391565b6000546001600160a01b03165b6040516001600160a01b03909116815260200160405180910390f35b6100a06100f436600461079b565b610587565b6002546100ca906001600160a01b031681565b6100a061011a36600461079b565b610667565b6001546100ca906001600160a01b031681565b6002546001600160a01b031633146101655760405162461bcd60e51b815260040161015c90610882565b60405180910390fd5b6001546040516370a0823160e01b815230600482015282916001600160a01b0316906370a082319060240160206040518083038186803b1580156101a857600080fd5b505afa1580156101bc573d6000803e3d6000fd5b505050506040513d601f19601f820116820180604052508101906101e0919061086a565b101561023d5760405162461bcd60e51b815260206004820152602660248201527f546f6b656e42617463685472616e736665723a206e6f7420656e6f7567682062604482015265616c616e636560d01b606482015260840161015c565b60015460405163a9059cbb60e01b8152336004820152602481018390526001600160a01b039091169063a9059cbb90604401602060405180830381600087803b15801561028957600080fd5b505af115801561029d573d6000803e3d6000fd5b505050506040513d601f19601f820116820180604052508101906102c19190610832565b6103235760405162461bcd60e51b815260206004820152602d60248201527f546f6b656e42617463685472616e736665723a20556e61626c6520746f20747260448201526c616e7366657220746f6b656e7360981b606482015260840161015c565b60405181815233907f992ee874049a42cae0757a765cd7f641b6028cc35c3478bde8330bf417c3a7a99060200160405180910390a250565b6000546001600160a01b031633146103855760405162461bcd60e51b815260040161015c906108d2565b61038f6000610702565b565b6002546001600160a01b031633146103bb5760405162461bcd60e51b815260040161015c90610882565b82811461041b5760405162461bcd60e51b815260206004820152602860248201527f546f6b656e42617463685472616e736665723a20696e76616c696420696e70756044820152677420706172616d7360c01b606482015260840161015c565b60005b83811015610580576001546001600160a01b031663a9059cbb86868481811061045757634e487b7160e01b600052603260045260246000fd5b905060200201602081019061046c919061079b565b85858581811061048c57634e487b7160e01b600052603260045260246000fd5b6040516001600160e01b031960e087901b1681526001600160a01b0390941660048501526020029190910135602483015250604401602060405180830381600087803b1580156104db57600080fd5b505af11580156104ef573d6000803e3d6000fd5b505050506040513d601f19601f820116820180604052508101906105139190610832565b61056e5760405162461bcd60e51b815260206004820152602660248201527f546f6b656e42617463685472616e736665723a20756e61626c6520746f20747260448201526530b739b332b960d11b606482015260840161015c565b8061057881610907565b91505061041e565b5050505050565b6000546001600160a01b031633146105b15760405162461bcd60e51b815260040161015c906108d2565b6001600160a01b0381166106135760405162461bcd60e51b8152602060048201526024808201527f546f6b656e42617463685472616e736665723a20496e76616c6964206f70657260448201526330ba37b960e11b606482015260840161015c565b600280546001600160a01b0319166001600160a01b0383169081179091556040519081527fda12ee837e6978172aaf54b16145ffe08414fd8710092ef033c71b8eb6ec189a9060200160405180910390a150565b6000546001600160a01b031633146106915760405162461bcd60e51b815260040161015c906108d2565b6001600160a01b0381166106f65760405162461bcd60e51b815260206004820152602660248201527f4f776e61626c653a206e6577206f776e657220697320746865207a65726f206160448201526564647265737360d01b606482015260840161015c565b6106ff81610702565b50565b600080546001600160a01b038381166001600160a01b0319831681178455604051919092169283917f8be0079c531659141344cd1fd0a4f28419497f9722a3daafe3b4186f6b6457e09190a35050565b60008083601f840112610763578182fd5b50813567ffffffffffffffff81111561077a578182fd5b602083019150836020808302850101111561079457600080fd5b9250929050565b6000602082840312156107ac578081fd5b81356001600160a01b03811681146107c2578182fd5b9392505050565b600080600080604085870312156107de578283fd5b843567ffffffffffffffff808211156107f5578485fd5b61080188838901610752565b90965094506020870135915080821115610819578384fd5b5061082687828801610752565b95989497509550505050565b600060208284031215610843578081fd5b815180151581146107c2578182fd5b600060208284031215610863578081fd5b5035919050565b60006020828403121561087b578081fd5b5051919050565b60208082526030908201527f546f6b656e42617463685472616e736665723a206f6e6c79206f70657261746f60408201526f391031b0b71031b0b636103a3434b99760811b606082015260800190565b6020808252818101527f4f776e61626c653a2063616c6c6572206973206e6f7420746865206f776e6572604082015260600190565b600060001982141561092757634e487b7160e01b81526011600452602481fd5b506001019056fea2646970667358221220efb5426c563a08f79aa737d85cbe26ad096b5125e31412f35ad1f9481db70daa64736f6c63430008020033",
  "devdoc": {
    "kind": "dev",
    "methods": {
      "owner()": {
        "details": "Returns the address of the current owner."
      },
      "renounceOwnership()": {
        "details": "Leaves the contract without owner. It will not be possible to call `onlyOwner` functions anymore. Can only be called by the current owner. NOTE: Renouncing ownership will leave the contract without an owner, thereby removing any functionality that is only available to the owner."
      },
      "transferOwnership(address)": {
        "details": "Transfers ownership of the contract to a new account (`newOwner`). Can only be called by the current owner."
      }
    },
    "version": 1
  },
  "userdoc": {
    "kind": "user",
    "methods": {},
    "version": 1
  },
  "storageLayout": {
    "storage": [
      {
        "astId": 1595,
        "contract": "contracts/erc20/TokenBatchTransfer.sol:TokenBatchTransfer",
        "label": "_owner",
        "offset": 0,
        "slot": "0",
        "type": "t_address"
      },
      {
        "astId": 11266,
        "contract": "contracts/erc20/TokenBatchTransfer.sol:TokenBatchTransfer",
        "label": "token",
        "offset": 0,
        "slot": "1",
        "type": "t_contract(ERC20)2905"
      },
      {
        "astId": 11268,
        "contract": "contracts/erc20/TokenBatchTransfer.sol:TokenBatchTransfer",
        "label": "transferOperator",
        "offset": 0,
        "slot": "2",
        "type": "t_address"
      }
    ],
    "types": {
      "t_address": {
        "encoding": "inplace",
        "label": "address",
        "numberOfBytes": "20"
      },
      "t_contract(ERC20)2905": {
        "encoding": "inplace",
        "label": "contract ERC20",
        "numberOfBytes": "20"
      }
    }
  }
}