{
  "address": "0x875aB6A78A8fb5D4c46a2b72a8C350512Dd68146",
  "abi": [
    {
      "anonymous": false,
      "inputs": [
        {
          "indexed": false,
          "internalType": "uint8",
          "name": "version",
          "type": "uint8"
        }
      ],
      "name": "Initialized",
      "type": "event"
    },
    {
      "anonymous": false,
      "inputs": [
        {
          "indexed": true,
          "internalType": "address",
          "name": "previousOwner",
          "type": "address"
        },
        {
          "indexed": true,
          "internalType": "address",
          "name": "newOwner",
          "type": "address"
        }
      ],
      "name": "OwnershipTransferred",
      "type": "event"
    },
    {
      "anonymous": false,
      "inputs": [
        {
          "indexed": false,
          "internalType": "address[]",
          "name": "path",
          "type": "address[]"
        },
        {
          "indexed": false,
          "internalType": "uint256[]",
          "name": "amounts",
          "type": "uint256[]"
        },
        {
          "indexed": false,
          "internalType": "address",
          "name": "receiver",
          "type": "address"
        }
      ],
      "name": "Swap",
      "type": "event"
    },
    {
      "inputs": [
        {
          "internalType": "address[]",
          "name": "_path",
          "type": "address[]"
        }
      ],
      "name": "convertedPath",
      "outputs": [
        {
          "internalType": "bytes",
          "name": "packedData",
          "type": "bytes"
        }
      ],
      "stateMutability": "view",
      "type": "function"
    },
    {
      "inputs": [],
      "name": "exchangeRouter",
      "outputs": [
        {
          "internalType": "address",
          "name": "",
          "type": "address"
        }
      ],
      "stateMutability": "view",
      "type": "function"
    },
    {
      "inputs": [
        {
          "internalType": "address",
          "name": "",
          "type": "address"
        },
        {
          "internalType": "address",
          "name": "",
          "type": "address"
        }
      ],
      "name": "feeTier",
      "outputs": [
        {
          "internalType": "uint24",
          "name": "",
          "type": "uint24"
        }
      ],
      "stateMutability": "view",
      "type": "function"
    },
    {
      "inputs": [
        {
          "internalType": "address[]",
          "name": "_path",
          "type": "address[]"
        },
        {
          "internalType": "uint256",
          "name": "_amountIn",
          "type": "uint256"
        }
      ],
      "name": "getExactInput",
      "outputs": [
        {
          "internalType": "bool",
          "name": "",
          "type": "bool"
        },
        {
          "internalType": "uint256",
          "name": "",
          "type": "uint256"
        }
      ],
      "stateMutability": "nonpayable",
      "type": "function"
    },
    {
      "inputs": [
        {
          "internalType": "address[]",
          "name": "_path",
          "type": "address[]"
        },
        {
          "internalType": "uint256",
          "name": "_amountOut",
          "type": "uint256"
        }
      ],
      "name": "getExactOutput",
      "outputs": [
        {
          "internalType": "bool",
          "name": "",
          "type": "bool"
        },
        {
          "internalType": "uint256",
          "name": "",
          "type": "uint256"
        }
      ],
      "stateMutability": "nonpayable",
      "type": "function"
    },
    {
      "inputs": [
        {
          "internalType": "uint256",
          "name": "",
          "type": "uint256"
        },
        {
          "internalType": "address",
          "name": "",
          "type": "address"
        },
        {
          "internalType": "address",
          "name": "",
          "type": "address"
        }
      ],
      "name": "getInputAmount",
      "outputs": [
        {
          "internalType": "bool",
          "name": "",
          "type": "bool"
        },
        {
          "internalType": "uint256",
          "name": "",
          "type": "uint256"
        }
      ],
      "stateMutability": "pure",
      "type": "function"
    },
    {
      "inputs": [
        {
          "internalType": "uint256",
          "name": "",
          "type": "uint256"
        },
        {
          "internalType": "address",
          "name": "",
          "type": "address"
        },
        {
          "internalType": "address",
          "name": "",
          "type": "address"
        }
      ],
      "name": "getOutputAmount",
      "outputs": [
        {
          "internalType": "bool",
          "name": "",
          "type": "bool"
        },
        {
          "internalType": "uint256",
          "name": "",
          "type": "uint256"
        }
      ],
      "stateMutability": "pure",
      "type": "function"
    },
    {
      "inputs": [
        {
          "internalType": "address[]",
          "name": "_path",
          "type": "address[]"
        },
        {
          "internalType": "uint256",
          "name": "_decimal",
          "type": "uint256"
        }
      ],
      "name": "getSwapRate",
      "outputs": [
        {
          "internalType": "uint256",
          "name": "_swapRate",
          "type": "uint256"
        }
      ],
      "stateMutability": "view",
      "type": "function"
    },
    {
      "inputs": [
        {
          "internalType": "string",
          "name": "_name",
          "type": "string"
        },
        {
          "internalType": "address",
          "name": "_exchangeRouter",
          "type": "address"
        },
        {
          "internalType": "address",
          "name": "_quoterAddress",
          "type": "address"
        }
      ],
      "name": "initialize",
      "outputs": [],
      "stateMutability": "nonpayable",
      "type": "function"
    },
    {
      "inputs": [
        {
          "internalType": "address[]",
          "name": "_path",
          "type": "address[]"
        }
      ],
      "name": "isPathValid",
      "outputs": [
        {
          "internalType": "bool",
          "name": "_result",
          "type": "bool"
        }
      ],
      "stateMutability": "view",
      "type": "function"
    },
    {
      "inputs": [],
      "name": "liquidityPoolFactory",
      "outputs": [
        {
          "internalType": "address",
          "name": "",
          "type": "address"
        }
      ],
      "stateMutability": "view",
      "type": "function"
    },
    {
      "inputs": [],
      "name": "name",
      "outputs": [
        {
          "internalType": "string",
          "name": "",
          "type": "string"
        }
      ],
      "stateMutability": "view",
      "type": "function"
    },
    {
      "inputs": [],
      "name": "owner",
      "outputs": [
        {
          "internalType": "address",
          "name": "",
          "type": "address"
        }
      ],
      "stateMutability": "view",
      "type": "function"
    },
    {
      "inputs": [],
      "name": "quoterAddress",
      "outputs": [
        {
          "internalType": "address",
          "name": "",
          "type": "address"
        }
      ],
      "stateMutability": "view",
      "type": "function"
    },
    {
      "inputs": [],
      "name": "renounceOwnership",
      "outputs": [],
      "stateMutability": "nonpayable",
      "type": "function"
    },
    {
      "inputs": [
        {
          "internalType": "address",
          "name": "_exchangeRouter",
          "type": "address"
        }
      ],
      "name": "setExchangeRouter",
      "outputs": [],
      "stateMutability": "nonpayable",
      "type": "function"
    },
    {
      "inputs": [
        {
          "internalType": "address",
          "name": "_firstToken",
          "type": "address"
        },
        {
          "internalType": "address",
          "name": "_secondToken",
          "type": "address"
        },
        {
          "internalType": "uint24",
          "name": "_feeTier",
          "type": "uint24"
        }
      ],
      "name": "setFeeTier",
      "outputs": [],
      "stateMutability": "nonpayable",
      "type": "function"
    },
    {
      "inputs": [],
      "name": "setLiquidityPoolFactory",
      "outputs": [],
      "stateMutability": "nonpayable",
      "type": "function"
    },
    {
      "inputs": [
        {
          "internalType": "address",
          "name": "_quoterAddress",
          "type": "address"
        }
      ],
      "name": "setQuoter",
      "outputs": [],
      "stateMutability": "nonpayable",
      "type": "function"
    },
    {
      "inputs": [],
      "name": "setWrappedNativeToken",
      "outputs": [],
      "stateMutability": "nonpayable",
      "type": "function"
    },
    {
      "inputs": [
        {
          "internalType": "uint256",
          "name": "_inputAmount",
          "type": "uint256"
        },
        {
          "internalType": "uint256",
          "name": "_outputAmount",
          "type": "uint256"
        },
        {
          "internalType": "address[]",
          "name": "_path",
          "type": "address[]"
        },
        {
          "internalType": "address",
          "name": "_to",
          "type": "address"
        },
        {
          "internalType": "uint256",
          "name": "_deadline",
          "type": "uint256"
        },
        {
          "internalType": "bool",
          "name": "_isFixedToken",
          "type": "bool"
        }
      ],
      "name": "swap",
      "outputs": [
        {
          "internalType": "bool",
          "name": "_result",
          "type": "bool"
        },
        {
          "internalType": "uint256[]",
          "name": "_amounts",
          "type": "uint256[]"
        }
      ],
      "stateMutability": "nonpayable",
      "type": "function"
    },
    {
      "inputs": [
        {
          "internalType": "address",
          "name": "newOwner",
          "type": "address"
        }
      ],
      "name": "transferOwnership",
      "outputs": [],
      "stateMutability": "nonpayable",
      "type": "function"
    },
    {
      "inputs": [],
      "name": "wrappedNativeToken",
      "outputs": [
        {
          "internalType": "address",
          "name": "",
          "type": "address"
        }
      ],
      "stateMutability": "view",
      "type": "function"
    }
  ],
  "transactionHash": "0x294d3604d5d001385c3948f3f2b33e72c99086e8c4ef09a3b2d39e5cac2ae565",
  "args": [],
  "numDeployments": 1,
  "solcInputHash": "570438f4278e600a77dd4a25841890ce",
  "bytecode": "0x608060405234801561001057600080fd5b506127b6806100206000396000f3fe608060405234801561001057600080fd5b506004361061011d5760003560e01c806301e65db31461012257806304fe3fcb1461016b57806306fdde031461018057806311a2f0cb146101955780631580b5e5146101c057806317fcb39b146101c85780631cb85818146101db5780633566967d146101ee578063463fd1af1461021857806360efb0a51461022b5780636145f8761461024c578063715018a61461025f578063838b7ccb14610267578063898830741461027a5780638b1937cd146102945780638da5cb5b146102a75780639b4bca24146102af578063b0bbcd88146102d2578063b23e4fc6146102f3578063df71d7f31461027a578063e75d75d5146102fb578063f2fde38b1461030e578063f912c64b14610321575b600080fd5b610152610130366004611e50565b609c60209081526000928352604080842090915290825290205462ffffff1681565b60405162ffffff90911681526020015b60405180910390f35b61017e610179366004611e88565b610334565b005b610188610397565b604051610162919061243f565b609b546101a8906001600160a01b031681565b6040516001600160a01b039091168152602001610162565b61017e610425565b6098546101a8906001600160a01b031681565b6099546101a8906001600160a01b031681565b6102016101fc366004611f13565b6104d5565b604080519215158352602083019190915201610162565b61017e610226366004611f71565b610594565b61023e610239366004611f13565b610816565b604051908152602001610162565b61018861025a366004611ed9565b610d31565b61017e610e6e565b61017e610275366004611e18565b610e78565b6102016102883660046120cd565b60016000935093915050565b6102016102a2366004611f13565b610f57565b6101a8610f8f565b6102c26102bd366004611ed9565b610f9e565b6040519015158152602001610162565b6102e56102e03660046121db565b611195565b604051610162929190612424565b61017e611538565b609a546101a8906001600160a01b031681565b61017e61031c366004611e18565b6115e8565b61017e61032f366004611e18565b611661565b61033c61168b565b6001600160a01b039283166000818152609c60208181526040808420969097168352948552858220805462ffffff90951662ffffff199586168117909155908552858220928252919093529290912080549091169091179055565b609780546103a4906126e1565b80601f01602080910402602001604051908101604052809291908181526020018280546103d0906126e1565b801561041d5780601f106103f25761010080835404028352916020019161041d565b820191906000526020600020905b81548152906001019060200180831161040057829003601f168201915b505050505081565b61042d61168b565b609960009054906101000a90046001600160a01b03166001600160a01b0316634aa4a4fc6040518163ffffffff1660e01b815260040160206040518083038186803b15801561047b57600080fd5b505afa15801561048f573d6000803e3d6000fd5b505050506040513d601f19601f820116820180604052508101906104b39190611e34565b609880546001600160a01b0319166001600160a01b0392909216919091179055565b6000806104e184610f9e565b6104f05750600090508061058d565b609b546000906001600160a01b0316632f80bb1d61050d87610d31565b866040518363ffffffff1660e01b815260040161052b929190612452565b600060405180830381600087803b15801561054557600080fd5b505af1158015610559573d6000803e3d6000fd5b505050506040513d6000823e601f3d908101601f191682016040526105819190810190612103565b50600195509193505050505b9250929050565b600054610100900460ff16158080156105b45750600054600160ff909116105b806105ce5750303b1580156105ce575060005460ff166001145b6106365760405162461bcd60e51b815260206004820152602e60248201527f496e697469616c697a61626c653a20636f6e747261637420697320616c72656160448201526d191e481a5b9a5d1a585b1a5e995960921b60648201526084015b60405180910390fd5b6000805460ff191660011790558015610659576000805461ff0019166101001790555b6106616116ea565b610669611719565b835161067c906097906020870190611c66565b50609980546001600160a01b0319166001600160a01b0385169081179091556040805163c45a015560e01b8152905163c45a015591600480820192602092909190829003018186803b1580156106d157600080fd5b505afa1580156106e5573d6000803e3d6000fd5b505050506040513d601f19601f820116820180604052508101906107099190611e34565b609a80546001600160a01b03199081166001600160a01b0393841617909155609b8054909116848316179055609954604080516312a9293f60e21b815290519190921691634aa4a4fc916004808301926020929190829003018186803b15801561077257600080fd5b505afa158015610786573d6000803e3d6000fd5b505050506040513d601f19601f820116820180604052508101906107aa9190611e34565b609880546001600160a01b0319166001600160a01b03929092169190911790558015610810576000805461ff0019169055604051600181527f7f26b83ff96e1f2b6a682f133852f6798a09c465da95921460cefb38474024989060200160405180910390a15b50505050565b6000808061082584600a6125d5565b925060005b60018651610838919061269e565b811015610b8a57609a5486516001600160a01b0390911690631698ee829088908490811061087657634e487b7160e01b600052603260045260246000fd5b60200260200101518884600161088c919061255a565b815181106108aa57634e487b7160e01b600052603260045260246000fd5b6020026020010151609c60008b87815181106108d657634e487b7160e01b600052603260045260246000fd5b60200260200101516001600160a01b03166001600160a01b0316815260200190815260200160002060008b87600161090e919061255a565b8151811061092c57634e487b7160e01b600052603260045260246000fd5b60200260200101516001600160a01b03166001600160a01b0316815260200190815260200160002060009054906101000a900462ffffff166040518463ffffffff1660e01b81526004016109829392919061238c565b60206040518083038186803b15801561099a57600080fd5b505afa1580156109ae573d6000803e3d6000fd5b505050506040513d601f19601f820116820180604052508101906109d29190611e34565b9250826001600160a01b0316633850c7bd6040518163ffffffff1660e01b815260040160e06040518083038186803b158015610a0d57600080fd5b505afa158015610a21573d6000803e3d6000fd5b505050506040513d601f19601f82011682018060405250810190610a459190612021565b50508a516001600160a01b0390951696508a9486945084109250610a7c91505057634e487b7160e01b600052603260045260246000fd5b60200260200101516001600160a01b0316836001600160a01b0316630dfe16816040518163ffffffff1660e01b815260040160206040518083038186803b158015610ac657600080fd5b505afa158015610ada573d6000803e3d6000fd5b505050506040513d601f19601f82011682018060405250810190610afe9190611e34565b6001600160a01b03161415610b4357600160601b8083610b1e818861267f565b610b28919061267f565b610b329190612572565b610b3c9190612572565b9350610b78565b8180610b5386600160601b61267f565b610b6190600160601b61267f565b610b6b9190612572565b610b759190612572565b93505b80610b8281612716565b91505061082a565b50600085600081518110610bae57634e487b7160e01b600052603260045260246000fd5b60200260200101516001600160a01b031663313ce5676040518163ffffffff1660e01b815260040160206040518083038186803b158015610bee57600080fd5b505afa158015610c02573d6000803e3d6000fd5b505050506040513d601f19601f82011682018060405250810190610c269190612258565b60ff16905060008660018851610c3c919061269e565b81518110610c5a57634e487b7160e01b600052603260045260246000fd5b60200260200101516001600160a01b031663313ce5676040518163ffffffff1660e01b815260040160206040518083038186803b158015610c9a57600080fd5b505afa158015610cae573d6000803e3d6000fd5b505050506040513d601f19601f82011682018060405250810190610cd29190612258565b60ff16905080821115610d0557610ce9818361269e565b610cf490600a6125d5565b610cfe908661267f565b9450610d27565b610d0f828261269e565b610d1a90600a6125d5565b610d249086612572565b94505b5050505092915050565b606081600081518110610d5457634e487b7160e01b600052603260045260246000fd5b6020026020010151604051602001610d7f919060609190911b6001600160601b031916815260140190565b60408051601f19818403018152919052905060015b8251811015610e6857600083610dab60018461269e565b81518110610dc957634e487b7160e01b600052603260045260246000fd5b602002602001015190506000848381518110610df557634e487b7160e01b600052603260045260246000fd5b6020908102919091018101516001600160a01b038085166000908152609c84526040808220928416825291845281902054905191935062ffffff1691610e419187918491869101612345565b60405160208183030381529060405294505050508080610e6090612716565b915050610d94565b50919050565b610e7661168b565b565b806001600160a01b038116610e9f5760405162461bcd60e51b815260040161062d90612474565b610ea761168b565b609980546001600160a01b0319166001600160a01b0384169081179091556040805163c45a015560e01b8152905163c45a015591600480820192602092909190829003018186803b158015610efb57600080fd5b505afa158015610f0f573d6000803e3d6000fd5b505050506040513d601f19601f82011682018060405250810190610f339190611e34565b609a80546001600160a01b0319166001600160a01b03929092169190911790555050565b600080610f6384610f9e565b610f725750600090508061058d565b609b546000906001600160a01b031663cdca175361050d87610d31565b6033546001600160a01b031690565b600080600283511015610fb45750600092915050565b60005b60018451610fc5919061269e565b81101561118b57609a5484516001600160a01b0390911690631698ee829086908490811061100357634e487b7160e01b600052603260045260246000fd5b602002602001015186846001611019919061255a565b8151811061103757634e487b7160e01b600052603260045260246000fd5b6020026020010151609c600089878151811061106357634e487b7160e01b600052603260045260246000fd5b60200260200101516001600160a01b03166001600160a01b0316815260200190815260200160002060008987600161109b919061255a565b815181106110b957634e487b7160e01b600052603260045260246000fd5b60200260200101516001600160a01b03166001600160a01b0316815260200190815260200160002060009054906101000a900462ffffff166040518463ffffffff1660e01b815260040161110f9392919061238c565b60206040518083038186803b15801561112757600080fd5b505afa15801561113b573d6000803e3d6000fd5b505050506040513d601f19601f8201168201806040525081019061115f9190611e34565b91506001600160a01b038216611179575060009392505050565b8061118381612716565b915050610fb7565b5060019392505050565b600060606111a1611748565b846001600160a01b0381166111c85760405162461bcd60e51b815260040161062d90612474565b60006111d78a8a8a89896117a2565b90945090506000841561152057604080516002808252606082018352909160208301908036833701905050935061124c3330848c60008151811061122b57634e487b7160e01b600052603260045260246000fd5b60200260200101516001600160a01b0316611810909392919063ffffffff16565b8860008151811061126d57634e487b7160e01b600052603260045260246000fd5b602090810291909101015160995460405163095ea7b360e01b81526001600160a01b0391821660048201526024810185905291169063095ea7b390604401602060405180830381600087803b1580156112c557600080fd5b505af11580156112d9573d6000803e3d6000fd5b505050506040513d601f19601f820116820180604052508101906112fd9190611f55565b50600186151514156113f4576099546001600160a01b031663c04b8d59611327848d8d8d8d61186a565b6040518263ffffffff1660e01b815260040161134391906124f4565b602060405180830381600087803b15801561135d57600080fd5b505af1158015611371573d6000803e3d6000fd5b505050506040513d601f19601f8201168201806040525081019061139591906120b5565b905081846000815181106113b957634e487b7160e01b600052603260045260246000fd5b60200260200101818152505080846001815181106113e757634e487b7160e01b600052603260045260246000fd5b6020026020010181815250505b856114e4576099546001600160a01b031663f28c0498611417848d8d8d8d6118e7565b6040518263ffffffff1660e01b815260040161143391906124f4565b602060405180830381600087803b15801561144d57600080fd5b505af1158015611461573d6000803e3d6000fd5b505050506040513d601f19601f8201168201806040525081019061148591906120b5565b905080846000815181106114a957634e487b7160e01b600052603260045260246000fd5b60200260200101818152505089846001815181106114d757634e487b7160e01b600052603260045260246000fd5b6020026020010181815250505b7fe1010d0ab476908054981d12fbb96915efcceb8d57a09ae8ca62f4bda731837389858a604051611517939291906123b4565b60405180910390a15b50505061152d6001606555565b965096945050505050565b61154061168b565b609960009054906101000a90046001600160a01b03166001600160a01b031663c45a01556040518163ffffffff1660e01b815260040160206040518083038186803b15801561158e57600080fd5b505afa1580156115a2573d6000803e3d6000fd5b505050506040513d601f19601f820116820180604052508101906115c69190611e34565b609a80546001600160a01b0319166001600160a01b0392909216919091179055565b6115f061168b565b6001600160a01b0381166116555760405162461bcd60e51b815260206004820152602660248201527f4f776e61626c653a206e6577206f776e657220697320746865207a65726f206160448201526564647265737360d01b606482015260840161062d565b61165e8161196c565b50565b61166961168b565b609b80546001600160a01b0319166001600160a01b0392909216919091179055565b33611694610f8f565b6001600160a01b031614610e765760405162461bcd60e51b815260206004820181905260248201527f4f776e61626c653a2063616c6c6572206973206e6f7420746865206f776e6572604482015260640161062d565b600054610100900460ff166117115760405162461bcd60e51b815260040161062d906124a9565b610e766119be565b600054610100900460ff166117405760405162461bcd60e51b815260040161062d906124a9565b610e766119ee565b6002606554141561179b5760405162461bcd60e51b815260206004820152601f60248201527f5265656e7472616e637947756172643a207265656e7472616e742063616c6c00604482015260640161062d565b6002606555565b600080428410156117b857506000905080611806565b6000806117c5878a610f57565b91509150808811156117df57600080935093505050611806565b600185151514156117f557509150869050611806565b6117ff87896104d5565b9350935050505b9550959350505050565b604080516001600160a01b0385811660248301528416604482015260648082018490528251808303909101815260849091019091526020810180516001600160e01b03166323b872dd60e01b179052610810908590611a15565b6118a56040518060a001604052806060815260200160006001600160a01b031681526020016000815260200160008152602001600081525090565b6040518060a001604052806118b986610d31565b81526001600160a01b0390941660208501526040840192909252506060820194909452608001919091525090565b6119226040518060a001604052806060815260200160006001600160a01b031681526020016000815260200160008152602001600081525090565b6040518060a0016040528061193686610d31565b8152602001846001600160a01b0316815260200183815260200186815260200187815250905095945050505050565b6001606555565b603380546001600160a01b038381166001600160a01b0319831681179093556040519116919082907f8be0079c531659141344cd1fd0a4f28419497f9722a3daafe3b4186f6b6457e090600090a35050565b600054610100900460ff166119e55760405162461bcd60e51b815260040161062d906124a9565b610e763361196c565b600054610100900460ff166119655760405162461bcd60e51b815260040161062d906124a9565b6000611a6a826040518060400160405280602081526020017f5361666545524332303a206c6f772d6c6576656c2063616c6c206661696c6564815250856001600160a01b0316611aec9092919063ffffffff16565b805190915015611ae75780806020019051810190611a889190611f55565b611ae75760405162461bcd60e51b815260206004820152602a60248201527f5361666545524332303a204552433230206f7065726174696f6e20646964206e6044820152691bdd081cdd58d8d9595960b21b606482015260840161062d565b505050565b6060611afb8484600085611b05565b90505b9392505050565b606082471015611b665760405162461bcd60e51b815260206004820152602660248201527f416464726573733a20696e73756666696369656e742062616c616e636520666f6044820152651c8818d85b1b60d21b606482015260840161062d565b843b611bb45760405162461bcd60e51b815260206004820152601d60248201527f416464726573733a2063616c6c20746f206e6f6e2d636f6e7472616374000000604482015260640161062d565b600080866001600160a01b03168587604051611bd09190612329565b60006040518083038185875af1925050503d8060008114611c0d576040519150601f19603f3d011682016040523d82523d6000602084013e611c12565b606091505b5091509150611c22828286611c2d565b979650505050505050565b60608315611c3c575081611afe565b825115611c4c5782518084602001fd5b8160405162461bcd60e51b815260040161062d919061243f565b828054611c72906126e1565b90600052602060002090601f016020900481019282611c945760008555611cda565b82601f10611cad57805160ff1916838001178555611cda565b82800160010185558215611cda579182015b82811115611cda578251825591602001919060010190611cbf565b50611ce6929150611cea565b5090565b5b80821115611ce65760008155600101611ceb565b8035611d0a8161275d565b919050565b600082601f830112611d1f578081fd5b81356020611d34611d2f83612537565b612507565b80838252828201915082860187848660051b8901011115611d53578586fd5b855b85811015611d7a578135611d688161275d565b84529284019290840190600101611d55565b5090979650505050505050565b600082601f830112611d97578081fd5b81516020611da7611d2f83612537565b80838252828201915082860187848660051b8901011115611dc6578586fd5b855b85811015611d7a57815163ffffffff81168114611de3578788fd5b84529284019290840190600101611dc8565b805161ffff81168114611d0a57600080fd5b805160ff81168114611d0a57600080fd5b600060208284031215611e29578081fd5b8135611afe8161275d565b600060208284031215611e45578081fd5b8151611afe8161275d565b60008060408385031215611e62578081fd5b8235611e6d8161275d565b91506020830135611e7d8161275d565b809150509250929050565b600080600060608486031215611e9c578081fd5b8335611ea78161275d565b92506020840135611eb78161275d565b9150604084013562ffffff81168114611ece578182fd5b809150509250925092565b600060208284031215611eea578081fd5b81356001600160401b03811115611eff578182fd5b611f0b84828501611d0f565b949350505050565b60008060408385031215611f25578182fd5b82356001600160401b03811115611f3a578283fd5b611f4685828601611d0f565b95602094909401359450505050565b600060208284031215611f66578081fd5b8151611afe81612772565b600080600060608486031215611f85578081fd5b83356001600160401b0380821115611f9b578283fd5b818601915086601f830112611fae578283fd5b8135602082821115611fc257611fc2612747565b611fd4601f8301601f19168201612507565b92508183528881838601011115611fe9578485fd5b818185018285013784818385010152829650612006818901611cff565b95505050505061201860408501611cff565b90509250925092565b600080600080600080600060e0888a03121561203b578485fd5b87516120468161275d565b8097505060208801518060020b811461205d578586fd5b955061206b60408901611df5565b945061207960608901611df5565b935061208760808901611df5565b925061209560a08901611e07565b915060c08801516120a581612772565b8091505092959891949750929550565b6000602082840312156120c6578081fd5b5051919050565b6000806000606084860312156120e1578081fd5b8335925060208401356120f38161275d565b91506040840135611ece8161275d565b60008060008060808587031215612118578182fd5b8451602080870151919550906001600160401b0380821115612138578485fd5b818801915088601f83011261214b578485fd5b8151612159611d2f82612537565b8082825285820191508585018c878560051b8801011115612178578889fd5b8895505b838610156121a357805161218f8161275d565b83526001959095019491860191860161217c565b5060408b015190985094505050808311156121bc578485fd5b50506121ca87828801611d87565b606096909601519497939650505050565b60008060008060008060c087890312156121f3578384fd5b863595506020870135945060408701356001600160401b03811115612216578485fd5b61222289828a01611d0f565b94505060608701356122338161275d565b92506080870135915060a087013561224a81612772565b809150509295509295509295565b600060208284031215612269578081fd5b611afe82611e07565b6000815180845260208085019450808401835b838110156122a157815187529582019590820190600101612285565b509495945050505050565b600081518084526122c48160208601602086016126b5565b601f01601f19169290920160200192915050565b6000815160a084526122ed60a08501826122ac565b6020848101516001600160a01b031690860152604080850151908601526060808501519086015260809384015193909401929092525090919050565b6000825161233b8184602087016126b5565b9190910192915050565b600084516123578184602089016126b5565b60e89490941b6001600160e81b0319169190930190815260609190911b6001600160601b031916600382015260170192915050565b6001600160a01b03938416815291909216602082015262ffffff909116604082015260600190565b606080825284519082018190526000906020906080840190828801845b828110156123f65781516001600160a01b0316845292840192908401906001016123d1565b5050508381038285015261240a8187612272565b9250505060018060a01b0383166040830152949350505050565b8215158152604060208201526000611afb6040830184612272565b602081526000611afe60208301846122ac565b60408152600061246560408301856122ac565b90508260208301529392505050565b6020808252818101527f556e69737761705633436f6e6e6563746f723a207a65726f2061646472657373604082015260600190565b6020808252602b908201527f496e697469616c697a61626c653a20636f6e7472616374206973206e6f74206960408201526a6e697469616c697a696e6760a81b606082015260800190565b602081526000611afe60208301846122d8565b604051601f8201601f191681016001600160401b038111828210171561252f5761252f612747565b604052919050565b60006001600160401b0382111561255057612550612747565b5060051b60200190565b6000821982111561256d5761256d612731565b500190565b60008261258d57634e487b7160e01b81526012600452602481fd5b500490565b600181815b808511156125cd5781600019048211156125b3576125b3612731565b808516156125c057918102915b93841c9390800290612597565b509250929050565b6000611afe83836000826125eb57506001612679565b816125f857506000612679565b816001811461260e576002811461261857612634565b6001915050612679565b60ff84111561262957612629612731565b50506001821b612679565b5060208310610133831016604e8410600b8410161715612657575081810a612679565b6126618383612592565b806000190482111561267557612675612731565b0290505b92915050565b600081600019048311821515161561269957612699612731565b500290565b6000828210156126b0576126b0612731565b500390565b60005b838110156126d05781810151838201526020016126b8565b838111156108105750506000910152565b600181811c908216806126f557607f821691505b60208210811415610e6857634e487b7160e01b600052602260045260246000fd5b600060001982141561272a5761272a612731565b5060010190565b634e487b7160e01b600052601160045260246000fd5b634e487b7160e01b600052604160045260246000fd5b6001600160a01b038116811461165e57600080fd5b801515811461165e57600080fdfea264697066735822122037200cc7745ebe75415decb390a738e3fee221769247d135831ad295897eaaac64736f6c63430008040033",
  "devdoc": {
    "kind": "dev",
    "methods": {
      "getExactInput(address[],uint256)": {
        "details": "Return (false, 0) if DEX cannot swap the input amount"
      },
      "getExactOutput(address[],uint256)": {
        "details": "Return (false, 0) if DEX cannot give the output amount"
      },
      "getSwapRate(address[],uint256)": {
        "details": "Decimal determines the precision of the swap rate"
      },
      "initialize(string,address,address)": {
        "params": {
          "_exchangeRouter": "Address of the DEX router contract",
          "_name": "Name of the underlying DEX"
        }
      },
      "isPathValid(address[])": {
        "params": {
          "_path": "List of tokens that are used for exchanging"
        }
      },
      "owner()": {
        "details": "Returns the address of the current owner."
      },
      "renounceOwnership()": {
        "details": "Leaves the contract without owner. It will not be possible to call `onlyOwner` functions. Can only be called by the current owner. NOTE: Renouncing ownership will leave the contract without an owner, thereby disabling any functionality that is only available to the owner."
      },
      "setExchangeRouter(address)": {
        "details": "Set address of liquidity pool factory from the exchange router",
        "params": {
          "_exchangeRouter": "Address of the new exchange router contract"
        }
      },
      "setFeeTier(address,address,uint24)": {
        "details": "We set the fee tier that is used for exchanging tokens"
      },
      "setLiquidityPoolFactory()": {
        "details": "Set address from exchange router"
      },
      "setWrappedNativeToken()": {
        "details": "Get address from exchange router"
      },
      "swap(uint256,uint256,address[],address,uint256,bool)": {
        "details": "Check exchange conditions before exchanging      We assume that the input token is not WETH (it is teleBTC)",
        "params": {
          "_deadline": "Deadline of exchanging tokens",
          "_inputAmount": "Amount of input token",
          "_isFixedToken": "True if the input token amount is fixed",
          "_outputAmount": "Amount of output token",
          "_path": "List of tokens that are used for exchanging",
          "_to": "Receiver address"
        },
        "returns": {
          "_amounts": "Amounts of tokens that are involved in exchanging",
          "_result": "True if the exchange is successful"
        }
      },
      "transferOwnership(address)": {
        "details": "Transfers ownership of the contract to a new account (`newOwner`). Can only be called by the current owner."
      }
    },
    "version": 1
  },
  "userdoc": {
    "kind": "user",
    "methods": {
      "getExactInput(address[],uint256)": {
        "notice": "Return the output amount for the given input amount"
      },
      "getExactOutput(address[],uint256)": {
        "notice": "Return the needed input amount to get the output amount"
      },
      "getInputAmount(uint256,address,address)": {
        "notice": "Deprecated for v3"
      },
      "getOutputAmount(uint256,address,address)": {
        "notice": "Deprecated for v3"
      },
      "getSwapRate(address[],uint256)": {
        "notice": "Return the swap rate between two tokens"
      },
      "initialize(string,address,address)": {
        "notice": "This contract is used for interacting with UniswapV3 contract"
      },
      "isPathValid(address[])": {
        "notice": "Return true if the exchange path is valid"
      },
      "setExchangeRouter(address)": {
        "notice": "Setter for exchange router"
      },
      "setFeeTier(address,address,uint24)": {
        "notice": "Setter for fee tier"
      },
      "setLiquidityPoolFactory()": {
        "notice": "Setter for liquidity pool factory"
      },
      "setQuoter(address)": {
        "notice": "Setter for quoter"
      },
      "setWrappedNativeToken()": {
        "notice": "Setter for wrapped native token"
      },
      "swap(uint256,uint256,address[],address,uint256,bool)": {
        "notice": "Exchange input token for output token through exchange router"
      }
    },
    "version": 1
  },
  "storageLayout": {
    "storage": [
      {
        "astId": 11640,
        "contract": "contracts/dex_connectors/UniswapV3Connector.sol:UniswapV3Connector",
        "label": "_initialized",
        "offset": 0,
        "slot": "0",
        "type": "t_uint8"
      },
      {
        "astId": 11643,
        "contract": "contracts/dex_connectors/UniswapV3Connector.sol:UniswapV3Connector",
        "label": "_initializing",
        "offset": 1,
        "slot": "0",
        "type": "t_bool"
      },
      {
        "astId": 12267,
        "contract": "contracts/dex_connectors/UniswapV3Connector.sol:UniswapV3Connector",
        "label": "__gap",
        "offset": 0,
        "slot": "1",
        "type": "t_array(t_uint256)50_storage"
      },
      {
        "astId": 11512,
        "contract": "contracts/dex_connectors/UniswapV3Connector.sol:UniswapV3Connector",
        "label": "_owner",
        "offset": 0,
        "slot": "51",
        "type": "t_address"
      },
      {
        "astId": 11632,
        "contract": "contracts/dex_connectors/UniswapV3Connector.sol:UniswapV3Connector",
        "label": "__gap",
        "offset": 0,
        "slot": "52",
        "type": "t_array(t_uint256)49_storage"
      },
      {
        "astId": 11817,
        "contract": "contracts/dex_connectors/UniswapV3Connector.sol:UniswapV3Connector",
        "label": "_status",
        "offset": 0,
        "slot": "101",
        "type": "t_uint256"
      },
      {
        "astId": 11886,
        "contract": "contracts/dex_connectors/UniswapV3Connector.sol:UniswapV3Connector",
        "label": "__gap",
        "offset": 0,
        "slot": "102",
        "type": "t_array(t_uint256)49_storage"
      },
      {
        "astId": 13354,
        "contract": "contracts/dex_connectors/UniswapV3Connector.sol:UniswapV3Connector",
        "label": "name",
        "offset": 0,
        "slot": "151",
        "type": "t_string_storage"
      },
      {
        "astId": 13357,
        "contract": "contracts/dex_connectors/UniswapV3Connector.sol:UniswapV3Connector",
        "label": "wrappedNativeToken",
        "offset": 0,
        "slot": "152",
        "type": "t_address"
      },
      {
        "astId": 13360,
        "contract": "contracts/dex_connectors/UniswapV3Connector.sol:UniswapV3Connector",
        "label": "exchangeRouter",
        "offset": 0,
        "slot": "153",
        "type": "t_address"
      },
      {
        "astId": 13363,
        "contract": "contracts/dex_connectors/UniswapV3Connector.sol:UniswapV3Connector",
        "label": "liquidityPoolFactory",
        "offset": 0,
        "slot": "154",
        "type": "t_address"
      },
      {
        "astId": 13365,
        "contract": "contracts/dex_connectors/UniswapV3Connector.sol:UniswapV3Connector",
        "label": "quoterAddress",
        "offset": 0,
        "slot": "155",
        "type": "t_address"
      },
      {
        "astId": 13371,
        "contract": "contracts/dex_connectors/UniswapV3Connector.sol:UniswapV3Connector",
        "label": "feeTier",
        "offset": 0,
        "slot": "156",
        "type": "t_mapping(t_address,t_mapping(t_address,t_uint24))"
      }
    ],
    "types": {
      "t_address": {
        "encoding": "inplace",
        "label": "address",
        "numberOfBytes": "20"
      },
      "t_array(t_uint256)49_storage": {
        "base": "t_uint256",
        "encoding": "inplace",
        "label": "uint256[49]",
        "numberOfBytes": "1568"
      },
      "t_array(t_uint256)50_storage": {
        "base": "t_uint256",
        "encoding": "inplace",
        "label": "uint256[50]",
        "numberOfBytes": "1600"
      },
      "t_bool": {
        "encoding": "inplace",
        "label": "bool",
        "numberOfBytes": "1"
      },
      "t_mapping(t_address,t_mapping(t_address,t_uint24))": {
        "encoding": "mapping",
        "key": "t_address",
        "label": "mapping(address => mapping(address => uint24))",
        "numberOfBytes": "32",
        "value": "t_mapping(t_address,t_uint24)"
      },
      "t_mapping(t_address,t_uint24)": {
        "encoding": "mapping",
        "key": "t_address",
        "label": "mapping(address => uint24)",
        "numberOfBytes": "32",
        "value": "t_uint24"
      },
      "t_string_storage": {
        "encoding": "bytes",
        "label": "string",
        "numberOfBytes": "32"
      },
      "t_uint24": {
        "encoding": "inplace",
        "label": "uint24",
        "numberOfBytes": "3"
      },
      "t_uint256": {
        "encoding": "inplace",
        "label": "uint256",
        "numberOfBytes": "32"
      },
      "t_uint8": {
        "encoding": "inplace",
        "label": "uint8",
        "numberOfBytes": "1"
      }
    }
  }
}