{
  "address": "0x341867e6eA559C3EB197CCc282FCA61B505e3Ca2",
  "abi": [
    {
      "inputs": [
        {
          "internalType": "string",
          "name": "_name",
          "type": "string"
        },
        {
          "internalType": "address",
          "name": "_exchangeRouter",
          "type": "address"
        },
        {
          "internalType": "address",
          "name": "_quoterAddress",
          "type": "address"
        }
      ],
      "stateMutability": "nonpayable",
      "type": "constructor"
    },
    {
      "anonymous": false,
      "inputs": [
        {
          "indexed": true,
          "internalType": "address",
          "name": "previousOwner",
          "type": "address"
        },
        {
          "indexed": true,
          "internalType": "address",
          "name": "newOwner",
          "type": "address"
        }
      ],
      "name": "OwnershipTransferred",
      "type": "event"
    },
    {
      "anonymous": false,
      "inputs": [
        {
          "indexed": false,
          "internalType": "address[]",
          "name": "path",
          "type": "address[]"
        },
        {
          "indexed": false,
          "internalType": "uint256[]",
          "name": "amounts",
          "type": "uint256[]"
        },
        {
          "indexed": false,
          "internalType": "address",
          "name": "receiver",
          "type": "address"
        }
      ],
      "name": "Swap",
      "type": "event"
    },
    {
      "inputs": [
        {
          "internalType": "address[]",
          "name": "_path",
          "type": "address[]"
        }
      ],
      "name": "convertedPath",
      "outputs": [
        {
          "internalType": "bytes",
          "name": "packedData",
          "type": "bytes"
        }
      ],
      "stateMutability": "nonpayable",
      "type": "function"
    },
    {
      "inputs": [],
      "name": "exchangeRouter",
      "outputs": [
        {
          "internalType": "address",
          "name": "",
          "type": "address"
        }
      ],
      "stateMutability": "view",
      "type": "function"
    },
    {
      "inputs": [
        {
          "internalType": "address",
          "name": "",
          "type": "address"
        },
        {
          "internalType": "address",
          "name": "",
          "type": "address"
        }
      ],
      "name": "feeTier",
      "outputs": [
        {
          "internalType": "uint24",
          "name": "",
          "type": "uint24"
        }
      ],
      "stateMutability": "view",
      "type": "function"
    },
    {
      "inputs": [
        {
          "internalType": "address[]",
          "name": "_path",
          "type": "address[]"
        },
        {
          "internalType": "uint256",
          "name": "amountIn",
          "type": "uint256"
        }
      ],
      "name": "getExactInput",
      "outputs": [
        {
          "internalType": "bool",
          "name": "",
          "type": "bool"
        },
        {
          "internalType": "uint256",
          "name": "",
          "type": "uint256"
        }
      ],
      "stateMutability": "nonpayable",
      "type": "function"
    },
    {
      "inputs": [
        {
          "internalType": "address[]",
          "name": "_path",
          "type": "address[]"
        },
        {
          "internalType": "uint256",
          "name": "amountOut",
          "type": "uint256"
        }
      ],
      "name": "getExactOutput",
      "outputs": [
        {
          "internalType": "bool",
          "name": "",
          "type": "bool"
        },
        {
          "internalType": "uint256",
          "name": "",
          "type": "uint256"
        }
      ],
      "stateMutability": "nonpayable",
      "type": "function"
    },
    {
      "inputs": [
        {
          "internalType": "uint256",
          "name": "",
          "type": "uint256"
        },
        {
          "internalType": "address",
          "name": "",
          "type": "address"
        },
        {
          "internalType": "address",
          "name": "",
          "type": "address"
        }
      ],
      "name": "getInputAmount",
      "outputs": [
        {
          "internalType": "bool",
          "name": "",
          "type": "bool"
        },
        {
          "internalType": "uint256",
          "name": "",
          "type": "uint256"
        }
      ],
      "stateMutability": "view",
      "type": "function"
    },
    {
      "inputs": [
        {
          "internalType": "uint256",
          "name": "",
          "type": "uint256"
        },
        {
          "internalType": "address",
          "name": "",
          "type": "address"
        },
        {
          "internalType": "address",
          "name": "",
          "type": "address"
        }
      ],
      "name": "getOutputAmount",
      "outputs": [
        {
          "internalType": "bool",
          "name": "",
          "type": "bool"
        },
        {
          "internalType": "uint256",
          "name": "",
          "type": "uint256"
        }
      ],
      "stateMutability": "view",
      "type": "function"
    },
    {
      "inputs": [
        {
          "internalType": "address[]",
          "name": "_path",
          "type": "address[]"
        }
      ],
      "name": "isPathValid",
      "outputs": [
        {
          "internalType": "bool",
          "name": "_result",
          "type": "bool"
        }
      ],
      "stateMutability": "view",
      "type": "function"
    },
    {
      "inputs": [],
      "name": "liquidityPoolFactory",
      "outputs": [
        {
          "internalType": "address",
          "name": "",
          "type": "address"
        }
      ],
      "stateMutability": "view",
      "type": "function"
    },
    {
      "inputs": [],
      "name": "name",
      "outputs": [
        {
          "internalType": "string",
          "name": "",
          "type": "string"
        }
      ],
      "stateMutability": "view",
      "type": "function"
    },
    {
      "inputs": [],
      "name": "owner",
      "outputs": [
        {
          "internalType": "address",
          "name": "",
          "type": "address"
        }
      ],
      "stateMutability": "view",
      "type": "function"
    },
    {
      "inputs": [],
      "name": "quoterAddress",
      "outputs": [
        {
          "internalType": "address",
          "name": "",
          "type": "address"
        }
      ],
      "stateMutability": "view",
      "type": "function"
    },
    {
      "inputs": [],
      "name": "renounceOwnership",
      "outputs": [],
      "stateMutability": "nonpayable",
      "type": "function"
    },
    {
      "inputs": [
        {
          "internalType": "address",
          "name": "_exchangeRouter",
          "type": "address"
        }
      ],
      "name": "setExchangeRouter",
      "outputs": [],
      "stateMutability": "nonpayable",
      "type": "function"
    },
    {
      "inputs": [
        {
          "internalType": "address",
          "name": "_firstToken",
          "type": "address"
        },
        {
          "internalType": "address",
          "name": "_secondToken",
          "type": "address"
        },
        {
          "internalType": "uint24",
          "name": "_feeTier",
          "type": "uint24"
        }
      ],
      "name": "setFeeTier",
      "outputs": [],
      "stateMutability": "nonpayable",
      "type": "function"
    },
    {
      "inputs": [],
      "name": "setLiquidityPoolFactory",
      "outputs": [],
      "stateMutability": "nonpayable",
      "type": "function"
    },
    {
      "inputs": [
        {
          "internalType": "address",
          "name": "_quoterAddress",
          "type": "address"
        }
      ],
      "name": "setQuoter",
      "outputs": [],
      "stateMutability": "nonpayable",
      "type": "function"
    },
    {
      "inputs": [],
      "name": "setWrappedNativeToken",
      "outputs": [],
      "stateMutability": "nonpayable",
      "type": "function"
    },
    {
      "inputs": [
        {
          "internalType": "uint256",
          "name": "_inputAmount",
          "type": "uint256"
        },
        {
          "internalType": "uint256",
          "name": "_outputAmount",
          "type": "uint256"
        },
        {
          "internalType": "address[]",
          "name": "_path",
          "type": "address[]"
        },
        {
          "internalType": "address",
          "name": "_to",
          "type": "address"
        },
        {
          "internalType": "uint256",
          "name": "_deadline",
          "type": "uint256"
        },
        {
          "internalType": "bool",
          "name": "_isFixedToken",
          "type": "bool"
        }
      ],
      "name": "swap",
      "outputs": [
        {
          "internalType": "bool",
          "name": "_result",
          "type": "bool"
        },
        {
          "internalType": "uint256[]",
          "name": "_amounts",
          "type": "uint256[]"
        }
      ],
      "stateMutability": "nonpayable",
      "type": "function"
    },
    {
      "inputs": [
        {
          "internalType": "address",
          "name": "newOwner",
          "type": "address"
        }
      ],
      "name": "transferOwnership",
      "outputs": [],
      "stateMutability": "nonpayable",
      "type": "function"
    },
    {
      "inputs": [],
      "name": "wrappedNativeToken",
      "outputs": [
        {
          "internalType": "address",
          "name": "",
          "type": "address"
        }
      ],
      "stateMutability": "view",
      "type": "function"
    }
  ],
  "transactionHash": "0x416276039a406798c19e57ca58e54f630cdde9261a16fbcf03a191515ea6e596",
  "args": [
    "UniswapV3",
    "0xE592427A0AEce92De3Edee1F18E0157C05861564",
    "0x61fFE014bA17989E743c5F6cB21bF9697530B21e"
  ],
  "numDeployments": 1,
  "solcInputHash": "22e636e954a64fabafe1abbc3d178fa7",
  "bytecode": "0x60806040523480156200001157600080fd5b5060405162002061380380620020618339810160408190526200003491620002ec565b6200003f33620001b5565b6001805582516200005890600290602086019062000205565b50600480546001600160a01b0319166001600160a01b03841690811782556040805163c45a015560e01b81529051919263c45a0155928282019260209290829003018186803b158015620000ab57600080fd5b505afa158015620000c0573d6000803e3d6000fd5b505050506040513d601f19601f82011682018060405250810190620000e69190620002c8565b600580546001600160a01b03199081166001600160a01b03938416179091556006805490911683831617905560048054604080516312a9293f60e21b815290519190931692634aa4a4fc9281810192602092909190829003018186803b1580156200015057600080fd5b505afa15801562000165573d6000803e3d6000fd5b505050506040513d601f19601f820116820180604052508101906200018b9190620002c8565b600380546001600160a01b0319166001600160a01b0392909216919091179055506200043c915050565b600080546001600160a01b038381166001600160a01b0319831681178455604051919092169283917f8be0079c531659141344cd1fd0a4f28419497f9722a3daafe3b4186f6b6457e09190a35050565b8280546200021390620003e9565b90600052602060002090601f01602090048101928262000237576000855562000282565b82601f106200025257805160ff191683800117855562000282565b8280016001018555821562000282579182015b828111156200028257825182559160200191906001019062000265565b506200029092915062000294565b5090565b5b8082111562000290576000815560010162000295565b80516001600160a01b0381168114620002c357600080fd5b919050565b600060208284031215620002da578081fd5b620002e582620002ab565b9392505050565b60008060006060848603121562000301578182fd5b83516001600160401b038082111562000318578384fd5b818601915086601f8301126200032c578384fd5b81518181111562000341576200034162000426565b604051601f8201601f19908116603f011681019083821181831017156200036c576200036c62000426565b8160405282815260209350898484870101111562000388578687fd5b8691505b82821015620003ab57848201840151818301850152908301906200038c565b82821115620003bc57868484830101525b9650620003ce915050868201620002ab565b93505050620003e060408501620002ab565b90509250925092565b600181811c90821680620003fe57607f821691505b602082108114156200042057634e487b7160e01b600052602260045260246000fd5b50919050565b634e487b7160e01b600052604160045260246000fd5b611c15806200044c6000396000f3fe608060405234801561001057600080fd5b50600436106101075760003560e01c806301e65db31461010c57806304fe3fcb1461015557806306fdde031461016a57806311a2f0cb1461017f5780631580b5e5146101aa57806317fcb39b146101b25780631cb85818146101c55780633566967d146101d85780636145f87614610202578063715018a614610215578063838b7ccb1461021d57806389883074146102305780638b1937cd1461024a5780638da5cb5b1461025d5780639b4bca2414610265578063b0bbcd8814610288578063b23e4fc6146102a9578063df71d7f314610230578063e75d75d5146102b1578063f2fde38b146102c4578063f912c64b146102d7575b600080fd5b61013c61011a36600461158a565b600760209081526000928352604080842090915290825290205462ffffff1681565b60405162ffffff90911681526020015b60405180910390f35b6101686101633660046115c2565b6102ea565b005b61017261037d565b60405161014c91906119e0565b600654610192906001600160a01b031681565b6040516001600160a01b03909116815260200161014c565b61016861040b565b600354610192906001600160a01b031681565b600454610192906001600160a01b031681565b6101eb6101e636600461164d565b6104d6565b60408051921515835260208301919091520161014c565b610172610210366004611613565b610595565b610168610701565b61016861022b366004611552565b610732565b6101eb61023e3660046116c3565b60016000935093915050565b6101eb61025836600461164d565b610835565b61019261086d565b610278610273366004611613565b61087c565b604051901515815260200161014c565b61029b6102963660046117d1565b610a75565b60405161014c9291906119c5565b610168610e48565b600554610192906001600160a01b031681565b6101686102d2366004611552565b610f13565b6101686102e5366004611552565b610fb3565b336102f361086d565b6001600160a01b0316146103225760405162461bcd60e51b815260040161031990611a4a565b60405180910390fd5b6001600160a01b039283166000818152600760208181526040808420969097168352948552858220805462ffffff90951662ffffff199586168117909155908552858220928252919093529290912080549091169091179055565b6002805461038a90611b40565b80601f01602080910402602001604051908101604052809291908181526020018280546103b690611b40565b80156104035780601f106103d857610100808354040283529160200191610403565b820191906000526020600020905b8154815290600101906020018083116103e657829003601f168201915b505050505081565b3361041461086d565b6001600160a01b03161461043a5760405162461bcd60e51b815260040161031990611a4a565b60048054604080516312a9293f60e21b815290516001600160a01b0390921692634aa4a4fc928282019260209290829003018186803b15801561047c57600080fd5b505afa158015610490573d6000803e3d6000fd5b505050506040513d601f19601f820116820180604052508101906104b4919061156e565b600380546001600160a01b0319166001600160a01b0392909216919091179055565b6000806104e28461087c565b6104f15750600090508061058e565b6006546000906001600160a01b0316632f80bb1d61050e87610595565b866040518363ffffffff1660e01b815260040161052c9291906119f3565b600060405180830381600087803b15801561054657600080fd5b505af115801561055a573d6000803e3d6000fd5b505050506040513d6000823e601f3d908101601f1916820160405261058291908101906116f9565b50600195509193505050505b9250929050565b6060336105a061086d565b6001600160a01b0316146105c65760405162461bcd60e51b815260040161031990611a4a565b816000815181106105e757634e487b7160e01b600052603260045260246000fd5b6020026020010151604051602001610612919060609190911b6001600160601b031916815260140190565b60408051601f19818403018152919052905060015b82518110156106fb5760008361063e600184611afd565b8151811061065c57634e487b7160e01b600052603260045260246000fd5b60200260200101519050600084838151811061068857634e487b7160e01b600052603260045260246000fd5b6020908102919091018101516001600160a01b038085166000908152600784526040808220928416825291845281902054905191935062ffffff16916106d49187918491869101611921565b604051602081830303815290604052945050505080806106f390611b75565b915050610627565b50919050565b3361070a61086d565b6001600160a01b0316146107305760405162461bcd60e51b815260040161031990611a4a565b565b806001600160a01b0381166107595760405162461bcd60e51b815260040161031990611a15565b3361076261086d565b6001600160a01b0316146107885760405162461bcd60e51b815260040161031990611a4a565b600480546001600160a01b0319166001600160a01b03841690811782556040805163c45a015560e01b81529051919263c45a0155928282019260209290829003018186803b1580156107d957600080fd5b505afa1580156107ed573d6000803e3d6000fd5b505050506040513d601f19601f82011682018060405250810190610811919061156e565b600580546001600160a01b0319166001600160a01b03929092169190911790555050565b6000806108418461087c565b6108505750600090508061058e565b6006546000906001600160a01b031663cdca175361050e87610595565b6000546001600160a01b031690565b6000806002835110156108925750600092915050565b60005b600184516108a39190611afd565b811015610a6b5760055484516001600160a01b0390911690631698ee82908690849081106108e157634e487b7160e01b600052603260045260246000fd5b6020026020010151868460016108f79190611ae5565b8151811061091557634e487b7160e01b600052603260045260246000fd5b60200260200101516007600089878151811061094157634e487b7160e01b600052603260045260246000fd5b60200260200101516001600160a01b03166001600160a01b031681526020019081526020016000206000898760016109799190611ae5565b8151811061099757634e487b7160e01b600052603260045260246000fd5b6020908102919091018101516001600160a01b0390811683529082019290925260409081016000205490516001600160e01b031960e087901b16815293821660048501529116602483015262ffffff16604482015260640160206040518083038186803b158015610a0757600080fd5b505afa158015610a1b573d6000803e3d6000fd5b505050506040513d601f19601f82011682018060405250810190610a3f919061156e565b91506001600160a01b038216610a59575060009392505050565b80610a6381611b75565b915050610895565b5060019392505050565b6000606060026001541415610acc5760405162461bcd60e51b815260206004820152601f60248201527f5265656e7472616e637947756172643a207265656e7472616e742063616c6c006044820152606401610319565b6002600155846001600160a01b038116610af85760405162461bcd60e51b815260040161031990611a15565b6000610b078a8a8a8989611004565b909450905060008415610e3457610b5c3330848c600081518110610b3b57634e487b7160e01b600052603260045260246000fd5b60200260200101516001600160a01b0316611070909392919063ffffffff16565b88600081518110610b7d57634e487b7160e01b600052603260045260246000fd5b60209081029190910101516004805460405163095ea7b360e01b81526001600160a01b0391821692810192909252602482018590529091169063095ea7b390604401602060405180830381600087803b158015610bd957600080fd5b505af1158015610bed573d6000803e3d6000fd5b505050506040513d601f19601f82011682018060405250810190610c11919061168f565b5060018615151415610d08576004546001600160a01b031663c04b8d59610c3b848d8d8d8d6110d0565b6040518263ffffffff1660e01b8152600401610c579190611a7f565b602060405180830381600087803b158015610c7157600080fd5b505af1158015610c85573d6000803e3d6000fd5b505050506040513d601f19601f82011682018060405250810190610ca991906116ab565b90508184600081518110610ccd57634e487b7160e01b600052603260045260246000fd5b6020026020010181815250508084600181518110610cfb57634e487b7160e01b600052603260045260246000fd5b6020026020010181815250505b85610df8576004546001600160a01b031663f28c0498610d2b848d8d8d8d61114d565b6040518263ffffffff1660e01b8152600401610d479190611a7f565b602060405180830381600087803b158015610d6157600080fd5b505af1158015610d75573d6000803e3d6000fd5b505050506040513d601f19601f82011682018060405250810190610d9991906116ab565b90508084600081518110610dbd57634e487b7160e01b600052603260045260246000fd5b6020026020010181815250508984600181518110610deb57634e487b7160e01b600052603260045260246000fd5b6020026020010181815250505b7fe1010d0ab476908054981d12fbb96915efcceb8d57a09ae8ca62f4bda731837389858a604051610e2b93929190611955565b60405180910390a15b505060018055509097909650945050505050565b33610e5161086d565b6001600160a01b031614610e775760405162461bcd60e51b815260040161031990611a4a565b600480546040805163c45a015560e01b815290516001600160a01b039092169263c45a0155928282019260209290829003018186803b158015610eb957600080fd5b505afa158015610ecd573d6000803e3d6000fd5b505050506040513d601f19601f82011682018060405250810190610ef1919061156e565b600580546001600160a01b0319166001600160a01b0392909216919091179055565b33610f1c61086d565b6001600160a01b031614610f425760405162461bcd60e51b815260040161031990611a4a565b6001600160a01b038116610fa75760405162461bcd60e51b815260206004820152602660248201527f4f776e61626c653a206e6577206f776e657220697320746865207a65726f206160448201526564647265737360d01b6064820152608401610319565b610fb0816111cb565b50565b33610fbc61086d565b6001600160a01b031614610fe25760405162461bcd60e51b815260040161031990611a4a565b600680546001600160a01b0319166001600160a01b0392909216919091179055565b6000804284101561101a57506000905080611066565b60006110268689610835565b9150508087111561103e576000809250925050611066565b60018415151415611056576001889250925050611066565b61106086886104d6565b92509250505b9550959350505050565b604080516001600160a01b0385811660248301528416604482015260648082018490528251808303909101815260849091019091526020810180516001600160e01b03166323b872dd60e01b1790526110ca90859061121b565b50505050565b61110b6040518060a001604052806060815260200160006001600160a01b031681526020016000815260200160008152602001600081525090565b6040518060a0016040528061111f86610595565b81526001600160a01b0390941660208501526040840192909252506060820194909452608001919091525090565b6111886040518060a001604052806060815260200160006001600160a01b031681526020016000815260200160008152602001600081525090565b6040518060a0016040528061119c86610595565b8152602001846001600160a01b0316815260200183815260200186815260200187815250905095945050505050565b600080546001600160a01b038381166001600160a01b0319831681178455604051919092169283917f8be0079c531659141344cd1fd0a4f28419497f9722a3daafe3b4186f6b6457e09190a35050565b6000611270826040518060400160405280602081526020017f5361666545524332303a206c6f772d6c6576656c2063616c6c206661696c6564815250856001600160a01b03166112f29092919063ffffffff16565b8051909150156112ed578080602001905181019061128e919061168f565b6112ed5760405162461bcd60e51b815260206004820152602a60248201527f5361666545524332303a204552433230206f7065726174696f6e20646964206e6044820152691bdd081cdd58d8d9595960b21b6064820152608401610319565b505050565b6060611301848460008561130b565b90505b9392505050565b60608247101561136c5760405162461bcd60e51b815260206004820152602660248201527f416464726573733a20696e73756666696369656e742062616c616e636520666f6044820152651c8818d85b1b60d21b6064820152608401610319565b843b6113ba5760405162461bcd60e51b815260206004820152601d60248201527f416464726573733a2063616c6c20746f206e6f6e2d636f6e74726163740000006044820152606401610319565b600080866001600160a01b031685876040516113d69190611905565b60006040518083038185875af1925050503d8060008114611413576040519150601f19603f3d011682016040523d82523d6000602084013e611418565b606091505b5091509150611428828286611433565b979650505050505050565b60608315611442575081611304565b8251156114525782518084602001fd5b8160405162461bcd60e51b815260040161031991906119e0565b600082601f83011261147c578081fd5b8135602061149161148c83611ac2565b611a92565b80838252828201915082860187848660051b89010111156114b0578586fd5b855b858110156114d75781356114c581611bbc565b845292840192908401906001016114b2565b5090979650505050505050565b600082601f8301126114f4578081fd5b8151602061150461148c83611ac2565b80838252828201915082860187848660051b8901011115611523578586fd5b855b858110156114d757815163ffffffff81168114611540578788fd5b84529284019290840190600101611525565b600060208284031215611563578081fd5b813561130481611bbc565b60006020828403121561157f578081fd5b815161130481611bbc565b6000806040838503121561159c578081fd5b82356115a781611bbc565b915060208301356115b781611bbc565b809150509250929050565b6000806000606084860312156115d6578081fd5b83356115e181611bbc565b925060208401356115f181611bbc565b9150604084013562ffffff81168114611608578182fd5b809150509250925092565b600060208284031215611624578081fd5b81356001600160401b03811115611639578182fd5b6116458482850161146c565b949350505050565b6000806040838503121561165f578182fd5b82356001600160401b03811115611674578283fd5b6116808582860161146c565b95602094909401359450505050565b6000602082840312156116a0578081fd5b815161130481611bd1565b6000602082840312156116bc578081fd5b5051919050565b6000806000606084860312156116d7578283fd5b8335925060208401356116e981611bbc565b9150604084013561160881611bbc565b6000806000806080858703121561170e578182fd5b8451602080870151919550906001600160401b038082111561172e578485fd5b818801915088601f830112611741578485fd5b815161174f61148c82611ac2565b8082825285820191508585018c878560051b880101111561176e578889fd5b8895505b8386101561179957805161178581611bbc565b835260019590950194918601918601611772565b5060408b015190985094505050808311156117b2578485fd5b50506117c0878288016114e4565b606096909601519497939650505050565b60008060008060008060c087890312156117e9578384fd5b863595506020870135945060408701356001600160401b0381111561180c578485fd5b61181889828a0161146c565b945050606087013561182981611bbc565b92506080870135915060a087013561184081611bd1565b809150509295509295509295565b6000815180845260208085019450808401835b8381101561187d57815187529582019590820190600101611861565b509495945050505050565b600081518084526118a0816020860160208601611b14565b601f01601f19169290920160200192915050565b6000815160a084526118c960a0850182611888565b6020848101516001600160a01b031690860152604080850151908601526060808501519086015260809384015193909401929092525090919050565b60008251611917818460208701611b14565b9190910192915050565b60008451611933818460208901611b14565b919091019283525060601b6001600160601b0319166020820152603401919050565b606080825284519082018190526000906020906080840190828801845b828110156119975781516001600160a01b031684529284019290840190600101611972565b505050838103828501526119ab818761184e565b9250505060018060a01b0383166040830152949350505050565b8215158152604060208201526000611301604083018461184e565b6020815260006113046020830184611888565b604081526000611a066040830185611888565b90508260208301529392505050565b6020808252818101527f556e69737761705633436f6e6e6563746f723a207a65726f2061646472657373604082015260600190565b6020808252818101527f4f776e61626c653a2063616c6c6572206973206e6f7420746865206f776e6572604082015260600190565b60208152600061130460208301846118b4565b604051601f8201601f191681016001600160401b0381118282101715611aba57611aba611ba6565b604052919050565b60006001600160401b03821115611adb57611adb611ba6565b5060051b60200190565b60008219821115611af857611af8611b90565b500190565b600082821015611b0f57611b0f611b90565b500390565b60005b83811015611b2f578181015183820152602001611b17565b838111156110ca5750506000910152565b600181811c90821680611b5457607f821691505b602082108114156106fb57634e487b7160e01b600052602260045260246000fd5b6000600019821415611b8957611b89611b90565b5060010190565b634e487b7160e01b600052601160045260246000fd5b634e487b7160e01b600052604160045260246000fd5b6001600160a01b0381168114610fb057600080fd5b8015158114610fb057600080fdfea264697066735822122034ce8aae20e40cd3153640048759fb555819d5669c521d3de37bcb2fdbb9c35964736f6c63430008040033",
  "devdoc": {
    "kind": "dev",
    "methods": {
      "constructor": {
        "params": {
          "_exchangeRouter": "Address of the DEX router contract",
          "_name": "Name of the underlying DEX"
        }
      },
      "getExactInput(address[],uint256)": {
        "details": "Return (false, 0) if DEX cannot swap the input amount"
      },
      "getExactOutput(address[],uint256)": {
        "details": "Return (false, 0) if DEX cannot give the output amount"
      },
      "isPathValid(address[])": {
        "params": {
          "_path": "List of tokens that are used for exchanging"
        }
      },
      "owner()": {
        "details": "Returns the address of the current owner."
      },
      "renounceOwnership()": {
        "details": "Leaves the contract without owner. It will not be possible to call `onlyOwner` functions anymore. Can only be called by the current owner. NOTE: Renouncing ownership will leave the contract without an owner, thereby removing any functionality that is only available to the owner."
      },
      "setExchangeRouter(address)": {
        "details": "Set address of liquidity pool factory from the exchange router",
        "params": {
          "_exchangeRouter": "Address of the new exchange router contract"
        }
      },
      "setFeeTier(address,address,uint24)": {
        "details": "We set the fee tier that is used for exchanging tokens"
      },
      "setLiquidityPoolFactory()": {
        "details": "Set address from exchange router"
      },
      "setWrappedNativeToken()": {
        "details": "Get address from exchange router"
      },
      "swap(uint256,uint256,address[],address,uint256,bool)": {
        "details": "Check exchange conditions before exchanging      We assume that the input token is not WETH (it is teleBTC)",
        "params": {
          "_deadline": "Deadline of exchanging tokens",
          "_inputAmount": "Amount of input token",
          "_isFixedToken": "True if the input token amount is fixed",
          "_outputAmount": "Amount of output token",
          "_path": "List of tokens that are used for exchanging",
          "_to": "Receiver address"
        },
        "returns": {
          "_amounts": "Amounts of tokens that are involved in exchanging",
          "_result": "True if the exchange is successful"
        }
      },
      "transferOwnership(address)": {
        "details": "Transfers ownership of the contract to a new account (`newOwner`). Can only be called by the current owner."
      }
    },
    "version": 1
  },
  "userdoc": {
    "kind": "user",
    "methods": {
      "constructor": {
        "notice": "This contract is used for interacting with UniswapV3 contract"
      },
      "getExactInput(address[],uint256)": {
        "notice": "Return the output amount for the given input amount"
      },
      "getExactOutput(address[],uint256)": {
        "notice": "Return the needed input amount to get the output amount"
      },
      "getInputAmount(uint256,address,address)": {
        "notice": "Deprecated for v3"
      },
      "getOutputAmount(uint256,address,address)": {
        "notice": "Deprecated for v3"
      },
      "isPathValid(address[])": {
        "notice": "Return true if the exchange path is valid"
      },
      "setExchangeRouter(address)": {
        "notice": "Setter for exchange router"
      },
      "setFeeTier(address,address,uint24)": {
        "notice": "Setter for fee tier"
      },
      "setLiquidityPoolFactory()": {
        "notice": "Setter for liquidity pool factory"
      },
      "setQuoter(address)": {
        "notice": "Setter for quoter"
      },
      "setWrappedNativeToken()": {
        "notice": "Setter for wrapped native token"
      },
      "swap(uint256,uint256,address[],address,uint256,bool)": {
        "notice": "Exchange input token for output token through exchange router"
      }
    },
    "version": 1
  },
  "storageLayout": {
    "storage": [
      {
        "astId": 1806,
        "contract": "contracts/swap_connectors/UniswapV3Connector.sol:UniswapV3Connector",
        "label": "_owner",
        "offset": 0,
        "slot": "0",
        "type": "t_address"
      },
      {
        "astId": 2633,
        "contract": "contracts/swap_connectors/UniswapV3Connector.sol:UniswapV3Connector",
        "label": "_status",
        "offset": 0,
        "slot": "1",
        "type": "t_uint256"
      },
      {
        "astId": 26120,
        "contract": "contracts/swap_connectors/UniswapV3Connector.sol:UniswapV3Connector",
        "label": "name",
        "offset": 0,
        "slot": "2",
        "type": "t_string_storage"
      },
      {
        "astId": 26123,
        "contract": "contracts/swap_connectors/UniswapV3Connector.sol:UniswapV3Connector",
        "label": "wrappedNativeToken",
        "offset": 0,
        "slot": "3",
        "type": "t_address"
      },
      {
        "astId": 26126,
        "contract": "contracts/swap_connectors/UniswapV3Connector.sol:UniswapV3Connector",
        "label": "exchangeRouter",
        "offset": 0,
        "slot": "4",
        "type": "t_address"
      },
      {
        "astId": 26129,
        "contract": "contracts/swap_connectors/UniswapV3Connector.sol:UniswapV3Connector",
        "label": "liquidityPoolFactory",
        "offset": 0,
        "slot": "5",
        "type": "t_address"
      },
      {
        "astId": 26131,
        "contract": "contracts/swap_connectors/UniswapV3Connector.sol:UniswapV3Connector",
        "label": "quoterAddress",
        "offset": 0,
        "slot": "6",
        "type": "t_address"
      },
      {
        "astId": 26137,
        "contract": "contracts/swap_connectors/UniswapV3Connector.sol:UniswapV3Connector",
        "label": "feeTier",
        "offset": 0,
        "slot": "7",
        "type": "t_mapping(t_address,t_mapping(t_address,t_uint24))"
      }
    ],
    "types": {
      "t_address": {
        "encoding": "inplace",
        "label": "address",
        "numberOfBytes": "20"
      },
      "t_mapping(t_address,t_mapping(t_address,t_uint24))": {
        "encoding": "mapping",
        "key": "t_address",
        "label": "mapping(address => mapping(address => uint24))",
        "numberOfBytes": "32",
        "value": "t_mapping(t_address,t_uint24)"
      },
      "t_mapping(t_address,t_uint24)": {
        "encoding": "mapping",
        "key": "t_address",
        "label": "mapping(address => uint24)",
        "numberOfBytes": "32",
        "value": "t_uint24"
      },
      "t_string_storage": {
        "encoding": "bytes",
        "label": "string",
        "numberOfBytes": "32"
      },
      "t_uint24": {
        "encoding": "inplace",
        "label": "uint24",
        "numberOfBytes": "3"
      },
      "t_uint256": {
        "encoding": "inplace",
        "label": "uint256",
        "numberOfBytes": "32"
      }
    }
  }
}