{
  "address": "0xb3058132DC59052E6cAce6eF70Eb7bC1cfc8da8e",
  "abi": [
    {
      "inputs": [
        {
          "internalType": "string",
          "name": "_name",
          "type": "string"
        },
        {
          "internalType": "string",
          "name": "_symbol",
          "type": "string"
        }
      ],
      "stateMutability": "nonpayable",
      "type": "constructor"
    },
    {
      "anonymous": false,
      "inputs": [
        {
          "indexed": true,
          "internalType": "address",
          "name": "owner",
          "type": "address"
        },
        {
          "indexed": true,
          "internalType": "address",
          "name": "spender",
          "type": "address"
        },
        {
          "indexed": false,
          "internalType": "uint256",
          "name": "value",
          "type": "uint256"
        }
      ],
      "name": "Approval",
      "type": "event"
    },
    {
      "anonymous": false,
      "inputs": [
        {
          "indexed": true,
          "internalType": "address",
          "name": "to",
          "type": "address"
        },
        {
          "indexed": false,
          "internalType": "uint256",
          "name": "value",
          "type": "uint256"
        }
      ],
      "name": "Burn",
      "type": "event"
    },
    {
      "anonymous": false,
      "inputs": [
        {
          "indexed": true,
          "internalType": "address",
          "name": "to",
          "type": "address"
        },
        {
          "indexed": false,
          "internalType": "uint256",
          "name": "value",
          "type": "uint256"
        }
      ],
      "name": "Mint",
      "type": "event"
    },
    {
      "anonymous": false,
      "inputs": [
        {
          "indexed": true,
          "internalType": "address",
          "name": "previousOwner",
          "type": "address"
        },
        {
          "indexed": true,
          "internalType": "address",
          "name": "newOwner",
          "type": "address"
        }
      ],
      "name": "OwnershipTransferred",
      "type": "event"
    },
    {
      "anonymous": false,
      "inputs": [
        {
          "indexed": true,
          "internalType": "address",
          "name": "from",
          "type": "address"
        },
        {
          "indexed": true,
          "internalType": "address",
          "name": "to",
          "type": "address"
        },
        {
          "indexed": false,
          "internalType": "uint256",
          "name": "value",
          "type": "uint256"
        }
      ],
      "name": "Transfer",
      "type": "event"
    },
    {
      "inputs": [
        {
          "internalType": "address",
          "name": "account",
          "type": "address"
        }
      ],
      "name": "addBurner",
      "outputs": [],
      "stateMutability": "nonpayable",
      "type": "function"
    },
    {
      "inputs": [
        {
          "internalType": "address",
          "name": "account",
          "type": "address"
        }
      ],
      "name": "addMinter",
      "outputs": [],
      "stateMutability": "nonpayable",
      "type": "function"
    },
    {
      "inputs": [
        {
          "internalType": "address",
          "name": "owner",
          "type": "address"
        },
        {
          "internalType": "address",
          "name": "spender",
          "type": "address"
        }
      ],
      "name": "allowance",
      "outputs": [
        {
          "internalType": "uint256",
          "name": "",
          "type": "uint256"
        }
      ],
      "stateMutability": "view",
      "type": "function"
    },
    {
      "inputs": [
        {
          "internalType": "address",
          "name": "spender",
          "type": "address"
        },
        {
          "internalType": "uint256",
          "name": "amount",
          "type": "uint256"
        }
      ],
      "name": "approve",
      "outputs": [
        {
          "internalType": "bool",
          "name": "",
          "type": "bool"
        }
      ],
      "stateMutability": "nonpayable",
      "type": "function"
    },
    {
      "inputs": [
        {
          "internalType": "address",
          "name": "account",
          "type": "address"
        }
      ],
      "name": "balanceOf",
      "outputs": [
        {
          "internalType": "uint256",
          "name": "",
          "type": "uint256"
        }
      ],
      "stateMutability": "view",
      "type": "function"
    },
    {
      "inputs": [
        {
          "internalType": "uint256",
          "name": "_amount",
          "type": "uint256"
        }
      ],
      "name": "burn",
      "outputs": [
        {
          "internalType": "bool",
          "name": "",
          "type": "bool"
        }
      ],
      "stateMutability": "nonpayable",
      "type": "function"
    },
    {
      "inputs": [
        {
          "internalType": "address",
          "name": "",
          "type": "address"
        }
      ],
      "name": "burners",
      "outputs": [
        {
          "internalType": "bool",
          "name": "",
          "type": "bool"
        }
      ],
      "stateMutability": "view",
      "type": "function"
    },
    {
      "inputs": [],
      "name": "decimals",
      "outputs": [
        {
          "internalType": "uint8",
          "name": "",
          "type": "uint8"
        }
      ],
      "stateMutability": "view",
      "type": "function"
    },
    {
      "inputs": [
        {
          "internalType": "address",
          "name": "spender",
          "type": "address"
        },
        {
          "internalType": "uint256",
          "name": "subtractedValue",
          "type": "uint256"
        }
      ],
      "name": "decreaseAllowance",
      "outputs": [
        {
          "internalType": "bool",
          "name": "",
          "type": "bool"
        }
      ],
      "stateMutability": "nonpayable",
      "type": "function"
    },
    {
      "inputs": [
        {
          "internalType": "address",
          "name": "spender",
          "type": "address"
        },
        {
          "internalType": "uint256",
          "name": "addedValue",
          "type": "uint256"
        }
      ],
      "name": "increaseAllowance",
      "outputs": [
        {
          "internalType": "bool",
          "name": "",
          "type": "bool"
        }
      ],
      "stateMutability": "nonpayable",
      "type": "function"
    },
    {
      "inputs": [
        {
          "internalType": "address",
          "name": "_receiver",
          "type": "address"
        },
        {
          "internalType": "uint256",
          "name": "_amount",
          "type": "uint256"
        }
      ],
      "name": "mint",
      "outputs": [
        {
          "internalType": "bool",
          "name": "",
          "type": "bool"
        }
      ],
      "stateMutability": "nonpayable",
      "type": "function"
    },
    {
      "inputs": [],
      "name": "mintTestToken",
      "outputs": [],
      "stateMutability": "nonpayable",
      "type": "function"
    },
    {
      "inputs": [
        {
          "internalType": "address",
          "name": "",
          "type": "address"
        }
      ],
      "name": "minters",
      "outputs": [
        {
          "internalType": "bool",
          "name": "",
          "type": "bool"
        }
      ],
      "stateMutability": "view",
      "type": "function"
    },
    {
      "inputs": [],
      "name": "name",
      "outputs": [
        {
          "internalType": "string",
          "name": "",
          "type": "string"
        }
      ],
      "stateMutability": "view",
      "type": "function"
    },
    {
      "inputs": [],
      "name": "owner",
      "outputs": [
        {
          "internalType": "address",
          "name": "",
          "type": "address"
        }
      ],
      "stateMutability": "view",
      "type": "function"
    },
    {
      "inputs": [
        {
          "internalType": "address",
          "name": "account",
          "type": "address"
        }
      ],
      "name": "removeBurner",
      "outputs": [],
      "stateMutability": "nonpayable",
      "type": "function"
    },
    {
      "inputs": [
        {
          "internalType": "address",
          "name": "account",
          "type": "address"
        }
      ],
      "name": "removeMinter",
      "outputs": [],
      "stateMutability": "nonpayable",
      "type": "function"
    },
    {
      "inputs": [],
      "name": "renounceOwnership",
      "outputs": [],
      "stateMutability": "nonpayable",
      "type": "function"
    },
    {
      "inputs": [],
      "name": "symbol",
      "outputs": [
        {
          "internalType": "string",
          "name": "",
          "type": "string"
        }
      ],
      "stateMutability": "view",
      "type": "function"
    },
    {
      "inputs": [],
      "name": "totalSupply",
      "outputs": [
        {
          "internalType": "uint256",
          "name": "",
          "type": "uint256"
        }
      ],
      "stateMutability": "view",
      "type": "function"
    },
    {
      "inputs": [
        {
          "internalType": "address",
          "name": "recipient",
          "type": "address"
        },
        {
          "internalType": "uint256",
          "name": "amount",
          "type": "uint256"
        }
      ],
      "name": "transfer",
      "outputs": [
        {
          "internalType": "bool",
          "name": "",
          "type": "bool"
        }
      ],
      "stateMutability": "nonpayable",
      "type": "function"
    },
    {
      "inputs": [
        {
          "internalType": "address",
          "name": "sender",
          "type": "address"
        },
        {
          "internalType": "address",
          "name": "recipient",
          "type": "address"
        },
        {
          "internalType": "uint256",
          "name": "amount",
          "type": "uint256"
        }
      ],
      "name": "transferFrom",
      "outputs": [
        {
          "internalType": "bool",
          "name": "",
          "type": "bool"
        }
      ],
      "stateMutability": "nonpayable",
      "type": "function"
    },
    {
      "inputs": [
        {
          "internalType": "address",
          "name": "newOwner",
          "type": "address"
        }
      ],
      "name": "transferOwnership",
      "outputs": [],
      "stateMutability": "nonpayable",
      "type": "function"
    }
  ],
  "transactionHash": "0xca5249d60ff0cf438d5278c7effb68359f92c39e18ad6539f64ebd0de723d367",
  "args": [
    "TeleBitcoin",
    "TBTC"
  ],
  "numDeployments": 1,
  "solcInputHash": "86f0fd2b9e90320249e3db03af84b94f",
  "bytecode": "0x60806040523480156200001157600080fd5b50604051620016d0380380620016d08339810160408190526200003491620002e0565b8181600082600390805190602001906200005092919062000187565b5081516200006690600490602085019062000187565b5080156200007a576200007a3382620000a4565b50505062000097620000916200013160201b60201c565b62000135565b50506001600655620003bf565b8060026000828254620000b8919062000347565b90915550506001600160a01b03821660009081526020819052604081208054839290620000e790849062000347565b90915550506040518181526001600160a01b038316906000907fddf252ad1be2c89b69c2b068fc378daa952ba7f163c4a11628f55a4df523b3ef9060200160405180910390a35050565b3390565b600580546001600160a01b038381166001600160a01b0319831681179093556040519116919082907f8be0079c531659141344cd1fd0a4f28419497f9722a3daafe3b4186f6b6457e090600090a35050565b82805462000195906200036c565b90600052602060002090601f016020900481019282620001b9576000855562000204565b82601f10620001d457805160ff191683800117855562000204565b8280016001018555821562000204579182015b8281111562000204578251825591602001919060010190620001e7565b506200021292915062000216565b5090565b5b8082111562000212576000815560010162000217565b600082601f8301126200023e578081fd5b81516001600160401b03808211156200025b576200025b620003a9565b604051601f8301601f19908116603f01168101908282118183101715620002865762000286620003a9565b81604052838152602092508683858801011115620002a2578485fd5b8491505b83821015620002c55785820183015181830184015290820190620002a6565b83821115620002d657848385830101525b9695505050505050565b60008060408385031215620002f3578182fd5b82516001600160401b03808211156200030a578384fd5b62000318868387016200022d565b935060208501519150808211156200032e578283fd5b506200033d858286016200022d565b9150509250929050565b600082198211156200036757634e487b7160e01b81526011600452602481fd5b500190565b6002810460018216806200038157607f821691505b60208210811415620003a357634e487b7160e01b600052602260045260246000fd5b50919050565b634e487b7160e01b600052604160045260246000fd5b61130180620003cf6000396000f3fe608060405234801561001057600080fd5b506004361061014d5760003560e01c806370a08231116100c3578063a9059cbb1161007c578063a9059cbb146102ab578063d11ee8ef146102be578063dd62ed3e146102c6578063f2fde38b146102ff578063f44637ba14610312578063f46eccc4146103255761014d565b806370a0823114610247578063715018a61461025a5780638da5cb5b1461026257806395d89b411461027d578063983b2d5614610285578063a457c2d7146102985761014d565b806323b872dd1161011557806323b872dd146101d95780633092afd5146101ec578063313ce567146101ff578063395093511461020e57806340c10f191461022157806342966c68146102345761014d565b8063028468581461015257806303d41e0e1461016757806306fdde031461019f578063095ea7b3146101b457806318160ddd146101c7575b600080fd5b61016561016036600461102c565b610348565b005b61018a61017536600461102c565b60086020526000908152604090205460ff1681565b60405190151581526020015b60405180910390f35b6101a76103c1565b60405161019691906110fb565b61018a6101c23660046110ba565b610453565b6002545b604051908152602001610196565b61018a6101e736600461107f565b610469565b6101656101fa36600461102c565b610518565b60405160088152602001610196565b61018a61021c3660046110ba565b610588565b61018a61022f3660046110ba565b6105bf565b61018a6102423660046110e3565b6106c8565b6101cb61025536600461102c565b6107c2565b6101656107e1565b6005546040516001600160a01b039091168152602001610196565b6101a7610817565b61016561029336600461102c565b610826565b61018a6102a63660046110ba565b61089a565b61018a6102b93660046110ba565b610935565b610165610942565b6101cb6102d436600461104d565b6001600160a01b03918216600090815260016020908152604080832093909416825291909152205490565b61016561030d36600461102c565b610951565b61016561032036600461102c565b6109ec565b61018a61033336600461102c565b60076020526000908152604090205460ff1681565b6005546001600160a01b0316331461037b5760405162461bcd60e51b8152600401610372906111d5565b60405180910390fd5b61038481610a60565b6103a05760405162461bcd60e51b815260040161037290611192565b6001600160a01b03166000908152600860205260409020805460ff19169055565b6060600380546103d09061127a565b80601f01602080910402602001604051908101604052809291908181526020018280546103fc9061127a565b80156104495780601f1061041e57610100808354040283529160200191610449565b820191906000526020600020905b81548152906001019060200180831161042c57829003601f168201915b5050505050905090565b6000610460338484610aa7565b50600192915050565b6001600160a01b0383166000908152600160209081526040808320338452909152812054828110156104ee5760405162461bcd60e51b815260206004820152602860248201527f45524332303a207472616e7366657220616d6f756e74206578636565647320616044820152676c6c6f77616e636560c01b6064820152608401610372565b6104f9858585610bcc565b61050d85336105088685611263565b610aa7565b506001949350505050565b6005546001600160a01b031633146105425760405162461bcd60e51b8152600401610372906111d5565b61054b81610da4565b6105675760405162461bcd60e51b815260040161037290611192565b6001600160a01b03166000908152600760205260409020805460ff19169055565b3360008181526001602090815260408083206001600160a01b0387168452909152812054909161046091859061050890869061124b565b6000600260065414156106145760405162461bcd60e51b815260206004820152601f60248201527f5265656e7472616e637947756172643a207265656e7472616e742063616c6c006044820152606401610372565b600260065561062233610da4565b61066e5760405162461bcd60e51b815260206004820152601e60248201527f54656c654254433a206f6e6c79206d696e746572732063616e206d696e7400006044820152606401610372565b6106788383610deb565b826001600160a01b03167f0f6798a560793a54c3bcfe86a93cde1e73087d944c0ea20544137d4121396885836040516106b391815260200190565b60405180910390a25060018060065592915050565b60006002600654141561071d5760405162461bcd60e51b815260206004820152601f60248201527f5265656e7472616e637947756172643a207265656e7472616e742063616c6c006044820152606401610372565b600260065561072b33610a60565b6107775760405162461bcd60e51b815260206004820152601e60248201527f54656c654254433a206f6e6c79206275726e6572732063616e206275726e00006044820152606401610372565b6107813383610e74565b60405182815233907fcc16f5dbb4873280815c1ee09dbd06736cffcc184412cf7a71a0fdb75d397ca59060200160405180910390a250600180600655919050565b6001600160a01b0381166000908152602081905260409020545b919050565b6005546001600160a01b0316331461080b5760405162461bcd60e51b8152600401610372906111d5565b6108156000610fc3565b565b6060600480546103d09061127a565b6005546001600160a01b031633146108505760405162461bcd60e51b8152600401610372906111d5565b61085981610da4565b156108765760405162461bcd60e51b81526004016103729061120a565b6001600160a01b03166000908152600760205260409020805460ff19166001179055565b3360009081526001602090815260408083206001600160a01b03861684529091528120548281101561091c5760405162461bcd60e51b815260206004820152602560248201527f45524332303a2064656372656173656420616c6c6f77616e63652062656c6f77604482015264207a65726f60d81b6064820152608401610372565b61092b33856105088685611263565b5060019392505050565b6000610460338484610bcc565b610815336402540be400610deb565b6005546001600160a01b0316331461097b5760405162461bcd60e51b8152600401610372906111d5565b6001600160a01b0381166109e05760405162461bcd60e51b815260206004820152602660248201527f4f776e61626c653a206e6577206f776e657220697320746865207a65726f206160448201526564647265737360d01b6064820152608401610372565b6109e981610fc3565b50565b6005546001600160a01b03163314610a165760405162461bcd60e51b8152600401610372906111d5565b610a1f81610a60565b15610a3c5760405162461bcd60e51b81526004016103729061120a565b6001600160a01b03166000908152600860205260409020805460ff19166001179055565b60006001600160a01b038216610a885760405162461bcd60e51b81526004016103729061114e565b506001600160a01b031660009081526008602052604090205460ff1690565b6001600160a01b038316610b095760405162461bcd60e51b8152602060048201526024808201527f45524332303a20617070726f76652066726f6d20746865207a65726f206164646044820152637265737360e01b6064820152608401610372565b6001600160a01b038216610b6a5760405162461bcd60e51b815260206004820152602260248201527f45524332303a20617070726f766520746f20746865207a65726f206164647265604482015261737360f01b6064820152608401610372565b6001600160a01b0383811660008181526001602090815260408083209487168084529482529182902085905590518481527f8c5be1e5ebec7d5bd14f71427d1e84f3dd0314c0f7b2291e5b200ac8c7c3b92591015b60405180910390a3505050565b6001600160a01b038316610c305760405162461bcd60e51b815260206004820152602560248201527f45524332303a207472616e736665722066726f6d20746865207a65726f206164604482015264647265737360d81b6064820152608401610372565b6001600160a01b038216610c925760405162461bcd60e51b815260206004820152602360248201527f45524332303a207472616e7366657220746f20746865207a65726f206164647260448201526265737360e81b6064820152608401610372565b6001600160a01b03831660009081526020819052604090205481811015610d0a5760405162461bcd60e51b815260206004820152602660248201527f45524332303a207472616e7366657220616d6f756e7420657863656564732062604482015265616c616e636560d01b6064820152608401610372565b610d148282611263565b6001600160a01b038086166000908152602081905260408082209390935590851681529081208054849290610d4a90849061124b565b92505081905550826001600160a01b0316846001600160a01b03167fddf252ad1be2c89b69c2b068fc378daa952ba7f163c4a11628f55a4df523b3ef84604051610d9691815260200190565b60405180910390a350505050565b60006001600160a01b038216610dcc5760405162461bcd60e51b81526004016103729061114e565b506001600160a01b031660009081526007602052604090205460ff1690565b8060026000828254610dfd919061124b565b90915550506001600160a01b03821660009081526020819052604081208054839290610e2a90849061124b565b90915550506040518181526001600160a01b038316906000907fddf252ad1be2c89b69c2b068fc378daa952ba7f163c4a11628f55a4df523b3ef9060200160405180910390a35050565b6001600160a01b038216610ed45760405162461bcd60e51b815260206004820152602160248201527f45524332303a206275726e2066726f6d20746865207a65726f206164647265736044820152607360f81b6064820152608401610372565b6001600160a01b03821660009081526020819052604090205481811015610f485760405162461bcd60e51b815260206004820152602260248201527f45524332303a206275726e20616d6f756e7420657863656564732062616c616e604482015261636560f01b6064820152608401610372565b610f528282611263565b6001600160a01b03841660009081526020819052604081209190915560028054849290610f80908490611263565b90915550506040518281526000906001600160a01b038516907fddf252ad1be2c89b69c2b068fc378daa952ba7f163c4a11628f55a4df523b3ef90602001610bbf565b600580546001600160a01b038381166001600160a01b0319831681179093556040519116919082907f8be0079c531659141344cd1fd0a4f28419497f9722a3daafe3b4186f6b6457e090600090a35050565b80356001600160a01b03811681146107dc57600080fd5b60006020828403121561103d578081fd5b61104682611015565b9392505050565b6000806040838503121561105f578081fd5b61106883611015565b915061107660208401611015565b90509250929050565b600080600060608486031215611093578081fd5b61109c84611015565b92506110aa60208501611015565b9150604084013590509250925092565b600080604083850312156110cc578182fd5b6110d583611015565b946020939093013593505050565b6000602082840312156110f4578081fd5b5035919050565b6000602080835283518082850152825b818110156111275785810183015185820160400152820161110b565b818111156111385783604083870101525b50601f01601f1916929092016040019392505050565b60208082526024908201527f54656c654254433a206163636f756e7420697320746865207a65726f206164646040820152637265737360e01b606082015260800190565b60208082526023908201527f54656c654254433a206163636f756e7420646f6573206e6f74206861766520726040820152626f6c6560e81b606082015260800190565b6020808252818101527f4f776e61626c653a2063616c6c6572206973206e6f7420746865206f776e6572604082015260600190565b60208082526021908201527f54656c654254433a206163636f756e7420616c72656164792068617320726f6c6040820152606560f81b606082015260800190565b6000821982111561125e5761125e6112b5565b500190565b600082821015611275576112756112b5565b500390565b60028104600182168061128e57607f821691505b602082108114156112af57634e487b7160e01b600052602260045260246000fd5b50919050565b634e487b7160e01b600052601160045260246000fdfea26469706673582212202f80ffa3250de94a34ee8693866f45c7cc7047d5327794bb2776a5402204a9e464736f6c63430008020033",
  "devdoc": {
    "kind": "dev",
    "methods": {
      "addBurner(address)": {
        "details": "Give an account access to burn."
      },
      "addMinter(address)": {
        "details": "Give an account access to mint."
      },
      "allowance(address,address)": {
        "details": "See {IERC20-allowance}."
      },
      "approve(address,uint256)": {
        "details": "See {IERC20-approve}. Requirements: - `spender` cannot be the zero address."
      },
      "balanceOf(address)": {
        "details": "See {IERC20-balanceOf}."
      },
      "burn(uint256)": {
        "details": "Only burners can call this",
        "params": {
          "_amount": "Amount of burnt tokens"
        }
      },
      "decreaseAllowance(address,uint256)": {
        "details": "Atomically decreases the allowance granted to `spender` by the caller. This is an alternative to {approve} that can be used as a mitigation for problems described in {IERC20-approve}. Emits an {Approval} event indicating the updated allowance. Requirements: - `spender` cannot be the zero address. - `spender` must have allowance for the caller of at least `subtractedValue`."
      },
      "increaseAllowance(address,uint256)": {
        "details": "Atomically increases the allowance granted to `spender` by the caller. This is an alternative to {approve} that can be used as a mitigation for problems described in {IERC20-approve}. Emits an {Approval} event indicating the updated allowance. Requirements: - `spender` cannot be the zero address."
      },
      "mint(address,uint256)": {
        "details": "Only minters can call this",
        "params": {
          "_amount": "Amount of minted tokens",
          "_receiver": "Address of token's receiver"
        }
      },
      "name()": {
        "details": "Returns the name of the token."
      },
      "owner()": {
        "details": "Returns the address of the current owner."
      },
      "removeBurner(address)": {
        "details": "Remove an account's access to burn."
      },
      "removeMinter(address)": {
        "details": "Remove an account's access to mint."
      },
      "renounceOwnership()": {
        "details": "Leaves the contract without owner. It will not be possible to call `onlyOwner` functions anymore. Can only be called by the current owner. NOTE: Renouncing ownership will leave the contract without an owner, thereby removing any functionality that is only available to the owner."
      },
      "symbol()": {
        "details": "Returns the symbol of the token, usually a shorter version of the name."
      },
      "totalSupply()": {
        "details": "See {IERC20-totalSupply}."
      },
      "transfer(address,uint256)": {
        "details": "See {IERC20-transfer}. Requirements: - `recipient` cannot be the zero address. - the caller must have a balance of at least `amount`."
      },
      "transferFrom(address,address,uint256)": {
        "details": "See {IERC20-transferFrom}. Emits an {Approval} event indicating the updated allowance. This is not required by the EIP. See the note at the beginning of {ERC20}. Requirements: - `sender` and `recipient` cannot be the zero address. - `sender` must have a balance of at least `amount`. - the caller must have allowance for ``sender``'s tokens of at least `amount`."
      },
      "transferOwnership(address)": {
        "details": "Transfers ownership of the contract to a new account (`newOwner`). Can only be called by the current owner."
      }
    },
    "version": 1
  },
  "userdoc": {
    "kind": "user",
    "methods": {
      "burn(uint256)": {
        "notice": "Burns TeleBTC tokens of msg.sender"
      },
      "mint(address,uint256)": {
        "notice": "Mints TeleBTC tokens for _receiver"
      },
      "mintTestToken()": {
        "notice": "Mints TeleBTC just for test"
      }
    },
    "version": 1
  },
  "storageLayout": {
    "storage": [
      {
        "astId": 3140,
        "contract": "contracts/erc20/TeleBTC.sol:TeleBTC",
        "label": "_balances",
        "offset": 0,
        "slot": "0",
        "type": "t_mapping(t_address,t_uint256)"
      },
      {
        "astId": 3146,
        "contract": "contracts/erc20/TeleBTC.sol:TeleBTC",
        "label": "_allowances",
        "offset": 0,
        "slot": "1",
        "type": "t_mapping(t_address,t_mapping(t_address,t_uint256))"
      },
      {
        "astId": 3148,
        "contract": "contracts/erc20/TeleBTC.sol:TeleBTC",
        "label": "_totalSupply",
        "offset": 0,
        "slot": "2",
        "type": "t_uint256"
      },
      {
        "astId": 3150,
        "contract": "contracts/erc20/TeleBTC.sol:TeleBTC",
        "label": "_name",
        "offset": 0,
        "slot": "3",
        "type": "t_string_storage"
      },
      {
        "astId": 3152,
        "contract": "contracts/erc20/TeleBTC.sol:TeleBTC",
        "label": "_symbol",
        "offset": 0,
        "slot": "4",
        "type": "t_string_storage"
      },
      {
        "astId": 807,
        "contract": "contracts/erc20/TeleBTC.sol:TeleBTC",
        "label": "_owner",
        "offset": 0,
        "slot": "5",
        "type": "t_address"
      },
      {
        "astId": 1634,
        "contract": "contracts/erc20/TeleBTC.sol:TeleBTC",
        "label": "_status",
        "offset": 0,
        "slot": "6",
        "type": "t_uint256"
      },
      {
        "astId": 3721,
        "contract": "contracts/erc20/TeleBTC.sol:TeleBTC",
        "label": "minters",
        "offset": 0,
        "slot": "7",
        "type": "t_mapping(t_address,t_bool)"
      },
      {
        "astId": 3725,
        "contract": "contracts/erc20/TeleBTC.sol:TeleBTC",
        "label": "burners",
        "offset": 0,
        "slot": "8",
        "type": "t_mapping(t_address,t_bool)"
      }
    ],
    "types": {
      "t_address": {
        "encoding": "inplace",
        "label": "address",
        "numberOfBytes": "20"
      },
      "t_bool": {
        "encoding": "inplace",
        "label": "bool",
        "numberOfBytes": "1"
      },
      "t_mapping(t_address,t_bool)": {
        "encoding": "mapping",
        "key": "t_address",
        "label": "mapping(address => bool)",
        "numberOfBytes": "32",
        "value": "t_bool"
      },
      "t_mapping(t_address,t_mapping(t_address,t_uint256))": {
        "encoding": "mapping",
        "key": "t_address",
        "label": "mapping(address => mapping(address => uint256))",
        "numberOfBytes": "32",
        "value": "t_mapping(t_address,t_uint256)"
      },
      "t_mapping(t_address,t_uint256)": {
        "encoding": "mapping",
        "key": "t_address",
        "label": "mapping(address => uint256)",
        "numberOfBytes": "32",
        "value": "t_uint256"
      },
      "t_string_storage": {
        "encoding": "bytes",
        "label": "string",
        "numberOfBytes": "32"
      },
      "t_uint256": {
        "encoding": "inplace",
        "label": "uint256",
        "numberOfBytes": "32"
      }
    }
  }
}