{
  "address": "0x0d868a6747ddcd3a5Faa5fBc53a9c1d17dBDAEE3",
  "abi": [
    {
      "anonymous": false,
      "inputs": [
        {
          "indexed": false,
          "internalType": "uint256",
          "name": "tokenId",
          "type": "uint256"
        },
        {
          "indexed": false,
          "internalType": "address",
          "name": "wbrc20Proxy",
          "type": "address"
        }
      ],
      "name": "Brc20Removed",
      "type": "event"
    },
    {
      "anonymous": false,
      "inputs": [
        {
          "indexed": false,
          "internalType": "address",
          "name": "user",
          "type": "address"
        },
        {
          "indexed": false,
          "internalType": "uint256",
          "name": "remainingAmount",
          "type": "uint256"
        },
        {
          "indexed": false,
          "internalType": "address",
          "name": "inputToken",
          "type": "address"
        },
        {
          "indexed": false,
          "internalType": "uint256",
          "name": "outputAmount",
          "type": "uint256"
        },
        {
          "indexed": false,
          "internalType": "address",
          "name": "outputToken",
          "type": "address"
        },
        {
          "components": [
            {
              "internalType": "uint256",
              "name": "protocolFee",
              "type": "uint256"
            },
            {
              "internalType": "uint256",
              "name": "lockerFee",
              "type": "uint256"
            },
            {
              "internalType": "uint256",
              "name": "thirdPartyFee",
              "type": "uint256"
            }
          ],
          "indexed": false,
          "internalType": "struct IBrc20Router.fees",
          "name": "fee",
          "type": "tuple"
        },
        {
          "indexed": false,
          "internalType": "address",
          "name": "thirdPartyAddress",
          "type": "address"
        },
        {
          "indexed": false,
          "internalType": "bytes32",
          "name": "txId",
          "type": "bytes32"
        }
      ],
      "name": "FailedWrapAndSwap",
      "type": "event"
    },
    {
      "anonymous": false,
      "inputs": [
        {
          "indexed": false,
          "internalType": "uint8",
          "name": "version",
          "type": "uint8"
        }
      ],
      "name": "Initialized",
      "type": "event"
    },
    {
      "anonymous": false,
      "inputs": [
        {
          "indexed": false,
          "internalType": "string",
          "name": "name",
          "type": "string"
        },
        {
          "indexed": false,
          "internalType": "uint256",
          "name": "decimal",
          "type": "uint256"
        },
        {
          "indexed": false,
          "internalType": "uint256",
          "name": "tokenId",
          "type": "uint256"
        },
        {
          "indexed": false,
          "internalType": "address",
          "name": "wbrc20Proxy",
          "type": "address"
        },
        {
          "indexed": false,
          "internalType": "address",
          "name": "wbrc20Logic",
          "type": "address"
        }
      ],
      "name": "NewBrc20",
      "type": "event"
    },
    {
      "anonymous": false,
      "inputs": [
        {
          "indexed": false,
          "internalType": "address",
          "name": "oldLocker",
          "type": "address"
        },
        {
          "indexed": false,
          "internalType": "address",
          "name": "newLocker",
          "type": "address"
        }
      ],
      "name": "NewLocker",
      "type": "event"
    },
    {
      "anonymous": false,
      "inputs": [
        {
          "indexed": false,
          "internalType": "uint256",
          "name": "oldProtocolPercentageFee",
          "type": "uint256"
        },
        {
          "indexed": false,
          "internalType": "uint256",
          "name": "newProtocolPercentageFee",
          "type": "uint256"
        }
      ],
      "name": "NewProtocolPercentageFee",
      "type": "event"
    },
    {
      "anonymous": false,
      "inputs": [
        {
          "indexed": false,
          "internalType": "address",
          "name": "oldRelay",
          "type": "address"
        },
        {
          "indexed": false,
          "internalType": "address",
          "name": "newRelay",
          "type": "address"
        }
      ],
      "name": "NewRelay",
      "type": "event"
    },
    {
      "anonymous": false,
      "inputs": [
        {
          "indexed": false,
          "internalType": "address",
          "name": "oldTeleporter",
          "type": "address"
        },
        {
          "indexed": false,
          "internalType": "address",
          "name": "newTeleporter",
          "type": "address"
        }
      ],
      "name": "NewTeleporter",
      "type": "event"
    },
    {
      "anonymous": false,
      "inputs": [
        {
          "indexed": false,
          "internalType": "address",
          "name": "oldTreasury",
          "type": "address"
        },
        {
          "indexed": false,
          "internalType": "address",
          "name": "newTreasury",
          "type": "address"
        }
      ],
      "name": "NewTreasury",
      "type": "event"
    },
    {
      "anonymous": false,
      "inputs": [
        {
          "indexed": false,
          "internalType": "address",
          "name": "user",
          "type": "address"
        },
        {
          "indexed": false,
          "internalType": "bytes",
          "name": "userScript",
          "type": "bytes"
        },
        {
          "indexed": false,
          "internalType": "enum ScriptTypes",
          "name": "scriptType",
          "type": "uint8"
        },
        {
          "indexed": false,
          "internalType": "address",
          "name": "inputToken",
          "type": "address"
        },
        {
          "indexed": false,
          "internalType": "uint256",
          "name": "inputAmount",
          "type": "uint256"
        },
        {
          "indexed": false,
          "internalType": "uint256",
          "name": "remainingAmount",
          "type": "uint256"
        },
        {
          "components": [
            {
              "internalType": "uint256",
              "name": "protocolFee",
              "type": "uint256"
            },
            {
              "internalType": "uint256",
              "name": "lockerFee",
              "type": "uint256"
            },
            {
              "internalType": "uint256",
              "name": "thirdPartyFee",
              "type": "uint256"
            }
          ],
          "indexed": false,
          "internalType": "struct IBrc20Router.fees",
          "name": "fee",
          "type": "tuple"
        },
        {
          "indexed": false,
          "internalType": "uint256",
          "name": "unwrapFee",
          "type": "uint256"
        },
        {
          "indexed": false,
          "internalType": "address",
          "name": "thirdPartyAddress",
          "type": "address"
        },
        {
          "indexed": false,
          "internalType": "uint256",
          "name": "reqIdx",
          "type": "uint256"
        }
      ],
      "name": "NewUnwrap",
      "type": "event"
    },
    {
      "anonymous": false,
      "inputs": [
        {
          "indexed": false,
          "internalType": "address",
          "name": "user",
          "type": "address"
        },
        {
          "indexed": false,
          "internalType": "bytes",
          "name": "userScript",
          "type": "bytes"
        },
        {
          "indexed": false,
          "internalType": "enum ScriptTypes",
          "name": "scriptType",
          "type": "uint8"
        },
        {
          "indexed": false,
          "internalType": "uint256",
          "name": "inputAmount",
          "type": "uint256"
        },
        {
          "indexed": false,
          "internalType": "address",
          "name": "inputToken",
          "type": "address"
        },
        {
          "indexed": false,
          "internalType": "uint256",
          "name": "outputAmount",
          "type": "uint256"
        },
        {
          "indexed": false,
          "internalType": "uint256",
          "name": "remainingAmount",
          "type": "uint256"
        },
        {
          "indexed": false,
          "internalType": "address",
          "name": "outputToken",
          "type": "address"
        },
        {
          "components": [
            {
              "internalType": "uint256",
              "name": "protocolFee",
              "type": "uint256"
            },
            {
              "internalType": "uint256",
              "name": "lockerFee",
              "type": "uint256"
            },
            {
              "internalType": "uint256",
              "name": "thirdPartyFee",
              "type": "uint256"
            }
          ],
          "indexed": false,
          "internalType": "struct IBrc20Router.fees",
          "name": "fee",
          "type": "tuple"
        },
        {
          "indexed": false,
          "internalType": "uint256",
          "name": "unwrapFee",
          "type": "uint256"
        },
        {
          "indexed": false,
          "internalType": "address",
          "name": "thirdPartyAddress",
          "type": "address"
        },
        {
          "indexed": false,
          "internalType": "uint256",
          "name": "reqIdx",
          "type": "uint256"
        }
      ],
      "name": "NewUnwrapAndSwap",
      "type": "event"
    },
    {
      "anonymous": false,
      "inputs": [
        {
          "indexed": false,
          "internalType": "address",
          "name": "user",
          "type": "address"
        },
        {
          "indexed": false,
          "internalType": "uint256",
          "name": "remainingAmount",
          "type": "uint256"
        },
        {
          "indexed": false,
          "internalType": "address",
          "name": "inputToken",
          "type": "address"
        },
        {
          "components": [
            {
              "internalType": "uint256",
              "name": "protocolFee",
              "type": "uint256"
            },
            {
              "internalType": "uint256",
              "name": "lockerFee",
              "type": "uint256"
            },
            {
              "internalType": "uint256",
              "name": "thirdPartyFee",
              "type": "uint256"
            }
          ],
          "indexed": false,
          "internalType": "struct IBrc20Router.fees",
          "name": "fee",
          "type": "tuple"
        },
        {
          "indexed": false,
          "internalType": "address",
          "name": "thirdPartyAddress",
          "type": "address"
        },
        {
          "indexed": false,
          "internalType": "bytes32",
          "name": "txId",
          "type": "bytes32"
        }
      ],
      "name": "NewWrap",
      "type": "event"
    },
    {
      "anonymous": false,
      "inputs": [
        {
          "indexed": false,
          "internalType": "address",
          "name": "user",
          "type": "address"
        },
        {
          "indexed": false,
          "internalType": "uint256",
          "name": "remainingAmount",
          "type": "uint256"
        },
        {
          "indexed": false,
          "internalType": "address",
          "name": "inputToken",
          "type": "address"
        },
        {
          "indexed": false,
          "internalType": "uint256",
          "name": "outputAmount",
          "type": "uint256"
        },
        {
          "indexed": false,
          "internalType": "address",
          "name": "outputToken",
          "type": "address"
        },
        {
          "components": [
            {
              "internalType": "uint256",
              "name": "protocolFee",
              "type": "uint256"
            },
            {
              "internalType": "uint256",
              "name": "lockerFee",
              "type": "uint256"
            },
            {
              "internalType": "uint256",
              "name": "thirdPartyFee",
              "type": "uint256"
            }
          ],
          "indexed": false,
          "internalType": "struct IBrc20Router.fees",
          "name": "fee",
          "type": "tuple"
        },
        {
          "indexed": false,
          "internalType": "address",
          "name": "thirdPartyAddress",
          "type": "address"
        },
        {
          "indexed": false,
          "internalType": "bytes32",
          "name": "txId",
          "type": "bytes32"
        }
      ],
      "name": "NewWrapAndSwap",
      "type": "event"
    },
    {
      "anonymous": false,
      "inputs": [
        {
          "indexed": true,
          "internalType": "address",
          "name": "previousOwner",
          "type": "address"
        },
        {
          "indexed": true,
          "internalType": "address",
          "name": "newOwner",
          "type": "address"
        }
      ],
      "name": "OwnershipTransferred",
      "type": "event"
    },
    {
      "anonymous": false,
      "inputs": [
        {
          "indexed": false,
          "internalType": "uint256",
          "name": "appId",
          "type": "uint256"
        },
        {
          "indexed": false,
          "internalType": "address",
          "name": "exchangeConnector",
          "type": "address"
        }
      ],
      "name": "SetExchangeConnector",
      "type": "event"
    },
    {
      "anonymous": false,
      "inputs": [
        {
          "indexed": false,
          "internalType": "uint256",
          "name": "thirdPartyId",
          "type": "uint256"
        },
        {
          "indexed": false,
          "internalType": "address",
          "name": "oldAddress",
          "type": "address"
        },
        {
          "indexed": false,
          "internalType": "uint256",
          "name": "oldFee",
          "type": "uint256"
        },
        {
          "indexed": false,
          "internalType": "address",
          "name": "newAddress",
          "type": "address"
        },
        {
          "indexed": false,
          "internalType": "uint256",
          "name": "newFee",
          "type": "uint256"
        }
      ],
      "name": "ThirdPartyInfoUpdated",
      "type": "event"
    },
    {
      "anonymous": false,
      "inputs": [
        {
          "indexed": false,
          "internalType": "uint256",
          "name": "oldFee",
          "type": "uint256"
        },
        {
          "indexed": false,
          "internalType": "uint256",
          "name": "newFee",
          "type": "uint256"
        }
      ],
      "name": "UnwrapFeeUpdated",
      "type": "event"
    },
    {
      "anonymous": false,
      "inputs": [
        {
          "indexed": false,
          "internalType": "address",
          "name": "user",
          "type": "address"
        },
        {
          "indexed": false,
          "internalType": "uint256",
          "name": "remainingAmount",
          "type": "uint256"
        },
        {
          "indexed": false,
          "internalType": "bytes",
          "name": "userScript",
          "type": "bytes"
        },
        {
          "indexed": false,
          "internalType": "enum ScriptTypes",
          "name": "scriptType",
          "type": "uint8"
        },
        {
          "indexed": false,
          "internalType": "uint256",
          "name": "reqIdx",
          "type": "uint256"
        },
        {
          "indexed": false,
          "internalType": "bytes32",
          "name": "txId",
          "type": "bytes32"
        }
      ],
      "name": "UnwrapProcessed",
      "type": "event"
    },
    {
      "inputs": [
        {
          "internalType": "string",
          "name": "_name",
          "type": "string"
        },
        {
          "internalType": "uint8",
          "name": "_decimal",
          "type": "uint8"
        },
        {
          "internalType": "uint256",
          "name": "_tokenId",
          "type": "uint256"
        }
      ],
      "name": "addBrc20",
      "outputs": [],
      "stateMutability": "nonpayable",
      "type": "function"
    },
    {
      "inputs": [
        {
          "internalType": "uint256",
          "name": "",
          "type": "uint256"
        }
      ],
      "name": "brc20UnwrapRequests",
      "outputs": [
        {
          "internalType": "bool",
          "name": "isProcessed",
          "type": "bool"
        },
        {
          "internalType": "uint256",
          "name": "amount",
          "type": "uint256"
        },
        {
          "internalType": "uint256",
          "name": "burntAmount",
          "type": "uint256"
        },
        {
          "internalType": "uint256",
          "name": "appId",
          "type": "uint256"
        },
        {
          "internalType": "address",
          "name": "sender",
          "type": "address"
        },
        {
          "internalType": "bytes",
          "name": "userScript",
          "type": "bytes"
        },
        {
          "internalType": "enum ScriptTypes",
          "name": "scriptType",
          "type": "uint8"
        }
      ],
      "stateMutability": "view",
      "type": "function"
    },
    {
      "inputs": [
        {
          "internalType": "bytes32",
          "name": "",
          "type": "bytes32"
        }
      ],
      "name": "brc20WrapRequests",
      "outputs": [
        {
          "internalType": "bool",
          "name": "isUsed",
          "type": "bool"
        },
        {
          "internalType": "uint256",
          "name": "chainId",
          "type": "uint256"
        },
        {
          "internalType": "uint256",
          "name": "appId",
          "type": "uint256"
        },
        {
          "internalType": "uint256",
          "name": "tokenId",
          "type": "uint256"
        },
        {
          "internalType": "uint256",
          "name": "inputAmount",
          "type": "uint256"
        },
        {
          "internalType": "address",
          "name": "inputToken",
          "type": "address"
        },
        {
          "internalType": "address",
          "name": "recipientAddress",
          "type": "address"
        },
        {
          "internalType": "uint256",
          "name": "thirdPartyId",
          "type": "uint256"
        },
        {
          "internalType": "uint256",
          "name": "fee",
          "type": "uint256"
        },
        {
          "internalType": "uint256",
          "name": "outputAmount",
          "type": "uint256"
        },
        {
          "internalType": "address",
          "name": "outputToken",
          "type": "address"
        }
      ],
      "stateMutability": "view",
      "type": "function"
    },
    {
      "inputs": [],
      "name": "chainId",
      "outputs": [
        {
          "internalType": "uint256",
          "name": "",
          "type": "uint256"
        }
      ],
      "stateMutability": "view",
      "type": "function"
    },
    {
      "inputs": [
        {
          "internalType": "uint256",
          "name": "",
          "type": "uint256"
        }
      ],
      "name": "exchangeConnector",
      "outputs": [
        {
          "internalType": "address",
          "name": "",
          "type": "address"
        }
      ],
      "stateMutability": "view",
      "type": "function"
    },
    {
      "inputs": [
        {
          "internalType": "uint256",
          "name": "_startingBlockNumber",
          "type": "uint256"
        },
        {
          "internalType": "uint256",
          "name": "_protocolPercentageFee",
          "type": "uint256"
        },
        {
          "internalType": "uint256",
          "name": "_chainId",
          "type": "uint256"
        },
        {
          "internalType": "address",
          "name": "_relay",
          "type": "address"
        },
        {
          "internalType": "address",
          "name": "_locker",
          "type": "address"
        },
        {
          "internalType": "bytes",
          "name": "_lockerLockingScript",
          "type": "bytes"
        },
        {
          "internalType": "enum ScriptTypes",
          "name": "_lockerScriptType",
          "type": "uint8"
        },
        {
          "internalType": "address",
          "name": "_teleporter",
          "type": "address"
        },
        {
          "internalType": "address",
          "name": "_treasury",
          "type": "address"
        },
        {
          "internalType": "address",
          "name": "_wrappedNativeToken",
          "type": "address"
        }
      ],
      "name": "initialize",
      "outputs": [],
      "stateMutability": "nonpayable",
      "type": "function"
    },
    {
      "inputs": [
        {
          "internalType": "uint256",
          "name": "_reqIdx",
          "type": "uint256"
        }
      ],
      "name": "isUnwrapRequestProcessed",
      "outputs": [
        {
          "internalType": "bool",
          "name": "",
          "type": "bool"
        }
      ],
      "stateMutability": "view",
      "type": "function"
    },
    {
      "inputs": [
        {
          "internalType": "bytes32",
          "name": "_txId",
          "type": "bytes32"
        }
      ],
      "name": "isWrapRequestProcessed",
      "outputs": [
        {
          "internalType": "bool",
          "name": "",
          "type": "bool"
        }
      ],
      "stateMutability": "view",
      "type": "function"
    },
    {
      "inputs": [],
      "name": "locker",
      "outputs": [
        {
          "internalType": "address",
          "name": "",
          "type": "address"
        }
      ],
      "stateMutability": "view",
      "type": "function"
    },
    {
      "inputs": [],
      "name": "lockerLockingScript",
      "outputs": [
        {
          "internalType": "bytes",
          "name": "",
          "type": "bytes"
        }
      ],
      "stateMutability": "view",
      "type": "function"
    },
    {
      "inputs": [],
      "name": "lockerPercentageFee",
      "outputs": [
        {
          "internalType": "uint256",
          "name": "",
          "type": "uint256"
        }
      ],
      "stateMutability": "view",
      "type": "function"
    },
    {
      "inputs": [],
      "name": "lockerScriptType",
      "outputs": [
        {
          "internalType": "enum ScriptTypes",
          "name": "",
          "type": "uint8"
        }
      ],
      "stateMutability": "view",
      "type": "function"
    },
    {
      "inputs": [],
      "name": "owner",
      "outputs": [
        {
          "internalType": "address",
          "name": "",
          "type": "address"
        }
      ],
      "stateMutability": "view",
      "type": "function"
    },
    {
      "inputs": [],
      "name": "protocolPercentageFee",
      "outputs": [
        {
          "internalType": "uint256",
          "name": "",
          "type": "uint256"
        }
      ],
      "stateMutability": "view",
      "type": "function"
    },
    {
      "inputs": [],
      "name": "relay",
      "outputs": [
        {
          "internalType": "address",
          "name": "",
          "type": "address"
        }
      ],
      "stateMutability": "view",
      "type": "function"
    },
    {
      "inputs": [
        {
          "internalType": "uint256",
          "name": "_tokenId",
          "type": "uint256"
        }
      ],
      "name": "removeBrc20",
      "outputs": [],
      "stateMutability": "nonpayable",
      "type": "function"
    },
    {
      "inputs": [],
      "name": "renounceOwnership",
      "outputs": [],
      "stateMutability": "nonpayable",
      "type": "function"
    },
    {
      "inputs": [
        {
          "internalType": "uint256",
          "name": "_chainId",
          "type": "uint256"
        }
      ],
      "name": "setChainId",
      "outputs": [],
      "stateMutability": "nonpayable",
      "type": "function"
    },
    {
      "inputs": [
        {
          "internalType": "uint256",
          "name": "_appId",
          "type": "uint256"
        },
        {
          "internalType": "address",
          "name": "_exchangeConnector",
          "type": "address"
        }
      ],
      "name": "setExchangeConnector",
      "outputs": [],
      "stateMutability": "nonpayable",
      "type": "function"
    },
    {
      "inputs": [
        {
          "internalType": "address",
          "name": "_locker",
          "type": "address"
        }
      ],
      "name": "setLocker",
      "outputs": [],
      "stateMutability": "nonpayable",
      "type": "function"
    },
    {
      "inputs": [
        {
          "internalType": "bytes",
          "name": "_lockerLockingScript",
          "type": "bytes"
        },
        {
          "internalType": "enum ScriptTypes",
          "name": "_lockerScriptType",
          "type": "uint8"
        }
      ],
      "name": "setLockerLockingScript",
      "outputs": [],
      "stateMutability": "nonpayable",
      "type": "function"
    },
    {
      "inputs": [
        {
          "internalType": "uint256",
          "name": "_protocolPercentageFee",
          "type": "uint256"
        }
      ],
      "name": "setProtocolPercentageFee",
      "outputs": [],
      "stateMutability": "nonpayable",
      "type": "function"
    },
    {
      "inputs": [
        {
          "internalType": "address",
          "name": "_relay",
          "type": "address"
        }
      ],
      "name": "setRelay",
      "outputs": [],
      "stateMutability": "nonpayable",
      "type": "function"
    },
    {
      "inputs": [
        {
          "internalType": "uint256",
          "name": "_startingBlockNumber",
          "type": "uint256"
        }
      ],
      "name": "setStartingBlockNumber",
      "outputs": [],
      "stateMutability": "nonpayable",
      "type": "function"
    },
    {
      "inputs": [
        {
          "internalType": "address",
          "name": "_teleporter",
          "type": "address"
        }
      ],
      "name": "setTeleporter",
      "outputs": [],
      "stateMutability": "nonpayable",
      "type": "function"
    },
    {
      "inputs": [
        {
          "internalType": "uint256",
          "name": "_thirdPartyId",
          "type": "uint256"
        },
        {
          "internalType": "address",
          "name": "_thirdPartyAddress",
          "type": "address"
        },
        {
          "internalType": "uint256",
          "name": "_thirdPartyFee",
          "type": "uint256"
        }
      ],
      "name": "setThirdParty",
      "outputs": [],
      "stateMutability": "nonpayable",
      "type": "function"
    },
    {
      "inputs": [
        {
          "internalType": "address",
          "name": "_treasury",
          "type": "address"
        }
      ],
      "name": "setTreasury",
      "outputs": [],
      "stateMutability": "nonpayable",
      "type": "function"
    },
    {
      "inputs": [
        {
          "internalType": "uint256",
          "name": "_newFee",
          "type": "uint256"
        }
      ],
      "name": "setUnwrapFee",
      "outputs": [],
      "stateMutability": "nonpayable",
      "type": "function"
    },
    {
      "inputs": [
        {
          "internalType": "address",
          "name": "_wrappedNativeToken",
          "type": "address"
        }
      ],
      "name": "setWrappedNativeToken",
      "outputs": [],
      "stateMutability": "nonpayable",
      "type": "function"
    },
    {
      "inputs": [],
      "name": "startingBlockNumber",
      "outputs": [
        {
          "internalType": "uint256",
          "name": "",
          "type": "uint256"
        }
      ],
      "stateMutability": "view",
      "type": "function"
    },
    {
      "inputs": [
        {
          "internalType": "uint256",
          "name": "",
          "type": "uint256"
        }
      ],
      "name": "supportedBrc20s",
      "outputs": [
        {
          "internalType": "address",
          "name": "",
          "type": "address"
        }
      ],
      "stateMutability": "view",
      "type": "function"
    },
    {
      "inputs": [],
      "name": "teleporter",
      "outputs": [
        {
          "internalType": "address",
          "name": "",
          "type": "address"
        }
      ],
      "stateMutability": "view",
      "type": "function"
    },
    {
      "inputs": [
        {
          "internalType": "uint256",
          "name": "",
          "type": "uint256"
        }
      ],
      "name": "thirdParties",
      "outputs": [
        {
          "internalType": "address",
          "name": "thirdPartyAddress",
          "type": "address"
        },
        {
          "internalType": "uint256",
          "name": "thirdPartyFee",
          "type": "uint256"
        }
      ],
      "stateMutability": "view",
      "type": "function"
    },
    {
      "inputs": [
        {
          "internalType": "string",
          "name": "",
          "type": "string"
        }
      ],
      "name": "tokenIds",
      "outputs": [
        {
          "internalType": "uint256",
          "name": "",
          "type": "uint256"
        }
      ],
      "stateMutability": "view",
      "type": "function"
    },
    {
      "inputs": [
        {
          "internalType": "address",
          "name": "newOwner",
          "type": "address"
        }
      ],
      "name": "transferOwnership",
      "outputs": [],
      "stateMutability": "nonpayable",
      "type": "function"
    },
    {
      "inputs": [],
      "name": "treasury",
      "outputs": [
        {
          "internalType": "address",
          "name": "",
          "type": "address"
        }
      ],
      "stateMutability": "view",
      "type": "function"
    },
    {
      "inputs": [
        {
          "internalType": "uint256",
          "name": "_thirdPartyId",
          "type": "uint256"
        },
        {
          "internalType": "uint256",
          "name": "_tokenId",
          "type": "uint256"
        },
        {
          "internalType": "uint256",
          "name": "_amount",
          "type": "uint256"
        },
        {
          "internalType": "bytes",
          "name": "_userScript",
          "type": "bytes"
        },
        {
          "internalType": "enum ScriptTypes",
          "name": "_scriptType",
          "type": "uint8"
        },
        {
          "internalType": "uint256",
          "name": "_appId",
          "type": "uint256"
        },
        {
          "internalType": "uint256",
          "name": "_inputAmount",
          "type": "uint256"
        },
        {
          "internalType": "address[]",
          "name": "_path",
          "type": "address[]"
        }
      ],
      "name": "unwrapBrc20",
      "outputs": [],
      "stateMutability": "payable",
      "type": "function"
    },
    {
      "inputs": [],
      "name": "unwrapCounter",
      "outputs": [
        {
          "internalType": "uint256",
          "name": "",
          "type": "uint256"
        }
      ],
      "stateMutability": "view",
      "type": "function"
    },
    {
      "inputs": [],
      "name": "unwrapFee",
      "outputs": [
        {
          "internalType": "uint256",
          "name": "",
          "type": "uint256"
        }
      ],
      "stateMutability": "view",
      "type": "function"
    },
    {
      "inputs": [
        {
          "internalType": "uint256",
          "name": "",
          "type": "uint256"
        }
      ],
      "name": "unwrapFees",
      "outputs": [
        {
          "internalType": "uint256",
          "name": "",
          "type": "uint256"
        }
      ],
      "stateMutability": "view",
      "type": "function"
    },
    {
      "inputs": [
        {
          "internalType": "bytes4",
          "name": "_version",
          "type": "bytes4"
        },
        {
          "internalType": "bytes",
          "name": "_vin",
          "type": "bytes"
        },
        {
          "internalType": "bytes",
          "name": "_vout",
          "type": "bytes"
        },
        {
          "internalType": "bytes4",
          "name": "_locktime",
          "type": "bytes4"
        },
        {
          "internalType": "uint256",
          "name": "_blockNumber",
          "type": "uint256"
        },
        {
          "internalType": "bytes",
          "name": "_intermediateNodes",
          "type": "bytes"
        },
        {
          "internalType": "uint256",
          "name": "_index",
          "type": "uint256"
        },
        {
          "internalType": "uint256[]",
          "name": "_reqIndexes",
          "type": "uint256[]"
        }
      ],
      "name": "unwrapProof",
      "outputs": [],
      "stateMutability": "payable",
      "type": "function"
    },
    {
      "inputs": [
        {
          "internalType": "bytes4",
          "name": "_version",
          "type": "bytes4"
        },
        {
          "internalType": "bytes",
          "name": "_vin",
          "type": "bytes"
        },
        {
          "internalType": "bytes",
          "name": "_vout",
          "type": "bytes"
        },
        {
          "internalType": "bytes4",
          "name": "_locktime",
          "type": "bytes4"
        },
        {
          "internalType": "uint256",
          "name": "_blockNumber",
          "type": "uint256"
        },
        {
          "internalType": "bytes",
          "name": "_intermediateNodes",
          "type": "bytes"
        },
        {
          "internalType": "uint256",
          "name": "_index",
          "type": "uint256"
        },
        {
          "internalType": "address[]",
          "name": "_path",
          "type": "address[]"
        }
      ],
      "name": "wrapBrc20",
      "outputs": [],
      "stateMutability": "payable",
      "type": "function"
    },
    {
      "inputs": [],
      "name": "wrappedNativeToken",
      "outputs": [
        {
          "internalType": "address",
          "name": "",
          "type": "address"
        }
      ],
      "stateMutability": "view",
      "type": "function"
    },
    {
      "stateMutability": "payable",
      "type": "receive"
    }
  ],
  "transactionHash": "0xad8c11758b43f23fdbd3ed7c36dcc84a5ec90b070f2d7bb7a54a46315a9af9c9",
  "args": [],
  "numDeployments": 1,
  "solcInputHash": "894d7423135f7bebca14ef01d5bfaa9f",
  "bytecode": "0x608060405234801561001057600080fd5b506155c1806100206000396000f3fe6080604052600436106200021c5760003560e01c8063088302a6146200022957806309b53fd614620002595780630e72e41e1462000293578063171060ec14620002c957806317fcb39b14620002f05780631812adb614620003215780631e7107c714620003485780632104cb6b146200036d5780635b6a0b3b146200039257806361d027b314620003a95780636390802014620003cb5780636b2857ef14620003e35780636e8adf61146200040857806370872aa51462000442578063715018a6146200045a57806375122f62146200047257806376017e71146200049757806379224183146200058b5780637e43bd3d14620005b05780637ed5574814620005d5578063816c2e6a14620005fa5780638da5cb5b14620006115780639637e4a814620006295780639a7b78d2146200064e5780639a8a0592146200067f5780639aed427914620006975780639eca445314620006af578063a3696a091462000703578063a44c2b9a1462000728578063b3ff9f49146200074d578063b4e183f41462000774578063b4fd9a6c1462000799578063b59589d114620007b1578063c5a2b47a14620007d3578063c805f68b146200080f578063d4b639f51462000834578063d7b96d4e146200084b578063d8484ef5146200086d578063da058ae31462000898578063e901fe5714620008bd578063ef0e2ff414620008f7578063f0f44260146200091c578063f2fde38b146200094157600080fd5b366200022457005b600080fd5b3480156200023657600080fd5b506200024162000966565b604051620002509190620041d6565b60405180910390f35b3480156200026657600080fd5b506200027e62000278366004620036e3565b620009fc565b6040516200025097969594939291906200417c565b348015620002a057600080fd5b50620002b8620002b2366004620036e3565b62000af0565b604051901515815260200162000250565b348015620002d657600080fd5b50620002ee620002e8366004620035cf565b62000b3e565b005b348015620002fd57600080fd5b5060a95462000312906001600160a01b031681565b60405162000250919062003dca565b3480156200032e57600080fd5b506200033960995481565b60405190815260200162000250565b3480156200035557600080fd5b50620002ee62000367366004620036e3565b62000be7565b3480156200037a57600080fd5b50620002ee6200038c36600462003b61565b62000c48565b620002ee620003a336600462003c3a565b62000dd4565b348015620003b657600080fd5b50609d5462000312906001600160a01b031681565b348015620003d857600080fd5b5062000339609a5481565b348015620003f057600080fd5b50620002ee6200040236600462003aad565b62001370565b3480156200041557600080fd5b506200031262000427366004620036e3565b60a3602052600090815260409020546001600160a01b031681565b3480156200044f57600080fd5b506200033960975481565b3480156200046757600080fd5b50620002ee620013e3565b3480156200047f57600080fd5b50620002ee6200049136600462003adf565b620013ef565b348015620004a457600080fd5b5062000521620004b6366004620036e3565b60a260205260009081526040902080546001820154600283015460038401546004850154600586015460068701546007880154600889015460098a0154600a909a015460ff9099169997989697959694956001600160a01b039485169593851694929391929091168b565b604080519b15158c5260208c019a909a52988a0197909752606089019590955260808801939093526001600160a01b0391821660a0880152811660c087015260e0860191909152610100850191909152610120840191909152166101408201526101600162000250565b3480156200059857600080fd5b50620002ee620005aa36600462003a07565b620014b0565b348015620005bd57600080fd5b50620002ee620005cf366004620036e3565b620017b2565b348015620005e257600080fd5b50620002ee620005f4366004620036e3565b62001943565b620002ee6200060b36600462003810565b620019e2565b3480156200061e57600080fd5b506200031262001e51565b3480156200063657600080fd5b50620002ee62000648366004620036e3565b62001e60565b3480156200065b57600080fd5b50620003396200066d366004620036e3565b60a16020526000908152604090205481565b3480156200068c57600080fd5b506200033960985481565b348015620006a457600080fd5b506200033960a85481565b348015620006bc57600080fd5b50620006f3620006ce366004620036e3565b60a760205260009081526040902080546001909101546001600160a01b039091169082565b6040516200025092919062003f60565b3480156200071057600080fd5b50620002ee62000722366004620035cf565b62001eab565b3480156200073557600080fd5b50620002b862000747366004620036e3565b62001f58565b3480156200075a57600080fd5b5060a654620003129061010090046001600160a01b031681565b3480156200078157600080fd5b50620002ee62000793366004620038fd565b62001f77565b348015620007a657600080fd5b5062000339609b5481565b348015620007be57600080fd5b50609c5462000312906001600160a01b031681565b348015620007e057600080fd5b5062000339620007f23660046200394e565b805160208183018101805160a08252928201919093012091525481565b3480156200081c57600080fd5b50620002ee6200082e366004620035cf565b62001fce565b620002ee6200084536600462003715565b6200206e565b3480156200085857600080fd5b50609e5462000312906001600160a01b031681565b3480156200087a57600080fd5b5060a654620008899060ff1681565b604051620002509190620041eb565b348015620008a557600080fd5b50620002ee620008b7366004620035cf565b620028e1565b348015620008ca57600080fd5b5062000312620008dc366004620036e3565b609f602052600090815260409020546001600160a01b031681565b3480156200090457600080fd5b50620002ee62000916366004620036e3565b62002938565b3480156200092957600080fd5b50620002ee6200093b366004620035cf565b62002947565b3480156200094e57600080fd5b50620002ee62000960366004620035cf565b620029e7565b60a580546200097590620045c2565b80601f0160208091040260200160405190810160405280929190818152602001828054620009a390620045c2565b8015620009f45780601f10620009c857610100808354040283529160200191620009f4565b820191906000526020600020905b815481529060010190602001808311620009d657829003601f168201915b505050505081565b60a4818154811062000a0d57600080fd5b600091825260209091206007909102018054600182015460028301546003840154600485015460058601805460ff90961697509395929491936001600160a01b03909116929162000a5e90620045c2565b80601f016020809104026020016040519081016040528092919081815260200182805462000a8c90620045c2565b801562000add5780601f1062000ab15761010080835404028352916020019162000add565b820191906000526020600020905b81548152906001019060200180831162000abf57829003601f168201915b5050506006909301549192505060ff1687565b600060a4828154811062000b1457634e487b7160e01b600052603260045260246000fd5b600091825260209091206007909102015460ff1662000b3557600062000b38565b60015b92915050565b806001600160a01b03811662000b715760405162461bcd60e51b815260040162000b68906200427d565b60405180910390fd5b62000b7b62002a66565b609e546040517f69253c7023f628e3a302b63087a3bfc1dfdb256780182f81b9f0df9eff9542b09162000bbc916001600160a01b0390911690859062003dde565b60405180910390a150609e80546001600160a01b0319166001600160a01b0392909216919091179055565b62000bf162002a66565b609754811162000c435760405162461bcd60e51b815260206004820152601c60248201527b21393199182937baba32b92637b3b4b19d103637bb90373ab6b132b960211b604482015260640162000b68565b609755565b600054610100900460ff161580801562000c695750600054600160ff909116105b8062000c855750303b15801562000c85575060005460ff166001145b62000cea5760405162461bcd60e51b815260206004820152602e60248201527f496e697469616c697a61626c653a20636f6e747261637420697320616c72656160448201526d191e481a5b9a5d1a585b1a5e995960921b606482015260840162000b68565b6000805460ff19166001179055801562000d0e576000805461ff0019166101001790555b62000d1862002ac9565b62000d2262002afd565b609889905562000d328b62000be7565b62000d3d8a62001943565b62000d488862001fce565b62000d538762000b3e565b62000d5f868662001f77565b62000d6a8462001eab565b62000d758362002947565b62000d8082620028e1565b801562000dc7576000805461ff0019169055604051600181527f7f26b83ff96e1f2b6a682f133852f6798a09c465da95921460cefb38474024989060200160405180910390a15b5050505050505050505050565b62000dde62002b31565b6000878152609f60205260409020546001600160a01b03168062000e455760405162461bcd60e51b815260206004820152601f60248201527f4272633230526f757465724c6f6769633a206e6f7420737570706f7274656400604482015260640162000b68565b60a85434111562000fac5760a85462000e5f90846200455a565b341462000eaf5760405162461bcd60e51b815260206004820152601d60248201527f4272633230526f757465724c6f6769633a2077726f6e672076616c7565000000604482015260640162000b68565b8160008151811062000ed157634e487b7160e01b600052603260045260246000fd5b602090810291909101015160a9546001600160a01b0390811691161462000f3b5760405162461bcd60e51b815260206004820152601e60248201527f4272633230526f757465724c6f6769633a20696e76616c696420706174680000604482015260640162000b68565b60a960009054906101000a90046001600160a01b03166001600160a01b031663d0e30db0846040518263ffffffff1660e01b81526004016000604051808303818588803b15801562000f8c57600080fd5b505af115801562000fa1573d6000803e3d6000fd5b505050505062000ffd565b60a854341462000ffd5760405162461bcd60e51b815260206004820152601b60248201527a4272633230526f757465724c6f6769633a2077726f6e672066656560281b604482015260640162000b68565b8151156200115e57816000815181106200102757634e487b7160e01b600052603260045260246000fd5b60200260200101516001600160a01b03166323b872dd3330866040518463ffffffff1660e01b8152600401620010609392919062003e26565b602060405180830381600087803b1580156200107b57600080fd5b505af115801562001090573d6000803e3d6000fd5b505050506040513d601f19601f82011682018060405250810190620010b6919062003614565b50600080620010c98630878c8862002b8d565b91509150816200111c5760405162461bcd60e51b815260206004820152601d60248201527f4272633230526f757465724c6f6769633a2073776170206661696c6564000000604482015260640162000b68565b80600182516200112d919062004575565b815181106200114c57634e487b7160e01b600052603260045260246000fd5b6020026020010151985050506200123e565b6040516323b872dd60e01b81526001600160a01b038216906323b872dd906200119090339030908c9060040162003e26565b602060405180830381600087803b158015620011ab57600080fd5b505af1158015620011c0573d6000803e3d6000fd5b505050506040513d601f19601f82011682018060405250810190620011e6919062003614565b6200123e5760405162461bcd60e51b815260206004820152602160248201527f4272633230526f757465724c6f6769633a207472616e73666572206661696c656044820152601960fa1b606482015260840162000b68565b6000806000620012528c858c8c8c62002ddd565b925092509250845160001415620012c9577f9245034e6419d899e7a844e3ab8408df930d46c6588e4d7011bfa4a208175a9f338a8a878e868960a8548a600160a480549050620012a3919062004575565b604051620012bb9a9998979695949392919062003e4a565b60405180910390a162001357565b7ffef70b533aedc3db21a2f18be6e6e7d74414dc77b8a44dd9093afb569fbf12a0338a8a89896000815181106200131057634e487b7160e01b600052603260045260246000fd5b60200260200101518f878b8b60a8548c600160a48054905062001334919062004575565b6040516200134e9c9b9a9998979695949392919062003ece565b60405180910390a15b50505050620013666001606555565b5050505050505050565b6200137a62002a66565b7f31a8c4e62daac2a3ed5d713004d9ae867d6dcddfa35603db2a4b65d9236b1bc18282604051620013ad929190620042ff565b60405180910390a1600091825260a3602052604090912080546001600160a01b0319166001600160a01b03909216919091179055565b620013ed62002a66565b565b620013f962002a66565b600083815260a76020908152604091829020805460019091015483518781526001600160a01b039283169381019390935282840152841660608201526080810183905290517f23385740814648db624aa52a0c990fc42def14e1b04e7fe5b2bf87b85e1294529181900360a00190a16040805180820182526001600160a01b0393841681526020808201938452600095865260a790529320925183546001600160a01b031916921691909117825551600190910155565b620014ba62002a66565b6000818152609f60205260409020546001600160a01b0316156200151d5760405162461bcd60e51b8152602060048201526019602482015278109c98cc8c149bdd5d195c931bd9da58ce881d5cd959081a59603a1b604482015260640162000b68565b60007310d3cd258ec981eba81715190660c56387f278D063dbf34f026040518163ffffffff1660e01b815260040160206040518083038186803b1580156200156457600080fd5b505af415801562001579573d6000803e3d6000fd5b505050506040513d601f19601f820116820180604052508101906200159f9190620035f5565b90506060600082620015b062001e51565b83604051620015bf90620032fe565b620015cd9392919062003df8565b604051809103906000f080158015620015ea573d6000803e3d6000fd5b50604051630b127b6360e11b815290915081906001600160a01b03821690631624f6c69062001622908a9081908b90600401620041fb565b600060405180830381600087803b1580156200163d57600080fd5b505af115801562001652573d6000803e3d6000fd5b5050604051634c1d96ab60e11b81526001600160a01b038416925063983b2d5691506200168490309060040162003dca565b600060405180830381600087803b1580156200169f57600080fd5b505af1158015620016b4573d6000803e3d6000fd5b5050604051637a231bdd60e11b81526001600160a01b038416925063f44637ba9150620016e690309060040162003dca565b600060405180830381600087803b1580156200170157600080fd5b505af115801562001716573d6000803e3d6000fd5b5050506000868152609f60205260409081902080546001600160a01b0319166001600160a01b0385161790555186915060a09062001756908a9062003dac565b9081526020016040518091039020819055507f20359fc049b8e035e3e74b3b4c6ba473d295e6a5b64ed7d1ba68a422d2ebe58e8787878488604051620017a195949392919062004238565b60405180910390a150505050505050565b620017bc62002a66565b6000818152609f60205260409020546001600160a01b03166200181f5760405162461bcd60e51b815260206004820152601a60248201527921393199182937baba32b92637b3b4b19d103737903a37b5b2b760311b604482015260640162000b68565b6000818152609f6020526040908190205490517fac0bcdf003615c60a0c51d67379bde3d2fb4aaeade0aa8ecd7a4f176389bf37f916200186b9184916001600160a01b031690620042ff565b60405180910390a16000818152609f60205260408082205481516306fdde0360e01b8152915160a0926001600160a01b03909216916306fdde039160048083019287929190829003018186803b158015620018c557600080fd5b505afa158015620018da573d6000803e3d6000fd5b505050506040513d6000823e601f3d908101601f191682016040526200190491908101906200398c565b60405162001913919062003dac565b9081526040805160209281900383019020929092556000928352609f9052902080546001600160a01b0319169055565b6200194d62002a66565b806127101015620019a15760405162461bcd60e51b815260206004820152601e60248201527f4272633230526f757465724c6f6769633a206f7574206f662072616e67650000604482015260640162000b68565b60995460408051918252602082018390527f7d205f60891f60851c61cd244ba387d72b6589e7c0ac41b9d909ab0ce2c2a53b910160405180910390a1609955565b620019ec62002b31565b609e546001600160a01b0316336001600160a01b03161462001a505760405162461bcd60e51b815260206004820152601c60248201527b21393199182937baba32b92637b3b4b19d103737ba103637b1b5b2b960211b604482015260640162000b68565b609754609c5460405163e291283d60e01b81526000927310d3cd258ec981eba81715190660c56387f278D09263e291283d9262001aa992916001600160a01b0316908e908e908e908e908e908e908e90600401620043ab565b60206040518083038186803b15801562001ac257600080fd5b505af415801562001ad7573d6000803e3d6000fd5b505050506040513d601f19601f8201168201806040525081019062001afd9190620036fc565b905060005b825181101562001e445760a483828151811062001b2f57634e487b7160e01b600052603260045260246000fd5b60200260200101518154811062001b5657634e487b7160e01b600052603260045260246000fd5b600091825260209091206007909102015460ff161562001bc55760405162461bcd60e51b815260206004820152602360248201527f4272633230526f757465724c6f6769633a20616c72656164792070726f6365736044820152621cd95960ea1b606482015260840162000b68565b600160a484838151811062001bea57634e487b7160e01b600052603260045260246000fd5b60200260200101518154811062001c1157634e487b7160e01b600052603260045260246000fd5b906000526020600020906007020160000160006101000a81548160ff0219169083151502179055507f08119c760cc375c1dd147b186911ded607af85895d04b3c92c86e1be0cc0e53360a484838151811062001c7d57634e487b7160e01b600052603260045260246000fd5b60200260200101518154811062001ca457634e487b7160e01b600052603260045260246000fd5b906000526020600020906007020160040160009054906101000a90046001600160a01b031660a485848151811062001cec57634e487b7160e01b600052603260045260246000fd5b60200260200101518154811062001d1357634e487b7160e01b600052603260045260246000fd5b90600052602060002090600702016002015460a486858151811062001d4857634e487b7160e01b600052603260045260246000fd5b60200260200101518154811062001d6f57634e487b7160e01b600052603260045260246000fd5b906000526020600020906007020160050160a487868151811062001da357634e487b7160e01b600052603260045260246000fd5b60200260200101518154811062001dca57634e487b7160e01b600052603260045260246000fd5b906000526020600020906007020160060160009054906101000a900460ff1687868151811062001e0a57634e487b7160e01b600052603260045260246000fd5b60200260200101518760405162001e279695949392919062004018565b60405180910390a18062001e3b81620045ff565b91505062001b02565b5050620013666001606555565b6033546001600160a01b031690565b62001e6a62002a66565b60a85460408051918252602082018390527f24a1cf21e7b4eac23dffa41704078ed28bbe2a42187f6aa014899c5413cd01b7910160405180910390a160a855565b806001600160a01b03811662001ed55760405162461bcd60e51b815260040162000b68906200427d565b62001edf62002a66565b7f150b77d21bd499fd0dccea9fe32513c7b65aa34ccde41e7dafac74ace8e19c9460a660019054906101000a90046001600160a01b03168360405162001f2792919062003dde565b60405180910390a15060a680546001600160a01b0390921661010002610100600160a81b0319909216919091179055565b600081815260a2602052604081205460ff1662000b3557600062000b38565b62001f8162002a66565b815162001f969060a59060208501906200330c565b5060a6805482919060ff1916600183600581111562001fc557634e487b7160e01b600052602160045260246000fd5b02179055505050565b806001600160a01b03811662001ff85760405162461bcd60e51b815260040162000b68906200427d565b6200200262002a66565b609c546040517f4c28a3f61a715259c4dc930c23e7423b8fa52e13232c061a6e488729c66184f49162002043916001600160a01b0390911690859062003dde565b60405180910390a150609c80546001600160a01b0319166001600160a01b0392909216919091179055565b6200207862002b31565b60a65461010090046001600160a01b0316336001600160a01b031614620020e25760405162461bcd60e51b815260206004820181905260248201527f4272633230526f757465724c6f6769633a206e6f742074656c65706f72746572604482015260640162000b68565b60007310d3cd258ec981eba81715190660c56387f278D063e291283d609754609c60009054906101000a90046001600160a01b03168e8e8e8e8e8e8e8e8e6040518c63ffffffff1660e01b8152600401620021489b9a9998979695949392919062004316565b60206040518083038186803b1580156200216157600080fd5b505af415801562002176573d6000803e3d6000fd5b505050506040513d601f19601f820116820180604052508101906200219c9190620036fc565b90506000806000807310d3cd258ec981eba81715190660c56387f278D06314e3f5ba6098548f8f8960a2609f60a7609954609a546040518a63ffffffff1660e01b8152600401620021f6999897969594939291906200443c565b60c06040518083038186803b1580156200220f57600080fd5b505af415801562002224573d6000803e3d6000fd5b505050506040513d601f19601f820116820180604052508101906200224a919062003b08565b9350935093509350806001600160a01b03166340c10f1930868660400151876020015188600001516200227e91906200455a565b6200228a91906200455a565b6200229691906200455a565b6040518363ffffffff1660e01b8152600401620022b592919062003f60565b602060405180830381600087803b158015620022d057600080fd5b505af1158015620022e5573d6000803e3d6000fd5b505050506040513d601f19601f820116820180604052508101906200230b919062003614565b50609d54835160405163a9059cbb60e01b81526001600160a01b038481169363a9059cbb936200234393929091169160040162003f60565b602060405180830381600087803b1580156200235e57600080fd5b505af115801562002373573d6000803e3d6000fd5b505050506040513d601f19601f8201168201806040525081019062002399919062003614565b50609e54602084015160405163a9059cbb60e01b81526001600160a01b038481169363a9059cbb93620023d493929091169160040162003f60565b602060405180830381600087803b158015620023ef57600080fd5b505af115801562002404573d6000803e3d6000fd5b505050506040513d601f19601f820116820180604052508101906200242a919062003614565b506001600160a01b03821615620024c657604080840151905163a9059cbb60e01b81526001600160a01b0383169163a9059cbb916200246e91869160040162003f60565b602060405180830381600087803b1580156200248957600080fd5b505af11580156200249e573d6000803e3d6000fd5b505050506040513d601f19601f82011682018060405250810190620024c4919062003614565b505b600085815260a26020908152604091829020825161016081018452815460ff16151581526001820154928101929092526002810154928201839052600381015460608301526004810154608083015260058101546001600160a01b0390811660a08401526006820154811660c0840152600782015460e084015260088201546101008401526009820154610120840152600a909101541661014082015290620026415760c081015160405163a9059cbb60e01b81526001600160a01b0384169163a9059cbb916200259d9190899060040162003f60565b602060405180830381600087803b158015620025b857600080fd5b505af1158015620025cd573d6000803e3d6000fd5b505050506040513d601f19601f82011682018060405250810190620025f3919062003614565b507ff5174e3d205e90d004603fff7abb7ca825930316da524c695d7fc44743d46b3f8160c00151868487878b604051620026339695949392919062003f79565b60405180910390a1620028c4565b8060a001516001600160a01b0316876000815181106200267157634e487b7160e01b600052603260045260246000fd5b60200260200101516001600160a01b0316148015620026dd57508061014001516001600160a01b03168760018951620026ab919062004575565b81518110620026ca57634e487b7160e01b600052603260045260246000fd5b60200260200101516001600160a01b0316145b620027295760405162461bcd60e51b815260206004820152601b60248201527a084eae4dca4deeae8cae498deced2c67440eee4dedcce40e0c2e8d602b1b604482015260640162000b68565b6000806200274883604001518460c00151898661012001518d62002b8d565b915091508115620027e0577fca04ecaf3fb275dc79a794a25203551513f694ae5cfb19961592fb03b5871bfa8360c00151888684600186516200278c919062004575565b81518110620027ab57634e487b7160e01b600052603260045260246000fd5b60200260200101518761014001518b8b8f604051620027d298979695949392919062003fbf565b60405180910390a1620028c1565b7fe73bd25650ca980817885f0860ecd707a8d13f5cb6290e06e8e764e50418e5cc8360c0015188868661012001518761014001518b8b8f6040516200282d98979695949392919062003fbf565b60405180910390a160c083015160405163a9059cbb60e01b81526001600160a01b0386169163a9059cbb916200286991908b9060040162003f60565b602060405180830381600087803b1580156200288457600080fd5b505af115801562002899573d6000803e3d6000fd5b505050506040513d601f19601f82011682018060405250810190620028bf919062003614565b505b50505b505050505050620028d56001606555565b50505050505050505050565b806001600160a01b0381166200290b5760405162461bcd60e51b815260040162000b68906200427d565b6200291562002a66565b5060a980546001600160a01b0319166001600160a01b0392909216919091179055565b6200294262002a66565b609855565b806001600160a01b038116620029715760405162461bcd60e51b815260040162000b68906200427d565b6200297b62002a66565b609d546040517f567657fa3f286518b318f4a29870674f433f622fdfc819691acb13105b22822591620029bc916001600160a01b0390911690859062003dde565b60405180910390a150609d80546001600160a01b0319166001600160a01b0392909216919091179055565b620029f162002a66565b6001600160a01b03811662002a585760405162461bcd60e51b815260206004820152602660248201527f4f776e61626c653a206e6577206f776e657220697320746865207a65726f206160448201526564647265737360d01b606482015260840162000b68565b62002a63816200312c565b50565b3362002a7162001e51565b6001600160a01b031614620013ed5760405162461bcd60e51b815260206004820181905260248201527f4f776e61626c653a2063616c6c6572206973206e6f7420746865206f776e6572604482015260640162000b68565b600054610100900460ff1662002af35760405162461bcd60e51b815260040162000b6890620042b4565b620013ed6200317e565b600054610100900460ff1662002b275760405162461bcd60e51b815260040162000b6890620042b4565b620013ed620031b3565b6002606554141562002b865760405162461bcd60e51b815260206004820152601f60248201527f5265656e7472616e637947756172643a207265656e7472616e742063616c6c00604482015260640162000b68565b6002606555565b600085815260a360205260408120546060906001600160a01b03168062002bf75760405162461bcd60e51b815260206004820152601e60248201527f4275726e526f757465724c6f6769633a20696e76616c69642061707049640000604482015260640162000b68565b8360008151811062002c1957634e487b7160e01b600052603260045260246000fd5b60200260200101516001600160a01b031663095ea7b382886040518363ffffffff1660e01b815260040162002c5092919062003f60565b602060405180830381600087803b15801562002c6b57600080fd5b505af115801562002c80573d6000803e3d6000fd5b505050506040513d601f19601f8201168201806040525081019062002ca6919062003614565b506040516326d2f28960e21b81526001600160a01b03821690639b4bca249062002cd590879060040162004167565b60206040518083038186803b15801562002cee57600080fd5b505afa15801562002d03573d6000803e3d6000fd5b505050506040513d601f19601f8201168201806040525081019062002d29919062003614565b1562002dcd5760405163161779b160e31b81526001600160a01b0382169063b0bbcd889062002d68908990899089908d9042906001906004016200448d565b600060405180830381600087803b15801562002d8357600080fd5b505af115801562002d98573d6000803e3d6000fd5b505050506040513d6000823e601f3d908101601f1916820160405262002dc2919081019062003631565b909350915062002dd2565b600092505b509550959350505050565b62002e0260405180606001604052806000815260200160008152602001600081525090565b6000807310d3cd258ec981eba81715190660c56387f278D063020c8d9733609954609a5460a460a78e8d8d8d6040518a63ffffffff1660e01b815260040162002e5499989796959493929190620040fe565b60a06040518083038186803b15801562002e6d57600080fd5b505af415801562002e82573d6000803e3d6000fd5b505050506040513d601f19601f8201168201806040525081019062002ea8919062003a68565b609b80549396509194509250600062002ec183620045ff565b9091555050609d54835160405163a9059cbb60e01b81526001600160a01b038a81169363a9059cbb9362002efd93929091169160040162003f60565b602060405180830381600087803b15801562002f1857600080fd5b505af115801562002f2d573d6000803e3d6000fd5b505050506040513d601f19601f8201168201806040525081019062002f53919062003614565b50609e54602084015160405163a9059cbb60e01b81526001600160a01b038a81169363a9059cbb9362002f8e93929091169160040162003f60565b602060405180830381600087803b15801562002fa957600080fd5b505af115801562002fbe573d6000803e3d6000fd5b505050506040513d601f19601f8201168201806040525081019062002fe4919062003614565b50609e5460a85462003000916001600160a01b031690620031dd565b6001600160a01b038216156200309b57604080840151905163a9059cbb60e01b81526001600160a01b0389169163a9059cbb916200304391869160040162003f60565b602060405180830381600087803b1580156200305e57600080fd5b505af115801562003073573d6000803e3d6000fd5b505050506040513d601f19601f8201168201806040525081019062003099919062003614565b505b604051630852cd8d60e31b8152600481018290526001600160a01b038816906342966c6890602401602060405180830381600087803b158015620030de57600080fd5b505af1158015620030f3573d6000803e3d6000fd5b505050506040513d601f19601f8201168201806040525081019062003119919062003614565b50955095509592505050565b6001606555565b603380546001600160a01b038381166001600160a01b0319831681179093556040519116919082907f8be0079c531659141344cd1fd0a4f28419497f9722a3daafe3b4186f6b6457e090600090a35050565b600054610100900460ff16620031a85760405162461bcd60e51b815260040162000b6890620042b4565b620013ed336200312c565b600054610100900460ff16620031255760405162461bcd60e51b815260040162000b6890620042b4565b804710156200322f5760405162461bcd60e51b815260206004820152601d60248201527f416464726573733a20696e73756666696369656e742062616c616e6365000000604482015260640162000b68565b6000826001600160a01b03168260405160006040518083038185875af1925050503d80600081146200327e576040519150601f19603f3d011682016040523d82523d6000602084013e62003283565b606091505b5050905080620032f95760405162461bcd60e51b815260206004820152603a60248201527f416464726573733a20756e61626c6520746f2073656e642076616c75652c20726044820152791958da5c1a595b9d081b585e481a185d99481c995d995c9d195960321b606482015260840162000b68565b505050565b610f2c806200466083390190565b8280546200331a90620045c2565b90600052602060002090601f0160209004810192826200333e576000855562003389565b82601f106200335957805160ff191683800117855562003389565b8280016001018555821562003389579182015b82811115620033895782518255916020019190600101906200336c565b50620033979291506200339b565b5090565b5b808211156200339757600081556001016200339c565b600082601f830112620033c3578081fd5b81356020620033dc620033d6836200450a565b620044d7565b80838252828201915082860187848660051b8901011115620033fc578586fd5b855b8581101562003427578135620034148162004649565b84529284019290840190600101620033fe565b5090979650505050505050565b600082601f83011262003445578081fd5b8135602062003458620033d6836200450a565b80838252828201915082860187848660051b890101111562003478578586fd5b855b8581101562003427578135845292840192908401906001016200347a565b80518015158114620034a957600080fd5b919050565b80356001600160e01b031981168114620034a957600080fd5b60008083601f840112620034d9578182fd5b5081356001600160401b03811115620034f0578182fd5b6020830191508360208285010111156200350957600080fd5b9250929050565b600082601f83011262003521578081fd5b813562003532620033d68262004530565b81815284602083860101111562003547578283fd5b816020850160208301379081016020019190915292915050565b803560068110620034a957600080fd5b60006060828403121562003583578081fd5b604051606081016001600160401b0381118282101715620035a857620035a862004633565b80604052508091508251815260208301516020820152604083015160408201525092915050565b600060208284031215620035e1578081fd5b8135620035ee8162004649565b9392505050565b60006020828403121562003607578081fd5b8151620035ee8162004649565b60006020828403121562003626578081fd5b620035ee8262003498565b6000806040838503121562003644578081fd5b6200364f8362003498565b602084810151919350906001600160401b038111156200366d578283fd5b8401601f810186136200367e578283fd5b80516200368f620033d6826200450a565b80828252848201915084840189868560051b8701011115620036af578687fd5b8694505b83851015620036d3578051835260019490940193918501918501620036b3565b5080955050505050509250929050565b600060208284031215620036f5578081fd5b5035919050565b6000602082840312156200370e578081fd5b5051919050565b6000806000806000806000806000806101008b8d03121562003735578586fd5b620037408b620034ae565b995060208b01356001600160401b03808211156200375c578788fd5b6200376a8e838f0162003510565b9a5060408d013591508082111562003780578788fd5b6200378e8e838f01620034c7565b909a509850889150620037a460608e01620034ae565b975060808d0135965060a08d0135915080821115620037c1578586fd5b620037cf8e838f01620034c7565b909650945060c08d0135935060e08d0135915080821115620037ef578283fd5b50620037fe8d828e01620033b2565b9150509295989b9194979a5092959850565b600080600080600080600080610100898b0312156200382d578182fd5b6200383889620034ae565b975060208901356001600160401b038082111562003854578384fd5b620038628c838d0162003510565b985060408b013591508082111562003878578384fd5b620038868c838d0162003510565b97506200389660608c01620034ae565b965060808b0135955060a08b0135915080821115620038b3578384fd5b620038c18c838d0162003510565b945060c08b0135935060e08b0135915080821115620038de578283fd5b50620038ed8b828c0162003434565b9150509295985092959890939650565b6000806040838503121562003910578182fd5b82356001600160401b0381111562003926578283fd5b620039348582860162003510565b925050620039456020840162003561565b90509250929050565b60006020828403121562003960578081fd5b81356001600160401b0381111562003976578182fd5b620039848482850162003510565b949350505050565b6000602082840312156200399e578081fd5b81516001600160401b03811115620039b4578182fd5b8201601f81018413620039c5578182fd5b8051620039d6620033d68262004530565b818152856020838501011115620039eb578384fd5b620039fe8260208301602086016200458f565b95945050505050565b60008060006060848603121562003a1c578081fd5b83356001600160401b0381111562003a32578182fd5b62003a408682870162003510565b935050602084013560ff8116811462003a57578182fd5b929592945050506040919091013590565b600080600060a0848603121562003a7d578081fd5b62003a89858562003571565b9250606084015162003a9b8162004649565b80925050608084015190509250925092565b6000806040838503121562003ac0578182fd5b82359150602083013562003ad48162004649565b809150509250929050565b60008060006060848603121562003af4578081fd5b83359250602084013562003a578162004649565b60008060008060c0858703121562003b1e578182fd5b8451935062003b31866020870162003571565b9250608085015162003b438162004649565b60a086015190925062003b568162004649565b939692955090935050565b6000806000806000806000806000806101408b8d03121562003b81578384fd5b8a35995060208b0135985060408b0135975060608b013562003ba38162004649565b965060808b013562003bb58162004649565b955060a08b01356001600160401b0381111562003bd0578485fd5b62003bde8d828e0162003510565b95505062003bef60c08c0162003561565b935060e08b013562003c018162004649565b92506101008b013562003c148162004649565b91506101208b013562003c278162004649565b809150509295989b9194979a5092959850565b600080600080600080600080610100898b03121562003c57578182fd5b88359750602089013596506040890135955060608901356001600160401b038082111562003c83578384fd5b62003c918c838d0162003510565b965062003ca160808c0162003561565b955060a08b0135945060c08b0135935060e08b013591508082111562003cc5578283fd5b50620038ed8b828c01620033b2565b6000815180845260208085019450808401835b8381101562003d0e5781516001600160a01b03168752958201959082019060010162003ce7565b509495945050505050565b81835281816020850137506000828201602090810191909152601f909101601f19169091010190565b6000815180845262003d5c8160208601602086016200458f565b601f01601f19169290920160200192915050565b6006811062003d8f57634e487b7160e01b600052602160045260246000fd5b9052565b8051825260208082015190830152604090810151910152565b6000825162003dc08184602087016200458f565b9190910192915050565b6001600160a01b0391909116815260200190565b6001600160a01b0392831681529116602082015260400190565b6001600160a01b03848116825283166020820152606060408201819052600090620039fe9083018462003d42565b6001600160a01b039384168152919092166020820152604081019190915260600190565b6001600160a01b038b811682526101806020830181905260009162003e728483018e62003d42565b925062003e83604085018d62003d70565b808b1660608501528960808501528860a085015262003ea660c085018962003d93565b866101208501528086166101408501525050826101608301529b9a5050505050505050505050565b600060018060a01b03808f1683526101c0602084015262003ef46101c084018f62003d42565b915062003f05604084018e62003d70565b8b6060840152808b1660808401528960a08401528860c084015280881660e084015262003f3761010084018862003d93565b8561016084015280851661018084015250826101a08301529d9c50505050505050505050505050565b6001600160a01b03929092168252602082015260400190565b6001600160a01b03878116825260208201879052858116604083015261010082019062003faa606084018762003d93565b9390931660c082015260e00152949350505050565b6001600160a01b03898116825260208201899052878116604083015260608201879052858116608083015261014082019062003fff60a084018762003d93565b9390931661010082015261012001529695505050505050565b6001600160a01b0387168152602080820187905260c060408301528554600091908290600181811c90828116806200405157607f831692505b8583108114156200407057634e487b7160e01b87526022600452602487fd5b60c0880183905260e08801818015620040925760018114620040a457620040d0565b60ff19861682528782019650620040d0565b60008e815260209020895b86811015620040ca57815484820152908501908901620040af565b83019750505b5050505050508092505050620040ea606083018662003d70565b608082019390935260a00152949350505050565b600061012060018060a01b038c1683528a60208401528960408401528860608401528760808401528660a08401528560c08401528060e0840152620041468184018662003d42565b9150506200415961010083018462003d70565b9a9950505050505050505050565b602081526000620035ee602083018462003cd4565b871515815286602082015285604082015284606082015260018060a01b038416608082015260e060a08201526000620041b960e083018562003d42565b9050620041ca60c083018462003d70565b98975050505050505050565b602081526000620035ee602083018462003d42565b6020810162000b38828462003d70565b60608152600062004210606083018662003d42565b828103602084015262004224818662003d42565b91505060ff83166040830152949350505050565b60a0815260006200424d60a083018862003d42565b60ff9690961660208301525060408101939093526001600160a01b03918216606084015216608090910152919050565b6020808252601e908201527f4272633230526f757465724c6f6769633a207a65726f20616464726573730000604082015260600190565b6020808252602b908201527f496e697469616c697a61626c653a20636f6e7472616374206973206e6f74206960408201526a6e697469616c697a696e6760a81b606082015260800190565b9182526001600160a01b0316602082015260400190565b8b81526001600160a01b038b1660208201526001600160e01b03198a8116604083015261012060608301819052600091620043548483018d62003d42565b915083820360808501526200436b828b8d62003d19565b915080891660a0850152508660c084015282810360e08401526200439181868862003d19565b915050826101008301529c9b505050505050505050505050565b8981526001600160a01b03891660208201526001600160e01b0319888116604083015261012060608301819052600091620043e98483018b62003d42565b91508382036080850152620043ff828a62003d42565b915080881660a0850152508560c084015282810360e084015262004424818662003d42565b915050826101008301529a9950505050505050505050565b60006101008b8352806020840152620044598184018b8d62003d19565b604084019990995250506060810195909552608085019390935260a084019190915260c083015260e0909101529392505050565b86815285602082015260c060408201526000620044ae60c083018762003cd4565b6001600160a01b03959095166060830152506080810192909252151560a0909101529392505050565b604051601f8201601f191681016001600160401b038111828210171562004502576200450262004633565b604052919050565b60006001600160401b0382111562004526576200452662004633565b5060051b60200190565b60006001600160401b038211156200454c576200454c62004633565b50601f01601f191660200190565b600082198211156200457057620045706200461d565b500190565b6000828210156200458a576200458a6200461d565b500390565b60005b83811015620045ac57818101518382015260200162004592565b83811115620045bc576000848401525b50505050565b600181811c90821680620045d757607f821691505b60208210811415620045f957634e487b7160e01b600052602260045260246000fd5b50919050565b60006000198214156200461657620046166200461d565b5060010190565b634e487b7160e01b600052601160045260246000fd5b634e487b7160e01b600052604160045260246000fd5b6001600160a01b038116811462002a6357600080fdfe608060405260405162000f2c38038062000f2c8339810160408190526200002691620004e0565b82828282816200005860017f360894a13ba1a3210667c828492db98dca3e2076cc3735a920a3ca505d382bbd6200060f565b60008051602062000ee5833981519152146200008457634e487b7160e01b600052600160045260246000fd5b620000928282600062000105565b50620000c2905060017fb53127684a568b3173ae13b9f8a6016e243e63b6e8ee1178d6a717850b5d61046200060f565b60008051602062000ec583398151915214620000ee57634e487b7160e01b600052600160045260246000fd5b620000f98262000142565b50505050505062000678565b62000110836200019d565b6000825111806200011e5750805b156200013d576200013b8383620001df60201b620002601760201c565b505b505050565b7f7e644d79422f17c01e4894b5f4f588d331ebfa28653d42ae832dc59e38c9798f6200016d6200020e565b604080516001600160a01b03928316815291841660208301520160405180910390a16200019a8162000247565b50565b620001a881620002fc565b6040516001600160a01b038216907fbc7cd75a20ee27fd9adebab32041f755214dbc6bffa90cc0225b39da2e5c2d3b90600090a250565b606062000207838360405180606001604052806027815260200162000f05602791396200039f565b9392505050565b60006200023860008051602062000ec583398151915260001b6200047c60201b620002081760201c565b546001600160a01b0316919050565b6001600160a01b038116620002b25760405162461bcd60e51b815260206004820152602660248201527f455243313936373a206e65772061646d696e20697320746865207a65726f206160448201526564647265737360d01b60648201526084015b60405180910390fd5b80620002db60008051602062000ec583398151915260001b6200047c60201b620002081760201c565b80546001600160a01b0319166001600160a01b039290921691909117905550565b62000312816200047f60201b6200028c1760201c565b620003765760405162461bcd60e51b815260206004820152602d60248201527f455243313936373a206e657720696d706c656d656e746174696f6e206973206e60448201526c1bdd08184818dbdb9d1c9858dd609a1b6064820152608401620002a9565b80620002db60008051602062000ee583398151915260001b6200047c60201b620002081760201c565b6060833b620004005760405162461bcd60e51b815260206004820152602660248201527f416464726573733a2064656c65676174652063616c6c20746f206e6f6e2d636f6044820152651b9d1c9858dd60d21b6064820152608401620002a9565b600080856001600160a01b0316856040516200041d9190620005bc565b600060405180830381855af49150503d80600081146200045a576040519150601f19603f3d011682016040523d82523d6000602084013e6200045f565b606091505b5090925090506200047282828662000485565b9695505050505050565b90565b3b151590565b606083156200049657508162000207565b825115620004a75782518084602001fd5b8160405162461bcd60e51b8152600401620002a99190620005da565b80516001600160a01b0381168114620004db57600080fd5b919050565b600080600060608486031215620004f5578283fd5b6200050084620004c3565b92506200051060208501620004c3565b60408501519092506001600160401b03808211156200052d578283fd5b818601915086601f83011262000541578283fd5b81518181111562000556576200055662000662565b604051601f8201601f19908116603f0116810190838211818310171562000581576200058162000662565b816040528281528960208487010111156200059a578586fd5b620005ad83602083016020880162000633565b80955050505050509250925092565b60008251620005d081846020870162000633565b9190910192915050565b6020815260008251806020840152620005fb81604085016020870162000633565b601f01601f19169190910160400192915050565b6000828210156200062e57634e487b7160e01b81526011600452602481fd5b500390565b60005b838110156200065057818101518382015260200162000636565b838111156200013b5750506000910152565b634e487b7160e01b600052604160045260246000fd5b61083d80620006886000396000f3fe60806040526004361061004e5760003560e01c80633659cfe6146100655780634f1ef286146100855780635c60da1b146100985780638f283970146100c9578063f851a440146100e95761005d565b3661005d5761005b6100fe565b005b61005b6100fe565b34801561007157600080fd5b5061005b61008036600461068e565b610118565b61005b6100933660046106a8565b61015f565b3480156100a457600080fd5b506100ad6101d0565b6040516001600160a01b03909116815260200160405180910390f35b3480156100d557600080fd5b5061005b6100e436600461068e565b61020b565b3480156100f557600080fd5b506100ad610235565b610106610292565b610116610111610331565b61033b565b565b61012061035f565b6001600160a01b0316336001600160a01b031614156101575761015481604051806020016040528060008152506000610380565b50565b6101546100fe565b61016761035f565b6001600160a01b0316336001600160a01b031614156101c8576101c38383838080601f01602080910402602001604051908101604052809392919081815260200183838082843760009201919091525060019250610380915050565b505050565b6101c36100fe565b60006101da61035f565b6001600160a01b0316336001600160a01b03161415610200576101fb610331565b905090565b6102086100fe565b90565b61021361035f565b6001600160a01b0316336001600160a01b0316141561015757610154816103ab565b600061023f61035f565b6001600160a01b0316336001600160a01b03161415610200576101fb61035f565b606061028583836040518060600160405280602781526020016107e1602791396103ff565b9392505050565b3b151590565b61029a61035f565b6001600160a01b0316336001600160a01b031614156101165760405162461bcd60e51b815260206004820152604260248201527f5472616e73706172656e745570677261646561626c6550726f78793a2061646d60448201527f696e2063616e6e6f742066616c6c6261636b20746f2070726f78792074617267606482015261195d60f21b608482015260a4015b60405180910390fd5b60006101fb6104d3565b3660008037600080366000845af43d6000803e80801561035a573d6000f35b3d6000fd5b60006000805160206107a18339815191525b546001600160a01b0316919050565b610389836104e9565b6000825111806103965750805b156101c3576103a58383610260565b50505050565b7f7e644d79422f17c01e4894b5f4f588d331ebfa28653d42ae832dc59e38c9798f6103d461035f565b604080516001600160a01b03928316815291841660208301520160405180910390a161015481610529565b6060833b61045e5760405162461bcd60e51b815260206004820152602660248201527f416464726573733a2064656c65676174652063616c6c20746f206e6f6e2d636f6044820152651b9d1c9858dd60d21b6064820152608401610328565b600080856001600160a01b0316856040516104799190610725565b600060405180830381855af49150503d80600081146104b4576040519150601f19603f3d011682016040523d82523d6000602084013e6104b9565b606091505b50915091506104c98282866105c0565b9695505050505050565b60006000805160206107c1833981519152610371565b6104f2816105f9565b6040516001600160a01b038216907fbc7cd75a20ee27fd9adebab32041f755214dbc6bffa90cc0225b39da2e5c2d3b90600090a250565b6001600160a01b03811661058e5760405162461bcd60e51b815260206004820152602660248201527f455243313936373a206e65772061646d696e20697320746865207a65726f206160448201526564647265737360d01b6064820152608401610328565b806000805160206107a18339815191525b80546001600160a01b0319166001600160a01b039290921691909117905550565b606083156105cf575081610285565b8251156105df5782518084602001fd5b8160405162461bcd60e51b81526004016103289190610741565b803b61065d5760405162461bcd60e51b815260206004820152602d60248201527f455243313936373a206e657720696d706c656d656e746174696f6e206973206e60448201526c1bdd08184818dbdb9d1c9858dd609a1b6064820152608401610328565b806000805160206107c183398151915261059f565b80356001600160a01b038116811461068957600080fd5b919050565b60006020828403121561069f578081fd5b61028582610672565b6000806000604084860312156106bc578182fd5b6106c584610672565b925060208401356001600160401b03808211156106e0578384fd5b818601915086601f8301126106f3578384fd5b813581811115610701578485fd5b876020828501011115610712578485fd5b6020830194508093505050509250925092565b60008251610737818460208701610774565b9190910192915050565b6020815260008251806020840152610760816040850160208701610774565b601f01601f19169190910160400192915050565b60005b8381101561078f578181015183820152602001610777565b838111156103a5575050600091015256feb53127684a568b3173ae13b9f8a6016e243e63b6e8ee1178d6a717850b5d6103360894a13ba1a3210667c828492db98dca3e2076cc3735a920a3ca505d382bbc416464726573733a206c6f772d6c6576656c2064656c65676174652063616c6c206661696c6564a2646970667358221220a08887e878dff12a030e39cd6d4f29ea9a216219710849bebd240087a169424e64736f6c63430008040033b53127684a568b3173ae13b9f8a6016e243e63b6e8ee1178d6a717850b5d6103360894a13ba1a3210667c828492db98dca3e2076cc3735a920a3ca505d382bbc416464726573733a206c6f772d6c6576656c2064656c65676174652063616c6c206661696c6564a264697066735822122061dfc0c83fcfeb25fcfacce4d2ed12eb5787108d19146f1028ee5b3d92ac3c7d64736f6c63430008040033",
  "deployedBytecode": "0x6080604052600436106200021c5760003560e01c8063088302a6146200022957806309b53fd614620002595780630e72e41e1462000293578063171060ec14620002c957806317fcb39b14620002f05780631812adb614620003215780631e7107c714620003485780632104cb6b146200036d5780635b6a0b3b146200039257806361d027b314620003a95780636390802014620003cb5780636b2857ef14620003e35780636e8adf61146200040857806370872aa51462000442578063715018a6146200045a57806375122f62146200047257806376017e71146200049757806379224183146200058b5780637e43bd3d14620005b05780637ed5574814620005d5578063816c2e6a14620005fa5780638da5cb5b14620006115780639637e4a814620006295780639a7b78d2146200064e5780639a8a0592146200067f5780639aed427914620006975780639eca445314620006af578063a3696a091462000703578063a44c2b9a1462000728578063b3ff9f49146200074d578063b4e183f41462000774578063b4fd9a6c1462000799578063b59589d114620007b1578063c5a2b47a14620007d3578063c805f68b146200080f578063d4b639f51462000834578063d7b96d4e146200084b578063d8484ef5146200086d578063da058ae31462000898578063e901fe5714620008bd578063ef0e2ff414620008f7578063f0f44260146200091c578063f2fde38b146200094157600080fd5b366200022457005b600080fd5b3480156200023657600080fd5b506200024162000966565b604051620002509190620041d6565b60405180910390f35b3480156200026657600080fd5b506200027e62000278366004620036e3565b620009fc565b6040516200025097969594939291906200417c565b348015620002a057600080fd5b50620002b8620002b2366004620036e3565b62000af0565b604051901515815260200162000250565b348015620002d657600080fd5b50620002ee620002e8366004620035cf565b62000b3e565b005b348015620002fd57600080fd5b5060a95462000312906001600160a01b031681565b60405162000250919062003dca565b3480156200032e57600080fd5b506200033960995481565b60405190815260200162000250565b3480156200035557600080fd5b50620002ee62000367366004620036e3565b62000be7565b3480156200037a57600080fd5b50620002ee6200038c36600462003b61565b62000c48565b620002ee620003a336600462003c3a565b62000dd4565b348015620003b657600080fd5b50609d5462000312906001600160a01b031681565b348015620003d857600080fd5b5062000339609a5481565b348015620003f057600080fd5b50620002ee6200040236600462003aad565b62001370565b3480156200041557600080fd5b506200031262000427366004620036e3565b60a3602052600090815260409020546001600160a01b031681565b3480156200044f57600080fd5b506200033960975481565b3480156200046757600080fd5b50620002ee620013e3565b3480156200047f57600080fd5b50620002ee6200049136600462003adf565b620013ef565b348015620004a457600080fd5b5062000521620004b6366004620036e3565b60a260205260009081526040902080546001820154600283015460038401546004850154600586015460068701546007880154600889015460098a0154600a909a015460ff9099169997989697959694956001600160a01b039485169593851694929391929091168b565b604080519b15158c5260208c019a909a52988a0197909752606089019590955260808801939093526001600160a01b0391821660a0880152811660c087015260e0860191909152610100850191909152610120840191909152166101408201526101600162000250565b3480156200059857600080fd5b50620002ee620005aa36600462003a07565b620014b0565b348015620005bd57600080fd5b50620002ee620005cf366004620036e3565b620017b2565b348015620005e257600080fd5b50620002ee620005f4366004620036e3565b62001943565b620002ee6200060b36600462003810565b620019e2565b3480156200061e57600080fd5b506200031262001e51565b3480156200063657600080fd5b50620002ee62000648366004620036e3565b62001e60565b3480156200065b57600080fd5b50620003396200066d366004620036e3565b60a16020526000908152604090205481565b3480156200068c57600080fd5b506200033960985481565b348015620006a457600080fd5b506200033960a85481565b348015620006bc57600080fd5b50620006f3620006ce366004620036e3565b60a760205260009081526040902080546001909101546001600160a01b039091169082565b6040516200025092919062003f60565b3480156200071057600080fd5b50620002ee62000722366004620035cf565b62001eab565b3480156200073557600080fd5b50620002b862000747366004620036e3565b62001f58565b3480156200075a57600080fd5b5060a654620003129061010090046001600160a01b031681565b3480156200078157600080fd5b50620002ee62000793366004620038fd565b62001f77565b348015620007a657600080fd5b5062000339609b5481565b348015620007be57600080fd5b50609c5462000312906001600160a01b031681565b348015620007e057600080fd5b5062000339620007f23660046200394e565b805160208183018101805160a08252928201919093012091525481565b3480156200081c57600080fd5b50620002ee6200082e366004620035cf565b62001fce565b620002ee6200084536600462003715565b6200206e565b3480156200085857600080fd5b50609e5462000312906001600160a01b031681565b3480156200087a57600080fd5b5060a654620008899060ff1681565b604051620002509190620041eb565b348015620008a557600080fd5b50620002ee620008b7366004620035cf565b620028e1565b348015620008ca57600080fd5b5062000312620008dc366004620036e3565b609f602052600090815260409020546001600160a01b031681565b3480156200090457600080fd5b50620002ee62000916366004620036e3565b62002938565b3480156200092957600080fd5b50620002ee6200093b366004620035cf565b62002947565b3480156200094e57600080fd5b50620002ee62000960366004620035cf565b620029e7565b60a580546200097590620045c2565b80601f0160208091040260200160405190810160405280929190818152602001828054620009a390620045c2565b8015620009f45780601f10620009c857610100808354040283529160200191620009f4565b820191906000526020600020905b815481529060010190602001808311620009d657829003601f168201915b505050505081565b60a4818154811062000a0d57600080fd5b600091825260209091206007909102018054600182015460028301546003840154600485015460058601805460ff90961697509395929491936001600160a01b03909116929162000a5e90620045c2565b80601f016020809104026020016040519081016040528092919081815260200182805462000a8c90620045c2565b801562000add5780601f1062000ab15761010080835404028352916020019162000add565b820191906000526020600020905b81548152906001019060200180831162000abf57829003601f168201915b5050506006909301549192505060ff1687565b600060a4828154811062000b1457634e487b7160e01b600052603260045260246000fd5b600091825260209091206007909102015460ff1662000b3557600062000b38565b60015b92915050565b806001600160a01b03811662000b715760405162461bcd60e51b815260040162000b68906200427d565b60405180910390fd5b62000b7b62002a66565b609e546040517f69253c7023f628e3a302b63087a3bfc1dfdb256780182f81b9f0df9eff9542b09162000bbc916001600160a01b0390911690859062003dde565b60405180910390a150609e80546001600160a01b0319166001600160a01b0392909216919091179055565b62000bf162002a66565b609754811162000c435760405162461bcd60e51b815260206004820152601c60248201527b21393199182937baba32b92637b3b4b19d103637bb90373ab6b132b960211b604482015260640162000b68565b609755565b600054610100900460ff161580801562000c695750600054600160ff909116105b8062000c855750303b15801562000c85575060005460ff166001145b62000cea5760405162461bcd60e51b815260206004820152602e60248201527f496e697469616c697a61626c653a20636f6e747261637420697320616c72656160448201526d191e481a5b9a5d1a585b1a5e995960921b606482015260840162000b68565b6000805460ff19166001179055801562000d0e576000805461ff0019166101001790555b62000d1862002ac9565b62000d2262002afd565b609889905562000d328b62000be7565b62000d3d8a62001943565b62000d488862001fce565b62000d538762000b3e565b62000d5f868662001f77565b62000d6a8462001eab565b62000d758362002947565b62000d8082620028e1565b801562000dc7576000805461ff0019169055604051600181527f7f26b83ff96e1f2b6a682f133852f6798a09c465da95921460cefb38474024989060200160405180910390a15b5050505050505050505050565b62000dde62002b31565b6000878152609f60205260409020546001600160a01b03168062000e455760405162461bcd60e51b815260206004820152601f60248201527f4272633230526f757465724c6f6769633a206e6f7420737570706f7274656400604482015260640162000b68565b60a85434111562000fac5760a85462000e5f90846200455a565b341462000eaf5760405162461bcd60e51b815260206004820152601d60248201527f4272633230526f757465724c6f6769633a2077726f6e672076616c7565000000604482015260640162000b68565b8160008151811062000ed157634e487b7160e01b600052603260045260246000fd5b602090810291909101015160a9546001600160a01b0390811691161462000f3b5760405162461bcd60e51b815260206004820152601e60248201527f4272633230526f757465724c6f6769633a20696e76616c696420706174680000604482015260640162000b68565b60a960009054906101000a90046001600160a01b03166001600160a01b031663d0e30db0846040518263ffffffff1660e01b81526004016000604051808303818588803b15801562000f8c57600080fd5b505af115801562000fa1573d6000803e3d6000fd5b505050505062000ffd565b60a854341462000ffd5760405162461bcd60e51b815260206004820152601b60248201527a4272633230526f757465724c6f6769633a2077726f6e672066656560281b604482015260640162000b68565b8151156200115e57816000815181106200102757634e487b7160e01b600052603260045260246000fd5b60200260200101516001600160a01b03166323b872dd3330866040518463ffffffff1660e01b8152600401620010609392919062003e26565b602060405180830381600087803b1580156200107b57600080fd5b505af115801562001090573d6000803e3d6000fd5b505050506040513d601f19601f82011682018060405250810190620010b6919062003614565b50600080620010c98630878c8862002b8d565b91509150816200111c5760405162461bcd60e51b815260206004820152601d60248201527f4272633230526f757465724c6f6769633a2073776170206661696c6564000000604482015260640162000b68565b80600182516200112d919062004575565b815181106200114c57634e487b7160e01b600052603260045260246000fd5b6020026020010151985050506200123e565b6040516323b872dd60e01b81526001600160a01b038216906323b872dd906200119090339030908c9060040162003e26565b602060405180830381600087803b158015620011ab57600080fd5b505af1158015620011c0573d6000803e3d6000fd5b505050506040513d601f19601f82011682018060405250810190620011e6919062003614565b6200123e5760405162461bcd60e51b815260206004820152602160248201527f4272633230526f757465724c6f6769633a207472616e73666572206661696c656044820152601960fa1b606482015260840162000b68565b6000806000620012528c858c8c8c62002ddd565b925092509250845160001415620012c9577f9245034e6419d899e7a844e3ab8408df930d46c6588e4d7011bfa4a208175a9f338a8a878e868960a8548a600160a480549050620012a3919062004575565b604051620012bb9a9998979695949392919062003e4a565b60405180910390a162001357565b7ffef70b533aedc3db21a2f18be6e6e7d74414dc77b8a44dd9093afb569fbf12a0338a8a89896000815181106200131057634e487b7160e01b600052603260045260246000fd5b60200260200101518f878b8b60a8548c600160a48054905062001334919062004575565b6040516200134e9c9b9a9998979695949392919062003ece565b60405180910390a15b50505050620013666001606555565b5050505050505050565b6200137a62002a66565b7f31a8c4e62daac2a3ed5d713004d9ae867d6dcddfa35603db2a4b65d9236b1bc18282604051620013ad929190620042ff565b60405180910390a1600091825260a3602052604090912080546001600160a01b0319166001600160a01b03909216919091179055565b620013ed62002a66565b565b620013f962002a66565b600083815260a76020908152604091829020805460019091015483518781526001600160a01b039283169381019390935282840152841660608201526080810183905290517f23385740814648db624aa52a0c990fc42def14e1b04e7fe5b2bf87b85e1294529181900360a00190a16040805180820182526001600160a01b0393841681526020808201938452600095865260a790529320925183546001600160a01b031916921691909117825551600190910155565b620014ba62002a66565b6000818152609f60205260409020546001600160a01b0316156200151d5760405162461bcd60e51b8152602060048201526019602482015278109c98cc8c149bdd5d195c931bd9da58ce881d5cd959081a59603a1b604482015260640162000b68565b600073__$3051d2319114b404c645910e906e49ea84$__63dbf34f026040518163ffffffff1660e01b815260040160206040518083038186803b1580156200156457600080fd5b505af415801562001579573d6000803e3d6000fd5b505050506040513d601f19601f820116820180604052508101906200159f9190620035f5565b90506060600082620015b062001e51565b83604051620015bf90620032fe565b620015cd9392919062003df8565b604051809103906000f080158015620015ea573d6000803e3d6000fd5b50604051630b127b6360e11b815290915081906001600160a01b03821690631624f6c69062001622908a9081908b90600401620041fb565b600060405180830381600087803b1580156200163d57600080fd5b505af115801562001652573d6000803e3d6000fd5b5050604051634c1d96ab60e11b81526001600160a01b038416925063983b2d5691506200168490309060040162003dca565b600060405180830381600087803b1580156200169f57600080fd5b505af1158015620016b4573d6000803e3d6000fd5b5050604051637a231bdd60e11b81526001600160a01b038416925063f44637ba9150620016e690309060040162003dca565b600060405180830381600087803b1580156200170157600080fd5b505af115801562001716573d6000803e3d6000fd5b5050506000868152609f60205260409081902080546001600160a01b0319166001600160a01b0385161790555186915060a09062001756908a9062003dac565b9081526020016040518091039020819055507f20359fc049b8e035e3e74b3b4c6ba473d295e6a5b64ed7d1ba68a422d2ebe58e8787878488604051620017a195949392919062004238565b60405180910390a150505050505050565b620017bc62002a66565b6000818152609f60205260409020546001600160a01b03166200181f5760405162461bcd60e51b815260206004820152601a60248201527921393199182937baba32b92637b3b4b19d103737903a37b5b2b760311b604482015260640162000b68565b6000818152609f6020526040908190205490517fac0bcdf003615c60a0c51d67379bde3d2fb4aaeade0aa8ecd7a4f176389bf37f916200186b9184916001600160a01b031690620042ff565b60405180910390a16000818152609f60205260408082205481516306fdde0360e01b8152915160a0926001600160a01b03909216916306fdde039160048083019287929190829003018186803b158015620018c557600080fd5b505afa158015620018da573d6000803e3d6000fd5b505050506040513d6000823e601f3d908101601f191682016040526200190491908101906200398c565b60405162001913919062003dac565b9081526040805160209281900383019020929092556000928352609f9052902080546001600160a01b0319169055565b6200194d62002a66565b806127101015620019a15760405162461bcd60e51b815260206004820152601e60248201527f4272633230526f757465724c6f6769633a206f7574206f662072616e67650000604482015260640162000b68565b60995460408051918252602082018390527f7d205f60891f60851c61cd244ba387d72b6589e7c0ac41b9d909ab0ce2c2a53b910160405180910390a1609955565b620019ec62002b31565b609e546001600160a01b0316336001600160a01b03161462001a505760405162461bcd60e51b815260206004820152601c60248201527b21393199182937baba32b92637b3b4b19d103737ba103637b1b5b2b960211b604482015260640162000b68565b609754609c5460405163e291283d60e01b815260009273__$3051d2319114b404c645910e906e49ea84$__9263e291283d9262001aa992916001600160a01b0316908e908e908e908e908e908e908e90600401620043ab565b60206040518083038186803b15801562001ac257600080fd5b505af415801562001ad7573d6000803e3d6000fd5b505050506040513d601f19601f8201168201806040525081019062001afd9190620036fc565b905060005b825181101562001e445760a483828151811062001b2f57634e487b7160e01b600052603260045260246000fd5b60200260200101518154811062001b5657634e487b7160e01b600052603260045260246000fd5b600091825260209091206007909102015460ff161562001bc55760405162461bcd60e51b815260206004820152602360248201527f4272633230526f757465724c6f6769633a20616c72656164792070726f6365736044820152621cd95960ea1b606482015260840162000b68565b600160a484838151811062001bea57634e487b7160e01b600052603260045260246000fd5b60200260200101518154811062001c1157634e487b7160e01b600052603260045260246000fd5b906000526020600020906007020160000160006101000a81548160ff0219169083151502179055507f08119c760cc375c1dd147b186911ded607af85895d04b3c92c86e1be0cc0e53360a484838151811062001c7d57634e487b7160e01b600052603260045260246000fd5b60200260200101518154811062001ca457634e487b7160e01b600052603260045260246000fd5b906000526020600020906007020160040160009054906101000a90046001600160a01b031660a485848151811062001cec57634e487b7160e01b600052603260045260246000fd5b60200260200101518154811062001d1357634e487b7160e01b600052603260045260246000fd5b90600052602060002090600702016002015460a486858151811062001d4857634e487b7160e01b600052603260045260246000fd5b60200260200101518154811062001d6f57634e487b7160e01b600052603260045260246000fd5b906000526020600020906007020160050160a487868151811062001da357634e487b7160e01b600052603260045260246000fd5b60200260200101518154811062001dca57634e487b7160e01b600052603260045260246000fd5b906000526020600020906007020160060160009054906101000a900460ff1687868151811062001e0a57634e487b7160e01b600052603260045260246000fd5b60200260200101518760405162001e279695949392919062004018565b60405180910390a18062001e3b81620045ff565b91505062001b02565b5050620013666001606555565b6033546001600160a01b031690565b62001e6a62002a66565b60a85460408051918252602082018390527f24a1cf21e7b4eac23dffa41704078ed28bbe2a42187f6aa014899c5413cd01b7910160405180910390a160a855565b806001600160a01b03811662001ed55760405162461bcd60e51b815260040162000b68906200427d565b62001edf62002a66565b7f150b77d21bd499fd0dccea9fe32513c7b65aa34ccde41e7dafac74ace8e19c9460a660019054906101000a90046001600160a01b03168360405162001f2792919062003dde565b60405180910390a15060a680546001600160a01b0390921661010002610100600160a81b0319909216919091179055565b600081815260a2602052604081205460ff1662000b3557600062000b38565b62001f8162002a66565b815162001f969060a59060208501906200330c565b5060a6805482919060ff1916600183600581111562001fc557634e487b7160e01b600052602160045260246000fd5b02179055505050565b806001600160a01b03811662001ff85760405162461bcd60e51b815260040162000b68906200427d565b6200200262002a66565b609c546040517f4c28a3f61a715259c4dc930c23e7423b8fa52e13232c061a6e488729c66184f49162002043916001600160a01b0390911690859062003dde565b60405180910390a150609c80546001600160a01b0319166001600160a01b0392909216919091179055565b6200207862002b31565b60a65461010090046001600160a01b0316336001600160a01b031614620020e25760405162461bcd60e51b815260206004820181905260248201527f4272633230526f757465724c6f6769633a206e6f742074656c65706f72746572604482015260640162000b68565b600073__$3051d2319114b404c645910e906e49ea84$__63e291283d609754609c60009054906101000a90046001600160a01b03168e8e8e8e8e8e8e8e8e6040518c63ffffffff1660e01b8152600401620021489b9a9998979695949392919062004316565b60206040518083038186803b1580156200216157600080fd5b505af415801562002176573d6000803e3d6000fd5b505050506040513d601f19601f820116820180604052508101906200219c9190620036fc565b905060008060008073__$3051d2319114b404c645910e906e49ea84$__6314e3f5ba6098548f8f8960a2609f60a7609954609a546040518a63ffffffff1660e01b8152600401620021f6999897969594939291906200443c565b60c06040518083038186803b1580156200220f57600080fd5b505af415801562002224573d6000803e3d6000fd5b505050506040513d601f19601f820116820180604052508101906200224a919062003b08565b9350935093509350806001600160a01b03166340c10f1930868660400151876020015188600001516200227e91906200455a565b6200228a91906200455a565b6200229691906200455a565b6040518363ffffffff1660e01b8152600401620022b592919062003f60565b602060405180830381600087803b158015620022d057600080fd5b505af1158015620022e5573d6000803e3d6000fd5b505050506040513d601f19601f820116820180604052508101906200230b919062003614565b50609d54835160405163a9059cbb60e01b81526001600160a01b038481169363a9059cbb936200234393929091169160040162003f60565b602060405180830381600087803b1580156200235e57600080fd5b505af115801562002373573d6000803e3d6000fd5b505050506040513d601f19601f8201168201806040525081019062002399919062003614565b50609e54602084015160405163a9059cbb60e01b81526001600160a01b038481169363a9059cbb93620023d493929091169160040162003f60565b602060405180830381600087803b158015620023ef57600080fd5b505af115801562002404573d6000803e3d6000fd5b505050506040513d601f19601f820116820180604052508101906200242a919062003614565b506001600160a01b03821615620024c657604080840151905163a9059cbb60e01b81526001600160a01b0383169163a9059cbb916200246e91869160040162003f60565b602060405180830381600087803b1580156200248957600080fd5b505af11580156200249e573d6000803e3d6000fd5b505050506040513d601f19601f82011682018060405250810190620024c4919062003614565b505b600085815260a26020908152604091829020825161016081018452815460ff16151581526001820154928101929092526002810154928201839052600381015460608301526004810154608083015260058101546001600160a01b0390811660a08401526006820154811660c0840152600782015460e084015260088201546101008401526009820154610120840152600a909101541661014082015290620026415760c081015160405163a9059cbb60e01b81526001600160a01b0384169163a9059cbb916200259d9190899060040162003f60565b602060405180830381600087803b158015620025b857600080fd5b505af1158015620025cd573d6000803e3d6000fd5b505050506040513d601f19601f82011682018060405250810190620025f3919062003614565b507ff5174e3d205e90d004603fff7abb7ca825930316da524c695d7fc44743d46b3f8160c00151868487878b604051620026339695949392919062003f79565b60405180910390a1620028c4565b8060a001516001600160a01b0316876000815181106200267157634e487b7160e01b600052603260045260246000fd5b60200260200101516001600160a01b0316148015620026dd57508061014001516001600160a01b03168760018951620026ab919062004575565b81518110620026ca57634e487b7160e01b600052603260045260246000fd5b60200260200101516001600160a01b0316145b620027295760405162461bcd60e51b815260206004820152601b60248201527a084eae4dca4deeae8cae498deced2c67440eee4dedcce40e0c2e8d602b1b604482015260640162000b68565b6000806200274883604001518460c00151898661012001518d62002b8d565b915091508115620027e0577fca04ecaf3fb275dc79a794a25203551513f694ae5cfb19961592fb03b5871bfa8360c00151888684600186516200278c919062004575565b81518110620027ab57634e487b7160e01b600052603260045260246000fd5b60200260200101518761014001518b8b8f604051620027d298979695949392919062003fbf565b60405180910390a1620028c1565b7fe73bd25650ca980817885f0860ecd707a8d13f5cb6290e06e8e764e50418e5cc8360c0015188868661012001518761014001518b8b8f6040516200282d98979695949392919062003fbf565b60405180910390a160c083015160405163a9059cbb60e01b81526001600160a01b0386169163a9059cbb916200286991908b9060040162003f60565b602060405180830381600087803b1580156200288457600080fd5b505af115801562002899573d6000803e3d6000fd5b505050506040513d601f19601f82011682018060405250810190620028bf919062003614565b505b50505b505050505050620028d56001606555565b50505050505050505050565b806001600160a01b0381166200290b5760405162461bcd60e51b815260040162000b68906200427d565b6200291562002a66565b5060a980546001600160a01b0319166001600160a01b0392909216919091179055565b6200294262002a66565b609855565b806001600160a01b038116620029715760405162461bcd60e51b815260040162000b68906200427d565b6200297b62002a66565b609d546040517f567657fa3f286518b318f4a29870674f433f622fdfc819691acb13105b22822591620029bc916001600160a01b0390911690859062003dde565b60405180910390a150609d80546001600160a01b0319166001600160a01b0392909216919091179055565b620029f162002a66565b6001600160a01b03811662002a585760405162461bcd60e51b815260206004820152602660248201527f4f776e61626c653a206e6577206f776e657220697320746865207a65726f206160448201526564647265737360d01b606482015260840162000b68565b62002a63816200312c565b50565b3362002a7162001e51565b6001600160a01b031614620013ed5760405162461bcd60e51b815260206004820181905260248201527f4f776e61626c653a2063616c6c6572206973206e6f7420746865206f776e6572604482015260640162000b68565b600054610100900460ff1662002af35760405162461bcd60e51b815260040162000b6890620042b4565b620013ed6200317e565b600054610100900460ff1662002b275760405162461bcd60e51b815260040162000b6890620042b4565b620013ed620031b3565b6002606554141562002b865760405162461bcd60e51b815260206004820152601f60248201527f5265656e7472616e637947756172643a207265656e7472616e742063616c6c00604482015260640162000b68565b6002606555565b600085815260a360205260408120546060906001600160a01b03168062002bf75760405162461bcd60e51b815260206004820152601e60248201527f4275726e526f757465724c6f6769633a20696e76616c69642061707049640000604482015260640162000b68565b8360008151811062002c1957634e487b7160e01b600052603260045260246000fd5b60200260200101516001600160a01b031663095ea7b382886040518363ffffffff1660e01b815260040162002c5092919062003f60565b602060405180830381600087803b15801562002c6b57600080fd5b505af115801562002c80573d6000803e3d6000fd5b505050506040513d601f19601f8201168201806040525081019062002ca6919062003614565b506040516326d2f28960e21b81526001600160a01b03821690639b4bca249062002cd590879060040162004167565b60206040518083038186803b15801562002cee57600080fd5b505afa15801562002d03573d6000803e3d6000fd5b505050506040513d601f19601f8201168201806040525081019062002d29919062003614565b1562002dcd5760405163161779b160e31b81526001600160a01b0382169063b0bbcd889062002d68908990899089908d9042906001906004016200448d565b600060405180830381600087803b15801562002d8357600080fd5b505af115801562002d98573d6000803e3d6000fd5b505050506040513d6000823e601f3d908101601f1916820160405262002dc2919081019062003631565b909350915062002dd2565b600092505b509550959350505050565b62002e0260405180606001604052806000815260200160008152602001600081525090565b60008073__$3051d2319114b404c645910e906e49ea84$__63020c8d9733609954609a5460a460a78e8d8d8d6040518a63ffffffff1660e01b815260040162002e5499989796959493929190620040fe565b60a06040518083038186803b15801562002e6d57600080fd5b505af415801562002e82573d6000803e3d6000fd5b505050506040513d601f19601f8201168201806040525081019062002ea8919062003a68565b609b80549396509194509250600062002ec183620045ff565b9091555050609d54835160405163a9059cbb60e01b81526001600160a01b038a81169363a9059cbb9362002efd93929091169160040162003f60565b602060405180830381600087803b15801562002f1857600080fd5b505af115801562002f2d573d6000803e3d6000fd5b505050506040513d601f19601f8201168201806040525081019062002f53919062003614565b50609e54602084015160405163a9059cbb60e01b81526001600160a01b038a81169363a9059cbb9362002f8e93929091169160040162003f60565b602060405180830381600087803b15801562002fa957600080fd5b505af115801562002fbe573d6000803e3d6000fd5b505050506040513d601f19601f8201168201806040525081019062002fe4919062003614565b50609e5460a85462003000916001600160a01b031690620031dd565b6001600160a01b038216156200309b57604080840151905163a9059cbb60e01b81526001600160a01b0389169163a9059cbb916200304391869160040162003f60565b602060405180830381600087803b1580156200305e57600080fd5b505af115801562003073573d6000803e3d6000fd5b505050506040513d601f19601f8201168201806040525081019062003099919062003614565b505b604051630852cd8d60e31b8152600481018290526001600160a01b038816906342966c6890602401602060405180830381600087803b158015620030de57600080fd5b505af1158015620030f3573d6000803e3d6000fd5b505050506040513d601f19601f8201168201806040525081019062003119919062003614565b50955095509592505050565b6001606555565b603380546001600160a01b038381166001600160a01b0319831681179093556040519116919082907f8be0079c531659141344cd1fd0a4f28419497f9722a3daafe3b4186f6b6457e090600090a35050565b600054610100900460ff16620031a85760405162461bcd60e51b815260040162000b6890620042b4565b620013ed336200312c565b600054610100900460ff16620031255760405162461bcd60e51b815260040162000b6890620042b4565b804710156200322f5760405162461bcd60e51b815260206004820152601d60248201527f416464726573733a20696e73756666696369656e742062616c616e6365000000604482015260640162000b68565b6000826001600160a01b03168260405160006040518083038185875af1925050503d80600081146200327e576040519150601f19603f3d011682016040523d82523d6000602084013e62003283565b606091505b5050905080620032f95760405162461bcd60e51b815260206004820152603a60248201527f416464726573733a20756e61626c6520746f2073656e642076616c75652c20726044820152791958da5c1a595b9d081b585e481a185d99481c995d995c9d195960321b606482015260840162000b68565b505050565b610f2c806200466083390190565b8280546200331a90620045c2565b90600052602060002090601f0160209004810192826200333e576000855562003389565b82601f106200335957805160ff191683800117855562003389565b8280016001018555821562003389579182015b82811115620033895782518255916020019190600101906200336c565b50620033979291506200339b565b5090565b5b808211156200339757600081556001016200339c565b600082601f830112620033c3578081fd5b81356020620033dc620033d6836200450a565b620044d7565b80838252828201915082860187848660051b8901011115620033fc578586fd5b855b8581101562003427578135620034148162004649565b84529284019290840190600101620033fe565b5090979650505050505050565b600082601f83011262003445578081fd5b8135602062003458620033d6836200450a565b80838252828201915082860187848660051b890101111562003478578586fd5b855b8581101562003427578135845292840192908401906001016200347a565b80518015158114620034a957600080fd5b919050565b80356001600160e01b031981168114620034a957600080fd5b60008083601f840112620034d9578182fd5b5081356001600160401b03811115620034f0578182fd5b6020830191508360208285010111156200350957600080fd5b9250929050565b600082601f83011262003521578081fd5b813562003532620033d68262004530565b81815284602083860101111562003547578283fd5b816020850160208301379081016020019190915292915050565b803560068110620034a957600080fd5b60006060828403121562003583578081fd5b604051606081016001600160401b0381118282101715620035a857620035a862004633565b80604052508091508251815260208301516020820152604083015160408201525092915050565b600060208284031215620035e1578081fd5b8135620035ee8162004649565b9392505050565b60006020828403121562003607578081fd5b8151620035ee8162004649565b60006020828403121562003626578081fd5b620035ee8262003498565b6000806040838503121562003644578081fd5b6200364f8362003498565b602084810151919350906001600160401b038111156200366d578283fd5b8401601f810186136200367e578283fd5b80516200368f620033d6826200450a565b80828252848201915084840189868560051b8701011115620036af578687fd5b8694505b83851015620036d3578051835260019490940193918501918501620036b3565b5080955050505050509250929050565b600060208284031215620036f5578081fd5b5035919050565b6000602082840312156200370e578081fd5b5051919050565b6000806000806000806000806000806101008b8d03121562003735578586fd5b620037408b620034ae565b995060208b01356001600160401b03808211156200375c578788fd5b6200376a8e838f0162003510565b9a5060408d013591508082111562003780578788fd5b6200378e8e838f01620034c7565b909a509850889150620037a460608e01620034ae565b975060808d0135965060a08d0135915080821115620037c1578586fd5b620037cf8e838f01620034c7565b909650945060c08d0135935060e08d0135915080821115620037ef578283fd5b50620037fe8d828e01620033b2565b9150509295989b9194979a5092959850565b600080600080600080600080610100898b0312156200382d578182fd5b6200383889620034ae565b975060208901356001600160401b038082111562003854578384fd5b620038628c838d0162003510565b985060408b013591508082111562003878578384fd5b620038868c838d0162003510565b97506200389660608c01620034ae565b965060808b0135955060a08b0135915080821115620038b3578384fd5b620038c18c838d0162003510565b945060c08b0135935060e08b0135915080821115620038de578283fd5b50620038ed8b828c0162003434565b9150509295985092959890939650565b6000806040838503121562003910578182fd5b82356001600160401b0381111562003926578283fd5b620039348582860162003510565b925050620039456020840162003561565b90509250929050565b60006020828403121562003960578081fd5b81356001600160401b0381111562003976578182fd5b620039848482850162003510565b949350505050565b6000602082840312156200399e578081fd5b81516001600160401b03811115620039b4578182fd5b8201601f81018413620039c5578182fd5b8051620039d6620033d68262004530565b818152856020838501011115620039eb578384fd5b620039fe8260208301602086016200458f565b95945050505050565b60008060006060848603121562003a1c578081fd5b83356001600160401b0381111562003a32578182fd5b62003a408682870162003510565b935050602084013560ff8116811462003a57578182fd5b929592945050506040919091013590565b600080600060a0848603121562003a7d578081fd5b62003a89858562003571565b9250606084015162003a9b8162004649565b80925050608084015190509250925092565b6000806040838503121562003ac0578182fd5b82359150602083013562003ad48162004649565b809150509250929050565b60008060006060848603121562003af4578081fd5b83359250602084013562003a578162004649565b60008060008060c0858703121562003b1e578182fd5b8451935062003b31866020870162003571565b9250608085015162003b438162004649565b60a086015190925062003b568162004649565b939692955090935050565b6000806000806000806000806000806101408b8d03121562003b81578384fd5b8a35995060208b0135985060408b0135975060608b013562003ba38162004649565b965060808b013562003bb58162004649565b955060a08b01356001600160401b0381111562003bd0578485fd5b62003bde8d828e0162003510565b95505062003bef60c08c0162003561565b935060e08b013562003c018162004649565b92506101008b013562003c148162004649565b91506101208b013562003c278162004649565b809150509295989b9194979a5092959850565b600080600080600080600080610100898b03121562003c57578182fd5b88359750602089013596506040890135955060608901356001600160401b038082111562003c83578384fd5b62003c918c838d0162003510565b965062003ca160808c0162003561565b955060a08b0135945060c08b0135935060e08b013591508082111562003cc5578283fd5b50620038ed8b828c01620033b2565b6000815180845260208085019450808401835b8381101562003d0e5781516001600160a01b03168752958201959082019060010162003ce7565b509495945050505050565b81835281816020850137506000828201602090810191909152601f909101601f19169091010190565b6000815180845262003d5c8160208601602086016200458f565b601f01601f19169290920160200192915050565b6006811062003d8f57634e487b7160e01b600052602160045260246000fd5b9052565b8051825260208082015190830152604090810151910152565b6000825162003dc08184602087016200458f565b9190910192915050565b6001600160a01b0391909116815260200190565b6001600160a01b0392831681529116602082015260400190565b6001600160a01b03848116825283166020820152606060408201819052600090620039fe9083018462003d42565b6001600160a01b039384168152919092166020820152604081019190915260600190565b6001600160a01b038b811682526101806020830181905260009162003e728483018e62003d42565b925062003e83604085018d62003d70565b808b1660608501528960808501528860a085015262003ea660c085018962003d93565b866101208501528086166101408501525050826101608301529b9a5050505050505050505050565b600060018060a01b03808f1683526101c0602084015262003ef46101c084018f62003d42565b915062003f05604084018e62003d70565b8b6060840152808b1660808401528960a08401528860c084015280881660e084015262003f3761010084018862003d93565b8561016084015280851661018084015250826101a08301529d9c50505050505050505050505050565b6001600160a01b03929092168252602082015260400190565b6001600160a01b03878116825260208201879052858116604083015261010082019062003faa606084018762003d93565b9390931660c082015260e00152949350505050565b6001600160a01b03898116825260208201899052878116604083015260608201879052858116608083015261014082019062003fff60a084018762003d93565b9390931661010082015261012001529695505050505050565b6001600160a01b0387168152602080820187905260c060408301528554600091908290600181811c90828116806200405157607f831692505b8583108114156200407057634e487b7160e01b87526022600452602487fd5b60c0880183905260e08801818015620040925760018114620040a457620040d0565b60ff19861682528782019650620040d0565b60008e815260209020895b86811015620040ca57815484820152908501908901620040af565b83019750505b5050505050508092505050620040ea606083018662003d70565b608082019390935260a00152949350505050565b600061012060018060a01b038c1683528a60208401528960408401528860608401528760808401528660a08401528560c08401528060e0840152620041468184018662003d42565b9150506200415961010083018462003d70565b9a9950505050505050505050565b602081526000620035ee602083018462003cd4565b871515815286602082015285604082015284606082015260018060a01b038416608082015260e060a08201526000620041b960e083018562003d42565b9050620041ca60c083018462003d70565b98975050505050505050565b602081526000620035ee602083018462003d42565b6020810162000b38828462003d70565b60608152600062004210606083018662003d42565b828103602084015262004224818662003d42565b91505060ff83166040830152949350505050565b60a0815260006200424d60a083018862003d42565b60ff9690961660208301525060408101939093526001600160a01b03918216606084015216608090910152919050565b6020808252601e908201527f4272633230526f757465724c6f6769633a207a65726f20616464726573730000604082015260600190565b6020808252602b908201527f496e697469616c697a61626c653a20636f6e7472616374206973206e6f74206960408201526a6e697469616c697a696e6760a81b606082015260800190565b9182526001600160a01b0316602082015260400190565b8b81526001600160a01b038b1660208201526001600160e01b03198a8116604083015261012060608301819052600091620043548483018d62003d42565b915083820360808501526200436b828b8d62003d19565b915080891660a0850152508660c084015282810360e08401526200439181868862003d19565b915050826101008301529c9b505050505050505050505050565b8981526001600160a01b03891660208201526001600160e01b0319888116604083015261012060608301819052600091620043e98483018b62003d42565b91508382036080850152620043ff828a62003d42565b915080881660a0850152508560c084015282810360e084015262004424818662003d42565b915050826101008301529a9950505050505050505050565b60006101008b8352806020840152620044598184018b8d62003d19565b604084019990995250506060810195909552608085019390935260a084019190915260c083015260e0909101529392505050565b86815285602082015260c060408201526000620044ae60c083018762003cd4565b6001600160a01b03959095166060830152506080810192909252151560a0909101529392505050565b604051601f8201601f191681016001600160401b038111828210171562004502576200450262004633565b604052919050565b60006001600160401b0382111562004526576200452662004633565b5060051b60200190565b60006001600160401b038211156200454c576200454c62004633565b50601f01601f191660200190565b600082198211156200457057620045706200461d565b500190565b6000828210156200458a576200458a6200461d565b500390565b60005b83811015620045ac57818101518382015260200162004592565b83811115620045bc576000848401525b50505050565b600181811c90821680620045d757607f821691505b60208210811415620045f957634e487b7160e01b600052602260045260246000fd5b50919050565b60006000198214156200461657620046166200461d565b5060010190565b634e487b7160e01b600052601160045260246000fd5b634e487b7160e01b600052604160045260246000fd5b6001600160a01b038116811462002a6357600080fdfe608060405260405162000f2c38038062000f2c8339810160408190526200002691620004e0565b82828282816200005860017f360894a13ba1a3210667c828492db98dca3e2076cc3735a920a3ca505d382bbd6200060f565b60008051602062000ee5833981519152146200008457634e487b7160e01b600052600160045260246000fd5b620000928282600062000105565b50620000c2905060017fb53127684a568b3173ae13b9f8a6016e243e63b6e8ee1178d6a717850b5d61046200060f565b60008051602062000ec583398151915214620000ee57634e487b7160e01b600052600160045260246000fd5b620000f98262000142565b50505050505062000678565b62000110836200019d565b6000825111806200011e5750805b156200013d576200013b8383620001df60201b620002601760201c565b505b505050565b7f7e644d79422f17c01e4894b5f4f588d331ebfa28653d42ae832dc59e38c9798f6200016d6200020e565b604080516001600160a01b03928316815291841660208301520160405180910390a16200019a8162000247565b50565b620001a881620002fc565b6040516001600160a01b038216907fbc7cd75a20ee27fd9adebab32041f755214dbc6bffa90cc0225b39da2e5c2d3b90600090a250565b606062000207838360405180606001604052806027815260200162000f05602791396200039f565b9392505050565b60006200023860008051602062000ec583398151915260001b6200047c60201b620002081760201c565b546001600160a01b0316919050565b6001600160a01b038116620002b25760405162461bcd60e51b815260206004820152602660248201527f455243313936373a206e65772061646d696e20697320746865207a65726f206160448201526564647265737360d01b60648201526084015b60405180910390fd5b80620002db60008051602062000ec583398151915260001b6200047c60201b620002081760201c565b80546001600160a01b0319166001600160a01b039290921691909117905550565b62000312816200047f60201b6200028c1760201c565b620003765760405162461bcd60e51b815260206004820152602d60248201527f455243313936373a206e657720696d706c656d656e746174696f6e206973206e60448201526c1bdd08184818dbdb9d1c9858dd609a1b6064820152608401620002a9565b80620002db60008051602062000ee583398151915260001b6200047c60201b620002081760201c565b6060833b620004005760405162461bcd60e51b815260206004820152602660248201527f416464726573733a2064656c65676174652063616c6c20746f206e6f6e2d636f6044820152651b9d1c9858dd60d21b6064820152608401620002a9565b600080856001600160a01b0316856040516200041d9190620005bc565b600060405180830381855af49150503d80600081146200045a576040519150601f19603f3d011682016040523d82523d6000602084013e6200045f565b606091505b5090925090506200047282828662000485565b9695505050505050565b90565b3b151590565b606083156200049657508162000207565b825115620004a75782518084602001fd5b8160405162461bcd60e51b8152600401620002a99190620005da565b80516001600160a01b0381168114620004db57600080fd5b919050565b600080600060608486031215620004f5578283fd5b6200050084620004c3565b92506200051060208501620004c3565b60408501519092506001600160401b03808211156200052d578283fd5b818601915086601f83011262000541578283fd5b81518181111562000556576200055662000662565b604051601f8201601f19908116603f0116810190838211818310171562000581576200058162000662565b816040528281528960208487010111156200059a578586fd5b620005ad83602083016020880162000633565b80955050505050509250925092565b60008251620005d081846020870162000633565b9190910192915050565b6020815260008251806020840152620005fb81604085016020870162000633565b601f01601f19169190910160400192915050565b6000828210156200062e57634e487b7160e01b81526011600452602481fd5b500390565b60005b838110156200065057818101518382015260200162000636565b838111156200013b5750506000910152565b634e487b7160e01b600052604160045260246000fd5b61083d80620006886000396000f3fe60806040526004361061004e5760003560e01c80633659cfe6146100655780634f1ef286146100855780635c60da1b146100985780638f283970146100c9578063f851a440146100e95761005d565b3661005d5761005b6100fe565b005b61005b6100fe565b34801561007157600080fd5b5061005b61008036600461068e565b610118565b61005b6100933660046106a8565b61015f565b3480156100a457600080fd5b506100ad6101d0565b6040516001600160a01b03909116815260200160405180910390f35b3480156100d557600080fd5b5061005b6100e436600461068e565b61020b565b3480156100f557600080fd5b506100ad610235565b610106610292565b610116610111610331565b61033b565b565b61012061035f565b6001600160a01b0316336001600160a01b031614156101575761015481604051806020016040528060008152506000610380565b50565b6101546100fe565b61016761035f565b6001600160a01b0316336001600160a01b031614156101c8576101c38383838080601f01602080910402602001604051908101604052809392919081815260200183838082843760009201919091525060019250610380915050565b505050565b6101c36100fe565b60006101da61035f565b6001600160a01b0316336001600160a01b03161415610200576101fb610331565b905090565b6102086100fe565b90565b61021361035f565b6001600160a01b0316336001600160a01b0316141561015757610154816103ab565b600061023f61035f565b6001600160a01b0316336001600160a01b03161415610200576101fb61035f565b606061028583836040518060600160405280602781526020016107e1602791396103ff565b9392505050565b3b151590565b61029a61035f565b6001600160a01b0316336001600160a01b031614156101165760405162461bcd60e51b815260206004820152604260248201527f5472616e73706172656e745570677261646561626c6550726f78793a2061646d60448201527f696e2063616e6e6f742066616c6c6261636b20746f2070726f78792074617267606482015261195d60f21b608482015260a4015b60405180910390fd5b60006101fb6104d3565b3660008037600080366000845af43d6000803e80801561035a573d6000f35b3d6000fd5b60006000805160206107a18339815191525b546001600160a01b0316919050565b610389836104e9565b6000825111806103965750805b156101c3576103a58383610260565b50505050565b7f7e644d79422f17c01e4894b5f4f588d331ebfa28653d42ae832dc59e38c9798f6103d461035f565b604080516001600160a01b03928316815291841660208301520160405180910390a161015481610529565b6060833b61045e5760405162461bcd60e51b815260206004820152602660248201527f416464726573733a2064656c65676174652063616c6c20746f206e6f6e2d636f6044820152651b9d1c9858dd60d21b6064820152608401610328565b600080856001600160a01b0316856040516104799190610725565b600060405180830381855af49150503d80600081146104b4576040519150601f19603f3d011682016040523d82523d6000602084013e6104b9565b606091505b50915091506104c98282866105c0565b9695505050505050565b60006000805160206107c1833981519152610371565b6104f2816105f9565b6040516001600160a01b038216907fbc7cd75a20ee27fd9adebab32041f755214dbc6bffa90cc0225b39da2e5c2d3b90600090a250565b6001600160a01b03811661058e5760405162461bcd60e51b815260206004820152602660248201527f455243313936373a206e65772061646d696e20697320746865207a65726f206160448201526564647265737360d01b6064820152608401610328565b806000805160206107a18339815191525b80546001600160a01b0319166001600160a01b039290921691909117905550565b606083156105cf575081610285565b8251156105df5782518084602001fd5b8160405162461bcd60e51b81526004016103289190610741565b803b61065d5760405162461bcd60e51b815260206004820152602d60248201527f455243313936373a206e657720696d706c656d656e746174696f6e206973206e60448201526c1bdd08184818dbdb9d1c9858dd609a1b6064820152608401610328565b806000805160206107c183398151915261059f565b80356001600160a01b038116811461068957600080fd5b919050565b60006020828403121561069f578081fd5b61028582610672565b6000806000604084860312156106bc578182fd5b6106c584610672565b925060208401356001600160401b03808211156106e0578384fd5b818601915086601f8301126106f3578384fd5b813581811115610701578485fd5b876020828501011115610712578485fd5b6020830194508093505050509250925092565b60008251610737818460208701610774565b9190910192915050565b6020815260008251806020840152610760816040850160208701610774565b601f01601f19169190910160400192915050565b60005b8381101561078f578181015183820152602001610777565b838111156103a5575050600091015256feb53127684a568b3173ae13b9f8a6016e243e63b6e8ee1178d6a717850b5d6103360894a13ba1a3210667c828492db98dca3e2076cc3735a920a3ca505d382bbc416464726573733a206c6f772d6c6576656c2064656c65676174652063616c6c206661696c6564a2646970667358221220a08887e878dff12a030e39cd6d4f29ea9a216219710849bebd240087a169424e64736f6c63430008040033b53127684a568b3173ae13b9f8a6016e243e63b6e8ee1178d6a717850b5d6103360894a13ba1a3210667c828492db98dca3e2076cc3735a920a3ca505d382bbc416464726573733a206c6f772d6c6576656c2064656c65676174652063616c6c206661696c6564a264697066735822122061dfc0c83fcfeb25fcfacce4d2ed12eb5787108d19146f1028ee5b3d92ac3c7d64736f6c63430008040033",
  "libraries": {
    "Brc20RouterLib": "0x10d3cd258ec981eba81715190660c56387f278D0"
  },
  "devdoc": {
    "kind": "dev",
    "methods": {
      "addBrc20(string,uint8,uint256)": {
        "details": "We assign tokenId to a supported BRC20"
      },
      "initialize(uint256,uint256,uint256,address,address,bytes,uint8,address,address,address)": {
        "params": {
          "_chainId": "Id of the underlying chain",
          "_locker": "TODO",
          "_protocolPercentageFee": "Percentage amount of protocol fee (min: %0.01)",
          "_relay": "Bitcoin bridge address which validates Bitcoin tx",
          "_startingBlockNumber": "Requests included in a block older than _startingBlockNumber cannot be processed",
          "_treasury": "Address of treasury that collects protocol fees"
        }
      },
      "isWrapRequestProcessed(bytes32)": {
        "params": {
          "_txId": "of the request on Bitcoin"
        }
      },
      "owner()": {
        "details": "Returns the address of the current owner."
      },
      "renounceOwnership()": {
        "details": "Leaves the contract without owner. It will not be possible to call `onlyOwner` functions. Can only be called by the current owner. NOTE: Renouncing ownership will leave the contract without an owner, thereby disabling any functionality that is only available to the owner."
      },
      "setExchangeConnector(uint256,address)": {
        "details": "If address(0) is set for an appId, that appId is inactive"
      },
      "setUnwrapFee(uint256)": {
        "details": "This fee is taken for unwrap requests to cover the Bitcoin network fee"
      },
      "transferOwnership(address)": {
        "details": "Transfers ownership of the contract to a new account (`newOwner`). Can only be called by the current owner."
      },
      "unwrapBrc20(uint256,uint256,uint256,bytes,uint8,uint256,uint256,address[])": {
        "details": "For unwrap requests (not swap & unwrap), pass _appId,       _inputAmount and _path ZERO",
        "params": {
          "_amount": "of WBRC20 that user wants to burn",
          "_scriptType": "User script type",
          "_userScript": "User script hash"
        }
      },
      "wrapBrc20(bytes4,bytes,bytes,bytes4,uint256,bytes,uint256,address[])": {
        "details": "Locker submits wrap requests to this function for:      1) Checking tx inclusion      2) Extracting wrap request info from the OP_RETURN output      3) Exchanging wrapped BRC20 (if request is wrap & exchange) using the path          provided by the locker",
        "params": {
          "_blockNumber": "that includes the tx",
          "_index": "of tx in the block",
          "_intermediateNodes": "Merkle proof for tx",
          "_locktime": "Tx locktime",
          "_version": "of Bitcoin tx",
          "_vin": "Tx inputs",
          "_vout": "Tx outputs"
        }
      }
    },
    "version": 1
  },
  "userdoc": {
    "events": {
      "Brc20Removed(uint256,address)": {
        "notice": "Emit when BRC20 removed"
      },
      "FailedWrapAndSwap(address,uint256,address,uint256,address,(uint256,uint256,uint256),address,bytes32)": {
        "notice": "Emit when a wrap&swap request is processed but swap failed"
      },
      "NewBrc20(string,uint256,uint256,address,address)": {
        "notice": "Emit when new BRC20 added"
      },
      "NewLocker(address,address)": {
        "notice": "Emit when locker address updated"
      },
      "NewProtocolPercentageFee(uint256,uint256)": {
        "notice": "Emit when protocol fee updated"
      },
      "NewRelay(address,address)": {
        "notice": "Emit when relay address updated"
      },
      "NewTeleporter(address,address)": {
        "notice": "Emit when teleporter address updated"
      },
      "NewTreasury(address,address)": {
        "notice": "Emit when treasury address updated"
      },
      "NewUnwrap(address,bytes,uint8,address,uint256,uint256,(uint256,uint256,uint256),uint256,address,uint256)": {
        "notice": "Emit when a new unwrap request is created"
      },
      "NewUnwrapAndSwap(address,bytes,uint8,uint256,address,uint256,uint256,address,(uint256,uint256,uint256),uint256,address,uint256)": {
        "notice": "Emit when a new unwrap&swap request is created"
      },
      "NewWrap(address,uint256,address,(uint256,uint256,uint256),address,bytes32)": {
        "notice": "Emit when a wrap request is processed"
      },
      "NewWrapAndSwap(address,uint256,address,uint256,address,(uint256,uint256,uint256),address,bytes32)": {
        "notice": "Emit when a wrap&swap request is processed"
      },
      "SetExchangeConnector(uint256,address)": {
        "notice": "Emits when appId for an exchange connector is set"
      },
      "ThirdPartyInfoUpdated(uint256,address,uint256,address,uint256)": {
        "notice": "Emit when third party fee updated"
      },
      "UnwrapFeeUpdated(uint256,uint256)": {
        "notice": "Emit when unwrap fee updated"
      },
      "UnwrapProcessed(address,uint256,bytes,uint8,uint256,bytes32)": {
        "notice": "Emit when a unwrap request is processed"
      }
    },
    "kind": "user",
    "methods": {
      "addBrc20(string,uint8,uint256)": {
        "notice": "Deploy wrapped BRC20 token contract"
      },
      "initialize(uint256,uint256,uint256,address,address,bytes,uint8,address,address,address)": {
        "notice": "Initialize the contract"
      },
      "isUnwrapRequestProcessed(uint256)": {
        "notice": "Check if the unwrap request has been processed before"
      },
      "isWrapRequestProcessed(bytes32)": {
        "notice": "Check if the wrap request has been processed before"
      },
      "removeBrc20(uint256)": {
        "notice": "Remove support of a wrapped BRC20 token"
      },
      "setChainId(uint256)": {
        "notice": "Setter for chainId"
      },
      "setExchangeConnector(uint256,address)": {
        "notice": "Set exchange connector for appId"
      },
      "setLocker(address)": {
        "notice": "Setter for locker"
      },
      "setLockerLockingScript(bytes,uint8)": {
        "notice": "Setter for locker locking script"
      },
      "setProtocolPercentageFee(uint256)": {
        "notice": "Setter for protocol percentage fee"
      },
      "setRelay(address)": {
        "notice": "Setter for Bitcoin relay"
      },
      "setStartingBlockNumber(uint256)": {
        "notice": "Setter for starting block number"
      },
      "setTeleporter(address)": {
        "notice": "Setter for teleporter"
      },
      "setThirdParty(uint256,address,uint256)": {
        "notice": "Setter for third party address and fee"
      },
      "setTreasury(address)": {
        "notice": "Setter for treasury"
      },
      "setUnwrapFee(uint256)": {
        "notice": "Setter for unwrap fee"
      },
      "setWrappedNativeToken(address)": {
        "notice": "Setter for wrapped native token"
      },
      "unwrapBrc20(uint256,uint256,uint256,bytes,uint8,uint256,uint256,address[])": {
        "notice": "Process user unwrap request"
      },
      "unwrapProof(bytes4,bytes,bytes,bytes4,uint256,bytes,uint256,uint256[])": {
        "notice": "Check proof of unwraping"
      },
      "wrapBrc20(bytes4,bytes,bytes,bytes4,uint256,bytes,uint256,address[])": {
        "notice": "Process wrap BRC20 request"
      }
    },
    "version": 1
  },
  "storageLayout": {
    "storage": [
      {
        "astId": 139,
        "contract": "contracts/brc20_router/Brc20RouterLogic.sol:Brc20RouterLogic",
        "label": "_initialized",
        "offset": 0,
        "slot": "0",
        "type": "t_uint8"
      },
      {
        "astId": 142,
        "contract": "contracts/brc20_router/Brc20RouterLogic.sol:Brc20RouterLogic",
        "label": "_initializing",
        "offset": 1,
        "slot": "0",
        "type": "t_bool"
      },
      {
        "astId": 1482,
        "contract": "contracts/brc20_router/Brc20RouterLogic.sol:Brc20RouterLogic",
        "label": "__gap",
        "offset": 0,
        "slot": "1",
        "type": "t_array(t_uint256)50_storage"
      },
      {
        "astId": 11,
        "contract": "contracts/brc20_router/Brc20RouterLogic.sol:Brc20RouterLogic",
        "label": "_owner",
        "offset": 0,
        "slot": "51",
        "type": "t_address"
      },
      {
        "astId": 131,
        "contract": "contracts/brc20_router/Brc20RouterLogic.sol:Brc20RouterLogic",
        "label": "__gap",
        "offset": 0,
        "slot": "52",
        "type": "t_array(t_uint256)49_storage"
      },
      {
        "astId": 316,
        "contract": "contracts/brc20_router/Brc20RouterLogic.sol:Brc20RouterLogic",
        "label": "_status",
        "offset": 0,
        "slot": "101",
        "type": "t_uint256"
      },
      {
        "astId": 385,
        "contract": "contracts/brc20_router/Brc20RouterLogic.sol:Brc20RouterLogic",
        "label": "__gap",
        "offset": 0,
        "slot": "102",
        "type": "t_array(t_uint256)49_storage"
      },
      {
        "astId": 9459,
        "contract": "contracts/brc20_router/Brc20RouterLogic.sol:Brc20RouterLogic",
        "label": "startingBlockNumber",
        "offset": 0,
        "slot": "151",
        "type": "t_uint256"
      },
      {
        "astId": 9462,
        "contract": "contracts/brc20_router/Brc20RouterLogic.sol:Brc20RouterLogic",
        "label": "chainId",
        "offset": 0,
        "slot": "152",
        "type": "t_uint256"
      },
      {
        "astId": 9465,
        "contract": "contracts/brc20_router/Brc20RouterLogic.sol:Brc20RouterLogic",
        "label": "protocolPercentageFee",
        "offset": 0,
        "slot": "153",
        "type": "t_uint256"
      },
      {
        "astId": 9467,
        "contract": "contracts/brc20_router/Brc20RouterLogic.sol:Brc20RouterLogic",
        "label": "lockerPercentageFee",
        "offset": 0,
        "slot": "154",
        "type": "t_uint256"
      },
      {
        "astId": 9469,
        "contract": "contracts/brc20_router/Brc20RouterLogic.sol:Brc20RouterLogic",
        "label": "unwrapCounter",
        "offset": 0,
        "slot": "155",
        "type": "t_uint256"
      },
      {
        "astId": 9472,
        "contract": "contracts/brc20_router/Brc20RouterLogic.sol:Brc20RouterLogic",
        "label": "relay",
        "offset": 0,
        "slot": "156",
        "type": "t_address"
      },
      {
        "astId": 9475,
        "contract": "contracts/brc20_router/Brc20RouterLogic.sol:Brc20RouterLogic",
        "label": "treasury",
        "offset": 0,
        "slot": "157",
        "type": "t_address"
      },
      {
        "astId": 9478,
        "contract": "contracts/brc20_router/Brc20RouterLogic.sol:Brc20RouterLogic",
        "label": "locker",
        "offset": 0,
        "slot": "158",
        "type": "t_address"
      },
      {
        "astId": 9482,
        "contract": "contracts/brc20_router/Brc20RouterLogic.sol:Brc20RouterLogic",
        "label": "supportedBrc20s",
        "offset": 0,
        "slot": "159",
        "type": "t_mapping(t_uint256,t_address)"
      },
      {
        "astId": 9486,
        "contract": "contracts/brc20_router/Brc20RouterLogic.sol:Brc20RouterLogic",
        "label": "tokenIds",
        "offset": 0,
        "slot": "160",
        "type": "t_mapping(t_string_memory_ptr,t_uint256)"
      },
      {
        "astId": 9490,
        "contract": "contracts/brc20_router/Brc20RouterLogic.sol:Brc20RouterLogic",
        "label": "unwrapFees",
        "offset": 0,
        "slot": "161",
        "type": "t_mapping(t_uint256,t_uint256)"
      },
      {
        "astId": 9495,
        "contract": "contracts/brc20_router/Brc20RouterLogic.sol:Brc20RouterLogic",
        "label": "brc20WrapRequests",
        "offset": 0,
        "slot": "162",
        "type": "t_mapping(t_bytes32,t_struct(brc20WrapRequest)9550_storage)"
      },
      {
        "astId": 9500,
        "contract": "contracts/brc20_router/Brc20RouterLogic.sol:Brc20RouterLogic",
        "label": "exchangeConnector",
        "offset": 0,
        "slot": "163",
        "type": "t_mapping(t_uint256,t_address)"
      },
      {
        "astId": 9504,
        "contract": "contracts/brc20_router/Brc20RouterLogic.sol:Brc20RouterLogic",
        "label": "brc20UnwrapRequests",
        "offset": 0,
        "slot": "164",
        "type": "t_array(t_struct(brc20UnwrapRequest)9566_storage)dyn_storage"
      },
      {
        "astId": 9507,
        "contract": "contracts/brc20_router/Brc20RouterLogic.sol:Brc20RouterLogic",
        "label": "lockerLockingScript",
        "offset": 0,
        "slot": "165",
        "type": "t_bytes_storage"
      },
      {
        "astId": 9511,
        "contract": "contracts/brc20_router/Brc20RouterLogic.sol:Brc20RouterLogic",
        "label": "lockerScriptType",
        "offset": 0,
        "slot": "166",
        "type": "t_enum(ScriptTypes)7312"
      },
      {
        "astId": 9514,
        "contract": "contracts/brc20_router/Brc20RouterLogic.sol:Brc20RouterLogic",
        "label": "teleporter",
        "offset": 1,
        "slot": "166",
        "type": "t_address"
      },
      {
        "astId": 9519,
        "contract": "contracts/brc20_router/Brc20RouterLogic.sol:Brc20RouterLogic",
        "label": "thirdParties",
        "offset": 0,
        "slot": "167",
        "type": "t_mapping(t_uint256,t_struct(thirdParty)9571_storage)"
      },
      {
        "astId": 9521,
        "contract": "contracts/brc20_router/Brc20RouterLogic.sol:Brc20RouterLogic",
        "label": "unwrapFee",
        "offset": 0,
        "slot": "168",
        "type": "t_uint256"
      },
      {
        "astId": 9523,
        "contract": "contracts/brc20_router/Brc20RouterLogic.sol:Brc20RouterLogic",
        "label": "wrappedNativeToken",
        "offset": 0,
        "slot": "169",
        "type": "t_address"
      }
    ],
    "types": {
      "t_address": {
        "encoding": "inplace",
        "label": "address",
        "numberOfBytes": "20"
      },
      "t_array(t_struct(brc20UnwrapRequest)9566_storage)dyn_storage": {
        "base": "t_struct(brc20UnwrapRequest)9566_storage",
        "encoding": "dynamic_array",
        "label": "struct IBrc20Router.brc20UnwrapRequest[]",
        "numberOfBytes": "32"
      },
      "t_array(t_uint256)49_storage": {
        "base": "t_uint256",
        "encoding": "inplace",
        "label": "uint256[49]",
        "numberOfBytes": "1568"
      },
      "t_array(t_uint256)50_storage": {
        "base": "t_uint256",
        "encoding": "inplace",
        "label": "uint256[50]",
        "numberOfBytes": "1600"
      },
      "t_bool": {
        "encoding": "inplace",
        "label": "bool",
        "numberOfBytes": "1"
      },
      "t_bytes32": {
        "encoding": "inplace",
        "label": "bytes32",
        "numberOfBytes": "32"
      },
      "t_bytes_storage": {
        "encoding": "bytes",
        "label": "bytes",
        "numberOfBytes": "32"
      },
      "t_enum(ScriptTypes)7312": {
        "encoding": "inplace",
        "label": "enum ScriptTypes",
        "numberOfBytes": "1"
      },
      "t_mapping(t_bytes32,t_struct(brc20WrapRequest)9550_storage)": {
        "encoding": "mapping",
        "key": "t_bytes32",
        "label": "mapping(bytes32 => struct IBrc20Router.brc20WrapRequest)",
        "numberOfBytes": "32",
        "value": "t_struct(brc20WrapRequest)9550_storage"
      },
      "t_mapping(t_string_memory_ptr,t_uint256)": {
        "encoding": "mapping",
        "key": "t_string_memory_ptr",
        "label": "mapping(string => uint256)",
        "numberOfBytes": "32",
        "value": "t_uint256"
      },
      "t_mapping(t_uint256,t_address)": {
        "encoding": "mapping",
        "key": "t_uint256",
        "label": "mapping(uint256 => address)",
        "numberOfBytes": "32",
        "value": "t_address"
      },
      "t_mapping(t_uint256,t_struct(thirdParty)9571_storage)": {
        "encoding": "mapping",
        "key": "t_uint256",
        "label": "mapping(uint256 => struct IBrc20Router.thirdParty)",
        "numberOfBytes": "32",
        "value": "t_struct(thirdParty)9571_storage"
      },
      "t_mapping(t_uint256,t_uint256)": {
        "encoding": "mapping",
        "key": "t_uint256",
        "label": "mapping(uint256 => uint256)",
        "numberOfBytes": "32",
        "value": "t_uint256"
      },
      "t_string_memory_ptr": {
        "encoding": "bytes",
        "label": "string",
        "numberOfBytes": "32"
      },
      "t_struct(brc20UnwrapRequest)9566_storage": {
        "encoding": "inplace",
        "label": "struct IBrc20Router.brc20UnwrapRequest",
        "members": [
          {
            "astId": 9552,
            "contract": "contracts/brc20_router/Brc20RouterLogic.sol:Brc20RouterLogic",
            "label": "isProcessed",
            "offset": 0,
            "slot": "0",
            "type": "t_bool"
          },
          {
            "astId": 9554,
            "contract": "contracts/brc20_router/Brc20RouterLogic.sol:Brc20RouterLogic",
            "label": "amount",
            "offset": 0,
            "slot": "1",
            "type": "t_uint256"
          },
          {
            "astId": 9556,
            "contract": "contracts/brc20_router/Brc20RouterLogic.sol:Brc20RouterLogic",
            "label": "burntAmount",
            "offset": 0,
            "slot": "2",
            "type": "t_uint256"
          },
          {
            "astId": 9558,
            "contract": "contracts/brc20_router/Brc20RouterLogic.sol:Brc20RouterLogic",
            "label": "appId",
            "offset": 0,
            "slot": "3",
            "type": "t_uint256"
          },
          {
            "astId": 9560,
            "contract": "contracts/brc20_router/Brc20RouterLogic.sol:Brc20RouterLogic",
            "label": "sender",
            "offset": 0,
            "slot": "4",
            "type": "t_address"
          },
          {
            "astId": 9562,
            "contract": "contracts/brc20_router/Brc20RouterLogic.sol:Brc20RouterLogic",
            "label": "userScript",
            "offset": 0,
            "slot": "5",
            "type": "t_bytes_storage"
          },
          {
            "astId": 9565,
            "contract": "contracts/brc20_router/Brc20RouterLogic.sol:Brc20RouterLogic",
            "label": "scriptType",
            "offset": 0,
            "slot": "6",
            "type": "t_enum(ScriptTypes)7312"
          }
        ],
        "numberOfBytes": "224"
      },
      "t_struct(brc20WrapRequest)9550_storage": {
        "encoding": "inplace",
        "label": "struct IBrc20Router.brc20WrapRequest",
        "members": [
          {
            "astId": 9529,
            "contract": "contracts/brc20_router/Brc20RouterLogic.sol:Brc20RouterLogic",
            "label": "isUsed",
            "offset": 0,
            "slot": "0",
            "type": "t_bool"
          },
          {
            "astId": 9531,
            "contract": "contracts/brc20_router/Brc20RouterLogic.sol:Brc20RouterLogic",
            "label": "chainId",
            "offset": 0,
            "slot": "1",
            "type": "t_uint256"
          },
          {
            "astId": 9533,
            "contract": "contracts/brc20_router/Brc20RouterLogic.sol:Brc20RouterLogic",
            "label": "appId",
            "offset": 0,
            "slot": "2",
            "type": "t_uint256"
          },
          {
            "astId": 9535,
            "contract": "contracts/brc20_router/Brc20RouterLogic.sol:Brc20RouterLogic",
            "label": "tokenId",
            "offset": 0,
            "slot": "3",
            "type": "t_uint256"
          },
          {
            "astId": 9537,
            "contract": "contracts/brc20_router/Brc20RouterLogic.sol:Brc20RouterLogic",
            "label": "inputAmount",
            "offset": 0,
            "slot": "4",
            "type": "t_uint256"
          },
          {
            "astId": 9539,
            "contract": "contracts/brc20_router/Brc20RouterLogic.sol:Brc20RouterLogic",
            "label": "inputToken",
            "offset": 0,
            "slot": "5",
            "type": "t_address"
          },
          {
            "astId": 9541,
            "contract": "contracts/brc20_router/Brc20RouterLogic.sol:Brc20RouterLogic",
            "label": "recipientAddress",
            "offset": 0,
            "slot": "6",
            "type": "t_address"
          },
          {
            "astId": 9543,
            "contract": "contracts/brc20_router/Brc20RouterLogic.sol:Brc20RouterLogic",
            "label": "thirdPartyId",
            "offset": 0,
            "slot": "7",
            "type": "t_uint256"
          },
          {
            "astId": 9545,
            "contract": "contracts/brc20_router/Brc20RouterLogic.sol:Brc20RouterLogic",
            "label": "fee",
            "offset": 0,
            "slot": "8",
            "type": "t_uint256"
          },
          {
            "astId": 9547,
            "contract": "contracts/brc20_router/Brc20RouterLogic.sol:Brc20RouterLogic",
            "label": "outputAmount",
            "offset": 0,
            "slot": "9",
            "type": "t_uint256"
          },
          {
            "astId": 9549,
            "contract": "contracts/brc20_router/Brc20RouterLogic.sol:Brc20RouterLogic",
            "label": "outputToken",
            "offset": 0,
            "slot": "10",
            "type": "t_address"
          }
        ],
        "numberOfBytes": "352"
      },
      "t_struct(thirdParty)9571_storage": {
        "encoding": "inplace",
        "label": "struct IBrc20Router.thirdParty",
        "members": [
          {
            "astId": 9568,
            "contract": "contracts/brc20_router/Brc20RouterLogic.sol:Brc20RouterLogic",
            "label": "thirdPartyAddress",
            "offset": 0,
            "slot": "0",
            "type": "t_address"
          },
          {
            "astId": 9570,
            "contract": "contracts/brc20_router/Brc20RouterLogic.sol:Brc20RouterLogic",
            "label": "thirdPartyFee",
            "offset": 0,
            "slot": "1",
            "type": "t_uint256"
          }
        ],
        "numberOfBytes": "64"
      },
      "t_uint256": {
        "encoding": "inplace",
        "label": "uint256",
        "numberOfBytes": "32"
      },
      "t_uint8": {
        "encoding": "inplace",
        "label": "uint8",
        "numberOfBytes": "1"
      }
    }
  }
}