{
  "address": "0x88641B535A36dCd403FA102295C59a154c6818f6",
  "abi": [
    {
      "anonymous": false,
      "inputs": [
        {
          "indexed": false,
          "internalType": "uint256",
          "name": "tokenId",
          "type": "uint256"
        },
        {
          "indexed": false,
          "internalType": "address",
          "name": "wbrc20Proxy",
          "type": "address"
        }
      ],
      "name": "Brc20Removed",
      "type": "event"
    },
    {
      "anonymous": false,
      "inputs": [
        {
          "indexed": false,
          "internalType": "address",
          "name": "user",
          "type": "address"
        },
        {
          "indexed": false,
          "internalType": "uint256",
          "name": "remainingAmount",
          "type": "uint256"
        },
        {
          "indexed": false,
          "internalType": "address",
          "name": "inputToken",
          "type": "address"
        },
        {
          "indexed": false,
          "internalType": "uint256",
          "name": "outputAmount",
          "type": "uint256"
        },
        {
          "indexed": false,
          "internalType": "address",
          "name": "outputToken",
          "type": "address"
        },
        {
          "indexed": false,
          "internalType": "uint256",
          "name": "lockerFee",
          "type": "uint256"
        },
        {
          "indexed": false,
          "internalType": "uint256",
          "name": "protocolFee",
          "type": "uint256"
        },
        {
          "indexed": false,
          "internalType": "bytes32",
          "name": "txId",
          "type": "bytes32"
        }
      ],
      "name": "FailedWrapAndSwap",
      "type": "event"
    },
    {
      "anonymous": false,
      "inputs": [
        {
          "indexed": false,
          "internalType": "uint8",
          "name": "version",
          "type": "uint8"
        }
      ],
      "name": "Initialized",
      "type": "event"
    },
    {
      "anonymous": false,
      "inputs": [
        {
          "indexed": false,
          "internalType": "string",
          "name": "name",
          "type": "string"
        },
        {
          "indexed": false,
          "internalType": "uint256",
          "name": "decimal",
          "type": "uint256"
        },
        {
          "indexed": false,
          "internalType": "uint256",
          "name": "tokenId",
          "type": "uint256"
        },
        {
          "indexed": false,
          "internalType": "address",
          "name": "wbrc20Proxy",
          "type": "address"
        },
        {
          "indexed": false,
          "internalType": "address",
          "name": "wbrc20Logic",
          "type": "address"
        }
      ],
      "name": "NewBrc20",
      "type": "event"
    },
    {
      "anonymous": false,
      "inputs": [
        {
          "indexed": false,
          "internalType": "address",
          "name": "oldLocker",
          "type": "address"
        },
        {
          "indexed": false,
          "internalType": "address",
          "name": "newLocker",
          "type": "address"
        }
      ],
      "name": "NewLocker",
      "type": "event"
    },
    {
      "anonymous": false,
      "inputs": [
        {
          "indexed": false,
          "internalType": "uint256",
          "name": "oldProtocolPercentageFee",
          "type": "uint256"
        },
        {
          "indexed": false,
          "internalType": "uint256",
          "name": "newProtocolPercentageFee",
          "type": "uint256"
        }
      ],
      "name": "NewProtocolPercentageFee",
      "type": "event"
    },
    {
      "anonymous": false,
      "inputs": [
        {
          "indexed": false,
          "internalType": "address",
          "name": "oldRelay",
          "type": "address"
        },
        {
          "indexed": false,
          "internalType": "address",
          "name": "newRelay",
          "type": "address"
        }
      ],
      "name": "NewRelay",
      "type": "event"
    },
    {
      "anonymous": false,
      "inputs": [
        {
          "indexed": false,
          "internalType": "address",
          "name": "oldTeleporter",
          "type": "address"
        },
        {
          "indexed": false,
          "internalType": "address",
          "name": "newTeleporter",
          "type": "address"
        }
      ],
      "name": "NewTeleporter",
      "type": "event"
    },
    {
      "anonymous": false,
      "inputs": [
        {
          "indexed": false,
          "internalType": "address",
          "name": "oldTreasury",
          "type": "address"
        },
        {
          "indexed": false,
          "internalType": "address",
          "name": "newTreasury",
          "type": "address"
        }
      ],
      "name": "NewTreasury",
      "type": "event"
    },
    {
      "anonymous": false,
      "inputs": [
        {
          "indexed": false,
          "internalType": "address",
          "name": "user",
          "type": "address"
        },
        {
          "indexed": false,
          "internalType": "bytes",
          "name": "userScript",
          "type": "bytes"
        },
        {
          "indexed": false,
          "internalType": "enum ScriptTypes",
          "name": "scriptType",
          "type": "uint8"
        },
        {
          "indexed": false,
          "internalType": "address",
          "name": "inputToken",
          "type": "address"
        },
        {
          "indexed": false,
          "internalType": "uint256",
          "name": "inputAmount",
          "type": "uint256"
        },
        {
          "indexed": false,
          "internalType": "uint256",
          "name": "remainingAmount",
          "type": "uint256"
        },
        {
          "indexed": false,
          "internalType": "uint256",
          "name": "lockerFee",
          "type": "uint256"
        },
        {
          "indexed": false,
          "internalType": "uint256",
          "name": "protocolFee",
          "type": "uint256"
        },
        {
          "indexed": false,
          "internalType": "uint256",
          "name": "reqIdx",
          "type": "uint256"
        }
      ],
      "name": "NewUnwrap",
      "type": "event"
    },
    {
      "anonymous": false,
      "inputs": [
        {
          "indexed": false,
          "internalType": "address",
          "name": "user",
          "type": "address"
        },
        {
          "indexed": false,
          "internalType": "bytes",
          "name": "userScript",
          "type": "bytes"
        },
        {
          "indexed": false,
          "internalType": "enum ScriptTypes",
          "name": "scriptType",
          "type": "uint8"
        },
        {
          "indexed": false,
          "internalType": "uint256",
          "name": "inputAmount",
          "type": "uint256"
        },
        {
          "indexed": false,
          "internalType": "address",
          "name": "inputToken",
          "type": "address"
        },
        {
          "indexed": false,
          "internalType": "uint256",
          "name": "outputAmount",
          "type": "uint256"
        },
        {
          "indexed": false,
          "internalType": "uint256",
          "name": "remainingAmount",
          "type": "uint256"
        },
        {
          "indexed": false,
          "internalType": "address",
          "name": "outputToken",
          "type": "address"
        },
        {
          "indexed": false,
          "internalType": "uint256",
          "name": "lockerFee",
          "type": "uint256"
        },
        {
          "indexed": false,
          "internalType": "uint256",
          "name": "protocolFee",
          "type": "uint256"
        },
        {
          "indexed": false,
          "internalType": "uint256",
          "name": "reqIdx",
          "type": "uint256"
        }
      ],
      "name": "NewUnwrapAndSwap",
      "type": "event"
    },
    {
      "anonymous": false,
      "inputs": [
        {
          "indexed": false,
          "internalType": "address",
          "name": "user",
          "type": "address"
        },
        {
          "indexed": false,
          "internalType": "uint256",
          "name": "remainingAmount",
          "type": "uint256"
        },
        {
          "indexed": false,
          "internalType": "address",
          "name": "inputToken",
          "type": "address"
        },
        {
          "indexed": false,
          "internalType": "uint256",
          "name": "lockerFee",
          "type": "uint256"
        },
        {
          "indexed": false,
          "internalType": "uint256",
          "name": "protocolFee",
          "type": "uint256"
        },
        {
          "indexed": false,
          "internalType": "bytes32",
          "name": "txId",
          "type": "bytes32"
        }
      ],
      "name": "NewWrap",
      "type": "event"
    },
    {
      "anonymous": false,
      "inputs": [
        {
          "indexed": false,
          "internalType": "address",
          "name": "user",
          "type": "address"
        },
        {
          "indexed": false,
          "internalType": "uint256",
          "name": "remainingAmount",
          "type": "uint256"
        },
        {
          "indexed": false,
          "internalType": "address",
          "name": "inputToken",
          "type": "address"
        },
        {
          "indexed": false,
          "internalType": "uint256",
          "name": "outputAmount",
          "type": "uint256"
        },
        {
          "indexed": false,
          "internalType": "address",
          "name": "outputToken",
          "type": "address"
        },
        {
          "indexed": false,
          "internalType": "uint256",
          "name": "lockerFee",
          "type": "uint256"
        },
        {
          "indexed": false,
          "internalType": "uint256",
          "name": "protocolFee",
          "type": "uint256"
        },
        {
          "indexed": false,
          "internalType": "bytes32",
          "name": "txId",
          "type": "bytes32"
        }
      ],
      "name": "NewWrapAndSwap",
      "type": "event"
    },
    {
      "anonymous": false,
      "inputs": [
        {
          "indexed": true,
          "internalType": "address",
          "name": "previousOwner",
          "type": "address"
        },
        {
          "indexed": true,
          "internalType": "address",
          "name": "newOwner",
          "type": "address"
        }
      ],
      "name": "OwnershipTransferred",
      "type": "event"
    },
    {
      "anonymous": false,
      "inputs": [
        {
          "indexed": false,
          "internalType": "uint256",
          "name": "appId",
          "type": "uint256"
        },
        {
          "indexed": false,
          "internalType": "address",
          "name": "exchangeConnector",
          "type": "address"
        }
      ],
      "name": "SetExchangeConnector",
      "type": "event"
    },
    {
      "anonymous": false,
      "inputs": [
        {
          "indexed": false,
          "internalType": "uint256",
          "name": "oldFee",
          "type": "uint256"
        },
        {
          "indexed": false,
          "internalType": "uint256",
          "name": "newFee",
          "type": "uint256"
        },
        {
          "indexed": false,
          "internalType": "uint256",
          "name": "tokenId",
          "type": "uint256"
        },
        {
          "indexed": false,
          "internalType": "address",
          "name": "wbrc20Proxy",
          "type": "address"
        }
      ],
      "name": "UnwrapFeeUpdated",
      "type": "event"
    },
    {
      "anonymous": false,
      "inputs": [
        {
          "indexed": false,
          "internalType": "address",
          "name": "user",
          "type": "address"
        },
        {
          "indexed": false,
          "internalType": "uint256",
          "name": "remainingAmount",
          "type": "uint256"
        },
        {
          "indexed": false,
          "internalType": "bytes",
          "name": "userScript",
          "type": "bytes"
        },
        {
          "indexed": false,
          "internalType": "enum ScriptTypes",
          "name": "scriptType",
          "type": "uint8"
        },
        {
          "indexed": false,
          "internalType": "uint256",
          "name": "reqIdx",
          "type": "uint256"
        }
      ],
      "name": "UnwrapProcessed",
      "type": "event"
    },
    {
      "inputs": [
        {
          "internalType": "string",
          "name": "_name",
          "type": "string"
        },
        {
          "internalType": "uint8",
          "name": "_decimal",
          "type": "uint8"
        },
        {
          "internalType": "uint256",
          "name": "_tokenId",
          "type": "uint256"
        }
      ],
      "name": "addBrc20",
      "outputs": [],
      "stateMutability": "nonpayable",
      "type": "function"
    },
    {
      "inputs": [
        {
          "internalType": "uint256",
          "name": "",
          "type": "uint256"
        }
      ],
      "name": "brc20UnwrapRequests",
      "outputs": [
        {
          "internalType": "bool",
          "name": "isProcessed",
          "type": "bool"
        },
        {
          "internalType": "uint256",
          "name": "amount",
          "type": "uint256"
        },
        {
          "internalType": "uint256",
          "name": "burntAmount",
          "type": "uint256"
        },
        {
          "internalType": "uint256",
          "name": "appId",
          "type": "uint256"
        },
        {
          "internalType": "address",
          "name": "sender",
          "type": "address"
        },
        {
          "internalType": "bytes",
          "name": "userScript",
          "type": "bytes"
        },
        {
          "internalType": "enum ScriptTypes",
          "name": "scriptType",
          "type": "uint8"
        }
      ],
      "stateMutability": "view",
      "type": "function"
    },
    {
      "inputs": [
        {
          "internalType": "bytes32",
          "name": "",
          "type": "bytes32"
        }
      ],
      "name": "brc20WrapRequests",
      "outputs": [
        {
          "internalType": "bool",
          "name": "isUsed",
          "type": "bool"
        },
        {
          "internalType": "uint256",
          "name": "chainId",
          "type": "uint256"
        },
        {
          "internalType": "uint256",
          "name": "appId",
          "type": "uint256"
        },
        {
          "internalType": "uint256",
          "name": "tokenId",
          "type": "uint256"
        },
        {
          "internalType": "uint256",
          "name": "inputAmount",
          "type": "uint256"
        },
        {
          "internalType": "address",
          "name": "inputToken",
          "type": "address"
        },
        {
          "internalType": "address",
          "name": "recipientAddress",
          "type": "address"
        },
        {
          "internalType": "uint256",
          "name": "fee",
          "type": "uint256"
        },
        {
          "internalType": "uint256",
          "name": "outputAmount",
          "type": "uint256"
        },
        {
          "internalType": "address",
          "name": "outputToken",
          "type": "address"
        }
      ],
      "stateMutability": "view",
      "type": "function"
    },
    {
      "inputs": [],
      "name": "chainId",
      "outputs": [
        {
          "internalType": "uint256",
          "name": "",
          "type": "uint256"
        }
      ],
      "stateMutability": "view",
      "type": "function"
    },
    {
      "inputs": [
        {
          "internalType": "uint256",
          "name": "",
          "type": "uint256"
        }
      ],
      "name": "exchangeConnector",
      "outputs": [
        {
          "internalType": "address",
          "name": "",
          "type": "address"
        }
      ],
      "stateMutability": "view",
      "type": "function"
    },
    {
      "inputs": [
        {
          "internalType": "uint256",
          "name": "_startingBlockNumber",
          "type": "uint256"
        },
        {
          "internalType": "uint256",
          "name": "_protocolPercentageFee",
          "type": "uint256"
        },
        {
          "internalType": "uint256",
          "name": "_chainId",
          "type": "uint256"
        },
        {
          "internalType": "address",
          "name": "_relay",
          "type": "address"
        },
        {
          "internalType": "address",
          "name": "_locker",
          "type": "address"
        },
        {
          "internalType": "bytes",
          "name": "_lockerLockingScript",
          "type": "bytes"
        },
        {
          "internalType": "enum ScriptTypes",
          "name": "_lockerScriptType",
          "type": "uint8"
        },
        {
          "internalType": "address",
          "name": "_teleporter",
          "type": "address"
        },
        {
          "internalType": "address",
          "name": "_treasury",
          "type": "address"
        }
      ],
      "name": "initialize",
      "outputs": [],
      "stateMutability": "nonpayable",
      "type": "function"
    },
    {
      "inputs": [
        {
          "internalType": "uint256",
          "name": "_reqIdx",
          "type": "uint256"
        }
      ],
      "name": "isUnwrapRequestProcessed",
      "outputs": [
        {
          "internalType": "bool",
          "name": "",
          "type": "bool"
        }
      ],
      "stateMutability": "view",
      "type": "function"
    },
    {
      "inputs": [
        {
          "internalType": "bytes32",
          "name": "_txId",
          "type": "bytes32"
        }
      ],
      "name": "isWrapRequestProcessed",
      "outputs": [
        {
          "internalType": "bool",
          "name": "",
          "type": "bool"
        }
      ],
      "stateMutability": "view",
      "type": "function"
    },
    {
      "inputs": [],
      "name": "locker",
      "outputs": [
        {
          "internalType": "address",
          "name": "",
          "type": "address"
        }
      ],
      "stateMutability": "view",
      "type": "function"
    },
    {
      "inputs": [],
      "name": "lockerLockingScript",
      "outputs": [
        {
          "internalType": "bytes",
          "name": "",
          "type": "bytes"
        }
      ],
      "stateMutability": "view",
      "type": "function"
    },
    {
      "inputs": [],
      "name": "lockerPercentageFee",
      "outputs": [
        {
          "internalType": "uint256",
          "name": "",
          "type": "uint256"
        }
      ],
      "stateMutability": "view",
      "type": "function"
    },
    {
      "inputs": [],
      "name": "lockerScriptType",
      "outputs": [
        {
          "internalType": "enum ScriptTypes",
          "name": "",
          "type": "uint8"
        }
      ],
      "stateMutability": "view",
      "type": "function"
    },
    {
      "inputs": [],
      "name": "owner",
      "outputs": [
        {
          "internalType": "address",
          "name": "",
          "type": "address"
        }
      ],
      "stateMutability": "view",
      "type": "function"
    },
    {
      "inputs": [],
      "name": "protocolPercentageFee",
      "outputs": [
        {
          "internalType": "uint256",
          "name": "",
          "type": "uint256"
        }
      ],
      "stateMutability": "view",
      "type": "function"
    },
    {
      "inputs": [],
      "name": "relay",
      "outputs": [
        {
          "internalType": "address",
          "name": "",
          "type": "address"
        }
      ],
      "stateMutability": "view",
      "type": "function"
    },
    {
      "inputs": [
        {
          "internalType": "uint256",
          "name": "_tokenId",
          "type": "uint256"
        }
      ],
      "name": "removeBrc20",
      "outputs": [],
      "stateMutability": "nonpayable",
      "type": "function"
    },
    {
      "inputs": [],
      "name": "renounceOwnership",
      "outputs": [],
      "stateMutability": "nonpayable",
      "type": "function"
    },
    {
      "inputs": [
        {
          "internalType": "uint256",
          "name": "_chainId",
          "type": "uint256"
        }
      ],
      "name": "setChainId",
      "outputs": [],
      "stateMutability": "nonpayable",
      "type": "function"
    },
    {
      "inputs": [
        {
          "internalType": "uint256",
          "name": "_appId",
          "type": "uint256"
        },
        {
          "internalType": "address",
          "name": "_exchangeConnector",
          "type": "address"
        }
      ],
      "name": "setExchangeConnector",
      "outputs": [],
      "stateMutability": "nonpayable",
      "type": "function"
    },
    {
      "inputs": [
        {
          "internalType": "address",
          "name": "_locker",
          "type": "address"
        }
      ],
      "name": "setLocker",
      "outputs": [],
      "stateMutability": "nonpayable",
      "type": "function"
    },
    {
      "inputs": [
        {
          "internalType": "bytes",
          "name": "_lockerLockingScript",
          "type": "bytes"
        },
        {
          "internalType": "enum ScriptTypes",
          "name": "_lockerScriptType",
          "type": "uint8"
        }
      ],
      "name": "setLockerLockingScript",
      "outputs": [],
      "stateMutability": "nonpayable",
      "type": "function"
    },
    {
      "inputs": [
        {
          "internalType": "uint256",
          "name": "_protocolPercentageFee",
          "type": "uint256"
        }
      ],
      "name": "setProtocolPercentageFee",
      "outputs": [],
      "stateMutability": "nonpayable",
      "type": "function"
    },
    {
      "inputs": [
        {
          "internalType": "address",
          "name": "_relay",
          "type": "address"
        }
      ],
      "name": "setRelay",
      "outputs": [],
      "stateMutability": "nonpayable",
      "type": "function"
    },
    {
      "inputs": [
        {
          "internalType": "uint256",
          "name": "_startingBlockNumber",
          "type": "uint256"
        }
      ],
      "name": "setStartingBlockNumber",
      "outputs": [],
      "stateMutability": "nonpayable",
      "type": "function"
    },
    {
      "inputs": [
        {
          "internalType": "address",
          "name": "_teleporter",
          "type": "address"
        }
      ],
      "name": "setTeleporter",
      "outputs": [],
      "stateMutability": "nonpayable",
      "type": "function"
    },
    {
      "inputs": [
        {
          "internalType": "address",
          "name": "_treasury",
          "type": "address"
        }
      ],
      "name": "setTreasury",
      "outputs": [],
      "stateMutability": "nonpayable",
      "type": "function"
    },
    {
      "inputs": [
        {
          "internalType": "uint256",
          "name": "_tokenId",
          "type": "uint256"
        },
        {
          "internalType": "uint256",
          "name": "_amount",
          "type": "uint256"
        }
      ],
      "name": "setUnwrapFee",
      "outputs": [],
      "stateMutability": "nonpayable",
      "type": "function"
    },
    {
      "inputs": [],
      "name": "startingBlockNumber",
      "outputs": [
        {
          "internalType": "uint256",
          "name": "",
          "type": "uint256"
        }
      ],
      "stateMutability": "view",
      "type": "function"
    },
    {
      "inputs": [
        {
          "internalType": "uint256",
          "name": "",
          "type": "uint256"
        }
      ],
      "name": "supportedBrc20s",
      "outputs": [
        {
          "internalType": "address",
          "name": "",
          "type": "address"
        }
      ],
      "stateMutability": "view",
      "type": "function"
    },
    {
      "inputs": [],
      "name": "teleporter",
      "outputs": [
        {
          "internalType": "address",
          "name": "",
          "type": "address"
        }
      ],
      "stateMutability": "view",
      "type": "function"
    },
    {
      "inputs": [
        {
          "internalType": "string",
          "name": "",
          "type": "string"
        }
      ],
      "name": "tokenIds",
      "outputs": [
        {
          "internalType": "uint256",
          "name": "",
          "type": "uint256"
        }
      ],
      "stateMutability": "view",
      "type": "function"
    },
    {
      "inputs": [
        {
          "internalType": "address",
          "name": "newOwner",
          "type": "address"
        }
      ],
      "name": "transferOwnership",
      "outputs": [],
      "stateMutability": "nonpayable",
      "type": "function"
    },
    {
      "inputs": [],
      "name": "treasury",
      "outputs": [
        {
          "internalType": "address",
          "name": "",
          "type": "address"
        }
      ],
      "stateMutability": "view",
      "type": "function"
    },
    {
      "inputs": [
        {
          "internalType": "uint256",
          "name": "_tokenId",
          "type": "uint256"
        },
        {
          "internalType": "uint256",
          "name": "_amount",
          "type": "uint256"
        },
        {
          "internalType": "bytes",
          "name": "_userScript",
          "type": "bytes"
        },
        {
          "internalType": "enum ScriptTypes",
          "name": "_scriptType",
          "type": "uint8"
        },
        {
          "internalType": "uint256",
          "name": "_appId",
          "type": "uint256"
        },
        {
          "internalType": "uint256",
          "name": "_inputAmount",
          "type": "uint256"
        },
        {
          "internalType": "address[]",
          "name": "_path",
          "type": "address[]"
        }
      ],
      "name": "unwrapBrc20",
      "outputs": [],
      "stateMutability": "nonpayable",
      "type": "function"
    },
    {
      "inputs": [],
      "name": "unwrapCounter",
      "outputs": [
        {
          "internalType": "uint256",
          "name": "",
          "type": "uint256"
        }
      ],
      "stateMutability": "view",
      "type": "function"
    },
    {
      "inputs": [
        {
          "internalType": "uint256",
          "name": "",
          "type": "uint256"
        }
      ],
      "name": "unwrapFees",
      "outputs": [
        {
          "internalType": "uint256",
          "name": "",
          "type": "uint256"
        }
      ],
      "stateMutability": "view",
      "type": "function"
    },
    {
      "inputs": [
        {
          "internalType": "bytes4",
          "name": "_version",
          "type": "bytes4"
        },
        {
          "internalType": "bytes",
          "name": "_vin",
          "type": "bytes"
        },
        {
          "internalType": "bytes",
          "name": "_vout",
          "type": "bytes"
        },
        {
          "internalType": "bytes4",
          "name": "_locktime",
          "type": "bytes4"
        },
        {
          "internalType": "uint256",
          "name": "_blockNumber",
          "type": "uint256"
        },
        {
          "internalType": "bytes",
          "name": "_intermediateNodes",
          "type": "bytes"
        },
        {
          "internalType": "uint256",
          "name": "_index",
          "type": "uint256"
        },
        {
          "internalType": "uint256[]",
          "name": "_reqIndexes",
          "type": "uint256[]"
        }
      ],
      "name": "unwrapProof",
      "outputs": [],
      "stateMutability": "payable",
      "type": "function"
    },
    {
      "inputs": [
        {
          "internalType": "bytes4",
          "name": "_version",
          "type": "bytes4"
        },
        {
          "internalType": "bytes",
          "name": "_vin",
          "type": "bytes"
        },
        {
          "internalType": "bytes",
          "name": "_vout",
          "type": "bytes"
        },
        {
          "internalType": "bytes4",
          "name": "_locktime",
          "type": "bytes4"
        },
        {
          "internalType": "uint256",
          "name": "_blockNumber",
          "type": "uint256"
        },
        {
          "internalType": "bytes",
          "name": "_intermediateNodes",
          "type": "bytes"
        },
        {
          "internalType": "uint256",
          "name": "_index",
          "type": "uint256"
        },
        {
          "internalType": "address[]",
          "name": "_path",
          "type": "address[]"
        }
      ],
      "name": "wrapBrc20",
      "outputs": [],
      "stateMutability": "payable",
      "type": "function"
    },
    {
      "stateMutability": "payable",
      "type": "receive"
    }
  ],
  "transactionHash": "0xb648ad6a5176f360b6aa7990db6632418855962342eafc366ff58e5452e93b89",
  "args": [],
  "numDeployments": 1,
  "solcInputHash": "f2934371d70faabbcb6f921d30c3c129",
  "bytecode": "0x608060405234801561001057600080fd5b50614e12806100206000396000f3fe6080604052600436106200025f5760003560e01c8063816c2e6a116200013f578063b59589d111620000bb578063d8484ef51162000079578063d8484ef5146200080e578063e901fe571462000839578063ef0e2ff41462000873578063f0f442601462000898578063f2fde38b14620008bd5762000267565b8063b59589d11462000752578063c5a2b47a1462000774578063c805f68b14620007b0578063d4b639f514620007d5578063d7b96d4e14620007ec5762000267565b8063a3696a091162000109578063a3696a0914620006a4578063a44c2b9a14620006c9578063b3ff9f4914620006ee578063b4e183f41462000715578063b4fd9a6c146200073a5762000267565b8063816c2e6a14620006245780638da5cb5b146200063b5780639a7b78d2146200065b5780639a8a0592146200068c5762000267565b806361d027b311620001db578063715018a61162000199578063715018a614620004b857806376017e7114620004d05780637922418314620005b55780637e43bd3d14620005da5780637ed5574814620005ff5762000267565b806361d027b314620003ee5780636390802014620004295780636b2857ef14620004415780636e8adf61146200046657806370872aa514620004a05762000267565b8063171060ec1162000229578063171060ec14620003335780631812adb614620003585780631e7107c7146200037f57806337a13b4414620003a457806350d7446814620003c95762000267565b8063088302a6146200026c57806309b53fd6146200029c5780630e72e41e14620002d6578063160813f6146200030c5762000267565b366200026757005b600080fd5b3480156200027957600080fd5b5062000284620008e2565b60405162000293919062003a0e565b60405180910390f35b348015620002a957600080fd5b50620002c1620002bb36600462003060565b62000978565b604051620002939796959493929190620039b4565b348015620002e357600080fd5b50620002fb620002f536600462003060565b62000a6c565b604051901515815260200162000293565b3480156200031957600080fd5b50620003316200032b36600462003439565b62000abc565b005b3480156200034057600080fd5b50620003316200035236600462002f51565b62000e9d565b3480156200036557600080fd5b506200037060995481565b60405190815260200162000293565b3480156200038c57600080fd5b50620003316200039e36600462003060565b62000f3b565b348015620003b157600080fd5b5062000331620003c336600462003417565b62000f91565b348015620003d657600080fd5b5062000331620003e83660046200354a565b62001013565b348015620003fb57600080fd5b50609d5462000410906001600160a01b031681565b6040516001600160a01b03909116815260200162000293565b3480156200043657600080fd5b5062000370609a5481565b3480156200044e57600080fd5b506200033162000460366004620033e5565b62001193565b3480156200047357600080fd5b50620004106200048536600462003060565b60a3602052600090815260409020546001600160a01b031681565b348015620004ad57600080fd5b506200037060975481565b348015620004c557600080fd5b50620003316200120c565b348015620004dd57600080fd5b5062000553620004ef36600462003060565b60a260205260009081526040902080546001820154600283015460038401546004850154600586015460068701546007880154600889015460099099015460ff9098169896979596949593946001600160a01b03938416949284169391929091168a565b604080519a15158b5260208b019990995297890196909652606088019490945260808701929092526001600160a01b0390811660a087015290811660c086015260e0850191909152610100840191909152166101208201526101400162000293565b348015620005c257600080fd5b5062000331620005d436600462003384565b62001218565b348015620005e757600080fd5b5062000331620005f936600462003060565b6200150b565b3480156200060c57600080fd5b50620003316200061e36600462003060565b62001692565b62000331620006353660046200318d565b62001727565b3480156200064857600080fd5b506033546001600160a01b031662000410565b3480156200066857600080fd5b50620003706200067a36600462003060565b60a16020526000908152604090205481565b3480156200069957600080fd5b506200037060985481565b348015620006b157600080fd5b5062000331620006c336600462002f51565b62001b83565b348015620006d657600080fd5b50620002fb620006e836600462003060565b62001c2c565b348015620006fb57600080fd5b5060a654620004109061010090046001600160a01b031681565b3480156200072257600080fd5b5062000331620007343660046200327a565b62001c4b565b3480156200074757600080fd5b5062000370609b5481565b3480156200075f57600080fd5b50609c5462000410906001600160a01b031681565b3480156200078157600080fd5b506200037062000793366004620032cb565b805160208183018101805160a08252928201919093012091525481565b348015620007bd57600080fd5b5062000331620007cf36600462002f51565b62001ca2565b62000331620007e636600462003092565b62001d40565b348015620007f957600080fd5b50609e5462000410906001600160a01b031681565b3480156200081b57600080fd5b5060a6546200082a9060ff1681565b60405162000293919062003a23565b3480156200084657600080fd5b50620004106200085836600462003060565b609f602052600090815260409020546001600160a01b031681565b3480156200088057600080fd5b50620003316200089236600462003060565b62002510565b348015620008a557600080fd5b5062000331620008b736600462002f51565b6200251f565b348015620008ca57600080fd5b5062000331620008dc36600462002f51565b620025bd565b60a58054620008f19062003ddf565b80601f01602080910402602001604051908101604052809291908181526020018280546200091f9062003ddf565b8015620009705780601f10620009445761010080835404028352916020019162000970565b820191906000526020600020905b8154815290600101906020018083116200095257829003601f168201915b505050505081565b60a481815481106200098957600080fd5b600091825260209091206007909102018054600182015460028301546003840154600485015460058601805460ff90961697509395929491936001600160a01b039091169291620009da9062003ddf565b80601f016020809104026020016040519081016040528092919081815260200182805462000a089062003ddf565b801562000a595780601f1062000a2d5761010080835404028352916020019162000a59565b820191906000526020600020905b81548152906001019060200180831162000a3b57829003601f168201915b5050506006909301549192505060ff1687565b600060a4828154811062000a9057634e487b7160e01b600052603260045260246000fd5b600091825260209091206007909102015460ff1662000ab157600062000ab4565b60015b90505b919050565b62000ac66200263c565b6000878152609f60205260409020546001600160a01b03168062000b285760405162461bcd60e51b8152602060048201526014602482015273131bd9da58ce881b9bdd081cdd5c1c1bdc9d195960621b60448201526064015b60405180910390fd5b81511562000c85578160008151811062000b5257634e487b7160e01b600052603260045260246000fd5b60209081029190910101516040516323b872dd60e01b8152336004820152306024820152604481018590526001600160a01b03909116906323b872dd90606401602060405180830381600087803b15801562000bad57600080fd5b505af115801562000bc2573d6000803e3d6000fd5b505050506040513d601f19601f8201168201806040525081019062000be8919062002f96565b5060008062000bfb8630878c8862002698565b915091508162000c435760405162461bcd60e51b8152602060048201526012602482015271131bd9da58ce881cddd85c0819985a5b195960721b604482015260640162000b1f565b806001825162000c54919062003d92565b8151811062000c7357634e487b7160e01b600052603260045260246000fd5b60200260200101519850505062000d66565b6001600160a01b0381166323b872dd336040516001600160e01b031960e084901b1681526001600160a01b039091166004820152306024820152604481018a9052606401602060405180830381600087803b15801562000ce457600080fd5b505af115801562000cf9573d6000803e3d6000fd5b505050506040513d601f19601f8201168201806040525081019062000d1f919062002f96565b62000d665760405162461bcd60e51b8152602060048201526016602482015275131bd9da58ce881d1c985b9cd9995c8819985a5b195960521b604482015260640162000b1f565b600088815260a160205260408120548190819062000d8890858c8c8c620028ed565b92509250925084516000141562000dfb577f3edab6712f6554939a0dbeb0d5efe1dfd195d57b763bd78944fd3c1f416e3210338a8a878e868989600160a48054905062000dd6919062003d92565b60405162000ded9998979695949392919062003719565b60405180910390a162000e85565b7fd27fc2c4b752e23e2c11dc072d1f415ecf66b470dd215d81503894907647e412338a8a898960008151811062000e4257634e487b7160e01b600052603260045260246000fd5b60200260200101518f878b8a8c600160a48054905062000e63919062003d92565b60405162000e7c9b9a9998979695949392919062003787565b60405180910390a15b5050505062000e946001606555565b50505050505050565b806001600160a01b03811662000ec75760405162461bcd60e51b815260040162000b1f9062003abb565b62000ed162002b74565b609e54604080516001600160a01b03928316815291841660208301527f69253c7023f628e3a302b63087a3bfc1dfdb256780182f81b9f0df9eff9542b0910160405180910390a150609e80546001600160a01b0319166001600160a01b0392909216919091179055565b62000f4562002b74565b609754811162000f8c5760405162461bcd60e51b81526020600482015260116024820152702637b3b4b19d103637bb90373ab6b132b960791b604482015260640162000b1f565b609755565b62000f9b62002b74565b600082815260a16020908152604080832054609f83529281902054815193845291830184905282018490526001600160a01b031660608201527fb32f41f55776a1e7b96763af2c9beabbf0bb73f2227eea445e71274ffe59a77a9060800160405180910390a1600091825260a1602052604090912055565b600054610100900460ff1615808015620010345750600054600160ff909116105b80620010505750303b15801562001050575060005460ff166001145b620010b55760405162461bcd60e51b815260206004820152602e60248201527f496e697469616c697a61626c653a20636f6e747261637420697320616c72656160448201526d191e481a5b9a5d1a585b1a5e995960921b606482015260840162000b1f565b6000805460ff191660011790558015620010d9576000805461ff0019166101001790555b620010e362002bd0565b620010ed62002c04565b6098889055620010fd8a62000f3b565b620011088962001692565b620011138762001ca2565b6200111e8662000e9d565b6200112a858562001c4b565b620011358362001b83565b62001140826200251f565b801562001187576000805461ff0019169055604051600181527f7f26b83ff96e1f2b6a682f133852f6798a09c465da95921460cefb38474024989060200160405180910390a15b50505050505050505050565b6200119d62002b74565b604080518381526001600160a01b03831660208201527f31a8c4e62daac2a3ed5d713004d9ae867d6dcddfa35603db2a4b65d9236b1bc1910160405180910390a1600091825260a3602052604090912080546001600160a01b0319166001600160a01b03909216919091179055565b6200121662002b74565b565b6200122262002b74565b60007310d3cd258ec981eba81715190660c56387f278D063dbf34f026040518163ffffffff1660e01b815260040160206040518083038186803b1580156200126957600080fd5b505af41580156200127e573d6000803e3d6000fd5b505050506040513d601f19601f82011682018060405250810190620012a4919062002f77565b90506060600082620012be6033546001600160a01b031690565b83604051620012cd9062002ce9565b620012db93929190620036eb565b604051809103906000f080158015620012f8573d6000803e3d6000fd5b50604051630b127b6360e11b815290915081906001600160a01b03821690631624f6c69062001330908a9081908b9060040162003a39565b600060405180830381600087803b1580156200134b57600080fd5b505af115801562001360573d6000803e3d6000fd5b5050604051634c1d96ab60e11b81523060048201526001600160a01b038416925063983b2d569150602401600060405180830381600087803b158015620013a657600080fd5b505af1158015620013bb573d6000803e3d6000fd5b5050604051637a231bdd60e11b81523060048201526001600160a01b038416925063f44637ba9150602401600060405180830381600087803b1580156200140157600080fd5b505af115801562001416573d6000803e3d6000fd5b5050506000868152609f60205260409020546001600160a01b0316159050620014735760405162461bcd60e51b815260206004820152600e60248201526d131bd9da58ce881d5cd959081a5960921b604482015260640162000b1f565b6000858152609f60205260409081902080546001600160a01b0319166001600160a01b03841617905551859060a090620014af908a90620036cd565b9081526020016040518091039020819055507f20359fc049b8e035e3e74b3b4c6ba473d295e6a5b64ed7d1ba68a422d2ebe58e8787878488604051620014fa95949392919062003a76565b60405180910390a150505050505050565b6200151562002b74565b6000818152609f60205260409020546001600160a01b03166200156d5760405162461bcd60e51b815260206004820152600f60248201526e2637b3b4b19d103737903a37b5b2b760891b604482015260640162000b1f565b6000818152609f60209081526040918290205482518481526001600160a01b03909116918101919091527fac0bcdf003615c60a0c51d67379bde3d2fb4aaeade0aa8ecd7a4f176389bf37f910160405180910390a16000818152609f60205260408082205481516306fdde0360e01b8152915160a0926001600160a01b03909216916306fdde039160048083019287929190829003018186803b1580156200161457600080fd5b505afa15801562001629573d6000803e3d6000fd5b505050506040513d6000823e601f3d908101601f1916820160405262001653919081019062003309565b604051620016629190620036cd565b9081526040805160209281900383019020929092556000928352609f9052902080546001600160a01b0319169055565b6200169c62002b74565b806127101015620016e65760405162461bcd60e51b81526020600482015260136024820152724c6f6769633a206f7574206f662072616e676560681b604482015260640162000b1f565b60995460408051918252602082018390527f7d205f60891f60851c61cd244ba387d72b6589e7c0ac41b9d909ab0ce2c2a53b910160405180910390a1609955565b620017316200263c565b609e546001600160a01b0316336001600160a01b0316146200178a5760405162461bcd60e51b81526020600482015260116024820152702637b3b4b19d103737ba103637b1b5b2b960791b604482015260640162000b1f565b609754609c5460405163e291283d60e01b81527310d3cd258ec981eba81715190660c56387f278D09263e291283d92620017e1926001600160a01b03909116908d908d908d908d908d908d908d9060040162003bc8565b60206040518083038186803b158015620017fa57600080fd5b505af41580156200180f573d6000803e3d6000fd5b505050506040513d601f19601f8201168201806040525081019062001835919062003079565b5060005b815181101562001b6d5760a48282815181106200186657634e487b7160e01b600052603260045260246000fd5b6020026020010151815481106200188d57634e487b7160e01b600052603260045260246000fd5b600091825260209091206007909102015460ff1615620018f05760405162461bcd60e51b815260206004820152601860248201527f4c6f6769633a20616c72656164792070726f6365737365640000000000000000604482015260640162000b1f565b600160a48383815181106200191557634e487b7160e01b600052603260045260246000fd5b6020026020010151815481106200193c57634e487b7160e01b600052603260045260246000fd5b906000526020600020906007020160000160006101000a81548160ff0219169083151502179055507f56c14e8419eba0c1dd20639c364b8c0e59e27be856d876527a563a14fc42fe7b60a4838381518110620019a857634e487b7160e01b600052603260045260246000fd5b602002602001015181548110620019cf57634e487b7160e01b600052603260045260246000fd5b906000526020600020906007020160040160009054906101000a90046001600160a01b031660a484848151811062001a1757634e487b7160e01b600052603260045260246000fd5b60200260200101518154811062001a3e57634e487b7160e01b600052603260045260246000fd5b90600052602060002090600702016002015460a485858151811062001a7357634e487b7160e01b600052603260045260246000fd5b60200260200101518154811062001a9a57634e487b7160e01b600052603260045260246000fd5b906000526020600020906007020160050160a486868151811062001ace57634e487b7160e01b600052603260045260246000fd5b60200260200101518154811062001af557634e487b7160e01b600052603260045260246000fd5b906000526020600020906007020160060160009054906101000a900460ff1686868151811062001b3557634e487b7160e01b600052603260045260246000fd5b602002602001015160405162001b5095949392919062003854565b60405180910390a18062001b648162003e1c565b91505062001839565b5062001b796001606555565b5050505050505050565b806001600160a01b03811662001bad5760405162461bcd60e51b815260040162000b1f9062003abb565b62001bb762002b74565b60a654604080516001600160a01b036101009093048316815291841660208301527f150b77d21bd499fd0dccea9fe32513c7b65aa34ccde41e7dafac74ace8e19c94910160405180910390a15060a680546001600160a01b0390921661010002610100600160a81b0319909216919091179055565b600081815260a2602052604081205460ff1662000ab157600062000ab4565b62001c5562002b74565b815162001c6a9060a590602085019062002cf7565b5060a6805482919060ff1916600183600581111562001c9957634e487b7160e01b600052602160045260246000fd5b02179055505050565b806001600160a01b03811662001ccc5760405162461bcd60e51b815260040162000b1f9062003abb565b62001cd662002b74565b609c54604080516001600160a01b03928316815291841660208301527f4c28a3f61a715259c4dc930c23e7423b8fa52e13232c061a6e488729c66184f4910160405180910390a150609c80546001600160a01b0319166001600160a01b0392909216919091179055565b62001d4a6200263c565b60a65461010090046001600160a01b031662001d633390565b6001600160a01b03161462001db35760405162461bcd60e51b81526020600482015260156024820152742637b3b4b19d103737ba103a32b632b837b93a32b960591b604482015260640162000b1f565b60007310d3cd258ec981eba81715190660c56387f278D063e291283d609754609c60009054906101000a90046001600160a01b03168e8e8e8e8e8e8e8e8e6040518c63ffffffff1660e01b815260040162001e199b9a9998979695949392919062003b33565b60206040518083038186803b15801562001e3257600080fd5b505af415801562001e47573d6000803e3d6000fd5b505050506040513d601f19601f8201168201806040525081019062001e6d919062003079565b90506000806000807310d3cd258ec981eba81715190660c56387f278D06317fba6a96098548f8f8960a2609f609954609a546127106040518a63ffffffff1660e01b815260040162001ec89998979695949392919062003c59565b60806040518083038186803b15801562001ee157600080fd5b505af415801562001ef6573d6000803e3d6000fd5b505050506040513d601f19601f8201168201806040525081019062001f1c919062003507565b9350935093509350806001600160a01b03166340c10f193086858762001f43919062003d77565b62001f4f919062003d77565b6040516001600160e01b031960e085901b1681526001600160a01b0390921660048301526024820152604401602060405180830381600087803b15801562001f9657600080fd5b505af115801562001fab573d6000803e3d6000fd5b505050506040513d601f19601f8201168201806040525081019062001fd1919062002f96565b50609d5460405163a9059cbb60e01b81526001600160a01b039182166004820152602481018590529082169063a9059cbb90604401602060405180830381600087803b1580156200202157600080fd5b505af115801562002036573d6000803e3d6000fd5b505050506040513d601f19601f820116820180604052508101906200205c919062002f96565b50609e5460405163a9059cbb60e01b81526001600160a01b039182166004820152602481018490529082169063a9059cbb90604401602060405180830381600087803b158015620020ac57600080fd5b505af1158015620020c1573d6000803e3d6000fd5b505050506040513d601f19601f82011682018060405250810190620020e7919062002f96565b50600085815260a26020908152604091829020825161014081018452815460ff16151581526001820154928101929092526002810154928201839052600381015460608301526004810154608083015260058101546001600160a01b0390811660a08401526006820154811660c0840152600782015460e084015260088201546101008401526009909101541661012082015290620022785760c081015160405163a9059cbb60e01b81526001600160a01b039182166004820152602481018790529083169063a9059cbb90604401602060405180830381600087803b158015620021d157600080fd5b505af1158015620021e6573d6000803e3d6000fd5b505050506040513d601f19601f820116820180604052508101906200220c919062002f96565b5060c080820151604080516001600160a01b0392831681526020810189905291851690820152606081018590526080810186905260a081018890527fdfee8939e8f1089c438e0a985f0be4726c5a5bd186bad3d57e1bd79b7e47cce0910160405180910390a1620024ff565b8060a001516001600160a01b031687600081518110620022a857634e487b7160e01b600052603260045260246000fd5b60200260200101516001600160a01b03161480156200231457508061012001516001600160a01b03168760018951620022e2919062003d92565b815181106200230157634e487b7160e01b600052603260045260246000fd5b60200260200101516001600160a01b0316145b620023625760405162461bcd60e51b815260206004820152601b60248201527f4275726e526f757465724c6f6769633a2077726f6e6720706174680000000000604482015260640162000b1f565b6000806200238183604001518460c00151898661010001518d62002698565b91509150811562002419577f3815e79573df9cbfee4348a1df0f90aa8c6b1a05c1372cea1e35c5de7429a3f08360c0015188868460018651620023c5919062003d92565b81518110620023e457634e487b7160e01b600052603260045260246000fd5b60200260200101518761012001518a8c8f6040516200240b98979695949392919062003809565b60405180910390a1620024fc565b7fe4c4c67633a3c05aa4ffda74e4841ae1d7befdd76b6bb59b5d589a8a95225e468360c0015188868661010001518761012001518a8c8f6040516200246698979695949392919062003809565b60405180910390a160c083015160405163a9059cbb60e01b81526001600160a01b039182166004820152602481018990529085169063a9059cbb90604401602060405180830381600087803b158015620024bf57600080fd5b505af1158015620024d4573d6000803e3d6000fd5b505050506040513d601f19601f82011682018060405250810190620024fa919062002f96565b505b50505b505050505050620011876001606555565b6200251a62002b74565b609855565b806001600160a01b038116620025495760405162461bcd60e51b815260040162000b1f9062003abb565b6200255362002b74565b609d54604080516001600160a01b03928316815291841660208301527f567657fa3f286518b318f4a29870674f433f622fdfc819691acb13105b228225910160405180910390a150609d80546001600160a01b0319166001600160a01b0392909216919091179055565b620025c762002b74565b6001600160a01b0381166200262e5760405162461bcd60e51b815260206004820152602660248201527f4f776e61626c653a206e6577206f776e657220697320746865207a65726f206160448201526564647265737360d01b606482015260840162000b1f565b620026398162002c38565b50565b60026065541415620026915760405162461bcd60e51b815260206004820152601f60248201527f5265656e7472616e637947756172643a207265656e7472616e742063616c6c00604482015260640162000b1f565b6002606555565b600085815260a360205260408120546060906001600160a01b031680620027025760405162461bcd60e51b815260206004820152601e60248201527f4275726e526f757465724c6f6769633a20696e76616c69642061707049640000604482015260640162000b1f565b836000815181106200272457634e487b7160e01b600052603260045260246000fd5b602090810291909101015160405163095ea7b360e01b81526001600160a01b038381166004830152602482018990529091169063095ea7b390604401602060405180830381600087803b1580156200277b57600080fd5b505af115801562002790573d6000803e3d6000fd5b505050506040513d601f19601f82011682018060405250810190620027b6919062002f96565b506040516326d2f28960e21b81526001600160a01b03821690639b4bca2490620027e59087906004016200399f565b60206040518083038186803b158015620027fe57600080fd5b505afa15801562002813573d6000803e3d6000fd5b505050506040513d601f19601f8201168201806040525081019062002839919062002f96565b15620028dd5760405163161779b160e31b81526001600160a01b0382169063b0bbcd889062002878908990899089908d90429060019060040162003caa565b600060405180830381600087803b1580156200289357600080fd5b505af1158015620028a8573d6000803e3d6000fd5b505050506040513d6000823e601f3d908101601f19168201604052620028d2919081019062002fb3565b9093509150620028e2565b600092505b509550959350505050565b600080807310d3cd258ec981eba81715190660c56387f278D063ff13660c33609954609a5461271060a48e8d8d8d6040518a63ffffffff1660e01b8152600401620029419998979695949392919062003936565b60606040518083038186803b1580156200295a57600080fd5b505af41580156200296f573d6000803e3d6000fd5b505050506040513d601f19601f82011682018060405250810190620029959190620034d9565b609b805493965091945092506000620029ae8362003e1c565b9091555050609d5460405163a9059cbb60e01b81526001600160a01b039182166004820152602481018590529088169063a9059cbb90604401602060405180830381600087803b15801562002a0257600080fd5b505af115801562002a17573d6000803e3d6000fd5b505050506040513d601f19601f8201168201806040525081019062002a3d919062002f96565b50609e546001600160a01b038089169163a9059cbb911662002a60858c62003d77565b6040516001600160e01b031960e085901b1681526001600160a01b0390921660048301526024820152604401602060405180830381600087803b15801562002aa757600080fd5b505af115801562002abc573d6000803e3d6000fd5b505050506040513d601f19601f8201168201806040525081019062002ae2919062002f96565b50604051630852cd8d60e31b8152600481018290526001600160a01b038816906342966c6890602401602060405180830381600087803b15801562002b2657600080fd5b505af115801562002b3b573d6000803e3d6000fd5b505050506040513d601f19601f8201168201806040525081019062002b61919062002f96565b50955095509592505050565b6001606555565b6033546001600160a01b03163314620012165760405162461bcd60e51b815260206004820181905260248201527f4f776e61626c653a2063616c6c6572206973206e6f7420746865206f776e6572604482015260640162000b1f565b600054610100900460ff1662002bfa5760405162461bcd60e51b815260040162000b1f9062003ae8565b6200121662002c8a565b600054610100900460ff1662002c2e5760405162461bcd60e51b815260040162000b1f9062003ae8565b6200121662002cbf565b603380546001600160a01b038381166001600160a01b0319831681179093556040519116919082907f8be0079c531659141344cd1fd0a4f28419497f9722a3daafe3b4186f6b6457e090600090a35050565b600054610100900460ff1662002cb45760405162461bcd60e51b815260040162000b1f9062003ae8565b620012163362002c38565b600054610100900460ff1662002b6d5760405162461bcd60e51b815260040162000b1f9062003ae8565b610f608062003e7d83390190565b82805462002d059062003ddf565b90600052602060002090601f01602090048101928262002d29576000855562002d74565b82601f1062002d4457805160ff191683800117855562002d74565b8280016001018555821562002d74579182015b8281111562002d7457825182559160200191906001019062002d57565b5062002d8292915062002d86565b5090565b5b8082111562002d82576000815560010162002d87565b600082601f83011262002dae578081fd5b8135602062002dc762002dc18362003d27565b62003cf4565b828152818101908583018385028701840188101562002de4578586fd5b855b8581101562002e0f57813562002dfc8162003e66565b8452928401929084019060010162002de6565b5090979650505050505050565b600082601f83011262002e2d578081fd5b8135602062002e4062002dc18362003d27565b828152818101908583018385028701840188101562002e5d578586fd5b855b8581101562002e0f5781358452928401929084019060010162002e5f565b8051801515811462000ab757600080fd5b80356001600160e01b03198116811462000ab757600080fd5b60008083601f84011262002eb9578182fd5b5081356001600160401b0381111562002ed0578182fd5b60208301915083602082850101111562002ee957600080fd5b9250929050565b600082601f83011262002f01578081fd5b813562002f1262002dc18262003d4d565b81815284602083860101111562002f27578283fd5b816020850160208301379081016020019190915292915050565b80356006811062000ab757600080fd5b60006020828403121562002f63578081fd5b813562002f708162003e66565b9392505050565b60006020828403121562002f89578081fd5b815162002f708162003e66565b60006020828403121562002fa8578081fd5b62002f708262002e7d565b6000806040838503121562002fc6578081fd5b62002fd18362002e7d565b91506020808401516001600160401b0381111562002fed578283fd5b8401601f8101861362002ffe578283fd5b80516200300f62002dc18262003d27565b81815283810190838501858402850186018a10156200302c578687fd5b8694505b838510156200305057805183526001949094019391850191850162003030565b5080955050505050509250929050565b60006020828403121562003072578081fd5b5035919050565b6000602082840312156200308b578081fd5b5051919050565b6000806000806000806000806000806101008b8d031215620030b2578586fd5b620030bd8b62002e8e565b995060208b01356001600160401b0380821115620030d9578788fd5b620030e78e838f0162002ef0565b9a5060408d0135915080821115620030fd578788fd5b6200310b8e838f0162002ea7565b909a5098508891506200312160608e0162002e8e565b975060808d0135965060a08d01359150808211156200313e578586fd5b6200314c8e838f0162002ea7565b909650945060c08d0135935060e08d01359150808211156200316c578283fd5b506200317b8d828e0162002d9d565b9150509295989b9194979a5092959850565b600080600080600080600080610100898b031215620031aa578182fd5b620031b58962002e8e565b975060208901356001600160401b0380821115620031d1578384fd5b620031df8c838d0162002ef0565b985060408b0135915080821115620031f5578384fd5b620032038c838d0162002ef0565b97506200321360608c0162002e8e565b965060808b0135955060a08b013591508082111562003230578384fd5b6200323e8c838d0162002ef0565b945060c08b0135935060e08b01359150808211156200325b578283fd5b506200326a8b828c0162002e1c565b9150509295985092959890939650565b600080604083850312156200328d578182fd5b82356001600160401b03811115620032a3578283fd5b620032b18582860162002ef0565b925050620032c26020840162002f41565b90509250929050565b600060208284031215620032dd578081fd5b81356001600160401b03811115620032f3578182fd5b620033018482850162002ef0565b949350505050565b6000602082840312156200331b578081fd5b81516001600160401b0381111562003331578182fd5b8201601f8101841362003342578182fd5b80516200335362002dc18262003d4d565b81815285602083850101111562003368578384fd5b6200337b82602083016020860162003dac565b95945050505050565b60008060006060848603121562003399578081fd5b83356001600160401b03811115620033af578182fd5b620033bd8682870162002ef0565b935050602084013560ff81168114620033d4578182fd5b929592945050506040919091013590565b60008060408385031215620033f8578182fd5b8235915060208301356200340c8162003e66565b809150509250929050565b600080604083850312156200342a578182fd5b50508035926020909101359150565b600080600080600080600060e0888a03121562003454578081fd5b873596506020880135955060408801356001600160401b038082111562003479578283fd5b620034878b838c0162002ef0565b96506200349760608b0162002f41565b955060808a0135945060a08a0135935060c08a0135915080821115620034bb578283fd5b50620034ca8a828b0162002d9d565b91505092959891949750929550565b600080600060608486031215620034ee578081fd5b8351925060208401519150604084015190509250925092565b600080600080608085870312156200351d578182fd5b84519350602085015192506040850151915060608501516200353f8162003e66565b939692955090935050565b60008060008060008060008060006101208a8c03121562003569578283fd5b8935985060208a0135975060408a0135965060608a01356200358b8162003e66565b955060808a01356200359d8162003e66565b945060a08a01356001600160401b03811115620035b8578384fd5b620035c68c828d0162002ef0565b945050620035d760c08b0162002f41565b925060e08a0135620035e98162003e66565b91506101008a0135620035fc8162003e66565b809150509295985092959850929598565b6000815180845260208085019450808401835b83811015620036475781516001600160a01b03168752958201959082019060010162003620565b509495945050505050565b60008284528282602086013780602084860101526020601f19601f85011685010190509392505050565b600081518084526200369681602086016020860162003dac565b601f01601f19169290920160200192915050565b60068110620036c957634e487b7160e01b600052602160045260246000fd5b9052565b60008251620036e181846020870162003dac565b9190910192915050565b6001600160a01b038481168252831660208201526060604082018190526000906200337b908301846200367c565b6001600160a01b038a8116825261012060208301819052600091620037418483018d6200367c565b925062003752604085018c620036aa565b989098166060830152608082019690965260a081019490945260c084019290925260e083015261010090910152949350505050565b6001600160a01b038c8116825261016060208301819052600091620037af8483018f6200367c565b9250620037c0604085018e620036aa565b8b6060850152808b1660808501528960a08501528860c085015280881660e085015250508461010083015283610120830152826101408301529c9b505050505050505050505050565b6001600160a01b0398891681526020810197909752948716604087015260608601939093529416608084015260a083019390935260c082019290925260e08101919091526101000190565b6001600160a01b0386168152602080820186905260a060408301528454600091908290600281046001828116806200388d57607f831692505b858310811415620038ac57634e487b7160e01b87526022600452602487fd5b60a0880183905260c08801818015620038ce5760018114620038e0576200390c565b60ff198616825287820196506200390c565b60008d815260209020895b868110156200390657815484820152908501908901620038eb565b83019750505b5050505050508092505050620039266060830185620036aa565b8260808301529695505050505050565b600061012060018060a01b038c1683528a60208401528960408401528860608401528760808401528660a08401528560c08401528060e08401526200397e818401866200367c565b91505062003991610100830184620036aa565b9a9950505050505050505050565b60006020825262002f7060208301846200360d565b6000881515825287602083015286604083015285606083015260018060a01b038516608083015260e060a0830152620039f160e08301856200367c565b905062003a0260c0830184620036aa565b98975050505050505050565b60006020825262002f7060208301846200367c565b6020810162003a338284620036aa565b92915050565b60006060825262003a4e60608301866200367c565b828103602084015262003a6281866200367c565b91505060ff83166040830152949350505050565b600060a0825262003a8b60a08301886200367c565b60ff9690961660208301525060408101939093526001600160a01b03918216606084015216608090910152919050565b6020808252601390820152724c6f6769633a207a65726f206164647265737360681b604082015260600190565b6020808252602b908201527f496e697469616c697a61626c653a20636f6e7472616374206973206e6f74206960408201526a6e697469616c697a696e6760a81b606082015260800190565b8b81526001600160a01b038b1660208201526001600160e01b03198a811660408301526101206060830181905260009162003b718483018d6200367c565b9150838203608085015262003b88828b8d62003652565b915080891660a0850152508660c084015282810360e084015262003bae81868862003652565b915050826101008301529c9b505050505050505050505050565b8981526001600160a01b03891660208201526001600160e01b031988811660408301526101206060830181905260009162003c068483018b6200367c565b9150838203608085015262003c1c828a6200367c565b915080881660a0850152508560c084015282810360e084015262003c4181866200367c565b915050826101008301529a9950505050505050505050565b60006101008b835280602084015262003c768184018b8d62003652565b604084019990995250506060810195909552608085019390935260a084019190915260c083015260e0909101529392505050565b600087825286602083015260c0604083015262003ccb60c08301876200360d565b6001600160a01b03959095166060830152506080810192909252151560a0909101529392505050565b604051601f8201601f191681016001600160401b038111828210171562003d1f5762003d1f62003e50565b604052919050565b60006001600160401b0382111562003d435762003d4362003e50565b5060209081020190565b60006001600160401b0382111562003d695762003d6962003e50565b50601f01601f191660200190565b6000821982111562003d8d5762003d8d62003e3a565b500190565b60008282101562003da75762003da762003e3a565b500390565b60005b8381101562003dc957818101518382015260200162003daf565b8381111562003dd9576000848401525b50505050565b60028104600182168062003df457607f821691505b6020821081141562003e1657634e487b7160e01b600052602260045260246000fd5b50919050565b600060001982141562003e335762003e3362003e3a565b5060010190565b634e487b7160e01b600052601160045260246000fd5b634e487b7160e01b600052604160045260246000fd5b6001600160a01b03811681146200263957600080fdfe608060405260405162000f6038038062000f608339810160408190526200002691620004e8565b82828282816200005860017f360894a13ba1a3210667c828492db98dca3e2076cc3735a920a3ca505d382bbd62000617565b60008051602062000f19833981519152146200008457634e487b7160e01b600052600160045260246000fd5b620000928282600062000105565b50620000c2905060017fb53127684a568b3173ae13b9f8a6016e243e63b6e8ee1178d6a717850b5d610462000617565b60008051602062000ef983398151915214620000ee57634e487b7160e01b600052600160045260246000fd5b620000f98262000142565b50505050505062000680565b62000110836200019d565b6000825111806200011e5750805b156200013d576200013b8383620001df60201b6200026c1760201c565b505b505050565b7f7e644d79422f17c01e4894b5f4f588d331ebfa28653d42ae832dc59e38c9798f6200016d6200020e565b604080516001600160a01b03928316815291841660208301520160405180910390a16200019a8162000247565b50565b620001a881620002fc565b6040516001600160a01b038216907fbc7cd75a20ee27fd9adebab32041f755214dbc6bffa90cc0225b39da2e5c2d3b90600090a250565b606062000207838360405180606001604052806027815260200162000f39602791396200039f565b9392505050565b60006200023860008051602062000ef983398151915260001b6200048560201b620002141760201c565b546001600160a01b0316905090565b6001600160a01b038116620002b25760405162461bcd60e51b815260206004820152602660248201527f455243313936373a206e65772061646d696e20697320746865207a65726f206160448201526564647265737360d01b60648201526084015b60405180910390fd5b80620002db60008051602062000ef983398151915260001b6200048560201b620002141760201c565b80546001600160a01b0319166001600160a01b039290921691909117905550565b62000312816200048860201b620002981760201c565b620003765760405162461bcd60e51b815260206004820152602d60248201527f455243313936373a206e657720696d706c656d656e746174696f6e206973206e60448201526c1bdd08184818dbdb9d1c9858dd609a1b6064820152608401620002a9565b80620002db60008051602062000f1983398151915260001b6200048560201b620002141760201c565b6060620003ac8462000488565b620004095760405162461bcd60e51b815260206004820152602660248201527f416464726573733a2064656c65676174652063616c6c20746f206e6f6e2d636f6044820152651b9d1c9858dd60d21b6064820152608401620002a9565b600080856001600160a01b031685604051620004269190620005c4565b600060405180830381855af49150503d806000811462000463576040519150601f19603f3d011682016040523d82523d6000602084013e62000468565b606091505b5090925090506200047b82828662000492565b9695505050505050565b90565b803b15155b919050565b60608315620004a357508162000207565b825115620004b45782518084602001fd5b8160405162461bcd60e51b8152600401620002a99190620005e2565b80516001600160a01b03811681146200048d57600080fd5b600080600060608486031215620004fd578283fd5b6200050884620004d0565b92506200051860208501620004d0565b60408501519092506001600160401b038082111562000535578283fd5b818601915086601f83011262000549578283fd5b8151818111156200055e576200055e6200066a565b604051601f8201601f19908116603f011681019083821181831017156200058957620005896200066a565b81604052828152896020848701011115620005a2578586fd5b620005b58360208301602088016200063b565b80955050505050509250925092565b60008251620005d88184602087016200063b565b9190910192915050565b6000602082528251806020840152620006038160408501602087016200063b565b601f01601f19169190910160400192915050565b6000828210156200063657634e487b7160e01b81526011600452602481fd5b500390565b60005b83811015620006585781810151838201526020016200063e565b838111156200013b5750506000910152565b634e487b7160e01b600052604160045260246000fd5b61086980620006906000396000f3fe60806040526004361061004e5760003560e01c80633659cfe6146100655780634f1ef286146100855780635c60da1b146100985780638f283970146100c9578063f851a440146100e95761005d565b3661005d5761005b6100fe565b005b61005b6100fe565b34801561007157600080fd5b5061005b6100803660046106f9565b610118565b61005b610093366004610713565b610164565b3480156100a457600080fd5b506100ad6101da565b6040516001600160a01b03909116815260200160405180910390f35b3480156100d557600080fd5b5061005b6100e43660046106f9565b610217565b3480156100f557600080fd5b506100ad610241565b6101066102a2565b610116610111610346565b610355565b565b610120610379565b6001600160a01b0316336001600160a01b0316141561015957610154816040518060200160405280600081525060006103ac565b610161565b6101616100fe565b50565b61016c610379565b6001600160a01b0316336001600160a01b031614156101cd576101c88383838080601f016020809104026020016040519081016040528093929190818152602001838380828437600092019190915250600192506103ac915050565b6101d5565b6101d56100fe565b505050565b60006101e4610379565b6001600160a01b0316336001600160a01b0316141561020c57610205610346565b9050610214565b6102146100fe565b90565b61021f610379565b6001600160a01b0316336001600160a01b0316141561015957610154816103d7565b600061024b610379565b6001600160a01b0316336001600160a01b0316141561020c57610205610379565b6060610291838360405180606001604052806027815260200161080d6027913961042b565b9392505050565b803b15155b919050565b6102aa610379565b6001600160a01b0316336001600160a01b031614156103415760405162461bcd60e51b815260206004820152604260248201527f5472616e73706172656e745570677261646561626c6550726f78793a2061646d60448201527f696e2063616e6e6f742066616c6c6261636b20746f2070726f78792074617267606482015261195d60f21b608482015260a4015b60405180910390fd5b610116565b6000610350610506565b905090565b3660008037600080366000845af43d6000803e808015610374573d6000f35b3d6000fd5b60007fb53127684a568b3173ae13b9f8a6016e243e63b6e8ee1178d6a717850b5d61035b546001600160a01b0316905090565b6103b58361052e565b6000825111806103c25750805b156101d5576103d1838361026c565b50505050565b7f7e644d79422f17c01e4894b5f4f588d331ebfa28653d42ae832dc59e38c9798f610400610379565b604080516001600160a01b03928316815291841660208301520160405180910390a16101618161056e565b606061043684610298565b6104915760405162461bcd60e51b815260206004820152602660248201527f416464726573733a2064656c65676174652063616c6c20746f206e6f6e2d636f6044820152651b9d1c9858dd60d21b6064820152608401610338565b600080856001600160a01b0316856040516104ac9190610791565b600060405180830381855af49150503d80600081146104e7576040519150601f19603f3d011682016040523d82523d6000602084013e6104ec565b606091505b50915091506104fc828286610617565b9695505050505050565b60007f360894a13ba1a3210667c828492db98dca3e2076cc3735a920a3ca505d382bbc61039d565b61053781610650565b6040516001600160a01b038216907fbc7cd75a20ee27fd9adebab32041f755214dbc6bffa90cc0225b39da2e5c2d3b90600090a250565b6001600160a01b0381166105d35760405162461bcd60e51b815260206004820152602660248201527f455243313936373a206e65772061646d696e20697320746865207a65726f206160448201526564647265737360d01b6064820152608401610338565b807fb53127684a568b3173ae13b9f8a6016e243e63b6e8ee1178d6a717850b5d61035b80546001600160a01b0319166001600160a01b039290921691909117905550565b60608315610626575081610291565b8251156106365782518084602001fd5b8160405162461bcd60e51b815260040161033891906107ad565b61065981610298565b6106bb5760405162461bcd60e51b815260206004820152602d60248201527f455243313936373a206e657720696d706c656d656e746174696f6e206973206e60448201526c1bdd08184818dbdb9d1c9858dd609a1b6064820152608401610338565b807f360894a13ba1a3210667c828492db98dca3e2076cc3735a920a3ca505d382bbc6105f6565b80356001600160a01b038116811461029d57600080fd5b60006020828403121561070a578081fd5b610291826106e2565b600080600060408486031215610727578182fd5b610730846106e2565b9250602084013567ffffffffffffffff8082111561074c578384fd5b818601915086601f83011261075f578384fd5b81358181111561076d578485fd5b87602082850101111561077e578485fd5b6020830194508093505050509250925092565b600082516107a38184602087016107e0565b9190910192915050565b60006020825282518060208401526107cc8160408501602087016107e0565b601f01601f19169190910160400192915050565b60005b838110156107fb5781810151838201526020016107e3565b838111156103d1575050600091015256fe416464726573733a206c6f772d6c6576656c2064656c65676174652063616c6c206661696c6564a2646970667358221220b4247f5f99cc1cf013db9b00e4a0954a7d18f1459e99f8656fafa9b0780941a664736f6c63430008020033b53127684a568b3173ae13b9f8a6016e243e63b6e8ee1178d6a717850b5d6103360894a13ba1a3210667c828492db98dca3e2076cc3735a920a3ca505d382bbc416464726573733a206c6f772d6c6576656c2064656c65676174652063616c6c206661696c6564a2646970667358221220eda841b578dce85a5a9ffe155cf102592681c4f349f27f1df23218f9318599b564736f6c63430008020033",
  "deployedBytecode": "0x6080604052600436106200025f5760003560e01c8063816c2e6a116200013f578063b59589d111620000bb578063d8484ef51162000079578063d8484ef5146200080e578063e901fe571462000839578063ef0e2ff41462000873578063f0f442601462000898578063f2fde38b14620008bd5762000267565b8063b59589d11462000752578063c5a2b47a1462000774578063c805f68b14620007b0578063d4b639f514620007d5578063d7b96d4e14620007ec5762000267565b8063a3696a091162000109578063a3696a0914620006a4578063a44c2b9a14620006c9578063b3ff9f4914620006ee578063b4e183f41462000715578063b4fd9a6c146200073a5762000267565b8063816c2e6a14620006245780638da5cb5b146200063b5780639a7b78d2146200065b5780639a8a0592146200068c5762000267565b806361d027b311620001db578063715018a61162000199578063715018a614620004b857806376017e7114620004d05780637922418314620005b55780637e43bd3d14620005da5780637ed5574814620005ff5762000267565b806361d027b314620003ee5780636390802014620004295780636b2857ef14620004415780636e8adf61146200046657806370872aa514620004a05762000267565b8063171060ec1162000229578063171060ec14620003335780631812adb614620003585780631e7107c7146200037f57806337a13b4414620003a457806350d7446814620003c95762000267565b8063088302a6146200026c57806309b53fd6146200029c5780630e72e41e14620002d6578063160813f6146200030c5762000267565b366200026757005b600080fd5b3480156200027957600080fd5b5062000284620008e2565b60405162000293919062003a0e565b60405180910390f35b348015620002a957600080fd5b50620002c1620002bb36600462003060565b62000978565b604051620002939796959493929190620039b4565b348015620002e357600080fd5b50620002fb620002f536600462003060565b62000a6c565b604051901515815260200162000293565b3480156200031957600080fd5b50620003316200032b36600462003439565b62000abc565b005b3480156200034057600080fd5b50620003316200035236600462002f51565b62000e9d565b3480156200036557600080fd5b506200037060995481565b60405190815260200162000293565b3480156200038c57600080fd5b50620003316200039e36600462003060565b62000f3b565b348015620003b157600080fd5b5062000331620003c336600462003417565b62000f91565b348015620003d657600080fd5b5062000331620003e83660046200354a565b62001013565b348015620003fb57600080fd5b50609d5462000410906001600160a01b031681565b6040516001600160a01b03909116815260200162000293565b3480156200043657600080fd5b5062000370609a5481565b3480156200044e57600080fd5b506200033162000460366004620033e5565b62001193565b3480156200047357600080fd5b50620004106200048536600462003060565b60a3602052600090815260409020546001600160a01b031681565b348015620004ad57600080fd5b506200037060975481565b348015620004c557600080fd5b50620003316200120c565b348015620004dd57600080fd5b5062000553620004ef36600462003060565b60a260205260009081526040902080546001820154600283015460038401546004850154600586015460068701546007880154600889015460099099015460ff9098169896979596949593946001600160a01b03938416949284169391929091168a565b604080519a15158b5260208b019990995297890196909652606088019490945260808701929092526001600160a01b0390811660a087015290811660c086015260e0850191909152610100840191909152166101208201526101400162000293565b348015620005c257600080fd5b5062000331620005d436600462003384565b62001218565b348015620005e757600080fd5b5062000331620005f936600462003060565b6200150b565b3480156200060c57600080fd5b50620003316200061e36600462003060565b62001692565b62000331620006353660046200318d565b62001727565b3480156200064857600080fd5b506033546001600160a01b031662000410565b3480156200066857600080fd5b50620003706200067a36600462003060565b60a16020526000908152604090205481565b3480156200069957600080fd5b506200037060985481565b348015620006b157600080fd5b5062000331620006c336600462002f51565b62001b83565b348015620006d657600080fd5b50620002fb620006e836600462003060565b62001c2c565b348015620006fb57600080fd5b5060a654620004109061010090046001600160a01b031681565b3480156200072257600080fd5b5062000331620007343660046200327a565b62001c4b565b3480156200074757600080fd5b5062000370609b5481565b3480156200075f57600080fd5b50609c5462000410906001600160a01b031681565b3480156200078157600080fd5b506200037062000793366004620032cb565b805160208183018101805160a08252928201919093012091525481565b348015620007bd57600080fd5b5062000331620007cf36600462002f51565b62001ca2565b62000331620007e636600462003092565b62001d40565b348015620007f957600080fd5b50609e5462000410906001600160a01b031681565b3480156200081b57600080fd5b5060a6546200082a9060ff1681565b60405162000293919062003a23565b3480156200084657600080fd5b50620004106200085836600462003060565b609f602052600090815260409020546001600160a01b031681565b3480156200088057600080fd5b50620003316200089236600462003060565b62002510565b348015620008a557600080fd5b5062000331620008b736600462002f51565b6200251f565b348015620008ca57600080fd5b5062000331620008dc36600462002f51565b620025bd565b60a58054620008f19062003ddf565b80601f01602080910402602001604051908101604052809291908181526020018280546200091f9062003ddf565b8015620009705780601f10620009445761010080835404028352916020019162000970565b820191906000526020600020905b8154815290600101906020018083116200095257829003601f168201915b505050505081565b60a481815481106200098957600080fd5b600091825260209091206007909102018054600182015460028301546003840154600485015460058601805460ff90961697509395929491936001600160a01b039091169291620009da9062003ddf565b80601f016020809104026020016040519081016040528092919081815260200182805462000a089062003ddf565b801562000a595780601f1062000a2d5761010080835404028352916020019162000a59565b820191906000526020600020905b81548152906001019060200180831162000a3b57829003601f168201915b5050506006909301549192505060ff1687565b600060a4828154811062000a9057634e487b7160e01b600052603260045260246000fd5b600091825260209091206007909102015460ff1662000ab157600062000ab4565b60015b90505b919050565b62000ac66200263c565b6000878152609f60205260409020546001600160a01b03168062000b285760405162461bcd60e51b8152602060048201526014602482015273131bd9da58ce881b9bdd081cdd5c1c1bdc9d195960621b60448201526064015b60405180910390fd5b81511562000c85578160008151811062000b5257634e487b7160e01b600052603260045260246000fd5b60209081029190910101516040516323b872dd60e01b8152336004820152306024820152604481018590526001600160a01b03909116906323b872dd90606401602060405180830381600087803b15801562000bad57600080fd5b505af115801562000bc2573d6000803e3d6000fd5b505050506040513d601f19601f8201168201806040525081019062000be8919062002f96565b5060008062000bfb8630878c8862002698565b915091508162000c435760405162461bcd60e51b8152602060048201526012602482015271131bd9da58ce881cddd85c0819985a5b195960721b604482015260640162000b1f565b806001825162000c54919062003d92565b8151811062000c7357634e487b7160e01b600052603260045260246000fd5b60200260200101519850505062000d66565b6001600160a01b0381166323b872dd336040516001600160e01b031960e084901b1681526001600160a01b039091166004820152306024820152604481018a9052606401602060405180830381600087803b15801562000ce457600080fd5b505af115801562000cf9573d6000803e3d6000fd5b505050506040513d601f19601f8201168201806040525081019062000d1f919062002f96565b62000d665760405162461bcd60e51b8152602060048201526016602482015275131bd9da58ce881d1c985b9cd9995c8819985a5b195960521b604482015260640162000b1f565b600088815260a160205260408120548190819062000d8890858c8c8c620028ed565b92509250925084516000141562000dfb577f3edab6712f6554939a0dbeb0d5efe1dfd195d57b763bd78944fd3c1f416e3210338a8a878e868989600160a48054905062000dd6919062003d92565b60405162000ded9998979695949392919062003719565b60405180910390a162000e85565b7fd27fc2c4b752e23e2c11dc072d1f415ecf66b470dd215d81503894907647e412338a8a898960008151811062000e4257634e487b7160e01b600052603260045260246000fd5b60200260200101518f878b8a8c600160a48054905062000e63919062003d92565b60405162000e7c9b9a9998979695949392919062003787565b60405180910390a15b5050505062000e946001606555565b50505050505050565b806001600160a01b03811662000ec75760405162461bcd60e51b815260040162000b1f9062003abb565b62000ed162002b74565b609e54604080516001600160a01b03928316815291841660208301527f69253c7023f628e3a302b63087a3bfc1dfdb256780182f81b9f0df9eff9542b0910160405180910390a150609e80546001600160a01b0319166001600160a01b0392909216919091179055565b62000f4562002b74565b609754811162000f8c5760405162461bcd60e51b81526020600482015260116024820152702637b3b4b19d103637bb90373ab6b132b960791b604482015260640162000b1f565b609755565b62000f9b62002b74565b600082815260a16020908152604080832054609f83529281902054815193845291830184905282018490526001600160a01b031660608201527fb32f41f55776a1e7b96763af2c9beabbf0bb73f2227eea445e71274ffe59a77a9060800160405180910390a1600091825260a1602052604090912055565b600054610100900460ff1615808015620010345750600054600160ff909116105b80620010505750303b15801562001050575060005460ff166001145b620010b55760405162461bcd60e51b815260206004820152602e60248201527f496e697469616c697a61626c653a20636f6e747261637420697320616c72656160448201526d191e481a5b9a5d1a585b1a5e995960921b606482015260840162000b1f565b6000805460ff191660011790558015620010d9576000805461ff0019166101001790555b620010e362002bd0565b620010ed62002c04565b6098889055620010fd8a62000f3b565b620011088962001692565b620011138762001ca2565b6200111e8662000e9d565b6200112a858562001c4b565b620011358362001b83565b62001140826200251f565b801562001187576000805461ff0019169055604051600181527f7f26b83ff96e1f2b6a682f133852f6798a09c465da95921460cefb38474024989060200160405180910390a15b50505050505050505050565b6200119d62002b74565b604080518381526001600160a01b03831660208201527f31a8c4e62daac2a3ed5d713004d9ae867d6dcddfa35603db2a4b65d9236b1bc1910160405180910390a1600091825260a3602052604090912080546001600160a01b0319166001600160a01b03909216919091179055565b6200121662002b74565b565b6200122262002b74565b600073__$2d5227681dbc6ae64c5aa09ccdbc6c2fab$__63dbf34f026040518163ffffffff1660e01b815260040160206040518083038186803b1580156200126957600080fd5b505af41580156200127e573d6000803e3d6000fd5b505050506040513d601f19601f82011682018060405250810190620012a4919062002f77565b90506060600082620012be6033546001600160a01b031690565b83604051620012cd9062002ce9565b620012db93929190620036eb565b604051809103906000f080158015620012f8573d6000803e3d6000fd5b50604051630b127b6360e11b815290915081906001600160a01b03821690631624f6c69062001330908a9081908b9060040162003a39565b600060405180830381600087803b1580156200134b57600080fd5b505af115801562001360573d6000803e3d6000fd5b5050604051634c1d96ab60e11b81523060048201526001600160a01b038416925063983b2d569150602401600060405180830381600087803b158015620013a657600080fd5b505af1158015620013bb573d6000803e3d6000fd5b5050604051637a231bdd60e11b81523060048201526001600160a01b038416925063f44637ba9150602401600060405180830381600087803b1580156200140157600080fd5b505af115801562001416573d6000803e3d6000fd5b5050506000868152609f60205260409020546001600160a01b0316159050620014735760405162461bcd60e51b815260206004820152600e60248201526d131bd9da58ce881d5cd959081a5960921b604482015260640162000b1f565b6000858152609f60205260409081902080546001600160a01b0319166001600160a01b03841617905551859060a090620014af908a90620036cd565b9081526020016040518091039020819055507f20359fc049b8e035e3e74b3b4c6ba473d295e6a5b64ed7d1ba68a422d2ebe58e8787878488604051620014fa95949392919062003a76565b60405180910390a150505050505050565b6200151562002b74565b6000818152609f60205260409020546001600160a01b03166200156d5760405162461bcd60e51b815260206004820152600f60248201526e2637b3b4b19d103737903a37b5b2b760891b604482015260640162000b1f565b6000818152609f60209081526040918290205482518481526001600160a01b03909116918101919091527fac0bcdf003615c60a0c51d67379bde3d2fb4aaeade0aa8ecd7a4f176389bf37f910160405180910390a16000818152609f60205260408082205481516306fdde0360e01b8152915160a0926001600160a01b03909216916306fdde039160048083019287929190829003018186803b1580156200161457600080fd5b505afa15801562001629573d6000803e3d6000fd5b505050506040513d6000823e601f3d908101601f1916820160405262001653919081019062003309565b604051620016629190620036cd565b9081526040805160209281900383019020929092556000928352609f9052902080546001600160a01b0319169055565b6200169c62002b74565b806127101015620016e65760405162461bcd60e51b81526020600482015260136024820152724c6f6769633a206f7574206f662072616e676560681b604482015260640162000b1f565b60995460408051918252602082018390527f7d205f60891f60851c61cd244ba387d72b6589e7c0ac41b9d909ab0ce2c2a53b910160405180910390a1609955565b620017316200263c565b609e546001600160a01b0316336001600160a01b0316146200178a5760405162461bcd60e51b81526020600482015260116024820152702637b3b4b19d103737ba103637b1b5b2b960791b604482015260640162000b1f565b609754609c5460405163e291283d60e01b815273__$2d5227681dbc6ae64c5aa09ccdbc6c2fab$__9263e291283d92620017e1926001600160a01b03909116908d908d908d908d908d908d908d9060040162003bc8565b60206040518083038186803b158015620017fa57600080fd5b505af41580156200180f573d6000803e3d6000fd5b505050506040513d601f19601f8201168201806040525081019062001835919062003079565b5060005b815181101562001b6d5760a48282815181106200186657634e487b7160e01b600052603260045260246000fd5b6020026020010151815481106200188d57634e487b7160e01b600052603260045260246000fd5b600091825260209091206007909102015460ff1615620018f05760405162461bcd60e51b815260206004820152601860248201527f4c6f6769633a20616c72656164792070726f6365737365640000000000000000604482015260640162000b1f565b600160a48383815181106200191557634e487b7160e01b600052603260045260246000fd5b6020026020010151815481106200193c57634e487b7160e01b600052603260045260246000fd5b906000526020600020906007020160000160006101000a81548160ff0219169083151502179055507f56c14e8419eba0c1dd20639c364b8c0e59e27be856d876527a563a14fc42fe7b60a4838381518110620019a857634e487b7160e01b600052603260045260246000fd5b602002602001015181548110620019cf57634e487b7160e01b600052603260045260246000fd5b906000526020600020906007020160040160009054906101000a90046001600160a01b031660a484848151811062001a1757634e487b7160e01b600052603260045260246000fd5b60200260200101518154811062001a3e57634e487b7160e01b600052603260045260246000fd5b90600052602060002090600702016002015460a485858151811062001a7357634e487b7160e01b600052603260045260246000fd5b60200260200101518154811062001a9a57634e487b7160e01b600052603260045260246000fd5b906000526020600020906007020160050160a486868151811062001ace57634e487b7160e01b600052603260045260246000fd5b60200260200101518154811062001af557634e487b7160e01b600052603260045260246000fd5b906000526020600020906007020160060160009054906101000a900460ff1686868151811062001b3557634e487b7160e01b600052603260045260246000fd5b602002602001015160405162001b5095949392919062003854565b60405180910390a18062001b648162003e1c565b91505062001839565b5062001b796001606555565b5050505050505050565b806001600160a01b03811662001bad5760405162461bcd60e51b815260040162000b1f9062003abb565b62001bb762002b74565b60a654604080516001600160a01b036101009093048316815291841660208301527f150b77d21bd499fd0dccea9fe32513c7b65aa34ccde41e7dafac74ace8e19c94910160405180910390a15060a680546001600160a01b0390921661010002610100600160a81b0319909216919091179055565b600081815260a2602052604081205460ff1662000ab157600062000ab4565b62001c5562002b74565b815162001c6a9060a590602085019062002cf7565b5060a6805482919060ff1916600183600581111562001c9957634e487b7160e01b600052602160045260246000fd5b02179055505050565b806001600160a01b03811662001ccc5760405162461bcd60e51b815260040162000b1f9062003abb565b62001cd662002b74565b609c54604080516001600160a01b03928316815291841660208301527f4c28a3f61a715259c4dc930c23e7423b8fa52e13232c061a6e488729c66184f4910160405180910390a150609c80546001600160a01b0319166001600160a01b0392909216919091179055565b62001d4a6200263c565b60a65461010090046001600160a01b031662001d633390565b6001600160a01b03161462001db35760405162461bcd60e51b81526020600482015260156024820152742637b3b4b19d103737ba103a32b632b837b93a32b960591b604482015260640162000b1f565b600073__$2d5227681dbc6ae64c5aa09ccdbc6c2fab$__63e291283d609754609c60009054906101000a90046001600160a01b03168e8e8e8e8e8e8e8e8e6040518c63ffffffff1660e01b815260040162001e199b9a9998979695949392919062003b33565b60206040518083038186803b15801562001e3257600080fd5b505af415801562001e47573d6000803e3d6000fd5b505050506040513d601f19601f8201168201806040525081019062001e6d919062003079565b905060008060008073__$2d5227681dbc6ae64c5aa09ccdbc6c2fab$__6317fba6a96098548f8f8960a2609f609954609a546127106040518a63ffffffff1660e01b815260040162001ec89998979695949392919062003c59565b60806040518083038186803b15801562001ee157600080fd5b505af415801562001ef6573d6000803e3d6000fd5b505050506040513d601f19601f8201168201806040525081019062001f1c919062003507565b9350935093509350806001600160a01b03166340c10f193086858762001f43919062003d77565b62001f4f919062003d77565b6040516001600160e01b031960e085901b1681526001600160a01b0390921660048301526024820152604401602060405180830381600087803b15801562001f9657600080fd5b505af115801562001fab573d6000803e3d6000fd5b505050506040513d601f19601f8201168201806040525081019062001fd1919062002f96565b50609d5460405163a9059cbb60e01b81526001600160a01b039182166004820152602481018590529082169063a9059cbb90604401602060405180830381600087803b1580156200202157600080fd5b505af115801562002036573d6000803e3d6000fd5b505050506040513d601f19601f820116820180604052508101906200205c919062002f96565b50609e5460405163a9059cbb60e01b81526001600160a01b039182166004820152602481018490529082169063a9059cbb90604401602060405180830381600087803b158015620020ac57600080fd5b505af1158015620020c1573d6000803e3d6000fd5b505050506040513d601f19601f82011682018060405250810190620020e7919062002f96565b50600085815260a26020908152604091829020825161014081018452815460ff16151581526001820154928101929092526002810154928201839052600381015460608301526004810154608083015260058101546001600160a01b0390811660a08401526006820154811660c0840152600782015460e084015260088201546101008401526009909101541661012082015290620022785760c081015160405163a9059cbb60e01b81526001600160a01b039182166004820152602481018790529083169063a9059cbb90604401602060405180830381600087803b158015620021d157600080fd5b505af1158015620021e6573d6000803e3d6000fd5b505050506040513d601f19601f820116820180604052508101906200220c919062002f96565b5060c080820151604080516001600160a01b0392831681526020810189905291851690820152606081018590526080810186905260a081018890527fdfee8939e8f1089c438e0a985f0be4726c5a5bd186bad3d57e1bd79b7e47cce0910160405180910390a1620024ff565b8060a001516001600160a01b031687600081518110620022a857634e487b7160e01b600052603260045260246000fd5b60200260200101516001600160a01b03161480156200231457508061012001516001600160a01b03168760018951620022e2919062003d92565b815181106200230157634e487b7160e01b600052603260045260246000fd5b60200260200101516001600160a01b0316145b620023625760405162461bcd60e51b815260206004820152601b60248201527f4275726e526f757465724c6f6769633a2077726f6e6720706174680000000000604482015260640162000b1f565b6000806200238183604001518460c00151898661010001518d62002698565b91509150811562002419577f3815e79573df9cbfee4348a1df0f90aa8c6b1a05c1372cea1e35c5de7429a3f08360c0015188868460018651620023c5919062003d92565b81518110620023e457634e487b7160e01b600052603260045260246000fd5b60200260200101518761012001518a8c8f6040516200240b98979695949392919062003809565b60405180910390a1620024fc565b7fe4c4c67633a3c05aa4ffda74e4841ae1d7befdd76b6bb59b5d589a8a95225e468360c0015188868661010001518761012001518a8c8f6040516200246698979695949392919062003809565b60405180910390a160c083015160405163a9059cbb60e01b81526001600160a01b039182166004820152602481018990529085169063a9059cbb90604401602060405180830381600087803b158015620024bf57600080fd5b505af1158015620024d4573d6000803e3d6000fd5b505050506040513d601f19601f82011682018060405250810190620024fa919062002f96565b505b50505b505050505050620011876001606555565b6200251a62002b74565b609855565b806001600160a01b038116620025495760405162461bcd60e51b815260040162000b1f9062003abb565b6200255362002b74565b609d54604080516001600160a01b03928316815291841660208301527f567657fa3f286518b318f4a29870674f433f622fdfc819691acb13105b228225910160405180910390a150609d80546001600160a01b0319166001600160a01b0392909216919091179055565b620025c762002b74565b6001600160a01b0381166200262e5760405162461bcd60e51b815260206004820152602660248201527f4f776e61626c653a206e6577206f776e657220697320746865207a65726f206160448201526564647265737360d01b606482015260840162000b1f565b620026398162002c38565b50565b60026065541415620026915760405162461bcd60e51b815260206004820152601f60248201527f5265656e7472616e637947756172643a207265656e7472616e742063616c6c00604482015260640162000b1f565b6002606555565b600085815260a360205260408120546060906001600160a01b031680620027025760405162461bcd60e51b815260206004820152601e60248201527f4275726e526f757465724c6f6769633a20696e76616c69642061707049640000604482015260640162000b1f565b836000815181106200272457634e487b7160e01b600052603260045260246000fd5b602090810291909101015160405163095ea7b360e01b81526001600160a01b038381166004830152602482018990529091169063095ea7b390604401602060405180830381600087803b1580156200277b57600080fd5b505af115801562002790573d6000803e3d6000fd5b505050506040513d601f19601f82011682018060405250810190620027b6919062002f96565b506040516326d2f28960e21b81526001600160a01b03821690639b4bca2490620027e59087906004016200399f565b60206040518083038186803b158015620027fe57600080fd5b505afa15801562002813573d6000803e3d6000fd5b505050506040513d601f19601f8201168201806040525081019062002839919062002f96565b15620028dd5760405163161779b160e31b81526001600160a01b0382169063b0bbcd889062002878908990899089908d90429060019060040162003caa565b600060405180830381600087803b1580156200289357600080fd5b505af1158015620028a8573d6000803e3d6000fd5b505050506040513d6000823e601f3d908101601f19168201604052620028d2919081019062002fb3565b9093509150620028e2565b600092505b509550959350505050565b6000808073__$2d5227681dbc6ae64c5aa09ccdbc6c2fab$__63ff13660c33609954609a5461271060a48e8d8d8d6040518a63ffffffff1660e01b8152600401620029419998979695949392919062003936565b60606040518083038186803b1580156200295a57600080fd5b505af41580156200296f573d6000803e3d6000fd5b505050506040513d601f19601f82011682018060405250810190620029959190620034d9565b609b805493965091945092506000620029ae8362003e1c565b9091555050609d5460405163a9059cbb60e01b81526001600160a01b039182166004820152602481018590529088169063a9059cbb90604401602060405180830381600087803b15801562002a0257600080fd5b505af115801562002a17573d6000803e3d6000fd5b505050506040513d601f19601f8201168201806040525081019062002a3d919062002f96565b50609e546001600160a01b038089169163a9059cbb911662002a60858c62003d77565b6040516001600160e01b031960e085901b1681526001600160a01b0390921660048301526024820152604401602060405180830381600087803b15801562002aa757600080fd5b505af115801562002abc573d6000803e3d6000fd5b505050506040513d601f19601f8201168201806040525081019062002ae2919062002f96565b50604051630852cd8d60e31b8152600481018290526001600160a01b038816906342966c6890602401602060405180830381600087803b15801562002b2657600080fd5b505af115801562002b3b573d6000803e3d6000fd5b505050506040513d601f19601f8201168201806040525081019062002b61919062002f96565b50955095509592505050565b6001606555565b6033546001600160a01b03163314620012165760405162461bcd60e51b815260206004820181905260248201527f4f776e61626c653a2063616c6c6572206973206e6f7420746865206f776e6572604482015260640162000b1f565b600054610100900460ff1662002bfa5760405162461bcd60e51b815260040162000b1f9062003ae8565b6200121662002c8a565b600054610100900460ff1662002c2e5760405162461bcd60e51b815260040162000b1f9062003ae8565b6200121662002cbf565b603380546001600160a01b038381166001600160a01b0319831681179093556040519116919082907f8be0079c531659141344cd1fd0a4f28419497f9722a3daafe3b4186f6b6457e090600090a35050565b600054610100900460ff1662002cb45760405162461bcd60e51b815260040162000b1f9062003ae8565b620012163362002c38565b600054610100900460ff1662002b6d5760405162461bcd60e51b815260040162000b1f9062003ae8565b610f608062003e7d83390190565b82805462002d059062003ddf565b90600052602060002090601f01602090048101928262002d29576000855562002d74565b82601f1062002d4457805160ff191683800117855562002d74565b8280016001018555821562002d74579182015b8281111562002d7457825182559160200191906001019062002d57565b5062002d8292915062002d86565b5090565b5b8082111562002d82576000815560010162002d87565b600082601f83011262002dae578081fd5b8135602062002dc762002dc18362003d27565b62003cf4565b828152818101908583018385028701840188101562002de4578586fd5b855b8581101562002e0f57813562002dfc8162003e66565b8452928401929084019060010162002de6565b5090979650505050505050565b600082601f83011262002e2d578081fd5b8135602062002e4062002dc18362003d27565b828152818101908583018385028701840188101562002e5d578586fd5b855b8581101562002e0f5781358452928401929084019060010162002e5f565b8051801515811462000ab757600080fd5b80356001600160e01b03198116811462000ab757600080fd5b60008083601f84011262002eb9578182fd5b5081356001600160401b0381111562002ed0578182fd5b60208301915083602082850101111562002ee957600080fd5b9250929050565b600082601f83011262002f01578081fd5b813562002f1262002dc18262003d4d565b81815284602083860101111562002f27578283fd5b816020850160208301379081016020019190915292915050565b80356006811062000ab757600080fd5b60006020828403121562002f63578081fd5b813562002f708162003e66565b9392505050565b60006020828403121562002f89578081fd5b815162002f708162003e66565b60006020828403121562002fa8578081fd5b62002f708262002e7d565b6000806040838503121562002fc6578081fd5b62002fd18362002e7d565b91506020808401516001600160401b0381111562002fed578283fd5b8401601f8101861362002ffe578283fd5b80516200300f62002dc18262003d27565b81815283810190838501858402850186018a10156200302c578687fd5b8694505b838510156200305057805183526001949094019391850191850162003030565b5080955050505050509250929050565b60006020828403121562003072578081fd5b5035919050565b6000602082840312156200308b578081fd5b5051919050565b6000806000806000806000806000806101008b8d031215620030b2578586fd5b620030bd8b62002e8e565b995060208b01356001600160401b0380821115620030d9578788fd5b620030e78e838f0162002ef0565b9a5060408d0135915080821115620030fd578788fd5b6200310b8e838f0162002ea7565b909a5098508891506200312160608e0162002e8e565b975060808d0135965060a08d01359150808211156200313e578586fd5b6200314c8e838f0162002ea7565b909650945060c08d0135935060e08d01359150808211156200316c578283fd5b506200317b8d828e0162002d9d565b9150509295989b9194979a5092959850565b600080600080600080600080610100898b031215620031aa578182fd5b620031b58962002e8e565b975060208901356001600160401b0380821115620031d1578384fd5b620031df8c838d0162002ef0565b985060408b0135915080821115620031f5578384fd5b620032038c838d0162002ef0565b97506200321360608c0162002e8e565b965060808b0135955060a08b013591508082111562003230578384fd5b6200323e8c838d0162002ef0565b945060c08b0135935060e08b01359150808211156200325b578283fd5b506200326a8b828c0162002e1c565b9150509295985092959890939650565b600080604083850312156200328d578182fd5b82356001600160401b03811115620032a3578283fd5b620032b18582860162002ef0565b925050620032c26020840162002f41565b90509250929050565b600060208284031215620032dd578081fd5b81356001600160401b03811115620032f3578182fd5b620033018482850162002ef0565b949350505050565b6000602082840312156200331b578081fd5b81516001600160401b0381111562003331578182fd5b8201601f8101841362003342578182fd5b80516200335362002dc18262003d4d565b81815285602083850101111562003368578384fd5b6200337b82602083016020860162003dac565b95945050505050565b60008060006060848603121562003399578081fd5b83356001600160401b03811115620033af578182fd5b620033bd8682870162002ef0565b935050602084013560ff81168114620033d4578182fd5b929592945050506040919091013590565b60008060408385031215620033f8578182fd5b8235915060208301356200340c8162003e66565b809150509250929050565b600080604083850312156200342a578182fd5b50508035926020909101359150565b600080600080600080600060e0888a03121562003454578081fd5b873596506020880135955060408801356001600160401b038082111562003479578283fd5b620034878b838c0162002ef0565b96506200349760608b0162002f41565b955060808a0135945060a08a0135935060c08a0135915080821115620034bb578283fd5b50620034ca8a828b0162002d9d565b91505092959891949750929550565b600080600060608486031215620034ee578081fd5b8351925060208401519150604084015190509250925092565b600080600080608085870312156200351d578182fd5b84519350602085015192506040850151915060608501516200353f8162003e66565b939692955090935050565b60008060008060008060008060006101208a8c03121562003569578283fd5b8935985060208a0135975060408a0135965060608a01356200358b8162003e66565b955060808a01356200359d8162003e66565b945060a08a01356001600160401b03811115620035b8578384fd5b620035c68c828d0162002ef0565b945050620035d760c08b0162002f41565b925060e08a0135620035e98162003e66565b91506101008a0135620035fc8162003e66565b809150509295985092959850929598565b6000815180845260208085019450808401835b83811015620036475781516001600160a01b03168752958201959082019060010162003620565b509495945050505050565b60008284528282602086013780602084860101526020601f19601f85011685010190509392505050565b600081518084526200369681602086016020860162003dac565b601f01601f19169290920160200192915050565b60068110620036c957634e487b7160e01b600052602160045260246000fd5b9052565b60008251620036e181846020870162003dac565b9190910192915050565b6001600160a01b038481168252831660208201526060604082018190526000906200337b908301846200367c565b6001600160a01b038a8116825261012060208301819052600091620037418483018d6200367c565b925062003752604085018c620036aa565b989098166060830152608082019690965260a081019490945260c084019290925260e083015261010090910152949350505050565b6001600160a01b038c8116825261016060208301819052600091620037af8483018f6200367c565b9250620037c0604085018e620036aa565b8b6060850152808b1660808501528960a08501528860c085015280881660e085015250508461010083015283610120830152826101408301529c9b505050505050505050505050565b6001600160a01b0398891681526020810197909752948716604087015260608601939093529416608084015260a083019390935260c082019290925260e08101919091526101000190565b6001600160a01b0386168152602080820186905260a060408301528454600091908290600281046001828116806200388d57607f831692505b858310811415620038ac57634e487b7160e01b87526022600452602487fd5b60a0880183905260c08801818015620038ce5760018114620038e0576200390c565b60ff198616825287820196506200390c565b60008d815260209020895b868110156200390657815484820152908501908901620038eb565b83019750505b5050505050508092505050620039266060830185620036aa565b8260808301529695505050505050565b600061012060018060a01b038c1683528a60208401528960408401528860608401528760808401528660a08401528560c08401528060e08401526200397e818401866200367c565b91505062003991610100830184620036aa565b9a9950505050505050505050565b60006020825262002f7060208301846200360d565b6000881515825287602083015286604083015285606083015260018060a01b038516608083015260e060a0830152620039f160e08301856200367c565b905062003a0260c0830184620036aa565b98975050505050505050565b60006020825262002f7060208301846200367c565b6020810162003a338284620036aa565b92915050565b60006060825262003a4e60608301866200367c565b828103602084015262003a6281866200367c565b91505060ff83166040830152949350505050565b600060a0825262003a8b60a08301886200367c565b60ff9690961660208301525060408101939093526001600160a01b03918216606084015216608090910152919050565b6020808252601390820152724c6f6769633a207a65726f206164647265737360681b604082015260600190565b6020808252602b908201527f496e697469616c697a61626c653a20636f6e7472616374206973206e6f74206960408201526a6e697469616c697a696e6760a81b606082015260800190565b8b81526001600160a01b038b1660208201526001600160e01b03198a811660408301526101206060830181905260009162003b718483018d6200367c565b9150838203608085015262003b88828b8d62003652565b915080891660a0850152508660c084015282810360e084015262003bae81868862003652565b915050826101008301529c9b505050505050505050505050565b8981526001600160a01b03891660208201526001600160e01b031988811660408301526101206060830181905260009162003c068483018b6200367c565b9150838203608085015262003c1c828a6200367c565b915080881660a0850152508560c084015282810360e084015262003c4181866200367c565b915050826101008301529a9950505050505050505050565b60006101008b835280602084015262003c768184018b8d62003652565b604084019990995250506060810195909552608085019390935260a084019190915260c083015260e0909101529392505050565b600087825286602083015260c0604083015262003ccb60c08301876200360d565b6001600160a01b03959095166060830152506080810192909252151560a0909101529392505050565b604051601f8201601f191681016001600160401b038111828210171562003d1f5762003d1f62003e50565b604052919050565b60006001600160401b0382111562003d435762003d4362003e50565b5060209081020190565b60006001600160401b0382111562003d695762003d6962003e50565b50601f01601f191660200190565b6000821982111562003d8d5762003d8d62003e3a565b500190565b60008282101562003da75762003da762003e3a565b500390565b60005b8381101562003dc957818101518382015260200162003daf565b8381111562003dd9576000848401525b50505050565b60028104600182168062003df457607f821691505b6020821081141562003e1657634e487b7160e01b600052602260045260246000fd5b50919050565b600060001982141562003e335762003e3362003e3a565b5060010190565b634e487b7160e01b600052601160045260246000fd5b634e487b7160e01b600052604160045260246000fd5b6001600160a01b03811681146200263957600080fdfe608060405260405162000f6038038062000f608339810160408190526200002691620004e8565b82828282816200005860017f360894a13ba1a3210667c828492db98dca3e2076cc3735a920a3ca505d382bbd62000617565b60008051602062000f19833981519152146200008457634e487b7160e01b600052600160045260246000fd5b620000928282600062000105565b50620000c2905060017fb53127684a568b3173ae13b9f8a6016e243e63b6e8ee1178d6a717850b5d610462000617565b60008051602062000ef983398151915214620000ee57634e487b7160e01b600052600160045260246000fd5b620000f98262000142565b50505050505062000680565b62000110836200019d565b6000825111806200011e5750805b156200013d576200013b8383620001df60201b6200026c1760201c565b505b505050565b7f7e644d79422f17c01e4894b5f4f588d331ebfa28653d42ae832dc59e38c9798f6200016d6200020e565b604080516001600160a01b03928316815291841660208301520160405180910390a16200019a8162000247565b50565b620001a881620002fc565b6040516001600160a01b038216907fbc7cd75a20ee27fd9adebab32041f755214dbc6bffa90cc0225b39da2e5c2d3b90600090a250565b606062000207838360405180606001604052806027815260200162000f39602791396200039f565b9392505050565b60006200023860008051602062000ef983398151915260001b6200048560201b620002141760201c565b546001600160a01b0316905090565b6001600160a01b038116620002b25760405162461bcd60e51b815260206004820152602660248201527f455243313936373a206e65772061646d696e20697320746865207a65726f206160448201526564647265737360d01b60648201526084015b60405180910390fd5b80620002db60008051602062000ef983398151915260001b6200048560201b620002141760201c565b80546001600160a01b0319166001600160a01b039290921691909117905550565b62000312816200048860201b620002981760201c565b620003765760405162461bcd60e51b815260206004820152602d60248201527f455243313936373a206e657720696d706c656d656e746174696f6e206973206e60448201526c1bdd08184818dbdb9d1c9858dd609a1b6064820152608401620002a9565b80620002db60008051602062000f1983398151915260001b6200048560201b620002141760201c565b6060620003ac8462000488565b620004095760405162461bcd60e51b815260206004820152602660248201527f416464726573733a2064656c65676174652063616c6c20746f206e6f6e2d636f6044820152651b9d1c9858dd60d21b6064820152608401620002a9565b600080856001600160a01b031685604051620004269190620005c4565b600060405180830381855af49150503d806000811462000463576040519150601f19603f3d011682016040523d82523d6000602084013e62000468565b606091505b5090925090506200047b82828662000492565b9695505050505050565b90565b803b15155b919050565b60608315620004a357508162000207565b825115620004b45782518084602001fd5b8160405162461bcd60e51b8152600401620002a99190620005e2565b80516001600160a01b03811681146200048d57600080fd5b600080600060608486031215620004fd578283fd5b6200050884620004d0565b92506200051860208501620004d0565b60408501519092506001600160401b038082111562000535578283fd5b818601915086601f83011262000549578283fd5b8151818111156200055e576200055e6200066a565b604051601f8201601f19908116603f011681019083821181831017156200058957620005896200066a565b81604052828152896020848701011115620005a2578586fd5b620005b58360208301602088016200063b565b80955050505050509250925092565b60008251620005d88184602087016200063b565b9190910192915050565b6000602082528251806020840152620006038160408501602087016200063b565b601f01601f19169190910160400192915050565b6000828210156200063657634e487b7160e01b81526011600452602481fd5b500390565b60005b83811015620006585781810151838201526020016200063e565b838111156200013b5750506000910152565b634e487b7160e01b600052604160045260246000fd5b61086980620006906000396000f3fe60806040526004361061004e5760003560e01c80633659cfe6146100655780634f1ef286146100855780635c60da1b146100985780638f283970146100c9578063f851a440146100e95761005d565b3661005d5761005b6100fe565b005b61005b6100fe565b34801561007157600080fd5b5061005b6100803660046106f9565b610118565b61005b610093366004610713565b610164565b3480156100a457600080fd5b506100ad6101da565b6040516001600160a01b03909116815260200160405180910390f35b3480156100d557600080fd5b5061005b6100e43660046106f9565b610217565b3480156100f557600080fd5b506100ad610241565b6101066102a2565b610116610111610346565b610355565b565b610120610379565b6001600160a01b0316336001600160a01b0316141561015957610154816040518060200160405280600081525060006103ac565b610161565b6101616100fe565b50565b61016c610379565b6001600160a01b0316336001600160a01b031614156101cd576101c88383838080601f016020809104026020016040519081016040528093929190818152602001838380828437600092019190915250600192506103ac915050565b6101d5565b6101d56100fe565b505050565b60006101e4610379565b6001600160a01b0316336001600160a01b0316141561020c57610205610346565b9050610214565b6102146100fe565b90565b61021f610379565b6001600160a01b0316336001600160a01b0316141561015957610154816103d7565b600061024b610379565b6001600160a01b0316336001600160a01b0316141561020c57610205610379565b6060610291838360405180606001604052806027815260200161080d6027913961042b565b9392505050565b803b15155b919050565b6102aa610379565b6001600160a01b0316336001600160a01b031614156103415760405162461bcd60e51b815260206004820152604260248201527f5472616e73706172656e745570677261646561626c6550726f78793a2061646d60448201527f696e2063616e6e6f742066616c6c6261636b20746f2070726f78792074617267606482015261195d60f21b608482015260a4015b60405180910390fd5b610116565b6000610350610506565b905090565b3660008037600080366000845af43d6000803e808015610374573d6000f35b3d6000fd5b60007fb53127684a568b3173ae13b9f8a6016e243e63b6e8ee1178d6a717850b5d61035b546001600160a01b0316905090565b6103b58361052e565b6000825111806103c25750805b156101d5576103d1838361026c565b50505050565b7f7e644d79422f17c01e4894b5f4f588d331ebfa28653d42ae832dc59e38c9798f610400610379565b604080516001600160a01b03928316815291841660208301520160405180910390a16101618161056e565b606061043684610298565b6104915760405162461bcd60e51b815260206004820152602660248201527f416464726573733a2064656c65676174652063616c6c20746f206e6f6e2d636f6044820152651b9d1c9858dd60d21b6064820152608401610338565b600080856001600160a01b0316856040516104ac9190610791565b600060405180830381855af49150503d80600081146104e7576040519150601f19603f3d011682016040523d82523d6000602084013e6104ec565b606091505b50915091506104fc828286610617565b9695505050505050565b60007f360894a13ba1a3210667c828492db98dca3e2076cc3735a920a3ca505d382bbc61039d565b61053781610650565b6040516001600160a01b038216907fbc7cd75a20ee27fd9adebab32041f755214dbc6bffa90cc0225b39da2e5c2d3b90600090a250565b6001600160a01b0381166105d35760405162461bcd60e51b815260206004820152602660248201527f455243313936373a206e65772061646d696e20697320746865207a65726f206160448201526564647265737360d01b6064820152608401610338565b807fb53127684a568b3173ae13b9f8a6016e243e63b6e8ee1178d6a717850b5d61035b80546001600160a01b0319166001600160a01b039290921691909117905550565b60608315610626575081610291565b8251156106365782518084602001fd5b8160405162461bcd60e51b815260040161033891906107ad565b61065981610298565b6106bb5760405162461bcd60e51b815260206004820152602d60248201527f455243313936373a206e657720696d706c656d656e746174696f6e206973206e60448201526c1bdd08184818dbdb9d1c9858dd609a1b6064820152608401610338565b807f360894a13ba1a3210667c828492db98dca3e2076cc3735a920a3ca505d382bbc6105f6565b80356001600160a01b038116811461029d57600080fd5b60006020828403121561070a578081fd5b610291826106e2565b600080600060408486031215610727578182fd5b610730846106e2565b9250602084013567ffffffffffffffff8082111561074c578384fd5b818601915086601f83011261075f578384fd5b81358181111561076d578485fd5b87602082850101111561077e578485fd5b6020830194508093505050509250925092565b600082516107a38184602087016107e0565b9190910192915050565b60006020825282518060208401526107cc8160408501602087016107e0565b601f01601f19169190910160400192915050565b60005b838110156107fb5781810151838201526020016107e3565b838111156103d1575050600091015256fe416464726573733a206c6f772d6c6576656c2064656c65676174652063616c6c206661696c6564a2646970667358221220b4247f5f99cc1cf013db9b00e4a0954a7d18f1459e99f8656fafa9b0780941a664736f6c63430008020033b53127684a568b3173ae13b9f8a6016e243e63b6e8ee1178d6a717850b5d6103360894a13ba1a3210667c828492db98dca3e2076cc3735a920a3ca505d382bbc416464726573733a206c6f772d6c6576656c2064656c65676174652063616c6c206661696c6564a2646970667358221220eda841b578dce85a5a9ffe155cf102592681c4f349f27f1df23218f9318599b564736f6c63430008020033",
  "libraries": {
    "Brc20RouterLib": "0x10d3cd258ec981eba81715190660c56387f278D0"
  },
  "devdoc": {
    "kind": "dev",
    "methods": {
      "addBrc20(string,uint8,uint256)": {
        "details": "We assign tokenId to a supported BRC20"
      },
      "initialize(uint256,uint256,uint256,address,address,bytes,uint8,address,address)": {
        "params": {
          "_chainId": "Id of the underlying chain",
          "_locker": "TODO",
          "_protocolPercentageFee": "Percentage amount of protocol fee (min: %0.01)",
          "_relay": "Bitcoin bridge address which validates Bitcoin tx",
          "_startingBlockNumber": "Requests included in a block older than _startingBlockNumber cannot be processed",
          "_treasury": "Address of treasury that collects protocol fees"
        }
      },
      "isWrapRequestProcessed(bytes32)": {
        "params": {
          "_txId": "of the request on Bitcoin"
        }
      },
      "owner()": {
        "details": "Returns the address of the current owner."
      },
      "renounceOwnership()": {
        "details": "Leaves the contract without owner. It will not be possible to call `onlyOwner` functions anymore. Can only be called by the current owner. NOTE: Renouncing ownership will leave the contract without an owner, thereby removing any functionality that is only available to the owner."
      },
      "setExchangeConnector(uint256,address)": {
        "details": "If address(0) is set for an appId, that appId is inactive"
      },
      "setUnwrapFee(uint256,uint256)": {
        "details": "This fee is taken for unwrap requests to cover the Bitcoin network fee"
      },
      "transferOwnership(address)": {
        "details": "Transfers ownership of the contract to a new account (`newOwner`). Can only be called by the current owner."
      },
      "unwrapBrc20(uint256,uint256,bytes,uint8,uint256,uint256,address[])": {
        "details": "For unwrap requests (not swap & unwrap), pass _appId,       _inputAmount and _path ZERO",
        "params": {
          "_amount": "of WBRC20 that user wants to burn",
          "_scriptType": "User script type",
          "_userScript": "User script hash"
        }
      },
      "wrapBrc20(bytes4,bytes,bytes,bytes4,uint256,bytes,uint256,address[])": {
        "details": "Locker submits wrap requests to this function for:      1) Checking tx inclusion      2) Extracting wrap request info from the OP_RETURN output      3) Exchanging wrapped BRC20 (if request is wrap & exchange) using the path          provided by the locker",
        "params": {
          "_blockNumber": "that includes the tx",
          "_index": "of tx in the block",
          "_intermediateNodes": "Merkle proof for tx",
          "_locktime": "Tx locktime",
          "_version": "of Bitcoin tx",
          "_vin": "Tx inputs",
          "_vout": "Tx outputs"
        }
      }
    },
    "version": 1
  },
  "userdoc": {
    "events": {
      "Brc20Removed(uint256,address)": {
        "notice": "Emit when BRC20 removed"
      },
      "FailedWrapAndSwap(address,uint256,address,uint256,address,uint256,uint256,bytes32)": {
        "notice": "Emit when a wrap&swap request is processed but swap failed"
      },
      "NewBrc20(string,uint256,uint256,address,address)": {
        "notice": "Emit when new BRC20 added"
      },
      "NewLocker(address,address)": {
        "notice": "Emit when locker address updated"
      },
      "NewProtocolPercentageFee(uint256,uint256)": {
        "notice": "Emit when protocol fee updated"
      },
      "NewRelay(address,address)": {
        "notice": "Emit when relay address updated"
      },
      "NewTeleporter(address,address)": {
        "notice": "Emit when teleporter address updated"
      },
      "NewTreasury(address,address)": {
        "notice": "Emit when treasury address updated"
      },
      "NewUnwrap(address,bytes,uint8,address,uint256,uint256,uint256,uint256,uint256)": {
        "notice": "Emit when a new unwrap request is created"
      },
      "NewUnwrapAndSwap(address,bytes,uint8,uint256,address,uint256,uint256,address,uint256,uint256,uint256)": {
        "notice": "Emit when a new unwrap&swap request is created"
      },
      "NewWrap(address,uint256,address,uint256,uint256,bytes32)": {
        "notice": "Emit when a wrap request is processed"
      },
      "NewWrapAndSwap(address,uint256,address,uint256,address,uint256,uint256,bytes32)": {
        "notice": "Emit when a wrap&swap request is processed"
      },
      "SetExchangeConnector(uint256,address)": {
        "notice": "Emits when appId for an exchange connector is set"
      },
      "UnwrapFeeUpdated(uint256,uint256,uint256,address)": {
        "notice": "Emit when unwrap fee updated"
      },
      "UnwrapProcessed(address,uint256,bytes,uint8,uint256)": {
        "notice": "Emit when a unwrap request is processed"
      }
    },
    "kind": "user",
    "methods": {
      "addBrc20(string,uint8,uint256)": {
        "notice": "Deploy wrapped BRC20 token contract"
      },
      "initialize(uint256,uint256,uint256,address,address,bytes,uint8,address,address)": {
        "notice": "Initialize the contract"
      },
      "isUnwrapRequestProcessed(uint256)": {
        "notice": "Check if the unwrap request has been processed before"
      },
      "isWrapRequestProcessed(bytes32)": {
        "notice": "Check if the wrap request has been processed before"
      },
      "removeBrc20(uint256)": {
        "notice": "Remove support of a wrapped BRC20 token"
      },
      "setChainId(uint256)": {
        "notice": "Setter for chainId"
      },
      "setExchangeConnector(uint256,address)": {
        "notice": "Set exchange connector for appId"
      },
      "setLocker(address)": {
        "notice": "Setter for locker"
      },
      "setLockerLockingScript(bytes,uint8)": {
        "notice": "Setter for locker locking script"
      },
      "setProtocolPercentageFee(uint256)": {
        "notice": "Setter for protocol percentage fee"
      },
      "setRelay(address)": {
        "notice": "Setter for Bitcoin relay"
      },
      "setStartingBlockNumber(uint256)": {
        "notice": "Setter for starting block number"
      },
      "setTeleporter(address)": {
        "notice": "Setter for teleporter"
      },
      "setTreasury(address)": {
        "notice": "Setter for treasury"
      },
      "setUnwrapFee(uint256,uint256)": {
        "notice": "Setter for unwrap fee"
      },
      "unwrapBrc20(uint256,uint256,bytes,uint8,uint256,uint256,address[])": {
        "notice": "Process user unwrap request"
      },
      "unwrapProof(bytes4,bytes,bytes,bytes4,uint256,bytes,uint256,uint256[])": {
        "notice": "Check proof of unwraping"
      },
      "wrapBrc20(bytes4,bytes,bytes,bytes4,uint256,bytes,uint256,address[])": {
        "notice": "Process wrap BRC20 request"
      }
    },
    "version": 1
  },
  "storageLayout": {
    "storage": [
      {
        "astId": 138,
        "contract": "contracts/router/Brc20RouterLogic.sol:Brc20RouterLogic",
        "label": "_initialized",
        "offset": 0,
        "slot": "0",
        "type": "t_uint8"
      },
      {
        "astId": 141,
        "contract": "contracts/router/Brc20RouterLogic.sol:Brc20RouterLogic",
        "label": "_initializing",
        "offset": 1,
        "slot": "0",
        "type": "t_bool"
      },
      {
        "astId": 1413,
        "contract": "contracts/router/Brc20RouterLogic.sol:Brc20RouterLogic",
        "label": "__gap",
        "offset": 0,
        "slot": "1",
        "type": "t_array(t_uint256)50_storage"
      },
      {
        "astId": 10,
        "contract": "contracts/router/Brc20RouterLogic.sol:Brc20RouterLogic",
        "label": "_owner",
        "offset": 0,
        "slot": "51",
        "type": "t_address"
      },
      {
        "astId": 130,
        "contract": "contracts/router/Brc20RouterLogic.sol:Brc20RouterLogic",
        "label": "__gap",
        "offset": 0,
        "slot": "52",
        "type": "t_array(t_uint256)49_storage"
      },
      {
        "astId": 314,
        "contract": "contracts/router/Brc20RouterLogic.sol:Brc20RouterLogic",
        "label": "_status",
        "offset": 0,
        "slot": "101",
        "type": "t_uint256"
      },
      {
        "astId": 372,
        "contract": "contracts/router/Brc20RouterLogic.sol:Brc20RouterLogic",
        "label": "__gap",
        "offset": 0,
        "slot": "102",
        "type": "t_array(t_uint256)49_storage"
      },
      {
        "astId": 12610,
        "contract": "contracts/router/Brc20RouterLogic.sol:Brc20RouterLogic",
        "label": "startingBlockNumber",
        "offset": 0,
        "slot": "151",
        "type": "t_uint256"
      },
      {
        "astId": 12613,
        "contract": "contracts/router/Brc20RouterLogic.sol:Brc20RouterLogic",
        "label": "chainId",
        "offset": 0,
        "slot": "152",
        "type": "t_uint256"
      },
      {
        "astId": 12616,
        "contract": "contracts/router/Brc20RouterLogic.sol:Brc20RouterLogic",
        "label": "protocolPercentageFee",
        "offset": 0,
        "slot": "153",
        "type": "t_uint256"
      },
      {
        "astId": 12618,
        "contract": "contracts/router/Brc20RouterLogic.sol:Brc20RouterLogic",
        "label": "lockerPercentageFee",
        "offset": 0,
        "slot": "154",
        "type": "t_uint256"
      },
      {
        "astId": 12620,
        "contract": "contracts/router/Brc20RouterLogic.sol:Brc20RouterLogic",
        "label": "unwrapCounter",
        "offset": 0,
        "slot": "155",
        "type": "t_uint256"
      },
      {
        "astId": 12623,
        "contract": "contracts/router/Brc20RouterLogic.sol:Brc20RouterLogic",
        "label": "relay",
        "offset": 0,
        "slot": "156",
        "type": "t_address"
      },
      {
        "astId": 12626,
        "contract": "contracts/router/Brc20RouterLogic.sol:Brc20RouterLogic",
        "label": "treasury",
        "offset": 0,
        "slot": "157",
        "type": "t_address"
      },
      {
        "astId": 12629,
        "contract": "contracts/router/Brc20RouterLogic.sol:Brc20RouterLogic",
        "label": "locker",
        "offset": 0,
        "slot": "158",
        "type": "t_address"
      },
      {
        "astId": 12633,
        "contract": "contracts/router/Brc20RouterLogic.sol:Brc20RouterLogic",
        "label": "supportedBrc20s",
        "offset": 0,
        "slot": "159",
        "type": "t_mapping(t_uint256,t_address)"
      },
      {
        "astId": 12637,
        "contract": "contracts/router/Brc20RouterLogic.sol:Brc20RouterLogic",
        "label": "tokenIds",
        "offset": 0,
        "slot": "160",
        "type": "t_mapping(t_string_memory_ptr,t_uint256)"
      },
      {
        "astId": 12641,
        "contract": "contracts/router/Brc20RouterLogic.sol:Brc20RouterLogic",
        "label": "unwrapFees",
        "offset": 0,
        "slot": "161",
        "type": "t_mapping(t_uint256,t_uint256)"
      },
      {
        "astId": 12646,
        "contract": "contracts/router/Brc20RouterLogic.sol:Brc20RouterLogic",
        "label": "brc20WrapRequests",
        "offset": 0,
        "slot": "162",
        "type": "t_mapping(t_bytes32,t_struct(brc20WrapRequest)12690_storage)"
      },
      {
        "astId": 12651,
        "contract": "contracts/router/Brc20RouterLogic.sol:Brc20RouterLogic",
        "label": "exchangeConnector",
        "offset": 0,
        "slot": "163",
        "type": "t_mapping(t_uint256,t_address)"
      },
      {
        "astId": 12655,
        "contract": "contracts/router/Brc20RouterLogic.sol:Brc20RouterLogic",
        "label": "brc20UnwrapRequests",
        "offset": 0,
        "slot": "164",
        "type": "t_array(t_struct(brc20UnwrapRequest)12706_storage)dyn_storage"
      },
      {
        "astId": 12658,
        "contract": "contracts/router/Brc20RouterLogic.sol:Brc20RouterLogic",
        "label": "lockerLockingScript",
        "offset": 0,
        "slot": "165",
        "type": "t_bytes_storage"
      },
      {
        "astId": 12662,
        "contract": "contracts/router/Brc20RouterLogic.sol:Brc20RouterLogic",
        "label": "lockerScriptType",
        "offset": 0,
        "slot": "166",
        "type": "t_enum(ScriptTypes)7980"
      },
      {
        "astId": 12665,
        "contract": "contracts/router/Brc20RouterLogic.sol:Brc20RouterLogic",
        "label": "teleporter",
        "offset": 1,
        "slot": "166",
        "type": "t_address"
      }
    ],
    "types": {
      "t_address": {
        "encoding": "inplace",
        "label": "address",
        "numberOfBytes": "20"
      },
      "t_array(t_struct(brc20UnwrapRequest)12706_storage)dyn_storage": {
        "base": "t_struct(brc20UnwrapRequest)12706_storage",
        "encoding": "dynamic_array",
        "label": "struct IBrc20Router.brc20UnwrapRequest[]",
        "numberOfBytes": "32"
      },
      "t_array(t_uint256)49_storage": {
        "base": "t_uint256",
        "encoding": "inplace",
        "label": "uint256[49]",
        "numberOfBytes": "1568"
      },
      "t_array(t_uint256)50_storage": {
        "base": "t_uint256",
        "encoding": "inplace",
        "label": "uint256[50]",
        "numberOfBytes": "1600"
      },
      "t_bool": {
        "encoding": "inplace",
        "label": "bool",
        "numberOfBytes": "1"
      },
      "t_bytes32": {
        "encoding": "inplace",
        "label": "bytes32",
        "numberOfBytes": "32"
      },
      "t_bytes_storage": {
        "encoding": "bytes",
        "label": "bytes",
        "numberOfBytes": "32"
      },
      "t_enum(ScriptTypes)7980": {
        "encoding": "inplace",
        "label": "enum ScriptTypes",
        "numberOfBytes": "1"
      },
      "t_mapping(t_bytes32,t_struct(brc20WrapRequest)12690_storage)": {
        "encoding": "mapping",
        "key": "t_bytes32",
        "label": "mapping(bytes32 => struct IBrc20Router.brc20WrapRequest)",
        "numberOfBytes": "32",
        "value": "t_struct(brc20WrapRequest)12690_storage"
      },
      "t_mapping(t_string_memory_ptr,t_uint256)": {
        "encoding": "mapping",
        "key": "t_string_memory_ptr",
        "label": "mapping(string => uint256)",
        "numberOfBytes": "32",
        "value": "t_uint256"
      },
      "t_mapping(t_uint256,t_address)": {
        "encoding": "mapping",
        "key": "t_uint256",
        "label": "mapping(uint256 => address)",
        "numberOfBytes": "32",
        "value": "t_address"
      },
      "t_mapping(t_uint256,t_uint256)": {
        "encoding": "mapping",
        "key": "t_uint256",
        "label": "mapping(uint256 => uint256)",
        "numberOfBytes": "32",
        "value": "t_uint256"
      },
      "t_string_memory_ptr": {
        "encoding": "bytes",
        "label": "string",
        "numberOfBytes": "32"
      },
      "t_struct(brc20UnwrapRequest)12706_storage": {
        "encoding": "inplace",
        "label": "struct IBrc20Router.brc20UnwrapRequest",
        "members": [
          {
            "astId": 12692,
            "contract": "contracts/router/Brc20RouterLogic.sol:Brc20RouterLogic",
            "label": "isProcessed",
            "offset": 0,
            "slot": "0",
            "type": "t_bool"
          },
          {
            "astId": 12694,
            "contract": "contracts/router/Brc20RouterLogic.sol:Brc20RouterLogic",
            "label": "amount",
            "offset": 0,
            "slot": "1",
            "type": "t_uint256"
          },
          {
            "astId": 12696,
            "contract": "contracts/router/Brc20RouterLogic.sol:Brc20RouterLogic",
            "label": "burntAmount",
            "offset": 0,
            "slot": "2",
            "type": "t_uint256"
          },
          {
            "astId": 12698,
            "contract": "contracts/router/Brc20RouterLogic.sol:Brc20RouterLogic",
            "label": "appId",
            "offset": 0,
            "slot": "3",
            "type": "t_uint256"
          },
          {
            "astId": 12700,
            "contract": "contracts/router/Brc20RouterLogic.sol:Brc20RouterLogic",
            "label": "sender",
            "offset": 0,
            "slot": "4",
            "type": "t_address"
          },
          {
            "astId": 12702,
            "contract": "contracts/router/Brc20RouterLogic.sol:Brc20RouterLogic",
            "label": "userScript",
            "offset": 0,
            "slot": "5",
            "type": "t_bytes_storage"
          },
          {
            "astId": 12705,
            "contract": "contracts/router/Brc20RouterLogic.sol:Brc20RouterLogic",
            "label": "scriptType",
            "offset": 0,
            "slot": "6",
            "type": "t_enum(ScriptTypes)7980"
          }
        ],
        "numberOfBytes": "224"
      },
      "t_struct(brc20WrapRequest)12690_storage": {
        "encoding": "inplace",
        "label": "struct IBrc20Router.brc20WrapRequest",
        "members": [
          {
            "astId": 12671,
            "contract": "contracts/router/Brc20RouterLogic.sol:Brc20RouterLogic",
            "label": "isUsed",
            "offset": 0,
            "slot": "0",
            "type": "t_bool"
          },
          {
            "astId": 12673,
            "contract": "contracts/router/Brc20RouterLogic.sol:Brc20RouterLogic",
            "label": "chainId",
            "offset": 0,
            "slot": "1",
            "type": "t_uint256"
          },
          {
            "astId": 12675,
            "contract": "contracts/router/Brc20RouterLogic.sol:Brc20RouterLogic",
            "label": "appId",
            "offset": 0,
            "slot": "2",
            "type": "t_uint256"
          },
          {
            "astId": 12677,
            "contract": "contracts/router/Brc20RouterLogic.sol:Brc20RouterLogic",
            "label": "tokenId",
            "offset": 0,
            "slot": "3",
            "type": "t_uint256"
          },
          {
            "astId": 12679,
            "contract": "contracts/router/Brc20RouterLogic.sol:Brc20RouterLogic",
            "label": "inputAmount",
            "offset": 0,
            "slot": "4",
            "type": "t_uint256"
          },
          {
            "astId": 12681,
            "contract": "contracts/router/Brc20RouterLogic.sol:Brc20RouterLogic",
            "label": "inputToken",
            "offset": 0,
            "slot": "5",
            "type": "t_address"
          },
          {
            "astId": 12683,
            "contract": "contracts/router/Brc20RouterLogic.sol:Brc20RouterLogic",
            "label": "recipientAddress",
            "offset": 0,
            "slot": "6",
            "type": "t_address"
          },
          {
            "astId": 12685,
            "contract": "contracts/router/Brc20RouterLogic.sol:Brc20RouterLogic",
            "label": "fee",
            "offset": 0,
            "slot": "7",
            "type": "t_uint256"
          },
          {
            "astId": 12687,
            "contract": "contracts/router/Brc20RouterLogic.sol:Brc20RouterLogic",
            "label": "outputAmount",
            "offset": 0,
            "slot": "8",
            "type": "t_uint256"
          },
          {
            "astId": 12689,
            "contract": "contracts/router/Brc20RouterLogic.sol:Brc20RouterLogic",
            "label": "outputToken",
            "offset": 0,
            "slot": "9",
            "type": "t_address"
          }
        ],
        "numberOfBytes": "320"
      },
      "t_uint256": {
        "encoding": "inplace",
        "label": "uint256",
        "numberOfBytes": "32"
      },
      "t_uint8": {
        "encoding": "inplace",
        "label": "uint8",
        "numberOfBytes": "1"
      }
    }
  }
}