{
  "address": "0x5EC9b809114d38B2Dc43A0A3D822A6a795cC7392",
  "abi": [
    {
      "inputs": [],
      "name": "ZeroAddress",
      "type": "error"
    },
    {
      "anonymous": false,
      "inputs": [
        {
          "indexed": true,
          "internalType": "address",
          "name": "userTargetAddress",
          "type": "address"
        },
        {
          "indexed": true,
          "internalType": "address",
          "name": "_lockerTargetAddress",
          "type": "address"
        },
        {
          "indexed": false,
          "internalType": "bytes",
          "name": "lockerLockingScript",
          "type": "bytes"
        },
        {
          "indexed": false,
          "internalType": "uint256",
          "name": "requestIdOfLocker",
          "type": "uint256"
        }
      ],
      "name": "BurnDispute",
      "type": "event"
    },
    {
      "anonymous": false,
      "inputs": [
        {
          "indexed": false,
          "internalType": "uint8",
          "name": "version",
          "type": "uint8"
        }
      ],
      "name": "Initialized",
      "type": "event"
    },
    {
      "anonymous": false,
      "inputs": [
        {
          "indexed": false,
          "internalType": "address",
          "name": "_lockerTargetAddress",
          "type": "address"
        },
        {
          "indexed": false,
          "internalType": "bytes",
          "name": "lockerLockingScript",
          "type": "bytes"
        },
        {
          "indexed": false,
          "internalType": "uint256",
          "name": "_blockNumber",
          "type": "uint256"
        },
        {
          "indexed": false,
          "internalType": "bytes32",
          "name": "txId",
          "type": "bytes32"
        },
        {
          "indexed": false,
          "internalType": "uint256",
          "name": "amount",
          "type": "uint256"
        }
      ],
      "name": "LockerDispute",
      "type": "event"
    },
    {
      "anonymous": false,
      "inputs": [
        {
          "indexed": false,
          "internalType": "address",
          "name": "oldLockers",
          "type": "address"
        },
        {
          "indexed": false,
          "internalType": "address",
          "name": "newLockers",
          "type": "address"
        }
      ],
      "name": "NewLockers",
      "type": "event"
    },
    {
      "anonymous": false,
      "inputs": [
        {
          "indexed": false,
          "internalType": "uint256",
          "name": "oldNetworkFee",
          "type": "uint256"
        },
        {
          "indexed": false,
          "internalType": "uint256",
          "name": "newNetworkFee",
          "type": "uint256"
        }
      ],
      "name": "NewNetworkFee",
      "type": "event"
    },
    {
      "anonymous": false,
      "inputs": [
        {
          "indexed": false,
          "internalType": "address",
          "name": "oldNetworkFeeOracle",
          "type": "address"
        },
        {
          "indexed": false,
          "internalType": "address",
          "name": "newNetworkFeeOracle",
          "type": "address"
        }
      ],
      "name": "NewNetworkFeeOracle",
      "type": "event"
    },
    {
      "anonymous": false,
      "inputs": [
        {
          "indexed": false,
          "internalType": "uint256",
          "name": "oldProtocolPercentageFee",
          "type": "uint256"
        },
        {
          "indexed": false,
          "internalType": "uint256",
          "name": "newProtocolPercentageFee",
          "type": "uint256"
        }
      ],
      "name": "NewProtocolPercentageFee",
      "type": "event"
    },
    {
      "anonymous": false,
      "inputs": [
        {
          "indexed": false,
          "internalType": "address",
          "name": "oldRelay",
          "type": "address"
        },
        {
          "indexed": false,
          "internalType": "address",
          "name": "newRelay",
          "type": "address"
        }
      ],
      "name": "NewRelay",
      "type": "event"
    },
    {
      "anonymous": false,
      "inputs": [
        {
          "indexed": false,
          "internalType": "uint256",
          "name": "oldSlasherPercentageFee",
          "type": "uint256"
        },
        {
          "indexed": false,
          "internalType": "uint256",
          "name": "newSlasherPercentageFee",
          "type": "uint256"
        }
      ],
      "name": "NewSlasherPercentageFee",
      "type": "event"
    },
    {
      "anonymous": false,
      "inputs": [
        {
          "indexed": false,
          "internalType": "address",
          "name": "oldTeleBTC",
          "type": "address"
        },
        {
          "indexed": false,
          "internalType": "address",
          "name": "newTeleBTC",
          "type": "address"
        }
      ],
      "name": "NewTeleBTC",
      "type": "event"
    },
    {
      "anonymous": false,
      "inputs": [
        {
          "indexed": false,
          "internalType": "uint256",
          "name": "thirdPartyId",
          "type": "uint256"
        },
        {
          "indexed": false,
          "internalType": "address",
          "name": "oldThirdPartyAddress",
          "type": "address"
        },
        {
          "indexed": false,
          "internalType": "address",
          "name": "newThirdPartyAddress",
          "type": "address"
        }
      ],
      "name": "NewThirdPartyAddress",
      "type": "event"
    },
    {
      "anonymous": false,
      "inputs": [
        {
          "indexed": false,
          "internalType": "uint256",
          "name": "thirdPartyId",
          "type": "uint256"
        },
        {
          "indexed": false,
          "internalType": "uint256",
          "name": "oldThirdPartyFee",
          "type": "uint256"
        },
        {
          "indexed": false,
          "internalType": "uint256",
          "name": "newThirdPartyFee",
          "type": "uint256"
        }
      ],
      "name": "NewThirdPartyFee",
      "type": "event"
    },
    {
      "anonymous": false,
      "inputs": [
        {
          "indexed": false,
          "internalType": "uint256",
          "name": "oldTransferDeadline",
          "type": "uint256"
        },
        {
          "indexed": false,
          "internalType": "uint256",
          "name": "newTransferDeadline",
          "type": "uint256"
        }
      ],
      "name": "NewTransferDeadline",
      "type": "event"
    },
    {
      "anonymous": false,
      "inputs": [
        {
          "indexed": false,
          "internalType": "address",
          "name": "oldTreasury",
          "type": "address"
        },
        {
          "indexed": false,
          "internalType": "address",
          "name": "newTreasury",
          "type": "address"
        }
      ],
      "name": "NewTreasury",
      "type": "event"
    },
    {
      "anonymous": false,
      "inputs": [
        {
          "indexed": false,
          "internalType": "bytes",
          "name": "userScript",
          "type": "bytes"
        },
        {
          "indexed": false,
          "internalType": "enum ScriptTypes",
          "name": "scriptType",
          "type": "uint8"
        },
        {
          "indexed": false,
          "internalType": "address",
          "name": "lockerTargetAddress",
          "type": "address"
        },
        {
          "indexed": true,
          "internalType": "address",
          "name": "userTargetAddress",
          "type": "address"
        },
        {
          "indexed": false,
          "internalType": "uint256",
          "name": "requestIdOfLocker",
          "type": "uint256"
        },
        {
          "indexed": true,
          "internalType": "uint256",
          "name": "deadline",
          "type": "uint256"
        },
        {
          "indexed": false,
          "internalType": "uint256",
          "name": "thirdPartyId",
          "type": "uint256"
        },
        {
          "indexed": false,
          "internalType": "address",
          "name": "inputToken",
          "type": "address"
        },
        {
          "indexed": false,
          "internalType": "uint256[3]",
          "name": "amounts",
          "type": "uint256[3]"
        },
        {
          "indexed": false,
          "internalType": "uint256[4]",
          "name": "fees",
          "type": "uint256[4]"
        }
      ],
      "name": "NewUnwrap",
      "type": "event"
    },
    {
      "anonymous": false,
      "inputs": [
        {
          "indexed": false,
          "internalType": "address",
          "name": "oldWrappedNativeToken",
          "type": "address"
        },
        {
          "indexed": false,
          "internalType": "address",
          "name": "newWrappedNativeToken",
          "type": "address"
        }
      ],
      "name": "NewWrappedNativeToken",
      "type": "event"
    },
    {
      "anonymous": false,
      "inputs": [
        {
          "indexed": true,
          "internalType": "address",
          "name": "previousOwner",
          "type": "address"
        },
        {
          "indexed": true,
          "internalType": "address",
          "name": "newOwner",
          "type": "address"
        }
      ],
      "name": "OwnershipTransferred",
      "type": "event"
    },
    {
      "anonymous": false,
      "inputs": [
        {
          "indexed": true,
          "internalType": "address",
          "name": "lockerTargetAddress",
          "type": "address"
        },
        {
          "indexed": false,
          "internalType": "uint256",
          "name": "requestIdOfLocker",
          "type": "uint256"
        },
        {
          "indexed": false,
          "internalType": "bytes32",
          "name": "bitcoinTxId",
          "type": "bytes32"
        },
        {
          "indexed": false,
          "internalType": "uint256",
          "name": "bitcoinTxOutputIndex",
          "type": "uint256"
        }
      ],
      "name": "PaidUnwrap",
      "type": "event"
    },
    {
      "inputs": [],
      "name": "bitcoinFee",
      "outputs": [
        {
          "internalType": "uint256",
          "name": "",
          "type": "uint256"
        }
      ],
      "stateMutability": "view",
      "type": "function"
    },
    {
      "inputs": [],
      "name": "bitcoinFeeOracle",
      "outputs": [
        {
          "internalType": "address",
          "name": "",
          "type": "address"
        }
      ],
      "stateMutability": "view",
      "type": "function"
    },
    {
      "inputs": [
        {
          "internalType": "bytes4",
          "name": "_version",
          "type": "bytes4"
        },
        {
          "internalType": "bytes",
          "name": "_vin",
          "type": "bytes"
        },
        {
          "internalType": "bytes",
          "name": "_vout",
          "type": "bytes"
        },
        {
          "internalType": "bytes4",
          "name": "_locktime",
          "type": "bytes4"
        },
        {
          "internalType": "uint256",
          "name": "_blockNumber",
          "type": "uint256"
        },
        {
          "internalType": "bytes",
          "name": "_intermediateNodes",
          "type": "bytes"
        },
        {
          "internalType": "uint256",
          "name": "_index",
          "type": "uint256"
        },
        {
          "internalType": "bytes",
          "name": "_lockerLockingScript",
          "type": "bytes"
        },
        {
          "internalType": "uint256[]",
          "name": "_burnReqIndexes",
          "type": "uint256[]"
        },
        {
          "internalType": "uint256[]",
          "name": "_voutIndexes",
          "type": "uint256[]"
        }
      ],
      "name": "burnProof",
      "outputs": [
        {
          "internalType": "bool",
          "name": "",
          "type": "bool"
        }
      ],
      "stateMutability": "payable",
      "type": "function"
    },
    {
      "inputs": [
        {
          "internalType": "address",
          "name": "",
          "type": "address"
        }
      ],
      "name": "burnRequestCounter",
      "outputs": [
        {
          "internalType": "uint256",
          "name": "",
          "type": "uint256"
        }
      ],
      "stateMutability": "view",
      "type": "function"
    },
    {
      "inputs": [
        {
          "internalType": "address",
          "name": "",
          "type": "address"
        },
        {
          "internalType": "uint256",
          "name": "",
          "type": "uint256"
        }
      ],
      "name": "burnRequests",
      "outputs": [
        {
          "internalType": "uint256",
          "name": "amount",
          "type": "uint256"
        },
        {
          "internalType": "uint256",
          "name": "burntAmount",
          "type": "uint256"
        },
        {
          "internalType": "address",
          "name": "sender",
          "type": "address"
        },
        {
          "internalType": "bytes",
          "name": "userScript",
          "type": "bytes"
        },
        {
          "internalType": "uint256",
          "name": "deadline",
          "type": "uint256"
        },
        {
          "internalType": "bool",
          "name": "isTransferred",
          "type": "bool"
        },
        {
          "internalType": "enum ScriptTypes",
          "name": "scriptType",
          "type": "uint8"
        },
        {
          "internalType": "uint256",
          "name": "requestIdOfLocker",
          "type": "uint256"
        }
      ],
      "stateMutability": "view",
      "type": "function"
    },
    {
      "inputs": [
        {
          "internalType": "bytes",
          "name": "_lockerLockingScript",
          "type": "bytes"
        },
        {
          "internalType": "uint256[]",
          "name": "_indices",
          "type": "uint256[]"
        }
      ],
      "name": "disputeBurn",
      "outputs": [],
      "stateMutability": "nonpayable",
      "type": "function"
    },
    {
      "inputs": [
        {
          "internalType": "bytes",
          "name": "_lockerLockingScript",
          "type": "bytes"
        },
        {
          "internalType": "bytes4[]",
          "name": "_versions",
          "type": "bytes4[]"
        },
        {
          "internalType": "bytes",
          "name": "_inputVin",
          "type": "bytes"
        },
        {
          "internalType": "bytes",
          "name": "_inputVout",
          "type": "bytes"
        },
        {
          "internalType": "bytes",
          "name": "_outputVin",
          "type": "bytes"
        },
        {
          "internalType": "bytes",
          "name": "_outputVout",
          "type": "bytes"
        },
        {
          "internalType": "bytes4[]",
          "name": "_locktimes",
          "type": "bytes4[]"
        },
        {
          "internalType": "bytes",
          "name": "_inputIntermediateNodes",
          "type": "bytes"
        },
        {
          "internalType": "uint256[]",
          "name": "_indexesAndBlockNumbers",
          "type": "uint256[]"
        }
      ],
      "name": "disputeLocker",
      "outputs": [],
      "stateMutability": "payable",
      "type": "function"
    },
    {
      "inputs": [
        {
          "internalType": "uint256",
          "name": "_startingBlockNumber",
          "type": "uint256"
        },
        {
          "internalType": "address",
          "name": "_relay",
          "type": "address"
        },
        {
          "internalType": "address",
          "name": "_lockers",
          "type": "address"
        },
        {
          "internalType": "address",
          "name": "_treasury",
          "type": "address"
        },
        {
          "internalType": "address",
          "name": "_teleBTC",
          "type": "address"
        },
        {
          "internalType": "uint256",
          "name": "_transferDeadline",
          "type": "uint256"
        },
        {
          "internalType": "uint256",
          "name": "_protocolPercentageFee",
          "type": "uint256"
        },
        {
          "internalType": "uint256",
          "name": "_slasherPercentageReward",
          "type": "uint256"
        },
        {
          "internalType": "uint256",
          "name": "_networkFee",
          "type": "uint256"
        },
        {
          "internalType": "address",
          "name": "_wrappedNativeToken",
          "type": "address"
        }
      ],
      "name": "initialize",
      "outputs": [],
      "stateMutability": "nonpayable",
      "type": "function"
    },
    {
      "inputs": [
        {
          "internalType": "address",
          "name": "_lockerTargetAddress",
          "type": "address"
        },
        {
          "internalType": "uint256",
          "name": "_index",
          "type": "uint256"
        }
      ],
      "name": "isTransferred",
      "outputs": [
        {
          "internalType": "bool",
          "name": "",
          "type": "bool"
        }
      ],
      "stateMutability": "view",
      "type": "function"
    },
    {
      "inputs": [
        {
          "internalType": "bytes32",
          "name": "",
          "type": "bytes32"
        }
      ],
      "name": "isUsedAsBurnProof",
      "outputs": [
        {
          "internalType": "bool",
          "name": "",
          "type": "bool"
        }
      ],
      "stateMutability": "view",
      "type": "function"
    },
    {
      "inputs": [],
      "name": "lockers",
      "outputs": [
        {
          "internalType": "address",
          "name": "",
          "type": "address"
        }
      ],
      "stateMutability": "view",
      "type": "function"
    },
    {
      "inputs": [],
      "name": "owner",
      "outputs": [
        {
          "internalType": "address",
          "name": "",
          "type": "address"
        }
      ],
      "stateMutability": "view",
      "type": "function"
    },
    {
      "inputs": [],
      "name": "protocolPercentageFee",
      "outputs": [
        {
          "internalType": "uint256",
          "name": "",
          "type": "uint256"
        }
      ],
      "stateMutability": "view",
      "type": "function"
    },
    {
      "inputs": [],
      "name": "relay",
      "outputs": [
        {
          "internalType": "address",
          "name": "",
          "type": "address"
        }
      ],
      "stateMutability": "view",
      "type": "function"
    },
    {
      "inputs": [],
      "name": "renounceOwnership",
      "outputs": [],
      "stateMutability": "nonpayable",
      "type": "function"
    },
    {
      "inputs": [
        {
          "internalType": "address",
          "name": "_lockers",
          "type": "address"
        }
      ],
      "name": "setLockers",
      "outputs": [],
      "stateMutability": "nonpayable",
      "type": "function"
    },
    {
      "inputs": [
        {
          "internalType": "uint256",
          "name": "_networkFee",
          "type": "uint256"
        }
      ],
      "name": "setNetworkFee",
      "outputs": [],
      "stateMutability": "nonpayable",
      "type": "function"
    },
    {
      "inputs": [
        {
          "internalType": "address",
          "name": "_networkFeeOracle",
          "type": "address"
        }
      ],
      "name": "setNetworkFeeOracle",
      "outputs": [],
      "stateMutability": "nonpayable",
      "type": "function"
    },
    {
      "inputs": [
        {
          "internalType": "uint256",
          "name": "_protocolPercentageFee",
          "type": "uint256"
        }
      ],
      "name": "setProtocolPercentageFee",
      "outputs": [],
      "stateMutability": "nonpayable",
      "type": "function"
    },
    {
      "inputs": [
        {
          "internalType": "address",
          "name": "_relay",
          "type": "address"
        }
      ],
      "name": "setRelay",
      "outputs": [],
      "stateMutability": "nonpayable",
      "type": "function"
    },
    {
      "inputs": [
        {
          "internalType": "uint256",
          "name": "_slasherPercentageReward",
          "type": "uint256"
        }
      ],
      "name": "setSlasherPercentageReward",
      "outputs": [],
      "stateMutability": "nonpayable",
      "type": "function"
    },
    {
      "inputs": [
        {
          "internalType": "uint256",
          "name": "_startingBlockNumber",
          "type": "uint256"
        }
      ],
      "name": "setStartingBlockNumber",
      "outputs": [],
      "stateMutability": "nonpayable",
      "type": "function"
    },
    {
      "inputs": [
        {
          "internalType": "address",
          "name": "_teleBTC",
          "type": "address"
        }
      ],
      "name": "setTeleBTC",
      "outputs": [],
      "stateMutability": "nonpayable",
      "type": "function"
    },
    {
      "inputs": [
        {
          "internalType": "uint256",
          "name": "_thirdPartyId",
          "type": "uint256"
        },
        {
          "internalType": "address",
          "name": "_thirdPartyAddress",
          "type": "address"
        }
      ],
      "name": "setThirdPartyAddress",
      "outputs": [],
      "stateMutability": "nonpayable",
      "type": "function"
    },
    {
      "inputs": [
        {
          "internalType": "uint256",
          "name": "_thirdPartyId",
          "type": "uint256"
        },
        {
          "internalType": "uint256",
          "name": "_thirdPartyFee",
          "type": "uint256"
        }
      ],
      "name": "setThirdPartyFee",
      "outputs": [],
      "stateMutability": "nonpayable",
      "type": "function"
    },
    {
      "inputs": [
        {
          "internalType": "uint256",
          "name": "_transferDeadline",
          "type": "uint256"
        }
      ],
      "name": "setTransferDeadline",
      "outputs": [],
      "stateMutability": "nonpayable",
      "type": "function"
    },
    {
      "inputs": [
        {
          "internalType": "address",
          "name": "_treasury",
          "type": "address"
        }
      ],
      "name": "setTreasury",
      "outputs": [],
      "stateMutability": "nonpayable",
      "type": "function"
    },
    {
      "inputs": [
        {
          "internalType": "address",
          "name": "_wrappedNativeToken",
          "type": "address"
        }
      ],
      "name": "setWrappedNativeToken",
      "outputs": [],
      "stateMutability": "nonpayable",
      "type": "function"
    },
    {
      "inputs": [],
      "name": "slasherPercentageReward",
      "outputs": [
        {
          "internalType": "uint256",
          "name": "",
          "type": "uint256"
        }
      ],
      "stateMutability": "view",
      "type": "function"
    },
    {
      "inputs": [],
      "name": "startingBlockNumber",
      "outputs": [
        {
          "internalType": "uint256",
          "name": "",
          "type": "uint256"
        }
      ],
      "stateMutability": "view",
      "type": "function"
    },
    {
      "inputs": [
        {
          "internalType": "address",
          "name": "_exchangeConnector",
          "type": "address"
        },
        {
          "internalType": "uint256[]",
          "name": "_amounts",
          "type": "uint256[]"
        },
        {
          "internalType": "bool",
          "name": "_isFixedToken",
          "type": "bool"
        },
        {
          "internalType": "address[]",
          "name": "_path",
          "type": "address[]"
        },
        {
          "internalType": "uint256",
          "name": "_deadline",
          "type": "uint256"
        },
        {
          "internalType": "bytes",
          "name": "_userScript",
          "type": "bytes"
        },
        {
          "internalType": "enum ScriptTypes",
          "name": "_scriptType",
          "type": "uint8"
        },
        {
          "internalType": "bytes",
          "name": "_lockerLockingScript",
          "type": "bytes"
        },
        {
          "internalType": "uint256",
          "name": "thirdParty",
          "type": "uint256"
        }
      ],
      "name": "swapAndUnwrap",
      "outputs": [
        {
          "internalType": "uint256",
          "name": "",
          "type": "uint256"
        }
      ],
      "stateMutability": "payable",
      "type": "function"
    },
    {
      "inputs": [],
      "name": "teleBTC",
      "outputs": [
        {
          "internalType": "address",
          "name": "",
          "type": "address"
        }
      ],
      "stateMutability": "view",
      "type": "function"
    },
    {
      "inputs": [
        {
          "internalType": "uint256",
          "name": "",
          "type": "uint256"
        }
      ],
      "name": "thirdPartyAddress",
      "outputs": [
        {
          "internalType": "address",
          "name": "",
          "type": "address"
        }
      ],
      "stateMutability": "view",
      "type": "function"
    },
    {
      "inputs": [
        {
          "internalType": "uint256",
          "name": "",
          "type": "uint256"
        }
      ],
      "name": "thirdPartyFee",
      "outputs": [
        {
          "internalType": "uint256",
          "name": "",
          "type": "uint256"
        }
      ],
      "stateMutability": "view",
      "type": "function"
    },
    {
      "inputs": [],
      "name": "transferDeadline",
      "outputs": [
        {
          "internalType": "uint256",
          "name": "",
          "type": "uint256"
        }
      ],
      "stateMutability": "view",
      "type": "function"
    },
    {
      "inputs": [
        {
          "internalType": "address",
          "name": "newOwner",
          "type": "address"
        }
      ],
      "name": "transferOwnership",
      "outputs": [],
      "stateMutability": "nonpayable",
      "type": "function"
    },
    {
      "inputs": [],
      "name": "treasury",
      "outputs": [
        {
          "internalType": "address",
          "name": "",
          "type": "address"
        }
      ],
      "stateMutability": "view",
      "type": "function"
    },
    {
      "inputs": [
        {
          "internalType": "uint256",
          "name": "_amount",
          "type": "uint256"
        },
        {
          "internalType": "bytes",
          "name": "_userScript",
          "type": "bytes"
        },
        {
          "internalType": "enum ScriptTypes",
          "name": "_scriptType",
          "type": "uint8"
        },
        {
          "internalType": "bytes",
          "name": "_lockerLockingScript",
          "type": "bytes"
        },
        {
          "internalType": "uint256",
          "name": "thirdParty",
          "type": "uint256"
        }
      ],
      "name": "unwrap",
      "outputs": [
        {
          "internalType": "uint256",
          "name": "",
          "type": "uint256"
        }
      ],
      "stateMutability": "nonpayable",
      "type": "function"
    },
    {
      "inputs": [],
      "name": "wrappedNativeToken",
      "outputs": [
        {
          "internalType": "address",
          "name": "",
          "type": "address"
        }
      ],
      "stateMutability": "view",
      "type": "function"
    },
    {
      "stateMutability": "payable",
      "type": "receive"
    }
  ],
  "transactionHash": "0xb2a0723371d05f27b58b2112d9ebca0ee041c4cb638352c0e3c12b00070e2b7a",
  "args": [],
  "numDeployments": 1,
  "solcInputHash": "be7456c91c001053e4cc92a5885d3ad2",
  "bytecode": "0x608060405234801561001057600080fd5b50615e5080620000216000396000f3fe6080604052600436106101d45760003560e01c80637f0f1817116100fe5780637f0f18171461045d5780637ffe9a921461047d5780638d3d78cd1461049d5780638d5fc1d4146104bd5780638da5cb5b146104dd5780638f9eb78b146104f2578063930a60e814610512578063a9b682711461053f578063b14d353214610575578063b59589d114610595578063b74d0d35146105b5578063bed6a602146105cb578063c780c03f146105e1578063c805f68b146105f4578063cf54ce4714610614578063da058ae314610634578063ea73263714610654578063f0f4426014610667578063f2fde38b14610687578063f47e2240146106a757600080fd5b80630e757850146101e057806317fcb39b146102025780631812adb6146102385780631876dec41461025c5780631e2361681461027c5780631e7107c7146102bc57806333453d15146102dc5780633fea4367146102fc578063419cba7f1461031c57806344dd6aa5146103325780634782bc361461034557806350a058361461036557806359fd0b0c146103855780635c4f5f3e146103b257806361d027b3146103d257806370872aa5146103f2578063715018a61461040857806373532b2a1461041d5780637ed557481461043d57600080fd5b366101db57005b600080fd5b3480156101ec57600080fd5b506102006101fb366004615380565b6106db565b005b34801561020e57600080fd5b5060a654610222906001600160a01b031681565b60405161022f9190615676565b60405180910390f35b34801561024457600080fd5b5061024e60075481565b60405190815260200161022f565b34801561026857600080fd5b50600154610222906001600160a01b031681565b34801561028857600080fd5b506102ac61029736600461503d565b600c6020526000908152604090205460ff1681565b604051901515815260200161022f565b3480156102c857600080fd5b506102006102d736600461503d565b610868565b3480156102e857600080fd5b506102006102f7366004614dfd565b6108d7565b34801561030857600080fd5b5061024e610317366004615422565b610948565b34801561032857600080fd5b5061024e60085481565b61024e610340366004614e35565b610a64565b34801561035157600080fd5b5061020061036036600461503d565b610b0a565b34801561037157600080fd5b50600454610222906001600160a01b031681565b34801561039157600080fd5b5061024e6103a036600461503d565b60a46020526000908152604090205481565b3480156103be57600080fd5b506102006103cd36600461503d565b610ba5565b3480156103de57600080fd5b50600354610222906001600160a01b031681565b3480156103fe57600080fd5b5061024e60055481565b34801561041457600080fd5b50610200610d3c565b34801561042957600080fd5b50610200610438366004615192565b610d46565b34801561044957600080fd5b5061020061045836600461503d565b61136c565b34801561046957600080fd5b50610200610478366004614dfd565b611406565b34801561048957600080fd5b506102ac610498366004614f4d565b6114a0565b3480156104a957600080fd5b50600254610222906001600160a01b031681565b3480156104c957600080fd5b506102006104d8366004615351565b6114f8565b3480156104e957600080fd5b5061022261159c565b3480156104fe57600080fd5b5061020061050d3660046154ab565b6115ab565b34801561051e57600080fd5b5061024e61052d366004614dfd565b600b6020526000908152604090205481565b34801561054b57600080fd5b5061022261055a36600461503d565b60a5602052600090815260409020546001600160a01b031681565b34801561058157600080fd5b50610200610590366004614dfd565b611614565b3480156105a157600080fd5b50600054610222906001600160a01b031681565b3480156105c157600080fd5b5061024e60095481565b3480156105d757600080fd5b5061024e60065481565b6102006105ef3660046151f7565b6116ae565b34801561060057600080fd5b5061020061060f366004614dfd565b61182c565b34801561062057600080fd5b5061020061062f36600461503d565b6118c6565b34801561064057600080fd5b5061020061064f366004614dfd565b611962565b6102ac61066236600461506d565b6119d3565b34801561067357600080fd5b50610200610682366004614dfd565b611d44565b34801561069357600080fd5b506102006106a2366004614dfd565b611dde565b3480156106b357600080fd5b506106c76106c2366004614f4d565b611e57565b60405161022f989796959493929190615a93565b600d54610100900460ff16158080156106fb5750600d54600160ff909116105b806107155750303b1580156107155750600d5460ff166001145b61077d5760405162461bcd60e51b815260206004820152602e60248201527f496e697469616c697a61626c653a20636f6e747261637420697320616c72656160448201526d191e481a5b9a5d1a585b1a5e995960921b60648201526084015b60405180910390fd5b600d805460ff1916600117905580156107a057600d805461ff0019166101001790555b6107a8611f54565b6107b0611f83565b6107b98b610868565b6107c28a61182c565b6107cb89611614565b6107d488611d44565b6107dd87611406565b6107e686610ba5565b6107ef8561136c565b6107f884610b0a565b6108036102f761159c565b61080c836118c6565b61081582611962565b801561085b57600d805461ff0019169055604051600181527f7f26b83ff96e1f2b6a682f133852f6798a09c465da95921460cefb38474024989060200160405180910390a15b5050505050505050505050565b610870611fb2565b60055481116108d25760405162461bcd60e51b815260206004820152602860248201527f4275726e526f757465724c6f6769633a206c6f77207374617274696e67426c6f60448201526731b5a73ab6b132b960c11b6064820152608401610774565b600555565b6108df611fb2565b6004546040517f68bf625687194a1bbeeccbaa327c37aa1f9940a3c6c9e8fe84f06f1dc14fd1769161091e916001600160a01b0390911690849061568a565b60405180910390a1600480546001600160a01b0319166001600160a01b0392909216919091179055565b6000610952612011565b6002546001600160a01b03166323b872dd33308a6040518463ffffffff1660e01b8152600401610984939291906156a4565b602060405180830381600087803b15801561099e57600080fd5b505af11580156109b2573d6000803e3d6000fd5b505050506040513d601f19601f820116820180604052508101906109d69190614f78565b610a2e5760405162461bcd60e51b8152602060048201526024808201527f4275726e526f757465724c6f6769633a207472616e7366657246726f6d2066616044820152631a5b195960e21b6064820152608401610774565b600254600090610a4d906001600160a01b031689808a8a8a8a8a61206b565b915050610a5a6001607255565b9695505050505050565b6000610a6e612011565b6000610a7f8e8e8e8e8e8e8e6124da565b9050610aed8d8d6000818110610aa557634e487b7160e01b600052603260045260246000fd5b905060200201358b8b6000818110610acd57634e487b7160e01b600052603260045260246000fd5b9050602002016020810190610ae29190614dfd565b838a8a8a8a8a612a1c565b915050610afa6001607255565b9c9b505050505050505050505050565b610b12611fb2565b806127101015610b645760405162461bcd60e51b815260206004820152601f60248201527f4275726e526f757465724c6f6769633a20696e76616c696420726577617264006044820152606401610774565b60085460408051918252602082018390527faa50b3683e42a13535a5b9c2c32780cccf956fb546b523a3542ac4ad8b544f67910160405180910390a1600855565b600080546040516353bcd1c960e11b815273Dd833309e9E9EAd3a7c4520D53e02e685C3751eB9163a779a39291610be8916001600160a01b031690600401615676565b60206040518083038186803b158015610c0057600080fd5b505af4158015610c14573d6000803e3d6000fd5b505050506040513d601f19601f82011682018060405250810190610c389190615055565b9050610c4261159c565b6001600160a01b0316336001600160a01b03161480610c62575080600654105b610cab5760405162461bcd60e51b815260206004820152601a602482015279109d5c9b949bdd5d195c931bd9da58ce881b9bc81c195c9b5a5d60321b6044820152606401610774565b808211610cfa5760405162461bcd60e51b815260206004820152601d60248201527f4275726e526f757465724c6f6769633a206c6f7720646561646c696e650000006044820152606401610774565b60065460408051918252602082018490527f92c10a242ca42973030420e2ee32b3ba7818cc643f896958f620c606cf300416910160405180910390a150600655565b610d44611fb2565b565b610d4e612011565b610d56611fb2565b60015460405163aff2faa360e01b81526001600160a01b039091169063aff2faa390610d889086908690600401615821565b60206040518083038186803b158015610da057600080fd5b505afa158015610db4573d6000803e3d6000fd5b505050506040513d601f19601f82011682018060405250810190610dd89190614f78565b610df45760405162461bcd60e51b8152600401610774906159dc565b60015460405163626885b560e11b81526000916001600160a01b03169063c4d10b6a90610e279087908790600401615821565b60206040518083038186803b158015610e3f57600080fd5b505afa158015610e53573d6000803e3d6000fd5b505050506040513d601f19601f82011682018060405250810190610e779190614e19565b905060005b825181101561135b5773Dd833309e9E9EAd3a7c4520D53e02e685C3751eB6315755789600a84868581518110610ec257634e487b7160e01b600052603260045260246000fd5b60209081029190910101516006546000546040516310889dc360e01b815273Dd833309e9E9EAd3a7c4520D53e02e685C3751eB916310889dc391610f12916001600160a01b031690600401615676565b60206040518083038186803b158015610f2a57600080fd5b505af4158015610f3e573d6000803e3d6000fd5b505050506040513d601f19601f82011682018060405250810190610f629190615055565b6005546040516001600160e01b031960e089901b16815260048101969096526001600160a01b03909416602486015260448501929092526064840152608483015260a482015260c40160006040518083038186803b158015610fc357600080fd5b505af4158015610fd7573d6000803e3d6000fd5b50506001546008546001600160a01b038681166000908152600a602052604090208851919093169450631697565b93508692612710929189908890811061102e57634e487b7160e01b600052603260045260246000fd5b60200260200101518154811061105457634e487b7160e01b600052603260045260246000fd5b9060005260206000209060070201600001546110709190615cc9565b61107a9190615ca9565b336001600160a01b0387166000908152600a6020526040902088518990889081106110b557634e487b7160e01b600052603260045260246000fd5b6020026020010151815481106110db57634e487b7160e01b600052603260045260246000fd5b906000526020600020906007020160000154600a6000896001600160a01b03166001600160a01b0316815260200190815260200160002089888151811061113257634e487b7160e01b600052603260045260246000fd5b60200260200101518154811061115857634e487b7160e01b600052603260045260246000fd5b600091825260209091206007909102016002015460405160e087901b6001600160e01b03191681526001600160a01b03958616600482015260248101949094529184166044840152606483015291909116608482015260a401602060405180830381600087803b1580156111cb57600080fd5b505af11580156111df573d6000803e3d6000fd5b505050506040513d601f19601f820116820180604052508101906112039190614f78565b506001600160a01b0382166000818152600a60205260409020845185908490811061123e57634e487b7160e01b600052603260045260246000fd5b60200260200101518154811061126457634e487b7160e01b600052603260045260246000fd5b906000526020600020906007020160020160009054906101000a90046001600160a01b03166001600160a01b03167f58c23b4ae0617be275628875bcfd65759a441263099a256eeb27899fb5dd846d8787600a6000886001600160a01b03166001600160a01b031681526020019081526020016000208887815181106112fa57634e487b7160e01b600052603260045260246000fd5b60200260200101518154811061132057634e487b7160e01b600052603260045260246000fd5b90600052602060002090600702016006015460405161134193929190615835565b60405180910390a38061135381615db0565b915050610e7c565b50506113676001607255565b505050565b611374611fb2565b8061271010156113c55760405162461bcd60e51b815260206004820152601c60248201527b4275726e526f757465724c6f6769633a20696e76616c69642066656560201b6044820152606401610774565b60075460408051918252602082018390527f7d205f60891f60851c61cd244ba387d72b6589e7c0ac41b9d909ab0ce2c2a53b910160405180910390a1600755565b61140e611fb2565b806001600160a01b0381166114365760405163d92e233d60e01b815260040160405180910390fd5b6002546040517f36a4c08a38b736dcecb6c328dba61238529620e83ccb23db2cc43cd34ec2609691611475916001600160a01b0390911690859061568a565b60405180910390a150600280546001600160a01b0319166001600160a01b0392909216919091179055565b6001600160a01b0382166000908152600a602052604081208054839081106114d857634e487b7160e01b600052603260045260246000fd5b600091825260209091206005600790920201015460ff1690505b92915050565b611500611fb2565b600082815260a56020526040908190205490517f1e73962bcff5b98a9ac70c9b0f71fbb31dc0f5a09348c6d3ceab164169a9e729916115669185916001600160a01b03169085909283526001600160a01b03918216602084015216604082015260600190565b60405180910390a1600091825260a5602052604090912080546001600160a01b0319166001600160a01b03909216919091179055565b6040546001600160a01b031690565b6115b3611fb2565b600082815260a46020908152604091829020548251858152918201529081018290527f188adabf806a6b6d814acc1dbd9f09e5a251c8c065d6285749a5824e4579b6459060600160405180910390a1600091825260a4602052604090912055565b61161c611fb2565b806001600160a01b0381166116445760405163d92e233d60e01b815260040160405180910390fd5b6001546040517ffa021c2ec0f46429a53e7f88b88065e40001f50c9d38b2e8b713beaf9828d4c391611683916001600160a01b0390911690859061568a565b60405180910390a150600180546001600160a01b0319166001600160a01b0392909216919091179055565b6116b6612011565b6116be611fb2565b600061171c896000815181106116e457634e487b7160e01b600052603260045260246000fd5b602002602001015189898760008151811061170f57634e487b7160e01b600052603260045260246000fd5b6020026020010151612a2f565b905073Dd833309e9E9EAd3a7c4520D53e02e685C3751eB63441d3a21600160009054906101000a90046001600160a01b03168c8c60405180606001604052808e81526020018c81526020018b815250600c60065460008054906101000a90046001600160a01b03166005548a8e8e8e6040518d63ffffffff1660e01b81526004016117b29c9b9a99989796959493929190615707565b60006040518083038186803b1580156117ca57600080fd5b505af41580156117de573d6000803e3d6000fd5b50505050611816878b838560028151811061180957634e487b7160e01b600052603260045260246000fd5b6020026020010151612b95565b506118216001607255565b505050505050505050565b611834611fb2565b806001600160a01b03811661185c5760405163d92e233d60e01b815260040160405180910390fd5b6000546040517f4c28a3f61a715259c4dc930c23e7423b8fa52e13232c061a6e488729c66184f49161189b916001600160a01b0390911690859061568a565b60405180910390a150600080546001600160a01b0319166001600160a01b0392909216919091179055565b60045433906001600160a01b031681146119205760405162461bcd60e51b815260206004820152601b60248201527a4275726e526f757465724c6f6769633a206e6f74206f7261636c6560281b6044820152606401610774565b60095460408051918252602082018490527f890eb41e398fd9cf425695b34269b781ad56c257422859094a28db47fb78f1b3910160405180910390a150600955565b61196a611fb2565b60a6546040517f4da8064030e901e42f6de0ab04f4c322d7936d0120503addfe8a51f127090689916119a9916001600160a01b0390911690849061568a565b60405180910390a160a680546001600160a01b0319166001600160a01b0392909216919091179055565b60006119dd612011565b60015460405163626885b560e11b81526000916001600160a01b03169063c4d10b6a90611a0e908890600401615859565b60206040518083038186803b158015611a2657600080fd5b505afa158015611a3a573d6000803e3d6000fd5b505050506040513d601f19601f82011682018060405250810190611a5e9190614e19565b9050336001600160a01b0382161480611a8a57506004546001600160a01b0316336001600160a01b0316145b611aa65760405162461bcd60e51b8152600401610774906159dc565b73Dd833309e9E9EAd3a7c4520D53e02e685C3751eB6344922b64896005548c600160009054906101000a90046001600160a01b03168a8a518a516040518863ffffffff1660e01b8152600401611b029796959493929190615b75565b60006040518083038186803b158015611b1a57600080fd5b505af4158015611b2e573d6000803e3d6000fd5b505050506000611b408d8d8d8d612a2f565b600054604051637ebc232760e01b815291925073Dd833309e9E9EAd3a7c4520D53e02e685C3751eB91637ebc232791611b8f916001600160a01b039091169085908e908e908e906004016156c8565b60206040518083038186803b158015611ba757600080fd5b505af4158015611bbb573d6000803e3d6000fd5b505050506040513d601f19601f82011682018060405250810190611bdf9190614f78565b611c2b5760405162461bcd60e51b815260206004820152601e60248201527f4275726e526f757465724c6f6769633a206e6f742066696e616c697a656400006044820152606401610774565b6000611c3b828b858f8a8a612d61565b905073Dd833309e9E9EAd3a7c4520D53e02e685C3751eB63191e28dc600c838f8b876040518663ffffffff1660e01b8152600401611c7d959493929190615963565b60206040518083038186803b158015611c9557600080fd5b505af4158015611ca9573d6000803e3d6000fd5b505050506040513d601f19601f82011682018060405250810190611ccd9190614f78565b611d255760405162461bcd60e51b815260206004820152602360248201527f4275726e526f757465724c6f6769633a20696e76616c6964206275726e20707260448201526237b7b360e91b6064820152608401610774565b60019350505050611d366001607255565b9a9950505050505050505050565b611d4c611fb2565b806001600160a01b038116611d745760405163d92e233d60e01b815260040160405180910390fd5b6003546040517f567657fa3f286518b318f4a29870674f433f622fdfc819691acb13105b22822591611db3916001600160a01b0390911690859061568a565b60405180910390a150600380546001600160a01b0319166001600160a01b0392909216919091179055565b611de6611fb2565b6001600160a01b038116611e4b5760405162461bcd60e51b815260206004820152602660248201527f4f776e61626c653a206e6577206f776e657220697320746865207a65726f206160448201526564647265737360d01b6064820152608401610774565b611e5481613256565b50565b600a6020528160005260406000208181548110611e7357600080fd5b600091825260209091206007909102018054600182015460028301546003840180549396509194506001600160a01b03169291611eaf90615d7b565b80601f0160208091040260200160405190810160405280929190818152602001828054611edb90615d7b565b8015611f285780601f10611efd57610100808354040283529160200191611f28565b820191906000526020600020905b815481529060010190602001808311611f0b57829003601f168201915b505050600484015460058501546006909501549394909360ff8083169450610100909204909116915088565b600d54610100900460ff16611f7b5760405162461bcd60e51b815260040161077490615a11565b610d446132a6565b600d54610100900460ff16611faa5760405162461bcd60e51b815260040161077490615a11565b610d446132d6565b33611fbb61159c565b6001600160a01b031614610d445760405162461bcd60e51b815260206004820181905260248201527f4f776e61626c653a2063616c6c6572206973206e6f7420746865206f776e65726044820152606401610774565b600260725414156120645760405162461bcd60e51b815260206004820152601f60248201527f5265656e7472616e637947756172643a207265656e7472616e742063616c6c006044820152606401610774565b6002607255565b600154604051630f87661560e41b815260009173Dd833309e9E9EAd3a7c4520D53e02e685C3751eB9163f8766150916120ba918a918a916001600160a01b03909116908a908a9060040161586c565b60006040518083038186803b1580156120d257600080fd5b505af41580156120e6573d6000803e3d6000fd5b5050505060008060006120f98a866132fd565b60025460015460405163095ea7b360e01b81529497509295509093506001600160a01b039081169263095ea7b3926121379216908790600401615808565b602060405180830381600087803b15801561215157600080fd5b505af1158015612165573d6000803e3d6000fd5b505050506040513d601f19601f820116820180604052508101906121899190614f78565b506001546040516338463cff60e01b81526001600160a01b03909116906338463cff906121be908a908a908890600401615835565b602060405180830381600087803b1580156121d857600080fd5b505af11580156121ec573d6000803e3d6000fd5b505050506040513d601f19601f820116820180604052508101906122109190615055565b60015460405163626885b560e11b81529195506000916001600160a01b039091169063c4d10b6a90612248908b908b90600401615821565b60206040518083038186803b15801561226057600080fd5b505afa158015612274573d6000803e3d6000fd5b505050506040513d601f19601f820116820180604052508101906122989190614e19565b6000546040516310889dc360e01b815291925061233f918d9188918e918e9173Dd833309e9E9EAd3a7c4520D53e02e685C3751eB916310889dc3916122e9916001600160a01b031690600401615676565b60206040518083038186803b15801561230157600080fd5b505af4158015612315573d6000803e3d6000fd5b505050506040513d601f19601f820116820180604052508101906123399190615055565b8661369d565b604080516060810182528d815260208082018e905281830188905282516080810190935260095483528f9260009181016123798a8a615d11565b8152602080820189905260409182018890526001600160a01b0387166000908152600a909152208054919250906123b290600190615d11565b815481106123d057634e487b7160e01b600052603260045260246000fd5b9060005260206000209060070201600401546123e93390565b6001600160a01b03167f6b5c22e69db87534a562352580358411dc7b2d98d24684765342f2ebf2dd8c318f8f88600a60008b6001600160a01b03166001600160a01b031681526020019081526020016000206001600a60008d6001600160a01b03166001600160a01b03168152602001908152602001600020805490506124709190615d11565b8154811061248e57634e487b7160e01b600052603260045260246000fd5b9060005260206000209060070201600601548f8a8a8a6040516124b89897969594939291906158ba565b60405180910390a35050505050505098975050505050505050565b6001607255565b6002546000906001600160a01b031684846124f6600182615d11565b81811061251357634e487b7160e01b600052603260045260246000fd5b90506020020160208101906125289190614dfd565b6001600160a01b03161461254e5760405162461bcd60e51b815260040161077490615a5c565b6002861461259e5760405162461bcd60e51b815260206004820152601e60248201527f4275726e526f757465724c6f6769633a2077726f6e6720616d6f756e747300006044820152606401610774565b34156126eb57868660008181106125c557634e487b7160e01b600052603260045260246000fd5b90506020020135341461261a5760405162461bcd60e51b815260206004820152601f60248201527f4275726e526f757465724c6f6769633a20696e76616c696420616d6f756e74006044820152606401610774565b8383600081811061263b57634e487b7160e01b600052603260045260246000fd5b90506020020160208101906126509190614dfd565b60a6546001600160a01b0390811691161461267d5760405162461bcd60e51b815260040161077490615a5c565b60a660009054906101000a90046001600160a01b03166001600160a01b031663d0e30db0346040518263ffffffff1660e01b81526004016000604051808303818588803b1580156126cd57600080fd5b505af11580156126e1573d6000803e3d6000fd5b50505050506127cb565b8383600081811061270c57634e487b7160e01b600052603260045260246000fd5b90506020020160208101906127219190614dfd565b6001600160a01b03166323b872dd33308a8a600081811061275257634e487b7160e01b600052603260045260246000fd5b905060200201356040518463ffffffff1660e01b8152600401612777939291906156a4565b602060405180830381600087803b15801561279157600080fd5b505af11580156127a5573d6000803e3d6000fd5b505050506040513d601f19601f820116820180604052508101906127c99190614f78565b505b838360008181106127ec57634e487b7160e01b600052603260045260246000fd5b90506020020160208101906128019190614dfd565b6001600160a01b031663095ea7b3898989600081811061283157634e487b7160e01b600052603260045260246000fd5b905060200201356040518363ffffffff1660e01b8152600401612855929190615808565b602060405180830381600087803b15801561286f57600080fd5b505af1158015612883573d6000803e3d6000fd5b505050506040513d601f19601f820116820180604052508101906128a79190614f78565b50600080896001600160a01b031663b0bbcd888a8a60008181106128db57634e487b7160e01b600052603260045260246000fd5b905060200201358b8b600181811061290357634e487b7160e01b600052603260045260246000fd5b905060200201358989308a8e6040518863ffffffff1660e01b81526004016129319796959493929190615af6565b600060405180830381600087803b15801561294b57600080fd5b505af115801561295f573d6000803e3d6000fd5b505050506040513d6000823e601f3d908101601f191682016040526129879190810190614f94565b91509150816129d85760405162461bcd60e51b815260206004820181905260248201527f4275726e526f757465724c6f6769633a2065786368616e6765206661696c65646044820152606401610774565b80600182516129e79190615d11565b81518110612a0557634e487b7160e01b600052603260045260246000fd5b602002602001015192505050979650505050505050565b600080611d36898b8a8a8a8a8a8a61206b565b600080612a44612a3f868361386d565b613891565b9050612a5562ffffff1982166139e7565b15612a9f5760405162461bcd60e51b815260206004820152601a602482015279109a5d18dbda5b92195b1c195c8e881d9a5b881a5cc81b9d5b1b60321b6044820152606401610774565b6000600287878787604051602001612aba9493929190615607565b60408051601f1981840301815290829052612ad49161565a565b602060405180830381855afa158015612af1573d6000803e3d6000fd5b5050506040513d601f19601f82011682018060405250810190612b149190615055565b90506000600282604051602001612b2d91815260200190565b60408051601f1981840301815290829052612b479161565a565b602060405180830381855afa158015612b64573d6000803e3d6000fd5b5050506040513d601f19601f82011682018060405250810190612b879190615055565b93505050505b949350505050565b6000612ba0856139f3565b60015460405163626885b560e11b81526001600160401b039290921692506000916001600160a01b039091169063c4d10b6a90612be1908890600401615859565b60206040518083038186803b158015612bf957600080fd5b505afa158015612c0d573d6000803e3d6000fd5b505050506040513d601f19601f82011682018060405250810190612c319190614e19565b6001546008549192506001600160a01b03169063b734de2690839061271090612c5a9087615cc9565b612c649190615ca9565b3360405160e085901b6001600160e01b03191681526001600160a01b0393841660048201526024810192909252909116604482015260648101859052608401602060405180830381600087803b158015612cbd57600080fd5b505af1158015612cd1573d6000803e3d6000fd5b505050506040513d601f19601f82011682018060405250810190612cf59190614f78565b507f7ff138134e34ccab071315c38e38eec079f54726b890304ab46e2c5ab6f722bb8186858761271060085488612d2c9190615cc9565b612d369190615ca9565b612d409088615c1f565b604051612d519594939291906157c7565b60405180910390a1505050505050565b60008080805b85518110156132495780612da457848181518110612d9557634e487b7160e01b600052603260045260246000fd5b60200260200101519150612e55565b81858281518110612dc557634e487b7160e01b600052603260045260246000fd5b602002602001015111612e2a5760405162461bcd60e51b815260206004820152602760248201527f4275726e526f757465724c6f6769633a20756e2d736f7274656420766f757420604482015266696e646578657360c81b6064820152608401610774565b848181518110612e4a57634e487b7160e01b600052603260045260246000fd5b602002602001015191505b6000868281518110612e7757634e487b7160e01b600052603260045260246000fd5b60200260200101519050600a60008a6001600160a01b03166001600160a01b031681526020019081526020016000208181548110612ec557634e487b7160e01b600052603260045260246000fd5b600091825260209091206005600790920201015460ff16158015612f3457506001600160a01b0389166000908152600a6020526040902080548b919083908110612f1f57634e487b7160e01b600052603260045260246000fd5b90600052602060002090600702016004015410155b15613236576130a188878481518110612f5d57634e487b7160e01b600052603260045260246000fd5b6020026020010151600a60008d6001600160a01b03166001600160a01b031681526020019081526020016000208481548110612fa957634e487b7160e01b600052603260045260246000fd5b90600052602060002090600702016003018054612fc590615d7b565b80601f0160208091040260200160405190810160405280929190818152602001828054612ff190615d7b565b801561303e5780601f106130135761010080835404028352916020019161303e565b820191906000526020600020905b81548152906001019060200180831161302157829003601f168201915b5050506001600160a01b038f166000908152600a602052604090208054909250879150811061307d57634e487b7160e01b600052603260045260246000fd5b906000526020600020906007020160050160019054906101000a900460ff16613a96565b6001600160401b0316935083600a60008b6001600160a01b03166001600160a01b0316815260200190815260200160002082815481106130f157634e487b7160e01b600052603260045260246000fd5b9060005260206000209060070201600101541415613236576001600160a01b0389166000908152600a602052604090208054600191908390811061314557634e487b7160e01b600052603260045260246000fd5b60009182526020909120600790910201600501805460ff1916911515919091179055613172856001615c1f565b6001600160a01b038a166000818152600a60205260409020805492975090917f7b8cb33b1d4dc1e5d05c58e9945c383eb161ac22029c5b963989d08c3d0ef4da9190849081106131d257634e487b7160e01b600052603260045260246000fd5b9060005260206000209060070201600601548d89868151811061320557634e487b7160e01b600052603260045260246000fd5b602002602001015160405161322d939291909283526020830191909152604082015260600190565b60405180910390a25b508061324181615db0565b915050612d67565b5050509695505050505050565b604080546001600160a01b038381166001600160a01b031983168117845592519116919082907f8be0079c531659141344cd1fd0a4f28419497f9722a3daafe3b4186f6b6457e090600090a35050565b600d54610100900460ff166132cd5760405162461bcd60e51b815260040161077490615a11565b610d4433613256565b600d54610100900460ff166124d35760405162461bcd60e51b815260040161077490615a11565b6000806000612710600754866133139190615cc9565b61331d9190615ca9565b600085815260a460205260409020549092506127109061333d9087615cc9565b6133479190615ca9565b600954909150816133588488615d11565b6133629190615d11565b61336c9190615d11565b92506009548310156133be5760405162461bcd60e51b815260206004820152601b60248201527a109d5c9b949bdd5d195c931bd9da58ce881b1bddc8185b5bdd5b9d602a1b6044820152606401610774565b81156134a45760025460035460405163a9059cbb60e01b81526001600160a01b039283169263a9059cbb926133fa929116908690600401615808565b602060405180830381600087803b15801561341457600080fd5b505af1158015613428573d6000803e3d6000fd5b505050506040513d601f19601f8201168201806040525081019061344c9190614f78565b6134a45760405162461bcd60e51b8152602060048201526024808201527f4275726e526f757465724c6f6769633a20666565207472616e736665722066616044820152631a5b195960e21b6064820152608401610774565b80156135a457600254600085815260a560205260409081902054905163a9059cbb60e01b81526001600160a01b039283169263a9059cbb926134ed929116908590600401615808565b602060405180830381600087803b15801561350757600080fd5b505af115801561351b573d6000803e3d6000fd5b505050506040513d601f19601f8201168201806040525081019061353f9190614f78565b6135a45760405162461bcd60e51b815260206004820152603060248201527f4275726e526f757465724c6f6769633a2074686972642070617274792066656560448201526f081d1c985b9cd9995c8819985a5b195960821b6064820152608401610774565b600954156136965760025460015460095460405163a9059cbb60e01b81526001600160a01b039384169363a9059cbb936135e393911691600401615808565b602060405180830381600087803b1580156135fd57600080fd5b505af1158015613611573d6000803e3d6000fd5b505050506040513d601f19601f820116820180604052508101906136359190614f78565b6136965760405162461bcd60e51b815260206004820152602c60248201527f4275726e526f757465724c6f6769633a206e6574776f726b206665652074726160448201526b1b9cd9995c8819985a5b195960a21b6064820152608401610774565b9250925092565b604080516101008101825260006080820181905260a0820181905260c0820181815260e0830191909152888252602082018890523392820192909252606081018690529084600581111561370157634e487b7160e01b600052602160045260246000fd5b9081600581111561372257634e487b7160e01b600052602160045260246000fd5b9052506006546137329084615c1f565b6080820152600060a082018190526001600160a01b038316808252600b6020818152604084205460e0860181905292909352909152613772906001615c1f565b6001600160a01b038381166000908152600b6020908152604080832094909455600a81528382208054600180820183559184529282902086516007909402019283558582015190830155928401516002820180546001600160a01b03191691909316179091556060830151805184936137f2926003850192910190614b6b565b506080820151600482015560a08201516005808301805492151560ff1984168117825560c086015193919261ff001990911661ffff19909216919091179061010090849081111561385357634e487b7160e01b600052602160045260246000fd5b021790555060e08201518160060155505050505050505050565b81516000906020840161388864ffffffffff85168284613d0a565b95945050505050565b600081816138a7815b62ffffff19841690613d51565b506138b762ffffff198516613e2b565b6001600160601b03166138d3576138cc613e3a565b92506139e0565b60006138e0856000613e42565b905060006138f362ffffff198716613e2b565b6001600160601b031690506001600160401b03821661391d57613914613e3a565b945050506139e0565b600061392883613f8b565b60ff16905060005b836001600160401b03168110156139a65782821061395b57613950613e3a565b9650505050506139e0565b600061397b61396a8486615d11565b60055b62ffffff198c169190613fe9565b905061398681614013565b6139909084615c1f565b925050808061399e90615db0565b915050613930565b508181146139c0576139b6613e3a565b95505050506139e0565b6139da60065b60d81b6301000000600160d81b0389161790565b95505050505b5050919050565b62ffffff199081161490565b600080613a08613a03848361386d565b614067565b9050613a1962ffffff1982166139e7565b15613a365760405162461bcd60e51b8152600401610774906159a7565b600080613a44836000613e42565b6001600160401b0316905060005b81811015613a8d57613a648482614168565b9250613a6f8361427f565b613a799086615c37565b945080613a8581615db0565b915050613a52565b50505050919050565b600080613aa6613a03878361386d565b9050613ab762ffffff1982166139e7565b15613ad45760405162461bcd60e51b8152600401610774906159a7565b6000613ae08287614168565b90506000613aed826142a4565b90506005856005811115613b1157634e487b7160e01b600052602160045260246000fd5b1415613b7657613b2a62ffffff198216600260206142f5565b604051602001613b3c91815260200190565b60405160208183030381529060405280519060200120868051906020012014613b66576000613b6f565b613b6f8261427f565b9350613cff565b6000856005811115613b9857634e487b7160e01b600052602160045260246000fd5b1415613bb157613b2a62ffffff198216600160206142f5565b6001856005811115613bd357634e487b7160e01b600052602160045260246000fd5b1415613c0d57613bea62ffffff1982166003614423565b604051602001613b3c919060609190911b6001600160601b031916815260140190565b6002856005811115613c2f57634e487b7160e01b600052602160045260246000fd5b1415613c4657613bea62ffffff1982166002614423565b6003856005811115613c6857634e487b7160e01b600052602160045260246000fd5b1415613c7f57613bea62ffffff1982166002614423565b6004856005811115613ca157634e487b7160e01b600052602160045260246000fd5b1415613cff57613cba62ffffff198216600260206142f5565b604051602001613ccc91815260200190565b60405160208183030381529060405280519060200120868051906020012014613cf6576000612b87565b612b878261427f565b505050949350505050565b600080613d178385615c1f565b9050604051811115613d27575060005b80613d395762ffffff19915050613d4a565b5050606083811b8317901b811760181b5b9392505050565b6000613d5d8383614431565b613e24576000613d7c613d708560d81c90565b64ffffffffff16614454565b9150506000613d918464ffffffffff16614454565b6040517f5479706520617373657274696f6e206661696c65642e20476f7420307800000060208201526001600160b01b031960b086811b8216603d8401526c05c408af0e0cac6e8cac84060f609b1b604784015283901b16605482015290925060009150605e015b60405160208183030381529060405290508060405162461bcd60e51b81526004016107749190615859565b5090919050565b60181c6001600160601b031690565b62ffffff1990565b600080613e5762ffffff198516846001614500565b905060fc8111613e7257613e6a81614530565b9150506114f2565b8060fd1415613ed857613ea0613e9b613e8c856001615c1f565b62ffffff19871690600261459c565b614530565b9150613eab82613f8b565b60ff16600314613ed357613ed1613ecc62ffffff19861685600360006146df565b614745565b505b613f84565b8060fe1415613f2d57613f01613e9b613ef2856001615c1f565b62ffffff19871690600461459c565b9150613f0c82613f8b565b60ff16600514613ed357613ed1613ecc62ffffff19861685600560006146df565b8060ff1415613f8457613f56613e9b613f47856001615c1f565b62ffffff19871690600861459c565b9150613f6182613f8b565b60ff16600914613f8457613f82613ecc62ffffff19861685600960006146df565b505b5092915050565b600060fc826001600160401b031611613fa657506001919050565b61ffff826001600160401b031611613fc057506003919050565b63ffffffff826001600160401b031611613fdc57506005919050565b506009919050565b919050565b6000612b8d8484613ff987613e2b565b6001600160601b031661400c9190615d11565b85856146df565b60008160056140218161389a565b50600061402f856024613e42565b9050806001600160401b031661404482613f8b565b60ff166140519190615c1f565b61405c906024615c1f565b613888906004615c1f565b600081816140748161389a565b5061408462ffffff198516613e2b565b6001600160601b0316614099576138cc613e3a565b60006140a6856000613e42565b905060006140b962ffffff198716613e2b565b6001600160601b031690506001600160401b0382166140da57613914613e3a565b60006140e583613f8b565b60ff16905060005b836001600160401b031681101561414e5782821061410d57613950613e3a565b600061412361411c8486615d11565b600e61396d565b905061412e816147cd565b6141389084615c1f565b925050808061414690615db0565b9150506140ed565b5081811461415e576139b6613e3a565b6139da600f6139c6565b600082600f6141768161389a565b506000614184866000613e42565b6001600160401b0316905060006141a062ffffff198816613e2b565b6001600160601b031690508186106141ee5760405162461bcd60e51b81526020600482015260116024820152702b37baba103932b0b21037bb32b9393ab760791b6044820152606401610774565b60006141f983613f8b565b60ff1690506000805b8881101561424f576142266142178486615d11565b62ffffff198c1690600e613fe9565b9150614231826147cd565b61423b9084615c1f565b9250614248600182615c1f565b9050614202565b5061425d61411c8385615d11565b9050600061426a826147cd565b9050611d3662ffffff198b168483600d6146df565b600081600d61428d8161389a565b50612b8d613e9b62ffffff1986166000600861459c565b600081600d6142b28161389a565b5060006142c0856008613e42565b90506138886142ce82613f8b565b6142d9906008615c62565b62ffffff1987169060ff166001600160401b03841660076146df565b600060ff821661430757506000613d4a565b61431084613e2b565b6001600160601b031661432660ff841685615c1f565b11156143765761435d61433885614816565b6001600160601b031661434a86613e2b565b6001600160601b0316858560ff16614825565b60405162461bcd60e51b81526004016107749190615859565b60208260ff1611156143ed5760405162461bcd60e51b815260206004820152603a60248201527f54797065644d656d566965772f696e646578202d20417474656d7074656420746044820152796f20696e646578206d6f7265207468616e20333220627974657360301b6064820152608401610774565b6008820260006143fc86614816565b6001600160601b031690506000600160ff1b60001984011d91909501511695945050505050565b6000613d4a83836014614500565b60008164ffffffffff166144458460d81c90565b64ffffffffff16149392505050565b600080601f5b600f8160ff1611156144b2576000614473826008615ce8565b60ff1685901c90506144848161494f565b61ffff16841793508160ff1660101461449f57601084901b93505b506144ab600182615d28565b905061445a565b50600f5b60ff8160ff1610156144fa5760ff600882021684901c6144d58161494f565b61ffff16831792508160ff166000146144f057601083901b92505b50600019016144b6565b50915091565b600061450d826020615d28565b614518906008615ce8565b60ff166145268585856142f5565b901c949350505050565b60006001600160401b038211156145985760405162461bcd60e51b815260206004820152602660248201527f53616665436173743a2076616c756520646f65736e27742066697420696e203660448201526534206269747360d01b6064820152608401610774565b5090565b6000612b8d6145ac8585856142f5565b60008190506008817eff00ff00ff00ff00ff00ff00ff00ff00ff00ff00ff00ff00ff00ff00ff00ff16901b600882901c7eff00ff00ff00ff00ff00ff00ff00ff00ff00ff00ff00ff00ff00ff00ff00ff161790506010817dffff0000ffff0000ffff0000ffff0000ffff0000ffff0000ffff0000ffff16901b601082901c7dffff0000ffff0000ffff0000ffff0000ffff0000ffff0000ffff0000ffff161790506020817bffffffff00000000ffffffff00000000ffffffff00000000ffffffff16901b602082901c7bffffffff00000000ffffffff00000000ffffffff00000000ffffffff161790506040816001600160401b03600160801b03600160c01b0316901b604082901c6001600160401b03600160801b03600160c01b0316179050608081901b608082901c179050919050565b6000806146eb86614816565b6001600160601b031690506146ff86614981565b8461470a8784615c1f565b6147149190615c1f565b11156147275762ffffff19915050612b8d565b6147318582615c1f565b9050610a5a8364ffffffffff168286613d0a565b6060600061478361477e8261477061476262ffffff198816613e2b565b6001600160601b03166149ae565b62ffffff1987169190614500565b614454565b6040517a09cdedc5adad2dcd2dac2d840ecc2e440d2dce85c408edee84060f602b1b60208201526001600160701b0319607083901b16603b82015290925060009150604d01613df9565b600081600e6147db8161389a565b5060006147e9856008613e42565b9050806001600160401b03166147fe82613f8b565b60ff1661480b9190615c1f565b613888906008615c1f565b60781c6001600160601b031690565b6060600061483286614454565b915050600061484086614454565b915050600061484e86614454565b915050600061485c86614454565b604080517f54797065644d656d566965772f696e646578202d204f76657272616e20746865602082015274040ecd2caee5c40a6d8d2c6ca40d2e640c2e84060f605b1b818301526001600160d01b031960d098891b811660558301526e040eed2e8d040d8cadccee8d04060f608b1b605b830181905297891b8116606a8301527f2e20417474656d7074656420746f20696e646578206174206f666673657420306070830152600f60fb1b609083015295881b861660918201526097810196909652951b90921660a68401525050601760f91b60ac8201528151808203608d01815260ad90910190915295945050505050565b600061496160048360ff16901c614a0f565b60ff1661ffff919091161760081b61497882614a0f565b60ff1617919050565b600061498c82613e2b565b61499583614816565b61499f9190615c87565b6001600160601b031692915050565b600060ff8211156145985760405162461bcd60e51b815260206004820152602560248201527f53616665436173743a2076616c756520646f65736e27742066697420696e2038604482015264206269747360d81b6064820152608401610774565b600060f08083179060ff82161415614a2a5750603092915050565b8060ff1660f11415614a3f5750603192915050565b8060ff1660f21415614a545750603292915050565b8060ff1660f31415614a695750603392915050565b8060ff1660f41415614a7e5750603492915050565b8060ff1660f51415614a935750603592915050565b8060ff1660f61415614aa85750603692915050565b8060ff1660f71415614abd5750603792915050565b8060ff1660f81415614ad25750603892915050565b8060ff1660f91415614ae75750603992915050565b8060ff1660fa1415614afc5750606192915050565b8060ff1660fb1415614b115750606292915050565b8060ff1660fc1415614b265750606392915050565b8060ff1660fd1415614b3b5750606492915050565b8060ff1660fe1415614b505750606592915050565b8060ff1660ff1415614b655750606692915050565b50919050565b828054614b7790615d7b565b90600052602060002090601f016020900481019282614b995760008555614bdf565b82601f10614bb257805160ff1916838001178555614bdf565b82800160010185558215614bdf579182015b82811115614bdf578251825591602001919060010190614bc4565b506145989291505b808211156145985760008155600101614be7565b8035613fe481615df7565b60008083601f840112614c17578182fd5b5081356001600160401b03811115614c2d578182fd5b6020830191508360208260051b8501011115614c4857600080fd5b9250929050565b600082601f830112614c5f578081fd5b81356020614c74614c6f83615bfc565b615bcc565b80838252828201915082860187848660051b8901011115614c93578586fd5b855b85811015614cb857614ca682614d2d565b84529284019290840190600101614c95565b5090979650505050505050565b600082601f830112614cd5578081fd5b81356020614ce5614c6f83615bfc565b80838252828201915082860187848660051b8901011115614d04578586fd5b855b85811015614cb857813584529284019290840190600101614d06565b8035613fe481615e0c565b80356001600160e01b031981168114613fe457600080fd5b60008083601f840112614d56578182fd5b5081356001600160401b03811115614d6c578182fd5b602083019150836020828501011115614c4857600080fd5b600082601f830112614d94578081fd5b81356001600160401b03811115614dad57614dad615de1565b614dc0601f8201601f1916602001615bcc565b818152846020838601011115614dd4578283fd5b816020850160208301379081016020019190915292915050565b803560068110613fe457600080fd5b600060208284031215614e0e578081fd5b8135613d4a81615df7565b600060208284031215614e2a578081fd5b8151613d4a81615df7565b6000806000806000806000806000806000806101208d8f031215614e57578788fd5b614e608d614bfb565b9b506001600160401b0360208e01351115614e79578788fd5b614e898e60208f01358f01614c06565b909b509950614e9a60408e01614d22565b98506001600160401b0360608e01351115614eb3578788fd5b614ec38e60608f01358f01614c06565b909850965060808d013595506001600160401b0360a08e01351115614ee6578485fd5b614ef68e60a08f01358f01614d84565b9450614f0460c08e01614dee565b93506001600160401b0360e08e01351115614f1d578283fd5b614f2d8e60e08f01358f01614d45565b81945080935050506101008d013590509295989b509295989b509295989b565b60008060408385031215614f5f578182fd5b8235614f6a81615df7565b946020939093013593505050565b600060208284031215614f89578081fd5b8151613d4a81615e0c565b60008060408385031215614fa6578182fd5b8251614fb181615e0c565b809250506020808401516001600160401b03811115614fce578283fd5b8401601f81018613614fde578283fd5b8051614fec614c6f82615bfc565b80828252848201915084840189868560051b870101111561500b578687fd5b8694505b8385101561502d57805183526001949094019391850191850161500f565b5080955050505050509250929050565b60006020828403121561504e578081fd5b5035919050565b600060208284031215615066578081fd5b5051919050565b6000806000806000806000806000806101408b8d03121561508c578384fd5b6150958b614d2d565b995060208b01356001600160401b03808211156150b0578586fd5b6150bc8e838f01614d84565b9a5060408d01359150808211156150d1578586fd5b6150dd8e838f01614d84565b99506150eb60608e01614d2d565b985060808d0135975060a08d0135915080821115615107578586fd5b6151138e838f01614d84565b965060c08d0135955060e08d013591508082111561512f578485fd5b61513b8e838f01614d84565b94506101008d0135915080821115615151578384fd5b61515d8e838f01614cc5565b93506101208d0135915080821115615173578283fd5b506151808d828e01614cc5565b9150509295989b9194979a5092959850565b6000806000604084860312156151a6578081fd5b83356001600160401b03808211156151bc578283fd5b6151c887838801614d45565b909550935060208601359150808211156151e0578283fd5b506151ed86828701614cc5565b9150509250925092565b60008060008060008060008060006101208a8c031215615215578283fd5b89356001600160401b038082111561522b578485fd5b6152378d838e01614d84565b9a5060208c013591508082111561524c578485fd5b6152588d838e01614c4f565b995060408c013591508082111561526d578485fd5b6152798d838e01614d84565b985060608c013591508082111561528e578485fd5b61529a8d838e01614d84565b975060808c01359150808211156152af578485fd5b6152bb8d838e01614d84565b965060a08c01359150808211156152d0578485fd5b6152dc8d838e01614d84565b955060c08c01359150808211156152f1578485fd5b6152fd8d838e01614c4f565b945060e08c0135915080821115615312578384fd5b61531e8d838e01614d84565b93506101008c0135915080821115615334578283fd5b506153418c828d01614cc5565b9150509295985092959850929598565b60008060408385031215615363578182fd5b82359150602083013561537581615df7565b809150509250929050565b6000806000806000806000806000806101408b8d03121561539f578384fd5b8a35995060208b01356153b181615df7565b985060408b01356153c181615df7565b975060608b01356153d181615df7565b965060808b01356153e181615df7565b955060a08b0135945060c08b0135935060e08b013592506101008b013591506101208b013561540f81615df7565b809150509295989b9194979a5092959850565b60008060008060008060a0878903121561543a578384fd5b8635955060208701356001600160401b0380821115615457578586fd5b6154638a838b01614d84565b965061547160408a01614dee565b95506060890135915080821115615486578384fd5b5061549389828a01614d45565b979a9699509497949695608090950135949350505050565b600080604083850312156154bd578182fd5b50508035926020909101359150565b6001600160a01b03169052565b6000815180845260208085019450808401835b838110156155125781516001600160e01b031916875295820195908201906001016154ec565b509495945050505050565b6000826060810183835b60038110156155565783830387526155408383516155b9565b6020978801979093509190910190600101615527565b509095945050505050565b6000815180845260208085019450808401835b8381101561551257815187529582019590820190600101615574565b81835281816020850137506000828201602090810191909152601f909101601f19169091010190565b600081518084526155d1816020860160208601615d4b565b601f01601f19169290920160200192915050565b6006811061560357634e487b7160e01b600052602160045260246000fd5b9052565b600063ffffffff60e01b80871683528551615629816004860160208a01615d4b565b855190840190615640816004840160208a01615d4b565b919094169301600481019390935250506008019392505050565b6000825161566c818460208701615d4b565b9190910192915050565b6001600160a01b0391909116815260200190565b6001600160a01b0392831681529116602082015260400190565b6001600160a01b039384168152919092166020820152604081019190915260600190565b60018060a01b038616815284602082015283604082015260a0606082015260006156f560a08301856155b9565b90508260808301529695505050505050565b615711818e6154cc565b6101806020820152600061572961018083018e6155b9565b828103604084015261573b818e6154d9565b9050828103606084015261574f818d61551d565b90508a60808401528960a084015261576a60c084018a6154cc565b8760e08401528661010084015282810361012084015261578a81876154d9565b905082810361014084015261579f81866155b9565b90508281036101608401526157b48185615561565b9f9e505050505050505050505050505050565b6001600160a01b038616815260a0602082018190526000906157eb908301876155b9565b604083019590955250606081019290925260809091015292915050565b6001600160a01b03929092168252602082015260400190565b602081526000612b8d602083018486615590565b604081526000615849604083018587615590565b9050826020830152949350505050565b602081526000613d4a60208301846155b9565b60808152600061587f60808301886155b9565b61588c60208401886155e5565b6001600160a01b038616604084015282810360608401526158ae818587615590565b98975050505050505050565b60006101a08083526158ce8184018c6155b9565b91505060206158df8184018b6155e5565b6001600160a01b0389811660408501526060840189905260808401889052861660a084015260c083018560005b60038110156159295781518352918301919083019060010161590c565b50505061012083018460005b600481101561595257815183529183019190830190600101615935565b505050509998505050505050505050565b85815284602082015260a06040820152600061598260a08301866155b9565b828103606084015261599481866155b9565b9150508260808301529695505050505050565b6020808252601b908201527a109a5d18dbda5b92195b1c195c8e881d9bdd5d081a5cc81b9d5b1b602a1b604082015260600190565b6020808252601b908201527a213ab9372937baba32b92637b3b4b19d103737ba103637b1b5b2b960291b604082015260600190565b6020808252602b908201527f496e697469616c697a61626c653a20636f6e7472616374206973206e6f74206960408201526a6e697469616c697a696e6760a81b606082015260800190565b6020808252601d908201527f4275726e526f757465724c6f6769633a20696e76616c69642070617468000000604082015260600190565b888152602081018890526001600160a01b038716604082015261010060608201819052600090615ac5838201896155b9565b91505085608083015284151560a0830152615ae360c08301856155e5565b8260e08301529998505050505050505050565b878152602080820188905260c0604083018190528201869052600090879060e08401835b89811015615b48578335615b2d81615df7565b6001600160a01b031682529282019290820190600101615b1a565b506001600160a01b039790971660608501525050506080810192909252151560a090910152949350505050565b878152602081018790526001600160e01b0319861660408201526001600160a01b038516606082015260e060808201819052600090615bb6908301866155b9565b60a08301949094525060c0015295945050505050565b604051601f8201601f191681016001600160401b0381118282101715615bf457615bf4615de1565b604052919050565b60006001600160401b03821115615c1557615c15615de1565b5060051b60200190565b60008219821115615c3257615c32615dcb565b500190565b60006001600160401b03808316818516808303821115615c5957615c59615dcb565b01949350505050565b600060ff821660ff84168060ff03821115615c7f57615c7f615dcb565b019392505050565b60006001600160601b03828116848216808303821115615c5957615c59615dcb565b600082615cc457634e487b7160e01b81526012600452602481fd5b500490565b6000816000190483118215151615615ce357615ce3615dcb565b500290565b600060ff821660ff84168160ff0481118215151615615d0957615d09615dcb565b029392505050565b600082821015615d2357615d23615dcb565b500390565b600060ff821660ff841680821015615d4257615d42615dcb565b90039392505050565b60005b83811015615d66578181015183820152602001615d4e565b83811115615d75576000848401525b50505050565b600181811c90821680615d8f57607f821691505b60208210811415614b6557634e487b7160e01b600052602260045260246000fd5b6000600019821415615dc457615dc4615dcb565b5060010190565b634e487b7160e01b600052601160045260246000fd5b634e487b7160e01b600052604160045260246000fd5b6001600160a01b0381168114611e5457600080fd5b8015158114611e5457600080fdfea2646970667358221220ce8285041c42ce62ccea84c8f8536bc4666a5ddf040f2eb23da4ae307051742664736f6c63430008040033",
  "deployedBytecode": "0x6080604052600436106101d45760003560e01c80637f0f1817116100fe5780637f0f18171461045d5780637ffe9a921461047d5780638d3d78cd1461049d5780638d5fc1d4146104bd5780638da5cb5b146104dd5780638f9eb78b146104f2578063930a60e814610512578063a9b682711461053f578063b14d353214610575578063b59589d114610595578063b74d0d35146105b5578063bed6a602146105cb578063c780c03f146105e1578063c805f68b146105f4578063cf54ce4714610614578063da058ae314610634578063ea73263714610654578063f0f4426014610667578063f2fde38b14610687578063f47e2240146106a757600080fd5b80630e757850146101e057806317fcb39b146102025780631812adb6146102385780631876dec41461025c5780631e2361681461027c5780631e7107c7146102bc57806333453d15146102dc5780633fea4367146102fc578063419cba7f1461031c57806344dd6aa5146103325780634782bc361461034557806350a058361461036557806359fd0b0c146103855780635c4f5f3e146103b257806361d027b3146103d257806370872aa5146103f2578063715018a61461040857806373532b2a1461041d5780637ed557481461043d57600080fd5b366101db57005b600080fd5b3480156101ec57600080fd5b506102006101fb366004615380565b6106db565b005b34801561020e57600080fd5b5060a654610222906001600160a01b031681565b60405161022f9190615676565b60405180910390f35b34801561024457600080fd5b5061024e60075481565b60405190815260200161022f565b34801561026857600080fd5b50600154610222906001600160a01b031681565b34801561028857600080fd5b506102ac61029736600461503d565b600c6020526000908152604090205460ff1681565b604051901515815260200161022f565b3480156102c857600080fd5b506102006102d736600461503d565b610868565b3480156102e857600080fd5b506102006102f7366004614dfd565b6108d7565b34801561030857600080fd5b5061024e610317366004615422565b610948565b34801561032857600080fd5b5061024e60085481565b61024e610340366004614e35565b610a64565b34801561035157600080fd5b5061020061036036600461503d565b610b0a565b34801561037157600080fd5b50600454610222906001600160a01b031681565b34801561039157600080fd5b5061024e6103a036600461503d565b60a46020526000908152604090205481565b3480156103be57600080fd5b506102006103cd36600461503d565b610ba5565b3480156103de57600080fd5b50600354610222906001600160a01b031681565b3480156103fe57600080fd5b5061024e60055481565b34801561041457600080fd5b50610200610d3c565b34801561042957600080fd5b50610200610438366004615192565b610d46565b34801561044957600080fd5b5061020061045836600461503d565b61136c565b34801561046957600080fd5b50610200610478366004614dfd565b611406565b34801561048957600080fd5b506102ac610498366004614f4d565b6114a0565b3480156104a957600080fd5b50600254610222906001600160a01b031681565b3480156104c957600080fd5b506102006104d8366004615351565b6114f8565b3480156104e957600080fd5b5061022261159c565b3480156104fe57600080fd5b5061020061050d3660046154ab565b6115ab565b34801561051e57600080fd5b5061024e61052d366004614dfd565b600b6020526000908152604090205481565b34801561054b57600080fd5b5061022261055a36600461503d565b60a5602052600090815260409020546001600160a01b031681565b34801561058157600080fd5b50610200610590366004614dfd565b611614565b3480156105a157600080fd5b50600054610222906001600160a01b031681565b3480156105c157600080fd5b5061024e60095481565b3480156105d757600080fd5b5061024e60065481565b6102006105ef3660046151f7565b6116ae565b34801561060057600080fd5b5061020061060f366004614dfd565b61182c565b34801561062057600080fd5b5061020061062f36600461503d565b6118c6565b34801561064057600080fd5b5061020061064f366004614dfd565b611962565b6102ac61066236600461506d565b6119d3565b34801561067357600080fd5b50610200610682366004614dfd565b611d44565b34801561069357600080fd5b506102006106a2366004614dfd565b611dde565b3480156106b357600080fd5b506106c76106c2366004614f4d565b611e57565b60405161022f989796959493929190615a93565b600d54610100900460ff16158080156106fb5750600d54600160ff909116105b806107155750303b1580156107155750600d5460ff166001145b61077d5760405162461bcd60e51b815260206004820152602e60248201527f496e697469616c697a61626c653a20636f6e747261637420697320616c72656160448201526d191e481a5b9a5d1a585b1a5e995960921b60648201526084015b60405180910390fd5b600d805460ff1916600117905580156107a057600d805461ff0019166101001790555b6107a8611f54565b6107b0611f83565b6107b98b610868565b6107c28a61182c565b6107cb89611614565b6107d488611d44565b6107dd87611406565b6107e686610ba5565b6107ef8561136c565b6107f884610b0a565b6108036102f761159c565b61080c836118c6565b61081582611962565b801561085b57600d805461ff0019169055604051600181527f7f26b83ff96e1f2b6a682f133852f6798a09c465da95921460cefb38474024989060200160405180910390a15b5050505050505050505050565b610870611fb2565b60055481116108d25760405162461bcd60e51b815260206004820152602860248201527f4275726e526f757465724c6f6769633a206c6f77207374617274696e67426c6f60448201526731b5a73ab6b132b960c11b6064820152608401610774565b600555565b6108df611fb2565b6004546040517f68bf625687194a1bbeeccbaa327c37aa1f9940a3c6c9e8fe84f06f1dc14fd1769161091e916001600160a01b0390911690849061568a565b60405180910390a1600480546001600160a01b0319166001600160a01b0392909216919091179055565b6000610952612011565b6002546001600160a01b03166323b872dd33308a6040518463ffffffff1660e01b8152600401610984939291906156a4565b602060405180830381600087803b15801561099e57600080fd5b505af11580156109b2573d6000803e3d6000fd5b505050506040513d601f19601f820116820180604052508101906109d69190614f78565b610a2e5760405162461bcd60e51b8152602060048201526024808201527f4275726e526f757465724c6f6769633a207472616e7366657246726f6d2066616044820152631a5b195960e21b6064820152608401610774565b600254600090610a4d906001600160a01b031689808a8a8a8a8a61206b565b915050610a5a6001607255565b9695505050505050565b6000610a6e612011565b6000610a7f8e8e8e8e8e8e8e6124da565b9050610aed8d8d6000818110610aa557634e487b7160e01b600052603260045260246000fd5b905060200201358b8b6000818110610acd57634e487b7160e01b600052603260045260246000fd5b9050602002016020810190610ae29190614dfd565b838a8a8a8a8a612a1c565b915050610afa6001607255565b9c9b505050505050505050505050565b610b12611fb2565b806127101015610b645760405162461bcd60e51b815260206004820152601f60248201527f4275726e526f757465724c6f6769633a20696e76616c696420726577617264006044820152606401610774565b60085460408051918252602082018390527faa50b3683e42a13535a5b9c2c32780cccf956fb546b523a3542ac4ad8b544f67910160405180910390a1600855565b600080546040516353bcd1c960e11b815273__$b2d4c044db363f4bd023a450a1a4a26d98$__9163a779a39291610be8916001600160a01b031690600401615676565b60206040518083038186803b158015610c0057600080fd5b505af4158015610c14573d6000803e3d6000fd5b505050506040513d601f19601f82011682018060405250810190610c389190615055565b9050610c4261159c565b6001600160a01b0316336001600160a01b03161480610c62575080600654105b610cab5760405162461bcd60e51b815260206004820152601a602482015279109d5c9b949bdd5d195c931bd9da58ce881b9bc81c195c9b5a5d60321b6044820152606401610774565b808211610cfa5760405162461bcd60e51b815260206004820152601d60248201527f4275726e526f757465724c6f6769633a206c6f7720646561646c696e650000006044820152606401610774565b60065460408051918252602082018490527f92c10a242ca42973030420e2ee32b3ba7818cc643f896958f620c606cf300416910160405180910390a150600655565b610d44611fb2565b565b610d4e612011565b610d56611fb2565b60015460405163aff2faa360e01b81526001600160a01b039091169063aff2faa390610d889086908690600401615821565b60206040518083038186803b158015610da057600080fd5b505afa158015610db4573d6000803e3d6000fd5b505050506040513d601f19601f82011682018060405250810190610dd89190614f78565b610df45760405162461bcd60e51b8152600401610774906159dc565b60015460405163626885b560e11b81526000916001600160a01b03169063c4d10b6a90610e279087908790600401615821565b60206040518083038186803b158015610e3f57600080fd5b505afa158015610e53573d6000803e3d6000fd5b505050506040513d601f19601f82011682018060405250810190610e779190614e19565b905060005b825181101561135b5773__$b2d4c044db363f4bd023a450a1a4a26d98$__6315755789600a84868581518110610ec257634e487b7160e01b600052603260045260246000fd5b60209081029190910101516006546000546040516310889dc360e01b815273__$b2d4c044db363f4bd023a450a1a4a26d98$__916310889dc391610f12916001600160a01b031690600401615676565b60206040518083038186803b158015610f2a57600080fd5b505af4158015610f3e573d6000803e3d6000fd5b505050506040513d601f19601f82011682018060405250810190610f629190615055565b6005546040516001600160e01b031960e089901b16815260048101969096526001600160a01b03909416602486015260448501929092526064840152608483015260a482015260c40160006040518083038186803b158015610fc357600080fd5b505af4158015610fd7573d6000803e3d6000fd5b50506001546008546001600160a01b038681166000908152600a602052604090208851919093169450631697565b93508692612710929189908890811061102e57634e487b7160e01b600052603260045260246000fd5b60200260200101518154811061105457634e487b7160e01b600052603260045260246000fd5b9060005260206000209060070201600001546110709190615cc9565b61107a9190615ca9565b336001600160a01b0387166000908152600a6020526040902088518990889081106110b557634e487b7160e01b600052603260045260246000fd5b6020026020010151815481106110db57634e487b7160e01b600052603260045260246000fd5b906000526020600020906007020160000154600a6000896001600160a01b03166001600160a01b0316815260200190815260200160002089888151811061113257634e487b7160e01b600052603260045260246000fd5b60200260200101518154811061115857634e487b7160e01b600052603260045260246000fd5b600091825260209091206007909102016002015460405160e087901b6001600160e01b03191681526001600160a01b03958616600482015260248101949094529184166044840152606483015291909116608482015260a401602060405180830381600087803b1580156111cb57600080fd5b505af11580156111df573d6000803e3d6000fd5b505050506040513d601f19601f820116820180604052508101906112039190614f78565b506001600160a01b0382166000818152600a60205260409020845185908490811061123e57634e487b7160e01b600052603260045260246000fd5b60200260200101518154811061126457634e487b7160e01b600052603260045260246000fd5b906000526020600020906007020160020160009054906101000a90046001600160a01b03166001600160a01b03167f58c23b4ae0617be275628875bcfd65759a441263099a256eeb27899fb5dd846d8787600a6000886001600160a01b03166001600160a01b031681526020019081526020016000208887815181106112fa57634e487b7160e01b600052603260045260246000fd5b60200260200101518154811061132057634e487b7160e01b600052603260045260246000fd5b90600052602060002090600702016006015460405161134193929190615835565b60405180910390a38061135381615db0565b915050610e7c565b50506113676001607255565b505050565b611374611fb2565b8061271010156113c55760405162461bcd60e51b815260206004820152601c60248201527b4275726e526f757465724c6f6769633a20696e76616c69642066656560201b6044820152606401610774565b60075460408051918252602082018390527f7d205f60891f60851c61cd244ba387d72b6589e7c0ac41b9d909ab0ce2c2a53b910160405180910390a1600755565b61140e611fb2565b806001600160a01b0381166114365760405163d92e233d60e01b815260040160405180910390fd5b6002546040517f36a4c08a38b736dcecb6c328dba61238529620e83ccb23db2cc43cd34ec2609691611475916001600160a01b0390911690859061568a565b60405180910390a150600280546001600160a01b0319166001600160a01b0392909216919091179055565b6001600160a01b0382166000908152600a602052604081208054839081106114d857634e487b7160e01b600052603260045260246000fd5b600091825260209091206005600790920201015460ff1690505b92915050565b611500611fb2565b600082815260a56020526040908190205490517f1e73962bcff5b98a9ac70c9b0f71fbb31dc0f5a09348c6d3ceab164169a9e729916115669185916001600160a01b03169085909283526001600160a01b03918216602084015216604082015260600190565b60405180910390a1600091825260a5602052604090912080546001600160a01b0319166001600160a01b03909216919091179055565b6040546001600160a01b031690565b6115b3611fb2565b600082815260a46020908152604091829020548251858152918201529081018290527f188adabf806a6b6d814acc1dbd9f09e5a251c8c065d6285749a5824e4579b6459060600160405180910390a1600091825260a4602052604090912055565b61161c611fb2565b806001600160a01b0381166116445760405163d92e233d60e01b815260040160405180910390fd5b6001546040517ffa021c2ec0f46429a53e7f88b88065e40001f50c9d38b2e8b713beaf9828d4c391611683916001600160a01b0390911690859061568a565b60405180910390a150600180546001600160a01b0319166001600160a01b0392909216919091179055565b6116b6612011565b6116be611fb2565b600061171c896000815181106116e457634e487b7160e01b600052603260045260246000fd5b602002602001015189898760008151811061170f57634e487b7160e01b600052603260045260246000fd5b6020026020010151612a2f565b905073__$b2d4c044db363f4bd023a450a1a4a26d98$__63441d3a21600160009054906101000a90046001600160a01b03168c8c60405180606001604052808e81526020018c81526020018b815250600c60065460008054906101000a90046001600160a01b03166005548a8e8e8e6040518d63ffffffff1660e01b81526004016117b29c9b9a99989796959493929190615707565b60006040518083038186803b1580156117ca57600080fd5b505af41580156117de573d6000803e3d6000fd5b50505050611816878b838560028151811061180957634e487b7160e01b600052603260045260246000fd5b6020026020010151612b95565b506118216001607255565b505050505050505050565b611834611fb2565b806001600160a01b03811661185c5760405163d92e233d60e01b815260040160405180910390fd5b6000546040517f4c28a3f61a715259c4dc930c23e7423b8fa52e13232c061a6e488729c66184f49161189b916001600160a01b0390911690859061568a565b60405180910390a150600080546001600160a01b0319166001600160a01b0392909216919091179055565b60045433906001600160a01b031681146119205760405162461bcd60e51b815260206004820152601b60248201527a4275726e526f757465724c6f6769633a206e6f74206f7261636c6560281b6044820152606401610774565b60095460408051918252602082018490527f890eb41e398fd9cf425695b34269b781ad56c257422859094a28db47fb78f1b3910160405180910390a150600955565b61196a611fb2565b60a6546040517f4da8064030e901e42f6de0ab04f4c322d7936d0120503addfe8a51f127090689916119a9916001600160a01b0390911690849061568a565b60405180910390a160a680546001600160a01b0319166001600160a01b0392909216919091179055565b60006119dd612011565b60015460405163626885b560e11b81526000916001600160a01b03169063c4d10b6a90611a0e908890600401615859565b60206040518083038186803b158015611a2657600080fd5b505afa158015611a3a573d6000803e3d6000fd5b505050506040513d601f19601f82011682018060405250810190611a5e9190614e19565b9050336001600160a01b0382161480611a8a57506004546001600160a01b0316336001600160a01b0316145b611aa65760405162461bcd60e51b8152600401610774906159dc565b73__$b2d4c044db363f4bd023a450a1a4a26d98$__6344922b64896005548c600160009054906101000a90046001600160a01b03168a8a518a516040518863ffffffff1660e01b8152600401611b029796959493929190615b75565b60006040518083038186803b158015611b1a57600080fd5b505af4158015611b2e573d6000803e3d6000fd5b505050506000611b408d8d8d8d612a2f565b600054604051637ebc232760e01b815291925073__$b2d4c044db363f4bd023a450a1a4a26d98$__91637ebc232791611b8f916001600160a01b039091169085908e908e908e906004016156c8565b60206040518083038186803b158015611ba757600080fd5b505af4158015611bbb573d6000803e3d6000fd5b505050506040513d601f19601f82011682018060405250810190611bdf9190614f78565b611c2b5760405162461bcd60e51b815260206004820152601e60248201527f4275726e526f757465724c6f6769633a206e6f742066696e616c697a656400006044820152606401610774565b6000611c3b828b858f8a8a612d61565b905073__$b2d4c044db363f4bd023a450a1a4a26d98$__63191e28dc600c838f8b876040518663ffffffff1660e01b8152600401611c7d959493929190615963565b60206040518083038186803b158015611c9557600080fd5b505af4158015611ca9573d6000803e3d6000fd5b505050506040513d601f19601f82011682018060405250810190611ccd9190614f78565b611d255760405162461bcd60e51b815260206004820152602360248201527f4275726e526f757465724c6f6769633a20696e76616c6964206275726e20707260448201526237b7b360e91b6064820152608401610774565b60019350505050611d366001607255565b9a9950505050505050505050565b611d4c611fb2565b806001600160a01b038116611d745760405163d92e233d60e01b815260040160405180910390fd5b6003546040517f567657fa3f286518b318f4a29870674f433f622fdfc819691acb13105b22822591611db3916001600160a01b0390911690859061568a565b60405180910390a150600380546001600160a01b0319166001600160a01b0392909216919091179055565b611de6611fb2565b6001600160a01b038116611e4b5760405162461bcd60e51b815260206004820152602660248201527f4f776e61626c653a206e6577206f776e657220697320746865207a65726f206160448201526564647265737360d01b6064820152608401610774565b611e5481613256565b50565b600a6020528160005260406000208181548110611e7357600080fd5b600091825260209091206007909102018054600182015460028301546003840180549396509194506001600160a01b03169291611eaf90615d7b565b80601f0160208091040260200160405190810160405280929190818152602001828054611edb90615d7b565b8015611f285780601f10611efd57610100808354040283529160200191611f28565b820191906000526020600020905b815481529060010190602001808311611f0b57829003601f168201915b505050600484015460058501546006909501549394909360ff8083169450610100909204909116915088565b600d54610100900460ff16611f7b5760405162461bcd60e51b815260040161077490615a11565b610d446132a6565b600d54610100900460ff16611faa5760405162461bcd60e51b815260040161077490615a11565b610d446132d6565b33611fbb61159c565b6001600160a01b031614610d445760405162461bcd60e51b815260206004820181905260248201527f4f776e61626c653a2063616c6c6572206973206e6f7420746865206f776e65726044820152606401610774565b600260725414156120645760405162461bcd60e51b815260206004820152601f60248201527f5265656e7472616e637947756172643a207265656e7472616e742063616c6c006044820152606401610774565b6002607255565b600154604051630f87661560e41b815260009173__$b2d4c044db363f4bd023a450a1a4a26d98$__9163f8766150916120ba918a918a916001600160a01b03909116908a908a9060040161586c565b60006040518083038186803b1580156120d257600080fd5b505af41580156120e6573d6000803e3d6000fd5b5050505060008060006120f98a866132fd565b60025460015460405163095ea7b360e01b81529497509295509093506001600160a01b039081169263095ea7b3926121379216908790600401615808565b602060405180830381600087803b15801561215157600080fd5b505af1158015612165573d6000803e3d6000fd5b505050506040513d601f19601f820116820180604052508101906121899190614f78565b506001546040516338463cff60e01b81526001600160a01b03909116906338463cff906121be908a908a908890600401615835565b602060405180830381600087803b1580156121d857600080fd5b505af11580156121ec573d6000803e3d6000fd5b505050506040513d601f19601f820116820180604052508101906122109190615055565b60015460405163626885b560e11b81529195506000916001600160a01b039091169063c4d10b6a90612248908b908b90600401615821565b60206040518083038186803b15801561226057600080fd5b505afa158015612274573d6000803e3d6000fd5b505050506040513d601f19601f820116820180604052508101906122989190614e19565b6000546040516310889dc360e01b815291925061233f918d9188918e918e9173__$b2d4c044db363f4bd023a450a1a4a26d98$__916310889dc3916122e9916001600160a01b031690600401615676565b60206040518083038186803b15801561230157600080fd5b505af4158015612315573d6000803e3d6000fd5b505050506040513d601f19601f820116820180604052508101906123399190615055565b8661369d565b604080516060810182528d815260208082018e905281830188905282516080810190935260095483528f9260009181016123798a8a615d11565b8152602080820189905260409182018890526001600160a01b0387166000908152600a909152208054919250906123b290600190615d11565b815481106123d057634e487b7160e01b600052603260045260246000fd5b9060005260206000209060070201600401546123e93390565b6001600160a01b03167f6b5c22e69db87534a562352580358411dc7b2d98d24684765342f2ebf2dd8c318f8f88600a60008b6001600160a01b03166001600160a01b031681526020019081526020016000206001600a60008d6001600160a01b03166001600160a01b03168152602001908152602001600020805490506124709190615d11565b8154811061248e57634e487b7160e01b600052603260045260246000fd5b9060005260206000209060070201600601548f8a8a8a6040516124b89897969594939291906158ba565b60405180910390a35050505050505098975050505050505050565b6001607255565b6002546000906001600160a01b031684846124f6600182615d11565b81811061251357634e487b7160e01b600052603260045260246000fd5b90506020020160208101906125289190614dfd565b6001600160a01b03161461254e5760405162461bcd60e51b815260040161077490615a5c565b6002861461259e5760405162461bcd60e51b815260206004820152601e60248201527f4275726e526f757465724c6f6769633a2077726f6e6720616d6f756e747300006044820152606401610774565b34156126eb57868660008181106125c557634e487b7160e01b600052603260045260246000fd5b90506020020135341461261a5760405162461bcd60e51b815260206004820152601f60248201527f4275726e526f757465724c6f6769633a20696e76616c696420616d6f756e74006044820152606401610774565b8383600081811061263b57634e487b7160e01b600052603260045260246000fd5b90506020020160208101906126509190614dfd565b60a6546001600160a01b0390811691161461267d5760405162461bcd60e51b815260040161077490615a5c565b60a660009054906101000a90046001600160a01b03166001600160a01b031663d0e30db0346040518263ffffffff1660e01b81526004016000604051808303818588803b1580156126cd57600080fd5b505af11580156126e1573d6000803e3d6000fd5b50505050506127cb565b8383600081811061270c57634e487b7160e01b600052603260045260246000fd5b90506020020160208101906127219190614dfd565b6001600160a01b03166323b872dd33308a8a600081811061275257634e487b7160e01b600052603260045260246000fd5b905060200201356040518463ffffffff1660e01b8152600401612777939291906156a4565b602060405180830381600087803b15801561279157600080fd5b505af11580156127a5573d6000803e3d6000fd5b505050506040513d601f19601f820116820180604052508101906127c99190614f78565b505b838360008181106127ec57634e487b7160e01b600052603260045260246000fd5b90506020020160208101906128019190614dfd565b6001600160a01b031663095ea7b3898989600081811061283157634e487b7160e01b600052603260045260246000fd5b905060200201356040518363ffffffff1660e01b8152600401612855929190615808565b602060405180830381600087803b15801561286f57600080fd5b505af1158015612883573d6000803e3d6000fd5b505050506040513d601f19601f820116820180604052508101906128a79190614f78565b50600080896001600160a01b031663b0bbcd888a8a60008181106128db57634e487b7160e01b600052603260045260246000fd5b905060200201358b8b600181811061290357634e487b7160e01b600052603260045260246000fd5b905060200201358989308a8e6040518863ffffffff1660e01b81526004016129319796959493929190615af6565b600060405180830381600087803b15801561294b57600080fd5b505af115801561295f573d6000803e3d6000fd5b505050506040513d6000823e601f3d908101601f191682016040526129879190810190614f94565b91509150816129d85760405162461bcd60e51b815260206004820181905260248201527f4275726e526f757465724c6f6769633a2065786368616e6765206661696c65646044820152606401610774565b80600182516129e79190615d11565b81518110612a0557634e487b7160e01b600052603260045260246000fd5b602002602001015192505050979650505050505050565b600080611d36898b8a8a8a8a8a8a61206b565b600080612a44612a3f868361386d565b613891565b9050612a5562ffffff1982166139e7565b15612a9f5760405162461bcd60e51b815260206004820152601a602482015279109a5d18dbda5b92195b1c195c8e881d9a5b881a5cc81b9d5b1b60321b6044820152606401610774565b6000600287878787604051602001612aba9493929190615607565b60408051601f1981840301815290829052612ad49161565a565b602060405180830381855afa158015612af1573d6000803e3d6000fd5b5050506040513d601f19601f82011682018060405250810190612b149190615055565b90506000600282604051602001612b2d91815260200190565b60408051601f1981840301815290829052612b479161565a565b602060405180830381855afa158015612b64573d6000803e3d6000fd5b5050506040513d601f19601f82011682018060405250810190612b879190615055565b93505050505b949350505050565b6000612ba0856139f3565b60015460405163626885b560e11b81526001600160401b039290921692506000916001600160a01b039091169063c4d10b6a90612be1908890600401615859565b60206040518083038186803b158015612bf957600080fd5b505afa158015612c0d573d6000803e3d6000fd5b505050506040513d601f19601f82011682018060405250810190612c319190614e19565b6001546008549192506001600160a01b03169063b734de2690839061271090612c5a9087615cc9565b612c649190615ca9565b3360405160e085901b6001600160e01b03191681526001600160a01b0393841660048201526024810192909252909116604482015260648101859052608401602060405180830381600087803b158015612cbd57600080fd5b505af1158015612cd1573d6000803e3d6000fd5b505050506040513d601f19601f82011682018060405250810190612cf59190614f78565b507f7ff138134e34ccab071315c38e38eec079f54726b890304ab46e2c5ab6f722bb8186858761271060085488612d2c9190615cc9565b612d369190615ca9565b612d409088615c1f565b604051612d519594939291906157c7565b60405180910390a1505050505050565b60008080805b85518110156132495780612da457848181518110612d9557634e487b7160e01b600052603260045260246000fd5b60200260200101519150612e55565b81858281518110612dc557634e487b7160e01b600052603260045260246000fd5b602002602001015111612e2a5760405162461bcd60e51b815260206004820152602760248201527f4275726e526f757465724c6f6769633a20756e2d736f7274656420766f757420604482015266696e646578657360c81b6064820152608401610774565b848181518110612e4a57634e487b7160e01b600052603260045260246000fd5b602002602001015191505b6000868281518110612e7757634e487b7160e01b600052603260045260246000fd5b60200260200101519050600a60008a6001600160a01b03166001600160a01b031681526020019081526020016000208181548110612ec557634e487b7160e01b600052603260045260246000fd5b600091825260209091206005600790920201015460ff16158015612f3457506001600160a01b0389166000908152600a6020526040902080548b919083908110612f1f57634e487b7160e01b600052603260045260246000fd5b90600052602060002090600702016004015410155b15613236576130a188878481518110612f5d57634e487b7160e01b600052603260045260246000fd5b6020026020010151600a60008d6001600160a01b03166001600160a01b031681526020019081526020016000208481548110612fa957634e487b7160e01b600052603260045260246000fd5b90600052602060002090600702016003018054612fc590615d7b565b80601f0160208091040260200160405190810160405280929190818152602001828054612ff190615d7b565b801561303e5780601f106130135761010080835404028352916020019161303e565b820191906000526020600020905b81548152906001019060200180831161302157829003601f168201915b5050506001600160a01b038f166000908152600a602052604090208054909250879150811061307d57634e487b7160e01b600052603260045260246000fd5b906000526020600020906007020160050160019054906101000a900460ff16613a96565b6001600160401b0316935083600a60008b6001600160a01b03166001600160a01b0316815260200190815260200160002082815481106130f157634e487b7160e01b600052603260045260246000fd5b9060005260206000209060070201600101541415613236576001600160a01b0389166000908152600a602052604090208054600191908390811061314557634e487b7160e01b600052603260045260246000fd5b60009182526020909120600790910201600501805460ff1916911515919091179055613172856001615c1f565b6001600160a01b038a166000818152600a60205260409020805492975090917f7b8cb33b1d4dc1e5d05c58e9945c383eb161ac22029c5b963989d08c3d0ef4da9190849081106131d257634e487b7160e01b600052603260045260246000fd5b9060005260206000209060070201600601548d89868151811061320557634e487b7160e01b600052603260045260246000fd5b602002602001015160405161322d939291909283526020830191909152604082015260600190565b60405180910390a25b508061324181615db0565b915050612d67565b5050509695505050505050565b604080546001600160a01b038381166001600160a01b031983168117845592519116919082907f8be0079c531659141344cd1fd0a4f28419497f9722a3daafe3b4186f6b6457e090600090a35050565b600d54610100900460ff166132cd5760405162461bcd60e51b815260040161077490615a11565b610d4433613256565b600d54610100900460ff166124d35760405162461bcd60e51b815260040161077490615a11565b6000806000612710600754866133139190615cc9565b61331d9190615ca9565b600085815260a460205260409020549092506127109061333d9087615cc9565b6133479190615ca9565b600954909150816133588488615d11565b6133629190615d11565b61336c9190615d11565b92506009548310156133be5760405162461bcd60e51b815260206004820152601b60248201527a109d5c9b949bdd5d195c931bd9da58ce881b1bddc8185b5bdd5b9d602a1b6044820152606401610774565b81156134a45760025460035460405163a9059cbb60e01b81526001600160a01b039283169263a9059cbb926133fa929116908690600401615808565b602060405180830381600087803b15801561341457600080fd5b505af1158015613428573d6000803e3d6000fd5b505050506040513d601f19601f8201168201806040525081019061344c9190614f78565b6134a45760405162461bcd60e51b8152602060048201526024808201527f4275726e526f757465724c6f6769633a20666565207472616e736665722066616044820152631a5b195960e21b6064820152608401610774565b80156135a457600254600085815260a560205260409081902054905163a9059cbb60e01b81526001600160a01b039283169263a9059cbb926134ed929116908590600401615808565b602060405180830381600087803b15801561350757600080fd5b505af115801561351b573d6000803e3d6000fd5b505050506040513d601f19601f8201168201806040525081019061353f9190614f78565b6135a45760405162461bcd60e51b815260206004820152603060248201527f4275726e526f757465724c6f6769633a2074686972642070617274792066656560448201526f081d1c985b9cd9995c8819985a5b195960821b6064820152608401610774565b600954156136965760025460015460095460405163a9059cbb60e01b81526001600160a01b039384169363a9059cbb936135e393911691600401615808565b602060405180830381600087803b1580156135fd57600080fd5b505af1158015613611573d6000803e3d6000fd5b505050506040513d601f19601f820116820180604052508101906136359190614f78565b6136965760405162461bcd60e51b815260206004820152602c60248201527f4275726e526f757465724c6f6769633a206e6574776f726b206665652074726160448201526b1b9cd9995c8819985a5b195960a21b6064820152608401610774565b9250925092565b604080516101008101825260006080820181905260a0820181905260c0820181815260e0830191909152888252602082018890523392820192909252606081018690529084600581111561370157634e487b7160e01b600052602160045260246000fd5b9081600581111561372257634e487b7160e01b600052602160045260246000fd5b9052506006546137329084615c1f565b6080820152600060a082018190526001600160a01b038316808252600b6020818152604084205460e0860181905292909352909152613772906001615c1f565b6001600160a01b038381166000908152600b6020908152604080832094909455600a81528382208054600180820183559184529282902086516007909402019283558582015190830155928401516002820180546001600160a01b03191691909316179091556060830151805184936137f2926003850192910190614b6b565b506080820151600482015560a08201516005808301805492151560ff1984168117825560c086015193919261ff001990911661ffff19909216919091179061010090849081111561385357634e487b7160e01b600052602160045260246000fd5b021790555060e08201518160060155505050505050505050565b81516000906020840161388864ffffffffff85168284613d0a565b95945050505050565b600081816138a7815b62ffffff19841690613d51565b506138b762ffffff198516613e2b565b6001600160601b03166138d3576138cc613e3a565b92506139e0565b60006138e0856000613e42565b905060006138f362ffffff198716613e2b565b6001600160601b031690506001600160401b03821661391d57613914613e3a565b945050506139e0565b600061392883613f8b565b60ff16905060005b836001600160401b03168110156139a65782821061395b57613950613e3a565b9650505050506139e0565b600061397b61396a8486615d11565b60055b62ffffff198c169190613fe9565b905061398681614013565b6139909084615c1f565b925050808061399e90615db0565b915050613930565b508181146139c0576139b6613e3a565b95505050506139e0565b6139da60065b60d81b6301000000600160d81b0389161790565b95505050505b5050919050565b62ffffff199081161490565b600080613a08613a03848361386d565b614067565b9050613a1962ffffff1982166139e7565b15613a365760405162461bcd60e51b8152600401610774906159a7565b600080613a44836000613e42565b6001600160401b0316905060005b81811015613a8d57613a648482614168565b9250613a6f8361427f565b613a799086615c37565b945080613a8581615db0565b915050613a52565b50505050919050565b600080613aa6613a03878361386d565b9050613ab762ffffff1982166139e7565b15613ad45760405162461bcd60e51b8152600401610774906159a7565b6000613ae08287614168565b90506000613aed826142a4565b90506005856005811115613b1157634e487b7160e01b600052602160045260246000fd5b1415613b7657613b2a62ffffff198216600260206142f5565b604051602001613b3c91815260200190565b60405160208183030381529060405280519060200120868051906020012014613b66576000613b6f565b613b6f8261427f565b9350613cff565b6000856005811115613b9857634e487b7160e01b600052602160045260246000fd5b1415613bb157613b2a62ffffff198216600160206142f5565b6001856005811115613bd357634e487b7160e01b600052602160045260246000fd5b1415613c0d57613bea62ffffff1982166003614423565b604051602001613b3c919060609190911b6001600160601b031916815260140190565b6002856005811115613c2f57634e487b7160e01b600052602160045260246000fd5b1415613c4657613bea62ffffff1982166002614423565b6003856005811115613c6857634e487b7160e01b600052602160045260246000fd5b1415613c7f57613bea62ffffff1982166002614423565b6004856005811115613ca157634e487b7160e01b600052602160045260246000fd5b1415613cff57613cba62ffffff198216600260206142f5565b604051602001613ccc91815260200190565b60405160208183030381529060405280519060200120868051906020012014613cf6576000612b87565b612b878261427f565b505050949350505050565b600080613d178385615c1f565b9050604051811115613d27575060005b80613d395762ffffff19915050613d4a565b5050606083811b8317901b811760181b5b9392505050565b6000613d5d8383614431565b613e24576000613d7c613d708560d81c90565b64ffffffffff16614454565b9150506000613d918464ffffffffff16614454565b6040517f5479706520617373657274696f6e206661696c65642e20476f7420307800000060208201526001600160b01b031960b086811b8216603d8401526c05c408af0e0cac6e8cac84060f609b1b604784015283901b16605482015290925060009150605e015b60405160208183030381529060405290508060405162461bcd60e51b81526004016107749190615859565b5090919050565b60181c6001600160601b031690565b62ffffff1990565b600080613e5762ffffff198516846001614500565b905060fc8111613e7257613e6a81614530565b9150506114f2565b8060fd1415613ed857613ea0613e9b613e8c856001615c1f565b62ffffff19871690600261459c565b614530565b9150613eab82613f8b565b60ff16600314613ed357613ed1613ecc62ffffff19861685600360006146df565b614745565b505b613f84565b8060fe1415613f2d57613f01613e9b613ef2856001615c1f565b62ffffff19871690600461459c565b9150613f0c82613f8b565b60ff16600514613ed357613ed1613ecc62ffffff19861685600560006146df565b8060ff1415613f8457613f56613e9b613f47856001615c1f565b62ffffff19871690600861459c565b9150613f6182613f8b565b60ff16600914613f8457613f82613ecc62ffffff19861685600960006146df565b505b5092915050565b600060fc826001600160401b031611613fa657506001919050565b61ffff826001600160401b031611613fc057506003919050565b63ffffffff826001600160401b031611613fdc57506005919050565b506009919050565b919050565b6000612b8d8484613ff987613e2b565b6001600160601b031661400c9190615d11565b85856146df565b60008160056140218161389a565b50600061402f856024613e42565b9050806001600160401b031661404482613f8b565b60ff166140519190615c1f565b61405c906024615c1f565b613888906004615c1f565b600081816140748161389a565b5061408462ffffff198516613e2b565b6001600160601b0316614099576138cc613e3a565b60006140a6856000613e42565b905060006140b962ffffff198716613e2b565b6001600160601b031690506001600160401b0382166140da57613914613e3a565b60006140e583613f8b565b60ff16905060005b836001600160401b031681101561414e5782821061410d57613950613e3a565b600061412361411c8486615d11565b600e61396d565b905061412e816147cd565b6141389084615c1f565b925050808061414690615db0565b9150506140ed565b5081811461415e576139b6613e3a565b6139da600f6139c6565b600082600f6141768161389a565b506000614184866000613e42565b6001600160401b0316905060006141a062ffffff198816613e2b565b6001600160601b031690508186106141ee5760405162461bcd60e51b81526020600482015260116024820152702b37baba103932b0b21037bb32b9393ab760791b6044820152606401610774565b60006141f983613f8b565b60ff1690506000805b8881101561424f576142266142178486615d11565b62ffffff198c1690600e613fe9565b9150614231826147cd565b61423b9084615c1f565b9250614248600182615c1f565b9050614202565b5061425d61411c8385615d11565b9050600061426a826147cd565b9050611d3662ffffff198b168483600d6146df565b600081600d61428d8161389a565b50612b8d613e9b62ffffff1986166000600861459c565b600081600d6142b28161389a565b5060006142c0856008613e42565b90506138886142ce82613f8b565b6142d9906008615c62565b62ffffff1987169060ff166001600160401b03841660076146df565b600060ff821661430757506000613d4a565b61431084613e2b565b6001600160601b031661432660ff841685615c1f565b11156143765761435d61433885614816565b6001600160601b031661434a86613e2b565b6001600160601b0316858560ff16614825565b60405162461bcd60e51b81526004016107749190615859565b60208260ff1611156143ed5760405162461bcd60e51b815260206004820152603a60248201527f54797065644d656d566965772f696e646578202d20417474656d7074656420746044820152796f20696e646578206d6f7265207468616e20333220627974657360301b6064820152608401610774565b6008820260006143fc86614816565b6001600160601b031690506000600160ff1b60001984011d91909501511695945050505050565b6000613d4a83836014614500565b60008164ffffffffff166144458460d81c90565b64ffffffffff16149392505050565b600080601f5b600f8160ff1611156144b2576000614473826008615ce8565b60ff1685901c90506144848161494f565b61ffff16841793508160ff1660101461449f57601084901b93505b506144ab600182615d28565b905061445a565b50600f5b60ff8160ff1610156144fa5760ff600882021684901c6144d58161494f565b61ffff16831792508160ff166000146144f057601083901b92505b50600019016144b6565b50915091565b600061450d826020615d28565b614518906008615ce8565b60ff166145268585856142f5565b901c949350505050565b60006001600160401b038211156145985760405162461bcd60e51b815260206004820152602660248201527f53616665436173743a2076616c756520646f65736e27742066697420696e203660448201526534206269747360d01b6064820152608401610774565b5090565b6000612b8d6145ac8585856142f5565b60008190506008817eff00ff00ff00ff00ff00ff00ff00ff00ff00ff00ff00ff00ff00ff00ff00ff16901b600882901c7eff00ff00ff00ff00ff00ff00ff00ff00ff00ff00ff00ff00ff00ff00ff00ff161790506010817dffff0000ffff0000ffff0000ffff0000ffff0000ffff0000ffff0000ffff16901b601082901c7dffff0000ffff0000ffff0000ffff0000ffff0000ffff0000ffff0000ffff161790506020817bffffffff00000000ffffffff00000000ffffffff00000000ffffffff16901b602082901c7bffffffff00000000ffffffff00000000ffffffff00000000ffffffff161790506040816001600160401b03600160801b03600160c01b0316901b604082901c6001600160401b03600160801b03600160c01b0316179050608081901b608082901c179050919050565b6000806146eb86614816565b6001600160601b031690506146ff86614981565b8461470a8784615c1f565b6147149190615c1f565b11156147275762ffffff19915050612b8d565b6147318582615c1f565b9050610a5a8364ffffffffff168286613d0a565b6060600061478361477e8261477061476262ffffff198816613e2b565b6001600160601b03166149ae565b62ffffff1987169190614500565b614454565b6040517a09cdedc5adad2dcd2dac2d840ecc2e440d2dce85c408edee84060f602b1b60208201526001600160701b0319607083901b16603b82015290925060009150604d01613df9565b600081600e6147db8161389a565b5060006147e9856008613e42565b9050806001600160401b03166147fe82613f8b565b60ff1661480b9190615c1f565b613888906008615c1f565b60781c6001600160601b031690565b6060600061483286614454565b915050600061484086614454565b915050600061484e86614454565b915050600061485c86614454565b604080517f54797065644d656d566965772f696e646578202d204f76657272616e20746865602082015274040ecd2caee5c40a6d8d2c6ca40d2e640c2e84060f605b1b818301526001600160d01b031960d098891b811660558301526e040eed2e8d040d8cadccee8d04060f608b1b605b830181905297891b8116606a8301527f2e20417474656d7074656420746f20696e646578206174206f666673657420306070830152600f60fb1b609083015295881b861660918201526097810196909652951b90921660a68401525050601760f91b60ac8201528151808203608d01815260ad90910190915295945050505050565b600061496160048360ff16901c614a0f565b60ff1661ffff919091161760081b61497882614a0f565b60ff1617919050565b600061498c82613e2b565b61499583614816565b61499f9190615c87565b6001600160601b031692915050565b600060ff8211156145985760405162461bcd60e51b815260206004820152602560248201527f53616665436173743a2076616c756520646f65736e27742066697420696e2038604482015264206269747360d81b6064820152608401610774565b600060f08083179060ff82161415614a2a5750603092915050565b8060ff1660f11415614a3f5750603192915050565b8060ff1660f21415614a545750603292915050565b8060ff1660f31415614a695750603392915050565b8060ff1660f41415614a7e5750603492915050565b8060ff1660f51415614a935750603592915050565b8060ff1660f61415614aa85750603692915050565b8060ff1660f71415614abd5750603792915050565b8060ff1660f81415614ad25750603892915050565b8060ff1660f91415614ae75750603992915050565b8060ff1660fa1415614afc5750606192915050565b8060ff1660fb1415614b115750606292915050565b8060ff1660fc1415614b265750606392915050565b8060ff1660fd1415614b3b5750606492915050565b8060ff1660fe1415614b505750606592915050565b8060ff1660ff1415614b655750606692915050565b50919050565b828054614b7790615d7b565b90600052602060002090601f016020900481019282614b995760008555614bdf565b82601f10614bb257805160ff1916838001178555614bdf565b82800160010185558215614bdf579182015b82811115614bdf578251825591602001919060010190614bc4565b506145989291505b808211156145985760008155600101614be7565b8035613fe481615df7565b60008083601f840112614c17578182fd5b5081356001600160401b03811115614c2d578182fd5b6020830191508360208260051b8501011115614c4857600080fd5b9250929050565b600082601f830112614c5f578081fd5b81356020614c74614c6f83615bfc565b615bcc565b80838252828201915082860187848660051b8901011115614c93578586fd5b855b85811015614cb857614ca682614d2d565b84529284019290840190600101614c95565b5090979650505050505050565b600082601f830112614cd5578081fd5b81356020614ce5614c6f83615bfc565b80838252828201915082860187848660051b8901011115614d04578586fd5b855b85811015614cb857813584529284019290840190600101614d06565b8035613fe481615e0c565b80356001600160e01b031981168114613fe457600080fd5b60008083601f840112614d56578182fd5b5081356001600160401b03811115614d6c578182fd5b602083019150836020828501011115614c4857600080fd5b600082601f830112614d94578081fd5b81356001600160401b03811115614dad57614dad615de1565b614dc0601f8201601f1916602001615bcc565b818152846020838601011115614dd4578283fd5b816020850160208301379081016020019190915292915050565b803560068110613fe457600080fd5b600060208284031215614e0e578081fd5b8135613d4a81615df7565b600060208284031215614e2a578081fd5b8151613d4a81615df7565b6000806000806000806000806000806000806101208d8f031215614e57578788fd5b614e608d614bfb565b9b506001600160401b0360208e01351115614e79578788fd5b614e898e60208f01358f01614c06565b909b509950614e9a60408e01614d22565b98506001600160401b0360608e01351115614eb3578788fd5b614ec38e60608f01358f01614c06565b909850965060808d013595506001600160401b0360a08e01351115614ee6578485fd5b614ef68e60a08f01358f01614d84565b9450614f0460c08e01614dee565b93506001600160401b0360e08e01351115614f1d578283fd5b614f2d8e60e08f01358f01614d45565b81945080935050506101008d013590509295989b509295989b509295989b565b60008060408385031215614f5f578182fd5b8235614f6a81615df7565b946020939093013593505050565b600060208284031215614f89578081fd5b8151613d4a81615e0c565b60008060408385031215614fa6578182fd5b8251614fb181615e0c565b809250506020808401516001600160401b03811115614fce578283fd5b8401601f81018613614fde578283fd5b8051614fec614c6f82615bfc565b80828252848201915084840189868560051b870101111561500b578687fd5b8694505b8385101561502d57805183526001949094019391850191850161500f565b5080955050505050509250929050565b60006020828403121561504e578081fd5b5035919050565b600060208284031215615066578081fd5b5051919050565b6000806000806000806000806000806101408b8d03121561508c578384fd5b6150958b614d2d565b995060208b01356001600160401b03808211156150b0578586fd5b6150bc8e838f01614d84565b9a5060408d01359150808211156150d1578586fd5b6150dd8e838f01614d84565b99506150eb60608e01614d2d565b985060808d0135975060a08d0135915080821115615107578586fd5b6151138e838f01614d84565b965060c08d0135955060e08d013591508082111561512f578485fd5b61513b8e838f01614d84565b94506101008d0135915080821115615151578384fd5b61515d8e838f01614cc5565b93506101208d0135915080821115615173578283fd5b506151808d828e01614cc5565b9150509295989b9194979a5092959850565b6000806000604084860312156151a6578081fd5b83356001600160401b03808211156151bc578283fd5b6151c887838801614d45565b909550935060208601359150808211156151e0578283fd5b506151ed86828701614cc5565b9150509250925092565b60008060008060008060008060006101208a8c031215615215578283fd5b89356001600160401b038082111561522b578485fd5b6152378d838e01614d84565b9a5060208c013591508082111561524c578485fd5b6152588d838e01614c4f565b995060408c013591508082111561526d578485fd5b6152798d838e01614d84565b985060608c013591508082111561528e578485fd5b61529a8d838e01614d84565b975060808c01359150808211156152af578485fd5b6152bb8d838e01614d84565b965060a08c01359150808211156152d0578485fd5b6152dc8d838e01614d84565b955060c08c01359150808211156152f1578485fd5b6152fd8d838e01614c4f565b945060e08c0135915080821115615312578384fd5b61531e8d838e01614d84565b93506101008c0135915080821115615334578283fd5b506153418c828d01614cc5565b9150509295985092959850929598565b60008060408385031215615363578182fd5b82359150602083013561537581615df7565b809150509250929050565b6000806000806000806000806000806101408b8d03121561539f578384fd5b8a35995060208b01356153b181615df7565b985060408b01356153c181615df7565b975060608b01356153d181615df7565b965060808b01356153e181615df7565b955060a08b0135945060c08b0135935060e08b013592506101008b013591506101208b013561540f81615df7565b809150509295989b9194979a5092959850565b60008060008060008060a0878903121561543a578384fd5b8635955060208701356001600160401b0380821115615457578586fd5b6154638a838b01614d84565b965061547160408a01614dee565b95506060890135915080821115615486578384fd5b5061549389828a01614d45565b979a9699509497949695608090950135949350505050565b600080604083850312156154bd578182fd5b50508035926020909101359150565b6001600160a01b03169052565b6000815180845260208085019450808401835b838110156155125781516001600160e01b031916875295820195908201906001016154ec565b509495945050505050565b6000826060810183835b60038110156155565783830387526155408383516155b9565b6020978801979093509190910190600101615527565b509095945050505050565b6000815180845260208085019450808401835b8381101561551257815187529582019590820190600101615574565b81835281816020850137506000828201602090810191909152601f909101601f19169091010190565b600081518084526155d1816020860160208601615d4b565b601f01601f19169290920160200192915050565b6006811061560357634e487b7160e01b600052602160045260246000fd5b9052565b600063ffffffff60e01b80871683528551615629816004860160208a01615d4b565b855190840190615640816004840160208a01615d4b565b919094169301600481019390935250506008019392505050565b6000825161566c818460208701615d4b565b9190910192915050565b6001600160a01b0391909116815260200190565b6001600160a01b0392831681529116602082015260400190565b6001600160a01b039384168152919092166020820152604081019190915260600190565b60018060a01b038616815284602082015283604082015260a0606082015260006156f560a08301856155b9565b90508260808301529695505050505050565b615711818e6154cc565b6101806020820152600061572961018083018e6155b9565b828103604084015261573b818e6154d9565b9050828103606084015261574f818d61551d565b90508a60808401528960a084015261576a60c084018a6154cc565b8760e08401528661010084015282810361012084015261578a81876154d9565b905082810361014084015261579f81866155b9565b90508281036101608401526157b48185615561565b9f9e505050505050505050505050505050565b6001600160a01b038616815260a0602082018190526000906157eb908301876155b9565b604083019590955250606081019290925260809091015292915050565b6001600160a01b03929092168252602082015260400190565b602081526000612b8d602083018486615590565b604081526000615849604083018587615590565b9050826020830152949350505050565b602081526000613d4a60208301846155b9565b60808152600061587f60808301886155b9565b61588c60208401886155e5565b6001600160a01b038616604084015282810360608401526158ae818587615590565b98975050505050505050565b60006101a08083526158ce8184018c6155b9565b91505060206158df8184018b6155e5565b6001600160a01b0389811660408501526060840189905260808401889052861660a084015260c083018560005b60038110156159295781518352918301919083019060010161590c565b50505061012083018460005b600481101561595257815183529183019190830190600101615935565b505050509998505050505050505050565b85815284602082015260a06040820152600061598260a08301866155b9565b828103606084015261599481866155b9565b9150508260808301529695505050505050565b6020808252601b908201527a109a5d18dbda5b92195b1c195c8e881d9bdd5d081a5cc81b9d5b1b602a1b604082015260600190565b6020808252601b908201527a213ab9372937baba32b92637b3b4b19d103737ba103637b1b5b2b960291b604082015260600190565b6020808252602b908201527f496e697469616c697a61626c653a20636f6e7472616374206973206e6f74206960408201526a6e697469616c697a696e6760a81b606082015260800190565b6020808252601d908201527f4275726e526f757465724c6f6769633a20696e76616c69642070617468000000604082015260600190565b888152602081018890526001600160a01b038716604082015261010060608201819052600090615ac5838201896155b9565b91505085608083015284151560a0830152615ae360c08301856155e5565b8260e08301529998505050505050505050565b878152602080820188905260c0604083018190528201869052600090879060e08401835b89811015615b48578335615b2d81615df7565b6001600160a01b031682529282019290820190600101615b1a565b506001600160a01b039790971660608501525050506080810192909252151560a090910152949350505050565b878152602081018790526001600160e01b0319861660408201526001600160a01b038516606082015260e060808201819052600090615bb6908301866155b9565b60a08301949094525060c0015295945050505050565b604051601f8201601f191681016001600160401b0381118282101715615bf457615bf4615de1565b604052919050565b60006001600160401b03821115615c1557615c15615de1565b5060051b60200190565b60008219821115615c3257615c32615dcb565b500190565b60006001600160401b03808316818516808303821115615c5957615c59615dcb565b01949350505050565b600060ff821660ff84168060ff03821115615c7f57615c7f615dcb565b019392505050565b60006001600160601b03828116848216808303821115615c5957615c59615dcb565b600082615cc457634e487b7160e01b81526012600452602481fd5b500490565b6000816000190483118215151615615ce357615ce3615dcb565b500290565b600060ff821660ff84168160ff0481118215151615615d0957615d09615dcb565b029392505050565b600082821015615d2357615d23615dcb565b500390565b600060ff821660ff841680821015615d4257615d42615dcb565b90039392505050565b60005b83811015615d66578181015183820152602001615d4e565b83811115615d75576000848401525b50505050565b600181811c90821680615d8f57607f821691505b60208210811415614b6557634e487b7160e01b600052602260045260246000fd5b6000600019821415615dc457615dc4615dcb565b5060010190565b634e487b7160e01b600052601160045260246000fd5b634e487b7160e01b600052604160045260246000fd5b6001600160a01b0381168114611e5457600080fd5b8015158114611e5457600080fdfea2646970667358221220ce8285041c42ce62ccea84c8f8536bc4666a5ddf040f2eb23da4ae307051742664736f6c63430008040033",
  "libraries": {
    "BurnRouterLib": "0xDd833309e9E9EAd3a7c4520D53e02e685C3751eB"
  },
  "devdoc": {
    "kind": "dev",
    "methods": {
      "burnProof(bytes4,bytes,bytes,bytes4,uint256,bytes,uint256,bytes,uint256[],uint256[])": {
        "details": "Makes isTransferred flag true for the paid requests",
        "params": {
          "_blockNumber": "Height of the block containing the Bitcoin tx",
          "_burnReqIndexes": "Indexes of requests that locker wants to provide proof for them",
          "_index": "Index of the Bitcoin tx the block",
          "_intermediateNodes": "Merkle inclusion proof for the Bitcoin tx",
          "_lockerLockingScript": "Locker's locking script that this burn request belongs to",
          "_locktime": "Lock time of the Bitcoin tx",
          "_version": "Version of the Bitcoin tx",
          "_vin": "Inputs of the Bitcoin tx",
          "_vout": "Outputs of the Bitcoin tx",
          "_voutIndexes": "Indexes of outputs that were used to pay burn requests.                     _voutIndexes[i] belongs to _burnReqIndexes[i]"
        }
      },
      "disputeBurn(bytes,uint256[])": {
        "params": {
          "_indices": "Indices of requests that their deadline has passed",
          "_lockerLockingScript": "Locker's locking script that the unpaid request belongs to"
        }
      },
      "disputeLocker(bytes,bytes4[],bytes,bytes,bytes,bytes,bytes4[],bytes,uint256[])": {
        "details": "Input tx is a malicious tx which shows that locker spent BTC      Output tx is the tx that was spent by locker in input tx      Output tx shows money goes to locker      Input tx shows locker steals the funds",
        "params": {
          "_indexesAndBlockNumbers": "Indices of malicious input in input tx,                                input tx in block and block number of input tx",
          "_inputIntermediateNodes": "Merkle inclusion proof for the malicious transaction",
          "_inputVin": "Inputs of the malicious transaction",
          "_inputVout": "Outputs of the malicious transaction",
          "_lockerLockingScript": "Suspicious locker's locking script",
          "_locktimes": "Locktimes of input and output tx",
          "_outputVin": "Inputs of the spent transaction",
          "_outputVout": "Outputs of the spent transaction",
          "_versions": "Versions of input and output tx"
        }
      },
      "initialize(uint256,address,address,address,address,uint256,uint256,uint256,uint256,address)": {
        "params": {
          "_lockers": "Address of lockers contract",
          "_networkFee": "Fee of submitting a transaction on Network",
          "_protocolPercentageFee": "Percentage of tokens that user pays to protocol for burning",
          "_relay": "Address of relay contract",
          "_slasherPercentageReward": "Percentage of tokens that slasher receives after slashing a locker",
          "_startingBlockNumber": "Requests that are included in a block older                             than _startingBlockNumber cannot be executed",
          "_teleBTC": "Address of teleBTC contract",
          "_transferDeadline": "of sending BTC to user (aster submitting a burn request)",
          "_treasury": "Address of the treasury of the protocol"
        }
      },
      "isTransferred(address,uint256)": {
        "params": {
          "_index": "the request for the locker",
          "_lockerTargetAddress": "Locker address on the target chain"
        }
      },
      "owner()": {
        "details": "Returns the address of the current owner."
      },
      "renounceOwnership()": {
        "details": "Leaves the contract without owner. It will not be possible to call `onlyOwner` functions. Can only be called by the current owner. NOTE: Renouncing ownership will leave the contract without an owner, thereby disabling any functionality that is only available to the owner."
      },
      "setLockers(address)": {
        "details": "Only owner can call this",
        "params": {
          "_lockers": "The new lockers contract address"
        }
      },
      "setNetworkFee(uint256)": {
        "details": "Only owner can call this",
        "params": {
          "_networkFee": "The new Bitcoin transaction fee"
        }
      },
      "setNetworkFeeOracle(address)": {
        "details": "Only owner can call this",
        "params": {
          "_networkFeeOracle": "Address of oracle who can update burn fee"
        }
      },
      "setProtocolPercentageFee(uint256)": {
        "details": "Only owner can call this",
        "params": {
          "_protocolPercentageFee": "The new protocol percentage fee"
        }
      },
      "setRelay(address)": {
        "details": "Only owner can call this",
        "params": {
          "_relay": "The new relay contract address"
        }
      },
      "setSlasherPercentageReward(uint256)": {
        "details": "Only owner can call this",
        "params": {
          "_slasherPercentageReward": "The new slasher percentage reward"
        }
      },
      "setTeleBTC(address)": {
        "details": "Only owner can call this",
        "params": {
          "_teleBTC": "The new teleBTC contract address"
        }
      },
      "setThirdPartyAddress(uint256,address)": {
        "details": "Only owner can call this",
        "params": {
          "_thirdPartyAddress": "third party address"
        }
      },
      "setThirdPartyFee(uint256,uint256)": {
        "details": "Only owner can call this",
        "params": {
          "_thirdPartyFee": "third party fee"
        }
      },
      "setTransferDeadline(uint256)": {
        "details": "Only owner can call this      Deadline should be greater than relay finalization parameter",
        "params": {
          "_transferDeadline": "The new transfer deadline"
        }
      },
      "setTreasury(address)": {
        "details": "Only owner can call this",
        "params": {
          "_treasury": "The new treasury address"
        }
      },
      "swapAndUnwrap(address,uint256[],bool,address[],uint256,bytes,uint8,bytes,uint256)": {
        "details": "After exchanging, rest of the process is similar to ccBurn",
        "params": {
          "_amounts": "[inputTokenAmount, teleBTCAmount]",
          "_deadline": "of exchanging",
          "_exchangeConnector": "Address of exchange connectBurnRouterLogicor to be used",
          "_isFixedToken": "True if input token amount is fixed",
          "_path": "of exchanging inputToken to teleBTC",
          "thirdParty": "Third party id"
        },
        "returns": {
          "_0": "Amount of BTC that user receives"
        }
      },
      "transferOwnership(address)": {
        "details": "Transfers ownership of the contract to a new account (`newOwner`). Can only be called by the current owner."
      },
      "unwrap(uint256,bytes,uint8,bytes,uint256)": {
        "details": "After submitting the burn request, Locker has a limited time      to send BTC and provide burn proof",
        "params": {
          "_amount": "of teleBTC that user wants to burn",
          "_lockerLockingScript": "of locker that should execute the burn request",
          "_scriptType": "User script type",
          "_userScript": "User script hash",
          "thirdParty": "Third party id"
        },
        "returns": {
          "_0": "Amount of BTC that user receives"
        }
      }
    },
    "version": 1
  },
  "userdoc": {
    "events": {
      "LockerDispute(address,bytes,uint256,bytes32,uint256)": {
        "notice": "Emits when a locker gets slashed for withdrawing BTC without proper reason"
      },
      "NewLockers(address,address)": {
        "notice": "Emits when lockers address is updated"
      },
      "NewNetworkFee(uint256,uint256)": {
        "notice": "Emits when network fee is updated"
      },
      "NewNetworkFeeOracle(address,address)": {
        "notice": "Emits when network fee oracle is updated"
      },
      "NewProtocolPercentageFee(uint256,uint256)": {
        "notice": "Emits when percentage fee is updated"
      },
      "NewRelay(address,address)": {
        "notice": "Emits when relay address is updated"
      },
      "NewSlasherPercentageFee(uint256,uint256)": {
        "notice": "Emits when slasher percentage fee is updated"
      },
      "NewTeleBTC(address,address)": {
        "notice": "Emits when TeleBTC address is updated"
      },
      "NewThirdPartyAddress(uint256,address,address)": {
        "notice": "Emits when changes made to third party address"
      },
      "NewThirdPartyFee(uint256,uint256,uint256)": {
        "notice": "Emits when changes made to third party fee"
      },
      "NewTransferDeadline(uint256,uint256)": {
        "notice": "Emits when transfer deadline is updated"
      },
      "NewTreasury(address,address)": {
        "notice": "Emits when treasury address is updated"
      },
      "NewUnwrap(bytes,uint8,address,address,uint256,uint256,uint256,address,uint256[3],uint256[4])": {
        "notice": "Emits when a burn request gets submitted"
      },
      "PaidUnwrap(address,uint256,bytes32,uint256)": {
        "notice": "Emits when a burn proof is provided"
      }
    },
    "kind": "user",
    "methods": {
      "burnProof(bytes4,bytes,bytes,bytes4,uint256,bytes,uint256,bytes,uint256[],uint256[])": {
        "notice": "Checks the correctness of burn proof (which is a Bitcoin tx)"
      },
      "disputeBurn(bytes,uint256[])": {
        "notice": "Slashes a locker if did not pay a cc burn request before its deadline"
      },
      "disputeLocker(bytes,bytes4[],bytes,bytes,bytes,bytes,bytes4[],bytes,uint256[])": {
        "notice": "Slashes a locker if they issue a tx that doesn't match any burn request"
      },
      "initialize(uint256,address,address,address,address,uint256,uint256,uint256,uint256,address)": {
        "notice": "Handles cross-chain burn requests"
      },
      "isTransferred(address,uint256)": {
        "notice": "Returns true is request has been processed"
      },
      "setLockers(address)": {
        "notice": "Updates lockers contract address"
      },
      "setNetworkFee(uint256)": {
        "notice": "Updates Bitcoin transaction fee"
      },
      "setNetworkFeeOracle(address)": {
        "notice": "Updates Bitcoin oracle"
      },
      "setProtocolPercentageFee(uint256)": {
        "notice": "Updates protocol percentage fee for burning tokens"
      },
      "setRelay(address)": {
        "notice": "Updates relay contract address"
      },
      "setSlasherPercentageReward(uint256)": {
        "notice": "Updates slasher percentage reward for disputing lockers"
      },
      "setStartingBlockNumber(uint256)": {
        "notice": "Setter for starting block number"
      },
      "setTeleBTC(address)": {
        "notice": "Updates teleBTC contract address"
      },
      "setThirdPartyAddress(uint256,address)": {
        "notice": "Setter for third party address"
      },
      "setThirdPartyFee(uint256,uint256)": {
        "notice": "Setter for third party fee"
      },
      "setTransferDeadline(uint256)": {
        "notice": "Updates deadline of executing burn requests"
      },
      "setTreasury(address)": {
        "notice": "Updates protocol treasury address"
      },
      "setWrappedNativeToken(address)": {
        "notice": "Change the wrapped native token address"
      },
      "swapAndUnwrap(address,uint256[],bool,address[],uint256,bytes,uint8,bytes,uint256)": {
        "notice": "Exchanges input token for teleBTC then burns it"
      },
      "unwrap(uint256,bytes,uint8,bytes,uint256)": {
        "notice": "Records users burn request"
      }
    },
    "version": 1
  },
  "storageLayout": {
    "storage": [
      {
        "astId": 20043,
        "contract": "contracts/routers/BurnRouterLogic.sol:BurnRouterLogic",
        "label": "relay",
        "offset": 0,
        "slot": "0",
        "type": "t_address"
      },
      {
        "astId": 20046,
        "contract": "contracts/routers/BurnRouterLogic.sol:BurnRouterLogic",
        "label": "lockers",
        "offset": 0,
        "slot": "1",
        "type": "t_address"
      },
      {
        "astId": 20049,
        "contract": "contracts/routers/BurnRouterLogic.sol:BurnRouterLogic",
        "label": "teleBTC",
        "offset": 0,
        "slot": "2",
        "type": "t_address"
      },
      {
        "astId": 20052,
        "contract": "contracts/routers/BurnRouterLogic.sol:BurnRouterLogic",
        "label": "treasury",
        "offset": 0,
        "slot": "3",
        "type": "t_address"
      },
      {
        "astId": 20055,
        "contract": "contracts/routers/BurnRouterLogic.sol:BurnRouterLogic",
        "label": "bitcoinFeeOracle",
        "offset": 0,
        "slot": "4",
        "type": "t_address"
      },
      {
        "astId": 20058,
        "contract": "contracts/routers/BurnRouterLogic.sol:BurnRouterLogic",
        "label": "startingBlockNumber",
        "offset": 0,
        "slot": "5",
        "type": "t_uint256"
      },
      {
        "astId": 20061,
        "contract": "contracts/routers/BurnRouterLogic.sol:BurnRouterLogic",
        "label": "transferDeadline",
        "offset": 0,
        "slot": "6",
        "type": "t_uint256"
      },
      {
        "astId": 20064,
        "contract": "contracts/routers/BurnRouterLogic.sol:BurnRouterLogic",
        "label": "protocolPercentageFee",
        "offset": 0,
        "slot": "7",
        "type": "t_uint256"
      },
      {
        "astId": 20067,
        "contract": "contracts/routers/BurnRouterLogic.sol:BurnRouterLogic",
        "label": "slasherPercentageReward",
        "offset": 0,
        "slot": "8",
        "type": "t_uint256"
      },
      {
        "astId": 20070,
        "contract": "contracts/routers/BurnRouterLogic.sol:BurnRouterLogic",
        "label": "bitcoinFee",
        "offset": 0,
        "slot": "9",
        "type": "t_uint256"
      },
      {
        "astId": 20076,
        "contract": "contracts/routers/BurnRouterLogic.sol:BurnRouterLogic",
        "label": "burnRequests",
        "offset": 0,
        "slot": "10",
        "type": "t_mapping(t_address,t_array(t_struct(burnRequest)23099_storage)dyn_storage)"
      },
      {
        "astId": 20080,
        "contract": "contracts/routers/BurnRouterLogic.sol:BurnRouterLogic",
        "label": "burnRequestCounter",
        "offset": 0,
        "slot": "11",
        "type": "t_mapping(t_address,t_uint256)"
      },
      {
        "astId": 20085,
        "contract": "contracts/routers/BurnRouterLogic.sol:BurnRouterLogic",
        "label": "isUsedAsBurnProof",
        "offset": 0,
        "slot": "12",
        "type": "t_mapping(t_bytes32,t_bool)"
      },
      {
        "astId": 326,
        "contract": "contracts/routers/BurnRouterLogic.sol:BurnRouterLogic",
        "label": "_initialized",
        "offset": 0,
        "slot": "13",
        "type": "t_uint8"
      },
      {
        "astId": 329,
        "contract": "contracts/routers/BurnRouterLogic.sol:BurnRouterLogic",
        "label": "_initializing",
        "offset": 1,
        "slot": "13",
        "type": "t_bool"
      },
      {
        "astId": 1797,
        "contract": "contracts/routers/BurnRouterLogic.sol:BurnRouterLogic",
        "label": "__gap",
        "offset": 0,
        "slot": "14",
        "type": "t_array(t_uint256)50_storage"
      },
      {
        "astId": 198,
        "contract": "contracts/routers/BurnRouterLogic.sol:BurnRouterLogic",
        "label": "_owner",
        "offset": 0,
        "slot": "64",
        "type": "t_address"
      },
      {
        "astId": 318,
        "contract": "contracts/routers/BurnRouterLogic.sol:BurnRouterLogic",
        "label": "__gap",
        "offset": 0,
        "slot": "65",
        "type": "t_array(t_uint256)49_storage"
      },
      {
        "astId": 631,
        "contract": "contracts/routers/BurnRouterLogic.sol:BurnRouterLogic",
        "label": "_status",
        "offset": 0,
        "slot": "114",
        "type": "t_uint256"
      },
      {
        "astId": 700,
        "contract": "contracts/routers/BurnRouterLogic.sol:BurnRouterLogic",
        "label": "__gap",
        "offset": 0,
        "slot": "115",
        "type": "t_array(t_uint256)49_storage"
      },
      {
        "astId": 20095,
        "contract": "contracts/routers/BurnRouterLogic.sol:BurnRouterLogic",
        "label": "thirdPartyFee",
        "offset": 0,
        "slot": "164",
        "type": "t_mapping(t_uint256,t_uint256)"
      },
      {
        "astId": 20099,
        "contract": "contracts/routers/BurnRouterLogic.sol:BurnRouterLogic",
        "label": "thirdPartyAddress",
        "offset": 0,
        "slot": "165",
        "type": "t_mapping(t_uint256,t_address)"
      },
      {
        "astId": 20101,
        "contract": "contracts/routers/BurnRouterLogic.sol:BurnRouterLogic",
        "label": "wrappedNativeToken",
        "offset": 0,
        "slot": "166",
        "type": "t_address"
      }
    ],
    "types": {
      "t_address": {
        "encoding": "inplace",
        "label": "address",
        "numberOfBytes": "20"
      },
      "t_array(t_struct(burnRequest)23099_storage)dyn_storage": {
        "base": "t_struct(burnRequest)23099_storage",
        "encoding": "dynamic_array",
        "label": "struct IBurnRouter.burnRequest[]",
        "numberOfBytes": "32"
      },
      "t_array(t_uint256)49_storage": {
        "base": "t_uint256",
        "encoding": "inplace",
        "label": "uint256[49]",
        "numberOfBytes": "1568"
      },
      "t_array(t_uint256)50_storage": {
        "base": "t_uint256",
        "encoding": "inplace",
        "label": "uint256[50]",
        "numberOfBytes": "1600"
      },
      "t_bool": {
        "encoding": "inplace",
        "label": "bool",
        "numberOfBytes": "1"
      },
      "t_bytes32": {
        "encoding": "inplace",
        "label": "bytes32",
        "numberOfBytes": "32"
      },
      "t_bytes_storage": {
        "encoding": "bytes",
        "label": "bytes",
        "numberOfBytes": "32"
      },
      "t_enum(ScriptTypes)8680": {
        "encoding": "inplace",
        "label": "enum ScriptTypes",
        "numberOfBytes": "1"
      },
      "t_mapping(t_address,t_array(t_struct(burnRequest)23099_storage)dyn_storage)": {
        "encoding": "mapping",
        "key": "t_address",
        "label": "mapping(address => struct IBurnRouter.burnRequest[])",
        "numberOfBytes": "32",
        "value": "t_array(t_struct(burnRequest)23099_storage)dyn_storage"
      },
      "t_mapping(t_address,t_uint256)": {
        "encoding": "mapping",
        "key": "t_address",
        "label": "mapping(address => uint256)",
        "numberOfBytes": "32",
        "value": "t_uint256"
      },
      "t_mapping(t_bytes32,t_bool)": {
        "encoding": "mapping",
        "key": "t_bytes32",
        "label": "mapping(bytes32 => bool)",
        "numberOfBytes": "32",
        "value": "t_bool"
      },
      "t_mapping(t_uint256,t_address)": {
        "encoding": "mapping",
        "key": "t_uint256",
        "label": "mapping(uint256 => address)",
        "numberOfBytes": "32",
        "value": "t_address"
      },
      "t_mapping(t_uint256,t_uint256)": {
        "encoding": "mapping",
        "key": "t_uint256",
        "label": "mapping(uint256 => uint256)",
        "numberOfBytes": "32",
        "value": "t_uint256"
      },
      "t_struct(burnRequest)23099_storage": {
        "encoding": "inplace",
        "label": "struct IBurnRouter.burnRequest",
        "members": [
          {
            "astId": 23083,
            "contract": "contracts/routers/BurnRouterLogic.sol:BurnRouterLogic",
            "label": "amount",
            "offset": 0,
            "slot": "0",
            "type": "t_uint256"
          },
          {
            "astId": 23085,
            "contract": "contracts/routers/BurnRouterLogic.sol:BurnRouterLogic",
            "label": "burntAmount",
            "offset": 0,
            "slot": "1",
            "type": "t_uint256"
          },
          {
            "astId": 23087,
            "contract": "contracts/routers/BurnRouterLogic.sol:BurnRouterLogic",
            "label": "sender",
            "offset": 0,
            "slot": "2",
            "type": "t_address"
          },
          {
            "astId": 23089,
            "contract": "contracts/routers/BurnRouterLogic.sol:BurnRouterLogic",
            "label": "userScript",
            "offset": 0,
            "slot": "3",
            "type": "t_bytes_storage"
          },
          {
            "astId": 23091,
            "contract": "contracts/routers/BurnRouterLogic.sol:BurnRouterLogic",
            "label": "deadline",
            "offset": 0,
            "slot": "4",
            "type": "t_uint256"
          },
          {
            "astId": 23093,
            "contract": "contracts/routers/BurnRouterLogic.sol:BurnRouterLogic",
            "label": "isTransferred",
            "offset": 0,
            "slot": "5",
            "type": "t_bool"
          },
          {
            "astId": 23096,
            "contract": "contracts/routers/BurnRouterLogic.sol:BurnRouterLogic",
            "label": "scriptType",
            "offset": 1,
            "slot": "5",
            "type": "t_enum(ScriptTypes)8680"
          },
          {
            "astId": 23098,
            "contract": "contracts/routers/BurnRouterLogic.sol:BurnRouterLogic",
            "label": "requestIdOfLocker",
            "offset": 0,
            "slot": "6",
            "type": "t_uint256"
          }
        ],
        "numberOfBytes": "224"
      },
      "t_uint256": {
        "encoding": "inplace",
        "label": "uint256",
        "numberOfBytes": "32"
      },
      "t_uint8": {
        "encoding": "inplace",
        "label": "uint8",
        "numberOfBytes": "1"
      }
    }
  }
}