{
  "address": "0x45e4d542c570fb6194467FFEDF7cc09867279a96",
  "abi": [
    {
      "inputs": [],
      "name": "ZeroAddress",
      "type": "error"
    },
    {
      "anonymous": false,
      "inputs": [
        {
          "indexed": false,
          "internalType": "address",
          "name": "oldAcross",
          "type": "address"
        },
        {
          "indexed": false,
          "internalType": "address",
          "name": "newAcross",
          "type": "address"
        }
      ],
      "name": "AcrossUpdated",
      "type": "event"
    },
    {
      "anonymous": false,
      "inputs": [
        {
          "indexed": false,
          "internalType": "address",
          "name": "oldBurnRouter",
          "type": "address"
        },
        {
          "indexed": false,
          "internalType": "address",
          "name": "newBurnRouter",
          "type": "address"
        }
      ],
      "name": "BurnRouterUpdated",
      "type": "event"
    },
    {
      "anonymous": false,
      "inputs": [
        {
          "indexed": false,
          "internalType": "address",
          "name": "oldEthConnector",
          "type": "address"
        },
        {
          "indexed": false,
          "internalType": "address",
          "name": "newEthConnector",
          "type": "address"
        }
      ],
      "name": "EthConnectorUpdated",
      "type": "event"
    },
    {
      "anonymous": false,
      "inputs": [
        {
          "indexed": false,
          "internalType": "uint256",
          "name": "chainId",
          "type": "uint256"
        },
        {
          "indexed": false,
          "internalType": "address",
          "name": "exchangeConnector",
          "type": "address"
        },
        {
          "indexed": false,
          "internalType": "address",
          "name": "inputToken",
          "type": "address"
        },
        {
          "indexed": false,
          "internalType": "uint256",
          "name": "inputAmount",
          "type": "uint256"
        },
        {
          "indexed": true,
          "internalType": "address",
          "name": "userTargetAddress",
          "type": "address"
        },
        {
          "indexed": false,
          "internalType": "bytes",
          "name": "userScript",
          "type": "bytes"
        },
        {
          "indexed": false,
          "internalType": "enum ScriptTypes",
          "name": "scriptType",
          "type": "uint8"
        },
        {
          "indexed": false,
          "internalType": "address[]",
          "name": "path",
          "type": "address[]"
        }
      ],
      "name": "FailedSwapAndUnwrap",
      "type": "event"
    },
    {
      "anonymous": false,
      "inputs": [
        {
          "indexed": false,
          "internalType": "uint8",
          "name": "version",
          "type": "uint8"
        }
      ],
      "name": "Initialized",
      "type": "event"
    },
    {
      "anonymous": false,
      "inputs": [
        {
          "indexed": false,
          "internalType": "address",
          "name": "oldLockersProxy",
          "type": "address"
        },
        {
          "indexed": false,
          "internalType": "address",
          "name": "newLockersProxy",
          "type": "address"
        }
      ],
      "name": "LockersProxyUpdated",
      "type": "event"
    },
    {
      "anonymous": false,
      "inputs": [
        {
          "indexed": false,
          "internalType": "string",
          "name": "functionName",
          "type": "string"
        },
        {
          "indexed": false,
          "internalType": "uint256",
          "name": "uniqueCounter",
          "type": "uint256"
        },
        {
          "indexed": false,
          "internalType": "uint256",
          "name": "chainId",
          "type": "uint256"
        },
        {
          "indexed": false,
          "internalType": "bytes",
          "name": "data",
          "type": "bytes"
        }
      ],
      "name": "MsgReceived",
      "type": "event"
    },
    {
      "anonymous": false,
      "inputs": [
        {
          "indexed": false,
          "internalType": "uint256",
          "name": "chainId",
          "type": "uint256"
        },
        {
          "indexed": false,
          "internalType": "address",
          "name": "exchangeConnector",
          "type": "address"
        },
        {
          "indexed": false,
          "internalType": "address",
          "name": "inputToken",
          "type": "address"
        },
        {
          "indexed": false,
          "internalType": "uint256",
          "name": "inputAmount",
          "type": "uint256"
        },
        {
          "indexed": true,
          "internalType": "address",
          "name": "userTargetAddress",
          "type": "address"
        },
        {
          "indexed": false,
          "internalType": "bytes",
          "name": "userScript",
          "type": "bytes"
        },
        {
          "indexed": false,
          "internalType": "enum ScriptTypes",
          "name": "scriptType",
          "type": "uint8"
        },
        {
          "indexed": false,
          "internalType": "address",
          "name": "lockerTargetAddress",
          "type": "address"
        },
        {
          "indexed": false,
          "internalType": "uint256",
          "name": "requestIdOfLocker",
          "type": "uint256"
        },
        {
          "indexed": false,
          "internalType": "address[]",
          "name": "path",
          "type": "address[]"
        }
      ],
      "name": "NewSwapAndUnwrap",
      "type": "event"
    },
    {
      "anonymous": false,
      "inputs": [
        {
          "indexed": true,
          "internalType": "address",
          "name": "previousOwner",
          "type": "address"
        },
        {
          "indexed": true,
          "internalType": "address",
          "name": "newOwner",
          "type": "address"
        }
      ],
      "name": "OwnershipTransferred",
      "type": "event"
    },
    {
      "anonymous": false,
      "inputs": [
        {
          "indexed": false,
          "internalType": "address",
          "name": "account",
          "type": "address"
        }
      ],
      "name": "Paused",
      "type": "event"
    },
    {
      "anonymous": false,
      "inputs": [
        {
          "indexed": false,
          "internalType": "address",
          "name": "account",
          "type": "address"
        }
      ],
      "name": "Unpaused",
      "type": "event"
    },
    {
      "inputs": [],
      "name": "ETH_ADDR",
      "outputs": [
        {
          "internalType": "address",
          "name": "",
          "type": "address"
        }
      ],
      "stateMutability": "view",
      "type": "function"
    },
    {
      "inputs": [],
      "name": "across",
      "outputs": [
        {
          "internalType": "address",
          "name": "",
          "type": "address"
        }
      ],
      "stateMutability": "view",
      "type": "function"
    },
    {
      "inputs": [],
      "name": "burnRouterProxy",
      "outputs": [
        {
          "internalType": "address",
          "name": "",
          "type": "address"
        }
      ],
      "stateMutability": "view",
      "type": "function"
    },
    {
      "inputs": [
        {
          "internalType": "address",
          "name": "_token",
          "type": "address"
        },
        {
          "internalType": "address",
          "name": "_to",
          "type": "address"
        },
        {
          "internalType": "uint256",
          "name": "_amount",
          "type": "uint256"
        }
      ],
      "name": "emergencyWithdraw",
      "outputs": [],
      "stateMutability": "nonpayable",
      "type": "function"
    },
    {
      "inputs": [
        {
          "internalType": "address",
          "name": "",
          "type": "address"
        },
        {
          "internalType": "uint256",
          "name": "",
          "type": "uint256"
        },
        {
          "internalType": "address",
          "name": "",
          "type": "address"
        }
      ],
      "name": "failedReqs",
      "outputs": [
        {
          "internalType": "uint256",
          "name": "",
          "type": "uint256"
        }
      ],
      "stateMutability": "view",
      "type": "function"
    },
    {
      "inputs": [
        {
          "internalType": "address",
          "name": "_tokenSent",
          "type": "address"
        },
        {
          "internalType": "uint256",
          "name": "_amount",
          "type": "uint256"
        },
        {
          "internalType": "address",
          "name": "",
          "type": "address"
        },
        {
          "internalType": "bytes",
          "name": "_message",
          "type": "bytes"
        }
      ],
      "name": "handleV3AcrossMessage",
      "outputs": [],
      "stateMutability": "nonpayable",
      "type": "function"
    },
    {
      "inputs": [
        {
          "internalType": "address",
          "name": "_lockersProxy",
          "type": "address"
        },
        {
          "internalType": "address",
          "name": "_burnRouterProxy",
          "type": "address"
        },
        {
          "internalType": "address",
          "name": "_across",
          "type": "address"
        }
      ],
      "name": "initialize",
      "outputs": [],
      "stateMutability": "nonpayable",
      "type": "function"
    },
    {
      "inputs": [],
      "name": "lockersProxy",
      "outputs": [
        {
          "internalType": "address",
          "name": "",
          "type": "address"
        }
      ],
      "stateMutability": "view",
      "type": "function"
    },
    {
      "inputs": [],
      "name": "owner",
      "outputs": [
        {
          "internalType": "address",
          "name": "",
          "type": "address"
        }
      ],
      "stateMutability": "view",
      "type": "function"
    },
    {
      "inputs": [],
      "name": "paused",
      "outputs": [
        {
          "internalType": "bool",
          "name": "",
          "type": "bool"
        }
      ],
      "stateMutability": "view",
      "type": "function"
    },
    {
      "inputs": [],
      "name": "renounceOwnership",
      "outputs": [],
      "stateMutability": "nonpayable",
      "type": "function"
    },
    {
      "inputs": [
        {
          "internalType": "bytes",
          "name": "_message",
          "type": "bytes"
        },
        {
          "internalType": "uint8",
          "name": "_v",
          "type": "uint8"
        },
        {
          "internalType": "bytes32",
          "name": "_r",
          "type": "bytes32"
        },
        {
          "internalType": "bytes32",
          "name": "_s",
          "type": "bytes32"
        }
      ],
      "name": "retrySwapAndUnwrap",
      "outputs": [],
      "stateMutability": "nonpayable",
      "type": "function"
    },
    {
      "inputs": [
        {
          "internalType": "address",
          "name": "_across",
          "type": "address"
        }
      ],
      "name": "setAcross",
      "outputs": [],
      "stateMutability": "nonpayable",
      "type": "function"
    },
    {
      "inputs": [
        {
          "internalType": "address",
          "name": "_burnRouterProxy",
          "type": "address"
        }
      ],
      "name": "setBurnRouterProxy",
      "outputs": [],
      "stateMutability": "nonpayable",
      "type": "function"
    },
    {
      "inputs": [
        {
          "internalType": "address",
          "name": "_lockersProxy",
          "type": "address"
        }
      ],
      "name": "setLockersProxy",
      "outputs": [],
      "stateMutability": "nonpayable",
      "type": "function"
    },
    {
      "inputs": [
        {
          "internalType": "address",
          "name": "newOwner",
          "type": "address"
        }
      ],
      "name": "transferOwnership",
      "outputs": [],
      "stateMutability": "nonpayable",
      "type": "function"
    },
    {
      "inputs": [
        {
          "internalType": "bytes",
          "name": "_message",
          "type": "bytes"
        },
        {
          "internalType": "uint8",
          "name": "_v",
          "type": "uint8"
        },
        {
          "internalType": "bytes32",
          "name": "_r",
          "type": "bytes32"
        },
        {
          "internalType": "bytes32",
          "name": "_s",
          "type": "bytes32"
        }
      ],
      "name": "withdrawFundsToSourceChain",
      "outputs": [],
      "stateMutability": "nonpayable",
      "type": "function"
    },
    {
      "stateMutability": "payable",
      "type": "receive"
    }
  ],
  "transactionHash": "0x1c05f24669af0f3d053925027fc657d0c70534db5ac557575819d63e5d9b39cb",
  "args": [],
  "numDeployments": 1,
  "solcInputHash": "4cbcba5302c0eac2e495d8f535f065be",
  "bytecode": "0x608060405234801561001057600080fd5b506122d8806100206000396000f3fe6080604052600436106100d25760003560e01c8063292c1d92146100de578063296079f1146101145780633a5be8cb146101345780633e938097146101565780633f8c6ae0146101765780634d6e8f9d1461019657806359841888146101b65780635c975abb146101d657806361be10f2146101f9578063715018a6146102195780637753f47b1461022e5780638907eb5c146102565780638da5cb5b146102a2578063c0c53b8b146102b7578063cf256854146102d7578063e63ea408146102f7578063f2fde38b1461031757600080fd5b366100d957005b600080fd5b3480156100ea57600080fd5b5060cb546100fe906001600160a01b031681565b60405161010b9190611ee3565b60405180910390f35b34801561012057600080fd5b5060c9546100fe906001600160a01b031681565b34801561014057600080fd5b5061015461014f366004611a82565b610337565b005b34801561016257600080fd5b50610154610171366004611b0b565b6103ed565b34801561018257600080fd5b5060ca546100fe906001600160a01b031681565b3480156101a257600080fd5b506101546101b1366004611983565b6104ea565b3480156101c257600080fd5b506101546101d1366004611983565b61053d565b3480156101e257600080fd5b5060975460ff16604051901515815260200161010b565b34801561020557600080fd5b50610154610214366004611983565b610590565b34801561022557600080fd5b506101546105e3565b34801561023a57600080fd5b506100fe73eeeeeeeeeeeeeeeeeeeeeeeeeeeeeeeeeeeeeeee81565b34801561026257600080fd5b50610294610271366004611a4c565b60cc60209081526000938452604080852082529284528284209052825290205481565b60405190815260200161010b565b3480156102ae57600080fd5b506100fe6105f7565b3480156102c357600080fd5b506101546102d23660046119c2565b610606565b3480156102e357600080fd5b506101546102f2366004611b0b565b610766565b34801561030357600080fd5b50610154610312366004611a0c565b610b99565b34801561032357600080fd5b50610154610332366004611983565b610c9c565b61033f610d15565b6000806000838060200190518101906103589190611b6c565b9250925092507fd8883c6af9aa96506569d2db74cafb52037a26374320a8aeaf9fd5cd7df3d228838383876040516103939493929190612010565b60405180910390a16103ca836040518060400160405280600d81526020016c073776170416e64556e7772617609c1b815250610d6f565b156103da576103da868589610dc8565b5050506103e76001606555565b50505050565b6103f5610d15565b600061040385848487611324565b90506000806000808880602001905181019061041f9190611db7565b935093509350935060008211801561046457506001600160a01b03808616600090815260cc602090815260408083208884528252808320938716835292905220548211155b6104895760405162461bcd60e51b815260040161048090612041565b60405180910390fd5b6104968585858585611453565b6001600160a01b03808616600090815260cc602090815260408083208884528252808320938716835292905290812080548492906104d590849061221e565b90915550506001606555506103e79350505050565b6104f2611557565b806001600160a01b03811661051a5760405163d92e233d60e01b815260040160405180910390fd5b5060ca80546001600160a01b0319166001600160a01b0392909216919091179055565b610545611557565b806001600160a01b03811661056d5760405163d92e233d60e01b815260040160405180910390fd5b5060c980546001600160a01b0319166001600160a01b0392909216919091179055565b610598611557565b806001600160a01b0381166105c05760405163d92e233d60e01b815260040160405180910390fd5b5060cb80546001600160a01b0319166001600160a01b0392909216919091179055565b6105eb611557565b6105f560006115b6565b565b6033546001600160a01b031690565b600054610100900460ff16158080156106265750600054600160ff909116105b806106405750303b158015610640575060005460ff166001145b6106a35760405162461bcd60e51b815260206004820152602e60248201527f496e697469616c697a61626c653a20636f6e747261637420697320616c72656160448201526d191e481a5b9a5d1a585b1a5e995960921b6064820152608401610480565b6000805460ff1916600117905580156106c6576000805461ff0019166101001790555b6106ce611608565b6106d6611637565b6106de611666565b60c980546001600160a01b038087166001600160a01b03199283161790925560ca805486841690831617905560cb80549285169290911691909117905580156103e7576000805461ff0019169055604051600181527f7f26b83ff96e1f2b6a682f133852f6798a09c465da95921460cefb38474024989060200160405180910390a150505050565b61076e610d15565b600061077c85848487611324565b905060008060008060008060008060008d8060200190518101906107a09190611ce4565b9850985098509850985098509850985098506000871180156107ef57506001600160a01b03808b16600090815260cc602090815260408083208d84528252808320938c16835292905220548711155b61080b5760405162461bcd60e51b815260040161048090612041565b6001600160a01b03808b16600090815260cc602090815260408083208d84528252808320938c168352929052908120805489929061084a90849061221e565b9091555050604080516002808252606082018352600092602083019080368337019050509050878160008151811061089257634e487b7160e01b600052603260045260246000fd5b60200260200101818152505085816001815181106108c057634e487b7160e01b600052603260045260246000fd5b602002602001018181525050816000815181106108ed57634e487b7160e01b600052603260045260246000fd5b602090810291909101015160ca5460405163095ea7b360e01b81526001600160a01b039283169263095ea7b39261092b929116908c90600401611fe4565b602060405180830381600087803b15801561094557600080fd5b505af1158015610959573d6000803e3d6000fd5b505050506040513d601f19601f8201168201806040525081019061097d9190611aeb565b5060ca546040516344dd6aa560e01b81526001600160a01b03909116906344dd6aa5906109c0908a908590600190889042908d908d908d90600090600401611f68565b602060405180830381600087803b1580156109da57600080fd5b505af11580156109ee573d6000803e3d6000fd5b505050506040513d601f19601f82011682018060405250810190610a129190611ccc565b5060c95460405163626885b560e11b81526000916001600160a01b03169063c4d10b6a90610a44908790600401611ffd565b60206040518083038186803b158015610a5c57600080fd5b505afa158015610a70573d6000803e3d6000fd5b505050506040513d601f19601f82011682018060405250810190610a9491906119a6565b90508b6001600160a01b03167f4b60c330ef8f3169b522e03d5d12a0c7a7da8945c1532f8a23a9bb2803ae46968c8a8d8d8b8b88600160ca60009054906101000a90046001600160a01b03166001600160a01b031663930a60e88c6040518263ffffffff1660e01b8152600401610b0b9190611ee3565b60206040518083038186803b158015610b2357600080fd5b505afa158015610b37573d6000803e3d6000fd5b505050506040513d601f19601f82011682018060405250810190610b5b9190611ccc565b610b65919061221e565b8c604051610b7b999897969594939291906120ce565b60405180910390a25050505050505050505050506103e76001606555565b610ba1611557565b6001600160a01b03831673eeeeeeeeeeeeeeeeeeeeeeeeeeeeeeeeeeeeeeee1415610c1c576040516001600160a01b038316908290600081818185875af1925050503d8060008114610c0f576040519150601f19603f3d011682016040523d82523d6000602084013e610c14565b606091505b505050505050565b60405163a9059cbb60e01b81526001600160a01b0384169063a9059cbb90610c4a9085908590600401611fe4565b602060405180830381600087803b158015610c6457600080fd5b505af1158015610c78573d6000803e3d6000fd5b505050506040513d601f19601f820116820180604052508101906103e79190611aeb565b610ca4611557565b6001600160a01b038116610d095760405162461bcd60e51b815260206004820152602660248201527f4f776e61626c653a206e6577206f776e657220697320746865207a65726f206160448201526564647265737360d01b6064820152608401610480565b610d12816115b6565b50565b60026065541415610d685760405162461bcd60e51b815260206004820152601f60248201527f5265656e7472616e637947756172643a207265656e7472616e742063616c6c006044820152606401610480565b6002606555565b600081604051602001610d829190611ec7565b6040516020818303038152906040528051906020012083604051602001610da99190611ec7565b6040516020818303038152906040528051906020012014905092915050565b6000610dd383611695565b60408051600280825260608201835292935060009290916020830190803683370190505090508481600081518110610e1b57634e487b7160e01b600052603260045260246000fd5b602002602001018181525050816060015181600181518110610e4d57634e487b7160e01b600052603260045260246000fd5b6020026020010181815250508160800151600081518110610e7e57634e487b7160e01b600052603260045260246000fd5b602090810291909101015160ca5460405163095ea7b360e01b81526001600160a01b039283169263095ea7b392610ebc929116908990600401611fe4565b602060405180830381600087803b158015610ed657600080fd5b505af1158015610eea573d6000803e3d6000fd5b505050506040513d601f19601f82011682018060405250810190610f0e9190611aeb565b5060ca54604080840151608085015160a086015160c087015160e088015161010089015195516344dd6aa560e01b81526001600160a01b03909716966344dd6aa596610f6a96958a956001959194429491939091600401611f68565b602060405180830381600087803b158015610f8457600080fd5b505af1925050508015610fb4575060408051601f3d908101601f19168201909252610fb191810190611ccc565b60015b611123578160800151600081518110610fdd57634e487b7160e01b600052603260045260246000fd5b602090810291909101015160ca5460405163095ea7b360e01b81526001600160a01b039283169263095ea7b39261101c92911690600090600401611fe4565b602060405180830381600087803b15801561103657600080fd5b505af115801561104a573d6000803e3d6000fd5b505050506040513d601f19601f8201168201806040525081019061106e9190611aeb565b506020808301516001600160a01b03908116600090815260cc83526040808220865183528452808220928716825291909252812080548792906110b2908490612206565b9250508190555081602001516001600160a01b03167f9e6cead4c4fd7bc2eb00d8f741ecf98b2cceb1401d7d3405ca665ab5e913c4d18360000151846040015186898760a001518860c0015189608001516040516111169796959493929190612149565b60405180910390a2611316565b506020820151825160408085015160a086015160c087015160c95460e0890151945163626885b560e11b81526001600160a01b03978816977f4b60c330ef8f3169b522e03d5d12a0c7a7da8945c1532f8a23a9bb2803ae469697968c958f959094909392169163c4d10b6a9161119b91600401611ffd565b60206040518083038186803b1580156111b357600080fd5b505afa1580156111c7573d6000803e3d6000fd5b505050506040513d601f19601f820116820180604052508101906111eb91906119a6565b60ca5460c95460e08d015160405163626885b560e11b81526001936001600160a01b039081169363930a60e89391169163c4d10b6a9161122d91600401611ffd565b60206040518083038186803b15801561124557600080fd5b505afa158015611259573d6000803e3d6000fd5b505050506040513d601f19601f8201168201806040525081019061127d91906119a6565b6040518263ffffffff1660e01b81526004016112999190611ee3565b60206040518083038186803b1580156112b157600080fd5b505afa1580156112c5573d6000803e3d6000fd5b505050506040513d601f19601f820116820180604052508101906112e99190611ccc565b6112f3919061221e565b8b6080015160405161130d999897969594939291906120ce565b60405180910390a25b5050505050565b6001606555565b6000808580519060200120905060008160405160200161136f91907b0ca2ba3432b932bab69029b4b3b732b21026b2b9b9b0b3b29d05199960211b8152601c810191909152603c0190565b60408051601f198184030181528282528051602091820120600080855291840180845281905260ff88169284019290925260608301899052608083018890529092509060019060a0016020604051602081039080840390855afa1580156113da573d6000803e3d6000fd5b5050604051601f1901519150506001600160a01b0381166114485760405162461bcd60e51b815260206004820152602260248201527f506f6c79676f6e436f6e6e6563746f724c6f6769633a20496e76616c69642073604482015261696760f01b6064820152608401610480565b979650505050505050565b60cb5460405163095ea7b360e01b81526060916001600160a01b038087169263095ea7b3926114889216908790600401611fe4565b602060405180830381600087803b1580156114a257600080fd5b505af11580156114b6573d6000803e3d6000fd5b505050506040513d601f19601f820116820180604052508101906114da9190611aeb565b5060cb54604051631507d3c560e21b81526001600160a01b039091169063541f4f149061151d9089908190899089908c908a9042908b9060001990600401611ef7565b600060405180830381600087803b15801561153757600080fd5b505af115801561154b573d6000803e3d6000fd5b50505050505050505050565b336115606105f7565b6001600160a01b0316146105f55760405162461bcd60e51b815260206004820181905260248201527f4f776e61626c653a2063616c6c6572206973206e6f7420746865206f776e65726044820152606401610480565b603380546001600160a01b038381166001600160a01b0319831681179093556040519116919082907f8be0079c531659141344cd1fd0a4f28419497f9722a3daafe3b4186f6b6457e090600090a35050565b600054610100900460ff1661162f5760405162461bcd60e51b815260040161048090612083565b6105f56117b3565b600054610100900460ff1661165e5760405162461bcd60e51b815260040161048090612083565b6105f56117e3565b600054610100900460ff1661168d5760405162461bcd60e51b815260040161048090612083565b6105f561180a565b6116e3604080516101208101825260008082526020820181905291810182905260608082018390526080820181905260a08201529060c0820190815260200160608152602001600081525090565b818060200190518101906116f79190611bb9565b5060e08b0181905296985094965092949193909291886020810160408201606083016080840160a0850160c0860188600581111561174557634e487b7160e01b600052602160045260246000fd5b600581111561176457634e487b7160e01b600052602160045260246000fd5b905297909752969095529590945250506001600160a01b03938416905292909116905252815161179d9083016020908101908401611bb9565b6101008c015250989a9950505050505050505050565b600054610100900460ff166117da5760405162461bcd60e51b815260040161048090612083565b6105f5336115b6565b600054610100900460ff1661131d5760405162461bcd60e51b815260040161048090612083565b600054610100900460ff166118315760405162461bcd60e51b815260040161048090612083565b6097805460ff19169055565b80516118488161228d565b919050565b600082601f83011261185d578081fd5b815160206001600160401b0382111561187857611878612277565b8160051b6118878282016121af565b8381528281019086840183880185018910156118a1578687fd5b8693505b858410156118cc5780516118b88161228d565b8352600193909301929184019184016118a5565b50979650505050505050565b600082601f8301126118e8578081fd5b81356118fb6118f6826121df565b6121af565b81815284602083860101111561190f578283fd5b816020850160208301379081016020019190915292915050565b600082601f830112611939578081fd5b81516119476118f6826121df565b81815284602083860101111561195b578283fd5b61196c826020830160208701612235565b949350505050565b80516006811061184857600080fd5b600060208284031215611994578081fd5b813561199f8161228d565b9392505050565b6000602082840312156119b7578081fd5b815161199f8161228d565b6000806000606084860312156119d6578182fd5b83356119e18161228d565b925060208401356119f18161228d565b91506040840135611a018161228d565b809150509250925092565b600080600060608486031215611a20578283fd5b8335611a2b8161228d565b92506020840135611a3b8161228d565b929592945050506040919091013590565b600080600060608486031215611a60578283fd5b8335611a6b8161228d565b9250602084013591506040840135611a018161228d565b60008060008060808587031215611a97578081fd5b8435611aa28161228d565b9350602085013592506040850135611ab98161228d565b915060608501356001600160401b03811115611ad3578182fd5b611adf878288016118d8565b91505092959194509250565b600060208284031215611afc578081fd5b8151801515811461199f578182fd5b60008060008060808587031215611b20578182fd5b84356001600160401b03811115611b35578283fd5b611b41878288016118d8565b945050602085013560ff81168114611b57578283fd5b93969395505050506040820135916060013590565b600080600060608486031215611b80578081fd5b83516001600160401b03811115611b95578182fd5b611ba186828701611929565b93505060208401519150604084015190509250925092565b60008060008060008060008060008060006101608c8e031215611bda578889fd5b8b516001600160401b03811115611bef57898afd5b611bfb8e828f01611929565b9b505060208c0151995060408c01519850611c1860608d0161183d565b9750611c2660808d0161183d565b965060a08c0151955060c08c01516001600160401b03811115611c47578586fd5b611c538e828f0161184d565b95505060e08c01516001600160401b03811115611c6e578485fd5b611c7a8e828f01611929565b945050611c8a6101008d01611974565b92506101208c01516001600160401b03811115611ca5578283fd5b611cb18e828f01611929565b9250506101408c015190509295989b509295989b9093969950565b600060208284031215611cdd578081fd5b5051919050565b60008060008060008060008060006101208a8c031215611d02578283fd5b89519850611d1260208b0161183d565b975060408a01519650611d2760608b0161183d565b955060808a0151945060a08a01516001600160401b0380821115611d49578485fd5b611d558d838e01611929565b9550611d6360c08d01611974565b945060e08c0151915080821115611d78578384fd5b611d848d838e01611929565b93506101008c0151915080821115611d9a578283fd5b50611da78c828d0161184d565b9150509295985092959850929598565b60008060008060808587031215611dcc578182fd5b845193506020850151611dde8161228d565b809350506040850151915060608501518060070b8114611dfc578182fd5b939692955090935050565b6000815180845260208085019450808401835b83811015611e3f5781516001600160a01b031687529582019590820190600101611e1a565b509495945050505050565b6000815180845260208085019450808401835b83811015611e3f57815187529582019590820190600101611e5d565b60008151808452611e91816020860160208601612235565b601f01601f19169290920160200192915050565b60068110611ec357634e487b7160e01b600052602160045260246000fd5b9052565b60008251611ed9818460208701612235565b9190910192915050565b6001600160a01b0391909116815260200190565b6001600160a01b038a811682528981166020830152881660408201526060810187905260808101869052600785900b60a082015263ffffffff841660c082015261012060e08201819052600090611f5083820186611e79565b915050826101008301529a9950505050505050505050565b6001600160a01b038a16815261012060208201819052600090611f8d8382018c611e4a565b905089151560408401528281036060840152611fa9818a611e07565b905087608084015282810360a0840152611fc38188611e79565b9050611fd260c0840187611ea5565b82810360e0840152611f508186611e79565b6001600160a01b03929092168252602082015260400190565b60208152600061199f6020830184611e79565b6080815260006120236080830187611e79565b85602084015284604084015282810360608401526114488185611e79565b60208082526022908201527f506f6c79676f6e436f6e6e6563746f724c6f6769633a206c6f772062616c616e604082015261636560f01b606082015260800190565b6020808252602b908201527f496e697469616c697a61626c653a20636f6e7472616374206973206e6f74206960408201526a6e697469616c697a696e6760a81b606082015260800190565b8981526001600160a01b038981166020830152888116604083015260608201889052610120608083018190526000916121098483018a611e79565b915061211860a0850189611ea5565b861660c084015260e083018590528281036101008401526121398185611e07565b9c9b505050505050505050505050565b8781526001600160a01b038781166020830152861660408201526060810185905260e06080820181905260009061218290830186611e79565b61218f60a0840186611ea5565b82810360c08401526121a18185611e07565b9a9950505050505050505050565b604051601f8201601f191681016001600160401b03811182821017156121d7576121d7612277565b604052919050565b60006001600160401b038211156121f8576121f8612277565b50601f01601f191660200190565b6000821982111561221957612219612261565b500190565b60008282101561223057612230612261565b500390565b60005b83811015612250578181015183820152602001612238565b838111156103e75750506000910152565b634e487b7160e01b600052601160045260246000fd5b634e487b7160e01b600052604160045260246000fd5b6001600160a01b0381168114610d1257600080fdfea2646970667358221220e1c0e7d1996738e73655a9f8e62f06c71a5423d78df250b773041266dfc55c5564736f6c63430008040033",
  "devdoc": {
    "kind": "dev",
    "methods": {
      "emergencyWithdraw(address,address,uint256)": {
        "details": "Only owner can call this"
      },
      "owner()": {
        "details": "Returns the address of the current owner."
      },
      "paused()": {
        "details": "Returns true if the contract is paused, and false otherwise."
      },
      "renounceOwnership()": {
        "details": "Leaves the contract without owner. It will not be possible to call `onlyOwner` functions. Can only be called by the current owner. NOTE: Renouncing ownership will leave the contract without an owner, thereby disabling any functionality that is only available to the owner."
      },
      "retrySwapAndUnwrap(bytes,uint8,bytes32,bytes32)": {
        "details": "User signs a message for retrying its request",
        "params": {
          "_message": "The signed message",
          "_r": "Signature r",
          "_s": "Signature s",
          "_v": "Signature v"
        }
      },
      "transferOwnership(address)": {
        "details": "Transfers ownership of the contract to a new account (`newOwner`). Can only be called by the current owner."
      },
      "withdrawFundsToSourceChain(bytes,uint8,bytes32,bytes32)": {
        "params": {
          "_message": "The signed message",
          "_r": "Signature r",
          "_s": "Signature s",
          "_v": "Signature v"
        }
      }
    },
    "version": 1
  },
  "userdoc": {
    "kind": "user",
    "methods": {
      "emergencyWithdraw(address,address,uint256)": {
        "notice": "Withdraws tokens in the emergency case"
      },
      "handleV3AcrossMessage(address,uint256,address,bytes)": {
        "notice": "Process requests coming from Ethereum (using Across V3)"
      },
      "retrySwapAndUnwrap(bytes,uint8,bytes32,bytes32)": {
        "notice": "Retry to swap and unwrap tokens"
      },
      "setAcross(address)": {
        "notice": "Setter for AcrossV3"
      },
      "setBurnRouterProxy(address)": {
        "notice": "Setter for BurnRouterProxy"
      },
      "setLockersProxy(address)": {
        "notice": "Setter for LockersProxy"
      },
      "withdrawFundsToSourceChain(bytes,uint8,bytes32,bytes32)": {
        "notice": "Send back tokens to the source chain"
      }
    },
    "version": 1
  },
  "storageLayout": {
    "storage": [
      {
        "astId": 326,
        "contract": "contracts/connectors/PolyConnectorLogic.sol:PolyConnectorLogic",
        "label": "_initialized",
        "offset": 0,
        "slot": "0",
        "type": "t_uint8"
      },
      {
        "astId": 329,
        "contract": "contracts/connectors/PolyConnectorLogic.sol:PolyConnectorLogic",
        "label": "_initializing",
        "offset": 1,
        "slot": "0",
        "type": "t_bool"
      },
      {
        "astId": 1797,
        "contract": "contracts/connectors/PolyConnectorLogic.sol:PolyConnectorLogic",
        "label": "__gap",
        "offset": 0,
        "slot": "1",
        "type": "t_array(t_uint256)50_storage"
      },
      {
        "astId": 198,
        "contract": "contracts/connectors/PolyConnectorLogic.sol:PolyConnectorLogic",
        "label": "_owner",
        "offset": 0,
        "slot": "51",
        "type": "t_address"
      },
      {
        "astId": 318,
        "contract": "contracts/connectors/PolyConnectorLogic.sol:PolyConnectorLogic",
        "label": "__gap",
        "offset": 0,
        "slot": "52",
        "type": "t_array(t_uint256)49_storage"
      },
      {
        "astId": 631,
        "contract": "contracts/connectors/PolyConnectorLogic.sol:PolyConnectorLogic",
        "label": "_status",
        "offset": 0,
        "slot": "101",
        "type": "t_uint256"
      },
      {
        "astId": 700,
        "contract": "contracts/connectors/PolyConnectorLogic.sol:PolyConnectorLogic",
        "label": "__gap",
        "offset": 0,
        "slot": "102",
        "type": "t_array(t_uint256)49_storage"
      },
      {
        "astId": 510,
        "contract": "contracts/connectors/PolyConnectorLogic.sol:PolyConnectorLogic",
        "label": "_paused",
        "offset": 0,
        "slot": "151",
        "type": "t_bool"
      },
      {
        "astId": 615,
        "contract": "contracts/connectors/PolyConnectorLogic.sol:PolyConnectorLogic",
        "label": "__gap",
        "offset": 0,
        "slot": "152",
        "type": "t_array(t_uint256)49_storage"
      },
      {
        "astId": 10375,
        "contract": "contracts/connectors/PolyConnectorLogic.sol:PolyConnectorLogic",
        "label": "lockersProxy",
        "offset": 0,
        "slot": "201",
        "type": "t_address"
      },
      {
        "astId": 10378,
        "contract": "contracts/connectors/PolyConnectorLogic.sol:PolyConnectorLogic",
        "label": "burnRouterProxy",
        "offset": 0,
        "slot": "202",
        "type": "t_address"
      },
      {
        "astId": 10381,
        "contract": "contracts/connectors/PolyConnectorLogic.sol:PolyConnectorLogic",
        "label": "across",
        "offset": 0,
        "slot": "203",
        "type": "t_address"
      },
      {
        "astId": 10390,
        "contract": "contracts/connectors/PolyConnectorLogic.sol:PolyConnectorLogic",
        "label": "failedReqs",
        "offset": 0,
        "slot": "204",
        "type": "t_mapping(t_address,t_mapping(t_uint256,t_mapping(t_address,t_uint256)))"
      }
    ],
    "types": {
      "t_address": {
        "encoding": "inplace",
        "label": "address",
        "numberOfBytes": "20"
      },
      "t_array(t_uint256)49_storage": {
        "base": "t_uint256",
        "encoding": "inplace",
        "label": "uint256[49]",
        "numberOfBytes": "1568"
      },
      "t_array(t_uint256)50_storage": {
        "base": "t_uint256",
        "encoding": "inplace",
        "label": "uint256[50]",
        "numberOfBytes": "1600"
      },
      "t_bool": {
        "encoding": "inplace",
        "label": "bool",
        "numberOfBytes": "1"
      },
      "t_mapping(t_address,t_mapping(t_uint256,t_mapping(t_address,t_uint256)))": {
        "encoding": "mapping",
        "key": "t_address",
        "label": "mapping(address => mapping(uint256 => mapping(address => uint256)))",
        "numberOfBytes": "32",
        "value": "t_mapping(t_uint256,t_mapping(t_address,t_uint256))"
      },
      "t_mapping(t_address,t_uint256)": {
        "encoding": "mapping",
        "key": "t_address",
        "label": "mapping(address => uint256)",
        "numberOfBytes": "32",
        "value": "t_uint256"
      },
      "t_mapping(t_uint256,t_mapping(t_address,t_uint256))": {
        "encoding": "mapping",
        "key": "t_uint256",
        "label": "mapping(uint256 => mapping(address => uint256))",
        "numberOfBytes": "32",
        "value": "t_mapping(t_address,t_uint256)"
      },
      "t_uint256": {
        "encoding": "inplace",
        "label": "uint256",
        "numberOfBytes": "32"
      },
      "t_uint8": {
        "encoding": "inplace",
        "label": "uint8",
        "numberOfBytes": "1"
      }
    }
  }
}