{
  "address": "0x36Ad0DF8c6633bFa42d7a4A87117B70272ae02ec",
  "abi": [
    {
      "inputs": [],
      "name": "ZeroAddress",
      "type": "error"
    },
    {
      "anonymous": false,
      "inputs": [
        {
          "indexed": false,
          "internalType": "address",
          "name": "oldAcross",
          "type": "address"
        },
        {
          "indexed": false,
          "internalType": "address",
          "name": "newAcross",
          "type": "address"
        }
      ],
      "name": "AcrossUpdated",
      "type": "event"
    },
    {
      "anonymous": false,
      "inputs": [
        {
          "indexed": false,
          "internalType": "uint8",
          "name": "version",
          "type": "uint8"
        }
      ],
      "name": "Initialized",
      "type": "event"
    },
    {
      "anonymous": false,
      "inputs": [
        {
          "indexed": false,
          "internalType": "uint256",
          "name": "uniqueCounter",
          "type": "uint256"
        },
        {
          "indexed": false,
          "internalType": "string",
          "name": "functionName",
          "type": "string"
        },
        {
          "indexed": false,
          "internalType": "bytes",
          "name": "data",
          "type": "bytes"
        },
        {
          "indexed": false,
          "internalType": "address",
          "name": "sourceChainInputToken",
          "type": "address"
        },
        {
          "indexed": false,
          "internalType": "uint256",
          "name": "amount",
          "type": "uint256"
        }
      ],
      "name": "MsgSent",
      "type": "event"
    },
    {
      "anonymous": false,
      "inputs": [
        {
          "indexed": true,
          "internalType": "address",
          "name": "previousOwner",
          "type": "address"
        },
        {
          "indexed": true,
          "internalType": "address",
          "name": "newOwner",
          "type": "address"
        }
      ],
      "name": "OwnershipTransferred",
      "type": "event"
    },
    {
      "anonymous": false,
      "inputs": [
        {
          "indexed": false,
          "internalType": "address",
          "name": "account",
          "type": "address"
        }
      ],
      "name": "Paused",
      "type": "event"
    },
    {
      "anonymous": false,
      "inputs": [
        {
          "indexed": false,
          "internalType": "address",
          "name": "oldPolygonTeleBtc",
          "type": "address"
        },
        {
          "indexed": false,
          "internalType": "address",
          "name": "newPolygonTeleBtc",
          "type": "address"
        }
      ],
      "name": "PolygonTeleBtcUpdated",
      "type": "event"
    },
    {
      "anonymous": false,
      "inputs": [
        {
          "indexed": false,
          "internalType": "address",
          "name": "oldTargetChainConnector",
          "type": "address"
        },
        {
          "indexed": false,
          "internalType": "address",
          "name": "newTargetChainConnector",
          "type": "address"
        }
      ],
      "name": "TargetChainConnectorUpdated",
      "type": "event"
    },
    {
      "anonymous": false,
      "inputs": [
        {
          "indexed": false,
          "internalType": "address",
          "name": "account",
          "type": "address"
        }
      ],
      "name": "Unpaused",
      "type": "event"
    },
    {
      "anonymous": false,
      "inputs": [
        {
          "indexed": false,
          "internalType": "address",
          "name": "oldWrappedNativeToken",
          "type": "address"
        },
        {
          "indexed": false,
          "internalType": "address",
          "name": "newWrappedNativeToken",
          "type": "address"
        }
      ],
      "name": "WrappedNativeTokenUpdated",
      "type": "event"
    },
    {
      "inputs": [],
      "name": "ETH_ADDR",
      "outputs": [
        {
          "internalType": "address",
          "name": "",
          "type": "address"
        }
      ],
      "stateMutability": "view",
      "type": "function"
    },
    {
      "inputs": [],
      "name": "ONE_HUNDRED_PERCENT",
      "outputs": [
        {
          "internalType": "uint256",
          "name": "",
          "type": "uint256"
        }
      ],
      "stateMutability": "view",
      "type": "function"
    },
    {
      "inputs": [],
      "name": "across",
      "outputs": [
        {
          "internalType": "address",
          "name": "",
          "type": "address"
        }
      ],
      "stateMutability": "view",
      "type": "function"
    },
    {
      "inputs": [
        {
          "internalType": "address",
          "name": "_token",
          "type": "address"
        },
        {
          "internalType": "address",
          "name": "_to",
          "type": "address"
        },
        {
          "internalType": "uint256",
          "name": "_amount",
          "type": "uint256"
        }
      ],
      "name": "emergencyWithdraw",
      "outputs": [],
      "stateMutability": "nonpayable",
      "type": "function"
    },
    {
      "inputs": [
        {
          "internalType": "address",
          "name": "_targetChainTeleBTC",
          "type": "address"
        },
        {
          "internalType": "address",
          "name": "_across",
          "type": "address"
        },
        {
          "internalType": "address",
          "name": "_wrappedNativeToken",
          "type": "address"
        },
        {
          "internalType": "uint256",
          "name": "_targetChainId",
          "type": "uint256"
        }
      ],
      "name": "initialize",
      "outputs": [],
      "stateMutability": "nonpayable",
      "type": "function"
    },
    {
      "inputs": [],
      "name": "owner",
      "outputs": [
        {
          "internalType": "address",
          "name": "",
          "type": "address"
        }
      ],
      "stateMutability": "view",
      "type": "function"
    },
    {
      "inputs": [],
      "name": "paused",
      "outputs": [
        {
          "internalType": "bool",
          "name": "",
          "type": "bool"
        }
      ],
      "stateMutability": "view",
      "type": "function"
    },
    {
      "inputs": [],
      "name": "renounceOwnership",
      "outputs": [],
      "stateMutability": "nonpayable",
      "type": "function"
    },
    {
      "inputs": [
        {
          "internalType": "address",
          "name": "_across",
          "type": "address"
        }
      ],
      "name": "setAcross",
      "outputs": [],
      "stateMutability": "nonpayable",
      "type": "function"
    },
    {
      "inputs": [
        {
          "internalType": "address",
          "name": "_targetChainConnectorProxy",
          "type": "address"
        }
      ],
      "name": "setTargetChainConnectorProxy",
      "outputs": [],
      "stateMutability": "nonpayable",
      "type": "function"
    },
    {
      "inputs": [
        {
          "internalType": "address",
          "name": "_targetChainTeleBTC",
          "type": "address"
        }
      ],
      "name": "setTargetChainTeleBTC",
      "outputs": [],
      "stateMutability": "nonpayable",
      "type": "function"
    },
    {
      "inputs": [
        {
          "internalType": "address",
          "name": "_wrappedNativeToken",
          "type": "address"
        }
      ],
      "name": "setWrappedNativeToken",
      "outputs": [],
      "stateMutability": "nonpayable",
      "type": "function"
    },
    {
      "inputs": [
        {
          "internalType": "address",
          "name": "_token",
          "type": "address"
        },
        {
          "internalType": "address",
          "name": "_exchangeConnector",
          "type": "address"
        },
        {
          "internalType": "uint256[]",
          "name": "_amounts",
          "type": "uint256[]"
        },
        {
          "internalType": "address[]",
          "name": "_path",
          "type": "address[]"
        },
        {
          "internalType": "bytes",
          "name": "_userScript",
          "type": "bytes"
        },
        {
          "internalType": "enum ScriptTypes",
          "name": "_scriptType",
          "type": "uint8"
        },
        {
          "internalType": "bytes",
          "name": "_lockerLockingScript",
          "type": "bytes"
        },
        {
          "internalType": "int64",
          "name": "_relayerFeePercentage",
          "type": "int64"
        },
        {
          "internalType": "uint256",
          "name": "thirdParty",
          "type": "uint256"
        }
      ],
      "name": "swapAndUnwrap",
      "outputs": [],
      "stateMutability": "payable",
      "type": "function"
    },
    {
      "inputs": [],
      "name": "targetChainConnectorProxy",
      "outputs": [
        {
          "internalType": "address",
          "name": "",
          "type": "address"
        }
      ],
      "stateMutability": "view",
      "type": "function"
    },
    {
      "inputs": [],
      "name": "targetChainId",
      "outputs": [
        {
          "internalType": "uint256",
          "name": "",
          "type": "uint256"
        }
      ],
      "stateMutability": "view",
      "type": "function"
    },
    {
      "inputs": [],
      "name": "targetChainTeleBTC",
      "outputs": [
        {
          "internalType": "address",
          "name": "",
          "type": "address"
        }
      ],
      "stateMutability": "view",
      "type": "function"
    },
    {
      "inputs": [
        {
          "internalType": "address",
          "name": "newOwner",
          "type": "address"
        }
      ],
      "name": "transferOwnership",
      "outputs": [],
      "stateMutability": "nonpayable",
      "type": "function"
    },
    {
      "inputs": [],
      "name": "uniqueCounter",
      "outputs": [
        {
          "internalType": "uint256",
          "name": "",
          "type": "uint256"
        }
      ],
      "stateMutability": "view",
      "type": "function"
    },
    {
      "inputs": [],
      "name": "wrappedNativeToken",
      "outputs": [
        {
          "internalType": "address",
          "name": "",
          "type": "address"
        }
      ],
      "stateMutability": "view",
      "type": "function"
    },
    {
      "stateMutability": "payable",
      "type": "receive"
    }
  ],
  "transactionHash": "0xebdef938350627ec8a7342ac40ba04fb66acb949df07b15b24fbdd07c3409e6d",
  "args": [],
  "numDeployments": 1,
  "solcInputHash": "6fa2ae17faf6051f1a790113025366fd",
  "bytecode": "0x608060405234801561001057600080fd5b506117c8806100206000396000f3fe6080604052600436106100e85760003560e01c8063146ffb26146100f457806317fcb39b1461011d578063292c1d92146101555780634d5f71bb146101755780635c975abb1461019557806361be10f2146101b8578063715018a6146101da578063754d1461146101ef5780637753f47b1461020f5780638da5cb5b14610237578063a197cbe61461024c578063c4a86b311461026c578063cf756fdf1461028c578063d4dfc8c3146102ac578063da058ae3146102c2578063dd0081c7146102e2578063e11b22ee146102f8578063e63ea4081461030b578063f2fde38b1461032b57600080fd5b366100ef57005b600080fd5b34801561010057600080fd5b5061010a60cc5481565b6040519081526020015b60405180910390f35b34801561012957600080fd5b5060cd5461013d906001600160a01b031681565b6040516001600160a01b039091168152602001610114565b34801561016157600080fd5b5060c95461013d906001600160a01b031681565b34801561018157600080fd5b5060ca5461013d906001600160a01b031681565b3480156101a157600080fd5b5060975460ff166040519015158152602001610114565b3480156101c457600080fd5b506101d86101d33660046111eb565b61034b565b005b3480156101e657600080fd5b506101d861035f565b3480156101fb57600080fd5b506101d861020a3660046111eb565b610373565b34801561021b57600080fd5b5061013d73eeeeeeeeeeeeeeeeeeeeeeeeeeeeeeeeeeeeeeee81565b34801561024357600080fd5b5061013d610384565b34801561025857600080fd5b506101d86102673660046111eb565b610393565b34801561027857600080fd5b5060cb5461013d906001600160a01b031681565b34801561029857600080fd5b506101d86102a7366004611205565b6103a4565b3480156102b857600080fd5b5061010a60ce5481565b3480156102ce57600080fd5b506101d86102dd3660046111eb565b6104f3565b3480156102ee57600080fd5b5061010a61271081565b6101d861030636600461124f565b610504565b34801561031757600080fd5b506101d861032636600461136b565b610641565b34801561033757600080fd5b506101d86103463660046111eb565b61074a565b6103536107c0565b61035c8161081f565b50565b6103676107c0565b61037160006108b1565b565b61037b6107c0565b61035c81610903565b6033546001600160a01b031690565b61039b6107c0565b61035c81610995565b600054610100900460ff16158080156103c45750600054600160ff909116105b806103de5750303b1580156103de575060005460ff166001145b6104465760405162461bcd60e51b815260206004820152602e60248201527f496e697469616c697a61626c653a20636f6e747261637420697320616c72656160448201526d191e481a5b9a5d1a585b1a5e995960921b60648201526084015b60405180910390fd5b6000805460ff191660011790558015610469576000805461ff0019166101001790555b610471610a27565b610479610a56565b610481610a85565b61048a85610903565b6104938461081f565b61049c83610ab4565b60cc829055600060ce5580156104ec576000805461ff0019169055604051600181527f7f26b83ff96e1f2b6a682f133852f6798a09c465da95921460cefb38474024989060200160405180910390a15b5050505050565b6104fb6107c0565b61035c81610ab4565b61050c610b46565b6105198c8b8b8b8b610ba0565b600060ce54338d8d8d600181811061054157634e487b7160e01b600052603260045260246000fd5b905060200201358c8c8c8c8c8c8b6040516020016105699b9a9998979695949392919061154c565b60405160208183030381529060405290507f1d8f6a1003d585cfcda68c8a9a5dfc25915d8c9d21e03f18f8a7916d91e8ddc760ce54828f8e8e60008181106105c157634e487b7160e01b600052603260045260246000fd5b905060200201356040516105d89493929190611680565b60405180910390a160ce80549060006105f083611722565b91905055506106288d8c8c600081811061061a57634e487b7160e01b600052603260045260246000fd5b905060200201358386610c91565b506106336001606555565b505050505050505050505050565b6106496107c0565b6001600160a01b03831673eeeeeeeeeeeeeeeeeeeeeeeeeeeeeeeeeeeeeeee14156106c4576040516001600160a01b038316908290600081818185875af1925050503d80600081146106b7576040519150601f19603f3d011682016040523d82523d6000602084013e6106bc565b606091505b505050505050565b60405163a9059cbb60e01b81526001600160a01b0384169063a9059cbb906106f29085908590600401611520565b602060405180830381600087803b15801561070c57600080fd5b505af1158015610720573d6000803e3d6000fd5b505050506040513d601f19601f8201168201806040525081019061074491906113a6565b50505050565b6107526107c0565b6001600160a01b0381166107b75760405162461bcd60e51b815260206004820152602660248201527f4f776e61626c653a206e6577206f776e657220697320746865207a65726f206160448201526564647265737360d01b606482015260840161043d565b61035c816108b1565b336107c9610384565b6001600160a01b0316146103715760405162461bcd60e51b815260206004820181905260248201527f4f776e61626c653a2063616c6c6572206973206e6f7420746865206f776e6572604482015260640161043d565b806001600160a01b0381166108475760405163d92e233d60e01b815260040160405180910390fd5b60c9546040517f06e5f2ca1234f717a2031f662608c02182d4f8bdc3dab013ec4c04eb9755313291610886916001600160a01b0390911690859061149f565b60405180910390a15060c980546001600160a01b0319166001600160a01b0392909216919091179055565b603380546001600160a01b038381166001600160a01b0319831681179093556040519116919082907f8be0079c531659141344cd1fd0a4f28419497f9722a3daafe3b4186f6b6457e090600090a35050565b806001600160a01b03811661092b5760405163d92e233d60e01b815260040160405180910390fd5b60cb546040517fcce6a91bc875435f68407f052fabbcb2cfda2ae841ac4816acf552714fb30adf9161096a916001600160a01b0390911690859061149f565b60405180910390a15060cb80546001600160a01b0319166001600160a01b0392909216919091179055565b806001600160a01b0381166109bd5760405163d92e233d60e01b815260040160405180910390fd5b60ca546040517fbac4f45eeeeb3c9688d046eddcdd28783777a2aa7beffcdf0acb76487d796364916109fc916001600160a01b0390911690859061149f565b60405180910390a15060ca80546001600160a01b0319166001600160a01b0392909216919091179055565b600054610100900460ff16610a4e5760405162461bcd60e51b815260040161043d90611635565b610371610e85565b600054610100900460ff16610a7d5760405162461bcd60e51b815260040161043d90611635565b610371610eb5565b600054610100900460ff16610aac5760405162461bcd60e51b815260040161043d90611635565b610371610edc565b806001600160a01b038116610adc5760405163d92e233d60e01b815260040160405180910390fd5b60cd546040517fffd9582901c27177dbd18194ae8017f10d8b21f98a0da2ea5197e0b20dc13d7091610b1b916001600160a01b0390911690859061149f565b60405180910390a15060cd80546001600160a01b0319166001600160a01b0392909216919091179055565b60026065541415610b995760405162461bcd60e51b815260206004820152601f60248201527f5265656e7472616e637947756172643a207265656e7472616e742063616c6c00604482015260640161043d565b6002606555565b60cb546001600160a01b03168282610bb96001826116df565b818110610bd657634e487b7160e01b600052603260045260246000fd5b9050602002016020810190610beb91906111eb565b6001600160a01b031614610c415760405162461bcd60e51b815260206004820152601d60248201527f4574684d616e616765724c6f6769633a20696e76616c69642070617468000000604482015260640161043d565b600283146104ec5760405162461bcd60e51b815260206004820152601e60248201527f4574684d616e616765724c6f6769633a2077726f6e6720616d6f756e74730000604482015260640161043d565b6001600160a01b03841673eeeeeeeeeeeeeeeeeeeeeeeeeeeeeeeeeeeeeeee1415610ce857823414610cd55760405162461bcd60e51b815260040161043d906115ff565b60cd546001600160a01b03169350610e15565b3415610d065760405162461bcd60e51b815260040161043d906115ff565b6040516323b872dd60e01b8152336004820152306024820152604481018490526001600160a01b038516906323b872dd90606401602060405180830381600087803b158015610d5457600080fd5b505af1158015610d68573d6000803e3d6000fd5b505050506040513d601f19601f82011682018060405250810190610d8c91906113a6565b5060c95460405163095ea7b360e01b81526001600160a01b038681169263095ea7b392610dc192909116908790600401611520565b602060405180830381600087803b158015610ddb57600080fd5b505af1158015610def573d6000803e3d6000fd5b505050506040513d601f19601f82011682018060405250810190610e1391906113a6565b505b60c95460ca5460cc546040516104ec936001600160a01b0390811693610e4e9391169189918991889042908b90600019906024016114b9565b60408051601f198184030181529190526020810180516001600160e01b0316631186ec3360e01b17905234610f0f565b6001606555565b600054610100900460ff16610eac5760405162461bcd60e51b815260040161043d90611635565b610371336108b1565b600054610100900460ff16610e7e5760405162461bcd60e51b815260040161043d90611635565b600054610100900460ff16610f035760405162461bcd60e51b815260040161043d90611635565b6097805460ff19169055565b6060610f3584848460405180606001604052806029815260200161176a60299139610f3f565b90505b9392505050565b606082471015610fa05760405162461bcd60e51b815260206004820152602660248201527f416464726573733a20696e73756666696369656e742062616c616e636520666f6044820152651c8818d85b1b60d21b606482015260840161043d565b843b610fee5760405162461bcd60e51b815260206004820152601d60248201527f416464726573733a2063616c6c20746f206e6f6e2d636f6e7472616374000000604482015260640161043d565b600080866001600160a01b0316858760405161100a9190611483565b60006040518083038185875af1925050503d8060008114611047576040519150601f19603f3d011682016040523d82523d6000602084013e61104c565b606091505b509150915061105c828286611067565b979650505050505050565b60608315611076575081610f38565b8251156110865782518084602001fd5b8160405162461bcd60e51b815260040161043d9190611539565b80356001600160a01b03811681146110b757600080fd5b919050565b60008083601f8401126110cd578081fd5b5081356001600160401b038111156110e3578182fd5b6020830191508360208260051b85010111156110fe57600080fd5b9250929050565b60008083601f840112611116578182fd5b5081356001600160401b0381111561112c578182fd5b6020830191508360208285010111156110fe57600080fd5b600082601f830112611154578081fd5b81356001600160401b038082111561116e5761116e611753565b604051601f8301601f19908116603f0116810190828211818310171561119657611196611753565b816040528381528660208588010111156111ae578485fd5b8360208701602083013792830160200193909352509392505050565b8035600681106110b757600080fd5b8035600781900b81146110b757600080fd5b6000602082840312156111fc578081fd5b610f38826110a0565b6000806000806080858703121561121a578283fd5b611223856110a0565b9350611231602086016110a0565b925061123f604086016110a0565b9396929550929360600135925050565b6000806000806000806000806000806000806101208d8f031215611271578788fd5b61127a8d6110a0565b9b5061128860208e016110a0565b9a506001600160401b0360408e013511156112a1578788fd5b6112b18e60408f01358f016110bc565b909a5098506001600160401b0360608e013511156112cd578788fd5b6112dd8e60608f01358f016110bc565b90985096506001600160401b0360808e013511156112f9578586fd5b6113098e60808f01358f01611144565b955061131760a08e016111ca565b94506001600160401b0360c08e01351115611330578384fd5b6113408e60c08f01358f01611105565b909450925061135160e08e016111d9565b91506101008d013590509295989b509295989b509295989b565b60008060006060848603121561137f578283fd5b611388846110a0565b9250611396602085016110a0565b9150604084013590509250925092565b6000602082840312156113b7578081fd5b81518015158114610f38578182fd5b81835260006020808501945082825b85811015611401576001600160a01b036113ee836110a0565b16875295820195908201906001016113d5565b509495945050505050565b81835281816020850137506000828201602090810191909152601f909101601f19169091010190565b6000815180845261144d8160208601602086016116f6565b601f01601f19169290920160200192915050565b6006811061147f57634e487b7160e01b600052602160045260246000fd5b9052565b600082516114958184602087016116f6565b9190910192915050565b6001600160a01b0392831681529116602082015260400190565b6001600160a01b038981168252881660208201526040810187905260608101869052600785900b608082015263ffffffff841660a082015261010060c0820181905260009061150a83820186611435565b9150508260e08301529998505050505050505050565b6001600160a01b03929092168252602082015260400190565b602081526000610f386020830184611435565b610140808252600d908201526c073776170416e64556e7772617609c1b610160820152602081018c90526001600160a01b038b811660408301528a1660608201526080810189905261018060a082018190526000906115ae8184018a8c6113c6565b905082810360c08401526115c28189611435565b90506115d160e0840188611461565b8281036101008401526115e581868861140c565b915050826101208301529c9b505050505050505050505050565b6020808252601c908201527b4574684d616e616765724c6f6769633a2077726f6e672076616c756560201b604082015260600190565b6020808252602b908201527f496e697469616c697a61626c653a20636f6e7472616374206973206e6f74206960408201526a6e697469616c697a696e6760a81b606082015260800190565b84815260a06020820152601360a08201527273776170416e64556e777261704163726f737360681b60c082015260e0604082015260006116c360e0830186611435565b6001600160a01b03949094166060830152506080015292915050565b6000828210156116f1576116f161173d565b500390565b60005b838110156117115781810151838201526020016116f9565b838111156107445750506000910152565b60006000198214156117365761173661173d565b5060010190565b634e487b7160e01b600052601160045260246000fd5b634e487b7160e01b600052604160045260246000fdfe416464726573733a206c6f772d6c6576656c2063616c6c20776974682076616c7565206661696c6564a26469706673582212208e5cb28aedf0575ab961457d7d60fc736e5623266b78e68ad7f8d5cca2c80d5764736f6c63430008040033",
  "devdoc": {
    "kind": "dev",
    "methods": {
      "emergencyWithdraw(address,address,uint256)": {
        "details": "Only owner can call this"
      },
      "owner()": {
        "details": "Returns the address of the current owner."
      },
      "paused()": {
        "details": "Returns true if the contract is paused, and false otherwise."
      },
      "renounceOwnership()": {
        "details": "Leaves the contract without owner. It will not be possible to call `onlyOwner` functions. Can only be called by the current owner. NOTE: Renouncing ownership will leave the contract without an owner, thereby disabling any functionality that is only available to the owner."
      },
      "swapAndUnwrap(address,address,uint256[],address[],bytes,uint8,bytes,int64,uint256)": {
        "params": {
          "_amounts": "[inputTokenAmount, teleBTCAmount]",
          "_exchangeConnector": "Address of exchange connector to be used",
          "_lockerLockingScript": "of locker that should execute the burn request",
          "_path": "of exchanging inputToken to teleBTC (these are Polygon token addresses, so _path[0] != _token)",
          "_relayerFeePercentage": "Fee percentage for relayer",
          "_scriptType": "User script type",
          "_token": "Address of input token (on the current chain)",
          "_userScript": "User script hash",
          "thirdParty": "Id of third party"
        }
      },
      "transferOwnership(address)": {
        "details": "Transfers ownership of the contract to a new account (`newOwner`). Can only be called by the current owner."
      }
    },
    "version": 1
  },
  "userdoc": {
    "kind": "user",
    "methods": {
      "emergencyWithdraw(address,address,uint256)": {
        "notice": "Withdraws tokens in the emergency case"
      },
      "setAcross(address)": {
        "notice": "Setter for Across"
      },
      "setTargetChainConnectorProxy(address)": {
        "notice": "Setter for TargetChainConnectorProxy"
      },
      "setTargetChainTeleBTC(address)": {
        "notice": "Setter for TargetChainTeleBTC"
      },
      "setWrappedNativeToken(address)": {
        "notice": "Setter for WrappedNativeToken"
      },
      "swapAndUnwrap(address,address,uint256[],address[],bytes,uint8,bytes,int64,uint256)": {
        "notice": "Requests exchanging token for BTC"
      }
    },
    "version": 1
  },
  "storageLayout": {
    "storage": [
      {
        "astId": 139,
        "contract": "contracts/routers/EthConnectorLogic.sol:EthConnectorLogic",
        "label": "_initialized",
        "offset": 0,
        "slot": "0",
        "type": "t_uint8"
      },
      {
        "astId": 142,
        "contract": "contracts/routers/EthConnectorLogic.sol:EthConnectorLogic",
        "label": "_initializing",
        "offset": 1,
        "slot": "0",
        "type": "t_bool"
      },
      {
        "astId": 894,
        "contract": "contracts/routers/EthConnectorLogic.sol:EthConnectorLogic",
        "label": "__gap",
        "offset": 0,
        "slot": "1",
        "type": "t_array(t_uint256)50_storage"
      },
      {
        "astId": 11,
        "contract": "contracts/routers/EthConnectorLogic.sol:EthConnectorLogic",
        "label": "_owner",
        "offset": 0,
        "slot": "51",
        "type": "t_address"
      },
      {
        "astId": 131,
        "contract": "contracts/routers/EthConnectorLogic.sol:EthConnectorLogic",
        "label": "__gap",
        "offset": 0,
        "slot": "52",
        "type": "t_array(t_uint256)49_storage"
      },
      {
        "astId": 444,
        "contract": "contracts/routers/EthConnectorLogic.sol:EthConnectorLogic",
        "label": "_status",
        "offset": 0,
        "slot": "101",
        "type": "t_uint256"
      },
      {
        "astId": 513,
        "contract": "contracts/routers/EthConnectorLogic.sol:EthConnectorLogic",
        "label": "__gap",
        "offset": 0,
        "slot": "102",
        "type": "t_array(t_uint256)49_storage"
      },
      {
        "astId": 323,
        "contract": "contracts/routers/EthConnectorLogic.sol:EthConnectorLogic",
        "label": "_paused",
        "offset": 0,
        "slot": "151",
        "type": "t_bool"
      },
      {
        "astId": 428,
        "contract": "contracts/routers/EthConnectorLogic.sol:EthConnectorLogic",
        "label": "__gap",
        "offset": 0,
        "slot": "152",
        "type": "t_array(t_uint256)49_storage"
      },
      {
        "astId": 1738,
        "contract": "contracts/routers/EthConnectorLogic.sol:EthConnectorLogic",
        "label": "across",
        "offset": 0,
        "slot": "201",
        "type": "t_address"
      },
      {
        "astId": 1740,
        "contract": "contracts/routers/EthConnectorLogic.sol:EthConnectorLogic",
        "label": "targetChainConnectorProxy",
        "offset": 0,
        "slot": "202",
        "type": "t_address"
      },
      {
        "astId": 1742,
        "contract": "contracts/routers/EthConnectorLogic.sol:EthConnectorLogic",
        "label": "targetChainTeleBTC",
        "offset": 0,
        "slot": "203",
        "type": "t_address"
      },
      {
        "astId": 1744,
        "contract": "contracts/routers/EthConnectorLogic.sol:EthConnectorLogic",
        "label": "targetChainId",
        "offset": 0,
        "slot": "204",
        "type": "t_uint256"
      },
      {
        "astId": 1746,
        "contract": "contracts/routers/EthConnectorLogic.sol:EthConnectorLogic",
        "label": "wrappedNativeToken",
        "offset": 0,
        "slot": "205",
        "type": "t_address"
      },
      {
        "astId": 1748,
        "contract": "contracts/routers/EthConnectorLogic.sol:EthConnectorLogic",
        "label": "uniqueCounter",
        "offset": 0,
        "slot": "206",
        "type": "t_uint256"
      }
    ],
    "types": {
      "t_address": {
        "encoding": "inplace",
        "label": "address",
        "numberOfBytes": "20"
      },
      "t_array(t_uint256)49_storage": {
        "base": "t_uint256",
        "encoding": "inplace",
        "label": "uint256[49]",
        "numberOfBytes": "1568"
      },
      "t_array(t_uint256)50_storage": {
        "base": "t_uint256",
        "encoding": "inplace",
        "label": "uint256[50]",
        "numberOfBytes": "1600"
      },
      "t_bool": {
        "encoding": "inplace",
        "label": "bool",
        "numberOfBytes": "1"
      },
      "t_uint256": {
        "encoding": "inplace",
        "label": "uint256",
        "numberOfBytes": "32"
      },
      "t_uint8": {
        "encoding": "inplace",
        "label": "uint8",
        "numberOfBytes": "1"
      }
    }
  }
}