{
  "address": "0xFcd688999c25D5493571543137cEeb4fbDb44D02",
  "abi": [
    {
      "inputs": [],
      "name": "ZeroAddress",
      "type": "error"
    },
    {
      "anonymous": false,
      "inputs": [
        {
          "indexed": false,
          "internalType": "address",
          "name": "oldAcross",
          "type": "address"
        },
        {
          "indexed": false,
          "internalType": "address",
          "name": "newAcross",
          "type": "address"
        }
      ],
      "name": "AcrossUpdated",
      "type": "event"
    },
    {
      "anonymous": false,
      "inputs": [
        {
          "indexed": false,
          "internalType": "uint8",
          "name": "version",
          "type": "uint8"
        }
      ],
      "name": "Initialized",
      "type": "event"
    },
    {
      "anonymous": false,
      "inputs": [
        {
          "indexed": false,
          "internalType": "address",
          "name": "token",
          "type": "address"
        },
        {
          "indexed": false,
          "internalType": "uint256",
          "name": "minAmount",
          "type": "uint256"
        }
      ],
      "name": "MinAmountUpdated",
      "type": "event"
    },
    {
      "anonymous": false,
      "inputs": [
        {
          "indexed": false,
          "internalType": "uint256",
          "name": "oldMinModifier",
          "type": "uint256"
        },
        {
          "indexed": false,
          "internalType": "uint256",
          "name": "newMinModifier",
          "type": "uint256"
        }
      ],
      "name": "MinModifierUpdated",
      "type": "event"
    },
    {
      "anonymous": false,
      "inputs": [
        {
          "indexed": false,
          "internalType": "uint256",
          "name": "uniqueCounter",
          "type": "uint256"
        },
        {
          "indexed": false,
          "internalType": "string",
          "name": "functionName",
          "type": "string"
        },
        {
          "indexed": false,
          "internalType": "bytes",
          "name": "data",
          "type": "bytes"
        },
        {
          "indexed": false,
          "internalType": "address",
          "name": "sourceChainInputToken",
          "type": "address"
        },
        {
          "indexed": false,
          "internalType": "uint256",
          "name": "amount",
          "type": "uint256"
        }
      ],
      "name": "MsgSent",
      "type": "event"
    },
    {
      "anonymous": false,
      "inputs": [
        {
          "indexed": true,
          "internalType": "address",
          "name": "previousOwner",
          "type": "address"
        },
        {
          "indexed": true,
          "internalType": "address",
          "name": "newOwner",
          "type": "address"
        }
      ],
      "name": "OwnershipTransferred",
      "type": "event"
    },
    {
      "anonymous": false,
      "inputs": [
        {
          "indexed": false,
          "internalType": "address",
          "name": "account",
          "type": "address"
        }
      ],
      "name": "Paused",
      "type": "event"
    },
    {
      "anonymous": false,
      "inputs": [
        {
          "indexed": false,
          "internalType": "address",
          "name": "oldPolygonConnector",
          "type": "address"
        },
        {
          "indexed": false,
          "internalType": "address",
          "name": "newPolygonConnector",
          "type": "address"
        }
      ],
      "name": "PolygonConnectorUpdated",
      "type": "event"
    },
    {
      "anonymous": false,
      "inputs": [
        {
          "indexed": false,
          "internalType": "address",
          "name": "oldPolygonTeleBtc",
          "type": "address"
        },
        {
          "indexed": false,
          "internalType": "address",
          "name": "newPolygonTeleBtc",
          "type": "address"
        }
      ],
      "name": "PolygonTeleBtcUpdated",
      "type": "event"
    },
    {
      "anonymous": false,
      "inputs": [
        {
          "indexed": false,
          "internalType": "address",
          "name": "account",
          "type": "address"
        }
      ],
      "name": "Unpaused",
      "type": "event"
    },
    {
      "anonymous": false,
      "inputs": [
        {
          "indexed": false,
          "internalType": "address",
          "name": "oldWrappedNativeToken",
          "type": "address"
        },
        {
          "indexed": false,
          "internalType": "address",
          "name": "newWrappedNativeToken",
          "type": "address"
        }
      ],
      "name": "WrappedNativeTokenUpdated",
      "type": "event"
    },
    {
      "inputs": [],
      "name": "ETH_ADDR",
      "outputs": [
        {
          "internalType": "address",
          "name": "",
          "type": "address"
        }
      ],
      "stateMutability": "view",
      "type": "function"
    },
    {
      "inputs": [],
      "name": "ONE_HUNDRED_PERCENT",
      "outputs": [
        {
          "internalType": "uint256",
          "name": "",
          "type": "uint256"
        }
      ],
      "stateMutability": "view",
      "type": "function"
    },
    {
      "inputs": [],
      "name": "across",
      "outputs": [
        {
          "internalType": "address",
          "name": "",
          "type": "address"
        }
      ],
      "stateMutability": "view",
      "type": "function"
    },
    {
      "inputs": [
        {
          "internalType": "address",
          "name": "_token",
          "type": "address"
        },
        {
          "internalType": "address",
          "name": "_to",
          "type": "address"
        },
        {
          "internalType": "uint256",
          "name": "_amount",
          "type": "uint256"
        }
      ],
      "name": "emergencyWithdraw",
      "outputs": [],
      "stateMutability": "nonpayable",
      "type": "function"
    },
    {
      "inputs": [
        {
          "internalType": "address",
          "name": "_token",
          "type": "address"
        },
        {
          "internalType": "address",
          "name": "_exchangeConnector",
          "type": "address"
        },
        {
          "internalType": "uint256[]",
          "name": "_amounts",
          "type": "uint256[]"
        },
        {
          "internalType": "address[]",
          "name": "_path",
          "type": "address[]"
        },
        {
          "internalType": "bytes",
          "name": "_userScript",
          "type": "bytes"
        },
        {
          "internalType": "enum ScriptTypes",
          "name": "_scriptType",
          "type": "uint8"
        },
        {
          "internalType": "bytes",
          "name": "_lockerLockingScript",
          "type": "bytes"
        },
        {
          "internalType": "int64",
          "name": "_relayerFeePercentage",
          "type": "int64"
        },
        {
          "internalType": "uint256",
          "name": "thirdParty",
          "type": "uint256"
        }
      ],
      "name": "exchangeForBtcAcross",
      "outputs": [],
      "stateMutability": "payable",
      "type": "function"
    },
    {
      "inputs": [
        {
          "internalType": "address",
          "name": "_polygonTeleBTC",
          "type": "address"
        },
        {
          "internalType": "address",
          "name": "_across",
          "type": "address"
        },
        {
          "internalType": "address",
          "name": "_wrappedNativeToken",
          "type": "address"
        },
        {
          "internalType": "uint256",
          "name": "_targetChainId",
          "type": "uint256"
        }
      ],
      "name": "initialize",
      "outputs": [],
      "stateMutability": "nonpayable",
      "type": "function"
    },
    {
      "inputs": [
        {
          "internalType": "address",
          "name": "",
          "type": "address"
        }
      ],
      "name": "minAmounts",
      "outputs": [
        {
          "internalType": "uint256",
          "name": "",
          "type": "uint256"
        }
      ],
      "stateMutability": "view",
      "type": "function"
    },
    {
      "inputs": [],
      "name": "minModifier",
      "outputs": [
        {
          "internalType": "uint256",
          "name": "",
          "type": "uint256"
        }
      ],
      "stateMutability": "view",
      "type": "function"
    },
    {
      "inputs": [],
      "name": "owner",
      "outputs": [
        {
          "internalType": "address",
          "name": "",
          "type": "address"
        }
      ],
      "stateMutability": "view",
      "type": "function"
    },
    {
      "inputs": [],
      "name": "paused",
      "outputs": [
        {
          "internalType": "bool",
          "name": "",
          "type": "bool"
        }
      ],
      "stateMutability": "view",
      "type": "function"
    },
    {
      "inputs": [],
      "name": "polygonConnectorProxy",
      "outputs": [
        {
          "internalType": "address",
          "name": "",
          "type": "address"
        }
      ],
      "stateMutability": "view",
      "type": "function"
    },
    {
      "inputs": [],
      "name": "polygonTeleBTC",
      "outputs": [
        {
          "internalType": "address",
          "name": "",
          "type": "address"
        }
      ],
      "stateMutability": "view",
      "type": "function"
    },
    {
      "inputs": [],
      "name": "renounceOwnership",
      "outputs": [],
      "stateMutability": "nonpayable",
      "type": "function"
    },
    {
      "inputs": [
        {
          "internalType": "address",
          "name": "_across",
          "type": "address"
        }
      ],
      "name": "setAcross",
      "outputs": [],
      "stateMutability": "nonpayable",
      "type": "function"
    },
    {
      "inputs": [
        {
          "internalType": "address",
          "name": "_token",
          "type": "address"
        },
        {
          "internalType": "uint256",
          "name": "_minAmount",
          "type": "uint256"
        }
      ],
      "name": "setMinAmount",
      "outputs": [],
      "stateMutability": "nonpayable",
      "type": "function"
    },
    {
      "inputs": [
        {
          "internalType": "uint256",
          "name": "_minModifier",
          "type": "uint256"
        }
      ],
      "name": "setMinModifier",
      "outputs": [],
      "stateMutability": "nonpayable",
      "type": "function"
    },
    {
      "inputs": [
        {
          "internalType": "address",
          "name": "_polygonConnectorProxy",
          "type": "address"
        }
      ],
      "name": "setPolygonConnectorProxy",
      "outputs": [],
      "stateMutability": "nonpayable",
      "type": "function"
    },
    {
      "inputs": [
        {
          "internalType": "address",
          "name": "_polygonTeleBTC",
          "type": "address"
        }
      ],
      "name": "setPolygonTeleBTC",
      "outputs": [],
      "stateMutability": "nonpayable",
      "type": "function"
    },
    {
      "inputs": [
        {
          "internalType": "address",
          "name": "_wrappedNativeToken",
          "type": "address"
        }
      ],
      "name": "setWrappedNativeToken",
      "outputs": [],
      "stateMutability": "nonpayable",
      "type": "function"
    },
    {
      "inputs": [],
      "name": "targetChainId",
      "outputs": [
        {
          "internalType": "uint256",
          "name": "",
          "type": "uint256"
        }
      ],
      "stateMutability": "view",
      "type": "function"
    },
    {
      "inputs": [
        {
          "internalType": "address",
          "name": "newOwner",
          "type": "address"
        }
      ],
      "name": "transferOwnership",
      "outputs": [],
      "stateMutability": "nonpayable",
      "type": "function"
    },
    {
      "inputs": [],
      "name": "uniqueCounter",
      "outputs": [
        {
          "internalType": "uint256",
          "name": "",
          "type": "uint256"
        }
      ],
      "stateMutability": "view",
      "type": "function"
    },
    {
      "inputs": [],
      "name": "wrappedNativeToken",
      "outputs": [
        {
          "internalType": "address",
          "name": "",
          "type": "address"
        }
      ],
      "stateMutability": "view",
      "type": "function"
    },
    {
      "stateMutability": "payable",
      "type": "receive"
    }
  ],
  "transactionHash": "0xa8137d0964e6a808738eb7b37c13fdc1cd01ff9124cd0124da9d1a2dc67b78f5",
  "args": [],
  "numDeployments": 1,
  "solcInputHash": "42c82863bc8a691491a470dc7f022370",
  "bytecode": "0x608060405234801561001057600080fd5b50611b29806100206000396000f3fe6080604052600436106101145760003560e01c8063146ffb261461012057806317fcb39b1461014957806323d859a014610181578063292c1d92146101a35780635c975abb146101c357806361be10f2146101e65780636f84d4b314610206578063715018a6146102195780637753f47b1461022e5780637c9ae564146102565780638820bb561461026c5780638da5cb5b1461028c5780639c5e52d5146102a1578063ac632db2146102ce578063be0367b8146102ee578063cf756fdf1461030e578063d4dfc8c31461032e578063d5708d5a14610344578063da058ae314610364578063dd0081c714610384578063e63ea4081461039a578063ec464fde146103ba578063f2fde38b146103da57600080fd5b3661011b57005b600080fd5b34801561012c57600080fd5b5061013660035481565b6040519081526020015b60405180910390f35b34801561015557600080fd5b50600454610169906001600160a01b031681565b6040516001600160a01b039091168152602001610140565b34801561018d57600080fd5b506101a161019c3660046114cc565b6103fa565b005b3480156101af57600080fd5b50600054610169906001600160a01b031681565b3480156101cf57600080fd5b50609f5460ff166040519015158152602001610140565b3480156101f257600080fd5b506101a16102013660046114cc565b61040e565b6101a1610214366004611530565b61041f565b34801561022557600080fd5b506101a161055c565b34801561023a57600080fd5b5061016973eeeeeeeeeeeeeeeeeeeeeeeeeeeeeeeeeeeeeeee81565b34801561026257600080fd5b5061013660065481565b34801561027857600080fd5b506101a16102873660046116d0565b610570565b34801561029857600080fd5b50610169610581565b3480156102ad57600080fd5b506101366102bc3660046114cc565b60056020526000908152604090205481565b3480156102da57600080fd5b50600154610169906001600160a01b031681565b3480156102fa57600080fd5b50600254610169906001600160a01b031681565b34801561031a57600080fd5b506101a16103293660046114e6565b610590565b34801561033a57600080fd5b5061013660075481565b34801561035057600080fd5b506101a161035f366004611687565b6106ea565b34801561037057600080fd5b506101a161037f3660046114cc565b610729565b34801561039057600080fd5b5061013661271081565b3480156103a657600080fd5b506101a16103b536600461164c565b61073a565b3480156103c657600080fd5b506101a16103d53660046114cc565b610843565b3480156103e657600080fd5b506101a16103f53660046114cc565b610854565b6104026108ca565b61040b81610929565b50565b6104166108ca565b61040b816109bb565b610427610a4d565b6104348c8b8b8b8b610aa7565b6000600754338d8d8d600181811061045c57634e487b7160e01b600052603260045260246000fd5b905060200201358c8c8c8c8c8c8b6040516020016104849b9a999897969594939291906118a4565b60405160208183030381529060405290507f1d8f6a1003d585cfcda68c8a9a5dfc25915d8c9d21e03f18f8a7916d91e8ddc7600754828f8e8e60008181106104dc57634e487b7160e01b600052603260045260246000fd5b905060200201356040516104f394939291906119a9565b60405180910390a16007805490600061050b83611a83565b91905055506105438d8c8c600081811061053557634e487b7160e01b600052603260045260246000fd5b905060200201358386610cb0565b5061054e6001606d55565b505050505050505050505050565b6105646108ca565b61056e6000610ea4565b565b6105786108ca565b61040b81610ef6565b603b546001600160a01b031690565b600854610100900460ff16158080156105b05750600854600160ff909116105b806105ca5750303b1580156105ca575060085460ff166001145b6106325760405162461bcd60e51b815260206004820152602e60248201527f496e697469616c697a61626c653a20636f6e747261637420697320616c72656160448201526d191e481a5b9a5d1a585b1a5e995960921b60648201526084015b60405180910390fd5b6008805460ff191660011790558015610655576008805461ff0019166101001790555b61065d610f37565b610665610f66565b61066d610f95565b61067685610fc4565b61067f846109bb565b61068883611056565b6003829055610698612710610ef6565b600060075580156106e3576008805461ff0019169055604051600181527f7f26b83ff96e1f2b6a682f133852f6798a09c465da95921460cefb38474024989060200160405180910390a15b5050505050565b6106f26108ca565b816001600160a01b03811661071a5760405163d92e233d60e01b815260040160405180910390fd5b61072483836110e8565b505050565b6107316108ca565b61040b81611056565b6107426108ca565b6001600160a01b03831673eeeeeeeeeeeeeeeeeeeeeeeeeeeeeeeeeeeeeeee14156107bd576040516001600160a01b038316908290600081818185875af1925050503d80600081146107b0576040519150601f19603f3d011682016040523d82523d6000602084013e6107b5565b606091505b505050505050565b60405163a9059cbb60e01b81526001600160a01b0384169063a9059cbb906107eb9085908590600401611842565b602060405180830381600087803b15801561080557600080fd5b505af1158015610819573d6000803e3d6000fd5b505050506040513d601f19601f8201168201806040525081019061083d91906116b0565b50505050565b61084b6108ca565b61040b81610fc4565b61085c6108ca565b6001600160a01b0381166108c15760405162461bcd60e51b815260206004820152602660248201527f4f776e61626c653a206e6577206f776e657220697320746865207a65726f206160448201526564647265737360d01b6064820152608401610629565b61040b81610ea4565b336108d3610581565b6001600160a01b03161461056e5760405162461bcd60e51b815260206004820181905260248201527f4f776e61626c653a2063616c6c6572206973206e6f7420746865206f776e65726044820152606401610629565b806001600160a01b0381166109515760405163d92e233d60e01b815260040160405180910390fd5b6001546040517f67ab9e5f2215e43392826b5e9e4e0bf6679e6ea91f307b3162025327bcee07f391610990916001600160a01b039091169085906117c1565b60405180910390a150600180546001600160a01b0319166001600160a01b0392909216919091179055565b806001600160a01b0381166109e35760405163d92e233d60e01b815260040160405180910390fd5b6000546040517f06e5f2ca1234f717a2031f662608c02182d4f8bdc3dab013ec4c04eb9755313291610a22916001600160a01b039091169085906117c1565b60405180910390a150600080546001600160a01b0319166001600160a01b0392909216919091179055565b6002606d541415610aa05760405162461bcd60e51b815260206004820152601f60248201527f5265656e7472616e637947756172643a207265656e7472616e742063616c6c006044820152606401610629565b6002606d55565b6001600160a01b038516600090815260056020526040902054610b185760405162461bcd60e51b8152602060048201526024808201527f4574684d616e616765724c6f6769633a20746f6b656e206e6f7420737570706f6044820152631c9d195960e21b6064820152608401610629565b6006546001600160a01b03861660009081526005602052604090205461271091610b4191611a21565b610b4b9190611a01565b84846000818110610b6c57634e487b7160e01b600052603260045260246000fd5b905060200201351015610bbf5760405162461bcd60e51b815260206004820152601b60248201527a115d1a13585b9859d95c931bd9da58ce881b1bddc8185b5bdd5b9d602a1b6044820152606401610629565b6002546001600160a01b03168282610bd8600182611a40565b818110610bf557634e487b7160e01b600052603260045260246000fd5b9050602002016020810190610c0a91906114cc565b6001600160a01b031614610c605760405162461bcd60e51b815260206004820152601d60248201527f4574684d616e616765724c6f6769633a20696e76616c696420706174680000006044820152606401610629565b600283146106e35760405162461bcd60e51b815260206004820152601e60248201527f4574684d616e616765724c6f6769633a2077726f6e6720616d6f756e747300006044820152606401610629565b6001600160a01b03841673eeeeeeeeeeeeeeeeeeeeeeeeeeeeeeeeeeeeeeee1415610d0757823414610cf45760405162461bcd60e51b81526004016106299061186e565b6004546001600160a01b03169350610e34565b3415610d255760405162461bcd60e51b81526004016106299061186e565b6040516323b872dd60e01b8152336004820152306024820152604481018490526001600160a01b038516906323b872dd90606401602060405180830381600087803b158015610d7357600080fd5b505af1158015610d87573d6000803e3d6000fd5b505050506040513d601f19601f82011682018060405250810190610dab91906116b0565b5060005460405163095ea7b360e01b81526001600160a01b038681169263095ea7b392610de092909116908790600401611842565b602060405180830381600087803b158015610dfa57600080fd5b505af1158015610e0e573d6000803e3d6000fd5b505050506040513d601f19601f82011682018060405250810190610e3291906116b0565b505b6000546001546003546040516106e3936001600160a01b0390811693610e6d9391169189918991889042908b90600019906024016117db565b60408051601f198184030181529190526020810180516001600160e01b0316631186ec3360e01b17905234611166565b6001606d55565b603b80546001600160a01b038381166001600160a01b0319831681179093556040519116919082907f8be0079c531659141344cd1fd0a4f28419497f9722a3daafe3b4186f6b6457e090600090a35050565b60065460408051918252602082018390527f5c1bebaca9e5461f515d3939a9ba6c89d486e0b3130fd5f1613bea8312a7349f910160405180910390a1600655565b600854610100900460ff16610f5e5760405162461bcd60e51b81526004016106299061195e565b61056e611196565b600854610100900460ff16610f8d5760405162461bcd60e51b81526004016106299061195e565b61056e6111c6565b600854610100900460ff16610fbc5760405162461bcd60e51b81526004016106299061195e565b61056e6111ed565b806001600160a01b038116610fec5760405163d92e233d60e01b815260040160405180910390fd5b6002546040517fcce6a91bc875435f68407f052fabbcb2cfda2ae841ac4816acf552714fb30adf9161102b916001600160a01b039091169085906117c1565b60405180910390a150600280546001600160a01b0319166001600160a01b0392909216919091179055565b806001600160a01b03811661107e5760405163d92e233d60e01b815260040160405180910390fd5b6004546040517fffd9582901c27177dbd18194ae8017f10d8b21f98a0da2ea5197e0b20dc13d70916110bd916001600160a01b039091169085906117c1565b60405180910390a150600480546001600160a01b0319166001600160a01b0392909216919091179055565b816001600160a01b0381166111105760405163d92e233d60e01b815260040160405180910390fd5b7f661459273999943a19efbd948eb50b734e8c71b010cc26221bd1efeffd1dccb58383604051611141929190611842565b60405180910390a1506001600160a01b03909116600090815260056020526040902055565b606061118c848484604051806060016040528060298152602001611acb60299139611220565b90505b9392505050565b600854610100900460ff166111bd5760405162461bcd60e51b81526004016106299061195e565b61056e33610ea4565b600854610100900460ff16610e9d5760405162461bcd60e51b81526004016106299061195e565b600854610100900460ff166112145760405162461bcd60e51b81526004016106299061195e565b609f805460ff19169055565b6060824710156112815760405162461bcd60e51b815260206004820152602660248201527f416464726573733a20696e73756666696369656e742062616c616e636520666f6044820152651c8818d85b1b60d21b6064820152608401610629565b843b6112cf5760405162461bcd60e51b815260206004820152601d60248201527f416464726573733a2063616c6c20746f206e6f6e2d636f6e74726163740000006044820152606401610629565b600080866001600160a01b031685876040516112eb91906117a5565b60006040518083038185875af1925050503d8060008114611328576040519150601f19603f3d011682016040523d82523d6000602084013e61132d565b606091505b509150915061133d828286611348565b979650505050505050565b6060831561135757508161118f565b8251156113675782518084602001fd5b8160405162461bcd60e51b8152600401610629919061185b565b80356001600160a01b038116811461139857600080fd5b919050565b60008083601f8401126113ae578081fd5b5081356001600160401b038111156113c4578182fd5b6020830191508360208260051b85010111156113df57600080fd5b9250929050565b60008083601f8401126113f7578182fd5b5081356001600160401b0381111561140d578182fd5b6020830191508360208285010111156113df57600080fd5b600082601f830112611435578081fd5b81356001600160401b038082111561144f5761144f611ab4565b604051601f8301601f19908116603f0116810190828211818310171561147757611477611ab4565b8160405283815286602085880101111561148f578485fd5b8360208701602083013792830160200193909352509392505050565b80356006811061139857600080fd5b8035600781900b811461139857600080fd5b6000602082840312156114dd578081fd5b61118f82611381565b600080600080608085870312156114fb578283fd5b61150485611381565b935061151260208601611381565b925061152060408601611381565b9396929550929360600135925050565b6000806000806000806000806000806000806101208d8f031215611552578788fd5b61155b8d611381565b9b5061156960208e01611381565b9a506001600160401b0360408e01351115611582578788fd5b6115928e60408f01358f0161139d565b909a5098506001600160401b0360608e013511156115ae578788fd5b6115be8e60608f01358f0161139d565b90985096506001600160401b0360808e013511156115da578586fd5b6115ea8e60808f01358f01611425565b95506115f860a08e016114ab565b94506001600160401b0360c08e01351115611611578384fd5b6116218e60c08f01358f016113e6565b909450925061163260e08e016114ba565b91506101008d013590509295989b509295989b509295989b565b600080600060608486031215611660578283fd5b61166984611381565b925061167760208501611381565b9150604084013590509250925092565b60008060408385031215611699578182fd5b6116a283611381565b946020939093013593505050565b6000602082840312156116c1578081fd5b8151801515811461118f578182fd5b6000602082840312156116e1578081fd5b5035919050565b81835260006020808501945082825b85811015611723576001600160a01b0361171083611381565b16875295820195908201906001016116f7565b509495945050505050565b81835281816020850137506000828201602090810191909152601f909101601f19169091010190565b6000815180845261176f816020860160208601611a57565b601f01601f19169290920160200192915050565b600681106117a157634e487b7160e01b600052602160045260246000fd5b9052565b600082516117b7818460208701611a57565b9190910192915050565b6001600160a01b0392831681529116602082015260400190565b6001600160a01b038981168252881660208201526040810187905260608101869052600785900b608082015263ffffffff841660a082015261010060c0820181905260009061182c83820186611757565b9150508260e08301529998505050505050505050565b6001600160a01b03929092168252602082015260400190565b60208152600061118f6020830184611757565b6020808252601c908201527b4574684d616e616765724c6f6769633a2077726f6e672076616c756560201b604082015260600190565b6101408082526014908201527365786368616e6765466f724274634163726f737360601b610160820152602081018c90526001600160a01b038b811660408301528a1660608201526080810189905261018060a0820181905260009061190d8184018a8c6116e8565b905082810360c08401526119218189611757565b905061193060e0840188611783565b82810361010084015261194481868861172e565b915050826101208301529c9b505050505050505050505050565b6020808252602b908201527f496e697469616c697a61626c653a20636f6e7472616374206973206e6f74206960408201526a6e697469616c697a696e6760a81b606082015260800190565b84815260a06020820152600c60a08201526b7075744269644163726f737360a01b60c082015260e0604082015260006119e560e0830186611757565b6001600160a01b03949094166060830152506080015292915050565b600082611a1c57634e487b7160e01b81526012600452602481fd5b500490565b6000816000190483118215151615611a3b57611a3b611a9e565b500290565b600082821015611a5257611a52611a9e565b500390565b60005b83811015611a72578181015183820152602001611a5a565b8381111561083d5750506000910152565b6000600019821415611a9757611a97611a9e565b5060010190565b634e487b7160e01b600052601160045260246000fd5b634e487b7160e01b600052604160045260246000fdfe416464726573733a206c6f772d6c6576656c2063616c6c20776974682076616c7565206661696c6564a2646970667358221220005971895501e3c59cf8d7c2b30a47582f09d7076054906247510e9d1427403d64736f6c63430008040033",
  "devdoc": {
    "kind": "dev",
    "methods": {
      "emergencyWithdraw(address,address,uint256)": {
        "details": "Only owner can call this"
      },
      "exchangeForBtcAcross(address,address,uint256[],address[],bytes,uint8,bytes,int64,uint256)": {
        "params": {
          "_amounts": "[inputTokenAmount, teleBTCAmount]",
          "_exchangeConnector": "Address of exchange connector to be used",
          "_lockerLockingScript": "of locker that should execute the burn request",
          "_path": "of exchanging inputToken to teleBTC (these are Polygon token addresses, so _path[0] != _token)",
          "_relayerFeePercentage": "Fee percentage for relayer",
          "_scriptType": "User script type",
          "_token": "Address of input token (on the current chain)",
          "_userScript": "User script hash",
          "thirdParty": "Id of third party"
        }
      },
      "owner()": {
        "details": "Returns the address of the current owner."
      },
      "paused()": {
        "details": "Returns true if the contract is paused, and false otherwise."
      },
      "renounceOwnership()": {
        "details": "Leaves the contract without owner. It will not be possible to call `onlyOwner` functions. Can only be called by the current owner. NOTE: Renouncing ownership will leave the contract without an owner, thereby disabling any functionality that is only available to the owner."
      },
      "setMinAmount(address,uint256)": {
        "details": "Exchanging below the min amount is not possible since withdrawing       funds in the case of failure becomes impossible (due to Across bridge fee)"
      },
      "setMinModifier(uint256)": {
        "details": "In the case of network fee changes, instead of       updating min amount for all tokens, we only update this modifier"
      },
      "transferOwnership(address)": {
        "details": "Transfers ownership of the contract to a new account (`newOwner`). Can only be called by the current owner."
      }
    },
    "version": 1
  },
  "userdoc": {
    "kind": "user",
    "methods": {
      "emergencyWithdraw(address,address,uint256)": {
        "notice": "Withdraws tokens in the emergency case"
      },
      "exchangeForBtcAcross(address,address,uint256[],address[],bytes,uint8,bytes,int64,uint256)": {
        "notice": "Requests exchanging token for BTC"
      },
      "setAcross(address)": {
        "notice": "Setter for Across"
      },
      "setMinAmount(address,uint256)": {
        "notice": "Setter for min exchange amount of a token"
      },
      "setMinModifier(uint256)": {
        "notice": "Setter for min amount modifier"
      },
      "setPolygonConnectorProxy(address)": {
        "notice": "Setter for PolygonConnectorProxy"
      },
      "setPolygonTeleBTC(address)": {
        "notice": "Setter for PolygonTeleBTC"
      },
      "setWrappedNativeToken(address)": {
        "notice": "Setter for WrappedNativeToken"
      }
    },
    "version": 1
  },
  "storageLayout": {
    "storage": [
      {
        "astId": 22826,
        "contract": "contracts/routers/EthConnectorLogic.sol:EthConnectorLogic",
        "label": "across",
        "offset": 0,
        "slot": "0",
        "type": "t_address"
      },
      {
        "astId": 22828,
        "contract": "contracts/routers/EthConnectorLogic.sol:EthConnectorLogic",
        "label": "polygonConnectorProxy",
        "offset": 0,
        "slot": "1",
        "type": "t_address"
      },
      {
        "astId": 22830,
        "contract": "contracts/routers/EthConnectorLogic.sol:EthConnectorLogic",
        "label": "polygonTeleBTC",
        "offset": 0,
        "slot": "2",
        "type": "t_address"
      },
      {
        "astId": 22832,
        "contract": "contracts/routers/EthConnectorLogic.sol:EthConnectorLogic",
        "label": "targetChainId",
        "offset": 0,
        "slot": "3",
        "type": "t_uint256"
      },
      {
        "astId": 22834,
        "contract": "contracts/routers/EthConnectorLogic.sol:EthConnectorLogic",
        "label": "wrappedNativeToken",
        "offset": 0,
        "slot": "4",
        "type": "t_address"
      },
      {
        "astId": 22838,
        "contract": "contracts/routers/EthConnectorLogic.sol:EthConnectorLogic",
        "label": "minAmounts",
        "offset": 0,
        "slot": "5",
        "type": "t_mapping(t_address,t_uint256)"
      },
      {
        "astId": 22840,
        "contract": "contracts/routers/EthConnectorLogic.sol:EthConnectorLogic",
        "label": "minModifier",
        "offset": 0,
        "slot": "6",
        "type": "t_uint256"
      },
      {
        "astId": 22842,
        "contract": "contracts/routers/EthConnectorLogic.sol:EthConnectorLogic",
        "label": "uniqueCounter",
        "offset": 0,
        "slot": "7",
        "type": "t_uint256"
      },
      {
        "astId": 326,
        "contract": "contracts/routers/EthConnectorLogic.sol:EthConnectorLogic",
        "label": "_initialized",
        "offset": 0,
        "slot": "8",
        "type": "t_uint8"
      },
      {
        "astId": 329,
        "contract": "contracts/routers/EthConnectorLogic.sol:EthConnectorLogic",
        "label": "_initializing",
        "offset": 1,
        "slot": "8",
        "type": "t_bool"
      },
      {
        "astId": 1797,
        "contract": "contracts/routers/EthConnectorLogic.sol:EthConnectorLogic",
        "label": "__gap",
        "offset": 0,
        "slot": "9",
        "type": "t_array(t_uint256)50_storage"
      },
      {
        "astId": 198,
        "contract": "contracts/routers/EthConnectorLogic.sol:EthConnectorLogic",
        "label": "_owner",
        "offset": 0,
        "slot": "59",
        "type": "t_address"
      },
      {
        "astId": 318,
        "contract": "contracts/routers/EthConnectorLogic.sol:EthConnectorLogic",
        "label": "__gap",
        "offset": 0,
        "slot": "60",
        "type": "t_array(t_uint256)49_storage"
      },
      {
        "astId": 631,
        "contract": "contracts/routers/EthConnectorLogic.sol:EthConnectorLogic",
        "label": "_status",
        "offset": 0,
        "slot": "109",
        "type": "t_uint256"
      },
      {
        "astId": 700,
        "contract": "contracts/routers/EthConnectorLogic.sol:EthConnectorLogic",
        "label": "__gap",
        "offset": 0,
        "slot": "110",
        "type": "t_array(t_uint256)49_storage"
      },
      {
        "astId": 510,
        "contract": "contracts/routers/EthConnectorLogic.sol:EthConnectorLogic",
        "label": "_paused",
        "offset": 0,
        "slot": "159",
        "type": "t_bool"
      },
      {
        "astId": 615,
        "contract": "contracts/routers/EthConnectorLogic.sol:EthConnectorLogic",
        "label": "__gap",
        "offset": 0,
        "slot": "160",
        "type": "t_array(t_uint256)49_storage"
      }
    ],
    "types": {
      "t_address": {
        "encoding": "inplace",
        "label": "address",
        "numberOfBytes": "20"
      },
      "t_array(t_uint256)49_storage": {
        "base": "t_uint256",
        "encoding": "inplace",
        "label": "uint256[49]",
        "numberOfBytes": "1568"
      },
      "t_array(t_uint256)50_storage": {
        "base": "t_uint256",
        "encoding": "inplace",
        "label": "uint256[50]",
        "numberOfBytes": "1600"
      },
      "t_bool": {
        "encoding": "inplace",
        "label": "bool",
        "numberOfBytes": "1"
      },
      "t_mapping(t_address,t_uint256)": {
        "encoding": "mapping",
        "key": "t_address",
        "label": "mapping(address => uint256)",
        "numberOfBytes": "32",
        "value": "t_uint256"
      },
      "t_uint256": {
        "encoding": "inplace",
        "label": "uint256",
        "numberOfBytes": "32"
      },
      "t_uint8": {
        "encoding": "inplace",
        "label": "uint8",
        "numberOfBytes": "1"
      }
    }
  }
}