{
  "address": "0x423A067699ccF73CF1fE62ef93abecca48a67863",
  "abi": [
    {
      "inputs": [],
      "name": "ZeroAddress",
      "type": "error"
    },
    {
      "anonymous": false,
      "inputs": [
        {
          "indexed": false,
          "internalType": "address",
          "name": "oldAcross",
          "type": "address"
        },
        {
          "indexed": false,
          "internalType": "address",
          "name": "newAcross",
          "type": "address"
        }
      ],
      "name": "AcrossUpdated",
      "type": "event"
    },
    {
      "anonymous": false,
      "inputs": [
        {
          "indexed": false,
          "internalType": "uint8",
          "name": "version",
          "type": "uint8"
        }
      ],
      "name": "Initialized",
      "type": "event"
    },
    {
      "anonymous": false,
      "inputs": [
        {
          "indexed": false,
          "internalType": "uint256",
          "name": "uniqueCounter",
          "type": "uint256"
        },
        {
          "indexed": false,
          "internalType": "bytes",
          "name": "data",
          "type": "bytes"
        },
        {
          "indexed": false,
          "internalType": "address",
          "name": "sourceChainInputToken",
          "type": "address"
        },
        {
          "indexed": false,
          "internalType": "uint256",
          "name": "amount",
          "type": "uint256"
        }
      ],
      "name": "MsgSent",
      "type": "event"
    },
    {
      "anonymous": false,
      "inputs": [
        {
          "indexed": true,
          "internalType": "address",
          "name": "previousOwner",
          "type": "address"
        },
        {
          "indexed": true,
          "internalType": "address",
          "name": "newOwner",
          "type": "address"
        }
      ],
      "name": "OwnershipTransferred",
      "type": "event"
    },
    {
      "anonymous": false,
      "inputs": [
        {
          "indexed": false,
          "internalType": "address",
          "name": "account",
          "type": "address"
        }
      ],
      "name": "Paused",
      "type": "event"
    },
    {
      "anonymous": false,
      "inputs": [
        {
          "indexed": false,
          "internalType": "address",
          "name": "oldTargetChainConnector",
          "type": "address"
        },
        {
          "indexed": false,
          "internalType": "address",
          "name": "newTargetChainConnector",
          "type": "address"
        }
      ],
      "name": "TargetChainConnectorUpdated",
      "type": "event"
    },
    {
      "anonymous": false,
      "inputs": [
        {
          "indexed": false,
          "internalType": "address",
          "name": "oldTeleBtc",
          "type": "address"
        },
        {
          "indexed": false,
          "internalType": "address",
          "name": "newTeleBtc",
          "type": "address"
        }
      ],
      "name": "TargetChainTeleBTCUpdated",
      "type": "event"
    },
    {
      "anonymous": false,
      "inputs": [
        {
          "indexed": false,
          "internalType": "address",
          "name": "account",
          "type": "address"
        }
      ],
      "name": "Unpaused",
      "type": "event"
    },
    {
      "anonymous": false,
      "inputs": [
        {
          "indexed": false,
          "internalType": "address",
          "name": "oldWrappedNativeToken",
          "type": "address"
        },
        {
          "indexed": false,
          "internalType": "address",
          "name": "newWrappedNativeToken",
          "type": "address"
        }
      ],
      "name": "WrappedNativeTokenUpdated",
      "type": "event"
    },
    {
      "inputs": [],
      "name": "ETH_ADDR",
      "outputs": [
        {
          "internalType": "address",
          "name": "",
          "type": "address"
        }
      ],
      "stateMutability": "view",
      "type": "function"
    },
    {
      "inputs": [],
      "name": "ONE_HUNDRED_PERCENT",
      "outputs": [
        {
          "internalType": "uint256",
          "name": "",
          "type": "uint256"
        }
      ],
      "stateMutability": "view",
      "type": "function"
    },
    {
      "inputs": [],
      "name": "across",
      "outputs": [
        {
          "internalType": "address",
          "name": "",
          "type": "address"
        }
      ],
      "stateMutability": "view",
      "type": "function"
    },
    {
      "inputs": [],
      "name": "currChainId",
      "outputs": [
        {
          "internalType": "uint256",
          "name": "",
          "type": "uint256"
        }
      ],
      "stateMutability": "view",
      "type": "function"
    },
    {
      "inputs": [
        {
          "internalType": "address",
          "name": "_token",
          "type": "address"
        },
        {
          "internalType": "address",
          "name": "_to",
          "type": "address"
        },
        {
          "internalType": "uint256",
          "name": "_amount",
          "type": "uint256"
        }
      ],
      "name": "emergencyWithdraw",
      "outputs": [],
      "stateMutability": "nonpayable",
      "type": "function"
    },
    {
      "inputs": [
        {
          "internalType": "address",
          "name": "_targetChainTeleBTC",
          "type": "address"
        },
        {
          "internalType": "address",
          "name": "_across",
          "type": "address"
        },
        {
          "internalType": "address",
          "name": "_wrappedNativeToken",
          "type": "address"
        },
        {
          "internalType": "uint256",
          "name": "_targetChainId",
          "type": "uint256"
        },
        {
          "internalType": "uint256",
          "name": "_currChainId",
          "type": "uint256"
        }
      ],
      "name": "initialize",
      "outputs": [],
      "stateMutability": "nonpayable",
      "type": "function"
    },
    {
      "inputs": [],
      "name": "owner",
      "outputs": [
        {
          "internalType": "address",
          "name": "",
          "type": "address"
        }
      ],
      "stateMutability": "view",
      "type": "function"
    },
    {
      "inputs": [],
      "name": "paused",
      "outputs": [
        {
          "internalType": "bool",
          "name": "",
          "type": "bool"
        }
      ],
      "stateMutability": "view",
      "type": "function"
    },
    {
      "inputs": [],
      "name": "renounceOwnership",
      "outputs": [],
      "stateMutability": "nonpayable",
      "type": "function"
    },
    {
      "inputs": [
        {
          "internalType": "address",
          "name": "_across",
          "type": "address"
        }
      ],
      "name": "setAcross",
      "outputs": [],
      "stateMutability": "nonpayable",
      "type": "function"
    },
    {
      "inputs": [
        {
          "internalType": "uint256",
          "name": "_currChainId",
          "type": "uint256"
        }
      ],
      "name": "setCurrChainId",
      "outputs": [],
      "stateMutability": "nonpayable",
      "type": "function"
    },
    {
      "inputs": [
        {
          "internalType": "address",
          "name": "_targetChainConnectorProxy",
          "type": "address"
        }
      ],
      "name": "setTargetChainConnectorProxy",
      "outputs": [],
      "stateMutability": "nonpayable",
      "type": "function"
    },
    {
      "inputs": [
        {
          "internalType": "address",
          "name": "_targetChainTeleBTC",
          "type": "address"
        }
      ],
      "name": "setTargetChainTeleBTC",
      "outputs": [],
      "stateMutability": "nonpayable",
      "type": "function"
    },
    {
      "inputs": [
        {
          "internalType": "address",
          "name": "_wrappedNativeToken",
          "type": "address"
        }
      ],
      "name": "setWrappedNativeToken",
      "outputs": [],
      "stateMutability": "nonpayable",
      "type": "function"
    },
    {
      "inputs": [
        {
          "internalType": "address",
          "name": "_token",
          "type": "address"
        },
        {
          "internalType": "address",
          "name": "_exchangeConnector",
          "type": "address"
        },
        {
          "internalType": "uint256[]",
          "name": "_amounts",
          "type": "uint256[]"
        },
        {
          "internalType": "address[]",
          "name": "_path",
          "type": "address[]"
        },
        {
          "internalType": "bytes",
          "name": "_userScript",
          "type": "bytes"
        },
        {
          "internalType": "enum ScriptTypes",
          "name": "_scriptType",
          "type": "uint8"
        },
        {
          "internalType": "bytes",
          "name": "_lockerLockingScript",
          "type": "bytes"
        },
        {
          "internalType": "int64",
          "name": "_relayerFeePercentage",
          "type": "int64"
        },
        {
          "internalType": "uint256",
          "name": "_thirdParty",
          "type": "uint256"
        }
      ],
      "name": "swapAndUnwrap",
      "outputs": [],
      "stateMutability": "payable",
      "type": "function"
    },
    {
      "inputs": [],
      "name": "targetChainConnectorProxy",
      "outputs": [
        {
          "internalType": "address",
          "name": "",
          "type": "address"
        }
      ],
      "stateMutability": "view",
      "type": "function"
    },
    {
      "inputs": [],
      "name": "targetChainId",
      "outputs": [
        {
          "internalType": "uint256",
          "name": "",
          "type": "uint256"
        }
      ],
      "stateMutability": "view",
      "type": "function"
    },
    {
      "inputs": [],
      "name": "targetChainTeleBTC",
      "outputs": [
        {
          "internalType": "address",
          "name": "",
          "type": "address"
        }
      ],
      "stateMutability": "view",
      "type": "function"
    },
    {
      "inputs": [
        {
          "internalType": "address",
          "name": "newOwner",
          "type": "address"
        }
      ],
      "name": "transferOwnership",
      "outputs": [],
      "stateMutability": "nonpayable",
      "type": "function"
    },
    {
      "inputs": [],
      "name": "uniqueCounter",
      "outputs": [
        {
          "internalType": "uint256",
          "name": "",
          "type": "uint256"
        }
      ],
      "stateMutability": "view",
      "type": "function"
    },
    {
      "inputs": [],
      "name": "wrappedNativeToken",
      "outputs": [
        {
          "internalType": "address",
          "name": "",
          "type": "address"
        }
      ],
      "stateMutability": "view",
      "type": "function"
    },
    {
      "stateMutability": "payable",
      "type": "receive"
    }
  ],
  "transactionHash": "0x28b6bc87916dc4be31aa4f1ded344812a2af698c400e30548da67908fe21bf30",
  "args": [],
  "numDeployments": 1,
  "solcInputHash": "204a6029cbd8bb9a68fc02f623fdb774",
  "bytecode": "0x608060405234801561001057600080fd5b50611586806100206000396000f3fe6080604052600436106100fe5760003560e01c8063146ffb261461010a57806317fcb39b14610133578063292c1d921461016b5780634d5f71bb1461018b57806357d95b87146101ab5780635c975abb146101cd57806361be10f2146101f0578063715018a614610210578063754d1461146102255780637753f47b146102455780638da5cb5b1461026d578063a197cbe614610282578063a6b63eb8146102a2578063c4a86b31146102c2578063d4dfc8c3146102e2578063d83f0fc5146102f8578063da058ae31461030e578063dd0081c71461032e578063e11b22ee14610344578063e63ea40814610357578063f2fde38b1461037757600080fd5b3661010557005b600080fd5b34801561011657600080fd5b5061012060cc5481565b6040519081526020015b60405180910390f35b34801561013f57600080fd5b5060cd54610153906001600160a01b031681565b6040516001600160a01b03909116815260200161012a565b34801561017757600080fd5b5060c954610153906001600160a01b031681565b34801561019757600080fd5b5060ca54610153906001600160a01b031681565b3480156101b757600080fd5b506101cb6101c636600461124d565b610397565b005b3480156101d957600080fd5b5060975460ff16604051901515815260200161012a565b3480156101fc57600080fd5b506101cb61020b366004611061565b6103a4565b34801561021c57600080fd5b506101cb6103b8565b34801561023157600080fd5b506101cb610240366004611061565b6103cc565b34801561025157600080fd5b5061015373eeeeeeeeeeeeeeeeeeeeeeeeeeeeeeeeeeeeeeee81565b34801561027957600080fd5b506101536103dd565b34801561028e57600080fd5b506101cb61029d366004611061565b6103ec565b3480156102ae57600080fd5b506101cb6102bd366004611082565b6103fd565b3480156102ce57600080fd5b5060cb54610153906001600160a01b031681565b3480156102ee57600080fd5b5061012060ce5481565b34801561030457600080fd5b5061012060cf5481565b34801561031a57600080fd5b506101cb610329366004611061565b610552565b34801561033a57600080fd5b5061012061271081565b6101cb6103523660046110d6565b610563565b34801561036357600080fd5b506101cb6103723660046111f2565b6106a9565b34801561038357600080fd5b506101cb610392366004611061565b6107a5565b61039f61081b565b60cf55565b6103ac61081b565b6103b58161087a565b50565b6103c061081b565b6103ca600061090c565b565b6103d461081b565b6103b58161095e565b6033546001600160a01b031690565b6103f461081b565b6103b5816109f0565b600054610100900460ff161580801561041d5750600054600160ff909116105b806104375750303b158015610437575060005460ff166001145b61049f5760405162461bcd60e51b815260206004820152602e60248201527f496e697469616c697a61626c653a20636f6e747261637420697320616c72656160448201526d191e481a5b9a5d1a585b1a5e995960921b60648201526084015b60405180910390fd5b6000805460ff1916600117905580156104c2576000805461ff0019166101001790555b6104ca610a82565b6104d2610ab1565b6104da610ae0565b6104e38661095e565b6104ec8561087a565b6104f584610b0f565b60cc83905560cf829055600060ce55801561054a576000805461ff0019169055604051600181527f7f26b83ff96e1f2b6a682f133852f6798a09c465da95921460cefb38474024989060200160405180910390a15b505050505050565b61055a61081b565b6103b581610b0f565b61056b610ba1565b6105778a8a8a8a610bfb565b600060ce5460cf546105863390565b8e8e8e60018181106105a857634e487b7160e01b600052603260045260246000fd5b905060200201358d8d8d8d8d8d8c6040516020016105d19c9b9a99989796959493929190611381565b60405160208183030381529060405290507fe69fe079b662ff18874cc35b6a12c636af0eca0fd56cbd0cee7ddec918aea82760ce54828f8e8e600081811061062957634e487b7160e01b600052603260045260246000fd5b9050602002013560405161064094939291906114bd565b60405180910390a160ce805490600061065883611509565b91905055506106908d8c8c600081811061068257634e487b7160e01b600052603260045260246000fd5b905060200201358386610cec565b5061069b6001606555565b505050505050505050505050565b6106b161081b565b6001600160a01b03831673eeeeeeeeeeeeeeeeeeeeeeeeeeeeeeeeeeeeeeee141561071f576040516001600160a01b038316908290600081818185875af1925050503d806000811461054a576040519150601f19603f3d011682016040523d82523d6000602084013e61054a565b60405163a9059cbb60e01b81526001600160a01b0384169063a9059cbb9061074d9085908590600401611368565b602060405180830381600087803b15801561076757600080fd5b505af115801561077b573d6000803e3d6000fd5b505050506040513d601f19601f8201168201806040525081019061079f919061122d565b50505050565b6107ad61081b565b6001600160a01b0381166108125760405162461bcd60e51b815260206004820152602660248201527f4f776e61626c653a206e6577206f776e657220697320746865207a65726f206160448201526564647265737360d01b6064820152608401610496565b6103b58161090c565b336108246103dd565b6001600160a01b0316146103ca5760405162461bcd60e51b815260206004820181905260248201527f4f776e61626c653a2063616c6c6572206973206e6f7420746865206f776e65726044820152606401610496565b806001600160a01b0381166108a25760405163d92e233d60e01b815260040160405180910390fd5b60c9546040517f06e5f2ca1234f717a2031f662608c02182d4f8bdc3dab013ec4c04eb97553132916108e1916001600160a01b0390911690859061134e565b60405180910390a15060c980546001600160a01b0319166001600160a01b0392909216919091179055565b603380546001600160a01b038381166001600160a01b0319831681179093556040519116919082907f8be0079c531659141344cd1fd0a4f28419497f9722a3daafe3b4186f6b6457e090600090a35050565b806001600160a01b0381166109865760405163d92e233d60e01b815260040160405180910390fd5b60cb546040517f37b4bc62091d0acd3300990bd241557cbc8040fde4cf701b91d8bac7a69e0160916109c5916001600160a01b0390911690859061134e565b60405180910390a15060cb80546001600160a01b0319166001600160a01b0392909216919091179055565b806001600160a01b038116610a185760405163d92e233d60e01b815260040160405180910390fd5b60ca546040517fbac4f45eeeeb3c9688d046eddcdd28783777a2aa7beffcdf0acb76487d79636491610a57916001600160a01b0390911690859061134e565b60405180910390a15060ca80546001600160a01b0319166001600160a01b0392909216919091179055565b600054610100900460ff16610aa95760405162461bcd60e51b815260040161049690611472565b6103ca610e8c565b600054610100900460ff16610ad85760405162461bcd60e51b815260040161049690611472565b6103ca610ebc565b600054610100900460ff16610b075760405162461bcd60e51b815260040161049690611472565b6103ca610ee3565b806001600160a01b038116610b375760405163d92e233d60e01b815260040160405180910390fd5b60cd546040517fffd9582901c27177dbd18194ae8017f10d8b21f98a0da2ea5197e0b20dc13d7091610b76916001600160a01b0390911690859061134e565b60405180910390a15060cd80546001600160a01b0319166001600160a01b0392909216919091179055565b60026065541415610bf45760405162461bcd60e51b815260206004820152601f60248201527f5265656e7472616e637947756172643a207265656e7472616e742063616c6c006044820152606401610496565b6002606555565b60cb546001600160a01b03168282610c146001826114f2565b818110610c3157634e487b7160e01b600052603260045260246000fd5b9050602002016020810190610c469190611061565b6001600160a01b031614610c9c5760405162461bcd60e51b815260206004820152601d60248201527f4574684d616e616765724c6f6769633a20696e76616c696420706174680000006044820152606401610496565b6002831461079f5760405162461bcd60e51b815260206004820152601e60248201527f4574684d616e616765724c6f6769633a2077726f6e6720616d6f756e747300006044820152606401610496565b6001600160a01b03841673eeeeeeeeeeeeeeeeeeeeeeeeeeeeeeeeeeeeeeee1415610d4357823414610d305760405162461bcd60e51b81526004016104969061143c565b60cd546001600160a01b0316935061079f565b3415610d615760405162461bcd60e51b81526004016104969061143c565b6001600160a01b0384166323b872dd336040516001600160e01b031960e084901b1681526001600160a01b03909116600482015230602482015260448101869052606401602060405180830381600087803b158015610dbf57600080fd5b505af1158015610dd3573d6000803e3d6000fd5b505050506040513d601f19601f82011682018060405250810190610df7919061122d565b5060c95460405163095ea7b360e01b81526001600160a01b038681169263095ea7b392610e2c92909116908790600401611368565b602060405180830381600087803b158015610e4657600080fd5b505af1158015610e5a573d6000803e3d6000fd5b505050506040513d601f19601f82011682018060405250810190610e7e919061122d565b5050505050565b6001606555565b600054610100900460ff16610eb35760405162461bcd60e51b815260040161049690611472565b6103ca3361090c565b600054610100900460ff16610e855760405162461bcd60e51b815260040161049690611472565b600054610100900460ff16610f0a5760405162461bcd60e51b815260040161049690611472565b6097805460ff19169055565b80356001600160a01b0381168114610f2d57600080fd5b919050565b60008083601f840112610f43578081fd5b5081356001600160401b03811115610f59578182fd5b6020830191508360208260051b8501011115610f7457600080fd5b9250929050565b60008083601f840112610f8c578182fd5b5081356001600160401b03811115610fa2578182fd5b602083019150836020828501011115610f7457600080fd5b600082601f830112610fca578081fd5b81356001600160401b0380821115610fe457610fe461153a565b604051601f8301601f19908116603f0116810190828211818310171561100c5761100c61153a565b81604052838152866020858801011115611024578485fd5b8360208701602083013792830160200193909352509392505050565b803560068110610f2d57600080fd5b8035600781900b8114610f2d57600080fd5b600060208284031215611072578081fd5b61107b82610f16565b9392505050565b600080600080600060a08688031215611099578081fd5b6110a286610f16565b94506110b060208701610f16565b93506110be60408701610f16565b94979396509394606081013594506080013592915050565b6000806000806000806000806000806000806101208d8f0312156110f8578687fd5b6111018d610f16565b9b5061110f60208e01610f16565b9a506001600160401b0360408e01351115611128578687fd5b6111388e60408f01358f01610f32565b909a5098506001600160401b0360608e01351115611154578687fd5b6111648e60608f01358f01610f32565b90985096506001600160401b0360808e01351115611180578586fd5b6111908e60808f01358f01610fba565b955061119e60a08e01611040565b94506001600160401b0360c08e013511156111b7578384fd5b6111c78e60c08f01358f01610f7b565b90945092506111d860e08e0161104f565b91506101008d013590509295989b509295989b509295989b565b600080600060608486031215611206578283fd5b61120f84610f16565b925061121d60208501610f16565b9150604084013590509250925092565b60006020828403121561123e578081fd5b8151801515811461107b578182fd5b60006020828403121561125e578081fd5b5035919050565b6001600160a01b03169052565b81835260006020808501945082825b858110156112ad576001600160a01b0361129a83610f16565b1687529582019590820190600101611281565b509495945050505050565b81835281816020850137506000828201602090810191909152601f909101601f19169091010190565b60008151808452815b81811015611306576020818501810151868301820152016112ea565b818111156113175782602083870101525b50601f01601f19169290920160200192915050565b6006811061134a57634e487b7160e01b600052602160045260246000fd5b9052565b6001600160a01b0392831681529116602082015260400190565b6001600160a01b03929092168252602082015260400190565b6000610160808352600d81840152506c073776170416e64556e7772617609c1b6101808301526101a08e60208401528d60408401526113c3606084018e611265565b6113d0608084018d611265565b8a60a08401528060c08401526113e98184018a8c611272565b905082810360e08401526113fd81896112e1565b905061140d61010084018861132c565b8281036101208401526114218186886112b8565b915050826101408301529d9c50505050505050505050505050565b6020808252601c908201527b4574684d616e616765724c6f6769633a2077726f6e672076616c756560201b604082015260600190565b6020808252602b908201527f496e697469616c697a61626c653a20636f6e7472616374206973206e6f74206960408201526a6e697469616c697a696e6760a81b606082015260800190565b8481526080602082015260006114d660808301866112e1565b6001600160a01b03949094166040830152506060015292915050565b60008282101561150457611504611524565b500390565b600060001982141561151d5761151d611524565b5060010190565b634e487b7160e01b600052601160045260246000fd5b634e487b7160e01b600052604160045260246000fdfea26469706673582212208185a9d5924e2ee6fdeaf65f4e0ee6fefcd8249b4654933a40d19f20b038f33064736f6c63430008040033",
  "devdoc": {
    "kind": "dev",
    "methods": {
      "emergencyWithdraw(address,address,uint256)": {
        "details": "Only owner can call this"
      },
      "owner()": {
        "details": "Returns the address of the current owner."
      },
      "paused()": {
        "details": "Returns true if the contract is paused, and false otherwise."
      },
      "renounceOwnership()": {
        "details": "Leaves the contract without owner. It will not be possible to call `onlyOwner` functions. Can only be called by the current owner. NOTE: Renouncing ownership will leave the contract without an owner, thereby disabling any functionality that is only available to the owner."
      },
      "swapAndUnwrap(address,address,uint256[],address[],bytes,uint8,bytes,int64,uint256)": {
        "details": "To find teleBTCAmount, _relayerFeePercentage should be reduced from the inputTokenAmount",
        "params": {
          "_amounts": "[inputTokenAmount, teleBTCAmount]",
          "_exchangeConnector": "Address of exchange connector to be used",
          "_lockerLockingScript": "of locker that should execute the burn request",
          "_path": "of exchanging inputToken to teleBTC (these are Polygon token addresses, so _path[0] != _token)",
          "_relayerFeePercentage": "Fee percentage for relayer",
          "_scriptType": "User script type",
          "_thirdParty": "Id of third party",
          "_token": "Address of input token (on the current chain)",
          "_userScript": "User script hash"
        }
      },
      "transferOwnership(address)": {
        "details": "Transfers ownership of the contract to a new account (`newOwner`). Can only be called by the current owner."
      }
    },
    "version": 1
  },
  "userdoc": {
    "kind": "user",
    "methods": {
      "emergencyWithdraw(address,address,uint256)": {
        "notice": "Withdraws tokens in the emergency case"
      },
      "setAcross(address)": {
        "notice": "Setter for Across"
      },
      "setTargetChainConnectorProxy(address)": {
        "notice": "Setter for TargetChainConnectorProxy"
      },
      "setTargetChainTeleBTC(address)": {
        "notice": "Setter for TargetChainTeleBTC"
      },
      "setWrappedNativeToken(address)": {
        "notice": "Setter for WrappedNativeToken"
      },
      "swapAndUnwrap(address,address,uint256[],address[],bytes,uint8,bytes,int64,uint256)": {
        "notice": "Requests exchanging token for BTC"
      }
    },
    "version": 1
  },
  "storageLayout": {
    "storage": [
      {
        "astId": 326,
        "contract": "contracts/routers/EthConnectorLogic.sol:EthConnectorLogic",
        "label": "_initialized",
        "offset": 0,
        "slot": "0",
        "type": "t_uint8"
      },
      {
        "astId": 329,
        "contract": "contracts/routers/EthConnectorLogic.sol:EthConnectorLogic",
        "label": "_initializing",
        "offset": 1,
        "slot": "0",
        "type": "t_bool"
      },
      {
        "astId": 1797,
        "contract": "contracts/routers/EthConnectorLogic.sol:EthConnectorLogic",
        "label": "__gap",
        "offset": 0,
        "slot": "1",
        "type": "t_array(t_uint256)50_storage"
      },
      {
        "astId": 198,
        "contract": "contracts/routers/EthConnectorLogic.sol:EthConnectorLogic",
        "label": "_owner",
        "offset": 0,
        "slot": "51",
        "type": "t_address"
      },
      {
        "astId": 318,
        "contract": "contracts/routers/EthConnectorLogic.sol:EthConnectorLogic",
        "label": "__gap",
        "offset": 0,
        "slot": "52",
        "type": "t_array(t_uint256)49_storage"
      },
      {
        "astId": 631,
        "contract": "contracts/routers/EthConnectorLogic.sol:EthConnectorLogic",
        "label": "_status",
        "offset": 0,
        "slot": "101",
        "type": "t_uint256"
      },
      {
        "astId": 700,
        "contract": "contracts/routers/EthConnectorLogic.sol:EthConnectorLogic",
        "label": "__gap",
        "offset": 0,
        "slot": "102",
        "type": "t_array(t_uint256)49_storage"
      },
      {
        "astId": 510,
        "contract": "contracts/routers/EthConnectorLogic.sol:EthConnectorLogic",
        "label": "_paused",
        "offset": 0,
        "slot": "151",
        "type": "t_bool"
      },
      {
        "astId": 615,
        "contract": "contracts/routers/EthConnectorLogic.sol:EthConnectorLogic",
        "label": "__gap",
        "offset": 0,
        "slot": "152",
        "type": "t_array(t_uint256)49_storage"
      },
      {
        "astId": 22809,
        "contract": "contracts/routers/EthConnectorLogic.sol:EthConnectorLogic",
        "label": "across",
        "offset": 0,
        "slot": "201",
        "type": "t_address"
      },
      {
        "astId": 22811,
        "contract": "contracts/routers/EthConnectorLogic.sol:EthConnectorLogic",
        "label": "targetChainConnectorProxy",
        "offset": 0,
        "slot": "202",
        "type": "t_address"
      },
      {
        "astId": 22813,
        "contract": "contracts/routers/EthConnectorLogic.sol:EthConnectorLogic",
        "label": "targetChainTeleBTC",
        "offset": 0,
        "slot": "203",
        "type": "t_address"
      },
      {
        "astId": 22815,
        "contract": "contracts/routers/EthConnectorLogic.sol:EthConnectorLogic",
        "label": "targetChainId",
        "offset": 0,
        "slot": "204",
        "type": "t_uint256"
      },
      {
        "astId": 22817,
        "contract": "contracts/routers/EthConnectorLogic.sol:EthConnectorLogic",
        "label": "wrappedNativeToken",
        "offset": 0,
        "slot": "205",
        "type": "t_address"
      },
      {
        "astId": 22819,
        "contract": "contracts/routers/EthConnectorLogic.sol:EthConnectorLogic",
        "label": "uniqueCounter",
        "offset": 0,
        "slot": "206",
        "type": "t_uint256"
      },
      {
        "astId": 22821,
        "contract": "contracts/routers/EthConnectorLogic.sol:EthConnectorLogic",
        "label": "currChainId",
        "offset": 0,
        "slot": "207",
        "type": "t_uint256"
      }
    ],
    "types": {
      "t_address": {
        "encoding": "inplace",
        "label": "address",
        "numberOfBytes": "20"
      },
      "t_array(t_uint256)49_storage": {
        "base": "t_uint256",
        "encoding": "inplace",
        "label": "uint256[49]",
        "numberOfBytes": "1568"
      },
      "t_array(t_uint256)50_storage": {
        "base": "t_uint256",
        "encoding": "inplace",
        "label": "uint256[50]",
        "numberOfBytes": "1600"
      },
      "t_bool": {
        "encoding": "inplace",
        "label": "bool",
        "numberOfBytes": "1"
      },
      "t_uint256": {
        "encoding": "inplace",
        "label": "uint256",
        "numberOfBytes": "32"
      },
      "t_uint8": {
        "encoding": "inplace",
        "label": "uint8",
        "numberOfBytes": "1"
      }
    }
  }
}