{
  "address": "0x0e578A276bF2ba8Eec13E6370f2c84dCBC5EFC36",
  "abi": [
    {
      "anonymous": false,
      "inputs": [
        {
          "indexed": true,
          "internalType": "address",
          "name": "userTargetAddress",
          "type": "address"
        },
        {
          "indexed": true,
          "internalType": "address",
          "name": "_lockerTargetAddress",
          "type": "address"
        },
        {
          "indexed": false,
          "internalType": "bytes",
          "name": "lockerLockingScript",
          "type": "bytes"
        },
        {
          "indexed": false,
          "internalType": "uint256",
          "name": "requestIdOfLocker",
          "type": "uint256"
        }
      ],
      "name": "BurnDispute",
      "type": "event"
    },
    {
      "anonymous": false,
      "inputs": [
        {
          "indexed": false,
          "internalType": "uint8",
          "name": "version",
          "type": "uint8"
        }
      ],
      "name": "Initialized",
      "type": "event"
    },
    {
      "anonymous": false,
      "inputs": [
        {
          "indexed": false,
          "internalType": "address",
          "name": "_lockerTargetAddress",
          "type": "address"
        },
        {
          "indexed": false,
          "internalType": "bytes",
          "name": "lockerLockingScript",
          "type": "bytes"
        },
        {
          "indexed": false,
          "internalType": "uint256",
          "name": "_blockNumber",
          "type": "uint256"
        },
        {
          "indexed": false,
          "internalType": "bytes32",
          "name": "txId",
          "type": "bytes32"
        },
        {
          "indexed": false,
          "internalType": "uint256",
          "name": "amount",
          "type": "uint256"
        }
      ],
      "name": "LockerDispute",
      "type": "event"
    },
    {
      "anonymous": false,
      "inputs": [
        {
          "indexed": false,
          "internalType": "address",
          "name": "oldLockers",
          "type": "address"
        },
        {
          "indexed": false,
          "internalType": "address",
          "name": "newLockers",
          "type": "address"
        }
      ],
      "name": "NewLockers",
      "type": "event"
    },
    {
      "anonymous": false,
      "inputs": [
        {
          "indexed": false,
          "internalType": "uint256",
          "name": "oldNetworkFee",
          "type": "uint256"
        },
        {
          "indexed": false,
          "internalType": "uint256",
          "name": "newNetworkFee",
          "type": "uint256"
        }
      ],
      "name": "NewNetworkFee",
      "type": "event"
    },
    {
      "anonymous": false,
      "inputs": [
        {
          "indexed": false,
          "internalType": "address",
          "name": "oldNetworkFeeOracle",
          "type": "address"
        },
        {
          "indexed": false,
          "internalType": "address",
          "name": "newNetworkFeeOracle",
          "type": "address"
        }
      ],
      "name": "NewNetworkFeeOracle",
      "type": "event"
    },
    {
      "anonymous": false,
      "inputs": [
        {
          "indexed": false,
          "internalType": "uint256",
          "name": "oldProtocolPercentageFee",
          "type": "uint256"
        },
        {
          "indexed": false,
          "internalType": "uint256",
          "name": "newProtocolPercentageFee",
          "type": "uint256"
        }
      ],
      "name": "NewProtocolPercentageFee",
      "type": "event"
    },
    {
      "anonymous": false,
      "inputs": [
        {
          "indexed": false,
          "internalType": "address",
          "name": "oldRelay",
          "type": "address"
        },
        {
          "indexed": false,
          "internalType": "address",
          "name": "newRelay",
          "type": "address"
        }
      ],
      "name": "NewRelay",
      "type": "event"
    },
    {
      "anonymous": false,
      "inputs": [
        {
          "indexed": false,
          "internalType": "uint256",
          "name": "oldSlasherPercentageFee",
          "type": "uint256"
        },
        {
          "indexed": false,
          "internalType": "uint256",
          "name": "newSlasherPercentageFee",
          "type": "uint256"
        }
      ],
      "name": "NewSlasherPercentageFee",
      "type": "event"
    },
    {
      "anonymous": false,
      "inputs": [
        {
          "indexed": false,
          "internalType": "address",
          "name": "oldTeleBTC",
          "type": "address"
        },
        {
          "indexed": false,
          "internalType": "address",
          "name": "newTeleBTC",
          "type": "address"
        }
      ],
      "name": "NewTeleBTC",
      "type": "event"
    },
    {
      "anonymous": false,
      "inputs": [
        {
          "indexed": false,
          "internalType": "uint256",
          "name": "thirdPartyId",
          "type": "uint256"
        },
        {
          "indexed": false,
          "internalType": "address",
          "name": "oldThirdPartyAddress",
          "type": "address"
        },
        {
          "indexed": false,
          "internalType": "address",
          "name": "newThirdPartyAddress",
          "type": "address"
        }
      ],
      "name": "NewThirdPartyAddress",
      "type": "event"
    },
    {
      "anonymous": false,
      "inputs": [
        {
          "indexed": false,
          "internalType": "uint256",
          "name": "thirdPartyId",
          "type": "uint256"
        },
        {
          "indexed": false,
          "internalType": "uint256",
          "name": "oldThirdPartyFee",
          "type": "uint256"
        },
        {
          "indexed": false,
          "internalType": "uint256",
          "name": "newThirdPartyFee",
          "type": "uint256"
        }
      ],
      "name": "NewThirdPartyFee",
      "type": "event"
    },
    {
      "anonymous": false,
      "inputs": [
        {
          "indexed": false,
          "internalType": "uint256",
          "name": "oldTransferDeadline",
          "type": "uint256"
        },
        {
          "indexed": false,
          "internalType": "uint256",
          "name": "newTransferDeadline",
          "type": "uint256"
        }
      ],
      "name": "NewTransferDeadline",
      "type": "event"
    },
    {
      "anonymous": false,
      "inputs": [
        {
          "indexed": false,
          "internalType": "address",
          "name": "oldTreasury",
          "type": "address"
        },
        {
          "indexed": false,
          "internalType": "address",
          "name": "newTreasury",
          "type": "address"
        }
      ],
      "name": "NewTreasury",
      "type": "event"
    },
    {
      "anonymous": false,
      "inputs": [
        {
          "indexed": false,
          "internalType": "bytes",
          "name": "userScript",
          "type": "bytes"
        },
        {
          "indexed": false,
          "internalType": "enum ScriptTypes",
          "name": "scriptType",
          "type": "uint8"
        },
        {
          "indexed": false,
          "internalType": "address",
          "name": "lockerTargetAddress",
          "type": "address"
        },
        {
          "indexed": true,
          "internalType": "address",
          "name": "userTargetAddress",
          "type": "address"
        },
        {
          "indexed": false,
          "internalType": "uint256",
          "name": "requestIdOfLocker",
          "type": "uint256"
        },
        {
          "indexed": true,
          "internalType": "uint256",
          "name": "deadline",
          "type": "uint256"
        },
        {
          "indexed": false,
          "internalType": "uint256",
          "name": "thirdPartyId",
          "type": "uint256"
        },
        {
          "indexed": false,
          "internalType": "address",
          "name": "inputToken",
          "type": "address"
        },
        {
          "indexed": false,
          "internalType": "uint256[3]",
          "name": "amounts",
          "type": "uint256[3]"
        },
        {
          "indexed": false,
          "internalType": "uint256[4]",
          "name": "fees",
          "type": "uint256[4]"
        }
      ],
      "name": "NewUnwrap",
      "type": "event"
    },
    {
      "anonymous": false,
      "inputs": [
        {
          "indexed": true,
          "internalType": "address",
          "name": "previousOwner",
          "type": "address"
        },
        {
          "indexed": true,
          "internalType": "address",
          "name": "newOwner",
          "type": "address"
        }
      ],
      "name": "OwnershipTransferred",
      "type": "event"
    },
    {
      "anonymous": false,
      "inputs": [
        {
          "indexed": true,
          "internalType": "address",
          "name": "lockerTargetAddress",
          "type": "address"
        },
        {
          "indexed": false,
          "internalType": "uint256",
          "name": "requestIdOfLocker",
          "type": "uint256"
        },
        {
          "indexed": false,
          "internalType": "bytes32",
          "name": "bitcoinTxId",
          "type": "bytes32"
        },
        {
          "indexed": false,
          "internalType": "uint256",
          "name": "bitcoinTxOutputIndex",
          "type": "uint256"
        }
      ],
      "name": "PaidUnwrap",
      "type": "event"
    },
    {
      "inputs": [],
      "name": "bitcoinFee",
      "outputs": [
        {
          "internalType": "uint256",
          "name": "",
          "type": "uint256"
        }
      ],
      "stateMutability": "view",
      "type": "function"
    },
    {
      "inputs": [],
      "name": "bitcoinFeeOracle",
      "outputs": [
        {
          "internalType": "address",
          "name": "",
          "type": "address"
        }
      ],
      "stateMutability": "view",
      "type": "function"
    },
    {
      "inputs": [
        {
          "internalType": "bytes4",
          "name": "_version",
          "type": "bytes4"
        },
        {
          "internalType": "bytes",
          "name": "_vin",
          "type": "bytes"
        },
        {
          "internalType": "bytes",
          "name": "_vout",
          "type": "bytes"
        },
        {
          "internalType": "bytes4",
          "name": "_locktime",
          "type": "bytes4"
        },
        {
          "internalType": "uint256",
          "name": "_blockNumber",
          "type": "uint256"
        },
        {
          "internalType": "bytes",
          "name": "_intermediateNodes",
          "type": "bytes"
        },
        {
          "internalType": "uint256",
          "name": "_index",
          "type": "uint256"
        },
        {
          "internalType": "bytes",
          "name": "_lockerLockingScript",
          "type": "bytes"
        },
        {
          "internalType": "uint256[]",
          "name": "_burnReqIndexes",
          "type": "uint256[]"
        },
        {
          "internalType": "uint256[]",
          "name": "_voutIndexes",
          "type": "uint256[]"
        }
      ],
      "name": "burnProof",
      "outputs": [
        {
          "internalType": "bool",
          "name": "",
          "type": "bool"
        }
      ],
      "stateMutability": "payable",
      "type": "function"
    },
    {
      "inputs": [
        {
          "internalType": "address",
          "name": "",
          "type": "address"
        }
      ],
      "name": "burnRequestCounter",
      "outputs": [
        {
          "internalType": "uint256",
          "name": "",
          "type": "uint256"
        }
      ],
      "stateMutability": "view",
      "type": "function"
    },
    {
      "inputs": [
        {
          "internalType": "address",
          "name": "",
          "type": "address"
        },
        {
          "internalType": "uint256",
          "name": "",
          "type": "uint256"
        }
      ],
      "name": "burnRequests",
      "outputs": [
        {
          "internalType": "uint256",
          "name": "amount",
          "type": "uint256"
        },
        {
          "internalType": "uint256",
          "name": "burntAmount",
          "type": "uint256"
        },
        {
          "internalType": "address",
          "name": "sender",
          "type": "address"
        },
        {
          "internalType": "bytes",
          "name": "userScript",
          "type": "bytes"
        },
        {
          "internalType": "uint256",
          "name": "deadline",
          "type": "uint256"
        },
        {
          "internalType": "bool",
          "name": "isTransferred",
          "type": "bool"
        },
        {
          "internalType": "enum ScriptTypes",
          "name": "scriptType",
          "type": "uint8"
        },
        {
          "internalType": "uint256",
          "name": "requestIdOfLocker",
          "type": "uint256"
        }
      ],
      "stateMutability": "view",
      "type": "function"
    },
    {
      "inputs": [
        {
          "internalType": "bytes",
          "name": "_lockerLockingScript",
          "type": "bytes"
        },
        {
          "internalType": "uint256[]",
          "name": "_indices",
          "type": "uint256[]"
        }
      ],
      "name": "disputeBurn",
      "outputs": [],
      "stateMutability": "nonpayable",
      "type": "function"
    },
    {
      "inputs": [
        {
          "internalType": "bytes",
          "name": "_lockerLockingScript",
          "type": "bytes"
        },
        {
          "internalType": "bytes4[]",
          "name": "_versions",
          "type": "bytes4[]"
        },
        {
          "internalType": "bytes",
          "name": "_inputVin",
          "type": "bytes"
        },
        {
          "internalType": "bytes",
          "name": "_inputVout",
          "type": "bytes"
        },
        {
          "internalType": "bytes",
          "name": "_outputVin",
          "type": "bytes"
        },
        {
          "internalType": "bytes",
          "name": "_outputVout",
          "type": "bytes"
        },
        {
          "internalType": "bytes4[]",
          "name": "_locktimes",
          "type": "bytes4[]"
        },
        {
          "internalType": "bytes",
          "name": "_inputIntermediateNodes",
          "type": "bytes"
        },
        {
          "internalType": "uint256[]",
          "name": "_indexesAndBlockNumbers",
          "type": "uint256[]"
        }
      ],
      "name": "disputeLocker",
      "outputs": [],
      "stateMutability": "payable",
      "type": "function"
    },
    {
      "inputs": [
        {
          "internalType": "uint256",
          "name": "_startingBlockNumber",
          "type": "uint256"
        },
        {
          "internalType": "address",
          "name": "_relay",
          "type": "address"
        },
        {
          "internalType": "address",
          "name": "_lockers",
          "type": "address"
        },
        {
          "internalType": "address",
          "name": "_treasury",
          "type": "address"
        },
        {
          "internalType": "address",
          "name": "_teleBTC",
          "type": "address"
        },
        {
          "internalType": "uint256",
          "name": "_transferDeadline",
          "type": "uint256"
        },
        {
          "internalType": "uint256",
          "name": "_protocolPercentageFee",
          "type": "uint256"
        },
        {
          "internalType": "uint256",
          "name": "_slasherPercentageReward",
          "type": "uint256"
        },
        {
          "internalType": "uint256",
          "name": "_networkFee",
          "type": "uint256"
        }
      ],
      "name": "initialize",
      "outputs": [],
      "stateMutability": "nonpayable",
      "type": "function"
    },
    {
      "inputs": [
        {
          "internalType": "address",
          "name": "_lockerTargetAddress",
          "type": "address"
        },
        {
          "internalType": "uint256",
          "name": "_index",
          "type": "uint256"
        }
      ],
      "name": "isTransferred",
      "outputs": [
        {
          "internalType": "bool",
          "name": "",
          "type": "bool"
        }
      ],
      "stateMutability": "view",
      "type": "function"
    },
    {
      "inputs": [
        {
          "internalType": "bytes32",
          "name": "",
          "type": "bytes32"
        }
      ],
      "name": "isUsedAsBurnProof",
      "outputs": [
        {
          "internalType": "bool",
          "name": "",
          "type": "bool"
        }
      ],
      "stateMutability": "view",
      "type": "function"
    },
    {
      "inputs": [],
      "name": "lockers",
      "outputs": [
        {
          "internalType": "address",
          "name": "",
          "type": "address"
        }
      ],
      "stateMutability": "view",
      "type": "function"
    },
    {
      "inputs": [],
      "name": "owner",
      "outputs": [
        {
          "internalType": "address",
          "name": "",
          "type": "address"
        }
      ],
      "stateMutability": "view",
      "type": "function"
    },
    {
      "inputs": [],
      "name": "protocolPercentageFee",
      "outputs": [
        {
          "internalType": "uint256",
          "name": "",
          "type": "uint256"
        }
      ],
      "stateMutability": "view",
      "type": "function"
    },
    {
      "inputs": [],
      "name": "relay",
      "outputs": [
        {
          "internalType": "address",
          "name": "",
          "type": "address"
        }
      ],
      "stateMutability": "view",
      "type": "function"
    },
    {
      "inputs": [],
      "name": "renounceOwnership",
      "outputs": [],
      "stateMutability": "nonpayable",
      "type": "function"
    },
    {
      "inputs": [
        {
          "internalType": "address",
          "name": "_lockers",
          "type": "address"
        }
      ],
      "name": "setLockers",
      "outputs": [],
      "stateMutability": "nonpayable",
      "type": "function"
    },
    {
      "inputs": [
        {
          "internalType": "uint256",
          "name": "_networkFee",
          "type": "uint256"
        }
      ],
      "name": "setNetworkFee",
      "outputs": [],
      "stateMutability": "nonpayable",
      "type": "function"
    },
    {
      "inputs": [
        {
          "internalType": "address",
          "name": "_networkFeeOracle",
          "type": "address"
        }
      ],
      "name": "setNetworkFeeOracle",
      "outputs": [],
      "stateMutability": "nonpayable",
      "type": "function"
    },
    {
      "inputs": [
        {
          "internalType": "uint256",
          "name": "_protocolPercentageFee",
          "type": "uint256"
        }
      ],
      "name": "setProtocolPercentageFee",
      "outputs": [],
      "stateMutability": "nonpayable",
      "type": "function"
    },
    {
      "inputs": [
        {
          "internalType": "address",
          "name": "_relay",
          "type": "address"
        }
      ],
      "name": "setRelay",
      "outputs": [],
      "stateMutability": "nonpayable",
      "type": "function"
    },
    {
      "inputs": [
        {
          "internalType": "uint256",
          "name": "_slasherPercentageReward",
          "type": "uint256"
        }
      ],
      "name": "setSlasherPercentageReward",
      "outputs": [],
      "stateMutability": "nonpayable",
      "type": "function"
    },
    {
      "inputs": [
        {
          "internalType": "uint256",
          "name": "_startingBlockNumber",
          "type": "uint256"
        }
      ],
      "name": "setStartingBlockNumber",
      "outputs": [],
      "stateMutability": "nonpayable",
      "type": "function"
    },
    {
      "inputs": [
        {
          "internalType": "address",
          "name": "_teleBTC",
          "type": "address"
        }
      ],
      "name": "setTeleBTC",
      "outputs": [],
      "stateMutability": "nonpayable",
      "type": "function"
    },
    {
      "inputs": [
        {
          "internalType": "uint256",
          "name": "_thirdPartyId",
          "type": "uint256"
        },
        {
          "internalType": "address",
          "name": "_thirdPartyAddress",
          "type": "address"
        }
      ],
      "name": "setThirdPartyAddress",
      "outputs": [],
      "stateMutability": "nonpayable",
      "type": "function"
    },
    {
      "inputs": [
        {
          "internalType": "uint256",
          "name": "_thirdPartyId",
          "type": "uint256"
        },
        {
          "internalType": "uint256",
          "name": "_thirdPartyFee",
          "type": "uint256"
        }
      ],
      "name": "setThirdPartyFee",
      "outputs": [],
      "stateMutability": "nonpayable",
      "type": "function"
    },
    {
      "inputs": [
        {
          "internalType": "uint256",
          "name": "_transferDeadline",
          "type": "uint256"
        }
      ],
      "name": "setTransferDeadline",
      "outputs": [],
      "stateMutability": "nonpayable",
      "type": "function"
    },
    {
      "inputs": [
        {
          "internalType": "address",
          "name": "_treasury",
          "type": "address"
        }
      ],
      "name": "setTreasury",
      "outputs": [],
      "stateMutability": "nonpayable",
      "type": "function"
    },
    {
      "inputs": [],
      "name": "slasherPercentageReward",
      "outputs": [
        {
          "internalType": "uint256",
          "name": "",
          "type": "uint256"
        }
      ],
      "stateMutability": "view",
      "type": "function"
    },
    {
      "inputs": [],
      "name": "startingBlockNumber",
      "outputs": [
        {
          "internalType": "uint256",
          "name": "",
          "type": "uint256"
        }
      ],
      "stateMutability": "view",
      "type": "function"
    },
    {
      "inputs": [
        {
          "internalType": "address",
          "name": "_exchangeConnector",
          "type": "address"
        },
        {
          "internalType": "uint256[]",
          "name": "_amounts",
          "type": "uint256[]"
        },
        {
          "internalType": "bool",
          "name": "_isFixedToken",
          "type": "bool"
        },
        {
          "internalType": "address[]",
          "name": "_path",
          "type": "address[]"
        },
        {
          "internalType": "uint256",
          "name": "_deadline",
          "type": "uint256"
        },
        {
          "internalType": "bytes",
          "name": "_userScript",
          "type": "bytes"
        },
        {
          "internalType": "enum ScriptTypes",
          "name": "_scriptType",
          "type": "uint8"
        },
        {
          "internalType": "bytes",
          "name": "_lockerLockingScript",
          "type": "bytes"
        },
        {
          "internalType": "uint256",
          "name": "thirdParty",
          "type": "uint256"
        }
      ],
      "name": "swapAndUnwrap",
      "outputs": [
        {
          "internalType": "uint256",
          "name": "",
          "type": "uint256"
        }
      ],
      "stateMutability": "nonpayable",
      "type": "function"
    },
    {
      "inputs": [],
      "name": "teleBTC",
      "outputs": [
        {
          "internalType": "address",
          "name": "",
          "type": "address"
        }
      ],
      "stateMutability": "view",
      "type": "function"
    },
    {
      "inputs": [
        {
          "internalType": "uint256",
          "name": "",
          "type": "uint256"
        }
      ],
      "name": "thirdPartyAddress",
      "outputs": [
        {
          "internalType": "address",
          "name": "",
          "type": "address"
        }
      ],
      "stateMutability": "view",
      "type": "function"
    },
    {
      "inputs": [
        {
          "internalType": "uint256",
          "name": "",
          "type": "uint256"
        }
      ],
      "name": "thirdPartyFee",
      "outputs": [
        {
          "internalType": "uint256",
          "name": "",
          "type": "uint256"
        }
      ],
      "stateMutability": "view",
      "type": "function"
    },
    {
      "inputs": [],
      "name": "transferDeadline",
      "outputs": [
        {
          "internalType": "uint256",
          "name": "",
          "type": "uint256"
        }
      ],
      "stateMutability": "view",
      "type": "function"
    },
    {
      "inputs": [
        {
          "internalType": "address",
          "name": "newOwner",
          "type": "address"
        }
      ],
      "name": "transferOwnership",
      "outputs": [],
      "stateMutability": "nonpayable",
      "type": "function"
    },
    {
      "inputs": [],
      "name": "treasury",
      "outputs": [
        {
          "internalType": "address",
          "name": "",
          "type": "address"
        }
      ],
      "stateMutability": "view",
      "type": "function"
    },
    {
      "inputs": [
        {
          "internalType": "uint256",
          "name": "_amount",
          "type": "uint256"
        },
        {
          "internalType": "bytes",
          "name": "_userScript",
          "type": "bytes"
        },
        {
          "internalType": "enum ScriptTypes",
          "name": "_scriptType",
          "type": "uint8"
        },
        {
          "internalType": "bytes",
          "name": "_lockerLockingScript",
          "type": "bytes"
        },
        {
          "internalType": "uint256",
          "name": "thirdParty",
          "type": "uint256"
        }
      ],
      "name": "unwrap",
      "outputs": [
        {
          "internalType": "uint256",
          "name": "",
          "type": "uint256"
        }
      ],
      "stateMutability": "nonpayable",
      "type": "function"
    },
    {
      "stateMutability": "payable",
      "type": "receive"
    }
  ],
  "transactionHash": "0x1a6c5b21ae6ee6f30e703b1e6cf7019e13a614392dedcd0dfa960865b2e9bbb1",
  "args": [],
  "numDeployments": 1,
  "solcInputHash": "d58b1882bfd20cf9913ec7421b51f280",
  "bytecode": "0x608060405234801561001057600080fd5b50615fb680620000216000396000f3fe60806040526004361061026e5760003560e01c80637f0f181711610153578063b59589d1116100cb578063cf54ce471161007f578063f0f4426011610064578063f0f44260146106de578063f2fde38b146106fe578063f47e22401461071e57610275565b8063cf54ce47146106ab578063ea732637146106cb57610275565b8063bed6a602116100b0578063bed6a60214610662578063c780c03f14610678578063c805f68b1461068b57610275565b8063b59589d11461062c578063b74d0d351461064c57610275565b80638da5cb5b11610122578063930a60e811610107578063930a60e8146105a9578063a9b68271146105d6578063b14d35321461060c57610275565b80638da5cb5b1461056b5780638f9eb78b1461058957610275565b80637f0f1817146104eb5780637ffe9a921461050b5780638d3d78cd1461052b5780638d5fc1d41461054b57610275565b80634782bc36116101e657806361d027b3116101b5578063715018a61161019a578063715018a61461049657806373532b2a146104ab5780637ed55748146104cb57610275565b806361d027b31461046057806370872aa51461048057610275565b80634782bc36146103d357806350a05836146103f357806359fd0b0c146104135780635c4f5f3e1461044057610275565b80631e7107c71161023d5780633fea4367116102225780633fea43671461037d578063419cba7f1461039d57806344dd6aa5146103b357610275565b80631e7107c71461033d57806333453d151461035d57610275565b80631812adb61461027a5780631876dec4146102a35780631d927898146102db5780631e236168146102fd57610275565b3661027557005b600080fd5b34801561028657600080fd5b5061029060075481565b6040519081526020015b60405180910390f35b3480156102af57600080fd5b506001546102c3906001600160a01b031681565b6040516001600160a01b03909116815260200161029a565b3480156102e757600080fd5b506102fb6102f6366004615659565b610752565b005b34801561030957600080fd5b5061032d610318366004615313565b600c6020526000908152604090205460ff1681565b604051901515815260200161029a565b34801561034957600080fd5b506102fb610358366004615313565b6108f5565b34801561036957600080fd5b506102fb6103783660046150d1565b610979565b34801561038957600080fd5b506102906103983660046156e3565b6109ea565b3480156103a957600080fd5b5061029060085481565b3480156103bf57600080fd5b506102906103ce366004615109565b610b1a565b3480156103df57600080fd5b506102fb6103ee366004615313565b610bc0565b3480156103ff57600080fd5b506004546102c3906001600160a01b031681565b34801561041f57600080fd5b5061029061042e366004615313565b60a46020526000908152604090205481565b34801561044c57600080fd5b506102fb61045b366004615313565b610c5b565b34801561046c57600080fd5b506003546102c3906001600160a01b031681565b34801561048c57600080fd5b5061029060055481565b3480156104a257600080fd5b506102fb610e15565b3480156104b757600080fd5b506102fb6104c6366004615469565b610e1f565b3480156104d757600080fd5b506102fb6104e6366004615313565b61148b565b3480156104f757600080fd5b506102fb6105063660046150d1565b611526565b34801561051757600080fd5b5061032d610526366004615225565b6115ef565b34801561053757600080fd5b506002546102c3906001600160a01b031681565b34801561055757600080fd5b506102fb61056636600461562a565b611647565b34801561057757600080fd5b506040546001600160a01b03166102c3565b34801561059557600080fd5b506102fb6105a436600461576d565b6116eb565b3480156105b557600080fd5b506102906105c43660046150d1565b600b6020526000908152604090205481565b3480156105e257600080fd5b506102c36105f1366004615313565b60a5602052600090815260409020546001600160a01b031681565b34801561061857600080fd5b506102fb6106273660046150d1565b611754565b34801561063857600080fd5b506000546102c3906001600160a01b031681565b34801561065857600080fd5b5061029060095481565b34801561066e57600080fd5b5061029060065481565b6102fb6106863660046154cf565b61181d565b34801561069757600080fd5b506102fb6106a63660046150d1565b61199b565b3480156106b757600080fd5b506102fb6106c6366004615313565b611a64565b61032d6106d9366004615343565b611b02565b3480156106ea57600080fd5b506102fb6106f93660046150d1565b611dce565b34801561070a57600080fd5b506102fb6107193660046150d1565b611e97565b34801561072a57600080fd5b5061073e610739366004615225565b611f27565b60405161029a989796959493929190615bfc565b600d54610100900460ff16158080156107725750600d54600160ff909116105b80610793575061078130612024565b1580156107935750600d5460ff166001145b61080a5760405162461bcd60e51b815260206004820152602e60248201527f496e697469616c697a61626c653a20636f6e747261637420697320616c72656160448201527f647920696e697469616c697a656400000000000000000000000000000000000060648201526084015b60405180910390fd5b600d805460ff19166001179055801561082d57600d805461ff0019166101001790555b610835612037565b61083d6120aa565b6108468a6108f5565b61084f8961199b565b61085888611754565b61086187611dce565b61086a86611526565b61087385610c5b565b61087c8461148b565b61088583610bc0565b61089a6103786040546001600160a01b031690565b6108a382611a64565b80156108e957600d805461ff0019169055604051600181527f7f26b83ff96e1f2b6a682f133852f6798a09c465da95921460cefb38474024989060200160405180910390a15b50505050505050505050565b6108fd61211d565b60055481116109745760405162461bcd60e51b815260206004820152602860248201527f4275726e526f757465724c6f6769633a206c6f77207374617274696e67426c6f60448201527f636b4e756d6265720000000000000000000000000000000000000000000000006064820152608401610801565b600555565b61098161211d565b600454604080516001600160a01b03928316815291831660208301527f68bf625687194a1bbeeccbaa327c37aa1f9940a3c6c9e8fe84f06f1dc14fd176910160405180910390a1600480546001600160a01b0319166001600160a01b0392909216919091179055565b60006109f4612177565b6002546001600160a01b03166323b872dd336040516001600160e01b031960e084901b1681526001600160a01b039091166004820152306024820152604481018a9052606401602060405180830381600087803b158015610a5457600080fd5b505af1158015610a68573d6000803e3d6000fd5b505050506040513d601f19601f82011682018060405250810190610a8c9190615250565b610ae45760405162461bcd60e51b8152602060048201526024808201527f4275726e526f757465724c6f6769633a207472616e7366657246726f6d2066616044820152631a5b195960e21b6064820152608401610801565b600254600090610b03906001600160a01b031689808a8a8a8a8a6121d1565b915050610b106001607255565b9695505050505050565b6000610b24612177565b6000610b358e8e8e8e8e8e8e612688565b9050610ba38d8d6000818110610b5b57634e487b7160e01b600052603260045260246000fd5b905060200201358b8b6000818110610b8357634e487b7160e01b600052603260045260246000fd5b9050602002016020810190610b9891906150d1565b838a8a8a8a8a612ad5565b915050610bb06001607255565b9c9b505050505050505050505050565b610bc861211d565b806127101015610c1a5760405162461bcd60e51b815260206004820152601f60248201527f4275726e526f757465724c6f6769633a20696e76616c696420726577617264006044820152606401610801565b60085460408051918252602082018390527faa50b3683e42a13535a5b9c2c32780cccf956fb546b523a3542ac4ad8b544f67910160405180910390a1600855565b600080546040517fa779a3920000000000000000000000000000000000000000000000000000000081526001600160a01b0390911660048201527336Ad0DF8c6633bFa42d7a4A87117B70272ae02ec9063a779a3929060240160206040518083038186803b158015610ccc57600080fd5b505af4158015610ce0573d6000803e3d6000fd5b505050506040513d601f19601f82011682018060405250810190610d04919061532b565b9050610d186040546001600160a01b031690565b6001600160a01b0316336001600160a01b03161480610d38575080600654105b610d845760405162461bcd60e51b815260206004820152601a60248201527f4275726e526f757465724c6f6769633a206e6f207065726d69740000000000006044820152606401610801565b808211610dd35760405162461bcd60e51b815260206004820152601d60248201527f4275726e526f757465724c6f6769633a206c6f7720646561646c696e650000006044820152606401610801565b60065460408051918252602082018490527f92c10a242ca42973030420e2ee32b3ba7818cc643f896958f620c606cf300416910160405180910390a150600655565b610e1d61211d565b565b610e27612177565b610e2f61211d565b6001546040517faff2faa30000000000000000000000000000000000000000000000000000000081526001600160a01b039091169063aff2faa390610e7a9086908690600401615a76565b60206040518083038186803b158015610e9257600080fd5b505afa158015610ea6573d6000803e3d6000fd5b505050506040513d601f19601f82011682018060405250810190610eca9190615250565b610f165760405162461bcd60e51b815260206004820152601b60248201527f4275726e526f757465724c6f6769633a206e6f74206c6f636b657200000000006044820152606401610801565b60015460405163626885b560e11b81526000916001600160a01b03169063c4d10b6a90610f499087908790600401615a76565b60206040518083038186803b158015610f6157600080fd5b505afa158015610f75573d6000803e3d6000fd5b505050506040513d601f19601f82011682018060405250810190610f9991906150ed565b905060005b825181101561147a577336Ad0DF8c6633bFa42d7a4A87117B70272ae02ec6315755789600a84868581518110610fe457634e487b7160e01b600052603260045260246000fd5b60209081029190910101516000546040516310889dc360e01b81526001600160a01b0390911660048201527336Ad0DF8c6633bFa42d7a4A87117B70272ae02ec906310889dc39060240160206040518083038186803b15801561104657600080fd5b505af415801561105a573d6000803e3d6000fd5b505050506040513d601f19601f8201168201806040525081019061107e919061532b565b6006546005546040516001600160e01b031960e089901b16815260048101969096526001600160a01b03909416602486015260448501929092526064840152608483015260a482015260c40160006040518083038186803b1580156110e257600080fd5b505af41580156110f6573d6000803e3d6000fd5b50506001546008546001600160a01b038681166000908152600a602052604090208851919093169450631697565b93508692612710929189908890811061114d57634e487b7160e01b600052603260045260246000fd5b60200260200101518154811061117357634e487b7160e01b600052603260045260246000fd5b90600052602060002090600702016000015461118f9190615e2f565b6111999190615e0f565b336001600160a01b0387166000908152600a6020526040902088518990889081106111d457634e487b7160e01b600052603260045260246000fd5b6020026020010151815481106111fa57634e487b7160e01b600052603260045260246000fd5b906000526020600020906007020160000154600a6000896001600160a01b03166001600160a01b0316815260200190815260200160002089888151811061125157634e487b7160e01b600052603260045260246000fd5b60200260200101518154811061127757634e487b7160e01b600052603260045260246000fd5b600091825260209091206007909102016002015460405160e087901b6001600160e01b03191681526001600160a01b03958616600482015260248101949094529184166044840152606483015291909116608482015260a401602060405180830381600087803b1580156112ea57600080fd5b505af11580156112fe573d6000803e3d6000fd5b505050506040513d601f19601f820116820180604052508101906113229190615250565b506001600160a01b0382166000818152600a60205260409020845185908490811061135d57634e487b7160e01b600052603260045260246000fd5b60200260200101518154811061138357634e487b7160e01b600052603260045260246000fd5b906000526020600020906007020160020160009054906101000a90046001600160a01b03166001600160a01b03167f58c23b4ae0617be275628875bcfd65759a441263099a256eeb27899fb5dd846d8787600a6000886001600160a01b03166001600160a01b0316815260200190815260200160002088878151811061141957634e487b7160e01b600052603260045260246000fd5b60200260200101518154811061143f57634e487b7160e01b600052603260045260246000fd5b90600052602060002090600702016006015460405161146093929190615a8a565b60405180910390a38061147281615f16565b915050610f9e565b50506114866001607255565b505050565b61149361211d565b8061271010156114e55760405162461bcd60e51b815260206004820152601c60248201527f4275726e526f757465724c6f6769633a20696e76616c696420666565000000006044820152606401610801565b60075460408051918252602082018390527f7d205f60891f60851c61cd244ba387d72b6589e7c0ac41b9d909ab0ce2c2a53b910160405180910390a1600755565b61152e61211d565b806001600160a01b0381166115855760405162461bcd60e51b815260206004820152601d60248201527f4275726e526f757465724c6f6769633a207a65726f20616464726573730000006044820152606401610801565b600254604080516001600160a01b03928316815291841660208301527f36a4c08a38b736dcecb6c328dba61238529620e83ccb23db2cc43cd34ec26096910160405180910390a150600280546001600160a01b0319166001600160a01b0392909216919091179055565b6001600160a01b0382166000908152600a6020526040812080548390811061162757634e487b7160e01b600052603260045260246000fd5b600091825260209091206005600790920201015460ff1690505b92915050565b61164f61211d565b600082815260a56020526040908190205490517f1e73962bcff5b98a9ac70c9b0f71fbb31dc0f5a09348c6d3ceab164169a9e729916116b59185916001600160a01b03169085909283526001600160a01b03918216602084015216604082015260600190565b60405180910390a1600091825260a5602052604090912080546001600160a01b0319166001600160a01b03909216919091179055565b6116f361211d565b600082815260a46020908152604091829020548251858152918201529081018290527f188adabf806a6b6d814acc1dbd9f09e5a251c8c065d6285749a5824e4579b6459060600160405180910390a1600091825260a4602052604090912055565b61175c61211d565b806001600160a01b0381166117b35760405162461bcd60e51b815260206004820152601d60248201527f4275726e526f757465724c6f6769633a207a65726f20616464726573730000006044820152606401610801565b600154604080516001600160a01b03928316815291841660208301527ffa021c2ec0f46429a53e7f88b88065e40001f50c9d38b2e8b713beaf9828d4c3910160405180910390a150600180546001600160a01b0319166001600160a01b0392909216919091179055565b611825612177565b61182d61211d565b600061188b8960008151811061185357634e487b7160e01b600052603260045260246000fd5b602002602001015189898760008151811061187e57634e487b7160e01b600052603260045260246000fd5b6020026020010151612ae8565b90507336Ad0DF8c6633bFa42d7a4A87117B70272ae02ec63441d3a21600160009054906101000a90046001600160a01b03168c8c60405180606001604052808e81526020018c81526020018b815250600c60065460008054906101000a90046001600160a01b03166005548a8e8e8e6040518d63ffffffff1660e01b81526004016119219c9b9a9998979695949392919061596d565b60006040518083038186803b15801561193957600080fd5b505af415801561194d573d6000803e3d6000fd5b50505050611985878b838560028151811061197857634e487b7160e01b600052603260045260246000fd5b6020026020010151612c4b565b506119906001607255565b505050505050505050565b6119a361211d565b806001600160a01b0381166119fa5760405162461bcd60e51b815260206004820152601d60248201527f4275726e526f757465724c6f6769633a207a65726f20616464726573730000006044820152606401610801565b600054604080516001600160a01b03928316815291841660208301527f4c28a3f61a715259c4dc930c23e7423b8fa52e13232c061a6e488729c66184f4910160405180910390a150600080546001600160a01b0319166001600160a01b0392909216919091179055565b60045433906001600160a01b03168114611ac05760405162461bcd60e51b815260206004820152601b60248201527f4275726e526f757465724c6f6769633a206e6f74206f7261636c6500000000006044820152606401610801565b60095460408051918252602082018490527f890eb41e398fd9cf425695b34269b781ad56c257422859094a28db47fb78f1b3910160405180910390a150600955565b6000611b0c612177565b7336Ad0DF8c6633bFa42d7a4A87117B70272ae02ec6344922b64886005548b600160009054906101000a90046001600160a01b031689895189516040518863ffffffff1660e01b8152600401611b689796959493929190615cdb565b60006040518083038186803b158015611b8057600080fd5b505af4158015611b94573d6000803e3d6000fd5b505050506000611ba68c8c8c8c612ae8565b6000546040517f7ebc23270000000000000000000000000000000000000000000000000000000081529192507336Ad0DF8c6633bFa42d7a4A87117B70272ae02ec91637ebc232791611c0e916001600160a01b039091169085908d908d908d9060040161592d565b60206040518083038186803b158015611c2657600080fd5b505af4158015611c3a573d6000803e3d6000fd5b505050506040513d601f19601f82011682018060405250810190611c5e9190615250565b611caa5760405162461bcd60e51b815260206004820152601e60248201527f4275726e526f757465724c6f6769633a206e6f742066696e616c697a656400006044820152606401610801565b60015460405163626885b560e11b81526000916001600160a01b03169063c4d10b6a90611cdb908990600401615aae565b60206040518083038186803b158015611cf357600080fd5b505afa158015611d07573d6000803e3d6000fd5b505050506040513d601f19601f82011682018060405250810190611d2b91906150ed565b90506000611d3d838b848f8a8a612e18565b90507336Ad0DF8c6633bFa42d7a4A87117B70272ae02ec63191e28dc600c838f8b886040518663ffffffff1660e01b8152600401611d7f959493929190615bb8565b60006040518083038186803b158015611d9757600080fd5b505af4158015611dab573d6000803e3d6000fd5b5050505060019350505050611dc06001607255565b9a9950505050505050505050565b611dd661211d565b806001600160a01b038116611e2d5760405162461bcd60e51b815260206004820152601d60248201527f4275726e526f757465724c6f6769633a207a65726f20616464726573730000006044820152606401610801565b600354604080516001600160a01b03928316815291841660208301527f567657fa3f286518b318f4a29870674f433f622fdfc819691acb13105b228225910160405180910390a150600380546001600160a01b0319166001600160a01b0392909216919091179055565b611e9f61211d565b6001600160a01b038116611f1b5760405162461bcd60e51b815260206004820152602660248201527f4f776e61626c653a206e6577206f776e657220697320746865207a65726f206160448201527f64647265737300000000000000000000000000000000000000000000000000006064820152608401610801565b611f2481613324565b50565b600a6020528160005260406000208181548110611f4357600080fd5b600091825260209091206007909102018054600182015460028301546003840180549396509194506001600160a01b03169291611f7f90615ee1565b80601f0160208091040260200160405190810160405280929190818152602001828054611fab90615ee1565b8015611ff85780601f10611fcd57610100808354040283529160200191611ff8565b820191906000526020600020905b815481529060010190602001808311611fdb57829003601f168201915b505050600484015460058501546006909501549394909360ff8083169450610100909204909116915088565b6001600160a01b0381163b15155b919050565b600d54610100900460ff166120a25760405162461bcd60e51b815260206004820152602b60248201527f496e697469616c697a61626c653a20636f6e7472616374206973206e6f74206960448201526a6e697469616c697a696e6760a81b6064820152608401610801565b610e1d613374565b600d54610100900460ff166121155760405162461bcd60e51b815260206004820152602b60248201527f496e697469616c697a61626c653a20636f6e7472616374206973206e6f74206960448201526a6e697469616c697a696e6760a81b6064820152608401610801565b610e1d6133e8565b6040546001600160a01b03163314610e1d5760405162461bcd60e51b815260206004820181905260248201527f4f776e61626c653a2063616c6c6572206973206e6f7420746865206f776e65726044820152606401610801565b600260725414156121ca5760405162461bcd60e51b815260206004820152601f60248201527f5265656e7472616e637947756172643a207265656e7472616e742063616c6c006044820152606401610801565b6002607255565b6001546040517ff87661500000000000000000000000000000000000000000000000000000000081526000917336Ad0DF8c6633bFa42d7a4A87117B70272ae02ec9163f876615091612239918a918a916001600160a01b03909116908a908a90600401615ac1565b60006040518083038186803b15801561225157600080fd5b505af4158015612265573d6000803e3d6000fd5b5050505060008060006122788a86613453565b6002546001546040517f095ea7b30000000000000000000000000000000000000000000000000000000081526001600160a01b03918216600482015260248101869052949750929550909350169063095ea7b390604401602060405180830381600087803b1580156122e957600080fd5b505af11580156122fd573d6000803e3d6000fd5b505050506040513d601f19601f820116820180604052508101906123219190615250565b506001546040517f38463cff0000000000000000000000000000000000000000000000000000000081526001600160a01b03909116906338463cff9061236f908a908a908890600401615a8a565b602060405180830381600087803b15801561238957600080fd5b505af115801561239d573d6000803e3d6000fd5b505050506040513d601f19601f820116820180604052508101906123c1919061532b565b60015460405163626885b560e11b81529195506000916001600160a01b039091169063c4d10b6a906123f9908b908b90600401615a76565b60206040518083038186803b15801561241157600080fd5b505afa158015612425573d6000803e3d6000fd5b505050506040513d601f19601f8201168201806040525081019061244991906150ed565b6000546040516310889dc360e01b81526001600160a01b0390911660048201529091506124ed908c9087908d908d907336Ad0DF8c6633bFa42d7a4A87117B70272ae02ec906310889dc39060240160206040518083038186803b1580156124af57600080fd5b505af41580156124c3573d6000803e3d6000fd5b505050506040513d601f19601f820116820180604052508101906124e7919061532b565b8661382a565b604080516060810182528d815260208082018e905281830188905282516080810190935260095483528f9260009181016125278a8a615e77565b8152602080820189905260409182018890526001600160a01b0387166000908152600a9091522080549192509061256090600190615e77565b8154811061257e57634e487b7160e01b600052603260045260246000fd5b9060005260206000209060070201600401546125973390565b6001600160a01b03167f6b5c22e69db87534a562352580358411dc7b2d98d24684765342f2ebf2dd8c318f8f88600a60008b6001600160a01b03166001600160a01b031681526020019081526020016000206001600a60008d6001600160a01b03166001600160a01b031681526020019081526020016000208054905061261e9190615e77565b8154811061263c57634e487b7160e01b600052603260045260246000fd5b9060005260206000209060070201600601548f8a8a8a604051612666989796959493929190615b0f565b60405180910390a35050505050505098975050505050505050565b6001607255565b6002546000906001600160a01b031684846126a4600182615e77565b8181106126c157634e487b7160e01b600052603260045260246000fd5b90506020020160208101906126d691906150d1565b6001600160a01b03161461272c5760405162461bcd60e51b815260206004820152601d60248201527f4275726e526f757465724c6f6769633a20696e76616c696420706174680000006044820152606401610801565b6002861461277c5760405162461bcd60e51b815260206004820152601e60248201527f4275726e526f757465724c6f6769633a2077726f6e6720616d6f756e747300006044820152606401610801565b8383600081811061279d57634e487b7160e01b600052603260045260246000fd5b90506020020160208101906127b291906150d1565b6001600160a01b03166323b872dd33308a8a60008181106127e357634e487b7160e01b600052603260045260246000fd5b6040516001600160e01b031960e088901b1681526001600160a01b03958616600482015294909316602485015250602090910201356044820152606401602060405180830381600087803b15801561283a57600080fd5b505af115801561284e573d6000803e3d6000fd5b505050506040513d601f19601f820116820180604052508101906128729190615250565b508383600081811061289457634e487b7160e01b600052603260045260246000fd5b90506020020160208101906128a991906150d1565b6001600160a01b031663095ea7b389898960008181106128d957634e487b7160e01b600052603260045260246000fd5b6040516001600160e01b031960e087901b1681526001600160a01b0390941660048501526020029190910135602483015250604401602060405180830381600087803b15801561292857600080fd5b505af115801561293c573d6000803e3d6000fd5b505050506040513d601f19601f820116820180604052508101906129609190615250565b50600080896001600160a01b031663b0bbcd888a8a600081811061299457634e487b7160e01b600052603260045260246000fd5b905060200201358b8b60018181106129bc57634e487b7160e01b600052603260045260246000fd5b905060200201358989308a8e6040518863ffffffff1660e01b81526004016129ea9796959493929190615c5c565b600060405180830381600087803b158015612a0457600080fd5b505af1158015612a18573d6000803e3d6000fd5b505050506040513d6000823e601f3d908101601f19168201604052612a40919081019061526c565b9150915081612a915760405162461bcd60e51b815260206004820181905260248201527f4275726e526f757465724c6f6769633a2065786368616e6765206661696c65646044820152606401610801565b8060018251612aa09190615e77565b81518110612abe57634e487b7160e01b600052603260045260246000fd5b602002602001015192505050979650505050505050565b600080611dc0898b8a8a8a8a8a8a6121d1565b600080612afd612af886836139f0565b613a14565b905062ffffff198082161415612b555760405162461bcd60e51b815260206004820152601a60248201527f426974636f696e48656c7065723a2076696e206973206e756c6c0000000000006044820152606401610801565b6000600287878787604051602001612b7094939291906158bd565b60408051601f1981840301815290829052612b8a91615911565b602060405180830381855afa158015612ba7573d6000803e3d6000fd5b5050506040513d601f19601f82011682018060405250810190612bca919061532b565b90506000600282604051602001612be391815260200190565b60408051601f1981840301815290829052612bfd91615911565b602060405180830381855afa158015612c1a573d6000803e3d6000fd5b5050506040513d601f19601f82011682018060405250810190612c3d919061532b565b93505050505b949350505050565b6000612c5685613b5d565b60015460405163626885b560e11b815267ffffffffffffffff9290921692506000916001600160a01b039091169063c4d10b6a90612c98908890600401615aae565b60206040518083038186803b158015612cb057600080fd5b505afa158015612cc4573d6000803e3d6000fd5b505050506040513d601f19601f82011682018060405250810190612ce891906150ed565b6001546008549192506001600160a01b03169063b734de2690839061271090612d119087615e2f565b612d1b9190615e0f565b3360405160e085901b6001600160e01b03191681526001600160a01b0393841660048201526024810192909252909116604482015260648101859052608401602060405180830381600087803b158015612d7457600080fd5b505af1158015612d88573d6000803e3d6000fd5b505050506040513d601f19601f82011682018060405250810190612dac9190615250565b507f7ff138134e34ccab071315c38e38eec079f54726b890304ab46e2c5ab6f722bb8186858761271060085488612de39190615e2f565b612ded9190615e0f565b612df79088615d84565b604051612e08959493929190615a37565b60405180910390a1505050505050565b60008080805b85518110156133175780612e5b57848181518110612e4c57634e487b7160e01b600052603260045260246000fd5b60200260200101519150612f22565b81858281518110612e7c57634e487b7160e01b600052603260045260246000fd5b602002602001015111612ef75760405162461bcd60e51b815260206004820152602760248201527f4275726e526f757465724c6f6769633a20756e2d736f7274656420766f75742060448201527f696e6465786573000000000000000000000000000000000000000000000000006064820152608401610801565b848181518110612f1757634e487b7160e01b600052603260045260246000fd5b602002602001015191505b6000868281518110612f4457634e487b7160e01b600052603260045260246000fd5b60200260200101519050600a60008a6001600160a01b03166001600160a01b031681526020019081526020016000208181548110612f9257634e487b7160e01b600052603260045260246000fd5b600091825260209091206005600790920201015460ff1615801561300157506001600160a01b0389166000908152600a6020526040902080548b919083908110612fec57634e487b7160e01b600052603260045260246000fd5b90600052602060002090600702016004015410155b156133045761316e8887848151811061302a57634e487b7160e01b600052603260045260246000fd5b6020026020010151600a60008d6001600160a01b03166001600160a01b03168152602001908152602001600020848154811061307657634e487b7160e01b600052603260045260246000fd5b9060005260206000209060070201600301805461309290615ee1565b80601f01602080910402602001604051908101604052809291908181526020018280546130be90615ee1565b801561310b5780601f106130e05761010080835404028352916020019161310b565b820191906000526020600020905b8154815290600101906020018083116130ee57829003601f168201915b5050506001600160a01b038f166000908152600a602052604090208054909250879150811061314a57634e487b7160e01b600052603260045260246000fd5b906000526020600020906007020160050160019054906101000a900460ff16613c2b565b67ffffffffffffffff16935083600a60008b6001600160a01b03166001600160a01b0316815260200190815260200160002082815481106131bf57634e487b7160e01b600052603260045260246000fd5b9060005260206000209060070201600101541415613304576001600160a01b0389166000908152600a602052604090208054600191908390811061321357634e487b7160e01b600052603260045260246000fd5b60009182526020909120600790910201600501805460ff1916911515919091179055613240856001615d84565b6001600160a01b038a166000818152600a60205260409020805492975090917f7b8cb33b1d4dc1e5d05c58e9945c383eb161ac22029c5b963989d08c3d0ef4da9190849081106132a057634e487b7160e01b600052603260045260246000fd5b9060005260206000209060070201600601548d8986815181106132d357634e487b7160e01b600052603260045260246000fd5b60200260200101516040516132fb939291909283526020830191909152604082015260600190565b60405180910390a25b508061330f81615f16565b915050612e1e565b5050509695505050505050565b604080546001600160a01b038381166001600160a01b031983168117845592519116919082907f8be0079c531659141344cd1fd0a4f28419497f9722a3daafe3b4186f6b6457e090600090a35050565b600d54610100900460ff166133df5760405162461bcd60e51b815260206004820152602b60248201527f496e697469616c697a61626c653a20636f6e7472616374206973206e6f74206960448201526a6e697469616c697a696e6760a81b6064820152608401610801565b610e1d33613324565b600d54610100900460ff166126815760405162461bcd60e51b815260206004820152602b60248201527f496e697469616c697a61626c653a20636f6e7472616374206973206e6f74206960448201526a6e697469616c697a696e6760a81b6064820152608401610801565b6000806000612710600754866134699190615e2f565b6134739190615e0f565b600085815260a46020526040902054909250612710906134939087615e2f565b61349d9190615e0f565b905060095460026134ae9190615e2f565b6134b89083615d84565b85116135065760405162461bcd60e51b815260206004820152601b60248201527f4275726e526f757465724c6f6769633a206c6f7720616d6f756e7400000000006044820152606401610801565b600954816135148488615e77565b61351e9190615e77565b6135289190615e77565b925081156136105760025460035460405163a9059cbb60e01b81526001600160a01b0391821660048201526024810185905291169063a9059cbb90604401602060405180830381600087803b15801561358057600080fd5b505af1158015613594573d6000803e3d6000fd5b505050506040513d601f19601f820116820180604052508101906135b89190615250565b6136105760405162461bcd60e51b8152602060048201526024808201527f4275726e526f757465724c6f6769633a20666565207472616e736665722066616044820152631a5b195960e21b6064820152608401610801565b801561371d57600254600085815260a560205260409081902054905163a9059cbb60e01b81526001600160a01b0391821660048201526024810184905291169063a9059cbb90604401602060405180830381600087803b15801561367357600080fd5b505af1158015613687573d6000803e3d6000fd5b505050506040513d601f19601f820116820180604052508101906136ab9190615250565b61371d5760405162461bcd60e51b815260206004820152603060248201527f4275726e526f757465724c6f6769633a2074686972642070617274792066656560448201527f207472616e73666572206661696c6564000000000000000000000000000000006064820152608401610801565b600954156138235760025460015460095460405163a9059cbb60e01b81526001600160a01b039283166004820152602481019190915291169063a9059cbb90604401602060405180830381600087803b15801561377957600080fd5b505af115801561378d573d6000803e3d6000fd5b505050506040513d601f19601f820116820180604052508101906137b19190615250565b6138235760405162461bcd60e51b815260206004820152602c60248201527f4275726e526f757465724c6f6769633a206e6574776f726b206665652074726160448201527f6e73666572206661696c656400000000000000000000000000000000000000006064820152608401610801565b9250925092565b604080516101008101825260006080820181905260a0820181905260c0820181815260e0830191909152888252602082018890523392820192909252606081018690529084600581111561388e57634e487b7160e01b600052602160045260246000fd5b908160058111156138af57634e487b7160e01b600052602160045260246000fd5b9052506006546138bf9084615d84565b6080820152600060a082018190526001600160a01b038316808252600b6020818152604084205460e08601819052929093529091526138ff906001615d84565b6001600160a01b038381166000908152600b6020908152604080832094909455600a81528382208054600180820183559184529282902086516007909402019283558582015190830155928401516002820180546001600160a01b031916919093161790915560608301518051849361397f926003850192910190614e43565b506080820151600482015560a08201516005808301805460ff19169215159290921780835560c0850151929161ff0019909116906101009084908111156139d657634e487b7160e01b600052602160045260246000fd5b021790555060e08201518160060155505050505050505050565b815160009060208401613a0b64ffffffffff85168284613ece565b95945050505050565b60008181613a2a815b62ffffff19841690613f15565b50601884901c6001600160601b0316613a4a5762ffffff195b9250613b56565b6000613a57856000614017565b9050601885901c6001600160601b031667ffffffffffffffff8216613a855762ffffff195b94505050613b56565b6000613a9083614160565b60ff16905060005b8367ffffffffffffffff16811015613b0d57828210613ac25762ffffff195b965050505050613b56565b6000613ae2613ad18486615e77565b60055b62ffffff198c1691906141bc565b9050613aed816141f0565b613af79084615d84565b9250508080613b0590615f16565b915050613a98565b50818114613b255762ffffff195b9550505050613b56565b613b5060065b60d81b7affffffffffffffffffffffffffffffffffffffffffffffff00000089161790565b95505050505b5050919050565b600080613b72613b6d84836139f0565b614245565b905062ffffff198082161415613bca5760405162461bcd60e51b815260206004820152601b60248201527f426974636f696e48656c7065723a20766f7574206973206e756c6c00000000006044820152606401610801565b600080613bd8836000614017565b67ffffffffffffffff16905060005b81811015613c2257613bf98482614338565b9250613c048361444e565b613c0e9086615d9c565b945080613c1a81615f16565b915050613be7565b50505050919050565b600080613c3b613b6d87836139f0565b905062ffffff198082161415613c935760405162461bcd60e51b815260206004820152601b60248201527f426974636f696e48656c7065723a20766f7574206973206e756c6c00000000006044820152606401610801565b6000613c9f8287614338565b90506000613cac82614473565b90506005856005811115613cd057634e487b7160e01b600052602160045260246000fd5b1415613d3557613ce962ffffff198216600260206144c5565b604051602001613cfb91815260200190565b60405160208183030381529060405280519060200120868051906020012014613d25576000613d2e565b613d2e8261444e565b9350613ec3565b6000856005811115613d5757634e487b7160e01b600052602160045260246000fd5b1415613d7057613ce962ffffff198216600160206144c5565b6001856005811115613d9257634e487b7160e01b600052602160045260246000fd5b1415613dd157613da962ffffff198216600361463a565b604051602001613cfb919060609190911b6bffffffffffffffffffffffff1916815260140190565b6002856005811115613df357634e487b7160e01b600052602160045260246000fd5b1415613e0a57613da962ffffff198216600261463a565b6003856005811115613e2c57634e487b7160e01b600052602160045260246000fd5b1415613e4357613da962ffffff198216600261463a565b6004856005811115613e6557634e487b7160e01b600052602160045260246000fd5b1415613ec357613e7e62ffffff198216600260206144c5565b604051602001613e9091815260200190565b60405160208183030381529060405280519060200120868051906020012014613eba576000612c3d565b612c3d8261444e565b505050949350505050565b600080613edb8385615d84565b9050604051811115613eeb575060005b80613efd5762ffffff19915050613f0e565b5050606083811b8317901b811760181b5b9392505050565b6000613f218383614648565b614010576000613f40613f348560d81c90565b64ffffffffff1661466b565b9150506000613f558464ffffffffff1661466b565b6040517f5479706520617373657274696f6e206661696c65642e20476f7420307800000060208201527fffffffffffffffffffff0000000000000000000000000000000000000000000060b086811b8216603d8401527f2e20457870656374656420307800000000000000000000000000000000000000604784015283901b16605482015290925060009150605e015b60405160208183030381529060405290508060405162461bcd60e51b81526004016108019190615aae565b5090919050565b60008061402c62ffffff198516846001614717565b905060fc81116140475761403f81614747565b915050611641565b8060fd14156140ad57614075614070614061856001615d84565b62ffffff1987169060026147cb565b614747565b915061408082614160565b60ff166003146140a8576140a66140a162ffffff198616856003600061491c565b61498c565b505b614159565b8060fe1415614102576140d66140706140c7856001615d84565b62ffffff1987169060046147cb565b91506140e182614160565b60ff166005146140a8576140a66140a162ffffff198616856005600061491c565b8060ff14156141595761412b61407061411c856001615d84565b62ffffff1987169060086147cb565b915061413682614160565b60ff16600914614159576141576140a162ffffff198616856009600061491c565b505b5092915050565b600060fc8267ffffffffffffffff161161417c57506001612032565b61ffff8267ffffffffffffffff161161419757506003612032565b63ffffffff8267ffffffffffffffff16116141b457506005612032565b506009612032565b6000612c4384846141d68760181c6001600160601b031690565b6001600160601b03166141e99190615e77565b858561491c565b60008160056141fe81613a1d565b50600061420c856024614017565b90508067ffffffffffffffff1661422282614160565b60ff1661422f9190615d84565b61423a906024615d84565b613a0b906004615d84565b6000818161425281613a1d565b50601884901c6001600160601b031661426f5762ffffff19613a43565b600061427c856000614017565b9050601885901c6001600160601b031667ffffffffffffffff82166142a55762ffffff19613a7c565b60006142b083614160565b60ff16905060005b8367ffffffffffffffff1681101561431c578282106142db5762ffffff19613ab7565b60006142f16142ea8486615e77565b600e613ad4565b90506142fc81614a13565b6143069084615d84565b925050808061431490615f16565b9150506142b8565b5081811461432e5762ffffff19613b1b565b613b50600f613b2b565b600082600f61434681613a1d565b506000614354866000614017565b67ffffffffffffffff169050601886901c6001600160601b03168186106143bd5760405162461bcd60e51b815260206004820152601160248201527f566f75742072656164206f76657272756e0000000000000000000000000000006044820152606401610801565b60006143c883614160565b60ff1690506000805b8881101561441e576143f56143e68486615e77565b62ffffff198c1690600e6141bc565b915061440082614a13565b61440a9084615d84565b9250614417600182615d84565b90506143d1565b5061442c6142ea8385615e77565b9050600061443982614a13565b9050611dc062ffffff198b168483600d61491c565b600081600d61445c81613a1d565b50612c4361407062ffffff198616600060086147cb565b600081600d61448181613a1d565b50600061448f856008614017565b9050613a0b61449d82614160565b6144a8906008615dc8565b62ffffff1987169060ff1667ffffffffffffffff8416600761491c565b600060ff82166144d757506000613f0e565b6144ea8460181c6001600160601b031690565b6001600160601b031661450060ff841685615d84565b11156145645761454b61451c8560781c6001600160601b031690565b6001600160601b03166145388660181c6001600160601b031690565b6001600160601b0316858560ff16614a5d565b60405162461bcd60e51b81526004016108019190615aae565b60208260ff1611156145de5760405162461bcd60e51b815260206004820152603a60248201527f54797065644d656d566965772f696e646578202d20417474656d70746564207460448201527f6f20696e646578206d6f7265207468616e2033322062797465730000000000006064820152608401610801565b6008820260006145f78660781c6001600160601b031690565b6001600160601b0316905060007f800000000000000000000000000000000000000000000000000000000000000060001984011d91909501511695945050505050565b6000613f0e83836014614717565b60008164ffffffffff1661465c8460d81c90565b64ffffffffff16149392505050565b600080601f5b600f8160ff1611156146c957600061468a826008615e4e565b60ff1685901c905061469b81614bed565b61ffff16841793508160ff166010146146b657601084901b93505b506146c2600182615e8e565b9050614671565b50600f5b60ff8160ff1610156147115760ff600882021684901c6146ec81614bed565b61ffff16831792508160ff1660001461470757601083901b92505b50600019016146cd565b50915091565b6000614724826020615e8e565b61472f906008615e4e565b60ff1661473d8585856144c5565b901c949350505050565b600067ffffffffffffffff8211156147c75760405162461bcd60e51b815260206004820152602660248201527f53616665436173743a2076616c756520646f65736e27742066697420696e203660448201527f34206269747300000000000000000000000000000000000000000000000000006064820152608401610801565b5090565b6000612c436147db8585856144c5565b600881811c7eff00ff00ff00ff00ff00ff00ff00ff00ff00ff00ff00ff00ff00ff00ff00ff167fff00ff00ff00ff00ff00ff00ff00ff00ff00ff00ff00ff00ff00ff00ff00ff009290911b9190911617601081811c7dffff0000ffff0000ffff0000ffff0000ffff0000ffff0000ffff0000ffff167fffff0000ffff0000ffff0000ffff0000ffff0000ffff0000ffff0000ffff00009290911b9190911617602081811c7bffffffff00000000ffffffff00000000ffffffff00000000ffffffff167fffffffff00000000ffffffff00000000ffffffff00000000ffffffff000000009290911b9190911617604081811c77ffffffffffffffff0000000000000000ffffffffffffffff167fffffffffffffffff0000000000000000ffffffffffffffff00000000000000009290911b9190911617608081811c91901b1790565b6000806149328660781c6001600160601b031690565b6001600160601b0316905061494686614c1d565b846149518784615d84565b61495b9190615d84565b111561496e5762ffffff19915050612c43565b6149788582615d84565b9050610b108364ffffffffff168286613ece565b606060006149c06149bb826149ad601887901c6001600160601b0316614c5e565b62ffffff1987169190614717565b61466b565b6040517f4e6f6e2d6d696e696d616c2076617220696e742e20476f74203078000000000060208201526dffffffffffffffffffffffffffff19607083901b16603b82015290925060009150604d01613fe5565b600081600e614a2181613a1d565b506000614a2f856008614017565b90508067ffffffffffffffff16614a4582614160565b60ff16614a529190615d84565b613a0b906008615d84565b60606000614a6a8661466b565b9150506000614a788661466b565b9150506000614a868661466b565b9150506000614a948661466b565b604080517f54797065644d656d566965772f696e646578202d204f76657272616e2074686560208201527f20766965772e20536c6963652069732061742030780000000000000000000000818301527fffffffffffff000000000000000000000000000000000000000000000000000060d098891b811660558301527f2077697468206c656e6774682030780000000000000000000000000000000000605b830181905297891b8116606a8301527f2e20417474656d7074656420746f20696e646578206174206f6666736574203060708301527f7800000000000000000000000000000000000000000000000000000000000000609083015295881b861660918201526097810196909652951b90921660a684015250507f2e0000000000000000000000000000000000000000000000000000000000000060ac8201528151808203608d01815260ad90910190915295945050505050565b6000614bff60048360ff16901c614cd7565b60ff161760081b62ffff0016614c1482614cd7565b60ff1617919050565b6000614c328260181c6001600160601b031690565b614c458360781c6001600160601b031690565b614c4f9190615ded565b6001600160601b031692915050565b600060ff8211156147c75760405162461bcd60e51b815260206004820152602560248201527f53616665436173743a2076616c756520646f65736e27742066697420696e203860448201527f20626974730000000000000000000000000000000000000000000000000000006064820152608401610801565b600060f08083179060ff82161415614cf3576030915050612032565b8060ff1660f11415614d09576031915050612032565b8060ff1660f21415614d1f576032915050612032565b8060ff1660f31415614d35576033915050612032565b8060ff1660f41415614d4b576034915050612032565b8060ff1660f51415614d61576035915050612032565b8060ff1660f61415614d77576036915050612032565b8060ff1660f71415614d8d576037915050612032565b8060ff1660f81415614da3576038915050612032565b8060ff1660f91415614db9576039915050612032565b8060ff1660fa1415614dcf576061915050612032565b8060ff1660fb1415614de5576062915050612032565b8060ff1660fc1415614dfb576063915050612032565b8060ff1660fd1415614e11576064915050612032565b8060ff1660fe1415614e27576065915050612032565b8060ff1660ff1415614e3d576066915050612032565b50919050565b828054614e4f90615ee1565b90600052602060002090601f016020900481019282614e715760008555614eb7565b82601f10614e8a57805160ff1916838001178555614eb7565b82800160010185558215614eb7579182015b82811115614eb7578251825591602001919060010190614e9c565b506147c79291505b808211156147c75760008155600101614ebf565b803561203281615f5d565b60008083601f840112614eef578182fd5b50813567ffffffffffffffff811115614f06578182fd5b6020830191508360208083028501011115614f2057600080fd5b9250929050565b600082601f830112614f37578081fd5b81356020614f4c614f4783615d60565b615d2f565b8281528181019085830183850287018401881015614f68578586fd5b855b85811015614f8d57614f7b82614fff565b84529284019290840190600101614f6a565b5090979650505050505050565b600082601f830112614faa578081fd5b81356020614fba614f4783615d60565b8281528181019085830183850287018401881015614fd6578586fd5b855b85811015614f8d57813584529284019290840190600101614fd8565b803561203281615f72565b80356001600160e01b03198116811461203257600080fd5b60008083601f840112615028578182fd5b50813567ffffffffffffffff81111561503f578182fd5b602083019150836020828501011115614f2057600080fd5b600082601f830112615067578081fd5b813567ffffffffffffffff81111561508157615081615f47565b615094601f8201601f1916602001615d2f565b8181528460208386010111156150a8578283fd5b816020850160208301379081016020019190915292915050565b80356006811061203257600080fd5b6000602082840312156150e2578081fd5b8135613f0e81615f5d565b6000602082840312156150fe578081fd5b8151613f0e81615f5d565b6000806000806000806000806000806000806101208d8f03121561512b578788fd5b6151348d614ed3565b9b5067ffffffffffffffff60208e0135111561514e578788fd5b61515e8e60208f01358f01614ede565b909b50995061516f60408e01614ff4565b985067ffffffffffffffff60608e01351115615189578788fd5b6151998e60608f01358f01614ede565b909850965060808d0135955067ffffffffffffffff60a08e013511156151bd578485fd5b6151cd8e60a08f01358f01615057565b94506151db60c08e016150c2565b935067ffffffffffffffff60e08e013511156151f5578283fd5b6152058e60e08f01358f01615017565b81945080935050506101008d013590509295989b509295989b509295989b565b60008060408385031215615237578182fd5b823561524281615f5d565b946020939093013593505050565b600060208284031215615261578081fd5b8151613f0e81615f72565b6000806040838503121561527e578182fd5b825161528981615f72565b8092505060208084015167ffffffffffffffff8111156152a7578283fd5b8401601f810186136152b7578283fd5b80516152c5614f4782615d60565b81815283810190838501858402850186018a10156152e1578687fd5b8694505b838510156153035780518352600194909401939185019185016152e5565b5080955050505050509250929050565b600060208284031215615324578081fd5b5035919050565b60006020828403121561533c578081fd5b5051919050565b6000806000806000806000806000806101408b8d031215615362578384fd5b61536b8b614fff565b995060208b013567ffffffffffffffff80821115615387578586fd5b6153938e838f01615057565b9a5060408d01359150808211156153a8578586fd5b6153b48e838f01615057565b99506153c260608e01614fff565b985060808d0135975060a08d01359150808211156153de578586fd5b6153ea8e838f01615057565b965060c08d0135955060e08d0135915080821115615406578485fd5b6154128e838f01615057565b94506101008d0135915080821115615428578384fd5b6154348e838f01614f9a565b93506101208d013591508082111561544a578283fd5b506154578d828e01614f9a565b9150509295989b9194979a5092959850565b60008060006040848603121561547d578081fd5b833567ffffffffffffffff80821115615494578283fd5b6154a087838801615017565b909550935060208601359150808211156154b8578283fd5b506154c586828701614f9a565b9150509250925092565b60008060008060008060008060006101208a8c0312156154ed578283fd5b893567ffffffffffffffff80821115615504578485fd5b6155108d838e01615057565b9a5060208c0135915080821115615525578485fd5b6155318d838e01614f27565b995060408c0135915080821115615546578485fd5b6155528d838e01615057565b985060608c0135915080821115615567578485fd5b6155738d838e01615057565b975060808c0135915080821115615588578485fd5b6155948d838e01615057565b965060a08c01359150808211156155a9578485fd5b6155b58d838e01615057565b955060c08c01359150808211156155ca578485fd5b6155d68d838e01614f27565b945060e08c01359150808211156155eb578384fd5b6155f78d838e01615057565b93506101008c013591508082111561560d578283fd5b5061561a8c828d01614f9a565b9150509295985092959850929598565b6000806040838503121561563c578182fd5b82359150602083013561564e81615f5d565b809150509250929050565b60008060008060008060008060006101208a8c031215615677578283fd5b8935985060208a013561568981615f5d565b975060408a013561569981615f5d565b965060608a01356156a981615f5d565b955060808a01356156b981615f5d565b989b979a50959894979660a0860135965060c08601359560e0810135955061010001359350915050565b60008060008060008060a087890312156156fb578384fd5b86359550602087013567ffffffffffffffff80821115615719578586fd5b6157258a838b01615057565b965061573360408a016150c2565b95506060890135915080821115615748578384fd5b5061575589828a01615017565b979a9699509497949695608090950135949350505050565b6000806040838503121561577f578182fd5b50508035926020909101359150565b6000815180845260208085019450808401835b838110156157c75781516001600160e01b031916875295820195908201906001016157a1565b509495945050505050565b6000826060810183835b600381101561580b5783830387526157f583835161586f565b60209788019790935091909101906001016157dc565b509095945050505050565b6000815180845260208085019450808401835b838110156157c757815187529582019590820190600101615829565b60008284528282602086013780602084860101526020601f19601f85011685010190509392505050565b60008151808452615887816020860160208601615eb1565b601f01601f19169290920160200192915050565b600681106158b957634e487b7160e01b600052602160045260246000fd5b9052565b60006001600160e01b0319808716835285516158e0816004860160208a01615eb1565b8551908401906158f7816004840160208a01615eb1565b919094169301600481019390935250506008019392505050565b60008251615923818460208701615eb1565b9190910192915050565b60006001600160a01b038716825285602083015284604083015260a0606083015261595b60a083018561586f565b90508260808301529695505050505050565b6001600160a01b038d1681526000610180602083015261599161018083018e61586f565b82810360408401526159a3818e61578e565b905082810360608401526159b7818d6157d2565b90508a60808401528960a08401526159da60c084018a6001600160a01b03169052565b8760e0840152866101008401528281036101208401526159fa818761578e565b9050828103610140840152615a0f818661586f565b9050828103610160840152615a248185615816565b9f9e505050505050505050505050505050565b60006001600160a01b038716825260a06020830152615a5960a083018761586f565b604083019590955250606081019290925260809091015292915050565b600060208252612c43602083018486615845565b600060408252615a9e604083018587615845565b9050826020830152949350505050565b600060208252613f0e602083018461586f565b600060808252615ad4608083018861586f565b615ae1602084018861589b565b6001600160a01b03861660408401528281036060840152615b03818587615845565b98975050505050505050565b60006101a0808352615b238184018c61586f565b9150506020615b348184018b61589b565b6001600160a01b03808a16604085015288606085015287608085015280871660a08501525060c083018560005b6003811015615b7e57815183529183019190830190600101615b61565b50505061012083018460005b6004811015615ba757815183529183019190830190600101615b8a565b505050509998505050505050505050565b600086825285602083015260a06040830152615bd760a083018661586f565b8281036060840152615be9818661586f565b9150508260808301529695505050505050565b60006101008a83528960208401526001600160a01b0389166040840152806060840152615c2b8184018961586f565b91505085608083015284151560a0830152615c4960c083018561589b565b8260e08301529998505050505050505050565b878152602080820188905260c0604083018190528201869052600090879060e08401835b89811015615cae578335615c9381615f5d565b6001600160a01b031682529282019290820190600101615c80565b506001600160a01b039790971660608501525050506080810192909252151560a090910152949350505050565b60008882528760208301526001600160e01b0319871660408301526001600160a01b038616606083015260e06080830152615d1960e083018661586f565b60a08301949094525060c0015295945050505050565b604051601f8201601f1916810167ffffffffffffffff81118282101715615d5857615d58615f47565b604052919050565b600067ffffffffffffffff821115615d7a57615d7a615f47565b5060209081020190565b60008219821115615d9757615d97615f31565b500190565b600067ffffffffffffffff808316818516808303821115615dbf57615dbf615f31565b01949350505050565b600060ff821660ff84168060ff03821115615de557615de5615f31565b019392505050565b60006001600160601b03808316818516808303821115615dbf57615dbf615f31565b600082615e2a57634e487b7160e01b81526012600452602481fd5b500490565b6000816000190483118215151615615e4957615e49615f31565b500290565b600060ff821660ff84168160ff0481118215151615615e6f57615e6f615f31565b029392505050565b600082821015615e8957615e89615f31565b500390565b600060ff821660ff841680821015615ea857615ea8615f31565b90039392505050565b60005b83811015615ecc578181015183820152602001615eb4565b83811115615edb576000848401525b50505050565b600281046001821680615ef557607f821691505b60208210811415614e3d57634e487b7160e01b600052602260045260246000fd5b6000600019821415615f2a57615f2a615f31565b5060010190565b634e487b7160e01b600052601160045260246000fd5b634e487b7160e01b600052604160045260246000fd5b6001600160a01b0381168114611f2457600080fd5b8015158114611f2457600080fdfea26469706673582212206ab0f023e84026e8c539fdd99faa5c2cf3ce28a24fac9e9b74cf51abbc6b16cd64736f6c63430008020033",
  "deployedBytecode": "0x60806040526004361061026e5760003560e01c80637f0f181711610153578063b59589d1116100cb578063cf54ce471161007f578063f0f4426011610064578063f0f44260146106de578063f2fde38b146106fe578063f47e22401461071e57610275565b8063cf54ce47146106ab578063ea732637146106cb57610275565b8063bed6a602116100b0578063bed6a60214610662578063c780c03f14610678578063c805f68b1461068b57610275565b8063b59589d11461062c578063b74d0d351461064c57610275565b80638da5cb5b11610122578063930a60e811610107578063930a60e8146105a9578063a9b68271146105d6578063b14d35321461060c57610275565b80638da5cb5b1461056b5780638f9eb78b1461058957610275565b80637f0f1817146104eb5780637ffe9a921461050b5780638d3d78cd1461052b5780638d5fc1d41461054b57610275565b80634782bc36116101e657806361d027b3116101b5578063715018a61161019a578063715018a61461049657806373532b2a146104ab5780637ed55748146104cb57610275565b806361d027b31461046057806370872aa51461048057610275565b80634782bc36146103d357806350a05836146103f357806359fd0b0c146104135780635c4f5f3e1461044057610275565b80631e7107c71161023d5780633fea4367116102225780633fea43671461037d578063419cba7f1461039d57806344dd6aa5146103b357610275565b80631e7107c71461033d57806333453d151461035d57610275565b80631812adb61461027a5780631876dec4146102a35780631d927898146102db5780631e236168146102fd57610275565b3661027557005b600080fd5b34801561028657600080fd5b5061029060075481565b6040519081526020015b60405180910390f35b3480156102af57600080fd5b506001546102c3906001600160a01b031681565b6040516001600160a01b03909116815260200161029a565b3480156102e757600080fd5b506102fb6102f6366004615659565b610752565b005b34801561030957600080fd5b5061032d610318366004615313565b600c6020526000908152604090205460ff1681565b604051901515815260200161029a565b34801561034957600080fd5b506102fb610358366004615313565b6108f5565b34801561036957600080fd5b506102fb6103783660046150d1565b610979565b34801561038957600080fd5b506102906103983660046156e3565b6109ea565b3480156103a957600080fd5b5061029060085481565b3480156103bf57600080fd5b506102906103ce366004615109565b610b1a565b3480156103df57600080fd5b506102fb6103ee366004615313565b610bc0565b3480156103ff57600080fd5b506004546102c3906001600160a01b031681565b34801561041f57600080fd5b5061029061042e366004615313565b60a46020526000908152604090205481565b34801561044c57600080fd5b506102fb61045b366004615313565b610c5b565b34801561046c57600080fd5b506003546102c3906001600160a01b031681565b34801561048c57600080fd5b5061029060055481565b3480156104a257600080fd5b506102fb610e15565b3480156104b757600080fd5b506102fb6104c6366004615469565b610e1f565b3480156104d757600080fd5b506102fb6104e6366004615313565b61148b565b3480156104f757600080fd5b506102fb6105063660046150d1565b611526565b34801561051757600080fd5b5061032d610526366004615225565b6115ef565b34801561053757600080fd5b506002546102c3906001600160a01b031681565b34801561055757600080fd5b506102fb61056636600461562a565b611647565b34801561057757600080fd5b506040546001600160a01b03166102c3565b34801561059557600080fd5b506102fb6105a436600461576d565b6116eb565b3480156105b557600080fd5b506102906105c43660046150d1565b600b6020526000908152604090205481565b3480156105e257600080fd5b506102c36105f1366004615313565b60a5602052600090815260409020546001600160a01b031681565b34801561061857600080fd5b506102fb6106273660046150d1565b611754565b34801561063857600080fd5b506000546102c3906001600160a01b031681565b34801561065857600080fd5b5061029060095481565b34801561066e57600080fd5b5061029060065481565b6102fb6106863660046154cf565b61181d565b34801561069757600080fd5b506102fb6106a63660046150d1565b61199b565b3480156106b757600080fd5b506102fb6106c6366004615313565b611a64565b61032d6106d9366004615343565b611b02565b3480156106ea57600080fd5b506102fb6106f93660046150d1565b611dce565b34801561070a57600080fd5b506102fb6107193660046150d1565b611e97565b34801561072a57600080fd5b5061073e610739366004615225565b611f27565b60405161029a989796959493929190615bfc565b600d54610100900460ff16158080156107725750600d54600160ff909116105b80610793575061078130612024565b1580156107935750600d5460ff166001145b61080a5760405162461bcd60e51b815260206004820152602e60248201527f496e697469616c697a61626c653a20636f6e747261637420697320616c72656160448201527f647920696e697469616c697a656400000000000000000000000000000000000060648201526084015b60405180910390fd5b600d805460ff19166001179055801561082d57600d805461ff0019166101001790555b610835612037565b61083d6120aa565b6108468a6108f5565b61084f8961199b565b61085888611754565b61086187611dce565b61086a86611526565b61087385610c5b565b61087c8461148b565b61088583610bc0565b61089a6103786040546001600160a01b031690565b6108a382611a64565b80156108e957600d805461ff0019169055604051600181527f7f26b83ff96e1f2b6a682f133852f6798a09c465da95921460cefb38474024989060200160405180910390a15b50505050505050505050565b6108fd61211d565b60055481116109745760405162461bcd60e51b815260206004820152602860248201527f4275726e526f757465724c6f6769633a206c6f77207374617274696e67426c6f60448201527f636b4e756d6265720000000000000000000000000000000000000000000000006064820152608401610801565b600555565b61098161211d565b600454604080516001600160a01b03928316815291831660208301527f68bf625687194a1bbeeccbaa327c37aa1f9940a3c6c9e8fe84f06f1dc14fd176910160405180910390a1600480546001600160a01b0319166001600160a01b0392909216919091179055565b60006109f4612177565b6002546001600160a01b03166323b872dd336040516001600160e01b031960e084901b1681526001600160a01b039091166004820152306024820152604481018a9052606401602060405180830381600087803b158015610a5457600080fd5b505af1158015610a68573d6000803e3d6000fd5b505050506040513d601f19601f82011682018060405250810190610a8c9190615250565b610ae45760405162461bcd60e51b8152602060048201526024808201527f4275726e526f757465724c6f6769633a207472616e7366657246726f6d2066616044820152631a5b195960e21b6064820152608401610801565b600254600090610b03906001600160a01b031689808a8a8a8a8a6121d1565b915050610b106001607255565b9695505050505050565b6000610b24612177565b6000610b358e8e8e8e8e8e8e612688565b9050610ba38d8d6000818110610b5b57634e487b7160e01b600052603260045260246000fd5b905060200201358b8b6000818110610b8357634e487b7160e01b600052603260045260246000fd5b9050602002016020810190610b9891906150d1565b838a8a8a8a8a612ad5565b915050610bb06001607255565b9c9b505050505050505050505050565b610bc861211d565b806127101015610c1a5760405162461bcd60e51b815260206004820152601f60248201527f4275726e526f757465724c6f6769633a20696e76616c696420726577617264006044820152606401610801565b60085460408051918252602082018390527faa50b3683e42a13535a5b9c2c32780cccf956fb546b523a3542ac4ad8b544f67910160405180910390a1600855565b600080546040517fa779a3920000000000000000000000000000000000000000000000000000000081526001600160a01b03909116600482015273__$b2d4c044db363f4bd023a450a1a4a26d98$__9063a779a3929060240160206040518083038186803b158015610ccc57600080fd5b505af4158015610ce0573d6000803e3d6000fd5b505050506040513d601f19601f82011682018060405250810190610d04919061532b565b9050610d186040546001600160a01b031690565b6001600160a01b0316336001600160a01b03161480610d38575080600654105b610d845760405162461bcd60e51b815260206004820152601a60248201527f4275726e526f757465724c6f6769633a206e6f207065726d69740000000000006044820152606401610801565b808211610dd35760405162461bcd60e51b815260206004820152601d60248201527f4275726e526f757465724c6f6769633a206c6f7720646561646c696e650000006044820152606401610801565b60065460408051918252602082018490527f92c10a242ca42973030420e2ee32b3ba7818cc643f896958f620c606cf300416910160405180910390a150600655565b610e1d61211d565b565b610e27612177565b610e2f61211d565b6001546040517faff2faa30000000000000000000000000000000000000000000000000000000081526001600160a01b039091169063aff2faa390610e7a9086908690600401615a76565b60206040518083038186803b158015610e9257600080fd5b505afa158015610ea6573d6000803e3d6000fd5b505050506040513d601f19601f82011682018060405250810190610eca9190615250565b610f165760405162461bcd60e51b815260206004820152601b60248201527f4275726e526f757465724c6f6769633a206e6f74206c6f636b657200000000006044820152606401610801565b60015460405163626885b560e11b81526000916001600160a01b03169063c4d10b6a90610f499087908790600401615a76565b60206040518083038186803b158015610f6157600080fd5b505afa158015610f75573d6000803e3d6000fd5b505050506040513d601f19601f82011682018060405250810190610f9991906150ed565b905060005b825181101561147a5773__$b2d4c044db363f4bd023a450a1a4a26d98$__6315755789600a84868581518110610fe457634e487b7160e01b600052603260045260246000fd5b60209081029190910101516000546040516310889dc360e01b81526001600160a01b03909116600482015273__$b2d4c044db363f4bd023a450a1a4a26d98$__906310889dc39060240160206040518083038186803b15801561104657600080fd5b505af415801561105a573d6000803e3d6000fd5b505050506040513d601f19601f8201168201806040525081019061107e919061532b565b6006546005546040516001600160e01b031960e089901b16815260048101969096526001600160a01b03909416602486015260448501929092526064840152608483015260a482015260c40160006040518083038186803b1580156110e257600080fd5b505af41580156110f6573d6000803e3d6000fd5b50506001546008546001600160a01b038681166000908152600a602052604090208851919093169450631697565b93508692612710929189908890811061114d57634e487b7160e01b600052603260045260246000fd5b60200260200101518154811061117357634e487b7160e01b600052603260045260246000fd5b90600052602060002090600702016000015461118f9190615e2f565b6111999190615e0f565b336001600160a01b0387166000908152600a6020526040902088518990889081106111d457634e487b7160e01b600052603260045260246000fd5b6020026020010151815481106111fa57634e487b7160e01b600052603260045260246000fd5b906000526020600020906007020160000154600a6000896001600160a01b03166001600160a01b0316815260200190815260200160002089888151811061125157634e487b7160e01b600052603260045260246000fd5b60200260200101518154811061127757634e487b7160e01b600052603260045260246000fd5b600091825260209091206007909102016002015460405160e087901b6001600160e01b03191681526001600160a01b03958616600482015260248101949094529184166044840152606483015291909116608482015260a401602060405180830381600087803b1580156112ea57600080fd5b505af11580156112fe573d6000803e3d6000fd5b505050506040513d601f19601f820116820180604052508101906113229190615250565b506001600160a01b0382166000818152600a60205260409020845185908490811061135d57634e487b7160e01b600052603260045260246000fd5b60200260200101518154811061138357634e487b7160e01b600052603260045260246000fd5b906000526020600020906007020160020160009054906101000a90046001600160a01b03166001600160a01b03167f58c23b4ae0617be275628875bcfd65759a441263099a256eeb27899fb5dd846d8787600a6000886001600160a01b03166001600160a01b0316815260200190815260200160002088878151811061141957634e487b7160e01b600052603260045260246000fd5b60200260200101518154811061143f57634e487b7160e01b600052603260045260246000fd5b90600052602060002090600702016006015460405161146093929190615a8a565b60405180910390a38061147281615f16565b915050610f9e565b50506114866001607255565b505050565b61149361211d565b8061271010156114e55760405162461bcd60e51b815260206004820152601c60248201527f4275726e526f757465724c6f6769633a20696e76616c696420666565000000006044820152606401610801565b60075460408051918252602082018390527f7d205f60891f60851c61cd244ba387d72b6589e7c0ac41b9d909ab0ce2c2a53b910160405180910390a1600755565b61152e61211d565b806001600160a01b0381166115855760405162461bcd60e51b815260206004820152601d60248201527f4275726e526f757465724c6f6769633a207a65726f20616464726573730000006044820152606401610801565b600254604080516001600160a01b03928316815291841660208301527f36a4c08a38b736dcecb6c328dba61238529620e83ccb23db2cc43cd34ec26096910160405180910390a150600280546001600160a01b0319166001600160a01b0392909216919091179055565b6001600160a01b0382166000908152600a6020526040812080548390811061162757634e487b7160e01b600052603260045260246000fd5b600091825260209091206005600790920201015460ff1690505b92915050565b61164f61211d565b600082815260a56020526040908190205490517f1e73962bcff5b98a9ac70c9b0f71fbb31dc0f5a09348c6d3ceab164169a9e729916116b59185916001600160a01b03169085909283526001600160a01b03918216602084015216604082015260600190565b60405180910390a1600091825260a5602052604090912080546001600160a01b0319166001600160a01b03909216919091179055565b6116f361211d565b600082815260a46020908152604091829020548251858152918201529081018290527f188adabf806a6b6d814acc1dbd9f09e5a251c8c065d6285749a5824e4579b6459060600160405180910390a1600091825260a4602052604090912055565b61175c61211d565b806001600160a01b0381166117b35760405162461bcd60e51b815260206004820152601d60248201527f4275726e526f757465724c6f6769633a207a65726f20616464726573730000006044820152606401610801565b600154604080516001600160a01b03928316815291841660208301527ffa021c2ec0f46429a53e7f88b88065e40001f50c9d38b2e8b713beaf9828d4c3910160405180910390a150600180546001600160a01b0319166001600160a01b0392909216919091179055565b611825612177565b61182d61211d565b600061188b8960008151811061185357634e487b7160e01b600052603260045260246000fd5b602002602001015189898760008151811061187e57634e487b7160e01b600052603260045260246000fd5b6020026020010151612ae8565b905073__$b2d4c044db363f4bd023a450a1a4a26d98$__63441d3a21600160009054906101000a90046001600160a01b03168c8c60405180606001604052808e81526020018c81526020018b815250600c60065460008054906101000a90046001600160a01b03166005548a8e8e8e6040518d63ffffffff1660e01b81526004016119219c9b9a9998979695949392919061596d565b60006040518083038186803b15801561193957600080fd5b505af415801561194d573d6000803e3d6000fd5b50505050611985878b838560028151811061197857634e487b7160e01b600052603260045260246000fd5b6020026020010151612c4b565b506119906001607255565b505050505050505050565b6119a361211d565b806001600160a01b0381166119fa5760405162461bcd60e51b815260206004820152601d60248201527f4275726e526f757465724c6f6769633a207a65726f20616464726573730000006044820152606401610801565b600054604080516001600160a01b03928316815291841660208301527f4c28a3f61a715259c4dc930c23e7423b8fa52e13232c061a6e488729c66184f4910160405180910390a150600080546001600160a01b0319166001600160a01b0392909216919091179055565b60045433906001600160a01b03168114611ac05760405162461bcd60e51b815260206004820152601b60248201527f4275726e526f757465724c6f6769633a206e6f74206f7261636c6500000000006044820152606401610801565b60095460408051918252602082018490527f890eb41e398fd9cf425695b34269b781ad56c257422859094a28db47fb78f1b3910160405180910390a150600955565b6000611b0c612177565b73__$b2d4c044db363f4bd023a450a1a4a26d98$__6344922b64886005548b600160009054906101000a90046001600160a01b031689895189516040518863ffffffff1660e01b8152600401611b689796959493929190615cdb565b60006040518083038186803b158015611b8057600080fd5b505af4158015611b94573d6000803e3d6000fd5b505050506000611ba68c8c8c8c612ae8565b6000546040517f7ebc232700000000000000000000000000000000000000000000000000000000815291925073__$b2d4c044db363f4bd023a450a1a4a26d98$__91637ebc232791611c0e916001600160a01b039091169085908d908d908d9060040161592d565b60206040518083038186803b158015611c2657600080fd5b505af4158015611c3a573d6000803e3d6000fd5b505050506040513d601f19601f82011682018060405250810190611c5e9190615250565b611caa5760405162461bcd60e51b815260206004820152601e60248201527f4275726e526f757465724c6f6769633a206e6f742066696e616c697a656400006044820152606401610801565b60015460405163626885b560e11b81526000916001600160a01b03169063c4d10b6a90611cdb908990600401615aae565b60206040518083038186803b158015611cf357600080fd5b505afa158015611d07573d6000803e3d6000fd5b505050506040513d601f19601f82011682018060405250810190611d2b91906150ed565b90506000611d3d838b848f8a8a612e18565b905073__$b2d4c044db363f4bd023a450a1a4a26d98$__63191e28dc600c838f8b886040518663ffffffff1660e01b8152600401611d7f959493929190615bb8565b60006040518083038186803b158015611d9757600080fd5b505af4158015611dab573d6000803e3d6000fd5b5050505060019350505050611dc06001607255565b9a9950505050505050505050565b611dd661211d565b806001600160a01b038116611e2d5760405162461bcd60e51b815260206004820152601d60248201527f4275726e526f757465724c6f6769633a207a65726f20616464726573730000006044820152606401610801565b600354604080516001600160a01b03928316815291841660208301527f567657fa3f286518b318f4a29870674f433f622fdfc819691acb13105b228225910160405180910390a150600380546001600160a01b0319166001600160a01b0392909216919091179055565b611e9f61211d565b6001600160a01b038116611f1b5760405162461bcd60e51b815260206004820152602660248201527f4f776e61626c653a206e6577206f776e657220697320746865207a65726f206160448201527f64647265737300000000000000000000000000000000000000000000000000006064820152608401610801565b611f2481613324565b50565b600a6020528160005260406000208181548110611f4357600080fd5b600091825260209091206007909102018054600182015460028301546003840180549396509194506001600160a01b03169291611f7f90615ee1565b80601f0160208091040260200160405190810160405280929190818152602001828054611fab90615ee1565b8015611ff85780601f10611fcd57610100808354040283529160200191611ff8565b820191906000526020600020905b815481529060010190602001808311611fdb57829003601f168201915b505050600484015460058501546006909501549394909360ff8083169450610100909204909116915088565b6001600160a01b0381163b15155b919050565b600d54610100900460ff166120a25760405162461bcd60e51b815260206004820152602b60248201527f496e697469616c697a61626c653a20636f6e7472616374206973206e6f74206960448201526a6e697469616c697a696e6760a81b6064820152608401610801565b610e1d613374565b600d54610100900460ff166121155760405162461bcd60e51b815260206004820152602b60248201527f496e697469616c697a61626c653a20636f6e7472616374206973206e6f74206960448201526a6e697469616c697a696e6760a81b6064820152608401610801565b610e1d6133e8565b6040546001600160a01b03163314610e1d5760405162461bcd60e51b815260206004820181905260248201527f4f776e61626c653a2063616c6c6572206973206e6f7420746865206f776e65726044820152606401610801565b600260725414156121ca5760405162461bcd60e51b815260206004820152601f60248201527f5265656e7472616e637947756172643a207265656e7472616e742063616c6c006044820152606401610801565b6002607255565b6001546040517ff876615000000000000000000000000000000000000000000000000000000000815260009173__$b2d4c044db363f4bd023a450a1a4a26d98$__9163f876615091612239918a918a916001600160a01b03909116908a908a90600401615ac1565b60006040518083038186803b15801561225157600080fd5b505af4158015612265573d6000803e3d6000fd5b5050505060008060006122788a86613453565b6002546001546040517f095ea7b30000000000000000000000000000000000000000000000000000000081526001600160a01b03918216600482015260248101869052949750929550909350169063095ea7b390604401602060405180830381600087803b1580156122e957600080fd5b505af11580156122fd573d6000803e3d6000fd5b505050506040513d601f19601f820116820180604052508101906123219190615250565b506001546040517f38463cff0000000000000000000000000000000000000000000000000000000081526001600160a01b03909116906338463cff9061236f908a908a908890600401615a8a565b602060405180830381600087803b15801561238957600080fd5b505af115801561239d573d6000803e3d6000fd5b505050506040513d601f19601f820116820180604052508101906123c1919061532b565b60015460405163626885b560e11b81529195506000916001600160a01b039091169063c4d10b6a906123f9908b908b90600401615a76565b60206040518083038186803b15801561241157600080fd5b505afa158015612425573d6000803e3d6000fd5b505050506040513d601f19601f8201168201806040525081019061244991906150ed565b6000546040516310889dc360e01b81526001600160a01b0390911660048201529091506124ed908c9087908d908d9073__$b2d4c044db363f4bd023a450a1a4a26d98$__906310889dc39060240160206040518083038186803b1580156124af57600080fd5b505af41580156124c3573d6000803e3d6000fd5b505050506040513d601f19601f820116820180604052508101906124e7919061532b565b8661382a565b604080516060810182528d815260208082018e905281830188905282516080810190935260095483528f9260009181016125278a8a615e77565b8152602080820189905260409182018890526001600160a01b0387166000908152600a9091522080549192509061256090600190615e77565b8154811061257e57634e487b7160e01b600052603260045260246000fd5b9060005260206000209060070201600401546125973390565b6001600160a01b03167f6b5c22e69db87534a562352580358411dc7b2d98d24684765342f2ebf2dd8c318f8f88600a60008b6001600160a01b03166001600160a01b031681526020019081526020016000206001600a60008d6001600160a01b03166001600160a01b031681526020019081526020016000208054905061261e9190615e77565b8154811061263c57634e487b7160e01b600052603260045260246000fd5b9060005260206000209060070201600601548f8a8a8a604051612666989796959493929190615b0f565b60405180910390a35050505050505098975050505050505050565b6001607255565b6002546000906001600160a01b031684846126a4600182615e77565b8181106126c157634e487b7160e01b600052603260045260246000fd5b90506020020160208101906126d691906150d1565b6001600160a01b03161461272c5760405162461bcd60e51b815260206004820152601d60248201527f4275726e526f757465724c6f6769633a20696e76616c696420706174680000006044820152606401610801565b6002861461277c5760405162461bcd60e51b815260206004820152601e60248201527f4275726e526f757465724c6f6769633a2077726f6e6720616d6f756e747300006044820152606401610801565b8383600081811061279d57634e487b7160e01b600052603260045260246000fd5b90506020020160208101906127b291906150d1565b6001600160a01b03166323b872dd33308a8a60008181106127e357634e487b7160e01b600052603260045260246000fd5b6040516001600160e01b031960e088901b1681526001600160a01b03958616600482015294909316602485015250602090910201356044820152606401602060405180830381600087803b15801561283a57600080fd5b505af115801561284e573d6000803e3d6000fd5b505050506040513d601f19601f820116820180604052508101906128729190615250565b508383600081811061289457634e487b7160e01b600052603260045260246000fd5b90506020020160208101906128a991906150d1565b6001600160a01b031663095ea7b389898960008181106128d957634e487b7160e01b600052603260045260246000fd5b6040516001600160e01b031960e087901b1681526001600160a01b0390941660048501526020029190910135602483015250604401602060405180830381600087803b15801561292857600080fd5b505af115801561293c573d6000803e3d6000fd5b505050506040513d601f19601f820116820180604052508101906129609190615250565b50600080896001600160a01b031663b0bbcd888a8a600081811061299457634e487b7160e01b600052603260045260246000fd5b905060200201358b8b60018181106129bc57634e487b7160e01b600052603260045260246000fd5b905060200201358989308a8e6040518863ffffffff1660e01b81526004016129ea9796959493929190615c5c565b600060405180830381600087803b158015612a0457600080fd5b505af1158015612a18573d6000803e3d6000fd5b505050506040513d6000823e601f3d908101601f19168201604052612a40919081019061526c565b9150915081612a915760405162461bcd60e51b815260206004820181905260248201527f4275726e526f757465724c6f6769633a2065786368616e6765206661696c65646044820152606401610801565b8060018251612aa09190615e77565b81518110612abe57634e487b7160e01b600052603260045260246000fd5b602002602001015192505050979650505050505050565b600080611dc0898b8a8a8a8a8a8a6121d1565b600080612afd612af886836139f0565b613a14565b905062ffffff198082161415612b555760405162461bcd60e51b815260206004820152601a60248201527f426974636f696e48656c7065723a2076696e206973206e756c6c0000000000006044820152606401610801565b6000600287878787604051602001612b7094939291906158bd565b60408051601f1981840301815290829052612b8a91615911565b602060405180830381855afa158015612ba7573d6000803e3d6000fd5b5050506040513d601f19601f82011682018060405250810190612bca919061532b565b90506000600282604051602001612be391815260200190565b60408051601f1981840301815290829052612bfd91615911565b602060405180830381855afa158015612c1a573d6000803e3d6000fd5b5050506040513d601f19601f82011682018060405250810190612c3d919061532b565b93505050505b949350505050565b6000612c5685613b5d565b60015460405163626885b560e11b815267ffffffffffffffff9290921692506000916001600160a01b039091169063c4d10b6a90612c98908890600401615aae565b60206040518083038186803b158015612cb057600080fd5b505afa158015612cc4573d6000803e3d6000fd5b505050506040513d601f19601f82011682018060405250810190612ce891906150ed565b6001546008549192506001600160a01b03169063b734de2690839061271090612d119087615e2f565b612d1b9190615e0f565b3360405160e085901b6001600160e01b03191681526001600160a01b0393841660048201526024810192909252909116604482015260648101859052608401602060405180830381600087803b158015612d7457600080fd5b505af1158015612d88573d6000803e3d6000fd5b505050506040513d601f19601f82011682018060405250810190612dac9190615250565b507f7ff138134e34ccab071315c38e38eec079f54726b890304ab46e2c5ab6f722bb8186858761271060085488612de39190615e2f565b612ded9190615e0f565b612df79088615d84565b604051612e08959493929190615a37565b60405180910390a1505050505050565b60008080805b85518110156133175780612e5b57848181518110612e4c57634e487b7160e01b600052603260045260246000fd5b60200260200101519150612f22565b81858281518110612e7c57634e487b7160e01b600052603260045260246000fd5b602002602001015111612ef75760405162461bcd60e51b815260206004820152602760248201527f4275726e526f757465724c6f6769633a20756e2d736f7274656420766f75742060448201527f696e6465786573000000000000000000000000000000000000000000000000006064820152608401610801565b848181518110612f1757634e487b7160e01b600052603260045260246000fd5b602002602001015191505b6000868281518110612f4457634e487b7160e01b600052603260045260246000fd5b60200260200101519050600a60008a6001600160a01b03166001600160a01b031681526020019081526020016000208181548110612f9257634e487b7160e01b600052603260045260246000fd5b600091825260209091206005600790920201015460ff1615801561300157506001600160a01b0389166000908152600a6020526040902080548b919083908110612fec57634e487b7160e01b600052603260045260246000fd5b90600052602060002090600702016004015410155b156133045761316e8887848151811061302a57634e487b7160e01b600052603260045260246000fd5b6020026020010151600a60008d6001600160a01b03166001600160a01b03168152602001908152602001600020848154811061307657634e487b7160e01b600052603260045260246000fd5b9060005260206000209060070201600301805461309290615ee1565b80601f01602080910402602001604051908101604052809291908181526020018280546130be90615ee1565b801561310b5780601f106130e05761010080835404028352916020019161310b565b820191906000526020600020905b8154815290600101906020018083116130ee57829003601f168201915b5050506001600160a01b038f166000908152600a602052604090208054909250879150811061314a57634e487b7160e01b600052603260045260246000fd5b906000526020600020906007020160050160019054906101000a900460ff16613c2b565b67ffffffffffffffff16935083600a60008b6001600160a01b03166001600160a01b0316815260200190815260200160002082815481106131bf57634e487b7160e01b600052603260045260246000fd5b9060005260206000209060070201600101541415613304576001600160a01b0389166000908152600a602052604090208054600191908390811061321357634e487b7160e01b600052603260045260246000fd5b60009182526020909120600790910201600501805460ff1916911515919091179055613240856001615d84565b6001600160a01b038a166000818152600a60205260409020805492975090917f7b8cb33b1d4dc1e5d05c58e9945c383eb161ac22029c5b963989d08c3d0ef4da9190849081106132a057634e487b7160e01b600052603260045260246000fd5b9060005260206000209060070201600601548d8986815181106132d357634e487b7160e01b600052603260045260246000fd5b60200260200101516040516132fb939291909283526020830191909152604082015260600190565b60405180910390a25b508061330f81615f16565b915050612e1e565b5050509695505050505050565b604080546001600160a01b038381166001600160a01b031983168117845592519116919082907f8be0079c531659141344cd1fd0a4f28419497f9722a3daafe3b4186f6b6457e090600090a35050565b600d54610100900460ff166133df5760405162461bcd60e51b815260206004820152602b60248201527f496e697469616c697a61626c653a20636f6e7472616374206973206e6f74206960448201526a6e697469616c697a696e6760a81b6064820152608401610801565b610e1d33613324565b600d54610100900460ff166126815760405162461bcd60e51b815260206004820152602b60248201527f496e697469616c697a61626c653a20636f6e7472616374206973206e6f74206960448201526a6e697469616c697a696e6760a81b6064820152608401610801565b6000806000612710600754866134699190615e2f565b6134739190615e0f565b600085815260a46020526040902054909250612710906134939087615e2f565b61349d9190615e0f565b905060095460026134ae9190615e2f565b6134b89083615d84565b85116135065760405162461bcd60e51b815260206004820152601b60248201527f4275726e526f757465724c6f6769633a206c6f7720616d6f756e7400000000006044820152606401610801565b600954816135148488615e77565b61351e9190615e77565b6135289190615e77565b925081156136105760025460035460405163a9059cbb60e01b81526001600160a01b0391821660048201526024810185905291169063a9059cbb90604401602060405180830381600087803b15801561358057600080fd5b505af1158015613594573d6000803e3d6000fd5b505050506040513d601f19601f820116820180604052508101906135b89190615250565b6136105760405162461bcd60e51b8152602060048201526024808201527f4275726e526f757465724c6f6769633a20666565207472616e736665722066616044820152631a5b195960e21b6064820152608401610801565b801561371d57600254600085815260a560205260409081902054905163a9059cbb60e01b81526001600160a01b0391821660048201526024810184905291169063a9059cbb90604401602060405180830381600087803b15801561367357600080fd5b505af1158015613687573d6000803e3d6000fd5b505050506040513d601f19601f820116820180604052508101906136ab9190615250565b61371d5760405162461bcd60e51b815260206004820152603060248201527f4275726e526f757465724c6f6769633a2074686972642070617274792066656560448201527f207472616e73666572206661696c6564000000000000000000000000000000006064820152608401610801565b600954156138235760025460015460095460405163a9059cbb60e01b81526001600160a01b039283166004820152602481019190915291169063a9059cbb90604401602060405180830381600087803b15801561377957600080fd5b505af115801561378d573d6000803e3d6000fd5b505050506040513d601f19601f820116820180604052508101906137b19190615250565b6138235760405162461bcd60e51b815260206004820152602c60248201527f4275726e526f757465724c6f6769633a206e6574776f726b206665652074726160448201527f6e73666572206661696c656400000000000000000000000000000000000000006064820152608401610801565b9250925092565b604080516101008101825260006080820181905260a0820181905260c0820181815260e0830191909152888252602082018890523392820192909252606081018690529084600581111561388e57634e487b7160e01b600052602160045260246000fd5b908160058111156138af57634e487b7160e01b600052602160045260246000fd5b9052506006546138bf9084615d84565b6080820152600060a082018190526001600160a01b038316808252600b6020818152604084205460e08601819052929093529091526138ff906001615d84565b6001600160a01b038381166000908152600b6020908152604080832094909455600a81528382208054600180820183559184529282902086516007909402019283558582015190830155928401516002820180546001600160a01b031916919093161790915560608301518051849361397f926003850192910190614e43565b506080820151600482015560a08201516005808301805460ff19169215159290921780835560c0850151929161ff0019909116906101009084908111156139d657634e487b7160e01b600052602160045260246000fd5b021790555060e08201518160060155505050505050505050565b815160009060208401613a0b64ffffffffff85168284613ece565b95945050505050565b60008181613a2a815b62ffffff19841690613f15565b50601884901c6001600160601b0316613a4a5762ffffff195b9250613b56565b6000613a57856000614017565b9050601885901c6001600160601b031667ffffffffffffffff8216613a855762ffffff195b94505050613b56565b6000613a9083614160565b60ff16905060005b8367ffffffffffffffff16811015613b0d57828210613ac25762ffffff195b965050505050613b56565b6000613ae2613ad18486615e77565b60055b62ffffff198c1691906141bc565b9050613aed816141f0565b613af79084615d84565b9250508080613b0590615f16565b915050613a98565b50818114613b255762ffffff195b9550505050613b56565b613b5060065b60d81b7affffffffffffffffffffffffffffffffffffffffffffffff00000089161790565b95505050505b5050919050565b600080613b72613b6d84836139f0565b614245565b905062ffffff198082161415613bca5760405162461bcd60e51b815260206004820152601b60248201527f426974636f696e48656c7065723a20766f7574206973206e756c6c00000000006044820152606401610801565b600080613bd8836000614017565b67ffffffffffffffff16905060005b81811015613c2257613bf98482614338565b9250613c048361444e565b613c0e9086615d9c565b945080613c1a81615f16565b915050613be7565b50505050919050565b600080613c3b613b6d87836139f0565b905062ffffff198082161415613c935760405162461bcd60e51b815260206004820152601b60248201527f426974636f696e48656c7065723a20766f7574206973206e756c6c00000000006044820152606401610801565b6000613c9f8287614338565b90506000613cac82614473565b90506005856005811115613cd057634e487b7160e01b600052602160045260246000fd5b1415613d3557613ce962ffffff198216600260206144c5565b604051602001613cfb91815260200190565b60405160208183030381529060405280519060200120868051906020012014613d25576000613d2e565b613d2e8261444e565b9350613ec3565b6000856005811115613d5757634e487b7160e01b600052602160045260246000fd5b1415613d7057613ce962ffffff198216600160206144c5565b6001856005811115613d9257634e487b7160e01b600052602160045260246000fd5b1415613dd157613da962ffffff198216600361463a565b604051602001613cfb919060609190911b6bffffffffffffffffffffffff1916815260140190565b6002856005811115613df357634e487b7160e01b600052602160045260246000fd5b1415613e0a57613da962ffffff198216600261463a565b6003856005811115613e2c57634e487b7160e01b600052602160045260246000fd5b1415613e4357613da962ffffff198216600261463a565b6004856005811115613e6557634e487b7160e01b600052602160045260246000fd5b1415613ec357613e7e62ffffff198216600260206144c5565b604051602001613e9091815260200190565b60405160208183030381529060405280519060200120868051906020012014613eba576000612c3d565b612c3d8261444e565b505050949350505050565b600080613edb8385615d84565b9050604051811115613eeb575060005b80613efd5762ffffff19915050613f0e565b5050606083811b8317901b811760181b5b9392505050565b6000613f218383614648565b614010576000613f40613f348560d81c90565b64ffffffffff1661466b565b9150506000613f558464ffffffffff1661466b565b6040517f5479706520617373657274696f6e206661696c65642e20476f7420307800000060208201527fffffffffffffffffffff0000000000000000000000000000000000000000000060b086811b8216603d8401527f2e20457870656374656420307800000000000000000000000000000000000000604784015283901b16605482015290925060009150605e015b60405160208183030381529060405290508060405162461bcd60e51b81526004016108019190615aae565b5090919050565b60008061402c62ffffff198516846001614717565b905060fc81116140475761403f81614747565b915050611641565b8060fd14156140ad57614075614070614061856001615d84565b62ffffff1987169060026147cb565b614747565b915061408082614160565b60ff166003146140a8576140a66140a162ffffff198616856003600061491c565b61498c565b505b614159565b8060fe1415614102576140d66140706140c7856001615d84565b62ffffff1987169060046147cb565b91506140e182614160565b60ff166005146140a8576140a66140a162ffffff198616856005600061491c565b8060ff14156141595761412b61407061411c856001615d84565b62ffffff1987169060086147cb565b915061413682614160565b60ff16600914614159576141576140a162ffffff198616856009600061491c565b505b5092915050565b600060fc8267ffffffffffffffff161161417c57506001612032565b61ffff8267ffffffffffffffff161161419757506003612032565b63ffffffff8267ffffffffffffffff16116141b457506005612032565b506009612032565b6000612c4384846141d68760181c6001600160601b031690565b6001600160601b03166141e99190615e77565b858561491c565b60008160056141fe81613a1d565b50600061420c856024614017565b90508067ffffffffffffffff1661422282614160565b60ff1661422f9190615d84565b61423a906024615d84565b613a0b906004615d84565b6000818161425281613a1d565b50601884901c6001600160601b031661426f5762ffffff19613a43565b600061427c856000614017565b9050601885901c6001600160601b031667ffffffffffffffff82166142a55762ffffff19613a7c565b60006142b083614160565b60ff16905060005b8367ffffffffffffffff1681101561431c578282106142db5762ffffff19613ab7565b60006142f16142ea8486615e77565b600e613ad4565b90506142fc81614a13565b6143069084615d84565b925050808061431490615f16565b9150506142b8565b5081811461432e5762ffffff19613b1b565b613b50600f613b2b565b600082600f61434681613a1d565b506000614354866000614017565b67ffffffffffffffff169050601886901c6001600160601b03168186106143bd5760405162461bcd60e51b815260206004820152601160248201527f566f75742072656164206f76657272756e0000000000000000000000000000006044820152606401610801565b60006143c883614160565b60ff1690506000805b8881101561441e576143f56143e68486615e77565b62ffffff198c1690600e6141bc565b915061440082614a13565b61440a9084615d84565b9250614417600182615d84565b90506143d1565b5061442c6142ea8385615e77565b9050600061443982614a13565b9050611dc062ffffff198b168483600d61491c565b600081600d61445c81613a1d565b50612c4361407062ffffff198616600060086147cb565b600081600d61448181613a1d565b50600061448f856008614017565b9050613a0b61449d82614160565b6144a8906008615dc8565b62ffffff1987169060ff1667ffffffffffffffff8416600761491c565b600060ff82166144d757506000613f0e565b6144ea8460181c6001600160601b031690565b6001600160601b031661450060ff841685615d84565b11156145645761454b61451c8560781c6001600160601b031690565b6001600160601b03166145388660181c6001600160601b031690565b6001600160601b0316858560ff16614a5d565b60405162461bcd60e51b81526004016108019190615aae565b60208260ff1611156145de5760405162461bcd60e51b815260206004820152603a60248201527f54797065644d656d566965772f696e646578202d20417474656d70746564207460448201527f6f20696e646578206d6f7265207468616e2033322062797465730000000000006064820152608401610801565b6008820260006145f78660781c6001600160601b031690565b6001600160601b0316905060007f800000000000000000000000000000000000000000000000000000000000000060001984011d91909501511695945050505050565b6000613f0e83836014614717565b60008164ffffffffff1661465c8460d81c90565b64ffffffffff16149392505050565b600080601f5b600f8160ff1611156146c957600061468a826008615e4e565b60ff1685901c905061469b81614bed565b61ffff16841793508160ff166010146146b657601084901b93505b506146c2600182615e8e565b9050614671565b50600f5b60ff8160ff1610156147115760ff600882021684901c6146ec81614bed565b61ffff16831792508160ff1660001461470757601083901b92505b50600019016146cd565b50915091565b6000614724826020615e8e565b61472f906008615e4e565b60ff1661473d8585856144c5565b901c949350505050565b600067ffffffffffffffff8211156147c75760405162461bcd60e51b815260206004820152602660248201527f53616665436173743a2076616c756520646f65736e27742066697420696e203660448201527f34206269747300000000000000000000000000000000000000000000000000006064820152608401610801565b5090565b6000612c436147db8585856144c5565b600881811c7eff00ff00ff00ff00ff00ff00ff00ff00ff00ff00ff00ff00ff00ff00ff00ff167fff00ff00ff00ff00ff00ff00ff00ff00ff00ff00ff00ff00ff00ff00ff00ff009290911b9190911617601081811c7dffff0000ffff0000ffff0000ffff0000ffff0000ffff0000ffff0000ffff167fffff0000ffff0000ffff0000ffff0000ffff0000ffff0000ffff0000ffff00009290911b9190911617602081811c7bffffffff00000000ffffffff00000000ffffffff00000000ffffffff167fffffffff00000000ffffffff00000000ffffffff00000000ffffffff000000009290911b9190911617604081811c77ffffffffffffffff0000000000000000ffffffffffffffff167fffffffffffffffff0000000000000000ffffffffffffffff00000000000000009290911b9190911617608081811c91901b1790565b6000806149328660781c6001600160601b031690565b6001600160601b0316905061494686614c1d565b846149518784615d84565b61495b9190615d84565b111561496e5762ffffff19915050612c43565b6149788582615d84565b9050610b108364ffffffffff168286613ece565b606060006149c06149bb826149ad601887901c6001600160601b0316614c5e565b62ffffff1987169190614717565b61466b565b6040517f4e6f6e2d6d696e696d616c2076617220696e742e20476f74203078000000000060208201526dffffffffffffffffffffffffffff19607083901b16603b82015290925060009150604d01613fe5565b600081600e614a2181613a1d565b506000614a2f856008614017565b90508067ffffffffffffffff16614a4582614160565b60ff16614a529190615d84565b613a0b906008615d84565b60606000614a6a8661466b565b9150506000614a788661466b565b9150506000614a868661466b565b9150506000614a948661466b565b604080517f54797065644d656d566965772f696e646578202d204f76657272616e2074686560208201527f20766965772e20536c6963652069732061742030780000000000000000000000818301527fffffffffffff000000000000000000000000000000000000000000000000000060d098891b811660558301527f2077697468206c656e6774682030780000000000000000000000000000000000605b830181905297891b8116606a8301527f2e20417474656d7074656420746f20696e646578206174206f6666736574203060708301527f7800000000000000000000000000000000000000000000000000000000000000609083015295881b861660918201526097810196909652951b90921660a684015250507f2e0000000000000000000000000000000000000000000000000000000000000060ac8201528151808203608d01815260ad90910190915295945050505050565b6000614bff60048360ff16901c614cd7565b60ff161760081b62ffff0016614c1482614cd7565b60ff1617919050565b6000614c328260181c6001600160601b031690565b614c458360781c6001600160601b031690565b614c4f9190615ded565b6001600160601b031692915050565b600060ff8211156147c75760405162461bcd60e51b815260206004820152602560248201527f53616665436173743a2076616c756520646f65736e27742066697420696e203860448201527f20626974730000000000000000000000000000000000000000000000000000006064820152608401610801565b600060f08083179060ff82161415614cf3576030915050612032565b8060ff1660f11415614d09576031915050612032565b8060ff1660f21415614d1f576032915050612032565b8060ff1660f31415614d35576033915050612032565b8060ff1660f41415614d4b576034915050612032565b8060ff1660f51415614d61576035915050612032565b8060ff1660f61415614d77576036915050612032565b8060ff1660f71415614d8d576037915050612032565b8060ff1660f81415614da3576038915050612032565b8060ff1660f91415614db9576039915050612032565b8060ff1660fa1415614dcf576061915050612032565b8060ff1660fb1415614de5576062915050612032565b8060ff1660fc1415614dfb576063915050612032565b8060ff1660fd1415614e11576064915050612032565b8060ff1660fe1415614e27576065915050612032565b8060ff1660ff1415614e3d576066915050612032565b50919050565b828054614e4f90615ee1565b90600052602060002090601f016020900481019282614e715760008555614eb7565b82601f10614e8a57805160ff1916838001178555614eb7565b82800160010185558215614eb7579182015b82811115614eb7578251825591602001919060010190614e9c565b506147c79291505b808211156147c75760008155600101614ebf565b803561203281615f5d565b60008083601f840112614eef578182fd5b50813567ffffffffffffffff811115614f06578182fd5b6020830191508360208083028501011115614f2057600080fd5b9250929050565b600082601f830112614f37578081fd5b81356020614f4c614f4783615d60565b615d2f565b8281528181019085830183850287018401881015614f68578586fd5b855b85811015614f8d57614f7b82614fff565b84529284019290840190600101614f6a565b5090979650505050505050565b600082601f830112614faa578081fd5b81356020614fba614f4783615d60565b8281528181019085830183850287018401881015614fd6578586fd5b855b85811015614f8d57813584529284019290840190600101614fd8565b803561203281615f72565b80356001600160e01b03198116811461203257600080fd5b60008083601f840112615028578182fd5b50813567ffffffffffffffff81111561503f578182fd5b602083019150836020828501011115614f2057600080fd5b600082601f830112615067578081fd5b813567ffffffffffffffff81111561508157615081615f47565b615094601f8201601f1916602001615d2f565b8181528460208386010111156150a8578283fd5b816020850160208301379081016020019190915292915050565b80356006811061203257600080fd5b6000602082840312156150e2578081fd5b8135613f0e81615f5d565b6000602082840312156150fe578081fd5b8151613f0e81615f5d565b6000806000806000806000806000806000806101208d8f03121561512b578788fd5b6151348d614ed3565b9b5067ffffffffffffffff60208e0135111561514e578788fd5b61515e8e60208f01358f01614ede565b909b50995061516f60408e01614ff4565b985067ffffffffffffffff60608e01351115615189578788fd5b6151998e60608f01358f01614ede565b909850965060808d0135955067ffffffffffffffff60a08e013511156151bd578485fd5b6151cd8e60a08f01358f01615057565b94506151db60c08e016150c2565b935067ffffffffffffffff60e08e013511156151f5578283fd5b6152058e60e08f01358f01615017565b81945080935050506101008d013590509295989b509295989b509295989b565b60008060408385031215615237578182fd5b823561524281615f5d565b946020939093013593505050565b600060208284031215615261578081fd5b8151613f0e81615f72565b6000806040838503121561527e578182fd5b825161528981615f72565b8092505060208084015167ffffffffffffffff8111156152a7578283fd5b8401601f810186136152b7578283fd5b80516152c5614f4782615d60565b81815283810190838501858402850186018a10156152e1578687fd5b8694505b838510156153035780518352600194909401939185019185016152e5565b5080955050505050509250929050565b600060208284031215615324578081fd5b5035919050565b60006020828403121561533c578081fd5b5051919050565b6000806000806000806000806000806101408b8d031215615362578384fd5b61536b8b614fff565b995060208b013567ffffffffffffffff80821115615387578586fd5b6153938e838f01615057565b9a5060408d01359150808211156153a8578586fd5b6153b48e838f01615057565b99506153c260608e01614fff565b985060808d0135975060a08d01359150808211156153de578586fd5b6153ea8e838f01615057565b965060c08d0135955060e08d0135915080821115615406578485fd5b6154128e838f01615057565b94506101008d0135915080821115615428578384fd5b6154348e838f01614f9a565b93506101208d013591508082111561544a578283fd5b506154578d828e01614f9a565b9150509295989b9194979a5092959850565b60008060006040848603121561547d578081fd5b833567ffffffffffffffff80821115615494578283fd5b6154a087838801615017565b909550935060208601359150808211156154b8578283fd5b506154c586828701614f9a565b9150509250925092565b60008060008060008060008060006101208a8c0312156154ed578283fd5b893567ffffffffffffffff80821115615504578485fd5b6155108d838e01615057565b9a5060208c0135915080821115615525578485fd5b6155318d838e01614f27565b995060408c0135915080821115615546578485fd5b6155528d838e01615057565b985060608c0135915080821115615567578485fd5b6155738d838e01615057565b975060808c0135915080821115615588578485fd5b6155948d838e01615057565b965060a08c01359150808211156155a9578485fd5b6155b58d838e01615057565b955060c08c01359150808211156155ca578485fd5b6155d68d838e01614f27565b945060e08c01359150808211156155eb578384fd5b6155f78d838e01615057565b93506101008c013591508082111561560d578283fd5b5061561a8c828d01614f9a565b9150509295985092959850929598565b6000806040838503121561563c578182fd5b82359150602083013561564e81615f5d565b809150509250929050565b60008060008060008060008060006101208a8c031215615677578283fd5b8935985060208a013561568981615f5d565b975060408a013561569981615f5d565b965060608a01356156a981615f5d565b955060808a01356156b981615f5d565b989b979a50959894979660a0860135965060c08601359560e0810135955061010001359350915050565b60008060008060008060a087890312156156fb578384fd5b86359550602087013567ffffffffffffffff80821115615719578586fd5b6157258a838b01615057565b965061573360408a016150c2565b95506060890135915080821115615748578384fd5b5061575589828a01615017565b979a9699509497949695608090950135949350505050565b6000806040838503121561577f578182fd5b50508035926020909101359150565b6000815180845260208085019450808401835b838110156157c75781516001600160e01b031916875295820195908201906001016157a1565b509495945050505050565b6000826060810183835b600381101561580b5783830387526157f583835161586f565b60209788019790935091909101906001016157dc565b509095945050505050565b6000815180845260208085019450808401835b838110156157c757815187529582019590820190600101615829565b60008284528282602086013780602084860101526020601f19601f85011685010190509392505050565b60008151808452615887816020860160208601615eb1565b601f01601f19169290920160200192915050565b600681106158b957634e487b7160e01b600052602160045260246000fd5b9052565b60006001600160e01b0319808716835285516158e0816004860160208a01615eb1565b8551908401906158f7816004840160208a01615eb1565b919094169301600481019390935250506008019392505050565b60008251615923818460208701615eb1565b9190910192915050565b60006001600160a01b038716825285602083015284604083015260a0606083015261595b60a083018561586f565b90508260808301529695505050505050565b6001600160a01b038d1681526000610180602083015261599161018083018e61586f565b82810360408401526159a3818e61578e565b905082810360608401526159b7818d6157d2565b90508a60808401528960a08401526159da60c084018a6001600160a01b03169052565b8760e0840152866101008401528281036101208401526159fa818761578e565b9050828103610140840152615a0f818661586f565b9050828103610160840152615a248185615816565b9f9e505050505050505050505050505050565b60006001600160a01b038716825260a06020830152615a5960a083018761586f565b604083019590955250606081019290925260809091015292915050565b600060208252612c43602083018486615845565b600060408252615a9e604083018587615845565b9050826020830152949350505050565b600060208252613f0e602083018461586f565b600060808252615ad4608083018861586f565b615ae1602084018861589b565b6001600160a01b03861660408401528281036060840152615b03818587615845565b98975050505050505050565b60006101a0808352615b238184018c61586f565b9150506020615b348184018b61589b565b6001600160a01b03808a16604085015288606085015287608085015280871660a08501525060c083018560005b6003811015615b7e57815183529183019190830190600101615b61565b50505061012083018460005b6004811015615ba757815183529183019190830190600101615b8a565b505050509998505050505050505050565b600086825285602083015260a06040830152615bd760a083018661586f565b8281036060840152615be9818661586f565b9150508260808301529695505050505050565b60006101008a83528960208401526001600160a01b0389166040840152806060840152615c2b8184018961586f565b91505085608083015284151560a0830152615c4960c083018561589b565b8260e08301529998505050505050505050565b878152602080820188905260c0604083018190528201869052600090879060e08401835b89811015615cae578335615c9381615f5d565b6001600160a01b031682529282019290820190600101615c80565b506001600160a01b039790971660608501525050506080810192909252151560a090910152949350505050565b60008882528760208301526001600160e01b0319871660408301526001600160a01b038616606083015260e06080830152615d1960e083018661586f565b60a08301949094525060c0015295945050505050565b604051601f8201601f1916810167ffffffffffffffff81118282101715615d5857615d58615f47565b604052919050565b600067ffffffffffffffff821115615d7a57615d7a615f47565b5060209081020190565b60008219821115615d9757615d97615f31565b500190565b600067ffffffffffffffff808316818516808303821115615dbf57615dbf615f31565b01949350505050565b600060ff821660ff84168060ff03821115615de557615de5615f31565b019392505050565b60006001600160601b03808316818516808303821115615dbf57615dbf615f31565b600082615e2a57634e487b7160e01b81526012600452602481fd5b500490565b6000816000190483118215151615615e4957615e49615f31565b500290565b600060ff821660ff84168160ff0481118215151615615e6f57615e6f615f31565b029392505050565b600082821015615e8957615e89615f31565b500390565b600060ff821660ff841680821015615ea857615ea8615f31565b90039392505050565b60005b83811015615ecc578181015183820152602001615eb4565b83811115615edb576000848401525b50505050565b600281046001821680615ef557607f821691505b60208210811415614e3d57634e487b7160e01b600052602260045260246000fd5b6000600019821415615f2a57615f2a615f31565b5060010190565b634e487b7160e01b600052601160045260246000fd5b634e487b7160e01b600052604160045260246000fd5b6001600160a01b0381168114611f2457600080fd5b8015158114611f2457600080fdfea26469706673582212206ab0f023e84026e8c539fdd99faa5c2cf3ce28a24fac9e9b74cf51abbc6b16cd64736f6c63430008020033",
  "libraries": {
    "BurnRouterLib": "0x36Ad0DF8c6633bFa42d7a4A87117B70272ae02ec"
  },
  "devdoc": {
    "kind": "dev",
    "methods": {
      "burnProof(bytes4,bytes,bytes,bytes4,uint256,bytes,uint256,bytes,uint256[],uint256[])": {
        "details": "Makes isTransferred flag true for the paid requests",
        "params": {
          "_blockNumber": "Height of the block containing the Bitcoin tx",
          "_burnReqIndexes": "Indexes of requests that locker wants to provide proof for them",
          "_index": "Index of the Bitcoin tx the block",
          "_intermediateNodes": "Merkle inclusion proof for the Bitcoin tx",
          "_lockerLockingScript": "Locker's locking script that this burn request belongs to",
          "_locktime": "Lock time of the Bitcoin tx",
          "_version": "Version of the Bitcoin tx",
          "_vin": "Inputs of the Bitcoin tx",
          "_vout": "Outputs of the Bitcoin tx",
          "_voutIndexes": "Indexes of outputs that were used to pay burn requests.                      _voutIndexes[i] belongs to _burnReqIndexes[i]"
        }
      },
      "disputeBurn(bytes,uint256[])": {
        "params": {
          "_indices": "Indices of requests that their deadline has passed",
          "_lockerLockingScript": "Locker's locking script that the unpaid request belongs to"
        }
      },
      "disputeLocker(bytes,bytes4[],bytes,bytes,bytes,bytes,bytes4[],bytes,uint256[])": {
        "details": "Input tx is a malicious tx which shows that locker spent BTC      Output tx is the tx that was spent by locker in input tx      Output tx shows money goes to locker      Input tx shows locker steals the funds",
        "params": {
          "_indexesAndBlockNumbers": "Indices of malicious input in input tx,                                 input tx in block and block number of input tx",
          "_inputIntermediateNodes": "Merkle inclusion proof for the malicious transaction",
          "_inputVin": "Inputs of the malicious transaction",
          "_inputVout": "Outputs of the malicious transaction",
          "_lockerLockingScript": "Suspicious locker's locking script",
          "_locktimes": "Locktimes of input and output tx",
          "_outputVin": "Inputs of the spent transaction",
          "_outputVout": "Outputs of the spent transaction",
          "_versions": "Versions of input and output tx"
        }
      },
      "initialize(uint256,address,address,address,address,uint256,uint256,uint256,uint256)": {
        "params": {
          "_lockers": "Address of lockers contract",
          "_networkFee": "Fee of submitting a transaction on Network",
          "_protocolPercentageFee": "Percentage of tokens that user pays to protocol for burning",
          "_relay": "Address of relay contract",
          "_slasherPercentageReward": "Percentage of tokens that slasher receives after slashing a locker",
          "_startingBlockNumber": "Requests that are included in a block older                              than _startingBlockNumber cannot be executed",
          "_teleBTC": "Address of teleBTC contract",
          "_transferDeadline": "of sending BTC to user (aster submitting a burn request)",
          "_treasury": "Address of the treasury of the protocol"
        }
      },
      "isTransferred(address,uint256)": {
        "params": {
          "_index": "the request for the locker",
          "_lockerTargetAddress": "Locker address on the target chain"
        }
      },
      "owner()": {
        "details": "Returns the address of the current owner."
      },
      "renounceOwnership()": {
        "details": "Leaves the contract without owner. It will not be possible to call `onlyOwner` functions anymore. Can only be called by the current owner. NOTE: Renouncing ownership will leave the contract without an owner, thereby removing any functionality that is only available to the owner."
      },
      "setLockers(address)": {
        "details": "Only owner can call this",
        "params": {
          "_lockers": "The new lockers contract address"
        }
      },
      "setNetworkFee(uint256)": {
        "details": "Only owner can call this",
        "params": {
          "_networkFee": "The new Bitcoin transaction fee"
        }
      },
      "setNetworkFeeOracle(address)": {
        "details": "Only owner can call this",
        "params": {
          "_networkFeeOracle": "Address of oracle who can update burn fee"
        }
      },
      "setProtocolPercentageFee(uint256)": {
        "details": "Only owner can call this",
        "params": {
          "_protocolPercentageFee": "The new protocol percentage fee"
        }
      },
      "setRelay(address)": {
        "details": "Only owner can call this",
        "params": {
          "_relay": "The new relay contract address"
        }
      },
      "setSlasherPercentageReward(uint256)": {
        "details": "Only owner can call this",
        "params": {
          "_slasherPercentageReward": "The new slasher percentage reward"
        }
      },
      "setTeleBTC(address)": {
        "details": "Only owner can call this",
        "params": {
          "_teleBTC": "The new teleBTC contract address"
        }
      },
      "setThirdPartyAddress(uint256,address)": {
        "details": "Only owner can call this",
        "params": {
          "_thirdPartyAddress": "third party address"
        }
      },
      "setThirdPartyFee(uint256,uint256)": {
        "details": "Only owner can call this",
        "params": {
          "_thirdPartyFee": "third party fee"
        }
      },
      "setTransferDeadline(uint256)": {
        "details": "Only owner can call this      Deadline should be greater than relay finalization parameter",
        "params": {
          "_transferDeadline": "The new transfer deadline"
        }
      },
      "setTreasury(address)": {
        "details": "Only owner can call this",
        "params": {
          "_treasury": "The new treasury address"
        }
      },
      "swapAndUnwrap(address,uint256[],bool,address[],uint256,bytes,uint8,bytes,uint256)": {
        "details": "After exchanging, rest of the process is similar to ccBurn",
        "params": {
          "_amounts": "[inputTokenAmount, teleBTCAmount]",
          "_deadline": "of exchanging",
          "_exchangeConnector": "Address of exchange connectBurnRouterLogicor to be used",
          "_isFixedToken": "True if input token amount is fixed",
          "_path": "of exchanging inputToken to teleBTC",
          "thirdParty": "Third party id "
        },
        "returns": {
          "_0": "Amount of BTC that user receives"
        }
      },
      "transferOwnership(address)": {
        "details": "Transfers ownership of the contract to a new account (`newOwner`). Can only be called by the current owner."
      },
      "unwrap(uint256,bytes,uint8,bytes,uint256)": {
        "details": "After submitting the burn request, Locker has a limited time      to send BTC and provide burn proof",
        "params": {
          "_amount": "of teleBTC that user wants to burn",
          "_lockerLockingScript": "of locker that should execute the burn request",
          "_scriptType": "User script type",
          "_userScript": "User script hash",
          "thirdParty": "Third party id "
        },
        "returns": {
          "_0": "Amount of BTC that user receives"
        }
      }
    },
    "version": 1
  },
  "userdoc": {
    "events": {
      "LockerDispute(address,bytes,uint256,bytes32,uint256)": {
        "notice": "Emits when a locker gets slashed for withdrawing BTC without proper reason"
      },
      "NewLockers(address,address)": {
        "notice": "Emits when lockers address is updated"
      },
      "NewNetworkFee(uint256,uint256)": {
        "notice": "Emits when network fee is updated"
      },
      "NewNetworkFeeOracle(address,address)": {
        "notice": "Emits when network fee oracle is updated"
      },
      "NewProtocolPercentageFee(uint256,uint256)": {
        "notice": "Emits when percentage fee is updated"
      },
      "NewRelay(address,address)": {
        "notice": "Emits when relay address is updated"
      },
      "NewSlasherPercentageFee(uint256,uint256)": {
        "notice": "Emits when slasher percentage fee is updated"
      },
      "NewTeleBTC(address,address)": {
        "notice": "Emits when TeleBTC address is updated"
      },
      "NewThirdPartyAddress(uint256,address,address)": {
        "notice": "Emits when changes made to third party address"
      },
      "NewThirdPartyFee(uint256,uint256,uint256)": {
        "notice": "Emits when changes made to third party fee"
      },
      "NewTransferDeadline(uint256,uint256)": {
        "notice": "Emits when transfer deadline is updated"
      },
      "NewTreasury(address,address)": {
        "notice": "Emits when treasury address is updated"
      },
      "NewUnwrap(bytes,uint8,address,address,uint256,uint256,uint256,address,uint256[3],uint256[4])": {
        "notice": "Emits when a burn request gets submitted"
      },
      "PaidUnwrap(address,uint256,bytes32,uint256)": {
        "notice": "Emits when a burn proof is provided"
      }
    },
    "kind": "user",
    "methods": {
      "burnProof(bytes4,bytes,bytes,bytes4,uint256,bytes,uint256,bytes,uint256[],uint256[])": {
        "notice": "Checks the correctness of burn proof (which is a Bitcoin tx)"
      },
      "disputeBurn(bytes,uint256[])": {
        "notice": "Slashes a locker if did not pay a cc burn request before its deadline"
      },
      "disputeLocker(bytes,bytes4[],bytes,bytes,bytes,bytes,bytes4[],bytes,uint256[])": {
        "notice": "Slashes a locker if they issue a tx that doesn't match any burn request"
      },
      "initialize(uint256,address,address,address,address,uint256,uint256,uint256,uint256)": {
        "notice": "Handles cross-chain burn requests"
      },
      "isTransferred(address,uint256)": {
        "notice": "Returns true is request has been processed"
      },
      "setLockers(address)": {
        "notice": "Updates lockers contract address"
      },
      "setNetworkFee(uint256)": {
        "notice": "Updates Bitcoin transaction fee"
      },
      "setNetworkFeeOracle(address)": {
        "notice": "Updates Bitcoin oracle"
      },
      "setProtocolPercentageFee(uint256)": {
        "notice": "Updates protocol percentage fee for burning tokens"
      },
      "setRelay(address)": {
        "notice": "Updates relay contract address"
      },
      "setSlasherPercentageReward(uint256)": {
        "notice": "Updates slasher percentage reward for disputing lockers"
      },
      "setStartingBlockNumber(uint256)": {
        "notice": "Setter for starting block number"
      },
      "setTeleBTC(address)": {
        "notice": "Updates teleBTC contract address"
      },
      "setThirdPartyAddress(uint256,address)": {
        "notice": "Setter for third party address"
      },
      "setThirdPartyFee(uint256,uint256)": {
        "notice": "Setter for third party fee"
      },
      "setTransferDeadline(uint256)": {
        "notice": "Updates deadline of executing burn requests"
      },
      "setTreasury(address)": {
        "notice": "Updates protocol treasury address"
      },
      "swapAndUnwrap(address,uint256[],bool,address[],uint256,bytes,uint8,bytes,uint256)": {
        "notice": "Exchanges input token for teleBTC then burns it"
      },
      "unwrap(uint256,bytes,uint8,bytes,uint256)": {
        "notice": "Records users burn request"
      }
    },
    "version": 1
  },
  "storageLayout": {
    "storage": [
      {
        "astId": 20717,
        "contract": "contracts/routers/BurnRouterLogic.sol:BurnRouterLogic",
        "label": "relay",
        "offset": 0,
        "slot": "0",
        "type": "t_address"
      },
      {
        "astId": 20720,
        "contract": "contracts/routers/BurnRouterLogic.sol:BurnRouterLogic",
        "label": "lockers",
        "offset": 0,
        "slot": "1",
        "type": "t_address"
      },
      {
        "astId": 20723,
        "contract": "contracts/routers/BurnRouterLogic.sol:BurnRouterLogic",
        "label": "teleBTC",
        "offset": 0,
        "slot": "2",
        "type": "t_address"
      },
      {
        "astId": 20726,
        "contract": "contracts/routers/BurnRouterLogic.sol:BurnRouterLogic",
        "label": "treasury",
        "offset": 0,
        "slot": "3",
        "type": "t_address"
      },
      {
        "astId": 20729,
        "contract": "contracts/routers/BurnRouterLogic.sol:BurnRouterLogic",
        "label": "bitcoinFeeOracle",
        "offset": 0,
        "slot": "4",
        "type": "t_address"
      },
      {
        "astId": 20732,
        "contract": "contracts/routers/BurnRouterLogic.sol:BurnRouterLogic",
        "label": "startingBlockNumber",
        "offset": 0,
        "slot": "5",
        "type": "t_uint256"
      },
      {
        "astId": 20735,
        "contract": "contracts/routers/BurnRouterLogic.sol:BurnRouterLogic",
        "label": "transferDeadline",
        "offset": 0,
        "slot": "6",
        "type": "t_uint256"
      },
      {
        "astId": 20738,
        "contract": "contracts/routers/BurnRouterLogic.sol:BurnRouterLogic",
        "label": "protocolPercentageFee",
        "offset": 0,
        "slot": "7",
        "type": "t_uint256"
      },
      {
        "astId": 20741,
        "contract": "contracts/routers/BurnRouterLogic.sol:BurnRouterLogic",
        "label": "slasherPercentageReward",
        "offset": 0,
        "slot": "8",
        "type": "t_uint256"
      },
      {
        "astId": 20744,
        "contract": "contracts/routers/BurnRouterLogic.sol:BurnRouterLogic",
        "label": "bitcoinFee",
        "offset": 0,
        "slot": "9",
        "type": "t_uint256"
      },
      {
        "astId": 20750,
        "contract": "contracts/routers/BurnRouterLogic.sol:BurnRouterLogic",
        "label": "burnRequests",
        "offset": 0,
        "slot": "10",
        "type": "t_mapping(t_address,t_array(t_struct(burnRequest)25364_storage)dyn_storage)"
      },
      {
        "astId": 20754,
        "contract": "contracts/routers/BurnRouterLogic.sol:BurnRouterLogic",
        "label": "burnRequestCounter",
        "offset": 0,
        "slot": "11",
        "type": "t_mapping(t_address,t_uint256)"
      },
      {
        "astId": 20759,
        "contract": "contracts/routers/BurnRouterLogic.sol:BurnRouterLogic",
        "label": "isUsedAsBurnProof",
        "offset": 0,
        "slot": "12",
        "type": "t_mapping(t_bytes32,t_bool)"
      },
      {
        "astId": 442,
        "contract": "contracts/routers/BurnRouterLogic.sol:BurnRouterLogic",
        "label": "_initialized",
        "offset": 0,
        "slot": "13",
        "type": "t_uint8"
      },
      {
        "astId": 445,
        "contract": "contracts/routers/BurnRouterLogic.sol:BurnRouterLogic",
        "label": "_initializing",
        "offset": 1,
        "slot": "13",
        "type": "t_bool"
      },
      {
        "astId": 1844,
        "contract": "contracts/routers/BurnRouterLogic.sol:BurnRouterLogic",
        "label": "__gap",
        "offset": 0,
        "slot": "14",
        "type": "t_array(t_uint256)50_storage"
      },
      {
        "astId": 314,
        "contract": "contracts/routers/BurnRouterLogic.sol:BurnRouterLogic",
        "label": "_owner",
        "offset": 0,
        "slot": "64",
        "type": "t_address"
      },
      {
        "astId": 434,
        "contract": "contracts/routers/BurnRouterLogic.sol:BurnRouterLogic",
        "label": "__gap",
        "offset": 0,
        "slot": "65",
        "type": "t_array(t_uint256)49_storage"
      },
      {
        "astId": 745,
        "contract": "contracts/routers/BurnRouterLogic.sol:BurnRouterLogic",
        "label": "_status",
        "offset": 0,
        "slot": "114",
        "type": "t_uint256"
      },
      {
        "astId": 803,
        "contract": "contracts/routers/BurnRouterLogic.sol:BurnRouterLogic",
        "label": "__gap",
        "offset": 0,
        "slot": "115",
        "type": "t_array(t_uint256)49_storage"
      },
      {
        "astId": 20769,
        "contract": "contracts/routers/BurnRouterLogic.sol:BurnRouterLogic",
        "label": "thirdPartyFee",
        "offset": 0,
        "slot": "164",
        "type": "t_mapping(t_uint256,t_uint256)"
      },
      {
        "astId": 20773,
        "contract": "contracts/routers/BurnRouterLogic.sol:BurnRouterLogic",
        "label": "thirdPartyAddress",
        "offset": 0,
        "slot": "165",
        "type": "t_mapping(t_uint256,t_address)"
      }
    ],
    "types": {
      "t_address": {
        "encoding": "inplace",
        "label": "address",
        "numberOfBytes": "20"
      },
      "t_array(t_struct(burnRequest)25364_storage)dyn_storage": {
        "base": "t_struct(burnRequest)25364_storage",
        "encoding": "dynamic_array",
        "label": "struct IBurnRouter.burnRequest[]",
        "numberOfBytes": "32"
      },
      "t_array(t_uint256)49_storage": {
        "base": "t_uint256",
        "encoding": "inplace",
        "label": "uint256[49]",
        "numberOfBytes": "1568"
      },
      "t_array(t_uint256)50_storage": {
        "base": "t_uint256",
        "encoding": "inplace",
        "label": "uint256[50]",
        "numberOfBytes": "1600"
      },
      "t_bool": {
        "encoding": "inplace",
        "label": "bool",
        "numberOfBytes": "1"
      },
      "t_bytes32": {
        "encoding": "inplace",
        "label": "bytes32",
        "numberOfBytes": "32"
      },
      "t_bytes_storage": {
        "encoding": "bytes",
        "label": "bytes",
        "numberOfBytes": "32"
      },
      "t_enum(ScriptTypes)8727": {
        "encoding": "inplace",
        "label": "enum ScriptTypes",
        "numberOfBytes": "1"
      },
      "t_mapping(t_address,t_array(t_struct(burnRequest)25364_storage)dyn_storage)": {
        "encoding": "mapping",
        "key": "t_address",
        "label": "mapping(address => struct IBurnRouter.burnRequest[])",
        "numberOfBytes": "32",
        "value": "t_array(t_struct(burnRequest)25364_storage)dyn_storage"
      },
      "t_mapping(t_address,t_uint256)": {
        "encoding": "mapping",
        "key": "t_address",
        "label": "mapping(address => uint256)",
        "numberOfBytes": "32",
        "value": "t_uint256"
      },
      "t_mapping(t_bytes32,t_bool)": {
        "encoding": "mapping",
        "key": "t_bytes32",
        "label": "mapping(bytes32 => bool)",
        "numberOfBytes": "32",
        "value": "t_bool"
      },
      "t_mapping(t_uint256,t_address)": {
        "encoding": "mapping",
        "key": "t_uint256",
        "label": "mapping(uint256 => address)",
        "numberOfBytes": "32",
        "value": "t_address"
      },
      "t_mapping(t_uint256,t_uint256)": {
        "encoding": "mapping",
        "key": "t_uint256",
        "label": "mapping(uint256 => uint256)",
        "numberOfBytes": "32",
        "value": "t_uint256"
      },
      "t_struct(burnRequest)25364_storage": {
        "encoding": "inplace",
        "label": "struct IBurnRouter.burnRequest",
        "members": [
          {
            "astId": 25348,
            "contract": "contracts/routers/BurnRouterLogic.sol:BurnRouterLogic",
            "label": "amount",
            "offset": 0,
            "slot": "0",
            "type": "t_uint256"
          },
          {
            "astId": 25350,
            "contract": "contracts/routers/BurnRouterLogic.sol:BurnRouterLogic",
            "label": "burntAmount",
            "offset": 0,
            "slot": "1",
            "type": "t_uint256"
          },
          {
            "astId": 25352,
            "contract": "contracts/routers/BurnRouterLogic.sol:BurnRouterLogic",
            "label": "sender",
            "offset": 0,
            "slot": "2",
            "type": "t_address"
          },
          {
            "astId": 25354,
            "contract": "contracts/routers/BurnRouterLogic.sol:BurnRouterLogic",
            "label": "userScript",
            "offset": 0,
            "slot": "3",
            "type": "t_bytes_storage"
          },
          {
            "astId": 25356,
            "contract": "contracts/routers/BurnRouterLogic.sol:BurnRouterLogic",
            "label": "deadline",
            "offset": 0,
            "slot": "4",
            "type": "t_uint256"
          },
          {
            "astId": 25358,
            "contract": "contracts/routers/BurnRouterLogic.sol:BurnRouterLogic",
            "label": "isTransferred",
            "offset": 0,
            "slot": "5",
            "type": "t_bool"
          },
          {
            "astId": 25361,
            "contract": "contracts/routers/BurnRouterLogic.sol:BurnRouterLogic",
            "label": "scriptType",
            "offset": 1,
            "slot": "5",
            "type": "t_enum(ScriptTypes)8727"
          },
          {
            "astId": 25363,
            "contract": "contracts/routers/BurnRouterLogic.sol:BurnRouterLogic",
            "label": "requestIdOfLocker",
            "offset": 0,
            "slot": "6",
            "type": "t_uint256"
          }
        ],
        "numberOfBytes": "224"
      },
      "t_uint256": {
        "encoding": "inplace",
        "label": "uint256",
        "numberOfBytes": "32"
      },
      "t_uint8": {
        "encoding": "inplace",
        "label": "uint8",
        "numberOfBytes": "1"
      }
    }
  }
}