{
  "address": "0x36Ad0DF8c6633bFa42d7a4A87117B70272ae02ec",
  "abi": [
    {
      "inputs": [
        {
          "internalType": "bytes",
          "name": "_userScript",
          "type": "bytes"
        },
        {
          "internalType": "enum ScriptTypes",
          "name": "_scriptType",
          "type": "ScriptTypes"
        },
        {
          "internalType": "address",
          "name": "lockers",
          "type": "address"
        },
        {
          "internalType": "bytes",
          "name": "_lockerLockingScript",
          "type": "bytes"
        }
      ],
      "name": "checkScriptTypeAndLocker",
      "outputs": [],
      "stateMutability": "view",
      "type": "function"
    },
    {
      "inputs": [
        {
          "internalType": "address",
          "name": "_relay",
          "type": "address"
        }
      ],
      "name": "finalizationParameter",
      "outputs": [
        {
          "internalType": "uint256",
          "name": "",
          "type": "uint256"
        }
      ],
      "stateMutability": "view",
      "type": "function"
    },
    {
      "inputs": [
        {
          "internalType": "address",
          "name": "_relay",
          "type": "address"
        },
        {
          "internalType": "uint256",
          "name": "_blockNumber",
          "type": "uint256"
        }
      ],
      "name": "getFinalizedBlockHeaderFee",
      "outputs": [
        {
          "internalType": "uint256",
          "name": "",
          "type": "uint256"
        }
      ],
      "stateMutability": "view",
      "type": "function"
    },
    {
      "inputs": [
        {
          "internalType": "address",
          "name": "_relay",
          "type": "address"
        }
      ],
      "name": "lastSubmittedHeight",
      "outputs": [
        {
          "internalType": "uint256",
          "name": "",
          "type": "uint256"
        }
      ],
      "stateMutability": "view",
      "type": "function"
    }
  ],
  "transactionHash": "0x1cd8027c3c09203fe99bbc9e0b54f94b20ac6ad2c34440af35e1a6b2e5f041b5",
  "args": [],
  "numDeployments": 1,
  "solcInputHash": "d58b1882bfd20cf9913ec7421b51f280",
  "bytecode": "0x61373461003a600b82828239805160001a60731461002d57634e487b7160e01b600052600060045260246000fd5b30600052607381538281f3fe73000000000000000000000000000000000000000030146080604052600436106100c85760003560e01c806369ab4a8f116100805780638d9da599116100655780638d9da599146101c5578063a779a392146101d8578063f8766150146101eb576100c8565b806369ab4a8f146101755780637ebc232714610195576100c8565b8063191e28dc116100b1578063191e28dc14610115578063441d3a211461013557806344922b6414610155576100c8565b806310889dc3146100cd57806315755789146100f3575b600080fd5b6100e06100db366004612d78565b6101fe565b6040519081526020015b60405180910390f35b8180156100ff57600080fd5b5061011361010e36600461314f565b610279565b005b81801561012157600080fd5b5061011361013036600461319c565b6104c7565b81801561014157600080fd5b50610113610150366004612df9565b610552565b81801561016157600080fd5b50610113610170366004613206565b610a45565b81801561018157600080fd5b50610113610190366004612fc4565b610c42565b8180156101a157600080fd5b506101b56101b0366004612d92565b610d1d565b60405190151581526020016100ea565b6100e06101d3366004612f63565b610e2c565b6100e06101e6366004612d78565b610ed0565b6101136101f9366004613097565b610f0b565b6000816001600160a01b0316632f796d906040518163ffffffff1660e01b815260040160206040518083038186803b15801561023957600080fd5b505afa15801561024d573d6000803e3d6000fd5b505050506040513d601f19601f820116820180604052508101906102719190612fac565b90505b919050565b6001600160a01b03851660009081526020879052604090208054859081106102b157634e487b7160e01b600052603260045260246000fd5b600091825260209091206005600790920201015460ff161561031a5760405162461bcd60e51b815260206004820152601d60248201527f4275726e526f757465724c6f6769633a20616c7265616479207061696400000060448201526064015b60405180910390fd5b6001600160a01b038516600090815260208790526040902080548391908690811061035557634e487b7160e01b600052603260045260246000fd5b906000526020600020906007020160040154106103c05760405162461bcd60e51b8152602060048201526024808201527f4275726e526f757465724c6f6769633a20646561646c696e65206e6f742070616044820152631cdcd95960e21b6064820152608401610311565b6103ca8382613593565b6001600160a01b038616600090815260208890526040902080548690811061040257634e487b7160e01b600052603260045260246000fd5b906000526020600020906007020160040154116104615760405162461bcd60e51b815260206004820152601c60248201527f4275726e526f757465724c6f6769633a206f6c642072657175657374000000006044820152606401610311565b6001600160a01b03851660009081526020879052604090208054600191908690811061049d57634e487b7160e01b600052603260045260246000fd5b60009182526020909120600790910201600501805460ff1916911515919091179055505050505050565b60006104d384846110ff565b67ffffffffffffffff16905060006104ea8561123b565b90508115801590610504575080610502876001613593565b145b15610527576000838152602088905260409020805460ff19166001179055610549565b80861415610549576000838152602088905260409020805460ff191660011790555b50505050505050565b60405163aff2faa360e01b81526001600160a01b038d169063aff2faa39061057e908e9060040161352b565b60206040518083038186803b15801561059657600080fd5b505afa1580156105aa573d6000803e3d6000fd5b505050506040513d601f19601f820116820180604052508101906105ce9190612f8c565b61061a5760405162461bcd60e51b815260206004820152601b60248201527f4275726e526f757465724c6f6769633a206e6f74206c6f636b657200000000006044820152606401610311565b8951600214801561062c575082516002145b8015610639575080516003145b6106855760405162461bcd60e51b815260206004820152601d60248201527f4275726e526f757465724c6f6769633a2077726f6e6720696e707574730000006044820152606401610311565b84816002815181106106a757634e487b7160e01b600052603260045260246000fd5b602002602001015110156106fd5760405162461bcd60e51b815260206004820152601c60248201527f4275726e526f757465724c6f6769633a206f6c642072657175657374000000006044820152606401610311565b61075a86858360028151811061072357634e487b7160e01b600052603260045260246000fd5b6020026020010151858560018151811061074d57634e487b7160e01b600052603260045260246000fd5b6020026020010151610d1d565b6107a65760405162461bcd60e51b815260206004820152601e60248201527f4275726e526f757465724c6f6769633a206e6f742066696e616c697a656400006044820152606401610311565b60008481526020899052604090205460ff16156108055760405162461bcd60e51b815260206004820152601d60248201527f4275726e526f757465724c6f6769633a20616c726561647920757365640000006044820152606401610311565b6000848152602089905260409020805460ff1916600117905580518190600290811061084157634e487b7160e01b600052603260045260246000fd5b6020026020010151876108549190613593565b61085d876101fe565b116108b65760405162461bcd60e51b8152602060048201526024808201527f4275726e526f757465724c6f6769633a20646561646c696e65206e6f742070616044820152631cdcd95960e21b6064820152608401610311565b6000806108f18b826020020151846000815181106108e457634e487b7160e01b600052603260045260246000fd5b6020026020010151611269565b9150915061097d8c60018151811061091957634e487b7160e01b600052603260045260246000fd5b60200260200101518c60016003811061094257634e487b7160e01b600052603260045260246000fd5b60200201518d600260200201518860018151811061097057634e487b7160e01b600052603260045260246000fd5b602002602001015161131a565b82146109cb5760405162461bcd60e51b815260206004820181905260248201527f4275726e526f757465724c6f6769633a2077726f6e67206f75747075742074786044820152606401610311565b8c5160208e012060408c01516109e19083611477565b8051906020012014610a355760405162461bcd60e51b815260206004820152601f60248201527f4275726e526f757465724c6f6769633a206e6f7420666f72206c6f636b6572006044820152606401610311565b5050505050505050505050505050565b85871015610a955760405162461bcd60e51b815260206004820152601c60248201527f4275726e526f757465724c6f6769633a206f6c642072657175657374000000006044820152606401610311565b7fffffffff00000000000000000000000000000000000000000000000000000000851615610b2b5760405162461bcd60e51b815260206004820152602360248201527f4275726e526f757465724c6f6769633a206e6f6e2d7a65726f206c6f636b207460448201527f696d6500000000000000000000000000000000000000000000000000000000006064820152608401610311565b60405163aff2faa360e01b81526001600160a01b0385169063aff2faa390610b5790869060040161352b565b60206040518083038186803b158015610b6f57600080fd5b505afa158015610b83573d6000803e3d6000fd5b505050506040513d601f19601f82011682018060405250810190610ba79190612f8c565b610bf35760405162461bcd60e51b815260206004820152601b60248201527f4275726e526f757465724c6f6769633a206e6f74206c6f636b657200000000006044820152606401610311565b8082146105495760405162461bcd60e51b815260206004820152601e60248201527f4275726e526f757465724c6f6769633a2077726f6e6720696e646578657300006044820152606401610311565b600080610c4f8787611269565b91509150610c5f8886868661131a565b8214610cad5760405162461bcd60e51b815260206004820181905260248201527f4275726e526f757465724c6f6769633a2077726f6e67206f75747075742074786044820152606401610311565b885160208a0120610cbe8583611477565b8051906020012014610d125760405162461bcd60e51b815260206004820152601f60248201527f4275726e526f757465724c6f6769633a206e6f7420666f72206c6f636b6572006044820152606401610311565b505050505050505050565b600080610d2a8786610e2c565b905080341015610d7c5760405162461bcd60e51b815260206004820152601560248201527f426974636f696e52656c61793a206c6f772066656500000000000000000000006044820152606401610311565b6000610df78888888888604051602401610d9994939291906134cc565b60408051601f198184030181529190526020810180517bffffffffffffffffffffffffffffffffffffffffffffffffffffffff167f4354da250000000000000000000000000000000000000000000000000000000017905284611513565b9050610e0c33610e078434613624565b611543565b80806020019051810190610e209190612f8c565b98975050505050505050565b6040517fd0a8973900000000000000000000000000000000000000000000000000000000815260048101829052600060248201819052906001600160a01b0384169063d0a897399060440160206040518083038186803b158015610e8f57600080fd5b505afa158015610ea3573d6000803e3d6000fd5b505050506040513d601f19601f82011682018060405250810190610ec79190612fac565b90505b92915050565b6000816001600160a01b031663a072bc506040518163ffffffff1660e01b815260040160206040518083038186803b15801561023957600080fd5b6000846005811115610f2d57634e487b7160e01b600052602160045260246000fd5b1480610f5857506004846005811115610f5657634e487b7160e01b600052602160045260246000fd5b145b80610f8257506005846005811115610f8057634e487b7160e01b600052602160045260246000fd5b145b15610fdd578451602014610fd85760405162461bcd60e51b815260206004820152601f60248201527f4275726e526f757465724c6f6769633a20696e76616c696420736372697074006044820152606401610311565b61102e565b845160141461102e5760405162461bcd60e51b815260206004820152601f60248201527f4275726e526f757465724c6f6769633a20696e76616c696420736372697074006044820152606401610311565b60405163aff2faa360e01b81526001600160a01b0384169063aff2faa39061105c90859085906004016134fc565b60206040518083038186803b15801561107457600080fd5b505afa158015611088573d6000803e3d6000fd5b505050506040513d601f19601f820116820180604052508101906110ac9190612f8c565b6110f85760405162461bcd60e51b815260206004820152601b60248201527f4275726e526f757465724c6f6769633a206e6f74206c6f636b657200000000006044820152606401610311565b5050505050565b600080611116611111825b8690611661565b611685565b905062ffffff19808216141561116e5760405162461bcd60e51b815260206004820152601b60248201527f426974636f696e48656c7065723a20766f7574206973206e756c6c00000000006044820152606401610311565b600080600061117e8460006117ce565b67ffffffffffffffff16905060005b818110156112305761119f8582611917565b93506111aa84611a41565b9250866040516020016111bd9190613321565b604051602081830303815290604052805190602001206111e28462ffffff1916611a93565b6040516020016111f29190613321565b60405160208183030381529060405280519060200120141561121e5761121784611ae3565b9550611230565b806112288161368e565b91505061118d565b505050505092915050565b60008061124b6111118483611661565b90506112588160006117ce565b67ffffffffffffffff169392505050565b6000808061128161127c825b8790611661565b611b08565b905062ffffff1980821614156112d95760405162461bcd60e51b815260206004820152601a60248201527f426974636f696e48656c7065723a2076696e206973206e756c6c0000000000006044820152606401610311565b60006112e58286611bfb565b905060006112f282611d02565b90506112fd81611d26565b945061130881611d48565b63ffffffff1693505050509250929050565b60008061132961127c82611275565b905062ffffff1980821614156113815760405162461bcd60e51b815260206004820152601a60248201527f426974636f696e48656c7065723a2076696e206973206e756c6c0000000000006044820152606401610311565b600060028787878760405160200161139c94939291906132b5565b60408051601f19818403018152908290526113b691613321565b602060405180830381855afa1580156113d3573d6000803e3d6000fd5b5050506040513d601f19601f820116820180604052508101906113f69190612fac565b9050600060028260405160200161140f91815260200190565b60408051601f198184030181529082905261142991613321565b602060405180830381855afa158015611446573d6000803e3d6000fd5b5050506040513d601f19601f820116820180604052508101906114699190612fac565b93505050505b949350505050565b606060006114876111118261110a565b905062ffffff1980821614156114df5760405162461bcd60e51b815260206004820152601b60248201527f426974636f696e48656c7065723a20766f7574206973206e756c6c00000000006044820152606401610311565b60006114eb8285611917565b905060006114f882611a41565b905061150962ffffff198216611a93565b9695505050505050565b60606115398484846040518060600160405280602981526020016136d660299139611d72565b90505b9392505050565b804710156115935760405162461bcd60e51b815260206004820152601d60248201527f416464726573733a20696e73756666696369656e742062616c616e63650000006044820152606401610311565b6000826001600160a01b03168260405160006040518083038185875af1925050503d80600081146115e0576040519150601f19603f3d011682016040523d82523d6000602084013e6115e5565b606091505b505090508061165c5760405162461bcd60e51b815260206004820152603a60248201527f416464726573733a20756e61626c6520746f2073656e642076616c75652c207260448201527f6563697069656e74206d617920686176652072657665727465640000000000006064820152608401610311565b505050565b81516000906020840161167c64ffffffffff85168284611eb1565b95945050505050565b6000818161169b815b62ffffff19841690611ef5565b50601884901c6001600160601b03166116bb5762ffffff195b92506117c7565b60006116c88560006117ce565b9050601885901c6001600160601b031667ffffffffffffffff82166116f65762ffffff195b945050506117c7565b600061170183611ff7565b60ff16905060005b8367ffffffffffffffff1681101561177e578282106117335762ffffff195b9650505050506117c7565b60006117536117428486613624565b600e5b62ffffff198c169190612053565b905061175e81612087565b6117689084613593565b92505080806117769061368e565b915050611709565b508181146117965762ffffff195b95505050506117c7565b6117c1600f5b60d81b7affffffffffffffffffffffffffffffffffffffffffffffff00000089161790565b95505050505b5050919050565b6000806117e362ffffff1985168460016120d1565b905060fc81116117fe576117f681612101565b915050610eca565b8060fd14156118645761182c611827611818856001613593565b62ffffff198716906002612185565b612101565b915061183782611ff7565b60ff1660031461185f5761185d61185862ffffff19861685600360006122d6565b612346565b505b611910565b8060fe14156118b95761188d61182761187e856001613593565b62ffffff198716906004612185565b915061189882611ff7565b60ff1660051461185f5761185d61185862ffffff19861685600560006122d6565b8060ff1415611910576118e26118276118d3856001613593565b62ffffff198716906008612185565b91506118ed82611ff7565b60ff166009146119105761190e61185862ffffff19861685600960006122d6565b505b5092915050565b600082600f6119258161168e565b5060006119338660006117ce565b67ffffffffffffffff169050601886901c6001600160601b031681861061199c5760405162461bcd60e51b815260206004820152601160248201527f566f75742072656164206f76657272756e0000000000000000000000000000006044820152606401610311565b60006119a783611ff7565b60ff1690506000805b888110156119ff576119d66119c58486613624565b600e5b62ffffff198d169190612053565b91506119e182612087565b6119eb9084613593565b92506119f8600182613593565b90506119b0565b50611a0d6117428385613624565b90506000611a1a82612087565b9050611a338382600d5b62ffffff198e169291906122d6565b9a9950505050505050505050565b600081600d611a4f8161168e565b506000611a5d8560086117ce565b905061167c611a6b82611ff7565b611a769060086135ab565b62ffffff1987169060ff1667ffffffffffffffff841660076122d6565b6060600080611aab8460181c6001600160601b031690565b60405193508392506001600160601b03169050611ad284611acd846020613593565b6123cd565b508181016020016040529052919050565b600081600d611af18161168e565b5061146f61182762ffffff19861660006008612185565b60008181611b158161168e565b50601884901c6001600160601b0316611b325762ffffff196116b4565b6000611b3f8560006117ce565b9050601885901c6001600160601b031667ffffffffffffffff8216611b685762ffffff196116ed565b6000611b7383611ff7565b60ff16905060005b8367ffffffffffffffff16811015611bdf57828210611b9e5762ffffff19611728565b6000611bb4611bad8486613624565b6005611745565b9050611bbf81612555565b611bc99084613593565b9250508080611bd79061368e565b915050611b7b565b50818114611bf15762ffffff1961178c565b6117c1600661179c565b6000826006611c098161168e565b506000611c178660006117ce565b67ffffffffffffffff169050601886901c6001600160601b0316818610611c805760405162461bcd60e51b815260206004820152601060248201527f56696e2072656164206f76657272756e000000000000000000000000000000006044820152606401610311565b6000611c8b83611ff7565b60ff1690506000805b88811015611cd957611cb0611ca98486613624565b60056119c8565b9150611cbb82612555565b611cc59084613593565b9250611cd2600182613593565b9050611c94565b50611ce7611bad8385613624565b90506000611cf482612555565b9050611a3383826004611a24565b6000816004611d108161168e565b5061146f62ffffff1985166000602460036122d6565b6000816003611d348161168e565b5061146f62ffffff198516600060206125aa565b6000816003611d568161168e565b5061146f611d6d62ffffff19861660206004612185565b61271f565b606082471015611dea5760405162461bcd60e51b815260206004820152602660248201527f416464726573733a20696e73756666696369656e742062616c616e636520666f60448201527f722063616c6c00000000000000000000000000000000000000000000000000006064820152608401610311565b843b611e385760405162461bcd60e51b815260206004820152601d60248201527f416464726573733a2063616c6c20746f206e6f6e2d636f6e74726163740000006044820152606401610311565b600080866001600160a01b03168587604051611e549190613321565b60006040518083038185875af1925050503d8060008114611e91576040519150601f19603f3d011682016040523d82523d6000602084013e611e96565b606091505b5091509150611ea682828661279b565b979650505050505050565b600080611ebe8385613593565b9050604051811115611ece575060005b80611ee05762ffffff1991505061153c565b5050606092831b9190911790911b1760181b90565b6000611f0183836127d4565b611ff0576000611f20611f148560d81c90565b64ffffffffff166127f7565b9150506000611f358464ffffffffff166127f7565b6040517f5479706520617373657274696f6e206661696c65642e20476f7420307800000060208201527fffffffffffffffffffff0000000000000000000000000000000000000000000060b086811b8216603d8401527f2e20457870656374656420307800000000000000000000000000000000000000604784015283901b16605482015290925060009150605e015b60405160208183030381529060405290508060405162461bcd60e51b8152600401610311919061352b565b5090919050565b600060fc8267ffffffffffffffff161161201357506001610274565b61ffff8267ffffffffffffffff161161202e57506003610274565b63ffffffff8267ffffffffffffffff161161204b57506005610274565b506009610274565b6000611539848461206d8760181c6001600160601b031690565b6001600160601b03166120809190613624565b85856122d6565b600081600e6120958161168e565b5060006120a38560086117ce565b90508067ffffffffffffffff166120b982611ff7565b60ff166120c69190613593565b61167c906008613593565b60006120de82602061363b565b6120e99060086135fb565b60ff166120f78585856125aa565b901c949350505050565b600067ffffffffffffffff8211156121815760405162461bcd60e51b815260206004820152602660248201527f53616665436173743a2076616c756520646f65736e27742066697420696e203660448201527f34206269747300000000000000000000000000000000000000000000000000006064820152608401610311565b5090565b60006115396121958585856125aa565b600881811c7eff00ff00ff00ff00ff00ff00ff00ff00ff00ff00ff00ff00ff00ff00ff00ff167fff00ff00ff00ff00ff00ff00ff00ff00ff00ff00ff00ff00ff00ff00ff00ff009290911b9190911617601081811c7dffff0000ffff0000ffff0000ffff0000ffff0000ffff0000ffff0000ffff167fffff0000ffff0000ffff0000ffff0000ffff0000ffff0000ffff0000ffff00009290911b9190911617602081811c7bffffffff00000000ffffffff00000000ffffffff00000000ffffffff167fffffffff00000000ffffffff00000000ffffffff00000000ffffffff000000009290911b9190911617604081811c77ffffffffffffffff0000000000000000ffffffffffffffff167fffffffffffffffff0000000000000000ffffffffffffffff00000000000000009290911b9190911617608081811c91901b1790565b6000806122ec8660781c6001600160601b031690565b6001600160601b03169050612300866128a3565b8461230b8784613593565b6123159190613593565b11156123285762ffffff1991505061146f565b6123328582613593565b90506115098364ffffffffff168286611eb1565b6060600061237a61237582612367601887901c6001600160601b03166128e4565b62ffffff19871691906120d1565b6127f7565b6040517f4e6f6e2d6d696e696d616c2076617220696e742e20476f74203078000000000060208201526dffffffffffffffffffffffffffff19607083901b16603b82015290925060009150604d01611fc5565b600062ffffff19808416141561244b5760405162461bcd60e51b815260206004820152602860248201527f54797065644d656d566965772f636f7079546f202d204e756c6c20706f696e7460448201527f65722064657265660000000000000000000000000000000000000000000000006064820152608401610311565b6124548361295d565b6124c65760405162461bcd60e51b815260206004820152602b60248201527f54797065644d656d566965772f636f7079546f202d20496e76616c696420706f60448201527f696e7465722064657265660000000000000000000000000000000000000000006064820152608401610311565b60006124db8460181c6001600160601b031690565b6001600160601b0316905060006124fb8560781c6001600160601b031690565b6001600160601b03169050600060405190508481111561251b5760206060fd5b8285848460045afa506115096125318760d81c90565b70ffffffffff000000000000000000000000606091821b168717901b841760181b90565b60008160056125638161168e565b5060006125718560246117ce565b90508067ffffffffffffffff1661258782611ff7565b60ff166125949190613593565b61259f906024613593565b61167c906004613593565b600060ff82166125bc5750600061153c565b6125cf8460181c6001600160601b031690565b6001600160601b03166125e560ff841685613593565b1115612649576126306126018560781c6001600160601b031690565b6001600160601b031661261d8660181c6001600160601b031690565b6001600160601b0316858560ff1661299b565b60405162461bcd60e51b8152600401610311919061352b565b60208260ff1611156126c35760405162461bcd60e51b815260206004820152603a60248201527f54797065644d656d566965772f696e646578202d20417474656d70746564207460448201527f6f20696e646578206d6f7265207468616e2033322062797465730000000000006064820152608401610311565b6008820260006126dc8660781c6001600160601b031690565b6001600160601b0316905060007f800000000000000000000000000000000000000000000000000000000000000060001984011d91909501511695945050505050565b600063ffffffff8211156121815760405162461bcd60e51b815260206004820152602660248201527f53616665436173743a2076616c756520646f65736e27742066697420696e203360448201527f32206269747300000000000000000000000000000000000000000000000000006064820152608401610311565b606083156127aa57508161153c565b8251156127ba5782518084602001fd5b8160405162461bcd60e51b8152600401610311919061352b565b60008164ffffffffff166127e88460d81c90565b64ffffffffff16149392505050565b600080601f5b600f8160ff1611156128555760006128168260086135fb565b60ff1685901c905061282781612a09565b61ffff16841793508160ff1660101461284257601084901b93505b5061284e60018261363b565b90506127fd565b50600f5b60ff8160ff16101561289d5760ff600882021684901c61287881612a09565b61ffff16831792508160ff1660001461289357601083901b92505b5060001901612859565b50915091565b60006128b88260181c6001600160601b031690565b6128cb8360781c6001600160601b031690565b6128d591906135d0565b6001600160601b031692915050565b600060ff8211156121815760405162461bcd60e51b815260206004820152602560248201527f53616665436173743a2076616c756520646f65736e27742066697420696e203860448201527f20626974730000000000000000000000000000000000000000000000000000006064820152608401610311565b60006129698260d81c90565b64ffffffffff1664ffffffffff141561298457506000610274565b600061298f836128a3565b60405110199392505050565b606060006129a8866127f7565b91505060006129b6866127f7565b91505060006129c4866127f7565b91505060006129d2866127f7565b915050838383836040516020016129ec949392919061333d565b604051602081830303815290604052945050505050949350505050565b6000612a1b60048360ff16901c612a39565b60ff161760081b62ffff0016612a3082612a39565b60ff1617919050565b600060f08083179060ff82161415612a55576030915050610274565b8060ff1660f11415612a6b576031915050610274565b8060ff1660f21415612a81576032915050610274565b8060ff1660f31415612a97576033915050610274565b8060ff1660f41415612aad576034915050610274565b8060ff1660f51415612ac3576035915050610274565b8060ff1660f61415612ad9576036915050610274565b8060ff1660f71415612aef576037915050610274565b8060ff1660f81415612b05576038915050610274565b8060ff1660f91415612b1b576039915050610274565b8060ff1660fa1415612b31576061915050610274565b8060ff1660fb1415612b47576062915050610274565b8060ff1660fc1415612b5d576063915050610274565b8060ff1660fd1415612b73576064915050610274565b8060ff1660fe1415612b89576065915050610274565b8060ff1660ff1415612b9f576066915050610274565b50919050565b80356001600160a01b038116811461027457600080fd5b600082601f830112612bcc578081fd5b81356020612be1612bdc8361356f565b61353e565b8281528181019085830183850287018401881015612bfd578586fd5b855b85811015612c2257612c1082612cdd565b84529284019290840190600101612bff565b5090979650505050505050565b600082601f830112612c3f578081fd5b612c49606061353e565b8083835b6003811015612c7857612c638783358801612d0d565b84526020938401939190910190600101612c4d565b509095945050505050565b600082601f830112612c93578081fd5b81356020612ca3612bdc8361356f565b8281528181019085830183850287018401881015612cbf578586fd5b855b85811015612c2257813584529284019290840190600101612cc1565b80357fffffffff000000000000000000000000000000000000000000000000000000008116811461027457600080fd5b600082601f830112612d1d578081fd5b813567ffffffffffffffff811115612d3757612d376136bf565b612d4a601f8201601f191660200161353e565b818152846020838601011115612d5e578283fd5b816020850160208301379081016020019190915292915050565b600060208284031215612d89578081fd5b610ec782612ba5565b600080600080600060a08688031215612da9578081fd5b612db286612ba5565b94506020860135935060408601359250606086013567ffffffffffffffff811115612ddb578182fd5b612de788828901612d0d565b95989497509295608001359392505050565b6000806000806000806000806000806000806101808d8f031215612e1b578687fd5b612e248d612ba5565b9b5067ffffffffffffffff60208e01351115612e3e578687fd5b612e4e8e60208f01358f01612d0d565b9a5067ffffffffffffffff60408e01351115612e68578687fd5b612e788e60408f01358f01612bbc565b995067ffffffffffffffff60608e01351115612e92578687fd5b612ea28e60608f01358f01612c2f565b985060808d0135975060a08d01359650612ebe60c08e01612ba5565b955060e08d013594506101008d0135935067ffffffffffffffff6101208e01351115612ee8578283fd5b612ef98e6101208f01358f01612bbc565b925067ffffffffffffffff6101408e01351115612f14578081fd5b612f258e6101408f01358f01612d0d565b915067ffffffffffffffff6101608e01351115612f40578081fd5b612f518e6101608f01358f01612c83565b90509295989b509295989b509295989b565b60008060408385031215612f75578182fd5b612f7e83612ba5565b946020939093013593505050565b600060208284031215612f9d578081fd5b8151801515811461153c578182fd5b600060208284031215612fbd578081fd5b5051919050565b600080600080600080600060e0888a031215612fde578081fd5b873567ffffffffffffffff80821115612ff5578283fd5b6130018b838c01612d0d565b985061300f60208b01612cdd565b975060408a0135915080821115613024578283fd5b6130308b838c01612d0d565b965060608a0135955060808a013591508082111561304c578283fd5b6130588b838c01612d0d565b945060a08a013591508082111561306d578283fd5b5061307a8a828b01612d0d565b92505061308960c08901612cdd565b905092959891949750929550565b6000806000806000608086880312156130ae578283fd5b853567ffffffffffffffff808211156130c5578485fd5b6130d189838a01612d0d565b965060208801359150600682106130e6578485fd5b8195506130f560408901612ba5565b9450606088013591508082111561310a578283fd5b818801915088601f83011261311d578283fd5b81358181111561312b578384fd5b89602082850101111561313c578384fd5b9699959850939650602001949392505050565b60008060008060008060c08789031215613167578384fd5b8635955061317760208801612ba5565b95989597505050506040840135936060810135936080820135935060a0909101359150565b600080600080600060a086880312156131b3578283fd5b8535945060208601359350604086013567ffffffffffffffff808211156131d8578485fd5b6131e489838a01612d0d565b945060608801359150808211156131f9578283fd5b50612de788828901612d0d565b600080600080600080600060e0888a031215613220578081fd5b873596506020880135955061323760408901612cdd565b945061324560608901612ba5565b9350608088013567ffffffffffffffff811115613260578182fd5b61326c8a828b01612d0d565b93505060a0880135915060c0880135905092959891949750929550565b600081518084526132a181602086016020860161365e565b601f01601f19169290920160200192915050565b60007fffffffff00000000000000000000000000000000000000000000000000000000808716835285516132f0816004860160208a0161365e565b855190840190613307816004840160208a0161365e565b919094169301600481019390935250506008019392505050565b6000825161333381846020870161365e565b9190910192915050565b60007f54797065644d656d566965772f696e646578202d204f76657272616e2074686582527f20766965772e20536c696365206973206174203078000000000000000000000060208301527fffffffffffff0000000000000000000000000000000000000000000000000000808760d01b1660358401527f2077697468206c656e677468203078000000000000000000000000000000000080603b850152818760d01b16604a8501527f2e20417474656d7074656420746f20696e646578206174206f6666736574203060508501527f78000000000000000000000000000000000000000000000000000000000000006070850152613463607185018760d01b7fffffffffffff0000000000000000000000000000000000000000000000000000169052565b60778401525061349a608683018460d01b7fffffffffffff0000000000000000000000000000000000000000000000000000169052565b507f2e00000000000000000000000000000000000000000000000000000000000000608c820152608d01949350505050565b6000858252846020830152608060408301526134eb6080830185613289565b905082606083015295945050505050565b60006020825282602083015282846040840137818301604090810191909152601f909201601f19160101919050565b600060208252610ec76020830184613289565b604051601f8201601f1916810167ffffffffffffffff81118282101715613567576135676136bf565b604052919050565b600067ffffffffffffffff821115613589576135896136bf565b5060209081020190565b600082198211156135a6576135a66136a9565b500190565b600060ff821660ff84168060ff038211156135c8576135c86136a9565b019392505050565b60006001600160601b038083168185168083038211156135f2576135f26136a9565b01949350505050565b600060ff821660ff84168160ff048111821515161561361c5761361c6136a9565b029392505050565b600082821015613636576136366136a9565b500390565b600060ff821660ff841680821015613655576136556136a9565b90039392505050565b60005b83811015613679578181015183820152602001613661565b83811115613688576000848401525b50505050565b60006000198214156136a2576136a26136a9565b5060010190565b634e487b7160e01b600052601160045260246000fd5b634e487b7160e01b600052604160045260246000fdfe416464726573733a206c6f772d6c6576656c2063616c6c20776974682076616c7565206661696c6564a2646970667358221220888721f83ee45a489f95f77332d96c0e5306da4d8da60cc6850ac87985f8e6ff64736f6c63430008020033",
  "devdoc": {
    "kind": "dev",
    "methods": {
      "isConfirmed(address,bytes32,uint256,bytes,uint256)": {
        "details": "Calls the relay contract to check Merkle inclusion proof",
        "params": {
          "_blockNumber": "Height of the block containing the transaction",
          "_index": "Index of transaction in the block",
          "_intermediateNodes": "Merkle inclusion proof for the transaction",
          "_relay": "Address of Relay contract",
          "_txId": "of the transaction"
        },
        "returns": {
          "_0": "True if the transaction was included in the block"
        }
      },
      "updateIsUsedAsBurnProof(mapping(bytes32 => bool) storage,uint256,bytes,bytes,bytes32)": {
        "details": "One output might return the remaining value to the locker",
        "params": {
          "_lockerLockingScript": "Locking script of locker",
          "_paidOutputCounter": "Number of the tx outputs that pay a cc burn request",
          "_txId": "Transaction id",
          "_vout": "Outputs of a transaction"
        }
      }
    },
    "version": 1
  },
  "userdoc": {
    "kind": "user",
    "methods": {
      "checkScriptTypeAndLocker(bytes,ScriptTypes,address,bytes)": {
        "notice": "Checks the user hash script to be valid (based on its type)"
      },
      "isConfirmed(address,bytes32,uint256,bytes,uint256)": {
        "notice": "Checks inclusion of the transaction in the specified block"
      },
      "updateIsUsedAsBurnProof(mapping(bytes32 => bool) storage,uint256,bytes,bytes,bytes32)": {
        "notice": "Checks if all outputs of the transaction used to pay a cc burn request"
      }
    },
    "version": 1
  },
  "storageLayout": {
    "storage": [],
    "types": null
  }
}