{
  "address": "0x10f4d7f7F6bc63AaAC82d9bfE58529cBE9e14b03",
  "abi": [
    {
      "inputs": [
        {
          "internalType": "uint256",
          "name": "_blockNumber",
          "type": "uint256"
        },
        {
          "internalType": "uint256",
          "name": "startingBlockNumber",
          "type": "uint256"
        },
        {
          "internalType": "bytes4",
          "name": "_locktime",
          "type": "bytes4"
        },
        {
          "internalType": "address",
          "name": "lockers",
          "type": "address"
        },
        {
          "internalType": "bytes",
          "name": "_lockerLockingScript",
          "type": "bytes"
        },
        {
          "internalType": "uint256",
          "name": "_burnReqIndexesLength",
          "type": "uint256"
        },
        {
          "internalType": "uint256",
          "name": "_voutIndexesLength",
          "type": "uint256"
        }
      ],
      "name": "burnProofHelper",
      "outputs": [],
      "stateMutability": "view",
      "type": "function"
    },
    {
      "inputs": [
        {
          "internalType": "bytes",
          "name": "_userScript",
          "type": "bytes"
        },
        {
          "internalType": "enum ScriptTypes",
          "name": "_scriptType",
          "type": "ScriptTypes"
        },
        {
          "internalType": "address",
          "name": "lockers",
          "type": "address"
        },
        {
          "internalType": "bytes",
          "name": "_lockerLockingScript",
          "type": "bytes"
        }
      ],
      "name": "checkScriptTypeAndLocker",
      "outputs": [],
      "stateMutability": "view",
      "type": "function"
    },
    {
      "inputs": [
        {
          "internalType": "address",
          "name": "_relay",
          "type": "address"
        }
      ],
      "name": "finalizationParameter",
      "outputs": [
        {
          "internalType": "uint256",
          "name": "",
          "type": "uint256"
        }
      ],
      "stateMutability": "view",
      "type": "function"
    },
    {
      "inputs": [
        {
          "internalType": "address",
          "name": "_relay",
          "type": "address"
        },
        {
          "internalType": "uint256",
          "name": "_blockNumber",
          "type": "uint256"
        }
      ],
      "name": "getFinalizedBlockHeaderFee",
      "outputs": [
        {
          "internalType": "uint256",
          "name": "",
          "type": "uint256"
        }
      ],
      "stateMutability": "view",
      "type": "function"
    },
    {
      "inputs": [
        {
          "internalType": "address",
          "name": "_relay",
          "type": "address"
        }
      ],
      "name": "lastSubmittedHeight",
      "outputs": [
        {
          "internalType": "uint256",
          "name": "",
          "type": "uint256"
        }
      ],
      "stateMutability": "view",
      "type": "function"
    },
    {
      "inputs": [
        {
          "internalType": "bytes",
          "name": "_lockerLockingScript",
          "type": "bytes"
        },
        {
          "internalType": "bytes4",
          "name": "_version",
          "type": "bytes4"
        },
        {
          "internalType": "bytes",
          "name": "_inputVin",
          "type": "bytes"
        },
        {
          "internalType": "uint256",
          "name": "_index",
          "type": "uint256"
        },
        {
          "internalType": "bytes",
          "name": "_outputVin",
          "type": "bytes"
        },
        {
          "internalType": "bytes",
          "name": "_outputVout",
          "type": "bytes"
        },
        {
          "internalType": "bytes4",
          "name": "_locktime",
          "type": "bytes4"
        }
      ],
      "name": "slashLockerHelper",
      "outputs": [],
      "stateMutability": "view",
      "type": "function"
    }
  ],
  "transactionHash": "0x691301ca0a850e4332637ca807aa578d581ec94ffabd16a6d102c29eecfb136f",
  "args": [],
  "numDeployments": 1,
  "solcInputHash": "054867689250c49ea4ca82c7c380df43",
  "bytecode": "0x6132e161003a600b82828239805160001a60731461002d57634e487b7160e01b600052600060045260246000fd5b30600052607381538281f3fe73000000000000000000000000000000000000000030146080604052600436106100985760003560e01c806310889dc31461009d57806315755789146100c3578063191e28dc146100e5578063441d3a211461010557806344922b641461012557806369ab4a8f146101385780637ebc23271461014b5780638d9da5991461017b578063a779a3921461018e578063f8766150146101a1575b600080fd5b6100b06100ab36600461291f565b6101b4565b6040519081526020015b60405180910390f35b8180156100cf57600080fd5b506100e36100de366004612ced565b61022d565b005b8180156100f157600080fd5b506100e3610100366004612d3a565b61040f565b81801561011157600080fd5b506100e361012036600461299f565b610499565b6100e3610133366004612da3565b610890565b6100e3610146366004612b64565b6109fb565b81801561015757600080fd5b5061016b610166366004612939565b610a76565b60405190151581526020016100ba565b6100b0610189366004612b03565b610b4f565b6100b061019c36600461291f565b610bd8565b6100e36101af366004612c36565b610c13565b6000816001600160a01b0316632f796d906040518163ffffffff1660e01b815260040160206040518083038186803b1580156101ef57600080fd5b505afa158015610203573d6000803e3d6000fd5b505050506040513d601f19601f820116820180604052508101906102279190612b4c565b92915050565b6001600160a01b038516600090815260208790526040902080548590811061026557634e487b7160e01b600052603260045260246000fd5b600091825260209091206005600790920201015460ff16156102ce5760405162461bcd60e51b815260206004820152601d60248201527f4275726e526f757465724c6f6769633a20616c7265616479207061696400000060448201526064015b60405180910390fd5b6001600160a01b038516600090815260208790526040902080548391908690811061030957634e487b7160e01b600052603260045260246000fd5b906000526020600020906007020160040154106103385760405162461bcd60e51b81526004016102c590612fd3565b6103428382613140565b6001600160a01b038616600090815260208890526040902080548690811061037a57634e487b7160e01b600052603260045260246000fd5b906000526020600020906007020160040154116103a95760405162461bcd60e51b81526004016102c590613017565b6001600160a01b0385166000908152602087905260409020805460019190869081106103e557634e487b7160e01b600052603260045260246000fd5b60009182526020909120600790910201600501805460ff1916911515919091179055505050505050565b600061041b8484610d77565b6001600160401b03169050600061043185610e88565b9050811580159061044b575080610449876001613140565b145b1561046e576000838152602088905260409020805460ff19166001179055610490565b80861415610490576000838152602088905260409020805460ff191660011790555b50505050505050565b60405163aff2faa360e01b81526001600160a01b038d169063aff2faa3906104c5908e90600401612f1f565b60206040518083038186803b1580156104dd57600080fd5b505afa1580156104f1573d6000803e3d6000fd5b505050506040513d601f19601f820116820180604052508101906105159190612b2c565b6105315760405162461bcd60e51b81526004016102c590612f9e565b89516002148015610543575082516002145b8015610550575080516003145b61059c5760405162461bcd60e51b815260206004820152601d60248201527f4275726e526f757465724c6f6769633a2077726f6e6720696e7075747300000060448201526064016102c5565b84816002815181106105be57634e487b7160e01b600052603260045260246000fd5b602002602001015110156105e45760405162461bcd60e51b81526004016102c590613017565b61064186858360028151811061060a57634e487b7160e01b600052603260045260246000fd5b6020026020010151858560018151811061063457634e487b7160e01b600052603260045260246000fd5b6020026020010151610a76565b61068d5760405162461bcd60e51b815260206004820152601e60248201527f4275726e526f757465724c6f6769633a206e6f742066696e616c697a6564000060448201526064016102c5565b60008481526020899052604090205460ff16156106ec5760405162461bcd60e51b815260206004820152601d60248201527f4275726e526f757465724c6f6769633a20616c7265616479207573656400000060448201526064016102c5565b6000848152602089905260409020805460ff1916600117905580518190600290811061072857634e487b7160e01b600052603260045260246000fd5b60200260200101518761073b9190613140565b610744876101b4565b116107615760405162461bcd60e51b81526004016102c590612fd3565b60008061079c8b8260200201518460008151811061078f57634e487b7160e01b600052603260045260246000fd5b6020026020010151610eb5565b915091506108288c6001815181106107c457634e487b7160e01b600052603260045260246000fd5b60200260200101518c6001600381106107ed57634e487b7160e01b600052603260045260246000fd5b60200201518d600260200201518860018151811061081b57634e487b7160e01b600052603260045260246000fd5b6020026020010151610f3c565b82146108465760405162461bcd60e51b81526004016102c5906130b8565b8c5160208e012060408c015161085c908361106f565b80519060200120146108805760405162461bcd60e51b81526004016102c590613081565b5050505050505050505050505050565b858710156108b05760405162461bcd60e51b81526004016102c590613017565b6001600160e01b03198516156109145760405162461bcd60e51b815260206004820152602360248201527f4275726e526f757465724c6f6769633a206e6f6e2d7a65726f206c6f636b2074604482015262696d6560e81b60648201526084016102c5565b60405163aff2faa360e01b81526001600160a01b0385169063aff2faa390610940908690600401612f1f565b60206040518083038186803b15801561095857600080fd5b505afa15801561096c573d6000803e3d6000fd5b505050506040513d601f19601f820116820180604052508101906109909190612b2c565b6109ac5760405162461bcd60e51b81526004016102c590612f9e565b8082146104905760405162461bcd60e51b815260206004820152601e60248201527f4275726e526f757465724c6f6769633a2077726f6e6720696e6465786573000060448201526064016102c5565b600080610a088787610eb5565b91509150610a1888868686610f3c565b8214610a365760405162461bcd60e51b81526004016102c5906130b8565b885160208a0120610a47858361106f565b8051906020012014610a6b5760405162461bcd60e51b81526004016102c590613081565b505050505050505050565b600080610a838786610b4f565b905080341015610acd5760405162461bcd60e51b8152602060048201526015602482015274426974636f696e52656c61793a206c6f772066656560581b60448201526064016102c5565b6000610b1a8888888888604051602401610aea9493929190612ec0565b60408051601f198184030181529190526020810180516001600160e01b0316634354da2560e01b179052846110e1565b9050610b2f33610b2a84346131d1565b611107565b80806020019051810190610b439190612b2c565b98975050505050505050565b60405163d0a8973960e01b815260048101829052600060248201819052906001600160a01b0384169063d0a897399060440160206040518083038186803b158015610b9957600080fd5b505afa158015610bad573d6000803e3d6000fd5b505050506040513d601f19601f82011682018060405250810190610bd19190612b4c565b9392505050565b6000816001600160a01b031663a072bc506040518163ffffffff1660e01b815260040160206040518083038186803b1580156101ef57600080fd5b6000846005811115610c3557634e487b7160e01b600052602160045260246000fd5b1480610c6057506004846005811115610c5e57634e487b7160e01b600052602160045260246000fd5b145b80610c8a57506005846005811115610c8857634e487b7160e01b600052602160045260246000fd5b145b15610cb5578451602014610cb05760405162461bcd60e51b81526004016102c590612f32565b610cd6565b8451601414610cd65760405162461bcd60e51b81526004016102c590612f32565b60405163aff2faa360e01b81526001600160a01b0384169063aff2faa390610d049085908590600401612ef0565b60206040518083038186803b158015610d1c57600080fd5b505afa158015610d30573d6000803e3d6000fd5b505050506040513d601f19601f82011682018060405250810190610d549190612b2c565b610d705760405162461bcd60e51b81526004016102c590612f9e565b5050505050565b600080610d8e610d89825b8690611222565b611246565b9050610d9f62ffffff19821661139c565b15610dbc5760405162461bcd60e51b81526004016102c590612f69565b6000806000610dcc8460006113a8565b6001600160401b0316905060005b81811015610e7d57610dec85826114f1565b9350610df78461161c565b925086604051602001610e0a9190612ea4565b60405160208183030381529060405280519060200120610e2f8462ffffff191661166d565b604051602001610e3f9190612ea4565b604051602081830303815290604052805190602001201415610e6b57610e64846116b3565b9550610e7d565b80610e758161323b565b915050610dda565b505050505092915050565b600080610e98610d898483611222565b9050610ea58160006113a8565b6001600160401b03169392505050565b60008080610ecd610ec8825b8790611222565b6116d8565b9050610ede62ffffff19821661139c565b15610efb5760405162461bcd60e51b81526004016102c59061304d565b6000610f0782866117d9565b90506000610f14826118e0565b9050610f1f81611904565b9450610f2a81611926565b63ffffffff1693505050509250929050565b600080610f4b610ec882610ec1565b9050610f5c62ffffff19821661139c565b15610f795760405162461bcd60e51b81526004016102c59061304d565b6000600287878787604051602001610f949493929190612e51565b60408051601f1981840301815290829052610fae91612ea4565b602060405180830381855afa158015610fcb573d6000803e3d6000fd5b5050506040513d601f19601f82011682018060405250810190610fee9190612b4c565b9050600060028260405160200161100791815260200190565b60408051601f198184030181529082905261102191612ea4565b602060405180830381855afa15801561103e573d6000803e3d6000fd5b5050506040513d601f19601f820116820180604052508101906110619190612b4c565b93505050505b949350505050565b6060600061107f610d8982610d82565b905061109062ffffff19821661139c565b156110ad5760405162461bcd60e51b81526004016102c590612f69565b60006110b982856114f1565b905060006110c68261161c565b90506110d762ffffff19821661166d565b9695505050505050565b606061106784848460405180606001604052806029815260200161328360299139611950565b804710156111575760405162461bcd60e51b815260206004820152601d60248201527f416464726573733a20696e73756666696369656e742062616c616e636500000060448201526064016102c5565b6000826001600160a01b03168260405160006040518083038185875af1925050503d80600081146111a4576040519150601f19603f3d011682016040523d82523d6000602084013e6111a9565b606091505b505090508061121d5760405162461bcd60e51b815260206004820152603a60248201527f416464726573733a20756e61626c6520746f2073656e642076616c75652c20726044820152791958da5c1a595b9d081b585e481a185d99481c995d995c9d195960321b60648201526084016102c5565b505050565b81516000906020840161123d64ffffffffff85168284611a78565b95945050505050565b6000818161125c815b62ffffff19841690611abc565b5061126c62ffffff198516611b96565b6001600160601b031661128857611281611ba5565b9250611395565b60006112958560006113a8565b905060006112a862ffffff198716611b96565b6001600160601b031690506001600160401b0382166112d2576112c9611ba5565b94505050611395565b60006112dd83611bad565b60ff16905060005b836001600160401b031681101561135b5782821061131057611305611ba5565b965050505050611395565b600061133061131f84866131d1565b600e5b62ffffff198c169190611c0b565b905061133b81611c35565b6113459084613140565b92505080806113539061323b565b9150506112e5565b508181146113755761136b611ba5565b9550505050611395565b61138f600f5b60d81b6301000000600160d81b0389161790565b95505050505b5050919050565b62ffffff199081161490565b6000806113bd62ffffff198516846001611c7e565b905060fc81116113d8576113d081611cae565b915050610227565b8060fd141561143e576114066114016113f2856001613140565b62ffffff198716906002611d1a565b611cae565b915061141182611bad565b60ff166003146114395761143761143262ffffff1986168560036000611e5d565b611ec3565b505b6114ea565b8060fe141561149357611467611401611458856001613140565b62ffffff198716906004611d1a565b915061147282611bad565b60ff166005146114395761143761143262ffffff1986168560056000611e5d565b8060ff14156114ea576114bc6114016114ad856001613140565b62ffffff198716906008611d1a565b91506114c782611bad565b60ff166009146114ea576114e861143262ffffff1986168560096000611e5d565b505b5092915050565b600082600f6114ff8161124f565b50600061150d8660006113a8565b6001600160401b03169050600061152962ffffff198816611b96565b6001600160601b031690508186106115775760405162461bcd60e51b81526020600482015260116024820152702b37baba103932b0b21037bb32b9393ab760791b60448201526064016102c5565b600061158283611bad565b60ff1690506000805b888110156115da576115b16115a084866131d1565b600e5b62ffffff198d169190611c0b565b91506115bc82611c35565b6115c69084613140565b92506115d3600182613140565b905061158b565b506115e861131f83856131d1565b905060006115f582611c35565b905061160e8382600d5b62ffffff198e16929190611e5d565b9a9950505050505050505050565b600081600d61162a8161124f565b5060006116388560086113a8565b905061123d61164682611bad565b611651906008613158565b62ffffff1987169060ff166001600160401b0384166007611e5d565b606060008061167b84611b96565b60405193508392506001600160601b031690506116a28461169d846020613140565b611f4b565b508181016020016040529052919050565b600081600d6116c18161124f565b5061106761140162ffffff19861660006008611d1a565b600081816116e58161124f565b506116f562ffffff198516611b96565b6001600160601b031661170a57611281611ba5565b60006117178560006113a8565b9050600061172a62ffffff198716611b96565b6001600160601b031690506001600160401b03821661174b576112c9611ba5565b600061175683611bad565b60ff16905060005b836001600160401b03168110156117bf5782821061177e57611305611ba5565b600061179461178d84866131d1565b6005611322565b905061179f8161208e565b6117a99084613140565b92505080806117b79061323b565b91505061175e565b508181146117cf5761136b611ba5565b61138f600661137b565b60008260066117e78161124f565b5060006117f58660006113a8565b6001600160401b03169050600061181162ffffff198816611b96565b6001600160601b0316905081861061185e5760405162461bcd60e51b815260206004820152601060248201526f2b34b7103932b0b21037bb32b9393ab760811b60448201526064016102c5565b600061186983611bad565b60ff1690506000805b888110156118b75761188e61188784866131d1565b60056115a3565b91506118998261208e565b6118a39084613140565b92506118b0600182613140565b9050611872565b506118c561178d83856131d1565b905060006118d28261208e565b905061160e838260046115ff565b60008160046118ee8161124f565b5061106762ffffff198516600060246003611e5d565b60008160036119128161124f565b5061106762ffffff198516600060206120e2565b60008160036119348161124f565b5061106761194b62ffffff19861660206004611d1a565b612210565b6060824710156119b15760405162461bcd60e51b815260206004820152602660248201527f416464726573733a20696e73756666696369656e742062616c616e636520666f6044820152651c8818d85b1b60d21b60648201526084016102c5565b843b6119ff5760405162461bcd60e51b815260206004820152601d60248201527f416464726573733a2063616c6c20746f206e6f6e2d636f6e747261637400000060448201526064016102c5565b600080866001600160a01b03168587604051611a1b9190612ea4565b60006040518083038185875af1925050503d8060008114611a58576040519150601f19603f3d011682016040523d82523d6000602084013e611a5d565b606091505b5091509150611a6d828286612275565b979650505050505050565b600080611a858385613140565b9050604051811115611a95575060005b80611aa75762ffffff19915050610bd1565b5050606092831b9190911790911b1760181b90565b6000611ac883836122ae565b611b8f576000611ae7611adb8560d81c90565b64ffffffffff166122d1565b9150506000611afc8464ffffffffff166122d1565b6040517f5479706520617373657274696f6e206661696c65642e20476f7420307800000060208201526001600160b01b031960b086811b8216603d8401526c05c408af0e0cac6e8cac84060f609b1b604784015283901b16605482015290925060009150605e015b60405160208183030381529060405290508060405162461bcd60e51b81526004016102c59190612f1f565b5090919050565b60181c6001600160601b031690565b62ffffff1990565b600060fc826001600160401b031611611bc857506001919050565b61ffff826001600160401b031611611be257506003919050565b63ffffffff826001600160401b031611611bfe57506005919050565b506009919050565b919050565b60006110678484611c1b87611b96565b6001600160601b0316611c2e91906131d1565b8585611e5d565b600081600e611c438161124f565b506000611c518560086113a8565b9050806001600160401b0316611c6682611bad565b60ff16611c739190613140565b61123d906008613140565b6000611c8b8260206131e8565b611c969060086131a8565b60ff16611ca48585856120e2565b901c949350505050565b60006001600160401b03821115611d165760405162461bcd60e51b815260206004820152602660248201527f53616665436173743a2076616c756520646f65736e27742066697420696e203660448201526534206269747360d01b60648201526084016102c5565b5090565b6000611067611d2a8585856120e2565b60008190506008817eff00ff00ff00ff00ff00ff00ff00ff00ff00ff00ff00ff00ff00ff00ff00ff16901b600882901c7eff00ff00ff00ff00ff00ff00ff00ff00ff00ff00ff00ff00ff00ff00ff00ff161790506010817dffff0000ffff0000ffff0000ffff0000ffff0000ffff0000ffff0000ffff16901b601082901c7dffff0000ffff0000ffff0000ffff0000ffff0000ffff0000ffff0000ffff161790506020817bffffffff00000000ffffffff00000000ffffffff00000000ffffffff16901b602082901c7bffffffff00000000ffffffff00000000ffffffff00000000ffffffff161790506040816001600160401b03600160801b03600160c01b0316901b604082901c6001600160401b03600160801b03600160c01b0316179050608081901b608082901c179050919050565b600080611e698661237d565b6001600160601b03169050611e7d8661238c565b84611e888784613140565b611e929190613140565b1115611ea55762ffffff19915050611067565b611eaf8582613140565b90506110d78364ffffffffff168286611a78565b60606000611f01611efc82611eee611ee062ffffff198816611b96565b6001600160601b03166123b9565b62ffffff1987169190611c7e565b6122d1565b6040517a09cdedc5adad2dcd2dac2d840ecc2e440d2dce85c408edee84060f602b1b60208201526001600160701b0319607083901b16603b82015290925060009150604d01611b64565b6000611f568361241a565b611fb35760405162461bcd60e51b815260206004820152602860248201527f54797065644d656d566965772f636f7079546f202d204e756c6c20706f696e7460448201526732b9103232b932b360c11b60648201526084016102c5565b611fbc8361242c565b61201c5760405162461bcd60e51b815260206004820152602b60248201527f54797065644d656d566965772f636f7079546f202d20496e76616c696420706f60448201526a34b73a32b9103232b932b360a91b60648201526084016102c5565b600061202784611b96565b6001600160601b03169050600061203d8561237d565b6001600160601b03169050600060405190508481111561205d5760206060fd5b8285848460045afa506110d76120738760d81c90565b64ffffffffff60601b606091821b168717901b841760181b90565b600081600561209c8161124f565b5060006120aa8560246113a8565b9050806001600160401b03166120bf82611bad565b60ff166120cc9190613140565b6120d7906024613140565b61123d906004613140565b600060ff82166120f457506000610bd1565b6120fd84611b96565b6001600160601b031661211360ff841685613140565b11156121635761214a6121258561237d565b6001600160601b031661213786611b96565b6001600160601b0316858560ff1661246a565b60405162461bcd60e51b81526004016102c59190612f1f565b60208260ff1611156121da5760405162461bcd60e51b815260206004820152603a60248201527f54797065644d656d566965772f696e646578202d20417474656d7074656420746044820152796f20696e646578206d6f7265207468616e20333220627974657360301b60648201526084016102c5565b6008820260006121e98661237d565b6001600160601b031690506000600160ff1b60001984011d91909501511695945050505050565b600063ffffffff821115611d165760405162461bcd60e51b815260206004820152602660248201527f53616665436173743a2076616c756520646f65736e27742066697420696e203360448201526532206269747360d01b60648201526084016102c5565b60608315612284575081610bd1565b8251156122945782518084602001fd5b8160405162461bcd60e51b81526004016102c59190612f1f565b60008164ffffffffff166122c28460d81c90565b64ffffffffff16149392505050565b600080601f5b600f8160ff16111561232f5760006122f08260086131a8565b60ff1685901c905061230181612594565b61ffff16841793508160ff1660101461231c57601084901b93505b506123286001826131e8565b90506122d7565b50600f5b60ff8160ff1610156123775760ff600882021684901c61235281612594565b61ffff16831792508160ff1660001461236d57601083901b92505b5060001901612333565b50915091565b60781c6001600160601b031690565b600061239782611b96565b6123a08361237d565b6123aa919061317d565b6001600160601b031692915050565b600060ff821115611d165760405162461bcd60e51b815260206004820152602560248201527f53616665436173743a2076616c756520646f65736e27742066697420696e2038604482015264206269747360d81b60648201526084016102c5565b60006124258261139c565b1592915050565b60006124388260d81c90565b64ffffffffff1664ffffffffff141561245357506000919050565b600061245e8361238c565b60405110199392505050565b60606000612477866122d1565b9150506000612485866122d1565b9150506000612493866122d1565b91505060006124a1866122d1565b604080517f54797065644d656d566965772f696e646578202d204f76657272616e20746865602082015274040ecd2caee5c40a6d8d2c6ca40d2e640c2e84060f605b1b818301526001600160d01b031960d098891b811660558301526e040eed2e8d040d8cadccee8d04060f608b1b605b830181905297891b8116606a8301527f2e20417474656d7074656420746f20696e646578206174206f666673657420306070830152600f60fb1b609083015295881b861660918201526097810196909652951b90921660a68401525050601760f91b60ac8201528151808203608d01815260ad90910190915295945050505050565b60006125a660048360ff16901c6125c6565b60ff1661ffff919091161760081b6125bd826125c6565b60ff1617919050565b600060f08083179060ff821614156125e15750603092915050565b8060ff1660f114156125f65750603192915050565b8060ff1660f2141561260b5750603292915050565b8060ff1660f314156126205750603392915050565b8060ff1660f414156126355750603492915050565b8060ff1660f5141561264a5750603592915050565b8060ff1660f6141561265f5750603692915050565b8060ff1660f714156126745750603792915050565b8060ff1660f814156126895750603892915050565b8060ff1660f9141561269e5750603992915050565b8060ff1660fa14156126b35750606192915050565b8060ff1660fb14156126c85750606292915050565b8060ff1660fc14156126dd5750606392915050565b8060ff1660fd14156126f25750606492915050565b8060ff1660fe14156127075750606592915050565b8060ff1660ff141561271c5750606692915050565b50919050565b80356001600160a01b0381168114611c0657600080fd5b600082601f830112612749578081fd5b8135602061275e6127598361311d565b6130ed565b80838252828201915082860187848660051b890101111561277d578586fd5b855b858110156127a2576127908261289d565b8452928401929084019060010161277f565b5090979650505050505050565b600082601f8301126127bf578081fd5b604051606081016001600160401b0382821081831117156127e2576127e261326c565b8160405282915084866060870111156127f9578485fd5b845b600381101561283457813583811115612812578687fd5b61281e89828a016128b5565b85525060209384019391909101906001016127fb565b50929695505050505050565b600082601f830112612850578081fd5b813560206128606127598361311d565b80838252828201915082860187848660051b890101111561287f578586fd5b855b858110156127a257813584529284019290840190600101612881565b80356001600160e01b031981168114611c0657600080fd5b600082601f8301126128c5578081fd5b81356001600160401b038111156128de576128de61326c565b6128f1601f8201601f19166020016130ed565b818152846020838601011115612905578283fd5b816020850160208301379081016020019190915292915050565b600060208284031215612930578081fd5b610bd182612722565b600080600080600060a08688031215612950578081fd5b61295986612722565b9450602086013593506040860135925060608601356001600160401b03811115612981578182fd5b61298d888289016128b5565b95989497509295608001359392505050565b6000806000806000806000806000806000806101808d8f0312156129c1578687fd5b6129ca8d612722565b9b506001600160401b0360208e013511156129e3578687fd5b6129f38e60208f01358f016128b5565b9a506001600160401b0360408e01351115612a0c578687fd5b612a1c8e60408f01358f01612739565b99506001600160401b0360608e01351115612a35578687fd5b612a458e60608f01358f016127af565b985060808d0135975060a08d01359650612a6160c08e01612722565b955060e08d013594506101008d013593506001600160401b036101208e01351115612a8a578283fd5b612a9b8e6101208f01358f01612739565b92506001600160401b036101408e01351115612ab5578081fd5b612ac68e6101408f01358f016128b5565b91506001600160401b036101608e01351115612ae0578081fd5b612af18e6101608f01358f01612840565b90509295989b509295989b509295989b565b60008060408385031215612b15578182fd5b612b1e83612722565b946020939093013593505050565b600060208284031215612b3d578081fd5b81518015158114610bd1578182fd5b600060208284031215612b5d578081fd5b5051919050565b600080600080600080600060e0888a031215612b7e578081fd5b87356001600160401b0380821115612b94578283fd5b612ba08b838c016128b5565b9850612bae60208b0161289d565b975060408a0135915080821115612bc3578283fd5b612bcf8b838c016128b5565b965060608a0135955060808a0135915080821115612beb578283fd5b612bf78b838c016128b5565b945060a08a0135915080821115612c0c578283fd5b50612c198a828b016128b5565b925050612c2860c0890161289d565b905092959891949750929550565b600080600080600060808688031215612c4d578283fd5b85356001600160401b0380821115612c63578485fd5b612c6f89838a016128b5565b96506020880135915060068210612c84578485fd5b819550612c9360408901612722565b94506060880135915080821115612ca8578283fd5b818801915088601f830112612cbb578283fd5b813581811115612cc9578384fd5b896020828501011115612cda578384fd5b9699959850939650602001949392505050565b60008060008060008060c08789031215612d05578384fd5b86359550612d1560208801612722565b95989597505050506040840135936060810135936080820135935060a0909101359150565b600080600080600060a08688031215612d51578283fd5b853594506020860135935060408601356001600160401b0380821115612d75578485fd5b612d8189838a016128b5565b94506060880135915080821115612d96578283fd5b5061298d888289016128b5565b600080600080600080600060e0888a031215612dbd578081fd5b8735965060208801359550612dd46040890161289d565b9450612de260608901612722565b935060808801356001600160401b03811115612dfc578182fd5b612e088a828b016128b5565b93505060a0880135915060c0880135905092959891949750929550565b60008151808452612e3d81602086016020860161320b565b601f01601f19169290920160200192915050565b600063ffffffff60e01b80871683528551612e73816004860160208a0161320b565b855190840190612e8a816004840160208a0161320b565b919094169301600481019390935250506008019392505050565b60008251612eb681846020870161320b565b9190910192915050565b848152836020820152608060408201526000612edf6080830185612e25565b905082606083015295945050505050565b60208152816020820152818360408301376000818301604090810191909152601f909201601f19160101919050565b602081526000610bd16020830184612e25565b6020808252601f908201527f4275726e526f757465724c6f6769633a20696e76616c69642073637269707400604082015260600190565b6020808252601b908201527a109a5d18dbda5b92195b1c195c8e881d9bdd5d081a5cc81b9d5b1b602a1b604082015260600190565b6020808252601b908201527a213ab9372937baba32b92637b3b4b19d103737ba103637b1b5b2b960291b604082015260600190565b60208082526024908201527f4275726e526f757465724c6f6769633a20646561646c696e65206e6f742070616040820152631cdcd95960e21b606082015260800190565b6020808252601c908201527b109d5c9b949bdd5d195c931bd9da58ce881bdb19081c995c5d595cdd60221b604082015260600190565b6020808252601a9082015279109a5d18dbda5b92195b1c195c8e881d9a5b881a5cc81b9d5b1b60321b604082015260600190565b6020808252601f908201527f4275726e526f757465724c6f6769633a206e6f7420666f72206c6f636b657200604082015260600190565b6020808252818101527f4275726e526f757465724c6f6769633a2077726f6e67206f7574707574207478604082015260600190565b604051601f8201601f191681016001600160401b03811182821017156131155761311561326c565b604052919050565b60006001600160401b038211156131365761313661326c565b5060051b60200190565b6000821982111561315357613153613256565b500190565b600060ff821660ff84168060ff0382111561317557613175613256565b019392505050565b60006001600160601b0382811684821680830382111561319f5761319f613256565b01949350505050565b600060ff821660ff84168160ff04811182151516156131c9576131c9613256565b029392505050565b6000828210156131e3576131e3613256565b500390565b600060ff821660ff84168082101561320257613202613256565b90039392505050565b60005b8381101561322657818101518382015260200161320e565b83811115613235576000848401525b50505050565b600060001982141561324f5761324f613256565b5060010190565b634e487b7160e01b600052601160045260246000fd5b634e487b7160e01b600052604160045260246000fdfe416464726573733a206c6f772d6c6576656c2063616c6c20776974682076616c7565206661696c6564a26469706673582212208ba848f190a4c8f3ff366ffd57ae62fd0b744ff91201d5733d62d1abd7f83a7d64736f6c63430008040033",
  "devdoc": {
    "kind": "dev",
    "methods": {
      "isConfirmed(address,bytes32,uint256,bytes,uint256)": {
        "details": "Calls the relay contract to check Merkle inclusion proof",
        "params": {
          "_blockNumber": "Height of the block containing the transaction",
          "_index": "Index of transaction in the block",
          "_intermediateNodes": "Merkle inclusion proof for the transaction",
          "_relay": "Address of Relay contract",
          "_txId": "of the transaction"
        },
        "returns": {
          "_0": "True if the transaction was included in the block"
        }
      },
      "updateIsUsedAsBurnProof(mapping(bytes32 => bool) storage,uint256,bytes,bytes,bytes32)": {
        "details": "One output might return the remaining value to the locker",
        "params": {
          "_lockerLockingScript": "Locking script of locker",
          "_paidOutputCounter": "Number of the tx outputs that pay a cc burn request",
          "_txId": "Transaction id",
          "_vout": "Outputs of a transaction"
        }
      }
    },
    "version": 1
  },
  "userdoc": {
    "kind": "user",
    "methods": {
      "checkScriptTypeAndLocker(bytes,ScriptTypes,address,bytes)": {
        "notice": "Checks the user hash script to be valid (based on its type)"
      },
      "isConfirmed(address,bytes32,uint256,bytes,uint256)": {
        "notice": "Checks inclusion of the transaction in the specified block"
      },
      "updateIsUsedAsBurnProof(mapping(bytes32 => bool) storage,uint256,bytes,bytes,bytes32)": {
        "notice": "Checks if all outputs of the transaction used to pay a cc burn request"
      }
    },
    "version": 1
  },
  "storageLayout": {
    "storage": [],
    "types": null
  }
}