{
  "address": "0x9078a39a0433980Ac5aF55074601213aA99d818a",
  "abi": [
    {
      "inputs": [
        {
          "internalType": "bytes",
          "name": "message",
          "type": "bytes"
        },
        {
          "internalType": "bytes32",
          "name": "r",
          "type": "bytes32"
        },
        {
          "internalType": "bytes32",
          "name": "s",
          "type": "bytes32"
        },
        {
          "internalType": "uint8",
          "name": "v",
          "type": "uint8"
        }
      ],
      "name": "_verifySig",
      "outputs": [
        {
          "internalType": "address",
          "name": "",
          "type": "address"
        }
      ],
      "stateMutability": "pure",
      "type": "function"
    }
  ],
  "transactionHash": "0x1a96278a673117300e1ef859b5f603de3c30cad13ad08d7f6a305163b4355783",
  "args": [],
  "numDeployments": 1,
  "solcInputHash": "69a6c07099b56044da2d237d5505ab2c",
  "bytecode": "0x61285a61003a600b82828239805160001a60731461002d57634e487b7160e01b600052600060045260246000fd5b30600052607381538281f3fe73000000000000000000000000000000000000000030146080604052600436106100405760003560e01c806328e25ef214610045578063859f6b8614610075575b600080fd5b61005861005336600461237b565b6100a3565b6040516001600160a01b0390911681526020015b60405180910390f35b81801561008157600080fd5b506100956100903660046123e0565b6101d9565b60405190815260200161006c565b600080858051906020012090506000816040516020016100ee91907b0ca2ba3432b932bab69029b4b3b732b21026b2b9b9b0b3b29d05199960211b8152601c810191909152603c0190565b60408051601f198184030181528282528051602091820120600080855291840180845281905260ff88169284019290925260608301899052608083018890529092509060019060a0016020604051602081039080840390855afa158015610159573d6000803e3d6000fd5b5050604051601f1901519150506001600160a01b0381166101cc5760405162461bcd60e51b815260206004820152602260248201527f506f6c79676f6e436f6e6e6563746f724c6f6769633a20496e76616c69642073604482015261696760f01b60648201526084015b60405180910390fd5b925050505b949350505050565b6000806101f8886000015189602001518a604001518b606001516106b5565b60008181526020899052604090206005015490915060ff161561025d5760405162461bcd60e51b815260206004820152601f60248201527f45786368616e6765526f757465724c69623a20616c726561647920757365640060448201526064016101c3565b6102c760405180610160016040528060008152602001600081526020016000815260200160001515815260200160006001600160a01b0316815260200160008152602001600015158152602001606081526020016000815260200160008152602001600081525090565b60606102d78a604001518761081b565b6001600160401b039091166020840152805190915060411461033b5760405162461bcd60e51b815260206004820152601e60248201527f45786368616e6765526f757465724c69623a20696e76616c6964206c656e000060448201526064016101c3565b600082602001511161038f5760405162461bcd60e51b815260206004820152601d60248201527f45786368616e6765526f757465724c69623a207a65726f20696e70757400000060448201526064016101c3565b61039881610996565b600084815260208a90526040902061ffff9190911690556103b8816109b1565b6103cc9062ffffff1664174876e8006126da565b600084815260208a905260409020600301556103e7816109cc565b600084815260208a90526040902060ff9190911660049091015561040a816109e6565b60ff168252600061041a826109f5565b905061042582610a10565b6001600160701b031660408401526001606084015261044382610a2b565b6001600160a01b03166080840152604080516002808252606082018352909160208301908036833750505060e08401819052805189919060009061049757634e487b7160e01b600052603260045260246000fd5b60200260200101906001600160a01b031690816001600160a01b031681525050808360e001516001815181106104dd57634e487b7160e01b600052603260045260246000fd5b60200260200101906001600160a01b031690816001600160a01b031681525050600061050883610a3b565b62ffffff16905083602001518111156105625760405162461bcd60e51b815260206004820152601c60248201527b45786368616e6765526f757465724c69623a2077726f6e672066656560201b60448201526064016101c3565b60a0840181905261057283610a4b565b60ff16610120850152600160c08501818152600087815260208e8152604091829020885181558189015194810194909455908701516002840155606087015160038401805460808a01516001600160a01b031661010002610100600160a81b0319931515939093166001600160a81b03199091161791909117905560a08701516004840155905160058301805491151560ff199290921691909117905560e0860151805187939261062a92600685019291019061221d565b5061010082015160078201556101208201516008820155610140909101516009909101556106598c8887610a5a565b6106a55760405162461bcd60e51b815260206004820152601d60248201527f45786368616e6765526f757465723a206e6f742066696e616c697a656400000060448201526064016101c3565b50929a9950505050505050505050565b6000806106cc6106c7825b8790610b48565b610b6e565b90506106dd62ffffff198216610cc4565b156107275760405162461bcd60e51b815260206004820152601a602482015279109a5d18dbda5b92195b1c195c8e881d9a5b881a5cc81b9d5b1b60321b60448201526064016101c3565b60006002878787876040516020016107429493929190612547565b60408051601f198184030181529082905261075c9161259a565b602060405180830381855afa158015610779573d6000803e3d6000fd5b5050506040513d601f19601f8201168201806040525081019061079c9190612363565b905060006002826040516020016107b591815260200190565b60408051601f19818403018152908290526107cf9161259a565b602060405180830381855afa1580156107ec573d6000803e3d6000fd5b5050506040513d601f19601f8201168201806040525081019061080f9190612363565b98975050505050505050565b600060608161083161082c826106c0565b610cd0565b905061084262ffffff198216610cc4565b1561088d5760405162461bcd60e51b815260206004820152601b60248201527a109a5d18dbda5b92195b1c195c8e881d9bdd5d081a5cc81b9d5b1b602a1b60448201526064016101c3565b60008060008060006108a0866000610dd1565b6001600160401b0316905060005b81811015610988576108c08782610f1a565b95506108cb8661103f565b94506108d68661109c565b93506108e1846110e6565b925062ffffff1980841614156109645789604051602001610902919061259a565b604051602081830303815290604052805190602001206109278662ffffff1916611208565b604051602001610937919061259a565b60405160208183030381529060405280519060200120141561095f5761095c8661124e565b98505b610976565b61097362ffffff198416611208565b97505b80610980816127b4565b9150506108ae565b505050505050509250929050565b6000806109a68360006001611273565b600201519392505050565b6000806109c183603e6040611273565b600301519392505050565b6000806109db83601b80611273565b600101519392505050565b6000806109db83600280611273565b600080610a0583601c602f611273565b601401519392505050565b600080610a20836030603d611273565b600e01519392505050565b600080610a058360036016611273565b6000806109c18360176019611273565b6000806109db83601a80611273565b600080610a6b8486608001516112f8565b905080341015610aba5760405162461bcd60e51b815260206004820152601a60248201527945786368616e6765526f757465724c69623a206c6f772066656560301b60448201526064016101c3565b6000610b13858588608001518960a001518a60c00151604051602401610ae394939291906125e5565b60408051601f198184030181529190526020810180516001600160e01b0316634354da2560e01b1790528461137a565b9050610b2833610b238434612722565b6113a0565b80806020019051810190610b3c9190612343565b925050505b9392505050565b815160009060208401610b6364ffffffffff851682846114bb565b925050505b92915050565b60008181610b84815b62ffffff198416906114ff565b50610b9462ffffff1985166115d9565b6001600160601b0316610bb057610ba96115e8565b9250610cbd565b6000610bbd856000610dd1565b90506000610bd062ffffff1987166115d9565b6001600160601b031690506001600160401b038216610bfa57610bf16115e8565b94505050610cbd565b6000610c05836115f0565b60ff16905060005b836001600160401b0316811015610c8357828210610c3857610c2d6115e8565b965050505050610cbd565b6000610c58610c478486612722565b60055b62ffffff198c16919061164e565b9050610c6381611678565b610c6d9084612650565b9250508080610c7b906127b4565b915050610c0d565b50818114610c9d57610c936115e8565b9550505050610cbd565b610cb760065b60d81b6301000000600160d81b0389161790565b95505050505b5050919050565b62ffffff199081161490565b60008181610cdd81610b77565b50610ced62ffffff1985166115d9565b6001600160601b0316610d0257610ba96115e8565b6000610d0f856000610dd1565b90506000610d2262ffffff1987166115d9565b6001600160601b031690506001600160401b038216610d4357610bf16115e8565b6000610d4e836115f0565b60ff16905060005b836001600160401b0316811015610db757828210610d7657610c2d6115e8565b6000610d8c610d858486612722565b600e610c4a565b9050610d97816116cc565b610da19084612650565b9250508080610daf906127b4565b915050610d56565b50818114610dc757610c936115e8565b610cb7600f610ca3565b600080610de662ffffff198516846001611715565b905060fc8111610e0157610df981611745565b915050610b68565b8060fd1415610e6757610e2f610e2a610e1b856001612650565b62ffffff1987169060026117b1565b611745565b9150610e3a826115f0565b60ff16600314610e6257610e60610e5b62ffffff19861685600360006118f4565b61195a565b505b610f13565b8060fe1415610ebc57610e90610e2a610e81856001612650565b62ffffff1987169060046117b1565b9150610e9b826115f0565b60ff16600514610e6257610e60610e5b62ffffff19861685600560006118f4565b8060ff1415610f1357610ee5610e2a610ed6856001612650565b62ffffff1987169060086117b1565b9150610ef0826115f0565b60ff16600914610f1357610f11610e5b62ffffff19861685600960006118f4565b505b5092915050565b600082600f610f2881610b77565b506000610f36866000610dd1565b6001600160401b031690506000610f5262ffffff1988166115d9565b6001600160601b03169050818610610fa05760405162461bcd60e51b81526020600482015260116024820152702b37baba103932b0b21037bb32b9393ab760791b60448201526064016101c3565b6000610fab836115f0565b60ff1690506000805b8881101561100157610fd8610fc98486612722565b62ffffff198c1690600e61164e565b9150610fe3826116cc565b610fed9084612650565b9250610ffa600182612650565b9050610fb4565b5061100f610d858385612722565b9050600061101c826116cc565b905061103162ffffff198b168483600d6118f4565b9a9950505050505050505050565b600081600d61104d81610b77565b50600061105b856008610dd1565b9050611093611069826115f0565b611074906008612693565b60ff166001600160401b03831660075b62ffffff1989169291906118f4565b95945050505050565b600081600d6110aa81610b77565b5060006110b8856008610dd1565b90506110936008826110c9846115f0565b60ff166110d69190612668565b6001600160401b03166007611084565b60008160076110f481610b77565b506000611102856000610dd1565b9050600061111c610e2a62ffffff19881660026001611715565b905061113062ffffff198716600180611715565b606a1415806111645750611145600283612739565b6001600160401b031661116162ffffff19881660026001611715565b14155b1561117157610bf16115e8565b604d826001600160401b03161115801561119557506004826001600160401b031610155b6111e15760405162461bcd60e51b815260206004820152601f60248201527f426974636f696e48656c7065723a20696e76616c6964206f7072657475726e0060448201526064016101c3565b6111fe62ffffff19871660036001600160401b038416600c6118f4565b9695505050505050565b6060600080611216846115d9565b60405193508392506001600160601b0316905061123d84611238846020612650565b6119e2565b508181016020016040529052919050565b600081600d61125c81610b77565b506101d1610e2a62ffffff198616600060086117b1565b60606000835b611284846001612650565b8110156112ef578581815181106112ab57634e487b7160e01b600052603260045260246000fd5b602001015160f81c60f81b915082826040516020016112cb9291906125b6565b604051602081830303815290604052925080806112e7906127b4565b915050611279565b50509392505050565b60405163d0a8973960e01b815260048101829052600060248201819052906001600160a01b0384169063d0a897399060440160206040518083038186803b15801561134257600080fd5b505afa158015611356573d6000803e3d6000fd5b505050506040513d601f19601f82011682018060405250810190610b419190612363565b60606101d18484846040518060600160405280602981526020016127fc60299139611b25565b804710156113f05760405162461bcd60e51b815260206004820152601d60248201527f416464726573733a20696e73756666696369656e742062616c616e636500000060448201526064016101c3565b6000826001600160a01b03168260405160006040518083038185875af1925050503d806000811461143d576040519150601f19603f3d011682016040523d82523d6000602084013e611442565b606091505b50509050806114b65760405162461bcd60e51b815260206004820152603a60248201527f416464726573733a20756e61626c6520746f2073656e642076616c75652c20726044820152791958da5c1a595b9d081b585e481a185d99481c995d995c9d195960321b60648201526084016101c3565b505050565b6000806114c88385612650565b90506040518111156114d8575060005b806114ea5762ffffff19915050610b41565b5050606092831b9190911790911b1760181b90565b600061150b8383611c42565b6115d257600061152a61151e8560d81c90565b64ffffffffff16611c65565b915050600061153f8464ffffffffff16611c65565b6040517f5479706520617373657274696f6e206661696c65642e20476f7420307800000060208201526001600160b01b031960b086811b8216603d8401526c05c408af0e0cac6e8cac84060f609b1b604784015283901b16605482015290925060009150605e015b60405160208183030381529060405290508060405162461bcd60e51b81526004016101c39190612615565b5090919050565b60181c6001600160601b031690565b62ffffff1990565b600060fc826001600160401b03161161160b57506001919050565b61ffff826001600160401b03161161162557506003919050565b63ffffffff826001600160401b03161161164157506005919050565b506009919050565b919050565b60006101d1848461165e876115d9565b6001600160601b03166116719190612722565b85856118f4565b600081600561168681610b77565b506000611694856024610dd1565b9050806001600160401b03166116a9826115f0565b60ff166116b69190612650565b6116c1906024612650565b611093906004612650565b600081600e6116da81610b77565b5060006116e8856008610dd1565b9050806001600160401b03166116fd826115f0565b60ff1661170a9190612650565b611093906008612650565b6000611722826020612761565b61172d9060086126f9565b60ff1661173b858585611d11565b901c949350505050565b60006001600160401b038211156117ad5760405162461bcd60e51b815260206004820152602660248201527f53616665436173743a2076616c756520646f65736e27742066697420696e203660448201526534206269747360d01b60648201526084016101c3565b5090565b60006101d16117c1858585611d11565b60008190506008817eff00ff00ff00ff00ff00ff00ff00ff00ff00ff00ff00ff00ff00ff00ff00ff16901b600882901c7eff00ff00ff00ff00ff00ff00ff00ff00ff00ff00ff00ff00ff00ff00ff00ff161790506010817dffff0000ffff0000ffff0000ffff0000ffff0000ffff0000ffff0000ffff16901b601082901c7dffff0000ffff0000ffff0000ffff0000ffff0000ffff0000ffff0000ffff161790506020817bffffffff00000000ffffffff00000000ffffffff00000000ffffffff16901b602082901c7bffffffff00000000ffffffff00000000ffffffff00000000ffffffff161790506040816001600160401b03600160801b03600160c01b0316901b604082901c6001600160401b03600160801b03600160c01b0316179050608081901b608082901c179050919050565b60008061190086611e3f565b6001600160601b0316905061191486611e4e565b8461191f8784612650565b6119299190612650565b111561193c5762ffffff199150506101d1565b6119468582612650565b90506111fe8364ffffffffff1682866114bb565b606060006119986119938261198561197762ffffff1988166115d9565b6001600160601b0316611e7b565b62ffffff1987169190611715565b611c65565b6040517a09cdedc5adad2dcd2dac2d840ecc2e440d2dce85c408edee84060f602b1b60208201526001600160701b0319607083901b16603b82015290925060009150604d016115a7565b60006119ed83611edc565b611a4a5760405162461bcd60e51b815260206004820152602860248201527f54797065644d656d566965772f636f7079546f202d204e756c6c20706f696e7460448201526732b9103232b932b360c11b60648201526084016101c3565b611a5383611eee565b611ab35760405162461bcd60e51b815260206004820152602b60248201527f54797065644d656d566965772f636f7079546f202d20496e76616c696420706f60448201526a34b73a32b9103232b932b360a91b60648201526084016101c3565b6000611abe846115d9565b6001600160601b031690506000611ad485611e3f565b6001600160601b031690506000604051905084811115611af45760206060fd5b8285848460045afa506111fe611b0a8760d81c90565b64ffffffffff60601b606091821b168717901b841760181b90565b606082471015611b865760405162461bcd60e51b815260206004820152602660248201527f416464726573733a20696e73756666696369656e742062616c616e636520666f6044820152651c8818d85b1b60d21b60648201526084016101c3565b843b611bd45760405162461bcd60e51b815260206004820152601d60248201527f416464726573733a2063616c6c20746f206e6f6e2d636f6e747261637400000060448201526064016101c3565b600080866001600160a01b03168587604051611bf0919061259a565b60006040518083038185875af1925050503d8060008114611c2d576040519150601f19603f3d011682016040523d82523d6000602084013e611c32565b606091505b50915091506101cc828286611f2c565b60008164ffffffffff16611c568460d81c90565b64ffffffffff16149392505050565b600080601f5b600f8160ff161115611cc3576000611c848260086126f9565b60ff1685901c9050611c9581611f65565b61ffff16841793508160ff16601014611cb057601084901b93505b50611cbc600182612761565b9050611c6b565b50600f5b60ff8160ff161015611d0b5760ff600882021684901c611ce681611f65565b61ffff16831792508160ff16600014611d0157601083901b92505b5060001901611cc7565b50915091565b600060ff8216611d2357506000610b41565b611d2c846115d9565b6001600160601b0316611d4260ff841685612650565b1115611d9257611d79611d5485611e3f565b6001600160601b0316611d66866115d9565b6001600160601b0316858560ff16611f97565b60405162461bcd60e51b81526004016101c39190612615565b60208260ff161115611e095760405162461bcd60e51b815260206004820152603a60248201527f54797065644d656d566965772f696e646578202d20417474656d7074656420746044820152796f20696e646578206d6f7265207468616e20333220627974657360301b60648201526084016101c3565b600882026000611e1886611e3f565b6001600160601b031690506000600160ff1b60001984011d91909501511695945050505050565b60781c6001600160601b031690565b6000611e59826115d9565b611e6283611e3f565b611e6c91906126b8565b6001600160601b031692915050565b600060ff8211156117ad5760405162461bcd60e51b815260206004820152602560248201527f53616665436173743a2076616c756520646f65736e27742066697420696e2038604482015264206269747360d81b60648201526084016101c3565b6000611ee782610cc4565b1592915050565b6000611efa8260d81c90565b64ffffffffff1664ffffffffff1415611f1557506000919050565b6000611f2083611e4e565b60405110199392505050565b60608315611f3b575081610b41565b825115611f4b5782518084602001fd5b8160405162461bcd60e51b81526004016101c39190612615565b6000611f7760048360ff16901c6120c1565b60ff1661ffff919091161760081b611f8e826120c1565b60ff1617919050565b60606000611fa486611c65565b9150506000611fb286611c65565b9150506000611fc086611c65565b9150506000611fce86611c65565b604080517f54797065644d656d566965772f696e646578202d204f76657272616e20746865602082015274040ecd2caee5c40a6d8d2c6ca40d2e640c2e84060f605b1b818301526001600160d01b031960d098891b811660558301526e040eed2e8d040d8cadccee8d04060f608b1b605b830181905297891b8116606a8301527f2e20417474656d7074656420746f20696e646578206174206f666673657420306070830152600f60fb1b609083015295881b861660918201526097810196909652951b90921660a68401525050601760f91b60ac8201528151808203608d01815260ad90910190915295945050505050565b600060f08083179060ff821614156120dc5750603092915050565b8060ff1660f114156120f15750603192915050565b8060ff1660f214156121065750603292915050565b8060ff1660f3141561211b5750603392915050565b8060ff1660f414156121305750603492915050565b8060ff1660f514156121455750603592915050565b8060ff1660f6141561215a5750603692915050565b8060ff1660f7141561216f5750603792915050565b8060ff1660f814156121845750603892915050565b8060ff1660f914156121995750603992915050565b8060ff1660fa14156121ae5750606192915050565b8060ff1660fb14156121c35750606292915050565b8060ff1660fc14156121d85750606392915050565b8060ff1660fd14156121ed5750606492915050565b8060ff1660fe14156122025750606592915050565b8060ff1660ff14156122175750606692915050565b50919050565b828054828255906000526020600020908101928215612272579160200282015b8281111561227257825182546001600160a01b0319166001600160a01b0390911617825560209092019160019091019061223d565b506117ad9291505b808211156117ad576000815560010161227a565b80356001600160a01b038116811461164957600080fd5b80356001600160e01b03198116811461164957600080fd5b600082601f8301126122cd578081fd5b81356001600160401b03808211156122e7576122e76127e5565b604051601f8301601f19908116603f0116810190828211818310171561230f5761230f6127e5565b81604052838152866020858801011115612327578485fd5b8360208701602083013792830160200193909352509392505050565b600060208284031215612354578081fd5b81518015158114610b41578182fd5b600060208284031215612374578081fd5b5051919050565b60008060008060808587031215612390578283fd5b84356001600160401b038111156123a5578384fd5b6123b1878288016122bd565b9450506020850135925060408501359150606085013560ff811681146123d5578182fd5b939692955090935050565b60008060008060008060c087890312156123f8578182fd5b86356001600160401b038082111561240e578384fd5b9088019060e0828b031215612421578384fd5b612429612628565b612432836122a5565b8152602083013582811115612445578586fd5b6124518c8286016122bd565b602083015250604083013582811115612468578586fd5b6124748c8286016122bd565b604083015250612486606084016122a5565b60608201526080830135608082015260a0830135828111156124a6578586fd5b6124b28c8286016122bd565b60a08301525060c08381013590820152975060208901359650604089013595506124de60608a0161228e565b945060808901359150808211156124f3578384fd5b5061250089828a016122bd565b92505061250f60a0880161228e565b90509295509295509295565b60008151808452612533816020860160208601612784565b601f01601f19169290920160200192915050565b600063ffffffff60e01b80871683528551612569816004860160208a01612784565b855190840190612580816004840160208a01612784565b919094169301600481019390935250506008019392505050565b600082516125ac818460208701612784565b9190910192915050565b600083516125c8818460208801612784565b6001600160f81b0319939093169190920190815260010192915050565b848152836020820152608060408201526000612604608083018561251b565b905082606083015295945050505050565b602081526000610b41602083018461251b565b60405160e081016001600160401b038111828210171561264a5761264a6127e5565b60405290565b60008219821115612663576126636127cf565b500190565b60006001600160401b0380831681851680830382111561268a5761268a6127cf565b01949350505050565b600060ff821660ff84168060ff038211156126b0576126b06127cf565b019392505050565b60006001600160601b0382811684821680830382111561268a5761268a6127cf565b60008160001904831182151516156126f4576126f46127cf565b500290565b600060ff821660ff84168160ff048111821515161561271a5761271a6127cf565b029392505050565b600082821015612734576127346127cf565b500390565b60006001600160401b0383811690831681811015612759576127596127cf565b039392505050565b600060ff821660ff84168082101561277b5761277b6127cf565b90039392505050565b60005b8381101561279f578181015183820152602001612787565b838111156127ae576000848401525b50505050565b60006000198214156127c8576127c86127cf565b5060010190565b634e487b7160e01b600052601160045260246000fd5b634e487b7160e01b600052604160045260246000fdfe416464726573733a206c6f772d6c6576656c2063616c6c20776974682076616c7565206661696c6564a2646970667358221220e90fa4ac4d733df2e109e5737420cd0f66b85554084f3229311b6d0de4a3a11c64736f6c63430008040033",
  "devdoc": {
    "kind": "dev",
    "methods": {
      "_verifySig(bytes,bytes32,bytes32,uint8)": {
        "returns": {
          "_0": "_signer Address of message signer (if signature is valid)"
        }
      }
    },
    "version": 1
  },
  "userdoc": {
    "kind": "user",
    "methods": {
      "_verifySig(bytes,bytes32,bytes32,uint8)": {
        "notice": "Verifies the signature of _msgHash"
      },
      "ccExchangeHelper(ICcExchangeRouter.TxAndProof,mapping(bytes32 => ICcExchangeRouter.ccExchangeRequest) storage,mapping(bytes32 => ICcExchangeRouter.extendedCcExchangeRequest) storage,address,bytes,address)": {
        "notice": "Parses and stores exchange request if it's valid"
      }
    },
    "version": 1
  },
  "storageLayout": {
    "storage": [],
    "types": null
  }
}