{
  "address": "0x69007e44de42752ad03ebecb092d3b1a6e118bfe",
  "abi": [
    {
      "anonymous": false,
      "inputs": [
        {
          "indexed": false,
          "internalType": "address",
          "name": "oldAcross",
          "type": "address"
        },
        {
          "indexed": false,
          "internalType": "address",
          "name": "newAcross",
          "type": "address"
        }
      ],
      "name": "AcrossUpdated",
      "type": "event"
    },
    {
      "anonymous": false,
      "inputs": [
        {
          "indexed": false,
          "internalType": "address",
          "name": "oldBurnRouter",
          "type": "address"
        },
        {
          "indexed": false,
          "internalType": "address",
          "name": "newBurnRouter",
          "type": "address"
        }
      ],
      "name": "BurnRouterUpdated",
      "type": "event"
    },
    {
      "anonymous": false,
      "inputs": [
        {
          "indexed": false,
          "internalType": "uint256",
          "name": "newChain",
          "type": "uint256"
        }
      ],
      "name": "ChainAdded",
      "type": "event"
    },
    {
      "anonymous": false,
      "inputs": [
        {
          "indexed": false,
          "internalType": "uint256",
          "name": "oldChain",
          "type": "uint256"
        }
      ],
      "name": "ChainRemoved",
      "type": "event"
    },
    {
      "anonymous": false,
      "inputs": [
        {
          "indexed": false,
          "internalType": "address",
          "name": "lockerTargetAddress",
          "type": "address"
        },
        {
          "indexed": true,
          "internalType": "address",
          "name": "recipientAddress",
          "type": "address"
        },
        {
          "indexed": false,
          "internalType": "address[2]",
          "name": "inputAndOutputToken",
          "type": "address[2]"
        },
        {
          "indexed": false,
          "internalType": "uint256[2]",
          "name": "inputAndOutputAmount",
          "type": "uint256[2]"
        },
        {
          "indexed": true,
          "internalType": "uint256",
          "name": "speed",
          "type": "uint256"
        },
        {
          "indexed": true,
          "internalType": "address",
          "name": "teleporter",
          "type": "address"
        },
        {
          "indexed": false,
          "internalType": "bytes32",
          "name": "bitcoinTxId",
          "type": "bytes32"
        },
        {
          "indexed": false,
          "internalType": "uint256",
          "name": "appId",
          "type": "uint256"
        },
        {
          "indexed": false,
          "internalType": "uint256",
          "name": "thirdPartyId",
          "type": "uint256"
        },
        {
          "indexed": false,
          "internalType": "uint256[5]",
          "name": "fees",
          "type": "uint256[5]"
        },
        {
          "indexed": false,
          "internalType": "uint256",
          "name": "destinationChainId",
          "type": "uint256"
        }
      ],
      "name": "FailedWrapAndSwap",
      "type": "event"
    },
    {
      "anonymous": false,
      "inputs": [
        {
          "indexed": false,
          "internalType": "bytes32",
          "name": "txId",
          "type": "bytes32"
        },
        {
          "indexed": false,
          "internalType": "uint256",
          "name": "time",
          "type": "uint256"
        }
      ],
      "name": "FillStarted",
      "type": "event"
    },
    {
      "anonymous": false,
      "inputs": [
        {
          "indexed": false,
          "internalType": "uint256",
          "name": "amount",
          "type": "uint256"
        },
        {
          "indexed": false,
          "internalType": "uint256",
          "name": "remainingAmount",
          "type": "uint256"
        },
        {
          "indexed": false,
          "internalType": "address",
          "name": "token",
          "type": "address"
        },
        {
          "indexed": false,
          "internalType": "address",
          "name": "filler",
          "type": "address"
        },
        {
          "indexed": false,
          "internalType": "uint256",
          "name": "fillIdx",
          "type": "uint256"
        },
        {
          "indexed": false,
          "internalType": "bytes32",
          "name": "txId",
          "type": "bytes32"
        },
        {
          "indexed": false,
          "internalType": "uint256",
          "name": "reqMintedTeleBtc",
          "type": "uint256"
        },
        {
          "indexed": false,
          "internalType": "uint256",
          "name": "sentTeleBtc",
          "type": "uint256"
        }
      ],
      "name": "FillTeleBtcSent",
      "type": "event"
    },
    {
      "anonymous": false,
      "inputs": [
        {
          "indexed": false,
          "internalType": "uint256",
          "name": "amount",
          "type": "uint256"
        },
        {
          "indexed": false,
          "internalType": "address",
          "name": "token",
          "type": "address"
        },
        {
          "indexed": false,
          "internalType": "address",
          "name": "filler",
          "type": "address"
        },
        {
          "indexed": false,
          "internalType": "uint256",
          "name": "fillIdx",
          "type": "uint256"
        },
        {
          "indexed": false,
          "internalType": "bytes32",
          "name": "txId",
          "type": "bytes32"
        }
      ],
      "name": "FillTokensReturned",
      "type": "event"
    },
    {
      "anonymous": false,
      "inputs": [
        {
          "indexed": false,
          "internalType": "uint8",
          "name": "version",
          "type": "uint8"
        }
      ],
      "name": "Initialized",
      "type": "event"
    },
    {
      "anonymous": false,
      "inputs": [
        {
          "indexed": false,
          "internalType": "uint256",
          "name": "mappedId",
          "type": "uint256"
        },
        {
          "indexed": false,
          "internalType": "uint256",
          "name": "middleChain",
          "type": "uint256"
        },
        {
          "indexed": false,
          "internalType": "uint256",
          "name": "destinationChain",
          "type": "uint256"
        }
      ],
      "name": "NewChainIdMapping",
      "type": "event"
    },
    {
      "anonymous": false,
      "inputs": [
        {
          "indexed": false,
          "internalType": "address",
          "name": "filler",
          "type": "address"
        },
        {
          "indexed": false,
          "internalType": "bytes32",
          "name": "txId",
          "type": "bytes32"
        },
        {
          "indexed": false,
          "internalType": "address",
          "name": "token",
          "type": "address"
        },
        {
          "indexed": false,
          "internalType": "uint256",
          "name": "amount",
          "type": "uint256"
        }
      ],
      "name": "NewFill",
      "type": "event"
    },
    {
      "anonymous": false,
      "inputs": [
        {
          "indexed": false,
          "internalType": "uint256",
          "name": "oldFillerWithdrawInterval",
          "type": "uint256"
        },
        {
          "indexed": false,
          "internalType": "uint256",
          "name": "newFillerWithdrawInterval",
          "type": "uint256"
        }
      ],
      "name": "NewFillerWithdrawInterval",
      "type": "event"
    },
    {
      "anonymous": false,
      "inputs": [
        {
          "indexed": false,
          "internalType": "address",
          "name": "oldInstantRouter",
          "type": "address"
        },
        {
          "indexed": false,
          "internalType": "address",
          "name": "newInstantRouter",
          "type": "address"
        }
      ],
      "name": "NewInstantRouter",
      "type": "event"
    },
    {
      "anonymous": false,
      "inputs": [
        {
          "indexed": false,
          "internalType": "address",
          "name": "oldLockers",
          "type": "address"
        },
        {
          "indexed": false,
          "internalType": "address",
          "name": "newLockers",
          "type": "address"
        }
      ],
      "name": "NewLockers",
      "type": "event"
    },
    {
      "anonymous": false,
      "inputs": [
        {
          "indexed": false,
          "internalType": "uint256",
          "name": "oldProtocolPercentageFee",
          "type": "uint256"
        },
        {
          "indexed": false,
          "internalType": "uint256",
          "name": "newProtocolPercentageFee",
          "type": "uint256"
        }
      ],
      "name": "NewProtocolPercentageFee",
      "type": "event"
    },
    {
      "anonymous": false,
      "inputs": [
        {
          "indexed": false,
          "internalType": "address",
          "name": "oldRelay",
          "type": "address"
        },
        {
          "indexed": false,
          "internalType": "address",
          "name": "newRelay",
          "type": "address"
        }
      ],
      "name": "NewRelay",
      "type": "event"
    },
    {
      "anonymous": false,
      "inputs": [
        {
          "indexed": false,
          "internalType": "address",
          "name": "oldTeleBTC",
          "type": "address"
        },
        {
          "indexed": false,
          "internalType": "address",
          "name": "newTeleBTC",
          "type": "address"
        }
      ],
      "name": "NewTeleBTC",
      "type": "event"
    },
    {
      "anonymous": false,
      "inputs": [
        {
          "indexed": false,
          "internalType": "uint256",
          "name": "thirdPartyId",
          "type": "uint256"
        },
        {
          "indexed": false,
          "internalType": "address",
          "name": "oldThirdPartyAddress",
          "type": "address"
        },
        {
          "indexed": false,
          "internalType": "address",
          "name": "newThirdPartyAddress",
          "type": "address"
        }
      ],
      "name": "NewThirdPartyAddress",
      "type": "event"
    },
    {
      "anonymous": false,
      "inputs": [
        {
          "indexed": false,
          "internalType": "uint256",
          "name": "thirdPartyId",
          "type": "uint256"
        },
        {
          "indexed": false,
          "internalType": "uint256",
          "name": "oldThirdPartyFee",
          "type": "uint256"
        },
        {
          "indexed": false,
          "internalType": "uint256",
          "name": "newThirdPartyFee",
          "type": "uint256"
        }
      ],
      "name": "NewThirdPartyFee",
      "type": "event"
    },
    {
      "anonymous": false,
      "inputs": [
        {
          "indexed": false,
          "internalType": "address",
          "name": "oldTreasury",
          "type": "address"
        },
        {
          "indexed": false,
          "internalType": "address",
          "name": "newTreasury",
          "type": "address"
        }
      ],
      "name": "NewTreasury",
      "type": "event"
    },
    {
      "anonymous": false,
      "inputs": [
        {
          "indexed": false,
          "internalType": "address",
          "name": "lockerTargetAddress",
          "type": "address"
        },
        {
          "indexed": true,
          "internalType": "address",
          "name": "user",
          "type": "address"
        },
        {
          "indexed": false,
          "internalType": "address[2]",
          "name": "inputAndOutputToken",
          "type": "address[2]"
        },
        {
          "indexed": false,
          "internalType": "uint256[2]",
          "name": "inputAndOutputAmount",
          "type": "uint256[2]"
        },
        {
          "indexed": true,
          "internalType": "uint256",
          "name": "speed",
          "type": "uint256"
        },
        {
          "indexed": true,
          "internalType": "address",
          "name": "teleporter",
          "type": "address"
        },
        {
          "indexed": false,
          "internalType": "bytes32",
          "name": "bitcoinTxId",
          "type": "bytes32"
        },
        {
          "indexed": false,
          "internalType": "uint256",
          "name": "appId",
          "type": "uint256"
        },
        {
          "indexed": false,
          "internalType": "uint256",
          "name": "thirdPartyId",
          "type": "uint256"
        },
        {
          "indexed": false,
          "internalType": "uint256[5]",
          "name": "fees",
          "type": "uint256[5]"
        },
        {
          "indexed": false,
          "internalType": "uint256",
          "name": "destinationChainId",
          "type": "uint256"
        }
      ],
      "name": "NewWrapAndSwap",
      "type": "event"
    },
    {
      "anonymous": false,
      "inputs": [
        {
          "indexed": false,
          "internalType": "address",
          "name": "oldWrappedNativeToken",
          "type": "address"
        },
        {
          "indexed": false,
          "internalType": "address",
          "name": "newWrappedNativeToken",
          "type": "address"
        }
      ],
      "name": "NewWrappedNativeToken",
      "type": "event"
    },
    {
      "anonymous": false,
      "inputs": [
        {
          "indexed": true,
          "internalType": "address",
          "name": "previousOwner",
          "type": "address"
        },
        {
          "indexed": true,
          "internalType": "address",
          "name": "newOwner",
          "type": "address"
        }
      ],
      "name": "OwnershipTransferred",
      "type": "event"
    },
    {
      "anonymous": false,
      "inputs": [
        {
          "indexed": false,
          "internalType": "uint256",
          "name": "appId",
          "type": "uint256"
        },
        {
          "indexed": false,
          "internalType": "address",
          "name": "exchangeConnector",
          "type": "address"
        }
      ],
      "name": "SetExchangeConnector",
      "type": "event"
    },
    {
      "anonymous": false,
      "inputs": [
        {
          "indexed": false,
          "internalType": "uint256",
          "name": "chainId",
          "type": "uint256"
        },
        {
          "indexed": false,
          "internalType": "address",
          "name": "newToken",
          "type": "address"
        }
      ],
      "name": "TokenAdded",
      "type": "event"
    },
    {
      "anonymous": false,
      "inputs": [
        {
          "indexed": false,
          "internalType": "uint256",
          "name": "chainId",
          "type": "uint256"
        },
        {
          "indexed": false,
          "internalType": "address",
          "name": "oldToken",
          "type": "address"
        }
      ],
      "name": "TokenRemoved",
      "type": "event"
    },
    {
      "inputs": [],
      "name": "across",
      "outputs": [
        {
          "internalType": "address",
          "name": "",
          "type": "address"
        }
      ],
      "stateMutability": "view",
      "type": "function"
    },
    {
      "inputs": [],
      "name": "burnRouter",
      "outputs": [
        {
          "internalType": "address",
          "name": "",
          "type": "address"
        }
      ],
      "stateMutability": "view",
      "type": "function"
    },
    {
      "inputs": [],
      "name": "chainId",
      "outputs": [
        {
          "internalType": "uint256",
          "name": "",
          "type": "uint256"
        }
      ],
      "stateMutability": "view",
      "type": "function"
    },
    {
      "inputs": [
        {
          "internalType": "uint256",
          "name": "",
          "type": "uint256"
        }
      ],
      "name": "chainIdMapping",
      "outputs": [
        {
          "internalType": "uint256",
          "name": "middleChain",
          "type": "uint256"
        },
        {
          "internalType": "uint256",
          "name": "destinationChain",
          "type": "uint256"
        }
      ],
      "stateMutability": "view",
      "type": "function"
    },
    {
      "inputs": [
        {
          "internalType": "uint256",
          "name": "",
          "type": "uint256"
        }
      ],
      "name": "exchangeConnector",
      "outputs": [
        {
          "internalType": "address",
          "name": "",
          "type": "address"
        }
      ],
      "stateMutability": "view",
      "type": "function"
    },
    {
      "inputs": [
        {
          "internalType": "bytes32",
          "name": "",
          "type": "bytes32"
        }
      ],
      "name": "extendedCcExchangeRequests",
      "outputs": [
        {
          "internalType": "uint256",
          "name": "chainId",
          "type": "uint256"
        },
        {
          "internalType": "bool",
          "name": "isTransferredToOtherChain",
          "type": "bool"
        },
        {
          "internalType": "uint256",
          "name": "remainedInputAmount",
          "type": "uint256"
        },
        {
          "internalType": "uint256",
          "name": "bridgeFee",
          "type": "uint256"
        },
        {
          "internalType": "uint256",
          "name": "thirdParty",
          "type": "uint256"
        },
        {
          "internalType": "uint256",
          "name": "protocolFee",
          "type": "uint256"
        },
        {
          "internalType": "uint256",
          "name": "thirdPartyFee",
          "type": "uint256"
        },
        {
          "internalType": "uint256",
          "name": "lockerFee",
          "type": "uint256"
        }
      ],
      "stateMutability": "view",
      "type": "function"
    },
    {
      "inputs": [
        {
          "internalType": "uint256",
          "name": "chainId",
          "type": "uint256"
        }
      ],
      "name": "extractChainId",
      "outputs": [
        {
          "internalType": "uint256",
          "name": "",
          "type": "uint256"
        },
        {
          "internalType": "uint256",
          "name": "",
          "type": "uint256"
        }
      ],
      "stateMutability": "view",
      "type": "function"
    },
    {
      "inputs": [
        {
          "internalType": "uint256",
          "name": "chainId",
          "type": "uint256"
        }
      ],
      "name": "extractDestinationChainId",
      "outputs": [
        {
          "internalType": "uint256",
          "name": "",
          "type": "uint256"
        }
      ],
      "stateMutability": "view",
      "type": "function"
    },
    {
      "inputs": [],
      "name": "fillerWithdrawInterval",
      "outputs": [
        {
          "internalType": "uint256",
          "name": "",
          "type": "uint256"
        }
      ],
      "stateMutability": "view",
      "type": "function"
    },
    {
      "inputs": [
        {
          "internalType": "bytes32",
          "name": "",
          "type": "bytes32"
        },
        {
          "internalType": "address",
          "name": "",
          "type": "address"
        }
      ],
      "name": "fillersData",
      "outputs": [
        {
          "internalType": "uint256",
          "name": "index",
          "type": "uint256"
        },
        {
          "internalType": "address",
          "name": "token",
          "type": "address"
        },
        {
          "internalType": "uint256",
          "name": "amount",
          "type": "uint256"
        }
      ],
      "stateMutability": "view",
      "type": "function"
    },
    {
      "inputs": [
        {
          "internalType": "bytes32",
          "name": "",
          "type": "bytes32"
        }
      ],
      "name": "fillsData",
      "outputs": [
        {
          "internalType": "uint256",
          "name": "startingTime",
          "type": "uint256"
        },
        {
          "internalType": "address",
          "name": "reqToken",
          "type": "address"
        },
        {
          "internalType": "uint256",
          "name": "lastUsedIdx",
          "type": "uint256"
        },
        {
          "internalType": "uint256",
          "name": "remainingAmountOfLastFill",
          "type": "uint256"
        },
        {
          "internalType": "bool",
          "name": "isWithdrawnLastFill",
          "type": "bool"
        }
      ],
      "stateMutability": "view",
      "type": "function"
    },
    {
      "inputs": [
        {
          "internalType": "uint256",
          "name": "_startingBlockNumber",
          "type": "uint256"
        },
        {
          "internalType": "uint256",
          "name": "_protocolPercentageFee",
          "type": "uint256"
        },
        {
          "internalType": "uint256",
          "name": "_chainId",
          "type": "uint256"
        },
        {
          "internalType": "address",
          "name": "_lockers",
          "type": "address"
        },
        {
          "internalType": "address",
          "name": "_relay",
          "type": "address"
        },
        {
          "internalType": "address",
          "name": "_teleBTC",
          "type": "address"
        },
        {
          "internalType": "address",
          "name": "_treasury",
          "type": "address"
        },
        {
          "internalType": "address",
          "name": "_across",
          "type": "address"
        },
        {
          "internalType": "address",
          "name": "_burnRouter",
          "type": "address"
        }
      ],
      "name": "initialize",
      "outputs": [],
      "stateMutability": "nonpayable",
      "type": "function"
    },
    {
      "inputs": [],
      "name": "instantRouter",
      "outputs": [
        {
          "internalType": "address",
          "name": "",
          "type": "address"
        }
      ],
      "stateMutability": "view",
      "type": "function"
    },
    {
      "inputs": [
        {
          "internalType": "uint256",
          "name": "",
          "type": "uint256"
        }
      ],
      "name": "isChainSupported",
      "outputs": [
        {
          "internalType": "bool",
          "name": "",
          "type": "bool"
        }
      ],
      "stateMutability": "view",
      "type": "function"
    },
    {
      "inputs": [
        {
          "internalType": "bytes32",
          "name": "_txId",
          "type": "bytes32"
        }
      ],
      "name": "isRequestUsed",
      "outputs": [
        {
          "internalType": "bool",
          "name": "",
          "type": "bool"
        }
      ],
      "stateMutability": "view",
      "type": "function"
    },
    {
      "inputs": [
        {
          "internalType": "uint256",
          "name": "",
          "type": "uint256"
        },
        {
          "internalType": "address",
          "name": "",
          "type": "address"
        }
      ],
      "name": "isTokenSupported",
      "outputs": [
        {
          "internalType": "bool",
          "name": "",
          "type": "bool"
        }
      ],
      "stateMutability": "view",
      "type": "function"
    },
    {
      "inputs": [],
      "name": "lockers",
      "outputs": [
        {
          "internalType": "address",
          "name": "",
          "type": "address"
        }
      ],
      "stateMutability": "view",
      "type": "function"
    },
    {
      "inputs": [],
      "name": "owner",
      "outputs": [
        {
          "internalType": "address",
          "name": "",
          "type": "address"
        }
      ],
      "stateMutability": "view",
      "type": "function"
    },
    {
      "inputs": [
        {
          "internalType": "bytes32",
          "name": "",
          "type": "bytes32"
        },
        {
          "internalType": "address",
          "name": "",
          "type": "address"
        }
      ],
      "name": "prefixFillSums",
      "outputs": [
        {
          "internalType": "uint256",
          "name": "currentIndex",
          "type": "uint256"
        }
      ],
      "stateMutability": "view",
      "type": "function"
    },
    {
      "inputs": [],
      "name": "protocolPercentageFee",
      "outputs": [
        {
          "internalType": "uint256",
          "name": "",
          "type": "uint256"
        }
      ],
      "stateMutability": "view",
      "type": "function"
    },
    {
      "inputs": [],
      "name": "relay",
      "outputs": [
        {
          "internalType": "address",
          "name": "",
          "type": "address"
        }
      ],
      "stateMutability": "view",
      "type": "function"
    },
    {
      "inputs": [
        {
          "internalType": "uint256",
          "name": "_chainId",
          "type": "uint256"
        }
      ],
      "name": "removeChain",
      "outputs": [],
      "stateMutability": "nonpayable",
      "type": "function"
    },
    {
      "inputs": [
        {
          "internalType": "uint256",
          "name": "chainId",
          "type": "uint256"
        },
        {
          "internalType": "address",
          "name": "_token",
          "type": "address"
        }
      ],
      "name": "removeToken",
      "outputs": [],
      "stateMutability": "nonpayable",
      "type": "function"
    },
    {
      "inputs": [],
      "name": "renounceOwnership",
      "outputs": [],
      "stateMutability": "nonpayable",
      "type": "function"
    },
    {
      "inputs": [
        {
          "internalType": "bytes",
          "name": "_message",
          "type": "bytes"
        },
        {
          "internalType": "bytes32",
          "name": "_r",
          "type": "bytes32"
        },
        {
          "internalType": "bytes32",
          "name": "_s",
          "type": "bytes32"
        },
        {
          "internalType": "uint8",
          "name": "_v",
          "type": "uint8"
        }
      ],
      "name": "retryFailedWrapAndSwap",
      "outputs": [
        {
          "internalType": "bool",
          "name": "",
          "type": "bool"
        }
      ],
      "stateMutability": "nonpayable",
      "type": "function"
    },
    {
      "inputs": [
        {
          "internalType": "address",
          "name": "_across",
          "type": "address"
        }
      ],
      "name": "setAcross",
      "outputs": [],
      "stateMutability": "nonpayable",
      "type": "function"
    },
    {
      "inputs": [
        {
          "internalType": "address",
          "name": "_burnRouter",
          "type": "address"
        }
      ],
      "name": "setBurnRouter",
      "outputs": [],
      "stateMutability": "nonpayable",
      "type": "function"
    },
    {
      "inputs": [
        {
          "internalType": "uint256",
          "name": "_mappedId",
          "type": "uint256"
        },
        {
          "internalType": "uint256",
          "name": "_middleChain",
          "type": "uint256"
        },
        {
          "internalType": "uint256",
          "name": "_destinationChain",
          "type": "uint256"
        }
      ],
      "name": "setChainIdMapping",
      "outputs": [],
      "stateMutability": "nonpayable",
      "type": "function"
    },
    {
      "inputs": [
        {
          "internalType": "uint256",
          "name": "_appId",
          "type": "uint256"
        },
        {
          "internalType": "address",
          "name": "_exchangeConnector",
          "type": "address"
        }
      ],
      "name": "setExchangeConnector",
      "outputs": [],
      "stateMutability": "nonpayable",
      "type": "function"
    },
    {
      "inputs": [
        {
          "internalType": "address",
          "name": "_instantRouter",
          "type": "address"
        }
      ],
      "name": "setInstantRouter",
      "outputs": [],
      "stateMutability": "nonpayable",
      "type": "function"
    },
    {
      "inputs": [
        {
          "internalType": "address",
          "name": "_lockers",
          "type": "address"
        }
      ],
      "name": "setLockers",
      "outputs": [],
      "stateMutability": "nonpayable",
      "type": "function"
    },
    {
      "inputs": [
        {
          "internalType": "uint256",
          "name": "_protocolPercentageFee",
          "type": "uint256"
        }
      ],
      "name": "setProtocolPercentageFee",
      "outputs": [],
      "stateMutability": "nonpayable",
      "type": "function"
    },
    {
      "inputs": [
        {
          "internalType": "address",
          "name": "_relay",
          "type": "address"
        }
      ],
      "name": "setRelay",
      "outputs": [],
      "stateMutability": "nonpayable",
      "type": "function"
    },
    {
      "inputs": [
        {
          "internalType": "uint256",
          "name": "_startingBlockNumber",
          "type": "uint256"
        }
      ],
      "name": "setStartingBlockNumber",
      "outputs": [],
      "stateMutability": "nonpayable",
      "type": "function"
    },
    {
      "inputs": [
        {
          "internalType": "address",
          "name": "_teleBTC",
          "type": "address"
        }
      ],
      "name": "setTeleBTC",
      "outputs": [],
      "stateMutability": "nonpayable",
      "type": "function"
    },
    {
      "inputs": [
        {
          "internalType": "uint256",
          "name": "_thirdPartyId",
          "type": "uint256"
        },
        {
          "internalType": "address",
          "name": "_thirdPartyAddress",
          "type": "address"
        }
      ],
      "name": "setThirdPartyAddress",
      "outputs": [],
      "stateMutability": "nonpayable",
      "type": "function"
    },
    {
      "inputs": [
        {
          "internalType": "uint256",
          "name": "_thirdPartyId",
          "type": "uint256"
        },
        {
          "internalType": "uint256",
          "name": "_thirdPartyFee",
          "type": "uint256"
        }
      ],
      "name": "setThirdPartyFee",
      "outputs": [],
      "stateMutability": "nonpayable",
      "type": "function"
    },
    {
      "inputs": [
        {
          "internalType": "address",
          "name": "_treasury",
          "type": "address"
        }
      ],
      "name": "setTreasury",
      "outputs": [],
      "stateMutability": "nonpayable",
      "type": "function"
    },
    {
      "inputs": [
        {
          "internalType": "address",
          "name": "_wrappedNativeToken",
          "type": "address"
        }
      ],
      "name": "setWrappedNativeToken",
      "outputs": [],
      "stateMutability": "nonpayable",
      "type": "function"
    },
    {
      "inputs": [],
      "name": "startingBlockNumber",
      "outputs": [
        {
          "internalType": "uint256",
          "name": "",
          "type": "uint256"
        }
      ],
      "stateMutability": "view",
      "type": "function"
    },
    {
      "inputs": [
        {
          "internalType": "uint256",
          "name": "_chainId",
          "type": "uint256"
        }
      ],
      "name": "supportChain",
      "outputs": [],
      "stateMutability": "nonpayable",
      "type": "function"
    },
    {
      "inputs": [
        {
          "internalType": "uint256",
          "name": "chainId",
          "type": "uint256"
        },
        {
          "internalType": "address",
          "name": "_token",
          "type": "address"
        }
      ],
      "name": "supportToken",
      "outputs": [],
      "stateMutability": "nonpayable",
      "type": "function"
    },
    {
      "inputs": [],
      "name": "teleBTC",
      "outputs": [
        {
          "internalType": "address",
          "name": "",
          "type": "address"
        }
      ],
      "stateMutability": "view",
      "type": "function"
    },
    {
      "inputs": [
        {
          "internalType": "uint256",
          "name": "",
          "type": "uint256"
        }
      ],
      "name": "thirdPartyAddress",
      "outputs": [
        {
          "internalType": "address",
          "name": "",
          "type": "address"
        }
      ],
      "stateMutability": "view",
      "type": "function"
    },
    {
      "inputs": [
        {
          "internalType": "uint256",
          "name": "",
          "type": "uint256"
        }
      ],
      "name": "thirdPartyFee",
      "outputs": [
        {
          "internalType": "uint256",
          "name": "",
          "type": "uint256"
        }
      ],
      "stateMutability": "view",
      "type": "function"
    },
    {
      "inputs": [
        {
          "internalType": "address",
          "name": "newOwner",
          "type": "address"
        }
      ],
      "name": "transferOwnership",
      "outputs": [],
      "stateMutability": "nonpayable",
      "type": "function"
    },
    {
      "inputs": [],
      "name": "treasury",
      "outputs": [
        {
          "internalType": "address",
          "name": "",
          "type": "address"
        }
      ],
      "stateMutability": "view",
      "type": "function"
    },
    {
      "inputs": [
        {
          "internalType": "bytes",
          "name": "_message",
          "type": "bytes"
        },
        {
          "internalType": "bytes32",
          "name": "_r",
          "type": "bytes32"
        },
        {
          "internalType": "bytes32",
          "name": "_s",
          "type": "bytes32"
        },
        {
          "internalType": "uint8",
          "name": "_v",
          "type": "uint8"
        },
        {
          "internalType": "bytes",
          "name": "_lockerLockingScript",
          "type": "bytes"
        }
      ],
      "name": "withdrawFailedWrapAndSwap",
      "outputs": [
        {
          "internalType": "bool",
          "name": "",
          "type": "bool"
        }
      ],
      "stateMutability": "nonpayable",
      "type": "function"
    },
    {
      "inputs": [
        {
          "components": [
            {
              "internalType": "bytes4",
              "name": "version",
              "type": "bytes4"
            },
            {
              "internalType": "bytes",
              "name": "vin",
              "type": "bytes"
            },
            {
              "internalType": "bytes",
              "name": "vout",
              "type": "bytes"
            },
            {
              "internalType": "bytes4",
              "name": "locktime",
              "type": "bytes4"
            },
            {
              "internalType": "uint256",
              "name": "blockNumber",
              "type": "uint256"
            },
            {
              "internalType": "bytes",
              "name": "intermediateNodes",
              "type": "bytes"
            },
            {
              "internalType": "uint256",
              "name": "index",
              "type": "uint256"
            }
          ],
          "internalType": "struct ICcExchangeRouter.TxAndProof",
          "name": "_txAndProof",
          "type": "tuple"
        },
        {
          "internalType": "bytes",
          "name": "_lockerLockingScript",
          "type": "bytes"
        },
        {
          "internalType": "address[]",
          "name": "_path",
          "type": "address[]"
        }
      ],
      "name": "wrapAndSwap",
      "outputs": [
        {
          "internalType": "bool",
          "name": "",
          "type": "bool"
        }
      ],
      "stateMutability": "payable",
      "type": "function"
    },
    {
      "inputs": [],
      "name": "wrappedNativeToken",
      "outputs": [
        {
          "internalType": "address",
          "name": "",
          "type": "address"
        }
      ],
      "stateMutability": "view",
      "type": "function"
    },
    {
      "stateMutability": "payable",
      "type": "receive"
    }
  ],
  "transactionHash": "0xd423964ce87147531777b72a294453225122d8e6a0d518305f28ff75cbf8039b",
  "args": [],
  "numDeployments": 1,
  "solcInputHash": "d58b1882bfd20cf9913ec7421b51f280",
  "bytecode": "0x608060405234801561001057600080fd5b506149df806100206000396000f3fe60806040526004361061032d5760003560e01c80637f0f1817116101a5578063a9ac5919116100ec578063cbf50bb611610095578063e45b5c291161006f578063e45b5c2914610aba578063ea2979ee14610af5578063f0f4426014610b15578063f2fde38b14610b3557610334565b8063cbf50bb614610a5a578063da058ae314610a7a578063e35a0a8814610a9a57610334565b8063b59589d1116100c6578063b59589d1146109a7578063bd51aaa3146109c7578063c805f68b14610a3a57610334565b8063a9ac591914610931578063a9b6827114610951578063b14d35321461098757610334565b80638da5cb5b1161014e57806393c5c73a1161012857806393c5c73a146108db5780639a8a0592146108fb578063a015f99c1461091157610334565b80638da5cb5b146108145780638f9eb78b14610832578063913967d31461085257610334565b8063870ba6cf1161017f578063870ba6cf146107b45780638d3d78cd146107d45780638d5fc1d4146107f457610334565b80637f0f18171461075457806380615bb91461077457806380bc47261461079457610334565b8063527b42a6116102745780636c32b2ec1161021d578063715018a6116101f7578063715018a6146106d157806375979f79146106e65780637a218135146107215780637ed557481461073457610334565b80636c32b2ec146106655780636e8adf611461068557806370872aa5146106bb57610334565b806361be10f21161024e57806361be10f21461060557806361d027b3146106255780636b2857ef1461064557610334565b8063527b42a61461059857806359fd0b0c146105b857806361849f75146105e557610334565b8063292c1d92116102d65780634e63ba95116102b05780634e63ba95146104ef5780635221c1f0146105385780635279feed1461057857610334565b8063292c1d921461049957806333fe5676146104b957806342b5dcd0146104d957610334565b80631876dec4116103075780631876dec4146104375780631dc4b09c146104575780631e7107c71461047957610334565b806306be8b0e1461033957806317fcb39b146103db5780631812adb61461041357610334565b3661033457005b600080fd5b34801561034557600080fd5b5061039b61035436600461401b565b60a76020526000908152604090208054600182015460028301546003840154600485015460058601546006870154600790970154959660ff90951695939492939192909188565b604080519889529615156020890152958701949094526060860192909252608085015260a084015260c083015260e0820152610100015b60405180910390f35b3480156103e757600080fd5b5060a9546103fb906001600160a01b031681565b6040516001600160a01b0390911681526020016103d2565b34801561041f57600080fd5b5061042960025481565b6040519081526020016103d2565b34801561044357600080fd5b506005546103fb906001600160a01b031681565b34801561046357600080fd5b50610477610472366004613f1f565b610b55565b005b34801561048557600080fd5b5061047761049436600461401b565b610b69565b3480156104a557600080fd5b5060a8546103fb906001600160a01b031681565b3480156104c557600080fd5b506104776104d436600461404b565b610b7a565b3480156104e557600080fd5b5061042960a15481565b3480156104fb57600080fd5b5061052361050a36600461401b565b60ab602052600090815260409020805460019091015482565b604080519283526020830191909152016103d2565b34801561054457600080fd5b5061056861055336600461401b565b60a66020526000908152604090205460ff1681565b60405190151581526020016103d2565b34801561058457600080fd5b5061047761059336600461440f565b610bf0565b3480156105a457600080fd5b506104296105b336600461401b565b610c08565b3480156105c457600080fd5b506104296105d336600461401b565b60ac6020526000908152604090205481565b3480156105f157600080fd5b506105686106003660046141c8565b610c20565b34801561061157600080fd5b50610477610620366004613f1f565b610e79565b34801561063157600080fd5b506007546103fb906001600160a01b031681565b34801561065157600080fd5b5061047761066036600461404b565b610e8a565b34801561067157600080fd5b5060aa546103fb906001600160a01b031681565b34801561069157600080fd5b506103fb6106a036600461401b565b6008602052600090815260409020546001600160a01b031681565b3480156106c757600080fd5b5061042960005481565b3480156106dd57600080fd5b50610477610ef8565b3480156106f257600080fd5b5061056861070136600461404b565b60a560209081526000928352604080842090915290825290205460ff1681565b61056861072f3660046142b8565b610f02565b34801561074057600080fd5b5061047761074f36600461401b565b61170f565b34801561076057600080fd5b5061047761076f366004613f1f565b611720565b34801561078057600080fd5b5061056861078f366004614229565b611731565b3480156107a057600080fd5b506105686107af36600461401b565b611a00565b3480156107c057600080fd5b506104776107cf366004613f1f565b611a29565b3480156107e057600080fd5b506006546103fb906001600160a01b031681565b34801561080057600080fd5b5061047761080f36600461404b565b611a3a565b34801561082057600080fd5b50603d546001600160a01b03166103fb565b34801561083e57600080fd5b5061047761084d3660046143ee565b611a50565b34801561085e57600080fd5b506108a961086d36600461401b565b60a4602052600090815260409020805460018201546002830154600384015460049094015492936001600160a01b039092169290919060ff1685565b604080519586526001600160a01b0390941660208601529284019190915260608301521515608082015260a0016103d2565b3480156108e757600080fd5b506105236108f636600461401b565b611a62565b34801561090757600080fd5b5061042960015481565b34801561091d57600080fd5b5061047761092c36600461443a565b611a7e565b34801561093d57600080fd5b5061047761094c36600461404b565b611c15565b34801561095d57600080fd5b506103fb61096c36600461401b565b60ad602052600090815260409020546001600160a01b031681565b34801561099357600080fd5b506104776109a2366004613f1f565b611c8e565b3480156109b357600080fd5b506003546103fb906001600160a01b031681565b3480156109d357600080fd5b50610a176109e236600461404b565b60a260209081526000928352604080842090915290825290208054600182015460029092015490916001600160a01b03169083565b604080519384526001600160a01b039092166020840152908201526060016103d2565b348015610a4657600080fd5b50610477610a55366004613f1f565b611c9f565b348015610a6657600080fd5b50610477610a7536600461401b565b611cb0565b348015610a8657600080fd5b50610477610a95366004613f1f565b611d03565b348015610aa657600080fd5b506004546103fb906001600160a01b031681565b348015610ac657600080fd5b50610429610ad536600461404b565b60a360209081526000928352604080842090915290825290206001015481565b348015610b0157600080fd5b50610477610b1036600461401b565b611d14565b348015610b2157600080fd5b50610477610b30366004613f1f565b611d6a565b348015610b4157600080fd5b50610477610b50366004613f1f565b611d7b565b610b5d611e08565b610b6681611e62565b50565b610b71611e08565b610b6681611f23565b610b82611e08565b604080518381526001600160a01b03831660208201527fb3036f81a7a8205f3b94de16897df636d553839d92289fb7ec72dd2d54132842910160405180910390a1600091825260a5602090815260408084206001600160a01b0390931684529190529020805460ff19169055565b610bf8611e08565b610c03828285611f9f565b505050565b600081815260ab60205260409020600101545b919050565b6000610c2a61200c565b60008060008088806020019051810190610c44919061407a565b600084815260096020908152604080832081516101608101835281548152600182015481850152600282015481840152600382015460ff808216151560608401526101009091046001600160a01b03166080830152600483015460a0830152600583015416151560c0820152600682018054845181870281018701909552808552999d50979b5095995093975091959394929360e086019391830182828015610d1657602002820191906000526020600020905b81546001600160a01b03168152600190910190602001808311610cf8575b505050505081526020016007820154815260200160088201548152602001600982015481525050905060015460a760008781526020019081526020016000206000015414158015610d795750600085815260a7602052604090206001015460ff16155b610dd45760405162461bcd60e51b815260206004820152602160248201527f45786368616e6765526f757465723a20616c72656164792070726f63657373656044820152601960fa1b60648201526084015b60405180910390fd5b600085815260a7602052604090206001908101805460ff1916909117905560808101516001600160a01b0316610e0c8b8b8b8b612066565b6001600160a01b031614610e625760405162461bcd60e51b815260206004820152601e60248201527f45786368616e6765526f757465723a20696e76616c6964207369676e657200006044820152606401610dcb565b5050505050610e716001606f55565b949350505050565b610e81611e08565b610b66816121b8565b610e92611e08565b60008281526008602090815260409182902080546001600160a01b0319166001600160a01b0385169081179091558251858152918201527f31a8c4e62daac2a3ed5d713004d9ae867d6dcddfa35603db2a4b65d9236b1bc1910160405180910390a15050565b610f00611e08565b565b6000610f0c61200c565b6004546001600160a01b0316336001600160a01b031614610f6f5760405162461bcd60e51b815260206004820152601e60248201527f45786368616e6765526f757465723a20696e76616c69642073656e64657200006044820152606401610dcb565b60005485608001511015610fc55760405162461bcd60e51b815260206004820152601b60248201527f45786368616e6765526f757465723a206f6c64207265717565737400000000006044820152606401610dcb565b60608501516001600160e01b031916156110475760405162461bcd60e51b815260206004820152602160248201527f45786368616e6765526f757465723a206e6f6e2d7a65726f206c6f636b74696d60448201527f65000000000000000000000000000000000000000000000000000000000000006064820152608401610dcb565b6005546040517faff2faa30000000000000000000000000000000000000000000000000000000081526001600160a01b039091169063aff2faa390611092908790879060040161464c565b60206040518083038186803b1580156110aa57600080fd5b505afa1580156110be573d6000803e3d6000fd5b505050506040513d601f19601f820116820180604052508101906110e29190613f5e565b61112e5760405162461bcd60e51b815260206004820152601a60248201527f45786368616e6765526f757465723a206e6f74206c6f636b65720000000000006044820152606401610dcb565b6000738c1CC7C43c492b5f99bEB26FA45F429a47A0D79E63dba71cdf87600960a7600660009054906101000a90046001600160a01b031660a960009054906101000a90046001600160a01b03166127108c8c600360009054906101000a90046001600160a01b03166040518a63ffffffff1660e01b81526004016111ba999897969594939291906146a1565b60206040518083038186803b1580156111d257600080fd5b505af41580156111e6573d6000803e3d6000fd5b505050506040513d601f19601f8201168201806040525081019061120a9190614033565b9050826001845161121b9190614916565b8151811061123957634e487b7160e01b600052603260045260246000fd5b60200260200101516001600160a01b03166009600083815260200190815260200160002060060160018154811061128057634e487b7160e01b600052603260045260246000fd5b6000918252602090912001546001600160a01b0316146112e25760405162461bcd60e51b815260206004820152601a60248201527f45786368616e6765526f757465723a2077726f6e6720706174680000000000006044820152606401610dcb565b600081815260a7602052604081205481906112fc90611a62565b9150915060015482146113515760405162461bcd60e51b815260206004820152601b60248201527f45786368616e6765526f757465723a2077726f6e6720636861696e00000000006044820152606401610dcb565b600081815260a6602052604090205460ff166113af5760405162461bcd60e51b815260206004820181905260248201527f45786368616e6765526f757465723a20696e76616c696420636861696e2069646044820152606401610dcb565b8082141561143c57600083815260a760205260409020600301541561143c5760405162461bcd60e51b815260206004820152602260248201527f45786368616e6765526f757465723a20696e76616c696420627264696765206660448201527f65650000000000000000000000000000000000000000000000000000000000006064820152608401610dcb565b600083815260096020908152604080832081516101608101835281548152600182015481850152600282015481840152600382015460ff808216151560608401526101009091046001600160a01b03166080830152600483015460a0830152600583015416151560c08201526006820180548451818702810187019095528085529194929360e086019390929083018282801561150257602002820191906000526020600020905b81546001600160a01b031681526001909101906020018083116114e4575b505050918352505060078201546020808301919091526008808401546040808501919091526009909401546060909301929092528351600090815291905220549091506001600160a01b03168061159b5760405162461bcd60e51b815260206004820152601d60248201527f45786368616e6765526f757465723a20696e76616c69642061707049640000006044820152606401610dcb565b6115dc89898080601f016020809104026020016040519081016040528093929190818152602001838380828437600092019190915250899250612279915050565b610120820151156116555760405162461bcd60e51b815260206004820152602760248201527f45786368616e6765526f757465723a2066696c6c6572206973206e6f7420737560448201527f70706f72746564000000000000000000000000000000000000000000000000006064820152608401610dcb565b6001548314156116a8576116a3818a8a8080601f0160208091040260200160405190810160405280939291908181526020018383808284376000920191909152508a92508c915061265b9050565b6116fc565b6116fc818a8a8080601f01602080910402602001604051908101604052809392919081815260200183838082843760009201829052508b815260a760205260409020600301548b93508d92509050886128b9565b600195505050505050610e716001606f55565b611717611e08565b610b6681612bc6565b611728611e08565b610b6681612c7f565b600061173b61200c565b6000806000808a8060200190518101906117559190614130565b600154600085815260a760205260409020549498509296509094509250148015906117925750600084815260a7602052604090206001015460ff16155b6117e85760405162461bcd60e51b815260206004820152602160248201527f45786368616e6765526f757465723a20616c72656164792070726f63657373656044820152601960fa1b6064820152608401610dcb565b600084815260a7602090815260408083206001908101805460ff19169091179055600990915290206003015461010090046001600160a01b031661182e8c8c8c8c612066565b6001600160a01b0316146118845760405162461bcd60e51b815260206004820152601e60248201527f45786368616e6765526f757465723a20696e76616c6964207369676e657200006044820152606401610dcb565b60065460aa54600086815260a760205260409081902060020154905163095ea7b360e01b81526001600160a01b039283166004820152602481019190915291169063095ea7b390604401602060405180830381600087803b1580156118e857600080fd5b505af11580156118fc573d6000803e3d6000fd5b505050506040513d601f19601f820116820180604052508101906119209190613f5e565b5060aa54600085815260a760205260409020600201546001600160a01b0390911690633fea4367908460ff8716600581111561196c57634e487b7160e01b600052602160045260246000fd5b8b8b60006040518763ffffffff1660e01b8152600401611991969594939291906147b0565b602060405180830381600087803b1580156119ab57600080fd5b505af11580156119bf573d6000803e3d6000fd5b505050506040513d601f19601f820116820180604052508101906119e39190614033565b5060019450505050506119f66001606f55565b9695505050505050565b60008181526009602052604081206005015460ff16611a20576000611a23565b60015b92915050565b611a31611e08565b610b6681612d40565b611a42611e08565b611a4c8282612e01565b5050565b611a58611e08565b611a4c8282612e9d565b600081815260ab6020526040902080546001909101545b915091565b600a54610100900460ff1615808015611a9e5750600a54600160ff909116105b80611ab85750303b158015611ab85750600a5460ff166001145b611b2a5760405162461bcd60e51b815260206004820152602e60248201527f496e697469616c697a61626c653a20636f6e747261637420697320616c72656160448201527f647920696e697469616c697a65640000000000000000000000000000000000006064820152608401610dcb565b600a805460ff191660011790558015611b4d57600a805461ff0019166101001790555b611b55612efe565b611b5d612f71565b6001888155600089815260a660205260409020805460ff19169091179055611b848a611f23565b611b8d89612bc6565b611b9686612fe4565b611b9f876130a5565b611ba885612c7f565b611bb184613166565b611bba836121b8565b611bc382611e62565b8015611c0957600a805461ff0019169055604051600181527f7f26b83ff96e1f2b6a682f133852f6798a09c465da95921460cefb38474024989060200160405180910390a15b50505050505050505050565b611c1d611e08565b604080518381526001600160a01b03831660208201527fca37a60f79854243dcab36b6ad6fcaafc7ae13448087ee70547943babc7dccf0910160405180910390a1600091825260a5602090815260408084206001600160a01b0390931684529190529020805460ff19166001179055565b611c96611e08565b610b66816130a5565b611ca7611e08565b610b6681612fe4565b611cb8611e08565b6040518181527f11a9d1a77f76361ed131c19b1dc5758504c51dbde2e49fc973a0ef9577ad13d59060200160405180910390a1600090815260a660205260409020805460ff19169055565b611d0b611e08565b610b6681613227565b611d1c611e08565b6040518181527fbba9d55e9fd1a441b1617724e2fdb76777d15ec77ab2b72ac15952cbe97085db9060200160405180910390a1600090815260a660205260409020805460ff19166001179055565b611d72611e08565b610b6681613166565b611d83611e08565b6001600160a01b038116611dff5760405162461bcd60e51b815260206004820152602660248201527f4f776e61626c653a206e6577206f776e657220697320746865207a65726f206160448201527f64647265737300000000000000000000000000000000000000000000000000006064820152608401610dcb565b610b6681613290565b603d546001600160a01b03163314610f005760405162461bcd60e51b815260206004820181905260248201527f4f776e61626c653a2063616c6c6572206973206e6f7420746865206f776e65726044820152606401610dcb565b806001600160a01b038116611eb95760405162461bcd60e51b815260206004820152601c60248201527f45786368616e6765526f757465723a207a65726f2061646472657373000000006044820152606401610dcb565b60aa54604080516001600160a01b03928316815291841660208301527f5b663d57fa8cf393f8c8019f514b25c1b3223c9324a2ce3efe28ce5aef0e62fe910160405180910390a15060aa80546001600160a01b0319166001600160a01b0392909216919091179055565b6000548111611f9a5760405162461bcd60e51b815260206004820152602960248201527f434345786368616e6765526f757465723a206c6f77207374617274696e67426c60448201527f6f636b4e756d62657200000000000000000000000000000000000000000000006064820152608401610dcb565b600055565b60408051828152602081018590529081018390527fd4d81e1736e6dd2e97d0c6eff0dc7ec7184dec2bd4e03ce98d84d6057a8045c49060600160405180910390a16040805180820182529384526020808501938452600092835260ab905290209151825551600190910155565b6002606f54141561205f5760405162461bcd60e51b815260206004820152601f60248201527f5265656e7472616e637947756172643a207265656e7472616e742063616c6c006044820152606401610dcb565b6002606f55565b600080858051906020012090506000816040516020016120b291907f19457468657265756d205369676e6564204d6573736167653a0a3332000000008152601c810191909152603c0190565b60408051601f198184030181528282528051602091820120600080855291840180845281905260ff88169284019290925260608301899052608083018890529092509060019060a0016020604051602081039080840390855afa15801561211d573d6000803e3d6000fd5b5050604051601f1901519150506001600160a01b0381166121a65760405162461bcd60e51b815260206004820152602260248201527f506f6c79676f6e436f6e6e6563746f724c6f6769633a20496e76616c6964207360448201527f69670000000000000000000000000000000000000000000000000000000000006064820152608401610dcb565b979650505050505050565b6001606f55565b806001600160a01b03811661220f5760405162461bcd60e51b815260206004820152601c60248201527f45786368616e6765526f757465723a207a65726f2061646472657373000000006044820152606401610dcb565b60a854604080516001600160a01b03928316815291841660208301527f06e5f2ca1234f717a2031f662608c02182d4f8bdc3dab013ec4c04eb97553132910160405180910390a15060a880546001600160a01b0319166001600160a01b0392909216919091179055565b6005546000828152600960205260408082206001015490517f1fcfe19c00000000000000000000000000000000000000000000000000000000815291926001600160a01b031691631fcfe19c916122d69187913091600401614673565b602060405180830381600087803b1580156122f057600080fd5b505af1158015612304573d6000803e3d6000fd5b505050506040513d601f19601f820116820180604052508101906123289190614033565b6002546000848152600960205260409020600101549192506127109161234e91906148f7565b61235891906148d7565b600083815260a76020908152604080832060058101949094556009808352818420600480820154960154855260ac8452918420549387905290915260010154612710916123a4916148f7565b6123ae91906148d7565b600084815260a760209081526040808320600601939093556009905220600101546123da908390614916565b600084815260a760205260409020600701558015612486576006546001600160a01b031663a9059cbb336040516001600160e01b031960e084901b1681526001600160a01b03909116600482015260248101849052604401602060405180830381600087803b15801561244c57600080fd5b505af1158015612460573d6000803e3d6000fd5b505050506040513d601f19601f820116820180604052508101906124849190613f5e565b505b600083815260a760205260409020600501541561253b57600654600754600085815260a760205260409081902060050154905163a9059cbb60e01b81526001600160a01b039283166004820152602481019190915291169063a9059cbb90604401602060405180830381600087803b15801561250157600080fd5b505af1158015612515573d6000803e3d6000fd5b505050506040513d601f19601f820116820180604052508101906125399190613f5e565b505b600083815260a76020526040902060060154156126075760068054600085815260a760208181526040808420600480820154865260ad845282862054958b905293909252940154935163a9059cbb60e01b81526001600160a01b03928316918101919091526024810193909352169063a9059cbb90604401602060405180830381600087803b1580156125cd57600080fd5b505af11580156125e1573d6000803e3d6000fd5b505050506040513d601f19601f820116820180604052508101906126059190613f5e565b505b600083815260a7602052604090206006810154600590910154829061262c9085614916565b6126369190614916565b6126409190614916565b600093845260a7602052604090932060020192909255505050565b6040805160e080820183526001805483526020808401889052600087815260098252858120865161016081018852815481529381015484840152600281015484880152600381015460ff808216151560608701526101009091046001600160a01b03166080860152600482015460a0860152600582015416151560c08501526006810180548851818602810186018a52818152939889986127f9989097918801969195908601939092909183018282801561273f57602002820191906000526020600020905b81546001600160a01b03168152600190910190602001808311612721575b5050509183525050600782810154602080840191909152600884015460408085019190915260099094015460609384015293855260008b815260a7855283902083516101008101855281548152600182015460ff161515818701526002820154818601526003820154818501526004820154608080830191909152600583015460a0830152600683015460c0830152919092015460e08301529385015290830189905282018790526001600160a01b038a169101526132e2565b91509150816128b15760065460008581526009602090815260408083206003015460a79092529182902060020154915163a9059cbb60e01b81526101009091046001600160a01b039081166004830152602482019290925291169063a9059cbb90604401602060405180830381600087803b15801561287757600080fd5b505af115801561288b573d6000803e3d6000fd5b505050506040513d601f19601f820116820180604052508101906128af9190613f5e565b505b505050505050565b6040805160e08082018352838252602080830189905260008881526009825284812085516101608101875281548152600182015481850152600282015481880152600382015460ff808216151560608401526101009091046001600160a01b03166080830152600483015460a0830152600583015416151560c08201526006820180548851818702810187018a5281815294988998612a5698909791880196949594908601939092909183018282801561299c57602002820191906000526020600020905b81546001600160a01b0316815260019091019060200180831161297e575b5050509183525050600782810154602080840191909152600884015460408085019190915260099094015460609384015293855260008d815260a7855283902083516101008101855281548152600182015460ff161515818701526002820154818601526003820154818501526004820154608080830191909152600583015460a0830152600683015460c0830152919092015460e0830152938501529083018b905282018990526001600160a01b038c169101526132e2565b915091508115612b2157600086815260a7602052604090206001818101805460ff19168217905590548651612b1c928891612a919190614916565b81518110612aaf57634e487b7160e01b600052603260045260246000fd5b60200260200101518360018551612ac69190614916565b81518110612ae457634e487b7160e01b600052603260045260246000fd5b6020026020010151600960008b815260200190815260200160002060030160019054906101000a90046001600160a01b031688613bae565b612bbc565b600654600087815260a760205260409081902060020154905163095ea7b360e01b81526001600160a01b038b81166004830152602482019290925291169063095ea7b390604401602060405180830381600087803b158015612b8257600080fd5b505af1158015612b96573d6000803e3d6000fd5b505050506040513d601f19601f82011682018060405250810190612bba9190613f5e565b505b5050505050505050565b806127101015612c3e5760405162461bcd60e51b815260206004820152602560248201527f434345786368616e6765526f757465723a20666565206973206f7574206f662060448201527f72616e67650000000000000000000000000000000000000000000000000000006064820152608401610dcb565b60025460408051918252602082018390527f7d205f60891f60851c61cd244ba387d72b6589e7c0ac41b9d909ab0ce2c2a53b910160405180910390a1600255565b806001600160a01b038116612cd65760405162461bcd60e51b815260206004820152601c60248201527f45786368616e6765526f757465723a207a65726f2061646472657373000000006044820152606401610dcb565b600654604080516001600160a01b03928316815291841660208301527f36a4c08a38b736dcecb6c328dba61238529620e83ccb23db2cc43cd34ec26096910160405180910390a150600680546001600160a01b0319166001600160a01b0392909216919091179055565b806001600160a01b038116612d975760405162461bcd60e51b815260206004820152601c60248201527f45786368616e6765526f757465723a207a65726f2061646472657373000000006044820152606401610dcb565b600454604080516001600160a01b03928316815291841660208301527f12ad124e13af4c31364ad22aa74320e167b37f005dafb75d71a210c49da3629e910160405180910390a150600480546001600160a01b0319166001600160a01b0392909216919091179055565b600082815260ad6020526040908190205490517f1e73962bcff5b98a9ac70c9b0f71fbb31dc0f5a09348c6d3ceab164169a9e72991612e679185916001600160a01b03169085909283526001600160a01b03918216602084015216604082015260600190565b60405180910390a1600091825260ad602052604090912080546001600160a01b0319166001600160a01b03909216919091179055565b600082815260ac6020908152604091829020548251858152918201529081018290527f188adabf806a6b6d814acc1dbd9f09e5a251c8c065d6285749a5824e4579b6459060600160405180910390a1600091825260ac602052604090912055565b600a54610100900460ff16612f695760405162461bcd60e51b815260206004820152602b60248201527f496e697469616c697a61626c653a20636f6e7472616374206973206e6f74206960448201526a6e697469616c697a696e6760a81b6064820152608401610dcb565b610f00613d10565b600a54610100900460ff16612fdc5760405162461bcd60e51b815260206004820152602b60248201527f496e697469616c697a61626c653a20636f6e7472616374206973206e6f74206960448201526a6e697469616c697a696e6760a81b6064820152608401610dcb565b610f00613d84565b806001600160a01b03811661303b5760405162461bcd60e51b815260206004820152601c60248201527f45786368616e6765526f757465723a207a65726f2061646472657373000000006044820152606401610dcb565b600354604080516001600160a01b03928316815291841660208301527f4c28a3f61a715259c4dc930c23e7423b8fa52e13232c061a6e488729c66184f4910160405180910390a150600380546001600160a01b0319166001600160a01b0392909216919091179055565b806001600160a01b0381166130fc5760405162461bcd60e51b815260206004820152601c60248201527f45786368616e6765526f757465723a207a65726f2061646472657373000000006044820152606401610dcb565b600554604080516001600160a01b03928316815291841660208301527ffa021c2ec0f46429a53e7f88b88065e40001f50c9d38b2e8b713beaf9828d4c3910160405180910390a150600580546001600160a01b0319166001600160a01b0392909216919091179055565b806001600160a01b0381166131bd5760405162461bcd60e51b815260206004820152601c60248201527f45786368616e6765526f757465723a207a65726f2061646472657373000000006044820152606401610dcb565b600754604080516001600160a01b03928316815291841660208301527f567657fa3f286518b318f4a29870674f433f622fdfc819691acb13105b228225910160405180910390a150600780546001600160a01b0319166001600160a01b0392909216919091179055565b60a954604080516001600160a01b03928316815291831660208301527f4da8064030e901e42f6de0ab04f4c322d7936d0120503addfe8a51f127090689910160405180910390a160a980546001600160a01b0319166001600160a01b0392909216919091179055565b603d80546001600160a01b038381166001600160a01b0319831681179093556040519116919082907f8be0079c531659141344cd1fd0a4f28419497f9722a3daafe3b4186f6b6457e090600090a35050565b600060606001548360000151148061336157508251600090815260a56020526040812060a0850151805191929161331b90600190614916565b8151811061333957634e487b7160e01b600052603260045260246000fd5b6020908102919091018101516001600160a01b031682528101919091526040016000205460ff165b1561372e5760065460c08401516060850151604090810151905163095ea7b360e01b81526001600160a01b039283166004820152602481019190915291169063095ea7b390604401602060405180830381600087803b1580156133c357600080fd5b505af11580156133d7573d6000803e3d6000fd5b505050506040513d601f19601f820116820180604052508101906133fb9190613f5e565b5060c083015160a08401516040517f9b4bca240000000000000000000000000000000000000000000000000000000081526001600160a01b0390921691639b4bca249161344a91600401614639565b60206040518083038186803b15801561346257600080fd5b505afa158015613476573d6000803e3d6000fd5b505050506040513d601f19601f8201168201806040525081019061349a9190613f5e565b156137295760065460a084015180516001600160a01b03909216916000906134d257634e487b7160e01b600052603260045260246000fd5b60200260200101516001600160a01b03161480156135795750604083015160e00151805161350290600190614916565b8151811061352057634e487b7160e01b600052603260045260246000fd5b60200260200101516001600160a01b03168360a0015160018560a00151516135489190614916565b8151811061356657634e487b7160e01b600052603260045260246000fd5b60200260200101516001600160a01b0316145b6135c55760405162461bcd60e51b815260206004820152601e60248201527f436345786368616e6765526f757465723a20696e76616c6964207061746800006044820152606401610dcb565b60c08301516060840151604090810151818601518083015160a0880151608090920151935163161779b160e31b81526001600160a01b039095169463b0bbcd88946136199493914290600190600401614812565b600060405180830381600087803b15801561363357600080fd5b505af1158015613647573d6000803e3d6000fd5b505050506040513d6000823e601f3d908101601f1916820160405261366f9190810190613f78565b9092509050816137295760c08301516060840151604090810151818601518083015160e0820151608090920151935163161779b160e31b81526001600160a01b039095169463b0bbcd88946136cd9493914290600190600401614812565b600060405180830381600087803b1580156136e757600080fd5b505af11580156136fb573d6000803e3d6000fd5b505050506040513d6000823e601f3d908101601f191682016040526137239190810190613f78565b90925090505b613733565b600091505b81156139d2576000670de0b6b3a7640000846060015160600151836001855161375c9190614916565b8151811061377a57634e487b7160e01b600052603260045260246000fd5b602002602001015161378c91906148f7565b61379691906148d7565b905060006040518060a00160405280866040015160a001518152602001866060015160e001518152602001866060015160a001518152602001866060015160c0015181526020018381525090506137ea3390565b60408087015161012081015160809091015160055460208a0151935163626885b560e11b81526001600160a01b03958616959394928416937f83f3c3e82621afa914bb49ee3bc3bcadb1d41b3d6f836aa437172cbb3d4dbb6e9392169163c4d10b6a9161385a9190600401614660565b60206040518083038186803b15801561387257600080fd5b505afa158015613886573d6000803e3d6000fd5b505050506040513d601f19601f820116820180604052508101906138aa9190613f42565b604080518082019091526006546001600160a01b0316815260a08b015180516020830191906138db90600190614916565b815181106138f957634e487b7160e01b600052603260045260246000fd5b60200260200101516001600160a01b03166001600160a01b031681525060405180604001604052808a60008151811061394257634e487b7160e01b600052603260045260246000fd5b60200260200101518152602001898b60018d5161395f9190614916565b8151811061397d57634e487b7160e01b600052603260045260246000fd5b602002602001015161398f9190614916565b8152508b608001518c60400151600001518d60600151608001518a8f600001516040516139c398979695949392919061459c565b60405180910390a45050611a79565b60006040518060a00160405280856040015160a001518152602001856060015160e001518152602001856060015160a001518152602001856060015160c00151815260200160008152509050613a253390565b6040808601516101208101516080909101516005546020890151935163626885b560e11b81526001600160a01b03958616959394928416937f4bdbd9bfa84241c4a39e7be48e0a8678cfbecfbcfae5d87f01b13de30b8c9e9a9392169163c4d10b6a91613a959190600401614660565b60206040518083038186803b158015613aad57600080fd5b505afa158015613ac1573d6000803e3d6000fd5b505050506040513d601f19601f82011682018060405250810190613ae59190613f42565b604080518082019091526006546001600160a01b0316815260a08a01518051602083019190613b1690600190614916565b81518110613b3457634e487b7160e01b600052603260045260246000fd5b60200260200101516001600160a01b03166001600160a01b031681525060405180604001604052808b6060015160400151815260200160008152508a608001518b60400151600001518c60600151608001518a8e60000151604051613ba098979695949392919061459c565b60405180910390a450915091565b60a85460405163095ea7b360e01b81526001600160a01b039182166004820152602481018590529085169063095ea7b390604401602060405180830381600087803b158015613bfc57600080fd5b505af1158015613c10573d6000803e3d6000fd5b505050506040513d601f19601f82011682018060405250810190613c349190613f5e565b5060a8546001600160a01b0316631186ec33838686613c528a610c08565b6040516001600160e01b031960e087901b1681526001600160a01b03948516600482015293909216602484015260448301526064820152600784900b608482015263ffffffff421660a482015261010060c482015260026101048201527f307800000000000000000000000000000000000000000000000000000000000061012482015260001960e482015261014401600060405180830381600087803b158015613cfc57600080fd5b505af1158015612bba573d6000803e3d6000fd5b600a54610100900460ff16613d7b5760405162461bcd60e51b815260206004820152602b60248201527f496e697469616c697a61626c653a20636f6e7472616374206973206e6f74206960448201526a6e697469616c697a696e6760a81b6064820152608401610dcb565b610f0033613290565b600a54610100900460ff166121b15760405162461bcd60e51b815260206004820152602b60248201527f496e697469616c697a61626c653a20636f6e7472616374206973206e6f74206960448201526a6e697469616c697a696e6760a81b6064820152608401610dcb565b600082601f830112613dff578081fd5b81356020613e14613e0f8361488b565b61485a565b8281528181019085830183850287018401881015613e30578586fd5b855b85811015613e57578135613e4581614985565b84529284019290840190600101613e32565b5090979650505050505050565b80518015158114610c1b57600080fd5b80356001600160e01b031981168114610c1b57600080fd5b60008083601f840112613e9d578182fd5b50813567ffffffffffffffff811115613eb4578182fd5b602083019150836020828501011115613ecc57600080fd5b9250929050565b600082601f830112613ee3578081fd5b8135613ef1613e0f826148af565b818152846020838601011115613f05578283fd5b816020850160208301379081016020019190915292915050565b600060208284031215613f30578081fd5b8135613f3b81614985565b9392505050565b600060208284031215613f53578081fd5b8151613f3b81614985565b600060208284031215613f6f578081fd5b613f3b82613e64565b60008060408385031215613f8a578081fd5b613f9383613e64565b915060208084015167ffffffffffffffff811115613faf578283fd5b8401601f81018613613fbf578283fd5b8051613fcd613e0f8261488b565b81815283810190838501858402850186018a1015613fe9578687fd5b8694505b8385101561400b578051835260019490940193918501918501613fed565b5080955050505050509250929050565b60006020828403121561402c578081fd5b5035919050565b600060208284031215614044578081fd5b5051919050565b6000806040838503121561405d578182fd5b82359150602083013561406f81614985565b809150509250929050565b6000806000806080858703121561408f578182fd5b84519350602080860151935060408601519250606086015167ffffffffffffffff8111156140bb578283fd5b8601601f810188136140cb578283fd5b80516140d9613e0f8261488b565b81815283810190838501858402850186018c10156140f5578687fd5b8694505b8385101561412057805161410c81614985565b8352600194909401939185019185016140f9565b50979a9699509497505050505050565b60008060008060808587031215614145578182fd5b8451935060208501516141578161499a565b604086015190935067ffffffffffffffff811115614173578283fd5b8501601f81018713614183578283fd5b8051614191613e0f826148af565b8181528860208385010111156141a5578485fd5b6141b682602083016020860161492d565b60609790970151959894975050505050565b600080600080608085870312156141dd578182fd5b843567ffffffffffffffff8111156141f3578283fd5b6141ff87828801613ed3565b9450506020850135925060408501359150606085013561421e8161499a565b939692955090935050565b60008060008060008060a08789031215614241578384fd5b863567ffffffffffffffff80821115614258578586fd5b6142648a838b01613ed3565b97506020890135965060408901359550606089013591506142848261499a565b90935060808801359080821115614299578384fd5b506142a689828a01613e8c565b979a9699509497509295939492505050565b600080600080606085870312156142cd578182fd5b843567ffffffffffffffff808211156142e4578384fd5b9086019060e082890312156142f7578384fd5b61430160e061485a565b61430a83613e74565b815260208301358281111561431d578586fd5b6143298a828601613ed3565b602083015250604083013582811115614340578586fd5b61434c8a828601613ed3565b60408301525061435e60608401613e74565b60608201526080830135608082015260a08301358281111561437e578586fd5b61438a8a828601613ed3565b60a08301525060c083013560c08201528096505060208701359150808211156143b1578384fd5b6143bd88838901613e8c565b909550935060408701359150808211156143d5578283fd5b506143e287828801613def565b91505092959194509250565b60008060408385031215614400578182fd5b50508035926020909101359150565b600080600060608486031215614423578081fd5b505081359360208301359350604090920135919050565b60008060008060008060008060006101208a8c031215614458578687fd5b8935985060208a0135975060408a0135965060608a013561447881614985565b955060808a013561448881614985565b945060a08a013561449881614985565b935060c08a01356144a881614985565b925060e08a01356144b881614985565b91506101008a01356144c981614985565b809150509295985092959850929598565b6000815180845260208085019450808401835b838110156145125781516001600160a01b0316875295820195908201906001016144ed565b509495945050505050565b8060005b6005811015614540578151845260209384019390910190600101614521565b50505050565b60008284528282602086013780602084860101526020601f19601f85011685010190509392505050565b6000815180845261458881602086016020860161492d565b601f01601f19169290920160200192915050565b6001600160a01b0389811682526101c082019060208084018b60005b60028110156145d75781518516835291830191908301906001016145b8565b5050506060840191508960005b6002811015614601578151845292820192908201906001016145e4565b505050508660a08301528560c08301528460e083015261462561010083018561451d565b826101a08301529998505050505050505050565b600060208252613f3b60208301846144da565b600060208252610e71602083018486614546565b600060208252613f3b6020830184614570565b6000606082526146866060830186614570565b6001600160a01b039490941660208301525060400152919050565b600061010082526001600160e01b03198b511661010083015260208b015160e06101208401526146d56101e0840182614570565b905060408c015160ff1980858403016101408601526146f48383614570565b92506001600160e01b031960608f01511661016086015260808e015161018086015260a08e0151915080858403016101a0860152506147338282614570565b91505060c08c01516101c08401528a6020840152896040840152614762606084018a6001600160a01b03169052565b6001600160a01b03881660808401528660a084015282810360c084015261478a818688614546565b9150506147a260e08301846001600160a01b03169052565b9a9950505050505050505050565b600087825260a060208301526147c960a0830188614570565b600687106147e557634e487b7160e01b82526021600452602482fd5b86604084015282810360608401526147fe818688614546565b915050826080830152979650505050505050565b600087825286602083015260c0604083015261483160c08301876144da565b6001600160a01b03959095166060830152506080810192909252151560a0909101529392505050565b604051601f8201601f1916810167ffffffffffffffff811182821017156148835761488361496f565b604052919050565b600067ffffffffffffffff8211156148a5576148a561496f565b5060209081020190565b600067ffffffffffffffff8211156148c9576148c961496f565b50601f01601f191660200190565b6000826148f257634e487b7160e01b81526012600452602481fd5b500490565b600081600019048311821515161561491157614911614959565b500290565b60008282101561492857614928614959565b500390565b60005b83811015614948578181015183820152602001614930565b838111156145405750506000910152565b634e487b7160e01b600052601160045260246000fd5b634e487b7160e01b600052604160045260246000fd5b6001600160a01b0381168114610b6657600080fd5b60ff81168114610b6657600080fdfea26469706673582212200e404991d38accaeac59c33741b6f69b88f8b0a67aa6bc62e44ea4463214b52d64736f6c63430008020033",
  "deployedBytecode": "0x60806040526004361061032d5760003560e01c80637f0f1817116101a5578063a9ac5919116100ec578063cbf50bb611610095578063e45b5c291161006f578063e45b5c2914610aba578063ea2979ee14610af5578063f0f4426014610b15578063f2fde38b14610b3557610334565b8063cbf50bb614610a5a578063da058ae314610a7a578063e35a0a8814610a9a57610334565b8063b59589d1116100c6578063b59589d1146109a7578063bd51aaa3146109c7578063c805f68b14610a3a57610334565b8063a9ac591914610931578063a9b6827114610951578063b14d35321461098757610334565b80638da5cb5b1161014e57806393c5c73a1161012857806393c5c73a146108db5780639a8a0592146108fb578063a015f99c1461091157610334565b80638da5cb5b146108145780638f9eb78b14610832578063913967d31461085257610334565b8063870ba6cf1161017f578063870ba6cf146107b45780638d3d78cd146107d45780638d5fc1d4146107f457610334565b80637f0f18171461075457806380615bb91461077457806380bc47261461079457610334565b8063527b42a6116102745780636c32b2ec1161021d578063715018a6116101f7578063715018a6146106d157806375979f79146106e65780637a218135146107215780637ed557481461073457610334565b80636c32b2ec146106655780636e8adf611461068557806370872aa5146106bb57610334565b806361be10f21161024e57806361be10f21461060557806361d027b3146106255780636b2857ef1461064557610334565b8063527b42a61461059857806359fd0b0c146105b857806361849f75146105e557610334565b8063292c1d92116102d65780634e63ba95116102b05780634e63ba95146104ef5780635221c1f0146105385780635279feed1461057857610334565b8063292c1d921461049957806333fe5676146104b957806342b5dcd0146104d957610334565b80631876dec4116103075780631876dec4146104375780631dc4b09c146104575780631e7107c71461047957610334565b806306be8b0e1461033957806317fcb39b146103db5780631812adb61461041357610334565b3661033457005b600080fd5b34801561034557600080fd5b5061039b61035436600461401b565b60a76020526000908152604090208054600182015460028301546003840154600485015460058601546006870154600790970154959660ff90951695939492939192909188565b604080519889529615156020890152958701949094526060860192909252608085015260a084015260c083015260e0820152610100015b60405180910390f35b3480156103e757600080fd5b5060a9546103fb906001600160a01b031681565b6040516001600160a01b0390911681526020016103d2565b34801561041f57600080fd5b5061042960025481565b6040519081526020016103d2565b34801561044357600080fd5b506005546103fb906001600160a01b031681565b34801561046357600080fd5b50610477610472366004613f1f565b610b55565b005b34801561048557600080fd5b5061047761049436600461401b565b610b69565b3480156104a557600080fd5b5060a8546103fb906001600160a01b031681565b3480156104c557600080fd5b506104776104d436600461404b565b610b7a565b3480156104e557600080fd5b5061042960a15481565b3480156104fb57600080fd5b5061052361050a36600461401b565b60ab602052600090815260409020805460019091015482565b604080519283526020830191909152016103d2565b34801561054457600080fd5b5061056861055336600461401b565b60a66020526000908152604090205460ff1681565b60405190151581526020016103d2565b34801561058457600080fd5b5061047761059336600461440f565b610bf0565b3480156105a457600080fd5b506104296105b336600461401b565b610c08565b3480156105c457600080fd5b506104296105d336600461401b565b60ac6020526000908152604090205481565b3480156105f157600080fd5b506105686106003660046141c8565b610c20565b34801561061157600080fd5b50610477610620366004613f1f565b610e79565b34801561063157600080fd5b506007546103fb906001600160a01b031681565b34801561065157600080fd5b5061047761066036600461404b565b610e8a565b34801561067157600080fd5b5060aa546103fb906001600160a01b031681565b34801561069157600080fd5b506103fb6106a036600461401b565b6008602052600090815260409020546001600160a01b031681565b3480156106c757600080fd5b5061042960005481565b3480156106dd57600080fd5b50610477610ef8565b3480156106f257600080fd5b5061056861070136600461404b565b60a560209081526000928352604080842090915290825290205460ff1681565b61056861072f3660046142b8565b610f02565b34801561074057600080fd5b5061047761074f36600461401b565b61170f565b34801561076057600080fd5b5061047761076f366004613f1f565b611720565b34801561078057600080fd5b5061056861078f366004614229565b611731565b3480156107a057600080fd5b506105686107af36600461401b565b611a00565b3480156107c057600080fd5b506104776107cf366004613f1f565b611a29565b3480156107e057600080fd5b506006546103fb906001600160a01b031681565b34801561080057600080fd5b5061047761080f36600461404b565b611a3a565b34801561082057600080fd5b50603d546001600160a01b03166103fb565b34801561083e57600080fd5b5061047761084d3660046143ee565b611a50565b34801561085e57600080fd5b506108a961086d36600461401b565b60a4602052600090815260409020805460018201546002830154600384015460049094015492936001600160a01b039092169290919060ff1685565b604080519586526001600160a01b0390941660208601529284019190915260608301521515608082015260a0016103d2565b3480156108e757600080fd5b506105236108f636600461401b565b611a62565b34801561090757600080fd5b5061042960015481565b34801561091d57600080fd5b5061047761092c36600461443a565b611a7e565b34801561093d57600080fd5b5061047761094c36600461404b565b611c15565b34801561095d57600080fd5b506103fb61096c36600461401b565b60ad602052600090815260409020546001600160a01b031681565b34801561099357600080fd5b506104776109a2366004613f1f565b611c8e565b3480156109b357600080fd5b506003546103fb906001600160a01b031681565b3480156109d357600080fd5b50610a176109e236600461404b565b60a260209081526000928352604080842090915290825290208054600182015460029092015490916001600160a01b03169083565b604080519384526001600160a01b039092166020840152908201526060016103d2565b348015610a4657600080fd5b50610477610a55366004613f1f565b611c9f565b348015610a6657600080fd5b50610477610a7536600461401b565b611cb0565b348015610a8657600080fd5b50610477610a95366004613f1f565b611d03565b348015610aa657600080fd5b506004546103fb906001600160a01b031681565b348015610ac657600080fd5b50610429610ad536600461404b565b60a360209081526000928352604080842090915290825290206001015481565b348015610b0157600080fd5b50610477610b1036600461401b565b611d14565b348015610b2157600080fd5b50610477610b30366004613f1f565b611d6a565b348015610b4157600080fd5b50610477610b50366004613f1f565b611d7b565b610b5d611e08565b610b6681611e62565b50565b610b71611e08565b610b6681611f23565b610b82611e08565b604080518381526001600160a01b03831660208201527fb3036f81a7a8205f3b94de16897df636d553839d92289fb7ec72dd2d54132842910160405180910390a1600091825260a5602090815260408084206001600160a01b0390931684529190529020805460ff19169055565b610bf8611e08565b610c03828285611f9f565b505050565b600081815260ab60205260409020600101545b919050565b6000610c2a61200c565b60008060008088806020019051810190610c44919061407a565b600084815260096020908152604080832081516101608101835281548152600182015481850152600282015481840152600382015460ff808216151560608401526101009091046001600160a01b03166080830152600483015460a0830152600583015416151560c0820152600682018054845181870281018701909552808552999d50979b5095995093975091959394929360e086019391830182828015610d1657602002820191906000526020600020905b81546001600160a01b03168152600190910190602001808311610cf8575b505050505081526020016007820154815260200160088201548152602001600982015481525050905060015460a760008781526020019081526020016000206000015414158015610d795750600085815260a7602052604090206001015460ff16155b610dd45760405162461bcd60e51b815260206004820152602160248201527f45786368616e6765526f757465723a20616c72656164792070726f63657373656044820152601960fa1b60648201526084015b60405180910390fd5b600085815260a7602052604090206001908101805460ff1916909117905560808101516001600160a01b0316610e0c8b8b8b8b612066565b6001600160a01b031614610e625760405162461bcd60e51b815260206004820152601e60248201527f45786368616e6765526f757465723a20696e76616c6964207369676e657200006044820152606401610dcb565b5050505050610e716001606f55565b949350505050565b610e81611e08565b610b66816121b8565b610e92611e08565b60008281526008602090815260409182902080546001600160a01b0319166001600160a01b0385169081179091558251858152918201527f31a8c4e62daac2a3ed5d713004d9ae867d6dcddfa35603db2a4b65d9236b1bc1910160405180910390a15050565b610f00611e08565b565b6000610f0c61200c565b6004546001600160a01b0316336001600160a01b031614610f6f5760405162461bcd60e51b815260206004820152601e60248201527f45786368616e6765526f757465723a20696e76616c69642073656e64657200006044820152606401610dcb565b60005485608001511015610fc55760405162461bcd60e51b815260206004820152601b60248201527f45786368616e6765526f757465723a206f6c64207265717565737400000000006044820152606401610dcb565b60608501516001600160e01b031916156110475760405162461bcd60e51b815260206004820152602160248201527f45786368616e6765526f757465723a206e6f6e2d7a65726f206c6f636b74696d60448201527f65000000000000000000000000000000000000000000000000000000000000006064820152608401610dcb565b6005546040517faff2faa30000000000000000000000000000000000000000000000000000000081526001600160a01b039091169063aff2faa390611092908790879060040161464c565b60206040518083038186803b1580156110aa57600080fd5b505afa1580156110be573d6000803e3d6000fd5b505050506040513d601f19601f820116820180604052508101906110e29190613f5e565b61112e5760405162461bcd60e51b815260206004820152601a60248201527f45786368616e6765526f757465723a206e6f74206c6f636b65720000000000006044820152606401610dcb565b600073__$5188ca1ef01dc999a9b560e2e2728f759b$__63dba71cdf87600960a7600660009054906101000a90046001600160a01b031660a960009054906101000a90046001600160a01b03166127108c8c600360009054906101000a90046001600160a01b03166040518a63ffffffff1660e01b81526004016111ba999897969594939291906146a1565b60206040518083038186803b1580156111d257600080fd5b505af41580156111e6573d6000803e3d6000fd5b505050506040513d601f19601f8201168201806040525081019061120a9190614033565b9050826001845161121b9190614916565b8151811061123957634e487b7160e01b600052603260045260246000fd5b60200260200101516001600160a01b03166009600083815260200190815260200160002060060160018154811061128057634e487b7160e01b600052603260045260246000fd5b6000918252602090912001546001600160a01b0316146112e25760405162461bcd60e51b815260206004820152601a60248201527f45786368616e6765526f757465723a2077726f6e6720706174680000000000006044820152606401610dcb565b600081815260a7602052604081205481906112fc90611a62565b9150915060015482146113515760405162461bcd60e51b815260206004820152601b60248201527f45786368616e6765526f757465723a2077726f6e6720636861696e00000000006044820152606401610dcb565b600081815260a6602052604090205460ff166113af5760405162461bcd60e51b815260206004820181905260248201527f45786368616e6765526f757465723a20696e76616c696420636861696e2069646044820152606401610dcb565b8082141561143c57600083815260a760205260409020600301541561143c5760405162461bcd60e51b815260206004820152602260248201527f45786368616e6765526f757465723a20696e76616c696420627264696765206660448201527f65650000000000000000000000000000000000000000000000000000000000006064820152608401610dcb565b600083815260096020908152604080832081516101608101835281548152600182015481850152600282015481840152600382015460ff808216151560608401526101009091046001600160a01b03166080830152600483015460a0830152600583015416151560c08201526006820180548451818702810187019095528085529194929360e086019390929083018282801561150257602002820191906000526020600020905b81546001600160a01b031681526001909101906020018083116114e4575b505050918352505060078201546020808301919091526008808401546040808501919091526009909401546060909301929092528351600090815291905220549091506001600160a01b03168061159b5760405162461bcd60e51b815260206004820152601d60248201527f45786368616e6765526f757465723a20696e76616c69642061707049640000006044820152606401610dcb565b6115dc89898080601f016020809104026020016040519081016040528093929190818152602001838380828437600092019190915250899250612279915050565b610120820151156116555760405162461bcd60e51b815260206004820152602760248201527f45786368616e6765526f757465723a2066696c6c6572206973206e6f7420737560448201527f70706f72746564000000000000000000000000000000000000000000000000006064820152608401610dcb565b6001548314156116a8576116a3818a8a8080601f0160208091040260200160405190810160405280939291908181526020018383808284376000920191909152508a92508c915061265b9050565b6116fc565b6116fc818a8a8080601f01602080910402602001604051908101604052809392919081815260200183838082843760009201829052508b815260a760205260409020600301548b93508d92509050886128b9565b600195505050505050610e716001606f55565b611717611e08565b610b6681612bc6565b611728611e08565b610b6681612c7f565b600061173b61200c565b6000806000808a8060200190518101906117559190614130565b600154600085815260a760205260409020549498509296509094509250148015906117925750600084815260a7602052604090206001015460ff16155b6117e85760405162461bcd60e51b815260206004820152602160248201527f45786368616e6765526f757465723a20616c72656164792070726f63657373656044820152601960fa1b6064820152608401610dcb565b600084815260a7602090815260408083206001908101805460ff19169091179055600990915290206003015461010090046001600160a01b031661182e8c8c8c8c612066565b6001600160a01b0316146118845760405162461bcd60e51b815260206004820152601e60248201527f45786368616e6765526f757465723a20696e76616c6964207369676e657200006044820152606401610dcb565b60065460aa54600086815260a760205260409081902060020154905163095ea7b360e01b81526001600160a01b039283166004820152602481019190915291169063095ea7b390604401602060405180830381600087803b1580156118e857600080fd5b505af11580156118fc573d6000803e3d6000fd5b505050506040513d601f19601f820116820180604052508101906119209190613f5e565b5060aa54600085815260a760205260409020600201546001600160a01b0390911690633fea4367908460ff8716600581111561196c57634e487b7160e01b600052602160045260246000fd5b8b8b60006040518763ffffffff1660e01b8152600401611991969594939291906147b0565b602060405180830381600087803b1580156119ab57600080fd5b505af11580156119bf573d6000803e3d6000fd5b505050506040513d601f19601f820116820180604052508101906119e39190614033565b5060019450505050506119f66001606f55565b9695505050505050565b60008181526009602052604081206005015460ff16611a20576000611a23565b60015b92915050565b611a31611e08565b610b6681612d40565b611a42611e08565b611a4c8282612e01565b5050565b611a58611e08565b611a4c8282612e9d565b600081815260ab6020526040902080546001909101545b915091565b600a54610100900460ff1615808015611a9e5750600a54600160ff909116105b80611ab85750303b158015611ab85750600a5460ff166001145b611b2a5760405162461bcd60e51b815260206004820152602e60248201527f496e697469616c697a61626c653a20636f6e747261637420697320616c72656160448201527f647920696e697469616c697a65640000000000000000000000000000000000006064820152608401610dcb565b600a805460ff191660011790558015611b4d57600a805461ff0019166101001790555b611b55612efe565b611b5d612f71565b6001888155600089815260a660205260409020805460ff19169091179055611b848a611f23565b611b8d89612bc6565b611b9686612fe4565b611b9f876130a5565b611ba885612c7f565b611bb184613166565b611bba836121b8565b611bc382611e62565b8015611c0957600a805461ff0019169055604051600181527f7f26b83ff96e1f2b6a682f133852f6798a09c465da95921460cefb38474024989060200160405180910390a15b50505050505050505050565b611c1d611e08565b604080518381526001600160a01b03831660208201527fca37a60f79854243dcab36b6ad6fcaafc7ae13448087ee70547943babc7dccf0910160405180910390a1600091825260a5602090815260408084206001600160a01b0390931684529190529020805460ff19166001179055565b611c96611e08565b610b66816130a5565b611ca7611e08565b610b6681612fe4565b611cb8611e08565b6040518181527f11a9d1a77f76361ed131c19b1dc5758504c51dbde2e49fc973a0ef9577ad13d59060200160405180910390a1600090815260a660205260409020805460ff19169055565b611d0b611e08565b610b6681613227565b611d1c611e08565b6040518181527fbba9d55e9fd1a441b1617724e2fdb76777d15ec77ab2b72ac15952cbe97085db9060200160405180910390a1600090815260a660205260409020805460ff19166001179055565b611d72611e08565b610b6681613166565b611d83611e08565b6001600160a01b038116611dff5760405162461bcd60e51b815260206004820152602660248201527f4f776e61626c653a206e6577206f776e657220697320746865207a65726f206160448201527f64647265737300000000000000000000000000000000000000000000000000006064820152608401610dcb565b610b6681613290565b603d546001600160a01b03163314610f005760405162461bcd60e51b815260206004820181905260248201527f4f776e61626c653a2063616c6c6572206973206e6f7420746865206f776e65726044820152606401610dcb565b806001600160a01b038116611eb95760405162461bcd60e51b815260206004820152601c60248201527f45786368616e6765526f757465723a207a65726f2061646472657373000000006044820152606401610dcb565b60aa54604080516001600160a01b03928316815291841660208301527f5b663d57fa8cf393f8c8019f514b25c1b3223c9324a2ce3efe28ce5aef0e62fe910160405180910390a15060aa80546001600160a01b0319166001600160a01b0392909216919091179055565b6000548111611f9a5760405162461bcd60e51b815260206004820152602960248201527f434345786368616e6765526f757465723a206c6f77207374617274696e67426c60448201527f6f636b4e756d62657200000000000000000000000000000000000000000000006064820152608401610dcb565b600055565b60408051828152602081018590529081018390527fd4d81e1736e6dd2e97d0c6eff0dc7ec7184dec2bd4e03ce98d84d6057a8045c49060600160405180910390a16040805180820182529384526020808501938452600092835260ab905290209151825551600190910155565b6002606f54141561205f5760405162461bcd60e51b815260206004820152601f60248201527f5265656e7472616e637947756172643a207265656e7472616e742063616c6c006044820152606401610dcb565b6002606f55565b600080858051906020012090506000816040516020016120b291907f19457468657265756d205369676e6564204d6573736167653a0a3332000000008152601c810191909152603c0190565b60408051601f198184030181528282528051602091820120600080855291840180845281905260ff88169284019290925260608301899052608083018890529092509060019060a0016020604051602081039080840390855afa15801561211d573d6000803e3d6000fd5b5050604051601f1901519150506001600160a01b0381166121a65760405162461bcd60e51b815260206004820152602260248201527f506f6c79676f6e436f6e6e6563746f724c6f6769633a20496e76616c6964207360448201527f69670000000000000000000000000000000000000000000000000000000000006064820152608401610dcb565b979650505050505050565b6001606f55565b806001600160a01b03811661220f5760405162461bcd60e51b815260206004820152601c60248201527f45786368616e6765526f757465723a207a65726f2061646472657373000000006044820152606401610dcb565b60a854604080516001600160a01b03928316815291841660208301527f06e5f2ca1234f717a2031f662608c02182d4f8bdc3dab013ec4c04eb97553132910160405180910390a15060a880546001600160a01b0319166001600160a01b0392909216919091179055565b6005546000828152600960205260408082206001015490517f1fcfe19c00000000000000000000000000000000000000000000000000000000815291926001600160a01b031691631fcfe19c916122d69187913091600401614673565b602060405180830381600087803b1580156122f057600080fd5b505af1158015612304573d6000803e3d6000fd5b505050506040513d601f19601f820116820180604052508101906123289190614033565b6002546000848152600960205260409020600101549192506127109161234e91906148f7565b61235891906148d7565b600083815260a76020908152604080832060058101949094556009808352818420600480820154960154855260ac8452918420549387905290915260010154612710916123a4916148f7565b6123ae91906148d7565b600084815260a760209081526040808320600601939093556009905220600101546123da908390614916565b600084815260a760205260409020600701558015612486576006546001600160a01b031663a9059cbb336040516001600160e01b031960e084901b1681526001600160a01b03909116600482015260248101849052604401602060405180830381600087803b15801561244c57600080fd5b505af1158015612460573d6000803e3d6000fd5b505050506040513d601f19601f820116820180604052508101906124849190613f5e565b505b600083815260a760205260409020600501541561253b57600654600754600085815260a760205260409081902060050154905163a9059cbb60e01b81526001600160a01b039283166004820152602481019190915291169063a9059cbb90604401602060405180830381600087803b15801561250157600080fd5b505af1158015612515573d6000803e3d6000fd5b505050506040513d601f19601f820116820180604052508101906125399190613f5e565b505b600083815260a76020526040902060060154156126075760068054600085815260a760208181526040808420600480820154865260ad845282862054958b905293909252940154935163a9059cbb60e01b81526001600160a01b03928316918101919091526024810193909352169063a9059cbb90604401602060405180830381600087803b1580156125cd57600080fd5b505af11580156125e1573d6000803e3d6000fd5b505050506040513d601f19601f820116820180604052508101906126059190613f5e565b505b600083815260a7602052604090206006810154600590910154829061262c9085614916565b6126369190614916565b6126409190614916565b600093845260a7602052604090932060020192909255505050565b6040805160e080820183526001805483526020808401889052600087815260098252858120865161016081018852815481529381015484840152600281015484880152600381015460ff808216151560608701526101009091046001600160a01b03166080860152600482015460a0860152600582015416151560c08501526006810180548851818602810186018a52818152939889986127f9989097918801969195908601939092909183018282801561273f57602002820191906000526020600020905b81546001600160a01b03168152600190910190602001808311612721575b5050509183525050600782810154602080840191909152600884015460408085019190915260099094015460609384015293855260008b815260a7855283902083516101008101855281548152600182015460ff161515818701526002820154818601526003820154818501526004820154608080830191909152600583015460a0830152600683015460c0830152919092015460e08301529385015290830189905282018790526001600160a01b038a169101526132e2565b91509150816128b15760065460008581526009602090815260408083206003015460a79092529182902060020154915163a9059cbb60e01b81526101009091046001600160a01b039081166004830152602482019290925291169063a9059cbb90604401602060405180830381600087803b15801561287757600080fd5b505af115801561288b573d6000803e3d6000fd5b505050506040513d601f19601f820116820180604052508101906128af9190613f5e565b505b505050505050565b6040805160e08082018352838252602080830189905260008881526009825284812085516101608101875281548152600182015481850152600282015481880152600382015460ff808216151560608401526101009091046001600160a01b03166080830152600483015460a0830152600583015416151560c08201526006820180548851818702810187018a5281815294988998612a5698909791880196949594908601939092909183018282801561299c57602002820191906000526020600020905b81546001600160a01b0316815260019091019060200180831161297e575b5050509183525050600782810154602080840191909152600884015460408085019190915260099094015460609384015293855260008d815260a7855283902083516101008101855281548152600182015460ff161515818701526002820154818601526003820154818501526004820154608080830191909152600583015460a0830152600683015460c0830152919092015460e0830152938501529083018b905282018990526001600160a01b038c169101526132e2565b915091508115612b2157600086815260a7602052604090206001818101805460ff19168217905590548651612b1c928891612a919190614916565b81518110612aaf57634e487b7160e01b600052603260045260246000fd5b60200260200101518360018551612ac69190614916565b81518110612ae457634e487b7160e01b600052603260045260246000fd5b6020026020010151600960008b815260200190815260200160002060030160019054906101000a90046001600160a01b031688613bae565b612bbc565b600654600087815260a760205260409081902060020154905163095ea7b360e01b81526001600160a01b038b81166004830152602482019290925291169063095ea7b390604401602060405180830381600087803b158015612b8257600080fd5b505af1158015612b96573d6000803e3d6000fd5b505050506040513d601f19601f82011682018060405250810190612bba9190613f5e565b505b5050505050505050565b806127101015612c3e5760405162461bcd60e51b815260206004820152602560248201527f434345786368616e6765526f757465723a20666565206973206f7574206f662060448201527f72616e67650000000000000000000000000000000000000000000000000000006064820152608401610dcb565b60025460408051918252602082018390527f7d205f60891f60851c61cd244ba387d72b6589e7c0ac41b9d909ab0ce2c2a53b910160405180910390a1600255565b806001600160a01b038116612cd65760405162461bcd60e51b815260206004820152601c60248201527f45786368616e6765526f757465723a207a65726f2061646472657373000000006044820152606401610dcb565b600654604080516001600160a01b03928316815291841660208301527f36a4c08a38b736dcecb6c328dba61238529620e83ccb23db2cc43cd34ec26096910160405180910390a150600680546001600160a01b0319166001600160a01b0392909216919091179055565b806001600160a01b038116612d975760405162461bcd60e51b815260206004820152601c60248201527f45786368616e6765526f757465723a207a65726f2061646472657373000000006044820152606401610dcb565b600454604080516001600160a01b03928316815291841660208301527f12ad124e13af4c31364ad22aa74320e167b37f005dafb75d71a210c49da3629e910160405180910390a150600480546001600160a01b0319166001600160a01b0392909216919091179055565b600082815260ad6020526040908190205490517f1e73962bcff5b98a9ac70c9b0f71fbb31dc0f5a09348c6d3ceab164169a9e72991612e679185916001600160a01b03169085909283526001600160a01b03918216602084015216604082015260600190565b60405180910390a1600091825260ad602052604090912080546001600160a01b0319166001600160a01b03909216919091179055565b600082815260ac6020908152604091829020548251858152918201529081018290527f188adabf806a6b6d814acc1dbd9f09e5a251c8c065d6285749a5824e4579b6459060600160405180910390a1600091825260ac602052604090912055565b600a54610100900460ff16612f695760405162461bcd60e51b815260206004820152602b60248201527f496e697469616c697a61626c653a20636f6e7472616374206973206e6f74206960448201526a6e697469616c697a696e6760a81b6064820152608401610dcb565b610f00613d10565b600a54610100900460ff16612fdc5760405162461bcd60e51b815260206004820152602b60248201527f496e697469616c697a61626c653a20636f6e7472616374206973206e6f74206960448201526a6e697469616c697a696e6760a81b6064820152608401610dcb565b610f00613d84565b806001600160a01b03811661303b5760405162461bcd60e51b815260206004820152601c60248201527f45786368616e6765526f757465723a207a65726f2061646472657373000000006044820152606401610dcb565b600354604080516001600160a01b03928316815291841660208301527f4c28a3f61a715259c4dc930c23e7423b8fa52e13232c061a6e488729c66184f4910160405180910390a150600380546001600160a01b0319166001600160a01b0392909216919091179055565b806001600160a01b0381166130fc5760405162461bcd60e51b815260206004820152601c60248201527f45786368616e6765526f757465723a207a65726f2061646472657373000000006044820152606401610dcb565b600554604080516001600160a01b03928316815291841660208301527ffa021c2ec0f46429a53e7f88b88065e40001f50c9d38b2e8b713beaf9828d4c3910160405180910390a150600580546001600160a01b0319166001600160a01b0392909216919091179055565b806001600160a01b0381166131bd5760405162461bcd60e51b815260206004820152601c60248201527f45786368616e6765526f757465723a207a65726f2061646472657373000000006044820152606401610dcb565b600754604080516001600160a01b03928316815291841660208301527f567657fa3f286518b318f4a29870674f433f622fdfc819691acb13105b228225910160405180910390a150600780546001600160a01b0319166001600160a01b0392909216919091179055565b60a954604080516001600160a01b03928316815291831660208301527f4da8064030e901e42f6de0ab04f4c322d7936d0120503addfe8a51f127090689910160405180910390a160a980546001600160a01b0319166001600160a01b0392909216919091179055565b603d80546001600160a01b038381166001600160a01b0319831681179093556040519116919082907f8be0079c531659141344cd1fd0a4f28419497f9722a3daafe3b4186f6b6457e090600090a35050565b600060606001548360000151148061336157508251600090815260a56020526040812060a0850151805191929161331b90600190614916565b8151811061333957634e487b7160e01b600052603260045260246000fd5b6020908102919091018101516001600160a01b031682528101919091526040016000205460ff165b1561372e5760065460c08401516060850151604090810151905163095ea7b360e01b81526001600160a01b039283166004820152602481019190915291169063095ea7b390604401602060405180830381600087803b1580156133c357600080fd5b505af11580156133d7573d6000803e3d6000fd5b505050506040513d601f19601f820116820180604052508101906133fb9190613f5e565b5060c083015160a08401516040517f9b4bca240000000000000000000000000000000000000000000000000000000081526001600160a01b0390921691639b4bca249161344a91600401614639565b60206040518083038186803b15801561346257600080fd5b505afa158015613476573d6000803e3d6000fd5b505050506040513d601f19601f8201168201806040525081019061349a9190613f5e565b156137295760065460a084015180516001600160a01b03909216916000906134d257634e487b7160e01b600052603260045260246000fd5b60200260200101516001600160a01b03161480156135795750604083015160e00151805161350290600190614916565b8151811061352057634e487b7160e01b600052603260045260246000fd5b60200260200101516001600160a01b03168360a0015160018560a00151516135489190614916565b8151811061356657634e487b7160e01b600052603260045260246000fd5b60200260200101516001600160a01b0316145b6135c55760405162461bcd60e51b815260206004820152601e60248201527f436345786368616e6765526f757465723a20696e76616c6964207061746800006044820152606401610dcb565b60c08301516060840151604090810151818601518083015160a0880151608090920151935163161779b160e31b81526001600160a01b039095169463b0bbcd88946136199493914290600190600401614812565b600060405180830381600087803b15801561363357600080fd5b505af1158015613647573d6000803e3d6000fd5b505050506040513d6000823e601f3d908101601f1916820160405261366f9190810190613f78565b9092509050816137295760c08301516060840151604090810151818601518083015160e0820151608090920151935163161779b160e31b81526001600160a01b039095169463b0bbcd88946136cd9493914290600190600401614812565b600060405180830381600087803b1580156136e757600080fd5b505af11580156136fb573d6000803e3d6000fd5b505050506040513d6000823e601f3d908101601f191682016040526137239190810190613f78565b90925090505b613733565b600091505b81156139d2576000670de0b6b3a7640000846060015160600151836001855161375c9190614916565b8151811061377a57634e487b7160e01b600052603260045260246000fd5b602002602001015161378c91906148f7565b61379691906148d7565b905060006040518060a00160405280866040015160a001518152602001866060015160e001518152602001866060015160a001518152602001866060015160c0015181526020018381525090506137ea3390565b60408087015161012081015160809091015160055460208a0151935163626885b560e11b81526001600160a01b03958616959394928416937f83f3c3e82621afa914bb49ee3bc3bcadb1d41b3d6f836aa437172cbb3d4dbb6e9392169163c4d10b6a9161385a9190600401614660565b60206040518083038186803b15801561387257600080fd5b505afa158015613886573d6000803e3d6000fd5b505050506040513d601f19601f820116820180604052508101906138aa9190613f42565b604080518082019091526006546001600160a01b0316815260a08b015180516020830191906138db90600190614916565b815181106138f957634e487b7160e01b600052603260045260246000fd5b60200260200101516001600160a01b03166001600160a01b031681525060405180604001604052808a60008151811061394257634e487b7160e01b600052603260045260246000fd5b60200260200101518152602001898b60018d5161395f9190614916565b8151811061397d57634e487b7160e01b600052603260045260246000fd5b602002602001015161398f9190614916565b8152508b608001518c60400151600001518d60600151608001518a8f600001516040516139c398979695949392919061459c565b60405180910390a45050611a79565b60006040518060a00160405280856040015160a001518152602001856060015160e001518152602001856060015160a001518152602001856060015160c00151815260200160008152509050613a253390565b6040808601516101208101516080909101516005546020890151935163626885b560e11b81526001600160a01b03958616959394928416937f4bdbd9bfa84241c4a39e7be48e0a8678cfbecfbcfae5d87f01b13de30b8c9e9a9392169163c4d10b6a91613a959190600401614660565b60206040518083038186803b158015613aad57600080fd5b505afa158015613ac1573d6000803e3d6000fd5b505050506040513d601f19601f82011682018060405250810190613ae59190613f42565b604080518082019091526006546001600160a01b0316815260a08a01518051602083019190613b1690600190614916565b81518110613b3457634e487b7160e01b600052603260045260246000fd5b60200260200101516001600160a01b03166001600160a01b031681525060405180604001604052808b6060015160400151815260200160008152508a608001518b60400151600001518c60600151608001518a8e60000151604051613ba098979695949392919061459c565b60405180910390a450915091565b60a85460405163095ea7b360e01b81526001600160a01b039182166004820152602481018590529085169063095ea7b390604401602060405180830381600087803b158015613bfc57600080fd5b505af1158015613c10573d6000803e3d6000fd5b505050506040513d601f19601f82011682018060405250810190613c349190613f5e565b5060a8546001600160a01b0316631186ec33838686613c528a610c08565b6040516001600160e01b031960e087901b1681526001600160a01b03948516600482015293909216602484015260448301526064820152600784900b608482015263ffffffff421660a482015261010060c482015260026101048201527f307800000000000000000000000000000000000000000000000000000000000061012482015260001960e482015261014401600060405180830381600087803b158015613cfc57600080fd5b505af1158015612bba573d6000803e3d6000fd5b600a54610100900460ff16613d7b5760405162461bcd60e51b815260206004820152602b60248201527f496e697469616c697a61626c653a20636f6e7472616374206973206e6f74206960448201526a6e697469616c697a696e6760a81b6064820152608401610dcb565b610f0033613290565b600a54610100900460ff166121b15760405162461bcd60e51b815260206004820152602b60248201527f496e697469616c697a61626c653a20636f6e7472616374206973206e6f74206960448201526a6e697469616c697a696e6760a81b6064820152608401610dcb565b600082601f830112613dff578081fd5b81356020613e14613e0f8361488b565b61485a565b8281528181019085830183850287018401881015613e30578586fd5b855b85811015613e57578135613e4581614985565b84529284019290840190600101613e32565b5090979650505050505050565b80518015158114610c1b57600080fd5b80356001600160e01b031981168114610c1b57600080fd5b60008083601f840112613e9d578182fd5b50813567ffffffffffffffff811115613eb4578182fd5b602083019150836020828501011115613ecc57600080fd5b9250929050565b600082601f830112613ee3578081fd5b8135613ef1613e0f826148af565b818152846020838601011115613f05578283fd5b816020850160208301379081016020019190915292915050565b600060208284031215613f30578081fd5b8135613f3b81614985565b9392505050565b600060208284031215613f53578081fd5b8151613f3b81614985565b600060208284031215613f6f578081fd5b613f3b82613e64565b60008060408385031215613f8a578081fd5b613f9383613e64565b915060208084015167ffffffffffffffff811115613faf578283fd5b8401601f81018613613fbf578283fd5b8051613fcd613e0f8261488b565b81815283810190838501858402850186018a1015613fe9578687fd5b8694505b8385101561400b578051835260019490940193918501918501613fed565b5080955050505050509250929050565b60006020828403121561402c578081fd5b5035919050565b600060208284031215614044578081fd5b5051919050565b6000806040838503121561405d578182fd5b82359150602083013561406f81614985565b809150509250929050565b6000806000806080858703121561408f578182fd5b84519350602080860151935060408601519250606086015167ffffffffffffffff8111156140bb578283fd5b8601601f810188136140cb578283fd5b80516140d9613e0f8261488b565b81815283810190838501858402850186018c10156140f5578687fd5b8694505b8385101561412057805161410c81614985565b8352600194909401939185019185016140f9565b50979a9699509497505050505050565b60008060008060808587031215614145578182fd5b8451935060208501516141578161499a565b604086015190935067ffffffffffffffff811115614173578283fd5b8501601f81018713614183578283fd5b8051614191613e0f826148af565b8181528860208385010111156141a5578485fd5b6141b682602083016020860161492d565b60609790970151959894975050505050565b600080600080608085870312156141dd578182fd5b843567ffffffffffffffff8111156141f3578283fd5b6141ff87828801613ed3565b9450506020850135925060408501359150606085013561421e8161499a565b939692955090935050565b60008060008060008060a08789031215614241578384fd5b863567ffffffffffffffff80821115614258578586fd5b6142648a838b01613ed3565b97506020890135965060408901359550606089013591506142848261499a565b90935060808801359080821115614299578384fd5b506142a689828a01613e8c565b979a9699509497509295939492505050565b600080600080606085870312156142cd578182fd5b843567ffffffffffffffff808211156142e4578384fd5b9086019060e082890312156142f7578384fd5b61430160e061485a565b61430a83613e74565b815260208301358281111561431d578586fd5b6143298a828601613ed3565b602083015250604083013582811115614340578586fd5b61434c8a828601613ed3565b60408301525061435e60608401613e74565b60608201526080830135608082015260a08301358281111561437e578586fd5b61438a8a828601613ed3565b60a08301525060c083013560c08201528096505060208701359150808211156143b1578384fd5b6143bd88838901613e8c565b909550935060408701359150808211156143d5578283fd5b506143e287828801613def565b91505092959194509250565b60008060408385031215614400578182fd5b50508035926020909101359150565b600080600060608486031215614423578081fd5b505081359360208301359350604090920135919050565b60008060008060008060008060006101208a8c031215614458578687fd5b8935985060208a0135975060408a0135965060608a013561447881614985565b955060808a013561448881614985565b945060a08a013561449881614985565b935060c08a01356144a881614985565b925060e08a01356144b881614985565b91506101008a01356144c981614985565b809150509295985092959850929598565b6000815180845260208085019450808401835b838110156145125781516001600160a01b0316875295820195908201906001016144ed565b509495945050505050565b8060005b6005811015614540578151845260209384019390910190600101614521565b50505050565b60008284528282602086013780602084860101526020601f19601f85011685010190509392505050565b6000815180845261458881602086016020860161492d565b601f01601f19169290920160200192915050565b6001600160a01b0389811682526101c082019060208084018b60005b60028110156145d75781518516835291830191908301906001016145b8565b5050506060840191508960005b6002811015614601578151845292820192908201906001016145e4565b505050508660a08301528560c08301528460e083015261462561010083018561451d565b826101a08301529998505050505050505050565b600060208252613f3b60208301846144da565b600060208252610e71602083018486614546565b600060208252613f3b6020830184614570565b6000606082526146866060830186614570565b6001600160a01b039490941660208301525060400152919050565b600061010082526001600160e01b03198b511661010083015260208b015160e06101208401526146d56101e0840182614570565b905060408c015160ff1980858403016101408601526146f48383614570565b92506001600160e01b031960608f01511661016086015260808e015161018086015260a08e0151915080858403016101a0860152506147338282614570565b91505060c08c01516101c08401528a6020840152896040840152614762606084018a6001600160a01b03169052565b6001600160a01b03881660808401528660a084015282810360c084015261478a818688614546565b9150506147a260e08301846001600160a01b03169052565b9a9950505050505050505050565b600087825260a060208301526147c960a0830188614570565b600687106147e557634e487b7160e01b82526021600452602482fd5b86604084015282810360608401526147fe818688614546565b915050826080830152979650505050505050565b600087825286602083015260c0604083015261483160c08301876144da565b6001600160a01b03959095166060830152506080810192909252151560a0909101529392505050565b604051601f8201601f1916810167ffffffffffffffff811182821017156148835761488361496f565b604052919050565b600067ffffffffffffffff8211156148a5576148a561496f565b5060209081020190565b600067ffffffffffffffff8211156148c9576148c961496f565b50601f01601f191660200190565b6000826148f257634e487b7160e01b81526012600452602481fd5b500490565b600081600019048311821515161561491157614911614959565b500290565b60008282101561492857614928614959565b500390565b60005b83811015614948578181015183820152602001614930565b838111156145405750506000910152565b634e487b7160e01b600052601160045260246000fd5b634e487b7160e01b600052604160045260246000fd5b6001600160a01b0381168114610b6657600080fd5b60ff81168114610b6657600080fdfea26469706673582212200e404991d38accaeac59c33741b6f69b88f8b0a67aa6bc62e44ea4463214b52d64736f6c63430008020033",
  "devdoc": {
    "kind": "dev",
    "methods": {
      "initialize(uint256,uint256,uint256,address,address,address,address,address,address)": {
        "params": {
          "_chainId": "Id of the target chain",
          "_lockers": "Lockers' contract address",
          "_protocolPercentageFee": "Percentage amount of protocol fee (min: %0.01)",
          "_relay": "The Relay address to validate data from source chain",
          "_startingBlockNumber": "Requests that are included in a block older                              than _startingBlockNumber cannot be executed",
          "_teleBTC": "TeleportDAO BTC ERC20 token address",
          "_treasury": "Address of treasury that collects protocol fees"
        }
      },
      "isRequestUsed(bytes32)": {
        "details": "It prevents re-submitting an executed request",
        "params": {
          "_txId": "The transaction ID of request on Bitcoin "
        },
        "returns": {
          "_0": "True if the cc exchange request has been already executed"
        }
      },
      "owner()": {
        "details": "Returns the address of the current owner."
      },
      "renounceOwnership()": {
        "details": "Leaves the contract without owner. It will not be possible to call `onlyOwner` functions anymore. Can only be called by the current owner. NOTE: Renouncing ownership will leave the contract without an owner, thereby removing any functionality that is only available to the owner."
      },
      "retryFailedWrapAndSwap(bytes,bytes32,bytes32,uint8)": {
        "params": {
          "_message": "abi encode of txId, outputAmount, acrossRelayerFee and Exchange path",
          "_r": "Signature r",
          "_s": "Signature s",
          "_v": "Signature v"
        }
      },
      "setChainIdMapping(uint256,uint256,uint256)": {
        "details": "Only owner can call this"
      },
      "setExchangeConnector(uint256,address)": {
        "details": "_exchangeConnector can be set to zero to inactive an app"
      },
      "setInstantRouter(address)": {
        "details": "Only owner can call this",
        "params": {
          "_instantRouter": "The new instantRouter contract address"
        }
      },
      "setThirdPartyAddress(uint256,address)": {
        "details": "Only owner can call this",
        "params": {
          "_thirdPartyAddress": "third party address"
        }
      },
      "setThirdPartyFee(uint256,uint256)": {
        "details": "Only owner can call this",
        "params": {
          "_thirdPartyFee": "third party fee"
        }
      },
      "setWrappedNativeToken(address)": {
        "details": "Only owner can call this",
        "params": {
          "_wrappedNativeToken": "wrappedNativeToken address"
        }
      },
      "transferOwnership(address)": {
        "details": "Transfers ownership of the contract to a new account (`newOwner`). Can only be called by the current owner."
      },
      "withdrawFailedWrapAndSwap(bytes,bytes32,bytes32,uint8,bytes)": {
        "params": {
          "_lockerLockingScript": "Script hash of locker that user has sent BTC to it",
          "_message": "abi encode of txId, scriptType, userScript and acrossRelayerFee",
          "_r": "Signature r",
          "_s": "Signature s",
          "_v": "Signature v"
        },
        "returns": {
          "_0": ""
        }
      },
      "wrapAndSwap((bytes4,bytes,bytes,bytes4,uint256,bytes,uint256),bytes,address[])": {
        "details": "Mints teleBTC for user if exchanging is not successful",
        "params": {
          "_lockerLockingScript": "Script hash of locker that user has sent BTC to it",
          "_path": "(Optional) Exchange path from teleBTC to the output token. This is used if               the default path [teleBTC, wrappedNativeToken, outputToken] not exist or              exchanging using this path fails",
          "_txAndProof": "Transaction and merkle proof data"
        },
        "returns": {
          "_0": "true "
        }
      }
    },
    "version": 1
  },
  "userdoc": {
    "events": {
      "FailedWrapAndSwap(address,address,address[2],uint256[2],uint256,address,bytes32,uint256,uint256,uint256[5],uint256)": {
        "notice": "Emits when a cc exchange request fails"
      },
      "FillStarted(bytes32,uint256)": {
        "notice": "Emits when a request is filled for the first time"
      },
      "FillTeleBtcSent(uint256,uint256,address,address,uint256,bytes32,uint256,uint256)": {
        "notice": "Emits when filler withdraws teleBTC"
      },
      "FillTokensReturned(uint256,address,address,uint256,bytes32)": {
        "notice": "Emits when unused tokens withdrawn"
      },
      "NewChainIdMapping(uint256,uint256,uint256)": {
        "notice": "Emits when changes made to chain id mapping"
      },
      "NewFill(address,bytes32,address,uint256)": {
        "notice": "Emits when a new filler fills a request"
      },
      "NewInstantRouter(address,address)": {
        "notice": "Emits when instant router contract updated"
      },
      "NewLockers(address,address)": {
        "notice": "Emits when lockers contract updated"
      },
      "NewProtocolPercentageFee(uint256,uint256)": {
        "notice": "Emits when protocol fee updated"
      },
      "NewRelay(address,address)": {
        "notice": "Emits when relay contract updated"
      },
      "NewTeleBTC(address,address)": {
        "notice": "Emits when telebtc contract updated"
      },
      "NewThirdPartyAddress(uint256,address,address)": {
        "notice": "Emits when changes made to third party address"
      },
      "NewThirdPartyFee(uint256,uint256,uint256)": {
        "notice": "Emits when changes made to third party fee"
      },
      "NewTreasury(address,address)": {
        "notice": "Emits when treasury address updated"
      },
      "NewWrapAndSwap(address,address,address[2],uint256[2],uint256,address,bytes32,uint256,uint256,uint256[5],uint256)": {
        "notice": "Emits when a cc exchange request gets done"
      },
      "NewWrappedNativeToken(address,address)": {
        "notice": "Emits when changes made to wrapped native token"
      },
      "SetExchangeConnector(uint256,address)": {
        "notice": "Emits when appId for an exchange connector is set"
      }
    },
    "kind": "user",
    "methods": {
      "initialize(uint256,uint256,uint256,address,address,address,address,address,address)": {
        "notice": "Gives default params to initiate cc exchange router"
      },
      "isRequestUsed(bytes32)": {
        "notice": "Checks if a request has been executed before"
      },
      "removeChain(uint256)": {
        "notice": "Removing a chainId"
      },
      "removeToken(uint256,address)": {
        "notice": "Removing a token as supported token on specific chain"
      },
      "retryFailedWrapAndSwap(bytes,bytes32,bytes32,uint8)": {
        "notice": "ETH user whose exchange request failed can retry          to exchange teleBTC for the desired token"
      },
      "setAcross(address)": {
        "notice": "Setter for across"
      },
      "setBurnRouter(address)": {
        "notice": "Setter for burnRouters"
      },
      "setChainIdMapping(uint256,uint256,uint256)": {
        "notice": "Setter for chain id mapping"
      },
      "setExchangeConnector(uint256,address)": {
        "notice": "Sets appId for an exchange connector"
      },
      "setInstantRouter(address)": {
        "notice": "Changes instantRouter contract address"
      },
      "setLockers(address)": {
        "notice": "Updates lockers contract address"
      },
      "setProtocolPercentageFee(uint256)": {
        "notice": "Setter for protocol percentage fee"
      },
      "setRelay(address)": {
        "notice": "Updates relay contract address"
      },
      "setStartingBlockNumber(uint256)": {
        "notice": "Setter for starting block number"
      },
      "setTeleBTC(address)": {
        "notice": "Updates teleBTC contract address"
      },
      "setThirdPartyAddress(uint256,address)": {
        "notice": "Setter for third party address"
      },
      "setThirdPartyFee(uint256,uint256)": {
        "notice": "Setter for third party fee"
      },
      "setTreasury(address)": {
        "notice": "Setter for treasury"
      },
      "setWrappedNativeToken(address)": {
        "notice": "Setter for wrappedNativeToken"
      },
      "supportChain(uint256)": {
        "notice": "Adding a new chainId"
      },
      "supportToken(uint256,address)": {
        "notice": "Adding a token as supported token on specific chain"
      },
      "withdrawFailedWrapAndSwap(bytes,bytes32,bytes32,uint8,bytes)": {
        "notice": "ETH user whose request failed can redeem teleBTC for native BTC"
      },
      "wrapAndSwap((bytes4,bytes,bytes,bytes4,uint256,bytes,uint256),bytes,address[])": {
        "notice": "Executes a cross-chain exchange request after checking its merkle inclusion proof"
      }
    },
    "version": 1
  },
  "storageLayout": {
    "storage": [
      {
        "astId": 22587,
        "contract": "contracts/routers/CcExchangeRouterLogic.sol:CcExchangeRouterLogic",
        "label": "startingBlockNumber",
        "offset": 0,
        "slot": "0",
        "type": "t_uint256"
      },
      {
        "astId": 22590,
        "contract": "contracts/routers/CcExchangeRouterLogic.sol:CcExchangeRouterLogic",
        "label": "chainId",
        "offset": 0,
        "slot": "1",
        "type": "t_uint256"
      },
      {
        "astId": 22593,
        "contract": "contracts/routers/CcExchangeRouterLogic.sol:CcExchangeRouterLogic",
        "label": "protocolPercentageFee",
        "offset": 0,
        "slot": "2",
        "type": "t_uint256"
      },
      {
        "astId": 22596,
        "contract": "contracts/routers/CcExchangeRouterLogic.sol:CcExchangeRouterLogic",
        "label": "relay",
        "offset": 0,
        "slot": "3",
        "type": "t_address"
      },
      {
        "astId": 22599,
        "contract": "contracts/routers/CcExchangeRouterLogic.sol:CcExchangeRouterLogic",
        "label": "instantRouter",
        "offset": 0,
        "slot": "4",
        "type": "t_address"
      },
      {
        "astId": 22602,
        "contract": "contracts/routers/CcExchangeRouterLogic.sol:CcExchangeRouterLogic",
        "label": "lockers",
        "offset": 0,
        "slot": "5",
        "type": "t_address"
      },
      {
        "astId": 22605,
        "contract": "contracts/routers/CcExchangeRouterLogic.sol:CcExchangeRouterLogic",
        "label": "teleBTC",
        "offset": 0,
        "slot": "6",
        "type": "t_address"
      },
      {
        "astId": 22608,
        "contract": "contracts/routers/CcExchangeRouterLogic.sol:CcExchangeRouterLogic",
        "label": "treasury",
        "offset": 0,
        "slot": "7",
        "type": "t_address"
      },
      {
        "astId": 22613,
        "contract": "contracts/routers/CcExchangeRouterLogic.sol:CcExchangeRouterLogic",
        "label": "exchangeConnector",
        "offset": 0,
        "slot": "8",
        "type": "t_mapping(t_uint256,t_address)"
      },
      {
        "astId": 22618,
        "contract": "contracts/routers/CcExchangeRouterLogic.sol:CcExchangeRouterLogic",
        "label": "ccExchangeRequests",
        "offset": 0,
        "slot": "9",
        "type": "t_mapping(t_bytes32,t_struct(ccExchangeRequest)25770_storage)"
      },
      {
        "astId": 442,
        "contract": "contracts/routers/CcExchangeRouterLogic.sol:CcExchangeRouterLogic",
        "label": "_initialized",
        "offset": 0,
        "slot": "10",
        "type": "t_uint8"
      },
      {
        "astId": 445,
        "contract": "contracts/routers/CcExchangeRouterLogic.sol:CcExchangeRouterLogic",
        "label": "_initializing",
        "offset": 1,
        "slot": "10",
        "type": "t_bool"
      },
      {
        "astId": 1844,
        "contract": "contracts/routers/CcExchangeRouterLogic.sol:CcExchangeRouterLogic",
        "label": "__gap",
        "offset": 0,
        "slot": "11",
        "type": "t_array(t_uint256)50_storage"
      },
      {
        "astId": 314,
        "contract": "contracts/routers/CcExchangeRouterLogic.sol:CcExchangeRouterLogic",
        "label": "_owner",
        "offset": 0,
        "slot": "61",
        "type": "t_address"
      },
      {
        "astId": 434,
        "contract": "contracts/routers/CcExchangeRouterLogic.sol:CcExchangeRouterLogic",
        "label": "__gap",
        "offset": 0,
        "slot": "62",
        "type": "t_array(t_uint256)49_storage"
      },
      {
        "astId": 745,
        "contract": "contracts/routers/CcExchangeRouterLogic.sol:CcExchangeRouterLogic",
        "label": "_status",
        "offset": 0,
        "slot": "111",
        "type": "t_uint256"
      },
      {
        "astId": 803,
        "contract": "contracts/routers/CcExchangeRouterLogic.sol:CcExchangeRouterLogic",
        "label": "__gap",
        "offset": 0,
        "slot": "112",
        "type": "t_array(t_uint256)49_storage"
      },
      {
        "astId": 22637,
        "contract": "contracts/routers/CcExchangeRouterLogic.sol:CcExchangeRouterLogic",
        "label": "fillerWithdrawInterval",
        "offset": 0,
        "slot": "161",
        "type": "t_uint256"
      },
      {
        "astId": 22644,
        "contract": "contracts/routers/CcExchangeRouterLogic.sol:CcExchangeRouterLogic",
        "label": "fillersData",
        "offset": 0,
        "slot": "162",
        "type": "t_mapping(t_bytes32,t_mapping(t_address,t_struct(FillerData)25820_storage))"
      },
      {
        "astId": 22651,
        "contract": "contracts/routers/CcExchangeRouterLogic.sol:CcExchangeRouterLogic",
        "label": "prefixFillSums",
        "offset": 0,
        "slot": "163",
        "type": "t_mapping(t_bytes32,t_mapping(t_address,t_struct(PrefixFillSum)25826_storage))"
      },
      {
        "astId": 22656,
        "contract": "contracts/routers/CcExchangeRouterLogic.sol:CcExchangeRouterLogic",
        "label": "fillsData",
        "offset": 0,
        "slot": "164",
        "type": "t_mapping(t_bytes32,t_struct(FillData)25813_storage)"
      },
      {
        "astId": 22663,
        "contract": "contracts/routers/CcExchangeRouterLogic.sol:CcExchangeRouterLogic",
        "label": "isTokenSupported",
        "offset": 0,
        "slot": "165",
        "type": "t_mapping(t_uint256,t_mapping(t_address,t_bool))"
      },
      {
        "astId": 22668,
        "contract": "contracts/routers/CcExchangeRouterLogic.sol:CcExchangeRouterLogic",
        "label": "isChainSupported",
        "offset": 0,
        "slot": "166",
        "type": "t_mapping(t_uint256,t_bool)"
      },
      {
        "astId": 22673,
        "contract": "contracts/routers/CcExchangeRouterLogic.sol:CcExchangeRouterLogic",
        "label": "extendedCcExchangeRequests",
        "offset": 0,
        "slot": "167",
        "type": "t_mapping(t_bytes32,t_struct(extendedCcExchangeRequest)25787_storage)"
      },
      {
        "astId": 22676,
        "contract": "contracts/routers/CcExchangeRouterLogic.sol:CcExchangeRouterLogic",
        "label": "across",
        "offset": 0,
        "slot": "168",
        "type": "t_address"
      },
      {
        "astId": 22678,
        "contract": "contracts/routers/CcExchangeRouterLogic.sol:CcExchangeRouterLogic",
        "label": "wrappedNativeToken",
        "offset": 0,
        "slot": "169",
        "type": "t_address"
      },
      {
        "astId": 22681,
        "contract": "contracts/routers/CcExchangeRouterLogic.sol:CcExchangeRouterLogic",
        "label": "burnRouter",
        "offset": 0,
        "slot": "170",
        "type": "t_address"
      },
      {
        "astId": 22686,
        "contract": "contracts/routers/CcExchangeRouterLogic.sol:CcExchangeRouterLogic",
        "label": "chainIdMapping",
        "offset": 0,
        "slot": "171",
        "type": "t_mapping(t_uint256,t_struct(chainIdStruct)25746_storage)"
      },
      {
        "astId": 22690,
        "contract": "contracts/routers/CcExchangeRouterLogic.sol:CcExchangeRouterLogic",
        "label": "thirdPartyFee",
        "offset": 0,
        "slot": "172",
        "type": "t_mapping(t_uint256,t_uint256)"
      },
      {
        "astId": 22694,
        "contract": "contracts/routers/CcExchangeRouterLogic.sol:CcExchangeRouterLogic",
        "label": "thirdPartyAddress",
        "offset": 0,
        "slot": "173",
        "type": "t_mapping(t_uint256,t_address)"
      }
    ],
    "types": {
      "t_address": {
        "encoding": "inplace",
        "label": "address",
        "numberOfBytes": "20"
      },
      "t_array(t_address)dyn_storage": {
        "base": "t_address",
        "encoding": "dynamic_array",
        "label": "address[]",
        "numberOfBytes": "32"
      },
      "t_array(t_uint256)49_storage": {
        "base": "t_uint256",
        "encoding": "inplace",
        "label": "uint256[49]",
        "numberOfBytes": "1568"
      },
      "t_array(t_uint256)50_storage": {
        "base": "t_uint256",
        "encoding": "inplace",
        "label": "uint256[50]",
        "numberOfBytes": "1600"
      },
      "t_array(t_uint256)dyn_storage": {
        "base": "t_uint256",
        "encoding": "dynamic_array",
        "label": "uint256[]",
        "numberOfBytes": "32"
      },
      "t_bool": {
        "encoding": "inplace",
        "label": "bool",
        "numberOfBytes": "1"
      },
      "t_bytes32": {
        "encoding": "inplace",
        "label": "bytes32",
        "numberOfBytes": "32"
      },
      "t_mapping(t_address,t_bool)": {
        "encoding": "mapping",
        "key": "t_address",
        "label": "mapping(address => bool)",
        "numberOfBytes": "32",
        "value": "t_bool"
      },
      "t_mapping(t_address,t_struct(FillerData)25820_storage)": {
        "encoding": "mapping",
        "key": "t_address",
        "label": "mapping(address => struct ICcExchangeRouter.FillerData)",
        "numberOfBytes": "32",
        "value": "t_struct(FillerData)25820_storage"
      },
      "t_mapping(t_address,t_struct(PrefixFillSum)25826_storage)": {
        "encoding": "mapping",
        "key": "t_address",
        "label": "mapping(address => struct ICcExchangeRouter.PrefixFillSum)",
        "numberOfBytes": "32",
        "value": "t_struct(PrefixFillSum)25826_storage"
      },
      "t_mapping(t_bytes32,t_mapping(t_address,t_struct(FillerData)25820_storage))": {
        "encoding": "mapping",
        "key": "t_bytes32",
        "label": "mapping(bytes32 => mapping(address => struct ICcExchangeRouter.FillerData))",
        "numberOfBytes": "32",
        "value": "t_mapping(t_address,t_struct(FillerData)25820_storage)"
      },
      "t_mapping(t_bytes32,t_mapping(t_address,t_struct(PrefixFillSum)25826_storage))": {
        "encoding": "mapping",
        "key": "t_bytes32",
        "label": "mapping(bytes32 => mapping(address => struct ICcExchangeRouter.PrefixFillSum))",
        "numberOfBytes": "32",
        "value": "t_mapping(t_address,t_struct(PrefixFillSum)25826_storage)"
      },
      "t_mapping(t_bytes32,t_struct(FillData)25813_storage)": {
        "encoding": "mapping",
        "key": "t_bytes32",
        "label": "mapping(bytes32 => struct ICcExchangeRouter.FillData)",
        "numberOfBytes": "32",
        "value": "t_struct(FillData)25813_storage"
      },
      "t_mapping(t_bytes32,t_struct(ccExchangeRequest)25770_storage)": {
        "encoding": "mapping",
        "key": "t_bytes32",
        "label": "mapping(bytes32 => struct ICcExchangeRouter.ccExchangeRequest)",
        "numberOfBytes": "32",
        "value": "t_struct(ccExchangeRequest)25770_storage"
      },
      "t_mapping(t_bytes32,t_struct(extendedCcExchangeRequest)25787_storage)": {
        "encoding": "mapping",
        "key": "t_bytes32",
        "label": "mapping(bytes32 => struct ICcExchangeRouter.extendedCcExchangeRequest)",
        "numberOfBytes": "32",
        "value": "t_struct(extendedCcExchangeRequest)25787_storage"
      },
      "t_mapping(t_uint256,t_address)": {
        "encoding": "mapping",
        "key": "t_uint256",
        "label": "mapping(uint256 => address)",
        "numberOfBytes": "32",
        "value": "t_address"
      },
      "t_mapping(t_uint256,t_bool)": {
        "encoding": "mapping",
        "key": "t_uint256",
        "label": "mapping(uint256 => bool)",
        "numberOfBytes": "32",
        "value": "t_bool"
      },
      "t_mapping(t_uint256,t_mapping(t_address,t_bool))": {
        "encoding": "mapping",
        "key": "t_uint256",
        "label": "mapping(uint256 => mapping(address => bool))",
        "numberOfBytes": "32",
        "value": "t_mapping(t_address,t_bool)"
      },
      "t_mapping(t_uint256,t_struct(chainIdStruct)25746_storage)": {
        "encoding": "mapping",
        "key": "t_uint256",
        "label": "mapping(uint256 => struct ICcExchangeRouter.chainIdStruct)",
        "numberOfBytes": "32",
        "value": "t_struct(chainIdStruct)25746_storage"
      },
      "t_mapping(t_uint256,t_uint256)": {
        "encoding": "mapping",
        "key": "t_uint256",
        "label": "mapping(uint256 => uint256)",
        "numberOfBytes": "32",
        "value": "t_uint256"
      },
      "t_struct(FillData)25813_storage": {
        "encoding": "inplace",
        "label": "struct ICcExchangeRouter.FillData",
        "members": [
          {
            "astId": 25804,
            "contract": "contracts/routers/CcExchangeRouterLogic.sol:CcExchangeRouterLogic",
            "label": "startingTime",
            "offset": 0,
            "slot": "0",
            "type": "t_uint256"
          },
          {
            "astId": 25806,
            "contract": "contracts/routers/CcExchangeRouterLogic.sol:CcExchangeRouterLogic",
            "label": "reqToken",
            "offset": 0,
            "slot": "1",
            "type": "t_address"
          },
          {
            "astId": 25808,
            "contract": "contracts/routers/CcExchangeRouterLogic.sol:CcExchangeRouterLogic",
            "label": "lastUsedIdx",
            "offset": 0,
            "slot": "2",
            "type": "t_uint256"
          },
          {
            "astId": 25810,
            "contract": "contracts/routers/CcExchangeRouterLogic.sol:CcExchangeRouterLogic",
            "label": "remainingAmountOfLastFill",
            "offset": 0,
            "slot": "3",
            "type": "t_uint256"
          },
          {
            "astId": 25812,
            "contract": "contracts/routers/CcExchangeRouterLogic.sol:CcExchangeRouterLogic",
            "label": "isWithdrawnLastFill",
            "offset": 0,
            "slot": "4",
            "type": "t_bool"
          }
        ],
        "numberOfBytes": "160"
      },
      "t_struct(FillerData)25820_storage": {
        "encoding": "inplace",
        "label": "struct ICcExchangeRouter.FillerData",
        "members": [
          {
            "astId": 25815,
            "contract": "contracts/routers/CcExchangeRouterLogic.sol:CcExchangeRouterLogic",
            "label": "index",
            "offset": 0,
            "slot": "0",
            "type": "t_uint256"
          },
          {
            "astId": 25817,
            "contract": "contracts/routers/CcExchangeRouterLogic.sol:CcExchangeRouterLogic",
            "label": "token",
            "offset": 0,
            "slot": "1",
            "type": "t_address"
          },
          {
            "astId": 25819,
            "contract": "contracts/routers/CcExchangeRouterLogic.sol:CcExchangeRouterLogic",
            "label": "amount",
            "offset": 0,
            "slot": "2",
            "type": "t_uint256"
          }
        ],
        "numberOfBytes": "96"
      },
      "t_struct(PrefixFillSum)25826_storage": {
        "encoding": "inplace",
        "label": "struct ICcExchangeRouter.PrefixFillSum",
        "members": [
          {
            "astId": 25823,
            "contract": "contracts/routers/CcExchangeRouterLogic.sol:CcExchangeRouterLogic",
            "label": "prefixSum",
            "offset": 0,
            "slot": "0",
            "type": "t_array(t_uint256)dyn_storage"
          },
          {
            "astId": 25825,
            "contract": "contracts/routers/CcExchangeRouterLogic.sol:CcExchangeRouterLogic",
            "label": "currentIndex",
            "offset": 0,
            "slot": "1",
            "type": "t_uint256"
          }
        ],
        "numberOfBytes": "64"
      },
      "t_struct(ccExchangeRequest)25770_storage": {
        "encoding": "inplace",
        "label": "struct ICcExchangeRouter.ccExchangeRequest",
        "members": [
          {
            "astId": 25748,
            "contract": "contracts/routers/CcExchangeRouterLogic.sol:CcExchangeRouterLogic",
            "label": "appId",
            "offset": 0,
            "slot": "0",
            "type": "t_uint256"
          },
          {
            "astId": 25750,
            "contract": "contracts/routers/CcExchangeRouterLogic.sol:CcExchangeRouterLogic",
            "label": "inputAmount",
            "offset": 0,
            "slot": "1",
            "type": "t_uint256"
          },
          {
            "astId": 25752,
            "contract": "contracts/routers/CcExchangeRouterLogic.sol:CcExchangeRouterLogic",
            "label": "outputAmount",
            "offset": 0,
            "slot": "2",
            "type": "t_uint256"
          },
          {
            "astId": 25754,
            "contract": "contracts/routers/CcExchangeRouterLogic.sol:CcExchangeRouterLogic",
            "label": "isFixedToken",
            "offset": 0,
            "slot": "3",
            "type": "t_bool"
          },
          {
            "astId": 25756,
            "contract": "contracts/routers/CcExchangeRouterLogic.sol:CcExchangeRouterLogic",
            "label": "recipientAddress",
            "offset": 1,
            "slot": "3",
            "type": "t_address"
          },
          {
            "astId": 25758,
            "contract": "contracts/routers/CcExchangeRouterLogic.sol:CcExchangeRouterLogic",
            "label": "fee",
            "offset": 0,
            "slot": "4",
            "type": "t_uint256"
          },
          {
            "astId": 25760,
            "contract": "contracts/routers/CcExchangeRouterLogic.sol:CcExchangeRouterLogic",
            "label": "isUsed",
            "offset": 0,
            "slot": "5",
            "type": "t_bool"
          },
          {
            "astId": 25763,
            "contract": "contracts/routers/CcExchangeRouterLogic.sol:CcExchangeRouterLogic",
            "label": "path",
            "offset": 0,
            "slot": "6",
            "type": "t_array(t_address)dyn_storage"
          },
          {
            "astId": 25765,
            "contract": "contracts/routers/CcExchangeRouterLogic.sol:CcExchangeRouterLogic",
            "label": "deadline",
            "offset": 0,
            "slot": "7",
            "type": "t_uint256"
          },
          {
            "astId": 25767,
            "contract": "contracts/routers/CcExchangeRouterLogic.sol:CcExchangeRouterLogic",
            "label": "speed",
            "offset": 0,
            "slot": "8",
            "type": "t_uint256"
          },
          {
            "astId": 25769,
            "contract": "contracts/routers/CcExchangeRouterLogic.sol:CcExchangeRouterLogic",
            "label": "destinationChain",
            "offset": 0,
            "slot": "9",
            "type": "t_uint256"
          }
        ],
        "numberOfBytes": "320"
      },
      "t_struct(chainIdStruct)25746_storage": {
        "encoding": "inplace",
        "label": "struct ICcExchangeRouter.chainIdStruct",
        "members": [
          {
            "astId": 25743,
            "contract": "contracts/routers/CcExchangeRouterLogic.sol:CcExchangeRouterLogic",
            "label": "middleChain",
            "offset": 0,
            "slot": "0",
            "type": "t_uint256"
          },
          {
            "astId": 25745,
            "contract": "contracts/routers/CcExchangeRouterLogic.sol:CcExchangeRouterLogic",
            "label": "destinationChain",
            "offset": 0,
            "slot": "1",
            "type": "t_uint256"
          }
        ],
        "numberOfBytes": "64"
      },
      "t_struct(extendedCcExchangeRequest)25787_storage": {
        "encoding": "inplace",
        "label": "struct ICcExchangeRouter.extendedCcExchangeRequest",
        "members": [
          {
            "astId": 25772,
            "contract": "contracts/routers/CcExchangeRouterLogic.sol:CcExchangeRouterLogic",
            "label": "chainId",
            "offset": 0,
            "slot": "0",
            "type": "t_uint256"
          },
          {
            "astId": 25774,
            "contract": "contracts/routers/CcExchangeRouterLogic.sol:CcExchangeRouterLogic",
            "label": "isTransferredToOtherChain",
            "offset": 0,
            "slot": "1",
            "type": "t_bool"
          },
          {
            "astId": 25776,
            "contract": "contracts/routers/CcExchangeRouterLogic.sol:CcExchangeRouterLogic",
            "label": "remainedInputAmount",
            "offset": 0,
            "slot": "2",
            "type": "t_uint256"
          },
          {
            "astId": 25778,
            "contract": "contracts/routers/CcExchangeRouterLogic.sol:CcExchangeRouterLogic",
            "label": "bridgeFee",
            "offset": 0,
            "slot": "3",
            "type": "t_uint256"
          },
          {
            "astId": 25780,
            "contract": "contracts/routers/CcExchangeRouterLogic.sol:CcExchangeRouterLogic",
            "label": "thirdParty",
            "offset": 0,
            "slot": "4",
            "type": "t_uint256"
          },
          {
            "astId": 25782,
            "contract": "contracts/routers/CcExchangeRouterLogic.sol:CcExchangeRouterLogic",
            "label": "protocolFee",
            "offset": 0,
            "slot": "5",
            "type": "t_uint256"
          },
          {
            "astId": 25784,
            "contract": "contracts/routers/CcExchangeRouterLogic.sol:CcExchangeRouterLogic",
            "label": "thirdPartyFee",
            "offset": 0,
            "slot": "6",
            "type": "t_uint256"
          },
          {
            "astId": 25786,
            "contract": "contracts/routers/CcExchangeRouterLogic.sol:CcExchangeRouterLogic",
            "label": "lockerFee",
            "offset": 0,
            "slot": "7",
            "type": "t_uint256"
          }
        ],
        "numberOfBytes": "256"
      },
      "t_uint256": {
        "encoding": "inplace",
        "label": "uint256",
        "numberOfBytes": "32"
      },
      "t_uint8": {
        "encoding": "inplace",
        "label": "uint8",
        "numberOfBytes": "1"
      }
    }
  }
}