{
  "address": "0x828dCF17F3c668a6935cf8c65639CcFB0D93C4e2",
  "abi": [
    {
      "inputs": [],
      "name": "ZeroAddress",
      "type": "error"
    },
    {
      "anonymous": false,
      "inputs": [
        {
          "indexed": false,
          "internalType": "uint8",
          "name": "version",
          "type": "uint8"
        }
      ],
      "name": "Initialized",
      "type": "event"
    },
    {
      "anonymous": false,
      "inputs": [
        {
          "indexed": false,
          "internalType": "address",
          "name": "oldInstantRouter",
          "type": "address"
        },
        {
          "indexed": false,
          "internalType": "address",
          "name": "newInstantRouter",
          "type": "address"
        }
      ],
      "name": "NewInstantRouter",
      "type": "event"
    },
    {
      "anonymous": false,
      "inputs": [
        {
          "indexed": false,
          "internalType": "address",
          "name": "oldLockers",
          "type": "address"
        },
        {
          "indexed": false,
          "internalType": "address",
          "name": "newLockers",
          "type": "address"
        }
      ],
      "name": "NewLockers",
      "type": "event"
    },
    {
      "anonymous": false,
      "inputs": [
        {
          "indexed": false,
          "internalType": "uint256",
          "name": "oldProtocolPercentageFee",
          "type": "uint256"
        },
        {
          "indexed": false,
          "internalType": "uint256",
          "name": "newProtocolPercentageFee",
          "type": "uint256"
        }
      ],
      "name": "NewProtocolPercentageFee",
      "type": "event"
    },
    {
      "anonymous": false,
      "inputs": [
        {
          "indexed": false,
          "internalType": "address",
          "name": "oldRelay",
          "type": "address"
        },
        {
          "indexed": false,
          "internalType": "address",
          "name": "newRelay",
          "type": "address"
        }
      ],
      "name": "NewRelay",
      "type": "event"
    },
    {
      "anonymous": false,
      "inputs": [
        {
          "indexed": false,
          "internalType": "address",
          "name": "oldTeleBTC",
          "type": "address"
        },
        {
          "indexed": false,
          "internalType": "address",
          "name": "newTeleBTC",
          "type": "address"
        }
      ],
      "name": "NewTeleBTC",
      "type": "event"
    },
    {
      "anonymous": false,
      "inputs": [
        {
          "indexed": false,
          "internalType": "uint256",
          "name": "thirdPartyId",
          "type": "uint256"
        },
        {
          "indexed": false,
          "internalType": "address",
          "name": "oldThirdPartyAddress",
          "type": "address"
        },
        {
          "indexed": false,
          "internalType": "address",
          "name": "newThirdPartyAddress",
          "type": "address"
        }
      ],
      "name": "NewThirdPartyAddress",
      "type": "event"
    },
    {
      "anonymous": false,
      "inputs": [
        {
          "indexed": false,
          "internalType": "uint256",
          "name": "thirdPartyId",
          "type": "uint256"
        },
        {
          "indexed": false,
          "internalType": "uint256",
          "name": "oldThirdPartyFee",
          "type": "uint256"
        },
        {
          "indexed": false,
          "internalType": "uint256",
          "name": "newThirdPartyFee",
          "type": "uint256"
        }
      ],
      "name": "NewThirdPartyFee",
      "type": "event"
    },
    {
      "anonymous": false,
      "inputs": [
        {
          "indexed": false,
          "internalType": "address",
          "name": "oldTreasury",
          "type": "address"
        },
        {
          "indexed": false,
          "internalType": "address",
          "name": "newTreasury",
          "type": "address"
        }
      ],
      "name": "NewTreasury",
      "type": "event"
    },
    {
      "anonymous": false,
      "inputs": [
        {
          "indexed": false,
          "internalType": "bytes32",
          "name": "bitcoinTxId",
          "type": "bytes32"
        },
        {
          "indexed": true,
          "internalType": "bytes",
          "name": "lockerLockingScript",
          "type": "bytes"
        },
        {
          "indexed": false,
          "internalType": "address",
          "name": "lockerTargetAddress",
          "type": "address"
        },
        {
          "indexed": true,
          "internalType": "address",
          "name": "user",
          "type": "address"
        },
        {
          "indexed": false,
          "internalType": "address",
          "name": "teleporter",
          "type": "address"
        },
        {
          "indexed": false,
          "internalType": "uint256[2]",
          "name": "amounts",
          "type": "uint256[2]"
        },
        {
          "indexed": false,
          "internalType": "uint256[4]",
          "name": "fees",
          "type": "uint256[4]"
        },
        {
          "indexed": false,
          "internalType": "uint256",
          "name": "thirdPartyId",
          "type": "uint256"
        },
        {
          "indexed": false,
          "internalType": "uint256",
          "name": "destinationChainId",
          "type": "uint256"
        }
      ],
      "name": "NewWrap",
      "type": "event"
    },
    {
      "anonymous": false,
      "inputs": [
        {
          "indexed": true,
          "internalType": "address",
          "name": "previousOwner",
          "type": "address"
        },
        {
          "indexed": true,
          "internalType": "address",
          "name": "newOwner",
          "type": "address"
        }
      ],
      "name": "OwnershipTransferred",
      "type": "event"
    },
    {
      "inputs": [],
      "name": "appId",
      "outputs": [
        {
          "internalType": "uint256",
          "name": "",
          "type": "uint256"
        }
      ],
      "stateMutability": "view",
      "type": "function"
    },
    {
      "inputs": [
        {
          "internalType": "bytes32",
          "name": "",
          "type": "bytes32"
        }
      ],
      "name": "ccTransferRequests",
      "outputs": [
        {
          "internalType": "uint256",
          "name": "inputAmount",
          "type": "uint256"
        },
        {
          "internalType": "address",
          "name": "recipientAddress",
          "type": "address"
        },
        {
          "internalType": "uint256",
          "name": "fee",
          "type": "uint256"
        },
        {
          "internalType": "uint256",
          "name": "speed",
          "type": "uint256"
        },
        {
          "internalType": "bool",
          "name": "isUsed",
          "type": "bool"
        }
      ],
      "stateMutability": "view",
      "type": "function"
    },
    {
      "inputs": [],
      "name": "chainId",
      "outputs": [
        {
          "internalType": "uint256",
          "name": "",
          "type": "uint256"
        }
      ],
      "stateMutability": "view",
      "type": "function"
    },
    {
      "inputs": [
        {
          "internalType": "uint256",
          "name": "_startingBlockNumber",
          "type": "uint256"
        },
        {
          "internalType": "uint256",
          "name": "_protocolPercentageFee",
          "type": "uint256"
        },
        {
          "internalType": "uint256",
          "name": "_chainId",
          "type": "uint256"
        },
        {
          "internalType": "uint256",
          "name": "_appId",
          "type": "uint256"
        },
        {
          "internalType": "address",
          "name": "_relay",
          "type": "address"
        },
        {
          "internalType": "address",
          "name": "_lockers",
          "type": "address"
        },
        {
          "internalType": "address",
          "name": "_teleBTC",
          "type": "address"
        },
        {
          "internalType": "address",
          "name": "_treasury",
          "type": "address"
        }
      ],
      "name": "initialize",
      "outputs": [],
      "stateMutability": "nonpayable",
      "type": "function"
    },
    {
      "inputs": [],
      "name": "instantRouter",
      "outputs": [
        {
          "internalType": "address",
          "name": "",
          "type": "address"
        }
      ],
      "stateMutability": "view",
      "type": "function"
    },
    {
      "inputs": [
        {
          "internalType": "bytes32",
          "name": "_txId",
          "type": "bytes32"
        }
      ],
      "name": "isRequestUsed",
      "outputs": [
        {
          "internalType": "bool",
          "name": "",
          "type": "bool"
        }
      ],
      "stateMutability": "view",
      "type": "function"
    },
    {
      "inputs": [],
      "name": "lockers",
      "outputs": [
        {
          "internalType": "address",
          "name": "",
          "type": "address"
        }
      ],
      "stateMutability": "view",
      "type": "function"
    },
    {
      "inputs": [],
      "name": "owner",
      "outputs": [
        {
          "internalType": "address",
          "name": "",
          "type": "address"
        }
      ],
      "stateMutability": "view",
      "type": "function"
    },
    {
      "inputs": [],
      "name": "protocolPercentageFee",
      "outputs": [
        {
          "internalType": "uint256",
          "name": "",
          "type": "uint256"
        }
      ],
      "stateMutability": "view",
      "type": "function"
    },
    {
      "inputs": [],
      "name": "relay",
      "outputs": [
        {
          "internalType": "address",
          "name": "",
          "type": "address"
        }
      ],
      "stateMutability": "view",
      "type": "function"
    },
    {
      "inputs": [],
      "name": "renounceOwnership",
      "outputs": [],
      "stateMutability": "nonpayable",
      "type": "function"
    },
    {
      "inputs": [
        {
          "internalType": "address",
          "name": "_instantRouter",
          "type": "address"
        }
      ],
      "name": "setInstantRouter",
      "outputs": [],
      "stateMutability": "nonpayable",
      "type": "function"
    },
    {
      "inputs": [
        {
          "internalType": "address",
          "name": "_lockers",
          "type": "address"
        }
      ],
      "name": "setLockers",
      "outputs": [],
      "stateMutability": "nonpayable",
      "type": "function"
    },
    {
      "inputs": [
        {
          "internalType": "uint256",
          "name": "_protocolPercentageFee",
          "type": "uint256"
        }
      ],
      "name": "setProtocolPercentageFee",
      "outputs": [],
      "stateMutability": "nonpayable",
      "type": "function"
    },
    {
      "inputs": [
        {
          "internalType": "address",
          "name": "_relay",
          "type": "address"
        }
      ],
      "name": "setRelay",
      "outputs": [],
      "stateMutability": "nonpayable",
      "type": "function"
    },
    {
      "inputs": [
        {
          "internalType": "uint256",
          "name": "_startingBlockNumber",
          "type": "uint256"
        }
      ],
      "name": "setStartingBlockNumber",
      "outputs": [],
      "stateMutability": "nonpayable",
      "type": "function"
    },
    {
      "inputs": [
        {
          "internalType": "address",
          "name": "_teleBTC",
          "type": "address"
        }
      ],
      "name": "setTeleBTC",
      "outputs": [],
      "stateMutability": "nonpayable",
      "type": "function"
    },
    {
      "inputs": [
        {
          "internalType": "uint256",
          "name": "_thirdPartyId",
          "type": "uint256"
        },
        {
          "internalType": "address",
          "name": "_thirdPartyAddress",
          "type": "address"
        }
      ],
      "name": "setThirdPartyAddress",
      "outputs": [],
      "stateMutability": "nonpayable",
      "type": "function"
    },
    {
      "inputs": [
        {
          "internalType": "uint256",
          "name": "_thirdPartyId",
          "type": "uint256"
        },
        {
          "internalType": "uint256",
          "name": "_thirdPartyFee",
          "type": "uint256"
        }
      ],
      "name": "setThirdPartyFee",
      "outputs": [],
      "stateMutability": "nonpayable",
      "type": "function"
    },
    {
      "inputs": [
        {
          "internalType": "address",
          "name": "_treasury",
          "type": "address"
        }
      ],
      "name": "setTreasury",
      "outputs": [],
      "stateMutability": "nonpayable",
      "type": "function"
    },
    {
      "inputs": [],
      "name": "startingBlockNumber",
      "outputs": [
        {
          "internalType": "uint256",
          "name": "",
          "type": "uint256"
        }
      ],
      "stateMutability": "view",
      "type": "function"
    },
    {
      "inputs": [],
      "name": "teleBTC",
      "outputs": [
        {
          "internalType": "address",
          "name": "",
          "type": "address"
        }
      ],
      "stateMutability": "view",
      "type": "function"
    },
    {
      "inputs": [
        {
          "internalType": "bytes32",
          "name": "",
          "type": "bytes32"
        }
      ],
      "name": "thirdParty",
      "outputs": [
        {
          "internalType": "uint256",
          "name": "",
          "type": "uint256"
        }
      ],
      "stateMutability": "view",
      "type": "function"
    },
    {
      "inputs": [
        {
          "internalType": "uint256",
          "name": "",
          "type": "uint256"
        }
      ],
      "name": "thirdPartyAddress",
      "outputs": [
        {
          "internalType": "address",
          "name": "",
          "type": "address"
        }
      ],
      "stateMutability": "view",
      "type": "function"
    },
    {
      "inputs": [
        {
          "internalType": "uint256",
          "name": "",
          "type": "uint256"
        }
      ],
      "name": "thirdPartyFee",
      "outputs": [
        {
          "internalType": "uint256",
          "name": "",
          "type": "uint256"
        }
      ],
      "stateMutability": "view",
      "type": "function"
    },
    {
      "inputs": [
        {
          "internalType": "address",
          "name": "newOwner",
          "type": "address"
        }
      ],
      "name": "transferOwnership",
      "outputs": [],
      "stateMutability": "nonpayable",
      "type": "function"
    },
    {
      "inputs": [],
      "name": "treasury",
      "outputs": [
        {
          "internalType": "address",
          "name": "",
          "type": "address"
        }
      ],
      "stateMutability": "view",
      "type": "function"
    },
    {
      "inputs": [
        {
          "components": [
            {
              "internalType": "bytes4",
              "name": "version",
              "type": "bytes4"
            },
            {
              "internalType": "bytes",
              "name": "vin",
              "type": "bytes"
            },
            {
              "internalType": "bytes",
              "name": "vout",
              "type": "bytes"
            },
            {
              "internalType": "bytes4",
              "name": "locktime",
              "type": "bytes4"
            },
            {
              "internalType": "uint256",
              "name": "blockNumber",
              "type": "uint256"
            },
            {
              "internalType": "bytes",
              "name": "intermediateNodes",
              "type": "bytes"
            },
            {
              "internalType": "uint256",
              "name": "index",
              "type": "uint256"
            }
          ],
          "internalType": "struct ICcTransferRouter.TxAndProof",
          "name": "_txAndProof",
          "type": "tuple"
        },
        {
          "internalType": "bytes",
          "name": "_lockerLockingScript",
          "type": "bytes"
        }
      ],
      "name": "wrap",
      "outputs": [
        {
          "internalType": "bool",
          "name": "",
          "type": "bool"
        }
      ],
      "stateMutability": "payable",
      "type": "function"
    },
    {
      "stateMutability": "payable",
      "type": "receive"
    }
  ],
  "transactionHash": "0x4a7a64f817d3f32e5b8bbe0f8a375683c2eec2bb08f0072501812da2e2627c11",
  "args": [],
  "numDeployments": 1,
  "solcInputHash": "3849a4863b3f479a54c4c9d266f63097",
  "bytecode": "0x608060405234801561001057600080fd5b50613fb0806100206000396000f3fe60806040526004361061014b5760003560e01c80631812adb6146101575780631876dec4146101805780631e7107c7146101b85780633a5d4213146101da57806359fd0b0c146101fa57806361d027b31461022757806370872aa514610247578063715018a61461025d578063765f0233146102725780637ed55748146102fb5780637f0f18171461031b57806380afdea81461033b57806380bc472614610351578063870ba6cf146103815780638d3d78cd146103a15780638d5fc1d4146103c15780638da5cb5b146103e15780638f9eb78b146103f65780639a8a059214610416578063a9b682711461042c578063b14d353214610462578063b59589d114610482578063b866d6ea146104a2578063c805f68b146104b5578063e35a0a88146104d5578063e9770e93146104f5578063f0f4426014610522578063f2fde38b1461054257600080fd5b3661015257005b600080fd5b34801561016357600080fd5b5061016d60035481565b6040519081526020015b60405180910390f35b34801561018c57600080fd5b506005546101a0906001600160a01b031681565b6040516001600160a01b039091168152602001610177565b3480156101c457600080fd5b506101d86101d33660046138b1565b610562565b005b3480156101e657600080fd5b506101d86101f5366004613a40565b610576565b34801561020657600080fd5b5061016d6102153660046138b1565b60a16020526000908152604090205481565b34801561023357600080fd5b506008546101a0906001600160a01b031681565b34801561025357600080fd5b5061016d60005481565b34801561026957600080fd5b506101d86106dc565b34801561027e57600080fd5b506102c961028d3660046138b1565b6009602052600090815260409020805460018201546002830154600384015460049094015492936001600160a01b039092169290919060ff1685565b604080519586526001600160a01b0390941660208601529284019190915260608301521515608082015260a001610177565b34801561030757600080fd5b506101d86103163660046138b1565b6106e6565b34801561032757600080fd5b506101d8610336366004613859565b6106f7565b34801561034757600080fd5b5061016d60025481565b34801561035d57600080fd5b5061037161036c3660046138b1565b610734565b6040519015158152602001610177565b34801561038d57600080fd5b506101d861039c366004613859565b61075d565b3480156103ad57600080fd5b506006546101a0906001600160a01b031681565b3480156103cd57600080fd5b506101d86103dc3660046139f0565b610796565b3480156103ed57600080fd5b506101a06107a8565b34801561040257600080fd5b506101d8610411366004613a1f565b6107b7565b34801561042257600080fd5b5061016d60015481565b34801561043857600080fd5b506101a06104473660046138b1565b60a2602052600090815260409020546001600160a01b031681565b34801561046e57600080fd5b506101d861047d366004613859565b6107c9565b34801561048e57600080fd5b506004546101a0906001600160a01b031681565b6103716104b03660046138e1565b610802565b3480156104c157600080fd5b506101d86104d0366004613859565b610c65565b3480156104e157600080fd5b506007546101a0906001600160a01b031681565b34801561050157600080fd5b5061016d6105103660046138b1565b60a36020526000908152604090205481565b34801561052e57600080fd5b506101d861053d366004613859565b610c9e565b34801561054e57600080fd5b506101d861055d366004613859565b610cd7565b61056a610d4d565b61057381610dac565b50565b600a54610100900460ff16158080156105965750600a54600160ff909116105b806105b05750303b1580156105b05750600a5460ff166001145b6106185760405162461bcd60e51b815260206004820152602e60248201527f496e697469616c697a61626c653a20636f6e747261637420697320616c72656160448201526d191e481a5b9a5d1a585b1a5e995960921b60648201526084015b60405180910390fd5b600a805460ff19166001179055801561063b57600a805461ff0019166101001790555b610643610e14565b61064b610e43565b6001879055600286905561065e89610dac565b61066788610e72565b61067085610f1c565b61067984610fae565b61068283611040565b61068b826110d2565b80156106d157600a805461ff0019169055604051600181527f7f26b83ff96e1f2b6a682f133852f6798a09c465da95921460cefb38474024989060200160405180910390a15b505050505050505050565b6106e4610d4d565b565b6106ee610d4d565b61057381610e72565b806001600160a01b03811661071f5760405163d92e233d60e01b815260040160405180910390fd5b610727610d4d565b61073082611040565b5050565b60008181526009602052604081206004015460ff16610754576000610757565b60015b92915050565b806001600160a01b0381166107855760405163d92e233d60e01b815260040160405180910390fd5b61078d610d4d565b61073082611164565b61079e610d4d565b61073082826111f6565b603d546001600160a01b031690565b6107bf610d4d565b6107308282611292565b806001600160a01b0381166107f15760405163d92e233d60e01b815260040160405180910390fd5b6107f9610d4d565b61073082610fae565b600061080c6112f3565b6007546001600160a01b0316336001600160a01b03161461086f5760405162461bcd60e51b815260206004820181905260248201527f43435472616e73666572526f757465723a20696e76616c69642073656e646572604482015260640161060f565b600054846080015110156108d15760405162461bcd60e51b8152602060048201526024808201527f43435472616e73666572526f757465723a207265717565737420697320746f6f604482015263081bdb1960e21b606482015260840161060f565b60006108ef856000015186602001518760400151886060015161134d565b60008181526009602052604090206004015490915060ff161561096b5760405162461bcd60e51b815260206004820152602e60248201527f43435472616e73666572526f757465723a20726571756573742068617320626560448201526d656e2075736564206265666f726560901b606482015260840161060f565b60608501516001600160e01b031916156109d85760405162461bcd60e51b815260206004820152602860248201527f43435472616e73666572526f757465723a206c6f636b2074696d65206973206e6044820152676f6e202d7a65726f60c01b606482015260840161060f565b610a1c84848080601f0160208091040260200160405190810160405280939291908181526020018383808284376000920191909152505050506040870151836114b5565b610a348186608001518760a001518860c0015161190d565b610aa15760405162461bcd60e51b815260206004820152603860248201527f43435472616e73666572526f757465723a207472616e73616374696f6e2068616044820152771cc81b9bdd081899595b88199a5b985b1a5e9959081e595d60421b606482015260840161060f565b6000806000806000610aea89898080601f0160208091040260200160405190810160405280939291908181526020018383808284376000920191909152508a9250611a8b915050565b60008b81526009602052604090819020600101549051959a50939850919650945092506001600160a01b031690610b24908b908b90613b43565b60405180910390207fdebe45dc811f213ee5572218ab9c9e7d78fac393b0ca5c50ea9edbe5c8bcb61788600560009054906101000a90046001600160a01b03166001600160a01b031663c4d10b6a8e8e6040518363ffffffff1660e01b8152600401610b91929190613c8e565b60206040518083038186803b158015610ba957600080fd5b505afa158015610bbd573d6000803e3d6000fd5b505050506040513d601f19601f82011682018060405250810190610be19190613875565b60408051808201825260008d8152600960209081528382205483528083018e905283516080810185528c81528082018b90528085018e9052606081018c90528f835260a390915290839020546001549351610c429695943394939291613bd1565b60405180910390a360019650505050505050610c5e6001606f55565b9392505050565b806001600160a01b038116610c8d5760405163d92e233d60e01b815260040160405180910390fd5b610c95610d4d565b61073082610f1c565b806001600160a01b038116610cc65760405163d92e233d60e01b815260040160405180910390fd5b610cce610d4d565b610730826110d2565b610cdf610d4d565b6001600160a01b038116610d445760405162461bcd60e51b815260206004820152602660248201527f4f776e61626c653a206e6577206f776e657220697320746865207a65726f206160448201526564647265737360d01b606482015260840161060f565b61057381611b54565b33610d566107a8565b6001600160a01b0316146106e45760405162461bcd60e51b815260206004820181905260248201527f4f776e61626c653a2063616c6c6572206973206e6f7420746865206f776e6572604482015260640161060f565b6000548111610e0f5760405162461bcd60e51b815260206004820152602960248201527f43435472616e73666572526f757465723a206c6f77207374617274696e67426c60448201526837b1b5a73ab6b132b960b91b606482015260840161060f565b600055565b600a54610100900460ff16610e3b5760405162461bcd60e51b815260040161060f90613cfe565b6106e4611ba6565b600a54610100900460ff16610e6a5760405162461bcd60e51b815260040161060f90613cfe565b6106e4611bd6565b806127101015610edb5760405162461bcd60e51b815260206004820152602e60248201527f43435472616e73666572526f757465723a2070726f746f636f6c20666565206960448201526d73206f7574206f662072616e676560901b606482015260840161060f565b60035460408051918252602082018390527f7d205f60891f60851c61cd244ba387d72b6589e7c0ac41b9d909ab0ce2c2a53b910160405180910390a1600355565b806001600160a01b038116610f445760405163d92e233d60e01b815260040160405180910390fd5b6004546040517f4c28a3f61a715259c4dc930c23e7423b8fa52e13232c061a6e488729c66184f491610f83916001600160a01b03909116908590613b9e565b60405180910390a150600480546001600160a01b0319166001600160a01b0392909216919091179055565b806001600160a01b038116610fd65760405163d92e233d60e01b815260040160405180910390fd5b6005546040517ffa021c2ec0f46429a53e7f88b88065e40001f50c9d38b2e8b713beaf9828d4c391611015916001600160a01b03909116908590613b9e565b60405180910390a150600580546001600160a01b0319166001600160a01b0392909216919091179055565b806001600160a01b0381166110685760405163d92e233d60e01b815260040160405180910390fd5b6006546040517f36a4c08a38b736dcecb6c328dba61238529620e83ccb23db2cc43cd34ec26096916110a7916001600160a01b03909116908590613b9e565b60405180910390a150600680546001600160a01b0319166001600160a01b0392909216919091179055565b806001600160a01b0381166110fa5760405163d92e233d60e01b815260040160405180910390fd5b6008546040517f567657fa3f286518b318f4a29870674f433f622fdfc819691acb13105b22822591611139916001600160a01b03909116908590613b9e565b60405180910390a150600880546001600160a01b0319166001600160a01b0392909216919091179055565b806001600160a01b03811661118c5760405163d92e233d60e01b815260040160405180910390fd5b6007546040517f12ad124e13af4c31364ad22aa74320e167b37f005dafb75d71a210c49da3629e916111cb916001600160a01b03909116908590613b9e565b60405180910390a150600780546001600160a01b0319166001600160a01b0392909216919091179055565b600082815260a26020526040908190205490517f1e73962bcff5b98a9ac70c9b0f71fbb31dc0f5a09348c6d3ceab164169a9e7299161125c9185916001600160a01b03169085909283526001600160a01b03918216602084015216604082015260600190565b60405180910390a1600091825260a2602052604090912080546001600160a01b0319166001600160a01b03909216919091179055565b600082815260a16020908152604091829020548251858152918201529081018290527f188adabf806a6b6d814acc1dbd9f09e5a251c8c065d6285749a5824e4579b6459060600160405180910390a1600091825260a1602052604090912055565b6002606f5414156113465760405162461bcd60e51b815260206004820152601f60248201527f5265656e7472616e637947756172643a207265656e7472616e742063616c6c00604482015260640161060f565b6002606f55565b60008061136461135f825b8790611bfd565b611c21565b905061137562ffffff198216611d77565b156113bf5760405162461bcd60e51b815260206004820152601a602482015279109a5d18dbda5b92195b1c195c8e881d9a5b881a5cc81b9d5b1b60321b604482015260640161060f565b60006002878787876040516020016113da9493929190613af0565b60408051601f19818403018152908290526113f491613b53565b602060405180830381855afa158015611411573d6000803e3d6000fd5b5050506040513d601f19601f8201168201806040525081019061143491906138c9565b9050600060028260405160200161144d91815260200190565b60408051601f198184030181529082905261146791613b53565b602060405180830381855afa158015611484573d6000803e3d6000fd5b5050506040513d601f19601f820116820180604052508101906114a791906138c9565b93505050505b949350505050565b60055460405163aff2faa360e01b81526001600160a01b039091169063aff2faa3906114e5908690600401613cbd565b60206040518083038186803b1580156114fd57600080fd5b505afa158015611511573d6000803e3d6000fd5b505050506040513d601f19601f820116820180604052508101906115359190613891565b6115a9576040805162461bcd60e51b81526020600482015260248101919091527f43435472616e73666572526f757465723a206e6f206c6f636b6572207769746860448201527f2074686520676976656e206c6f636b696e672073637269707420657869737473606482015260840161060f565b6115e66040518060a001604052806000815260200160006001600160a01b0316815260200160008152602001600081526020016000151581525090565b60606115f28486611d83565b6001600160401b0390911683528051909150601c146116535760405162461bcd60e51b815260206004820152601d60248201527f43435472616e73666572526f757465723a20696e76616c6964206c656e000000604482015260640161060f565b81516116b05760405162461bcd60e51b815260206004820152602660248201527f43435472616e73666572526f757465723a20696e70757420616d6f756e74206960448201526573207a65726f60d01b606482015260840161060f565b6001546116bc82611efe565b61ffff161461171f5760405162461bcd60e51b815260206004820152602960248201527f43435472616e73666572526f757465723a20636861696e206964206973206e6f6044820152681d0818dbdc9c9958dd60ba1b606482015260840161060f565b60025461172b82611f19565b60ff161461178b5760405162461bcd60e51b815260206004820152602760248201527f43435472616e73666572526f757465723a20617070206964206973206e6f742060448201526618dbdc9c9958dd60ca1b606482015260840161060f565b600061179682611f33565b62ffffff16905082600001518111156117ef5760405162461bcd60e51b815260206004820152601b60248201527a43435472616e73666572526f757465723a2077726f6e672066656560281b604482015260640161060f565b604083018190526117ff82611f4e565b6001600160a01b0316602084015261181682611f69565b60ff16606084018190521561187d5760405162461bcd60e51b815260206004820152602760248201527f43435472616e73666572526f757465723a207370656564206973206f7574206f604482015266662072616e676560c81b606482015260840161060f565b61188682611f78565b600085815260a36020908152604080832060ff949094169093556001608087018181529783526009825291839020865181559086015191810180546001600160a01b0319166001600160a01b03909316929092179091559084015160028201556060909301516003840155505090516004909101805460ff19169115159190911790555050565b6004805460405163d0a8973960e01b81529182018590526000602483018190529182916001600160a01b03169063d0a897399060440160206040518083038186803b15801561195b57600080fd5b505afa15801561196f573d6000803e3d6000fd5b505050506040513d601f19601f8201168201806040525081019061199391906138c9565b9050803410156119fa5760405162461bcd60e51b815260206004820152602c60248201527f43435472616e73666572526f757465723a207061696420666565206973206e6f60448201526b1d081cdd59999a58da595b9d60a21b606482015260840161060f565b600454604051600091611a57916001600160a01b0390911690611a27908a908a908a908a90602401613c5e565b60408051601f198184030181529190526020810180516001600160e01b0316634354da2560e01b17905284611f87565b9050611a6c33611a678434613e63565b611fad565b80806020019051810190611a809190613891565b979650505050505050565b6000806000806000611a9d87876120c8565b60065460008c8152600960205260409081902060010154905163a9059cbb60e01b8152969b5094995092975090955093506001600160a01b039081169263a9059cbb92611af09216908990600401613bb8565b602060405180830381600087803b158015611b0a57600080fd5b505af1158015611b1e573d6000803e3d6000fd5b505050506040513d601f19601f82011682018060405250810190611b429190613891565b509295509295909350565b6001606f55565b603d80546001600160a01b038381166001600160a01b0319831681179093556040519116919082907f8be0079c531659141344cd1fd0a4f28419497f9722a3daafe3b4186f6b6457e090600090a35050565b600a54610100900460ff16611bcd5760405162461bcd60e51b815260040161060f90613cfe565b6106e433611b54565b600a54610100900460ff16611b4d5760405162461bcd60e51b815260040161060f90613cfe565b815160009060208401611c1864ffffffffff851682846123f4565b95945050505050565b60008181611c37815b62ffffff19841690612438565b50611c4762ffffff198516612512565b6001600160601b0316611c6357611c5c612521565b9250611d70565b6000611c70856000612529565b90506000611c8362ffffff198716612512565b6001600160601b031690506001600160401b038216611cad57611ca4612521565b94505050611d70565b6000611cb883612672565b60ff16905060005b836001600160401b0316811015611d3657828210611ceb57611ce0612521565b965050505050611d70565b6000611d0b611cfa8486613e63565b60055b62ffffff198c1691906126d0565b9050611d16816126fa565b611d209084613d71565b9250508080611d2e90613ef5565b915050611cc0565b50818114611d5057611d46612521565b9550505050611d70565b611d6a60065b60d81b6301000000600160d81b0389161790565b95505050505b5050919050565b62ffffff199081161490565b6000606081611d99611d9482611358565b61274e565b9050611daa62ffffff198216611d77565b15611df55760405162461bcd60e51b815260206004820152601b60248201527a109a5d18dbda5b92195b1c195c8e881d9bdd5d081a5cc81b9d5b1b602a1b604482015260640161060f565b6000806000806000611e08866000612529565b6001600160401b0316905060005b81811015611ef057611e28878261284f565b9550611e3386612974565b9450611e3e866129c8565b9350611e4984612a12565b925062ffffff198084161415611ecc5789604051602001611e6a9190613b53565b60405160208183030381529060405280519060200120611e8f8662ffffff1916612b34565b604051602001611e9f9190613b53565b604051602081830303815290604052805190602001201415611ec757611ec486612b7a565b98505b611ede565b611edb62ffffff198416612b34565b97505b80611ee881613ef5565b915050611e16565b505050505050509250929050565b600080611f0e8360006001612b9f565b600201519392505050565b600080611f2883600280612b9f565b600101519392505050565b600080611f438360176019612b9f565b600301519392505050565b600080611f5e8360036016612b9f565b601401519392505050565b600080611f2883601a80612b9f565b600080611f2883601b80612b9f565b60606114ad848484604051806060016040528060298152602001613f5260299139612c24565b80471015611ffd5760405162461bcd60e51b815260206004820152601d60248201527f416464726573733a20696e73756666696369656e742062616c616e6365000000604482015260640161060f565b6000826001600160a01b03168260405160006040518083038185875af1925050503d806000811461204a576040519150601f19603f3d011682016040523d82523d6000602084013e61204f565b606091505b50509050806120c35760405162461bcd60e51b815260206004820152603a60248201527f416464726573733a20756e61626c6520746f2073656e642076616c75652c20726044820152791958da5c1a595b9d081b585e481a185d99481c995d995c9d195960321b606482015260840161060f565b505050565b6005546000828152600960205260408082205490516307f3f86760e21b81529192839283928392839283926001600160a01b0390921691631fcfe19c91612116918c91309190600401613cd0565b602060405180830381600087803b15801561213057600080fd5b505af1158015612144573d6000803e3d6000fd5b505050506040513d601f19601f8201168201806040525081019061216891906138c9565b6003546000898152600960205260409020549192506127109161218b9190613e1b565b6121959190613dfb565b6000888152600960208181526040808420600281015460a3845282862054865260a1845291852054948d90529290915290549297509550612710916121da9190613e1b565b6121e49190613dfb565b600088815260096020526040902054909350612201908290613e63565b9150831561228d576006546001600160a01b031663a9059cbb33866040518363ffffffff1660e01b8152600401612239929190613bb8565b602060405180830381600087803b15801561225357600080fd5b505af1158015612267573d6000803e3d6000fd5b505050506040513d601f19601f8201168201806040525081019061228b9190613891565b505b841561231d5760065460085460405163a9059cbb60e01b81526001600160a01b039283169263a9059cbb926122c9929116908990600401613bb8565b602060405180830381600087803b1580156122e357600080fd5b505af11580156122f7573d6000803e3d6000fd5b505050506040513d601f19601f8201168201806040525081019061231b9190613891565b505b82156123c757600654600088815260a36020908152604080832054835260a29091529081902054905163a9059cbb60e01b81526001600160a01b039283169263a9059cbb92612373929116908790600401613bb8565b602060405180830381600087803b15801561238d57600080fd5b505af11580156123a1573d6000803e3d6000fd5b505050506040513d601f19601f820116820180604052508101906123c59190613891565b505b82846123d38784613e63565b6123dd9190613e63565b6123e79190613e63565b9550509295509295909350565b6000806124018385613d71565b9050604051811115612411575060005b806124235762ffffff19915050610c5e565b5050606092831b9190911790911b1760181b90565b60006124448383612d41565b61250b5760006124636124578560d81c90565b64ffffffffff16612d64565b91505060006124788464ffffffffff16612d64565b6040517f5479706520617373657274696f6e206661696c65642e20476f7420307800000060208201526001600160b01b031960b086811b8216603d8401526c05c408af0e0cac6e8cac84060f609b1b604784015283901b16605482015290925060009150605e015b60405160208183030381529060405290508060405162461bcd60e51b815260040161060f9190613cbd565b5090919050565b60181c6001600160601b031690565b62ffffff1990565b60008061253e62ffffff198516846001612e10565b905060fc81116125595761255181612e40565b915050610757565b8060fd14156125bf57612587612582612573856001613d71565b62ffffff198716906002612eac565b612e40565b915061259282612672565b60ff166003146125ba576125b86125b362ffffff1986168560036000612fef565b613055565b505b61266b565b8060fe1415612614576125e86125826125d9856001613d71565b62ffffff198716906004612eac565b91506125f382612672565b60ff166005146125ba576125b86125b362ffffff1986168560056000612fef565b8060ff141561266b5761263d61258261262e856001613d71565b62ffffff198716906008612eac565b915061264882612672565b60ff1660091461266b576126696125b362ffffff1986168560096000612fef565b505b5092915050565b600060fc826001600160401b03161161268d57506001919050565b61ffff826001600160401b0316116126a757506003919050565b63ffffffff826001600160401b0316116126c357506005919050565b506009919050565b919050565b60006114ad84846126e087612512565b6001600160601b03166126f39190613e63565b8585612fef565b600081600561270881611c2a565b506000612716856024612529565b9050806001600160401b031661272b82612672565b60ff166127389190613d71565b612743906024613d71565b611c18906004613d71565b6000818161275b81611c2a565b5061276b62ffffff198516612512565b6001600160601b031661278057611c5c612521565b600061278d856000612529565b905060006127a062ffffff198716612512565b6001600160601b031690506001600160401b0382166127c157611ca4612521565b60006127cc83612672565b60ff16905060005b836001600160401b0316811015612835578282106127f457611ce0612521565b600061280a6128038486613e63565b600e611cfd565b9050612815816130dd565b61281f9084613d71565b925050808061282d90613ef5565b9150506127d4565b5081811461284557611d46612521565b611d6a600f611d56565b600082600f61285d81611c2a565b50600061286b866000612529565b6001600160401b03169050600061288762ffffff198816612512565b6001600160601b031690508186106128d55760405162461bcd60e51b81526020600482015260116024820152702b37baba103932b0b21037bb32b9393ab760791b604482015260640161060f565b60006128e083612672565b60ff1690506000805b888110156129365761290d6128fe8486613e63565b62ffffff198c1690600e6126d0565b9150612918826130dd565b6129229084613d71565b925061292f600182613d71565b90506128e9565b506129446128038385613e63565b90506000612951826130dd565b905061296662ffffff198b168483600d612fef565b9a9950505050505050505050565b600081600d61298281611c2a565b506000612990856008612529565b9050611c1861299e82612672565b6129a9906008613db4565b60ff166001600160401b03831660075b62ffffff198916929190612fef565b600081600d6129d681611c2a565b5060006129e4856008612529565b9050611c186008826129f584612672565b60ff16612a029190613d89565b6001600160401b031660076129b9565b6000816007612a2081611c2a565b506000612a2e856000612529565b90506000612a4861258262ffffff19881660026001612e10565b9050612a5c62ffffff198716600180612e10565b606a141580612a905750612a71600283613e7a565b6001600160401b0316612a8d62ffffff19881660026001612e10565b14155b15612a9d57611ca4612521565b604d826001600160401b031611158015612ac157506004826001600160401b031610155b612b0d5760405162461bcd60e51b815260206004820152601f60248201527f426974636f696e48656c7065723a20696e76616c6964206f7072657475726e00604482015260640161060f565b612b2a62ffffff19871660036001600160401b038416600c612fef565b9695505050505050565b6060600080612b4284612512565b60405193508392506001600160601b03169050612b6984612b64846020613d71565b613126565b508181016020016040529052919050565b600081600d612b8881611c2a565b506114ad61258262ffffff19861660006008612eac565b60606000835b612bb0846001613d71565b811015612c1b57858181518110612bd757634e487b7160e01b600052603260045260246000fd5b602001015160f81c60f81b91508282604051602001612bf7929190613b6f565b60405160208183030381529060405292508080612c1390613ef5565b915050612ba5565b50509392505050565b606082471015612c855760405162461bcd60e51b815260206004820152602660248201527f416464726573733a20696e73756666696369656e742062616c616e636520666f6044820152651c8818d85b1b60d21b606482015260840161060f565b843b612cd35760405162461bcd60e51b815260206004820152601d60248201527f416464726573733a2063616c6c20746f206e6f6e2d636f6e7472616374000000604482015260640161060f565b600080866001600160a01b03168587604051612cef9190613b53565b60006040518083038185875af1925050503d8060008114612d2c576040519150601f19603f3d011682016040523d82523d6000602084013e612d31565b606091505b5091509150611a80828286613269565b60008164ffffffffff16612d558460d81c90565b64ffffffffff16149392505050565b600080601f5b600f8160ff161115612dc2576000612d83826008613e3a565b60ff1685901c9050612d94816132a2565b61ffff16841793508160ff16601014612daf57601084901b93505b50612dbb600182613ea2565b9050612d6a565b50600f5b60ff8160ff161015612e0a5760ff600882021684901c612de5816132a2565b61ffff16831792508160ff16600014612e0057601083901b92505b5060001901612dc6565b50915091565b6000612e1d826020613ea2565b612e28906008613e3a565b60ff16612e368585856132d4565b901c949350505050565b60006001600160401b03821115612ea85760405162461bcd60e51b815260206004820152602660248201527f53616665436173743a2076616c756520646f65736e27742066697420696e203660448201526534206269747360d01b606482015260840161060f565b5090565b60006114ad612ebc8585856132d4565b60008190506008817eff00ff00ff00ff00ff00ff00ff00ff00ff00ff00ff00ff00ff00ff00ff00ff16901b600882901c7eff00ff00ff00ff00ff00ff00ff00ff00ff00ff00ff00ff00ff00ff00ff00ff161790506010817dffff0000ffff0000ffff0000ffff0000ffff0000ffff0000ffff0000ffff16901b601082901c7dffff0000ffff0000ffff0000ffff0000ffff0000ffff0000ffff0000ffff161790506020817bffffffff00000000ffffffff00000000ffffffff00000000ffffffff16901b602082901c7bffffffff00000000ffffffff00000000ffffffff00000000ffffffff161790506040816001600160401b03600160801b03600160c01b0316901b604082901c6001600160401b03600160801b03600160c01b0316179050608081901b608082901c179050919050565b600080612ffb86613402565b6001600160601b0316905061300f86613411565b8461301a8784613d71565b6130249190613d71565b11156130375762ffffff199150506114ad565b6130418582613d71565b9050612b2a8364ffffffffff1682866123f4565b6060600061309361308e8261308061307262ffffff198816612512565b6001600160601b031661343e565b62ffffff1987169190612e10565b612d64565b6040517a09cdedc5adad2dcd2dac2d840ecc2e440d2dce85c408edee84060f602b1b60208201526001600160701b0319607083901b16603b82015290925060009150604d016124e0565b600081600e6130eb81611c2a565b5060006130f9856008612529565b9050806001600160401b031661310e82612672565b60ff1661311b9190613d71565b611c18906008613d71565b60006131318361349f565b61318e5760405162461bcd60e51b815260206004820152602860248201527f54797065644d656d566965772f636f7079546f202d204e756c6c20706f696e7460448201526732b9103232b932b360c11b606482015260840161060f565b613197836134b1565b6131f75760405162461bcd60e51b815260206004820152602b60248201527f54797065644d656d566965772f636f7079546f202d20496e76616c696420706f60448201526a34b73a32b9103232b932b360a91b606482015260840161060f565b600061320284612512565b6001600160601b03169050600061321885613402565b6001600160601b0316905060006040519050848111156132385760206060fd5b8285848460045afa50612b2a61324e8760d81c90565b64ffffffffff60601b606091821b168717901b841760181b90565b60608315613278575081610c5e565b8251156132885782518084602001fd5b8160405162461bcd60e51b815260040161060f9190613cbd565b60006132b460048360ff16901c6134ef565b60ff1661ffff919091161760081b6132cb826134ef565b60ff1617919050565b600060ff82166132e657506000610c5e565b6132ef84612512565b6001600160601b031661330560ff841685613d71565b11156133555761333c61331785613402565b6001600160601b031661332986612512565b6001600160601b0316858560ff1661364b565b60405162461bcd60e51b815260040161060f9190613cbd565b60208260ff1611156133cc5760405162461bcd60e51b815260206004820152603a60248201527f54797065644d656d566965772f696e646578202d20417474656d7074656420746044820152796f20696e646578206d6f7265207468616e20333220627974657360301b606482015260840161060f565b6008820260006133db86613402565b6001600160601b031690506000600160ff1b60001984011d91909501511695945050505050565b60781c6001600160601b031690565b600061341c82612512565b61342583613402565b61342f9190613dd9565b6001600160601b031692915050565b600060ff821115612ea85760405162461bcd60e51b815260206004820152602560248201527f53616665436173743a2076616c756520646f65736e27742066697420696e2038604482015264206269747360d81b606482015260840161060f565b60006134aa82611d77565b1592915050565b60006134bd8260d81c90565b64ffffffffff1664ffffffffff14156134d857506000919050565b60006134e383613411565b60405110199392505050565b600060f08083179060ff8216141561350a5750603092915050565b8060ff1660f1141561351f5750603192915050565b8060ff1660f214156135345750603292915050565b8060ff1660f314156135495750603392915050565b8060ff1660f4141561355e5750603492915050565b8060ff1660f514156135735750603592915050565b8060ff1660f614156135885750603692915050565b8060ff1660f7141561359d5750603792915050565b8060ff1660f814156135b25750603892915050565b8060ff1660f914156135c75750603992915050565b8060ff1660fa14156135dc5750606192915050565b8060ff1660fb14156135f15750606292915050565b8060ff1660fc14156136065750606392915050565b8060ff1660fd141561361b5750606492915050565b8060ff1660fe14156136305750606592915050565b8060ff1660ff14156136455750606692915050565b50919050565b6060600061365886612d64565b915050600061366686612d64565b915050600061367486612d64565b915050600061368286612d64565b604080517f54797065644d656d566965772f696e646578202d204f76657272616e20746865602082015274040ecd2caee5c40a6d8d2c6ca40d2e640c2e84060f605b1b818301526001600160d01b031960d098891b811660558301526e040eed2e8d040d8cadccee8d04060f608b1b605b830181905297891b8116606a8301527f2e20417474656d7074656420746f20696e646578206174206f666673657420306070830152600f60fb1b609083015295881b861660918201526097810196909652951b90921660a68401525050601760f91b60ac8201528151808203608d01815260ad90910190915295945050505050565b80356001600160e01b0319811681146126cb57600080fd5b60008083601f84011261379e578182fd5b5081356001600160401b038111156137b4578182fd5b6020830191508360208285010111156137cc57600080fd5b9250929050565b600082601f8301126137e3578081fd5b81356001600160401b03808211156137fd576137fd613f26565b604051601f8301601f19908116603f0116810190828211818310171561382557613825613f26565b8160405283815286602085880101111561383d578485fd5b8360208701602083013792830160200193909352509392505050565b60006020828403121561386a578081fd5b8135610c5e81613f3c565b600060208284031215613886578081fd5b8151610c5e81613f3c565b6000602082840312156138a2578081fd5b81518015158114610c5e578182fd5b6000602082840312156138c2578081fd5b5035919050565b6000602082840312156138da578081fd5b5051919050565b6000806000604084860312156138f5578182fd5b83356001600160401b038082111561390b578384fd5b9085019060e0828803121561391e578384fd5b613926613d49565b61392f83613775565b8152602083013582811115613942578586fd5b61394e898286016137d3565b602083015250604083013582811115613965578586fd5b613971898286016137d3565b60408301525061398360608401613775565b60608201526080830135608082015260a0830135828111156139a3578586fd5b6139af898286016137d3565b60a08301525060c083013560c08201528095505060208601359150808211156139d6578384fd5b506139e38682870161378d565b9497909650939450505050565b60008060408385031215613a02578182fd5b823591506020830135613a1481613f3c565b809150509250929050565b60008060408385031215613a31578182fd5b50508035926020909101359150565b600080600080600080600080610100898b031215613a5c578384fd5b883597506020890135965060408901359550606089013594506080890135613a8381613f3c565b935060a0890135613a9381613f3c565b925060c0890135613aa381613f3c565b915060e0890135613ab381613f3c565b809150509295985092959890939650565b60008151808452613adc816020860160208601613ec5565b601f01601f19169290920160200192915050565b600063ffffffff60e01b80871683528551613b12816004860160208a01613ec5565b855190840190613b29816004840160208a01613ec5565b919094169301600481019390935250506008019392505050565b8183823760009101908152919050565b60008251613b65818460208701613ec5565b9190910192915050565b60008351613b81818460208801613ec5565b6001600160f81b0319939093169190920190815260010192915050565b6001600160a01b0392831681529116602082015260400190565b6001600160a01b03929092168252602082015260400190565b8781526001600160a01b038781166020808401919091529087166040830152610160820190606083018760005b6002811015613c1b57815183529183019190830190600101613bfe565b50505060a083018660005b6004811015613c4357815183529183019190830190600101613c26565b50505050610120820193909352610140015295945050505050565b848152836020820152608060408201526000613c7d6080830185613ac4565b905082606083015295945050505050565b60208152816020820152818360408301376000818301604090810191909152601f909201601f19160101919050565b602081526000610c5e6020830184613ac4565b606081526000613ce36060830186613ac4565b6001600160a01b039490941660208301525060400152919050565b6020808252602b908201527f496e697469616c697a61626c653a20636f6e7472616374206973206e6f74206960408201526a6e697469616c697a696e6760a81b606082015260800190565b60405160e081016001600160401b0381118282101715613d6b57613d6b613f26565b60405290565b60008219821115613d8457613d84613f10565b500190565b60006001600160401b03808316818516808303821115613dab57613dab613f10565b01949350505050565b600060ff821660ff84168060ff03821115613dd157613dd1613f10565b019392505050565b60006001600160601b03828116848216808303821115613dab57613dab613f10565b600082613e1657634e487b7160e01b81526012600452602481fd5b500490565b6000816000190483118215151615613e3557613e35613f10565b500290565b600060ff821660ff84168160ff0481118215151615613e5b57613e5b613f10565b029392505050565b600082821015613e7557613e75613f10565b500390565b60006001600160401b0383811690831681811015613e9a57613e9a613f10565b039392505050565b600060ff821660ff841680821015613ebc57613ebc613f10565b90039392505050565b60005b83811015613ee0578181015183820152602001613ec8565b83811115613eef576000848401525b50505050565b6000600019821415613f0957613f09613f10565b5060010190565b634e487b7160e01b600052601160045260246000fd5b634e487b7160e01b600052604160045260246000fd5b6001600160a01b038116811461057357600080fdfe416464726573733a206c6f772d6c6576656c2063616c6c20776974682076616c7565206661696c6564a2646970667358221220dcb3578645ac19eb870b2478205b5225bd7c1d5b7a6f2d386a45c71bc9c71c2564736f6c63430008040033",
  "devdoc": {
    "kind": "dev",
    "methods": {
      "initialize(uint256,uint256,uint256,uint256,address,address,address,address)": {
        "params": {
          "_appId": "Id of ccTransfer dApp",
          "_chainId": "Id of the underlying chain",
          "_lockers": "Lockers' contract address",
          "_protocolPercentageFee": "Percentage amount of protocol fee (min: %0.01)",
          "_relay": "The Relay address to validate data from source chain",
          "_startingBlockNumber": "Requests that are included in a block older than _startingBlockNumber cannot be executed",
          "_teleBTC": "TeleportDAO BTC ERC20 token address",
          "_treasury": "Address of treasury that collects protocol fees"
        }
      },
      "isRequestUsed(bytes32)": {
        "details": "This is to avoid re-submitting a used request",
        "params": {
          "_txId": "The txId of request on the source chain"
        },
        "returns": {
          "_0": "True if the request has been executed"
        }
      },
      "owner()": {
        "details": "Returns the address of the current owner."
      },
      "renounceOwnership()": {
        "details": "Leaves the contract without owner. It will not be possible to call `onlyOwner` functions anymore. Can only be called by the current owner. NOTE: Renouncing ownership will leave the contract without an owner, thereby removing any functionality that is only available to the owner."
      },
      "setInstantRouter(address)": {
        "details": "Only owner can call this",
        "params": {
          "_instantRouter": "Address of the instant router contract"
        }
      },
      "setLockers(address)": {
        "details": "Only owner can call this",
        "params": {
          "_lockers": "Address of the lockers contract"
        }
      },
      "setProtocolPercentageFee(uint256)": {
        "details": "Only owner can call this",
        "params": {
          "_protocolPercentageFee": "Percentage amount of protocol fee"
        }
      },
      "setRelay(address)": {
        "details": "Only owner can call this",
        "params": {
          "_relay": "Address of the relay contract"
        }
      },
      "setTeleBTC(address)": {
        "details": "Only owner can call this",
        "params": {
          "_teleBTC": "TeleportDAO BTC ERC20 token address"
        }
      },
      "setThirdPartyAddress(uint256,address)": {
        "details": "Only owner can call this",
        "params": {
          "_thirdPartyAddress": "third party address"
        }
      },
      "setThirdPartyFee(uint256,uint256)": {
        "details": "Only owner can call this",
        "params": {
          "_thirdPartyFee": "third party fee"
        }
      },
      "setTreasury(address)": {
        "details": "Only owner can call this",
        "params": {
          "_treasury": "Treasury address"
        }
      },
      "transferOwnership(address)": {
        "details": "Transfers ownership of the contract to a new account (`newOwner`). Can only be called by the current owner."
      },
      "wrap((bytes4,bytes,bytes,bytes4,uint256,bytes,uint256),bytes)": {
        "details": "Validates the transfer request, then,                                     if speed is 1, the request is instant                                     which pays back the loan,                                     if the speed is 0, it is a normal transfer",
        "params": {
          "_lockerLockingScript": "Locking script of locker that user has sent BTC to it",
          "_txAndProof": "Transaction and merkle proof data"
        },
        "returns": {
          "_0": "True if the transfer is successful"
        }
      }
    },
    "version": 1
  },
  "userdoc": {
    "events": {
      "NewInstantRouter(address,address)": {
        "notice": "Emits when changes made to InstantRouter address"
      },
      "NewLockers(address,address)": {
        "notice": "Emits when changes made to Lockers address"
      },
      "NewProtocolPercentageFee(uint256,uint256)": {
        "notice": "Emits when changes made to protocol percentage fee"
      },
      "NewRelay(address,address)": {
        "notice": "Emits when changes made to relay address"
      },
      "NewTeleBTC(address,address)": {
        "notice": "Emits when changes made to TeleBTC address"
      },
      "NewThirdPartyAddress(uint256,address,address)": {
        "notice": "Emits when changes made to third party address"
      },
      "NewThirdPartyFee(uint256,uint256,uint256)": {
        "notice": "Emits when changes made to third party fee"
      },
      "NewTreasury(address,address)": {
        "notice": "Emits when changes made to Treasury address"
      },
      "NewWrap(bytes32,bytes,address,address,address,uint256[2],uint256[4],uint256,uint256)": {
        "notice": "Emits when a cc transfer request gets done"
      }
    },
    "kind": "user",
    "methods": {
      "initialize(uint256,uint256,uint256,uint256,address,address,address,address)": {
        "notice": "Gives default params to initiate cc transfer router"
      },
      "isRequestUsed(bytes32)": {
        "notice": "Check if the request has been executed before"
      },
      "setInstantRouter(address)": {
        "notice": "Setter for instant router"
      },
      "setLockers(address)": {
        "notice": "Setter for lockers"
      },
      "setProtocolPercentageFee(uint256)": {
        "notice": "Setter for protocol percentage fee"
      },
      "setRelay(address)": {
        "notice": "Setter for relay"
      },
      "setStartingBlockNumber(uint256)": {
        "notice": "Setter for starting block number"
      },
      "setTeleBTC(address)": {
        "notice": "Setter for teleBTC"
      },
      "setThirdPartyAddress(uint256,address)": {
        "notice": "Setter for third party address"
      },
      "setThirdPartyFee(uint256,uint256)": {
        "notice": "Setter for third party fee"
      },
      "setTreasury(address)": {
        "notice": "Setter for treasury"
      },
      "wrap((bytes4,bytes,bytes,bytes4,uint256,bytes,uint256),bytes)": {
        "notice": "Executes the cross chain transfer request"
      }
    },
    "version": 1
  },
  "storageLayout": {
    "storage": [
      {
        "astId": 16879,
        "contract": "contracts/routers/CcTransferRouterLogic.sol:CcTransferRouterLogic",
        "label": "startingBlockNumber",
        "offset": 0,
        "slot": "0",
        "type": "t_uint256"
      },
      {
        "astId": 16882,
        "contract": "contracts/routers/CcTransferRouterLogic.sol:CcTransferRouterLogic",
        "label": "chainId",
        "offset": 0,
        "slot": "1",
        "type": "t_uint256"
      },
      {
        "astId": 16885,
        "contract": "contracts/routers/CcTransferRouterLogic.sol:CcTransferRouterLogic",
        "label": "appId",
        "offset": 0,
        "slot": "2",
        "type": "t_uint256"
      },
      {
        "astId": 16888,
        "contract": "contracts/routers/CcTransferRouterLogic.sol:CcTransferRouterLogic",
        "label": "protocolPercentageFee",
        "offset": 0,
        "slot": "3",
        "type": "t_uint256"
      },
      {
        "astId": 16891,
        "contract": "contracts/routers/CcTransferRouterLogic.sol:CcTransferRouterLogic",
        "label": "relay",
        "offset": 0,
        "slot": "4",
        "type": "t_address"
      },
      {
        "astId": 16894,
        "contract": "contracts/routers/CcTransferRouterLogic.sol:CcTransferRouterLogic",
        "label": "lockers",
        "offset": 0,
        "slot": "5",
        "type": "t_address"
      },
      {
        "astId": 16897,
        "contract": "contracts/routers/CcTransferRouterLogic.sol:CcTransferRouterLogic",
        "label": "teleBTC",
        "offset": 0,
        "slot": "6",
        "type": "t_address"
      },
      {
        "astId": 16900,
        "contract": "contracts/routers/CcTransferRouterLogic.sol:CcTransferRouterLogic",
        "label": "instantRouter",
        "offset": 0,
        "slot": "7",
        "type": "t_address"
      },
      {
        "astId": 16903,
        "contract": "contracts/routers/CcTransferRouterLogic.sol:CcTransferRouterLogic",
        "label": "treasury",
        "offset": 0,
        "slot": "8",
        "type": "t_address"
      },
      {
        "astId": 16908,
        "contract": "contracts/routers/CcTransferRouterLogic.sol:CcTransferRouterLogic",
        "label": "ccTransferRequests",
        "offset": 0,
        "slot": "9",
        "type": "t_mapping(t_bytes32,t_struct(ccTransferRequest)18938_storage)"
      },
      {
        "astId": 396,
        "contract": "contracts/routers/CcTransferRouterLogic.sol:CcTransferRouterLogic",
        "label": "_initialized",
        "offset": 0,
        "slot": "10",
        "type": "t_uint8"
      },
      {
        "astId": 399,
        "contract": "contracts/routers/CcTransferRouterLogic.sol:CcTransferRouterLogic",
        "label": "_initializing",
        "offset": 1,
        "slot": "10",
        "type": "t_bool"
      },
      {
        "astId": 1161,
        "contract": "contracts/routers/CcTransferRouterLogic.sol:CcTransferRouterLogic",
        "label": "__gap",
        "offset": 0,
        "slot": "11",
        "type": "t_array(t_uint256)50_storage"
      },
      {
        "astId": 268,
        "contract": "contracts/routers/CcTransferRouterLogic.sol:CcTransferRouterLogic",
        "label": "_owner",
        "offset": 0,
        "slot": "61",
        "type": "t_address"
      },
      {
        "astId": 388,
        "contract": "contracts/routers/CcTransferRouterLogic.sol:CcTransferRouterLogic",
        "label": "__gap",
        "offset": 0,
        "slot": "62",
        "type": "t_array(t_uint256)49_storage"
      },
      {
        "astId": 699,
        "contract": "contracts/routers/CcTransferRouterLogic.sol:CcTransferRouterLogic",
        "label": "_status",
        "offset": 0,
        "slot": "111",
        "type": "t_uint256"
      },
      {
        "astId": 757,
        "contract": "contracts/routers/CcTransferRouterLogic.sol:CcTransferRouterLogic",
        "label": "__gap",
        "offset": 0,
        "slot": "112",
        "type": "t_array(t_uint256)49_storage"
      },
      {
        "astId": 16916,
        "contract": "contracts/routers/CcTransferRouterLogic.sol:CcTransferRouterLogic",
        "label": "thirdPartyFee",
        "offset": 0,
        "slot": "161",
        "type": "t_mapping(t_uint256,t_uint256)"
      },
      {
        "astId": 16920,
        "contract": "contracts/routers/CcTransferRouterLogic.sol:CcTransferRouterLogic",
        "label": "thirdPartyAddress",
        "offset": 0,
        "slot": "162",
        "type": "t_mapping(t_uint256,t_address)"
      },
      {
        "astId": 16924,
        "contract": "contracts/routers/CcTransferRouterLogic.sol:CcTransferRouterLogic",
        "label": "thirdParty",
        "offset": 0,
        "slot": "163",
        "type": "t_mapping(t_bytes32,t_uint256)"
      }
    ],
    "types": {
      "t_address": {
        "encoding": "inplace",
        "label": "address",
        "numberOfBytes": "20"
      },
      "t_array(t_uint256)49_storage": {
        "base": "t_uint256",
        "encoding": "inplace",
        "label": "uint256[49]",
        "numberOfBytes": "1568"
      },
      "t_array(t_uint256)50_storage": {
        "base": "t_uint256",
        "encoding": "inplace",
        "label": "uint256[50]",
        "numberOfBytes": "1600"
      },
      "t_bool": {
        "encoding": "inplace",
        "label": "bool",
        "numberOfBytes": "1"
      },
      "t_bytes32": {
        "encoding": "inplace",
        "label": "bytes32",
        "numberOfBytes": "32"
      },
      "t_mapping(t_bytes32,t_struct(ccTransferRequest)18938_storage)": {
        "encoding": "mapping",
        "key": "t_bytes32",
        "label": "mapping(bytes32 => struct ICcTransferRouter.ccTransferRequest)",
        "numberOfBytes": "32",
        "value": "t_struct(ccTransferRequest)18938_storage"
      },
      "t_mapping(t_bytes32,t_uint256)": {
        "encoding": "mapping",
        "key": "t_bytes32",
        "label": "mapping(bytes32 => uint256)",
        "numberOfBytes": "32",
        "value": "t_uint256"
      },
      "t_mapping(t_uint256,t_address)": {
        "encoding": "mapping",
        "key": "t_uint256",
        "label": "mapping(uint256 => address)",
        "numberOfBytes": "32",
        "value": "t_address"
      },
      "t_mapping(t_uint256,t_uint256)": {
        "encoding": "mapping",
        "key": "t_uint256",
        "label": "mapping(uint256 => uint256)",
        "numberOfBytes": "32",
        "value": "t_uint256"
      },
      "t_struct(ccTransferRequest)18938_storage": {
        "encoding": "inplace",
        "label": "struct ICcTransferRouter.ccTransferRequest",
        "members": [
          {
            "astId": 18929,
            "contract": "contracts/routers/CcTransferRouterLogic.sol:CcTransferRouterLogic",
            "label": "inputAmount",
            "offset": 0,
            "slot": "0",
            "type": "t_uint256"
          },
          {
            "astId": 18931,
            "contract": "contracts/routers/CcTransferRouterLogic.sol:CcTransferRouterLogic",
            "label": "recipientAddress",
            "offset": 0,
            "slot": "1",
            "type": "t_address"
          },
          {
            "astId": 18933,
            "contract": "contracts/routers/CcTransferRouterLogic.sol:CcTransferRouterLogic",
            "label": "fee",
            "offset": 0,
            "slot": "2",
            "type": "t_uint256"
          },
          {
            "astId": 18935,
            "contract": "contracts/routers/CcTransferRouterLogic.sol:CcTransferRouterLogic",
            "label": "speed",
            "offset": 0,
            "slot": "3",
            "type": "t_uint256"
          },
          {
            "astId": 18937,
            "contract": "contracts/routers/CcTransferRouterLogic.sol:CcTransferRouterLogic",
            "label": "isUsed",
            "offset": 0,
            "slot": "4",
            "type": "t_bool"
          }
        ],
        "numberOfBytes": "160"
      },
      "t_uint256": {
        "encoding": "inplace",
        "label": "uint256",
        "numberOfBytes": "32"
      },
      "t_uint8": {
        "encoding": "inplace",
        "label": "uint8",
        "numberOfBytes": "1"
      }
    }
  }
}