{
  "address": "0x3Aa97FF96cA4FaB3bDBbf806487D4c1c0c24F886",
  "abi": [
    {
      "inputs": [],
      "name": "AlreadyHasRole",
      "type": "error"
    },
    {
      "inputs": [],
      "name": "BurnFailed",
      "type": "error"
    },
    {
      "inputs": [],
      "name": "InsufficientFunds",
      "type": "error"
    },
    {
      "inputs": [],
      "name": "InvalidValue",
      "type": "error"
    },
    {
      "inputs": [],
      "name": "LockerActive",
      "type": "error"
    },
    {
      "inputs": [],
      "name": "LockerNotActive",
      "type": "error"
    },
    {
      "inputs": [],
      "name": "NotBurner",
      "type": "error"
    },
    {
      "inputs": [],
      "name": "NotLocker",
      "type": "error"
    },
    {
      "inputs": [],
      "name": "NotMinter",
      "type": "error"
    },
    {
      "inputs": [],
      "name": "NotRequested",
      "type": "error"
    },
    {
      "inputs": [],
      "name": "TransferFailed",
      "type": "error"
    },
    {
      "inputs": [],
      "name": "ZeroAddress",
      "type": "error"
    },
    {
      "inputs": [],
      "name": "ZeroValue",
      "type": "error"
    },
    {
      "anonymous": false,
      "inputs": [
        {
          "indexed": true,
          "internalType": "address",
          "name": "lockerTargetAddress",
          "type": "address"
        },
        {
          "indexed": false,
          "internalType": "bytes",
          "name": "lockerLockingScript",
          "type": "bytes"
        },
        {
          "indexed": false,
          "internalType": "uint256",
          "name": "TSTLockedAmount",
          "type": "uint256"
        },
        {
          "indexed": false,
          "internalType": "address",
          "name": "collateralToken",
          "type": "address"
        },
        {
          "indexed": false,
          "internalType": "uint256",
          "name": "collateralTokenLockedAmount",
          "type": "uint256"
        },
        {
          "indexed": false,
          "internalType": "uint256",
          "name": "netMinted",
          "type": "uint256"
        }
      ],
      "name": "ActivateLocker",
      "type": "event"
    },
    {
      "anonymous": false,
      "inputs": [
        {
          "indexed": true,
          "internalType": "address",
          "name": "lockerTargetAddress",
          "type": "address"
        },
        {
          "indexed": false,
          "internalType": "uint256",
          "name": "burntAmount",
          "type": "uint256"
        },
        {
          "indexed": false,
          "internalType": "uint256",
          "name": "lockerFee",
          "type": "uint256"
        },
        {
          "indexed": false,
          "internalType": "uint256",
          "name": "burningTime",
          "type": "uint256"
        }
      ],
      "name": "BurnByLocker",
      "type": "event"
    },
    {
      "anonymous": false,
      "inputs": [
        {
          "indexed": true,
          "internalType": "address",
          "name": "account",
          "type": "address"
        }
      ],
      "name": "BurnerAdded",
      "type": "event"
    },
    {
      "anonymous": false,
      "inputs": [
        {
          "indexed": true,
          "internalType": "address",
          "name": "account",
          "type": "address"
        }
      ],
      "name": "BurnerRemoved",
      "type": "event"
    },
    {
      "anonymous": false,
      "inputs": [
        {
          "indexed": true,
          "internalType": "address",
          "name": "lockerTargetAddress",
          "type": "address"
        },
        {
          "indexed": true,
          "internalType": "address",
          "name": "collateralToken",
          "type": "address"
        },
        {
          "indexed": false,
          "internalType": "uint256",
          "name": "addedCollateral",
          "type": "uint256"
        },
        {
          "indexed": false,
          "internalType": "uint256",
          "name": "totalCollateral",
          "type": "uint256"
        },
        {
          "indexed": false,
          "internalType": "uint256",
          "name": "addingTime",
          "type": "uint256"
        }
      ],
      "name": "CollateralAdded",
      "type": "event"
    },
    {
      "anonymous": false,
      "inputs": [
        {
          "indexed": true,
          "internalType": "address",
          "name": "lockerTargetAddress",
          "type": "address"
        },
        {
          "indexed": true,
          "internalType": "address",
          "name": "collateralToken",
          "type": "address"
        },
        {
          "indexed": false,
          "internalType": "uint256",
          "name": "removedCollateral",
          "type": "uint256"
        },
        {
          "indexed": false,
          "internalType": "uint256",
          "name": "totalCollateral",
          "type": "uint256"
        },
        {
          "indexed": false,
          "internalType": "uint256",
          "name": "removingTime",
          "type": "uint256"
        }
      ],
      "name": "CollateralRemoved",
      "type": "event"
    },
    {
      "anonymous": false,
      "inputs": [
        {
          "indexed": false,
          "internalType": "uint8",
          "name": "version",
          "type": "uint8"
        }
      ],
      "name": "Initialized",
      "type": "event"
    },
    {
      "anonymous": false,
      "inputs": [
        {
          "indexed": true,
          "internalType": "address",
          "name": "lockerTargetAddress",
          "type": "address"
        },
        {
          "indexed": false,
          "internalType": "bytes",
          "name": "lockerLockingScript",
          "type": "bytes"
        },
        {
          "indexed": false,
          "internalType": "uint256",
          "name": "TSTLockedAmount",
          "type": "uint256"
        },
        {
          "indexed": true,
          "internalType": "address",
          "name": "collateralToken",
          "type": "address"
        },
        {
          "indexed": false,
          "internalType": "uint256",
          "name": "collateralTokenLockedAmount",
          "type": "uint256"
        },
        {
          "indexed": false,
          "internalType": "uint256",
          "name": "reliabilityFactor",
          "type": "uint256"
        },
        {
          "indexed": false,
          "internalType": "uint256",
          "name": "addingTime",
          "type": "uint256"
        }
      ],
      "name": "LockerAdded",
      "type": "event"
    },
    {
      "anonymous": false,
      "inputs": [
        {
          "indexed": true,
          "internalType": "address",
          "name": "lockerTargetAddress",
          "type": "address"
        },
        {
          "indexed": true,
          "internalType": "address",
          "name": "liquidatorAddress",
          "type": "address"
        },
        {
          "indexed": false,
          "internalType": "address",
          "name": "collateralToken",
          "type": "address"
        },
        {
          "indexed": false,
          "internalType": "uint256",
          "name": "collateralAmount",
          "type": "uint256"
        },
        {
          "indexed": false,
          "internalType": "uint256",
          "name": "teleBTCAmount",
          "type": "uint256"
        },
        {
          "indexed": false,
          "internalType": "uint256",
          "name": "liquidateTime",
          "type": "uint256"
        }
      ],
      "name": "LockerLiquidated",
      "type": "event"
    },
    {
      "anonymous": false,
      "inputs": [
        {
          "indexed": true,
          "internalType": "address",
          "name": "lockerTargetAddress",
          "type": "address"
        },
        {
          "indexed": false,
          "internalType": "bytes",
          "name": "lockerLockingScript",
          "type": "bytes"
        },
        {
          "indexed": false,
          "internalType": "uint256",
          "name": "TSTUnlockedAmount",
          "type": "uint256"
        },
        {
          "indexed": true,
          "internalType": "address",
          "name": "collateralToken",
          "type": "address"
        },
        {
          "indexed": false,
          "internalType": "uint256",
          "name": "collateralTokenUnlockedAmount",
          "type": "uint256"
        }
      ],
      "name": "LockerRemoved",
      "type": "event"
    },
    {
      "anonymous": false,
      "inputs": [
        {
          "indexed": true,
          "internalType": "address",
          "name": "lockerTargetAddress",
          "type": "address"
        },
        {
          "indexed": false,
          "internalType": "address",
          "name": "collateralToken",
          "type": "address"
        },
        {
          "indexed": false,
          "internalType": "uint256",
          "name": "rewardAmount",
          "type": "uint256"
        },
        {
          "indexed": true,
          "internalType": "address",
          "name": "rewardRecipient",
          "type": "address"
        },
        {
          "indexed": false,
          "internalType": "uint256",
          "name": "amount",
          "type": "uint256"
        },
        {
          "indexed": true,
          "internalType": "address",
          "name": "recipient",
          "type": "address"
        },
        {
          "indexed": false,
          "internalType": "uint256",
          "name": "slashedCollateralAmount",
          "type": "uint256"
        },
        {
          "indexed": false,
          "internalType": "uint256",
          "name": "slashTime",
          "type": "uint256"
        },
        {
          "indexed": false,
          "internalType": "bool",
          "name": "isForCCBurn",
          "type": "bool"
        }
      ],
      "name": "LockerSlashed",
      "type": "event"
    },
    {
      "anonymous": false,
      "inputs": [
        {
          "indexed": true,
          "internalType": "address",
          "name": "lockerTargetAddress",
          "type": "address"
        },
        {
          "indexed": true,
          "internalType": "address",
          "name": "buyerAddress",
          "type": "address"
        },
        {
          "indexed": true,
          "internalType": "address",
          "name": "collateralToken",
          "type": "address"
        },
        {
          "indexed": false,
          "internalType": "uint256",
          "name": "slashingAmount",
          "type": "uint256"
        },
        {
          "indexed": false,
          "internalType": "uint256",
          "name": "teleBTCAmount",
          "type": "uint256"
        },
        {
          "indexed": false,
          "internalType": "uint256",
          "name": "slashingTime",
          "type": "uint256"
        }
      ],
      "name": "LockerSlashedCollateralSold",
      "type": "event"
    },
    {
      "anonymous": false,
      "inputs": [
        {
          "indexed": true,
          "internalType": "address",
          "name": "lockerTargetAddress",
          "type": "address"
        },
        {
          "indexed": true,
          "internalType": "address",
          "name": "receiver",
          "type": "address"
        },
        {
          "indexed": false,
          "internalType": "uint256",
          "name": "mintedAmount",
          "type": "uint256"
        },
        {
          "indexed": false,
          "internalType": "uint256",
          "name": "lockerFee",
          "type": "uint256"
        },
        {
          "indexed": false,
          "internalType": "uint256",
          "name": "mintingTime",
          "type": "uint256"
        }
      ],
      "name": "MintByLocker",
      "type": "event"
    },
    {
      "anonymous": false,
      "inputs": [
        {
          "indexed": true,
          "internalType": "address",
          "name": "account",
          "type": "address"
        }
      ],
      "name": "MinterAdded",
      "type": "event"
    },
    {
      "anonymous": false,
      "inputs": [
        {
          "indexed": true,
          "internalType": "address",
          "name": "account",
          "type": "address"
        }
      ],
      "name": "MinterRemoved",
      "type": "event"
    },
    {
      "anonymous": false,
      "inputs": [
        {
          "indexed": false,
          "internalType": "address",
          "name": "oldBurnRouter",
          "type": "address"
        },
        {
          "indexed": false,
          "internalType": "address",
          "name": "newBurnRouter",
          "type": "address"
        }
      ],
      "name": "NewBurnRouter",
      "type": "event"
    },
    {
      "anonymous": false,
      "inputs": [
        {
          "indexed": false,
          "internalType": "uint256",
          "name": "oldCollateralRatio",
          "type": "uint256"
        },
        {
          "indexed": false,
          "internalType": "uint256",
          "name": "newCollateralRatio",
          "type": "uint256"
        }
      ],
      "name": "NewCollateralRatio",
      "type": "event"
    },
    {
      "anonymous": false,
      "inputs": [
        {
          "indexed": false,
          "internalType": "address",
          "name": "token",
          "type": "address"
        },
        {
          "indexed": false,
          "internalType": "uint256",
          "name": "decimal",
          "type": "uint256"
        }
      ],
      "name": "NewCollateralToken",
      "type": "event"
    },
    {
      "anonymous": false,
      "inputs": [
        {
          "indexed": false,
          "internalType": "uint256",
          "name": "oldLiquidationRatio",
          "type": "uint256"
        },
        {
          "indexed": false,
          "internalType": "uint256",
          "name": "newLiquidationRatio",
          "type": "uint256"
        }
      ],
      "name": "NewLiquidationRatio",
      "type": "event"
    },
    {
      "anonymous": false,
      "inputs": [
        {
          "indexed": false,
          "internalType": "uint256",
          "name": "oldLockerPercentageFee",
          "type": "uint256"
        },
        {
          "indexed": false,
          "internalType": "uint256",
          "name": "newLockerPercentageFee",
          "type": "uint256"
        }
      ],
      "name": "NewLockerPercentageFee",
      "type": "event"
    },
    {
      "anonymous": false,
      "inputs": [
        {
          "indexed": false,
          "internalType": "uint256",
          "name": "oldMinRequiredTNTLockedAmount",
          "type": "uint256"
        },
        {
          "indexed": false,
          "internalType": "uint256",
          "name": "newMinRequiredTNTLockedAmount",
          "type": "uint256"
        }
      ],
      "name": "NewMinRequiredTNTLockedAmount",
      "type": "event"
    },
    {
      "anonymous": false,
      "inputs": [
        {
          "indexed": false,
          "internalType": "uint256",
          "name": "oldMinRequiredTSTLockedAmount",
          "type": "uint256"
        },
        {
          "indexed": false,
          "internalType": "uint256",
          "name": "newMinRequiredTSTLockedAmount",
          "type": "uint256"
        }
      ],
      "name": "NewMinRequiredTSTLockedAmount",
      "type": "event"
    },
    {
      "anonymous": false,
      "inputs": [
        {
          "indexed": false,
          "internalType": "address",
          "name": "oldPriceOracle",
          "type": "address"
        },
        {
          "indexed": false,
          "internalType": "address",
          "name": "newPriceOracle",
          "type": "address"
        }
      ],
      "name": "NewPriceOracle",
      "type": "event"
    },
    {
      "anonymous": false,
      "inputs": [
        {
          "indexed": false,
          "internalType": "uint256",
          "name": "oldPriceWithDiscountRatio",
          "type": "uint256"
        },
        {
          "indexed": false,
          "internalType": "uint256",
          "name": "newPriceWithDiscountRatio",
          "type": "uint256"
        }
      ],
      "name": "NewPriceWithDiscountRatio",
      "type": "event"
    },
    {
      "anonymous": false,
      "inputs": [
        {
          "indexed": false,
          "internalType": "address",
          "name": "lockerTargetAddress",
          "type": "address"
        },
        {
          "indexed": false,
          "internalType": "uint256",
          "name": "oldReliabilityFactor",
          "type": "uint256"
        },
        {
          "indexed": false,
          "internalType": "uint256",
          "name": "newReliabilityFactor",
          "type": "uint256"
        }
      ],
      "name": "NewReliabilityFactor",
      "type": "event"
    },
    {
      "anonymous": false,
      "inputs": [
        {
          "indexed": false,
          "internalType": "address",
          "name": "oldTST",
          "type": "address"
        },
        {
          "indexed": false,
          "internalType": "address",
          "name": "newTST",
          "type": "address"
        }
      ],
      "name": "NewTST",
      "type": "event"
    },
    {
      "anonymous": false,
      "inputs": [
        {
          "indexed": false,
          "internalType": "address",
          "name": "oldTeleBTC",
          "type": "address"
        },
        {
          "indexed": false,
          "internalType": "address",
          "name": "newTeleBTC",
          "type": "address"
        }
      ],
      "name": "NewTeleBTC",
      "type": "event"
    },
    {
      "anonymous": false,
      "inputs": [
        {
          "indexed": true,
          "internalType": "address",
          "name": "previousOwner",
          "type": "address"
        },
        {
          "indexed": true,
          "internalType": "address",
          "name": "newOwner",
          "type": "address"
        }
      ],
      "name": "OwnershipTransferred",
      "type": "event"
    },
    {
      "anonymous": false,
      "inputs": [
        {
          "indexed": false,
          "internalType": "address",
          "name": "account",
          "type": "address"
        }
      ],
      "name": "Paused",
      "type": "event"
    },
    {
      "anonymous": false,
      "inputs": [
        {
          "indexed": true,
          "internalType": "address",
          "name": "lockerTargetAddress",
          "type": "address"
        },
        {
          "indexed": false,
          "internalType": "bytes",
          "name": "lockerLockingScript",
          "type": "bytes"
        },
        {
          "indexed": false,
          "internalType": "uint256",
          "name": "TSTLockedAmount",
          "type": "uint256"
        },
        {
          "indexed": true,
          "internalType": "address",
          "name": "collateralToken",
          "type": "address"
        },
        {
          "indexed": false,
          "internalType": "uint256",
          "name": "collateralTokenLockedAmount",
          "type": "uint256"
        }
      ],
      "name": "RequestAddLocker",
      "type": "event"
    },
    {
      "anonymous": false,
      "inputs": [
        {
          "indexed": true,
          "internalType": "address",
          "name": "lockerTargetAddress",
          "type": "address"
        },
        {
          "indexed": true,
          "internalType": "uint256",
          "name": "inactivationTimestamp",
          "type": "uint256"
        },
        {
          "indexed": false,
          "internalType": "bytes",
          "name": "lockerLockingScript",
          "type": "bytes"
        },
        {
          "indexed": false,
          "internalType": "uint256",
          "name": "TSTLockedAmount",
          "type": "uint256"
        },
        {
          "indexed": false,
          "internalType": "address",
          "name": "collateralToken",
          "type": "address"
        },
        {
          "indexed": false,
          "internalType": "uint256",
          "name": "collateralTokenLockedAmount",
          "type": "uint256"
        },
        {
          "indexed": false,
          "internalType": "uint256",
          "name": "netMinted",
          "type": "uint256"
        }
      ],
      "name": "RequestInactivateLocker",
      "type": "event"
    },
    {
      "anonymous": false,
      "inputs": [
        {
          "indexed": true,
          "internalType": "address",
          "name": "lockerTargetAddress",
          "type": "address"
        },
        {
          "indexed": false,
          "internalType": "bytes",
          "name": "lockerLockingScript",
          "type": "bytes"
        },
        {
          "indexed": false,
          "internalType": "uint256",
          "name": "TSTLockedAmount",
          "type": "uint256"
        },
        {
          "indexed": true,
          "internalType": "address",
          "name": "collateralToken",
          "type": "address"
        },
        {
          "indexed": false,
          "internalType": "uint256",
          "name": "collateralTokenLockedAmount",
          "type": "uint256"
        }
      ],
      "name": "RevokeAddLockerRequest",
      "type": "event"
    },
    {
      "anonymous": false,
      "inputs": [
        {
          "indexed": false,
          "internalType": "address",
          "name": "account",
          "type": "address"
        }
      ],
      "name": "Unpaused",
      "type": "event"
    },
    {
      "inputs": [],
      "name": "HEALTH_FACTOR",
      "outputs": [
        {
          "internalType": "uint256",
          "name": "",
          "type": "uint256"
        }
      ],
      "stateMutability": "view",
      "type": "function"
    },
    {
      "inputs": [],
      "name": "INACTIVATION_DELAY",
      "outputs": [
        {
          "internalType": "uint256",
          "name": "",
          "type": "uint256"
        }
      ],
      "stateMutability": "view",
      "type": "function"
    },
    {
      "inputs": [],
      "name": "MAX_LOCKER_FEE",
      "outputs": [
        {
          "internalType": "uint256",
          "name": "",
          "type": "uint256"
        }
      ],
      "stateMutability": "view",
      "type": "function"
    },
    {
      "inputs": [],
      "name": "NATIVE_TOKEN",
      "outputs": [
        {
          "internalType": "address",
          "name": "",
          "type": "address"
        }
      ],
      "stateMutability": "view",
      "type": "function"
    },
    {
      "inputs": [],
      "name": "NATIVE_TOKEN_DECIMAL",
      "outputs": [
        {
          "internalType": "uint256",
          "name": "",
          "type": "uint256"
        }
      ],
      "stateMutability": "view",
      "type": "function"
    },
    {
      "inputs": [],
      "name": "ONE_HUNDRED_PERCENT",
      "outputs": [
        {
          "internalType": "uint256",
          "name": "",
          "type": "uint256"
        }
      ],
      "stateMutability": "view",
      "type": "function"
    },
    {
      "inputs": [],
      "name": "TeleportSystemToken",
      "outputs": [
        {
          "internalType": "address",
          "name": "",
          "type": "address"
        }
      ],
      "stateMutability": "view",
      "type": "function"
    },
    {
      "inputs": [],
      "name": "UPPER_HEALTH_FACTOR",
      "outputs": [
        {
          "internalType": "uint256",
          "name": "",
          "type": "uint256"
        }
      ],
      "stateMutability": "view",
      "type": "function"
    },
    {
      "inputs": [
        {
          "internalType": "address",
          "name": "_account",
          "type": "address"
        }
      ],
      "name": "addBurner",
      "outputs": [],
      "stateMutability": "nonpayable",
      "type": "function"
    },
    {
      "inputs": [
        {
          "internalType": "address",
          "name": "_lockerTargetAddress",
          "type": "address"
        },
        {
          "internalType": "uint256",
          "name": "_addingCollateralTokenAmount",
          "type": "uint256"
        }
      ],
      "name": "addCollateral",
      "outputs": [
        {
          "internalType": "bool",
          "name": "",
          "type": "bool"
        }
      ],
      "stateMutability": "payable",
      "type": "function"
    },
    {
      "inputs": [
        {
          "internalType": "address",
          "name": "_token",
          "type": "address"
        },
        {
          "internalType": "uint256",
          "name": "_decimal",
          "type": "uint256"
        }
      ],
      "name": "addCollateralToken",
      "outputs": [],
      "stateMutability": "nonpayable",
      "type": "function"
    },
    {
      "inputs": [
        {
          "internalType": "address",
          "name": "_lockerTargetAddress",
          "type": "address"
        },
        {
          "internalType": "uint256",
          "name": "_lockerReliabilityFactor",
          "type": "uint256"
        }
      ],
      "name": "addLocker",
      "outputs": [
        {
          "internalType": "bool",
          "name": "",
          "type": "bool"
        }
      ],
      "stateMutability": "nonpayable",
      "type": "function"
    },
    {
      "inputs": [
        {
          "internalType": "address",
          "name": "_account",
          "type": "address"
        }
      ],
      "name": "addMinter",
      "outputs": [],
      "stateMutability": "nonpayable",
      "type": "function"
    },
    {
      "inputs": [
        {
          "internalType": "bytes",
          "name": "_lockerLockingScript",
          "type": "bytes"
        },
        {
          "internalType": "uint256",
          "name": "_amount",
          "type": "uint256"
        }
      ],
      "name": "burn",
      "outputs": [
        {
          "internalType": "uint256",
          "name": "",
          "type": "uint256"
        }
      ],
      "stateMutability": "nonpayable",
      "type": "function"
    },
    {
      "inputs": [],
      "name": "burnRouter",
      "outputs": [
        {
          "internalType": "address",
          "name": "",
          "type": "address"
        }
      ],
      "stateMutability": "view",
      "type": "function"
    },
    {
      "inputs": [
        {
          "internalType": "address",
          "name": "",
          "type": "address"
        }
      ],
      "name": "burners",
      "outputs": [
        {
          "internalType": "bool",
          "name": "",
          "type": "bool"
        }
      ],
      "stateMutability": "view",
      "type": "function"
    },
    {
      "inputs": [
        {
          "internalType": "address",
          "name": "_lockerTargetAddress",
          "type": "address"
        },
        {
          "internalType": "uint256",
          "name": "_collateralAmount",
          "type": "uint256"
        }
      ],
      "name": "buySlashedCollateralOfLocker",
      "outputs": [
        {
          "internalType": "bool",
          "name": "",
          "type": "bool"
        }
      ],
      "stateMutability": "nonpayable",
      "type": "function"
    },
    {
      "inputs": [
        {
          "internalType": "address",
          "name": "",
          "type": "address"
        }
      ],
      "name": "collateralDecimal",
      "outputs": [
        {
          "internalType": "uint256",
          "name": "",
          "type": "uint256"
        }
      ],
      "stateMutability": "view",
      "type": "function"
    },
    {
      "inputs": [],
      "name": "collateralRatio",
      "outputs": [
        {
          "internalType": "uint256",
          "name": "",
          "type": "uint256"
        }
      ],
      "stateMutability": "view",
      "type": "function"
    },
    {
      "inputs": [],
      "name": "exchangeConnector",
      "outputs": [
        {
          "internalType": "address",
          "name": "",
          "type": "address"
        }
      ],
      "stateMutability": "view",
      "type": "function"
    },
    {
      "inputs": [
        {
          "internalType": "address",
          "name": "_lockerTargetAddress",
          "type": "address"
        }
      ],
      "name": "getLockerCapacity",
      "outputs": [
        {
          "internalType": "uint256",
          "name": "theLockerCapacity",
          "type": "uint256"
        }
      ],
      "stateMutability": "view",
      "type": "function"
    },
    {
      "inputs": [
        {
          "internalType": "address",
          "name": "_lockerTargetAddress",
          "type": "address"
        }
      ],
      "name": "getLockerHealthFactor",
      "outputs": [
        {
          "internalType": "uint256",
          "name": "",
          "type": "uint256"
        }
      ],
      "stateMutability": "view",
      "type": "function"
    },
    {
      "inputs": [
        {
          "internalType": "bytes",
          "name": "",
          "type": "bytes"
        }
      ],
      "name": "getLockerTargetAddress",
      "outputs": [
        {
          "internalType": "address",
          "name": "",
          "type": "address"
        }
      ],
      "stateMutability": "view",
      "type": "function"
    },
    {
      "inputs": [
        {
          "internalType": "address",
          "name": "_teleBTC",
          "type": "address"
        },
        {
          "internalType": "address",
          "name": "_priceOracle",
          "type": "address"
        },
        {
          "internalType": "address",
          "name": "_burnRouter",
          "type": "address"
        },
        {
          "internalType": "uint256",
          "name": "_minRequiredTSTLockedAmount",
          "type": "uint256"
        },
        {
          "internalType": "uint256",
          "name": "_collateralRatio",
          "type": "uint256"
        },
        {
          "internalType": "uint256",
          "name": "_liquidationRatio",
          "type": "uint256"
        },
        {
          "internalType": "uint256",
          "name": "_lockerPercentageFee",
          "type": "uint256"
        },
        {
          "internalType": "uint256",
          "name": "_priceWithDiscountRatio",
          "type": "uint256"
        }
      ],
      "name": "initialize",
      "outputs": [],
      "stateMutability": "nonpayable",
      "type": "function"
    },
    {
      "inputs": [
        {
          "internalType": "bytes",
          "name": "_lockerLockingScript",
          "type": "bytes"
        }
      ],
      "name": "isLocker",
      "outputs": [
        {
          "internalType": "bool",
          "name": "",
          "type": "bool"
        }
      ],
      "stateMutability": "view",
      "type": "function"
    },
    {
      "inputs": [
        {
          "internalType": "address",
          "name": "_lockerTargetAddress",
          "type": "address"
        }
      ],
      "name": "isLockerActive",
      "outputs": [
        {
          "internalType": "bool",
          "name": "",
          "type": "bool"
        }
      ],
      "stateMutability": "view",
      "type": "function"
    },
    {
      "inputs": [],
      "name": "libConstants",
      "outputs": [
        {
          "internalType": "uint256",
          "name": "OneHundredPercent",
          "type": "uint256"
        },
        {
          "internalType": "uint256",
          "name": "HealthFactor",
          "type": "uint256"
        },
        {
          "internalType": "uint256",
          "name": "UpperHealthFactor",
          "type": "uint256"
        },
        {
          "internalType": "uint256",
          "name": "MaxLockerFee",
          "type": "uint256"
        },
        {
          "internalType": "uint256",
          "name": "NativeTokenDecimal",
          "type": "uint256"
        },
        {
          "internalType": "address",
          "name": "NativeToken",
          "type": "address"
        }
      ],
      "stateMutability": "view",
      "type": "function"
    },
    {
      "inputs": [],
      "name": "libParams",
      "outputs": [
        {
          "internalType": "address",
          "name": "TeleportSystemToken",
          "type": "address"
        },
        {
          "internalType": "address",
          "name": "teleBTC",
          "type": "address"
        },
        {
          "internalType": "address",
          "name": "burnRouter",
          "type": "address"
        },
        {
          "internalType": "address",
          "name": "exchangeConnector",
          "type": "address"
        },
        {
          "internalType": "address",
          "name": "priceOracle",
          "type": "address"
        },
        {
          "internalType": "uint256",
          "name": "minRequiredTSTLockedAmount",
          "type": "uint256"
        },
        {
          "internalType": "uint256",
          "name": "minRequiredTNTLockedAmount",
          "type": "uint256"
        },
        {
          "internalType": "uint256",
          "name": "lockerPercentageFee",
          "type": "uint256"
        },
        {
          "internalType": "uint256",
          "name": "collateralRatio",
          "type": "uint256"
        },
        {
          "internalType": "uint256",
          "name": "liquidationRatio",
          "type": "uint256"
        },
        {
          "internalType": "uint256",
          "name": "priceWithDiscountRatio",
          "type": "uint256"
        },
        {
          "internalType": "uint256",
          "name": "inactivationDelay",
          "type": "uint256"
        }
      ],
      "stateMutability": "view",
      "type": "function"
    },
    {
      "inputs": [
        {
          "internalType": "address",
          "name": "_lockerTargetAddress",
          "type": "address"
        },
        {
          "internalType": "uint256",
          "name": "_collateralAmount",
          "type": "uint256"
        }
      ],
      "name": "liquidateLocker",
      "outputs": [
        {
          "internalType": "bool",
          "name": "",
          "type": "bool"
        }
      ],
      "stateMutability": "nonpayable",
      "type": "function"
    },
    {
      "inputs": [],
      "name": "liquidationRatio",
      "outputs": [
        {
          "internalType": "uint256",
          "name": "",
          "type": "uint256"
        }
      ],
      "stateMutability": "view",
      "type": "function"
    },
    {
      "inputs": [
        {
          "internalType": "address",
          "name": "",
          "type": "address"
        }
      ],
      "name": "lockerCollateralToken",
      "outputs": [
        {
          "internalType": "address",
          "name": "",
          "type": "address"
        }
      ],
      "stateMutability": "view",
      "type": "function"
    },
    {
      "inputs": [
        {
          "internalType": "address",
          "name": "",
          "type": "address"
        }
      ],
      "name": "lockerInactivationTimestamp",
      "outputs": [
        {
          "internalType": "uint256",
          "name": "",
          "type": "uint256"
        }
      ],
      "stateMutability": "view",
      "type": "function"
    },
    {
      "inputs": [
        {
          "internalType": "address",
          "name": "",
          "type": "address"
        }
      ],
      "name": "lockerLeavingAcceptance",
      "outputs": [
        {
          "internalType": "bool",
          "name": "",
          "type": "bool"
        }
      ],
      "stateMutability": "view",
      "type": "function"
    },
    {
      "inputs": [],
      "name": "lockerPercentageFee",
      "outputs": [
        {
          "internalType": "uint256",
          "name": "",
          "type": "uint256"
        }
      ],
      "stateMutability": "view",
      "type": "function"
    },
    {
      "inputs": [
        {
          "internalType": "address",
          "name": "",
          "type": "address"
        }
      ],
      "name": "lockerReliabilityFactor",
      "outputs": [
        {
          "internalType": "uint256",
          "name": "",
          "type": "uint256"
        }
      ],
      "stateMutability": "view",
      "type": "function"
    },
    {
      "inputs": [
        {
          "internalType": "address",
          "name": "",
          "type": "address"
        }
      ],
      "name": "lockersMapping",
      "outputs": [
        {
          "internalType": "bytes",
          "name": "lockerLockingScript",
          "type": "bytes"
        },
        {
          "internalType": "enum ScriptTypes",
          "name": "lockerRescueType",
          "type": "uint8"
        },
        {
          "internalType": "bytes",
          "name": "lockerRescueScript",
          "type": "bytes"
        },
        {
          "internalType": "uint256",
          "name": "TSTLockedAmount",
          "type": "uint256"
        },
        {
          "internalType": "uint256",
          "name": "collateralTokenLockedAmount",
          "type": "uint256"
        },
        {
          "internalType": "uint256",
          "name": "netMinted",
          "type": "uint256"
        },
        {
          "internalType": "uint256",
          "name": "slashingTeleBTCAmount",
          "type": "uint256"
        },
        {
          "internalType": "uint256",
          "name": "reservedCollateralTokenForSlash",
          "type": "uint256"
        },
        {
          "internalType": "bool",
          "name": "isLocker",
          "type": "bool"
        },
        {
          "internalType": "bool",
          "name": "isCandidate",
          "type": "bool"
        },
        {
          "internalType": "bool",
          "name": "isScriptHash",
          "type": "bool"
        }
      ],
      "stateMutability": "view",
      "type": "function"
    },
    {
      "inputs": [],
      "name": "minRequiredTNTLockedAmount",
      "outputs": [
        {
          "internalType": "uint256",
          "name": "",
          "type": "uint256"
        }
      ],
      "stateMutability": "view",
      "type": "function"
    },
    {
      "inputs": [],
      "name": "minRequiredTSTLockedAmount",
      "outputs": [
        {
          "internalType": "uint256",
          "name": "",
          "type": "uint256"
        }
      ],
      "stateMutability": "view",
      "type": "function"
    },
    {
      "inputs": [
        {
          "internalType": "bytes",
          "name": "_lockerLockingScript",
          "type": "bytes"
        },
        {
          "internalType": "address",
          "name": "_receiver",
          "type": "address"
        },
        {
          "internalType": "uint256",
          "name": "_amount",
          "type": "uint256"
        }
      ],
      "name": "mint",
      "outputs": [
        {
          "internalType": "uint256",
          "name": "",
          "type": "uint256"
        }
      ],
      "stateMutability": "nonpayable",
      "type": "function"
    },
    {
      "inputs": [
        {
          "internalType": "address",
          "name": "",
          "type": "address"
        }
      ],
      "name": "minters",
      "outputs": [
        {
          "internalType": "bool",
          "name": "",
          "type": "bool"
        }
      ],
      "stateMutability": "view",
      "type": "function"
    },
    {
      "inputs": [],
      "name": "owner",
      "outputs": [
        {
          "internalType": "address",
          "name": "",
          "type": "address"
        }
      ],
      "stateMutability": "view",
      "type": "function"
    },
    {
      "inputs": [],
      "name": "pauseLocker",
      "outputs": [],
      "stateMutability": "nonpayable",
      "type": "function"
    },
    {
      "inputs": [],
      "name": "paused",
      "outputs": [
        {
          "internalType": "bool",
          "name": "",
          "type": "bool"
        }
      ],
      "stateMutability": "view",
      "type": "function"
    },
    {
      "inputs": [],
      "name": "priceOracle",
      "outputs": [
        {
          "internalType": "address",
          "name": "",
          "type": "address"
        }
      ],
      "stateMutability": "view",
      "type": "function"
    },
    {
      "inputs": [],
      "name": "priceWithDiscountRatio",
      "outputs": [
        {
          "internalType": "uint256",
          "name": "",
          "type": "uint256"
        }
      ],
      "stateMutability": "view",
      "type": "function"
    },
    {
      "inputs": [
        {
          "internalType": "address",
          "name": "_account",
          "type": "address"
        }
      ],
      "name": "removeBurner",
      "outputs": [],
      "stateMutability": "nonpayable",
      "type": "function"
    },
    {
      "inputs": [
        {
          "internalType": "uint256",
          "name": "_removingCollateralTokenAmount",
          "type": "uint256"
        }
      ],
      "name": "removeCollateral",
      "outputs": [
        {
          "internalType": "bool",
          "name": "",
          "type": "bool"
        }
      ],
      "stateMutability": "payable",
      "type": "function"
    },
    {
      "inputs": [
        {
          "internalType": "address",
          "name": "_account",
          "type": "address"
        }
      ],
      "name": "removeMinter",
      "outputs": [],
      "stateMutability": "nonpayable",
      "type": "function"
    },
    {
      "inputs": [],
      "name": "renounceOwnership",
      "outputs": [],
      "stateMutability": "nonpayable",
      "type": "function"
    },
    {
      "inputs": [],
      "name": "requestActivation",
      "outputs": [
        {
          "internalType": "bool",
          "name": "",
          "type": "bool"
        }
      ],
      "stateMutability": "nonpayable",
      "type": "function"
    },
    {
      "inputs": [],
      "name": "requestInactivation",
      "outputs": [
        {
          "internalType": "bool",
          "name": "",
          "type": "bool"
        }
      ],
      "stateMutability": "nonpayable",
      "type": "function"
    },
    {
      "inputs": [
        {
          "internalType": "bytes",
          "name": "_candidateLockingScript",
          "type": "bytes"
        },
        {
          "internalType": "address",
          "name": "_collateralToken",
          "type": "address"
        },
        {
          "internalType": "uint256",
          "name": "_lockedTSTAmount",
          "type": "uint256"
        },
        {
          "internalType": "uint256",
          "name": "_lockedCollateralTokenAmount",
          "type": "uint256"
        },
        {
          "internalType": "enum ScriptTypes",
          "name": "_lockerRescueType",
          "type": "uint8"
        },
        {
          "internalType": "bytes",
          "name": "_lockerRescueScript",
          "type": "bytes"
        }
      ],
      "name": "requestToBecomeLocker",
      "outputs": [
        {
          "internalType": "bool",
          "name": "",
          "type": "bool"
        }
      ],
      "stateMutability": "payable",
      "type": "function"
    },
    {
      "inputs": [],
      "name": "revokeRequest",
      "outputs": [
        {
          "internalType": "bool",
          "name": "",
          "type": "bool"
        }
      ],
      "stateMutability": "nonpayable",
      "type": "function"
    },
    {
      "inputs": [],
      "name": "selfRemoveLocker",
      "outputs": [
        {
          "internalType": "bool",
          "name": "",
          "type": "bool"
        }
      ],
      "stateMutability": "nonpayable",
      "type": "function"
    },
    {
      "inputs": [
        {
          "internalType": "address",
          "name": "_burnRouter",
          "type": "address"
        }
      ],
      "name": "setBurnRouter",
      "outputs": [],
      "stateMutability": "nonpayable",
      "type": "function"
    },
    {
      "inputs": [
        {
          "internalType": "uint256",
          "name": "_collateralRatio",
          "type": "uint256"
        }
      ],
      "name": "setCollateralRatio",
      "outputs": [],
      "stateMutability": "nonpayable",
      "type": "function"
    },
    {
      "inputs": [
        {
          "internalType": "uint256",
          "name": "_liquidationRatio",
          "type": "uint256"
        }
      ],
      "name": "setLiquidationRatio",
      "outputs": [],
      "stateMutability": "nonpayable",
      "type": "function"
    },
    {
      "inputs": [
        {
          "internalType": "address",
          "name": "lockerTargetAddress",
          "type": "address"
        },
        {
          "internalType": "address",
          "name": "collateralToken",
          "type": "address"
        }
      ],
      "name": "setLockerCollateralToken",
      "outputs": [],
      "stateMutability": "nonpayable",
      "type": "function"
    },
    {
      "inputs": [
        {
          "internalType": "uint256",
          "name": "_lockerPercentageFee",
          "type": "uint256"
        }
      ],
      "name": "setLockerPercentageFee",
      "outputs": [],
      "stateMutability": "nonpayable",
      "type": "function"
    },
    {
      "inputs": [
        {
          "internalType": "address",
          "name": "lockerTargetAddress",
          "type": "address"
        },
        {
          "internalType": "uint256",
          "name": "reliabilityFactor",
          "type": "uint256"
        }
      ],
      "name": "setLockerReliabilityFactor",
      "outputs": [],
      "stateMutability": "nonpayable",
      "type": "function"
    },
    {
      "inputs": [
        {
          "internalType": "uint256",
          "name": "_minRequiredTSTLockedAmount",
          "type": "uint256"
        }
      ],
      "name": "setMinRequiredTSTLockedAmount",
      "outputs": [],
      "stateMutability": "nonpayable",
      "type": "function"
    },
    {
      "inputs": [
        {
          "internalType": "address",
          "name": "_priceOracle",
          "type": "address"
        }
      ],
      "name": "setPriceOracle",
      "outputs": [],
      "stateMutability": "nonpayable",
      "type": "function"
    },
    {
      "inputs": [
        {
          "internalType": "uint256",
          "name": "_priceWithDiscountRatio",
          "type": "uint256"
        }
      ],
      "name": "setPriceWithDiscountRatio",
      "outputs": [],
      "stateMutability": "nonpayable",
      "type": "function"
    },
    {
      "inputs": [
        {
          "internalType": "address",
          "name": "_TST",
          "type": "address"
        }
      ],
      "name": "setTST",
      "outputs": [],
      "stateMutability": "nonpayable",
      "type": "function"
    },
    {
      "inputs": [
        {
          "internalType": "address",
          "name": "_teleBTC",
          "type": "address"
        }
      ],
      "name": "setTeleBTC",
      "outputs": [],
      "stateMutability": "nonpayable",
      "type": "function"
    },
    {
      "inputs": [
        {
          "internalType": "address",
          "name": "_lockerTargetAddress",
          "type": "address"
        },
        {
          "internalType": "uint256",
          "name": "_rewardAmount",
          "type": "uint256"
        },
        {
          "internalType": "address",
          "name": "_slasher",
          "type": "address"
        },
        {
          "internalType": "uint256",
          "name": "_amount",
          "type": "uint256"
        },
        {
          "internalType": "address",
          "name": "_recipient",
          "type": "address"
        }
      ],
      "name": "slashIdleLocker",
      "outputs": [
        {
          "internalType": "bool",
          "name": "",
          "type": "bool"
        }
      ],
      "stateMutability": "nonpayable",
      "type": "function"
    },
    {
      "inputs": [
        {
          "internalType": "address",
          "name": "_lockerTargetAddress",
          "type": "address"
        },
        {
          "internalType": "uint256",
          "name": "_rewardAmount",
          "type": "uint256"
        },
        {
          "internalType": "address",
          "name": "_slasher",
          "type": "address"
        },
        {
          "internalType": "uint256",
          "name": "_amount",
          "type": "uint256"
        }
      ],
      "name": "slashThiefLocker",
      "outputs": [
        {
          "internalType": "bool",
          "name": "",
          "type": "bool"
        }
      ],
      "stateMutability": "nonpayable",
      "type": "function"
    },
    {
      "inputs": [],
      "name": "teleBTC",
      "outputs": [
        {
          "internalType": "address",
          "name": "",
          "type": "address"
        }
      ],
      "stateMutability": "view",
      "type": "function"
    },
    {
      "inputs": [],
      "name": "totalNumberOfCandidates",
      "outputs": [
        {
          "internalType": "uint256",
          "name": "",
          "type": "uint256"
        }
      ],
      "stateMutability": "view",
      "type": "function"
    },
    {
      "inputs": [],
      "name": "totalNumberOfLockers",
      "outputs": [
        {
          "internalType": "uint256",
          "name": "",
          "type": "uint256"
        }
      ],
      "stateMutability": "view",
      "type": "function"
    },
    {
      "inputs": [
        {
          "internalType": "address",
          "name": "newOwner",
          "type": "address"
        }
      ],
      "name": "transferOwnership",
      "outputs": [],
      "stateMutability": "nonpayable",
      "type": "function"
    },
    {
      "inputs": [],
      "name": "unPauseLocker",
      "outputs": [],
      "stateMutability": "nonpayable",
      "type": "function"
    }
  ],
  "transactionHash": "0x6746300705dcaeed09c98e7079ab42dbf68d3e0d80b79e5b50822f5faeec9f5e",
  "args": [],
  "numDeployments": 1,
  "solcInputHash": "15319494b0530e524b4cf627c6240d68",
  "bytecode": "0x608060405234801561001057600080fd5b50615f1880620000216000396000f3fe60806040526004361061032b5760003560e01c8063028468581461033057806303d41e0e1461035257806306e2415d146103975780630c42cbc9146103b75780631697565b146103da5780631775765f146103fa5780631dc4b09c146104105780631fcfe19c146104305780632630c12f146104505780632f5b04ac1461047d5780633092afd51461049457806331f7d964146104b45780633237c158146104c95780633794dc9b146104dc57806338463cff146105095780633fb99c201461052957806343b937071461055f578063530e784f1461057f57806354509b971461059f57806359bb9189146105b55780635c975abb146105ca5780635f73871e146105e25780636060663e146106025780636136c21f14610622578063613e2e1e1461064f5780636369f8df1461066457806363908020146106775780636600203d1461068d5780636a030fc3146106ad5780636c32b2ec146106cd5780636d32395c146106ed5780636d75b9ee14610703578063709e147a14610716578063715018a6146107365780637597922d1461074b578063768ebb121461059f5780637da5f0da146107785780637f0f1817146107a857806383a9954f146107c857806388aa0a52146107e85780638d3d78cd146107fe5780638da5cb5b1461081e5780638fe85fe714610833578063946ce8cd1461085357806396ec39e814610873578063983b2d5614610893578063a7cc34b5146108b3578063af1ea795146108c9578063aff2faa314610900578063b291ec1314610920578063b430225814610936578063b4eae1cb1461094b578063b52cd3ec14610961578063b734de2614610981578063bc805d1d146109a1578063bd60e794146109b7578063c0924b8014610a7c578063c4d10b6a14610a9c578063cdcbc87914610add578063d5a38a9114610b47578063dd0081c71461059f578063df8fa43014610b67578063e85501d814610b87578063e955de4514610b9c578063ed110a9c14610bb1578063f2fde38b14610bc7578063f3e27c4f14610be7578063f44637ba14610c07578063f46eccc414610c27578063f73e3a9514610c57578063fe89f32a14610c77578063ffc9f70414610c97575b600080fd5b34801561033c57600080fd5b5061035061034b366004614ed3565b610cac565b005b34801561035e57600080fd5b5061038261036d366004614ed3565b60126020526000908152604090205460ff1681565b60405190151581526020015b60405180910390f35b3480156103a357600080fd5b506103506103b2366004614eed565b610cfd565b3480156103c357600080fd5b506103cc601281565b60405190815260200161038e565b3480156103e657600080fd5b506103826103f5366004614ffb565b610d33565b34801561040657600080fd5b506103cc60095481565b34801561041c57600080fd5b5061035061042b366004614ed3565b610ff3565b34801561043c57600080fd5b506103cc61044b3660046150b0565b6110b6565b34801561045c57600080fd5b50600454610470906001600160a01b031681565b60405161038e9190615613565b34801561048957600080fd5b506103cc6205460081565b3480156104a057600080fd5b506103506104af366004614ed3565b6113cc565b3480156104c057600080fd5b50610470600181565b6103826104d73660046152a5565b611456565b3480156104e857600080fd5b506103cc6104f7366004614ed3565b60ee6020526000908152604090205481565b34801561051557600080fd5b506103cc6105243660046151b3565b611680565b34801561053557600080fd5b50610470610544366004614ed3565b60ef602052600090815260409020546001600160a01b031681565b34801561056b57600080fd5b5061038261057a366004614f8f565b6119b6565b34801561058b57600080fd5b5061035061059a366004614ed3565b611ced565b3480156105ab57600080fd5b506103cc61271081565b3480156105c157600080fd5b50610382611d91565b3480156105d657600080fd5b5060bc5460ff16610382565b3480156105ee57600080fd5b506103506105fd366004614f8f565b611ec6565b34801561060e57600080fd5b5061035061061d3660046152a5565b611f62565b34801561062e57600080fd5b506103cc61063d366004614ed3565b600e6020526000908152604090205481565b34801561065b57600080fd5b50610350611fd1565b610382610672366004615109565b611fe3565b34801561068357600080fd5b506103cc60075481565b34801561069957600080fd5b506103506106a83660046152a5565b612468565b3480156106b957600080fd5b506103826106c8366004614ed3565b6124d8565b3480156106d957600080fd5b50600254610470906001600160a01b031681565b3480156106f957600080fd5b506103cc60065481565b610382610711366004614f8f565b612532565b34801561072257600080fd5b50610382610731366004614f8f565b612696565b34801561074257600080fd5b50610350612854565b34801561075757600080fd5b506103cc610766366004614ed3565b60f06020526000908152604090205481565b34801561078457600080fd5b50610382610793366004614ed3565b600f6020526000908152604090205460ff1681565b3480156107b457600080fd5b506103506107c3366004614ed3565b61285c565b3480156107d457600080fd5b506103cc6107e3366004614ed3565b612900565b3480156107f457600080fd5b506103cc600b5481565b34801561080a57600080fd5b50600154610470906001600160a01b031681565b34801561082a57600080fd5b506104706129d1565b34801561083f57600080fd5b5061035061084e3660046152a5565b6129e0565b34801561085f57600080fd5b5061035061086e3660046152a5565b612a50565b34801561087f57600080fd5b5061038261088e366004614f8f565b612abf565b34801561089f57600080fd5b506103506108ae366004614ed3565b613085565b3480156108bf57600080fd5b506103cc60055481565b3480156108d557600080fd5b506108e96108e4366004614ed3565b61313c565b60405161038e9b9a999897969594939291906156f2565b34801561090c57600080fd5b5061038261091b366004615071565b6132b4565b34801561092c57600080fd5b506103cc600a5481565b34801561094257600080fd5b50610382613302565b34801561095757600080fd5b506103cc60085481565b34801561096d57600080fd5b50600054610470906001600160a01b031681565b34801561098d57600080fd5b5061038261099c366004614fb8565b6133c8565b3480156109ad57600080fd5b506103cc6130d481565b3480156109c357600080fd5b50601954601a54601b54601c54601d54601e54601f54602054602154602254602354602454610a0c9b6001600160a01b039081169b81169a81169981169816969594939291908c565b604080516001600160a01b039d8e1681529b8d1660208d0152998c16998b0199909952968a1660608a015298909416608088015260a087019290925260c086015260e08501526101008401526101208301939093526101408201929092526101608101919091526101800161038e565b348015610a8857600080fd5b50600354610470906001600160a01b031681565b348015610aa857600080fd5b50610470610ab73660046151fc565b80516020818301810180516010825292820191909301209152546001600160a01b031681565b348015610ae957600080fd5b50601354601454601554601654601754601854610b119594939291906001600160a01b031686565b60408051968752602087019590955293850192909252606084015260808301526001600160a01b031660a082015260c00161038e565b348015610b5357600080fd5b506103cc610b62366004614ed3565b61365f565b348015610b7357600080fd5b50610350610b82366004614f1f565b6136e1565b348015610b9357600080fd5b50610382613880565b348015610ba857600080fd5b50610350613cb9565b348015610bbd57600080fd5b506103cc600c5481565b348015610bd357600080fd5b50610350610be2366004614ed3565b613cc9565b348015610bf357600080fd5b50610350610c02366004614f8f565b613d42565b348015610c1357600080fd5b50610350610c22366004614ed3565b613dcc565b348015610c3357600080fd5b50610382610c42366004614ed3565b60116020526000908152604090205460ff1681565b348015610c6357600080fd5b50610350610c72366004614ed3565b613e83565b348015610c8357600080fd5b50610350610c923660046152a5565b613efe565b348015610ca357600080fd5b50610382613f4b565b610cb4614501565b6001600160a01b038116600081815260126020526040808220805460ff19169055517f90eabbc0c667db2a5029ed6bc0f5fe9f356d11684a4ca9fcfaec0e53f12b9c8e9190a250565b610d05614501565b6001600160a01b03918216600090815260ef6020526040902080546001600160a01b03191691909216179055565b6000610d3d614560565b610d456145ba565b6001600160a01b038087166000908152600d6020908152604080832060ef83528184205490941680845260ee909252808320549051631bcc6d6960e31b8152929384937351A0b53BF810f7Dc65ea8e185fbf2BC6E00436209363de636b4893610db893926019908e908d9060040161597a565b604080518083038186803b158015610dcf57600080fd5b505af4158015610de3573d6000803e3d6000fd5b505050506040513d601f19601f82011682018060405250810190610e0791906152d5565b6001600160a01b038a8116600090815260ef60205260409020549294509092501660011415610e5257610e4384610e3e8385615e12565b614600565b610e4d8682614600565b610f82565b6001600160a01b03808916600090815260ef60205260409020541663a9059cbb85610e7d8486615e12565b6040518363ffffffff1660e01b8152600401610e9a929190615665565b602060405180830381600087803b158015610eb457600080fd5b505af1158015610ec8573d6000803e3d6000fd5b505050506040513d601f19601f82011682018060405250810190610eec9190615051565b506001600160a01b03808916600090815260ef60205260409081902054905163a9059cbb60e01b815291169063a9059cbb90610f2e9089908590600401615665565b602060405180830381600087803b158015610f4857600080fd5b505af1158015610f5c573d6000803e3d6000fd5b505050506040513d601f19601f82011682018060405250810190610f809190615051565b505b6001600160a01b03888116600081815260ef602052604090819020549051838816938a81169392600080516020615ec383398151915292610fd292919091169087908c908a90429060019061567e565b60405180910390a4600192505050610fea6001608a55565b95945050505050565b806001600160a01b03811661101b5760405163d92e233d60e01b815260040160405180910390fd5b611023614501565b6002546040517f51ea9f7356591c4833bcb294538a4db90cfa61b532eac2411e70ebfdff9f1bf191611062916001600160a01b03909116908590615627565b60405180910390a160025461107f906001600160a01b0316610cac565b600280546001600160a01b0384166001600160a01b03199182168117909255601b8054909116821790556110b290613dcc565b5050565b6000826001600160a01b0381166110e05760405163d92e233d60e01b815260040160405180910390fd5b6110e8614560565b6110f06145ba565b3360009081526011602052604090205460ff1661112057604051633e34a41b60e21b815260040160405180910390fd5b600060108787604051611134929190615578565b908152604051908190036020019020546001600160a01b03169050611158816124d8565b611175576040516380bcdf5160e01b815260040160405180910390fd5b6001600160a01b038082166000818152600d6020908152604080832060ef83528184205490951680845260ee83528184205494845260f090925291829020549151631ec627b360e01b81527351A0b53BF810f7Dc65ea8e185fbf2BC6E004362094631ec627b3946111f59491936013936019938a93918e90600401615ad4565b60006040518083038186803b15801561120d57600080fd5b505af4158015611221573d6000803e3d6000fd5b505050506000612710600754866112389190615df3565b6112429190615ce8565b905080156112d0576001546040516340c10f1960e01b81526001600160a01b03909116906340c10f199061127c9085908590600401615665565b602060405180830381600087803b15801561129657600080fd5b505af11580156112aa573d6000803e3d6000fd5b505050506040513d601f19601f820116820180604052508101906112ce9190615051565b505b6001546001600160a01b03166340c10f19876112ec8489615e12565b6040518363ffffffff1660e01b8152600401611309929190615665565b602060405180830381600087803b15801561132357600080fd5b505af1158015611337573d6000803e3d6000fd5b505050506040513d601f19601f8201168201806040525081019061135b9190615051565b50856001600160a01b0316826001600160a01b03167f8ad706b338c5d2a20b0d038b5cfdaf2b2f943f43048723bde0dccdf129598a118784426040516113a393929190615cba565b60405180910390a36113b58186615e12565b935050506113c36001608a55565b50949350505050565b6113d4614501565b6001600160a01b03811660009081526011602052604090205460ff1661140d57604051633e34a41b60e21b815260040160405180910390fd5b6001600160a01b038116600081815260116020526040808220805460ff19169055517fe94479a9f7e1952cc78f2d6baab678adc1b772d936c6583def489e524cb666929190a250565b6000818061147757604051637c946ed760e01b815260040160405180910390fd5b61147f614560565b336000818152600d60209081526040808320815160c08082018452601354825260145482860152601554828501526016546060808401919091526017546080808501919091526018546001600160a01b0390811660a08087019190915287516101808101895260195483168152601a548316818b0152601b548316818a0152601c54831694810194909452601d54821692840192909252601e5491830191909152601f5492820192909252855460e082015260215461010082015260225461012082015260235461014082015260245461016082015296865260f085528386205460ef86528487205490911680875260ee9095529290942054611589959194939192919089614722565b611592336124d8565b156115b057604051631fefc40d60e01b815260040160405180910390fd5b33600090815260ef60205260409020546001600160a01b0316600114156115e0576115db3384614600565b611606565b33600081815260ef6020526040902054611606916001600160a01b039091169085614893565b33600081815260ef6020908152604080832054600d909252918290206004015491516001600160a01b0390911692917ff38dac2f851b07d9c651f6721a0ab772c2dcdb3b7af3f8a38b013a5a6551837b916116649188914290615cba565b60405180910390a36001915061167a6001608a55565b50919050565b600061168a614560565b6116926145ba565b3360009081526012602052604090205460ff166116c25760405163f019b1af60e01b815260040160405180910390fd5b6000601085856040516116d6929190615578565b908152604051908190036020019020546001546001600160a01b039182169250166323b872dd6117033390565b30866040518463ffffffff1660e01b815260040161172393929190615641565b602060405180830381600087803b15801561173d57600080fd5b505af1158015611751573d6000803e3d6000fd5b505050506040513d601f19601f820116820180604052508101906117759190615051565b611792576040516312171d8360e31b815260040160405180910390fd5b6000612710600754856117a59190615df3565b6117af9190615ce8565b905060006117bd8286615e12565b6001600160a01b0384166000908152600d6020526040902060050154909150818110156117fd5760405163356680b760e01b815260040160405180910390fd5b6118078282615e12565b6001600160a01b038581166000908152600d602052604090819020600501929092556001549151630852cd8d60e31b8152600481018590529116906342966c6890602401602060405180830381600087803b15801561186557600080fd5b505af1158015611879573d6000803e3d6000fd5b505050506040513d601f19601f8201168201806040525081019061189d9190615051565b6118ba57604051631bc5aabf60e21b815260040160405180910390fd5b60015460405163a9059cbb60e01b81526001600160a01b039091169063a9059cbb906118ec9087908790600401615665565b602060405180830381600087803b15801561190657600080fd5b505af115801561191a573d6000803e3d6000fd5b505050506040513d601f19601f8201168201806040525081019061193e9190615051565b61195b576040516312171d8360e31b815260040160405180910390fd5b836001600160a01b03167f66fb54322c407b04a077a306e72cdd780f0f374ba5dac9f6901a56a6255bc34a87854260405161199893929190615cba565b60405180910390a250925050506119af6001608a55565b9392505050565b600081806119d757604051637c946ed760e01b815260040160405180910390fd5b6119df614560565b6119e76145ba565b6001600160a01b0384166000908152600d602052604080822090516201412760e01b81527351A0b53BF810f7Dc65ea8e185fbf2BC6E0043620916201412791611a3591908890600401615bd0565b60206040518083038186803b158015611a4d57600080fd5b505af4158015611a61573d6000803e3d6000fd5b505050506040513d601f19601f82011682018060405250810190611a8591906152bd565b6001546040516323b872dd60e01b81529192506001600160a01b0316906323b872dd90611aba90339030908690600401615641565b602060405180830381600087803b158015611ad457600080fd5b505af1158015611ae8573d6000803e3d6000fd5b505050506040513d601f19601f82011682018060405250810190611b0c9190615051565b611b29576040516312171d8360e31b815260040160405180910390fd5b600154604051630852cd8d60e31b8152600481018390526001600160a01b03909116906342966c6890602401602060405180830381600087803b158015611b6f57600080fd5b505af1158015611b83573d6000803e3d6000fd5b505050506040513d601f19601f82011682018060405250810190611ba79190615051565b506001600160a01b03858116600090815260ef60205260409020541660011415611bda57611bd53385614600565b611c6d565b6001600160a01b03858116600090815260ef60205260409020541663a9059cbb33866040518363ffffffff1660e01b8152600401611c19929190615665565b602060405180830381600087803b158015611c3357600080fd5b505af1158015611c47573d6000803e3d6000fd5b505050506040513d601f19601f82011682018060405250810190611c6b9190615051565b505b6001600160a01b03858116600090815260ef602052604090205416336001600160a01b0316866001600160a01b03167f65f9ab20b9a3f1f824f2a5c4d1c1a8bcebf301234b63767c9cc70b01f81668c8878542604051611ccf93929190615cba565b60405180910390a46001925050611ce66001608a55565b5092915050565b806001600160a01b038116611d155760405163d92e233d60e01b815260040160405180910390fd5b611d1d614501565b6004546040517fd52b2b9b7e9ee655fcb95d2e5b9e0c9f69e7ef2b8e9d2d0ea78402d576d22e2291611d5c916001600160a01b03909116908590615627565b60405180910390a150600480546001600160a01b039092166001600160a01b03199283168117909155601d8054909216179055565b6000611d9b614560565b336000908152600d602052604090206008015460ff16611dce57604051631c12f2e960e01b815260040160405180910390fd5b336000908152600e602052604090205415611e2d5760405162461bcd60e51b815260206004820152601a602482015279131bd8dad95c9cce88185b1c9958591e481c995c5d595cdd195960321b60448201526064015b60405180910390fd5b611e3a6205460042615cd0565b336000818152600e60209081526040808320859055600d808352818420600381015460ef85529483902054919093526004830154600584015492517f8182b13ac61f04ab77079b11ee12f4baaf75bf72023d25249903ed23a89e975595611eae959490936001600160a01b03169291615796565b60405180910390a3506001611ec36001608a55565b90565b8080611ee557604051637c946ed760e01b815260040160405180910390fd5b611eed614501565b6001600160a01b038316600081815260f060209081526040918290205482519384529083015281018390527f361ade43c0f49aaa908c4b2681c1a214e911aef3dc524fa182e2905abe1c1ffa9060600160405180910390a1506001600160a01b03909116600090815260f06020526040902055565b611f6a614501565b6009548111611f8c57604051632a9ffab760e21b815260040160405180910390fd5b7f1e29d1b5c8926360f3ac632d884775772b07f31fec4077d433e58ce823f9134760085482604051611fbf929190615bd0565b60405180910390a16008819055602155565b611fd9614501565b611fe16148e9565b565b6000866001600160a01b03811661200d5760405163d92e233d60e01b815260040160405180910390fd5b612015614560565b7351A0b53BF810f7Dc65ea8e185fbf2BC6E00436206317b4e32b600d60405180610140016040528060136040518060c001604052908160008201548152602001600182015481526020016002820154815260200160038201548152602001600482015481526020016005820160009054906101000a90046001600160a01b03166001600160a01b03166001600160a01b03168152505081526020016019604051806101800160405290816000820160009054906101000a90046001600160a01b03166001600160a01b03166001600160a01b031681526020016001820160009054906101000a90046001600160a01b03166001600160a01b03166001600160a01b031681526020016002820160009054906101000a90046001600160a01b03166001600160a01b03166001600160a01b031681526020016003820160009054906101000a90046001600160a01b03166001600160a01b03166001600160a01b031681526020016004820160009054906101000a90046001600160a01b03166001600160a01b03166001600160a01b031681526020016005820154815260200160068201548152602001600782015481526020016008820154815260200160098201548152602001600a8201548152602001600b82015481525050815260200160108f8f604051612206929190615578565b908152602001604051809103902060009054906101000a90046001600160a01b03166001600160a01b031681526020018c6001600160a01b0316815260200160ee60008e6001600160a01b03166001600160a01b031681526020019081526020016000205481526020018b81526020018a81526020018e8e8080601f0160208091040260200160405190810160405280939291908181526020018383808284376000920191909152505050908252506020018960058111156122d857634e487b7160e01b600052602160045260246000fd5b815260200188888080601f01602080910402602001604051908101604052809392919081815260200183838082843760009201919091525050509152506040516001600160e01b031960e085901b16815261233792919060040161580d565b60006040518083038186803b15801561234f57600080fd5b505af4158015612363573d6000803e3d6000fd5b505050508760ef60006123733390565b6001600160a01b039081168252602082019290925260400160002080546001600160a01b0319169282169290921790915588166001146123c2576123c26001600160a01b038916333089614935565b6019546001600160a01b0316156123eb576123eb336019546001600160a01b031690308a614935565b600b546123f9906001615cd0565b600b556001600160a01b038816336001600160a01b03167f3f0bf63ee63c9aa7634598066ac9872e91c9e1713d764ae0ef781a9413d73af48c8c8b8b60405161244594939291906156b3565b60405180910390a36001915061245b6001608a55565b5098975050505050505050565b612470614501565b61271081111561249357604051632a9ffab760e21b815260040160405180910390fd5b7f44c6802691f6adea249930369a511db979a5e9a3603bdb37ceee1036da80e980600754826040516124c6929190615bd0565b60405180910390a16007819055602055565b6001600160a01b0381166000908152600e60205260408120546124fd57506001919050565b6001600160a01b0382166000908152600e602052604090205442101561252557506001919050565b506000919050565b919050565b600061253c614560565b6001600160a01b038084166000908152600d6020908152604080832060ef90925291829020549151637e82487360e01b81527351A0b53BF810f7Dc65ea8e185fbf2BC6E004362093637e8248739361259f93601393909289921690600401615c3b565b60006040518083038186803b1580156125b757600080fd5b505af41580156125cb573d6000803e3d6000fd5b505050506001600160a01b03838116600090815260ef60205260409020541660011461261857612618336001600160a01b03808616600090815260ef602052604090205416903085614935565b33600090815260ef60209081526040808320546001600160a01b03878116808652600d909452938290206004015491519316927fb7b1cd4dbd3f7787dcc190657396c1db6ad94a5df8e5d669a8f907d0311752059161267b918791904290615cba565b60405180910390a35060016126906001608a55565b92915050565b6000826001600160a01b0381166126c05760405163d92e233d60e01b815260040160405180910390fd5b82806126df57604051637c946ed760e01b815260040160405180910390fd5b6126e7614560565b6126ef614501565b6001600160a01b0385166000908152600d6020526040902060080154610100900460ff1661272f576040516294861760e21b815260040160405180910390fd5b6001600160a01b0385166000908152600d60205260409020600801805461ffff19166001908117909155600b546127669190615e12565b600b55600c54612777906001615cd0565b600c556001600160a01b0385166000908152600d602052604090819020905186916010916127a591906155a4565b908152604080516020928190038301812080546001600160a01b0319166001600160a01b03958616179055888416600081815260f085528381208a905560ef855283812054600d9095529290922060038101546004820154949095169492937fbd529f70cdff05eff7a5a8aad1d0b2926c1f644df27da30cb7de1f546909d16a93612836939091908b9042906157d6565b60405180910390a36001925061284c6001608a55565b505092915050565b611fe1614501565b806001600160a01b0381166128845760405163d92e233d60e01b815260040160405180910390fd5b61288c614501565b6001546040517f36a4c08a38b736dcecb6c328dba61238529620e83ccb23db2cc43cd34ec26096916128cb916001600160a01b03909116908590615627565b60405180910390a150600180546001600160a01b039092166001600160a01b03199283168117909155601a8054909216179055565b6001600160a01b038082166000818152600d6020908152604080832060ef83528184205490951680845260ee83528184205494845260f0909252808320549051630e233ebf60e21b815292947351A0b53BF810f7Dc65ea8e185fbf2BC6E00436209463388cfafc946129819492936013936019939092909190600401615b31565b60206040518083038186803b15801561299957600080fd5b505af41580156129ad573d6000803e3d6000fd5b505050506040513d601f19601f8201168201806040525081019061269091906152bd565b6058546001600160a01b031690565b6129e8614501565b612710811115612a0b57604051632a9ffab760e21b815260040160405180910390fd5b7f5e4dd01049cdfe5a081b404bff8e27de919fd9c8ae2145007e0921ec227f207a600a5482604051612a3e929190615bd0565b60405180910390a1600a819055602355565b612a58614501565b8060085411612a7a57604051632a9ffab760e21b815260040160405180910390fd5b7f883242c2a857ca527a432dfca231b1e49233fde2a96802809a0f3866e9f19e1360095482604051612aad929190615bd0565b60405180910390a16009819055602255565b60008180612ae057604051637c946ed760e01b815260040160405180910390fd5b612ae8614560565b612af06145ba565b6001600160a01b038085166000818152600d6020908152604080832060ef83528184205490951680845260ee83528184205494845260f0909252808320549051635d6cad1f60e11b815292947351A0b53BF810f7Dc65ea8e185fbf2BC6E00436209463bad95a3e94612b72949293601393601993909290918d91600401615b7c565b60206040518083038186803b158015612b8a57600080fd5b505af4158015612b9e573d6000803e3d6000fd5b505050506040513d601f19601f82011682018060405250810190612bc291906152bd565b90506000600d6000876001600160a01b03166001600160a01b0316815260200190815260200160002060405180610160016040529081600082018054612c0790615e61565b80601f0160208091040260200160405190810160405280929190818152602001828054612c3390615e61565b8015612c805780601f10612c5557610100808354040283529160200191612c80565b820191906000526020600020905b815481529060010190602001808311612c6357829003601f168201915b5050509183525050600182015460209091019060ff166005811115612cb557634e487b7160e01b600052602160045260246000fd5b6005811115612cd457634e487b7160e01b600052602160045260246000fd5b8152602001600282018054612ce890615e61565b80601f0160208091040260200160405190810160405280929190818152602001828054612d1490615e61565b8015612d615780601f10612d3657610100808354040283529160200191612d61565b820191906000526020600020905b815481529060010190602001808311612d4457829003601f168201915b505050918352505060038201546020808301919091526004808401546040808501919091526005850154606085015260068501546080850152600785015460a085015260089094015460ff808216151560c08601526101008083048216151560e0870152620100009092041615159301929092526001600160a01b038a166000908152600d909152919091200154909150612dfd908690615e12565b6001600160a01b038088166000908152600d6020526040902060040191909155600154612e2d9116333085614935565b60015460025460405163095ea7b360e01b81526001600160a01b039283169263095ea7b392612e63929116908690600401615665565b602060405180830381600087803b158015612e7d57600080fd5b505af1158015612e91573d6000803e3d6000fd5b505050506040513d601f19601f82011682018060405250810190612eb59190615051565b50600254604080830151602084015184519251633fea436760e01b81526001600160a01b0390941693633fea436793612efa9388939092909190600090600401615c6f565b602060405180830381600087803b158015612f1457600080fd5b505af1158015612f28573d6000803e3d6000fd5b505050506040513d601f19601f82011682018060405250810190612f4c91906152bd565b506001600160a01b03868116600090815260ef60205260409020541660011415612f7f57612f7a3386614600565b613012565b6001600160a01b03868116600090815260ef60205260409020541663a9059cbb33876040518363ffffffff1660e01b8152600401612fbe929190615665565b602060405180830381600087803b158015612fd857600080fd5b505af1158015612fec573d6000803e3d6000fd5b505050506040513d601f19601f820116820180604052508101906130109190615051565b505b6001600160a01b03868116600081815260ef60209081526040918290205482519416845283018890528281018590524260608401525133927f19ac06de95d67912d84cd839d617200570c30562b34ba4f6a3a19fbd14a8f9a9919081900360800190a3600193505050611ce66001608a55565b806001600160a01b0381166130ad5760405163d92e233d60e01b815260040160405180910390fd5b6130b5614501565b6001600160a01b03821660009081526011602052604090205460ff16156130ef576040516314571ee960e31b815260040160405180910390fd5b6001600160a01b038216600081815260116020526040808220805460ff19166001179055517f6ae172837ea30b801fbfcdd4108aa1d5bf8ff775444fd70256b44e6bf3dfc3f69190a25050565b600d6020526000908152604090208054819061315790615e61565b80601f016020809104026020016040519081016040528092919081815260200182805461318390615e61565b80156131d05780601f106131a5576101008083540402835291602001916131d0565b820191906000526020600020905b8154815290600101906020018083116131b357829003601f168201915b5050506001840154600285018054949560ff9092169491935091506131f490615e61565b80601f016020809104026020016040519081016040528092919081815260200182805461322090615e61565b801561326d5780601f106132425761010080835404028352916020019161326d565b820191906000526020600020905b81548152906001019060200180831161325057829003601f168201915b5050506003840154600485015460058601546006870154600788015460089098015496979396929550909350919060ff80821691610100810482169162010000909104168b565b6000600d6000601085856040516132cc929190615578565b9081526040805160209281900383019020546001600160a01b0316835290820192909252016000206008015460ff169392505050565b600061330c614560565b336000908152600d602052604090206008015460ff1661333f57604051631c12f2e960e01b815260040160405180910390fd5b336000818152600e60209081526040808320839055600d808352818420600381015460ef85529483902054919093526004830154600584015492517f99776ecfc004a01cfaf5810ae30a9cb86ca4a5831f0a617dd3c4b461f906fc86956133b3959490936001600160a01b03169291615796565b60405180910390a2506001611ec36001608a55565b60006133d2614560565b6133da6145ba565b600060ef6000876001600160a01b03166001600160a01b0316815260200190815260200160002060009054906101000a90046001600160a01b031690506000807351A0b53BF810f7Dc65ea8e185fbf2BC6E0043620631eac9f46600d60008b6001600160a01b03166001600160a01b0316815260200190815260200160002060f060008c6001600160a01b03166001600160a01b0316815260200190815260200160002054601360198860ee60008b6001600160a01b03166001600160a01b03168152602001908152602001600020548e8d6040518963ffffffff1660e01b81526004016134cf989796959493929190615bde565b604080518083038186803b1580156134e657600080fd5b505af41580156134fa573d6000803e3d6000fd5b505050506040513d601f19601f8201168201806040525081019061351e91906152d5565b6001600160a01b038a8116600090815260ef60205260409020549294509092501660011415613556576135518683614600565b6135eb565b6001600160a01b03808916600090815260ef60205260409081902054905163a9059cbb60e01b815291169063a9059cbb906135979089908690600401615665565b602060405180830381600087803b1580156135b157600080fd5b505af11580156135c5573d6000803e3d6000fd5b505050506040513d601f19601f820116820180604052508101906135e99190615051565b505b6001600160a01b03888116600081815260ef602052604090205430928981169291600080516020615ec38339815191529116868a6136298289615cd0565b42600060405161363e9695949392919061567e565b60405180910390a4600193505050506136576001608a55565b949350505050565b6001600160a01b038082166000818152600d6020908152604080832060ef83528184205490951680845260ee83528184205494845260f090925280832054905163f7fdd5bf60e01b815292947351A0b53BF810f7Dc65ea8e185fbf2BC6E00436209463f7fdd5bf946129819492936013936019938b93919290916004016159bb565b602554610100900460ff16158080156137015750602554600160ff909116105b8061371b5750303b15801561371b575060255460ff166001145b61377e5760405162461bcd60e51b815260206004820152602e60248201527f496e697469616c697a61626c653a20636f6e747261637420697320616c72656160448201526d191e481a5b9a5d1a585b1a5e995960921b6064820152608401611e24565b6025805460ff1916600117905580156137a1576025805461ff0019166101001790555b6137a961495c565b6137b161498b565b6137b96149ba565b6137c28961285c565b6137cb87610ff3565b6137d488611ced565b6137dd86613efe565b6137e685611f62565b6137ef84612a50565b6137f883612468565b613801826129e0565b612710601381905560148190556130d46015556016556012601755601880546001600160a01b03191660011790558015613875576025805461ff0019169055604051600181527f7f26b83ff96e1f2b6a682f133852f6798a09c465da95921460cefb38474024989060200160405180910390a15b505050505050505050565b600061388a614560565b336000908152600d6020526040902060080154610100900460ff166138c1576040516294861760e21b815260040160405180910390fd5b336000908152600d6020526040808220815161016081019092528054829082906138ea90615e61565b80601f016020809104026020016040519081016040528092919081815260200182805461391690615e61565b80156139635780601f1061393857610100808354040283529160200191613963565b820191906000526020600020905b81548152906001019060200180831161394657829003601f168201915b5050509183525050600182015460209091019060ff16600581111561399857634e487b7160e01b600052602160045260246000fd5b60058111156139b757634e487b7160e01b600052602160045260246000fd5b81526020016002820180546139cb90615e61565b80601f01602080910402602001604051908101604052809291908181526020018280546139f790615e61565b8015613a445780601f10613a1957610100808354040283529160200191613a44565b820191906000526020600020905b815481529060010190602001808311613a2757829003601f168201915b505050918352505060038201546020820152600482015460408201526005820154606082015260068201546080820152600782015460a082015260089091015460ff808216151560c08401526101008083048216151560e0850152620100009092041615159101529050600d6000336001600160a01b031681526020810191909152604001600090812090613ad98282614e28565b60018201805460ff19169055613af3600283016000614e28565b506000600382018190556004820181905560058201819055600682018190556007820155600801805462ffffff19169055600b54613b3390600190615e12565b600b556019546001600160a01b031615613b6457613b64335b60608301516000546001600160a01b03169190614893565b33600090815260ef60205260409020546001600160a01b031660011415613b9857613b93338260800151614600565b613c2d565b33600081815260ef602052604090819020546080840151915163a9059cbb60e01b81526001600160a01b039091169263a9059cbb92613bd992600401615665565b602060405180830381600087803b158015613bf357600080fd5b505af1158015613c07573d6000803e3d6000fd5b505050506040513d601f19601f82011682018060405250810190613c2b9190615051565b505b33600081815260ef6020526040908190205483516060850151608086015193516001600160a01b0390931694937f034f85a3d66ac9cab89b6466deabcf2efeaf8e0f57b917ea5aeae7cf9cf2169593613c8893929190615771565b60405180910390a3505033600090815260ef6020526040902080546001600160a01b03191690556001608a81905590565b613cc1614501565b611fe16149e9565b613cd1614501565b6001600160a01b038116613d365760405162461bcd60e51b815260206004820152602660248201527f4f776e61626c653a206e6577206f776e657220697320746865207a65726f206160448201526564647265737360d01b6064820152608401611e24565b613d3f81614a26565b50565b816001600160a01b038116613d6a5760405163d92e233d60e01b815260040160405180910390fd5b613d72614501565b6001600160a01b038316600090815260ee602052604090819020839055517f229dd40a1182603dfbbdb7e80317ef3ab986422307a417d04ad62daabbad38d790613dbf9085908590615665565b60405180910390a1505050565b806001600160a01b038116613df45760405163d92e233d60e01b815260040160405180910390fd5b613dfc614501565b6001600160a01b03821660009081526012602052604090205460ff1615613e36576040516314571ee960e31b815260040160405180910390fd5b6001600160a01b038216600081815260126020526040808220805460ff19166001179055517f86e57fd2b90329052917118de7c3f521f400d439b9650deaa906a25b08b945609190a25050565b613e8b614501565b6000546040517f3e4520ab29fdd336aca22cca0657921e53eb42307038c1895b6b5e60eec3796f91613eca916001600160a01b03909116908490615627565b60405180910390a1600080546001600160a01b039092166001600160a01b0319928316811790915560198054909216179055565b613f06614501565b7f54d41b4e6bd425df3262062a56eab005e730ff6660f1c81895a70dcea8baf27160055482604051613f39929190615bd0565b60405180910390a16005819055601e55565b6000613f55614560565b336000908152600d602052604080822081516101608101909252805482908290613f7e90615e61565b80601f0160208091040260200160405190810160405280929190818152602001828054613faa90615e61565b8015613ff75780601f10613fcc57610100808354040283529160200191613ff7565b820191906000526020600020905b815481529060010190602001808311613fda57829003601f168201915b5050509183525050600182015460209091019060ff16600581111561402c57634e487b7160e01b600052602160045260246000fd5b600581111561404b57634e487b7160e01b600052602160045260246000fd5b815260200160028201805461405f90615e61565b80601f016020809104026020016040519081016040528092919081815260200182805461408b90615e61565b80156140d85780601f106140ad576101008083540402835291602001916140d8565b820191906000526020600020905b8154815290600101906020018083116140bb57829003601f168201915b505050918352505060038201546020820152600482015460408201526005820154606082015260068201546080820152600782015460a082015260089091015460ff808216151560c08401526101008083048216151560e0850152620100009092041615159181019190915281015190915061416757604051631c12f2e960e01b815260040160405180910390fd5b614170336124d8565b1561418e57604051631fefc40d60e01b815260040160405180910390fd5b60015460a08201516040516323b872dd60e01b81526001600160a01b03909216916323b872dd916141c59133913091600401615641565b602060405180830381600087803b1580156141df57600080fd5b505af11580156141f3573d6000803e3d6000fd5b505050506040513d601f19601f820116820180604052508101906142179190615051565b5060015460a0820151604051630852cd8d60e31b81526001600160a01b03909216916342966c689161424f9160040190815260200190565b602060405180830381600087803b15801561426957600080fd5b505af115801561427d573d6000803e3d6000fd5b505050506040513d601f19601f820116820180604052508101906142a19190615051565b5060c0810151156142c557604051632a9ffab760e21b815260040160405180910390fd5b336000908152600d60205260409081902090516010916142e4916155a4565b90815260405190819003602001902080546001600160a01b0319169055600d600061430c3390565b6001600160a01b0316815260208101919091526040016000908120906143328282614e28565b60018201805460ff1916905561434c600283016000614e28565b506000600382018190556004820181905560058201819055600682018190556007820155600801805462ffffff19169055600c5461438c90600190615e12565b600c556019546001600160a01b0316156143a9576143a933613b4c565b33600090815260ef60205260409020546001600160a01b0316600114156143e7576143e2338260e001518360800151610e3e9190615cd0565b61448f565b33600081815260ef602052604090205460e083015160808401516001600160a01b039092169263a9059cbb92909161441e91615cd0565b6040518363ffffffff1660e01b815260040161443b929190615665565b602060405180830381600087803b15801561445557600080fd5b505af1158015614469573d6000803e3d6000fd5b505050506040513d601f19601f8201168201806040525081019061448d9190615051565b505b33600081815260ef6020526040908190205483516060850151608086015193516001600160a01b0390931694937f89e0136053e5fb3b6e55cac61cebd11e85b3cbc19a56d52fa34e152a94286f27936144ea93929190615771565b60405180910390a36001915050611ec36001608a55565b3361450a6129d1565b6001600160a01b031614611fe15760405162461bcd60e51b815260206004820181905260248201527f4f776e61626c653a2063616c6c6572206973206e6f7420746865206f776e65726044820152606401611e24565b6002608a5414156145b35760405162461bcd60e51b815260206004820152601f60248201527f5265656e7472616e637947756172643a207265656e7472616e742063616c6c006044820152606401611e24565b6002608a55565b60bc5460ff1615611fe15760405162461bcd60e51b815260206004820152601060248201526f14185d5cd8589b194e881c185d5cd95960821b6044820152606401611e24565b804710156146505760405162461bcd60e51b815260206004820152601d60248201527f416464726573733a20696e73756666696369656e742062616c616e63650000006044820152606401611e24565b6000826001600160a01b03168260405160006040518083038185875af1925050503d806000811461469d576040519150601f19603f3d011682016040523d82523d6000602084013e6146a2565b606091505b50509050806147165760405162461bcd60e51b815260206004820152603a60248201527f416464726573733a20756e61626c6520746f2073656e642076616c75652c20726044820152791958da5c1a595b9d081b585e481a185d99481c995d995c9d195960321b6064820152608401611e24565b505050565b6001608a55565b600887015460ff1661476b5760405162461bcd60e51b81526020600482015260126024820152712637b1b5b2b9399d103737903637b1b5b2b960711b6044820152606401611e24565b6000614778848488614a78565b90506000886005015484600a61478e9190615d4b565b8789610100015161479f9190615df3565b6147a99190615df3565b895160048c015481906147bd908790615df3565b6147c79190615df3565b6147d19190615df3565b6147db9190615ce8565b6147e59190615e12565b90506000826147f586600a615d4b565b6147ff9084615df3565b6148099190615ce8565b90508084111561486f5760405162461bcd60e51b815260206004820152602b60248201527f4c6f636b6572733a206d6f7265207468616e206d61782072656d6f7661626c6560448201526a0818dbdb1b185d195c985b60aa1b6064820152608401611e24565b838a6004015461487f9190615e12565b8a6004018190555050505050505050505050565b6147168363a9059cbb60e01b84846040516024016148b2929190615665565b60408051601f198184030181529190526020810180516001600160e01b03166001600160e01b031990931692909217909152614b78565b6148f1614c4a565b60bc805460ff191690557f5db9ee0a495bf2e6ff9c91a7834c1ba4fdd244a5e8aa4e537bd38aeae4b073aa335b60405161492b9190615613565b60405180910390a1565b614956846323b872dd60e01b8585856040516024016148b293929190615641565b50505050565b602554610100900460ff166149835760405162461bcd60e51b8152600401611e249061592f565b611fe1614c93565b602554610100900460ff166149b25760405162461bcd60e51b8152600401611e249061592f565b611fe1614cc3565b602554610100900460ff166149e15760405162461bcd60e51b8152600401611e249061592f565b611fe1614cea565b6149f16145ba565b60bc805460ff191660011790557f62e78cea01bee320cd4e420270b5ea74000d11b0c9f74754ebdbfc544b05a25861491e3390565b605880546001600160a01b038381166001600160a01b0319831681179093556040519116919082907f8be0079c531659141344cd1fd0a4f28419497f9722a3daafe3b4186f6b6457e090600090a35050565b600082614ac25760405162461bcd60e51b8152602060048201526018602482015277131bd8dad95c9cce881b9bdd081dda1a5d195b1a5cdd195960421b6044820152606401611e24565b60808201516001600160a01b03166316fac92a614ae085600a615d4b565b60208501516040516001600160e01b031960e085901b168152600481019290925260248201879052600860448301526001600160a01b03808916606484015216608482015260a40160206040518083038186803b158015614b4057600080fd5b505afa158015614b54573d6000803e3d6000fd5b505050506040513d601f19601f8201168201806040525081019061365791906152bd565b6000614bcd826040518060400160405280602081526020017f5361666545524332303a206c6f772d6c6576656c2063616c6c206661696c6564815250856001600160a01b0316614d1d9092919063ffffffff16565b8051909150156147165780806020019051810190614beb9190615051565b6147165760405162461bcd60e51b815260206004820152602a60248201527f5361666545524332303a204552433230206f7065726174696f6e20646964206e6044820152691bdd081cdd58d8d9595960b21b6064820152608401611e24565b60bc5460ff16611fe15760405162461bcd60e51b815260206004820152601460248201527314185d5cd8589b194e881b9bdd081c185d5cd95960621b6044820152606401611e24565b602554610100900460ff16614cba5760405162461bcd60e51b8152600401611e249061592f565b611fe133614a26565b602554610100900460ff1661471b5760405162461bcd60e51b8152600401611e249061592f565b602554610100900460ff16614d115760405162461bcd60e51b8152600401611e249061592f565b60bc805460ff19169055565b6060613657848460008585843b614d765760405162461bcd60e51b815260206004820152601d60248201527f416464726573733a2063616c6c20746f206e6f6e2d636f6e74726163740000006044820152606401611e24565b600080866001600160a01b03168587604051614d929190615588565b60006040518083038185875af1925050503d8060008114614dcf576040519150601f19603f3d011682016040523d82523d6000602084013e614dd4565b606091505b5091509150614de4828286614def565b979650505050505050565b60608315614dfe5750816119af565b825115614e0e5782518084602001fd5b8160405162461bcd60e51b8152600401611e24919061591c565b508054614e3490615e61565b6000825580601f10614e44575050565b601f016020900490600052602060002090810190613d3f91905b80821115614e725760008155600101614e5e565b5090565b80356001600160a01b038116811461252d57600080fd5b60008083601f840112614e9e578081fd5b5081356001600160401b03811115614eb4578182fd5b602083019150836020828501011115614ecc57600080fd5b9250929050565b600060208284031215614ee4578081fd5b6119af82614e76565b60008060408385031215614eff578081fd5b614f0883614e76565b9150614f1660208401614e76565b90509250929050565b600080600080600080600080610100898b031215614f3b578384fd5b614f4489614e76565b9750614f5260208a01614e76565b9650614f6060408a01614e76565b979a96995096976060810135975060808101359660a0820135965060c0820135955060e0909101359350915050565b60008060408385031215614fa1578182fd5b614faa83614e76565b946020939093013593505050565b60008060008060808587031215614fcd578384fd5b614fd685614e76565b935060208501359250614feb60408601614e76565b9396929550929360600135925050565b600080600080600060a08688031215615012578081fd5b61501b86614e76565b94506020860135935061503060408701614e76565b92506060860135915061504560808701614e76565b90509295509295909350565b600060208284031215615062578081fd5b815180151581146119af578182fd5b60008060208385031215615083578182fd5b82356001600160401b03811115615098578283fd5b6150a485828601614e8d565b90969095509350505050565b600080600080606085870312156150c5578384fd5b84356001600160401b038111156150da578485fd5b6150e687828801614e8d565b90955093506150f9905060208601614e76565b9396929550929360400135925050565b60008060008060008060008060c0898b031215615124578384fd5b88356001600160401b038082111561513a578586fd5b6151468c838d01614e8d565b909a50985088915061515a60208c01614e76565b975060408b0135965060608b0135955060808b013591506006821061517d578485fd5b90935060a08a01359080821115615192578384fd5b5061519f8b828c01614e8d565b999c989b5096995094979396929594505050565b6000806000604084860312156151c7578081fd5b83356001600160401b038111156151dc578182fd5b6151e886828701614e8d565b909790965060209590950135949350505050565b60006020828403121561520d578081fd5b81356001600160401b0380821115615223578283fd5b818401915084601f830112615236578283fd5b81358181111561524857615248615eac565b604051601f8201601f19908116603f0116810190838211818310171561527057615270615eac565b81604052828152876020848701011115615288578586fd5b826020860160208301379182016020019490945295945050505050565b6000602082840312156152b6578081fd5b5035919050565b6000602082840312156152ce578081fd5b5051919050565b600080604083850312156152e7578182fd5b505080516020909101519092909150565b6001600160a01b03169052565b6000815180845261531d816020860160208601615e35565b601f01601f19169290920160200192915050565b6000815461533e81615e61565b80855260206001838116801561535b576001811461536f5761539d565b60ff1985168884015260408801955061539d565b866000528260002060005b858110156153955781548a820186015290830190840161537a565b890184019650505b505050505092915050565b600681106153c657634e487b7160e01b600052602160045260246000fd5b9052565b8054825260018101546020830152600281015460408301526003810154606083015260048101546080830152600501546001600160a01b031660a090910152565b6154168282516152f8565b602081015161542860208401826152f8565b50604081015161543b60408401826152f8565b50606081015161544e60608401826152f8565b50608081015161546160808401826152f8565b5060a0818101519083015260c0808201519083015260e0808201519083015261010080820151908301526101208082015190830152610140808201519083015261016090810151910152565b6154c0826154bb8354615e29565b6152f8565b6154cd6001820154615e29565b6154da60208401826152f8565b506154e86002820154615e29565b6154f560408401826152f8565b506155036003820154615e29565b61551060608401826152f8565b5061551e6004820154615e29565b61552b60808401826152f8565b50600581015460a0830152600681015460c0830152600781015460e083015260088101546101008301526009810154610120830152600a810154610140830152600b015461016090910152565b8183823760009101908152919050565b6000825161559a818460208701615e35565b9190910192915050565b60008083546155b281615e61565b600182811680156155ca57600181146155db57615607565b60ff19841687528287019450615607565b8786526020808720875b858110156155fe5781548a8201529084019082016155e5565b50505082870194505b50929695505050505050565b6001600160a01b0391909116815260200190565b6001600160a01b0392831681529116602082015260400190565b6001600160a01b039384168152919092166020820152604081019190915260600190565b6001600160a01b03929092168252602082015260400190565b6001600160a01b039690961686526020860194909452604085019290925260608401526080830152151560a082015260c00190565b6060815283606082015283856080830137600080608086840101526080601f19601f870116830101905083602083015282604083015295945050505050565b60006101608083526157068184018f615305565b9050615715602084018e6153a8565b8281036040840152615727818d615305565b606084019b909b525050608081019790975260a087019590955260c086019390935260e0850191909152151561010084015215156101208301521515610140909101529392505050565b6060815260006157846060830186615305565b60208301949094525060400152919050565b60a0815260006157a960a0830188615331565b6020830196909652506001600160a01b039390931660408401526060830191909152608090910152919050565b60a0815260006157e960a0830188615331565b90508560208301528460408301528360608301528260808301529695505050505050565b82815260406020820152615860604082018351805182526020808201519083015260408082015190830152606080820151908301526080808201519083015260a0908101516001600160a01b0316910152565b600060208301516101006158768185018361540b565b6040850151915061588b6102808501836152f8565b606085015191506158a06102a08501836152f8565b60808501516102c085015260a08501516102e085015260c085015161030085015260e08501519150610340806103208601526158e0610380860184615305565b918601519192506158f3858201836153a8565b5050610120840151838203603f19016103608501526159128282615305565b9695505050505050565b6020815260006119af6020830184615305565b6020808252602b908201527f496e697469616c697a61626c653a20636f6e7472616374206973206e6f74206960408201526a6e697469616c697a696e6760a81b606082015260800190565b8681526001600160a01b03861660208201526040810185905261022081016159a560608301866154ad565b6101e08201939093526102000152949350505050565b6102e08082526101609082015260006159d861044083018a615331565b60018a015460ff166159ee6103008501826153a8565b508281036102df1901610320840152615a0a8160028c01615331565b905060038a015461034084015260048a015461036084015260058a015461038084015260068a01546103a084015260078a01546103c084015260088a0154615a5a6103e0850160ff831615159052565b615a6f610400850160ff8360081c1615159052565b615a84610420850160ff8360101c1615159052565b509050615a9460208301896153ca565b615aa160e08301886154ad565b615aaf6102608301876152f8565b615abd6102808301866152f8565b6102a08201939093526102c0015295945050505050565b8881526103008101615ae9602083018a6153ca565b615af660e08301896154ad565b6001600160a01b03968716610260830152949095166102808601526102a08501929092526102c08401526102e0909201919091529392505050565b8681526102c08101615b4660208301886153ca565b615b5360e08301876154ad565b6001600160a01b03949094166102608201526102808101929092526102a0909101529392505050565b8781526102e08101615b9160208301896153ca565b615b9e60e08301886154ad565b6001600160a01b03959095166102608201526102808101939093526102a08301919091526102c0909101529392505050565b918252602082015260400190565b888152602081018890526103008101615bfa60408301896153ca565b615c086101008301886154ad565b6001600160a01b03959095166102808201526102a08101939093526102c08301919091526102e090910152949350505050565b6101208101615c4a82876153ca565b60c082019490945260e08101929092526001600160a01b031661010090910152919050565b85815260a060208201526000615c8860a0830187615305565b615c9560408401876153a8565b8281036060840152615ca78186615305565b9150508260808301529695505050505050565b9283526020830191909152604082015260600190565b60008219821115615ce357615ce3615e96565b500190565b600082615d0357634e487b7160e01b81526012600452602481fd5b500490565b600181815b80851115615d43578160001904821115615d2957615d29615e96565b80851615615d3657918102915b93841c9390800290615d0d565b509250929050565b60006119af8383600082615d6157506001612690565b81615d6e57506000612690565b8160018114615d845760028114615d8e57615daa565b6001915050612690565b60ff841115615d9f57615d9f615e96565b50506001821b612690565b5060208310610133831016604e8410600b8410161715615dcd575081810a612690565b615dd78383615d08565b8060001904821115615deb57615deb615e96565b029392505050565b6000816000190483118215151615615e0d57615e0d615e96565b500290565b600082821015615e2457615e24615e96565b500390565b6001600160a01b031690565b60005b83811015615e50578181015183820152602001615e38565b838111156149565750506000910152565b600181811c90821680615e7557607f821691505b6020821081141561167a57634e487b7160e01b600052602260045260246000fd5b634e487b7160e01b600052601160045260246000fd5b634e487b7160e01b600052604160045260246000fdfe5e4485631c54370ddbcded30559851c5dd670a232b8a7502b9d0b47ba9090d47a26469706673582212208dab381ed266de0f5a884e14958b388d8fa81fd4e170df41d03b0b5332a290b464736f6c63430008040033",
  "deployedBytecode": "0x60806040526004361061032b5760003560e01c8063028468581461033057806303d41e0e1461035257806306e2415d146103975780630c42cbc9146103b75780631697565b146103da5780631775765f146103fa5780631dc4b09c146104105780631fcfe19c146104305780632630c12f146104505780632f5b04ac1461047d5780633092afd51461049457806331f7d964146104b45780633237c158146104c95780633794dc9b146104dc57806338463cff146105095780633fb99c201461052957806343b937071461055f578063530e784f1461057f57806354509b971461059f57806359bb9189146105b55780635c975abb146105ca5780635f73871e146105e25780636060663e146106025780636136c21f14610622578063613e2e1e1461064f5780636369f8df1461066457806363908020146106775780636600203d1461068d5780636a030fc3146106ad5780636c32b2ec146106cd5780636d32395c146106ed5780636d75b9ee14610703578063709e147a14610716578063715018a6146107365780637597922d1461074b578063768ebb121461059f5780637da5f0da146107785780637f0f1817146107a857806383a9954f146107c857806388aa0a52146107e85780638d3d78cd146107fe5780638da5cb5b1461081e5780638fe85fe714610833578063946ce8cd1461085357806396ec39e814610873578063983b2d5614610893578063a7cc34b5146108b3578063af1ea795146108c9578063aff2faa314610900578063b291ec1314610920578063b430225814610936578063b4eae1cb1461094b578063b52cd3ec14610961578063b734de2614610981578063bc805d1d146109a1578063bd60e794146109b7578063c0924b8014610a7c578063c4d10b6a14610a9c578063cdcbc87914610add578063d5a38a9114610b47578063dd0081c71461059f578063df8fa43014610b67578063e85501d814610b87578063e955de4514610b9c578063ed110a9c14610bb1578063f2fde38b14610bc7578063f3e27c4f14610be7578063f44637ba14610c07578063f46eccc414610c27578063f73e3a9514610c57578063fe89f32a14610c77578063ffc9f70414610c97575b600080fd5b34801561033c57600080fd5b5061035061034b366004614ed3565b610cac565b005b34801561035e57600080fd5b5061038261036d366004614ed3565b60126020526000908152604090205460ff1681565b60405190151581526020015b60405180910390f35b3480156103a357600080fd5b506103506103b2366004614eed565b610cfd565b3480156103c357600080fd5b506103cc601281565b60405190815260200161038e565b3480156103e657600080fd5b506103826103f5366004614ffb565b610d33565b34801561040657600080fd5b506103cc60095481565b34801561041c57600080fd5b5061035061042b366004614ed3565b610ff3565b34801561043c57600080fd5b506103cc61044b3660046150b0565b6110b6565b34801561045c57600080fd5b50600454610470906001600160a01b031681565b60405161038e9190615613565b34801561048957600080fd5b506103cc6205460081565b3480156104a057600080fd5b506103506104af366004614ed3565b6113cc565b3480156104c057600080fd5b50610470600181565b6103826104d73660046152a5565b611456565b3480156104e857600080fd5b506103cc6104f7366004614ed3565b60ee6020526000908152604090205481565b34801561051557600080fd5b506103cc6105243660046151b3565b611680565b34801561053557600080fd5b50610470610544366004614ed3565b60ef602052600090815260409020546001600160a01b031681565b34801561056b57600080fd5b5061038261057a366004614f8f565b6119b6565b34801561058b57600080fd5b5061035061059a366004614ed3565b611ced565b3480156105ab57600080fd5b506103cc61271081565b3480156105c157600080fd5b50610382611d91565b3480156105d657600080fd5b5060bc5460ff16610382565b3480156105ee57600080fd5b506103506105fd366004614f8f565b611ec6565b34801561060e57600080fd5b5061035061061d3660046152a5565b611f62565b34801561062e57600080fd5b506103cc61063d366004614ed3565b600e6020526000908152604090205481565b34801561065b57600080fd5b50610350611fd1565b610382610672366004615109565b611fe3565b34801561068357600080fd5b506103cc60075481565b34801561069957600080fd5b506103506106a83660046152a5565b612468565b3480156106b957600080fd5b506103826106c8366004614ed3565b6124d8565b3480156106d957600080fd5b50600254610470906001600160a01b031681565b3480156106f957600080fd5b506103cc60065481565b610382610711366004614f8f565b612532565b34801561072257600080fd5b50610382610731366004614f8f565b612696565b34801561074257600080fd5b50610350612854565b34801561075757600080fd5b506103cc610766366004614ed3565b60f06020526000908152604090205481565b34801561078457600080fd5b50610382610793366004614ed3565b600f6020526000908152604090205460ff1681565b3480156107b457600080fd5b506103506107c3366004614ed3565b61285c565b3480156107d457600080fd5b506103cc6107e3366004614ed3565b612900565b3480156107f457600080fd5b506103cc600b5481565b34801561080a57600080fd5b50600154610470906001600160a01b031681565b34801561082a57600080fd5b506104706129d1565b34801561083f57600080fd5b5061035061084e3660046152a5565b6129e0565b34801561085f57600080fd5b5061035061086e3660046152a5565b612a50565b34801561087f57600080fd5b5061038261088e366004614f8f565b612abf565b34801561089f57600080fd5b506103506108ae366004614ed3565b613085565b3480156108bf57600080fd5b506103cc60055481565b3480156108d557600080fd5b506108e96108e4366004614ed3565b61313c565b60405161038e9b9a999897969594939291906156f2565b34801561090c57600080fd5b5061038261091b366004615071565b6132b4565b34801561092c57600080fd5b506103cc600a5481565b34801561094257600080fd5b50610382613302565b34801561095757600080fd5b506103cc60085481565b34801561096d57600080fd5b50600054610470906001600160a01b031681565b34801561098d57600080fd5b5061038261099c366004614fb8565b6133c8565b3480156109ad57600080fd5b506103cc6130d481565b3480156109c357600080fd5b50601954601a54601b54601c54601d54601e54601f54602054602154602254602354602454610a0c9b6001600160a01b039081169b81169a81169981169816969594939291908c565b604080516001600160a01b039d8e1681529b8d1660208d0152998c16998b0199909952968a1660608a015298909416608088015260a087019290925260c086015260e08501526101008401526101208301939093526101408201929092526101608101919091526101800161038e565b348015610a8857600080fd5b50600354610470906001600160a01b031681565b348015610aa857600080fd5b50610470610ab73660046151fc565b80516020818301810180516010825292820191909301209152546001600160a01b031681565b348015610ae957600080fd5b50601354601454601554601654601754601854610b119594939291906001600160a01b031686565b60408051968752602087019590955293850192909252606084015260808301526001600160a01b031660a082015260c00161038e565b348015610b5357600080fd5b506103cc610b62366004614ed3565b61365f565b348015610b7357600080fd5b50610350610b82366004614f1f565b6136e1565b348015610b9357600080fd5b50610382613880565b348015610ba857600080fd5b50610350613cb9565b348015610bbd57600080fd5b506103cc600c5481565b348015610bd357600080fd5b50610350610be2366004614ed3565b613cc9565b348015610bf357600080fd5b50610350610c02366004614f8f565b613d42565b348015610c1357600080fd5b50610350610c22366004614ed3565b613dcc565b348015610c3357600080fd5b50610382610c42366004614ed3565b60116020526000908152604090205460ff1681565b348015610c6357600080fd5b50610350610c72366004614ed3565b613e83565b348015610c8357600080fd5b50610350610c923660046152a5565b613efe565b348015610ca357600080fd5b50610382613f4b565b610cb4614501565b6001600160a01b038116600081815260126020526040808220805460ff19169055517f90eabbc0c667db2a5029ed6bc0f5fe9f356d11684a4ca9fcfaec0e53f12b9c8e9190a250565b610d05614501565b6001600160a01b03918216600090815260ef6020526040902080546001600160a01b03191691909216179055565b6000610d3d614560565b610d456145ba565b6001600160a01b038087166000908152600d6020908152604080832060ef83528184205490941680845260ee909252808320549051631bcc6d6960e31b81529293849373__$e73bdc529e43686130bc0575eb4e830f23$__9363de636b4893610db893926019908e908d9060040161597a565b604080518083038186803b158015610dcf57600080fd5b505af4158015610de3573d6000803e3d6000fd5b505050506040513d601f19601f82011682018060405250810190610e0791906152d5565b6001600160a01b038a8116600090815260ef60205260409020549294509092501660011415610e5257610e4384610e3e8385615e12565b614600565b610e4d8682614600565b610f82565b6001600160a01b03808916600090815260ef60205260409020541663a9059cbb85610e7d8486615e12565b6040518363ffffffff1660e01b8152600401610e9a929190615665565b602060405180830381600087803b158015610eb457600080fd5b505af1158015610ec8573d6000803e3d6000fd5b505050506040513d601f19601f82011682018060405250810190610eec9190615051565b506001600160a01b03808916600090815260ef60205260409081902054905163a9059cbb60e01b815291169063a9059cbb90610f2e9089908590600401615665565b602060405180830381600087803b158015610f4857600080fd5b505af1158015610f5c573d6000803e3d6000fd5b505050506040513d601f19601f82011682018060405250810190610f809190615051565b505b6001600160a01b03888116600081815260ef602052604090819020549051838816938a81169392600080516020615ec383398151915292610fd292919091169087908c908a90429060019061567e565b60405180910390a4600192505050610fea6001608a55565b95945050505050565b806001600160a01b03811661101b5760405163d92e233d60e01b815260040160405180910390fd5b611023614501565b6002546040517f51ea9f7356591c4833bcb294538a4db90cfa61b532eac2411e70ebfdff9f1bf191611062916001600160a01b03909116908590615627565b60405180910390a160025461107f906001600160a01b0316610cac565b600280546001600160a01b0384166001600160a01b03199182168117909255601b8054909116821790556110b290613dcc565b5050565b6000826001600160a01b0381166110e05760405163d92e233d60e01b815260040160405180910390fd5b6110e8614560565b6110f06145ba565b3360009081526011602052604090205460ff1661112057604051633e34a41b60e21b815260040160405180910390fd5b600060108787604051611134929190615578565b908152604051908190036020019020546001600160a01b03169050611158816124d8565b611175576040516380bcdf5160e01b815260040160405180910390fd5b6001600160a01b038082166000818152600d6020908152604080832060ef83528184205490951680845260ee83528184205494845260f090925291829020549151631ec627b360e01b815273__$e73bdc529e43686130bc0575eb4e830f23$__94631ec627b3946111f59491936013936019938a93918e90600401615ad4565b60006040518083038186803b15801561120d57600080fd5b505af4158015611221573d6000803e3d6000fd5b505050506000612710600754866112389190615df3565b6112429190615ce8565b905080156112d0576001546040516340c10f1960e01b81526001600160a01b03909116906340c10f199061127c9085908590600401615665565b602060405180830381600087803b15801561129657600080fd5b505af11580156112aa573d6000803e3d6000fd5b505050506040513d601f19601f820116820180604052508101906112ce9190615051565b505b6001546001600160a01b03166340c10f19876112ec8489615e12565b6040518363ffffffff1660e01b8152600401611309929190615665565b602060405180830381600087803b15801561132357600080fd5b505af1158015611337573d6000803e3d6000fd5b505050506040513d601f19601f8201168201806040525081019061135b9190615051565b50856001600160a01b0316826001600160a01b03167f8ad706b338c5d2a20b0d038b5cfdaf2b2f943f43048723bde0dccdf129598a118784426040516113a393929190615cba565b60405180910390a36113b58186615e12565b935050506113c36001608a55565b50949350505050565b6113d4614501565b6001600160a01b03811660009081526011602052604090205460ff1661140d57604051633e34a41b60e21b815260040160405180910390fd5b6001600160a01b038116600081815260116020526040808220805460ff19169055517fe94479a9f7e1952cc78f2d6baab678adc1b772d936c6583def489e524cb666929190a250565b6000818061147757604051637c946ed760e01b815260040160405180910390fd5b61147f614560565b336000818152600d60209081526040808320815160c08082018452601354825260145482860152601554828501526016546060808401919091526017546080808501919091526018546001600160a01b0390811660a08087019190915287516101808101895260195483168152601a548316818b0152601b548316818a0152601c54831694810194909452601d54821692840192909252601e5491830191909152601f5492820192909252855460e082015260215461010082015260225461012082015260235461014082015260245461016082015296865260f085528386205460ef86528487205490911680875260ee9095529290942054611589959194939192919089614722565b611592336124d8565b156115b057604051631fefc40d60e01b815260040160405180910390fd5b33600090815260ef60205260409020546001600160a01b0316600114156115e0576115db3384614600565b611606565b33600081815260ef6020526040902054611606916001600160a01b039091169085614893565b33600081815260ef6020908152604080832054600d909252918290206004015491516001600160a01b0390911692917ff38dac2f851b07d9c651f6721a0ab772c2dcdb3b7af3f8a38b013a5a6551837b916116649188914290615cba565b60405180910390a36001915061167a6001608a55565b50919050565b600061168a614560565b6116926145ba565b3360009081526012602052604090205460ff166116c25760405163f019b1af60e01b815260040160405180910390fd5b6000601085856040516116d6929190615578565b908152604051908190036020019020546001546001600160a01b039182169250166323b872dd6117033390565b30866040518463ffffffff1660e01b815260040161172393929190615641565b602060405180830381600087803b15801561173d57600080fd5b505af1158015611751573d6000803e3d6000fd5b505050506040513d601f19601f820116820180604052508101906117759190615051565b611792576040516312171d8360e31b815260040160405180910390fd5b6000612710600754856117a59190615df3565b6117af9190615ce8565b905060006117bd8286615e12565b6001600160a01b0384166000908152600d6020526040902060050154909150818110156117fd5760405163356680b760e01b815260040160405180910390fd5b6118078282615e12565b6001600160a01b038581166000908152600d602052604090819020600501929092556001549151630852cd8d60e31b8152600481018590529116906342966c6890602401602060405180830381600087803b15801561186557600080fd5b505af1158015611879573d6000803e3d6000fd5b505050506040513d601f19601f8201168201806040525081019061189d9190615051565b6118ba57604051631bc5aabf60e21b815260040160405180910390fd5b60015460405163a9059cbb60e01b81526001600160a01b039091169063a9059cbb906118ec9087908790600401615665565b602060405180830381600087803b15801561190657600080fd5b505af115801561191a573d6000803e3d6000fd5b505050506040513d601f19601f8201168201806040525081019061193e9190615051565b61195b576040516312171d8360e31b815260040160405180910390fd5b836001600160a01b03167f66fb54322c407b04a077a306e72cdd780f0f374ba5dac9f6901a56a6255bc34a87854260405161199893929190615cba565b60405180910390a250925050506119af6001608a55565b9392505050565b600081806119d757604051637c946ed760e01b815260040160405180910390fd5b6119df614560565b6119e76145ba565b6001600160a01b0384166000908152600d602052604080822090516201412760e01b815273__$e73bdc529e43686130bc0575eb4e830f23$__916201412791611a3591908890600401615bd0565b60206040518083038186803b158015611a4d57600080fd5b505af4158015611a61573d6000803e3d6000fd5b505050506040513d601f19601f82011682018060405250810190611a8591906152bd565b6001546040516323b872dd60e01b81529192506001600160a01b0316906323b872dd90611aba90339030908690600401615641565b602060405180830381600087803b158015611ad457600080fd5b505af1158015611ae8573d6000803e3d6000fd5b505050506040513d601f19601f82011682018060405250810190611b0c9190615051565b611b29576040516312171d8360e31b815260040160405180910390fd5b600154604051630852cd8d60e31b8152600481018390526001600160a01b03909116906342966c6890602401602060405180830381600087803b158015611b6f57600080fd5b505af1158015611b83573d6000803e3d6000fd5b505050506040513d601f19601f82011682018060405250810190611ba79190615051565b506001600160a01b03858116600090815260ef60205260409020541660011415611bda57611bd53385614600565b611c6d565b6001600160a01b03858116600090815260ef60205260409020541663a9059cbb33866040518363ffffffff1660e01b8152600401611c19929190615665565b602060405180830381600087803b158015611c3357600080fd5b505af1158015611c47573d6000803e3d6000fd5b505050506040513d601f19601f82011682018060405250810190611c6b9190615051565b505b6001600160a01b03858116600090815260ef602052604090205416336001600160a01b0316866001600160a01b03167f65f9ab20b9a3f1f824f2a5c4d1c1a8bcebf301234b63767c9cc70b01f81668c8878542604051611ccf93929190615cba565b60405180910390a46001925050611ce66001608a55565b5092915050565b806001600160a01b038116611d155760405163d92e233d60e01b815260040160405180910390fd5b611d1d614501565b6004546040517fd52b2b9b7e9ee655fcb95d2e5b9e0c9f69e7ef2b8e9d2d0ea78402d576d22e2291611d5c916001600160a01b03909116908590615627565b60405180910390a150600480546001600160a01b039092166001600160a01b03199283168117909155601d8054909216179055565b6000611d9b614560565b336000908152600d602052604090206008015460ff16611dce57604051631c12f2e960e01b815260040160405180910390fd5b336000908152600e602052604090205415611e2d5760405162461bcd60e51b815260206004820152601a602482015279131bd8dad95c9cce88185b1c9958591e481c995c5d595cdd195960321b60448201526064015b60405180910390fd5b611e3a6205460042615cd0565b336000818152600e60209081526040808320859055600d808352818420600381015460ef85529483902054919093526004830154600584015492517f8182b13ac61f04ab77079b11ee12f4baaf75bf72023d25249903ed23a89e975595611eae959490936001600160a01b03169291615796565b60405180910390a3506001611ec36001608a55565b90565b8080611ee557604051637c946ed760e01b815260040160405180910390fd5b611eed614501565b6001600160a01b038316600081815260f060209081526040918290205482519384529083015281018390527f361ade43c0f49aaa908c4b2681c1a214e911aef3dc524fa182e2905abe1c1ffa9060600160405180910390a1506001600160a01b03909116600090815260f06020526040902055565b611f6a614501565b6009548111611f8c57604051632a9ffab760e21b815260040160405180910390fd5b7f1e29d1b5c8926360f3ac632d884775772b07f31fec4077d433e58ce823f9134760085482604051611fbf929190615bd0565b60405180910390a16008819055602155565b611fd9614501565b611fe16148e9565b565b6000866001600160a01b03811661200d5760405163d92e233d60e01b815260040160405180910390fd5b612015614560565b73__$e73bdc529e43686130bc0575eb4e830f23$__6317b4e32b600d60405180610140016040528060136040518060c001604052908160008201548152602001600182015481526020016002820154815260200160038201548152602001600482015481526020016005820160009054906101000a90046001600160a01b03166001600160a01b03166001600160a01b03168152505081526020016019604051806101800160405290816000820160009054906101000a90046001600160a01b03166001600160a01b03166001600160a01b031681526020016001820160009054906101000a90046001600160a01b03166001600160a01b03166001600160a01b031681526020016002820160009054906101000a90046001600160a01b03166001600160a01b03166001600160a01b031681526020016003820160009054906101000a90046001600160a01b03166001600160a01b03166001600160a01b031681526020016004820160009054906101000a90046001600160a01b03166001600160a01b03166001600160a01b031681526020016005820154815260200160068201548152602001600782015481526020016008820154815260200160098201548152602001600a8201548152602001600b82015481525050815260200160108f8f604051612206929190615578565b908152602001604051809103902060009054906101000a90046001600160a01b03166001600160a01b031681526020018c6001600160a01b0316815260200160ee60008e6001600160a01b03166001600160a01b031681526020019081526020016000205481526020018b81526020018a81526020018e8e8080601f0160208091040260200160405190810160405280939291908181526020018383808284376000920191909152505050908252506020018960058111156122d857634e487b7160e01b600052602160045260246000fd5b815260200188888080601f01602080910402602001604051908101604052809392919081815260200183838082843760009201919091525050509152506040516001600160e01b031960e085901b16815261233792919060040161580d565b60006040518083038186803b15801561234f57600080fd5b505af4158015612363573d6000803e3d6000fd5b505050508760ef60006123733390565b6001600160a01b039081168252602082019290925260400160002080546001600160a01b0319169282169290921790915588166001146123c2576123c26001600160a01b038916333089614935565b6019546001600160a01b0316156123eb576123eb336019546001600160a01b031690308a614935565b600b546123f9906001615cd0565b600b556001600160a01b038816336001600160a01b03167f3f0bf63ee63c9aa7634598066ac9872e91c9e1713d764ae0ef781a9413d73af48c8c8b8b60405161244594939291906156b3565b60405180910390a36001915061245b6001608a55565b5098975050505050505050565b612470614501565b61271081111561249357604051632a9ffab760e21b815260040160405180910390fd5b7f44c6802691f6adea249930369a511db979a5e9a3603bdb37ceee1036da80e980600754826040516124c6929190615bd0565b60405180910390a16007819055602055565b6001600160a01b0381166000908152600e60205260408120546124fd57506001919050565b6001600160a01b0382166000908152600e602052604090205442101561252557506001919050565b506000919050565b919050565b600061253c614560565b6001600160a01b038084166000908152600d6020908152604080832060ef90925291829020549151637e82487360e01b815273__$e73bdc529e43686130bc0575eb4e830f23$__93637e8248739361259f93601393909289921690600401615c3b565b60006040518083038186803b1580156125b757600080fd5b505af41580156125cb573d6000803e3d6000fd5b505050506001600160a01b03838116600090815260ef60205260409020541660011461261857612618336001600160a01b03808616600090815260ef602052604090205416903085614935565b33600090815260ef60209081526040808320546001600160a01b03878116808652600d909452938290206004015491519316927fb7b1cd4dbd3f7787dcc190657396c1db6ad94a5df8e5d669a8f907d0311752059161267b918791904290615cba565b60405180910390a35060016126906001608a55565b92915050565b6000826001600160a01b0381166126c05760405163d92e233d60e01b815260040160405180910390fd5b82806126df57604051637c946ed760e01b815260040160405180910390fd5b6126e7614560565b6126ef614501565b6001600160a01b0385166000908152600d6020526040902060080154610100900460ff1661272f576040516294861760e21b815260040160405180910390fd5b6001600160a01b0385166000908152600d60205260409020600801805461ffff19166001908117909155600b546127669190615e12565b600b55600c54612777906001615cd0565b600c556001600160a01b0385166000908152600d602052604090819020905186916010916127a591906155a4565b908152604080516020928190038301812080546001600160a01b0319166001600160a01b03958616179055888416600081815260f085528381208a905560ef855283812054600d9095529290922060038101546004820154949095169492937fbd529f70cdff05eff7a5a8aad1d0b2926c1f644df27da30cb7de1f546909d16a93612836939091908b9042906157d6565b60405180910390a36001925061284c6001608a55565b505092915050565b611fe1614501565b806001600160a01b0381166128845760405163d92e233d60e01b815260040160405180910390fd5b61288c614501565b6001546040517f36a4c08a38b736dcecb6c328dba61238529620e83ccb23db2cc43cd34ec26096916128cb916001600160a01b03909116908590615627565b60405180910390a150600180546001600160a01b039092166001600160a01b03199283168117909155601a8054909216179055565b6001600160a01b038082166000818152600d6020908152604080832060ef83528184205490951680845260ee83528184205494845260f0909252808320549051630e233ebf60e21b8152929473__$e73bdc529e43686130bc0575eb4e830f23$__9463388cfafc946129819492936013936019939092909190600401615b31565b60206040518083038186803b15801561299957600080fd5b505af41580156129ad573d6000803e3d6000fd5b505050506040513d601f19601f8201168201806040525081019061269091906152bd565b6058546001600160a01b031690565b6129e8614501565b612710811115612a0b57604051632a9ffab760e21b815260040160405180910390fd5b7f5e4dd01049cdfe5a081b404bff8e27de919fd9c8ae2145007e0921ec227f207a600a5482604051612a3e929190615bd0565b60405180910390a1600a819055602355565b612a58614501565b8060085411612a7a57604051632a9ffab760e21b815260040160405180910390fd5b7f883242c2a857ca527a432dfca231b1e49233fde2a96802809a0f3866e9f19e1360095482604051612aad929190615bd0565b60405180910390a16009819055602255565b60008180612ae057604051637c946ed760e01b815260040160405180910390fd5b612ae8614560565b612af06145ba565b6001600160a01b038085166000818152600d6020908152604080832060ef83528184205490951680845260ee83528184205494845260f0909252808320549051635d6cad1f60e11b8152929473__$e73bdc529e43686130bc0575eb4e830f23$__9463bad95a3e94612b72949293601393601993909290918d91600401615b7c565b60206040518083038186803b158015612b8a57600080fd5b505af4158015612b9e573d6000803e3d6000fd5b505050506040513d601f19601f82011682018060405250810190612bc291906152bd565b90506000600d6000876001600160a01b03166001600160a01b0316815260200190815260200160002060405180610160016040529081600082018054612c0790615e61565b80601f0160208091040260200160405190810160405280929190818152602001828054612c3390615e61565b8015612c805780601f10612c5557610100808354040283529160200191612c80565b820191906000526020600020905b815481529060010190602001808311612c6357829003601f168201915b5050509183525050600182015460209091019060ff166005811115612cb557634e487b7160e01b600052602160045260246000fd5b6005811115612cd457634e487b7160e01b600052602160045260246000fd5b8152602001600282018054612ce890615e61565b80601f0160208091040260200160405190810160405280929190818152602001828054612d1490615e61565b8015612d615780601f10612d3657610100808354040283529160200191612d61565b820191906000526020600020905b815481529060010190602001808311612d4457829003601f168201915b505050918352505060038201546020808301919091526004808401546040808501919091526005850154606085015260068501546080850152600785015460a085015260089094015460ff808216151560c08601526101008083048216151560e0870152620100009092041615159301929092526001600160a01b038a166000908152600d909152919091200154909150612dfd908690615e12565b6001600160a01b038088166000908152600d6020526040902060040191909155600154612e2d9116333085614935565b60015460025460405163095ea7b360e01b81526001600160a01b039283169263095ea7b392612e63929116908690600401615665565b602060405180830381600087803b158015612e7d57600080fd5b505af1158015612e91573d6000803e3d6000fd5b505050506040513d601f19601f82011682018060405250810190612eb59190615051565b50600254604080830151602084015184519251633fea436760e01b81526001600160a01b0390941693633fea436793612efa9388939092909190600090600401615c6f565b602060405180830381600087803b158015612f1457600080fd5b505af1158015612f28573d6000803e3d6000fd5b505050506040513d601f19601f82011682018060405250810190612f4c91906152bd565b506001600160a01b03868116600090815260ef60205260409020541660011415612f7f57612f7a3386614600565b613012565b6001600160a01b03868116600090815260ef60205260409020541663a9059cbb33876040518363ffffffff1660e01b8152600401612fbe929190615665565b602060405180830381600087803b158015612fd857600080fd5b505af1158015612fec573d6000803e3d6000fd5b505050506040513d601f19601f820116820180604052508101906130109190615051565b505b6001600160a01b03868116600081815260ef60209081526040918290205482519416845283018890528281018590524260608401525133927f19ac06de95d67912d84cd839d617200570c30562b34ba4f6a3a19fbd14a8f9a9919081900360800190a3600193505050611ce66001608a55565b806001600160a01b0381166130ad5760405163d92e233d60e01b815260040160405180910390fd5b6130b5614501565b6001600160a01b03821660009081526011602052604090205460ff16156130ef576040516314571ee960e31b815260040160405180910390fd5b6001600160a01b038216600081815260116020526040808220805460ff19166001179055517f6ae172837ea30b801fbfcdd4108aa1d5bf8ff775444fd70256b44e6bf3dfc3f69190a25050565b600d6020526000908152604090208054819061315790615e61565b80601f016020809104026020016040519081016040528092919081815260200182805461318390615e61565b80156131d05780601f106131a5576101008083540402835291602001916131d0565b820191906000526020600020905b8154815290600101906020018083116131b357829003601f168201915b5050506001840154600285018054949560ff9092169491935091506131f490615e61565b80601f016020809104026020016040519081016040528092919081815260200182805461322090615e61565b801561326d5780601f106132425761010080835404028352916020019161326d565b820191906000526020600020905b81548152906001019060200180831161325057829003601f168201915b5050506003840154600485015460058601546006870154600788015460089098015496979396929550909350919060ff80821691610100810482169162010000909104168b565b6000600d6000601085856040516132cc929190615578565b9081526040805160209281900383019020546001600160a01b0316835290820192909252016000206008015460ff169392505050565b600061330c614560565b336000908152600d602052604090206008015460ff1661333f57604051631c12f2e960e01b815260040160405180910390fd5b336000818152600e60209081526040808320839055600d808352818420600381015460ef85529483902054919093526004830154600584015492517f99776ecfc004a01cfaf5810ae30a9cb86ca4a5831f0a617dd3c4b461f906fc86956133b3959490936001600160a01b03169291615796565b60405180910390a2506001611ec36001608a55565b60006133d2614560565b6133da6145ba565b600060ef6000876001600160a01b03166001600160a01b0316815260200190815260200160002060009054906101000a90046001600160a01b0316905060008073__$e73bdc529e43686130bc0575eb4e830f23$__631eac9f46600d60008b6001600160a01b03166001600160a01b0316815260200190815260200160002060f060008c6001600160a01b03166001600160a01b0316815260200190815260200160002054601360198860ee60008b6001600160a01b03166001600160a01b03168152602001908152602001600020548e8d6040518963ffffffff1660e01b81526004016134cf989796959493929190615bde565b604080518083038186803b1580156134e657600080fd5b505af41580156134fa573d6000803e3d6000fd5b505050506040513d601f19601f8201168201806040525081019061351e91906152d5565b6001600160a01b038a8116600090815260ef60205260409020549294509092501660011415613556576135518683614600565b6135eb565b6001600160a01b03808916600090815260ef60205260409081902054905163a9059cbb60e01b815291169063a9059cbb906135979089908690600401615665565b602060405180830381600087803b1580156135b157600080fd5b505af11580156135c5573d6000803e3d6000fd5b505050506040513d601f19601f820116820180604052508101906135e99190615051565b505b6001600160a01b03888116600081815260ef602052604090205430928981169291600080516020615ec38339815191529116868a6136298289615cd0565b42600060405161363e9695949392919061567e565b60405180910390a4600193505050506136576001608a55565b949350505050565b6001600160a01b038082166000818152600d6020908152604080832060ef83528184205490951680845260ee83528184205494845260f090925280832054905163f7fdd5bf60e01b8152929473__$e73bdc529e43686130bc0575eb4e830f23$__9463f7fdd5bf946129819492936013936019938b93919290916004016159bb565b602554610100900460ff16158080156137015750602554600160ff909116105b8061371b5750303b15801561371b575060255460ff166001145b61377e5760405162461bcd60e51b815260206004820152602e60248201527f496e697469616c697a61626c653a20636f6e747261637420697320616c72656160448201526d191e481a5b9a5d1a585b1a5e995960921b6064820152608401611e24565b6025805460ff1916600117905580156137a1576025805461ff0019166101001790555b6137a961495c565b6137b161498b565b6137b96149ba565b6137c28961285c565b6137cb87610ff3565b6137d488611ced565b6137dd86613efe565b6137e685611f62565b6137ef84612a50565b6137f883612468565b613801826129e0565b612710601381905560148190556130d46015556016556012601755601880546001600160a01b03191660011790558015613875576025805461ff0019169055604051600181527f7f26b83ff96e1f2b6a682f133852f6798a09c465da95921460cefb38474024989060200160405180910390a15b505050505050505050565b600061388a614560565b336000908152600d6020526040902060080154610100900460ff166138c1576040516294861760e21b815260040160405180910390fd5b336000908152600d6020526040808220815161016081019092528054829082906138ea90615e61565b80601f016020809104026020016040519081016040528092919081815260200182805461391690615e61565b80156139635780601f1061393857610100808354040283529160200191613963565b820191906000526020600020905b81548152906001019060200180831161394657829003601f168201915b5050509183525050600182015460209091019060ff16600581111561399857634e487b7160e01b600052602160045260246000fd5b60058111156139b757634e487b7160e01b600052602160045260246000fd5b81526020016002820180546139cb90615e61565b80601f01602080910402602001604051908101604052809291908181526020018280546139f790615e61565b8015613a445780601f10613a1957610100808354040283529160200191613a44565b820191906000526020600020905b815481529060010190602001808311613a2757829003601f168201915b505050918352505060038201546020820152600482015460408201526005820154606082015260068201546080820152600782015460a082015260089091015460ff808216151560c08401526101008083048216151560e0850152620100009092041615159101529050600d6000336001600160a01b031681526020810191909152604001600090812090613ad98282614e28565b60018201805460ff19169055613af3600283016000614e28565b506000600382018190556004820181905560058201819055600682018190556007820155600801805462ffffff19169055600b54613b3390600190615e12565b600b556019546001600160a01b031615613b6457613b64335b60608301516000546001600160a01b03169190614893565b33600090815260ef60205260409020546001600160a01b031660011415613b9857613b93338260800151614600565b613c2d565b33600081815260ef602052604090819020546080840151915163a9059cbb60e01b81526001600160a01b039091169263a9059cbb92613bd992600401615665565b602060405180830381600087803b158015613bf357600080fd5b505af1158015613c07573d6000803e3d6000fd5b505050506040513d601f19601f82011682018060405250810190613c2b9190615051565b505b33600081815260ef6020526040908190205483516060850151608086015193516001600160a01b0390931694937f034f85a3d66ac9cab89b6466deabcf2efeaf8e0f57b917ea5aeae7cf9cf2169593613c8893929190615771565b60405180910390a3505033600090815260ef6020526040902080546001600160a01b03191690556001608a81905590565b613cc1614501565b611fe16149e9565b613cd1614501565b6001600160a01b038116613d365760405162461bcd60e51b815260206004820152602660248201527f4f776e61626c653a206e6577206f776e657220697320746865207a65726f206160448201526564647265737360d01b6064820152608401611e24565b613d3f81614a26565b50565b816001600160a01b038116613d6a5760405163d92e233d60e01b815260040160405180910390fd5b613d72614501565b6001600160a01b038316600090815260ee602052604090819020839055517f229dd40a1182603dfbbdb7e80317ef3ab986422307a417d04ad62daabbad38d790613dbf9085908590615665565b60405180910390a1505050565b806001600160a01b038116613df45760405163d92e233d60e01b815260040160405180910390fd5b613dfc614501565b6001600160a01b03821660009081526012602052604090205460ff1615613e36576040516314571ee960e31b815260040160405180910390fd5b6001600160a01b038216600081815260126020526040808220805460ff19166001179055517f86e57fd2b90329052917118de7c3f521f400d439b9650deaa906a25b08b945609190a25050565b613e8b614501565b6000546040517f3e4520ab29fdd336aca22cca0657921e53eb42307038c1895b6b5e60eec3796f91613eca916001600160a01b03909116908490615627565b60405180910390a1600080546001600160a01b039092166001600160a01b0319928316811790915560198054909216179055565b613f06614501565b7f54d41b4e6bd425df3262062a56eab005e730ff6660f1c81895a70dcea8baf27160055482604051613f39929190615bd0565b60405180910390a16005819055601e55565b6000613f55614560565b336000908152600d602052604080822081516101608101909252805482908290613f7e90615e61565b80601f0160208091040260200160405190810160405280929190818152602001828054613faa90615e61565b8015613ff75780601f10613fcc57610100808354040283529160200191613ff7565b820191906000526020600020905b815481529060010190602001808311613fda57829003601f168201915b5050509183525050600182015460209091019060ff16600581111561402c57634e487b7160e01b600052602160045260246000fd5b600581111561404b57634e487b7160e01b600052602160045260246000fd5b815260200160028201805461405f90615e61565b80601f016020809104026020016040519081016040528092919081815260200182805461408b90615e61565b80156140d85780601f106140ad576101008083540402835291602001916140d8565b820191906000526020600020905b8154815290600101906020018083116140bb57829003601f168201915b505050918352505060038201546020820152600482015460408201526005820154606082015260068201546080820152600782015460a082015260089091015460ff808216151560c08401526101008083048216151560e0850152620100009092041615159181019190915281015190915061416757604051631c12f2e960e01b815260040160405180910390fd5b614170336124d8565b1561418e57604051631fefc40d60e01b815260040160405180910390fd5b60015460a08201516040516323b872dd60e01b81526001600160a01b03909216916323b872dd916141c59133913091600401615641565b602060405180830381600087803b1580156141df57600080fd5b505af11580156141f3573d6000803e3d6000fd5b505050506040513d601f19601f820116820180604052508101906142179190615051565b5060015460a0820151604051630852cd8d60e31b81526001600160a01b03909216916342966c689161424f9160040190815260200190565b602060405180830381600087803b15801561426957600080fd5b505af115801561427d573d6000803e3d6000fd5b505050506040513d601f19601f820116820180604052508101906142a19190615051565b5060c0810151156142c557604051632a9ffab760e21b815260040160405180910390fd5b336000908152600d60205260409081902090516010916142e4916155a4565b90815260405190819003602001902080546001600160a01b0319169055600d600061430c3390565b6001600160a01b0316815260208101919091526040016000908120906143328282614e28565b60018201805460ff1916905561434c600283016000614e28565b506000600382018190556004820181905560058201819055600682018190556007820155600801805462ffffff19169055600c5461438c90600190615e12565b600c556019546001600160a01b0316156143a9576143a933613b4c565b33600090815260ef60205260409020546001600160a01b0316600114156143e7576143e2338260e001518360800151610e3e9190615cd0565b61448f565b33600081815260ef602052604090205460e083015160808401516001600160a01b039092169263a9059cbb92909161441e91615cd0565b6040518363ffffffff1660e01b815260040161443b929190615665565b602060405180830381600087803b15801561445557600080fd5b505af1158015614469573d6000803e3d6000fd5b505050506040513d601f19601f8201168201806040525081019061448d9190615051565b505b33600081815260ef6020526040908190205483516060850151608086015193516001600160a01b0390931694937f89e0136053e5fb3b6e55cac61cebd11e85b3cbc19a56d52fa34e152a94286f27936144ea93929190615771565b60405180910390a36001915050611ec36001608a55565b3361450a6129d1565b6001600160a01b031614611fe15760405162461bcd60e51b815260206004820181905260248201527f4f776e61626c653a2063616c6c6572206973206e6f7420746865206f776e65726044820152606401611e24565b6002608a5414156145b35760405162461bcd60e51b815260206004820152601f60248201527f5265656e7472616e637947756172643a207265656e7472616e742063616c6c006044820152606401611e24565b6002608a55565b60bc5460ff1615611fe15760405162461bcd60e51b815260206004820152601060248201526f14185d5cd8589b194e881c185d5cd95960821b6044820152606401611e24565b804710156146505760405162461bcd60e51b815260206004820152601d60248201527f416464726573733a20696e73756666696369656e742062616c616e63650000006044820152606401611e24565b6000826001600160a01b03168260405160006040518083038185875af1925050503d806000811461469d576040519150601f19603f3d011682016040523d82523d6000602084013e6146a2565b606091505b50509050806147165760405162461bcd60e51b815260206004820152603a60248201527f416464726573733a20756e61626c6520746f2073656e642076616c75652c20726044820152791958da5c1a595b9d081b585e481a185d99481c995d995c9d195960321b6064820152608401611e24565b505050565b6001608a55565b600887015460ff1661476b5760405162461bcd60e51b81526020600482015260126024820152712637b1b5b2b9399d103737903637b1b5b2b960711b6044820152606401611e24565b6000614778848488614a78565b90506000886005015484600a61478e9190615d4b565b8789610100015161479f9190615df3565b6147a99190615df3565b895160048c015481906147bd908790615df3565b6147c79190615df3565b6147d19190615df3565b6147db9190615ce8565b6147e59190615e12565b90506000826147f586600a615d4b565b6147ff9084615df3565b6148099190615ce8565b90508084111561486f5760405162461bcd60e51b815260206004820152602b60248201527f4c6f636b6572733a206d6f7265207468616e206d61782072656d6f7661626c6560448201526a0818dbdb1b185d195c985b60aa1b6064820152608401611e24565b838a6004015461487f9190615e12565b8a6004018190555050505050505050505050565b6147168363a9059cbb60e01b84846040516024016148b2929190615665565b60408051601f198184030181529190526020810180516001600160e01b03166001600160e01b031990931692909217909152614b78565b6148f1614c4a565b60bc805460ff191690557f5db9ee0a495bf2e6ff9c91a7834c1ba4fdd244a5e8aa4e537bd38aeae4b073aa335b60405161492b9190615613565b60405180910390a1565b614956846323b872dd60e01b8585856040516024016148b293929190615641565b50505050565b602554610100900460ff166149835760405162461bcd60e51b8152600401611e249061592f565b611fe1614c93565b602554610100900460ff166149b25760405162461bcd60e51b8152600401611e249061592f565b611fe1614cc3565b602554610100900460ff166149e15760405162461bcd60e51b8152600401611e249061592f565b611fe1614cea565b6149f16145ba565b60bc805460ff191660011790557f62e78cea01bee320cd4e420270b5ea74000d11b0c9f74754ebdbfc544b05a25861491e3390565b605880546001600160a01b038381166001600160a01b0319831681179093556040519116919082907f8be0079c531659141344cd1fd0a4f28419497f9722a3daafe3b4186f6b6457e090600090a35050565b600082614ac25760405162461bcd60e51b8152602060048201526018602482015277131bd8dad95c9cce881b9bdd081dda1a5d195b1a5cdd195960421b6044820152606401611e24565b60808201516001600160a01b03166316fac92a614ae085600a615d4b565b60208501516040516001600160e01b031960e085901b168152600481019290925260248201879052600860448301526001600160a01b03808916606484015216608482015260a40160206040518083038186803b158015614b4057600080fd5b505afa158015614b54573d6000803e3d6000fd5b505050506040513d601f19601f8201168201806040525081019061365791906152bd565b6000614bcd826040518060400160405280602081526020017f5361666545524332303a206c6f772d6c6576656c2063616c6c206661696c6564815250856001600160a01b0316614d1d9092919063ffffffff16565b8051909150156147165780806020019051810190614beb9190615051565b6147165760405162461bcd60e51b815260206004820152602a60248201527f5361666545524332303a204552433230206f7065726174696f6e20646964206e6044820152691bdd081cdd58d8d9595960b21b6064820152608401611e24565b60bc5460ff16611fe15760405162461bcd60e51b815260206004820152601460248201527314185d5cd8589b194e881b9bdd081c185d5cd95960621b6044820152606401611e24565b602554610100900460ff16614cba5760405162461bcd60e51b8152600401611e249061592f565b611fe133614a26565b602554610100900460ff1661471b5760405162461bcd60e51b8152600401611e249061592f565b602554610100900460ff16614d115760405162461bcd60e51b8152600401611e249061592f565b60bc805460ff19169055565b6060613657848460008585843b614d765760405162461bcd60e51b815260206004820152601d60248201527f416464726573733a2063616c6c20746f206e6f6e2d636f6e74726163740000006044820152606401611e24565b600080866001600160a01b03168587604051614d929190615588565b60006040518083038185875af1925050503d8060008114614dcf576040519150601f19603f3d011682016040523d82523d6000602084013e614dd4565b606091505b5091509150614de4828286614def565b979650505050505050565b60608315614dfe5750816119af565b825115614e0e5782518084602001fd5b8160405162461bcd60e51b8152600401611e24919061591c565b508054614e3490615e61565b6000825580601f10614e44575050565b601f016020900490600052602060002090810190613d3f91905b80821115614e725760008155600101614e5e565b5090565b80356001600160a01b038116811461252d57600080fd5b60008083601f840112614e9e578081fd5b5081356001600160401b03811115614eb4578182fd5b602083019150836020828501011115614ecc57600080fd5b9250929050565b600060208284031215614ee4578081fd5b6119af82614e76565b60008060408385031215614eff578081fd5b614f0883614e76565b9150614f1660208401614e76565b90509250929050565b600080600080600080600080610100898b031215614f3b578384fd5b614f4489614e76565b9750614f5260208a01614e76565b9650614f6060408a01614e76565b979a96995096976060810135975060808101359660a0820135965060c0820135955060e0909101359350915050565b60008060408385031215614fa1578182fd5b614faa83614e76565b946020939093013593505050565b60008060008060808587031215614fcd578384fd5b614fd685614e76565b935060208501359250614feb60408601614e76565b9396929550929360600135925050565b600080600080600060a08688031215615012578081fd5b61501b86614e76565b94506020860135935061503060408701614e76565b92506060860135915061504560808701614e76565b90509295509295909350565b600060208284031215615062578081fd5b815180151581146119af578182fd5b60008060208385031215615083578182fd5b82356001600160401b03811115615098578283fd5b6150a485828601614e8d565b90969095509350505050565b600080600080606085870312156150c5578384fd5b84356001600160401b038111156150da578485fd5b6150e687828801614e8d565b90955093506150f9905060208601614e76565b9396929550929360400135925050565b60008060008060008060008060c0898b031215615124578384fd5b88356001600160401b038082111561513a578586fd5b6151468c838d01614e8d565b909a50985088915061515a60208c01614e76565b975060408b0135965060608b0135955060808b013591506006821061517d578485fd5b90935060a08a01359080821115615192578384fd5b5061519f8b828c01614e8d565b999c989b5096995094979396929594505050565b6000806000604084860312156151c7578081fd5b83356001600160401b038111156151dc578182fd5b6151e886828701614e8d565b909790965060209590950135949350505050565b60006020828403121561520d578081fd5b81356001600160401b0380821115615223578283fd5b818401915084601f830112615236578283fd5b81358181111561524857615248615eac565b604051601f8201601f19908116603f0116810190838211818310171561527057615270615eac565b81604052828152876020848701011115615288578586fd5b826020860160208301379182016020019490945295945050505050565b6000602082840312156152b6578081fd5b5035919050565b6000602082840312156152ce578081fd5b5051919050565b600080604083850312156152e7578182fd5b505080516020909101519092909150565b6001600160a01b03169052565b6000815180845261531d816020860160208601615e35565b601f01601f19169290920160200192915050565b6000815461533e81615e61565b80855260206001838116801561535b576001811461536f5761539d565b60ff1985168884015260408801955061539d565b866000528260002060005b858110156153955781548a820186015290830190840161537a565b890184019650505b505050505092915050565b600681106153c657634e487b7160e01b600052602160045260246000fd5b9052565b8054825260018101546020830152600281015460408301526003810154606083015260048101546080830152600501546001600160a01b031660a090910152565b6154168282516152f8565b602081015161542860208401826152f8565b50604081015161543b60408401826152f8565b50606081015161544e60608401826152f8565b50608081015161546160808401826152f8565b5060a0818101519083015260c0808201519083015260e0808201519083015261010080820151908301526101208082015190830152610140808201519083015261016090810151910152565b6154c0826154bb8354615e29565b6152f8565b6154cd6001820154615e29565b6154da60208401826152f8565b506154e86002820154615e29565b6154f560408401826152f8565b506155036003820154615e29565b61551060608401826152f8565b5061551e6004820154615e29565b61552b60808401826152f8565b50600581015460a0830152600681015460c0830152600781015460e083015260088101546101008301526009810154610120830152600a810154610140830152600b015461016090910152565b8183823760009101908152919050565b6000825161559a818460208701615e35565b9190910192915050565b60008083546155b281615e61565b600182811680156155ca57600181146155db57615607565b60ff19841687528287019450615607565b8786526020808720875b858110156155fe5781548a8201529084019082016155e5565b50505082870194505b50929695505050505050565b6001600160a01b0391909116815260200190565b6001600160a01b0392831681529116602082015260400190565b6001600160a01b039384168152919092166020820152604081019190915260600190565b6001600160a01b03929092168252602082015260400190565b6001600160a01b039690961686526020860194909452604085019290925260608401526080830152151560a082015260c00190565b6060815283606082015283856080830137600080608086840101526080601f19601f870116830101905083602083015282604083015295945050505050565b60006101608083526157068184018f615305565b9050615715602084018e6153a8565b8281036040840152615727818d615305565b606084019b909b525050608081019790975260a087019590955260c086019390935260e0850191909152151561010084015215156101208301521515610140909101529392505050565b6060815260006157846060830186615305565b60208301949094525060400152919050565b60a0815260006157a960a0830188615331565b6020830196909652506001600160a01b039390931660408401526060830191909152608090910152919050565b60a0815260006157e960a0830188615331565b90508560208301528460408301528360608301528260808301529695505050505050565b82815260406020820152615860604082018351805182526020808201519083015260408082015190830152606080820151908301526080808201519083015260a0908101516001600160a01b0316910152565b600060208301516101006158768185018361540b565b6040850151915061588b6102808501836152f8565b606085015191506158a06102a08501836152f8565b60808501516102c085015260a08501516102e085015260c085015161030085015260e08501519150610340806103208601526158e0610380860184615305565b918601519192506158f3858201836153a8565b5050610120840151838203603f19016103608501526159128282615305565b9695505050505050565b6020815260006119af6020830184615305565b6020808252602b908201527f496e697469616c697a61626c653a20636f6e7472616374206973206e6f74206960408201526a6e697469616c697a696e6760a81b606082015260800190565b8681526001600160a01b03861660208201526040810185905261022081016159a560608301866154ad565b6101e08201939093526102000152949350505050565b6102e08082526101609082015260006159d861044083018a615331565b60018a015460ff166159ee6103008501826153a8565b508281036102df1901610320840152615a0a8160028c01615331565b905060038a015461034084015260048a015461036084015260058a015461038084015260068a01546103a084015260078a01546103c084015260088a0154615a5a6103e0850160ff831615159052565b615a6f610400850160ff8360081c1615159052565b615a84610420850160ff8360101c1615159052565b509050615a9460208301896153ca565b615aa160e08301886154ad565b615aaf6102608301876152f8565b615abd6102808301866152f8565b6102a08201939093526102c0015295945050505050565b8881526103008101615ae9602083018a6153ca565b615af660e08301896154ad565b6001600160a01b03968716610260830152949095166102808601526102a08501929092526102c08401526102e0909201919091529392505050565b8681526102c08101615b4660208301886153ca565b615b5360e08301876154ad565b6001600160a01b03949094166102608201526102808101929092526102a0909101529392505050565b8781526102e08101615b9160208301896153ca565b615b9e60e08301886154ad565b6001600160a01b03959095166102608201526102808101939093526102a08301919091526102c0909101529392505050565b918252602082015260400190565b888152602081018890526103008101615bfa60408301896153ca565b615c086101008301886154ad565b6001600160a01b03959095166102808201526102a08101939093526102c08301919091526102e090910152949350505050565b6101208101615c4a82876153ca565b60c082019490945260e08101929092526001600160a01b031661010090910152919050565b85815260a060208201526000615c8860a0830187615305565b615c9560408401876153a8565b8281036060840152615ca78186615305565b9150508260808301529695505050505050565b9283526020830191909152604082015260600190565b60008219821115615ce357615ce3615e96565b500190565b600082615d0357634e487b7160e01b81526012600452602481fd5b500490565b600181815b80851115615d43578160001904821115615d2957615d29615e96565b80851615615d3657918102915b93841c9390800290615d0d565b509250929050565b60006119af8383600082615d6157506001612690565b81615d6e57506000612690565b8160018114615d845760028114615d8e57615daa565b6001915050612690565b60ff841115615d9f57615d9f615e96565b50506001821b612690565b5060208310610133831016604e8410600b8410161715615dcd575081810a612690565b615dd78383615d08565b8060001904821115615deb57615deb615e96565b029392505050565b6000816000190483118215151615615e0d57615e0d615e96565b500290565b600082821015615e2457615e24615e96565b500390565b6001600160a01b031690565b60005b83811015615e50578181015183820152602001615e38565b838111156149565750506000910152565b600181811c90821680615e7557607f821691505b6020821081141561167a57634e487b7160e01b600052602260045260246000fd5b634e487b7160e01b600052601160045260246000fd5b634e487b7160e01b600052604160045260246000fdfe5e4485631c54370ddbcded30559851c5dd670a232b8a7502b9d0b47ba9090d47a26469706673582212208dab381ed266de0f5a884e14958b388d8fa81fd4e170df41d03b0b5332a290b464736f6c63430008040033",
  "libraries": {
    "LockersManagerLib": "0x51A0b53BF810f7Dc65ea8e185fbf2BC6E0043620"
  },
  "devdoc": {
    "kind": "dev",
    "methods": {
      "addCollateral(address,uint256)": {
        "params": {
          "_addingCollateralTokenAmount": "Amount of added collateral",
          "_lockerTargetAddress": "Locker's target chain address"
        },
        "returns": {
          "_0": "True if collateral is added successfully"
        }
      },
      "addCollateralToken(address,uint256)": {
        "details": "Set decimal to 0 to remove token from whitelist"
      },
      "addLocker(address,uint256)": {
        "details": "Only owner can call this. The isCandidate is also set to false.",
        "params": {
          "_lockerTargetAddress": "Locker's target chain address"
        },
        "returns": {
          "_0": "True if the candidate is added successfully"
        }
      },
      "burn(bytes,uint256)": {
        "details": "Burn teleBTC and also get the locker's fee",
        "params": {
          "_amount": "Amount of the teleBTC which is minted, including the locker's fee",
          "_lockerLockingScript": "Locking script of a locker"
        },
        "returns": {
          "_0": "uint The amount of burnt teleBTC"
        }
      },
      "buySlashedCollateralOfLocker(address,uint256)": {
        "details": "Users buy the slashed collateral using TeleBTC with discount      The paid TeleBTC will be burnt to keep the system safe      If all the needed TeleBTC is collected and burnt,      the rest of slashed collateral is sent back to locker",
        "params": {
          "_collateralAmount": "Amount of collateral that someone intends to buy with discount",
          "_lockerTargetAddress": "Locker's target chain address"
        },
        "returns": {
          "_0": "True if buying was successful"
        }
      },
      "isLockerActive(address)": {
        "details": "We check a locker status in below cases:      1. Minting TeleBTC      2. Removing locker's collateral      3. Removing locker",
        "params": {
          "_lockerTargetAddress": "Address of locker on the target chain"
        },
        "returns": {
          "_0": "True if the locker is active"
        }
      },
      "liquidateLocker(address,uint256)": {
        "details": "Anyone can liquidate Locker with health factor under      100% by providing a sufficient amount of TeleBTC.",
        "params": {
          "_collateralAmount": "Amount of collateral that someone wants to buy with discount",
          "_lockerTargetAddress": "Locker's target chain address"
        },
        "returns": {
          "_0": "True if liquidation was successful"
        }
      },
      "mint(bytes,address,uint256)": {
        "details": "Mint teleBTC for an account and the locker fee as well",
        "params": {
          "_amount": "Amount of the teleBTC which is minted, including the locker's fee",
          "_lockerLockingScript": "Locking script of a locker",
          "_receiver": "Address of the receiver of the minted teleBTCs"
        },
        "returns": {
          "_0": "uint The amount of teleBTC minted for the receiver"
        }
      },
      "owner()": {
        "details": "Returns the address of the current owner."
      },
      "pauseLocker()": {
        "details": "Only functions with whenPaused modifier can be called"
      },
      "paused()": {
        "details": "Returns true if the contract is paused, and false otherwise."
      },
      "removeCollateral(uint256)": {
        "params": {
          "_removingCollateralTokenAmount": "Amount of removed collateral"
        },
        "returns": {
          "_0": "True if collateral is removed successfully"
        }
      },
      "renounceOwnership()": {
        "details": "Leaves the contract without owner. It will not be possible to call `onlyOwner` functions. Can only be called by the current owner. NOTE: Renouncing ownership will leave the contract without an owner, thereby disabling any functionality that is only available to the owner."
      },
      "requestActivation()": {
        "details": "Users can only mint TeleBTC by active locker      Note: lockerInactivationTimestamp = 0 means that the Locker is active",
        "returns": {
          "_0": "True if activated successfully"
        }
      },
      "requestInactivation()": {
        "details": "This would inactivate Locker after INACTIVATION_DELAY. The impact of inactivation is:      1. No one can mint TeleBTC by the Locker      2. Locker can be removed      3. Locker can withdraw unused collateral",
        "returns": {
          "_0": "True if deactivated successfully"
        }
      },
      "requestToBecomeLocker(bytes,address,uint256,uint256,uint8,bytes)": {
        "details": "This request may be approved by the owner",
        "params": {
          "_candidateLockingScript": "Locking script of the Locker. Users can use this script to lock BTC.",
          "_lockedCollateralTokenAmount": "target collateral token bond amount",
          "_lockedTSTAmount": "TST bond amount",
          "_lockerRescueScript": "Rescue script of Locker. In the case of liqudation, BTC is sent to this script.",
          "_lockerRescueType": "Type of Locker's rescue script (e.g. P2SH)"
        },
        "returns": {
          "_0": "True if candidate added successfully"
        }
      },
      "revokeRequest()": {
        "details": "Send back TST and collateral to the candidate",
        "returns": {
          "_0": "True if the candidate is removed successfully"
        }
      },
      "selfRemoveLocker()": {
        "details": "Only Locker can call this. The conditions for successful remove is:      1. Locker has been inactivated      2. Locker sends net minted TeleBTC to the contract      3. Locker is not being slashed",
        "returns": {
          "_0": "True if locker is removed successfully"
        }
      },
      "setCollateralRatio(uint256)": {
        "details": "This ratio is used to calculate the maximum mintable TeleBTC by a Locker"
      },
      "setLockerCollateralToken(address,address)": {
        "details": "This ratio is used as a helper to calculate the maximum mintable TeleBTC by a Locker"
      },
      "setLockerPercentageFee(uint256)": {
        "details": "This fee is taken by Locker for every minting or burning"
      },
      "setLockerReliabilityFactor(address,uint256)": {
        "details": "This ratio is used as a helper to calculate the maximum mintable TeleBTC by a Locker"
      },
      "setPriceOracle(address)": {
        "details": "This oracle is used to get the price of token in BTC"
      },
      "setPriceWithDiscountRatio(uint256)": {
        "details": "This ratio gives discount to users who participate in Locker liquidation"
      },
      "slashIdleLocker(address,uint256,address,uint256,address)": {
        "details": "Only burn router can call this. Locker is slashed since he doesn't provide burn proof      before the request deadline. User who made the burn request will receive the slashed bond.",
        "params": {
          "_amount": "Amount of TeleBTC that is slashed from Locker",
          "_lockerTargetAddress": "Locker's target chain address",
          "_recipient": "Address of user who receives the slashed collateral",
          "_rewardAmount": "Amount of TeleBTC that slasher receives",
          "_slasher": "Address of slasher who receives reward"
        },
        "returns": {
          "_0": "True if the locker is slashed successfully"
        }
      },
      "slashThiefLocker(address,uint256,address,uint256)": {
        "details": "Only burn router can call. Locker is slashed because he moved BTC from      Locker's Bitcoin address without any corresponding burn req.      The slashed bond will be sold with discount.",
        "params": {
          "_amount": "Value of slashed collateral (in TeleBTC)",
          "_lockerTargetAddress": "Locker's target chain address",
          "_rewardAmount": "Value of slashed reward (in TeleBTC)",
          "_slasher": "Address of slasher who receives reward"
        },
        "returns": {
          "_0": "True if the locker is slashed successfully"
        }
      },
      "transferOwnership(address)": {
        "details": "Transfers ownership of the contract to a new account (`newOwner`). Can only be called by the current owner."
      },
      "unPauseLocker()": {
        "details": "Only functions with whenNotPaused modifier can be called"
      }
    },
    "version": 1
  },
  "userdoc": {
    "kind": "user",
    "methods": {
      "addBurner(address)": {
        "notice": "Give an account access to burn"
      },
      "addCollateral(address,uint256)": {
        "notice": "Increase collateral of the lockerNo need to pass _addingCollateralTokenAmount if collateral token is native token"
      },
      "addCollateralToken(address,uint256)": {
        "notice": "Whitelist new collateral token with decimal"
      },
      "addLocker(address,uint256)": {
        "notice": "Approve the candidate request to become Locker"
      },
      "addMinter(address)": {
        "notice": "Give an account access to mint"
      },
      "burn(bytes,uint256)": {
        "notice": "Burn teleBTC of an account"
      },
      "buySlashedCollateralOfLocker(address,uint256)": {
        "notice": "Sell slashed collateral of a Locker"
      },
      "getLockerHealthFactor(address)": {
        "notice": "Return the health factor of locker"
      },
      "isLocker(bytes)": {
        "notice": "Return true if _lockerLockingScript is Locker"
      },
      "isLockerActive(address)": {
        "notice": "Return the Locker status"
      },
      "liquidateLocker(address,uint256)": {
        "notice": "Liquidate Locker with unhealthy collateral"
      },
      "mint(bytes,address,uint256)": {
        "notice": "Mint teleBTC for an account"
      },
      "pauseLocker()": {
        "notice": "Pause the contract"
      },
      "removeBurner(address)": {
        "notice": "Remove an account's access to burn"
      },
      "removeCollateral(uint256)": {
        "notice": "Decreases collateral of the locker"
      },
      "removeMinter(address)": {
        "notice": "Remove an account's access to mint"
      },
      "requestActivation()": {
        "notice": "Activate Locker"
      },
      "requestInactivation()": {
        "notice": "Request to inactivate Locker"
      },
      "requestToBecomeLocker(bytes,address,uint256,uint256,uint8,bytes)": {
        "notice": "Submit request to become Locker"
      },
      "revokeRequest()": {
        "notice": "Revoke request to become Locker"
      },
      "selfRemoveLocker()": {
        "notice": "Removes Locker from system and send back Locker TST and collateral."
      },
      "setBurnRouter(address)": {
        "notice": "Update burn router address"
      },
      "setCollateralRatio(uint256)": {
        "notice": "Update collateral ratio"
      },
      "setLiquidationRatio(uint256)": {
        "notice": "Update liquidation ratio"
      },
      "setLockerCollateralToken(address,address)": {
        "notice": "Update locker reliability factor"
      },
      "setLockerPercentageFee(uint256)": {
        "notice": "Update locker percentage fee"
      },
      "setLockerReliabilityFactor(address,uint256)": {
        "notice": "Update locker reliability factor"
      },
      "setMinRequiredTSTLockedAmount(uint256)": {
        "notice": "Update the required TST bond to become Locker"
      },
      "setPriceOracle(address)": {
        "notice": "Update the price oracle"
      },
      "setPriceWithDiscountRatio(uint256)": {
        "notice": "Update price with discount ratio"
      },
      "setTST(address)": {
        "notice": "Update TST contract address"
      },
      "setTeleBTC(address)": {
        "notice": "Update wrapped BTC address"
      },
      "slashIdleLocker(address,uint256,address,uint256,address)": {
        "notice": "Slash Locker for unprocessed unwrap request"
      },
      "slashThiefLocker(address,uint256,address,uint256)": {
        "notice": "Slash Locker for stealing users BTC"
      },
      "unPauseLocker()": {
        "notice": "Un-pause the contract"
      }
    },
    "version": 1
  },
  "storageLayout": {
    "storage": [
      {
        "astId": 12935,
        "contract": "contracts/lockersManager/LockersManagerLogic.sol:LockersManagerLogic",
        "label": "TeleportSystemToken",
        "offset": 0,
        "slot": "0",
        "type": "t_address"
      },
      {
        "astId": 12938,
        "contract": "contracts/lockersManager/LockersManagerLogic.sol:LockersManagerLogic",
        "label": "teleBTC",
        "offset": 0,
        "slot": "1",
        "type": "t_address"
      },
      {
        "astId": 12941,
        "contract": "contracts/lockersManager/LockersManagerLogic.sol:LockersManagerLogic",
        "label": "burnRouter",
        "offset": 0,
        "slot": "2",
        "type": "t_address"
      },
      {
        "astId": 12944,
        "contract": "contracts/lockersManager/LockersManagerLogic.sol:LockersManagerLogic",
        "label": "exchangeConnector",
        "offset": 0,
        "slot": "3",
        "type": "t_address"
      },
      {
        "astId": 12947,
        "contract": "contracts/lockersManager/LockersManagerLogic.sol:LockersManagerLogic",
        "label": "priceOracle",
        "offset": 0,
        "slot": "4",
        "type": "t_address"
      },
      {
        "astId": 12950,
        "contract": "contracts/lockersManager/LockersManagerLogic.sol:LockersManagerLogic",
        "label": "minRequiredTSTLockedAmount",
        "offset": 0,
        "slot": "5",
        "type": "t_uint256"
      },
      {
        "astId": 12953,
        "contract": "contracts/lockersManager/LockersManagerLogic.sol:LockersManagerLogic",
        "label": "minRequiredTNTLockedAmount",
        "offset": 0,
        "slot": "6",
        "type": "t_uint256"
      },
      {
        "astId": 12956,
        "contract": "contracts/lockersManager/LockersManagerLogic.sol:LockersManagerLogic",
        "label": "lockerPercentageFee",
        "offset": 0,
        "slot": "7",
        "type": "t_uint256"
      },
      {
        "astId": 12959,
        "contract": "contracts/lockersManager/LockersManagerLogic.sol:LockersManagerLogic",
        "label": "collateralRatio",
        "offset": 0,
        "slot": "8",
        "type": "t_uint256"
      },
      {
        "astId": 12962,
        "contract": "contracts/lockersManager/LockersManagerLogic.sol:LockersManagerLogic",
        "label": "liquidationRatio",
        "offset": 0,
        "slot": "9",
        "type": "t_uint256"
      },
      {
        "astId": 12965,
        "contract": "contracts/lockersManager/LockersManagerLogic.sol:LockersManagerLogic",
        "label": "priceWithDiscountRatio",
        "offset": 0,
        "slot": "10",
        "type": "t_uint256"
      },
      {
        "astId": 12968,
        "contract": "contracts/lockersManager/LockersManagerLogic.sol:LockersManagerLogic",
        "label": "totalNumberOfCandidates",
        "offset": 0,
        "slot": "11",
        "type": "t_uint256"
      },
      {
        "astId": 12971,
        "contract": "contracts/lockersManager/LockersManagerLogic.sol:LockersManagerLogic",
        "label": "totalNumberOfLockers",
        "offset": 0,
        "slot": "12",
        "type": "t_uint256"
      },
      {
        "astId": 12976,
        "contract": "contracts/lockersManager/LockersManagerLogic.sol:LockersManagerLogic",
        "label": "lockersMapping",
        "offset": 0,
        "slot": "13",
        "type": "t_mapping(t_address,t_struct(locker)13051_storage)"
      },
      {
        "astId": 12980,
        "contract": "contracts/lockersManager/LockersManagerLogic.sol:LockersManagerLogic",
        "label": "lockerInactivationTimestamp",
        "offset": 0,
        "slot": "14",
        "type": "t_mapping(t_address,t_uint256)"
      },
      {
        "astId": 12984,
        "contract": "contracts/lockersManager/LockersManagerLogic.sol:LockersManagerLogic",
        "label": "lockerLeavingAcceptance",
        "offset": 0,
        "slot": "15",
        "type": "t_mapping(t_address,t_bool)"
      },
      {
        "astId": 12989,
        "contract": "contracts/lockersManager/LockersManagerLogic.sol:LockersManagerLogic",
        "label": "getLockerTargetAddress",
        "offset": 0,
        "slot": "16",
        "type": "t_mapping(t_bytes_memory_ptr,t_address)"
      },
      {
        "astId": 12994,
        "contract": "contracts/lockersManager/LockersManagerLogic.sol:LockersManagerLogic",
        "label": "minters",
        "offset": 0,
        "slot": "17",
        "type": "t_mapping(t_address,t_bool)"
      },
      {
        "astId": 12999,
        "contract": "contracts/lockersManager/LockersManagerLogic.sol:LockersManagerLogic",
        "label": "burners",
        "offset": 0,
        "slot": "18",
        "type": "t_mapping(t_address,t_bool)"
      },
      {
        "astId": 13002,
        "contract": "contracts/lockersManager/LockersManagerLogic.sol:LockersManagerLogic",
        "label": "libConstants",
        "offset": 0,
        "slot": "19",
        "type": "t_struct(lockersLibConstants)13064_storage"
      },
      {
        "astId": 13005,
        "contract": "contracts/lockersManager/LockersManagerLogic.sol:LockersManagerLogic",
        "label": "libParams",
        "offset": 0,
        "slot": "25",
        "type": "t_struct(lockersLibParam)13089_storage"
      },
      {
        "astId": 280,
        "contract": "contracts/lockersManager/LockersManagerLogic.sol:LockersManagerLogic",
        "label": "_initialized",
        "offset": 0,
        "slot": "37",
        "type": "t_uint8"
      },
      {
        "astId": 283,
        "contract": "contracts/lockersManager/LockersManagerLogic.sol:LockersManagerLogic",
        "label": "_initializing",
        "offset": 1,
        "slot": "37",
        "type": "t_bool"
      },
      {
        "astId": 1113,
        "contract": "contracts/lockersManager/LockersManagerLogic.sol:LockersManagerLogic",
        "label": "__gap",
        "offset": 0,
        "slot": "38",
        "type": "t_array(t_uint256)50_storage"
      },
      {
        "astId": 152,
        "contract": "contracts/lockersManager/LockersManagerLogic.sol:LockersManagerLogic",
        "label": "_owner",
        "offset": 0,
        "slot": "88",
        "type": "t_address"
      },
      {
        "astId": 272,
        "contract": "contracts/lockersManager/LockersManagerLogic.sol:LockersManagerLogic",
        "label": "__gap",
        "offset": 0,
        "slot": "89",
        "type": "t_array(t_uint256)49_storage"
      },
      {
        "astId": 585,
        "contract": "contracts/lockersManager/LockersManagerLogic.sol:LockersManagerLogic",
        "label": "_status",
        "offset": 0,
        "slot": "138",
        "type": "t_uint256"
      },
      {
        "astId": 654,
        "contract": "contracts/lockersManager/LockersManagerLogic.sol:LockersManagerLogic",
        "label": "__gap",
        "offset": 0,
        "slot": "139",
        "type": "t_array(t_uint256)49_storage"
      },
      {
        "astId": 464,
        "contract": "contracts/lockersManager/LockersManagerLogic.sol:LockersManagerLogic",
        "label": "_paused",
        "offset": 0,
        "slot": "188",
        "type": "t_bool"
      },
      {
        "astId": 569,
        "contract": "contracts/lockersManager/LockersManagerLogic.sol:LockersManagerLogic",
        "label": "__gap",
        "offset": 0,
        "slot": "189",
        "type": "t_array(t_uint256)49_storage"
      },
      {
        "astId": 13015,
        "contract": "contracts/lockersManager/LockersManagerLogic.sol:LockersManagerLogic",
        "label": "collateralDecimal",
        "offset": 0,
        "slot": "238",
        "type": "t_mapping(t_address,t_uint256)"
      },
      {
        "astId": 13019,
        "contract": "contracts/lockersManager/LockersManagerLogic.sol:LockersManagerLogic",
        "label": "lockerCollateralToken",
        "offset": 0,
        "slot": "239",
        "type": "t_mapping(t_address,t_address)"
      },
      {
        "astId": 13023,
        "contract": "contracts/lockersManager/LockersManagerLogic.sol:LockersManagerLogic",
        "label": "lockerReliabilityFactor",
        "offset": 0,
        "slot": "240",
        "type": "t_mapping(t_address,t_uint256)"
      }
    ],
    "types": {
      "t_address": {
        "encoding": "inplace",
        "label": "address",
        "numberOfBytes": "20"
      },
      "t_array(t_uint256)49_storage": {
        "base": "t_uint256",
        "encoding": "inplace",
        "label": "uint256[49]",
        "numberOfBytes": "1568"
      },
      "t_array(t_uint256)50_storage": {
        "base": "t_uint256",
        "encoding": "inplace",
        "label": "uint256[50]",
        "numberOfBytes": "1600"
      },
      "t_bool": {
        "encoding": "inplace",
        "label": "bool",
        "numberOfBytes": "1"
      },
      "t_bytes_memory_ptr": {
        "encoding": "bytes",
        "label": "bytes",
        "numberOfBytes": "32"
      },
      "t_bytes_storage": {
        "encoding": "bytes",
        "label": "bytes",
        "numberOfBytes": "32"
      },
      "t_enum(ScriptTypes)7072": {
        "encoding": "inplace",
        "label": "enum ScriptTypes",
        "numberOfBytes": "1"
      },
      "t_mapping(t_address,t_address)": {
        "encoding": "mapping",
        "key": "t_address",
        "label": "mapping(address => address)",
        "numberOfBytes": "32",
        "value": "t_address"
      },
      "t_mapping(t_address,t_bool)": {
        "encoding": "mapping",
        "key": "t_address",
        "label": "mapping(address => bool)",
        "numberOfBytes": "32",
        "value": "t_bool"
      },
      "t_mapping(t_address,t_struct(locker)13051_storage)": {
        "encoding": "mapping",
        "key": "t_address",
        "label": "mapping(address => struct ILockersManager.locker)",
        "numberOfBytes": "32",
        "value": "t_struct(locker)13051_storage"
      },
      "t_mapping(t_address,t_uint256)": {
        "encoding": "mapping",
        "key": "t_address",
        "label": "mapping(address => uint256)",
        "numberOfBytes": "32",
        "value": "t_uint256"
      },
      "t_mapping(t_bytes_memory_ptr,t_address)": {
        "encoding": "mapping",
        "key": "t_bytes_memory_ptr",
        "label": "mapping(bytes => address)",
        "numberOfBytes": "32",
        "value": "t_address"
      },
      "t_struct(locker)13051_storage": {
        "encoding": "inplace",
        "label": "struct ILockersManager.locker",
        "members": [
          {
            "astId": 13029,
            "contract": "contracts/lockersManager/LockersManagerLogic.sol:LockersManagerLogic",
            "label": "lockerLockingScript",
            "offset": 0,
            "slot": "0",
            "type": "t_bytes_storage"
          },
          {
            "astId": 13032,
            "contract": "contracts/lockersManager/LockersManagerLogic.sol:LockersManagerLogic",
            "label": "lockerRescueType",
            "offset": 0,
            "slot": "1",
            "type": "t_enum(ScriptTypes)7072"
          },
          {
            "astId": 13034,
            "contract": "contracts/lockersManager/LockersManagerLogic.sol:LockersManagerLogic",
            "label": "lockerRescueScript",
            "offset": 0,
            "slot": "2",
            "type": "t_bytes_storage"
          },
          {
            "astId": 13036,
            "contract": "contracts/lockersManager/LockersManagerLogic.sol:LockersManagerLogic",
            "label": "TSTLockedAmount",
            "offset": 0,
            "slot": "3",
            "type": "t_uint256"
          },
          {
            "astId": 13038,
            "contract": "contracts/lockersManager/LockersManagerLogic.sol:LockersManagerLogic",
            "label": "collateralTokenLockedAmount",
            "offset": 0,
            "slot": "4",
            "type": "t_uint256"
          },
          {
            "astId": 13040,
            "contract": "contracts/lockersManager/LockersManagerLogic.sol:LockersManagerLogic",
            "label": "netMinted",
            "offset": 0,
            "slot": "5",
            "type": "t_uint256"
          },
          {
            "astId": 13042,
            "contract": "contracts/lockersManager/LockersManagerLogic.sol:LockersManagerLogic",
            "label": "slashingTeleBTCAmount",
            "offset": 0,
            "slot": "6",
            "type": "t_uint256"
          },
          {
            "astId": 13044,
            "contract": "contracts/lockersManager/LockersManagerLogic.sol:LockersManagerLogic",
            "label": "reservedCollateralTokenForSlash",
            "offset": 0,
            "slot": "7",
            "type": "t_uint256"
          },
          {
            "astId": 13046,
            "contract": "contracts/lockersManager/LockersManagerLogic.sol:LockersManagerLogic",
            "label": "isLocker",
            "offset": 0,
            "slot": "8",
            "type": "t_bool"
          },
          {
            "astId": 13048,
            "contract": "contracts/lockersManager/LockersManagerLogic.sol:LockersManagerLogic",
            "label": "isCandidate",
            "offset": 1,
            "slot": "8",
            "type": "t_bool"
          },
          {
            "astId": 13050,
            "contract": "contracts/lockersManager/LockersManagerLogic.sol:LockersManagerLogic",
            "label": "isScriptHash",
            "offset": 2,
            "slot": "8",
            "type": "t_bool"
          }
        ],
        "numberOfBytes": "288"
      },
      "t_struct(lockersLibConstants)13064_storage": {
        "encoding": "inplace",
        "label": "struct ILockersManager.lockersLibConstants",
        "members": [
          {
            "astId": 13053,
            "contract": "contracts/lockersManager/LockersManagerLogic.sol:LockersManagerLogic",
            "label": "OneHundredPercent",
            "offset": 0,
            "slot": "0",
            "type": "t_uint256"
          },
          {
            "astId": 13055,
            "contract": "contracts/lockersManager/LockersManagerLogic.sol:LockersManagerLogic",
            "label": "HealthFactor",
            "offset": 0,
            "slot": "1",
            "type": "t_uint256"
          },
          {
            "astId": 13057,
            "contract": "contracts/lockersManager/LockersManagerLogic.sol:LockersManagerLogic",
            "label": "UpperHealthFactor",
            "offset": 0,
            "slot": "2",
            "type": "t_uint256"
          },
          {
            "astId": 13059,
            "contract": "contracts/lockersManager/LockersManagerLogic.sol:LockersManagerLogic",
            "label": "MaxLockerFee",
            "offset": 0,
            "slot": "3",
            "type": "t_uint256"
          },
          {
            "astId": 13061,
            "contract": "contracts/lockersManager/LockersManagerLogic.sol:LockersManagerLogic",
            "label": "NativeTokenDecimal",
            "offset": 0,
            "slot": "4",
            "type": "t_uint256"
          },
          {
            "astId": 13063,
            "contract": "contracts/lockersManager/LockersManagerLogic.sol:LockersManagerLogic",
            "label": "NativeToken",
            "offset": 0,
            "slot": "5",
            "type": "t_address"
          }
        ],
        "numberOfBytes": "192"
      },
      "t_struct(lockersLibParam)13089_storage": {
        "encoding": "inplace",
        "label": "struct ILockersManager.lockersLibParam",
        "members": [
          {
            "astId": 13066,
            "contract": "contracts/lockersManager/LockersManagerLogic.sol:LockersManagerLogic",
            "label": "TeleportSystemToken",
            "offset": 0,
            "slot": "0",
            "type": "t_address"
          },
          {
            "astId": 13068,
            "contract": "contracts/lockersManager/LockersManagerLogic.sol:LockersManagerLogic",
            "label": "teleBTC",
            "offset": 0,
            "slot": "1",
            "type": "t_address"
          },
          {
            "astId": 13070,
            "contract": "contracts/lockersManager/LockersManagerLogic.sol:LockersManagerLogic",
            "label": "burnRouter",
            "offset": 0,
            "slot": "2",
            "type": "t_address"
          },
          {
            "astId": 13072,
            "contract": "contracts/lockersManager/LockersManagerLogic.sol:LockersManagerLogic",
            "label": "exchangeConnector",
            "offset": 0,
            "slot": "3",
            "type": "t_address"
          },
          {
            "astId": 13074,
            "contract": "contracts/lockersManager/LockersManagerLogic.sol:LockersManagerLogic",
            "label": "priceOracle",
            "offset": 0,
            "slot": "4",
            "type": "t_address"
          },
          {
            "astId": 13076,
            "contract": "contracts/lockersManager/LockersManagerLogic.sol:LockersManagerLogic",
            "label": "minRequiredTSTLockedAmount",
            "offset": 0,
            "slot": "5",
            "type": "t_uint256"
          },
          {
            "astId": 13078,
            "contract": "contracts/lockersManager/LockersManagerLogic.sol:LockersManagerLogic",
            "label": "minRequiredTNTLockedAmount",
            "offset": 0,
            "slot": "6",
            "type": "t_uint256"
          },
          {
            "astId": 13080,
            "contract": "contracts/lockersManager/LockersManagerLogic.sol:LockersManagerLogic",
            "label": "lockerPercentageFee",
            "offset": 0,
            "slot": "7",
            "type": "t_uint256"
          },
          {
            "astId": 13082,
            "contract": "contracts/lockersManager/LockersManagerLogic.sol:LockersManagerLogic",
            "label": "collateralRatio",
            "offset": 0,
            "slot": "8",
            "type": "t_uint256"
          },
          {
            "astId": 13084,
            "contract": "contracts/lockersManager/LockersManagerLogic.sol:LockersManagerLogic",
            "label": "liquidationRatio",
            "offset": 0,
            "slot": "9",
            "type": "t_uint256"
          },
          {
            "astId": 13086,
            "contract": "contracts/lockersManager/LockersManagerLogic.sol:LockersManagerLogic",
            "label": "priceWithDiscountRatio",
            "offset": 0,
            "slot": "10",
            "type": "t_uint256"
          },
          {
            "astId": 13088,
            "contract": "contracts/lockersManager/LockersManagerLogic.sol:LockersManagerLogic",
            "label": "inactivationDelay",
            "offset": 0,
            "slot": "11",
            "type": "t_uint256"
          }
        ],
        "numberOfBytes": "384"
      },
      "t_uint256": {
        "encoding": "inplace",
        "label": "uint256",
        "numberOfBytes": "32"
      },
      "t_uint8": {
        "encoding": "inplace",
        "label": "uint8",
        "numberOfBytes": "1"
      }
    }
  }
}