{
  "address": "0x294218BcCD4eaD0c6A6072756000C5a87BB2aE9b",
  "abi": [
    {
      "inputs": [],
      "name": "ZeroAddress",
      "type": "error"
    },
    {
      "inputs": [],
      "name": "ZeroValue",
      "type": "error"
    },
    {
      "anonymous": false,
      "inputs": [
        {
          "indexed": true,
          "internalType": "address",
          "name": "lockerTargetAddress",
          "type": "address"
        },
        {
          "indexed": false,
          "internalType": "bytes",
          "name": "lockerLockingScript",
          "type": "bytes"
        },
        {
          "indexed": false,
          "internalType": "uint256",
          "name": "TDTLockedAmount",
          "type": "uint256"
        },
        {
          "indexed": false,
          "internalType": "uint256",
          "name": "nativeTokenLockedAmount",
          "type": "uint256"
        },
        {
          "indexed": false,
          "internalType": "uint256",
          "name": "netMinted",
          "type": "uint256"
        }
      ],
      "name": "ActivateLocker",
      "type": "event"
    },
    {
      "anonymous": false,
      "inputs": [
        {
          "indexed": true,
          "internalType": "address",
          "name": "lockerTargetAddress",
          "type": "address"
        },
        {
          "indexed": false,
          "internalType": "uint256",
          "name": "burntAmount",
          "type": "uint256"
        },
        {
          "indexed": false,
          "internalType": "uint256",
          "name": "lockerFee",
          "type": "uint256"
        },
        {
          "indexed": false,
          "internalType": "uint256",
          "name": "burningTime",
          "type": "uint256"
        }
      ],
      "name": "BurnByLocker",
      "type": "event"
    },
    {
      "anonymous": false,
      "inputs": [
        {
          "indexed": true,
          "internalType": "address",
          "name": "account",
          "type": "address"
        }
      ],
      "name": "BurnerAdded",
      "type": "event"
    },
    {
      "anonymous": false,
      "inputs": [
        {
          "indexed": true,
          "internalType": "address",
          "name": "account",
          "type": "address"
        }
      ],
      "name": "BurnerRemoved",
      "type": "event"
    },
    {
      "anonymous": false,
      "inputs": [
        {
          "indexed": true,
          "internalType": "address",
          "name": "lockerTargetAddress",
          "type": "address"
        },
        {
          "indexed": false,
          "internalType": "uint256",
          "name": "addedCollateral",
          "type": "uint256"
        },
        {
          "indexed": false,
          "internalType": "uint256",
          "name": "totalCollateral",
          "type": "uint256"
        },
        {
          "indexed": false,
          "internalType": "uint256",
          "name": "addingTime",
          "type": "uint256"
        }
      ],
      "name": "CollateralAdded",
      "type": "event"
    },
    {
      "anonymous": false,
      "inputs": [
        {
          "indexed": true,
          "internalType": "address",
          "name": "lockerTargetAddress",
          "type": "address"
        },
        {
          "indexed": false,
          "internalType": "uint256",
          "name": "removedCollateral",
          "type": "uint256"
        },
        {
          "indexed": false,
          "internalType": "uint256",
          "name": "totalCollateral",
          "type": "uint256"
        },
        {
          "indexed": false,
          "internalType": "uint256",
          "name": "removingTime",
          "type": "uint256"
        }
      ],
      "name": "CollateralRemoved",
      "type": "event"
    },
    {
      "anonymous": false,
      "inputs": [
        {
          "indexed": false,
          "internalType": "uint8",
          "name": "version",
          "type": "uint8"
        }
      ],
      "name": "Initialized",
      "type": "event"
    },
    {
      "anonymous": false,
      "inputs": [
        {
          "indexed": true,
          "internalType": "address",
          "name": "lockerTargetAddress",
          "type": "address"
        },
        {
          "indexed": false,
          "internalType": "bytes",
          "name": "lockerLockingScript",
          "type": "bytes"
        },
        {
          "indexed": false,
          "internalType": "uint256",
          "name": "TDTLockedAmount",
          "type": "uint256"
        },
        {
          "indexed": false,
          "internalType": "uint256",
          "name": "nativeTokenLockedAmount",
          "type": "uint256"
        },
        {
          "indexed": false,
          "internalType": "uint256",
          "name": "addingTime",
          "type": "uint256"
        }
      ],
      "name": "LockerAdded",
      "type": "event"
    },
    {
      "anonymous": false,
      "inputs": [
        {
          "indexed": true,
          "internalType": "address",
          "name": "lockerTargetAddress",
          "type": "address"
        },
        {
          "indexed": true,
          "internalType": "address",
          "name": "liquidatorAddress",
          "type": "address"
        },
        {
          "indexed": false,
          "internalType": "uint256",
          "name": "collateralAmount",
          "type": "uint256"
        },
        {
          "indexed": false,
          "internalType": "uint256",
          "name": "teleBTCAmount",
          "type": "uint256"
        },
        {
          "indexed": false,
          "internalType": "uint256",
          "name": "liquidateTime",
          "type": "uint256"
        }
      ],
      "name": "LockerLiquidated",
      "type": "event"
    },
    {
      "anonymous": false,
      "inputs": [
        {
          "indexed": true,
          "internalType": "address",
          "name": "lockerTargetAddress",
          "type": "address"
        },
        {
          "indexed": false,
          "internalType": "bytes",
          "name": "lockerLockingScript",
          "type": "bytes"
        },
        {
          "indexed": false,
          "internalType": "uint256",
          "name": "TDTUnlockedAmount",
          "type": "uint256"
        },
        {
          "indexed": false,
          "internalType": "uint256",
          "name": "nativeTokenUnlockedAmount",
          "type": "uint256"
        }
      ],
      "name": "LockerRemoved",
      "type": "event"
    },
    {
      "anonymous": false,
      "inputs": [
        {
          "indexed": true,
          "internalType": "address",
          "name": "lockerTargetAddress",
          "type": "address"
        },
        {
          "indexed": false,
          "internalType": "uint256",
          "name": "rewardAmount",
          "type": "uint256"
        },
        {
          "indexed": true,
          "internalType": "address",
          "name": "rewardRecipient",
          "type": "address"
        },
        {
          "indexed": false,
          "internalType": "uint256",
          "name": "amount",
          "type": "uint256"
        },
        {
          "indexed": true,
          "internalType": "address",
          "name": "recipient",
          "type": "address"
        },
        {
          "indexed": false,
          "internalType": "uint256",
          "name": "slashedCollateralAmount",
          "type": "uint256"
        },
        {
          "indexed": false,
          "internalType": "uint256",
          "name": "slashTime",
          "type": "uint256"
        },
        {
          "indexed": false,
          "internalType": "bool",
          "name": "isForCCBurn",
          "type": "bool"
        }
      ],
      "name": "LockerSlashed",
      "type": "event"
    },
    {
      "anonymous": false,
      "inputs": [
        {
          "indexed": true,
          "internalType": "address",
          "name": "lockerTargetAddress",
          "type": "address"
        },
        {
          "indexed": true,
          "internalType": "address",
          "name": "buyerAddress",
          "type": "address"
        },
        {
          "indexed": false,
          "internalType": "uint256",
          "name": "slashingAmount",
          "type": "uint256"
        },
        {
          "indexed": false,
          "internalType": "uint256",
          "name": "teleBTCAmount",
          "type": "uint256"
        },
        {
          "indexed": false,
          "internalType": "uint256",
          "name": "slashingTime",
          "type": "uint256"
        }
      ],
      "name": "LockerSlashedCollateralSold",
      "type": "event"
    },
    {
      "anonymous": false,
      "inputs": [
        {
          "indexed": true,
          "internalType": "address",
          "name": "lockerTargetAddress",
          "type": "address"
        },
        {
          "indexed": true,
          "internalType": "address",
          "name": "receiver",
          "type": "address"
        },
        {
          "indexed": false,
          "internalType": "uint256",
          "name": "mintedAmount",
          "type": "uint256"
        },
        {
          "indexed": false,
          "internalType": "uint256",
          "name": "lockerFee",
          "type": "uint256"
        },
        {
          "indexed": false,
          "internalType": "uint256",
          "name": "mintingTime",
          "type": "uint256"
        }
      ],
      "name": "MintByLocker",
      "type": "event"
    },
    {
      "anonymous": false,
      "inputs": [
        {
          "indexed": true,
          "internalType": "address",
          "name": "account",
          "type": "address"
        }
      ],
      "name": "MinterAdded",
      "type": "event"
    },
    {
      "anonymous": false,
      "inputs": [
        {
          "indexed": true,
          "internalType": "address",
          "name": "account",
          "type": "address"
        }
      ],
      "name": "MinterRemoved",
      "type": "event"
    },
    {
      "anonymous": false,
      "inputs": [
        {
          "indexed": false,
          "internalType": "address",
          "name": "oldCCBurnRouter",
          "type": "address"
        },
        {
          "indexed": false,
          "internalType": "address",
          "name": "newCCBurnRouter",
          "type": "address"
        }
      ],
      "name": "NewCCBurnRouter",
      "type": "event"
    },
    {
      "anonymous": false,
      "inputs": [
        {
          "indexed": false,
          "internalType": "uint256",
          "name": "oldCollateralRatio",
          "type": "uint256"
        },
        {
          "indexed": false,
          "internalType": "uint256",
          "name": "newCollateralRatio",
          "type": "uint256"
        }
      ],
      "name": "NewCollateralRatio",
      "type": "event"
    },
    {
      "anonymous": false,
      "inputs": [
        {
          "indexed": false,
          "internalType": "uint256",
          "name": "oldLiquidationRatio",
          "type": "uint256"
        },
        {
          "indexed": false,
          "internalType": "uint256",
          "name": "newLiquidationRatio",
          "type": "uint256"
        }
      ],
      "name": "NewLiquidationRatio",
      "type": "event"
    },
    {
      "anonymous": false,
      "inputs": [
        {
          "indexed": false,
          "internalType": "uint256",
          "name": "oldLockerPercentageFee",
          "type": "uint256"
        },
        {
          "indexed": false,
          "internalType": "uint256",
          "name": "newLockerPercentageFee",
          "type": "uint256"
        }
      ],
      "name": "NewLockerPercentageFee",
      "type": "event"
    },
    {
      "anonymous": false,
      "inputs": [
        {
          "indexed": false,
          "internalType": "uint256",
          "name": "oldMinRequiredTDTLockedAmount",
          "type": "uint256"
        },
        {
          "indexed": false,
          "internalType": "uint256",
          "name": "newMinRequiredTDTLockedAmount",
          "type": "uint256"
        }
      ],
      "name": "NewMinRequiredTDTLockedAmount",
      "type": "event"
    },
    {
      "anonymous": false,
      "inputs": [
        {
          "indexed": false,
          "internalType": "uint256",
          "name": "oldMinRequiredTNTLockedAmount",
          "type": "uint256"
        },
        {
          "indexed": false,
          "internalType": "uint256",
          "name": "newMinRequiredTNTLockedAmount",
          "type": "uint256"
        }
      ],
      "name": "NewMinRequiredTNTLockedAmount",
      "type": "event"
    },
    {
      "anonymous": false,
      "inputs": [
        {
          "indexed": false,
          "internalType": "address",
          "name": "oldPriceOracle",
          "type": "address"
        },
        {
          "indexed": false,
          "internalType": "address",
          "name": "newPriceOracle",
          "type": "address"
        }
      ],
      "name": "NewPriceOracle",
      "type": "event"
    },
    {
      "anonymous": false,
      "inputs": [
        {
          "indexed": false,
          "internalType": "uint256",
          "name": "oldPriceWithDiscountRatio",
          "type": "uint256"
        },
        {
          "indexed": false,
          "internalType": "uint256",
          "name": "newPriceWithDiscountRatio",
          "type": "uint256"
        }
      ],
      "name": "NewPriceWithDiscountRatio",
      "type": "event"
    },
    {
      "anonymous": false,
      "inputs": [
        {
          "indexed": false,
          "internalType": "address",
          "name": "oldTST",
          "type": "address"
        },
        {
          "indexed": false,
          "internalType": "address",
          "name": "newTST",
          "type": "address"
        }
      ],
      "name": "NewTST",
      "type": "event"
    },
    {
      "anonymous": false,
      "inputs": [
        {
          "indexed": false,
          "internalType": "address",
          "name": "oldTeleBTC",
          "type": "address"
        },
        {
          "indexed": false,
          "internalType": "address",
          "name": "newTeleBTC",
          "type": "address"
        }
      ],
      "name": "NewTeleBTC",
      "type": "event"
    },
    {
      "anonymous": false,
      "inputs": [
        {
          "indexed": true,
          "internalType": "address",
          "name": "previousOwner",
          "type": "address"
        },
        {
          "indexed": true,
          "internalType": "address",
          "name": "newOwner",
          "type": "address"
        }
      ],
      "name": "OwnershipTransferred",
      "type": "event"
    },
    {
      "anonymous": false,
      "inputs": [
        {
          "indexed": false,
          "internalType": "address",
          "name": "account",
          "type": "address"
        }
      ],
      "name": "Paused",
      "type": "event"
    },
    {
      "anonymous": false,
      "inputs": [
        {
          "indexed": true,
          "internalType": "address",
          "name": "lockerTargetAddress",
          "type": "address"
        },
        {
          "indexed": false,
          "internalType": "bytes",
          "name": "lockerLockingScript",
          "type": "bytes"
        },
        {
          "indexed": false,
          "internalType": "uint256",
          "name": "TDTLockedAmount",
          "type": "uint256"
        },
        {
          "indexed": false,
          "internalType": "uint256",
          "name": "nativeTokenLockedAmount",
          "type": "uint256"
        }
      ],
      "name": "RequestAddLocker",
      "type": "event"
    },
    {
      "anonymous": false,
      "inputs": [
        {
          "indexed": true,
          "internalType": "address",
          "name": "lockerTargetAddress",
          "type": "address"
        },
        {
          "indexed": true,
          "internalType": "uint256",
          "name": "inactivationTimestamp",
          "type": "uint256"
        },
        {
          "indexed": false,
          "internalType": "bytes",
          "name": "lockerLockingScript",
          "type": "bytes"
        },
        {
          "indexed": false,
          "internalType": "uint256",
          "name": "TDTLockedAmount",
          "type": "uint256"
        },
        {
          "indexed": false,
          "internalType": "uint256",
          "name": "nativeTokenLockedAmount",
          "type": "uint256"
        },
        {
          "indexed": false,
          "internalType": "uint256",
          "name": "netMinted",
          "type": "uint256"
        }
      ],
      "name": "RequestInactivateLocker",
      "type": "event"
    },
    {
      "anonymous": false,
      "inputs": [
        {
          "indexed": true,
          "internalType": "address",
          "name": "lockerTargetAddress",
          "type": "address"
        },
        {
          "indexed": false,
          "internalType": "bytes",
          "name": "lockerLockingScript",
          "type": "bytes"
        },
        {
          "indexed": false,
          "internalType": "uint256",
          "name": "TDTLockedAmount",
          "type": "uint256"
        },
        {
          "indexed": false,
          "internalType": "uint256",
          "name": "nativeTokenLockedAmount",
          "type": "uint256"
        }
      ],
      "name": "RevokeAddLockerRequest",
      "type": "event"
    },
    {
      "anonymous": false,
      "inputs": [
        {
          "indexed": false,
          "internalType": "address",
          "name": "account",
          "type": "address"
        }
      ],
      "name": "Unpaused",
      "type": "event"
    },
    {
      "inputs": [],
      "name": "HEALTH_FACTOR",
      "outputs": [
        {
          "internalType": "uint256",
          "name": "",
          "type": "uint256"
        }
      ],
      "stateMutability": "view",
      "type": "function"
    },
    {
      "inputs": [],
      "name": "INACTIVATION_DELAY",
      "outputs": [
        {
          "internalType": "uint256",
          "name": "",
          "type": "uint256"
        }
      ],
      "stateMutability": "view",
      "type": "function"
    },
    {
      "inputs": [],
      "name": "MAX_LOCKER_FEE",
      "outputs": [
        {
          "internalType": "uint256",
          "name": "",
          "type": "uint256"
        }
      ],
      "stateMutability": "view",
      "type": "function"
    },
    {
      "inputs": [],
      "name": "NATIVE_TOKEN",
      "outputs": [
        {
          "internalType": "address",
          "name": "",
          "type": "address"
        }
      ],
      "stateMutability": "view",
      "type": "function"
    },
    {
      "inputs": [],
      "name": "NATIVE_TOKEN_DECIMAL",
      "outputs": [
        {
          "internalType": "uint256",
          "name": "",
          "type": "uint256"
        }
      ],
      "stateMutability": "view",
      "type": "function"
    },
    {
      "inputs": [],
      "name": "ONE_HUNDRED_PERCENT",
      "outputs": [
        {
          "internalType": "uint256",
          "name": "",
          "type": "uint256"
        }
      ],
      "stateMutability": "view",
      "type": "function"
    },
    {
      "inputs": [],
      "name": "TeleportDAOToken",
      "outputs": [
        {
          "internalType": "address",
          "name": "",
          "type": "address"
        }
      ],
      "stateMutability": "view",
      "type": "function"
    },
    {
      "inputs": [],
      "name": "UPPER_HEALTH_FACTOR",
      "outputs": [
        {
          "internalType": "uint256",
          "name": "",
          "type": "uint256"
        }
      ],
      "stateMutability": "view",
      "type": "function"
    },
    {
      "inputs": [
        {
          "internalType": "address",
          "name": "_account",
          "type": "address"
        }
      ],
      "name": "addBurner",
      "outputs": [],
      "stateMutability": "nonpayable",
      "type": "function"
    },
    {
      "inputs": [
        {
          "internalType": "address",
          "name": "_lockerTargetAddress",
          "type": "address"
        },
        {
          "internalType": "uint256",
          "name": "_addingNativeTokenAmount",
          "type": "uint256"
        }
      ],
      "name": "addCollateral",
      "outputs": [
        {
          "internalType": "bool",
          "name": "",
          "type": "bool"
        }
      ],
      "stateMutability": "payable",
      "type": "function"
    },
    {
      "inputs": [
        {
          "internalType": "address",
          "name": "_lockerTargetAddress",
          "type": "address"
        }
      ],
      "name": "addLocker",
      "outputs": [
        {
          "internalType": "bool",
          "name": "",
          "type": "bool"
        }
      ],
      "stateMutability": "nonpayable",
      "type": "function"
    },
    {
      "inputs": [
        {
          "internalType": "address",
          "name": "_account",
          "type": "address"
        }
      ],
      "name": "addMinter",
      "outputs": [],
      "stateMutability": "nonpayable",
      "type": "function"
    },
    {
      "inputs": [
        {
          "internalType": "bytes",
          "name": "_lockerLockingScript",
          "type": "bytes"
        },
        {
          "internalType": "uint256",
          "name": "_amount",
          "type": "uint256"
        }
      ],
      "name": "burn",
      "outputs": [
        {
          "internalType": "uint256",
          "name": "",
          "type": "uint256"
        }
      ],
      "stateMutability": "nonpayable",
      "type": "function"
    },
    {
      "inputs": [
        {
          "internalType": "address",
          "name": "",
          "type": "address"
        }
      ],
      "name": "burners",
      "outputs": [
        {
          "internalType": "bool",
          "name": "",
          "type": "bool"
        }
      ],
      "stateMutability": "view",
      "type": "function"
    },
    {
      "inputs": [
        {
          "internalType": "address",
          "name": "_lockerTargetAddress",
          "type": "address"
        },
        {
          "internalType": "uint256",
          "name": "_collateralAmount",
          "type": "uint256"
        }
      ],
      "name": "buySlashedCollateralOfLocker",
      "outputs": [
        {
          "internalType": "bool",
          "name": "",
          "type": "bool"
        }
      ],
      "stateMutability": "nonpayable",
      "type": "function"
    },
    {
      "inputs": [],
      "name": "ccBurnRouter",
      "outputs": [
        {
          "internalType": "address",
          "name": "",
          "type": "address"
        }
      ],
      "stateMutability": "view",
      "type": "function"
    },
    {
      "inputs": [],
      "name": "collateralRatio",
      "outputs": [
        {
          "internalType": "uint256",
          "name": "",
          "type": "uint256"
        }
      ],
      "stateMutability": "view",
      "type": "function"
    },
    {
      "inputs": [],
      "name": "exchangeConnector",
      "outputs": [
        {
          "internalType": "address",
          "name": "",
          "type": "address"
        }
      ],
      "stateMutability": "view",
      "type": "function"
    },
    {
      "inputs": [
        {
          "internalType": "address",
          "name": "_lockerTargetAddress",
          "type": "address"
        }
      ],
      "name": "getLockerCapacity",
      "outputs": [
        {
          "internalType": "uint256",
          "name": "",
          "type": "uint256"
        }
      ],
      "stateMutability": "view",
      "type": "function"
    },
    {
      "inputs": [
        {
          "internalType": "address",
          "name": "_lockerTargetAddress",
          "type": "address"
        }
      ],
      "name": "getLockerLockingScript",
      "outputs": [
        {
          "internalType": "bytes",
          "name": "",
          "type": "bytes"
        }
      ],
      "stateMutability": "view",
      "type": "function"
    },
    {
      "inputs": [
        {
          "internalType": "bytes",
          "name": "_lockerLockingScript",
          "type": "bytes"
        }
      ],
      "name": "getLockerTargetAddress",
      "outputs": [
        {
          "internalType": "address",
          "name": "",
          "type": "address"
        }
      ],
      "stateMutability": "view",
      "type": "function"
    },
    {
      "inputs": [],
      "name": "getNumberOfLockers",
      "outputs": [
        {
          "internalType": "uint256",
          "name": "",
          "type": "uint256"
        }
      ],
      "stateMutability": "view",
      "type": "function"
    },
    {
      "inputs": [
        {
          "internalType": "address",
          "name": "_teleBTC",
          "type": "address"
        },
        {
          "internalType": "address",
          "name": "_priceOracle",
          "type": "address"
        },
        {
          "internalType": "address",
          "name": "_ccBurnRouter",
          "type": "address"
        },
        {
          "internalType": "uint256",
          "name": "_minRequiredTDTLockedAmount",
          "type": "uint256"
        },
        {
          "internalType": "uint256",
          "name": "_minRequiredTNTLockedAmount",
          "type": "uint256"
        },
        {
          "internalType": "uint256",
          "name": "_collateralRatio",
          "type": "uint256"
        },
        {
          "internalType": "uint256",
          "name": "_liquidationRatio",
          "type": "uint256"
        },
        {
          "internalType": "uint256",
          "name": "_lockerPercentageFee",
          "type": "uint256"
        },
        {
          "internalType": "uint256",
          "name": "_priceWithDiscountRatio",
          "type": "uint256"
        }
      ],
      "name": "initialize",
      "outputs": [],
      "stateMutability": "nonpayable",
      "type": "function"
    },
    {
      "inputs": [
        {
          "internalType": "bytes",
          "name": "_lockerLockingScript",
          "type": "bytes"
        }
      ],
      "name": "isLocker",
      "outputs": [
        {
          "internalType": "bool",
          "name": "",
          "type": "bool"
        }
      ],
      "stateMutability": "view",
      "type": "function"
    },
    {
      "inputs": [
        {
          "internalType": "address",
          "name": "_lockerTargetAddress",
          "type": "address"
        }
      ],
      "name": "isLockerActive",
      "outputs": [
        {
          "internalType": "bool",
          "name": "",
          "type": "bool"
        }
      ],
      "stateMutability": "view",
      "type": "function"
    },
    {
      "inputs": [],
      "name": "libConstants",
      "outputs": [
        {
          "internalType": "uint256",
          "name": "OneHundredPercent",
          "type": "uint256"
        },
        {
          "internalType": "uint256",
          "name": "HealthFactor",
          "type": "uint256"
        },
        {
          "internalType": "uint256",
          "name": "UpperHealthFactor",
          "type": "uint256"
        },
        {
          "internalType": "uint256",
          "name": "MaxLockerFee",
          "type": "uint256"
        },
        {
          "internalType": "uint256",
          "name": "NativeTokenDecimal",
          "type": "uint256"
        },
        {
          "internalType": "address",
          "name": "NativeToken",
          "type": "address"
        }
      ],
      "stateMutability": "view",
      "type": "function"
    },
    {
      "inputs": [],
      "name": "libParams",
      "outputs": [
        {
          "internalType": "address",
          "name": "teleportDAOToken",
          "type": "address"
        },
        {
          "internalType": "address",
          "name": "teleBTC",
          "type": "address"
        },
        {
          "internalType": "address",
          "name": "ccBurnRouter",
          "type": "address"
        },
        {
          "internalType": "address",
          "name": "exchangeConnector",
          "type": "address"
        },
        {
          "internalType": "address",
          "name": "priceOracle",
          "type": "address"
        },
        {
          "internalType": "uint256",
          "name": "minRequiredTDTLockedAmount",
          "type": "uint256"
        },
        {
          "internalType": "uint256",
          "name": "minRequiredTNTLockedAmount",
          "type": "uint256"
        },
        {
          "internalType": "uint256",
          "name": "lockerPercentageFee",
          "type": "uint256"
        },
        {
          "internalType": "uint256",
          "name": "collateralRatio",
          "type": "uint256"
        },
        {
          "internalType": "uint256",
          "name": "liquidationRatio",
          "type": "uint256"
        },
        {
          "internalType": "uint256",
          "name": "priceWithDiscountRatio",
          "type": "uint256"
        },
        {
          "internalType": "uint256",
          "name": "inactivationDelay",
          "type": "uint256"
        }
      ],
      "stateMutability": "view",
      "type": "function"
    },
    {
      "inputs": [
        {
          "internalType": "address",
          "name": "_lockerTargetAddress",
          "type": "address"
        },
        {
          "internalType": "uint256",
          "name": "_collateralAmount",
          "type": "uint256"
        }
      ],
      "name": "liquidateLocker",
      "outputs": [
        {
          "internalType": "bool",
          "name": "",
          "type": "bool"
        }
      ],
      "stateMutability": "nonpayable",
      "type": "function"
    },
    {
      "inputs": [],
      "name": "liquidationRatio",
      "outputs": [
        {
          "internalType": "uint256",
          "name": "",
          "type": "uint256"
        }
      ],
      "stateMutability": "view",
      "type": "function"
    },
    {
      "inputs": [
        {
          "internalType": "address",
          "name": "",
          "type": "address"
        }
      ],
      "name": "lockerInactivationTimestamp",
      "outputs": [
        {
          "internalType": "uint256",
          "name": "",
          "type": "uint256"
        }
      ],
      "stateMutability": "view",
      "type": "function"
    },
    {
      "inputs": [
        {
          "internalType": "address",
          "name": "",
          "type": "address"
        }
      ],
      "name": "lockerLeavingAcceptance",
      "outputs": [
        {
          "internalType": "bool",
          "name": "",
          "type": "bool"
        }
      ],
      "stateMutability": "view",
      "type": "function"
    },
    {
      "inputs": [],
      "name": "lockerPercentageFee",
      "outputs": [
        {
          "internalType": "uint256",
          "name": "",
          "type": "uint256"
        }
      ],
      "stateMutability": "view",
      "type": "function"
    },
    {
      "inputs": [
        {
          "internalType": "bytes",
          "name": "",
          "type": "bytes"
        }
      ],
      "name": "lockerTargetAddress",
      "outputs": [
        {
          "internalType": "address",
          "name": "",
          "type": "address"
        }
      ],
      "stateMutability": "view",
      "type": "function"
    },
    {
      "inputs": [
        {
          "internalType": "address",
          "name": "",
          "type": "address"
        }
      ],
      "name": "lockersMapping",
      "outputs": [
        {
          "internalType": "bytes",
          "name": "lockerLockingScript",
          "type": "bytes"
        },
        {
          "internalType": "enum ScriptTypes",
          "name": "lockerRescueType",
          "type": "uint8"
        },
        {
          "internalType": "bytes",
          "name": "lockerRescueScript",
          "type": "bytes"
        },
        {
          "internalType": "uint256",
          "name": "TDTLockedAmount",
          "type": "uint256"
        },
        {
          "internalType": "uint256",
          "name": "nativeTokenLockedAmount",
          "type": "uint256"
        },
        {
          "internalType": "uint256",
          "name": "netMinted",
          "type": "uint256"
        },
        {
          "internalType": "uint256",
          "name": "slashingTeleBTCAmount",
          "type": "uint256"
        },
        {
          "internalType": "uint256",
          "name": "reservedNativeTokenForSlash",
          "type": "uint256"
        },
        {
          "internalType": "bool",
          "name": "isLocker",
          "type": "bool"
        },
        {
          "internalType": "bool",
          "name": "isCandidate",
          "type": "bool"
        },
        {
          "internalType": "bool",
          "name": "isScriptHash",
          "type": "bool"
        }
      ],
      "stateMutability": "view",
      "type": "function"
    },
    {
      "inputs": [],
      "name": "minRequiredTDTLockedAmount",
      "outputs": [
        {
          "internalType": "uint256",
          "name": "",
          "type": "uint256"
        }
      ],
      "stateMutability": "view",
      "type": "function"
    },
    {
      "inputs": [],
      "name": "minRequiredTNTLockedAmount",
      "outputs": [
        {
          "internalType": "uint256",
          "name": "",
          "type": "uint256"
        }
      ],
      "stateMutability": "view",
      "type": "function"
    },
    {
      "inputs": [
        {
          "internalType": "bytes",
          "name": "_lockerLockingScript",
          "type": "bytes"
        },
        {
          "internalType": "address",
          "name": "_receiver",
          "type": "address"
        },
        {
          "internalType": "uint256",
          "name": "_amount",
          "type": "uint256"
        }
      ],
      "name": "mint",
      "outputs": [
        {
          "internalType": "uint256",
          "name": "",
          "type": "uint256"
        }
      ],
      "stateMutability": "nonpayable",
      "type": "function"
    },
    {
      "inputs": [
        {
          "internalType": "address",
          "name": "",
          "type": "address"
        }
      ],
      "name": "minters",
      "outputs": [
        {
          "internalType": "bool",
          "name": "",
          "type": "bool"
        }
      ],
      "stateMutability": "view",
      "type": "function"
    },
    {
      "inputs": [],
      "name": "owner",
      "outputs": [
        {
          "internalType": "address",
          "name": "",
          "type": "address"
        }
      ],
      "stateMutability": "view",
      "type": "function"
    },
    {
      "inputs": [],
      "name": "pauseLocker",
      "outputs": [],
      "stateMutability": "nonpayable",
      "type": "function"
    },
    {
      "inputs": [],
      "name": "paused",
      "outputs": [
        {
          "internalType": "bool",
          "name": "",
          "type": "bool"
        }
      ],
      "stateMutability": "view",
      "type": "function"
    },
    {
      "inputs": [],
      "name": "priceOfOneUnitOfCollateralInBTC",
      "outputs": [
        {
          "internalType": "uint256",
          "name": "",
          "type": "uint256"
        }
      ],
      "stateMutability": "view",
      "type": "function"
    },
    {
      "inputs": [],
      "name": "priceOracle",
      "outputs": [
        {
          "internalType": "address",
          "name": "",
          "type": "address"
        }
      ],
      "stateMutability": "view",
      "type": "function"
    },
    {
      "inputs": [],
      "name": "priceWithDiscountRatio",
      "outputs": [
        {
          "internalType": "uint256",
          "name": "",
          "type": "uint256"
        }
      ],
      "stateMutability": "view",
      "type": "function"
    },
    {
      "inputs": [
        {
          "internalType": "address",
          "name": "_account",
          "type": "address"
        }
      ],
      "name": "removeBurner",
      "outputs": [],
      "stateMutability": "nonpayable",
      "type": "function"
    },
    {
      "inputs": [
        {
          "internalType": "uint256",
          "name": "_removingNativeTokenAmount",
          "type": "uint256"
        }
      ],
      "name": "removeCollateral",
      "outputs": [
        {
          "internalType": "bool",
          "name": "",
          "type": "bool"
        }
      ],
      "stateMutability": "payable",
      "type": "function"
    },
    {
      "inputs": [
        {
          "internalType": "address",
          "name": "_account",
          "type": "address"
        }
      ],
      "name": "removeMinter",
      "outputs": [],
      "stateMutability": "nonpayable",
      "type": "function"
    },
    {
      "inputs": [],
      "name": "renounceOwnership",
      "outputs": [],
      "stateMutability": "nonpayable",
      "type": "function"
    },
    {
      "inputs": [],
      "name": "requestActivation",
      "outputs": [
        {
          "internalType": "bool",
          "name": "",
          "type": "bool"
        }
      ],
      "stateMutability": "nonpayable",
      "type": "function"
    },
    {
      "inputs": [],
      "name": "requestInactivation",
      "outputs": [
        {
          "internalType": "bool",
          "name": "",
          "type": "bool"
        }
      ],
      "stateMutability": "nonpayable",
      "type": "function"
    },
    {
      "inputs": [
        {
          "internalType": "bytes",
          "name": "_candidateLockingScript",
          "type": "bytes"
        },
        {
          "internalType": "uint256",
          "name": "_lockedTSTAmount",
          "type": "uint256"
        },
        {
          "internalType": "uint256",
          "name": "_lockedNativeTokenAmount",
          "type": "uint256"
        },
        {
          "internalType": "enum ScriptTypes",
          "name": "_lockerRescueType",
          "type": "uint8"
        },
        {
          "internalType": "bytes",
          "name": "_lockerRescueScript",
          "type": "bytes"
        }
      ],
      "name": "requestToBecomeLocker",
      "outputs": [
        {
          "internalType": "bool",
          "name": "",
          "type": "bool"
        }
      ],
      "stateMutability": "payable",
      "type": "function"
    },
    {
      "inputs": [],
      "name": "revokeRequest",
      "outputs": [
        {
          "internalType": "bool",
          "name": "",
          "type": "bool"
        }
      ],
      "stateMutability": "nonpayable",
      "type": "function"
    },
    {
      "inputs": [],
      "name": "selfRemoveLocker",
      "outputs": [
        {
          "internalType": "bool",
          "name": "",
          "type": "bool"
        }
      ],
      "stateMutability": "nonpayable",
      "type": "function"
    },
    {
      "inputs": [
        {
          "internalType": "address",
          "name": "_ccBurnRouter",
          "type": "address"
        }
      ],
      "name": "setCCBurnRouter",
      "outputs": [],
      "stateMutability": "nonpayable",
      "type": "function"
    },
    {
      "inputs": [
        {
          "internalType": "uint256",
          "name": "_collateralRatio",
          "type": "uint256"
        }
      ],
      "name": "setCollateralRatio",
      "outputs": [],
      "stateMutability": "nonpayable",
      "type": "function"
    },
    {
      "inputs": [
        {
          "internalType": "uint256",
          "name": "_liquidationRatio",
          "type": "uint256"
        }
      ],
      "name": "setLiquidationRatio",
      "outputs": [],
      "stateMutability": "nonpayable",
      "type": "function"
    },
    {
      "inputs": [
        {
          "internalType": "uint256",
          "name": "_lockerPercentageFee",
          "type": "uint256"
        }
      ],
      "name": "setLockerPercentageFee",
      "outputs": [],
      "stateMutability": "nonpayable",
      "type": "function"
    },
    {
      "inputs": [
        {
          "internalType": "uint256",
          "name": "_minRequiredTDTLockedAmount",
          "type": "uint256"
        }
      ],
      "name": "setMinRequiredTDTLockedAmount",
      "outputs": [],
      "stateMutability": "nonpayable",
      "type": "function"
    },
    {
      "inputs": [
        {
          "internalType": "uint256",
          "name": "_minRequiredTNTLockedAmount",
          "type": "uint256"
        }
      ],
      "name": "setMinRequiredTNTLockedAmount",
      "outputs": [],
      "stateMutability": "nonpayable",
      "type": "function"
    },
    {
      "inputs": [
        {
          "internalType": "address",
          "name": "_priceOracle",
          "type": "address"
        }
      ],
      "name": "setPriceOracle",
      "outputs": [],
      "stateMutability": "nonpayable",
      "type": "function"
    },
    {
      "inputs": [
        {
          "internalType": "uint256",
          "name": "_priceWithDiscountRatio",
          "type": "uint256"
        }
      ],
      "name": "setPriceWithDiscountRatio",
      "outputs": [],
      "stateMutability": "nonpayable",
      "type": "function"
    },
    {
      "inputs": [
        {
          "internalType": "address",
          "name": "_TST",
          "type": "address"
        }
      ],
      "name": "setTST",
      "outputs": [],
      "stateMutability": "nonpayable",
      "type": "function"
    },
    {
      "inputs": [
        {
          "internalType": "address",
          "name": "_teleBTC",
          "type": "address"
        }
      ],
      "name": "setTeleBTC",
      "outputs": [],
      "stateMutability": "nonpayable",
      "type": "function"
    },
    {
      "inputs": [
        {
          "internalType": "address",
          "name": "_lockerTargetAddress",
          "type": "address"
        },
        {
          "internalType": "uint256",
          "name": "_rewardAmount",
          "type": "uint256"
        },
        {
          "internalType": "address",
          "name": "_slasher",
          "type": "address"
        },
        {
          "internalType": "uint256",
          "name": "_amount",
          "type": "uint256"
        },
        {
          "internalType": "address",
          "name": "_recipient",
          "type": "address"
        }
      ],
      "name": "slashIdleLocker",
      "outputs": [
        {
          "internalType": "bool",
          "name": "",
          "type": "bool"
        }
      ],
      "stateMutability": "nonpayable",
      "type": "function"
    },
    {
      "inputs": [
        {
          "internalType": "address",
          "name": "_lockerTargetAddress",
          "type": "address"
        },
        {
          "internalType": "uint256",
          "name": "_rewardAmount",
          "type": "uint256"
        },
        {
          "internalType": "address",
          "name": "_slasher",
          "type": "address"
        },
        {
          "internalType": "uint256",
          "name": "_amount",
          "type": "uint256"
        }
      ],
      "name": "slashThiefLocker",
      "outputs": [
        {
          "internalType": "bool",
          "name": "",
          "type": "bool"
        }
      ],
      "stateMutability": "nonpayable",
      "type": "function"
    },
    {
      "inputs": [],
      "name": "teleBTC",
      "outputs": [
        {
          "internalType": "address",
          "name": "",
          "type": "address"
        }
      ],
      "stateMutability": "view",
      "type": "function"
    },
    {
      "inputs": [],
      "name": "totalNumberOfCandidates",
      "outputs": [
        {
          "internalType": "uint256",
          "name": "",
          "type": "uint256"
        }
      ],
      "stateMutability": "view",
      "type": "function"
    },
    {
      "inputs": [],
      "name": "totalNumberOfLockers",
      "outputs": [
        {
          "internalType": "uint256",
          "name": "",
          "type": "uint256"
        }
      ],
      "stateMutability": "view",
      "type": "function"
    },
    {
      "inputs": [
        {
          "internalType": "address",
          "name": "newOwner",
          "type": "address"
        }
      ],
      "name": "transferOwnership",
      "outputs": [],
      "stateMutability": "nonpayable",
      "type": "function"
    },
    {
      "inputs": [],
      "name": "unPauseLocker",
      "outputs": [],
      "stateMutability": "nonpayable",
      "type": "function"
    }
  ],
  "transactionHash": "0x5849ca0a1953692f8c94fbb57f83aeb159ab4296bc73510408fee90a93f8dbac",
  "args": [],
  "numDeployments": 1,
  "solcInputHash": "4684732f8e375e49b7a339ed437f3ebb",
  "bytecode": "0x608060405234801561001057600080fd5b5061566880620000216000396000f3fe6080604052600436106103455760003560e01c80637f0f1817116101b3578063bb4a2509116100f3578063bb4a25091461096e578063bc805d1d1461098e578063bd60e794146109a4578063c0924b8014610a69578063c4d10b6a14610a89578063cdcbc87914610aa9578063d5a38a9114610b13578063dd0081c7146105c2578063e85501d814610b33578063e955de4514610b48578063ed110a9c14610b5d578063ee1f1c7014610b73578063ef69a7bc14610b93578063f2fde38b14610ba8578063f44637ba14610bc8578063f46eccc414610be8578063f73e3a9514610c18578063ffc9f70414610c3857600080fd5b80637f0f18171461077857806388aa0a52146107985780638d3d78cd146107ae5780638da5cb5b146107ce5780638fe85fe7146107e3578063946ce8cd1461080357806396ec39e814610823578063983b2d56146108435780639bf0988214610863578063a839db2414610883578063af1ea795146108a3578063aff2faa3146108da578063b1016bdf146108fa578063b291ec131461090d578063b430225814610923578063b4eae1cb14610938578063b734de261461094e57600080fd5b806345cc58901161028957806345cc589014610582578063530e784f146105a257806354509b97146105c257806359bb9189146105d85780635a8d80b8146105ed5780635c975abb1461060d5780635d6464ba146106255780636060663e146106525780636136c21f14610672578063613e2e1e1461069f57806363908020146106b45780636600203d146106ca5780636a030fc3146106ea5780636d32395c1461070a5780636d75b9ee14610720578063715018a614610733578063768ebb12146105c25780637da5f0da1461074857600080fd5b8063028468581461034a57806303d41e0e1461036c5780630c42cbc9146103b1578063108f438d146103d45780631697565b146104015780631775765f146104215780631fcfe19c146104375780632630c12f14610457578063264db4ae146104775780632f5b04ac1461048c5780633092afd5146104a357806331f7d964146104c35780633237c158146104d857806338463cff146104eb57806341f3ec111461050b57806341fae5791461054c57806343b9370714610562575b600080fd5b34801561035657600080fd5b5061036a610365366004614893565b610c4d565b005b34801561037857600080fd5b5061039c610387366004614893565b60126020526000908152604090205460ff1681565b60405190151581526020015b60405180910390f35b3480156103bd57600080fd5b506103c6601281565b6040519081526020016103a8565b3480156103e057600080fd5b506000546103f4906001600160a01b031681565b6040516103a89190614f1f565b34801561040d57600080fd5b5061039c61041c366004614993565b610d08565b34801561042d57600080fd5b506103c660095481565b34801561044357600080fd5b506103c6610452366004614a48565b610f26565b34801561046357600080fd5b506004546103f4906001600160a01b031681565b34801561048357600080fd5b506103c66112e4565b34801561049857600080fd5b506103c66205460081565b3480156104af57600080fd5b5061036a6104be366004614893565b611377565b3480156104cf57600080fd5b506103f4600181565b61039c6104e6366004614c2a565b611429565b3480156104f757600080fd5b506103c6610506366004614aa1565b611665565b34801561051757600080fd5b506103f4610526366004614b81565b80516020818301810180516010825292820191909301209152546001600160a01b031681565b34801561055857600080fd5b506103c660055481565b34801561056e57600080fd5b5061039c61057d366004614927565b611a96565b34801561058e57600080fd5b5061039c61059d366004614893565b611ce7565b3480156105ae57600080fd5b5061036a6105bd366004614893565b611e8e565b3480156105ce57600080fd5b506103c661271081565b3480156105e457600080fd5b5061039c611f32565b3480156105f957600080fd5b506002546103f4906001600160a01b031681565b34801561061957600080fd5b5060bc5460ff1661039c565b34801561063157600080fd5b50610645610640366004614893565b61205b565b6040516103a89190614fb1565b34801561065e57600080fd5b5061036a61066d366004614c2a565b61212e565b34801561067e57600080fd5b506103c661068d366004614893565b600e6020526000908152604090205481565b3480156106ab57600080fd5b5061036a61219d565b3480156106c057600080fd5b506103c660075481565b3480156106d657600080fd5b5061036a6106e5366004614c2a565b6121af565b3480156106f657600080fd5b5061039c610705366004614893565b61224d565b34801561071657600080fd5b506103c660065481565b61039c61072e366004614927565b6122cf565b34801561073f57600080fd5b5061036a6123c6565b34801561075457600080fd5b5061039c610763366004614893565b600f6020526000908152604090205460ff1681565b34801561078457600080fd5b5061036a610793366004614893565b6123ce565b3480156107a457600080fd5b506103c6600b5481565b3480156107ba57600080fd5b506001546103f4906001600160a01b031681565b3480156107da57600080fd5b506103f4612472565b3480156107ef57600080fd5b5061036a6107fe366004614c2a565b612481565b34801561080f57600080fd5b5061036a61081e366004614c2a565b61251b565b34801561082f57600080fd5b5061039c61083e366004614927565b61258a565b34801561084f57600080fd5b5061036a61085e366004614893565b612a85565b34801561086f57600080fd5b5061036a61087e366004614c2a565b612b3b565b34801561088f57600080fd5b5061036a61089e366004614c2a565b612b89565b3480156108af57600080fd5b506108c36108be366004614893565b612bf7565b6040516103a89b9a99989796959493929190614fc4565b3480156108e657600080fd5b5061039c6108f5366004614a09565b612d6f565b61039c610908366004614aea565b612dbd565b34801561091957600080fd5b506103c6600a5481565b34801561092f57600080fd5b5061039c612f10565b34801561094457600080fd5b506103c660085481565b34801561095a57600080fd5b5061039c610969366004614950565b612fbe565b34801561097a57600080fd5b5061036a6109893660046148ad565b613157565b34801561099a57600080fd5b506103c66130d481565b3480156109b057600080fd5b50601954601a54601b54601c54601d54601e54601f546020546021546022546023546024546109f99b6001600160a01b039081169b81169a81169981169816969594939291908c565b604080516001600160a01b039d8e1681529b8d1660208d0152998c16998b0199909952968a1660608a015298909416608088015260a087019290925260c086015260e0850152610100840152610120830193909352610140820192909252610160810191909152610180016103a8565b348015610a7557600080fd5b506003546103f4906001600160a01b031681565b348015610a9557600080fd5b506103f4610aa4366004614a09565b613300565b348015610ab557600080fd5b50601354601454601554601654601754601854610add9594939291906001600160a01b031686565b60408051968752602087019590955293850192909252606084015260808301526001600160a01b031660a082015260c0016103a8565b348015610b1f57600080fd5b506103c6610b2e366004614893565b613335565b348015610b3f57600080fd5b5061039c61347e565b348015610b5457600080fd5b5061036a6137e3565b348015610b6957600080fd5b506103c6600c5481565b348015610b7f57600080fd5b5061036a610b8e366004614893565b6137f3565b348015610b9f57600080fd5b50600c546103c6565b348015610bb457600080fd5b5061036a610bc3366004614893565b613939565b348015610bd457600080fd5b5061036a610be3366004614893565b6139b2565b348015610bf457600080fd5b5061039c610c03366004614893565b60116020526000908152604090205460ff1681565b348015610c2457600080fd5b5061036a610c33366004614893565b613a68565b348015610c4457600080fd5b5061039c613b0c565b806001600160a01b038116610c755760405163d92e233d60e01b815260040160405180910390fd5b610c7d613f09565b6001600160a01b03821660009081526012602052604090205460ff16610cbe5760405162461bcd60e51b8152600401610cb590615155565b60405180910390fd5b6001600160a01b038216600081815260126020526040808220805460ff19169055517f90eabbc0c667db2a5029ed6bc0f5fe9f356d11684a4ca9fcfaec0e53f12b9c8e9190a25050565b6000610d12613f68565b610d1a613fc2565b6002546001600160a01b0316336001600160a01b031614610d4d5760405162461bcd60e51b8152600401610cb590615198565b6001600160a01b0386166000908152600d602052604080822090516343196d1d60e01b815273e73289415e355abf9bd43f35b2034c6d6377198d916343196d1d91610da591906013906019908c908b90600401615367565b60206040518083038186803b158015610dbd57600080fd5b505af4158015610dd1573d6000803e3d6000fd5b505050506040513d601f19601f82011682018060405250810190610df59190614c42565b90506001600160a01b0383166108fc610e0e8887615440565b610e188785615563565b610e229190615458565b6040518115909202916000818181858888f19350505050158015610e4a573d6000803e3d6000fd5b506000610e578786615440565b610e618684615563565b610e6b9190615458565b610e759083615582565b6040519091506001600160a01b0387169082156108fc029083906000818181858888f19350505050158015610eae573d6000803e3d6000fd5b50836001600160a01b0316866001600160a01b0316896001600160a01b03167fab522c1322c34ea455e8f541ecfe1b73a29039f3658bff658cf12c9fd26dc016848987426001604051610f0595949392919061541b565b60405180910390a4600192505050610f1d6001608a55565b95945050505050565b6000826001600160a01b038116610f505760405163d92e233d60e01b815260040160405180910390fd5b8280610f6f57604051637c946ed760e01b815260040160405180910390fd5b610f77613f68565b610f7f613fc2565b3360009081526011602052604090205460ff16610fde5760405162461bcd60e51b815260206004820152601e60248201527f4c6f636b6572733a206f6e6c79206d696e746572732063616e206d696e7400006044820152606401610cb5565b600060108888604051610ff2929190614e84565b908152604051908190036020019020546001600160a01b03169050806110555760405162461bcd60e51b81526020600482015260186024820152774c6f636b6572733a2061646472657373206973207a65726f60401b6044820152606401610cb5565b8461105f82613335565b10156110ad5760405162461bcd60e51b815260206004820152601e60248201527f4c6f636b6572733a20696e73756666696369656e7420636170616369747900006044820152606401610cb5565b6110b68161224d565b6110f85760405162461bcd60e51b81526020600482015260136024820152724c6f636b6572733a206e6f742061637469766560681b6044820152606401610cb5565b6001600160a01b0381166000908152600d602052604090206005015461111f908690615440565b6001600160a01b0382166000908152600d60205260408120600501919091556007546127109061114f9088615563565b6111599190615458565b905080156111e7576001546040516340c10f1960e01b81526001600160a01b03909116906340c10f19906111939085908590600401614f71565b602060405180830381600087803b1580156111ad57600080fd5b505af11580156111c1573d6000803e3d6000fd5b505050506040513d601f19601f820116820180604052508101906111e591906149e9565b505b6001546001600160a01b03166340c10f1988611203848a615582565b6040518363ffffffff1660e01b8152600401611220929190614f71565b602060405180830381600087803b15801561123a57600080fd5b505af115801561124e573d6000803e3d6000fd5b505050506040513d601f19601f8201168201806040525081019061127291906149e9565b50866001600160a01b0316826001600160a01b03167f8ad706b338c5d2a20b0d038b5cfdaf2b2f943f43048723bde0dccdf129598a118884426040516112ba93929190615405565b60405180910390a36112cc8187615582565b945050506112da6001608a55565b5050949350505050565b60405163167e7c5760e01b815260009073e73289415e355abf9bd43f35b2034c6d6377198d9063167e7c57906113229060139060199060040161539e565b60206040518083038186803b15801561133a57600080fd5b505af415801561134e573d6000803e3d6000fd5b505050506040513d601f19601f820116820180604052508101906113729190614c42565b905090565b806001600160a01b03811661139f5760405163d92e233d60e01b815260040160405180910390fd5b6113a7613f09565b6001600160a01b03821660009081526011602052604090205460ff166113df5760405162461bcd60e51b8152600401610cb590615155565b6001600160a01b038216600081815260116020526040808220805460ff19169055517fe94479a9f7e1952cc78f2d6baab678adc1b772d936c6583def489e524cb666929190a25050565b6000611433613f68565b336000908152600d602052604090206008015460ff166114655760405162461bcd60e51b8152600401610cb590615129565b61146e3361224d565b1561148b5760405162461bcd60e51b8152600401610cb59061521e565b60405163167e7c5760e01b815260009073e73289415e355abf9bd43f35b2034c6d6377198d9063167e7c57906114c99060139060199060040161539e565b60206040518083038186803b1580156114e157600080fd5b505af41580156114f5573d6000803e3d6000fd5b505050506040513d601f19601f820116820180604052508101906115199190614c42565b336000908152600d6020908152604091829020825160c08082018552601354825260145482850152601554828601526016546060808401919091526017546080808501919091526018546001600160a01b0390811660a080870191909152885161018081018a5260195483168152601a548316818a0152601b54831699810199909952601c54821693890193909352601d541690870152601e5490860152601f5490850152915460e08401526021546101008401526022546101208401526023546101408401526024546101608401529293506115f89291848761400f565b61160233846141d9565b336000818152600d6020526040908190206004015490517f93ae1c71197ee1bd2ad44b7d57e7b34ca946aeb88fdb4fc4a45211dbeb2c3cc791611649918791904290615405565b60405180910390a260019150506116606001608a55565b919050565b6000818061168657604051637c946ed760e01b815260040160405180910390fd5b61168e613f68565b611696613fc2565b3360009081526012602052604090205460ff166116f55760405162461bcd60e51b815260206004820152601e60248201527f4c6f636b6572733a206f6e6c79206275726e6572732063616e206275726e00006044820152606401610cb5565b600060108686604051611709929190614e84565b908152604051908190036020019020546001546001600160a01b039182169250166323b872dd6117363390565b30876040518463ffffffff1660e01b815260040161175693929190614f4d565b602060405180830381600087803b15801561177057600080fd5b505af1158015611784573d6000803e3d6000fd5b505050506040513d601f19601f820116820180604052508101906117a891906149e9565b6117f35760405162461bcd60e51b815260206004820152601c60248201527b131bd8dad95c9cce881d1c985b9cd9995c919c9bdb4819985a5b195960221b6044820152606401610cb5565b6000612710600754866118069190615563565b6118109190615458565b9050600061181e8287615582565b6001600160a01b0384166000908152600d60205260409020600501549091508181101561188b5760405162461bcd60e51b815260206004820152601b60248201527a4c6f636b6572733a20696e73756666696369656e742066756e647360281b6044820152606401610cb5565b6118958282615582565b6001600160a01b038581166000908152600d602052604090819020600501929092556001549151630852cd8d60e31b8152600481018590529116906342966c6890602401602060405180830381600087803b1580156118f357600080fd5b505af1158015611907573d6000803e3d6000fd5b505050506040513d601f19601f8201168201806040525081019061192b91906149e9565b61196e5760405162461bcd60e51b8152602060048201526014602482015273131bd8dad95c9cce88189d5c9b8819985a5b195960621b6044820152606401610cb5565b60015460405163a9059cbb60e01b81526001600160a01b039091169063a9059cbb906119a09087908790600401614f71565b602060405180830381600087803b1580156119ba57600080fd5b505af11580156119ce573d6000803e3d6000fd5b505050506040513d601f19601f820116820180604052508101906119f291906149e9565b611a3a5760405162461bcd60e51b8152602060048201526019602482015278131bd8dad95c9cce881b1bd8dad95c9199594819985a5b1959603a1b6044820152606401610cb5565b836001600160a01b03167f66fb54322c407b04a077a306e72cdd780f0f374ba5dac9f6901a56a6255bc34a888542604051611a7793929190615405565b60405180910390a25093505050611a8e6001608a55565b509392505050565b6000826001600160a01b038116611ac05760405163d92e233d60e01b815260040160405180910390fd5b611ac8613f68565b611ad0613fc2565b6001600160a01b0384166000908152600d602052604080822090516201412760e01b815260048101919091526024810185905273e73289415e355abf9bd43f35b2034c6d6377198d90620141279060440160206040518083038186803b158015611b3957600080fd5b505af4158015611b4d573d6000803e3d6000fd5b505050506040513d601f19601f82011682018060405250810190611b719190614c42565b6001546040516323b872dd60e01b81529192506001600160a01b0316906323b872dd90611ba690339030908690600401614f4d565b602060405180830381600087803b158015611bc057600080fd5b505af1158015611bd4573d6000803e3d6000fd5b505050506040513d601f19601f82011682018060405250810190611bf891906149e9565b50600154604051630852cd8d60e31b8152600481018390526001600160a01b03909116906342966c6890602401602060405180830381600087803b158015611c3f57600080fd5b505af1158015611c53573d6000803e3d6000fd5b505050506040513d601f19601f82011682018060405250810190611c7791906149e9565b50611c8233856141d9565b336001600160a01b0316856001600160a01b03167fd03400b15a5f4cddbc57f0e81bca31db33e4d1ed1390211eade3518bce70562e868442604051611cc993929190615405565b60405180910390a36001925050611ce06001608a55565b5092915050565b6000816001600160a01b038116611d115760405163d92e233d60e01b815260040160405180910390fd5b611d19613f68565b611d21613f09565b6001600160a01b0383166000908152600d6020526040902060080154610100900460ff16611d875760405162461bcd60e51b8152602060048201526013602482015272131bd8dad95c9cce881b9bc81c995c5d595cdd606a1b6044820152606401610cb5565b6001600160a01b0383166000908152600d60205260409020600801805461ffff19166001908117909155600b54611dbe9190615582565b600b55600c54611dcf906001615440565b600c556001600160a01b0383166000908152600d60205260409081902090518491601091611dfd9190614eb0565b908152604080516020928190038301812080546001600160a01b0319166001600160a01b039586161790559286166000818152600d90935291206003810154600482015492937f3840128cd2c146a0ea7739b8440e824c6d2d498ae32274812561d689d751e75e93611e72939291429061507b565b60405180910390a260019150611e886001608a55565b50919050565b806001600160a01b038116611eb65760405163d92e233d60e01b815260040160405180910390fd5b611ebe613f09565b6004546040517fd52b2b9b7e9ee655fcb95d2e5b9e0c9f69e7ef2b8e9d2d0ea78402d576d22e2291611efd916001600160a01b03909116908590614f33565b60405180910390a150600480546001600160a01b039092166001600160a01b03199283168117909155601d8054909216179055565b6000611f3c613f68565b336000908152600d602052604090206008015460ff16611f6e5760405162461bcd60e51b8152600401610cb59061524d565b336000908152600e602052604090205415611fd95760405162461bcd60e51b815260206004820152602560248201527f4c6f636b6572733a206c6f636b65722068617320616c72656164792072657175604482015264195cdd195960da1b6064820152608401610cb5565b611fe66205460042615440565b336000818152600e60209081526040808320859055600d9091529081902060038101546004820154600583015493517f59e9b7bdd325b1dd9fe5b91f457f74d4b3d58263580ae84d6be1f451bbc2851f946120439493929161507b565b60405180910390a35060016120586001608a55565b90565b6060816001600160a01b0381166120855760405163d92e233d60e01b815260040160405180910390fd5b6001600160a01b0383166000908152600d6020526040902080546120a8906155d1565b80601f01602080910402602001604051908101604052809291908181526020018280546120d4906155d1565b80156121215780601f106120f657610100808354040283529160200191612121565b820191906000526020600020905b81548152906001019060200180831161210457829003601f168201915b5050505050915050919050565b612136613f09565b60095481116121575760405162461bcd60e51b8152600401610cb5906152e4565b60085460408051918252602082018390527f1e29d1b5c8926360f3ac632d884775772b07f31fec4077d433e58ce823f91347910160405180910390a16008819055602155565b6121a5613f09565b6121ad6142f4565b565b6121b7613f09565b6127108111156122075760405162461bcd60e51b815260206004820152601b60248201527a4c6f636b6572733a20696e76616c6964206c6f636b65722066656560281b6044820152606401610cb5565b60075460408051918252602082018390527f44c6802691f6adea249930369a511db979a5e9a3603bdb37ceee1036da80e980910160405180910390a16007819055602055565b6000816001600160a01b0381166122775760405163d92e233d60e01b815260040160405180910390fd5b6001600160a01b0383166000908152600e602052604090205461229d5760019150611e88565b6001600160a01b0383166000908152600e60205260409020544210156122c65760019150611e88565b60009150611e88565b60006122d9613f68565b6001600160a01b0383166000908152600d6020526040908190209051635ff753e960e11b815273e73289415e355abf9bd43f35b2034c6d6377198d9163bfeea7d29161232b9134918790600401615405565b60006040518083038186803b15801561234357600080fd5b505af4158015612357573d6000803e3d6000fd5b505050506001600160a01b0383166000818152600d6020526040908190206004015490517f2d2b4797badefe26cd5674f9bc2b8f5ed98e2a663e1a977af971254cfefd15ad916123ab918691904290615405565b60405180910390a25060016123c06001608a55565b92915050565b6121ad613f09565b806001600160a01b0381166123f65760405163d92e233d60e01b815260040160405180910390fd5b6123fe613f09565b6001546040517f36a4c08a38b736dcecb6c328dba61238529620e83ccb23db2cc43cd34ec260969161243d916001600160a01b03909116908590614f33565b60405180910390a150600180546001600160a01b039092166001600160a01b03199283168117909155601a8054909216179055565b6058546001600160a01b031690565b612489613f09565b6127108111156124d55760405162461bcd60e51b81526020600482015260176024820152764c6f636b6572733a206c657373207468616e203130302560481b6044820152606401610cb5565b600a5460408051918252602082018390527f5e4dd01049cdfe5a081b404bff8e27de919fd9c8ae2145007e0921ec227f207a910160405180910390a1600a819055602355565b612523613f09565b80600854116125445760405162461bcd60e51b8152600401610cb5906152e4565b60095460408051918252602082018390527f883242c2a857ca527a432dfca231b1e49233fde2a96802809a0f3866e9f19e13910160405180910390a16009819055602255565b6000826001600160a01b0381166125b45760405163d92e233d60e01b815260040160405180910390fd5b82806125d357604051637c946ed760e01b815260040160405180910390fd5b6125db613f68565b6125e3613fc2565b6001600160a01b0385166000908152600d602052604080822090516318ae332560e31b815273e73289415e355abf9bd43f35b2034c6d6377198d9163c57199289161263991906013906019908b90600401615335565b60206040518083038186803b15801561265157600080fd5b505af4158015612665573d6000803e3d6000fd5b505050506040513d601f19601f820116820180604052508101906126899190614c42565b90506000600d6000886001600160a01b03166001600160a01b03168152602001908152602001600020604051806101600160405290816000820180546126ce906155d1565b80601f01602080910402602001604051908101604052809291908181526020018280546126fa906155d1565b80156127475780601f1061271c57610100808354040283529160200191612747565b820191906000526020600020905b81548152906001019060200180831161272a57829003601f168201915b5050509183525050600182015460209091019060ff16600581111561277c57634e487b7160e01b600052602160045260246000fd5b600581111561279b57634e487b7160e01b600052602160045260246000fd5b81526020016002820180546127af906155d1565b80601f01602080910402602001604051908101604052809291908181526020018280546127db906155d1565b80156128285780601f106127fd57610100808354040283529160200191612828565b820191906000526020600020905b81548152906001019060200180831161280b57829003601f168201915b505050918352505060038201546020808301919091526004808401546040808501919091526005850154606085015260068501546080850152600785015460a085015260089094015460ff808216151560c08601526101008083048216151560e0870152620100009092041615159301929092526001600160a01b038b166000908152600d9091529190912001549091506128c4908790615582565b6001600160a01b038089166000908152600d60205260409020600401919091556001546128f49116333085614340565b60015460025460405163095ea7b360e01b81526001600160a01b039283169263095ea7b39261292a929116908690600401614f71565b602060405180830381600087803b15801561294457600080fd5b505af1158015612958573d6000803e3d6000fd5b505050506040513d601f19601f8201168201806040525081019061297c91906149e9565b50600254604080830151602084015184519251633fea436760e01b81526001600160a01b0390941693633fea4367936129c193889390929091906000906004016153ba565b602060405180830381600087803b1580156129db57600080fd5b505af11580156129ef573d6000803e3d6000fd5b505050506040513d601f19601f82011682018060405250810190612a139190614c42565b50612a1e33876141d9565b336001600160a01b0316876001600160a01b03167fd63782183ccef603c2adba105774db58e1701ea5e7b3e23eded1b5e967a3654c888542604051612a6593929190615405565b60405180910390a3600194505050612a7d6001608a55565b505092915050565b806001600160a01b038116612aad5760405163d92e233d60e01b815260040160405180910390fd5b612ab5613f09565b6001600160a01b03821660009081526011602052604090205460ff1615612aee5760405162461bcd60e51b8152600401610cb5906151dd565b6001600160a01b038216600081815260116020526040808220805460ff19166001179055517f6ae172837ea30b801fbfcdd4108aa1d5bf8ff775444fd70256b44e6bf3dfc3f69190a25050565b612b43613f09565b60055460408051918252602082018390527f65fb7af72786d428e2b4e9d3d2bd45fdd354f582ccccad2044967440b98e6d7b910160405180910390a16005819055601e55565b8080612ba857604051637c946ed760e01b815260040160405180910390fd5b612bb0613f09565b60065460408051918252602082018490527f063267aa94de35dcf03acb07931ff2a6eae1ac1ee0be20797c9a6d3b52abf47b910160405180910390a1506006819055601f55565b600d60205260009081526040902080548190612c12906155d1565b80601f0160208091040260200160405190810160405280929190818152602001828054612c3e906155d1565b8015612c8b5780601f10612c6057610100808354040283529160200191612c8b565b820191906000526020600020905b815481529060010190602001808311612c6e57829003601f168201915b5050506001840154600285018054949560ff909216949193509150612caf906155d1565b80601f0160208091040260200160405190810160405280929190818152602001828054612cdb906155d1565b8015612d285780601f10612cfd57610100808354040283529160200191612d28565b820191906000526020600020905b815481529060010190602001808311612d0b57829003601f168201915b5050506003840154600485015460058601546006870154600788015460089098015496979396929550909350919060ff80821691610100810482169162010000909104168b565b6000600d600060108585604051612d87929190614e84565b9081526040805160209281900383019020546001600160a01b0316835290820192909252016000206008015460ff169392505050565b6000612dc7613f68565b73e73289415e355abf9bd43f35b2034c6d6377198d634f02c5a4600d601960108c8c604051612df7929190614e84565b908152602001604051809103902060009054906101000a90046001600160a01b03168a8a8e8e8c8c8c6040518b63ffffffff1660e01b8152600401612e459a999897969594939291906150aa565b60006040518083038186803b158015612e5d57600080fd5b505af4158015612e71573d6000803e3d6000fd5b50506019546001600160a01b0316159150612ea0905057612ea0336019546001600160a01b0316903089614340565b600b54612eae906001615440565b600b55336001600160a01b03167fe5f7957016a87f9d7bacdd371a516d7f2c5667aa5676c7e07cc8c0bbc6e5067b89898989604051612ef09493929190614f8a565b60405180910390a2506001612f056001608a55565b979650505050505050565b6000612f1a613f68565b336000908152600d602052604090206008015460ff16612f4c5760405162461bcd60e51b8152600401610cb59061524d565b336000818152600e60209081526040808320839055600d9091529081902060038101546004820154600583015493517ff5c2a2ca5d59b6903bcb66377907e2c66983741a553bae891c485953b2a1f96f94612fa99493929161507b565b60405180910390a25060016120586001608a55565b6000612fc8613f68565b612fd0613fc2565b6002546001600160a01b0316336001600160a01b0316146130035760405162461bcd60e51b8152600401610cb590615198565b6001600160a01b0385166000908152600d60205260408082209051630b6f92b160e31b8152829173e73289415e355abf9bd43f35b2034c6d6377198d91635b7c95889161305c916013906019908c908b90600401615367565b604080518083038186803b15801561307357600080fd5b505af4158015613087573d6000803e3d6000fd5b505050506040513d601f19601f820116820180604052508101906130ab9190614c5a565b60405191935091506001600160a01b0386169083156108fc029084906000818181858888f193505050501580156130e6573d6000803e3d6000fd5b50306001600160a01b038681169089167fab522c1322c34ea455e8f541ecfe1b73a29039f3658bff658cf12c9fd26dc01685886131238288615440565b42600060405161313795949392919061541b565b60405180910390a460019250505061314f6001608a55565b949350505050565b602554610100900460ff16158080156131775750602554600160ff909116105b806131915750303b158015613191575060255460ff166001145b6131f45760405162461bcd60e51b815260206004820152602e60248201527f496e697469616c697a61626c653a20636f6e747261637420697320616c72656160448201526d191e481a5b9a5d1a585b1a5e995960921b6064820152608401610cb5565b6025805460ff191660011790558015613217576025805461ff0019166101001790555b61321f61439e565b6132276143cd565b61322f6143fc565b6132388a6123ce565b613241886137f3565b61324a89611e8e565b61325387612b3b565b61325c86612b89565b6132658561212e565b61326e8461251b565b613277836121af565b61328082612481565b612710601381905560148190556130d46015556016556012601755601880546001600160a01b031916600117905580156132f4576025805461ff0019169055604051600181527f7f26b83ff96e1f2b6a682f133852f6798a09c465da95921460cefb38474024989060200160405180910390a15b50505050505050505050565b600060108383604051613314929190614e84565b908152604051908190036020019020546001600160a01b0316905092915050565b6000816001600160a01b03811661335f5760405163d92e233d60e01b815260040160405180910390fd5b6008546001600160a01b0384166000908152600d60205260408082209051632974c8ab60e21b81529192916127109173e73289415e355abf9bd43f35b2034c6d6377198d9163a5d322ac916133bc91601390601990600401615313565b60206040518083038186803b1580156133d457600080fd5b505af41580156133e8573d6000803e3d6000fd5b505050506040513d601f19601f8201168201806040525081019061340c9190614c42565b6134169190615563565b6134209190615458565b6001600160a01b0385166000908152600d6020526040902060050154909150811115613474576001600160a01b0384166000908152600d602052604090206005015461346c9082615582565b925050611e88565b6000925050611e88565b6000613488613f68565b336000908152600d6020526040902060080154610100900460ff166134e15760405162461bcd60e51b815260206004820152600f60248201526e4c6f636b6572733a206e6f2072657160881b6044820152606401610cb5565b336000908152600d60205260408082208151610160810190925280548290829061350a906155d1565b80601f0160208091040260200160405190810160405280929190818152602001828054613536906155d1565b80156135835780601f1061355857610100808354040283529160200191613583565b820191906000526020600020905b81548152906001019060200180831161356657829003601f168201915b5050509183525050600182015460209091019060ff1660058111156135b857634e487b7160e01b600052602160045260246000fd5b60058111156135d757634e487b7160e01b600052602160045260246000fd5b81526020016002820180546135eb906155d1565b80601f0160208091040260200160405190810160405280929190818152602001828054613617906155d1565b80156136645780601f1061363957610100808354040283529160200191613664565b820191906000526020600020905b81548152906001019060200180831161364757829003601f168201915b505050918352505060038201546020820152600482015460408201526005820154606082015260068201546080820152600782015460a082015260089091015460ff808216151560c08401526101008083048216151560e0850152620100009092041615159101529050600d6000336001600160a01b0316815260208101919091526040016000908120906136f982826147e8565b60018201805460ff191690556137136002830160006147e8565b506000600382018190556004820181905560058201819055600682018190556007820155600801805462ffffff19169055600b5461375390600190615582565b600b55613773335b60608301516000546001600160a01b0316919061442b565b613782335b82608001516141d9565b336000818152600d6020526040908190206003810154600482015492517f10f84ef0773ba7ade3714f4e500ca17436e6df2b0feb99c754c04f889290cbd4936137cc939291615068565b60405180910390a260019150506120586001608a55565b6137eb613f09565b6121ad61444a565b806001600160a01b03811661381b5760405163d92e233d60e01b815260040160405180910390fd5b613823613f09565b6002546040517fd86d51326f3c88ea5365fba597a57273ae555e44f4b11658da952320d0beaa7591613862916001600160a01b03909116908590614f33565b60405180910390a16002546040516001600160a01b03909116907f90eabbc0c667db2a5029ed6bc0f5fe9f356d11684a4ca9fcfaec0e53f12b9c8e90600090a2600280546001600160a01b03908116600090815260126020526040808220805460ff1916905583549286166001600160a01b03199384168117909455601b8054909316841790925590517f86e57fd2b90329052917118de7c3f521f400d439b9650deaa906a25b08b945609190a250506002546001600160a01b03166000908152601260205260409020805460ff19166001179055565b613941613f09565b6001600160a01b0381166139a65760405162461bcd60e51b815260206004820152602660248201527f4f776e61626c653a206e6577206f776e657220697320746865207a65726f206160448201526564647265737360d01b6064820152608401610cb5565b6139af81614487565b50565b806001600160a01b0381166139da5760405163d92e233d60e01b815260040160405180910390fd5b6139e2613f09565b6001600160a01b03821660009081526012602052604090205460ff1615613a1b5760405162461bcd60e51b8152600401610cb5906151dd565b6001600160a01b038216600081815260126020526040808220805460ff19166001179055517f86e57fd2b90329052917118de7c3f521f400d439b9650deaa906a25b08b945609190a25050565b613a70613f09565b806001600160a01b038116613a985760405163d92e233d60e01b815260040160405180910390fd5b6000546040517f3e4520ab29fdd336aca22cca0657921e53eb42307038c1895b6b5e60eec3796f91613ad7916001600160a01b03909116908590614f33565b60405180910390a150600080546001600160a01b039092166001600160a01b0319928316811790915560198054909216179055565b6000613b16613f68565b336000908152600d602052604080822081516101608101909252805482908290613b3f906155d1565b80601f0160208091040260200160405190810160405280929190818152602001828054613b6b906155d1565b8015613bb85780601f10613b8d57610100808354040283529160200191613bb8565b820191906000526020600020905b815481529060010190602001808311613b9b57829003601f168201915b5050509183525050600182015460209091019060ff166005811115613bed57634e487b7160e01b600052602160045260246000fd5b6005811115613c0c57634e487b7160e01b600052602160045260246000fd5b8152602001600282018054613c20906155d1565b80601f0160208091040260200160405190810160405280929190818152602001828054613c4c906155d1565b8015613c995780601f10613c6e57610100808354040283529160200191613c99565b820191906000526020600020905b815481529060010190602001808311613c7c57829003601f168201915b505050918352505060038201546020820152600482015460408201526005820154606082015260068201546080820152600782015460a082015260089091015460ff808216151560c08401526101008083048216151560e08501526201000090920416151591810191909152810151909150613d275760405162461bcd60e51b8152600401610cb590615129565b613d303361224d565b15613d4d5760405162461bcd60e51b8152600401610cb59061521e565b60a081015115613d975760405162461bcd60e51b8152602060048201526015602482015274131bd8dad95c9cce880c081b995d081b5a5b9d1959605a1b6044820152606401610cb5565b60c081015115613de45760405162461bcd60e51b81526020600482015260186024820152774c6f636b6572733a203020736c617368696e67205442544360401b6044820152606401610cb5565b336000908152600d6020526040908190209051601091613e0391614eb0565b90815260405190819003602001902080546001600160a01b0319169055600d6000613e2b3390565b6001600160a01b031681526020810191909152604001600090812090613e5182826147e8565b60018201805460ff19169055613e6b6002830160006147e8565b506000600382018190556004820181905560058201819055600682018190556007820155600801805462ffffff19169055600c54613eab90600190615582565b600c55613eb73361375b565b613ec033613778565b336001600160a01b03167f628f3d67160bc1a892a1779c6475e128010a54df63af5dcdbf3c7b06ca5dfa978260000151836060015184608001516040516137cc93929190615043565b33613f12612472565b6001600160a01b0316146121ad5760405162461bcd60e51b815260206004820181905260248201527f4f776e61626c653a2063616c6c6572206973206e6f7420746865206f776e65726044820152606401610cb5565b6002608a541415613fbb5760405162461bcd60e51b815260206004820152601f60248201527f5265656e7472616e637947756172643a207265656e7472616e742063616c6c006044820152606401610cb5565b6002608a55565b60bc5460ff16156121ad5760405162461bcd60e51b815260206004820152601060248201526f14185d5cd8589b194e881c185d5cd95960821b6044820152606401610cb5565b6001608a55565b600885015460ff166140635760405162461bcd60e51b815260206004820181905260248201527f4c6f636b6572733a206163636f756e74206973206e6f742061206c6f636b65726044820152606401610cb5565b600085600501548560800151600a61407b91906154bb565b85610100015161408b9190615563565b8651600489015461409d908790615563565b6140a79190615563565b6140b19190615458565b6140bb9190615582565b90506000838660800151600a6140d191906154bb565b6140db9084615563565b6140e59190615458565b90508083111561414b5760405162461bcd60e51b815260206004820152602b60248201527f4c6f636b6572733a206d6f7265207468616e206d61782072656d6f7661626c6560448201526a0818dbdb1b185d195c985b60aa1b6064820152608401610cb5565b8460c001518388600401546141609190615582565b10156141b85760405162461bcd60e51b815260206004820152602160248201527f4c6f636b6572733a206c657373207468616e206d696e20636f6c6c61746572616044820152601b60fa1b6064820152608401610cb5565b8287600401546141c89190615582565b876004018190555050505050505050565b804710156142295760405162461bcd60e51b815260206004820152601d60248201527f416464726573733a20696e73756666696369656e742062616c616e63650000006044820152606401610cb5565b6000826001600160a01b03168260405160006040518083038185875af1925050503d8060008114614276576040519150601f19603f3d011682016040523d82523d6000602084013e61427b565b606091505b50509050806142ef5760405162461bcd60e51b815260206004820152603a60248201527f416464726573733a20756e61626c6520746f2073656e642076616c75652c20726044820152791958da5c1a595b9d081b585e481a185d99481c995d995c9d195960321b6064820152608401610cb5565b505050565b6142fc6144d9565b60bc805460ff191690557f5db9ee0a495bf2e6ff9c91a7834c1ba4fdd244a5e8aa4e537bd38aeae4b073aa335b6040516143369190614f1f565b60405180910390a1565b614398846323b872dd60e01b85858560405160240161436193929190614f4d565b60408051601f198184030181529190526020810180516001600160e01b03166001600160e01b031990931692909217909152614522565b50505050565b602554610100900460ff166143c55760405162461bcd60e51b8152600401610cb590615299565b6121ad6145f4565b602554610100900460ff166143f45760405162461bcd60e51b8152600401610cb590615299565b6121ad614624565b602554610100900460ff166144235760405162461bcd60e51b8152600401610cb590615299565b6121ad61464b565b6142ef8363a9059cbb60e01b8484604051602401614361929190614f71565b614452613fc2565b60bc805460ff191660011790557f62e78cea01bee320cd4e420270b5ea74000d11b0c9f74754ebdbfc544b05a2586143293390565b605880546001600160a01b038381166001600160a01b0319831681179093556040519116919082907f8be0079c531659141344cd1fd0a4f28419497f9722a3daafe3b4186f6b6457e090600090a35050565b60bc5460ff166121ad5760405162461bcd60e51b815260206004820152601460248201527314185d5cd8589b194e881b9bdd081c185d5cd95960621b6044820152606401610cb5565b6000614577826040518060400160405280602081526020017f5361666545524332303a206c6f772d6c6576656c2063616c6c206661696c6564815250856001600160a01b031661467e9092919063ffffffff16565b8051909150156142ef578080602001905181019061459591906149e9565b6142ef5760405162461bcd60e51b815260206004820152602a60248201527f5361666545524332303a204552433230206f7065726174696f6e20646964206e6044820152691bdd081cdd58d8d9595960b21b6064820152608401610cb5565b602554610100900460ff1661461b5760405162461bcd60e51b8152600401610cb590615299565b6121ad33614487565b602554610100900460ff166140085760405162461bcd60e51b8152600401610cb590615299565b602554610100900460ff166146725760405162461bcd60e51b8152600401610cb590615299565b60bc805460ff19169055565b606061468d8484600085614697565b90505b9392505050565b6060824710156146f85760405162461bcd60e51b815260206004820152602660248201527f416464726573733a20696e73756666696369656e742062616c616e636520666f6044820152651c8818d85b1b60d21b6064820152608401610cb5565b843b6147465760405162461bcd60e51b815260206004820152601d60248201527f416464726573733a2063616c6c20746f206e6f6e2d636f6e74726163740000006044820152606401610cb5565b600080866001600160a01b031685876040516147629190614e94565b60006040518083038185875af1925050503d806000811461479f576040519150601f19603f3d011682016040523d82523d6000602084013e6147a4565b606091505b5091509150612f05828286606083156147be575081614690565b8251156147ce5782518084602001fd5b8160405162461bcd60e51b8152600401610cb59190614fb1565b5080546147f4906155d1565b6000825580601f10614804575050565b601f0160209004906000526020600020908101906139af91905b80821115614832576000815560010161481e565b5090565b80356001600160a01b038116811461166057600080fd5b60008083601f84011261485e578081fd5b5081356001600160401b03811115614874578182fd5b60208301915083602082850101111561488c57600080fd5b9250929050565b6000602082840312156148a4578081fd5b61469082614836565b60008060008060008060008060006101208a8c0312156148cb578485fd5b6148d48a614836565b98506148e260208b01614836565b97506148f060408b01614836565b989b979a5097986060810135985060808101359760a0820135975060c0820135965060e08201359550610100909101359350915050565b60008060408385031215614939578182fd5b61494283614836565b946020939093013593505050565b60008060008060808587031215614965578384fd5b61496e85614836565b93506020850135925061498360408601614836565b9396929550929360600135925050565b600080600080600060a086880312156149aa578081fd5b6149b386614836565b9450602086013593506149c860408701614836565b9250606086013591506149dd60808701614836565b90509295509295909350565b6000602082840312156149fa578081fd5b81518015158114614690578182fd5b60008060208385031215614a1b578182fd5b82356001600160401b03811115614a30578283fd5b614a3c8582860161484d565b90969095509350505050565b60008060008060608587031215614a5d578384fd5b84356001600160401b03811115614a72578485fd5b614a7e8782880161484d565b9095509350614a91905060208601614836565b9396929550929360400135925050565b600080600060408486031215614ab5578283fd5b83356001600160401b03811115614aca578384fd5b614ad68682870161484d565b909790965060209590950135949350505050565b600080600080600080600060a0888a031215614b04578283fd5b87356001600160401b0380821115614b1a578485fd5b614b268b838c0161484d565b909950975060208a0135965060408a0135955060608a0135915060068210614b4c578485fd5b90935060808901359080821115614b61578384fd5b50614b6e8a828b0161484d565b989b979a50959850939692959293505050565b600060208284031215614b92578081fd5b81356001600160401b0380821115614ba8578283fd5b818401915084601f830112614bbb578283fd5b813581811115614bcd57614bcd61561c565b604051601f8201601f19908116603f01168101908382118183101715614bf557614bf561561c565b81604052828152876020848701011115614c0d578586fd5b826020860160208301379182016020019490945295945050505050565b600060208284031215614c3b578081fd5b5035919050565b600060208284031215614c53578081fd5b5051919050565b60008060408385031215614c6c578182fd5b505080516020909101519092909150565b6001600160a01b03169052565b81835281816020850137506000828201602090810191909152601f909101601f19169091010190565b60008151808452614ccb8160208601602086016155a5565b601f01601f19169290920160200192915050565b60008154614cec816155d1565b808552602060018381168015614d095760018114614d1d57614d4b565b60ff19851688840152604088019550614d4b565b866000528260002060005b85811015614d435781548a8201860152908301908401614d28565b890184019650505b505050505092915050565b60068110614d7457634e487b7160e01b600052602160045260246000fd5b9052565b8054825260018101546020830152600281015460408301526003810154606083015260048101546080830152600501546001600160a01b031660a090910152565b614dcc82614dc78354615599565b614c7d565b614dd96001820154615599565b614de66020840182614c7d565b50614df46002820154615599565b614e016040840182614c7d565b50614e0f6003820154615599565b614e1c6060840182614c7d565b50614e2a6004820154615599565b614e376080840182614c7d565b50600581015460a0830152600681015460c0830152600781015460e083015260088101546101008301526009810154610120830152600a810154610140830152600b015461016090910152565b8183823760009101908152919050565b60008251614ea68184602087016155a5565b9190910192915050565b6000808354614ebe816155d1565b60018281168015614ed65760018114614ee757614f13565b60ff19841687528287019450614f13565b8786526020808720875b85811015614f0a5781548a820152908401908201614ef1565b50505082870194505b50929695505050505050565b6001600160a01b0391909116815260200190565b6001600160a01b0392831681529116602082015260400190565b6001600160a01b039384168152919092166020820152604081019190915260600190565b6001600160a01b03929092168252602082015260400190565b606081526000614f9e606083018688614c8a565b6020830194909452506040015292915050565b6020815260006146906020830184614cb3565b6000610160808352614fd88184018f614cb3565b9050614fe7602084018e614d56565b8281036040840152614ff9818d614cb3565b606084019b909b525050608081019790975260a087019590955260c086019390935260e0850191909152151561010084015215156101208301521515610140909101529392505050565b6060815260006150566060830186614cb3565b60208301949094525060400152919050565b6060815260006150566060830186614cdf565b60808152600061508e6080830187614cdf565b6020830195909552506040810192909252606090910152919050565b60006102608c83526150bf602084018d614db9565b6001600160a01b038b166101a08401526101c083018a90526101e0830189905261020083018190526150f4818401888a614c8a565b9050615104610220840187614d56565b828103610240840152615118818587614c8a565b9d9c50505050505050505050505050565b6020808252601290820152712637b1b5b2b9399d103737903637b1b5b2b960711b604082015260600190565b60208082526023908201527f4c6f636b6572733a206163636f756e7420646f6573206e6f74206861766520726040820152626f6c6560e81b606082015260800190565b60208082526025908201527f4c6f636b6572733a206d6573736167652073656e646572206973206e6f74206360408201526431a13ab93760d91b606082015260800190565b60208082526021908201527f4c6f636b6572733a206163636f756e7420616c72656164792068617320726f6c6040820152606560f81b606082015260800190565b6020808252601590820152744c6f636b6572733a207374696c6c2061637469766560581b604082015260600190565b6020808252602c908201527f4c6f636b6572733a20696e7075742061646472657373206973206e6f7420612060408201526b3b30b634b2103637b1b5b2b960a11b606082015260800190565b6020808252602b908201527f496e697469616c697a61626c653a20636f6e7472616374206973206e6f74206960408201526a6e697469616c697a696e6760a81b606082015260800190565b6020808252601590820152742637b1b5b2b9399d1036bab9ba1021a9101f10262960591b604082015260600190565b83815261026081016153286020830185614d78565b61314f60e0830184614db9565b848152610280810161534a6020830186614d78565b61535760e0830185614db9565b8261026083015295945050505050565b8581526102a0810161537c6020830187614d78565b61538960e0830186614db9565b61026082019390935261028001529392505050565b61024081016153ad8285614d78565b61469060c0830184614db9565b85815260a0602082015260006153d360a0830187614cb3565b6153e06040840187614d56565b82810360608401526153f28186614cb3565b9150508260808301529695505050505050565b9283526020830191909152604082015260600190565b9485526020850193909352604084019190915260608301521515608082015260a00190565b6000821982111561545357615453615606565b500190565b60008261547357634e487b7160e01b81526012600452602481fd5b500490565b600181815b808511156154b357816000190482111561549957615499615606565b808516156154a657918102915b93841c939080029061547d565b509250929050565b600061469083836000826154d1575060016123c0565b816154de575060006123c0565b81600181146154f457600281146154fe5761551a565b60019150506123c0565b60ff84111561550f5761550f615606565b50506001821b6123c0565b5060208310610133831016604e8410600b841016171561553d575081810a6123c0565b6155478383615478565b806000190482111561555b5761555b615606565b029392505050565b600081600019048311821515161561557d5761557d615606565b500290565b60008282101561559457615594615606565b500390565b6001600160a01b031690565b60005b838110156155c05781810151838201526020016155a8565b838111156143985750506000910152565b600181811c908216806155e557607f821691505b60208210811415611e8857634e487b7160e01b600052602260045260246000fd5b634e487b7160e01b600052601160045260246000fd5b634e487b7160e01b600052604160045260246000fdfea26469706673582212206ac5272abee678ae2b8cc2a7b34e0e214456637f2014f6c49a50aac37665a61864736f6c63430008040033",
  "deployedBytecode": "0x6080604052600436106103455760003560e01c80637f0f1817116101b3578063bb4a2509116100f3578063bb4a25091461096e578063bc805d1d1461098e578063bd60e794146109a4578063c0924b8014610a69578063c4d10b6a14610a89578063cdcbc87914610aa9578063d5a38a9114610b13578063dd0081c7146105c2578063e85501d814610b33578063e955de4514610b48578063ed110a9c14610b5d578063ee1f1c7014610b73578063ef69a7bc14610b93578063f2fde38b14610ba8578063f44637ba14610bc8578063f46eccc414610be8578063f73e3a9514610c18578063ffc9f70414610c3857600080fd5b80637f0f18171461077857806388aa0a52146107985780638d3d78cd146107ae5780638da5cb5b146107ce5780638fe85fe7146107e3578063946ce8cd1461080357806396ec39e814610823578063983b2d56146108435780639bf0988214610863578063a839db2414610883578063af1ea795146108a3578063aff2faa3146108da578063b1016bdf146108fa578063b291ec131461090d578063b430225814610923578063b4eae1cb14610938578063b734de261461094e57600080fd5b806345cc58901161028957806345cc589014610582578063530e784f146105a257806354509b97146105c257806359bb9189146105d85780635a8d80b8146105ed5780635c975abb1461060d5780635d6464ba146106255780636060663e146106525780636136c21f14610672578063613e2e1e1461069f57806363908020146106b45780636600203d146106ca5780636a030fc3146106ea5780636d32395c1461070a5780636d75b9ee14610720578063715018a614610733578063768ebb12146105c25780637da5f0da1461074857600080fd5b8063028468581461034a57806303d41e0e1461036c5780630c42cbc9146103b1578063108f438d146103d45780631697565b146104015780631775765f146104215780631fcfe19c146104375780632630c12f14610457578063264db4ae146104775780632f5b04ac1461048c5780633092afd5146104a357806331f7d964146104c35780633237c158146104d857806338463cff146104eb57806341f3ec111461050b57806341fae5791461054c57806343b9370714610562575b600080fd5b34801561035657600080fd5b5061036a610365366004614893565b610c4d565b005b34801561037857600080fd5b5061039c610387366004614893565b60126020526000908152604090205460ff1681565b60405190151581526020015b60405180910390f35b3480156103bd57600080fd5b506103c6601281565b6040519081526020016103a8565b3480156103e057600080fd5b506000546103f4906001600160a01b031681565b6040516103a89190614f1f565b34801561040d57600080fd5b5061039c61041c366004614993565b610d08565b34801561042d57600080fd5b506103c660095481565b34801561044357600080fd5b506103c6610452366004614a48565b610f26565b34801561046357600080fd5b506004546103f4906001600160a01b031681565b34801561048357600080fd5b506103c66112e4565b34801561049857600080fd5b506103c66205460081565b3480156104af57600080fd5b5061036a6104be366004614893565b611377565b3480156104cf57600080fd5b506103f4600181565b61039c6104e6366004614c2a565b611429565b3480156104f757600080fd5b506103c6610506366004614aa1565b611665565b34801561051757600080fd5b506103f4610526366004614b81565b80516020818301810180516010825292820191909301209152546001600160a01b031681565b34801561055857600080fd5b506103c660055481565b34801561056e57600080fd5b5061039c61057d366004614927565b611a96565b34801561058e57600080fd5b5061039c61059d366004614893565b611ce7565b3480156105ae57600080fd5b5061036a6105bd366004614893565b611e8e565b3480156105ce57600080fd5b506103c661271081565b3480156105e457600080fd5b5061039c611f32565b3480156105f957600080fd5b506002546103f4906001600160a01b031681565b34801561061957600080fd5b5060bc5460ff1661039c565b34801561063157600080fd5b50610645610640366004614893565b61205b565b6040516103a89190614fb1565b34801561065e57600080fd5b5061036a61066d366004614c2a565b61212e565b34801561067e57600080fd5b506103c661068d366004614893565b600e6020526000908152604090205481565b3480156106ab57600080fd5b5061036a61219d565b3480156106c057600080fd5b506103c660075481565b3480156106d657600080fd5b5061036a6106e5366004614c2a565b6121af565b3480156106f657600080fd5b5061039c610705366004614893565b61224d565b34801561071657600080fd5b506103c660065481565b61039c61072e366004614927565b6122cf565b34801561073f57600080fd5b5061036a6123c6565b34801561075457600080fd5b5061039c610763366004614893565b600f6020526000908152604090205460ff1681565b34801561078457600080fd5b5061036a610793366004614893565b6123ce565b3480156107a457600080fd5b506103c6600b5481565b3480156107ba57600080fd5b506001546103f4906001600160a01b031681565b3480156107da57600080fd5b506103f4612472565b3480156107ef57600080fd5b5061036a6107fe366004614c2a565b612481565b34801561080f57600080fd5b5061036a61081e366004614c2a565b61251b565b34801561082f57600080fd5b5061039c61083e366004614927565b61258a565b34801561084f57600080fd5b5061036a61085e366004614893565b612a85565b34801561086f57600080fd5b5061036a61087e366004614c2a565b612b3b565b34801561088f57600080fd5b5061036a61089e366004614c2a565b612b89565b3480156108af57600080fd5b506108c36108be366004614893565b612bf7565b6040516103a89b9a99989796959493929190614fc4565b3480156108e657600080fd5b5061039c6108f5366004614a09565b612d6f565b61039c610908366004614aea565b612dbd565b34801561091957600080fd5b506103c6600a5481565b34801561092f57600080fd5b5061039c612f10565b34801561094457600080fd5b506103c660085481565b34801561095a57600080fd5b5061039c610969366004614950565b612fbe565b34801561097a57600080fd5b5061036a6109893660046148ad565b613157565b34801561099a57600080fd5b506103c66130d481565b3480156109b057600080fd5b50601954601a54601b54601c54601d54601e54601f546020546021546022546023546024546109f99b6001600160a01b039081169b81169a81169981169816969594939291908c565b604080516001600160a01b039d8e1681529b8d1660208d0152998c16998b0199909952968a1660608a015298909416608088015260a087019290925260c086015260e0850152610100840152610120830193909352610140820192909252610160810191909152610180016103a8565b348015610a7557600080fd5b506003546103f4906001600160a01b031681565b348015610a9557600080fd5b506103f4610aa4366004614a09565b613300565b348015610ab557600080fd5b50601354601454601554601654601754601854610add9594939291906001600160a01b031686565b60408051968752602087019590955293850192909252606084015260808301526001600160a01b031660a082015260c0016103a8565b348015610b1f57600080fd5b506103c6610b2e366004614893565b613335565b348015610b3f57600080fd5b5061039c61347e565b348015610b5457600080fd5b5061036a6137e3565b348015610b6957600080fd5b506103c6600c5481565b348015610b7f57600080fd5b5061036a610b8e366004614893565b6137f3565b348015610b9f57600080fd5b50600c546103c6565b348015610bb457600080fd5b5061036a610bc3366004614893565b613939565b348015610bd457600080fd5b5061036a610be3366004614893565b6139b2565b348015610bf457600080fd5b5061039c610c03366004614893565b60116020526000908152604090205460ff1681565b348015610c2457600080fd5b5061036a610c33366004614893565b613a68565b348015610c4457600080fd5b5061039c613b0c565b806001600160a01b038116610c755760405163d92e233d60e01b815260040160405180910390fd5b610c7d613f09565b6001600160a01b03821660009081526012602052604090205460ff16610cbe5760405162461bcd60e51b8152600401610cb590615155565b60405180910390fd5b6001600160a01b038216600081815260126020526040808220805460ff19169055517f90eabbc0c667db2a5029ed6bc0f5fe9f356d11684a4ca9fcfaec0e53f12b9c8e9190a25050565b6000610d12613f68565b610d1a613fc2565b6002546001600160a01b0316336001600160a01b031614610d4d5760405162461bcd60e51b8152600401610cb590615198565b6001600160a01b0386166000908152600d602052604080822090516343196d1d60e01b815273__$e73bdc529e43686130bc0575eb4e830f23$__916343196d1d91610da591906013906019908c908b90600401615367565b60206040518083038186803b158015610dbd57600080fd5b505af4158015610dd1573d6000803e3d6000fd5b505050506040513d601f19601f82011682018060405250810190610df59190614c42565b90506001600160a01b0383166108fc610e0e8887615440565b610e188785615563565b610e229190615458565b6040518115909202916000818181858888f19350505050158015610e4a573d6000803e3d6000fd5b506000610e578786615440565b610e618684615563565b610e6b9190615458565b610e759083615582565b6040519091506001600160a01b0387169082156108fc029083906000818181858888f19350505050158015610eae573d6000803e3d6000fd5b50836001600160a01b0316866001600160a01b0316896001600160a01b03167fab522c1322c34ea455e8f541ecfe1b73a29039f3658bff658cf12c9fd26dc016848987426001604051610f0595949392919061541b565b60405180910390a4600192505050610f1d6001608a55565b95945050505050565b6000826001600160a01b038116610f505760405163d92e233d60e01b815260040160405180910390fd5b8280610f6f57604051637c946ed760e01b815260040160405180910390fd5b610f77613f68565b610f7f613fc2565b3360009081526011602052604090205460ff16610fde5760405162461bcd60e51b815260206004820152601e60248201527f4c6f636b6572733a206f6e6c79206d696e746572732063616e206d696e7400006044820152606401610cb5565b600060108888604051610ff2929190614e84565b908152604051908190036020019020546001600160a01b03169050806110555760405162461bcd60e51b81526020600482015260186024820152774c6f636b6572733a2061646472657373206973207a65726f60401b6044820152606401610cb5565b8461105f82613335565b10156110ad5760405162461bcd60e51b815260206004820152601e60248201527f4c6f636b6572733a20696e73756666696369656e7420636170616369747900006044820152606401610cb5565b6110b68161224d565b6110f85760405162461bcd60e51b81526020600482015260136024820152724c6f636b6572733a206e6f742061637469766560681b6044820152606401610cb5565b6001600160a01b0381166000908152600d602052604090206005015461111f908690615440565b6001600160a01b0382166000908152600d60205260408120600501919091556007546127109061114f9088615563565b6111599190615458565b905080156111e7576001546040516340c10f1960e01b81526001600160a01b03909116906340c10f19906111939085908590600401614f71565b602060405180830381600087803b1580156111ad57600080fd5b505af11580156111c1573d6000803e3d6000fd5b505050506040513d601f19601f820116820180604052508101906111e591906149e9565b505b6001546001600160a01b03166340c10f1988611203848a615582565b6040518363ffffffff1660e01b8152600401611220929190614f71565b602060405180830381600087803b15801561123a57600080fd5b505af115801561124e573d6000803e3d6000fd5b505050506040513d601f19601f8201168201806040525081019061127291906149e9565b50866001600160a01b0316826001600160a01b03167f8ad706b338c5d2a20b0d038b5cfdaf2b2f943f43048723bde0dccdf129598a118884426040516112ba93929190615405565b60405180910390a36112cc8187615582565b945050506112da6001608a55565b5050949350505050565b60405163167e7c5760e01b815260009073__$e73bdc529e43686130bc0575eb4e830f23$__9063167e7c57906113229060139060199060040161539e565b60206040518083038186803b15801561133a57600080fd5b505af415801561134e573d6000803e3d6000fd5b505050506040513d601f19601f820116820180604052508101906113729190614c42565b905090565b806001600160a01b03811661139f5760405163d92e233d60e01b815260040160405180910390fd5b6113a7613f09565b6001600160a01b03821660009081526011602052604090205460ff166113df5760405162461bcd60e51b8152600401610cb590615155565b6001600160a01b038216600081815260116020526040808220805460ff19169055517fe94479a9f7e1952cc78f2d6baab678adc1b772d936c6583def489e524cb666929190a25050565b6000611433613f68565b336000908152600d602052604090206008015460ff166114655760405162461bcd60e51b8152600401610cb590615129565b61146e3361224d565b1561148b5760405162461bcd60e51b8152600401610cb59061521e565b60405163167e7c5760e01b815260009073__$e73bdc529e43686130bc0575eb4e830f23$__9063167e7c57906114c99060139060199060040161539e565b60206040518083038186803b1580156114e157600080fd5b505af41580156114f5573d6000803e3d6000fd5b505050506040513d601f19601f820116820180604052508101906115199190614c42565b336000908152600d6020908152604091829020825160c08082018552601354825260145482850152601554828601526016546060808401919091526017546080808501919091526018546001600160a01b0390811660a080870191909152885161018081018a5260195483168152601a548316818a0152601b54831699810199909952601c54821693890193909352601d541690870152601e5490860152601f5490850152915460e08401526021546101008401526022546101208401526023546101408401526024546101608401529293506115f89291848761400f565b61160233846141d9565b336000818152600d6020526040908190206004015490517f93ae1c71197ee1bd2ad44b7d57e7b34ca946aeb88fdb4fc4a45211dbeb2c3cc791611649918791904290615405565b60405180910390a260019150506116606001608a55565b919050565b6000818061168657604051637c946ed760e01b815260040160405180910390fd5b61168e613f68565b611696613fc2565b3360009081526012602052604090205460ff166116f55760405162461bcd60e51b815260206004820152601e60248201527f4c6f636b6572733a206f6e6c79206275726e6572732063616e206275726e00006044820152606401610cb5565b600060108686604051611709929190614e84565b908152604051908190036020019020546001546001600160a01b039182169250166323b872dd6117363390565b30876040518463ffffffff1660e01b815260040161175693929190614f4d565b602060405180830381600087803b15801561177057600080fd5b505af1158015611784573d6000803e3d6000fd5b505050506040513d601f19601f820116820180604052508101906117a891906149e9565b6117f35760405162461bcd60e51b815260206004820152601c60248201527b131bd8dad95c9cce881d1c985b9cd9995c919c9bdb4819985a5b195960221b6044820152606401610cb5565b6000612710600754866118069190615563565b6118109190615458565b9050600061181e8287615582565b6001600160a01b0384166000908152600d60205260409020600501549091508181101561188b5760405162461bcd60e51b815260206004820152601b60248201527a4c6f636b6572733a20696e73756666696369656e742066756e647360281b6044820152606401610cb5565b6118958282615582565b6001600160a01b038581166000908152600d602052604090819020600501929092556001549151630852cd8d60e31b8152600481018590529116906342966c6890602401602060405180830381600087803b1580156118f357600080fd5b505af1158015611907573d6000803e3d6000fd5b505050506040513d601f19601f8201168201806040525081019061192b91906149e9565b61196e5760405162461bcd60e51b8152602060048201526014602482015273131bd8dad95c9cce88189d5c9b8819985a5b195960621b6044820152606401610cb5565b60015460405163a9059cbb60e01b81526001600160a01b039091169063a9059cbb906119a09087908790600401614f71565b602060405180830381600087803b1580156119ba57600080fd5b505af11580156119ce573d6000803e3d6000fd5b505050506040513d601f19601f820116820180604052508101906119f291906149e9565b611a3a5760405162461bcd60e51b8152602060048201526019602482015278131bd8dad95c9cce881b1bd8dad95c9199594819985a5b1959603a1b6044820152606401610cb5565b836001600160a01b03167f66fb54322c407b04a077a306e72cdd780f0f374ba5dac9f6901a56a6255bc34a888542604051611a7793929190615405565b60405180910390a25093505050611a8e6001608a55565b509392505050565b6000826001600160a01b038116611ac05760405163d92e233d60e01b815260040160405180910390fd5b611ac8613f68565b611ad0613fc2565b6001600160a01b0384166000908152600d602052604080822090516201412760e01b815260048101919091526024810185905273__$e73bdc529e43686130bc0575eb4e830f23$__90620141279060440160206040518083038186803b158015611b3957600080fd5b505af4158015611b4d573d6000803e3d6000fd5b505050506040513d601f19601f82011682018060405250810190611b719190614c42565b6001546040516323b872dd60e01b81529192506001600160a01b0316906323b872dd90611ba690339030908690600401614f4d565b602060405180830381600087803b158015611bc057600080fd5b505af1158015611bd4573d6000803e3d6000fd5b505050506040513d601f19601f82011682018060405250810190611bf891906149e9565b50600154604051630852cd8d60e31b8152600481018390526001600160a01b03909116906342966c6890602401602060405180830381600087803b158015611c3f57600080fd5b505af1158015611c53573d6000803e3d6000fd5b505050506040513d601f19601f82011682018060405250810190611c7791906149e9565b50611c8233856141d9565b336001600160a01b0316856001600160a01b03167fd03400b15a5f4cddbc57f0e81bca31db33e4d1ed1390211eade3518bce70562e868442604051611cc993929190615405565b60405180910390a36001925050611ce06001608a55565b5092915050565b6000816001600160a01b038116611d115760405163d92e233d60e01b815260040160405180910390fd5b611d19613f68565b611d21613f09565b6001600160a01b0383166000908152600d6020526040902060080154610100900460ff16611d875760405162461bcd60e51b8152602060048201526013602482015272131bd8dad95c9cce881b9bc81c995c5d595cdd606a1b6044820152606401610cb5565b6001600160a01b0383166000908152600d60205260409020600801805461ffff19166001908117909155600b54611dbe9190615582565b600b55600c54611dcf906001615440565b600c556001600160a01b0383166000908152600d60205260409081902090518491601091611dfd9190614eb0565b908152604080516020928190038301812080546001600160a01b0319166001600160a01b039586161790559286166000818152600d90935291206003810154600482015492937f3840128cd2c146a0ea7739b8440e824c6d2d498ae32274812561d689d751e75e93611e72939291429061507b565b60405180910390a260019150611e886001608a55565b50919050565b806001600160a01b038116611eb65760405163d92e233d60e01b815260040160405180910390fd5b611ebe613f09565b6004546040517fd52b2b9b7e9ee655fcb95d2e5b9e0c9f69e7ef2b8e9d2d0ea78402d576d22e2291611efd916001600160a01b03909116908590614f33565b60405180910390a150600480546001600160a01b039092166001600160a01b03199283168117909155601d8054909216179055565b6000611f3c613f68565b336000908152600d602052604090206008015460ff16611f6e5760405162461bcd60e51b8152600401610cb59061524d565b336000908152600e602052604090205415611fd95760405162461bcd60e51b815260206004820152602560248201527f4c6f636b6572733a206c6f636b65722068617320616c72656164792072657175604482015264195cdd195960da1b6064820152608401610cb5565b611fe66205460042615440565b336000818152600e60209081526040808320859055600d9091529081902060038101546004820154600583015493517f59e9b7bdd325b1dd9fe5b91f457f74d4b3d58263580ae84d6be1f451bbc2851f946120439493929161507b565b60405180910390a35060016120586001608a55565b90565b6060816001600160a01b0381166120855760405163d92e233d60e01b815260040160405180910390fd5b6001600160a01b0383166000908152600d6020526040902080546120a8906155d1565b80601f01602080910402602001604051908101604052809291908181526020018280546120d4906155d1565b80156121215780601f106120f657610100808354040283529160200191612121565b820191906000526020600020905b81548152906001019060200180831161210457829003601f168201915b5050505050915050919050565b612136613f09565b60095481116121575760405162461bcd60e51b8152600401610cb5906152e4565b60085460408051918252602082018390527f1e29d1b5c8926360f3ac632d884775772b07f31fec4077d433e58ce823f91347910160405180910390a16008819055602155565b6121a5613f09565b6121ad6142f4565b565b6121b7613f09565b6127108111156122075760405162461bcd60e51b815260206004820152601b60248201527a4c6f636b6572733a20696e76616c6964206c6f636b65722066656560281b6044820152606401610cb5565b60075460408051918252602082018390527f44c6802691f6adea249930369a511db979a5e9a3603bdb37ceee1036da80e980910160405180910390a16007819055602055565b6000816001600160a01b0381166122775760405163d92e233d60e01b815260040160405180910390fd5b6001600160a01b0383166000908152600e602052604090205461229d5760019150611e88565b6001600160a01b0383166000908152600e60205260409020544210156122c65760019150611e88565b60009150611e88565b60006122d9613f68565b6001600160a01b0383166000908152600d6020526040908190209051635ff753e960e11b815273__$e73bdc529e43686130bc0575eb4e830f23$__9163bfeea7d29161232b9134918790600401615405565b60006040518083038186803b15801561234357600080fd5b505af4158015612357573d6000803e3d6000fd5b505050506001600160a01b0383166000818152600d6020526040908190206004015490517f2d2b4797badefe26cd5674f9bc2b8f5ed98e2a663e1a977af971254cfefd15ad916123ab918691904290615405565b60405180910390a25060016123c06001608a55565b92915050565b6121ad613f09565b806001600160a01b0381166123f65760405163d92e233d60e01b815260040160405180910390fd5b6123fe613f09565b6001546040517f36a4c08a38b736dcecb6c328dba61238529620e83ccb23db2cc43cd34ec260969161243d916001600160a01b03909116908590614f33565b60405180910390a150600180546001600160a01b039092166001600160a01b03199283168117909155601a8054909216179055565b6058546001600160a01b031690565b612489613f09565b6127108111156124d55760405162461bcd60e51b81526020600482015260176024820152764c6f636b6572733a206c657373207468616e203130302560481b6044820152606401610cb5565b600a5460408051918252602082018390527f5e4dd01049cdfe5a081b404bff8e27de919fd9c8ae2145007e0921ec227f207a910160405180910390a1600a819055602355565b612523613f09565b80600854116125445760405162461bcd60e51b8152600401610cb5906152e4565b60095460408051918252602082018390527f883242c2a857ca527a432dfca231b1e49233fde2a96802809a0f3866e9f19e13910160405180910390a16009819055602255565b6000826001600160a01b0381166125b45760405163d92e233d60e01b815260040160405180910390fd5b82806125d357604051637c946ed760e01b815260040160405180910390fd5b6125db613f68565b6125e3613fc2565b6001600160a01b0385166000908152600d602052604080822090516318ae332560e31b815273__$e73bdc529e43686130bc0575eb4e830f23$__9163c57199289161263991906013906019908b90600401615335565b60206040518083038186803b15801561265157600080fd5b505af4158015612665573d6000803e3d6000fd5b505050506040513d601f19601f820116820180604052508101906126899190614c42565b90506000600d6000886001600160a01b03166001600160a01b03168152602001908152602001600020604051806101600160405290816000820180546126ce906155d1565b80601f01602080910402602001604051908101604052809291908181526020018280546126fa906155d1565b80156127475780601f1061271c57610100808354040283529160200191612747565b820191906000526020600020905b81548152906001019060200180831161272a57829003601f168201915b5050509183525050600182015460209091019060ff16600581111561277c57634e487b7160e01b600052602160045260246000fd5b600581111561279b57634e487b7160e01b600052602160045260246000fd5b81526020016002820180546127af906155d1565b80601f01602080910402602001604051908101604052809291908181526020018280546127db906155d1565b80156128285780601f106127fd57610100808354040283529160200191612828565b820191906000526020600020905b81548152906001019060200180831161280b57829003601f168201915b505050918352505060038201546020808301919091526004808401546040808501919091526005850154606085015260068501546080850152600785015460a085015260089094015460ff808216151560c08601526101008083048216151560e0870152620100009092041615159301929092526001600160a01b038b166000908152600d9091529190912001549091506128c4908790615582565b6001600160a01b038089166000908152600d60205260409020600401919091556001546128f49116333085614340565b60015460025460405163095ea7b360e01b81526001600160a01b039283169263095ea7b39261292a929116908690600401614f71565b602060405180830381600087803b15801561294457600080fd5b505af1158015612958573d6000803e3d6000fd5b505050506040513d601f19601f8201168201806040525081019061297c91906149e9565b50600254604080830151602084015184519251633fea436760e01b81526001600160a01b0390941693633fea4367936129c193889390929091906000906004016153ba565b602060405180830381600087803b1580156129db57600080fd5b505af11580156129ef573d6000803e3d6000fd5b505050506040513d601f19601f82011682018060405250810190612a139190614c42565b50612a1e33876141d9565b336001600160a01b0316876001600160a01b03167fd63782183ccef603c2adba105774db58e1701ea5e7b3e23eded1b5e967a3654c888542604051612a6593929190615405565b60405180910390a3600194505050612a7d6001608a55565b505092915050565b806001600160a01b038116612aad5760405163d92e233d60e01b815260040160405180910390fd5b612ab5613f09565b6001600160a01b03821660009081526011602052604090205460ff1615612aee5760405162461bcd60e51b8152600401610cb5906151dd565b6001600160a01b038216600081815260116020526040808220805460ff19166001179055517f6ae172837ea30b801fbfcdd4108aa1d5bf8ff775444fd70256b44e6bf3dfc3f69190a25050565b612b43613f09565b60055460408051918252602082018390527f65fb7af72786d428e2b4e9d3d2bd45fdd354f582ccccad2044967440b98e6d7b910160405180910390a16005819055601e55565b8080612ba857604051637c946ed760e01b815260040160405180910390fd5b612bb0613f09565b60065460408051918252602082018490527f063267aa94de35dcf03acb07931ff2a6eae1ac1ee0be20797c9a6d3b52abf47b910160405180910390a1506006819055601f55565b600d60205260009081526040902080548190612c12906155d1565b80601f0160208091040260200160405190810160405280929190818152602001828054612c3e906155d1565b8015612c8b5780601f10612c6057610100808354040283529160200191612c8b565b820191906000526020600020905b815481529060010190602001808311612c6e57829003601f168201915b5050506001840154600285018054949560ff909216949193509150612caf906155d1565b80601f0160208091040260200160405190810160405280929190818152602001828054612cdb906155d1565b8015612d285780601f10612cfd57610100808354040283529160200191612d28565b820191906000526020600020905b815481529060010190602001808311612d0b57829003601f168201915b5050506003840154600485015460058601546006870154600788015460089098015496979396929550909350919060ff80821691610100810482169162010000909104168b565b6000600d600060108585604051612d87929190614e84565b9081526040805160209281900383019020546001600160a01b0316835290820192909252016000206008015460ff169392505050565b6000612dc7613f68565b73__$e73bdc529e43686130bc0575eb4e830f23$__634f02c5a4600d601960108c8c604051612df7929190614e84565b908152602001604051809103902060009054906101000a90046001600160a01b03168a8a8e8e8c8c8c6040518b63ffffffff1660e01b8152600401612e459a999897969594939291906150aa565b60006040518083038186803b158015612e5d57600080fd5b505af4158015612e71573d6000803e3d6000fd5b50506019546001600160a01b0316159150612ea0905057612ea0336019546001600160a01b0316903089614340565b600b54612eae906001615440565b600b55336001600160a01b03167fe5f7957016a87f9d7bacdd371a516d7f2c5667aa5676c7e07cc8c0bbc6e5067b89898989604051612ef09493929190614f8a565b60405180910390a2506001612f056001608a55565b979650505050505050565b6000612f1a613f68565b336000908152600d602052604090206008015460ff16612f4c5760405162461bcd60e51b8152600401610cb59061524d565b336000818152600e60209081526040808320839055600d9091529081902060038101546004820154600583015493517ff5c2a2ca5d59b6903bcb66377907e2c66983741a553bae891c485953b2a1f96f94612fa99493929161507b565b60405180910390a25060016120586001608a55565b6000612fc8613f68565b612fd0613fc2565b6002546001600160a01b0316336001600160a01b0316146130035760405162461bcd60e51b8152600401610cb590615198565b6001600160a01b0385166000908152600d60205260408082209051630b6f92b160e31b8152829173__$e73bdc529e43686130bc0575eb4e830f23$__91635b7c95889161305c916013906019908c908b90600401615367565b604080518083038186803b15801561307357600080fd5b505af4158015613087573d6000803e3d6000fd5b505050506040513d601f19601f820116820180604052508101906130ab9190614c5a565b60405191935091506001600160a01b0386169083156108fc029084906000818181858888f193505050501580156130e6573d6000803e3d6000fd5b50306001600160a01b038681169089167fab522c1322c34ea455e8f541ecfe1b73a29039f3658bff658cf12c9fd26dc01685886131238288615440565b42600060405161313795949392919061541b565b60405180910390a460019250505061314f6001608a55565b949350505050565b602554610100900460ff16158080156131775750602554600160ff909116105b806131915750303b158015613191575060255460ff166001145b6131f45760405162461bcd60e51b815260206004820152602e60248201527f496e697469616c697a61626c653a20636f6e747261637420697320616c72656160448201526d191e481a5b9a5d1a585b1a5e995960921b6064820152608401610cb5565b6025805460ff191660011790558015613217576025805461ff0019166101001790555b61321f61439e565b6132276143cd565b61322f6143fc565b6132388a6123ce565b613241886137f3565b61324a89611e8e565b61325387612b3b565b61325c86612b89565b6132658561212e565b61326e8461251b565b613277836121af565b61328082612481565b612710601381905560148190556130d46015556016556012601755601880546001600160a01b031916600117905580156132f4576025805461ff0019169055604051600181527f7f26b83ff96e1f2b6a682f133852f6798a09c465da95921460cefb38474024989060200160405180910390a15b50505050505050505050565b600060108383604051613314929190614e84565b908152604051908190036020019020546001600160a01b0316905092915050565b6000816001600160a01b03811661335f5760405163d92e233d60e01b815260040160405180910390fd5b6008546001600160a01b0384166000908152600d60205260408082209051632974c8ab60e21b81529192916127109173__$e73bdc529e43686130bc0575eb4e830f23$__9163a5d322ac916133bc91601390601990600401615313565b60206040518083038186803b1580156133d457600080fd5b505af41580156133e8573d6000803e3d6000fd5b505050506040513d601f19601f8201168201806040525081019061340c9190614c42565b6134169190615563565b6134209190615458565b6001600160a01b0385166000908152600d6020526040902060050154909150811115613474576001600160a01b0384166000908152600d602052604090206005015461346c9082615582565b925050611e88565b6000925050611e88565b6000613488613f68565b336000908152600d6020526040902060080154610100900460ff166134e15760405162461bcd60e51b815260206004820152600f60248201526e4c6f636b6572733a206e6f2072657160881b6044820152606401610cb5565b336000908152600d60205260408082208151610160810190925280548290829061350a906155d1565b80601f0160208091040260200160405190810160405280929190818152602001828054613536906155d1565b80156135835780601f1061355857610100808354040283529160200191613583565b820191906000526020600020905b81548152906001019060200180831161356657829003601f168201915b5050509183525050600182015460209091019060ff1660058111156135b857634e487b7160e01b600052602160045260246000fd5b60058111156135d757634e487b7160e01b600052602160045260246000fd5b81526020016002820180546135eb906155d1565b80601f0160208091040260200160405190810160405280929190818152602001828054613617906155d1565b80156136645780601f1061363957610100808354040283529160200191613664565b820191906000526020600020905b81548152906001019060200180831161364757829003601f168201915b505050918352505060038201546020820152600482015460408201526005820154606082015260068201546080820152600782015460a082015260089091015460ff808216151560c08401526101008083048216151560e0850152620100009092041615159101529050600d6000336001600160a01b0316815260208101919091526040016000908120906136f982826147e8565b60018201805460ff191690556137136002830160006147e8565b506000600382018190556004820181905560058201819055600682018190556007820155600801805462ffffff19169055600b5461375390600190615582565b600b55613773335b60608301516000546001600160a01b0316919061442b565b613782335b82608001516141d9565b336000818152600d6020526040908190206003810154600482015492517f10f84ef0773ba7ade3714f4e500ca17436e6df2b0feb99c754c04f889290cbd4936137cc939291615068565b60405180910390a260019150506120586001608a55565b6137eb613f09565b6121ad61444a565b806001600160a01b03811661381b5760405163d92e233d60e01b815260040160405180910390fd5b613823613f09565b6002546040517fd86d51326f3c88ea5365fba597a57273ae555e44f4b11658da952320d0beaa7591613862916001600160a01b03909116908590614f33565b60405180910390a16002546040516001600160a01b03909116907f90eabbc0c667db2a5029ed6bc0f5fe9f356d11684a4ca9fcfaec0e53f12b9c8e90600090a2600280546001600160a01b03908116600090815260126020526040808220805460ff1916905583549286166001600160a01b03199384168117909455601b8054909316841790925590517f86e57fd2b90329052917118de7c3f521f400d439b9650deaa906a25b08b945609190a250506002546001600160a01b03166000908152601260205260409020805460ff19166001179055565b613941613f09565b6001600160a01b0381166139a65760405162461bcd60e51b815260206004820152602660248201527f4f776e61626c653a206e6577206f776e657220697320746865207a65726f206160448201526564647265737360d01b6064820152608401610cb5565b6139af81614487565b50565b806001600160a01b0381166139da5760405163d92e233d60e01b815260040160405180910390fd5b6139e2613f09565b6001600160a01b03821660009081526012602052604090205460ff1615613a1b5760405162461bcd60e51b8152600401610cb5906151dd565b6001600160a01b038216600081815260126020526040808220805460ff19166001179055517f86e57fd2b90329052917118de7c3f521f400d439b9650deaa906a25b08b945609190a25050565b613a70613f09565b806001600160a01b038116613a985760405163d92e233d60e01b815260040160405180910390fd5b6000546040517f3e4520ab29fdd336aca22cca0657921e53eb42307038c1895b6b5e60eec3796f91613ad7916001600160a01b03909116908590614f33565b60405180910390a150600080546001600160a01b039092166001600160a01b0319928316811790915560198054909216179055565b6000613b16613f68565b336000908152600d602052604080822081516101608101909252805482908290613b3f906155d1565b80601f0160208091040260200160405190810160405280929190818152602001828054613b6b906155d1565b8015613bb85780601f10613b8d57610100808354040283529160200191613bb8565b820191906000526020600020905b815481529060010190602001808311613b9b57829003601f168201915b5050509183525050600182015460209091019060ff166005811115613bed57634e487b7160e01b600052602160045260246000fd5b6005811115613c0c57634e487b7160e01b600052602160045260246000fd5b8152602001600282018054613c20906155d1565b80601f0160208091040260200160405190810160405280929190818152602001828054613c4c906155d1565b8015613c995780601f10613c6e57610100808354040283529160200191613c99565b820191906000526020600020905b815481529060010190602001808311613c7c57829003601f168201915b505050918352505060038201546020820152600482015460408201526005820154606082015260068201546080820152600782015460a082015260089091015460ff808216151560c08401526101008083048216151560e08501526201000090920416151591810191909152810151909150613d275760405162461bcd60e51b8152600401610cb590615129565b613d303361224d565b15613d4d5760405162461bcd60e51b8152600401610cb59061521e565b60a081015115613d975760405162461bcd60e51b8152602060048201526015602482015274131bd8dad95c9cce880c081b995d081b5a5b9d1959605a1b6044820152606401610cb5565b60c081015115613de45760405162461bcd60e51b81526020600482015260186024820152774c6f636b6572733a203020736c617368696e67205442544360401b6044820152606401610cb5565b336000908152600d6020526040908190209051601091613e0391614eb0565b90815260405190819003602001902080546001600160a01b0319169055600d6000613e2b3390565b6001600160a01b031681526020810191909152604001600090812090613e5182826147e8565b60018201805460ff19169055613e6b6002830160006147e8565b506000600382018190556004820181905560058201819055600682018190556007820155600801805462ffffff19169055600c54613eab90600190615582565b600c55613eb73361375b565b613ec033613778565b336001600160a01b03167f628f3d67160bc1a892a1779c6475e128010a54df63af5dcdbf3c7b06ca5dfa978260000151836060015184608001516040516137cc93929190615043565b33613f12612472565b6001600160a01b0316146121ad5760405162461bcd60e51b815260206004820181905260248201527f4f776e61626c653a2063616c6c6572206973206e6f7420746865206f776e65726044820152606401610cb5565b6002608a541415613fbb5760405162461bcd60e51b815260206004820152601f60248201527f5265656e7472616e637947756172643a207265656e7472616e742063616c6c006044820152606401610cb5565b6002608a55565b60bc5460ff16156121ad5760405162461bcd60e51b815260206004820152601060248201526f14185d5cd8589b194e881c185d5cd95960821b6044820152606401610cb5565b6001608a55565b600885015460ff166140635760405162461bcd60e51b815260206004820181905260248201527f4c6f636b6572733a206163636f756e74206973206e6f742061206c6f636b65726044820152606401610cb5565b600085600501548560800151600a61407b91906154bb565b85610100015161408b9190615563565b8651600489015461409d908790615563565b6140a79190615563565b6140b19190615458565b6140bb9190615582565b90506000838660800151600a6140d191906154bb565b6140db9084615563565b6140e59190615458565b90508083111561414b5760405162461bcd60e51b815260206004820152602b60248201527f4c6f636b6572733a206d6f7265207468616e206d61782072656d6f7661626c6560448201526a0818dbdb1b185d195c985b60aa1b6064820152608401610cb5565b8460c001518388600401546141609190615582565b10156141b85760405162461bcd60e51b815260206004820152602160248201527f4c6f636b6572733a206c657373207468616e206d696e20636f6c6c61746572616044820152601b60fa1b6064820152608401610cb5565b8287600401546141c89190615582565b876004018190555050505050505050565b804710156142295760405162461bcd60e51b815260206004820152601d60248201527f416464726573733a20696e73756666696369656e742062616c616e63650000006044820152606401610cb5565b6000826001600160a01b03168260405160006040518083038185875af1925050503d8060008114614276576040519150601f19603f3d011682016040523d82523d6000602084013e61427b565b606091505b50509050806142ef5760405162461bcd60e51b815260206004820152603a60248201527f416464726573733a20756e61626c6520746f2073656e642076616c75652c20726044820152791958da5c1a595b9d081b585e481a185d99481c995d995c9d195960321b6064820152608401610cb5565b505050565b6142fc6144d9565b60bc805460ff191690557f5db9ee0a495bf2e6ff9c91a7834c1ba4fdd244a5e8aa4e537bd38aeae4b073aa335b6040516143369190614f1f565b60405180910390a1565b614398846323b872dd60e01b85858560405160240161436193929190614f4d565b60408051601f198184030181529190526020810180516001600160e01b03166001600160e01b031990931692909217909152614522565b50505050565b602554610100900460ff166143c55760405162461bcd60e51b8152600401610cb590615299565b6121ad6145f4565b602554610100900460ff166143f45760405162461bcd60e51b8152600401610cb590615299565b6121ad614624565b602554610100900460ff166144235760405162461bcd60e51b8152600401610cb590615299565b6121ad61464b565b6142ef8363a9059cbb60e01b8484604051602401614361929190614f71565b614452613fc2565b60bc805460ff191660011790557f62e78cea01bee320cd4e420270b5ea74000d11b0c9f74754ebdbfc544b05a2586143293390565b605880546001600160a01b038381166001600160a01b0319831681179093556040519116919082907f8be0079c531659141344cd1fd0a4f28419497f9722a3daafe3b4186f6b6457e090600090a35050565b60bc5460ff166121ad5760405162461bcd60e51b815260206004820152601460248201527314185d5cd8589b194e881b9bdd081c185d5cd95960621b6044820152606401610cb5565b6000614577826040518060400160405280602081526020017f5361666545524332303a206c6f772d6c6576656c2063616c6c206661696c6564815250856001600160a01b031661467e9092919063ffffffff16565b8051909150156142ef578080602001905181019061459591906149e9565b6142ef5760405162461bcd60e51b815260206004820152602a60248201527f5361666545524332303a204552433230206f7065726174696f6e20646964206e6044820152691bdd081cdd58d8d9595960b21b6064820152608401610cb5565b602554610100900460ff1661461b5760405162461bcd60e51b8152600401610cb590615299565b6121ad33614487565b602554610100900460ff166140085760405162461bcd60e51b8152600401610cb590615299565b602554610100900460ff166146725760405162461bcd60e51b8152600401610cb590615299565b60bc805460ff19169055565b606061468d8484600085614697565b90505b9392505050565b6060824710156146f85760405162461bcd60e51b815260206004820152602660248201527f416464726573733a20696e73756666696369656e742062616c616e636520666f6044820152651c8818d85b1b60d21b6064820152608401610cb5565b843b6147465760405162461bcd60e51b815260206004820152601d60248201527f416464726573733a2063616c6c20746f206e6f6e2d636f6e74726163740000006044820152606401610cb5565b600080866001600160a01b031685876040516147629190614e94565b60006040518083038185875af1925050503d806000811461479f576040519150601f19603f3d011682016040523d82523d6000602084013e6147a4565b606091505b5091509150612f05828286606083156147be575081614690565b8251156147ce5782518084602001fd5b8160405162461bcd60e51b8152600401610cb59190614fb1565b5080546147f4906155d1565b6000825580601f10614804575050565b601f0160209004906000526020600020908101906139af91905b80821115614832576000815560010161481e565b5090565b80356001600160a01b038116811461166057600080fd5b60008083601f84011261485e578081fd5b5081356001600160401b03811115614874578182fd5b60208301915083602082850101111561488c57600080fd5b9250929050565b6000602082840312156148a4578081fd5b61469082614836565b60008060008060008060008060006101208a8c0312156148cb578485fd5b6148d48a614836565b98506148e260208b01614836565b97506148f060408b01614836565b989b979a5097986060810135985060808101359760a0820135975060c0820135965060e08201359550610100909101359350915050565b60008060408385031215614939578182fd5b61494283614836565b946020939093013593505050565b60008060008060808587031215614965578384fd5b61496e85614836565b93506020850135925061498360408601614836565b9396929550929360600135925050565b600080600080600060a086880312156149aa578081fd5b6149b386614836565b9450602086013593506149c860408701614836565b9250606086013591506149dd60808701614836565b90509295509295909350565b6000602082840312156149fa578081fd5b81518015158114614690578182fd5b60008060208385031215614a1b578182fd5b82356001600160401b03811115614a30578283fd5b614a3c8582860161484d565b90969095509350505050565b60008060008060608587031215614a5d578384fd5b84356001600160401b03811115614a72578485fd5b614a7e8782880161484d565b9095509350614a91905060208601614836565b9396929550929360400135925050565b600080600060408486031215614ab5578283fd5b83356001600160401b03811115614aca578384fd5b614ad68682870161484d565b909790965060209590950135949350505050565b600080600080600080600060a0888a031215614b04578283fd5b87356001600160401b0380821115614b1a578485fd5b614b268b838c0161484d565b909950975060208a0135965060408a0135955060608a0135915060068210614b4c578485fd5b90935060808901359080821115614b61578384fd5b50614b6e8a828b0161484d565b989b979a50959850939692959293505050565b600060208284031215614b92578081fd5b81356001600160401b0380821115614ba8578283fd5b818401915084601f830112614bbb578283fd5b813581811115614bcd57614bcd61561c565b604051601f8201601f19908116603f01168101908382118183101715614bf557614bf561561c565b81604052828152876020848701011115614c0d578586fd5b826020860160208301379182016020019490945295945050505050565b600060208284031215614c3b578081fd5b5035919050565b600060208284031215614c53578081fd5b5051919050565b60008060408385031215614c6c578182fd5b505080516020909101519092909150565b6001600160a01b03169052565b81835281816020850137506000828201602090810191909152601f909101601f19169091010190565b60008151808452614ccb8160208601602086016155a5565b601f01601f19169290920160200192915050565b60008154614cec816155d1565b808552602060018381168015614d095760018114614d1d57614d4b565b60ff19851688840152604088019550614d4b565b866000528260002060005b85811015614d435781548a8201860152908301908401614d28565b890184019650505b505050505092915050565b60068110614d7457634e487b7160e01b600052602160045260246000fd5b9052565b8054825260018101546020830152600281015460408301526003810154606083015260048101546080830152600501546001600160a01b031660a090910152565b614dcc82614dc78354615599565b614c7d565b614dd96001820154615599565b614de66020840182614c7d565b50614df46002820154615599565b614e016040840182614c7d565b50614e0f6003820154615599565b614e1c6060840182614c7d565b50614e2a6004820154615599565b614e376080840182614c7d565b50600581015460a0830152600681015460c0830152600781015460e083015260088101546101008301526009810154610120830152600a810154610140830152600b015461016090910152565b8183823760009101908152919050565b60008251614ea68184602087016155a5565b9190910192915050565b6000808354614ebe816155d1565b60018281168015614ed65760018114614ee757614f13565b60ff19841687528287019450614f13565b8786526020808720875b85811015614f0a5781548a820152908401908201614ef1565b50505082870194505b50929695505050505050565b6001600160a01b0391909116815260200190565b6001600160a01b0392831681529116602082015260400190565b6001600160a01b039384168152919092166020820152604081019190915260600190565b6001600160a01b03929092168252602082015260400190565b606081526000614f9e606083018688614c8a565b6020830194909452506040015292915050565b6020815260006146906020830184614cb3565b6000610160808352614fd88184018f614cb3565b9050614fe7602084018e614d56565b8281036040840152614ff9818d614cb3565b606084019b909b525050608081019790975260a087019590955260c086019390935260e0850191909152151561010084015215156101208301521515610140909101529392505050565b6060815260006150566060830186614cb3565b60208301949094525060400152919050565b6060815260006150566060830186614cdf565b60808152600061508e6080830187614cdf565b6020830195909552506040810192909252606090910152919050565b60006102608c83526150bf602084018d614db9565b6001600160a01b038b166101a08401526101c083018a90526101e0830189905261020083018190526150f4818401888a614c8a565b9050615104610220840187614d56565b828103610240840152615118818587614c8a565b9d9c50505050505050505050505050565b6020808252601290820152712637b1b5b2b9399d103737903637b1b5b2b960711b604082015260600190565b60208082526023908201527f4c6f636b6572733a206163636f756e7420646f6573206e6f74206861766520726040820152626f6c6560e81b606082015260800190565b60208082526025908201527f4c6f636b6572733a206d6573736167652073656e646572206973206e6f74206360408201526431a13ab93760d91b606082015260800190565b60208082526021908201527f4c6f636b6572733a206163636f756e7420616c72656164792068617320726f6c6040820152606560f81b606082015260800190565b6020808252601590820152744c6f636b6572733a207374696c6c2061637469766560581b604082015260600190565b6020808252602c908201527f4c6f636b6572733a20696e7075742061646472657373206973206e6f7420612060408201526b3b30b634b2103637b1b5b2b960a11b606082015260800190565b6020808252602b908201527f496e697469616c697a61626c653a20636f6e7472616374206973206e6f74206960408201526a6e697469616c697a696e6760a81b606082015260800190565b6020808252601590820152742637b1b5b2b9399d1036bab9ba1021a9101f10262960591b604082015260600190565b83815261026081016153286020830185614d78565b61314f60e0830184614db9565b848152610280810161534a6020830186614d78565b61535760e0830185614db9565b8261026083015295945050505050565b8581526102a0810161537c6020830187614d78565b61538960e0830186614db9565b61026082019390935261028001529392505050565b61024081016153ad8285614d78565b61469060c0830184614db9565b85815260a0602082015260006153d360a0830187614cb3565b6153e06040840187614d56565b82810360608401526153f28186614cb3565b9150508260808301529695505050505050565b9283526020830191909152604082015260600190565b9485526020850193909352604084019190915260608301521515608082015260a00190565b6000821982111561545357615453615606565b500190565b60008261547357634e487b7160e01b81526012600452602481fd5b500490565b600181815b808511156154b357816000190482111561549957615499615606565b808516156154a657918102915b93841c939080029061547d565b509250929050565b600061469083836000826154d1575060016123c0565b816154de575060006123c0565b81600181146154f457600281146154fe5761551a565b60019150506123c0565b60ff84111561550f5761550f615606565b50506001821b6123c0565b5060208310610133831016604e8410600b841016171561553d575081810a6123c0565b6155478383615478565b806000190482111561555b5761555b615606565b029392505050565b600081600019048311821515161561557d5761557d615606565b500290565b60008282101561559457615594615606565b500390565b6001600160a01b031690565b60005b838110156155c05781810151838201526020016155a8565b838111156143985750506000910152565b600181811c908216806155e557607f821691505b60208210811415611e8857634e487b7160e01b600052602260045260246000fd5b634e487b7160e01b600052601160045260246000fd5b634e487b7160e01b600052604160045260246000fdfea26469706673582212206ac5272abee678ae2b8cc2a7b34e0e214456637f2014f6c49a50aac37665a61864736f6c63430008040033",
  "libraries": {
    "LockersManagerLib": "0xe73289415e355abf9bd43f35b2034c6d6377198d"
  },
  "devdoc": {
    "kind": "dev",
    "methods": {
      "addCollateral(address,uint256)": {
        "params": {
          "_addingNativeTokenAmount": "Amount of added collateral",
          "_lockerTargetAddress": "Locker's target chain address"
        },
        "returns": {
          "_0": "True if collateral is added successfully"
        }
      },
      "addLocker(address)": {
        "details": "Only owner can call this. The isCandidate is also set to false.",
        "params": {
          "_lockerTargetAddress": "Locker's target chain address"
        },
        "returns": {
          "_0": "True if the candidate is added successfully"
        }
      },
      "burn(bytes,uint256)": {
        "details": "Burn teleBTC and also get the locker's fee",
        "params": {
          "_amount": "Amount of the teleBTC which is minted, including the locker's fee",
          "_lockerLockingScript": "Locking script of a locker"
        },
        "returns": {
          "_0": "uint                  The amount of teleBTC burnt"
        }
      },
      "buySlashedCollateralOfLocker(address,uint256)": {
        "details": "Users buy the slashed collateral using TeleBTC with discount                                   The paid TeleBTC will be burnt to keep the system safe                                   If all the needed TeleBTC is collected and burnt,                                   the rest of slashed collateral is sent back to locker",
        "params": {
          "_collateralAmount": "Amount of collateral (TNT) that someone intends to buy with discount",
          "_lockerTargetAddress": "Locker's target chain address"
        },
        "returns": {
          "_0": "True if buying was successful"
        }
      },
      "getLockerCapacity(address)": {
        "params": {
          "_lockerTargetAddress": "Locker's target chain address"
        }
      },
      "isLockerActive(address)": {
        "details": "We check a locker status in below cases:                                     1. Minting TeleBTC                                     2. Removing locker's collateral                                     3. Removing locker",
        "params": {
          "_lockerTargetAddress": "Address of locker on the target chain"
        },
        "returns": {
          "_0": "True if the locker is active"
        }
      },
      "liquidateLocker(address,uint256)": {
        "details": "Anyone can liquidate Locker with health factor under      100% by providing a sufficient amount of TeleBTC.",
        "params": {
          "_collateralAmount": "Amount of TNT collateral that someone wants to buy with discount",
          "_lockerTargetAddress": "Locker's target chain address"
        },
        "returns": {
          "_0": "True if liquidation was successful"
        }
      },
      "mint(bytes,address,uint256)": {
        "details": "Mint teleBTC for an account and the locker fee as well",
        "params": {
          "_amount": "Amount of the teleBTC which is minted, including the locker's fee",
          "_lockerLockingScript": "Locking script of a locker",
          "_receiver": "Address of the receiver of the minted teleBTCs"
        },
        "returns": {
          "_0": "uint                  The amount of teleBTC minted for the receiver"
        }
      },
      "owner()": {
        "details": "Returns the address of the current owner."
      },
      "pauseLocker()": {
        "details": "Only functions with whenPaused modifier can be called"
      },
      "paused()": {
        "details": "Returns true if the contract is paused, and false otherwise."
      },
      "priceOfOneUnitOfCollateralInBTC()": {
        "details": "Returns the price of one native token (1*10^18) in teleBTC",
        "returns": {
          "_0": "uint The price of one unit of collateral token (native token in teleBTC)"
        }
      },
      "removeCollateral(uint256)": {
        "params": {
          "_removingNativeTokenAmount": "Amount of removed collateral"
        },
        "returns": {
          "_0": "True if collateral is removed successfully"
        }
      },
      "renounceOwnership()": {
        "details": "Leaves the contract without owner. It will not be possible to call `onlyOwner` functions. Can only be called by the current owner. NOTE: Renouncing ownership will leave the contract without an owner, thereby disabling any functionality that is only available to the owner."
      },
      "requestActivation()": {
        "details": "Users can only mint TeleBTC by active locker      Note: lockerInactivationTimestamp = 0 means that the Locker is active",
        "returns": {
          "_0": "True if activated successfully"
        }
      },
      "requestInactivation()": {
        "details": "This would inactivate Locker after INACTIVATION_DELAY. The impact of inactivation is:      1. No one can mint TeleBTC by the Locker      2. Locker can be removed      3. Locker can withdraw unused collateral",
        "returns": {
          "_0": "True if deactivated successfully"
        }
      },
      "requestToBecomeLocker(bytes,uint256,uint256,uint8,bytes)": {
        "details": "This request may be approved by the owner",
        "params": {
          "_candidateLockingScript": "Locking script of the Locker. Users can use this script to lock BTC.",
          "_lockedNativeTokenAmount": "TNT (target native token) bond amount",
          "_lockedTSTAmount": "TST bond amount",
          "_lockerRescueScript": "Rescue script of Locker. In the case of liqudation, BTC is sent to this script.",
          "_lockerRescueType": "Type of Locker's rescue script (e.g. P2SH)"
        },
        "returns": {
          "_0": "True if candidate added successfully"
        }
      },
      "revokeRequest()": {
        "details": "Send back TST and TNT collateral to the candidate",
        "returns": {
          "_0": "True if the candidate is removed successfully"
        }
      },
      "selfRemoveLocker()": {
        "details": "Only Locker can call this. The conditions for successful remove is:      1. Locker has been inactivated      2. Locker net minted TeleBTC is 0      3. Locker is not being slashed",
        "returns": {
          "_0": "True if locker is removed successfully"
        }
      },
      "setCollateralRatio(uint256)": {
        "details": "This ratio is used to calculate the maximum mintable TeleBTC by a Locker"
      },
      "setLockerPercentageFee(uint256)": {
        "details": "This fee is taken by Locker for every minting or burning"
      },
      "setPriceOracle(address)": {
        "details": "This oracle is used to get the price of native token in BTC"
      },
      "setPriceWithDiscountRatio(uint256)": {
        "details": "This ratio gives discount to users who participate in Locker liquidation"
      },
      "slashIdleLocker(address,uint256,address,uint256,address)": {
        "details": "Only burn router can call this. Locker is slashed since he doesn't provide burn proof      before the request deadline. User who made the burn request will receive the slashed bond.",
        "params": {
          "_amount": "Amount of TeleBTC that is slashed from Locker",
          "_lockerTargetAddress": "Locker's target chain address",
          "_recipient": "Address of user who receives the slashed collateral",
          "_rewardAmount": "Amount of TeleBTC that slasher receives",
          "_slasher": "Address of slasher who receives reward"
        },
        "returns": {
          "_0": "True if the locker is slashed successfully"
        }
      },
      "slashThiefLocker(address,uint256,address,uint256)": {
        "details": "Only burn router can call. Locker is slashed because he moved BTC from      Locker's Bitcoin address without any corresponding burn req.      The slashed bond will be sold with discount.",
        "params": {
          "_amount": "Value of slashed collateral (in TeleBTC)",
          "_lockerTargetAddress": "Locker's target chain address",
          "_rewardAmount": "Value of slashed reward (in TeleBTC)",
          "_slasher": "Address of slasher who receives reward"
        },
        "returns": {
          "_0": "True if the locker is slashed successfully"
        }
      },
      "transferOwnership(address)": {
        "details": "Transfers ownership of the contract to a new account (`newOwner`). Can only be called by the current owner."
      },
      "unPauseLocker()": {
        "details": "Only functions with whenNotPaused modifier can be called"
      }
    },
    "version": 1
  },
  "userdoc": {
    "kind": "user",
    "methods": {
      "addBurner(address)": {
        "notice": "Give an account access to burn"
      },
      "addCollateral(address,uint256)": {
        "notice": "Increases TNT collateral of the locker"
      },
      "addLocker(address)": {
        "notice": "Approve the candidate request to become Locker"
      },
      "addMinter(address)": {
        "notice": "Give an account access to mint"
      },
      "burn(bytes,uint256)": {
        "notice": "Burn teleBTC of an account"
      },
      "buySlashedCollateralOfLocker(address,uint256)": {
        "notice": "Sells lockers slashed collateral"
      },
      "getLockerCapacity(address)": {
        "notice": "Return how much TeleBTC can be minted by the Locker"
      },
      "getLockerLockingScript(address)": {
        "notice": "Return locking script of _lockerTargetAddress Locker"
      },
      "getLockerTargetAddress(bytes)": {
        "notice": "Return EVM address of _lockerLockingScript Locker"
      },
      "getNumberOfLockers()": {
        "notice": "Return total number of Lockers"
      },
      "isLocker(bytes)": {
        "notice": "Return true if _lockerLockingScript is Locker"
      },
      "isLockerActive(address)": {
        "notice": "Returns the Locker status"
      },
      "liquidateLocker(address,uint256)": {
        "notice": "Liquidate Locker with unhealthy collateral"
      },
      "mint(bytes,address,uint256)": {
        "notice": "Mint teleBTC for an account"
      },
      "pauseLocker()": {
        "notice": "Pause the contract"
      },
      "removeBurner(address)": {
        "notice": "Remove an account's access to burn"
      },
      "removeCollateral(uint256)": {
        "notice": "Decreases TNT collateral of the locker"
      },
      "removeMinter(address)": {
        "notice": "Remove an account's access to mint"
      },
      "requestActivation()": {
        "notice": "Activate Locker"
      },
      "requestInactivation()": {
        "notice": "Request to inactivate Locker"
      },
      "requestToBecomeLocker(bytes,uint256,uint256,uint8,bytes)": {
        "notice": "Submit request to become Locker"
      },
      "revokeRequest()": {
        "notice": "Revoke request to become Locker"
      },
      "selfRemoveLocker()": {
        "notice": "Removes Locker from system and send back Locker TST and TNT collateral."
      },
      "setCCBurnRouter(address)": {
        "notice": "Update burn router address"
      },
      "setCollateralRatio(uint256)": {
        "notice": "Update collateral ratio"
      },
      "setLiquidationRatio(uint256)": {
        "notice": "Update liquidation ratio"
      },
      "setLockerPercentageFee(uint256)": {
        "notice": "Update locker percentage fee"
      },
      "setMinRequiredTDTLockedAmount(uint256)": {
        "notice": "Update the required TST bond to become Locker"
      },
      "setMinRequiredTNTLockedAmount(uint256)": {
        "notice": "Update the required native token bond to become Locker"
      },
      "setPriceOracle(address)": {
        "notice": "Update the price oracle"
      },
      "setPriceWithDiscountRatio(uint256)": {
        "notice": "Update price with discount ratio"
      },
      "setTST(address)": {
        "notice": "Update TST contract address"
      },
      "setTeleBTC(address)": {
        "notice": "Update wrapped BTC address"
      },
      "slashIdleLocker(address,uint256,address,uint256,address)": {
        "notice": "Slash Locker for unprocessed unwrap request"
      },
      "slashThiefLocker(address,uint256,address,uint256)": {
        "notice": "Slash Locker for stealing users BTC"
      },
      "unPauseLocker()": {
        "notice": "Un-pause the contract"
      }
    },
    "version": 1
  },
  "storageLayout": {
    "storage": [
      {
        "astId": 11322,
        "contract": "contracts/lockersManager/LockersManagerLogic.sol:LockersManagerLogic",
        "label": "TeleportDAOToken",
        "offset": 0,
        "slot": "0",
        "type": "t_address"
      },
      {
        "astId": 11325,
        "contract": "contracts/lockersManager/LockersManagerLogic.sol:LockersManagerLogic",
        "label": "teleBTC",
        "offset": 0,
        "slot": "1",
        "type": "t_address"
      },
      {
        "astId": 11328,
        "contract": "contracts/lockersManager/LockersManagerLogic.sol:LockersManagerLogic",
        "label": "ccBurnRouter",
        "offset": 0,
        "slot": "2",
        "type": "t_address"
      },
      {
        "astId": 11331,
        "contract": "contracts/lockersManager/LockersManagerLogic.sol:LockersManagerLogic",
        "label": "exchangeConnector",
        "offset": 0,
        "slot": "3",
        "type": "t_address"
      },
      {
        "astId": 11334,
        "contract": "contracts/lockersManager/LockersManagerLogic.sol:LockersManagerLogic",
        "label": "priceOracle",
        "offset": 0,
        "slot": "4",
        "type": "t_address"
      },
      {
        "astId": 11337,
        "contract": "contracts/lockersManager/LockersManagerLogic.sol:LockersManagerLogic",
        "label": "minRequiredTDTLockedAmount",
        "offset": 0,
        "slot": "5",
        "type": "t_uint256"
      },
      {
        "astId": 11340,
        "contract": "contracts/lockersManager/LockersManagerLogic.sol:LockersManagerLogic",
        "label": "minRequiredTNTLockedAmount",
        "offset": 0,
        "slot": "6",
        "type": "t_uint256"
      },
      {
        "astId": 11343,
        "contract": "contracts/lockersManager/LockersManagerLogic.sol:LockersManagerLogic",
        "label": "lockerPercentageFee",
        "offset": 0,
        "slot": "7",
        "type": "t_uint256"
      },
      {
        "astId": 11346,
        "contract": "contracts/lockersManager/LockersManagerLogic.sol:LockersManagerLogic",
        "label": "collateralRatio",
        "offset": 0,
        "slot": "8",
        "type": "t_uint256"
      },
      {
        "astId": 11349,
        "contract": "contracts/lockersManager/LockersManagerLogic.sol:LockersManagerLogic",
        "label": "liquidationRatio",
        "offset": 0,
        "slot": "9",
        "type": "t_uint256"
      },
      {
        "astId": 11352,
        "contract": "contracts/lockersManager/LockersManagerLogic.sol:LockersManagerLogic",
        "label": "priceWithDiscountRatio",
        "offset": 0,
        "slot": "10",
        "type": "t_uint256"
      },
      {
        "astId": 11355,
        "contract": "contracts/lockersManager/LockersManagerLogic.sol:LockersManagerLogic",
        "label": "totalNumberOfCandidates",
        "offset": 0,
        "slot": "11",
        "type": "t_uint256"
      },
      {
        "astId": 11358,
        "contract": "contracts/lockersManager/LockersManagerLogic.sol:LockersManagerLogic",
        "label": "totalNumberOfLockers",
        "offset": 0,
        "slot": "12",
        "type": "t_uint256"
      },
      {
        "astId": 11363,
        "contract": "contracts/lockersManager/LockersManagerLogic.sol:LockersManagerLogic",
        "label": "lockersMapping",
        "offset": 0,
        "slot": "13",
        "type": "t_mapping(t_address,t_struct(locker)11419_storage)"
      },
      {
        "astId": 11367,
        "contract": "contracts/lockersManager/LockersManagerLogic.sol:LockersManagerLogic",
        "label": "lockerInactivationTimestamp",
        "offset": 0,
        "slot": "14",
        "type": "t_mapping(t_address,t_uint256)"
      },
      {
        "astId": 11371,
        "contract": "contracts/lockersManager/LockersManagerLogic.sol:LockersManagerLogic",
        "label": "lockerLeavingAcceptance",
        "offset": 0,
        "slot": "15",
        "type": "t_mapping(t_address,t_bool)"
      },
      {
        "astId": 11375,
        "contract": "contracts/lockersManager/LockersManagerLogic.sol:LockersManagerLogic",
        "label": "lockerTargetAddress",
        "offset": 0,
        "slot": "16",
        "type": "t_mapping(t_bytes_memory_ptr,t_address)"
      },
      {
        "astId": 11380,
        "contract": "contracts/lockersManager/LockersManagerLogic.sol:LockersManagerLogic",
        "label": "minters",
        "offset": 0,
        "slot": "17",
        "type": "t_mapping(t_address,t_bool)"
      },
      {
        "astId": 11385,
        "contract": "contracts/lockersManager/LockersManagerLogic.sol:LockersManagerLogic",
        "label": "burners",
        "offset": 0,
        "slot": "18",
        "type": "t_mapping(t_address,t_bool)"
      },
      {
        "astId": 11388,
        "contract": "contracts/lockersManager/LockersManagerLogic.sol:LockersManagerLogic",
        "label": "libConstants",
        "offset": 0,
        "slot": "19",
        "type": "t_struct(lockersLibConstants)11432_storage"
      },
      {
        "astId": 11391,
        "contract": "contracts/lockersManager/LockersManagerLogic.sol:LockersManagerLogic",
        "label": "libParams",
        "offset": 0,
        "slot": "25",
        "type": "t_struct(lockersLibParam)11457_storage"
      },
      {
        "astId": 280,
        "contract": "contracts/lockersManager/LockersManagerLogic.sol:LockersManagerLogic",
        "label": "_initialized",
        "offset": 0,
        "slot": "37",
        "type": "t_uint8"
      },
      {
        "astId": 283,
        "contract": "contracts/lockersManager/LockersManagerLogic.sol:LockersManagerLogic",
        "label": "_initializing",
        "offset": 1,
        "slot": "37",
        "type": "t_bool"
      },
      {
        "astId": 1113,
        "contract": "contracts/lockersManager/LockersManagerLogic.sol:LockersManagerLogic",
        "label": "__gap",
        "offset": 0,
        "slot": "38",
        "type": "t_array(t_uint256)50_storage"
      },
      {
        "astId": 152,
        "contract": "contracts/lockersManager/LockersManagerLogic.sol:LockersManagerLogic",
        "label": "_owner",
        "offset": 0,
        "slot": "88",
        "type": "t_address"
      },
      {
        "astId": 272,
        "contract": "contracts/lockersManager/LockersManagerLogic.sol:LockersManagerLogic",
        "label": "__gap",
        "offset": 0,
        "slot": "89",
        "type": "t_array(t_uint256)49_storage"
      },
      {
        "astId": 585,
        "contract": "contracts/lockersManager/LockersManagerLogic.sol:LockersManagerLogic",
        "label": "_status",
        "offset": 0,
        "slot": "138",
        "type": "t_uint256"
      },
      {
        "astId": 654,
        "contract": "contracts/lockersManager/LockersManagerLogic.sol:LockersManagerLogic",
        "label": "__gap",
        "offset": 0,
        "slot": "139",
        "type": "t_array(t_uint256)49_storage"
      },
      {
        "astId": 464,
        "contract": "contracts/lockersManager/LockersManagerLogic.sol:LockersManagerLogic",
        "label": "_paused",
        "offset": 0,
        "slot": "188",
        "type": "t_bool"
      },
      {
        "astId": 569,
        "contract": "contracts/lockersManager/LockersManagerLogic.sol:LockersManagerLogic",
        "label": "__gap",
        "offset": 0,
        "slot": "189",
        "type": "t_array(t_uint256)49_storage"
      }
    ],
    "types": {
      "t_address": {
        "encoding": "inplace",
        "label": "address",
        "numberOfBytes": "20"
      },
      "t_array(t_uint256)49_storage": {
        "base": "t_uint256",
        "encoding": "inplace",
        "label": "uint256[49]",
        "numberOfBytes": "1568"
      },
      "t_array(t_uint256)50_storage": {
        "base": "t_uint256",
        "encoding": "inplace",
        "label": "uint256[50]",
        "numberOfBytes": "1600"
      },
      "t_bool": {
        "encoding": "inplace",
        "label": "bool",
        "numberOfBytes": "1"
      },
      "t_bytes_memory_ptr": {
        "encoding": "bytes",
        "label": "bytes",
        "numberOfBytes": "32"
      },
      "t_bytes_storage": {
        "encoding": "bytes",
        "label": "bytes",
        "numberOfBytes": "32"
      },
      "t_enum(ScriptTypes)7072": {
        "encoding": "inplace",
        "label": "enum ScriptTypes",
        "numberOfBytes": "1"
      },
      "t_mapping(t_address,t_bool)": {
        "encoding": "mapping",
        "key": "t_address",
        "label": "mapping(address => bool)",
        "numberOfBytes": "32",
        "value": "t_bool"
      },
      "t_mapping(t_address,t_struct(locker)11419_storage)": {
        "encoding": "mapping",
        "key": "t_address",
        "label": "mapping(address => struct ILockersManager.locker)",
        "numberOfBytes": "32",
        "value": "t_struct(locker)11419_storage"
      },
      "t_mapping(t_address,t_uint256)": {
        "encoding": "mapping",
        "key": "t_address",
        "label": "mapping(address => uint256)",
        "numberOfBytes": "32",
        "value": "t_uint256"
      },
      "t_mapping(t_bytes_memory_ptr,t_address)": {
        "encoding": "mapping",
        "key": "t_bytes_memory_ptr",
        "label": "mapping(bytes => address)",
        "numberOfBytes": "32",
        "value": "t_address"
      },
      "t_struct(locker)11419_storage": {
        "encoding": "inplace",
        "label": "struct ILockersManager.locker",
        "members": [
          {
            "astId": 11397,
            "contract": "contracts/lockersManager/LockersManagerLogic.sol:LockersManagerLogic",
            "label": "lockerLockingScript",
            "offset": 0,
            "slot": "0",
            "type": "t_bytes_storage"
          },
          {
            "astId": 11400,
            "contract": "contracts/lockersManager/LockersManagerLogic.sol:LockersManagerLogic",
            "label": "lockerRescueType",
            "offset": 0,
            "slot": "1",
            "type": "t_enum(ScriptTypes)7072"
          },
          {
            "astId": 11402,
            "contract": "contracts/lockersManager/LockersManagerLogic.sol:LockersManagerLogic",
            "label": "lockerRescueScript",
            "offset": 0,
            "slot": "2",
            "type": "t_bytes_storage"
          },
          {
            "astId": 11404,
            "contract": "contracts/lockersManager/LockersManagerLogic.sol:LockersManagerLogic",
            "label": "TDTLockedAmount",
            "offset": 0,
            "slot": "3",
            "type": "t_uint256"
          },
          {
            "astId": 11406,
            "contract": "contracts/lockersManager/LockersManagerLogic.sol:LockersManagerLogic",
            "label": "nativeTokenLockedAmount",
            "offset": 0,
            "slot": "4",
            "type": "t_uint256"
          },
          {
            "astId": 11408,
            "contract": "contracts/lockersManager/LockersManagerLogic.sol:LockersManagerLogic",
            "label": "netMinted",
            "offset": 0,
            "slot": "5",
            "type": "t_uint256"
          },
          {
            "astId": 11410,
            "contract": "contracts/lockersManager/LockersManagerLogic.sol:LockersManagerLogic",
            "label": "slashingTeleBTCAmount",
            "offset": 0,
            "slot": "6",
            "type": "t_uint256"
          },
          {
            "astId": 11412,
            "contract": "contracts/lockersManager/LockersManagerLogic.sol:LockersManagerLogic",
            "label": "reservedNativeTokenForSlash",
            "offset": 0,
            "slot": "7",
            "type": "t_uint256"
          },
          {
            "astId": 11414,
            "contract": "contracts/lockersManager/LockersManagerLogic.sol:LockersManagerLogic",
            "label": "isLocker",
            "offset": 0,
            "slot": "8",
            "type": "t_bool"
          },
          {
            "astId": 11416,
            "contract": "contracts/lockersManager/LockersManagerLogic.sol:LockersManagerLogic",
            "label": "isCandidate",
            "offset": 1,
            "slot": "8",
            "type": "t_bool"
          },
          {
            "astId": 11418,
            "contract": "contracts/lockersManager/LockersManagerLogic.sol:LockersManagerLogic",
            "label": "isScriptHash",
            "offset": 2,
            "slot": "8",
            "type": "t_bool"
          }
        ],
        "numberOfBytes": "288"
      },
      "t_struct(lockersLibConstants)11432_storage": {
        "encoding": "inplace",
        "label": "struct ILockersManager.lockersLibConstants",
        "members": [
          {
            "astId": 11421,
            "contract": "contracts/lockersManager/LockersManagerLogic.sol:LockersManagerLogic",
            "label": "OneHundredPercent",
            "offset": 0,
            "slot": "0",
            "type": "t_uint256"
          },
          {
            "astId": 11423,
            "contract": "contracts/lockersManager/LockersManagerLogic.sol:LockersManagerLogic",
            "label": "HealthFactor",
            "offset": 0,
            "slot": "1",
            "type": "t_uint256"
          },
          {
            "astId": 11425,
            "contract": "contracts/lockersManager/LockersManagerLogic.sol:LockersManagerLogic",
            "label": "UpperHealthFactor",
            "offset": 0,
            "slot": "2",
            "type": "t_uint256"
          },
          {
            "astId": 11427,
            "contract": "contracts/lockersManager/LockersManagerLogic.sol:LockersManagerLogic",
            "label": "MaxLockerFee",
            "offset": 0,
            "slot": "3",
            "type": "t_uint256"
          },
          {
            "astId": 11429,
            "contract": "contracts/lockersManager/LockersManagerLogic.sol:LockersManagerLogic",
            "label": "NativeTokenDecimal",
            "offset": 0,
            "slot": "4",
            "type": "t_uint256"
          },
          {
            "astId": 11431,
            "contract": "contracts/lockersManager/LockersManagerLogic.sol:LockersManagerLogic",
            "label": "NativeToken",
            "offset": 0,
            "slot": "5",
            "type": "t_address"
          }
        ],
        "numberOfBytes": "192"
      },
      "t_struct(lockersLibParam)11457_storage": {
        "encoding": "inplace",
        "label": "struct ILockersManager.lockersLibParam",
        "members": [
          {
            "astId": 11434,
            "contract": "contracts/lockersManager/LockersManagerLogic.sol:LockersManagerLogic",
            "label": "teleportDAOToken",
            "offset": 0,
            "slot": "0",
            "type": "t_address"
          },
          {
            "astId": 11436,
            "contract": "contracts/lockersManager/LockersManagerLogic.sol:LockersManagerLogic",
            "label": "teleBTC",
            "offset": 0,
            "slot": "1",
            "type": "t_address"
          },
          {
            "astId": 11438,
            "contract": "contracts/lockersManager/LockersManagerLogic.sol:LockersManagerLogic",
            "label": "ccBurnRouter",
            "offset": 0,
            "slot": "2",
            "type": "t_address"
          },
          {
            "astId": 11440,
            "contract": "contracts/lockersManager/LockersManagerLogic.sol:LockersManagerLogic",
            "label": "exchangeConnector",
            "offset": 0,
            "slot": "3",
            "type": "t_address"
          },
          {
            "astId": 11442,
            "contract": "contracts/lockersManager/LockersManagerLogic.sol:LockersManagerLogic",
            "label": "priceOracle",
            "offset": 0,
            "slot": "4",
            "type": "t_address"
          },
          {
            "astId": 11444,
            "contract": "contracts/lockersManager/LockersManagerLogic.sol:LockersManagerLogic",
            "label": "minRequiredTDTLockedAmount",
            "offset": 0,
            "slot": "5",
            "type": "t_uint256"
          },
          {
            "astId": 11446,
            "contract": "contracts/lockersManager/LockersManagerLogic.sol:LockersManagerLogic",
            "label": "minRequiredTNTLockedAmount",
            "offset": 0,
            "slot": "6",
            "type": "t_uint256"
          },
          {
            "astId": 11448,
            "contract": "contracts/lockersManager/LockersManagerLogic.sol:LockersManagerLogic",
            "label": "lockerPercentageFee",
            "offset": 0,
            "slot": "7",
            "type": "t_uint256"
          },
          {
            "astId": 11450,
            "contract": "contracts/lockersManager/LockersManagerLogic.sol:LockersManagerLogic",
            "label": "collateralRatio",
            "offset": 0,
            "slot": "8",
            "type": "t_uint256"
          },
          {
            "astId": 11452,
            "contract": "contracts/lockersManager/LockersManagerLogic.sol:LockersManagerLogic",
            "label": "liquidationRatio",
            "offset": 0,
            "slot": "9",
            "type": "t_uint256"
          },
          {
            "astId": 11454,
            "contract": "contracts/lockersManager/LockersManagerLogic.sol:LockersManagerLogic",
            "label": "priceWithDiscountRatio",
            "offset": 0,
            "slot": "10",
            "type": "t_uint256"
          },
          {
            "astId": 11456,
            "contract": "contracts/lockersManager/LockersManagerLogic.sol:LockersManagerLogic",
            "label": "inactivationDelay",
            "offset": 0,
            "slot": "11",
            "type": "t_uint256"
          }
        ],
        "numberOfBytes": "384"
      },
      "t_uint256": {
        "encoding": "inplace",
        "label": "uint256",
        "numberOfBytes": "32"
      },
      "t_uint8": {
        "encoding": "inplace",
        "label": "uint8",
        "numberOfBytes": "1"
      }
    }
  }
}