{
  "address": "0xaDb6ed255A6c692CF01946Ce254DB35F34fd2893",
  "abi": [
    {
      "inputs": [],
      "name": "ZeroAddress",
      "type": "error"
    },
    {
      "inputs": [],
      "name": "ZeroValue",
      "type": "error"
    },
    {
      "anonymous": false,
      "inputs": [
        {
          "indexed": true,
          "internalType": "address",
          "name": "lockerTargetAddress",
          "type": "address"
        },
        {
          "indexed": false,
          "internalType": "bytes",
          "name": "lockerLockingScript",
          "type": "bytes"
        },
        {
          "indexed": false,
          "internalType": "uint256",
          "name": "TDTLockedAmount",
          "type": "uint256"
        },
        {
          "indexed": false,
          "internalType": "uint256",
          "name": "nativeTokenLockedAmount",
          "type": "uint256"
        },
        {
          "indexed": false,
          "internalType": "uint256",
          "name": "netMinted",
          "type": "uint256"
        }
      ],
      "name": "ActivateLocker",
      "type": "event"
    },
    {
      "anonymous": false,
      "inputs": [
        {
          "indexed": true,
          "internalType": "address",
          "name": "lockerTargetAddress",
          "type": "address"
        },
        {
          "indexed": false,
          "internalType": "uint256",
          "name": "burntAmount",
          "type": "uint256"
        },
        {
          "indexed": false,
          "internalType": "uint256",
          "name": "lockerFee",
          "type": "uint256"
        },
        {
          "indexed": false,
          "internalType": "uint256",
          "name": "burningTime",
          "type": "uint256"
        }
      ],
      "name": "BurnByLocker",
      "type": "event"
    },
    {
      "anonymous": false,
      "inputs": [
        {
          "indexed": true,
          "internalType": "address",
          "name": "account",
          "type": "address"
        }
      ],
      "name": "BurnerAdded",
      "type": "event"
    },
    {
      "anonymous": false,
      "inputs": [
        {
          "indexed": true,
          "internalType": "address",
          "name": "account",
          "type": "address"
        }
      ],
      "name": "BurnerRemoved",
      "type": "event"
    },
    {
      "anonymous": false,
      "inputs": [
        {
          "indexed": true,
          "internalType": "address",
          "name": "lockerTargetAddress",
          "type": "address"
        },
        {
          "indexed": false,
          "internalType": "uint256",
          "name": "addedCollateral",
          "type": "uint256"
        },
        {
          "indexed": false,
          "internalType": "uint256",
          "name": "totalCollateral",
          "type": "uint256"
        },
        {
          "indexed": false,
          "internalType": "uint256",
          "name": "addingTime",
          "type": "uint256"
        }
      ],
      "name": "CollateralAdded",
      "type": "event"
    },
    {
      "anonymous": false,
      "inputs": [
        {
          "indexed": true,
          "internalType": "address",
          "name": "lockerTargetAddress",
          "type": "address"
        },
        {
          "indexed": false,
          "internalType": "uint256",
          "name": "removedCollateral",
          "type": "uint256"
        },
        {
          "indexed": false,
          "internalType": "uint256",
          "name": "totalCollateral",
          "type": "uint256"
        },
        {
          "indexed": false,
          "internalType": "uint256",
          "name": "removingTime",
          "type": "uint256"
        }
      ],
      "name": "CollateralRemoved",
      "type": "event"
    },
    {
      "anonymous": false,
      "inputs": [
        {
          "indexed": false,
          "internalType": "uint8",
          "name": "version",
          "type": "uint8"
        }
      ],
      "name": "Initialized",
      "type": "event"
    },
    {
      "anonymous": false,
      "inputs": [
        {
          "indexed": true,
          "internalType": "address",
          "name": "lockerTargetAddress",
          "type": "address"
        },
        {
          "indexed": false,
          "internalType": "bytes",
          "name": "lockerLockingScript",
          "type": "bytes"
        },
        {
          "indexed": false,
          "internalType": "uint256",
          "name": "TDTLockedAmount",
          "type": "uint256"
        },
        {
          "indexed": false,
          "internalType": "uint256",
          "name": "nativeTokenLockedAmount",
          "type": "uint256"
        },
        {
          "indexed": false,
          "internalType": "uint256",
          "name": "addingTime",
          "type": "uint256"
        }
      ],
      "name": "LockerAdded",
      "type": "event"
    },
    {
      "anonymous": false,
      "inputs": [
        {
          "indexed": true,
          "internalType": "address",
          "name": "lockerTargetAddress",
          "type": "address"
        },
        {
          "indexed": true,
          "internalType": "address",
          "name": "liquidatorAddress",
          "type": "address"
        },
        {
          "indexed": false,
          "internalType": "uint256",
          "name": "collateralAmount",
          "type": "uint256"
        },
        {
          "indexed": false,
          "internalType": "uint256",
          "name": "teleBTCAmount",
          "type": "uint256"
        },
        {
          "indexed": false,
          "internalType": "uint256",
          "name": "liquidateTime",
          "type": "uint256"
        }
      ],
      "name": "LockerLiquidated",
      "type": "event"
    },
    {
      "anonymous": false,
      "inputs": [
        {
          "indexed": true,
          "internalType": "address",
          "name": "lockerTargetAddress",
          "type": "address"
        },
        {
          "indexed": false,
          "internalType": "bytes",
          "name": "lockerLockingScript",
          "type": "bytes"
        },
        {
          "indexed": false,
          "internalType": "uint256",
          "name": "TDTUnlockedAmount",
          "type": "uint256"
        },
        {
          "indexed": false,
          "internalType": "uint256",
          "name": "nativeTokenUnlockedAmount",
          "type": "uint256"
        }
      ],
      "name": "LockerRemoved",
      "type": "event"
    },
    {
      "anonymous": false,
      "inputs": [
        {
          "indexed": true,
          "internalType": "address",
          "name": "lockerTargetAddress",
          "type": "address"
        },
        {
          "indexed": false,
          "internalType": "uint256",
          "name": "rewardAmount",
          "type": "uint256"
        },
        {
          "indexed": true,
          "internalType": "address",
          "name": "rewardRecipient",
          "type": "address"
        },
        {
          "indexed": false,
          "internalType": "uint256",
          "name": "amount",
          "type": "uint256"
        },
        {
          "indexed": true,
          "internalType": "address",
          "name": "recipient",
          "type": "address"
        },
        {
          "indexed": false,
          "internalType": "uint256",
          "name": "slashedCollateralAmount",
          "type": "uint256"
        },
        {
          "indexed": false,
          "internalType": "uint256",
          "name": "slashTime",
          "type": "uint256"
        },
        {
          "indexed": false,
          "internalType": "bool",
          "name": "isForCCBurn",
          "type": "bool"
        }
      ],
      "name": "LockerSlashed",
      "type": "event"
    },
    {
      "anonymous": false,
      "inputs": [
        {
          "indexed": true,
          "internalType": "address",
          "name": "lockerTargetAddress",
          "type": "address"
        },
        {
          "indexed": true,
          "internalType": "address",
          "name": "buyerAddress",
          "type": "address"
        },
        {
          "indexed": false,
          "internalType": "uint256",
          "name": "slashingAmount",
          "type": "uint256"
        },
        {
          "indexed": false,
          "internalType": "uint256",
          "name": "teleBTCAmount",
          "type": "uint256"
        },
        {
          "indexed": false,
          "internalType": "uint256",
          "name": "slashingTime",
          "type": "uint256"
        }
      ],
      "name": "LockerSlashedCollateralSold",
      "type": "event"
    },
    {
      "anonymous": false,
      "inputs": [
        {
          "indexed": true,
          "internalType": "address",
          "name": "lockerTargetAddress",
          "type": "address"
        },
        {
          "indexed": true,
          "internalType": "address",
          "name": "receiver",
          "type": "address"
        },
        {
          "indexed": false,
          "internalType": "uint256",
          "name": "mintedAmount",
          "type": "uint256"
        },
        {
          "indexed": false,
          "internalType": "uint256",
          "name": "lockerFee",
          "type": "uint256"
        },
        {
          "indexed": false,
          "internalType": "uint256",
          "name": "mintingTime",
          "type": "uint256"
        }
      ],
      "name": "MintByLocker",
      "type": "event"
    },
    {
      "anonymous": false,
      "inputs": [
        {
          "indexed": true,
          "internalType": "address",
          "name": "account",
          "type": "address"
        }
      ],
      "name": "MinterAdded",
      "type": "event"
    },
    {
      "anonymous": false,
      "inputs": [
        {
          "indexed": true,
          "internalType": "address",
          "name": "account",
          "type": "address"
        }
      ],
      "name": "MinterRemoved",
      "type": "event"
    },
    {
      "anonymous": false,
      "inputs": [
        {
          "indexed": false,
          "internalType": "address",
          "name": "oldCCBurnRouter",
          "type": "address"
        },
        {
          "indexed": false,
          "internalType": "address",
          "name": "newCCBurnRouter",
          "type": "address"
        }
      ],
      "name": "NewCCBurnRouter",
      "type": "event"
    },
    {
      "anonymous": false,
      "inputs": [
        {
          "indexed": false,
          "internalType": "uint256",
          "name": "oldCollateralRatio",
          "type": "uint256"
        },
        {
          "indexed": false,
          "internalType": "uint256",
          "name": "newCollateralRatio",
          "type": "uint256"
        }
      ],
      "name": "NewCollateralRatio",
      "type": "event"
    },
    {
      "anonymous": false,
      "inputs": [
        {
          "indexed": false,
          "internalType": "uint256",
          "name": "oldLiquidationRatio",
          "type": "uint256"
        },
        {
          "indexed": false,
          "internalType": "uint256",
          "name": "newLiquidationRatio",
          "type": "uint256"
        }
      ],
      "name": "NewLiquidationRatio",
      "type": "event"
    },
    {
      "anonymous": false,
      "inputs": [
        {
          "indexed": false,
          "internalType": "uint256",
          "name": "oldLockerPercentageFee",
          "type": "uint256"
        },
        {
          "indexed": false,
          "internalType": "uint256",
          "name": "newLockerPercentageFee",
          "type": "uint256"
        }
      ],
      "name": "NewLockerPercentageFee",
      "type": "event"
    },
    {
      "anonymous": false,
      "inputs": [
        {
          "indexed": false,
          "internalType": "uint256",
          "name": "oldMinRequiredTDTLockedAmount",
          "type": "uint256"
        },
        {
          "indexed": false,
          "internalType": "uint256",
          "name": "newMinRequiredTDTLockedAmount",
          "type": "uint256"
        }
      ],
      "name": "NewMinRequiredTDTLockedAmount",
      "type": "event"
    },
    {
      "anonymous": false,
      "inputs": [
        {
          "indexed": false,
          "internalType": "uint256",
          "name": "oldMinRequiredTNTLockedAmount",
          "type": "uint256"
        },
        {
          "indexed": false,
          "internalType": "uint256",
          "name": "newMinRequiredTNTLockedAmount",
          "type": "uint256"
        }
      ],
      "name": "NewMinRequiredTNTLockedAmount",
      "type": "event"
    },
    {
      "anonymous": false,
      "inputs": [
        {
          "indexed": false,
          "internalType": "address",
          "name": "oldPriceOracle",
          "type": "address"
        },
        {
          "indexed": false,
          "internalType": "address",
          "name": "newPriceOracle",
          "type": "address"
        }
      ],
      "name": "NewPriceOracle",
      "type": "event"
    },
    {
      "anonymous": false,
      "inputs": [
        {
          "indexed": false,
          "internalType": "uint256",
          "name": "oldPriceWithDiscountRatio",
          "type": "uint256"
        },
        {
          "indexed": false,
          "internalType": "uint256",
          "name": "newPriceWithDiscountRatio",
          "type": "uint256"
        }
      ],
      "name": "NewPriceWithDiscountRatio",
      "type": "event"
    },
    {
      "anonymous": false,
      "inputs": [
        {
          "indexed": false,
          "internalType": "address",
          "name": "oldTST",
          "type": "address"
        },
        {
          "indexed": false,
          "internalType": "address",
          "name": "newTST",
          "type": "address"
        }
      ],
      "name": "NewTST",
      "type": "event"
    },
    {
      "anonymous": false,
      "inputs": [
        {
          "indexed": false,
          "internalType": "address",
          "name": "oldTeleBTC",
          "type": "address"
        },
        {
          "indexed": false,
          "internalType": "address",
          "name": "newTeleBTC",
          "type": "address"
        }
      ],
      "name": "NewTeleBTC",
      "type": "event"
    },
    {
      "anonymous": false,
      "inputs": [
        {
          "indexed": true,
          "internalType": "address",
          "name": "previousOwner",
          "type": "address"
        },
        {
          "indexed": true,
          "internalType": "address",
          "name": "newOwner",
          "type": "address"
        }
      ],
      "name": "OwnershipTransferred",
      "type": "event"
    },
    {
      "anonymous": false,
      "inputs": [
        {
          "indexed": false,
          "internalType": "address",
          "name": "account",
          "type": "address"
        }
      ],
      "name": "Paused",
      "type": "event"
    },
    {
      "anonymous": false,
      "inputs": [
        {
          "indexed": true,
          "internalType": "address",
          "name": "lockerTargetAddress",
          "type": "address"
        },
        {
          "indexed": false,
          "internalType": "bytes",
          "name": "lockerLockingScript",
          "type": "bytes"
        },
        {
          "indexed": false,
          "internalType": "uint256",
          "name": "TDTLockedAmount",
          "type": "uint256"
        },
        {
          "indexed": false,
          "internalType": "uint256",
          "name": "nativeTokenLockedAmount",
          "type": "uint256"
        }
      ],
      "name": "RequestAddLocker",
      "type": "event"
    },
    {
      "anonymous": false,
      "inputs": [
        {
          "indexed": true,
          "internalType": "address",
          "name": "lockerTargetAddress",
          "type": "address"
        },
        {
          "indexed": true,
          "internalType": "uint256",
          "name": "inactivationTimestamp",
          "type": "uint256"
        },
        {
          "indexed": false,
          "internalType": "bytes",
          "name": "lockerLockingScript",
          "type": "bytes"
        },
        {
          "indexed": false,
          "internalType": "uint256",
          "name": "TDTLockedAmount",
          "type": "uint256"
        },
        {
          "indexed": false,
          "internalType": "uint256",
          "name": "nativeTokenLockedAmount",
          "type": "uint256"
        },
        {
          "indexed": false,
          "internalType": "uint256",
          "name": "netMinted",
          "type": "uint256"
        }
      ],
      "name": "RequestInactivateLocker",
      "type": "event"
    },
    {
      "anonymous": false,
      "inputs": [
        {
          "indexed": true,
          "internalType": "address",
          "name": "lockerTargetAddress",
          "type": "address"
        },
        {
          "indexed": false,
          "internalType": "bytes",
          "name": "lockerLockingScript",
          "type": "bytes"
        },
        {
          "indexed": false,
          "internalType": "uint256",
          "name": "TDTLockedAmount",
          "type": "uint256"
        },
        {
          "indexed": false,
          "internalType": "uint256",
          "name": "nativeTokenLockedAmount",
          "type": "uint256"
        }
      ],
      "name": "RevokeAddLockerRequest",
      "type": "event"
    },
    {
      "anonymous": false,
      "inputs": [
        {
          "indexed": false,
          "internalType": "address",
          "name": "account",
          "type": "address"
        }
      ],
      "name": "Unpaused",
      "type": "event"
    },
    {
      "inputs": [],
      "name": "HEALTH_FACTOR",
      "outputs": [
        {
          "internalType": "uint256",
          "name": "",
          "type": "uint256"
        }
      ],
      "stateMutability": "view",
      "type": "function"
    },
    {
      "inputs": [],
      "name": "INACTIVATION_DELAY",
      "outputs": [
        {
          "internalType": "uint256",
          "name": "",
          "type": "uint256"
        }
      ],
      "stateMutability": "view",
      "type": "function"
    },
    {
      "inputs": [],
      "name": "MAX_LOCKER_FEE",
      "outputs": [
        {
          "internalType": "uint256",
          "name": "",
          "type": "uint256"
        }
      ],
      "stateMutability": "view",
      "type": "function"
    },
    {
      "inputs": [],
      "name": "NATIVE_TOKEN",
      "outputs": [
        {
          "internalType": "address",
          "name": "",
          "type": "address"
        }
      ],
      "stateMutability": "view",
      "type": "function"
    },
    {
      "inputs": [],
      "name": "NATIVE_TOKEN_DECIMAL",
      "outputs": [
        {
          "internalType": "uint256",
          "name": "",
          "type": "uint256"
        }
      ],
      "stateMutability": "view",
      "type": "function"
    },
    {
      "inputs": [],
      "name": "ONE_HUNDRED_PERCENT",
      "outputs": [
        {
          "internalType": "uint256",
          "name": "",
          "type": "uint256"
        }
      ],
      "stateMutability": "view",
      "type": "function"
    },
    {
      "inputs": [],
      "name": "TeleportDAOToken",
      "outputs": [
        {
          "internalType": "address",
          "name": "",
          "type": "address"
        }
      ],
      "stateMutability": "view",
      "type": "function"
    },
    {
      "inputs": [],
      "name": "UPPER_HEALTH_FACTOR",
      "outputs": [
        {
          "internalType": "uint256",
          "name": "",
          "type": "uint256"
        }
      ],
      "stateMutability": "view",
      "type": "function"
    },
    {
      "inputs": [
        {
          "internalType": "address",
          "name": "_account",
          "type": "address"
        }
      ],
      "name": "addBurner",
      "outputs": [],
      "stateMutability": "nonpayable",
      "type": "function"
    },
    {
      "inputs": [
        {
          "internalType": "address",
          "name": "_lockerTargetAddress",
          "type": "address"
        },
        {
          "internalType": "uint256",
          "name": "_addingNativeTokenAmount",
          "type": "uint256"
        }
      ],
      "name": "addCollateral",
      "outputs": [
        {
          "internalType": "bool",
          "name": "",
          "type": "bool"
        }
      ],
      "stateMutability": "payable",
      "type": "function"
    },
    {
      "inputs": [
        {
          "internalType": "address",
          "name": "_lockerTargetAddress",
          "type": "address"
        }
      ],
      "name": "addLocker",
      "outputs": [
        {
          "internalType": "bool",
          "name": "",
          "type": "bool"
        }
      ],
      "stateMutability": "nonpayable",
      "type": "function"
    },
    {
      "inputs": [
        {
          "internalType": "address",
          "name": "_account",
          "type": "address"
        }
      ],
      "name": "addMinter",
      "outputs": [],
      "stateMutability": "nonpayable",
      "type": "function"
    },
    {
      "inputs": [
        {
          "internalType": "bytes",
          "name": "_lockerLockingScript",
          "type": "bytes"
        },
        {
          "internalType": "uint256",
          "name": "_amount",
          "type": "uint256"
        }
      ],
      "name": "burn",
      "outputs": [
        {
          "internalType": "uint256",
          "name": "",
          "type": "uint256"
        }
      ],
      "stateMutability": "nonpayable",
      "type": "function"
    },
    {
      "inputs": [
        {
          "internalType": "address",
          "name": "_lockerTargetAddress",
          "type": "address"
        },
        {
          "internalType": "uint256",
          "name": "_collateralAmount",
          "type": "uint256"
        }
      ],
      "name": "buySlashedCollateralOfLocker",
      "outputs": [
        {
          "internalType": "bool",
          "name": "",
          "type": "bool"
        }
      ],
      "stateMutability": "nonpayable",
      "type": "function"
    },
    {
      "inputs": [],
      "name": "ccBurnRouter",
      "outputs": [
        {
          "internalType": "address",
          "name": "",
          "type": "address"
        }
      ],
      "stateMutability": "view",
      "type": "function"
    },
    {
      "inputs": [],
      "name": "collateralRatio",
      "outputs": [
        {
          "internalType": "uint256",
          "name": "",
          "type": "uint256"
        }
      ],
      "stateMutability": "view",
      "type": "function"
    },
    {
      "inputs": [],
      "name": "exchangeConnector",
      "outputs": [
        {
          "internalType": "address",
          "name": "",
          "type": "address"
        }
      ],
      "stateMutability": "view",
      "type": "function"
    },
    {
      "inputs": [
        {
          "internalType": "address",
          "name": "_lockerTargetAddress",
          "type": "address"
        }
      ],
      "name": "getLockerLockingScript",
      "outputs": [
        {
          "internalType": "bytes",
          "name": "",
          "type": "bytes"
        }
      ],
      "stateMutability": "view",
      "type": "function"
    },
    {
      "inputs": [
        {
          "internalType": "bytes",
          "name": "_lockerLockingScript",
          "type": "bytes"
        }
      ],
      "name": "getLockerTargetAddress",
      "outputs": [
        {
          "internalType": "address",
          "name": "",
          "type": "address"
        }
      ],
      "stateMutability": "view",
      "type": "function"
    },
    {
      "inputs": [],
      "name": "getNumberOfLockers",
      "outputs": [
        {
          "internalType": "uint256",
          "name": "",
          "type": "uint256"
        }
      ],
      "stateMutability": "view",
      "type": "function"
    },
    {
      "inputs": [
        {
          "internalType": "address",
          "name": "_teleBTC",
          "type": "address"
        },
        {
          "internalType": "address",
          "name": "_priceOracle",
          "type": "address"
        },
        {
          "internalType": "address",
          "name": "_ccBurnRouter",
          "type": "address"
        },
        {
          "internalType": "uint256",
          "name": "_minRequiredTDTLockedAmount",
          "type": "uint256"
        },
        {
          "internalType": "uint256",
          "name": "_minRequiredTNTLockedAmount",
          "type": "uint256"
        },
        {
          "internalType": "uint256",
          "name": "_collateralRatio",
          "type": "uint256"
        },
        {
          "internalType": "uint256",
          "name": "_liquidationRatio",
          "type": "uint256"
        },
        {
          "internalType": "uint256",
          "name": "_lockerPercentageFee",
          "type": "uint256"
        },
        {
          "internalType": "uint256",
          "name": "_priceWithDiscountRatio",
          "type": "uint256"
        }
      ],
      "name": "initialize",
      "outputs": [],
      "stateMutability": "nonpayable",
      "type": "function"
    },
    {
      "inputs": [
        {
          "internalType": "address",
          "name": "account",
          "type": "address"
        }
      ],
      "name": "isBurner",
      "outputs": [
        {
          "internalType": "bool",
          "name": "",
          "type": "bool"
        }
      ],
      "stateMutability": "view",
      "type": "function"
    },
    {
      "inputs": [
        {
          "internalType": "bytes",
          "name": "_lockerLockingScript",
          "type": "bytes"
        }
      ],
      "name": "isLocker",
      "outputs": [
        {
          "internalType": "bool",
          "name": "",
          "type": "bool"
        }
      ],
      "stateMutability": "view",
      "type": "function"
    },
    {
      "inputs": [
        {
          "internalType": "address",
          "name": "_lockerTargetAddress",
          "type": "address"
        }
      ],
      "name": "isLockerActive",
      "outputs": [
        {
          "internalType": "bool",
          "name": "",
          "type": "bool"
        }
      ],
      "stateMutability": "view",
      "type": "function"
    },
    {
      "inputs": [
        {
          "internalType": "address",
          "name": "account",
          "type": "address"
        }
      ],
      "name": "isMinter",
      "outputs": [
        {
          "internalType": "bool",
          "name": "",
          "type": "bool"
        }
      ],
      "stateMutability": "view",
      "type": "function"
    },
    {
      "inputs": [],
      "name": "libConstants",
      "outputs": [
        {
          "internalType": "uint256",
          "name": "OneHundredPercent",
          "type": "uint256"
        },
        {
          "internalType": "uint256",
          "name": "HealthFactor",
          "type": "uint256"
        },
        {
          "internalType": "uint256",
          "name": "UpperHealthFactor",
          "type": "uint256"
        },
        {
          "internalType": "uint256",
          "name": "MaxLockerFee",
          "type": "uint256"
        },
        {
          "internalType": "uint256",
          "name": "NativeTokenDecimal",
          "type": "uint256"
        },
        {
          "internalType": "address",
          "name": "NativeToken",
          "type": "address"
        }
      ],
      "stateMutability": "view",
      "type": "function"
    },
    {
      "inputs": [],
      "name": "libParams",
      "outputs": [
        {
          "internalType": "address",
          "name": "teleportDAOToken",
          "type": "address"
        },
        {
          "internalType": "address",
          "name": "teleBTC",
          "type": "address"
        },
        {
          "internalType": "address",
          "name": "ccBurnRouter",
          "type": "address"
        },
        {
          "internalType": "address",
          "name": "exchangeConnector",
          "type": "address"
        },
        {
          "internalType": "address",
          "name": "priceOracle",
          "type": "address"
        },
        {
          "internalType": "uint256",
          "name": "minRequiredTDTLockedAmount",
          "type": "uint256"
        },
        {
          "internalType": "uint256",
          "name": "minRequiredTNTLockedAmount",
          "type": "uint256"
        },
        {
          "internalType": "uint256",
          "name": "lockerPercentageFee",
          "type": "uint256"
        },
        {
          "internalType": "uint256",
          "name": "collateralRatio",
          "type": "uint256"
        },
        {
          "internalType": "uint256",
          "name": "liquidationRatio",
          "type": "uint256"
        },
        {
          "internalType": "uint256",
          "name": "priceWithDiscountRatio",
          "type": "uint256"
        },
        {
          "internalType": "uint256",
          "name": "inactivationDelay",
          "type": "uint256"
        }
      ],
      "stateMutability": "view",
      "type": "function"
    },
    {
      "inputs": [
        {
          "internalType": "address",
          "name": "_lockerTargetAddress",
          "type": "address"
        },
        {
          "internalType": "uint256",
          "name": "_collateralAmount",
          "type": "uint256"
        }
      ],
      "name": "liquidateLocker",
      "outputs": [
        {
          "internalType": "bool",
          "name": "",
          "type": "bool"
        }
      ],
      "stateMutability": "nonpayable",
      "type": "function"
    },
    {
      "inputs": [],
      "name": "liquidationRatio",
      "outputs": [
        {
          "internalType": "uint256",
          "name": "",
          "type": "uint256"
        }
      ],
      "stateMutability": "view",
      "type": "function"
    },
    {
      "inputs": [
        {
          "internalType": "address",
          "name": "",
          "type": "address"
        }
      ],
      "name": "lockerInactivationTimestamp",
      "outputs": [
        {
          "internalType": "uint256",
          "name": "",
          "type": "uint256"
        }
      ],
      "stateMutability": "view",
      "type": "function"
    },
    {
      "inputs": [
        {
          "internalType": "address",
          "name": "",
          "type": "address"
        }
      ],
      "name": "lockerLeavingAcceptance",
      "outputs": [
        {
          "internalType": "bool",
          "name": "",
          "type": "bool"
        }
      ],
      "stateMutability": "view",
      "type": "function"
    },
    {
      "inputs": [],
      "name": "lockerPercentageFee",
      "outputs": [
        {
          "internalType": "uint256",
          "name": "",
          "type": "uint256"
        }
      ],
      "stateMutability": "view",
      "type": "function"
    },
    {
      "inputs": [
        {
          "internalType": "bytes",
          "name": "",
          "type": "bytes"
        }
      ],
      "name": "lockerTargetAddress",
      "outputs": [
        {
          "internalType": "address",
          "name": "",
          "type": "address"
        }
      ],
      "stateMutability": "view",
      "type": "function"
    },
    {
      "inputs": [
        {
          "internalType": "address",
          "name": "",
          "type": "address"
        }
      ],
      "name": "lockersMapping",
      "outputs": [
        {
          "internalType": "bytes",
          "name": "lockerLockingScript",
          "type": "bytes"
        },
        {
          "internalType": "enum ScriptTypes",
          "name": "lockerRescueType",
          "type": "uint8"
        },
        {
          "internalType": "bytes",
          "name": "lockerRescueScript",
          "type": "bytes"
        },
        {
          "internalType": "uint256",
          "name": "TDTLockedAmount",
          "type": "uint256"
        },
        {
          "internalType": "uint256",
          "name": "nativeTokenLockedAmount",
          "type": "uint256"
        },
        {
          "internalType": "uint256",
          "name": "netMinted",
          "type": "uint256"
        },
        {
          "internalType": "uint256",
          "name": "slashingTeleBTCAmount",
          "type": "uint256"
        },
        {
          "internalType": "uint256",
          "name": "reservedNativeTokenForSlash",
          "type": "uint256"
        },
        {
          "internalType": "bool",
          "name": "isLocker",
          "type": "bool"
        },
        {
          "internalType": "bool",
          "name": "isCandidate",
          "type": "bool"
        },
        {
          "internalType": "bool",
          "name": "isScriptHash",
          "type": "bool"
        }
      ],
      "stateMutability": "view",
      "type": "function"
    },
    {
      "inputs": [],
      "name": "minRequiredTDTLockedAmount",
      "outputs": [
        {
          "internalType": "uint256",
          "name": "",
          "type": "uint256"
        }
      ],
      "stateMutability": "view",
      "type": "function"
    },
    {
      "inputs": [],
      "name": "minRequiredTNTLockedAmount",
      "outputs": [
        {
          "internalType": "uint256",
          "name": "",
          "type": "uint256"
        }
      ],
      "stateMutability": "view",
      "type": "function"
    },
    {
      "inputs": [
        {
          "internalType": "bytes",
          "name": "_lockerLockingScript",
          "type": "bytes"
        },
        {
          "internalType": "address",
          "name": "_receiver",
          "type": "address"
        },
        {
          "internalType": "uint256",
          "name": "_amount",
          "type": "uint256"
        }
      ],
      "name": "mint",
      "outputs": [
        {
          "internalType": "uint256",
          "name": "",
          "type": "uint256"
        }
      ],
      "stateMutability": "nonpayable",
      "type": "function"
    },
    {
      "inputs": [],
      "name": "owner",
      "outputs": [
        {
          "internalType": "address",
          "name": "",
          "type": "address"
        }
      ],
      "stateMutability": "view",
      "type": "function"
    },
    {
      "inputs": [],
      "name": "pauseLocker",
      "outputs": [],
      "stateMutability": "nonpayable",
      "type": "function"
    },
    {
      "inputs": [],
      "name": "paused",
      "outputs": [
        {
          "internalType": "bool",
          "name": "",
          "type": "bool"
        }
      ],
      "stateMutability": "view",
      "type": "function"
    },
    {
      "inputs": [],
      "name": "priceOfOneUnitOfCollateralInBTC",
      "outputs": [
        {
          "internalType": "uint256",
          "name": "",
          "type": "uint256"
        }
      ],
      "stateMutability": "view",
      "type": "function"
    },
    {
      "inputs": [],
      "name": "priceOracle",
      "outputs": [
        {
          "internalType": "address",
          "name": "",
          "type": "address"
        }
      ],
      "stateMutability": "view",
      "type": "function"
    },
    {
      "inputs": [],
      "name": "priceWithDiscountRatio",
      "outputs": [
        {
          "internalType": "uint256",
          "name": "",
          "type": "uint256"
        }
      ],
      "stateMutability": "view",
      "type": "function"
    },
    {
      "inputs": [
        {
          "internalType": "address",
          "name": "_account",
          "type": "address"
        }
      ],
      "name": "removeBurner",
      "outputs": [],
      "stateMutability": "nonpayable",
      "type": "function"
    },
    {
      "inputs": [
        {
          "internalType": "uint256",
          "name": "_removingNativeTokenAmount",
          "type": "uint256"
        }
      ],
      "name": "removeCollateral",
      "outputs": [
        {
          "internalType": "bool",
          "name": "",
          "type": "bool"
        }
      ],
      "stateMutability": "payable",
      "type": "function"
    },
    {
      "inputs": [
        {
          "internalType": "address",
          "name": "_account",
          "type": "address"
        }
      ],
      "name": "removeMinter",
      "outputs": [],
      "stateMutability": "nonpayable",
      "type": "function"
    },
    {
      "inputs": [],
      "name": "renounceOwnership",
      "outputs": [],
      "stateMutability": "nonpayable",
      "type": "function"
    },
    {
      "inputs": [],
      "name": "requestActivation",
      "outputs": [
        {
          "internalType": "bool",
          "name": "",
          "type": "bool"
        }
      ],
      "stateMutability": "nonpayable",
      "type": "function"
    },
    {
      "inputs": [],
      "name": "requestInactivation",
      "outputs": [
        {
          "internalType": "bool",
          "name": "",
          "type": "bool"
        }
      ],
      "stateMutability": "nonpayable",
      "type": "function"
    },
    {
      "inputs": [
        {
          "internalType": "bytes",
          "name": "_candidateLockingScript",
          "type": "bytes"
        },
        {
          "internalType": "uint256",
          "name": "_lockedTSTAmount",
          "type": "uint256"
        },
        {
          "internalType": "uint256",
          "name": "_lockedNativeTokenAmount",
          "type": "uint256"
        },
        {
          "internalType": "enum ScriptTypes",
          "name": "_lockerRescueType",
          "type": "uint8"
        },
        {
          "internalType": "bytes",
          "name": "_lockerRescueScript",
          "type": "bytes"
        }
      ],
      "name": "requestToBecomeLocker",
      "outputs": [
        {
          "internalType": "bool",
          "name": "",
          "type": "bool"
        }
      ],
      "stateMutability": "payable",
      "type": "function"
    },
    {
      "inputs": [],
      "name": "revokeRequest",
      "outputs": [
        {
          "internalType": "bool",
          "name": "",
          "type": "bool"
        }
      ],
      "stateMutability": "nonpayable",
      "type": "function"
    },
    {
      "inputs": [],
      "name": "selfRemoveLocker",
      "outputs": [
        {
          "internalType": "bool",
          "name": "",
          "type": "bool"
        }
      ],
      "stateMutability": "nonpayable",
      "type": "function"
    },
    {
      "inputs": [
        {
          "internalType": "address",
          "name": "_ccBurnRouter",
          "type": "address"
        }
      ],
      "name": "setCCBurnRouter",
      "outputs": [],
      "stateMutability": "nonpayable",
      "type": "function"
    },
    {
      "inputs": [
        {
          "internalType": "uint256",
          "name": "_collateralRatio",
          "type": "uint256"
        }
      ],
      "name": "setCollateralRatio",
      "outputs": [],
      "stateMutability": "nonpayable",
      "type": "function"
    },
    {
      "inputs": [
        {
          "internalType": "uint256",
          "name": "_liquidationRatio",
          "type": "uint256"
        }
      ],
      "name": "setLiquidationRatio",
      "outputs": [],
      "stateMutability": "nonpayable",
      "type": "function"
    },
    {
      "inputs": [
        {
          "internalType": "uint256",
          "name": "_lockerPercentageFee",
          "type": "uint256"
        }
      ],
      "name": "setLockerPercentageFee",
      "outputs": [],
      "stateMutability": "nonpayable",
      "type": "function"
    },
    {
      "inputs": [
        {
          "internalType": "uint256",
          "name": "_minRequiredTDTLockedAmount",
          "type": "uint256"
        }
      ],
      "name": "setMinRequiredTDTLockedAmount",
      "outputs": [],
      "stateMutability": "nonpayable",
      "type": "function"
    },
    {
      "inputs": [
        {
          "internalType": "uint256",
          "name": "_minRequiredTNTLockedAmount",
          "type": "uint256"
        }
      ],
      "name": "setMinRequiredTNTLockedAmount",
      "outputs": [],
      "stateMutability": "nonpayable",
      "type": "function"
    },
    {
      "inputs": [
        {
          "internalType": "address",
          "name": "_priceOracle",
          "type": "address"
        }
      ],
      "name": "setPriceOracle",
      "outputs": [],
      "stateMutability": "nonpayable",
      "type": "function"
    },
    {
      "inputs": [
        {
          "internalType": "uint256",
          "name": "_priceWithDiscountRatio",
          "type": "uint256"
        }
      ],
      "name": "setPriceWithDiscountRatio",
      "outputs": [],
      "stateMutability": "nonpayable",
      "type": "function"
    },
    {
      "inputs": [
        {
          "internalType": "address",
          "name": "_TST",
          "type": "address"
        }
      ],
      "name": "setTST",
      "outputs": [],
      "stateMutability": "nonpayable",
      "type": "function"
    },
    {
      "inputs": [
        {
          "internalType": "address",
          "name": "_teleBTC",
          "type": "address"
        }
      ],
      "name": "setTeleBTC",
      "outputs": [],
      "stateMutability": "nonpayable",
      "type": "function"
    },
    {
      "inputs": [
        {
          "internalType": "address",
          "name": "_lockerTargetAddress",
          "type": "address"
        },
        {
          "internalType": "uint256",
          "name": "_rewardAmount",
          "type": "uint256"
        },
        {
          "internalType": "address",
          "name": "_slasher",
          "type": "address"
        },
        {
          "internalType": "uint256",
          "name": "_amount",
          "type": "uint256"
        },
        {
          "internalType": "address",
          "name": "_recipient",
          "type": "address"
        }
      ],
      "name": "slashIdleLocker",
      "outputs": [
        {
          "internalType": "bool",
          "name": "",
          "type": "bool"
        }
      ],
      "stateMutability": "nonpayable",
      "type": "function"
    },
    {
      "inputs": [
        {
          "internalType": "address",
          "name": "_lockerTargetAddress",
          "type": "address"
        },
        {
          "internalType": "uint256",
          "name": "_rewardAmount",
          "type": "uint256"
        },
        {
          "internalType": "address",
          "name": "_slasher",
          "type": "address"
        },
        {
          "internalType": "uint256",
          "name": "_amount",
          "type": "uint256"
        }
      ],
      "name": "slashThiefLocker",
      "outputs": [
        {
          "internalType": "bool",
          "name": "",
          "type": "bool"
        }
      ],
      "stateMutability": "nonpayable",
      "type": "function"
    },
    {
      "inputs": [],
      "name": "teleBTC",
      "outputs": [
        {
          "internalType": "address",
          "name": "",
          "type": "address"
        }
      ],
      "stateMutability": "view",
      "type": "function"
    },
    {
      "inputs": [],
      "name": "totalNumberOfCandidates",
      "outputs": [
        {
          "internalType": "uint256",
          "name": "",
          "type": "uint256"
        }
      ],
      "stateMutability": "view",
      "type": "function"
    },
    {
      "inputs": [],
      "name": "totalNumberOfLockers",
      "outputs": [
        {
          "internalType": "uint256",
          "name": "",
          "type": "uint256"
        }
      ],
      "stateMutability": "view",
      "type": "function"
    },
    {
      "inputs": [
        {
          "internalType": "address",
          "name": "newOwner",
          "type": "address"
        }
      ],
      "name": "transferOwnership",
      "outputs": [],
      "stateMutability": "nonpayable",
      "type": "function"
    },
    {
      "inputs": [],
      "name": "unPauseLocker",
      "outputs": [],
      "stateMutability": "nonpayable",
      "type": "function"
    }
  ],
  "transactionHash": "0x889aab3a02e23dd064d69ebb5ff3e257d406dcd4bc0d23aef726dc645e0ae8f5",
  "args": [],
  "numDeployments": 1,
  "solcInputHash": "e2e42804b1cdc35c51529bcacbe0b0a9",
  "bytecode": "0x608060405234801561001057600080fd5b5061553a806100206000396000f3fe60806040526004361061033a5760003560e01c80637da5f0da116101b3578063b4eae1cb116100f3578063b4eae1cb1461093d578063b734de2614610953578063bb4a250914610973578063bc805d1d14610993578063bd60e794146109a9578063c0924b8014610a6e578063c4d10b6a14610a8e578063cdcbc87914610aae578063dd0081c7146105a7578063e85501d814610b18578063e955de4514610b2d578063ed110a9c14610b42578063ee1f1c7014610b58578063ef69a7bc14610b78578063f2fde38b14610b8d578063f44637ba14610bad578063f73e3a9514610bcd578063ffc9f70414610bed57600080fd5b80637da5f0da1461072d5780637f0f18171461075d57806388aa0a521461077d5780638d3d78cd146107935780638da5cb5b146107b35780638fe85fe7146107c8578063946ce8cd146107e857806396ec39e814610808578063983b2d56146108285780639bf0988214610848578063a839db2414610868578063aa271e1a14610888578063af1ea795146108a8578063aff2faa3146108df578063b1016bdf146108ff578063b291ec1314610912578063b43022581461092857600080fd5b806345cc58901161027e57806345cc589014610567578063530e784f1461058757806354509b97146105a757806359bb9189146105bd5780635a8d80b8146105d25780635c975abb146105f25780635d6464ba1461060a5780636060663e146106375780636136c21f14610657578063613e2e1e1461068457806363908020146106995780636600203d146106af5780636a030fc3146106cf5780636d32395c146106ef5780636d75b9ee14610705578063715018a614610718578063768ebb12146105a757600080fd5b8063028468581461033f5780630c42cbc914610361578063108f438d146103895780631697565b146103b65780631775765f146103e65780631fcfe19c146103fc5780632630c12f1461041c578063264db4ae1461043c5780632f5b04ac146104515780633092afd51461046857806331f7d964146104885780633237c1581461049d57806338463cff146104b057806341f3ec11146104d057806341fae579146105115780634334614a1461052757806343b9370714610547575b600080fd5b34801561034b57600080fd5b5061035f61035a366004614787565b610c02565b005b34801561036d57600080fd5b50610376601281565b6040519081526020015b60405180910390f35b34801561039557600080fd5b506000546103a9906001600160a01b031681565b6040516103809190614e13565b3480156103c257600080fd5b506103d66103d1366004614887565b610caa565b6040519015158152602001610380565b3480156103f257600080fd5b5061037660095481565b34801561040857600080fd5b5061037661041736600461493c565b610ec8565b34801561042857600080fd5b506004546103a9906001600160a01b031681565b34801561044857600080fd5b506103766112d3565b34801561045d57600080fd5b506103766205460081565b34801561047457600080fd5b5061035f610483366004614787565b611366565b34801561049457600080fd5b506103a9600181565b6103d66104ab366004614b1e565b611405565b3480156104bc57600080fd5b506103766104cb366004614995565b611641565b3480156104dc57600080fd5b506103a96104eb366004614a75565b80516020818301810180516010825292820191909301209152546001600160a01b031681565b34801561051d57600080fd5b5061037660055481565b34801561053357600080fd5b506103d6610542366004614787565b611a68565b34801561055357600080fd5b506103d661056236600461481b565b611ab7565b34801561057357600080fd5b506103d6610582366004614787565b611d08565b34801561059357600080fd5b5061035f6105a2366004614787565b611ea9565b3480156105b357600080fd5b5061037661271081565b3480156105c957600080fd5b506103d6611f4d565b3480156105de57600080fd5b506002546103a9906001600160a01b031681565b3480156105fe57600080fd5b5060bc5460ff166103d6565b34801561061657600080fd5b5061062a610625366004614787565b612076565b6040516103809190614ea5565b34801561064357600080fd5b5061035f610652366004614b1e565b612149565b34801561066357600080fd5b50610376610672366004614787565b600e6020526000908152604090205481565b34801561069057600080fd5b5061035f6121b8565b3480156106a557600080fd5b5061037660075481565b3480156106bb57600080fd5b5061035f6106ca366004614b1e565b6121ca565b3480156106db57600080fd5b506103d66106ea366004614787565b612268565b3480156106fb57600080fd5b5061037660065481565b6103d661071336600461481b565b6122ea565b34801561072457600080fd5b5061035f6123e1565b34801561073957600080fd5b506103d6610748366004614787565b600f6020526000908152604090205460ff1681565b34801561076957600080fd5b5061035f610778366004614787565b6123e9565b34801561078957600080fd5b50610376600b5481565b34801561079f57600080fd5b506001546103a9906001600160a01b031681565b3480156107bf57600080fd5b506103a961248d565b3480156107d457600080fd5b5061035f6107e3366004614b1e565b61249c565b3480156107f457600080fd5b5061035f610803366004614b1e565b612536565b34801561081457600080fd5b506103d661082336600461481b565b6125a5565b34801561083457600080fd5b5061035f610843366004614787565b612aa0565b34801561085457600080fd5b5061035f610863366004614b1e565b612b43565b34801561087457600080fd5b5061035f610883366004614b1e565b612b91565b34801561089457600080fd5b506103d66108a3366004614787565b612bfd565b3480156108b457600080fd5b506108c86108c3366004614787565b612c47565b6040516103809b9a99989796959493929190614eb8565b3480156108eb57600080fd5b506103d66108fa3660046148fd565b612dbf565b6103d661090d3660046149de565b612e0d565b34801561091e57600080fd5b50610376600a5481565b34801561093457600080fd5b506103d6612f60565b34801561094957600080fd5b5061037660085481565b34801561095f57600080fd5b506103d661096e366004614844565b61300e565b34801561097f57600080fd5b5061035f61098e3660046147a1565b6131a7565b34801561099f57600080fd5b506103766130d481565b3480156109b557600080fd5b50601954601a54601b54601c54601d54601e54601f546020546021546022546023546024546109fe9b6001600160a01b039081169b81169a81169981169816969594939291908c565b604080516001600160a01b039d8e1681529b8d1660208d0152998c16998b0199909952968a1660608a015298909416608088015260a087019290925260c086015260e085015261010084015261012083019390935261014082019290925261016081019190915261018001610380565b348015610a7a57600080fd5b506003546103a9906001600160a01b031681565b348015610a9a57600080fd5b506103a9610aa93660046148fd565b613350565b348015610aba57600080fd5b50601354601454601554601654601754601854610ae29594939291906001600160a01b031686565b60408051968752602087019590955293850192909252606084015260808301526001600160a01b031660a082015260c001610380565b348015610b2457600080fd5b506103d6613385565b348015610b3957600080fd5b5061035f6136ea565b348015610b4e57600080fd5b50610376600c5481565b348015610b6457600080fd5b5061035f610b73366004614787565b6136fa565b348015610b8457600080fd5b50600c54610376565b348015610b9957600080fd5b5061035f610ba8366004614787565b613840565b348015610bb957600080fd5b5061035f610bc8366004614787565b6138b9565b348015610bd957600080fd5b5061035f610be8366004614787565b61395c565b348015610bf957600080fd5b506103d6613a00565b806001600160a01b038116610c2a5760405163d92e233d60e01b815260040160405180910390fd5b610c32613dfd565b610c3b82611a68565b610c605760405162461bcd60e51b8152600401610c5790615049565b60405180910390fd5b6001600160a01b038216600081815260126020526040808220805460ff19169055517f90eabbc0c667db2a5029ed6bc0f5fe9f356d11684a4ca9fcfaec0e53f12b9c8e9190a25050565b6000610cb4613e5c565b610cbc613eb6565b6002546001600160a01b0316336001600160a01b031614610cef5760405162461bcd60e51b8152600401610c579061508c565b6001600160a01b0386166000908152600d602052604080822090516343196d1d60e01b8152731C49B4130670EF5f1a80664ce46b0803896a4e4b916343196d1d91610d4791906013906019908c908b90600401615239565b60206040518083038186803b158015610d5f57600080fd5b505af4158015610d73573d6000803e3d6000fd5b505050506040513d601f19601f82011682018060405250810190610d979190614b36565b90506001600160a01b0383166108fc610db08887615312565b610dba8785615435565b610dc4919061532a565b6040518115909202916000818181858888f19350505050158015610dec573d6000803e3d6000fd5b506000610df98786615312565b610e038684615435565b610e0d919061532a565b610e179083615454565b6040519091506001600160a01b0387169082156108fc029083906000818181858888f19350505050158015610e50573d6000803e3d6000fd5b50836001600160a01b0316866001600160a01b0316896001600160a01b03167fab522c1322c34ea455e8f541ecfe1b73a29039f3658bff658cf12c9fd26dc016848987426001604051610ea79594939291906152ed565b60405180910390a4600192505050610ebf6001608a55565b95945050505050565b6000826001600160a01b038116610ef25760405163d92e233d60e01b815260040160405180910390fd5b8280610f1157604051637c946ed760e01b815260040160405180910390fd5b610f19613e5c565b610f21613eb6565b610f2a33612bfd565b610f765760405162461bcd60e51b815260206004820152601e60248201527f4c6f636b6572733a206f6e6c79206d696e746572732063616e206d696e7400006044820152606401610c57565b600060108888604051610f8a929190614d78565b908152604051908190036020019020546001600160a01b0316905080610fed5760405162461bcd60e51b81526020600482015260186024820152774c6f636b6572733a2061646472657373206973207a65726f60401b6044820152606401610c57565b6001600160a01b0381166000908152600d60205260409081902060058101549151631cfe05d760e21b8152731C49B4130670EF5f1a80664ce46b0803896a4e4b926373f8175c9261104b929091601391601991908c90600401615239565b60206040518083038186803b15801561106357600080fd5b505af4158015611077573d6000803e3d6000fd5b505050506040513d601f19601f8201168201806040525081019061109b9190614b36565b506110a581612268565b6110e75760405162461bcd60e51b81526020600482015260136024820152724c6f636b6572733a206e6f742061637469766560681b6044820152606401610c57565b6001600160a01b0381166000908152600d602052604090206005015461110e908690615312565b6001600160a01b0382166000908152600d60205260408120600501919091556007546127109061113e9088615435565b611148919061532a565b905080156111d6576001546040516340c10f1960e01b81526001600160a01b03909116906340c10f19906111829085908590600401614e65565b602060405180830381600087803b15801561119c57600080fd5b505af11580156111b0573d6000803e3d6000fd5b505050506040513d601f19601f820116820180604052508101906111d491906148dd565b505b6001546001600160a01b03166340c10f19886111f2848a615454565b6040518363ffffffff1660e01b815260040161120f929190614e65565b602060405180830381600087803b15801561122957600080fd5b505af115801561123d573d6000803e3d6000fd5b505050506040513d601f19601f8201168201806040525081019061126191906148dd565b50866001600160a01b0316826001600160a01b03167f8ad706b338c5d2a20b0d038b5cfdaf2b2f943f43048723bde0dccdf129598a118884426040516112a9939291906152d7565b60405180910390a36112bb8187615454565b945050506112c96001608a55565b5050949350505050565b60405163167e7c5760e01b8152600090731C49B4130670EF5f1a80664ce46b0803896a4e4b9063167e7c579061131190601390601990600401615270565b60206040518083038186803b15801561132957600080fd5b505af415801561133d573d6000803e3d6000fd5b505050506040513d601f19601f820116820180604052508101906113619190614b36565b905090565b806001600160a01b03811661138e5760405163d92e233d60e01b815260040160405180910390fd5b611396613dfd565b61139f82612bfd565b6113bb5760405162461bcd60e51b8152600401610c5790615049565b6001600160a01b038216600081815260116020526040808220805460ff19169055517fe94479a9f7e1952cc78f2d6baab678adc1b772d936c6583def489e524cb666929190a25050565b600061140f613e5c565b336000908152600d602052604090206008015460ff166114415760405162461bcd60e51b8152600401610c579061501d565b61144a33612268565b156114675760405162461bcd60e51b8152600401610c5790615112565b60405163167e7c5760e01b8152600090731C49B4130670EF5f1a80664ce46b0803896a4e4b9063167e7c57906114a590601390601990600401615270565b60206040518083038186803b1580156114bd57600080fd5b505af41580156114d1573d6000803e3d6000fd5b505050506040513d601f19601f820116820180604052508101906114f59190614b36565b336000908152600d6020908152604091829020825160c08082018552601354825260145482850152601554828601526016546060808401919091526017546080808501919091526018546001600160a01b0390811660a080870191909152885161018081018a5260195483168152601a548316818a0152601b54831699810199909952601c54821693890193909352601d541690870152601e5490860152601f5490850152915460e08401526021546101008401526022546101208401526023546101408401526024546101608401529293506115d492918487613f03565b6115de33846140cd565b336000818152600d6020526040908190206004015490517f93ae1c71197ee1bd2ad44b7d57e7b34ca946aeb88fdb4fc4a45211dbeb2c3cc7916116259187919042906152d7565b60405180910390a2600191505061163c6001608a55565b919050565b6000818061166257604051637c946ed760e01b815260040160405180910390fd5b61166a613e5c565b611672613eb6565b61167b33611a68565b6116c75760405162461bcd60e51b815260206004820152601e60248201527f4c6f636b6572733a206f6e6c79206275726e6572732063616e206275726e00006044820152606401610c57565b6000601086866040516116db929190614d78565b908152604051908190036020019020546001546001600160a01b039182169250166323b872dd6117083390565b30876040518463ffffffff1660e01b815260040161172893929190614e41565b602060405180830381600087803b15801561174257600080fd5b505af1158015611756573d6000803e3d6000fd5b505050506040513d601f19601f8201168201806040525081019061177a91906148dd565b6117c55760405162461bcd60e51b815260206004820152601c60248201527b131bd8dad95c9cce881d1c985b9cd9995c919c9bdb4819985a5b195960221b6044820152606401610c57565b6000612710600754866117d89190615435565b6117e2919061532a565b905060006117f08287615454565b6001600160a01b0384166000908152600d60205260409020600501549091508181101561185d5760405162461bcd60e51b815260206004820152601b60248201527a4c6f636b6572733a20696e73756666696369656e742066756e647360281b6044820152606401610c57565b6118678282615454565b6001600160a01b038581166000908152600d602052604090819020600501929092556001549151630852cd8d60e31b8152600481018590529116906342966c6890602401602060405180830381600087803b1580156118c557600080fd5b505af11580156118d9573d6000803e3d6000fd5b505050506040513d601f19601f820116820180604052508101906118fd91906148dd565b6119405760405162461bcd60e51b8152602060048201526014602482015273131bd8dad95c9cce88189d5c9b8819985a5b195960621b6044820152606401610c57565b60015460405163a9059cbb60e01b81526001600160a01b039091169063a9059cbb906119729087908790600401614e65565b602060405180830381600087803b15801561198c57600080fd5b505af11580156119a0573d6000803e3d6000fd5b505050506040513d601f19601f820116820180604052508101906119c491906148dd565b611a0c5760405162461bcd60e51b8152602060048201526019602482015278131bd8dad95c9cce881b1bd8dad95c9199594819985a5b1959603a1b6044820152606401610c57565b836001600160a01b03167f66fb54322c407b04a077a306e72cdd780f0f374ba5dac9f6901a56a6255bc34a888542604051611a49939291906152d7565b60405180910390a25093505050611a606001608a55565b509392505050565b6000816001600160a01b038116611a925760405163d92e233d60e01b815260040160405180910390fd5b6001600160a01b03831660009081526012602052604090205460ff1691505b50919050565b6000826001600160a01b038116611ae15760405163d92e233d60e01b815260040160405180910390fd5b611ae9613e5c565b611af1613eb6565b6001600160a01b0384166000908152600d602052604080822090516201412760e01b8152600481019190915260248101859052731C49B4130670EF5f1a80664ce46b0803896a4e4b90620141279060440160206040518083038186803b158015611b5a57600080fd5b505af4158015611b6e573d6000803e3d6000fd5b505050506040513d601f19601f82011682018060405250810190611b929190614b36565b6001546040516323b872dd60e01b81529192506001600160a01b0316906323b872dd90611bc790339030908690600401614e41565b602060405180830381600087803b158015611be157600080fd5b505af1158015611bf5573d6000803e3d6000fd5b505050506040513d601f19601f82011682018060405250810190611c1991906148dd565b50600154604051630852cd8d60e31b8152600481018390526001600160a01b03909116906342966c6890602401602060405180830381600087803b158015611c6057600080fd5b505af1158015611c74573d6000803e3d6000fd5b505050506040513d601f19601f82011682018060405250810190611c9891906148dd565b50611ca333856140cd565b336001600160a01b0316856001600160a01b03167fd03400b15a5f4cddbc57f0e81bca31db33e4d1ed1390211eade3518bce70562e868442604051611cea939291906152d7565b60405180910390a36001925050611d016001608a55565b5092915050565b6000816001600160a01b038116611d325760405163d92e233d60e01b815260040160405180910390fd5b611d3a613e5c565b611d42613dfd565b6001600160a01b0383166000908152600d6020526040902060080154610100900460ff16611da85760405162461bcd60e51b8152602060048201526013602482015272131bd8dad95c9cce881b9bc81c995c5d595cdd606a1b6044820152606401610c57565b6001600160a01b0383166000908152600d60205260409020600801805461ffff19166001908117909155600b54611ddf9190615454565b600b55600c54611df0906001615312565b600c556001600160a01b0383166000908152600d60205260409081902090518491601091611e1e9190614da4565b908152604080516020928190038301812080546001600160a01b0319166001600160a01b039586161790559286166000818152600d90935291206003810154600482015492937f3840128cd2c146a0ea7739b8440e824c6d2d498ae32274812561d689d751e75e93611e939392914290614f6f565b60405180910390a260019150611ab16001608a55565b806001600160a01b038116611ed15760405163d92e233d60e01b815260040160405180910390fd5b611ed9613dfd565b6004546040517fd52b2b9b7e9ee655fcb95d2e5b9e0c9f69e7ef2b8e9d2d0ea78402d576d22e2291611f18916001600160a01b03909116908590614e27565b60405180910390a150600480546001600160a01b039092166001600160a01b03199283168117909155601d8054909216179055565b6000611f57613e5c565b336000908152600d602052604090206008015460ff16611f895760405162461bcd60e51b8152600401610c5790615141565b336000908152600e602052604090205415611ff45760405162461bcd60e51b815260206004820152602560248201527f4c6f636b6572733a206c6f636b65722068617320616c72656164792072657175604482015264195cdd195960da1b6064820152608401610c57565b6120016205460042615312565b336000818152600e60209081526040808320859055600d9091529081902060038101546004820154600583015493517f59e9b7bdd325b1dd9fe5b91f457f74d4b3d58263580ae84d6be1f451bbc2851f9461205e94939291614f6f565b60405180910390a35060016120736001608a55565b90565b6060816001600160a01b0381166120a05760405163d92e233d60e01b815260040160405180910390fd5b6001600160a01b0383166000908152600d6020526040902080546120c3906154a3565b80601f01602080910402602001604051908101604052809291908181526020018280546120ef906154a3565b801561213c5780601f106121115761010080835404028352916020019161213c565b820191906000526020600020905b81548152906001019060200180831161211f57829003601f168201915b5050505050915050919050565b612151613dfd565b60095481116121725760405162461bcd60e51b8152600401610c57906151d8565b60085460408051918252602082018390527f1e29d1b5c8926360f3ac632d884775772b07f31fec4077d433e58ce823f91347910160405180910390a16008819055602155565b6121c0613dfd565b6121c86141e8565b565b6121d2613dfd565b6127108111156122225760405162461bcd60e51b815260206004820152601b60248201527a4c6f636b6572733a20696e76616c6964206c6f636b65722066656560281b6044820152606401610c57565b60075460408051918252602082018390527f44c6802691f6adea249930369a511db979a5e9a3603bdb37ceee1036da80e980910160405180910390a16007819055602055565b6000816001600160a01b0381166122925760405163d92e233d60e01b815260040160405180910390fd5b6001600160a01b0383166000908152600e60205260409020546122b85760019150611ab1565b6001600160a01b0383166000908152600e60205260409020544210156122e15760019150611ab1565b60009150611ab1565b60006122f4613e5c565b6001600160a01b0383166000908152600d6020526040908190209051635ff753e960e11b8152731C49B4130670EF5f1a80664ce46b0803896a4e4b9163bfeea7d29161234691349187906004016152d7565b60006040518083038186803b15801561235e57600080fd5b505af4158015612372573d6000803e3d6000fd5b505050506001600160a01b0383166000818152600d6020526040908190206004015490517f2d2b4797badefe26cd5674f9bc2b8f5ed98e2a663e1a977af971254cfefd15ad916123c69186919042906152d7565b60405180910390a25060016123db6001608a55565b92915050565b6121c8613dfd565b806001600160a01b0381166124115760405163d92e233d60e01b815260040160405180910390fd5b612419613dfd565b6001546040517f36a4c08a38b736dcecb6c328dba61238529620e83ccb23db2cc43cd34ec2609691612458916001600160a01b03909116908590614e27565b60405180910390a150600180546001600160a01b039092166001600160a01b03199283168117909155601a8054909216179055565b6058546001600160a01b031690565b6124a4613dfd565b6127108111156124f05760405162461bcd60e51b81526020600482015260176024820152764c6f636b6572733a206c657373207468616e203130302560481b6044820152606401610c57565b600a5460408051918252602082018390527f5e4dd01049cdfe5a081b404bff8e27de919fd9c8ae2145007e0921ec227f207a910160405180910390a1600a819055602355565b61253e613dfd565b806008541161255f5760405162461bcd60e51b8152600401610c57906151d8565b60095460408051918252602082018390527f883242c2a857ca527a432dfca231b1e49233fde2a96802809a0f3866e9f19e13910160405180910390a16009819055602255565b6000826001600160a01b0381166125cf5760405163d92e233d60e01b815260040160405180910390fd5b82806125ee57604051637c946ed760e01b815260040160405180910390fd5b6125f6613e5c565b6125fe613eb6565b6001600160a01b0385166000908152600d602052604080822090516318ae332560e31b8152731C49B4130670EF5f1a80664ce46b0803896a4e4b9163c57199289161265491906013906019908b90600401615207565b60206040518083038186803b15801561266c57600080fd5b505af4158015612680573d6000803e3d6000fd5b505050506040513d601f19601f820116820180604052508101906126a49190614b36565b90506000600d6000886001600160a01b03166001600160a01b03168152602001908152602001600020604051806101600160405290816000820180546126e9906154a3565b80601f0160208091040260200160405190810160405280929190818152602001828054612715906154a3565b80156127625780601f1061273757610100808354040283529160200191612762565b820191906000526020600020905b81548152906001019060200180831161274557829003601f168201915b5050509183525050600182015460209091019060ff16600581111561279757634e487b7160e01b600052602160045260246000fd5b60058111156127b657634e487b7160e01b600052602160045260246000fd5b81526020016002820180546127ca906154a3565b80601f01602080910402602001604051908101604052809291908181526020018280546127f6906154a3565b80156128435780601f1061281857610100808354040283529160200191612843565b820191906000526020600020905b81548152906001019060200180831161282657829003601f168201915b505050918352505060038201546020808301919091526004808401546040808501919091526005850154606085015260068501546080850152600785015460a085015260089094015460ff808216151560c08601526101008083048216151560e0870152620100009092041615159301929092526001600160a01b038b166000908152600d9091529190912001549091506128df908790615454565b6001600160a01b038089166000908152600d602052604090206004019190915560015461290f9116333085614234565b60015460025460405163095ea7b360e01b81526001600160a01b039283169263095ea7b392612945929116908690600401614e65565b602060405180830381600087803b15801561295f57600080fd5b505af1158015612973573d6000803e3d6000fd5b505050506040513d601f19601f8201168201806040525081019061299791906148dd565b50600254604080830151602084015184519251633fea436760e01b81526001600160a01b0390941693633fea4367936129dc938893909290919060009060040161528c565b602060405180830381600087803b1580156129f657600080fd5b505af1158015612a0a573d6000803e3d6000fd5b505050506040513d601f19601f82011682018060405250810190612a2e9190614b36565b50612a3933876140cd565b336001600160a01b0316876001600160a01b03167fd63782183ccef603c2adba105774db58e1701ea5e7b3e23eded1b5e967a3654c888542604051612a80939291906152d7565b60405180910390a3600194505050612a986001608a55565b505092915050565b806001600160a01b038116612ac85760405163d92e233d60e01b815260040160405180910390fd5b612ad0613dfd565b612ad982612bfd565b15612af65760405162461bcd60e51b8152600401610c57906150d1565b6001600160a01b038216600081815260116020526040808220805460ff19166001179055517f6ae172837ea30b801fbfcdd4108aa1d5bf8ff775444fd70256b44e6bf3dfc3f69190a25050565b612b4b613dfd565b60055460408051918252602082018390527f65fb7af72786d428e2b4e9d3d2bd45fdd354f582ccccad2044967440b98e6d7b910160405180910390a16005819055601e55565b612b99613dfd565b80612bb757604051637c946ed760e01b815260040160405180910390fd5b60065460408051918252602082018390527f063267aa94de35dcf03acb07931ff2a6eae1ac1ee0be20797c9a6d3b52abf47b910160405180910390a16006819055601f55565b6000816001600160a01b038116612c275760405163d92e233d60e01b815260040160405180910390fd5b50506001600160a01b031660009081526011602052604090205460ff1690565b600d60205260009081526040902080548190612c62906154a3565b80601f0160208091040260200160405190810160405280929190818152602001828054612c8e906154a3565b8015612cdb5780601f10612cb057610100808354040283529160200191612cdb565b820191906000526020600020905b815481529060010190602001808311612cbe57829003601f168201915b5050506001840154600285018054949560ff909216949193509150612cff906154a3565b80601f0160208091040260200160405190810160405280929190818152602001828054612d2b906154a3565b8015612d785780601f10612d4d57610100808354040283529160200191612d78565b820191906000526020600020905b815481529060010190602001808311612d5b57829003601f168201915b5050506003840154600485015460058601546006870154600788015460089098015496979396929550909350919060ff80821691610100810482169162010000909104168b565b6000600d600060108585604051612dd7929190614d78565b9081526040805160209281900383019020546001600160a01b0316835290820192909252016000206008015460ff169392505050565b6000612e17613e5c565b731C49B4130670EF5f1a80664ce46b0803896a4e4b634f02c5a4600d601960108c8c604051612e47929190614d78565b908152602001604051809103902060009054906101000a90046001600160a01b03168a8a8e8e8c8c8c6040518b63ffffffff1660e01b8152600401612e959a99989796959493929190614f9e565b60006040518083038186803b158015612ead57600080fd5b505af4158015612ec1573d6000803e3d6000fd5b50506019546001600160a01b0316159150612ef0905057612ef0336019546001600160a01b0316903089614234565b600b54612efe906001615312565b600b55336001600160a01b03167fe5f7957016a87f9d7bacdd371a516d7f2c5667aa5676c7e07cc8c0bbc6e5067b89898989604051612f409493929190614e7e565b60405180910390a2506001612f556001608a55565b979650505050505050565b6000612f6a613e5c565b336000908152600d602052604090206008015460ff16612f9c5760405162461bcd60e51b8152600401610c5790615141565b336000818152600e60209081526040808320839055600d9091529081902060038101546004820154600583015493517ff5c2a2ca5d59b6903bcb66377907e2c66983741a553bae891c485953b2a1f96f94612ff994939291614f6f565b60405180910390a25060016120736001608a55565b6000613018613e5c565b613020613eb6565b6002546001600160a01b0316336001600160a01b0316146130535760405162461bcd60e51b8152600401610c579061508c565b6001600160a01b0385166000908152600d60205260408082209051630b6f92b160e31b81528291731C49B4130670EF5f1a80664ce46b0803896a4e4b91635b7c9588916130ac916013906019908c908b90600401615239565b604080518083038186803b1580156130c357600080fd5b505af41580156130d7573d6000803e3d6000fd5b505050506040513d601f19601f820116820180604052508101906130fb9190614b4e565b60405191935091506001600160a01b0386169083156108fc029084906000818181858888f19350505050158015613136573d6000803e3d6000fd5b50306001600160a01b038681169089167fab522c1322c34ea455e8f541ecfe1b73a29039f3658bff658cf12c9fd26dc01685886131738288615312565b4260006040516131879594939291906152ed565b60405180910390a460019250505061319f6001608a55565b949350505050565b602554610100900460ff16158080156131c75750602554600160ff909116105b806131e15750303b1580156131e1575060255460ff166001145b6132445760405162461bcd60e51b815260206004820152602e60248201527f496e697469616c697a61626c653a20636f6e747261637420697320616c72656160448201526d191e481a5b9a5d1a585b1a5e995960921b6064820152608401610c57565b6025805460ff191660011790558015613267576025805461ff0019166101001790555b61326f614292565b6132776142c1565b61327f6142f0565b6132888a6123e9565b613291886136fa565b61329a89611ea9565b6132a387612b43565b6132ac86612b91565b6132b585612149565b6132be84612536565b6132c7836121ca565b6132d08261249c565b612710601381905560148190556130d46015556016556012601755601880546001600160a01b03191660011790558015613344576025805461ff0019169055604051600181527f7f26b83ff96e1f2b6a682f133852f6798a09c465da95921460cefb38474024989060200160405180910390a15b50505050505050505050565b600060108383604051613364929190614d78565b908152604051908190036020019020546001600160a01b0316905092915050565b600061338f613e5c565b336000908152600d6020526040902060080154610100900460ff166133e85760405162461bcd60e51b815260206004820152600f60248201526e4c6f636b6572733a206e6f2072657160881b6044820152606401610c57565b336000908152600d602052604080822081516101608101909252805482908290613411906154a3565b80601f016020809104026020016040519081016040528092919081815260200182805461343d906154a3565b801561348a5780601f1061345f5761010080835404028352916020019161348a565b820191906000526020600020905b81548152906001019060200180831161346d57829003601f168201915b5050509183525050600182015460209091019060ff1660058111156134bf57634e487b7160e01b600052602160045260246000fd5b60058111156134de57634e487b7160e01b600052602160045260246000fd5b81526020016002820180546134f2906154a3565b80601f016020809104026020016040519081016040528092919081815260200182805461351e906154a3565b801561356b5780601f106135405761010080835404028352916020019161356b565b820191906000526020600020905b81548152906001019060200180831161354e57829003601f168201915b505050918352505060038201546020820152600482015460408201526005820154606082015260068201546080820152600782015460a082015260089091015460ff808216151560c08401526101008083048216151560e0850152620100009092041615159101529050600d6000336001600160a01b03168152602081019190915260400160009081209061360082826146dc565b60018201805460ff1916905561361a6002830160006146dc565b506000600382018190556004820181905560058201819055600682018190556007820155600801805462ffffff19169055600b5461365a90600190615454565b600b5561367a335b60608301516000546001600160a01b0316919061431f565b613689335b82608001516140cd565b336000818152600d6020526040908190206003810154600482015492517f10f84ef0773ba7ade3714f4e500ca17436e6df2b0feb99c754c04f889290cbd4936136d3939291614f5c565b60405180910390a260019150506120736001608a55565b6136f2613dfd565b6121c861433e565b806001600160a01b0381166137225760405163d92e233d60e01b815260040160405180910390fd5b61372a613dfd565b6002546040517fd86d51326f3c88ea5365fba597a57273ae555e44f4b11658da952320d0beaa7591613769916001600160a01b03909116908590614e27565b60405180910390a16002546040516001600160a01b03909116907f90eabbc0c667db2a5029ed6bc0f5fe9f356d11684a4ca9fcfaec0e53f12b9c8e90600090a2600280546001600160a01b03908116600090815260126020526040808220805460ff1916905583549286166001600160a01b03199384168117909455601b8054909316841790925590517f86e57fd2b90329052917118de7c3f521f400d439b9650deaa906a25b08b945609190a250506002546001600160a01b03166000908152601260205260409020805460ff19166001179055565b613848613dfd565b6001600160a01b0381166138ad5760405162461bcd60e51b815260206004820152602660248201527f4f776e61626c653a206e6577206f776e657220697320746865207a65726f206160448201526564647265737360d01b6064820152608401610c57565b6138b68161437b565b50565b806001600160a01b0381166138e15760405163d92e233d60e01b815260040160405180910390fd5b6138e9613dfd565b6138f282611a68565b1561390f5760405162461bcd60e51b8152600401610c57906150d1565b6001600160a01b038216600081815260126020526040808220805460ff19166001179055517f86e57fd2b90329052917118de7c3f521f400d439b9650deaa906a25b08b945609190a25050565b613964613dfd565b806001600160a01b03811661398c5760405163d92e233d60e01b815260040160405180910390fd5b6000546040517f3e4520ab29fdd336aca22cca0657921e53eb42307038c1895b6b5e60eec3796f916139cb916001600160a01b03909116908590614e27565b60405180910390a150600080546001600160a01b039092166001600160a01b0319928316811790915560198054909216179055565b6000613a0a613e5c565b336000908152600d602052604080822081516101608101909252805482908290613a33906154a3565b80601f0160208091040260200160405190810160405280929190818152602001828054613a5f906154a3565b8015613aac5780601f10613a8157610100808354040283529160200191613aac565b820191906000526020600020905b815481529060010190602001808311613a8f57829003601f168201915b5050509183525050600182015460209091019060ff166005811115613ae157634e487b7160e01b600052602160045260246000fd5b6005811115613b0057634e487b7160e01b600052602160045260246000fd5b8152602001600282018054613b14906154a3565b80601f0160208091040260200160405190810160405280929190818152602001828054613b40906154a3565b8015613b8d5780601f10613b6257610100808354040283529160200191613b8d565b820191906000526020600020905b815481529060010190602001808311613b7057829003601f168201915b505050918352505060038201546020820152600482015460408201526005820154606082015260068201546080820152600782015460a082015260089091015460ff808216151560c08401526101008083048216151560e08501526201000090920416151591810191909152810151909150613c1b5760405162461bcd60e51b8152600401610c579061501d565b613c2433612268565b15613c415760405162461bcd60e51b8152600401610c5790615112565b60a081015115613c8b5760405162461bcd60e51b8152602060048201526015602482015274131bd8dad95c9cce880c081b995d081b5a5b9d1959605a1b6044820152606401610c57565b60c081015115613cd85760405162461bcd60e51b81526020600482015260186024820152774c6f636b6572733a203020736c617368696e67205442544360401b6044820152606401610c57565b336000908152600d6020526040908190209051601091613cf791614da4565b90815260405190819003602001902080546001600160a01b0319169055600d6000613d1f3390565b6001600160a01b031681526020810191909152604001600090812090613d4582826146dc565b60018201805460ff19169055613d5f6002830160006146dc565b506000600382018190556004820181905560058201819055600682018190556007820155600801805462ffffff19169055600c54613d9f90600190615454565b600c55613dab33613662565b613db43361367f565b336001600160a01b03167f628f3d67160bc1a892a1779c6475e128010a54df63af5dcdbf3c7b06ca5dfa978260000151836060015184608001516040516136d393929190614f37565b33613e0661248d565b6001600160a01b0316146121c85760405162461bcd60e51b815260206004820181905260248201527f4f776e61626c653a2063616c6c6572206973206e6f7420746865206f776e65726044820152606401610c57565b6002608a541415613eaf5760405162461bcd60e51b815260206004820152601f60248201527f5265656e7472616e637947756172643a207265656e7472616e742063616c6c006044820152606401610c57565b6002608a55565b60bc5460ff16156121c85760405162461bcd60e51b815260206004820152601060248201526f14185d5cd8589b194e881c185d5cd95960821b6044820152606401610c57565b6001608a55565b600885015460ff16613f575760405162461bcd60e51b815260206004820181905260248201527f4c6f636b6572733a206163636f756e74206973206e6f742061206c6f636b65726044820152606401610c57565b600085600501548560800151600a613f6f919061538d565b856101000151613f7f9190615435565b86516004890154613f91908790615435565b613f9b9190615435565b613fa5919061532a565b613faf9190615454565b90506000838660800151600a613fc5919061538d565b613fcf9084615435565b613fd9919061532a565b90508083111561403f5760405162461bcd60e51b815260206004820152602b60248201527f4c6f636b6572733a206d6f7265207468616e206d61782072656d6f7661626c6560448201526a0818dbdb1b185d195c985b60aa1b6064820152608401610c57565b8460c001518388600401546140549190615454565b10156140ac5760405162461bcd60e51b815260206004820152602160248201527f4c6f636b6572733a206c657373207468616e206d696e20636f6c6c61746572616044820152601b60fa1b6064820152608401610c57565b8287600401546140bc9190615454565b876004018190555050505050505050565b8047101561411d5760405162461bcd60e51b815260206004820152601d60248201527f416464726573733a20696e73756666696369656e742062616c616e63650000006044820152606401610c57565b6000826001600160a01b03168260405160006040518083038185875af1925050503d806000811461416a576040519150601f19603f3d011682016040523d82523d6000602084013e61416f565b606091505b50509050806141e35760405162461bcd60e51b815260206004820152603a60248201527f416464726573733a20756e61626c6520746f2073656e642076616c75652c20726044820152791958da5c1a595b9d081b585e481a185d99481c995d995c9d195960321b6064820152608401610c57565b505050565b6141f06143cd565b60bc805460ff191690557f5db9ee0a495bf2e6ff9c91a7834c1ba4fdd244a5e8aa4e537bd38aeae4b073aa335b60405161422a9190614e13565b60405180910390a1565b61428c846323b872dd60e01b85858560405160240161425593929190614e41565b60408051601f198184030181529190526020810180516001600160e01b03166001600160e01b031990931692909217909152614416565b50505050565b602554610100900460ff166142b95760405162461bcd60e51b8152600401610c579061518d565b6121c86144e8565b602554610100900460ff166142e85760405162461bcd60e51b8152600401610c579061518d565b6121c8614518565b602554610100900460ff166143175760405162461bcd60e51b8152600401610c579061518d565b6121c861453f565b6141e38363a9059cbb60e01b8484604051602401614255929190614e65565b614346613eb6565b60bc805460ff191660011790557f62e78cea01bee320cd4e420270b5ea74000d11b0c9f74754ebdbfc544b05a25861421d3390565b605880546001600160a01b038381166001600160a01b0319831681179093556040519116919082907f8be0079c531659141344cd1fd0a4f28419497f9722a3daafe3b4186f6b6457e090600090a35050565b60bc5460ff166121c85760405162461bcd60e51b815260206004820152601460248201527314185d5cd8589b194e881b9bdd081c185d5cd95960621b6044820152606401610c57565b600061446b826040518060400160405280602081526020017f5361666545524332303a206c6f772d6c6576656c2063616c6c206661696c6564815250856001600160a01b03166145729092919063ffffffff16565b8051909150156141e3578080602001905181019061448991906148dd565b6141e35760405162461bcd60e51b815260206004820152602a60248201527f5361666545524332303a204552433230206f7065726174696f6e20646964206e6044820152691bdd081cdd58d8d9595960b21b6064820152608401610c57565b602554610100900460ff1661450f5760405162461bcd60e51b8152600401610c579061518d565b6121c83361437b565b602554610100900460ff16613efc5760405162461bcd60e51b8152600401610c579061518d565b602554610100900460ff166145665760405162461bcd60e51b8152600401610c579061518d565b60bc805460ff19169055565b6060614581848460008561458b565b90505b9392505050565b6060824710156145ec5760405162461bcd60e51b815260206004820152602660248201527f416464726573733a20696e73756666696369656e742062616c616e636520666f6044820152651c8818d85b1b60d21b6064820152608401610c57565b843b61463a5760405162461bcd60e51b815260206004820152601d60248201527f416464726573733a2063616c6c20746f206e6f6e2d636f6e74726163740000006044820152606401610c57565b600080866001600160a01b031685876040516146569190614d88565b60006040518083038185875af1925050503d8060008114614693576040519150601f19603f3d011682016040523d82523d6000602084013e614698565b606091505b5091509150612f55828286606083156146b2575081614584565b8251156146c25782518084602001fd5b8160405162461bcd60e51b8152600401610c579190614ea5565b5080546146e8906154a3565b6000825580601f106146f8575050565b601f0160209004906000526020600020908101906138b691905b808211156147265760008155600101614712565b5090565b80356001600160a01b038116811461163c57600080fd5b60008083601f840112614752578081fd5b5081356001600160401b03811115614768578182fd5b60208301915083602082850101111561478057600080fd5b9250929050565b600060208284031215614798578081fd5b6145848261472a565b60008060008060008060008060006101208a8c0312156147bf578485fd5b6147c88a61472a565b98506147d660208b0161472a565b97506147e460408b0161472a565b989b979a5097986060810135985060808101359760a0820135975060c0820135965060e08201359550610100909101359350915050565b6000806040838503121561482d578182fd5b6148368361472a565b946020939093013593505050565b60008060008060808587031215614859578384fd5b6148628561472a565b9350602085013592506148776040860161472a565b9396929550929360600135925050565b600080600080600060a0868803121561489e578081fd5b6148a78661472a565b9450602086013593506148bc6040870161472a565b9250606086013591506148d16080870161472a565b90509295509295909350565b6000602082840312156148ee578081fd5b81518015158114614584578182fd5b6000806020838503121561490f578182fd5b82356001600160401b03811115614924578283fd5b61493085828601614741565b90969095509350505050565b60008060008060608587031215614951578384fd5b84356001600160401b03811115614966578485fd5b61497287828801614741565b909550935061498590506020860161472a565b9396929550929360400135925050565b6000806000604084860312156149a9578283fd5b83356001600160401b038111156149be578384fd5b6149ca86828701614741565b909790965060209590950135949350505050565b600080600080600080600060a0888a0312156149f8578283fd5b87356001600160401b0380821115614a0e578485fd5b614a1a8b838c01614741565b909950975060208a0135965060408a0135955060608a0135915060068210614a40578485fd5b90935060808901359080821115614a55578384fd5b50614a628a828b01614741565b989b979a50959850939692959293505050565b600060208284031215614a86578081fd5b81356001600160401b0380821115614a9c578283fd5b818401915084601f830112614aaf578283fd5b813581811115614ac157614ac16154ee565b604051601f8201601f19908116603f01168101908382118183101715614ae957614ae96154ee565b81604052828152876020848701011115614b01578586fd5b826020860160208301379182016020019490945295945050505050565b600060208284031215614b2f578081fd5b5035919050565b600060208284031215614b47578081fd5b5051919050565b60008060408385031215614b60578182fd5b505080516020909101519092909150565b6001600160a01b03169052565b81835281816020850137506000828201602090810191909152601f909101601f19169091010190565b60008151808452614bbf816020860160208601615477565b601f01601f19169290920160200192915050565b60008154614be0816154a3565b808552602060018381168015614bfd5760018114614c1157614c3f565b60ff19851688840152604088019550614c3f565b866000528260002060005b85811015614c375781548a8201860152908301908401614c1c565b890184019650505b505050505092915050565b60068110614c6857634e487b7160e01b600052602160045260246000fd5b9052565b8054825260018101546020830152600281015460408301526003810154606083015260048101546080830152600501546001600160a01b031660a090910152565b614cc082614cbb835461546b565b614b71565b614ccd600182015461546b565b614cda6020840182614b71565b50614ce8600282015461546b565b614cf56040840182614b71565b50614d03600382015461546b565b614d106060840182614b71565b50614d1e600482015461546b565b614d2b6080840182614b71565b50600581015460a0830152600681015460c0830152600781015460e083015260088101546101008301526009810154610120830152600a810154610140830152600b015461016090910152565b8183823760009101908152919050565b60008251614d9a818460208701615477565b9190910192915050565b6000808354614db2816154a3565b60018281168015614dca5760018114614ddb57614e07565b60ff19841687528287019450614e07565b8786526020808720875b85811015614dfe5781548a820152908401908201614de5565b50505082870194505b50929695505050505050565b6001600160a01b0391909116815260200190565b6001600160a01b0392831681529116602082015260400190565b6001600160a01b039384168152919092166020820152604081019190915260600190565b6001600160a01b03929092168252602082015260400190565b606081526000614e92606083018688614b7e565b6020830194909452506040015292915050565b6020815260006145846020830184614ba7565b6000610160808352614ecc8184018f614ba7565b9050614edb602084018e614c4a565b8281036040840152614eed818d614ba7565b606084019b909b525050608081019790975260a087019590955260c086019390935260e0850191909152151561010084015215156101208301521515610140909101529392505050565b606081526000614f4a6060830186614ba7565b60208301949094525060400152919050565b606081526000614f4a6060830186614bd3565b608081526000614f826080830187614bd3565b6020830195909552506040810192909252606090910152919050565b60006102608c8352614fb3602084018d614cad565b6001600160a01b038b166101a08401526101c083018a90526101e083018990526102008301819052614fe8818401888a614b7e565b9050614ff8610220840187614c4a565b82810361024084015261500c818587614b7e565b9d9c50505050505050505050505050565b6020808252601290820152712637b1b5b2b9399d103737903637b1b5b2b960711b604082015260600190565b60208082526023908201527f4c6f636b6572733a206163636f756e7420646f6573206e6f74206861766520726040820152626f6c6560e81b606082015260800190565b60208082526025908201527f4c6f636b6572733a206d6573736167652073656e646572206973206e6f74206360408201526431a13ab93760d91b606082015260800190565b60208082526021908201527f4c6f636b6572733a206163636f756e7420616c72656164792068617320726f6c6040820152606560f81b606082015260800190565b6020808252601590820152744c6f636b6572733a207374696c6c2061637469766560581b604082015260600190565b6020808252602c908201527f4c6f636b6572733a20696e7075742061646472657373206973206e6f7420612060408201526b3b30b634b2103637b1b5b2b960a11b606082015260800190565b6020808252602b908201527f496e697469616c697a61626c653a20636f6e7472616374206973206e6f74206960408201526a6e697469616c697a696e6760a81b606082015260800190565b6020808252601590820152742637b1b5b2b9399d1036bab9ba1021a9101f10262960591b604082015260600190565b848152610280810161521c6020830186614c6c565b61522960e0830185614cad565b8261026083015295945050505050565b8581526102a0810161524e6020830187614c6c565b61525b60e0830186614cad565b61026082019390935261028001529392505050565b610240810161527f8285614c6c565b61458460c0830184614cad565b85815260a0602082015260006152a560a0830187614ba7565b6152b26040840187614c4a565b82810360608401526152c48186614ba7565b9150508260808301529695505050505050565b9283526020830191909152604082015260600190565b9485526020850193909352604084019190915260608301521515608082015260a00190565b60008219821115615325576153256154d8565b500190565b60008261534557634e487b7160e01b81526012600452602481fd5b500490565b600181815b8085111561538557816000190482111561536b5761536b6154d8565b8085161561537857918102915b93841c939080029061534f565b509250929050565b600061458483836000826153a3575060016123db565b816153b0575060006123db565b81600181146153c657600281146153d0576153ec565b60019150506123db565b60ff8411156153e1576153e16154d8565b50506001821b6123db565b5060208310610133831016604e8410600b841016171561540f575081810a6123db565b615419838361534a565b806000190482111561542d5761542d6154d8565b029392505050565b600081600019048311821515161561544f5761544f6154d8565b500290565b600082821015615466576154666154d8565b500390565b6001600160a01b031690565b60005b8381101561549257818101518382015260200161547a565b8381111561428c5750506000910152565b600181811c908216806154b757607f821691505b60208210811415611ab157634e487b7160e01b600052602260045260246000fd5b634e487b7160e01b600052601160045260246000fd5b634e487b7160e01b600052604160045260246000fdfea2646970667358221220be3d4ad0118289eb834193cd61a0a15fe4a81799e3ac11398cc2d26e9590db0164736f6c63430008040033",
  "deployedBytecode": "0x60806040526004361061033a5760003560e01c80637da5f0da116101b3578063b4eae1cb116100f3578063b4eae1cb1461093d578063b734de2614610953578063bb4a250914610973578063bc805d1d14610993578063bd60e794146109a9578063c0924b8014610a6e578063c4d10b6a14610a8e578063cdcbc87914610aae578063dd0081c7146105a7578063e85501d814610b18578063e955de4514610b2d578063ed110a9c14610b42578063ee1f1c7014610b58578063ef69a7bc14610b78578063f2fde38b14610b8d578063f44637ba14610bad578063f73e3a9514610bcd578063ffc9f70414610bed57600080fd5b80637da5f0da1461072d5780637f0f18171461075d57806388aa0a521461077d5780638d3d78cd146107935780638da5cb5b146107b35780638fe85fe7146107c8578063946ce8cd146107e857806396ec39e814610808578063983b2d56146108285780639bf0988214610848578063a839db2414610868578063aa271e1a14610888578063af1ea795146108a8578063aff2faa3146108df578063b1016bdf146108ff578063b291ec1314610912578063b43022581461092857600080fd5b806345cc58901161027e57806345cc589014610567578063530e784f1461058757806354509b97146105a757806359bb9189146105bd5780635a8d80b8146105d25780635c975abb146105f25780635d6464ba1461060a5780636060663e146106375780636136c21f14610657578063613e2e1e1461068457806363908020146106995780636600203d146106af5780636a030fc3146106cf5780636d32395c146106ef5780636d75b9ee14610705578063715018a614610718578063768ebb12146105a757600080fd5b8063028468581461033f5780630c42cbc914610361578063108f438d146103895780631697565b146103b65780631775765f146103e65780631fcfe19c146103fc5780632630c12f1461041c578063264db4ae1461043c5780632f5b04ac146104515780633092afd51461046857806331f7d964146104885780633237c1581461049d57806338463cff146104b057806341f3ec11146104d057806341fae579146105115780634334614a1461052757806343b9370714610547575b600080fd5b34801561034b57600080fd5b5061035f61035a366004614787565b610c02565b005b34801561036d57600080fd5b50610376601281565b6040519081526020015b60405180910390f35b34801561039557600080fd5b506000546103a9906001600160a01b031681565b6040516103809190614e13565b3480156103c257600080fd5b506103d66103d1366004614887565b610caa565b6040519015158152602001610380565b3480156103f257600080fd5b5061037660095481565b34801561040857600080fd5b5061037661041736600461493c565b610ec8565b34801561042857600080fd5b506004546103a9906001600160a01b031681565b34801561044857600080fd5b506103766112d3565b34801561045d57600080fd5b506103766205460081565b34801561047457600080fd5b5061035f610483366004614787565b611366565b34801561049457600080fd5b506103a9600181565b6103d66104ab366004614b1e565b611405565b3480156104bc57600080fd5b506103766104cb366004614995565b611641565b3480156104dc57600080fd5b506103a96104eb366004614a75565b80516020818301810180516010825292820191909301209152546001600160a01b031681565b34801561051d57600080fd5b5061037660055481565b34801561053357600080fd5b506103d6610542366004614787565b611a68565b34801561055357600080fd5b506103d661056236600461481b565b611ab7565b34801561057357600080fd5b506103d6610582366004614787565b611d08565b34801561059357600080fd5b5061035f6105a2366004614787565b611ea9565b3480156105b357600080fd5b5061037661271081565b3480156105c957600080fd5b506103d6611f4d565b3480156105de57600080fd5b506002546103a9906001600160a01b031681565b3480156105fe57600080fd5b5060bc5460ff166103d6565b34801561061657600080fd5b5061062a610625366004614787565b612076565b6040516103809190614ea5565b34801561064357600080fd5b5061035f610652366004614b1e565b612149565b34801561066357600080fd5b50610376610672366004614787565b600e6020526000908152604090205481565b34801561069057600080fd5b5061035f6121b8565b3480156106a557600080fd5b5061037660075481565b3480156106bb57600080fd5b5061035f6106ca366004614b1e565b6121ca565b3480156106db57600080fd5b506103d66106ea366004614787565b612268565b3480156106fb57600080fd5b5061037660065481565b6103d661071336600461481b565b6122ea565b34801561072457600080fd5b5061035f6123e1565b34801561073957600080fd5b506103d6610748366004614787565b600f6020526000908152604090205460ff1681565b34801561076957600080fd5b5061035f610778366004614787565b6123e9565b34801561078957600080fd5b50610376600b5481565b34801561079f57600080fd5b506001546103a9906001600160a01b031681565b3480156107bf57600080fd5b506103a961248d565b3480156107d457600080fd5b5061035f6107e3366004614b1e565b61249c565b3480156107f457600080fd5b5061035f610803366004614b1e565b612536565b34801561081457600080fd5b506103d661082336600461481b565b6125a5565b34801561083457600080fd5b5061035f610843366004614787565b612aa0565b34801561085457600080fd5b5061035f610863366004614b1e565b612b43565b34801561087457600080fd5b5061035f610883366004614b1e565b612b91565b34801561089457600080fd5b506103d66108a3366004614787565b612bfd565b3480156108b457600080fd5b506108c86108c3366004614787565b612c47565b6040516103809b9a99989796959493929190614eb8565b3480156108eb57600080fd5b506103d66108fa3660046148fd565b612dbf565b6103d661090d3660046149de565b612e0d565b34801561091e57600080fd5b50610376600a5481565b34801561093457600080fd5b506103d6612f60565b34801561094957600080fd5b5061037660085481565b34801561095f57600080fd5b506103d661096e366004614844565b61300e565b34801561097f57600080fd5b5061035f61098e3660046147a1565b6131a7565b34801561099f57600080fd5b506103766130d481565b3480156109b557600080fd5b50601954601a54601b54601c54601d54601e54601f546020546021546022546023546024546109fe9b6001600160a01b039081169b81169a81169981169816969594939291908c565b604080516001600160a01b039d8e1681529b8d1660208d0152998c16998b0199909952968a1660608a015298909416608088015260a087019290925260c086015260e085015261010084015261012083019390935261014082019290925261016081019190915261018001610380565b348015610a7a57600080fd5b506003546103a9906001600160a01b031681565b348015610a9a57600080fd5b506103a9610aa93660046148fd565b613350565b348015610aba57600080fd5b50601354601454601554601654601754601854610ae29594939291906001600160a01b031686565b60408051968752602087019590955293850192909252606084015260808301526001600160a01b031660a082015260c001610380565b348015610b2457600080fd5b506103d6613385565b348015610b3957600080fd5b5061035f6136ea565b348015610b4e57600080fd5b50610376600c5481565b348015610b6457600080fd5b5061035f610b73366004614787565b6136fa565b348015610b8457600080fd5b50600c54610376565b348015610b9957600080fd5b5061035f610ba8366004614787565b613840565b348015610bb957600080fd5b5061035f610bc8366004614787565b6138b9565b348015610bd957600080fd5b5061035f610be8366004614787565b61395c565b348015610bf957600080fd5b506103d6613a00565b806001600160a01b038116610c2a5760405163d92e233d60e01b815260040160405180910390fd5b610c32613dfd565b610c3b82611a68565b610c605760405162461bcd60e51b8152600401610c5790615049565b60405180910390fd5b6001600160a01b038216600081815260126020526040808220805460ff19169055517f90eabbc0c667db2a5029ed6bc0f5fe9f356d11684a4ca9fcfaec0e53f12b9c8e9190a25050565b6000610cb4613e5c565b610cbc613eb6565b6002546001600160a01b0316336001600160a01b031614610cef5760405162461bcd60e51b8152600401610c579061508c565b6001600160a01b0386166000908152600d602052604080822090516343196d1d60e01b815273__$e73bdc529e43686130bc0575eb4e830f23$__916343196d1d91610d4791906013906019908c908b90600401615239565b60206040518083038186803b158015610d5f57600080fd5b505af4158015610d73573d6000803e3d6000fd5b505050506040513d601f19601f82011682018060405250810190610d979190614b36565b90506001600160a01b0383166108fc610db08887615312565b610dba8785615435565b610dc4919061532a565b6040518115909202916000818181858888f19350505050158015610dec573d6000803e3d6000fd5b506000610df98786615312565b610e038684615435565b610e0d919061532a565b610e179083615454565b6040519091506001600160a01b0387169082156108fc029083906000818181858888f19350505050158015610e50573d6000803e3d6000fd5b50836001600160a01b0316866001600160a01b0316896001600160a01b03167fab522c1322c34ea455e8f541ecfe1b73a29039f3658bff658cf12c9fd26dc016848987426001604051610ea79594939291906152ed565b60405180910390a4600192505050610ebf6001608a55565b95945050505050565b6000826001600160a01b038116610ef25760405163d92e233d60e01b815260040160405180910390fd5b8280610f1157604051637c946ed760e01b815260040160405180910390fd5b610f19613e5c565b610f21613eb6565b610f2a33612bfd565b610f765760405162461bcd60e51b815260206004820152601e60248201527f4c6f636b6572733a206f6e6c79206d696e746572732063616e206d696e7400006044820152606401610c57565b600060108888604051610f8a929190614d78565b908152604051908190036020019020546001600160a01b0316905080610fed5760405162461bcd60e51b81526020600482015260186024820152774c6f636b6572733a2061646472657373206973207a65726f60401b6044820152606401610c57565b6001600160a01b0381166000908152600d60205260409081902060058101549151631cfe05d760e21b815273__$e73bdc529e43686130bc0575eb4e830f23$__926373f8175c9261104b929091601391601991908c90600401615239565b60206040518083038186803b15801561106357600080fd5b505af4158015611077573d6000803e3d6000fd5b505050506040513d601f19601f8201168201806040525081019061109b9190614b36565b506110a581612268565b6110e75760405162461bcd60e51b81526020600482015260136024820152724c6f636b6572733a206e6f742061637469766560681b6044820152606401610c57565b6001600160a01b0381166000908152600d602052604090206005015461110e908690615312565b6001600160a01b0382166000908152600d60205260408120600501919091556007546127109061113e9088615435565b611148919061532a565b905080156111d6576001546040516340c10f1960e01b81526001600160a01b03909116906340c10f19906111829085908590600401614e65565b602060405180830381600087803b15801561119c57600080fd5b505af11580156111b0573d6000803e3d6000fd5b505050506040513d601f19601f820116820180604052508101906111d491906148dd565b505b6001546001600160a01b03166340c10f19886111f2848a615454565b6040518363ffffffff1660e01b815260040161120f929190614e65565b602060405180830381600087803b15801561122957600080fd5b505af115801561123d573d6000803e3d6000fd5b505050506040513d601f19601f8201168201806040525081019061126191906148dd565b50866001600160a01b0316826001600160a01b03167f8ad706b338c5d2a20b0d038b5cfdaf2b2f943f43048723bde0dccdf129598a118884426040516112a9939291906152d7565b60405180910390a36112bb8187615454565b945050506112c96001608a55565b5050949350505050565b60405163167e7c5760e01b815260009073__$e73bdc529e43686130bc0575eb4e830f23$__9063167e7c579061131190601390601990600401615270565b60206040518083038186803b15801561132957600080fd5b505af415801561133d573d6000803e3d6000fd5b505050506040513d601f19601f820116820180604052508101906113619190614b36565b905090565b806001600160a01b03811661138e5760405163d92e233d60e01b815260040160405180910390fd5b611396613dfd565b61139f82612bfd565b6113bb5760405162461bcd60e51b8152600401610c5790615049565b6001600160a01b038216600081815260116020526040808220805460ff19169055517fe94479a9f7e1952cc78f2d6baab678adc1b772d936c6583def489e524cb666929190a25050565b600061140f613e5c565b336000908152600d602052604090206008015460ff166114415760405162461bcd60e51b8152600401610c579061501d565b61144a33612268565b156114675760405162461bcd60e51b8152600401610c5790615112565b60405163167e7c5760e01b815260009073__$e73bdc529e43686130bc0575eb4e830f23$__9063167e7c57906114a590601390601990600401615270565b60206040518083038186803b1580156114bd57600080fd5b505af41580156114d1573d6000803e3d6000fd5b505050506040513d601f19601f820116820180604052508101906114f59190614b36565b336000908152600d6020908152604091829020825160c08082018552601354825260145482850152601554828601526016546060808401919091526017546080808501919091526018546001600160a01b0390811660a080870191909152885161018081018a5260195483168152601a548316818a0152601b54831699810199909952601c54821693890193909352601d541690870152601e5490860152601f5490850152915460e08401526021546101008401526022546101208401526023546101408401526024546101608401529293506115d492918487613f03565b6115de33846140cd565b336000818152600d6020526040908190206004015490517f93ae1c71197ee1bd2ad44b7d57e7b34ca946aeb88fdb4fc4a45211dbeb2c3cc7916116259187919042906152d7565b60405180910390a2600191505061163c6001608a55565b919050565b6000818061166257604051637c946ed760e01b815260040160405180910390fd5b61166a613e5c565b611672613eb6565b61167b33611a68565b6116c75760405162461bcd60e51b815260206004820152601e60248201527f4c6f636b6572733a206f6e6c79206275726e6572732063616e206275726e00006044820152606401610c57565b6000601086866040516116db929190614d78565b908152604051908190036020019020546001546001600160a01b039182169250166323b872dd6117083390565b30876040518463ffffffff1660e01b815260040161172893929190614e41565b602060405180830381600087803b15801561174257600080fd5b505af1158015611756573d6000803e3d6000fd5b505050506040513d601f19601f8201168201806040525081019061177a91906148dd565b6117c55760405162461bcd60e51b815260206004820152601c60248201527b131bd8dad95c9cce881d1c985b9cd9995c919c9bdb4819985a5b195960221b6044820152606401610c57565b6000612710600754866117d89190615435565b6117e2919061532a565b905060006117f08287615454565b6001600160a01b0384166000908152600d60205260409020600501549091508181101561185d5760405162461bcd60e51b815260206004820152601b60248201527a4c6f636b6572733a20696e73756666696369656e742066756e647360281b6044820152606401610c57565b6118678282615454565b6001600160a01b038581166000908152600d602052604090819020600501929092556001549151630852cd8d60e31b8152600481018590529116906342966c6890602401602060405180830381600087803b1580156118c557600080fd5b505af11580156118d9573d6000803e3d6000fd5b505050506040513d601f19601f820116820180604052508101906118fd91906148dd565b6119405760405162461bcd60e51b8152602060048201526014602482015273131bd8dad95c9cce88189d5c9b8819985a5b195960621b6044820152606401610c57565b60015460405163a9059cbb60e01b81526001600160a01b039091169063a9059cbb906119729087908790600401614e65565b602060405180830381600087803b15801561198c57600080fd5b505af11580156119a0573d6000803e3d6000fd5b505050506040513d601f19601f820116820180604052508101906119c491906148dd565b611a0c5760405162461bcd60e51b8152602060048201526019602482015278131bd8dad95c9cce881b1bd8dad95c9199594819985a5b1959603a1b6044820152606401610c57565b836001600160a01b03167f66fb54322c407b04a077a306e72cdd780f0f374ba5dac9f6901a56a6255bc34a888542604051611a49939291906152d7565b60405180910390a25093505050611a606001608a55565b509392505050565b6000816001600160a01b038116611a925760405163d92e233d60e01b815260040160405180910390fd5b6001600160a01b03831660009081526012602052604090205460ff1691505b50919050565b6000826001600160a01b038116611ae15760405163d92e233d60e01b815260040160405180910390fd5b611ae9613e5c565b611af1613eb6565b6001600160a01b0384166000908152600d602052604080822090516201412760e01b815260048101919091526024810185905273__$e73bdc529e43686130bc0575eb4e830f23$__90620141279060440160206040518083038186803b158015611b5a57600080fd5b505af4158015611b6e573d6000803e3d6000fd5b505050506040513d601f19601f82011682018060405250810190611b929190614b36565b6001546040516323b872dd60e01b81529192506001600160a01b0316906323b872dd90611bc790339030908690600401614e41565b602060405180830381600087803b158015611be157600080fd5b505af1158015611bf5573d6000803e3d6000fd5b505050506040513d601f19601f82011682018060405250810190611c1991906148dd565b50600154604051630852cd8d60e31b8152600481018390526001600160a01b03909116906342966c6890602401602060405180830381600087803b158015611c6057600080fd5b505af1158015611c74573d6000803e3d6000fd5b505050506040513d601f19601f82011682018060405250810190611c9891906148dd565b50611ca333856140cd565b336001600160a01b0316856001600160a01b03167fd03400b15a5f4cddbc57f0e81bca31db33e4d1ed1390211eade3518bce70562e868442604051611cea939291906152d7565b60405180910390a36001925050611d016001608a55565b5092915050565b6000816001600160a01b038116611d325760405163d92e233d60e01b815260040160405180910390fd5b611d3a613e5c565b611d42613dfd565b6001600160a01b0383166000908152600d6020526040902060080154610100900460ff16611da85760405162461bcd60e51b8152602060048201526013602482015272131bd8dad95c9cce881b9bc81c995c5d595cdd606a1b6044820152606401610c57565b6001600160a01b0383166000908152600d60205260409020600801805461ffff19166001908117909155600b54611ddf9190615454565b600b55600c54611df0906001615312565b600c556001600160a01b0383166000908152600d60205260409081902090518491601091611e1e9190614da4565b908152604080516020928190038301812080546001600160a01b0319166001600160a01b039586161790559286166000818152600d90935291206003810154600482015492937f3840128cd2c146a0ea7739b8440e824c6d2d498ae32274812561d689d751e75e93611e939392914290614f6f565b60405180910390a260019150611ab16001608a55565b806001600160a01b038116611ed15760405163d92e233d60e01b815260040160405180910390fd5b611ed9613dfd565b6004546040517fd52b2b9b7e9ee655fcb95d2e5b9e0c9f69e7ef2b8e9d2d0ea78402d576d22e2291611f18916001600160a01b03909116908590614e27565b60405180910390a150600480546001600160a01b039092166001600160a01b03199283168117909155601d8054909216179055565b6000611f57613e5c565b336000908152600d602052604090206008015460ff16611f895760405162461bcd60e51b8152600401610c5790615141565b336000908152600e602052604090205415611ff45760405162461bcd60e51b815260206004820152602560248201527f4c6f636b6572733a206c6f636b65722068617320616c72656164792072657175604482015264195cdd195960da1b6064820152608401610c57565b6120016205460042615312565b336000818152600e60209081526040808320859055600d9091529081902060038101546004820154600583015493517f59e9b7bdd325b1dd9fe5b91f457f74d4b3d58263580ae84d6be1f451bbc2851f9461205e94939291614f6f565b60405180910390a35060016120736001608a55565b90565b6060816001600160a01b0381166120a05760405163d92e233d60e01b815260040160405180910390fd5b6001600160a01b0383166000908152600d6020526040902080546120c3906154a3565b80601f01602080910402602001604051908101604052809291908181526020018280546120ef906154a3565b801561213c5780601f106121115761010080835404028352916020019161213c565b820191906000526020600020905b81548152906001019060200180831161211f57829003601f168201915b5050505050915050919050565b612151613dfd565b60095481116121725760405162461bcd60e51b8152600401610c57906151d8565b60085460408051918252602082018390527f1e29d1b5c8926360f3ac632d884775772b07f31fec4077d433e58ce823f91347910160405180910390a16008819055602155565b6121c0613dfd565b6121c86141e8565b565b6121d2613dfd565b6127108111156122225760405162461bcd60e51b815260206004820152601b60248201527a4c6f636b6572733a20696e76616c6964206c6f636b65722066656560281b6044820152606401610c57565b60075460408051918252602082018390527f44c6802691f6adea249930369a511db979a5e9a3603bdb37ceee1036da80e980910160405180910390a16007819055602055565b6000816001600160a01b0381166122925760405163d92e233d60e01b815260040160405180910390fd5b6001600160a01b0383166000908152600e60205260409020546122b85760019150611ab1565b6001600160a01b0383166000908152600e60205260409020544210156122e15760019150611ab1565b60009150611ab1565b60006122f4613e5c565b6001600160a01b0383166000908152600d6020526040908190209051635ff753e960e11b815273__$e73bdc529e43686130bc0575eb4e830f23$__9163bfeea7d29161234691349187906004016152d7565b60006040518083038186803b15801561235e57600080fd5b505af4158015612372573d6000803e3d6000fd5b505050506001600160a01b0383166000818152600d6020526040908190206004015490517f2d2b4797badefe26cd5674f9bc2b8f5ed98e2a663e1a977af971254cfefd15ad916123c69186919042906152d7565b60405180910390a25060016123db6001608a55565b92915050565b6121c8613dfd565b806001600160a01b0381166124115760405163d92e233d60e01b815260040160405180910390fd5b612419613dfd565b6001546040517f36a4c08a38b736dcecb6c328dba61238529620e83ccb23db2cc43cd34ec2609691612458916001600160a01b03909116908590614e27565b60405180910390a150600180546001600160a01b039092166001600160a01b03199283168117909155601a8054909216179055565b6058546001600160a01b031690565b6124a4613dfd565b6127108111156124f05760405162461bcd60e51b81526020600482015260176024820152764c6f636b6572733a206c657373207468616e203130302560481b6044820152606401610c57565b600a5460408051918252602082018390527f5e4dd01049cdfe5a081b404bff8e27de919fd9c8ae2145007e0921ec227f207a910160405180910390a1600a819055602355565b61253e613dfd565b806008541161255f5760405162461bcd60e51b8152600401610c57906151d8565b60095460408051918252602082018390527f883242c2a857ca527a432dfca231b1e49233fde2a96802809a0f3866e9f19e13910160405180910390a16009819055602255565b6000826001600160a01b0381166125cf5760405163d92e233d60e01b815260040160405180910390fd5b82806125ee57604051637c946ed760e01b815260040160405180910390fd5b6125f6613e5c565b6125fe613eb6565b6001600160a01b0385166000908152600d602052604080822090516318ae332560e31b815273__$e73bdc529e43686130bc0575eb4e830f23$__9163c57199289161265491906013906019908b90600401615207565b60206040518083038186803b15801561266c57600080fd5b505af4158015612680573d6000803e3d6000fd5b505050506040513d601f19601f820116820180604052508101906126a49190614b36565b90506000600d6000886001600160a01b03166001600160a01b03168152602001908152602001600020604051806101600160405290816000820180546126e9906154a3565b80601f0160208091040260200160405190810160405280929190818152602001828054612715906154a3565b80156127625780601f1061273757610100808354040283529160200191612762565b820191906000526020600020905b81548152906001019060200180831161274557829003601f168201915b5050509183525050600182015460209091019060ff16600581111561279757634e487b7160e01b600052602160045260246000fd5b60058111156127b657634e487b7160e01b600052602160045260246000fd5b81526020016002820180546127ca906154a3565b80601f01602080910402602001604051908101604052809291908181526020018280546127f6906154a3565b80156128435780601f1061281857610100808354040283529160200191612843565b820191906000526020600020905b81548152906001019060200180831161282657829003601f168201915b505050918352505060038201546020808301919091526004808401546040808501919091526005850154606085015260068501546080850152600785015460a085015260089094015460ff808216151560c08601526101008083048216151560e0870152620100009092041615159301929092526001600160a01b038b166000908152600d9091529190912001549091506128df908790615454565b6001600160a01b038089166000908152600d602052604090206004019190915560015461290f9116333085614234565b60015460025460405163095ea7b360e01b81526001600160a01b039283169263095ea7b392612945929116908690600401614e65565b602060405180830381600087803b15801561295f57600080fd5b505af1158015612973573d6000803e3d6000fd5b505050506040513d601f19601f8201168201806040525081019061299791906148dd565b50600254604080830151602084015184519251633fea436760e01b81526001600160a01b0390941693633fea4367936129dc938893909290919060009060040161528c565b602060405180830381600087803b1580156129f657600080fd5b505af1158015612a0a573d6000803e3d6000fd5b505050506040513d601f19601f82011682018060405250810190612a2e9190614b36565b50612a3933876140cd565b336001600160a01b0316876001600160a01b03167fd63782183ccef603c2adba105774db58e1701ea5e7b3e23eded1b5e967a3654c888542604051612a80939291906152d7565b60405180910390a3600194505050612a986001608a55565b505092915050565b806001600160a01b038116612ac85760405163d92e233d60e01b815260040160405180910390fd5b612ad0613dfd565b612ad982612bfd565b15612af65760405162461bcd60e51b8152600401610c57906150d1565b6001600160a01b038216600081815260116020526040808220805460ff19166001179055517f6ae172837ea30b801fbfcdd4108aa1d5bf8ff775444fd70256b44e6bf3dfc3f69190a25050565b612b4b613dfd565b60055460408051918252602082018390527f65fb7af72786d428e2b4e9d3d2bd45fdd354f582ccccad2044967440b98e6d7b910160405180910390a16005819055601e55565b612b99613dfd565b80612bb757604051637c946ed760e01b815260040160405180910390fd5b60065460408051918252602082018390527f063267aa94de35dcf03acb07931ff2a6eae1ac1ee0be20797c9a6d3b52abf47b910160405180910390a16006819055601f55565b6000816001600160a01b038116612c275760405163d92e233d60e01b815260040160405180910390fd5b50506001600160a01b031660009081526011602052604090205460ff1690565b600d60205260009081526040902080548190612c62906154a3565b80601f0160208091040260200160405190810160405280929190818152602001828054612c8e906154a3565b8015612cdb5780601f10612cb057610100808354040283529160200191612cdb565b820191906000526020600020905b815481529060010190602001808311612cbe57829003601f168201915b5050506001840154600285018054949560ff909216949193509150612cff906154a3565b80601f0160208091040260200160405190810160405280929190818152602001828054612d2b906154a3565b8015612d785780601f10612d4d57610100808354040283529160200191612d78565b820191906000526020600020905b815481529060010190602001808311612d5b57829003601f168201915b5050506003840154600485015460058601546006870154600788015460089098015496979396929550909350919060ff80821691610100810482169162010000909104168b565b6000600d600060108585604051612dd7929190614d78565b9081526040805160209281900383019020546001600160a01b0316835290820192909252016000206008015460ff169392505050565b6000612e17613e5c565b73__$e73bdc529e43686130bc0575eb4e830f23$__634f02c5a4600d601960108c8c604051612e47929190614d78565b908152602001604051809103902060009054906101000a90046001600160a01b03168a8a8e8e8c8c8c6040518b63ffffffff1660e01b8152600401612e959a99989796959493929190614f9e565b60006040518083038186803b158015612ead57600080fd5b505af4158015612ec1573d6000803e3d6000fd5b50506019546001600160a01b0316159150612ef0905057612ef0336019546001600160a01b0316903089614234565b600b54612efe906001615312565b600b55336001600160a01b03167fe5f7957016a87f9d7bacdd371a516d7f2c5667aa5676c7e07cc8c0bbc6e5067b89898989604051612f409493929190614e7e565b60405180910390a2506001612f556001608a55565b979650505050505050565b6000612f6a613e5c565b336000908152600d602052604090206008015460ff16612f9c5760405162461bcd60e51b8152600401610c5790615141565b336000818152600e60209081526040808320839055600d9091529081902060038101546004820154600583015493517ff5c2a2ca5d59b6903bcb66377907e2c66983741a553bae891c485953b2a1f96f94612ff994939291614f6f565b60405180910390a25060016120736001608a55565b6000613018613e5c565b613020613eb6565b6002546001600160a01b0316336001600160a01b0316146130535760405162461bcd60e51b8152600401610c579061508c565b6001600160a01b0385166000908152600d60205260408082209051630b6f92b160e31b8152829173__$e73bdc529e43686130bc0575eb4e830f23$__91635b7c9588916130ac916013906019908c908b90600401615239565b604080518083038186803b1580156130c357600080fd5b505af41580156130d7573d6000803e3d6000fd5b505050506040513d601f19601f820116820180604052508101906130fb9190614b4e565b60405191935091506001600160a01b0386169083156108fc029084906000818181858888f19350505050158015613136573d6000803e3d6000fd5b50306001600160a01b038681169089167fab522c1322c34ea455e8f541ecfe1b73a29039f3658bff658cf12c9fd26dc01685886131738288615312565b4260006040516131879594939291906152ed565b60405180910390a460019250505061319f6001608a55565b949350505050565b602554610100900460ff16158080156131c75750602554600160ff909116105b806131e15750303b1580156131e1575060255460ff166001145b6132445760405162461bcd60e51b815260206004820152602e60248201527f496e697469616c697a61626c653a20636f6e747261637420697320616c72656160448201526d191e481a5b9a5d1a585b1a5e995960921b6064820152608401610c57565b6025805460ff191660011790558015613267576025805461ff0019166101001790555b61326f614292565b6132776142c1565b61327f6142f0565b6132888a6123e9565b613291886136fa565b61329a89611ea9565b6132a387612b43565b6132ac86612b91565b6132b585612149565b6132be84612536565b6132c7836121ca565b6132d08261249c565b612710601381905560148190556130d46015556016556012601755601880546001600160a01b03191660011790558015613344576025805461ff0019169055604051600181527f7f26b83ff96e1f2b6a682f133852f6798a09c465da95921460cefb38474024989060200160405180910390a15b50505050505050505050565b600060108383604051613364929190614d78565b908152604051908190036020019020546001600160a01b0316905092915050565b600061338f613e5c565b336000908152600d6020526040902060080154610100900460ff166133e85760405162461bcd60e51b815260206004820152600f60248201526e4c6f636b6572733a206e6f2072657160881b6044820152606401610c57565b336000908152600d602052604080822081516101608101909252805482908290613411906154a3565b80601f016020809104026020016040519081016040528092919081815260200182805461343d906154a3565b801561348a5780601f1061345f5761010080835404028352916020019161348a565b820191906000526020600020905b81548152906001019060200180831161346d57829003601f168201915b5050509183525050600182015460209091019060ff1660058111156134bf57634e487b7160e01b600052602160045260246000fd5b60058111156134de57634e487b7160e01b600052602160045260246000fd5b81526020016002820180546134f2906154a3565b80601f016020809104026020016040519081016040528092919081815260200182805461351e906154a3565b801561356b5780601f106135405761010080835404028352916020019161356b565b820191906000526020600020905b81548152906001019060200180831161354e57829003601f168201915b505050918352505060038201546020820152600482015460408201526005820154606082015260068201546080820152600782015460a082015260089091015460ff808216151560c08401526101008083048216151560e0850152620100009092041615159101529050600d6000336001600160a01b03168152602081019190915260400160009081209061360082826146dc565b60018201805460ff1916905561361a6002830160006146dc565b506000600382018190556004820181905560058201819055600682018190556007820155600801805462ffffff19169055600b5461365a90600190615454565b600b5561367a335b60608301516000546001600160a01b0316919061431f565b613689335b82608001516140cd565b336000818152600d6020526040908190206003810154600482015492517f10f84ef0773ba7ade3714f4e500ca17436e6df2b0feb99c754c04f889290cbd4936136d3939291614f5c565b60405180910390a260019150506120736001608a55565b6136f2613dfd565b6121c861433e565b806001600160a01b0381166137225760405163d92e233d60e01b815260040160405180910390fd5b61372a613dfd565b6002546040517fd86d51326f3c88ea5365fba597a57273ae555e44f4b11658da952320d0beaa7591613769916001600160a01b03909116908590614e27565b60405180910390a16002546040516001600160a01b03909116907f90eabbc0c667db2a5029ed6bc0f5fe9f356d11684a4ca9fcfaec0e53f12b9c8e90600090a2600280546001600160a01b03908116600090815260126020526040808220805460ff1916905583549286166001600160a01b03199384168117909455601b8054909316841790925590517f86e57fd2b90329052917118de7c3f521f400d439b9650deaa906a25b08b945609190a250506002546001600160a01b03166000908152601260205260409020805460ff19166001179055565b613848613dfd565b6001600160a01b0381166138ad5760405162461bcd60e51b815260206004820152602660248201527f4f776e61626c653a206e6577206f776e657220697320746865207a65726f206160448201526564647265737360d01b6064820152608401610c57565b6138b68161437b565b50565b806001600160a01b0381166138e15760405163d92e233d60e01b815260040160405180910390fd5b6138e9613dfd565b6138f282611a68565b1561390f5760405162461bcd60e51b8152600401610c57906150d1565b6001600160a01b038216600081815260126020526040808220805460ff19166001179055517f86e57fd2b90329052917118de7c3f521f400d439b9650deaa906a25b08b945609190a25050565b613964613dfd565b806001600160a01b03811661398c5760405163d92e233d60e01b815260040160405180910390fd5b6000546040517f3e4520ab29fdd336aca22cca0657921e53eb42307038c1895b6b5e60eec3796f916139cb916001600160a01b03909116908590614e27565b60405180910390a150600080546001600160a01b039092166001600160a01b0319928316811790915560198054909216179055565b6000613a0a613e5c565b336000908152600d602052604080822081516101608101909252805482908290613a33906154a3565b80601f0160208091040260200160405190810160405280929190818152602001828054613a5f906154a3565b8015613aac5780601f10613a8157610100808354040283529160200191613aac565b820191906000526020600020905b815481529060010190602001808311613a8f57829003601f168201915b5050509183525050600182015460209091019060ff166005811115613ae157634e487b7160e01b600052602160045260246000fd5b6005811115613b0057634e487b7160e01b600052602160045260246000fd5b8152602001600282018054613b14906154a3565b80601f0160208091040260200160405190810160405280929190818152602001828054613b40906154a3565b8015613b8d5780601f10613b6257610100808354040283529160200191613b8d565b820191906000526020600020905b815481529060010190602001808311613b7057829003601f168201915b505050918352505060038201546020820152600482015460408201526005820154606082015260068201546080820152600782015460a082015260089091015460ff808216151560c08401526101008083048216151560e08501526201000090920416151591810191909152810151909150613c1b5760405162461bcd60e51b8152600401610c579061501d565b613c2433612268565b15613c415760405162461bcd60e51b8152600401610c5790615112565b60a081015115613c8b5760405162461bcd60e51b8152602060048201526015602482015274131bd8dad95c9cce880c081b995d081b5a5b9d1959605a1b6044820152606401610c57565b60c081015115613cd85760405162461bcd60e51b81526020600482015260186024820152774c6f636b6572733a203020736c617368696e67205442544360401b6044820152606401610c57565b336000908152600d6020526040908190209051601091613cf791614da4565b90815260405190819003602001902080546001600160a01b0319169055600d6000613d1f3390565b6001600160a01b031681526020810191909152604001600090812090613d4582826146dc565b60018201805460ff19169055613d5f6002830160006146dc565b506000600382018190556004820181905560058201819055600682018190556007820155600801805462ffffff19169055600c54613d9f90600190615454565b600c55613dab33613662565b613db43361367f565b336001600160a01b03167f628f3d67160bc1a892a1779c6475e128010a54df63af5dcdbf3c7b06ca5dfa978260000151836060015184608001516040516136d393929190614f37565b33613e0661248d565b6001600160a01b0316146121c85760405162461bcd60e51b815260206004820181905260248201527f4f776e61626c653a2063616c6c6572206973206e6f7420746865206f776e65726044820152606401610c57565b6002608a541415613eaf5760405162461bcd60e51b815260206004820152601f60248201527f5265656e7472616e637947756172643a207265656e7472616e742063616c6c006044820152606401610c57565b6002608a55565b60bc5460ff16156121c85760405162461bcd60e51b815260206004820152601060248201526f14185d5cd8589b194e881c185d5cd95960821b6044820152606401610c57565b6001608a55565b600885015460ff16613f575760405162461bcd60e51b815260206004820181905260248201527f4c6f636b6572733a206163636f756e74206973206e6f742061206c6f636b65726044820152606401610c57565b600085600501548560800151600a613f6f919061538d565b856101000151613f7f9190615435565b86516004890154613f91908790615435565b613f9b9190615435565b613fa5919061532a565b613faf9190615454565b90506000838660800151600a613fc5919061538d565b613fcf9084615435565b613fd9919061532a565b90508083111561403f5760405162461bcd60e51b815260206004820152602b60248201527f4c6f636b6572733a206d6f7265207468616e206d61782072656d6f7661626c6560448201526a0818dbdb1b185d195c985b60aa1b6064820152608401610c57565b8460c001518388600401546140549190615454565b10156140ac5760405162461bcd60e51b815260206004820152602160248201527f4c6f636b6572733a206c657373207468616e206d696e20636f6c6c61746572616044820152601b60fa1b6064820152608401610c57565b8287600401546140bc9190615454565b876004018190555050505050505050565b8047101561411d5760405162461bcd60e51b815260206004820152601d60248201527f416464726573733a20696e73756666696369656e742062616c616e63650000006044820152606401610c57565b6000826001600160a01b03168260405160006040518083038185875af1925050503d806000811461416a576040519150601f19603f3d011682016040523d82523d6000602084013e61416f565b606091505b50509050806141e35760405162461bcd60e51b815260206004820152603a60248201527f416464726573733a20756e61626c6520746f2073656e642076616c75652c20726044820152791958da5c1a595b9d081b585e481a185d99481c995d995c9d195960321b6064820152608401610c57565b505050565b6141f06143cd565b60bc805460ff191690557f5db9ee0a495bf2e6ff9c91a7834c1ba4fdd244a5e8aa4e537bd38aeae4b073aa335b60405161422a9190614e13565b60405180910390a1565b61428c846323b872dd60e01b85858560405160240161425593929190614e41565b60408051601f198184030181529190526020810180516001600160e01b03166001600160e01b031990931692909217909152614416565b50505050565b602554610100900460ff166142b95760405162461bcd60e51b8152600401610c579061518d565b6121c86144e8565b602554610100900460ff166142e85760405162461bcd60e51b8152600401610c579061518d565b6121c8614518565b602554610100900460ff166143175760405162461bcd60e51b8152600401610c579061518d565b6121c861453f565b6141e38363a9059cbb60e01b8484604051602401614255929190614e65565b614346613eb6565b60bc805460ff191660011790557f62e78cea01bee320cd4e420270b5ea74000d11b0c9f74754ebdbfc544b05a25861421d3390565b605880546001600160a01b038381166001600160a01b0319831681179093556040519116919082907f8be0079c531659141344cd1fd0a4f28419497f9722a3daafe3b4186f6b6457e090600090a35050565b60bc5460ff166121c85760405162461bcd60e51b815260206004820152601460248201527314185d5cd8589b194e881b9bdd081c185d5cd95960621b6044820152606401610c57565b600061446b826040518060400160405280602081526020017f5361666545524332303a206c6f772d6c6576656c2063616c6c206661696c6564815250856001600160a01b03166145729092919063ffffffff16565b8051909150156141e3578080602001905181019061448991906148dd565b6141e35760405162461bcd60e51b815260206004820152602a60248201527f5361666545524332303a204552433230206f7065726174696f6e20646964206e6044820152691bdd081cdd58d8d9595960b21b6064820152608401610c57565b602554610100900460ff1661450f5760405162461bcd60e51b8152600401610c579061518d565b6121c83361437b565b602554610100900460ff16613efc5760405162461bcd60e51b8152600401610c579061518d565b602554610100900460ff166145665760405162461bcd60e51b8152600401610c579061518d565b60bc805460ff19169055565b6060614581848460008561458b565b90505b9392505050565b6060824710156145ec5760405162461bcd60e51b815260206004820152602660248201527f416464726573733a20696e73756666696369656e742062616c616e636520666f6044820152651c8818d85b1b60d21b6064820152608401610c57565b843b61463a5760405162461bcd60e51b815260206004820152601d60248201527f416464726573733a2063616c6c20746f206e6f6e2d636f6e74726163740000006044820152606401610c57565b600080866001600160a01b031685876040516146569190614d88565b60006040518083038185875af1925050503d8060008114614693576040519150601f19603f3d011682016040523d82523d6000602084013e614698565b606091505b5091509150612f55828286606083156146b2575081614584565b8251156146c25782518084602001fd5b8160405162461bcd60e51b8152600401610c579190614ea5565b5080546146e8906154a3565b6000825580601f106146f8575050565b601f0160209004906000526020600020908101906138b691905b808211156147265760008155600101614712565b5090565b80356001600160a01b038116811461163c57600080fd5b60008083601f840112614752578081fd5b5081356001600160401b03811115614768578182fd5b60208301915083602082850101111561478057600080fd5b9250929050565b600060208284031215614798578081fd5b6145848261472a565b60008060008060008060008060006101208a8c0312156147bf578485fd5b6147c88a61472a565b98506147d660208b0161472a565b97506147e460408b0161472a565b989b979a5097986060810135985060808101359760a0820135975060c0820135965060e08201359550610100909101359350915050565b6000806040838503121561482d578182fd5b6148368361472a565b946020939093013593505050565b60008060008060808587031215614859578384fd5b6148628561472a565b9350602085013592506148776040860161472a565b9396929550929360600135925050565b600080600080600060a0868803121561489e578081fd5b6148a78661472a565b9450602086013593506148bc6040870161472a565b9250606086013591506148d16080870161472a565b90509295509295909350565b6000602082840312156148ee578081fd5b81518015158114614584578182fd5b6000806020838503121561490f578182fd5b82356001600160401b03811115614924578283fd5b61493085828601614741565b90969095509350505050565b60008060008060608587031215614951578384fd5b84356001600160401b03811115614966578485fd5b61497287828801614741565b909550935061498590506020860161472a565b9396929550929360400135925050565b6000806000604084860312156149a9578283fd5b83356001600160401b038111156149be578384fd5b6149ca86828701614741565b909790965060209590950135949350505050565b600080600080600080600060a0888a0312156149f8578283fd5b87356001600160401b0380821115614a0e578485fd5b614a1a8b838c01614741565b909950975060208a0135965060408a0135955060608a0135915060068210614a40578485fd5b90935060808901359080821115614a55578384fd5b50614a628a828b01614741565b989b979a50959850939692959293505050565b600060208284031215614a86578081fd5b81356001600160401b0380821115614a9c578283fd5b818401915084601f830112614aaf578283fd5b813581811115614ac157614ac16154ee565b604051601f8201601f19908116603f01168101908382118183101715614ae957614ae96154ee565b81604052828152876020848701011115614b01578586fd5b826020860160208301379182016020019490945295945050505050565b600060208284031215614b2f578081fd5b5035919050565b600060208284031215614b47578081fd5b5051919050565b60008060408385031215614b60578182fd5b505080516020909101519092909150565b6001600160a01b03169052565b81835281816020850137506000828201602090810191909152601f909101601f19169091010190565b60008151808452614bbf816020860160208601615477565b601f01601f19169290920160200192915050565b60008154614be0816154a3565b808552602060018381168015614bfd5760018114614c1157614c3f565b60ff19851688840152604088019550614c3f565b866000528260002060005b85811015614c375781548a8201860152908301908401614c1c565b890184019650505b505050505092915050565b60068110614c6857634e487b7160e01b600052602160045260246000fd5b9052565b8054825260018101546020830152600281015460408301526003810154606083015260048101546080830152600501546001600160a01b031660a090910152565b614cc082614cbb835461546b565b614b71565b614ccd600182015461546b565b614cda6020840182614b71565b50614ce8600282015461546b565b614cf56040840182614b71565b50614d03600382015461546b565b614d106060840182614b71565b50614d1e600482015461546b565b614d2b6080840182614b71565b50600581015460a0830152600681015460c0830152600781015460e083015260088101546101008301526009810154610120830152600a810154610140830152600b015461016090910152565b8183823760009101908152919050565b60008251614d9a818460208701615477565b9190910192915050565b6000808354614db2816154a3565b60018281168015614dca5760018114614ddb57614e07565b60ff19841687528287019450614e07565b8786526020808720875b85811015614dfe5781548a820152908401908201614de5565b50505082870194505b50929695505050505050565b6001600160a01b0391909116815260200190565b6001600160a01b0392831681529116602082015260400190565b6001600160a01b039384168152919092166020820152604081019190915260600190565b6001600160a01b03929092168252602082015260400190565b606081526000614e92606083018688614b7e565b6020830194909452506040015292915050565b6020815260006145846020830184614ba7565b6000610160808352614ecc8184018f614ba7565b9050614edb602084018e614c4a565b8281036040840152614eed818d614ba7565b606084019b909b525050608081019790975260a087019590955260c086019390935260e0850191909152151561010084015215156101208301521515610140909101529392505050565b606081526000614f4a6060830186614ba7565b60208301949094525060400152919050565b606081526000614f4a6060830186614bd3565b608081526000614f826080830187614bd3565b6020830195909552506040810192909252606090910152919050565b60006102608c8352614fb3602084018d614cad565b6001600160a01b038b166101a08401526101c083018a90526101e083018990526102008301819052614fe8818401888a614b7e565b9050614ff8610220840187614c4a565b82810361024084015261500c818587614b7e565b9d9c50505050505050505050505050565b6020808252601290820152712637b1b5b2b9399d103737903637b1b5b2b960711b604082015260600190565b60208082526023908201527f4c6f636b6572733a206163636f756e7420646f6573206e6f74206861766520726040820152626f6c6560e81b606082015260800190565b60208082526025908201527f4c6f636b6572733a206d6573736167652073656e646572206973206e6f74206360408201526431a13ab93760d91b606082015260800190565b60208082526021908201527f4c6f636b6572733a206163636f756e7420616c72656164792068617320726f6c6040820152606560f81b606082015260800190565b6020808252601590820152744c6f636b6572733a207374696c6c2061637469766560581b604082015260600190565b6020808252602c908201527f4c6f636b6572733a20696e7075742061646472657373206973206e6f7420612060408201526b3b30b634b2103637b1b5b2b960a11b606082015260800190565b6020808252602b908201527f496e697469616c697a61626c653a20636f6e7472616374206973206e6f74206960408201526a6e697469616c697a696e6760a81b606082015260800190565b6020808252601590820152742637b1b5b2b9399d1036bab9ba1021a9101f10262960591b604082015260600190565b848152610280810161521c6020830186614c6c565b61522960e0830185614cad565b8261026083015295945050505050565b8581526102a0810161524e6020830187614c6c565b61525b60e0830186614cad565b61026082019390935261028001529392505050565b610240810161527f8285614c6c565b61458460c0830184614cad565b85815260a0602082015260006152a560a0830187614ba7565b6152b26040840187614c4a565b82810360608401526152c48186614ba7565b9150508260808301529695505050505050565b9283526020830191909152604082015260600190565b9485526020850193909352604084019190915260608301521515608082015260a00190565b60008219821115615325576153256154d8565b500190565b60008261534557634e487b7160e01b81526012600452602481fd5b500490565b600181815b8085111561538557816000190482111561536b5761536b6154d8565b8085161561537857918102915b93841c939080029061534f565b509250929050565b600061458483836000826153a3575060016123db565b816153b0575060006123db565b81600181146153c657600281146153d0576153ec565b60019150506123db565b60ff8411156153e1576153e16154d8565b50506001821b6123db565b5060208310610133831016604e8410600b841016171561540f575081810a6123db565b615419838361534a565b806000190482111561542d5761542d6154d8565b029392505050565b600081600019048311821515161561544f5761544f6154d8565b500290565b600082821015615466576154666154d8565b500390565b6001600160a01b031690565b60005b8381101561549257818101518382015260200161547a565b8381111561428c5750506000910152565b600181811c908216806154b757607f821691505b60208210811415611ab157634e487b7160e01b600052602260045260246000fd5b634e487b7160e01b600052601160045260246000fd5b634e487b7160e01b600052604160045260246000fdfea2646970667358221220be3d4ad0118289eb834193cd61a0a15fe4a81799e3ac11398cc2d26e9590db0164736f6c63430008040033",
  "libraries": {
    "LockersManagerLib": "0x1C49B4130670EF5f1a80664ce46b0803896a4e4b"
  },
  "devdoc": {
    "kind": "dev",
    "methods": {
      "addCollateral(address,uint256)": {
        "params": {
          "_addingNativeTokenAmount": "Amount of added collateral",
          "_lockerTargetAddress": "Locker's target chain address"
        },
        "returns": {
          "_0": "True if collateral is added successfully"
        }
      },
      "addLocker(address)": {
        "details": "Only owner can call this. The isCandidate is also set to false.",
        "params": {
          "_lockerTargetAddress": "Locker's target chain address"
        },
        "returns": {
          "_0": "True if the candidate is added successfully"
        }
      },
      "burn(bytes,uint256)": {
        "details": "Burn teleBTC and also get the locker's fee",
        "params": {
          "_amount": "Amount of the teleBTC which is minted, including the locker's fee",
          "_lockerLockingScript": "Locking script of a locker"
        },
        "returns": {
          "_0": "uint                  The amount of teleBTC burnt"
        }
      },
      "buySlashedCollateralOfLocker(address,uint256)": {
        "details": "Users buy the slashed collateral using TeleBTC with discount                                   The paid TeleBTC will be burnt to keep the system safe                                   If all the needed TeleBTC is collected and burnt,                                   the rest of slashed collateral is sent back to locker",
        "params": {
          "_collateralAmount": "Amount of collateral (TNT) that someone intends to buy with discount",
          "_lockerTargetAddress": "Locker's target chain address"
        },
        "returns": {
          "_0": "True if buying was successful"
        }
      },
      "isBurner(address)": {
        "params": {
          "account": "The account which intended to be checked"
        },
        "returns": {
          "_0": "bool"
        }
      },
      "isLockerActive(address)": {
        "details": "We check a locker status in below cases:                                     1. Minting TeleBTC                                     2. Removing locker's collateral                                     3. Removing locker",
        "params": {
          "_lockerTargetAddress": "Address of locker on the target chain"
        },
        "returns": {
          "_0": "True if the locker is active"
        }
      },
      "isMinter(address)": {
        "params": {
          "account": "The account which intended to be checked"
        },
        "returns": {
          "_0": "bool"
        }
      },
      "liquidateLocker(address,uint256)": {
        "details": "Anyone can liquidate Locker with health factor under      100% by providing a sufficient amount of TeleBTC.",
        "params": {
          "_collateralAmount": "Amount of TNT collateral that someone wants to buy with discount",
          "_lockerTargetAddress": "Locker's target chain address"
        },
        "returns": {
          "_0": "True if liquidation was successful"
        }
      },
      "mint(bytes,address,uint256)": {
        "details": "Mint teleBTC for an account and the locker fee as well",
        "params": {
          "_amount": "Amount of the teleBTC which is minted, including the locker's fee",
          "_lockerLockingScript": "Locking script of a locker",
          "_receiver": "Address of the receiver of the minted teleBTCs"
        },
        "returns": {
          "_0": "uint                  The amount of teleBTC minted for the receiver"
        }
      },
      "owner()": {
        "details": "Returns the address of the current owner."
      },
      "pauseLocker()": {
        "details": "Only functions with whenPaused modifier can be called"
      },
      "paused()": {
        "details": "Returns true if the contract is paused, and false otherwise."
      },
      "priceOfOneUnitOfCollateralInBTC()": {
        "details": "Returns the price of one native token (1*10^18) in teleBTC",
        "returns": {
          "_0": "uint The price of one unit of collateral token (native token in teleBTC)"
        }
      },
      "removeCollateral(uint256)": {
        "params": {
          "_removingNativeTokenAmount": "Amount of removed collateral"
        },
        "returns": {
          "_0": "True if collateral is removed successfully"
        }
      },
      "renounceOwnership()": {
        "details": "Leaves the contract without owner. It will not be possible to call `onlyOwner` functions anymore. Can only be called by the current owner. NOTE: Renouncing ownership will leave the contract without an owner, thereby removing any functionality that is only available to the owner."
      },
      "requestActivation()": {
        "details": "Users can only mint TeleBTC by active locker      Note: lockerInactivationTimestamp = 0 means that the Locker is active",
        "returns": {
          "_0": "True if activated successfully"
        }
      },
      "requestInactivation()": {
        "details": "This would inactivate Locker after INACTIVATION_DELAY. The impact of inactivation is:      1. No one can mint TeleBTC by the Locker      2. Locker can be removed      3. Locker can withdraw unused collateral",
        "returns": {
          "_0": "True if deactivated successfully"
        }
      },
      "requestToBecomeLocker(bytes,uint256,uint256,uint8,bytes)": {
        "details": "This request may be approved by the owner",
        "params": {
          "_candidateLockingScript": "Locking script of the Locker. Users can use this script to lock BTC.",
          "_lockedNativeTokenAmount": "TNT (target native token) bond amount",
          "_lockedTSTAmount": "TST bond amount",
          "_lockerRescueScript": "Rescue script of Locker. In the case of liqudation, BTC is sent to this script.",
          "_lockerRescueType": "Type of Locker's rescue script (e.g. P2SH)"
        },
        "returns": {
          "_0": "True if candidate added successfully"
        }
      },
      "revokeRequest()": {
        "details": "Send back TST and TNT collateral to the candidate",
        "returns": {
          "_0": "True if the candidate is removed successfully"
        }
      },
      "selfRemoveLocker()": {
        "details": "Only Locker can call this. The conditions for successful remove is:      1. Locker has been inactivated      2. Locker net minted TeleBTC is 0      3. Locker is not being slashed",
        "returns": {
          "_0": "True if locker is removed successfully"
        }
      },
      "setCollateralRatio(uint256)": {
        "details": "This ratio is used to calculate the maximum mintable TeleBTC by a Locker"
      },
      "setLockerPercentageFee(uint256)": {
        "details": "This fee is taken by Locker for every minting or burning"
      },
      "setPriceOracle(address)": {
        "details": "This oracle is used to get the price of native token in BTC"
      },
      "setPriceWithDiscountRatio(uint256)": {
        "details": "This ratio gives discount to users who participate in Locker liquidation"
      },
      "slashIdleLocker(address,uint256,address,uint256,address)": {
        "details": "Only burn router can call this. Locker is slashed since he doesn't provide burn proof      before the request deadline. User who made the burn request will receive the slashed bond.",
        "params": {
          "_amount": "Amount of TeleBTC that is slashed from Locker",
          "_lockerTargetAddress": "Locker's target chain address",
          "_recipient": "Address of user who receives the slashed collateral",
          "_rewardAmount": "Amount of TeleBTC that slasher receives",
          "_slasher": "Address of slasher who receives reward"
        },
        "returns": {
          "_0": "True if the locker is slashed successfully"
        }
      },
      "slashThiefLocker(address,uint256,address,uint256)": {
        "details": "Only burn router can call. Locker is slashed because he moved BTC from      Locker's Bitcoin address without any corresponding burn req.      The slashed bond will be sold with discount.",
        "params": {
          "_amount": "Value of slashed collateral (in TeleBTC)",
          "_lockerTargetAddress": "Locker's target chain address",
          "_rewardAmount": "Value of slashed reward (in TeleBTC)",
          "_slasher": "Address of slasher who receives reward"
        },
        "returns": {
          "_0": "True if the locker is slashed successfully"
        }
      },
      "transferOwnership(address)": {
        "details": "Transfers ownership of the contract to a new account (`newOwner`). Can only be called by the current owner."
      },
      "unPauseLocker()": {
        "details": "Only functions with whenNotPaused modifier can be called"
      }
    },
    "version": 1
  },
  "userdoc": {
    "kind": "user",
    "methods": {
      "addBurner(address)": {
        "notice": "Give an account access to burn"
      },
      "addCollateral(address,uint256)": {
        "notice": "Increases TNT collateral of the locker"
      },
      "addLocker(address)": {
        "notice": "Approve the candidate request to become Locker"
      },
      "addMinter(address)": {
        "notice": "Give an account access to mint"
      },
      "burn(bytes,uint256)": {
        "notice": "Burn teleBTC of an account"
      },
      "buySlashedCollateralOfLocker(address,uint256)": {
        "notice": "Sells lockers slashed collateral"
      },
      "getLockerLockingScript(address)": {
        "notice": "Return locking script of _lockerTargetAddress Locker"
      },
      "getLockerTargetAddress(bytes)": {
        "notice": "Return EVM address of _lockerLockingScript Locker"
      },
      "getNumberOfLockers()": {
        "notice": "Return total number of Lockers"
      },
      "isBurner(address)": {
        "notice": "Check if an account is burner"
      },
      "isLocker(bytes)": {
        "notice": "Return true if _lockerLockingScript is Locker"
      },
      "isLockerActive(address)": {
        "notice": "Returns the Locker status"
      },
      "isMinter(address)": {
        "notice": "Check if an account is minter"
      },
      "liquidateLocker(address,uint256)": {
        "notice": "Liquidate Locker with unhealthy collateral"
      },
      "mint(bytes,address,uint256)": {
        "notice": "Mint teleBTC for an account"
      },
      "pauseLocker()": {
        "notice": "Pause the contract"
      },
      "removeBurner(address)": {
        "notice": "Remove an account's access to burn"
      },
      "removeCollateral(uint256)": {
        "notice": "Decreases TNT collateral of the locker"
      },
      "removeMinter(address)": {
        "notice": "Remove an account's access to mint"
      },
      "requestActivation()": {
        "notice": "Activate Locker"
      },
      "requestInactivation()": {
        "notice": "Request to inactivate Locker"
      },
      "requestToBecomeLocker(bytes,uint256,uint256,uint8,bytes)": {
        "notice": "Submit request to become Locker"
      },
      "revokeRequest()": {
        "notice": "Revoke request to become Locker"
      },
      "selfRemoveLocker()": {
        "notice": "Removes Locker from system and send back Locker TST and TNT collateral."
      },
      "setCCBurnRouter(address)": {
        "notice": "Update burn router address"
      },
      "setCollateralRatio(uint256)": {
        "notice": "Update collateral ratio"
      },
      "setLiquidationRatio(uint256)": {
        "notice": "Update liquidation ratio"
      },
      "setLockerPercentageFee(uint256)": {
        "notice": "Update locker percentage fee"
      },
      "setMinRequiredTDTLockedAmount(uint256)": {
        "notice": "Update the required TST bond to become Locker"
      },
      "setMinRequiredTNTLockedAmount(uint256)": {
        "notice": "Update the required native token bond to become Locker"
      },
      "setPriceOracle(address)": {
        "notice": "Update the price oracle"
      },
      "setPriceWithDiscountRatio(uint256)": {
        "notice": "Update price with discount ratio"
      },
      "setTST(address)": {
        "notice": "Update TST contract address"
      },
      "setTeleBTC(address)": {
        "notice": "Update wrapped BTC address"
      },
      "slashIdleLocker(address,uint256,address,uint256,address)": {
        "notice": "Slash Locker for unprocessed unwrap request"
      },
      "slashThiefLocker(address,uint256,address,uint256)": {
        "notice": "Slash Locker for stealing users BTC"
      },
      "unPauseLocker()": {
        "notice": "Un-pause the contract"
      }
    },
    "version": 1
  },
  "storageLayout": {
    "storage": [
      {
        "astId": 11473,
        "contract": "contracts/lockersManager/LockersManagerLogic.sol:LockersManagerLogic",
        "label": "TeleportDAOToken",
        "offset": 0,
        "slot": "0",
        "type": "t_address"
      },
      {
        "astId": 11476,
        "contract": "contracts/lockersManager/LockersManagerLogic.sol:LockersManagerLogic",
        "label": "teleBTC",
        "offset": 0,
        "slot": "1",
        "type": "t_address"
      },
      {
        "astId": 11479,
        "contract": "contracts/lockersManager/LockersManagerLogic.sol:LockersManagerLogic",
        "label": "ccBurnRouter",
        "offset": 0,
        "slot": "2",
        "type": "t_address"
      },
      {
        "astId": 11482,
        "contract": "contracts/lockersManager/LockersManagerLogic.sol:LockersManagerLogic",
        "label": "exchangeConnector",
        "offset": 0,
        "slot": "3",
        "type": "t_address"
      },
      {
        "astId": 11485,
        "contract": "contracts/lockersManager/LockersManagerLogic.sol:LockersManagerLogic",
        "label": "priceOracle",
        "offset": 0,
        "slot": "4",
        "type": "t_address"
      },
      {
        "astId": 11488,
        "contract": "contracts/lockersManager/LockersManagerLogic.sol:LockersManagerLogic",
        "label": "minRequiredTDTLockedAmount",
        "offset": 0,
        "slot": "5",
        "type": "t_uint256"
      },
      {
        "astId": 11491,
        "contract": "contracts/lockersManager/LockersManagerLogic.sol:LockersManagerLogic",
        "label": "minRequiredTNTLockedAmount",
        "offset": 0,
        "slot": "6",
        "type": "t_uint256"
      },
      {
        "astId": 11494,
        "contract": "contracts/lockersManager/LockersManagerLogic.sol:LockersManagerLogic",
        "label": "lockerPercentageFee",
        "offset": 0,
        "slot": "7",
        "type": "t_uint256"
      },
      {
        "astId": 11497,
        "contract": "contracts/lockersManager/LockersManagerLogic.sol:LockersManagerLogic",
        "label": "collateralRatio",
        "offset": 0,
        "slot": "8",
        "type": "t_uint256"
      },
      {
        "astId": 11500,
        "contract": "contracts/lockersManager/LockersManagerLogic.sol:LockersManagerLogic",
        "label": "liquidationRatio",
        "offset": 0,
        "slot": "9",
        "type": "t_uint256"
      },
      {
        "astId": 11503,
        "contract": "contracts/lockersManager/LockersManagerLogic.sol:LockersManagerLogic",
        "label": "priceWithDiscountRatio",
        "offset": 0,
        "slot": "10",
        "type": "t_uint256"
      },
      {
        "astId": 11506,
        "contract": "contracts/lockersManager/LockersManagerLogic.sol:LockersManagerLogic",
        "label": "totalNumberOfCandidates",
        "offset": 0,
        "slot": "11",
        "type": "t_uint256"
      },
      {
        "astId": 11509,
        "contract": "contracts/lockersManager/LockersManagerLogic.sol:LockersManagerLogic",
        "label": "totalNumberOfLockers",
        "offset": 0,
        "slot": "12",
        "type": "t_uint256"
      },
      {
        "astId": 11514,
        "contract": "contracts/lockersManager/LockersManagerLogic.sol:LockersManagerLogic",
        "label": "lockersMapping",
        "offset": 0,
        "slot": "13",
        "type": "t_mapping(t_address,t_struct(locker)11568_storage)"
      },
      {
        "astId": 11518,
        "contract": "contracts/lockersManager/LockersManagerLogic.sol:LockersManagerLogic",
        "label": "lockerInactivationTimestamp",
        "offset": 0,
        "slot": "14",
        "type": "t_mapping(t_address,t_uint256)"
      },
      {
        "astId": 11522,
        "contract": "contracts/lockersManager/LockersManagerLogic.sol:LockersManagerLogic",
        "label": "lockerLeavingAcceptance",
        "offset": 0,
        "slot": "15",
        "type": "t_mapping(t_address,t_bool)"
      },
      {
        "astId": 11526,
        "contract": "contracts/lockersManager/LockersManagerLogic.sol:LockersManagerLogic",
        "label": "lockerTargetAddress",
        "offset": 0,
        "slot": "16",
        "type": "t_mapping(t_bytes_memory_ptr,t_address)"
      },
      {
        "astId": 11530,
        "contract": "contracts/lockersManager/LockersManagerLogic.sol:LockersManagerLogic",
        "label": "minters",
        "offset": 0,
        "slot": "17",
        "type": "t_mapping(t_address,t_bool)"
      },
      {
        "astId": 11534,
        "contract": "contracts/lockersManager/LockersManagerLogic.sol:LockersManagerLogic",
        "label": "burners",
        "offset": 0,
        "slot": "18",
        "type": "t_mapping(t_address,t_bool)"
      },
      {
        "astId": 11537,
        "contract": "contracts/lockersManager/LockersManagerLogic.sol:LockersManagerLogic",
        "label": "libConstants",
        "offset": 0,
        "slot": "19",
        "type": "t_struct(lockersLibConstants)11581_storage"
      },
      {
        "astId": 11540,
        "contract": "contracts/lockersManager/LockersManagerLogic.sol:LockersManagerLogic",
        "label": "libParams",
        "offset": 0,
        "slot": "25",
        "type": "t_struct(lockersLibParam)11606_storage"
      },
      {
        "astId": 396,
        "contract": "contracts/lockersManager/LockersManagerLogic.sol:LockersManagerLogic",
        "label": "_initialized",
        "offset": 0,
        "slot": "37",
        "type": "t_uint8"
      },
      {
        "astId": 399,
        "contract": "contracts/lockersManager/LockersManagerLogic.sol:LockersManagerLogic",
        "label": "_initializing",
        "offset": 1,
        "slot": "37",
        "type": "t_bool"
      },
      {
        "astId": 1161,
        "contract": "contracts/lockersManager/LockersManagerLogic.sol:LockersManagerLogic",
        "label": "__gap",
        "offset": 0,
        "slot": "38",
        "type": "t_array(t_uint256)50_storage"
      },
      {
        "astId": 268,
        "contract": "contracts/lockersManager/LockersManagerLogic.sol:LockersManagerLogic",
        "label": "_owner",
        "offset": 0,
        "slot": "88",
        "type": "t_address"
      },
      {
        "astId": 388,
        "contract": "contracts/lockersManager/LockersManagerLogic.sol:LockersManagerLogic",
        "label": "__gap",
        "offset": 0,
        "slot": "89",
        "type": "t_array(t_uint256)49_storage"
      },
      {
        "astId": 699,
        "contract": "contracts/lockersManager/LockersManagerLogic.sol:LockersManagerLogic",
        "label": "_status",
        "offset": 0,
        "slot": "138",
        "type": "t_uint256"
      },
      {
        "astId": 757,
        "contract": "contracts/lockersManager/LockersManagerLogic.sol:LockersManagerLogic",
        "label": "__gap",
        "offset": 0,
        "slot": "139",
        "type": "t_array(t_uint256)49_storage"
      },
      {
        "astId": 579,
        "contract": "contracts/lockersManager/LockersManagerLogic.sol:LockersManagerLogic",
        "label": "_paused",
        "offset": 0,
        "slot": "188",
        "type": "t_bool"
      },
      {
        "astId": 684,
        "contract": "contracts/lockersManager/LockersManagerLogic.sol:LockersManagerLogic",
        "label": "__gap",
        "offset": 0,
        "slot": "189",
        "type": "t_array(t_uint256)49_storage"
      }
    ],
    "types": {
      "t_address": {
        "encoding": "inplace",
        "label": "address",
        "numberOfBytes": "20"
      },
      "t_array(t_uint256)49_storage": {
        "base": "t_uint256",
        "encoding": "inplace",
        "label": "uint256[49]",
        "numberOfBytes": "1568"
      },
      "t_array(t_uint256)50_storage": {
        "base": "t_uint256",
        "encoding": "inplace",
        "label": "uint256[50]",
        "numberOfBytes": "1600"
      },
      "t_bool": {
        "encoding": "inplace",
        "label": "bool",
        "numberOfBytes": "1"
      },
      "t_bytes_memory_ptr": {
        "encoding": "bytes",
        "label": "bytes",
        "numberOfBytes": "32"
      },
      "t_bytes_storage": {
        "encoding": "bytes",
        "label": "bytes",
        "numberOfBytes": "32"
      },
      "t_enum(ScriptTypes)7120": {
        "encoding": "inplace",
        "label": "enum ScriptTypes",
        "numberOfBytes": "1"
      },
      "t_mapping(t_address,t_bool)": {
        "encoding": "mapping",
        "key": "t_address",
        "label": "mapping(address => bool)",
        "numberOfBytes": "32",
        "value": "t_bool"
      },
      "t_mapping(t_address,t_struct(locker)11568_storage)": {
        "encoding": "mapping",
        "key": "t_address",
        "label": "mapping(address => struct ILockersManager.locker)",
        "numberOfBytes": "32",
        "value": "t_struct(locker)11568_storage"
      },
      "t_mapping(t_address,t_uint256)": {
        "encoding": "mapping",
        "key": "t_address",
        "label": "mapping(address => uint256)",
        "numberOfBytes": "32",
        "value": "t_uint256"
      },
      "t_mapping(t_bytes_memory_ptr,t_address)": {
        "encoding": "mapping",
        "key": "t_bytes_memory_ptr",
        "label": "mapping(bytes => address)",
        "numberOfBytes": "32",
        "value": "t_address"
      },
      "t_struct(locker)11568_storage": {
        "encoding": "inplace",
        "label": "struct ILockersManager.locker",
        "members": [
          {
            "astId": 11546,
            "contract": "contracts/lockersManager/LockersManagerLogic.sol:LockersManagerLogic",
            "label": "lockerLockingScript",
            "offset": 0,
            "slot": "0",
            "type": "t_bytes_storage"
          },
          {
            "astId": 11549,
            "contract": "contracts/lockersManager/LockersManagerLogic.sol:LockersManagerLogic",
            "label": "lockerRescueType",
            "offset": 0,
            "slot": "1",
            "type": "t_enum(ScriptTypes)7120"
          },
          {
            "astId": 11551,
            "contract": "contracts/lockersManager/LockersManagerLogic.sol:LockersManagerLogic",
            "label": "lockerRescueScript",
            "offset": 0,
            "slot": "2",
            "type": "t_bytes_storage"
          },
          {
            "astId": 11553,
            "contract": "contracts/lockersManager/LockersManagerLogic.sol:LockersManagerLogic",
            "label": "TDTLockedAmount",
            "offset": 0,
            "slot": "3",
            "type": "t_uint256"
          },
          {
            "astId": 11555,
            "contract": "contracts/lockersManager/LockersManagerLogic.sol:LockersManagerLogic",
            "label": "nativeTokenLockedAmount",
            "offset": 0,
            "slot": "4",
            "type": "t_uint256"
          },
          {
            "astId": 11557,
            "contract": "contracts/lockersManager/LockersManagerLogic.sol:LockersManagerLogic",
            "label": "netMinted",
            "offset": 0,
            "slot": "5",
            "type": "t_uint256"
          },
          {
            "astId": 11559,
            "contract": "contracts/lockersManager/LockersManagerLogic.sol:LockersManagerLogic",
            "label": "slashingTeleBTCAmount",
            "offset": 0,
            "slot": "6",
            "type": "t_uint256"
          },
          {
            "astId": 11561,
            "contract": "contracts/lockersManager/LockersManagerLogic.sol:LockersManagerLogic",
            "label": "reservedNativeTokenForSlash",
            "offset": 0,
            "slot": "7",
            "type": "t_uint256"
          },
          {
            "astId": 11563,
            "contract": "contracts/lockersManager/LockersManagerLogic.sol:LockersManagerLogic",
            "label": "isLocker",
            "offset": 0,
            "slot": "8",
            "type": "t_bool"
          },
          {
            "astId": 11565,
            "contract": "contracts/lockersManager/LockersManagerLogic.sol:LockersManagerLogic",
            "label": "isCandidate",
            "offset": 1,
            "slot": "8",
            "type": "t_bool"
          },
          {
            "astId": 11567,
            "contract": "contracts/lockersManager/LockersManagerLogic.sol:LockersManagerLogic",
            "label": "isScriptHash",
            "offset": 2,
            "slot": "8",
            "type": "t_bool"
          }
        ],
        "numberOfBytes": "288"
      },
      "t_struct(lockersLibConstants)11581_storage": {
        "encoding": "inplace",
        "label": "struct ILockersManager.lockersLibConstants",
        "members": [
          {
            "astId": 11570,
            "contract": "contracts/lockersManager/LockersManagerLogic.sol:LockersManagerLogic",
            "label": "OneHundredPercent",
            "offset": 0,
            "slot": "0",
            "type": "t_uint256"
          },
          {
            "astId": 11572,
            "contract": "contracts/lockersManager/LockersManagerLogic.sol:LockersManagerLogic",
            "label": "HealthFactor",
            "offset": 0,
            "slot": "1",
            "type": "t_uint256"
          },
          {
            "astId": 11574,
            "contract": "contracts/lockersManager/LockersManagerLogic.sol:LockersManagerLogic",
            "label": "UpperHealthFactor",
            "offset": 0,
            "slot": "2",
            "type": "t_uint256"
          },
          {
            "astId": 11576,
            "contract": "contracts/lockersManager/LockersManagerLogic.sol:LockersManagerLogic",
            "label": "MaxLockerFee",
            "offset": 0,
            "slot": "3",
            "type": "t_uint256"
          },
          {
            "astId": 11578,
            "contract": "contracts/lockersManager/LockersManagerLogic.sol:LockersManagerLogic",
            "label": "NativeTokenDecimal",
            "offset": 0,
            "slot": "4",
            "type": "t_uint256"
          },
          {
            "astId": 11580,
            "contract": "contracts/lockersManager/LockersManagerLogic.sol:LockersManagerLogic",
            "label": "NativeToken",
            "offset": 0,
            "slot": "5",
            "type": "t_address"
          }
        ],
        "numberOfBytes": "192"
      },
      "t_struct(lockersLibParam)11606_storage": {
        "encoding": "inplace",
        "label": "struct ILockersManager.lockersLibParam",
        "members": [
          {
            "astId": 11583,
            "contract": "contracts/lockersManager/LockersManagerLogic.sol:LockersManagerLogic",
            "label": "teleportDAOToken",
            "offset": 0,
            "slot": "0",
            "type": "t_address"
          },
          {
            "astId": 11585,
            "contract": "contracts/lockersManager/LockersManagerLogic.sol:LockersManagerLogic",
            "label": "teleBTC",
            "offset": 0,
            "slot": "1",
            "type": "t_address"
          },
          {
            "astId": 11587,
            "contract": "contracts/lockersManager/LockersManagerLogic.sol:LockersManagerLogic",
            "label": "ccBurnRouter",
            "offset": 0,
            "slot": "2",
            "type": "t_address"
          },
          {
            "astId": 11589,
            "contract": "contracts/lockersManager/LockersManagerLogic.sol:LockersManagerLogic",
            "label": "exchangeConnector",
            "offset": 0,
            "slot": "3",
            "type": "t_address"
          },
          {
            "astId": 11591,
            "contract": "contracts/lockersManager/LockersManagerLogic.sol:LockersManagerLogic",
            "label": "priceOracle",
            "offset": 0,
            "slot": "4",
            "type": "t_address"
          },
          {
            "astId": 11593,
            "contract": "contracts/lockersManager/LockersManagerLogic.sol:LockersManagerLogic",
            "label": "minRequiredTDTLockedAmount",
            "offset": 0,
            "slot": "5",
            "type": "t_uint256"
          },
          {
            "astId": 11595,
            "contract": "contracts/lockersManager/LockersManagerLogic.sol:LockersManagerLogic",
            "label": "minRequiredTNTLockedAmount",
            "offset": 0,
            "slot": "6",
            "type": "t_uint256"
          },
          {
            "astId": 11597,
            "contract": "contracts/lockersManager/LockersManagerLogic.sol:LockersManagerLogic",
            "label": "lockerPercentageFee",
            "offset": 0,
            "slot": "7",
            "type": "t_uint256"
          },
          {
            "astId": 11599,
            "contract": "contracts/lockersManager/LockersManagerLogic.sol:LockersManagerLogic",
            "label": "collateralRatio",
            "offset": 0,
            "slot": "8",
            "type": "t_uint256"
          },
          {
            "astId": 11601,
            "contract": "contracts/lockersManager/LockersManagerLogic.sol:LockersManagerLogic",
            "label": "liquidationRatio",
            "offset": 0,
            "slot": "9",
            "type": "t_uint256"
          },
          {
            "astId": 11603,
            "contract": "contracts/lockersManager/LockersManagerLogic.sol:LockersManagerLogic",
            "label": "priceWithDiscountRatio",
            "offset": 0,
            "slot": "10",
            "type": "t_uint256"
          },
          {
            "astId": 11605,
            "contract": "contracts/lockersManager/LockersManagerLogic.sol:LockersManagerLogic",
            "label": "inactivationDelay",
            "offset": 0,
            "slot": "11",
            "type": "t_uint256"
          }
        ],
        "numberOfBytes": "384"
      },
      "t_uint256": {
        "encoding": "inplace",
        "label": "uint256",
        "numberOfBytes": "32"
      },
      "t_uint8": {
        "encoding": "inplace",
        "label": "uint8",
        "numberOfBytes": "1"
      }
    }
  }
}