{
  "address": "0x423A067699ccF73CF1fE62ef93abecca48a67863",
  "abi": [
    {
      "inputs": [],
      "name": "ZeroAddress",
      "type": "error"
    },
    {
      "anonymous": false,
      "inputs": [
        {
          "indexed": false,
          "internalType": "address",
          "name": "oldAcross",
          "type": "address"
        },
        {
          "indexed": false,
          "internalType": "address",
          "name": "newAcross",
          "type": "address"
        }
      ],
      "name": "AcrossUpdated",
      "type": "event"
    },
    {
      "anonymous": false,
      "inputs": [
        {
          "indexed": false,
          "internalType": "address",
          "name": "oldBurnRouter",
          "type": "address"
        },
        {
          "indexed": false,
          "internalType": "address",
          "name": "newBurnRouter",
          "type": "address"
        }
      ],
      "name": "BurnRouterUpdated",
      "type": "event"
    },
    {
      "anonymous": false,
      "inputs": [
        {
          "indexed": false,
          "internalType": "address",
          "name": "oldEthConnector",
          "type": "address"
        },
        {
          "indexed": false,
          "internalType": "address",
          "name": "newEthConnector",
          "type": "address"
        }
      ],
      "name": "EthConnectorUpdated",
      "type": "event"
    },
    {
      "anonymous": false,
      "inputs": [
        {
          "indexed": false,
          "internalType": "uint256",
          "name": "chainId",
          "type": "uint256"
        },
        {
          "indexed": false,
          "internalType": "address",
          "name": "exchangeConnector",
          "type": "address"
        },
        {
          "indexed": false,
          "internalType": "address",
          "name": "inputToken",
          "type": "address"
        },
        {
          "indexed": false,
          "internalType": "uint256",
          "name": "inputAmount",
          "type": "uint256"
        },
        {
          "indexed": true,
          "internalType": "address",
          "name": "userTargetAddress",
          "type": "address"
        },
        {
          "indexed": false,
          "internalType": "bytes",
          "name": "userScript",
          "type": "bytes"
        },
        {
          "indexed": false,
          "internalType": "enum ScriptTypes",
          "name": "scriptType",
          "type": "uint8"
        },
        {
          "indexed": false,
          "internalType": "address[]",
          "name": "path",
          "type": "address[]"
        }
      ],
      "name": "FailedSwapAndUnwrap",
      "type": "event"
    },
    {
      "anonymous": false,
      "inputs": [
        {
          "indexed": false,
          "internalType": "uint8",
          "name": "version",
          "type": "uint8"
        }
      ],
      "name": "Initialized",
      "type": "event"
    },
    {
      "anonymous": false,
      "inputs": [
        {
          "indexed": false,
          "internalType": "address",
          "name": "oldLockersProxy",
          "type": "address"
        },
        {
          "indexed": false,
          "internalType": "address",
          "name": "newLockersProxy",
          "type": "address"
        }
      ],
      "name": "LockersProxyUpdated",
      "type": "event"
    },
    {
      "anonymous": false,
      "inputs": [
        {
          "indexed": false,
          "internalType": "string",
          "name": "functionName",
          "type": "string"
        },
        {
          "indexed": false,
          "internalType": "uint256",
          "name": "uniqueCounter",
          "type": "uint256"
        },
        {
          "indexed": false,
          "internalType": "uint256",
          "name": "chainId",
          "type": "uint256"
        },
        {
          "indexed": false,
          "internalType": "bytes",
          "name": "data",
          "type": "bytes"
        }
      ],
      "name": "MsgReceived",
      "type": "event"
    },
    {
      "anonymous": false,
      "inputs": [
        {
          "indexed": false,
          "internalType": "uint256",
          "name": "chainId",
          "type": "uint256"
        },
        {
          "indexed": false,
          "internalType": "address",
          "name": "exchangeConnector",
          "type": "address"
        },
        {
          "indexed": false,
          "internalType": "address",
          "name": "inputToken",
          "type": "address"
        },
        {
          "indexed": false,
          "internalType": "uint256",
          "name": "inputAmount",
          "type": "uint256"
        },
        {
          "indexed": true,
          "internalType": "address",
          "name": "userTargetAddress",
          "type": "address"
        },
        {
          "indexed": false,
          "internalType": "bytes",
          "name": "userScript",
          "type": "bytes"
        },
        {
          "indexed": false,
          "internalType": "enum ScriptTypes",
          "name": "scriptType",
          "type": "uint8"
        },
        {
          "indexed": false,
          "internalType": "address",
          "name": "lockerTargetAddress",
          "type": "address"
        },
        {
          "indexed": false,
          "internalType": "uint256",
          "name": "requestIdOfLocker",
          "type": "uint256"
        },
        {
          "indexed": false,
          "internalType": "address[]",
          "name": "path",
          "type": "address[]"
        }
      ],
      "name": "NewSwapAndUnwrap",
      "type": "event"
    },
    {
      "anonymous": false,
      "inputs": [
        {
          "indexed": true,
          "internalType": "address",
          "name": "previousOwner",
          "type": "address"
        },
        {
          "indexed": true,
          "internalType": "address",
          "name": "newOwner",
          "type": "address"
        }
      ],
      "name": "OwnershipTransferred",
      "type": "event"
    },
    {
      "anonymous": false,
      "inputs": [
        {
          "indexed": false,
          "internalType": "address",
          "name": "account",
          "type": "address"
        }
      ],
      "name": "Paused",
      "type": "event"
    },
    {
      "anonymous": false,
      "inputs": [
        {
          "indexed": false,
          "internalType": "address",
          "name": "account",
          "type": "address"
        }
      ],
      "name": "Unpaused",
      "type": "event"
    },
    {
      "inputs": [],
      "name": "ETH_ADDR",
      "outputs": [
        {
          "internalType": "address",
          "name": "",
          "type": "address"
        }
      ],
      "stateMutability": "view",
      "type": "function"
    },
    {
      "inputs": [],
      "name": "across",
      "outputs": [
        {
          "internalType": "address",
          "name": "",
          "type": "address"
        }
      ],
      "stateMutability": "view",
      "type": "function"
    },
    {
      "inputs": [],
      "name": "burnRouterProxy",
      "outputs": [
        {
          "internalType": "address",
          "name": "",
          "type": "address"
        }
      ],
      "stateMutability": "view",
      "type": "function"
    },
    {
      "inputs": [
        {
          "internalType": "address",
          "name": "_token",
          "type": "address"
        },
        {
          "internalType": "address",
          "name": "_to",
          "type": "address"
        },
        {
          "internalType": "uint256",
          "name": "_amount",
          "type": "uint256"
        }
      ],
      "name": "emergencyWithdraw",
      "outputs": [],
      "stateMutability": "nonpayable",
      "type": "function"
    },
    {
      "inputs": [
        {
          "internalType": "address",
          "name": "",
          "type": "address"
        },
        {
          "internalType": "address",
          "name": "",
          "type": "address"
        }
      ],
      "name": "failedReqs",
      "outputs": [
        {
          "internalType": "uint256",
          "name": "",
          "type": "uint256"
        }
      ],
      "stateMutability": "view",
      "type": "function"
    },
    {
      "inputs": [
        {
          "internalType": "address",
          "name": "_tokenSent",
          "type": "address"
        },
        {
          "internalType": "uint256",
          "name": "_amount",
          "type": "uint256"
        },
        {
          "internalType": "address",
          "name": "_relayer",
          "type": "address"
        },
        {
          "internalType": "bytes",
          "name": "_message",
          "type": "bytes"
        }
      ],
      "name": "handleV3AcrossMessage",
      "outputs": [],
      "stateMutability": "nonpayable",
      "type": "function"
    },
    {
      "inputs": [
        {
          "internalType": "address",
          "name": "_lockersProxy",
          "type": "address"
        },
        {
          "internalType": "address",
          "name": "_burnRouterProxy",
          "type": "address"
        },
        {
          "internalType": "address",
          "name": "_across",
          "type": "address"
        },
        {
          "internalType": "uint256",
          "name": "_sourceChainId",
          "type": "uint256"
        }
      ],
      "name": "initialize",
      "outputs": [],
      "stateMutability": "nonpayable",
      "type": "function"
    },
    {
      "inputs": [],
      "name": "lockersProxy",
      "outputs": [
        {
          "internalType": "address",
          "name": "",
          "type": "address"
        }
      ],
      "stateMutability": "view",
      "type": "function"
    },
    {
      "inputs": [],
      "name": "owner",
      "outputs": [
        {
          "internalType": "address",
          "name": "",
          "type": "address"
        }
      ],
      "stateMutability": "view",
      "type": "function"
    },
    {
      "inputs": [],
      "name": "paused",
      "outputs": [
        {
          "internalType": "bool",
          "name": "",
          "type": "bool"
        }
      ],
      "stateMutability": "view",
      "type": "function"
    },
    {
      "inputs": [],
      "name": "renounceOwnership",
      "outputs": [],
      "stateMutability": "nonpayable",
      "type": "function"
    },
    {
      "inputs": [
        {
          "internalType": "bytes",
          "name": "_message",
          "type": "bytes"
        },
        {
          "internalType": "uint8",
          "name": "_v",
          "type": "uint8"
        },
        {
          "internalType": "bytes32",
          "name": "_r",
          "type": "bytes32"
        },
        {
          "internalType": "bytes32",
          "name": "_s",
          "type": "bytes32"
        }
      ],
      "name": "retrySwapAndUnwrap",
      "outputs": [],
      "stateMutability": "nonpayable",
      "type": "function"
    },
    {
      "inputs": [
        {
          "internalType": "address",
          "name": "_across",
          "type": "address"
        }
      ],
      "name": "setAcross",
      "outputs": [],
      "stateMutability": "nonpayable",
      "type": "function"
    },
    {
      "inputs": [
        {
          "internalType": "address",
          "name": "_burnRouterProxy",
          "type": "address"
        }
      ],
      "name": "setBurnRouterProxy",
      "outputs": [],
      "stateMutability": "nonpayable",
      "type": "function"
    },
    {
      "inputs": [
        {
          "internalType": "address",
          "name": "_lockersProxy",
          "type": "address"
        }
      ],
      "name": "setLockersProxy",
      "outputs": [],
      "stateMutability": "nonpayable",
      "type": "function"
    },
    {
      "inputs": [
        {
          "internalType": "address",
          "name": "_sourceChainConnector",
          "type": "address"
        }
      ],
      "name": "setSourceChainConnector",
      "outputs": [],
      "stateMutability": "nonpayable",
      "type": "function"
    },
    {
      "inputs": [],
      "name": "sourceChainConnector",
      "outputs": [
        {
          "internalType": "address",
          "name": "",
          "type": "address"
        }
      ],
      "stateMutability": "view",
      "type": "function"
    },
    {
      "inputs": [],
      "name": "sourceChainId",
      "outputs": [
        {
          "internalType": "uint256",
          "name": "",
          "type": "uint256"
        }
      ],
      "stateMutability": "view",
      "type": "function"
    },
    {
      "inputs": [
        {
          "internalType": "address",
          "name": "newOwner",
          "type": "address"
        }
      ],
      "name": "transferOwnership",
      "outputs": [],
      "stateMutability": "nonpayable",
      "type": "function"
    },
    {
      "inputs": [
        {
          "internalType": "bytes",
          "name": "_message",
          "type": "bytes"
        },
        {
          "internalType": "uint8",
          "name": "_v",
          "type": "uint8"
        },
        {
          "internalType": "bytes32",
          "name": "_r",
          "type": "bytes32"
        },
        {
          "internalType": "bytes32",
          "name": "_s",
          "type": "bytes32"
        }
      ],
      "name": "withdrawFundsToEth",
      "outputs": [],
      "stateMutability": "nonpayable",
      "type": "function"
    },
    {
      "stateMutability": "payable",
      "type": "receive"
    }
  ],
  "transactionHash": "0xbe9cb155bd9e65d35c3f46cd9846c8370740e630a90f7d13363a07f593a387e8",
  "args": [],
  "numDeployments": 1,
  "solcInputHash": "204a6029cbd8bb9a68fc02f623fdb774",
  "bytecode": "0x608060405234801561001057600080fd5b50612362806100206000396000f3fe6080604052600436106100f35760003560e01c80631544298e146100ff578063292c1d9214610128578063296079f1146101555780633a5be8cb146101755780633f8c6ae014610197578063412f1150146101b75780634d6e8f9d146101d757806359841888146101f75780635c975abb1461021757806361be10f21461023a578063715018a61461025a5780637753f47b1461026f5780637c5a4ccb14610297578063843100b3146102cf5780638da5cb5b146102ef578063cf25685414610304578063cf756fdf14610324578063e63ea40814610344578063f2fde38b14610364578063f374be5f1461038457600080fd5b366100fa57005b600080fd5b34801561010b57600080fd5b5061011560cd5481565b6040519081526020015b60405180910390f35b34801561013457600080fd5b5060cc54610148906001600160a01b031681565b60405161011f9190611f6d565b34801561016157600080fd5b5060c954610148906001600160a01b031681565b34801561018157600080fd5b50610195610190366004611c2f565b6103a4565b005b3480156101a357600080fd5b5060ca54610148906001600160a01b031681565b3480156101c357600080fd5b5060cb54610148906001600160a01b031681565b3480156101e357600080fd5b506101956101f2366004611a17565b61045a565b34801561020357600080fd5b50610195610212366004611a17565b6104ad565b34801561022357600080fd5b5060975460ff16604051901515815260200161011f565b34801561024657600080fd5b50610195610255366004611a17565b610500565b34801561026657600080fd5b50610195610553565b34801561027b57600080fd5b5061014873eeeeeeeeeeeeeeeeeeeeeeeeeeeeeeeeeeeeeeee81565b3480156102a357600080fd5b506101156102b2366004611b67565b60ce60209081526000928352604080842090915290825290205481565b3480156102db57600080fd5b506101956102ea366004611a17565b610567565b3480156102fb57600080fd5b506101486105ba565b34801561031057600080fd5b5061019561031f366004611cb8565b6105c9565b34801561033057600080fd5b5061019561033f366004611b9f565b6109f1565b34801561035057600080fd5b5061019561035f366004611bef565b610b58565b34801561037057600080fd5b5061019561037f366004611a17565b610c5b565b34801561039057600080fd5b5061019561039f366004611cb8565b610cd4565b6103ac610db3565b6000806000838060200190518101906103c59190611d19565b9250925092507fd8883c6af9aa96506569d2db74cafb52037a26374320a8aeaf9fd5cd7df3d228838383876040516104009493929190612115565b60405180910390a1610437836040518060400160405280600d81526020016c073776170416e64556e7772617609c1b815250610e0d565b1561044757610447868589610e66565b5050506104546001606555565b50505050565b6104626113b8565b806001600160a01b03811661048a5760405163d92e233d60e01b815260040160405180910390fd5b5060ca80546001600160a01b0319166001600160a01b0392909216919091179055565b6104b56113b8565b806001600160a01b0381166104dd5760405163d92e233d60e01b815260040160405180910390fd5b5060c980546001600160a01b0319166001600160a01b0392909216919091179055565b6105086113b8565b806001600160a01b0381166105305760405163d92e233d60e01b815260040160405180910390fd5b5060cc80546001600160a01b0319166001600160a01b0392909216919091179055565b61055b6113b8565b6105656000611417565b565b61056f6113b8565b806001600160a01b0381166105975760405163d92e233d60e01b815260040160405180910390fd5b5060cb80546001600160a01b0319166001600160a01b0392909216919091179055565b6033546001600160a01b031690565b6105d1610db3565b6000806000806000806000808b8060200190518101906105f19190611a56565b97509750975097509750975097509750600061060f8d8c8c8f611469565b905060008811801561064657506001600160a01b03808216600090815260ce60209081526040808320938d16835292905220548811155b61066b5760405162461bcd60e51b815260040161066290612146565b60405180910390fd5b6001600160a01b03808216600090815260ce60209081526040808320938d16835292905290812080548a92906106a29084906122a8565b909155505060408051600280825260608201835260009260208301908036833701905050905088816000815181106106ea57634e487b7160e01b600052603260045260246000fd5b602002602001018181525050868160018151811061071857634e487b7160e01b600052603260045260246000fd5b6020026020010181815250508260008151811061074557634e487b7160e01b600052603260045260246000fd5b602090810291909101015160ca5460405163095ea7b360e01b81526001600160a01b039283169263095ea7b392610783929116908d9060040161206e565b602060405180830381600087803b15801561079d57600080fd5b505af11580156107b1573d6000803e3d6000fd5b505050506040513d601f19601f820116820180604052508101906107d59190611c98565b5060ca546040516344dd6aa560e01b81526001600160a01b03909116906344dd6aa590610818908b908590600190899042908e908e908e90600090600401611ff2565b602060405180830381600087803b15801561083257600080fd5b505af1158015610846573d6000803e3d6000fd5b505050506040513d601f19601f8201168201806040525081019061086a9190611e79565b5060c95460405163626885b560e11b81526000916001600160a01b03169063c4d10b6a9061089c908890600401612087565b60206040518083038186803b1580156108b457600080fd5b505afa1580156108c8573d6000803e3d6000fd5b505050506040513d601f19601f820116820180604052508101906108ec9190611a3a565b9050826001600160a01b03167f4b60c330ef8f3169b522e03d5d12a0c7a7da8945c1532f8a23a9bb2803ae469660018b8e8e8c8c88600160ca60009054906101000a90046001600160a01b03166001600160a01b031663930a60e88c6040518263ffffffff1660e01b81526004016109649190611f6d565b60206040518083038186803b15801561097c57600080fd5b505afa158015610990573d6000803e3d6000fd5b505050506040513d601f19601f820116820180604052508101906109b49190611e79565b6109be91906122a8565b8d6040516109d49998979695949392919061209a565b60405180910390a250505050505050505050506104546001606555565b600054610100900460ff1615808015610a115750600054600160ff909116105b80610a2b5750303b158015610a2b575060005460ff166001145b610a8e5760405162461bcd60e51b815260206004820152602e60248201527f496e697469616c697a61626c653a20636f6e747261637420697320616c72656160448201526d191e481a5b9a5d1a585b1a5e995960921b6064820152608401610662565b6000805460ff191660011790558015610ab1576000805461ff0019166101001790555b610ab9611598565b610ac16115c7565b610ac96115f6565b60c980546001600160a01b038088166001600160a01b03199283161790925560ca805487841690831617905560cc80549286169290911691909117905560cd8290558015610b51576000805461ff0019169055604051600181527f7f26b83ff96e1f2b6a682f133852f6798a09c465da95921460cefb38474024989060200160405180910390a15b5050505050565b610b606113b8565b6001600160a01b03831673eeeeeeeeeeeeeeeeeeeeeeeeeeeeeeeeeeeeeeee1415610bdb576040516001600160a01b038316908290600081818185875af1925050503d8060008114610bce576040519150601f19603f3d011682016040523d82523d6000602084013e610bd3565b606091505b505050505050565b60405163a9059cbb60e01b81526001600160a01b0384169063a9059cbb90610c09908590859060040161206e565b602060405180830381600087803b158015610c2357600080fd5b505af1158015610c37573d6000803e3d6000fd5b505050506040513d601f19601f820116820180604052508101906104549190611c98565b610c636113b8565b6001600160a01b038116610cc85760405162461bcd60e51b815260206004820152602660248201527f4f776e61626c653a206e6577206f776e657220697320746865207a65726f206160448201526564647265737360d01b6064820152608401610662565b610cd181611417565b50565b610cdc610db3565b600080600086806020019051810190610cf59190611b1f565b9250925092506000610d098887878a611469565b9050600083118015610d4057506001600160a01b03808216600090815260ce60209081526040808320938816835292905220548311155b610d5c5760405162461bcd60e51b815260040161066290612146565b610d6881858585611625565b6001600160a01b03808216600090815260ce6020908152604080832093881683529290529081208054859290610d9f9084906122a8565b909155505060016065555061045492505050565b60026065541415610e065760405162461bcd60e51b815260206004820152601f60248201527f5265656e7472616e637947756172643a207265656e7472616e742063616c6c006044820152606401610662565b6002606555565b600081604051602001610e209190611f51565b6040516020818303038152906040528051906020012083604051602001610e479190611f51565b6040516020818303038152906040528051906020012014905092915050565b6000610e7183611729565b60408051600280825260608201835292935060009290916020830190803683370190505090508481600081518110610eb957634e487b7160e01b600052603260045260246000fd5b602002602001018181525050816060015181600181518110610eeb57634e487b7160e01b600052603260045260246000fd5b6020026020010181815250508160800151600081518110610f1c57634e487b7160e01b600052603260045260246000fd5b602090810291909101015160ca5460405163095ea7b360e01b81526001600160a01b039283169263095ea7b392610f5a92911690899060040161206e565b602060405180830381600087803b158015610f7457600080fd5b505af1158015610f88573d6000803e3d6000fd5b505050506040513d601f19601f82011682018060405250810190610fac9190611c98565b5060ca54604080840151608085015160a086015160c087015160e088015161010089015195516344dd6aa560e01b81526001600160a01b03909716966344dd6aa59661100896958a956001959194429491939091600401611ff2565b602060405180830381600087803b15801561102257600080fd5b505af1925050508015611052575060408051601f3d908101601f1916820190925261104f91810190611e79565b60015b6111b857816080015160008151811061107b57634e487b7160e01b600052603260045260246000fd5b602090810291909101015160ca5460405163095ea7b360e01b81526001600160a01b039283169263095ea7b3926110ba9291169060009060040161206e565b602060405180830381600087803b1580156110d457600080fd5b505af11580156110e8573d6000803e3d6000fd5b505050506040513d601f19601f8201168201806040525081019061110c9190611c98565b506020808301516001600160a01b03908116600090815260ce8352604080822092871682529190925281208054879290611147908490612290565b9250508190555081602001516001600160a01b03167f9e6cead4c4fd7bc2eb00d8f741ecf98b2cceb1401d7d3405ca665ab5e913c4d18360000151846040015186898760a001518860c0015189608001516040516111ab97969594939291906121d3565b60405180910390a2610b51565b506020820151825160408085015160a086015160c087015160c95460e0890151945163626885b560e11b81526001600160a01b03978816977f4b60c330ef8f3169b522e03d5d12a0c7a7da8945c1532f8a23a9bb2803ae469697968c958f959094909392169163c4d10b6a9161123091600401612087565b60206040518083038186803b15801561124857600080fd5b505afa15801561125c573d6000803e3d6000fd5b505050506040513d601f19601f820116820180604052508101906112809190611a3a565b60ca5460c95460e08d015160405163626885b560e11b81526001936001600160a01b039081169363930a60e89391169163c4d10b6a916112c291600401612087565b60206040518083038186803b1580156112da57600080fd5b505afa1580156112ee573d6000803e3d6000fd5b505050506040513d601f19601f820116820180604052508101906113129190611a3a565b6040518263ffffffff1660e01b815260040161132e9190611f6d565b60206040518083038186803b15801561134657600080fd5b505afa15801561135a573d6000803e3d6000fd5b505050506040513d601f19601f8201168201806040525081019061137e9190611e79565b61138891906122a8565b8b608001516040516113a29998979695949392919061209a565b60405180910390a25050505050565b6001606555565b336113c16105ba565b6001600160a01b0316146105655760405162461bcd60e51b815260206004820181905260248201527f4f776e61626c653a2063616c6c6572206973206e6f7420746865206f776e65726044820152606401610662565b603380546001600160a01b038381166001600160a01b0319831681179093556040519116919082907f8be0079c531659141344cd1fd0a4f28419497f9722a3daafe3b4186f6b6457e090600090a35050565b600080858051906020012090506000816040516020016114b491907b0ca2ba3432b932bab69029b4b3b732b21026b2b9b9b0b3b29d05199960211b8152601c810191909152603c0190565b60408051601f198184030181528282528051602091820120600080855291840180845281905260ff88169284019290925260608301899052608083018890529092509060019060a0016020604051602081039080840390855afa15801561151f573d6000803e3d6000fd5b5050604051601f1901519150506001600160a01b03811661158d5760405162461bcd60e51b815260206004820152602260248201527f506f6c79676f6e436f6e6e6563746f724c6f6769633a20496e76616c69642073604482015261696760f01b6064820152608401610662565b979650505050505050565b600054610100900460ff166115bf5760405162461bcd60e51b815260040161066290612188565b610565611847565b600054610100900460ff166115ee5760405162461bcd60e51b815260040161066290612188565b610565611877565b600054610100900460ff1661161d5760405162461bcd60e51b815260040161066290612188565b61056561189e565b60cc5460405163095ea7b360e01b81526060916001600160a01b038087169263095ea7b39261165a921690879060040161206e565b602060405180830381600087803b15801561167457600080fd5b505af1158015611688573d6000803e3d6000fd5b505050506040513d601f19601f820116820180604052508101906116ac9190611c98565b5060cc5460cd54604051631507d3c560e21b81526001600160a01b039092169163541f4f14916116f091899182918a918a918a9042908b9060001990600401611f81565b600060405180830381600087803b15801561170a57600080fd5b505af115801561171e573d6000803e3d6000fd5b505050505050505050565b611777604080516101208101825260008082526020820181905291810182905260608082018390526080820181905260a08201529060c0820190815260200160608152602001600081525090565b8180602001905181019061178b9190611d66565b5060e08b0181905296985094965092949193909291886020810160408201606083016080840160a0850160c086018860058111156117d957634e487b7160e01b600052602160045260246000fd5b60058111156117f857634e487b7160e01b600052602160045260246000fd5b905297909752969095529590945250506001600160a01b0393841690529290911690525281516118319083016020908101908401611d66565b6101008c015250989a9950505050505050505050565b600054610100900460ff1661186e5760405162461bcd60e51b815260040161066290612188565b61056533611417565b600054610100900460ff166113b15760405162461bcd60e51b815260040161066290612188565b600054610100900460ff166118c55760405162461bcd60e51b815260040161066290612188565b6097805460ff19169055565b80516118dc81612317565b919050565b600082601f8301126118f1578081fd5b815160206001600160401b0382111561190c5761190c612301565b8160051b61191b828201612239565b838152828101908684018388018501891015611935578687fd5b8693505b8584101561196057805161194c81612317565b835260019390930192918401918401611939565b50979650505050505050565b600082601f83011261197c578081fd5b813561198f61198a82612269565b612239565b8181528460208386010111156119a3578283fd5b816020850160208301379081016020019190915292915050565b600082601f8301126119cd578081fd5b81516119db61198a82612269565b8181528460208386010111156119ef578283fd5b611a008260208301602087016122bf565b949350505050565b8051600681106118dc57600080fd5b600060208284031215611a28578081fd5b8135611a3381612317565b9392505050565b600060208284031215611a4b578081fd5b8151611a3381612317565b600080600080600080600080610100898b031215611a72578384fd5b611a7b896118d1565b975060208901519650611a9060408a016118d1565b95506060890151945060808901516001600160401b0380821115611ab2578586fd5b611abe8c838d016119bd565b9550611acc60a08c01611a08565b945060c08b0151915080821115611ae1578384fd5b611aed8c838d016119bd565b935060e08b0151915080821115611b02578283fd5b50611b0f8b828c016118e1565b9150509295985092959890939650565b600080600060608486031215611b33578283fd5b8351611b3e81612317565b809350506020840151915060408401518060070b8114611b5c578182fd5b809150509250925092565b60008060408385031215611b79578182fd5b8235611b8481612317565b91506020830135611b9481612317565b809150509250929050565b60008060008060808587031215611bb4578384fd5b8435611bbf81612317565b93506020850135611bcf81612317565b92506040850135611bdf81612317565b9396929550929360600135925050565b600080600060608486031215611c03578081fd5b8335611c0e81612317565b92506020840135611c1e81612317565b929592945050506040919091013590565b60008060008060808587031215611c44578182fd5b8435611c4f81612317565b9350602085013592506040850135611c6681612317565b915060608501356001600160401b03811115611c80578182fd5b611c8c8782880161196c565b91505092959194509250565b600060208284031215611ca9578081fd5b81518015158114611a33578182fd5b60008060008060808587031215611ccd578182fd5b84356001600160401b03811115611ce2578283fd5b611cee8782880161196c565b945050602085013560ff81168114611d04578283fd5b93969395505050506040820135916060013590565b600080600060608486031215611d2d578081fd5b83516001600160401b03811115611d42578182fd5b611d4e868287016119bd565b93505060208401519150604084015190509250925092565b60008060008060008060008060008060006101608c8e031215611d87578485fd5b8b516001600160401b03811115611d9c578586fd5b611da88e828f016119bd565b9b505060208c0151995060408c01519850611dc560608d016118d1565b9750611dd360808d016118d1565b965060a08c0151955060c08c01516001600160401b03811115611df4578586fd5b611e008e828f016118e1565b95505060e08c01516001600160401b03811115611e1b578384fd5b611e278e828f016119bd565b945050611e376101008d01611a08565b92506101208c01516001600160401b03811115611e52578283fd5b611e5e8e828f016119bd565b9250506101408c015190509295989b509295989b9093969950565b600060208284031215611e8a578081fd5b5051919050565b6000815180845260208085019450808401835b83811015611ec95781516001600160a01b031687529582019590820190600101611ea4565b509495945050505050565b6000815180845260208085019450808401835b83811015611ec957815187529582019590820190600101611ee7565b60008151808452611f1b8160208601602086016122bf565b601f01601f19169290920160200192915050565b60068110611f4d57634e487b7160e01b600052602160045260246000fd5b9052565b60008251611f638184602087016122bf565b9190910192915050565b6001600160a01b0391909116815260200190565b6001600160a01b038a811682528981166020830152881660408201526060810187905260808101869052600785900b60a082015263ffffffff841660c082015261012060e08201819052600090611fda83820186611f03565b915050826101008301529a9950505050505050505050565b6001600160a01b038a168152610120602082018190526000906120178382018c611ed4565b905089151560408401528281036060840152612033818a611e91565b905087608084015282810360a084015261204d8188611f03565b905061205c60c0840187611f2f565b82810360e0840152611fda8186611f03565b6001600160a01b03929092168252602082015260400190565b602081526000611a336020830184611f03565b8981526001600160a01b038981166020830152888116604083015260608201889052610120608083018190526000916120d58483018a611f03565b91506120e460a0850189611f2f565b861660c084015260e083018590528281036101008401526121058185611e91565b9c9b505050505050505050505050565b6080815260006121286080830187611f03565b856020840152846040840152828103606084015261158d8185611f03565b60208082526022908201527f506f6c79676f6e436f6e6e6563746f724c6f6769633a206c6f772062616c616e604082015261636560f01b606082015260800190565b6020808252602b908201527f496e697469616c697a61626c653a20636f6e7472616374206973206e6f74206960408201526a6e697469616c697a696e6760a81b606082015260800190565b8781526001600160a01b038781166020830152861660408201526060810185905260e06080820181905260009061220c90830186611f03565b61221960a0840186611f2f565b82810360c084015261222b8185611e91565b9a9950505050505050505050565b604051601f8201601f191681016001600160401b038111828210171561226157612261612301565b604052919050565b60006001600160401b0382111561228257612282612301565b50601f01601f191660200190565b600082198211156122a3576122a36122eb565b500190565b6000828210156122ba576122ba6122eb565b500390565b60005b838110156122da5781810151838201526020016122c2565b838111156104545750506000910152565b634e487b7160e01b600052601160045260246000fd5b634e487b7160e01b600052604160045260246000fd5b6001600160a01b0381168114610cd157600080fdfea2646970667358221220a12d3e57a89354cb932c6b0fa8a7316ccf4ae5a395d023ca9d44bb75152a97c564736f6c63430008040033",
  "devdoc": {
    "kind": "dev",
    "methods": {
      "emergencyWithdraw(address,address,uint256)": {
        "details": "Only owner can call this"
      },
      "owner()": {
        "details": "Returns the address of the current owner."
      },
      "paused()": {
        "details": "Returns true if the contract is paused, and false otherwise."
      },
      "renounceOwnership()": {
        "details": "Leaves the contract without owner. It will not be possible to call `onlyOwner` functions. Can only be called by the current owner. NOTE: Renouncing ownership will leave the contract without an owner, thereby disabling any functionality that is only available to the owner."
      },
      "retrySwapAndUnwrap(bytes,uint8,bytes32,bytes32)": {
        "details": "User signs a message for retrying its request",
        "params": {
          "_message": "The signed message",
          "_r": "Signature r",
          "_s": "Signature s",
          "_v": "Signature v"
        }
      },
      "transferOwnership(address)": {
        "details": "Transfers ownership of the contract to a new account (`newOwner`). Can only be called by the current owner."
      },
      "withdrawFundsToEth(bytes,uint8,bytes32,bytes32)": {
        "details": "User signs a message requesting for withdrawing a bid",
        "params": {
          "_message": "The signed message",
          "_r": "Signature r",
          "_s": "Signature s",
          "_v": "Signature v"
        }
      }
    },
    "version": 1
  },
  "userdoc": {
    "kind": "user",
    "methods": {
      "emergencyWithdraw(address,address,uint256)": {
        "notice": "Withdraws tokens in the emergency case"
      },
      "handleV3AcrossMessage(address,uint256,address,bytes)": {
        "notice": "Process requests coming from Ethereum (using Across V3)"
      },
      "retrySwapAndUnwrap(bytes,uint8,bytes32,bytes32)": {
        "notice": "Retry failed exchange and burn requests"
      },
      "setAcross(address)": {
        "notice": "Setter for AcrossV3"
      },
      "setBurnRouterProxy(address)": {
        "notice": "Setter for BurnRouterProxy"
      },
      "setLockersProxy(address)": {
        "notice": "Setter for LockersProxy"
      },
      "setSourceChainConnector(address)": {
        "notice": "Setter for SourceChainConnector"
      },
      "withdrawFundsToEth(bytes,uint8,bytes32,bytes32)": {
        "notice": "Withdraws user's bid"
      }
    },
    "version": 1
  },
  "storageLayout": {
    "storage": [
      {
        "astId": 326,
        "contract": "contracts/routers/PolyConnectorLogic.sol:PolyConnectorLogic",
        "label": "_initialized",
        "offset": 0,
        "slot": "0",
        "type": "t_uint8"
      },
      {
        "astId": 329,
        "contract": "contracts/routers/PolyConnectorLogic.sol:PolyConnectorLogic",
        "label": "_initializing",
        "offset": 1,
        "slot": "0",
        "type": "t_bool"
      },
      {
        "astId": 1797,
        "contract": "contracts/routers/PolyConnectorLogic.sol:PolyConnectorLogic",
        "label": "__gap",
        "offset": 0,
        "slot": "1",
        "type": "t_array(t_uint256)50_storage"
      },
      {
        "astId": 198,
        "contract": "contracts/routers/PolyConnectorLogic.sol:PolyConnectorLogic",
        "label": "_owner",
        "offset": 0,
        "slot": "51",
        "type": "t_address"
      },
      {
        "astId": 318,
        "contract": "contracts/routers/PolyConnectorLogic.sol:PolyConnectorLogic",
        "label": "__gap",
        "offset": 0,
        "slot": "52",
        "type": "t_array(t_uint256)49_storage"
      },
      {
        "astId": 631,
        "contract": "contracts/routers/PolyConnectorLogic.sol:PolyConnectorLogic",
        "label": "_status",
        "offset": 0,
        "slot": "101",
        "type": "t_uint256"
      },
      {
        "astId": 700,
        "contract": "contracts/routers/PolyConnectorLogic.sol:PolyConnectorLogic",
        "label": "__gap",
        "offset": 0,
        "slot": "102",
        "type": "t_array(t_uint256)49_storage"
      },
      {
        "astId": 510,
        "contract": "contracts/routers/PolyConnectorLogic.sol:PolyConnectorLogic",
        "label": "_paused",
        "offset": 0,
        "slot": "151",
        "type": "t_bool"
      },
      {
        "astId": 615,
        "contract": "contracts/routers/PolyConnectorLogic.sol:PolyConnectorLogic",
        "label": "__gap",
        "offset": 0,
        "slot": "152",
        "type": "t_array(t_uint256)49_storage"
      },
      {
        "astId": 23717,
        "contract": "contracts/routers/PolyConnectorLogic.sol:PolyConnectorLogic",
        "label": "lockersProxy",
        "offset": 0,
        "slot": "201",
        "type": "t_address"
      },
      {
        "astId": 23720,
        "contract": "contracts/routers/PolyConnectorLogic.sol:PolyConnectorLogic",
        "label": "burnRouterProxy",
        "offset": 0,
        "slot": "202",
        "type": "t_address"
      },
      {
        "astId": 23723,
        "contract": "contracts/routers/PolyConnectorLogic.sol:PolyConnectorLogic",
        "label": "sourceChainConnector",
        "offset": 0,
        "slot": "203",
        "type": "t_address"
      },
      {
        "astId": 23726,
        "contract": "contracts/routers/PolyConnectorLogic.sol:PolyConnectorLogic",
        "label": "across",
        "offset": 0,
        "slot": "204",
        "type": "t_address"
      },
      {
        "astId": 23729,
        "contract": "contracts/routers/PolyConnectorLogic.sol:PolyConnectorLogic",
        "label": "sourceChainId",
        "offset": 0,
        "slot": "205",
        "type": "t_uint256"
      },
      {
        "astId": 23736,
        "contract": "contracts/routers/PolyConnectorLogic.sol:PolyConnectorLogic",
        "label": "failedReqs",
        "offset": 0,
        "slot": "206",
        "type": "t_mapping(t_address,t_mapping(t_address,t_uint256))"
      }
    ],
    "types": {
      "t_address": {
        "encoding": "inplace",
        "label": "address",
        "numberOfBytes": "20"
      },
      "t_array(t_uint256)49_storage": {
        "base": "t_uint256",
        "encoding": "inplace",
        "label": "uint256[49]",
        "numberOfBytes": "1568"
      },
      "t_array(t_uint256)50_storage": {
        "base": "t_uint256",
        "encoding": "inplace",
        "label": "uint256[50]",
        "numberOfBytes": "1600"
      },
      "t_bool": {
        "encoding": "inplace",
        "label": "bool",
        "numberOfBytes": "1"
      },
      "t_mapping(t_address,t_mapping(t_address,t_uint256))": {
        "encoding": "mapping",
        "key": "t_address",
        "label": "mapping(address => mapping(address => uint256))",
        "numberOfBytes": "32",
        "value": "t_mapping(t_address,t_uint256)"
      },
      "t_mapping(t_address,t_uint256)": {
        "encoding": "mapping",
        "key": "t_address",
        "label": "mapping(address => uint256)",
        "numberOfBytes": "32",
        "value": "t_uint256"
      },
      "t_uint256": {
        "encoding": "inplace",
        "label": "uint256",
        "numberOfBytes": "32"
      },
      "t_uint8": {
        "encoding": "inplace",
        "label": "uint8",
        "numberOfBytes": "1"
      }
    }
  }
}