{
  "address": "0x4C71A5814b1DE10aF31c2524CcB66B582Df410E1",
  "abi": [
    {
      "inputs": [],
      "name": "ZeroAddress",
      "type": "error"
    },
    {
      "anonymous": false,
      "inputs": [
        {
          "indexed": false,
          "internalType": "address",
          "name": "oldAcross",
          "type": "address"
        },
        {
          "indexed": false,
          "internalType": "address",
          "name": "newAcross",
          "type": "address"
        }
      ],
      "name": "AcrossUpdated",
      "type": "event"
    },
    {
      "anonymous": false,
      "inputs": [
        {
          "indexed": false,
          "internalType": "address",
          "name": "oldBurnRouter",
          "type": "address"
        },
        {
          "indexed": false,
          "internalType": "address",
          "name": "newBurnRouter",
          "type": "address"
        }
      ],
      "name": "BurnRouterUpdated",
      "type": "event"
    },
    {
      "anonymous": false,
      "inputs": [
        {
          "indexed": false,
          "internalType": "address",
          "name": "oldEthConnector",
          "type": "address"
        },
        {
          "indexed": false,
          "internalType": "address",
          "name": "newEthConnector",
          "type": "address"
        }
      ],
      "name": "EthConnectorUpdated",
      "type": "event"
    },
    {
      "anonymous": false,
      "inputs": [
        {
          "indexed": false,
          "internalType": "uint256",
          "name": "uniqueCounter",
          "type": "uint256"
        },
        {
          "indexed": false,
          "internalType": "uint256",
          "name": "chainId",
          "type": "uint256"
        },
        {
          "indexed": false,
          "internalType": "address",
          "name": "exchangeConnector",
          "type": "address"
        },
        {
          "indexed": false,
          "internalType": "address",
          "name": "inputToken",
          "type": "address"
        },
        {
          "indexed": false,
          "internalType": "uint256",
          "name": "inputAmount",
          "type": "uint256"
        },
        {
          "indexed": true,
          "internalType": "address",
          "name": "userTargetAddress",
          "type": "address"
        },
        {
          "indexed": false,
          "internalType": "bytes",
          "name": "userScript",
          "type": "bytes"
        },
        {
          "indexed": false,
          "internalType": "enum ScriptTypes",
          "name": "scriptType",
          "type": "uint8"
        },
        {
          "indexed": false,
          "internalType": "address[]",
          "name": "path",
          "type": "address[]"
        },
        {
          "indexed": false,
          "internalType": "uint256",
          "name": "thirdPartyId",
          "type": "uint256"
        }
      ],
      "name": "FailedSwapAndUnwrap",
      "type": "event"
    },
    {
      "anonymous": false,
      "inputs": [
        {
          "indexed": false,
          "internalType": "uint8",
          "name": "version",
          "type": "uint8"
        }
      ],
      "name": "Initialized",
      "type": "event"
    },
    {
      "anonymous": false,
      "inputs": [
        {
          "indexed": false,
          "internalType": "address",
          "name": "oldLockersProxy",
          "type": "address"
        },
        {
          "indexed": false,
          "internalType": "address",
          "name": "newLockersProxy",
          "type": "address"
        }
      ],
      "name": "LockersProxyUpdated",
      "type": "event"
    },
    {
      "anonymous": false,
      "inputs": [
        {
          "indexed": false,
          "internalType": "string",
          "name": "functionName",
          "type": "string"
        },
        {
          "indexed": false,
          "internalType": "uint256",
          "name": "uniqueCounter",
          "type": "uint256"
        },
        {
          "indexed": false,
          "internalType": "uint256",
          "name": "chainId",
          "type": "uint256"
        },
        {
          "indexed": false,
          "internalType": "bytes",
          "name": "data",
          "type": "bytes"
        }
      ],
      "name": "MsgReceived",
      "type": "event"
    },
    {
      "anonymous": false,
      "inputs": [
        {
          "indexed": false,
          "internalType": "uint256",
          "name": "uniqueCounter",
          "type": "uint256"
        },
        {
          "indexed": false,
          "internalType": "uint256",
          "name": "chainId",
          "type": "uint256"
        },
        {
          "indexed": false,
          "internalType": "address",
          "name": "exchangeConnector",
          "type": "address"
        },
        {
          "indexed": false,
          "internalType": "address",
          "name": "inputToken",
          "type": "address"
        },
        {
          "indexed": false,
          "internalType": "uint256",
          "name": "inputAmount",
          "type": "uint256"
        },
        {
          "indexed": true,
          "internalType": "address",
          "name": "userTargetAddress",
          "type": "address"
        },
        {
          "indexed": false,
          "internalType": "bytes",
          "name": "userScript",
          "type": "bytes"
        },
        {
          "indexed": false,
          "internalType": "enum ScriptTypes",
          "name": "scriptType",
          "type": "uint8"
        },
        {
          "indexed": false,
          "internalType": "address",
          "name": "lockerTargetAddress",
          "type": "address"
        },
        {
          "indexed": false,
          "internalType": "uint256",
          "name": "requestIdOfLocker",
          "type": "uint256"
        },
        {
          "indexed": false,
          "internalType": "address[]",
          "name": "path",
          "type": "address[]"
        },
        {
          "indexed": false,
          "internalType": "uint256",
          "name": "thirdPartyId",
          "type": "uint256"
        }
      ],
      "name": "NewSwapAndUnwrap",
      "type": "event"
    },
    {
      "anonymous": false,
      "inputs": [
        {
          "indexed": true,
          "internalType": "address",
          "name": "previousOwner",
          "type": "address"
        },
        {
          "indexed": true,
          "internalType": "address",
          "name": "newOwner",
          "type": "address"
        }
      ],
      "name": "OwnershipTransferred",
      "type": "event"
    },
    {
      "anonymous": false,
      "inputs": [
        {
          "indexed": false,
          "internalType": "address",
          "name": "account",
          "type": "address"
        }
      ],
      "name": "Paused",
      "type": "event"
    },
    {
      "anonymous": false,
      "inputs": [
        {
          "indexed": false,
          "internalType": "uint256",
          "name": "uniqueCounter",
          "type": "uint256"
        },
        {
          "indexed": false,
          "internalType": "uint256",
          "name": "chainId",
          "type": "uint256"
        },
        {
          "indexed": false,
          "internalType": "address",
          "name": "exchangeConnector",
          "type": "address"
        },
        {
          "indexed": false,
          "internalType": "address",
          "name": "inputToken",
          "type": "address"
        },
        {
          "indexed": false,
          "internalType": "uint256",
          "name": "inputAmount",
          "type": "uint256"
        },
        {
          "indexed": true,
          "internalType": "address",
          "name": "userTargetAddress",
          "type": "address"
        },
        {
          "indexed": false,
          "internalType": "bytes",
          "name": "userScript",
          "type": "bytes"
        },
        {
          "indexed": false,
          "internalType": "enum ScriptTypes",
          "name": "scriptType",
          "type": "uint8"
        },
        {
          "indexed": false,
          "internalType": "address",
          "name": "lockerTargetAddress",
          "type": "address"
        },
        {
          "indexed": false,
          "internalType": "uint256",
          "name": "requestIdOfLocker",
          "type": "uint256"
        },
        {
          "indexed": false,
          "internalType": "address[]",
          "name": "path",
          "type": "address[]"
        },
        {
          "indexed": false,
          "internalType": "uint256",
          "name": "thirdPartyId",
          "type": "uint256"
        }
      ],
      "name": "RetriedSwapAndUnwrap",
      "type": "event"
    },
    {
      "anonymous": false,
      "inputs": [
        {
          "indexed": false,
          "internalType": "address",
          "name": "account",
          "type": "address"
        }
      ],
      "name": "Unpaused",
      "type": "event"
    },
    {
      "anonymous": false,
      "inputs": [
        {
          "indexed": false,
          "internalType": "uint256",
          "name": "uniqueCounter",
          "type": "uint256"
        },
        {
          "indexed": false,
          "internalType": "uint256",
          "name": "chainId",
          "type": "uint256"
        },
        {
          "indexed": false,
          "internalType": "address",
          "name": "token",
          "type": "address"
        },
        {
          "indexed": false,
          "internalType": "uint256",
          "name": "amount",
          "type": "uint256"
        },
        {
          "indexed": false,
          "internalType": "int64",
          "name": "relayerFeePercentage",
          "type": "int64"
        },
        {
          "indexed": false,
          "internalType": "address",
          "name": "user",
          "type": "address"
        }
      ],
      "name": "WithdrawnFundsToSourceChain",
      "type": "event"
    },
    {
      "inputs": [],
      "name": "ETH_ADDR",
      "outputs": [
        {
          "internalType": "address",
          "name": "",
          "type": "address"
        }
      ],
      "stateMutability": "view",
      "type": "function"
    },
    {
      "inputs": [],
      "name": "across",
      "outputs": [
        {
          "internalType": "address",
          "name": "",
          "type": "address"
        }
      ],
      "stateMutability": "view",
      "type": "function"
    },
    {
      "inputs": [],
      "name": "burnRouterProxy",
      "outputs": [
        {
          "internalType": "address",
          "name": "",
          "type": "address"
        }
      ],
      "stateMutability": "view",
      "type": "function"
    },
    {
      "inputs": [
        {
          "internalType": "address",
          "name": "_token",
          "type": "address"
        },
        {
          "internalType": "address",
          "name": "_to",
          "type": "address"
        },
        {
          "internalType": "uint256",
          "name": "_amount",
          "type": "uint256"
        }
      ],
      "name": "emergencyWithdraw",
      "outputs": [],
      "stateMutability": "nonpayable",
      "type": "function"
    },
    {
      "inputs": [
        {
          "internalType": "address",
          "name": "",
          "type": "address"
        },
        {
          "internalType": "uint256",
          "name": "",
          "type": "uint256"
        },
        {
          "internalType": "address",
          "name": "",
          "type": "address"
        }
      ],
      "name": "failedReqs",
      "outputs": [
        {
          "internalType": "uint256",
          "name": "",
          "type": "uint256"
        }
      ],
      "stateMutability": "view",
      "type": "function"
    },
    {
      "inputs": [
        {
          "internalType": "address",
          "name": "_tokenSent",
          "type": "address"
        },
        {
          "internalType": "uint256",
          "name": "_amount",
          "type": "uint256"
        },
        {
          "internalType": "address",
          "name": "",
          "type": "address"
        },
        {
          "internalType": "bytes",
          "name": "_message",
          "type": "bytes"
        }
      ],
      "name": "handleV3AcrossMessage",
      "outputs": [],
      "stateMutability": "nonpayable",
      "type": "function"
    },
    {
      "inputs": [
        {
          "internalType": "address",
          "name": "_lockersProxy",
          "type": "address"
        },
        {
          "internalType": "address",
          "name": "_burnRouterProxy",
          "type": "address"
        },
        {
          "internalType": "address",
          "name": "_across",
          "type": "address"
        }
      ],
      "name": "initialize",
      "outputs": [],
      "stateMutability": "nonpayable",
      "type": "function"
    },
    {
      "inputs": [],
      "name": "lockersProxy",
      "outputs": [
        {
          "internalType": "address",
          "name": "",
          "type": "address"
        }
      ],
      "stateMutability": "view",
      "type": "function"
    },
    {
      "inputs": [
        {
          "internalType": "address",
          "name": "",
          "type": "address"
        },
        {
          "internalType": "uint256",
          "name": "",
          "type": "uint256"
        },
        {
          "internalType": "uint256",
          "name": "",
          "type": "uint256"
        },
        {
          "internalType": "address",
          "name": "",
          "type": "address"
        }
      ],
      "name": "newFailedReqs",
      "outputs": [
        {
          "internalType": "uint256",
          "name": "",
          "type": "uint256"
        }
      ],
      "stateMutability": "view",
      "type": "function"
    },
    {
      "inputs": [],
      "name": "owner",
      "outputs": [
        {
          "internalType": "address",
          "name": "",
          "type": "address"
        }
      ],
      "stateMutability": "view",
      "type": "function"
    },
    {
      "inputs": [],
      "name": "paused",
      "outputs": [
        {
          "internalType": "bool",
          "name": "",
          "type": "bool"
        }
      ],
      "stateMutability": "view",
      "type": "function"
    },
    {
      "inputs": [],
      "name": "renounceOwnership",
      "outputs": [],
      "stateMutability": "nonpayable",
      "type": "function"
    },
    {
      "inputs": [
        {
          "internalType": "bytes",
          "name": "_message",
          "type": "bytes"
        },
        {
          "internalType": "uint8",
          "name": "_v",
          "type": "uint8"
        },
        {
          "internalType": "bytes32",
          "name": "_r",
          "type": "bytes32"
        },
        {
          "internalType": "bytes32",
          "name": "_s",
          "type": "bytes32"
        }
      ],
      "name": "retrySwapAndUnwrap",
      "outputs": [],
      "stateMutability": "nonpayable",
      "type": "function"
    },
    {
      "inputs": [
        {
          "internalType": "address",
          "name": "_across",
          "type": "address"
        }
      ],
      "name": "setAcross",
      "outputs": [],
      "stateMutability": "nonpayable",
      "type": "function"
    },
    {
      "inputs": [
        {
          "internalType": "address",
          "name": "_burnRouterProxy",
          "type": "address"
        }
      ],
      "name": "setBurnRouterProxy",
      "outputs": [],
      "stateMutability": "nonpayable",
      "type": "function"
    },
    {
      "inputs": [
        {
          "internalType": "address",
          "name": "_lockersProxy",
          "type": "address"
        }
      ],
      "name": "setLockersProxy",
      "outputs": [],
      "stateMutability": "nonpayable",
      "type": "function"
    },
    {
      "inputs": [
        {
          "internalType": "address",
          "name": "newOwner",
          "type": "address"
        }
      ],
      "name": "transferOwnership",
      "outputs": [],
      "stateMutability": "nonpayable",
      "type": "function"
    },
    {
      "inputs": [
        {
          "internalType": "bytes",
          "name": "_message",
          "type": "bytes"
        },
        {
          "internalType": "uint8",
          "name": "_v",
          "type": "uint8"
        },
        {
          "internalType": "bytes32",
          "name": "_r",
          "type": "bytes32"
        },
        {
          "internalType": "bytes32",
          "name": "_s",
          "type": "bytes32"
        }
      ],
      "name": "withdrawFundsToSourceChain",
      "outputs": [],
      "stateMutability": "nonpayable",
      "type": "function"
    },
    {
      "stateMutability": "payable",
      "type": "receive"
    }
  ],
  "transactionHash": "0x27edd8137efab41b5d5a6e3d86fabc6ecae68b54a9c83d385558ea00a4b330a9",
  "args": [],
  "numDeployments": 1,
  "solcInputHash": "d00ac7c1008b3b7c16aaabd39928c057",
  "bytecode": "0x608060405234801561001057600080fd5b50612551806100206000396000f3fe6080604052600436106100dd5760003560e01c8063292c1d92146100e9578063296079f11461011f5780633a5be8cb1461013f5780633e938097146101615780633f8c6ae0146101815780634d6e8f9d146101a157806359841888146101c15780635c975abb146101e157806361be10f214610204578063715018a6146102245780637753f47b146102395780638907eb5c146102615780638da5cb5b146102ad578063baf7f918146102c2578063c0c53b8b14610309578063cf25685414610329578063e63ea40814610349578063f2fde38b1461036957600080fd5b366100e457005b600080fd5b3480156100f557600080fd5b5060cb54610109906001600160a01b031681565b6040516101169190612190565b60405180910390f35b34801561012b57600080fd5b5060c954610109906001600160a01b031681565b34801561014b57600080fd5b5061015f61015a366004611c96565b610389565b005b34801561016d57600080fd5b5061015f61017c366004611d62565b6104a8565b34801561018d57600080fd5b5060ca54610109906001600160a01b031681565b3480156101ad57600080fd5b5061015f6101bc366004611b97565b6105fc565b3480156101cd57600080fd5b5061015f6101dc366004611b97565b61064f565b3480156101ed57600080fd5b5060975460ff166040519015158152602001610116565b34801561021057600080fd5b5061015f61021f366004611b97565b6106a2565b34801561023057600080fd5b5061015f6106f5565b34801561024557600080fd5b5061010973eeeeeeeeeeeeeeeeeeeeeeeeeeeeeeeeeeeeeeee81565b34801561026d57600080fd5b5061029f61027c366004611c60565b60cc60209081526000938452604080852082529284528284209052825290205481565b604051908152602001610116565b3480156102b957600080fd5b50610109610709565b3480156102ce57600080fd5b5061029f6102dd366004611cff565b60cd60209081526000948552604080862082529385528385208152918452828420909152825290205481565b34801561031557600080fd5b5061015f610324366004611bd6565b610718565b34801561033557600080fd5b5061015f610344366004611d62565b610878565b34801561035557600080fd5b5061015f610364366004611c20565b610d52565b34801561037557600080fd5b5061015f610384366004611b97565b610e55565b610391610ece565b60cb546001600160a01b031633146103fa5760405162461bcd60e51b815260206004820152602160248201527f506f6c79676f6e436f6e6e6563746f724c6f6769633a206e6f74206163726f736044820152607360f81b60648201526084015b60405180910390fd5b6000806000838060200190518101906104139190611dc3565b9250925092507fd8883c6af9aa96506569d2db74cafb52037a26374320a8aeaf9fd5cd7df3d2288383838760405161044e94939291906122e4565b60405180910390a1610485836040518060400160405280600d81526020016c073776170416e64556e7772617609c1b815250610f28565b1561049557610495868589610f81565b5050506104a26001606555565b50505050565b6104b0610ece565b60006104be858484876114b1565b9050600080600080888060200190518101906104da919061209e565b6001600160a01b03898116600090815260cd602090815260408083208884528252808320878452825280832093861683529290529081208054919055939750919550935091508061057e5760405162461bcd60e51b815260206004820152602860248201527f506f6c79676f6e436f6e6e6563746f724c6f6769633a20616c7265616479207760448201526734ba34323930bbb760c11b60648201526084016103f1565b61058b86868584866115e0565b60408051858152602081018790526001600160a01b038581168284015260608201849052600785900b6080830152881660a082015290517ff43f17a174cd55d7d75e934475f1cec7890c2bf3fabbf376de3868f0d8ce68979181900360c00190a15050505050506104a26001606555565b6106046116e4565b806001600160a01b03811661062c5760405163d92e233d60e01b815260040160405180910390fd5b5060ca80546001600160a01b0319166001600160a01b0392909216919091179055565b6106576116e4565b806001600160a01b03811661067f5760405163d92e233d60e01b815260040160405180910390fd5b5060c980546001600160a01b0319166001600160a01b0392909216919091179055565b6106aa6116e4565b806001600160a01b0381166106d25760405163d92e233d60e01b815260040160405180910390fd5b5060cb80546001600160a01b0319166001600160a01b0392909216919091179055565b6106fd6116e4565b6107076000611743565b565b6033546001600160a01b031690565b600054610100900460ff16158080156107385750600054600160ff909116105b806107525750303b158015610752575060005460ff166001145b6107b55760405162461bcd60e51b815260206004820152602e60248201527f496e697469616c697a61626c653a20636f6e747261637420697320616c72656160448201526d191e481a5b9a5d1a585b1a5e995960921b60648201526084016103f1565b6000805460ff1916600117905580156107d8576000805461ff0019166101001790555b6107e0611795565b6107e86117c4565b6107f06117f3565b60c980546001600160a01b038087166001600160a01b03199283161790925560ca805486841690831617905560cb80549285169290911691909117905580156104a2576000805461ff0019169055604051600181527f7f26b83ff96e1f2b6a682f133852f6798a09c465da95921460cefb38474024989060200160405180910390a150505050565b610880610ece565b600061088e858484876114b1565b90506000806000806000806000806000808e8060200190518101906108b39190611fd9565b9950995099509950995099509950995099509950600060cd60008d6001600160a01b03166001600160a01b0316815260200190815260200160002060008c815260200190815260200160002060008b815260200190815260200160002060008a6001600160a01b03166001600160a01b0316815260200190815260200160002054905060cd60008d6001600160a01b03166001600160a01b0316815260200190815260200160002060008c815260200190815260200160002060008b815260200190815260200160002060008a6001600160a01b03166001600160a01b031681526020019081526020016000206000905560008111610a035760405162461bcd60e51b815260206004820152602660248201527f506f6c79676f6e436f6e6e6563746f724c6f6769633a20616c72656164792072604482015265195d1c9a595960d21b60648201526084016103f1565b6040805160028082526060820183526000926020830190803683370190505090508181600081518110610a4657634e487b7160e01b600052603260045260246000fd5b6020026020010181815250508781600181518110610a7457634e487b7160e01b600052603260045260246000fd5b60200260200101818152505083600081518110610aa157634e487b7160e01b600052603260045260246000fd5b602090810291909101015160ca5460405163095ea7b360e01b81526001600160a01b039283169263095ea7b392610adf9291169086906004016122b8565b602060405180830381600087803b158015610af957600080fd5b505af1158015610b0d573d6000803e3d6000fd5b505050506040513d601f19601f82011682018060405250810190610b319190611d48565b5060ca546040516344dd6aa560e01b81526001600160a01b03909116906344dd6aa590610b73908c9085906001908a9042908f908f908f908e90600401612215565b602060405180830381600087803b158015610b8d57600080fd5b505af1158015610ba1573d6000803e3d6000fd5b505050506040513d601f19601f82011682018060405250810190610bc59190611fc1565b5060c95460405163626885b560e11b81526000916001600160a01b03169063c4d10b6a90610bf79089906004016122d1565b60206040518083038186803b158015610c0f57600080fd5b505afa158015610c23573d6000803e3d6000fd5b505050506040513d601f19601f82011682018060405250810190610c479190611bba565b90508d6001600160a01b03167fc3fa5dbbc53aa478b310dddcc3bd2527072ac6794c00d92e4ad7201827297fc08d8f8d8f888e8e89600160ca60009054906101000a90046001600160a01b03166001600160a01b031663930a60e88d6040518263ffffffff1660e01b8152600401610cbf9190612190565b60206040518083038186803b158015610cd757600080fd5b505afa158015610ceb573d6000803e3d6000fd5b505050506040513d601f19601f82011682018060405250810190610d0f9190611fc1565b610d1991906124a1565b8f8f604051610d329b9a99989796959493929190612360565b60405180910390a250505050505050505050505050506104a26001606555565b610d5a6116e4565b6001600160a01b03831673eeeeeeeeeeeeeeeeeeeeeeeeeeeeeeeeeeeeeeee1415610dd5576040516001600160a01b038316908290600081818185875af1925050503d8060008114610dc8576040519150601f19603f3d011682016040523d82523d6000602084013e610dcd565b606091505b505050505050565b60405163a9059cbb60e01b81526001600160a01b0384169063a9059cbb90610e0390859085906004016122b8565b602060405180830381600087803b158015610e1d57600080fd5b505af1158015610e31573d6000803e3d6000fd5b505050506040513d601f19601f820116820180604052508101906104a29190611d48565b610e5d6116e4565b6001600160a01b038116610ec25760405162461bcd60e51b815260206004820152602660248201527f4f776e61626c653a206e6577206f776e657220697320746865207a65726f206160448201526564647265737360d01b60648201526084016103f1565b610ecb81611743565b50565b60026065541415610f215760405162461bcd60e51b815260206004820152601f60248201527f5265656e7472616e637947756172643a207265656e7472616e742063616c6c0060448201526064016103f1565b6002606555565b600081604051602001610f3b9190612174565b6040516020818303038152906040528051906020012083604051602001610f629190612174565b6040516020818303038152906040528051906020012014905092915050565b6000610f8c83611822565b60408051600280825260608201835292935060009290916020830190803683370190505090508481600081518110610fd457634e487b7160e01b600052603260045260246000fd5b60200260200101818152505081608001518160018151811061100657634e487b7160e01b600052603260045260246000fd5b602090810291909101015260ca5460405163095ea7b360e01b81526001600160a01b038581169263095ea7b392611045929091169089906004016122b8565b602060405180830381600087803b15801561105f57600080fd5b505af1158015611073573d6000803e3d6000fd5b505050506040513d601f19601f820116820180604052508101906110979190611d48565b5060ca54606083015160a084015160c085015160e0860151805160208201516040928301516101008a015193516344dd6aa560e01b81526001600160a01b03909816976344dd6aa5976110fb9790968b969195909442949193909290600401612215565b602060405180830381600087803b15801561111557600080fd5b505af1925050508015611145575060408051601f3d908101601f1916820190925261114291810190611fc1565b60015b6112fa578160c0015160008151811061116e57634e487b7160e01b600052603260045260246000fd5b602090810291909101015160ca5460405163095ea7b360e01b81526001600160a01b039283169263095ea7b3926111ad929116906000906004016122b8565b602060405180830381600087803b1580156111c757600080fd5b505af11580156111db573d6000803e3d6000fd5b505050506040513d601f19601f820116820180604052508101906111ff9190611d48565b508460cd600084604001516001600160a01b03166001600160a01b031681526020019081526020016000206000846020015181526020019081526020016000206000846000015181526020019081526020016000206000856001600160a01b03166001600160a01b031681526020019081526020016000208190555081604001516001600160a01b03167fa79aee2abfa3037b36c3689636c9932b113a82cebda0057ac4ce2386371fc969836000015184602001518560600151878a8860e00151600001518960e00151602001518a60c001518b61010001516040516112ed999897969594939291906123e8565b60405180910390a26114a3565b5060c95460e0830151604090810151905163626885b560e11b81526000926001600160a01b03169163c4d10b6a9161133591906004016122d1565b60206040518083038186803b15801561134d57600080fd5b505afa158015611361573d6000803e3d6000fd5b505050506040513d601f19601f820116820180604052508101906113859190611bba565b905082604001516001600160a01b03167f124f82fb68081b8c772a74ce98c0c92b659dd79e4fd3f03cf49988818eb04e8b846000015185602001518660600151888b8960e00151600001518a60e001516020015189600160ca60009054906101000a90046001600160a01b03166001600160a01b031663930a60e88d6040518263ffffffff1660e01b815260040161141d9190612190565b60206040518083038186803b15801561143557600080fd5b505afa158015611449573d6000803e3d6000fd5b505050506040513d601f19601f8201168201806040525081019061146d9190611fc1565b61147791906124a1565b8d60c001518e61010001516040516114999b9a99989796959493929190612360565b60405180910390a2505b5050505050565b6001606555565b600080858051906020012090506000816040516020016114fc91907b0ca2ba3432b932bab69029b4b3b732b21026b2b9b9b0b3b29d05199960211b8152601c810191909152603c0190565b60408051601f198184030181528282528051602091820120600080855291840180845281905260ff88169284019290925260608301899052608083018890529092509060019060a0016020604051602081039080840390855afa158015611567573d6000803e3d6000fd5b5050604051601f1901519150506001600160a01b0381166115d55760405162461bcd60e51b815260206004820152602260248201527f506f6c79676f6e436f6e6e6563746f724c6f6769633a20496e76616c69642073604482015261696760f01b60648201526084016103f1565b979650505050505050565b60cb5460405163095ea7b360e01b81526060916001600160a01b038087169263095ea7b39261161592169087906004016122b8565b602060405180830381600087803b15801561162f57600080fd5b505af1158015611643573d6000803e3d6000fd5b505050506040513d601f19601f820116820180604052508101906116679190611d48565b5060cb54604051631507d3c560e21b81526001600160a01b039091169063541f4f14906116aa9089908190899089908c908a9042908b90600019906004016121a4565b600060405180830381600087803b1580156116c457600080fd5b505af11580156116d8573d6000803e3d6000fd5b50505050505050505050565b336116ed610709565b6001600160a01b0316146107075760405162461bcd60e51b815260206004820181905260248201527f4f776e61626c653a2063616c6c6572206973206e6f7420746865206f776e657260448201526064016103f1565b603380546001600160a01b038381166001600160a01b0319831681179093556040519116919082907f8be0079c531659141344cd1fd0a4f28419497f9722a3daafe3b4186f6b6457e090600090a35050565b600054610100900460ff166117bc5760405162461bcd60e51b81526004016103f190612315565b61070761189e565b600054610100900460ff166117eb5760405162461bcd60e51b81526004016103f190612315565b6107076118ce565b600054610100900460ff1661181a5760405162461bcd60e51b81526004016103f190612315565b6107076118f5565b61182a611928565b8180602001905181019061183e9190611e10565b60e08a015260c0890152151560a088015260808701526001600160a01b0390811660608701521660408501526020808501919091529083528351611889925084018101908401611ee3565b6101008b015250979998505050505050505050565b600054610100900460ff166118c55760405162461bcd60e51b81526004016103f190612315565b61070733611743565b600054610100900460ff166114aa5760405162461bcd60e51b81526004016103f190612315565b600054610100900460ff1661191c5760405162461bcd60e51b81526004016103f190612315565b6097805460ff19169055565b604051806101200160405280600081526020016000815260200160006001600160a01b0316815260200160006001600160a01b03168152602001600081526020016000151581526020016060815260200161199b6040805160608082018352808252600060208301529181019190915290565b8152602001600081525090565b80516119b381612506565b919050565b600082601f8301126119c8578081fd5b815160206001600160401b038211156119e3576119e36124f0565b8160051b6119f282820161244a565b838152828101908684018388018501891015611a0c578687fd5b8693505b85841015611a37578051611a2381612506565b835260019390930192918401918401611a10565b50979650505050505050565b805180151581146119b357600080fd5b600082601f830112611a63578081fd5b8135611a76611a718261247a565b61244a565b818152846020838601011115611a8a578283fd5b816020850160208301379081016020019190915292915050565b600082601f830112611ab4578081fd5b8151611ac2611a718261247a565b818152846020838601011115611ad6578283fd5b611ae78260208301602087016124c4565b949350505050565b8051600681106119b357600080fd5b600060608284031215611b0f578081fd5b604051606081016001600160401b038082118383101715611b3257611b326124f0565b816040528293508451915080821115611b4a57600080fd5b611b5686838701611aa4565b8352611b6460208601611aef565b60208401526040850151915080821115611b7d57600080fd5b50611b8a85828601611aa4565b6040830152505092915050565b600060208284031215611ba8578081fd5b8135611bb381612506565b9392505050565b600060208284031215611bcb578081fd5b8151611bb381612506565b600080600060608486031215611bea578182fd5b8335611bf581612506565b92506020840135611c0581612506565b91506040840135611c1581612506565b809150509250925092565b600080600060608486031215611c34578283fd5b8335611c3f81612506565b92506020840135611c4f81612506565b929592945050506040919091013590565b600080600060608486031215611c74578283fd5b8335611c7f81612506565b9250602084013591506040840135611c1581612506565b60008060008060808587031215611cab578081fd5b8435611cb681612506565b9350602085013592506040850135611ccd81612506565b915060608501356001600160401b03811115611ce7578182fd5b611cf387828801611a53565b91505092959194509250565b60008060008060808587031215611d14578182fd5b8435611d1f81612506565b935060208501359250604085013591506060850135611d3d81612506565b939692955090935050565b600060208284031215611d59578081fd5b611bb382611a43565b60008060008060808587031215611d77578182fd5b84356001600160401b03811115611d8c578283fd5b611d9887828801611a53565b945050602085013560ff81168114611dae578283fd5b93969395505050506040820135916060013590565b600080600060608486031215611dd7578081fd5b83516001600160401b03811115611dec578182fd5b611df886828701611aa4565b93505060208401519150604084015190509250925092565b60008060008060008060008060006101208a8c031215611e2e578687fd5b89516001600160401b0380821115611e44578889fd5b611e508d838e01611aa4565b9a5060208c0151995060408c01519850611e6c60608d016119a8565b9750611e7a60808d016119a8565b965060a08c01519550611e8f60c08d01611a43565b945060e08c0151915080821115611ea4578384fd5b611eb08d838e016119b8565b93506101008c0151915080821115611ec6578283fd5b50611ed38c828d01611afe565b9150509295985092959850929598565b6000806000806000806000806000806101408b8d031215611f02578384fd5b8a516001600160401b0380821115611f18578586fd5b611f248e838f01611aa4565b9b5060208d01519a5060408d01519950611f4060608e016119a8565b9850611f4e60808e016119a8565b975060a08d01519650611f6360c08e01611a43565b955060e08d0151915080821115611f78578283fd5b611f848e838f016119b8565b94506101008d0151915080821115611f9a578283fd5b50611fa78d828e01611afe565b9250506101208b015190509295989b9194979a5092959850565b600060208284031215611fd2578081fd5b5051919050565b6000806000806000806000806000806101408b8d031215611ff8578384fd5b8a51995060208b0151985061200f60408c016119a8565b975061201d60608c016119a8565b60808c015160a08d015191985096506001600160401b0380821115612040578586fd5b61204c8e838f01611aa4565b965061205a60c08e01611aef565b955060e08d015191508082111561206f578485fd5b61207b8e838f01611aa4565b94506101008d0151915080821115612091578384fd5b50611fa78d828e016119b8565b600080600080608085870312156120b3578182fd5b845193506020850151925060408501516120cc81612506565b8092505060608501518060070b8114611d3d578182fd5b6000815180845260208085019450808401835b8381101561211b5781516001600160a01b0316875295820195908201906001016120f6565b509495945050505050565b6000815180845261213e8160208601602086016124c4565b601f01601f19169290920160200192915050565b6006811061217057634e487b7160e01b600052602160045260246000fd5b9052565b600082516121868184602087016124c4565b9190910192915050565b6001600160a01b0391909116815260200190565b6001600160a01b038a811682528981166020830152881660408201526060810187905260808101869052600785900b60a082015263ffffffff841660c082015261012060e082018190526000906121fd83820186612126565b915050826101008301529a9950505050505050505050565b6001600160a01b038a16815261012060208083018290528a519183018290526000916101408401918c810191845b8181101561225f57835185529382019392820192600101612243565b505050508915156040840152828103606084015261227d818a6120e3565b905087608084015282810360a08401526122978188612126565b90506122a660c0840187612152565b82810360e08401526121fd8186612126565b6001600160a01b03929092168252602082015260400190565b602081526000611bb36020830184612126565b6080815260006122f76080830187612126565b85602084015284604084015282810360608401526115d58185612126565b6020808252602b908201527f496e697469616c697a61626c653a20636f6e7472616374206973206e6f74206960408201526a6e697469616c697a696e6760a81b606082015260800190565b60006101608d83528c602084015260018060a01b03808d166040850152808c1660608501528a60808501528160a085015261239d8285018b612126565b91506123ac60c085018a612152565b871660e084015261010083018690528281036101208401526123ce81866120e3565b915050826101408301529c9b505050505050505050505050565b898152602081018990526001600160a01b038881166040830152871660608201526080810186905261012060a0820181905260009061242983820188612126565b905061243860c0840187612152565b82810360e08401526121fd81866120e3565b604051601f8201601f191681016001600160401b0381118282101715612472576124726124f0565b604052919050565b60006001600160401b03821115612493576124936124f0565b50601f01601f191660200190565b6000828210156124bf57634e487b7160e01b81526011600452602481fd5b500390565b60005b838110156124df5781810151838201526020016124c7565b838111156104a25750506000910152565b634e487b7160e01b600052604160045260246000fd5b6001600160a01b0381168114610ecb57600080fdfea264697066735822122049cadb550359119c13ad2cd2dac1309a694c8487483d62c04893db5e6005266864736f6c63430008040033",
  "devdoc": {
    "kind": "dev",
    "methods": {
      "emergencyWithdraw(address,address,uint256)": {
        "details": "Only owner can call this"
      },
      "owner()": {
        "details": "Returns the address of the current owner."
      },
      "paused()": {
        "details": "Returns true if the contract is paused, and false otherwise."
      },
      "renounceOwnership()": {
        "details": "Leaves the contract without owner. It will not be possible to call `onlyOwner` functions. Can only be called by the current owner. NOTE: Renouncing ownership will leave the contract without an owner, thereby disabling any functionality that is only available to the owner."
      },
      "retrySwapAndUnwrap(bytes,uint8,bytes32,bytes32)": {
        "details": "User signs a message for retrying its request",
        "params": {
          "_message": "The signed message",
          "_r": "Signature r",
          "_s": "Signature s",
          "_v": "Signature v"
        }
      },
      "transferOwnership(address)": {
        "details": "Transfers ownership of the contract to a new account (`newOwner`). Can only be called by the current owner."
      },
      "withdrawFundsToSourceChain(bytes,uint8,bytes32,bytes32)": {
        "params": {
          "_message": "The signed message",
          "_r": "Signature r",
          "_s": "Signature s",
          "_v": "Signature v"
        }
      }
    },
    "version": 1
  },
  "userdoc": {
    "kind": "user",
    "methods": {
      "emergencyWithdraw(address,address,uint256)": {
        "notice": "Withdraws tokens in the emergency case"
      },
      "handleV3AcrossMessage(address,uint256,address,bytes)": {
        "notice": "Process requests coming from Ethereum (using Across V3)"
      },
      "retrySwapAndUnwrap(bytes,uint8,bytes32,bytes32)": {
        "notice": "Retry to swap and unwrap tokens"
      },
      "setAcross(address)": {
        "notice": "Setter for AcrossV3"
      },
      "setBurnRouterProxy(address)": {
        "notice": "Setter for BurnRouterProxy"
      },
      "setLockersProxy(address)": {
        "notice": "Setter for LockersProxy"
      },
      "withdrawFundsToSourceChain(bytes,uint8,bytes32,bytes32)": {
        "notice": "Send back tokens to the source chain"
      }
    },
    "version": 1
  },
  "storageLayout": {
    "storage": [
      {
        "astId": 280,
        "contract": "contracts/connectors/PolyConnectorLogic.sol:PolyConnectorLogic",
        "label": "_initialized",
        "offset": 0,
        "slot": "0",
        "type": "t_uint8"
      },
      {
        "astId": 283,
        "contract": "contracts/connectors/PolyConnectorLogic.sol:PolyConnectorLogic",
        "label": "_initializing",
        "offset": 1,
        "slot": "0",
        "type": "t_bool"
      },
      {
        "astId": 1113,
        "contract": "contracts/connectors/PolyConnectorLogic.sol:PolyConnectorLogic",
        "label": "__gap",
        "offset": 0,
        "slot": "1",
        "type": "t_array(t_uint256)50_storage"
      },
      {
        "astId": 152,
        "contract": "contracts/connectors/PolyConnectorLogic.sol:PolyConnectorLogic",
        "label": "_owner",
        "offset": 0,
        "slot": "51",
        "type": "t_address"
      },
      {
        "astId": 272,
        "contract": "contracts/connectors/PolyConnectorLogic.sol:PolyConnectorLogic",
        "label": "__gap",
        "offset": 0,
        "slot": "52",
        "type": "t_array(t_uint256)49_storage"
      },
      {
        "astId": 585,
        "contract": "contracts/connectors/PolyConnectorLogic.sol:PolyConnectorLogic",
        "label": "_status",
        "offset": 0,
        "slot": "101",
        "type": "t_uint256"
      },
      {
        "astId": 654,
        "contract": "contracts/connectors/PolyConnectorLogic.sol:PolyConnectorLogic",
        "label": "__gap",
        "offset": 0,
        "slot": "102",
        "type": "t_array(t_uint256)49_storage"
      },
      {
        "astId": 464,
        "contract": "contracts/connectors/PolyConnectorLogic.sol:PolyConnectorLogic",
        "label": "_paused",
        "offset": 0,
        "slot": "151",
        "type": "t_bool"
      },
      {
        "astId": 569,
        "contract": "contracts/connectors/PolyConnectorLogic.sol:PolyConnectorLogic",
        "label": "__gap",
        "offset": 0,
        "slot": "152",
        "type": "t_array(t_uint256)49_storage"
      },
      {
        "astId": 7981,
        "contract": "contracts/connectors/PolyConnectorLogic.sol:PolyConnectorLogic",
        "label": "lockersProxy",
        "offset": 0,
        "slot": "201",
        "type": "t_address"
      },
      {
        "astId": 7984,
        "contract": "contracts/connectors/PolyConnectorLogic.sol:PolyConnectorLogic",
        "label": "burnRouterProxy",
        "offset": 0,
        "slot": "202",
        "type": "t_address"
      },
      {
        "astId": 7987,
        "contract": "contracts/connectors/PolyConnectorLogic.sol:PolyConnectorLogic",
        "label": "across",
        "offset": 0,
        "slot": "203",
        "type": "t_address"
      },
      {
        "astId": 7996,
        "contract": "contracts/connectors/PolyConnectorLogic.sol:PolyConnectorLogic",
        "label": "failedReqs",
        "offset": 0,
        "slot": "204",
        "type": "t_mapping(t_address,t_mapping(t_uint256,t_mapping(t_address,t_uint256)))"
      },
      {
        "astId": 8007,
        "contract": "contracts/connectors/PolyConnectorLogic.sol:PolyConnectorLogic",
        "label": "newFailedReqs",
        "offset": 0,
        "slot": "205",
        "type": "t_mapping(t_address,t_mapping(t_uint256,t_mapping(t_uint256,t_mapping(t_address,t_uint256))))"
      }
    ],
    "types": {
      "t_address": {
        "encoding": "inplace",
        "label": "address",
        "numberOfBytes": "20"
      },
      "t_array(t_uint256)49_storage": {
        "base": "t_uint256",
        "encoding": "inplace",
        "label": "uint256[49]",
        "numberOfBytes": "1568"
      },
      "t_array(t_uint256)50_storage": {
        "base": "t_uint256",
        "encoding": "inplace",
        "label": "uint256[50]",
        "numberOfBytes": "1600"
      },
      "t_bool": {
        "encoding": "inplace",
        "label": "bool",
        "numberOfBytes": "1"
      },
      "t_mapping(t_address,t_mapping(t_uint256,t_mapping(t_address,t_uint256)))": {
        "encoding": "mapping",
        "key": "t_address",
        "label": "mapping(address => mapping(uint256 => mapping(address => uint256)))",
        "numberOfBytes": "32",
        "value": "t_mapping(t_uint256,t_mapping(t_address,t_uint256))"
      },
      "t_mapping(t_address,t_mapping(t_uint256,t_mapping(t_uint256,t_mapping(t_address,t_uint256))))": {
        "encoding": "mapping",
        "key": "t_address",
        "label": "mapping(address => mapping(uint256 => mapping(uint256 => mapping(address => uint256))))",
        "numberOfBytes": "32",
        "value": "t_mapping(t_uint256,t_mapping(t_uint256,t_mapping(t_address,t_uint256)))"
      },
      "t_mapping(t_address,t_uint256)": {
        "encoding": "mapping",
        "key": "t_address",
        "label": "mapping(address => uint256)",
        "numberOfBytes": "32",
        "value": "t_uint256"
      },
      "t_mapping(t_uint256,t_mapping(t_address,t_uint256))": {
        "encoding": "mapping",
        "key": "t_uint256",
        "label": "mapping(uint256 => mapping(address => uint256))",
        "numberOfBytes": "32",
        "value": "t_mapping(t_address,t_uint256)"
      },
      "t_mapping(t_uint256,t_mapping(t_uint256,t_mapping(t_address,t_uint256)))": {
        "encoding": "mapping",
        "key": "t_uint256",
        "label": "mapping(uint256 => mapping(uint256 => mapping(address => uint256)))",
        "numberOfBytes": "32",
        "value": "t_mapping(t_uint256,t_mapping(t_address,t_uint256))"
      },
      "t_uint256": {
        "encoding": "inplace",
        "label": "uint256",
        "numberOfBytes": "32"
      },
      "t_uint8": {
        "encoding": "inplace",
        "label": "uint8",
        "numberOfBytes": "1"
      }
    }
  }
}