{
  "address": "0x7aa8192b1f9b56b4647cbf52e6104a9016cbaec2",
  "abi": [
    {
      "inputs": [],
      "name": "ZeroAddress",
      "type": "error"
    },
    {
      "anonymous": false,
      "inputs": [
        {
          "indexed": false,
          "internalType": "address",
          "name": "oldAcross",
          "type": "address"
        },
        {
          "indexed": false,
          "internalType": "address",
          "name": "newAcross",
          "type": "address"
        }
      ],
      "name": "AcrossUpdated",
      "type": "event"
    },
    {
      "anonymous": false,
      "inputs": [
        {
          "indexed": false,
          "internalType": "address",
          "name": "oldBurnRouter",
          "type": "address"
        },
        {
          "indexed": false,
          "internalType": "address",
          "name": "newBurnRouter",
          "type": "address"
        }
      ],
      "name": "BurnRouterUpdated",
      "type": "event"
    },
    {
      "anonymous": false,
      "inputs": [
        {
          "indexed": false,
          "internalType": "address",
          "name": "oldEthConnector",
          "type": "address"
        },
        {
          "indexed": false,
          "internalType": "address",
          "name": "newEthConnector",
          "type": "address"
        }
      ],
      "name": "EthConnectorUpdated",
      "type": "event"
    },
    {
      "anonymous": false,
      "inputs": [
        {
          "indexed": false,
          "internalType": "address",
          "name": "exchangeConnector",
          "type": "address"
        },
        {
          "indexed": false,
          "internalType": "address",
          "name": "inputToken",
          "type": "address"
        },
        {
          "indexed": false,
          "internalType": "uint256",
          "name": "inputAmount",
          "type": "uint256"
        },
        {
          "indexed": true,
          "internalType": "address",
          "name": "userTargetAddress",
          "type": "address"
        },
        {
          "indexed": false,
          "internalType": "bytes",
          "name": "userScript",
          "type": "bytes"
        },
        {
          "indexed": false,
          "internalType": "enum ScriptTypes",
          "name": "scriptType",
          "type": "uint8"
        },
        {
          "indexed": false,
          "internalType": "address[]",
          "name": "path",
          "type": "address[]"
        }
      ],
      "name": "FailedBurn",
      "type": "event"
    },
    {
      "anonymous": false,
      "inputs": [
        {
          "indexed": false,
          "internalType": "uint8",
          "name": "version",
          "type": "uint8"
        }
      ],
      "name": "Initialized",
      "type": "event"
    },
    {
      "anonymous": false,
      "inputs": [
        {
          "indexed": false,
          "internalType": "address",
          "name": "oldLockersProxy",
          "type": "address"
        },
        {
          "indexed": false,
          "internalType": "address",
          "name": "newLockersProxy",
          "type": "address"
        }
      ],
      "name": "LockersProxyUpdated",
      "type": "event"
    },
    {
      "anonymous": false,
      "inputs": [
        {
          "indexed": false,
          "internalType": "uint256",
          "name": "uniqueCounter",
          "type": "uint256"
        },
        {
          "indexed": false,
          "internalType": "string",
          "name": "functionName",
          "type": "string"
        },
        {
          "indexed": false,
          "internalType": "bytes",
          "name": "data",
          "type": "bytes"
        }
      ],
      "name": "MsgReceived",
      "type": "event"
    },
    {
      "anonymous": false,
      "inputs": [
        {
          "indexed": false,
          "internalType": "address",
          "name": "exchangeConnector",
          "type": "address"
        },
        {
          "indexed": false,
          "internalType": "address",
          "name": "inputToken",
          "type": "address"
        },
        {
          "indexed": false,
          "internalType": "uint256",
          "name": "inputAmount",
          "type": "uint256"
        },
        {
          "indexed": true,
          "internalType": "address",
          "name": "userTargetAddress",
          "type": "address"
        },
        {
          "indexed": false,
          "internalType": "bytes",
          "name": "userScript",
          "type": "bytes"
        },
        {
          "indexed": false,
          "internalType": "enum ScriptTypes",
          "name": "scriptType",
          "type": "uint8"
        },
        {
          "indexed": false,
          "internalType": "address",
          "name": "lockerTargetAddress",
          "type": "address"
        },
        {
          "indexed": false,
          "internalType": "uint256",
          "name": "requestIdOfLocker",
          "type": "uint256"
        },
        {
          "indexed": false,
          "internalType": "address[]",
          "name": "path",
          "type": "address[]"
        }
      ],
      "name": "NewBurn",
      "type": "event"
    },
    {
      "anonymous": false,
      "inputs": [
        {
          "indexed": true,
          "internalType": "address",
          "name": "previousOwner",
          "type": "address"
        },
        {
          "indexed": true,
          "internalType": "address",
          "name": "newOwner",
          "type": "address"
        }
      ],
      "name": "OwnershipTransferred",
      "type": "event"
    },
    {
      "anonymous": false,
      "inputs": [
        {
          "indexed": false,
          "internalType": "address",
          "name": "account",
          "type": "address"
        }
      ],
      "name": "Paused",
      "type": "event"
    },
    {
      "anonymous": false,
      "inputs": [
        {
          "indexed": false,
          "internalType": "address",
          "name": "account",
          "type": "address"
        }
      ],
      "name": "Unpaused",
      "type": "event"
    },
    {
      "inputs": [],
      "name": "ETH_ADDR",
      "outputs": [
        {
          "internalType": "address",
          "name": "",
          "type": "address"
        }
      ],
      "stateMutability": "view",
      "type": "function"
    },
    {
      "inputs": [],
      "name": "across",
      "outputs": [
        {
          "internalType": "address",
          "name": "",
          "type": "address"
        }
      ],
      "stateMutability": "view",
      "type": "function"
    },
    {
      "inputs": [],
      "name": "burnRouterProxy",
      "outputs": [
        {
          "internalType": "address",
          "name": "",
          "type": "address"
        }
      ],
      "stateMutability": "view",
      "type": "function"
    },
    {
      "inputs": [
        {
          "internalType": "address",
          "name": "_token",
          "type": "address"
        },
        {
          "internalType": "address",
          "name": "_to",
          "type": "address"
        },
        {
          "internalType": "uint256",
          "name": "_amount",
          "type": "uint256"
        }
      ],
      "name": "emergencyWithdraw",
      "outputs": [],
      "stateMutability": "nonpayable",
      "type": "function"
    },
    {
      "inputs": [
        {
          "internalType": "address",
          "name": "",
          "type": "address"
        },
        {
          "internalType": "address",
          "name": "",
          "type": "address"
        }
      ],
      "name": "failedReqs",
      "outputs": [
        {
          "internalType": "uint256",
          "name": "",
          "type": "uint256"
        }
      ],
      "stateMutability": "view",
      "type": "function"
    },
    {
      "inputs": [
        {
          "internalType": "address",
          "name": "_tokenSent",
          "type": "address"
        },
        {
          "internalType": "uint256",
          "name": "_amount",
          "type": "uint256"
        },
        {
          "internalType": "address",
          "name": "_relayer",
          "type": "address"
        },
        {
          "internalType": "bytes",
          "name": "_message",
          "type": "bytes"
        }
      ],
      "name": "handleV3AcrossMessage",
      "outputs": [],
      "stateMutability": "nonpayable",
      "type": "function"
    },
    {
      "inputs": [
        {
          "internalType": "address",
          "name": "_lockersProxy",
          "type": "address"
        },
        {
          "internalType": "address",
          "name": "_burnRouterProxy",
          "type": "address"
        },
        {
          "internalType": "address",
          "name": "_across",
          "type": "address"
        },
        {
          "internalType": "uint256",
          "name": "_sourceChainId",
          "type": "uint256"
        }
      ],
      "name": "initialize",
      "outputs": [],
      "stateMutability": "nonpayable",
      "type": "function"
    },
    {
      "inputs": [],
      "name": "lockersProxy",
      "outputs": [
        {
          "internalType": "address",
          "name": "",
          "type": "address"
        }
      ],
      "stateMutability": "view",
      "type": "function"
    },
    {
      "inputs": [],
      "name": "owner",
      "outputs": [
        {
          "internalType": "address",
          "name": "",
          "type": "address"
        }
      ],
      "stateMutability": "view",
      "type": "function"
    },
    {
      "inputs": [],
      "name": "paused",
      "outputs": [
        {
          "internalType": "bool",
          "name": "",
          "type": "bool"
        }
      ],
      "stateMutability": "view",
      "type": "function"
    },
    {
      "inputs": [],
      "name": "renounceOwnership",
      "outputs": [],
      "stateMutability": "nonpayable",
      "type": "function"
    },
    {
      "inputs": [
        {
          "internalType": "bytes",
          "name": "_message",
          "type": "bytes"
        },
        {
          "internalType": "uint8",
          "name": "_v",
          "type": "uint8"
        },
        {
          "internalType": "bytes32",
          "name": "_r",
          "type": "bytes32"
        },
        {
          "internalType": "bytes32",
          "name": "_s",
          "type": "bytes32"
        }
      ],
      "name": "retrySwapAndUnwrap",
      "outputs": [],
      "stateMutability": "nonpayable",
      "type": "function"
    },
    {
      "inputs": [
        {
          "internalType": "address",
          "name": "_across",
          "type": "address"
        }
      ],
      "name": "setAcross",
      "outputs": [],
      "stateMutability": "nonpayable",
      "type": "function"
    },
    {
      "inputs": [
        {
          "internalType": "address",
          "name": "_burnRouterProxy",
          "type": "address"
        }
      ],
      "name": "setBurnRouterProxy",
      "outputs": [],
      "stateMutability": "nonpayable",
      "type": "function"
    },
    {
      "inputs": [
        {
          "internalType": "address",
          "name": "_lockersProxy",
          "type": "address"
        }
      ],
      "name": "setLockersProxy",
      "outputs": [],
      "stateMutability": "nonpayable",
      "type": "function"
    },
    {
      "inputs": [
        {
          "internalType": "address",
          "name": "_sourceChainConnector",
          "type": "address"
        }
      ],
      "name": "setSourceChainConnector",
      "outputs": [],
      "stateMutability": "nonpayable",
      "type": "function"
    },
    {
      "inputs": [],
      "name": "sourceChainConnector",
      "outputs": [
        {
          "internalType": "address",
          "name": "",
          "type": "address"
        }
      ],
      "stateMutability": "view",
      "type": "function"
    },
    {
      "inputs": [],
      "name": "sourceChainId",
      "outputs": [
        {
          "internalType": "uint256",
          "name": "",
          "type": "uint256"
        }
      ],
      "stateMutability": "view",
      "type": "function"
    },
    {
      "inputs": [
        {
          "internalType": "address",
          "name": "newOwner",
          "type": "address"
        }
      ],
      "name": "transferOwnership",
      "outputs": [],
      "stateMutability": "nonpayable",
      "type": "function"
    },
    {
      "inputs": [
        {
          "internalType": "bytes",
          "name": "_message",
          "type": "bytes"
        },
        {
          "internalType": "uint8",
          "name": "_v",
          "type": "uint8"
        },
        {
          "internalType": "bytes32",
          "name": "_r",
          "type": "bytes32"
        },
        {
          "internalType": "bytes32",
          "name": "_s",
          "type": "bytes32"
        }
      ],
      "name": "withdrawFundsToEth",
      "outputs": [],
      "stateMutability": "nonpayable",
      "type": "function"
    },
    {
      "stateMutability": "payable",
      "type": "receive"
    }
  ],
  "transactionHash": "0x4d59a449a6aef44a2278b859cd681c4e32dd385b5f20d7d5f319a69a11ffd863",
  "args": [],
  "numDeployments": 1,
  "solcInputHash": "fbb9dd9da774695a09b02ce3e5958494",
  "bytecode": "0x608060405234801561001057600080fd5b50612351806100206000396000f3fe6080604052600436106100f35760003560e01c80631544298e146100ff578063292c1d9214610128578063296079f1146101555780633a5be8cb146101755780633f8c6ae014610197578063412f1150146101b75780634d6e8f9d146101d757806359841888146101f75780635c975abb1461021757806361be10f21461023a578063715018a61461025a5780637753f47b1461026f5780637c5a4ccb14610297578063843100b3146102cf5780638da5cb5b146102ef578063cf25685414610304578063cf756fdf14610324578063e63ea40814610344578063f2fde38b14610364578063f374be5f1461038457600080fd5b366100fa57005b600080fd5b34801561010b57600080fd5b5061011560cd5481565b6040519081526020015b60405180910390f35b34801561013457600080fd5b5060cc54610148906001600160a01b031681565b60405161011f9190611f67565b34801561016157600080fd5b5060c954610148906001600160a01b031681565b34801561018157600080fd5b50610195610190366004611c4d565b6103a4565b005b3480156101a357600080fd5b5060ca54610148906001600160a01b031681565b3480156101c357600080fd5b5060cb54610148906001600160a01b031681565b3480156101e357600080fd5b506101956101f2366004611a35565b6104c3565b34801561020357600080fd5b50610195610212366004611a35565b610516565b34801561022357600080fd5b5060975460ff16604051901515815260200161011f565b34801561024657600080fd5b50610195610255366004611a35565b610569565b34801561026657600080fd5b506101956105bc565b34801561027b57600080fd5b5061014873eeeeeeeeeeeeeeeeeeeeeeeeeeeeeeeeeeeeeeee81565b3480156102a357600080fd5b506101156102b2366004611b85565b60ce60209081526000928352604080842090915290825290205481565b3480156102db57600080fd5b506101956102ea366004611a35565b6105d0565b3480156102fb57600080fd5b50610148610623565b34801561031057600080fd5b5061019561031f366004611cd6565b610632565b34801561033057600080fd5b5061019561033f366004611bbd565b610a4e565b34801561035057600080fd5b5061019561035f366004611c0d565b610bb5565b34801561037057600080fd5b5061019561037f366004611a35565b610cb8565b34801561039057600080fd5b5061019561039f366004611cd6565b610d31565b6103ac610e10565b60cc546001600160a01b031633146104155760405162461bcd60e51b815260206004820152602160248201527f506f6c79676f6e436f6e6e6563746f724c6f6769633a206e6f74206163726f736044820152607360f81b60648201526084015b60405180910390fd5b6000808280602001905181019061042c9190611d37565b915091507ff457ed8068d0e1536c9c3ee16b7aa6f7f3558fd38686e45061863a066bf8aa0d818385604051610463939291906121f3565b60405180910390a16104a1826040518060400160405280601481526020017365786368616e6765466f724274634163726f737360601b815250610e6a565b156104b1576104b1858488610ec3565b50506104bd6001606555565b50505050565b6104cb6114f4565b806001600160a01b0381166104f35760405163d92e233d60e01b815260040160405180910390fd5b5060ca80546001600160a01b0319166001600160a01b0392909216919091179055565b61051e6114f4565b806001600160a01b0381166105465760405163d92e233d60e01b815260040160405180910390fd5b5060c980546001600160a01b0319166001600160a01b0392909216919091179055565b6105716114f4565b806001600160a01b0381166105995760405163d92e233d60e01b815260040160405180910390fd5b5060cc80546001600160a01b0319166001600160a01b0392909216919091179055565b6105c46114f4565b6105ce6000611553565b565b6105d86114f4565b806001600160a01b0381166106005760405163d92e233d60e01b815260040160405180910390fd5b5060cb80546001600160a01b0319166001600160a01b0392909216919091179055565b6033546001600160a01b031690565b61063a610e10565b6000806000806000806000808b80602001905181019061065a9190611a74565b9750975097509750975097509750975060006106788d8c8c8f6115a5565b90506000881180156106af57506001600160a01b03808216600090815260ce60209081526040808320938d16835292905220548811155b6106cb5760405162461bcd60e51b815260040161040c90612166565b6001600160a01b03808216600090815260ce60209081526040808320938d16835292905290812080548a9290610702908490612297565b9091555050604080516002808252606082018352600092602083019080368337019050509050888160008151811061074a57634e487b7160e01b600052603260045260246000fd5b602002602001018181525050868160018151811061077857634e487b7160e01b600052603260045260246000fd5b602002602001018181525050826000815181106107a557634e487b7160e01b600052603260045260246000fd5b602090810291909101015160ca5460405163095ea7b360e01b81526001600160a01b039283169263095ea7b3926107e3929116908d9060040161213a565b602060405180830381600087803b1580156107fd57600080fd5b505af1158015610811573d6000803e3d6000fd5b505050506040513d601f19601f820116820180604052508101906108359190611cb6565b5060ca546040516344dd6aa560e01b81526001600160a01b03909116906344dd6aa590610878908b908590600190899042908e908e908e906000906004016120be565b602060405180830381600087803b15801561089257600080fd5b505af11580156108a6573d6000803e3d6000fd5b505050506040513d601f19601f820116820180604052508101906108ca9190611e73565b5060c95460405163626885b560e11b81526000916001600160a01b03169063c4d10b6a906108fc908890600401612153565b60206040518083038186803b15801561091457600080fd5b505afa158015610928573d6000803e3d6000fd5b505050506040513d601f19601f8201168201806040525081019061094c9190611a58565b9050826001600160a01b03167f8fa5daae7a5c2fc114239650d841eda356c27403e56f9a5ca6f0e3f689286d758a8d8d8b8b87600160ca60009054906101000a90046001600160a01b03166001600160a01b031663930a60e88b6040518263ffffffff1660e01b81526004016109c29190611f67565b60206040518083038186803b1580156109da57600080fd5b505afa1580156109ee573d6000803e3d6000fd5b505050506040513d601f19601f82011682018060405250810190610a129190611e73565b610a1c9190612297565b8c604051610a31989796959493929190611fec565b60405180910390a250505050505050505050506104bd6001606555565b600054610100900460ff1615808015610a6e5750600054600160ff909116105b80610a885750303b158015610a88575060005460ff166001145b610aeb5760405162461bcd60e51b815260206004820152602e60248201527f496e697469616c697a61626c653a20636f6e747261637420697320616c72656160448201526d191e481a5b9a5d1a585b1a5e995960921b606482015260840161040c565b6000805460ff191660011790558015610b0e576000805461ff0019166101001790555b610b166116d4565b610b1e611703565b610b26611732565b60c980546001600160a01b038088166001600160a01b03199283161790925560ca805487841690831617905560cc80549286169290911691909117905560cd8290558015610bae576000805461ff0019169055604051600181527f7f26b83ff96e1f2b6a682f133852f6798a09c465da95921460cefb38474024989060200160405180910390a15b5050505050565b610bbd6114f4565b6001600160a01b03831673eeeeeeeeeeeeeeeeeeeeeeeeeeeeeeeeeeeeeeee1415610c38576040516001600160a01b038316908290600081818185875af1925050503d8060008114610c2b576040519150601f19603f3d011682016040523d82523d6000602084013e610c30565b606091505b505050505050565b60405163a9059cbb60e01b81526001600160a01b0384169063a9059cbb90610c66908590859060040161213a565b602060405180830381600087803b158015610c8057600080fd5b505af1158015610c94573d6000803e3d6000fd5b505050506040513d601f19601f820116820180604052508101906104bd9190611cb6565b610cc06114f4565b6001600160a01b038116610d255760405162461bcd60e51b815260206004820152602660248201527f4f776e61626c653a206e6577206f776e657220697320746865207a65726f206160448201526564647265737360d01b606482015260840161040c565b610d2e81611553565b50565b610d39610e10565b600080600086806020019051810190610d529190611b3d565b9250925092506000610d668887878a6115a5565b9050600083118015610d9d57506001600160a01b03808216600090815260ce60209081526040808320938816835292905220548311155b610db95760405162461bcd60e51b815260040161040c90612166565b610dc581858585611761565b6001600160a01b03808216600090815260ce6020908152604080832093881683529290529081208054859290610dfc908490612297565b90915550506001606555506104bd92505050565b60026065541415610e635760405162461bcd60e51b815260206004820152601f60248201527f5265656e7472616e637947756172643a207265656e7472616e742063616c6c00604482015260640161040c565b6002606555565b600081604051602001610e7d9190611f4b565b6040516020818303038152906040528051906020012083604051602001610ea49190611f4b565b6040516020818303038152906040528051906020012014905092915050565b610f0a6040805161010081018252600080825260208201819052918101829052606080820181905260808201529060a0820190815260200160608152602001600081525090565b82806020019051810190610f1e9190611d7b565b60e08b0181905260c08b0182905296985094965092949193909291886020810160408201606083016080840160a08501886005811115610f6e57634e487b7160e01b600052602160045260246000fd5b6005811115610f8d57634e487b7160e01b600052602160045260246000fd5b905297909752969095529590945250506001600160a01b03938416905250911690526040805160028082526060820183526000926020830190803683370190505090508481600081518110610ff257634e487b7160e01b600052603260045260246000fd5b60200260200101818152505081604001518160018151811061102457634e487b7160e01b600052603260045260246000fd5b602002602001018181525050816060015160008151811061105557634e487b7160e01b600052603260045260246000fd5b602090810291909101015160ca5460405163095ea7b360e01b81526001600160a01b039283169263095ea7b39261109392911690899060040161213a565b602060405180830381600087803b1580156110ad57600080fd5b505af11580156110c1573d6000803e3d6000fd5b505050506040513d601f19601f820116820180604052508101906110e59190611cb6565b5060ca5460208301516060840151608085015160a086015160c087015160e08801516040516344dd6aa560e01b81526001600160a01b03909716966344dd6aa5966111419690958a9560019592944294929391926004016120be565b602060405180830381600087803b15801561115b57600080fd5b505af192505050801561118b575060408051601f3d908101601f1916820190925261118891810190611e73565b60015b6112e75781606001516000815181106111b457634e487b7160e01b600052603260045260246000fd5b602090810291909101015160ca5460405163095ea7b360e01b81526001600160a01b039283169263095ea7b3926111f39291169060009060040161213a565b602060405180830381600087803b15801561120d57600080fd5b505af1158015611221573d6000803e3d6000fd5b505050506040513d601f19601f820116820180604052508101906112459190611cb6565b5081516001600160a01b03908116600090815260ce602090815260408083209387168352929052908120805487929061127f90849061227f565b909155505081516020830151608084015160a085015160608601516040516001600160a01b03909516947f2956c7201c919e433f35527008c29ca742eb150853d79f5cc6546e8c3bc046af946112da9490938a938d9361205f565b60405180910390a2610bae565b5081600001516001600160a01b03167f8fa5daae7a5c2fc114239650d841eda356c27403e56f9a5ca6f0e3f689286d758360200151858886608001518760a0015160c960009054906101000a90046001600160a01b03166001600160a01b031663c4d10b6a8a60c001516040518263ffffffff1660e01b815260040161136d9190612153565b60206040518083038186803b15801561138557600080fd5b505afa158015611399573d6000803e3d6000fd5b505050506040513d601f19601f820116820180604052508101906113bd9190611a58565b60ca5460c95460c08c015160405163626885b560e11b81526001936001600160a01b039081169363930a60e89391169163c4d10b6a916113ff91600401612153565b60206040518083038186803b15801561141757600080fd5b505afa15801561142b573d6000803e3d6000fd5b505050506040513d601f19601f8201168201806040525081019061144f9190611a58565b6040518263ffffffff1660e01b815260040161146b9190611f67565b60206040518083038186803b15801561148357600080fd5b505afa158015611497573d6000803e3d6000fd5b505050506040513d601f19601f820116820180604052508101906114bb9190611e73565b6114c59190612297565b8a606001516040516114de989796959493929190611fec565b60405180910390a25050505050565b6001606555565b336114fd610623565b6001600160a01b0316146105ce5760405162461bcd60e51b815260206004820181905260248201527f4f776e61626c653a2063616c6c6572206973206e6f7420746865206f776e6572604482015260640161040c565b603380546001600160a01b038381166001600160a01b0319831681179093556040519116919082907f8be0079c531659141344cd1fd0a4f28419497f9722a3daafe3b4186f6b6457e090600090a35050565b600080858051906020012090506000816040516020016115f091907b0ca2ba3432b932bab69029b4b3b732b21026b2b9b9b0b3b29d05199960211b8152601c810191909152603c0190565b60408051601f198184030181528282528051602091820120600080855291840180845281905260ff88169284019290925260608301899052608083018890529092509060019060a0016020604051602081039080840390855afa15801561165b573d6000803e3d6000fd5b5050604051601f1901519150506001600160a01b0381166116c95760405162461bcd60e51b815260206004820152602260248201527f506f6c79676f6e436f6e6e6563746f724c6f6769633a20496e76616c69642073604482015261696760f01b606482015260840161040c565b979650505050505050565b600054610100900460ff166116fb5760405162461bcd60e51b815260040161040c906121a8565b6105ce611865565b600054610100900460ff1661172a5760405162461bcd60e51b815260040161040c906121a8565b6105ce611895565b600054610100900460ff166117595760405162461bcd60e51b815260040161040c906121a8565b6105ce6118bc565b60cc5460405163095ea7b360e01b81526060916001600160a01b038087169263095ea7b392611796921690879060040161213a565b602060405180830381600087803b1580156117b057600080fd5b505af11580156117c4573d6000803e3d6000fd5b505050506040513d601f19601f820116820180604052508101906117e89190611cb6565b5060cc5460cd54604051631507d3c560e21b81526001600160a01b039092169163541f4f149161182c91899182918a918a918a9042908b9060001990600401611f7b565b600060405180830381600087803b15801561184657600080fd5b505af115801561185a573d6000803e3d6000fd5b505050505050505050565b600054610100900460ff1661188c5760405162461bcd60e51b815260040161040c906121a8565b6105ce33611553565b600054610100900460ff166114ed5760405162461bcd60e51b815260040161040c906121a8565b600054610100900460ff166118e35760405162461bcd60e51b815260040161040c906121a8565b6097805460ff19169055565b80516118fa81612306565b919050565b600082601f83011261190f578081fd5b815160206001600160401b0382111561192a5761192a6122f0565b8160051b611939828201612228565b838152828101908684018388018501891015611953578687fd5b8693505b8584101561197e57805161196a81612306565b835260019390930192918401918401611957565b50979650505050505050565b600082601f83011261199a578081fd5b81356119ad6119a882612258565b612228565b8181528460208386010111156119c1578283fd5b816020850160208301379081016020019190915292915050565b600082601f8301126119eb578081fd5b81516119f96119a882612258565b818152846020838601011115611a0d578283fd5b611a1e8260208301602087016122ae565b949350505050565b8051600681106118fa57600080fd5b600060208284031215611a46578081fd5b8135611a5181612306565b9392505050565b600060208284031215611a69578081fd5b8151611a5181612306565b600080600080600080600080610100898b031215611a90578384fd5b611a99896118ef565b975060208901519650611aae60408a016118ef565b95506060890151945060808901516001600160401b0380821115611ad0578586fd5b611adc8c838d016119db565b9550611aea60a08c01611a26565b945060c08b0151915080821115611aff578384fd5b611b0b8c838d016119db565b935060e08b0151915080821115611b20578283fd5b50611b2d8b828c016118ff565b9150509295985092959890939650565b600080600060608486031215611b51578283fd5b8351611b5c81612306565b809350506020840151915060408401518060070b8114611b7a578182fd5b809150509250925092565b60008060408385031215611b97578182fd5b8235611ba281612306565b91506020830135611bb281612306565b809150509250929050565b60008060008060808587031215611bd2578384fd5b8435611bdd81612306565b93506020850135611bed81612306565b92506040850135611bfd81612306565b9396929550929360600135925050565b600080600060608486031215611c21578081fd5b8335611c2c81612306565b92506020840135611c3c81612306565b929592945050506040919091013590565b60008060008060808587031215611c62578182fd5b8435611c6d81612306565b9350602085013592506040850135611c8481612306565b915060608501356001600160401b03811115611c9e578182fd5b611caa8782880161198a565b91505092959194509250565b600060208284031215611cc7578081fd5b81518015158114611a51578182fd5b60008060008060808587031215611ceb578182fd5b84356001600160401b03811115611d00578283fd5b611d0c8782880161198a565b945050602085013560ff81168114611d22578283fd5b93969395505050506040820135916060013590565b60008060408385031215611d49578182fd5b82516001600160401b03811115611d5e578283fd5b611d6a858286016119db565b925050602083015190509250929050565b6000806000806000806000806000806101408b8d031215611d9a578384fd5b8a516001600160401b0380821115611db0578586fd5b611dbc8e838f016119db565b9b5060208d01519a50611dd160408e016118ef565b9950611ddf60608e016118ef565b985060808d0151975060a08d0151915080821115611dfb578586fd5b611e078e838f016118ff565b965060c08d0151915080821115611e1c578586fd5b611e288e838f016119db565b9550611e3660e08e01611a26565b94506101008d0151915080821115611e4c578384fd5b50611e598d828e016119db565b9250506101208b015190509295989b9194979a5092959850565b600060208284031215611e84578081fd5b5051919050565b6000815180845260208085019450808401835b83811015611ec35781516001600160a01b031687529582019590820190600101611e9e565b509495945050505050565b6000815180845260208085019450808401835b83811015611ec357815187529582019590820190600101611ee1565b60008151808452611f158160208601602086016122ae565b601f01601f19169290920160200192915050565b60068110611f4757634e487b7160e01b600052602160045260246000fd5b9052565b60008251611f5d8184602087016122ae565b9190910192915050565b6001600160a01b0391909116815260200190565b6001600160a01b038a811682528981166020830152881660408201526060810187905260808101869052600785900b60a082015263ffffffff841660c082015261012060e08201819052600090611fd483820186611efd565b915050826101008301529a9950505050505050505050565b6001600160a01b038981168252888116602083015260408201889052610100606083018190526000916120218483018a611efd565b91506120306080850189611f29565b861660a084015260c0830185905282810360e08401526120508185611e8b565b9b9a5050505050505050505050565b6001600160a01b038781168252861660208201526040810185905260c06060820181905260009061209290830186611efd565b61209f6080840186611f29565b82810360a08401526120b18185611e8b565b9998505050505050505050565b6001600160a01b038a168152610120602082018190526000906120e38382018c611ece565b9050891515604084015282810360608401526120ff818a611e8b565b905087608084015282810360a08401526121198188611efd565b905061212860c0840187611f29565b82810360e0840152611fd48186611efd565b6001600160a01b03929092168252602082015260400190565b602081526000611a516020830184611efd565b60208082526022908201527f506f6c79676f6e436f6e6e6563746f724c6f6769633a206c6f772062616c616e604082015261636560f01b606082015260800190565b6020808252602b908201527f496e697469616c697a61626c653a20636f6e7472616374206973206e6f74206960408201526a6e697469616c697a696e6760a81b606082015260800190565b83815260606020820152600061220c6060830185611efd565b828103604084015261221e8185611efd565b9695505050505050565b604051601f8201601f191681016001600160401b0381118282101715612250576122506122f0565b604052919050565b60006001600160401b03821115612271576122716122f0565b50601f01601f191660200190565b60008219821115612292576122926122da565b500190565b6000828210156122a9576122a96122da565b500390565b60005b838110156122c95781810151838201526020016122b1565b838111156104bd5750506000910152565b634e487b7160e01b600052601160045260246000fd5b634e487b7160e01b600052604160045260246000fd5b6001600160a01b0381168114610d2e57600080fdfea2646970667358221220fe9c346b8d607a19c707013f6adf7016e23bd2926d4835cf479827daeb0406e264736f6c63430008040033",
  "devdoc": {
    "kind": "dev",
    "methods": {
      "emergencyWithdraw(address,address,uint256)": {
        "details": "Only owner can call this"
      },
      "owner()": {
        "details": "Returns the address of the current owner."
      },
      "paused()": {
        "details": "Returns true if the contract is paused, and false otherwise."
      },
      "renounceOwnership()": {
        "details": "Leaves the contract without owner. It will not be possible to call `onlyOwner` functions. Can only be called by the current owner. NOTE: Renouncing ownership will leave the contract without an owner, thereby disabling any functionality that is only available to the owner."
      },
      "retrySwapAndUnwrap(bytes,uint8,bytes32,bytes32)": {
        "details": "User signs a message for retrying its request",
        "params": {
          "_message": "The signed message",
          "_r": "Signature r",
          "_s": "Signature s",
          "_v": "Signature v"
        }
      },
      "transferOwnership(address)": {
        "details": "Transfers ownership of the contract to a new account (`newOwner`). Can only be called by the current owner."
      },
      "withdrawFundsToEth(bytes,uint8,bytes32,bytes32)": {
        "details": "User signs a message requesting for withdrawing a bid",
        "params": {
          "_message": "The signed message",
          "_r": "Signature r",
          "_s": "Signature s",
          "_v": "Signature v"
        }
      }
    },
    "version": 1
  },
  "userdoc": {
    "kind": "user",
    "methods": {
      "emergencyWithdraw(address,address,uint256)": {
        "notice": "Withdraws tokens in the emergency case"
      },
      "handleV3AcrossMessage(address,uint256,address,bytes)": {
        "notice": "Process requests coming from Ethereum (using Across V3)"
      },
      "retrySwapAndUnwrap(bytes,uint8,bytes32,bytes32)": {
        "notice": "Retry failed exchange and burn requests"
      },
      "setAcross(address)": {
        "notice": "Setter for AcrossV3"
      },
      "setBurnRouterProxy(address)": {
        "notice": "Setter for BurnRouterProxy"
      },
      "setLockersProxy(address)": {
        "notice": "Setter for LockersProxy"
      },
      "setSourceChainConnector(address)": {
        "notice": "Setter for SourceChainConnector"
      },
      "withdrawFundsToEth(bytes,uint8,bytes32,bytes32)": {
        "notice": "Withdraws user's bid"
      }
    },
    "version": 1
  },
  "storageLayout": {
    "storage": [
      {
        "astId": 326,
        "contract": "contracts/routers/PolyConnectorLogic.sol:PolyConnectorLogic",
        "label": "_initialized",
        "offset": 0,
        "slot": "0",
        "type": "t_uint8"
      },
      {
        "astId": 329,
        "contract": "contracts/routers/PolyConnectorLogic.sol:PolyConnectorLogic",
        "label": "_initializing",
        "offset": 1,
        "slot": "0",
        "type": "t_bool"
      },
      {
        "astId": 1797,
        "contract": "contracts/routers/PolyConnectorLogic.sol:PolyConnectorLogic",
        "label": "__gap",
        "offset": 0,
        "slot": "1",
        "type": "t_array(t_uint256)50_storage"
      },
      {
        "astId": 198,
        "contract": "contracts/routers/PolyConnectorLogic.sol:PolyConnectorLogic",
        "label": "_owner",
        "offset": 0,
        "slot": "51",
        "type": "t_address"
      },
      {
        "astId": 318,
        "contract": "contracts/routers/PolyConnectorLogic.sol:PolyConnectorLogic",
        "label": "__gap",
        "offset": 0,
        "slot": "52",
        "type": "t_array(t_uint256)49_storage"
      },
      {
        "astId": 631,
        "contract": "contracts/routers/PolyConnectorLogic.sol:PolyConnectorLogic",
        "label": "_status",
        "offset": 0,
        "slot": "101",
        "type": "t_uint256"
      },
      {
        "astId": 700,
        "contract": "contracts/routers/PolyConnectorLogic.sol:PolyConnectorLogic",
        "label": "__gap",
        "offset": 0,
        "slot": "102",
        "type": "t_array(t_uint256)49_storage"
      },
      {
        "astId": 510,
        "contract": "contracts/routers/PolyConnectorLogic.sol:PolyConnectorLogic",
        "label": "_paused",
        "offset": 0,
        "slot": "151",
        "type": "t_bool"
      },
      {
        "astId": 615,
        "contract": "contracts/routers/PolyConnectorLogic.sol:PolyConnectorLogic",
        "label": "__gap",
        "offset": 0,
        "slot": "152",
        "type": "t_array(t_uint256)49_storage"
      },
      {
        "astId": 23555,
        "contract": "contracts/routers/PolyConnectorLogic.sol:PolyConnectorLogic",
        "label": "lockersProxy",
        "offset": 0,
        "slot": "201",
        "type": "t_address"
      },
      {
        "astId": 23558,
        "contract": "contracts/routers/PolyConnectorLogic.sol:PolyConnectorLogic",
        "label": "burnRouterProxy",
        "offset": 0,
        "slot": "202",
        "type": "t_address"
      },
      {
        "astId": 23561,
        "contract": "contracts/routers/PolyConnectorLogic.sol:PolyConnectorLogic",
        "label": "sourceChainConnector",
        "offset": 0,
        "slot": "203",
        "type": "t_address"
      },
      {
        "astId": 23564,
        "contract": "contracts/routers/PolyConnectorLogic.sol:PolyConnectorLogic",
        "label": "across",
        "offset": 0,
        "slot": "204",
        "type": "t_address"
      },
      {
        "astId": 23567,
        "contract": "contracts/routers/PolyConnectorLogic.sol:PolyConnectorLogic",
        "label": "sourceChainId",
        "offset": 0,
        "slot": "205",
        "type": "t_uint256"
      },
      {
        "astId": 23574,
        "contract": "contracts/routers/PolyConnectorLogic.sol:PolyConnectorLogic",
        "label": "failedReqs",
        "offset": 0,
        "slot": "206",
        "type": "t_mapping(t_address,t_mapping(t_address,t_uint256))"
      }
    ],
    "types": {
      "t_address": {
        "encoding": "inplace",
        "label": "address",
        "numberOfBytes": "20"
      },
      "t_array(t_uint256)49_storage": {
        "base": "t_uint256",
        "encoding": "inplace",
        "label": "uint256[49]",
        "numberOfBytes": "1568"
      },
      "t_array(t_uint256)50_storage": {
        "base": "t_uint256",
        "encoding": "inplace",
        "label": "uint256[50]",
        "numberOfBytes": "1600"
      },
      "t_bool": {
        "encoding": "inplace",
        "label": "bool",
        "numberOfBytes": "1"
      },
      "t_mapping(t_address,t_mapping(t_address,t_uint256))": {
        "encoding": "mapping",
        "key": "t_address",
        "label": "mapping(address => mapping(address => uint256))",
        "numberOfBytes": "32",
        "value": "t_mapping(t_address,t_uint256)"
      },
      "t_mapping(t_address,t_uint256)": {
        "encoding": "mapping",
        "key": "t_address",
        "label": "mapping(address => uint256)",
        "numberOfBytes": "32",
        "value": "t_uint256"
      },
      "t_uint256": {
        "encoding": "inplace",
        "label": "uint256",
        "numberOfBytes": "32"
      },
      "t_uint8": {
        "encoding": "inplace",
        "label": "uint8",
        "numberOfBytes": "1"
      }
    }
  }
}