{
  "address": "0x8f5e9BA7Aca3aB3129C80D47a5C1Ee74baFE0DA6",
  "abi": [
    {
      "inputs": [],
      "name": "ZeroAddress",
      "type": "error"
    },
    {
      "anonymous": false,
      "inputs": [
        {
          "indexed": false,
          "internalType": "address",
          "name": "oldAcross",
          "type": "address"
        },
        {
          "indexed": false,
          "internalType": "address",
          "name": "newAcross",
          "type": "address"
        }
      ],
      "name": "AcrossUpdated",
      "type": "event"
    },
    {
      "anonymous": false,
      "inputs": [
        {
          "indexed": false,
          "internalType": "address",
          "name": "oldBurnRouter",
          "type": "address"
        },
        {
          "indexed": false,
          "internalType": "address",
          "name": "newBurnRouter",
          "type": "address"
        }
      ],
      "name": "BurnRouterUpdated",
      "type": "event"
    },
    {
      "anonymous": false,
      "inputs": [
        {
          "indexed": false,
          "internalType": "address",
          "name": "oldEthConnector",
          "type": "address"
        },
        {
          "indexed": false,
          "internalType": "address",
          "name": "newEthConnector",
          "type": "address"
        }
      ],
      "name": "EthConnectorUpdated",
      "type": "event"
    },
    {
      "anonymous": false,
      "inputs": [
        {
          "indexed": false,
          "internalType": "address",
          "name": "exchangeConnector",
          "type": "address"
        },
        {
          "indexed": false,
          "internalType": "address",
          "name": "inputToken",
          "type": "address"
        },
        {
          "indexed": false,
          "internalType": "uint256",
          "name": "inputAmount",
          "type": "uint256"
        },
        {
          "indexed": true,
          "internalType": "address",
          "name": "userTargetAddress",
          "type": "address"
        },
        {
          "indexed": false,
          "internalType": "bytes",
          "name": "userScript",
          "type": "bytes"
        },
        {
          "indexed": false,
          "internalType": "enum ScriptTypes",
          "name": "scriptType",
          "type": "uint8"
        },
        {
          "indexed": false,
          "internalType": "address[]",
          "name": "path",
          "type": "address[]"
        }
      ],
      "name": "FailedBurn",
      "type": "event"
    },
    {
      "anonymous": false,
      "inputs": [
        {
          "indexed": false,
          "internalType": "uint8",
          "name": "version",
          "type": "uint8"
        }
      ],
      "name": "Initialized",
      "type": "event"
    },
    {
      "anonymous": false,
      "inputs": [
        {
          "indexed": false,
          "internalType": "address",
          "name": "oldLockersProxy",
          "type": "address"
        },
        {
          "indexed": false,
          "internalType": "address",
          "name": "newLockersProxy",
          "type": "address"
        }
      ],
      "name": "LockersProxyUpdated",
      "type": "event"
    },
    {
      "anonymous": false,
      "inputs": [
        {
          "indexed": false,
          "internalType": "uint256",
          "name": "uniqueCounter",
          "type": "uint256"
        },
        {
          "indexed": false,
          "internalType": "string",
          "name": "functionName",
          "type": "string"
        },
        {
          "indexed": false,
          "internalType": "bytes",
          "name": "data",
          "type": "bytes"
        }
      ],
      "name": "MsgReceived",
      "type": "event"
    },
    {
      "anonymous": false,
      "inputs": [
        {
          "indexed": false,
          "internalType": "address",
          "name": "exchangeConnector",
          "type": "address"
        },
        {
          "indexed": false,
          "internalType": "address",
          "name": "inputToken",
          "type": "address"
        },
        {
          "indexed": false,
          "internalType": "uint256",
          "name": "inputAmount",
          "type": "uint256"
        },
        {
          "indexed": true,
          "internalType": "address",
          "name": "userTargetAddress",
          "type": "address"
        },
        {
          "indexed": false,
          "internalType": "bytes",
          "name": "userScript",
          "type": "bytes"
        },
        {
          "indexed": false,
          "internalType": "enum ScriptTypes",
          "name": "scriptType",
          "type": "uint8"
        },
        {
          "indexed": false,
          "internalType": "address",
          "name": "lockerTargetAddress",
          "type": "address"
        },
        {
          "indexed": false,
          "internalType": "uint256",
          "name": "requestIdOfLocker",
          "type": "uint256"
        },
        {
          "indexed": false,
          "internalType": "address[]",
          "name": "path",
          "type": "address[]"
        }
      ],
      "name": "NewBurn",
      "type": "event"
    },
    {
      "anonymous": false,
      "inputs": [
        {
          "indexed": true,
          "internalType": "address",
          "name": "previousOwner",
          "type": "address"
        },
        {
          "indexed": true,
          "internalType": "address",
          "name": "newOwner",
          "type": "address"
        }
      ],
      "name": "OwnershipTransferred",
      "type": "event"
    },
    {
      "anonymous": false,
      "inputs": [
        {
          "indexed": false,
          "internalType": "address",
          "name": "account",
          "type": "address"
        }
      ],
      "name": "Paused",
      "type": "event"
    },
    {
      "anonymous": false,
      "inputs": [
        {
          "indexed": false,
          "internalType": "address",
          "name": "account",
          "type": "address"
        }
      ],
      "name": "Unpaused",
      "type": "event"
    },
    {
      "inputs": [],
      "name": "ETH_ADDR",
      "outputs": [
        {
          "internalType": "address",
          "name": "",
          "type": "address"
        }
      ],
      "stateMutability": "view",
      "type": "function"
    },
    {
      "inputs": [],
      "name": "across",
      "outputs": [
        {
          "internalType": "address",
          "name": "",
          "type": "address"
        }
      ],
      "stateMutability": "view",
      "type": "function"
    },
    {
      "inputs": [],
      "name": "acrossV3",
      "outputs": [
        {
          "internalType": "address",
          "name": "",
          "type": "address"
        }
      ],
      "stateMutability": "view",
      "type": "function"
    },
    {
      "inputs": [],
      "name": "burnRouterProxy",
      "outputs": [
        {
          "internalType": "address",
          "name": "",
          "type": "address"
        }
      ],
      "stateMutability": "view",
      "type": "function"
    },
    {
      "inputs": [
        {
          "internalType": "address",
          "name": "_token",
          "type": "address"
        },
        {
          "internalType": "address",
          "name": "_to",
          "type": "address"
        },
        {
          "internalType": "uint256",
          "name": "_amount",
          "type": "uint256"
        }
      ],
      "name": "emergencyWithdraw",
      "outputs": [],
      "stateMutability": "nonpayable",
      "type": "function"
    },
    {
      "inputs": [],
      "name": "ethConnectorProxy",
      "outputs": [
        {
          "internalType": "address",
          "name": "",
          "type": "address"
        }
      ],
      "stateMutability": "view",
      "type": "function"
    },
    {
      "inputs": [
        {
          "internalType": "address",
          "name": "",
          "type": "address"
        },
        {
          "internalType": "address",
          "name": "",
          "type": "address"
        }
      ],
      "name": "failedReqs",
      "outputs": [
        {
          "internalType": "uint256",
          "name": "",
          "type": "uint256"
        }
      ],
      "stateMutability": "view",
      "type": "function"
    },
    {
      "inputs": [
        {
          "internalType": "address",
          "name": "_tokenSent",
          "type": "address"
        },
        {
          "internalType": "uint256",
          "name": "_amount",
          "type": "uint256"
        },
        {
          "internalType": "bool",
          "name": "_fillCompleted",
          "type": "bool"
        },
        {
          "internalType": "address",
          "name": "_relayer",
          "type": "address"
        },
        {
          "internalType": "bytes",
          "name": "_message",
          "type": "bytes"
        }
      ],
      "name": "handleAcrossMessage",
      "outputs": [],
      "stateMutability": "nonpayable",
      "type": "function"
    },
    {
      "inputs": [
        {
          "internalType": "address",
          "name": "_tokenSent",
          "type": "address"
        },
        {
          "internalType": "uint256",
          "name": "_amount",
          "type": "uint256"
        },
        {
          "internalType": "address",
          "name": "_relayer",
          "type": "address"
        },
        {
          "internalType": "bytes",
          "name": "_message",
          "type": "bytes"
        }
      ],
      "name": "handleV3AcrossMessage",
      "outputs": [],
      "stateMutability": "nonpayable",
      "type": "function"
    },
    {
      "inputs": [
        {
          "internalType": "address",
          "name": "_lockersProxy",
          "type": "address"
        },
        {
          "internalType": "address",
          "name": "_burnRouterProxy",
          "type": "address"
        },
        {
          "internalType": "address",
          "name": "_across",
          "type": "address"
        },
        {
          "internalType": "address",
          "name": "_acrossV3",
          "type": "address"
        },
        {
          "internalType": "uint256",
          "name": "_sourceChainId",
          "type": "uint256"
        }
      ],
      "name": "initialize",
      "outputs": [],
      "stateMutability": "nonpayable",
      "type": "function"
    },
    {
      "inputs": [],
      "name": "lockersProxy",
      "outputs": [
        {
          "internalType": "address",
          "name": "",
          "type": "address"
        }
      ],
      "stateMutability": "view",
      "type": "function"
    },
    {
      "inputs": [],
      "name": "owner",
      "outputs": [
        {
          "internalType": "address",
          "name": "",
          "type": "address"
        }
      ],
      "stateMutability": "view",
      "type": "function"
    },
    {
      "inputs": [],
      "name": "paused",
      "outputs": [
        {
          "internalType": "bool",
          "name": "",
          "type": "bool"
        }
      ],
      "stateMutability": "view",
      "type": "function"
    },
    {
      "inputs": [],
      "name": "renounceOwnership",
      "outputs": [],
      "stateMutability": "nonpayable",
      "type": "function"
    },
    {
      "inputs": [
        {
          "internalType": "bytes",
          "name": "_message",
          "type": "bytes"
        },
        {
          "internalType": "uint8",
          "name": "_v",
          "type": "uint8"
        },
        {
          "internalType": "bytes32",
          "name": "_r",
          "type": "bytes32"
        },
        {
          "internalType": "bytes32",
          "name": "_s",
          "type": "bytes32"
        }
      ],
      "name": "retrySwapAndUnwrap",
      "outputs": [],
      "stateMutability": "nonpayable",
      "type": "function"
    },
    {
      "inputs": [
        {
          "internalType": "address",
          "name": "_across",
          "type": "address"
        }
      ],
      "name": "setAcross",
      "outputs": [],
      "stateMutability": "nonpayable",
      "type": "function"
    },
    {
      "inputs": [
        {
          "internalType": "address",
          "name": "_acrossV3",
          "type": "address"
        }
      ],
      "name": "setAcrossV3",
      "outputs": [],
      "stateMutability": "nonpayable",
      "type": "function"
    },
    {
      "inputs": [
        {
          "internalType": "address",
          "name": "_burnRouterProxy",
          "type": "address"
        }
      ],
      "name": "setBurnRouterProxy",
      "outputs": [],
      "stateMutability": "nonpayable",
      "type": "function"
    },
    {
      "inputs": [
        {
          "internalType": "address",
          "name": "_ethConnectorProxy",
          "type": "address"
        }
      ],
      "name": "setEthConnectorProxy",
      "outputs": [],
      "stateMutability": "nonpayable",
      "type": "function"
    },
    {
      "inputs": [
        {
          "internalType": "address",
          "name": "_lockersProxy",
          "type": "address"
        }
      ],
      "name": "setLockersProxy",
      "outputs": [],
      "stateMutability": "nonpayable",
      "type": "function"
    },
    {
      "inputs": [],
      "name": "sourceChainId",
      "outputs": [
        {
          "internalType": "uint256",
          "name": "",
          "type": "uint256"
        }
      ],
      "stateMutability": "view",
      "type": "function"
    },
    {
      "inputs": [
        {
          "internalType": "address",
          "name": "newOwner",
          "type": "address"
        }
      ],
      "name": "transferOwnership",
      "outputs": [],
      "stateMutability": "nonpayable",
      "type": "function"
    },
    {
      "inputs": [
        {
          "internalType": "bytes",
          "name": "_message",
          "type": "bytes"
        },
        {
          "internalType": "uint8",
          "name": "_v",
          "type": "uint8"
        },
        {
          "internalType": "bytes32",
          "name": "_r",
          "type": "bytes32"
        },
        {
          "internalType": "bytes32",
          "name": "_s",
          "type": "bytes32"
        }
      ],
      "name": "withdrawFundsToEth",
      "outputs": [],
      "stateMutability": "nonpayable",
      "type": "function"
    }
  ],
  "transactionHash": "0x25fc518a9968810546acfb85c8ef1dfa8b05f4b889cb5970b7c70219ffd3b3d4",
  "args": [],
  "numDeployments": 1,
  "solcInputHash": "3849a4863b3f479a54c4c9d266f63097",
  "bytecode": "0x608060405234801561001057600080fd5b506124ba806100206000396000f3fe608060405234801561001057600080fd5b506004361061011d5760003560e01c80630ea1f938146101225780631544298e14610137578063292c1d9214610153578063296079f1146101735780633a5be8cb146101865780633f8c6ae0146101995780634d6e8f9d146101ac57806359841888146101bf5780635c975abb146101d257806361be10f2146101e8578063715018a6146101fb5780637753f47b146102035780637c5a4ccb1461021e57806384308271146102495780638da5cb5b1461025c5780639d28a64414610264578063b4af0a2714610277578063c67684eb1461028a578063cf2568541461029d578063e63ea408146102b0578063f2fde38b146102c3578063f374be5f146102d6578063f7013ef6146102e9575b600080fd5b610135610130366004611d8b565b6102fc565b005b61014060055481565b6040519081526020015b60405180910390f35b600354610166906001600160a01b031681565b60405161014a91906120b4565b600054610166906001600160a01b031681565b610135610194366004611d22565b61041c565b600154610166906001600160a01b031681565b6101356101ba366004611af7565b61052c565b6101356101cd366004611af7565b61057f565b609e5460ff16604051901515815260200161014a565b6101356101f6366004611af7565b6105d2565b610135610625565b61016673eeeeeeeeeeeeeeeeeeeeeeeeeeeeeeeeeeeeeeee81565b61014061022c366004611c47565b600660209081526000928352604080842090915290825290205481565b610135610257366004611af7565b610639565b61016661068c565b610135610272366004611af7565b61069b565b600254610166906001600160a01b031681565b600454610166906001600160a01b031681565b6101356102ab366004611e23565b6106ee565b6101356102be366004611ce2565b610b08565b6101356102d1366004611af7565b610c0b565b6101356102e4366004611e23565b610c84565b6101356102f7366004611c7f565b610d63565b610304610ed7565b6003546001600160a01b0316331461036d5760405162461bcd60e51b815260206004820152602160248201527f506f6c79676f6e436f6e6e6563746f724c6f6769633a206e6f74206163726f736044820152607360f81b60648201526084015b60405180910390fd5b600080828060200190518101906103849190611e84565b915091507ff457ed8068d0e1536c9c3ee16b7aa6f7f3558fd38686e45061863a066bf8aa0d8183856040516103bb9392919061234e565b60405180910390a16103f9826040518060400160405280601481526020017365786368616e6765466f724274634163726f737360601b815250610f31565b1561040957610409868489610f8a565b50506104156001606c55565b5050505050565b610424610ed7565b6004546001600160a01b0316331461047e5760405162461bcd60e51b815260206004820181905260248201527f506f6c79436f6e6e6563746f724c6f6769633a206e6f74206163726f737356336044820152606401610364565b600080828060200190518101906104959190611e84565b915091507ff457ed8068d0e1536c9c3ee16b7aa6f7f3558fd38686e45061863a066bf8aa0d8183856040516104cc9392919061234e565b60405180910390a161050a826040518060400160405280601481526020017365786368616e6765466f724274634163726f737360601b815250610f31565b1561051a5761051a858488610f8a565b50506105266001606c55565b50505050565b6105346115b7565b806001600160a01b03811661055c5760405163d92e233d60e01b815260040160405180910390fd5b50600180546001600160a01b0319166001600160a01b0392909216919091179055565b6105876115b7565b806001600160a01b0381166105af5760405163d92e233d60e01b815260040160405180910390fd5b50600080546001600160a01b0319166001600160a01b0392909216919091179055565b6105da6115b7565b806001600160a01b0381166106025760405163d92e233d60e01b815260040160405180910390fd5b50600380546001600160a01b0319166001600160a01b0392909216919091179055565b61062d6115b7565b6106376000611616565b565b6106416115b7565b806001600160a01b0381166106695760405163d92e233d60e01b815260040160405180910390fd5b50600480546001600160a01b0319166001600160a01b0392909216919091179055565b603a546001600160a01b031690565b6106a36115b7565b806001600160a01b0381166106cb5760405163d92e233d60e01b815260040160405180910390fd5b50600280546001600160a01b0319166001600160a01b0392909216919091179055565b6106f6610ed7565b6000806000806000806000808b8060200190518101906107169190611b36565b9750975097509750975097509750975060006107348d8c8c8f611668565b905060008811801561076b57506001600160a01b038082166000908152600660209081526040808320938d16835292905220548811155b6107875760405162461bcd60e51b8152600401610364906122c1565b6001600160a01b038082166000908152600660209081526040808320938d16835292905290812080548a92906107be9084906123f2565b9091555050604080516002808252606082018352600092602083019080368337019050509050888160008151811061080657634e487b7160e01b600052603260045260246000fd5b602002602001018181525050868160018151811061083457634e487b7160e01b600052603260045260246000fd5b6020026020010181815250508260008151811061086157634e487b7160e01b600052603260045260246000fd5b602090810291909101015160015460405163095ea7b360e01b81526001600160a01b039283169263095ea7b39261089f929116908d90600401612295565b602060405180830381600087803b1580156108b957600080fd5b505af11580156108cd573d6000803e3d6000fd5b505050506040513d601f19601f820116820180604052508101906108f19190611e07565b50600180546040516344dd6aa560e01b81526001600160a01b03909116916344dd6aa591610933918c91869190899042908e908e908e90600090600401612201565b602060405180830381600087803b15801561094d57600080fd5b505af1158015610961573d6000803e3d6000fd5b505050506040513d601f19601f820116820180604052508101906109859190611fc0565b506000805460405163626885b560e11b81526001600160a01b039091169063c4d10b6a906109b79088906004016122ae565b60206040518083038186803b1580156109cf57600080fd5b505afa1580156109e3573d6000803e3d6000fd5b505050506040513d601f19601f82011682018060405250810190610a079190611b1a565b9050826001600160a01b03167f8fa5daae7a5c2fc114239650d841eda356c27403e56f9a5ca6f0e3f689286d758a8d8d8b8b8760018060009054906101000a90046001600160a01b03166001600160a01b031663930a60e88b6040518263ffffffff1660e01b8152600401610a7c91906120b4565b60206040518083038186803b158015610a9457600080fd5b505afa158015610aa8573d6000803e3d6000fd5b505050506040513d601f19601f82011682018060405250810190610acc9190611fc0565b610ad691906123f2565b8c604051610aeb9897969594939291906120c8565b60405180910390a250505050505050505050506105266001606c55565b610b106115b7565b6001600160a01b03831673eeeeeeeeeeeeeeeeeeeeeeeeeeeeeeeeeeeeeeee1415610b8b576040516001600160a01b038316908290600081818185875af1925050503d8060008114610b7e576040519150601f19603f3d011682016040523d82523d6000602084013e610b83565b606091505b505050505050565b60405163a9059cbb60e01b81526001600160a01b0384169063a9059cbb90610bb99085908590600401612295565b602060405180830381600087803b158015610bd357600080fd5b505af1158015610be7573d6000803e3d6000fd5b505050506040513d601f19601f820116820180604052508101906105269190611e07565b610c136115b7565b6001600160a01b038116610c785760405162461bcd60e51b815260206004820152602660248201527f4f776e61626c653a206e6577206f776e657220697320746865207a65726f206160448201526564647265737360d01b6064820152608401610364565b610c8181611616565b50565b610c8c610ed7565b600080600086806020019051810190610ca59190611bff565b9250925092506000610cb98887878a611668565b9050600083118015610cf057506001600160a01b038082166000908152600660209081526040808320938816835292905220548311155b610d0c5760405162461bcd60e51b8152600401610364906122c1565b610d1881858585611797565b6001600160a01b03808216600090815260066020908152604080832093881683529290529081208054859290610d4f9084906123f2565b90915550506001606c555061052692505050565b600754610100900460ff1615808015610d835750600754600160ff909116105b80610d9d5750303b158015610d9d575060075460ff166001145b610e005760405162461bcd60e51b815260206004820152602e60248201527f496e697469616c697a61626c653a20636f6e747261637420697320616c72656160448201526d191e481a5b9a5d1a585b1a5e995960921b6064820152608401610364565b6007805460ff191660011790558015610e23576007805461ff0019166101001790555b610e2b61189a565b610e336118c9565b610e3b6118f8565b600080546001600160a01b038089166001600160a01b0319928316179092556001805488841690831617905560038054878416908316179055600480549286169290911691909117905560058290558015610b83576007805461ff0019169055604051600181527f7f26b83ff96e1f2b6a682f133852f6798a09c465da95921460cefb38474024989060200160405180910390a1505050505050565b6002606c541415610f2a5760405162461bcd60e51b815260206004820152601f60248201527f5265656e7472616e637947756172643a207265656e7472616e742063616c6c006044820152606401610364565b6002606c55565b600081604051602001610f449190612098565b6040516020818303038152906040528051906020012083604051602001610f6b9190612098565b6040516020818303038152906040528051906020012014905092915050565b610fd16040805161010081018252600080825260208201819052918101829052606080820181905260808201529060a0820190815260200160608152602001600081525090565b82806020019051810190610fe59190611ec8565b60e08b0181905260c08b0182905296985094965092949193909291886020810160408201606083016080840160a0850188600581111561103557634e487b7160e01b600052602160045260246000fd5b600581111561105457634e487b7160e01b600052602160045260246000fd5b905297909752969095529590945250506001600160a01b039384169052509116905260408051600280825260608201835260009260208301908036833701905050905084816000815181106110b957634e487b7160e01b600052603260045260246000fd5b6020026020010181815250508160400151816001815181106110eb57634e487b7160e01b600052603260045260246000fd5b602002602001018181525050816060015160008151811061111c57634e487b7160e01b600052603260045260246000fd5b602090810291909101015160015460405163095ea7b360e01b81526001600160a01b039283169263095ea7b39261115a929116908990600401612295565b602060405180830381600087803b15801561117457600080fd5b505af1158015611188573d6000803e3d6000fd5b505050506040513d601f19601f820116820180604052508101906111ac9190611e07565b506001805460208401516060850151608086015160a087015160c088015160e08901516040516344dd6aa560e01b81526001600160a01b03909716976344dd6aa59761120897968b969295909442949192909190600401612201565b602060405180830381600087803b15801561122257600080fd5b505af1925050508015611252575060408051601f3d908101601f1916820190925261124f91810190611fc0565b60015b6113ae57816060015160008151811061127b57634e487b7160e01b600052603260045260246000fd5b602090810291909101015160015460405163095ea7b360e01b81526001600160a01b039283169263095ea7b3926112ba92911690600090600401612295565b602060405180830381600087803b1580156112d457600080fd5b505af11580156112e8573d6000803e3d6000fd5b505050506040513d601f19601f8201168201806040525081019061130c9190611e07565b5081516001600160a01b039081166000908152600660209081526040808320938716835292905290812080548792906113469084906123da565b909155505081516020830151608084015160a085015160608601516040516001600160a01b03909516947f2956c7201c919e433f35527008c29ca742eb150853d79f5cc6546e8c3bc046af946113a19490938a938d9361213b565b60405180910390a2610415565b5081600001516001600160a01b03167f8fa5daae7a5c2fc114239650d841eda356c27403e56f9a5ca6f0e3f689286d758360200151858886608001518760a0015160008054906101000a90046001600160a01b03166001600160a01b031663c4d10b6a8a60c001516040518263ffffffff1660e01b815260040161143291906122ae565b60206040518083038186803b15801561144a57600080fd5b505afa15801561145e573d6000803e3d6000fd5b505050506040513d601f19601f820116820180604052508101906114829190611b1a565b6001805460005460c08d015160405163626885b560e11b81526001600160a01b039384169363930a60e893169163c4d10b6a916114c291906004016122ae565b60206040518083038186803b1580156114da57600080fd5b505afa1580156114ee573d6000803e3d6000fd5b505050506040513d601f19601f820116820180604052508101906115129190611b1a565b6040518263ffffffff1660e01b815260040161152e91906120b4565b60206040518083038186803b15801561154657600080fd5b505afa15801561155a573d6000803e3d6000fd5b505050506040513d601f19601f8201168201806040525081019061157e9190611fc0565b61158891906123f2565b8a606001516040516115a19897969594939291906120c8565b60405180910390a25050505050565b6001606c55565b336115c061068c565b6001600160a01b0316146106375760405162461bcd60e51b815260206004820181905260248201527f4f776e61626c653a2063616c6c6572206973206e6f7420746865206f776e65726044820152606401610364565b603a80546001600160a01b038381166001600160a01b0319831681179093556040519116919082907f8be0079c531659141344cd1fd0a4f28419497f9722a3daafe3b4186f6b6457e090600090a35050565b600080858051906020012090506000816040516020016116b391907b0ca2ba3432b932bab69029b4b3b732b21026b2b9b9b0b3b29d05199960211b8152601c810191909152603c0190565b60408051601f198184030181528282528051602091820120600080855291840180845281905260ff88169284019290925260608301899052608083018890529092509060019060a0016020604051602081039080840390855afa15801561171e573d6000803e3d6000fd5b5050604051601f1901519150506001600160a01b03811661178c5760405162461bcd60e51b815260206004820152602260248201527f506f6c79676f6e436f6e6e6563746f724c6f6769633a20496e76616c69642073604482015261696760f01b6064820152608401610364565b979650505050505050565b60035460405163095ea7b360e01b81526060916001600160a01b038087169263095ea7b3926117cc9216908790600401612295565b602060405180830381600087803b1580156117e657600080fd5b505af11580156117fa573d6000803e3d6000fd5b505050506040513d601f19601f8201168201806040525081019061181e9190611e07565b50600354600554604051631186ec3360e01b81526001600160a01b0390921691631186ec33916118619189918991899190899042908a906000199060040161219a565b600060405180830381600087803b15801561187b57600080fd5b505af115801561188f573d6000803e3d6000fd5b505050505050505050565b600754610100900460ff166118c15760405162461bcd60e51b815260040161036490612303565b610637611927565b600754610100900460ff166118f05760405162461bcd60e51b815260040161036490612303565b610637611957565b600754610100900460ff1661191f5760405162461bcd60e51b815260040161036490612303565b61063761197e565b600754610100900460ff1661194e5760405162461bcd60e51b815260040161036490612303565b61063733611616565b600754610100900460ff166115b05760405162461bcd60e51b815260040161036490612303565b600754610100900460ff166119a55760405162461bcd60e51b815260040161036490612303565b609e805460ff19169055565b80516119bc81612461565b919050565b600082601f8301126119d1578081fd5b815160206001600160401b038211156119ec576119ec61244b565b8160051b6119fb828201612383565b838152828101908684018388018501891015611a15578687fd5b8693505b85841015611a40578051611a2c81612461565b835260019390930192918401918401611a19565b50979650505050505050565b600082601f830112611a5c578081fd5b8135611a6f611a6a826123b3565b612383565b818152846020838601011115611a83578283fd5b816020850160208301379081016020019190915292915050565b600082601f830112611aad578081fd5b8151611abb611a6a826123b3565b818152846020838601011115611acf578283fd5b611ae0826020830160208701612409565b949350505050565b8051600681106119bc57600080fd5b600060208284031215611b08578081fd5b8135611b1381612461565b9392505050565b600060208284031215611b2b578081fd5b8151611b1381612461565b600080600080600080600080610100898b031215611b52578384fd5b611b5b896119b1565b975060208901519650611b7060408a016119b1565b95506060890151945060808901516001600160401b0380821115611b92578586fd5b611b9e8c838d01611a9d565b9550611bac60a08c01611ae8565b945060c08b0151915080821115611bc1578384fd5b611bcd8c838d01611a9d565b935060e08b0151915080821115611be2578283fd5b50611bef8b828c016119c1565b9150509295985092959890939650565b600080600060608486031215611c13578283fd5b8351611c1e81612461565b809350506020840151915060408401518060070b8114611c3c578182fd5b809150509250925092565b60008060408385031215611c59578182fd5b8235611c6481612461565b91506020830135611c7481612461565b809150509250929050565b600080600080600060a08688031215611c96578081fd5b8535611ca181612461565b94506020860135611cb181612461565b93506040860135611cc181612461565b92506060860135611cd181612461565b949793965091946080013592915050565b600080600060608486031215611cf6578081fd5b8335611d0181612461565b92506020840135611d1181612461565b929592945050506040919091013590565b60008060008060808587031215611d37578182fd5b8435611d4281612461565b9350602085013592506040850135611d5981612461565b915060608501356001600160401b03811115611d73578182fd5b611d7f87828801611a4c565b91505092959194509250565b600080600080600060a08688031215611da2578283fd5b8535611dad81612461565b9450602086013593506040860135611dc481612476565b92506060860135611dd481612461565b915060808601356001600160401b03811115611dee578182fd5b611dfa88828901611a4c565b9150509295509295909350565b600060208284031215611e18578081fd5b8151611b1381612476565b60008060008060808587031215611e38578182fd5b84356001600160401b03811115611e4d578283fd5b611e5987828801611a4c565b945050602085013560ff81168114611e6f578283fd5b93969395505050506040820135916060013590565b60008060408385031215611e96578182fd5b82516001600160401b03811115611eab578283fd5b611eb785828601611a9d565b925050602083015190509250929050565b6000806000806000806000806000806101408b8d031215611ee7578384fd5b8a516001600160401b0380821115611efd578586fd5b611f098e838f01611a9d565b9b5060208d01519a50611f1e60408e016119b1565b9950611f2c60608e016119b1565b985060808d0151975060a08d0151915080821115611f48578586fd5b611f548e838f016119c1565b965060c08d0151915080821115611f69578586fd5b611f758e838f01611a9d565b9550611f8360e08e01611ae8565b94506101008d0151915080821115611f99578384fd5b50611fa68d828e01611a9d565b9250506101208b015190509295989b9194979a5092959850565b600060208284031215611fd1578081fd5b5051919050565b6000815180845260208085019450808401835b838110156120105781516001600160a01b031687529582019590820190600101611feb565b509495945050505050565b6000815180845260208085019450808401835b838110156120105781518752958201959082019060010161202e565b60008151808452612062816020860160208601612409565b601f01601f19169290920160200192915050565b6006811061209457634e487b7160e01b600052602160045260246000fd5b9052565b600082516120aa818460208701612409565b9190910192915050565b6001600160a01b0391909116815260200190565b6001600160a01b038981168252888116602083015260408201889052610100606083018190526000916120fd8483018a61204a565b915061210c6080850189612076565b861660a084015260c0830185905282810360e084015261212c8185611fd8565b9b9a5050505050505050505050565b6001600160a01b038781168252861660208201526040810185905260c06060820181905260009061216e9083018661204a565b61217b6080840186612076565b82810360a084015261218d8185611fd8565b9998505050505050505050565b6001600160a01b038981168252881660208201526040810187905260608101869052600785900b608082015263ffffffff841660a082015261010060c082018190526000906121eb8382018661204a565b9150508260e08301529998505050505050505050565b6001600160a01b038a168152610120602082018190526000906122268382018c61201b565b905089151560408401528281036060840152612242818a611fd8565b905087608084015282810360a084015261225c818861204a565b905061226b60c0840187612076565b82810360e084015261227d818661204a565b915050826101008301529a9950505050505050505050565b6001600160a01b03929092168252602082015260400190565b602081526000611b13602083018461204a565b60208082526022908201527f506f6c79676f6e436f6e6e6563746f724c6f6769633a206c6f772062616c616e604082015261636560f01b606082015260800190565b6020808252602b908201527f496e697469616c697a61626c653a20636f6e7472616374206973206e6f74206960408201526a6e697469616c697a696e6760a81b606082015260800190565b838152606060208201526000612367606083018561204a565b8281036040840152612379818561204a565b9695505050505050565b604051601f8201601f191681016001600160401b03811182821017156123ab576123ab61244b565b604052919050565b60006001600160401b038211156123cc576123cc61244b565b50601f01601f191660200190565b600082198211156123ed576123ed612435565b500190565b60008282101561240457612404612435565b500390565b60005b8381101561242457818101518382015260200161240c565b838111156105265750506000910152565b634e487b7160e01b600052601160045260246000fd5b634e487b7160e01b600052604160045260246000fd5b6001600160a01b0381168114610c8157600080fd5b8015158114610c8157600080fdfea26469706673582212207f7f9a2eb0751be81fb2ad40af064664bbeca6a18dbe7df2f3fe65625005894e64736f6c63430008040033",
  "devdoc": {
    "kind": "dev",
    "methods": {
      "emergencyWithdraw(address,address,uint256)": {
        "details": "Only owner can call this"
      },
      "handleAcrossMessage(address,uint256,bool,address,bytes)": {
        "details": "Only Across can call this. Will be reverted if tokens have not been received fully yet.",
        "params": {
          "_amount": "Amount received by the contract (after reducing fees)",
          "_fillCompleted": "True if all tokens have been received",
          "_message": "that user sent (from Ethereum)",
          "_relayer": "Addres of relayer who submitted the request",
          "_tokenSent": "Address of exchanging token"
        }
      },
      "owner()": {
        "details": "Returns the address of the current owner."
      },
      "paused()": {
        "details": "Returns true if the contract is paused, and false otherwise."
      },
      "renounceOwnership()": {
        "details": "Leaves the contract without owner. It will not be possible to call `onlyOwner` functions anymore. Can only be called by the current owner. NOTE: Renouncing ownership will leave the contract without an owner, thereby removing any functionality that is only available to the owner."
      },
      "retrySwapAndUnwrap(bytes,uint8,bytes32,bytes32)": {
        "details": "User signs a message for retrying its request",
        "params": {
          "_message": "The signed message",
          "_r": "Signature r",
          "_s": "Signature s",
          "_v": "Signature v"
        }
      },
      "transferOwnership(address)": {
        "details": "Transfers ownership of the contract to a new account (`newOwner`). Can only be called by the current owner."
      },
      "withdrawFundsToEth(bytes,uint8,bytes32,bytes32)": {
        "details": "User signs a message requesting for withdrawing a bid",
        "params": {
          "_message": "The signed message",
          "_r": "Signature r",
          "_s": "Signature s",
          "_v": "Signature v"
        }
      }
    },
    "version": 1
  },
  "userdoc": {
    "kind": "user",
    "methods": {
      "emergencyWithdraw(address,address,uint256)": {
        "notice": "Withdraws tokens in the emergency case"
      },
      "handleAcrossMessage(address,uint256,bool,address,bytes)": {
        "notice": "Processes requests coming from Ethereum (using Across)"
      },
      "handleV3AcrossMessage(address,uint256,address,bytes)": {
        "notice": "Process requests coming from Ethereum (using Across V3)"
      },
      "retrySwapAndUnwrap(bytes,uint8,bytes32,bytes32)": {
        "notice": "Retry failed exchange and burn requests"
      },
      "setAcross(address)": {
        "notice": "Setter for Across"
      },
      "setAcrossV3(address)": {
        "notice": "Setter for AcrossV3"
      },
      "setBurnRouterProxy(address)": {
        "notice": "Setter for BurnRouterProxy"
      },
      "setEthConnectorProxy(address)": {
        "notice": "Setter for EthConnectorProxy"
      },
      "setLockersProxy(address)": {
        "notice": "Setter for LockersProxy"
      },
      "withdrawFundsToEth(bytes,uint8,bytes32,bytes32)": {
        "notice": "Withdraws user's bid"
      }
    },
    "version": 1
  },
  "storageLayout": {
    "storage": [
      {
        "astId": 17914,
        "contract": "contracts/routers/PolyConnectorLogic.sol:PolyConnectorLogic",
        "label": "lockersProxy",
        "offset": 0,
        "slot": "0",
        "type": "t_address"
      },
      {
        "astId": 17916,
        "contract": "contracts/routers/PolyConnectorLogic.sol:PolyConnectorLogic",
        "label": "burnRouterProxy",
        "offset": 0,
        "slot": "1",
        "type": "t_address"
      },
      {
        "astId": 17918,
        "contract": "contracts/routers/PolyConnectorLogic.sol:PolyConnectorLogic",
        "label": "ethConnectorProxy",
        "offset": 0,
        "slot": "2",
        "type": "t_address"
      },
      {
        "astId": 17920,
        "contract": "contracts/routers/PolyConnectorLogic.sol:PolyConnectorLogic",
        "label": "across",
        "offset": 0,
        "slot": "3",
        "type": "t_address"
      },
      {
        "astId": 17922,
        "contract": "contracts/routers/PolyConnectorLogic.sol:PolyConnectorLogic",
        "label": "acrossV3",
        "offset": 0,
        "slot": "4",
        "type": "t_address"
      },
      {
        "astId": 17924,
        "contract": "contracts/routers/PolyConnectorLogic.sol:PolyConnectorLogic",
        "label": "sourceChainId",
        "offset": 0,
        "slot": "5",
        "type": "t_uint256"
      },
      {
        "astId": 17930,
        "contract": "contracts/routers/PolyConnectorLogic.sol:PolyConnectorLogic",
        "label": "failedReqs",
        "offset": 0,
        "slot": "6",
        "type": "t_mapping(t_address,t_mapping(t_address,t_uint256))"
      },
      {
        "astId": 396,
        "contract": "contracts/routers/PolyConnectorLogic.sol:PolyConnectorLogic",
        "label": "_initialized",
        "offset": 0,
        "slot": "7",
        "type": "t_uint8"
      },
      {
        "astId": 399,
        "contract": "contracts/routers/PolyConnectorLogic.sol:PolyConnectorLogic",
        "label": "_initializing",
        "offset": 1,
        "slot": "7",
        "type": "t_bool"
      },
      {
        "astId": 1161,
        "contract": "contracts/routers/PolyConnectorLogic.sol:PolyConnectorLogic",
        "label": "__gap",
        "offset": 0,
        "slot": "8",
        "type": "t_array(t_uint256)50_storage"
      },
      {
        "astId": 268,
        "contract": "contracts/routers/PolyConnectorLogic.sol:PolyConnectorLogic",
        "label": "_owner",
        "offset": 0,
        "slot": "58",
        "type": "t_address"
      },
      {
        "astId": 388,
        "contract": "contracts/routers/PolyConnectorLogic.sol:PolyConnectorLogic",
        "label": "__gap",
        "offset": 0,
        "slot": "59",
        "type": "t_array(t_uint256)49_storage"
      },
      {
        "astId": 699,
        "contract": "contracts/routers/PolyConnectorLogic.sol:PolyConnectorLogic",
        "label": "_status",
        "offset": 0,
        "slot": "108",
        "type": "t_uint256"
      },
      {
        "astId": 757,
        "contract": "contracts/routers/PolyConnectorLogic.sol:PolyConnectorLogic",
        "label": "__gap",
        "offset": 0,
        "slot": "109",
        "type": "t_array(t_uint256)49_storage"
      },
      {
        "astId": 579,
        "contract": "contracts/routers/PolyConnectorLogic.sol:PolyConnectorLogic",
        "label": "_paused",
        "offset": 0,
        "slot": "158",
        "type": "t_bool"
      },
      {
        "astId": 684,
        "contract": "contracts/routers/PolyConnectorLogic.sol:PolyConnectorLogic",
        "label": "__gap",
        "offset": 0,
        "slot": "159",
        "type": "t_array(t_uint256)49_storage"
      }
    ],
    "types": {
      "t_address": {
        "encoding": "inplace",
        "label": "address",
        "numberOfBytes": "20"
      },
      "t_array(t_uint256)49_storage": {
        "base": "t_uint256",
        "encoding": "inplace",
        "label": "uint256[49]",
        "numberOfBytes": "1568"
      },
      "t_array(t_uint256)50_storage": {
        "base": "t_uint256",
        "encoding": "inplace",
        "label": "uint256[50]",
        "numberOfBytes": "1600"
      },
      "t_bool": {
        "encoding": "inplace",
        "label": "bool",
        "numberOfBytes": "1"
      },
      "t_mapping(t_address,t_mapping(t_address,t_uint256))": {
        "encoding": "mapping",
        "key": "t_address",
        "label": "mapping(address => mapping(address => uint256))",
        "numberOfBytes": "32",
        "value": "t_mapping(t_address,t_uint256)"
      },
      "t_mapping(t_address,t_uint256)": {
        "encoding": "mapping",
        "key": "t_address",
        "label": "mapping(address => uint256)",
        "numberOfBytes": "32",
        "value": "t_uint256"
      },
      "t_uint256": {
        "encoding": "inplace",
        "label": "uint256",
        "numberOfBytes": "32"
      },
      "t_uint8": {
        "encoding": "inplace",
        "label": "uint8",
        "numberOfBytes": "1"
      }
    }
  }
}