{
  "address": "0x4Dc0109036b7d500dB30150A8f52744772256e25",
  "abi": [
    {
      "inputs": [
        {
          "internalType": "uint256",
          "name": "_acceptableDelay",
          "type": "uint256"
        },
        {
          "internalType": "address",
          "name": "_oracleNativeToken",
          "type": "address"
        }
      ],
      "stateMutability": "nonpayable",
      "type": "constructor"
    },
    {
      "anonymous": false,
      "inputs": [
        {
          "indexed": true,
          "internalType": "address",
          "name": "exchangeRouter",
          "type": "address"
        },
        {
          "indexed": true,
          "internalType": "address",
          "name": "exchangeConnector",
          "type": "address"
        }
      ],
      "name": "ExchangeConnectorAdded",
      "type": "event"
    },
    {
      "anonymous": false,
      "inputs": [
        {
          "indexed": true,
          "internalType": "address",
          "name": "exchangeRouter",
          "type": "address"
        }
      ],
      "name": "ExchangeConnectorRemoved",
      "type": "event"
    },
    {
      "anonymous": false,
      "inputs": [
        {
          "indexed": false,
          "internalType": "uint256",
          "name": "oldAcceptableDelay",
          "type": "uint256"
        },
        {
          "indexed": false,
          "internalType": "uint256",
          "name": "newAcceptableDelay",
          "type": "uint256"
        }
      ],
      "name": "NewAcceptableDelay",
      "type": "event"
    },
    {
      "anonymous": false,
      "inputs": [
        {
          "indexed": true,
          "internalType": "address",
          "name": "oldOracleNativeToken",
          "type": "address"
        },
        {
          "indexed": true,
          "internalType": "address",
          "name": "newOracleNativeToken",
          "type": "address"
        }
      ],
      "name": "NewOracleNativeToken",
      "type": "event"
    },
    {
      "anonymous": false,
      "inputs": [
        {
          "indexed": true,
          "internalType": "address",
          "name": "previousOwner",
          "type": "address"
        },
        {
          "indexed": true,
          "internalType": "address",
          "name": "newOwner",
          "type": "address"
        }
      ],
      "name": "OwnershipTransferred",
      "type": "event"
    },
    {
      "anonymous": false,
      "inputs": [
        {
          "indexed": true,
          "internalType": "address",
          "name": "_token",
          "type": "address"
        },
        {
          "indexed": true,
          "internalType": "address",
          "name": "_priceProxyAddress",
          "type": "address"
        }
      ],
      "name": "SetPriceProxy",
      "type": "event"
    },
    {
      "inputs": [
        {
          "internalType": "address",
          "name": "",
          "type": "address"
        }
      ],
      "name": "ChainlinkPriceProxy",
      "outputs": [
        {
          "internalType": "address",
          "name": "",
          "type": "address"
        }
      ],
      "stateMutability": "view",
      "type": "function"
    },
    {
      "inputs": [],
      "name": "NATIVE_TOKEN",
      "outputs": [
        {
          "internalType": "address",
          "name": "",
          "type": "address"
        }
      ],
      "stateMutability": "view",
      "type": "function"
    },
    {
      "inputs": [],
      "name": "acceptableDelay",
      "outputs": [
        {
          "internalType": "uint256",
          "name": "",
          "type": "uint256"
        }
      ],
      "stateMutability": "view",
      "type": "function"
    },
    {
      "inputs": [
        {
          "internalType": "address",
          "name": "_exchangeRouter",
          "type": "address"
        },
        {
          "internalType": "address",
          "name": "_exchangeConnector",
          "type": "address"
        }
      ],
      "name": "addExchangeConnector",
      "outputs": [],
      "stateMutability": "nonpayable",
      "type": "function"
    },
    {
      "inputs": [
        {
          "internalType": "uint256",
          "name": "_inputAmount",
          "type": "uint256"
        },
        {
          "internalType": "uint256",
          "name": "_inputDecimals",
          "type": "uint256"
        },
        {
          "internalType": "uint256",
          "name": "_outputDecimals",
          "type": "uint256"
        },
        {
          "internalType": "address",
          "name": "_inputToken",
          "type": "address"
        },
        {
          "internalType": "address",
          "name": "_outputToken",
          "type": "address"
        }
      ],
      "name": "equivalentOutputAmount",
      "outputs": [
        {
          "internalType": "uint256",
          "name": "_outputAmount",
          "type": "uint256"
        }
      ],
      "stateMutability": "view",
      "type": "function"
    },
    {
      "inputs": [
        {
          "internalType": "uint256",
          "name": "_inputAmount",
          "type": "uint256"
        },
        {
          "internalType": "uint256",
          "name": "_inputDecimals",
          "type": "uint256"
        },
        {
          "internalType": "uint256",
          "name": "_outputDecimals",
          "type": "uint256"
        },
        {
          "internalType": "address",
          "name": "_inputToken",
          "type": "address"
        },
        {
          "internalType": "address",
          "name": "_outputToken",
          "type": "address"
        }
      ],
      "name": "equivalentOutputAmountByAverage",
      "outputs": [
        {
          "internalType": "uint256",
          "name": "",
          "type": "uint256"
        }
      ],
      "stateMutability": "view",
      "type": "function"
    },
    {
      "inputs": [
        {
          "internalType": "address",
          "name": "_exchangeRouter",
          "type": "address"
        },
        {
          "internalType": "uint256",
          "name": "_inputAmount",
          "type": "uint256"
        },
        {
          "internalType": "address",
          "name": "_inputToken",
          "type": "address"
        },
        {
          "internalType": "address",
          "name": "_outputToken",
          "type": "address"
        }
      ],
      "name": "equivalentOutputAmountFromExchange",
      "outputs": [
        {
          "internalType": "uint256",
          "name": "",
          "type": "uint256"
        }
      ],
      "stateMutability": "view",
      "type": "function"
    },
    {
      "inputs": [
        {
          "internalType": "uint256",
          "name": "_inputAmount",
          "type": "uint256"
        },
        {
          "internalType": "uint256",
          "name": "_inputDecimals",
          "type": "uint256"
        },
        {
          "internalType": "uint256",
          "name": "_outputDecimals",
          "type": "uint256"
        },
        {
          "internalType": "address",
          "name": "_inputToken",
          "type": "address"
        },
        {
          "internalType": "address",
          "name": "_outputToken",
          "type": "address"
        }
      ],
      "name": "equivalentOutputAmountFromOracle",
      "outputs": [
        {
          "internalType": "uint256",
          "name": "_outputAmount",
          "type": "uint256"
        }
      ],
      "stateMutability": "view",
      "type": "function"
    },
    {
      "inputs": [
        {
          "internalType": "address",
          "name": "",
          "type": "address"
        }
      ],
      "name": "exchangeConnector",
      "outputs": [
        {
          "internalType": "address",
          "name": "",
          "type": "address"
        }
      ],
      "stateMutability": "view",
      "type": "function"
    },
    {
      "inputs": [
        {
          "internalType": "uint256",
          "name": "",
          "type": "uint256"
        }
      ],
      "name": "exchangeRoutersList",
      "outputs": [
        {
          "internalType": "address",
          "name": "",
          "type": "address"
        }
      ],
      "stateMutability": "view",
      "type": "function"
    },
    {
      "inputs": [],
      "name": "getExchangeRoutersListLength",
      "outputs": [
        {
          "internalType": "uint256",
          "name": "",
          "type": "uint256"
        }
      ],
      "stateMutability": "view",
      "type": "function"
    },
    {
      "inputs": [],
      "name": "oracleNativeToken",
      "outputs": [
        {
          "internalType": "address",
          "name": "",
          "type": "address"
        }
      ],
      "stateMutability": "view",
      "type": "function"
    },
    {
      "inputs": [],
      "name": "owner",
      "outputs": [
        {
          "internalType": "address",
          "name": "",
          "type": "address"
        }
      ],
      "stateMutability": "view",
      "type": "function"
    },
    {
      "inputs": [
        {
          "internalType": "uint256",
          "name": "_exchangeRouterIndex",
          "type": "uint256"
        }
      ],
      "name": "removeExchangeConnector",
      "outputs": [],
      "stateMutability": "nonpayable",
      "type": "function"
    },
    {
      "inputs": [],
      "name": "renounceOwnership",
      "outputs": [],
      "stateMutability": "nonpayable",
      "type": "function"
    },
    {
      "inputs": [
        {
          "internalType": "uint256",
          "name": "_acceptableDelay",
          "type": "uint256"
        }
      ],
      "name": "setAcceptableDelay",
      "outputs": [],
      "stateMutability": "nonpayable",
      "type": "function"
    },
    {
      "inputs": [
        {
          "internalType": "address",
          "name": "_oracleNativeToken",
          "type": "address"
        }
      ],
      "name": "setOracleNativeToken",
      "outputs": [],
      "stateMutability": "nonpayable",
      "type": "function"
    },
    {
      "inputs": [
        {
          "internalType": "address",
          "name": "_token",
          "type": "address"
        },
        {
          "internalType": "address",
          "name": "_priceProxyAddress",
          "type": "address"
        }
      ],
      "name": "setPriceProxy",
      "outputs": [],
      "stateMutability": "nonpayable",
      "type": "function"
    },
    {
      "inputs": [
        {
          "internalType": "address",
          "name": "newOwner",
          "type": "address"
        }
      ],
      "name": "transferOwnership",
      "outputs": [],
      "stateMutability": "nonpayable",
      "type": "function"
    }
  ],
  "transactionHash": "0xb03b5624222b34f69239c717861a9155bf89797c69d3762e1f0269d4b471540c",
  "args": [
    7200,
    "0x0ae690aad8663aab12a671a6a0d74242332de85f"
  ],
  "numDeployments": 1,
  "solcInputHash": "d58b1882bfd20cf9913ec7421b51f280",
  "bytecode": "0x60806040523480156200001157600080fd5b5060405162002005380380620020058339810160408190526200003491620001fa565b6200003f336200005d565b6200004a82620000ad565b620000558162000144565b505062000237565b600080546001600160a01b038381166001600160a01b0319831681178455604051919092169283917f8be0079c531659141344cd1fd0a4f28419497f9722a3daafe3b4186f6b6457e09190a35050565b60045460408051918252602082018390527f61fcc6fa9ba5b3ab5f72b919bc6324527ede6b5d73e12c63bbc4d4e0352e7002910160405180910390a1600081116200013f5760405162461bcd60e51b815260206004820152601860248201527f50726963654f7261636c653a207a65726f20616d6f756e74000000000000000060448201526064015b60405180910390fd5b600455565b806001600160a01b0381166200019d5760405162461bcd60e51b815260206004820152601960248201527f50726963654f7261636c653a207a65726f206164647265737300000000000000604482015260640162000136565b6005546040516001600160a01b038085169216907f4a6beeb37b9f482406bcaf6e918424d6a3d27c6e726f2934b56e75e086bd0a7990600090a350600580546001600160a01b0319166001600160a01b0392909216919091179055565b600080604083850312156200020d578182fd5b825160208401519092506001600160a01b03811681146200022c578182fd5b809150509250929050565b611dbe80620002476000396000f3fe608060405234801561001057600080fd5b50600436106101515760003560e01c8063862efd4b116100cd578063e70f330311610081578063f2fde38b11610066578063f2fde38b146102aa578063f4fe5e6f146102bd578063fed5a019146102c557610151565b8063e70f330314610284578063f2e0b6a51461029757610151565b8063ab440484116100b2578063ab44048414610191578063d86faec714610248578063de03d10d1461027157610151565b8063862efd4b1461022e5780638da5cb5b1461023757610151565b806331f7d964116101245780636fbd0657116101095780636fbd065714610200578063715018a61461021357806385c443761461021b57610151565b806331f7d964146101b75780634205d68f146101d757610151565b806304c9554414610156578063092307da1461016b57806316fac92a146101915780631d4a7b21146101a4575b600080fd5b610169610164366004611980565b6102d8565b005b61017e6101793660046119f7565b610343565b6040519081526020015b60405180910390f35b61017e61019f366004611a92565b610483565b6101696101b2366004611a7a565b6105c3565b6101bf600181565b6040516001600160a01b039091168152602001610188565b6101bf6101e5366004611980565b6001602052600090815260409020546001600160a01b031681565b6005546101bf906001600160a01b031681565b610169610626565b6101696102293660046119bf565b610682565b61017e60045481565b6000546001600160a01b03166101bf565b6101bf610256366004611980565b6002602052600090815260409020546001600160a01b031681565b61016961027f366004611a7a565b610787565b6101bf610292366004611a7a565b6108eb565b6101696102a53660046119bf565b610915565b6101696102b8366004611980565b610b39565b60035461017e565b61017e6102d3366004611a92565b610c18565b6000546001600160a01b031633146103375760405162461bcd60e51b815260206004820181905260248201527f4f776e61626c653a2063616c6c6572206973206e6f7420746865206f776e657260448201526064015b60405180910390fd5b61034081610e52565b50565b6000826001600160a01b0381166103985760405162461bcd60e51b815260206004820152601960248201527850726963654f7261636c653a207a65726f206164647265737360381b604482015260640161032e565b826001600160a01b0381166103eb5760405162461bcd60e51b815260206004820152601960248201527850726963654f7261636c653a207a65726f206164647265737360381b604482015260640161032e565b6000806103fa89898989610f02565b90925090506001821515146104775760405162461bcd60e51b815260206004820152602c60248201527f50726963654f7261636c653a205061697220646f6573206e6f7420657869737460448201527f206f6e2065786368616e67650000000000000000000000000000000000000000606482015260840161032e565b98975050505050505050565b6000826001600160a01b0381166104d85760405162461bcd60e51b815260206004820152601960248201527850726963654f7261636c653a207a65726f206164647265737360381b604482015260640161032e565b826001600160a01b03811661052b5760405162461bcd60e51b815260206004820152601960248201527850726963654f7261636c653a207a65726f206164647265737360381b604482015260640161032e565b600061053a89898989896111e1565b50945090506001811515146105b75760405162461bcd60e51b815260206004820152602b60248201527f50726963654f7261636c653a206f7261636c65206e6f74206578697374206f7260448201527f20757020746f2064617465000000000000000000000000000000000000000000606482015260840161032e565b50505095945050505050565b6000546001600160a01b0316331461061d5760405162461bcd60e51b815260206004820181905260248201527f4f776e61626c653a2063616c6c6572206973206e6f7420746865206f776e6572604482015260640161032e565b610340816116d4565b6000546001600160a01b031633146106805760405162461bcd60e51b815260206004820181905260248201527f4f776e61626c653a2063616c6c6572206973206e6f7420746865206f776e6572604482015260640161032e565b565b816001600160a01b0381166106d55760405162461bcd60e51b815260206004820152601960248201527850726963654f7261636c653a207a65726f206164647265737360381b604482015260640161032e565b6000546001600160a01b0316331461072f5760405162461bcd60e51b815260206004820181905260248201527f4f776e61626c653a2063616c6c6572206973206e6f7420746865206f776e6572604482015260640161032e565b6001600160a01b0383811660008181526001602052604080822080546001600160a01b0319169487169485179055517f7a94f0ad15b775c1f9cbf924619ec6379ccf1230a329c8bb3243b48f495d88449190a3505050565b6000546001600160a01b031633146107e15760405162461bcd60e51b815260206004820181905260248201527f4f776e61626c653a2063616c6c6572206973206e6f7420746865206f776e6572604482015260640161032e565b60035481106108585760405162461bcd60e51b815260206004820152602260248201527f50726963654f7261636c653a20496e646578206973206f7574206f6620626f7560448201527f6e64000000000000000000000000000000000000000000000000000000000000606482015260840161032e565b60006003828154811061087b57634e487b7160e01b600052603260045260246000fd5b6000918252602090912001546001600160a01b0316905061089b82611765565b6001600160a01b03811660008181526002602052604080822080546001600160a01b0319169055517fd4c309ca8e170bf136bae67942030e0ac2e3992e9ea36936196c38be6d67a47d9190a25050565b600381815481106108fb57600080fd5b6000918252602090912001546001600160a01b0316905081565b816001600160a01b0381166109685760405162461bcd60e51b815260206004820152601960248201527850726963654f7261636c653a207a65726f206164647265737360381b604482015260640161032e565b816001600160a01b0381166109bb5760405162461bcd60e51b815260206004820152601960248201527850726963654f7261636c653a207a65726f206164647265737360381b604482015260640161032e565b6000546001600160a01b03163314610a155760405162461bcd60e51b815260206004820181905260248201527f4f776e61626c653a2063616c6c6572206973206e6f7420746865206f776e6572604482015260640161032e565b6001600160a01b038481166000908152600260205260409020541615610aa35760405162461bcd60e51b815260206004820152602b60248201527f50726963654f7261636c653a2065786368616e676520726f7574657220616c7260448201527f6561647920657869737473000000000000000000000000000000000000000000606482015260840161032e565b60038054600181019091557fc2575a0e9e593c00f959f8c92f12db2869c3395a3b0502d05e2516446f71f85b0180546001600160a01b038087166001600160a01b03199283168117909355600083815260026020526040808220805493891693909416831790935591519092917f19dd93282347163d78a1e91a8278207144203887305da5724821079ffcc138ad91a350505050565b6000546001600160a01b03163314610b935760405162461bcd60e51b815260206004820181905260248201527f4f776e61626c653a2063616c6c6572206973206e6f7420746865206f776e6572604482015260640161032e565b6001600160a01b038116610c0f5760405162461bcd60e51b815260206004820152602660248201527f4f776e61626c653a206e6577206f776e657220697320746865207a65726f206160448201527f6464726573730000000000000000000000000000000000000000000000000000606482015260840161032e565b6103408161183f565b6000826001600160a01b038116610c6d5760405162461bcd60e51b815260206004820152601960248201527850726963654f7261636c653a207a65726f206164647265737360381b604482015260640161032e565b826001600160a01b038116610cc05760405162461bcd60e51b815260206004820152601960248201527850726963654f7261636c653a207a65726f206164647265737360381b604482015260640161032e565b6000806000610cd28b8b8b8b8b6111e1565b919450925090506001831515148015610d105750600454610d0d610cf54261188f565b610cfe8461188f565b610d089190611cb9565b61192f565b11155b15610d1f57509350610e479050565b60008060018515151415610d34575082905060015b60005b600354811015610dbe57610d8260038281548110610d6557634e487b7160e01b600052603260045260246000fd5b6000918252602090912001546001600160a01b03168f8d8d610f02565b909650945060018615151415610dac57610d9d826001611b57565b9150610da98584611b57565b92505b80610db681611d28565b915050610d37565b5060008111610e355760405162461bcd60e51b815260206004820152602760248201527f50726963654f7261636c653a206e6f207072696365206665656420697320617660448201527f61696c61626c6500000000000000000000000000000000000000000000000000606482015260840161032e565b610e3f8183611b6f565b975050505050505b505095945050505050565b806001600160a01b038116610ea55760405162461bcd60e51b815260206004820152601960248201527850726963654f7261636c653a207a65726f206164647265737360381b604482015260640161032e565b6005546040516001600160a01b038085169216907f4a6beeb37b9f482406bcaf6e918424d6a3d27c6e726f2934b56e75e086bd0a7990600090a350600580546001600160a01b0319166001600160a01b0392909216919091179055565b6000806001600160a01b0384166001141561104a576001600160a01b0380871660009081526002602090815260408083205481516317fcb39b60e01b81529151939416926317fcb39b92600480840193919291829003018186803b158015610f6957600080fd5b505afa158015610f7d573d6000803e3d6000fd5b505050506040513d601f19601f82011682018060405250810190610fa191906119a3565b6001600160a01b038881166000908152600260205260409081902054905163df71d7f360e01b8152600481018a905283831660248201528783166044820152929350169063df71d7f3906064015b604080518083038186803b15801561100657600080fd5b505afa15801561101a573d6000803e3d6000fd5b505050506040513d601f19601f8201168201806040525081019061103e9190611a49565b90935091506111d89050565b6001600160a01b03831660011415611138576001600160a01b0380871660009081526002602090815260408083205481516317fcb39b60e01b81529151939416926317fcb39b92600480840193919291829003018186803b1580156110ae57600080fd5b505afa1580156110c2573d6000803e3d6000fd5b505050506040513d601f19601f820116820180604052508101906110e691906119a3565b6001600160a01b038881166000908152600260205260409081902054905163df71d7f360e01b8152600481018a905288831660248201528383166044820152929350169063df71d7f390606401610fef565b6001600160a01b038681166000908152600260205260409081902054905163df71d7f360e01b8152600481018890528683166024820152858316604482015291169063df71d7f390606401604080518083038186803b15801561119a57600080fd5b505afa1580156111ae573d6000803e3d6000fd5b505050506040513d601f19601f820116820180604052508101906111d29190611a49565b90925090505b94509492505050565b60008080808080806001600160a01b0389166001141561120a576005546001600160a01b031698505b6001600160a01b0388166001141561122b576005546001600160a01b031697505b6001600160a01b03898116600090815260016020526040902054161580159061126d57506001600160a01b038881166000908152600160205260409020541615155b156116b95761127a611948565b6001600160a01b03808b1660009081526001602052604090819020548151633fabe5a360e21b8152915192169163feaf968c9160048082019260a092909190829003018186803b1580156112cd57600080fd5b505afa1580156112e1573d6000803e3d6000fd5b505050506040513d601f19601f820116820180604052508101906113059190611ae7565b5084525093508390506113805760405162461bcd60e51b815260206004820152602760248201527f50726963654f7261636c653a207a65726f20707269636520666f7220696e707560448201527f7420746f6b656e00000000000000000000000000000000000000000000000000606482015260840161032e565b6001600160a01b03808b1660009081526001602090815260409182902054825163313ce56760e01b8152925193169263313ce567926004808201939291829003018186803b1580156113d157600080fd5b505afa1580156113e5573d6000803e3d6000fd5b505050506040513d601f19601f820116820180604052508101906114099190611b36565b6001600160a01b03808b1660009081526001602052604090819020548151633fabe5a360e21b8152915160ff9490941698509091169163feaf968c9160048082019260a092909190829003018186803b15801561146557600080fd5b505afa158015611479573d6000803e3d6000fd5b505050506040513d601f19601f8201168201806040525081019061149d9190611ae7565b50602085015250925082905061151b5760405162461bcd60e51b815260206004820152602860248201527f50726963654f7261636c653a207a65726f20707269636520666f72206f75747060448201527f757420746f6b656e000000000000000000000000000000000000000000000000606482015260840161032e565b6001600160a01b03808a1660009081526001602090815260409182902054825163313ce56760e01b8152925193169263313ce567926004808201939291829003018186803b15801561156c57600080fd5b505afa158015611580573d6000803e3d6000fd5b505050506040513d601f19601f820116820180604052508101906115a49190611b36565b60ff1693506115b48b6001611b57565b6115bf90600a611bcc565b8d6115cb86600a611bcc565b6115d59086611c9a565b6115df9190611c9a565b6115e99190611c9a565b96506115f685600a611bcc565b6116009083611c9a565b61160b8d6001611b57565b61161690600a611bcc565b6116209190611c9a565b61162a9088611b6f565b60045490975061164d6116448360005b602002015161188f565b610cfe4261188f565b111561166e5760008782825b602002015197509750975050505050506116c9565b60045461167f61164483600161163a565b111561169057600087826001611659565b60208101518151116116a35780516116a9565b60208101515b95506001975050505050506116c9565b6000806000965096509650505050505b955095509592505050565b60045460408051918252602082018390527f61fcc6fa9ba5b3ab5f72b919bc6324527ede6b5d73e12c63bbc4d4e0352e7002910160405180910390a1600081116117605760405162461bcd60e51b815260206004820152601860248201527f50726963654f7261636c653a207a65726f20616d6f756e740000000000000000604482015260640161032e565b600455565b6003805461177590600190611d11565b8154811061179357634e487b7160e01b600052603260045260246000fd5b600091825260209091200154600380546001600160a01b0390921691839081106117cd57634e487b7160e01b600052603260045260246000fd5b9060005260206000200160006101000a8154816001600160a01b0302191690836001600160a01b03160217905550600380548061181a57634e487b7160e01b600052603160045260246000fd5b600082815260209020810160001990810180546001600160a01b031916905501905550565b600080546001600160a01b038381166001600160a01b0319831681178455604051919092169283917f8be0079c531659141344cd1fd0a4f28419497f9722a3daafe3b4186f6b6457e09190a35050565b60007f7fffffffffffffffffffffffffffffffffffffffffffffffffffffffffffffff8211156119275760405162461bcd60e51b815260206004820152602860248201527f53616665436173743a2076616c756520646f65736e27742066697420696e206160448201527f6e20696e74323536000000000000000000000000000000000000000000000000606482015260840161032e565b50805b919050565b6000808212156119275761194282611d43565b92915050565b60405180604001604052806002906020820280368337509192915050565b805169ffffffffffffffffffff8116811461192a57600080fd5b600060208284031215611991578081fd5b813561199c81611d73565b9392505050565b6000602082840312156119b4578081fd5b815161199c81611d73565b600080604083850312156119d1578081fd5b82356119dc81611d73565b915060208301356119ec81611d73565b809150509250929050565b60008060008060808587031215611a0c578182fd5b8435611a1781611d73565b9350602085013592506040850135611a2e81611d73565b91506060850135611a3e81611d73565b939692955090935050565b60008060408385031215611a5b578182fd5b82518015158114611a6a578283fd5b6020939093015192949293505050565b600060208284031215611a8b578081fd5b5035919050565b600080600080600060a08688031215611aa9578081fd5b8535945060208601359350604086013592506060860135611ac981611d73565b91506080860135611ad981611d73565b809150509295509295909350565b600080600080600060a08688031215611afe578081fd5b611b0786611966565b9450602086015193506040860151925060608601519150611b2a60808701611966565b90509295509295909350565b600060208284031215611b47578081fd5b815160ff8116811461199c578182fd5b60008219821115611b6a57611b6a611d5d565b500190565b600082611b8a57634e487b7160e01b81526012600452602481fd5b500490565b80825b6001808611611ba157506111d8565b818704821115611bb357611bb3611d5d565b80861615611bc057918102915b9490941c938002611b92565b600061199c6000198484600082611be55750600161199c565b81611bf25750600061199c565b8160018114611c085760028114611c1257611c3f565b600191505061199c565b60ff841115611c2357611c23611d5d565b6001841b915084821115611c3957611c39611d5d565b5061199c565b5060208310610133831016604e8410600b8410161715611c72575081810a83811115611c6d57611c6d611d5d565b61199c565b611c7f8484846001611b8f565b808604821115611c9157611c91611d5d565b02949350505050565b6000816000190483118215151615611cb457611cb4611d5d565b500290565b600080831283600160ff1b01831281151615611cd757611cd7611d5d565b837f7fffffffffffffffffffffffffffffffffffffffffffffffffffffffffffffff018313811615611d0b57611d0b611d5d565b50500390565b600082821015611d2357611d23611d5d565b500390565b6000600019821415611d3c57611d3c611d5d565b5060010190565b6000600160ff1b821415611d5957611d59611d5d565b0390565b634e487b7160e01b600052601160045260246000fd5b6001600160a01b038116811461034057600080fdfea2646970667358221220dad2193017e6114f24bd882a7019b0fbb2d139e91ff06fa75c0462b60b8b5d8864736f6c63430008020033",
  "devdoc": {
    "kind": "dev",
    "methods": {
      "addExchangeConnector(address,address)": {
        "details": "Only owner can call this",
        "params": {
          "_exchangeConnector": "New exchange connector contract address",
          "_exchangeRouter": "Exchange router contract address"
        }
      },
      "constructor": {
        "params": {
          "_acceptableDelay": "Maximum acceptable delay for data given from Chainlink",
          "_oracleNativeToken": "The address of the chainlink oracle for the native token"
        }
      },
      "equivalentOutputAmount(uint256,uint256,uint256,address,address)": {
        "details": "The oracle is ChainLink",
        "params": {
          "_inputAmount": "Amount of the input token",
          "_inputDecimals": "Number of input token decimals",
          "_inputToken": "Address of the input token",
          "_outputDecimals": "Number of output token decimals",
          "_outputToken": "Address of output token"
        },
        "returns": {
          "_outputAmount": "          Amount of the output token"
        }
      },
      "equivalentOutputAmountByAverage(uint256,uint256,uint256,address,address)": {
        "details": "First we try to get the output amount from Chain Link                                 Only if the price is not available or out-of-date we will                                  reach to exchange routers",
        "params": {
          "_inputAmount": "Amount of the input token",
          "_inputDecimals": "Number of input token decimals",
          "_inputToken": "Address of the input token",
          "_outputDecimals": "Number of output token decimals",
          "_outputToken": "Address of output token"
        },
        "returns": {
          "_0": "Amount of the output token"
        }
      },
      "equivalentOutputAmountFromExchange(address,uint256,address,address)": {
        "details": "Input amount should have the same decimal as input token                                 Output amount has the same decimal as output token",
        "params": {
          "_exchangeRouter": "Address of the exchange router we are reading the price from",
          "_inputAmount": "Amount of the input token",
          "_inputToken": "Address of the input token",
          "_outputToken": "Address of output token"
        },
        "returns": {
          "_0": "Amount of the output token"
        }
      },
      "equivalentOutputAmountFromOracle(uint256,uint256,uint256,address,address)": {
        "details": "The oracle is ChainLink",
        "params": {
          "_inputAmount": "Amount of the input token",
          "_inputDecimals": "Number of input token decimals",
          "_inputToken": "Address of the input token",
          "_outputDecimals": "Number of output token decimals",
          "_outputToken": "Address of output token"
        },
        "returns": {
          "_outputAmount": "          Amount of the output token"
        }
      },
      "owner()": {
        "details": "Returns the address of the current owner."
      },
      "removeExchangeConnector(uint256)": {
        "details": "Only owner can call this",
        "params": {
          "_exchangeRouterIndex": "The exchange router index in the list"
        }
      },
      "renounceOwnership()": {
        "details": "Leaves the contract without owner. It will not be possible to call `onlyOwner` functions anymore. Can only be called by the current owner. NOTE: Renouncing ownership will leave the contract without an owner, thereby removing any functionality that is only available to the owner."
      },
      "setAcceptableDelay(uint256)": {
        "details": "If oracle data has not been updated for a while,                              we will get data from exchange routers",
        "params": {
          "_acceptableDelay": "Maximum acceptable delay (in seconds)"
        }
      },
      "setPriceProxy(address,address)": {
        "details": "Only owner can call this                             This price proxy gives exchange rate of _token/USD                             Setting price proxy address to zero means that we remove it",
        "params": {
          "_priceProxyAddress": "The address of the proxy price",
          "_token": "Address of the token"
        }
      },
      "transferOwnership(address)": {
        "details": "Transfers ownership of the contract to a new account (`newOwner`). Can only be called by the current owner."
      }
    },
    "stateVariables": {
      "ChainlinkPriceProxy": {
        "params": {
          "_token": "Address of the token"
        },
        "return": "Address of price proxy contract"
      },
      "exchangeConnector": {
        "params": {
          "_exchangeRouter": "Address of exchange router"
        },
        "return": "Address of exchange connector"
      },
      "exchangeRoutersList": {
        "params": {
          "_index": "Index of exchange router"
        },
        "return": "Address of exchange router"
      }
    },
    "version": 1
  },
  "userdoc": {
    "events": {
      "ExchangeConnectorAdded(address,address)": {
        "notice": "Emits when new exchange router is added"
      },
      "ExchangeConnectorRemoved(address)": {
        "notice": "Emits when an exchange router is removed"
      },
      "NewAcceptableDelay(uint256,uint256)": {
        "notice": "Emits when changes made to acceptable delay"
      },
      "NewOracleNativeToken(address,address)": {
        "notice": "Emits when changes made to oracle native token"
      },
      "SetPriceProxy(address,address)": {
        "notice": "Emits when a price proxy is set"
      }
    },
    "kind": "user",
    "methods": {
      "ChainlinkPriceProxy(address)": {
        "notice": "Gives USD price proxy address for a token"
      },
      "addExchangeConnector(address,address)": {
        "notice": "Adds an exchange connector"
      },
      "constructor": {
        "notice": "This contract is used to get relative price of two assets from Chainlink and available exchanges "
      },
      "equivalentOutputAmount(uint256,uint256,uint256,address,address)": {
        "notice": "Finds amount of output token that has equal value                                 as the input amount of the input token"
      },
      "equivalentOutputAmountByAverage(uint256,uint256,uint256,address,address)": {
        "notice": "Finds amount of output token that has same value as the input amount of the input token"
      },
      "equivalentOutputAmountFromExchange(address,uint256,address,address)": {
        "notice": "Finds amount of output token that has same value                                  as the input amount of the input token"
      },
      "equivalentOutputAmountFromOracle(uint256,uint256,uint256,address,address)": {
        "notice": "Finds amount of output token that has equal value                                 as the input amount of the input token"
      },
      "exchangeConnector(address)": {
        "notice": "Gives exchange connector address for an exchange router"
      },
      "exchangeRoutersList(uint256)": {
        "notice": "Gives address of an exchange router from exchange routers list"
      },
      "getExchangeRoutersListLength()": {
        "notice": "Getter for the length of exchange router list"
      },
      "removeExchangeConnector(uint256)": {
        "notice": "Removes an exchange connector"
      },
      "setAcceptableDelay(uint256)": {
        "notice": "Sets acceptable delay for oracle responses"
      },
      "setOracleNativeToken(address)": {
        "notice": "Sets oracle native token address"
      },
      "setPriceProxy(address,address)": {
        "notice": "Sets a USD price proxy for a token"
      }
    },
    "version": 1
  },
  "storageLayout": {
    "storage": [
      {
        "astId": 1853,
        "contract": "contracts/oracle/PriceOracle.sol:PriceOracle",
        "label": "_owner",
        "offset": 0,
        "slot": "0",
        "type": "t_address"
      },
      {
        "astId": 18068,
        "contract": "contracts/oracle/PriceOracle.sol:PriceOracle",
        "label": "ChainlinkPriceProxy",
        "offset": 0,
        "slot": "1",
        "type": "t_mapping(t_address,t_address)"
      },
      {
        "astId": 18073,
        "contract": "contracts/oracle/PriceOracle.sol:PriceOracle",
        "label": "exchangeConnector",
        "offset": 0,
        "slot": "2",
        "type": "t_mapping(t_address,t_address)"
      },
      {
        "astId": 18077,
        "contract": "contracts/oracle/PriceOracle.sol:PriceOracle",
        "label": "exchangeRoutersList",
        "offset": 0,
        "slot": "3",
        "type": "t_array(t_address)dyn_storage"
      },
      {
        "astId": 18080,
        "contract": "contracts/oracle/PriceOracle.sol:PriceOracle",
        "label": "acceptableDelay",
        "offset": 0,
        "slot": "4",
        "type": "t_uint256"
      },
      {
        "astId": 18089,
        "contract": "contracts/oracle/PriceOracle.sol:PriceOracle",
        "label": "oracleNativeToken",
        "offset": 0,
        "slot": "5",
        "type": "t_address"
      }
    ],
    "types": {
      "t_address": {
        "encoding": "inplace",
        "label": "address",
        "numberOfBytes": "20"
      },
      "t_array(t_address)dyn_storage": {
        "base": "t_address",
        "encoding": "dynamic_array",
        "label": "address[]",
        "numberOfBytes": "32"
      },
      "t_mapping(t_address,t_address)": {
        "encoding": "mapping",
        "key": "t_address",
        "label": "mapping(address => address)",
        "numberOfBytes": "32",
        "value": "t_address"
      },
      "t_uint256": {
        "encoding": "inplace",
        "label": "uint256",
        "numberOfBytes": "32"
      }
    }
  }
}