{
  "address": "0xE4861fAe31db723eA6e288D428CB2D00bcc31508",
  "abi": [
    {
      "anonymous": false,
      "inputs": [
        {
          "indexed": false,
          "internalType": "address",
          "name": "user",
          "type": "address"
        },
        {
          "indexed": false,
          "internalType": "uint256",
          "name": "remainingAmount",
          "type": "uint256"
        },
        {
          "indexed": false,
          "internalType": "address",
          "name": "inputToken",
          "type": "address"
        },
        {
          "indexed": false,
          "internalType": "uint256",
          "name": "outputAmount",
          "type": "uint256"
        },
        {
          "indexed": false,
          "internalType": "address",
          "name": "outputToken",
          "type": "address"
        },
        {
          "components": [
            {
              "internalType": "uint256",
              "name": "protocolFee",
              "type": "uint256"
            },
            {
              "internalType": "uint256",
              "name": "lockerFee",
              "type": "uint256"
            },
            {
              "internalType": "uint256",
              "name": "thirdPartyFee",
              "type": "uint256"
            }
          ],
          "indexed": false,
          "internalType": "struct IRuneRouter.fees",
          "name": "fee",
          "type": "tuple"
        },
        {
          "indexed": false,
          "internalType": "address",
          "name": "thirdPartyAddress",
          "type": "address"
        },
        {
          "indexed": false,
          "internalType": "bytes32",
          "name": "txId",
          "type": "bytes32"
        }
      ],
      "name": "FailedRuneWrapAndSwap",
      "type": "event"
    },
    {
      "anonymous": false,
      "inputs": [
        {
          "indexed": false,
          "internalType": "uint8",
          "name": "version",
          "type": "uint8"
        }
      ],
      "name": "Initialized",
      "type": "event"
    },
    {
      "anonymous": false,
      "inputs": [
        {
          "indexed": false,
          "internalType": "address",
          "name": "oldLocker",
          "type": "address"
        },
        {
          "indexed": false,
          "internalType": "address",
          "name": "newLocker",
          "type": "address"
        }
      ],
      "name": "NewLocker",
      "type": "event"
    },
    {
      "anonymous": false,
      "inputs": [
        {
          "indexed": false,
          "internalType": "uint256",
          "name": "oldProtocolPercentageFee",
          "type": "uint256"
        },
        {
          "indexed": false,
          "internalType": "uint256",
          "name": "newProtocolPercentageFee",
          "type": "uint256"
        }
      ],
      "name": "NewProtocolPercentageFee",
      "type": "event"
    },
    {
      "anonymous": false,
      "inputs": [
        {
          "indexed": false,
          "internalType": "address",
          "name": "oldRelay",
          "type": "address"
        },
        {
          "indexed": false,
          "internalType": "address",
          "name": "newRelay",
          "type": "address"
        }
      ],
      "name": "NewRelay",
      "type": "event"
    },
    {
      "anonymous": false,
      "inputs": [
        {
          "indexed": false,
          "internalType": "string",
          "name": "name",
          "type": "string"
        },
        {
          "indexed": false,
          "internalType": "string",
          "name": "symbol",
          "type": "string"
        },
        {
          "indexed": false,
          "internalType": "uint256",
          "name": "decimal",
          "type": "uint256"
        },
        {
          "indexed": false,
          "internalType": "uint256",
          "name": "tokenId",
          "type": "uint256"
        },
        {
          "indexed": false,
          "internalType": "address",
          "name": "wRuneProxy",
          "type": "address"
        },
        {
          "indexed": false,
          "internalType": "address",
          "name": "wRuneLogic",
          "type": "address"
        }
      ],
      "name": "NewRune",
      "type": "event"
    },
    {
      "anonymous": false,
      "inputs": [
        {
          "indexed": false,
          "internalType": "address",
          "name": "user",
          "type": "address"
        },
        {
          "indexed": false,
          "internalType": "bytes",
          "name": "userScript",
          "type": "bytes"
        },
        {
          "indexed": false,
          "internalType": "enum ScriptTypes",
          "name": "scriptType",
          "type": "uint8"
        },
        {
          "indexed": false,
          "internalType": "uint256",
          "name": "inputAmount",
          "type": "uint256"
        },
        {
          "indexed": false,
          "internalType": "address",
          "name": "inputToken",
          "type": "address"
        },
        {
          "indexed": false,
          "internalType": "uint256",
          "name": "outputAmount",
          "type": "uint256"
        },
        {
          "indexed": false,
          "internalType": "uint256",
          "name": "remainingAmount",
          "type": "uint256"
        },
        {
          "indexed": false,
          "internalType": "address",
          "name": "outputToken",
          "type": "address"
        },
        {
          "components": [
            {
              "internalType": "uint256",
              "name": "protocolFee",
              "type": "uint256"
            },
            {
              "internalType": "uint256",
              "name": "lockerFee",
              "type": "uint256"
            },
            {
              "internalType": "uint256",
              "name": "thirdPartyFee",
              "type": "uint256"
            }
          ],
          "indexed": false,
          "internalType": "struct IRuneRouter.fees",
          "name": "fee",
          "type": "tuple"
        },
        {
          "indexed": false,
          "internalType": "uint256",
          "name": "unwrapFee",
          "type": "uint256"
        },
        {
          "indexed": false,
          "internalType": "address",
          "name": "thirdPartyAddress",
          "type": "address"
        },
        {
          "indexed": false,
          "internalType": "uint256",
          "name": "reqIdx",
          "type": "uint256"
        }
      ],
      "name": "NewRuneSwapAndUnwrap",
      "type": "event"
    },
    {
      "anonymous": false,
      "inputs": [
        {
          "indexed": false,
          "internalType": "address",
          "name": "user",
          "type": "address"
        },
        {
          "indexed": false,
          "internalType": "bytes",
          "name": "userScript",
          "type": "bytes"
        },
        {
          "indexed": false,
          "internalType": "enum ScriptTypes",
          "name": "scriptType",
          "type": "uint8"
        },
        {
          "indexed": false,
          "internalType": "address",
          "name": "inputToken",
          "type": "address"
        },
        {
          "indexed": false,
          "internalType": "uint256",
          "name": "inputAmount",
          "type": "uint256"
        },
        {
          "indexed": false,
          "internalType": "uint256",
          "name": "remainingAmount",
          "type": "uint256"
        },
        {
          "components": [
            {
              "internalType": "uint256",
              "name": "protocolFee",
              "type": "uint256"
            },
            {
              "internalType": "uint256",
              "name": "lockerFee",
              "type": "uint256"
            },
            {
              "internalType": "uint256",
              "name": "thirdPartyFee",
              "type": "uint256"
            }
          ],
          "indexed": false,
          "internalType": "struct IRuneRouter.fees",
          "name": "fee",
          "type": "tuple"
        },
        {
          "indexed": false,
          "internalType": "uint256",
          "name": "unwrapFee",
          "type": "uint256"
        },
        {
          "indexed": false,
          "internalType": "address",
          "name": "thirdPartyAddress",
          "type": "address"
        },
        {
          "indexed": false,
          "internalType": "uint256",
          "name": "reqIdx",
          "type": "uint256"
        }
      ],
      "name": "NewRuneUnwrap",
      "type": "event"
    },
    {
      "anonymous": false,
      "inputs": [
        {
          "indexed": false,
          "internalType": "address",
          "name": "user",
          "type": "address"
        },
        {
          "indexed": false,
          "internalType": "uint256",
          "name": "remainingAmount",
          "type": "uint256"
        },
        {
          "indexed": false,
          "internalType": "address",
          "name": "inputToken",
          "type": "address"
        },
        {
          "components": [
            {
              "internalType": "uint256",
              "name": "protocolFee",
              "type": "uint256"
            },
            {
              "internalType": "uint256",
              "name": "lockerFee",
              "type": "uint256"
            },
            {
              "internalType": "uint256",
              "name": "thirdPartyFee",
              "type": "uint256"
            }
          ],
          "indexed": false,
          "internalType": "struct IRuneRouter.fees",
          "name": "fee",
          "type": "tuple"
        },
        {
          "indexed": false,
          "internalType": "address",
          "name": "thirdPartyAddress",
          "type": "address"
        },
        {
          "indexed": false,
          "internalType": "bytes32",
          "name": "txId",
          "type": "bytes32"
        }
      ],
      "name": "NewRuneWrap",
      "type": "event"
    },
    {
      "anonymous": false,
      "inputs": [
        {
          "indexed": false,
          "internalType": "address",
          "name": "user",
          "type": "address"
        },
        {
          "indexed": false,
          "internalType": "uint256",
          "name": "remainingAmount",
          "type": "uint256"
        },
        {
          "indexed": false,
          "internalType": "address",
          "name": "inputToken",
          "type": "address"
        },
        {
          "indexed": false,
          "internalType": "uint256",
          "name": "outputAmount",
          "type": "uint256"
        },
        {
          "indexed": false,
          "internalType": "address",
          "name": "outputToken",
          "type": "address"
        },
        {
          "components": [
            {
              "internalType": "uint256",
              "name": "protocolFee",
              "type": "uint256"
            },
            {
              "internalType": "uint256",
              "name": "lockerFee",
              "type": "uint256"
            },
            {
              "internalType": "uint256",
              "name": "thirdPartyFee",
              "type": "uint256"
            }
          ],
          "indexed": false,
          "internalType": "struct IRuneRouter.fees",
          "name": "fee",
          "type": "tuple"
        },
        {
          "indexed": false,
          "internalType": "address",
          "name": "thirdPartyAddress",
          "type": "address"
        },
        {
          "indexed": false,
          "internalType": "bytes32",
          "name": "txId",
          "type": "bytes32"
        }
      ],
      "name": "NewRuneWrapAndSwap",
      "type": "event"
    },
    {
      "anonymous": false,
      "inputs": [
        {
          "indexed": false,
          "internalType": "address",
          "name": "oldTeleporter",
          "type": "address"
        },
        {
          "indexed": false,
          "internalType": "address",
          "name": "newTeleporter",
          "type": "address"
        }
      ],
      "name": "NewTeleporter",
      "type": "event"
    },
    {
      "anonymous": false,
      "inputs": [
        {
          "indexed": false,
          "internalType": "address",
          "name": "oldTreasury",
          "type": "address"
        },
        {
          "indexed": false,
          "internalType": "address",
          "name": "newTreasury",
          "type": "address"
        }
      ],
      "name": "NewTreasury",
      "type": "event"
    },
    {
      "anonymous": false,
      "inputs": [
        {
          "indexed": true,
          "internalType": "address",
          "name": "previousOwner",
          "type": "address"
        },
        {
          "indexed": true,
          "internalType": "address",
          "name": "newOwner",
          "type": "address"
        }
      ],
      "name": "OwnershipTransferred",
      "type": "event"
    },
    {
      "anonymous": false,
      "inputs": [
        {
          "indexed": false,
          "internalType": "uint256",
          "name": "tokenId",
          "type": "uint256"
        },
        {
          "indexed": false,
          "internalType": "address",
          "name": "wRuneProxy",
          "type": "address"
        }
      ],
      "name": "RuneRemoved",
      "type": "event"
    },
    {
      "anonymous": false,
      "inputs": [
        {
          "indexed": false,
          "internalType": "uint256",
          "name": "appId",
          "type": "uint256"
        },
        {
          "indexed": false,
          "internalType": "address",
          "name": "exchangeConnector",
          "type": "address"
        }
      ],
      "name": "SetExchangeConnector",
      "type": "event"
    },
    {
      "anonymous": false,
      "inputs": [
        {
          "indexed": false,
          "internalType": "uint256",
          "name": "thirdPartyId",
          "type": "uint256"
        },
        {
          "indexed": false,
          "internalType": "address",
          "name": "oldAddress",
          "type": "address"
        },
        {
          "indexed": false,
          "internalType": "uint256",
          "name": "oldFee",
          "type": "uint256"
        },
        {
          "indexed": false,
          "internalType": "address",
          "name": "newAddress",
          "type": "address"
        },
        {
          "indexed": false,
          "internalType": "uint256",
          "name": "newFee",
          "type": "uint256"
        }
      ],
      "name": "ThirdPartyInfoUpdated",
      "type": "event"
    },
    {
      "anonymous": false,
      "inputs": [
        {
          "indexed": false,
          "internalType": "uint256",
          "name": "oldFee",
          "type": "uint256"
        },
        {
          "indexed": false,
          "internalType": "uint256",
          "name": "newFee",
          "type": "uint256"
        }
      ],
      "name": "UnwrapFeeUpdated",
      "type": "event"
    },
    {
      "anonymous": false,
      "inputs": [
        {
          "indexed": false,
          "internalType": "address",
          "name": "user",
          "type": "address"
        },
        {
          "indexed": false,
          "internalType": "uint256",
          "name": "remainingAmount",
          "type": "uint256"
        },
        {
          "indexed": false,
          "internalType": "bytes",
          "name": "userScript",
          "type": "bytes"
        },
        {
          "indexed": false,
          "internalType": "enum ScriptTypes",
          "name": "scriptType",
          "type": "uint8"
        },
        {
          "indexed": false,
          "internalType": "uint256",
          "name": "reqIdx",
          "type": "uint256"
        }
      ],
      "name": "UnwrapRuneProcessed",
      "type": "event"
    },
    {
      "inputs": [
        {
          "internalType": "string",
          "name": "_name",
          "type": "string"
        },
        {
          "internalType": "string",
          "name": "_symbol",
          "type": "string"
        },
        {
          "internalType": "uint8",
          "name": "_decimal",
          "type": "uint8"
        },
        {
          "internalType": "uint256",
          "name": "_tokenId",
          "type": "uint256"
        }
      ],
      "name": "addRune",
      "outputs": [],
      "stateMutability": "nonpayable",
      "type": "function"
    },
    {
      "inputs": [],
      "name": "chainId",
      "outputs": [
        {
          "internalType": "uint256",
          "name": "",
          "type": "uint256"
        }
      ],
      "stateMutability": "view",
      "type": "function"
    },
    {
      "inputs": [
        {
          "internalType": "uint256",
          "name": "",
          "type": "uint256"
        }
      ],
      "name": "exchangeConnector",
      "outputs": [
        {
          "internalType": "address",
          "name": "",
          "type": "address"
        }
      ],
      "stateMutability": "view",
      "type": "function"
    },
    {
      "inputs": [
        {
          "internalType": "uint256",
          "name": "_startingBlockNumber",
          "type": "uint256"
        },
        {
          "internalType": "uint256",
          "name": "_protocolPercentageFee",
          "type": "uint256"
        },
        {
          "internalType": "uint256",
          "name": "_chainId",
          "type": "uint256"
        },
        {
          "internalType": "address",
          "name": "_relay",
          "type": "address"
        },
        {
          "internalType": "address",
          "name": "_locker",
          "type": "address"
        },
        {
          "internalType": "bytes",
          "name": "_lockerLockingScript",
          "type": "bytes"
        },
        {
          "internalType": "enum ScriptTypes",
          "name": "_lockerScriptType",
          "type": "uint8"
        },
        {
          "internalType": "address",
          "name": "_teleporter",
          "type": "address"
        },
        {
          "internalType": "address",
          "name": "_treasury",
          "type": "address"
        }
      ],
      "name": "initialize",
      "outputs": [],
      "stateMutability": "nonpayable",
      "type": "function"
    },
    {
      "inputs": [
        {
          "internalType": "uint256",
          "name": "_reqIdx",
          "type": "uint256"
        }
      ],
      "name": "isUnwrapRequestProcessed",
      "outputs": [
        {
          "internalType": "bool",
          "name": "",
          "type": "bool"
        }
      ],
      "stateMutability": "view",
      "type": "function"
    },
    {
      "inputs": [
        {
          "internalType": "bytes32",
          "name": "_txId",
          "type": "bytes32"
        }
      ],
      "name": "isWrapRequestProcessed",
      "outputs": [
        {
          "internalType": "bool",
          "name": "",
          "type": "bool"
        }
      ],
      "stateMutability": "view",
      "type": "function"
    },
    {
      "inputs": [],
      "name": "locker",
      "outputs": [
        {
          "internalType": "address",
          "name": "",
          "type": "address"
        }
      ],
      "stateMutability": "view",
      "type": "function"
    },
    {
      "inputs": [],
      "name": "lockerLockingScript",
      "outputs": [
        {
          "internalType": "bytes",
          "name": "",
          "type": "bytes"
        }
      ],
      "stateMutability": "view",
      "type": "function"
    },
    {
      "inputs": [],
      "name": "lockerPercentageFee",
      "outputs": [
        {
          "internalType": "uint256",
          "name": "",
          "type": "uint256"
        }
      ],
      "stateMutability": "view",
      "type": "function"
    },
    {
      "inputs": [],
      "name": "lockerScriptType",
      "outputs": [
        {
          "internalType": "enum ScriptTypes",
          "name": "",
          "type": "uint8"
        }
      ],
      "stateMutability": "view",
      "type": "function"
    },
    {
      "inputs": [],
      "name": "owner",
      "outputs": [
        {
          "internalType": "address",
          "name": "",
          "type": "address"
        }
      ],
      "stateMutability": "view",
      "type": "function"
    },
    {
      "inputs": [],
      "name": "protocolPercentageFee",
      "outputs": [
        {
          "internalType": "uint256",
          "name": "",
          "type": "uint256"
        }
      ],
      "stateMutability": "view",
      "type": "function"
    },
    {
      "inputs": [],
      "name": "relay",
      "outputs": [
        {
          "internalType": "address",
          "name": "",
          "type": "address"
        }
      ],
      "stateMutability": "view",
      "type": "function"
    },
    {
      "inputs": [
        {
          "internalType": "uint256",
          "name": "_tokenId",
          "type": "uint256"
        }
      ],
      "name": "removeRune",
      "outputs": [],
      "stateMutability": "nonpayable",
      "type": "function"
    },
    {
      "inputs": [],
      "name": "renounceOwnership",
      "outputs": [],
      "stateMutability": "nonpayable",
      "type": "function"
    },
    {
      "inputs": [
        {
          "internalType": "string",
          "name": "",
          "type": "string"
        }
      ],
      "name": "runeTokenIds",
      "outputs": [
        {
          "internalType": "uint256",
          "name": "",
          "type": "uint256"
        }
      ],
      "stateMutability": "view",
      "type": "function"
    },
    {
      "inputs": [],
      "name": "runeUnwrapCounter",
      "outputs": [
        {
          "internalType": "uint256",
          "name": "",
          "type": "uint256"
        }
      ],
      "stateMutability": "view",
      "type": "function"
    },
    {
      "inputs": [
        {
          "internalType": "uint256",
          "name": "",
          "type": "uint256"
        }
      ],
      "name": "runeUnwrapRequests",
      "outputs": [
        {
          "internalType": "bool",
          "name": "isProcessed",
          "type": "bool"
        },
        {
          "internalType": "uint256",
          "name": "amount",
          "type": "uint256"
        },
        {
          "internalType": "uint256",
          "name": "burntAmount",
          "type": "uint256"
        },
        {
          "internalType": "uint256",
          "name": "appId",
          "type": "uint256"
        },
        {
          "internalType": "address",
          "name": "sender",
          "type": "address"
        },
        {
          "internalType": "bytes",
          "name": "userScript",
          "type": "bytes"
        },
        {
          "internalType": "enum ScriptTypes",
          "name": "scriptType",
          "type": "uint8"
        }
      ],
      "stateMutability": "view",
      "type": "function"
    },
    {
      "inputs": [
        {
          "internalType": "bytes32",
          "name": "",
          "type": "bytes32"
        }
      ],
      "name": "runeWrapRequests",
      "outputs": [
        {
          "internalType": "bool",
          "name": "isUsed",
          "type": "bool"
        },
        {
          "internalType": "uint256",
          "name": "chainId",
          "type": "uint256"
        },
        {
          "internalType": "uint256",
          "name": "appId",
          "type": "uint256"
        },
        {
          "internalType": "uint256",
          "name": "tokenId",
          "type": "uint256"
        },
        {
          "internalType": "uint256",
          "name": "inputAmount",
          "type": "uint256"
        },
        {
          "internalType": "address",
          "name": "inputToken",
          "type": "address"
        },
        {
          "internalType": "address",
          "name": "recipientAddress",
          "type": "address"
        },
        {
          "internalType": "uint256",
          "name": "thirdPartyId",
          "type": "uint256"
        },
        {
          "internalType": "uint256",
          "name": "fee",
          "type": "uint256"
        },
        {
          "internalType": "uint256",
          "name": "outputAmount",
          "type": "uint256"
        },
        {
          "internalType": "address",
          "name": "outputToken",
          "type": "address"
        }
      ],
      "stateMutability": "view",
      "type": "function"
    },
    {
      "inputs": [
        {
          "internalType": "uint256",
          "name": "_chainId",
          "type": "uint256"
        }
      ],
      "name": "setChainId",
      "outputs": [],
      "stateMutability": "nonpayable",
      "type": "function"
    },
    {
      "inputs": [
        {
          "internalType": "uint256",
          "name": "_appId",
          "type": "uint256"
        },
        {
          "internalType": "address",
          "name": "_exchangeConnector",
          "type": "address"
        }
      ],
      "name": "setExchangeConnector",
      "outputs": [],
      "stateMutability": "nonpayable",
      "type": "function"
    },
    {
      "inputs": [
        {
          "internalType": "address",
          "name": "_locker",
          "type": "address"
        }
      ],
      "name": "setLocker",
      "outputs": [],
      "stateMutability": "nonpayable",
      "type": "function"
    },
    {
      "inputs": [
        {
          "internalType": "bytes",
          "name": "_lockerLockingScript",
          "type": "bytes"
        },
        {
          "internalType": "enum ScriptTypes",
          "name": "_lockerScriptType",
          "type": "uint8"
        }
      ],
      "name": "setLockerLockingScript",
      "outputs": [],
      "stateMutability": "nonpayable",
      "type": "function"
    },
    {
      "inputs": [
        {
          "internalType": "uint256",
          "name": "_protocolPercentageFee",
          "type": "uint256"
        }
      ],
      "name": "setProtocolPercentageFee",
      "outputs": [],
      "stateMutability": "nonpayable",
      "type": "function"
    },
    {
      "inputs": [
        {
          "internalType": "address",
          "name": "_relay",
          "type": "address"
        }
      ],
      "name": "setRelay",
      "outputs": [],
      "stateMutability": "nonpayable",
      "type": "function"
    },
    {
      "inputs": [
        {
          "internalType": "uint256",
          "name": "_startingBlockNumber",
          "type": "uint256"
        }
      ],
      "name": "setStartingBlockNumber",
      "outputs": [],
      "stateMutability": "nonpayable",
      "type": "function"
    },
    {
      "inputs": [
        {
          "internalType": "address",
          "name": "_teleporter",
          "type": "address"
        }
      ],
      "name": "setTeleporter",
      "outputs": [],
      "stateMutability": "nonpayable",
      "type": "function"
    },
    {
      "inputs": [
        {
          "internalType": "uint256",
          "name": "_thirdPartyId",
          "type": "uint256"
        },
        {
          "internalType": "address",
          "name": "_thirdPartyAddress",
          "type": "address"
        },
        {
          "internalType": "uint256",
          "name": "_thirdPartyFee",
          "type": "uint256"
        }
      ],
      "name": "setThirdParty",
      "outputs": [],
      "stateMutability": "nonpayable",
      "type": "function"
    },
    {
      "inputs": [
        {
          "internalType": "address",
          "name": "_treasury",
          "type": "address"
        }
      ],
      "name": "setTreasury",
      "outputs": [],
      "stateMutability": "nonpayable",
      "type": "function"
    },
    {
      "inputs": [
        {
          "internalType": "uint256",
          "name": "_newFee",
          "type": "uint256"
        }
      ],
      "name": "setUnwrapFee",
      "outputs": [],
      "stateMutability": "nonpayable",
      "type": "function"
    },
    {
      "inputs": [],
      "name": "startingBlockNumber",
      "outputs": [
        {
          "internalType": "uint256",
          "name": "",
          "type": "uint256"
        }
      ],
      "stateMutability": "view",
      "type": "function"
    },
    {
      "inputs": [
        {
          "internalType": "uint256",
          "name": "",
          "type": "uint256"
        }
      ],
      "name": "supportedRunes",
      "outputs": [
        {
          "internalType": "address",
          "name": "",
          "type": "address"
        }
      ],
      "stateMutability": "view",
      "type": "function"
    },
    {
      "inputs": [],
      "name": "teleporter",
      "outputs": [
        {
          "internalType": "address",
          "name": "",
          "type": "address"
        }
      ],
      "stateMutability": "view",
      "type": "function"
    },
    {
      "inputs": [
        {
          "internalType": "uint256",
          "name": "",
          "type": "uint256"
        }
      ],
      "name": "thirdParties",
      "outputs": [
        {
          "internalType": "address",
          "name": "thirdPartyAddress",
          "type": "address"
        },
        {
          "internalType": "uint256",
          "name": "thirdPartyFee",
          "type": "uint256"
        }
      ],
      "stateMutability": "view",
      "type": "function"
    },
    {
      "inputs": [
        {
          "internalType": "address",
          "name": "newOwner",
          "type": "address"
        }
      ],
      "name": "transferOwnership",
      "outputs": [],
      "stateMutability": "nonpayable",
      "type": "function"
    },
    {
      "inputs": [],
      "name": "treasury",
      "outputs": [
        {
          "internalType": "address",
          "name": "",
          "type": "address"
        }
      ],
      "stateMutability": "view",
      "type": "function"
    },
    {
      "inputs": [],
      "name": "unwrapFee",
      "outputs": [
        {
          "internalType": "uint256",
          "name": "",
          "type": "uint256"
        }
      ],
      "stateMutability": "view",
      "type": "function"
    },
    {
      "inputs": [
        {
          "internalType": "bytes4",
          "name": "_version",
          "type": "bytes4"
        },
        {
          "internalType": "bytes",
          "name": "_vin",
          "type": "bytes"
        },
        {
          "internalType": "bytes",
          "name": "_vout",
          "type": "bytes"
        },
        {
          "internalType": "bytes4",
          "name": "_locktime",
          "type": "bytes4"
        },
        {
          "internalType": "uint256",
          "name": "_blockNumber",
          "type": "uint256"
        },
        {
          "internalType": "bytes",
          "name": "_intermediateNodes",
          "type": "bytes"
        },
        {
          "internalType": "uint256",
          "name": "_index",
          "type": "uint256"
        },
        {
          "internalType": "uint256[]",
          "name": "_reqIndexes",
          "type": "uint256[]"
        }
      ],
      "name": "unwrapProofRune",
      "outputs": [],
      "stateMutability": "payable",
      "type": "function"
    },
    {
      "inputs": [
        {
          "internalType": "uint256",
          "name": "_thirdPartyId",
          "type": "uint256"
        },
        {
          "internalType": "uint256",
          "name": "_tokenId",
          "type": "uint256"
        },
        {
          "internalType": "uint256",
          "name": "_amount",
          "type": "uint256"
        },
        {
          "internalType": "bytes",
          "name": "_userScript",
          "type": "bytes"
        },
        {
          "internalType": "enum ScriptTypes",
          "name": "_scriptType",
          "type": "uint8"
        },
        {
          "internalType": "uint256",
          "name": "_appId",
          "type": "uint256"
        },
        {
          "internalType": "uint256",
          "name": "_inputAmount",
          "type": "uint256"
        },
        {
          "internalType": "address[]",
          "name": "_path",
          "type": "address[]"
        }
      ],
      "name": "unwrapRune",
      "outputs": [],
      "stateMutability": "payable",
      "type": "function"
    },
    {
      "inputs": [
        {
          "internalType": "bytes4",
          "name": "_version",
          "type": "bytes4"
        },
        {
          "internalType": "bytes",
          "name": "_vin",
          "type": "bytes"
        },
        {
          "internalType": "bytes",
          "name": "_vout",
          "type": "bytes"
        },
        {
          "internalType": "bytes4",
          "name": "_locktime",
          "type": "bytes4"
        },
        {
          "internalType": "uint256",
          "name": "_blockNumber",
          "type": "uint256"
        },
        {
          "internalType": "bytes",
          "name": "_intermediateNodes",
          "type": "bytes"
        },
        {
          "internalType": "uint256",
          "name": "_index",
          "type": "uint256"
        },
        {
          "internalType": "address[]",
          "name": "_path",
          "type": "address[]"
        }
      ],
      "name": "wrapRune",
      "outputs": [],
      "stateMutability": "payable",
      "type": "function"
    },
    {
      "stateMutability": "payable",
      "type": "receive"
    }
  ],
  "transactionHash": "0x3901966f5fda45ea13038c7bc1c946fe2d686c0fec58466d9017fcff29a56411",
  "args": [],
  "numDeployments": 1,
  "solcInputHash": "2db30cd21cf0f0d5cedce38b645f599a",
  "bytecode": "0x608060405234801561001057600080fd5b50615387806100206000396000f3fe608060405260043610620001f95760003560e01c8063023e25b41462000206578063088302a614620002585780630e72e41e146200027f578063171060ec14620002b55780631812adb614620002dc5780631e7107c714620003035780633669391e146200032857806349c544e1146200034057806350d74468146200035757806361d027b3146200037c57806363908020146200039e5780636b2857ef14620003b65780636e8adf6114620003db57806370872aa51462000415578063715018a6146200042d57806372d66a57146200044557806375122f62146200046a5780637ed55748146200048f5780637fa45a6914620004b4578063839ae1d714620004f05780638be727e114620005075780638da5cb5b146200052c5780639637e4a814620005445780639a8a059214620005695780639aed427914620005815780639eca44531462000599578063a3696a0914620005ed578063a44c2b9a1462000612578063b3ff9f491462000637578063b4e183f4146200065e578063b59589d11462000683578063c805f68b14620006a5578063d4603f4c14620006ca578063d7b96d4e1462000704578063d8484ef51462000726578063e76507881462000751578063e91ffefd1462000845578063ef0e2ff4146200085c578063f0f442601462000881578063f2fde38b14620008a65762000201565b366200020157005b600080fd5b3480156200021357600080fd5b50620002406200022536600462003444565b609f602052600090815260409020546001600160a01b031681565b6040516200024f919062003b4d565b60405180910390f35b3480156200026557600080fd5b5062000270620008cb565b6040516200024f919062003f55565b3480156200028c57600080fd5b50620002a46200029e36600462003444565b62000961565b60405190151581526020016200024f565b348015620002c257600080fd5b50620002da620002d436600462003333565b620009b1565b005b348015620002e957600080fd5b50620002f460995481565b6040519081526020016200024f565b3480156200031057600080fd5b50620002da6200032236600462003444565b62000a5a565b3480156200033557600080fd5b50620002f4609b5481565b620002da6200035136600462003476565b62000aba565b3480156200036457600080fd5b50620002da62000376366004620038f9565b62001334565b3480156200038957600080fd5b50609d5462000240906001600160a01b031681565b348015620003ab57600080fd5b50620002f4609a5481565b348015620003c357600080fd5b50620002da620003d536600462003834565b620014b3565b348015620003e857600080fd5b5062000240620003fa36600462003444565b60a2602052600090815260409020546001600160a01b031681565b3480156200042257600080fd5b50620002f460975481565b3480156200043a57600080fd5b50620002da62001526565b3480156200045257600080fd5b50620002da6200046436600462003768565b62001532565b3480156200047757600080fd5b50620002da6200048936600462003866565b62001836565b3480156200049c57600080fd5b50620002da620004ae36600462003444565b620018f7565b348015620004c157600080fd5b50620002f4620004d3366004620036af565b805160208183018101805160a08252928201919093012091525481565b620002da6200050136600462003571565b62001996565b3480156200051457600080fd5b50620002da6200052636600462003444565b62001e07565b3480156200053957600080fd5b506200024062001f97565b3480156200055157600080fd5b50620002da6200056336600462003444565b62001fa6565b3480156200057657600080fd5b50620002f460985481565b3480156200058e57600080fd5b50620002f460a75481565b348015620005a657600080fd5b50620005dd620005b836600462003444565b60a660205260009081526040902080546001909101546001600160a01b039091169082565b6040516200024f92919062003ce3565b348015620005fa57600080fd5b50620002da6200060c36600462003333565b62001ff1565b3480156200061f57600080fd5b50620002a46200063136600462003444565b6200209e565b3480156200064457600080fd5b5060a554620002409061010090046001600160a01b031681565b3480156200066b57600080fd5b50620002da6200067d3660046200365e565b620020bd565b3480156200069057600080fd5b50609c5462000240906001600160a01b031681565b348015620006b257600080fd5b50620002da620006c436600462003333565b62002114565b348015620006d757600080fd5b50620006ef620006e936600462003444565b620021b4565b6040516200024f979695949392919062003efb565b3480156200071157600080fd5b50609e5462000240906001600160a01b031681565b3480156200073357600080fd5b5060a554620007429060ff1681565b6040516200024f919062003f6a565b3480156200075e57600080fd5b50620007db6200077036600462003444565b60a160205260009081526040902080546001820154600283015460038401546004850154600586015460068701546007880154600889015460098a0154600a909a015460ff9099169997989697959694956001600160a01b039485169593851694929391929091168b565b604080519b15158c5260208c019a909a52988a0197909752606089019590955260808801939093526001600160a01b0391821660a0880152811660c087015260e086019190915261010085019190915261012084019190915216610140820152610160016200024f565b620002da62000856366004620039bc565b620022a8565b3480156200086957600080fd5b50620002da6200087b36600462003444565b620026c7565b3480156200088e57600080fd5b50620002da620008a036600462003333565b620026d6565b348015620008b357600080fd5b50620002da620008c536600462003333565b62002776565b60a48054620008da906200435d565b80601f016020809104026020016040519081016040528092919081815260200182805462000908906200435d565b8015620009595780601f106200092d5761010080835404028352916020019162000959565b820191906000526020600020905b8154815290600101906020018083116200093b57829003601f168201915b505050505081565b600060a382815481106200098557634e487b7160e01b600052603260045260246000fd5b600091825260209091206007909102015460ff16620009a6576000620009a9565b60015b90505b919050565b806001600160a01b038116620009e45760405162461bcd60e51b8152600401620009db9062004063565b60405180910390fd5b620009ee620027f5565b609e546040517f69253c7023f628e3a302b63087a3bfc1dfdb256780182f81b9f0df9eff9542b09162000a2f916001600160a01b0390911690859062003b61565b60405180910390a150609e80546001600160a01b0319166001600160a01b0392909216919091179055565b62000a64620027f5565b609754811162000ab55760405162461bcd60e51b815260206004820152601b60248201527a293ab732a937baba32b92637b3b4b19d103637bb90373ab6b132b960291b6044820152606401620009db565b609755565b62000ac462002858565b60a55461010090046001600160a01b031662000add3390565b6001600160a01b03161462000b355760405162461bcd60e51b815260206004820152601f60248201527f52756e65526f757465724c6f6769633a206e6f742074656c65706f72746572006044820152606401620009db565b600073F48FE44e0B1B8F3119Ac437c352555e6a0A2805B63e291283d609754609c60009054906101000a90046001600160a01b03168e8e8e8e8e8e8e8e8e6040518c63ffffffff1660e01b815260040162000b9b9b9a99989796959493929190620040b1565b60206040518083038186803b15801562000bb457600080fd5b505af415801562000bc9573d6000803e3d6000fd5b505050506040513d601f19601f8201168201806040525081019062000bef91906200345d565b905060008060008073F48FE44e0B1B8F3119Ac437c352555e6a0A2805B63d27fd71f6098548f8f8960a1609f60a6609954609a546040518a63ffffffff1660e01b815260040162000c4999989796959493929190620041d7565b60c06040518083038186803b15801562000c6257600080fd5b505af415801562000c77573d6000803e3d6000fd5b505050506040513d601f19601f8201168201806040525081019062000c9d9190620038a0565b9350935093509350806001600160a01b03166340c10f19308686604001518760200151886000015162000cd19190620042f5565b62000cdd9190620042f5565b62000ce99190620042f5565b6040518363ffffffff1660e01b815260040162000d0892919062003ce3565b602060405180830381600087803b15801562000d2357600080fd5b505af115801562000d38573d6000803e3d6000fd5b505050506040513d601f19601f8201168201806040525081019062000d5e919062003378565b50609d54835160405163a9059cbb60e01b81526001600160a01b038481169363a9059cbb9362000d9693929091169160040162003ce3565b602060405180830381600087803b15801562000db157600080fd5b505af115801562000dc6573d6000803e3d6000fd5b505050506040513d601f19601f8201168201806040525081019062000dec919062003378565b50609e54602084015160405163a9059cbb60e01b81526001600160a01b038481169363a9059cbb9362000e2793929091169160040162003ce3565b602060405180830381600087803b15801562000e4257600080fd5b505af115801562000e57573d6000803e3d6000fd5b505050506040513d601f19601f8201168201806040525081019062000e7d919062003378565b506001600160a01b0382161562000f1957604080840151905163a9059cbb60e01b81526001600160a01b0383169163a9059cbb9162000ec191869160040162003ce3565b602060405180830381600087803b15801562000edc57600080fd5b505af115801562000ef1573d6000803e3d6000fd5b505050506040513d601f19601f8201168201806040525081019062000f17919062003378565b505b600085815260a16020908152604091829020825161016081018452815460ff16151581526001820154928101929092526002810154928201839052600381015460608301526004810154608083015260058101546001600160a01b0390811660a08401526006820154811660c0840152600782015460e084015260088201546101008401526009820154610120840152600a909101541661014082015290620010945760c081015160405163a9059cbb60e01b81526001600160a01b0384169163a9059cbb9162000ff09190899060040162003ce3565b602060405180830381600087803b1580156200100b57600080fd5b505af115801562001020573d6000803e3d6000fd5b505050506040513d601f19601f8201168201806040525081019062001046919062003378565b507f43c9c64e3d0a7d664252e89fe26c8958a77098900ebf13f7aa95030a371bc4328160c00151868487878b604051620010869695949392919062003cfc565b60405180910390a162001317565b8060a001516001600160a01b031687600081518110620010c457634e487b7160e01b600052603260045260246000fd5b60200260200101516001600160a01b03161480156200113057508061014001516001600160a01b03168760018951620010fe919062004310565b815181106200111d57634e487b7160e01b600052603260045260246000fd5b60200260200101516001600160a01b0316145b6200117c5760405162461bcd60e51b815260206004820152601b60248201527a0a4eadccaa4deeae8cae498deced2c67440eee4dedcce40e0c2e8d602b1b6044820152606401620009db565b6000806200119b83604001518460c00151898661012001518d620028b4565b91509150811562001233577fed12b1e275b408eb8b01de7d246293c2daf02f98422b51b0af3012463e2a725e8360c0015188868460018651620011df919062004310565b81518110620011fe57634e487b7160e01b600052603260045260246000fd5b60200260200101518761014001518b8b8f6040516200122598979695949392919062003d42565b60405180910390a162001314565b7f2eefdda27738a7be93aea5dafceb4d8af2e8e046fd411a8c94bb449508af05a28360c0015188868661012001518761014001518b8b8f6040516200128098979695949392919062003d42565b60405180910390a160c083015160405163a9059cbb60e01b81526001600160a01b0386169163a9059cbb91620012bc91908b9060040162003ce3565b602060405180830381600087803b158015620012d757600080fd5b505af1158015620012ec573d6000803e3d6000fd5b505050506040513d601f19601f8201168201806040525081019062001312919062003378565b505b50505b505050505050620013286001606555565b50505050505050505050565b600054610100900460ff1615808015620013555750600054600160ff909116105b80620013715750303b15801562001371575060005460ff166001145b620013d65760405162461bcd60e51b815260206004820152602e60248201527f496e697469616c697a61626c653a20636f6e747261637420697320616c72656160448201526d191e481a5b9a5d1a585b1a5e995960921b6064820152608401620009db565b6000805460ff191660011790558015620013fa576000805461ff0019166101001790555b6200140462002b0b565b6200140e62002b3f565b60988890556200141e8a62000a5a565b6200142989620018f7565b620014348762002114565b6200143f86620009b1565b6200144b8585620020bd565b620014568362001ff1565b6200146182620026d6565b801562001328576000805461ff0019169055604051600181527f7f26b83ff96e1f2b6a682f133852f6798a09c465da95921460cefb38474024989060200160405180910390a150505050505050505050565b620014bd620027f5565b7f31a8c4e62daac2a3ed5d713004d9ae867d6dcddfa35603db2a4b65d9236b1bc18282604051620014f09291906200409a565b60405180910390a1600091825260a2602052604090912080546001600160a01b0319166001600160a01b03909216919091179055565b62001530620027f5565b565b6200153c620027f5565b6000818152609f60205260409020546001600160a01b0316156200159e5760405162461bcd60e51b8152602060048201526018602482015277149d5b99549bdd5d195c931bd9da58ce881d5cd959081a5960421b6044820152606401620009db565b600073F48FE44e0B1B8F3119Ac437c352555e6a0A2805B6374c6d02c6040518163ffffffff1660e01b815260040160206040518083038186803b158015620015e557600080fd5b505af4158015620015fa573d6000803e3d6000fd5b505050506040513d601f19601f8201168201806040525081019062001620919062003359565b905060606000826200163162001f97565b8360405162001640906200308d565b6200164e9392919062003b7b565b604051809103906000f0801580156200166b573d6000803e3d6000fd5b50604051630b127b6360e11b815290915081906001600160a01b03821690631624f6c690620016a3908b908b908b9060040162003f80565b600060405180830381600087803b158015620016be57600080fd5b505af1158015620016d3573d6000803e3d6000fd5b5050604051634c1d96ab60e11b81526001600160a01b038416925063983b2d5691506200170590309060040162003b4d565b600060405180830381600087803b1580156200172057600080fd5b505af115801562001735573d6000803e3d6000fd5b5050604051637a231bdd60e11b81526001600160a01b038416925063f44637ba91506200176790309060040162003b4d565b600060405180830381600087803b1580156200178257600080fd5b505af115801562001797573d6000803e3d6000fd5b5050506000868152609f60205260409081902080546001600160a01b0319166001600160a01b0385161790555186915060a090620017d7908b9062003b2f565b9081526020016040518091039020819055507f2cc525d657b0066593fa1e0f8b33688540b49339124365512a802412633991a4888888888589604051620018249695949392919062003fbd565b60405180910390a15050505050505050565b62001840620027f5565b600083815260a66020908152604091829020805460019091015483518781526001600160a01b039283169381019390935282840152841660608201526080810183905290517f23385740814648db624aa52a0c990fc42def14e1b04e7fe5b2bf87b85e1294529181900360a00190a16040805180820182526001600160a01b0393841681526020808201938452600095865260a690529320925183546001600160a01b031916921691909117825551600190910155565b62001901620027f5565b806127101015620019555760405162461bcd60e51b815260206004820152601d60248201527f52756e65526f757465724c6f6769633a206f7574206f662072616e67650000006044820152606401620009db565b60995460408051918252602082018390527f7d205f60891f60851c61cd244ba387d72b6589e7c0ac41b9d909ab0ce2c2a53b910160405180910390a1609955565b620019a062002858565b609e546001600160a01b0316336001600160a01b03161462001a035760405162461bcd60e51b815260206004820152601b60248201527a293ab732a937baba32b92637b3b4b19d103737ba103637b1b5b2b960291b6044820152606401620009db565b609754609c5460405163e291283d60e01b815273F48FE44e0B1B8F3119Ac437c352555e6a0A2805B9263e291283d9262001a5a926001600160a01b03909116908d908d908d908d908d908d908d9060040162004146565b60206040518083038186803b15801562001a7357600080fd5b505af415801562001a88573d6000803e3d6000fd5b505050506040513d601f19601f8201168201806040525081019062001aae91906200345d565b5060005b815181101562001df15760a382828151811062001adf57634e487b7160e01b600052603260045260246000fd5b60200260200101518154811062001b0657634e487b7160e01b600052603260045260246000fd5b600091825260209091206007909102015460ff161562001b745760405162461bcd60e51b815260206004820152602260248201527f52756e65526f757465724c6f6769633a20616c72656164792070726f63657373604482015261195960f21b6064820152608401620009db565b600160a383838151811062001b9957634e487b7160e01b600052603260045260246000fd5b60200260200101518154811062001bc057634e487b7160e01b600052603260045260246000fd5b906000526020600020906007020160000160006101000a81548160ff0219169083151502179055507f42975333d773ba95b24fa6c9b8127fc4a9bc1bafb6293c8c9daa4f6aed0bc34960a383838151811062001c2c57634e487b7160e01b600052603260045260246000fd5b60200260200101518154811062001c5357634e487b7160e01b600052603260045260246000fd5b906000526020600020906007020160040160009054906101000a90046001600160a01b031660a384848151811062001c9b57634e487b7160e01b600052603260045260246000fd5b60200260200101518154811062001cc257634e487b7160e01b600052603260045260246000fd5b90600052602060002090600702016002015460a385858151811062001cf757634e487b7160e01b600052603260045260246000fd5b60200260200101518154811062001d1e57634e487b7160e01b600052603260045260246000fd5b906000526020600020906007020160050160a386868151811062001d5257634e487b7160e01b600052603260045260246000fd5b60200260200101518154811062001d7957634e487b7160e01b600052603260045260246000fd5b906000526020600020906007020160060160009054906101000a900460ff1686868151811062001db957634e487b7160e01b600052603260045260246000fd5b602002602001015160405162001dd495949392919062003d9b565b60405180910390a18062001de8816200439a565b91505062001ab2565b5062001dfd6001606555565b5050505050505050565b62001e11620027f5565b6000818152609f60205260409020546001600160a01b031662001e735760405162461bcd60e51b8152602060048201526019602482015278293ab732a937baba32b92637b3b4b19d103737903a37b5b2b760391b6044820152606401620009db565b6000818152609f6020526040908190205490517ff61991393940604b8433d5f9a855624b8452e131d66e476a45c7139651df96999162001ebf9184916001600160a01b0316906200409a565b60405180910390a16000818152609f60205260408082205481516306fdde0360e01b8152915160a0926001600160a01b03909216916306fdde039160048083019287929190829003018186803b15801562001f1957600080fd5b505afa15801562001f2e573d6000803e3d6000fd5b505050506040513d6000823e601f3d908101601f1916820160405262001f589190810190620036ed565b60405162001f67919062003b2f565b9081526040805160209281900383019020929092556000928352609f9052902080546001600160a01b0319169055565b6033546001600160a01b031690565b62001fb0620027f5565b60a75460408051918252602082018390527f24a1cf21e7b4eac23dffa41704078ed28bbe2a42187f6aa014899c5413cd01b7910160405180910390a160a755565b806001600160a01b0381166200201b5760405162461bcd60e51b8152600401620009db9062004063565b62002025620027f5565b7f150b77d21bd499fd0dccea9fe32513c7b65aa34ccde41e7dafac74ace8e19c9460a560019054906101000a90046001600160a01b0316836040516200206d92919062003b61565b60405180910390a15060a580546001600160a01b0390921661010002610100600160a81b0319909216919091179055565b600081815260a1602052604081205460ff16620009a6576000620009a9565b620020c7620027f5565b8151620020dc9060a49060208501906200309b565b5060a5805482919060ff191660018360058111156200210b57634e487b7160e01b600052602160045260246000fd5b02179055505050565b806001600160a01b0381166200213e5760405162461bcd60e51b8152600401620009db9062004063565b62002148620027f5565b609c546040517f4c28a3f61a715259c4dc930c23e7423b8fa52e13232c061a6e488729c66184f49162002189916001600160a01b0390911690859062003b61565b60405180910390a150609c80546001600160a01b0319166001600160a01b0392909216919091179055565b60a38181548110620021c557600080fd5b600091825260209091206007909102018054600182015460028301546003840154600485015460058601805460ff90961697509395929491936001600160a01b03909116929162002216906200435d565b80601f016020809104026020016040519081016040528092919081815260200182805462002244906200435d565b8015620022955780601f10620022695761010080835404028352916020019162002295565b820191906000526020600020905b8154815290600101906020018083116200227757829003601f168201915b5050506006909301549192505060ff1687565b620022b262002858565b6000878152609f60205260409020546001600160a01b031680620023195760405162461bcd60e51b815260206004820152601e60248201527f52756e65526f757465724c6f6769633a206e6f7420737570706f7274656400006044820152606401620009db565b60a7543414620023695760405162461bcd60e51b815260206004820152601a60248201527952756e65526f757465724c6f6769633a2077726f6e672066656560301b6044820152606401620009db565b815115620024c957816000815181106200239357634e487b7160e01b600052603260045260246000fd5b60200260200101516001600160a01b03166323b872dd3330866040518463ffffffff1660e01b8152600401620023cc9392919062003ba9565b602060405180830381600087803b158015620023e757600080fd5b505af1158015620023fc573d6000803e3d6000fd5b505050506040513d601f19601f8201168201806040525081019062002422919062003378565b50600080620024358630878c88620028b4565b9150915081620024875760405162461bcd60e51b815260206004820152601c60248201527b149d5b99549bdd5d195c931bd9da58ce881cddd85c0819985a5b195960221b6044820152606401620009db565b806001825162002498919062004310565b81518110620024b757634e487b7160e01b600052603260045260246000fd5b6020026020010151985050506200259f565b6040516323b872dd60e01b81526001600160a01b038216906323b872dd90620024fb90339030908c9060040162003ba9565b602060405180830381600087803b1580156200251657600080fd5b505af11580156200252b573d6000803e3d6000fd5b505050506040513d601f19601f8201168201806040525081019062002551919062003378565b6200259f5760405162461bcd60e51b815260206004820181905260248201527f52756e65526f757465724c6f6769633a207472616e73666572206661696c65646044820152606401620009db565b6000806000620025b38c858c8c8c62002b73565b9250925092508451600014156200262a577f7ded23d6204f0918dc93f275df51659538e59e8aaf5698ce1f49180c22857b53338a8a878e868960a7548a600160a38054905062002604919062004310565b6040516200261c9a9998979695949392919062003bcd565b60405180910390a1620026b8565b7fe17d30e84f141d5effc904ed29262988eb565f53a8c01270148776b88451bb71338a8a89896000815181106200267157634e487b7160e01b600052603260045260246000fd5b60200260200101518f878b8b60a7548c600160a38054905062002695919062004310565b604051620026af9c9b9a9998979695949392919062003c51565b60405180910390a15b5050505062001dfd6001606555565b620026d1620027f5565b609855565b806001600160a01b038116620027005760405162461bcd60e51b8152600401620009db9062004063565b6200270a620027f5565b609d546040517f567657fa3f286518b318f4a29870674f433f622fdfc819691acb13105b228225916200274b916001600160a01b0390911690859062003b61565b60405180910390a150609d80546001600160a01b0319166001600160a01b0392909216919091179055565b62002780620027f5565b6001600160a01b038116620027e75760405162461bcd60e51b815260206004820152602660248201527f4f776e61626c653a206e6577206f776e657220697320746865207a65726f206160448201526564647265737360d01b6064820152608401620009db565b620027f28162002ebb565b50565b336200280062001f97565b6001600160a01b031614620015305760405162461bcd60e51b815260206004820181905260248201527f4f776e61626c653a2063616c6c6572206973206e6f7420746865206f776e65726044820152606401620009db565b60026065541415620028ad5760405162461bcd60e51b815260206004820152601f60248201527f5265656e7472616e637947756172643a207265656e7472616e742063616c6c006044820152606401620009db565b6002606555565b600085815260a260205260408120546060906001600160a01b0316806200291e5760405162461bcd60e51b815260206004820152601e60248201527f52756e65526f757465724c6f6769633a20696e76616c696420617070496400006044820152606401620009db565b836000815181106200294057634e487b7160e01b600052603260045260246000fd5b60200260200101516001600160a01b031663095ea7b382886040518363ffffffff1660e01b81526004016200297792919062003ce3565b602060405180830381600087803b1580156200299257600080fd5b505af1158015620029a7573d6000803e3d6000fd5b505050506040513d601f19601f82011682018060405250810190620029cd919062003378565b506040516326d2f28960e21b81526001600160a01b03821690639b4bca2490620029fc90879060040162003ee6565b60206040518083038186803b15801562002a1557600080fd5b505afa15801562002a2a573d6000803e3d6000fd5b505050506040513d601f19601f8201168201806040525081019062002a50919062003378565b1562002af45760405163161779b160e31b81526001600160a01b0382169063b0bbcd889062002a8f908990899089908d90429060019060040162004228565b600060405180830381600087803b15801562002aaa57600080fd5b505af115801562002abf573d6000803e3d6000fd5b505050506040513d6000823e601f3d908101601f1916820160405262002ae9919081019062003395565b909350915062002af9565b600092505b509550959350505050565b6001606555565b600054610100900460ff1662002b355760405162461bcd60e51b8152600401620009db9062004018565b6200153062002f0d565b600054610100900460ff1662002b695760405162461bcd60e51b8152600401620009db9062004018565b6200153062002f42565b62002b9860405180606001604052806000815260200160008152602001600081525090565b60008073F48FE44e0B1B8F3119Ac437c352555e6a0A2805B6394d8bc6a33609954609a5460a360a68e8d8d8d6040518a63ffffffff1660e01b815260040162002bea9998979695949392919062003e7d565b60a06040518083038186803b15801562002c0357600080fd5b505af415801562002c18573d6000803e3d6000fd5b505050506040513d601f19601f8201168201806040525081019062002c3e9190620037ef565b609b80549396509194509250600062002c57836200439a565b9091555050609d54835160405163a9059cbb60e01b81526001600160a01b038a81169363a9059cbb9362002c9393929091169160040162003ce3565b602060405180830381600087803b15801562002cae57600080fd5b505af115801562002cc3573d6000803e3d6000fd5b505050506040513d601f19601f8201168201806040525081019062002ce9919062003378565b50609e54602084015160405163a9059cbb60e01b81526001600160a01b038a81169363a9059cbb9362002d2493929091169160040162003ce3565b602060405180830381600087803b15801562002d3f57600080fd5b505af115801562002d54573d6000803e3d6000fd5b505050506040513d601f19601f8201168201806040525081019062002d7a919062003378565b506001600160a01b0382161562002e1657604080840151905163a9059cbb60e01b81526001600160a01b0389169163a9059cbb9162002dbe91869160040162003ce3565b602060405180830381600087803b15801562002dd957600080fd5b505af115801562002dee573d6000803e3d6000fd5b505050506040513d601f19601f8201168201806040525081019062002e14919062003378565b505b609e5460a75462002e31916001600160a01b03169062002f6c565b604051630852cd8d60e31b8152600481018290526001600160a01b038816906342966c6890602401602060405180830381600087803b15801562002e7457600080fd5b505af115801562002e89573d6000803e3d6000fd5b505050506040513d601f19601f8201168201806040525081019062002eaf919062003378565b50955095509592505050565b603380546001600160a01b038381166001600160a01b0319831681179093556040519116919082907f8be0079c531659141344cd1fd0a4f28419497f9722a3daafe3b4186f6b6457e090600090a35050565b600054610100900460ff1662002f375760405162461bcd60e51b8152600401620009db9062004018565b620015303362002ebb565b600054610100900460ff1662002b045760405162461bcd60e51b8152600401620009db9062004018565b8047101562002fbe5760405162461bcd60e51b815260206004820152601d60248201527f416464726573733a20696e73756666696369656e742062616c616e63650000006044820152606401620009db565b6000826001600160a01b03168260405160006040518083038185875af1925050503d80600081146200300d576040519150601f19603f3d011682016040523d82523d6000602084013e62003012565b606091505b5050905080620030885760405162461bcd60e51b815260206004820152603a60248201527f416464726573733a20756e61626c6520746f2073656e642076616c75652c20726044820152791958da5c1a595b9d081b585e481a185d99481c995d995c9d195960321b6064820152608401620009db565b505050565b610f5780620043fb83390190565b828054620030a9906200435d565b90600052602060002090601f016020900481019282620030cd576000855562003118565b82601f10620030e857805160ff191683800117855562003118565b8280016001018555821562003118579182015b8281111562003118578251825591602001919060010190620030fb565b50620031269291506200312a565b5090565b5b808211156200312657600081556001016200312b565b600082601f83011262003152578081fd5b813560206200316b6200316583620042a5565b62004272565b828152818101908583018385028701840188101562003188578586fd5b855b85811015620031b3578135620031a081620043e4565b845292840192908401906001016200318a565b5090979650505050505050565b600082601f830112620031d1578081fd5b81356020620031e46200316583620042a5565b828152818101908583018385028701840188101562003201578586fd5b855b85811015620031b35781358452928401929084019060010162003203565b80518015158114620009ac57600080fd5b80356001600160e01b031981168114620009ac57600080fd5b60008083601f8401126200325d578182fd5b5081356001600160401b0381111562003274578182fd5b6020830191508360208285010111156200328d57600080fd5b9250929050565b600082601f830112620032a5578081fd5b8135620032b66200316582620042cb565b818152846020838601011115620032cb578283fd5b816020850160208301379081016020019190915292915050565b803560068110620009ac57600080fd5b60006060828403121562003307578081fd5b62003313606062004272565b905081518152602082015160208201526040820151604082015292915050565b60006020828403121562003345578081fd5b81356200335281620043e4565b9392505050565b6000602082840312156200336b578081fd5b81516200335281620043e4565b6000602082840312156200338a578081fd5b620033528262003221565b60008060408385031215620033a8578081fd5b620033b38362003221565b602084810151919350906001600160401b03811115620033d1578283fd5b8401601f81018613620033e2578283fd5b8051620033f36200316582620042a5565b81815283810190838501858402850186018a101562003410578687fd5b8694505b838510156200343457805183526001949094019391850191850162003414565b5080955050505050509250929050565b60006020828403121562003456578081fd5b5035919050565b6000602082840312156200346f578081fd5b5051919050565b6000806000806000806000806000806101008b8d03121562003496578586fd5b620034a18b62003232565b995060208b01356001600160401b0380821115620034bd578788fd5b620034cb8e838f0162003294565b9a5060408d0135915080821115620034e1578788fd5b620034ef8e838f016200324b565b909a5098508891506200350560608e0162003232565b975060808d0135965060a08d013591508082111562003522578586fd5b620035308e838f016200324b565b909650945060c08d0135935060e08d013591508082111562003550578283fd5b506200355f8d828e0162003141565b9150509295989b9194979a5092959850565b600080600080600080600080610100898b0312156200358e578182fd5b620035998962003232565b975060208901356001600160401b0380821115620035b5578384fd5b620035c38c838d0162003294565b985060408b0135915080821115620035d9578384fd5b620035e78c838d0162003294565b9750620035f760608c0162003232565b965060808b0135955060a08b013591508082111562003614578384fd5b620036228c838d0162003294565b945060c08b0135935060e08b01359150808211156200363f578283fd5b506200364e8b828c01620031c0565b9150509295985092959890939650565b6000806040838503121562003671578182fd5b82356001600160401b0381111562003687578283fd5b620036958582860162003294565b925050620036a660208401620032e5565b90509250929050565b600060208284031215620036c1578081fd5b81356001600160401b03811115620036d7578182fd5b620036e58482850162003294565b949350505050565b600060208284031215620036ff578081fd5b81516001600160401b0381111562003715578182fd5b8201601f8101841362003726578182fd5b8051620037376200316582620042cb565b8181528560208385010111156200374c578384fd5b6200375f8260208301602086016200432a565b95945050505050565b600080600080608085870312156200377e578182fd5b84356001600160401b038082111562003795578384fd5b620037a38883890162003294565b95506020870135915080821115620037b9578384fd5b50620037c88782880162003294565b935050604085013560ff81168114620037df578283fd5b9396929550929360600135925050565b600080600060a0848603121562003804578081fd5b620038108585620032f5565b925060608401516200382281620043e4565b80925050608084015190509250925092565b6000806040838503121562003847578182fd5b8235915060208301356200385b81620043e4565b809150509250929050565b6000806000606084860312156200387b578081fd5b8335925060208401356200388f81620043e4565b929592945050506040919091013590565b60008060008060c08587031215620038b6578182fd5b84519350620038c98660208701620032f5565b92506080850151620038db81620043e4565b60a0860151909250620038ee81620043e4565b939692955090935050565b60008060008060008060008060006101208a8c03121562003918578283fd5b8935985060208a0135975060408a0135965060608a01356200393a81620043e4565b955060808a01356200394c81620043e4565b945060a08a01356001600160401b0381111562003967578384fd5b620039758c828d0162003294565b9450506200398660c08b01620032e5565b925060e08a01356200399881620043e4565b91506101008a0135620039ab81620043e4565b809150509295985092959850929598565b600080600080600080600080610100898b031215620039d9578182fd5b88359750602089013596506040890135955060608901356001600160401b038082111562003a05578384fd5b62003a138c838d0162003294565b965062003a2360808c01620032e5565b955060a08b0135945060c08b0135935060e08b013591508082111562003a47578283fd5b506200364e8b828c0162003141565b6000815180845260208085019450808401835b8381101562003a905781516001600160a01b03168752958201959082019060010162003a69565b509495945050505050565b60008284528282602086013780602084860101526020601f19601f85011685010190509392505050565b6000815180845262003adf8160208601602086016200432a565b601f01601f19169290920160200192915050565b6006811062003b1257634e487b7160e01b600052602160045260246000fd5b9052565b8051825260208082015190830152604090810151910152565b6000825162003b438184602087016200432a565b9190910192915050565b6001600160a01b0391909116815260200190565b6001600160a01b0392831681529116602082015260400190565b6001600160a01b038481168252831660208201526060604082018190526000906200375f9083018462003ac5565b6001600160a01b039384168152919092166020820152604081019190915260600190565b6001600160a01b038b811682526101806020830181905260009162003bf58483018e62003ac5565b925062003c06604085018d62003af3565b808b1660608501528960808501528860a085015262003c2960c085018962003b16565b866101208501528086166101408501525050826101608301529b9a5050505050505050505050565b600060018060a01b03808f1683526101c0602084015262003c776101c084018f62003ac5565b915062003c88604084018e62003af3565b8b6060840152808b1660808401528960a08401528860c084015280881660e084015262003cba61010084018862003b16565b8561016084015280851661018084015250826101a08301529d9c50505050505050505050505050565b6001600160a01b03929092168252602082015260400190565b6001600160a01b03878116825260208201879052858116604083015261010082019062003d2d606084018762003b16565b9390931660c082015260e00152949350505050565b6001600160a01b03898116825260208201899052878116604083015260608201879052858116608083015261014082019062003d8260a084018762003b16565b9390931661010082015261012001529695505050505050565b6001600160a01b0386168152602080820186905260a0604083015284546000919082906002810460018281168062003dd457607f831692505b85831081141562003df357634e487b7160e01b87526022600452602487fd5b60a0880183905260c0880181801562003e15576001811462003e275762003e53565b60ff1986168252878201965062003e53565b60008d815260209020895b8681101562003e4d5781548482015290850190890162003e32565b83019750505b505050505050809250505062003e6d606083018562003af3565b8260808301529695505050505050565b600061012060018060a01b038c1683528a60208401528960408401528860608401528760808401528660a08401528560c08401528060e084015262003ec58184018662003ac5565b91505062003ed861010083018462003af3565b9a9950505050505050505050565b60006020825262003352602083018462003a56565b6000881515825287602083015286604083015285606083015260018060a01b038516608083015260e060a083015262003f3860e083018562003ac5565b905062003f4960c083018462003af3565b98975050505050505050565b60006020825262003352602083018462003ac5565b6020810162003f7a828462003af3565b92915050565b60006060825262003f95606083018662003ac5565b828103602084015262003fa9818662003ac5565b91505060ff83166040830152949350505050565b600060c0825262003fd260c083018962003ac5565b828103602084015262003fe6818962003ac5565b60ff979097166040840152505060608101939093526001600160a01b0391821660808401521660a09091015292915050565b6020808252602b908201527f496e697469616c697a61626c653a20636f6e7472616374206973206e6f74206960408201526a6e697469616c697a696e6760a81b606082015260800190565b6020808252601d908201527f52756e65526f757465724c6f6769633a207a65726f2061646472657373000000604082015260600190565b9182526001600160a01b0316602082015260400190565b8b81526001600160a01b038b1660208201526001600160e01b03198a8116604083015261012060608301819052600091620040ef8483018d62003ac5565b9150838203608085015262004106828b8d62003a9b565b915080891660a0850152508660c084015282810360e08401526200412c81868862003a9b565b915050826101008301529c9b505050505050505050505050565b8981526001600160a01b03891660208201526001600160e01b0319888116604083015261012060608301819052600091620041848483018b62003ac5565b915083820360808501526200419a828a62003ac5565b915080881660a0850152508560c084015282810360e0840152620041bf818662003ac5565b915050826101008301529a9950505050505050505050565b60006101008b8352806020840152620041f48184018b8d62003a9b565b604084019990995250506060810195909552608085019390935260a084019190915260c083015260e0909101529392505050565b600087825286602083015260c060408301526200424960c083018762003a56565b6001600160a01b03959095166060830152506080810192909252151560a0909101529392505050565b604051601f8201601f191681016001600160401b03811182821017156200429d576200429d620043ce565b604052919050565b60006001600160401b03821115620042c157620042c1620043ce565b5060209081020190565b60006001600160401b03821115620042e757620042e7620043ce565b50601f01601f191660200190565b600082198211156200430b576200430b620043b8565b500190565b600082821015620043255762004325620043b8565b500390565b60005b83811015620043475781810151838201526020016200432d565b8381111562004357576000848401525b50505050565b6002810460018216806200437257607f821691505b602082108114156200439457634e487b7160e01b600052602260045260246000fd5b50919050565b6000600019821415620043b157620043b1620043b8565b5060010190565b634e487b7160e01b600052601160045260246000fd5b634e487b7160e01b600052604160045260246000fd5b6001600160a01b0381168114620027f257600080fdfe608060405260405162000f5738038062000f578339810160408190526200002691620004e8565b82828282816200005860017f360894a13ba1a3210667c828492db98dca3e2076cc3735a920a3ca505d382bbd62000617565b60008051602062000f10833981519152146200008457634e487b7160e01b600052600160045260246000fd5b620000928282600062000105565b50620000c2905060017fb53127684a568b3173ae13b9f8a6016e243e63b6e8ee1178d6a717850b5d610462000617565b60008051602062000ef083398151915214620000ee57634e487b7160e01b600052600160045260246000fd5b620000f98262000142565b50505050505062000680565b62000110836200019d565b6000825111806200011e5750805b156200013d576200013b8383620001df60201b6200026c1760201c565b505b505050565b7f7e644d79422f17c01e4894b5f4f588d331ebfa28653d42ae832dc59e38c9798f6200016d6200020e565b604080516001600160a01b03928316815291841660208301520160405180910390a16200019a8162000247565b50565b620001a881620002fc565b6040516001600160a01b038216907fbc7cd75a20ee27fd9adebab32041f755214dbc6bffa90cc0225b39da2e5c2d3b90600090a250565b606062000207838360405180606001604052806027815260200162000f30602791396200039f565b9392505050565b60006200023860008051602062000ef083398151915260001b6200048560201b620002141760201c565b546001600160a01b0316905090565b6001600160a01b038116620002b25760405162461bcd60e51b815260206004820152602660248201527f455243313936373a206e65772061646d696e20697320746865207a65726f206160448201526564647265737360d01b60648201526084015b60405180910390fd5b80620002db60008051602062000ef083398151915260001b6200048560201b620002141760201c565b80546001600160a01b0319166001600160a01b039290921691909117905550565b62000312816200048860201b620002981760201c565b620003765760405162461bcd60e51b815260206004820152602d60248201527f455243313936373a206e657720696d706c656d656e746174696f6e206973206e60448201526c1bdd08184818dbdb9d1c9858dd609a1b6064820152608401620002a9565b80620002db60008051602062000f1083398151915260001b6200048560201b620002141760201c565b6060620003ac8462000488565b620004095760405162461bcd60e51b815260206004820152602660248201527f416464726573733a2064656c65676174652063616c6c20746f206e6f6e2d636f6044820152651b9d1c9858dd60d21b6064820152608401620002a9565b600080856001600160a01b031685604051620004269190620005c4565b600060405180830381855af49150503d806000811462000463576040519150601f19603f3d011682016040523d82523d6000602084013e62000468565b606091505b5090925090506200047b82828662000492565b9695505050505050565b90565b803b15155b919050565b60608315620004a357508162000207565b825115620004b45782518084602001fd5b8160405162461bcd60e51b8152600401620002a99190620005e2565b80516001600160a01b03811681146200048d57600080fd5b600080600060608486031215620004fd578283fd5b6200050884620004d0565b92506200051860208501620004d0565b60408501519092506001600160401b038082111562000535578283fd5b818601915086601f83011262000549578283fd5b8151818111156200055e576200055e6200066a565b604051601f8201601f19908116603f011681019083821181831017156200058957620005896200066a565b81604052828152896020848701011115620005a2578586fd5b620005b58360208301602088016200063b565b80955050505050509250925092565b60008251620005d88184602087016200063b565b9190910192915050565b6000602082528251806020840152620006038160408501602087016200063b565b601f01601f19169190910160400192915050565b6000828210156200063657634e487b7160e01b81526011600452602481fd5b500390565b60005b83811015620006585781810151838201526020016200063e565b838111156200013b5750506000910152565b634e487b7160e01b600052604160045260246000fd5b61086080620006906000396000f3fe60806040526004361061004e5760003560e01c80633659cfe6146100655780634f1ef286146100855780635c60da1b146100985780638f283970146100c9578063f851a440146100e95761005d565b3661005d5761005b6100fe565b005b61005b6100fe565b34801561007157600080fd5b5061005b6100803660046106b1565b610118565b61005b6100933660046106cb565b610164565b3480156100a457600080fd5b506100ad6101da565b6040516001600160a01b03909116815260200160405180910390f35b3480156100d557600080fd5b5061005b6100e43660046106b1565b610217565b3480156100f557600080fd5b506100ad610241565b6101066102a2565b610116610111610346565b610355565b565b610120610379565b6001600160a01b0316336001600160a01b03161415610159576101548160405180602001604052806000815250600061039a565b610161565b6101616100fe565b50565b61016c610379565b6001600160a01b0316336001600160a01b031614156101cd576101c88383838080601f0160208091040260200160405190810160405280939291908181526020018383808284376000920191909152506001925061039a915050565b6101d5565b6101d56100fe565b505050565b60006101e4610379565b6001600160a01b0316336001600160a01b0316141561020c57610205610346565b9050610214565b6102146100fe565b90565b61021f610379565b6001600160a01b0316336001600160a01b0316141561015957610154816103c5565b600061024b610379565b6001600160a01b0316336001600160a01b0316141561020c57610205610379565b6060610291838360405180606001604052806027815260200161080460279139610419565b9392505050565b803b15155b919050565b6102aa610379565b6001600160a01b0316336001600160a01b031614156103415760405162461bcd60e51b815260206004820152604260248201527f5472616e73706172656e745570677261646561626c6550726f78793a2061646d60448201527f696e2063616e6e6f742066616c6c6261636b20746f2070726f78792074617267606482015261195d60f21b608482015260a4015b60405180910390fd5b610116565b60006103506104f4565b905090565b3660008037600080366000845af43d6000803e808015610374573d6000f35b3d6000fd5b60006000805160206107c48339815191525b546001600160a01b0316905090565b6103a38361050a565b6000825111806103b05750805b156101d5576103bf838361026c565b50505050565b7f7e644d79422f17c01e4894b5f4f588d331ebfa28653d42ae832dc59e38c9798f6103ee610379565b604080516001600160a01b03928316815291841660208301520160405180910390a16101618161054a565b606061042484610298565b61047f5760405162461bcd60e51b815260206004820152602660248201527f416464726573733a2064656c65676174652063616c6c20746f206e6f6e2d636f6044820152651b9d1c9858dd60d21b6064820152608401610338565b600080856001600160a01b03168560405161049a9190610748565b600060405180830381855af49150503d80600081146104d5576040519150601f19603f3d011682016040523d82523d6000602084013e6104da565b606091505b50915091506104ea8282866105e1565b9695505050505050565b60006000805160206107e483398151915261038b565b6105138161061a565b6040516001600160a01b038216907fbc7cd75a20ee27fd9adebab32041f755214dbc6bffa90cc0225b39da2e5c2d3b90600090a250565b6001600160a01b0381166105af5760405162461bcd60e51b815260206004820152602660248201527f455243313936373a206e65772061646d696e20697320746865207a65726f206160448201526564647265737360d01b6064820152608401610338565b806000805160206107c48339815191525b80546001600160a01b0319166001600160a01b039290921691909117905550565b606083156105f0575081610291565b8251156106005782518084602001fd5b8160405162461bcd60e51b81526004016103389190610764565b61062381610298565b6106855760405162461bcd60e51b815260206004820152602d60248201527f455243313936373a206e657720696d706c656d656e746174696f6e206973206e60448201526c1bdd08184818dbdb9d1c9858dd609a1b6064820152608401610338565b806000805160206107e48339815191526105c0565b80356001600160a01b038116811461029d57600080fd5b6000602082840312156106c2578081fd5b6102918261069a565b6000806000604084860312156106df578182fd5b6106e88461069a565b925060208401356001600160401b0380821115610703578384fd5b818601915086601f830112610716578384fd5b813581811115610724578485fd5b876020828501011115610735578485fd5b6020830194508093505050509250925092565b6000825161075a818460208701610797565b9190910192915050565b6000602082528251806020840152610783816040850160208701610797565b601f01601f19169190910160400192915050565b60005b838110156107b257818101518382015260200161079a565b838111156103bf575050600091015256feb53127684a568b3173ae13b9f8a6016e243e63b6e8ee1178d6a717850b5d6103360894a13ba1a3210667c828492db98dca3e2076cc3735a920a3ca505d382bbc416464726573733a206c6f772d6c6576656c2064656c65676174652063616c6c206661696c6564a2646970667358221220a44f650cfecd4bb5135485e0d41e1056dda80b013f3808b512af643d505003e864736f6c63430008020033b53127684a568b3173ae13b9f8a6016e243e63b6e8ee1178d6a717850b5d6103360894a13ba1a3210667c828492db98dca3e2076cc3735a920a3ca505d382bbc416464726573733a206c6f772d6c6576656c2064656c65676174652063616c6c206661696c6564a26469706673582212205c7e233d52ecd9547ffa7a8ca0a9413d1f329346103f3bd6e3e079966890b11864736f6c63430008020033",
  "deployedBytecode": "0x608060405260043610620001f95760003560e01c8063023e25b41462000206578063088302a614620002585780630e72e41e146200027f578063171060ec14620002b55780631812adb614620002dc5780631e7107c714620003035780633669391e146200032857806349c544e1146200034057806350d74468146200035757806361d027b3146200037c57806363908020146200039e5780636b2857ef14620003b65780636e8adf6114620003db57806370872aa51462000415578063715018a6146200042d57806372d66a57146200044557806375122f62146200046a5780637ed55748146200048f5780637fa45a6914620004b4578063839ae1d714620004f05780638be727e114620005075780638da5cb5b146200052c5780639637e4a814620005445780639a8a059214620005695780639aed427914620005815780639eca44531462000599578063a3696a0914620005ed578063a44c2b9a1462000612578063b3ff9f491462000637578063b4e183f4146200065e578063b59589d11462000683578063c805f68b14620006a5578063d4603f4c14620006ca578063d7b96d4e1462000704578063d8484ef51462000726578063e76507881462000751578063e91ffefd1462000845578063ef0e2ff4146200085c578063f0f442601462000881578063f2fde38b14620008a65762000201565b366200020157005b600080fd5b3480156200021357600080fd5b50620002406200022536600462003444565b609f602052600090815260409020546001600160a01b031681565b6040516200024f919062003b4d565b60405180910390f35b3480156200026557600080fd5b5062000270620008cb565b6040516200024f919062003f55565b3480156200028c57600080fd5b50620002a46200029e36600462003444565b62000961565b60405190151581526020016200024f565b348015620002c257600080fd5b50620002da620002d436600462003333565b620009b1565b005b348015620002e957600080fd5b50620002f460995481565b6040519081526020016200024f565b3480156200031057600080fd5b50620002da6200032236600462003444565b62000a5a565b3480156200033557600080fd5b50620002f4609b5481565b620002da6200035136600462003476565b62000aba565b3480156200036457600080fd5b50620002da62000376366004620038f9565b62001334565b3480156200038957600080fd5b50609d5462000240906001600160a01b031681565b348015620003ab57600080fd5b50620002f4609a5481565b348015620003c357600080fd5b50620002da620003d536600462003834565b620014b3565b348015620003e857600080fd5b5062000240620003fa36600462003444565b60a2602052600090815260409020546001600160a01b031681565b3480156200042257600080fd5b50620002f460975481565b3480156200043a57600080fd5b50620002da62001526565b3480156200045257600080fd5b50620002da6200046436600462003768565b62001532565b3480156200047757600080fd5b50620002da6200048936600462003866565b62001836565b3480156200049c57600080fd5b50620002da620004ae36600462003444565b620018f7565b348015620004c157600080fd5b50620002f4620004d3366004620036af565b805160208183018101805160a08252928201919093012091525481565b620002da6200050136600462003571565b62001996565b3480156200051457600080fd5b50620002da6200052636600462003444565b62001e07565b3480156200053957600080fd5b506200024062001f97565b3480156200055157600080fd5b50620002da6200056336600462003444565b62001fa6565b3480156200057657600080fd5b50620002f460985481565b3480156200058e57600080fd5b50620002f460a75481565b348015620005a657600080fd5b50620005dd620005b836600462003444565b60a660205260009081526040902080546001909101546001600160a01b039091169082565b6040516200024f92919062003ce3565b348015620005fa57600080fd5b50620002da6200060c36600462003333565b62001ff1565b3480156200061f57600080fd5b50620002a46200063136600462003444565b6200209e565b3480156200064457600080fd5b5060a554620002409061010090046001600160a01b031681565b3480156200066b57600080fd5b50620002da6200067d3660046200365e565b620020bd565b3480156200069057600080fd5b50609c5462000240906001600160a01b031681565b348015620006b257600080fd5b50620002da620006c436600462003333565b62002114565b348015620006d757600080fd5b50620006ef620006e936600462003444565b620021b4565b6040516200024f979695949392919062003efb565b3480156200071157600080fd5b50609e5462000240906001600160a01b031681565b3480156200073357600080fd5b5060a554620007429060ff1681565b6040516200024f919062003f6a565b3480156200075e57600080fd5b50620007db6200077036600462003444565b60a160205260009081526040902080546001820154600283015460038401546004850154600586015460068701546007880154600889015460098a0154600a909a015460ff9099169997989697959694956001600160a01b039485169593851694929391929091168b565b604080519b15158c5260208c019a909a52988a0197909752606089019590955260808801939093526001600160a01b0391821660a0880152811660c087015260e086019190915261010085019190915261012084019190915216610140820152610160016200024f565b620002da62000856366004620039bc565b620022a8565b3480156200086957600080fd5b50620002da6200087b36600462003444565b620026c7565b3480156200088e57600080fd5b50620002da620008a036600462003333565b620026d6565b348015620008b357600080fd5b50620002da620008c536600462003333565b62002776565b60a48054620008da906200435d565b80601f016020809104026020016040519081016040528092919081815260200182805462000908906200435d565b8015620009595780601f106200092d5761010080835404028352916020019162000959565b820191906000526020600020905b8154815290600101906020018083116200093b57829003601f168201915b505050505081565b600060a382815481106200098557634e487b7160e01b600052603260045260246000fd5b600091825260209091206007909102015460ff16620009a6576000620009a9565b60015b90505b919050565b806001600160a01b038116620009e45760405162461bcd60e51b8152600401620009db9062004063565b60405180910390fd5b620009ee620027f5565b609e546040517f69253c7023f628e3a302b63087a3bfc1dfdb256780182f81b9f0df9eff9542b09162000a2f916001600160a01b0390911690859062003b61565b60405180910390a150609e80546001600160a01b0319166001600160a01b0392909216919091179055565b62000a64620027f5565b609754811162000ab55760405162461bcd60e51b815260206004820152601b60248201527a293ab732a937baba32b92637b3b4b19d103637bb90373ab6b132b960291b6044820152606401620009db565b609755565b62000ac462002858565b60a55461010090046001600160a01b031662000add3390565b6001600160a01b03161462000b355760405162461bcd60e51b815260206004820152601f60248201527f52756e65526f757465724c6f6769633a206e6f742074656c65706f72746572006044820152606401620009db565b600073__$67e4a81169bd42f3bd76691a8cba760d26$__63e291283d609754609c60009054906101000a90046001600160a01b03168e8e8e8e8e8e8e8e8e6040518c63ffffffff1660e01b815260040162000b9b9b9a99989796959493929190620040b1565b60206040518083038186803b15801562000bb457600080fd5b505af415801562000bc9573d6000803e3d6000fd5b505050506040513d601f19601f8201168201806040525081019062000bef91906200345d565b905060008060008073__$67e4a81169bd42f3bd76691a8cba760d26$__63d27fd71f6098548f8f8960a1609f60a6609954609a546040518a63ffffffff1660e01b815260040162000c4999989796959493929190620041d7565b60c06040518083038186803b15801562000c6257600080fd5b505af415801562000c77573d6000803e3d6000fd5b505050506040513d601f19601f8201168201806040525081019062000c9d9190620038a0565b9350935093509350806001600160a01b03166340c10f19308686604001518760200151886000015162000cd19190620042f5565b62000cdd9190620042f5565b62000ce99190620042f5565b6040518363ffffffff1660e01b815260040162000d0892919062003ce3565b602060405180830381600087803b15801562000d2357600080fd5b505af115801562000d38573d6000803e3d6000fd5b505050506040513d601f19601f8201168201806040525081019062000d5e919062003378565b50609d54835160405163a9059cbb60e01b81526001600160a01b038481169363a9059cbb9362000d9693929091169160040162003ce3565b602060405180830381600087803b15801562000db157600080fd5b505af115801562000dc6573d6000803e3d6000fd5b505050506040513d601f19601f8201168201806040525081019062000dec919062003378565b50609e54602084015160405163a9059cbb60e01b81526001600160a01b038481169363a9059cbb9362000e2793929091169160040162003ce3565b602060405180830381600087803b15801562000e4257600080fd5b505af115801562000e57573d6000803e3d6000fd5b505050506040513d601f19601f8201168201806040525081019062000e7d919062003378565b506001600160a01b0382161562000f1957604080840151905163a9059cbb60e01b81526001600160a01b0383169163a9059cbb9162000ec191869160040162003ce3565b602060405180830381600087803b15801562000edc57600080fd5b505af115801562000ef1573d6000803e3d6000fd5b505050506040513d601f19601f8201168201806040525081019062000f17919062003378565b505b600085815260a16020908152604091829020825161016081018452815460ff16151581526001820154928101929092526002810154928201839052600381015460608301526004810154608083015260058101546001600160a01b0390811660a08401526006820154811660c0840152600782015460e084015260088201546101008401526009820154610120840152600a909101541661014082015290620010945760c081015160405163a9059cbb60e01b81526001600160a01b0384169163a9059cbb9162000ff09190899060040162003ce3565b602060405180830381600087803b1580156200100b57600080fd5b505af115801562001020573d6000803e3d6000fd5b505050506040513d601f19601f8201168201806040525081019062001046919062003378565b507f43c9c64e3d0a7d664252e89fe26c8958a77098900ebf13f7aa95030a371bc4328160c00151868487878b604051620010869695949392919062003cfc565b60405180910390a162001317565b8060a001516001600160a01b031687600081518110620010c457634e487b7160e01b600052603260045260246000fd5b60200260200101516001600160a01b03161480156200113057508061014001516001600160a01b03168760018951620010fe919062004310565b815181106200111d57634e487b7160e01b600052603260045260246000fd5b60200260200101516001600160a01b0316145b6200117c5760405162461bcd60e51b815260206004820152601b60248201527a0a4eadccaa4deeae8cae498deced2c67440eee4dedcce40e0c2e8d602b1b6044820152606401620009db565b6000806200119b83604001518460c00151898661012001518d620028b4565b91509150811562001233577fed12b1e275b408eb8b01de7d246293c2daf02f98422b51b0af3012463e2a725e8360c0015188868460018651620011df919062004310565b81518110620011fe57634e487b7160e01b600052603260045260246000fd5b60200260200101518761014001518b8b8f6040516200122598979695949392919062003d42565b60405180910390a162001314565b7f2eefdda27738a7be93aea5dafceb4d8af2e8e046fd411a8c94bb449508af05a28360c0015188868661012001518761014001518b8b8f6040516200128098979695949392919062003d42565b60405180910390a160c083015160405163a9059cbb60e01b81526001600160a01b0386169163a9059cbb91620012bc91908b9060040162003ce3565b602060405180830381600087803b158015620012d757600080fd5b505af1158015620012ec573d6000803e3d6000fd5b505050506040513d601f19601f8201168201806040525081019062001312919062003378565b505b50505b505050505050620013286001606555565b50505050505050505050565b600054610100900460ff1615808015620013555750600054600160ff909116105b80620013715750303b15801562001371575060005460ff166001145b620013d65760405162461bcd60e51b815260206004820152602e60248201527f496e697469616c697a61626c653a20636f6e747261637420697320616c72656160448201526d191e481a5b9a5d1a585b1a5e995960921b6064820152608401620009db565b6000805460ff191660011790558015620013fa576000805461ff0019166101001790555b6200140462002b0b565b6200140e62002b3f565b60988890556200141e8a62000a5a565b6200142989620018f7565b620014348762002114565b6200143f86620009b1565b6200144b8585620020bd565b620014568362001ff1565b6200146182620026d6565b801562001328576000805461ff0019169055604051600181527f7f26b83ff96e1f2b6a682f133852f6798a09c465da95921460cefb38474024989060200160405180910390a150505050505050505050565b620014bd620027f5565b7f31a8c4e62daac2a3ed5d713004d9ae867d6dcddfa35603db2a4b65d9236b1bc18282604051620014f09291906200409a565b60405180910390a1600091825260a2602052604090912080546001600160a01b0319166001600160a01b03909216919091179055565b62001530620027f5565b565b6200153c620027f5565b6000818152609f60205260409020546001600160a01b0316156200159e5760405162461bcd60e51b8152602060048201526018602482015277149d5b99549bdd5d195c931bd9da58ce881d5cd959081a5960421b6044820152606401620009db565b600073__$67e4a81169bd42f3bd76691a8cba760d26$__6374c6d02c6040518163ffffffff1660e01b815260040160206040518083038186803b158015620015e557600080fd5b505af4158015620015fa573d6000803e3d6000fd5b505050506040513d601f19601f8201168201806040525081019062001620919062003359565b905060606000826200163162001f97565b8360405162001640906200308d565b6200164e9392919062003b7b565b604051809103906000f0801580156200166b573d6000803e3d6000fd5b50604051630b127b6360e11b815290915081906001600160a01b03821690631624f6c690620016a3908b908b908b9060040162003f80565b600060405180830381600087803b158015620016be57600080fd5b505af1158015620016d3573d6000803e3d6000fd5b5050604051634c1d96ab60e11b81526001600160a01b038416925063983b2d5691506200170590309060040162003b4d565b600060405180830381600087803b1580156200172057600080fd5b505af115801562001735573d6000803e3d6000fd5b5050604051637a231bdd60e11b81526001600160a01b038416925063f44637ba91506200176790309060040162003b4d565b600060405180830381600087803b1580156200178257600080fd5b505af115801562001797573d6000803e3d6000fd5b5050506000868152609f60205260409081902080546001600160a01b0319166001600160a01b0385161790555186915060a090620017d7908b9062003b2f565b9081526020016040518091039020819055507f2cc525d657b0066593fa1e0f8b33688540b49339124365512a802412633991a4888888888589604051620018249695949392919062003fbd565b60405180910390a15050505050505050565b62001840620027f5565b600083815260a66020908152604091829020805460019091015483518781526001600160a01b039283169381019390935282840152841660608201526080810183905290517f23385740814648db624aa52a0c990fc42def14e1b04e7fe5b2bf87b85e1294529181900360a00190a16040805180820182526001600160a01b0393841681526020808201938452600095865260a690529320925183546001600160a01b031916921691909117825551600190910155565b62001901620027f5565b806127101015620019555760405162461bcd60e51b815260206004820152601d60248201527f52756e65526f757465724c6f6769633a206f7574206f662072616e67650000006044820152606401620009db565b60995460408051918252602082018390527f7d205f60891f60851c61cd244ba387d72b6589e7c0ac41b9d909ab0ce2c2a53b910160405180910390a1609955565b620019a062002858565b609e546001600160a01b0316336001600160a01b03161462001a035760405162461bcd60e51b815260206004820152601b60248201527a293ab732a937baba32b92637b3b4b19d103737ba103637b1b5b2b960291b6044820152606401620009db565b609754609c5460405163e291283d60e01b815273__$67e4a81169bd42f3bd76691a8cba760d26$__9263e291283d9262001a5a926001600160a01b03909116908d908d908d908d908d908d908d9060040162004146565b60206040518083038186803b15801562001a7357600080fd5b505af415801562001a88573d6000803e3d6000fd5b505050506040513d601f19601f8201168201806040525081019062001aae91906200345d565b5060005b815181101562001df15760a382828151811062001adf57634e487b7160e01b600052603260045260246000fd5b60200260200101518154811062001b0657634e487b7160e01b600052603260045260246000fd5b600091825260209091206007909102015460ff161562001b745760405162461bcd60e51b815260206004820152602260248201527f52756e65526f757465724c6f6769633a20616c72656164792070726f63657373604482015261195960f21b6064820152608401620009db565b600160a383838151811062001b9957634e487b7160e01b600052603260045260246000fd5b60200260200101518154811062001bc057634e487b7160e01b600052603260045260246000fd5b906000526020600020906007020160000160006101000a81548160ff0219169083151502179055507f42975333d773ba95b24fa6c9b8127fc4a9bc1bafb6293c8c9daa4f6aed0bc34960a383838151811062001c2c57634e487b7160e01b600052603260045260246000fd5b60200260200101518154811062001c5357634e487b7160e01b600052603260045260246000fd5b906000526020600020906007020160040160009054906101000a90046001600160a01b031660a384848151811062001c9b57634e487b7160e01b600052603260045260246000fd5b60200260200101518154811062001cc257634e487b7160e01b600052603260045260246000fd5b90600052602060002090600702016002015460a385858151811062001cf757634e487b7160e01b600052603260045260246000fd5b60200260200101518154811062001d1e57634e487b7160e01b600052603260045260246000fd5b906000526020600020906007020160050160a386868151811062001d5257634e487b7160e01b600052603260045260246000fd5b60200260200101518154811062001d7957634e487b7160e01b600052603260045260246000fd5b906000526020600020906007020160060160009054906101000a900460ff1686868151811062001db957634e487b7160e01b600052603260045260246000fd5b602002602001015160405162001dd495949392919062003d9b565b60405180910390a18062001de8816200439a565b91505062001ab2565b5062001dfd6001606555565b5050505050505050565b62001e11620027f5565b6000818152609f60205260409020546001600160a01b031662001e735760405162461bcd60e51b8152602060048201526019602482015278293ab732a937baba32b92637b3b4b19d103737903a37b5b2b760391b6044820152606401620009db565b6000818152609f6020526040908190205490517ff61991393940604b8433d5f9a855624b8452e131d66e476a45c7139651df96999162001ebf9184916001600160a01b0316906200409a565b60405180910390a16000818152609f60205260408082205481516306fdde0360e01b8152915160a0926001600160a01b03909216916306fdde039160048083019287929190829003018186803b15801562001f1957600080fd5b505afa15801562001f2e573d6000803e3d6000fd5b505050506040513d6000823e601f3d908101601f1916820160405262001f589190810190620036ed565b60405162001f67919062003b2f565b9081526040805160209281900383019020929092556000928352609f9052902080546001600160a01b0319169055565b6033546001600160a01b031690565b62001fb0620027f5565b60a75460408051918252602082018390527f24a1cf21e7b4eac23dffa41704078ed28bbe2a42187f6aa014899c5413cd01b7910160405180910390a160a755565b806001600160a01b0381166200201b5760405162461bcd60e51b8152600401620009db9062004063565b62002025620027f5565b7f150b77d21bd499fd0dccea9fe32513c7b65aa34ccde41e7dafac74ace8e19c9460a560019054906101000a90046001600160a01b0316836040516200206d92919062003b61565b60405180910390a15060a580546001600160a01b0390921661010002610100600160a81b0319909216919091179055565b600081815260a1602052604081205460ff16620009a6576000620009a9565b620020c7620027f5565b8151620020dc9060a49060208501906200309b565b5060a5805482919060ff191660018360058111156200210b57634e487b7160e01b600052602160045260246000fd5b02179055505050565b806001600160a01b0381166200213e5760405162461bcd60e51b8152600401620009db9062004063565b62002148620027f5565b609c546040517f4c28a3f61a715259c4dc930c23e7423b8fa52e13232c061a6e488729c66184f49162002189916001600160a01b0390911690859062003b61565b60405180910390a150609c80546001600160a01b0319166001600160a01b0392909216919091179055565b60a38181548110620021c557600080fd5b600091825260209091206007909102018054600182015460028301546003840154600485015460058601805460ff90961697509395929491936001600160a01b03909116929162002216906200435d565b80601f016020809104026020016040519081016040528092919081815260200182805462002244906200435d565b8015620022955780601f10620022695761010080835404028352916020019162002295565b820191906000526020600020905b8154815290600101906020018083116200227757829003601f168201915b5050506006909301549192505060ff1687565b620022b262002858565b6000878152609f60205260409020546001600160a01b031680620023195760405162461bcd60e51b815260206004820152601e60248201527f52756e65526f757465724c6f6769633a206e6f7420737570706f7274656400006044820152606401620009db565b60a7543414620023695760405162461bcd60e51b815260206004820152601a60248201527952756e65526f757465724c6f6769633a2077726f6e672066656560301b6044820152606401620009db565b815115620024c957816000815181106200239357634e487b7160e01b600052603260045260246000fd5b60200260200101516001600160a01b03166323b872dd3330866040518463ffffffff1660e01b8152600401620023cc9392919062003ba9565b602060405180830381600087803b158015620023e757600080fd5b505af1158015620023fc573d6000803e3d6000fd5b505050506040513d601f19601f8201168201806040525081019062002422919062003378565b50600080620024358630878c88620028b4565b9150915081620024875760405162461bcd60e51b815260206004820152601c60248201527b149d5b99549bdd5d195c931bd9da58ce881cddd85c0819985a5b195960221b6044820152606401620009db565b806001825162002498919062004310565b81518110620024b757634e487b7160e01b600052603260045260246000fd5b6020026020010151985050506200259f565b6040516323b872dd60e01b81526001600160a01b038216906323b872dd90620024fb90339030908c9060040162003ba9565b602060405180830381600087803b1580156200251657600080fd5b505af11580156200252b573d6000803e3d6000fd5b505050506040513d601f19601f8201168201806040525081019062002551919062003378565b6200259f5760405162461bcd60e51b815260206004820181905260248201527f52756e65526f757465724c6f6769633a207472616e73666572206661696c65646044820152606401620009db565b6000806000620025b38c858c8c8c62002b73565b9250925092508451600014156200262a577f7ded23d6204f0918dc93f275df51659538e59e8aaf5698ce1f49180c22857b53338a8a878e868960a7548a600160a38054905062002604919062004310565b6040516200261c9a9998979695949392919062003bcd565b60405180910390a1620026b8565b7fe17d30e84f141d5effc904ed29262988eb565f53a8c01270148776b88451bb71338a8a89896000815181106200267157634e487b7160e01b600052603260045260246000fd5b60200260200101518f878b8b60a7548c600160a38054905062002695919062004310565b604051620026af9c9b9a9998979695949392919062003c51565b60405180910390a15b5050505062001dfd6001606555565b620026d1620027f5565b609855565b806001600160a01b038116620027005760405162461bcd60e51b8152600401620009db9062004063565b6200270a620027f5565b609d546040517f567657fa3f286518b318f4a29870674f433f622fdfc819691acb13105b228225916200274b916001600160a01b0390911690859062003b61565b60405180910390a150609d80546001600160a01b0319166001600160a01b0392909216919091179055565b62002780620027f5565b6001600160a01b038116620027e75760405162461bcd60e51b815260206004820152602660248201527f4f776e61626c653a206e6577206f776e657220697320746865207a65726f206160448201526564647265737360d01b6064820152608401620009db565b620027f28162002ebb565b50565b336200280062001f97565b6001600160a01b031614620015305760405162461bcd60e51b815260206004820181905260248201527f4f776e61626c653a2063616c6c6572206973206e6f7420746865206f776e65726044820152606401620009db565b60026065541415620028ad5760405162461bcd60e51b815260206004820152601f60248201527f5265656e7472616e637947756172643a207265656e7472616e742063616c6c006044820152606401620009db565b6002606555565b600085815260a260205260408120546060906001600160a01b0316806200291e5760405162461bcd60e51b815260206004820152601e60248201527f52756e65526f757465724c6f6769633a20696e76616c696420617070496400006044820152606401620009db565b836000815181106200294057634e487b7160e01b600052603260045260246000fd5b60200260200101516001600160a01b031663095ea7b382886040518363ffffffff1660e01b81526004016200297792919062003ce3565b602060405180830381600087803b1580156200299257600080fd5b505af1158015620029a7573d6000803e3d6000fd5b505050506040513d601f19601f82011682018060405250810190620029cd919062003378565b506040516326d2f28960e21b81526001600160a01b03821690639b4bca2490620029fc90879060040162003ee6565b60206040518083038186803b15801562002a1557600080fd5b505afa15801562002a2a573d6000803e3d6000fd5b505050506040513d601f19601f8201168201806040525081019062002a50919062003378565b1562002af45760405163161779b160e31b81526001600160a01b0382169063b0bbcd889062002a8f908990899089908d90429060019060040162004228565b600060405180830381600087803b15801562002aaa57600080fd5b505af115801562002abf573d6000803e3d6000fd5b505050506040513d6000823e601f3d908101601f1916820160405262002ae9919081019062003395565b909350915062002af9565b600092505b509550959350505050565b6001606555565b600054610100900460ff1662002b355760405162461bcd60e51b8152600401620009db9062004018565b6200153062002f0d565b600054610100900460ff1662002b695760405162461bcd60e51b8152600401620009db9062004018565b6200153062002f42565b62002b9860405180606001604052806000815260200160008152602001600081525090565b60008073__$67e4a81169bd42f3bd76691a8cba760d26$__6394d8bc6a33609954609a5460a360a68e8d8d8d6040518a63ffffffff1660e01b815260040162002bea9998979695949392919062003e7d565b60a06040518083038186803b15801562002c0357600080fd5b505af415801562002c18573d6000803e3d6000fd5b505050506040513d601f19601f8201168201806040525081019062002c3e9190620037ef565b609b80549396509194509250600062002c57836200439a565b9091555050609d54835160405163a9059cbb60e01b81526001600160a01b038a81169363a9059cbb9362002c9393929091169160040162003ce3565b602060405180830381600087803b15801562002cae57600080fd5b505af115801562002cc3573d6000803e3d6000fd5b505050506040513d601f19601f8201168201806040525081019062002ce9919062003378565b50609e54602084015160405163a9059cbb60e01b81526001600160a01b038a81169363a9059cbb9362002d2493929091169160040162003ce3565b602060405180830381600087803b15801562002d3f57600080fd5b505af115801562002d54573d6000803e3d6000fd5b505050506040513d601f19601f8201168201806040525081019062002d7a919062003378565b506001600160a01b0382161562002e1657604080840151905163a9059cbb60e01b81526001600160a01b0389169163a9059cbb9162002dbe91869160040162003ce3565b602060405180830381600087803b15801562002dd957600080fd5b505af115801562002dee573d6000803e3d6000fd5b505050506040513d601f19601f8201168201806040525081019062002e14919062003378565b505b609e5460a75462002e31916001600160a01b03169062002f6c565b604051630852cd8d60e31b8152600481018290526001600160a01b038816906342966c6890602401602060405180830381600087803b15801562002e7457600080fd5b505af115801562002e89573d6000803e3d6000fd5b505050506040513d601f19601f8201168201806040525081019062002eaf919062003378565b50955095509592505050565b603380546001600160a01b038381166001600160a01b0319831681179093556040519116919082907f8be0079c531659141344cd1fd0a4f28419497f9722a3daafe3b4186f6b6457e090600090a35050565b600054610100900460ff1662002f375760405162461bcd60e51b8152600401620009db9062004018565b620015303362002ebb565b600054610100900460ff1662002b045760405162461bcd60e51b8152600401620009db9062004018565b8047101562002fbe5760405162461bcd60e51b815260206004820152601d60248201527f416464726573733a20696e73756666696369656e742062616c616e63650000006044820152606401620009db565b6000826001600160a01b03168260405160006040518083038185875af1925050503d80600081146200300d576040519150601f19603f3d011682016040523d82523d6000602084013e62003012565b606091505b5050905080620030885760405162461bcd60e51b815260206004820152603a60248201527f416464726573733a20756e61626c6520746f2073656e642076616c75652c20726044820152791958da5c1a595b9d081b585e481a185d99481c995d995c9d195960321b6064820152608401620009db565b505050565b610f5780620043fb83390190565b828054620030a9906200435d565b90600052602060002090601f016020900481019282620030cd576000855562003118565b82601f10620030e857805160ff191683800117855562003118565b8280016001018555821562003118579182015b8281111562003118578251825591602001919060010190620030fb565b50620031269291506200312a565b5090565b5b808211156200312657600081556001016200312b565b600082601f83011262003152578081fd5b813560206200316b6200316583620042a5565b62004272565b828152818101908583018385028701840188101562003188578586fd5b855b85811015620031b3578135620031a081620043e4565b845292840192908401906001016200318a565b5090979650505050505050565b600082601f830112620031d1578081fd5b81356020620031e46200316583620042a5565b828152818101908583018385028701840188101562003201578586fd5b855b85811015620031b35781358452928401929084019060010162003203565b80518015158114620009ac57600080fd5b80356001600160e01b031981168114620009ac57600080fd5b60008083601f8401126200325d578182fd5b5081356001600160401b0381111562003274578182fd5b6020830191508360208285010111156200328d57600080fd5b9250929050565b600082601f830112620032a5578081fd5b8135620032b66200316582620042cb565b818152846020838601011115620032cb578283fd5b816020850160208301379081016020019190915292915050565b803560068110620009ac57600080fd5b60006060828403121562003307578081fd5b62003313606062004272565b905081518152602082015160208201526040820151604082015292915050565b60006020828403121562003345578081fd5b81356200335281620043e4565b9392505050565b6000602082840312156200336b578081fd5b81516200335281620043e4565b6000602082840312156200338a578081fd5b620033528262003221565b60008060408385031215620033a8578081fd5b620033b38362003221565b602084810151919350906001600160401b03811115620033d1578283fd5b8401601f81018613620033e2578283fd5b8051620033f36200316582620042a5565b81815283810190838501858402850186018a101562003410578687fd5b8694505b838510156200343457805183526001949094019391850191850162003414565b5080955050505050509250929050565b60006020828403121562003456578081fd5b5035919050565b6000602082840312156200346f578081fd5b5051919050565b6000806000806000806000806000806101008b8d03121562003496578586fd5b620034a18b62003232565b995060208b01356001600160401b0380821115620034bd578788fd5b620034cb8e838f0162003294565b9a5060408d0135915080821115620034e1578788fd5b620034ef8e838f016200324b565b909a5098508891506200350560608e0162003232565b975060808d0135965060a08d013591508082111562003522578586fd5b620035308e838f016200324b565b909650945060c08d0135935060e08d013591508082111562003550578283fd5b506200355f8d828e0162003141565b9150509295989b9194979a5092959850565b600080600080600080600080610100898b0312156200358e578182fd5b620035998962003232565b975060208901356001600160401b0380821115620035b5578384fd5b620035c38c838d0162003294565b985060408b0135915080821115620035d9578384fd5b620035e78c838d0162003294565b9750620035f760608c0162003232565b965060808b0135955060a08b013591508082111562003614578384fd5b620036228c838d0162003294565b945060c08b0135935060e08b01359150808211156200363f578283fd5b506200364e8b828c01620031c0565b9150509295985092959890939650565b6000806040838503121562003671578182fd5b82356001600160401b0381111562003687578283fd5b620036958582860162003294565b925050620036a660208401620032e5565b90509250929050565b600060208284031215620036c1578081fd5b81356001600160401b03811115620036d7578182fd5b620036e58482850162003294565b949350505050565b600060208284031215620036ff578081fd5b81516001600160401b0381111562003715578182fd5b8201601f8101841362003726578182fd5b8051620037376200316582620042cb565b8181528560208385010111156200374c578384fd5b6200375f8260208301602086016200432a565b95945050505050565b600080600080608085870312156200377e578182fd5b84356001600160401b038082111562003795578384fd5b620037a38883890162003294565b95506020870135915080821115620037b9578384fd5b50620037c88782880162003294565b935050604085013560ff81168114620037df578283fd5b9396929550929360600135925050565b600080600060a0848603121562003804578081fd5b620038108585620032f5565b925060608401516200382281620043e4565b80925050608084015190509250925092565b6000806040838503121562003847578182fd5b8235915060208301356200385b81620043e4565b809150509250929050565b6000806000606084860312156200387b578081fd5b8335925060208401356200388f81620043e4565b929592945050506040919091013590565b60008060008060c08587031215620038b6578182fd5b84519350620038c98660208701620032f5565b92506080850151620038db81620043e4565b60a0860151909250620038ee81620043e4565b939692955090935050565b60008060008060008060008060006101208a8c03121562003918578283fd5b8935985060208a0135975060408a0135965060608a01356200393a81620043e4565b955060808a01356200394c81620043e4565b945060a08a01356001600160401b0381111562003967578384fd5b620039758c828d0162003294565b9450506200398660c08b01620032e5565b925060e08a01356200399881620043e4565b91506101008a0135620039ab81620043e4565b809150509295985092959850929598565b600080600080600080600080610100898b031215620039d9578182fd5b88359750602089013596506040890135955060608901356001600160401b038082111562003a05578384fd5b62003a138c838d0162003294565b965062003a2360808c01620032e5565b955060a08b0135945060c08b0135935060e08b013591508082111562003a47578283fd5b506200364e8b828c0162003141565b6000815180845260208085019450808401835b8381101562003a905781516001600160a01b03168752958201959082019060010162003a69565b509495945050505050565b60008284528282602086013780602084860101526020601f19601f85011685010190509392505050565b6000815180845262003adf8160208601602086016200432a565b601f01601f19169290920160200192915050565b6006811062003b1257634e487b7160e01b600052602160045260246000fd5b9052565b8051825260208082015190830152604090810151910152565b6000825162003b438184602087016200432a565b9190910192915050565b6001600160a01b0391909116815260200190565b6001600160a01b0392831681529116602082015260400190565b6001600160a01b038481168252831660208201526060604082018190526000906200375f9083018462003ac5565b6001600160a01b039384168152919092166020820152604081019190915260600190565b6001600160a01b038b811682526101806020830181905260009162003bf58483018e62003ac5565b925062003c06604085018d62003af3565b808b1660608501528960808501528860a085015262003c2960c085018962003b16565b866101208501528086166101408501525050826101608301529b9a5050505050505050505050565b600060018060a01b03808f1683526101c0602084015262003c776101c084018f62003ac5565b915062003c88604084018e62003af3565b8b6060840152808b1660808401528960a08401528860c084015280881660e084015262003cba61010084018862003b16565b8561016084015280851661018084015250826101a08301529d9c50505050505050505050505050565b6001600160a01b03929092168252602082015260400190565b6001600160a01b03878116825260208201879052858116604083015261010082019062003d2d606084018762003b16565b9390931660c082015260e00152949350505050565b6001600160a01b03898116825260208201899052878116604083015260608201879052858116608083015261014082019062003d8260a084018762003b16565b9390931661010082015261012001529695505050505050565b6001600160a01b0386168152602080820186905260a0604083015284546000919082906002810460018281168062003dd457607f831692505b85831081141562003df357634e487b7160e01b87526022600452602487fd5b60a0880183905260c0880181801562003e15576001811462003e275762003e53565b60ff1986168252878201965062003e53565b60008d815260209020895b8681101562003e4d5781548482015290850190890162003e32565b83019750505b505050505050809250505062003e6d606083018562003af3565b8260808301529695505050505050565b600061012060018060a01b038c1683528a60208401528960408401528860608401528760808401528660a08401528560c08401528060e084015262003ec58184018662003ac5565b91505062003ed861010083018462003af3565b9a9950505050505050505050565b60006020825262003352602083018462003a56565b6000881515825287602083015286604083015285606083015260018060a01b038516608083015260e060a083015262003f3860e083018562003ac5565b905062003f4960c083018462003af3565b98975050505050505050565b60006020825262003352602083018462003ac5565b6020810162003f7a828462003af3565b92915050565b60006060825262003f95606083018662003ac5565b828103602084015262003fa9818662003ac5565b91505060ff83166040830152949350505050565b600060c0825262003fd260c083018962003ac5565b828103602084015262003fe6818962003ac5565b60ff979097166040840152505060608101939093526001600160a01b0391821660808401521660a09091015292915050565b6020808252602b908201527f496e697469616c697a61626c653a20636f6e7472616374206973206e6f74206960408201526a6e697469616c697a696e6760a81b606082015260800190565b6020808252601d908201527f52756e65526f757465724c6f6769633a207a65726f2061646472657373000000604082015260600190565b9182526001600160a01b0316602082015260400190565b8b81526001600160a01b038b1660208201526001600160e01b03198a8116604083015261012060608301819052600091620040ef8483018d62003ac5565b9150838203608085015262004106828b8d62003a9b565b915080891660a0850152508660c084015282810360e08401526200412c81868862003a9b565b915050826101008301529c9b505050505050505050505050565b8981526001600160a01b03891660208201526001600160e01b0319888116604083015261012060608301819052600091620041848483018b62003ac5565b915083820360808501526200419a828a62003ac5565b915080881660a0850152508560c084015282810360e0840152620041bf818662003ac5565b915050826101008301529a9950505050505050505050565b60006101008b8352806020840152620041f48184018b8d62003a9b565b604084019990995250506060810195909552608085019390935260a084019190915260c083015260e0909101529392505050565b600087825286602083015260c060408301526200424960c083018762003a56565b6001600160a01b03959095166060830152506080810192909252151560a0909101529392505050565b604051601f8201601f191681016001600160401b03811182821017156200429d576200429d620043ce565b604052919050565b60006001600160401b03821115620042c157620042c1620043ce565b5060209081020190565b60006001600160401b03821115620042e757620042e7620043ce565b50601f01601f191660200190565b600082198211156200430b576200430b620043b8565b500190565b600082821015620043255762004325620043b8565b500390565b60005b83811015620043475781810151838201526020016200432d565b8381111562004357576000848401525b50505050565b6002810460018216806200437257607f821691505b602082108114156200439457634e487b7160e01b600052602260045260246000fd5b50919050565b6000600019821415620043b157620043b1620043b8565b5060010190565b634e487b7160e01b600052601160045260246000fd5b634e487b7160e01b600052604160045260246000fd5b6001600160a01b0381168114620027f257600080fdfe608060405260405162000f5738038062000f578339810160408190526200002691620004e8565b82828282816200005860017f360894a13ba1a3210667c828492db98dca3e2076cc3735a920a3ca505d382bbd62000617565b60008051602062000f10833981519152146200008457634e487b7160e01b600052600160045260246000fd5b620000928282600062000105565b50620000c2905060017fb53127684a568b3173ae13b9f8a6016e243e63b6e8ee1178d6a717850b5d610462000617565b60008051602062000ef083398151915214620000ee57634e487b7160e01b600052600160045260246000fd5b620000f98262000142565b50505050505062000680565b62000110836200019d565b6000825111806200011e5750805b156200013d576200013b8383620001df60201b6200026c1760201c565b505b505050565b7f7e644d79422f17c01e4894b5f4f588d331ebfa28653d42ae832dc59e38c9798f6200016d6200020e565b604080516001600160a01b03928316815291841660208301520160405180910390a16200019a8162000247565b50565b620001a881620002fc565b6040516001600160a01b038216907fbc7cd75a20ee27fd9adebab32041f755214dbc6bffa90cc0225b39da2e5c2d3b90600090a250565b606062000207838360405180606001604052806027815260200162000f30602791396200039f565b9392505050565b60006200023860008051602062000ef083398151915260001b6200048560201b620002141760201c565b546001600160a01b0316905090565b6001600160a01b038116620002b25760405162461bcd60e51b815260206004820152602660248201527f455243313936373a206e65772061646d696e20697320746865207a65726f206160448201526564647265737360d01b60648201526084015b60405180910390fd5b80620002db60008051602062000ef083398151915260001b6200048560201b620002141760201c565b80546001600160a01b0319166001600160a01b039290921691909117905550565b62000312816200048860201b620002981760201c565b620003765760405162461bcd60e51b815260206004820152602d60248201527f455243313936373a206e657720696d706c656d656e746174696f6e206973206e60448201526c1bdd08184818dbdb9d1c9858dd609a1b6064820152608401620002a9565b80620002db60008051602062000f1083398151915260001b6200048560201b620002141760201c565b6060620003ac8462000488565b620004095760405162461bcd60e51b815260206004820152602660248201527f416464726573733a2064656c65676174652063616c6c20746f206e6f6e2d636f6044820152651b9d1c9858dd60d21b6064820152608401620002a9565b600080856001600160a01b031685604051620004269190620005c4565b600060405180830381855af49150503d806000811462000463576040519150601f19603f3d011682016040523d82523d6000602084013e62000468565b606091505b5090925090506200047b82828662000492565b9695505050505050565b90565b803b15155b919050565b60608315620004a357508162000207565b825115620004b45782518084602001fd5b8160405162461bcd60e51b8152600401620002a99190620005e2565b80516001600160a01b03811681146200048d57600080fd5b600080600060608486031215620004fd578283fd5b6200050884620004d0565b92506200051860208501620004d0565b60408501519092506001600160401b038082111562000535578283fd5b818601915086601f83011262000549578283fd5b8151818111156200055e576200055e6200066a565b604051601f8201601f19908116603f011681019083821181831017156200058957620005896200066a565b81604052828152896020848701011115620005a2578586fd5b620005b58360208301602088016200063b565b80955050505050509250925092565b60008251620005d88184602087016200063b565b9190910192915050565b6000602082528251806020840152620006038160408501602087016200063b565b601f01601f19169190910160400192915050565b6000828210156200063657634e487b7160e01b81526011600452602481fd5b500390565b60005b83811015620006585781810151838201526020016200063e565b838111156200013b5750506000910152565b634e487b7160e01b600052604160045260246000fd5b61086080620006906000396000f3fe60806040526004361061004e5760003560e01c80633659cfe6146100655780634f1ef286146100855780635c60da1b146100985780638f283970146100c9578063f851a440146100e95761005d565b3661005d5761005b6100fe565b005b61005b6100fe565b34801561007157600080fd5b5061005b6100803660046106b1565b610118565b61005b6100933660046106cb565b610164565b3480156100a457600080fd5b506100ad6101da565b6040516001600160a01b03909116815260200160405180910390f35b3480156100d557600080fd5b5061005b6100e43660046106b1565b610217565b3480156100f557600080fd5b506100ad610241565b6101066102a2565b610116610111610346565b610355565b565b610120610379565b6001600160a01b0316336001600160a01b03161415610159576101548160405180602001604052806000815250600061039a565b610161565b6101616100fe565b50565b61016c610379565b6001600160a01b0316336001600160a01b031614156101cd576101c88383838080601f0160208091040260200160405190810160405280939291908181526020018383808284376000920191909152506001925061039a915050565b6101d5565b6101d56100fe565b505050565b60006101e4610379565b6001600160a01b0316336001600160a01b0316141561020c57610205610346565b9050610214565b6102146100fe565b90565b61021f610379565b6001600160a01b0316336001600160a01b0316141561015957610154816103c5565b600061024b610379565b6001600160a01b0316336001600160a01b0316141561020c57610205610379565b6060610291838360405180606001604052806027815260200161080460279139610419565b9392505050565b803b15155b919050565b6102aa610379565b6001600160a01b0316336001600160a01b031614156103415760405162461bcd60e51b815260206004820152604260248201527f5472616e73706172656e745570677261646561626c6550726f78793a2061646d60448201527f696e2063616e6e6f742066616c6c6261636b20746f2070726f78792074617267606482015261195d60f21b608482015260a4015b60405180910390fd5b610116565b60006103506104f4565b905090565b3660008037600080366000845af43d6000803e808015610374573d6000f35b3d6000fd5b60006000805160206107c48339815191525b546001600160a01b0316905090565b6103a38361050a565b6000825111806103b05750805b156101d5576103bf838361026c565b50505050565b7f7e644d79422f17c01e4894b5f4f588d331ebfa28653d42ae832dc59e38c9798f6103ee610379565b604080516001600160a01b03928316815291841660208301520160405180910390a16101618161054a565b606061042484610298565b61047f5760405162461bcd60e51b815260206004820152602660248201527f416464726573733a2064656c65676174652063616c6c20746f206e6f6e2d636f6044820152651b9d1c9858dd60d21b6064820152608401610338565b600080856001600160a01b03168560405161049a9190610748565b600060405180830381855af49150503d80600081146104d5576040519150601f19603f3d011682016040523d82523d6000602084013e6104da565b606091505b50915091506104ea8282866105e1565b9695505050505050565b60006000805160206107e483398151915261038b565b6105138161061a565b6040516001600160a01b038216907fbc7cd75a20ee27fd9adebab32041f755214dbc6bffa90cc0225b39da2e5c2d3b90600090a250565b6001600160a01b0381166105af5760405162461bcd60e51b815260206004820152602660248201527f455243313936373a206e65772061646d696e20697320746865207a65726f206160448201526564647265737360d01b6064820152608401610338565b806000805160206107c48339815191525b80546001600160a01b0319166001600160a01b039290921691909117905550565b606083156105f0575081610291565b8251156106005782518084602001fd5b8160405162461bcd60e51b81526004016103389190610764565b61062381610298565b6106855760405162461bcd60e51b815260206004820152602d60248201527f455243313936373a206e657720696d706c656d656e746174696f6e206973206e60448201526c1bdd08184818dbdb9d1c9858dd609a1b6064820152608401610338565b806000805160206107e48339815191526105c0565b80356001600160a01b038116811461029d57600080fd5b6000602082840312156106c2578081fd5b6102918261069a565b6000806000604084860312156106df578182fd5b6106e88461069a565b925060208401356001600160401b0380821115610703578384fd5b818601915086601f830112610716578384fd5b813581811115610724578485fd5b876020828501011115610735578485fd5b6020830194508093505050509250925092565b6000825161075a818460208701610797565b9190910192915050565b6000602082528251806020840152610783816040850160208701610797565b601f01601f19169190910160400192915050565b60005b838110156107b257818101518382015260200161079a565b838111156103bf575050600091015256feb53127684a568b3173ae13b9f8a6016e243e63b6e8ee1178d6a717850b5d6103360894a13ba1a3210667c828492db98dca3e2076cc3735a920a3ca505d382bbc416464726573733a206c6f772d6c6576656c2064656c65676174652063616c6c206661696c6564a2646970667358221220a44f650cfecd4bb5135485e0d41e1056dda80b013f3808b512af643d505003e864736f6c63430008020033b53127684a568b3173ae13b9f8a6016e243e63b6e8ee1178d6a717850b5d6103360894a13ba1a3210667c828492db98dca3e2076cc3735a920a3ca505d382bbc416464726573733a206c6f772d6c6576656c2064656c65676174652063616c6c206661696c6564a26469706673582212205c7e233d52ecd9547ffa7a8ca0a9413d1f329346103f3bd6e3e079966890b11864736f6c63430008020033",
  "libraries": {
    "RuneRouterLib": "0xF48FE44e0B1B8F3119Ac437c352555e6a0A2805B"
  },
  "devdoc": {
    "kind": "dev",
    "methods": {
      "addRune(string,string,uint8,uint256)": {
        "details": "We assign tokenId to a supported Rune",
        "params": {
          "_tokenId": "Same as RUNE Id"
        }
      },
      "initialize(uint256,uint256,uint256,address,address,bytes,uint8,address,address)": {
        "params": {
          "_chainId": "Id of the underlying chain",
          "_protocolPercentageFee": "Percentage amount of protocol fee (min: %0.01)",
          "_relay": "Bitcoin bridge address which validates Bitcoin tx",
          "_startingBlockNumber": "Requests included in a block older than _startingBlockNumber cannot be processed",
          "_treasury": "Address of treasury that collects protocol fees"
        }
      },
      "isWrapRequestProcessed(bytes32)": {
        "params": {
          "_txId": "of the request on Bitcoin"
        }
      },
      "owner()": {
        "details": "Returns the address of the current owner."
      },
      "renounceOwnership()": {
        "details": "Leaves the contract without owner. It will not be possible to call `onlyOwner` functions. Can only be called by the current owner. NOTE: Renouncing ownership will leave the contract without an owner, thereby disabling any functionality that is only available to the owner."
      },
      "setExchangeConnector(uint256,address)": {
        "details": "If address(0) is set for an appId, that appId is inactive"
      },
      "setUnwrapFee(uint256)": {
        "details": "This fee is taken for unwrap requests to cover the Bitcoin network fee"
      },
      "transferOwnership(address)": {
        "details": "Transfers ownership of the contract to a new account (`newOwner`). Can only be called by the current owner."
      },
      "unwrapRune(uint256,uint256,uint256,bytes,uint8,uint256,uint256,address[])": {
        "details": "For unwrap requests (not swap & unwrap), pass _appId,      _inputAmount and _path ZERO",
        "params": {
          "_amount": "of WRune that user wants to burn",
          "_scriptType": "User script type",
          "_userScript": "User script hash"
        }
      },
      "wrapRune(bytes4,bytes,bytes,bytes4,uint256,bytes,uint256,address[])": {
        "details": "Locker submits wrap requests to this function for:      1) Checking tx inclusion      2) Extracting wrap request info from the OP_RETURN output      3) Exchanging wrapped Rune (if request is wrap & exchange) using the path         provided by the locker",
        "params": {
          "_blockNumber": "that includes the tx",
          "_index": "of tx in the block",
          "_intermediateNodes": "Merkle proof for tx",
          "_locktime": "Tx locktime",
          "_version": "of Bitcoin tx",
          "_vin": "Tx inputs",
          "_vout": "Tx outputs"
        }
      }
    },
    "version": 1
  },
  "userdoc": {
    "events": {
      "FailedRuneWrapAndSwap(address,uint256,address,uint256,address,(uint256,uint256,uint256),address,bytes32)": {
        "notice": "Emit when a wrap&swap request is processed but swap failed"
      },
      "NewLocker(address,address)": {
        "notice": "Emit when locker address updated"
      },
      "NewProtocolPercentageFee(uint256,uint256)": {
        "notice": "Emit when protocol fee updated"
      },
      "NewRelay(address,address)": {
        "notice": "Emit when relay address updated"
      },
      "NewRune(string,string,uint256,uint256,address,address)": {
        "notice": "Emit when new Rune added"
      },
      "NewRuneSwapAndUnwrap(address,bytes,uint8,uint256,address,uint256,uint256,address,(uint256,uint256,uint256),uint256,address,uint256)": {
        "notice": "Emit when a new rune swap&unwrap request is created"
      },
      "NewRuneUnwrap(address,bytes,uint8,address,uint256,uint256,(uint256,uint256,uint256),uint256,address,uint256)": {
        "notice": "Emit when a new rune unwrap request is created"
      },
      "NewRuneWrap(address,uint256,address,(uint256,uint256,uint256),address,bytes32)": {
        "notice": "Emit when a rune wrap request is processed"
      },
      "NewRuneWrapAndSwap(address,uint256,address,uint256,address,(uint256,uint256,uint256),address,bytes32)": {
        "notice": "Emit when a wrap&swap request is processed"
      },
      "NewTeleporter(address,address)": {
        "notice": "Emit when teleporter address updated"
      },
      "NewTreasury(address,address)": {
        "notice": "Emit when treasury address updated"
      },
      "RuneRemoved(uint256,address)": {
        "notice": "Emit when Rune removed"
      },
      "SetExchangeConnector(uint256,address)": {
        "notice": "Emits when appId for an exchange connector is set"
      },
      "ThirdPartyInfoUpdated(uint256,address,uint256,address,uint256)": {
        "notice": "Emit when third party fee updated"
      },
      "UnwrapFeeUpdated(uint256,uint256)": {
        "notice": "Emit when unwrap fee updated"
      },
      "UnwrapRuneProcessed(address,uint256,bytes,uint8,uint256)": {
        "notice": "Emit when a unwrap request is processed"
      }
    },
    "kind": "user",
    "methods": {
      "addRune(string,string,uint8,uint256)": {
        "notice": "Deploy wrapped Rune token contract"
      },
      "initialize(uint256,uint256,uint256,address,address,bytes,uint8,address,address)": {
        "notice": "Initialize the contract"
      },
      "isUnwrapRequestProcessed(uint256)": {
        "notice": "Check if the unwrap request has been processed before"
      },
      "isWrapRequestProcessed(bytes32)": {
        "notice": "Check if the wrap request has been processed before"
      },
      "removeRune(uint256)": {
        "notice": "Remove support of a wrapped RUNE token"
      },
      "setChainId(uint256)": {
        "notice": "Setter for chainId"
      },
      "setExchangeConnector(uint256,address)": {
        "notice": "Set exchange connector for appId"
      },
      "setLocker(address)": {
        "notice": "Setter for locker"
      },
      "setLockerLockingScript(bytes,uint8)": {
        "notice": "Setter for locker locking script"
      },
      "setProtocolPercentageFee(uint256)": {
        "notice": "Setter for protocol percentage fee"
      },
      "setRelay(address)": {
        "notice": "Setter for Bitcoin relay"
      },
      "setStartingBlockNumber(uint256)": {
        "notice": "Setter for starting block number"
      },
      "setTeleporter(address)": {
        "notice": "Setter for teleporter"
      },
      "setThirdParty(uint256,address,uint256)": {
        "notice": "Setter for third party address and fee"
      },
      "setTreasury(address)": {
        "notice": "Setter for treasury"
      },
      "setUnwrapFee(uint256)": {
        "notice": "Setter for unwrap fee"
      },
      "unwrapProofRune(bytes4,bytes,bytes,bytes4,uint256,bytes,uint256,uint256[])": {
        "notice": "Check proof of unwraping Runes"
      },
      "unwrapRune(uint256,uint256,uint256,bytes,uint8,uint256,uint256,address[])": {
        "notice": "Process user rune unwrap request"
      },
      "wrapRune(bytes4,bytes,bytes,bytes4,uint256,bytes,uint256,address[])": {
        "notice": "Process wrap Rune request"
      }
    },
    "version": 1
  },
  "storageLayout": {
    "storage": [
      {
        "astId": 139,
        "contract": "contracts/rune_router/RuneRouterLogic.sol:RuneRouterLogic",
        "label": "_initialized",
        "offset": 0,
        "slot": "0",
        "type": "t_uint8"
      },
      {
        "astId": 142,
        "contract": "contracts/rune_router/RuneRouterLogic.sol:RuneRouterLogic",
        "label": "_initializing",
        "offset": 1,
        "slot": "0",
        "type": "t_bool"
      },
      {
        "astId": 1482,
        "contract": "contracts/rune_router/RuneRouterLogic.sol:RuneRouterLogic",
        "label": "__gap",
        "offset": 0,
        "slot": "1",
        "type": "t_array(t_uint256)50_storage"
      },
      {
        "astId": 11,
        "contract": "contracts/rune_router/RuneRouterLogic.sol:RuneRouterLogic",
        "label": "_owner",
        "offset": 0,
        "slot": "51",
        "type": "t_address"
      },
      {
        "astId": 131,
        "contract": "contracts/rune_router/RuneRouterLogic.sol:RuneRouterLogic",
        "label": "__gap",
        "offset": 0,
        "slot": "52",
        "type": "t_array(t_uint256)49_storage"
      },
      {
        "astId": 316,
        "contract": "contracts/rune_router/RuneRouterLogic.sol:RuneRouterLogic",
        "label": "_status",
        "offset": 0,
        "slot": "101",
        "type": "t_uint256"
      },
      {
        "astId": 385,
        "contract": "contracts/rune_router/RuneRouterLogic.sol:RuneRouterLogic",
        "label": "__gap",
        "offset": 0,
        "slot": "102",
        "type": "t_array(t_uint256)49_storage"
      },
      {
        "astId": 9759,
        "contract": "contracts/rune_router/RuneRouterLogic.sol:RuneRouterLogic",
        "label": "startingBlockNumber",
        "offset": 0,
        "slot": "151",
        "type": "t_uint256"
      },
      {
        "astId": 9762,
        "contract": "contracts/rune_router/RuneRouterLogic.sol:RuneRouterLogic",
        "label": "chainId",
        "offset": 0,
        "slot": "152",
        "type": "t_uint256"
      },
      {
        "astId": 9765,
        "contract": "contracts/rune_router/RuneRouterLogic.sol:RuneRouterLogic",
        "label": "protocolPercentageFee",
        "offset": 0,
        "slot": "153",
        "type": "t_uint256"
      },
      {
        "astId": 9767,
        "contract": "contracts/rune_router/RuneRouterLogic.sol:RuneRouterLogic",
        "label": "lockerPercentageFee",
        "offset": 0,
        "slot": "154",
        "type": "t_uint256"
      },
      {
        "astId": 9769,
        "contract": "contracts/rune_router/RuneRouterLogic.sol:RuneRouterLogic",
        "label": "runeUnwrapCounter",
        "offset": 0,
        "slot": "155",
        "type": "t_uint256"
      },
      {
        "astId": 9772,
        "contract": "contracts/rune_router/RuneRouterLogic.sol:RuneRouterLogic",
        "label": "relay",
        "offset": 0,
        "slot": "156",
        "type": "t_address"
      },
      {
        "astId": 9775,
        "contract": "contracts/rune_router/RuneRouterLogic.sol:RuneRouterLogic",
        "label": "treasury",
        "offset": 0,
        "slot": "157",
        "type": "t_address"
      },
      {
        "astId": 9778,
        "contract": "contracts/rune_router/RuneRouterLogic.sol:RuneRouterLogic",
        "label": "locker",
        "offset": 0,
        "slot": "158",
        "type": "t_address"
      },
      {
        "astId": 9782,
        "contract": "contracts/rune_router/RuneRouterLogic.sol:RuneRouterLogic",
        "label": "supportedRunes",
        "offset": 0,
        "slot": "159",
        "type": "t_mapping(t_uint256,t_address)"
      },
      {
        "astId": 9786,
        "contract": "contracts/rune_router/RuneRouterLogic.sol:RuneRouterLogic",
        "label": "runeTokenIds",
        "offset": 0,
        "slot": "160",
        "type": "t_mapping(t_string_memory_ptr,t_uint256)"
      },
      {
        "astId": 9791,
        "contract": "contracts/rune_router/RuneRouterLogic.sol:RuneRouterLogic",
        "label": "runeWrapRequests",
        "offset": 0,
        "slot": "161",
        "type": "t_mapping(t_bytes32,t_struct(runeWrapRequest)9844_storage)"
      },
      {
        "astId": 9796,
        "contract": "contracts/rune_router/RuneRouterLogic.sol:RuneRouterLogic",
        "label": "exchangeConnector",
        "offset": 0,
        "slot": "162",
        "type": "t_mapping(t_uint256,t_address)"
      },
      {
        "astId": 9800,
        "contract": "contracts/rune_router/RuneRouterLogic.sol:RuneRouterLogic",
        "label": "runeUnwrapRequests",
        "offset": 0,
        "slot": "163",
        "type": "t_array(t_struct(runeUnwrapRequest)9860_storage)dyn_storage"
      },
      {
        "astId": 9803,
        "contract": "contracts/rune_router/RuneRouterLogic.sol:RuneRouterLogic",
        "label": "lockerLockingScript",
        "offset": 0,
        "slot": "164",
        "type": "t_bytes_storage"
      },
      {
        "astId": 9807,
        "contract": "contracts/rune_router/RuneRouterLogic.sol:RuneRouterLogic",
        "label": "lockerScriptType",
        "offset": 0,
        "slot": "165",
        "type": "t_enum(ScriptTypes)7234"
      },
      {
        "astId": 9810,
        "contract": "contracts/rune_router/RuneRouterLogic.sol:RuneRouterLogic",
        "label": "teleporter",
        "offset": 1,
        "slot": "165",
        "type": "t_address"
      },
      {
        "astId": 9815,
        "contract": "contracts/rune_router/RuneRouterLogic.sol:RuneRouterLogic",
        "label": "thirdParties",
        "offset": 0,
        "slot": "166",
        "type": "t_mapping(t_uint256,t_struct(thirdParty)9865_storage)"
      },
      {
        "astId": 9817,
        "contract": "contracts/rune_router/RuneRouterLogic.sol:RuneRouterLogic",
        "label": "unwrapFee",
        "offset": 0,
        "slot": "167",
        "type": "t_uint256"
      }
    ],
    "types": {
      "t_address": {
        "encoding": "inplace",
        "label": "address",
        "numberOfBytes": "20"
      },
      "t_array(t_struct(runeUnwrapRequest)9860_storage)dyn_storage": {
        "base": "t_struct(runeUnwrapRequest)9860_storage",
        "encoding": "dynamic_array",
        "label": "struct IRuneRouter.runeUnwrapRequest[]",
        "numberOfBytes": "32"
      },
      "t_array(t_uint256)49_storage": {
        "base": "t_uint256",
        "encoding": "inplace",
        "label": "uint256[49]",
        "numberOfBytes": "1568"
      },
      "t_array(t_uint256)50_storage": {
        "base": "t_uint256",
        "encoding": "inplace",
        "label": "uint256[50]",
        "numberOfBytes": "1600"
      },
      "t_bool": {
        "encoding": "inplace",
        "label": "bool",
        "numberOfBytes": "1"
      },
      "t_bytes32": {
        "encoding": "inplace",
        "label": "bytes32",
        "numberOfBytes": "32"
      },
      "t_bytes_storage": {
        "encoding": "bytes",
        "label": "bytes",
        "numberOfBytes": "32"
      },
      "t_enum(ScriptTypes)7234": {
        "encoding": "inplace",
        "label": "enum ScriptTypes",
        "numberOfBytes": "1"
      },
      "t_mapping(t_bytes32,t_struct(runeWrapRequest)9844_storage)": {
        "encoding": "mapping",
        "key": "t_bytes32",
        "label": "mapping(bytes32 => struct IRuneRouter.runeWrapRequest)",
        "numberOfBytes": "32",
        "value": "t_struct(runeWrapRequest)9844_storage"
      },
      "t_mapping(t_string_memory_ptr,t_uint256)": {
        "encoding": "mapping",
        "key": "t_string_memory_ptr",
        "label": "mapping(string => uint256)",
        "numberOfBytes": "32",
        "value": "t_uint256"
      },
      "t_mapping(t_uint256,t_address)": {
        "encoding": "mapping",
        "key": "t_uint256",
        "label": "mapping(uint256 => address)",
        "numberOfBytes": "32",
        "value": "t_address"
      },
      "t_mapping(t_uint256,t_struct(thirdParty)9865_storage)": {
        "encoding": "mapping",
        "key": "t_uint256",
        "label": "mapping(uint256 => struct IRuneRouter.thirdParty)",
        "numberOfBytes": "32",
        "value": "t_struct(thirdParty)9865_storage"
      },
      "t_string_memory_ptr": {
        "encoding": "bytes",
        "label": "string",
        "numberOfBytes": "32"
      },
      "t_struct(runeUnwrapRequest)9860_storage": {
        "encoding": "inplace",
        "label": "struct IRuneRouter.runeUnwrapRequest",
        "members": [
          {
            "astId": 9846,
            "contract": "contracts/rune_router/RuneRouterLogic.sol:RuneRouterLogic",
            "label": "isProcessed",
            "offset": 0,
            "slot": "0",
            "type": "t_bool"
          },
          {
            "astId": 9848,
            "contract": "contracts/rune_router/RuneRouterLogic.sol:RuneRouterLogic",
            "label": "amount",
            "offset": 0,
            "slot": "1",
            "type": "t_uint256"
          },
          {
            "astId": 9850,
            "contract": "contracts/rune_router/RuneRouterLogic.sol:RuneRouterLogic",
            "label": "burntAmount",
            "offset": 0,
            "slot": "2",
            "type": "t_uint256"
          },
          {
            "astId": 9852,
            "contract": "contracts/rune_router/RuneRouterLogic.sol:RuneRouterLogic",
            "label": "appId",
            "offset": 0,
            "slot": "3",
            "type": "t_uint256"
          },
          {
            "astId": 9854,
            "contract": "contracts/rune_router/RuneRouterLogic.sol:RuneRouterLogic",
            "label": "sender",
            "offset": 0,
            "slot": "4",
            "type": "t_address"
          },
          {
            "astId": 9856,
            "contract": "contracts/rune_router/RuneRouterLogic.sol:RuneRouterLogic",
            "label": "userScript",
            "offset": 0,
            "slot": "5",
            "type": "t_bytes_storage"
          },
          {
            "astId": 9859,
            "contract": "contracts/rune_router/RuneRouterLogic.sol:RuneRouterLogic",
            "label": "scriptType",
            "offset": 0,
            "slot": "6",
            "type": "t_enum(ScriptTypes)7234"
          }
        ],
        "numberOfBytes": "224"
      },
      "t_struct(runeWrapRequest)9844_storage": {
        "encoding": "inplace",
        "label": "struct IRuneRouter.runeWrapRequest",
        "members": [
          {
            "astId": 9823,
            "contract": "contracts/rune_router/RuneRouterLogic.sol:RuneRouterLogic",
            "label": "isUsed",
            "offset": 0,
            "slot": "0",
            "type": "t_bool"
          },
          {
            "astId": 9825,
            "contract": "contracts/rune_router/RuneRouterLogic.sol:RuneRouterLogic",
            "label": "chainId",
            "offset": 0,
            "slot": "1",
            "type": "t_uint256"
          },
          {
            "astId": 9827,
            "contract": "contracts/rune_router/RuneRouterLogic.sol:RuneRouterLogic",
            "label": "appId",
            "offset": 0,
            "slot": "2",
            "type": "t_uint256"
          },
          {
            "astId": 9829,
            "contract": "contracts/rune_router/RuneRouterLogic.sol:RuneRouterLogic",
            "label": "tokenId",
            "offset": 0,
            "slot": "3",
            "type": "t_uint256"
          },
          {
            "astId": 9831,
            "contract": "contracts/rune_router/RuneRouterLogic.sol:RuneRouterLogic",
            "label": "inputAmount",
            "offset": 0,
            "slot": "4",
            "type": "t_uint256"
          },
          {
            "astId": 9833,
            "contract": "contracts/rune_router/RuneRouterLogic.sol:RuneRouterLogic",
            "label": "inputToken",
            "offset": 0,
            "slot": "5",
            "type": "t_address"
          },
          {
            "astId": 9835,
            "contract": "contracts/rune_router/RuneRouterLogic.sol:RuneRouterLogic",
            "label": "recipientAddress",
            "offset": 0,
            "slot": "6",
            "type": "t_address"
          },
          {
            "astId": 9837,
            "contract": "contracts/rune_router/RuneRouterLogic.sol:RuneRouterLogic",
            "label": "thirdPartyId",
            "offset": 0,
            "slot": "7",
            "type": "t_uint256"
          },
          {
            "astId": 9839,
            "contract": "contracts/rune_router/RuneRouterLogic.sol:RuneRouterLogic",
            "label": "fee",
            "offset": 0,
            "slot": "8",
            "type": "t_uint256"
          },
          {
            "astId": 9841,
            "contract": "contracts/rune_router/RuneRouterLogic.sol:RuneRouterLogic",
            "label": "outputAmount",
            "offset": 0,
            "slot": "9",
            "type": "t_uint256"
          },
          {
            "astId": 9843,
            "contract": "contracts/rune_router/RuneRouterLogic.sol:RuneRouterLogic",
            "label": "outputToken",
            "offset": 0,
            "slot": "10",
            "type": "t_address"
          }
        ],
        "numberOfBytes": "352"
      },
      "t_struct(thirdParty)9865_storage": {
        "encoding": "inplace",
        "label": "struct IRuneRouter.thirdParty",
        "members": [
          {
            "astId": 9862,
            "contract": "contracts/rune_router/RuneRouterLogic.sol:RuneRouterLogic",
            "label": "thirdPartyAddress",
            "offset": 0,
            "slot": "0",
            "type": "t_address"
          },
          {
            "astId": 9864,
            "contract": "contracts/rune_router/RuneRouterLogic.sol:RuneRouterLogic",
            "label": "thirdPartyFee",
            "offset": 0,
            "slot": "1",
            "type": "t_uint256"
          }
        ],
        "numberOfBytes": "64"
      },
      "t_uint256": {
        "encoding": "inplace",
        "label": "uint256",
        "numberOfBytes": "32"
      },
      "t_uint8": {
        "encoding": "inplace",
        "label": "uint8",
        "numberOfBytes": "1"
      }
    }
  }
}