{
  "address": "0xDCbb3DC87aa39Fe8D4e722A4E625eBE03bF74418",
  "abi": [
    {
      "anonymous": false,
      "inputs": [
        {
          "indexed": true,
          "internalType": "address",
          "name": "owner",
          "type": "address"
        },
        {
          "indexed": true,
          "internalType": "address",
          "name": "spender",
          "type": "address"
        },
        {
          "indexed": false,
          "internalType": "uint256",
          "name": "value",
          "type": "uint256"
        }
      ],
      "name": "Approval",
      "type": "event"
    },
    {
      "anonymous": false,
      "inputs": [
        {
          "indexed": true,
          "internalType": "address",
          "name": "newBlackLister",
          "type": "address"
        }
      ],
      "name": "BlackListerAdded",
      "type": "event"
    },
    {
      "anonymous": false,
      "inputs": [
        {
          "indexed": true,
          "internalType": "address",
          "name": "blackLister",
          "type": "address"
        }
      ],
      "name": "BlackListerRemoved",
      "type": "event"
    },
    {
      "anonymous": false,
      "inputs": [
        {
          "indexed": true,
          "internalType": "address",
          "name": "account",
          "type": "address"
        }
      ],
      "name": "Blacklisted",
      "type": "event"
    },
    {
      "anonymous": false,
      "inputs": [
        {
          "indexed": true,
          "internalType": "address",
          "name": "doer",
          "type": "address"
        },
        {
          "indexed": true,
          "internalType": "address",
          "name": "burner",
          "type": "address"
        },
        {
          "indexed": false,
          "internalType": "uint256",
          "name": "value",
          "type": "uint256"
        }
      ],
      "name": "Burn",
      "type": "event"
    },
    {
      "anonymous": false,
      "inputs": [
        {
          "indexed": true,
          "internalType": "address",
          "name": "newBurner",
          "type": "address"
        }
      ],
      "name": "BurnerAdded",
      "type": "event"
    },
    {
      "anonymous": false,
      "inputs": [
        {
          "indexed": true,
          "internalType": "address",
          "name": "burner",
          "type": "address"
        }
      ],
      "name": "BurnerRemoved",
      "type": "event"
    },
    {
      "anonymous": false,
      "inputs": [
        {
          "indexed": false,
          "internalType": "uint8",
          "name": "version",
          "type": "uint8"
        }
      ],
      "name": "Initialized",
      "type": "event"
    },
    {
      "anonymous": false,
      "inputs": [
        {
          "indexed": true,
          "internalType": "address",
          "name": "doer",
          "type": "address"
        },
        {
          "indexed": true,
          "internalType": "address",
          "name": "receiver",
          "type": "address"
        },
        {
          "indexed": false,
          "internalType": "uint256",
          "name": "value",
          "type": "uint256"
        }
      ],
      "name": "Mint",
      "type": "event"
    },
    {
      "anonymous": false,
      "inputs": [
        {
          "indexed": true,
          "internalType": "address",
          "name": "newMinter",
          "type": "address"
        }
      ],
      "name": "MinterAdded",
      "type": "event"
    },
    {
      "anonymous": false,
      "inputs": [
        {
          "indexed": true,
          "internalType": "address",
          "name": "minter",
          "type": "address"
        }
      ],
      "name": "MinterRemoved",
      "type": "event"
    },
    {
      "anonymous": false,
      "inputs": [
        {
          "indexed": false,
          "internalType": "uint256",
          "name": "oldEpochLength",
          "type": "uint256"
        },
        {
          "indexed": false,
          "internalType": "uint256",
          "name": "newEpochLength",
          "type": "uint256"
        }
      ],
      "name": "NewEpochLength",
      "type": "event"
    },
    {
      "anonymous": false,
      "inputs": [
        {
          "indexed": false,
          "internalType": "uint256",
          "name": "oldMintLimit",
          "type": "uint256"
        },
        {
          "indexed": false,
          "internalType": "uint256",
          "name": "newMintLimit",
          "type": "uint256"
        }
      ],
      "name": "NewMintLimit",
      "type": "event"
    },
    {
      "anonymous": false,
      "inputs": [
        {
          "indexed": true,
          "internalType": "address",
          "name": "previousOwner",
          "type": "address"
        },
        {
          "indexed": true,
          "internalType": "address",
          "name": "newOwner",
          "type": "address"
        }
      ],
      "name": "OwnershipTransferred",
      "type": "event"
    },
    {
      "anonymous": false,
      "inputs": [
        {
          "indexed": true,
          "internalType": "address",
          "name": "from",
          "type": "address"
        },
        {
          "indexed": true,
          "internalType": "address",
          "name": "to",
          "type": "address"
        },
        {
          "indexed": false,
          "internalType": "uint256",
          "name": "value",
          "type": "uint256"
        }
      ],
      "name": "Transfer",
      "type": "event"
    },
    {
      "anonymous": false,
      "inputs": [
        {
          "indexed": true,
          "internalType": "address",
          "name": "account",
          "type": "address"
        }
      ],
      "name": "UnBlacklisted",
      "type": "event"
    },
    {
      "inputs": [
        {
          "internalType": "address",
          "name": "account",
          "type": "address"
        }
      ],
      "name": "addBlackLister",
      "outputs": [],
      "stateMutability": "nonpayable",
      "type": "function"
    },
    {
      "inputs": [
        {
          "internalType": "address",
          "name": "account",
          "type": "address"
        }
      ],
      "name": "addBurner",
      "outputs": [],
      "stateMutability": "nonpayable",
      "type": "function"
    },
    {
      "inputs": [
        {
          "internalType": "address",
          "name": "account",
          "type": "address"
        }
      ],
      "name": "addMinter",
      "outputs": [],
      "stateMutability": "nonpayable",
      "type": "function"
    },
    {
      "inputs": [
        {
          "internalType": "address",
          "name": "owner",
          "type": "address"
        },
        {
          "internalType": "address",
          "name": "spender",
          "type": "address"
        }
      ],
      "name": "allowance",
      "outputs": [
        {
          "internalType": "uint256",
          "name": "",
          "type": "uint256"
        }
      ],
      "stateMutability": "view",
      "type": "function"
    },
    {
      "inputs": [
        {
          "internalType": "address",
          "name": "spender",
          "type": "address"
        },
        {
          "internalType": "uint256",
          "name": "amount",
          "type": "uint256"
        }
      ],
      "name": "approve",
      "outputs": [
        {
          "internalType": "bool",
          "name": "",
          "type": "bool"
        }
      ],
      "stateMutability": "nonpayable",
      "type": "function"
    },
    {
      "inputs": [
        {
          "internalType": "address",
          "name": "account",
          "type": "address"
        }
      ],
      "name": "balanceOf",
      "outputs": [
        {
          "internalType": "uint256",
          "name": "",
          "type": "uint256"
        }
      ],
      "stateMutability": "view",
      "type": "function"
    },
    {
      "inputs": [
        {
          "internalType": "address",
          "name": "_account",
          "type": "address"
        }
      ],
      "name": "blacklist",
      "outputs": [],
      "stateMutability": "nonpayable",
      "type": "function"
    },
    {
      "inputs": [
        {
          "internalType": "address",
          "name": "",
          "type": "address"
        }
      ],
      "name": "blacklisters",
      "outputs": [
        {
          "internalType": "bool",
          "name": "",
          "type": "bool"
        }
      ],
      "stateMutability": "view",
      "type": "function"
    },
    {
      "inputs": [
        {
          "internalType": "uint256",
          "name": "_amount",
          "type": "uint256"
        }
      ],
      "name": "burn",
      "outputs": [
        {
          "internalType": "bool",
          "name": "",
          "type": "bool"
        }
      ],
      "stateMutability": "nonpayable",
      "type": "function"
    },
    {
      "inputs": [
        {
          "internalType": "address",
          "name": "",
          "type": "address"
        }
      ],
      "name": "burners",
      "outputs": [
        {
          "internalType": "bool",
          "name": "",
          "type": "bool"
        }
      ],
      "stateMutability": "view",
      "type": "function"
    },
    {
      "inputs": [],
      "name": "decimals",
      "outputs": [
        {
          "internalType": "uint8",
          "name": "",
          "type": "uint8"
        }
      ],
      "stateMutability": "view",
      "type": "function"
    },
    {
      "inputs": [
        {
          "internalType": "address",
          "name": "spender",
          "type": "address"
        },
        {
          "internalType": "uint256",
          "name": "subtractedValue",
          "type": "uint256"
        }
      ],
      "name": "decreaseAllowance",
      "outputs": [
        {
          "internalType": "bool",
          "name": "",
          "type": "bool"
        }
      ],
      "stateMutability": "nonpayable",
      "type": "function"
    },
    {
      "inputs": [],
      "name": "epochLength",
      "outputs": [
        {
          "internalType": "uint256",
          "name": "",
          "type": "uint256"
        }
      ],
      "stateMutability": "view",
      "type": "function"
    },
    {
      "inputs": [
        {
          "internalType": "address",
          "name": "spender",
          "type": "address"
        },
        {
          "internalType": "uint256",
          "name": "addedValue",
          "type": "uint256"
        }
      ],
      "name": "increaseAllowance",
      "outputs": [
        {
          "internalType": "bool",
          "name": "",
          "type": "bool"
        }
      ],
      "stateMutability": "nonpayable",
      "type": "function"
    },
    {
      "inputs": [
        {
          "internalType": "string",
          "name": "_name",
          "type": "string"
        },
        {
          "internalType": "string",
          "name": "_symbol",
          "type": "string"
        }
      ],
      "name": "initialize",
      "outputs": [],
      "stateMutability": "nonpayable",
      "type": "function"
    },
    {
      "inputs": [
        {
          "internalType": "address",
          "name": "account",
          "type": "address"
        }
      ],
      "name": "isBlackListed",
      "outputs": [
        {
          "internalType": "bool",
          "name": "",
          "type": "bool"
        }
      ],
      "stateMutability": "view",
      "type": "function"
    },
    {
      "inputs": [],
      "name": "lastEpoch",
      "outputs": [
        {
          "internalType": "uint256",
          "name": "",
          "type": "uint256"
        }
      ],
      "stateMutability": "view",
      "type": "function"
    },
    {
      "inputs": [],
      "name": "lastMintLimit",
      "outputs": [
        {
          "internalType": "uint256",
          "name": "",
          "type": "uint256"
        }
      ],
      "stateMutability": "view",
      "type": "function"
    },
    {
      "inputs": [],
      "name": "maxMintLimit",
      "outputs": [
        {
          "internalType": "uint256",
          "name": "",
          "type": "uint256"
        }
      ],
      "stateMutability": "view",
      "type": "function"
    },
    {
      "inputs": [
        {
          "internalType": "address",
          "name": "_receiver",
          "type": "address"
        },
        {
          "internalType": "uint256",
          "name": "_amount",
          "type": "uint256"
        }
      ],
      "name": "mint",
      "outputs": [
        {
          "internalType": "bool",
          "name": "",
          "type": "bool"
        }
      ],
      "stateMutability": "nonpayable",
      "type": "function"
    },
    {
      "inputs": [
        {
          "internalType": "address",
          "name": "",
          "type": "address"
        }
      ],
      "name": "minters",
      "outputs": [
        {
          "internalType": "bool",
          "name": "",
          "type": "bool"
        }
      ],
      "stateMutability": "view",
      "type": "function"
    },
    {
      "inputs": [],
      "name": "name",
      "outputs": [
        {
          "internalType": "string",
          "name": "",
          "type": "string"
        }
      ],
      "stateMutability": "view",
      "type": "function"
    },
    {
      "inputs": [],
      "name": "owner",
      "outputs": [
        {
          "internalType": "address",
          "name": "",
          "type": "address"
        }
      ],
      "stateMutability": "view",
      "type": "function"
    },
    {
      "inputs": [
        {
          "internalType": "address",
          "name": "_user",
          "type": "address"
        },
        {
          "internalType": "uint256",
          "name": "_amount",
          "type": "uint256"
        }
      ],
      "name": "ownerBurn",
      "outputs": [
        {
          "internalType": "bool",
          "name": "",
          "type": "bool"
        }
      ],
      "stateMutability": "nonpayable",
      "type": "function"
    },
    {
      "inputs": [
        {
          "internalType": "address",
          "name": "account",
          "type": "address"
        }
      ],
      "name": "removeBlackLister",
      "outputs": [],
      "stateMutability": "nonpayable",
      "type": "function"
    },
    {
      "inputs": [
        {
          "internalType": "address",
          "name": "account",
          "type": "address"
        }
      ],
      "name": "removeBurner",
      "outputs": [],
      "stateMutability": "nonpayable",
      "type": "function"
    },
    {
      "inputs": [
        {
          "internalType": "address",
          "name": "account",
          "type": "address"
        }
      ],
      "name": "removeMinter",
      "outputs": [],
      "stateMutability": "nonpayable",
      "type": "function"
    },
    {
      "inputs": [],
      "name": "renounceOwnership",
      "outputs": [],
      "stateMutability": "nonpayable",
      "type": "function"
    },
    {
      "inputs": [
        {
          "internalType": "uint256",
          "name": "_length",
          "type": "uint256"
        }
      ],
      "name": "setEpochLength",
      "outputs": [],
      "stateMutability": "nonpayable",
      "type": "function"
    },
    {
      "inputs": [
        {
          "internalType": "uint256",
          "name": "_mintLimit",
          "type": "uint256"
        }
      ],
      "name": "setMaxMintLimit",
      "outputs": [],
      "stateMutability": "nonpayable",
      "type": "function"
    },
    {
      "inputs": [],
      "name": "symbol",
      "outputs": [
        {
          "internalType": "string",
          "name": "",
          "type": "string"
        }
      ],
      "stateMutability": "view",
      "type": "function"
    },
    {
      "inputs": [],
      "name": "totalSupply",
      "outputs": [
        {
          "internalType": "uint256",
          "name": "",
          "type": "uint256"
        }
      ],
      "stateMutability": "view",
      "type": "function"
    },
    {
      "inputs": [
        {
          "internalType": "address",
          "name": "to",
          "type": "address"
        },
        {
          "internalType": "uint256",
          "name": "amount",
          "type": "uint256"
        }
      ],
      "name": "transfer",
      "outputs": [
        {
          "internalType": "bool",
          "name": "",
          "type": "bool"
        }
      ],
      "stateMutability": "nonpayable",
      "type": "function"
    },
    {
      "inputs": [
        {
          "internalType": "address",
          "name": "from",
          "type": "address"
        },
        {
          "internalType": "address",
          "name": "to",
          "type": "address"
        },
        {
          "internalType": "uint256",
          "name": "amount",
          "type": "uint256"
        }
      ],
      "name": "transferFrom",
      "outputs": [
        {
          "internalType": "bool",
          "name": "",
          "type": "bool"
        }
      ],
      "stateMutability": "nonpayable",
      "type": "function"
    },
    {
      "inputs": [
        {
          "internalType": "address",
          "name": "newOwner",
          "type": "address"
        }
      ],
      "name": "transferOwnership",
      "outputs": [],
      "stateMutability": "nonpayable",
      "type": "function"
    },
    {
      "inputs": [
        {
          "internalType": "address",
          "name": "_account",
          "type": "address"
        }
      ],
      "name": "unBlacklist",
      "outputs": [],
      "stateMutability": "nonpayable",
      "type": "function"
    }
  ],
  "transactionHash": "0x5909e917c5c685e0a89e401c2539c04b08e580788dc6ad7f7895325bad5b6450",
  "args": [],
  "numDeployments": 1,
  "solcInputHash": "d58b1882bfd20cf9913ec7421b51f280",
  "bytecode": "0x608060405234801561001057600080fd5b5061230d806100206000396000f3fe608060405234801561001057600080fd5b506004361061025c5760003560e01c806370a0823111610145578063a9a99c0d116100bd578063f2fde38b1161008c578063f46eccc411610071578063f46eccc41461052b578063f926b50c1461054e578063f9f92be4146105615761025c565b8063f2fde38b14610505578063f44637ba146105185761025c565b8063a9a99c0d1461047a578063c00017861461048d578063dd62ed3e146104a0578063e47d6060146104d95761025c565b80638da5cb5b11610114578063983b2d56116100f9578063983b2d5614610441578063a457c2d714610454578063a9059cbb146104675761025c565b80638da5cb5b1461041e57806395d89b41146104395761025c565b806370a08231146103d157806370e2f827146103fa578063715018a61461040357806379de8d351461040b5761025c565b80632f99582a116101d857806340c10f19116101a75780634cd88b761161018c5780634cd88b76146103a257806354eea796146103b557806357d775f8146103c85761025c565b806340c10f191461037c57806342966c681461038f5761025c565b80632f99582a1461033e5780633092afd514610347578063313ce5671461035a57806339509351146103695761025c565b8063095ea7b31161022f57806318160ddd1161021457806318160ddd146103105780631a8952661461031857806323b872dd1461032b5761025c565b8063095ea7b3146102da5780630cb13b2e146102ed5761025c565b8063028468581461026157806303d41e0e1461027657806306a4c983146102ae57806306fdde03146102c5575b600080fd5b61027461026f36600461209e565b610574565b005b61029961028436600461209e565b60ca6020526000908152604090205460ff1681565b60405190151581526020015b60405180910390f35b6102b760d05481565b6040519081526020016102a5565b6102cd61061f565b6040516102a591906121ce565b6102996102e836600461212c565b6106b1565b6102996102fb36600461209e565b60cb6020526000908152604090205460ff1681565b6035546102b7565b61027461032636600461209e565b6106cb565b6102996103393660046120f1565b61077c565b6102b760ce5481565b61027461035536600461209e565b6107a0565b604051600881526020016102a5565b61029961037736600461212c565b610846565b61029961038a36600461212c565b610885565b61029961039d3660046121b6565b610a2f565b6102746103b0366004612155565b610ae1565b6102746103c33660046121b6565b610c28565b6102b760cf5481565b6102b76103df36600461209e565b6001600160a01b031660009081526033602052604090205490565b6102b760cd5481565b610274610cc3565b61027461041936600461209e565b610ccd565b6065546040516001600160a01b0390911681526020016102a5565b6102cd610d73565b61027461044f36600461209e565b610d82565b61029961046236600461212c565b610e2c565b61029961047536600461212c565b610ed6565b61027461048836600461209e565b610ee4565b61029961049b36600461212c565b610f8e565b6102b76104ae3660046120bf565b6001600160a01b03918216600090815260346020908152604080832093909416825291909152205490565b6102996104e736600461209e565b6001600160a01b0316600090815260cc602052604090205460ff1690565b61027461051336600461209e565b611073565b61027461052636600461209e565b611100565b61029961053936600461209e565b60c96020526000908152604090205460ff1681565b61027461055c3660046121b6565b6111aa565b61027461056f36600461209e565b6111f3565b61057c6112a3565b610585816112fd565b6105d65760405162461bcd60e51b815260206004820152601b60248201527f54656c654254433a20646f6573206e6f74206861766520726f6c65000000000060448201526064015b60405180910390fd5b6001600160a01b038116600081815260ca6020526040808220805460ff19169055517f90eabbc0c667db2a5029ed6bc0f5fe9f356d11684a4ca9fcfaec0e53f12b9c8e9190a250565b60606036805461062e90612270565b80601f016020809104026020016040519081016040528092919081815260200182805461065a90612270565b80156106a75780601f1061067c576101008083540402835291602001916106a7565b820191906000526020600020905b81548152906001019060200180831161068a57829003601f168201915b5050505050905090565b6000336106bf818585611374565b60019150505b92915050565b6106d36114cc565b6106dd335b611526565b6107295760405162461bcd60e51b815260206004820152601a60248201527f54656c654254433a206f6e6c7920626c61636b6c69737465727300000000000060448201526064016105cd565b6001600160a01b038116600081815260cc6020526040808220805460ff19169055517f117e3210bb9aa7d9baff172026820255c6f6c30ba8999d1c2fd88e2848137c4e9190a26107796001609755565b50565b60003361078a8582856115a4565b610795858585611636565b506001949350505050565b6107a86112a3565b6107b181611835565b6107fd5760405162461bcd60e51b815260206004820152601b60248201527f54656c654254433a20646f6573206e6f74206861766520726f6c65000000000060448201526064016105cd565b6001600160a01b038116600081815260c96020526040808220805460ff19169055517fe94479a9f7e1952cc78f2d6baab678adc1b772d936c6583def489e524cb666929190a250565b3360008181526034602090815260408083206001600160a01b03871684529091528120549091906106bf9082908690610880908790612221565b611374565b600061088f6114cc565b61089833611835565b6108e45760405162461bcd60e51b815260206004820152601e60248201527f54656c654254433a206f6e6c79206d696e746572732063616e206d696e74000060448201526064016105cd565b60cd5482111561095c5760405162461bcd60e51b815260206004820152603460248201527f54656c654254433a206d696e7420616d6f756e74206973206d6f72652074686160448201527f6e206d6178696d756d206d696e74206c696d697400000000000000000000000060648201526084016105cd565b610965826118ac565b6109d75760405162461bcd60e51b815260206004820152602360248201527f54656c654254433a2072656163686564206d6178696d756d206d696e74206c6960448201527f6d6974000000000000000000000000000000000000000000000000000000000060648201526084016105cd565b6109e1838361191a565b6040518281526001600160a01b0384169033907fab8530f87dc9b59234c4623bf917212bb2536d647574c8e7e5da92c2ede0c9f8906020015b60405180910390a35060016106c56001609755565b6000610a396114cc565b610a42336112fd565b610a8e5760405162461bcd60e51b815260206004820152601e60248201527f54656c654254433a206f6e6c79206275726e6572732063616e206275726e000060448201526064016105cd565b610a9833836119e8565b604051828152339081907fbac40739b0d4ca32fa2d82fc91630465ba3eddd1598da6fca393b26fb63b94539060200160405180910390a3506001610adc6001609755565b919050565b600054610100900460ff1615808015610b015750600054600160ff909116105b80610b1b5750303b158015610b1b575060005460ff166001145b610b8d5760405162461bcd60e51b815260206004820152602e60248201527f496e697469616c697a61626c653a20636f6e747261637420697320616c72656160448201527f647920696e697469616c697a656400000000000000000000000000000000000060648201526084016105cd565b6000805460ff191660011790558015610bb0576000805461ff0019166101001790555b610bba8383611b5f565b610bc2611bd4565b610bca611c47565b6305f5e10060cd81905560ce556107d060cf558015610c23576000805461ff0019169055604051600181527f7f26b83ff96e1f2b6a682f133852f6798a09c465da95921460cefb38474024989060200160405180910390a15b505050565b610c306112a3565b8060008111610c815760405162461bcd60e51b815260206004820152601660248201527f54656c654254433a2076616c7565206973207a65726f0000000000000000000060448201526064016105cd565b60cf5460408051918252602082018490527fd077b1717c042dc03e7eb68030220b62f703db305be2ffb5b9e1d91b639a63f9910160405180910390a15060cf55565b610ccb6112a3565b565b610cd56112a3565b610cde81611526565b610d2a5760405162461bcd60e51b815260206004820152601b60248201527f54656c654254433a20646f6573206e6f74206861766520726f6c65000000000060448201526064016105cd565b6001600160a01b038116600081815260cb6020526040808220805460ff19169055517f607ec77f7f06689ae7a01995caa85bbfcf586a9139e10f97347c90aa8cadd5099190a250565b60606037805461062e90612270565b610d8a6112a3565b610d9381611835565b15610de05760405162461bcd60e51b815260206004820152601960248201527f54656c654254433a20616c72656164792068617320726f6c650000000000000060448201526064016105cd565b6001600160a01b038116600081815260c96020526040808220805460ff19166001179055517f6ae172837ea30b801fbfcdd4108aa1d5bf8ff775444fd70256b44e6bf3dfc3f69190a250565b3360008181526034602090815260408083206001600160a01b038716845290915281205490919083811015610ec95760405162461bcd60e51b815260206004820152602560248201527f45524332303a2064656372656173656420616c6c6f77616e63652062656c6f7760448201527f207a65726f00000000000000000000000000000000000000000000000000000060648201526084016105cd565b6107958286868403611374565b6000336106bf818585611636565b610eec6112a3565b610ef581611526565b15610f425760405162461bcd60e51b815260206004820152601960248201527f54656c654254433a20616c72656164792068617320726f6c650000000000000060448201526064016105cd565b6001600160a01b038116600081815260cb6020526040808220805460ff19166001179055517fb41bc3cdd4276b81dcdeb2f03c2457457661be122c22ade780eacc9398e975829190a250565b6000610f986114cc565b610fa06112a3565b6001600160a01b038316600090815260cc602052604090205460ff1615611013576001600160a01b038316600090815260cc60205260409020805460ff19169055610feb83836119e8565b6001600160a01b038316600090815260cc60205260409020805460ff1916600117905561101d565b61101d83836119e8565b826001600160a01b03166110396065546001600160a01b031690565b6001600160a01b03167fbac40739b0d4ca32fa2d82fc91630465ba3eddd1598da6fca393b26fb63b945384604051610a1a91815260200190565b61107b6112a3565b6001600160a01b0381166110f75760405162461bcd60e51b815260206004820152602660248201527f4f776e61626c653a206e6577206f776e657220697320746865207a65726f206160448201527f646472657373000000000000000000000000000000000000000000000000000060648201526084016105cd565b61077981611cba565b6111086112a3565b611111816112fd565b1561115e5760405162461bcd60e51b815260206004820152601960248201527f54656c654254433a20616c72656164792068617320726f6c650000000000000060448201526064016105cd565b6001600160a01b038116600081815260ca6020526040808220805460ff19166001179055517f86e57fd2b90329052917118de7c3f521f400d439b9650deaa906a25b08b945609190a250565b6111b26112a3565b60cd5460408051918252602082018390527f36ab29917278ebced3c63670f7872f78555ed7cdb4aa5184a159eb978be79508910160405180910390a160cd55565b6111fb6114cc565b611204336106d8565b6112505760405162461bcd60e51b815260206004820152601a60248201527f54656c654254433a206f6e6c7920626c61636b6c69737465727300000000000060448201526064016105cd565b6001600160a01b038116600081815260cc6020526040808220805460ff19166001179055517fffa4e6181777692565cf28528fc88fd1516ea86b56da075235fa575af6a4b8559190a26107796001609755565b6065546001600160a01b03163314610ccb5760405162461bcd60e51b815260206004820181905260248201527f4f776e61626c653a2063616c6c6572206973206e6f7420746865206f776e657260448201526064016105cd565b60006001600160a01b0382166113555760405162461bcd60e51b815260206004820152601560248201527f54656c654254433a207a65726f2061646472657373000000000000000000000060448201526064016105cd565b506001600160a01b0316600090815260ca602052604090205460ff1690565b6001600160a01b0383166113ef5760405162461bcd60e51b8152602060048201526024808201527f45524332303a20617070726f76652066726f6d20746865207a65726f2061646460448201527f726573730000000000000000000000000000000000000000000000000000000060648201526084016105cd565b6001600160a01b03821661146b5760405162461bcd60e51b815260206004820152602260248201527f45524332303a20617070726f766520746f20746865207a65726f20616464726560448201527f737300000000000000000000000000000000000000000000000000000000000060648201526084016105cd565b6001600160a01b0383811660008181526034602090815260408083209487168084529482529182902085905590518481527f8c5be1e5ebec7d5bd14f71427d1e84f3dd0314c0f7b2291e5b200ac8c7c3b925910160405180910390a3505050565b6002609754141561151f5760405162461bcd60e51b815260206004820152601f60248201527f5265656e7472616e637947756172643a207265656e7472616e742063616c6c0060448201526064016105cd565b6002609755565b60006001600160a01b03821661157e5760405162461bcd60e51b815260206004820152601560248201527f54656c654254433a207a65726f2061646472657373000000000000000000000060448201526064016105cd565b506001600160a01b0316600090815260cb602052604090205460ff1690565b6001609755565b6001600160a01b03838116600090815260346020908152604080832093861683529290522054600019811461163057818110156116235760405162461bcd60e51b815260206004820152601d60248201527f45524332303a20696e73756666696369656e7420616c6c6f77616e636500000060448201526064016105cd565b6116308484848403611374565b50505050565b6001600160a01b0383166116b25760405162461bcd60e51b815260206004820152602560248201527f45524332303a207472616e736665722066726f6d20746865207a65726f20616460448201527f647265737300000000000000000000000000000000000000000000000000000060648201526084016105cd565b6001600160a01b03821661172e5760405162461bcd60e51b815260206004820152602360248201527f45524332303a207472616e7366657220746f20746865207a65726f206164647260448201527f657373000000000000000000000000000000000000000000000000000000000060648201526084016105cd565b611739838383611d24565b6001600160a01b038316600090815260336020526040902054818110156117c85760405162461bcd60e51b815260206004820152602660248201527f45524332303a207472616e7366657220616d6f756e742065786365656473206260448201527f616c616e6365000000000000000000000000000000000000000000000000000060648201526084016105cd565b6001600160a01b0380851660008181526033602052604080822086860390559286168082529083902080548601905591517fddf252ad1be2c89b69c2b068fc378daa952ba7f163c4a11628f55a4df523b3ef906118289086815260200190565b60405180910390a3611630565b60006001600160a01b03821661188d5760405162461bcd60e51b815260206004820152601560248201527f54656c654254433a207a65726f2061646472657373000000000000000000000060448201526064016105cd565b506001600160a01b0316600090815260c9602052604090205460ff1690565b60008060cf54436118bd9190612239565b905060d0548114156118fa5760ce548311156118dd576000915050610adc565b8260ce60008282546118ef9190612259565b909155506119119050565b60d081905560cd5461190d908490612259565b60ce555b50600192915050565b6001600160a01b0382166119705760405162461bcd60e51b815260206004820152601f60248201527f45524332303a206d696e7420746f20746865207a65726f20616464726573730060448201526064016105cd565b61197c60008383611d24565b806035600082825461198e9190612221565b90915550506001600160a01b0382166000818152603360209081526040808320805486019055518481527fddf252ad1be2c89b69c2b068fc378daa952ba7f163c4a11628f55a4df523b3ef910160405180910390a35b5050565b6001600160a01b038216611a645760405162461bcd60e51b815260206004820152602160248201527f45524332303a206275726e2066726f6d20746865207a65726f2061646472657360448201527f730000000000000000000000000000000000000000000000000000000000000060648201526084016105cd565b611a7082600083611d24565b6001600160a01b03821660009081526033602052604090205481811015611aff5760405162461bcd60e51b815260206004820152602260248201527f45524332303a206275726e20616d6f756e7420657863656564732062616c616e60448201527f636500000000000000000000000000000000000000000000000000000000000060648201526084016105cd565b6001600160a01b03831660008181526033602090815260408083208686039055603580548790039055518581529192917fddf252ad1be2c89b69c2b068fc378daa952ba7f163c4a11628f55a4df523b3ef910160405180910390a3610c23565b600054610100900460ff16611bca5760405162461bcd60e51b815260206004820152602b60248201527f496e697469616c697a61626c653a20636f6e7472616374206973206e6f74206960448201526a6e697469616c697a696e6760a81b60648201526084016105cd565b6119e48282611df6565b600054610100900460ff16611c3f5760405162461bcd60e51b815260206004820152602b60248201527f496e697469616c697a61626c653a20636f6e7472616374206973206e6f74206960448201526a6e697469616c697a696e6760a81b60648201526084016105cd565b610ccb611e88565b600054610100900460ff16611cb25760405162461bcd60e51b815260206004820152602b60248201527f496e697469616c697a61626c653a20636f6e7472616374206973206e6f74206960448201526a6e697469616c697a696e6760a81b60648201526084016105cd565b610ccb611efc565b606580546001600160a01b038381167fffffffffffffffffffffffff0000000000000000000000000000000000000000831681179093556040519116919082907f8be0079c531659141344cd1fd0a4f28419497f9722a3daafe3b4186f6b6457e090600090a35050565b6001600160a01b038316600090815260cc602052604090205460ff1615611d8d5760405162461bcd60e51b815260206004820152601c60248201527f54656c654254433a2066726f6d20697320626c61636b6c69737465640000000060448201526064016105cd565b6001600160a01b038216600090815260cc602052604090205460ff1615610c235760405162461bcd60e51b815260206004820152601a60248201527f54656c654254433a20746f20697320626c61636b6c697374656400000000000060448201526064016105cd565b600054610100900460ff16611e615760405162461bcd60e51b815260206004820152602b60248201527f496e697469616c697a61626c653a20636f6e7472616374206973206e6f74206960448201526a6e697469616c697a696e6760a81b60648201526084016105cd565b8151611e74906036906020850190611f67565b508051610c23906037906020840190611f67565b600054610100900460ff16611ef35760405162461bcd60e51b815260206004820152602b60248201527f496e697469616c697a61626c653a20636f6e7472616374206973206e6f74206960448201526a6e697469616c697a696e6760a81b60648201526084016105cd565b610ccb33611cba565b600054610100900460ff1661159d5760405162461bcd60e51b815260206004820152602b60248201527f496e697469616c697a61626c653a20636f6e7472616374206973206e6f74206960448201526a6e697469616c697a696e6760a81b60648201526084016105cd565b828054611f7390612270565b90600052602060002090601f016020900481019282611f955760008555611fdb565b82601f10611fae57805160ff1916838001178555611fdb565b82800160010185558215611fdb579182015b82811115611fdb578251825591602001919060010190611fc0565b50611fe7929150611feb565b5090565b5b80821115611fe75760008155600101611fec565b80356001600160a01b0381168114610adc57600080fd5b600082601f830112612027578081fd5b813567ffffffffffffffff80821115612042576120426122c1565b604051601f8301601f19908116603f0116810190828211818310171561206a5761206a6122c1565b81604052838152866020858801011115612082578485fd5b8360208701602083013792830160200193909352509392505050565b6000602082840312156120af578081fd5b6120b882612000565b9392505050565b600080604083850312156120d1578081fd5b6120da83612000565b91506120e860208401612000565b90509250929050565b600080600060608486031215612105578081fd5b61210e84612000565b925061211c60208501612000565b9150604084013590509250925092565b6000806040838503121561213e578182fd5b61214783612000565b946020939093013593505050565b60008060408385031215612167578182fd5b823567ffffffffffffffff8082111561217e578384fd5b61218a86838701612017565b9350602085013591508082111561219f578283fd5b506121ac85828601612017565b9150509250929050565b6000602082840312156121c7578081fd5b5035919050565b6000602080835283518082850152825b818110156121fa578581018301518582016040015282016121de565b8181111561220b5783604083870101525b50601f01601f1916929092016040019392505050565b60008219821115612234576122346122ab565b500190565b60008261225457634e487b7160e01b81526012600452602481fd5b500490565b60008282101561226b5761226b6122ab565b500390565b60028104600182168061228457607f821691505b602082108114156122a557634e487b7160e01b600052602260045260246000fd5b50919050565b634e487b7160e01b600052601160045260246000fd5b634e487b7160e01b600052604160045260246000fdfea2646970667358221220dbc5ea66d7d8ba5a406494b5fa3c895d09908faa42622d02735f321972703ff864736f6c63430008020033",
  "devdoc": {
    "kind": "dev",
    "methods": {
      "addBlackLister(address)": {
        "details": "Only owner can call this function",
        "params": {
          "account": "The account which intended to be added to blacklisters"
        }
      },
      "addBurner(address)": {
        "details": "Only owner can call this function",
        "params": {
          "account": "The account which intended to be added to burners"
        }
      },
      "addMinter(address)": {
        "details": "Only owner can call this function",
        "params": {
          "account": "The account which intended to be added to minters"
        }
      },
      "allowance(address,address)": {
        "details": "See {IERC20-allowance}."
      },
      "approve(address,uint256)": {
        "details": "See {IERC20-approve}. NOTE: If `amount` is the maximum `uint256`, the allowance is not updated on `transferFrom`. This is semantically equivalent to an infinite approval. Requirements: - `spender` cannot be the zero address."
      },
      "balanceOf(address)": {
        "details": "See {IERC20-balanceOf}."
      },
      "blacklist(address)": {
        "details": "Only Blacklisters can call this",
        "params": {
          "_account": "Account blacklisted"
        }
      },
      "burn(uint256)": {
        "details": "Only burners can call this",
        "params": {
          "_amount": "Amount of burnt tokens"
        }
      },
      "decreaseAllowance(address,uint256)": {
        "details": "Atomically decreases the allowance granted to `spender` by the caller. This is an alternative to {approve} that can be used as a mitigation for problems described in {IERC20-approve}. Emits an {Approval} event indicating the updated allowance. Requirements: - `spender` cannot be the zero address. - `spender` must have allowance for the caller of at least `subtractedValue`."
      },
      "increaseAllowance(address,uint256)": {
        "details": "Atomically increases the allowance granted to `spender` by the caller. This is an alternative to {approve} that can be used as a mitigation for problems described in {IERC20-approve}. Emits an {Approval} event indicating the updated allowance. Requirements: - `spender` cannot be the zero address."
      },
      "isBlackListed(address)": {
        "details": "Check if an account is blacklisted.",
        "returns": {
          "_0": "bool"
        }
      },
      "mint(address,uint256)": {
        "details": "Only minters can call this",
        "params": {
          "_amount": "Amount of minted tokens",
          "_receiver": "Address of token's receiver"
        }
      },
      "name()": {
        "details": "Returns the name of the token."
      },
      "owner()": {
        "details": "Returns the address of the current owner."
      },
      "ownerBurn(address,uint256)": {
        "details": "Only owner can call this",
        "params": {
          "_amount": "Amount of burnt tokens",
          "_user": "Address of user whose teleBTC is burnt"
        }
      },
      "removeBlackLister(address)": {
        "details": "Only owner can call this function",
        "params": {
          "account": "The account which intended to be removed from blacklisters"
        }
      },
      "removeBurner(address)": {
        "details": "Only owner can call this function",
        "params": {
          "account": "The account which intended to be removed from burners"
        }
      },
      "removeMinter(address)": {
        "details": "Only owner can call this function",
        "params": {
          "account": "The account which intended to be removed from minters"
        }
      },
      "renounceOwnership()": {
        "details": "Leaves the contract without owner. It will not be possible to call `onlyOwner` functions anymore. Can only be called by the current owner. NOTE: Renouncing ownership will leave the contract without an owner, thereby removing any functionality that is only available to the owner."
      },
      "setEpochLength(uint256)": {
        "details": "change blocks number per epoch."
      },
      "setMaxMintLimit(uint256)": {
        "details": "change maximum mint limit per epoch."
      },
      "symbol()": {
        "details": "Returns the symbol of the token, usually a shorter version of the name."
      },
      "totalSupply()": {
        "details": "See {IERC20-totalSupply}."
      },
      "transfer(address,uint256)": {
        "details": "See {IERC20-transfer}. Requirements: - `to` cannot be the zero address. - the caller must have a balance of at least `amount`."
      },
      "transferFrom(address,address,uint256)": {
        "details": "See {IERC20-transferFrom}. Emits an {Approval} event indicating the updated allowance. This is not required by the EIP. See the note at the beginning of {ERC20}. NOTE: Does not update the allowance if the current allowance is the maximum `uint256`. Requirements: - `from` and `to` cannot be the zero address. - `from` must have a balance of at least `amount`. - the caller must have allowance for ``from``'s tokens of at least `amount`."
      },
      "transferOwnership(address)": {
        "details": "Transfers ownership of the contract to a new account (`newOwner`). Can only be called by the current owner."
      },
      "unBlacklist(address)": {
        "details": "Only Blacklisters can call this",
        "params": {
          "_account": "Account unblacklisted"
        }
      }
    },
    "version": 1
  },
  "userdoc": {
    "kind": "user",
    "methods": {
      "addBlackLister(address)": {
        "notice": "Adds a blacklister"
      },
      "addBurner(address)": {
        "notice": "Adds a burner"
      },
      "addMinter(address)": {
        "notice": "Adds a minter"
      },
      "blacklist(address)": {
        "notice": "Blacklist an account"
      },
      "burn(uint256)": {
        "notice": "Burns TeleBTC tokens of msg.sender"
      },
      "mint(address,uint256)": {
        "notice": "Mints TeleBTC tokens for _receiver"
      },
      "ownerBurn(address,uint256)": {
        "notice": "Burns TeleBTC tokens of user"
      },
      "removeBlackLister(address)": {
        "notice": "Removes a blacklister"
      },
      "removeBurner(address)": {
        "notice": "Removes a burner"
      },
      "removeMinter(address)": {
        "notice": "Removes a minter"
      },
      "unBlacklist(address)": {
        "notice": "UnBlacklist an account"
      }
    },
    "version": 1
  },
  "storageLayout": {
    "storage": [
      {
        "astId": 442,
        "contract": "contracts/erc20/TeleBTCLogic.sol:TeleBTCLogic",
        "label": "_initialized",
        "offset": 0,
        "slot": "0",
        "type": "t_uint8"
      },
      {
        "astId": 445,
        "contract": "contracts/erc20/TeleBTCLogic.sol:TeleBTCLogic",
        "label": "_initializing",
        "offset": 1,
        "slot": "0",
        "type": "t_bool"
      },
      {
        "astId": 1844,
        "contract": "contracts/erc20/TeleBTCLogic.sol:TeleBTCLogic",
        "label": "__gap",
        "offset": 0,
        "slot": "1",
        "type": "t_array(t_uint256)50_storage"
      },
      {
        "astId": 823,
        "contract": "contracts/erc20/TeleBTCLogic.sol:TeleBTCLogic",
        "label": "_balances",
        "offset": 0,
        "slot": "51",
        "type": "t_mapping(t_address,t_uint256)"
      },
      {
        "astId": 829,
        "contract": "contracts/erc20/TeleBTCLogic.sol:TeleBTCLogic",
        "label": "_allowances",
        "offset": 0,
        "slot": "52",
        "type": "t_mapping(t_address,t_mapping(t_address,t_uint256))"
      },
      {
        "astId": 831,
        "contract": "contracts/erc20/TeleBTCLogic.sol:TeleBTCLogic",
        "label": "_totalSupply",
        "offset": 0,
        "slot": "53",
        "type": "t_uint256"
      },
      {
        "astId": 833,
        "contract": "contracts/erc20/TeleBTCLogic.sol:TeleBTCLogic",
        "label": "_name",
        "offset": 0,
        "slot": "54",
        "type": "t_string_storage"
      },
      {
        "astId": 835,
        "contract": "contracts/erc20/TeleBTCLogic.sol:TeleBTCLogic",
        "label": "_symbol",
        "offset": 0,
        "slot": "55",
        "type": "t_string_storage"
      },
      {
        "astId": 1415,
        "contract": "contracts/erc20/TeleBTCLogic.sol:TeleBTCLogic",
        "label": "__gap",
        "offset": 0,
        "slot": "56",
        "type": "t_array(t_uint256)45_storage"
      },
      {
        "astId": 314,
        "contract": "contracts/erc20/TeleBTCLogic.sol:TeleBTCLogic",
        "label": "_owner",
        "offset": 0,
        "slot": "101",
        "type": "t_address"
      },
      {
        "astId": 434,
        "contract": "contracts/erc20/TeleBTCLogic.sol:TeleBTCLogic",
        "label": "__gap",
        "offset": 0,
        "slot": "102",
        "type": "t_array(t_uint256)49_storage"
      },
      {
        "astId": 745,
        "contract": "contracts/erc20/TeleBTCLogic.sol:TeleBTCLogic",
        "label": "_status",
        "offset": 0,
        "slot": "151",
        "type": "t_uint256"
      },
      {
        "astId": 803,
        "contract": "contracts/erc20/TeleBTCLogic.sol:TeleBTCLogic",
        "label": "__gap",
        "offset": 0,
        "slot": "152",
        "type": "t_array(t_uint256)49_storage"
      },
      {
        "astId": 11810,
        "contract": "contracts/erc20/TeleBTCLogic.sol:TeleBTCLogic",
        "label": "minters",
        "offset": 0,
        "slot": "201",
        "type": "t_mapping(t_address,t_bool)"
      },
      {
        "astId": 11814,
        "contract": "contracts/erc20/TeleBTCLogic.sol:TeleBTCLogic",
        "label": "burners",
        "offset": 0,
        "slot": "202",
        "type": "t_mapping(t_address,t_bool)"
      },
      {
        "astId": 11818,
        "contract": "contracts/erc20/TeleBTCLogic.sol:TeleBTCLogic",
        "label": "blacklisters",
        "offset": 0,
        "slot": "203",
        "type": "t_mapping(t_address,t_bool)"
      },
      {
        "astId": 11822,
        "contract": "contracts/erc20/TeleBTCLogic.sol:TeleBTCLogic",
        "label": "blacklisted",
        "offset": 0,
        "slot": "204",
        "type": "t_mapping(t_address,t_bool)"
      },
      {
        "astId": 11824,
        "contract": "contracts/erc20/TeleBTCLogic.sol:TeleBTCLogic",
        "label": "maxMintLimit",
        "offset": 0,
        "slot": "205",
        "type": "t_uint256"
      },
      {
        "astId": 11826,
        "contract": "contracts/erc20/TeleBTCLogic.sol:TeleBTCLogic",
        "label": "lastMintLimit",
        "offset": 0,
        "slot": "206",
        "type": "t_uint256"
      },
      {
        "astId": 11828,
        "contract": "contracts/erc20/TeleBTCLogic.sol:TeleBTCLogic",
        "label": "epochLength",
        "offset": 0,
        "slot": "207",
        "type": "t_uint256"
      },
      {
        "astId": 11830,
        "contract": "contracts/erc20/TeleBTCLogic.sol:TeleBTCLogic",
        "label": "lastEpoch",
        "offset": 0,
        "slot": "208",
        "type": "t_uint256"
      }
    ],
    "types": {
      "t_address": {
        "encoding": "inplace",
        "label": "address",
        "numberOfBytes": "20"
      },
      "t_array(t_uint256)45_storage": {
        "base": "t_uint256",
        "encoding": "inplace",
        "label": "uint256[45]",
        "numberOfBytes": "1440"
      },
      "t_array(t_uint256)49_storage": {
        "base": "t_uint256",
        "encoding": "inplace",
        "label": "uint256[49]",
        "numberOfBytes": "1568"
      },
      "t_array(t_uint256)50_storage": {
        "base": "t_uint256",
        "encoding": "inplace",
        "label": "uint256[50]",
        "numberOfBytes": "1600"
      },
      "t_bool": {
        "encoding": "inplace",
        "label": "bool",
        "numberOfBytes": "1"
      },
      "t_mapping(t_address,t_bool)": {
        "encoding": "mapping",
        "key": "t_address",
        "label": "mapping(address => bool)",
        "numberOfBytes": "32",
        "value": "t_bool"
      },
      "t_mapping(t_address,t_mapping(t_address,t_uint256))": {
        "encoding": "mapping",
        "key": "t_address",
        "label": "mapping(address => mapping(address => uint256))",
        "numberOfBytes": "32",
        "value": "t_mapping(t_address,t_uint256)"
      },
      "t_mapping(t_address,t_uint256)": {
        "encoding": "mapping",
        "key": "t_address",
        "label": "mapping(address => uint256)",
        "numberOfBytes": "32",
        "value": "t_uint256"
      },
      "t_string_storage": {
        "encoding": "bytes",
        "label": "string",
        "numberOfBytes": "32"
      },
      "t_uint256": {
        "encoding": "inplace",
        "label": "uint256",
        "numberOfBytes": "32"
      },
      "t_uint8": {
        "encoding": "inplace",
        "label": "uint8",
        "numberOfBytes": "1"
      }
    }
  }
}