{
  "address": "0xDCe382999fc164Ac915dBE50c561c7436b9557E1",
  "abi": [
    {
      "inputs": [
        {
          "internalType": "string",
          "name": "_name",
          "type": "string"
        },
        {
          "internalType": "address",
          "name": "_exchangeRouter",
          "type": "address"
        }
      ],
      "stateMutability": "nonpayable",
      "type": "constructor"
    },
    {
      "anonymous": false,
      "inputs": [
        {
          "indexed": true,
          "internalType": "address",
          "name": "previousOwner",
          "type": "address"
        },
        {
          "indexed": true,
          "internalType": "address",
          "name": "newOwner",
          "type": "address"
        }
      ],
      "name": "OwnershipTransferred",
      "type": "event"
    },
    {
      "anonymous": false,
      "inputs": [
        {
          "indexed": false,
          "internalType": "address[]",
          "name": "path",
          "type": "address[]"
        },
        {
          "indexed": false,
          "internalType": "uint256[]",
          "name": "amounts",
          "type": "uint256[]"
        },
        {
          "indexed": false,
          "internalType": "address",
          "name": "receiver",
          "type": "address"
        }
      ],
      "name": "Swap",
      "type": "event"
    },
    {
      "inputs": [],
      "name": "exchangeRouter",
      "outputs": [
        {
          "internalType": "address",
          "name": "",
          "type": "address"
        }
      ],
      "stateMutability": "view",
      "type": "function"
    },
    {
      "inputs": [
        {
          "internalType": "uint256",
          "name": "_outputAmount",
          "type": "uint256"
        },
        {
          "internalType": "address",
          "name": "_inputToken",
          "type": "address"
        },
        {
          "internalType": "address",
          "name": "_outputToken",
          "type": "address"
        }
      ],
      "name": "getInputAmount",
      "outputs": [
        {
          "internalType": "bool",
          "name": "",
          "type": "bool"
        },
        {
          "internalType": "uint256",
          "name": "",
          "type": "uint256"
        }
      ],
      "stateMutability": "view",
      "type": "function"
    },
    {
      "inputs": [
        {
          "internalType": "uint256",
          "name": "_inputAmount",
          "type": "uint256"
        },
        {
          "internalType": "address",
          "name": "_inputToken",
          "type": "address"
        },
        {
          "internalType": "address",
          "name": "_outputToken",
          "type": "address"
        }
      ],
      "name": "getOutputAmount",
      "outputs": [
        {
          "internalType": "bool",
          "name": "",
          "type": "bool"
        },
        {
          "internalType": "uint256",
          "name": "",
          "type": "uint256"
        }
      ],
      "stateMutability": "view",
      "type": "function"
    },
    {
      "inputs": [
        {
          "internalType": "address[]",
          "name": "_path",
          "type": "address[]"
        }
      ],
      "name": "isPathValid",
      "outputs": [
        {
          "internalType": "bool",
          "name": "_result",
          "type": "bool"
        }
      ],
      "stateMutability": "view",
      "type": "function"
    },
    {
      "inputs": [],
      "name": "liquidityPoolFactory",
      "outputs": [
        {
          "internalType": "address",
          "name": "",
          "type": "address"
        }
      ],
      "stateMutability": "view",
      "type": "function"
    },
    {
      "inputs": [],
      "name": "name",
      "outputs": [
        {
          "internalType": "string",
          "name": "",
          "type": "string"
        }
      ],
      "stateMutability": "view",
      "type": "function"
    },
    {
      "inputs": [],
      "name": "owner",
      "outputs": [
        {
          "internalType": "address",
          "name": "",
          "type": "address"
        }
      ],
      "stateMutability": "view",
      "type": "function"
    },
    {
      "inputs": [],
      "name": "renounceOwnership",
      "outputs": [],
      "stateMutability": "nonpayable",
      "type": "function"
    },
    {
      "inputs": [
        {
          "internalType": "address",
          "name": "_exchangeRouter",
          "type": "address"
        }
      ],
      "name": "setExchangeRouter",
      "outputs": [],
      "stateMutability": "nonpayable",
      "type": "function"
    },
    {
      "inputs": [],
      "name": "setLiquidityPoolFactory",
      "outputs": [],
      "stateMutability": "nonpayable",
      "type": "function"
    },
    {
      "inputs": [],
      "name": "setWrappedNativeToken",
      "outputs": [],
      "stateMutability": "nonpayable",
      "type": "function"
    },
    {
      "inputs": [
        {
          "internalType": "uint256",
          "name": "_inputAmount",
          "type": "uint256"
        },
        {
          "internalType": "uint256",
          "name": "_outputAmount",
          "type": "uint256"
        },
        {
          "internalType": "address[]",
          "name": "_path",
          "type": "address[]"
        },
        {
          "internalType": "address",
          "name": "_to",
          "type": "address"
        },
        {
          "internalType": "uint256",
          "name": "_deadline",
          "type": "uint256"
        },
        {
          "internalType": "bool",
          "name": "_isFixedToken",
          "type": "bool"
        }
      ],
      "name": "swap",
      "outputs": [
        {
          "internalType": "bool",
          "name": "_result",
          "type": "bool"
        },
        {
          "internalType": "uint256[]",
          "name": "_amounts",
          "type": "uint256[]"
        }
      ],
      "stateMutability": "nonpayable",
      "type": "function"
    },
    {
      "inputs": [
        {
          "internalType": "address",
          "name": "newOwner",
          "type": "address"
        }
      ],
      "name": "transferOwnership",
      "outputs": [],
      "stateMutability": "nonpayable",
      "type": "function"
    },
    {
      "inputs": [],
      "name": "wrappedNativeToken",
      "outputs": [
        {
          "internalType": "address",
          "name": "",
          "type": "address"
        }
      ],
      "stateMutability": "view",
      "type": "function"
    }
  ],
  "transactionHash": "0xb782469144ec3a2bfcf0d1e14096cc284bd43621e8472c5ce3aa4e66bcfa7b69",
  "args": [
    "QuickswapV2",
    "0xf0568b9E879ae5851406b7ACCF2D694f32a8B0fE"
  ],
  "numDeployments": 1,
  "solcInputHash": "69a6c07099b56044da2d237d5505ab2c",
  "bytecode": "0x60806040523480156200001157600080fd5b506040516200257c3803806200257c8339810160408190526200003491620002dd565b6200003f33620001a6565b60018055815162000058906002906020850190620001f6565b50600380546001600160a01b0319166001600160a01b0383169081179091556040805163c45a015560e01b8152905163c45a015591600480820192602092909190829003018186803b158015620000ae57600080fd5b505afa158015620000c3573d6000803e3d6000fd5b505050506040513d601f19601f82011682018060405250810190620000e99190620002b9565b600480546001600160a01b0319166001600160a01b03928316178155600354604080516315ab88c960e31b81529051919093169263ad5c46489281810192602092909190829003018186803b1580156200014257600080fd5b505afa15801562000157573d6000803e3d6000fd5b505050506040513d601f19601f820116820180604052508101906200017d9190620002b9565b600580546001600160a01b0319166001600160a01b0392909216919091179055506200041b9050565b600080546001600160a01b038381166001600160a01b0319831681178455604051919092169283917f8be0079c531659141344cd1fd0a4f28419497f9722a3daafe3b4186f6b6457e09190a35050565b8280546200020490620003c8565b90600052602060002090601f01602090048101928262000228576000855562000273565b82601f106200024357805160ff191683800117855562000273565b8280016001018555821562000273579182015b828111156200027357825182559160200191906001019062000256565b506200028192915062000285565b5090565b5b8082111562000281576000815560010162000286565b80516001600160a01b0381168114620002b457600080fd5b919050565b600060208284031215620002cb578081fd5b620002d6826200029c565b9392505050565b60008060408385031215620002f0578081fd5b82516001600160401b038082111562000307578283fd5b818501915085601f8301126200031b578283fd5b81518181111562000330576200033062000405565b604051601f8201601f19908116603f011681019083821181831017156200035b576200035b62000405565b8160405282815260209350888484870101111562000377578586fd5b8591505b828210156200039a57848201840151818301850152908301906200037b565b82821115620003ab57858484830101525b9550620003bd9150508582016200029c565b925050509250929050565b600181811c90821680620003dd57607f821691505b60208210811415620003ff57634e487b7160e01b600052602260045260246000fd5b50919050565b634e487b7160e01b600052604160045260246000fd5b612151806200042b6000396000f3fe608060405234801561001057600080fd5b50600436106100ba5760003560e01c806306fdde03146100bf5780631580b5e5146100dd57806317fcb39b146100e75780631cb8581814610112578063715018a614610125578063838b7ccb1461012d57806389883074146101405780638da5cb5b1461016a5780639b4bca2414610172578063b0bbcd8814610195578063b23e4fc6146101b6578063df71d7f3146101be578063e75d75d5146101d1578063f2fde38b146101e4575b600080fd5b6100c76101f7565b6040516100d49190611ee2565b60405180910390f35b6100e5610285565b005b6005546100fa906001600160a01b031681565b6040516001600160a01b0390911681526020016100d4565b6003546100fa906001600160a01b031681565b6100e5610365565b6100e561013b366004611c18565b610396565b61015361014e366004611d3f565b61052c565b6040805192151583526020830191909152016100d4565b6100fa610976565b610185610180366004611c57565b610985565b60405190151581526020016100d4565b6101a86101a3366004611d80565b610ac9565b6040516100d4929190611ec7565b6100e5611313565b6101536101cc366004611d3f565b6113ea565b6004546100fa906001600160a01b031681565b6100e56101f2366004611c18565b6118d3565b6002805461020490612076565b80601f016020809104026020016040519081016040528092919081815260200182805461023090612076565b801561027d5780601f106102525761010080835404028352916020019161027d565b820191906000526020600020905b81548152906001019060200180831161026057829003601f168201915b505050505081565b3361028e610976565b6001600160a01b0316146102bd5760405162461bcd60e51b81526004016102b490611f35565b60405180910390fd5b600360009054906101000a90046001600160a01b03166001600160a01b031663ad5c46486040518163ffffffff1660e01b815260040160206040518083038186803b15801561030b57600080fd5b505afa15801561031f573d6000803e3d6000fd5b505050506040513d601f19601f820116820180604052508101906103439190611c3b565b600580546001600160a01b0319166001600160a01b0392909216919091179055565b3361036e610976565b6001600160a01b0316146103945760405162461bcd60e51b81526004016102b490611f35565b565b806001600160a01b0381166103bd5760405162461bcd60e51b81526004016102b490611f6a565b336103c6610976565b6001600160a01b0316146103ec5760405162461bcd60e51b81526004016102b490611f35565b600380546001600160a01b0319166001600160a01b0384169081179091556040805163c45a015560e01b8152905163c45a015591600480820192602092909190829003018186803b15801561044057600080fd5b505afa158015610454573d6000803e3d6000fd5b505050506040513d601f19601f820116820180604052508101906104789190611c3b565b600480546001600160a01b0319166001600160a01b03928316178155600354604080516315ab88c960e31b81529051919093169263ad5c46489281810192602092909190829003018186803b1580156104d057600080fd5b505afa1580156104e4573d6000803e3d6000fd5b505050506040513d601f19601f820116820180604052508101906105089190611c3b565b600580546001600160a01b0319166001600160a01b03929092169190911790555050565b600080836001600160a01b0381166105565760405162461bcd60e51b81526004016102b490611f6a565b836001600160a01b03811661057d5760405162461bcd60e51b81526004016102b490611f6a565b6004805460405163e6a4390560e01b81526000926001600160a01b039092169163e6a43905916105b1918b918b9101611e6f565b60206040518083038186803b1580156105c957600080fd5b505afa1580156105dd573d6000803e3d6000fd5b505050506040513d601f19601f820116820180604052508101906106019190611c3b565b90506001600160a01b0381166108e7576004805460055460405163e6a4390560e01b81526000936001600160a01b039384169363e6a439059361064b938e93919092169101611e6f565b60206040518083038186803b15801561066357600080fd5b505afa158015610677573d6000803e3d6000fd5b505050506040513d601f19601f8201168201806040525081019061069b9190611c3b565b6001600160a01b0316148061073e57506004805460055460405163e6a4390560e01b81526000936001600160a01b039384169363e6a43905936106e3939116918c9101611e6f565b60206040518083038186803b1580156106fb57600080fd5b505afa15801561070f573d6000803e3d6000fd5b505050506040513d601f19601f820116820180604052508101906107339190611c3b565b6001600160a01b0316145b1561075057600080945094505061096c565b6040805160038082526080820190925260009160208201606080368337019050509050878160008151811061079557634e487b7160e01b600052603260045260246000fd5b6001600160a01b0392831660209182029290920101526005548251911690829060019081106107d457634e487b7160e01b600052603260045260246000fd5b60200260200101906001600160a01b031690816001600160a01b031681525050868160028151811061081657634e487b7160e01b600052603260045260246000fd5b6001600160a01b0392831660209182029290920101526003546040516307c0329d60e21b81526000929190911690631f00ca749061085a908d908690600401611f9f565b60006040518083038186803b15801561087257600080fd5b505afa158015610886573d6000803e3d6000fd5b505050506040513d6000823e601f3d908101601f191682016040526108ae9190810190611c91565b90506001816000815181106108d357634e487b7160e01b600052603260045260246000fd5b60200260200101519650965050505061096c565b604080516002808252606082018352600092602083019080368337019050509050878160008151811061092a57634e487b7160e01b600052603260045260246000fd5b60200260200101906001600160a01b031690816001600160a01b031681525050868160018151811061081657634e487b7160e01b600052603260045260246000fd5b5050935093915050565b6000546001600160a01b031690565b60008060028351101561099b5750600092915050565b60005b600184516109ac919061205f565b811015610abf5760045484516001600160a01b039091169063e6a43905908690849081106109ea57634e487b7160e01b600052603260045260246000fd5b602002602001015186846001610a009190612047565b81518110610a1e57634e487b7160e01b600052603260045260246000fd5b60200260200101516040518363ffffffff1660e01b8152600401610a43929190611e6f565b60206040518083038186803b158015610a5b57600080fd5b505afa158015610a6f573d6000803e3d6000fd5b505050506040513d601f19601f82011682018060405250810190610a939190611c3b565b91506001600160a01b038216610aad575060009392505050565b80610ab7816120b1565b91505061099e565b5060019392505050565b6000606060026001541415610b205760405162461bcd60e51b815260206004820152601f60248201527f5265656e7472616e637947756172643a207265656e7472616e742063616c6c0060448201526064016102b4565b6002600155846001600160a01b038116610b4c5760405162461bcd60e51b81526004016102b490611f6a565b865160021415610d6d5760045487516000916001600160a01b03169063e6a43905908a908490610b8c57634e487b7160e01b600052603260045260246000fd5b60200260200101518a600181518110610bb557634e487b7160e01b600052603260045260246000fd5b60200260200101516040518363ffffffff1660e01b8152600401610bda929190611e6f565b60206040518083038186803b158015610bf257600080fd5b505afa158015610c06573d6000803e3d6000fd5b505050506040513d601f19601f82011682018060405250810190610c2a9190611c3b565b90506001600160a01b038116610d6b57604080516003808252608082019092526000916020820160608036833701905050905088600081518110610c7e57634e487b7160e01b600052603260045260246000fd5b602002602001015181600081518110610ca757634e487b7160e01b600052603260045260246000fd5b6001600160a01b039283166020918202929092010152600554825191169082906001908110610ce657634e487b7160e01b600052603260045260246000fd5b60200260200101906001600160a01b031690816001600160a01b03168152505088600181518110610d2757634e487b7160e01b600052603260045260246000fd5b602002602001015181600281518110610d5057634e487b7160e01b600052603260045260246000fd5b6001600160a01b039092166020928302919091019091015297505b505b6000610d7c8a8a8a8989611973565b909450905083156113005787600081518110610da857634e487b7160e01b600052603260045260246000fd5b60200260200101516001600160a01b03166323b872dd610dc53390565b6040516001600160e01b031960e084901b1681526001600160a01b03909116600482015230602482015260448101849052606401602060405180830381600087803b158015610e1357600080fd5b505af1158015610e27573d6000803e3d6000fd5b505050506040513d601f19601f82011682018060405250810190610e4b9190611d23565b5087600081518110610e6d57634e487b7160e01b600052603260045260246000fd5b602090810291909101015160035460405163095ea7b360e01b81526001600160a01b0391821660048201526024810184905291169063095ea7b390604401602060405180830381600087803b158015610ec557600080fd5b505af1158015610ed9573d6000803e3d6000fd5b505050506040513d601f19601f82011682018060405250810190610efd9190611d23565b5084158015610f58575060055488516001600160a01b03909116908990610f269060019061205f565b81518110610f4457634e487b7160e01b600052603260045260246000fd5b60200260200101516001600160a01b031614155b15610fee57600354604051634401edf760e11b81526001600160a01b0390911690638803dbee90610f95908c908e908d908d908d90600401611fb8565b600060405180830381600087803b158015610faf57600080fd5b505af1158015610fc3573d6000803e3d6000fd5b505050506040513d6000823e601f3d908101601f19168201604052610feb9190810190611c91565b92505b84158015611047575060055488516001600160a01b039091169089906110169060019061205f565b8151811061103457634e487b7160e01b600052603260045260246000fd5b60200260200101516001600160a01b0316145b156110dd57600354604051632512eca560e11b81526001600160a01b0390911690634a25d94a90611084908c908e908d908d908d90600401611fb8565b600060405180830381600087803b15801561109e57600080fd5b505af11580156110b2573d6000803e3d6000fd5b505050506040513d6000823e601f3d908101601f191682016040526110da9190810190611c91565b92505b600185151514801561113b575060055488516001600160a01b039091169089906111099060019061205f565b8151811061112757634e487b7160e01b600052603260045260246000fd5b60200260200101516001600160a01b031614155b156111d1576003546040516338ed173960e01b81526001600160a01b03909116906338ed173990611178908d908d908d908d908d90600401611fb8565b600060405180830381600087803b15801561119257600080fd5b505af11580156111a6573d6000803e3d6000fd5b505050506040513d6000823e601f3d908101601f191682016040526111ce9190810190611c91565b92505b600185151514801561122e575060055488516001600160a01b039091169089906111fd9060019061205f565b8151811061121b57634e487b7160e01b600052603260045260246000fd5b60200260200101516001600160a01b0316145b156112c4576003546040516318cbafe560e01b81526001600160a01b03909116906318cbafe59061126b908d908d908d908d908d90600401611fb8565b600060405180830381600087803b15801561128557600080fd5b505af1158015611299573d6000803e3d6000fd5b505050506040513d6000823e601f3d908101601f191682016040526112c19190810190611c91565b92505b7fe1010d0ab476908054981d12fbb96915efcceb8d57a09ae8ca62f4bda73183738884896040516112f793929190611e89565b60405180910390a15b5050600180559097909650945050505050565b3361131c610976565b6001600160a01b0316146113425760405162461bcd60e51b81526004016102b490611f35565b600360009054906101000a90046001600160a01b03166001600160a01b031663c45a01556040518163ffffffff1660e01b815260040160206040518083038186803b15801561139057600080fd5b505afa1580156113a4573d6000803e3d6000fd5b505050506040513d601f19601f820116820180604052508101906113c89190611c3b565b600480546001600160a01b0319166001600160a01b0392909216919091179055565b600080836001600160a01b0381166114145760405162461bcd60e51b81526004016102b490611f6a565b836001600160a01b03811661143b5760405162461bcd60e51b81526004016102b490611f6a565b6004805460405163e6a4390560e01b81526000926001600160a01b039092169163e6a439059161146f918b918b9101611e6f565b60206040518083038186803b15801561148757600080fd5b505afa15801561149b573d6000803e3d6000fd5b505050506040513d601f19601f820116820180604052508101906114bf9190611c3b565b90506001600160a01b038116611791576004805460055460405163e6a4390560e01b81526000936001600160a01b039384169363e6a4390593611509938e93919092169101611e6f565b60206040518083038186803b15801561152157600080fd5b505afa158015611535573d6000803e3d6000fd5b505050506040513d601f19601f820116820180604052508101906115599190611c3b565b6001600160a01b031614806115fc57506004805460055460405163e6a4390560e01b81526000936001600160a01b039384169363e6a43905936115a1939116918c9101611e6f565b60206040518083038186803b1580156115b957600080fd5b505afa1580156115cd573d6000803e3d6000fd5b505050506040513d601f19601f820116820180604052508101906115f19190611c3b565b6001600160a01b0316145b1561160e57600080945094505061096c565b6040805160038082526080820190925260009160208201606080368337019050509050878160008151811061165357634e487b7160e01b600052603260045260246000fd5b6001600160a01b03928316602091820292909201015260055482519116908290600190811061169257634e487b7160e01b600052603260045260246000fd5b60200260200101906001600160a01b031690816001600160a01b03168152505086816002815181106116d457634e487b7160e01b600052603260045260246000fd5b6001600160a01b03928316602091820292909201015260035460405163d06ca61f60e01b8152600092919091169063d06ca61f90611718908d908690600401611f9f565b60006040518083038186803b15801561173057600080fd5b505afa158015611744573d6000803e3d6000fd5b505050506040513d6000823e601f3d908101601f1916820160405261176c9190810190611c91565b90506001816002815181106108d357634e487b7160e01b600052603260045260246000fd5b60408051600280825260608201835260009260208301908036833701905050905087816000815181106117d457634e487b7160e01b600052603260045260246000fd5b60200260200101906001600160a01b031690816001600160a01b031681525050868160018151811061181657634e487b7160e01b600052603260045260246000fd5b6001600160a01b03928316602091820292909201015260035460405163d06ca61f60e01b8152600092919091169063d06ca61f9061185a908d908690600401611f9f565b60006040518083038186803b15801561187257600080fd5b505afa158015611886573d6000803e3d6000fd5b505050506040513d6000823e601f3d908101601f191682016040526118ae9190810190611c91565b90506001816001815181106108d357634e487b7160e01b600052603260045260246000fd5b336118dc610976565b6001600160a01b0316146119025760405162461bcd60e51b81526004016102b490611f35565b6001600160a01b0381166119675760405162461bcd60e51b815260206004820152602660248201527f4f776e61626c653a206e6577206f776e657220697320746865207a65726f206160448201526564647265737360d01b60648201526084016102b4565b61197081611b50565b50565b6000804284101561198957506000905080611b46565b61199285610985565b6119a157506000905080611b46565b60035460405163d06ca61f60e01b81526000916001600160a01b03169063d06ca61f906119d4908b908a90600401611f9f565b60006040518083038186803b1580156119ec57600080fd5b505afa158015611a00573d6000803e3d6000fd5b505050506040513d6000823e601f3d908101601f19168201604052611a289190810190611c91565b90508060018751611a39919061205f565b81518110611a5757634e487b7160e01b600052603260045260246000fd5b6020026020010151871115611a73576000809250925050611b46565b60018415151415611a8b576001889250925050611b46565b6003546040516307c0329d60e21b81526000916001600160a01b031690631f00ca7490611abe908b908b90600401611f9f565b60006040518083038186803b158015611ad657600080fd5b505afa158015611aea573d6000803e3d6000fd5b505050506040513d6000823e601f3d908101601f19168201604052611b129190810190611c91565b9050600181600081518110611b3757634e487b7160e01b600052603260045260246000fd5b60200260200101519350935050505b9550959350505050565b600080546001600160a01b038381166001600160a01b0319831681178455604051919092169283917f8be0079c531659141344cd1fd0a4f28419497f9722a3daafe3b4186f6b6457e09190a35050565b600082601f830112611bb0578081fd5b81356020611bc5611bc083612024565b611ff4565b80838252828201915082860187848660051b8901011115611be4578586fd5b855b85811015611c0b578135611bf9816120f8565b84529284019290840190600101611be6565b5090979650505050505050565b600060208284031215611c29578081fd5b8135611c34816120f8565b9392505050565b600060208284031215611c4c578081fd5b8151611c34816120f8565b600060208284031215611c68578081fd5b81356001600160401b03811115611c7d578182fd5b611c8984828501611ba0565b949350505050565b60006020808385031215611ca3578182fd5b82516001600160401b03811115611cb8578283fd5b8301601f81018513611cc8578283fd5b8051611cd6611bc082612024565b80828252848201915084840188868560051b8701011115611cf5578687fd5b8694505b83851015611d17578051835260019490940193918501918501611cf9565b50979650505050505050565b600060208284031215611d34578081fd5b8151611c348161210d565b600080600060608486031215611d53578182fd5b833592506020840135611d65816120f8565b91506040840135611d75816120f8565b809150509250925092565b60008060008060008060c08789031215611d98578182fd5b863595506020870135945060408701356001600160401b03811115611dbb578283fd5b611dc789828a01611ba0565b9450506060870135611dd8816120f8565b92506080870135915060a0870135611def8161210d565b809150509295509295509295565b6000815180845260208085019450808401835b83811015611e355781516001600160a01b031687529582019590820190600101611e10565b509495945050505050565b6000815180845260208085019450808401835b83811015611e3557815187529582019590820190600101611e53565b6001600160a01b0392831681529116602082015260400190565b606081526000611e9c6060830186611dfd565b8281036020840152611eae8186611e40565b91505060018060a01b0383166040830152949350505050565b8215158152604060208201526000611c896040830184611e40565b6000602080835283518082850152825b81811015611f0e57858101830151858201604001528201611ef2565b81811115611f1f5783604083870101525b50601f01601f1916929092016040019392505050565b6020808252818101527f4f776e61626c653a2063616c6c6572206973206e6f7420746865206f776e6572604082015260600190565b6020808252818101527f556e69737761705632436f6e6e6563746f723a207a65726f2061646472657373604082015260600190565b828152604060208201526000611c896040830184611dfd565b85815284602082015260a060408201526000611fd760a0830186611dfd565b6001600160a01b0394909416606083015250608001529392505050565b604051601f8201601f191681016001600160401b038111828210171561201c5761201c6120e2565b604052919050565b60006001600160401b0382111561203d5761203d6120e2565b5060051b60200190565b6000821982111561205a5761205a6120cc565b500190565b600082821015612071576120716120cc565b500390565b600181811c9082168061208a57607f821691505b602082108114156120ab57634e487b7160e01b600052602260045260246000fd5b50919050565b60006000198214156120c5576120c56120cc565b5060010190565b634e487b7160e01b600052601160045260246000fd5b634e487b7160e01b600052604160045260246000fd5b6001600160a01b038116811461197057600080fd5b801515811461197057600080fdfea264697066735822122093f2ae47a81050cd8f70aaf160a21cf8d367546239a5c7cc3d2f141c1d9741c764736f6c63430008040033",
  "devdoc": {
    "kind": "dev",
    "methods": {
      "constructor": {
        "params": {
          "_exchangeRouter": "Address of the DEX router contract",
          "_name": "Name of the underlying DEX"
        }
      },
      "getInputAmount(uint256,address,address)": {
        "details": "Returns (false, 0) if liquidity pool of inputToken-outputToken doesn't exist                             Returns (false, 0) if desired output amount is greater than or equal to output reserve",
        "params": {
          "_inputToken": "Address of the input token",
          "_outputAmount": "Desired output amount",
          "_outputToken": "Address of the output token"
        }
      },
      "getOutputAmount(uint256,address,address)": {
        "details": "Returns (false, 0) if liquidity pool of inputToken-outputToken doesn't exist",
        "params": {
          "_inputAmount": "Amount of input token",
          "_inputToken": "Address of the input token",
          "_outputToken": "Address of the output token"
        }
      },
      "isPathValid(address[])": {
        "params": {
          "_path": "List of tokens that are used for exchanging"
        }
      },
      "owner()": {
        "details": "Returns the address of the current owner."
      },
      "renounceOwnership()": {
        "details": "Leaves the contract without owner. It will not be possible to call `onlyOwner` functions anymore. Can only be called by the current owner. NOTE: Renouncing ownership will leave the contract without an owner, thereby removing any functionality that is only available to the owner."
      },
      "setExchangeRouter(address)": {
        "details": "Gets address of liquidity pool factory from new exchange router",
        "params": {
          "_exchangeRouter": "Address of the new exchange router contract"
        }
      },
      "setLiquidityPoolFactory()": {
        "details": "Gets address from exchange router"
      },
      "setWrappedNativeToken()": {
        "details": "Gets address from exchange router"
      },
      "swap(uint256,uint256,address[],address,uint256,bool)": {
        "details": "Checks exchange conditions before exchanging                             We assume that the input token is not WETH (it is teleBTC)",
        "params": {
          "_deadline": "Deadline of exchanging tokens",
          "_inputAmount": "Amount of input token",
          "_isFixedToken": "True if the input token amount is fixed",
          "_outputAmount": "Amount of output token",
          "_path": "List of tokens that are used for exchanging",
          "_to": "Receiver address"
        },
        "returns": {
          "_amounts": "           Amounts of tokens that are involved in exchanging",
          "_result": "            True if the exchange is successful"
        }
      },
      "transferOwnership(address)": {
        "details": "Transfers ownership of the contract to a new account (`newOwner`). Can only be called by the current owner."
      }
    },
    "version": 1
  },
  "userdoc": {
    "kind": "user",
    "methods": {
      "constructor": {
        "notice": "This contract is used for interacting with UniswapV2 contract"
      },
      "getInputAmount(uint256,address,address)": {
        "notice": "Returns required input amount to get desired output amount"
      },
      "getOutputAmount(uint256,address,address)": {
        "notice": "Returns amount of output token that user receives "
      },
      "isPathValid(address[])": {
        "notice": "Returns true if the exchange path is valid"
      },
      "setExchangeRouter(address)": {
        "notice": "Setter for exchange router"
      },
      "setLiquidityPoolFactory()": {
        "notice": "Setter for liquidity pool factory"
      },
      "setWrappedNativeToken()": {
        "notice": "Setter for wrapped native token"
      },
      "swap(uint256,uint256,address[],address,uint256,bool)": {
        "notice": "Exchanges input token for output token through exchange router"
      }
    },
    "version": 1
  },
  "storageLayout": {
    "storage": [
      {
        "astId": 1853,
        "contract": "contracts/connectors/UniswapV2Connector.sol:UniswapV2Connector",
        "label": "_owner",
        "offset": 0,
        "slot": "0",
        "type": "t_address"
      },
      {
        "astId": 2680,
        "contract": "contracts/connectors/UniswapV2Connector.sol:UniswapV2Connector",
        "label": "_status",
        "offset": 0,
        "slot": "1",
        "type": "t_uint256"
      },
      {
        "astId": 9067,
        "contract": "contracts/connectors/UniswapV2Connector.sol:UniswapV2Connector",
        "label": "name",
        "offset": 0,
        "slot": "2",
        "type": "t_string_storage"
      },
      {
        "astId": 9070,
        "contract": "contracts/connectors/UniswapV2Connector.sol:UniswapV2Connector",
        "label": "exchangeRouter",
        "offset": 0,
        "slot": "3",
        "type": "t_address"
      },
      {
        "astId": 9073,
        "contract": "contracts/connectors/UniswapV2Connector.sol:UniswapV2Connector",
        "label": "liquidityPoolFactory",
        "offset": 0,
        "slot": "4",
        "type": "t_address"
      },
      {
        "astId": 9076,
        "contract": "contracts/connectors/UniswapV2Connector.sol:UniswapV2Connector",
        "label": "wrappedNativeToken",
        "offset": 0,
        "slot": "5",
        "type": "t_address"
      }
    ],
    "types": {
      "t_address": {
        "encoding": "inplace",
        "label": "address",
        "numberOfBytes": "20"
      },
      "t_string_storage": {
        "encoding": "bytes",
        "label": "string",
        "numberOfBytes": "32"
      },
      "t_uint256": {
        "encoding": "inplace",
        "label": "uint256",
        "numberOfBytes": "32"
      }
    }
  }
}