{
  "address": "0xc17e3b03419F5E2673e5271fB84Cd7f47338f4ab",
  "abi": [
    {
      "anonymous": false,
      "inputs": [
        {
          "indexed": false,
          "internalType": "uint8",
          "name": "version",
          "type": "uint8"
        }
      ],
      "name": "Initialized",
      "type": "event"
    },
    {
      "anonymous": false,
      "inputs": [
        {
          "indexed": true,
          "internalType": "address",
          "name": "previousOwner",
          "type": "address"
        },
        {
          "indexed": true,
          "internalType": "address",
          "name": "newOwner",
          "type": "address"
        }
      ],
      "name": "OwnershipTransferred",
      "type": "event"
    },
    {
      "anonymous": false,
      "inputs": [
        {
          "indexed": false,
          "internalType": "address[]",
          "name": "path",
          "type": "address[]"
        },
        {
          "indexed": false,
          "internalType": "uint256[]",
          "name": "amounts",
          "type": "uint256[]"
        },
        {
          "indexed": false,
          "internalType": "address",
          "name": "receiver",
          "type": "address"
        }
      ],
      "name": "Swap",
      "type": "event"
    },
    {
      "inputs": [
        {
          "internalType": "address[]",
          "name": "_path",
          "type": "address[]"
        }
      ],
      "name": "convertedPath",
      "outputs": [
        {
          "internalType": "bytes",
          "name": "packedData",
          "type": "bytes"
        }
      ],
      "stateMutability": "view",
      "type": "function"
    },
    {
      "inputs": [],
      "name": "exchangeRouter",
      "outputs": [
        {
          "internalType": "address",
          "name": "",
          "type": "address"
        }
      ],
      "stateMutability": "view",
      "type": "function"
    },
    {
      "inputs": [
        {
          "internalType": "address",
          "name": "",
          "type": "address"
        },
        {
          "internalType": "address",
          "name": "",
          "type": "address"
        }
      ],
      "name": "feeTier",
      "outputs": [
        {
          "internalType": "uint24",
          "name": "",
          "type": "uint24"
        }
      ],
      "stateMutability": "view",
      "type": "function"
    },
    {
      "inputs": [
        {
          "internalType": "address[]",
          "name": "_path",
          "type": "address[]"
        },
        {
          "internalType": "uint256",
          "name": "_amountIn",
          "type": "uint256"
        }
      ],
      "name": "getExactInput",
      "outputs": [
        {
          "internalType": "bool",
          "name": "",
          "type": "bool"
        },
        {
          "internalType": "uint256",
          "name": "",
          "type": "uint256"
        }
      ],
      "stateMutability": "nonpayable",
      "type": "function"
    },
    {
      "inputs": [
        {
          "internalType": "address[]",
          "name": "_path",
          "type": "address[]"
        },
        {
          "internalType": "uint256",
          "name": "_amountOut",
          "type": "uint256"
        }
      ],
      "name": "getExactOutput",
      "outputs": [
        {
          "internalType": "bool",
          "name": "",
          "type": "bool"
        },
        {
          "internalType": "uint256",
          "name": "",
          "type": "uint256"
        }
      ],
      "stateMutability": "nonpayable",
      "type": "function"
    },
    {
      "inputs": [
        {
          "internalType": "uint256",
          "name": "",
          "type": "uint256"
        },
        {
          "internalType": "address",
          "name": "",
          "type": "address"
        },
        {
          "internalType": "address",
          "name": "",
          "type": "address"
        }
      ],
      "name": "getInputAmount",
      "outputs": [
        {
          "internalType": "bool",
          "name": "",
          "type": "bool"
        },
        {
          "internalType": "uint256",
          "name": "",
          "type": "uint256"
        }
      ],
      "stateMutability": "pure",
      "type": "function"
    },
    {
      "inputs": [
        {
          "internalType": "uint256",
          "name": "",
          "type": "uint256"
        },
        {
          "internalType": "address",
          "name": "",
          "type": "address"
        },
        {
          "internalType": "address",
          "name": "",
          "type": "address"
        }
      ],
      "name": "getOutputAmount",
      "outputs": [
        {
          "internalType": "bool",
          "name": "",
          "type": "bool"
        },
        {
          "internalType": "uint256",
          "name": "",
          "type": "uint256"
        }
      ],
      "stateMutability": "pure",
      "type": "function"
    },
    {
      "inputs": [
        {
          "internalType": "address[]",
          "name": "_path",
          "type": "address[]"
        },
        {
          "internalType": "uint256",
          "name": "_decimal",
          "type": "uint256"
        }
      ],
      "name": "getSwapRate",
      "outputs": [
        {
          "internalType": "uint256",
          "name": "_swapRate",
          "type": "uint256"
        }
      ],
      "stateMutability": "view",
      "type": "function"
    },
    {
      "inputs": [
        {
          "internalType": "string",
          "name": "_name",
          "type": "string"
        },
        {
          "internalType": "address",
          "name": "_exchangeRouter",
          "type": "address"
        },
        {
          "internalType": "address",
          "name": "_quoterAddress",
          "type": "address"
        }
      ],
      "name": "initialize",
      "outputs": [],
      "stateMutability": "nonpayable",
      "type": "function"
    },
    {
      "inputs": [
        {
          "internalType": "address[]",
          "name": "_path",
          "type": "address[]"
        }
      ],
      "name": "isPathValid",
      "outputs": [
        {
          "internalType": "bool",
          "name": "_result",
          "type": "bool"
        }
      ],
      "stateMutability": "view",
      "type": "function"
    },
    {
      "inputs": [],
      "name": "liquidityPoolFactory",
      "outputs": [
        {
          "internalType": "address",
          "name": "",
          "type": "address"
        }
      ],
      "stateMutability": "view",
      "type": "function"
    },
    {
      "inputs": [],
      "name": "name",
      "outputs": [
        {
          "internalType": "string",
          "name": "",
          "type": "string"
        }
      ],
      "stateMutability": "view",
      "type": "function"
    },
    {
      "inputs": [],
      "name": "owner",
      "outputs": [
        {
          "internalType": "address",
          "name": "",
          "type": "address"
        }
      ],
      "stateMutability": "view",
      "type": "function"
    },
    {
      "inputs": [],
      "name": "quoterAddress",
      "outputs": [
        {
          "internalType": "address",
          "name": "",
          "type": "address"
        }
      ],
      "stateMutability": "view",
      "type": "function"
    },
    {
      "inputs": [],
      "name": "renounceOwnership",
      "outputs": [],
      "stateMutability": "nonpayable",
      "type": "function"
    },
    {
      "inputs": [
        {
          "internalType": "address",
          "name": "_exchangeRouter",
          "type": "address"
        }
      ],
      "name": "setExchangeRouter",
      "outputs": [],
      "stateMutability": "nonpayable",
      "type": "function"
    },
    {
      "inputs": [
        {
          "internalType": "address",
          "name": "_firstToken",
          "type": "address"
        },
        {
          "internalType": "address",
          "name": "_secondToken",
          "type": "address"
        },
        {
          "internalType": "uint24",
          "name": "_feeTier",
          "type": "uint24"
        }
      ],
      "name": "setFeeTier",
      "outputs": [],
      "stateMutability": "nonpayable",
      "type": "function"
    },
    {
      "inputs": [],
      "name": "setLiquidityPoolFactory",
      "outputs": [],
      "stateMutability": "nonpayable",
      "type": "function"
    },
    {
      "inputs": [
        {
          "internalType": "address",
          "name": "_quoterAddress",
          "type": "address"
        }
      ],
      "name": "setQuoter",
      "outputs": [],
      "stateMutability": "nonpayable",
      "type": "function"
    },
    {
      "inputs": [],
      "name": "setWrappedNativeToken",
      "outputs": [],
      "stateMutability": "nonpayable",
      "type": "function"
    },
    {
      "inputs": [
        {
          "internalType": "uint256",
          "name": "_inputAmount",
          "type": "uint256"
        },
        {
          "internalType": "uint256",
          "name": "_outputAmount",
          "type": "uint256"
        },
        {
          "internalType": "address[]",
          "name": "_path",
          "type": "address[]"
        },
        {
          "internalType": "address",
          "name": "_to",
          "type": "address"
        },
        {
          "internalType": "uint256",
          "name": "_deadline",
          "type": "uint256"
        },
        {
          "internalType": "bool",
          "name": "_isFixedToken",
          "type": "bool"
        }
      ],
      "name": "swap",
      "outputs": [
        {
          "internalType": "bool",
          "name": "_result",
          "type": "bool"
        },
        {
          "internalType": "uint256[]",
          "name": "_amounts",
          "type": "uint256[]"
        }
      ],
      "stateMutability": "nonpayable",
      "type": "function"
    },
    {
      "inputs": [
        {
          "internalType": "address",
          "name": "newOwner",
          "type": "address"
        }
      ],
      "name": "transferOwnership",
      "outputs": [],
      "stateMutability": "nonpayable",
      "type": "function"
    },
    {
      "inputs": [],
      "name": "wrappedNativeToken",
      "outputs": [
        {
          "internalType": "address",
          "name": "",
          "type": "address"
        }
      ],
      "stateMutability": "view",
      "type": "function"
    }
  ],
  "transactionHash": "0x39708ca5dc84d59483e7e7fb900fa39006cd0db62cb9ce66e850173a8e530baa",
  "args": [],
  "numDeployments": 1,
  "solcInputHash": "572d3a9a64d3d3067254d9e4c768a8a7",
  "bytecode": "0x608060405234801561001057600080fd5b506126bd806100206000396000f3fe608060405234801561001057600080fd5b506004361061011d5760003560e01c806301e65db31461012257806304fe3fcb1461016b57806306fdde031461018057806311a2f0cb146101955780631580b5e5146101c057806317fcb39b146101c85780631cb85818146101db5780633566967d146101ee578063463fd1af1461021857806360efb0a51461022b5780636145f8761461024c578063715018a61461025f578063838b7ccb14610267578063898830741461027a5780638b1937cd146102945780638da5cb5b146102a75780639b4bca24146102af578063b0bbcd88146102d2578063b23e4fc6146102f3578063df71d7f31461027a578063e75d75d5146102fb578063f2fde38b1461030e578063f912c64b14610321575b600080fd5b610152610130366004611de6565b609c60209081526000928352604080842090915290825290205462ffffff1681565b60405162ffffff90911681526020015b60405180910390f35b61017e610179366004611e1e565b610334565b005b610188610397565b6040516101629190612342565b609b546101a8906001600160a01b031681565b6040516001600160a01b039091168152602001610162565b61017e610425565b6098546101a8906001600160a01b031681565b6099546101a8906001600160a01b031681565b6102016101fc366004611ea9565b6104d5565b604080519215158352602083019190915201610162565b61017e610226366004611f07565b610591565b61023e610239366004611ea9565b610813565b604051908152602001610162565b61018861025a366004611e6f565b610d30565b61017e610e6d565b61017e610275366004611dae565b610e77565b610201610288366004612051565b60016000935093915050565b6102016102a2366004611ea9565b610f56565b6101a8610f8f565b6102c26102bd366004611e6f565b610f9e565b6040519015158152602001610162565b6102e56102e0366004612151565b611195565b604051610162929190612300565b61017e611502565b609a546101a8906001600160a01b031681565b61017e61031c366004611dae565b6115b2565b61017e61032f366004611dae565b61162b565b61033c611655565b6001600160a01b039283166000818152609c60208181526040808420969097168352948552858220805462ffffff90951662ffffff199586168117909155908552858220928252919093529290912080549091169091179055565b609780546103a4906125e8565b80601f01602080910402602001604051908101604052809291908181526020018280546103d0906125e8565b801561041d5780601f106103f25761010080835404028352916020019161041d565b820191906000526020600020905b81548152906001019060200180831161040057829003601f168201915b505050505081565b61042d611655565b609960009054906101000a90046001600160a01b03166001600160a01b0316634aa4a4fc6040518163ffffffff1660e01b815260040160206040518083038186803b15801561047b57600080fd5b505afa15801561048f573d6000803e3d6000fd5b505050506040513d601f19601f820116820180604052508101906104b39190611dca565b609880546001600160a01b0319166001600160a01b0392909216919091179055565b6000806104e184610f9e565b6104f05750600090508061058a565b609b546000906001600160a01b03166318ce06108561050e88610d30565b6040518363ffffffff1660e01b815260040161052b9291906123ea565b600060405180830381600087803b15801561054557600080fd5b505af1158015610559573d6000803e3d6000fd5b505050506040513d6000823e601f3d908101601f191682016040526105819190810190612087565b50600193509150505b9250929050565b600054610100900460ff16158080156105b15750600054600160ff909116105b806105cb5750303b1580156105cb575060005460ff166001145b6106335760405162461bcd60e51b815260206004820152602e60248201527f496e697469616c697a61626c653a20636f6e747261637420697320616c72656160448201526d191e481a5b9a5d1a585b1a5e995960921b60648201526084015b60405180910390fd5b6000805460ff191660011790558015610656576000805461ff0019166101001790555b61065e6116b4565b6106666116e3565b8351610679906097906020870190611c52565b50609980546001600160a01b0319166001600160a01b0385169081179091556040805163c45a015560e01b8152905163c45a015591600480820192602092909190829003018186803b1580156106ce57600080fd5b505afa1580156106e2573d6000803e3d6000fd5b505050506040513d601f19601f820116820180604052508101906107069190611dca565b609a80546001600160a01b03199081166001600160a01b0393841617909155609b8054909116848316179055609954604080516312a9293f60e21b815290519190921691634aa4a4fc916004808301926020929190829003018186803b15801561076f57600080fd5b505afa158015610783573d6000803e3d6000fd5b505050506040513d601f19601f820116820180604052508101906107a79190611dca565b609880546001600160a01b0319166001600160a01b0392909216919091179055801561080d576000805461ff0019169055604051600181527f7f26b83ff96e1f2b6a682f133852f6798a09c465da95921460cefb38474024989060200160405180910390a15b50505050565b6000808061082284600a6124dc565b925060005b6001865161083591906125a5565b811015610b8957609a5486516001600160a01b039091169063becbcc6a9088908490811061087357634e487b7160e01b600052603260045260246000fd5b6020026020010151888460016108899190612461565b815181106108a757634e487b7160e01b600052603260045260246000fd5b6020026020010151609c60008b87815181106108d357634e487b7160e01b600052603260045260246000fd5b60200260200101516001600160a01b03166001600160a01b0316815260200190815260200160002060008b87600161090b9190612461565b8151811061092957634e487b7160e01b600052603260045260246000fd5b60200260200101516001600160a01b03166001600160a01b0316815260200190815260200160002060009054906101000a900462ffffff166040518463ffffffff1660e01b815260040161097f939291906122d8565b60206040518083038186803b15801561099757600080fd5b505afa1580156109ab573d6000803e3d6000fd5b505050506040513d601f19601f820116820180604052508101906109cf9190611dca565b9250826001600160a01b031663c19d93fb6040518163ffffffff1660e01b81526004016101006040518083038186803b158015610a0b57600080fd5b505afa158015610a1f573d6000803e3d6000fd5b505050506040513d601f19601f82011682018060405250810190610a439190611fb7565b50508b516001600160a01b0390961697508b9587955085109350610a7b9250505057634e487b7160e01b600052603260045260246000fd5b60200260200101516001600160a01b0316836001600160a01b03166316dc165b6040518163ffffffff1660e01b815260040160206040518083038186803b158015610ac557600080fd5b505afa158015610ad9573d6000803e3d6000fd5b505050506040513d601f19601f82011682018060405250810190610afd9190611dca565b6001600160a01b03161415610b4257600160601b8083610b1d8188612586565b610b279190612586565b610b319190612479565b610b3b9190612479565b9350610b77565b8180610b5286600160601b612586565b610b6090600160601b612586565b610b6a9190612479565b610b749190612479565b93505b80610b818161261d565b915050610827565b50600085600081518110610bad57634e487b7160e01b600052603260045260246000fd5b60200260200101516001600160a01b031663313ce5676040518163ffffffff1660e01b815260040160206040518083038186803b158015610bed57600080fd5b505afa158015610c01573d6000803e3d6000fd5b505050506040513d601f19601f82011682018060405250810190610c2591906121ce565b60ff16905060008660018851610c3b91906125a5565b81518110610c5957634e487b7160e01b600052603260045260246000fd5b60200260200101516001600160a01b031663313ce5676040518163ffffffff1660e01b815260040160206040518083038186803b158015610c9957600080fd5b505afa158015610cad573d6000803e3d6000fd5b505050506040513d601f19601f82011682018060405250810190610cd191906121ce565b60ff16905080821115610d0457610ce881836125a5565b610cf390600a6124dc565b610cfd9086612586565b9450610d26565b610d0e82826125a5565b610d1990600a6124dc565b610d239086612479565b94505b5050505092915050565b606081600081518110610d5357634e487b7160e01b600052603260045260246000fd5b6020026020010151604051602001610d7e919060609190911b6001600160601b031916815260140190565b60408051601f19818403018152919052905060015b8251811015610e6757600083610daa6001846125a5565b81518110610dc857634e487b7160e01b600052603260045260246000fd5b602002602001015190506000848381518110610df457634e487b7160e01b600052603260045260246000fd5b6020908102919091018101516001600160a01b038085166000908152609c84526040808220928416825291845281902054905191935062ffffff1691610e409187918491869101612291565b60405160208183030381529060405294505050508080610e5f9061261d565b915050610d93565b50919050565b610e75611655565b565b806001600160a01b038116610e9e5760405162461bcd60e51b815260040161062a90612355565b610ea6611655565b609980546001600160a01b0319166001600160a01b0384169081179091556040805163c45a015560e01b8152905163c45a015591600480820192602092909190829003018186803b158015610efa57600080fd5b505afa158015610f0e573d6000803e3d6000fd5b505050506040513d601f19601f82011682018060405250810190610f329190611dca565b609a80546001600160a01b0319166001600160a01b03929092169190911790555050565b600080610f6284610f9e565b610f715750600090508061058a565b609b546000906001600160a01b0316630980929e8561050e88610d30565b6033546001600160a01b031690565b600080600283511015610fb45750600092915050565b60005b60018451610fc591906125a5565b81101561118b57609a5484516001600160a01b039091169063becbcc6a9086908490811061100357634e487b7160e01b600052603260045260246000fd5b6020026020010151868460016110199190612461565b8151811061103757634e487b7160e01b600052603260045260246000fd5b6020026020010151609c600089878151811061106357634e487b7160e01b600052603260045260246000fd5b60200260200101516001600160a01b03166001600160a01b0316815260200190815260200160002060008987600161109b9190612461565b815181106110b957634e487b7160e01b600052603260045260246000fd5b60200260200101516001600160a01b03166001600160a01b0316815260200190815260200160002060009054906101000a900462ffffff166040518463ffffffff1660e01b815260040161110f939291906122d8565b60206040518083038186803b15801561112757600080fd5b505afa15801561113b573d6000803e3d6000fd5b505050506040513d601f19601f8201168201806040525081019061115f9190611dca565b91506001600160a01b038216611179575060009392505050565b806111838161261d565b915050610fb7565b5060019392505050565b600060606111a1611712565b846001600160a01b0381166111c85760405162461bcd60e51b815260040161062a90612355565b60006111d78a8a8a898961176c565b9094509050600084156114ea57604080516002808252606082018352909160208301908036833701905050935061124c3330848c60008151811061122b57634e487b7160e01b600052603260045260246000fd5b60200260200101516001600160a01b03166117da909392919063ffffffff16565b8860008151811061126d57634e487b7160e01b600052603260045260246000fd5b602090810291909101015160995460405163095ea7b360e01b81526001600160a01b0391821660048201526024810185905291169063095ea7b390604401602060405180830381600087803b1580156112c557600080fd5b505af11580156112d9573d6000803e3d6000fd5b505050506040513d601f19601f820116820180604052508101906112fd9190611eeb565b50600186151514156113f7576099546001600160a01b03166375ceafe6611327848d8d8d8d611834565b6040518263ffffffff1660e01b815260040161134391906123d7565b6040805180830381600087803b15801561135c57600080fd5b505af1158015611370573d6000803e3d6000fd5b505050506040513d601f19601f82011682018060405250810190611394919061212e565b90508091505081846000815181106113bc57634e487b7160e01b600052603260045260246000fd5b60200260200101818152505080846001815181106113ea57634e487b7160e01b600052603260045260246000fd5b6020026020010181815250505b856114ea576099546001600160a01b031663115ff67e61141a848d8d8d8d6118c2565b6040518263ffffffff1660e01b815260040161143691906123d7565b6040805180830381600087803b15801561144f57600080fd5b505af1158015611463573d6000803e3d6000fd5b505050506040513d601f19601f82011682018060405250810190611487919061212e565b90508091505080846000815181106114af57634e487b7160e01b600052603260045260246000fd5b60200260200101818152505089846001815181106114dd57634e487b7160e01b600052603260045260246000fd5b6020026020010181815250505b5050506114f76001606555565b965096945050505050565b61150a611655565b609960009054906101000a90046001600160a01b03166001600160a01b031663c45a01556040518163ffffffff1660e01b815260040160206040518083038186803b15801561155857600080fd5b505afa15801561156c573d6000803e3d6000fd5b505050506040513d601f19601f820116820180604052508101906115909190611dca565b609a80546001600160a01b0319166001600160a01b0392909216919091179055565b6115ba611655565b6001600160a01b03811661161f5760405162461bcd60e51b815260206004820152602660248201527f4f776e61626c653a206e6577206f776e657220697320746865207a65726f206160448201526564647265737360d01b606482015260840161062a565b61162881611958565b50565b611633611655565b609b80546001600160a01b0319166001600160a01b0392909216919091179055565b3361165e610f8f565b6001600160a01b031614610e755760405162461bcd60e51b815260206004820181905260248201527f4f776e61626c653a2063616c6c6572206973206e6f7420746865206f776e6572604482015260640161062a565b600054610100900460ff166116db5760405162461bcd60e51b815260040161062a9061238c565b610e756119aa565b600054610100900460ff1661170a5760405162461bcd60e51b815260040161062a9061238c565b610e756119da565b600260655414156117655760405162461bcd60e51b815260206004820152601f60248201527f5265656e7472616e637947756172643a207265656e7472616e742063616c6c00604482015260640161062a565b6002606555565b60008042841015611782575060009050806117d0565b60008061178f878a610f56565b91509150808811156117a9576000809350935050506117d0565b600185151514156117bf575091508690506117d0565b6117c987896104d5565b9350935050505b9550959350505050565b604080516001600160a01b0385811660248301528416604482015260648082018490528251808303909101815260849091019091526020810180516001600160e01b03166323b872dd60e01b17905261080d908590611a01565b6118786040518060a001604052806060815260200160006001600160a01b0316815260200160006001600160801b0316815260200160008152602001600081525090565b6040518060a0016040528061188c86610d30565b81526001600160a01b0390941660208501526001600160801b039096166040840152506060820193909352608001919091525090565b6119066040518060a001604052806060815260200160006001600160a01b0316815260200160006001600160801b0316815260200160008152602001600081525090565b6040518060a0016040528061191a86610d30565b81526001600160a01b0390941660208501526001600160801b03909516604084015250606082019490945260800192909252919050565b6001606555565b603380546001600160a01b038381166001600160a01b0319831681179093556040519116919082907f8be0079c531659141344cd1fd0a4f28419497f9722a3daafe3b4186f6b6457e090600090a35050565b600054610100900460ff166119d15760405162461bcd60e51b815260040161062a9061238c565b610e7533611958565b600054610100900460ff166119515760405162461bcd60e51b815260040161062a9061238c565b6000611a56826040518060400160405280602081526020017f5361666545524332303a206c6f772d6c6576656c2063616c6c206661696c6564815250856001600160a01b0316611ad89092919063ffffffff16565b805190915015611ad35780806020019051810190611a749190611eeb565b611ad35760405162461bcd60e51b815260206004820152602a60248201527f5361666545524332303a204552433230206f7065726174696f6e20646964206e6044820152691bdd081cdd58d8d9595960b21b606482015260840161062a565b505050565b6060611ae78484600085611af1565b90505b9392505050565b606082471015611b525760405162461bcd60e51b815260206004820152602660248201527f416464726573733a20696e73756666696369656e742062616c616e636520666f6044820152651c8818d85b1b60d21b606482015260840161062a565b843b611ba05760405162461bcd60e51b815260206004820152601d60248201527f416464726573733a2063616c6c20746f206e6f6e2d636f6e7472616374000000604482015260640161062a565b600080866001600160a01b03168587604051611bbc9190612275565b60006040518083038185875af1925050503d8060008114611bf9576040519150601f19603f3d011682016040523d82523d6000602084013e611bfe565b606091505b5091509150611c0e828286611c19565b979650505050505050565b60608315611c28575081611aea565b825115611c385782518084602001fd5b8160405162461bcd60e51b815260040161062a9190612342565b828054611c5e906125e8565b90600052602060002090601f016020900481019282611c805760008555611cc6565b82601f10611c9957805160ff1916838001178555611cc6565b82800160010185558215611cc6579182015b82811115611cc6578251825591602001919060010190611cab565b50611cd2929150611cd6565b5090565b5b80821115611cd25760008155600101611cd7565b8035611cf681612664565b919050565b600082601f830112611d0b578081fd5b81356020611d20611d1b8361243e565b61240e565b80838252828201915082860187848660051b8901011115611d3f578586fd5b855b85811015611d66578135611d5481612664565b84529284019290840190600101611d41565b5090979650505050505050565b8051600281900b8114611cf657600080fd5b80516001600160801b0381168114611cf657600080fd5b805161ffff81168114611cf657600080fd5b600060208284031215611dbf578081fd5b8135611aea81612664565b600060208284031215611ddb578081fd5b8151611aea81612664565b60008060408385031215611df8578081fd5b8235611e0381612664565b91506020830135611e1381612664565b809150509250929050565b600080600060608486031215611e32578081fd5b8335611e3d81612664565b92506020840135611e4d81612664565b9150604084013562ffffff81168114611e64578182fd5b809150509250925092565b600060208284031215611e80578081fd5b81356001600160401b03811115611e95578182fd5b611ea184828501611cfb565b949350505050565b60008060408385031215611ebb578182fd5b82356001600160401b03811115611ed0578283fd5b611edc85828601611cfb565b95602094909401359450505050565b600060208284031215611efc578081fd5b8151611aea81612679565b600080600060608486031215611f1b578283fd5b83356001600160401b0380821115611f31578485fd5b818601915086601f830112611f44578485fd5b8135602082821115611f5857611f5861264e565b611f6a601f8301601f1916820161240e565b92508183528881838601011115611f7f578687fd5b818185018285013786818385010152829650611f9c818901611ceb565b955050505050611fae60408501611ceb565b90509250925092565b600080600080600080600080610100898b031215611fd3578586fd5b8851611fde81612664565b9750611fec60208a01611d73565b9650611ffa60408a01611d9c565b955061200860608a01611d9c565b945061201660808a01611d9c565b935060a089015161202681612679565b925061203460c08a01611d85565b915061204260e08a01611d85565b90509295985092959890939650565b600080600060608486031215612065578081fd5b83359250602084013561207781612664565b91506040840135611e6481612664565b60008060408385031215612099578182fd5b8251602080850151919350906001600160401b038111156120b8578283fd5b8401601f810186136120c8578283fd5b80516120d6611d1b8261243e565b80828252848201915084840189868560051b87010111156120f5578687fd5b8694505b8385101561211e5761210a81611d73565b8352600194909401939185019185016120f9565b5080955050505050509250929050565b60008060408385031215612140578182fd5b505080516020909101519092909150565b60008060008060008060c08789031215612169578384fd5b863595506020870135945060408701356001600160401b0381111561218c578485fd5b61219889828a01611cfb565b94505060608701356121a981612664565b92506080870135915060a08701356121c081612679565b809150509295509295509295565b6000602082840312156121df578081fd5b815160ff81168114611aea578182fd5b600081518084526122078160208601602086016125bc565b601f01601f19169290920160200192915050565b6000815160a0845261223060a08501826121ef565b6020848101516001600160a01b0316908601526040808501516001600160801b0316908601526060808501519086015260809384015193909401929092525090919050565b600082516122878184602087016125bc565b9190910192915050565b600084516122a38184602089016125bc565b60e89490941b6001600160e81b0319169190930190815260609190911b6001600160601b031916600382015260170192915050565b6001600160a01b03938416815291909216602082015262ffffff909116604082015260600190565b600060408201841515835260206040818501528185518084526060860191508287019350845b81811015611d6657845183529383019391830191600101612326565b602081526000611aea60208301846121ef565b6020808252601e908201527f695a6953776170436f6e6e6563746f723a207a65726f20616464726573730000604082015260600190565b6020808252602b908201527f496e697469616c697a61626c653a20636f6e7472616374206973206e6f74206960408201526a6e697469616c697a696e6760a81b606082015260800190565b602081526000611aea602083018461221b565b6001600160801b0383168152604060208201819052600090611ae7908301846121ef565b604051601f8201601f191681016001600160401b03811182821017156124365761243661264e565b604052919050565b60006001600160401b038211156124575761245761264e565b5060051b60200190565b6000821982111561247457612474612638565b500190565b60008261249457634e487b7160e01b81526012600452602481fd5b500490565b600181815b808511156124d45781600019048211156124ba576124ba612638565b808516156124c757918102915b93841c939080029061249e565b509250929050565b6000611aea83836000826124f257506001612580565b816124ff57506000612580565b8160018114612515576002811461251f5761253b565b6001915050612580565b60ff84111561253057612530612638565b50506001821b612580565b5060208310610133831016604e8410600b841016171561255e575081810a612580565b6125688383612499565b806000190482111561257c5761257c612638565b0290505b92915050565b60008160001904831182151516156125a0576125a0612638565b500290565b6000828210156125b7576125b7612638565b500390565b60005b838110156125d75781810151838201526020016125bf565b8381111561080d5750506000910152565b600181811c908216806125fc57607f821691505b60208210811415610e6757634e487b7160e01b600052602260045260246000fd5b600060001982141561263157612631612638565b5060010190565b634e487b7160e01b600052601160045260246000fd5b634e487b7160e01b600052604160045260246000fd5b6001600160a01b038116811461162857600080fd5b801515811461162857600080fdfea2646970667358221220f962224c83595637c18ecad6d3687504afd265b8d65a97911817b1ba14f9dc1764736f6c63430008040033",
  "devdoc": {
    "kind": "dev",
    "methods": {
      "getExactInput(address[],uint256)": {
        "details": "Return (false, 0) if DEX cannot swap the input amount"
      },
      "getExactOutput(address[],uint256)": {
        "details": "Return (false, 0) if DEX cannot give the output amount"
      },
      "getSwapRate(address[],uint256)": {
        "details": "Decimal determines the precision of the swap rate"
      },
      "initialize(string,address,address)": {
        "params": {
          "_exchangeRouter": "Address of the DEX router contract",
          "_name": "Name of the underlying DEX"
        }
      },
      "isPathValid(address[])": {
        "params": {
          "_path": "List of tokens that are used for exchanging"
        }
      },
      "owner()": {
        "details": "Returns the address of the current owner."
      },
      "renounceOwnership()": {
        "details": "Leaves the contract without owner. It will not be possible to call `onlyOwner` functions. Can only be called by the current owner. NOTE: Renouncing ownership will leave the contract without an owner, thereby disabling any functionality that is only available to the owner."
      },
      "setExchangeRouter(address)": {
        "details": "Set address of liquidity pool factory from the exchange router",
        "params": {
          "_exchangeRouter": "Address of the new exchange router contract"
        }
      },
      "setFeeTier(address,address,uint24)": {
        "details": "We set the fee tier that is used for exchanging tokens"
      },
      "setLiquidityPoolFactory()": {
        "details": "Set address from exchange router"
      },
      "setWrappedNativeToken()": {
        "details": "Get address from exchange router"
      },
      "swap(uint256,uint256,address[],address,uint256,bool)": {
        "details": "Check exchange conditions before exchanging      We assume that the input token is not WETH (it is teleBTC)",
        "params": {
          "_deadline": "Deadline of exchanging tokens",
          "_inputAmount": "Amount of input token",
          "_isFixedToken": "True if the input token amount is fixed",
          "_outputAmount": "Amount of output token",
          "_path": "List of tokens that are used for exchanging",
          "_to": "Receiver address"
        },
        "returns": {
          "_amounts": "Amounts of tokens that are involved in exchanging",
          "_result": "True if the exchange is successful"
        }
      },
      "transferOwnership(address)": {
        "details": "Transfers ownership of the contract to a new account (`newOwner`). Can only be called by the current owner."
      }
    },
    "version": 1
  },
  "userdoc": {
    "kind": "user",
    "methods": {
      "getExactInput(address[],uint256)": {
        "notice": "Return the output amount for the given input amount"
      },
      "getExactOutput(address[],uint256)": {
        "notice": "Return the needed input amount to get the output amount"
      },
      "getInputAmount(uint256,address,address)": {
        "notice": "Deprecated for v3"
      },
      "getOutputAmount(uint256,address,address)": {
        "notice": "Deprecated for v3"
      },
      "getSwapRate(address[],uint256)": {
        "notice": "Return the swap rate between two tokens"
      },
      "initialize(string,address,address)": {
        "notice": "This contract is used for interacting with UniswapV3 contract"
      },
      "isPathValid(address[])": {
        "notice": "Return true if the exchange path is valid"
      },
      "setExchangeRouter(address)": {
        "notice": "Setter for exchange router"
      },
      "setFeeTier(address,address,uint24)": {
        "notice": "Setter for fee tier"
      },
      "setLiquidityPoolFactory()": {
        "notice": "Setter for liquidity pool factory"
      },
      "setQuoter(address)": {
        "notice": "Setter for quoter"
      },
      "setWrappedNativeToken()": {
        "notice": "Setter for wrapped native token"
      },
      "swap(uint256,uint256,address[],address,uint256,bool)": {
        "notice": "Exchange input token for output token through exchange router"
      }
    },
    "version": 1
  },
  "storageLayout": {
    "storage": [
      {
        "astId": 11827,
        "contract": "contracts/dex_connectors/iZiSwapConnector.sol:iZiSwapConnector",
        "label": "_initialized",
        "offset": 0,
        "slot": "0",
        "type": "t_uint8"
      },
      {
        "astId": 11830,
        "contract": "contracts/dex_connectors/iZiSwapConnector.sol:iZiSwapConnector",
        "label": "_initializing",
        "offset": 1,
        "slot": "0",
        "type": "t_bool"
      },
      {
        "astId": 13298,
        "contract": "contracts/dex_connectors/iZiSwapConnector.sol:iZiSwapConnector",
        "label": "__gap",
        "offset": 0,
        "slot": "1",
        "type": "t_array(t_uint256)50_storage"
      },
      {
        "astId": 11699,
        "contract": "contracts/dex_connectors/iZiSwapConnector.sol:iZiSwapConnector",
        "label": "_owner",
        "offset": 0,
        "slot": "51",
        "type": "t_address"
      },
      {
        "astId": 11819,
        "contract": "contracts/dex_connectors/iZiSwapConnector.sol:iZiSwapConnector",
        "label": "__gap",
        "offset": 0,
        "slot": "52",
        "type": "t_array(t_uint256)49_storage"
      },
      {
        "astId": 12132,
        "contract": "contracts/dex_connectors/iZiSwapConnector.sol:iZiSwapConnector",
        "label": "_status",
        "offset": 0,
        "slot": "101",
        "type": "t_uint256"
      },
      {
        "astId": 12201,
        "contract": "contracts/dex_connectors/iZiSwapConnector.sol:iZiSwapConnector",
        "label": "__gap",
        "offset": 0,
        "slot": "102",
        "type": "t_array(t_uint256)49_storage"
      },
      {
        "astId": 25985,
        "contract": "contracts/dex_connectors/iZiSwapConnector.sol:iZiSwapConnector",
        "label": "name",
        "offset": 0,
        "slot": "151",
        "type": "t_string_storage"
      },
      {
        "astId": 25988,
        "contract": "contracts/dex_connectors/iZiSwapConnector.sol:iZiSwapConnector",
        "label": "wrappedNativeToken",
        "offset": 0,
        "slot": "152",
        "type": "t_address"
      },
      {
        "astId": 25991,
        "contract": "contracts/dex_connectors/iZiSwapConnector.sol:iZiSwapConnector",
        "label": "exchangeRouter",
        "offset": 0,
        "slot": "153",
        "type": "t_address"
      },
      {
        "astId": 25994,
        "contract": "contracts/dex_connectors/iZiSwapConnector.sol:iZiSwapConnector",
        "label": "liquidityPoolFactory",
        "offset": 0,
        "slot": "154",
        "type": "t_address"
      },
      {
        "astId": 25996,
        "contract": "contracts/dex_connectors/iZiSwapConnector.sol:iZiSwapConnector",
        "label": "quoterAddress",
        "offset": 0,
        "slot": "155",
        "type": "t_address"
      },
      {
        "astId": 26002,
        "contract": "contracts/dex_connectors/iZiSwapConnector.sol:iZiSwapConnector",
        "label": "feeTier",
        "offset": 0,
        "slot": "156",
        "type": "t_mapping(t_address,t_mapping(t_address,t_uint24))"
      }
    ],
    "types": {
      "t_address": {
        "encoding": "inplace",
        "label": "address",
        "numberOfBytes": "20"
      },
      "t_array(t_uint256)49_storage": {
        "base": "t_uint256",
        "encoding": "inplace",
        "label": "uint256[49]",
        "numberOfBytes": "1568"
      },
      "t_array(t_uint256)50_storage": {
        "base": "t_uint256",
        "encoding": "inplace",
        "label": "uint256[50]",
        "numberOfBytes": "1600"
      },
      "t_bool": {
        "encoding": "inplace",
        "label": "bool",
        "numberOfBytes": "1"
      },
      "t_mapping(t_address,t_mapping(t_address,t_uint24))": {
        "encoding": "mapping",
        "key": "t_address",
        "label": "mapping(address => mapping(address => uint24))",
        "numberOfBytes": "32",
        "value": "t_mapping(t_address,t_uint24)"
      },
      "t_mapping(t_address,t_uint24)": {
        "encoding": "mapping",
        "key": "t_address",
        "label": "mapping(address => uint24)",
        "numberOfBytes": "32",
        "value": "t_uint24"
      },
      "t_string_storage": {
        "encoding": "bytes",
        "label": "string",
        "numberOfBytes": "32"
      },
      "t_uint24": {
        "encoding": "inplace",
        "label": "uint24",
        "numberOfBytes": "3"
      },
      "t_uint256": {
        "encoding": "inplace",
        "label": "uint256",
        "numberOfBytes": "32"
      },
      "t_uint8": {
        "encoding": "inplace",
        "label": "uint8",
        "numberOfBytes": "1"
      }
    }
  }
}