{
  "address": "0xDd833309e9E9EAd3a7c4520D53e02e685C3751eB",
  "abi": [
    {
      "inputs": [
        {
          "internalType": "string",
          "name": "_name",
          "type": "string"
        },
        {
          "internalType": "address",
          "name": "_exchangeRouter",
          "type": "address"
        },
        {
          "internalType": "address",
          "name": "_quoterAddress",
          "type": "address"
        }
      ],
      "stateMutability": "nonpayable",
      "type": "constructor"
    },
    {
      "anonymous": false,
      "inputs": [
        {
          "indexed": true,
          "internalType": "address",
          "name": "previousOwner",
          "type": "address"
        },
        {
          "indexed": true,
          "internalType": "address",
          "name": "newOwner",
          "type": "address"
        }
      ],
      "name": "OwnershipTransferred",
      "type": "event"
    },
    {
      "anonymous": false,
      "inputs": [
        {
          "indexed": false,
          "internalType": "address[]",
          "name": "path",
          "type": "address[]"
        },
        {
          "indexed": false,
          "internalType": "uint256[]",
          "name": "amounts",
          "type": "uint256[]"
        },
        {
          "indexed": false,
          "internalType": "address",
          "name": "receiver",
          "type": "address"
        }
      ],
      "name": "Swap",
      "type": "event"
    },
    {
      "inputs": [
        {
          "internalType": "address[]",
          "name": "_path",
          "type": "address[]"
        }
      ],
      "name": "convertedPath",
      "outputs": [
        {
          "internalType": "bytes",
          "name": "packedData",
          "type": "bytes"
        }
      ],
      "stateMutability": "view",
      "type": "function"
    },
    {
      "inputs": [],
      "name": "exchangeRouter",
      "outputs": [
        {
          "internalType": "address",
          "name": "",
          "type": "address"
        }
      ],
      "stateMutability": "view",
      "type": "function"
    },
    {
      "inputs": [
        {
          "internalType": "address",
          "name": "",
          "type": "address"
        },
        {
          "internalType": "address",
          "name": "",
          "type": "address"
        }
      ],
      "name": "feeTier",
      "outputs": [
        {
          "internalType": "uint24",
          "name": "",
          "type": "uint24"
        }
      ],
      "stateMutability": "view",
      "type": "function"
    },
    {
      "inputs": [
        {
          "internalType": "address[]",
          "name": "_path",
          "type": "address[]"
        },
        {
          "internalType": "uint256",
          "name": "_amountIn",
          "type": "uint256"
        }
      ],
      "name": "getExactInput",
      "outputs": [
        {
          "internalType": "bool",
          "name": "",
          "type": "bool"
        },
        {
          "internalType": "uint256",
          "name": "",
          "type": "uint256"
        }
      ],
      "stateMutability": "nonpayable",
      "type": "function"
    },
    {
      "inputs": [
        {
          "internalType": "address[]",
          "name": "_path",
          "type": "address[]"
        },
        {
          "internalType": "uint256",
          "name": "_amountOut",
          "type": "uint256"
        }
      ],
      "name": "getExactOutput",
      "outputs": [
        {
          "internalType": "bool",
          "name": "",
          "type": "bool"
        },
        {
          "internalType": "uint256",
          "name": "",
          "type": "uint256"
        }
      ],
      "stateMutability": "nonpayable",
      "type": "function"
    },
    {
      "inputs": [
        {
          "internalType": "uint256",
          "name": "",
          "type": "uint256"
        },
        {
          "internalType": "address",
          "name": "",
          "type": "address"
        },
        {
          "internalType": "address",
          "name": "",
          "type": "address"
        }
      ],
      "name": "getInputAmount",
      "outputs": [
        {
          "internalType": "bool",
          "name": "",
          "type": "bool"
        },
        {
          "internalType": "uint256",
          "name": "",
          "type": "uint256"
        }
      ],
      "stateMutability": "pure",
      "type": "function"
    },
    {
      "inputs": [
        {
          "internalType": "uint256",
          "name": "",
          "type": "uint256"
        },
        {
          "internalType": "address",
          "name": "",
          "type": "address"
        },
        {
          "internalType": "address",
          "name": "",
          "type": "address"
        }
      ],
      "name": "getOutputAmount",
      "outputs": [
        {
          "internalType": "bool",
          "name": "",
          "type": "bool"
        },
        {
          "internalType": "uint256",
          "name": "",
          "type": "uint256"
        }
      ],
      "stateMutability": "pure",
      "type": "function"
    },
    {
      "inputs": [
        {
          "internalType": "address[]",
          "name": "_path",
          "type": "address[]"
        }
      ],
      "name": "isPathValid",
      "outputs": [
        {
          "internalType": "bool",
          "name": "_result",
          "type": "bool"
        }
      ],
      "stateMutability": "view",
      "type": "function"
    },
    {
      "inputs": [],
      "name": "liquidityPoolFactory",
      "outputs": [
        {
          "internalType": "address",
          "name": "",
          "type": "address"
        }
      ],
      "stateMutability": "view",
      "type": "function"
    },
    {
      "inputs": [],
      "name": "name",
      "outputs": [
        {
          "internalType": "string",
          "name": "",
          "type": "string"
        }
      ],
      "stateMutability": "view",
      "type": "function"
    },
    {
      "inputs": [],
      "name": "owner",
      "outputs": [
        {
          "internalType": "address",
          "name": "",
          "type": "address"
        }
      ],
      "stateMutability": "view",
      "type": "function"
    },
    {
      "inputs": [],
      "name": "quoterAddress",
      "outputs": [
        {
          "internalType": "address",
          "name": "",
          "type": "address"
        }
      ],
      "stateMutability": "view",
      "type": "function"
    },
    {
      "inputs": [],
      "name": "renounceOwnership",
      "outputs": [],
      "stateMutability": "nonpayable",
      "type": "function"
    },
    {
      "inputs": [
        {
          "internalType": "address",
          "name": "_exchangeRouter",
          "type": "address"
        }
      ],
      "name": "setExchangeRouter",
      "outputs": [],
      "stateMutability": "nonpayable",
      "type": "function"
    },
    {
      "inputs": [
        {
          "internalType": "address",
          "name": "_firstToken",
          "type": "address"
        },
        {
          "internalType": "address",
          "name": "_secondToken",
          "type": "address"
        },
        {
          "internalType": "uint24",
          "name": "_feeTier",
          "type": "uint24"
        }
      ],
      "name": "setFeeTier",
      "outputs": [],
      "stateMutability": "nonpayable",
      "type": "function"
    },
    {
      "inputs": [],
      "name": "setLiquidityPoolFactory",
      "outputs": [],
      "stateMutability": "nonpayable",
      "type": "function"
    },
    {
      "inputs": [
        {
          "internalType": "address",
          "name": "_quoterAddress",
          "type": "address"
        }
      ],
      "name": "setQuoter",
      "outputs": [],
      "stateMutability": "nonpayable",
      "type": "function"
    },
    {
      "inputs": [],
      "name": "setWrappedNativeToken",
      "outputs": [],
      "stateMutability": "nonpayable",
      "type": "function"
    },
    {
      "inputs": [
        {
          "internalType": "uint256",
          "name": "_inputAmount",
          "type": "uint256"
        },
        {
          "internalType": "uint256",
          "name": "_outputAmount",
          "type": "uint256"
        },
        {
          "internalType": "address[]",
          "name": "_path",
          "type": "address[]"
        },
        {
          "internalType": "address",
          "name": "_to",
          "type": "address"
        },
        {
          "internalType": "uint256",
          "name": "_deadline",
          "type": "uint256"
        },
        {
          "internalType": "bool",
          "name": "_isFixedToken",
          "type": "bool"
        }
      ],
      "name": "swap",
      "outputs": [
        {
          "internalType": "bool",
          "name": "_result",
          "type": "bool"
        },
        {
          "internalType": "uint256[]",
          "name": "_amounts",
          "type": "uint256[]"
        }
      ],
      "stateMutability": "nonpayable",
      "type": "function"
    },
    {
      "inputs": [
        {
          "internalType": "address",
          "name": "newOwner",
          "type": "address"
        }
      ],
      "name": "transferOwnership",
      "outputs": [],
      "stateMutability": "nonpayable",
      "type": "function"
    },
    {
      "inputs": [],
      "name": "wrappedNativeToken",
      "outputs": [
        {
          "internalType": "address",
          "name": "",
          "type": "address"
        }
      ],
      "stateMutability": "view",
      "type": "function"
    }
  ],
  "transactionHash": "0xaa9aed34e32b4fc89ef2d4b91c1087c9f72f316863b04e388cd2a9dc0aafc67e",
  "args": [
    "UniswapV3",
    "0x3EF68D3f7664b2805D4E88381b64868a56f88bC4",
    "0x33531bDBFE34fa6Fd5963D0423f7699775AacaaF"
  ],
  "numDeployments": 1,
  "solcInputHash": "cd5cfe4635359314d1a1742e611fb16f",
  "bytecode": "0x60806040523480156200001157600080fd5b5060405162001f4e38038062001f4e8339810160408190526200003491620002ec565b6200003f33620001b5565b6001805582516200005890600290602086019062000205565b50600480546001600160a01b0319166001600160a01b03841690811782556040805163c45a015560e01b81529051919263c45a0155928282019260209290829003018186803b158015620000ab57600080fd5b505afa158015620000c0573d6000803e3d6000fd5b505050506040513d601f19601f82011682018060405250810190620000e69190620002c8565b600580546001600160a01b03199081166001600160a01b03938416179091556006805490911683831617905560048054604080516312a9293f60e21b815290519190931692634aa4a4fc9281810192602092909190829003018186803b1580156200015057600080fd5b505afa15801562000165573d6000803e3d6000fd5b505050506040513d601f19601f820116820180604052508101906200018b9190620002c8565b600380546001600160a01b0319166001600160a01b0392909216919091179055506200043c915050565b600080546001600160a01b038381166001600160a01b0319831681178455604051919092169283917f8be0079c531659141344cd1fd0a4f28419497f9722a3daafe3b4186f6b6457e09190a35050565b8280546200021390620003e9565b90600052602060002090601f01602090048101928262000237576000855562000282565b82601f106200025257805160ff191683800117855562000282565b8280016001018555821562000282579182015b828111156200028257825182559160200191906001019062000265565b506200029092915062000294565b5090565b5b8082111562000290576000815560010162000295565b80516001600160a01b0381168114620002c357600080fd5b919050565b600060208284031215620002da578081fd5b620002e582620002ab565b9392505050565b60008060006060848603121562000301578182fd5b83516001600160401b038082111562000318578384fd5b818601915086601f8301126200032c578384fd5b81518181111562000341576200034162000426565b604051601f8201601f19908116603f011681019083821181831017156200036c576200036c62000426565b8160405282815260209350898484870101111562000388578687fd5b8691505b82821015620003ab57848201840151818301850152908301906200038c565b82821115620003bc57868484830101525b9650620003ce915050868201620002ab565b93505050620003e060408501620002ab565b90509250925092565b600181811c90821680620003fe57607f821691505b602082108114156200042057634e487b7160e01b600052602260045260246000fd5b50919050565b634e487b7160e01b600052604160045260246000fd5b611b02806200044c6000396000f3fe608060405234801561001057600080fd5b50600436106101075760003560e01c806301e65db31461010c57806304fe3fcb1461015557806306fdde031461016a57806311a2f0cb1461017f5780631580b5e5146101aa57806317fcb39b146101b25780631cb85818146101c55780633566967d146101d85780636145f87614610202578063715018a614610215578063838b7ccb1461021d57806389883074146102305780638b1937cd1461024a5780638da5cb5b1461025d5780639b4bca2414610265578063b0bbcd8814610288578063b23e4fc6146102a9578063df71d7f314610230578063e75d75d5146102b1578063f2fde38b146102c4578063f912c64b146102d7575b600080fd5b61013c61011a3660046114f9565b600760209081526000928352604080842090915290825290205462ffffff1681565b60405162ffffff90911681526020015b60405180910390f35b610168610163366004611531565b6102ea565b005b61017261037d565b60405161014c91906118c9565b600654610192906001600160a01b031681565b6040516001600160a01b03909116815260200161014c565b61016861040b565b600354610192906001600160a01b031681565b600454610192906001600160a01b031681565b6101eb6101e63660046115bc565b6104d6565b60408051921515835260208301919091520161014c565b610172610210366004611582565b610592565b6101686106cf565b61016861022b3660046114c1565b610700565b6101eb61023e36600461161a565b60016000935093915050565b6101eb6102583660046115bc565b610803565b61019261083c565b610278610273366004611582565b61084b565b604051901515815260200161014c565b61029b610296366004611721565b610a44565b60405161014c929190611887565b610168610e01565b600554610192906001600160a01b031681565b6101686102d23660046114c1565b610ecc565b6101686102e53660046114c1565b610f6c565b336102f361083c565b6001600160a01b0316146103225760405162461bcd60e51b8152600401610319906118dc565b60405180910390fd5b6001600160a01b039283166000818152600760208181526040808420969097168352948552858220805462ffffff90951662ffffff199586168117909155908552858220928252919093529290912080549091169091179055565b6002805461038a90611a2d565b80601f01602080910402602001604051908101604052809291908181526020018280546103b690611a2d565b80156104035780601f106103d857610100808354040283529160200191610403565b820191906000526020600020905b8154815290600101906020018083116103e657829003601f168201915b505050505081565b3361041461083c565b6001600160a01b03161461043a5760405162461bcd60e51b8152600401610319906118dc565b60048054604080516312a9293f60e21b815290516001600160a01b0390921692634aa4a4fc928282019260209290829003018186803b15801561047c57600080fd5b505afa158015610490573d6000803e3d6000fd5b505050506040513d601f19601f820116820180604052508101906104b491906114dd565b600380546001600160a01b0319166001600160a01b0392909216919091179055565b6000806104e28461084b565b6104f15750600090508061058b565b6006546000906001600160a01b03166318ce06108561050f88610592565b6040518363ffffffff1660e01b815260040161052c92919061195b565b600060405180830381600087803b15801561054657600080fd5b505af115801561055a573d6000803e3d6000fd5b505050506040513d6000823e601f3d908101601f191682016040526105829190810190611650565b50600193509150505b9250929050565b6060816000815181106105b557634e487b7160e01b600052603260045260246000fd5b60200260200101516040516020016105e0919060609190911b6001600160601b031916815260140190565b60408051601f19818403018152919052905060015b82518110156106c95760008361060c6001846119ea565b8151811061062a57634e487b7160e01b600052603260045260246000fd5b60200260200101519050600084838151811061065657634e487b7160e01b600052603260045260246000fd5b6020908102919091018101516001600160a01b038085166000908152600784526040808220928416825291845281902054905191935062ffffff16916106a29187918491869101611840565b604051602081830303815290604052945050505080806106c190611a62565b9150506105f5565b50919050565b336106d861083c565b6001600160a01b0316146106fe5760405162461bcd60e51b8152600401610319906118dc565b565b806001600160a01b0381166107275760405162461bcd60e51b815260040161031990611911565b3361073061083c565b6001600160a01b0316146107565760405162461bcd60e51b8152600401610319906118dc565b600480546001600160a01b0319166001600160a01b03841690811782556040805163c45a015560e01b81529051919263c45a0155928282019260209290829003018186803b1580156107a757600080fd5b505afa1580156107bb573d6000803e3d6000fd5b505050506040513d601f19601f820116820180604052508101906107df91906114dd565b600580546001600160a01b0319166001600160a01b03929092169190911790555050565b60008061080f8461084b565b61081e5750600090508061058b565b6006546000906001600160a01b0316630980929e8561050f88610592565b6000546001600160a01b031690565b6000806002835110156108615750600092915050565b60005b6001845161087291906119ea565b811015610a3a5760055484516001600160a01b039091169063becbcc6a908690849081106108b057634e487b7160e01b600052603260045260246000fd5b6020026020010151868460016108c691906119d2565b815181106108e457634e487b7160e01b600052603260045260246000fd5b60200260200101516007600089878151811061091057634e487b7160e01b600052603260045260246000fd5b60200260200101516001600160a01b03166001600160a01b0316815260200190815260200160002060008987600161094891906119d2565b8151811061096657634e487b7160e01b600052603260045260246000fd5b6020908102919091018101516001600160a01b0390811683529082019290925260409081016000205490516001600160e01b031960e087901b16815293821660048501529116602483015262ffffff16604482015260640160206040518083038186803b1580156109d657600080fd5b505afa1580156109ea573d6000803e3d6000fd5b505050506040513d601f19601f82011682018060405250810190610a0e91906114dd565b91506001600160a01b038216610a28575060009392505050565b80610a3281611a62565b915050610864565b5060019392505050565b6000606060026001541415610a9b5760405162461bcd60e51b815260206004820152601f60248201527f5265656e7472616e637947756172643a207265656e7472616e742063616c6c006044820152606401610319565b6002600155846001600160a01b038116610ac75760405162461bcd60e51b815260040161031990611911565b6000610ad68a8a8a8989610fbd565b909450905060008415610ded576040805160028082526060820183529091602083019080368337019050509350610b4b3330848c600081518110610b2a57634e487b7160e01b600052603260045260246000fd5b60200260200101516001600160a01b031661102b909392919063ffffffff16565b88600081518110610b6c57634e487b7160e01b600052603260045260246000fd5b60209081029190910101516004805460405163095ea7b360e01b81526001600160a01b0391821692810192909252602482018590529091169063095ea7b390604401602060405180830381600087803b158015610bc857600080fd5b505af1158015610bdc573d6000803e3d6000fd5b505050506040513d601f19601f82011682018060405250810190610c0091906115fe565b5060018615151415610cfa576004546001600160a01b03166375ceafe6610c2a848d8d8d8d61108b565b6040518263ffffffff1660e01b8152600401610c469190611948565b6040805180830381600087803b158015610c5f57600080fd5b505af1158015610c73573d6000803e3d6000fd5b505050506040513d601f19601f82011682018060405250810190610c9791906116fe565b9050809150508184600081518110610cbf57634e487b7160e01b600052603260045260246000fd5b6020026020010181815250508084600181518110610ced57634e487b7160e01b600052603260045260246000fd5b6020026020010181815250505b85610ded576004546001600160a01b031663115ff67e610d1d848d8d8d8d611119565b6040518263ffffffff1660e01b8152600401610d399190611948565b6040805180830381600087803b158015610d5257600080fd5b505af1158015610d66573d6000803e3d6000fd5b505050506040513d601f19601f82011682018060405250810190610d8a91906116fe565b9050809150508084600081518110610db257634e487b7160e01b600052603260045260246000fd5b6020026020010181815250508984600181518110610de057634e487b7160e01b600052603260045260246000fd5b6020026020010181815250505b505060018055509097909650945050505050565b33610e0a61083c565b6001600160a01b031614610e305760405162461bcd60e51b8152600401610319906118dc565b600480546040805163c45a015560e01b815290516001600160a01b039092169263c45a0155928282019260209290829003018186803b158015610e7257600080fd5b505afa158015610e86573d6000803e3d6000fd5b505050506040513d601f19601f82011682018060405250810190610eaa91906114dd565b600580546001600160a01b0319166001600160a01b0392909216919091179055565b33610ed561083c565b6001600160a01b031614610efb5760405162461bcd60e51b8152600401610319906118dc565b6001600160a01b038116610f605760405162461bcd60e51b815260206004820152602660248201527f4f776e61626c653a206e6577206f776e657220697320746865207a65726f206160448201526564647265737360d01b6064820152608401610319565b610f69816111a8565b50565b33610f7561083c565b6001600160a01b031614610f9b5760405162461bcd60e51b8152600401610319906118dc565b600680546001600160a01b0319166001600160a01b0392909216919091179055565b60008042841015610fd357506000905080611021565b600080610fe0878a610803565b9150915080881115610ffa57600080935093505050611021565b6001851515141561101057509150869050611021565b61101a87896104d6565b9350935050505b9550959350505050565b604080516001600160a01b0385811660248301528416604482015260648082018490528251808303909101815260849091019091526020810180516001600160e01b03166323b872dd60e01b1790526110859085906111f8565b50505050565b6110cf6040518060a001604052806060815260200160006001600160a01b0316815260200160006001600160801b0316815260200160008152602001600081525090565b6040518060a001604052806110e386610592565b81526001600160a01b0390941660208501526001600160801b039096166040840152506060820193909352608001919091525090565b61115d6040518060a001604052806060815260200160006001600160a01b0316815260200160006001600160801b0316815260200160008152602001600081525090565b6040518060a0016040528061117186610592565b81526001600160a01b0390941660208501526001600160801b03909516604084015250606082019490945260800192909252919050565b600080546001600160a01b038381166001600160a01b0319831681178455604051919092169283917f8be0079c531659141344cd1fd0a4f28419497f9722a3daafe3b4186f6b6457e09190a35050565b600061124d826040518060400160405280602081526020017f5361666545524332303a206c6f772d6c6576656c2063616c6c206661696c6564815250856001600160a01b03166112cf9092919063ffffffff16565b8051909150156112ca578080602001905181019061126b91906115fe565b6112ca5760405162461bcd60e51b815260206004820152602a60248201527f5361666545524332303a204552433230206f7065726174696f6e20646964206e6044820152691bdd081cdd58d8d9595960b21b6064820152608401610319565b505050565b60606112de84846000856112e8565b90505b9392505050565b6060824710156113495760405162461bcd60e51b815260206004820152602660248201527f416464726573733a20696e73756666696369656e742062616c616e636520666f6044820152651c8818d85b1b60d21b6064820152608401610319565b843b6113975760405162461bcd60e51b815260206004820152601d60248201527f416464726573733a2063616c6c20746f206e6f6e2d636f6e74726163740000006044820152606401610319565b600080866001600160a01b031685876040516113b39190611824565b60006040518083038185875af1925050503d80600081146113f0576040519150601f19603f3d011682016040523d82523d6000602084013e6113f5565b606091505b5091509150611405828286611410565b979650505050505050565b6060831561141f5750816112e1565b82511561142f5782518084602001fd5b8160405162461bcd60e51b815260040161031991906118c9565b600082601f830112611459578081fd5b8135602061146e611469836119af565b61197f565b80838252828201915082860187848660051b890101111561148d578586fd5b855b858110156114b45781356114a281611aa9565b8452928401929084019060010161148f565b5090979650505050505050565b6000602082840312156114d2578081fd5b81356112e181611aa9565b6000602082840312156114ee578081fd5b81516112e181611aa9565b6000806040838503121561150b578081fd5b823561151681611aa9565b9150602083013561152681611aa9565b809150509250929050565b600080600060608486031215611545578081fd5b833561155081611aa9565b9250602084013561156081611aa9565b9150604084013562ffffff81168114611577578182fd5b809150509250925092565b600060208284031215611593578081fd5b81356001600160401b038111156115a8578182fd5b6115b484828501611449565b949350505050565b600080604083850312156115ce578182fd5b82356001600160401b038111156115e3578283fd5b6115ef85828601611449565b95602094909401359450505050565b60006020828403121561160f578081fd5b81516112e181611abe565b60008060006060848603121561162e578283fd5b83359250602084013561164081611aa9565b9150604084013561157781611aa9565b60008060408385031215611662578182fd5b8251602080850151919350906001600160401b03811115611681578283fd5b8401601f81018613611691578283fd5b805161169f611469826119af565b80828252848201915084840189868560051b87010111156116be578687fd5b8694505b838510156116ee5780518060020b81146116da578788fd5b8352600194909401939185019185016116c2565b5080955050505050509250929050565b60008060408385031215611710578182fd5b505080516020909101519092909150565b60008060008060008060c08789031215611739578182fd5b863595506020870135945060408701356001600160401b0381111561175c578283fd5b61176889828a01611449565b945050606087013561177981611aa9565b92506080870135915060a087013561179081611abe565b809150509295509295509295565b600081518084526117b6816020860160208601611a01565b601f01601f19169290920160200192915050565b6000815160a084526117df60a085018261179e565b6020848101516001600160a01b0316908601526040808501516001600160801b0316908601526060808501519086015260809384015193909401929092525090919050565b60008251611836818460208701611a01565b9190910192915050565b60008451611852818460208901611a01565b60e89490941b6001600160e81b0319169190930190815260609190911b6001600160601b031916600382015260170192915050565b600060408201841515835260206040818501528185518084526060860191508287019350845b818110156114b4578451835293830193918301916001016118ad565b6020815260006112e1602083018461179e565b6020808252818101527f4f776e61626c653a2063616c6c6572206973206e6f7420746865206f776e6572604082015260600190565b6020808252601e908201527f695a6953776170436f6e6e6563746f723a207a65726f20616464726573730000604082015260600190565b6020815260006112e160208301846117ca565b6001600160801b03831681526040602082018190526000906112de9083018461179e565b604051601f8201601f191681016001600160401b03811182821017156119a7576119a7611a93565b604052919050565b60006001600160401b038211156119c8576119c8611a93565b5060051b60200190565b600082198211156119e5576119e5611a7d565b500190565b6000828210156119fc576119fc611a7d565b500390565b60005b83811015611a1c578181015183820152602001611a04565b838111156110855750506000910152565b600181811c90821680611a4157607f821691505b602082108114156106c957634e487b7160e01b600052602260045260246000fd5b6000600019821415611a7657611a76611a7d565b5060010190565b634e487b7160e01b600052601160045260246000fd5b634e487b7160e01b600052604160045260246000fd5b6001600160a01b0381168114610f6957600080fd5b8015158114610f6957600080fdfea2646970667358221220a883710fdd297c69dd8d082044a986f025a848710a9712d7833b47aa092c857964736f6c63430008040033",
  "devdoc": {
    "kind": "dev",
    "methods": {
      "constructor": {
        "params": {
          "_exchangeRouter": "Address of the DEX router contract",
          "_name": "Name of the underlying DEX"
        }
      },
      "getExactInput(address[],uint256)": {
        "details": "Return (false, 0) if DEX cannot swap the input amount"
      },
      "getExactOutput(address[],uint256)": {
        "details": "Return (false, 0) if DEX cannot give the output amount"
      },
      "isPathValid(address[])": {
        "params": {
          "_path": "List of tokens that are used for exchanging"
        }
      },
      "owner()": {
        "details": "Returns the address of the current owner."
      },
      "renounceOwnership()": {
        "details": "Leaves the contract without owner. It will not be possible to call `onlyOwner` functions anymore. Can only be called by the current owner. NOTE: Renouncing ownership will leave the contract without an owner, thereby removing any functionality that is only available to the owner."
      },
      "setExchangeRouter(address)": {
        "details": "Set address of liquidity pool factory from the exchange router",
        "params": {
          "_exchangeRouter": "Address of the new exchange router contract"
        }
      },
      "setFeeTier(address,address,uint24)": {
        "details": "We set the fee tier that is used for exchanging tokens"
      },
      "setLiquidityPoolFactory()": {
        "details": "Set address from exchange router"
      },
      "setWrappedNativeToken()": {
        "details": "Get address from exchange router"
      },
      "swap(uint256,uint256,address[],address,uint256,bool)": {
        "details": "Check exchange conditions before exchanging      We assume that the input token is not WETH (it is teleBTC)",
        "params": {
          "_deadline": "Deadline of exchanging tokens",
          "_inputAmount": "Amount of input token",
          "_isFixedToken": "True if the input token amount is fixed",
          "_outputAmount": "Amount of output token",
          "_path": "List of tokens that are used for exchanging",
          "_to": "Receiver address"
        },
        "returns": {
          "_amounts": "Amounts of tokens that are involved in exchanging",
          "_result": "True if the exchange is successful"
        }
      },
      "transferOwnership(address)": {
        "details": "Transfers ownership of the contract to a new account (`newOwner`). Can only be called by the current owner."
      }
    },
    "version": 1
  },
  "userdoc": {
    "kind": "user",
    "methods": {
      "constructor": {
        "notice": "This contract is used for interacting with UniswapV3 contract"
      },
      "getExactInput(address[],uint256)": {
        "notice": "Return the output amount for the given input amount"
      },
      "getExactOutput(address[],uint256)": {
        "notice": "Return the needed input amount to get the output amount"
      },
      "getInputAmount(uint256,address,address)": {
        "notice": "Deprecated for v3"
      },
      "getOutputAmount(uint256,address,address)": {
        "notice": "Deprecated for v3"
      },
      "isPathValid(address[])": {
        "notice": "Return true if the exchange path is valid"
      },
      "setExchangeRouter(address)": {
        "notice": "Setter for exchange router"
      },
      "setFeeTier(address,address,uint24)": {
        "notice": "Setter for fee tier"
      },
      "setLiquidityPoolFactory()": {
        "notice": "Setter for liquidity pool factory"
      },
      "setQuoter(address)": {
        "notice": "Setter for quoter"
      },
      "setWrappedNativeToken()": {
        "notice": "Setter for wrapped native token"
      },
      "swap(uint256,uint256,address[],address,uint256,bool)": {
        "notice": "Exchange input token for output token through exchange router"
      }
    },
    "version": 1
  },
  "storageLayout": {
    "storage": [
      {
        "astId": 3530,
        "contract": "contracts/swap_connectors/iZiSwapConnector.sol:iZiSwapConnector",
        "label": "_owner",
        "offset": 0,
        "slot": "0",
        "type": "t_address"
      },
      {
        "astId": 3637,
        "contract": "contracts/swap_connectors/iZiSwapConnector.sol:iZiSwapConnector",
        "label": "_status",
        "offset": 0,
        "slot": "1",
        "type": "t_uint256"
      },
      {
        "astId": 4325,
        "contract": "contracts/swap_connectors/iZiSwapConnector.sol:iZiSwapConnector",
        "label": "name",
        "offset": 0,
        "slot": "2",
        "type": "t_string_storage"
      },
      {
        "astId": 4328,
        "contract": "contracts/swap_connectors/iZiSwapConnector.sol:iZiSwapConnector",
        "label": "wrappedNativeToken",
        "offset": 0,
        "slot": "3",
        "type": "t_address"
      },
      {
        "astId": 4331,
        "contract": "contracts/swap_connectors/iZiSwapConnector.sol:iZiSwapConnector",
        "label": "exchangeRouter",
        "offset": 0,
        "slot": "4",
        "type": "t_address"
      },
      {
        "astId": 4334,
        "contract": "contracts/swap_connectors/iZiSwapConnector.sol:iZiSwapConnector",
        "label": "liquidityPoolFactory",
        "offset": 0,
        "slot": "5",
        "type": "t_address"
      },
      {
        "astId": 4336,
        "contract": "contracts/swap_connectors/iZiSwapConnector.sol:iZiSwapConnector",
        "label": "quoterAddress",
        "offset": 0,
        "slot": "6",
        "type": "t_address"
      },
      {
        "astId": 4342,
        "contract": "contracts/swap_connectors/iZiSwapConnector.sol:iZiSwapConnector",
        "label": "feeTier",
        "offset": 0,
        "slot": "7",
        "type": "t_mapping(t_address,t_mapping(t_address,t_uint24))"
      }
    ],
    "types": {
      "t_address": {
        "encoding": "inplace",
        "label": "address",
        "numberOfBytes": "20"
      },
      "t_mapping(t_address,t_mapping(t_address,t_uint24))": {
        "encoding": "mapping",
        "key": "t_address",
        "label": "mapping(address => mapping(address => uint24))",
        "numberOfBytes": "32",
        "value": "t_mapping(t_address,t_uint24)"
      },
      "t_mapping(t_address,t_uint24)": {
        "encoding": "mapping",
        "key": "t_address",
        "label": "mapping(address => uint24)",
        "numberOfBytes": "32",
        "value": "t_uint24"
      },
      "t_string_storage": {
        "encoding": "bytes",
        "label": "string",
        "numberOfBytes": "32"
      },
      "t_uint24": {
        "encoding": "inplace",
        "label": "uint24",
        "numberOfBytes": "3"
      },
      "t_uint256": {
        "encoding": "inplace",
        "label": "uint256",
        "numberOfBytes": "32"
      }
    }
  }
}