{
  "address": "0xB3A755470c8D342886A7824CcCF11f4a42dD8c93",
  "abi": [
    {
      "inputs": [
        {
          "internalType": "bytes",
          "name": "_genesisHeader",
          "type": "bytes"
        },
        {
          "internalType": "uint256",
          "name": "_height",
          "type": "uint256"
        },
        {
          "internalType": "bytes32",
          "name": "_periodStart",
          "type": "bytes32"
        },
        {
          "internalType": "address",
          "name": "_TeleportDAOToken",
          "type": "address"
        }
      ],
      "stateMutability": "nonpayable",
      "type": "constructor"
    },
    {
      "anonymous": false,
      "inputs": [
        {
          "indexed": true,
          "internalType": "uint256",
          "name": "height",
          "type": "uint256"
        },
        {
          "indexed": false,
          "internalType": "bytes32",
          "name": "selfHash",
          "type": "bytes32"
        },
        {
          "indexed": true,
          "internalType": "bytes32",
          "name": "parentHash",
          "type": "bytes32"
        },
        {
          "indexed": true,
          "internalType": "address",
          "name": "relayer",
          "type": "address"
        }
      ],
      "name": "BlockAdded",
      "type": "event"
    },
    {
      "anonymous": false,
      "inputs": [
        {
          "indexed": true,
          "internalType": "uint256",
          "name": "height",
          "type": "uint256"
        },
        {
          "indexed": false,
          "internalType": "bytes32",
          "name": "selfHash",
          "type": "bytes32"
        },
        {
          "indexed": false,
          "internalType": "bytes32",
          "name": "parentHash",
          "type": "bytes32"
        },
        {
          "indexed": true,
          "internalType": "address",
          "name": "relayer",
          "type": "address"
        },
        {
          "indexed": false,
          "internalType": "uint256",
          "name": "rewardAmountTNT",
          "type": "uint256"
        },
        {
          "indexed": false,
          "internalType": "uint256",
          "name": "rewardAmountTDT",
          "type": "uint256"
        }
      ],
      "name": "BlockFinalized",
      "type": "event"
    },
    {
      "anonymous": false,
      "inputs": [
        {
          "indexed": false,
          "internalType": "uint256",
          "name": "oldBaseQueries",
          "type": "uint256"
        },
        {
          "indexed": false,
          "internalType": "uint256",
          "name": "newBaseQueries",
          "type": "uint256"
        }
      ],
      "name": "NewBaseQueries",
      "type": "event"
    },
    {
      "anonymous": false,
      "inputs": [
        {
          "indexed": false,
          "internalType": "uint256",
          "name": "oldEpochLength",
          "type": "uint256"
        },
        {
          "indexed": false,
          "internalType": "uint256",
          "name": "newEpochLength",
          "type": "uint256"
        }
      ],
      "name": "NewEpochLength",
      "type": "event"
    },
    {
      "anonymous": false,
      "inputs": [
        {
          "indexed": false,
          "internalType": "uint256",
          "name": "oldFinalizationParameter",
          "type": "uint256"
        },
        {
          "indexed": false,
          "internalType": "uint256",
          "name": "newFinalizationParameter",
          "type": "uint256"
        }
      ],
      "name": "NewFinalizationParameter",
      "type": "event"
    },
    {
      "anonymous": false,
      "inputs": [
        {
          "indexed": false,
          "internalType": "uint256",
          "name": "oldRelayerPercentageFee",
          "type": "uint256"
        },
        {
          "indexed": false,
          "internalType": "uint256",
          "name": "newRelayerPercentageFee",
          "type": "uint256"
        }
      ],
      "name": "NewRelayerPercentageFee",
      "type": "event"
    },
    {
      "anonymous": false,
      "inputs": [
        {
          "indexed": false,
          "internalType": "uint256",
          "name": "oldRewardAmountInTDT",
          "type": "uint256"
        },
        {
          "indexed": false,
          "internalType": "uint256",
          "name": "newRewardAmountInTDT",
          "type": "uint256"
        }
      ],
      "name": "NewRewardAmountInTDT",
      "type": "event"
    },
    {
      "anonymous": false,
      "inputs": [
        {
          "indexed": false,
          "internalType": "uint256",
          "name": "oldSubmissionGasUsed",
          "type": "uint256"
        },
        {
          "indexed": false,
          "internalType": "uint256",
          "name": "newSubmissionGasUsed",
          "type": "uint256"
        }
      ],
      "name": "NewSubmissionGasUsed",
      "type": "event"
    },
    {
      "anonymous": false,
      "inputs": [
        {
          "indexed": false,
          "internalType": "address",
          "name": "oldTeleportDAOToken",
          "type": "address"
        },
        {
          "indexed": false,
          "internalType": "address",
          "name": "newTeleportDAOToken",
          "type": "address"
        }
      ],
      "name": "NewTeleportDAOToken",
      "type": "event"
    },
    {
      "anonymous": false,
      "inputs": [
        {
          "indexed": true,
          "internalType": "address",
          "name": "previousOwner",
          "type": "address"
        },
        {
          "indexed": true,
          "internalType": "address",
          "name": "newOwner",
          "type": "address"
        }
      ],
      "name": "OwnershipTransferred",
      "type": "event"
    },
    {
      "anonymous": false,
      "inputs": [
        {
          "indexed": false,
          "internalType": "address",
          "name": "account",
          "type": "address"
        }
      ],
      "name": "Paused",
      "type": "event"
    },
    {
      "anonymous": false,
      "inputs": [
        {
          "indexed": false,
          "internalType": "address",
          "name": "account",
          "type": "address"
        }
      ],
      "name": "Unpaused",
      "type": "event"
    },
    {
      "inputs": [],
      "name": "TeleportDAOToken",
      "outputs": [
        {
          "internalType": "address",
          "name": "",
          "type": "address"
        }
      ],
      "stateMutability": "view",
      "type": "function"
    },
    {
      "inputs": [
        {
          "internalType": "bytes",
          "name": "_anchor",
          "type": "bytes"
        },
        {
          "internalType": "bytes",
          "name": "_headers",
          "type": "bytes"
        }
      ],
      "name": "addHeaders",
      "outputs": [
        {
          "internalType": "bool",
          "name": "",
          "type": "bool"
        }
      ],
      "stateMutability": "nonpayable",
      "type": "function"
    },
    {
      "inputs": [
        {
          "internalType": "bytes",
          "name": "_oldPeriodStartHeader",
          "type": "bytes"
        },
        {
          "internalType": "bytes",
          "name": "_oldPeriodEndHeader",
          "type": "bytes"
        },
        {
          "internalType": "bytes",
          "name": "_headers",
          "type": "bytes"
        }
      ],
      "name": "addHeadersWithRetarget",
      "outputs": [
        {
          "internalType": "bool",
          "name": "",
          "type": "bool"
        }
      ],
      "stateMutability": "nonpayable",
      "type": "function"
    },
    {
      "inputs": [],
      "name": "availableTDT",
      "outputs": [
        {
          "internalType": "uint256",
          "name": "",
          "type": "uint256"
        }
      ],
      "stateMutability": "view",
      "type": "function"
    },
    {
      "inputs": [],
      "name": "availableTNT",
      "outputs": [
        {
          "internalType": "uint256",
          "name": "",
          "type": "uint256"
        }
      ],
      "stateMutability": "view",
      "type": "function"
    },
    {
      "inputs": [],
      "name": "baseQueries",
      "outputs": [
        {
          "internalType": "uint256",
          "name": "",
          "type": "uint256"
        }
      ],
      "stateMutability": "view",
      "type": "function"
    },
    {
      "inputs": [
        {
          "internalType": "bytes32",
          "name": "_txid",
          "type": "bytes32"
        },
        {
          "internalType": "uint256",
          "name": "_blockHeight",
          "type": "uint256"
        },
        {
          "internalType": "bytes",
          "name": "_intermediateNodes",
          "type": "bytes"
        },
        {
          "internalType": "uint256",
          "name": "_index",
          "type": "uint256"
        }
      ],
      "name": "checkTxProof",
      "outputs": [
        {
          "internalType": "bool",
          "name": "",
          "type": "bool"
        }
      ],
      "stateMutability": "payable",
      "type": "function"
    },
    {
      "inputs": [],
      "name": "currentEpochQueries",
      "outputs": [
        {
          "internalType": "uint256",
          "name": "",
          "type": "uint256"
        }
      ],
      "stateMutability": "view",
      "type": "function"
    },
    {
      "inputs": [],
      "name": "epochLength",
      "outputs": [
        {
          "internalType": "uint256",
          "name": "",
          "type": "uint256"
        }
      ],
      "stateMutability": "view",
      "type": "function"
    },
    {
      "inputs": [],
      "name": "finalizationParameter",
      "outputs": [
        {
          "internalType": "uint256",
          "name": "",
          "type": "uint256"
        }
      ],
      "stateMutability": "view",
      "type": "function"
    },
    {
      "inputs": [
        {
          "internalType": "bytes32",
          "name": "_hash",
          "type": "bytes32"
        },
        {
          "internalType": "uint256",
          "name": "_offset",
          "type": "uint256"
        }
      ],
      "name": "findAncestor",
      "outputs": [
        {
          "internalType": "bytes32",
          "name": "",
          "type": "bytes32"
        }
      ],
      "stateMutability": "view",
      "type": "function"
    },
    {
      "inputs": [
        {
          "internalType": "bytes32",
          "name": "_hash",
          "type": "bytes32"
        }
      ],
      "name": "findHeight",
      "outputs": [
        {
          "internalType": "uint256",
          "name": "",
          "type": "uint256"
        }
      ],
      "stateMutability": "view",
      "type": "function"
    },
    {
      "inputs": [
        {
          "internalType": "uint256",
          "name": "_height",
          "type": "uint256"
        },
        {
          "internalType": "uint256",
          "name": "_index",
          "type": "uint256"
        }
      ],
      "name": "getBlockHeaderFee",
      "outputs": [
        {
          "internalType": "uint256",
          "name": "",
          "type": "uint256"
        }
      ],
      "stateMutability": "view",
      "type": "function"
    },
    {
      "inputs": [
        {
          "internalType": "uint256",
          "name": "_height",
          "type": "uint256"
        },
        {
          "internalType": "uint256",
          "name": "_index",
          "type": "uint256"
        }
      ],
      "name": "getBlockHeaderHash",
      "outputs": [
        {
          "internalType": "bytes32",
          "name": "",
          "type": "bytes32"
        }
      ],
      "stateMutability": "view",
      "type": "function"
    },
    {
      "inputs": [
        {
          "internalType": "uint256",
          "name": "_height",
          "type": "uint256"
        }
      ],
      "name": "getNumberOfSubmittedHeaders",
      "outputs": [
        {
          "internalType": "uint256",
          "name": "",
          "type": "uint256"
        }
      ],
      "stateMutability": "view",
      "type": "function"
    },
    {
      "inputs": [],
      "name": "initialHeight",
      "outputs": [
        {
          "internalType": "uint256",
          "name": "",
          "type": "uint256"
        }
      ],
      "stateMutability": "view",
      "type": "function"
    },
    {
      "inputs": [
        {
          "internalType": "bytes32",
          "name": "_ancestor",
          "type": "bytes32"
        },
        {
          "internalType": "bytes32",
          "name": "_descendant",
          "type": "bytes32"
        },
        {
          "internalType": "uint256",
          "name": "_limit",
          "type": "uint256"
        }
      ],
      "name": "isAncestor",
      "outputs": [
        {
          "internalType": "bool",
          "name": "",
          "type": "bool"
        }
      ],
      "stateMutability": "view",
      "type": "function"
    },
    {
      "inputs": [],
      "name": "lastEpochQueries",
      "outputs": [
        {
          "internalType": "uint256",
          "name": "",
          "type": "uint256"
        }
      ],
      "stateMutability": "view",
      "type": "function"
    },
    {
      "inputs": [],
      "name": "lastSubmittedHeight",
      "outputs": [
        {
          "internalType": "uint256",
          "name": "",
          "type": "uint256"
        }
      ],
      "stateMutability": "view",
      "type": "function"
    },
    {
      "inputs": [],
      "name": "owner",
      "outputs": [
        {
          "internalType": "address",
          "name": "",
          "type": "address"
        }
      ],
      "stateMutability": "view",
      "type": "function"
    },
    {
      "inputs": [
        {
          "internalType": "bytes",
          "name": "_anchor",
          "type": "bytes"
        },
        {
          "internalType": "bytes",
          "name": "_headers",
          "type": "bytes"
        }
      ],
      "name": "ownerAddHeaders",
      "outputs": [
        {
          "internalType": "bool",
          "name": "",
          "type": "bool"
        }
      ],
      "stateMutability": "nonpayable",
      "type": "function"
    },
    {
      "inputs": [
        {
          "internalType": "bytes",
          "name": "_oldPeriodStartHeader",
          "type": "bytes"
        },
        {
          "internalType": "bytes",
          "name": "_oldPeriodEndHeader",
          "type": "bytes"
        },
        {
          "internalType": "bytes",
          "name": "_headers",
          "type": "bytes"
        }
      ],
      "name": "ownerAddHeadersWithRetarget",
      "outputs": [
        {
          "internalType": "bool",
          "name": "",
          "type": "bool"
        }
      ],
      "stateMutability": "nonpayable",
      "type": "function"
    },
    {
      "inputs": [],
      "name": "pauseRelay",
      "outputs": [],
      "stateMutability": "nonpayable",
      "type": "function"
    },
    {
      "inputs": [],
      "name": "paused",
      "outputs": [
        {
          "internalType": "bool",
          "name": "",
          "type": "bool"
        }
      ],
      "stateMutability": "view",
      "type": "function"
    },
    {
      "inputs": [],
      "name": "relayGenesisHash",
      "outputs": [
        {
          "internalType": "bytes32",
          "name": "",
          "type": "bytes32"
        }
      ],
      "stateMutability": "view",
      "type": "function"
    },
    {
      "inputs": [],
      "name": "relayerPercentageFee",
      "outputs": [
        {
          "internalType": "uint256",
          "name": "",
          "type": "uint256"
        }
      ],
      "stateMutability": "view",
      "type": "function"
    },
    {
      "inputs": [],
      "name": "renounceOwnership",
      "outputs": [],
      "stateMutability": "nonpayable",
      "type": "function"
    },
    {
      "inputs": [],
      "name": "rewardAmountInTDT",
      "outputs": [
        {
          "internalType": "uint256",
          "name": "",
          "type": "uint256"
        }
      ],
      "stateMutability": "view",
      "type": "function"
    },
    {
      "inputs": [
        {
          "internalType": "uint256",
          "name": "_baseQueries",
          "type": "uint256"
        }
      ],
      "name": "setBaseQueries",
      "outputs": [],
      "stateMutability": "nonpayable",
      "type": "function"
    },
    {
      "inputs": [
        {
          "internalType": "uint256",
          "name": "_epochLength",
          "type": "uint256"
        }
      ],
      "name": "setEpochLength",
      "outputs": [],
      "stateMutability": "nonpayable",
      "type": "function"
    },
    {
      "inputs": [
        {
          "internalType": "uint256",
          "name": "_finalizationParameter",
          "type": "uint256"
        }
      ],
      "name": "setFinalizationParameter",
      "outputs": [],
      "stateMutability": "nonpayable",
      "type": "function"
    },
    {
      "inputs": [
        {
          "internalType": "uint256",
          "name": "_relayerPercentageFee",
          "type": "uint256"
        }
      ],
      "name": "setRelayerPercentageFee",
      "outputs": [],
      "stateMutability": "nonpayable",
      "type": "function"
    },
    {
      "inputs": [
        {
          "internalType": "uint256",
          "name": "_rewardAmountInTDT",
          "type": "uint256"
        }
      ],
      "name": "setRewardAmountInTDT",
      "outputs": [],
      "stateMutability": "nonpayable",
      "type": "function"
    },
    {
      "inputs": [
        {
          "internalType": "uint256",
          "name": "_submissionGasUsed",
          "type": "uint256"
        }
      ],
      "name": "setSubmissionGasUsed",
      "outputs": [],
      "stateMutability": "nonpayable",
      "type": "function"
    },
    {
      "inputs": [
        {
          "internalType": "address",
          "name": "_TeleportDAOToken",
          "type": "address"
        }
      ],
      "name": "setTeleportDAOToken",
      "outputs": [],
      "stateMutability": "nonpayable",
      "type": "function"
    },
    {
      "inputs": [],
      "name": "submissionGasUsed",
      "outputs": [
        {
          "internalType": "uint256",
          "name": "",
          "type": "uint256"
        }
      ],
      "stateMutability": "view",
      "type": "function"
    },
    {
      "inputs": [
        {
          "internalType": "address",
          "name": "newOwner",
          "type": "address"
        }
      ],
      "name": "transferOwnership",
      "outputs": [],
      "stateMutability": "nonpayable",
      "type": "function"
    },
    {
      "inputs": [],
      "name": "unpauseRelay",
      "outputs": [],
      "stateMutability": "nonpayable",
      "type": "function"
    }
  ],
  "transactionHash": "0x1792eadf6f3edc897063a919921ec54bae78403b7a307acdb1c7bf31b7622573",
  "args": [
    "0x00800020c9103c16a36109d037c51af2a14ecd3f56e7c7b76f66107e1e000000000000004dcf6f267b8b628e66617317f42ca52229be699ebaaede3169b16e592dcd1b34bbacc363963b26191527bc06",
    2416430,
    "0x9746309622150a7e401d05781a524d0b6d2c73140f97a9f41e00000000000000",
    "0x4A922Dec0d9BC16827A37f53e70aa09bb0F37Bb9"
  ],
  "numDeployments": 1,
  "solcInputHash": "be8d75db0385d6f9e450b4e6950966af",
  "bytecode": "0x60806040523480156200001157600080fd5b506040516200501638038062005016833981016040819052620000349162000ee0565b6200003f3362000325565b600180556002805460ff191690556000620000826200006b868362000375602090811b620010b117901c565b62ffffff19166200039b60201b620010d51760201c565b9050620000a08162ffffff19166200043660201b6200112d1760201c565b620000f25760405162461bcd60e51b815260206004820152601d60248201527f426974636f696e52656c61793a2073746f70206265696e672064756d6200000060448201526064015b60405180910390fd5b6000620001108262ffffff19166200044660201b6200113a1760201c565b600e8190556040805160a081018252600060208083018290529282018190526060820181905260808201528281529192506200015d9062ffffff198516906200119c620004aa821b17901c565b816020018181525050620001828362ffffff1916620004d960201b620011be1760201c565b6040820152336001600160a01b0390811660608301908152600060808401818152898252600f602090815260408084208054600180820183559186529483902088516005909602019485559187015191840191909155850151600283015591516003820180546001600160a01b03191691909416179092555160049091015562ffffff8516156200027c5760405162461bcd60e51b815260206004820152603d60248201527f506572696f64207374617274206861736820646f6573206e6f7420686176652060448201527f776f726b2e2048696e743a2077726f6e672062797465206f726465723f0000006064820152608401620000e9565b60008281526011602052604090208690556200029b6107e087620010ab565b620002a7908762001038565b600086815260116020526040902055620002c2600362000508565b60038690556004869055620002d784620005bb565b620002e46101f462000624565b620002f16107e0620006c5565b600954620002ff9062000758565b600a54600c556000600b5562000318620493e0620007eb565b50505050505050620010f8565b600080546001600160a01b038381166001600160a01b0319831681178455604051919092169283917f8be0079c531659141344cd1fd0a4f28419497f9722a3daafe3b4186f6b6457e09190a35050565b8151600090602084016200039264ffffffffff851682846200082c565b95945050505050565b60008181620003c0815b8362ffffff19166200087860201b620011e01790919060201c565b50620003dd8462ffffff19166200095c60201b620012b91760201c565b6001600160601b03166050146200040b57620004036200096b60201b620012c81760201c565b92506200042f565b6200042c60108562ffffff19166200097360201b620012d01790919060201c565b92505b5050919050565b62ffffff1981811614155b919050565b6000806200045d8360781c6001600160601b031690565b6001600160601b0316905060006200047e8460181c6001600160601b031690565b6001600160601b03169050604051602081838560025afa5060208160208360025afa5051949350505050565b6000816010620004ba81620003a5565b506200042c62ffffff19851660046020620012e262000985821b17811c565b6000816010620004e981620003a5565b506200042c62ffffff19851660246020620012e262000985821b17811c565b60055460408051918252602082018390527fe7ff4c9746f87ab86154b3cb3bb52e1647f016783ae4e195496258eaa884c296910160405180910390a16000811180156200055757506101b08111155b620005b65760405162461bcd60e51b815260206004820152602860248201527f426974636f696e52656c61793a20696e76616c69642066696e616c697a6174696044820152676f6e20706172616d60c01b6064820152608401620000e9565b600555565b600d54604080516001600160a01b03928316815291831660208301527ffd88adf2dc0ac6ee5960f2f4273f25017bab8b5efa8889b3cf085ce645c293b2910160405180910390a1600d80546001600160a01b0319166001600160a01b0392909216919091179055565b60075460408051918252602082018390527f1957bdf4f6fe279cd1cb63c41461020488cecbdf8721d1a1c960bc57c7cddce8910160405180910390a1612710811115620006c05760405162461bcd60e51b8152602060048201526024808201527f426974636f696e52656c61793a2072656c6179206665652069732061626f7665604482015263040dac2f60e31b6064820152608401620000e9565b600755565b60095460408051918252602082018390527fd077b1717c042dc03e7eb68030220b62f703db305be2ffb5b9e1d91b639a63f9910160405180910390a160008111620007535760405162461bcd60e51b815260206004820152601f60248201527f426974636f696e52656c61793a207a65726f2065706f6368206c656e677468006044820152606401620000e9565b600955565b600a5460408051918252602082018390527f74fc63a076510aaad1c9925c1575a3cd23bc28541d09501418a96b0a38335f53910160405180910390a160008111620007e65760405162461bcd60e51b815260206004820152601d60248201527f426974636f696e52656c61793a207a65726f20626173652071756572790000006044820152606401620000e9565b600a55565b60085460408051918252602082018390527f7a20e935d503f4d2565dbc88569bbe136c1e2a59da068a1d1286f04512ecfff3910160405180910390a1600855565b6000806200083b838562000ff1565b90506040518111156200084c575060005b80620008605762ffffff1991505062000871565b5050606083811b8317901b811760181b5b9392505050565b600062000886838362000aed565b62000955576000620008a96200089c8560d81c90565b64ffffffffff1662000b11565b915060009050620008c164ffffffffff851662000b11565b6040517f5479706520617373657274696f6e206661696c65642e20476f7420307800000060208201526001600160b01b031960b086811b8216603d8401526c05c408af0e0cac6e8cac84060f609b1b604784015283901b16605482015290925060009150605e0160405160208183030381529060405290508060405162461bcd60e51b8152600401620000e9919062000fbc565b5090919050565b60181c6001600160601b031690565b62ffffff1990565b60d81b6001600160d81b039091161790565b600060ff8216620009995750600062000871565b620009ad8460181c6001600160601b031690565b6001600160601b0316620009c560ff84168562000ff1565b111562000a305762000a15620009e48560781c6001600160601b031690565b6001600160601b031662000a018660181c6001600160601b031690565b6001600160601b03168560ff861662000bcb565b60405162461bcd60e51b8152600401620000e9919062000fbc565b60208260ff16111562000aac5760405162461bcd60e51b815260206004820152603a60248201527f54797065644d656d566965772f696e646578202d20417474656d70746564207460448201527f6f20696e646578206d6f7265207468616e2033322062797465730000000000006064820152608401620000e9565b60088202600062000ac68660781c6001600160601b031690565b6001600160601b031690506000600160ff1b60001984011d91909501511695945050505050565b600064ffffffffff821662000b028460d81c90565b64ffffffffff16149392505050565b600080601f5b600f8160ff16111562000b7857600062000b338260086200100c565b60ff1685901c905062000b468162000d08565b61ffff16841793508160ff1660101462000b6257601084901b93505b5062000b7060018262001052565b905062000b17565b50600f5b60ff8160ff16101562000bc55760ff600882021684901c62000b9e8162000d08565b61ffff16831792508160ff1660001462000bba57601083901b92505b506000190162000b7c565b50915091565b6060600062000bda8662000b11565b91506000905062000beb8662000b11565b91506000905062000bfc8662000b11565b91506000905062000c0d8662000b11565b604080517f54797065644d656d566965772f696e646578202d204f76657272616e2074686560208201527f20766965772e20536c6963652069732061742030780000000000000000000000818301526001600160d01b031960d098891b811660558301526e040eed2e8d040d8cadccee8d04060f608b1b605b830181905297891b8116606a8301527f2e20417474656d7074656420746f20696e646578206174206f666673657420306070830152600f60fb1b609083015295881b861660918201526097810196909652951b90921660a68401525050601760f91b60ac8201528151808203608d01815260ad90910190915295945050505050565b600062000d1c600f600484901c1662000d3c565b60ff161760081b62ffff001662000d338262000d3c565b60ff1617919050565b600060f08083179060ff8216141562000d5a57603091505062000441565b8060ff1660f1141562000d7257603191505062000441565b8060ff1660f2141562000d8a57603291505062000441565b8060ff1660f3141562000da257603391505062000441565b8060ff1660f4141562000dba57603491505062000441565b8060ff1660f5141562000dd257603591505062000441565b8060ff1660f6141562000dea57603691505062000441565b8060ff1660f7141562000e0257603791505062000441565b8060ff1660f8141562000e1a57603891505062000441565b8060ff1660f9141562000e3257603991505062000441565b8060ff1660fa141562000e4a57606191505062000441565b8060ff1660fb141562000e6257606291505062000441565b8060ff1660fc141562000e7a57606391505062000441565b8060ff1660fd141562000e9257606491505062000441565b8060ff1660fe141562000eaa57606591505062000441565b8060ff1660ff141562000ec257606691505062000441565b50919050565b80516001600160a01b03811681146200044157600080fd5b6000806000806080858703121562000ef6578384fd5b84516001600160401b038082111562000f0d578586fd5b818701915087601f83011262000f21578586fd5b81518181111562000f365762000f36620010e2565b604051601f8201601f19908116603f0116810190838211818310171562000f615762000f61620010e2565b816040528281528a602084870101111562000f7a578889fd5b62000f8d83602083016020880162001078565b8098505050505050602085015192506040850151915062000fb16060860162000ec8565b905092959194509250565b600060208252825180602084015262000fdd81604085016020870162001078565b601f01601f19169190910160400192915050565b60008219821115620010075762001007620010cc565b500190565b600060ff821660ff84168160ff0481118215151615620010305762001030620010cc565b029392505050565b6000828210156200104d576200104d620010cc565b500390565b600060ff821660ff8416808210156200106f576200106f620010cc565b90039392505050565b60005b83811015620010955781810151838201526020016200107b565b83811115620010a5576000848401525b50505050565b600082620010c757634e487b7160e01b81526012600452602481fd5b500690565b634e487b7160e01b600052601160045260246000fd5b634e487b7160e01b600052604160045260246000fd5b613f0e80620011086000396000f3fe6080604052600436106102255760003560e01c8063926d44e211610123578063b9e88ac1116100ab578063efbc7be41161006f578063efbc7be4146105f4578063f02f62fd1461060a578063f2fde38b1461062a578063fa041af51461064a578063fd9c6e851461066057610225565b8063b9e88ac114610568578063c20dc66414610588578063d0a897391461059e578063dc044422146105be578063e2761af0146105de57610225565b8063ae6e5eb0116100f2578063ae6e5eb0146104d3578063ae96c2ae146104f3578063b36161bd14610508578063b985621a14610528578063b9bbd9bd1461054857610225565b8063926d44e21461045a5780639f15641414610487578063a072bc501461049d578063a3db54eb146104b357610225565b80635c975abb116101b1578063715018a611610175578063715018a6146103d25780637fa637fc146103e7578063882a5ee0146104075780638da5cb5b1461041c578063901186bb1461043a57610225565b80635c975abb1461034457806360b5c3901461035c578063659416831461037c57806365da41b91461039c578063665b634f146103bc57610225565b8063465e7559116101f8578063465e7559146102ce57806354eea796146102e557806357d775f8146103055780635b7328921461031b5780635b88a0e51461033157610225565b8063108f438d1461022a5780632f796d901461026757806330017b3b1461028b5780634354da25146102ab575b600080fd5b34801561023657600080fd5b50600d5461024a906001600160a01b031681565b6040516001600160a01b0390911681526020015b60405180910390f35b34801561027357600080fd5b5061027d60045481565b60405190815260200161025e565b34801561029757600080fd5b5061027d6102a6366004613987565b610676565b6102be6102b93660046139a8565b610689565b604051901515815260200161025e565b3480156102da57600080fd5b506102e36109be565b005b3480156102f157600080fd5b506102e3610300366004613944565b6109f2565b34801561031157600080fd5b5061027d60095481565b34801561032757600080fd5b5061027d600b5481565b34801561033d57600080fd5b504761027d565b34801561035057600080fd5b5060025460ff166102be565b34801561036857600080fd5b5061027d610377366004613944565b610a28565b34801561038857600080fd5b506102e3610397366004613944565b610a3b565b3480156103a857600080fd5b506102be6103b7366004613a01565b610a6e565b3480156103c857600080fd5b5061027d60075481565b3480156103de57600080fd5b506102e3610b92565b3480156103f357600080fd5b506102be610402366004613a6a565b610bbc565b34801561041357600080fd5b5061027d610d18565b34801561042857600080fd5b506000546001600160a01b031661024a565b34801561044657600080fd5b506102e3610455366004613944565b610d99565b34801561046657600080fd5b5061027d610475366004613944565b6000908152600f602052604090205490565b34801561049357600080fd5b5061027d600c5481565b3480156104a957600080fd5b5061027d60055481565b3480156104bf57600080fd5b506102e36104ce366004613944565b610dcc565b3480156104df57600080fd5b506102be6104ee366004613a6a565b610dff565b3480156104ff57600080fd5b506102e3610e53565b34801561051457600080fd5b506102e3610523366004613944565b610e85565b34801561053457600080fd5b506102be61054336600461395c565b610eb8565b34801561055457600080fd5b5061027d610563366004613987565b610ecd565b34801561057457600080fd5b506102e3610583366004613944565b610f15565b34801561059457600080fd5b5061027d60085481565b3480156105aa57600080fd5b5061027d6105b9366004613987565b610f48565b3480156105ca57600080fd5b506102e36105d93660046138fd565b610f92565b3480156105ea57600080fd5b5061027d60035481565b34801561060057600080fd5b5061027d600e5481565b34801561061657600080fd5b506102be610625366004613a01565b610fc5565b34801561063657600080fd5b506102e36106453660046138fd565b611019565b34801561065657600080fd5b5061027d600a5481565b34801561066c57600080fd5b5061027d60065481565b6000610682838361143b565b9392505050565b6000600260015414156106b75760405162461bcd60e51b81526004016106ae90613bc6565b60405180910390fd5b60026001556106c860025460ff1690565b156106e55760405162461bcd60e51b81526004016106ae90613b67565b856107405760405162461bcd60e51b815260206004820152602560248201527f426974636f696e52656c61793a20747869642073686f756c64206265206e6f6e6044820152642d7a65726f60d81b60648201526084016106ae565b60045461074e906001613bfd565b60055461075b9087613bfd565b106107c25760405162461bcd60e51b815260206004820152603160248201527f426974636f696e52656c61793a20626c6f636b206973206e6f742066696e616c604482015270697a6564206f6e207468652072656c617960781b60648201526084016106ae565b60035485101561084d5760405162461bcd60e51b815260206004820152604a60248201527f426974636f696e52656c61793a2074686520726571756573746564206865696760448201527f6874206973206e6f74207375626d6974746564206f6e207468652072656c61796064820152692028746f6f206f6c642960b01b608482015260a4016106ae565b6001600b60008282546108609190613bfd565b90915550506000858152600f6020526040812080546108ab929061089457634e487b7160e01b600052603260045260246000fd5b9060005260206000209060050201600401546114b9565b61090c5760405162461bcd60e51b815260206004820152602c60248201527f426974636f696e52656c61793a2067657474696e672066656520776173206e6f60448201526b1d081cdd58d8d95cdcd99d5b60a21b60648201526084016106ae565b6000858152600f602052604081208054829061093857634e487b7160e01b600052603260045260246000fd5b906000526020600020906005020160020154905060006109a0610995600088888080601f01602080910402602001604051908101604052809392919081815260200183838082843760009201919091525092939250506110b19050565b62ffffff1916611533565b90506109ae88838387611579565b6001805598975050505050505050565b6000546001600160a01b031633146109e85760405162461bcd60e51b81526004016106ae90613b91565b6109f06115d3565b565b6000546001600160a01b03163314610a1c5760405162461bcd60e51b81526004016106ae90613b91565b610a2581611648565b50565b6000610a33826116d9565b90505b919050565b6000546001600160a01b03163314610a655760405162461bcd60e51b81526004016106ae90613b91565b610a2581611749565b600060026001541415610a935760405162461bcd60e51b81526004016106ae90613bc6565b6002600155610aa460025460ff1690565b15610ac15760405162461bcd60e51b81526004016106ae90613b67565b6000610b15610b0a600086868080601f01602080910402602001604051908101604052809392919081815260200183838082843760009201919091525092939250506110b19050565b62ffffff19166117da565b90506000610b6b610b60600089898080601f01602080910402602001604051908101604052809392919081815260200183838082843760009201919091525092939250506110b19050565b62ffffff19166110d5565b9050610b778282611820565b610b838183600061190e565b60018055979650505050505050565b6000546001600160a01b031633146109f05760405162461bcd60e51b81526004016106ae90613b91565b600060026001541415610be15760405162461bcd60e51b81526004016106ae90613bc6565b6002600155610bf260025460ff1690565b15610c0f5760405162461bcd60e51b81526004016106ae90613b67565b6000610c58610b6060008a8a8080601f01602080910402602001604051908101604052809392919081815260200183838082843760009201919091525092939250506110b19050565b90506000610ca3610b60600089898080601f01602080910402602001604051908101604052809392919081815260200183838082843760009201919091525092939250506110b19050565b90506000610cee610b0a600088888080601f01602080910402602001604051908101604052809392919081815260200183838082843760009201919091525092939250506110b19050565b9050610cfb838383611dad565b610d06838383611e5f565b600180559a9950505050505050505050565b600d546040516370a0823160e01b81523060048201526000916001600160a01b0316906370a082319060240160206040518083038186803b158015610d5c57600080fd5b505afa158015610d70573d6000803e3d6000fd5b505050506040513d601f19601f82011682018060405250810190610d949190613b00565b905090565b6000546001600160a01b03163314610dc35760405162461bcd60e51b81526004016106ae90613b91565b610a258161210f565b6000546001600160a01b03163314610df65760405162461bcd60e51b81526004016106ae90613b91565b610a25816121ae565b600060026001541415610e245760405162461bcd60e51b81526004016106ae90613bc6565b60026001556000546001600160a01b03163314610c0f5760405162461bcd60e51b81526004016106ae90613b91565b6000546001600160a01b03163314610e7d5760405162461bcd60e51b81526004016106ae90613b91565b6109f06121ef565b6000546001600160a01b03163314610eaf5760405162461bcd60e51b81526004016106ae90613b91565b610a2581612269565b6000610ec5848484612319565b949350505050565b6000828152600f60205260408120805483908110610efb57634e487b7160e01b600052603260045260246000fd5b906000526020600020906005020160000154905092915050565b6000546001600160a01b03163314610f3f5760405162461bcd60e51b81526004016106ae90613b91565b610a2581612368565b6000828152600f602052604081208054610682919084908110610f7b57634e487b7160e01b600052603260045260246000fd5b9060005260206000209060050201600401546123a9565b6000546001600160a01b03163314610fbc5760405162461bcd60e51b81526004016106ae90613b91565b610a25816123fa565b600060026001541415610fea5760405162461bcd60e51b81526004016106ae90613bc6565b60026001556000546001600160a01b03163314610ac15760405162461bcd60e51b81526004016106ae90613b91565b6000546001600160a01b031633146110435760405162461bcd60e51b81526004016106ae90613b91565b6001600160a01b0381166110a85760405162461bcd60e51b815260206004820152602660248201527f4f776e61626c653a206e6577206f776e657220697320746865207a65726f206160448201526564647265737360d01b60648201526084016106ae565b610a2581612463565b8151600090602084016110cc64ffffffffff851682846124b3565b95945050505050565b600081816110eb815b62ffffff198416906111e0565b506050601885901c6001600160601b031614611110576111096112c8565b9250611126565b61112360105b62ffffff198616906112d0565b92505b5050919050565b62ffffff19908116141590565b6000806111508360781c6001600160601b031690565b6001600160601b0316905060006111708460181c6001600160601b031690565b6001600160601b03169050604051602081838560025afa5060208160208360025afa5051949350505050565b60008160106111aa816110de565b5061112362ffffff198516600460206112e2565b60008160106111cc816110de565b5061112362ffffff198516602460206112e2565b60006111ec83836124f7565b6112b257600061120b6111ff8560d81c90565b64ffffffffff1661251a565b91505060006112208464ffffffffff1661251a565b6040517f5479706520617373657274696f6e206661696c65642e20476f7420307800000060208201526001600160b01b031960b086811b8216603d8401526c05c408af0e0cac6e8cac84060f609b1b604784015283901b16605482015290925060009150605e0160405160208183030381529060405290508060405162461bcd60e51b81526004016106ae9190613b34565b5090919050565b60181c6001600160601b031690565b62ffffff1990565b60d81b6001600160d81b039091161790565b600060ff82166112f457506000610682565b6113078460181c6001600160601b031690565b6001600160601b031661131d60ff841685613bfd565b1115611381576113686113398560781c6001600160601b031690565b6001600160601b03166113558660181c6001600160601b031690565b6001600160601b0316858560ff166125c6565b60405162461bcd60e51b81526004016106ae9190613b34565b60208260ff1611156113fb5760405162461bcd60e51b815260206004820152603a60248201527f54797065644d656d566965772f696e646578202d20417474656d70746564207460448201527f6f20696e646578206d6f7265207468616e20333220627974657300000000000060648201526084016106ae565b6008820260006114148660781c6001600160601b031690565b6001600160601b031690506000600160ff1b60001984011d91909501511695945050505050565b600082815b8381101561146b5760009182526010602052604090912054908061146381613e57565b915050611440565b50806106825760405162461bcd60e51b815260206004820152601e60248201527f426974636f696e52656c61793a20756e6b6e6f776e20616e636573746f72000060448201526064016106ae565b6000806114c5836123a9565b9050803410156115175760405162461bcd60e51b815260206004820152601f60248201527f426974636f696e52656c61793a20666565206973206e6f7420656e6f7567680060448201526064016106ae565b61152a336115258334613dd6565b6126f0565b50600192915050565b60008181611540816110de565b506115596020601886901c6001600160601b0316613e86565b6001600160601b03161561156f576111096112c8565b6111236014611116565b6000826014611587816110de565b508587148015611595575083155b80156115ac5750601885901c6001600160601b0316155b156115ba57600192506115c9565b6115c687868887612809565b92505b5050949350505050565b60025460ff16156115f65760405162461bcd60e51b81526004016106ae90613b67565b6002805460ff191660011790557f62e78cea01bee320cd4e420270b5ea74000d11b0c9f74754ebdbfc544b05a25861162b3390565b6040516001600160a01b03909116815260200160405180910390a1565b60095460408051918252602082018390527fd077b1717c042dc03e7eb68030220b62f703db305be2ffb5b9e1d91b639a63f9910160405180910390a1600081116116d45760405162461bcd60e51b815260206004820152601f60248201527f426974636f696e52656c61793a207a65726f2065706f6368206c656e6774680060448201526064016106ae565b600955565b6000818152601160205260408120546117345760405162461bcd60e51b815260206004820152601b60248201527f426974636f696e52656c61793a20756e6b6e6f776e20626c6f636b000000000060448201526064016106ae565b50600081815260116020526040902054610a36565b600a5460408051918252602082018390527f74fc63a076510aaad1c9925c1575a3cd23bc28541d09501418a96b0a38335f53910160405180910390a1600081116117d55760405162461bcd60e51b815260206004820152601d60248201527f426974636f696e52656c61793a207a65726f206261736520717565727900000060448201526064016106ae565b600a55565b600081816117e7816110de565b506118006050601886901c6001600160601b0316613e86565b6001600160601b031615611816576111096112c8565b6111236011611116565b61182f62ffffff19831661112d565b6118a15760405162461bcd60e51b815260206004820152603960248201527f426974636f696e52656c61793a20686561646572206172726179206c656e677460448201527f68206d75737420626520646976697369626c652062792038300000000000000060648201526084016106ae565b6118b062ffffff19821661112d565b61190a5760405162461bcd60e51b815260206004820152602560248201527f426974636f696e52656c61793a20616e63686f72206d75737420626520383020604482015264627974657360d81b60648201526084016106ae565b5050565b60008061192062ffffff19861661113a565b9050600061192d826116d9565b9050600061194f61194462ffffff198816836128d6565b62ffffff1916612912565b9050848061196a57508061196862ffffff198916612912565b145b6119d15760405162461bcd60e51b815260206004820152603260248201527f426974636f696e52656c61793a20756e657870656374656420726574617267656044820152711d081bdb88195e1d195c9b985b0818d85b1b60721b60648201526084016106ae565b6004546005546119e2846001613bfd565b6119ec9190613bfd565b11611a495760405162461bcd60e51b815260206004820152602760248201527f426974636f696e52656c61793a20626c6f636b206865616465727320617265206044820152661d1bdbc81bdb1960ca1b60648201526084016106ae565b60008060005b611a67605060188b901c6001600160601b0316613c54565b6001600160601b0316811015611d9d576000611a8962ffffff198b16836128d6565b9050611a958287613bfd565b611aa0906001613bfd565b9350611ab162ffffff19821661113a565b60008181526010602052604090205490935015611b2b5760405162461bcd60e51b815260206004820152603260248201527f426974636f696e52656c61793a2074686520626c6f636b2068656164657220656044820152717869737473206f6e207468652072656c617960701b60648201526084016106ae565b8880611b415750611b3e6107e085613e72565b15155b611bc75760405162461bcd60e51b815260206004820152604b60248201527f426974636f696e52656c61793a20686561646572732073686f756c642062652060448201527f7375626d69747465642062792063616c6c696e6720616464486561646572735760648201526a1a5d1a14995d185c99d95d60aa1b608482015260a4016106ae565b84611bd762ffffff198316612912565b14611c365760405162461bcd60e51b815260206004820152602960248201527f426974636f696e52656c61793a20746172676574206368616e67656420756e65604482015268787065637465646c7960b81b60648201526084016106ae565b611c4662ffffff198216886129de565b611caf5760405162461bcd60e51b815260206004820152603460248201527f426974636f696e52656c61793a206865616465727320646f206e6f7420666f726044820152733690309031b7b739b4b9ba32b73a1031b430b4b760611b60648201526084016106ae565b84611cb984612a01565b1115611d195760405162461bcd60e51b815260206004820152602960248201527f426974636f696e52656c61793a2068656164657220776f726b20697320696e736044820152681d59999a58da595b9d60ba1b60648201526084016106ae565b60008381526010602090815260408083208a905560119091529020849055336001600160a01b031687857ffb8fff3e2daa665d496373ced291b62aba4162f24632a1597e286621016e9a1f86604051611d7491815260200190565b60405180910390a4611d868185612b3b565b829650508080611d9590613e57565b915050611a4f565b5060019998505050505050505050565b611dbc62ffffff19841661112d565b8015611dd25750611dd262ffffff19831661112d565b8015611de85750611de862ffffff19821661112d565b611e5a5760405162461bcd60e51b815260206004820152603c60248201527f426974636f696e52656c61793a2062616420617267732e20436865636b20686560448201527f6164657220616e642061727261792062797465206c656e677468732e0000000060648201526084016106ae565b505050565b600080611e79611e7462ffffff19871661113a565b6116d9565b90506000611e8f611e7462ffffff19871661113a565b9050611e9d6107e082613e72565b6107df14611f275760405162461bcd60e51b815260206004820152604b60248201527f426974636f696e52656c61793a206d7573742070726f7669646520746865206c60448201527f61737420686561646572206f662074686520636c6f73696e672064696666696360648201526a1d5b1d1e481c195c9a5bd960aa1b608482015260a4016106ae565b611f33826107df613bfd565b8114611fa05760405162461bcd60e51b815260206004820152603660248201527f426974636f696e52656c61793a206d7573742070726f766964652065786163746044820152751b1e480c48191a59999a58dd5b1d1e481c195c9a5bd960521b60648201526084016106ae565b611faf62ffffff198616612cb7565b611fbe62ffffff198816612cb7565b146120295760405162461bcd60e51b815260206004820152603560248201527f426974636f696e52656c61793a20706572696f642068656164657220646966666044820152740d2c6ead8e8d2cae640c8de40dcdee840dac2e8c6d605b1b60648201526084016106ae565b600061203b62ffffff198616826128d6565b9050600061204e62ffffff198316612912565b9050600061209361206462ffffff198b16612912565b61207362ffffff198c16612cd7565b63ffffffff1661208862ffffff198c16612cd7565b63ffffffff16612cf9565b905081818316146120f65760405162461bcd60e51b815260206004820152602760248201527f426974636f696e52656c61793a20696e76616c696420726574617267657420706044820152661c9bdd9a59195960ca1b60648201526084016106ae565b6121028888600161190e565b9998505050505050505050565b60075460408051918252602082018390527f1957bdf4f6fe279cd1cb63c41461020488cecbdf8721d1a1c960bc57c7cddce8910160405180910390a16127108111156121a95760405162461bcd60e51b8152602060048201526024808201527f426974636f696e52656c61793a2072656c6179206665652069732061626f7665604482015263040dac2f60e31b60648201526084016106ae565b600755565b60085460408051918252602082018390527f7a20e935d503f4d2565dbc88569bbe136c1e2a59da068a1d1286f04512ecfff3910160405180910390a1600855565b60025460ff166122385760405162461bcd60e51b815260206004820152601460248201527314185d5cd8589b194e881b9bdd081c185d5cd95960621b60448201526064016106ae565b6002805460ff191690557f5db9ee0a495bf2e6ff9c91a7834c1ba4fdd244a5e8aa4e537bd38aeae4b073aa3361162b565b60055460408051918252602082018390527fe7ff4c9746f87ab86154b3cb3bb52e1647f016783ae4e195496258eaa884c296910160405180910390a16000811180156122b757506101b08111155b6123145760405162461bcd60e51b815260206004820152602860248201527f426974636f696e52656c61793a20696e76616c69642066696e616c697a6174696044820152676f6e20706172616d60c01b60648201526084016106ae565b600555565b600082815b8381101561235c578582141561233957600192505050610682565b60009182526010602052604090912054908061235481613e57565b91505061231e565b50600095945050505050565b60065460408051918252602082018390527fe43de8c98a3401a046e4ea741059d335faa482e1262eb6a888a2ca2a1da3d474910160405180910390a1600655565b6000612710600c546009546007546127106123c49190613bfd565b856008546123d29190613d8e565b6123dc9190613d8e565b6123e69190613d8e565b6123f09190613c40565b610a339190613c40565b600d54604080516001600160a01b03928316815291831660208301527ffd88adf2dc0ac6ee5960f2f4273f25017bab8b5efa8889b3cf085ce645c293b2910160405180910390a1600d80546001600160a01b0319166001600160a01b0392909216919091179055565b600080546001600160a01b038381166001600160a01b0319831681178455604051919092169283917f8be0079c531659141344cd1fd0a4f28419497f9722a3daafe3b4186f6b6457e09190a35050565b6000806124c08385613bfd565b90506040518111156124d0575060005b806124e25762ffffff19915050610682565b5050606092831b9190911790911b1760181b90565b60008164ffffffffff1661250b8460d81c90565b64ffffffffff16149392505050565b600080601f5b600f8160ff161115612578576000612539826008613dad565b60ff1685901c905061254a81612d8a565b61ffff16841793508160ff1660101461256557601084901b93505b50612571600182613ded565b9050612520565b50600f5b60ff8160ff1610156125c05760ff600882021684901c61259b81612d8a565b61ffff16831792508160ff166000146125b657601083901b92505b506000190161257c565b50915091565b606060006125d38661251a565b91505060006125e18661251a565b91505060006125ef8661251a565b91505060006125fd8661251a565b604080517f54797065644d656d566965772f696e646578202d204f76657272616e20746865602082015274040ecd2caee5c40a6d8d2c6ca40d2e640c2e84060f605b1b818301526001600160d01b031960d098891b811660558301526e040eed2e8d040d8cadccee8d04060f608b1b605b830181905297891b8116606a8301527f2e20417474656d7074656420746f20696e646578206174206f666673657420306070830152600f60fb1b609083015295881b861660918201526097810196909652951b90921660a68401525050601760f91b60ac8201528151808203608d01815260ad90910190915295945050505050565b804710156127405760405162461bcd60e51b815260206004820152601d60248201527f416464726573733a20696e73756666696369656e742062616c616e636500000060448201526064016106ae565b6000826001600160a01b03168260405160006040518083038185875af1925050503d806000811461278d576040519150601f19603f3d011682016040523d82523d6000602084013e612792565b606091505b5050905080611e5a5760405162461bcd60e51b815260206004820152603a60248201527f416464726573733a20756e61626c6520746f2073656e642076616c75652c207260448201527f6563697069656e74206d6179206861766520726576657274656400000000000060648201526084016106ae565b6000836014612817816110de565b5060006128326020601889901c6001600160601b0316613c54565b6001600160601b031690508061284d578588149350506115c9565b848860005b838110156128c657600061287961286a836020613d8e565b62ffffff198d169060206112e2565b9050612886600285613e72565b6001141561289f576128988184612dba565b92506128ac565b6128a98382612dba565b92505b5060019290921c91806128be81613e57565b915050612852565b5090961498975050505050505050565b60008260116128e4816110de565b5060006128f2856050613d8e565b905061290862ffffff1987168260506010612de6565b9695505050505050565b6000816010612920816110de565b50600061293662ffffff19861660486003612e56565b9050600261294d62ffffff198716604b6001612e6b565b116129a55760405162461bcd60e51b815260206004820152602260248201527f566965774254433a20696e76616c69642074617267657420646966666963756c604482015261747960f01b60648201526084016106ae565b600060036129bc62ffffff198816604b6001612e6b565b6129c69190613dd6565b90506129d481610100613cc0565b6129089083613d8e565b60008260106129ec816110de565b50836129f78661119c565b1495945050505050565b600881811c7eff00ff00ff00ff00ff00ff00ff00ff00ff00ff00ff00ff00ff00ff00ff00ff167fff00ff00ff00ff00ff00ff00ff00ff00ff00ff00ff00ff00ff00ff00ff00ff009290911b9190911617601081811c7dffff0000ffff0000ffff0000ffff0000ffff0000ffff0000ffff0000ffff167fffff0000ffff0000ffff0000ffff0000ffff0000ffff0000ffff0000ffff00009290911b9190911617602081811c7bffffffff00000000ffffffff00000000ffffffff00000000ffffffff167fffffffff00000000ffffffff00000000ffffffff00000000ffffffff000000009290911b9190911617604081811c77ffffffffffffffff0000000000000000ffffffffffffffff1677ffffffffffffffff0000000000000000ffffffffffffffff199290911b9190911617608081811c91901b1790565b600454600554612b4b9083613bfd565b11612ba65760405162461bcd60e51b815260206004820152602560248201527f426974636f696e52656c61793a20626c6f636b2068656164657220697320746f6044820152641bc81bdb1960da1b60648201526084016106ae565b6040805160a081018252600080825260208201819052918101829052606081018290526080810191909152612be062ffffff19841661113a565b8152612bf162ffffff19841661119c565b6020820152612c0562ffffff1984166111be565b6040820152336001600160a01b03908116606083019081523a608084019081526000858152600f602090815260408083208054600180820183559185529383902088516005909502019384559187015191830191909155850151600282015591516003830180546001600160a01b0319169190941617909255905160049182015554821115611e5a57600160046000828254612ca19190613bfd565b90915550612caf9050612e9b565b611e5a612ed0565b6000816010612cc5816110de565b50611123612cd285612912565b6131d5565b6000816010612ce5816110de565b5061112362ffffff19851660446004612e56565b600080612d068484613dd6565b9050612d16600462127500613c40565b811015612d2e57612d2b600462127500613c40565b90505b612d3c621275006004613d8e565b811115612d5457612d51621275006004613d8e565b90505b600081612d646201000088613c40565b612d6e9190613d8e565b9050612d7d6212750082613c40565b6129089062010000613d8e565b6000612d9c60048360ff16901c6131e6565b60ff161760081b62ffff0016612db1826131e6565b60ff1617919050565b600060405183815282602082015260208160408360025afa5060208160208360025afa50519392505050565b600080612dfc8660781c6001600160601b031690565b6001600160601b03169050612e1086613352565b84612e1b8784613bfd565b612e259190613bfd565b1115612e385762ffffff19915050610ec5565b612e428582613bfd565b90506129088364ffffffffff1682866124b3565b6000610ec5612e668585856112e2565b612a01565b6000612e78826020613ded565b612e83906008613dad565b60ff16612e918585856112e2565b901c949350505050565b600954600454612eab9190613e72565b6109f057600a54600b5410612ec257600b54612ec6565b600a545b600c556000600b55565b600554600354600454612ee39190613dd6565b106109f05760055460045460005b8215612f72576000828152600f60205260408120805483908110612f2557634e487b7160e01b600052603260045260246000fd5b9060005260206000209060050201600101549050612f4f81600185612f4a9190613dd6565b613393565b915083612f5b81613e40565b9450508280612f6990613e40565b93505050612ef1565b6000828152600f60205260409020805482908110612fa057634e487b7160e01b600052603260045260246000fd5b9060005260206000209060050201600f6000848152602001908152602001600020600081548110612fe157634e487b7160e01b600052603260045260246000fd5b600091825260208083208454600590930201918255600180850154818401556002808601549084015560038086015490840180546001600160a01b0319166001600160a01b039092169190911790556004948501549490920193909355848252600f9092526040902054111561305a5761305a82613411565b6000828152600f60205260408120805482916130af91839061308c57634e487b7160e01b600052603260045260246000fd5b60009182526020909120600360059092020101546001600160a01b0316856134b5565b6000868152600f60205260408120805493955091935090916130e157634e487b7160e01b600052603260045260246000fd5b6000918252602080832060036005909302019190910154868352600f9091526040822080546001600160a01b039092169287927f4fec6ffa2052e80db9daadc2384a8f634057472e28ea7f1bd3eebfc92b5b0f8e92919061315257634e487b7160e01b600052603260045260246000fd5b906000526020600020906005020160000154600f600089815260200190815260200160002060008154811061319757634e487b7160e01b600052603260045260246000fd5b600091825260209182902060016005909202010154604080519384529183015281018690526060810185905260800160405180910390a35050505050565b6000610a338261ffff60d01b613c40565b600060f08083179060ff82161415613202576030915050610a36565b8060ff1660f11415613218576031915050610a36565b8060ff1660f2141561322e576032915050610a36565b8060ff1660f31415613244576033915050610a36565b8060ff1660f4141561325a576034915050610a36565b8060ff1660f51415613270576035915050610a36565b8060ff1660f61415613286576036915050610a36565b8060ff1660f7141561329c576037915050610a36565b8060ff1660f814156132b2576038915050610a36565b8060ff1660f914156132c8576039915050610a36565b8060ff1660fa14156132de576061915050610a36565b8060ff1660fb14156132f4576062915050610a36565b8060ff1660fc141561330a576063915050610a36565b8060ff1660fd1415613320576064915050610a36565b8060ff1660fe1415613336576065915050610a36565b8060ff1660ff141561334c576066915050610a36565b50919050565b60006133678260181c6001600160601b031690565b61337a8360781c6001600160601b031690565b6133849190613c15565b6001600160601b031692915050565b6000805b6000838152600f602052604090205481101561340a576000838152600f602052604090208054829081106133db57634e487b7160e01b600052603260045260246000fd5b9060005260206000209060050201600001548414156133f8578091505b8061340281613e57565b915050613397565b5092915050565b6000818152600f602052604081205461342c90600190613dd6565b90505b801561190a576000828152600f6020526040902080548061346057634e487b7160e01b600052603160045260246000fd5b6000828152602081206005600019909301928302018181556001818101839055600282018390556003820180546001600160a01b031916905560049091019190915591556134ae9082613dd6565b905061342f565b60008060006127106007546127106134cd9190613bfd565b6000868152600f6020526040812080549091906134fa57634e487b7160e01b600052603260045260246000fd5b9060005260206000209060050201600401546008546135199190613d8e565b6135239190613d8e565b61352d9190613c40565b600d549091506000906001600160a01b0316156135c257600d546040516370a0823160e01b81523060048201526001600160a01b03909116906370a082319060240160206040518083038186803b15801561358757600080fd5b505afa15801561359b573d6000803e3d6000fd5b505050506040513d601f19601f820116820180604052508101906135bf9190613b00565b90505b600081600654111580156135d857506000600654115b156135fe57600654600d546135fa916001600160a01b039091169089906136b5565b5060015b6000834711801561360f5750600084115b15613668576040516001600160a01b038916908590600081818185875af1925050503d806000811461365d576040519150601f19603f3d011682016040523d82523d6000602084013e613662565b606091505b50909150505b801561368d578161367b57836000613680565b836006545b95509550505050506136ae565b8161369a576000806136a0565b60006006545b60ff90911696509450505050505b9250929050565b604080516001600160a01b03848116602483015260448083018590528351808403909101815260649092018352602080830180516001600160e01b031663a9059cbb60e01b17905283518085019094528084527f5361666545524332303a206c6f772d6c6576656c2063616c6c206661696c656490840152611e5a928692916000916137459185169084906137c2565b805190915015611e5a57808060200190518101906137639190613924565b611e5a5760405162461bcd60e51b815260206004820152602a60248201527f5361666545524332303a204552433230206f7065726174696f6e20646964206e6044820152691bdd081cdd58d8d9595960b21b60648201526084016106ae565b6060610ec5848460008585843b61381b5760405162461bcd60e51b815260206004820152601d60248201527f416464726573733a2063616c6c20746f206e6f6e2d636f6e747261637400000060448201526064016106ae565b600080866001600160a01b031685876040516138379190613b18565b60006040518083038185875af1925050503d8060008114613874576040519150601f19603f3d011682016040523d82523d6000602084013e613879565b606091505b50915091506115c682828660608315613893575081610682565b8251156138a35782518084602001fd5b8160405162461bcd60e51b81526004016106ae9190613b34565b60008083601f8401126138ce578182fd5b50813567ffffffffffffffff8111156138e5578182fd5b6020830191508360208285010111156136ae57600080fd5b60006020828403121561390e578081fd5b81356001600160a01b0381168114610682578182fd5b600060208284031215613935578081fd5b81518015158114610682578182fd5b600060208284031215613955578081fd5b5035919050565b600080600060608486031215613970578182fd5b505081359360208301359350604090920135919050565b60008060408385031215613999578182fd5b50508035926020909101359150565b6000806000806000608086880312156139bf578081fd5b8535945060208601359350604086013567ffffffffffffffff8111156139e3578182fd5b6139ef888289016138bd565b96999598509660600135949350505050565b60008060008060408587031215613a16578384fd5b843567ffffffffffffffff80821115613a2d578586fd5b613a39888389016138bd565b90965094506020870135915080821115613a51578384fd5b50613a5e878288016138bd565b95989497509550505050565b60008060008060008060608789031215613a82578081fd5b863567ffffffffffffffff80821115613a99578283fd5b613aa58a838b016138bd565b90985096506020890135915080821115613abd578283fd5b613ac98a838b016138bd565b90965094506040890135915080821115613ae1578283fd5b50613aee89828a016138bd565b979a9699509497509295939492505050565b600060208284031215613b11578081fd5b5051919050565b60008251613b2a818460208701613e10565b9190910192915050565b6000602082528251806020840152613b53816040850160208701613e10565b601f01601f19169190910160400192915050565b60208082526010908201526f14185d5cd8589b194e881c185d5cd95960821b604082015260600190565b6020808252818101527f4f776e61626c653a2063616c6c6572206973206e6f7420746865206f776e6572604082015260600190565b6020808252601f908201527f5265656e7472616e637947756172643a207265656e7472616e742063616c6c00604082015260600190565b60008219821115613c1057613c10613eac565b500190565b60006001600160601b03808316818516808303821115613c3757613c37613eac565b01949350505050565b600082613c4f57613c4f613ec2565b500490565b60006001600160601b0380841680613c6e57613c6e613ec2565b92169190910492915050565b80825b6001808611613c8c5750613cb7565b818704821115613c9e57613c9e613eac565b80861615613cab57918102915b9490941c938002613c7d565b94509492505050565b60006106826000198484600082613cd957506001610682565b81613ce657506000610682565b8160018114613cfc5760028114613d0657613d33565b6001915050610682565b60ff841115613d1757613d17613eac565b6001841b915084821115613d2d57613d2d613eac565b50610682565b5060208310610133831016604e8410600b8410161715613d66575081810a83811115613d6157613d61613eac565b610682565b613d738484846001613c7a565b808604821115613d8557613d85613eac565b02949350505050565b6000816000190483118215151615613da857613da8613eac565b500290565b600060ff821660ff84168160ff0481118215151615613dce57613dce613eac565b029392505050565b600082821015613de857613de8613eac565b500390565b600060ff821660ff841680821015613e0757613e07613eac565b90039392505050565b60005b83811015613e2b578181015183820152602001613e13565b83811115613e3a576000848401525b50505050565b600081613e4f57613e4f613eac565b506000190190565b6000600019821415613e6b57613e6b613eac565b5060010190565b600082613e8157613e81613ec2565b500690565b60006001600160601b0380841680613ea057613ea0613ec2565b92169190910692915050565b634e487b7160e01b600052601160045260246000fd5b634e487b7160e01b600052601260045260246000fdfea2646970667358221220d08bbe03372a8da8775ebf8aa6d2a79e73bf98a6ec1d9c5468ed3e807e6e7d3d64736f6c63430008020033",
  "devdoc": {
    "kind": "dev",
    "methods": {
      "addHeaders(bytes,bytes)": {
        "details": "We check integrity and consistency of the header chain",
        "params": {
          "_anchor": "The header immediately preceeding the new chain",
          "_headers": "A tightly-packed list of 80-byte Bitcoin headers"
        },
        "returns": {
          "_0": "True if successfully written, error otherwise"
        }
      },
      "addHeadersWithRetarget(bytes,bytes,bytes)": {
        "details": "Checks the retarget, the heights, and the linkage",
        "params": {
          "_headers": "A tightly-packed list of 80-byte Bitcoin headers",
          "_oldPeriodEndHeader": "The last header in the difficulty period being closed (anchor of new headers)",
          "_oldPeriodStartHeader": "The first header in the difficulty period being closed"
        },
        "returns": {
          "_0": "True if successfully written, error otherwise"
        }
      },
      "availableTDT()": {
        "returns": {
          "_0": "Amount of TDT available in Relay treasury"
        }
      },
      "availableTNT()": {
        "returns": {
          "_0": "Amount of target blockchain native token available in Relay treasury"
        }
      },
      "checkTxProof(bytes32,uint256,bytes,uint256)": {
        "details": "Checks if the block is finalized, and Merkle proof is correct",
        "params": {
          "_blockHeight": "Block height of the desired tx",
          "_index": "The index of the tx in Merkle tree",
          "_intermediateNodes": "Part of the Merkle tree from the tx to the root (Merkle proof) in LE form",
          "_txid": "Desired tx Id in LE form"
        },
        "returns": {
          "_0": "True if the provided tx is confirmed on the source blockchain, False otherwise"
        }
      },
      "constructor": {
        "params": {
          "_TeleportDAOToken": "The address of the TeleportDAO ERC20 token contract",
          "_genesisHeader": "The starting header",
          "_height": "The starting height",
          "_periodStart": "The hash of the first header in the genesis epoch"
        }
      },
      "findAncestor(bytes32,uint256)": {
        "details": "Will fail if the header is unknown",
        "params": {
          "_hash": "The header hash to search for"
        },
        "returns": {
          "_0": "The height of the header, or error if unknown"
        }
      },
      "findHeight(bytes32)": {
        "details": "Will fail if the header is unknown",
        "params": {
          "_hash": "The header hash to search for"
        },
        "returns": {
          "_0": "The height of the header, or error if unknown"
        }
      },
      "getBlockHeaderFee(uint256,uint256)": {
        "params": {
          "_height": "The height of the desired block header",
          "_index": "The index of the desired block header in that height"
        },
        "returns": {
          "_0": "Block header's fee price for a query"
        }
      },
      "getBlockHeaderHash(uint256,uint256)": {
        "params": {
          "_height": "The height of the desired block header",
          "_index": "The index of the desired block header in that height"
        },
        "returns": {
          "_0": "Block header's hash"
        }
      },
      "getNumberOfSubmittedHeaders(uint256)": {
        "details": "This shows the number of temporary forks in that specific height",
        "params": {
          "_height": "The desired height of the blockchain"
        },
        "returns": {
          "_0": "Number of block headers stored in the same height"
        }
      },
      "isAncestor(bytes32,bytes32,uint256)": {
        "details": "Limit the amount of lookups (and thus gas usage) with _limit",
        "params": {
          "_ancestor": "The prospective ancestor",
          "_descendant": "The descendant to check",
          "_limit": "The maximum number of blocks to check"
        },
        "returns": {
          "_0": "true if ancestor is at most limit blocks lower than descendant, otherwise false"
        }
      },
      "owner()": {
        "details": "Returns the address of the current owner."
      },
      "ownerAddHeaders(bytes,bytes)": {
        "details": "Works like the other addHeaders; we use this function when relay is paused then only owner can add the new blocks, like when a fork happens",
        "params": {
          "_anchor": "The header immediately preceeding the new chain",
          "_headers": "A tightly-packed list of 80-byte Bitcoin headers"
        },
        "returns": {
          "_0": "True if successfully written, error otherwise"
        }
      },
      "ownerAddHeadersWithRetarget(bytes,bytes,bytes)": {
        "details": "Works like the other addHeadersWithRetarget; we use this function when relay is paused then only owner can add the new blocks, like when a fork happens",
        "params": {
          "_headers": "A tightly-packed list of 80-byte Bitcoin headers",
          "_oldPeriodEndHeader": "The last header in the difficulty period being closed (anchor of new headers)",
          "_oldPeriodStartHeader": "The first header in the difficulty period being closed"
        },
        "returns": {
          "_0": "True if successfully written, error otherwise"
        }
      },
      "pauseRelay()": {
        "details": "Only functions with whenPaused modifier can be called"
      },
      "paused()": {
        "details": "Returns true if the contract is paused, and false otherwise."
      },
      "renounceOwnership()": {
        "details": "Leaves the contract without owner. It will not be possible to call `onlyOwner` functions anymore. Can only be called by the current owner. NOTE: Renouncing ownership will leave the contract without an owner, thereby removing any functionality that is only available to the owner."
      },
      "setBaseQueries(uint256)": {
        "params": {
          "_baseQueries": "The base amount of queries we assume in each epoch                                     (This is for preventing user fees to grow significantly)"
        }
      },
      "setEpochLength(uint256)": {
        "params": {
          "_epochLength": "The length of epochs for estimating the user queries hence their fees"
        }
      },
      "setFinalizationParameter(uint256)": {
        "details": "This might change if finalization rule of the source chain gets updated",
        "params": {
          "_finalizationParameter": "The finalization parameter of the source chain"
        }
      },
      "setRelayerPercentageFee(uint256)": {
        "details": "This is updated when we want to change the Relayer reward",
        "params": {
          "_relayerPercentageFee": "Ratio > 1 that determines percentage of reward to the Relayer"
        }
      },
      "setRewardAmountInTDT(uint256)": {
        "details": "This award is for the relayer who has a finalized block header",
        "params": {
          "_rewardAmountInTDT": "The reward amount in TDT"
        }
      },
      "setSubmissionGasUsed(uint256)": {
        "details": "This is updated when the smart contract changes the way of getting block headers",
        "params": {
          "_submissionGasUsed": "The gas used for submitting one block header"
        }
      },
      "setTeleportDAOToken(address)": {
        "details": "This is updated when we want to change the teleportDAO token ",
        "params": {
          "_TeleportDAOToken": "The teleportDAO token address"
        }
      },
      "transferOwnership(address)": {
        "details": "Transfers ownership of the contract to a new account (`newOwner`). Can only be called by the current owner."
      },
      "unpauseRelay()": {
        "details": "Only functions with whenNotPaused modifier can be called"
      }
    },
    "version": 1
  },
  "userdoc": {
    "events": {
      "BlockAdded(uint256,bytes32,bytes32,address)": {
        "notice": "Emits when a block header is added"
      },
      "BlockFinalized(uint256,bytes32,bytes32,address,uint256,uint256)": {
        "notice": "Emits when a block header gets finalized"
      },
      "NewBaseQueries(uint256,uint256)": {
        "notice": "Emits when changes made to base queries"
      },
      "NewEpochLength(uint256,uint256)": {
        "notice": "Emits when changes made to epoch length"
      },
      "NewFinalizationParameter(uint256,uint256)": {
        "notice": "Emits when changes made to finalization parameter"
      },
      "NewRelayerPercentageFee(uint256,uint256)": {
        "notice": "Emits when changes made to relayer percentage fee"
      },
      "NewRewardAmountInTDT(uint256,uint256)": {
        "notice": "Emits when changes made to reward amount in TDT"
      },
      "NewSubmissionGasUsed(uint256,uint256)": {
        "notice": "Emits when changes made to submission gas used"
      },
      "NewTeleportDAOToken(address,address)": {
        "notice": "Emits when changes made to teleportDAO token"
      }
    },
    "kind": "user",
    "methods": {
      "addHeaders(bytes,bytes)": {
        "notice": "Adds headers to storage after validating"
      },
      "addHeadersWithRetarget(bytes,bytes,bytes)": {
        "notice": "Adds headers to storage, performs additional validation of retarget"
      },
      "availableTDT()": {
        "notice": "Getter for available TDT in treasury"
      },
      "availableTNT()": {
        "notice": "Getter for available target native token in treasury"
      },
      "checkTxProof(bytes32,uint256,bytes,uint256)": {
        "notice": "Checks if a tx is included and finalized on the source blockchain"
      },
      "constructor": {
        "notice": "Gives a starting point for the relay"
      },
      "findAncestor(bytes32,uint256)": {
        "notice": "Finds an ancestor for a block by its hash"
      },
      "findHeight(bytes32)": {
        "notice": "Finds the height of a header by its hash"
      },
      "getBlockHeaderFee(uint256,uint256)": {
        "notice": "Getter for a specific block header's fee price for a query"
      },
      "getBlockHeaderHash(uint256,uint256)": {
        "notice": "Getter for a specific block header's hash in the stored chain"
      },
      "getNumberOfSubmittedHeaders(uint256)": {
        "notice": "Getter for the number of block headers in the same height"
      },
      "isAncestor(bytes32,bytes32,uint256)": {
        "notice": "Checks if a hash is an ancestor of the current one"
      },
      "ownerAddHeaders(bytes,bytes)": {
        "notice": "Adds headers to storage after validating"
      },
      "ownerAddHeadersWithRetarget(bytes,bytes,bytes)": {
        "notice": "Adds headers to storage, performs additional validation of retarget"
      },
      "pauseRelay()": {
        "notice": "Pause the relay"
      },
      "setBaseQueries(uint256)": {
        "notice": "External setter for baseQueries"
      },
      "setEpochLength(uint256)": {
        "notice": "External setter for epochLength"
      },
      "setFinalizationParameter(uint256)": {
        "notice": "External setter for finalizationParameter"
      },
      "setRelayerPercentageFee(uint256)": {
        "notice": "External setter for relayerPercentageFee"
      },
      "setRewardAmountInTDT(uint256)": {
        "notice": "External setter for rewardAmountInTDT"
      },
      "setSubmissionGasUsed(uint256)": {
        "notice": "External setter for submissionGasUsed"
      },
      "setTeleportDAOToken(address)": {
        "notice": "External setter for teleportDAO token"
      },
      "unpauseRelay()": {
        "notice": "Unpause the relay"
      }
    },
    "version": 1
  },
  "storageLayout": {
    "storage": [
      {
        "astId": 807,
        "contract": "contracts/relay/BitcoinRelay.sol:BitcoinRelay",
        "label": "_owner",
        "offset": 0,
        "slot": "0",
        "type": "t_address"
      },
      {
        "astId": 1634,
        "contract": "contracts/relay/BitcoinRelay.sol:BitcoinRelay",
        "label": "_status",
        "offset": 0,
        "slot": "1",
        "type": "t_uint256"
      },
      {
        "astId": 1549,
        "contract": "contracts/relay/BitcoinRelay.sol:BitcoinRelay",
        "label": "_paused",
        "offset": 0,
        "slot": "2",
        "type": "t_bool"
      },
      {
        "astId": 15607,
        "contract": "contracts/relay/BitcoinRelay.sol:BitcoinRelay",
        "label": "initialHeight",
        "offset": 0,
        "slot": "3",
        "type": "t_uint256"
      },
      {
        "astId": 15610,
        "contract": "contracts/relay/BitcoinRelay.sol:BitcoinRelay",
        "label": "lastSubmittedHeight",
        "offset": 0,
        "slot": "4",
        "type": "t_uint256"
      },
      {
        "astId": 15613,
        "contract": "contracts/relay/BitcoinRelay.sol:BitcoinRelay",
        "label": "finalizationParameter",
        "offset": 0,
        "slot": "5",
        "type": "t_uint256"
      },
      {
        "astId": 15616,
        "contract": "contracts/relay/BitcoinRelay.sol:BitcoinRelay",
        "label": "rewardAmountInTDT",
        "offset": 0,
        "slot": "6",
        "type": "t_uint256"
      },
      {
        "astId": 15619,
        "contract": "contracts/relay/BitcoinRelay.sol:BitcoinRelay",
        "label": "relayerPercentageFee",
        "offset": 0,
        "slot": "7",
        "type": "t_uint256"
      },
      {
        "astId": 15622,
        "contract": "contracts/relay/BitcoinRelay.sol:BitcoinRelay",
        "label": "submissionGasUsed",
        "offset": 0,
        "slot": "8",
        "type": "t_uint256"
      },
      {
        "astId": 15625,
        "contract": "contracts/relay/BitcoinRelay.sol:BitcoinRelay",
        "label": "epochLength",
        "offset": 0,
        "slot": "9",
        "type": "t_uint256"
      },
      {
        "astId": 15628,
        "contract": "contracts/relay/BitcoinRelay.sol:BitcoinRelay",
        "label": "baseQueries",
        "offset": 0,
        "slot": "10",
        "type": "t_uint256"
      },
      {
        "astId": 15631,
        "contract": "contracts/relay/BitcoinRelay.sol:BitcoinRelay",
        "label": "currentEpochQueries",
        "offset": 0,
        "slot": "11",
        "type": "t_uint256"
      },
      {
        "astId": 15634,
        "contract": "contracts/relay/BitcoinRelay.sol:BitcoinRelay",
        "label": "lastEpochQueries",
        "offset": 0,
        "slot": "12",
        "type": "t_uint256"
      },
      {
        "astId": 15637,
        "contract": "contracts/relay/BitcoinRelay.sol:BitcoinRelay",
        "label": "TeleportDAOToken",
        "offset": 0,
        "slot": "13",
        "type": "t_address"
      },
      {
        "astId": 15640,
        "contract": "contracts/relay/BitcoinRelay.sol:BitcoinRelay",
        "label": "relayGenesisHash",
        "offset": 0,
        "slot": "14",
        "type": "t_bytes32"
      },
      {
        "astId": 15646,
        "contract": "contracts/relay/BitcoinRelay.sol:BitcoinRelay",
        "label": "chain",
        "offset": 0,
        "slot": "15",
        "type": "t_mapping(t_uint256,t_array(t_struct(blockHeader)17478_storage)dyn_storage)"
      },
      {
        "astId": 15650,
        "contract": "contracts/relay/BitcoinRelay.sol:BitcoinRelay",
        "label": "previousBlock",
        "offset": 0,
        "slot": "16",
        "type": "t_mapping(t_bytes32,t_bytes32)"
      },
      {
        "astId": 15654,
        "contract": "contracts/relay/BitcoinRelay.sol:BitcoinRelay",
        "label": "blockHeight",
        "offset": 0,
        "slot": "17",
        "type": "t_mapping(t_bytes32,t_uint256)"
      }
    ],
    "types": {
      "t_address": {
        "encoding": "inplace",
        "label": "address",
        "numberOfBytes": "20"
      },
      "t_array(t_struct(blockHeader)17478_storage)dyn_storage": {
        "base": "t_struct(blockHeader)17478_storage",
        "encoding": "dynamic_array",
        "label": "struct IBitcoinRelay.blockHeader[]",
        "numberOfBytes": "32"
      },
      "t_bool": {
        "encoding": "inplace",
        "label": "bool",
        "numberOfBytes": "1"
      },
      "t_bytes32": {
        "encoding": "inplace",
        "label": "bytes32",
        "numberOfBytes": "32"
      },
      "t_mapping(t_bytes32,t_bytes32)": {
        "encoding": "mapping",
        "key": "t_bytes32",
        "label": "mapping(bytes32 => bytes32)",
        "numberOfBytes": "32",
        "value": "t_bytes32"
      },
      "t_mapping(t_bytes32,t_uint256)": {
        "encoding": "mapping",
        "key": "t_bytes32",
        "label": "mapping(bytes32 => uint256)",
        "numberOfBytes": "32",
        "value": "t_uint256"
      },
      "t_mapping(t_uint256,t_array(t_struct(blockHeader)17478_storage)dyn_storage)": {
        "encoding": "mapping",
        "key": "t_uint256",
        "label": "mapping(uint256 => struct IBitcoinRelay.blockHeader[])",
        "numberOfBytes": "32",
        "value": "t_array(t_struct(blockHeader)17478_storage)dyn_storage"
      },
      "t_struct(blockHeader)17478_storage": {
        "encoding": "inplace",
        "label": "struct IBitcoinRelay.blockHeader",
        "members": [
          {
            "astId": 17469,
            "contract": "contracts/relay/BitcoinRelay.sol:BitcoinRelay",
            "label": "selfHash",
            "offset": 0,
            "slot": "0",
            "type": "t_bytes32"
          },
          {
            "astId": 17471,
            "contract": "contracts/relay/BitcoinRelay.sol:BitcoinRelay",
            "label": "parentHash",
            "offset": 0,
            "slot": "1",
            "type": "t_bytes32"
          },
          {
            "astId": 17473,
            "contract": "contracts/relay/BitcoinRelay.sol:BitcoinRelay",
            "label": "merkleRoot",
            "offset": 0,
            "slot": "2",
            "type": "t_bytes32"
          },
          {
            "astId": 17475,
            "contract": "contracts/relay/BitcoinRelay.sol:BitcoinRelay",
            "label": "relayer",
            "offset": 0,
            "slot": "3",
            "type": "t_address"
          },
          {
            "astId": 17477,
            "contract": "contracts/relay/BitcoinRelay.sol:BitcoinRelay",
            "label": "gasPrice",
            "offset": 0,
            "slot": "4",
            "type": "t_uint256"
          }
        ],
        "numberOfBytes": "160"
      },
      "t_uint256": {
        "encoding": "inplace",
        "label": "uint256",
        "numberOfBytes": "32"
      }
    }
  }
}