{
  "address": "0xc6C5c26127e398315878a7C694bf0AdbeA878cd4",
  "abi": [
    {
      "anonymous": false,
      "inputs": [
        {
          "indexed": true,
          "internalType": "address",
          "name": "userTargetAddress",
          "type": "address"
        },
        {
          "indexed": true,
          "internalType": "address",
          "name": "_lockerTargetAddress",
          "type": "address"
        },
        {
          "indexed": false,
          "internalType": "bytes",
          "name": "lockerLockingScript",
          "type": "bytes"
        },
        {
          "indexed": false,
          "internalType": "uint256",
          "name": "requestIdOfLocker",
          "type": "uint256"
        }
      ],
      "name": "BurnDispute",
      "type": "event"
    },
    {
      "anonymous": false,
      "inputs": [
        {
          "indexed": true,
          "internalType": "address",
          "name": "userTargetAddress",
          "type": "address"
        },
        {
          "indexed": false,
          "internalType": "bytes",
          "name": "userScript",
          "type": "bytes"
        },
        {
          "indexed": false,
          "internalType": "enum ScriptTypes",
          "name": "scriptType",
          "type": "uint8"
        },
        {
          "indexed": false,
          "internalType": "uint256",
          "name": "inputAmount",
          "type": "uint256"
        },
        {
          "indexed": false,
          "internalType": "address",
          "name": "inputToken",
          "type": "address"
        },
        {
          "indexed": false,
          "internalType": "uint256",
          "name": "teleBTCAmount",
          "type": "uint256"
        },
        {
          "indexed": false,
          "internalType": "uint256",
          "name": "burntAmount",
          "type": "uint256"
        },
        {
          "indexed": false,
          "internalType": "address",
          "name": "lockerTargetAddress",
          "type": "address"
        },
        {
          "indexed": false,
          "internalType": "uint256",
          "name": "requestIdOfLocker",
          "type": "uint256"
        },
        {
          "indexed": true,
          "internalType": "uint256",
          "name": "deadline",
          "type": "uint256"
        }
      ],
      "name": "CCBurn",
      "type": "event"
    },
    {
      "anonymous": false,
      "inputs": [
        {
          "indexed": false,
          "internalType": "uint8",
          "name": "version",
          "type": "uint8"
        }
      ],
      "name": "Initialized",
      "type": "event"
    },
    {
      "anonymous": false,
      "inputs": [
        {
          "indexed": false,
          "internalType": "address",
          "name": "_lockerTargetAddress",
          "type": "address"
        },
        {
          "indexed": false,
          "internalType": "bytes",
          "name": "lockerLockingScript",
          "type": "bytes"
        },
        {
          "indexed": false,
          "internalType": "uint256",
          "name": "_blockNumber",
          "type": "uint256"
        },
        {
          "indexed": false,
          "internalType": "bytes32",
          "name": "txId",
          "type": "bytes32"
        },
        {
          "indexed": false,
          "internalType": "uint256",
          "name": "amount",
          "type": "uint256"
        }
      ],
      "name": "LockerDispute",
      "type": "event"
    },
    {
      "anonymous": false,
      "inputs": [
        {
          "indexed": false,
          "internalType": "uint256",
          "name": "oldBitcoinFee",
          "type": "uint256"
        },
        {
          "indexed": false,
          "internalType": "uint256",
          "name": "newBitcoinFee",
          "type": "uint256"
        }
      ],
      "name": "NewBitcoinFee",
      "type": "event"
    },
    {
      "anonymous": false,
      "inputs": [
        {
          "indexed": false,
          "internalType": "address",
          "name": "oldLockers",
          "type": "address"
        },
        {
          "indexed": false,
          "internalType": "address",
          "name": "newLockers",
          "type": "address"
        }
      ],
      "name": "NewLockers",
      "type": "event"
    },
    {
      "anonymous": false,
      "inputs": [
        {
          "indexed": false,
          "internalType": "uint256",
          "name": "oldProtocolPercentageFee",
          "type": "uint256"
        },
        {
          "indexed": false,
          "internalType": "uint256",
          "name": "newProtocolPercentageFee",
          "type": "uint256"
        }
      ],
      "name": "NewProtocolPercentageFee",
      "type": "event"
    },
    {
      "anonymous": false,
      "inputs": [
        {
          "indexed": false,
          "internalType": "address",
          "name": "oldRelay",
          "type": "address"
        },
        {
          "indexed": false,
          "internalType": "address",
          "name": "newRelay",
          "type": "address"
        }
      ],
      "name": "NewRelay",
      "type": "event"
    },
    {
      "anonymous": false,
      "inputs": [
        {
          "indexed": false,
          "internalType": "uint256",
          "name": "oldSlasherPercentageFee",
          "type": "uint256"
        },
        {
          "indexed": false,
          "internalType": "uint256",
          "name": "newSlasherPercentageFee",
          "type": "uint256"
        }
      ],
      "name": "NewSlasherPercentageFee",
      "type": "event"
    },
    {
      "anonymous": false,
      "inputs": [
        {
          "indexed": false,
          "internalType": "address",
          "name": "oldTeleBTC",
          "type": "address"
        },
        {
          "indexed": false,
          "internalType": "address",
          "name": "newTeleBTC",
          "type": "address"
        }
      ],
      "name": "NewTeleBTC",
      "type": "event"
    },
    {
      "anonymous": false,
      "inputs": [
        {
          "indexed": false,
          "internalType": "uint256",
          "name": "oldTransferDeadline",
          "type": "uint256"
        },
        {
          "indexed": false,
          "internalType": "uint256",
          "name": "newTransferDeadline",
          "type": "uint256"
        }
      ],
      "name": "NewTransferDeadline",
      "type": "event"
    },
    {
      "anonymous": false,
      "inputs": [
        {
          "indexed": false,
          "internalType": "address",
          "name": "oldTreasury",
          "type": "address"
        },
        {
          "indexed": false,
          "internalType": "address",
          "name": "newTreasury",
          "type": "address"
        }
      ],
      "name": "NewTreasury",
      "type": "event"
    },
    {
      "anonymous": false,
      "inputs": [
        {
          "indexed": true,
          "internalType": "address",
          "name": "previousOwner",
          "type": "address"
        },
        {
          "indexed": true,
          "internalType": "address",
          "name": "newOwner",
          "type": "address"
        }
      ],
      "name": "OwnershipTransferred",
      "type": "event"
    },
    {
      "anonymous": false,
      "inputs": [
        {
          "indexed": true,
          "internalType": "address",
          "name": "lockerTargetAddress",
          "type": "address"
        },
        {
          "indexed": false,
          "internalType": "uint256",
          "name": "requestIdOfLocker",
          "type": "uint256"
        },
        {
          "indexed": false,
          "internalType": "bytes32",
          "name": "bitcoinTxId",
          "type": "bytes32"
        },
        {
          "indexed": false,
          "internalType": "uint256",
          "name": "bitcoinTxOutputIndex",
          "type": "uint256"
        }
      ],
      "name": "PaidCCBurn",
      "type": "event"
    },
    {
      "inputs": [],
      "name": "bitcoinFee",
      "outputs": [
        {
          "internalType": "uint256",
          "name": "",
          "type": "uint256"
        }
      ],
      "stateMutability": "view",
      "type": "function"
    },
    {
      "inputs": [
        {
          "internalType": "bytes4",
          "name": "_version",
          "type": "bytes4"
        },
        {
          "internalType": "bytes",
          "name": "_vin",
          "type": "bytes"
        },
        {
          "internalType": "bytes",
          "name": "_vout",
          "type": "bytes"
        },
        {
          "internalType": "bytes4",
          "name": "_locktime",
          "type": "bytes4"
        },
        {
          "internalType": "uint256",
          "name": "_blockNumber",
          "type": "uint256"
        },
        {
          "internalType": "bytes",
          "name": "_intermediateNodes",
          "type": "bytes"
        },
        {
          "internalType": "uint256",
          "name": "_index",
          "type": "uint256"
        },
        {
          "internalType": "bytes",
          "name": "_lockerLockingScript",
          "type": "bytes"
        },
        {
          "internalType": "uint256[]",
          "name": "_burnReqIndexes",
          "type": "uint256[]"
        },
        {
          "internalType": "uint256[]",
          "name": "_voutIndexes",
          "type": "uint256[]"
        }
      ],
      "name": "burnProof",
      "outputs": [
        {
          "internalType": "bool",
          "name": "",
          "type": "bool"
        }
      ],
      "stateMutability": "payable",
      "type": "function"
    },
    {
      "inputs": [
        {
          "internalType": "address",
          "name": "",
          "type": "address"
        }
      ],
      "name": "burnRequestCounter",
      "outputs": [
        {
          "internalType": "uint256",
          "name": "",
          "type": "uint256"
        }
      ],
      "stateMutability": "view",
      "type": "function"
    },
    {
      "inputs": [
        {
          "internalType": "address",
          "name": "",
          "type": "address"
        },
        {
          "internalType": "uint256",
          "name": "",
          "type": "uint256"
        }
      ],
      "name": "burnRequests",
      "outputs": [
        {
          "internalType": "uint256",
          "name": "amount",
          "type": "uint256"
        },
        {
          "internalType": "uint256",
          "name": "burntAmount",
          "type": "uint256"
        },
        {
          "internalType": "address",
          "name": "sender",
          "type": "address"
        },
        {
          "internalType": "bytes",
          "name": "userScript",
          "type": "bytes"
        },
        {
          "internalType": "uint256",
          "name": "deadline",
          "type": "uint256"
        },
        {
          "internalType": "bool",
          "name": "isTransferred",
          "type": "bool"
        },
        {
          "internalType": "enum ScriptTypes",
          "name": "scriptType",
          "type": "uint8"
        },
        {
          "internalType": "uint256",
          "name": "requestIdOfLocker",
          "type": "uint256"
        }
      ],
      "stateMutability": "view",
      "type": "function"
    },
    {
      "inputs": [
        {
          "internalType": "uint256",
          "name": "_amount",
          "type": "uint256"
        },
        {
          "internalType": "bytes",
          "name": "_userScript",
          "type": "bytes"
        },
        {
          "internalType": "enum ScriptTypes",
          "name": "_scriptType",
          "type": "uint8"
        },
        {
          "internalType": "bytes",
          "name": "_lockerLockingScript",
          "type": "bytes"
        }
      ],
      "name": "ccBurn",
      "outputs": [
        {
          "internalType": "uint256",
          "name": "",
          "type": "uint256"
        }
      ],
      "stateMutability": "nonpayable",
      "type": "function"
    },
    {
      "inputs": [
        {
          "internalType": "address",
          "name": "_exchangeConnector",
          "type": "address"
        },
        {
          "internalType": "uint256[]",
          "name": "_amounts",
          "type": "uint256[]"
        },
        {
          "internalType": "bool",
          "name": "_isFixedToken",
          "type": "bool"
        },
        {
          "internalType": "address[]",
          "name": "_path",
          "type": "address[]"
        },
        {
          "internalType": "uint256",
          "name": "_deadline",
          "type": "uint256"
        },
        {
          "internalType": "bytes",
          "name": "_userScript",
          "type": "bytes"
        },
        {
          "internalType": "enum ScriptTypes",
          "name": "_scriptType",
          "type": "uint8"
        },
        {
          "internalType": "bytes",
          "name": "_lockerLockingScript",
          "type": "bytes"
        }
      ],
      "name": "ccExchangeAndBurn",
      "outputs": [
        {
          "internalType": "uint256",
          "name": "",
          "type": "uint256"
        }
      ],
      "stateMutability": "nonpayable",
      "type": "function"
    },
    {
      "inputs": [
        {
          "internalType": "bytes",
          "name": "_lockerLockingScript",
          "type": "bytes"
        },
        {
          "internalType": "uint256[]",
          "name": "_indices",
          "type": "uint256[]"
        }
      ],
      "name": "disputeBurn",
      "outputs": [],
      "stateMutability": "nonpayable",
      "type": "function"
    },
    {
      "inputs": [
        {
          "internalType": "bytes",
          "name": "_lockerLockingScript",
          "type": "bytes"
        },
        {
          "internalType": "bytes4[]",
          "name": "_versions",
          "type": "bytes4[]"
        },
        {
          "internalType": "bytes",
          "name": "_inputVin",
          "type": "bytes"
        },
        {
          "internalType": "bytes",
          "name": "_inputVout",
          "type": "bytes"
        },
        {
          "internalType": "bytes",
          "name": "_outputVin",
          "type": "bytes"
        },
        {
          "internalType": "bytes",
          "name": "_outputVout",
          "type": "bytes"
        },
        {
          "internalType": "bytes4[]",
          "name": "_locktimes",
          "type": "bytes4[]"
        },
        {
          "internalType": "bytes",
          "name": "_inputIntermediateNodes",
          "type": "bytes"
        },
        {
          "internalType": "uint256[]",
          "name": "_indexesAndBlockNumbers",
          "type": "uint256[]"
        }
      ],
      "name": "disputeLocker",
      "outputs": [],
      "stateMutability": "payable",
      "type": "function"
    },
    {
      "inputs": [
        {
          "internalType": "uint256",
          "name": "_startingBlockNumber",
          "type": "uint256"
        },
        {
          "internalType": "address",
          "name": "_relay",
          "type": "address"
        },
        {
          "internalType": "address",
          "name": "_lockers",
          "type": "address"
        },
        {
          "internalType": "address",
          "name": "_treasury",
          "type": "address"
        },
        {
          "internalType": "address",
          "name": "_teleBTC",
          "type": "address"
        },
        {
          "internalType": "uint256",
          "name": "_transferDeadline",
          "type": "uint256"
        },
        {
          "internalType": "uint256",
          "name": "_protocolPercentageFee",
          "type": "uint256"
        },
        {
          "internalType": "uint256",
          "name": "_slasherPercentageReward",
          "type": "uint256"
        },
        {
          "internalType": "uint256",
          "name": "_bitcoinFee",
          "type": "uint256"
        }
      ],
      "name": "initialize",
      "outputs": [],
      "stateMutability": "nonpayable",
      "type": "function"
    },
    {
      "inputs": [
        {
          "internalType": "address",
          "name": "_lockerTargetAddress",
          "type": "address"
        },
        {
          "internalType": "uint256",
          "name": "_index",
          "type": "uint256"
        }
      ],
      "name": "isTransferred",
      "outputs": [
        {
          "internalType": "bool",
          "name": "",
          "type": "bool"
        }
      ],
      "stateMutability": "view",
      "type": "function"
    },
    {
      "inputs": [
        {
          "internalType": "bytes32",
          "name": "",
          "type": "bytes32"
        }
      ],
      "name": "isUsedAsBurnProof",
      "outputs": [
        {
          "internalType": "bool",
          "name": "",
          "type": "bool"
        }
      ],
      "stateMutability": "view",
      "type": "function"
    },
    {
      "inputs": [],
      "name": "lockers",
      "outputs": [
        {
          "internalType": "address",
          "name": "",
          "type": "address"
        }
      ],
      "stateMutability": "view",
      "type": "function"
    },
    {
      "inputs": [],
      "name": "owner",
      "outputs": [
        {
          "internalType": "address",
          "name": "",
          "type": "address"
        }
      ],
      "stateMutability": "view",
      "type": "function"
    },
    {
      "inputs": [],
      "name": "protocolPercentageFee",
      "outputs": [
        {
          "internalType": "uint256",
          "name": "",
          "type": "uint256"
        }
      ],
      "stateMutability": "view",
      "type": "function"
    },
    {
      "inputs": [],
      "name": "relay",
      "outputs": [
        {
          "internalType": "address",
          "name": "",
          "type": "address"
        }
      ],
      "stateMutability": "view",
      "type": "function"
    },
    {
      "inputs": [],
      "name": "renounceOwnership",
      "outputs": [],
      "stateMutability": "nonpayable",
      "type": "function"
    },
    {
      "inputs": [
        {
          "internalType": "uint256",
          "name": "_bitcoinFee",
          "type": "uint256"
        }
      ],
      "name": "setBitcoinFee",
      "outputs": [],
      "stateMutability": "nonpayable",
      "type": "function"
    },
    {
      "inputs": [
        {
          "internalType": "address",
          "name": "_lockers",
          "type": "address"
        }
      ],
      "name": "setLockers",
      "outputs": [],
      "stateMutability": "nonpayable",
      "type": "function"
    },
    {
      "inputs": [
        {
          "internalType": "uint256",
          "name": "_protocolPercentageFee",
          "type": "uint256"
        }
      ],
      "name": "setProtocolPercentageFee",
      "outputs": [],
      "stateMutability": "nonpayable",
      "type": "function"
    },
    {
      "inputs": [
        {
          "internalType": "address",
          "name": "_relay",
          "type": "address"
        }
      ],
      "name": "setRelay",
      "outputs": [],
      "stateMutability": "nonpayable",
      "type": "function"
    },
    {
      "inputs": [
        {
          "internalType": "uint256",
          "name": "_slasherPercentageReward",
          "type": "uint256"
        }
      ],
      "name": "setSlasherPercentageReward",
      "outputs": [],
      "stateMutability": "nonpayable",
      "type": "function"
    },
    {
      "inputs": [
        {
          "internalType": "address",
          "name": "_teleBTC",
          "type": "address"
        }
      ],
      "name": "setTeleBTC",
      "outputs": [],
      "stateMutability": "nonpayable",
      "type": "function"
    },
    {
      "inputs": [
        {
          "internalType": "uint256",
          "name": "_transferDeadline",
          "type": "uint256"
        }
      ],
      "name": "setTransferDeadline",
      "outputs": [],
      "stateMutability": "nonpayable",
      "type": "function"
    },
    {
      "inputs": [
        {
          "internalType": "address",
          "name": "_treasury",
          "type": "address"
        }
      ],
      "name": "setTreasury",
      "outputs": [],
      "stateMutability": "nonpayable",
      "type": "function"
    },
    {
      "inputs": [],
      "name": "slasherPercentageReward",
      "outputs": [
        {
          "internalType": "uint256",
          "name": "",
          "type": "uint256"
        }
      ],
      "stateMutability": "view",
      "type": "function"
    },
    {
      "inputs": [],
      "name": "startingBlockNumber",
      "outputs": [
        {
          "internalType": "uint256",
          "name": "",
          "type": "uint256"
        }
      ],
      "stateMutability": "view",
      "type": "function"
    },
    {
      "inputs": [],
      "name": "teleBTC",
      "outputs": [
        {
          "internalType": "address",
          "name": "",
          "type": "address"
        }
      ],
      "stateMutability": "view",
      "type": "function"
    },
    {
      "inputs": [],
      "name": "transferDeadline",
      "outputs": [
        {
          "internalType": "uint256",
          "name": "",
          "type": "uint256"
        }
      ],
      "stateMutability": "view",
      "type": "function"
    },
    {
      "inputs": [
        {
          "internalType": "address",
          "name": "newOwner",
          "type": "address"
        }
      ],
      "name": "transferOwnership",
      "outputs": [],
      "stateMutability": "nonpayable",
      "type": "function"
    },
    {
      "inputs": [],
      "name": "treasury",
      "outputs": [
        {
          "internalType": "address",
          "name": "",
          "type": "address"
        }
      ],
      "stateMutability": "view",
      "type": "function"
    },
    {
      "stateMutability": "payable",
      "type": "receive"
    }
  ],
  "transactionHash": "0x6f5cea2c0e30411b83e3bc2d7ecba53ac17d2c16211a0c76a305942690cb6c9d",
  "args": [],
  "numDeployments": 1,
  "solcInputHash": "65f59a183f13fde42984a28bce432ffa",
  "bytecode": "0x608060405234801561001057600080fd5b50615f9680620000216000396000f3fe6080604052600436106101d15760003560e01c80638d3d78cd116100f7578063bed6a60211610095578063ea73263711610064578063ea7326371461052b578063f0f442601461053e578063f2fde38b1461055e578063f47e22401461057e576101d8565b8063bed6a602146104c2578063c780c03f146104d8578063c805f68b146104eb578063cdbe37411461050b576101d8565b8063930a60e8116100d1578063930a60e81461043f578063b14d35321461046c578063b59589d11461048c578063b74d0d35146104ac576101d8565b80638d3d78cd146103e15780638d774f8e146104015780638da5cb5b14610421576101d8565b80635c4f5f3e1161016f57806373532b2a1161013e57806373532b2a146103615780637ed55748146103815780637f0f1817146103a15780637ffe9a92146103c1576101d8565b80635c4f5f3e146102f657806361d027b31461031657806370872aa514610336578063715018a61461034c576101d8565b80631e236168116101ab5780631e23616814610260578063419cba7f146102a057806343149dba146102b65780634782bc36146102d6576101d8565b80631812adb6146101dd5780631876dec4146102065780631d9278981461023e576101d8565b366101d857005b600080fd5b3480156101e957600080fd5b506101f360065481565b6040519081526020015b60405180910390f35b34801561021257600080fd5b50600254610226906001600160a01b031681565b6040516001600160a01b0390911681526020016101fd565b34801561024a57600080fd5b5061025e610259366004615735565b6105b2565b005b34801561026c57600080fd5b5061029061027b366004615421565b600b6020526000908152604090205460ff1681565b60405190151581526020016101fd565b3480156102ac57600080fd5b506101f360075481565b3480156102c257600080fd5b506101f36102d13660046157bf565b61072d565b3480156102e257600080fd5b5061025e6102f1366004615421565b610932565b34801561030257600080fd5b5061025e610311366004615421565b610946565b34801561032257600080fd5b50600454610226906001600160a01b031681565b34801561034257600080fd5b506101f360005481565b34801561035857600080fd5b5061025e61094f565b34801561036d57600080fd5b5061025e61037c366004615576565b610959565b34801561038d57600080fd5b5061025e61039c366004615421565b6110ca565b3480156103ad57600080fd5b5061025e6103bc366004615200565b6110db565b3480156103cd57600080fd5b506102906103dc366004615334565b6110ec565b3480156103ed57600080fd5b50600354610226906001600160a01b031681565b34801561040d57600080fd5b506101f361041c366004615238565b611144565b34801561042d57600080fd5b50603f546001600160a01b0316610226565b34801561044b57600080fd5b506101f361045a366004615200565b600a6020526000908152604090205481565b34801561047857600080fd5b5061025e610487366004615200565b6111e8565b34801561049857600080fd5b50600154610226906001600160a01b031681565b3480156104b857600080fd5b506101f360085481565b3480156104ce57600080fd5b506101f360055481565b61025e6104e63660046155db565b6111f9565b3480156104f757600080fd5b5061025e610506366004615200565b611515565b34801561051757600080fd5b5061025e610526366004615421565b611526565b610290610539366004615451565b611537565b34801561054a57600080fd5b5061025e610559366004615200565b611891565b34801561056a57600080fd5b5061025e610579366004615200565b6118a2565b34801561058a57600080fd5b5061059e610599366004615334565b611918565b6040516101fd989796959493929190615c30565b600c54610100900460ff16158080156105d25750600c54600160ff909116105b806105f357506105e130611a15565b1580156105f35750600c5460ff166001145b61065b5760405162461bcd60e51b815260206004820152602e60248201527f496e697469616c697a61626c653a20636f6e747261637420697320616c72656160448201526d191e481a5b9a5d1a585b1a5e995960921b60648201526084015b60405180910390fd5b600c805460ff19166001179055801561067e57600c805461ff0019166101001790555b610686611a28565b61068e611a57565b60008a905561069c89611a86565b6106a588611b17565b6106ae87611ba8565b6106b786611c39565b6106c085611cca565b6106c984611e6d565b6106d283611f00565b6106db82611f93565b801561072157600c805461ff0019169055604051600181527f7f26b83ff96e1f2b6a682f133852f6798a09c465da95921460cefb38474024989060200160405180910390a15b50505050505050505050565b6000610737612026565b6003546001600160a01b03166323b872dd336040516001600160e01b031960e084901b1681526001600160a01b03909116600482015230602482015260448101899052606401602060405180830381600087803b15801561079757600080fd5b505af11580156107ab573d6000803e3d6000fd5b505050506040513d601f19601f820116820180604052508101906107cf919061535f565b506000806107e08888888888612080565b6001600160a01b038116600090815260096020526040902080549294509092509061080d90600190615e57565b8154811061082b57634e487b7160e01b600052603260045260246000fd5b9060005260206000209060070201600401546108443390565b6001600160a01b03167fc19dabf19fdfd8c6124bed2178a4564d0c5d5812bfb916777cc90d1b53ed5a5a89896000808e8989600960008c6001600160a01b03166001600160a01b031681526020019081526020016000206001600960008e6001600160a01b03166001600160a01b03168152602001908152602001600020805490506108d09190615e57565b815481106108ee57634e487b7160e01b600052603260045260246000fd5b906000526020600020906007020160060154604051610914989796959493929190615a36565b60405180910390a35090506109296001607155565b95945050505050565b61093a6123a4565b61094381611f00565b50565b61094381611cca565b6109576123a4565b565b610961612026565b60025460405163aff2faa360e01b81526001600160a01b039091169063aff2faa39061099390869086906004016159eb565b60206040518083038186803b1580156109ab57600080fd5b505afa1580156109bf573d6000803e3d6000fd5b505050506040513d601f19601f820116820180604052508101906109e3919061535f565b6109ff5760405162461bcd60e51b815260040161065290615bae565b60025460405163626885b560e11b81526000916001600160a01b03169063c4d10b6a90610a3290879087906004016159eb565b60206040518083038186803b158015610a4a57600080fd5b505afa158015610a5e573d6000803e3d6000fd5b505050506040513d601f19601f82011682018060405250810190610a82919061521c565b6001546040516310889dc360e01b81526001600160a01b0390911660048201529091506000907391EC82E2Ab885A27eF1c82A6237ebaF8b0A9bF24906310889dc39060240160206040518083038186803b158015610adf57600080fd5b505af4158015610af3573d6000803e3d6000fd5b505050506040513d601f19601f82011682018060405250810190610b179190615439565b905060005b83518110156110b8576001600160a01b03831660009081526009602052604090208451859083908110610b5f57634e487b7160e01b600052603260045260246000fd5b602002602001015181548110610b8557634e487b7160e01b600052603260045260246000fd5b600091825260209091206005600790920201015460ff1615610be95760405162461bcd60e51b815260206004820152601a60248201527f43434275726e526f757465723a20616c726561647920706169640000000000006044820152606401610652565b6001600160a01b03831660009081526009602052604090208451839190869084908110610c2657634e487b7160e01b600052603260045260246000fd5b602002602001015181548110610c4c57634e487b7160e01b600052603260045260246000fd5b90600052602060002090600702016004015410610cb55760405162461bcd60e51b815260206004820152602160248201527f43434275726e526f757465723a20646561646c696e65206e6f742070617373656044820152601960fa1b6064820152608401610652565b6001600160a01b0383166000908152600960205260409020845160019190869084908110610cf357634e487b7160e01b600052603260045260246000fd5b602002602001015181548110610d1957634e487b7160e01b600052603260045260246000fd5b60009182526020808320600792830201600501805460ff19169415159490941790935560025490546001600160a01b0387811684526009909452604090922087519390911692631697565b928792612710928a9088908110610d8b57634e487b7160e01b600052603260045260246000fd5b602002602001015181548110610db157634e487b7160e01b600052603260045260246000fd5b906000526020600020906007020160000154610dcd9190615e0f565b610dd79190615def565b336001600160a01b038816600090815260096020526040902089518a9088908110610e1257634e487b7160e01b600052603260045260246000fd5b602002602001015181548110610e3857634e487b7160e01b600052603260045260246000fd5b906000526020600020906007020160000154600960008a6001600160a01b03166001600160a01b031681526020019081526020016000208a8881518110610e8f57634e487b7160e01b600052603260045260246000fd5b602002602001015181548110610eb557634e487b7160e01b600052603260045260246000fd5b600091825260209091206007909102016002015460405160e087901b6001600160e01b03191681526001600160a01b03958616600482015260248101949094529184166044840152606483015291909116608482015260a401602060405180830381600087803b158015610f2857600080fd5b505af1158015610f3c573d6000803e3d6000fd5b505050506040513d601f19601f82011682018060405250810190610f60919061535f565b506001600160a01b03831660008181526009602052604090208551869084908110610f9b57634e487b7160e01b600052603260045260246000fd5b602002602001015181548110610fc157634e487b7160e01b600052603260045260246000fd5b906000526020600020906007020160020160009054906101000a90046001600160a01b03166001600160a01b03167f58c23b4ae0617be275628875bcfd65759a441263099a256eeb27899fb5dd846d888860096000896001600160a01b03166001600160a01b0316815260200190815260200160002089878151811061105757634e487b7160e01b600052603260045260246000fd5b60200260200101518154811061107d57634e487b7160e01b600052603260045260246000fd5b90600052602060002090600702016006015460405161109e939291906159ff565b60405180910390a3806110b081615ef6565b915050610b1c565b5050506110c56001607155565b505050565b6110d26123a4565b61094381611e6d565b6110e36123a4565b61094381611c39565b6001600160a01b038216600090815260096020526040812080548390811061112457634e487b7160e01b600052603260045260246000fd5b600091825260209091206005600790920201015460ff1690505b92915050565b600061114e612026565b600061115f8d8d8d8d8d8d8d6123fe565b90506111cc8c8c600081811061118557634e487b7160e01b600052603260045260246000fd5b905060200201358a8a60008181106111ad57634e487b7160e01b600052603260045260246000fd5b90506020020160208101906111c29190615200565b838989898961284b565b9150506111d96001607155565b9b9a5050505050505050505050565b6111f06123a4565b61094381611b17565b611201612026565b60025460405163aff2faa360e01b81526001600160a01b039091169063aff2faa390611231908c90600401615a23565b60206040518083038186803b15801561124957600080fd5b505afa15801561125d573d6000803e3d6000fd5b505050506040513d601f19601f82011682018060405250810190611281919061535f565b61129d5760405162461bcd60e51b815260040161065290615bae565b60006112fb896000815181106112c357634e487b7160e01b600052603260045260246000fd5b60200260200101518989876000815181106112ee57634e487b7160e01b600052603260045260246000fd5b60200260200101516129a5565b90507391EC82E2Ab885A27eF1c82A6237ebaF8b0A9bF2463e87c5882600b600554600160009054906101000a90046001600160a01b0316600054868f8b8b8b6040518a63ffffffff1660e01b815260040161135e99989796959493929190615a94565b60006040518083038186803b15801561137657600080fd5b505af415801561138a573d6000803e3d6000fd5b505050506000806113c38a856000815181106113b657634e487b7160e01b600052603260045260246000fd5b6020026020010151612a9b565b915091506114168b6001815181106113eb57634e487b7160e01b600052603260045260246000fd5b60200260200101518989896001815181106112ee57634e487b7160e01b600052603260045260246000fd5b82146114645760405162461bcd60e51b815260206004820152601d60248201527f43434275726e526f757465723a2077726f6e67206f75747075742074780000006044820152606401610652565b8b5160208d01206114758883612b4a565b80519060200120146114c95760405162461bcd60e51b815260206004820152601c60248201527f43434275726e526f757465723a206e6f7420666f72206c6f636b6572000000006044820152606401610652565b6114fd898d85876002815181106114f057634e487b7160e01b600052603260045260246000fd5b6020026020010151612bbe565b50505061150a6001607155565b505050505050505050565b61151d6123a4565b61094381611a86565b61152e6123a4565b61094381611f93565b6000611541612026565b6000548710156115935760405162461bcd60e51b815260206004820152601960248201527f43434275726e526f757465723a206f6c642072657175657374000000000000006044820152606401610652565b6001600160e01b03198816156115eb5760405162461bcd60e51b815260206004820181905260248201527f43434275726e526f757465723a206e6f6e2d7a65726f206c6f636b2074696d656044820152606401610652565b60025460405163aff2faa360e01b81526001600160a01b039091169063aff2faa39061161b908790600401615a23565b60206040518083038186803b15801561163357600080fd5b505afa158015611647573d6000803e3d6000fd5b505050506040513d601f19601f8201168201806040525081019061166b919061535f565b6116875760405162461bcd60e51b815260040161065290615bae565b81518351146116d85760405162461bcd60e51b815260206004820152601b60248201527f43434275726e526f757465723a2077726f6e6720696e646578657300000000006044820152606401610652565b60006116e68c8c8c8c6129a5565b600154604051637ebc232760e01b81529192507391EC82E2Ab885A27eF1c82A6237ebaF8b0A9bF2491637ebc232791611735916001600160a01b039091169085908d908d908d9060040161596b565b60206040518083038186803b15801561174d57600080fd5b505af4158015611761573d6000803e3d6000fd5b505050506040513d601f19601f82011682018060405250810190611785919061535f565b6117d15760405162461bcd60e51b815260206004820152601b60248201527f43434275726e526f757465723a206e6f742066696e616c697a656400000000006044820152606401610652565b60025460405163626885b560e11b81526000916001600160a01b03169063c4d10b6a90611802908990600401615a23565b60206040518083038186803b15801561181a57600080fd5b505afa15801561182e573d6000803e3d6000fd5b505050506040513d601f19601f82011682018060405250810190611852919061521c565b90506000611864838b848f8a8a612d8a565b9050611872818d89866132b9565b600193505050506118836001607155565b9a9950505050505050505050565b6118996123a4565b61094381611ba8565b6118aa6123a4565b6001600160a01b03811661190f5760405162461bcd60e51b815260206004820152602660248201527f4f776e61626c653a206e6577206f776e657220697320746865207a65726f206160448201526564647265737360d01b6064820152608401610652565b61094381613342565b6009602052816000526040600020818154811061193457600080fd5b600091825260209091206007909102018054600182015460028301546003840180549396509194506001600160a01b0316929161197090615ec1565b80601f016020809104026020016040519081016040528092919081815260200182805461199c90615ec1565b80156119e95780601f106119be576101008083540402835291602001916119e9565b820191906000526020600020905b8154815290600101906020018083116119cc57829003601f168201915b505050600484015460058501546006909501549394909360ff8083169450610100909204909116915088565b6001600160a01b0381163b15155b919050565b600c54610100900460ff16611a4f5760405162461bcd60e51b815260040161065290615be5565b610957613394565b600c54610100900460ff16611a7e5760405162461bcd60e51b815260040161065290615be5565b6109576133c4565b806001600160a01b038116611aad5760405162461bcd60e51b815260040161065290615b40565b600154604080516001600160a01b03928316815291841660208301527f4c28a3f61a715259c4dc930c23e7423b8fa52e13232c061a6e488729c66184f4910160405180910390a150600180546001600160a01b0319166001600160a01b0392909216919091179055565b806001600160a01b038116611b3e5760405162461bcd60e51b815260040161065290615b40565b600254604080516001600160a01b03928316815291841660208301527ffa021c2ec0f46429a53e7f88b88065e40001f50c9d38b2e8b713beaf9828d4c3910160405180910390a150600280546001600160a01b0319166001600160a01b0392909216919091179055565b806001600160a01b038116611bcf5760405162461bcd60e51b815260040161065290615b40565b600454604080516001600160a01b03928316815291841660208301527f567657fa3f286518b318f4a29870674f433f622fdfc819691acb13105b228225910160405180910390a150600480546001600160a01b0319166001600160a01b0392909216919091179055565b806001600160a01b038116611c605760405162461bcd60e51b815260040161065290615b40565b600354604080516001600160a01b03928316815291841660208301527f36a4c08a38b736dcecb6c328dba61238529620e83ccb23db2cc43cd34ec26096910160405180910390a150600380546001600160a01b0319166001600160a01b0392909216919091179055565b6001546040516353bcd1c960e11b81526001600160a01b0390911660048201526000907391EC82E2Ab885A27eF1c82A6237ebaF8b0A9bF249063a779a3929060240160206040518083038186803b158015611d2457600080fd5b505af4158015611d38573d6000803e3d6000fd5b505050506040513d601f19601f82011682018060405250810190611d5c9190615439565b9050611d70603f546001600160a01b031690565b6001600160a01b0316336001600160a01b03161480611d90575080600554105b611ddc5760405162461bcd60e51b815260206004820152601760248201527f43434275726e526f757465723a206e6f207065726d69740000000000000000006044820152606401610652565b808211611e2b5760405162461bcd60e51b815260206004820152601a60248201527f43434275726e526f757465723a206c6f7720646561646c696e650000000000006044820152606401610652565b60055460408051918252602082018490527f92c10a242ca42973030420e2ee32b3ba7818cc643f896958f620c606cf300416910160405180910390a150600555565b806127101015611ebf5760405162461bcd60e51b815260206004820152601960248201527f43434275726e526f757465723a20696e76616c696420666565000000000000006044820152606401610652565b60065460408051918252602082018390527f7d205f60891f60851c61cd244ba387d72b6589e7c0ac41b9d909ab0ce2c2a53b910160405180910390a1600655565b806127101015611f525760405162461bcd60e51b815260206004820152601c60248201527f43434275726e526f757465723a20696e76616c696420726577617264000000006044820152606401610652565b60075460408051918252602082018390527faa50b3683e42a13535a5b9c2c32780cccf956fb546b523a3542ac4ad8b544f67910160405180910390a1600755565b60085460408051918252602082018390527f47c5f9c13c35ebb166f6a8d8c56af73f8b323ac0fee7aec4a5e0490bbf67a4fe910160405180910390a18061271010156120215760405162461bcd60e51b815260206004820152601d60248201527f43434275726e526f757465723a20696e76616c696420627463206665650000006044820152606401610652565b600855565b600260715414156120795760405162461bcd60e51b815260206004820152601f60248201527f5265656e7472616e637947756172643a207265656e7472616e742063616c6c006044820152606401610652565b6002607155565b60008061208d86866133eb565b60025460405163aff2faa360e01b81526001600160a01b039091169063aff2faa3906120bf90879087906004016159eb565b60206040518083038186803b1580156120d757600080fd5b505afa1580156120eb573d6000803e3d6000fd5b505050506040513d601f19601f8201168201806040525081019061210f919061535f565b61212b5760405162461bcd60e51b815260040161065290615bae565b60025460405163626885b560e11b81526001600160a01b039091169063c4d10b6a9061215d90879087906004016159eb565b60206040518083038186803b15801561217557600080fd5b505afa158015612189573d6000803e3d6000fd5b505050506040513d601f19601f820116820180604052508101906121ad919061521c565b905060006121ba886134e8565b60035460025460405163095ea7b360e01b81526001600160a01b03918216600482015260248101849052929350169063095ea7b390604401602060405180830381600087803b15801561220c57600080fd5b505af1158015612220573d6000803e3d6000fd5b505050506040513d601f19601f82011682018060405250810190612244919061535f565b5080600854826122549190615e57565b6002546040516338463cff60e01b81526001600160a01b03909116906338463cff90612288908a908a9088906004016159ff565b602060405180830381600087803b1580156122a257600080fd5b505af11580156122b6573d6000803e3d6000fd5b505050506040513d601f19601f820116820180604052508101906122da9190615439565b6122e49190615e0f565b6122ee9190615def565b6001546040516310889dc360e01b81526001600160a01b03909116600482015290935061239290899085908a908a907391EC82E2Ab885A27eF1c82A6237ebaF8b0A9bF24906310889dc39060240160206040518083038186803b15801561235457600080fd5b505af4158015612368573d6000803e3d6000fd5b505050506040513d601f19601f8201168201806040525081019061238c9190615439565b87613611565b509550959350505050565b6001607155565b603f546001600160a01b031633146109575760405162461bcd60e51b815260206004820181905260248201527f4f776e61626c653a2063616c6c6572206973206e6f7420746865206f776e65726044820152606401610652565b6003546000906001600160a01b0316848461241a600182615e57565b81811061243757634e487b7160e01b600052603260045260246000fd5b905060200201602081019061244c9190615200565b6001600160a01b0316146124a25760405162461bcd60e51b815260206004820152601a60248201527f43434275726e526f757465723a20696e76616c696420706174680000000000006044820152606401610652565b600286146124f25760405162461bcd60e51b815260206004820152601b60248201527f43434275726e526f757465723a2077726f6e6720616d6f756e747300000000006044820152606401610652565b8383600081811061251357634e487b7160e01b600052603260045260246000fd5b90506020020160208101906125289190615200565b6001600160a01b03166323b872dd33308a8a600081811061255957634e487b7160e01b600052603260045260246000fd5b6040516001600160e01b031960e088901b1681526001600160a01b03958616600482015294909316602485015250602090910201356044820152606401602060405180830381600087803b1580156125b057600080fd5b505af11580156125c4573d6000803e3d6000fd5b505050506040513d601f19601f820116820180604052508101906125e8919061535f565b508383600081811061260a57634e487b7160e01b600052603260045260246000fd5b905060200201602081019061261f9190615200565b6001600160a01b031663095ea7b3898989600081811061264f57634e487b7160e01b600052603260045260246000fd5b6040516001600160e01b031960e087901b1681526001600160a01b0390941660048501526020029190910135602483015250604401602060405180830381600087803b15801561269e57600080fd5b505af11580156126b2573d6000803e3d6000fd5b505050506040513d601f19601f820116820180604052508101906126d6919061535f565b50600080896001600160a01b031663b0bbcd888a8a600081811061270a57634e487b7160e01b600052603260045260246000fd5b905060200201358b8b600181811061273257634e487b7160e01b600052603260045260246000fd5b905060200201358989308a8e6040518863ffffffff1660e01b81526004016127609796959493929190615c93565b600060405180830381600087803b15801561277a57600080fd5b505af115801561278e573d6000803e3d6000fd5b505050506040513d6000823e601f3d908101601f191682016040526127b6919081019061537b565b91509150816128075760405162461bcd60e51b815260206004820152601d60248201527f43434275726e526f757465723a2065786368616e6765206661696c65640000006044820152606401610652565b80600182516128169190615e57565b8151811061283457634e487b7160e01b600052603260045260246000fd5b602002602001015192505050979650505050505050565b600080600061285d8888888888612080565b6001600160a01b038116600090815260096020526040902080549294509092509061288a90600190615e57565b815481106128a857634e487b7160e01b600052603260045260246000fd5b9060005260206000209060070201600401546128c13390565b6001600160a01b03167fc19dabf19fdfd8c6124bed2178a4564d0c5d5812bfb916777cc90d1b53ed5a5a89898e8e8e8989600960008c6001600160a01b03166001600160a01b031681526020019081526020016000206001600960008e6001600160a01b03166001600160a01b031681526020019081526020016000208054905061294c9190615e57565b8154811061296a57634e487b7160e01b600052603260045260246000fd5b906000526020600020906007020160060154604051612990989796959493929190615a36565b60405180910390a35098975050505050505050565b6000806002868686866040516020016129c194939291906158fc565b60408051601f19818403018152908290526129db9161594f565b602060405180830381855afa1580156129f8573d6000803e3d6000fd5b5050506040513d601f19601f82011682018060405250810190612a1b9190615439565b90506000600282604051602001612a3491815260200190565b60408051601f1981840301815290829052612a4e9161594f565b602060405180830381855afa158015612a6b573d6000803e3d6000fd5b5050506040513d601f19601f82011682018060405250810190612a8e9190615439565b925050505b949350505050565b60008080612ab1612aac86836137d9565b6137f4565b905062ffffff198082161415612b095760405162461bcd60e51b815260206004820152601a60248201527f426974636f696e48656c7065723a2076696e206973206e756c6c0000000000006044820152606401610652565b6000612b15828661392a565b90506000612b2282613a48565b9050612b2d81613a6c565b9450612b3881613a8e565b63ffffffff1693505050509250929050565b60606000612b62612b5d825b86906137d9565b613ab8565b905062ffffff198082161415612b8a5760405162461bcd60e51b815260040161065290615b77565b6000612b968285613ba9565b90506000612ba382613ca3565b9050612bb462ffffff198216613cf4565b9695505050505050565b6000612bc985613d44565b60025460405163626885b560e11b81526001600160401b039290921692506000916001600160a01b039091169063c4d10b6a90612c0a908890600401615a23565b60206040518083038186803b158015612c2257600080fd5b505afa158015612c36573d6000803e3d6000fd5b505050506040513d601f19601f82011682018060405250810190612c5a919061521c565b6002546007549192506001600160a01b03169063b734de2690839061271090612c839087615e0f565b612c8d9190615def565b3360405160e085901b6001600160e01b03191681526001600160a01b0393841660048201526024810192909252909116604482015260648101859052608401602060405180830381600087803b158015612ce657600080fd5b505af1158015612cfa573d6000803e3d6000fd5b505050506040513d601f19601f82011682018060405250810190612d1e919061535f565b507f7ff138134e34ccab071315c38e38eec079f54726b890304ab46e2c5ab6f722bb8186858761271060075488612d559190615e0f565b612d5f9190615def565b612d699088615d65565b604051612d7a9594939291906159aa565b60405180910390a1505050505050565b60008080805b85518110156132ac5780612dcd57848181518110612dbe57634e487b7160e01b600052603260045260246000fd5b60200260200101519150612e7a565b81858281518110612dee57634e487b7160e01b600052603260045260246000fd5b602002602001015111612e4f5760405162461bcd60e51b8152602060048201526024808201527f43434275726e526f757465723a20756e2d736f7274656420766f757420696e646044820152636578657360e01b6064820152608401610652565b848181518110612e6f57634e487b7160e01b600052603260045260246000fd5b602002602001015191505b6000868281518110612e9c57634e487b7160e01b600052603260045260246000fd5b60200260200101519050600960008a6001600160a01b03166001600160a01b031681526020019081526020016000208181548110612eea57634e487b7160e01b600052603260045260246000fd5b600091825260209091206005600790920201015460ff16158015612f5957506001600160a01b038916600090815260096020526040902080548b919083908110612f4457634e487b7160e01b600052603260045260246000fd5b90600052602060002090600702016004015410155b156132995761310488878481518110612f8257634e487b7160e01b600052603260045260246000fd5b6020026020010151600960008d6001600160a01b03166001600160a01b031681526020019081526020016000208481548110612fce57634e487b7160e01b600052603260045260246000fd5b90600052602060002090600702016003018054612fea90615ec1565b80601f016020809104026020016040519081016040528092919081815260200182805461301690615ec1565b80156130635780601f1061303857610100808354040283529160200191613063565b820191906000526020600020905b81548152906001019060200180831161304657829003601f168201915b5050506001600160a01b038f166000908152600960205260409020805490925087915081106130a257634e487b7160e01b600052603260045260246000fd5b906000526020600020906007020160050160019054906101000a900460ff1660048111156130e057634e487b7160e01b600052602160045260246000fd5b60048111156130ff57634e487b7160e01b600052602160045260246000fd5b613dde565b6001600160401b0316935083600960008b6001600160a01b03166001600160a01b03168152602001908152602001600020828154811061315457634e487b7160e01b600052603260045260246000fd5b9060005260206000209060070201600101541415613299576001600160a01b0389166000908152600960205260409020805460019190839081106131a857634e487b7160e01b600052603260045260246000fd5b60009182526020909120600790910201600501805460ff19169115159190911790556131d5856001615d65565b6001600160a01b038a166000818152600960205260409020805492975090917f1b46655c2f394f2191cb246d5982dbe00ad671f0b590e75e97c90ee97f1f782a91908490811061323557634e487b7160e01b600052603260045260246000fd5b9060005260206000209060070201600601548d89868151811061326857634e487b7160e01b600052603260045260246000fd5b6020026020010151604051613290939291909283526020830191909152604082015260600190565b60405180910390a25b50806132a481615ef6565b915050612d90565b5050509695505050505050565b60006132c58484614019565b6001600160401b0316905060006132db8561411c565b905081158015906132f55750806132f3876001615d65565b145b15613318576000838152600b60205260409020805460ff1916600117905561333a565b8086141561333a576000838152600b60205260409020805460ff191660011790555b505050505050565b603f80546001600160a01b038381166001600160a01b0319831681179093556040519116919082907f8be0079c531659141344cd1fd0a4f28419497f9722a3daafe3b4186f6b6457e090600090a35050565b600c54610100900460ff166133bb5760405162461bcd60e51b815260040161065290615be5565b61095733613342565b600c54610100900460ff1661239d5760405162461bcd60e51b815260040161065290615be5565b600081600481111561340d57634e487b7160e01b600052602160045260246000fd5b14806134385750600481600481111561343657634e487b7160e01b600052602160045260246000fd5b145b1561349357815160201461348e5760405162461bcd60e51b815260206004820152601c60248201527f43434275726e526f757465723a20696e76616c696420736372697074000000006044820152606401610652565b6134e4565b81516014146134e45760405162461bcd60e51b815260206004820152601c60248201527f43434275726e526f757465723a20696e76616c696420736372697074000000006044820152606401610652565b5050565b600080612710600654846134fc9190615e0f565b6135069190615def565b905060085460026135179190615e0f565b6135219082615d65565b831161356f5760405162461bcd60e51b815260206004820152601860248201527f43434275726e526f757465723a206c6f7720616d6f756e7400000000000000006044820152606401610652565b600061357b8285615e57565b6003546004805460405163a9059cbb60e01b81526001600160a01b03918216928101929092526024820186905292935091169063a9059cbb90604401602060405180830381600087803b1580156135d157600080fd5b505af11580156135e5573d6000803e3d6000fd5b505050506040513d601f19601f82011682018060405250810190613609919061535f565b509392505050565b604080516101008101825260006080820181905260a0820181905260c0820181815260e0830191909152888252602082018890523392820192909252606081018690529084600481111561367557634e487b7160e01b600052602160045260246000fd5b9081600481111561369657634e487b7160e01b600052602160045260246000fd5b9052506005546136a69084615d65565b6080820152600060a082018190526001600160a01b038316808252600a6020818152604084205460e08601819052929093529091526136e6906001615d65565b6001600160a01b038381166000908152600a6020908152604080832094909455600981528382208054600180820183559184529282902086516007909402019283558582015190830155928401516002820180546001600160a01b0319169190931617909155606083015180518493613766926003850192910190614f75565b50608082015160048281019190915560a083015160058301805460ff19169115159190911780825560c08501519261ff0019909116906101009084908111156137bf57634e487b7160e01b600052602160045260246000fd5b021790555060e08201518160060155505050505050505050565b81516000906020840161092964ffffffffff85168284614148565b6000818161380a815b62ffffff1984169061418f565b50601884901c6001600160601b031661382a5762ffffff195b9250613923565b6000613837856000614269565b9050601885901c6001600160601b03166001600160401b0382166138645762ffffff195b94505050613923565b600061386f836143b0565b60ff16905060005b836001600160401b03168110156138eb578282106138a05762ffffff195b965050505050613923565b60006138c06138af8486615e57565b60055b62ffffff198c169190614409565b90506138cb8161443d565b6138d59084615d65565b92505080806138e390615ef6565b915050613877565b508181146139035762ffffff195b9550505050613923565b61391d60065b60d81b6301000000600160d81b0389161790565b95505050505b5050919050565b6000826006613938816137fd565b506000613946866000614269565b6001600160401b03169050601886901c6001600160601b03168186106139a15760405162461bcd60e51b815260206004820152601060248201526f2b34b7103932b0b21037bb32b9393ab760811b6044820152606401610652565b60006139ac836143b0565b60ff1690506000805b88811015613a04576139db6139ca8486615e57565b60055b62ffffff198d169190614409565b91506139e68261443d565b6139f09084615d65565b92506139fd600182615d65565b90506139b5565b50613a126138af8385615e57565b90506000613a1f8261443d565b9050613a38838260045b62ffffff198e16929190614491565b975050505050505b505092915050565b6000816004613a56816137fd565b50612a9362ffffff198516600060246003614491565b6000816003613a7a816137fd565b50612a9362ffffff19851660006020614501565b6000816003613a9c816137fd565b50612a93613ab362ffffff1986166020600461465a565b6147a4565b60008181613ac5816137fd565b50601884901c6001600160601b0316613ae25762ffffff19613823565b6000613aef856000614269565b9050601885901c6001600160601b03166001600160401b038216613b175762ffffff1961385b565b6000613b22836143b0565b60ff16905060005b836001600160401b0316811015613b8d57828210613b4c5762ffffff19613895565b6000613b62613b5b8486615e57565b600e6138b2565b9050613b6d8161480d565b613b779084615d65565b9250508080613b8590615ef6565b915050613b2a565b50818114613b9f5762ffffff196138f9565b61391d600f613909565b600082600f613bb7816137fd565b506000613bc5866000614269565b6001600160401b03169050601886901c6001600160601b0316818610613c215760405162461bcd60e51b81526020600482015260116024820152702b37baba103932b0b21037bb32b9393ab760791b6044820152606401610652565b6000613c2c836143b0565b60ff1690506000805b88811015613c7a57613c51613c4a8486615e57565b600e6139cd565b9150613c5c8261480d565b613c669084615d65565b9250613c73600182615d65565b9050613c35565b50613c88613b5b8385615e57565b90506000613c958261480d565b9050613a388382600d613a29565b600081600d613cb1816137fd565b506000613cbf856008614269565b9050610929613ccd826143b0565b613cd8906008615da8565b62ffffff1987169060ff166001600160401b0384166007614491565b6060600080613d0c8460181c6001600160601b031690565b60405193508392506001600160601b03169050613d3384613d2e846020615d65565b614856565b508181016020016040529052919050565b600080613d56612b5d825b85906137d9565b905062ffffff198082161415613d7e5760405162461bcd60e51b815260040161065290615b77565b600080613d8c836000614269565b6001600160401b0316905060005b81811015613dd557613dac8482613ba9565b9250613db7836149ae565b613dc19086615d7d565b945080613dcd81615ef6565b915050613d9a565b50505050919050565b600080613dee612b5d87836137d9565b905062ffffff198082161415613e165760405162461bcd60e51b815260040161065290615b77565b6000613e228287613ba9565b90506000613e2f82613ca3565b90506000856004811115613e5357634e487b7160e01b600052602160045260246000fd5b1415613eb857613e6c62ffffff19821660016020614501565b604051602001613e7e91815260200190565b60405160208183030381529060405280519060200120868051906020012014613ea8576000613eb1565b613eb1826149ae565b935061400e565b6001856004811115613eda57634e487b7160e01b600052602160045260246000fd5b1415613f1957613ef162ffffff19821660036149d3565b604051602001613e7e919060609190911b6bffffffffffffffffffffffff1916815260140190565b6002856004811115613f3b57634e487b7160e01b600052602160045260246000fd5b1415613f5257613ef162ffffff19821660026149d3565b6003856004811115613f7457634e487b7160e01b600052602160045260246000fd5b1415613f8b57613ef162ffffff19821660026149d3565b6004856004811115613fad57634e487b7160e01b600052602160045260246000fd5b141561400e57613fc662ffffff19821660026020614501565b604051602001613fd891815260200190565b6040516020818303038152906040528051906020012086805190602001201461400257600061400b565b61400b826149ae565b93505b505050949350505050565b600080614028612b5d82612b56565b905062ffffff1980821614156140505760405162461bcd60e51b815260040161065290615b77565b6000806000614060846000614269565b6001600160401b0316905060005b81811015614111576140808582613ba9565b935061408b84613ca3565b92508660405160200161409e919061594f565b604051602081830303815290604052805190602001206140c38462ffffff1916613cf4565b6040516020016140d3919061594f565b6040516020818303038152906040528051906020012014156140ff576140f8846149ae565b9550614111565b8061410981615ef6565b91505061406e565b505050505092915050565b60008061412b612b5d82613d4f565b9050614138816000614269565b6001600160401b03169392505050565b6000806141558385615d65565b9050604051811115614165575060005b806141775762ffffff19915050614188565b5050606083811b8317901b811760181b5b9392505050565b600061419b83836149e1565b6142625760006141ba6141ae8560d81c90565b64ffffffffff16614a04565b91505060006141cf8464ffffffffff16614a04565b6040517f5479706520617373657274696f6e206661696c65642e20476f7420307800000060208201526001600160b01b031960b086811b8216603d8401526c05c408af0e0cac6e8cac84060f609b1b604784015283901b16605482015290925060009150605e015b60405160208183030381529060405290508060405162461bcd60e51b81526004016106529190615a23565b5090919050565b60008061427e62ffffff198516846001614ab0565b905060fc81116142995761429181614ae0565b91505061113e565b8060fd14156142ff576142c76142c26142b3856001615d65565b62ffffff19871690600261465a565b614ae0565b91506142d2826143b0565b60ff166003146142fa576142f86142f362ffffff1986168560036000614491565b614b48565b505b6143a9565b8060fe1415614354576143286142c2614319856001615d65565b62ffffff19871690600461465a565b9150614333826143b0565b60ff166005146142fa576142f86142f362ffffff1986168560056000614491565b8060ff14156143a95761437d6142c261436e856001615d65565b62ffffff19871690600861465a565b9150614388826143b0565b60ff166009146143a957613a406142f362ffffff1986168560096000614491565b5092915050565b600060fc826001600160401b0316116143cb57506001611a23565b61ffff826001600160401b0316116143e557506003611a23565b63ffffffff826001600160401b03161161440157506005611a23565b506009611a23565b6000612a9384846144238760181c6001600160601b031690565b6001600160601b03166144369190615e57565b8585614491565b600081600561444b816137fd565b506000614459856024614269565b9050806001600160401b031661446e826143b0565b60ff1661447b9190615d65565b614486906024615d65565b610929906004615d65565b6000806144a78660781c6001600160601b031690565b6001600160601b031690506144bb86614bcf565b846144c68784615d65565b6144d09190615d65565b11156144e35762ffffff19915050612a93565b6144ed8582615d65565b9050612bb48364ffffffffff168286614148565b600060ff821661451357506000614188565b6145268460181c6001600160601b031690565b6001600160601b031661453c60ff841685615d65565b11156145a0576145876145588560781c6001600160601b031690565b6001600160601b03166145748660181c6001600160601b031690565b6001600160601b0316858560ff16614c10565b60405162461bcd60e51b81526004016106529190615a23565b60208260ff16111561461a5760405162461bcd60e51b815260206004820152603a60248201527f54797065644d656d566965772f696e646578202d20417474656d70746564207460448201527f6f20696e646578206d6f7265207468616e2033322062797465730000000000006064820152608401610652565b6008820260006146338660781c6001600160601b031690565b6001600160601b031690506000600160ff1b60001984011d91909501511695945050505050565b6000612a9361466a858585614501565b600881811c7eff00ff00ff00ff00ff00ff00ff00ff00ff00ff00ff00ff00ff00ff00ff00ff167fff00ff00ff00ff00ff00ff00ff00ff00ff00ff00ff00ff00ff00ff00ff00ff009290911b9190911617601081811c7dffff0000ffff0000ffff0000ffff0000ffff0000ffff0000ffff0000ffff167fffff0000ffff0000ffff0000ffff0000ffff0000ffff0000ffff0000ffff00009290911b9190911617602081811c7bffffffff00000000ffffffff00000000ffffffff00000000ffffffff167fffffffff00000000ffffffff00000000ffffffff00000000ffffffff000000009290911b9190911617604081811c77ffffffffffffffff0000000000000000ffffffffffffffff1677ffffffffffffffff0000000000000000ffffffffffffffff199290911b9190911617608081811c91901b1790565b600063ffffffff8211156148095760405162461bcd60e51b815260206004820152602660248201527f53616665436173743a2076616c756520646f65736e27742066697420696e203360448201526532206269747360d01b6064820152608401610652565b5090565b600081600e61481b816137fd565b506000614829856008614269565b9050806001600160401b031661483e826143b0565b60ff1661484b9190615d65565b610929906008615d65565b600062ffffff1980841614156148bf5760405162461bcd60e51b815260206004820152602860248201527f54797065644d656d566965772f636f7079546f202d204e756c6c20706f696e7460448201526732b9103232b932b360c11b6064820152608401610652565b6148c883614d3a565b6149285760405162461bcd60e51b815260206004820152602b60248201527f54797065644d656d566965772f636f7079546f202d20496e76616c696420706f60448201526a34b73a32b9103232b932b360a91b6064820152608401610652565b600061493d8460181c6001600160601b031690565b6001600160601b03169050600061495d8560781c6001600160601b031690565b6001600160601b03169050600060405190508481111561497d5760206060fd5b8285848460045afa50612bb46149938760d81c90565b64ffffffffff60601b606091821b168717901b841760181b90565b600081600d6149bc816137fd565b50612a936142c262ffffff1986166000600861465a565b600061418883836014614ab0565b60008164ffffffffff166149f58460d81c90565b64ffffffffff16149392505050565b600080601f5b600f8160ff161115614a62576000614a23826008615e2e565b60ff1685901c9050614a3481614d78565b61ffff16841793508160ff16601014614a4f57601084901b93505b50614a5b600182615e6e565b9050614a0a565b50600f5b60ff8160ff161015614aaa5760ff600882021684901c614a8581614d78565b61ffff16831792508160ff16600014614aa057601083901b92505b5060001901614a66565b50915091565b6000614abd826020615e6e565b614ac8906008615e2e565b60ff16614ad6858585614501565b901c949350505050565b60006001600160401b038211156148095760405162461bcd60e51b815260206004820152602660248201527f53616665436173743a2076616c756520646f65736e27742066697420696e203660448201526534206269747360d01b6064820152608401610652565b60606000614b7c614b7782614b69601887901c6001600160601b0316614da8565b62ffffff1987169190614ab0565b614a04565b6040517f4e6f6e2d6d696e696d616c2076617220696e742e20476f74203078000000000060208201526dffffffffffffffffffffffffffff19607083901b16603b82015290925060009150604d01614237565b6000614be48260181c6001600160601b031690565b614bf78360781c6001600160601b031690565b614c019190615dcd565b6001600160601b031692915050565b60606000614c1d86614a04565b9150506000614c2b86614a04565b9150506000614c3986614a04565b9150506000614c4786614a04565b604080517f54797065644d656d566965772f696e646578202d204f76657272616e20746865602082015274040ecd2caee5c40a6d8d2c6ca40d2e640c2e84060f605b1b818301526001600160d01b031960d098891b811660558301526e040eed2e8d040d8cadccee8d04060f608b1b605b830181905297891b8116606a8301527f2e20417474656d7074656420746f20696e646578206174206f666673657420306070830152600f60fb1b609083015295881b861660918201526097810196909652951b90921660a68401525050601760f91b60ac8201528151808203608d01815260ad90910190915295945050505050565b6000614d468260d81c90565b64ffffffffff1664ffffffffff1415614d6157506000611a23565b6000614d6c83614bcf565b60405110199392505050565b6000614d8a60048360ff16901c614e09565b60ff161760081b62ffff0016614d9f82614e09565b60ff1617919050565b600060ff8211156148095760405162461bcd60e51b815260206004820152602560248201527f53616665436173743a2076616c756520646f65736e27742066697420696e2038604482015264206269747360d81b6064820152608401610652565b600060f08083179060ff82161415614e25576030915050611a23565b8060ff1660f11415614e3b576031915050611a23565b8060ff1660f21415614e51576032915050611a23565b8060ff1660f31415614e67576033915050611a23565b8060ff1660f41415614e7d576034915050611a23565b8060ff1660f51415614e93576035915050611a23565b8060ff1660f61415614ea9576036915050611a23565b8060ff1660f71415614ebf576037915050611a23565b8060ff1660f81415614ed5576038915050611a23565b8060ff1660f91415614eeb576039915050611a23565b8060ff1660fa1415614f01576061915050611a23565b8060ff1660fb1415614f17576062915050611a23565b8060ff1660fc1415614f2d576063915050611a23565b8060ff1660fd1415614f43576064915050611a23565b8060ff1660fe1415614f59576065915050611a23565b8060ff1660ff1415614f6f576066915050611a23565b50919050565b828054614f8190615ec1565b90600052602060002090601f016020900481019282614fa35760008555614fe9565b82601f10614fbc57805160ff1916838001178555614fe9565b82800160010185558215614fe9579182015b82811115614fe9578251825591602001919060010190614fce565b506148099291505b808211156148095760008155600101614ff1565b8035611a2381615f3d565b60008083601f840112615021578182fd5b5081356001600160401b03811115615037578182fd5b602083019150836020808302850101111561505157600080fd5b9250929050565b600082601f830112615068578081fd5b8135602061507d61507883615d42565b615d12565b8281528181019085830183850287018401881015615099578586fd5b855b858110156150be576150ac82615130565b8452928401929084019060010161509b565b5090979650505050505050565b600082601f8301126150db578081fd5b813560206150eb61507883615d42565b8281528181019085830183850287018401881015615107578586fd5b855b858110156150be57813584529284019290840190600101615109565b8035611a2381615f52565b80356001600160e01b031981168114611a2357600080fd5b60008083601f840112615159578182fd5b5081356001600160401b0381111561516f578182fd5b60208301915083602082850101111561505157600080fd5b600082601f830112615197578081fd5b81356001600160401b038111156151b0576151b0615f27565b6151c3601f8201601f1916602001615d12565b8181528460208386010111156151d7578283fd5b816020850160208301379081016020019190915292915050565b803560058110611a2357600080fd5b600060208284031215615211578081fd5b813561418881615f3d565b60006020828403121561522d578081fd5b815161418881615f3d565b60008060008060008060008060008060006101008c8e031215615259578687fd5b6152628c615005565b9a506001600160401b038060208e0135111561527c578788fd5b61528c8e60208f01358f01615010565b909b50995061529d60408e01615125565b98508060608e013511156152af578788fd5b6152bf8e60608f01358f01615010565b909850965060808d0135955060a08d01358110156152db578485fd5b6152eb8e60a08f01358f01615187565b94506152f960c08e016151f1565b93508060e08e0135111561530b578283fd5b5061531c8d60e08e01358e01615148565b81935080925050509295989b509295989b9093969950565b60008060408385031215615346578182fd5b823561535181615f3d565b946020939093013593505050565b600060208284031215615370578081fd5b815161418881615f52565b6000806040838503121561538d578182fd5b825161539881615f52565b809250506020808401516001600160401b038111156153b5578283fd5b8401601f810186136153c5578283fd5b80516153d361507882615d42565b81815283810190838501858402850186018a10156153ef578687fd5b8694505b838510156154115780518352600194909401939185019185016153f3565b5080955050505050509250929050565b600060208284031215615432578081fd5b5035919050565b60006020828403121561544a578081fd5b5051919050565b6000806000806000806000806000806101408b8d031215615470578384fd5b6154798b615130565b995060208b01356001600160401b0380821115615494578586fd5b6154a08e838f01615187565b9a5060408d01359150808211156154b5578586fd5b6154c18e838f01615187565b99506154cf60608e01615130565b985060808d0135975060a08d01359150808211156154eb578586fd5b6154f78e838f01615187565b965060c08d0135955060e08d0135915080821115615513578485fd5b61551f8e838f01615187565b94506101008d0135915080821115615535578384fd5b6155418e838f016150cb565b93506101208d0135915080821115615557578283fd5b506155648d828e016150cb565b9150509295989b9194979a5092959850565b60008060006040848603121561558a578081fd5b83356001600160401b03808211156155a0578283fd5b6155ac87838801615148565b909550935060208601359150808211156155c4578283fd5b506155d1868287016150cb565b9150509250925092565b60008060008060008060008060006101208a8c0312156155f9578283fd5b89356001600160401b038082111561560f578485fd5b61561b8d838e01615187565b9a5060208c0135915080821115615630578485fd5b61563c8d838e01615058565b995060408c0135915080821115615651578485fd5b61565d8d838e01615187565b985060608c0135915080821115615672578485fd5b61567e8d838e01615187565b975060808c0135915080821115615693578485fd5b61569f8d838e01615187565b965060a08c01359150808211156156b4578485fd5b6156c08d838e01615187565b955060c08c01359150808211156156d5578485fd5b6156e18d838e01615058565b945060e08c01359150808211156156f6578384fd5b6157028d838e01615187565b93506101008c0135915080821115615718578283fd5b506157258c828d016150cb565b9150509295985092959850929598565b60008060008060008060008060006101208a8c031215615753578283fd5b8935985060208a013561576581615f3d565b975060408a013561577581615f3d565b965060608a013561578581615f3d565b955060808a013561579581615f3d565b989b979a50959894979660a0860135965060c08601359560e0810135955061010001359350915050565b6000806000806000608086880312156157d6578283fd5b8535945060208601356001600160401b03808211156157f3578485fd5b6157ff89838a01615187565b955061580d604089016151f1565b94506060880135915080821115615822578283fd5b5061582f88828901615148565b969995985093965092949392505050565b6000815180845260208085019450808401835b838110156158795781516001600160e01b03191687529582019590820190600101615853565b509495945050505050565b60008284528282602086013780602084860101526020601f19601f85011685010190509392505050565b600081518084526158c6816020860160208601615e91565b601f01601f19169290920160200192915050565b600581106158f857634e487b7160e01b600052602160045260246000fd5b9052565b600063ffffffff60e01b8087168352855161591e816004860160208a01615e91565b855190840190615935816004840160208a01615e91565b919094169301600481019390935250506008019392505050565b60008251615961818460208701615e91565b9190910192915050565b600060018060a01b038716825285602083015284604083015260a0606083015261599860a08301856158ae565b90508260808301529695505050505050565b6001600160a01b038616815260a0602082018190526000906159ce908301876158ae565b604083019590955250606081019290925260809091015292915050565b600060208252612a93602083018486615884565b600060408252615a13604083018587615884565b9050826020830152949350505050565b60006020825261418860208301846158ae565b6000610100808352615a4a8184018c6158ae565b915050615a5a602083018a6158da565b60408201979097526001600160a01b039586166060820152608081019490945260a084019290925290921660c082015260e0015292915050565b60006101208b835260208b8185015260018060a01b038b1660408501528960608501528860808501528160a0850152615acf82850189615840565b915083820360c0850152615ae38288615840565b915083820360e0850152615af782876158ae565b8481036101008601528551808252828701935090820190845b81811015615b2c57845183529383019391830191600101615b10565b50909e9d5050505050505050505050505050565b6020808252601a908201527f43434275726e526f757465723a207a65726f2061646472657373000000000000604082015260600190565b6020808252601b908201527f426974636f696e48656c7065723a20766f7574206973206e756c6c0000000000604082015260600190565b60208082526018908201527f43434275726e526f757465723a206e6f74206c6f636b65720000000000000000604082015260600190565b6020808252602b908201527f496e697469616c697a61626c653a20636f6e7472616374206973206e6f74206960408201526a6e697469616c697a696e6760a81b606082015260800190565b888152602081018890526001600160a01b038716604082015261010060608201819052600090615c62838201896158ae565b91505085608083015284151560a0830152615c8060c08301856158da565b8260e08301529998505050505050505050565b878152602080820188905260c0604083018190528201869052600090879060e08401835b89811015615ce5578335615cca81615f3d565b6001600160a01b031682529282019290820190600101615cb7565b506001600160a01b039790971660608501525050506080810192909252151560a090910152949350505050565b604051601f8201601f191681016001600160401b0381118282101715615d3a57615d3a615f27565b604052919050565b60006001600160401b03821115615d5b57615d5b615f27565b5060209081020190565b60008219821115615d7857615d78615f11565b500190565b60006001600160401b03808316818516808303821115615d9f57615d9f615f11565b01949350505050565b600060ff821660ff84168060ff03821115615dc557615dc5615f11565b019392505050565b60006001600160601b03808316818516808303821115615d9f57615d9f615f11565b600082615e0a57634e487b7160e01b81526012600452602481fd5b500490565b6000816000190483118215151615615e2957615e29615f11565b500290565b600060ff821660ff84168160ff0481118215151615615e4f57615e4f615f11565b029392505050565b600082821015615e6957615e69615f11565b500390565b600060ff821660ff841680821015615e8857615e88615f11565b90039392505050565b60005b83811015615eac578181015183820152602001615e94565b83811115615ebb576000848401525b50505050565b600281046001821680615ed557607f821691505b60208210811415614f6f57634e487b7160e01b600052602260045260246000fd5b6000600019821415615f0a57615f0a615f11565b5060010190565b634e487b7160e01b600052601160045260246000fd5b634e487b7160e01b600052604160045260246000fd5b6001600160a01b038116811461094357600080fd5b801515811461094357600080fdfea2646970667358221220ab4a09f7578815281bd831860c601e34fca9dbadb9fd20e27779ffe5c05bc18564736f6c63430008020033",
  "deployedBytecode": "0x6080604052600436106101d15760003560e01c80638d3d78cd116100f7578063bed6a60211610095578063ea73263711610064578063ea7326371461052b578063f0f442601461053e578063f2fde38b1461055e578063f47e22401461057e576101d8565b8063bed6a602146104c2578063c780c03f146104d8578063c805f68b146104eb578063cdbe37411461050b576101d8565b8063930a60e8116100d1578063930a60e81461043f578063b14d35321461046c578063b59589d11461048c578063b74d0d35146104ac576101d8565b80638d3d78cd146103e15780638d774f8e146104015780638da5cb5b14610421576101d8565b80635c4f5f3e1161016f57806373532b2a1161013e57806373532b2a146103615780637ed55748146103815780637f0f1817146103a15780637ffe9a92146103c1576101d8565b80635c4f5f3e146102f657806361d027b31461031657806370872aa514610336578063715018a61461034c576101d8565b80631e236168116101ab5780631e23616814610260578063419cba7f146102a057806343149dba146102b65780634782bc36146102d6576101d8565b80631812adb6146101dd5780631876dec4146102065780631d9278981461023e576101d8565b366101d857005b600080fd5b3480156101e957600080fd5b506101f360065481565b6040519081526020015b60405180910390f35b34801561021257600080fd5b50600254610226906001600160a01b031681565b6040516001600160a01b0390911681526020016101fd565b34801561024a57600080fd5b5061025e610259366004615735565b6105b2565b005b34801561026c57600080fd5b5061029061027b366004615421565b600b6020526000908152604090205460ff1681565b60405190151581526020016101fd565b3480156102ac57600080fd5b506101f360075481565b3480156102c257600080fd5b506101f36102d13660046157bf565b61072d565b3480156102e257600080fd5b5061025e6102f1366004615421565b610932565b34801561030257600080fd5b5061025e610311366004615421565b610946565b34801561032257600080fd5b50600454610226906001600160a01b031681565b34801561034257600080fd5b506101f360005481565b34801561035857600080fd5b5061025e61094f565b34801561036d57600080fd5b5061025e61037c366004615576565b610959565b34801561038d57600080fd5b5061025e61039c366004615421565b6110ca565b3480156103ad57600080fd5b5061025e6103bc366004615200565b6110db565b3480156103cd57600080fd5b506102906103dc366004615334565b6110ec565b3480156103ed57600080fd5b50600354610226906001600160a01b031681565b34801561040d57600080fd5b506101f361041c366004615238565b611144565b34801561042d57600080fd5b50603f546001600160a01b0316610226565b34801561044b57600080fd5b506101f361045a366004615200565b600a6020526000908152604090205481565b34801561047857600080fd5b5061025e610487366004615200565b6111e8565b34801561049857600080fd5b50600154610226906001600160a01b031681565b3480156104b857600080fd5b506101f360085481565b3480156104ce57600080fd5b506101f360055481565b61025e6104e63660046155db565b6111f9565b3480156104f757600080fd5b5061025e610506366004615200565b611515565b34801561051757600080fd5b5061025e610526366004615421565b611526565b610290610539366004615451565b611537565b34801561054a57600080fd5b5061025e610559366004615200565b611891565b34801561056a57600080fd5b5061025e610579366004615200565b6118a2565b34801561058a57600080fd5b5061059e610599366004615334565b611918565b6040516101fd989796959493929190615c30565b600c54610100900460ff16158080156105d25750600c54600160ff909116105b806105f357506105e130611a15565b1580156105f35750600c5460ff166001145b61065b5760405162461bcd60e51b815260206004820152602e60248201527f496e697469616c697a61626c653a20636f6e747261637420697320616c72656160448201526d191e481a5b9a5d1a585b1a5e995960921b60648201526084015b60405180910390fd5b600c805460ff19166001179055801561067e57600c805461ff0019166101001790555b610686611a28565b61068e611a57565b60008a905561069c89611a86565b6106a588611b17565b6106ae87611ba8565b6106b786611c39565b6106c085611cca565b6106c984611e6d565b6106d283611f00565b6106db82611f93565b801561072157600c805461ff0019169055604051600181527f7f26b83ff96e1f2b6a682f133852f6798a09c465da95921460cefb38474024989060200160405180910390a15b50505050505050505050565b6000610737612026565b6003546001600160a01b03166323b872dd336040516001600160e01b031960e084901b1681526001600160a01b03909116600482015230602482015260448101899052606401602060405180830381600087803b15801561079757600080fd5b505af11580156107ab573d6000803e3d6000fd5b505050506040513d601f19601f820116820180604052508101906107cf919061535f565b506000806107e08888888888612080565b6001600160a01b038116600090815260096020526040902080549294509092509061080d90600190615e57565b8154811061082b57634e487b7160e01b600052603260045260246000fd5b9060005260206000209060070201600401546108443390565b6001600160a01b03167fc19dabf19fdfd8c6124bed2178a4564d0c5d5812bfb916777cc90d1b53ed5a5a89896000808e8989600960008c6001600160a01b03166001600160a01b031681526020019081526020016000206001600960008e6001600160a01b03166001600160a01b03168152602001908152602001600020805490506108d09190615e57565b815481106108ee57634e487b7160e01b600052603260045260246000fd5b906000526020600020906007020160060154604051610914989796959493929190615a36565b60405180910390a35090506109296001607155565b95945050505050565b61093a6123a4565b61094381611f00565b50565b61094381611cca565b6109576123a4565b565b610961612026565b60025460405163aff2faa360e01b81526001600160a01b039091169063aff2faa39061099390869086906004016159eb565b60206040518083038186803b1580156109ab57600080fd5b505afa1580156109bf573d6000803e3d6000fd5b505050506040513d601f19601f820116820180604052508101906109e3919061535f565b6109ff5760405162461bcd60e51b815260040161065290615bae565b60025460405163626885b560e11b81526000916001600160a01b03169063c4d10b6a90610a3290879087906004016159eb565b60206040518083038186803b158015610a4a57600080fd5b505afa158015610a5e573d6000803e3d6000fd5b505050506040513d601f19601f82011682018060405250810190610a82919061521c565b6001546040516310889dc360e01b81526001600160a01b03909116600482015290915060009073__$b2d4c044db363f4bd023a450a1a4a26d98$__906310889dc39060240160206040518083038186803b158015610adf57600080fd5b505af4158015610af3573d6000803e3d6000fd5b505050506040513d601f19601f82011682018060405250810190610b179190615439565b905060005b83518110156110b8576001600160a01b03831660009081526009602052604090208451859083908110610b5f57634e487b7160e01b600052603260045260246000fd5b602002602001015181548110610b8557634e487b7160e01b600052603260045260246000fd5b600091825260209091206005600790920201015460ff1615610be95760405162461bcd60e51b815260206004820152601a60248201527f43434275726e526f757465723a20616c726561647920706169640000000000006044820152606401610652565b6001600160a01b03831660009081526009602052604090208451839190869084908110610c2657634e487b7160e01b600052603260045260246000fd5b602002602001015181548110610c4c57634e487b7160e01b600052603260045260246000fd5b90600052602060002090600702016004015410610cb55760405162461bcd60e51b815260206004820152602160248201527f43434275726e526f757465723a20646561646c696e65206e6f742070617373656044820152601960fa1b6064820152608401610652565b6001600160a01b0383166000908152600960205260409020845160019190869084908110610cf357634e487b7160e01b600052603260045260246000fd5b602002602001015181548110610d1957634e487b7160e01b600052603260045260246000fd5b60009182526020808320600792830201600501805460ff19169415159490941790935560025490546001600160a01b0387811684526009909452604090922087519390911692631697565b928792612710928a9088908110610d8b57634e487b7160e01b600052603260045260246000fd5b602002602001015181548110610db157634e487b7160e01b600052603260045260246000fd5b906000526020600020906007020160000154610dcd9190615e0f565b610dd79190615def565b336001600160a01b038816600090815260096020526040902089518a9088908110610e1257634e487b7160e01b600052603260045260246000fd5b602002602001015181548110610e3857634e487b7160e01b600052603260045260246000fd5b906000526020600020906007020160000154600960008a6001600160a01b03166001600160a01b031681526020019081526020016000208a8881518110610e8f57634e487b7160e01b600052603260045260246000fd5b602002602001015181548110610eb557634e487b7160e01b600052603260045260246000fd5b600091825260209091206007909102016002015460405160e087901b6001600160e01b03191681526001600160a01b03958616600482015260248101949094529184166044840152606483015291909116608482015260a401602060405180830381600087803b158015610f2857600080fd5b505af1158015610f3c573d6000803e3d6000fd5b505050506040513d601f19601f82011682018060405250810190610f60919061535f565b506001600160a01b03831660008181526009602052604090208551869084908110610f9b57634e487b7160e01b600052603260045260246000fd5b602002602001015181548110610fc157634e487b7160e01b600052603260045260246000fd5b906000526020600020906007020160020160009054906101000a90046001600160a01b03166001600160a01b03167f58c23b4ae0617be275628875bcfd65759a441263099a256eeb27899fb5dd846d888860096000896001600160a01b03166001600160a01b0316815260200190815260200160002089878151811061105757634e487b7160e01b600052603260045260246000fd5b60200260200101518154811061107d57634e487b7160e01b600052603260045260246000fd5b90600052602060002090600702016006015460405161109e939291906159ff565b60405180910390a3806110b081615ef6565b915050610b1c565b5050506110c56001607155565b505050565b6110d26123a4565b61094381611e6d565b6110e36123a4565b61094381611c39565b6001600160a01b038216600090815260096020526040812080548390811061112457634e487b7160e01b600052603260045260246000fd5b600091825260209091206005600790920201015460ff1690505b92915050565b600061114e612026565b600061115f8d8d8d8d8d8d8d6123fe565b90506111cc8c8c600081811061118557634e487b7160e01b600052603260045260246000fd5b905060200201358a8a60008181106111ad57634e487b7160e01b600052603260045260246000fd5b90506020020160208101906111c29190615200565b838989898961284b565b9150506111d96001607155565b9b9a5050505050505050505050565b6111f06123a4565b61094381611b17565b611201612026565b60025460405163aff2faa360e01b81526001600160a01b039091169063aff2faa390611231908c90600401615a23565b60206040518083038186803b15801561124957600080fd5b505afa15801561125d573d6000803e3d6000fd5b505050506040513d601f19601f82011682018060405250810190611281919061535f565b61129d5760405162461bcd60e51b815260040161065290615bae565b60006112fb896000815181106112c357634e487b7160e01b600052603260045260246000fd5b60200260200101518989876000815181106112ee57634e487b7160e01b600052603260045260246000fd5b60200260200101516129a5565b905073__$b2d4c044db363f4bd023a450a1a4a26d98$__63e87c5882600b600554600160009054906101000a90046001600160a01b0316600054868f8b8b8b6040518a63ffffffff1660e01b815260040161135e99989796959493929190615a94565b60006040518083038186803b15801561137657600080fd5b505af415801561138a573d6000803e3d6000fd5b505050506000806113c38a856000815181106113b657634e487b7160e01b600052603260045260246000fd5b6020026020010151612a9b565b915091506114168b6001815181106113eb57634e487b7160e01b600052603260045260246000fd5b60200260200101518989896001815181106112ee57634e487b7160e01b600052603260045260246000fd5b82146114645760405162461bcd60e51b815260206004820152601d60248201527f43434275726e526f757465723a2077726f6e67206f75747075742074780000006044820152606401610652565b8b5160208d01206114758883612b4a565b80519060200120146114c95760405162461bcd60e51b815260206004820152601c60248201527f43434275726e526f757465723a206e6f7420666f72206c6f636b6572000000006044820152606401610652565b6114fd898d85876002815181106114f057634e487b7160e01b600052603260045260246000fd5b6020026020010151612bbe565b50505061150a6001607155565b505050505050505050565b61151d6123a4565b61094381611a86565b61152e6123a4565b61094381611f93565b6000611541612026565b6000548710156115935760405162461bcd60e51b815260206004820152601960248201527f43434275726e526f757465723a206f6c642072657175657374000000000000006044820152606401610652565b6001600160e01b03198816156115eb5760405162461bcd60e51b815260206004820181905260248201527f43434275726e526f757465723a206e6f6e2d7a65726f206c6f636b2074696d656044820152606401610652565b60025460405163aff2faa360e01b81526001600160a01b039091169063aff2faa39061161b908790600401615a23565b60206040518083038186803b15801561163357600080fd5b505afa158015611647573d6000803e3d6000fd5b505050506040513d601f19601f8201168201806040525081019061166b919061535f565b6116875760405162461bcd60e51b815260040161065290615bae565b81518351146116d85760405162461bcd60e51b815260206004820152601b60248201527f43434275726e526f757465723a2077726f6e6720696e646578657300000000006044820152606401610652565b60006116e68c8c8c8c6129a5565b600154604051637ebc232760e01b815291925073__$b2d4c044db363f4bd023a450a1a4a26d98$__91637ebc232791611735916001600160a01b039091169085908d908d908d9060040161596b565b60206040518083038186803b15801561174d57600080fd5b505af4158015611761573d6000803e3d6000fd5b505050506040513d601f19601f82011682018060405250810190611785919061535f565b6117d15760405162461bcd60e51b815260206004820152601b60248201527f43434275726e526f757465723a206e6f742066696e616c697a656400000000006044820152606401610652565b60025460405163626885b560e11b81526000916001600160a01b03169063c4d10b6a90611802908990600401615a23565b60206040518083038186803b15801561181a57600080fd5b505afa15801561182e573d6000803e3d6000fd5b505050506040513d601f19601f82011682018060405250810190611852919061521c565b90506000611864838b848f8a8a612d8a565b9050611872818d89866132b9565b600193505050506118836001607155565b9a9950505050505050505050565b6118996123a4565b61094381611ba8565b6118aa6123a4565b6001600160a01b03811661190f5760405162461bcd60e51b815260206004820152602660248201527f4f776e61626c653a206e6577206f776e657220697320746865207a65726f206160448201526564647265737360d01b6064820152608401610652565b61094381613342565b6009602052816000526040600020818154811061193457600080fd5b600091825260209091206007909102018054600182015460028301546003840180549396509194506001600160a01b0316929161197090615ec1565b80601f016020809104026020016040519081016040528092919081815260200182805461199c90615ec1565b80156119e95780601f106119be576101008083540402835291602001916119e9565b820191906000526020600020905b8154815290600101906020018083116119cc57829003601f168201915b505050600484015460058501546006909501549394909360ff8083169450610100909204909116915088565b6001600160a01b0381163b15155b919050565b600c54610100900460ff16611a4f5760405162461bcd60e51b815260040161065290615be5565b610957613394565b600c54610100900460ff16611a7e5760405162461bcd60e51b815260040161065290615be5565b6109576133c4565b806001600160a01b038116611aad5760405162461bcd60e51b815260040161065290615b40565b600154604080516001600160a01b03928316815291841660208301527f4c28a3f61a715259c4dc930c23e7423b8fa52e13232c061a6e488729c66184f4910160405180910390a150600180546001600160a01b0319166001600160a01b0392909216919091179055565b806001600160a01b038116611b3e5760405162461bcd60e51b815260040161065290615b40565b600254604080516001600160a01b03928316815291841660208301527ffa021c2ec0f46429a53e7f88b88065e40001f50c9d38b2e8b713beaf9828d4c3910160405180910390a150600280546001600160a01b0319166001600160a01b0392909216919091179055565b806001600160a01b038116611bcf5760405162461bcd60e51b815260040161065290615b40565b600454604080516001600160a01b03928316815291841660208301527f567657fa3f286518b318f4a29870674f433f622fdfc819691acb13105b228225910160405180910390a150600480546001600160a01b0319166001600160a01b0392909216919091179055565b806001600160a01b038116611c605760405162461bcd60e51b815260040161065290615b40565b600354604080516001600160a01b03928316815291841660208301527f36a4c08a38b736dcecb6c328dba61238529620e83ccb23db2cc43cd34ec26096910160405180910390a150600380546001600160a01b0319166001600160a01b0392909216919091179055565b6001546040516353bcd1c960e11b81526001600160a01b03909116600482015260009073__$b2d4c044db363f4bd023a450a1a4a26d98$__9063a779a3929060240160206040518083038186803b158015611d2457600080fd5b505af4158015611d38573d6000803e3d6000fd5b505050506040513d601f19601f82011682018060405250810190611d5c9190615439565b9050611d70603f546001600160a01b031690565b6001600160a01b0316336001600160a01b03161480611d90575080600554105b611ddc5760405162461bcd60e51b815260206004820152601760248201527f43434275726e526f757465723a206e6f207065726d69740000000000000000006044820152606401610652565b808211611e2b5760405162461bcd60e51b815260206004820152601a60248201527f43434275726e526f757465723a206c6f7720646561646c696e650000000000006044820152606401610652565b60055460408051918252602082018490527f92c10a242ca42973030420e2ee32b3ba7818cc643f896958f620c606cf300416910160405180910390a150600555565b806127101015611ebf5760405162461bcd60e51b815260206004820152601960248201527f43434275726e526f757465723a20696e76616c696420666565000000000000006044820152606401610652565b60065460408051918252602082018390527f7d205f60891f60851c61cd244ba387d72b6589e7c0ac41b9d909ab0ce2c2a53b910160405180910390a1600655565b806127101015611f525760405162461bcd60e51b815260206004820152601c60248201527f43434275726e526f757465723a20696e76616c696420726577617264000000006044820152606401610652565b60075460408051918252602082018390527faa50b3683e42a13535a5b9c2c32780cccf956fb546b523a3542ac4ad8b544f67910160405180910390a1600755565b60085460408051918252602082018390527f47c5f9c13c35ebb166f6a8d8c56af73f8b323ac0fee7aec4a5e0490bbf67a4fe910160405180910390a18061271010156120215760405162461bcd60e51b815260206004820152601d60248201527f43434275726e526f757465723a20696e76616c696420627463206665650000006044820152606401610652565b600855565b600260715414156120795760405162461bcd60e51b815260206004820152601f60248201527f5265656e7472616e637947756172643a207265656e7472616e742063616c6c006044820152606401610652565b6002607155565b60008061208d86866133eb565b60025460405163aff2faa360e01b81526001600160a01b039091169063aff2faa3906120bf90879087906004016159eb565b60206040518083038186803b1580156120d757600080fd5b505afa1580156120eb573d6000803e3d6000fd5b505050506040513d601f19601f8201168201806040525081019061210f919061535f565b61212b5760405162461bcd60e51b815260040161065290615bae565b60025460405163626885b560e11b81526001600160a01b039091169063c4d10b6a9061215d90879087906004016159eb565b60206040518083038186803b15801561217557600080fd5b505afa158015612189573d6000803e3d6000fd5b505050506040513d601f19601f820116820180604052508101906121ad919061521c565b905060006121ba886134e8565b60035460025460405163095ea7b360e01b81526001600160a01b03918216600482015260248101849052929350169063095ea7b390604401602060405180830381600087803b15801561220c57600080fd5b505af1158015612220573d6000803e3d6000fd5b505050506040513d601f19601f82011682018060405250810190612244919061535f565b5080600854826122549190615e57565b6002546040516338463cff60e01b81526001600160a01b03909116906338463cff90612288908a908a9088906004016159ff565b602060405180830381600087803b1580156122a257600080fd5b505af11580156122b6573d6000803e3d6000fd5b505050506040513d601f19601f820116820180604052508101906122da9190615439565b6122e49190615e0f565b6122ee9190615def565b6001546040516310889dc360e01b81526001600160a01b03909116600482015290935061239290899085908a908a9073__$b2d4c044db363f4bd023a450a1a4a26d98$__906310889dc39060240160206040518083038186803b15801561235457600080fd5b505af4158015612368573d6000803e3d6000fd5b505050506040513d601f19601f8201168201806040525081019061238c9190615439565b87613611565b509550959350505050565b6001607155565b603f546001600160a01b031633146109575760405162461bcd60e51b815260206004820181905260248201527f4f776e61626c653a2063616c6c6572206973206e6f7420746865206f776e65726044820152606401610652565b6003546000906001600160a01b0316848461241a600182615e57565b81811061243757634e487b7160e01b600052603260045260246000fd5b905060200201602081019061244c9190615200565b6001600160a01b0316146124a25760405162461bcd60e51b815260206004820152601a60248201527f43434275726e526f757465723a20696e76616c696420706174680000000000006044820152606401610652565b600286146124f25760405162461bcd60e51b815260206004820152601b60248201527f43434275726e526f757465723a2077726f6e6720616d6f756e747300000000006044820152606401610652565b8383600081811061251357634e487b7160e01b600052603260045260246000fd5b90506020020160208101906125289190615200565b6001600160a01b03166323b872dd33308a8a600081811061255957634e487b7160e01b600052603260045260246000fd5b6040516001600160e01b031960e088901b1681526001600160a01b03958616600482015294909316602485015250602090910201356044820152606401602060405180830381600087803b1580156125b057600080fd5b505af11580156125c4573d6000803e3d6000fd5b505050506040513d601f19601f820116820180604052508101906125e8919061535f565b508383600081811061260a57634e487b7160e01b600052603260045260246000fd5b905060200201602081019061261f9190615200565b6001600160a01b031663095ea7b3898989600081811061264f57634e487b7160e01b600052603260045260246000fd5b6040516001600160e01b031960e087901b1681526001600160a01b0390941660048501526020029190910135602483015250604401602060405180830381600087803b15801561269e57600080fd5b505af11580156126b2573d6000803e3d6000fd5b505050506040513d601f19601f820116820180604052508101906126d6919061535f565b50600080896001600160a01b031663b0bbcd888a8a600081811061270a57634e487b7160e01b600052603260045260246000fd5b905060200201358b8b600181811061273257634e487b7160e01b600052603260045260246000fd5b905060200201358989308a8e6040518863ffffffff1660e01b81526004016127609796959493929190615c93565b600060405180830381600087803b15801561277a57600080fd5b505af115801561278e573d6000803e3d6000fd5b505050506040513d6000823e601f3d908101601f191682016040526127b6919081019061537b565b91509150816128075760405162461bcd60e51b815260206004820152601d60248201527f43434275726e526f757465723a2065786368616e6765206661696c65640000006044820152606401610652565b80600182516128169190615e57565b8151811061283457634e487b7160e01b600052603260045260246000fd5b602002602001015192505050979650505050505050565b600080600061285d8888888888612080565b6001600160a01b038116600090815260096020526040902080549294509092509061288a90600190615e57565b815481106128a857634e487b7160e01b600052603260045260246000fd5b9060005260206000209060070201600401546128c13390565b6001600160a01b03167fc19dabf19fdfd8c6124bed2178a4564d0c5d5812bfb916777cc90d1b53ed5a5a89898e8e8e8989600960008c6001600160a01b03166001600160a01b031681526020019081526020016000206001600960008e6001600160a01b03166001600160a01b031681526020019081526020016000208054905061294c9190615e57565b8154811061296a57634e487b7160e01b600052603260045260246000fd5b906000526020600020906007020160060154604051612990989796959493929190615a36565b60405180910390a35098975050505050505050565b6000806002868686866040516020016129c194939291906158fc565b60408051601f19818403018152908290526129db9161594f565b602060405180830381855afa1580156129f8573d6000803e3d6000fd5b5050506040513d601f19601f82011682018060405250810190612a1b9190615439565b90506000600282604051602001612a3491815260200190565b60408051601f1981840301815290829052612a4e9161594f565b602060405180830381855afa158015612a6b573d6000803e3d6000fd5b5050506040513d601f19601f82011682018060405250810190612a8e9190615439565b925050505b949350505050565b60008080612ab1612aac86836137d9565b6137f4565b905062ffffff198082161415612b095760405162461bcd60e51b815260206004820152601a60248201527f426974636f696e48656c7065723a2076696e206973206e756c6c0000000000006044820152606401610652565b6000612b15828661392a565b90506000612b2282613a48565b9050612b2d81613a6c565b9450612b3881613a8e565b63ffffffff1693505050509250929050565b60606000612b62612b5d825b86906137d9565b613ab8565b905062ffffff198082161415612b8a5760405162461bcd60e51b815260040161065290615b77565b6000612b968285613ba9565b90506000612ba382613ca3565b9050612bb462ffffff198216613cf4565b9695505050505050565b6000612bc985613d44565b60025460405163626885b560e11b81526001600160401b039290921692506000916001600160a01b039091169063c4d10b6a90612c0a908890600401615a23565b60206040518083038186803b158015612c2257600080fd5b505afa158015612c36573d6000803e3d6000fd5b505050506040513d601f19601f82011682018060405250810190612c5a919061521c565b6002546007549192506001600160a01b03169063b734de2690839061271090612c839087615e0f565b612c8d9190615def565b3360405160e085901b6001600160e01b03191681526001600160a01b0393841660048201526024810192909252909116604482015260648101859052608401602060405180830381600087803b158015612ce657600080fd5b505af1158015612cfa573d6000803e3d6000fd5b505050506040513d601f19601f82011682018060405250810190612d1e919061535f565b507f7ff138134e34ccab071315c38e38eec079f54726b890304ab46e2c5ab6f722bb8186858761271060075488612d559190615e0f565b612d5f9190615def565b612d699088615d65565b604051612d7a9594939291906159aa565b60405180910390a1505050505050565b60008080805b85518110156132ac5780612dcd57848181518110612dbe57634e487b7160e01b600052603260045260246000fd5b60200260200101519150612e7a565b81858281518110612dee57634e487b7160e01b600052603260045260246000fd5b602002602001015111612e4f5760405162461bcd60e51b8152602060048201526024808201527f43434275726e526f757465723a20756e2d736f7274656420766f757420696e646044820152636578657360e01b6064820152608401610652565b848181518110612e6f57634e487b7160e01b600052603260045260246000fd5b602002602001015191505b6000868281518110612e9c57634e487b7160e01b600052603260045260246000fd5b60200260200101519050600960008a6001600160a01b03166001600160a01b031681526020019081526020016000208181548110612eea57634e487b7160e01b600052603260045260246000fd5b600091825260209091206005600790920201015460ff16158015612f5957506001600160a01b038916600090815260096020526040902080548b919083908110612f4457634e487b7160e01b600052603260045260246000fd5b90600052602060002090600702016004015410155b156132995761310488878481518110612f8257634e487b7160e01b600052603260045260246000fd5b6020026020010151600960008d6001600160a01b03166001600160a01b031681526020019081526020016000208481548110612fce57634e487b7160e01b600052603260045260246000fd5b90600052602060002090600702016003018054612fea90615ec1565b80601f016020809104026020016040519081016040528092919081815260200182805461301690615ec1565b80156130635780601f1061303857610100808354040283529160200191613063565b820191906000526020600020905b81548152906001019060200180831161304657829003601f168201915b5050506001600160a01b038f166000908152600960205260409020805490925087915081106130a257634e487b7160e01b600052603260045260246000fd5b906000526020600020906007020160050160019054906101000a900460ff1660048111156130e057634e487b7160e01b600052602160045260246000fd5b60048111156130ff57634e487b7160e01b600052602160045260246000fd5b613dde565b6001600160401b0316935083600960008b6001600160a01b03166001600160a01b03168152602001908152602001600020828154811061315457634e487b7160e01b600052603260045260246000fd5b9060005260206000209060070201600101541415613299576001600160a01b0389166000908152600960205260409020805460019190839081106131a857634e487b7160e01b600052603260045260246000fd5b60009182526020909120600790910201600501805460ff19169115159190911790556131d5856001615d65565b6001600160a01b038a166000818152600960205260409020805492975090917f1b46655c2f394f2191cb246d5982dbe00ad671f0b590e75e97c90ee97f1f782a91908490811061323557634e487b7160e01b600052603260045260246000fd5b9060005260206000209060070201600601548d89868151811061326857634e487b7160e01b600052603260045260246000fd5b6020026020010151604051613290939291909283526020830191909152604082015260600190565b60405180910390a25b50806132a481615ef6565b915050612d90565b5050509695505050505050565b60006132c58484614019565b6001600160401b0316905060006132db8561411c565b905081158015906132f55750806132f3876001615d65565b145b15613318576000838152600b60205260409020805460ff1916600117905561333a565b8086141561333a576000838152600b60205260409020805460ff191660011790555b505050505050565b603f80546001600160a01b038381166001600160a01b0319831681179093556040519116919082907f8be0079c531659141344cd1fd0a4f28419497f9722a3daafe3b4186f6b6457e090600090a35050565b600c54610100900460ff166133bb5760405162461bcd60e51b815260040161065290615be5565b61095733613342565b600c54610100900460ff1661239d5760405162461bcd60e51b815260040161065290615be5565b600081600481111561340d57634e487b7160e01b600052602160045260246000fd5b14806134385750600481600481111561343657634e487b7160e01b600052602160045260246000fd5b145b1561349357815160201461348e5760405162461bcd60e51b815260206004820152601c60248201527f43434275726e526f757465723a20696e76616c696420736372697074000000006044820152606401610652565b6134e4565b81516014146134e45760405162461bcd60e51b815260206004820152601c60248201527f43434275726e526f757465723a20696e76616c696420736372697074000000006044820152606401610652565b5050565b600080612710600654846134fc9190615e0f565b6135069190615def565b905060085460026135179190615e0f565b6135219082615d65565b831161356f5760405162461bcd60e51b815260206004820152601860248201527f43434275726e526f757465723a206c6f7720616d6f756e7400000000000000006044820152606401610652565b600061357b8285615e57565b6003546004805460405163a9059cbb60e01b81526001600160a01b03918216928101929092526024820186905292935091169063a9059cbb90604401602060405180830381600087803b1580156135d157600080fd5b505af11580156135e5573d6000803e3d6000fd5b505050506040513d601f19601f82011682018060405250810190613609919061535f565b509392505050565b604080516101008101825260006080820181905260a0820181905260c0820181815260e0830191909152888252602082018890523392820192909252606081018690529084600481111561367557634e487b7160e01b600052602160045260246000fd5b9081600481111561369657634e487b7160e01b600052602160045260246000fd5b9052506005546136a69084615d65565b6080820152600060a082018190526001600160a01b038316808252600a6020818152604084205460e08601819052929093529091526136e6906001615d65565b6001600160a01b038381166000908152600a6020908152604080832094909455600981528382208054600180820183559184529282902086516007909402019283558582015190830155928401516002820180546001600160a01b0319169190931617909155606083015180518493613766926003850192910190614f75565b50608082015160048281019190915560a083015160058301805460ff19169115159190911780825560c08501519261ff0019909116906101009084908111156137bf57634e487b7160e01b600052602160045260246000fd5b021790555060e08201518160060155505050505050505050565b81516000906020840161092964ffffffffff85168284614148565b6000818161380a815b62ffffff1984169061418f565b50601884901c6001600160601b031661382a5762ffffff195b9250613923565b6000613837856000614269565b9050601885901c6001600160601b03166001600160401b0382166138645762ffffff195b94505050613923565b600061386f836143b0565b60ff16905060005b836001600160401b03168110156138eb578282106138a05762ffffff195b965050505050613923565b60006138c06138af8486615e57565b60055b62ffffff198c169190614409565b90506138cb8161443d565b6138d59084615d65565b92505080806138e390615ef6565b915050613877565b508181146139035762ffffff195b9550505050613923565b61391d60065b60d81b6301000000600160d81b0389161790565b95505050505b5050919050565b6000826006613938816137fd565b506000613946866000614269565b6001600160401b03169050601886901c6001600160601b03168186106139a15760405162461bcd60e51b815260206004820152601060248201526f2b34b7103932b0b21037bb32b9393ab760811b6044820152606401610652565b60006139ac836143b0565b60ff1690506000805b88811015613a04576139db6139ca8486615e57565b60055b62ffffff198d169190614409565b91506139e68261443d565b6139f09084615d65565b92506139fd600182615d65565b90506139b5565b50613a126138af8385615e57565b90506000613a1f8261443d565b9050613a38838260045b62ffffff198e16929190614491565b975050505050505b505092915050565b6000816004613a56816137fd565b50612a9362ffffff198516600060246003614491565b6000816003613a7a816137fd565b50612a9362ffffff19851660006020614501565b6000816003613a9c816137fd565b50612a93613ab362ffffff1986166020600461465a565b6147a4565b60008181613ac5816137fd565b50601884901c6001600160601b0316613ae25762ffffff19613823565b6000613aef856000614269565b9050601885901c6001600160601b03166001600160401b038216613b175762ffffff1961385b565b6000613b22836143b0565b60ff16905060005b836001600160401b0316811015613b8d57828210613b4c5762ffffff19613895565b6000613b62613b5b8486615e57565b600e6138b2565b9050613b6d8161480d565b613b779084615d65565b9250508080613b8590615ef6565b915050613b2a565b50818114613b9f5762ffffff196138f9565b61391d600f613909565b600082600f613bb7816137fd565b506000613bc5866000614269565b6001600160401b03169050601886901c6001600160601b0316818610613c215760405162461bcd60e51b81526020600482015260116024820152702b37baba103932b0b21037bb32b9393ab760791b6044820152606401610652565b6000613c2c836143b0565b60ff1690506000805b88811015613c7a57613c51613c4a8486615e57565b600e6139cd565b9150613c5c8261480d565b613c669084615d65565b9250613c73600182615d65565b9050613c35565b50613c88613b5b8385615e57565b90506000613c958261480d565b9050613a388382600d613a29565b600081600d613cb1816137fd565b506000613cbf856008614269565b9050610929613ccd826143b0565b613cd8906008615da8565b62ffffff1987169060ff166001600160401b0384166007614491565b6060600080613d0c8460181c6001600160601b031690565b60405193508392506001600160601b03169050613d3384613d2e846020615d65565b614856565b508181016020016040529052919050565b600080613d56612b5d825b85906137d9565b905062ffffff198082161415613d7e5760405162461bcd60e51b815260040161065290615b77565b600080613d8c836000614269565b6001600160401b0316905060005b81811015613dd557613dac8482613ba9565b9250613db7836149ae565b613dc19086615d7d565b945080613dcd81615ef6565b915050613d9a565b50505050919050565b600080613dee612b5d87836137d9565b905062ffffff198082161415613e165760405162461bcd60e51b815260040161065290615b77565b6000613e228287613ba9565b90506000613e2f82613ca3565b90506000856004811115613e5357634e487b7160e01b600052602160045260246000fd5b1415613eb857613e6c62ffffff19821660016020614501565b604051602001613e7e91815260200190565b60405160208183030381529060405280519060200120868051906020012014613ea8576000613eb1565b613eb1826149ae565b935061400e565b6001856004811115613eda57634e487b7160e01b600052602160045260246000fd5b1415613f1957613ef162ffffff19821660036149d3565b604051602001613e7e919060609190911b6bffffffffffffffffffffffff1916815260140190565b6002856004811115613f3b57634e487b7160e01b600052602160045260246000fd5b1415613f5257613ef162ffffff19821660026149d3565b6003856004811115613f7457634e487b7160e01b600052602160045260246000fd5b1415613f8b57613ef162ffffff19821660026149d3565b6004856004811115613fad57634e487b7160e01b600052602160045260246000fd5b141561400e57613fc662ffffff19821660026020614501565b604051602001613fd891815260200190565b6040516020818303038152906040528051906020012086805190602001201461400257600061400b565b61400b826149ae565b93505b505050949350505050565b600080614028612b5d82612b56565b905062ffffff1980821614156140505760405162461bcd60e51b815260040161065290615b77565b6000806000614060846000614269565b6001600160401b0316905060005b81811015614111576140808582613ba9565b935061408b84613ca3565b92508660405160200161409e919061594f565b604051602081830303815290604052805190602001206140c38462ffffff1916613cf4565b6040516020016140d3919061594f565b6040516020818303038152906040528051906020012014156140ff576140f8846149ae565b9550614111565b8061410981615ef6565b91505061406e565b505050505092915050565b60008061412b612b5d82613d4f565b9050614138816000614269565b6001600160401b03169392505050565b6000806141558385615d65565b9050604051811115614165575060005b806141775762ffffff19915050614188565b5050606083811b8317901b811760181b5b9392505050565b600061419b83836149e1565b6142625760006141ba6141ae8560d81c90565b64ffffffffff16614a04565b91505060006141cf8464ffffffffff16614a04565b6040517f5479706520617373657274696f6e206661696c65642e20476f7420307800000060208201526001600160b01b031960b086811b8216603d8401526c05c408af0e0cac6e8cac84060f609b1b604784015283901b16605482015290925060009150605e015b60405160208183030381529060405290508060405162461bcd60e51b81526004016106529190615a23565b5090919050565b60008061427e62ffffff198516846001614ab0565b905060fc81116142995761429181614ae0565b91505061113e565b8060fd14156142ff576142c76142c26142b3856001615d65565b62ffffff19871690600261465a565b614ae0565b91506142d2826143b0565b60ff166003146142fa576142f86142f362ffffff1986168560036000614491565b614b48565b505b6143a9565b8060fe1415614354576143286142c2614319856001615d65565b62ffffff19871690600461465a565b9150614333826143b0565b60ff166005146142fa576142f86142f362ffffff1986168560056000614491565b8060ff14156143a95761437d6142c261436e856001615d65565b62ffffff19871690600861465a565b9150614388826143b0565b60ff166009146143a957613a406142f362ffffff1986168560096000614491565b5092915050565b600060fc826001600160401b0316116143cb57506001611a23565b61ffff826001600160401b0316116143e557506003611a23565b63ffffffff826001600160401b03161161440157506005611a23565b506009611a23565b6000612a9384846144238760181c6001600160601b031690565b6001600160601b03166144369190615e57565b8585614491565b600081600561444b816137fd565b506000614459856024614269565b9050806001600160401b031661446e826143b0565b60ff1661447b9190615d65565b614486906024615d65565b610929906004615d65565b6000806144a78660781c6001600160601b031690565b6001600160601b031690506144bb86614bcf565b846144c68784615d65565b6144d09190615d65565b11156144e35762ffffff19915050612a93565b6144ed8582615d65565b9050612bb48364ffffffffff168286614148565b600060ff821661451357506000614188565b6145268460181c6001600160601b031690565b6001600160601b031661453c60ff841685615d65565b11156145a0576145876145588560781c6001600160601b031690565b6001600160601b03166145748660181c6001600160601b031690565b6001600160601b0316858560ff16614c10565b60405162461bcd60e51b81526004016106529190615a23565b60208260ff16111561461a5760405162461bcd60e51b815260206004820152603a60248201527f54797065644d656d566965772f696e646578202d20417474656d70746564207460448201527f6f20696e646578206d6f7265207468616e2033322062797465730000000000006064820152608401610652565b6008820260006146338660781c6001600160601b031690565b6001600160601b031690506000600160ff1b60001984011d91909501511695945050505050565b6000612a9361466a858585614501565b600881811c7eff00ff00ff00ff00ff00ff00ff00ff00ff00ff00ff00ff00ff00ff00ff00ff167fff00ff00ff00ff00ff00ff00ff00ff00ff00ff00ff00ff00ff00ff00ff00ff009290911b9190911617601081811c7dffff0000ffff0000ffff0000ffff0000ffff0000ffff0000ffff0000ffff167fffff0000ffff0000ffff0000ffff0000ffff0000ffff0000ffff0000ffff00009290911b9190911617602081811c7bffffffff00000000ffffffff00000000ffffffff00000000ffffffff167fffffffff00000000ffffffff00000000ffffffff00000000ffffffff000000009290911b9190911617604081811c77ffffffffffffffff0000000000000000ffffffffffffffff1677ffffffffffffffff0000000000000000ffffffffffffffff199290911b9190911617608081811c91901b1790565b600063ffffffff8211156148095760405162461bcd60e51b815260206004820152602660248201527f53616665436173743a2076616c756520646f65736e27742066697420696e203360448201526532206269747360d01b6064820152608401610652565b5090565b600081600e61481b816137fd565b506000614829856008614269565b9050806001600160401b031661483e826143b0565b60ff1661484b9190615d65565b610929906008615d65565b600062ffffff1980841614156148bf5760405162461bcd60e51b815260206004820152602860248201527f54797065644d656d566965772f636f7079546f202d204e756c6c20706f696e7460448201526732b9103232b932b360c11b6064820152608401610652565b6148c883614d3a565b6149285760405162461bcd60e51b815260206004820152602b60248201527f54797065644d656d566965772f636f7079546f202d20496e76616c696420706f60448201526a34b73a32b9103232b932b360a91b6064820152608401610652565b600061493d8460181c6001600160601b031690565b6001600160601b03169050600061495d8560781c6001600160601b031690565b6001600160601b03169050600060405190508481111561497d5760206060fd5b8285848460045afa50612bb46149938760d81c90565b64ffffffffff60601b606091821b168717901b841760181b90565b600081600d6149bc816137fd565b50612a936142c262ffffff1986166000600861465a565b600061418883836014614ab0565b60008164ffffffffff166149f58460d81c90565b64ffffffffff16149392505050565b600080601f5b600f8160ff161115614a62576000614a23826008615e2e565b60ff1685901c9050614a3481614d78565b61ffff16841793508160ff16601014614a4f57601084901b93505b50614a5b600182615e6e565b9050614a0a565b50600f5b60ff8160ff161015614aaa5760ff600882021684901c614a8581614d78565b61ffff16831792508160ff16600014614aa057601083901b92505b5060001901614a66565b50915091565b6000614abd826020615e6e565b614ac8906008615e2e565b60ff16614ad6858585614501565b901c949350505050565b60006001600160401b038211156148095760405162461bcd60e51b815260206004820152602660248201527f53616665436173743a2076616c756520646f65736e27742066697420696e203660448201526534206269747360d01b6064820152608401610652565b60606000614b7c614b7782614b69601887901c6001600160601b0316614da8565b62ffffff1987169190614ab0565b614a04565b6040517f4e6f6e2d6d696e696d616c2076617220696e742e20476f74203078000000000060208201526dffffffffffffffffffffffffffff19607083901b16603b82015290925060009150604d01614237565b6000614be48260181c6001600160601b031690565b614bf78360781c6001600160601b031690565b614c019190615dcd565b6001600160601b031692915050565b60606000614c1d86614a04565b9150506000614c2b86614a04565b9150506000614c3986614a04565b9150506000614c4786614a04565b604080517f54797065644d656d566965772f696e646578202d204f76657272616e20746865602082015274040ecd2caee5c40a6d8d2c6ca40d2e640c2e84060f605b1b818301526001600160d01b031960d098891b811660558301526e040eed2e8d040d8cadccee8d04060f608b1b605b830181905297891b8116606a8301527f2e20417474656d7074656420746f20696e646578206174206f666673657420306070830152600f60fb1b609083015295881b861660918201526097810196909652951b90921660a68401525050601760f91b60ac8201528151808203608d01815260ad90910190915295945050505050565b6000614d468260d81c90565b64ffffffffff1664ffffffffff1415614d6157506000611a23565b6000614d6c83614bcf565b60405110199392505050565b6000614d8a60048360ff16901c614e09565b60ff161760081b62ffff0016614d9f82614e09565b60ff1617919050565b600060ff8211156148095760405162461bcd60e51b815260206004820152602560248201527f53616665436173743a2076616c756520646f65736e27742066697420696e2038604482015264206269747360d81b6064820152608401610652565b600060f08083179060ff82161415614e25576030915050611a23565b8060ff1660f11415614e3b576031915050611a23565b8060ff1660f21415614e51576032915050611a23565b8060ff1660f31415614e67576033915050611a23565b8060ff1660f41415614e7d576034915050611a23565b8060ff1660f51415614e93576035915050611a23565b8060ff1660f61415614ea9576036915050611a23565b8060ff1660f71415614ebf576037915050611a23565b8060ff1660f81415614ed5576038915050611a23565b8060ff1660f91415614eeb576039915050611a23565b8060ff1660fa1415614f01576061915050611a23565b8060ff1660fb1415614f17576062915050611a23565b8060ff1660fc1415614f2d576063915050611a23565b8060ff1660fd1415614f43576064915050611a23565b8060ff1660fe1415614f59576065915050611a23565b8060ff1660ff1415614f6f576066915050611a23565b50919050565b828054614f8190615ec1565b90600052602060002090601f016020900481019282614fa35760008555614fe9565b82601f10614fbc57805160ff1916838001178555614fe9565b82800160010185558215614fe9579182015b82811115614fe9578251825591602001919060010190614fce565b506148099291505b808211156148095760008155600101614ff1565b8035611a2381615f3d565b60008083601f840112615021578182fd5b5081356001600160401b03811115615037578182fd5b602083019150836020808302850101111561505157600080fd5b9250929050565b600082601f830112615068578081fd5b8135602061507d61507883615d42565b615d12565b8281528181019085830183850287018401881015615099578586fd5b855b858110156150be576150ac82615130565b8452928401929084019060010161509b565b5090979650505050505050565b600082601f8301126150db578081fd5b813560206150eb61507883615d42565b8281528181019085830183850287018401881015615107578586fd5b855b858110156150be57813584529284019290840190600101615109565b8035611a2381615f52565b80356001600160e01b031981168114611a2357600080fd5b60008083601f840112615159578182fd5b5081356001600160401b0381111561516f578182fd5b60208301915083602082850101111561505157600080fd5b600082601f830112615197578081fd5b81356001600160401b038111156151b0576151b0615f27565b6151c3601f8201601f1916602001615d12565b8181528460208386010111156151d7578283fd5b816020850160208301379081016020019190915292915050565b803560058110611a2357600080fd5b600060208284031215615211578081fd5b813561418881615f3d565b60006020828403121561522d578081fd5b815161418881615f3d565b60008060008060008060008060008060006101008c8e031215615259578687fd5b6152628c615005565b9a506001600160401b038060208e0135111561527c578788fd5b61528c8e60208f01358f01615010565b909b50995061529d60408e01615125565b98508060608e013511156152af578788fd5b6152bf8e60608f01358f01615010565b909850965060808d0135955060a08d01358110156152db578485fd5b6152eb8e60a08f01358f01615187565b94506152f960c08e016151f1565b93508060e08e0135111561530b578283fd5b5061531c8d60e08e01358e01615148565b81935080925050509295989b509295989b9093969950565b60008060408385031215615346578182fd5b823561535181615f3d565b946020939093013593505050565b600060208284031215615370578081fd5b815161418881615f52565b6000806040838503121561538d578182fd5b825161539881615f52565b809250506020808401516001600160401b038111156153b5578283fd5b8401601f810186136153c5578283fd5b80516153d361507882615d42565b81815283810190838501858402850186018a10156153ef578687fd5b8694505b838510156154115780518352600194909401939185019185016153f3565b5080955050505050509250929050565b600060208284031215615432578081fd5b5035919050565b60006020828403121561544a578081fd5b5051919050565b6000806000806000806000806000806101408b8d031215615470578384fd5b6154798b615130565b995060208b01356001600160401b0380821115615494578586fd5b6154a08e838f01615187565b9a5060408d01359150808211156154b5578586fd5b6154c18e838f01615187565b99506154cf60608e01615130565b985060808d0135975060a08d01359150808211156154eb578586fd5b6154f78e838f01615187565b965060c08d0135955060e08d0135915080821115615513578485fd5b61551f8e838f01615187565b94506101008d0135915080821115615535578384fd5b6155418e838f016150cb565b93506101208d0135915080821115615557578283fd5b506155648d828e016150cb565b9150509295989b9194979a5092959850565b60008060006040848603121561558a578081fd5b83356001600160401b03808211156155a0578283fd5b6155ac87838801615148565b909550935060208601359150808211156155c4578283fd5b506155d1868287016150cb565b9150509250925092565b60008060008060008060008060006101208a8c0312156155f9578283fd5b89356001600160401b038082111561560f578485fd5b61561b8d838e01615187565b9a5060208c0135915080821115615630578485fd5b61563c8d838e01615058565b995060408c0135915080821115615651578485fd5b61565d8d838e01615187565b985060608c0135915080821115615672578485fd5b61567e8d838e01615187565b975060808c0135915080821115615693578485fd5b61569f8d838e01615187565b965060a08c01359150808211156156b4578485fd5b6156c08d838e01615187565b955060c08c01359150808211156156d5578485fd5b6156e18d838e01615058565b945060e08c01359150808211156156f6578384fd5b6157028d838e01615187565b93506101008c0135915080821115615718578283fd5b506157258c828d016150cb565b9150509295985092959850929598565b60008060008060008060008060006101208a8c031215615753578283fd5b8935985060208a013561576581615f3d565b975060408a013561577581615f3d565b965060608a013561578581615f3d565b955060808a013561579581615f3d565b989b979a50959894979660a0860135965060c08601359560e0810135955061010001359350915050565b6000806000806000608086880312156157d6578283fd5b8535945060208601356001600160401b03808211156157f3578485fd5b6157ff89838a01615187565b955061580d604089016151f1565b94506060880135915080821115615822578283fd5b5061582f88828901615148565b969995985093965092949392505050565b6000815180845260208085019450808401835b838110156158795781516001600160e01b03191687529582019590820190600101615853565b509495945050505050565b60008284528282602086013780602084860101526020601f19601f85011685010190509392505050565b600081518084526158c6816020860160208601615e91565b601f01601f19169290920160200192915050565b600581106158f857634e487b7160e01b600052602160045260246000fd5b9052565b600063ffffffff60e01b8087168352855161591e816004860160208a01615e91565b855190840190615935816004840160208a01615e91565b919094169301600481019390935250506008019392505050565b60008251615961818460208701615e91565b9190910192915050565b600060018060a01b038716825285602083015284604083015260a0606083015261599860a08301856158ae565b90508260808301529695505050505050565b6001600160a01b038616815260a0602082018190526000906159ce908301876158ae565b604083019590955250606081019290925260809091015292915050565b600060208252612a93602083018486615884565b600060408252615a13604083018587615884565b9050826020830152949350505050565b60006020825261418860208301846158ae565b6000610100808352615a4a8184018c6158ae565b915050615a5a602083018a6158da565b60408201979097526001600160a01b039586166060820152608081019490945260a084019290925290921660c082015260e0015292915050565b60006101208b835260208b8185015260018060a01b038b1660408501528960608501528860808501528160a0850152615acf82850189615840565b915083820360c0850152615ae38288615840565b915083820360e0850152615af782876158ae565b8481036101008601528551808252828701935090820190845b81811015615b2c57845183529383019391830191600101615b10565b50909e9d5050505050505050505050505050565b6020808252601a908201527f43434275726e526f757465723a207a65726f2061646472657373000000000000604082015260600190565b6020808252601b908201527f426974636f696e48656c7065723a20766f7574206973206e756c6c0000000000604082015260600190565b60208082526018908201527f43434275726e526f757465723a206e6f74206c6f636b65720000000000000000604082015260600190565b6020808252602b908201527f496e697469616c697a61626c653a20636f6e7472616374206973206e6f74206960408201526a6e697469616c697a696e6760a81b606082015260800190565b888152602081018890526001600160a01b038716604082015261010060608201819052600090615c62838201896158ae565b91505085608083015284151560a0830152615c8060c08301856158da565b8260e08301529998505050505050505050565b878152602080820188905260c0604083018190528201869052600090879060e08401835b89811015615ce5578335615cca81615f3d565b6001600160a01b031682529282019290820190600101615cb7565b506001600160a01b039790971660608501525050506080810192909252151560a090910152949350505050565b604051601f8201601f191681016001600160401b0381118282101715615d3a57615d3a615f27565b604052919050565b60006001600160401b03821115615d5b57615d5b615f27565b5060209081020190565b60008219821115615d7857615d78615f11565b500190565b60006001600160401b03808316818516808303821115615d9f57615d9f615f11565b01949350505050565b600060ff821660ff84168060ff03821115615dc557615dc5615f11565b019392505050565b60006001600160601b03808316818516808303821115615d9f57615d9f615f11565b600082615e0a57634e487b7160e01b81526012600452602481fd5b500490565b6000816000190483118215151615615e2957615e29615f11565b500290565b600060ff821660ff84168160ff0481118215151615615e4f57615e4f615f11565b029392505050565b600082821015615e6957615e69615f11565b500390565b600060ff821660ff841680821015615e8857615e88615f11565b90039392505050565b60005b83811015615eac578181015183820152602001615e94565b83811115615ebb576000848401525b50505050565b600281046001821680615ed557607f821691505b60208210811415614f6f57634e487b7160e01b600052602260045260246000fd5b6000600019821415615f0a57615f0a615f11565b5060010190565b634e487b7160e01b600052601160045260246000fd5b634e487b7160e01b600052604160045260246000fd5b6001600160a01b038116811461094357600080fd5b801515811461094357600080fdfea2646970667358221220ab4a09f7578815281bd831860c601e34fca9dbadb9fd20e27779ffe5c05bc18564736f6c63430008020033",
  "libraries": {
    "BurnRouterLib": "0x91EC82E2Ab885A27eF1c82A6237ebaF8b0A9bF24"
  },
  "devdoc": {
    "kind": "dev",
    "methods": {
      "burnProof(bytes4,bytes,bytes,bytes4,uint256,bytes,uint256,bytes,uint256[],uint256[])": {
        "details": "Makes isTransferred flag true for the paid requests",
        "params": {
          "_blockNumber": "Height of the block containing the Bitcoin tx",
          "_burnReqIndexes": "Indexes of requests that locker wants to provide proof for them",
          "_index": "Index of the Bitcoin tx the block",
          "_intermediateNodes": "Merkle inclusion proof for the Bitcoin tx",
          "_lockerLockingScript": "Locker's locking script that this burn request belongs to",
          "_locktime": "Lock time of the Bitcoin tx",
          "_version": "Version of the Bitcoin tx",
          "_vin": "Inputs of the Bitcoin tx",
          "_vout": "Outputs of the Bitcoin tx",
          "_voutIndexes": "Indexes of outputs that were used to pay burn requests.                      _voutIndexes[i] belongs to _burnReqIndexes[i]"
        }
      },
      "ccBurn(uint256,bytes,uint8,bytes)": {
        "details": "After submitting the burn request, Locker has a limited time      to send BTC and provide burn proof",
        "params": {
          "_amount": "of teleBTC that user wants to burn",
          "_lockerLockingScript": "of locker that should execute the burn request",
          "_scriptType": "User script type",
          "_userScript": "User script hash"
        },
        "returns": {
          "_0": "Amount of BTC that user receives"
        }
      },
      "ccExchangeAndBurn(address,uint256[],bool,address[],uint256,bytes,uint8,bytes)": {
        "details": "After exchanging, rest of the process is similar to ccBurn",
        "params": {
          "_amounts": "[inputTokenAmount, teleBTCAmount]",
          "_deadline": "of exchanging",
          "_exchangeConnector": "Address of exchange connector to be used",
          "_isFixedToken": "True if input token amount is fixed",
          "_path": "of exchanging inputToken to teleBTC"
        },
        "returns": {
          "_0": "Amount of BTC that user receives"
        }
      },
      "disputeBurn(bytes,uint256[])": {
        "params": {
          "_indices": "Indices of requests that their deadline has passed",
          "_lockerLockingScript": "Locker's locking script that the unpaid request belongs to"
        }
      },
      "disputeLocker(bytes,bytes4[],bytes,bytes,bytes,bytes,bytes4[],bytes,uint256[])": {
        "details": "Input tx is a malicious tx which shows that locker spent BTC      Output tx is the tx that was spent by locker in input tx      Output tx shows money goes to locker      Input tx shows locker steals the funds",
        "params": {
          "_indexesAndBlockNumbers": "Indices of malicious input in input tx,                                 input tx in block and block number of input tx",
          "_inputIntermediateNodes": "Merkle inclusion proof for the malicious transaction",
          "_inputVin": "Inputs of the malicious transaction",
          "_inputVout": "Outputs of the malicious transaction",
          "_lockerLockingScript": "Suspicious locker's locking script",
          "_locktimes": "Locktimes of input and output tx",
          "_outputVin": "Inputs of the spent transaction",
          "_outputVout": "Outputs of the spent transaction",
          "_versions": "Versions of input and output tx"
        }
      },
      "initialize(uint256,address,address,address,address,uint256,uint256,uint256,uint256)": {
        "params": {
          "_bitcoinFee": "Fee of submitting a transaction on Bitcoin",
          "_lockers": "Address of lockers contract",
          "_protocolPercentageFee": "Percentage of tokens that user pays to protocol for burning",
          "_relay": "Address of relay contract",
          "_slasherPercentageReward": "Percentage of tokens that slasher receives after slashing a locker",
          "_startingBlockNumber": "Requests that are included in a block older                              than _startingBlockNumber cannot be executed",
          "_teleBTC": "Address of teleBTC contract",
          "_transferDeadline": "of sending BTC to user (aster submitting a burn request)",
          "_treasury": "Address of the treasury of the protocol"
        }
      },
      "isTransferred(address,uint256)": {
        "params": {
          "_index": "the request for the locker",
          "_lockerTargetAddress": "Locker address on the target chain"
        }
      },
      "owner()": {
        "details": "Returns the address of the current owner."
      },
      "renounceOwnership()": {
        "details": "Leaves the contract without owner. It will not be possible to call `onlyOwner` functions anymore. Can only be called by the current owner. NOTE: Renouncing ownership will leave the contract without an owner, thereby removing any functionality that is only available to the owner."
      },
      "setBitcoinFee(uint256)": {
        "details": "Only owner can call this",
        "params": {
          "_bitcoinFee": "The new Bitcoin transaction fee"
        }
      },
      "setLockers(address)": {
        "details": "Only owner can call this",
        "params": {
          "_lockers": "The new lockers contract address"
        }
      },
      "setProtocolPercentageFee(uint256)": {
        "details": "Only owner can call this",
        "params": {
          "_protocolPercentageFee": "The new protocol percentage fee"
        }
      },
      "setRelay(address)": {
        "details": "Only owner can call this",
        "params": {
          "_relay": "The new relay contract address"
        }
      },
      "setSlasherPercentageReward(uint256)": {
        "details": "Only owner can call this",
        "params": {
          "_slasherPercentageReward": "The new slasher percentage reward"
        }
      },
      "setTeleBTC(address)": {
        "details": "Only owner can call this",
        "params": {
          "_teleBTC": "The new teleBTC contract address"
        }
      },
      "setTransferDeadline(uint256)": {
        "details": "Only owner can call this      Deadline should be greater than relay finalization parameter",
        "params": {
          "_transferDeadline": "The new transfer deadline"
        }
      },
      "setTreasury(address)": {
        "details": "Only owner can call this",
        "params": {
          "_treasury": "The new treasury address"
        }
      },
      "transferOwnership(address)": {
        "details": "Transfers ownership of the contract to a new account (`newOwner`). Can only be called by the current owner."
      }
    },
    "version": 1
  },
  "userdoc": {
    "events": {
      "CCBurn(address,bytes,uint8,uint256,address,uint256,uint256,address,uint256,uint256)": {
        "notice": "Emits when a burn request gets submitted"
      },
      "LockerDispute(address,bytes,uint256,bytes32,uint256)": {
        "notice": "Emits when a locker gets slashed for withdrawing BTC without proper reason"
      },
      "NewBitcoinFee(uint256,uint256)": {
        "notice": "Emits when bitcoin fee is updated"
      },
      "NewLockers(address,address)": {
        "notice": "Emits when lockers address is updated"
      },
      "NewProtocolPercentageFee(uint256,uint256)": {
        "notice": "Emits when percentage fee is updated"
      },
      "NewRelay(address,address)": {
        "notice": "Emits when relay address is updated"
      },
      "NewSlasherPercentageFee(uint256,uint256)": {
        "notice": "Emits when slasher percentage fee is updated"
      },
      "NewTeleBTC(address,address)": {
        "notice": "Emits when TeleBTC address is updated"
      },
      "NewTransferDeadline(uint256,uint256)": {
        "notice": "Emits when transfer deadline is updated"
      },
      "NewTreasury(address,address)": {
        "notice": "Emits when treasury address is updated"
      },
      "PaidCCBurn(address,uint256,bytes32,uint256)": {
        "notice": "Emits when a burn proof is provided"
      }
    },
    "kind": "user",
    "methods": {
      "burnProof(bytes4,bytes,bytes,bytes4,uint256,bytes,uint256,bytes,uint256[],uint256[])": {
        "notice": "Checks the correctness of burn proof (which is a Bitcoin tx)"
      },
      "ccBurn(uint256,bytes,uint8,bytes)": {
        "notice": "Records users burn request"
      },
      "ccExchangeAndBurn(address,uint256[],bool,address[],uint256,bytes,uint8,bytes)": {
        "notice": "Exchanges input token for teleBTC then burns it"
      },
      "disputeBurn(bytes,uint256[])": {
        "notice": "Slashes a locker if did not pay a cc burn request before its deadline"
      },
      "disputeLocker(bytes,bytes4[],bytes,bytes,bytes,bytes,bytes4[],bytes,uint256[])": {
        "notice": "Slashes a locker if they issue a tx that doesn't match any burn request"
      },
      "initialize(uint256,address,address,address,address,uint256,uint256,uint256,uint256)": {
        "notice": "Handles cross-chain burn requests"
      },
      "isTransferred(address,uint256)": {
        "notice": "Returns true is request has been processed"
      },
      "setBitcoinFee(uint256)": {
        "notice": "Updates Bitcoin transaction fee"
      },
      "setLockers(address)": {
        "notice": "Updates lockers contract address"
      },
      "setProtocolPercentageFee(uint256)": {
        "notice": "Updates protocol percentage fee for burning tokens"
      },
      "setRelay(address)": {
        "notice": "Updates relay contract address"
      },
      "setSlasherPercentageReward(uint256)": {
        "notice": "Updates slasher percentage reward for disputing lockers"
      },
      "setTeleBTC(address)": {
        "notice": "Updates teleBTC contract address"
      },
      "setTransferDeadline(uint256)": {
        "notice": "Updates deadline of executing burn requests"
      },
      "setTreasury(address)": {
        "notice": "Updates protocol treasury address"
      }
    },
    "version": 1
  },
  "storageLayout": {
    "storage": [
      {
        "astId": 17790,
        "contract": "contracts/routers/BurnRouterLogic.sol:BurnRouterLogic",
        "label": "startingBlockNumber",
        "offset": 0,
        "slot": "0",
        "type": "t_uint256"
      },
      {
        "astId": 17793,
        "contract": "contracts/routers/BurnRouterLogic.sol:BurnRouterLogic",
        "label": "relay",
        "offset": 0,
        "slot": "1",
        "type": "t_address"
      },
      {
        "astId": 17796,
        "contract": "contracts/routers/BurnRouterLogic.sol:BurnRouterLogic",
        "label": "lockers",
        "offset": 0,
        "slot": "2",
        "type": "t_address"
      },
      {
        "astId": 17799,
        "contract": "contracts/routers/BurnRouterLogic.sol:BurnRouterLogic",
        "label": "teleBTC",
        "offset": 0,
        "slot": "3",
        "type": "t_address"
      },
      {
        "astId": 17802,
        "contract": "contracts/routers/BurnRouterLogic.sol:BurnRouterLogic",
        "label": "treasury",
        "offset": 0,
        "slot": "4",
        "type": "t_address"
      },
      {
        "astId": 17805,
        "contract": "contracts/routers/BurnRouterLogic.sol:BurnRouterLogic",
        "label": "transferDeadline",
        "offset": 0,
        "slot": "5",
        "type": "t_uint256"
      },
      {
        "astId": 17808,
        "contract": "contracts/routers/BurnRouterLogic.sol:BurnRouterLogic",
        "label": "protocolPercentageFee",
        "offset": 0,
        "slot": "6",
        "type": "t_uint256"
      },
      {
        "astId": 17811,
        "contract": "contracts/routers/BurnRouterLogic.sol:BurnRouterLogic",
        "label": "slasherPercentageReward",
        "offset": 0,
        "slot": "7",
        "type": "t_uint256"
      },
      {
        "astId": 17814,
        "contract": "contracts/routers/BurnRouterLogic.sol:BurnRouterLogic",
        "label": "bitcoinFee",
        "offset": 0,
        "slot": "8",
        "type": "t_uint256"
      },
      {
        "astId": 17820,
        "contract": "contracts/routers/BurnRouterLogic.sol:BurnRouterLogic",
        "label": "burnRequests",
        "offset": 0,
        "slot": "9",
        "type": "t_mapping(t_address,t_array(t_struct(burnRequest)17781_storage)dyn_storage)"
      },
      {
        "astId": 17824,
        "contract": "contracts/routers/BurnRouterLogic.sol:BurnRouterLogic",
        "label": "burnRequestCounter",
        "offset": 0,
        "slot": "10",
        "type": "t_mapping(t_address,t_uint256)"
      },
      {
        "astId": 17829,
        "contract": "contracts/routers/BurnRouterLogic.sol:BurnRouterLogic",
        "label": "isUsedAsBurnProof",
        "offset": 0,
        "slot": "11",
        "type": "t_mapping(t_bytes32,t_bool)"
      },
      {
        "astId": 184,
        "contract": "contracts/routers/BurnRouterLogic.sol:BurnRouterLogic",
        "label": "_initialized",
        "offset": 0,
        "slot": "12",
        "type": "t_uint8"
      },
      {
        "astId": 187,
        "contract": "contracts/routers/BurnRouterLogic.sol:BurnRouterLogic",
        "label": "_initializing",
        "offset": 1,
        "slot": "12",
        "type": "t_bool"
      },
      {
        "astId": 871,
        "contract": "contracts/routers/BurnRouterLogic.sol:BurnRouterLogic",
        "label": "__gap",
        "offset": 0,
        "slot": "13",
        "type": "t_array(t_uint256)50_storage"
      },
      {
        "astId": 56,
        "contract": "contracts/routers/BurnRouterLogic.sol:BurnRouterLogic",
        "label": "_owner",
        "offset": 0,
        "slot": "63",
        "type": "t_address"
      },
      {
        "astId": 176,
        "contract": "contracts/routers/BurnRouterLogic.sol:BurnRouterLogic",
        "label": "__gap",
        "offset": 0,
        "slot": "64",
        "type": "t_array(t_uint256)49_storage"
      },
      {
        "astId": 487,
        "contract": "contracts/routers/BurnRouterLogic.sol:BurnRouterLogic",
        "label": "_status",
        "offset": 0,
        "slot": "113",
        "type": "t_uint256"
      },
      {
        "astId": 545,
        "contract": "contracts/routers/BurnRouterLogic.sol:BurnRouterLogic",
        "label": "__gap",
        "offset": 0,
        "slot": "114",
        "type": "t_array(t_uint256)49_storage"
      }
    ],
    "types": {
      "t_address": {
        "encoding": "inplace",
        "label": "address",
        "numberOfBytes": "20"
      },
      "t_array(t_struct(burnRequest)17781_storage)dyn_storage": {
        "base": "t_struct(burnRequest)17781_storage",
        "encoding": "dynamic_array",
        "label": "struct BurnRouterStorage.burnRequest[]",
        "numberOfBytes": "32"
      },
      "t_array(t_uint256)49_storage": {
        "base": "t_uint256",
        "encoding": "inplace",
        "label": "uint256[49]",
        "numberOfBytes": "1568"
      },
      "t_array(t_uint256)50_storage": {
        "base": "t_uint256",
        "encoding": "inplace",
        "label": "uint256[50]",
        "numberOfBytes": "1600"
      },
      "t_bool": {
        "encoding": "inplace",
        "label": "bool",
        "numberOfBytes": "1"
      },
      "t_bytes32": {
        "encoding": "inplace",
        "label": "bytes32",
        "numberOfBytes": "32"
      },
      "t_bytes_storage": {
        "encoding": "bytes",
        "label": "bytes",
        "numberOfBytes": "32"
      },
      "t_enum(ScriptTypes)7639": {
        "encoding": "inplace",
        "label": "enum ScriptTypes",
        "numberOfBytes": "1"
      },
      "t_mapping(t_address,t_array(t_struct(burnRequest)17781_storage)dyn_storage)": {
        "encoding": "mapping",
        "key": "t_address",
        "label": "mapping(address => struct BurnRouterStorage.burnRequest[])",
        "numberOfBytes": "32",
        "value": "t_array(t_struct(burnRequest)17781_storage)dyn_storage"
      },
      "t_mapping(t_address,t_uint256)": {
        "encoding": "mapping",
        "key": "t_address",
        "label": "mapping(address => uint256)",
        "numberOfBytes": "32",
        "value": "t_uint256"
      },
      "t_mapping(t_bytes32,t_bool)": {
        "encoding": "mapping",
        "key": "t_bytes32",
        "label": "mapping(bytes32 => bool)",
        "numberOfBytes": "32",
        "value": "t_bool"
      },
      "t_struct(burnRequest)17781_storage": {
        "encoding": "inplace",
        "label": "struct BurnRouterStorage.burnRequest",
        "members": [
          {
            "astId": 17765,
            "contract": "contracts/routers/BurnRouterLogic.sol:BurnRouterLogic",
            "label": "amount",
            "offset": 0,
            "slot": "0",
            "type": "t_uint256"
          },
          {
            "astId": 17767,
            "contract": "contracts/routers/BurnRouterLogic.sol:BurnRouterLogic",
            "label": "burntAmount",
            "offset": 0,
            "slot": "1",
            "type": "t_uint256"
          },
          {
            "astId": 17769,
            "contract": "contracts/routers/BurnRouterLogic.sol:BurnRouterLogic",
            "label": "sender",
            "offset": 0,
            "slot": "2",
            "type": "t_address"
          },
          {
            "astId": 17771,
            "contract": "contracts/routers/BurnRouterLogic.sol:BurnRouterLogic",
            "label": "userScript",
            "offset": 0,
            "slot": "3",
            "type": "t_bytes_storage"
          },
          {
            "astId": 17773,
            "contract": "contracts/routers/BurnRouterLogic.sol:BurnRouterLogic",
            "label": "deadline",
            "offset": 0,
            "slot": "4",
            "type": "t_uint256"
          },
          {
            "astId": 17775,
            "contract": "contracts/routers/BurnRouterLogic.sol:BurnRouterLogic",
            "label": "isTransferred",
            "offset": 0,
            "slot": "5",
            "type": "t_bool"
          },
          {
            "astId": 17778,
            "contract": "contracts/routers/BurnRouterLogic.sol:BurnRouterLogic",
            "label": "scriptType",
            "offset": 1,
            "slot": "5",
            "type": "t_enum(ScriptTypes)7639"
          },
          {
            "astId": 17780,
            "contract": "contracts/routers/BurnRouterLogic.sol:BurnRouterLogic",
            "label": "requestIdOfLocker",
            "offset": 0,
            "slot": "6",
            "type": "t_uint256"
          }
        ],
        "numberOfBytes": "224"
      },
      "t_uint256": {
        "encoding": "inplace",
        "label": "uint256",
        "numberOfBytes": "32"
      },
      "t_uint8": {
        "encoding": "inplace",
        "label": "uint8",
        "numberOfBytes": "1"
      }
    }
  }
}