{
  "address": "0x91EC82E2Ab885A27eF1c82A6237ebaF8b0A9bF24",
  "abi": [
    {
      "inputs": [
        {
          "internalType": "address",
          "name": "_relay",
          "type": "address"
        }
      ],
      "name": "finalizationParameter",
      "outputs": [
        {
          "internalType": "uint256",
          "name": "",
          "type": "uint256"
        }
      ],
      "stateMutability": "view",
      "type": "function"
    },
    {
      "inputs": [
        {
          "internalType": "address",
          "name": "_relay",
          "type": "address"
        },
        {
          "internalType": "uint256",
          "name": "_blockNumber",
          "type": "uint256"
        }
      ],
      "name": "getFinalizedBlockHeaderFee",
      "outputs": [
        {
          "internalType": "uint256",
          "name": "",
          "type": "uint256"
        }
      ],
      "stateMutability": "view",
      "type": "function"
    },
    {
      "inputs": [
        {
          "internalType": "address",
          "name": "_relay",
          "type": "address"
        }
      ],
      "name": "lastSubmittedHeight",
      "outputs": [
        {
          "internalType": "uint256",
          "name": "",
          "type": "uint256"
        }
      ],
      "stateMutability": "view",
      "type": "function"
    }
  ],
  "transactionHash": "0xb04c310abf64f3ce457f04c0210ba13883e9a13606a69c1252d42c1795056093",
  "args": [],
  "numDeployments": 1,
  "solcInputHash": "65f59a183f13fde42984a28bce432ffa",
  "bytecode": "0x610d5c61003a600b82828239805160001a60731461002d57634e487b7160e01b600052600060045260246000fd5b30600052607381538281f3fe73000000000000000000000000000000000000000030146080604052600436106100615760003560e01c806310889dc3146100665780637ebc23271461008c5780638d9da599146100bc578063a779a392146100cf578063e87c5882146100e2575b600080fd5b6100796100743660046109d0565b610104565b6040519081526020015b60405180910390f35b81801561009857600080fd5b506100ac6100a73660046109ea565b61017f565b6040519015158152602001610083565b6100796100ca366004610a51565b61025d565b6100796100dd3660046109d0565b6102e6565b8180156100ee57600080fd5b506101026100fd366004610a9a565b610321565b005b6000816001600160a01b0316632f796d906040518163ffffffff1660e01b815260040160206040518083038186803b15801561013f57600080fd5b505afa158015610153573d6000803e3d6000fd5b505050506040513d601f19601f820116820180604052508101906101779190610b7a565b90505b919050565b60008061018c878661025d565b9050803410156101db5760405162461bcd60e51b8152602060048201526015602482015274426974636f696e52656c61793a206c6f772066656560581b60448201526064015b60405180910390fd5b600061022888888888886040516024016101f89493929190610bda565b60408051601f198184030181529190526020810180516001600160e01b0316634354da2560e01b179052846105c6565b905061023d336102388434610c8a565b6105f4565b808060200190518101906102519190610a7a565b98975050505050505050565b60405163d0a8973960e01b815260048101829052600060248201819052906001600160a01b0384169063d0a897399060440160206040518083038186803b1580156102a757600080fd5b505afa1580156102bb573d6000803e3d6000fd5b505050506040513d601f19601f820116820180604052508101906102df9190610b7a565b9392505050565b6000816001600160a01b031663a072bc506040518163ffffffff1660e01b815260040160206040518083038186803b15801561013f57600080fd5b83516002148015610333575082516002145b8015610340575080516003145b61038c5760405162461bcd60e51b815260206004820152601a60248201527f43434275726e526f757465723a2077726f6e6720696e7075747300000000000060448201526064016101d2565b85816002815181106103ae57634e487b7160e01b600052603260045260246000fd5b602002602001015110156104045760405162461bcd60e51b815260206004820152601960248201527f43434275726e526f757465723a206f6c6420726571756573740000000000000060448201526064016101d2565b61046187868360028151811061042a57634e487b7160e01b600052603260045260246000fd5b6020026020010151858560018151811061045457634e487b7160e01b600052603260045260246000fd5b602002602001015161017f565b6104ad5760405162461bcd60e51b815260206004820152601b60248201527f43434275726e526f757465723a206e6f742066696e616c697a6564000000000060448201526064016101d2565b600085815260208a9052604090205460ff161561050c5760405162461bcd60e51b815260206004820152601a60248201527f43434275726e526f757465723a20616c7265616479207573656400000000000060448201526064016101d2565b600085815260208a905260409020805460ff1916600117905580518190600290811061054857634e487b7160e01b600052603260045260246000fd5b60200260200101518861055b9190610c72565b61056488610104565b116105bb5760405162461bcd60e51b815260206004820152602160248201527f43434275726e526f757465723a20646561646c696e65206e6f742070617373656044820152601960fa1b60648201526084016101d2565b505050505050505050565b60606105ec848484604051806060016040528060298152602001610cfe60299139610712565b949350505050565b804710156106445760405162461bcd60e51b815260206004820152601d60248201527f416464726573733a20696e73756666696369656e742062616c616e636500000060448201526064016101d2565b6000826001600160a01b03168260405160006040518083038185875af1925050503d8060008114610691576040519150601f19603f3d011682016040523d82523d6000602084013e610696565b606091505b505090508061070d5760405162461bcd60e51b815260206004820152603a60248201527f416464726573733a20756e61626c6520746f2073656e642076616c75652c207260448201527f6563697069656e74206d6179206861766520726576657274656400000000000060648201526084016101d2565b505050565b6060824710156107735760405162461bcd60e51b815260206004820152602660248201527f416464726573733a20696e73756666696369656e742062616c616e636520666f6044820152651c8818d85b1b60d21b60648201526084016101d2565b843b6107c15760405162461bcd60e51b815260206004820152601d60248201527f416464726573733a2063616c6c20746f206e6f6e2d636f6e747261637400000060448201526064016101d2565b600080866001600160a01b031685876040516107dd9190610bbe565b60006040518083038185875af1925050503d806000811461081a576040519150601f19603f3d011682016040523d82523d6000602084013e61081f565b606091505b509150915061082f82828661083a565b979650505050505050565b606083156108495750816102df565b8251156108595782518084602001fd5b8160405162461bcd60e51b81526004016101d29190610c0a565b80356001600160a01b038116811461017a57600080fd5b600082601f83011261089a578081fd5b813560206108af6108aa83610c4e565b610c1d565b82815281810190858301838502870184018810156108cb578586fd5b855b858110156108fe5781356001600160e01b0319811681146108ec578788fd5b845292840192908401906001016108cd565b5090979650505050505050565b600082601f83011261091b578081fd5b8135602061092b6108aa83610c4e565b8281528181019085830183850287018401881015610947578586fd5b855b858110156108fe57813584529284019290840190600101610949565b600082601f830112610975578081fd5b813567ffffffffffffffff81111561098f5761098f610ce7565b6109a2601f8201601f1916602001610c1d565b8181528460208386010111156109b6578283fd5b816020850160208301379081016020019190915292915050565b6000602082840312156109e1578081fd5b6102df82610873565b600080600080600060a08688031215610a01578081fd5b610a0a86610873565b94506020860135935060408601359250606086013567ffffffffffffffff811115610a33578182fd5b610a3f88828901610965565b95989497509295608001359392505050565b60008060408385031215610a63578182fd5b610a6c83610873565b946020939093013593505050565b600060208284031215610a8b578081fd5b815180151581146102df578182fd5b60008060008060008060008060006101208a8c031215610ab8578384fd5b8935985060208a01359750610acf60408b01610873565b965060608a0135955060808a0135945060a08a013567ffffffffffffffff80821115610af9578586fd5b610b058d838e0161088a565b955060c08c0135915080821115610b1a578485fd5b610b268d838e0161088a565b945060e08c0135915080821115610b3b578384fd5b610b478d838e01610965565b93506101008c0135915080821115610b5d578283fd5b50610b6a8c828d0161090b565b9150509295985092959850929598565b600060208284031215610b8b578081fd5b5051919050565b60008151808452610baa816020860160208601610ca1565b601f01601f19169290920160200192915050565b60008251610bd0818460208701610ca1565b9190910192915050565b600085825284602083015260806040830152610bf96080830185610b92565b905082606083015295945050505050565b6000602082526102df6020830184610b92565b604051601f8201601f1916810167ffffffffffffffff81118282101715610c4657610c46610ce7565b604052919050565b600067ffffffffffffffff821115610c6857610c68610ce7565b5060209081020190565b60008219821115610c8557610c85610cd1565b500190565b600082821015610c9c57610c9c610cd1565b500390565b60005b83811015610cbc578181015183820152602001610ca4565b83811115610ccb576000848401525b50505050565b634e487b7160e01b600052601160045260246000fd5b634e487b7160e01b600052604160045260246000fdfe416464726573733a206c6f772d6c6576656c2063616c6c20776974682076616c7565206661696c6564a2646970667358221220ae8ce4c4907cd7c0d2270b3665c7d4aa1aa88bcece96e0e042a73459ab6486ec64736f6c63430008020033",
  "devdoc": {
    "kind": "dev",
    "methods": {
      "isConfirmed(address,bytes32,uint256,bytes,uint256)": {
        "details": "Calls the relay contract to check Merkle inclusion proof",
        "params": {
          "_blockNumber": "Height of the block containing the transaction",
          "_index": "Index of transaction in the block",
          "_intermediateNodes": "Merkle inclusion proof for the transaction",
          "_relay": "Address of Relay contract",
          "_txId": "of the transaction"
        },
        "returns": {
          "_0": "True if the transaction was included in the block"
        }
      }
    },
    "version": 1
  },
  "userdoc": {
    "kind": "user",
    "methods": {
      "isConfirmed(address,bytes32,uint256,bytes,uint256)": {
        "notice": "Checks inclusion of the transaction in the specified block"
      }
    },
    "version": 1
  },
  "storageLayout": {
    "storage": [],
    "types": null
  }
}