{
  "address": "0x1d8DAe84f555701429D81064a9a4B09FA0d8071B",
  "abi": [
    {
      "inputs": [
        {
          "internalType": "bytes",
          "name": "_userScript",
          "type": "bytes"
        },
        {
          "internalType": "enum ScriptTypes",
          "name": "_scriptType",
          "type": "ScriptTypes"
        }
      ],
      "name": "checkScriptType",
      "outputs": [],
      "stateMutability": "pure",
      "type": "function"
    },
    {
      "inputs": [
        {
          "internalType": "address",
          "name": "_relay",
          "type": "address"
        }
      ],
      "name": "finalizationParameter",
      "outputs": [
        {
          "internalType": "uint256",
          "name": "",
          "type": "uint256"
        }
      ],
      "stateMutability": "view",
      "type": "function"
    },
    {
      "inputs": [
        {
          "internalType": "address",
          "name": "_relay",
          "type": "address"
        },
        {
          "internalType": "uint256",
          "name": "_blockNumber",
          "type": "uint256"
        }
      ],
      "name": "getFinalizedBlockHeaderFee",
      "outputs": [
        {
          "internalType": "uint256",
          "name": "",
          "type": "uint256"
        }
      ],
      "stateMutability": "view",
      "type": "function"
    },
    {
      "inputs": [
        {
          "internalType": "address",
          "name": "_relay",
          "type": "address"
        }
      ],
      "name": "lastSubmittedHeight",
      "outputs": [
        {
          "internalType": "uint256",
          "name": "",
          "type": "uint256"
        }
      ],
      "stateMutability": "view",
      "type": "function"
    }
  ],
  "transactionHash": "0x48a9d7e759dc0e0518badd599687bdbc3c118dae5bca4a045aa467de37925c26",
  "args": [],
  "numDeployments": 1,
  "solcInputHash": "1ba4f48c1d751eec06ff21409e32d272",
  "bytecode": "0x61324a61003a600b82828239805160001a60731461002d57634e487b7160e01b600052600060045260246000fd5b30600052607381538281f3fe73000000000000000000000000000000000000000030146080604052600436106100c85760003560e01c806369ab4a8f116100805780638d9da599116100655780638d9da599146101b8578063a779a392146101cb578063e87c5882146101de576100c8565b806369ab4a8f146101685780637ebc232714610188576100c8565b8063191e28dc116100b1578063191e28dc1461011557806344922b64146101355780635a581a1814610155576100c8565b806310889dc3146100cd57806315755789146100f3575b600080fd5b6100e06100db366004612b3b565b6101fe565b6040519081526020015b60405180910390f35b8180156100ff57600080fd5b5061011361010e366004612d43565b610279565b005b81801561012157600080fd5b50610113610130366004612e70565b6104c7565b81801561014157600080fd5b50610113610150366004612eda565b610552565b610113610163366004612cf0565b610768565b81801561017457600080fd5b50610113610183366004612c1d565b61088f565b81801561019457600080fd5b506101a86101a3366004612b55565b61096a565b60405190151581526020016100ea565b6100e06101c6366004612bbc565b610a79565b6100e06101d9366004612b3b565b610b1d565b8180156101ea57600080fd5b506101136101f9366004612d90565b610b58565b6000816001600160a01b0316632f796d906040518163ffffffff1660e01b815260040160206040518083038186803b15801561023957600080fd5b505afa15801561024d573d6000803e3d6000fd5b505050506040513d601f19601f820116820180604052508101906102719190612c05565b90505b919050565b6001600160a01b03851660009081526020879052604090208054859081106102b157634e487b7160e01b600052603260045260246000fd5b600091825260209091206005600790920201015460ff161561031a5760405162461bcd60e51b815260206004820152601d60248201527f4275726e526f757465724c6f6769633a20616c7265616479207061696400000060448201526064015b60405180910390fd5b6001600160a01b038516600090815260208790526040902080548391908690811061035557634e487b7160e01b600052603260045260246000fd5b906000526020600020906007020160040154106103c05760405162461bcd60e51b8152602060048201526024808201527f4275726e526f757465724c6f6769633a20646561646c696e65206e6f742070616044820152631cdcd95960e21b6064820152608401610311565b6103ca83826130a9565b6001600160a01b038616600090815260208890526040902080548690811061040257634e487b7160e01b600052603260045260246000fd5b906000526020600020906007020160040154116104615760405162461bcd60e51b815260206004820152601c60248201527f4275726e526f757465724c6f6769633a206f6c642072657175657374000000006044820152606401610311565b6001600160a01b03851660009081526020879052604090208054600191908690811061049d57634e487b7160e01b600052603260045260246000fd5b60009182526020909120600790910201600501805460ff1916911515919091179055505050505050565b60006104d38484610df4565b67ffffffffffffffff16905060006104ea85610f30565b905081158015906105045750806105028760016130a9565b145b15610527576000838152602088905260409020805460ff19166001179055610549565b80861415610549576000838152602088905260409020805460ff191660011790555b50505050505050565b858710156105a25760405162461bcd60e51b815260206004820152601c60248201527f4275726e526f757465724c6f6769633a206f6c642072657175657374000000006044820152606401610311565b7fffffffff000000000000000000000000000000000000000000000000000000008516156106385760405162461bcd60e51b815260206004820152602360248201527f4275726e526f757465724c6f6769633a206e6f6e2d7a65726f206c6f636b207460448201527f696d6500000000000000000000000000000000000000000000000000000000006064820152608401610311565b6040517faff2faa30000000000000000000000000000000000000000000000000000000081526001600160a01b0385169063aff2faa39061067d908690600401613041565b60206040518083038186803b15801561069557600080fd5b505afa1580156106a9573d6000803e3d6000fd5b505050506040513d601f19601f820116820180604052508101906106cd9190612be5565b6107195760405162461bcd60e51b815260206004820152601b60248201527f4275726e526f757465724c6f6769633a206e6f74206c6f636b657200000000006044820152606401610311565b8082146105495760405162461bcd60e51b815260206004820152601e60248201527f4275726e526f757465724c6f6769633a2077726f6e6720696e646578657300006044820152606401610311565b600081600581111561078a57634e487b7160e01b600052602160045260246000fd5b14806107b5575060048160058111156107b357634e487b7160e01b600052602160045260246000fd5b145b806107df575060058160058111156107dd57634e487b7160e01b600052602160045260246000fd5b145b1561083a5781516020146108355760405162461bcd60e51b815260206004820152601f60248201527f4275726e526f757465724c6f6769633a20696e76616c696420736372697074006044820152606401610311565b61088b565b815160141461088b5760405162461bcd60e51b815260206004820152601f60248201527f4275726e526f757465724c6f6769633a20696e76616c696420736372697074006044820152606401610311565b5050565b60008061089c8787610f5e565b915091506108ac8886868661100f565b82146108fa5760405162461bcd60e51b815260206004820181905260248201527f4275726e526f757465724c6f6769633a2077726f6e67206f75747075742074786044820152606401610311565b885160208a012061090b858361116c565b805190602001201461095f5760405162461bcd60e51b815260206004820152601f60248201527f4275726e526f757465724c6f6769633a206e6f7420666f72206c6f636b6572006044820152606401610311565b505050505050505050565b6000806109778786610a79565b9050803410156109c95760405162461bcd60e51b815260206004820152601560248201527f426974636f696e52656c61793a206c6f772066656500000000000000000000006044820152606401610311565b6000610a4488888888886040516024016109e69493929190613011565b60408051601f198184030181529190526020810180517bffffffffffffffffffffffffffffffffffffffffffffffffffffffff167f4354da250000000000000000000000000000000000000000000000000000000017905284611208565b9050610a5933610a54843461313a565b611238565b80806020019051810190610a6d9190612be5565b98975050505050505050565b6040517fd0a8973900000000000000000000000000000000000000000000000000000000815260048101829052600060248201819052906001600160a01b0384169063d0a897399060440160206040518083038186803b158015610adc57600080fd5b505afa158015610af0573d6000803e3d6000fd5b505050506040513d601f19601f82011682018060405250810190610b149190612c05565b90505b92915050565b6000816001600160a01b031663a072bc506040518163ffffffff1660e01b815260040160206040518083038186803b15801561023957600080fd5b83516002148015610b6a575082516002145b8015610b77575080516003145b610bc35760405162461bcd60e51b815260206004820152601d60248201527f4275726e526f757465724c6f6769633a2077726f6e6720696e707574730000006044820152606401610311565b8581600281518110610be557634e487b7160e01b600052603260045260246000fd5b60200260200101511015610c3b5760405162461bcd60e51b815260206004820152601c60248201527f4275726e526f757465724c6f6769633a206f6c642072657175657374000000006044820152606401610311565b610c98878683600281518110610c6157634e487b7160e01b600052603260045260246000fd5b60200260200101518585600181518110610c8b57634e487b7160e01b600052603260045260246000fd5b602002602001015161096a565b610ce45760405162461bcd60e51b815260206004820152601e60248201527f4275726e526f757465724c6f6769633a206e6f742066696e616c697a656400006044820152606401610311565b600085815260208a9052604090205460ff1615610d435760405162461bcd60e51b815260206004820152601d60248201527f4275726e526f757465724c6f6769633a20616c726561647920757365640000006044820152606401610311565b600085815260208a905260409020805460ff19166001179055805181906002908110610d7f57634e487b7160e01b600052603260045260246000fd5b602002602001015188610d9291906130a9565b610d9b886101fe565b1161095f5760405162461bcd60e51b8152602060048201526024808201527f4275726e526f757465724c6f6769633a20646561646c696e65206e6f742070616044820152631cdcd95960e21b6064820152608401610311565b600080610e0b610e06825b8690611356565b61137a565b905062ffffff198082161415610e635760405162461bcd60e51b815260206004820152601b60248201527f426974636f696e48656c7065723a20766f7574206973206e756c6c00000000006044820152606401610311565b6000806000610e738460006114c3565b67ffffffffffffffff16905060005b81811015610f2557610e94858261160c565b9350610e9f84611736565b925086604051602001610eb29190612ff5565b60405160208183030381529060405280519060200120610ed78462ffffff1916611788565b604051602001610ee79190612ff5565b604051602081830303815290604052805190602001201415610f1357610f0c846117d8565b9550610f25565b80610f1d816131a4565b915050610e82565b505050505092915050565b600080610f40610e068483611356565b9050610f4d8160006114c3565b67ffffffffffffffff169392505050565b60008080610f76610f71825b8790611356565b6117fd565b905062ffffff198082161415610fce5760405162461bcd60e51b815260206004820152601a60248201527f426974636f696e48656c7065723a2076696e206973206e756c6c0000000000006044820152606401610311565b6000610fda82866118f0565b90506000610fe7826119f7565b9050610ff281611a1b565b9450610ffd81611a3d565b63ffffffff1693505050509250929050565b60008061101e610f7182610f6a565b905062ffffff1980821614156110765760405162461bcd60e51b815260206004820152601a60248201527f426974636f696e48656c7065723a2076696e206973206e756c6c0000000000006044820152606401610311565b60006002878787876040516020016110919493929190612f89565b60408051601f19818403018152908290526110ab91612ff5565b602060405180830381855afa1580156110c8573d6000803e3d6000fd5b5050506040513d601f19601f820116820180604052508101906110eb9190612c05565b9050600060028260405160200161110491815260200190565b60408051601f198184030181529082905261111e91612ff5565b602060405180830381855afa15801561113b573d6000803e3d6000fd5b5050506040513d601f19601f8201168201806040525081019061115e9190612c05565b93505050505b949350505050565b6060600061117c610e0682610dff565b905062ffffff1980821614156111d45760405162461bcd60e51b815260206004820152601b60248201527f426974636f696e48656c7065723a20766f7574206973206e756c6c00000000006044820152606401610311565b60006111e0828561160c565b905060006111ed82611736565b90506111fe62ffffff198216611788565b9695505050505050565b606061122e8484846040518060600160405280602981526020016131ec60299139611a67565b90505b9392505050565b804710156112885760405162461bcd60e51b815260206004820152601d60248201527f416464726573733a20696e73756666696369656e742062616c616e63650000006044820152606401610311565b6000826001600160a01b03168260405160006040518083038185875af1925050503d80600081146112d5576040519150601f19603f3d011682016040523d82523d6000602084013e6112da565b606091505b50509050806113515760405162461bcd60e51b815260206004820152603a60248201527f416464726573733a20756e61626c6520746f2073656e642076616c75652c207260448201527f6563697069656e74206d617920686176652072657665727465640000000000006064820152608401610311565b505050565b81516000906020840161137164ffffffffff85168284611ba6565b95945050505050565b60008181611390815b62ffffff19841690611bea565b50601884901c6001600160601b03166113b05762ffffff195b92506114bc565b60006113bd8560006114c3565b9050601885901c6001600160601b031667ffffffffffffffff82166113eb5762ffffff195b945050506114bc565b60006113f683611cec565b60ff16905060005b8367ffffffffffffffff16811015611473578282106114285762ffffff195b9650505050506114bc565b6000611448611437848661313a565b600e5b62ffffff198c169190611d48565b905061145381611d7c565b61145d90846130a9565b925050808061146b906131a4565b9150506113fe565b5081811461148b5762ffffff195b95505050506114bc565b6114b6600f5b60d81b7affffffffffffffffffffffffffffffffffffffffffffffff00000089161790565b95505050505b5050919050565b6000806114d862ffffff198516846001611dc6565b905060fc81116114f3576114eb81611df6565b915050610b17565b8060fd14156115595761152161151c61150d8560016130a9565b62ffffff198716906002611e7a565b611df6565b915061152c82611cec565b60ff166003146115545761155261154d62ffffff1986168560036000611fcb565b61203b565b505b611605565b8060fe14156115ae5761158261151c6115738560016130a9565b62ffffff198716906004611e7a565b915061158d82611cec565b60ff166005146115545761155261154d62ffffff1986168560056000611fcb565b8060ff1415611605576115d761151c6115c88560016130a9565b62ffffff198716906008611e7a565b91506115e282611cec565b60ff166009146116055761160361154d62ffffff1986168560096000611fcb565b505b5092915050565b600082600f61161a81611383565b5060006116288660006114c3565b67ffffffffffffffff169050601886901c6001600160601b03168186106116915760405162461bcd60e51b815260206004820152601160248201527f566f75742072656164206f76657272756e0000000000000000000000000000006044820152606401610311565b600061169c83611cec565b60ff1690506000805b888110156116f4576116cb6116ba848661313a565b600e5b62ffffff198d169190611d48565b91506116d682611d7c565b6116e090846130a9565b92506116ed6001826130a9565b90506116a5565b50611702611437838561313a565b9050600061170f82611d7c565b90506117288382600d5b62ffffff198e16929190611fcb565b9a9950505050505050505050565b600081600d61174481611383565b5060006117528560086114c3565b905061137161176082611cec565b61176b9060086130c1565b62ffffff1987169060ff1667ffffffffffffffff84166007611fcb565b60606000806117a08460181c6001600160601b031690565b60405193508392506001600160601b031690506117c7846117c28460206130a9565b6120c2565b508181016020016040529052919050565b600081600d6117e681611383565b5061116461151c62ffffff19861660006008611e7a565b6000818161180a81611383565b50601884901c6001600160601b03166118275762ffffff196113a9565b60006118348560006114c3565b9050601885901c6001600160601b031667ffffffffffffffff821661185d5762ffffff196113e2565b600061186883611cec565b60ff16905060005b8367ffffffffffffffff168110156118d4578282106118935762ffffff1961141d565b60006118a96118a2848661313a565b600561143a565b90506118b48161224a565b6118be90846130a9565b92505080806118cc906131a4565b915050611870565b508181146118e65762ffffff19611481565b6114b66006611491565b60008260066118fe81611383565b50600061190c8660006114c3565b67ffffffffffffffff169050601886901c6001600160601b03168186106119755760405162461bcd60e51b815260206004820152601060248201527f56696e2072656164206f76657272756e000000000000000000000000000000006044820152606401610311565b600061198083611cec565b60ff1690506000805b888110156119ce576119a561199e848661313a565b60056116bd565b91506119b08261224a565b6119ba90846130a9565b92506119c76001826130a9565b9050611989565b506119dc6118a2838561313a565b905060006119e98261224a565b905061172883826004611719565b6000816004611a0581611383565b5061116462ffffff198516600060246003611fcb565b6000816003611a2981611383565b5061116462ffffff1985166000602061229f565b6000816003611a4b81611383565b50611164611a6262ffffff19861660206004611e7a565b612414565b606082471015611adf5760405162461bcd60e51b815260206004820152602660248201527f416464726573733a20696e73756666696369656e742062616c616e636520666f60448201527f722063616c6c00000000000000000000000000000000000000000000000000006064820152608401610311565b843b611b2d5760405162461bcd60e51b815260206004820152601d60248201527f416464726573733a2063616c6c20746f206e6f6e2d636f6e74726163740000006044820152606401610311565b600080866001600160a01b03168587604051611b499190612ff5565b60006040518083038185875af1925050503d8060008114611b86576040519150601f19603f3d011682016040523d82523d6000602084013e611b8b565b606091505b5091509150611b9b828286612490565b979650505050505050565b600080611bb383856130a9565b9050604051811115611bc3575060005b80611bd55762ffffff19915050611231565b5050606092831b9190911790911b1760181b90565b6000611bf683836124c9565b611ce5576000611c15611c098560d81c90565b64ffffffffff166124ec565b9150506000611c2a8464ffffffffff166124ec565b6040517f5479706520617373657274696f6e206661696c65642e20476f7420307800000060208201527fffffffffffffffffffff0000000000000000000000000000000000000000000060b086811b8216603d8401527f2e20457870656374656420307800000000000000000000000000000000000000604784015283901b16605482015290925060009150605e015b60405160208183030381529060405290508060405162461bcd60e51b81526004016103119190613041565b5090919050565b600060fc8267ffffffffffffffff1611611d0857506001610274565b61ffff8267ffffffffffffffff1611611d2357506003610274565b63ffffffff8267ffffffffffffffff1611611d4057506005610274565b506009610274565b600061122e8484611d628760181c6001600160601b031690565b6001600160601b0316611d75919061313a565b8585611fcb565b600081600e611d8a81611383565b506000611d988560086114c3565b90508067ffffffffffffffff16611dae82611cec565b60ff16611dbb91906130a9565b6113719060086130a9565b6000611dd3826020613151565b611dde906008613111565b60ff16611dec85858561229f565b901c949350505050565b600067ffffffffffffffff821115611e765760405162461bcd60e51b815260206004820152602660248201527f53616665436173743a2076616c756520646f65736e27742066697420696e203660448201527f34206269747300000000000000000000000000000000000000000000000000006064820152608401610311565b5090565b600061122e611e8a85858561229f565b600881811c7eff00ff00ff00ff00ff00ff00ff00ff00ff00ff00ff00ff00ff00ff00ff00ff167fff00ff00ff00ff00ff00ff00ff00ff00ff00ff00ff00ff00ff00ff00ff00ff009290911b9190911617601081811c7dffff0000ffff0000ffff0000ffff0000ffff0000ffff0000ffff0000ffff167fffff0000ffff0000ffff0000ffff0000ffff0000ffff0000ffff0000ffff00009290911b9190911617602081811c7bffffffff00000000ffffffff00000000ffffffff00000000ffffffff167fffffffff00000000ffffffff00000000ffffffff00000000ffffffff000000009290911b9190911617604081811c77ffffffffffffffff0000000000000000ffffffffffffffff167fffffffffffffffff0000000000000000ffffffffffffffff00000000000000009290911b9190911617608081811c91901b1790565b600080611fe18660781c6001600160601b031690565b6001600160601b03169050611ff586612598565b8461200087846130a9565b61200a91906130a9565b111561201d5762ffffff19915050611164565b61202785826130a9565b90506111fe8364ffffffffff168286611ba6565b6060600061206f61206a8261205c601887901c6001600160601b03166125d9565b62ffffff1987169190611dc6565b6124ec565b6040517f4e6f6e2d6d696e696d616c2076617220696e742e20476f74203078000000000060208201526dffffffffffffffffffffffffffff19607083901b16603b82015290925060009150604d01611cba565b600062ffffff1980841614156121405760405162461bcd60e51b815260206004820152602860248201527f54797065644d656d566965772f636f7079546f202d204e756c6c20706f696e7460448201527f65722064657265660000000000000000000000000000000000000000000000006064820152608401610311565b61214983612652565b6121bb5760405162461bcd60e51b815260206004820152602b60248201527f54797065644d656d566965772f636f7079546f202d20496e76616c696420706f60448201527f696e7465722064657265660000000000000000000000000000000000000000006064820152608401610311565b60006121d08460181c6001600160601b031690565b6001600160601b0316905060006121f08560781c6001600160601b031690565b6001600160601b0316905060006040519050848111156122105760206060fd5b8285848460045afa506111fe6122268760d81c90565b70ffffffffff000000000000000000000000606091821b168717901b841760181b90565b600081600561225881611383565b5060006122668560246114c3565b90508067ffffffffffffffff1661227c82611cec565b60ff1661228991906130a9565b6122949060246130a9565b6113719060046130a9565b600060ff82166122b157506000611231565b6122c48460181c6001600160601b031690565b6001600160601b03166122da60ff8416856130a9565b111561233e576123256122f68560781c6001600160601b031690565b6001600160601b03166123128660181c6001600160601b031690565b6001600160601b0316858560ff16612690565b60405162461bcd60e51b81526004016103119190613041565b60208260ff1611156123b85760405162461bcd60e51b815260206004820152603a60248201527f54797065644d656d566965772f696e646578202d20417474656d70746564207460448201527f6f20696e646578206d6f7265207468616e2033322062797465730000000000006064820152608401610311565b6008820260006123d18660781c6001600160601b031690565b6001600160601b0316905060007f800000000000000000000000000000000000000000000000000000000000000060001984011d91909501511695945050505050565b600063ffffffff821115611e765760405162461bcd60e51b815260206004820152602660248201527f53616665436173743a2076616c756520646f65736e27742066697420696e203360448201527f32206269747300000000000000000000000000000000000000000000000000006064820152608401610311565b6060831561249f575081611231565b8251156124af5782518084602001fd5b8160405162461bcd60e51b81526004016103119190613041565b60008164ffffffffff166124dd8460d81c90565b64ffffffffff16149392505050565b600080601f5b600f8160ff16111561254a57600061250b826008613111565b60ff1685901c905061251c81612820565b61ffff16841793508160ff1660101461253757601084901b93505b50612543600182613151565b90506124f2565b50600f5b60ff8160ff1610156125925760ff600882021684901c61256d81612820565b61ffff16831792508160ff1660001461258857601083901b92505b506000190161254e565b50915091565b60006125ad8260181c6001600160601b031690565b6125c08360781c6001600160601b031690565b6125ca91906130e6565b6001600160601b031692915050565b600060ff821115611e765760405162461bcd60e51b815260206004820152602560248201527f53616665436173743a2076616c756520646f65736e27742066697420696e203860448201527f20626974730000000000000000000000000000000000000000000000000000006064820152608401610311565b600061265e8260d81c90565b64ffffffffff1664ffffffffff141561267957506000610274565b600061268483612598565b60405110199392505050565b6060600061269d866124ec565b91505060006126ab866124ec565b91505060006126b9866124ec565b91505060006126c7866124ec565b604080517f54797065644d656d566965772f696e646578202d204f76657272616e2074686560208201527f20766965772e20536c6963652069732061742030780000000000000000000000818301527fffffffffffff000000000000000000000000000000000000000000000000000060d098891b811660558301527f2077697468206c656e6774682030780000000000000000000000000000000000605b830181905297891b8116606a8301527f2e20417474656d7074656420746f20696e646578206174206f6666736574203060708301527f7800000000000000000000000000000000000000000000000000000000000000609083015295881b861660918201526097810196909652951b90921660a684015250507f2e0000000000000000000000000000000000000000000000000000000000000060ac8201528151808203608d01815260ad90910190915295945050505050565b600061283260048360ff16901c612850565b60ff161760081b62ffff001661284782612850565b60ff1617919050565b600060f08083179060ff8216141561286c576030915050610274565b8060ff1660f11415612882576031915050610274565b8060ff1660f21415612898576032915050610274565b8060ff1660f314156128ae576033915050610274565b8060ff1660f414156128c4576034915050610274565b8060ff1660f514156128da576035915050610274565b8060ff1660f614156128f0576036915050610274565b8060ff1660f71415612906576037915050610274565b8060ff1660f8141561291c576038915050610274565b8060ff1660f91415612932576039915050610274565b8060ff1660fa1415612948576061915050610274565b8060ff1660fb141561295e576062915050610274565b8060ff1660fc1415612974576063915050610274565b8060ff1660fd141561298a576064915050610274565b8060ff1660fe14156129a0576065915050610274565b8060ff1660ff14156129b6576066915050610274565b50919050565b80356001600160a01b038116811461027457600080fd5b600082601f8301126129e3578081fd5b813560206129f86129f383613085565b613054565b8281528181019085830183850287018401881015612a14578586fd5b855b85811015612a3957612a2782612aa0565b84529284019290840190600101612a16565b5090979650505050505050565b600082601f830112612a56578081fd5b81356020612a666129f383613085565b8281528181019085830183850287018401881015612a82578586fd5b855b85811015612a3957813584529284019290840190600101612a84565b80357fffffffff000000000000000000000000000000000000000000000000000000008116811461027457600080fd5b600082601f830112612ae0578081fd5b813567ffffffffffffffff811115612afa57612afa6131d5565b612b0d601f8201601f1916602001613054565b818152846020838601011115612b21578283fd5b816020850160208301379081016020019190915292915050565b600060208284031215612b4c578081fd5b610b14826129bc565b600080600080600060a08688031215612b6c578081fd5b612b75866129bc565b94506020860135935060408601359250606086013567ffffffffffffffff811115612b9e578182fd5b612baa88828901612ad0565b95989497509295608001359392505050565b60008060408385031215612bce578182fd5b612bd7836129bc565b946020939093013593505050565b600060208284031215612bf6578081fd5b81518015158114611231578182fd5b600060208284031215612c16578081fd5b5051919050565b600080600080600080600060e0888a031215612c37578182fd5b873567ffffffffffffffff80821115612c4e578384fd5b612c5a8b838c01612ad0565b9850612c6860208b01612aa0565b975060408a0135915080821115612c7d578384fd5b612c898b838c01612ad0565b965060608a0135955060808a0135915080821115612ca5578384fd5b612cb18b838c01612ad0565b945060a08a0135915080821115612cc6578384fd5b50612cd38a828b01612ad0565b925050612ce260c08901612aa0565b905092959891949750929550565b60008060408385031215612d02578182fd5b823567ffffffffffffffff811115612d18578283fd5b612d2485828601612ad0565b925050602083013560068110612d38578182fd5b809150509250929050565b60008060008060008060c08789031215612d5b578384fd5b86359550612d6b602088016129bc565b95989597505050506040840135936060810135936080820135935060a0909101359150565b60008060008060008060008060006101208a8c031215612dae578283fd5b8935985060208a01359750612dc560408b016129bc565b965060608a0135955060808a0135945060a08a013567ffffffffffffffff80821115612def578485fd5b612dfb8d838e016129d3565b955060c08c0135915080821115612e10578485fd5b612e1c8d838e016129d3565b945060e08c0135915080821115612e31578384fd5b612e3d8d838e01612ad0565b93506101008c0135915080821115612e53578283fd5b50612e608c828d01612a46565b9150509295985092959850929598565b600080600080600060a08688031215612e87578283fd5b8535945060208601359350604086013567ffffffffffffffff80821115612eac578485fd5b612eb889838a01612ad0565b94506060880135915080821115612ecd578283fd5b50612baa88828901612ad0565b600080600080600080600060e0888a031215612ef4578081fd5b8735965060208801359550612f0b60408901612aa0565b9450612f19606089016129bc565b9350608088013567ffffffffffffffff811115612f34578182fd5b612f408a828b01612ad0565b93505060a0880135915060c0880135905092959891949750929550565b60008151808452612f75816020860160208601613174565b601f01601f19169290920160200192915050565b60007fffffffff0000000000000000000000000000000000000000000000000000000080871683528551612fc4816004860160208a01613174565b855190840190612fdb816004840160208a01613174565b919094169301600481019390935250506008019392505050565b60008251613007818460208701613174565b9190910192915050565b6000858252846020830152608060408301526130306080830185612f5d565b905082606083015295945050505050565b600060208252610b146020830184612f5d565b604051601f8201601f1916810167ffffffffffffffff8111828210171561307d5761307d6131d5565b604052919050565b600067ffffffffffffffff82111561309f5761309f6131d5565b5060209081020190565b600082198211156130bc576130bc6131bf565b500190565b600060ff821660ff84168060ff038211156130de576130de6131bf565b019392505050565b60006001600160601b03808316818516808303821115613108576131086131bf565b01949350505050565b600060ff821660ff84168160ff0481118215151615613132576131326131bf565b029392505050565b60008282101561314c5761314c6131bf565b500390565b600060ff821660ff84168082101561316b5761316b6131bf565b90039392505050565b60005b8381101561318f578181015183820152602001613177565b8381111561319e576000848401525b50505050565b60006000198214156131b8576131b86131bf565b5060010190565b634e487b7160e01b600052601160045260246000fd5b634e487b7160e01b600052604160045260246000fdfe416464726573733a206c6f772d6c6576656c2063616c6c20776974682076616c7565206661696c6564a264697066735822122030769b6cbc5d23188cbe713146696b44524a6d063209fe720fc66d28f20243bd64736f6c63430008020033",
  "devdoc": {
    "kind": "dev",
    "methods": {
      "isConfirmed(address,bytes32,uint256,bytes,uint256)": {
        "details": "Calls the relay contract to check Merkle inclusion proof",
        "params": {
          "_blockNumber": "Height of the block containing the transaction",
          "_index": "Index of transaction in the block",
          "_intermediateNodes": "Merkle inclusion proof for the transaction",
          "_relay": "Address of Relay contract",
          "_txId": "of the transaction"
        },
        "returns": {
          "_0": "True if the transaction was included in the block"
        }
      },
      "updateIsUsedAsBurnProof(mapping(bytes32 => bool) storage,uint256,bytes,bytes,bytes32)": {
        "details": "One output might return the remaining value to the locker",
        "params": {
          "_lockerLockingScript": "Locking script of locker",
          "_paidOutputCounter": "Number of the tx outputs that pay a cc burn request",
          "_txId": "Transaction id",
          "_vout": "Outputs of a transaction"
        }
      }
    },
    "version": 1
  },
  "userdoc": {
    "kind": "user",
    "methods": {
      "checkScriptType(bytes,ScriptTypes)": {
        "notice": "Checks the user hash script to be valid (based on its type)"
      },
      "isConfirmed(address,bytes32,uint256,bytes,uint256)": {
        "notice": "Checks inclusion of the transaction in the specified block"
      },
      "updateIsUsedAsBurnProof(mapping(bytes32 => bool) storage,uint256,bytes,bytes,bytes32)": {
        "notice": "Checks if all outputs of the transaction used to pay a cc burn request"
      }
    },
    "version": 1
  },
  "storageLayout": {
    "storage": [],
    "types": null
  }
}