{
  "address": "0xBff35072f0271008571CB555e3953B07EB52de02",
  "abi": [
    {
      "inputs": [
        {
          "internalType": "bytes",
          "name": "_userScript",
          "type": "bytes"
        },
        {
          "internalType": "enum ScriptTypes",
          "name": "_scriptType",
          "type": "ScriptTypes"
        }
      ],
      "name": "checkScriptType",
      "outputs": [],
      "stateMutability": "pure",
      "type": "function"
    },
    {
      "inputs": [
        {
          "internalType": "address",
          "name": "_relay",
          "type": "address"
        }
      ],
      "name": "finalizationParameter",
      "outputs": [
        {
          "internalType": "uint256",
          "name": "",
          "type": "uint256"
        }
      ],
      "stateMutability": "view",
      "type": "function"
    },
    {
      "inputs": [
        {
          "internalType": "address",
          "name": "_relay",
          "type": "address"
        },
        {
          "internalType": "uint256",
          "name": "_blockNumber",
          "type": "uint256"
        }
      ],
      "name": "getFinalizedBlockHeaderFee",
      "outputs": [
        {
          "internalType": "uint256",
          "name": "",
          "type": "uint256"
        }
      ],
      "stateMutability": "view",
      "type": "function"
    },
    {
      "inputs": [
        {
          "internalType": "address",
          "name": "_relay",
          "type": "address"
        }
      ],
      "name": "lastSubmittedHeight",
      "outputs": [
        {
          "internalType": "uint256",
          "name": "",
          "type": "uint256"
        }
      ],
      "stateMutability": "view",
      "type": "function"
    }
  ],
  "transactionHash": "0xb0195148d92294307283a25f68474d03985182a19236bf01cafd7052b8c91511",
  "args": [],
  "numDeployments": 1,
  "solcInputHash": "b721f783c7cfe9df8d196e56c18fd3f0",
  "bytecode": "0x61347d61003a600b82828239805160001a60731461002d57634e487b7160e01b600052600060045260246000fd5b30600052607381538281f3fe73000000000000000000000000000000000000000030146080604052600436106100c85760003560e01c806369ab4a8f116100805780638d9da599116100655780638d9da599146101b8578063a3441038146101cb578063a779a392146101eb576100c8565b806369ab4a8f146101685780637ebc232714610188576100c8565b8063191e28dc116100b1578063191e28dc1461011557806344922b64146101355780635a581a1814610155576100c8565b806310889dc3146100cd57806315755789146100f3575b600080fd5b6100e06100db366004612d1d565b6101fe565b6040519081526020015b60405180910390f35b8180156100ff57600080fd5b5061011361010e366004613056565b610279565b005b81801561012157600080fd5b506101136101303660046130a3565b6104c7565b81801561014157600080fd5b5061011361015036600461310d565b610552565b610113610163366004613003565b610768565b81801561017457600080fd5b50610113610183366004612f30565b61088f565b81801561019457600080fd5b506101a86101a3366004612d37565b61096a565b60405190151581526020016100ea565b6100e06101c6366004612d9e565b610a79565b8180156101d757600080fd5b506101136101e6366004612dff565b610b1d565b6100e06101f9366004612d1d565b610f47565b6000816001600160a01b0316632f796d906040518163ffffffff1660e01b815260040160206040518083038186803b15801561023957600080fd5b505afa15801561024d573d6000803e3d6000fd5b505050506040513d601f19601f820116820180604052508101906102719190612de7565b90505b919050565b6001600160a01b03851660009081526020879052604090208054859081106102b157634e487b7160e01b600052603260045260246000fd5b600091825260209091206005600790920201015460ff161561031a5760405162461bcd60e51b815260206004820152601d60248201527f4275726e526f757465724c6f6769633a20616c7265616479207061696400000060448201526064015b60405180910390fd5b6001600160a01b038516600090815260208790526040902080548391908690811061035557634e487b7160e01b600052603260045260246000fd5b906000526020600020906007020160040154106103c05760405162461bcd60e51b8152602060048201526024808201527f4275726e526f757465724c6f6769633a20646561646c696e65206e6f742070616044820152631cdcd95960e21b6064820152608401610311565b6103ca83826132dc565b6001600160a01b038616600090815260208890526040902080548690811061040257634e487b7160e01b600052603260045260246000fd5b906000526020600020906007020160040154116104615760405162461bcd60e51b815260206004820152601c60248201527f4275726e526f757465724c6f6769633a206f6c642072657175657374000000006044820152606401610311565b6001600160a01b03851660009081526020879052604090208054600191908690811061049d57634e487b7160e01b600052603260045260246000fd5b60009182526020909120600790910201600501805460ff1916911515919091179055505050505050565b60006104d38484610f82565b67ffffffffffffffff16905060006104ea856110be565b905081158015906105045750806105028760016132dc565b145b15610527576000838152602088905260409020805460ff19166001179055610549565b80861415610549576000838152602088905260409020805460ff191660011790555b50505050505050565b858710156105a25760405162461bcd60e51b815260206004820152601c60248201527f4275726e526f757465724c6f6769633a206f6c642072657175657374000000006044820152606401610311565b7fffffffff000000000000000000000000000000000000000000000000000000008516156106385760405162461bcd60e51b815260206004820152602360248201527f4275726e526f757465724c6f6769633a206e6f6e2d7a65726f206c6f636b207460448201527f696d6500000000000000000000000000000000000000000000000000000000006064820152608401610311565b6040517faff2faa30000000000000000000000000000000000000000000000000000000081526001600160a01b0385169063aff2faa39061067d908690600401613274565b60206040518083038186803b15801561069557600080fd5b505afa1580156106a9573d6000803e3d6000fd5b505050506040513d601f19601f820116820180604052508101906106cd9190612dc7565b6107195760405162461bcd60e51b815260206004820152601b60248201527f4275726e526f757465724c6f6769633a206e6f74206c6f636b657200000000006044820152606401610311565b8082146105495760405162461bcd60e51b815260206004820152601e60248201527f4275726e526f757465724c6f6769633a2077726f6e6720696e646578657300006044820152606401610311565b600081600581111561078a57634e487b7160e01b600052602160045260246000fd5b14806107b5575060048160058111156107b357634e487b7160e01b600052602160045260246000fd5b145b806107df575060058160058111156107dd57634e487b7160e01b600052602160045260246000fd5b145b1561083a5781516020146108355760405162461bcd60e51b815260206004820152601f60248201527f4275726e526f757465724c6f6769633a20696e76616c696420736372697074006044820152606401610311565b61088b565b815160141461088b5760405162461bcd60e51b815260206004820152601f60248201527f4275726e526f757465724c6f6769633a20696e76616c696420736372697074006044820152606401610311565b5050565b60008061089c87876110ec565b915091506108ac8886868661119d565b82146108fa5760405162461bcd60e51b815260206004820181905260248201527f4275726e526f757465724c6f6769633a2077726f6e67206f75747075742074786044820152606401610311565b885160208a012061090b85836112fa565b805190602001201461095f5760405162461bcd60e51b815260206004820152601f60248201527f4275726e526f757465724c6f6769633a206e6f7420666f72206c6f636b6572006044820152606401610311565b505050505050505050565b6000806109778786610a79565b9050803410156109c95760405162461bcd60e51b815260206004820152601560248201527f426974636f696e52656c61793a206c6f772066656500000000000000000000006044820152606401610311565b6000610a4488888888886040516024016109e69493929190613244565b60408051601f198184030181529190526020810180517bffffffffffffffffffffffffffffffffffffffffffffffffffffffff167f4354da250000000000000000000000000000000000000000000000000000000017905284611396565b9050610a5933610a54843461336d565b6113c6565b80806020019051810190610a6d9190612dc7565b98975050505050505050565b6040517fd0a8973900000000000000000000000000000000000000000000000000000000815260048101829052600060248201819052906001600160a01b0384169063d0a897399060440160206040518083038186803b158015610adc57600080fd5b505afa158015610af0573d6000803e3d6000fd5b505050506040513d601f19601f82011682018060405250810190610b149190612de7565b90505b92915050565b89516002148015610b2f575082516002145b8015610b3c575080516003145b610b885760405162461bcd60e51b815260206004820152601d60248201527f4275726e526f757465724c6f6769633a2077726f6e6720696e707574730000006044820152606401610311565b8481600281518110610baa57634e487b7160e01b600052603260045260246000fd5b60200260200101511015610c005760405162461bcd60e51b815260206004820152601c60248201527f4275726e526f757465724c6f6769633a206f6c642072657175657374000000006044820152606401610311565b610c5d868583600281518110610c2657634e487b7160e01b600052603260045260246000fd5b60200260200101518585600181518110610c5057634e487b7160e01b600052603260045260246000fd5b602002602001015161096a565b610ca95760405162461bcd60e51b815260206004820152601e60248201527f4275726e526f757465724c6f6769633a206e6f742066696e616c697a656400006044820152606401610311565b60008481526020899052604090205460ff1615610d085760405162461bcd60e51b815260206004820152601d60248201527f4275726e526f757465724c6f6769633a20616c726561647920757365640000006044820152606401610311565b6000848152602089905260409020805460ff19166001179055805181906002908110610d4457634e487b7160e01b600052603260045260246000fd5b602002602001015187610d5791906132dc565b610d60876101fe565b11610db95760405162461bcd60e51b8152602060048201526024808201527f4275726e526f757465724c6f6769633a20646561646c696e65206e6f742070616044820152631cdcd95960e21b6064820152608401610311565b600080610df48b82602002015184600081518110610de757634e487b7160e01b600052603260045260246000fd5b60200260200101516110ec565b91509150610e808c600181518110610e1c57634e487b7160e01b600052603260045260246000fd5b60200260200101518c600160038110610e4557634e487b7160e01b600052603260045260246000fd5b60200201518d6002602002015188600181518110610e7357634e487b7160e01b600052603260045260246000fd5b602002602001015161119d565b8214610ece5760405162461bcd60e51b815260206004820181905260248201527f4275726e526f757465724c6f6769633a2077726f6e67206f75747075742074786044820152606401610311565b8c5160208e012060408c0151610ee490836112fa565b8051906020012014610f385760405162461bcd60e51b815260206004820152601f60248201527f4275726e526f757465724c6f6769633a206e6f7420666f72206c6f636b6572006044820152606401610311565b50505050505050505050505050565b6000816001600160a01b031663a072bc506040518163ffffffff1660e01b815260040160206040518083038186803b15801561023957600080fd5b600080610f99610f94825b86906114e4565b611508565b905062ffffff198082161415610ff15760405162461bcd60e51b815260206004820152601b60248201527f426974636f696e48656c7065723a20766f7574206973206e756c6c00000000006044820152606401610311565b6000806000611001846000611651565b67ffffffffffffffff16905060005b818110156110b357611022858261179a565b935061102d846118c4565b9250866040516020016110409190613228565b604051602081830303815290604052805190602001206110658462ffffff1916611916565b6040516020016110759190613228565b6040516020818303038152906040528051906020012014156110a15761109a84611966565b95506110b3565b806110ab816133d7565b915050611010565b505050505092915050565b6000806110ce610f9484836114e4565b90506110db816000611651565b67ffffffffffffffff169392505050565b600080806111046110ff825b87906114e4565b61198b565b905062ffffff19808216141561115c5760405162461bcd60e51b815260206004820152601a60248201527f426974636f696e48656c7065723a2076696e206973206e756c6c0000000000006044820152606401610311565b60006111688286611a7e565b9050600061117582611b85565b905061118081611ba9565b945061118b81611bcb565b63ffffffff1693505050509250929050565b6000806111ac6110ff826110f8565b905062ffffff1980821614156112045760405162461bcd60e51b815260206004820152601a60248201527f426974636f696e48656c7065723a2076696e206973206e756c6c0000000000006044820152606401610311565b600060028787878760405160200161121f94939291906131bc565b60408051601f198184030181529082905261123991613228565b602060405180830381855afa158015611256573d6000803e3d6000fd5b5050506040513d601f19601f820116820180604052508101906112799190612de7565b9050600060028260405160200161129291815260200190565b60408051601f19818403018152908290526112ac91613228565b602060405180830381855afa1580156112c9573d6000803e3d6000fd5b5050506040513d601f19601f820116820180604052508101906112ec9190612de7565b93505050505b949350505050565b6060600061130a610f9482610f8d565b905062ffffff1980821614156113625760405162461bcd60e51b815260206004820152601b60248201527f426974636f696e48656c7065723a20766f7574206973206e756c6c00000000006044820152606401610311565b600061136e828561179a565b9050600061137b826118c4565b905061138c62ffffff198216611916565b9695505050505050565b60606113bc84848460405180606001604052806029815260200161341f60299139611bf5565b90505b9392505050565b804710156114165760405162461bcd60e51b815260206004820152601d60248201527f416464726573733a20696e73756666696369656e742062616c616e63650000006044820152606401610311565b6000826001600160a01b03168260405160006040518083038185875af1925050503d8060008114611463576040519150601f19603f3d011682016040523d82523d6000602084013e611468565b606091505b50509050806114df5760405162461bcd60e51b815260206004820152603a60248201527f416464726573733a20756e61626c6520746f2073656e642076616c75652c207260448201527f6563697069656e74206d617920686176652072657665727465640000000000006064820152608401610311565b505050565b8151600090602084016114ff64ffffffffff85168284611d34565b95945050505050565b6000818161151e815b62ffffff19841690611d78565b50601884901c6001600160601b031661153e5762ffffff195b925061164a565b600061154b856000611651565b9050601885901c6001600160601b031667ffffffffffffffff82166115795762ffffff195b9450505061164a565b600061158483611e7a565b60ff16905060005b8367ffffffffffffffff16811015611601578282106115b65762ffffff195b96505050505061164a565b60006115d66115c5848661336d565b600e5b62ffffff198c169190611ed6565b90506115e181611f0a565b6115eb90846132dc565b92505080806115f9906133d7565b91505061158c565b508181146116195762ffffff195b955050505061164a565b611644600f5b60d81b7affffffffffffffffffffffffffffffffffffffffffffffff00000089161790565b95505050505b5050919050565b60008061166662ffffff198516846001611f54565b905060fc81116116815761167981611f84565b915050610b17565b8060fd14156116e7576116af6116aa61169b8560016132dc565b62ffffff198716906002612008565b611f84565b91506116ba82611e7a565b60ff166003146116e2576116e06116db62ffffff1986168560036000612159565b6121c9565b505b611793565b8060fe141561173c576117106116aa6117018560016132dc565b62ffffff198716906004612008565b915061171b82611e7a565b60ff166005146116e2576116e06116db62ffffff1986168560056000612159565b8060ff1415611793576117656116aa6117568560016132dc565b62ffffff198716906008612008565b915061177082611e7a565b60ff16600914611793576117916116db62ffffff1986168560096000612159565b505b5092915050565b600082600f6117a881611511565b5060006117b6866000611651565b67ffffffffffffffff169050601886901c6001600160601b031681861061181f5760405162461bcd60e51b815260206004820152601160248201527f566f75742072656164206f76657272756e0000000000000000000000000000006044820152606401610311565b600061182a83611e7a565b60ff1690506000805b8881101561188257611859611848848661336d565b600e5b62ffffff198d169190611ed6565b915061186482611f0a565b61186e90846132dc565b925061187b6001826132dc565b9050611833565b506118906115c5838561336d565b9050600061189d82611f0a565b90506118b68382600d5b62ffffff198e16929190612159565b9a9950505050505050505050565b600081600d6118d281611511565b5060006118e0856008611651565b90506114ff6118ee82611e7a565b6118f99060086132f4565b62ffffff1987169060ff1667ffffffffffffffff84166007612159565b606060008061192e8460181c6001600160601b031690565b60405193508392506001600160601b03169050611955846119508460206132dc565b612250565b508181016020016040529052919050565b600081600d61197481611511565b506112f26116aa62ffffff19861660006008612008565b6000818161199881611511565b50601884901c6001600160601b03166119b55762ffffff19611537565b60006119c2856000611651565b9050601885901c6001600160601b031667ffffffffffffffff82166119eb5762ffffff19611570565b60006119f683611e7a565b60ff16905060005b8367ffffffffffffffff16811015611a6257828210611a215762ffffff196115ab565b6000611a37611a30848661336d565b60056115c8565b9050611a42816123d8565b611a4c90846132dc565b9250508080611a5a906133d7565b9150506119fe565b50818114611a745762ffffff1961160f565b611644600661161f565b6000826006611a8c81611511565b506000611a9a866000611651565b67ffffffffffffffff169050601886901c6001600160601b0316818610611b035760405162461bcd60e51b815260206004820152601060248201527f56696e2072656164206f76657272756e000000000000000000000000000000006044820152606401610311565b6000611b0e83611e7a565b60ff1690506000805b88811015611b5c57611b33611b2c848661336d565b600561184b565b9150611b3e826123d8565b611b4890846132dc565b9250611b556001826132dc565b9050611b17565b50611b6a611a30838561336d565b90506000611b77826123d8565b90506118b6838260046118a7565b6000816004611b9381611511565b506112f262ffffff198516600060246003612159565b6000816003611bb781611511565b506112f262ffffff1985166000602061242d565b6000816003611bd981611511565b506112f2611bf062ffffff19861660206004612008565b6125a2565b606082471015611c6d5760405162461bcd60e51b815260206004820152602660248201527f416464726573733a20696e73756666696369656e742062616c616e636520666f60448201527f722063616c6c00000000000000000000000000000000000000000000000000006064820152608401610311565b843b611cbb5760405162461bcd60e51b815260206004820152601d60248201527f416464726573733a2063616c6c20746f206e6f6e2d636f6e74726163740000006044820152606401610311565b600080866001600160a01b03168587604051611cd79190613228565b60006040518083038185875af1925050503d8060008114611d14576040519150601f19603f3d011682016040523d82523d6000602084013e611d19565b606091505b5091509150611d2982828661261e565b979650505050505050565b600080611d4183856132dc565b9050604051811115611d51575060005b80611d635762ffffff199150506113bf565b5050606092831b9190911790911b1760181b90565b6000611d848383612657565b611e73576000611da3611d978560d81c90565b64ffffffffff1661267a565b9150506000611db88464ffffffffff1661267a565b6040517f5479706520617373657274696f6e206661696c65642e20476f7420307800000060208201527fffffffffffffffffffff0000000000000000000000000000000000000000000060b086811b8216603d8401527f2e20457870656374656420307800000000000000000000000000000000000000604784015283901b16605482015290925060009150605e015b60405160208183030381529060405290508060405162461bcd60e51b81526004016103119190613274565b5090919050565b600060fc8267ffffffffffffffff1611611e9657506001610274565b61ffff8267ffffffffffffffff1611611eb157506003610274565b63ffffffff8267ffffffffffffffff1611611ece57506005610274565b506009610274565b60006113bc8484611ef08760181c6001600160601b031690565b6001600160601b0316611f03919061336d565b8585612159565b600081600e611f1881611511565b506000611f26856008611651565b90508067ffffffffffffffff16611f3c82611e7a565b60ff16611f4991906132dc565b6114ff9060086132dc565b6000611f61826020613384565b611f6c906008613344565b60ff16611f7a85858561242d565b901c949350505050565b600067ffffffffffffffff8211156120045760405162461bcd60e51b815260206004820152602660248201527f53616665436173743a2076616c756520646f65736e27742066697420696e203660448201527f34206269747300000000000000000000000000000000000000000000000000006064820152608401610311565b5090565b60006113bc61201885858561242d565b600881811c7eff00ff00ff00ff00ff00ff00ff00ff00ff00ff00ff00ff00ff00ff00ff00ff167fff00ff00ff00ff00ff00ff00ff00ff00ff00ff00ff00ff00ff00ff00ff00ff009290911b9190911617601081811c7dffff0000ffff0000ffff0000ffff0000ffff0000ffff0000ffff0000ffff167fffff0000ffff0000ffff0000ffff0000ffff0000ffff0000ffff0000ffff00009290911b9190911617602081811c7bffffffff00000000ffffffff00000000ffffffff00000000ffffffff167fffffffff00000000ffffffff00000000ffffffff00000000ffffffff000000009290911b9190911617604081811c77ffffffffffffffff0000000000000000ffffffffffffffff167fffffffffffffffff0000000000000000ffffffffffffffff00000000000000009290911b9190911617608081811c91901b1790565b60008061216f8660781c6001600160601b031690565b6001600160601b0316905061218386612726565b8461218e87846132dc565b61219891906132dc565b11156121ab5762ffffff199150506112f2565b6121b585826132dc565b905061138c8364ffffffffff168286611d34565b606060006121fd6121f8826121ea601887901c6001600160601b0316612767565b62ffffff1987169190611f54565b61267a565b6040517f4e6f6e2d6d696e696d616c2076617220696e742e20476f74203078000000000060208201526dffffffffffffffffffffffffffff19607083901b16603b82015290925060009150604d01611e48565b600062ffffff1980841614156122ce5760405162461bcd60e51b815260206004820152602860248201527f54797065644d656d566965772f636f7079546f202d204e756c6c20706f696e7460448201527f65722064657265660000000000000000000000000000000000000000000000006064820152608401610311565b6122d7836127e0565b6123495760405162461bcd60e51b815260206004820152602b60248201527f54797065644d656d566965772f636f7079546f202d20496e76616c696420706f60448201527f696e7465722064657265660000000000000000000000000000000000000000006064820152608401610311565b600061235e8460181c6001600160601b031690565b6001600160601b03169050600061237e8560781c6001600160601b031690565b6001600160601b03169050600060405190508481111561239e5760206060fd5b8285848460045afa5061138c6123b48760d81c90565b70ffffffffff000000000000000000000000606091821b168717901b841760181b90565b60008160056123e681611511565b5060006123f4856024611651565b90508067ffffffffffffffff1661240a82611e7a565b60ff1661241791906132dc565b6124229060246132dc565b6114ff9060046132dc565b600060ff821661243f575060006113bf565b6124528460181c6001600160601b031690565b6001600160601b031661246860ff8416856132dc565b11156124cc576124b36124848560781c6001600160601b031690565b6001600160601b03166124a08660181c6001600160601b031690565b6001600160601b0316858560ff1661281e565b60405162461bcd60e51b81526004016103119190613274565b60208260ff1611156125465760405162461bcd60e51b815260206004820152603a60248201527f54797065644d656d566965772f696e646578202d20417474656d70746564207460448201527f6f20696e646578206d6f7265207468616e2033322062797465730000000000006064820152608401610311565b60088202600061255f8660781c6001600160601b031690565b6001600160601b0316905060007f800000000000000000000000000000000000000000000000000000000000000060001984011d91909501511695945050505050565b600063ffffffff8211156120045760405162461bcd60e51b815260206004820152602660248201527f53616665436173743a2076616c756520646f65736e27742066697420696e203360448201527f32206269747300000000000000000000000000000000000000000000000000006064820152608401610311565b6060831561262d5750816113bf565b82511561263d5782518084602001fd5b8160405162461bcd60e51b81526004016103119190613274565b60008164ffffffffff1661266b8460d81c90565b64ffffffffff16149392505050565b600080601f5b600f8160ff1611156126d8576000612699826008613344565b60ff1685901c90506126aa816129ae565b61ffff16841793508160ff166010146126c557601084901b93505b506126d1600182613384565b9050612680565b50600f5b60ff8160ff1610156127205760ff600882021684901c6126fb816129ae565b61ffff16831792508160ff1660001461271657601083901b92505b50600019016126dc565b50915091565b600061273b8260181c6001600160601b031690565b61274e8360781c6001600160601b031690565b6127589190613319565b6001600160601b031692915050565b600060ff8211156120045760405162461bcd60e51b815260206004820152602560248201527f53616665436173743a2076616c756520646f65736e27742066697420696e203860448201527f20626974730000000000000000000000000000000000000000000000000000006064820152608401610311565b60006127ec8260d81c90565b64ffffffffff1664ffffffffff141561280757506000610274565b600061281283612726565b60405110199392505050565b6060600061282b8661267a565b91505060006128398661267a565b91505060006128478661267a565b91505060006128558661267a565b604080517f54797065644d656d566965772f696e646578202d204f76657272616e2074686560208201527f20766965772e20536c6963652069732061742030780000000000000000000000818301527fffffffffffff000000000000000000000000000000000000000000000000000060d098891b811660558301527f2077697468206c656e6774682030780000000000000000000000000000000000605b830181905297891b8116606a8301527f2e20417474656d7074656420746f20696e646578206174206f6666736574203060708301527f7800000000000000000000000000000000000000000000000000000000000000609083015295881b861660918201526097810196909652951b90921660a684015250507f2e0000000000000000000000000000000000000000000000000000000000000060ac8201528151808203608d01815260ad90910190915295945050505050565b60006129c060048360ff16901c6129de565b60ff161760081b62ffff00166129d5826129de565b60ff1617919050565b600060f08083179060ff821614156129fa576030915050610274565b8060ff1660f11415612a10576031915050610274565b8060ff1660f21415612a26576032915050610274565b8060ff1660f31415612a3c576033915050610274565b8060ff1660f41415612a52576034915050610274565b8060ff1660f51415612a68576035915050610274565b8060ff1660f61415612a7e576036915050610274565b8060ff1660f71415612a94576037915050610274565b8060ff1660f81415612aaa576038915050610274565b8060ff1660f91415612ac0576039915050610274565b8060ff1660fa1415612ad6576061915050610274565b8060ff1660fb1415612aec576062915050610274565b8060ff1660fc1415612b02576063915050610274565b8060ff1660fd1415612b18576064915050610274565b8060ff1660fe1415612b2e576065915050610274565b8060ff1660ff1415612b44576066915050610274565b50919050565b80356001600160a01b038116811461027457600080fd5b600082601f830112612b71578081fd5b81356020612b86612b81836132b8565b613287565b8281528181019085830183850287018401881015612ba2578586fd5b855b85811015612bc757612bb582612c82565b84529284019290840190600101612ba4565b5090979650505050505050565b600082601f830112612be4578081fd5b612bee6060613287565b8083835b6003811015612c1d57612c088783358801612cb2565b84526020938401939190910190600101612bf2565b509095945050505050565b600082601f830112612c38578081fd5b81356020612c48612b81836132b8565b8281528181019085830183850287018401881015612c64578586fd5b855b85811015612bc757813584529284019290840190600101612c66565b80357fffffffff000000000000000000000000000000000000000000000000000000008116811461027457600080fd5b600082601f830112612cc2578081fd5b813567ffffffffffffffff811115612cdc57612cdc613408565b612cef601f8201601f1916602001613287565b818152846020838601011115612d03578283fd5b816020850160208301379081016020019190915292915050565b600060208284031215612d2e578081fd5b610b1482612b4a565b600080600080600060a08688031215612d4e578081fd5b612d5786612b4a565b94506020860135935060408601359250606086013567ffffffffffffffff811115612d80578182fd5b612d8c88828901612cb2565b95989497509295608001359392505050565b60008060408385031215612db0578182fd5b612db983612b4a565b946020939093013593505050565b600060208284031215612dd8578081fd5b815180151581146113bf578182fd5b600060208284031215612df8578081fd5b5051919050565b60008060008060008060008060008060006101608c8e031215612e20578586fd5b67ffffffffffffffff808d351115612e36578687fd5b612e438e8e358f01612cb2565b9b508060208e01351115612e55578687fd5b612e658e60208f01358f01612b61565b9a508060408e01351115612e77578687fd5b612e878e60408f01358f01612bd4565b995060608d0135985060808d01359750612ea360a08e01612b4a565b965060c08d0135955060e08d01359450806101008e01351115612ec4578384fd5b612ed58e6101008f01358f01612b61565b9350806101208e01351115612ee8578283fd5b612ef98e6101208f01358f01612cb2565b9250806101408e01351115612f0c578182fd5b50612f1e8d6101408e01358e01612c28565b90509295989b509295989b9093969950565b600080600080600080600060e0888a031215612f4a578081fd5b873567ffffffffffffffff80821115612f61578283fd5b612f6d8b838c01612cb2565b9850612f7b60208b01612c82565b975060408a0135915080821115612f90578283fd5b612f9c8b838c01612cb2565b965060608a0135955060808a0135915080821115612fb8578283fd5b612fc48b838c01612cb2565b945060a08a0135915080821115612fd9578283fd5b50612fe68a828b01612cb2565b925050612ff560c08901612c82565b905092959891949750929550565b60008060408385031215613015578182fd5b823567ffffffffffffffff81111561302b578283fd5b61303785828601612cb2565b92505060208301356006811061304b578182fd5b809150509250929050565b60008060008060008060c0878903121561306e578384fd5b8635955061307e60208801612b4a565b95989597505050506040840135936060810135936080820135935060a0909101359150565b600080600080600060a086880312156130ba578283fd5b8535945060208601359350604086013567ffffffffffffffff808211156130df578485fd5b6130eb89838a01612cb2565b94506060880135915080821115613100578283fd5b50612d8c88828901612cb2565b600080600080600080600060e0888a031215613127578081fd5b873596506020880135955061313e60408901612c82565b945061314c60608901612b4a565b9350608088013567ffffffffffffffff811115613167578182fd5b6131738a828b01612cb2565b93505060a0880135915060c0880135905092959891949750929550565b600081518084526131a88160208601602086016133a7565b601f01601f19169290920160200192915050565b60007fffffffff00000000000000000000000000000000000000000000000000000000808716835285516131f7816004860160208a016133a7565b85519084019061320e816004840160208a016133a7565b919094169301600481019390935250506008019392505050565b6000825161323a8184602087016133a7565b9190910192915050565b6000858252846020830152608060408301526132636080830185613190565b905082606083015295945050505050565b600060208252610b146020830184613190565b604051601f8201601f1916810167ffffffffffffffff811182821017156132b0576132b0613408565b604052919050565b600067ffffffffffffffff8211156132d2576132d2613408565b5060209081020190565b600082198211156132ef576132ef6133f2565b500190565b600060ff821660ff84168060ff03821115613311576133116133f2565b019392505050565b60006001600160601b0380831681851680830382111561333b5761333b6133f2565b01949350505050565b600060ff821660ff84168160ff0481118215151615613365576133656133f2565b029392505050565b60008282101561337f5761337f6133f2565b500390565b600060ff821660ff84168082101561339e5761339e6133f2565b90039392505050565b60005b838110156133c25781810151838201526020016133aa565b838111156133d1576000848401525b50505050565b60006000198214156133eb576133eb6133f2565b5060010190565b634e487b7160e01b600052601160045260246000fd5b634e487b7160e01b600052604160045260246000fdfe416464726573733a206c6f772d6c6576656c2063616c6c20776974682076616c7565206661696c6564a264697066735822122043411da6052fafff40a7c904dd93dcfbfba4e78579b8c1489d957cf8689441a964736f6c63430008020033",
  "devdoc": {
    "kind": "dev",
    "methods": {
      "isConfirmed(address,bytes32,uint256,bytes,uint256)": {
        "details": "Calls the relay contract to check Merkle inclusion proof",
        "params": {
          "_blockNumber": "Height of the block containing the transaction",
          "_index": "Index of transaction in the block",
          "_intermediateNodes": "Merkle inclusion proof for the transaction",
          "_relay": "Address of Relay contract",
          "_txId": "of the transaction"
        },
        "returns": {
          "_0": "True if the transaction was included in the block"
        }
      },
      "updateIsUsedAsBurnProof(mapping(bytes32 => bool) storage,uint256,bytes,bytes,bytes32)": {
        "details": "One output might return the remaining value to the locker",
        "params": {
          "_lockerLockingScript": "Locking script of locker",
          "_paidOutputCounter": "Number of the tx outputs that pay a cc burn request",
          "_txId": "Transaction id",
          "_vout": "Outputs of a transaction"
        }
      }
    },
    "version": 1
  },
  "userdoc": {
    "kind": "user",
    "methods": {
      "checkScriptType(bytes,ScriptTypes)": {
        "notice": "Checks the user hash script to be valid (based on its type)"
      },
      "isConfirmed(address,bytes32,uint256,bytes,uint256)": {
        "notice": "Checks inclusion of the transaction in the specified block"
      },
      "updateIsUsedAsBurnProof(mapping(bytes32 => bool) storage,uint256,bytes,bytes,bytes32)": {
        "notice": "Checks if all outputs of the transaction used to pay a cc burn request"
      }
    },
    "version": 1
  },
  "storageLayout": {
    "storage": [],
    "types": null
  }
}