{
  "address": "0xf469E248F863804A0A099aBe19830C79e81885aE",
  "abi": [
    {
      "inputs": [
        {
          "internalType": "address",
          "name": "_relay",
          "type": "address"
        },
        {
          "internalType": "address",
          "name": "_lockers",
          "type": "address"
        },
        {
          "internalType": "address",
          "name": "_treasury",
          "type": "address"
        },
        {
          "internalType": "address",
          "name": "_teleBTC",
          "type": "address"
        },
        {
          "internalType": "uint256",
          "name": "_transferDeadline",
          "type": "uint256"
        },
        {
          "internalType": "uint256",
          "name": "_protocolPercentageFee",
          "type": "uint256"
        },
        {
          "internalType": "uint256",
          "name": "_slasherPercentageReward",
          "type": "uint256"
        },
        {
          "internalType": "uint256",
          "name": "_bitcoinFee",
          "type": "uint256"
        }
      ],
      "stateMutability": "nonpayable",
      "type": "constructor"
    },
    {
      "anonymous": false,
      "inputs": [
        {
          "indexed": true,
          "internalType": "address",
          "name": "userTargetAddress",
          "type": "address"
        },
        {
          "indexed": true,
          "internalType": "address",
          "name": "_lockerTargetAddress",
          "type": "address"
        },
        {
          "indexed": false,
          "internalType": "bytes",
          "name": "lockerLockingScript",
          "type": "bytes"
        },
        {
          "indexed": false,
          "internalType": "uint256",
          "name": "requestIdOfLocker",
          "type": "uint256"
        }
      ],
      "name": "BurnDispute",
      "type": "event"
    },
    {
      "anonymous": false,
      "inputs": [
        {
          "indexed": true,
          "internalType": "address",
          "name": "userTargetAddress",
          "type": "address"
        },
        {
          "indexed": false,
          "internalType": "bytes",
          "name": "userScript",
          "type": "bytes"
        },
        {
          "indexed": false,
          "internalType": "enum ScriptTypes",
          "name": "scriptType",
          "type": "uint8"
        },
        {
          "indexed": false,
          "internalType": "uint256",
          "name": "amount",
          "type": "uint256"
        },
        {
          "indexed": false,
          "internalType": "uint256",
          "name": "burntAmount",
          "type": "uint256"
        },
        {
          "indexed": true,
          "internalType": "address",
          "name": "lockerTargetAddress",
          "type": "address"
        },
        {
          "indexed": false,
          "internalType": "bytes",
          "name": "lockerLockingScript",
          "type": "bytes"
        },
        {
          "indexed": false,
          "internalType": "uint256",
          "name": "requestIdOfLocker",
          "type": "uint256"
        },
        {
          "indexed": true,
          "internalType": "uint256",
          "name": "deadline",
          "type": "uint256"
        }
      ],
      "name": "CCBurn",
      "type": "event"
    },
    {
      "anonymous": false,
      "inputs": [
        {
          "indexed": false,
          "internalType": "address",
          "name": "_lockerTargetAddress",
          "type": "address"
        },
        {
          "indexed": false,
          "internalType": "bytes",
          "name": "lockerLockingScript",
          "type": "bytes"
        },
        {
          "indexed": false,
          "internalType": "uint256",
          "name": "_blockNumber",
          "type": "uint256"
        },
        {
          "indexed": false,
          "internalType": "bytes32",
          "name": "txId",
          "type": "bytes32"
        },
        {
          "indexed": false,
          "internalType": "uint256",
          "name": "amount",
          "type": "uint256"
        }
      ],
      "name": "LockerDispute",
      "type": "event"
    },
    {
      "anonymous": false,
      "inputs": [
        {
          "indexed": false,
          "internalType": "uint256",
          "name": "oldBitcoinFee",
          "type": "uint256"
        },
        {
          "indexed": false,
          "internalType": "uint256",
          "name": "newBitcoinFee",
          "type": "uint256"
        }
      ],
      "name": "NewBitcoinFee",
      "type": "event"
    },
    {
      "anonymous": false,
      "inputs": [
        {
          "indexed": false,
          "internalType": "address",
          "name": "oldLockers",
          "type": "address"
        },
        {
          "indexed": false,
          "internalType": "address",
          "name": "newLockers",
          "type": "address"
        }
      ],
      "name": "NewLockers",
      "type": "event"
    },
    {
      "anonymous": false,
      "inputs": [
        {
          "indexed": false,
          "internalType": "uint256",
          "name": "oldProtocolPercentageFee",
          "type": "uint256"
        },
        {
          "indexed": false,
          "internalType": "uint256",
          "name": "newProtocolPercentageFee",
          "type": "uint256"
        }
      ],
      "name": "NewProtocolPercentageFee",
      "type": "event"
    },
    {
      "anonymous": false,
      "inputs": [
        {
          "indexed": false,
          "internalType": "address",
          "name": "oldRelay",
          "type": "address"
        },
        {
          "indexed": false,
          "internalType": "address",
          "name": "newRelay",
          "type": "address"
        }
      ],
      "name": "NewRelay",
      "type": "event"
    },
    {
      "anonymous": false,
      "inputs": [
        {
          "indexed": false,
          "internalType": "uint256",
          "name": "oldSlasherPercentageFee",
          "type": "uint256"
        },
        {
          "indexed": false,
          "internalType": "uint256",
          "name": "newSlasherPercentageFee",
          "type": "uint256"
        }
      ],
      "name": "NewSlasherPercentageFee",
      "type": "event"
    },
    {
      "anonymous": false,
      "inputs": [
        {
          "indexed": false,
          "internalType": "address",
          "name": "oldTeleBTC",
          "type": "address"
        },
        {
          "indexed": false,
          "internalType": "address",
          "name": "newTeleBTC",
          "type": "address"
        }
      ],
      "name": "NewTeleBTC",
      "type": "event"
    },
    {
      "anonymous": false,
      "inputs": [
        {
          "indexed": false,
          "internalType": "uint256",
          "name": "oldTransferDeadline",
          "type": "uint256"
        },
        {
          "indexed": false,
          "internalType": "uint256",
          "name": "newTransferDeadline",
          "type": "uint256"
        }
      ],
      "name": "NewTransferDeadline",
      "type": "event"
    },
    {
      "anonymous": false,
      "inputs": [
        {
          "indexed": false,
          "internalType": "address",
          "name": "oldTreasury",
          "type": "address"
        },
        {
          "indexed": false,
          "internalType": "address",
          "name": "newTreasury",
          "type": "address"
        }
      ],
      "name": "NewTreasury",
      "type": "event"
    },
    {
      "anonymous": false,
      "inputs": [
        {
          "indexed": true,
          "internalType": "address",
          "name": "previousOwner",
          "type": "address"
        },
        {
          "indexed": true,
          "internalType": "address",
          "name": "newOwner",
          "type": "address"
        }
      ],
      "name": "OwnershipTransferred",
      "type": "event"
    },
    {
      "anonymous": false,
      "inputs": [
        {
          "indexed": true,
          "internalType": "address",
          "name": "lockerTargetAddress",
          "type": "address"
        },
        {
          "indexed": false,
          "internalType": "uint256",
          "name": "requestIdOfLocker",
          "type": "uint256"
        },
        {
          "indexed": false,
          "internalType": "bytes32",
          "name": "bitcoinTxId",
          "type": "bytes32"
        },
        {
          "indexed": false,
          "internalType": "uint256",
          "name": "bitcoinTxOutputIndex",
          "type": "uint256"
        }
      ],
      "name": "PaidCCBurn",
      "type": "event"
    },
    {
      "inputs": [],
      "name": "bitcoinFee",
      "outputs": [
        {
          "internalType": "uint256",
          "name": "",
          "type": "uint256"
        }
      ],
      "stateMutability": "view",
      "type": "function"
    },
    {
      "inputs": [
        {
          "internalType": "bytes4",
          "name": "_version",
          "type": "bytes4"
        },
        {
          "internalType": "bytes",
          "name": "_vin",
          "type": "bytes"
        },
        {
          "internalType": "bytes",
          "name": "_vout",
          "type": "bytes"
        },
        {
          "internalType": "bytes4",
          "name": "_locktime",
          "type": "bytes4"
        },
        {
          "internalType": "uint256",
          "name": "_blockNumber",
          "type": "uint256"
        },
        {
          "internalType": "bytes",
          "name": "_intermediateNodes",
          "type": "bytes"
        },
        {
          "internalType": "uint256",
          "name": "_index",
          "type": "uint256"
        },
        {
          "internalType": "bytes",
          "name": "_lockerLockingScript",
          "type": "bytes"
        },
        {
          "internalType": "uint256[]",
          "name": "_burnReqIndexes",
          "type": "uint256[]"
        },
        {
          "internalType": "uint256[]",
          "name": "_voutIndexes",
          "type": "uint256[]"
        }
      ],
      "name": "burnProof",
      "outputs": [
        {
          "internalType": "bool",
          "name": "",
          "type": "bool"
        }
      ],
      "stateMutability": "payable",
      "type": "function"
    },
    {
      "inputs": [
        {
          "internalType": "address",
          "name": "",
          "type": "address"
        }
      ],
      "name": "burnRequestCounter",
      "outputs": [
        {
          "internalType": "uint256",
          "name": "",
          "type": "uint256"
        }
      ],
      "stateMutability": "view",
      "type": "function"
    },
    {
      "inputs": [
        {
          "internalType": "address",
          "name": "",
          "type": "address"
        },
        {
          "internalType": "uint256",
          "name": "",
          "type": "uint256"
        }
      ],
      "name": "burnRequests",
      "outputs": [
        {
          "internalType": "uint256",
          "name": "amount",
          "type": "uint256"
        },
        {
          "internalType": "uint256",
          "name": "burntAmount",
          "type": "uint256"
        },
        {
          "internalType": "address",
          "name": "sender",
          "type": "address"
        },
        {
          "internalType": "bytes",
          "name": "userScript",
          "type": "bytes"
        },
        {
          "internalType": "uint256",
          "name": "deadline",
          "type": "uint256"
        },
        {
          "internalType": "bool",
          "name": "isTransferred",
          "type": "bool"
        },
        {
          "internalType": "enum ScriptTypes",
          "name": "scriptType",
          "type": "uint8"
        },
        {
          "internalType": "uint256",
          "name": "requestIdOfLocker",
          "type": "uint256"
        }
      ],
      "stateMutability": "view",
      "type": "function"
    },
    {
      "inputs": [
        {
          "internalType": "uint256",
          "name": "_amount",
          "type": "uint256"
        },
        {
          "internalType": "bytes",
          "name": "_userScript",
          "type": "bytes"
        },
        {
          "internalType": "enum ScriptTypes",
          "name": "_scriptType",
          "type": "uint8"
        },
        {
          "internalType": "bytes",
          "name": "_lockerLockingScript",
          "type": "bytes"
        }
      ],
      "name": "ccBurn",
      "outputs": [
        {
          "internalType": "uint256",
          "name": "_burntAmount",
          "type": "uint256"
        }
      ],
      "stateMutability": "nonpayable",
      "type": "function"
    },
    {
      "inputs": [
        {
          "internalType": "bytes",
          "name": "_lockerLockingScript",
          "type": "bytes"
        },
        {
          "internalType": "uint256[]",
          "name": "_indices",
          "type": "uint256[]"
        }
      ],
      "name": "disputeBurn",
      "outputs": [
        {
          "internalType": "bool",
          "name": "",
          "type": "bool"
        }
      ],
      "stateMutability": "nonpayable",
      "type": "function"
    },
    {
      "inputs": [
        {
          "internalType": "bytes",
          "name": "_lockerLockingScript",
          "type": "bytes"
        },
        {
          "internalType": "bytes4[]",
          "name": "_versions",
          "type": "bytes4[]"
        },
        {
          "internalType": "bytes",
          "name": "_inputVin",
          "type": "bytes"
        },
        {
          "internalType": "bytes",
          "name": "_inputVout",
          "type": "bytes"
        },
        {
          "internalType": "bytes",
          "name": "_outputVin",
          "type": "bytes"
        },
        {
          "internalType": "bytes",
          "name": "_outputVout",
          "type": "bytes"
        },
        {
          "internalType": "bytes4[]",
          "name": "_locktimes",
          "type": "bytes4[]"
        },
        {
          "internalType": "bytes",
          "name": "_inputIntermediateNodes",
          "type": "bytes"
        },
        {
          "internalType": "uint256[]",
          "name": "_indexesAndBlockNumbers",
          "type": "uint256[]"
        }
      ],
      "name": "disputeLocker",
      "outputs": [
        {
          "internalType": "bool",
          "name": "",
          "type": "bool"
        }
      ],
      "stateMutability": "payable",
      "type": "function"
    },
    {
      "inputs": [],
      "name": "fixTransferDeadline",
      "outputs": [],
      "stateMutability": "nonpayable",
      "type": "function"
    },
    {
      "inputs": [
        {
          "internalType": "address",
          "name": "_lockerTargetAddress",
          "type": "address"
        },
        {
          "internalType": "uint256",
          "name": "_index",
          "type": "uint256"
        }
      ],
      "name": "isTransferred",
      "outputs": [
        {
          "internalType": "bool",
          "name": "",
          "type": "bool"
        }
      ],
      "stateMutability": "view",
      "type": "function"
    },
    {
      "inputs": [
        {
          "internalType": "bytes32",
          "name": "",
          "type": "bytes32"
        }
      ],
      "name": "isUsedAsBurnProof",
      "outputs": [
        {
          "internalType": "bool",
          "name": "",
          "type": "bool"
        }
      ],
      "stateMutability": "view",
      "type": "function"
    },
    {
      "inputs": [],
      "name": "lockers",
      "outputs": [
        {
          "internalType": "address",
          "name": "",
          "type": "address"
        }
      ],
      "stateMutability": "view",
      "type": "function"
    },
    {
      "inputs": [],
      "name": "owner",
      "outputs": [
        {
          "internalType": "address",
          "name": "",
          "type": "address"
        }
      ],
      "stateMutability": "view",
      "type": "function"
    },
    {
      "inputs": [],
      "name": "protocolPercentageFee",
      "outputs": [
        {
          "internalType": "uint256",
          "name": "",
          "type": "uint256"
        }
      ],
      "stateMutability": "view",
      "type": "function"
    },
    {
      "inputs": [],
      "name": "relay",
      "outputs": [
        {
          "internalType": "address",
          "name": "",
          "type": "address"
        }
      ],
      "stateMutability": "view",
      "type": "function"
    },
    {
      "inputs": [],
      "name": "renounceOwnership",
      "outputs": [],
      "stateMutability": "nonpayable",
      "type": "function"
    },
    {
      "inputs": [
        {
          "internalType": "uint256",
          "name": "_bitcoinFee",
          "type": "uint256"
        }
      ],
      "name": "setBitcoinFee",
      "outputs": [],
      "stateMutability": "nonpayable",
      "type": "function"
    },
    {
      "inputs": [
        {
          "internalType": "address",
          "name": "_lockers",
          "type": "address"
        }
      ],
      "name": "setLockers",
      "outputs": [],
      "stateMutability": "nonpayable",
      "type": "function"
    },
    {
      "inputs": [
        {
          "internalType": "uint256",
          "name": "_protocolPercentageFee",
          "type": "uint256"
        }
      ],
      "name": "setProtocolPercentageFee",
      "outputs": [],
      "stateMutability": "nonpayable",
      "type": "function"
    },
    {
      "inputs": [
        {
          "internalType": "address",
          "name": "_relay",
          "type": "address"
        }
      ],
      "name": "setRelay",
      "outputs": [],
      "stateMutability": "nonpayable",
      "type": "function"
    },
    {
      "inputs": [
        {
          "internalType": "uint256",
          "name": "_slasherPercentageReward",
          "type": "uint256"
        }
      ],
      "name": "setSlasherPercentageReward",
      "outputs": [],
      "stateMutability": "nonpayable",
      "type": "function"
    },
    {
      "inputs": [
        {
          "internalType": "address",
          "name": "_teleBTC",
          "type": "address"
        }
      ],
      "name": "setTeleBTC",
      "outputs": [],
      "stateMutability": "nonpayable",
      "type": "function"
    },
    {
      "inputs": [
        {
          "internalType": "uint256",
          "name": "_transferDeadline",
          "type": "uint256"
        }
      ],
      "name": "setTransferDeadline",
      "outputs": [],
      "stateMutability": "nonpayable",
      "type": "function"
    },
    {
      "inputs": [
        {
          "internalType": "address",
          "name": "_treasury",
          "type": "address"
        }
      ],
      "name": "setTreasury",
      "outputs": [],
      "stateMutability": "nonpayable",
      "type": "function"
    },
    {
      "inputs": [],
      "name": "slasherPercentageReward",
      "outputs": [
        {
          "internalType": "uint256",
          "name": "",
          "type": "uint256"
        }
      ],
      "stateMutability": "view",
      "type": "function"
    },
    {
      "inputs": [],
      "name": "teleBTC",
      "outputs": [
        {
          "internalType": "address",
          "name": "",
          "type": "address"
        }
      ],
      "stateMutability": "view",
      "type": "function"
    },
    {
      "inputs": [],
      "name": "transferDeadline",
      "outputs": [
        {
          "internalType": "uint256",
          "name": "",
          "type": "uint256"
        }
      ],
      "stateMutability": "view",
      "type": "function"
    },
    {
      "inputs": [
        {
          "internalType": "address",
          "name": "newOwner",
          "type": "address"
        }
      ],
      "name": "transferOwnership",
      "outputs": [],
      "stateMutability": "nonpayable",
      "type": "function"
    },
    {
      "inputs": [],
      "name": "treasury",
      "outputs": [
        {
          "internalType": "address",
          "name": "",
          "type": "address"
        }
      ],
      "stateMutability": "view",
      "type": "function"
    },
    {
      "stateMutability": "payable",
      "type": "receive"
    }
  ],
  "transactionHash": "0xa35fb35a0a29c2bee14b37a9647d62c4f9dfe083f8ec102b1429184be916f6ad",
  "args": [
    "0xB3A755470c8D342886A7824CcCF11f4a42dD8c93",
    "0x0Ec56226fEE958570Ed7D25Ab9Ccda68b7720f0e",
    "0x5364E3557572bd5D5903C0e9C21BE359F2Eac1dA",
    "0xEF7bB812302826Af72D57c1071F9e66964892Ee6",
    10,
    50,
    50,
    50
  ],
  "numDeployments": 1,
  "solcInputHash": "be8d75db0385d6f9e450b4e6950966af",
  "bytecode": "0x60806040523480156200001157600080fd5b506040516200633438038062006334833981016040819052620000349162000711565b6200003f33620000a9565b600180556200004e88620000f9565b6200005987620001af565b620000648662000261565b6200006f8562000313565b6200007a84620003c5565b6200008583620004ee565b620000908262000596565b6200009b8162000651565b5050505050505050620007ad565b600080546001600160a01b038381166001600160a01b0319831681178455604051919092169283917f8be0079c531659141344cd1fd0a4f28419497f9722a3daafe3b4186f6b6457e09190a35050565b806001600160a01b038116620001455760405162461bcd60e51b815260206004820152601d60248201526000805160206200631483398151915260448201526064015b60405180910390fd5b600254604080516001600160a01b03928316815291841660208301527f4c28a3f61a715259c4dc930c23e7423b8fa52e13232c061a6e488729c66184f4910160405180910390a150600280546001600160a01b0319166001600160a01b0392909216919091179055565b806001600160a01b038116620001f75760405162461bcd60e51b815260206004820152601d60248201526000805160206200631483398151915260448201526064016200013c565b600354604080516001600160a01b03928316815291841660208301527ffa021c2ec0f46429a53e7f88b88065e40001f50c9d38b2e8b713beaf9828d4c3910160405180910390a150600380546001600160a01b0319166001600160a01b0392909216919091179055565b806001600160a01b038116620002a95760405162461bcd60e51b815260206004820152601d60248201526000805160206200631483398151915260448201526064016200013c565b600554604080516001600160a01b03928316815291841660208301527f567657fa3f286518b318f4a29870674f433f622fdfc819691acb13105b228225910160405180910390a150600580546001600160a01b0319166001600160a01b0392909216919091179055565b806001600160a01b0381166200035b5760405162461bcd60e51b815260206004820152601d60248201526000805160206200631483398151915260448201526064016200013c565b600454604080516001600160a01b03928316815291841660208301527f36a4c08a38b736dcecb6c328dba61238529620e83ccb23db2cc43cd34ec26096910160405180910390a150600480546001600160a01b0319166001600160a01b0392909216919091179055565b60025460408051630a072bc560e41b815290516000926001600160a01b03169163a072bc50916004808301926020929190829003018186803b1580156200040b57600080fd5b505afa15801562000420573d6000803e3d6000fd5b505050506040513d601f19601f8201168201806040525081019062000446919062000794565b9050808211620004ac5760405162461bcd60e51b815260206004820152602a60248201527f43434275726e526f757465723a207472616e7366657220646561646c696e6520604482015269697320746f6f206c6f7760b01b60648201526084016200013c565b60065460408051918252602082018490527f92c10a242ca42973030420e2ee32b3ba7818cc643f896958f620c606cf300416910160405180910390a150600655565b806127101015620005555760405162461bcd60e51b815260206004820152602a60248201527f43434275726e526f757465723a2070726f746f636f6c20666565206973206f7560448201526974206f662072616e676560b01b60648201526084016200013c565b60075460408051918252602082018390527f7d205f60891f60851c61cd244ba387d72b6589e7c0ac41b9d909ab0ce2c2a53b910160405180910390a1600755565b806127101015620006105760405162461bcd60e51b815260206004820152603760248201527f43434275726e526f757465723a20736c61736865722070657263656e7461676560448201527f20726577617264206973206f7574206f662072616e676500000000000000000060648201526084016200013c565b60085460408051918252602082018390527faa50b3683e42a13535a5b9c2c32780cccf956fb546b523a3542ac4ad8b544f67910160405180910390a1600855565b60095460408051918252602082018390527f47c5f9c13c35ebb166f6a8d8c56af73f8b323ac0fee7aec4a5e0490bbf67a4fe910160405180910390a1806127101015620006ef5760405162461bcd60e51b815260206004820152602560248201527f43434275726e526f757465723a2062746320666565206973206f7574206f662060448201526472616e676560d81b60648201526084016200013c565b600955565b80516001600160a01b03811681146200070c57600080fd5b919050565b600080600080600080600080610100898b0312156200072e578384fd5b6200073989620006f4565b97506200074960208a01620006f4565b96506200075960408a01620006f4565b95506200076960608a01620006f4565b94506080890151935060a0890151925060c0890151915060e089015190509295985092959890939650565b600060208284031215620007a6578081fd5b5051919050565b615b5780620007bd6000396000f3fe6080604052600436106101bb5760003560e01c80638d3d78cd116100ec578063c780c03f1161008a578063ea73263711610064578063ea732637146104d4578063f0f44260146104e7578063f2fde38b14610507578063f47e224014610527576101c2565b8063c780c03f14610481578063c805f68b14610494578063cdbe3741146104b4576101c2565b8063b14d3532116100c6578063b14d353214610415578063b59589d114610435578063b74d0d3514610455578063bed6a6021461046b576101c2565b80638d3d78cd146103aa5780638da5cb5b146103ca578063930a60e8146103e8576101c2565b80635c4f5f3e1161015957806373532b2a1161013357806373532b2a1461032a5780637ed557481461034a5780637f0f18171461036a5780637ffe9a921461038a576101c2565b80635c4f5f3e146102d557806361d027b3146102f5578063715018a614610315576101c2565b80631e236168116101955780631e2361681461023f578063419cba7f1461027f57806343149dba146102955780634782bc36146102b5576101c2565b80630e5811a8146101c75780631812adb6146101de5780631876dec414610207576101c2565b366101c257005b600080fd5b3480156101d357600080fd5b506101dc61055b565b005b3480156101ea57600080fd5b506101f460075481565b6040519081526020015b60405180910390f35b34801561021357600080fd5b50600354610227906001600160a01b031681565b6040516001600160a01b0390911681526020016101fe565b34801561024b57600080fd5b5061026f61025a366004615106565b600c6020526000908152604090205460ff1681565b60405190151581526020016101fe565b34801561028b57600080fd5b506101f460085481565b3480156102a157600080fd5b506101f46102b036600461541a565b610691565b3480156102c157600080fd5b506101dc6102d0366004615106565b610bd4565b3480156102e157600080fd5b506101dc6102f0366004615106565b610c0a565b34801561030157600080fd5b50600554610227906001600160a01b031681565b34801561032157600080fd5b506101dc610c3d565b34801561033657600080fd5b5061026f61034536600461525b565b610c69565b34801561035657600080fd5b506101dc610365366004615106565b6113cc565b34801561037657600080fd5b506101dc610385366004615083565b6113ff565b34801561039657600080fd5b5061026f6103a53660046150bb565b611432565b3480156103b657600080fd5b50600454610227906001600160a01b031681565b3480156103d657600080fd5b506000546001600160a01b0316610227565b3480156103f457600080fd5b506101f4610403366004615083565b600b6020526000908152604090205481565b34801561042157600080fd5b506101dc610430366004615083565b61148a565b34801561044157600080fd5b50600254610227906001600160a01b031681565b34801561046157600080fd5b506101f460095481565b34801561047757600080fd5b506101f460065481565b61026f61048f3660046152c0565b6114bd565b3480156104a057600080fd5b506101dc6104af366004615083565b611a22565b3480156104c057600080fd5b506101dc6104cf366004615106565b611a55565b61026f6104e2366004615136565b611a88565b3480156104f357600080fd5b506101dc610502366004615083565b611d2f565b34801561051357600080fd5b506101dc610522366004615083565b611d62565b34801561053357600080fd5b506105476105423660046150bb565b611dfa565b6040516101fe989796959493929190615855565b60025460408051630a072bc560e41b815290516000926001600160a01b03169163a072bc50916004808301926020929190829003018186803b1580156105a057600080fd5b505afa1580156105b4573d6000803e3d6000fd5b505050506040513d601f19601f820116820180604052508101906105d8919061511e565b905060065481111561066a5760405162461bcd60e51b815260206004820152604a60248201527f43434275726e526f757465723a2066696e616c697a6174696f6e20706172616d60448201527f65746572206973206e6f742067726561746572207468616e207472616e7366656064820152697220646561646c696e6560b01b608482015260a4015b60405180910390fd5b60006106778260026159b5565b61068290600161590b565b905061068d81611ef7565b5050565b6000600260015414156106b65760405162461bcd60e51b81526004016106619061581e565b600260015585806107095760405162461bcd60e51b815260206004820152601b60248201527f43434275726e526f757465723a2076616c7565206973207a65726f00000000006044820152606401610661565b610713868661201a565b60035460405163aff2faa360e01b81526001600160a01b039091169063aff2faa39061074590879087906004016155fa565b60206040518083038186803b15801561075d57600080fd5b505afa158015610771573d6000803e3d6000fd5b505050506040513d601f19601f8201168201806040525081019061079591906150e6565b6107b15760405162461bcd60e51b815260040161066190615707565b60035460405163626885b560e11b81526000916001600160a01b03169063c4d10b6a906107e490889088906004016155fa565b60206040518083038186803b1580156107fc57600080fd5b505afa158015610810573d6000803e3d6000fd5b505050506040513d601f19601f82011682018060405250810190610834919061509f565b6004549091506001600160a01b03166323b872dd336040516001600160e01b031960e084901b1681526001600160a01b039091166004820152306024820152604481018b9052606401602060405180830381600087803b15801561089757600080fd5b505af11580156108ab573d6000803e3d6000fd5b505050506040513d601f19601f820116820180604052508101906108cf91906150e6565b5060006108dc89836120b3565b6004805460035460405163095ea7b360e01b81526001600160a01b039182169381019390935260248301849052929350919091169063095ea7b390604401602060405180830381600087803b15801561093457600080fd5b505af1158015610948573d6000803e3d6000fd5b505050506040513d601f19601f8201168201806040525081019061096c91906150e6565b506003546040516338463cff60e01b81526001600160a01b03909116906338463cff906109a19089908990869060040161560e565b602060405180830381600087803b1580156109bb57600080fd5b505af11580156109cf573d6000803e3d6000fd5b505050506040513d601f19601f820116820180604052508101906109f3919061511e565b9350610a8889858a8a600260009054906101000a90046001600160a01b03166001600160a01b0316632f796d906040518163ffffffff1660e01b815260040160206040518083038186803b158015610a4a57600080fd5b505afa158015610a5e573d6000803e3d6000fd5b505050506040513d601f19601f82011682018060405250810190610a82919061511e565b8761226f565b6001600160a01b0382166000908152600a602052604090208054610aae906001906159fd565b81548110610acc57634e487b7160e01b600052603260045260246000fd5b906000526020600020906007020160040154826001600160a01b0316610aef3390565b6001600160a01b03167fe33c3da07e34f08c660e672e065c0fa53300573c646a21eadd6eef116a70e51e8b8b8e8a8d8d600a60008d6001600160a01b03166001600160a01b031681526020019081526020016000206001600a60008f6001600160a01b03166001600160a01b0316815260200190815260200160002080549050610b7991906159fd565b81548110610b9757634e487b7160e01b600052603260045260246000fd5b906000526020600020906007020160060154604051610bbc9796959493929190615645565b60405180910390a45050600180555095945050505050565b6000546001600160a01b03163314610bfe5760405162461bcd60e51b8152600401610661906157e9565b610c0781612437565b50565b6000546001600160a01b03163314610c345760405162461bcd60e51b8152600401610661906157e9565b610c0781611ef7565b6000546001600160a01b03163314610c675760405162461bcd60e51b8152600401610661906157e9565b565b600060026001541415610c8e5760405162461bcd60e51b81526004016106619061581e565b600260015560035460405163aff2faa360e01b81526001600160a01b039091169063aff2faa390610cc590879087906004016155fa565b60206040518083038186803b158015610cdd57600080fd5b505afa158015610cf1573d6000803e3d6000fd5b505050506040513d601f19601f82011682018060405250810190610d1591906150e6565b610d315760405162461bcd60e51b815260040161066190615707565b60035460405163626885b560e11b81526000916001600160a01b03169063c4d10b6a90610d6490889088906004016155fa565b60206040518083038186803b158015610d7c57600080fd5b505afa158015610d90573d6000803e3d6000fd5b505050506040513d601f19601f82011682018060405250810190610db4919061509f565b90506000600260009054906101000a90046001600160a01b03166001600160a01b0316632f796d906040518163ffffffff1660e01b815260040160206040518083038186803b158015610e0657600080fd5b505afa158015610e1a573d6000803e3d6000fd5b505050506040513d601f19601f82011682018060405250810190610e3e919061511e565b905060005b84518110156113bc576001600160a01b0383166000908152600a602052604090208551869083908110610e8657634e487b7160e01b600052603260045260246000fd5b602002602001015181548110610eac57634e487b7160e01b600052603260045260246000fd5b600091825260209091206005600790920201015460ff1615610f235760405162461bcd60e51b815260206004820152602a60248201527f43434275726e526f757465723a207265717565737420686173206265656e2070604482015269616964206265666f726560b01b6064820152608401610661565b6001600160a01b0383166000908152600a602052604090208551839190879084908110610f6057634e487b7160e01b600052603260045260246000fd5b602002602001015181548110610f8657634e487b7160e01b600052603260045260246000fd5b90600052602060002090600702016004015410610fb55760405162461bcd60e51b815260040161066190615757565b6001600160a01b0383166000908152600a60205260409020855160019190879084908110610ff357634e487b7160e01b600052603260045260246000fd5b60200260200101518154811061101957634e487b7160e01b600052603260045260246000fd5b60009182526020808320600792909202909101600501805460ff1916931515939093179092556003546008546001600160a01b038781168452600a909452604090922088519390911692631697565b928792612710928b908890811061108f57634e487b7160e01b600052603260045260246000fd5b6020026020010151815481106110b557634e487b7160e01b600052603260045260246000fd5b9060005260206000209060070201600001546110d191906159b5565b6110db9190615995565b336001600160a01b0388166000908152600a602052604090208a518b908890811061111657634e487b7160e01b600052603260045260246000fd5b60200260200101518154811061113c57634e487b7160e01b600052603260045260246000fd5b906000526020600020906007020160000154600a60008a6001600160a01b03166001600160a01b031681526020019081526020016000208b888151811061119357634e487b7160e01b600052603260045260246000fd5b6020026020010151815481106111b957634e487b7160e01b600052603260045260246000fd5b600091825260209091206007909102016002015460405160e087901b6001600160e01b03191681526001600160a01b03958616600482015260248101949094529184166044840152606483015291909116608482015260a401602060405180830381600087803b15801561122c57600080fd5b505af1158015611240573d6000803e3d6000fd5b505050506040513d601f19601f8201168201806040525081019061126491906150e6565b506001600160a01b0383166000818152600a60205260409020865187908490811061129f57634e487b7160e01b600052603260045260246000fd5b6020026020010151815481106112c557634e487b7160e01b600052603260045260246000fd5b906000526020600020906007020160020160009054906101000a90046001600160a01b03166001600160a01b03167f58c23b4ae0617be275628875bcfd65759a441263099a256eeb27899fb5dd846d8989600a6000896001600160a01b03166001600160a01b031681526020019081526020016000208a878151811061135b57634e487b7160e01b600052603260045260246000fd5b60200260200101518154811061138157634e487b7160e01b600052603260045260246000fd5b9060005260206000209060070201600601546040516113a29392919061560e565b60405180910390a3806113b481615a9c565b915050610e43565b5050600180805595945050505050565b6000546001600160a01b031633146113f65760405162461bcd60e51b8152600401610661906157e9565b610c07816124f0565b6000546001600160a01b031633146114295760405162461bcd60e51b8152600401610661906157e9565b610c0781612596565b6001600160a01b0382166000908152600a6020526040812080548390811061146a57634e487b7160e01b600052603260045260246000fd5b600091825260209091206005600790920201015460ff1690505b92915050565b6000546001600160a01b031633146114b45760405162461bcd60e51b8152600401610661906157e9565b610c0781612627565b6000600260015414156114e25760405162461bcd60e51b81526004016106619061581e565b6002600181905589511480156114f9575083516002145b8015611506575081516003145b6115525760405162461bcd60e51b815260206004820152601a60248201527f43434275726e526f757465723a2077726f6e6720696e707574730000000000006044820152606401610661565b60035460405163aff2faa360e01b81526001600160a01b039091169063aff2faa390611582908d90600401615632565b60206040518083038186803b15801561159a57600080fd5b505afa1580156115ae573d6000803e3d6000fd5b505050506040513d601f19601f820116820180604052508101906115d291906150e6565b6115ee5760405162461bcd60e51b815260040161066190615707565b600061164c8a60008151811061161457634e487b7160e01b600052603260045260246000fd5b60200260200101518a8a8860008151811061163f57634e487b7160e01b600052603260045260246000fd5b60200260200101516126b8565b90506116aa818460028151811061167357634e487b7160e01b600052603260045260246000fd5b6020026020010151868660018151811061169d57634e487b7160e01b600052603260045260246000fd5b60200260200101516127ae565b61170f5760405162461bcd60e51b815260206004820152603060248201527f43434275726e526f757465723a20696e707574207472616e73616374696f6e2060448201526f1a5cc81b9bdd08199a5b985b1a5e995960821b6064820152608401610661565b6000818152600c602052604090205460ff161561178c5760405162461bcd60e51b815260206004820152603560248201527f43434275726e526f757465723a207472616e73616374696f6e2068617320626560448201527432b7103ab9b2b21030b990313ab93710383937b7b360591b6064820152608401610661565b6000806117c18b866000815181106117b457634e487b7160e01b600052603260045260246000fd5b6020026020010151612920565b915091506118148c6001815181106117e957634e487b7160e01b600052603260045260246000fd5b60200260200101518a8a8a60018151811061163f57634e487b7160e01b600052603260045260246000fd5b82146118815760405162461bcd60e51b815260206004820152603660248201527f43434275726e526f757465723a206f7574706f696e7420747820646f65736e276044820152750e840dac2e8c6d040eed2e8d040deeae8e0eae840e8f60531b6064820152608401610661565b8c5160208e012061189289836129d5565b80519060200120146118ff5760405162461bcd60e51b815260206004820152603060248201527f43434275726e526f757465723a206f757470757420747820646f65736e27742060448201526f3132b637b733903a37903637b1b5b2b960811b6064820152608401610661565b8460028151811061192057634e487b7160e01b600052603260045260246000fd5b6020026020010151600654611935919061590b565b600260009054906101000a90046001600160a01b03166001600160a01b0316632f796d906040518163ffffffff1660e01b815260040160206040518083038186803b15801561198357600080fd5b505afa158015611997573d6000803e3d6000fd5b505050506040513d601f19601f820116820180604052508101906119bb919061511e565b116119d85760405162461bcd60e51b815260040161066190615757565b611a0c8a8e85886002815181106119ff57634e487b7160e01b600052603260045260246000fd5b6020026020010151612a4f565b505060018080559b9a5050505050505050505050565b6000546001600160a01b03163314611a4c5760405162461bcd60e51b8152600401610661906157e9565b610c0781612c1b565b6000546001600160a01b03163314611a7f5760405162461bcd60e51b8152600401610661906157e9565b610c0781612cac565b600060026001541415611aad5760405162461bcd60e51b81526004016106619061581e565b60026001556001600160e01b0319881615611b0a5760405162461bcd60e51b815260206004820181905260248201527f43434275726e526f757465723a206e6f6e2d7a65726f206c6f636b2074696d656044820152606401610661565b60035460405163aff2faa360e01b81526001600160a01b039091169063aff2faa390611b3a908790600401615632565b60206040518083038186803b158015611b5257600080fd5b505afa158015611b66573d6000803e3d6000fd5b505050506040513d601f19601f82011682018060405250810190611b8a91906150e6565b611ba65760405162461bcd60e51b815260040161066190615707565b60035460405163626885b560e11b81526000916001600160a01b03169063c4d10b6a90611bd7908890600401615632565b60206040518083038186803b158015611bef57600080fd5b505afa158015611c03573d6000803e3d6000fd5b505050506040513d601f19601f82011682018060405250810190611c27919061509f565b90508251845114611c7a5760405162461bcd60e51b815260206004820152601b60248201527f43434275726e526f757465723a2077726f6e6720696e646578657300000000006044820152606401610661565b6000611c888d8d8d8d6126b8565b9050611c96818a8a8a6127ae565b611cfa5760405162461bcd60e51b815260206004820152602f60248201527f43434275726e526f757465723a207472616e73616374696f6e20686173206e6f60448201526e1d08199a5b985b1a5e9959081e595d608a1b6064820152608401610661565b6000611d0a828b858f8a8a612d4d565b9050611d18818d898561327c565b505060018080559c9b505050505050505050505050565b6000546001600160a01b03163314611d595760405162461bcd60e51b8152600401610661906157e9565b610c0781613305565b6000546001600160a01b03163314611d8c5760405162461bcd60e51b8152600401610661906157e9565b6001600160a01b038116611df15760405162461bcd60e51b815260206004820152602660248201527f4f776e61626c653a206e6577206f776e657220697320746865207a65726f206160448201526564647265737360d01b6064820152608401610661565b610c0781613396565b600a6020528160005260406000208181548110611e1657600080fd5b600091825260209091206007909102018054600182015460028301546003840180549396509194506001600160a01b03169291611e5290615a67565b80601f0160208091040260200160405190810160405280929190818152602001828054611e7e90615a67565b8015611ecb5780601f10611ea057610100808354040283529160200191611ecb565b820191906000526020600020905b815481529060010190602001808311611eae57829003601f168201915b505050600484015460058501546006909501549394909360ff8083169450610100909204909116915088565b60025460408051630a072bc560e41b815290516000926001600160a01b03169163a072bc50916004808301926020929190829003018186803b158015611f3c57600080fd5b505afa158015611f50573d6000803e3d6000fd5b505050506040513d601f19601f82011682018060405250810190611f74919061511e565b9050808211611fd85760405162461bcd60e51b815260206004820152602a60248201527f43434275726e526f757465723a207472616e7366657220646561646c696e6520604482015269697320746f6f206c6f7760b01b6064820152608401610661565b60065460408051918252602082018490527f92c10a242ca42973030420e2ee32b3ba7818cc643f896958f620c606cf300416910160405180910390a150600655565b600081600481111561203c57634e487b7160e01b600052602160045260246000fd5b14806120675750600481600481111561206557634e487b7160e01b600052602160045260246000fd5b145b1561209257815160201461208d5760405162461bcd60e51b8152600401610661906157a8565b61068d565b815160141461068d5760405162461bcd60e51b8152600401610661906157a8565b600080612710600754856120c791906159b5565b6120d19190615995565b9050600954816120e1919061590b565b841161212f5760405162461bcd60e51b815260206004820152601f60248201527f43434275726e526f757465723a20616d6f756e7420697320746f6f206c6f77006044820152606401610661565b60095460009061213f83876159fd565b61214991906159fd565b6004805460055460405163a9059cbb60e01b81526001600160a01b039182169381019390935260248301869052929350919091169063a9059cbb90604401602060405180830381600087803b1580156121a157600080fd5b505af11580156121b5573d6000803e3d6000fd5b505050506040513d601f19601f820116820180604052508101906121d991906150e6565b506004805460095460405163a9059cbb60e01b81526001600160a01b0388811694820194909452602481019190915291169063a9059cbb90604401602060405180830381600087803b15801561222e57600080fd5b505af1158015612242573d6000803e3d6000fd5b505050506040513d601f19601f8201168201806040525081019061226691906150e6565b50949350505050565b604080516101008101825260006080820181905260a0820181905260c0820181815260e083019190915288825260208201889052339282019290925260608101869052908460048111156122d357634e487b7160e01b600052602160045260246000fd5b908160048111156122f457634e487b7160e01b600052602160045260246000fd5b905250600654612304908461590b565b6080820152600060a082018190526001600160a01b038316808252600b6020818152604084205460e086018190529290935290915261234490600161590b565b6001600160a01b038381166000908152600b6020908152604080832094909455600a81528382208054600180820183559184529282902086516007909402019283558582015190830155928401516002820180546001600160a01b03191691909316179091556060830151805184936123c4926003850192910190614e5e565b50608082015160048281019190915560a083015160058301805460ff19169115159190911780825560c08501519261ff00199091169061010090849081111561241d57634e487b7160e01b600052602160045260246000fd5b021790555060e08201518160060155505050505050505050565b8061271010156124af5760405162461bcd60e51b815260206004820152603760248201527f43434275726e526f757465723a20736c61736865722070657263656e7461676560448201527f20726577617264206973206f7574206f662072616e67650000000000000000006064820152608401610661565b60085460408051918252602082018390527faa50b3683e42a13535a5b9c2c32780cccf956fb546b523a3542ac4ad8b544f67910160405180910390a1600855565b8061271010156125555760405162461bcd60e51b815260206004820152602a60248201527f43434275726e526f757465723a2070726f746f636f6c20666565206973206f7560448201526974206f662072616e676560b01b6064820152608401610661565b60075460408051918252602082018390527f7d205f60891f60851c61cd244ba387d72b6589e7c0ac41b9d909ab0ce2c2a53b910160405180910390a1600755565b806001600160a01b0381166125bd5760405162461bcd60e51b8152600401610661906156d0565b600454604080516001600160a01b03928316815291841660208301527f36a4c08a38b736dcecb6c328dba61238529620e83ccb23db2cc43cd34ec26096910160405180910390a150600480546001600160a01b0319166001600160a01b0392909216919091179055565b806001600160a01b03811661264e5760405162461bcd60e51b8152600401610661906156d0565b600354604080516001600160a01b03928316815291841660208301527ffa021c2ec0f46429a53e7f88b88065e40001f50c9d38b2e8b713beaf9828d4c3910160405180910390a150600380546001600160a01b0319166001600160a01b0392909216919091179055565b6000806002868686866040516020016126d4949392919061551a565b60408051601f19818403018152908290526126ee9161556d565b602060405180830381855afa15801561270b573d6000803e3d6000fd5b5050506040513d601f19601f8201168201806040525081019061272e919061511e565b9050600060028260405160200161274791815260200190565b60408051601f19818403018152908290526127619161556d565b602060405180830381855afa15801561277e573d6000803e3d6000fd5b5050506040513d601f19601f820116820180604052508101906127a1919061511e565b925050505b949350505050565b60025460405163d0a8973960e01b8152600481018590526000602482018190529182916001600160a01b039091169063d0a897399060440160206040518083038186803b1580156127fe57600080fd5b505afa158015612812573d6000803e3d6000fd5b505050506040513d601f19601f82011682018060405250810190612836919061511e565b90508034101561289a5760405162461bcd60e51b815260206004820152602960248201527f43434275726e526f757465723a2072656c617920666565206973206e6f7420736044820152681d59999a58da595b9d60ba1b6064820152608401610661565b6002546040516000916128f7916001600160a01b03909116906128c7908a908a908a908a906024016155ca565b60408051601f198184030181529190526020810180516001600160e01b0316634354da2560e01b179052846133e6565b905061290c3361290784346159fd565b613416565b808060200190518101906127a191906150e6565b600080806129366129318683613534565b613558565b905061294762ffffff19821661368e565b156129945760405162461bcd60e51b815260206004820152601a60248201527f426974636f696e48656c7065723a2076696e206973206e756c6c0000000000006044820152606401610661565b60006129a0828661369d565b905060006129ad826137bb565b90506129b8816137df565b94506129c381613801565b63ffffffff1693505050509250929050565b606060006129ed6129e8825b8690613534565b61382b565b90506129fe62ffffff19821661368e565b15612a1b5760405162461bcd60e51b815260040161066190615699565b6000612a27828561391c565b90506000612a3482613a16565b9050612a4562ffffff198216613a67565b9695505050505050565b6000612a5a85613ab7565b60035460405163626885b560e11b81526001600160401b039290921692506000916001600160a01b039091169063c4d10b6a90612a9b908890600401615632565b60206040518083038186803b158015612ab357600080fd5b505afa158015612ac7573d6000803e3d6000fd5b505050506040513d601f19601f82011682018060405250810190612aeb919061509f565b6003546008549192506001600160a01b03169063b734de2690839061271090612b1490876159b5565b612b1e9190615995565b3360405160e085901b6001600160e01b03191681526001600160a01b0393841660048201526024810192909252909116604482015260648101859052608401602060405180830381600087803b158015612b7757600080fd5b505af1158015612b8b573d6000803e3d6000fd5b505050506040513d601f19601f82011682018060405250810190612baf91906150e6565b507f7ff138134e34ccab071315c38e38eec079f54726b890304ab46e2c5ab6f722bb8186858761271060085488612be691906159b5565b612bf09190615995565b612bfa908861590b565b604051612c0b959493929190615589565b60405180910390a1505050505050565b806001600160a01b038116612c425760405162461bcd60e51b8152600401610661906156d0565b600254604080516001600160a01b03928316815291841660208301527f4c28a3f61a715259c4dc930c23e7423b8fa52e13232c061a6e488729c66184f4910160405180910390a150600280546001600160a01b0319166001600160a01b0392909216919091179055565b60095460408051918252602082018390527f47c5f9c13c35ebb166f6a8d8c56af73f8b323ac0fee7aec4a5e0490bbf67a4fe910160405180910390a1806127101015612d485760405162461bcd60e51b815260206004820152602560248201527f43434275726e526f757465723a2062746320666565206973206f7574206f662060448201526472616e676560d81b6064820152608401610661565b600955565b60008080805b855181101561326f5780612d9057848181518110612d8157634e487b7160e01b600052603260045260246000fd5b60200260200101519150612e3d565b81858281518110612db157634e487b7160e01b600052603260045260246000fd5b602002602001015111612e125760405162461bcd60e51b8152602060048201526024808201527f43434275726e526f757465723a20756e2d736f7274656420766f757420696e646044820152636578657360e01b6064820152608401610661565b848181518110612e3257634e487b7160e01b600052603260045260246000fd5b602002602001015191505b6000868281518110612e5f57634e487b7160e01b600052603260045260246000fd5b60200260200101519050600a60008a6001600160a01b03166001600160a01b031681526020019081526020016000208181548110612ead57634e487b7160e01b600052603260045260246000fd5b600091825260209091206005600790920201015460ff16158015612f1c57506001600160a01b0389166000908152600a6020526040902080548b919083908110612f0757634e487b7160e01b600052603260045260246000fd5b90600052602060002090600702016004015410155b1561325c576130c788878481518110612f4557634e487b7160e01b600052603260045260246000fd5b6020026020010151600a60008d6001600160a01b03166001600160a01b031681526020019081526020016000208481548110612f9157634e487b7160e01b600052603260045260246000fd5b90600052602060002090600702016003018054612fad90615a67565b80601f0160208091040260200160405190810160405280929190818152602001828054612fd990615a67565b80156130265780601f10612ffb57610100808354040283529160200191613026565b820191906000526020600020905b81548152906001019060200180831161300957829003601f168201915b5050506001600160a01b038f166000908152600a602052604090208054909250879150811061306557634e487b7160e01b600052603260045260246000fd5b906000526020600020906007020160050160019054906101000a900460ff1660048111156130a357634e487b7160e01b600052602160045260246000fd5b60048111156130c257634e487b7160e01b600052602160045260246000fd5b613b57565b6001600160401b0316935083600a60008b6001600160a01b03166001600160a01b03168152602001908152602001600020828154811061311757634e487b7160e01b600052603260045260246000fd5b906000526020600020906007020160010154141561325c576001600160a01b0389166000908152600a602052604090208054600191908390811061316b57634e487b7160e01b600052603260045260246000fd5b60009182526020909120600790910201600501805460ff191691151591909117905561319885600161590b565b6001600160a01b038a166000818152600a60205260409020805492975090917f1b46655c2f394f2191cb246d5982dbe00ad671f0b590e75e97c90ee97f1f782a9190849081106131f857634e487b7160e01b600052603260045260246000fd5b9060005260206000209060070201600601548d89868151811061322b57634e487b7160e01b600052603260045260246000fd5b6020026020010151604051613253939291909283526020830191909152604082015260600190565b60405180910390a25b508061326781615a9c565b915050612d53565b5050509695505050505050565b60006132888484613d98565b6001600160401b03169050600061329e85613ea1565b905081158015906132b85750806132b687600161590b565b145b156132db576000838152600c60205260409020805460ff191660011790556132fd565b808614156132fd576000838152600c60205260409020805460ff191660011790555b505050505050565b806001600160a01b03811661332c5760405162461bcd60e51b8152600401610661906156d0565b600554604080516001600160a01b03928316815291841660208301527f567657fa3f286518b318f4a29870674f433f622fdfc819691acb13105b228225910160405180910390a150600580546001600160a01b0319166001600160a01b0392909216919091179055565b600080546001600160a01b038381166001600160a01b0319831681178455604051919092169283917f8be0079c531659141344cd1fd0a4f28419497f9722a3daafe3b4186f6b6457e09190a35050565b606061340c848484604051806060016040528060298152602001615af960299139613ecd565b90505b9392505050565b804710156134665760405162461bcd60e51b815260206004820152601d60248201527f416464726573733a20696e73756666696369656e742062616c616e63650000006044820152606401610661565b6000826001600160a01b03168260405160006040518083038185875af1925050503d80600081146134b3576040519150601f19603f3d011682016040523d82523d6000602084013e6134b8565b606091505b505090508061352f5760405162461bcd60e51b815260206004820152603a60248201527f416464726573733a20756e61626c6520746f2073656e642076616c75652c207260448201527f6563697069656e74206d617920686176652072657665727465640000000000006064820152608401610661565b505050565b81516000906020840161354f64ffffffffff85168284613fea565b95945050505050565b6000818161356e815b62ffffff1984169061402e565b50601884901c6001600160601b031661358e5762ffffff195b9250613687565b600061359b856000614108565b9050601885901c6001600160601b03166001600160401b0382166135c85762ffffff195b94505050613687565b60006135d38361424f565b60ff16905060005b836001600160401b031681101561364f578282106136045762ffffff195b965050505050613687565b600061362461361384866159fd565b60055b62ffffff198c1691906142a8565b905061362f816142dc565b613639908461590b565b925050808061364790615a9c565b9150506135db565b508181146136675762ffffff195b9550505050613687565b61368160065b60d81b6301000000600160d81b0389161790565b95505050505b5050919050565b62ffffff19818116145b919050565b60008260066136ab81613561565b5060006136b9866000614108565b6001600160401b03169050601886901c6001600160601b03168186106137145760405162461bcd60e51b815260206004820152601060248201526f2b34b7103932b0b21037bb32b9393ab760811b6044820152606401610661565b600061371f8361424f565b60ff1690506000805b888110156137775761374e61373d84866159fd565b60055b62ffffff198d1691906142a8565b9150613759826142dc565b613763908461590b565b925061377060018261590b565b9050613728565b5061378561361383856159fd565b90506000613792826142dc565b90506137ab838260045b62ffffff198e16929190614330565b975050505050505b505092915050565b60008160046137c981613561565b506127a662ffffff198516600060246003614330565b60008160036137ed81613561565b506127a662ffffff198516600060206143a0565b600081600361380f81613561565b506127a661382662ffffff198616602060046144f9565b614643565b6000818161383881613561565b50601884901c6001600160601b03166138555762ffffff19613587565b6000613862856000614108565b9050601885901c6001600160601b03166001600160401b03821661388a5762ffffff196135bf565b60006138958361424f565b60ff16905060005b836001600160401b0316811015613900578282106138bf5762ffffff196135f9565b60006138d56138ce84866159fd565b600e613616565b90506138e0816146ac565b6138ea908461590b565b92505080806138f890615a9c565b91505061389d565b508181146139125762ffffff1961365d565b613681600f61366d565b600082600f61392a81613561565b506000613938866000614108565b6001600160401b03169050601886901c6001600160601b03168186106139945760405162461bcd60e51b81526020600482015260116024820152702b37baba103932b0b21037bb32b9393ab760791b6044820152606401610661565b600061399f8361424f565b60ff1690506000805b888110156139ed576139c46139bd84866159fd565b600e613740565b91506139cf826146ac565b6139d9908461590b565b92506139e660018261590b565b90506139a8565b506139fb6138ce83856159fd565b90506000613a08826146ac565b90506137ab8382600d61379c565b600081600d613a2481613561565b506000613a32856008614108565b905061354f613a408261424f565b613a4b90600861594e565b62ffffff1987169060ff166001600160401b0384166007614330565b6060600080613a7f8460181c6001600160601b031690565b60405193508392506001600160601b03169050613aa684613aa184602061590b565b6146f5565b508181016020016040529052919050565b600080613ac96129e8825b8590613534565b9050613ada62ffffff19821661368e565b15613af75760405162461bcd60e51b815260040161066190615699565b600080613b05836000614108565b6001600160401b0316905060005b81811015613b4e57613b25848261391c565b9250613b308361484c565b613b3a9086615923565b945080613b4681615a9c565b915050613b13565b50505050919050565b600080613b676129e88783613534565b9050613b7862ffffff19821661368e565b15613b955760405162461bcd60e51b815260040161066190615699565b6000613ba1828761391c565b90506000613bae82613a16565b90506000856004811115613bd257634e487b7160e01b600052602160045260246000fd5b1415613c3757613beb62ffffff198216600160206143a0565b604051602001613bfd91815260200190565b60405160208183030381529060405280519060200120868051906020012014613c27576000613c30565b613c308261484c565b9350613d8d565b6001856004811115613c5957634e487b7160e01b600052602160045260246000fd5b1415613c9857613c7062ffffff1982166003614871565b604051602001613bfd919060609190911b6bffffffffffffffffffffffff1916815260140190565b6002856004811115613cba57634e487b7160e01b600052602160045260246000fd5b1415613cd157613c7062ffffff1982166002614871565b6003856004811115613cf357634e487b7160e01b600052602160045260246000fd5b1415613d0a57613c7062ffffff1982166002614871565b6004856004811115613d2c57634e487b7160e01b600052602160045260246000fd5b1415613d8d57613d4562ffffff198216600260206143a0565b604051602001613d5791815260200190565b60405160208183030381529060405280519060200120868051906020012014613d81576000613d8a565b613d8a8261484c565b93505b505050949350505050565b600080613da76129e8826129e1565b9050613db862ffffff19821661368e565b15613dd55760405162461bcd60e51b815260040161066190615699565b6000806000613de5846000614108565b6001600160401b0316905060005b81811015613e9657613e05858261391c565b9350613e1084613a16565b925086604051602001613e23919061556d565b60405160208183030381529060405280519060200120613e488462ffffff1916613a67565b604051602001613e58919061556d565b604051602081830303815290604052805190602001201415613e8457613e7d8461484c565b9550613e96565b80613e8e81615a9c565b915050613df3565b505050505092915050565b600080613eb06129e882613ac2565b9050613ebd816000614108565b6001600160401b03169392505050565b606082471015613f2e5760405162461bcd60e51b815260206004820152602660248201527f416464726573733a20696e73756666696369656e742062616c616e636520666f6044820152651c8818d85b1b60d21b6064820152608401610661565b843b613f7c5760405162461bcd60e51b815260206004820152601d60248201527f416464726573733a2063616c6c20746f206e6f6e2d636f6e74726163740000006044820152606401610661565b600080866001600160a01b03168587604051613f98919061556d565b60006040518083038185875af1925050503d8060008114613fd5576040519150601f19603f3d011682016040523d82523d6000602084013e613fda565b606091505b50915091506127a182828661487f565b600080613ff7838561590b565b9050604051811115614007575060005b806140195762ffffff1991505061340f565b5050606092831b9190911790911b1760181b90565b600061403a83836148b8565b61410157600061405961404d8560d81c90565b64ffffffffff166148db565b915050600061406e8464ffffffffff166148db565b6040517f5479706520617373657274696f6e206661696c65642e20476f7420307800000060208201526001600160b01b031960b086811b8216603d8401526c05c408af0e0cac6e8cac84060f609b1b604784015283901b16605482015290925060009150605e015b60405160208183030381529060405290508060405162461bcd60e51b81526004016106619190615632565b5090919050565b60008061411d62ffffff198516846001614987565b905060fc811161413857614130816149b7565b915050611484565b8060fd141561419e5761416661416161415285600161590b565b62ffffff1987169060026144f9565b6149b7565b91506141718261424f565b60ff166003146141995761419761419262ffffff1986168560036000614330565b614a1f565b505b614248565b8060fe14156141f3576141c76141616141b885600161590b565b62ffffff1987169060046144f9565b91506141d28261424f565b60ff166005146141995761419761419262ffffff1986168560056000614330565b8060ff14156142485761421c61416161420d85600161590b565b62ffffff1987169060086144f9565b91506142278261424f565b60ff16600914614248576137b361419262ffffff1986168560096000614330565b5092915050565b600060fc826001600160401b03161161426a57506001613698565b61ffff826001600160401b03161161428457506003613698565b63ffffffff826001600160401b0316116142a057506005613698565b506009613698565b600061340c84846142c28760181c6001600160601b031690565b6001600160601b03166142d591906159fd565b8585614330565b60008160056142ea81613561565b5060006142f8856024614108565b9050806001600160401b031661430d8261424f565b60ff1661431a919061590b565b61432590602461590b565b61354f90600461590b565b6000806143468660781c6001600160601b031690565b6001600160601b0316905061435a86614aa6565b84614365878461590b565b61436f919061590b565b11156143825762ffffff199150506127a6565b61438c858261590b565b9050612a458364ffffffffff168286613fea565b600060ff82166143b25750600061340f565b6143c58460181c6001600160601b031690565b6001600160601b03166143db60ff84168561590b565b111561443f576144266143f78560781c6001600160601b031690565b6001600160601b03166144138660181c6001600160601b031690565b6001600160601b0316858560ff16614ae7565b60405162461bcd60e51b81526004016106619190615632565b60208260ff1611156144b95760405162461bcd60e51b815260206004820152603a60248201527f54797065644d656d566965772f696e646578202d20417474656d70746564207460448201527f6f20696e646578206d6f7265207468616e2033322062797465730000000000006064820152608401610661565b6008820260006144d28660781c6001600160601b031690565b6001600160601b031690506000600160ff1b60001984011d91909501511695945050505050565b600061340c6145098585856143a0565b600881811c7eff00ff00ff00ff00ff00ff00ff00ff00ff00ff00ff00ff00ff00ff00ff00ff167fff00ff00ff00ff00ff00ff00ff00ff00ff00ff00ff00ff00ff00ff00ff00ff009290911b9190911617601081811c7dffff0000ffff0000ffff0000ffff0000ffff0000ffff0000ffff0000ffff167fffff0000ffff0000ffff0000ffff0000ffff0000ffff0000ffff0000ffff00009290911b9190911617602081811c7bffffffff00000000ffffffff00000000ffffffff00000000ffffffff167fffffffff00000000ffffffff00000000ffffffff00000000ffffffff000000009290911b9190911617604081811c77ffffffffffffffff0000000000000000ffffffffffffffff1677ffffffffffffffff0000000000000000ffffffffffffffff199290911b9190911617608081811c91901b1790565b600063ffffffff8211156146a85760405162461bcd60e51b815260206004820152602660248201527f53616665436173743a2076616c756520646f65736e27742066697420696e203360448201526532206269747360d01b6064820152608401610661565b5090565b600081600e6146ba81613561565b5060006146c8856008614108565b9050806001600160401b03166146dd8261424f565b60ff166146ea919061590b565b61354f90600861590b565b600061470083614c11565b61475d5760405162461bcd60e51b815260206004820152602860248201527f54797065644d656d566965772f636f7079546f202d204e756c6c20706f696e7460448201526732b9103232b932b360c11b6064820152608401610661565b61476683614c23565b6147c65760405162461bcd60e51b815260206004820152602b60248201527f54797065644d656d566965772f636f7079546f202d20496e76616c696420706f60448201526a34b73a32b9103232b932b360a91b6064820152608401610661565b60006147db8460181c6001600160601b031690565b6001600160601b0316905060006147fb8560781c6001600160601b031690565b6001600160601b03169050600060405190508481111561481b5760206060fd5b8285848460045afa50612a456148318760d81c90565b64ffffffffff60601b606091821b168717901b841760181b90565b600081600d61485a81613561565b506127a661416162ffffff198616600060086144f9565b600061340f83836014614987565b6060831561488e57508161340f565b82511561489e5782518084602001fd5b8160405162461bcd60e51b81526004016106619190615632565b60008164ffffffffff166148cc8460d81c90565b64ffffffffff16149392505050565b600080601f5b600f8160ff1611156149395760006148fa8260086159d4565b60ff1685901c905061490b81614c61565b61ffff16841793508160ff1660101461492657601084901b93505b50614932600182615a14565b90506148e1565b50600f5b60ff8160ff1610156149815760ff600882021684901c61495c81614c61565b61ffff16831792508160ff1660001461497757601083901b92505b506000190161493d565b50915091565b6000614994826020615a14565b61499f9060086159d4565b60ff166149ad8585856143a0565b901c949350505050565b60006001600160401b038211156146a85760405162461bcd60e51b815260206004820152602660248201527f53616665436173743a2076616c756520646f65736e27742066697420696e203660448201526534206269747360d01b6064820152608401610661565b60606000614a53614a4e82614a40601887901c6001600160601b0316614c91565b62ffffff1987169190614987565b6148db565b6040517f4e6f6e2d6d696e696d616c2076617220696e742e20476f74203078000000000060208201526dffffffffffffffffffffffffffff19607083901b16603b82015290925060009150604d016140d6565b6000614abb8260181c6001600160601b031690565b614ace8360781c6001600160601b031690565b614ad89190615973565b6001600160601b031692915050565b60606000614af4866148db565b9150506000614b02866148db565b9150506000614b10866148db565b9150506000614b1e866148db565b604080517f54797065644d656d566965772f696e646578202d204f76657272616e20746865602082015274040ecd2caee5c40a6d8d2c6ca40d2e640c2e84060f605b1b818301526001600160d01b031960d098891b811660558301526e040eed2e8d040d8cadccee8d04060f608b1b605b830181905297891b8116606a8301527f2e20417474656d7074656420746f20696e646578206174206f666673657420306070830152600f60fb1b609083015295881b861660918201526097810196909652951b90921660a68401525050601760f91b60ac8201528151808203608d01815260ad90910190915295945050505050565b6000614c1c8261368e565b1592915050565b6000614c2f8260d81c90565b64ffffffffff1664ffffffffff1415614c4a57506000613698565b6000614c5583614aa6565b60405110199392505050565b6000614c7360048360ff16901c614cf2565b60ff161760081b62ffff0016614c8882614cf2565b60ff1617919050565b600060ff8211156146a85760405162461bcd60e51b815260206004820152602560248201527f53616665436173743a2076616c756520646f65736e27742066697420696e2038604482015264206269747360d81b6064820152608401610661565b600060f08083179060ff82161415614d0e576030915050613698565b8060ff1660f11415614d24576031915050613698565b8060ff1660f21415614d3a576032915050613698565b8060ff1660f31415614d50576033915050613698565b8060ff1660f41415614d66576034915050613698565b8060ff1660f51415614d7c576035915050613698565b8060ff1660f61415614d92576036915050613698565b8060ff1660f71415614da8576037915050613698565b8060ff1660f81415614dbe576038915050613698565b8060ff1660f91415614dd4576039915050613698565b8060ff1660fa1415614dea576061915050613698565b8060ff1660fb1415614e00576062915050613698565b8060ff1660fc1415614e16576063915050613698565b8060ff1660fd1415614e2c576064915050613698565b8060ff1660fe1415614e42576065915050613698565b8060ff1660ff1415614e58576066915050613698565b50919050565b828054614e6a90615a67565b90600052602060002090601f016020900481019282614e8c5760008555614ed2565b82601f10614ea557805160ff1916838001178555614ed2565b82800160010185558215614ed2579182015b82811115614ed2578251825591602001919060010190614eb7565b506146a89291505b808211156146a85760008155600101614eda565b600082601f830112614efe578081fd5b81356020614f13614f0e836158e8565b6158b8565b8281528181019085830183850287018401881015614f2f578586fd5b855b85811015614f5457614f4282614fbb565b84529284019290840190600101614f31565b5090979650505050505050565b600082601f830112614f71578081fd5b81356020614f81614f0e836158e8565b8281528181019085830183850287018401881015614f9d578586fd5b855b85811015614f5457813584529284019290840190600101614f9f565b80356001600160e01b03198116811461369857600080fd5b60008083601f840112614fe4578182fd5b5081356001600160401b03811115614ffa578182fd5b60208301915083602082850101111561501257600080fd5b9250929050565b600082601f830112615029578081fd5b81356001600160401b0381111561504257615042615acd565b615055601f8201601f19166020016158b8565b818152846020838601011115615069578283fd5b816020850160208301379081016020019190915292915050565b600060208284031215615094578081fd5b813561340f81615ae3565b6000602082840312156150b0578081fd5b815161340f81615ae3565b600080604083850312156150cd578081fd5b82356150d881615ae3565b946020939093013593505050565b6000602082840312156150f7578081fd5b8151801515811461340f578182fd5b600060208284031215615117578081fd5b5035919050565b60006020828403121561512f578081fd5b5051919050565b6000806000806000806000806000806101408b8d031215615155578586fd5b61515e8b614fbb565b995060208b01356001600160401b0380821115615179578788fd5b6151858e838f01615019565b9a5060408d013591508082111561519a578788fd5b6151a68e838f01615019565b99506151b460608e01614fbb565b985060808d0135975060a08d01359150808211156151d0578687fd5b6151dc8e838f01615019565b965060c08d0135955060e08d01359150808211156151f8578485fd5b6152048e838f01615019565b94506101008d013591508082111561521a578384fd5b6152268e838f01614f61565b93506101208d013591508082111561523c578283fd5b506152498d828e01614f61565b9150509295989b9194979a5092959850565b60008060006040848603121561526f578283fd5b83356001600160401b0380821115615285578485fd5b61529187838801614fd3565b909550935060208601359150808211156152a9578283fd5b506152b686828701614f61565b9150509250925092565b60008060008060008060008060006101208a8c0312156152de578283fd5b89356001600160401b03808211156152f4578485fd5b6153008d838e01615019565b9a5060208c0135915080821115615315578485fd5b6153218d838e01614eee565b995060408c0135915080821115615336578485fd5b6153428d838e01615019565b985060608c0135915080821115615357578485fd5b6153638d838e01615019565b975060808c0135915080821115615378578485fd5b6153848d838e01615019565b965060a08c0135915080821115615399578485fd5b6153a58d838e01615019565b955060c08c01359150808211156153ba578485fd5b6153c68d838e01614eee565b945060e08c01359150808211156153db578384fd5b6153e78d838e01615019565b93506101008c01359150808211156153fd578283fd5b5061540a8c828d01614f61565b9150509295985092959850929598565b600080600080600060808688031215615431578283fd5b8535945060208601356001600160401b038082111561544e578485fd5b61545a89838a01615019565b9550604088013591506005821061546f578485fd5b90935060608701359080821115615484578283fd5b5061549188828901614fd3565b969995985093965092949392505050565b60008284528282602086013780602084860101526020601f19601f85011685010190509392505050565b600081518084526154e4816020860160208601615a37565b601f01601f19169290920160200192915050565b6005811061551657634e487b7160e01b600052602160045260246000fd5b9052565b600063ffffffff60e01b8087168352855161553c816004860160208a01615a37565b855190840190615553816004840160208a01615a37565b919094169301600481019390935250506008019392505050565b6000825161557f818460208701615a37565b9190910192915050565b6001600160a01b038616815260a0602082018190526000906155ad908301876154cc565b604083019590955250606081019290925260809091015292915050565b6000858252846020830152608060408301526155e960808301856154cc565b905082606083015295945050505050565b60006020825261340c6020830184866154a2565b6000604082526156226040830185876154a2565b9050826020830152949350505050565b60006020825261340f60208301846154cc565b600060c0825261565860c083018a6154cc565b615665602084018a6154f8565b87604084015286606084015282810360808401526156848186886154a2565b9150508260a083015298975050505050505050565b6020808252601b908201527f426974636f696e48656c7065723a20766f7574206973206e756c6c0000000000604082015260600190565b6020808252601d908201527f43434275726e526f757465723a2061646472657373206973207a65726f000000604082015260600190565b60208082526030908201527f43434275726e526f757465723a20676976656e206c6f636b696e67207363726960408201526f383a1034b9903737ba103637b1b5b2b960811b606082015260800190565b60208082526031908201527f43434275726e526f757465723a207061796261636b20646561646c696e652068604082015270185cc81b9bdd081c185cdcd959081e595d607a1b606082015260800190565b60208082526021908201527f43434275726e526f757465723a20696e76616c696420757365722073637269706040820152601d60fa1b606082015260800190565b6020808252818101527f4f776e61626c653a2063616c6c6572206973206e6f7420746865206f776e6572604082015260600190565b6020808252601f908201527f5265656e7472616e637947756172643a207265656e7472616e742063616c6c00604082015260600190565b888152602081018890526001600160a01b038716604082015261010060608201819052600090615887838201896154cc565b91505085608083015284151560a08301526158a560c08301856154f8565b8260e08301529998505050505050505050565b604051601f8201601f191681016001600160401b03811182821017156158e0576158e0615acd565b604052919050565b60006001600160401b0382111561590157615901615acd565b5060209081020190565b6000821982111561591e5761591e615ab7565b500190565b60006001600160401b0380831681851680830382111561594557615945615ab7565b01949350505050565b600060ff821660ff84168060ff0382111561596b5761596b615ab7565b019392505050565b60006001600160601b0380831681851680830382111561594557615945615ab7565b6000826159b057634e487b7160e01b81526012600452602481fd5b500490565b60008160001904831182151516156159cf576159cf615ab7565b500290565b600060ff821660ff84168160ff04811182151516156159f5576159f5615ab7565b029392505050565b600082821015615a0f57615a0f615ab7565b500390565b600060ff821660ff841680821015615a2e57615a2e615ab7565b90039392505050565b60005b83811015615a52578181015183820152602001615a3a565b83811115615a61576000848401525b50505050565b600281046001821680615a7b57607f821691505b60208210811415614e5857634e487b7160e01b600052602260045260246000fd5b6000600019821415615ab057615ab0615ab7565b5060010190565b634e487b7160e01b600052601160045260246000fd5b634e487b7160e01b600052604160045260246000fd5b6001600160a01b0381168114610c0757600080fdfe416464726573733a206c6f772d6c6576656c2063616c6c20776974682076616c7565206661696c6564a264697066735822122085880a8bd8148b41bed901e46966c245852c04edc2d548cadef1cfe6cc1b9d9464736f6c6343000802003343434275726e526f757465723a2061646472657373206973207a65726f000000",
  "devdoc": {
    "kind": "dev",
    "methods": {
      "burnProof(bytes4,bytes,bytes,bytes4,uint256,bytes,uint256,bytes,uint256[],uint256[])": {
        "details": "Makes isTransferred flag true for the paid requests",
        "params": {
          "_blockNumber": "Height of the block containing the burn transaction",
          "_burnReqIndexes": "Indexes of requests that locker wants to provide proof for them",
          "_index": "Index of transaction containing the burn transaction in the block",
          "_intermediateNodes": "Merkle inclusion proof for transaction containing the burn transaction",
          "_lockerLockingScript": "Locker's locking script (on Bitcoin) that this burn request belongs to",
          "_locktime": "Lock time of the transaction containing the burn transaction",
          "_version": "Version of the transaction containing the burn transaction",
          "_vin": "Inputs of the transaction containing the burn transaction",
          "_vout": "Outputs of the transaction containing the burn transaction",
          "_voutIndexes": "Indexes of outputs that were used to pay burn requests (_voutIndexes[i] belongs to _burnReqIndexes[i])"
        },
        "returns": {
          "_0": ""
        }
      },
      "ccBurn(uint256,bytes,uint8,bytes)": {
        "details": "After submitting the burn request, lockers have a limited time                                     to send BTC and provide burn proof",
        "params": {
          "_amount": "Amount of teleBTC that user wants to burn",
          "_lockerLockingScript": "Locking script of locker that should execute the burn request",
          "_userScript": "User's bitcoin script type"
        },
        "returns": {
          "_burntAmount": "               Amount of teleBTC that user will receive (after reducing fees)"
        }
      },
      "constructor": {
        "params": {
          "_bitcoinFee": "Fee of submitting a transaction on Bitcoin",
          "_lockers": "Address of lockers contract",
          "_protocolPercentageFee": "Percentage of tokens that user pays to protocol for burning",
          "_relay": "Address of relay contract",
          "_slasherPercentageReward": "Percentage of tokens that slasher receives after slashing a locker",
          "_teleBTC": "Address of teleBTC contract",
          "_transferDeadline": "Dealine of sending BTC to user (aster submitting a burn request)",
          "_treasury": "Address of the treasury of the protocol"
        }
      },
      "disputeBurn(bytes,uint256[])": {
        "params": {
          "_indices": "Array of indices of the requests whose deadline has passed",
          "_lockerLockingScript": "locker's locking script that the unpaid request belongs to"
        },
        "returns": {
          "_0": "True if dispute is successful"
        }
      },
      "disputeLocker(bytes,bytes4[],bytes,bytes,bytes,bytes,bytes4[],bytes,uint256[])": {
        "details": "Input tx is a malicious tx which shows that locker spent BTC                                         Output tx is the tx that was spent by locker in input tx                                         Output tx --> money goes to locker --> Input tx --> locker steals the funds",
        "params": {
          "_indexesAndBlockNumbers": "Indices of malicious input in input tx, input tx in block and block number of input tx",
          "_inputIntermediateNodes": "Merkle inclusion proof for the malicious transaction",
          "_inputVin": "Inputs of the malicious transaction",
          "_inputVout": "Outputs of the malicious transaction",
          "_lockerLockingScript": "Suspicious locker's locking script",
          "_locktimes": "Locktimes of input and output tx",
          "_outputVin": "Inputs of the spent transaction",
          "_outputVout": "Outputs of the spent transaction",
          "_versions": "Versions of input and output tx"
        },
        "returns": {
          "_0": "True if dispute is successful"
        }
      },
      "isTransferred(address,uint256)": {
        "params": {
          "_index": "The index of the request for the locker",
          "_lockerTargetAddress": "Locker's address on the target chain"
        }
      },
      "owner()": {
        "details": "Returns the address of the current owner."
      },
      "renounceOwnership()": {
        "details": "Leaves the contract without owner. It will not be possible to call `onlyOwner` functions anymore. Can only be called by the current owner. NOTE: Renouncing ownership will leave the contract without an owner, thereby removing any functionality that is only available to the owner."
      },
      "setBitcoinFee(uint256)": {
        "details": "Only owner can call this",
        "params": {
          "_bitcoinFee": "The new Bitcoin transaction fee"
        }
      },
      "setLockers(address)": {
        "details": "Only owner can call this",
        "params": {
          "_lockers": "The new lockers contract address"
        }
      },
      "setProtocolPercentageFee(uint256)": {
        "details": "Only owner can call this",
        "params": {
          "_protocolPercentageFee": "The new protocol percentage fee"
        }
      },
      "setRelay(address)": {
        "details": "Only owner can call this",
        "params": {
          "_relay": "The new relay contract address"
        }
      },
      "setSlasherPercentageReward(uint256)": {
        "details": "Only owner can call this",
        "params": {
          "_slasherPercentageReward": "The new slasher percentage reward"
        }
      },
      "setTeleBTC(address)": {
        "details": "Only owner can call this",
        "params": {
          "_teleBTC": "The new teleBTC contract address"
        }
      },
      "setTransferDeadline(uint256)": {
        "details": "Only owner can call this                                     Deadline should be greater than relay finalization parameter",
        "params": {
          "_transferDeadline": "The new transfer deadline"
        }
      },
      "setTreasury(address)": {
        "details": "Only owner can call this",
        "params": {
          "_treasury": "The new treasury address"
        }
      },
      "transferOwnership(address)": {
        "details": "Transfers ownership of the contract to a new account (`newOwner`). Can only be called by the current owner."
      }
    },
    "version": 1
  },
  "userdoc": {
    "events": {
      "CCBurn(address,bytes,uint8,uint256,uint256,address,bytes,uint256,uint256)": {
        "notice": "Emits when a burn request gets submitted"
      },
      "LockerDispute(address,bytes,uint256,bytes32,uint256)": {
        "notice": "Emits when a locker gets slashed for withdrawing BTC without proper reason"
      },
      "NewBitcoinFee(uint256,uint256)": {
        "notice": "Emits when changes made to bitcoin fee"
      },
      "NewLockers(address,address)": {
        "notice": "Emits when changes made to lockers address"
      },
      "NewProtocolPercentageFee(uint256,uint256)": {
        "notice": "Emits when changes made to percentage fee"
      },
      "NewRelay(address,address)": {
        "notice": "Emits when changes made to relay address"
      },
      "NewSlasherPercentageFee(uint256,uint256)": {
        "notice": "Emits when changes made to slasher percentage fee"
      },
      "NewTeleBTC(address,address)": {
        "notice": "Emits when changes made to TeleBTC address"
      },
      "NewTransferDeadline(uint256,uint256)": {
        "notice": "Emits when changes made to transfer deadline"
      },
      "NewTreasury(address,address)": {
        "notice": "Emits when changes made to treasury address"
      },
      "PaidCCBurn(address,uint256,bytes32,uint256)": {
        "notice": "Emits when a burn proof is provided"
      }
    },
    "kind": "user",
    "methods": {
      "burnProof(bytes4,bytes,bytes,bytes4,uint256,bytes,uint256,bytes,uint256[],uint256[])": {
        "notice": "Checks the correctness of burn proof"
      },
      "ccBurn(uint256,bytes,uint8,bytes)": {
        "notice": "Burns teleBTC and records the burn request"
      },
      "constructor": {
        "notice": "Handles cross-chain burn requests"
      },
      "disputeBurn(bytes,uint256[])": {
        "notice": "Slashes a locker if she did not pay a cc burn request before its deadline"
      },
      "disputeLocker(bytes,bytes4[],bytes,bytes,bytes,bytes,bytes4[],bytes,uint256[])": {
        "notice": "Slashes a locker if they issue a tx that doesn't match any burn request"
      },
      "fixTransferDeadline()": {
        "notice": "Fixing payback deadline after changing finalization parameter"
      },
      "isTransferred(address,uint256)": {
        "notice": "Shows if a burn request has been done or not"
      },
      "setBitcoinFee(uint256)": {
        "notice": "Changes Bitcoin transaction fee"
      },
      "setLockers(address)": {
        "notice": "Changes lockers contract address"
      },
      "setProtocolPercentageFee(uint256)": {
        "notice": "Changes protocol percentage fee for burning tokens"
      },
      "setRelay(address)": {
        "notice": "Changes relay contract address"
      },
      "setSlasherPercentageReward(uint256)": {
        "notice": "Changes slasher percentage reward for disputing lockers"
      },
      "setTeleBTC(address)": {
        "notice": "Changes teleBTC contract address"
      },
      "setTransferDeadline(uint256)": {
        "notice": "Changes deadline of executing burn requests"
      },
      "setTreasury(address)": {
        "notice": "Changes protocol treasury address"
      }
    },
    "version": 1
  },
  "storageLayout": {
    "storage": [
      {
        "astId": 807,
        "contract": "contracts/routers/CCBurnRouter.sol:CCBurnRouter",
        "label": "_owner",
        "offset": 0,
        "slot": "0",
        "type": "t_address"
      },
      {
        "astId": 1634,
        "contract": "contracts/routers/CCBurnRouter.sol:CCBurnRouter",
        "label": "_status",
        "offset": 0,
        "slot": "1",
        "type": "t_uint256"
      },
      {
        "astId": 17824,
        "contract": "contracts/routers/CCBurnRouter.sol:CCBurnRouter",
        "label": "relay",
        "offset": 0,
        "slot": "2",
        "type": "t_address"
      },
      {
        "astId": 17827,
        "contract": "contracts/routers/CCBurnRouter.sol:CCBurnRouter",
        "label": "lockers",
        "offset": 0,
        "slot": "3",
        "type": "t_address"
      },
      {
        "astId": 17830,
        "contract": "contracts/routers/CCBurnRouter.sol:CCBurnRouter",
        "label": "teleBTC",
        "offset": 0,
        "slot": "4",
        "type": "t_address"
      },
      {
        "astId": 17833,
        "contract": "contracts/routers/CCBurnRouter.sol:CCBurnRouter",
        "label": "treasury",
        "offset": 0,
        "slot": "5",
        "type": "t_address"
      },
      {
        "astId": 17836,
        "contract": "contracts/routers/CCBurnRouter.sol:CCBurnRouter",
        "label": "transferDeadline",
        "offset": 0,
        "slot": "6",
        "type": "t_uint256"
      },
      {
        "astId": 17839,
        "contract": "contracts/routers/CCBurnRouter.sol:CCBurnRouter",
        "label": "protocolPercentageFee",
        "offset": 0,
        "slot": "7",
        "type": "t_uint256"
      },
      {
        "astId": 17842,
        "contract": "contracts/routers/CCBurnRouter.sol:CCBurnRouter",
        "label": "slasherPercentageReward",
        "offset": 0,
        "slot": "8",
        "type": "t_uint256"
      },
      {
        "astId": 17845,
        "contract": "contracts/routers/CCBurnRouter.sol:CCBurnRouter",
        "label": "bitcoinFee",
        "offset": 0,
        "slot": "9",
        "type": "t_uint256"
      },
      {
        "astId": 17851,
        "contract": "contracts/routers/CCBurnRouter.sol:CCBurnRouter",
        "label": "burnRequests",
        "offset": 0,
        "slot": "10",
        "type": "t_mapping(t_address,t_array(t_struct(burnRequest)23201_storage)dyn_storage)"
      },
      {
        "astId": 17855,
        "contract": "contracts/routers/CCBurnRouter.sol:CCBurnRouter",
        "label": "burnRequestCounter",
        "offset": 0,
        "slot": "11",
        "type": "t_mapping(t_address,t_uint256)"
      },
      {
        "astId": 17860,
        "contract": "contracts/routers/CCBurnRouter.sol:CCBurnRouter",
        "label": "isUsedAsBurnProof",
        "offset": 0,
        "slot": "12",
        "type": "t_mapping(t_bytes32,t_bool)"
      }
    ],
    "types": {
      "t_address": {
        "encoding": "inplace",
        "label": "address",
        "numberOfBytes": "20"
      },
      "t_array(t_struct(burnRequest)23201_storage)dyn_storage": {
        "base": "t_struct(burnRequest)23201_storage",
        "encoding": "dynamic_array",
        "label": "struct ICCBurnRouter.burnRequest[]",
        "numberOfBytes": "32"
      },
      "t_bool": {
        "encoding": "inplace",
        "label": "bool",
        "numberOfBytes": "1"
      },
      "t_bytes32": {
        "encoding": "inplace",
        "label": "bytes32",
        "numberOfBytes": "32"
      },
      "t_bytes_storage": {
        "encoding": "bytes",
        "label": "bytes",
        "numberOfBytes": "32"
      },
      "t_enum(ScriptTypes)24339": {
        "encoding": "inplace",
        "label": "enum ScriptTypes",
        "numberOfBytes": "1"
      },
      "t_mapping(t_address,t_array(t_struct(burnRequest)23201_storage)dyn_storage)": {
        "encoding": "mapping",
        "key": "t_address",
        "label": "mapping(address => struct ICCBurnRouter.burnRequest[])",
        "numberOfBytes": "32",
        "value": "t_array(t_struct(burnRequest)23201_storage)dyn_storage"
      },
      "t_mapping(t_address,t_uint256)": {
        "encoding": "mapping",
        "key": "t_address",
        "label": "mapping(address => uint256)",
        "numberOfBytes": "32",
        "value": "t_uint256"
      },
      "t_mapping(t_bytes32,t_bool)": {
        "encoding": "mapping",
        "key": "t_bytes32",
        "label": "mapping(bytes32 => bool)",
        "numberOfBytes": "32",
        "value": "t_bool"
      },
      "t_struct(burnRequest)23201_storage": {
        "encoding": "inplace",
        "label": "struct ICCBurnRouter.burnRequest",
        "members": [
          {
            "astId": 23185,
            "contract": "contracts/routers/CCBurnRouter.sol:CCBurnRouter",
            "label": "amount",
            "offset": 0,
            "slot": "0",
            "type": "t_uint256"
          },
          {
            "astId": 23187,
            "contract": "contracts/routers/CCBurnRouter.sol:CCBurnRouter",
            "label": "burntAmount",
            "offset": 0,
            "slot": "1",
            "type": "t_uint256"
          },
          {
            "astId": 23189,
            "contract": "contracts/routers/CCBurnRouter.sol:CCBurnRouter",
            "label": "sender",
            "offset": 0,
            "slot": "2",
            "type": "t_address"
          },
          {
            "astId": 23191,
            "contract": "contracts/routers/CCBurnRouter.sol:CCBurnRouter",
            "label": "userScript",
            "offset": 0,
            "slot": "3",
            "type": "t_bytes_storage"
          },
          {
            "astId": 23193,
            "contract": "contracts/routers/CCBurnRouter.sol:CCBurnRouter",
            "label": "deadline",
            "offset": 0,
            "slot": "4",
            "type": "t_uint256"
          },
          {
            "astId": 23195,
            "contract": "contracts/routers/CCBurnRouter.sol:CCBurnRouter",
            "label": "isTransferred",
            "offset": 0,
            "slot": "5",
            "type": "t_bool"
          },
          {
            "astId": 23198,
            "contract": "contracts/routers/CCBurnRouter.sol:CCBurnRouter",
            "label": "scriptType",
            "offset": 1,
            "slot": "5",
            "type": "t_enum(ScriptTypes)24339"
          },
          {
            "astId": 23200,
            "contract": "contracts/routers/CCBurnRouter.sol:CCBurnRouter",
            "label": "requestIdOfLocker",
            "offset": 0,
            "slot": "6",
            "type": "t_uint256"
          }
        ],
        "numberOfBytes": "224"
      },
      "t_uint256": {
        "encoding": "inplace",
        "label": "uint256",
        "numberOfBytes": "32"
      }
    }
  }
}