{
  "address": "0x1bdC90a282b79A19C55fD409AF0d805790Fc0cB8",
  "abi": [
    {
      "inputs": [
        {
          "internalType": "uint256",
          "name": "_startingBlockNumber",
          "type": "uint256"
        },
        {
          "internalType": "address",
          "name": "_relay",
          "type": "address"
        },
        {
          "internalType": "address",
          "name": "_lockers",
          "type": "address"
        },
        {
          "internalType": "address",
          "name": "_treasury",
          "type": "address"
        },
        {
          "internalType": "address",
          "name": "_teleBTC",
          "type": "address"
        },
        {
          "internalType": "uint256",
          "name": "_transferDeadline",
          "type": "uint256"
        },
        {
          "internalType": "uint256",
          "name": "_protocolPercentageFee",
          "type": "uint256"
        },
        {
          "internalType": "uint256",
          "name": "_slasherPercentageReward",
          "type": "uint256"
        },
        {
          "internalType": "uint256",
          "name": "_bitcoinFee",
          "type": "uint256"
        }
      ],
      "stateMutability": "nonpayable",
      "type": "constructor"
    },
    {
      "anonymous": false,
      "inputs": [
        {
          "indexed": true,
          "internalType": "address",
          "name": "userTargetAddress",
          "type": "address"
        },
        {
          "indexed": true,
          "internalType": "address",
          "name": "_lockerTargetAddress",
          "type": "address"
        },
        {
          "indexed": false,
          "internalType": "bytes",
          "name": "lockerLockingScript",
          "type": "bytes"
        },
        {
          "indexed": false,
          "internalType": "uint256",
          "name": "requestIdOfLocker",
          "type": "uint256"
        }
      ],
      "name": "BurnDispute",
      "type": "event"
    },
    {
      "anonymous": false,
      "inputs": [
        {
          "indexed": true,
          "internalType": "address",
          "name": "userTargetAddress",
          "type": "address"
        },
        {
          "indexed": false,
          "internalType": "bytes",
          "name": "userScript",
          "type": "bytes"
        },
        {
          "indexed": false,
          "internalType": "enum ScriptTypes",
          "name": "scriptType",
          "type": "uint8"
        },
        {
          "indexed": false,
          "internalType": "uint256",
          "name": "inputAmount",
          "type": "uint256"
        },
        {
          "indexed": false,
          "internalType": "address",
          "name": "inputToken",
          "type": "address"
        },
        {
          "indexed": false,
          "internalType": "uint256",
          "name": "teleBTCAmount",
          "type": "uint256"
        },
        {
          "indexed": false,
          "internalType": "uint256",
          "name": "burntAmount",
          "type": "uint256"
        },
        {
          "indexed": false,
          "internalType": "address",
          "name": "lockerTargetAddress",
          "type": "address"
        },
        {
          "indexed": false,
          "internalType": "uint256",
          "name": "requestIdOfLocker",
          "type": "uint256"
        },
        {
          "indexed": true,
          "internalType": "uint256",
          "name": "deadline",
          "type": "uint256"
        }
      ],
      "name": "CCBurn",
      "type": "event"
    },
    {
      "anonymous": false,
      "inputs": [
        {
          "indexed": false,
          "internalType": "address",
          "name": "_lockerTargetAddress",
          "type": "address"
        },
        {
          "indexed": false,
          "internalType": "bytes",
          "name": "lockerLockingScript",
          "type": "bytes"
        },
        {
          "indexed": false,
          "internalType": "uint256",
          "name": "_blockNumber",
          "type": "uint256"
        },
        {
          "indexed": false,
          "internalType": "bytes32",
          "name": "txId",
          "type": "bytes32"
        },
        {
          "indexed": false,
          "internalType": "uint256",
          "name": "amount",
          "type": "uint256"
        }
      ],
      "name": "LockerDispute",
      "type": "event"
    },
    {
      "anonymous": false,
      "inputs": [
        {
          "indexed": false,
          "internalType": "uint256",
          "name": "oldBitcoinFee",
          "type": "uint256"
        },
        {
          "indexed": false,
          "internalType": "uint256",
          "name": "newBitcoinFee",
          "type": "uint256"
        }
      ],
      "name": "NewBitcoinFee",
      "type": "event"
    },
    {
      "anonymous": false,
      "inputs": [
        {
          "indexed": false,
          "internalType": "address",
          "name": "oldLockers",
          "type": "address"
        },
        {
          "indexed": false,
          "internalType": "address",
          "name": "newLockers",
          "type": "address"
        }
      ],
      "name": "NewLockers",
      "type": "event"
    },
    {
      "anonymous": false,
      "inputs": [
        {
          "indexed": false,
          "internalType": "uint256",
          "name": "oldProtocolPercentageFee",
          "type": "uint256"
        },
        {
          "indexed": false,
          "internalType": "uint256",
          "name": "newProtocolPercentageFee",
          "type": "uint256"
        }
      ],
      "name": "NewProtocolPercentageFee",
      "type": "event"
    },
    {
      "anonymous": false,
      "inputs": [
        {
          "indexed": false,
          "internalType": "address",
          "name": "oldRelay",
          "type": "address"
        },
        {
          "indexed": false,
          "internalType": "address",
          "name": "newRelay",
          "type": "address"
        }
      ],
      "name": "NewRelay",
      "type": "event"
    },
    {
      "anonymous": false,
      "inputs": [
        {
          "indexed": false,
          "internalType": "uint256",
          "name": "oldSlasherPercentageFee",
          "type": "uint256"
        },
        {
          "indexed": false,
          "internalType": "uint256",
          "name": "newSlasherPercentageFee",
          "type": "uint256"
        }
      ],
      "name": "NewSlasherPercentageFee",
      "type": "event"
    },
    {
      "anonymous": false,
      "inputs": [
        {
          "indexed": false,
          "internalType": "address",
          "name": "oldTeleBTC",
          "type": "address"
        },
        {
          "indexed": false,
          "internalType": "address",
          "name": "newTeleBTC",
          "type": "address"
        }
      ],
      "name": "NewTeleBTC",
      "type": "event"
    },
    {
      "anonymous": false,
      "inputs": [
        {
          "indexed": false,
          "internalType": "uint256",
          "name": "oldTransferDeadline",
          "type": "uint256"
        },
        {
          "indexed": false,
          "internalType": "uint256",
          "name": "newTransferDeadline",
          "type": "uint256"
        }
      ],
      "name": "NewTransferDeadline",
      "type": "event"
    },
    {
      "anonymous": false,
      "inputs": [
        {
          "indexed": false,
          "internalType": "address",
          "name": "oldTreasury",
          "type": "address"
        },
        {
          "indexed": false,
          "internalType": "address",
          "name": "newTreasury",
          "type": "address"
        }
      ],
      "name": "NewTreasury",
      "type": "event"
    },
    {
      "anonymous": false,
      "inputs": [
        {
          "indexed": true,
          "internalType": "address",
          "name": "previousOwner",
          "type": "address"
        },
        {
          "indexed": true,
          "internalType": "address",
          "name": "newOwner",
          "type": "address"
        }
      ],
      "name": "OwnershipTransferred",
      "type": "event"
    },
    {
      "anonymous": false,
      "inputs": [
        {
          "indexed": true,
          "internalType": "address",
          "name": "lockerTargetAddress",
          "type": "address"
        },
        {
          "indexed": false,
          "internalType": "uint256",
          "name": "requestIdOfLocker",
          "type": "uint256"
        },
        {
          "indexed": false,
          "internalType": "bytes32",
          "name": "bitcoinTxId",
          "type": "bytes32"
        },
        {
          "indexed": false,
          "internalType": "uint256",
          "name": "bitcoinTxOutputIndex",
          "type": "uint256"
        }
      ],
      "name": "PaidCCBurn",
      "type": "event"
    },
    {
      "inputs": [],
      "name": "bitcoinFee",
      "outputs": [
        {
          "internalType": "uint256",
          "name": "",
          "type": "uint256"
        }
      ],
      "stateMutability": "view",
      "type": "function"
    },
    {
      "inputs": [
        {
          "internalType": "bytes4",
          "name": "_version",
          "type": "bytes4"
        },
        {
          "internalType": "bytes",
          "name": "_vin",
          "type": "bytes"
        },
        {
          "internalType": "bytes",
          "name": "_vout",
          "type": "bytes"
        },
        {
          "internalType": "bytes4",
          "name": "_locktime",
          "type": "bytes4"
        },
        {
          "internalType": "uint256",
          "name": "_blockNumber",
          "type": "uint256"
        },
        {
          "internalType": "bytes",
          "name": "_intermediateNodes",
          "type": "bytes"
        },
        {
          "internalType": "uint256",
          "name": "_index",
          "type": "uint256"
        },
        {
          "internalType": "bytes",
          "name": "_lockerLockingScript",
          "type": "bytes"
        },
        {
          "internalType": "uint256[]",
          "name": "_burnReqIndexes",
          "type": "uint256[]"
        },
        {
          "internalType": "uint256[]",
          "name": "_voutIndexes",
          "type": "uint256[]"
        }
      ],
      "name": "burnProof",
      "outputs": [
        {
          "internalType": "bool",
          "name": "",
          "type": "bool"
        }
      ],
      "stateMutability": "payable",
      "type": "function"
    },
    {
      "inputs": [
        {
          "internalType": "address",
          "name": "",
          "type": "address"
        }
      ],
      "name": "burnRequestCounter",
      "outputs": [
        {
          "internalType": "uint256",
          "name": "",
          "type": "uint256"
        }
      ],
      "stateMutability": "view",
      "type": "function"
    },
    {
      "inputs": [
        {
          "internalType": "address",
          "name": "",
          "type": "address"
        },
        {
          "internalType": "uint256",
          "name": "",
          "type": "uint256"
        }
      ],
      "name": "burnRequests",
      "outputs": [
        {
          "internalType": "uint256",
          "name": "amount",
          "type": "uint256"
        },
        {
          "internalType": "uint256",
          "name": "burntAmount",
          "type": "uint256"
        },
        {
          "internalType": "address",
          "name": "sender",
          "type": "address"
        },
        {
          "internalType": "bytes",
          "name": "userScript",
          "type": "bytes"
        },
        {
          "internalType": "uint256",
          "name": "deadline",
          "type": "uint256"
        },
        {
          "internalType": "bool",
          "name": "isTransferred",
          "type": "bool"
        },
        {
          "internalType": "enum ScriptTypes",
          "name": "scriptType",
          "type": "uint8"
        },
        {
          "internalType": "uint256",
          "name": "requestIdOfLocker",
          "type": "uint256"
        }
      ],
      "stateMutability": "view",
      "type": "function"
    },
    {
      "inputs": [
        {
          "internalType": "uint256",
          "name": "_amount",
          "type": "uint256"
        },
        {
          "internalType": "bytes",
          "name": "_userScript",
          "type": "bytes"
        },
        {
          "internalType": "enum ScriptTypes",
          "name": "_scriptType",
          "type": "uint8"
        },
        {
          "internalType": "bytes",
          "name": "_lockerLockingScript",
          "type": "bytes"
        }
      ],
      "name": "ccBurn",
      "outputs": [
        {
          "internalType": "uint256",
          "name": "",
          "type": "uint256"
        }
      ],
      "stateMutability": "nonpayable",
      "type": "function"
    },
    {
      "inputs": [
        {
          "internalType": "address",
          "name": "_exchangeConnector",
          "type": "address"
        },
        {
          "internalType": "uint256[]",
          "name": "_amounts",
          "type": "uint256[]"
        },
        {
          "internalType": "bool",
          "name": "_isFixedToken",
          "type": "bool"
        },
        {
          "internalType": "address[]",
          "name": "_path",
          "type": "address[]"
        },
        {
          "internalType": "uint256",
          "name": "_deadline",
          "type": "uint256"
        },
        {
          "internalType": "bytes",
          "name": "_userScript",
          "type": "bytes"
        },
        {
          "internalType": "enum ScriptTypes",
          "name": "_scriptType",
          "type": "uint8"
        },
        {
          "internalType": "bytes",
          "name": "_lockerLockingScript",
          "type": "bytes"
        }
      ],
      "name": "ccExchangeAndBurn",
      "outputs": [
        {
          "internalType": "uint256",
          "name": "",
          "type": "uint256"
        }
      ],
      "stateMutability": "nonpayable",
      "type": "function"
    },
    {
      "inputs": [
        {
          "internalType": "bytes",
          "name": "_lockerLockingScript",
          "type": "bytes"
        },
        {
          "internalType": "uint256[]",
          "name": "_indices",
          "type": "uint256[]"
        }
      ],
      "name": "disputeBurn",
      "outputs": [],
      "stateMutability": "nonpayable",
      "type": "function"
    },
    {
      "inputs": [
        {
          "internalType": "bytes",
          "name": "_lockerLockingScript",
          "type": "bytes"
        },
        {
          "internalType": "bytes4[]",
          "name": "_versions",
          "type": "bytes4[]"
        },
        {
          "internalType": "bytes",
          "name": "_inputVin",
          "type": "bytes"
        },
        {
          "internalType": "bytes",
          "name": "_inputVout",
          "type": "bytes"
        },
        {
          "internalType": "bytes",
          "name": "_outputVin",
          "type": "bytes"
        },
        {
          "internalType": "bytes",
          "name": "_outputVout",
          "type": "bytes"
        },
        {
          "internalType": "bytes4[]",
          "name": "_locktimes",
          "type": "bytes4[]"
        },
        {
          "internalType": "bytes",
          "name": "_inputIntermediateNodes",
          "type": "bytes"
        },
        {
          "internalType": "uint256[]",
          "name": "_indexesAndBlockNumbers",
          "type": "uint256[]"
        }
      ],
      "name": "disputeLocker",
      "outputs": [],
      "stateMutability": "payable",
      "type": "function"
    },
    {
      "inputs": [
        {
          "internalType": "address",
          "name": "_lockerTargetAddress",
          "type": "address"
        },
        {
          "internalType": "uint256",
          "name": "_index",
          "type": "uint256"
        }
      ],
      "name": "isTransferred",
      "outputs": [
        {
          "internalType": "bool",
          "name": "",
          "type": "bool"
        }
      ],
      "stateMutability": "view",
      "type": "function"
    },
    {
      "inputs": [
        {
          "internalType": "bytes32",
          "name": "",
          "type": "bytes32"
        }
      ],
      "name": "isUsedAsBurnProof",
      "outputs": [
        {
          "internalType": "bool",
          "name": "",
          "type": "bool"
        }
      ],
      "stateMutability": "view",
      "type": "function"
    },
    {
      "inputs": [],
      "name": "lockers",
      "outputs": [
        {
          "internalType": "address",
          "name": "",
          "type": "address"
        }
      ],
      "stateMutability": "view",
      "type": "function"
    },
    {
      "inputs": [],
      "name": "owner",
      "outputs": [
        {
          "internalType": "address",
          "name": "",
          "type": "address"
        }
      ],
      "stateMutability": "view",
      "type": "function"
    },
    {
      "inputs": [],
      "name": "protocolPercentageFee",
      "outputs": [
        {
          "internalType": "uint256",
          "name": "",
          "type": "uint256"
        }
      ],
      "stateMutability": "view",
      "type": "function"
    },
    {
      "inputs": [],
      "name": "relay",
      "outputs": [
        {
          "internalType": "address",
          "name": "",
          "type": "address"
        }
      ],
      "stateMutability": "view",
      "type": "function"
    },
    {
      "inputs": [],
      "name": "renounceOwnership",
      "outputs": [],
      "stateMutability": "nonpayable",
      "type": "function"
    },
    {
      "inputs": [
        {
          "internalType": "uint256",
          "name": "_bitcoinFee",
          "type": "uint256"
        }
      ],
      "name": "setBitcoinFee",
      "outputs": [],
      "stateMutability": "nonpayable",
      "type": "function"
    },
    {
      "inputs": [
        {
          "internalType": "address",
          "name": "_lockers",
          "type": "address"
        }
      ],
      "name": "setLockers",
      "outputs": [],
      "stateMutability": "nonpayable",
      "type": "function"
    },
    {
      "inputs": [
        {
          "internalType": "uint256",
          "name": "_protocolPercentageFee",
          "type": "uint256"
        }
      ],
      "name": "setProtocolPercentageFee",
      "outputs": [],
      "stateMutability": "nonpayable",
      "type": "function"
    },
    {
      "inputs": [
        {
          "internalType": "address",
          "name": "_relay",
          "type": "address"
        }
      ],
      "name": "setRelay",
      "outputs": [],
      "stateMutability": "nonpayable",
      "type": "function"
    },
    {
      "inputs": [
        {
          "internalType": "uint256",
          "name": "_slasherPercentageReward",
          "type": "uint256"
        }
      ],
      "name": "setSlasherPercentageReward",
      "outputs": [],
      "stateMutability": "nonpayable",
      "type": "function"
    },
    {
      "inputs": [
        {
          "internalType": "address",
          "name": "_teleBTC",
          "type": "address"
        }
      ],
      "name": "setTeleBTC",
      "outputs": [],
      "stateMutability": "nonpayable",
      "type": "function"
    },
    {
      "inputs": [
        {
          "internalType": "uint256",
          "name": "_transferDeadline",
          "type": "uint256"
        }
      ],
      "name": "setTransferDeadline",
      "outputs": [],
      "stateMutability": "nonpayable",
      "type": "function"
    },
    {
      "inputs": [
        {
          "internalType": "address",
          "name": "_treasury",
          "type": "address"
        }
      ],
      "name": "setTreasury",
      "outputs": [],
      "stateMutability": "nonpayable",
      "type": "function"
    },
    {
      "inputs": [],
      "name": "slasherPercentageReward",
      "outputs": [
        {
          "internalType": "uint256",
          "name": "",
          "type": "uint256"
        }
      ],
      "stateMutability": "view",
      "type": "function"
    },
    {
      "inputs": [],
      "name": "startingBlockNumber",
      "outputs": [
        {
          "internalType": "uint256",
          "name": "",
          "type": "uint256"
        }
      ],
      "stateMutability": "view",
      "type": "function"
    },
    {
      "inputs": [],
      "name": "teleBTC",
      "outputs": [
        {
          "internalType": "address",
          "name": "",
          "type": "address"
        }
      ],
      "stateMutability": "view",
      "type": "function"
    },
    {
      "inputs": [],
      "name": "transferDeadline",
      "outputs": [
        {
          "internalType": "uint256",
          "name": "",
          "type": "uint256"
        }
      ],
      "stateMutability": "view",
      "type": "function"
    },
    {
      "inputs": [
        {
          "internalType": "address",
          "name": "newOwner",
          "type": "address"
        }
      ],
      "name": "transferOwnership",
      "outputs": [],
      "stateMutability": "nonpayable",
      "type": "function"
    },
    {
      "inputs": [],
      "name": "treasury",
      "outputs": [
        {
          "internalType": "address",
          "name": "",
          "type": "address"
        }
      ],
      "stateMutability": "view",
      "type": "function"
    },
    {
      "stateMutability": "payable",
      "type": "receive"
    }
  ],
  "transactionHash": "0x6e3999bb449b9a43ee935e2710d2f146f65cadf88d1f358e0bdf091b9d8e3be7",
  "args": [
    "789495",
    "0xc7a7C6AB475138565FE0D2476EE4616862Bf2467",
    "0xf5D6D369A7F4147F720AEAdd4C4f903aE8046166",
    "0x5364E3557572bd5D5903C0e9C21BE359F2Eac1dA",
    "0x515D720B9D219f1931205D5B8D842bE1Fe2FeBDE",
    72,
    5,
    500,
    10000
  ],
  "numDeployments": 1,
  "solcInputHash": "9b209084a71e5f1a13757040e9955f19",
  "bytecode": "0x60806040523480156200001157600080fd5b506040516200679f3803806200679f833981016040819052620000349162000758565b6200003f33620000af565b6001805560028990556200005388620000ff565b6200005e87620001b5565b620000698662000267565b620000748562000319565b6200007f84620003cb565b6200008a8362000563565b6200009582620005f8565b620000a0816200068d565b505050505050505050620007e5565b600080546001600160a01b038381166001600160a01b0319831681178455604051919092169283917f8be0079c531659141344cd1fd0a4f28419497f9722a3daafe3b4186f6b6457e09190a35050565b806001600160a01b0381166200014b5760405162461bcd60e51b815260206004820152601a60248201526000805160206200677f83398151915260448201526064015b60405180910390fd5b600354604080516001600160a01b03928316815291841660208301527f4c28a3f61a715259c4dc930c23e7423b8fa52e13232c061a6e488729c66184f4910160405180910390a150600380546001600160a01b0319166001600160a01b0392909216919091179055565b806001600160a01b038116620001fd5760405162461bcd60e51b815260206004820152601a60248201526000805160206200677f833981519152604482015260640162000142565b600454604080516001600160a01b03928316815291841660208301527ffa021c2ec0f46429a53e7f88b88065e40001f50c9d38b2e8b713beaf9828d4c3910160405180910390a150600480546001600160a01b0319166001600160a01b0392909216919091179055565b806001600160a01b038116620002af5760405162461bcd60e51b815260206004820152601a60248201526000805160206200677f833981519152604482015260640162000142565b600654604080516001600160a01b03928316815291841660208301527f567657fa3f286518b318f4a29870674f433f622fdfc819691acb13105b228225910160405180910390a150600680546001600160a01b0319166001600160a01b0392909216919091179055565b806001600160a01b038116620003615760405162461bcd60e51b815260206004820152601a60248201526000805160206200677f833981519152604482015260640162000142565b600554604080516001600160a01b03928316815291841660208301527f36a4c08a38b736dcecb6c328dba61238529620e83ccb23db2cc43cd34ec26096910160405180910390a150600580546001600160a01b0319166001600160a01b0392909216919091179055565b60035460408051630a072bc560e41b815290516000926001600160a01b03169163a072bc50916004808301926020929190829003018186803b1580156200041157600080fd5b505afa15801562000426573d6000803e3d6000fd5b505050506040513d601f19601f820116820180604052508101906200044c91906200073f565b9050620004616000546001600160a01b031690565b6001600160a01b0316336001600160a01b0316148062000482575080600754105b620004d05760405162461bcd60e51b815260206004820152601760248201527f43434275726e526f757465723a206e6f207065726d6974000000000000000000604482015260640162000142565b808211620005215760405162461bcd60e51b815260206004820152601a60248201527f43434275726e526f757465723a206c6f7720646561646c696e65000000000000604482015260640162000142565b60075460408051918252602082018490527f92c10a242ca42973030420e2ee32b3ba7818cc643f896958f620c606cf300416910160405180910390a150600755565b806127101015620005b75760405162461bcd60e51b815260206004820152601960248201527f43434275726e526f757465723a20696e76616c69642066656500000000000000604482015260640162000142565b60085460408051918252602082018390527f7d205f60891f60851c61cd244ba387d72b6589e7c0ac41b9d909ab0ce2c2a53b910160405180910390a1600855565b8061271010156200064c5760405162461bcd60e51b815260206004820152601c60248201527f43434275726e526f757465723a20696e76616c69642072657761726400000000604482015260640162000142565b60095460408051918252602082018390527faa50b3683e42a13535a5b9c2c32780cccf956fb546b523a3542ac4ad8b544f67910160405180910390a1600955565b600a5460408051918252602082018390527f47c5f9c13c35ebb166f6a8d8c56af73f8b323ac0fee7aec4a5e0490bbf67a4fe910160405180910390a18061271010156200071d5760405162461bcd60e51b815260206004820152601d60248201527f43434275726e526f757465723a20696e76616c69642062746320666565000000604482015260640162000142565b600a55565b80516001600160a01b03811681146200073a57600080fd5b919050565b60006020828403121562000751578081fd5b5051919050565b60008060008060008060008060006101208a8c03121562000777578485fd5b895198506200078960208b0162000722565b97506200079960408b0162000722565b9650620007a960608b0162000722565b9550620007b960808b0162000722565b945060a08a0151935060c08a0151925060e08a015191506101008a015190509295985092959850929598565b615f8a80620007f56000396000f3fe6080604052600436106101c65760003560e01c80638d3d78cd116100f7578063bed6a60211610095578063ea73263711610064578063ea73263714610500578063f0f4426014610513578063f2fde38b14610533578063f47e224014610553576101cd565b8063bed6a60214610497578063c780c03f146104ad578063c805f68b146104c0578063cdbe3741146104e0576101cd565b8063930a60e8116100d1578063930a60e814610414578063b14d353214610441578063b59589d114610461578063b74d0d3514610481576101cd565b80638d3d78cd146103b65780638d774f8e146103d65780638da5cb5b146103f6576101cd565b806361d027b31161016457806373532b2a1161013e57806373532b2a146103365780637ed55748146103565780637f0f1817146103765780637ffe9a9214610396576101cd565b806361d027b3146102eb57806370872aa51461030b578063715018a614610321576101cd565b8063419cba7f116101a0578063419cba7f1461027357806343149dba146102895780634782bc36146102a95780635c4f5f3e146102cb576101cd565b80631812adb6146101d25780631876dec4146101fb5780631e23616814610233576101cd565b366101cd57005b600080fd5b3480156101de57600080fd5b506101e860085481565b6040519081526020015b60405180910390f35b34801561020757600080fd5b5060045461021b906001600160a01b031681565b6040516001600160a01b0390911681526020016101f2565b34801561023f57600080fd5b5061026361024e36600461552d565b600d6020526000908152604090205460ff1681565b60405190151581526020016101f2565b34801561027f57600080fd5b506101e860095481565b34801561029557600080fd5b506101e86102a4366004615841565b610587565b3480156102b557600080fd5b506102c96102c436600461552d565b6107ae565b005b3480156102d757600080fd5b506102c96102e636600461552d565b6107e4565b3480156102f757600080fd5b5060065461021b906001600160a01b031681565b34801561031757600080fd5b506101e860025481565b34801561032d57600080fd5b506102c96107ed565b34801561034257600080fd5b506102c9610351366004615682565b610819565b34801561036257600080fd5b506102c961037136600461552d565b610f63565b34801561038257600080fd5b506102c961039136600461530c565b610f96565b3480156103a257600080fd5b506102636103b1366004615440565b610fc9565b3480156103c257600080fd5b5060055461021b906001600160a01b031681565b3480156103e257600080fd5b506101e86103f1366004615344565b611021565b34801561040257600080fd5b506000546001600160a01b031661021b565b34801561042057600080fd5b506101e861042f36600461530c565b600c6020526000908152604090205481565b34801561044d57600080fd5b506102c961045c36600461530c565b6110de565b34801561046d57600080fd5b5060035461021b906001600160a01b031681565b34801561048d57600080fd5b506101e8600a5481565b3480156104a357600080fd5b506101e860075481565b6102c96104bb3660046156e7565b611111565b3480156104cc57600080fd5b506102c96104db36600461530c565b611727565b3480156104ec57600080fd5b506102c96104fb36600461552d565b61175a565b61026361050e36600461555d565b61178d565b34801561051f57600080fd5b506102c961052e36600461530c565b611afb565b34801561053f57600080fd5b506102c961054e36600461530c565b611b2e565b34801561055f57600080fd5b5061057361056e366004615440565b611bc6565b6040516101f2989796959493929190615c24565b6000600260015414156105b55760405162461bcd60e51b81526004016105ac90615bed565b60405180910390fd5b60026001556005546001600160a01b03166323b872dd336040516001600160e01b031960e084901b1681526001600160a01b03909116600482015230602482015260448101899052606401602060405180830381600087803b15801561061a57600080fd5b505af115801561062e573d6000803e3d6000fd5b505050506040513d601f19601f82011682018060405250810190610652919061546b565b506000806106638888888888611cc3565b6001600160a01b0381166000908152600b6020526040902080549294509092509061069090600190615e4b565b815481106106ae57634e487b7160e01b600052603260045260246000fd5b9060005260206000209060070201600401546106c73390565b6001600160a01b03167fc19dabf19fdfd8c6124bed2178a4564d0c5d5812bfb916777cc90d1b53ed5a5a89896000808e8989600b60008c6001600160a01b03166001600160a01b031681526020019081526020016000206001600b60008e6001600160a01b03166001600160a01b03168152602001908152602001600020805490506107539190615e4b565b8154811061077157634e487b7160e01b600052603260045260246000fd5b906000526020600020906007020160060154604051610797989796959493929190615a74565b60405180910390a350600180559695505050505050565b6000546001600160a01b031633146107d85760405162461bcd60e51b81526004016105ac90615b77565b6107e181611fd2565b50565b6107e181612065565b6000546001600160a01b031633146108175760405162461bcd60e51b81526004016105ac90615b77565b565b6002600154141561083c5760405162461bcd60e51b81526004016105ac90615bed565b60026001556004805460405163aff2faa360e01b81526001600160a01b039091169163aff2faa391610872918791879101615a29565b60206040518083038186803b15801561088a57600080fd5b505afa15801561089e573d6000803e3d6000fd5b505050506040513d601f19601f820116820180604052508101906108c2919061546b565b6108de5760405162461bcd60e51b81526004016105ac90615b40565b6004805460405163626885b560e11b81526000926001600160a01b039092169163c4d10b6a91610912918891889101615a29565b60206040518083038186803b15801561092a57600080fd5b505afa15801561093e573d6000803e3d6000fd5b505050506040513d601f19601f820116820180604052508101906109629190615328565b90506000600360009054906101000a90046001600160a01b03166001600160a01b0316632f796d906040518163ffffffff1660e01b815260040160206040518083038186803b1580156109b457600080fd5b505afa1580156109c8573d6000803e3d6000fd5b505050506040513d601f19601f820116820180604052508101906109ec9190615545565b905060005b8351811015610f57576001600160a01b0383166000908152600b602052604090208451859083908110610a3457634e487b7160e01b600052603260045260246000fd5b602002602001015181548110610a5a57634e487b7160e01b600052603260045260246000fd5b600091825260209091206005600790920201015460ff1615610abe5760405162461bcd60e51b815260206004820152601a60248201527f43434275726e526f757465723a20616c7265616479207061696400000000000060448201526064016105ac565b6001600160a01b0383166000908152600b602052604090208451839190869084908110610afb57634e487b7160e01b600052603260045260246000fd5b602002602001015181548110610b2157634e487b7160e01b600052603260045260246000fd5b90600052602060002090600702016004015410610b505760405162461bcd60e51b81526004016105ac90615bac565b6001600160a01b0383166000908152600b60205260409020845160019190869084908110610b8e57634e487b7160e01b600052603260045260246000fd5b602002602001015181548110610bb457634e487b7160e01b600052603260045260246000fd5b60009182526020808320600792909202909101600501805460ff1916931515939093179092556004546009546001600160a01b038781168452600b909452604090922087519390911692631697565b928792612710928a9088908110610c2a57634e487b7160e01b600052603260045260246000fd5b602002602001015181548110610c5057634e487b7160e01b600052603260045260246000fd5b906000526020600020906007020160000154610c6c9190615e03565b610c769190615de3565b336001600160a01b0388166000908152600b6020526040902089518a9088908110610cb157634e487b7160e01b600052603260045260246000fd5b602002602001015181548110610cd757634e487b7160e01b600052603260045260246000fd5b906000526020600020906007020160000154600b60008a6001600160a01b03166001600160a01b031681526020019081526020016000208a8881518110610d2e57634e487b7160e01b600052603260045260246000fd5b602002602001015181548110610d5457634e487b7160e01b600052603260045260246000fd5b600091825260209091206007909102016002015460405160e087901b6001600160e01b03191681526001600160a01b03958616600482015260248101949094529184166044840152606483015291909116608482015260a401602060405180830381600087803b158015610dc757600080fd5b505af1158015610ddb573d6000803e3d6000fd5b505050506040513d601f19601f82011682018060405250810190610dff919061546b565b506001600160a01b0383166000818152600b602052604090208551869084908110610e3a57634e487b7160e01b600052603260045260246000fd5b602002602001015181548110610e6057634e487b7160e01b600052603260045260246000fd5b906000526020600020906007020160020160009054906101000a90046001600160a01b03166001600160a01b03167f58c23b4ae0617be275628875bcfd65759a441263099a256eeb27899fb5dd846d8888600b6000896001600160a01b03166001600160a01b03168152602001908152602001600020898781518110610ef657634e487b7160e01b600052603260045260246000fd5b602002602001015181548110610f1c57634e487b7160e01b600052603260045260246000fd5b906000526020600020906007020160060154604051610f3d93929190615a3d565b60405180910390a380610f4f81615eea565b9150506109f1565b50506001805550505050565b6000546001600160a01b03163314610f8d5760405162461bcd60e51b81526004016105ac90615b77565b6107e1816121f3565b6000546001600160a01b03163314610fc05760405162461bcd60e51b81526004016105ac90615b77565b6107e181612286565b6001600160a01b0382166000908152600b6020526040812080548390811061100157634e487b7160e01b600052603260045260246000fd5b600091825260209091206005600790920201015460ff1690505b92915050565b6000600260015414156110465760405162461bcd60e51b81526004016105ac90615bed565b6002600155600061105c8d8d8d8d8d8d8d612317565b90506110c98c8c600081811061108257634e487b7160e01b600052603260045260246000fd5b905060200201358a8a60008181106110aa57634e487b7160e01b600052603260045260246000fd5b90506020020160208101906110bf919061530c565b8389898989612764565b600180559d9c50505050505050505050505050565b6000546001600160a01b031633146111085760405162461bcd60e51b81526004016105ac90615b77565b6107e1816128be565b600260015414156111345760405162461bcd60e51b81526004016105ac90615bed565b60026001819055885114801561114b575082516002145b8015611158575080516003145b6111a45760405162461bcd60e51b815260206004820152601a60248201527f43434275726e526f757465723a2077726f6e6720696e7075747300000000000060448201526064016105ac565b600254816002815181106111c857634e487b7160e01b600052603260045260246000fd5b6020026020010151101561121a5760405162461bcd60e51b815260206004820152601960248201527810d0d09d5c9b949bdd5d195c8e881bdb19081c995c5d595cdd603a1b60448201526064016105ac565b6004805460405163aff2faa360e01b81526001600160a01b039091169163aff2faa391611249918d9101615a61565b60206040518083038186803b15801561126157600080fd5b505afa158015611275573d6000803e3d6000fd5b505050506040513d601f19601f82011682018060405250810190611299919061546b565b6112b55760405162461bcd60e51b81526004016105ac90615b40565b6000611313896000815181106112db57634e487b7160e01b600052603260045260246000fd5b602002602001015189898760008151811061130657634e487b7160e01b600052603260045260246000fd5b602002602001015161294f565b905073b0C3b1392E32E0d55F127783256c2a1c83106B6B637ebc2327600360009054906101000a90046001600160a01b0316838560028151811061136757634e487b7160e01b600052603260045260246000fd5b6020026020010151878760018151811061139157634e487b7160e01b600052603260045260246000fd5b60200260200101516040518663ffffffff1660e01b81526004016113b99594939291906159a9565b60206040518083038186803b1580156113d157600080fd5b505af41580156113e5573d6000803e3d6000fd5b505050506040513d601f19601f82011682018060405250810190611409919061546b565b6114555760405162461bcd60e51b815260206004820152601b60248201527f43434275726e526f757465723a206e6f742066696e616c697a6564000000000060448201526064016105ac565b6000818152600d602052604090205460ff16156114b45760405162461bcd60e51b815260206004820152601a60248201527f43434275726e526f757465723a20616c7265616479207573656400000000000060448201526064016105ac565b6000818152600d60205260408120805460ff1916600117905582518190611502908b90869084906114f557634e487b7160e01b600052603260045260246000fd5b6020026020010151612a45565b915091506115558b60018151811061152a57634e487b7160e01b600052603260045260246000fd5b602002602001015189898960018151811061130657634e487b7160e01b600052603260045260246000fd5b82146115a35760405162461bcd60e51b815260206004820152601d60248201527f43434275726e526f757465723a2077726f6e67206f757470757420747800000060448201526064016105ac565b8b5160208d01206115b48883612af4565b80519060200120146116085760405162461bcd60e51b815260206004820152601c60248201527f43434275726e526f757465723a206e6f7420666f72206c6f636b65720000000060448201526064016105ac565b8360028151811061162957634e487b7160e01b600052603260045260246000fd5b602002602001015160075461163e9190615d59565b600360009054906101000a90046001600160a01b03166001600160a01b0316632f796d906040518163ffffffff1660e01b815260040160206040518083038186803b15801561168c57600080fd5b505afa1580156116a0573d6000803e3d6000fd5b505050506040513d601f19601f820116820180604052508101906116c49190615545565b116116e15760405162461bcd60e51b81526004016105ac90615bac565b611715898d858760028151811061170857634e487b7160e01b600052603260045260246000fd5b6020026020010151612b68565b50506001805550505050505050505050565b6000546001600160a01b031633146117515760405162461bcd60e51b81526004016105ac90615b77565b6107e181612d33565b6000546001600160a01b031633146117845760405162461bcd60e51b81526004016105ac90615b77565b6107e181612dc4565b6000600260015414156117b25760405162461bcd60e51b81526004016105ac90615bed565b60026001819055548710156118055760405162461bcd60e51b815260206004820152601960248201527810d0d09d5c9b949bdd5d195c8e881bdb19081c995c5d595cdd603a1b60448201526064016105ac565b6001600160e01b031988161561185d5760405162461bcd60e51b815260206004820181905260248201527f43434275726e526f757465723a206e6f6e2d7a65726f206c6f636b2074696d6560448201526064016105ac565b6004805460405163aff2faa360e01b81526001600160a01b039091169163aff2faa39161188c91889101615a61565b60206040518083038186803b1580156118a457600080fd5b505afa1580156118b8573d6000803e3d6000fd5b505050506040513d601f19601f820116820180604052508101906118dc919061546b565b6118f85760405162461bcd60e51b81526004016105ac90615b40565b6004805460405163626885b560e11b81526000926001600160a01b039092169163c4d10b6a9161192a91899101615a61565b60206040518083038186803b15801561194257600080fd5b505afa158015611956573d6000803e3d6000fd5b505050506040513d601f19601f8201168201806040525081019061197a9190615328565b905082518451146119cd5760405162461bcd60e51b815260206004820152601b60248201527f43434275726e526f757465723a2077726f6e6720696e6465786573000000000060448201526064016105ac565b60006119db8d8d8d8d61294f565b600354604051637ebc232760e01b815291925073b0C3b1392E32E0d55F127783256c2a1c83106B6B91637ebc232791611a2a916001600160a01b039091169085908e908e908e906004016159a9565b60206040518083038186803b158015611a4257600080fd5b505af4158015611a56573d6000803e3d6000fd5b505050506040513d601f19601f82011682018060405250810190611a7a919061546b565b611ac65760405162461bcd60e51b815260206004820152601b60248201527f43434275726e526f757465723a206e6f742066696e616c697a6564000000000060448201526064016105ac565b6000611ad6828b858f8a8a612e57565b9050611ae4818d8985613386565b505060018080559c9b505050505050505050505050565b6000546001600160a01b03163314611b255760405162461bcd60e51b81526004016105ac90615b77565b6107e18161340f565b6000546001600160a01b03163314611b585760405162461bcd60e51b81526004016105ac90615b77565b6001600160a01b038116611bbd5760405162461bcd60e51b815260206004820152602660248201527f4f776e61626c653a206e6577206f776e657220697320746865207a65726f206160448201526564647265737360d01b60648201526084016105ac565b6107e1816134a0565b600b6020528160005260406000208181548110611be257600080fd5b600091825260209091206007909102018054600182015460028301546003840180549396509194506001600160a01b03169291611c1e90615eb5565b80601f0160208091040260200160405190810160405280929190818152602001828054611c4a90615eb5565b8015611c975780601f10611c6c57610100808354040283529160200191611c97565b820191906000526020600020905b815481529060010190602001808311611c7a57829003601f168201915b505050600484015460058501546006909501549394909360ff8083169450610100909204909116915088565b600080611cd086866134f0565b6004805460405163aff2faa360e01b81526001600160a01b039091169163aff2faa391611d01918891889101615a29565b60206040518083038186803b158015611d1957600080fd5b505afa158015611d2d573d6000803e3d6000fd5b505050506040513d601f19601f82011682018060405250810190611d51919061546b565b611d6d5760405162461bcd60e51b81526004016105ac90615b40565b6004805460405163626885b560e11b81526001600160a01b039091169163c4d10b6a91611d9e918891889101615a29565b60206040518083038186803b158015611db657600080fd5b505afa158015611dca573d6000803e3d6000fd5b505050506040513d601f19601f82011682018060405250810190611dee9190615328565b90506000611dfb886135ed565b6005546004805460405163095ea7b360e01b81526001600160a01b03918216928101929092526024820184905292935091169063095ea7b390604401602060405180830381600087803b158015611e5157600080fd5b505af1158015611e65573d6000803e3d6000fd5b505050506040513d601f19601f82011682018060405250810190611e89919061546b565b5080600a5482611e999190615e4b565b600480546040516338463cff60e01b81526001600160a01b03909116916338463cff91611ecc918b918b91899101615a3d565b602060405180830381600087803b158015611ee657600080fd5b505af1158015611efa573d6000803e3d6000fd5b505050506040513d601f19601f82011682018060405250810190611f1e9190615545565b611f289190615e03565b611f329190615de3565b9250611fc788848989600360009054906101000a90046001600160a01b03166001600160a01b0316632f796d906040518163ffffffff1660e01b815260040160206040518083038186803b158015611f8957600080fd5b505afa158015611f9d573d6000803e3d6000fd5b505050506040513d601f19601f82011682018060405250810190611fc19190615545565b87613714565b509550959350505050565b8061271010156120245760405162461bcd60e51b815260206004820152601c60248201527f43434275726e526f757465723a20696e76616c6964207265776172640000000060448201526064016105ac565b60095460408051918252602082018390527faa50b3683e42a13535a5b9c2c32780cccf956fb546b523a3542ac4ad8b544f67910160405180910390a1600955565b60035460408051630a072bc560e41b815290516000926001600160a01b03169163a072bc50916004808301926020929190829003018186803b1580156120aa57600080fd5b505afa1580156120be573d6000803e3d6000fd5b505050506040513d601f19601f820116820180604052508101906120e29190615545565b90506120f66000546001600160a01b031690565b6001600160a01b0316336001600160a01b03161480612116575080600754105b6121625760405162461bcd60e51b815260206004820152601760248201527f43434275726e526f757465723a206e6f207065726d697400000000000000000060448201526064016105ac565b8082116121b15760405162461bcd60e51b815260206004820152601a60248201527f43434275726e526f757465723a206c6f7720646561646c696e6500000000000060448201526064016105ac565b60075460408051918252602082018490527f92c10a242ca42973030420e2ee32b3ba7818cc643f896958f620c606cf300416910160405180910390a150600755565b8061271010156122455760405162461bcd60e51b815260206004820152601960248201527f43434275726e526f757465723a20696e76616c6964206665650000000000000060448201526064016105ac565b60085460408051918252602082018390527f7d205f60891f60851c61cd244ba387d72b6589e7c0ac41b9d909ab0ce2c2a53b910160405180910390a1600855565b806001600160a01b0381166122ad5760405162461bcd60e51b81526004016105ac90615ad2565b600554604080516001600160a01b03928316815291841660208301527f36a4c08a38b736dcecb6c328dba61238529620e83ccb23db2cc43cd34ec26096910160405180910390a150600580546001600160a01b0319166001600160a01b0392909216919091179055565b6005546000906001600160a01b03168484612333600182615e4b565b81811061235057634e487b7160e01b600052603260045260246000fd5b9050602002016020810190612365919061530c565b6001600160a01b0316146123bb5760405162461bcd60e51b815260206004820152601a60248201527f43434275726e526f757465723a20696e76616c6964207061746800000000000060448201526064016105ac565b6002861461240b5760405162461bcd60e51b815260206004820152601b60248201527f43434275726e526f757465723a2077726f6e6720616d6f756e7473000000000060448201526064016105ac565b8383600081811061242c57634e487b7160e01b600052603260045260246000fd5b9050602002016020810190612441919061530c565b6001600160a01b03166323b872dd33308a8a600081811061247257634e487b7160e01b600052603260045260246000fd5b6040516001600160e01b031960e088901b1681526001600160a01b03958616600482015294909316602485015250602090910201356044820152606401602060405180830381600087803b1580156124c957600080fd5b505af11580156124dd573d6000803e3d6000fd5b505050506040513d601f19601f82011682018060405250810190612501919061546b565b508383600081811061252357634e487b7160e01b600052603260045260246000fd5b9050602002016020810190612538919061530c565b6001600160a01b031663095ea7b3898989600081811061256857634e487b7160e01b600052603260045260246000fd5b6040516001600160e01b031960e087901b1681526001600160a01b0390941660048501526020029190910135602483015250604401602060405180830381600087803b1580156125b757600080fd5b505af11580156125cb573d6000803e3d6000fd5b505050506040513d601f19601f820116820180604052508101906125ef919061546b565b50600080896001600160a01b031663b0bbcd888a8a600081811061262357634e487b7160e01b600052603260045260246000fd5b905060200201358b8b600181811061264b57634e487b7160e01b600052603260045260246000fd5b905060200201358989308a8e6040518863ffffffff1660e01b81526004016126799796959493929190615c87565b600060405180830381600087803b15801561269357600080fd5b505af11580156126a7573d6000803e3d6000fd5b505050506040513d6000823e601f3d908101601f191682016040526126cf9190810190615487565b91509150816127205760405162461bcd60e51b815260206004820152601d60248201527f43434275726e526f757465723a2065786368616e6765206661696c656400000060448201526064016105ac565b806001825161272f9190615e4b565b8151811061274d57634e487b7160e01b600052603260045260246000fd5b602002602001015192505050979650505050505050565b60008060006127768888888888611cc3565b6001600160a01b0381166000908152600b602052604090208054929450909250906127a390600190615e4b565b815481106127c157634e487b7160e01b600052603260045260246000fd5b9060005260206000209060070201600401546127da3390565b6001600160a01b03167fc19dabf19fdfd8c6124bed2178a4564d0c5d5812bfb916777cc90d1b53ed5a5a89898e8e8e8989600b60008c6001600160a01b03166001600160a01b031681526020019081526020016000206001600b60008e6001600160a01b03166001600160a01b03168152602001908152602001600020805490506128659190615e4b565b8154811061288357634e487b7160e01b600052603260045260246000fd5b9060005260206000209060070201600601546040516128a9989796959493929190615a74565b60405180910390a35098975050505050505050565b806001600160a01b0381166128e55760405162461bcd60e51b81526004016105ac90615ad2565b600454604080516001600160a01b03928316815291841660208301527ffa021c2ec0f46429a53e7f88b88065e40001f50c9d38b2e8b713beaf9828d4c3910160405180910390a150600480546001600160a01b0319166001600160a01b0392909216919091179055565b60008060028686868660405160200161296b949392919061593a565b60408051601f19818403018152908290526129859161598d565b602060405180830381855afa1580156129a2573d6000803e3d6000fd5b5050506040513d601f19601f820116820180604052508101906129c59190615545565b905060006002826040516020016129de91815260200190565b60408051601f19818403018152908290526129f89161598d565b602060405180830381855afa158015612a15573d6000803e3d6000fd5b5050506040513d601f19601f82011682018060405250810190612a389190615545565b925050505b949350505050565b60008080612a5b612a5686836138dc565b613900565b905062ffffff198082161415612ab35760405162461bcd60e51b815260206004820152601a60248201527f426974636f696e48656c7065723a2076696e206973206e756c6c00000000000060448201526064016105ac565b6000612abf8286613a36565b90506000612acc82613b54565b9050612ad781613b78565b9450612ae281613b9a565b63ffffffff1693505050509250929050565b60606000612b0c612b07825b86906138dc565b613bc4565b905062ffffff198082161415612b345760405162461bcd60e51b81526004016105ac90615b09565b6000612b408285613cb5565b90506000612b4d82613daf565b9050612b5e62ffffff198216613e00565b9695505050505050565b6000612b7385613e50565b6004805460405163626885b560e11b81526001600160401b039390931693506000926001600160a01b039091169163c4d10b6a91612bb391899101615a61565b60206040518083038186803b158015612bcb57600080fd5b505afa158015612bdf573d6000803e3d6000fd5b505050506040513d601f19601f82011682018060405250810190612c039190615328565b6004546009549192506001600160a01b03169063b734de2690839061271090612c2c9087615e03565b612c369190615de3565b3360405160e085901b6001600160e01b03191681526001600160a01b0393841660048201526024810192909252909116604482015260648101859052608401602060405180830381600087803b158015612c8f57600080fd5b505af1158015612ca3573d6000803e3d6000fd5b505050506040513d601f19601f82011682018060405250810190612cc7919061546b565b507f7ff138134e34ccab071315c38e38eec079f54726b890304ab46e2c5ab6f722bb8186858761271060095488612cfe9190615e03565b612d089190615de3565b612d129088615d59565b604051612d239594939291906159e8565b60405180910390a1505050505050565b806001600160a01b038116612d5a5760405162461bcd60e51b81526004016105ac90615ad2565b600354604080516001600160a01b03928316815291841660208301527f4c28a3f61a715259c4dc930c23e7423b8fa52e13232c061a6e488729c66184f4910160405180910390a150600380546001600160a01b0319166001600160a01b0392909216919091179055565b600a5460408051918252602082018390527f47c5f9c13c35ebb166f6a8d8c56af73f8b323ac0fee7aec4a5e0490bbf67a4fe910160405180910390a1806127101015612e525760405162461bcd60e51b815260206004820152601d60248201527f43434275726e526f757465723a20696e76616c6964206274632066656500000060448201526064016105ac565b600a55565b60008080805b85518110156133795780612e9a57848181518110612e8b57634e487b7160e01b600052603260045260246000fd5b60200260200101519150612f47565b81858281518110612ebb57634e487b7160e01b600052603260045260246000fd5b602002602001015111612f1c5760405162461bcd60e51b8152602060048201526024808201527f43434275726e526f757465723a20756e2d736f7274656420766f757420696e646044820152636578657360e01b60648201526084016105ac565b848181518110612f3c57634e487b7160e01b600052603260045260246000fd5b602002602001015191505b6000868281518110612f6957634e487b7160e01b600052603260045260246000fd5b60200260200101519050600b60008a6001600160a01b03166001600160a01b031681526020019081526020016000208181548110612fb757634e487b7160e01b600052603260045260246000fd5b600091825260209091206005600790920201015460ff1615801561302657506001600160a01b0389166000908152600b6020526040902080548b91908390811061301157634e487b7160e01b600052603260045260246000fd5b90600052602060002090600702016004015410155b15613366576131d18887848151811061304f57634e487b7160e01b600052603260045260246000fd5b6020026020010151600b60008d6001600160a01b03166001600160a01b03168152602001908152602001600020848154811061309b57634e487b7160e01b600052603260045260246000fd5b906000526020600020906007020160030180546130b790615eb5565b80601f01602080910402602001604051908101604052809291908181526020018280546130e390615eb5565b80156131305780601f1061310557610100808354040283529160200191613130565b820191906000526020600020905b81548152906001019060200180831161311357829003601f168201915b5050506001600160a01b038f166000908152600b602052604090208054909250879150811061316f57634e487b7160e01b600052603260045260246000fd5b906000526020600020906007020160050160019054906101000a900460ff1660048111156131ad57634e487b7160e01b600052602160045260246000fd5b60048111156131cc57634e487b7160e01b600052602160045260246000fd5b613eea565b6001600160401b0316935083600b60008b6001600160a01b03166001600160a01b03168152602001908152602001600020828154811061322157634e487b7160e01b600052603260045260246000fd5b9060005260206000209060070201600101541415613366576001600160a01b0389166000908152600b602052604090208054600191908390811061327557634e487b7160e01b600052603260045260246000fd5b60009182526020909120600790910201600501805460ff19169115159190911790556132a2856001615d59565b6001600160a01b038a166000818152600b60205260409020805492975090917f1b46655c2f394f2191cb246d5982dbe00ad671f0b590e75e97c90ee97f1f782a91908490811061330257634e487b7160e01b600052603260045260246000fd5b9060005260206000209060070201600601548d89868151811061333557634e487b7160e01b600052603260045260246000fd5b602002602001015160405161335d939291909283526020830191909152604082015260600190565b60405180910390a25b508061337181615eea565b915050612e5d565b5050509695505050505050565b60006133928484614125565b6001600160401b0316905060006133a885614228565b905081158015906133c25750806133c0876001615d59565b145b156133e5576000838152600d60205260409020805460ff19166001179055613407565b80861415613407576000838152600d60205260409020805460ff191660011790555b505050505050565b806001600160a01b0381166134365760405162461bcd60e51b81526004016105ac90615ad2565b600654604080516001600160a01b03928316815291841660208301527f567657fa3f286518b318f4a29870674f433f622fdfc819691acb13105b228225910160405180910390a150600680546001600160a01b0319166001600160a01b0392909216919091179055565b600080546001600160a01b038381166001600160a01b0319831681178455604051919092169283917f8be0079c531659141344cd1fd0a4f28419497f9722a3daafe3b4186f6b6457e09190a35050565b600081600481111561351257634e487b7160e01b600052602160045260246000fd5b148061353d5750600481600481111561353b57634e487b7160e01b600052602160045260246000fd5b145b156135985781516020146135935760405162461bcd60e51b815260206004820152601c60248201527f43434275726e526f757465723a20696e76616c6964207363726970740000000060448201526064016105ac565b6135e9565b81516014146135e95760405162461bcd60e51b815260206004820152601c60248201527f43434275726e526f757465723a20696e76616c6964207363726970740000000060448201526064016105ac565b5050565b600080612710600854846136019190615e03565b61360b9190615de3565b9050600a54600261361c9190615e03565b6136269082615d59565b83116136745760405162461bcd60e51b815260206004820152601860248201527f43434275726e526f757465723a206c6f7720616d6f756e74000000000000000060448201526064016105ac565b60006136808285615e4b565b60055460065460405163a9059cbb60e01b81526001600160a01b03918216600482015260248101869052929350169063a9059cbb90604401602060405180830381600087803b1580156136d257600080fd5b505af11580156136e6573d6000803e3d6000fd5b505050506040513d601f19601f8201168201806040525081019061370a919061546b565b509150505b919050565b604080516101008101825260006080820181905260a0820181905260c0820181815260e0830191909152888252602082018890523392820192909252606081018690529084600481111561377857634e487b7160e01b600052602160045260246000fd5b9081600481111561379957634e487b7160e01b600052602160045260246000fd5b9052506007546137a99084615d59565b6080820152600060a082018190526001600160a01b038316808252600c6020818152604084205460e08601819052929093529091526137e9906001615d59565b6001600160a01b038381166000908152600c6020908152604080832094909455600b81528382208054600180820183559184529282902086516007909402019283558582015190830155928401516002820180546001600160a01b0319169190931617909155606083015180518493613869926003850192910190615081565b50608082015160048281019190915560a083015160058301805460ff19169115159190911780825560c08501519261ff0019909116906101009084908111156138c257634e487b7160e01b600052602160045260246000fd5b021790555060e08201518160060155505050505050505050565b8151600090602084016138f764ffffffffff85168284614254565b95945050505050565b60008181613916815b62ffffff1984169061429b565b50601884901c6001600160601b03166139365762ffffff195b9250613a2f565b6000613943856000614375565b9050601885901c6001600160601b03166001600160401b0382166139705762ffffff195b94505050613a2f565b600061397b836144bc565b60ff16905060005b836001600160401b03168110156139f7578282106139ac5762ffffff195b965050505050613a2f565b60006139cc6139bb8486615e4b565b60055b62ffffff198c169190614515565b90506139d781614549565b6139e19084615d59565b92505080806139ef90615eea565b915050613983565b50818114613a0f5762ffffff195b9550505050613a2f565b613a2960065b60d81b6301000000600160d81b0389161790565b95505050505b5050919050565b6000826006613a4481613909565b506000613a52866000614375565b6001600160401b03169050601886901c6001600160601b0316818610613aad5760405162461bcd60e51b815260206004820152601060248201526f2b34b7103932b0b21037bb32b9393ab760811b60448201526064016105ac565b6000613ab8836144bc565b60ff1690506000805b88811015613b1057613ae7613ad68486615e4b565b60055b62ffffff198d169190614515565b9150613af282614549565b613afc9084615d59565b9250613b09600182615d59565b9050613ac1565b50613b1e6139bb8385615e4b565b90506000613b2b82614549565b9050613b44838260045b62ffffff198e1692919061459d565b975050505050505b505092915050565b6000816004613b6281613909565b50612a3d62ffffff19851660006024600361459d565b6000816003613b8681613909565b50612a3d62ffffff1985166000602061460d565b6000816003613ba881613909565b50612a3d613bbf62ffffff19861660206004614766565b6148b0565b60008181613bd181613909565b50601884901c6001600160601b0316613bee5762ffffff1961392f565b6000613bfb856000614375565b9050601885901c6001600160601b03166001600160401b038216613c235762ffffff19613967565b6000613c2e836144bc565b60ff16905060005b836001600160401b0316811015613c9957828210613c585762ffffff196139a1565b6000613c6e613c678486615e4b565b600e6139be565b9050613c7981614919565b613c839084615d59565b9250508080613c9190615eea565b915050613c36565b50818114613cab5762ffffff19613a05565b613a29600f613a15565b600082600f613cc381613909565b506000613cd1866000614375565b6001600160401b03169050601886901c6001600160601b0316818610613d2d5760405162461bcd60e51b81526020600482015260116024820152702b37baba103932b0b21037bb32b9393ab760791b60448201526064016105ac565b6000613d38836144bc565b60ff1690506000805b88811015613d8657613d5d613d568486615e4b565b600e613ad9565b9150613d6882614919565b613d729084615d59565b9250613d7f600182615d59565b9050613d41565b50613d94613c678385615e4b565b90506000613da182614919565b9050613b448382600d613b35565b600081600d613dbd81613909565b506000613dcb856008614375565b90506138f7613dd9826144bc565b613de4906008615d9c565b62ffffff1987169060ff166001600160401b038416600761459d565b6060600080613e188460181c6001600160601b031690565b60405193508392506001600160601b03169050613e3f84613e3a846020615d59565b614962565b508181016020016040529052919050565b600080613e62612b07825b85906138dc565b905062ffffff198082161415613e8a5760405162461bcd60e51b81526004016105ac90615b09565b600080613e98836000614375565b6001600160401b0316905060005b81811015613ee157613eb88482613cb5565b9250613ec383614aba565b613ecd9086615d71565b945080613ed981615eea565b915050613ea6565b50505050919050565b600080613efa612b0787836138dc565b905062ffffff198082161415613f225760405162461bcd60e51b81526004016105ac90615b09565b6000613f2e8287613cb5565b90506000613f3b82613daf565b90506000856004811115613f5f57634e487b7160e01b600052602160045260246000fd5b1415613fc457613f7862ffffff1982166001602061460d565b604051602001613f8a91815260200190565b60405160208183030381529060405280519060200120868051906020012014613fb4576000613fbd565b613fbd82614aba565b935061411a565b6001856004811115613fe657634e487b7160e01b600052602160045260246000fd5b141561402557613ffd62ffffff1982166003614adf565b604051602001613f8a919060609190911b6bffffffffffffffffffffffff1916815260140190565b600285600481111561404757634e487b7160e01b600052602160045260246000fd5b141561405e57613ffd62ffffff1982166002614adf565b600385600481111561408057634e487b7160e01b600052602160045260246000fd5b141561409757613ffd62ffffff1982166002614adf565b60048560048111156140b957634e487b7160e01b600052602160045260246000fd5b141561411a576140d262ffffff1982166002602061460d565b6040516020016140e491815260200190565b6040516020818303038152906040528051906020012086805190602001201461410e576000614117565b61411782614aba565b93505b505050949350505050565b600080614134612b0782612b00565b905062ffffff19808216141561415c5760405162461bcd60e51b81526004016105ac90615b09565b600080600061416c846000614375565b6001600160401b0316905060005b8181101561421d5761418c8582613cb5565b935061419784613daf565b9250866040516020016141aa919061598d565b604051602081830303815290604052805190602001206141cf8462ffffff1916613e00565b6040516020016141df919061598d565b60405160208183030381529060405280519060200120141561420b5761420484614aba565b955061421d565b8061421581615eea565b91505061417a565b505050505092915050565b600080614237612b0782613e5b565b9050614244816000614375565b6001600160401b03169392505050565b6000806142618385615d59565b9050604051811115614271575060005b806142835762ffffff19915050614294565b5050606083811b8317901b811760181b5b9392505050565b60006142a78383614aed565b61436e5760006142c66142ba8560d81c90565b64ffffffffff16614b10565b91505060006142db8464ffffffffff16614b10565b6040517f5479706520617373657274696f6e206661696c65642e20476f7420307800000060208201526001600160b01b031960b086811b8216603d8401526c05c408af0e0cac6e8cac84060f609b1b604784015283901b16605482015290925060009150605e015b60405160208183030381529060405290508060405162461bcd60e51b81526004016105ac9190615a61565b5090919050565b60008061438a62ffffff198516846001614bbc565b905060fc81116143a55761439d81614bec565b91505061101b565b8060fd141561440b576143d36143ce6143bf856001615d59565b62ffffff198716906002614766565b614bec565b91506143de826144bc565b60ff16600314614406576144046143ff62ffffff198616856003600061459d565b614c54565b505b6144b5565b8060fe1415614460576144346143ce614425856001615d59565b62ffffff198716906004614766565b915061443f826144bc565b60ff16600514614406576144046143ff62ffffff198616856005600061459d565b8060ff14156144b5576144896143ce61447a856001615d59565b62ffffff198716906008614766565b9150614494826144bc565b60ff166009146144b557613b4c6143ff62ffffff198616856009600061459d565b5092915050565b600060fc826001600160401b0316116144d75750600161370f565b61ffff826001600160401b0316116144f15750600361370f565b63ffffffff826001600160401b03161161450d5750600561370f565b50600961370f565b6000612a3d848461452f8760181c6001600160601b031690565b6001600160601b03166145429190615e4b565b858561459d565b600081600561455781613909565b506000614565856024614375565b9050806001600160401b031661457a826144bc565b60ff166145879190615d59565b614592906024615d59565b6138f7906004615d59565b6000806145b38660781c6001600160601b031690565b6001600160601b031690506145c786614cdb565b846145d28784615d59565b6145dc9190615d59565b11156145ef5762ffffff19915050612a3d565b6145f98582615d59565b9050612b5e8364ffffffffff168286614254565b600060ff821661461f57506000614294565b6146328460181c6001600160601b031690565b6001600160601b031661464860ff841685615d59565b11156146ac576146936146648560781c6001600160601b031690565b6001600160601b03166146808660181c6001600160601b031690565b6001600160601b0316858560ff16614d1c565b60405162461bcd60e51b81526004016105ac9190615a61565b60208260ff1611156147265760405162461bcd60e51b815260206004820152603a60248201527f54797065644d656d566965772f696e646578202d20417474656d70746564207460448201527f6f20696e646578206d6f7265207468616e20333220627974657300000000000060648201526084016105ac565b60088202600061473f8660781c6001600160601b031690565b6001600160601b031690506000600160ff1b60001984011d91909501511695945050505050565b6000612a3d61477685858561460d565b600881811c7eff00ff00ff00ff00ff00ff00ff00ff00ff00ff00ff00ff00ff00ff00ff00ff167fff00ff00ff00ff00ff00ff00ff00ff00ff00ff00ff00ff00ff00ff00ff00ff009290911b9190911617601081811c7dffff0000ffff0000ffff0000ffff0000ffff0000ffff0000ffff0000ffff167fffff0000ffff0000ffff0000ffff0000ffff0000ffff0000ffff0000ffff00009290911b9190911617602081811c7bffffffff00000000ffffffff00000000ffffffff00000000ffffffff167fffffffff00000000ffffffff00000000ffffffff00000000ffffffff000000009290911b9190911617604081811c77ffffffffffffffff0000000000000000ffffffffffffffff1677ffffffffffffffff0000000000000000ffffffffffffffff199290911b9190911617608081811c91901b1790565b600063ffffffff8211156149155760405162461bcd60e51b815260206004820152602660248201527f53616665436173743a2076616c756520646f65736e27742066697420696e203360448201526532206269747360d01b60648201526084016105ac565b5090565b600081600e61492781613909565b506000614935856008614375565b9050806001600160401b031661494a826144bc565b60ff166149579190615d59565b6138f7906008615d59565b600062ffffff1980841614156149cb5760405162461bcd60e51b815260206004820152602860248201527f54797065644d656d566965772f636f7079546f202d204e756c6c20706f696e7460448201526732b9103232b932b360c11b60648201526084016105ac565b6149d483614e46565b614a345760405162461bcd60e51b815260206004820152602b60248201527f54797065644d656d566965772f636f7079546f202d20496e76616c696420706f60448201526a34b73a32b9103232b932b360a91b60648201526084016105ac565b6000614a498460181c6001600160601b031690565b6001600160601b031690506000614a698560781c6001600160601b031690565b6001600160601b031690506000604051905084811115614a895760206060fd5b8285848460045afa50612b5e614a9f8760d81c90565b64ffffffffff60601b606091821b168717901b841760181b90565b600081600d614ac881613909565b50612a3d6143ce62ffffff19861660006008614766565b600061429483836014614bbc565b60008164ffffffffff16614b018460d81c90565b64ffffffffff16149392505050565b600080601f5b600f8160ff161115614b6e576000614b2f826008615e22565b60ff1685901c9050614b4081614e84565b61ffff16841793508160ff16601014614b5b57601084901b93505b50614b67600182615e62565b9050614b16565b50600f5b60ff8160ff161015614bb65760ff600882021684901c614b9181614e84565b61ffff16831792508160ff16600014614bac57601083901b92505b5060001901614b72565b50915091565b6000614bc9826020615e62565b614bd4906008615e22565b60ff16614be285858561460d565b901c949350505050565b60006001600160401b038211156149155760405162461bcd60e51b815260206004820152602660248201527f53616665436173743a2076616c756520646f65736e27742066697420696e203660448201526534206269747360d01b60648201526084016105ac565b60606000614c88614c8382614c75601887901c6001600160601b0316614eb4565b62ffffff1987169190614bbc565b614b10565b6040517f4e6f6e2d6d696e696d616c2076617220696e742e20476f74203078000000000060208201526dffffffffffffffffffffffffffff19607083901b16603b82015290925060009150604d01614343565b6000614cf08260181c6001600160601b031690565b614d038360781c6001600160601b031690565b614d0d9190615dc1565b6001600160601b031692915050565b60606000614d2986614b10565b9150506000614d3786614b10565b9150506000614d4586614b10565b9150506000614d5386614b10565b604080517f54797065644d656d566965772f696e646578202d204f76657272616e20746865602082015274040ecd2caee5c40a6d8d2c6ca40d2e640c2e84060f605b1b818301526001600160d01b031960d098891b811660558301526e040eed2e8d040d8cadccee8d04060f608b1b605b830181905297891b8116606a8301527f2e20417474656d7074656420746f20696e646578206174206f666673657420306070830152600f60fb1b609083015295881b861660918201526097810196909652951b90921660a68401525050601760f91b60ac8201528151808203608d01815260ad90910190915295945050505050565b6000614e528260d81c90565b64ffffffffff1664ffffffffff1415614e6d5750600061370f565b6000614e7883614cdb565b60405110199392505050565b6000614e9660048360ff16901c614f15565b60ff161760081b62ffff0016614eab82614f15565b60ff1617919050565b600060ff8211156149155760405162461bcd60e51b815260206004820152602560248201527f53616665436173743a2076616c756520646f65736e27742066697420696e2038604482015264206269747360d81b60648201526084016105ac565b600060f08083179060ff82161415614f3157603091505061370f565b8060ff1660f11415614f4757603191505061370f565b8060ff1660f21415614f5d57603291505061370f565b8060ff1660f31415614f7357603391505061370f565b8060ff1660f41415614f8957603491505061370f565b8060ff1660f51415614f9f57603591505061370f565b8060ff1660f61415614fb557603691505061370f565b8060ff1660f71415614fcb57603791505061370f565b8060ff1660f81415614fe157603891505061370f565b8060ff1660f91415614ff757603991505061370f565b8060ff1660fa141561500d57606191505061370f565b8060ff1660fb141561502357606291505061370f565b8060ff1660fc141561503957606391505061370f565b8060ff1660fd141561504f57606491505061370f565b8060ff1660fe141561506557606591505061370f565b8060ff1660ff141561507b57606691505061370f565b50919050565b82805461508d90615eb5565b90600052602060002090601f0160209004810192826150af57600085556150f5565b82601f106150c857805160ff19168380011785556150f5565b828001600101855582156150f5579182015b828111156150f55782518255916020019190600101906150da565b506149159291505b8082111561491557600081556001016150fd565b803561370f81615f31565b60008083601f84011261512d578182fd5b5081356001600160401b03811115615143578182fd5b602083019150836020808302850101111561515d57600080fd5b9250929050565b600082601f830112615174578081fd5b8135602061518961518483615d36565b615d06565b82815281810190858301838502870184018810156151a5578586fd5b855b858110156151ca576151b88261523c565b845292840192908401906001016151a7565b5090979650505050505050565b600082601f8301126151e7578081fd5b813560206151f761518483615d36565b8281528181019085830183850287018401881015615213578586fd5b855b858110156151ca57813584529284019290840190600101615215565b803561370f81615f46565b80356001600160e01b03198116811461370f57600080fd5b60008083601f840112615265578182fd5b5081356001600160401b0381111561527b578182fd5b60208301915083602082850101111561515d57600080fd5b600082601f8301126152a3578081fd5b81356001600160401b038111156152bc576152bc615f1b565b6152cf601f8201601f1916602001615d06565b8181528460208386010111156152e3578283fd5b816020850160208301379081016020019190915292915050565b80356005811061370f57600080fd5b60006020828403121561531d578081fd5b813561429481615f31565b600060208284031215615339578081fd5b815161429481615f31565b60008060008060008060008060008060006101008c8e031215615365578687fd5b61536e8c615111565b9a506001600160401b038060208e01351115615388578788fd5b6153988e60208f01358f0161511c565b909b5099506153a960408e01615231565b98508060608e013511156153bb578788fd5b6153cb8e60608f01358f0161511c565b909850965060808d0135955060a08d01358110156153e7578485fd5b6153f78e60a08f01358f01615293565b945061540560c08e016152fd565b93508060e08e01351115615417578283fd5b506154288d60e08e01358e01615254565b81935080925050509295989b509295989b9093969950565b60008060408385031215615452578182fd5b823561545d81615f31565b946020939093013593505050565b60006020828403121561547c578081fd5b815161429481615f46565b60008060408385031215615499578182fd5b82516154a481615f46565b809250506020808401516001600160401b038111156154c1578283fd5b8401601f810186136154d1578283fd5b80516154df61518482615d36565b81815283810190838501858402850186018a10156154fb578687fd5b8694505b8385101561551d5780518352600194909401939185019185016154ff565b5080955050505050509250929050565b60006020828403121561553e578081fd5b5035919050565b600060208284031215615556578081fd5b5051919050565b6000806000806000806000806000806101408b8d03121561557c578384fd5b6155858b61523c565b995060208b01356001600160401b03808211156155a0578586fd5b6155ac8e838f01615293565b9a5060408d01359150808211156155c1578586fd5b6155cd8e838f01615293565b99506155db60608e0161523c565b985060808d0135975060a08d01359150808211156155f7578586fd5b6156038e838f01615293565b965060c08d0135955060e08d013591508082111561561f578485fd5b61562b8e838f01615293565b94506101008d0135915080821115615641578384fd5b61564d8e838f016151d7565b93506101208d0135915080821115615663578283fd5b506156708d828e016151d7565b9150509295989b9194979a5092959850565b600080600060408486031215615696578081fd5b83356001600160401b03808211156156ac578283fd5b6156b887838801615254565b909550935060208601359150808211156156d0578283fd5b506156dd868287016151d7565b9150509250925092565b60008060008060008060008060006101208a8c031215615705578283fd5b89356001600160401b038082111561571b578485fd5b6157278d838e01615293565b9a5060208c013591508082111561573c578485fd5b6157488d838e01615164565b995060408c013591508082111561575d578485fd5b6157698d838e01615293565b985060608c013591508082111561577e578485fd5b61578a8d838e01615293565b975060808c013591508082111561579f578485fd5b6157ab8d838e01615293565b965060a08c01359150808211156157c0578485fd5b6157cc8d838e01615293565b955060c08c01359150808211156157e1578485fd5b6157ed8d838e01615164565b945060e08c0135915080821115615802578384fd5b61580e8d838e01615293565b93506101008c0135915080821115615824578283fd5b506158318c828d016151d7565b9150509295985092959850929598565b600080600080600060808688031215615858578283fd5b8535945060208601356001600160401b0380821115615875578485fd5b61588189838a01615293565b955061588f604089016152fd565b945060608801359150808211156158a4578283fd5b506158b188828901615254565b969995985093965092949392505050565b60008284528282602086013780602084860101526020601f19601f85011685010190509392505050565b60008151808452615904816020860160208601615e85565b601f01601f19169290920160200192915050565b6005811061593657634e487b7160e01b600052602160045260246000fd5b9052565b600063ffffffff60e01b8087168352855161595c816004860160208a01615e85565b855190840190615973816004840160208a01615e85565b919094169301600481019390935250506008019392505050565b6000825161599f818460208701615e85565b9190910192915050565b600060018060a01b038716825285602083015284604083015260a060608301526159d660a08301856158ec565b90508260808301529695505050505050565b6001600160a01b038616815260a060208201819052600090615a0c908301876158ec565b604083019590955250606081019290925260809091015292915050565b600060208252612a3d6020830184866158c2565b600060408252615a516040830185876158c2565b9050826020830152949350505050565b60006020825261429460208301846158ec565b6000610100808352615a888184018c6158ec565b915050615a98602083018a615918565b60408201979097526001600160a01b039586166060820152608081019490945260a084019290925290921660c082015260e0015292915050565b6020808252601a908201527f43434275726e526f757465723a207a65726f2061646472657373000000000000604082015260600190565b6020808252601b908201527f426974636f696e48656c7065723a20766f7574206973206e756c6c0000000000604082015260600190565b60208082526018908201527f43434275726e526f757465723a206e6f74206c6f636b65720000000000000000604082015260600190565b6020808252818101527f4f776e61626c653a2063616c6c6572206973206e6f7420746865206f776e6572604082015260600190565b60208082526021908201527f43434275726e526f757465723a20646561646c696e65206e6f742070617373656040820152601960fa1b606082015260800190565b6020808252601f908201527f5265656e7472616e637947756172643a207265656e7472616e742063616c6c00604082015260600190565b888152602081018890526001600160a01b038716604082015261010060608201819052600090615c56838201896158ec565b91505085608083015284151560a0830152615c7460c0830185615918565b8260e08301529998505050505050505050565b878152602080820188905260c0604083018190528201869052600090879060e08401835b89811015615cd9578335615cbe81615f31565b6001600160a01b031682529282019290820190600101615cab565b506001600160a01b039790971660608501525050506080810192909252151560a090910152949350505050565b604051601f8201601f191681016001600160401b0381118282101715615d2e57615d2e615f1b565b604052919050565b60006001600160401b03821115615d4f57615d4f615f1b565b5060209081020190565b60008219821115615d6c57615d6c615f05565b500190565b60006001600160401b03808316818516808303821115615d9357615d93615f05565b01949350505050565b600060ff821660ff84168060ff03821115615db957615db9615f05565b019392505050565b60006001600160601b03808316818516808303821115615d9357615d93615f05565b600082615dfe57634e487b7160e01b81526012600452602481fd5b500490565b6000816000190483118215151615615e1d57615e1d615f05565b500290565b600060ff821660ff84168160ff0481118215151615615e4357615e43615f05565b029392505050565b600082821015615e5d57615e5d615f05565b500390565b600060ff821660ff841680821015615e7c57615e7c615f05565b90039392505050565b60005b83811015615ea0578181015183820152602001615e88565b83811115615eaf576000848401525b50505050565b600281046001821680615ec957607f821691505b6020821081141561507b57634e487b7160e01b600052602260045260246000fd5b6000600019821415615efe57615efe615f05565b5060010190565b634e487b7160e01b600052601160045260246000fd5b634e487b7160e01b600052604160045260246000fd5b6001600160a01b03811681146107e157600080fd5b80151581146107e157600080fdfea2646970667358221220e99155d70f4bcf92cebe3445a215a71e9154950ac3beda95ef3cf383fd2e8ffd64736f6c6343000802003343434275726e526f757465723a207a65726f2061646472657373000000000000",
  "deployedBytecode": "0x6080604052600436106101c65760003560e01c80638d3d78cd116100f7578063bed6a60211610095578063ea73263711610064578063ea73263714610500578063f0f4426014610513578063f2fde38b14610533578063f47e224014610553576101cd565b8063bed6a60214610497578063c780c03f146104ad578063c805f68b146104c0578063cdbe3741146104e0576101cd565b8063930a60e8116100d1578063930a60e814610414578063b14d353214610441578063b59589d114610461578063b74d0d3514610481576101cd565b80638d3d78cd146103b65780638d774f8e146103d65780638da5cb5b146103f6576101cd565b806361d027b31161016457806373532b2a1161013e57806373532b2a146103365780637ed55748146103565780637f0f1817146103765780637ffe9a9214610396576101cd565b806361d027b3146102eb57806370872aa51461030b578063715018a614610321576101cd565b8063419cba7f116101a0578063419cba7f1461027357806343149dba146102895780634782bc36146102a95780635c4f5f3e146102cb576101cd565b80631812adb6146101d25780631876dec4146101fb5780631e23616814610233576101cd565b366101cd57005b600080fd5b3480156101de57600080fd5b506101e860085481565b6040519081526020015b60405180910390f35b34801561020757600080fd5b5060045461021b906001600160a01b031681565b6040516001600160a01b0390911681526020016101f2565b34801561023f57600080fd5b5061026361024e36600461552d565b600d6020526000908152604090205460ff1681565b60405190151581526020016101f2565b34801561027f57600080fd5b506101e860095481565b34801561029557600080fd5b506101e86102a4366004615841565b610587565b3480156102b557600080fd5b506102c96102c436600461552d565b6107ae565b005b3480156102d757600080fd5b506102c96102e636600461552d565b6107e4565b3480156102f757600080fd5b5060065461021b906001600160a01b031681565b34801561031757600080fd5b506101e860025481565b34801561032d57600080fd5b506102c96107ed565b34801561034257600080fd5b506102c9610351366004615682565b610819565b34801561036257600080fd5b506102c961037136600461552d565b610f63565b34801561038257600080fd5b506102c961039136600461530c565b610f96565b3480156103a257600080fd5b506102636103b1366004615440565b610fc9565b3480156103c257600080fd5b5060055461021b906001600160a01b031681565b3480156103e257600080fd5b506101e86103f1366004615344565b611021565b34801561040257600080fd5b506000546001600160a01b031661021b565b34801561042057600080fd5b506101e861042f36600461530c565b600c6020526000908152604090205481565b34801561044d57600080fd5b506102c961045c36600461530c565b6110de565b34801561046d57600080fd5b5060035461021b906001600160a01b031681565b34801561048d57600080fd5b506101e8600a5481565b3480156104a357600080fd5b506101e860075481565b6102c96104bb3660046156e7565b611111565b3480156104cc57600080fd5b506102c96104db36600461530c565b611727565b3480156104ec57600080fd5b506102c96104fb36600461552d565b61175a565b61026361050e36600461555d565b61178d565b34801561051f57600080fd5b506102c961052e36600461530c565b611afb565b34801561053f57600080fd5b506102c961054e36600461530c565b611b2e565b34801561055f57600080fd5b5061057361056e366004615440565b611bc6565b6040516101f2989796959493929190615c24565b6000600260015414156105b55760405162461bcd60e51b81526004016105ac90615bed565b60405180910390fd5b60026001556005546001600160a01b03166323b872dd336040516001600160e01b031960e084901b1681526001600160a01b03909116600482015230602482015260448101899052606401602060405180830381600087803b15801561061a57600080fd5b505af115801561062e573d6000803e3d6000fd5b505050506040513d601f19601f82011682018060405250810190610652919061546b565b506000806106638888888888611cc3565b6001600160a01b0381166000908152600b6020526040902080549294509092509061069090600190615e4b565b815481106106ae57634e487b7160e01b600052603260045260246000fd5b9060005260206000209060070201600401546106c73390565b6001600160a01b03167fc19dabf19fdfd8c6124bed2178a4564d0c5d5812bfb916777cc90d1b53ed5a5a89896000808e8989600b60008c6001600160a01b03166001600160a01b031681526020019081526020016000206001600b60008e6001600160a01b03166001600160a01b03168152602001908152602001600020805490506107539190615e4b565b8154811061077157634e487b7160e01b600052603260045260246000fd5b906000526020600020906007020160060154604051610797989796959493929190615a74565b60405180910390a350600180559695505050505050565b6000546001600160a01b031633146107d85760405162461bcd60e51b81526004016105ac90615b77565b6107e181611fd2565b50565b6107e181612065565b6000546001600160a01b031633146108175760405162461bcd60e51b81526004016105ac90615b77565b565b6002600154141561083c5760405162461bcd60e51b81526004016105ac90615bed565b60026001556004805460405163aff2faa360e01b81526001600160a01b039091169163aff2faa391610872918791879101615a29565b60206040518083038186803b15801561088a57600080fd5b505afa15801561089e573d6000803e3d6000fd5b505050506040513d601f19601f820116820180604052508101906108c2919061546b565b6108de5760405162461bcd60e51b81526004016105ac90615b40565b6004805460405163626885b560e11b81526000926001600160a01b039092169163c4d10b6a91610912918891889101615a29565b60206040518083038186803b15801561092a57600080fd5b505afa15801561093e573d6000803e3d6000fd5b505050506040513d601f19601f820116820180604052508101906109629190615328565b90506000600360009054906101000a90046001600160a01b03166001600160a01b0316632f796d906040518163ffffffff1660e01b815260040160206040518083038186803b1580156109b457600080fd5b505afa1580156109c8573d6000803e3d6000fd5b505050506040513d601f19601f820116820180604052508101906109ec9190615545565b905060005b8351811015610f57576001600160a01b0383166000908152600b602052604090208451859083908110610a3457634e487b7160e01b600052603260045260246000fd5b602002602001015181548110610a5a57634e487b7160e01b600052603260045260246000fd5b600091825260209091206005600790920201015460ff1615610abe5760405162461bcd60e51b815260206004820152601a60248201527f43434275726e526f757465723a20616c7265616479207061696400000000000060448201526064016105ac565b6001600160a01b0383166000908152600b602052604090208451839190869084908110610afb57634e487b7160e01b600052603260045260246000fd5b602002602001015181548110610b2157634e487b7160e01b600052603260045260246000fd5b90600052602060002090600702016004015410610b505760405162461bcd60e51b81526004016105ac90615bac565b6001600160a01b0383166000908152600b60205260409020845160019190869084908110610b8e57634e487b7160e01b600052603260045260246000fd5b602002602001015181548110610bb457634e487b7160e01b600052603260045260246000fd5b60009182526020808320600792909202909101600501805460ff1916931515939093179092556004546009546001600160a01b038781168452600b909452604090922087519390911692631697565b928792612710928a9088908110610c2a57634e487b7160e01b600052603260045260246000fd5b602002602001015181548110610c5057634e487b7160e01b600052603260045260246000fd5b906000526020600020906007020160000154610c6c9190615e03565b610c769190615de3565b336001600160a01b0388166000908152600b6020526040902089518a9088908110610cb157634e487b7160e01b600052603260045260246000fd5b602002602001015181548110610cd757634e487b7160e01b600052603260045260246000fd5b906000526020600020906007020160000154600b60008a6001600160a01b03166001600160a01b031681526020019081526020016000208a8881518110610d2e57634e487b7160e01b600052603260045260246000fd5b602002602001015181548110610d5457634e487b7160e01b600052603260045260246000fd5b600091825260209091206007909102016002015460405160e087901b6001600160e01b03191681526001600160a01b03958616600482015260248101949094529184166044840152606483015291909116608482015260a401602060405180830381600087803b158015610dc757600080fd5b505af1158015610ddb573d6000803e3d6000fd5b505050506040513d601f19601f82011682018060405250810190610dff919061546b565b506001600160a01b0383166000818152600b602052604090208551869084908110610e3a57634e487b7160e01b600052603260045260246000fd5b602002602001015181548110610e6057634e487b7160e01b600052603260045260246000fd5b906000526020600020906007020160020160009054906101000a90046001600160a01b03166001600160a01b03167f58c23b4ae0617be275628875bcfd65759a441263099a256eeb27899fb5dd846d8888600b6000896001600160a01b03166001600160a01b03168152602001908152602001600020898781518110610ef657634e487b7160e01b600052603260045260246000fd5b602002602001015181548110610f1c57634e487b7160e01b600052603260045260246000fd5b906000526020600020906007020160060154604051610f3d93929190615a3d565b60405180910390a380610f4f81615eea565b9150506109f1565b50506001805550505050565b6000546001600160a01b03163314610f8d5760405162461bcd60e51b81526004016105ac90615b77565b6107e1816121f3565b6000546001600160a01b03163314610fc05760405162461bcd60e51b81526004016105ac90615b77565b6107e181612286565b6001600160a01b0382166000908152600b6020526040812080548390811061100157634e487b7160e01b600052603260045260246000fd5b600091825260209091206005600790920201015460ff1690505b92915050565b6000600260015414156110465760405162461bcd60e51b81526004016105ac90615bed565b6002600155600061105c8d8d8d8d8d8d8d612317565b90506110c98c8c600081811061108257634e487b7160e01b600052603260045260246000fd5b905060200201358a8a60008181106110aa57634e487b7160e01b600052603260045260246000fd5b90506020020160208101906110bf919061530c565b8389898989612764565b600180559d9c50505050505050505050505050565b6000546001600160a01b031633146111085760405162461bcd60e51b81526004016105ac90615b77565b6107e1816128be565b600260015414156111345760405162461bcd60e51b81526004016105ac90615bed565b60026001819055885114801561114b575082516002145b8015611158575080516003145b6111a45760405162461bcd60e51b815260206004820152601a60248201527f43434275726e526f757465723a2077726f6e6720696e7075747300000000000060448201526064016105ac565b600254816002815181106111c857634e487b7160e01b600052603260045260246000fd5b6020026020010151101561121a5760405162461bcd60e51b815260206004820152601960248201527810d0d09d5c9b949bdd5d195c8e881bdb19081c995c5d595cdd603a1b60448201526064016105ac565b6004805460405163aff2faa360e01b81526001600160a01b039091169163aff2faa391611249918d9101615a61565b60206040518083038186803b15801561126157600080fd5b505afa158015611275573d6000803e3d6000fd5b505050506040513d601f19601f82011682018060405250810190611299919061546b565b6112b55760405162461bcd60e51b81526004016105ac90615b40565b6000611313896000815181106112db57634e487b7160e01b600052603260045260246000fd5b602002602001015189898760008151811061130657634e487b7160e01b600052603260045260246000fd5b602002602001015161294f565b905073__$f78472418b29d5d2fb49b19dc055a858ae$__637ebc2327600360009054906101000a90046001600160a01b0316838560028151811061136757634e487b7160e01b600052603260045260246000fd5b6020026020010151878760018151811061139157634e487b7160e01b600052603260045260246000fd5b60200260200101516040518663ffffffff1660e01b81526004016113b99594939291906159a9565b60206040518083038186803b1580156113d157600080fd5b505af41580156113e5573d6000803e3d6000fd5b505050506040513d601f19601f82011682018060405250810190611409919061546b565b6114555760405162461bcd60e51b815260206004820152601b60248201527f43434275726e526f757465723a206e6f742066696e616c697a6564000000000060448201526064016105ac565b6000818152600d602052604090205460ff16156114b45760405162461bcd60e51b815260206004820152601a60248201527f43434275726e526f757465723a20616c7265616479207573656400000000000060448201526064016105ac565b6000818152600d60205260408120805460ff1916600117905582518190611502908b90869084906114f557634e487b7160e01b600052603260045260246000fd5b6020026020010151612a45565b915091506115558b60018151811061152a57634e487b7160e01b600052603260045260246000fd5b602002602001015189898960018151811061130657634e487b7160e01b600052603260045260246000fd5b82146115a35760405162461bcd60e51b815260206004820152601d60248201527f43434275726e526f757465723a2077726f6e67206f757470757420747800000060448201526064016105ac565b8b5160208d01206115b48883612af4565b80519060200120146116085760405162461bcd60e51b815260206004820152601c60248201527f43434275726e526f757465723a206e6f7420666f72206c6f636b65720000000060448201526064016105ac565b8360028151811061162957634e487b7160e01b600052603260045260246000fd5b602002602001015160075461163e9190615d59565b600360009054906101000a90046001600160a01b03166001600160a01b0316632f796d906040518163ffffffff1660e01b815260040160206040518083038186803b15801561168c57600080fd5b505afa1580156116a0573d6000803e3d6000fd5b505050506040513d601f19601f820116820180604052508101906116c49190615545565b116116e15760405162461bcd60e51b81526004016105ac90615bac565b611715898d858760028151811061170857634e487b7160e01b600052603260045260246000fd5b6020026020010151612b68565b50506001805550505050505050505050565b6000546001600160a01b031633146117515760405162461bcd60e51b81526004016105ac90615b77565b6107e181612d33565b6000546001600160a01b031633146117845760405162461bcd60e51b81526004016105ac90615b77565b6107e181612dc4565b6000600260015414156117b25760405162461bcd60e51b81526004016105ac90615bed565b60026001819055548710156118055760405162461bcd60e51b815260206004820152601960248201527810d0d09d5c9b949bdd5d195c8e881bdb19081c995c5d595cdd603a1b60448201526064016105ac565b6001600160e01b031988161561185d5760405162461bcd60e51b815260206004820181905260248201527f43434275726e526f757465723a206e6f6e2d7a65726f206c6f636b2074696d6560448201526064016105ac565b6004805460405163aff2faa360e01b81526001600160a01b039091169163aff2faa39161188c91889101615a61565b60206040518083038186803b1580156118a457600080fd5b505afa1580156118b8573d6000803e3d6000fd5b505050506040513d601f19601f820116820180604052508101906118dc919061546b565b6118f85760405162461bcd60e51b81526004016105ac90615b40565b6004805460405163626885b560e11b81526000926001600160a01b039092169163c4d10b6a9161192a91899101615a61565b60206040518083038186803b15801561194257600080fd5b505afa158015611956573d6000803e3d6000fd5b505050506040513d601f19601f8201168201806040525081019061197a9190615328565b905082518451146119cd5760405162461bcd60e51b815260206004820152601b60248201527f43434275726e526f757465723a2077726f6e6720696e6465786573000000000060448201526064016105ac565b60006119db8d8d8d8d61294f565b600354604051637ebc232760e01b815291925073__$f78472418b29d5d2fb49b19dc055a858ae$__91637ebc232791611a2a916001600160a01b039091169085908e908e908e906004016159a9565b60206040518083038186803b158015611a4257600080fd5b505af4158015611a56573d6000803e3d6000fd5b505050506040513d601f19601f82011682018060405250810190611a7a919061546b565b611ac65760405162461bcd60e51b815260206004820152601b60248201527f43434275726e526f757465723a206e6f742066696e616c697a6564000000000060448201526064016105ac565b6000611ad6828b858f8a8a612e57565b9050611ae4818d8985613386565b505060018080559c9b505050505050505050505050565b6000546001600160a01b03163314611b255760405162461bcd60e51b81526004016105ac90615b77565b6107e18161340f565b6000546001600160a01b03163314611b585760405162461bcd60e51b81526004016105ac90615b77565b6001600160a01b038116611bbd5760405162461bcd60e51b815260206004820152602660248201527f4f776e61626c653a206e6577206f776e657220697320746865207a65726f206160448201526564647265737360d01b60648201526084016105ac565b6107e1816134a0565b600b6020528160005260406000208181548110611be257600080fd5b600091825260209091206007909102018054600182015460028301546003840180549396509194506001600160a01b03169291611c1e90615eb5565b80601f0160208091040260200160405190810160405280929190818152602001828054611c4a90615eb5565b8015611c975780601f10611c6c57610100808354040283529160200191611c97565b820191906000526020600020905b815481529060010190602001808311611c7a57829003601f168201915b505050600484015460058501546006909501549394909360ff8083169450610100909204909116915088565b600080611cd086866134f0565b6004805460405163aff2faa360e01b81526001600160a01b039091169163aff2faa391611d01918891889101615a29565b60206040518083038186803b158015611d1957600080fd5b505afa158015611d2d573d6000803e3d6000fd5b505050506040513d601f19601f82011682018060405250810190611d51919061546b565b611d6d5760405162461bcd60e51b81526004016105ac90615b40565b6004805460405163626885b560e11b81526001600160a01b039091169163c4d10b6a91611d9e918891889101615a29565b60206040518083038186803b158015611db657600080fd5b505afa158015611dca573d6000803e3d6000fd5b505050506040513d601f19601f82011682018060405250810190611dee9190615328565b90506000611dfb886135ed565b6005546004805460405163095ea7b360e01b81526001600160a01b03918216928101929092526024820184905292935091169063095ea7b390604401602060405180830381600087803b158015611e5157600080fd5b505af1158015611e65573d6000803e3d6000fd5b505050506040513d601f19601f82011682018060405250810190611e89919061546b565b5080600a5482611e999190615e4b565b600480546040516338463cff60e01b81526001600160a01b03909116916338463cff91611ecc918b918b91899101615a3d565b602060405180830381600087803b158015611ee657600080fd5b505af1158015611efa573d6000803e3d6000fd5b505050506040513d601f19601f82011682018060405250810190611f1e9190615545565b611f289190615e03565b611f329190615de3565b9250611fc788848989600360009054906101000a90046001600160a01b03166001600160a01b0316632f796d906040518163ffffffff1660e01b815260040160206040518083038186803b158015611f8957600080fd5b505afa158015611f9d573d6000803e3d6000fd5b505050506040513d601f19601f82011682018060405250810190611fc19190615545565b87613714565b509550959350505050565b8061271010156120245760405162461bcd60e51b815260206004820152601c60248201527f43434275726e526f757465723a20696e76616c6964207265776172640000000060448201526064016105ac565b60095460408051918252602082018390527faa50b3683e42a13535a5b9c2c32780cccf956fb546b523a3542ac4ad8b544f67910160405180910390a1600955565b60035460408051630a072bc560e41b815290516000926001600160a01b03169163a072bc50916004808301926020929190829003018186803b1580156120aa57600080fd5b505afa1580156120be573d6000803e3d6000fd5b505050506040513d601f19601f820116820180604052508101906120e29190615545565b90506120f66000546001600160a01b031690565b6001600160a01b0316336001600160a01b03161480612116575080600754105b6121625760405162461bcd60e51b815260206004820152601760248201527f43434275726e526f757465723a206e6f207065726d697400000000000000000060448201526064016105ac565b8082116121b15760405162461bcd60e51b815260206004820152601a60248201527f43434275726e526f757465723a206c6f7720646561646c696e6500000000000060448201526064016105ac565b60075460408051918252602082018490527f92c10a242ca42973030420e2ee32b3ba7818cc643f896958f620c606cf300416910160405180910390a150600755565b8061271010156122455760405162461bcd60e51b815260206004820152601960248201527f43434275726e526f757465723a20696e76616c6964206665650000000000000060448201526064016105ac565b60085460408051918252602082018390527f7d205f60891f60851c61cd244ba387d72b6589e7c0ac41b9d909ab0ce2c2a53b910160405180910390a1600855565b806001600160a01b0381166122ad5760405162461bcd60e51b81526004016105ac90615ad2565b600554604080516001600160a01b03928316815291841660208301527f36a4c08a38b736dcecb6c328dba61238529620e83ccb23db2cc43cd34ec26096910160405180910390a150600580546001600160a01b0319166001600160a01b0392909216919091179055565b6005546000906001600160a01b03168484612333600182615e4b565b81811061235057634e487b7160e01b600052603260045260246000fd5b9050602002016020810190612365919061530c565b6001600160a01b0316146123bb5760405162461bcd60e51b815260206004820152601a60248201527f43434275726e526f757465723a20696e76616c6964207061746800000000000060448201526064016105ac565b6002861461240b5760405162461bcd60e51b815260206004820152601b60248201527f43434275726e526f757465723a2077726f6e6720616d6f756e7473000000000060448201526064016105ac565b8383600081811061242c57634e487b7160e01b600052603260045260246000fd5b9050602002016020810190612441919061530c565b6001600160a01b03166323b872dd33308a8a600081811061247257634e487b7160e01b600052603260045260246000fd5b6040516001600160e01b031960e088901b1681526001600160a01b03958616600482015294909316602485015250602090910201356044820152606401602060405180830381600087803b1580156124c957600080fd5b505af11580156124dd573d6000803e3d6000fd5b505050506040513d601f19601f82011682018060405250810190612501919061546b565b508383600081811061252357634e487b7160e01b600052603260045260246000fd5b9050602002016020810190612538919061530c565b6001600160a01b031663095ea7b3898989600081811061256857634e487b7160e01b600052603260045260246000fd5b6040516001600160e01b031960e087901b1681526001600160a01b0390941660048501526020029190910135602483015250604401602060405180830381600087803b1580156125b757600080fd5b505af11580156125cb573d6000803e3d6000fd5b505050506040513d601f19601f820116820180604052508101906125ef919061546b565b50600080896001600160a01b031663b0bbcd888a8a600081811061262357634e487b7160e01b600052603260045260246000fd5b905060200201358b8b600181811061264b57634e487b7160e01b600052603260045260246000fd5b905060200201358989308a8e6040518863ffffffff1660e01b81526004016126799796959493929190615c87565b600060405180830381600087803b15801561269357600080fd5b505af11580156126a7573d6000803e3d6000fd5b505050506040513d6000823e601f3d908101601f191682016040526126cf9190810190615487565b91509150816127205760405162461bcd60e51b815260206004820152601d60248201527f43434275726e526f757465723a2065786368616e6765206661696c656400000060448201526064016105ac565b806001825161272f9190615e4b565b8151811061274d57634e487b7160e01b600052603260045260246000fd5b602002602001015192505050979650505050505050565b60008060006127768888888888611cc3565b6001600160a01b0381166000908152600b602052604090208054929450909250906127a390600190615e4b565b815481106127c157634e487b7160e01b600052603260045260246000fd5b9060005260206000209060070201600401546127da3390565b6001600160a01b03167fc19dabf19fdfd8c6124bed2178a4564d0c5d5812bfb916777cc90d1b53ed5a5a89898e8e8e8989600b60008c6001600160a01b03166001600160a01b031681526020019081526020016000206001600b60008e6001600160a01b03166001600160a01b03168152602001908152602001600020805490506128659190615e4b565b8154811061288357634e487b7160e01b600052603260045260246000fd5b9060005260206000209060070201600601546040516128a9989796959493929190615a74565b60405180910390a35098975050505050505050565b806001600160a01b0381166128e55760405162461bcd60e51b81526004016105ac90615ad2565b600454604080516001600160a01b03928316815291841660208301527ffa021c2ec0f46429a53e7f88b88065e40001f50c9d38b2e8b713beaf9828d4c3910160405180910390a150600480546001600160a01b0319166001600160a01b0392909216919091179055565b60008060028686868660405160200161296b949392919061593a565b60408051601f19818403018152908290526129859161598d565b602060405180830381855afa1580156129a2573d6000803e3d6000fd5b5050506040513d601f19601f820116820180604052508101906129c59190615545565b905060006002826040516020016129de91815260200190565b60408051601f19818403018152908290526129f89161598d565b602060405180830381855afa158015612a15573d6000803e3d6000fd5b5050506040513d601f19601f82011682018060405250810190612a389190615545565b925050505b949350505050565b60008080612a5b612a5686836138dc565b613900565b905062ffffff198082161415612ab35760405162461bcd60e51b815260206004820152601a60248201527f426974636f696e48656c7065723a2076696e206973206e756c6c00000000000060448201526064016105ac565b6000612abf8286613a36565b90506000612acc82613b54565b9050612ad781613b78565b9450612ae281613b9a565b63ffffffff1693505050509250929050565b60606000612b0c612b07825b86906138dc565b613bc4565b905062ffffff198082161415612b345760405162461bcd60e51b81526004016105ac90615b09565b6000612b408285613cb5565b90506000612b4d82613daf565b9050612b5e62ffffff198216613e00565b9695505050505050565b6000612b7385613e50565b6004805460405163626885b560e11b81526001600160401b039390931693506000926001600160a01b039091169163c4d10b6a91612bb391899101615a61565b60206040518083038186803b158015612bcb57600080fd5b505afa158015612bdf573d6000803e3d6000fd5b505050506040513d601f19601f82011682018060405250810190612c039190615328565b6004546009549192506001600160a01b03169063b734de2690839061271090612c2c9087615e03565b612c369190615de3565b3360405160e085901b6001600160e01b03191681526001600160a01b0393841660048201526024810192909252909116604482015260648101859052608401602060405180830381600087803b158015612c8f57600080fd5b505af1158015612ca3573d6000803e3d6000fd5b505050506040513d601f19601f82011682018060405250810190612cc7919061546b565b507f7ff138134e34ccab071315c38e38eec079f54726b890304ab46e2c5ab6f722bb8186858761271060095488612cfe9190615e03565b612d089190615de3565b612d129088615d59565b604051612d239594939291906159e8565b60405180910390a1505050505050565b806001600160a01b038116612d5a5760405162461bcd60e51b81526004016105ac90615ad2565b600354604080516001600160a01b03928316815291841660208301527f4c28a3f61a715259c4dc930c23e7423b8fa52e13232c061a6e488729c66184f4910160405180910390a150600380546001600160a01b0319166001600160a01b0392909216919091179055565b600a5460408051918252602082018390527f47c5f9c13c35ebb166f6a8d8c56af73f8b323ac0fee7aec4a5e0490bbf67a4fe910160405180910390a1806127101015612e525760405162461bcd60e51b815260206004820152601d60248201527f43434275726e526f757465723a20696e76616c6964206274632066656500000060448201526064016105ac565b600a55565b60008080805b85518110156133795780612e9a57848181518110612e8b57634e487b7160e01b600052603260045260246000fd5b60200260200101519150612f47565b81858281518110612ebb57634e487b7160e01b600052603260045260246000fd5b602002602001015111612f1c5760405162461bcd60e51b8152602060048201526024808201527f43434275726e526f757465723a20756e2d736f7274656420766f757420696e646044820152636578657360e01b60648201526084016105ac565b848181518110612f3c57634e487b7160e01b600052603260045260246000fd5b602002602001015191505b6000868281518110612f6957634e487b7160e01b600052603260045260246000fd5b60200260200101519050600b60008a6001600160a01b03166001600160a01b031681526020019081526020016000208181548110612fb757634e487b7160e01b600052603260045260246000fd5b600091825260209091206005600790920201015460ff1615801561302657506001600160a01b0389166000908152600b6020526040902080548b91908390811061301157634e487b7160e01b600052603260045260246000fd5b90600052602060002090600702016004015410155b15613366576131d18887848151811061304f57634e487b7160e01b600052603260045260246000fd5b6020026020010151600b60008d6001600160a01b03166001600160a01b03168152602001908152602001600020848154811061309b57634e487b7160e01b600052603260045260246000fd5b906000526020600020906007020160030180546130b790615eb5565b80601f01602080910402602001604051908101604052809291908181526020018280546130e390615eb5565b80156131305780601f1061310557610100808354040283529160200191613130565b820191906000526020600020905b81548152906001019060200180831161311357829003601f168201915b5050506001600160a01b038f166000908152600b602052604090208054909250879150811061316f57634e487b7160e01b600052603260045260246000fd5b906000526020600020906007020160050160019054906101000a900460ff1660048111156131ad57634e487b7160e01b600052602160045260246000fd5b60048111156131cc57634e487b7160e01b600052602160045260246000fd5b613eea565b6001600160401b0316935083600b60008b6001600160a01b03166001600160a01b03168152602001908152602001600020828154811061322157634e487b7160e01b600052603260045260246000fd5b9060005260206000209060070201600101541415613366576001600160a01b0389166000908152600b602052604090208054600191908390811061327557634e487b7160e01b600052603260045260246000fd5b60009182526020909120600790910201600501805460ff19169115159190911790556132a2856001615d59565b6001600160a01b038a166000818152600b60205260409020805492975090917f1b46655c2f394f2191cb246d5982dbe00ad671f0b590e75e97c90ee97f1f782a91908490811061330257634e487b7160e01b600052603260045260246000fd5b9060005260206000209060070201600601548d89868151811061333557634e487b7160e01b600052603260045260246000fd5b602002602001015160405161335d939291909283526020830191909152604082015260600190565b60405180910390a25b508061337181615eea565b915050612e5d565b5050509695505050505050565b60006133928484614125565b6001600160401b0316905060006133a885614228565b905081158015906133c25750806133c0876001615d59565b145b156133e5576000838152600d60205260409020805460ff19166001179055613407565b80861415613407576000838152600d60205260409020805460ff191660011790555b505050505050565b806001600160a01b0381166134365760405162461bcd60e51b81526004016105ac90615ad2565b600654604080516001600160a01b03928316815291841660208301527f567657fa3f286518b318f4a29870674f433f622fdfc819691acb13105b228225910160405180910390a150600680546001600160a01b0319166001600160a01b0392909216919091179055565b600080546001600160a01b038381166001600160a01b0319831681178455604051919092169283917f8be0079c531659141344cd1fd0a4f28419497f9722a3daafe3b4186f6b6457e09190a35050565b600081600481111561351257634e487b7160e01b600052602160045260246000fd5b148061353d5750600481600481111561353b57634e487b7160e01b600052602160045260246000fd5b145b156135985781516020146135935760405162461bcd60e51b815260206004820152601c60248201527f43434275726e526f757465723a20696e76616c6964207363726970740000000060448201526064016105ac565b6135e9565b81516014146135e95760405162461bcd60e51b815260206004820152601c60248201527f43434275726e526f757465723a20696e76616c6964207363726970740000000060448201526064016105ac565b5050565b600080612710600854846136019190615e03565b61360b9190615de3565b9050600a54600261361c9190615e03565b6136269082615d59565b83116136745760405162461bcd60e51b815260206004820152601860248201527f43434275726e526f757465723a206c6f7720616d6f756e74000000000000000060448201526064016105ac565b60006136808285615e4b565b60055460065460405163a9059cbb60e01b81526001600160a01b03918216600482015260248101869052929350169063a9059cbb90604401602060405180830381600087803b1580156136d257600080fd5b505af11580156136e6573d6000803e3d6000fd5b505050506040513d601f19601f8201168201806040525081019061370a919061546b565b509150505b919050565b604080516101008101825260006080820181905260a0820181905260c0820181815260e0830191909152888252602082018890523392820192909252606081018690529084600481111561377857634e487b7160e01b600052602160045260246000fd5b9081600481111561379957634e487b7160e01b600052602160045260246000fd5b9052506007546137a99084615d59565b6080820152600060a082018190526001600160a01b038316808252600c6020818152604084205460e08601819052929093529091526137e9906001615d59565b6001600160a01b038381166000908152600c6020908152604080832094909455600b81528382208054600180820183559184529282902086516007909402019283558582015190830155928401516002820180546001600160a01b0319169190931617909155606083015180518493613869926003850192910190615081565b50608082015160048281019190915560a083015160058301805460ff19169115159190911780825560c08501519261ff0019909116906101009084908111156138c257634e487b7160e01b600052602160045260246000fd5b021790555060e08201518160060155505050505050505050565b8151600090602084016138f764ffffffffff85168284614254565b95945050505050565b60008181613916815b62ffffff1984169061429b565b50601884901c6001600160601b03166139365762ffffff195b9250613a2f565b6000613943856000614375565b9050601885901c6001600160601b03166001600160401b0382166139705762ffffff195b94505050613a2f565b600061397b836144bc565b60ff16905060005b836001600160401b03168110156139f7578282106139ac5762ffffff195b965050505050613a2f565b60006139cc6139bb8486615e4b565b60055b62ffffff198c169190614515565b90506139d781614549565b6139e19084615d59565b92505080806139ef90615eea565b915050613983565b50818114613a0f5762ffffff195b9550505050613a2f565b613a2960065b60d81b6301000000600160d81b0389161790565b95505050505b5050919050565b6000826006613a4481613909565b506000613a52866000614375565b6001600160401b03169050601886901c6001600160601b0316818610613aad5760405162461bcd60e51b815260206004820152601060248201526f2b34b7103932b0b21037bb32b9393ab760811b60448201526064016105ac565b6000613ab8836144bc565b60ff1690506000805b88811015613b1057613ae7613ad68486615e4b565b60055b62ffffff198d169190614515565b9150613af282614549565b613afc9084615d59565b9250613b09600182615d59565b9050613ac1565b50613b1e6139bb8385615e4b565b90506000613b2b82614549565b9050613b44838260045b62ffffff198e1692919061459d565b975050505050505b505092915050565b6000816004613b6281613909565b50612a3d62ffffff19851660006024600361459d565b6000816003613b8681613909565b50612a3d62ffffff1985166000602061460d565b6000816003613ba881613909565b50612a3d613bbf62ffffff19861660206004614766565b6148b0565b60008181613bd181613909565b50601884901c6001600160601b0316613bee5762ffffff1961392f565b6000613bfb856000614375565b9050601885901c6001600160601b03166001600160401b038216613c235762ffffff19613967565b6000613c2e836144bc565b60ff16905060005b836001600160401b0316811015613c9957828210613c585762ffffff196139a1565b6000613c6e613c678486615e4b565b600e6139be565b9050613c7981614919565b613c839084615d59565b9250508080613c9190615eea565b915050613c36565b50818114613cab5762ffffff19613a05565b613a29600f613a15565b600082600f613cc381613909565b506000613cd1866000614375565b6001600160401b03169050601886901c6001600160601b0316818610613d2d5760405162461bcd60e51b81526020600482015260116024820152702b37baba103932b0b21037bb32b9393ab760791b60448201526064016105ac565b6000613d38836144bc565b60ff1690506000805b88811015613d8657613d5d613d568486615e4b565b600e613ad9565b9150613d6882614919565b613d729084615d59565b9250613d7f600182615d59565b9050613d41565b50613d94613c678385615e4b565b90506000613da182614919565b9050613b448382600d613b35565b600081600d613dbd81613909565b506000613dcb856008614375565b90506138f7613dd9826144bc565b613de4906008615d9c565b62ffffff1987169060ff166001600160401b038416600761459d565b6060600080613e188460181c6001600160601b031690565b60405193508392506001600160601b03169050613e3f84613e3a846020615d59565b614962565b508181016020016040529052919050565b600080613e62612b07825b85906138dc565b905062ffffff198082161415613e8a5760405162461bcd60e51b81526004016105ac90615b09565b600080613e98836000614375565b6001600160401b0316905060005b81811015613ee157613eb88482613cb5565b9250613ec383614aba565b613ecd9086615d71565b945080613ed981615eea565b915050613ea6565b50505050919050565b600080613efa612b0787836138dc565b905062ffffff198082161415613f225760405162461bcd60e51b81526004016105ac90615b09565b6000613f2e8287613cb5565b90506000613f3b82613daf565b90506000856004811115613f5f57634e487b7160e01b600052602160045260246000fd5b1415613fc457613f7862ffffff1982166001602061460d565b604051602001613f8a91815260200190565b60405160208183030381529060405280519060200120868051906020012014613fb4576000613fbd565b613fbd82614aba565b935061411a565b6001856004811115613fe657634e487b7160e01b600052602160045260246000fd5b141561402557613ffd62ffffff1982166003614adf565b604051602001613f8a919060609190911b6bffffffffffffffffffffffff1916815260140190565b600285600481111561404757634e487b7160e01b600052602160045260246000fd5b141561405e57613ffd62ffffff1982166002614adf565b600385600481111561408057634e487b7160e01b600052602160045260246000fd5b141561409757613ffd62ffffff1982166002614adf565b60048560048111156140b957634e487b7160e01b600052602160045260246000fd5b141561411a576140d262ffffff1982166002602061460d565b6040516020016140e491815260200190565b6040516020818303038152906040528051906020012086805190602001201461410e576000614117565b61411782614aba565b93505b505050949350505050565b600080614134612b0782612b00565b905062ffffff19808216141561415c5760405162461bcd60e51b81526004016105ac90615b09565b600080600061416c846000614375565b6001600160401b0316905060005b8181101561421d5761418c8582613cb5565b935061419784613daf565b9250866040516020016141aa919061598d565b604051602081830303815290604052805190602001206141cf8462ffffff1916613e00565b6040516020016141df919061598d565b60405160208183030381529060405280519060200120141561420b5761420484614aba565b955061421d565b8061421581615eea565b91505061417a565b505050505092915050565b600080614237612b0782613e5b565b9050614244816000614375565b6001600160401b03169392505050565b6000806142618385615d59565b9050604051811115614271575060005b806142835762ffffff19915050614294565b5050606083811b8317901b811760181b5b9392505050565b60006142a78383614aed565b61436e5760006142c66142ba8560d81c90565b64ffffffffff16614b10565b91505060006142db8464ffffffffff16614b10565b6040517f5479706520617373657274696f6e206661696c65642e20476f7420307800000060208201526001600160b01b031960b086811b8216603d8401526c05c408af0e0cac6e8cac84060f609b1b604784015283901b16605482015290925060009150605e015b60405160208183030381529060405290508060405162461bcd60e51b81526004016105ac9190615a61565b5090919050565b60008061438a62ffffff198516846001614bbc565b905060fc81116143a55761439d81614bec565b91505061101b565b8060fd141561440b576143d36143ce6143bf856001615d59565b62ffffff198716906002614766565b614bec565b91506143de826144bc565b60ff16600314614406576144046143ff62ffffff198616856003600061459d565b614c54565b505b6144b5565b8060fe1415614460576144346143ce614425856001615d59565b62ffffff198716906004614766565b915061443f826144bc565b60ff16600514614406576144046143ff62ffffff198616856005600061459d565b8060ff14156144b5576144896143ce61447a856001615d59565b62ffffff198716906008614766565b9150614494826144bc565b60ff166009146144b557613b4c6143ff62ffffff198616856009600061459d565b5092915050565b600060fc826001600160401b0316116144d75750600161370f565b61ffff826001600160401b0316116144f15750600361370f565b63ffffffff826001600160401b03161161450d5750600561370f565b50600961370f565b6000612a3d848461452f8760181c6001600160601b031690565b6001600160601b03166145429190615e4b565b858561459d565b600081600561455781613909565b506000614565856024614375565b9050806001600160401b031661457a826144bc565b60ff166145879190615d59565b614592906024615d59565b6138f7906004615d59565b6000806145b38660781c6001600160601b031690565b6001600160601b031690506145c786614cdb565b846145d28784615d59565b6145dc9190615d59565b11156145ef5762ffffff19915050612a3d565b6145f98582615d59565b9050612b5e8364ffffffffff168286614254565b600060ff821661461f57506000614294565b6146328460181c6001600160601b031690565b6001600160601b031661464860ff841685615d59565b11156146ac576146936146648560781c6001600160601b031690565b6001600160601b03166146808660181c6001600160601b031690565b6001600160601b0316858560ff16614d1c565b60405162461bcd60e51b81526004016105ac9190615a61565b60208260ff1611156147265760405162461bcd60e51b815260206004820152603a60248201527f54797065644d656d566965772f696e646578202d20417474656d70746564207460448201527f6f20696e646578206d6f7265207468616e20333220627974657300000000000060648201526084016105ac565b60088202600061473f8660781c6001600160601b031690565b6001600160601b031690506000600160ff1b60001984011d91909501511695945050505050565b6000612a3d61477685858561460d565b600881811c7eff00ff00ff00ff00ff00ff00ff00ff00ff00ff00ff00ff00ff00ff00ff00ff167fff00ff00ff00ff00ff00ff00ff00ff00ff00ff00ff00ff00ff00ff00ff00ff009290911b9190911617601081811c7dffff0000ffff0000ffff0000ffff0000ffff0000ffff0000ffff0000ffff167fffff0000ffff0000ffff0000ffff0000ffff0000ffff0000ffff0000ffff00009290911b9190911617602081811c7bffffffff00000000ffffffff00000000ffffffff00000000ffffffff167fffffffff00000000ffffffff00000000ffffffff00000000ffffffff000000009290911b9190911617604081811c77ffffffffffffffff0000000000000000ffffffffffffffff1677ffffffffffffffff0000000000000000ffffffffffffffff199290911b9190911617608081811c91901b1790565b600063ffffffff8211156149155760405162461bcd60e51b815260206004820152602660248201527f53616665436173743a2076616c756520646f65736e27742066697420696e203360448201526532206269747360d01b60648201526084016105ac565b5090565b600081600e61492781613909565b506000614935856008614375565b9050806001600160401b031661494a826144bc565b60ff166149579190615d59565b6138f7906008615d59565b600062ffffff1980841614156149cb5760405162461bcd60e51b815260206004820152602860248201527f54797065644d656d566965772f636f7079546f202d204e756c6c20706f696e7460448201526732b9103232b932b360c11b60648201526084016105ac565b6149d483614e46565b614a345760405162461bcd60e51b815260206004820152602b60248201527f54797065644d656d566965772f636f7079546f202d20496e76616c696420706f60448201526a34b73a32b9103232b932b360a91b60648201526084016105ac565b6000614a498460181c6001600160601b031690565b6001600160601b031690506000614a698560781c6001600160601b031690565b6001600160601b031690506000604051905084811115614a895760206060fd5b8285848460045afa50612b5e614a9f8760d81c90565b64ffffffffff60601b606091821b168717901b841760181b90565b600081600d614ac881613909565b50612a3d6143ce62ffffff19861660006008614766565b600061429483836014614bbc565b60008164ffffffffff16614b018460d81c90565b64ffffffffff16149392505050565b600080601f5b600f8160ff161115614b6e576000614b2f826008615e22565b60ff1685901c9050614b4081614e84565b61ffff16841793508160ff16601014614b5b57601084901b93505b50614b67600182615e62565b9050614b16565b50600f5b60ff8160ff161015614bb65760ff600882021684901c614b9181614e84565b61ffff16831792508160ff16600014614bac57601083901b92505b5060001901614b72565b50915091565b6000614bc9826020615e62565b614bd4906008615e22565b60ff16614be285858561460d565b901c949350505050565b60006001600160401b038211156149155760405162461bcd60e51b815260206004820152602660248201527f53616665436173743a2076616c756520646f65736e27742066697420696e203660448201526534206269747360d01b60648201526084016105ac565b60606000614c88614c8382614c75601887901c6001600160601b0316614eb4565b62ffffff1987169190614bbc565b614b10565b6040517f4e6f6e2d6d696e696d616c2076617220696e742e20476f74203078000000000060208201526dffffffffffffffffffffffffffff19607083901b16603b82015290925060009150604d01614343565b6000614cf08260181c6001600160601b031690565b614d038360781c6001600160601b031690565b614d0d9190615dc1565b6001600160601b031692915050565b60606000614d2986614b10565b9150506000614d3786614b10565b9150506000614d4586614b10565b9150506000614d5386614b10565b604080517f54797065644d656d566965772f696e646578202d204f76657272616e20746865602082015274040ecd2caee5c40a6d8d2c6ca40d2e640c2e84060f605b1b818301526001600160d01b031960d098891b811660558301526e040eed2e8d040d8cadccee8d04060f608b1b605b830181905297891b8116606a8301527f2e20417474656d7074656420746f20696e646578206174206f666673657420306070830152600f60fb1b609083015295881b861660918201526097810196909652951b90921660a68401525050601760f91b60ac8201528151808203608d01815260ad90910190915295945050505050565b6000614e528260d81c90565b64ffffffffff1664ffffffffff1415614e6d5750600061370f565b6000614e7883614cdb565b60405110199392505050565b6000614e9660048360ff16901c614f15565b60ff161760081b62ffff0016614eab82614f15565b60ff1617919050565b600060ff8211156149155760405162461bcd60e51b815260206004820152602560248201527f53616665436173743a2076616c756520646f65736e27742066697420696e2038604482015264206269747360d81b60648201526084016105ac565b600060f08083179060ff82161415614f3157603091505061370f565b8060ff1660f11415614f4757603191505061370f565b8060ff1660f21415614f5d57603291505061370f565b8060ff1660f31415614f7357603391505061370f565b8060ff1660f41415614f8957603491505061370f565b8060ff1660f51415614f9f57603591505061370f565b8060ff1660f61415614fb557603691505061370f565b8060ff1660f71415614fcb57603791505061370f565b8060ff1660f81415614fe157603891505061370f565b8060ff1660f91415614ff757603991505061370f565b8060ff1660fa141561500d57606191505061370f565b8060ff1660fb141561502357606291505061370f565b8060ff1660fc141561503957606391505061370f565b8060ff1660fd141561504f57606491505061370f565b8060ff1660fe141561506557606591505061370f565b8060ff1660ff141561507b57606691505061370f565b50919050565b82805461508d90615eb5565b90600052602060002090601f0160209004810192826150af57600085556150f5565b82601f106150c857805160ff19168380011785556150f5565b828001600101855582156150f5579182015b828111156150f55782518255916020019190600101906150da565b506149159291505b8082111561491557600081556001016150fd565b803561370f81615f31565b60008083601f84011261512d578182fd5b5081356001600160401b03811115615143578182fd5b602083019150836020808302850101111561515d57600080fd5b9250929050565b600082601f830112615174578081fd5b8135602061518961518483615d36565b615d06565b82815281810190858301838502870184018810156151a5578586fd5b855b858110156151ca576151b88261523c565b845292840192908401906001016151a7565b5090979650505050505050565b600082601f8301126151e7578081fd5b813560206151f761518483615d36565b8281528181019085830183850287018401881015615213578586fd5b855b858110156151ca57813584529284019290840190600101615215565b803561370f81615f46565b80356001600160e01b03198116811461370f57600080fd5b60008083601f840112615265578182fd5b5081356001600160401b0381111561527b578182fd5b60208301915083602082850101111561515d57600080fd5b600082601f8301126152a3578081fd5b81356001600160401b038111156152bc576152bc615f1b565b6152cf601f8201601f1916602001615d06565b8181528460208386010111156152e3578283fd5b816020850160208301379081016020019190915292915050565b80356005811061370f57600080fd5b60006020828403121561531d578081fd5b813561429481615f31565b600060208284031215615339578081fd5b815161429481615f31565b60008060008060008060008060008060006101008c8e031215615365578687fd5b61536e8c615111565b9a506001600160401b038060208e01351115615388578788fd5b6153988e60208f01358f0161511c565b909b5099506153a960408e01615231565b98508060608e013511156153bb578788fd5b6153cb8e60608f01358f0161511c565b909850965060808d0135955060a08d01358110156153e7578485fd5b6153f78e60a08f01358f01615293565b945061540560c08e016152fd565b93508060e08e01351115615417578283fd5b506154288d60e08e01358e01615254565b81935080925050509295989b509295989b9093969950565b60008060408385031215615452578182fd5b823561545d81615f31565b946020939093013593505050565b60006020828403121561547c578081fd5b815161429481615f46565b60008060408385031215615499578182fd5b82516154a481615f46565b809250506020808401516001600160401b038111156154c1578283fd5b8401601f810186136154d1578283fd5b80516154df61518482615d36565b81815283810190838501858402850186018a10156154fb578687fd5b8694505b8385101561551d5780518352600194909401939185019185016154ff565b5080955050505050509250929050565b60006020828403121561553e578081fd5b5035919050565b600060208284031215615556578081fd5b5051919050565b6000806000806000806000806000806101408b8d03121561557c578384fd5b6155858b61523c565b995060208b01356001600160401b03808211156155a0578586fd5b6155ac8e838f01615293565b9a5060408d01359150808211156155c1578586fd5b6155cd8e838f01615293565b99506155db60608e0161523c565b985060808d0135975060a08d01359150808211156155f7578586fd5b6156038e838f01615293565b965060c08d0135955060e08d013591508082111561561f578485fd5b61562b8e838f01615293565b94506101008d0135915080821115615641578384fd5b61564d8e838f016151d7565b93506101208d0135915080821115615663578283fd5b506156708d828e016151d7565b9150509295989b9194979a5092959850565b600080600060408486031215615696578081fd5b83356001600160401b03808211156156ac578283fd5b6156b887838801615254565b909550935060208601359150808211156156d0578283fd5b506156dd868287016151d7565b9150509250925092565b60008060008060008060008060006101208a8c031215615705578283fd5b89356001600160401b038082111561571b578485fd5b6157278d838e01615293565b9a5060208c013591508082111561573c578485fd5b6157488d838e01615164565b995060408c013591508082111561575d578485fd5b6157698d838e01615293565b985060608c013591508082111561577e578485fd5b61578a8d838e01615293565b975060808c013591508082111561579f578485fd5b6157ab8d838e01615293565b965060a08c01359150808211156157c0578485fd5b6157cc8d838e01615293565b955060c08c01359150808211156157e1578485fd5b6157ed8d838e01615164565b945060e08c0135915080821115615802578384fd5b61580e8d838e01615293565b93506101008c0135915080821115615824578283fd5b506158318c828d016151d7565b9150509295985092959850929598565b600080600080600060808688031215615858578283fd5b8535945060208601356001600160401b0380821115615875578485fd5b61588189838a01615293565b955061588f604089016152fd565b945060608801359150808211156158a4578283fd5b506158b188828901615254565b969995985093965092949392505050565b60008284528282602086013780602084860101526020601f19601f85011685010190509392505050565b60008151808452615904816020860160208601615e85565b601f01601f19169290920160200192915050565b6005811061593657634e487b7160e01b600052602160045260246000fd5b9052565b600063ffffffff60e01b8087168352855161595c816004860160208a01615e85565b855190840190615973816004840160208a01615e85565b919094169301600481019390935250506008019392505050565b6000825161599f818460208701615e85565b9190910192915050565b600060018060a01b038716825285602083015284604083015260a060608301526159d660a08301856158ec565b90508260808301529695505050505050565b6001600160a01b038616815260a060208201819052600090615a0c908301876158ec565b604083019590955250606081019290925260809091015292915050565b600060208252612a3d6020830184866158c2565b600060408252615a516040830185876158c2565b9050826020830152949350505050565b60006020825261429460208301846158ec565b6000610100808352615a888184018c6158ec565b915050615a98602083018a615918565b60408201979097526001600160a01b039586166060820152608081019490945260a084019290925290921660c082015260e0015292915050565b6020808252601a908201527f43434275726e526f757465723a207a65726f2061646472657373000000000000604082015260600190565b6020808252601b908201527f426974636f696e48656c7065723a20766f7574206973206e756c6c0000000000604082015260600190565b60208082526018908201527f43434275726e526f757465723a206e6f74206c6f636b65720000000000000000604082015260600190565b6020808252818101527f4f776e61626c653a2063616c6c6572206973206e6f7420746865206f776e6572604082015260600190565b60208082526021908201527f43434275726e526f757465723a20646561646c696e65206e6f742070617373656040820152601960fa1b606082015260800190565b6020808252601f908201527f5265656e7472616e637947756172643a207265656e7472616e742063616c6c00604082015260600190565b888152602081018890526001600160a01b038716604082015261010060608201819052600090615c56838201896158ec565b91505085608083015284151560a0830152615c7460c0830185615918565b8260e08301529998505050505050505050565b878152602080820188905260c0604083018190528201869052600090879060e08401835b89811015615cd9578335615cbe81615f31565b6001600160a01b031682529282019290820190600101615cab565b506001600160a01b039790971660608501525050506080810192909252151560a090910152949350505050565b604051601f8201601f191681016001600160401b0381118282101715615d2e57615d2e615f1b565b604052919050565b60006001600160401b03821115615d4f57615d4f615f1b565b5060209081020190565b60008219821115615d6c57615d6c615f05565b500190565b60006001600160401b03808316818516808303821115615d9357615d93615f05565b01949350505050565b600060ff821660ff84168060ff03821115615db957615db9615f05565b019392505050565b60006001600160601b03808316818516808303821115615d9357615d93615f05565b600082615dfe57634e487b7160e01b81526012600452602481fd5b500490565b6000816000190483118215151615615e1d57615e1d615f05565b500290565b600060ff821660ff84168160ff0481118215151615615e4357615e43615f05565b029392505050565b600082821015615e5d57615e5d615f05565b500390565b600060ff821660ff841680821015615e7c57615e7c615f05565b90039392505050565b60005b83811015615ea0578181015183820152602001615e88565b83811115615eaf576000848401525b50505050565b600281046001821680615ec957607f821691505b6020821081141561507b57634e487b7160e01b600052602260045260246000fd5b6000600019821415615efe57615efe615f05565b5060010190565b634e487b7160e01b600052601160045260246000fd5b634e487b7160e01b600052604160045260246000fd5b6001600160a01b03811681146107e157600080fd5b80151581146107e157600080fdfea2646970667358221220e99155d70f4bcf92cebe3445a215a71e9154950ac3beda95ef3cf383fd2e8ffd64736f6c63430008020033",
  "libraries": {
    "RelayHelper": "0xb0C3b1392E32E0d55F127783256c2a1c83106B6B"
  },
  "devdoc": {
    "kind": "dev",
    "methods": {
      "burnProof(bytes4,bytes,bytes,bytes4,uint256,bytes,uint256,bytes,uint256[],uint256[])": {
        "details": "Makes isTransferred flag true for the paid requests",
        "params": {
          "_blockNumber": "Height of the block containing the Bitcoin tx",
          "_burnReqIndexes": "Indexes of requests that locker wants to provide proof for them",
          "_index": "Index of the Bitcoin tx the block",
          "_intermediateNodes": "Merkle inclusion proof for the Bitcoin tx",
          "_lockerLockingScript": "Locker's locking script that this burn request belongs to",
          "_locktime": "Lock time of the Bitcoin tx",
          "_version": "Version of the Bitcoin tx",
          "_vin": "Inputs of the Bitcoin tx",
          "_vout": "Outputs of the Bitcoin tx",
          "_voutIndexes": "Indexes of outputs that were used to pay burn requests.                      _voutIndexes[i] belongs to _burnReqIndexes[i]"
        }
      },
      "ccBurn(uint256,bytes,uint8,bytes)": {
        "details": "After submitting the burn request, Locker has a limited time      to send BTC and provide burn proof",
        "params": {
          "_amount": "of teleBTC that user wants to burn",
          "_lockerLockingScript": "of locker that should execute the burn request",
          "_scriptType": "User script type",
          "_userScript": "User script hash"
        },
        "returns": {
          "_0": "Amount of BTC that user receives"
        }
      },
      "ccExchangeAndBurn(address,uint256[],bool,address[],uint256,bytes,uint8,bytes)": {
        "details": "After exchanging, rest of the process is similar to ccBurn",
        "params": {
          "_amounts": "[inputTokenAmount, teleBTCAmount]",
          "_deadline": "of exchanging",
          "_exchangeConnector": "Address of exchange connector to be used",
          "_isFixedToken": "True if input token amount is fixed",
          "_path": "of exchanging inputToken to teleBTC"
        },
        "returns": {
          "_0": "Amount of BTC that user receives"
        }
      },
      "constructor": {
        "params": {
          "_bitcoinFee": "Fee of submitting a transaction on Bitcoin",
          "_lockers": "Address of lockers contract",
          "_protocolPercentageFee": "Percentage of tokens that user pays to protocol for burning",
          "_relay": "Address of relay contract",
          "_slasherPercentageReward": "Percentage of tokens that slasher receives after slashing a locker",
          "_startingBlockNumber": "Requests that are included in a block older                              than _startingBlockNumber cannot be executed",
          "_teleBTC": "Address of teleBTC contract",
          "_transferDeadline": "of sending BTC to user (aster submitting a burn request)",
          "_treasury": "Address of the treasury of the protocol"
        }
      },
      "disputeBurn(bytes,uint256[])": {
        "params": {
          "_indices": "Indices of requests that their deadline has passed",
          "_lockerLockingScript": "Locker's locking script that the unpaid request belongs to"
        }
      },
      "disputeLocker(bytes,bytes4[],bytes,bytes,bytes,bytes,bytes4[],bytes,uint256[])": {
        "details": "Input tx is a malicious tx which shows that locker spent BTC      Output tx is the tx that was spent by locker in input tx      Output tx shows money goes to locker      Input tx shows locker steals the funds",
        "params": {
          "_indexesAndBlockNumbers": "Indices of malicious input in input tx, input tx in block and block number of input tx",
          "_inputIntermediateNodes": "Merkle inclusion proof for the malicious transaction",
          "_inputVin": "Inputs of the malicious transaction",
          "_inputVout": "Outputs of the malicious transaction",
          "_lockerLockingScript": "Suspicious locker's locking script",
          "_locktimes": "Locktimes of input and output tx",
          "_outputVin": "Inputs of the spent transaction",
          "_outputVout": "Outputs of the spent transaction",
          "_versions": "Versions of input and output tx"
        }
      },
      "isTransferred(address,uint256)": {
        "params": {
          "_index": "the request for the locker",
          "_lockerTargetAddress": "Locker address on the target chain"
        }
      },
      "owner()": {
        "details": "Returns the address of the current owner."
      },
      "renounceOwnership()": {
        "details": "Leaves the contract without owner. It will not be possible to call `onlyOwner` functions anymore. Can only be called by the current owner. NOTE: Renouncing ownership will leave the contract without an owner, thereby removing any functionality that is only available to the owner."
      },
      "setBitcoinFee(uint256)": {
        "details": "Only owner can call this",
        "params": {
          "_bitcoinFee": "The new Bitcoin transaction fee"
        }
      },
      "setLockers(address)": {
        "details": "Only owner can call this",
        "params": {
          "_lockers": "The new lockers contract address"
        }
      },
      "setProtocolPercentageFee(uint256)": {
        "details": "Only owner can call this",
        "params": {
          "_protocolPercentageFee": "The new protocol percentage fee"
        }
      },
      "setRelay(address)": {
        "details": "Only owner can call this",
        "params": {
          "_relay": "The new relay contract address"
        }
      },
      "setSlasherPercentageReward(uint256)": {
        "details": "Only owner can call this",
        "params": {
          "_slasherPercentageReward": "The new slasher percentage reward"
        }
      },
      "setTeleBTC(address)": {
        "details": "Only owner can call this",
        "params": {
          "_teleBTC": "The new teleBTC contract address"
        }
      },
      "setTransferDeadline(uint256)": {
        "details": "Only owner can call this      Deadline should be greater than relay finalization parameter",
        "params": {
          "_transferDeadline": "The new transfer deadline"
        }
      },
      "setTreasury(address)": {
        "details": "Only owner can call this",
        "params": {
          "_treasury": "The new treasury address"
        }
      },
      "transferOwnership(address)": {
        "details": "Transfers ownership of the contract to a new account (`newOwner`). Can only be called by the current owner."
      }
    },
    "version": 1
  },
  "userdoc": {
    "events": {
      "CCBurn(address,bytes,uint8,uint256,address,uint256,uint256,address,uint256,uint256)": {
        "notice": "Emits when a burn request gets submitted"
      },
      "LockerDispute(address,bytes,uint256,bytes32,uint256)": {
        "notice": "Emits when a locker gets slashed for withdrawing BTC without proper reason"
      },
      "NewBitcoinFee(uint256,uint256)": {
        "notice": "Emits when bitcoin fee is updated"
      },
      "NewLockers(address,address)": {
        "notice": "Emits when lockers address is updated"
      },
      "NewProtocolPercentageFee(uint256,uint256)": {
        "notice": "Emits when percentage fee is updated"
      },
      "NewRelay(address,address)": {
        "notice": "Emits when relay address is updated"
      },
      "NewSlasherPercentageFee(uint256,uint256)": {
        "notice": "Emits when slasher percentage fee is updated"
      },
      "NewTeleBTC(address,address)": {
        "notice": "Emits when TeleBTC address is updated"
      },
      "NewTransferDeadline(uint256,uint256)": {
        "notice": "Emits when transfer deadline is updated"
      },
      "NewTreasury(address,address)": {
        "notice": "Emits when treasury address is updated"
      },
      "PaidCCBurn(address,uint256,bytes32,uint256)": {
        "notice": "Emits when a burn proof is provided"
      }
    },
    "kind": "user",
    "methods": {
      "burnProof(bytes4,bytes,bytes,bytes4,uint256,bytes,uint256,bytes,uint256[],uint256[])": {
        "notice": "Checks the correctness of burn proof (which is a Bitcoin tx)"
      },
      "ccBurn(uint256,bytes,uint8,bytes)": {
        "notice": "Records users burn request"
      },
      "ccExchangeAndBurn(address,uint256[],bool,address[],uint256,bytes,uint8,bytes)": {
        "notice": "Exchanges input token for teleBTC then burns it"
      },
      "constructor": {
        "notice": "Handles cross-chain burn requests"
      },
      "disputeBurn(bytes,uint256[])": {
        "notice": "Slashes a locker if did not pay a cc burn request before its deadline"
      },
      "disputeLocker(bytes,bytes4[],bytes,bytes,bytes,bytes,bytes4[],bytes,uint256[])": {
        "notice": "Slashes a locker if they issue a tx that doesn't match any burn request"
      },
      "isTransferred(address,uint256)": {
        "notice": "Returns true is request has been processed"
      },
      "setBitcoinFee(uint256)": {
        "notice": "Updates Bitcoin transaction fee"
      },
      "setLockers(address)": {
        "notice": "Updates lockers contract address"
      },
      "setProtocolPercentageFee(uint256)": {
        "notice": "Updates protocol percentage fee for burning tokens"
      },
      "setRelay(address)": {
        "notice": "Updates relay contract address"
      },
      "setSlasherPercentageReward(uint256)": {
        "notice": "Updates slasher percentage reward for disputing lockers"
      },
      "setTeleBTC(address)": {
        "notice": "Updates teleBTC contract address"
      },
      "setTransferDeadline(uint256)": {
        "notice": "Updates deadline of executing burn requests"
      },
      "setTreasury(address)": {
        "notice": "Updates protocol treasury address"
      }
    },
    "version": 1
  },
  "storageLayout": {
    "storage": [
      {
        "astId": 7,
        "contract": "contracts/routers/CCBurnRouter.sol:CCBurnRouter",
        "label": "_owner",
        "offset": 0,
        "slot": "0",
        "type": "t_address"
      },
      {
        "astId": 114,
        "contract": "contracts/routers/CCBurnRouter.sol:CCBurnRouter",
        "label": "_status",
        "offset": 0,
        "slot": "1",
        "type": "t_uint256"
      },
      {
        "astId": 7560,
        "contract": "contracts/routers/CCBurnRouter.sol:CCBurnRouter",
        "label": "startingBlockNumber",
        "offset": 0,
        "slot": "2",
        "type": "t_uint256"
      },
      {
        "astId": 7563,
        "contract": "contracts/routers/CCBurnRouter.sol:CCBurnRouter",
        "label": "relay",
        "offset": 0,
        "slot": "3",
        "type": "t_address"
      },
      {
        "astId": 7566,
        "contract": "contracts/routers/CCBurnRouter.sol:CCBurnRouter",
        "label": "lockers",
        "offset": 0,
        "slot": "4",
        "type": "t_address"
      },
      {
        "astId": 7569,
        "contract": "contracts/routers/CCBurnRouter.sol:CCBurnRouter",
        "label": "teleBTC",
        "offset": 0,
        "slot": "5",
        "type": "t_address"
      },
      {
        "astId": 7572,
        "contract": "contracts/routers/CCBurnRouter.sol:CCBurnRouter",
        "label": "treasury",
        "offset": 0,
        "slot": "6",
        "type": "t_address"
      },
      {
        "astId": 7575,
        "contract": "contracts/routers/CCBurnRouter.sol:CCBurnRouter",
        "label": "transferDeadline",
        "offset": 0,
        "slot": "7",
        "type": "t_uint256"
      },
      {
        "astId": 7578,
        "contract": "contracts/routers/CCBurnRouter.sol:CCBurnRouter",
        "label": "protocolPercentageFee",
        "offset": 0,
        "slot": "8",
        "type": "t_uint256"
      },
      {
        "astId": 7581,
        "contract": "contracts/routers/CCBurnRouter.sol:CCBurnRouter",
        "label": "slasherPercentageReward",
        "offset": 0,
        "slot": "9",
        "type": "t_uint256"
      },
      {
        "astId": 7584,
        "contract": "contracts/routers/CCBurnRouter.sol:CCBurnRouter",
        "label": "bitcoinFee",
        "offset": 0,
        "slot": "10",
        "type": "t_uint256"
      },
      {
        "astId": 7590,
        "contract": "contracts/routers/CCBurnRouter.sol:CCBurnRouter",
        "label": "burnRequests",
        "offset": 0,
        "slot": "11",
        "type": "t_mapping(t_address,t_array(t_struct(burnRequest)9296_storage)dyn_storage)"
      },
      {
        "astId": 7594,
        "contract": "contracts/routers/CCBurnRouter.sol:CCBurnRouter",
        "label": "burnRequestCounter",
        "offset": 0,
        "slot": "12",
        "type": "t_mapping(t_address,t_uint256)"
      },
      {
        "astId": 7599,
        "contract": "contracts/routers/CCBurnRouter.sol:CCBurnRouter",
        "label": "isUsedAsBurnProof",
        "offset": 0,
        "slot": "13",
        "type": "t_mapping(t_bytes32,t_bool)"
      }
    ],
    "types": {
      "t_address": {
        "encoding": "inplace",
        "label": "address",
        "numberOfBytes": "20"
      },
      "t_array(t_struct(burnRequest)9296_storage)dyn_storage": {
        "base": "t_struct(burnRequest)9296_storage",
        "encoding": "dynamic_array",
        "label": "struct ICCBurnRouter.burnRequest[]",
        "numberOfBytes": "32"
      },
      "t_bool": {
        "encoding": "inplace",
        "label": "bool",
        "numberOfBytes": "1"
      },
      "t_bytes32": {
        "encoding": "inplace",
        "label": "bytes32",
        "numberOfBytes": "32"
      },
      "t_bytes_storage": {
        "encoding": "bytes",
        "label": "bytes",
        "numberOfBytes": "32"
      },
      "t_enum(ScriptTypes)5762": {
        "encoding": "inplace",
        "label": "enum ScriptTypes",
        "numberOfBytes": "1"
      },
      "t_mapping(t_address,t_array(t_struct(burnRequest)9296_storage)dyn_storage)": {
        "encoding": "mapping",
        "key": "t_address",
        "label": "mapping(address => struct ICCBurnRouter.burnRequest[])",
        "numberOfBytes": "32",
        "value": "t_array(t_struct(burnRequest)9296_storage)dyn_storage"
      },
      "t_mapping(t_address,t_uint256)": {
        "encoding": "mapping",
        "key": "t_address",
        "label": "mapping(address => uint256)",
        "numberOfBytes": "32",
        "value": "t_uint256"
      },
      "t_mapping(t_bytes32,t_bool)": {
        "encoding": "mapping",
        "key": "t_bytes32",
        "label": "mapping(bytes32 => bool)",
        "numberOfBytes": "32",
        "value": "t_bool"
      },
      "t_struct(burnRequest)9296_storage": {
        "encoding": "inplace",
        "label": "struct ICCBurnRouter.burnRequest",
        "members": [
          {
            "astId": 9280,
            "contract": "contracts/routers/CCBurnRouter.sol:CCBurnRouter",
            "label": "amount",
            "offset": 0,
            "slot": "0",
            "type": "t_uint256"
          },
          {
            "astId": 9282,
            "contract": "contracts/routers/CCBurnRouter.sol:CCBurnRouter",
            "label": "burntAmount",
            "offset": 0,
            "slot": "1",
            "type": "t_uint256"
          },
          {
            "astId": 9284,
            "contract": "contracts/routers/CCBurnRouter.sol:CCBurnRouter",
            "label": "sender",
            "offset": 0,
            "slot": "2",
            "type": "t_address"
          },
          {
            "astId": 9286,
            "contract": "contracts/routers/CCBurnRouter.sol:CCBurnRouter",
            "label": "userScript",
            "offset": 0,
            "slot": "3",
            "type": "t_bytes_storage"
          },
          {
            "astId": 9288,
            "contract": "contracts/routers/CCBurnRouter.sol:CCBurnRouter",
            "label": "deadline",
            "offset": 0,
            "slot": "4",
            "type": "t_uint256"
          },
          {
            "astId": 9290,
            "contract": "contracts/routers/CCBurnRouter.sol:CCBurnRouter",
            "label": "isTransferred",
            "offset": 0,
            "slot": "5",
            "type": "t_bool"
          },
          {
            "astId": 9293,
            "contract": "contracts/routers/CCBurnRouter.sol:CCBurnRouter",
            "label": "scriptType",
            "offset": 1,
            "slot": "5",
            "type": "t_enum(ScriptTypes)5762"
          },
          {
            "astId": 9295,
            "contract": "contracts/routers/CCBurnRouter.sol:CCBurnRouter",
            "label": "requestIdOfLocker",
            "offset": 0,
            "slot": "6",
            "type": "t_uint256"
          }
        ],
        "numberOfBytes": "224"
      },
      "t_uint256": {
        "encoding": "inplace",
        "label": "uint256",
        "numberOfBytes": "32"
      }
    }
  }
}