{
  "address": "0x7f6308B66B33ebb38EC414a36D05BE29071D50c5",
  "abi": [
    {
      "inputs": [
        {
          "internalType": "uint256",
          "name": "_startingBlockNumber",
          "type": "uint256"
        },
        {
          "internalType": "address",
          "name": "_relay",
          "type": "address"
        },
        {
          "internalType": "address",
          "name": "_lockers",
          "type": "address"
        },
        {
          "internalType": "address",
          "name": "_treasury",
          "type": "address"
        },
        {
          "internalType": "address",
          "name": "_teleBTC",
          "type": "address"
        },
        {
          "internalType": "uint256",
          "name": "_transferDeadline",
          "type": "uint256"
        },
        {
          "internalType": "uint256",
          "name": "_protocolPercentageFee",
          "type": "uint256"
        },
        {
          "internalType": "uint256",
          "name": "_slasherPercentageReward",
          "type": "uint256"
        },
        {
          "internalType": "uint256",
          "name": "_bitcoinFee",
          "type": "uint256"
        }
      ],
      "stateMutability": "nonpayable",
      "type": "constructor"
    },
    {
      "anonymous": false,
      "inputs": [
        {
          "indexed": true,
          "internalType": "address",
          "name": "userTargetAddress",
          "type": "address"
        },
        {
          "indexed": true,
          "internalType": "address",
          "name": "_lockerTargetAddress",
          "type": "address"
        },
        {
          "indexed": false,
          "internalType": "bytes",
          "name": "lockerLockingScript",
          "type": "bytes"
        },
        {
          "indexed": false,
          "internalType": "uint256",
          "name": "requestIdOfLocker",
          "type": "uint256"
        }
      ],
      "name": "BurnDispute",
      "type": "event"
    },
    {
      "anonymous": false,
      "inputs": [
        {
          "indexed": true,
          "internalType": "address",
          "name": "userTargetAddress",
          "type": "address"
        },
        {
          "indexed": false,
          "internalType": "bytes",
          "name": "userScript",
          "type": "bytes"
        },
        {
          "indexed": false,
          "internalType": "enum ScriptTypes",
          "name": "scriptType",
          "type": "uint8"
        },
        {
          "indexed": false,
          "internalType": "uint256",
          "name": "inputAmount",
          "type": "uint256"
        },
        {
          "indexed": false,
          "internalType": "address",
          "name": "inputToken",
          "type": "address"
        },
        {
          "indexed": false,
          "internalType": "uint256",
          "name": "teleBTCAmount",
          "type": "uint256"
        },
        {
          "indexed": false,
          "internalType": "uint256",
          "name": "burntAmount",
          "type": "uint256"
        },
        {
          "indexed": false,
          "internalType": "address",
          "name": "lockerTargetAddress",
          "type": "address"
        },
        {
          "indexed": false,
          "internalType": "uint256",
          "name": "requestIdOfLocker",
          "type": "uint256"
        },
        {
          "indexed": true,
          "internalType": "uint256",
          "name": "deadline",
          "type": "uint256"
        }
      ],
      "name": "CCBurn",
      "type": "event"
    },
    {
      "anonymous": false,
      "inputs": [
        {
          "indexed": false,
          "internalType": "address",
          "name": "_lockerTargetAddress",
          "type": "address"
        },
        {
          "indexed": false,
          "internalType": "bytes",
          "name": "lockerLockingScript",
          "type": "bytes"
        },
        {
          "indexed": false,
          "internalType": "uint256",
          "name": "_blockNumber",
          "type": "uint256"
        },
        {
          "indexed": false,
          "internalType": "bytes32",
          "name": "txId",
          "type": "bytes32"
        },
        {
          "indexed": false,
          "internalType": "uint256",
          "name": "amount",
          "type": "uint256"
        }
      ],
      "name": "LockerDispute",
      "type": "event"
    },
    {
      "anonymous": false,
      "inputs": [
        {
          "indexed": false,
          "internalType": "uint256",
          "name": "oldBitcoinFee",
          "type": "uint256"
        },
        {
          "indexed": false,
          "internalType": "uint256",
          "name": "newBitcoinFee",
          "type": "uint256"
        }
      ],
      "name": "NewBitcoinFee",
      "type": "event"
    },
    {
      "anonymous": false,
      "inputs": [
        {
          "indexed": false,
          "internalType": "address",
          "name": "oldLockers",
          "type": "address"
        },
        {
          "indexed": false,
          "internalType": "address",
          "name": "newLockers",
          "type": "address"
        }
      ],
      "name": "NewLockers",
      "type": "event"
    },
    {
      "anonymous": false,
      "inputs": [
        {
          "indexed": false,
          "internalType": "uint256",
          "name": "oldProtocolPercentageFee",
          "type": "uint256"
        },
        {
          "indexed": false,
          "internalType": "uint256",
          "name": "newProtocolPercentageFee",
          "type": "uint256"
        }
      ],
      "name": "NewProtocolPercentageFee",
      "type": "event"
    },
    {
      "anonymous": false,
      "inputs": [
        {
          "indexed": false,
          "internalType": "address",
          "name": "oldRelay",
          "type": "address"
        },
        {
          "indexed": false,
          "internalType": "address",
          "name": "newRelay",
          "type": "address"
        }
      ],
      "name": "NewRelay",
      "type": "event"
    },
    {
      "anonymous": false,
      "inputs": [
        {
          "indexed": false,
          "internalType": "uint256",
          "name": "oldSlasherPercentageFee",
          "type": "uint256"
        },
        {
          "indexed": false,
          "internalType": "uint256",
          "name": "newSlasherPercentageFee",
          "type": "uint256"
        }
      ],
      "name": "NewSlasherPercentageFee",
      "type": "event"
    },
    {
      "anonymous": false,
      "inputs": [
        {
          "indexed": false,
          "internalType": "address",
          "name": "oldTeleBTC",
          "type": "address"
        },
        {
          "indexed": false,
          "internalType": "address",
          "name": "newTeleBTC",
          "type": "address"
        }
      ],
      "name": "NewTeleBTC",
      "type": "event"
    },
    {
      "anonymous": false,
      "inputs": [
        {
          "indexed": false,
          "internalType": "uint256",
          "name": "oldTransferDeadline",
          "type": "uint256"
        },
        {
          "indexed": false,
          "internalType": "uint256",
          "name": "newTransferDeadline",
          "type": "uint256"
        }
      ],
      "name": "NewTransferDeadline",
      "type": "event"
    },
    {
      "anonymous": false,
      "inputs": [
        {
          "indexed": false,
          "internalType": "address",
          "name": "oldTreasury",
          "type": "address"
        },
        {
          "indexed": false,
          "internalType": "address",
          "name": "newTreasury",
          "type": "address"
        }
      ],
      "name": "NewTreasury",
      "type": "event"
    },
    {
      "anonymous": false,
      "inputs": [
        {
          "indexed": true,
          "internalType": "address",
          "name": "previousOwner",
          "type": "address"
        },
        {
          "indexed": true,
          "internalType": "address",
          "name": "newOwner",
          "type": "address"
        }
      ],
      "name": "OwnershipTransferred",
      "type": "event"
    },
    {
      "anonymous": false,
      "inputs": [
        {
          "indexed": true,
          "internalType": "address",
          "name": "lockerTargetAddress",
          "type": "address"
        },
        {
          "indexed": false,
          "internalType": "uint256",
          "name": "requestIdOfLocker",
          "type": "uint256"
        },
        {
          "indexed": false,
          "internalType": "bytes32",
          "name": "bitcoinTxId",
          "type": "bytes32"
        },
        {
          "indexed": false,
          "internalType": "uint256",
          "name": "bitcoinTxOutputIndex",
          "type": "uint256"
        }
      ],
      "name": "PaidCCBurn",
      "type": "event"
    },
    {
      "inputs": [],
      "name": "bitcoinFee",
      "outputs": [
        {
          "internalType": "uint256",
          "name": "",
          "type": "uint256"
        }
      ],
      "stateMutability": "view",
      "type": "function"
    },
    {
      "inputs": [
        {
          "internalType": "bytes4",
          "name": "_version",
          "type": "bytes4"
        },
        {
          "internalType": "bytes",
          "name": "_vin",
          "type": "bytes"
        },
        {
          "internalType": "bytes",
          "name": "_vout",
          "type": "bytes"
        },
        {
          "internalType": "bytes4",
          "name": "_locktime",
          "type": "bytes4"
        },
        {
          "internalType": "uint256",
          "name": "_blockNumber",
          "type": "uint256"
        },
        {
          "internalType": "bytes",
          "name": "_intermediateNodes",
          "type": "bytes"
        },
        {
          "internalType": "uint256",
          "name": "_index",
          "type": "uint256"
        },
        {
          "internalType": "bytes",
          "name": "_lockerLockingScript",
          "type": "bytes"
        },
        {
          "internalType": "uint256[]",
          "name": "_burnReqIndexes",
          "type": "uint256[]"
        },
        {
          "internalType": "uint256[]",
          "name": "_voutIndexes",
          "type": "uint256[]"
        }
      ],
      "name": "burnProof",
      "outputs": [
        {
          "internalType": "bool",
          "name": "",
          "type": "bool"
        }
      ],
      "stateMutability": "payable",
      "type": "function"
    },
    {
      "inputs": [
        {
          "internalType": "address",
          "name": "",
          "type": "address"
        }
      ],
      "name": "burnRequestCounter",
      "outputs": [
        {
          "internalType": "uint256",
          "name": "",
          "type": "uint256"
        }
      ],
      "stateMutability": "view",
      "type": "function"
    },
    {
      "inputs": [
        {
          "internalType": "address",
          "name": "",
          "type": "address"
        },
        {
          "internalType": "uint256",
          "name": "",
          "type": "uint256"
        }
      ],
      "name": "burnRequests",
      "outputs": [
        {
          "internalType": "uint256",
          "name": "amount",
          "type": "uint256"
        },
        {
          "internalType": "uint256",
          "name": "burntAmount",
          "type": "uint256"
        },
        {
          "internalType": "address",
          "name": "sender",
          "type": "address"
        },
        {
          "internalType": "bytes",
          "name": "userScript",
          "type": "bytes"
        },
        {
          "internalType": "uint256",
          "name": "deadline",
          "type": "uint256"
        },
        {
          "internalType": "bool",
          "name": "isTransferred",
          "type": "bool"
        },
        {
          "internalType": "enum ScriptTypes",
          "name": "scriptType",
          "type": "uint8"
        },
        {
          "internalType": "uint256",
          "name": "requestIdOfLocker",
          "type": "uint256"
        }
      ],
      "stateMutability": "view",
      "type": "function"
    },
    {
      "inputs": [
        {
          "internalType": "uint256",
          "name": "_amount",
          "type": "uint256"
        },
        {
          "internalType": "bytes",
          "name": "_userScript",
          "type": "bytes"
        },
        {
          "internalType": "enum ScriptTypes",
          "name": "_scriptType",
          "type": "uint8"
        },
        {
          "internalType": "bytes",
          "name": "_lockerLockingScript",
          "type": "bytes"
        }
      ],
      "name": "ccBurn",
      "outputs": [],
      "stateMutability": "nonpayable",
      "type": "function"
    },
    {
      "inputs": [
        {
          "internalType": "address",
          "name": "_exchangeConnector",
          "type": "address"
        },
        {
          "internalType": "uint256[]",
          "name": "_amounts",
          "type": "uint256[]"
        },
        {
          "internalType": "bool",
          "name": "_isFixedToken",
          "type": "bool"
        },
        {
          "internalType": "address[]",
          "name": "_path",
          "type": "address[]"
        },
        {
          "internalType": "uint256",
          "name": "_deadline",
          "type": "uint256"
        },
        {
          "internalType": "bytes",
          "name": "_userScript",
          "type": "bytes"
        },
        {
          "internalType": "enum ScriptTypes",
          "name": "_scriptType",
          "type": "uint8"
        },
        {
          "internalType": "bytes",
          "name": "_lockerLockingScript",
          "type": "bytes"
        }
      ],
      "name": "ccExchangeAndBurn",
      "outputs": [],
      "stateMutability": "nonpayable",
      "type": "function"
    },
    {
      "inputs": [
        {
          "internalType": "bytes",
          "name": "_lockerLockingScript",
          "type": "bytes"
        },
        {
          "internalType": "uint256[]",
          "name": "_indices",
          "type": "uint256[]"
        }
      ],
      "name": "disputeBurn",
      "outputs": [
        {
          "internalType": "bool",
          "name": "",
          "type": "bool"
        }
      ],
      "stateMutability": "nonpayable",
      "type": "function"
    },
    {
      "inputs": [
        {
          "internalType": "bytes",
          "name": "_lockerLockingScript",
          "type": "bytes"
        },
        {
          "internalType": "bytes4[]",
          "name": "_versions",
          "type": "bytes4[]"
        },
        {
          "internalType": "bytes",
          "name": "_inputVin",
          "type": "bytes"
        },
        {
          "internalType": "bytes",
          "name": "_inputVout",
          "type": "bytes"
        },
        {
          "internalType": "bytes",
          "name": "_outputVin",
          "type": "bytes"
        },
        {
          "internalType": "bytes",
          "name": "_outputVout",
          "type": "bytes"
        },
        {
          "internalType": "bytes4[]",
          "name": "_locktimes",
          "type": "bytes4[]"
        },
        {
          "internalType": "bytes",
          "name": "_inputIntermediateNodes",
          "type": "bytes"
        },
        {
          "internalType": "uint256[]",
          "name": "_indexesAndBlockNumbers",
          "type": "uint256[]"
        }
      ],
      "name": "disputeLocker",
      "outputs": [
        {
          "internalType": "bool",
          "name": "",
          "type": "bool"
        }
      ],
      "stateMutability": "payable",
      "type": "function"
    },
    {
      "inputs": [],
      "name": "fixTransferDeadline",
      "outputs": [],
      "stateMutability": "nonpayable",
      "type": "function"
    },
    {
      "inputs": [
        {
          "internalType": "address",
          "name": "_lockerTargetAddress",
          "type": "address"
        },
        {
          "internalType": "uint256",
          "name": "_index",
          "type": "uint256"
        }
      ],
      "name": "isTransferred",
      "outputs": [
        {
          "internalType": "bool",
          "name": "",
          "type": "bool"
        }
      ],
      "stateMutability": "view",
      "type": "function"
    },
    {
      "inputs": [
        {
          "internalType": "bytes32",
          "name": "",
          "type": "bytes32"
        }
      ],
      "name": "isUsedAsBurnProof",
      "outputs": [
        {
          "internalType": "bool",
          "name": "",
          "type": "bool"
        }
      ],
      "stateMutability": "view",
      "type": "function"
    },
    {
      "inputs": [],
      "name": "lockers",
      "outputs": [
        {
          "internalType": "address",
          "name": "",
          "type": "address"
        }
      ],
      "stateMutability": "view",
      "type": "function"
    },
    {
      "inputs": [],
      "name": "owner",
      "outputs": [
        {
          "internalType": "address",
          "name": "",
          "type": "address"
        }
      ],
      "stateMutability": "view",
      "type": "function"
    },
    {
      "inputs": [],
      "name": "protocolPercentageFee",
      "outputs": [
        {
          "internalType": "uint256",
          "name": "",
          "type": "uint256"
        }
      ],
      "stateMutability": "view",
      "type": "function"
    },
    {
      "inputs": [],
      "name": "relay",
      "outputs": [
        {
          "internalType": "address",
          "name": "",
          "type": "address"
        }
      ],
      "stateMutability": "view",
      "type": "function"
    },
    {
      "inputs": [],
      "name": "renounceOwnership",
      "outputs": [],
      "stateMutability": "nonpayable",
      "type": "function"
    },
    {
      "inputs": [
        {
          "internalType": "uint256",
          "name": "_bitcoinFee",
          "type": "uint256"
        }
      ],
      "name": "setBitcoinFee",
      "outputs": [],
      "stateMutability": "nonpayable",
      "type": "function"
    },
    {
      "inputs": [
        {
          "internalType": "address",
          "name": "_lockers",
          "type": "address"
        }
      ],
      "name": "setLockers",
      "outputs": [],
      "stateMutability": "nonpayable",
      "type": "function"
    },
    {
      "inputs": [
        {
          "internalType": "uint256",
          "name": "_protocolPercentageFee",
          "type": "uint256"
        }
      ],
      "name": "setProtocolPercentageFee",
      "outputs": [],
      "stateMutability": "nonpayable",
      "type": "function"
    },
    {
      "inputs": [
        {
          "internalType": "address",
          "name": "_relay",
          "type": "address"
        }
      ],
      "name": "setRelay",
      "outputs": [],
      "stateMutability": "nonpayable",
      "type": "function"
    },
    {
      "inputs": [
        {
          "internalType": "uint256",
          "name": "_slasherPercentageReward",
          "type": "uint256"
        }
      ],
      "name": "setSlasherPercentageReward",
      "outputs": [],
      "stateMutability": "nonpayable",
      "type": "function"
    },
    {
      "inputs": [
        {
          "internalType": "address",
          "name": "_teleBTC",
          "type": "address"
        }
      ],
      "name": "setTeleBTC",
      "outputs": [],
      "stateMutability": "nonpayable",
      "type": "function"
    },
    {
      "inputs": [
        {
          "internalType": "uint256",
          "name": "_transferDeadline",
          "type": "uint256"
        }
      ],
      "name": "setTransferDeadline",
      "outputs": [],
      "stateMutability": "nonpayable",
      "type": "function"
    },
    {
      "inputs": [
        {
          "internalType": "address",
          "name": "_treasury",
          "type": "address"
        }
      ],
      "name": "setTreasury",
      "outputs": [],
      "stateMutability": "nonpayable",
      "type": "function"
    },
    {
      "inputs": [],
      "name": "slasherPercentageReward",
      "outputs": [
        {
          "internalType": "uint256",
          "name": "",
          "type": "uint256"
        }
      ],
      "stateMutability": "view",
      "type": "function"
    },
    {
      "inputs": [],
      "name": "startingBlockNumber",
      "outputs": [
        {
          "internalType": "uint256",
          "name": "",
          "type": "uint256"
        }
      ],
      "stateMutability": "view",
      "type": "function"
    },
    {
      "inputs": [],
      "name": "teleBTC",
      "outputs": [
        {
          "internalType": "address",
          "name": "",
          "type": "address"
        }
      ],
      "stateMutability": "view",
      "type": "function"
    },
    {
      "inputs": [],
      "name": "transferDeadline",
      "outputs": [
        {
          "internalType": "uint256",
          "name": "",
          "type": "uint256"
        }
      ],
      "stateMutability": "view",
      "type": "function"
    },
    {
      "inputs": [
        {
          "internalType": "address",
          "name": "newOwner",
          "type": "address"
        }
      ],
      "name": "transferOwnership",
      "outputs": [],
      "stateMutability": "nonpayable",
      "type": "function"
    },
    {
      "inputs": [],
      "name": "treasury",
      "outputs": [
        {
          "internalType": "address",
          "name": "",
          "type": "address"
        }
      ],
      "stateMutability": "view",
      "type": "function"
    },
    {
      "stateMutability": "payable",
      "type": "receive"
    }
  ],
  "transactionHash": "0x0b93badb85bc19f3ef9981305354da6748ed0b42c2cd42a4cfb98cde96e2195c",
  "args": [
    777121,
    "0xc7a7C6AB475138565FE0D2476EE4616862Bf2467",
    "0xf5D6D369A7F4147F720AEAdd4C4f903aE8046166",
    "0x5364E3557572bd5D5903C0e9C21BE359F2Eac1dA",
    "0x515D720B9D219f1931205D5B8D842bE1Fe2FeBDE",
    72,
    5,
    500,
    10000
  ],
  "numDeployments": 1,
  "solcInputHash": "bee1715e2817f71dbb76d82f3b75c258",
  "bytecode": "0x60806040523480156200001157600080fd5b506040516200668c3803806200668c8339810160408190526200003491620006d6565b6200003f33620000af565b6001805560028990556200005388620000ff565b6200005e87620001b5565b620000698662000267565b620000748562000319565b6200007f84620003cb565b6200008a83620004e1565b620000958262000576565b620000a0816200060b565b50505050505050505062000763565b600080546001600160a01b038381166001600160a01b0319831681178455604051919092169283917f8be0079c531659141344cd1fd0a4f28419497f9722a3daafe3b4186f6b6457e09190a35050565b806001600160a01b0381166200014b5760405162461bcd60e51b815260206004820152601a60248201526000805160206200666c83398151915260448201526064015b60405180910390fd5b600354604080516001600160a01b03928316815291841660208301527f4c28a3f61a715259c4dc930c23e7423b8fa52e13232c061a6e488729c66184f4910160405180910390a150600380546001600160a01b0319166001600160a01b0392909216919091179055565b806001600160a01b038116620001fd5760405162461bcd60e51b815260206004820152601a60248201526000805160206200666c833981519152604482015260640162000142565b600454604080516001600160a01b03928316815291841660208301527ffa021c2ec0f46429a53e7f88b88065e40001f50c9d38b2e8b713beaf9828d4c3910160405180910390a150600480546001600160a01b0319166001600160a01b0392909216919091179055565b806001600160a01b038116620002af5760405162461bcd60e51b815260206004820152601a60248201526000805160206200666c833981519152604482015260640162000142565b600654604080516001600160a01b03928316815291841660208301527f567657fa3f286518b318f4a29870674f433f622fdfc819691acb13105b228225910160405180910390a150600680546001600160a01b0319166001600160a01b0392909216919091179055565b806001600160a01b038116620003615760405162461bcd60e51b815260206004820152601a60248201526000805160206200666c833981519152604482015260640162000142565b600554604080516001600160a01b03928316815291841660208301527f36a4c08a38b736dcecb6c328dba61238529620e83ccb23db2cc43cd34ec26096910160405180910390a150600580546001600160a01b0319166001600160a01b0392909216919091179055565b60035460408051630a072bc560e41b815290516000926001600160a01b03169163a072bc50916004808301926020929190829003018186803b1580156200041157600080fd5b505afa15801562000426573d6000803e3d6000fd5b505050506040513d601f19601f820116820180604052508101906200044c9190620006bd565b90508082116200049f5760405162461bcd60e51b815260206004820152601a60248201527f43434275726e526f757465723a206c6f7720646561646c696e65000000000000604482015260640162000142565b60075460408051918252602082018490527f92c10a242ca42973030420e2ee32b3ba7818cc643f896958f620c606cf300416910160405180910390a150600755565b806127101015620005355760405162461bcd60e51b815260206004820152601960248201527f43434275726e526f757465723a20696e76616c69642066656500000000000000604482015260640162000142565b60085460408051918252602082018390527f7d205f60891f60851c61cd244ba387d72b6589e7c0ac41b9d909ab0ce2c2a53b910160405180910390a1600855565b806127101015620005ca5760405162461bcd60e51b815260206004820152601c60248201527f43434275726e526f757465723a20696e76616c69642072657761726400000000604482015260640162000142565b60095460408051918252602082018390527faa50b3683e42a13535a5b9c2c32780cccf956fb546b523a3542ac4ad8b544f67910160405180910390a1600955565b600a5460408051918252602082018390527f47c5f9c13c35ebb166f6a8d8c56af73f8b323ac0fee7aec4a5e0490bbf67a4fe910160405180910390a18061271010156200069b5760405162461bcd60e51b815260206004820152601d60248201527f43434275726e526f757465723a20696e76616c69642062746320666565000000604482015260640162000142565b600a55565b80516001600160a01b0381168114620006b857600080fd5b919050565b600060208284031215620006cf578081fd5b5051919050565b60008060008060008060008060006101208a8c031215620006f5578485fd5b895198506200070760208b01620006a0565b97506200071760408b01620006a0565b96506200072760608b01620006a0565b95506200073760808b01620006a0565b945060a08a0151935060c08a0151925060e08a015191506101008a015190509295985092959850929598565b615ef980620007736000396000f3fe6080604052600436106101d15760003560e01c80638d3d78cd116100f7578063bed6a60211610095578063ea73263711610064578063ea73263714610520578063f0f4426014610533578063f2fde38b14610553578063f47e224014610573576101d8565b8063bed6a602146104b7578063c780c03f146104cd578063c805f68b146104e0578063cdbe374114610500576101d8565b8063930a60e8116100d1578063930a60e814610434578063b14d353214610461578063b59589d114610481578063b74d0d35146104a1576101d8565b80638d3d78cd146103d65780638d774f8e146103f65780638da5cb5b14610416576101d8565b80635c4f5f3e1161016f57806373532b2a1161013e57806373532b2a146103565780637ed55748146103765780637f0f1817146103965780637ffe9a92146103b6576101d8565b80635c4f5f3e146102eb57806361d027b31461030b57806370872aa51461032b578063715018a614610341576101d8565b80631e236168116101ab5780631e23616814610255578063419cba7f1461029557806343149dba146102ab5780634782bc36146102cb576101d8565b80630e5811a8146101dd5780631812adb6146101f45780631876dec41461021d576101d8565b366101d857005b600080fd5b3480156101e957600080fd5b506101f26105a7565b005b34801561020057600080fd5b5061020a60085481565b6040519081526020015b60405180910390f35b34801561022957600080fd5b5060045461023d906001600160a01b031681565b6040516001600160a01b039091168152602001610214565b34801561026157600080fd5b5061028561027036600461549c565b600d6020526000908152604090205460ff1681565b6040519015158152602001610214565b3480156102a157600080fd5b5061020a60095481565b3480156102b757600080fd5b506101f26102c63660046157b0565b6106a4565b3480156102d757600080fd5b506101f26102e636600461549c565b61088f565b3480156102f757600080fd5b506101f261030636600461549c565b6108c5565b34801561031757600080fd5b5060065461023d906001600160a01b031681565b34801561033757600080fd5b5061020a60025481565b34801561034d57600080fd5b506101f26108f8565b34801561036257600080fd5b506102856103713660046155f1565b610924565b34801561038257600080fd5b506101f261039136600461549c565b611074565b3480156103a257600080fd5b506101f26103b136600461527b565b6110a7565b3480156103c257600080fd5b506102856103d13660046153af565b6110da565b3480156103e257600080fd5b5060055461023d906001600160a01b031681565b34801561040257600080fd5b506101f26104113660046152b3565b611132565b34801561042257600080fd5b506000546001600160a01b031661023d565b34801561044057600080fd5b5061020a61044f36600461527b565b600c6020526000908152604090205481565b34801561046d57600080fd5b506101f261047c36600461527b565b6111ea565b34801561048d57600080fd5b5060035461023d906001600160a01b031681565b3480156104ad57600080fd5b5061020a600a5481565b3480156104c357600080fd5b5061020a60075481565b6102856104db366004615656565b61121d565b3480156104ec57600080fd5b506101f26104fb36600461527b565b611839565b34801561050c57600080fd5b506101f261051b36600461549c565b61186c565b61028561052e3660046154cc565b61189f565b34801561053f57600080fd5b506101f261054e36600461527b565b611c0d565b34801561055f57600080fd5b506101f261056e36600461527b565b611c40565b34801561057f57600080fd5b5061059361058e3660046153af565b611cd8565b604051610214989796959493929190615b93565b60035460408051630a072bc560e41b815290516000926001600160a01b03169163a072bc50916004808301926020929190829003018186803b1580156105ec57600080fd5b505afa158015610600573d6000803e3d6000fd5b505050506040513d601f19601f8201168201806040525081019061062491906154b4565b905060075481111561067d5760405162461bcd60e51b815260206004820152601a60248201527f43434275726e526f757465723a206c6f7720646561646c696e6500000000000060448201526064015b60405180910390fd5b600061068a826002615d72565b610695906001615cc8565b90506106a081611dd5565b5050565b600260015414156106c75760405162461bcd60e51b815260040161067490615b5c565b60026001556005546001600160a01b03166323b872dd336040516001600160e01b031960e084901b1681526001600160a01b03909116600482015230602482015260448101889052606401602060405180830381600087803b15801561072c57600080fd5b505af1158015610740573d6000803e3d6000fd5b505050506040513d601f19601f8201168201806040525081019061076491906153da565b506000806107758787878787611ee5565b6001600160a01b0381166000908152600b602052604090208054929450909250906107a290600190615dba565b815481106107c057634e487b7160e01b600052603260045260246000fd5b9060005260206000209060070201600401546107d93390565b6001600160a01b038381166000908152600b60205260408120805493909216927fc19dabf19fdfd8c6124bed2178a4564d0c5d5812bfb916777cc90d1b53ed5a5a928b928b92909182918f918b918b919061083690600190615dba565b8154811061085457634e487b7160e01b600052603260045260246000fd5b90600052602060002090600702016006015460405161087a9897969594939291906159e3565b60405180910390a35050600180555050505050565b6000546001600160a01b031633146108b95760405162461bcd60e51b815260040161067490615ae6565b6108c2816121f4565b50565b6000546001600160a01b031633146108ef5760405162461bcd60e51b815260040161067490615ae6565b6108c281611dd5565b6000546001600160a01b031633146109225760405162461bcd60e51b815260040161067490615ae6565b565b6000600260015414156109495760405162461bcd60e51b815260040161067490615b5c565b60026001556004805460405163aff2faa360e01b81526001600160a01b039091169163aff2faa39161097f918891889101615998565b60206040518083038186803b15801561099757600080fd5b505afa1580156109ab573d6000803e3d6000fd5b505050506040513d601f19601f820116820180604052508101906109cf91906153da565b6109eb5760405162461bcd60e51b815260040161067490615aaf565b6004805460405163626885b560e11b81526000926001600160a01b039092169163c4d10b6a91610a1f918991899101615998565b60206040518083038186803b158015610a3757600080fd5b505afa158015610a4b573d6000803e3d6000fd5b505050506040513d601f19601f82011682018060405250810190610a6f9190615297565b90506000600360009054906101000a90046001600160a01b03166001600160a01b0316632f796d906040518163ffffffff1660e01b815260040160206040518083038186803b158015610ac157600080fd5b505afa158015610ad5573d6000803e3d6000fd5b505050506040513d601f19601f82011682018060405250810190610af991906154b4565b905060005b8451811015611064576001600160a01b0383166000908152600b602052604090208551869083908110610b4157634e487b7160e01b600052603260045260246000fd5b602002602001015181548110610b6757634e487b7160e01b600052603260045260246000fd5b600091825260209091206005600790920201015460ff1615610bcb5760405162461bcd60e51b815260206004820152601a60248201527f43434275726e526f757465723a20616c726561647920706169640000000000006044820152606401610674565b6001600160a01b0383166000908152600b602052604090208551839190879084908110610c0857634e487b7160e01b600052603260045260246000fd5b602002602001015181548110610c2e57634e487b7160e01b600052603260045260246000fd5b90600052602060002090600702016004015410610c5d5760405162461bcd60e51b815260040161067490615b1b565b6001600160a01b0383166000908152600b60205260409020855160019190879084908110610c9b57634e487b7160e01b600052603260045260246000fd5b602002602001015181548110610cc157634e487b7160e01b600052603260045260246000fd5b60009182526020808320600792909202909101600501805460ff1916931515939093179092556004546009546001600160a01b038781168452600b909452604090922088519390911692631697565b928792612710928b9088908110610d3757634e487b7160e01b600052603260045260246000fd5b602002602001015181548110610d5d57634e487b7160e01b600052603260045260246000fd5b906000526020600020906007020160000154610d799190615d72565b610d839190615d52565b336001600160a01b0388166000908152600b602052604090208a518b9088908110610dbe57634e487b7160e01b600052603260045260246000fd5b602002602001015181548110610de457634e487b7160e01b600052603260045260246000fd5b906000526020600020906007020160000154600b60008a6001600160a01b03166001600160a01b031681526020019081526020016000208b8881518110610e3b57634e487b7160e01b600052603260045260246000fd5b602002602001015181548110610e6157634e487b7160e01b600052603260045260246000fd5b600091825260209091206007909102016002015460405160e087901b6001600160e01b03191681526001600160a01b03958616600482015260248101949094529184166044840152606483015291909116608482015260a401602060405180830381600087803b158015610ed457600080fd5b505af1158015610ee8573d6000803e3d6000fd5b505050506040513d601f19601f82011682018060405250810190610f0c91906153da565b506001600160a01b0383166000818152600b602052604090208651879084908110610f4757634e487b7160e01b600052603260045260246000fd5b602002602001015181548110610f6d57634e487b7160e01b600052603260045260246000fd5b906000526020600020906007020160020160009054906101000a90046001600160a01b03166001600160a01b03167f58c23b4ae0617be275628875bcfd65759a441263099a256eeb27899fb5dd846d8989600b6000896001600160a01b03166001600160a01b031681526020019081526020016000208a878151811061100357634e487b7160e01b600052603260045260246000fd5b60200260200101518154811061102957634e487b7160e01b600052603260045260246000fd5b90600052602060002090600702016006015460405161104a939291906159ac565b60405180910390a38061105c81615e59565b915050610afe565b5050600180805595945050505050565b6000546001600160a01b0316331461109e5760405162461bcd60e51b815260040161067490615ae6565b6108c281612287565b6000546001600160a01b031633146110d15760405162461bcd60e51b815260040161067490615ae6565b6108c28161231a565b6001600160a01b0382166000908152600b6020526040812080548390811061111257634e487b7160e01b600052603260045260246000fd5b600091825260209091206005600790920201015460ff1690505b92915050565b600260015414156111555760405162461bcd60e51b815260040161067490615b5c565b6002600155600061116b8c8c8c8c8c8c8c6123ab565b90506111d88b8b600081811061119157634e487b7160e01b600052603260045260246000fd5b90506020020135898960008181106111b957634e487b7160e01b600052603260045260246000fd5b90506020020160208101906111ce919061527b565b838888888861270a565b50506001805550505050505050505050565b6000546001600160a01b031633146112145760405162461bcd60e51b815260040161067490615ae6565b6108c281612831565b6000600260015414156112425760405162461bcd60e51b815260040161067490615b5c565b600260018190558951148015611259575083516002145b8015611266575081516003145b6112b25760405162461bcd60e51b815260206004820152601a60248201527f43434275726e526f757465723a2077726f6e6720696e707574730000000000006044820152606401610674565b600254826002815181106112d657634e487b7160e01b600052603260045260246000fd5b602002602001015110156113285760405162461bcd60e51b815260206004820152601960248201527810d0d09d5c9b949bdd5d195c8e881bdb19081c995c5d595cdd603a1b6044820152606401610674565b6004805460405163aff2faa360e01b81526001600160a01b039091169163aff2faa391611357918e91016159d0565b60206040518083038186803b15801561136f57600080fd5b505afa158015611383573d6000803e3d6000fd5b505050506040513d601f19601f820116820180604052508101906113a791906153da565b6113c35760405162461bcd60e51b815260040161067490615aaf565b60006114218a6000815181106113e957634e487b7160e01b600052603260045260246000fd5b60200260200101518a8a8860008151811061141457634e487b7160e01b600052603260045260246000fd5b60200260200101516128c2565b905073b0C3b1392E32E0d55F127783256c2a1c83106B6B637ebc2327600360009054906101000a90046001600160a01b0316838660028151811061147557634e487b7160e01b600052603260045260246000fd5b6020026020010151888860018151811061149f57634e487b7160e01b600052603260045260246000fd5b60200260200101516040518663ffffffff1660e01b81526004016114c7959493929190615918565b60206040518083038186803b1580156114df57600080fd5b505af41580156114f3573d6000803e3d6000fd5b505050506040513d601f19601f8201168201806040525081019061151791906153da565b6115635760405162461bcd60e51b815260206004820152601b60248201527f43434275726e526f757465723a206e6f742066696e616c697a656400000000006044820152606401610674565b6000818152600d602052604090205460ff16156115c25760405162461bcd60e51b815260206004820152601a60248201527f43434275726e526f757465723a20616c726561647920757365640000000000006044820152606401610674565b6000818152600d60205260408120805460ff1916600117905583518190611610908c908790849061160357634e487b7160e01b600052603260045260246000fd5b60200260200101516129b8565b915091506116638c60018151811061163857634e487b7160e01b600052603260045260246000fd5b60200260200101518a8a8a60018151811061141457634e487b7160e01b600052603260045260246000fd5b82146116b15760405162461bcd60e51b815260206004820152601d60248201527f43434275726e526f757465723a2077726f6e67206f75747075742074780000006044820152606401610674565b8c5160208e01206116c28983612a67565b80519060200120146117165760405162461bcd60e51b815260206004820152601c60248201527f43434275726e526f757465723a206e6f7420666f72206c6f636b6572000000006044820152606401610674565b8460028151811061173757634e487b7160e01b600052603260045260246000fd5b602002602001015160075461174c9190615cc8565b600360009054906101000a90046001600160a01b03166001600160a01b0316632f796d906040518163ffffffff1660e01b815260040160206040518083038186803b15801561179a57600080fd5b505afa1580156117ae573d6000803e3d6000fd5b505050506040513d601f19601f820116820180604052508101906117d291906154b4565b116117ef5760405162461bcd60e51b815260040161067490615b1b565b6118238a8e858860028151811061181657634e487b7160e01b600052603260045260246000fd5b6020026020010151612adb565b505060018080559b9a5050505050505050505050565b6000546001600160a01b031633146118635760405162461bcd60e51b815260040161067490615ae6565b6108c281612ca6565b6000546001600160a01b031633146118965760405162461bcd60e51b815260040161067490615ae6565b6108c281612d37565b6000600260015414156118c45760405162461bcd60e51b815260040161067490615b5c565b60026001819055548710156119175760405162461bcd60e51b815260206004820152601960248201527810d0d09d5c9b949bdd5d195c8e881bdb19081c995c5d595cdd603a1b6044820152606401610674565b6001600160e01b031988161561196f5760405162461bcd60e51b815260206004820181905260248201527f43434275726e526f757465723a206e6f6e2d7a65726f206c6f636b2074696d656044820152606401610674565b6004805460405163aff2faa360e01b81526001600160a01b039091169163aff2faa39161199e918891016159d0565b60206040518083038186803b1580156119b657600080fd5b505afa1580156119ca573d6000803e3d6000fd5b505050506040513d601f19601f820116820180604052508101906119ee91906153da565b611a0a5760405162461bcd60e51b815260040161067490615aaf565b6004805460405163626885b560e11b81526000926001600160a01b039092169163c4d10b6a91611a3c918991016159d0565b60206040518083038186803b158015611a5457600080fd5b505afa158015611a68573d6000803e3d6000fd5b505050506040513d601f19601f82011682018060405250810190611a8c9190615297565b90508251845114611adf5760405162461bcd60e51b815260206004820152601b60248201527f43434275726e526f757465723a2077726f6e6720696e646578657300000000006044820152606401610674565b6000611aed8d8d8d8d6128c2565b600354604051637ebc232760e01b815291925073b0C3b1392E32E0d55F127783256c2a1c83106B6B91637ebc232791611b3c916001600160a01b039091169085908e908e908e90600401615918565b60206040518083038186803b158015611b5457600080fd5b505af4158015611b68573d6000803e3d6000fd5b505050506040513d601f19601f82011682018060405250810190611b8c91906153da565b611bd85760405162461bcd60e51b815260206004820152601b60248201527f43434275726e526f757465723a206e6f742066696e616c697a656400000000006044820152606401610674565b6000611be8828b858f8a8a612dca565b9050611bf6818d89856132f9565b505060018080559c9b505050505050505050505050565b6000546001600160a01b03163314611c375760405162461bcd60e51b815260040161067490615ae6565b6108c281613382565b6000546001600160a01b03163314611c6a5760405162461bcd60e51b815260040161067490615ae6565b6001600160a01b038116611ccf5760405162461bcd60e51b815260206004820152602660248201527f4f776e61626c653a206e6577206f776e657220697320746865207a65726f206160448201526564647265737360d01b6064820152608401610674565b6108c281613413565b600b6020528160005260406000208181548110611cf457600080fd5b600091825260209091206007909102018054600182015460028301546003840180549396509194506001600160a01b03169291611d3090615e24565b80601f0160208091040260200160405190810160405280929190818152602001828054611d5c90615e24565b8015611da95780601f10611d7e57610100808354040283529160200191611da9565b820191906000526020600020905b815481529060010190602001808311611d8c57829003601f168201915b505050600484015460058501546006909501549394909360ff8083169450610100909204909116915088565b60035460408051630a072bc560e41b815290516000926001600160a01b03169163a072bc50916004808301926020929190829003018186803b158015611e1a57600080fd5b505afa158015611e2e573d6000803e3d6000fd5b505050506040513d601f19601f82011682018060405250810190611e5291906154b4565b9050808211611ea35760405162461bcd60e51b815260206004820152601a60248201527f43434275726e526f757465723a206c6f7720646561646c696e650000000000006044820152606401610674565b60075460408051918252602082018490527f92c10a242ca42973030420e2ee32b3ba7818cc643f896958f620c606cf300416910160405180910390a150600755565b600080611ef28686613463565b6004805460405163aff2faa360e01b81526001600160a01b039091169163aff2faa391611f23918891889101615998565b60206040518083038186803b158015611f3b57600080fd5b505afa158015611f4f573d6000803e3d6000fd5b505050506040513d601f19601f82011682018060405250810190611f7391906153da565b611f8f5760405162461bcd60e51b815260040161067490615aaf565b6004805460405163626885b560e11b81526001600160a01b039091169163c4d10b6a91611fc0918891889101615998565b60206040518083038186803b158015611fd857600080fd5b505afa158015611fec573d6000803e3d6000fd5b505050506040513d601f19601f820116820180604052508101906120109190615297565b9050600061201d8861355c565b6005546004805460405163095ea7b360e01b81526001600160a01b03918216928101929092526024820184905292935091169063095ea7b390604401602060405180830381600087803b15801561207357600080fd5b505af1158015612087573d6000803e3d6000fd5b505050506040513d601f19601f820116820180604052508101906120ab91906153da565b5080600a54826120bb9190615dba565b600480546040516338463cff60e01b81526001600160a01b03909116916338463cff916120ee918b918b918991016159ac565b602060405180830381600087803b15801561210857600080fd5b505af115801561211c573d6000803e3d6000fd5b505050506040513d601f19601f8201168201806040525081019061214091906154b4565b61214a9190615d72565b6121549190615d52565b92506121e988848989600360009054906101000a90046001600160a01b03166001600160a01b0316632f796d906040518163ffffffff1660e01b815260040160206040518083038186803b1580156121ab57600080fd5b505afa1580156121bf573d6000803e3d6000fd5b505050506040513d601f19601f820116820180604052508101906121e391906154b4565b87613683565b509550959350505050565b8061271010156122465760405162461bcd60e51b815260206004820152601c60248201527f43434275726e526f757465723a20696e76616c696420726577617264000000006044820152606401610674565b60095460408051918252602082018390527faa50b3683e42a13535a5b9c2c32780cccf956fb546b523a3542ac4ad8b544f67910160405180910390a1600955565b8061271010156122d95760405162461bcd60e51b815260206004820152601960248201527f43434275726e526f757465723a20696e76616c696420666565000000000000006044820152606401610674565b60085460408051918252602082018390527f7d205f60891f60851c61cd244ba387d72b6589e7c0ac41b9d909ab0ce2c2a53b910160405180910390a1600855565b806001600160a01b0381166123415760405162461bcd60e51b815260040161067490615a41565b600554604080516001600160a01b03928316815291841660208301527f36a4c08a38b736dcecb6c328dba61238529620e83ccb23db2cc43cd34ec26096910160405180910390a150600580546001600160a01b0319166001600160a01b0392909216919091179055565b6005546000906001600160a01b031684846123c7600182615dba565b8181106123e457634e487b7160e01b600052603260045260246000fd5b90506020020160208101906123f9919061527b565b6001600160a01b03161461244f5760405162461bcd60e51b815260206004820152601a60248201527f43434275726e526f757465723a20696e76616c696420706174680000000000006044820152606401610674565b6002861461249f5760405162461bcd60e51b815260206004820152601b60248201527f43434275726e526f757465723a2077726f6e6720616d6f756e747300000000006044820152606401610674565b838360008181106124c057634e487b7160e01b600052603260045260246000fd5b90506020020160208101906124d5919061527b565b6001600160a01b03166323b872dd33308a8a600081811061250657634e487b7160e01b600052603260045260246000fd5b6040516001600160e01b031960e088901b1681526001600160a01b03958616600482015294909316602485015250602090910201356044820152606401602060405180830381600087803b15801561255d57600080fd5b505af1158015612571573d6000803e3d6000fd5b505050506040513d601f19601f8201168201806040525081019061259591906153da565b50600080896001600160a01b031663b0bbcd888a8a60008181106125c957634e487b7160e01b600052603260045260246000fd5b905060200201358b8b60018181106125f157634e487b7160e01b600052603260045260246000fd5b905060200201358989308a8e6040518863ffffffff1660e01b815260040161261f9796959493929190615bf6565b600060405180830381600087803b15801561263957600080fd5b505af115801561264d573d6000803e3d6000fd5b505050506040513d6000823e601f3d908101601f1916820160405261267591908101906153f6565b91509150816126c65760405162461bcd60e51b815260206004820152601d60248201527f43434275726e526f757465723a2065786368616e6765206661696c65640000006044820152606401610674565b80600182516126d59190615dba565b815181106126f357634e487b7160e01b600052603260045260246000fd5b602002602001015192505050979650505050505050565b60008061271a8787878787611ee5565b6001600160a01b0381166000908152600b6020526040902080549294509092509061274790600190615dba565b8154811061276557634e487b7160e01b600052603260045260246000fd5b90600052602060002090600702016004015461277e3390565b6001600160a01b038381166000908152600b60205260409020805492909116917fc19dabf19fdfd8c6124bed2178a4564d0c5d5812bfb916777cc90d1b53ed5a5a918a918a918f918f918f918b918b916127da90600190615dba565b815481106127f857634e487b7160e01b600052603260045260246000fd5b90600052602060002090600702016006015460405161281e9897969594939291906159e3565b60405180910390a3505050505050505050565b806001600160a01b0381166128585760405162461bcd60e51b815260040161067490615a41565b600454604080516001600160a01b03928316815291841660208301527ffa021c2ec0f46429a53e7f88b88065e40001f50c9d38b2e8b713beaf9828d4c3910160405180910390a150600480546001600160a01b0319166001600160a01b0392909216919091179055565b6000806002868686866040516020016128de94939291906158a9565b60408051601f19818403018152908290526128f8916158fc565b602060405180830381855afa158015612915573d6000803e3d6000fd5b5050506040513d601f19601f8201168201806040525081019061293891906154b4565b9050600060028260405160200161295191815260200190565b60408051601f198184030181529082905261296b916158fc565b602060405180830381855afa158015612988573d6000803e3d6000fd5b5050506040513d601f19601f820116820180604052508101906129ab91906154b4565b925050505b949350505050565b600080806129ce6129c9868361384b565b61386f565b905062ffffff198082161415612a265760405162461bcd60e51b815260206004820152601a60248201527f426974636f696e48656c7065723a2076696e206973206e756c6c0000000000006044820152606401610674565b6000612a3282866139a5565b90506000612a3f82613ac3565b9050612a4a81613ae7565b9450612a5581613b09565b63ffffffff1693505050509250929050565b60606000612a7f612a7a825b869061384b565b613b33565b905062ffffff198082161415612aa75760405162461bcd60e51b815260040161067490615a78565b6000612ab38285613c24565b90506000612ac082613d1e565b9050612ad162ffffff198216613d6f565b9695505050505050565b6000612ae685613dbf565b6004805460405163626885b560e11b81526001600160401b039390931693506000926001600160a01b039091169163c4d10b6a91612b26918991016159d0565b60206040518083038186803b158015612b3e57600080fd5b505afa158015612b52573d6000803e3d6000fd5b505050506040513d601f19601f82011682018060405250810190612b769190615297565b6004546009549192506001600160a01b03169063b734de2690839061271090612b9f9087615d72565b612ba99190615d52565b3360405160e085901b6001600160e01b03191681526001600160a01b0393841660048201526024810192909252909116604482015260648101859052608401602060405180830381600087803b158015612c0257600080fd5b505af1158015612c16573d6000803e3d6000fd5b505050506040513d601f19601f82011682018060405250810190612c3a91906153da565b507f7ff138134e34ccab071315c38e38eec079f54726b890304ab46e2c5ab6f722bb8186858761271060095488612c719190615d72565b612c7b9190615d52565b612c859088615cc8565b604051612c96959493929190615957565b60405180910390a1505050505050565b806001600160a01b038116612ccd5760405162461bcd60e51b815260040161067490615a41565b600354604080516001600160a01b03928316815291841660208301527f4c28a3f61a715259c4dc930c23e7423b8fa52e13232c061a6e488729c66184f4910160405180910390a150600380546001600160a01b0319166001600160a01b0392909216919091179055565b600a5460408051918252602082018390527f47c5f9c13c35ebb166f6a8d8c56af73f8b323ac0fee7aec4a5e0490bbf67a4fe910160405180910390a1806127101015612dc55760405162461bcd60e51b815260206004820152601d60248201527f43434275726e526f757465723a20696e76616c696420627463206665650000006044820152606401610674565b600a55565b60008080805b85518110156132ec5780612e0d57848181518110612dfe57634e487b7160e01b600052603260045260246000fd5b60200260200101519150612eba565b81858281518110612e2e57634e487b7160e01b600052603260045260246000fd5b602002602001015111612e8f5760405162461bcd60e51b8152602060048201526024808201527f43434275726e526f757465723a20756e2d736f7274656420766f757420696e646044820152636578657360e01b6064820152608401610674565b848181518110612eaf57634e487b7160e01b600052603260045260246000fd5b602002602001015191505b6000868281518110612edc57634e487b7160e01b600052603260045260246000fd5b60200260200101519050600b60008a6001600160a01b03166001600160a01b031681526020019081526020016000208181548110612f2a57634e487b7160e01b600052603260045260246000fd5b600091825260209091206005600790920201015460ff16158015612f9957506001600160a01b0389166000908152600b6020526040902080548b919083908110612f8457634e487b7160e01b600052603260045260246000fd5b90600052602060002090600702016004015410155b156132d95761314488878481518110612fc257634e487b7160e01b600052603260045260246000fd5b6020026020010151600b60008d6001600160a01b03166001600160a01b03168152602001908152602001600020848154811061300e57634e487b7160e01b600052603260045260246000fd5b9060005260206000209060070201600301805461302a90615e24565b80601f016020809104026020016040519081016040528092919081815260200182805461305690615e24565b80156130a35780601f10613078576101008083540402835291602001916130a3565b820191906000526020600020905b81548152906001019060200180831161308657829003601f168201915b5050506001600160a01b038f166000908152600b60205260409020805490925087915081106130e257634e487b7160e01b600052603260045260246000fd5b906000526020600020906007020160050160019054906101000a900460ff16600481111561312057634e487b7160e01b600052602160045260246000fd5b600481111561313f57634e487b7160e01b600052602160045260246000fd5b613e59565b6001600160401b0316935083600b60008b6001600160a01b03166001600160a01b03168152602001908152602001600020828154811061319457634e487b7160e01b600052603260045260246000fd5b90600052602060002090600702016001015414156132d9576001600160a01b0389166000908152600b60205260409020805460019190839081106131e857634e487b7160e01b600052603260045260246000fd5b60009182526020909120600790910201600501805460ff1916911515919091179055613215856001615cc8565b6001600160a01b038a166000818152600b60205260409020805492975090917f1b46655c2f394f2191cb246d5982dbe00ad671f0b590e75e97c90ee97f1f782a91908490811061327557634e487b7160e01b600052603260045260246000fd5b9060005260206000209060070201600601548d8986815181106132a857634e487b7160e01b600052603260045260246000fd5b60200260200101516040516132d0939291909283526020830191909152604082015260600190565b60405180910390a25b50806132e481615e59565b915050612dd0565b5050509695505050505050565b60006133058484614094565b6001600160401b03169050600061331b85614197565b90508115801590613335575080613333876001615cc8565b145b15613358576000838152600d60205260409020805460ff1916600117905561337a565b8086141561337a576000838152600d60205260409020805460ff191660011790555b505050505050565b806001600160a01b0381166133a95760405162461bcd60e51b815260040161067490615a41565b600654604080516001600160a01b03928316815291841660208301527f567657fa3f286518b318f4a29870674f433f622fdfc819691acb13105b228225910160405180910390a150600680546001600160a01b0319166001600160a01b0392909216919091179055565b600080546001600160a01b038381166001600160a01b0319831681178455604051919092169283917f8be0079c531659141344cd1fd0a4f28419497f9722a3daafe3b4186f6b6457e09190a35050565b600081600481111561348557634e487b7160e01b600052602160045260246000fd5b14806134b0575060048160048111156134ae57634e487b7160e01b600052602160045260246000fd5b145b1561350b5781516020146135065760405162461bcd60e51b815260206004820152601c60248201527f43434275726e526f757465723a20696e76616c696420736372697074000000006044820152606401610674565b6106a0565b81516014146106a05760405162461bcd60e51b815260206004820152601c60248201527f43434275726e526f757465723a20696e76616c696420736372697074000000006044820152606401610674565b600080612710600854846135709190615d72565b61357a9190615d52565b9050600a54600261358b9190615d72565b6135959082615cc8565b83116135e35760405162461bcd60e51b815260206004820152601860248201527f43434275726e526f757465723a206c6f7720616d6f756e7400000000000000006044820152606401610674565b60006135ef8285615dba565b60055460065460405163a9059cbb60e01b81526001600160a01b03918216600482015260248101869052929350169063a9059cbb90604401602060405180830381600087803b15801561364157600080fd5b505af1158015613655573d6000803e3d6000fd5b505050506040513d601f19601f8201168201806040525081019061367991906153da565b509150505b919050565b604080516101008101825260006080820181905260a0820181905260c0820181815260e083019190915288825260208201889052339282019290925260608101869052908460048111156136e757634e487b7160e01b600052602160045260246000fd5b9081600481111561370857634e487b7160e01b600052602160045260246000fd5b9052506007546137189084615cc8565b6080820152600060a082018190526001600160a01b038316808252600c6020818152604084205460e0860181905292909352909152613758906001615cc8565b6001600160a01b038381166000908152600c6020908152604080832094909455600b81528382208054600180820183559184529282902086516007909402019283558582015190830155928401516002820180546001600160a01b03191691909316179091556060830151805184936137d8926003850192910190614ff0565b50608082015160048281019190915560a083015160058301805460ff19169115159190911780825560c08501519261ff00199091169061010090849081111561383157634e487b7160e01b600052602160045260246000fd5b021790555060e08201518160060155505050505050505050565b81516000906020840161386664ffffffffff851682846141c3565b95945050505050565b60008181613885815b62ffffff1984169061420a565b50601884901c6001600160601b03166138a55762ffffff195b925061399e565b60006138b28560006142e4565b9050601885901c6001600160601b03166001600160401b0382166138df5762ffffff195b9450505061399e565b60006138ea8361442b565b60ff16905060005b836001600160401b03168110156139665782821061391b5762ffffff195b96505050505061399e565b600061393b61392a8486615dba565b60055b62ffffff198c169190614484565b9050613946816144b8565b6139509084615cc8565b925050808061395e90615e59565b9150506138f2565b5081811461397e5762ffffff195b955050505061399e565b61399860065b60d81b6301000000600160d81b0389161790565b95505050505b5050919050565b60008260066139b381613878565b5060006139c18660006142e4565b6001600160401b03169050601886901c6001600160601b0316818610613a1c5760405162461bcd60e51b815260206004820152601060248201526f2b34b7103932b0b21037bb32b9393ab760811b6044820152606401610674565b6000613a278361442b565b60ff1690506000805b88811015613a7f57613a56613a458486615dba565b60055b62ffffff198d169190614484565b9150613a61826144b8565b613a6b9084615cc8565b9250613a78600182615cc8565b9050613a30565b50613a8d61392a8385615dba565b90506000613a9a826144b8565b9050613ab3838260045b62ffffff198e1692919061450c565b975050505050505b505092915050565b6000816004613ad181613878565b506129b062ffffff19851660006024600361450c565b6000816003613af581613878565b506129b062ffffff1985166000602061457c565b6000816003613b1781613878565b506129b0613b2e62ffffff198616602060046146d5565b61481f565b60008181613b4081613878565b50601884901c6001600160601b0316613b5d5762ffffff1961389e565b6000613b6a8560006142e4565b9050601885901c6001600160601b03166001600160401b038216613b925762ffffff196138d6565b6000613b9d8361442b565b60ff16905060005b836001600160401b0316811015613c0857828210613bc75762ffffff19613910565b6000613bdd613bd68486615dba565b600e61392d565b9050613be881614888565b613bf29084615cc8565b9250508080613c0090615e59565b915050613ba5565b50818114613c1a5762ffffff19613974565b613998600f613984565b600082600f613c3281613878565b506000613c408660006142e4565b6001600160401b03169050601886901c6001600160601b0316818610613c9c5760405162461bcd60e51b81526020600482015260116024820152702b37baba103932b0b21037bb32b9393ab760791b6044820152606401610674565b6000613ca78361442b565b60ff1690506000805b88811015613cf557613ccc613cc58486615dba565b600e613a48565b9150613cd782614888565b613ce19084615cc8565b9250613cee600182615cc8565b9050613cb0565b50613d03613bd68385615dba565b90506000613d1082614888565b9050613ab38382600d613aa4565b600081600d613d2c81613878565b506000613d3a8560086142e4565b9050613866613d488261442b565b613d53906008615d0b565b62ffffff1987169060ff166001600160401b038416600761450c565b6060600080613d878460181c6001600160601b031690565b60405193508392506001600160601b03169050613dae84613da9846020615cc8565b6148d1565b508181016020016040529052919050565b600080613dd1612a7a825b859061384b565b905062ffffff198082161415613df95760405162461bcd60e51b815260040161067490615a78565b600080613e078360006142e4565b6001600160401b0316905060005b81811015613e5057613e278482613c24565b9250613e3283614a29565b613e3c9086615ce0565b945080613e4881615e59565b915050613e15565b50505050919050565b600080613e69612a7a878361384b565b905062ffffff198082161415613e915760405162461bcd60e51b815260040161067490615a78565b6000613e9d8287613c24565b90506000613eaa82613d1e565b90506000856004811115613ece57634e487b7160e01b600052602160045260246000fd5b1415613f3357613ee762ffffff1982166001602061457c565b604051602001613ef991815260200190565b60405160208183030381529060405280519060200120868051906020012014613f23576000613f2c565b613f2c82614a29565b9350614089565b6001856004811115613f5557634e487b7160e01b600052602160045260246000fd5b1415613f9457613f6c62ffffff1982166003614a4e565b604051602001613ef9919060609190911b6bffffffffffffffffffffffff1916815260140190565b6002856004811115613fb657634e487b7160e01b600052602160045260246000fd5b1415613fcd57613f6c62ffffff1982166002614a4e565b6003856004811115613fef57634e487b7160e01b600052602160045260246000fd5b141561400657613f6c62ffffff1982166002614a4e565b600485600481111561402857634e487b7160e01b600052602160045260246000fd5b14156140895761404162ffffff1982166002602061457c565b60405160200161405391815260200190565b6040516020818303038152906040528051906020012086805190602001201461407d576000614086565b61408682614a29565b93505b505050949350505050565b6000806140a3612a7a82612a73565b905062ffffff1980821614156140cb5760405162461bcd60e51b815260040161067490615a78565b60008060006140db8460006142e4565b6001600160401b0316905060005b8181101561418c576140fb8582613c24565b935061410684613d1e565b92508660405160200161411991906158fc565b6040516020818303038152906040528051906020012061413e8462ffffff1916613d6f565b60405160200161414e91906158fc565b60405160208183030381529060405280519060200120141561417a5761417384614a29565b955061418c565b8061418481615e59565b9150506140e9565b505050505092915050565b6000806141a6612a7a82613dca565b90506141b38160006142e4565b6001600160401b03169392505050565b6000806141d08385615cc8565b90506040518111156141e0575060005b806141f25762ffffff19915050614203565b5050606083811b8317901b811760181b5b9392505050565b60006142168383614a5c565b6142dd5760006142356142298560d81c90565b64ffffffffff16614a7f565b915050600061424a8464ffffffffff16614a7f565b6040517f5479706520617373657274696f6e206661696c65642e20476f7420307800000060208201526001600160b01b031960b086811b8216603d8401526c05c408af0e0cac6e8cac84060f609b1b604784015283901b16605482015290925060009150605e015b60405160208183030381529060405290508060405162461bcd60e51b815260040161067491906159d0565b5090919050565b6000806142f962ffffff198516846001614b2b565b905060fc81116143145761430c81614b5b565b91505061112c565b8060fd141561437a5761434261433d61432e856001615cc8565b62ffffff1987169060026146d5565b614b5b565b915061434d8261442b565b60ff166003146143755761437361436e62ffffff198616856003600061450c565b614bc3565b505b614424565b8060fe14156143cf576143a361433d614394856001615cc8565b62ffffff1987169060046146d5565b91506143ae8261442b565b60ff166005146143755761437361436e62ffffff198616856005600061450c565b8060ff1415614424576143f861433d6143e9856001615cc8565b62ffffff1987169060086146d5565b91506144038261442b565b60ff1660091461442457613abb61436e62ffffff198616856009600061450c565b5092915050565b600060fc826001600160401b0316116144465750600161367e565b61ffff826001600160401b0316116144605750600361367e565b63ffffffff826001600160401b03161161447c5750600561367e565b50600961367e565b60006129b0848461449e8760181c6001600160601b031690565b6001600160601b03166144b19190615dba565b858561450c565b60008160056144c681613878565b5060006144d48560246142e4565b9050806001600160401b03166144e98261442b565b60ff166144f69190615cc8565b614501906024615cc8565b613866906004615cc8565b6000806145228660781c6001600160601b031690565b6001600160601b0316905061453686614c4a565b846145418784615cc8565b61454b9190615cc8565b111561455e5762ffffff199150506129b0565b6145688582615cc8565b9050612ad18364ffffffffff1682866141c3565b600060ff821661458e57506000614203565b6145a18460181c6001600160601b031690565b6001600160601b03166145b760ff841685615cc8565b111561461b576146026145d38560781c6001600160601b031690565b6001600160601b03166145ef8660181c6001600160601b031690565b6001600160601b0316858560ff16614c8b565b60405162461bcd60e51b815260040161067491906159d0565b60208260ff1611156146955760405162461bcd60e51b815260206004820152603a60248201527f54797065644d656d566965772f696e646578202d20417474656d70746564207460448201527f6f20696e646578206d6f7265207468616e2033322062797465730000000000006064820152608401610674565b6008820260006146ae8660781c6001600160601b031690565b6001600160601b031690506000600160ff1b60001984011d91909501511695945050505050565b60006129b06146e585858561457c565b600881811c7eff00ff00ff00ff00ff00ff00ff00ff00ff00ff00ff00ff00ff00ff00ff00ff167fff00ff00ff00ff00ff00ff00ff00ff00ff00ff00ff00ff00ff00ff00ff00ff009290911b9190911617601081811c7dffff0000ffff0000ffff0000ffff0000ffff0000ffff0000ffff0000ffff167fffff0000ffff0000ffff0000ffff0000ffff0000ffff0000ffff0000ffff00009290911b9190911617602081811c7bffffffff00000000ffffffff00000000ffffffff00000000ffffffff167fffffffff00000000ffffffff00000000ffffffff00000000ffffffff000000009290911b9190911617604081811c77ffffffffffffffff0000000000000000ffffffffffffffff1677ffffffffffffffff0000000000000000ffffffffffffffff199290911b9190911617608081811c91901b1790565b600063ffffffff8211156148845760405162461bcd60e51b815260206004820152602660248201527f53616665436173743a2076616c756520646f65736e27742066697420696e203360448201526532206269747360d01b6064820152608401610674565b5090565b600081600e61489681613878565b5060006148a48560086142e4565b9050806001600160401b03166148b98261442b565b60ff166148c69190615cc8565b613866906008615cc8565b600062ffffff19808416141561493a5760405162461bcd60e51b815260206004820152602860248201527f54797065644d656d566965772f636f7079546f202d204e756c6c20706f696e7460448201526732b9103232b932b360c11b6064820152608401610674565b61494383614db5565b6149a35760405162461bcd60e51b815260206004820152602b60248201527f54797065644d656d566965772f636f7079546f202d20496e76616c696420706f60448201526a34b73a32b9103232b932b360a91b6064820152608401610674565b60006149b88460181c6001600160601b031690565b6001600160601b0316905060006149d88560781c6001600160601b031690565b6001600160601b0316905060006040519050848111156149f85760206060fd5b8285848460045afa50612ad1614a0e8760d81c90565b64ffffffffff60601b606091821b168717901b841760181b90565b600081600d614a3781613878565b506129b061433d62ffffff198616600060086146d5565b600061420383836014614b2b565b60008164ffffffffff16614a708460d81c90565b64ffffffffff16149392505050565b600080601f5b600f8160ff161115614add576000614a9e826008615d91565b60ff1685901c9050614aaf81614df3565b61ffff16841793508160ff16601014614aca57601084901b93505b50614ad6600182615dd1565b9050614a85565b50600f5b60ff8160ff161015614b255760ff600882021684901c614b0081614df3565b61ffff16831792508160ff16600014614b1b57601083901b92505b5060001901614ae1565b50915091565b6000614b38826020615dd1565b614b43906008615d91565b60ff16614b5185858561457c565b901c949350505050565b60006001600160401b038211156148845760405162461bcd60e51b815260206004820152602660248201527f53616665436173743a2076616c756520646f65736e27742066697420696e203660448201526534206269747360d01b6064820152608401610674565b60606000614bf7614bf282614be4601887901c6001600160601b0316614e23565b62ffffff1987169190614b2b565b614a7f565b6040517f4e6f6e2d6d696e696d616c2076617220696e742e20476f74203078000000000060208201526dffffffffffffffffffffffffffff19607083901b16603b82015290925060009150604d016142b2565b6000614c5f8260181c6001600160601b031690565b614c728360781c6001600160601b031690565b614c7c9190615d30565b6001600160601b031692915050565b60606000614c9886614a7f565b9150506000614ca686614a7f565b9150506000614cb486614a7f565b9150506000614cc286614a7f565b604080517f54797065644d656d566965772f696e646578202d204f76657272616e20746865602082015274040ecd2caee5c40a6d8d2c6ca40d2e640c2e84060f605b1b818301526001600160d01b031960d098891b811660558301526e040eed2e8d040d8cadccee8d04060f608b1b605b830181905297891b8116606a8301527f2e20417474656d7074656420746f20696e646578206174206f666673657420306070830152600f60fb1b609083015295881b861660918201526097810196909652951b90921660a68401525050601760f91b60ac8201528151808203608d01815260ad90910190915295945050505050565b6000614dc18260d81c90565b64ffffffffff1664ffffffffff1415614ddc5750600061367e565b6000614de783614c4a565b60405110199392505050565b6000614e0560048360ff16901c614e84565b60ff161760081b62ffff0016614e1a82614e84565b60ff1617919050565b600060ff8211156148845760405162461bcd60e51b815260206004820152602560248201527f53616665436173743a2076616c756520646f65736e27742066697420696e2038604482015264206269747360d81b6064820152608401610674565b600060f08083179060ff82161415614ea057603091505061367e565b8060ff1660f11415614eb657603191505061367e565b8060ff1660f21415614ecc57603291505061367e565b8060ff1660f31415614ee257603391505061367e565b8060ff1660f41415614ef857603491505061367e565b8060ff1660f51415614f0e57603591505061367e565b8060ff1660f61415614f2457603691505061367e565b8060ff1660f71415614f3a57603791505061367e565b8060ff1660f81415614f5057603891505061367e565b8060ff1660f91415614f6657603991505061367e565b8060ff1660fa1415614f7c57606191505061367e565b8060ff1660fb1415614f9257606291505061367e565b8060ff1660fc1415614fa857606391505061367e565b8060ff1660fd1415614fbe57606491505061367e565b8060ff1660fe1415614fd457606591505061367e565b8060ff1660ff1415614fea57606691505061367e565b50919050565b828054614ffc90615e24565b90600052602060002090601f01602090048101928261501e5760008555615064565b82601f1061503757805160ff1916838001178555615064565b82800160010185558215615064579182015b82811115615064578251825591602001919060010190615049565b506148849291505b80821115614884576000815560010161506c565b803561367e81615ea0565b60008083601f84011261509c578182fd5b5081356001600160401b038111156150b2578182fd5b60208301915083602080830285010111156150cc57600080fd5b9250929050565b600082601f8301126150e3578081fd5b813560206150f86150f383615ca5565b615c75565b8281528181019085830183850287018401881015615114578586fd5b855b8581101561513957615127826151ab565b84529284019290840190600101615116565b5090979650505050505050565b600082601f830112615156578081fd5b813560206151666150f383615ca5565b8281528181019085830183850287018401881015615182578586fd5b855b8581101561513957813584529284019290840190600101615184565b803561367e81615eb5565b80356001600160e01b03198116811461367e57600080fd5b60008083601f8401126151d4578182fd5b5081356001600160401b038111156151ea578182fd5b6020830191508360208285010111156150cc57600080fd5b600082601f830112615212578081fd5b81356001600160401b0381111561522b5761522b615e8a565b61523e601f8201601f1916602001615c75565b818152846020838601011115615252578283fd5b816020850160208301379081016020019190915292915050565b80356005811061367e57600080fd5b60006020828403121561528c578081fd5b813561420381615ea0565b6000602082840312156152a8578081fd5b815161420381615ea0565b60008060008060008060008060008060006101008c8e0312156152d4578687fd5b6152dd8c615080565b9a506001600160401b038060208e013511156152f7578788fd5b6153078e60208f01358f0161508b565b909b50995061531860408e016151a0565b98508060608e0135111561532a578788fd5b61533a8e60608f01358f0161508b565b909850965060808d0135955060a08d0135811015615356578485fd5b6153668e60a08f01358f01615202565b945061537460c08e0161526c565b93508060e08e01351115615386578283fd5b506153978d60e08e01358e016151c3565b81935080925050509295989b509295989b9093969950565b600080604083850312156153c1578182fd5b82356153cc81615ea0565b946020939093013593505050565b6000602082840312156153eb578081fd5b815161420381615eb5565b60008060408385031215615408578182fd5b825161541381615eb5565b809250506020808401516001600160401b03811115615430578283fd5b8401601f81018613615440578283fd5b805161544e6150f382615ca5565b81815283810190838501858402850186018a101561546a578687fd5b8694505b8385101561548c57805183526001949094019391850191850161546e565b5080955050505050509250929050565b6000602082840312156154ad578081fd5b5035919050565b6000602082840312156154c5578081fd5b5051919050565b6000806000806000806000806000806101408b8d0312156154eb578384fd5b6154f48b6151ab565b995060208b01356001600160401b038082111561550f578586fd5b61551b8e838f01615202565b9a5060408d0135915080821115615530578586fd5b61553c8e838f01615202565b995061554a60608e016151ab565b985060808d0135975060a08d0135915080821115615566578586fd5b6155728e838f01615202565b965060c08d0135955060e08d013591508082111561558e578485fd5b61559a8e838f01615202565b94506101008d01359150808211156155b0578384fd5b6155bc8e838f01615146565b93506101208d01359150808211156155d2578283fd5b506155df8d828e01615146565b9150509295989b9194979a5092959850565b600080600060408486031215615605578081fd5b83356001600160401b038082111561561b578283fd5b615627878388016151c3565b9095509350602086013591508082111561563f578283fd5b5061564c86828701615146565b9150509250925092565b60008060008060008060008060006101208a8c031215615674578283fd5b89356001600160401b038082111561568a578485fd5b6156968d838e01615202565b9a5060208c01359150808211156156ab578485fd5b6156b78d838e016150d3565b995060408c01359150808211156156cc578485fd5b6156d88d838e01615202565b985060608c01359150808211156156ed578485fd5b6156f98d838e01615202565b975060808c013591508082111561570e578485fd5b61571a8d838e01615202565b965060a08c013591508082111561572f578485fd5b61573b8d838e01615202565b955060c08c0135915080821115615750578485fd5b61575c8d838e016150d3565b945060e08c0135915080821115615771578384fd5b61577d8d838e01615202565b93506101008c0135915080821115615793578283fd5b506157a08c828d01615146565b9150509295985092959850929598565b6000806000806000608086880312156157c7578283fd5b8535945060208601356001600160401b03808211156157e4578485fd5b6157f089838a01615202565b95506157fe6040890161526c565b94506060880135915080821115615813578283fd5b50615820888289016151c3565b969995985093965092949392505050565b60008284528282602086013780602084860101526020601f19601f85011685010190509392505050565b60008151808452615873816020860160208601615df4565b601f01601f19169290920160200192915050565b600581106158a557634e487b7160e01b600052602160045260246000fd5b9052565b600063ffffffff60e01b808716835285516158cb816004860160208a01615df4565b8551908401906158e2816004840160208a01615df4565b919094169301600481019390935250506008019392505050565b6000825161590e818460208701615df4565b9190910192915050565b600060018060a01b038716825285602083015284604083015260a0606083015261594560a083018561585b565b90508260808301529695505050505050565b6001600160a01b038616815260a06020820181905260009061597b9083018761585b565b604083019590955250606081019290925260809091015292915050565b6000602082526129b0602083018486615831565b6000604082526159c0604083018587615831565b9050826020830152949350505050565b600060208252614203602083018461585b565b60006101008083526159f78184018c61585b565b915050615a07602083018a615887565b60408201979097526001600160a01b039586166060820152608081019490945260a084019290925290921660c082015260e0015292915050565b6020808252601a908201527f43434275726e526f757465723a207a65726f2061646472657373000000000000604082015260600190565b6020808252601b908201527f426974636f696e48656c7065723a20766f7574206973206e756c6c0000000000604082015260600190565b60208082526018908201527f43434275726e526f757465723a206e6f74206c6f636b65720000000000000000604082015260600190565b6020808252818101527f4f776e61626c653a2063616c6c6572206973206e6f7420746865206f776e6572604082015260600190565b60208082526021908201527f43434275726e526f757465723a20646561646c696e65206e6f742070617373656040820152601960fa1b606082015260800190565b6020808252601f908201527f5265656e7472616e637947756172643a207265656e7472616e742063616c6c00604082015260600190565b888152602081018890526001600160a01b038716604082015261010060608201819052600090615bc58382018961585b565b91505085608083015284151560a0830152615be360c0830185615887565b8260e08301529998505050505050505050565b878152602080820188905260c0604083018190528201869052600090879060e08401835b89811015615c48578335615c2d81615ea0565b6001600160a01b031682529282019290820190600101615c1a565b506001600160a01b039790971660608501525050506080810192909252151560a090910152949350505050565b604051601f8201601f191681016001600160401b0381118282101715615c9d57615c9d615e8a565b604052919050565b60006001600160401b03821115615cbe57615cbe615e8a565b5060209081020190565b60008219821115615cdb57615cdb615e74565b500190565b60006001600160401b03808316818516808303821115615d0257615d02615e74565b01949350505050565b600060ff821660ff84168060ff03821115615d2857615d28615e74565b019392505050565b60006001600160601b03808316818516808303821115615d0257615d02615e74565b600082615d6d57634e487b7160e01b81526012600452602481fd5b500490565b6000816000190483118215151615615d8c57615d8c615e74565b500290565b600060ff821660ff84168160ff0481118215151615615db257615db2615e74565b029392505050565b600082821015615dcc57615dcc615e74565b500390565b600060ff821660ff841680821015615deb57615deb615e74565b90039392505050565b60005b83811015615e0f578181015183820152602001615df7565b83811115615e1e576000848401525b50505050565b600281046001821680615e3857607f821691505b60208210811415614fea57634e487b7160e01b600052602260045260246000fd5b6000600019821415615e6d57615e6d615e74565b5060010190565b634e487b7160e01b600052601160045260246000fd5b634e487b7160e01b600052604160045260246000fd5b6001600160a01b03811681146108c257600080fd5b80151581146108c257600080fdfea26469706673582212207e7f39a35cdf790a49aae13eb9bdb22c00c82c3a8180ddb38035c5ade729f95164736f6c6343000802003343434275726e526f757465723a207a65726f2061646472657373000000000000",
  "deployedBytecode": "0x6080604052600436106101d15760003560e01c80638d3d78cd116100f7578063bed6a60211610095578063ea73263711610064578063ea73263714610520578063f0f4426014610533578063f2fde38b14610553578063f47e224014610573576101d8565b8063bed6a602146104b7578063c780c03f146104cd578063c805f68b146104e0578063cdbe374114610500576101d8565b8063930a60e8116100d1578063930a60e814610434578063b14d353214610461578063b59589d114610481578063b74d0d35146104a1576101d8565b80638d3d78cd146103d65780638d774f8e146103f65780638da5cb5b14610416576101d8565b80635c4f5f3e1161016f57806373532b2a1161013e57806373532b2a146103565780637ed55748146103765780637f0f1817146103965780637ffe9a92146103b6576101d8565b80635c4f5f3e146102eb57806361d027b31461030b57806370872aa51461032b578063715018a614610341576101d8565b80631e236168116101ab5780631e23616814610255578063419cba7f1461029557806343149dba146102ab5780634782bc36146102cb576101d8565b80630e5811a8146101dd5780631812adb6146101f45780631876dec41461021d576101d8565b366101d857005b600080fd5b3480156101e957600080fd5b506101f26105a7565b005b34801561020057600080fd5b5061020a60085481565b6040519081526020015b60405180910390f35b34801561022957600080fd5b5060045461023d906001600160a01b031681565b6040516001600160a01b039091168152602001610214565b34801561026157600080fd5b5061028561027036600461549c565b600d6020526000908152604090205460ff1681565b6040519015158152602001610214565b3480156102a157600080fd5b5061020a60095481565b3480156102b757600080fd5b506101f26102c63660046157b0565b6106a4565b3480156102d757600080fd5b506101f26102e636600461549c565b61088f565b3480156102f757600080fd5b506101f261030636600461549c565b6108c5565b34801561031757600080fd5b5060065461023d906001600160a01b031681565b34801561033757600080fd5b5061020a60025481565b34801561034d57600080fd5b506101f26108f8565b34801561036257600080fd5b506102856103713660046155f1565b610924565b34801561038257600080fd5b506101f261039136600461549c565b611074565b3480156103a257600080fd5b506101f26103b136600461527b565b6110a7565b3480156103c257600080fd5b506102856103d13660046153af565b6110da565b3480156103e257600080fd5b5060055461023d906001600160a01b031681565b34801561040257600080fd5b506101f26104113660046152b3565b611132565b34801561042257600080fd5b506000546001600160a01b031661023d565b34801561044057600080fd5b5061020a61044f36600461527b565b600c6020526000908152604090205481565b34801561046d57600080fd5b506101f261047c36600461527b565b6111ea565b34801561048d57600080fd5b5060035461023d906001600160a01b031681565b3480156104ad57600080fd5b5061020a600a5481565b3480156104c357600080fd5b5061020a60075481565b6102856104db366004615656565b61121d565b3480156104ec57600080fd5b506101f26104fb36600461527b565b611839565b34801561050c57600080fd5b506101f261051b36600461549c565b61186c565b61028561052e3660046154cc565b61189f565b34801561053f57600080fd5b506101f261054e36600461527b565b611c0d565b34801561055f57600080fd5b506101f261056e36600461527b565b611c40565b34801561057f57600080fd5b5061059361058e3660046153af565b611cd8565b604051610214989796959493929190615b93565b60035460408051630a072bc560e41b815290516000926001600160a01b03169163a072bc50916004808301926020929190829003018186803b1580156105ec57600080fd5b505afa158015610600573d6000803e3d6000fd5b505050506040513d601f19601f8201168201806040525081019061062491906154b4565b905060075481111561067d5760405162461bcd60e51b815260206004820152601a60248201527f43434275726e526f757465723a206c6f7720646561646c696e6500000000000060448201526064015b60405180910390fd5b600061068a826002615d72565b610695906001615cc8565b90506106a081611dd5565b5050565b600260015414156106c75760405162461bcd60e51b815260040161067490615b5c565b60026001556005546001600160a01b03166323b872dd336040516001600160e01b031960e084901b1681526001600160a01b03909116600482015230602482015260448101889052606401602060405180830381600087803b15801561072c57600080fd5b505af1158015610740573d6000803e3d6000fd5b505050506040513d601f19601f8201168201806040525081019061076491906153da565b506000806107758787878787611ee5565b6001600160a01b0381166000908152600b602052604090208054929450909250906107a290600190615dba565b815481106107c057634e487b7160e01b600052603260045260246000fd5b9060005260206000209060070201600401546107d93390565b6001600160a01b038381166000908152600b60205260408120805493909216927fc19dabf19fdfd8c6124bed2178a4564d0c5d5812bfb916777cc90d1b53ed5a5a928b928b92909182918f918b918b919061083690600190615dba565b8154811061085457634e487b7160e01b600052603260045260246000fd5b90600052602060002090600702016006015460405161087a9897969594939291906159e3565b60405180910390a35050600180555050505050565b6000546001600160a01b031633146108b95760405162461bcd60e51b815260040161067490615ae6565b6108c2816121f4565b50565b6000546001600160a01b031633146108ef5760405162461bcd60e51b815260040161067490615ae6565b6108c281611dd5565b6000546001600160a01b031633146109225760405162461bcd60e51b815260040161067490615ae6565b565b6000600260015414156109495760405162461bcd60e51b815260040161067490615b5c565b60026001556004805460405163aff2faa360e01b81526001600160a01b039091169163aff2faa39161097f918891889101615998565b60206040518083038186803b15801561099757600080fd5b505afa1580156109ab573d6000803e3d6000fd5b505050506040513d601f19601f820116820180604052508101906109cf91906153da565b6109eb5760405162461bcd60e51b815260040161067490615aaf565b6004805460405163626885b560e11b81526000926001600160a01b039092169163c4d10b6a91610a1f918991899101615998565b60206040518083038186803b158015610a3757600080fd5b505afa158015610a4b573d6000803e3d6000fd5b505050506040513d601f19601f82011682018060405250810190610a6f9190615297565b90506000600360009054906101000a90046001600160a01b03166001600160a01b0316632f796d906040518163ffffffff1660e01b815260040160206040518083038186803b158015610ac157600080fd5b505afa158015610ad5573d6000803e3d6000fd5b505050506040513d601f19601f82011682018060405250810190610af991906154b4565b905060005b8451811015611064576001600160a01b0383166000908152600b602052604090208551869083908110610b4157634e487b7160e01b600052603260045260246000fd5b602002602001015181548110610b6757634e487b7160e01b600052603260045260246000fd5b600091825260209091206005600790920201015460ff1615610bcb5760405162461bcd60e51b815260206004820152601a60248201527f43434275726e526f757465723a20616c726561647920706169640000000000006044820152606401610674565b6001600160a01b0383166000908152600b602052604090208551839190879084908110610c0857634e487b7160e01b600052603260045260246000fd5b602002602001015181548110610c2e57634e487b7160e01b600052603260045260246000fd5b90600052602060002090600702016004015410610c5d5760405162461bcd60e51b815260040161067490615b1b565b6001600160a01b0383166000908152600b60205260409020855160019190879084908110610c9b57634e487b7160e01b600052603260045260246000fd5b602002602001015181548110610cc157634e487b7160e01b600052603260045260246000fd5b60009182526020808320600792909202909101600501805460ff1916931515939093179092556004546009546001600160a01b038781168452600b909452604090922088519390911692631697565b928792612710928b9088908110610d3757634e487b7160e01b600052603260045260246000fd5b602002602001015181548110610d5d57634e487b7160e01b600052603260045260246000fd5b906000526020600020906007020160000154610d799190615d72565b610d839190615d52565b336001600160a01b0388166000908152600b602052604090208a518b9088908110610dbe57634e487b7160e01b600052603260045260246000fd5b602002602001015181548110610de457634e487b7160e01b600052603260045260246000fd5b906000526020600020906007020160000154600b60008a6001600160a01b03166001600160a01b031681526020019081526020016000208b8881518110610e3b57634e487b7160e01b600052603260045260246000fd5b602002602001015181548110610e6157634e487b7160e01b600052603260045260246000fd5b600091825260209091206007909102016002015460405160e087901b6001600160e01b03191681526001600160a01b03958616600482015260248101949094529184166044840152606483015291909116608482015260a401602060405180830381600087803b158015610ed457600080fd5b505af1158015610ee8573d6000803e3d6000fd5b505050506040513d601f19601f82011682018060405250810190610f0c91906153da565b506001600160a01b0383166000818152600b602052604090208651879084908110610f4757634e487b7160e01b600052603260045260246000fd5b602002602001015181548110610f6d57634e487b7160e01b600052603260045260246000fd5b906000526020600020906007020160020160009054906101000a90046001600160a01b03166001600160a01b03167f58c23b4ae0617be275628875bcfd65759a441263099a256eeb27899fb5dd846d8989600b6000896001600160a01b03166001600160a01b031681526020019081526020016000208a878151811061100357634e487b7160e01b600052603260045260246000fd5b60200260200101518154811061102957634e487b7160e01b600052603260045260246000fd5b90600052602060002090600702016006015460405161104a939291906159ac565b60405180910390a38061105c81615e59565b915050610afe565b5050600180805595945050505050565b6000546001600160a01b0316331461109e5760405162461bcd60e51b815260040161067490615ae6565b6108c281612287565b6000546001600160a01b031633146110d15760405162461bcd60e51b815260040161067490615ae6565b6108c28161231a565b6001600160a01b0382166000908152600b6020526040812080548390811061111257634e487b7160e01b600052603260045260246000fd5b600091825260209091206005600790920201015460ff1690505b92915050565b600260015414156111555760405162461bcd60e51b815260040161067490615b5c565b6002600155600061116b8c8c8c8c8c8c8c6123ab565b90506111d88b8b600081811061119157634e487b7160e01b600052603260045260246000fd5b90506020020135898960008181106111b957634e487b7160e01b600052603260045260246000fd5b90506020020160208101906111ce919061527b565b838888888861270a565b50506001805550505050505050505050565b6000546001600160a01b031633146112145760405162461bcd60e51b815260040161067490615ae6565b6108c281612831565b6000600260015414156112425760405162461bcd60e51b815260040161067490615b5c565b600260018190558951148015611259575083516002145b8015611266575081516003145b6112b25760405162461bcd60e51b815260206004820152601a60248201527f43434275726e526f757465723a2077726f6e6720696e707574730000000000006044820152606401610674565b600254826002815181106112d657634e487b7160e01b600052603260045260246000fd5b602002602001015110156113285760405162461bcd60e51b815260206004820152601960248201527810d0d09d5c9b949bdd5d195c8e881bdb19081c995c5d595cdd603a1b6044820152606401610674565b6004805460405163aff2faa360e01b81526001600160a01b039091169163aff2faa391611357918e91016159d0565b60206040518083038186803b15801561136f57600080fd5b505afa158015611383573d6000803e3d6000fd5b505050506040513d601f19601f820116820180604052508101906113a791906153da565b6113c35760405162461bcd60e51b815260040161067490615aaf565b60006114218a6000815181106113e957634e487b7160e01b600052603260045260246000fd5b60200260200101518a8a8860008151811061141457634e487b7160e01b600052603260045260246000fd5b60200260200101516128c2565b905073__$f78472418b29d5d2fb49b19dc055a858ae$__637ebc2327600360009054906101000a90046001600160a01b0316838660028151811061147557634e487b7160e01b600052603260045260246000fd5b6020026020010151888860018151811061149f57634e487b7160e01b600052603260045260246000fd5b60200260200101516040518663ffffffff1660e01b81526004016114c7959493929190615918565b60206040518083038186803b1580156114df57600080fd5b505af41580156114f3573d6000803e3d6000fd5b505050506040513d601f19601f8201168201806040525081019061151791906153da565b6115635760405162461bcd60e51b815260206004820152601b60248201527f43434275726e526f757465723a206e6f742066696e616c697a656400000000006044820152606401610674565b6000818152600d602052604090205460ff16156115c25760405162461bcd60e51b815260206004820152601a60248201527f43434275726e526f757465723a20616c726561647920757365640000000000006044820152606401610674565b6000818152600d60205260408120805460ff1916600117905583518190611610908c908790849061160357634e487b7160e01b600052603260045260246000fd5b60200260200101516129b8565b915091506116638c60018151811061163857634e487b7160e01b600052603260045260246000fd5b60200260200101518a8a8a60018151811061141457634e487b7160e01b600052603260045260246000fd5b82146116b15760405162461bcd60e51b815260206004820152601d60248201527f43434275726e526f757465723a2077726f6e67206f75747075742074780000006044820152606401610674565b8c5160208e01206116c28983612a67565b80519060200120146117165760405162461bcd60e51b815260206004820152601c60248201527f43434275726e526f757465723a206e6f7420666f72206c6f636b6572000000006044820152606401610674565b8460028151811061173757634e487b7160e01b600052603260045260246000fd5b602002602001015160075461174c9190615cc8565b600360009054906101000a90046001600160a01b03166001600160a01b0316632f796d906040518163ffffffff1660e01b815260040160206040518083038186803b15801561179a57600080fd5b505afa1580156117ae573d6000803e3d6000fd5b505050506040513d601f19601f820116820180604052508101906117d291906154b4565b116117ef5760405162461bcd60e51b815260040161067490615b1b565b6118238a8e858860028151811061181657634e487b7160e01b600052603260045260246000fd5b6020026020010151612adb565b505060018080559b9a5050505050505050505050565b6000546001600160a01b031633146118635760405162461bcd60e51b815260040161067490615ae6565b6108c281612ca6565b6000546001600160a01b031633146118965760405162461bcd60e51b815260040161067490615ae6565b6108c281612d37565b6000600260015414156118c45760405162461bcd60e51b815260040161067490615b5c565b60026001819055548710156119175760405162461bcd60e51b815260206004820152601960248201527810d0d09d5c9b949bdd5d195c8e881bdb19081c995c5d595cdd603a1b6044820152606401610674565b6001600160e01b031988161561196f5760405162461bcd60e51b815260206004820181905260248201527f43434275726e526f757465723a206e6f6e2d7a65726f206c6f636b2074696d656044820152606401610674565b6004805460405163aff2faa360e01b81526001600160a01b039091169163aff2faa39161199e918891016159d0565b60206040518083038186803b1580156119b657600080fd5b505afa1580156119ca573d6000803e3d6000fd5b505050506040513d601f19601f820116820180604052508101906119ee91906153da565b611a0a5760405162461bcd60e51b815260040161067490615aaf565b6004805460405163626885b560e11b81526000926001600160a01b039092169163c4d10b6a91611a3c918991016159d0565b60206040518083038186803b158015611a5457600080fd5b505afa158015611a68573d6000803e3d6000fd5b505050506040513d601f19601f82011682018060405250810190611a8c9190615297565b90508251845114611adf5760405162461bcd60e51b815260206004820152601b60248201527f43434275726e526f757465723a2077726f6e6720696e646578657300000000006044820152606401610674565b6000611aed8d8d8d8d6128c2565b600354604051637ebc232760e01b815291925073__$f78472418b29d5d2fb49b19dc055a858ae$__91637ebc232791611b3c916001600160a01b039091169085908e908e908e90600401615918565b60206040518083038186803b158015611b5457600080fd5b505af4158015611b68573d6000803e3d6000fd5b505050506040513d601f19601f82011682018060405250810190611b8c91906153da565b611bd85760405162461bcd60e51b815260206004820152601b60248201527f43434275726e526f757465723a206e6f742066696e616c697a656400000000006044820152606401610674565b6000611be8828b858f8a8a612dca565b9050611bf6818d89856132f9565b505060018080559c9b505050505050505050505050565b6000546001600160a01b03163314611c375760405162461bcd60e51b815260040161067490615ae6565b6108c281613382565b6000546001600160a01b03163314611c6a5760405162461bcd60e51b815260040161067490615ae6565b6001600160a01b038116611ccf5760405162461bcd60e51b815260206004820152602660248201527f4f776e61626c653a206e6577206f776e657220697320746865207a65726f206160448201526564647265737360d01b6064820152608401610674565b6108c281613413565b600b6020528160005260406000208181548110611cf457600080fd5b600091825260209091206007909102018054600182015460028301546003840180549396509194506001600160a01b03169291611d3090615e24565b80601f0160208091040260200160405190810160405280929190818152602001828054611d5c90615e24565b8015611da95780601f10611d7e57610100808354040283529160200191611da9565b820191906000526020600020905b815481529060010190602001808311611d8c57829003601f168201915b505050600484015460058501546006909501549394909360ff8083169450610100909204909116915088565b60035460408051630a072bc560e41b815290516000926001600160a01b03169163a072bc50916004808301926020929190829003018186803b158015611e1a57600080fd5b505afa158015611e2e573d6000803e3d6000fd5b505050506040513d601f19601f82011682018060405250810190611e5291906154b4565b9050808211611ea35760405162461bcd60e51b815260206004820152601a60248201527f43434275726e526f757465723a206c6f7720646561646c696e650000000000006044820152606401610674565b60075460408051918252602082018490527f92c10a242ca42973030420e2ee32b3ba7818cc643f896958f620c606cf300416910160405180910390a150600755565b600080611ef28686613463565b6004805460405163aff2faa360e01b81526001600160a01b039091169163aff2faa391611f23918891889101615998565b60206040518083038186803b158015611f3b57600080fd5b505afa158015611f4f573d6000803e3d6000fd5b505050506040513d601f19601f82011682018060405250810190611f7391906153da565b611f8f5760405162461bcd60e51b815260040161067490615aaf565b6004805460405163626885b560e11b81526001600160a01b039091169163c4d10b6a91611fc0918891889101615998565b60206040518083038186803b158015611fd857600080fd5b505afa158015611fec573d6000803e3d6000fd5b505050506040513d601f19601f820116820180604052508101906120109190615297565b9050600061201d8861355c565b6005546004805460405163095ea7b360e01b81526001600160a01b03918216928101929092526024820184905292935091169063095ea7b390604401602060405180830381600087803b15801561207357600080fd5b505af1158015612087573d6000803e3d6000fd5b505050506040513d601f19601f820116820180604052508101906120ab91906153da565b5080600a54826120bb9190615dba565b600480546040516338463cff60e01b81526001600160a01b03909116916338463cff916120ee918b918b918991016159ac565b602060405180830381600087803b15801561210857600080fd5b505af115801561211c573d6000803e3d6000fd5b505050506040513d601f19601f8201168201806040525081019061214091906154b4565b61214a9190615d72565b6121549190615d52565b92506121e988848989600360009054906101000a90046001600160a01b03166001600160a01b0316632f796d906040518163ffffffff1660e01b815260040160206040518083038186803b1580156121ab57600080fd5b505afa1580156121bf573d6000803e3d6000fd5b505050506040513d601f19601f820116820180604052508101906121e391906154b4565b87613683565b509550959350505050565b8061271010156122465760405162461bcd60e51b815260206004820152601c60248201527f43434275726e526f757465723a20696e76616c696420726577617264000000006044820152606401610674565b60095460408051918252602082018390527faa50b3683e42a13535a5b9c2c32780cccf956fb546b523a3542ac4ad8b544f67910160405180910390a1600955565b8061271010156122d95760405162461bcd60e51b815260206004820152601960248201527f43434275726e526f757465723a20696e76616c696420666565000000000000006044820152606401610674565b60085460408051918252602082018390527f7d205f60891f60851c61cd244ba387d72b6589e7c0ac41b9d909ab0ce2c2a53b910160405180910390a1600855565b806001600160a01b0381166123415760405162461bcd60e51b815260040161067490615a41565b600554604080516001600160a01b03928316815291841660208301527f36a4c08a38b736dcecb6c328dba61238529620e83ccb23db2cc43cd34ec26096910160405180910390a150600580546001600160a01b0319166001600160a01b0392909216919091179055565b6005546000906001600160a01b031684846123c7600182615dba565b8181106123e457634e487b7160e01b600052603260045260246000fd5b90506020020160208101906123f9919061527b565b6001600160a01b03161461244f5760405162461bcd60e51b815260206004820152601a60248201527f43434275726e526f757465723a20696e76616c696420706174680000000000006044820152606401610674565b6002861461249f5760405162461bcd60e51b815260206004820152601b60248201527f43434275726e526f757465723a2077726f6e6720616d6f756e747300000000006044820152606401610674565b838360008181106124c057634e487b7160e01b600052603260045260246000fd5b90506020020160208101906124d5919061527b565b6001600160a01b03166323b872dd33308a8a600081811061250657634e487b7160e01b600052603260045260246000fd5b6040516001600160e01b031960e088901b1681526001600160a01b03958616600482015294909316602485015250602090910201356044820152606401602060405180830381600087803b15801561255d57600080fd5b505af1158015612571573d6000803e3d6000fd5b505050506040513d601f19601f8201168201806040525081019061259591906153da565b50600080896001600160a01b031663b0bbcd888a8a60008181106125c957634e487b7160e01b600052603260045260246000fd5b905060200201358b8b60018181106125f157634e487b7160e01b600052603260045260246000fd5b905060200201358989308a8e6040518863ffffffff1660e01b815260040161261f9796959493929190615bf6565b600060405180830381600087803b15801561263957600080fd5b505af115801561264d573d6000803e3d6000fd5b505050506040513d6000823e601f3d908101601f1916820160405261267591908101906153f6565b91509150816126c65760405162461bcd60e51b815260206004820152601d60248201527f43434275726e526f757465723a2065786368616e6765206661696c65640000006044820152606401610674565b80600182516126d59190615dba565b815181106126f357634e487b7160e01b600052603260045260246000fd5b602002602001015192505050979650505050505050565b60008061271a8787878787611ee5565b6001600160a01b0381166000908152600b6020526040902080549294509092509061274790600190615dba565b8154811061276557634e487b7160e01b600052603260045260246000fd5b90600052602060002090600702016004015461277e3390565b6001600160a01b038381166000908152600b60205260409020805492909116917fc19dabf19fdfd8c6124bed2178a4564d0c5d5812bfb916777cc90d1b53ed5a5a918a918a918f918f918f918b918b916127da90600190615dba565b815481106127f857634e487b7160e01b600052603260045260246000fd5b90600052602060002090600702016006015460405161281e9897969594939291906159e3565b60405180910390a3505050505050505050565b806001600160a01b0381166128585760405162461bcd60e51b815260040161067490615a41565b600454604080516001600160a01b03928316815291841660208301527ffa021c2ec0f46429a53e7f88b88065e40001f50c9d38b2e8b713beaf9828d4c3910160405180910390a150600480546001600160a01b0319166001600160a01b0392909216919091179055565b6000806002868686866040516020016128de94939291906158a9565b60408051601f19818403018152908290526128f8916158fc565b602060405180830381855afa158015612915573d6000803e3d6000fd5b5050506040513d601f19601f8201168201806040525081019061293891906154b4565b9050600060028260405160200161295191815260200190565b60408051601f198184030181529082905261296b916158fc565b602060405180830381855afa158015612988573d6000803e3d6000fd5b5050506040513d601f19601f820116820180604052508101906129ab91906154b4565b925050505b949350505050565b600080806129ce6129c9868361384b565b61386f565b905062ffffff198082161415612a265760405162461bcd60e51b815260206004820152601a60248201527f426974636f696e48656c7065723a2076696e206973206e756c6c0000000000006044820152606401610674565b6000612a3282866139a5565b90506000612a3f82613ac3565b9050612a4a81613ae7565b9450612a5581613b09565b63ffffffff1693505050509250929050565b60606000612a7f612a7a825b869061384b565b613b33565b905062ffffff198082161415612aa75760405162461bcd60e51b815260040161067490615a78565b6000612ab38285613c24565b90506000612ac082613d1e565b9050612ad162ffffff198216613d6f565b9695505050505050565b6000612ae685613dbf565b6004805460405163626885b560e11b81526001600160401b039390931693506000926001600160a01b039091169163c4d10b6a91612b26918991016159d0565b60206040518083038186803b158015612b3e57600080fd5b505afa158015612b52573d6000803e3d6000fd5b505050506040513d601f19601f82011682018060405250810190612b769190615297565b6004546009549192506001600160a01b03169063b734de2690839061271090612b9f9087615d72565b612ba99190615d52565b3360405160e085901b6001600160e01b03191681526001600160a01b0393841660048201526024810192909252909116604482015260648101859052608401602060405180830381600087803b158015612c0257600080fd5b505af1158015612c16573d6000803e3d6000fd5b505050506040513d601f19601f82011682018060405250810190612c3a91906153da565b507f7ff138134e34ccab071315c38e38eec079f54726b890304ab46e2c5ab6f722bb8186858761271060095488612c719190615d72565b612c7b9190615d52565b612c859088615cc8565b604051612c96959493929190615957565b60405180910390a1505050505050565b806001600160a01b038116612ccd5760405162461bcd60e51b815260040161067490615a41565b600354604080516001600160a01b03928316815291841660208301527f4c28a3f61a715259c4dc930c23e7423b8fa52e13232c061a6e488729c66184f4910160405180910390a150600380546001600160a01b0319166001600160a01b0392909216919091179055565b600a5460408051918252602082018390527f47c5f9c13c35ebb166f6a8d8c56af73f8b323ac0fee7aec4a5e0490bbf67a4fe910160405180910390a1806127101015612dc55760405162461bcd60e51b815260206004820152601d60248201527f43434275726e526f757465723a20696e76616c696420627463206665650000006044820152606401610674565b600a55565b60008080805b85518110156132ec5780612e0d57848181518110612dfe57634e487b7160e01b600052603260045260246000fd5b60200260200101519150612eba565b81858281518110612e2e57634e487b7160e01b600052603260045260246000fd5b602002602001015111612e8f5760405162461bcd60e51b8152602060048201526024808201527f43434275726e526f757465723a20756e2d736f7274656420766f757420696e646044820152636578657360e01b6064820152608401610674565b848181518110612eaf57634e487b7160e01b600052603260045260246000fd5b602002602001015191505b6000868281518110612edc57634e487b7160e01b600052603260045260246000fd5b60200260200101519050600b60008a6001600160a01b03166001600160a01b031681526020019081526020016000208181548110612f2a57634e487b7160e01b600052603260045260246000fd5b600091825260209091206005600790920201015460ff16158015612f9957506001600160a01b0389166000908152600b6020526040902080548b919083908110612f8457634e487b7160e01b600052603260045260246000fd5b90600052602060002090600702016004015410155b156132d95761314488878481518110612fc257634e487b7160e01b600052603260045260246000fd5b6020026020010151600b60008d6001600160a01b03166001600160a01b03168152602001908152602001600020848154811061300e57634e487b7160e01b600052603260045260246000fd5b9060005260206000209060070201600301805461302a90615e24565b80601f016020809104026020016040519081016040528092919081815260200182805461305690615e24565b80156130a35780601f10613078576101008083540402835291602001916130a3565b820191906000526020600020905b81548152906001019060200180831161308657829003601f168201915b5050506001600160a01b038f166000908152600b60205260409020805490925087915081106130e257634e487b7160e01b600052603260045260246000fd5b906000526020600020906007020160050160019054906101000a900460ff16600481111561312057634e487b7160e01b600052602160045260246000fd5b600481111561313f57634e487b7160e01b600052602160045260246000fd5b613e59565b6001600160401b0316935083600b60008b6001600160a01b03166001600160a01b03168152602001908152602001600020828154811061319457634e487b7160e01b600052603260045260246000fd5b90600052602060002090600702016001015414156132d9576001600160a01b0389166000908152600b60205260409020805460019190839081106131e857634e487b7160e01b600052603260045260246000fd5b60009182526020909120600790910201600501805460ff1916911515919091179055613215856001615cc8565b6001600160a01b038a166000818152600b60205260409020805492975090917f1b46655c2f394f2191cb246d5982dbe00ad671f0b590e75e97c90ee97f1f782a91908490811061327557634e487b7160e01b600052603260045260246000fd5b9060005260206000209060070201600601548d8986815181106132a857634e487b7160e01b600052603260045260246000fd5b60200260200101516040516132d0939291909283526020830191909152604082015260600190565b60405180910390a25b50806132e481615e59565b915050612dd0565b5050509695505050505050565b60006133058484614094565b6001600160401b03169050600061331b85614197565b90508115801590613335575080613333876001615cc8565b145b15613358576000838152600d60205260409020805460ff1916600117905561337a565b8086141561337a576000838152600d60205260409020805460ff191660011790555b505050505050565b806001600160a01b0381166133a95760405162461bcd60e51b815260040161067490615a41565b600654604080516001600160a01b03928316815291841660208301527f567657fa3f286518b318f4a29870674f433f622fdfc819691acb13105b228225910160405180910390a150600680546001600160a01b0319166001600160a01b0392909216919091179055565b600080546001600160a01b038381166001600160a01b0319831681178455604051919092169283917f8be0079c531659141344cd1fd0a4f28419497f9722a3daafe3b4186f6b6457e09190a35050565b600081600481111561348557634e487b7160e01b600052602160045260246000fd5b14806134b0575060048160048111156134ae57634e487b7160e01b600052602160045260246000fd5b145b1561350b5781516020146135065760405162461bcd60e51b815260206004820152601c60248201527f43434275726e526f757465723a20696e76616c696420736372697074000000006044820152606401610674565b6106a0565b81516014146106a05760405162461bcd60e51b815260206004820152601c60248201527f43434275726e526f757465723a20696e76616c696420736372697074000000006044820152606401610674565b600080612710600854846135709190615d72565b61357a9190615d52565b9050600a54600261358b9190615d72565b6135959082615cc8565b83116135e35760405162461bcd60e51b815260206004820152601860248201527f43434275726e526f757465723a206c6f7720616d6f756e7400000000000000006044820152606401610674565b60006135ef8285615dba565b60055460065460405163a9059cbb60e01b81526001600160a01b03918216600482015260248101869052929350169063a9059cbb90604401602060405180830381600087803b15801561364157600080fd5b505af1158015613655573d6000803e3d6000fd5b505050506040513d601f19601f8201168201806040525081019061367991906153da565b509150505b919050565b604080516101008101825260006080820181905260a0820181905260c0820181815260e083019190915288825260208201889052339282019290925260608101869052908460048111156136e757634e487b7160e01b600052602160045260246000fd5b9081600481111561370857634e487b7160e01b600052602160045260246000fd5b9052506007546137189084615cc8565b6080820152600060a082018190526001600160a01b038316808252600c6020818152604084205460e0860181905292909352909152613758906001615cc8565b6001600160a01b038381166000908152600c6020908152604080832094909455600b81528382208054600180820183559184529282902086516007909402019283558582015190830155928401516002820180546001600160a01b03191691909316179091556060830151805184936137d8926003850192910190614ff0565b50608082015160048281019190915560a083015160058301805460ff19169115159190911780825560c08501519261ff00199091169061010090849081111561383157634e487b7160e01b600052602160045260246000fd5b021790555060e08201518160060155505050505050505050565b81516000906020840161386664ffffffffff851682846141c3565b95945050505050565b60008181613885815b62ffffff1984169061420a565b50601884901c6001600160601b03166138a55762ffffff195b925061399e565b60006138b28560006142e4565b9050601885901c6001600160601b03166001600160401b0382166138df5762ffffff195b9450505061399e565b60006138ea8361442b565b60ff16905060005b836001600160401b03168110156139665782821061391b5762ffffff195b96505050505061399e565b600061393b61392a8486615dba565b60055b62ffffff198c169190614484565b9050613946816144b8565b6139509084615cc8565b925050808061395e90615e59565b9150506138f2565b5081811461397e5762ffffff195b955050505061399e565b61399860065b60d81b6301000000600160d81b0389161790565b95505050505b5050919050565b60008260066139b381613878565b5060006139c18660006142e4565b6001600160401b03169050601886901c6001600160601b0316818610613a1c5760405162461bcd60e51b815260206004820152601060248201526f2b34b7103932b0b21037bb32b9393ab760811b6044820152606401610674565b6000613a278361442b565b60ff1690506000805b88811015613a7f57613a56613a458486615dba565b60055b62ffffff198d169190614484565b9150613a61826144b8565b613a6b9084615cc8565b9250613a78600182615cc8565b9050613a30565b50613a8d61392a8385615dba565b90506000613a9a826144b8565b9050613ab3838260045b62ffffff198e1692919061450c565b975050505050505b505092915050565b6000816004613ad181613878565b506129b062ffffff19851660006024600361450c565b6000816003613af581613878565b506129b062ffffff1985166000602061457c565b6000816003613b1781613878565b506129b0613b2e62ffffff198616602060046146d5565b61481f565b60008181613b4081613878565b50601884901c6001600160601b0316613b5d5762ffffff1961389e565b6000613b6a8560006142e4565b9050601885901c6001600160601b03166001600160401b038216613b925762ffffff196138d6565b6000613b9d8361442b565b60ff16905060005b836001600160401b0316811015613c0857828210613bc75762ffffff19613910565b6000613bdd613bd68486615dba565b600e61392d565b9050613be881614888565b613bf29084615cc8565b9250508080613c0090615e59565b915050613ba5565b50818114613c1a5762ffffff19613974565b613998600f613984565b600082600f613c3281613878565b506000613c408660006142e4565b6001600160401b03169050601886901c6001600160601b0316818610613c9c5760405162461bcd60e51b81526020600482015260116024820152702b37baba103932b0b21037bb32b9393ab760791b6044820152606401610674565b6000613ca78361442b565b60ff1690506000805b88811015613cf557613ccc613cc58486615dba565b600e613a48565b9150613cd782614888565b613ce19084615cc8565b9250613cee600182615cc8565b9050613cb0565b50613d03613bd68385615dba565b90506000613d1082614888565b9050613ab38382600d613aa4565b600081600d613d2c81613878565b506000613d3a8560086142e4565b9050613866613d488261442b565b613d53906008615d0b565b62ffffff1987169060ff166001600160401b038416600761450c565b6060600080613d878460181c6001600160601b031690565b60405193508392506001600160601b03169050613dae84613da9846020615cc8565b6148d1565b508181016020016040529052919050565b600080613dd1612a7a825b859061384b565b905062ffffff198082161415613df95760405162461bcd60e51b815260040161067490615a78565b600080613e078360006142e4565b6001600160401b0316905060005b81811015613e5057613e278482613c24565b9250613e3283614a29565b613e3c9086615ce0565b945080613e4881615e59565b915050613e15565b50505050919050565b600080613e69612a7a878361384b565b905062ffffff198082161415613e915760405162461bcd60e51b815260040161067490615a78565b6000613e9d8287613c24565b90506000613eaa82613d1e565b90506000856004811115613ece57634e487b7160e01b600052602160045260246000fd5b1415613f3357613ee762ffffff1982166001602061457c565b604051602001613ef991815260200190565b60405160208183030381529060405280519060200120868051906020012014613f23576000613f2c565b613f2c82614a29565b9350614089565b6001856004811115613f5557634e487b7160e01b600052602160045260246000fd5b1415613f9457613f6c62ffffff1982166003614a4e565b604051602001613ef9919060609190911b6bffffffffffffffffffffffff1916815260140190565b6002856004811115613fb657634e487b7160e01b600052602160045260246000fd5b1415613fcd57613f6c62ffffff1982166002614a4e565b6003856004811115613fef57634e487b7160e01b600052602160045260246000fd5b141561400657613f6c62ffffff1982166002614a4e565b600485600481111561402857634e487b7160e01b600052602160045260246000fd5b14156140895761404162ffffff1982166002602061457c565b60405160200161405391815260200190565b6040516020818303038152906040528051906020012086805190602001201461407d576000614086565b61408682614a29565b93505b505050949350505050565b6000806140a3612a7a82612a73565b905062ffffff1980821614156140cb5760405162461bcd60e51b815260040161067490615a78565b60008060006140db8460006142e4565b6001600160401b0316905060005b8181101561418c576140fb8582613c24565b935061410684613d1e565b92508660405160200161411991906158fc565b6040516020818303038152906040528051906020012061413e8462ffffff1916613d6f565b60405160200161414e91906158fc565b60405160208183030381529060405280519060200120141561417a5761417384614a29565b955061418c565b8061418481615e59565b9150506140e9565b505050505092915050565b6000806141a6612a7a82613dca565b90506141b38160006142e4565b6001600160401b03169392505050565b6000806141d08385615cc8565b90506040518111156141e0575060005b806141f25762ffffff19915050614203565b5050606083811b8317901b811760181b5b9392505050565b60006142168383614a5c565b6142dd5760006142356142298560d81c90565b64ffffffffff16614a7f565b915050600061424a8464ffffffffff16614a7f565b6040517f5479706520617373657274696f6e206661696c65642e20476f7420307800000060208201526001600160b01b031960b086811b8216603d8401526c05c408af0e0cac6e8cac84060f609b1b604784015283901b16605482015290925060009150605e015b60405160208183030381529060405290508060405162461bcd60e51b815260040161067491906159d0565b5090919050565b6000806142f962ffffff198516846001614b2b565b905060fc81116143145761430c81614b5b565b91505061112c565b8060fd141561437a5761434261433d61432e856001615cc8565b62ffffff1987169060026146d5565b614b5b565b915061434d8261442b565b60ff166003146143755761437361436e62ffffff198616856003600061450c565b614bc3565b505b614424565b8060fe14156143cf576143a361433d614394856001615cc8565b62ffffff1987169060046146d5565b91506143ae8261442b565b60ff166005146143755761437361436e62ffffff198616856005600061450c565b8060ff1415614424576143f861433d6143e9856001615cc8565b62ffffff1987169060086146d5565b91506144038261442b565b60ff1660091461442457613abb61436e62ffffff198616856009600061450c565b5092915050565b600060fc826001600160401b0316116144465750600161367e565b61ffff826001600160401b0316116144605750600361367e565b63ffffffff826001600160401b03161161447c5750600561367e565b50600961367e565b60006129b0848461449e8760181c6001600160601b031690565b6001600160601b03166144b19190615dba565b858561450c565b60008160056144c681613878565b5060006144d48560246142e4565b9050806001600160401b03166144e98261442b565b60ff166144f69190615cc8565b614501906024615cc8565b613866906004615cc8565b6000806145228660781c6001600160601b031690565b6001600160601b0316905061453686614c4a565b846145418784615cc8565b61454b9190615cc8565b111561455e5762ffffff199150506129b0565b6145688582615cc8565b9050612ad18364ffffffffff1682866141c3565b600060ff821661458e57506000614203565b6145a18460181c6001600160601b031690565b6001600160601b03166145b760ff841685615cc8565b111561461b576146026145d38560781c6001600160601b031690565b6001600160601b03166145ef8660181c6001600160601b031690565b6001600160601b0316858560ff16614c8b565b60405162461bcd60e51b815260040161067491906159d0565b60208260ff1611156146955760405162461bcd60e51b815260206004820152603a60248201527f54797065644d656d566965772f696e646578202d20417474656d70746564207460448201527f6f20696e646578206d6f7265207468616e2033322062797465730000000000006064820152608401610674565b6008820260006146ae8660781c6001600160601b031690565b6001600160601b031690506000600160ff1b60001984011d91909501511695945050505050565b60006129b06146e585858561457c565b600881811c7eff00ff00ff00ff00ff00ff00ff00ff00ff00ff00ff00ff00ff00ff00ff00ff167fff00ff00ff00ff00ff00ff00ff00ff00ff00ff00ff00ff00ff00ff00ff00ff009290911b9190911617601081811c7dffff0000ffff0000ffff0000ffff0000ffff0000ffff0000ffff0000ffff167fffff0000ffff0000ffff0000ffff0000ffff0000ffff0000ffff0000ffff00009290911b9190911617602081811c7bffffffff00000000ffffffff00000000ffffffff00000000ffffffff167fffffffff00000000ffffffff00000000ffffffff00000000ffffffff000000009290911b9190911617604081811c77ffffffffffffffff0000000000000000ffffffffffffffff1677ffffffffffffffff0000000000000000ffffffffffffffff199290911b9190911617608081811c91901b1790565b600063ffffffff8211156148845760405162461bcd60e51b815260206004820152602660248201527f53616665436173743a2076616c756520646f65736e27742066697420696e203360448201526532206269747360d01b6064820152608401610674565b5090565b600081600e61489681613878565b5060006148a48560086142e4565b9050806001600160401b03166148b98261442b565b60ff166148c69190615cc8565b613866906008615cc8565b600062ffffff19808416141561493a5760405162461bcd60e51b815260206004820152602860248201527f54797065644d656d566965772f636f7079546f202d204e756c6c20706f696e7460448201526732b9103232b932b360c11b6064820152608401610674565b61494383614db5565b6149a35760405162461bcd60e51b815260206004820152602b60248201527f54797065644d656d566965772f636f7079546f202d20496e76616c696420706f60448201526a34b73a32b9103232b932b360a91b6064820152608401610674565b60006149b88460181c6001600160601b031690565b6001600160601b0316905060006149d88560781c6001600160601b031690565b6001600160601b0316905060006040519050848111156149f85760206060fd5b8285848460045afa50612ad1614a0e8760d81c90565b64ffffffffff60601b606091821b168717901b841760181b90565b600081600d614a3781613878565b506129b061433d62ffffff198616600060086146d5565b600061420383836014614b2b565b60008164ffffffffff16614a708460d81c90565b64ffffffffff16149392505050565b600080601f5b600f8160ff161115614add576000614a9e826008615d91565b60ff1685901c9050614aaf81614df3565b61ffff16841793508160ff16601014614aca57601084901b93505b50614ad6600182615dd1565b9050614a85565b50600f5b60ff8160ff161015614b255760ff600882021684901c614b0081614df3565b61ffff16831792508160ff16600014614b1b57601083901b92505b5060001901614ae1565b50915091565b6000614b38826020615dd1565b614b43906008615d91565b60ff16614b5185858561457c565b901c949350505050565b60006001600160401b038211156148845760405162461bcd60e51b815260206004820152602660248201527f53616665436173743a2076616c756520646f65736e27742066697420696e203660448201526534206269747360d01b6064820152608401610674565b60606000614bf7614bf282614be4601887901c6001600160601b0316614e23565b62ffffff1987169190614b2b565b614a7f565b6040517f4e6f6e2d6d696e696d616c2076617220696e742e20476f74203078000000000060208201526dffffffffffffffffffffffffffff19607083901b16603b82015290925060009150604d016142b2565b6000614c5f8260181c6001600160601b031690565b614c728360781c6001600160601b031690565b614c7c9190615d30565b6001600160601b031692915050565b60606000614c9886614a7f565b9150506000614ca686614a7f565b9150506000614cb486614a7f565b9150506000614cc286614a7f565b604080517f54797065644d656d566965772f696e646578202d204f76657272616e20746865602082015274040ecd2caee5c40a6d8d2c6ca40d2e640c2e84060f605b1b818301526001600160d01b031960d098891b811660558301526e040eed2e8d040d8cadccee8d04060f608b1b605b830181905297891b8116606a8301527f2e20417474656d7074656420746f20696e646578206174206f666673657420306070830152600f60fb1b609083015295881b861660918201526097810196909652951b90921660a68401525050601760f91b60ac8201528151808203608d01815260ad90910190915295945050505050565b6000614dc18260d81c90565b64ffffffffff1664ffffffffff1415614ddc5750600061367e565b6000614de783614c4a565b60405110199392505050565b6000614e0560048360ff16901c614e84565b60ff161760081b62ffff0016614e1a82614e84565b60ff1617919050565b600060ff8211156148845760405162461bcd60e51b815260206004820152602560248201527f53616665436173743a2076616c756520646f65736e27742066697420696e2038604482015264206269747360d81b6064820152608401610674565b600060f08083179060ff82161415614ea057603091505061367e565b8060ff1660f11415614eb657603191505061367e565b8060ff1660f21415614ecc57603291505061367e565b8060ff1660f31415614ee257603391505061367e565b8060ff1660f41415614ef857603491505061367e565b8060ff1660f51415614f0e57603591505061367e565b8060ff1660f61415614f2457603691505061367e565b8060ff1660f71415614f3a57603791505061367e565b8060ff1660f81415614f5057603891505061367e565b8060ff1660f91415614f6657603991505061367e565b8060ff1660fa1415614f7c57606191505061367e565b8060ff1660fb1415614f9257606291505061367e565b8060ff1660fc1415614fa857606391505061367e565b8060ff1660fd1415614fbe57606491505061367e565b8060ff1660fe1415614fd457606591505061367e565b8060ff1660ff1415614fea57606691505061367e565b50919050565b828054614ffc90615e24565b90600052602060002090601f01602090048101928261501e5760008555615064565b82601f1061503757805160ff1916838001178555615064565b82800160010185558215615064579182015b82811115615064578251825591602001919060010190615049565b506148849291505b80821115614884576000815560010161506c565b803561367e81615ea0565b60008083601f84011261509c578182fd5b5081356001600160401b038111156150b2578182fd5b60208301915083602080830285010111156150cc57600080fd5b9250929050565b600082601f8301126150e3578081fd5b813560206150f86150f383615ca5565b615c75565b8281528181019085830183850287018401881015615114578586fd5b855b8581101561513957615127826151ab565b84529284019290840190600101615116565b5090979650505050505050565b600082601f830112615156578081fd5b813560206151666150f383615ca5565b8281528181019085830183850287018401881015615182578586fd5b855b8581101561513957813584529284019290840190600101615184565b803561367e81615eb5565b80356001600160e01b03198116811461367e57600080fd5b60008083601f8401126151d4578182fd5b5081356001600160401b038111156151ea578182fd5b6020830191508360208285010111156150cc57600080fd5b600082601f830112615212578081fd5b81356001600160401b0381111561522b5761522b615e8a565b61523e601f8201601f1916602001615c75565b818152846020838601011115615252578283fd5b816020850160208301379081016020019190915292915050565b80356005811061367e57600080fd5b60006020828403121561528c578081fd5b813561420381615ea0565b6000602082840312156152a8578081fd5b815161420381615ea0565b60008060008060008060008060008060006101008c8e0312156152d4578687fd5b6152dd8c615080565b9a506001600160401b038060208e013511156152f7578788fd5b6153078e60208f01358f0161508b565b909b50995061531860408e016151a0565b98508060608e0135111561532a578788fd5b61533a8e60608f01358f0161508b565b909850965060808d0135955060a08d0135811015615356578485fd5b6153668e60a08f01358f01615202565b945061537460c08e0161526c565b93508060e08e01351115615386578283fd5b506153978d60e08e01358e016151c3565b81935080925050509295989b509295989b9093969950565b600080604083850312156153c1578182fd5b82356153cc81615ea0565b946020939093013593505050565b6000602082840312156153eb578081fd5b815161420381615eb5565b60008060408385031215615408578182fd5b825161541381615eb5565b809250506020808401516001600160401b03811115615430578283fd5b8401601f81018613615440578283fd5b805161544e6150f382615ca5565b81815283810190838501858402850186018a101561546a578687fd5b8694505b8385101561548c57805183526001949094019391850191850161546e565b5080955050505050509250929050565b6000602082840312156154ad578081fd5b5035919050565b6000602082840312156154c5578081fd5b5051919050565b6000806000806000806000806000806101408b8d0312156154eb578384fd5b6154f48b6151ab565b995060208b01356001600160401b038082111561550f578586fd5b61551b8e838f01615202565b9a5060408d0135915080821115615530578586fd5b61553c8e838f01615202565b995061554a60608e016151ab565b985060808d0135975060a08d0135915080821115615566578586fd5b6155728e838f01615202565b965060c08d0135955060e08d013591508082111561558e578485fd5b61559a8e838f01615202565b94506101008d01359150808211156155b0578384fd5b6155bc8e838f01615146565b93506101208d01359150808211156155d2578283fd5b506155df8d828e01615146565b9150509295989b9194979a5092959850565b600080600060408486031215615605578081fd5b83356001600160401b038082111561561b578283fd5b615627878388016151c3565b9095509350602086013591508082111561563f578283fd5b5061564c86828701615146565b9150509250925092565b60008060008060008060008060006101208a8c031215615674578283fd5b89356001600160401b038082111561568a578485fd5b6156968d838e01615202565b9a5060208c01359150808211156156ab578485fd5b6156b78d838e016150d3565b995060408c01359150808211156156cc578485fd5b6156d88d838e01615202565b985060608c01359150808211156156ed578485fd5b6156f98d838e01615202565b975060808c013591508082111561570e578485fd5b61571a8d838e01615202565b965060a08c013591508082111561572f578485fd5b61573b8d838e01615202565b955060c08c0135915080821115615750578485fd5b61575c8d838e016150d3565b945060e08c0135915080821115615771578384fd5b61577d8d838e01615202565b93506101008c0135915080821115615793578283fd5b506157a08c828d01615146565b9150509295985092959850929598565b6000806000806000608086880312156157c7578283fd5b8535945060208601356001600160401b03808211156157e4578485fd5b6157f089838a01615202565b95506157fe6040890161526c565b94506060880135915080821115615813578283fd5b50615820888289016151c3565b969995985093965092949392505050565b60008284528282602086013780602084860101526020601f19601f85011685010190509392505050565b60008151808452615873816020860160208601615df4565b601f01601f19169290920160200192915050565b600581106158a557634e487b7160e01b600052602160045260246000fd5b9052565b600063ffffffff60e01b808716835285516158cb816004860160208a01615df4565b8551908401906158e2816004840160208a01615df4565b919094169301600481019390935250506008019392505050565b6000825161590e818460208701615df4565b9190910192915050565b600060018060a01b038716825285602083015284604083015260a0606083015261594560a083018561585b565b90508260808301529695505050505050565b6001600160a01b038616815260a06020820181905260009061597b9083018761585b565b604083019590955250606081019290925260809091015292915050565b6000602082526129b0602083018486615831565b6000604082526159c0604083018587615831565b9050826020830152949350505050565b600060208252614203602083018461585b565b60006101008083526159f78184018c61585b565b915050615a07602083018a615887565b60408201979097526001600160a01b039586166060820152608081019490945260a084019290925290921660c082015260e0015292915050565b6020808252601a908201527f43434275726e526f757465723a207a65726f2061646472657373000000000000604082015260600190565b6020808252601b908201527f426974636f696e48656c7065723a20766f7574206973206e756c6c0000000000604082015260600190565b60208082526018908201527f43434275726e526f757465723a206e6f74206c6f636b65720000000000000000604082015260600190565b6020808252818101527f4f776e61626c653a2063616c6c6572206973206e6f7420746865206f776e6572604082015260600190565b60208082526021908201527f43434275726e526f757465723a20646561646c696e65206e6f742070617373656040820152601960fa1b606082015260800190565b6020808252601f908201527f5265656e7472616e637947756172643a207265656e7472616e742063616c6c00604082015260600190565b888152602081018890526001600160a01b038716604082015261010060608201819052600090615bc58382018961585b565b91505085608083015284151560a0830152615be360c0830185615887565b8260e08301529998505050505050505050565b878152602080820188905260c0604083018190528201869052600090879060e08401835b89811015615c48578335615c2d81615ea0565b6001600160a01b031682529282019290820190600101615c1a565b506001600160a01b039790971660608501525050506080810192909252151560a090910152949350505050565b604051601f8201601f191681016001600160401b0381118282101715615c9d57615c9d615e8a565b604052919050565b60006001600160401b03821115615cbe57615cbe615e8a565b5060209081020190565b60008219821115615cdb57615cdb615e74565b500190565b60006001600160401b03808316818516808303821115615d0257615d02615e74565b01949350505050565b600060ff821660ff84168060ff03821115615d2857615d28615e74565b019392505050565b60006001600160601b03808316818516808303821115615d0257615d02615e74565b600082615d6d57634e487b7160e01b81526012600452602481fd5b500490565b6000816000190483118215151615615d8c57615d8c615e74565b500290565b600060ff821660ff84168160ff0481118215151615615db257615db2615e74565b029392505050565b600082821015615dcc57615dcc615e74565b500390565b600060ff821660ff841680821015615deb57615deb615e74565b90039392505050565b60005b83811015615e0f578181015183820152602001615df7565b83811115615e1e576000848401525b50505050565b600281046001821680615e3857607f821691505b60208210811415614fea57634e487b7160e01b600052602260045260246000fd5b6000600019821415615e6d57615e6d615e74565b5060010190565b634e487b7160e01b600052601160045260246000fd5b634e487b7160e01b600052604160045260246000fd5b6001600160a01b03811681146108c257600080fd5b80151581146108c257600080fdfea26469706673582212207e7f39a35cdf790a49aae13eb9bdb22c00c82c3a8180ddb38035c5ade729f95164736f6c63430008020033",
  "libraries": {
    "RelayHelper": "0xb0C3b1392E32E0d55F127783256c2a1c83106B6B"
  },
  "devdoc": {
    "kind": "dev",
    "methods": {
      "burnProof(bytes4,bytes,bytes,bytes4,uint256,bytes,uint256,bytes,uint256[],uint256[])": {
        "details": "Makes isTransferred flag true for the paid requests",
        "params": {
          "_blockNumber": "Height of the block containing the Bitcoin tx",
          "_burnReqIndexes": "Indexes of requests that locker wants to provide proof for them",
          "_index": "Index of the Bitcoin tx the block",
          "_intermediateNodes": "Merkle inclusion proof for the Bitcoin tx",
          "_lockerLockingScript": "Locker's locking script that this burn request belongs to",
          "_locktime": "Lock time of the Bitcoin tx",
          "_version": "Version of the Bitcoin tx",
          "_vin": "Inputs of the Bitcoin tx",
          "_vout": "Outputs of the Bitcoin tx",
          "_voutIndexes": "Indexes of outputs that were used to pay burn requests.                      _voutIndexes[i] belongs to _burnReqIndexes[i]"
        }
      },
      "ccBurn(uint256,bytes,uint8,bytes)": {
        "details": "After submitting the burn request, lockers have a limited time      to send BTC and provide burn proof",
        "params": {
          "_amount": "of teleBTC that user wants to burn",
          "_lockerLockingScript": "of locker that should execute the burn request",
          "_scriptType": "User script type",
          "_userScript": "User script hash"
        }
      },
      "ccExchangeAndBurn(address,uint256[],bool,address[],uint256,bytes,uint8,bytes)": {
        "details": "After exchanging, rest of the process is similar to ccBurn",
        "params": {
          "_amounts": "[inputTokenAmount, teleBTCAmount]",
          "_deadline": "of exchanging",
          "_exchangeConnector": "Address of exchange connector that be used",
          "_isFixedToken": "True if input token amount is fixed",
          "_path": "of exchanging inputToken to teleBTC"
        }
      },
      "constructor": {
        "params": {
          "_bitcoinFee": "Fee of submitting a transaction on Bitcoin",
          "_lockers": "Address of lockers contract",
          "_protocolPercentageFee": "Percentage of tokens that user pays to protocol for burning",
          "_relay": "Address of relay contract",
          "_slasherPercentageReward": "Percentage of tokens that slasher receives after slashing a locker",
          "_startingBlockNumber": "Requests that are included in a block older                              than _startingBlockNumber cannot be executed",
          "_teleBTC": "Address of teleBTC contract",
          "_transferDeadline": "of sending BTC to user (aster submitting a burn request)",
          "_treasury": "Address of the treasury of the protocol"
        }
      },
      "disputeBurn(bytes,uint256[])": {
        "params": {
          "_indices": "Indices of requests that their deadline has passed",
          "_lockerLockingScript": "Locker's locking script that the unpaid request belongs to"
        },
        "returns": {
          "_0": "True if dispute is successful"
        }
      },
      "disputeLocker(bytes,bytes4[],bytes,bytes,bytes,bytes,bytes4[],bytes,uint256[])": {
        "details": "Input tx is a malicious tx which shows that locker spent BTC      Output tx is the tx that was spent by locker in input tx      Output tx shows money goes to locker      Input tx shows locker steals the funds",
        "params": {
          "_indexesAndBlockNumbers": "Indices of malicious input in input tx, input tx in block and block number of input tx",
          "_inputIntermediateNodes": "Merkle inclusion proof for the malicious transaction",
          "_inputVin": "Inputs of the malicious transaction",
          "_inputVout": "Outputs of the malicious transaction",
          "_lockerLockingScript": "Suspicious locker's locking script",
          "_locktimes": "Locktimes of input and output tx",
          "_outputVin": "Inputs of the spent transaction",
          "_outputVout": "Outputs of the spent transaction",
          "_versions": "Versions of input and output tx"
        },
        "returns": {
          "_0": "True if dispute is successful"
        }
      },
      "fixTransferDeadline()": {
        "details": "This func protects lockers in the case that finalization parameter was updated      so they can process burn requests"
      },
      "isTransferred(address,uint256)": {
        "params": {
          "_index": "the request for the locker",
          "_lockerTargetAddress": "Locker address on the target chain"
        }
      },
      "owner()": {
        "details": "Returns the address of the current owner."
      },
      "renounceOwnership()": {
        "details": "Leaves the contract without owner. It will not be possible to call `onlyOwner` functions anymore. Can only be called by the current owner. NOTE: Renouncing ownership will leave the contract without an owner, thereby removing any functionality that is only available to the owner."
      },
      "setBitcoinFee(uint256)": {
        "details": "Only owner can call this",
        "params": {
          "_bitcoinFee": "The new Bitcoin transaction fee"
        }
      },
      "setLockers(address)": {
        "details": "Only owner can call this",
        "params": {
          "_lockers": "The new lockers contract address"
        }
      },
      "setProtocolPercentageFee(uint256)": {
        "details": "Only owner can call this",
        "params": {
          "_protocolPercentageFee": "The new protocol percentage fee"
        }
      },
      "setRelay(address)": {
        "details": "Only owner can call this",
        "params": {
          "_relay": "The new relay contract address"
        }
      },
      "setSlasherPercentageReward(uint256)": {
        "details": "Only owner can call this",
        "params": {
          "_slasherPercentageReward": "The new slasher percentage reward"
        }
      },
      "setTeleBTC(address)": {
        "details": "Only owner can call this",
        "params": {
          "_teleBTC": "The new teleBTC contract address"
        }
      },
      "setTransferDeadline(uint256)": {
        "details": "Only owner can call this      Deadline should be greater than relay finalization parameter",
        "params": {
          "_transferDeadline": "The new transfer deadline"
        }
      },
      "setTreasury(address)": {
        "details": "Only owner can call this",
        "params": {
          "_treasury": "The new treasury address"
        }
      },
      "transferOwnership(address)": {
        "details": "Transfers ownership of the contract to a new account (`newOwner`). Can only be called by the current owner."
      }
    },
    "version": 1
  },
  "userdoc": {
    "events": {
      "CCBurn(address,bytes,uint8,uint256,address,uint256,uint256,address,uint256,uint256)": {
        "notice": "Emits when a burn request gets submitted"
      },
      "LockerDispute(address,bytes,uint256,bytes32,uint256)": {
        "notice": "Emits when a locker gets slashed for withdrawing BTC without proper reason"
      },
      "NewBitcoinFee(uint256,uint256)": {
        "notice": "Emits when bitcoin fee is updated"
      },
      "NewLockers(address,address)": {
        "notice": "Emits when lockers address is updated"
      },
      "NewProtocolPercentageFee(uint256,uint256)": {
        "notice": "Emits when percentage fee is updated"
      },
      "NewRelay(address,address)": {
        "notice": "Emits when relay address is updated"
      },
      "NewSlasherPercentageFee(uint256,uint256)": {
        "notice": "Emits when slasher percentage fee is updated"
      },
      "NewTeleBTC(address,address)": {
        "notice": "Emits when TeleBTC address is updated"
      },
      "NewTransferDeadline(uint256,uint256)": {
        "notice": "Emits when transfer deadline is updated"
      },
      "NewTreasury(address,address)": {
        "notice": "Emits when treasury address is updated"
      },
      "PaidCCBurn(address,uint256,bytes32,uint256)": {
        "notice": "Emits when a burn proof is provided"
      }
    },
    "kind": "user",
    "methods": {
      "burnProof(bytes4,bytes,bytes,bytes4,uint256,bytes,uint256,bytes,uint256[],uint256[])": {
        "notice": "Checks the correctness of burn proof (which is a Bitcoin tx)"
      },
      "ccBurn(uint256,bytes,uint8,bytes)": {
        "notice": "Records a burn request for user"
      },
      "ccExchangeAndBurn(address,uint256[],bool,address[],uint256,bytes,uint8,bytes)": {
        "notice": "Exchanges input token for teleBTC then burns it"
      },
      "constructor": {
        "notice": "Handles cross-chain burn requests"
      },
      "disputeBurn(bytes,uint256[])": {
        "notice": "Slashes a locker if did not pay a cc burn request before its deadline"
      },
      "disputeLocker(bytes,bytes4[],bytes,bytes,bytes,bytes,bytes4[],bytes,uint256[])": {
        "notice": "Slashes a locker if they issue a tx that doesn't match any burn request"
      },
      "fixTransferDeadline()": {
        "notice": "Updating payback deadline if it becomes less than finalization parameter"
      },
      "isTransferred(address,uint256)": {
        "notice": "Returns true is request has been processed"
      },
      "setBitcoinFee(uint256)": {
        "notice": "Updates Bitcoin transaction fee"
      },
      "setLockers(address)": {
        "notice": "Updates lockers contract address"
      },
      "setProtocolPercentageFee(uint256)": {
        "notice": "Updates protocol percentage fee for burning tokens"
      },
      "setRelay(address)": {
        "notice": "Updates relay contract address"
      },
      "setSlasherPercentageReward(uint256)": {
        "notice": "Updates slasher percentage reward for disputing lockers"
      },
      "setTeleBTC(address)": {
        "notice": "Updates teleBTC contract address"
      },
      "setTransferDeadline(uint256)": {
        "notice": "Updates deadline of executing burn requests"
      },
      "setTreasury(address)": {
        "notice": "Updates protocol treasury address"
      }
    },
    "version": 1
  },
  "storageLayout": {
    "storage": [
      {
        "astId": 7,
        "contract": "contracts/routers/CCBurnRouter.sol:CCBurnRouter",
        "label": "_owner",
        "offset": 0,
        "slot": "0",
        "type": "t_address"
      },
      {
        "astId": 114,
        "contract": "contracts/routers/CCBurnRouter.sol:CCBurnRouter",
        "label": "_status",
        "offset": 0,
        "slot": "1",
        "type": "t_uint256"
      },
      {
        "astId": 6675,
        "contract": "contracts/routers/CCBurnRouter.sol:CCBurnRouter",
        "label": "startingBlockNumber",
        "offset": 0,
        "slot": "2",
        "type": "t_uint256"
      },
      {
        "astId": 6678,
        "contract": "contracts/routers/CCBurnRouter.sol:CCBurnRouter",
        "label": "relay",
        "offset": 0,
        "slot": "3",
        "type": "t_address"
      },
      {
        "astId": 6681,
        "contract": "contracts/routers/CCBurnRouter.sol:CCBurnRouter",
        "label": "lockers",
        "offset": 0,
        "slot": "4",
        "type": "t_address"
      },
      {
        "astId": 6684,
        "contract": "contracts/routers/CCBurnRouter.sol:CCBurnRouter",
        "label": "teleBTC",
        "offset": 0,
        "slot": "5",
        "type": "t_address"
      },
      {
        "astId": 6687,
        "contract": "contracts/routers/CCBurnRouter.sol:CCBurnRouter",
        "label": "treasury",
        "offset": 0,
        "slot": "6",
        "type": "t_address"
      },
      {
        "astId": 6690,
        "contract": "contracts/routers/CCBurnRouter.sol:CCBurnRouter",
        "label": "transferDeadline",
        "offset": 0,
        "slot": "7",
        "type": "t_uint256"
      },
      {
        "astId": 6693,
        "contract": "contracts/routers/CCBurnRouter.sol:CCBurnRouter",
        "label": "protocolPercentageFee",
        "offset": 0,
        "slot": "8",
        "type": "t_uint256"
      },
      {
        "astId": 6696,
        "contract": "contracts/routers/CCBurnRouter.sol:CCBurnRouter",
        "label": "slasherPercentageReward",
        "offset": 0,
        "slot": "9",
        "type": "t_uint256"
      },
      {
        "astId": 6699,
        "contract": "contracts/routers/CCBurnRouter.sol:CCBurnRouter",
        "label": "bitcoinFee",
        "offset": 0,
        "slot": "10",
        "type": "t_uint256"
      },
      {
        "astId": 6705,
        "contract": "contracts/routers/CCBurnRouter.sol:CCBurnRouter",
        "label": "burnRequests",
        "offset": 0,
        "slot": "11",
        "type": "t_mapping(t_address,t_array(t_struct(burnRequest)8418_storage)dyn_storage)"
      },
      {
        "astId": 6709,
        "contract": "contracts/routers/CCBurnRouter.sol:CCBurnRouter",
        "label": "burnRequestCounter",
        "offset": 0,
        "slot": "12",
        "type": "t_mapping(t_address,t_uint256)"
      },
      {
        "astId": 6714,
        "contract": "contracts/routers/CCBurnRouter.sol:CCBurnRouter",
        "label": "isUsedAsBurnProof",
        "offset": 0,
        "slot": "13",
        "type": "t_mapping(t_bytes32,t_bool)"
      }
    ],
    "types": {
      "t_address": {
        "encoding": "inplace",
        "label": "address",
        "numberOfBytes": "20"
      },
      "t_array(t_struct(burnRequest)8418_storage)dyn_storage": {
        "base": "t_struct(burnRequest)8418_storage",
        "encoding": "dynamic_array",
        "label": "struct ICCBurnRouter.burnRequest[]",
        "numberOfBytes": "32"
      },
      "t_bool": {
        "encoding": "inplace",
        "label": "bool",
        "numberOfBytes": "1"
      },
      "t_bytes32": {
        "encoding": "inplace",
        "label": "bytes32",
        "numberOfBytes": "32"
      },
      "t_bytes_storage": {
        "encoding": "bytes",
        "label": "bytes",
        "numberOfBytes": "32"
      },
      "t_enum(ScriptTypes)8805": {
        "encoding": "inplace",
        "label": "enum ScriptTypes",
        "numberOfBytes": "1"
      },
      "t_mapping(t_address,t_array(t_struct(burnRequest)8418_storage)dyn_storage)": {
        "encoding": "mapping",
        "key": "t_address",
        "label": "mapping(address => struct ICCBurnRouter.burnRequest[])",
        "numberOfBytes": "32",
        "value": "t_array(t_struct(burnRequest)8418_storage)dyn_storage"
      },
      "t_mapping(t_address,t_uint256)": {
        "encoding": "mapping",
        "key": "t_address",
        "label": "mapping(address => uint256)",
        "numberOfBytes": "32",
        "value": "t_uint256"
      },
      "t_mapping(t_bytes32,t_bool)": {
        "encoding": "mapping",
        "key": "t_bytes32",
        "label": "mapping(bytes32 => bool)",
        "numberOfBytes": "32",
        "value": "t_bool"
      },
      "t_struct(burnRequest)8418_storage": {
        "encoding": "inplace",
        "label": "struct ICCBurnRouter.burnRequest",
        "members": [
          {
            "astId": 8402,
            "contract": "contracts/routers/CCBurnRouter.sol:CCBurnRouter",
            "label": "amount",
            "offset": 0,
            "slot": "0",
            "type": "t_uint256"
          },
          {
            "astId": 8404,
            "contract": "contracts/routers/CCBurnRouter.sol:CCBurnRouter",
            "label": "burntAmount",
            "offset": 0,
            "slot": "1",
            "type": "t_uint256"
          },
          {
            "astId": 8406,
            "contract": "contracts/routers/CCBurnRouter.sol:CCBurnRouter",
            "label": "sender",
            "offset": 0,
            "slot": "2",
            "type": "t_address"
          },
          {
            "astId": 8408,
            "contract": "contracts/routers/CCBurnRouter.sol:CCBurnRouter",
            "label": "userScript",
            "offset": 0,
            "slot": "3",
            "type": "t_bytes_storage"
          },
          {
            "astId": 8410,
            "contract": "contracts/routers/CCBurnRouter.sol:CCBurnRouter",
            "label": "deadline",
            "offset": 0,
            "slot": "4",
            "type": "t_uint256"
          },
          {
            "astId": 8412,
            "contract": "contracts/routers/CCBurnRouter.sol:CCBurnRouter",
            "label": "isTransferred",
            "offset": 0,
            "slot": "5",
            "type": "t_bool"
          },
          {
            "astId": 8415,
            "contract": "contracts/routers/CCBurnRouter.sol:CCBurnRouter",
            "label": "scriptType",
            "offset": 1,
            "slot": "5",
            "type": "t_enum(ScriptTypes)8805"
          },
          {
            "astId": 8417,
            "contract": "contracts/routers/CCBurnRouter.sol:CCBurnRouter",
            "label": "requestIdOfLocker",
            "offset": 0,
            "slot": "6",
            "type": "t_uint256"
          }
        ],
        "numberOfBytes": "224"
      },
      "t_uint256": {
        "encoding": "inplace",
        "label": "uint256",
        "numberOfBytes": "32"
      }
    }
  }
}