{
  "address": "0xe296F851f6644637f3Da91132f6b817742B143f8",
  "abi": [
    {
      "inputs": [
        {
          "internalType": "address",
          "name": "_relay",
          "type": "address"
        },
        {
          "internalType": "address",
          "name": "_lockers",
          "type": "address"
        },
        {
          "internalType": "address",
          "name": "_treasury",
          "type": "address"
        },
        {
          "internalType": "uint256",
          "name": "_transferDeadline",
          "type": "uint256"
        },
        {
          "internalType": "uint256",
          "name": "_protocolPercentageFee",
          "type": "uint256"
        },
        {
          "internalType": "uint256",
          "name": "_slasherPercentageReward",
          "type": "uint256"
        },
        {
          "internalType": "uint256",
          "name": "_bitcoinFee",
          "type": "uint256"
        }
      ],
      "stateMutability": "nonpayable",
      "type": "constructor"
    },
    {
      "anonymous": false,
      "inputs": [
        {
          "indexed": true,
          "internalType": "address",
          "name": "userTargetAddress",
          "type": "address"
        },
        {
          "indexed": true,
          "internalType": "address",
          "name": "_lockerTargetAddress",
          "type": "address"
        },
        {
          "indexed": false,
          "internalType": "bytes",
          "name": "lockerLockingScript",
          "type": "bytes"
        },
        {
          "indexed": false,
          "internalType": "uint256",
          "name": "requestIdOfLocker",
          "type": "uint256"
        }
      ],
      "name": "BurnDispute",
      "type": "event"
    },
    {
      "anonymous": false,
      "inputs": [
        {
          "indexed": true,
          "internalType": "address",
          "name": "userTargetAddress",
          "type": "address"
        },
        {
          "indexed": false,
          "internalType": "bytes",
          "name": "userScript",
          "type": "bytes"
        },
        {
          "indexed": false,
          "internalType": "enum ScriptTypes",
          "name": "scriptType",
          "type": "uint8"
        },
        {
          "indexed": false,
          "internalType": "uint256",
          "name": "amount",
          "type": "uint256"
        },
        {
          "indexed": false,
          "internalType": "uint256",
          "name": "burntAmount",
          "type": "uint256"
        },
        {
          "indexed": true,
          "internalType": "address",
          "name": "lockerTargetAddress",
          "type": "address"
        },
        {
          "indexed": false,
          "internalType": "bytes",
          "name": "lockerLockingScript",
          "type": "bytes"
        },
        {
          "indexed": false,
          "internalType": "uint256",
          "name": "requestIdOfLocker",
          "type": "uint256"
        },
        {
          "indexed": true,
          "internalType": "uint256",
          "name": "deadline",
          "type": "uint256"
        }
      ],
      "name": "CCBurn",
      "type": "event"
    },
    {
      "anonymous": false,
      "inputs": [
        {
          "indexed": true,
          "internalType": "address",
          "name": "_lockerTargetAddress",
          "type": "address"
        },
        {
          "indexed": false,
          "internalType": "bytes",
          "name": "lockerLockingScript",
          "type": "bytes"
        },
        {
          "indexed": false,
          "internalType": "uint256",
          "name": "_blockNumber",
          "type": "uint256"
        },
        {
          "indexed": false,
          "internalType": "bytes32",
          "name": "txId",
          "type": "bytes32"
        },
        {
          "indexed": false,
          "internalType": "uint256",
          "name": "amount",
          "type": "uint256"
        }
      ],
      "name": "LockerDispute",
      "type": "event"
    },
    {
      "anonymous": false,
      "inputs": [
        {
          "indexed": true,
          "internalType": "address",
          "name": "previousOwner",
          "type": "address"
        },
        {
          "indexed": true,
          "internalType": "address",
          "name": "newOwner",
          "type": "address"
        }
      ],
      "name": "OwnershipTransferred",
      "type": "event"
    },
    {
      "anonymous": false,
      "inputs": [
        {
          "indexed": true,
          "internalType": "address",
          "name": "lockerTargetAddress",
          "type": "address"
        },
        {
          "indexed": false,
          "internalType": "uint256",
          "name": "requestIdOfLocker",
          "type": "uint256"
        },
        {
          "indexed": false,
          "internalType": "bytes32",
          "name": "bitcoinTxId",
          "type": "bytes32"
        },
        {
          "indexed": false,
          "internalType": "uint256",
          "name": "bitcoinTxOutputIndex",
          "type": "uint256"
        }
      ],
      "name": "PaidCCBurn",
      "type": "event"
    },
    {
      "inputs": [],
      "name": "bitcoinFee",
      "outputs": [
        {
          "internalType": "uint256",
          "name": "",
          "type": "uint256"
        }
      ],
      "stateMutability": "view",
      "type": "function"
    },
    {
      "inputs": [
        {
          "internalType": "bytes4",
          "name": "_version",
          "type": "bytes4"
        },
        {
          "internalType": "bytes",
          "name": "_vin",
          "type": "bytes"
        },
        {
          "internalType": "bytes",
          "name": "_vout",
          "type": "bytes"
        },
        {
          "internalType": "bytes4",
          "name": "_locktime",
          "type": "bytes4"
        },
        {
          "internalType": "uint256",
          "name": "_blockNumber",
          "type": "uint256"
        },
        {
          "internalType": "bytes",
          "name": "_intermediateNodes",
          "type": "bytes"
        },
        {
          "internalType": "uint256",
          "name": "_index",
          "type": "uint256"
        },
        {
          "internalType": "bytes",
          "name": "_lockerLockingScript",
          "type": "bytes"
        },
        {
          "internalType": "uint256[]",
          "name": "_burnReqIndexes",
          "type": "uint256[]"
        },
        {
          "internalType": "uint256[]",
          "name": "_voutIndexes",
          "type": "uint256[]"
        }
      ],
      "name": "burnProof",
      "outputs": [
        {
          "internalType": "bool",
          "name": "",
          "type": "bool"
        }
      ],
      "stateMutability": "payable",
      "type": "function"
    },
    {
      "inputs": [
        {
          "internalType": "address",
          "name": "",
          "type": "address"
        }
      ],
      "name": "burnRequestCounter",
      "outputs": [
        {
          "internalType": "uint256",
          "name": "",
          "type": "uint256"
        }
      ],
      "stateMutability": "view",
      "type": "function"
    },
    {
      "inputs": [
        {
          "internalType": "address",
          "name": "",
          "type": "address"
        },
        {
          "internalType": "uint256",
          "name": "",
          "type": "uint256"
        }
      ],
      "name": "burnRequests",
      "outputs": [
        {
          "internalType": "uint256",
          "name": "amount",
          "type": "uint256"
        },
        {
          "internalType": "uint256",
          "name": "burntAmount",
          "type": "uint256"
        },
        {
          "internalType": "address",
          "name": "sender",
          "type": "address"
        },
        {
          "internalType": "bytes",
          "name": "userScript",
          "type": "bytes"
        },
        {
          "internalType": "uint256",
          "name": "deadline",
          "type": "uint256"
        },
        {
          "internalType": "bool",
          "name": "isTransferred",
          "type": "bool"
        },
        {
          "internalType": "enum ScriptTypes",
          "name": "scriptType",
          "type": "uint8"
        },
        {
          "internalType": "uint256",
          "name": "requestIdOfLocker",
          "type": "uint256"
        }
      ],
      "stateMutability": "view",
      "type": "function"
    },
    {
      "inputs": [
        {
          "internalType": "uint256",
          "name": "_amount",
          "type": "uint256"
        },
        {
          "internalType": "bytes",
          "name": "_userScript",
          "type": "bytes"
        },
        {
          "internalType": "enum ScriptTypes",
          "name": "_scriptType",
          "type": "uint8"
        },
        {
          "internalType": "bytes",
          "name": "_lockerLockingScript",
          "type": "bytes"
        }
      ],
      "name": "ccBurn",
      "outputs": [
        {
          "internalType": "uint256",
          "name": "_burntAmount",
          "type": "uint256"
        }
      ],
      "stateMutability": "nonpayable",
      "type": "function"
    },
    {
      "inputs": [
        {
          "internalType": "bytes",
          "name": "_lockerLockingScript",
          "type": "bytes"
        },
        {
          "internalType": "uint256[]",
          "name": "_indices",
          "type": "uint256[]"
        }
      ],
      "name": "disputeBurn",
      "outputs": [
        {
          "internalType": "bool",
          "name": "",
          "type": "bool"
        }
      ],
      "stateMutability": "nonpayable",
      "type": "function"
    },
    {
      "inputs": [
        {
          "internalType": "bytes",
          "name": "_lockerLockingScript",
          "type": "bytes"
        },
        {
          "internalType": "bytes4[]",
          "name": "_versions",
          "type": "bytes4[]"
        },
        {
          "internalType": "bytes",
          "name": "_inputVin",
          "type": "bytes"
        },
        {
          "internalType": "bytes",
          "name": "_inputVout",
          "type": "bytes"
        },
        {
          "internalType": "bytes",
          "name": "_outputVin",
          "type": "bytes"
        },
        {
          "internalType": "bytes",
          "name": "_outputVout",
          "type": "bytes"
        },
        {
          "internalType": "bytes4[]",
          "name": "_locktimes",
          "type": "bytes4[]"
        },
        {
          "internalType": "bytes",
          "name": "_inputIntermediateNodes",
          "type": "bytes"
        },
        {
          "internalType": "uint256[]",
          "name": "_indexesAndBlockNumbers",
          "type": "uint256[]"
        }
      ],
      "name": "disputeLocker",
      "outputs": [
        {
          "internalType": "bool",
          "name": "",
          "type": "bool"
        }
      ],
      "stateMutability": "payable",
      "type": "function"
    },
    {
      "inputs": [
        {
          "internalType": "address",
          "name": "_lockerTargetAddress",
          "type": "address"
        },
        {
          "internalType": "uint256",
          "name": "_index",
          "type": "uint256"
        }
      ],
      "name": "isTransferred",
      "outputs": [
        {
          "internalType": "bool",
          "name": "",
          "type": "bool"
        }
      ],
      "stateMutability": "view",
      "type": "function"
    },
    {
      "inputs": [
        {
          "internalType": "bytes32",
          "name": "",
          "type": "bytes32"
        }
      ],
      "name": "isUsedAsBurnProof",
      "outputs": [
        {
          "internalType": "bool",
          "name": "",
          "type": "bool"
        }
      ],
      "stateMutability": "view",
      "type": "function"
    },
    {
      "inputs": [],
      "name": "lockers",
      "outputs": [
        {
          "internalType": "address",
          "name": "",
          "type": "address"
        }
      ],
      "stateMutability": "view",
      "type": "function"
    },
    {
      "inputs": [],
      "name": "owner",
      "outputs": [
        {
          "internalType": "address",
          "name": "",
          "type": "address"
        }
      ],
      "stateMutability": "view",
      "type": "function"
    },
    {
      "inputs": [],
      "name": "protocolPercentageFee",
      "outputs": [
        {
          "internalType": "uint256",
          "name": "",
          "type": "uint256"
        }
      ],
      "stateMutability": "view",
      "type": "function"
    },
    {
      "inputs": [],
      "name": "relay",
      "outputs": [
        {
          "internalType": "address",
          "name": "",
          "type": "address"
        }
      ],
      "stateMutability": "view",
      "type": "function"
    },
    {
      "inputs": [],
      "name": "renounceOwnership",
      "outputs": [],
      "stateMutability": "nonpayable",
      "type": "function"
    },
    {
      "inputs": [
        {
          "internalType": "uint256",
          "name": "_bitcoinFee",
          "type": "uint256"
        }
      ],
      "name": "setBitcoinFee",
      "outputs": [],
      "stateMutability": "nonpayable",
      "type": "function"
    },
    {
      "inputs": [
        {
          "internalType": "address",
          "name": "_lockers",
          "type": "address"
        }
      ],
      "name": "setLockers",
      "outputs": [],
      "stateMutability": "nonpayable",
      "type": "function"
    },
    {
      "inputs": [
        {
          "internalType": "uint256",
          "name": "_protocolPercentageFee",
          "type": "uint256"
        }
      ],
      "name": "setProtocolPercentageFee",
      "outputs": [],
      "stateMutability": "nonpayable",
      "type": "function"
    },
    {
      "inputs": [
        {
          "internalType": "address",
          "name": "_relay",
          "type": "address"
        }
      ],
      "name": "setRelay",
      "outputs": [],
      "stateMutability": "nonpayable",
      "type": "function"
    },
    {
      "inputs": [
        {
          "internalType": "uint256",
          "name": "_slasherPercentageReward",
          "type": "uint256"
        }
      ],
      "name": "setSlasherPercentageReward",
      "outputs": [],
      "stateMutability": "nonpayable",
      "type": "function"
    },
    {
      "inputs": [
        {
          "internalType": "address",
          "name": "_teleBTC",
          "type": "address"
        }
      ],
      "name": "setTeleBTC",
      "outputs": [],
      "stateMutability": "nonpayable",
      "type": "function"
    },
    {
      "inputs": [
        {
          "internalType": "uint256",
          "name": "_transferDeadline",
          "type": "uint256"
        }
      ],
      "name": "setTransferDeadline",
      "outputs": [],
      "stateMutability": "nonpayable",
      "type": "function"
    },
    {
      "inputs": [
        {
          "internalType": "address",
          "name": "_treasury",
          "type": "address"
        }
      ],
      "name": "setTreasury",
      "outputs": [],
      "stateMutability": "nonpayable",
      "type": "function"
    },
    {
      "inputs": [],
      "name": "slasherPercentageReward",
      "outputs": [
        {
          "internalType": "uint256",
          "name": "",
          "type": "uint256"
        }
      ],
      "stateMutability": "view",
      "type": "function"
    },
    {
      "inputs": [],
      "name": "teleBTC",
      "outputs": [
        {
          "internalType": "address",
          "name": "",
          "type": "address"
        }
      ],
      "stateMutability": "view",
      "type": "function"
    },
    {
      "inputs": [],
      "name": "transferDeadline",
      "outputs": [
        {
          "internalType": "uint256",
          "name": "",
          "type": "uint256"
        }
      ],
      "stateMutability": "view",
      "type": "function"
    },
    {
      "inputs": [
        {
          "internalType": "address",
          "name": "newOwner",
          "type": "address"
        }
      ],
      "name": "transferOwnership",
      "outputs": [],
      "stateMutability": "nonpayable",
      "type": "function"
    },
    {
      "inputs": [],
      "name": "treasury",
      "outputs": [
        {
          "internalType": "address",
          "name": "",
          "type": "address"
        }
      ],
      "stateMutability": "view",
      "type": "function"
    },
    {
      "stateMutability": "payable",
      "type": "receive"
    }
  ],
  "transactionHash": "0x74ea785e045c4380a89c94f00af24926b7c386b4ace77f85918ea3d3f08e9efd",
  "args": [
    "0x5519fA2b1A4069556BC11470cdEA61Ba4920f7e8",
    "0xc0aEC12Ed73144cB4697B0eA2341cEa5a345028c",
    "0x5364E3557572bd5D5903C0e9C21BE359F2Eac1dA",
    10,
    50,
    50,
    50
  ],
  "numDeployments": 1,
  "solcInputHash": "4f511ac1c119e8e9520a01cfa46dea87",
  "bytecode": "0x60806040523480156200001157600080fd5b506040516200572338038062005723833981016040819052620000349162000106565b6200003f3362000099565b60018055600280546001600160a01b03199081166001600160a01b03998a16179091556003805482169789169790971790965560058054909616949096169390931790935560065560079190915560085560095562000176565b600080546001600160a01b038381166001600160a01b0319831681178455604051919092169283917f8be0079c531659141344cd1fd0a4f28419497f9722a3daafe3b4186f6b6457e09190a35050565b80516001600160a01b03811681146200010157600080fd5b919050565b600080600080600080600060e0888a03121562000121578283fd5b6200012c88620000e9565b96506200013c60208901620000e9565b95506200014c60408901620000e9565b9450606088015193506080880151925060a0880151915060c0880151905092959891949750929550565b61559d80620001866000396000f3fe6080604052600436106101a05760003560e01c80638d3d78cd116100ec578063c780c03f1161008a578063ea73263711610064578063ea732637146104a4578063f0f44260146104b7578063f2fde38b146104d7578063f47e2240146104f7576101a7565b8063c780c03f14610451578063c805f68b14610464578063cdbe374114610484576101a7565b8063b14d3532116100c6578063b14d3532146103e5578063b59589d114610405578063b74d0d3514610425578063bed6a6021461043b576101a7565b80638d3d78cd1461037a5780638da5cb5b1461039a578063930a60e8146103b8576101a7565b80635c4f5f3e1161015957806373532b2a1161013357806373532b2a146102fa5780637ed557481461031a5780637f0f18171461033a5780637ffe9a921461035a576101a7565b80635c4f5f3e146102a557806361d027b3146102c5578063715018a6146102e5576101a7565b80631812adb6146101ac5780631876dec4146101d55780631e2361681461020d578063419cba7f1461024d57806343149dba146102635780634782bc3614610283576101a7565b366101a757005b600080fd5b3480156101b857600080fd5b506101c260075481565b6040519081526020015b60405180910390f35b3480156101e157600080fd5b506003546101f5906001600160a01b031681565b6040516001600160a01b0390911681526020016101cc565b34801561021957600080fd5b5061023d610228366004614b2f565b600c6020526000908152604090205460ff1681565b60405190151581526020016101cc565b34801561025957600080fd5b506101c260085481565b34801561026f57600080fd5b506101c261027e366004614e43565b61052b565b34801561028f57600080fd5b506102a361029e366004614b2f565b610a77565b005b3480156102b157600080fd5b506102a36102c0366004614b2f565b610b1d565b3480156102d157600080fd5b506005546101f5906001600160a01b031681565b3480156102f157600080fd5b506102a3610c2e565b34801561030657600080fd5b5061023d610315366004614c84565b610c64565b34801561032657600080fd5b506102a3610335366004614b2f565b6113c6565b34801561034657600080fd5b506102a3610355366004614aac565b61145a565b34801561036657600080fd5b5061023d610375366004614ae4565b6114ce565b34801561038657600080fd5b506004546101f5906001600160a01b031681565b3480156103a657600080fd5b506000546001600160a01b03166101f5565b3480156103c457600080fd5b506101c26103d3366004614aac565b600b6020526000908152604090205481565b3480156103f157600080fd5b506102a3610400366004614aac565b611526565b34801561041157600080fd5b506002546101f5906001600160a01b031681565b34801561043157600080fd5b506101c260095481565b34801561044757600080fd5b506101c260065481565b61023d61045f366004614ce9565b61159a565b34801561047057600080fd5b506102a361047f366004614aac565b611aff565b34801561049057600080fd5b506102a361049f366004614b2f565b611b73565b61023d6104b2366004614b5f565b611ba2565b3480156104c357600080fd5b506102a36104d2366004614aac565b611e49565b3480156104e357600080fd5b506102a36104f2366004614aac565b611ebd565b34801561050357600080fd5b50610517610512366004614ae4565b611f58565b6040516101cc98979695949392919061529b565b6000600260015414156105595760405162461bcd60e51b815260040161055090615264565b60405180910390fd5b600260015585806105ac5760405162461bcd60e51b815260206004820152601b60248201527f43434275726e526f757465723a2076616c7565206973207a65726f00000000006044820152606401610550565b6105b68686612055565b60035460405163aff2faa360e01b81526001600160a01b039091169063aff2faa3906105e89087908790600401615011565b60206040518083038186803b15801561060057600080fd5b505afa158015610614573d6000803e3d6000fd5b505050506040513d601f19601f820116820180604052508101906106389190614b0f565b6106545760405162461bcd60e51b81526004016105509061514d565b60035460405163626885b560e11b81526000916001600160a01b03169063c4d10b6a906106879088908890600401615011565b60206040518083038186803b15801561069f57600080fd5b505afa1580156106b3573d6000803e3d6000fd5b505050506040513d601f19601f820116820180604052508101906106d79190614ac8565b6004549091506001600160a01b03166323b872dd336040516001600160e01b031960e084901b1681526001600160a01b039091166004820152306024820152604481018b9052606401602060405180830381600087803b15801561073a57600080fd5b505af115801561074e573d6000803e3d6000fd5b505050506040513d601f19601f820116820180604052508101906107729190614b0f565b50600061077f89836120f2565b6004805460035460405163095ea7b360e01b81526001600160a01b039182169381019390935260248301849052929350919091169063095ea7b390604401602060405180830381600087803b1580156107d757600080fd5b505af11580156107eb573d6000803e3d6000fd5b505050506040513d601f19601f8201168201806040525081019061080f9190614b0f565b506003546040516338463cff60e01b81526001600160a01b03909116906338463cff9061084490899089908690600401615025565b602060405180830381600087803b15801561085e57600080fd5b505af1158015610872573d6000803e3d6000fd5b505050506040513d601f19601f820116820180604052508101906108969190614b47565b935061092b89858a8a600260009054906101000a90046001600160a01b03166001600160a01b0316632f796d906040518163ffffffff1660e01b815260040160206040518083038186803b1580156108ed57600080fd5b505afa158015610901573d6000803e3d6000fd5b505050506040513d601f19601f820116820180604052508101906109259190614b47565b876122ae565b6001600160a01b0382166000908152600a60205260409020805461095190600190615443565b8154811061096f57634e487b7160e01b600052603260045260246000fd5b906000526020600020906007020160040154826001600160a01b03166109923390565b6001600160a01b03167fe33c3da07e34f08c660e672e065c0fa53300573c646a21eadd6eef116a70e51e8b8b8e8a8d8d600a60008d6001600160a01b03166001600160a01b031681526020019081526020016000206001600a60008f6001600160a01b03166001600160a01b0316815260200190815260200160002080549050610a1c9190615443565b81548110610a3a57634e487b7160e01b600052603260045260246000fd5b906000526020600020906007020160060154604051610a5f979695949392919061505c565b60405180910390a45050600180555095945050505050565b6000546001600160a01b03163314610aa15760405162461bcd60e51b81526004016105509061522f565b8060641015610b185760405162461bcd60e51b815260206004820152603760248201527f43434275726e526f757465723a20736c61736865722070657263656e7461676560448201527f20726577617264206973206f7574206f662072616e67650000000000000000006064820152608401610550565b600855565b6000546001600160a01b03163314610b475760405162461bcd60e51b81526004016105509061522f565b60025460408051630a072bc560e41b815290516000926001600160a01b03169163a072bc50916004808301926020929190829003018186803b158015610b8c57600080fd5b505afa158015610ba0573d6000803e3d6000fd5b505050506040513d601f19601f82011682018060405250810190610bc49190614b47565b9050808211610c285760405162461bcd60e51b815260206004820152602a60248201527f43434275726e526f757465723a207472616e7366657220646561646c696e6520604482015269697320746f6f206c6f7760b01b6064820152608401610550565b50600655565b6000546001600160a01b03163314610c585760405162461bcd60e51b81526004016105509061522f565b610c626000612476565b565b600060026001541415610c895760405162461bcd60e51b815260040161055090615264565b600260015560035460405163aff2faa360e01b81526001600160a01b039091169063aff2faa390610cc09087908790600401615011565b60206040518083038186803b158015610cd857600080fd5b505afa158015610cec573d6000803e3d6000fd5b505050506040513d601f19601f82011682018060405250810190610d109190614b0f565b610d2c5760405162461bcd60e51b81526004016105509061514d565b60035460405163626885b560e11b81526000916001600160a01b03169063c4d10b6a90610d5f9088908890600401615011565b60206040518083038186803b158015610d7757600080fd5b505afa158015610d8b573d6000803e3d6000fd5b505050506040513d601f19601f82011682018060405250810190610daf9190614ac8565b90506000600260009054906101000a90046001600160a01b03166001600160a01b0316632f796d906040518163ffffffff1660e01b815260040160206040518083038186803b158015610e0157600080fd5b505afa158015610e15573d6000803e3d6000fd5b505050506040513d601f19601f82011682018060405250810190610e399190614b47565b905060005b84518110156113b6576001600160a01b0383166000908152600a602052604090208551869083908110610e8157634e487b7160e01b600052603260045260246000fd5b602002602001015181548110610ea757634e487b7160e01b600052603260045260246000fd5b600091825260209091206005600790920201015460ff1615610f1e5760405162461bcd60e51b815260206004820152602a60248201527f43434275726e526f757465723a207265717565737420686173206265656e2070604482015269616964206265666f726560b01b6064820152608401610550565b6001600160a01b0383166000908152600a602052604090208551839190879084908110610f5b57634e487b7160e01b600052603260045260246000fd5b602002602001015181548110610f8157634e487b7160e01b600052603260045260246000fd5b90600052602060002090600702016004015410610fb05760405162461bcd60e51b81526004016105509061519d565b6001600160a01b0383166000908152600a60205260409020855160019190879084908110610fee57634e487b7160e01b600052603260045260246000fd5b60200260200101518154811061101457634e487b7160e01b600052603260045260246000fd5b60009182526020808320600792909202909101600501805460ff1916931515939093179092556003546008546001600160a01b038781168452600a909452604090922088519390911692631697565b9287926064928b908890811061108957634e487b7160e01b600052603260045260246000fd5b6020026020010151815481106110af57634e487b7160e01b600052603260045260246000fd5b9060005260206000209060070201600001546110cb91906153fb565b6110d591906153db565b336001600160a01b0388166000908152600a602052604090208a518b908890811061111057634e487b7160e01b600052603260045260246000fd5b60200260200101518154811061113657634e487b7160e01b600052603260045260246000fd5b906000526020600020906007020160000154600a60008a6001600160a01b03166001600160a01b031681526020019081526020016000208b888151811061118d57634e487b7160e01b600052603260045260246000fd5b6020026020010151815481106111b357634e487b7160e01b600052603260045260246000fd5b600091825260209091206007909102016002015460405160e087901b6001600160e01b03191681526001600160a01b03958616600482015260248101949094529184166044840152606483015291909116608482015260a401602060405180830381600087803b15801561122657600080fd5b505af115801561123a573d6000803e3d6000fd5b505050506040513d601f19601f8201168201806040525081019061125e9190614b0f565b506001600160a01b0383166000818152600a60205260409020865187908490811061129957634e487b7160e01b600052603260045260246000fd5b6020026020010151815481106112bf57634e487b7160e01b600052603260045260246000fd5b906000526020600020906007020160020160009054906101000a90046001600160a01b03166001600160a01b03167f58c23b4ae0617be275628875bcfd65759a441263099a256eeb27899fb5dd846d8989600a6000896001600160a01b03166001600160a01b031681526020019081526020016000208a878151811061135557634e487b7160e01b600052603260045260246000fd5b60200260200101518154811061137b57634e487b7160e01b600052603260045260246000fd5b90600052602060002090600702016006015460405161139c93929190615025565b60405180910390a3806113ae816154e2565b915050610e3e565b5050600180805595945050505050565b6000546001600160a01b031633146113f05760405162461bcd60e51b81526004016105509061522f565b8061271010156114555760405162461bcd60e51b815260206004820152602a60248201527f43434275726e526f757465723a2070726f746f636f6c20666565206973206f7560448201526974206f662072616e676560b01b6064820152608401610550565b600755565b806001600160a01b0381166114815760405162461bcd60e51b815260040161055090615116565b6000546001600160a01b031633146114ab5760405162461bcd60e51b81526004016105509061522f565b50600480546001600160a01b0319166001600160a01b0392909216919091179055565b6001600160a01b0382166000908152600a6020526040812080548390811061150657634e487b7160e01b600052603260045260246000fd5b600091825260209091206005600790920201015460ff1690505b92915050565b806001600160a01b03811661154d5760405162461bcd60e51b815260040161055090615116565b6000546001600160a01b031633146115775760405162461bcd60e51b81526004016105509061522f565b50600380546001600160a01b0319166001600160a01b0392909216919091179055565b6000600260015414156115bf5760405162461bcd60e51b815260040161055090615264565b6002600181905589511480156115d6575083516002145b80156115e3575081516003145b61162f5760405162461bcd60e51b815260206004820152601a60248201527f43434275726e526f757465723a2077726f6e6720696e707574730000000000006044820152606401610550565b60035460405163aff2faa360e01b81526001600160a01b039091169063aff2faa39061165f908d90600401615049565b60206040518083038186803b15801561167757600080fd5b505afa15801561168b573d6000803e3d6000fd5b505050506040513d601f19601f820116820180604052508101906116af9190614b0f565b6116cb5760405162461bcd60e51b81526004016105509061514d565b60006117298a6000815181106116f157634e487b7160e01b600052603260045260246000fd5b60200260200101518a8a8860008151811061171c57634e487b7160e01b600052603260045260246000fd5b60200260200101516124c6565b9050611787818460028151811061175057634e487b7160e01b600052603260045260246000fd5b6020026020010151868660018151811061177a57634e487b7160e01b600052603260045260246000fd5b60200260200101516125c7565b6117ec5760405162461bcd60e51b815260206004820152603060248201527f43434275726e526f757465723a20696e707574207472616e73616374696f6e2060448201526f1a5cc81b9bdd08199a5b985b1a5e995960821b6064820152608401610550565b6000818152600c602052604090205460ff16156118695760405162461bcd60e51b815260206004820152603560248201527f43434275726e526f757465723a207472616e73616374696f6e2068617320626560448201527432b7103ab9b2b21030b990313ab93710383937b7b360591b6064820152608401610550565b60008061189e8b8660008151811061189157634e487b7160e01b600052603260045260246000fd5b6020026020010151612739565b915091506118f18c6001815181106118c657634e487b7160e01b600052603260045260246000fd5b60200260200101518a8a8a60018151811061171c57634e487b7160e01b600052603260045260246000fd5b821461195e5760405162461bcd60e51b815260206004820152603660248201527f43434275726e526f757465723a206f7574706f696e7420747820646f65736e276044820152750e840dac2e8c6d040eed2e8d040deeae8e0eae840e8f60531b6064820152608401610550565b8c5160208e012061196f89836127e8565b80519060200120146119dc5760405162461bcd60e51b815260206004820152603060248201527f43434275726e526f757465723a206f757470757420747820646f65736e27742060448201526f3132b637b733903a37903637b1b5b2b960811b6064820152608401610550565b846002815181106119fd57634e487b7160e01b600052603260045260246000fd5b6020026020010151600654611a129190615351565b600260009054906101000a90046001600160a01b03166001600160a01b0316632f796d906040518163ffffffff1660e01b815260040160206040518083038186803b158015611a6057600080fd5b505afa158015611a74573d6000803e3d6000fd5b505050506040513d601f19601f82011682018060405250810190611a989190614b47565b11611ab55760405162461bcd60e51b81526004016105509061519d565b611ae98a8e8588600281518110611adc57634e487b7160e01b600052603260045260246000fd5b602002602001015161285a565b505060018080559b9a5050505050505050505050565b806001600160a01b038116611b265760405162461bcd60e51b815260040161055090615116565b6000546001600160a01b03163314611b505760405162461bcd60e51b81526004016105509061522f565b50600280546001600160a01b0319166001600160a01b0392909216919091179055565b6000546001600160a01b03163314611b9d5760405162461bcd60e51b81526004016105509061522f565b600955565b600060026001541415611bc75760405162461bcd60e51b815260040161055090615264565b60026001556001600160e01b0319881615611c245760405162461bcd60e51b815260206004820181905260248201527f43434275726e526f757465723a206e6f6e2d7a65726f206c6f636b2074696d656044820152606401610550565b60035460405163aff2faa360e01b81526001600160a01b039091169063aff2faa390611c54908790600401615049565b60206040518083038186803b158015611c6c57600080fd5b505afa158015611c80573d6000803e3d6000fd5b505050506040513d601f19601f82011682018060405250810190611ca49190614b0f565b611cc05760405162461bcd60e51b81526004016105509061514d565b60035460405163626885b560e11b81526000916001600160a01b03169063c4d10b6a90611cf1908890600401615049565b60206040518083038186803b158015611d0957600080fd5b505afa158015611d1d573d6000803e3d6000fd5b505050506040513d601f19601f82011682018060405250810190611d419190614ac8565b90508251845114611d945760405162461bcd60e51b815260206004820152601b60248201527f43434275726e526f757465723a2077726f6e6720696e646578657300000000006044820152606401610550565b6000611da28d8d8d8d6124c6565b9050611db0818a8a8a6125c7565b611e145760405162461bcd60e51b815260206004820152602f60248201527f43434275726e526f757465723a207472616e73616374696f6e20686173206e6f60448201526e1d08199a5b985b1a5e9959081e595d608a1b6064820152608401610550565b6000611e24828b858f8a8a612a2c565b9050611e32818d8985612e78565b505060018080559c9b505050505050505050505050565b806001600160a01b038116611e705760405162461bcd60e51b815260040161055090615116565b6000546001600160a01b03163314611e9a5760405162461bcd60e51b81526004016105509061522f565b50600580546001600160a01b0319166001600160a01b0392909216919091179055565b6000546001600160a01b03163314611ee75760405162461bcd60e51b81526004016105509061522f565b6001600160a01b038116611f4c5760405162461bcd60e51b815260206004820152602660248201527f4f776e61626c653a206e6577206f776e657220697320746865207a65726f206160448201526564647265737360d01b6064820152608401610550565b611f5581612476565b50565b600a6020528160005260406000208181548110611f7457600080fd5b600091825260209091206007909102018054600182015460028301546003840180549396509194506001600160a01b03169291611fb0906154ad565b80601f0160208091040260200160405190810160405280929190818152602001828054611fdc906154ad565b80156120295780601f10611ffe57610100808354040283529160200191612029565b820191906000526020600020905b81548152906001019060200180831161200c57829003601f168201915b505050600484015460058501546006909501549394909360ff8083169450610100909204909116915088565b600081600481111561207757634e487b7160e01b600052602160045260246000fd5b14806120a2575060048160048111156120a057634e487b7160e01b600052602160045260246000fd5b145b156120cd5781516020146120c85760405162461bcd60e51b8152600401610550906151ee565b6120ee565b81516014146120ee5760405162461bcd60e51b8152600401610550906151ee565b5050565b6000806127106007548561210691906153fb565b61211091906153db565b9050600954816121209190615351565b841161216e5760405162461bcd60e51b815260206004820152601f60248201527f43434275726e526f757465723a20616d6f756e7420697320746f6f206c6f77006044820152606401610550565b60095460009061217e8387615443565b6121889190615443565b6004805460055460405163a9059cbb60e01b81526001600160a01b039182169381019390935260248301869052929350919091169063a9059cbb90604401602060405180830381600087803b1580156121e057600080fd5b505af11580156121f4573d6000803e3d6000fd5b505050506040513d601f19601f820116820180604052508101906122189190614b0f565b506004805460095460405163a9059cbb60e01b81526001600160a01b0388811694820194909452602481019190915291169063a9059cbb90604401602060405180830381600087803b15801561226d57600080fd5b505af1158015612281573d6000803e3d6000fd5b505050506040513d601f19601f820116820180604052508101906122a59190614b0f565b50949350505050565b604080516101008101825260006080820181905260a0820181905260c0820181815260e0830191909152888252602082018890523392820192909252606081018690529084600481111561231257634e487b7160e01b600052602160045260246000fd5b9081600481111561233357634e487b7160e01b600052602160045260246000fd5b9052506006546123439084615351565b6080820152600060a082018190526001600160a01b038316808252600b6020818152604084205460e0860181905292909352909152612383906001615351565b6001600160a01b038381166000908152600b6020908152604080832094909455600a81528382208054600180820183559184529282902086516007909402019283558582015190830155928401516002820180546001600160a01b031916919093161790915560608301518051849361240392600385019291019061487e565b50608082015160048281019190915560a083015160058301805460ff19169115159190911780825560c08501519261ff00199091169061010090849081111561245c57634e487b7160e01b600052602160045260246000fd5b021790555060e08201518160060155505050505050505050565b600080546001600160a01b038381166001600160a01b0319831681178455604051919092169283917f8be0079c531659141344cd1fd0a4f28419497f9722a3daafe3b4186f6b6457e09190a35050565b6000806002868686866040516020016124e29493929190614f43565b60408051601f19818403018152908290526124fc91614f96565b602060405180830381855afa158015612519573d6000803e3d6000fd5b5050506040513d601f19601f8201168201806040525081019061253c9190614b47565b9050600060028260405160200161255591815260200190565b60408051601f198184030181529082905261256f91614f96565b602060405180830381855afa15801561258c573d6000803e3d6000fd5b5050506040513d601f19601f820116820180604052508101906125af9190614b47565b90506125ba81612f01565b925050505b949350505050565b60025460405163d0a8973960e01b8152600481018590526000602482018190529182916001600160a01b039091169063d0a897399060440160206040518083038186803b15801561261757600080fd5b505afa15801561262b573d6000803e3d6000fd5b505050506040513d601f19601f8201168201806040525081019061264f9190614b47565b9050803410156126b35760405162461bcd60e51b815260206004820152602960248201527f43434275726e526f757465723a2072656c617920666565206973206e6f7420736044820152681d59999a58da595b9d60ba1b6064820152608401610550565b600254604051600091612710916001600160a01b03909116906126e0908a908a908a908a90602401614fe1565b60408051601f198184030181529190526020810180516001600160e01b0316634354da2560e01b17905284612f83565b9050612725336127208434615443565b612fb3565b808060200190518101906125ba9190614b0f565b6000808061274f61274a86836130d1565b6130f5565b905062ffffff1980821614156127a75760405162461bcd60e51b815260206004820152601a60248201527f426974636f696e48656c7065723a2076696e206973206e756c6c0000000000006044820152606401610550565b60006127b3828661322b565b905060006127c082613349565b90506127cb8161336d565b94506127d68161338f565b63ffffffff1693505050509250929050565b606060006127fe6127f985836130d1565b6133b1565b905062ffffff1980821614156128265760405162461bcd60e51b8152600401610550906150df565b600061283282856134a2565b9050600061283f8261359c565b905061285062ffffff1982166135ed565b9695505050505050565b60006128658561363d565b60035460405163626885b560e11b81526001600160401b039290921692506000916001600160a01b039091169063c4d10b6a906128a6908890600401615049565b60206040518083038186803b1580156128be57600080fd5b505afa1580156128d2573d6000803e3d6000fd5b505050506040513d601f19601f820116820180604052508101906128f69190614ac8565b6003546008549192506001600160a01b0316906333c99e1d90839060649061291e90876153fb565b61292891906153db565b3360405160e085901b6001600160e01b03191681526001600160a01b0393841660048201526024810192909252909116604482015260648101859052608401602060405180830381600087803b15801561298157600080fd5b505af1158015612995573d6000803e3d6000fd5b505050506040513d601f19601f820116820180604052508101906129b99190614b0f565b50806001600160a01b03167f7ff138134e34ccab071315c38e38eec079f54726b890304ab46e2c5ab6f722bb8685876064600854886129f891906153fb565b612a0291906153db565b612a0c9088615351565b604051612a1c94939291906150b0565b60405180910390a2505050505050565b600080805b8451811015612e6c576000858281518110612a5c57634e487b7160e01b600052603260045260246000fd5b60200260200101519050600a6000896001600160a01b03166001600160a01b031681526020019081526020016000208181548110612aaa57634e487b7160e01b600052603260045260246000fd5b600091825260209091206005600790920201015460ff16158015612b1957506001600160a01b0388166000908152600a6020526040902080548a919083908110612b0457634e487b7160e01b600052603260045260246000fd5b90600052602060002090600702016004015410155b15612e5957612cc487868481518110612b4257634e487b7160e01b600052603260045260246000fd5b6020026020010151600a60008c6001600160a01b03166001600160a01b031681526020019081526020016000208481548110612b8e57634e487b7160e01b600052603260045260246000fd5b90600052602060002090600702016003018054612baa906154ad565b80601f0160208091040260200160405190810160405280929190818152602001828054612bd6906154ad565b8015612c235780601f10612bf857610100808354040283529160200191612c23565b820191906000526020600020905b815481529060010190602001808311612c0657829003601f168201915b5050506001600160a01b038e166000908152600a6020526040902080549092508791508110612c6257634e487b7160e01b600052603260045260246000fd5b906000526020600020906007020160050160019054906101000a900460ff166004811115612ca057634e487b7160e01b600052602160045260246000fd5b6004811115612cbf57634e487b7160e01b600052602160045260246000fd5b6136d5565b6001600160401b0316925082600a60008a6001600160a01b03166001600160a01b031681526020019081526020016000208281548110612d1457634e487b7160e01b600052603260045260246000fd5b9060005260206000209060070201600101541415612e59576001600160a01b0388166000908152600a6020526040902080546001919083908110612d6857634e487b7160e01b600052603260045260246000fd5b60009182526020909120600790910201600501805460ff1916911515919091179055612d95846001615351565b6001600160a01b0389166000818152600a60205260409020805492965090917f1b46655c2f394f2191cb246d5982dbe00ad671f0b590e75e97c90ee97f1f782a919084908110612df557634e487b7160e01b600052603260045260246000fd5b9060005260206000209060070201600601548c888681518110612e2857634e487b7160e01b600052603260045260246000fd5b6020026020010151604051612e50939291909283526020830191909152604082015260600190565b60405180910390a25b5080612e64816154e2565b915050612a31565b50509695505050505050565b6000612e848484613910565b6001600160401b031690506000612e9a85613a14565b90508115801590612eb4575080612eb2876001615351565b145b15612ed7576000838152600c60205260409020805460ff19166001179055612ef9565b80861415612ef9576000838152600c60205260409020805460ff191660011790555b505050505050565b6000606081805b6020811015612f75578285612f1e83601f615443565b60208110612f3c57634e487b7160e01b600052603260045260246000fd5b1a60f81b604051602001612f51929190614fb2565b60405160208183030381529060405292508080612f6d906154e2565b915050612f08565b50506020015190505b919050565b6060612fa984848460405180606001604052806029815260200161553f60299139613a41565b90505b9392505050565b804710156130035760405162461bcd60e51b815260206004820152601d60248201527f416464726573733a20696e73756666696369656e742062616c616e63650000006044820152606401610550565b6000826001600160a01b03168260405160006040518083038185875af1925050503d8060008114613050576040519150601f19603f3d011682016040523d82523d6000602084013e613055565b606091505b50509050806130cc5760405162461bcd60e51b815260206004820152603a60248201527f416464726573733a20756e61626c6520746f2073656e642076616c75652c207260448201527f6563697069656e74206d617920686176652072657665727465640000000000006064820152608401610550565b505050565b8151600090602084016130ec64ffffffffff85168284613b5e565b95945050505050565b6000818161310b815b62ffffff19841690613ba2565b50601884901c6001600160601b031661312b5762ffffff195b9250613224565b6000613138856000613c7c565b9050601885901c6001600160601b03166001600160401b0382166131655762ffffff195b94505050613224565b600061317083613dab565b60ff16905060005b836001600160401b03168110156131ec578282106131a15762ffffff195b965050505050613224565b60006131c16131b08486615443565b60055b62ffffff198c169190613e04565b90506131cc81613e38565b6131d69084615351565b92505080806131e4906154e2565b915050613178565b508181146132045762ffffff195b9550505050613224565b61321e60065b60d81b6301000000600160d81b0389161790565b95505050505b5050919050565b6000826006613239816130fe565b506000613247866000613c7c565b6001600160401b03169050601886901c6001600160601b03168186106132a25760405162461bcd60e51b815260206004820152601060248201526f2b34b7103932b0b21037bb32b9393ab760811b6044820152606401610550565b60006132ad83613dab565b60ff1690506000805b88811015613305576132dc6132cb8486615443565b60055b62ffffff198d169190613e04565b91506132e782613e38565b6132f19084615351565b92506132fe600182615351565b90506132b6565b506133136131b08385615443565b9050600061332082613e38565b9050613339838260045b62ffffff198e16929190613e8c565b975050505050505b505092915050565b6000816004613357816130fe565b506125bf62ffffff198516600060246003613e8c565b600081600361337b816130fe565b506125bf62ffffff19851660006020613efc565b600081600361339d816130fe565b506125bf62ffffff19851660206004614055565b600081816133be816130fe565b50601884901c6001600160601b03166133db5762ffffff19613124565b60006133e8856000613c7c565b9050601885901c6001600160601b03166001600160401b0382166134105762ffffff1961315c565b600061341b83613dab565b60ff16905060005b836001600160401b0316811015613486578282106134455762ffffff19613196565b600061345b6134548486615443565b600e6131b3565b90506134668161419f565b6134709084615351565b925050808061347e906154e2565b915050613423565b508181146134985762ffffff196131fa565b61321e600f61320a565b600082600f6134b0816130fe565b5060006134be866000613c7c565b6001600160401b03169050601886901c6001600160601b031681861061351a5760405162461bcd60e51b81526020600482015260116024820152702b37baba103932b0b21037bb32b9393ab760791b6044820152606401610550565b600061352583613dab565b60ff1690506000805b888110156135735761354a6135438486615443565b600e6132ce565b91506135558261419f565b61355f9084615351565b925061356c600182615351565b905061352e565b506135816134548385615443565b9050600061358e8261419f565b90506133398382600d61332a565b600081600d6135aa816130fe565b5060006135b8856008613c7c565b90506130ec6135c682613dab565b6135d1906008615394565b62ffffff1987169060ff166001600160401b0384166007613e8c565b60606000806136058460181c6001600160601b031690565b60405193508392506001600160601b0316905061362c84613627846020615351565b6141e8565b508181016020016040529052919050565b60008061364d6127f984836130d1565b905062ffffff1980821614156136755760405162461bcd60e51b8152600401610550906150df565b600080613683836000613c7c565b6001600160401b0316905060005b818110156136cc576136a384826134a2565b92506136ae83614340565b6136b89086615369565b9450806136c4816154e2565b915050613691565b50505050919050565b6000806136e56127f987836130d1565b905062ffffff19808216141561370d5760405162461bcd60e51b8152600401610550906150df565b600061371982876134a2565b905060006137268261359c565b9050600085600481111561374a57634e487b7160e01b600052602160045260246000fd5b14156137af5761376362ffffff19821660016020613efc565b60405160200161377591815260200190565b6040516020818303038152906040528051906020012086805190602001201461379f5760006137a8565b6137a882614340565b9350613905565b60018560048111156137d157634e487b7160e01b600052602160045260246000fd5b1415613810576137e862ffffff1982166003614362565b604051602001613775919060609190911b6bffffffffffffffffffffffff1916815260140190565b600285600481111561383257634e487b7160e01b600052602160045260246000fd5b1415613849576137e862ffffff1982166002614362565b600385600481111561386b57634e487b7160e01b600052602160045260246000fd5b1415613882576137e862ffffff1982166002614362565b60048560048111156138a457634e487b7160e01b600052602160045260246000fd5b1415613905576138bd62ffffff19821660026020613efc565b6040516020016138cf91815260200190565b604051602081830303815290604052805190602001208680519060200120146138f9576000613902565b61390282614340565b93505b505050949350505050565b6000806139206127f985836130d1565b905062ffffff1980821614156139485760405162461bcd60e51b8152600401610550906150df565b6000806000613958846000613c7c565b6001600160401b0316905060005b81811015613a095761397885826134a2565b93506139838461359c565b9250866040516020016139969190614f96565b604051602081830303815290604052805190602001206139bb8462ffffff19166135ed565b6040516020016139cb9190614f96565b6040516020818303038152906040528051906020012014156139f7576139f084614340565b9550613a09565b80613a01816154e2565b915050613966565b505050505092915050565b600080613a246127f984836130d1565b9050613a31816000613c7c565b6001600160401b03169392505050565b606082471015613aa25760405162461bcd60e51b815260206004820152602660248201527f416464726573733a20696e73756666696369656e742062616c616e636520666f6044820152651c8818d85b1b60d21b6064820152608401610550565b843b613af05760405162461bcd60e51b815260206004820152601d60248201527f416464726573733a2063616c6c20746f206e6f6e2d636f6e74726163740000006044820152606401610550565b600080866001600160a01b03168587604051613b0c9190614f96565b60006040518083038185875af1925050503d8060008114613b49576040519150601f19603f3d011682016040523d82523d6000602084013e613b4e565b606091505b50915091506125ba828286614370565b600080613b6b8385615351565b9050604051811115613b7b575060005b80613b8d5762ffffff19915050612fac565b5050606092831b9190911790911b1760181b90565b6000613bae83836143a9565b613c75576000613bcd613bc18560d81c90565b64ffffffffff166143cc565b9150506000613be28464ffffffffff166143cc565b6040517f5479706520617373657274696f6e206661696c65642e20476f7420307800000060208201526001600160b01b031960b086811b8216603d8401526c05c408af0e0cac6e8cac84060f609b1b604784015283901b16605482015290925060009150605e015b60405160208183030381529060405290508060405162461bcd60e51b81526004016105509190615049565b5090919050565b600080613c9162ffffff19851684600161448c565b905060fc8111613ca2579050611520565b8060fd1415613d0057613cc8613cb9846001615351565b62ffffff198616906002614055565b9150613cd382613dab565b60ff16600314613cfb57613cf9613cf462ffffff1986168560036000613e8c565b6144bc565b505b613da4565b8060fe1415613d5257613d26613d17846001615351565b62ffffff198616906004614055565b9150613d3182613dab565b60ff16600514613cfb57613cf9613cf462ffffff1986168560056000613e8c565b8060ff1415613da457613d78613d69846001615351565b62ffffff198616906008614055565b9150613d8382613dab565b60ff16600914613da457613341613cf462ffffff1986168560096000613e8c565b5092915050565b600060fc826001600160401b031611613dc657506001612f7e565b61ffff826001600160401b031611613de057506003612f7e565b63ffffffff826001600160401b031611613dfc57506005612f7e565b506009612f7e565b6000612fa98484613e1e8760181c6001600160601b031690565b6001600160601b0316613e319190615443565b8585613e8c565b6000816005613e46816130fe565b506000613e54856024613c7c565b9050806001600160401b0316613e6982613dab565b60ff16613e769190615351565b613e81906024615351565b6130ec906004615351565b600080613ea28660781c6001600160601b031690565b6001600160601b03169050613eb686614539565b84613ec18784615351565b613ecb9190615351565b1115613ede5762ffffff199150506125bf565b613ee88582615351565b90506128508364ffffffffff168286613b5e565b600060ff8216613f0e57506000612fac565b613f218460181c6001600160601b031690565b6001600160601b0316613f3760ff841685615351565b1115613f9b57613f82613f538560781c6001600160601b031690565b6001600160601b0316613f6f8660181c6001600160601b031690565b6001600160601b0316858560ff1661457a565b60405162461bcd60e51b81526004016105509190615049565b60208260ff1611156140155760405162461bcd60e51b815260206004820152603a60248201527f54797065644d656d566965772f696e646578202d20417474656d70746564207460448201527f6f20696e646578206d6f7265207468616e2033322062797465730000000000006064820152608401610550565b60088202600061402e8660781c6001600160601b031690565b6001600160601b031690506000600160ff1b60001984011d91909501511695945050505050565b6000612fa9614065858585613efc565b600881811c7eff00ff00ff00ff00ff00ff00ff00ff00ff00ff00ff00ff00ff00ff00ff00ff167fff00ff00ff00ff00ff00ff00ff00ff00ff00ff00ff00ff00ff00ff00ff00ff009290911b9190911617601081811c7dffff0000ffff0000ffff0000ffff0000ffff0000ffff0000ffff0000ffff167fffff0000ffff0000ffff0000ffff0000ffff0000ffff0000ffff0000ffff00009290911b9190911617602081811c7bffffffff00000000ffffffff00000000ffffffff00000000ffffffff167fffffffff00000000ffffffff00000000ffffffff00000000ffffffff000000009290911b9190911617604081811c77ffffffffffffffff0000000000000000ffffffffffffffff1677ffffffffffffffff0000000000000000ffffffffffffffff199290911b9190911617608081811c91901b1790565b600081600e6141ad816130fe565b5060006141bb856008613c7c565b9050806001600160401b03166141d082613dab565b60ff166141dd9190615351565b6130ec906008615351565b600062ffffff1980841614156142515760405162461bcd60e51b815260206004820152602860248201527f54797065644d656d566965772f636f7079546f202d204e756c6c20706f696e7460448201526732b9103232b932b360c11b6064820152608401610550565b61425a836146a4565b6142ba5760405162461bcd60e51b815260206004820152602b60248201527f54797065644d656d566965772f636f7079546f202d20496e76616c696420706f60448201526a34b73a32b9103232b932b360a91b6064820152608401610550565b60006142cf8460181c6001600160601b031690565b6001600160601b0316905060006142ef8560781c6001600160601b031690565b6001600160601b03169050600060405190508481111561430f5760206060fd5b8285848460045afa506128506143258760d81c90565b64ffffffffff60601b606091821b168717901b841760181b90565b600081600d61434e816130fe565b506125bf62ffffff19851660006008614055565b6000612fac8383601461448c565b6060831561437f575081612fac565b82511561438f5782518084602001fd5b8160405162461bcd60e51b81526004016105509190615049565b60008164ffffffffff166143bd8460d81c90565b64ffffffffff16149392505050565b600080601f5b600f8160ff16111561442a5760006143eb82600861541a565b60ff1685901c90506143fc816146e2565b61ffff16841793508160ff1660101461441757601084901b93505b5061442360018261545a565b90506143d2565b50600f5b60ff8160ff16101561448657600061444782600861541a565b60ff1685901c9050614458816146e2565b61ffff16831792508160ff1660001461447357601083901b92505b5061447f60018261545a565b905061442e565b50915091565b600061449982602061545a565b6144a490600861541a565b60ff166144b2858585613efc565b901c949350505050565b606060006144e66144e162ffffff19851683601887901c6001600160601b031661448c565b6143cc565b6040517f4e6f6e2d6d696e696d616c2076617220696e742e20476f74203078000000000060208201526dffffffffffffffffffffffffffff19607083901b16603b82015290925060009150604d01613c4a565b600061454e8260181c6001600160601b031690565b6145618360781c6001600160601b031690565b61456b91906153b9565b6001600160601b031692915050565b60606000614587866143cc565b9150506000614595866143cc565b91505060006145a3866143cc565b91505060006145b1866143cc565b604080517f54797065644d656d566965772f696e646578202d204f76657272616e20746865602082015274040ecd2caee5c40a6d8d2c6ca40d2e640c2e84060f605b1b818301526001600160d01b031960d098891b811660558301526e040eed2e8d040d8cadccee8d04060f608b1b605b830181905297891b8116606a8301527f2e20417474656d7074656420746f20696e646578206174206f666673657420306070830152600f60fb1b609083015295881b861660918201526097810196909652951b90921660a68401525050601760f91b60ac8201528151808203608d01815260ad90910190915295945050505050565b60006146b08260d81c90565b64ffffffffff1664ffffffffff14156146cb57506000612f7e565b60006146d683614539565b60405110199392505050565b60006146f460048360ff16901c614712565b60ff161760081b62ffff001661470982614712565b60ff1617919050565b600060f08083179060ff8216141561472e576030915050612f7e565b8060ff1660f11415614744576031915050612f7e565b8060ff1660f2141561475a576032915050612f7e565b8060ff1660f31415614770576033915050612f7e565b8060ff1660f41415614786576034915050612f7e565b8060ff1660f5141561479c576035915050612f7e565b8060ff1660f614156147b2576036915050612f7e565b8060ff1660f714156147c8576037915050612f7e565b8060ff1660f814156147de576038915050612f7e565b8060ff1660f914156147f4576039915050612f7e565b8060ff1660fa141561480a576061915050612f7e565b8060ff1660fb1415614820576062915050612f7e565b8060ff1660fc1415614836576063915050612f7e565b8060ff1660fd141561484c576064915050612f7e565b8060ff1660fe1415614862576065915050612f7e565b8060ff1660ff1415614878576066915050612f7e565b50919050565b82805461488a906154ad565b90600052602060002090601f0160209004810192826148ac57600085556148f2565b82601f106148c557805160ff19168380011785556148f2565b828001600101855582156148f2579182015b828111156148f25782518255916020019190600101906148d7565b506148fe929150614902565b5090565b5b808211156148fe5760008155600101614903565b600082601f830112614927578081fd5b8135602061493c6149378361532e565b6152fe565b8281528181019085830183850287018401881015614958578586fd5b855b8581101561497d5761496b826149e4565b8452928401929084019060010161495a565b5090979650505050505050565b600082601f83011261499a578081fd5b813560206149aa6149378361532e565b82815281810190858301838502870184018810156149c6578586fd5b855b8581101561497d578135845292840192908401906001016149c8565b80356001600160e01b031981168114612f7e57600080fd5b60008083601f840112614a0d578182fd5b5081356001600160401b03811115614a23578182fd5b602083019150836020828501011115614a3b57600080fd5b9250929050565b600082601f830112614a52578081fd5b81356001600160401b03811115614a6b57614a6b615513565b614a7e601f8201601f19166020016152fe565b818152846020838601011115614a92578283fd5b816020850160208301379081016020019190915292915050565b600060208284031215614abd578081fd5b8135612fac81615529565b600060208284031215614ad9578081fd5b8151612fac81615529565b60008060408385031215614af6578081fd5b8235614b0181615529565b946020939093013593505050565b600060208284031215614b20578081fd5b81518015158114612fac578182fd5b600060208284031215614b40578081fd5b5035919050565b600060208284031215614b58578081fd5b5051919050565b6000806000806000806000806000806101408b8d031215614b7e578586fd5b614b878b6149e4565b995060208b01356001600160401b0380821115614ba2578788fd5b614bae8e838f01614a42565b9a5060408d0135915080821115614bc3578788fd5b614bcf8e838f01614a42565b9950614bdd60608e016149e4565b985060808d0135975060a08d0135915080821115614bf9578687fd5b614c058e838f01614a42565b965060c08d0135955060e08d0135915080821115614c21578485fd5b614c2d8e838f01614a42565b94506101008d0135915080821115614c43578384fd5b614c4f8e838f0161498a565b93506101208d0135915080821115614c65578283fd5b50614c728d828e0161498a565b9150509295989b9194979a5092959850565b600080600060408486031215614c98578283fd5b83356001600160401b0380821115614cae578485fd5b614cba878388016149fc565b90955093506020860135915080821115614cd2578283fd5b50614cdf8682870161498a565b9150509250925092565b60008060008060008060008060006101208a8c031215614d07578283fd5b89356001600160401b0380821115614d1d578485fd5b614d298d838e01614a42565b9a5060208c0135915080821115614d3e578485fd5b614d4a8d838e01614917565b995060408c0135915080821115614d5f578485fd5b614d6b8d838e01614a42565b985060608c0135915080821115614d80578485fd5b614d8c8d838e01614a42565b975060808c0135915080821115614da1578485fd5b614dad8d838e01614a42565b965060a08c0135915080821115614dc2578485fd5b614dce8d838e01614a42565b955060c08c0135915080821115614de3578485fd5b614def8d838e01614917565b945060e08c0135915080821115614e04578384fd5b614e108d838e01614a42565b93506101008c0135915080821115614e26578283fd5b50614e338c828d0161498a565b9150509295985092959850929598565b600080600080600060808688031215614e5a578283fd5b8535945060208601356001600160401b0380821115614e77578485fd5b614e8389838a01614a42565b95506040880135915060058210614e98578485fd5b90935060608701359080821115614ead578283fd5b50614eba888289016149fc565b969995985093965092949392505050565b60008284528282602086013780602084860101526020601f19601f85011685010190509392505050565b60008151808452614f0d81602086016020860161547d565b601f01601f19169290920160200192915050565b60058110614f3f57634e487b7160e01b600052602160045260246000fd5b9052565b600063ffffffff60e01b80871683528551614f65816004860160208a0161547d565b855190840190614f7c816004840160208a0161547d565b919094169301600481019390935250506008019392505050565b60008251614fa881846020870161547d565b9190910192915050565b60008351614fc481846020880161547d565b6001600160f81b0319939093169190920190815260010192915050565b6000858252846020830152608060408301526150006080830185614ef5565b905082606083015295945050505050565b600060208252612fa9602083018486614ecb565b600060408252615039604083018587614ecb565b9050826020830152949350505050565b600060208252612fac6020830184614ef5565b600060c0825261506f60c083018a614ef5565b61507c602084018a614f21565b876040840152866060840152828103608084015261509b818688614ecb565b9150508260a083015298975050505050505050565b6000608082526150c36080830187614ef5565b6020830195909552506040810192909252606090910152919050565b6020808252601b908201527f426974636f696e48656c7065723a20766f7574206973206e756c6c0000000000604082015260600190565b6020808252601d908201527f43434275726e526f757465723a2061646472657373206973207a65726f000000604082015260600190565b60208082526030908201527f43434275726e526f757465723a20676976656e206c6f636b696e67207363726960408201526f383a1034b9903737ba103637b1b5b2b960811b606082015260800190565b60208082526031908201527f43434275726e526f757465723a207061796261636b20646561646c696e652068604082015270185cc81b9bdd081c185cdcd959081e595d607a1b606082015260800190565b60208082526021908201527f43434275726e526f757465723a20696e76616c696420757365722073637269706040820152601d60fa1b606082015260800190565b6020808252818101527f4f776e61626c653a2063616c6c6572206973206e6f7420746865206f776e6572604082015260600190565b6020808252601f908201527f5265656e7472616e637947756172643a207265656e7472616e742063616c6c00604082015260600190565b888152602081018890526001600160a01b0387166040820152610100606082018190526000906152cd83820189614ef5565b91505085608083015284151560a08301526152eb60c0830185614f21565b8260e08301529998505050505050505050565b604051601f8201601f191681016001600160401b038111828210171561532657615326615513565b604052919050565b60006001600160401b0382111561534757615347615513565b5060209081020190565b60008219821115615364576153646154fd565b500190565b60006001600160401b0380831681851680830382111561538b5761538b6154fd565b01949350505050565b600060ff821660ff84168060ff038211156153b1576153b16154fd565b019392505050565b60006001600160601b0380831681851680830382111561538b5761538b6154fd565b6000826153f657634e487b7160e01b81526012600452602481fd5b500490565b6000816000190483118215151615615415576154156154fd565b500290565b600060ff821660ff84168160ff048111821515161561543b5761543b6154fd565b029392505050565b600082821015615455576154556154fd565b500390565b600060ff821660ff841680821015615474576154746154fd565b90039392505050565b60005b83811015615498578181015183820152602001615480565b838111156154a7576000848401525b50505050565b6002810460018216806154c157607f821691505b6020821081141561487857634e487b7160e01b600052602260045260246000fd5b60006000198214156154f6576154f66154fd565b5060010190565b634e487b7160e01b600052601160045260246000fd5b634e487b7160e01b600052604160045260246000fd5b6001600160a01b0381168114611f5557600080fdfe416464726573733a206c6f772d6c6576656c2063616c6c20776974682076616c7565206661696c6564a2646970667358221220ae6c1105e8965ae97e8bc35586d69add5181e1915339b31578307b974009e7de64736f6c63430008020033",
  "devdoc": {
    "kind": "dev",
    "methods": {
      "burnProof(bytes4,bytes,bytes,bytes4,uint256,bytes,uint256,bytes,uint256[],uint256[])": {
        "details": "Makes isTransferred flag true for the paid requests",
        "params": {
          "_blockNumber": "Height of the block containing the burn transaction",
          "_burnReqIndexes": "Indexes of requests that locker wants to provide proof for them",
          "_index": "Index of transaction containing the burn transaction in the block",
          "_intermediateNodes": "Merkle inclusion proof for transaction containing the burn transaction",
          "_lockerLockingScript": "Locker's locking script (on Bitcoin) that this burn request belongs to",
          "_locktime": "Lock time of the transaction containing the burn transaction",
          "_version": "Version of the transaction containing the burn transaction",
          "_vin": "Inputs of the transaction containing the burn transaction",
          "_vout": "Outputs of the transaction containing the burn transaction",
          "_voutIndexes": "Indexes of outputs that were used to pay burn requests (_voutIndexes[i] belongs to _burnReqIndexes[i])"
        },
        "returns": {
          "_0": ""
        }
      },
      "ccBurn(uint256,bytes,uint8,bytes)": {
        "details": "After submitting the burn request, lockers have a limited time                                     to send BTC and provide burn proof",
        "params": {
          "_amount": "Amount of teleBTC that user wants to burn",
          "_lockerLockingScript": "Locking script of locker that should execute the burn request",
          "_userScript": "User's script"
        },
        "returns": {
          "_burntAmount": "               Amount of teleBTC that user will receive (after reducing fees)"
        }
      },
      "constructor": {
        "params": {
          "_bitcoinFee": "Fee of submitting a transaction on Bitcoin",
          "_lockers": "Address of lockers contract",
          "_protocolPercentageFee": "Percentage of tokens that user pays to protocol for burning",
          "_relay": "Address of relay contract",
          "_slasherPercentageReward": "Percentage of tokens that slasher receives after slashing a locker",
          "_transferDeadline": "Dealine of sending BTC to user (aster submitting a burn request)",
          "_treasury": "Address of the treasury of the protocol"
        }
      },
      "disputeBurn(bytes,uint256[])": {
        "params": {
          "_indices": "Array of indices of the requests that their deadline has passed",
          "_lockerLockingScript": "locker's locking script that the unpaid request belongs to"
        },
        "returns": {
          "_0": "True if dispute is successfull"
        }
      },
      "disputeLocker(bytes,bytes4[],bytes,bytes,bytes,bytes,bytes4[],bytes,uint256[])": {
        "details": "Input tx is a malicious tx which shows that locker spent BTC                                         Output tx is the tx that was spent by locker in input tx                                         Output tx --> money goes to locker --> Input tx --> locker steals the funds",
        "params": {
          "_indexesAndBlockNumbers": "Indices of malicious input in input tx, input tx in block and block number of input tx",
          "_inputIntermediateNodes": "Merkle inclusion proof for the malicious transaction",
          "_inputVin": "Inputs of the malicious transaction",
          "_inputVout": "Outputs of the malicious transaction",
          "_lockerLockingScript": "Suspicious locker's locking script",
          "_locktimes": "Locktimes of input and output tx",
          "_outputVin": "Inputs of the spent transaction",
          "_outputVout": "Outputs of the spent transaction",
          "_versions": "Versions of input and output tx"
        },
        "returns": {
          "_0": "True if dispute is successfull"
        }
      },
      "isTransferred(address,uint256)": {
        "params": {
          "_index": "The index of the request for the locker",
          "_lockerTargetAddress": "Locker's address on the target chain"
        }
      },
      "owner()": {
        "details": "Returns the address of the current owner."
      },
      "renounceOwnership()": {
        "details": "Leaves the contract without owner. It will not be possible to call `onlyOwner` functions anymore. Can only be called by the current owner. NOTE: Renouncing ownership will leave the contract without an owner, thereby removing any functionality that is only available to the owner."
      },
      "setBitcoinFee(uint256)": {
        "details": "Only owner can call this",
        "params": {
          "_bitcoinFee": "The new Bitcoin transaction fee"
        }
      },
      "setLockers(address)": {
        "details": "Only owner can call this",
        "params": {
          "_lockers": "The new lockers contract address"
        }
      },
      "setProtocolPercentageFee(uint256)": {
        "details": "Only owner can call this",
        "params": {
          "_protocolPercentageFee": "The new protocol percentage fee"
        }
      },
      "setRelay(address)": {
        "details": "Only owner can call this",
        "params": {
          "_relay": "The new relay contract address"
        }
      },
      "setSlasherPercentageReward(uint256)": {
        "details": "Only owner can call this",
        "params": {
          "_slasherPercentageReward": "The new slasher percentage reward"
        }
      },
      "setTeleBTC(address)": {
        "details": "Only owner can call this",
        "params": {
          "_teleBTC": "The new teleBTC contract address"
        }
      },
      "setTransferDeadline(uint256)": {
        "details": "Only owner can call this                                     Deadline shoudl be greater than relay finalization parameter",
        "params": {
          "_transferDeadline": "The new transfer deadline"
        }
      },
      "setTreasury(address)": {
        "details": "Only owner can call this",
        "params": {
          "_treasury": "The new treasury address"
        }
      },
      "transferOwnership(address)": {
        "details": "Transfers ownership of the contract to a new account (`newOwner`). Can only be called by the current owner."
      }
    },
    "version": 1
  },
  "userdoc": {
    "events": {
      "BurnDispute(address,address,bytes,uint256)": {
        "notice": "Emits when a locker gets slashed for withdrawing BTC without proper reason"
      },
      "CCBurn(address,bytes,uint8,uint256,uint256,address,bytes,uint256,uint256)": {
        "notice": "Emits when a burn request gets submitted"
      },
      "LockerDispute(address,bytes,uint256,bytes32,uint256)": {
        "notice": "Emits when a locker gets slashed for withdrawing BTC without proper reason"
      },
      "PaidCCBurn(address,uint256,bytes32,uint256)": {
        "notice": "Emits when a burn proof is provided"
      }
    },
    "kind": "user",
    "methods": {
      "burnProof(bytes4,bytes,bytes,bytes4,uint256,bytes,uint256,bytes,uint256[],uint256[])": {
        "notice": "Checks the correctness of burn proof"
      },
      "ccBurn(uint256,bytes,uint8,bytes)": {
        "notice": "Burns teleBTC and records the burn request"
      },
      "constructor": {
        "notice": "Handles cross-chain burn requests"
      },
      "disputeBurn(bytes,uint256[])": {
        "notice": "Slashes a locker if she did not paid a cc burn request before its deadline"
      },
      "disputeLocker(bytes,bytes4[],bytes,bytes,bytes,bytes,bytes4[],bytes,uint256[])": {
        "notice": "Slashes a locker if they issue a tx that doesn't match any burn request"
      },
      "isTransferred(address,uint256)": {
        "notice": "Shows if a burn request has been done or not"
      },
      "setBitcoinFee(uint256)": {
        "notice": "Changes Bitcoin transaction fee"
      },
      "setLockers(address)": {
        "notice": "Changes lockers contract address"
      },
      "setProtocolPercentageFee(uint256)": {
        "notice": "Changes protocol percentage fee for burning tokens"
      },
      "setRelay(address)": {
        "notice": "Changes relay contract address"
      },
      "setSlasherPercentageReward(uint256)": {
        "notice": "Changes slasher percentage reward for disputing lockers"
      },
      "setTeleBTC(address)": {
        "notice": "Changes teleBTC contract address"
      },
      "setTransferDeadline(uint256)": {
        "notice": "Changes deadline of executing burn requests"
      },
      "setTreasury(address)": {
        "notice": "Changes protocol treasury address"
      }
    },
    "version": 1
  },
  "storageLayout": {
    "storage": [
      {
        "astId": 807,
        "contract": "contracts/routers/CCBurnRouter.sol:CCBurnRouter",
        "label": "_owner",
        "offset": 0,
        "slot": "0",
        "type": "t_address"
      },
      {
        "astId": 1634,
        "contract": "contracts/routers/CCBurnRouter.sol:CCBurnRouter",
        "label": "_status",
        "offset": 0,
        "slot": "1",
        "type": "t_uint256"
      },
      {
        "astId": 19858,
        "contract": "contracts/routers/CCBurnRouter.sol:CCBurnRouter",
        "label": "relay",
        "offset": 0,
        "slot": "2",
        "type": "t_address"
      },
      {
        "astId": 19861,
        "contract": "contracts/routers/CCBurnRouter.sol:CCBurnRouter",
        "label": "lockers",
        "offset": 0,
        "slot": "3",
        "type": "t_address"
      },
      {
        "astId": 19864,
        "contract": "contracts/routers/CCBurnRouter.sol:CCBurnRouter",
        "label": "teleBTC",
        "offset": 0,
        "slot": "4",
        "type": "t_address"
      },
      {
        "astId": 19867,
        "contract": "contracts/routers/CCBurnRouter.sol:CCBurnRouter",
        "label": "treasury",
        "offset": 0,
        "slot": "5",
        "type": "t_address"
      },
      {
        "astId": 19870,
        "contract": "contracts/routers/CCBurnRouter.sol:CCBurnRouter",
        "label": "transferDeadline",
        "offset": 0,
        "slot": "6",
        "type": "t_uint256"
      },
      {
        "astId": 19873,
        "contract": "contracts/routers/CCBurnRouter.sol:CCBurnRouter",
        "label": "protocolPercentageFee",
        "offset": 0,
        "slot": "7",
        "type": "t_uint256"
      },
      {
        "astId": 19876,
        "contract": "contracts/routers/CCBurnRouter.sol:CCBurnRouter",
        "label": "slasherPercentageReward",
        "offset": 0,
        "slot": "8",
        "type": "t_uint256"
      },
      {
        "astId": 19879,
        "contract": "contracts/routers/CCBurnRouter.sol:CCBurnRouter",
        "label": "bitcoinFee",
        "offset": 0,
        "slot": "9",
        "type": "t_uint256"
      },
      {
        "astId": 19885,
        "contract": "contracts/routers/CCBurnRouter.sol:CCBurnRouter",
        "label": "burnRequests",
        "offset": 0,
        "slot": "10",
        "type": "t_mapping(t_address,t_array(t_struct(burnRequest)24322_storage)dyn_storage)"
      },
      {
        "astId": 19889,
        "contract": "contracts/routers/CCBurnRouter.sol:CCBurnRouter",
        "label": "burnRequestCounter",
        "offset": 0,
        "slot": "11",
        "type": "t_mapping(t_address,t_uint256)"
      },
      {
        "astId": 19894,
        "contract": "contracts/routers/CCBurnRouter.sol:CCBurnRouter",
        "label": "isUsedAsBurnProof",
        "offset": 0,
        "slot": "12",
        "type": "t_mapping(t_bytes32,t_bool)"
      }
    ],
    "types": {
      "t_address": {
        "encoding": "inplace",
        "label": "address",
        "numberOfBytes": "20"
      },
      "t_array(t_struct(burnRequest)24322_storage)dyn_storage": {
        "base": "t_struct(burnRequest)24322_storage",
        "encoding": "dynamic_array",
        "label": "struct ICCBurnRouter.burnRequest[]",
        "numberOfBytes": "32"
      },
      "t_bool": {
        "encoding": "inplace",
        "label": "bool",
        "numberOfBytes": "1"
      },
      "t_bytes32": {
        "encoding": "inplace",
        "label": "bytes32",
        "numberOfBytes": "32"
      },
      "t_bytes_storage": {
        "encoding": "bytes",
        "label": "bytes",
        "numberOfBytes": "32"
      },
      "t_enum(ScriptTypes)25221": {
        "encoding": "inplace",
        "label": "enum ScriptTypes",
        "numberOfBytes": "1"
      },
      "t_mapping(t_address,t_array(t_struct(burnRequest)24322_storage)dyn_storage)": {
        "encoding": "mapping",
        "key": "t_address",
        "label": "mapping(address => struct ICCBurnRouter.burnRequest[])",
        "numberOfBytes": "32",
        "value": "t_array(t_struct(burnRequest)24322_storage)dyn_storage"
      },
      "t_mapping(t_address,t_uint256)": {
        "encoding": "mapping",
        "key": "t_address",
        "label": "mapping(address => uint256)",
        "numberOfBytes": "32",
        "value": "t_uint256"
      },
      "t_mapping(t_bytes32,t_bool)": {
        "encoding": "mapping",
        "key": "t_bytes32",
        "label": "mapping(bytes32 => bool)",
        "numberOfBytes": "32",
        "value": "t_bool"
      },
      "t_struct(burnRequest)24322_storage": {
        "encoding": "inplace",
        "label": "struct ICCBurnRouter.burnRequest",
        "members": [
          {
            "astId": 24306,
            "contract": "contracts/routers/CCBurnRouter.sol:CCBurnRouter",
            "label": "amount",
            "offset": 0,
            "slot": "0",
            "type": "t_uint256"
          },
          {
            "astId": 24308,
            "contract": "contracts/routers/CCBurnRouter.sol:CCBurnRouter",
            "label": "burntAmount",
            "offset": 0,
            "slot": "1",
            "type": "t_uint256"
          },
          {
            "astId": 24310,
            "contract": "contracts/routers/CCBurnRouter.sol:CCBurnRouter",
            "label": "sender",
            "offset": 0,
            "slot": "2",
            "type": "t_address"
          },
          {
            "astId": 24312,
            "contract": "contracts/routers/CCBurnRouter.sol:CCBurnRouter",
            "label": "userScript",
            "offset": 0,
            "slot": "3",
            "type": "t_bytes_storage"
          },
          {
            "astId": 24314,
            "contract": "contracts/routers/CCBurnRouter.sol:CCBurnRouter",
            "label": "deadline",
            "offset": 0,
            "slot": "4",
            "type": "t_uint256"
          },
          {
            "astId": 24316,
            "contract": "contracts/routers/CCBurnRouter.sol:CCBurnRouter",
            "label": "isTransferred",
            "offset": 0,
            "slot": "5",
            "type": "t_bool"
          },
          {
            "astId": 24319,
            "contract": "contracts/routers/CCBurnRouter.sol:CCBurnRouter",
            "label": "scriptType",
            "offset": 1,
            "slot": "5",
            "type": "t_enum(ScriptTypes)25221"
          },
          {
            "astId": 24321,
            "contract": "contracts/routers/CCBurnRouter.sol:CCBurnRouter",
            "label": "requestIdOfLocker",
            "offset": 0,
            "slot": "6",
            "type": "t_uint256"
          }
        ],
        "numberOfBytes": "224"
      },
      "t_uint256": {
        "encoding": "inplace",
        "label": "uint256",
        "numberOfBytes": "32"
      }
    }
  }
}