{
  "address": "0x4A51C5BE14d1F1264297D21d1Ed77DFd4294f00E",
  "abi": [
    {
      "inputs": [
        {
          "internalType": "uint256",
          "name": "_startingBlockNumber",
          "type": "uint256"
        },
        {
          "internalType": "address",
          "name": "_relay",
          "type": "address"
        },
        {
          "internalType": "address",
          "name": "_lockers",
          "type": "address"
        },
        {
          "internalType": "address",
          "name": "_treasury",
          "type": "address"
        },
        {
          "internalType": "address",
          "name": "_teleBTC",
          "type": "address"
        },
        {
          "internalType": "uint256",
          "name": "_transferDeadline",
          "type": "uint256"
        },
        {
          "internalType": "uint256",
          "name": "_protocolPercentageFee",
          "type": "uint256"
        },
        {
          "internalType": "uint256",
          "name": "_slasherPercentageReward",
          "type": "uint256"
        },
        {
          "internalType": "uint256",
          "name": "_bitcoinFee",
          "type": "uint256"
        }
      ],
      "stateMutability": "nonpayable",
      "type": "constructor"
    },
    {
      "anonymous": false,
      "inputs": [
        {
          "indexed": true,
          "internalType": "address",
          "name": "userTargetAddress",
          "type": "address"
        },
        {
          "indexed": true,
          "internalType": "address",
          "name": "_lockerTargetAddress",
          "type": "address"
        },
        {
          "indexed": false,
          "internalType": "bytes",
          "name": "lockerLockingScript",
          "type": "bytes"
        },
        {
          "indexed": false,
          "internalType": "uint256",
          "name": "requestIdOfLocker",
          "type": "uint256"
        }
      ],
      "name": "BurnDispute",
      "type": "event"
    },
    {
      "anonymous": false,
      "inputs": [
        {
          "indexed": true,
          "internalType": "address",
          "name": "userTargetAddress",
          "type": "address"
        },
        {
          "indexed": false,
          "internalType": "bytes",
          "name": "userScript",
          "type": "bytes"
        },
        {
          "indexed": false,
          "internalType": "enum ScriptTypes",
          "name": "scriptType",
          "type": "uint8"
        },
        {
          "indexed": false,
          "internalType": "uint256",
          "name": "amount",
          "type": "uint256"
        },
        {
          "indexed": false,
          "internalType": "uint256",
          "name": "burntAmount",
          "type": "uint256"
        },
        {
          "indexed": true,
          "internalType": "address",
          "name": "lockerTargetAddress",
          "type": "address"
        },
        {
          "indexed": false,
          "internalType": "bytes",
          "name": "lockerLockingScript",
          "type": "bytes"
        },
        {
          "indexed": false,
          "internalType": "uint256",
          "name": "requestIdOfLocker",
          "type": "uint256"
        },
        {
          "indexed": true,
          "internalType": "uint256",
          "name": "deadline",
          "type": "uint256"
        }
      ],
      "name": "CCBurn",
      "type": "event"
    },
    {
      "anonymous": false,
      "inputs": [
        {
          "indexed": false,
          "internalType": "address",
          "name": "_lockerTargetAddress",
          "type": "address"
        },
        {
          "indexed": false,
          "internalType": "bytes",
          "name": "lockerLockingScript",
          "type": "bytes"
        },
        {
          "indexed": false,
          "internalType": "uint256",
          "name": "_blockNumber",
          "type": "uint256"
        },
        {
          "indexed": false,
          "internalType": "bytes32",
          "name": "txId",
          "type": "bytes32"
        },
        {
          "indexed": false,
          "internalType": "uint256",
          "name": "amount",
          "type": "uint256"
        }
      ],
      "name": "LockerDispute",
      "type": "event"
    },
    {
      "anonymous": false,
      "inputs": [
        {
          "indexed": false,
          "internalType": "uint256",
          "name": "oldBitcoinFee",
          "type": "uint256"
        },
        {
          "indexed": false,
          "internalType": "uint256",
          "name": "newBitcoinFee",
          "type": "uint256"
        }
      ],
      "name": "NewBitcoinFee",
      "type": "event"
    },
    {
      "anonymous": false,
      "inputs": [
        {
          "indexed": false,
          "internalType": "address",
          "name": "oldLockers",
          "type": "address"
        },
        {
          "indexed": false,
          "internalType": "address",
          "name": "newLockers",
          "type": "address"
        }
      ],
      "name": "NewLockers",
      "type": "event"
    },
    {
      "anonymous": false,
      "inputs": [
        {
          "indexed": false,
          "internalType": "uint256",
          "name": "oldProtocolPercentageFee",
          "type": "uint256"
        },
        {
          "indexed": false,
          "internalType": "uint256",
          "name": "newProtocolPercentageFee",
          "type": "uint256"
        }
      ],
      "name": "NewProtocolPercentageFee",
      "type": "event"
    },
    {
      "anonymous": false,
      "inputs": [
        {
          "indexed": false,
          "internalType": "address",
          "name": "oldRelay",
          "type": "address"
        },
        {
          "indexed": false,
          "internalType": "address",
          "name": "newRelay",
          "type": "address"
        }
      ],
      "name": "NewRelay",
      "type": "event"
    },
    {
      "anonymous": false,
      "inputs": [
        {
          "indexed": false,
          "internalType": "uint256",
          "name": "oldSlasherPercentageFee",
          "type": "uint256"
        },
        {
          "indexed": false,
          "internalType": "uint256",
          "name": "newSlasherPercentageFee",
          "type": "uint256"
        }
      ],
      "name": "NewSlasherPercentageFee",
      "type": "event"
    },
    {
      "anonymous": false,
      "inputs": [
        {
          "indexed": false,
          "internalType": "address",
          "name": "oldTeleBTC",
          "type": "address"
        },
        {
          "indexed": false,
          "internalType": "address",
          "name": "newTeleBTC",
          "type": "address"
        }
      ],
      "name": "NewTeleBTC",
      "type": "event"
    },
    {
      "anonymous": false,
      "inputs": [
        {
          "indexed": false,
          "internalType": "uint256",
          "name": "oldTransferDeadline",
          "type": "uint256"
        },
        {
          "indexed": false,
          "internalType": "uint256",
          "name": "newTransferDeadline",
          "type": "uint256"
        }
      ],
      "name": "NewTransferDeadline",
      "type": "event"
    },
    {
      "anonymous": false,
      "inputs": [
        {
          "indexed": false,
          "internalType": "address",
          "name": "oldTreasury",
          "type": "address"
        },
        {
          "indexed": false,
          "internalType": "address",
          "name": "newTreasury",
          "type": "address"
        }
      ],
      "name": "NewTreasury",
      "type": "event"
    },
    {
      "anonymous": false,
      "inputs": [
        {
          "indexed": true,
          "internalType": "address",
          "name": "previousOwner",
          "type": "address"
        },
        {
          "indexed": true,
          "internalType": "address",
          "name": "newOwner",
          "type": "address"
        }
      ],
      "name": "OwnershipTransferred",
      "type": "event"
    },
    {
      "anonymous": false,
      "inputs": [
        {
          "indexed": true,
          "internalType": "address",
          "name": "lockerTargetAddress",
          "type": "address"
        },
        {
          "indexed": false,
          "internalType": "uint256",
          "name": "requestIdOfLocker",
          "type": "uint256"
        },
        {
          "indexed": false,
          "internalType": "bytes32",
          "name": "bitcoinTxId",
          "type": "bytes32"
        },
        {
          "indexed": false,
          "internalType": "uint256",
          "name": "bitcoinTxOutputIndex",
          "type": "uint256"
        }
      ],
      "name": "PaidCCBurn",
      "type": "event"
    },
    {
      "inputs": [],
      "name": "bitcoinFee",
      "outputs": [
        {
          "internalType": "uint256",
          "name": "",
          "type": "uint256"
        }
      ],
      "stateMutability": "view",
      "type": "function"
    },
    {
      "inputs": [
        {
          "internalType": "bytes4",
          "name": "_version",
          "type": "bytes4"
        },
        {
          "internalType": "bytes",
          "name": "_vin",
          "type": "bytes"
        },
        {
          "internalType": "bytes",
          "name": "_vout",
          "type": "bytes"
        },
        {
          "internalType": "bytes4",
          "name": "_locktime",
          "type": "bytes4"
        },
        {
          "internalType": "uint256",
          "name": "_blockNumber",
          "type": "uint256"
        },
        {
          "internalType": "bytes",
          "name": "_intermediateNodes",
          "type": "bytes"
        },
        {
          "internalType": "uint256",
          "name": "_index",
          "type": "uint256"
        },
        {
          "internalType": "bytes",
          "name": "_lockerLockingScript",
          "type": "bytes"
        },
        {
          "internalType": "uint256[]",
          "name": "_burnReqIndexes",
          "type": "uint256[]"
        },
        {
          "internalType": "uint256[]",
          "name": "_voutIndexes",
          "type": "uint256[]"
        }
      ],
      "name": "burnProof",
      "outputs": [
        {
          "internalType": "bool",
          "name": "",
          "type": "bool"
        }
      ],
      "stateMutability": "payable",
      "type": "function"
    },
    {
      "inputs": [
        {
          "internalType": "address",
          "name": "",
          "type": "address"
        }
      ],
      "name": "burnRequestCounter",
      "outputs": [
        {
          "internalType": "uint256",
          "name": "",
          "type": "uint256"
        }
      ],
      "stateMutability": "view",
      "type": "function"
    },
    {
      "inputs": [
        {
          "internalType": "address",
          "name": "",
          "type": "address"
        },
        {
          "internalType": "uint256",
          "name": "",
          "type": "uint256"
        }
      ],
      "name": "burnRequests",
      "outputs": [
        {
          "internalType": "uint256",
          "name": "amount",
          "type": "uint256"
        },
        {
          "internalType": "uint256",
          "name": "burntAmount",
          "type": "uint256"
        },
        {
          "internalType": "address",
          "name": "sender",
          "type": "address"
        },
        {
          "internalType": "bytes",
          "name": "userScript",
          "type": "bytes"
        },
        {
          "internalType": "uint256",
          "name": "deadline",
          "type": "uint256"
        },
        {
          "internalType": "bool",
          "name": "isTransferred",
          "type": "bool"
        },
        {
          "internalType": "enum ScriptTypes",
          "name": "scriptType",
          "type": "uint8"
        },
        {
          "internalType": "uint256",
          "name": "requestIdOfLocker",
          "type": "uint256"
        }
      ],
      "stateMutability": "view",
      "type": "function"
    },
    {
      "inputs": [
        {
          "internalType": "uint256",
          "name": "_amount",
          "type": "uint256"
        },
        {
          "internalType": "bytes",
          "name": "_userScript",
          "type": "bytes"
        },
        {
          "internalType": "enum ScriptTypes",
          "name": "_scriptType",
          "type": "uint8"
        },
        {
          "internalType": "bytes",
          "name": "_lockerLockingScript",
          "type": "bytes"
        }
      ],
      "name": "ccBurn",
      "outputs": [
        {
          "internalType": "uint256",
          "name": "_burntAmount",
          "type": "uint256"
        }
      ],
      "stateMutability": "nonpayable",
      "type": "function"
    },
    {
      "inputs": [
        {
          "internalType": "bytes",
          "name": "_lockerLockingScript",
          "type": "bytes"
        },
        {
          "internalType": "uint256[]",
          "name": "_indices",
          "type": "uint256[]"
        }
      ],
      "name": "disputeBurn",
      "outputs": [
        {
          "internalType": "bool",
          "name": "",
          "type": "bool"
        }
      ],
      "stateMutability": "nonpayable",
      "type": "function"
    },
    {
      "inputs": [
        {
          "internalType": "bytes",
          "name": "_lockerLockingScript",
          "type": "bytes"
        },
        {
          "internalType": "bytes4[]",
          "name": "_versions",
          "type": "bytes4[]"
        },
        {
          "internalType": "bytes",
          "name": "_inputVin",
          "type": "bytes"
        },
        {
          "internalType": "bytes",
          "name": "_inputVout",
          "type": "bytes"
        },
        {
          "internalType": "bytes",
          "name": "_outputVin",
          "type": "bytes"
        },
        {
          "internalType": "bytes",
          "name": "_outputVout",
          "type": "bytes"
        },
        {
          "internalType": "bytes4[]",
          "name": "_locktimes",
          "type": "bytes4[]"
        },
        {
          "internalType": "bytes",
          "name": "_inputIntermediateNodes",
          "type": "bytes"
        },
        {
          "internalType": "uint256[]",
          "name": "_indexesAndBlockNumbers",
          "type": "uint256[]"
        }
      ],
      "name": "disputeLocker",
      "outputs": [
        {
          "internalType": "bool",
          "name": "",
          "type": "bool"
        }
      ],
      "stateMutability": "payable",
      "type": "function"
    },
    {
      "inputs": [],
      "name": "fixTransferDeadline",
      "outputs": [],
      "stateMutability": "nonpayable",
      "type": "function"
    },
    {
      "inputs": [
        {
          "internalType": "address",
          "name": "_lockerTargetAddress",
          "type": "address"
        },
        {
          "internalType": "uint256",
          "name": "_index",
          "type": "uint256"
        }
      ],
      "name": "isTransferred",
      "outputs": [
        {
          "internalType": "bool",
          "name": "",
          "type": "bool"
        }
      ],
      "stateMutability": "view",
      "type": "function"
    },
    {
      "inputs": [
        {
          "internalType": "bytes32",
          "name": "",
          "type": "bytes32"
        }
      ],
      "name": "isUsedAsBurnProof",
      "outputs": [
        {
          "internalType": "bool",
          "name": "",
          "type": "bool"
        }
      ],
      "stateMutability": "view",
      "type": "function"
    },
    {
      "inputs": [],
      "name": "lockers",
      "outputs": [
        {
          "internalType": "address",
          "name": "",
          "type": "address"
        }
      ],
      "stateMutability": "view",
      "type": "function"
    },
    {
      "inputs": [],
      "name": "owner",
      "outputs": [
        {
          "internalType": "address",
          "name": "",
          "type": "address"
        }
      ],
      "stateMutability": "view",
      "type": "function"
    },
    {
      "inputs": [],
      "name": "protocolPercentageFee",
      "outputs": [
        {
          "internalType": "uint256",
          "name": "",
          "type": "uint256"
        }
      ],
      "stateMutability": "view",
      "type": "function"
    },
    {
      "inputs": [],
      "name": "relay",
      "outputs": [
        {
          "internalType": "address",
          "name": "",
          "type": "address"
        }
      ],
      "stateMutability": "view",
      "type": "function"
    },
    {
      "inputs": [],
      "name": "renounceOwnership",
      "outputs": [],
      "stateMutability": "nonpayable",
      "type": "function"
    },
    {
      "inputs": [
        {
          "internalType": "uint256",
          "name": "_bitcoinFee",
          "type": "uint256"
        }
      ],
      "name": "setBitcoinFee",
      "outputs": [],
      "stateMutability": "nonpayable",
      "type": "function"
    },
    {
      "inputs": [
        {
          "internalType": "address",
          "name": "_lockers",
          "type": "address"
        }
      ],
      "name": "setLockers",
      "outputs": [],
      "stateMutability": "nonpayable",
      "type": "function"
    },
    {
      "inputs": [
        {
          "internalType": "uint256",
          "name": "_protocolPercentageFee",
          "type": "uint256"
        }
      ],
      "name": "setProtocolPercentageFee",
      "outputs": [],
      "stateMutability": "nonpayable",
      "type": "function"
    },
    {
      "inputs": [
        {
          "internalType": "address",
          "name": "_relay",
          "type": "address"
        }
      ],
      "name": "setRelay",
      "outputs": [],
      "stateMutability": "nonpayable",
      "type": "function"
    },
    {
      "inputs": [
        {
          "internalType": "uint256",
          "name": "_slasherPercentageReward",
          "type": "uint256"
        }
      ],
      "name": "setSlasherPercentageReward",
      "outputs": [],
      "stateMutability": "nonpayable",
      "type": "function"
    },
    {
      "inputs": [
        {
          "internalType": "address",
          "name": "_teleBTC",
          "type": "address"
        }
      ],
      "name": "setTeleBTC",
      "outputs": [],
      "stateMutability": "nonpayable",
      "type": "function"
    },
    {
      "inputs": [
        {
          "internalType": "uint256",
          "name": "_transferDeadline",
          "type": "uint256"
        }
      ],
      "name": "setTransferDeadline",
      "outputs": [],
      "stateMutability": "nonpayable",
      "type": "function"
    },
    {
      "inputs": [
        {
          "internalType": "address",
          "name": "_treasury",
          "type": "address"
        }
      ],
      "name": "setTreasury",
      "outputs": [],
      "stateMutability": "nonpayable",
      "type": "function"
    },
    {
      "inputs": [],
      "name": "slasherPercentageReward",
      "outputs": [
        {
          "internalType": "uint256",
          "name": "",
          "type": "uint256"
        }
      ],
      "stateMutability": "view",
      "type": "function"
    },
    {
      "inputs": [],
      "name": "startingBlockNumber",
      "outputs": [
        {
          "internalType": "uint256",
          "name": "",
          "type": "uint256"
        }
      ],
      "stateMutability": "view",
      "type": "function"
    },
    {
      "inputs": [],
      "name": "teleBTC",
      "outputs": [
        {
          "internalType": "address",
          "name": "",
          "type": "address"
        }
      ],
      "stateMutability": "view",
      "type": "function"
    },
    {
      "inputs": [],
      "name": "transferDeadline",
      "outputs": [
        {
          "internalType": "uint256",
          "name": "",
          "type": "uint256"
        }
      ],
      "stateMutability": "view",
      "type": "function"
    },
    {
      "inputs": [
        {
          "internalType": "address",
          "name": "newOwner",
          "type": "address"
        }
      ],
      "name": "transferOwnership",
      "outputs": [],
      "stateMutability": "nonpayable",
      "type": "function"
    },
    {
      "inputs": [],
      "name": "treasury",
      "outputs": [
        {
          "internalType": "address",
          "name": "",
          "type": "address"
        }
      ],
      "stateMutability": "view",
      "type": "function"
    },
    {
      "stateMutability": "payable",
      "type": "receive"
    }
  ],
  "transactionHash": "0xf1fbf679c787801d4094ab5284607cf1b34fcd548e8f5bd1ad4f872021640d91",
  "args": [
    774959,
    "0xc7a7C6AB475138565FE0D2476EE4616862Bf2467",
    "0xf5D6D369A7F4147F720AEAdd4C4f903aE8046166",
    "0x5364E3557572bd5D5903C0e9C21BE359F2Eac1dA",
    "0x515D720B9D219f1931205D5B8D842bE1Fe2FeBDE",
    72,
    5,
    500,
    10000
  ],
  "numDeployments": 1,
  "solcInputHash": "c64e4eeb81b7d2025680806abe80afd3",
  "bytecode": "0x60806040523480156200001157600080fd5b506040516200638938038062006389833981016040819052620000349162000730565b6200003f33620000af565b6001805560028990556200005388620000ff565b6200005e87620001b5565b620000698662000267565b620000748562000319565b6200007f84620003cb565b6200008a83620004f4565b62000095826200059c565b620000a08162000657565b505050505050505050620007bd565b600080546001600160a01b038381166001600160a01b0319831681178455604051919092169283917f8be0079c531659141344cd1fd0a4f28419497f9722a3daafe3b4186f6b6457e09190a35050565b806001600160a01b0381166200014b5760405162461bcd60e51b815260206004820152601d60248201526000805160206200636983398151915260448201526064015b60405180910390fd5b600354604080516001600160a01b03928316815291841660208301527f4c28a3f61a715259c4dc930c23e7423b8fa52e13232c061a6e488729c66184f4910160405180910390a150600380546001600160a01b0319166001600160a01b0392909216919091179055565b806001600160a01b038116620001fd5760405162461bcd60e51b815260206004820152601d602482015260008051602062006369833981519152604482015260640162000142565b600454604080516001600160a01b03928316815291841660208301527ffa021c2ec0f46429a53e7f88b88065e40001f50c9d38b2e8b713beaf9828d4c3910160405180910390a150600480546001600160a01b0319166001600160a01b0392909216919091179055565b806001600160a01b038116620002af5760405162461bcd60e51b815260206004820152601d602482015260008051602062006369833981519152604482015260640162000142565b600654604080516001600160a01b03928316815291841660208301527f567657fa3f286518b318f4a29870674f433f622fdfc819691acb13105b228225910160405180910390a150600680546001600160a01b0319166001600160a01b0392909216919091179055565b806001600160a01b038116620003615760405162461bcd60e51b815260206004820152601d602482015260008051602062006369833981519152604482015260640162000142565b600554604080516001600160a01b03928316815291841660208301527f36a4c08a38b736dcecb6c328dba61238529620e83ccb23db2cc43cd34ec26096910160405180910390a150600580546001600160a01b0319166001600160a01b0392909216919091179055565b60035460408051630a072bc560e41b815290516000926001600160a01b03169163a072bc50916004808301926020929190829003018186803b1580156200041157600080fd5b505afa15801562000426573d6000803e3d6000fd5b505050506040513d601f19601f820116820180604052508101906200044c919062000717565b9050808211620004b25760405162461bcd60e51b815260206004820152602a60248201527f43434275726e526f757465723a207472616e7366657220646561646c696e6520604482015269697320746f6f206c6f7760b01b606482015260840162000142565b60075460408051918252602082018490527f92c10a242ca42973030420e2ee32b3ba7818cc643f896958f620c606cf300416910160405180910390a150600755565b8061271010156200055b5760405162461bcd60e51b815260206004820152602a60248201527f43434275726e526f757465723a2070726f746f636f6c20666565206973206f7560448201526974206f662072616e676560b01b606482015260840162000142565b60085460408051918252602082018390527f7d205f60891f60851c61cd244ba387d72b6589e7c0ac41b9d909ab0ce2c2a53b910160405180910390a1600855565b806127101015620006165760405162461bcd60e51b815260206004820152603760248201527f43434275726e526f757465723a20736c61736865722070657263656e7461676560448201527f20726577617264206973206f7574206f662072616e6765000000000000000000606482015260840162000142565b60095460408051918252602082018390527faa50b3683e42a13535a5b9c2c32780cccf956fb546b523a3542ac4ad8b544f67910160405180910390a1600955565b600a5460408051918252602082018390527f47c5f9c13c35ebb166f6a8d8c56af73f8b323ac0fee7aec4a5e0490bbf67a4fe910160405180910390a1806127101015620006f55760405162461bcd60e51b815260206004820152602560248201527f43434275726e526f757465723a2062746320666565206973206f7574206f662060448201526472616e676560d81b606482015260840162000142565b600a55565b80516001600160a01b03811681146200071257600080fd5b919050565b60006020828403121562000729578081fd5b5051919050565b60008060008060008060008060006101208a8c0312156200074f578485fd5b895198506200076160208b01620006fa565b97506200077160408b01620006fa565b96506200078160608b01620006fa565b95506200079160808b01620006fa565b945060a08a0151935060c08a0151925060e08a015191506101008a015190509295985092959850929598565b615b9c80620007cd6000396000f3fe6080604052600436106101c65760003560e01c80637ffe9a92116100f7578063bed6a60211610095578063ea73263711610064578063ea732637146104f5578063f0f4426014610508578063f2fde38b14610528578063f47e224014610548576101cd565b8063bed6a6021461048c578063c780c03f146104a2578063c805f68b146104b5578063cdbe3741146104d5576101cd565b8063930a60e8116100d1578063930a60e814610409578063b14d353214610436578063b59589d114610456578063b74d0d3514610476576101cd565b80637ffe9a92146103ab5780638d3d78cd146103cb5780638da5cb5b146103eb576101cd565b80635c4f5f3e11610164578063715018a61161013e578063715018a61461033657806373532b2a1461034b5780637ed557481461036b5780637f0f18171461038b576101cd565b80635c4f5f3e146102e057806361d027b31461030057806370872aa514610320576101cd565b80631e236168116101a05780631e2361681461024a578063419cba7f1461028a57806343149dba146102a05780634782bc36146102c0576101cd565b80630e5811a8146101d25780631812adb6146101e95780631876dec414610212576101cd565b366101cd57005b600080fd5b3480156101de57600080fd5b506101e761057c565b005b3480156101f557600080fd5b506101ff60085481565b6040519081526020015b60405180910390f35b34801561021e57600080fd5b50600454610232906001600160a01b031681565b6040516001600160a01b039091168152602001610209565b34801561025657600080fd5b5061027a61026536600461514b565b600d6020526000908152604090205460ff1681565b6040519015158152602001610209565b34801561029657600080fd5b506101ff60095481565b3480156102ac57600080fd5b506101ff6102bb36600461545f565b6106b2565b3480156102cc57600080fd5b506101e76102db36600461514b565b610c14565b3480156102ec57600080fd5b506101e76102fb36600461514b565b610c4a565b34801561030c57600080fd5b50600654610232906001600160a01b031681565b34801561032c57600080fd5b506101ff60025481565b34801561034257600080fd5b506101e7610c7d565b34801561035757600080fd5b5061027a6103663660046152a0565b610ca9565b34801561037757600080fd5b506101e761038636600461514b565b61140c565b34801561039757600080fd5b506101e76103a63660046150c8565b61143f565b3480156103b757600080fd5b5061027a6103c6366004615100565b611472565b3480156103d757600080fd5b50600554610232906001600160a01b031681565b3480156103f757600080fd5b506000546001600160a01b0316610232565b34801561041557600080fd5b506101ff6104243660046150c8565b600c6020526000908152604090205481565b34801561044257600080fd5b506101e76104513660046150c8565b6114ca565b34801561046257600080fd5b50600354610232906001600160a01b031681565b34801561048257600080fd5b506101ff600a5481565b34801561049857600080fd5b506101ff60075481565b61027a6104b0366004615305565b6114fd565b3480156104c157600080fd5b506101e76104d03660046150c8565b611af4565b3480156104e157600080fd5b506101e76104f036600461514b565b611b27565b61027a61050336600461517b565b611b5a565b34801561051457600080fd5b506101e76105233660046150c8565b611e53565b34801561053457600080fd5b506101e76105433660046150c8565b611e86565b34801561055457600080fd5b50610568610563366004615100565b611f1e565b60405161020998979695949392919061589a565b60035460408051630a072bc560e41b815290516000926001600160a01b03169163a072bc50916004808301926020929190829003018186803b1580156105c157600080fd5b505afa1580156105d5573d6000803e3d6000fd5b505050506040513d601f19601f820116820180604052508101906105f99190615163565b905060075481111561068b5760405162461bcd60e51b815260206004820152604a60248201527f43434275726e526f757465723a2066696e616c697a6174696f6e20706172616d60448201527f65746572206973206e6f742067726561746572207468616e207472616e7366656064820152697220646561646c696e6560b01b608482015260a4015b60405180910390fd5b60006106988260026159fa565b6106a3906001615950565b90506106ae8161201b565b5050565b6000600260015414156106d75760405162461bcd60e51b815260040161068290615863565b6002600155858061072a5760405162461bcd60e51b815260206004820152601b60248201527f43434275726e526f757465723a2076616c7565206973207a65726f00000000006044820152606401610682565b610734868661213e565b6004805460405163aff2faa360e01b81526001600160a01b039091169163aff2faa39161076591889188910161563f565b60206040518083038186803b15801561077d57600080fd5b505afa158015610791573d6000803e3d6000fd5b505050506040513d601f19601f820116820180604052508101906107b5919061512b565b6107d15760405162461bcd60e51b81526004016106829061574c565b6004805460405163626885b560e11b81526000926001600160a01b039092169163c4d10b6a9161080591899189910161563f565b60206040518083038186803b15801561081d57600080fd5b505afa158015610831573d6000803e3d6000fd5b505050506040513d601f19601f8201168201806040525081019061085591906150e4565b6005549091506001600160a01b03166323b872dd336040516001600160e01b031960e084901b1681526001600160a01b039091166004820152306024820152604481018b9052606401602060405180830381600087803b1580156108b857600080fd5b505af11580156108cc573d6000803e3d6000fd5b505050506040513d601f19601f820116820180604052508101906108f0919061512b565b5060006108fc896121d7565b6005546004805460405163095ea7b360e01b81526001600160a01b03918216928101929092526024820184905292935091169063095ea7b390604401602060405180830381600087803b15801561095257600080fd5b505af1158015610966573d6000803e3d6000fd5b505050506040513d601f19601f8201168201806040525081019061098a919061512b565b5080600a548261099a9190615a42565b600480546040516338463cff60e01b81526001600160a01b03909116916338463cff916109cd918c918c91899101615653565b602060405180830381600087803b1580156109e757600080fd5b505af11580156109fb573d6000803e3d6000fd5b505050506040513d601f19601f82011682018060405250810190610a1f9190615163565b610a2991906159fa565b610a3391906159da565b9350610ac889858a8a600360009054906101000a90046001600160a01b03166001600160a01b0316632f796d906040518163ffffffff1660e01b815260040160206040518083038186803b158015610a8a57600080fd5b505afa158015610a9e573d6000803e3d6000fd5b505050506040513d601f19601f82011682018060405250810190610ac29190615163565b876122f3565b6001600160a01b0382166000908152600b602052604090208054610aee90600190615a42565b81548110610b0c57634e487b7160e01b600052603260045260246000fd5b906000526020600020906007020160040154826001600160a01b0316610b2f3390565b6001600160a01b03167fe33c3da07e34f08c660e672e065c0fa53300573c646a21eadd6eef116a70e51e8b8b8e8a8d8d600b60008d6001600160a01b03166001600160a01b031681526020019081526020016000206001600b60008f6001600160a01b03166001600160a01b0316815260200190815260200160002080549050610bb99190615a42565b81548110610bd757634e487b7160e01b600052603260045260246000fd5b906000526020600020906007020160060154604051610bfc979695949392919061568a565b60405180910390a45050600180555095945050505050565b6000546001600160a01b03163314610c3e5760405162461bcd60e51b81526004016106829061582e565b610c47816124bb565b50565b6000546001600160a01b03163314610c745760405162461bcd60e51b81526004016106829061582e565b610c478161201b565b6000546001600160a01b03163314610ca75760405162461bcd60e51b81526004016106829061582e565b565b600060026001541415610cce5760405162461bcd60e51b815260040161068290615863565b60026001556004805460405163aff2faa360e01b81526001600160a01b039091169163aff2faa391610d0491889188910161563f565b60206040518083038186803b158015610d1c57600080fd5b505afa158015610d30573d6000803e3d6000fd5b505050506040513d601f19601f82011682018060405250810190610d54919061512b565b610d705760405162461bcd60e51b81526004016106829061574c565b6004805460405163626885b560e11b81526000926001600160a01b039092169163c4d10b6a91610da491899189910161563f565b60206040518083038186803b158015610dbc57600080fd5b505afa158015610dd0573d6000803e3d6000fd5b505050506040513d601f19601f82011682018060405250810190610df491906150e4565b90506000600360009054906101000a90046001600160a01b03166001600160a01b0316632f796d906040518163ffffffff1660e01b815260040160206040518083038186803b158015610e4657600080fd5b505afa158015610e5a573d6000803e3d6000fd5b505050506040513d601f19601f82011682018060405250810190610e7e9190615163565b905060005b84518110156113fc576001600160a01b0383166000908152600b602052604090208551869083908110610ec657634e487b7160e01b600052603260045260246000fd5b602002602001015181548110610eec57634e487b7160e01b600052603260045260246000fd5b600091825260209091206005600790920201015460ff1615610f635760405162461bcd60e51b815260206004820152602a60248201527f43434275726e526f757465723a207265717565737420686173206265656e2070604482015269616964206265666f726560b01b6064820152608401610682565b6001600160a01b0383166000908152600b602052604090208551839190879084908110610fa057634e487b7160e01b600052603260045260246000fd5b602002602001015181548110610fc657634e487b7160e01b600052603260045260246000fd5b90600052602060002090600702016004015410610ff55760405162461bcd60e51b81526004016106829061579c565b6001600160a01b0383166000908152600b6020526040902085516001919087908490811061103357634e487b7160e01b600052603260045260246000fd5b60200260200101518154811061105957634e487b7160e01b600052603260045260246000fd5b60009182526020808320600792909202909101600501805460ff1916931515939093179092556004546009546001600160a01b038781168452600b909452604090922088519390911692631697565b928792612710928b90889081106110cf57634e487b7160e01b600052603260045260246000fd5b6020026020010151815481106110f557634e487b7160e01b600052603260045260246000fd5b90600052602060002090600702016000015461111191906159fa565b61111b91906159da565b336001600160a01b0388166000908152600b602052604090208a518b908890811061115657634e487b7160e01b600052603260045260246000fd5b60200260200101518154811061117c57634e487b7160e01b600052603260045260246000fd5b906000526020600020906007020160000154600b60008a6001600160a01b03166001600160a01b031681526020019081526020016000208b88815181106111d357634e487b7160e01b600052603260045260246000fd5b6020026020010151815481106111f957634e487b7160e01b600052603260045260246000fd5b600091825260209091206007909102016002015460405160e087901b6001600160e01b03191681526001600160a01b03958616600482015260248101949094529184166044840152606483015291909116608482015260a401602060405180830381600087803b15801561126c57600080fd5b505af1158015611280573d6000803e3d6000fd5b505050506040513d601f19601f820116820180604052508101906112a4919061512b565b506001600160a01b0383166000818152600b6020526040902086518790849081106112df57634e487b7160e01b600052603260045260246000fd5b60200260200101518154811061130557634e487b7160e01b600052603260045260246000fd5b906000526020600020906007020160020160009054906101000a90046001600160a01b03166001600160a01b03167f58c23b4ae0617be275628875bcfd65759a441263099a256eeb27899fb5dd846d8989600b6000896001600160a01b03166001600160a01b031681526020019081526020016000208a878151811061139b57634e487b7160e01b600052603260045260246000fd5b6020026020010151815481106113c157634e487b7160e01b600052603260045260246000fd5b9060005260206000209060070201600601546040516113e293929190615653565b60405180910390a3806113f481615ae1565b915050610e83565b5050600180805595945050505050565b6000546001600160a01b031633146114365760405162461bcd60e51b81526004016106829061582e565b610c4781612574565b6000546001600160a01b031633146114695760405162461bcd60e51b81526004016106829061582e565b610c478161261a565b6001600160a01b0382166000908152600b602052604081208054839081106114aa57634e487b7160e01b600052603260045260246000fd5b600091825260209091206005600790920201015460ff1690505b92915050565b6000546001600160a01b031633146114f45760405162461bcd60e51b81526004016106829061582e565b610c47816126ab565b6000600260015414156115225760405162461bcd60e51b815260040161068290615863565b600260018190558951148015611539575083516002145b8015611546575081516003145b6115925760405162461bcd60e51b815260206004820152601a60248201527f43434275726e526f757465723a2077726f6e6720696e707574730000000000006044820152606401610682565b600254826002815181106115b657634e487b7160e01b600052603260045260246000fd5b6020026020010151101561160c5760405162461bcd60e51b815260206004820181905260248201527f43434275726e526f757465723a207265717565737420697320746f6f206f6c646044820152606401610682565b6004805460405163aff2faa360e01b81526001600160a01b039091169163aff2faa39161163b918e9101615677565b60206040518083038186803b15801561165357600080fd5b505afa158015611667573d6000803e3d6000fd5b505050506040513d601f19601f8201168201806040525081019061168b919061512b565b6116a75760405162461bcd60e51b81526004016106829061574c565b60006117058a6000815181106116cd57634e487b7160e01b600052603260045260246000fd5b60200260200101518a8a886000815181106116f857634e487b7160e01b600052603260045260246000fd5b602002602001015161273c565b9050611763818460028151811061172c57634e487b7160e01b600052603260045260246000fd5b6020026020010151868660018151811061175657634e487b7160e01b600052603260045260246000fd5b6020026020010151612832565b6117c85760405162461bcd60e51b815260206004820152603060248201527f43434275726e526f757465723a20696e707574207472616e73616374696f6e2060448201526f1a5cc81b9bdd08199a5b985b1a5e995960821b6064820152608401610682565b6000818152600d602052604090205460ff16156118455760405162461bcd60e51b815260206004820152603560248201527f43434275726e526f757465723a207472616e73616374696f6e2068617320626560448201527432b7103ab9b2b21030b990313ab93710383937b7b360591b6064820152608401610682565b6000818152600d60205260408120805460ff1916600117905583518190611893908c908790849061188657634e487b7160e01b600052603260045260246000fd5b60200260200101516129a4565b915091506118e68c6001815181106118bb57634e487b7160e01b600052603260045260246000fd5b60200260200101518a8a8a6001815181106116f857634e487b7160e01b600052603260045260246000fd5b82146119535760405162461bcd60e51b815260206004820152603660248201527f43434275726e526f757465723a206f7574706f696e7420747820646f65736e276044820152750e840dac2e8c6d040eed2e8d040deeae8e0eae840e8f60531b6064820152608401610682565b8c5160208e01206119648983612a53565b80519060200120146119d15760405162461bcd60e51b815260206004820152603060248201527f43434275726e526f757465723a206f757470757420747820646f65736e27742060448201526f3132b637b733903a37903637b1b5b2b960811b6064820152608401610682565b846002815181106119f257634e487b7160e01b600052603260045260246000fd5b6020026020010151600754611a079190615950565b600360009054906101000a90046001600160a01b03166001600160a01b0316632f796d906040518163ffffffff1660e01b815260040160206040518083038186803b158015611a5557600080fd5b505afa158015611a69573d6000803e3d6000fd5b505050506040513d601f19601f82011682018060405250810190611a8d9190615163565b11611aaa5760405162461bcd60e51b81526004016106829061579c565b611ade8a8e8588600281518110611ad157634e487b7160e01b600052603260045260246000fd5b6020026020010151612ac7565b505060018080559b9a5050505050505050505050565b6000546001600160a01b03163314611b1e5760405162461bcd60e51b81526004016106829061582e565b610c4781612c92565b6000546001600160a01b03163314611b515760405162461bcd60e51b81526004016106829061582e565b610c4781612d23565b600060026001541415611b7f5760405162461bcd60e51b815260040161068290615863565b6002600181905554871015611bd65760405162461bcd60e51b815260206004820181905260248201527f43434275726e526f757465723a207265717565737420697320746f6f206f6c646044820152606401610682565b6001600160e01b0319881615611c2e5760405162461bcd60e51b815260206004820181905260248201527f43434275726e526f757465723a206e6f6e2d7a65726f206c6f636b2074696d656044820152606401610682565b6004805460405163aff2faa360e01b81526001600160a01b039091169163aff2faa391611c5d91889101615677565b60206040518083038186803b158015611c7557600080fd5b505afa158015611c89573d6000803e3d6000fd5b505050506040513d601f19601f82011682018060405250810190611cad919061512b565b611cc95760405162461bcd60e51b81526004016106829061574c565b6004805460405163626885b560e11b81526000926001600160a01b039092169163c4d10b6a91611cfb91899101615677565b60206040518083038186803b158015611d1357600080fd5b505afa158015611d27573d6000803e3d6000fd5b505050506040513d601f19601f82011682018060405250810190611d4b91906150e4565b90508251845114611d9e5760405162461bcd60e51b815260206004820152601b60248201527f43434275726e526f757465723a2077726f6e6720696e646578657300000000006044820152606401610682565b6000611dac8d8d8d8d61273c565b9050611dba818a8a8a612832565b611e1e5760405162461bcd60e51b815260206004820152602f60248201527f43434275726e526f757465723a207472616e73616374696f6e20686173206e6f60448201526e1d08199a5b985b1a5e9959081e595d608a1b6064820152608401610682565b6000611e2e828b858f8a8a612dc4565b9050611e3c818d89856132f3565b505060018080559c9b505050505050505050505050565b6000546001600160a01b03163314611e7d5760405162461bcd60e51b81526004016106829061582e565b610c478161337c565b6000546001600160a01b03163314611eb05760405162461bcd60e51b81526004016106829061582e565b6001600160a01b038116611f155760405162461bcd60e51b815260206004820152602660248201527f4f776e61626c653a206e6577206f776e657220697320746865207a65726f206160448201526564647265737360d01b6064820152608401610682565b610c478161340d565b600b6020528160005260406000208181548110611f3a57600080fd5b600091825260209091206007909102018054600182015460028301546003840180549396509194506001600160a01b03169291611f7690615aac565b80601f0160208091040260200160405190810160405280929190818152602001828054611fa290615aac565b8015611fef5780601f10611fc457610100808354040283529160200191611fef565b820191906000526020600020905b815481529060010190602001808311611fd257829003601f168201915b505050600484015460058501546006909501549394909360ff8083169450610100909204909116915088565b60035460408051630a072bc560e41b815290516000926001600160a01b03169163a072bc50916004808301926020929190829003018186803b15801561206057600080fd5b505afa158015612074573d6000803e3d6000fd5b505050506040513d601f19601f820116820180604052508101906120989190615163565b90508082116120fc5760405162461bcd60e51b815260206004820152602a60248201527f43434275726e526f757465723a207472616e7366657220646561646c696e6520604482015269697320746f6f206c6f7760b01b6064820152608401610682565b60075460408051918252602082018490527f92c10a242ca42973030420e2ee32b3ba7818cc643f896958f620c606cf300416910160405180910390a150600755565b600081600481111561216057634e487b7160e01b600052602160045260246000fd5b148061218b5750600481600481111561218957634e487b7160e01b600052602160045260246000fd5b145b156121b65781516020146121b15760405162461bcd60e51b8152600401610682906157ed565b6106ae565b81516014146106ae5760405162461bcd60e51b8152600401610682906157ed565b600080612710600854846121eb91906159fa565b6121f591906159da565b9050600a54816122059190615950565b83116122535760405162461bcd60e51b815260206004820152601f60248201527f43434275726e526f757465723a20616d6f756e7420697320746f6f206c6f77006044820152606401610682565b600061225f8285615a42565b60055460065460405163a9059cbb60e01b81526001600160a01b03918216600482015260248101869052929350169063a9059cbb90604401602060405180830381600087803b1580156122b157600080fd5b505af11580156122c5573d6000803e3d6000fd5b505050506040513d601f19601f820116820180604052508101906122e9919061512b565b509150505b919050565b604080516101008101825260006080820181905260a0820181905260c0820181815260e0830191909152888252602082018890523392820192909252606081018690529084600481111561235757634e487b7160e01b600052602160045260246000fd5b9081600481111561237857634e487b7160e01b600052602160045260246000fd5b9052506007546123889084615950565b6080820152600060a082018190526001600160a01b038316808252600c6020818152604084205460e08601819052929093529091526123c8906001615950565b6001600160a01b038381166000908152600c6020908152604080832094909455600b81528382208054600180820183559184529282902086516007909402019283558582015190830155928401516002820180546001600160a01b0319169190931617909155606083015180518493612448926003850192910190614ea3565b50608082015160048281019190915560a083015160058301805460ff19169115159190911780825560c08501519261ff0019909116906101009084908111156124a157634e487b7160e01b600052602160045260246000fd5b021790555060e08201518160060155505050505050505050565b8061271010156125335760405162461bcd60e51b815260206004820152603760248201527f43434275726e526f757465723a20736c61736865722070657263656e7461676560448201527f20726577617264206973206f7574206f662072616e67650000000000000000006064820152608401610682565b60095460408051918252602082018390527faa50b3683e42a13535a5b9c2c32780cccf956fb546b523a3542ac4ad8b544f67910160405180910390a1600955565b8061271010156125d95760405162461bcd60e51b815260206004820152602a60248201527f43434275726e526f757465723a2070726f746f636f6c20666565206973206f7560448201526974206f662072616e676560b01b6064820152608401610682565b60085460408051918252602082018390527f7d205f60891f60851c61cd244ba387d72b6589e7c0ac41b9d909ab0ce2c2a53b910160405180910390a1600855565b806001600160a01b0381166126415760405162461bcd60e51b815260040161068290615715565b600554604080516001600160a01b03928316815291841660208301527f36a4c08a38b736dcecb6c328dba61238529620e83ccb23db2cc43cd34ec26096910160405180910390a150600580546001600160a01b0319166001600160a01b0392909216919091179055565b806001600160a01b0381166126d25760405162461bcd60e51b815260040161068290615715565b600454604080516001600160a01b03928316815291841660208301527ffa021c2ec0f46429a53e7f88b88065e40001f50c9d38b2e8b713beaf9828d4c3910160405180910390a150600480546001600160a01b0319166001600160a01b0392909216919091179055565b600080600286868686604051602001612758949392919061555f565b60408051601f1981840301815290829052612772916155b2565b602060405180830381855afa15801561278f573d6000803e3d6000fd5b5050506040513d601f19601f820116820180604052508101906127b29190615163565b905060006002826040516020016127cb91815260200190565b60408051601f19818403018152908290526127e5916155b2565b602060405180830381855afa158015612802573d6000803e3d6000fd5b5050506040513d601f19601f820116820180604052508101906128259190615163565b925050505b949350505050565b60035460405163d0a8973960e01b8152600481018590526000602482018190529182916001600160a01b039091169063d0a897399060440160206040518083038186803b15801561288257600080fd5b505afa158015612896573d6000803e3d6000fd5b505050506040513d601f19601f820116820180604052508101906128ba9190615163565b90508034101561291e5760405162461bcd60e51b815260206004820152602960248201527f43434275726e526f757465723a2072656c617920666565206973206e6f7420736044820152681d59999a58da595b9d60ba1b6064820152608401610682565b60035460405160009161297b916001600160a01b039091169061294b908a908a908a908a9060240161560f565b60408051601f198184030181529190526020810180516001600160e01b0316634354da2560e01b1790528461345d565b90506129903361298b8434615a42565b61348d565b80806020019051810190612825919061512b565b600080806129ba6129b586836135ab565b6135cf565b905062ffffff198082161415612a125760405162461bcd60e51b815260206004820152601a60248201527f426974636f696e48656c7065723a2076696e206973206e756c6c0000000000006044820152606401610682565b6000612a1e8286613705565b90506000612a2b82613823565b9050612a3681613847565b9450612a4181613869565b63ffffffff1693505050509250929050565b60606000612a6b612a66825b86906135ab565b613893565b905062ffffff198082161415612a935760405162461bcd60e51b8152600401610682906156de565b6000612a9f8285613984565b90506000612aac82613a7e565b9050612abd62ffffff198216613acf565b9695505050505050565b6000612ad285613b1f565b6004805460405163626885b560e11b81526001600160401b039390931693506000926001600160a01b039091169163c4d10b6a91612b1291899101615677565b60206040518083038186803b158015612b2a57600080fd5b505afa158015612b3e573d6000803e3d6000fd5b505050506040513d601f19601f82011682018060405250810190612b6291906150e4565b6004546009549192506001600160a01b03169063b734de2690839061271090612b8b90876159fa565b612b9591906159da565b3360405160e085901b6001600160e01b03191681526001600160a01b0393841660048201526024810192909252909116604482015260648101859052608401602060405180830381600087803b158015612bee57600080fd5b505af1158015612c02573d6000803e3d6000fd5b505050506040513d601f19601f82011682018060405250810190612c26919061512b565b507f7ff138134e34ccab071315c38e38eec079f54726b890304ab46e2c5ab6f722bb8186858761271060095488612c5d91906159fa565b612c6791906159da565b612c719088615950565b604051612c829594939291906155ce565b60405180910390a1505050505050565b806001600160a01b038116612cb95760405162461bcd60e51b815260040161068290615715565b600354604080516001600160a01b03928316815291841660208301527f4c28a3f61a715259c4dc930c23e7423b8fa52e13232c061a6e488729c66184f4910160405180910390a150600380546001600160a01b0319166001600160a01b0392909216919091179055565b600a5460408051918252602082018390527f47c5f9c13c35ebb166f6a8d8c56af73f8b323ac0fee7aec4a5e0490bbf67a4fe910160405180910390a1806127101015612dbf5760405162461bcd60e51b815260206004820152602560248201527f43434275726e526f757465723a2062746320666565206973206f7574206f662060448201526472616e676560d81b6064820152608401610682565b600a55565b60008080805b85518110156132e65780612e0757848181518110612df857634e487b7160e01b600052603260045260246000fd5b60200260200101519150612eb4565b81858281518110612e2857634e487b7160e01b600052603260045260246000fd5b602002602001015111612e895760405162461bcd60e51b8152602060048201526024808201527f43434275726e526f757465723a20756e2d736f7274656420766f757420696e646044820152636578657360e01b6064820152608401610682565b848181518110612ea957634e487b7160e01b600052603260045260246000fd5b602002602001015191505b6000868281518110612ed657634e487b7160e01b600052603260045260246000fd5b60200260200101519050600b60008a6001600160a01b03166001600160a01b031681526020019081526020016000208181548110612f2457634e487b7160e01b600052603260045260246000fd5b600091825260209091206005600790920201015460ff16158015612f9357506001600160a01b0389166000908152600b6020526040902080548b919083908110612f7e57634e487b7160e01b600052603260045260246000fd5b90600052602060002090600702016004015410155b156132d35761313e88878481518110612fbc57634e487b7160e01b600052603260045260246000fd5b6020026020010151600b60008d6001600160a01b03166001600160a01b03168152602001908152602001600020848154811061300857634e487b7160e01b600052603260045260246000fd5b9060005260206000209060070201600301805461302490615aac565b80601f016020809104026020016040519081016040528092919081815260200182805461305090615aac565b801561309d5780601f106130725761010080835404028352916020019161309d565b820191906000526020600020905b81548152906001019060200180831161308057829003601f168201915b5050506001600160a01b038f166000908152600b60205260409020805490925087915081106130dc57634e487b7160e01b600052603260045260246000fd5b906000526020600020906007020160050160019054906101000a900460ff16600481111561311a57634e487b7160e01b600052602160045260246000fd5b600481111561313957634e487b7160e01b600052602160045260246000fd5b613bb9565b6001600160401b0316935083600b60008b6001600160a01b03166001600160a01b03168152602001908152602001600020828154811061318e57634e487b7160e01b600052603260045260246000fd5b90600052602060002090600702016001015414156132d3576001600160a01b0389166000908152600b60205260409020805460019190839081106131e257634e487b7160e01b600052603260045260246000fd5b60009182526020909120600790910201600501805460ff191691151591909117905561320f856001615950565b6001600160a01b038a166000818152600b60205260409020805492975090917f1b46655c2f394f2191cb246d5982dbe00ad671f0b590e75e97c90ee97f1f782a91908490811061326f57634e487b7160e01b600052603260045260246000fd5b9060005260206000209060070201600601548d8986815181106132a257634e487b7160e01b600052603260045260246000fd5b60200260200101516040516132ca939291909283526020830191909152604082015260600190565b60405180910390a25b50806132de81615ae1565b915050612dca565b5050509695505050505050565b60006132ff8484613df4565b6001600160401b03169050600061331585613ef7565b9050811580159061332f57508061332d876001615950565b145b15613352576000838152600d60205260409020805460ff19166001179055613374565b80861415613374576000838152600d60205260409020805460ff191660011790555b505050505050565b806001600160a01b0381166133a35760405162461bcd60e51b815260040161068290615715565b600654604080516001600160a01b03928316815291841660208301527f567657fa3f286518b318f4a29870674f433f622fdfc819691acb13105b228225910160405180910390a150600680546001600160a01b0319166001600160a01b0392909216919091179055565b600080546001600160a01b038381166001600160a01b0319831681178455604051919092169283917f8be0079c531659141344cd1fd0a4f28419497f9722a3daafe3b4186f6b6457e09190a35050565b6060613483848484604051806060016040528060298152602001615b3e60299139613f23565b90505b9392505050565b804710156134dd5760405162461bcd60e51b815260206004820152601d60248201527f416464726573733a20696e73756666696369656e742062616c616e63650000006044820152606401610682565b6000826001600160a01b03168260405160006040518083038185875af1925050503d806000811461352a576040519150601f19603f3d011682016040523d82523d6000602084013e61352f565b606091505b50509050806135a65760405162461bcd60e51b815260206004820152603a60248201527f416464726573733a20756e61626c6520746f2073656e642076616c75652c207260448201527f6563697069656e74206d617920686176652072657665727465640000000000006064820152608401610682565b505050565b8151600090602084016135c664ffffffffff85168284614040565b95945050505050565b600081816135e5815b62ffffff19841690614084565b50601884901c6001600160601b03166136055762ffffff195b92506136fe565b600061361285600061415e565b9050601885901c6001600160601b03166001600160401b03821661363f5762ffffff195b945050506136fe565b600061364a836142a5565b60ff16905060005b836001600160401b03168110156136c65782821061367b5762ffffff195b9650505050506136fe565b600061369b61368a8486615a42565b60055b62ffffff198c1691906142fe565b90506136a681614332565b6136b09084615950565b92505080806136be90615ae1565b915050613652565b508181146136de5762ffffff195b95505050506136fe565b6136f860065b60d81b6301000000600160d81b0389161790565b95505050505b5050919050565b6000826006613713816135d8565b50600061372186600061415e565b6001600160401b03169050601886901c6001600160601b031681861061377c5760405162461bcd60e51b815260206004820152601060248201526f2b34b7103932b0b21037bb32b9393ab760811b6044820152606401610682565b6000613787836142a5565b60ff1690506000805b888110156137df576137b66137a58486615a42565b60055b62ffffff198d1691906142fe565b91506137c182614332565b6137cb9084615950565b92506137d8600182615950565b9050613790565b506137ed61368a8385615a42565b905060006137fa82614332565b9050613813838260045b62ffffff198e16929190614386565b975050505050505b505092915050565b6000816004613831816135d8565b5061282a62ffffff198516600060246003614386565b6000816003613855816135d8565b5061282a62ffffff198516600060206143f6565b6000816003613877816135d8565b5061282a61388e62ffffff1986166020600461454f565b614699565b600081816138a0816135d8565b50601884901c6001600160601b03166138bd5762ffffff196135fe565b60006138ca85600061415e565b9050601885901c6001600160601b03166001600160401b0382166138f25762ffffff19613636565b60006138fd836142a5565b60ff16905060005b836001600160401b0316811015613968578282106139275762ffffff19613670565b600061393d6139368486615a42565b600e61368d565b905061394881614702565b6139529084615950565b925050808061396090615ae1565b915050613905565b5081811461397a5762ffffff196136d4565b6136f8600f6136e4565b600082600f613992816135d8565b5060006139a086600061415e565b6001600160401b03169050601886901c6001600160601b03168186106139fc5760405162461bcd60e51b81526020600482015260116024820152702b37baba103932b0b21037bb32b9393ab760791b6044820152606401610682565b6000613a07836142a5565b60ff1690506000805b88811015613a5557613a2c613a258486615a42565b600e6137a8565b9150613a3782614702565b613a419084615950565b9250613a4e600182615950565b9050613a10565b50613a636139368385615a42565b90506000613a7082614702565b90506138138382600d613804565b600081600d613a8c816135d8565b506000613a9a85600861415e565b90506135c6613aa8826142a5565b613ab3906008615993565b62ffffff1987169060ff166001600160401b0384166007614386565b6060600080613ae78460181c6001600160601b031690565b60405193508392506001600160601b03169050613b0e84613b09846020615950565b61474b565b508181016020016040529052919050565b600080613b31612a66825b85906135ab565b905062ffffff198082161415613b595760405162461bcd60e51b8152600401610682906156de565b600080613b6783600061415e565b6001600160401b0316905060005b81811015613bb057613b878482613984565b9250613b92836148a3565b613b9c9086615968565b945080613ba881615ae1565b915050613b75565b50505050919050565b600080613bc9612a6687836135ab565b905062ffffff198082161415613bf15760405162461bcd60e51b8152600401610682906156de565b6000613bfd8287613984565b90506000613c0a82613a7e565b90506000856004811115613c2e57634e487b7160e01b600052602160045260246000fd5b1415613c9357613c4762ffffff198216600160206143f6565b604051602001613c5991815260200190565b60405160208183030381529060405280519060200120868051906020012014613c83576000613c8c565b613c8c826148a3565b9350613de9565b6001856004811115613cb557634e487b7160e01b600052602160045260246000fd5b1415613cf457613ccc62ffffff19821660036148c8565b604051602001613c59919060609190911b6bffffffffffffffffffffffff1916815260140190565b6002856004811115613d1657634e487b7160e01b600052602160045260246000fd5b1415613d2d57613ccc62ffffff19821660026148c8565b6003856004811115613d4f57634e487b7160e01b600052602160045260246000fd5b1415613d6657613ccc62ffffff19821660026148c8565b6004856004811115613d8857634e487b7160e01b600052602160045260246000fd5b1415613de957613da162ffffff198216600260206143f6565b604051602001613db391815260200190565b60405160208183030381529060405280519060200120868051906020012014613ddd576000613de6565b613de6826148a3565b93505b505050949350505050565b600080613e03612a6682612a5f565b905062ffffff198082161415613e2b5760405162461bcd60e51b8152600401610682906156de565b6000806000613e3b84600061415e565b6001600160401b0316905060005b81811015613eec57613e5b8582613984565b9350613e6684613a7e565b925086604051602001613e7991906155b2565b60405160208183030381529060405280519060200120613e9e8462ffffff1916613acf565b604051602001613eae91906155b2565b604051602081830303815290604052805190602001201415613eda57613ed3846148a3565b9550613eec565b80613ee481615ae1565b915050613e49565b505050505092915050565b600080613f06612a6682613b2a565b9050613f1381600061415e565b6001600160401b03169392505050565b606082471015613f845760405162461bcd60e51b815260206004820152602660248201527f416464726573733a20696e73756666696369656e742062616c616e636520666f6044820152651c8818d85b1b60d21b6064820152608401610682565b843b613fd25760405162461bcd60e51b815260206004820152601d60248201527f416464726573733a2063616c6c20746f206e6f6e2d636f6e74726163740000006044820152606401610682565b600080866001600160a01b03168587604051613fee91906155b2565b60006040518083038185875af1925050503d806000811461402b576040519150601f19603f3d011682016040523d82523d6000602084013e614030565b606091505b50915091506128258282866148d6565b60008061404d8385615950565b905060405181111561405d575060005b8061406f5762ffffff19915050613486565b5050606092831b9190911790911b1760181b90565b6000614090838361490f565b6141575760006140af6140a38560d81c90565b64ffffffffff16614932565b91505060006140c48464ffffffffff16614932565b6040517f5479706520617373657274696f6e206661696c65642e20476f7420307800000060208201526001600160b01b031960b086811b8216603d8401526c05c408af0e0cac6e8cac84060f609b1b604784015283901b16605482015290925060009150605e015b60405160208183030381529060405290508060405162461bcd60e51b81526004016106829190615677565b5090919050565b60008061417362ffffff1985168460016149de565b905060fc811161418e5761418681614a0e565b9150506114c4565b8060fd14156141f4576141bc6141b76141a8856001615950565b62ffffff19871690600261454f565b614a0e565b91506141c7826142a5565b60ff166003146141ef576141ed6141e862ffffff1986168560036000614386565b614a76565b505b61429e565b8060fe14156142495761421d6141b761420e856001615950565b62ffffff19871690600461454f565b9150614228826142a5565b60ff166005146141ef576141ed6141e862ffffff1986168560056000614386565b8060ff141561429e576142726141b7614263856001615950565b62ffffff19871690600861454f565b915061427d826142a5565b60ff1660091461429e5761381b6141e862ffffff1986168560096000614386565b5092915050565b600060fc826001600160401b0316116142c0575060016122ee565b61ffff826001600160401b0316116142da575060036122ee565b63ffffffff826001600160401b0316116142f6575060056122ee565b5060096122ee565b600061348384846143188760181c6001600160601b031690565b6001600160601b031661432b9190615a42565b8585614386565b6000816005614340816135d8565b50600061434e85602461415e565b9050806001600160401b0316614363826142a5565b60ff166143709190615950565b61437b906024615950565b6135c6906004615950565b60008061439c8660781c6001600160601b031690565b6001600160601b031690506143b086614afd565b846143bb8784615950565b6143c59190615950565b11156143d85762ffffff1991505061282a565b6143e28582615950565b9050612abd8364ffffffffff168286614040565b600060ff821661440857506000613486565b61441b8460181c6001600160601b031690565b6001600160601b031661443160ff841685615950565b11156144955761447c61444d8560781c6001600160601b031690565b6001600160601b03166144698660181c6001600160601b031690565b6001600160601b0316858560ff16614b3e565b60405162461bcd60e51b81526004016106829190615677565b60208260ff16111561450f5760405162461bcd60e51b815260206004820152603a60248201527f54797065644d656d566965772f696e646578202d20417474656d70746564207460448201527f6f20696e646578206d6f7265207468616e2033322062797465730000000000006064820152608401610682565b6008820260006145288660781c6001600160601b031690565b6001600160601b031690506000600160ff1b60001984011d91909501511695945050505050565b600061348361455f8585856143f6565b600881811c7eff00ff00ff00ff00ff00ff00ff00ff00ff00ff00ff00ff00ff00ff00ff00ff167fff00ff00ff00ff00ff00ff00ff00ff00ff00ff00ff00ff00ff00ff00ff00ff009290911b9190911617601081811c7dffff0000ffff0000ffff0000ffff0000ffff0000ffff0000ffff0000ffff167fffff0000ffff0000ffff0000ffff0000ffff0000ffff0000ffff0000ffff00009290911b9190911617602081811c7bffffffff00000000ffffffff00000000ffffffff00000000ffffffff167fffffffff00000000ffffffff00000000ffffffff00000000ffffffff000000009290911b9190911617604081811c77ffffffffffffffff0000000000000000ffffffffffffffff1677ffffffffffffffff0000000000000000ffffffffffffffff199290911b9190911617608081811c91901b1790565b600063ffffffff8211156146fe5760405162461bcd60e51b815260206004820152602660248201527f53616665436173743a2076616c756520646f65736e27742066697420696e203360448201526532206269747360d01b6064820152608401610682565b5090565b600081600e614710816135d8565b50600061471e85600861415e565b9050806001600160401b0316614733826142a5565b60ff166147409190615950565b6135c6906008615950565b600062ffffff1980841614156147b45760405162461bcd60e51b815260206004820152602860248201527f54797065644d656d566965772f636f7079546f202d204e756c6c20706f696e7460448201526732b9103232b932b360c11b6064820152608401610682565b6147bd83614c68565b61481d5760405162461bcd60e51b815260206004820152602b60248201527f54797065644d656d566965772f636f7079546f202d20496e76616c696420706f60448201526a34b73a32b9103232b932b360a91b6064820152608401610682565b60006148328460181c6001600160601b031690565b6001600160601b0316905060006148528560781c6001600160601b031690565b6001600160601b0316905060006040519050848111156148725760206060fd5b8285848460045afa50612abd6148888760d81c90565b64ffffffffff60601b606091821b168717901b841760181b90565b600081600d6148b1816135d8565b5061282a6141b762ffffff1986166000600861454f565b6000613486838360146149de565b606083156148e5575081613486565b8251156148f55782518084602001fd5b8160405162461bcd60e51b81526004016106829190615677565b60008164ffffffffff166149238460d81c90565b64ffffffffff16149392505050565b600080601f5b600f8160ff161115614990576000614951826008615a19565b60ff1685901c905061496281614ca6565b61ffff16841793508160ff1660101461497d57601084901b93505b50614989600182615a59565b9050614938565b50600f5b60ff8160ff1610156149d85760ff600882021684901c6149b381614ca6565b61ffff16831792508160ff166000146149ce57601083901b92505b5060001901614994565b50915091565b60006149eb826020615a59565b6149f6906008615a19565b60ff16614a048585856143f6565b901c949350505050565b60006001600160401b038211156146fe5760405162461bcd60e51b815260206004820152602660248201527f53616665436173743a2076616c756520646f65736e27742066697420696e203660448201526534206269747360d01b6064820152608401610682565b60606000614aaa614aa582614a97601887901c6001600160601b0316614cd6565b62ffffff19871691906149de565b614932565b6040517f4e6f6e2d6d696e696d616c2076617220696e742e20476f74203078000000000060208201526dffffffffffffffffffffffffffff19607083901b16603b82015290925060009150604d0161412c565b6000614b128260181c6001600160601b031690565b614b258360781c6001600160601b031690565b614b2f91906159b8565b6001600160601b031692915050565b60606000614b4b86614932565b9150506000614b5986614932565b9150506000614b6786614932565b9150506000614b7586614932565b604080517f54797065644d656d566965772f696e646578202d204f76657272616e20746865602082015274040ecd2caee5c40a6d8d2c6ca40d2e640c2e84060f605b1b818301526001600160d01b031960d098891b811660558301526e040eed2e8d040d8cadccee8d04060f608b1b605b830181905297891b8116606a8301527f2e20417474656d7074656420746f20696e646578206174206f666673657420306070830152600f60fb1b609083015295881b861660918201526097810196909652951b90921660a68401525050601760f91b60ac8201528151808203608d01815260ad90910190915295945050505050565b6000614c748260d81c90565b64ffffffffff1664ffffffffff1415614c8f575060006122ee565b6000614c9a83614afd565b60405110199392505050565b6000614cb860048360ff16901c614d37565b60ff161760081b62ffff0016614ccd82614d37565b60ff1617919050565b600060ff8211156146fe5760405162461bcd60e51b815260206004820152602560248201527f53616665436173743a2076616c756520646f65736e27742066697420696e2038604482015264206269747360d81b6064820152608401610682565b600060f08083179060ff82161415614d535760309150506122ee565b8060ff1660f11415614d695760319150506122ee565b8060ff1660f21415614d7f5760329150506122ee565b8060ff1660f31415614d955760339150506122ee565b8060ff1660f41415614dab5760349150506122ee565b8060ff1660f51415614dc15760359150506122ee565b8060ff1660f61415614dd75760369150506122ee565b8060ff1660f71415614ded5760379150506122ee565b8060ff1660f81415614e035760389150506122ee565b8060ff1660f91415614e195760399150506122ee565b8060ff1660fa1415614e2f5760619150506122ee565b8060ff1660fb1415614e455760629150506122ee565b8060ff1660fc1415614e5b5760639150506122ee565b8060ff1660fd1415614e715760649150506122ee565b8060ff1660fe1415614e875760659150506122ee565b8060ff1660ff1415614e9d5760669150506122ee565b50919050565b828054614eaf90615aac565b90600052602060002090601f016020900481019282614ed15760008555614f17565b82601f10614eea57805160ff1916838001178555614f17565b82800160010185558215614f17579182015b82811115614f17578251825591602001919060010190614efc565b506146fe9291505b808211156146fe5760008155600101614f1f565b600082601f830112614f43578081fd5b81356020614f58614f538361592d565b6158fd565b8281528181019085830183850287018401881015614f74578586fd5b855b85811015614f9957614f8782615000565b84529284019290840190600101614f76565b5090979650505050505050565b600082601f830112614fb6578081fd5b81356020614fc6614f538361592d565b8281528181019085830183850287018401881015614fe2578586fd5b855b85811015614f9957813584529284019290840190600101614fe4565b80356001600160e01b0319811681146122ee57600080fd5b60008083601f840112615029578182fd5b5081356001600160401b0381111561503f578182fd5b60208301915083602082850101111561505757600080fd5b9250929050565b600082601f83011261506e578081fd5b81356001600160401b0381111561508757615087615b12565b61509a601f8201601f19166020016158fd565b8181528460208386010111156150ae578283fd5b816020850160208301379081016020019190915292915050565b6000602082840312156150d9578081fd5b813561348681615b28565b6000602082840312156150f5578081fd5b815161348681615b28565b60008060408385031215615112578081fd5b823561511d81615b28565b946020939093013593505050565b60006020828403121561513c578081fd5b81518015158114613486578182fd5b60006020828403121561515c578081fd5b5035919050565b600060208284031215615174578081fd5b5051919050565b6000806000806000806000806000806101408b8d03121561519a578586fd5b6151a38b615000565b995060208b01356001600160401b03808211156151be578788fd5b6151ca8e838f0161505e565b9a5060408d01359150808211156151df578788fd5b6151eb8e838f0161505e565b99506151f960608e01615000565b985060808d0135975060a08d0135915080821115615215578687fd5b6152218e838f0161505e565b965060c08d0135955060e08d013591508082111561523d578485fd5b6152498e838f0161505e565b94506101008d013591508082111561525f578384fd5b61526b8e838f01614fa6565b93506101208d0135915080821115615281578283fd5b5061528e8d828e01614fa6565b9150509295989b9194979a5092959850565b6000806000604084860312156152b4578283fd5b83356001600160401b03808211156152ca578485fd5b6152d687838801615018565b909550935060208601359150808211156152ee578283fd5b506152fb86828701614fa6565b9150509250925092565b60008060008060008060008060006101208a8c031215615323578283fd5b89356001600160401b0380821115615339578485fd5b6153458d838e0161505e565b9a5060208c013591508082111561535a578485fd5b6153668d838e01614f33565b995060408c013591508082111561537b578485fd5b6153878d838e0161505e565b985060608c013591508082111561539c578485fd5b6153a88d838e0161505e565b975060808c01359150808211156153bd578485fd5b6153c98d838e0161505e565b965060a08c01359150808211156153de578485fd5b6153ea8d838e0161505e565b955060c08c01359150808211156153ff578485fd5b61540b8d838e01614f33565b945060e08c0135915080821115615420578384fd5b61542c8d838e0161505e565b93506101008c0135915080821115615442578283fd5b5061544f8c828d01614fa6565b9150509295985092959850929598565b600080600080600060808688031215615476578283fd5b8535945060208601356001600160401b0380821115615493578485fd5b61549f89838a0161505e565b955060408801359150600582106154b4578485fd5b909350606087013590808211156154c9578283fd5b506154d688828901615018565b969995985093965092949392505050565b60008284528282602086013780602084860101526020601f19601f85011685010190509392505050565b60008151808452615529816020860160208601615a7c565b601f01601f19169290920160200192915050565b6005811061555b57634e487b7160e01b600052602160045260246000fd5b9052565b600063ffffffff60e01b80871683528551615581816004860160208a01615a7c565b855190840190615598816004840160208a01615a7c565b919094169301600481019390935250506008019392505050565b600082516155c4818460208701615a7c565b9190910192915050565b6001600160a01b038616815260a0602082018190526000906155f290830187615511565b604083019590955250606081019290925260809091015292915050565b60008582528460208301526080604083015261562e6080830185615511565b905082606083015295945050505050565b6000602082526134836020830184866154e7565b6000604082526156676040830185876154e7565b9050826020830152949350505050565b6000602082526134866020830184615511565b600060c0825261569d60c083018a615511565b6156aa602084018a61553d565b87604084015286606084015282810360808401526156c98186886154e7565b9150508260a083015298975050505050505050565b6020808252601b908201527f426974636f696e48656c7065723a20766f7574206973206e756c6c0000000000604082015260600190565b6020808252601d908201527f43434275726e526f757465723a2061646472657373206973207a65726f000000604082015260600190565b60208082526030908201527f43434275726e526f757465723a20676976656e206c6f636b696e67207363726960408201526f383a1034b9903737ba103637b1b5b2b960811b606082015260800190565b60208082526031908201527f43434275726e526f757465723a207061796261636b20646561646c696e652068604082015270185cc81b9bdd081c185cdcd959081e595d607a1b606082015260800190565b60208082526021908201527f43434275726e526f757465723a20696e76616c696420757365722073637269706040820152601d60fa1b606082015260800190565b6020808252818101527f4f776e61626c653a2063616c6c6572206973206e6f7420746865206f776e6572604082015260600190565b6020808252601f908201527f5265656e7472616e637947756172643a207265656e7472616e742063616c6c00604082015260600190565b888152602081018890526001600160a01b0387166040820152610100606082018190526000906158cc83820189615511565b91505085608083015284151560a08301526158ea60c083018561553d565b8260e08301529998505050505050505050565b604051601f8201601f191681016001600160401b038111828210171561592557615925615b12565b604052919050565b60006001600160401b0382111561594657615946615b12565b5060209081020190565b6000821982111561596357615963615afc565b500190565b60006001600160401b0380831681851680830382111561598a5761598a615afc565b01949350505050565b600060ff821660ff84168060ff038211156159b0576159b0615afc565b019392505050565b60006001600160601b0380831681851680830382111561598a5761598a615afc565b6000826159f557634e487b7160e01b81526012600452602481fd5b500490565b6000816000190483118215151615615a1457615a14615afc565b500290565b600060ff821660ff84168160ff0481118215151615615a3a57615a3a615afc565b029392505050565b600082821015615a5457615a54615afc565b500390565b600060ff821660ff841680821015615a7357615a73615afc565b90039392505050565b60005b83811015615a97578181015183820152602001615a7f565b83811115615aa6576000848401525b50505050565b600281046001821680615ac057607f821691505b60208210811415614e9d57634e487b7160e01b600052602260045260246000fd5b6000600019821415615af557615af5615afc565b5060010190565b634e487b7160e01b600052601160045260246000fd5b634e487b7160e01b600052604160045260246000fd5b6001600160a01b0381168114610c4757600080fdfe416464726573733a206c6f772d6c6576656c2063616c6c20776974682076616c7565206661696c6564a26469706673582212205a1d684694bfd104d3b1b890421fa44ba586ba47227bd656e5b0c60889bd639a64736f6c6343000802003343434275726e526f757465723a2061646472657373206973207a65726f000000",
  "devdoc": {
    "kind": "dev",
    "methods": {
      "burnProof(bytes4,bytes,bytes,bytes4,uint256,bytes,uint256,bytes,uint256[],uint256[])": {
        "details": "Makes isTransferred flag true for the paid requests",
        "params": {
          "_blockNumber": "Height of the block containing the burn transaction",
          "_burnReqIndexes": "Indexes of requests that locker wants to provide proof for them",
          "_index": "Index of transaction containing the burn transaction in the block",
          "_intermediateNodes": "Merkle inclusion proof for transaction containing the burn transaction",
          "_lockerLockingScript": "Locker's locking script (on Bitcoin) that this burn request belongs to",
          "_locktime": "Lock time of the transaction containing the burn transaction",
          "_version": "Version of the transaction containing the burn transaction",
          "_vin": "Inputs of the transaction containing the burn transaction",
          "_vout": "Outputs of the transaction containing the burn transaction",
          "_voutIndexes": "Indexes of outputs that were used to pay burn requests (_voutIndexes[i] belongs to _burnReqIndexes[i])"
        },
        "returns": {
          "_0": ""
        }
      },
      "ccBurn(uint256,bytes,uint8,bytes)": {
        "details": "After submitting the burn request, lockers have a limited time                                     to send BTC and provide burn proof",
        "params": {
          "_amount": "Amount of teleBTC that user wants to burn",
          "_lockerLockingScript": "Locking script of locker that should execute the burn request",
          "_userScript": "User's bitcoin script type"
        },
        "returns": {
          "_burntAmount": "               Amount of teleBTC that user will receive (after reducing fees)"
        }
      },
      "constructor": {
        "params": {
          "_bitcoinFee": "Fee of submitting a transaction on Bitcoin",
          "_lockers": "Address of lockers contract",
          "_protocolPercentageFee": "Percentage of tokens that user pays to protocol for burning",
          "_relay": "Address of relay contract",
          "_slasherPercentageReward": "Percentage of tokens that slasher receives after slashing a locker",
          "_startingBlockNumber": "Requests that are included in a block older than _startingBlockNumber cannot be executed",
          "_teleBTC": "Address of teleBTC contract",
          "_transferDeadline": "Dealine of sending BTC to user (aster submitting a burn request)",
          "_treasury": "Address of the treasury of the protocol"
        }
      },
      "disputeBurn(bytes,uint256[])": {
        "params": {
          "_indices": "Array of indices of the requests whose deadline has passed",
          "_lockerLockingScript": "locker's locking script that the unpaid request belongs to"
        },
        "returns": {
          "_0": "True if dispute is successful"
        }
      },
      "disputeLocker(bytes,bytes4[],bytes,bytes,bytes,bytes,bytes4[],bytes,uint256[])": {
        "details": "Input tx is a malicious tx which shows that locker spent BTC                                         Output tx is the tx that was spent by locker in input tx                                         Output tx --> money goes to locker --> Input tx --> locker steals the funds",
        "params": {
          "_indexesAndBlockNumbers": "Indices of malicious input in input tx, input tx in block and block number of input tx",
          "_inputIntermediateNodes": "Merkle inclusion proof for the malicious transaction",
          "_inputVin": "Inputs of the malicious transaction",
          "_inputVout": "Outputs of the malicious transaction",
          "_lockerLockingScript": "Suspicious locker's locking script",
          "_locktimes": "Locktimes of input and output tx",
          "_outputVin": "Inputs of the spent transaction",
          "_outputVout": "Outputs of the spent transaction",
          "_versions": "Versions of input and output tx"
        },
        "returns": {
          "_0": "True if dispute is successful"
        }
      },
      "isTransferred(address,uint256)": {
        "params": {
          "_index": "The index of the request for the locker",
          "_lockerTargetAddress": "Locker's address on the target chain"
        }
      },
      "owner()": {
        "details": "Returns the address of the current owner."
      },
      "renounceOwnership()": {
        "details": "Leaves the contract without owner. It will not be possible to call `onlyOwner` functions anymore. Can only be called by the current owner. NOTE: Renouncing ownership will leave the contract without an owner, thereby removing any functionality that is only available to the owner."
      },
      "setBitcoinFee(uint256)": {
        "details": "Only owner can call this",
        "params": {
          "_bitcoinFee": "The new Bitcoin transaction fee"
        }
      },
      "setLockers(address)": {
        "details": "Only owner can call this",
        "params": {
          "_lockers": "The new lockers contract address"
        }
      },
      "setProtocolPercentageFee(uint256)": {
        "details": "Only owner can call this",
        "params": {
          "_protocolPercentageFee": "The new protocol percentage fee"
        }
      },
      "setRelay(address)": {
        "details": "Only owner can call this",
        "params": {
          "_relay": "The new relay contract address"
        }
      },
      "setSlasherPercentageReward(uint256)": {
        "details": "Only owner can call this",
        "params": {
          "_slasherPercentageReward": "The new slasher percentage reward"
        }
      },
      "setTeleBTC(address)": {
        "details": "Only owner can call this",
        "params": {
          "_teleBTC": "The new teleBTC contract address"
        }
      },
      "setTransferDeadline(uint256)": {
        "details": "Only owner can call this                                     Deadline should be greater than relay finalization parameter",
        "params": {
          "_transferDeadline": "The new transfer deadline"
        }
      },
      "setTreasury(address)": {
        "details": "Only owner can call this",
        "params": {
          "_treasury": "The new treasury address"
        }
      },
      "transferOwnership(address)": {
        "details": "Transfers ownership of the contract to a new account (`newOwner`). Can only be called by the current owner."
      }
    },
    "version": 1
  },
  "userdoc": {
    "events": {
      "CCBurn(address,bytes,uint8,uint256,uint256,address,bytes,uint256,uint256)": {
        "notice": "Emits when a burn request gets submitted"
      },
      "LockerDispute(address,bytes,uint256,bytes32,uint256)": {
        "notice": "Emits when a locker gets slashed for withdrawing BTC without proper reason"
      },
      "NewBitcoinFee(uint256,uint256)": {
        "notice": "Emits when changes made to bitcoin fee"
      },
      "NewLockers(address,address)": {
        "notice": "Emits when changes made to lockers address"
      },
      "NewProtocolPercentageFee(uint256,uint256)": {
        "notice": "Emits when changes made to percentage fee"
      },
      "NewRelay(address,address)": {
        "notice": "Emits when changes made to relay address"
      },
      "NewSlasherPercentageFee(uint256,uint256)": {
        "notice": "Emits when changes made to slasher percentage fee"
      },
      "NewTeleBTC(address,address)": {
        "notice": "Emits when changes made to TeleBTC address"
      },
      "NewTransferDeadline(uint256,uint256)": {
        "notice": "Emits when changes made to transfer deadline"
      },
      "NewTreasury(address,address)": {
        "notice": "Emits when changes made to treasury address"
      },
      "PaidCCBurn(address,uint256,bytes32,uint256)": {
        "notice": "Emits when a burn proof is provided"
      }
    },
    "kind": "user",
    "methods": {
      "burnProof(bytes4,bytes,bytes,bytes4,uint256,bytes,uint256,bytes,uint256[],uint256[])": {
        "notice": "Checks the correctness of burn proof"
      },
      "ccBurn(uint256,bytes,uint8,bytes)": {
        "notice": "Burns teleBTC and records the burn request"
      },
      "constructor": {
        "notice": "Handles cross-chain burn requests"
      },
      "disputeBurn(bytes,uint256[])": {
        "notice": "Slashes a locker if she did not pay a cc burn request before its deadline"
      },
      "disputeLocker(bytes,bytes4[],bytes,bytes,bytes,bytes,bytes4[],bytes,uint256[])": {
        "notice": "Slashes a locker if they issue a tx that doesn't match any burn request"
      },
      "fixTransferDeadline()": {
        "notice": "Fixing payback deadline after changing finalization parameter"
      },
      "isTransferred(address,uint256)": {
        "notice": "Shows if a burn request has been done or not"
      },
      "setBitcoinFee(uint256)": {
        "notice": "Changes Bitcoin transaction fee"
      },
      "setLockers(address)": {
        "notice": "Changes lockers contract address"
      },
      "setProtocolPercentageFee(uint256)": {
        "notice": "Changes protocol percentage fee for burning tokens"
      },
      "setRelay(address)": {
        "notice": "Changes relay contract address"
      },
      "setSlasherPercentageReward(uint256)": {
        "notice": "Changes slasher percentage reward for disputing lockers"
      },
      "setTeleBTC(address)": {
        "notice": "Changes teleBTC contract address"
      },
      "setTransferDeadline(uint256)": {
        "notice": "Changes deadline of executing burn requests"
      },
      "setTreasury(address)": {
        "notice": "Changes protocol treasury address"
      }
    },
    "version": 1
  },
  "storageLayout": {
    "storage": [
      {
        "astId": 807,
        "contract": "contracts/routers/CCBurnRouter.sol:CCBurnRouter",
        "label": "_owner",
        "offset": 0,
        "slot": "0",
        "type": "t_address"
      },
      {
        "astId": 1634,
        "contract": "contracts/routers/CCBurnRouter.sol:CCBurnRouter",
        "label": "_status",
        "offset": 0,
        "slot": "1",
        "type": "t_uint256"
      },
      {
        "astId": 19878,
        "contract": "contracts/routers/CCBurnRouter.sol:CCBurnRouter",
        "label": "startingBlockNumber",
        "offset": 0,
        "slot": "2",
        "type": "t_uint256"
      },
      {
        "astId": 19881,
        "contract": "contracts/routers/CCBurnRouter.sol:CCBurnRouter",
        "label": "relay",
        "offset": 0,
        "slot": "3",
        "type": "t_address"
      },
      {
        "astId": 19884,
        "contract": "contracts/routers/CCBurnRouter.sol:CCBurnRouter",
        "label": "lockers",
        "offset": 0,
        "slot": "4",
        "type": "t_address"
      },
      {
        "astId": 19887,
        "contract": "contracts/routers/CCBurnRouter.sol:CCBurnRouter",
        "label": "teleBTC",
        "offset": 0,
        "slot": "5",
        "type": "t_address"
      },
      {
        "astId": 19890,
        "contract": "contracts/routers/CCBurnRouter.sol:CCBurnRouter",
        "label": "treasury",
        "offset": 0,
        "slot": "6",
        "type": "t_address"
      },
      {
        "astId": 19893,
        "contract": "contracts/routers/CCBurnRouter.sol:CCBurnRouter",
        "label": "transferDeadline",
        "offset": 0,
        "slot": "7",
        "type": "t_uint256"
      },
      {
        "astId": 19896,
        "contract": "contracts/routers/CCBurnRouter.sol:CCBurnRouter",
        "label": "protocolPercentageFee",
        "offset": 0,
        "slot": "8",
        "type": "t_uint256"
      },
      {
        "astId": 19899,
        "contract": "contracts/routers/CCBurnRouter.sol:CCBurnRouter",
        "label": "slasherPercentageReward",
        "offset": 0,
        "slot": "9",
        "type": "t_uint256"
      },
      {
        "astId": 19902,
        "contract": "contracts/routers/CCBurnRouter.sol:CCBurnRouter",
        "label": "bitcoinFee",
        "offset": 0,
        "slot": "10",
        "type": "t_uint256"
      },
      {
        "astId": 19908,
        "contract": "contracts/routers/CCBurnRouter.sol:CCBurnRouter",
        "label": "burnRequests",
        "offset": 0,
        "slot": "11",
        "type": "t_mapping(t_address,t_array(t_struct(burnRequest)25355_storage)dyn_storage)"
      },
      {
        "astId": 19912,
        "contract": "contracts/routers/CCBurnRouter.sol:CCBurnRouter",
        "label": "burnRequestCounter",
        "offset": 0,
        "slot": "12",
        "type": "t_mapping(t_address,t_uint256)"
      },
      {
        "astId": 19917,
        "contract": "contracts/routers/CCBurnRouter.sol:CCBurnRouter",
        "label": "isUsedAsBurnProof",
        "offset": 0,
        "slot": "13",
        "type": "t_mapping(t_bytes32,t_bool)"
      }
    ],
    "types": {
      "t_address": {
        "encoding": "inplace",
        "label": "address",
        "numberOfBytes": "20"
      },
      "t_array(t_struct(burnRequest)25355_storage)dyn_storage": {
        "base": "t_struct(burnRequest)25355_storage",
        "encoding": "dynamic_array",
        "label": "struct ICCBurnRouter.burnRequest[]",
        "numberOfBytes": "32"
      },
      "t_bool": {
        "encoding": "inplace",
        "label": "bool",
        "numberOfBytes": "1"
      },
      "t_bytes32": {
        "encoding": "inplace",
        "label": "bytes32",
        "numberOfBytes": "32"
      },
      "t_bytes_storage": {
        "encoding": "bytes",
        "label": "bytes",
        "numberOfBytes": "32"
      },
      "t_enum(ScriptTypes)26498": {
        "encoding": "inplace",
        "label": "enum ScriptTypes",
        "numberOfBytes": "1"
      },
      "t_mapping(t_address,t_array(t_struct(burnRequest)25355_storage)dyn_storage)": {
        "encoding": "mapping",
        "key": "t_address",
        "label": "mapping(address => struct ICCBurnRouter.burnRequest[])",
        "numberOfBytes": "32",
        "value": "t_array(t_struct(burnRequest)25355_storage)dyn_storage"
      },
      "t_mapping(t_address,t_uint256)": {
        "encoding": "mapping",
        "key": "t_address",
        "label": "mapping(address => uint256)",
        "numberOfBytes": "32",
        "value": "t_uint256"
      },
      "t_mapping(t_bytes32,t_bool)": {
        "encoding": "mapping",
        "key": "t_bytes32",
        "label": "mapping(bytes32 => bool)",
        "numberOfBytes": "32",
        "value": "t_bool"
      },
      "t_struct(burnRequest)25355_storage": {
        "encoding": "inplace",
        "label": "struct ICCBurnRouter.burnRequest",
        "members": [
          {
            "astId": 25339,
            "contract": "contracts/routers/CCBurnRouter.sol:CCBurnRouter",
            "label": "amount",
            "offset": 0,
            "slot": "0",
            "type": "t_uint256"
          },
          {
            "astId": 25341,
            "contract": "contracts/routers/CCBurnRouter.sol:CCBurnRouter",
            "label": "burntAmount",
            "offset": 0,
            "slot": "1",
            "type": "t_uint256"
          },
          {
            "astId": 25343,
            "contract": "contracts/routers/CCBurnRouter.sol:CCBurnRouter",
            "label": "sender",
            "offset": 0,
            "slot": "2",
            "type": "t_address"
          },
          {
            "astId": 25345,
            "contract": "contracts/routers/CCBurnRouter.sol:CCBurnRouter",
            "label": "userScript",
            "offset": 0,
            "slot": "3",
            "type": "t_bytes_storage"
          },
          {
            "astId": 25347,
            "contract": "contracts/routers/CCBurnRouter.sol:CCBurnRouter",
            "label": "deadline",
            "offset": 0,
            "slot": "4",
            "type": "t_uint256"
          },
          {
            "astId": 25349,
            "contract": "contracts/routers/CCBurnRouter.sol:CCBurnRouter",
            "label": "isTransferred",
            "offset": 0,
            "slot": "5",
            "type": "t_bool"
          },
          {
            "astId": 25352,
            "contract": "contracts/routers/CCBurnRouter.sol:CCBurnRouter",
            "label": "scriptType",
            "offset": 1,
            "slot": "5",
            "type": "t_enum(ScriptTypes)26498"
          },
          {
            "astId": 25354,
            "contract": "contracts/routers/CCBurnRouter.sol:CCBurnRouter",
            "label": "requestIdOfLocker",
            "offset": 0,
            "slot": "6",
            "type": "t_uint256"
          }
        ],
        "numberOfBytes": "224"
      },
      "t_uint256": {
        "encoding": "inplace",
        "label": "uint256",
        "numberOfBytes": "32"
      }
    }
  }
}