{
  "address": "0x77eBDB133Ae596fC29e0e96b371F4824190d4f77",
  "abi": [
    {
      "inputs": [
        {
          "internalType": "address",
          "name": "_relay",
          "type": "address"
        },
        {
          "internalType": "address",
          "name": "_lockers",
          "type": "address"
        },
        {
          "internalType": "address",
          "name": "_treasury",
          "type": "address"
        },
        {
          "internalType": "address",
          "name": "_teleBTC",
          "type": "address"
        },
        {
          "internalType": "uint256",
          "name": "_transferDeadline",
          "type": "uint256"
        },
        {
          "internalType": "uint256",
          "name": "_protocolPercentageFee",
          "type": "uint256"
        },
        {
          "internalType": "uint256",
          "name": "_slasherPercentageReward",
          "type": "uint256"
        },
        {
          "internalType": "uint256",
          "name": "_bitcoinFee",
          "type": "uint256"
        }
      ],
      "stateMutability": "nonpayable",
      "type": "constructor"
    },
    {
      "anonymous": false,
      "inputs": [
        {
          "indexed": true,
          "internalType": "address",
          "name": "userTargetAddress",
          "type": "address"
        },
        {
          "indexed": true,
          "internalType": "address",
          "name": "_lockerTargetAddress",
          "type": "address"
        },
        {
          "indexed": false,
          "internalType": "bytes",
          "name": "lockerLockingScript",
          "type": "bytes"
        },
        {
          "indexed": false,
          "internalType": "uint256",
          "name": "requestIdOfLocker",
          "type": "uint256"
        }
      ],
      "name": "BurnDispute",
      "type": "event"
    },
    {
      "anonymous": false,
      "inputs": [
        {
          "indexed": true,
          "internalType": "address",
          "name": "userTargetAddress",
          "type": "address"
        },
        {
          "indexed": false,
          "internalType": "bytes",
          "name": "userScript",
          "type": "bytes"
        },
        {
          "indexed": false,
          "internalType": "enum ScriptTypes",
          "name": "scriptType",
          "type": "uint8"
        },
        {
          "indexed": false,
          "internalType": "uint256",
          "name": "amount",
          "type": "uint256"
        },
        {
          "indexed": false,
          "internalType": "uint256",
          "name": "burntAmount",
          "type": "uint256"
        },
        {
          "indexed": true,
          "internalType": "address",
          "name": "lockerTargetAddress",
          "type": "address"
        },
        {
          "indexed": false,
          "internalType": "bytes",
          "name": "lockerLockingScript",
          "type": "bytes"
        },
        {
          "indexed": false,
          "internalType": "uint256",
          "name": "requestIdOfLocker",
          "type": "uint256"
        },
        {
          "indexed": true,
          "internalType": "uint256",
          "name": "deadline",
          "type": "uint256"
        }
      ],
      "name": "CCBurn",
      "type": "event"
    },
    {
      "anonymous": false,
      "inputs": [
        {
          "indexed": false,
          "internalType": "address",
          "name": "_lockerTargetAddress",
          "type": "address"
        },
        {
          "indexed": false,
          "internalType": "bytes",
          "name": "lockerLockingScript",
          "type": "bytes"
        },
        {
          "indexed": false,
          "internalType": "uint256",
          "name": "_blockNumber",
          "type": "uint256"
        },
        {
          "indexed": false,
          "internalType": "bytes32",
          "name": "txId",
          "type": "bytes32"
        },
        {
          "indexed": false,
          "internalType": "uint256",
          "name": "amount",
          "type": "uint256"
        }
      ],
      "name": "LockerDispute",
      "type": "event"
    },
    {
      "anonymous": false,
      "inputs": [
        {
          "indexed": false,
          "internalType": "uint256",
          "name": "oldBitcoinFee",
          "type": "uint256"
        },
        {
          "indexed": false,
          "internalType": "uint256",
          "name": "newBitcoinFee",
          "type": "uint256"
        }
      ],
      "name": "NewBitcoinFee",
      "type": "event"
    },
    {
      "anonymous": false,
      "inputs": [
        {
          "indexed": false,
          "internalType": "address",
          "name": "oldLockers",
          "type": "address"
        },
        {
          "indexed": false,
          "internalType": "address",
          "name": "newLockers",
          "type": "address"
        }
      ],
      "name": "NewLockers",
      "type": "event"
    },
    {
      "anonymous": false,
      "inputs": [
        {
          "indexed": false,
          "internalType": "uint256",
          "name": "oldProtocolPercentageFee",
          "type": "uint256"
        },
        {
          "indexed": false,
          "internalType": "uint256",
          "name": "newProtocolPercentageFee",
          "type": "uint256"
        }
      ],
      "name": "NewProtocolPercentageFee",
      "type": "event"
    },
    {
      "anonymous": false,
      "inputs": [
        {
          "indexed": false,
          "internalType": "address",
          "name": "oldRelay",
          "type": "address"
        },
        {
          "indexed": false,
          "internalType": "address",
          "name": "newRelay",
          "type": "address"
        }
      ],
      "name": "NewRelay",
      "type": "event"
    },
    {
      "anonymous": false,
      "inputs": [
        {
          "indexed": false,
          "internalType": "uint256",
          "name": "oldSlasherPercentageFee",
          "type": "uint256"
        },
        {
          "indexed": false,
          "internalType": "uint256",
          "name": "newSlasherPercentageFee",
          "type": "uint256"
        }
      ],
      "name": "NewSlasherPercentageFee",
      "type": "event"
    },
    {
      "anonymous": false,
      "inputs": [
        {
          "indexed": false,
          "internalType": "address",
          "name": "oldTeleBTC",
          "type": "address"
        },
        {
          "indexed": false,
          "internalType": "address",
          "name": "newTeleBTC",
          "type": "address"
        }
      ],
      "name": "NewTeleBTC",
      "type": "event"
    },
    {
      "anonymous": false,
      "inputs": [
        {
          "indexed": false,
          "internalType": "uint256",
          "name": "oldTransferDeadline",
          "type": "uint256"
        },
        {
          "indexed": false,
          "internalType": "uint256",
          "name": "newTransferDeadline",
          "type": "uint256"
        }
      ],
      "name": "NewTransferDeadline",
      "type": "event"
    },
    {
      "anonymous": false,
      "inputs": [
        {
          "indexed": false,
          "internalType": "address",
          "name": "oldTreasury",
          "type": "address"
        },
        {
          "indexed": false,
          "internalType": "address",
          "name": "newTreasury",
          "type": "address"
        }
      ],
      "name": "NewTreasury",
      "type": "event"
    },
    {
      "anonymous": false,
      "inputs": [
        {
          "indexed": true,
          "internalType": "address",
          "name": "previousOwner",
          "type": "address"
        },
        {
          "indexed": true,
          "internalType": "address",
          "name": "newOwner",
          "type": "address"
        }
      ],
      "name": "OwnershipTransferred",
      "type": "event"
    },
    {
      "anonymous": false,
      "inputs": [
        {
          "indexed": true,
          "internalType": "address",
          "name": "lockerTargetAddress",
          "type": "address"
        },
        {
          "indexed": false,
          "internalType": "uint256",
          "name": "requestIdOfLocker",
          "type": "uint256"
        },
        {
          "indexed": false,
          "internalType": "bytes32",
          "name": "bitcoinTxId",
          "type": "bytes32"
        },
        {
          "indexed": false,
          "internalType": "uint256",
          "name": "bitcoinTxOutputIndex",
          "type": "uint256"
        }
      ],
      "name": "PaidCCBurn",
      "type": "event"
    },
    {
      "inputs": [],
      "name": "bitcoinFee",
      "outputs": [
        {
          "internalType": "uint256",
          "name": "",
          "type": "uint256"
        }
      ],
      "stateMutability": "view",
      "type": "function"
    },
    {
      "inputs": [
        {
          "internalType": "bytes4",
          "name": "_version",
          "type": "bytes4"
        },
        {
          "internalType": "bytes",
          "name": "_vin",
          "type": "bytes"
        },
        {
          "internalType": "bytes",
          "name": "_vout",
          "type": "bytes"
        },
        {
          "internalType": "bytes4",
          "name": "_locktime",
          "type": "bytes4"
        },
        {
          "internalType": "uint256",
          "name": "_blockNumber",
          "type": "uint256"
        },
        {
          "internalType": "bytes",
          "name": "_intermediateNodes",
          "type": "bytes"
        },
        {
          "internalType": "uint256",
          "name": "_index",
          "type": "uint256"
        },
        {
          "internalType": "bytes",
          "name": "_lockerLockingScript",
          "type": "bytes"
        },
        {
          "internalType": "uint256[]",
          "name": "_burnReqIndexes",
          "type": "uint256[]"
        },
        {
          "internalType": "uint256[]",
          "name": "_voutIndexes",
          "type": "uint256[]"
        }
      ],
      "name": "burnProof",
      "outputs": [
        {
          "internalType": "bool",
          "name": "",
          "type": "bool"
        }
      ],
      "stateMutability": "payable",
      "type": "function"
    },
    {
      "inputs": [
        {
          "internalType": "address",
          "name": "",
          "type": "address"
        }
      ],
      "name": "burnRequestCounter",
      "outputs": [
        {
          "internalType": "uint256",
          "name": "",
          "type": "uint256"
        }
      ],
      "stateMutability": "view",
      "type": "function"
    },
    {
      "inputs": [
        {
          "internalType": "address",
          "name": "",
          "type": "address"
        },
        {
          "internalType": "uint256",
          "name": "",
          "type": "uint256"
        }
      ],
      "name": "burnRequests",
      "outputs": [
        {
          "internalType": "uint256",
          "name": "amount",
          "type": "uint256"
        },
        {
          "internalType": "uint256",
          "name": "burntAmount",
          "type": "uint256"
        },
        {
          "internalType": "address",
          "name": "sender",
          "type": "address"
        },
        {
          "internalType": "bytes",
          "name": "userScript",
          "type": "bytes"
        },
        {
          "internalType": "uint256",
          "name": "deadline",
          "type": "uint256"
        },
        {
          "internalType": "bool",
          "name": "isTransferred",
          "type": "bool"
        },
        {
          "internalType": "enum ScriptTypes",
          "name": "scriptType",
          "type": "uint8"
        },
        {
          "internalType": "uint256",
          "name": "requestIdOfLocker",
          "type": "uint256"
        }
      ],
      "stateMutability": "view",
      "type": "function"
    },
    {
      "inputs": [
        {
          "internalType": "uint256",
          "name": "_amount",
          "type": "uint256"
        },
        {
          "internalType": "bytes",
          "name": "_userScript",
          "type": "bytes"
        },
        {
          "internalType": "enum ScriptTypes",
          "name": "_scriptType",
          "type": "uint8"
        },
        {
          "internalType": "bytes",
          "name": "_lockerLockingScript",
          "type": "bytes"
        }
      ],
      "name": "ccBurn",
      "outputs": [
        {
          "internalType": "uint256",
          "name": "_burntAmount",
          "type": "uint256"
        }
      ],
      "stateMutability": "nonpayable",
      "type": "function"
    },
    {
      "inputs": [
        {
          "internalType": "bytes",
          "name": "_lockerLockingScript",
          "type": "bytes"
        },
        {
          "internalType": "uint256[]",
          "name": "_indices",
          "type": "uint256[]"
        }
      ],
      "name": "disputeBurn",
      "outputs": [
        {
          "internalType": "bool",
          "name": "",
          "type": "bool"
        }
      ],
      "stateMutability": "nonpayable",
      "type": "function"
    },
    {
      "inputs": [
        {
          "internalType": "bytes",
          "name": "_lockerLockingScript",
          "type": "bytes"
        },
        {
          "internalType": "bytes4[]",
          "name": "_versions",
          "type": "bytes4[]"
        },
        {
          "internalType": "bytes",
          "name": "_inputVin",
          "type": "bytes"
        },
        {
          "internalType": "bytes",
          "name": "_inputVout",
          "type": "bytes"
        },
        {
          "internalType": "bytes",
          "name": "_outputVin",
          "type": "bytes"
        },
        {
          "internalType": "bytes",
          "name": "_outputVout",
          "type": "bytes"
        },
        {
          "internalType": "bytes4[]",
          "name": "_locktimes",
          "type": "bytes4[]"
        },
        {
          "internalType": "bytes",
          "name": "_inputIntermediateNodes",
          "type": "bytes"
        },
        {
          "internalType": "uint256[]",
          "name": "_indexesAndBlockNumbers",
          "type": "uint256[]"
        }
      ],
      "name": "disputeLocker",
      "outputs": [
        {
          "internalType": "bool",
          "name": "",
          "type": "bool"
        }
      ],
      "stateMutability": "payable",
      "type": "function"
    },
    {
      "inputs": [
        {
          "internalType": "address",
          "name": "_lockerTargetAddress",
          "type": "address"
        },
        {
          "internalType": "uint256",
          "name": "_index",
          "type": "uint256"
        }
      ],
      "name": "isTransferred",
      "outputs": [
        {
          "internalType": "bool",
          "name": "",
          "type": "bool"
        }
      ],
      "stateMutability": "view",
      "type": "function"
    },
    {
      "inputs": [
        {
          "internalType": "bytes32",
          "name": "",
          "type": "bytes32"
        }
      ],
      "name": "isUsedAsBurnProof",
      "outputs": [
        {
          "internalType": "bool",
          "name": "",
          "type": "bool"
        }
      ],
      "stateMutability": "view",
      "type": "function"
    },
    {
      "inputs": [],
      "name": "lockers",
      "outputs": [
        {
          "internalType": "address",
          "name": "",
          "type": "address"
        }
      ],
      "stateMutability": "view",
      "type": "function"
    },
    {
      "inputs": [],
      "name": "owner",
      "outputs": [
        {
          "internalType": "address",
          "name": "",
          "type": "address"
        }
      ],
      "stateMutability": "view",
      "type": "function"
    },
    {
      "inputs": [],
      "name": "protocolPercentageFee",
      "outputs": [
        {
          "internalType": "uint256",
          "name": "",
          "type": "uint256"
        }
      ],
      "stateMutability": "view",
      "type": "function"
    },
    {
      "inputs": [],
      "name": "relay",
      "outputs": [
        {
          "internalType": "address",
          "name": "",
          "type": "address"
        }
      ],
      "stateMutability": "view",
      "type": "function"
    },
    {
      "inputs": [],
      "name": "renounceOwnership",
      "outputs": [],
      "stateMutability": "nonpayable",
      "type": "function"
    },
    {
      "inputs": [
        {
          "internalType": "uint256",
          "name": "_bitcoinFee",
          "type": "uint256"
        }
      ],
      "name": "setBitcoinFee",
      "outputs": [],
      "stateMutability": "nonpayable",
      "type": "function"
    },
    {
      "inputs": [
        {
          "internalType": "address",
          "name": "_lockers",
          "type": "address"
        }
      ],
      "name": "setLockers",
      "outputs": [],
      "stateMutability": "nonpayable",
      "type": "function"
    },
    {
      "inputs": [
        {
          "internalType": "uint256",
          "name": "_protocolPercentageFee",
          "type": "uint256"
        }
      ],
      "name": "setProtocolPercentageFee",
      "outputs": [],
      "stateMutability": "nonpayable",
      "type": "function"
    },
    {
      "inputs": [
        {
          "internalType": "address",
          "name": "_relay",
          "type": "address"
        }
      ],
      "name": "setRelay",
      "outputs": [],
      "stateMutability": "nonpayable",
      "type": "function"
    },
    {
      "inputs": [
        {
          "internalType": "uint256",
          "name": "_slasherPercentageReward",
          "type": "uint256"
        }
      ],
      "name": "setSlasherPercentageReward",
      "outputs": [],
      "stateMutability": "nonpayable",
      "type": "function"
    },
    {
      "inputs": [
        {
          "internalType": "address",
          "name": "_teleBTC",
          "type": "address"
        }
      ],
      "name": "setTeleBTC",
      "outputs": [],
      "stateMutability": "nonpayable",
      "type": "function"
    },
    {
      "inputs": [
        {
          "internalType": "uint256",
          "name": "_transferDeadline",
          "type": "uint256"
        }
      ],
      "name": "setTransferDeadline",
      "outputs": [],
      "stateMutability": "nonpayable",
      "type": "function"
    },
    {
      "inputs": [
        {
          "internalType": "address",
          "name": "_treasury",
          "type": "address"
        }
      ],
      "name": "setTreasury",
      "outputs": [],
      "stateMutability": "nonpayable",
      "type": "function"
    },
    {
      "inputs": [],
      "name": "slasherPercentageReward",
      "outputs": [
        {
          "internalType": "uint256",
          "name": "",
          "type": "uint256"
        }
      ],
      "stateMutability": "view",
      "type": "function"
    },
    {
      "inputs": [],
      "name": "teleBTC",
      "outputs": [
        {
          "internalType": "address",
          "name": "",
          "type": "address"
        }
      ],
      "stateMutability": "view",
      "type": "function"
    },
    {
      "inputs": [],
      "name": "transferDeadline",
      "outputs": [
        {
          "internalType": "uint256",
          "name": "",
          "type": "uint256"
        }
      ],
      "stateMutability": "view",
      "type": "function"
    },
    {
      "inputs": [
        {
          "internalType": "address",
          "name": "newOwner",
          "type": "address"
        }
      ],
      "name": "transferOwnership",
      "outputs": [],
      "stateMutability": "nonpayable",
      "type": "function"
    },
    {
      "inputs": [],
      "name": "treasury",
      "outputs": [
        {
          "internalType": "address",
          "name": "",
          "type": "address"
        }
      ],
      "stateMutability": "view",
      "type": "function"
    },
    {
      "stateMutability": "payable",
      "type": "receive"
    }
  ],
  "transactionHash": "0xbf29d8d4b37814a04f23de587b7f672328fd96eb98668a40af33111187ffaab7",
  "args": [
    "0x38Adf06C391a670e3681479Fe2Eb3BE891cDce5D",
    "0x9b2992c82b62927AaE5542690f804684CEB7F07B",
    "0x5364E3557572bd5D5903C0e9C21BE359F2Eac1dA",
    "0x80eBbFb887904d1970b20Fb477Fa03953EF9c9B5",
    10,
    50,
    50,
    50
  ],
  "numDeployments": 1,
  "solcInputHash": "75de7cb825f3b6d07e1f1f6c98977d78",
  "bytecode": "0x60806040523480156200001157600080fd5b50604051620060f8380380620060f8833981016040819052620000349162000711565b6200003f33620000a9565b600180556200004e88620000f9565b6200005987620001af565b620000648662000261565b6200006f8562000313565b6200007a84620003c5565b6200008583620004ee565b620000908262000596565b6200009b8162000651565b5050505050505050620007ad565b600080546001600160a01b038381166001600160a01b0319831681178455604051919092169283917f8be0079c531659141344cd1fd0a4f28419497f9722a3daafe3b4186f6b6457e09190a35050565b806001600160a01b038116620001455760405162461bcd60e51b815260206004820152601d6024820152600080516020620060d883398151915260448201526064015b60405180910390fd5b600254604080516001600160a01b03928316815291841660208301527f4c28a3f61a715259c4dc930c23e7423b8fa52e13232c061a6e488729c66184f4910160405180910390a150600280546001600160a01b0319166001600160a01b0392909216919091179055565b806001600160a01b038116620001f75760405162461bcd60e51b815260206004820152601d6024820152600080516020620060d883398151915260448201526064016200013c565b600354604080516001600160a01b03928316815291841660208301527ffa021c2ec0f46429a53e7f88b88065e40001f50c9d38b2e8b713beaf9828d4c3910160405180910390a150600380546001600160a01b0319166001600160a01b0392909216919091179055565b806001600160a01b038116620002a95760405162461bcd60e51b815260206004820152601d6024820152600080516020620060d883398151915260448201526064016200013c565b600554604080516001600160a01b03928316815291841660208301527f567657fa3f286518b318f4a29870674f433f622fdfc819691acb13105b228225910160405180910390a150600580546001600160a01b0319166001600160a01b0392909216919091179055565b806001600160a01b0381166200035b5760405162461bcd60e51b815260206004820152601d6024820152600080516020620060d883398151915260448201526064016200013c565b600454604080516001600160a01b03928316815291841660208301527f36a4c08a38b736dcecb6c328dba61238529620e83ccb23db2cc43cd34ec26096910160405180910390a150600480546001600160a01b0319166001600160a01b0392909216919091179055565b60025460408051630a072bc560e41b815290516000926001600160a01b03169163a072bc50916004808301926020929190829003018186803b1580156200040b57600080fd5b505afa15801562000420573d6000803e3d6000fd5b505050506040513d601f19601f8201168201806040525081019062000446919062000794565b9050808211620004ac5760405162461bcd60e51b815260206004820152602a60248201527f43434275726e526f757465723a207472616e7366657220646561646c696e6520604482015269697320746f6f206c6f7760b01b60648201526084016200013c565b60065460408051918252602082018490527f92c10a242ca42973030420e2ee32b3ba7818cc643f896958f620c606cf300416910160405180910390a150600655565b806127101015620005555760405162461bcd60e51b815260206004820152602a60248201527f43434275726e526f757465723a2070726f746f636f6c20666565206973206f7560448201526974206f662072616e676560b01b60648201526084016200013c565b60075460408051918252602082018390527f7d205f60891f60851c61cd244ba387d72b6589e7c0ac41b9d909ab0ce2c2a53b910160405180910390a1600755565b806127101015620006105760405162461bcd60e51b815260206004820152603760248201527f43434275726e526f757465723a20736c61736865722070657263656e7461676560448201527f20726577617264206973206f7574206f662072616e676500000000000000000060648201526084016200013c565b60085460408051918252602082018390527faa50b3683e42a13535a5b9c2c32780cccf956fb546b523a3542ac4ad8b544f67910160405180910390a1600855565b60095460408051918252602082018390527f47c5f9c13c35ebb166f6a8d8c56af73f8b323ac0fee7aec4a5e0490bbf67a4fe910160405180910390a1806127101015620006ef5760405162461bcd60e51b815260206004820152602560248201527f43434275726e526f757465723a2062746320666565206973206f7574206f662060448201526472616e676560d81b60648201526084016200013c565b600955565b80516001600160a01b03811681146200070c57600080fd5b919050565b600080600080600080600080610100898b0312156200072e578384fd5b6200073989620006f4565b97506200074960208a01620006f4565b96506200075960408a01620006f4565b95506200076960608a01620006f4565b94506080890151935060a0890151925060c0890151915060e089015190509295985092959890939650565b600060208284031215620007a6578081fd5b5051919050565b61591b80620007bd6000396000f3fe6080604052600436106101a05760003560e01c80638d3d78cd116100ec578063c780c03f1161008a578063ea73263711610064578063ea732637146104a4578063f0f44260146104b7578063f2fde38b146104d7578063f47e2240146104f7576101a7565b8063c780c03f14610451578063c805f68b14610464578063cdbe374114610484576101a7565b8063b14d3532116100c6578063b14d3532146103e5578063b59589d114610405578063b74d0d3514610425578063bed6a6021461043b576101a7565b80638d3d78cd1461037a5780638da5cb5b1461039a578063930a60e8146103b8576101a7565b80635c4f5f3e1161015957806373532b2a1161013357806373532b2a146102fa5780637ed557481461031a5780637f0f18171461033a5780637ffe9a921461035a576101a7565b80635c4f5f3e146102a557806361d027b3146102c5578063715018a6146102e5576101a7565b80631812adb6146101ac5780631876dec4146101d55780631e2361681461020d578063419cba7f1461024d57806343149dba146102635780634782bc3614610283576101a7565b366101a757005b600080fd5b3480156101b857600080fd5b506101c260075481565b6040519081526020015b60405180910390f35b3480156101e157600080fd5b506003546101f5906001600160a01b031681565b6040516001600160a01b0390911681526020016101cc565b34801561021957600080fd5b5061023d610228366004614eca565b600c6020526000908152604090205460ff1681565b60405190151581526020016101cc565b34801561025957600080fd5b506101c260085481565b34801561026f57600080fd5b506101c261027e3660046151de565b61052b565b34801561028f57600080fd5b506102a361029e366004614eca565b610a77565b005b3480156102b157600080fd5b506102a36102c0366004614eca565b610aad565b3480156102d157600080fd5b506005546101f5906001600160a01b031681565b3480156102f157600080fd5b506102a3610ae0565b34801561030657600080fd5b5061023d61031536600461501f565b610b0c565b34801561032657600080fd5b506102a3610335366004614eca565b61126f565b34801561034657600080fd5b506102a3610355366004614e47565b6112a2565b34801561036657600080fd5b5061023d610375366004614e7f565b6112d5565b34801561038657600080fd5b506004546101f5906001600160a01b031681565b3480156103a657600080fd5b506000546001600160a01b03166101f5565b3480156103c457600080fd5b506101c26103d3366004614e47565b600b6020526000908152604090205481565b3480156103f157600080fd5b506102a3610400366004614e47565b61132d565b34801561041157600080fd5b506002546101f5906001600160a01b031681565b34801561043157600080fd5b506101c260095481565b34801561044757600080fd5b506101c260065481565b61023d61045f366004615084565b611360565b34801561047057600080fd5b506102a361047f366004614e47565b6118c5565b34801561049057600080fd5b506102a361049f366004614eca565b6118f8565b61023d6104b2366004614efa565b61192b565b3480156104c357600080fd5b506102a36104d2366004614e47565b611bd2565b3480156104e357600080fd5b506102a36104f2366004614e47565b611c05565b34801561050357600080fd5b50610517610512366004614e7f565b611c9d565b6040516101cc989796959493929190615619565b6000600260015414156105595760405162461bcd60e51b8152600401610550906155e2565b60405180910390fd5b600260015585806105ac5760405162461bcd60e51b815260206004820152601b60248201527f43434275726e526f757465723a2076616c7565206973207a65726f00000000006044820152606401610550565b6105b68686611d9a565b60035460405163aff2faa360e01b81526001600160a01b039091169063aff2faa3906105e890879087906004016153be565b60206040518083038186803b15801561060057600080fd5b505afa158015610614573d6000803e3d6000fd5b505050506040513d601f19601f820116820180604052508101906106389190614eaa565b6106545760405162461bcd60e51b8152600401610550906154cb565b60035460405163626885b560e11b81526000916001600160a01b03169063c4d10b6a9061068790889088906004016153be565b60206040518083038186803b15801561069f57600080fd5b505afa1580156106b3573d6000803e3d6000fd5b505050506040513d601f19601f820116820180604052508101906106d79190614e63565b6004549091506001600160a01b03166323b872dd336040516001600160e01b031960e084901b1681526001600160a01b039091166004820152306024820152604481018b9052606401602060405180830381600087803b15801561073a57600080fd5b505af115801561074e573d6000803e3d6000fd5b505050506040513d601f19601f820116820180604052508101906107729190614eaa565b50600061077f8983611e37565b6004805460035460405163095ea7b360e01b81526001600160a01b039182169381019390935260248301849052929350919091169063095ea7b390604401602060405180830381600087803b1580156107d757600080fd5b505af11580156107eb573d6000803e3d6000fd5b505050506040513d601f19601f8201168201806040525081019061080f9190614eaa565b506003546040516338463cff60e01b81526001600160a01b03909116906338463cff90610844908990899086906004016153d2565b602060405180830381600087803b15801561085e57600080fd5b505af1158015610872573d6000803e3d6000fd5b505050506040513d601f19601f820116820180604052508101906108969190614ee2565b935061092b89858a8a600260009054906101000a90046001600160a01b03166001600160a01b0316632f796d906040518163ffffffff1660e01b815260040160206040518083038186803b1580156108ed57600080fd5b505afa158015610901573d6000803e3d6000fd5b505050506040513d601f19601f820116820180604052508101906109259190614ee2565b87611ff3565b6001600160a01b0382166000908152600a602052604090208054610951906001906157c1565b8154811061096f57634e487b7160e01b600052603260045260246000fd5b906000526020600020906007020160040154826001600160a01b03166109923390565b6001600160a01b03167fe33c3da07e34f08c660e672e065c0fa53300573c646a21eadd6eef116a70e51e8b8b8e8a8d8d600a60008d6001600160a01b03166001600160a01b031681526020019081526020016000206001600a60008f6001600160a01b03166001600160a01b0316815260200190815260200160002080549050610a1c91906157c1565b81548110610a3a57634e487b7160e01b600052603260045260246000fd5b906000526020600020906007020160060154604051610a5f9796959493929190615409565b60405180910390a45050600180555095945050505050565b6000546001600160a01b03163314610aa15760405162461bcd60e51b8152600401610550906155ad565b610aaa816121bb565b50565b6000546001600160a01b03163314610ad75760405162461bcd60e51b8152600401610550906155ad565b610aaa81612274565b6000546001600160a01b03163314610b0a5760405162461bcd60e51b8152600401610550906155ad565b565b600060026001541415610b315760405162461bcd60e51b8152600401610550906155e2565b600260015560035460405163aff2faa360e01b81526001600160a01b039091169063aff2faa390610b6890879087906004016153be565b60206040518083038186803b158015610b8057600080fd5b505afa158015610b94573d6000803e3d6000fd5b505050506040513d601f19601f82011682018060405250810190610bb89190614eaa565b610bd45760405162461bcd60e51b8152600401610550906154cb565b60035460405163626885b560e11b81526000916001600160a01b03169063c4d10b6a90610c0790889088906004016153be565b60206040518083038186803b158015610c1f57600080fd5b505afa158015610c33573d6000803e3d6000fd5b505050506040513d601f19601f82011682018060405250810190610c579190614e63565b90506000600260009054906101000a90046001600160a01b03166001600160a01b0316632f796d906040518163ffffffff1660e01b815260040160206040518083038186803b158015610ca957600080fd5b505afa158015610cbd573d6000803e3d6000fd5b505050506040513d601f19601f82011682018060405250810190610ce19190614ee2565b905060005b845181101561125f576001600160a01b0383166000908152600a602052604090208551869083908110610d2957634e487b7160e01b600052603260045260246000fd5b602002602001015181548110610d4f57634e487b7160e01b600052603260045260246000fd5b600091825260209091206005600790920201015460ff1615610dc65760405162461bcd60e51b815260206004820152602a60248201527f43434275726e526f757465723a207265717565737420686173206265656e2070604482015269616964206265666f726560b01b6064820152608401610550565b6001600160a01b0383166000908152600a602052604090208551839190879084908110610e0357634e487b7160e01b600052603260045260246000fd5b602002602001015181548110610e2957634e487b7160e01b600052603260045260246000fd5b90600052602060002090600702016004015410610e585760405162461bcd60e51b81526004016105509061551b565b6001600160a01b0383166000908152600a60205260409020855160019190879084908110610e9657634e487b7160e01b600052603260045260246000fd5b602002602001015181548110610ebc57634e487b7160e01b600052603260045260246000fd5b60009182526020808320600792909202909101600501805460ff1916931515939093179092556003546008546001600160a01b038781168452600a909452604090922088519390911692631697565b928792612710928b9088908110610f3257634e487b7160e01b600052603260045260246000fd5b602002602001015181548110610f5857634e487b7160e01b600052603260045260246000fd5b906000526020600020906007020160000154610f749190615779565b610f7e9190615759565b336001600160a01b0388166000908152600a602052604090208a518b9088908110610fb957634e487b7160e01b600052603260045260246000fd5b602002602001015181548110610fdf57634e487b7160e01b600052603260045260246000fd5b906000526020600020906007020160000154600a60008a6001600160a01b03166001600160a01b031681526020019081526020016000208b888151811061103657634e487b7160e01b600052603260045260246000fd5b60200260200101518154811061105c57634e487b7160e01b600052603260045260246000fd5b600091825260209091206007909102016002015460405160e087901b6001600160e01b03191681526001600160a01b03958616600482015260248101949094529184166044840152606483015291909116608482015260a401602060405180830381600087803b1580156110cf57600080fd5b505af11580156110e3573d6000803e3d6000fd5b505050506040513d601f19601f820116820180604052508101906111079190614eaa565b506001600160a01b0383166000818152600a60205260409020865187908490811061114257634e487b7160e01b600052603260045260246000fd5b60200260200101518154811061116857634e487b7160e01b600052603260045260246000fd5b906000526020600020906007020160020160009054906101000a90046001600160a01b03166001600160a01b03167f58c23b4ae0617be275628875bcfd65759a441263099a256eeb27899fb5dd846d8989600a6000896001600160a01b03166001600160a01b031681526020019081526020016000208a87815181106111fe57634e487b7160e01b600052603260045260246000fd5b60200260200101518154811061122457634e487b7160e01b600052603260045260246000fd5b906000526020600020906007020160060154604051611245939291906153d2565b60405180910390a38061125781615860565b915050610ce6565b5050600180805595945050505050565b6000546001600160a01b031633146112995760405162461bcd60e51b8152600401610550906155ad565b610aaa81612397565b6000546001600160a01b031633146112cc5760405162461bcd60e51b8152600401610550906155ad565b610aaa8161243d565b6001600160a01b0382166000908152600a6020526040812080548390811061130d57634e487b7160e01b600052603260045260246000fd5b600091825260209091206005600790920201015460ff1690505b92915050565b6000546001600160a01b031633146113575760405162461bcd60e51b8152600401610550906155ad565b610aaa816124ce565b6000600260015414156113855760405162461bcd60e51b8152600401610550906155e2565b60026001819055895114801561139c575083516002145b80156113a9575081516003145b6113f55760405162461bcd60e51b815260206004820152601a60248201527f43434275726e526f757465723a2077726f6e6720696e707574730000000000006044820152606401610550565b60035460405163aff2faa360e01b81526001600160a01b039091169063aff2faa390611425908d906004016153f6565b60206040518083038186803b15801561143d57600080fd5b505afa158015611451573d6000803e3d6000fd5b505050506040513d601f19601f820116820180604052508101906114759190614eaa565b6114915760405162461bcd60e51b8152600401610550906154cb565b60006114ef8a6000815181106114b757634e487b7160e01b600052603260045260246000fd5b60200260200101518a8a886000815181106114e257634e487b7160e01b600052603260045260246000fd5b602002602001015161255f565b905061154d818460028151811061151657634e487b7160e01b600052603260045260246000fd5b6020026020010151868660018151811061154057634e487b7160e01b600052603260045260246000fd5b6020026020010151612655565b6115b25760405162461bcd60e51b815260206004820152603060248201527f43434275726e526f757465723a20696e707574207472616e73616374696f6e2060448201526f1a5cc81b9bdd08199a5b985b1a5e995960821b6064820152608401610550565b6000818152600c602052604090205460ff161561162f5760405162461bcd60e51b815260206004820152603560248201527f43434275726e526f757465723a207472616e73616374696f6e2068617320626560448201527432b7103ab9b2b21030b990313ab93710383937b7b360591b6064820152608401610550565b6000806116648b8660008151811061165757634e487b7160e01b600052603260045260246000fd5b60200260200101516127c7565b915091506116b78c60018151811061168c57634e487b7160e01b600052603260045260246000fd5b60200260200101518a8a8a6001815181106114e257634e487b7160e01b600052603260045260246000fd5b82146117245760405162461bcd60e51b815260206004820152603660248201527f43434275726e526f757465723a206f7574706f696e7420747820646f65736e276044820152750e840dac2e8c6d040eed2e8d040deeae8e0eae840e8f60531b6064820152608401610550565b8c5160208e0120611735898361287c565b80519060200120146117a25760405162461bcd60e51b815260206004820152603060248201527f43434275726e526f757465723a206f757470757420747820646f65736e27742060448201526f3132b637b733903a37903637b1b5b2b960811b6064820152608401610550565b846002815181106117c357634e487b7160e01b600052603260045260246000fd5b60200260200101516006546117d891906156cf565b600260009054906101000a90046001600160a01b03166001600160a01b0316632f796d906040518163ffffffff1660e01b815260040160206040518083038186803b15801561182657600080fd5b505afa15801561183a573d6000803e3d6000fd5b505050506040513d601f19601f8201168201806040525081019061185e9190614ee2565b1161187b5760405162461bcd60e51b81526004016105509061551b565b6118af8a8e85886002815181106118a257634e487b7160e01b600052603260045260246000fd5b60200260200101516128f6565b505060018080559b9a5050505050505050505050565b6000546001600160a01b031633146118ef5760405162461bcd60e51b8152600401610550906155ad565b610aaa81612ac2565b6000546001600160a01b031633146119225760405162461bcd60e51b8152600401610550906155ad565b610aaa81612b53565b6000600260015414156119505760405162461bcd60e51b8152600401610550906155e2565b60026001556001600160e01b03198816156119ad5760405162461bcd60e51b815260206004820181905260248201527f43434275726e526f757465723a206e6f6e2d7a65726f206c6f636b2074696d656044820152606401610550565b60035460405163aff2faa360e01b81526001600160a01b039091169063aff2faa3906119dd9087906004016153f6565b60206040518083038186803b1580156119f557600080fd5b505afa158015611a09573d6000803e3d6000fd5b505050506040513d601f19601f82011682018060405250810190611a2d9190614eaa565b611a495760405162461bcd60e51b8152600401610550906154cb565b60035460405163626885b560e11b81526000916001600160a01b03169063c4d10b6a90611a7a9088906004016153f6565b60206040518083038186803b158015611a9257600080fd5b505afa158015611aa6573d6000803e3d6000fd5b505050506040513d601f19601f82011682018060405250810190611aca9190614e63565b90508251845114611b1d5760405162461bcd60e51b815260206004820152601b60248201527f43434275726e526f757465723a2077726f6e6720696e646578657300000000006044820152606401610550565b6000611b2b8d8d8d8d61255f565b9050611b39818a8a8a612655565b611b9d5760405162461bcd60e51b815260206004820152602f60248201527f43434275726e526f757465723a207472616e73616374696f6e20686173206e6f60448201526e1d08199a5b985b1a5e9959081e595d608a1b6064820152608401610550565b6000611bad828b858f8a8a612bf4565b9050611bbb818d8985613040565b505060018080559c9b505050505050505050505050565b6000546001600160a01b03163314611bfc5760405162461bcd60e51b8152600401610550906155ad565b610aaa816130c9565b6000546001600160a01b03163314611c2f5760405162461bcd60e51b8152600401610550906155ad565b6001600160a01b038116611c945760405162461bcd60e51b815260206004820152602660248201527f4f776e61626c653a206e6577206f776e657220697320746865207a65726f206160448201526564647265737360d01b6064820152608401610550565b610aaa8161315a565b600a6020528160005260406000208181548110611cb957600080fd5b600091825260209091206007909102018054600182015460028301546003840180549396509194506001600160a01b03169291611cf59061582b565b80601f0160208091040260200160405190810160405280929190818152602001828054611d219061582b565b8015611d6e5780601f10611d4357610100808354040283529160200191611d6e565b820191906000526020600020905b815481529060010190602001808311611d5157829003601f168201915b505050600484015460058501546006909501549394909360ff8083169450610100909204909116915088565b6000816004811115611dbc57634e487b7160e01b600052602160045260246000fd5b1480611de757506004816004811115611de557634e487b7160e01b600052602160045260246000fd5b145b15611e12578151602014611e0d5760405162461bcd60e51b81526004016105509061556c565b611e33565b8151601414611e335760405162461bcd60e51b81526004016105509061556c565b5050565b60008061271060075485611e4b9190615779565b611e559190615759565b905060095481611e6591906156cf565b8411611eb35760405162461bcd60e51b815260206004820152601f60248201527f43434275726e526f757465723a20616d6f756e7420697320746f6f206c6f77006044820152606401610550565b600954600090611ec383876157c1565b611ecd91906157c1565b6004805460055460405163a9059cbb60e01b81526001600160a01b039182169381019390935260248301869052929350919091169063a9059cbb90604401602060405180830381600087803b158015611f2557600080fd5b505af1158015611f39573d6000803e3d6000fd5b505050506040513d601f19601f82011682018060405250810190611f5d9190614eaa565b506004805460095460405163a9059cbb60e01b81526001600160a01b0388811694820194909452602481019190915291169063a9059cbb90604401602060405180830381600087803b158015611fb257600080fd5b505af1158015611fc6573d6000803e3d6000fd5b505050506040513d601f19601f82011682018060405250810190611fea9190614eaa565b50949350505050565b604080516101008101825260006080820181905260a0820181905260c0820181815260e0830191909152888252602082018890523392820192909252606081018690529084600481111561205757634e487b7160e01b600052602160045260246000fd5b9081600481111561207857634e487b7160e01b600052602160045260246000fd5b90525060065461208890846156cf565b6080820152600060a082018190526001600160a01b038316808252600b6020818152604084205460e08601819052929093529091526120c89060016156cf565b6001600160a01b038381166000908152600b6020908152604080832094909455600a81528382208054600180820183559184529282902086516007909402019283558582015190830155928401516002820180546001600160a01b0319169190931617909155606083015180518493612148926003850192910190614c22565b50608082015160048281019190915560a083015160058301805460ff19169115159190911780825560c08501519261ff0019909116906101009084908111156121a157634e487b7160e01b600052602160045260246000fd5b021790555060e08201518160060155505050505050505050565b8061271010156122335760405162461bcd60e51b815260206004820152603760248201527f43434275726e526f757465723a20736c61736865722070657263656e7461676560448201527f20726577617264206973206f7574206f662072616e67650000000000000000006064820152608401610550565b60085460408051918252602082018390527faa50b3683e42a13535a5b9c2c32780cccf956fb546b523a3542ac4ad8b544f67910160405180910390a1600855565b60025460408051630a072bc560e41b815290516000926001600160a01b03169163a072bc50916004808301926020929190829003018186803b1580156122b957600080fd5b505afa1580156122cd573d6000803e3d6000fd5b505050506040513d601f19601f820116820180604052508101906122f19190614ee2565b90508082116123555760405162461bcd60e51b815260206004820152602a60248201527f43434275726e526f757465723a207472616e7366657220646561646c696e6520604482015269697320746f6f206c6f7760b01b6064820152608401610550565b60065460408051918252602082018490527f92c10a242ca42973030420e2ee32b3ba7818cc643f896958f620c606cf300416910160405180910390a150600655565b8061271010156123fc5760405162461bcd60e51b815260206004820152602a60248201527f43434275726e526f757465723a2070726f746f636f6c20666565206973206f7560448201526974206f662072616e676560b01b6064820152608401610550565b60075460408051918252602082018390527f7d205f60891f60851c61cd244ba387d72b6589e7c0ac41b9d909ab0ce2c2a53b910160405180910390a1600755565b806001600160a01b0381166124645760405162461bcd60e51b815260040161055090615494565b600454604080516001600160a01b03928316815291841660208301527f36a4c08a38b736dcecb6c328dba61238529620e83ccb23db2cc43cd34ec26096910160405180910390a150600480546001600160a01b0319166001600160a01b0392909216919091179055565b806001600160a01b0381166124f55760405162461bcd60e51b815260040161055090615494565b600354604080516001600160a01b03928316815291841660208301527ffa021c2ec0f46429a53e7f88b88065e40001f50c9d38b2e8b713beaf9828d4c3910160405180910390a150600380546001600160a01b0319166001600160a01b0392909216919091179055565b60008060028686868660405160200161257b94939291906152de565b60408051601f198184030181529082905261259591615331565b602060405180830381855afa1580156125b2573d6000803e3d6000fd5b5050506040513d601f19601f820116820180604052508101906125d59190614ee2565b905060006002826040516020016125ee91815260200190565b60408051601f198184030181529082905261260891615331565b602060405180830381855afa158015612625573d6000803e3d6000fd5b5050506040513d601f19601f820116820180604052508101906126489190614ee2565b925050505b949350505050565b60025460405163d0a8973960e01b8152600481018590526000602482018190529182916001600160a01b039091169063d0a897399060440160206040518083038186803b1580156126a557600080fd5b505afa1580156126b9573d6000803e3d6000fd5b505050506040513d601f19601f820116820180604052508101906126dd9190614ee2565b9050803410156127415760405162461bcd60e51b815260206004820152602960248201527f43434275726e526f757465723a2072656c617920666565206973206e6f7420736044820152681d59999a58da595b9d60ba1b6064820152608401610550565b60025460405160009161279e916001600160a01b039091169061276e908a908a908a908a9060240161538e565b60408051601f198184030181529190526020810180516001600160e01b0316634354da2560e01b179052846131aa565b90506127b3336127ae84346157c1565b6131da565b808060200190518101906126489190614eaa565b600080806127dd6127d886836132f8565b61331c565b90506127ee62ffffff198216613452565b1561283b5760405162461bcd60e51b815260206004820152601a60248201527f426974636f696e48656c7065723a2076696e206973206e756c6c0000000000006044820152606401610550565b60006128478286613461565b905060006128548261357f565b905061285f816135a3565b945061286a816135c5565b63ffffffff1693505050509250929050565b6060600061289461288f825b86906132f8565b6135ef565b90506128a562ffffff198216613452565b156128c25760405162461bcd60e51b81526004016105509061545d565b60006128ce82856136e0565b905060006128db826137da565b90506128ec62ffffff19821661382b565b9695505050505050565b60006129018561387b565b60035460405163626885b560e11b81526001600160401b039290921692506000916001600160a01b039091169063c4d10b6a906129429088906004016153f6565b60206040518083038186803b15801561295a57600080fd5b505afa15801561296e573d6000803e3d6000fd5b505050506040513d601f19601f820116820180604052508101906129929190614e63565b6003546008549192506001600160a01b03169063b734de26908390612710906129bb9087615779565b6129c59190615759565b3360405160e085901b6001600160e01b03191681526001600160a01b0393841660048201526024810192909252909116604482015260648101859052608401602060405180830381600087803b158015612a1e57600080fd5b505af1158015612a32573d6000803e3d6000fd5b505050506040513d601f19601f82011682018060405250810190612a569190614eaa565b507f7ff138134e34ccab071315c38e38eec079f54726b890304ab46e2c5ab6f722bb8186858761271060085488612a8d9190615779565b612a979190615759565b612aa190886156cf565b604051612ab295949392919061534d565b60405180910390a1505050505050565b806001600160a01b038116612ae95760405162461bcd60e51b815260040161055090615494565b600254604080516001600160a01b03928316815291841660208301527f4c28a3f61a715259c4dc930c23e7423b8fa52e13232c061a6e488729c66184f4910160405180910390a150600280546001600160a01b0319166001600160a01b0392909216919091179055565b60095460408051918252602082018390527f47c5f9c13c35ebb166f6a8d8c56af73f8b323ac0fee7aec4a5e0490bbf67a4fe910160405180910390a1806127101015612bef5760405162461bcd60e51b815260206004820152602560248201527f43434275726e526f757465723a2062746320666565206973206f7574206f662060448201526472616e676560d81b6064820152608401610550565b600955565b600080805b8451811015613034576000858281518110612c2457634e487b7160e01b600052603260045260246000fd5b60200260200101519050600a6000896001600160a01b03166001600160a01b031681526020019081526020016000208181548110612c7257634e487b7160e01b600052603260045260246000fd5b600091825260209091206005600790920201015460ff16158015612ce157506001600160a01b0388166000908152600a6020526040902080548a919083908110612ccc57634e487b7160e01b600052603260045260246000fd5b90600052602060002090600702016004015410155b1561302157612e8c87868481518110612d0a57634e487b7160e01b600052603260045260246000fd5b6020026020010151600a60008c6001600160a01b03166001600160a01b031681526020019081526020016000208481548110612d5657634e487b7160e01b600052603260045260246000fd5b90600052602060002090600702016003018054612d729061582b565b80601f0160208091040260200160405190810160405280929190818152602001828054612d9e9061582b565b8015612deb5780601f10612dc057610100808354040283529160200191612deb565b820191906000526020600020905b815481529060010190602001808311612dce57829003601f168201915b5050506001600160a01b038e166000908152600a6020526040902080549092508791508110612e2a57634e487b7160e01b600052603260045260246000fd5b906000526020600020906007020160050160019054906101000a900460ff166004811115612e6857634e487b7160e01b600052602160045260246000fd5b6004811115612e8757634e487b7160e01b600052602160045260246000fd5b61391b565b6001600160401b0316925082600a60008a6001600160a01b03166001600160a01b031681526020019081526020016000208281548110612edc57634e487b7160e01b600052603260045260246000fd5b9060005260206000209060070201600101541415613021576001600160a01b0388166000908152600a6020526040902080546001919083908110612f3057634e487b7160e01b600052603260045260246000fd5b60009182526020909120600790910201600501805460ff1916911515919091179055612f5d8460016156cf565b6001600160a01b0389166000818152600a60205260409020805492965090917f1b46655c2f394f2191cb246d5982dbe00ad671f0b590e75e97c90ee97f1f782a919084908110612fbd57634e487b7160e01b600052603260045260246000fd5b9060005260206000209060070201600601548c888681518110612ff057634e487b7160e01b600052603260045260246000fd5b6020026020010151604051613018939291909283526020830191909152604082015260600190565b60405180910390a25b508061302c81615860565b915050612bf9565b50509695505050505050565b600061304c8484613b5c565b6001600160401b03169050600061306285613c65565b9050811580159061307c57508061307a8760016156cf565b145b1561309f576000838152600c60205260409020805460ff191660011790556130c1565b808614156130c1576000838152600c60205260409020805460ff191660011790555b505050505050565b806001600160a01b0381166130f05760405162461bcd60e51b815260040161055090615494565b600554604080516001600160a01b03928316815291841660208301527f567657fa3f286518b318f4a29870674f433f622fdfc819691acb13105b228225910160405180910390a150600580546001600160a01b0319166001600160a01b0392909216919091179055565b600080546001600160a01b038381166001600160a01b0319831681178455604051919092169283917f8be0079c531659141344cd1fd0a4f28419497f9722a3daafe3b4186f6b6457e09190a35050565b60606131d08484846040518060600160405280602981526020016158bd60299139613c91565b90505b9392505050565b8047101561322a5760405162461bcd60e51b815260206004820152601d60248201527f416464726573733a20696e73756666696369656e742062616c616e63650000006044820152606401610550565b6000826001600160a01b03168260405160006040518083038185875af1925050503d8060008114613277576040519150601f19603f3d011682016040523d82523d6000602084013e61327c565b606091505b50509050806132f35760405162461bcd60e51b815260206004820152603a60248201527f416464726573733a20756e61626c6520746f2073656e642076616c75652c207260448201527f6563697069656e74206d617920686176652072657665727465640000000000006064820152608401610550565b505050565b81516000906020840161331364ffffffffff85168284613dae565b95945050505050565b60008181613332815b62ffffff19841690613df2565b50601884901c6001600160601b03166133525762ffffff195b925061344b565b600061335f856000613ecc565b9050601885901c6001600160601b03166001600160401b03821661338c5762ffffff195b9450505061344b565b600061339783614013565b60ff16905060005b836001600160401b0316811015613413578282106133c85762ffffff195b96505050505061344b565b60006133e86133d784866157c1565b60055b62ffffff198c16919061406c565b90506133f3816140a0565b6133fd90846156cf565b925050808061340b90615860565b91505061339f565b5081811461342b5762ffffff195b955050505061344b565b61344560065b60d81b6301000000600160d81b0389161790565b95505050505b5050919050565b62ffffff19818116145b919050565b600082600661346f81613325565b50600061347d866000613ecc565b6001600160401b03169050601886901c6001600160601b03168186106134d85760405162461bcd60e51b815260206004820152601060248201526f2b34b7103932b0b21037bb32b9393ab760811b6044820152606401610550565b60006134e383614013565b60ff1690506000805b8881101561353b5761351261350184866157c1565b60055b62ffffff198d16919061406c565b915061351d826140a0565b61352790846156cf565b92506135346001826156cf565b90506134ec565b506135496133d783856157c1565b90506000613556826140a0565b905061356f838260045b62ffffff198e169291906140f4565b975050505050505b505092915050565b600081600461358d81613325565b5061264d62ffffff1985166000602460036140f4565b60008160036135b181613325565b5061264d62ffffff19851660006020614164565b60008160036135d381613325565b5061264d6135ea62ffffff198616602060046142bd565b614407565b600081816135fc81613325565b50601884901c6001600160601b03166136195762ffffff1961334b565b6000613626856000613ecc565b9050601885901c6001600160601b03166001600160401b03821661364e5762ffffff19613383565b600061365983614013565b60ff16905060005b836001600160401b03168110156136c4578282106136835762ffffff196133bd565b600061369961369284866157c1565b600e6133da565b90506136a481614470565b6136ae90846156cf565b92505080806136bc90615860565b915050613661565b508181146136d65762ffffff19613421565b613445600f613431565b600082600f6136ee81613325565b5060006136fc866000613ecc565b6001600160401b03169050601886901c6001600160601b03168186106137585760405162461bcd60e51b81526020600482015260116024820152702b37baba103932b0b21037bb32b9393ab760791b6044820152606401610550565b600061376383614013565b60ff1690506000805b888110156137b15761378861378184866157c1565b600e613504565b915061379382614470565b61379d90846156cf565b92506137aa6001826156cf565b905061376c565b506137bf61369283856157c1565b905060006137cc82614470565b905061356f8382600d613560565b600081600d6137e881613325565b5060006137f6856008613ecc565b905061331361380482614013565b61380f906008615712565b62ffffff1987169060ff166001600160401b03841660076140f4565b60606000806138438460181c6001600160601b031690565b60405193508392506001600160601b0316905061386a846138658460206156cf565b6144b9565b508181016020016040529052919050565b60008061388d61288f825b85906132f8565b905061389e62ffffff198216613452565b156138bb5760405162461bcd60e51b81526004016105509061545d565b6000806138c9836000613ecc565b6001600160401b0316905060005b81811015613912576138e984826136e0565b92506138f483614610565b6138fe90866156e7565b94508061390a81615860565b9150506138d7565b50505050919050565b60008061392b61288f87836132f8565b905061393c62ffffff198216613452565b156139595760405162461bcd60e51b81526004016105509061545d565b600061396582876136e0565b90506000613972826137da565b9050600085600481111561399657634e487b7160e01b600052602160045260246000fd5b14156139fb576139af62ffffff19821660016020614164565b6040516020016139c191815260200190565b604051602081830303815290604052805190602001208680519060200120146139eb5760006139f4565b6139f482614610565b9350613b51565b6001856004811115613a1d57634e487b7160e01b600052602160045260246000fd5b1415613a5c57613a3462ffffff1982166003614635565b6040516020016139c1919060609190911b6bffffffffffffffffffffffff1916815260140190565b6002856004811115613a7e57634e487b7160e01b600052602160045260246000fd5b1415613a9557613a3462ffffff1982166002614635565b6003856004811115613ab757634e487b7160e01b600052602160045260246000fd5b1415613ace57613a3462ffffff1982166002614635565b6004856004811115613af057634e487b7160e01b600052602160045260246000fd5b1415613b5157613b0962ffffff19821660026020614164565b604051602001613b1b91815260200190565b60405160208183030381529060405280519060200120868051906020012014613b45576000613b4e565b613b4e82614610565b93505b505050949350505050565b600080613b6b61288f82612888565b9050613b7c62ffffff198216613452565b15613b995760405162461bcd60e51b81526004016105509061545d565b6000806000613ba9846000613ecc565b6001600160401b0316905060005b81811015613c5a57613bc985826136e0565b9350613bd4846137da565b925086604051602001613be79190615331565b60405160208183030381529060405280519060200120613c0c8462ffffff191661382b565b604051602001613c1c9190615331565b604051602081830303815290604052805190602001201415613c4857613c4184614610565b9550613c5a565b80613c5281615860565b915050613bb7565b505050505092915050565b600080613c7461288f82613886565b9050613c81816000613ecc565b6001600160401b03169392505050565b606082471015613cf25760405162461bcd60e51b815260206004820152602660248201527f416464726573733a20696e73756666696369656e742062616c616e636520666f6044820152651c8818d85b1b60d21b6064820152608401610550565b843b613d405760405162461bcd60e51b815260206004820152601d60248201527f416464726573733a2063616c6c20746f206e6f6e2d636f6e74726163740000006044820152606401610550565b600080866001600160a01b03168587604051613d5c9190615331565b60006040518083038185875af1925050503d8060008114613d99576040519150601f19603f3d011682016040523d82523d6000602084013e613d9e565b606091505b5091509150612648828286614643565b600080613dbb83856156cf565b9050604051811115613dcb575060005b80613ddd5762ffffff199150506131d3565b5050606092831b9190911790911b1760181b90565b6000613dfe838361467c565b613ec5576000613e1d613e118560d81c90565b64ffffffffff1661469f565b9150506000613e328464ffffffffff1661469f565b6040517f5479706520617373657274696f6e206661696c65642e20476f7420307800000060208201526001600160b01b031960b086811b8216603d8401526c05c408af0e0cac6e8cac84060f609b1b604784015283901b16605482015290925060009150605e015b60405160208183030381529060405290508060405162461bcd60e51b815260040161055091906153f6565b5090919050565b600080613ee162ffffff19851684600161474b565b905060fc8111613efc57613ef48161477b565b915050611327565b8060fd1415613f6257613f2a613f25613f168560016156cf565b62ffffff1987169060026142bd565b61477b565b9150613f3582614013565b60ff16600314613f5d57613f5b613f5662ffffff19861685600360006140f4565b6147e3565b505b61400c565b8060fe1415613fb757613f8b613f25613f7c8560016156cf565b62ffffff1987169060046142bd565b9150613f9682614013565b60ff16600514613f5d57613f5b613f5662ffffff19861685600560006140f4565b8060ff141561400c57613fe0613f25613fd18560016156cf565b62ffffff1987169060086142bd565b9150613feb82614013565b60ff1660091461400c57613577613f5662ffffff19861685600960006140f4565b5092915050565b600060fc826001600160401b03161161402e5750600161345c565b61ffff826001600160401b0316116140485750600361345c565b63ffffffff826001600160401b0316116140645750600561345c565b50600961345c565b60006131d084846140868760181c6001600160601b031690565b6001600160601b031661409991906157c1565b85856140f4565b60008160056140ae81613325565b5060006140bc856024613ecc565b9050806001600160401b03166140d182614013565b60ff166140de91906156cf565b6140e99060246156cf565b6133139060046156cf565b60008061410a8660781c6001600160601b031690565b6001600160601b0316905061411e8661486a565b8461412987846156cf565b61413391906156cf565b11156141465762ffffff1991505061264d565b61415085826156cf565b90506128ec8364ffffffffff168286613dae565b600060ff8216614176575060006131d3565b6141898460181c6001600160601b031690565b6001600160601b031661419f60ff8416856156cf565b1115614203576141ea6141bb8560781c6001600160601b031690565b6001600160601b03166141d78660181c6001600160601b031690565b6001600160601b0316858560ff166148ab565b60405162461bcd60e51b815260040161055091906153f6565b60208260ff16111561427d5760405162461bcd60e51b815260206004820152603a60248201527f54797065644d656d566965772f696e646578202d20417474656d70746564207460448201527f6f20696e646578206d6f7265207468616e2033322062797465730000000000006064820152608401610550565b6008820260006142968660781c6001600160601b031690565b6001600160601b031690506000600160ff1b60001984011d91909501511695945050505050565b60006131d06142cd858585614164565b600881811c7eff00ff00ff00ff00ff00ff00ff00ff00ff00ff00ff00ff00ff00ff00ff00ff167fff00ff00ff00ff00ff00ff00ff00ff00ff00ff00ff00ff00ff00ff00ff00ff009290911b9190911617601081811c7dffff0000ffff0000ffff0000ffff0000ffff0000ffff0000ffff0000ffff167fffff0000ffff0000ffff0000ffff0000ffff0000ffff0000ffff0000ffff00009290911b9190911617602081811c7bffffffff00000000ffffffff00000000ffffffff00000000ffffffff167fffffffff00000000ffffffff00000000ffffffff00000000ffffffff000000009290911b9190911617604081811c77ffffffffffffffff0000000000000000ffffffffffffffff1677ffffffffffffffff0000000000000000ffffffffffffffff199290911b9190911617608081811c91901b1790565b600063ffffffff82111561446c5760405162461bcd60e51b815260206004820152602660248201527f53616665436173743a2076616c756520646f65736e27742066697420696e203360448201526532206269747360d01b6064820152608401610550565b5090565b600081600e61447e81613325565b50600061448c856008613ecc565b9050806001600160401b03166144a182614013565b60ff166144ae91906156cf565b6133139060086156cf565b60006144c4836149d5565b6145215760405162461bcd60e51b815260206004820152602860248201527f54797065644d656d566965772f636f7079546f202d204e756c6c20706f696e7460448201526732b9103232b932b360c11b6064820152608401610550565b61452a836149e7565b61458a5760405162461bcd60e51b815260206004820152602b60248201527f54797065644d656d566965772f636f7079546f202d20496e76616c696420706f60448201526a34b73a32b9103232b932b360a91b6064820152608401610550565b600061459f8460181c6001600160601b031690565b6001600160601b0316905060006145bf8560781c6001600160601b031690565b6001600160601b0316905060006040519050848111156145df5760206060fd5b8285848460045afa506128ec6145f58760d81c90565b64ffffffffff60601b606091821b168717901b841760181b90565b600081600d61461e81613325565b5061264d613f2562ffffff198616600060086142bd565b60006131d38383601461474b565b606083156146525750816131d3565b8251156146625782518084602001fd5b8160405162461bcd60e51b815260040161055091906153f6565b60008164ffffffffff166146908460d81c90565b64ffffffffff16149392505050565b600080601f5b600f8160ff1611156146fd5760006146be826008615798565b60ff1685901c90506146cf81614a25565b61ffff16841793508160ff166010146146ea57601084901b93505b506146f66001826157d8565b90506146a5565b50600f5b60ff8160ff1610156147455760ff600882021684901c61472081614a25565b61ffff16831792508160ff1660001461473b57601083901b92505b5060001901614701565b50915091565b60006147588260206157d8565b614763906008615798565b60ff16614771858585614164565b901c949350505050565b60006001600160401b0382111561446c5760405162461bcd60e51b815260206004820152602660248201527f53616665436173743a2076616c756520646f65736e27742066697420696e203660448201526534206269747360d01b6064820152608401610550565b6060600061481761481282614804601887901c6001600160601b0316614a55565b62ffffff198716919061474b565b61469f565b6040517f4e6f6e2d6d696e696d616c2076617220696e742e20476f74203078000000000060208201526dffffffffffffffffffffffffffff19607083901b16603b82015290925060009150604d01613e9a565b600061487f8260181c6001600160601b031690565b6148928360781c6001600160601b031690565b61489c9190615737565b6001600160601b031692915050565b606060006148b88661469f565b91505060006148c68661469f565b91505060006148d48661469f565b91505060006148e28661469f565b604080517f54797065644d656d566965772f696e646578202d204f76657272616e20746865602082015274040ecd2caee5c40a6d8d2c6ca40d2e640c2e84060f605b1b818301526001600160d01b031960d098891b811660558301526e040eed2e8d040d8cadccee8d04060f608b1b605b830181905297891b8116606a8301527f2e20417474656d7074656420746f20696e646578206174206f666673657420306070830152600f60fb1b609083015295881b861660918201526097810196909652951b90921660a68401525050601760f91b60ac8201528151808203608d01815260ad90910190915295945050505050565b60006149e082613452565b1592915050565b60006149f38260d81c90565b64ffffffffff1664ffffffffff1415614a0e5750600061345c565b6000614a198361486a565b60405110199392505050565b6000614a3760048360ff16901c614ab6565b60ff161760081b62ffff0016614a4c82614ab6565b60ff1617919050565b600060ff82111561446c5760405162461bcd60e51b815260206004820152602560248201527f53616665436173743a2076616c756520646f65736e27742066697420696e2038604482015264206269747360d81b6064820152608401610550565b600060f08083179060ff82161415614ad257603091505061345c565b8060ff1660f11415614ae857603191505061345c565b8060ff1660f21415614afe57603291505061345c565b8060ff1660f31415614b1457603391505061345c565b8060ff1660f41415614b2a57603491505061345c565b8060ff1660f51415614b4057603591505061345c565b8060ff1660f61415614b5657603691505061345c565b8060ff1660f71415614b6c57603791505061345c565b8060ff1660f81415614b8257603891505061345c565b8060ff1660f91415614b9857603991505061345c565b8060ff1660fa1415614bae57606191505061345c565b8060ff1660fb1415614bc457606291505061345c565b8060ff1660fc1415614bda57606391505061345c565b8060ff1660fd1415614bf057606491505061345c565b8060ff1660fe1415614c0657606591505061345c565b8060ff1660ff1415614c1c57606691505061345c565b50919050565b828054614c2e9061582b565b90600052602060002090601f016020900481019282614c505760008555614c96565b82601f10614c6957805160ff1916838001178555614c96565b82800160010185558215614c96579182015b82811115614c96578251825591602001919060010190614c7b565b5061446c9291505b8082111561446c5760008155600101614c9e565b600082601f830112614cc2578081fd5b81356020614cd7614cd2836156ac565b61567c565b8281528181019085830183850287018401881015614cf3578586fd5b855b85811015614d1857614d0682614d7f565b84529284019290840190600101614cf5565b5090979650505050505050565b600082601f830112614d35578081fd5b81356020614d45614cd2836156ac565b8281528181019085830183850287018401881015614d61578586fd5b855b85811015614d1857813584529284019290840190600101614d63565b80356001600160e01b03198116811461345c57600080fd5b60008083601f840112614da8578182fd5b5081356001600160401b03811115614dbe578182fd5b602083019150836020828501011115614dd657600080fd5b9250929050565b600082601f830112614ded578081fd5b81356001600160401b03811115614e0657614e06615891565b614e19601f8201601f191660200161567c565b818152846020838601011115614e2d578283fd5b816020850160208301379081016020019190915292915050565b600060208284031215614e58578081fd5b81356131d3816158a7565b600060208284031215614e74578081fd5b81516131d3816158a7565b60008060408385031215614e91578081fd5b8235614e9c816158a7565b946020939093013593505050565b600060208284031215614ebb578081fd5b815180151581146131d3578182fd5b600060208284031215614edb578081fd5b5035919050565b600060208284031215614ef3578081fd5b5051919050565b6000806000806000806000806000806101408b8d031215614f19578586fd5b614f228b614d7f565b995060208b01356001600160401b0380821115614f3d578788fd5b614f498e838f01614ddd565b9a5060408d0135915080821115614f5e578788fd5b614f6a8e838f01614ddd565b9950614f7860608e01614d7f565b985060808d0135975060a08d0135915080821115614f94578687fd5b614fa08e838f01614ddd565b965060c08d0135955060e08d0135915080821115614fbc578485fd5b614fc88e838f01614ddd565b94506101008d0135915080821115614fde578384fd5b614fea8e838f01614d25565b93506101208d0135915080821115615000578283fd5b5061500d8d828e01614d25565b9150509295989b9194979a5092959850565b600080600060408486031215615033578283fd5b83356001600160401b0380821115615049578485fd5b61505587838801614d97565b9095509350602086013591508082111561506d578283fd5b5061507a86828701614d25565b9150509250925092565b60008060008060008060008060006101208a8c0312156150a2578283fd5b89356001600160401b03808211156150b8578485fd5b6150c48d838e01614ddd565b9a5060208c01359150808211156150d9578485fd5b6150e58d838e01614cb2565b995060408c01359150808211156150fa578485fd5b6151068d838e01614ddd565b985060608c013591508082111561511b578485fd5b6151278d838e01614ddd565b975060808c013591508082111561513c578485fd5b6151488d838e01614ddd565b965060a08c013591508082111561515d578485fd5b6151698d838e01614ddd565b955060c08c013591508082111561517e578485fd5b61518a8d838e01614cb2565b945060e08c013591508082111561519f578384fd5b6151ab8d838e01614ddd565b93506101008c01359150808211156151c1578283fd5b506151ce8c828d01614d25565b9150509295985092959850929598565b6000806000806000608086880312156151f5578283fd5b8535945060208601356001600160401b0380821115615212578485fd5b61521e89838a01614ddd565b95506040880135915060058210615233578485fd5b90935060608701359080821115615248578283fd5b5061525588828901614d97565b969995985093965092949392505050565b60008284528282602086013780602084860101526020601f19601f85011685010190509392505050565b600081518084526152a88160208601602086016157fb565b601f01601f19169290920160200192915050565b600581106152da57634e487b7160e01b600052602160045260246000fd5b9052565b600063ffffffff60e01b80871683528551615300816004860160208a016157fb565b855190840190615317816004840160208a016157fb565b919094169301600481019390935250506008019392505050565b600082516153438184602087016157fb565b9190910192915050565b6001600160a01b038616815260a06020820181905260009061537190830187615290565b604083019590955250606081019290925260809091015292915050565b6000858252846020830152608060408301526153ad6080830185615290565b905082606083015295945050505050565b6000602082526131d0602083018486615266565b6000604082526153e6604083018587615266565b9050826020830152949350505050565b6000602082526131d36020830184615290565b600060c0825261541c60c083018a615290565b615429602084018a6152bc565b8760408401528660608401528281036080840152615448818688615266565b9150508260a083015298975050505050505050565b6020808252601b908201527f426974636f696e48656c7065723a20766f7574206973206e756c6c0000000000604082015260600190565b6020808252601d908201527f43434275726e526f757465723a2061646472657373206973207a65726f000000604082015260600190565b60208082526030908201527f43434275726e526f757465723a20676976656e206c6f636b696e67207363726960408201526f383a1034b9903737ba103637b1b5b2b960811b606082015260800190565b60208082526031908201527f43434275726e526f757465723a207061796261636b20646561646c696e652068604082015270185cc81b9bdd081c185cdcd959081e595d607a1b606082015260800190565b60208082526021908201527f43434275726e526f757465723a20696e76616c696420757365722073637269706040820152601d60fa1b606082015260800190565b6020808252818101527f4f776e61626c653a2063616c6c6572206973206e6f7420746865206f776e6572604082015260600190565b6020808252601f908201527f5265656e7472616e637947756172643a207265656e7472616e742063616c6c00604082015260600190565b888152602081018890526001600160a01b03871660408201526101006060820181905260009061564b83820189615290565b91505085608083015284151560a083015261566960c08301856152bc565b8260e08301529998505050505050505050565b604051601f8201601f191681016001600160401b03811182821017156156a4576156a4615891565b604052919050565b60006001600160401b038211156156c5576156c5615891565b5060209081020190565b600082198211156156e2576156e261587b565b500190565b60006001600160401b038083168185168083038211156157095761570961587b565b01949350505050565b600060ff821660ff84168060ff0382111561572f5761572f61587b565b019392505050565b60006001600160601b038083168185168083038211156157095761570961587b565b60008261577457634e487b7160e01b81526012600452602481fd5b500490565b60008160001904831182151516156157935761579361587b565b500290565b600060ff821660ff84168160ff04811182151516156157b9576157b961587b565b029392505050565b6000828210156157d3576157d361587b565b500390565b600060ff821660ff8416808210156157f2576157f261587b565b90039392505050565b60005b838110156158165781810151838201526020016157fe565b83811115615825576000848401525b50505050565b60028104600182168061583f57607f821691505b60208210811415614c1c57634e487b7160e01b600052602260045260246000fd5b60006000198214156158745761587461587b565b5060010190565b634e487b7160e01b600052601160045260246000fd5b634e487b7160e01b600052604160045260246000fd5b6001600160a01b0381168114610aaa57600080fdfe416464726573733a206c6f772d6c6576656c2063616c6c20776974682076616c7565206661696c6564a2646970667358221220be6063d4def3f6afa4ec4126f89f0d5407fdddcbcdfb58c103734b71be68cc4564736f6c6343000802003343434275726e526f757465723a2061646472657373206973207a65726f000000",
  "devdoc": {
    "kind": "dev",
    "methods": {
      "burnProof(bytes4,bytes,bytes,bytes4,uint256,bytes,uint256,bytes,uint256[],uint256[])": {
        "details": "Makes isTransferred flag true for the paid requests",
        "params": {
          "_blockNumber": "Height of the block containing the burn transaction",
          "_burnReqIndexes": "Indexes of requests that locker wants to provide proof for them",
          "_index": "Index of transaction containing the burn transaction in the block",
          "_intermediateNodes": "Merkle inclusion proof for transaction containing the burn transaction",
          "_lockerLockingScript": "Locker's locking script (on Bitcoin) that this burn request belongs to",
          "_locktime": "Lock time of the transaction containing the burn transaction",
          "_version": "Version of the transaction containing the burn transaction",
          "_vin": "Inputs of the transaction containing the burn transaction",
          "_vout": "Outputs of the transaction containing the burn transaction",
          "_voutIndexes": "Indexes of outputs that were used to pay burn requests (_voutIndexes[i] belongs to _burnReqIndexes[i])"
        },
        "returns": {
          "_0": ""
        }
      },
      "ccBurn(uint256,bytes,uint8,bytes)": {
        "details": "After submitting the burn request, lockers have a limited time                                     to send BTC and provide burn proof",
        "params": {
          "_amount": "Amount of teleBTC that user wants to burn",
          "_lockerLockingScript": "Locking script of locker that should execute the burn request",
          "_userScript": "User's bitcoin script type"
        },
        "returns": {
          "_burntAmount": "               Amount of teleBTC that user will receive (after reducing fees)"
        }
      },
      "constructor": {
        "params": {
          "_bitcoinFee": "Fee of submitting a transaction on Bitcoin",
          "_lockers": "Address of lockers contract",
          "_protocolPercentageFee": "Percentage of tokens that user pays to protocol for burning",
          "_relay": "Address of relay contract",
          "_slasherPercentageReward": "Percentage of tokens that slasher receives after slashing a locker",
          "_teleBTC": "Address of teleBTC contract",
          "_transferDeadline": "Dealine of sending BTC to user (aster submitting a burn request)",
          "_treasury": "Address of the treasury of the protocol"
        }
      },
      "disputeBurn(bytes,uint256[])": {
        "params": {
          "_indices": "Array of indices of the requests whose deadline has passed",
          "_lockerLockingScript": "locker's locking script that the unpaid request belongs to"
        },
        "returns": {
          "_0": "True if dispute is successful"
        }
      },
      "disputeLocker(bytes,bytes4[],bytes,bytes,bytes,bytes,bytes4[],bytes,uint256[])": {
        "details": "Input tx is a malicious tx which shows that locker spent BTC                                         Output tx is the tx that was spent by locker in input tx                                         Output tx --> money goes to locker --> Input tx --> locker steals the funds",
        "params": {
          "_indexesAndBlockNumbers": "Indices of malicious input in input tx, input tx in block and block number of input tx",
          "_inputIntermediateNodes": "Merkle inclusion proof for the malicious transaction",
          "_inputVin": "Inputs of the malicious transaction",
          "_inputVout": "Outputs of the malicious transaction",
          "_lockerLockingScript": "Suspicious locker's locking script",
          "_locktimes": "Locktimes of input and output tx",
          "_outputVin": "Inputs of the spent transaction",
          "_outputVout": "Outputs of the spent transaction",
          "_versions": "Versions of input and output tx"
        },
        "returns": {
          "_0": "True if dispute is successful"
        }
      },
      "isTransferred(address,uint256)": {
        "params": {
          "_index": "The index of the request for the locker",
          "_lockerTargetAddress": "Locker's address on the target chain"
        }
      },
      "owner()": {
        "details": "Returns the address of the current owner."
      },
      "renounceOwnership()": {
        "details": "Leaves the contract without owner. It will not be possible to call `onlyOwner` functions anymore. Can only be called by the current owner. NOTE: Renouncing ownership will leave the contract without an owner, thereby removing any functionality that is only available to the owner."
      },
      "setBitcoinFee(uint256)": {
        "details": "Only owner can call this",
        "params": {
          "_bitcoinFee": "The new Bitcoin transaction fee"
        }
      },
      "setLockers(address)": {
        "details": "Only owner can call this",
        "params": {
          "_lockers": "The new lockers contract address"
        }
      },
      "setProtocolPercentageFee(uint256)": {
        "details": "Only owner can call this",
        "params": {
          "_protocolPercentageFee": "The new protocol percentage fee"
        }
      },
      "setRelay(address)": {
        "details": "Only owner can call this",
        "params": {
          "_relay": "The new relay contract address"
        }
      },
      "setSlasherPercentageReward(uint256)": {
        "details": "Only owner can call this",
        "params": {
          "_slasherPercentageReward": "The new slasher percentage reward"
        }
      },
      "setTeleBTC(address)": {
        "details": "Only owner can call this",
        "params": {
          "_teleBTC": "The new teleBTC contract address"
        }
      },
      "setTransferDeadline(uint256)": {
        "details": "Only owner can call this                                     Deadline should be greater than relay finalization parameter",
        "params": {
          "_transferDeadline": "The new transfer deadline"
        }
      },
      "setTreasury(address)": {
        "details": "Only owner can call this",
        "params": {
          "_treasury": "The new treasury address"
        }
      },
      "transferOwnership(address)": {
        "details": "Transfers ownership of the contract to a new account (`newOwner`). Can only be called by the current owner."
      }
    },
    "version": 1
  },
  "userdoc": {
    "events": {
      "CCBurn(address,bytes,uint8,uint256,uint256,address,bytes,uint256,uint256)": {
        "notice": "Emits when a burn request gets submitted"
      },
      "LockerDispute(address,bytes,uint256,bytes32,uint256)": {
        "notice": "Emits when a locker gets slashed for withdrawing BTC without proper reason"
      },
      "NewBitcoinFee(uint256,uint256)": {
        "notice": "Emits when changes made to bitcoin fee"
      },
      "NewLockers(address,address)": {
        "notice": "Emits when changes made to lockers address"
      },
      "NewProtocolPercentageFee(uint256,uint256)": {
        "notice": "Emits when changes made to percentage fee"
      },
      "NewRelay(address,address)": {
        "notice": "Emits when changes made to relay address"
      },
      "NewSlasherPercentageFee(uint256,uint256)": {
        "notice": "Emits when changes made to slasher percentage fee"
      },
      "NewTeleBTC(address,address)": {
        "notice": "Emits when changes made to TeleBTC address"
      },
      "NewTransferDeadline(uint256,uint256)": {
        "notice": "Emits when changes made to transfer deadline"
      },
      "NewTreasury(address,address)": {
        "notice": "Emits when changes made to treasury address"
      },
      "PaidCCBurn(address,uint256,bytes32,uint256)": {
        "notice": "Emits when a burn proof is provided"
      }
    },
    "kind": "user",
    "methods": {
      "burnProof(bytes4,bytes,bytes,bytes4,uint256,bytes,uint256,bytes,uint256[],uint256[])": {
        "notice": "Checks the correctness of burn proof"
      },
      "ccBurn(uint256,bytes,uint8,bytes)": {
        "notice": "Burns teleBTC and records the burn request"
      },
      "constructor": {
        "notice": "Handles cross-chain burn requests"
      },
      "disputeBurn(bytes,uint256[])": {
        "notice": "Slashes a locker if she did not pay a cc burn request before its deadline"
      },
      "disputeLocker(bytes,bytes4[],bytes,bytes,bytes,bytes,bytes4[],bytes,uint256[])": {
        "notice": "Slashes a locker if they issue a tx that doesn't match any burn request"
      },
      "isTransferred(address,uint256)": {
        "notice": "Shows if a burn request has been done or not"
      },
      "setBitcoinFee(uint256)": {
        "notice": "Changes Bitcoin transaction fee"
      },
      "setLockers(address)": {
        "notice": "Changes lockers contract address"
      },
      "setProtocolPercentageFee(uint256)": {
        "notice": "Changes protocol percentage fee for burning tokens"
      },
      "setRelay(address)": {
        "notice": "Changes relay contract address"
      },
      "setSlasherPercentageReward(uint256)": {
        "notice": "Changes slasher percentage reward for disputing lockers"
      },
      "setTeleBTC(address)": {
        "notice": "Changes teleBTC contract address"
      },
      "setTransferDeadline(uint256)": {
        "notice": "Changes deadline of executing burn requests"
      },
      "setTreasury(address)": {
        "notice": "Changes protocol treasury address"
      }
    },
    "version": 1
  },
  "storageLayout": {
    "storage": [
      {
        "astId": 807,
        "contract": "contracts/routers/CCBurnRouter.sol:CCBurnRouter",
        "label": "_owner",
        "offset": 0,
        "slot": "0",
        "type": "t_address"
      },
      {
        "astId": 1634,
        "contract": "contracts/routers/CCBurnRouter.sol:CCBurnRouter",
        "label": "_status",
        "offset": 0,
        "slot": "1",
        "type": "t_uint256"
      },
      {
        "astId": 17679,
        "contract": "contracts/routers/CCBurnRouter.sol:CCBurnRouter",
        "label": "relay",
        "offset": 0,
        "slot": "2",
        "type": "t_address"
      },
      {
        "astId": 17682,
        "contract": "contracts/routers/CCBurnRouter.sol:CCBurnRouter",
        "label": "lockers",
        "offset": 0,
        "slot": "3",
        "type": "t_address"
      },
      {
        "astId": 17685,
        "contract": "contracts/routers/CCBurnRouter.sol:CCBurnRouter",
        "label": "teleBTC",
        "offset": 0,
        "slot": "4",
        "type": "t_address"
      },
      {
        "astId": 17688,
        "contract": "contracts/routers/CCBurnRouter.sol:CCBurnRouter",
        "label": "treasury",
        "offset": 0,
        "slot": "5",
        "type": "t_address"
      },
      {
        "astId": 17691,
        "contract": "contracts/routers/CCBurnRouter.sol:CCBurnRouter",
        "label": "transferDeadline",
        "offset": 0,
        "slot": "6",
        "type": "t_uint256"
      },
      {
        "astId": 17694,
        "contract": "contracts/routers/CCBurnRouter.sol:CCBurnRouter",
        "label": "protocolPercentageFee",
        "offset": 0,
        "slot": "7",
        "type": "t_uint256"
      },
      {
        "astId": 17697,
        "contract": "contracts/routers/CCBurnRouter.sol:CCBurnRouter",
        "label": "slasherPercentageReward",
        "offset": 0,
        "slot": "8",
        "type": "t_uint256"
      },
      {
        "astId": 17700,
        "contract": "contracts/routers/CCBurnRouter.sol:CCBurnRouter",
        "label": "bitcoinFee",
        "offset": 0,
        "slot": "9",
        "type": "t_uint256"
      },
      {
        "astId": 17706,
        "contract": "contracts/routers/CCBurnRouter.sol:CCBurnRouter",
        "label": "burnRequests",
        "offset": 0,
        "slot": "10",
        "type": "t_mapping(t_address,t_array(t_struct(burnRequest)22691_storage)dyn_storage)"
      },
      {
        "astId": 17710,
        "contract": "contracts/routers/CCBurnRouter.sol:CCBurnRouter",
        "label": "burnRequestCounter",
        "offset": 0,
        "slot": "11",
        "type": "t_mapping(t_address,t_uint256)"
      },
      {
        "astId": 17715,
        "contract": "contracts/routers/CCBurnRouter.sol:CCBurnRouter",
        "label": "isUsedAsBurnProof",
        "offset": 0,
        "slot": "12",
        "type": "t_mapping(t_bytes32,t_bool)"
      }
    ],
    "types": {
      "t_address": {
        "encoding": "inplace",
        "label": "address",
        "numberOfBytes": "20"
      },
      "t_array(t_struct(burnRequest)22691_storage)dyn_storage": {
        "base": "t_struct(burnRequest)22691_storage",
        "encoding": "dynamic_array",
        "label": "struct ICCBurnRouter.burnRequest[]",
        "numberOfBytes": "32"
      },
      "t_bool": {
        "encoding": "inplace",
        "label": "bool",
        "numberOfBytes": "1"
      },
      "t_bytes32": {
        "encoding": "inplace",
        "label": "bytes32",
        "numberOfBytes": "32"
      },
      "t_bytes_storage": {
        "encoding": "bytes",
        "label": "bytes",
        "numberOfBytes": "32"
      },
      "t_enum(ScriptTypes)23797": {
        "encoding": "inplace",
        "label": "enum ScriptTypes",
        "numberOfBytes": "1"
      },
      "t_mapping(t_address,t_array(t_struct(burnRequest)22691_storage)dyn_storage)": {
        "encoding": "mapping",
        "key": "t_address",
        "label": "mapping(address => struct ICCBurnRouter.burnRequest[])",
        "numberOfBytes": "32",
        "value": "t_array(t_struct(burnRequest)22691_storage)dyn_storage"
      },
      "t_mapping(t_address,t_uint256)": {
        "encoding": "mapping",
        "key": "t_address",
        "label": "mapping(address => uint256)",
        "numberOfBytes": "32",
        "value": "t_uint256"
      },
      "t_mapping(t_bytes32,t_bool)": {
        "encoding": "mapping",
        "key": "t_bytes32",
        "label": "mapping(bytes32 => bool)",
        "numberOfBytes": "32",
        "value": "t_bool"
      },
      "t_struct(burnRequest)22691_storage": {
        "encoding": "inplace",
        "label": "struct ICCBurnRouter.burnRequest",
        "members": [
          {
            "astId": 22675,
            "contract": "contracts/routers/CCBurnRouter.sol:CCBurnRouter",
            "label": "amount",
            "offset": 0,
            "slot": "0",
            "type": "t_uint256"
          },
          {
            "astId": 22677,
            "contract": "contracts/routers/CCBurnRouter.sol:CCBurnRouter",
            "label": "burntAmount",
            "offset": 0,
            "slot": "1",
            "type": "t_uint256"
          },
          {
            "astId": 22679,
            "contract": "contracts/routers/CCBurnRouter.sol:CCBurnRouter",
            "label": "sender",
            "offset": 0,
            "slot": "2",
            "type": "t_address"
          },
          {
            "astId": 22681,
            "contract": "contracts/routers/CCBurnRouter.sol:CCBurnRouter",
            "label": "userScript",
            "offset": 0,
            "slot": "3",
            "type": "t_bytes_storage"
          },
          {
            "astId": 22683,
            "contract": "contracts/routers/CCBurnRouter.sol:CCBurnRouter",
            "label": "deadline",
            "offset": 0,
            "slot": "4",
            "type": "t_uint256"
          },
          {
            "astId": 22685,
            "contract": "contracts/routers/CCBurnRouter.sol:CCBurnRouter",
            "label": "isTransferred",
            "offset": 0,
            "slot": "5",
            "type": "t_bool"
          },
          {
            "astId": 22688,
            "contract": "contracts/routers/CCBurnRouter.sol:CCBurnRouter",
            "label": "scriptType",
            "offset": 1,
            "slot": "5",
            "type": "t_enum(ScriptTypes)23797"
          },
          {
            "astId": 22690,
            "contract": "contracts/routers/CCBurnRouter.sol:CCBurnRouter",
            "label": "requestIdOfLocker",
            "offset": 0,
            "slot": "6",
            "type": "t_uint256"
          }
        ],
        "numberOfBytes": "224"
      },
      "t_uint256": {
        "encoding": "inplace",
        "label": "uint256",
        "numberOfBytes": "32"
      }
    }
  }
}