{
  "address": "0x31fDe00dFb62FAAdc097cFd24254Ae9e06Bf0D44",
  "abi": [
    {
      "inputs": [
        {
          "internalType": "bytes32",
          "name": "_msgHash",
          "type": "bytes32"
        },
        {
          "internalType": "bytes32",
          "name": "_r",
          "type": "bytes32"
        },
        {
          "internalType": "bytes32",
          "name": "_s",
          "type": "bytes32"
        },
        {
          "internalType": "uint8",
          "name": "_v",
          "type": "uint8"
        }
      ],
      "name": "_verifySig",
      "outputs": [
        {
          "internalType": "address",
          "name": "_signer",
          "type": "address"
        }
      ],
      "stateMutability": "view",
      "type": "function"
    }
  ],
  "transactionHash": "0x374e7e147ef087efc6de83ab61c253386bc89761209316094f7c24612e61241c",
  "args": [],
  "numDeployments": 1,
  "solcInputHash": "b51af653bf325d92b77dbf969336e4ba",
  "bytecode": "0x612a0661003a600b82828239805160001a60731461002d57634e487b7160e01b600052600060045260246000fd5b30600052607381538281f3fe73000000000000000000000000000000000000000030146080604052600436106100405760003560e01c806319e52d5414610045578063dba71cdf14610075575b600080fd5b61005861005336600461250b565b6100a3565b6040516001600160a01b0390911681526020015b60405180910390f35b81801561008157600080fd5b50610095610090366004612550565b610167565b60405190815260200161006c565b6040805160008082526020820180845287905260ff841692820192909252606081018590526080810184905260019060a0016020604051602081039080840390855afa1580156100f7573d6000803e3d6000fd5b5050604051601f1901519150506001600160a01b03811661015f5760405162461bcd60e51b815260206004820152601e60248201527f45786368616e6765526f757465724c69623a20696e76616c696420736967000060448201526064015b60405180910390fd5b949350505050565b6000806101868a600001518b602001518c604001518d6060015161065c565b600081815260208b9052604090206005015490915060ff16156101eb5760405162461bcd60e51b815260206004820152601f60248201527f45786368616e6765526f757465724c69623a20616c72656164792075736564006044820152606401610156565b61024e60405180610140016040528060008152602001600081526020016000815260200160001515815260200160006001600160a01b03168152602001600081526020016000151581526020016060815260200160008152602001600081525090565b606061025e8c60400151876107c5565b67ffffffffffffffff909116602084015280519091506041146102c35760405162461bcd60e51b815260206004820152601e60248201527f45786368616e6765526f757465724c69623a20696e76616c6964206c656e00006044820152606401610156565b60008260200151116103175760405162461bcd60e51b815260206004820152601d60248201527f45786368616e6765526f757465724c69623a207a65726f20696e7075740000006044820152606401610156565b61032081610943565b600084815260208c90526040902061ffff9190911690556103408161095e565b600084815260208c90526040902062ffffff9190911660039091015561036581610979565b600084815260208c90526040902060ff9190911660049091015561038881610993565b60ff1682526000610398826109a2565b90506103a3826109bd565b6dffffffffffffffffffffffffffff166040840152600160608401526103c8826109d8565b6001600160a01b03166080840152604080516002808252606082018352909160208301908036833750505060e0840181905280518b919060009061041c57634e487b7160e01b600052603260045260246000fd5b60200260200101906001600160a01b031690816001600160a01b031681525050808360e0015160018151811061046257634e487b7160e01b600052603260045260246000fd5b60200260200101906001600160a01b031690816001600160a01b031681525050600061048d836109e8565b62ffffff16905083602001518111156104e85760405162461bcd60e51b815260206004820152601c60248201527f45786368616e6765526f757465724c69623a2077726f6e6720666565000000006044820152606401610156565b60a084018190526104f8836109f8565b60ff168461012001818152505060018460c0019015159081151581525050838d600087815260200190815260200160002060008201518160000155602082015181600101556040820151816002015560608201518160030160006101000a81548160ff02191690831515021790555060808201518160030160016101000a8154816001600160a01b0302191690836001600160a01b0316021790555060a0820151816004015560c08201518160050160006101000a81548160ff02191690831515021790555060e08201518160060190805190602001906105da929190612398565b506101008201516007820155610120909101516008909101556105fe8e8887610a07565b61064a5760405162461bcd60e51b815260206004820152601d60248201527f45786368616e6765526f757465723a206e6f742066696e616c697a65640000006044820152606401610156565b50929c9b505050505050505050505050565b60008061067361066e825b8790610b26565b610b4c565b905061068462ffffff198216610c95565b156106d15760405162461bcd60e51b815260206004820152601a60248201527f426974636f696e48656c7065723a2076696e206973206e756c6c0000000000006044820152606401610156565b60006002878787876040516020016106ec94939291906126d6565b60408051601f198184030181529082905261070691612742565b602060405180830381855afa158015610723573d6000803e3d6000fd5b5050506040513d601f19601f8201168201806040525081019061074691906124f3565b9050600060028260405160200161075f91815260200190565b60408051601f198184030181529082905261077991612742565b602060405180830381855afa158015610796573d6000803e3d6000fd5b5050506040513d601f19601f820116820180604052508101906107b991906124f3565b98975050505050505050565b60006060816107db6107d682610667565b610ca4565b90506107ec62ffffff198216610c95565b156108395760405162461bcd60e51b815260206004820152601b60248201527f426974636f696e48656c7065723a20766f7574206973206e756c6c00000000006044820152606401610156565b600080600080600061084c866000610d97565b67ffffffffffffffff16905060005b818110156109355761086d8782610ee0565b955061087886611004565b945061088386611062565b935061088e846110ad565b925062ffffff19808416141561091157896040516020016108af9190612742565b604051602081830303815290604052805190602001206108d48662ffffff19166111d5565b6040516020016108e49190612742565b60405160208183030381529060405280519060200120141561090c5761090986611225565b98505b610923565b61092062ffffff1984166111d5565b97505b8061092d81612960565b91505061085b565b505050505050509250929050565b600080610953836000600161124a565b600201519392505050565b60008061096e83603e604061124a565b600301519392505050565b60008061098883601b8061124a565b600101519392505050565b6000806109888360028061124a565b6000806109b283601c602f61124a565b601401519392505050565b6000806109cd836030603d61124a565b600e01519392505050565b6000806109b2836003601661124a565b60008061096e836017601961124a565b60008061098883601a8061124a565b600080610a188486608001516112cf565b905080341015610a6a5760405162461bcd60e51b815260206004820152601a60248201527f45786368616e6765526f757465724c69623a206c6f77206665650000000000006044820152606401610156565b6000610af1858588608001518960a001518a60c00151604051602401610a9394939291906127a5565b60408051601f198184030181529190526020810180517bffffffffffffffffffffffffffffffffffffffffffffffffffffffff167f4354da25000000000000000000000000000000000000000000000000000000001790528461136a565b9050610b0633610b0184346128cd565b611390565b80806020019051810190610b1a91906124d3565b925050505b9392505050565b815160009060208401610b4164ffffffffff851682846114ae565b925050505b92915050565b60008181610b62815b62ffffff198416906114f2565b50601884901c6001600160601b0316610b825762ffffff195b9250610c8e565b6000610b8f856000610d97565b9050601885901c6001600160601b031667ffffffffffffffff8216610bbd5762ffffff195b94505050610c8e565b6000610bc8836115f4565b60ff16905060005b8367ffffffffffffffff16811015610c4557828210610bfa5762ffffff195b965050505050610c8e565b6000610c1a610c0984866128cd565b60055b62ffffff198c169190611650565b9050610c2581611684565b610c2f9084612819565b9250508080610c3d90612960565b915050610bd0565b50818114610c5d5762ffffff195b9550505050610c8e565b610c8860065b60d81b7affffffffffffffffffffffffffffffffffffffffffffffff00000089161790565b95505050505b5050919050565b62ffffff19818116145b919050565b60008181610cb181610b55565b50601884901c6001600160601b0316610cce5762ffffff19610b7b565b6000610cdb856000610d97565b9050601885901c6001600160601b031667ffffffffffffffff8216610d045762ffffff19610bb4565b6000610d0f836115f4565b60ff16905060005b8367ffffffffffffffff16811015610d7b57828210610d3a5762ffffff19610bef565b6000610d50610d4984866128cd565b600e610c0c565b9050610d5b816116d9565b610d659084612819565b9250508080610d7390612960565b915050610d17565b50818114610d8d5762ffffff19610c53565b610c88600f610c63565b600080610dac62ffffff198516846001611723565b905060fc8111610dc757610dbf81611753565b915050610b46565b8060fd1415610e2d57610df5610df0610de1856001612819565b62ffffff1987169060026117d7565b611753565b9150610e00826115f4565b60ff16600314610e2857610e26610e2162ffffff1986168560036000611928565b611998565b505b610ed9565b8060fe1415610e8257610e56610df0610e47856001612819565b62ffffff1987169060046117d7565b9150610e61826115f4565b60ff16600514610e2857610e26610e2162ffffff1986168560056000611928565b8060ff1415610ed957610eab610df0610e9c856001612819565b62ffffff1987169060086117d7565b9150610eb6826115f4565b60ff16600914610ed957610ed7610e2162ffffff1986168560096000611928565b505b5092915050565b600082600f610eee81610b55565b506000610efc866000610d97565b67ffffffffffffffff169050601886901c6001600160601b0316818610610f655760405162461bcd60e51b815260206004820152601160248201527f566f75742072656164206f76657272756e0000000000000000000000000000006044820152606401610156565b6000610f70836115f4565b60ff1690506000805b88811015610fc657610f9d610f8e84866128cd565b62ffffff198c1690600e611650565b9150610fa8826116d9565b610fb29084612819565b9250610fbf600182612819565b9050610f79565b50610fd4610d4983856128cd565b90506000610fe1826116d9565b9050610ff662ffffff198b168483600d611928565b9a9950505050505050505050565b600081600d61101281610b55565b506000611020856008610d97565b905061105961102e826115f4565b61103990600861285d565b60ff1667ffffffffffffffff831660075b62ffffff198916929190611928565b95945050505050565b600081600d61107081610b55565b50600061107e856008610d97565b905061105960088261108f846115f4565b60ff1661109c9190612831565b67ffffffffffffffff16600761104a565b60008160076110bb81610b55565b5060006110c9856000610d97565b905060006110e3610df062ffffff19881660026001611723565b90506110f762ffffff198716600180611723565b606a14158061112c575061110c6002836128e4565b67ffffffffffffffff1661112962ffffff19881660026001611723565b14155b1561113b5762ffffff19610bb4565b604d8267ffffffffffffffff1611158015611161575060048267ffffffffffffffff1610155b6111ad5760405162461bcd60e51b815260206004820152601f60248201527f426974636f696e48656c7065723a20696e76616c6964206f7072657475726e006044820152606401610156565b6111cb62ffffff198716600367ffffffffffffffff8416600c611928565b9695505050505050565b60606000806111ed8460181c6001600160601b031690565b60405193508392506001600160601b031690506112148461120f846020612819565b611a1f565b508181016020016040529052919050565b600081600d61123381610b55565b5061015f610df062ffffff198616600060086117d7565b60606000835b61125b846001612819565b8110156112c65785818151811061128257634e487b7160e01b600052603260045260246000fd5b602001015160f81c60f81b915082826040516020016112a292919061275e565b604051602081830303815290604052925080806112be90612960565b915050611250565b50509392505050565b6040517fd0a8973900000000000000000000000000000000000000000000000000000000815260048101829052600060248201819052906001600160a01b0384169063d0a897399060440160206040518083038186803b15801561133257600080fd5b505afa158015611346573d6000803e3d6000fd5b505050506040513d601f19601f82011682018060405250810190610b1f91906124f3565b606061015f8484846040518060600160405280602981526020016129a860299139611ba6565b804710156113e05760405162461bcd60e51b815260206004820152601d60248201527f416464726573733a20696e73756666696369656e742062616c616e63650000006044820152606401610156565b6000826001600160a01b03168260405160006040518083038185875af1925050503d806000811461142d576040519150601f19603f3d011682016040523d82523d6000602084013e611432565b606091505b50509050806114a95760405162461bcd60e51b815260206004820152603a60248201527f416464726573733a20756e61626c6520746f2073656e642076616c75652c207260448201527f6563697069656e74206d617920686176652072657665727465640000000000006064820152608401610156565b505050565b6000806114bb8385612819565b90506040518111156114cb575060005b806114dd5762ffffff19915050610b1f565b5050606092831b9190911790911b1760181b90565b60006114fe8383611ce5565b6115ed57600061151d6115118560d81c90565b64ffffffffff16611d08565b91505060006115328464ffffffffff16611d08565b6040517f5479706520617373657274696f6e206661696c65642e20476f7420307800000060208201527fffffffffffffffffffff0000000000000000000000000000000000000000000060b086811b8216603d8401527f2e20457870656374656420307800000000000000000000000000000000000000604784015283901b16605482015290925060009150605e015b60405160208183030381529060405290508060405162461bcd60e51b815260040161015691906127d5565b5090919050565b600060fc8267ffffffffffffffff161161161057506001610c9f565b61ffff8267ffffffffffffffff161161162b57506003610c9f565b63ffffffff8267ffffffffffffffff161161164857506005610c9f565b506009610c9f565b600061015f848461166a8760181c6001600160601b031690565b6001600160601b031661167d91906128cd565b8585611928565b600081600561169281610b55565b5060006116a0856024610d97565b90508067ffffffffffffffff166116b6826115f4565b60ff166116c39190612819565b6116ce906024612819565b611059906004612819565b600081600e6116e781610b55565b5060006116f5856008610d97565b90508067ffffffffffffffff1661170b826115f4565b60ff166117189190612819565b611059906008612819565b600061173082602061290d565b61173b9060086128a4565b60ff16611749858585611db4565b901c949350505050565b600067ffffffffffffffff8211156117d35760405162461bcd60e51b815260206004820152602660248201527f53616665436173743a2076616c756520646f65736e27742066697420696e203660448201527f34206269747300000000000000000000000000000000000000000000000000006064820152608401610156565b5090565b600061015f6117e7858585611db4565b600881811c7eff00ff00ff00ff00ff00ff00ff00ff00ff00ff00ff00ff00ff00ff00ff00ff167fff00ff00ff00ff00ff00ff00ff00ff00ff00ff00ff00ff00ff00ff00ff00ff009290911b9190911617601081811c7dffff0000ffff0000ffff0000ffff0000ffff0000ffff0000ffff0000ffff167fffff0000ffff0000ffff0000ffff0000ffff0000ffff0000ffff0000ffff00009290911b9190911617602081811c7bffffffff00000000ffffffff00000000ffffffff00000000ffffffff167fffffffff00000000ffffffff00000000ffffffff00000000ffffffff000000009290911b9190911617604081811c77ffffffffffffffff0000000000000000ffffffffffffffff167fffffffffffffffff0000000000000000ffffffffffffffff00000000000000009290911b9190911617608081811c91901b1790565b60008061193e8660781c6001600160601b031690565b6001600160601b0316905061195286611f29565b8461195d8784612819565b6119679190612819565b111561197a5762ffffff1991505061015f565b6119848582612819565b90506111cb8364ffffffffff1682866114ae565b606060006119cc6119c7826119b9601887901c6001600160601b0316611f6a565b62ffffff1987169190611723565b611d08565b6040517f4e6f6e2d6d696e696d616c2076617220696e742e20476f74203078000000000060208201526dffffffffffffffffffffffffffff19607083901b16603b82015290925060009150604d016115c2565b6000611a2a83611fe3565b611a9c5760405162461bcd60e51b815260206004820152602860248201527f54797065644d656d566965772f636f7079546f202d204e756c6c20706f696e7460448201527f65722064657265660000000000000000000000000000000000000000000000006064820152608401610156565b611aa583611ff5565b611b175760405162461bcd60e51b815260206004820152602b60248201527f54797065644d656d566965772f636f7079546f202d20496e76616c696420706f60448201527f696e7465722064657265660000000000000000000000000000000000000000006064820152608401610156565b6000611b2c8460181c6001600160601b031690565b6001600160601b031690506000611b4c8560781c6001600160601b031690565b6001600160601b031690506000604051905084811115611b6c5760206060fd5b8285848460045afa506111cb611b828760d81c90565b70ffffffffff000000000000000000000000606091821b168717901b841760181b90565b606082471015611c1e5760405162461bcd60e51b815260206004820152602660248201527f416464726573733a20696e73756666696369656e742062616c616e636520666f60448201527f722063616c6c00000000000000000000000000000000000000000000000000006064820152608401610156565b843b611c6c5760405162461bcd60e51b815260206004820152601d60248201527f416464726573733a2063616c6c20746f206e6f6e2d636f6e74726163740000006044820152606401610156565b600080866001600160a01b03168587604051611c889190612742565b60006040518083038185875af1925050503d8060008114611cc5576040519150601f19603f3d011682016040523d82523d6000602084013e611cca565b606091505b5091509150611cda828286612033565b979650505050505050565b60008164ffffffffff16611cf98460d81c90565b64ffffffffff16149392505050565b600080601f5b600f8160ff161115611d66576000611d278260086128a4565b60ff1685901c9050611d388161206c565b61ffff16841793508160ff16601014611d5357601084901b93505b50611d5f60018261290d565b9050611d0e565b50600f5b60ff8160ff161015611dae5760ff600882021684901c611d898161206c565b61ffff16831792508160ff16600014611da457601083901b92505b5060001901611d6a565b50915091565b600060ff8216611dc657506000610b1f565b611dd98460181c6001600160601b031690565b6001600160601b0316611def60ff841685612819565b1115611e5357611e3a611e0b8560781c6001600160601b031690565b6001600160601b0316611e278660181c6001600160601b031690565b6001600160601b0316858560ff1661209c565b60405162461bcd60e51b815260040161015691906127d5565b60208260ff161115611ecd5760405162461bcd60e51b815260206004820152603a60248201527f54797065644d656d566965772f696e646578202d20417474656d70746564207460448201527f6f20696e646578206d6f7265207468616e2033322062797465730000000000006064820152608401610156565b600882026000611ee68660781c6001600160601b031690565b6001600160601b0316905060007f800000000000000000000000000000000000000000000000000000000000000060001984011d91909501511695945050505050565b6000611f3e8260181c6001600160601b031690565b611f518360781c6001600160601b031690565b611f5b9190612882565b6001600160601b031692915050565b600060ff8211156117d35760405162461bcd60e51b815260206004820152602560248201527f53616665436173743a2076616c756520646f65736e27742066697420696e203860448201527f20626974730000000000000000000000000000000000000000000000000000006064820152608401610156565b6000611fee82610c95565b1592915050565b60006120018260d81c90565b64ffffffffff1664ffffffffff141561201c57506000610c9f565b600061202783611f29565b60405110199392505050565b60608315612042575081610b1f565b8251156120525782518084602001fd5b8160405162461bcd60e51b815260040161015691906127d5565b600061207e60048360ff16901c61222c565b60ff161760081b62ffff00166120938261222c565b60ff1617919050565b606060006120a986611d08565b91505060006120b786611d08565b91505060006120c586611d08565b91505060006120d386611d08565b604080517f54797065644d656d566965772f696e646578202d204f76657272616e2074686560208201527f20766965772e20536c6963652069732061742030780000000000000000000000818301527fffffffffffff000000000000000000000000000000000000000000000000000060d098891b811660558301527f2077697468206c656e6774682030780000000000000000000000000000000000605b830181905297891b8116606a8301527f2e20417474656d7074656420746f20696e646578206174206f6666736574203060708301527f7800000000000000000000000000000000000000000000000000000000000000609083015295881b861660918201526097810196909652951b90921660a684015250507f2e0000000000000000000000000000000000000000000000000000000000000060ac8201528151808203608d01815260ad90910190915295945050505050565b600060f08083179060ff82161415612248576030915050610c9f565b8060ff1660f1141561225e576031915050610c9f565b8060ff1660f21415612274576032915050610c9f565b8060ff1660f3141561228a576033915050610c9f565b8060ff1660f414156122a0576034915050610c9f565b8060ff1660f514156122b6576035915050610c9f565b8060ff1660f614156122cc576036915050610c9f565b8060ff1660f714156122e2576037915050610c9f565b8060ff1660f814156122f8576038915050610c9f565b8060ff1660f9141561230e576039915050610c9f565b8060ff1660fa1415612324576061915050610c9f565b8060ff1660fb141561233a576062915050610c9f565b8060ff1660fc1415612350576063915050610c9f565b8060ff1660fd1415612366576064915050610c9f565b8060ff1660fe141561237c576065915050610c9f565b8060ff1660ff1415612392576066915050610c9f565b50919050565b828054828255906000526020600020908101928215612405579160200282015b8281111561240557825182547fffffffffffffffffffffffff0000000000000000000000000000000000000000166001600160a01b039091161782556020909201916001909101906123b8565b506117d39291505b808211156117d3576000815560010161240d565b80356001600160a01b0381168114610c9f57600080fd5b80357fffffffff0000000000000000000000000000000000000000000000000000000081168114610c9f57600080fd5b600082601f830112612478578081fd5b813567ffffffffffffffff81111561249257612492612991565b6124a5601f8201601f19166020016127e8565b8181528460208386010111156124b9578283fd5b816020850160208301379081016020019190915292915050565b6000602082840312156124e4578081fd5b81518015158114610b1f578182fd5b600060208284031215612504578081fd5b5051919050565b60008060008060808587031215612520578283fd5b843593506020850135925060408501359150606085013560ff81168114612545578182fd5b939692955090935050565b600080600080600080600080610100898b03121561256c578384fd5b883567ffffffffffffffff80821115612583578586fd5b908a019060e0828d031215612596578586fd5b6125a060e06127e8565b6125a983612438565b81526020830135828111156125bc578788fd5b6125c88e828601612468565b6020830152506040830135828111156125df578788fd5b6125eb8e828601612468565b6040830152506125fd60608401612438565b60608201526080830135608082015260a08301358281111561261d578788fd5b6126298e828601612468565b60a08301525060c08381013590820152995060208b0135985060408b0135975061265560608c01612421565b965061266360808c01612421565b955060a08b0135945060c08b013591508082111561267f578384fd5b5061268c8b828c01612468565b92505061269b60e08a01612421565b90509295985092959890939650565b600081518084526126c2816020860160208601612930565b601f01601f19169290920160200192915050565b60007fffffffff0000000000000000000000000000000000000000000000000000000080871683528551612711816004860160208a01612930565b855190840190612728816004840160208a01612930565b919094169301600481019390935250506008019392505050565b60008251612754818460208701612930565b9190910192915050565b60008351612770818460208801612930565b7fff00000000000000000000000000000000000000000000000000000000000000939093169190920190815260010192915050565b6000858252846020830152608060408301526127c460808301856126aa565b905082606083015295945050505050565b600060208252610b1f60208301846126aa565b604051601f8201601f1916810167ffffffffffffffff8111828210171561281157612811612991565b604052919050565b6000821982111561282c5761282c61297b565b500190565b600067ffffffffffffffff8083168185168083038211156128545761285461297b565b01949350505050565b600060ff821660ff84168060ff0382111561287a5761287a61297b565b019392505050565b60006001600160601b038083168185168083038211156128545761285461297b565b600060ff821660ff84168160ff04811182151516156128c5576128c561297b565b029392505050565b6000828210156128df576128df61297b565b500390565b600067ffffffffffffffff838116908316818110156129055761290561297b565b039392505050565b600060ff821660ff8416808210156129275761292761297b565b90039392505050565b60005b8381101561294b578181015183820152602001612933565b8381111561295a576000848401525b50505050565b60006000198214156129745761297461297b565b5060010190565b634e487b7160e01b600052601160045260246000fd5b634e487b7160e01b600052604160045260246000fdfe416464726573733a206c6f772d6c6576656c2063616c6c20776974682076616c7565206661696c6564a26469706673582212205a3327ff948fb168717db531b26bff5150fe0e570df1b4f6a745c12a1471258364736f6c63430008020033",
  "devdoc": {
    "kind": "dev",
    "methods": {
      "_verifySig(bytes32,bytes32,bytes32,uint8)": {
        "returns": {
          "_signer": "Address of message signer (if signature is valid)"
        }
      }
    },
    "version": 1
  },
  "userdoc": {
    "kind": "user",
    "methods": {
      "_verifySig(bytes32,bytes32,bytes32,uint8)": {
        "notice": "Verifies the signature of _msgHash"
      },
      "ccExchangeHelper(ICcExchangeRouter.TxAndProof,mapping(bytes32 => ICcExchangeRouter.ccExchangeRequest) storage,mapping(bytes32 => ICcExchangeRouter.extendedCcExchangeRequest) storage,address,address,uint256,bytes,address)": {
        "notice": "Parses and stores exchange request if it's valid"
      }
    },
    "version": 1
  },
  "storageLayout": {
    "storage": [],
    "types": null
  }
}