{
  "address": "0xbE5d071Cce709F4bE5DAcBb7D9dCD6fBF5049791",
  "abi": [
    {
      "anonymous": false,
      "inputs": [
        {
          "indexed": false,
          "internalType": "address",
          "name": "oldAcross",
          "type": "address"
        },
        {
          "indexed": false,
          "internalType": "address",
          "name": "newAcross",
          "type": "address"
        }
      ],
      "name": "AcrossUpdated",
      "type": "event"
    },
    {
      "anonymous": false,
      "inputs": [
        {
          "indexed": false,
          "internalType": "address",
          "name": "oldBurnRouter",
          "type": "address"
        },
        {
          "indexed": false,
          "internalType": "address",
          "name": "newBurnRouter",
          "type": "address"
        }
      ],
      "name": "BurnRouterUpdated",
      "type": "event"
    },
    {
      "anonymous": false,
      "inputs": [
        {
          "indexed": false,
          "internalType": "uint256",
          "name": "newChain",
          "type": "uint256"
        }
      ],
      "name": "ChainAdded",
      "type": "event"
    },
    {
      "anonymous": false,
      "inputs": [
        {
          "indexed": false,
          "internalType": "uint256",
          "name": "oldChain",
          "type": "uint256"
        }
      ],
      "name": "ChainRemoved",
      "type": "event"
    },
    {
      "anonymous": false,
      "inputs": [
        {
          "indexed": false,
          "internalType": "address",
          "name": "lockerTargetAddress",
          "type": "address"
        },
        {
          "indexed": true,
          "internalType": "address",
          "name": "recipientAddress",
          "type": "address"
        },
        {
          "indexed": false,
          "internalType": "address[2]",
          "name": "inputAndOutputToken",
          "type": "address[2]"
        },
        {
          "indexed": false,
          "internalType": "uint256[2]",
          "name": "inputAndOutputAmount",
          "type": "uint256[2]"
        },
        {
          "indexed": true,
          "internalType": "uint256",
          "name": "speed",
          "type": "uint256"
        },
        {
          "indexed": true,
          "internalType": "address",
          "name": "teleporter",
          "type": "address"
        },
        {
          "indexed": false,
          "internalType": "bytes32",
          "name": "bitcoinTxId",
          "type": "bytes32"
        },
        {
          "indexed": false,
          "internalType": "uint256",
          "name": "appId",
          "type": "uint256"
        },
        {
          "indexed": false,
          "internalType": "uint256",
          "name": "thirdPartyId",
          "type": "uint256"
        },
        {
          "indexed": false,
          "internalType": "uint256[5]",
          "name": "fees",
          "type": "uint256[5]"
        }
      ],
      "name": "FailedWrapAndSwap",
      "type": "event"
    },
    {
      "anonymous": false,
      "inputs": [
        {
          "indexed": false,
          "internalType": "bytes32",
          "name": "txId",
          "type": "bytes32"
        },
        {
          "indexed": false,
          "internalType": "uint256",
          "name": "time",
          "type": "uint256"
        }
      ],
      "name": "FillStarted",
      "type": "event"
    },
    {
      "anonymous": false,
      "inputs": [
        {
          "indexed": false,
          "internalType": "uint256",
          "name": "amount",
          "type": "uint256"
        },
        {
          "indexed": false,
          "internalType": "uint256",
          "name": "remainingAmount",
          "type": "uint256"
        },
        {
          "indexed": false,
          "internalType": "address",
          "name": "token",
          "type": "address"
        },
        {
          "indexed": false,
          "internalType": "address",
          "name": "filler",
          "type": "address"
        },
        {
          "indexed": false,
          "internalType": "uint256",
          "name": "fillIdx",
          "type": "uint256"
        },
        {
          "indexed": false,
          "internalType": "bytes32",
          "name": "txId",
          "type": "bytes32"
        },
        {
          "indexed": false,
          "internalType": "uint256",
          "name": "reqMintedTeleBtc",
          "type": "uint256"
        },
        {
          "indexed": false,
          "internalType": "uint256",
          "name": "sentTeleBtc",
          "type": "uint256"
        }
      ],
      "name": "FillTeleBtcSent",
      "type": "event"
    },
    {
      "anonymous": false,
      "inputs": [
        {
          "indexed": false,
          "internalType": "uint256",
          "name": "amount",
          "type": "uint256"
        },
        {
          "indexed": false,
          "internalType": "address",
          "name": "token",
          "type": "address"
        },
        {
          "indexed": false,
          "internalType": "address",
          "name": "filler",
          "type": "address"
        },
        {
          "indexed": false,
          "internalType": "uint256",
          "name": "fillIdx",
          "type": "uint256"
        },
        {
          "indexed": false,
          "internalType": "bytes32",
          "name": "txId",
          "type": "bytes32"
        }
      ],
      "name": "FillTokensReturned",
      "type": "event"
    },
    {
      "anonymous": false,
      "inputs": [
        {
          "indexed": false,
          "internalType": "uint8",
          "name": "version",
          "type": "uint8"
        }
      ],
      "name": "Initialized",
      "type": "event"
    },
    {
      "anonymous": false,
      "inputs": [
        {
          "indexed": false,
          "internalType": "uint256",
          "name": "mappedId",
          "type": "uint256"
        },
        {
          "indexed": false,
          "internalType": "uint256",
          "name": "middleChain",
          "type": "uint256"
        },
        {
          "indexed": false,
          "internalType": "uint256",
          "name": "destinationChain",
          "type": "uint256"
        }
      ],
      "name": "NewChainIdMapping",
      "type": "event"
    },
    {
      "anonymous": false,
      "inputs": [
        {
          "indexed": false,
          "internalType": "address",
          "name": "filler",
          "type": "address"
        },
        {
          "indexed": false,
          "internalType": "bytes32",
          "name": "txId",
          "type": "bytes32"
        },
        {
          "indexed": false,
          "internalType": "address",
          "name": "token",
          "type": "address"
        },
        {
          "indexed": false,
          "internalType": "uint256",
          "name": "amount",
          "type": "uint256"
        }
      ],
      "name": "NewFill",
      "type": "event"
    },
    {
      "anonymous": false,
      "inputs": [
        {
          "indexed": false,
          "internalType": "uint256",
          "name": "oldFillerWithdrawInterval",
          "type": "uint256"
        },
        {
          "indexed": false,
          "internalType": "uint256",
          "name": "newFillerWithdrawInterval",
          "type": "uint256"
        }
      ],
      "name": "NewFillerWithdrawInterval",
      "type": "event"
    },
    {
      "anonymous": false,
      "inputs": [
        {
          "indexed": false,
          "internalType": "address",
          "name": "oldInstantRouter",
          "type": "address"
        },
        {
          "indexed": false,
          "internalType": "address",
          "name": "newInstantRouter",
          "type": "address"
        }
      ],
      "name": "NewInstantRouter",
      "type": "event"
    },
    {
      "anonymous": false,
      "inputs": [
        {
          "indexed": false,
          "internalType": "address",
          "name": "oldLockers",
          "type": "address"
        },
        {
          "indexed": false,
          "internalType": "address",
          "name": "newLockers",
          "type": "address"
        }
      ],
      "name": "NewLockers",
      "type": "event"
    },
    {
      "anonymous": false,
      "inputs": [
        {
          "indexed": false,
          "internalType": "uint256",
          "name": "oldProtocolPercentageFee",
          "type": "uint256"
        },
        {
          "indexed": false,
          "internalType": "uint256",
          "name": "newProtocolPercentageFee",
          "type": "uint256"
        }
      ],
      "name": "NewProtocolPercentageFee",
      "type": "event"
    },
    {
      "anonymous": false,
      "inputs": [
        {
          "indexed": false,
          "internalType": "address",
          "name": "oldRelay",
          "type": "address"
        },
        {
          "indexed": false,
          "internalType": "address",
          "name": "newRelay",
          "type": "address"
        }
      ],
      "name": "NewRelay",
      "type": "event"
    },
    {
      "anonymous": false,
      "inputs": [
        {
          "indexed": false,
          "internalType": "address",
          "name": "oldTeleBTC",
          "type": "address"
        },
        {
          "indexed": false,
          "internalType": "address",
          "name": "newTeleBTC",
          "type": "address"
        }
      ],
      "name": "NewTeleBTC",
      "type": "event"
    },
    {
      "anonymous": false,
      "inputs": [
        {
          "indexed": false,
          "internalType": "uint256",
          "name": "thirdPartyId",
          "type": "uint256"
        },
        {
          "indexed": false,
          "internalType": "address",
          "name": "oldThirdPartyAddress",
          "type": "address"
        },
        {
          "indexed": false,
          "internalType": "address",
          "name": "newThirdPartyAddress",
          "type": "address"
        }
      ],
      "name": "NewThirdPartyAddress",
      "type": "event"
    },
    {
      "anonymous": false,
      "inputs": [
        {
          "indexed": false,
          "internalType": "uint256",
          "name": "thirdPartyId",
          "type": "uint256"
        },
        {
          "indexed": false,
          "internalType": "uint256",
          "name": "oldThirdPartyFee",
          "type": "uint256"
        },
        {
          "indexed": false,
          "internalType": "uint256",
          "name": "newThirdPartyFee",
          "type": "uint256"
        }
      ],
      "name": "NewThirdPartyFee",
      "type": "event"
    },
    {
      "anonymous": false,
      "inputs": [
        {
          "indexed": false,
          "internalType": "address",
          "name": "oldTreasury",
          "type": "address"
        },
        {
          "indexed": false,
          "internalType": "address",
          "name": "newTreasury",
          "type": "address"
        }
      ],
      "name": "NewTreasury",
      "type": "event"
    },
    {
      "anonymous": false,
      "inputs": [
        {
          "indexed": false,
          "internalType": "address",
          "name": "lockerTargetAddress",
          "type": "address"
        },
        {
          "indexed": true,
          "internalType": "address",
          "name": "user",
          "type": "address"
        },
        {
          "indexed": false,
          "internalType": "address[2]",
          "name": "inputAndOutputToken",
          "type": "address[2]"
        },
        {
          "indexed": false,
          "internalType": "uint256[2]",
          "name": "inputAndOutputAmount",
          "type": "uint256[2]"
        },
        {
          "indexed": true,
          "internalType": "uint256",
          "name": "speed",
          "type": "uint256"
        },
        {
          "indexed": true,
          "internalType": "address",
          "name": "teleporter",
          "type": "address"
        },
        {
          "indexed": false,
          "internalType": "bytes32",
          "name": "bitcoinTxId",
          "type": "bytes32"
        },
        {
          "indexed": false,
          "internalType": "uint256",
          "name": "appId",
          "type": "uint256"
        },
        {
          "indexed": false,
          "internalType": "uint256",
          "name": "thirdPartyId",
          "type": "uint256"
        },
        {
          "indexed": false,
          "internalType": "uint256[5]",
          "name": "fees",
          "type": "uint256[5]"
        }
      ],
      "name": "NewWrapAndSwap",
      "type": "event"
    },
    {
      "anonymous": false,
      "inputs": [
        {
          "indexed": true,
          "internalType": "address",
          "name": "previousOwner",
          "type": "address"
        },
        {
          "indexed": true,
          "internalType": "address",
          "name": "newOwner",
          "type": "address"
        }
      ],
      "name": "OwnershipTransferred",
      "type": "event"
    },
    {
      "anonymous": false,
      "inputs": [
        {
          "indexed": false,
          "internalType": "uint256",
          "name": "appId",
          "type": "uint256"
        },
        {
          "indexed": false,
          "internalType": "address",
          "name": "exchangeConnector",
          "type": "address"
        }
      ],
      "name": "SetExchangeConnector",
      "type": "event"
    },
    {
      "anonymous": false,
      "inputs": [
        {
          "indexed": false,
          "internalType": "uint256",
          "name": "chainId",
          "type": "uint256"
        },
        {
          "indexed": false,
          "internalType": "address",
          "name": "newToken",
          "type": "address"
        }
      ],
      "name": "TokenAdded",
      "type": "event"
    },
    {
      "anonymous": false,
      "inputs": [
        {
          "indexed": false,
          "internalType": "uint256",
          "name": "chainId",
          "type": "uint256"
        },
        {
          "indexed": false,
          "internalType": "address",
          "name": "oldToken",
          "type": "address"
        }
      ],
      "name": "TokenRemoved",
      "type": "event"
    },
    {
      "inputs": [],
      "name": "across",
      "outputs": [
        {
          "internalType": "address",
          "name": "",
          "type": "address"
        }
      ],
      "stateMutability": "view",
      "type": "function"
    },
    {
      "inputs": [],
      "name": "burnRouter",
      "outputs": [
        {
          "internalType": "address",
          "name": "",
          "type": "address"
        }
      ],
      "stateMutability": "view",
      "type": "function"
    },
    {
      "inputs": [],
      "name": "chainId",
      "outputs": [
        {
          "internalType": "uint256",
          "name": "",
          "type": "uint256"
        }
      ],
      "stateMutability": "view",
      "type": "function"
    },
    {
      "inputs": [
        {
          "internalType": "uint256",
          "name": "",
          "type": "uint256"
        }
      ],
      "name": "chainIdMapping",
      "outputs": [
        {
          "internalType": "uint256",
          "name": "middleChain",
          "type": "uint256"
        },
        {
          "internalType": "uint256",
          "name": "destinationChain",
          "type": "uint256"
        }
      ],
      "stateMutability": "view",
      "type": "function"
    },
    {
      "inputs": [
        {
          "internalType": "uint256",
          "name": "",
          "type": "uint256"
        }
      ],
      "name": "exchangeConnector",
      "outputs": [
        {
          "internalType": "address",
          "name": "",
          "type": "address"
        }
      ],
      "stateMutability": "view",
      "type": "function"
    },
    {
      "inputs": [
        {
          "internalType": "bytes32",
          "name": "",
          "type": "bytes32"
        }
      ],
      "name": "extendedCcExchangeRequests",
      "outputs": [
        {
          "internalType": "uint256",
          "name": "chainId",
          "type": "uint256"
        },
        {
          "internalType": "bool",
          "name": "isTransferredToOtherChain",
          "type": "bool"
        },
        {
          "internalType": "uint256",
          "name": "remainedInputAmount",
          "type": "uint256"
        },
        {
          "internalType": "uint256",
          "name": "bridgeFee",
          "type": "uint256"
        },
        {
          "internalType": "uint256",
          "name": "thirdParty",
          "type": "uint256"
        },
        {
          "internalType": "uint256",
          "name": "protocolFee",
          "type": "uint256"
        },
        {
          "internalType": "uint256",
          "name": "thirdPartyFee",
          "type": "uint256"
        },
        {
          "internalType": "uint256",
          "name": "lockerFee",
          "type": "uint256"
        }
      ],
      "stateMutability": "view",
      "type": "function"
    },
    {
      "inputs": [
        {
          "internalType": "uint256",
          "name": "chainId",
          "type": "uint256"
        }
      ],
      "name": "extractChainId",
      "outputs": [
        {
          "internalType": "uint256",
          "name": "",
          "type": "uint256"
        },
        {
          "internalType": "uint256",
          "name": "",
          "type": "uint256"
        }
      ],
      "stateMutability": "view",
      "type": "function"
    },
    {
      "inputs": [
        {
          "internalType": "uint256",
          "name": "chainId",
          "type": "uint256"
        }
      ],
      "name": "extractDestinationChainId",
      "outputs": [
        {
          "internalType": "uint256",
          "name": "",
          "type": "uint256"
        }
      ],
      "stateMutability": "view",
      "type": "function"
    },
    {
      "inputs": [],
      "name": "fillerWithdrawInterval",
      "outputs": [
        {
          "internalType": "uint256",
          "name": "",
          "type": "uint256"
        }
      ],
      "stateMutability": "view",
      "type": "function"
    },
    {
      "inputs": [
        {
          "internalType": "bytes32",
          "name": "",
          "type": "bytes32"
        },
        {
          "internalType": "address",
          "name": "",
          "type": "address"
        }
      ],
      "name": "fillersData",
      "outputs": [
        {
          "internalType": "uint256",
          "name": "index",
          "type": "uint256"
        },
        {
          "internalType": "address",
          "name": "token",
          "type": "address"
        },
        {
          "internalType": "uint256",
          "name": "amount",
          "type": "uint256"
        }
      ],
      "stateMutability": "view",
      "type": "function"
    },
    {
      "inputs": [
        {
          "internalType": "bytes32",
          "name": "",
          "type": "bytes32"
        }
      ],
      "name": "fillsData",
      "outputs": [
        {
          "internalType": "uint256",
          "name": "startingTime",
          "type": "uint256"
        },
        {
          "internalType": "address",
          "name": "reqToken",
          "type": "address"
        },
        {
          "internalType": "uint256",
          "name": "lastUsedIdx",
          "type": "uint256"
        },
        {
          "internalType": "uint256",
          "name": "remainingAmountOfLastFill",
          "type": "uint256"
        },
        {
          "internalType": "bool",
          "name": "isWithdrawnLastFill",
          "type": "bool"
        }
      ],
      "stateMutability": "view",
      "type": "function"
    },
    {
      "inputs": [
        {
          "internalType": "uint256",
          "name": "_startingBlockNumber",
          "type": "uint256"
        },
        {
          "internalType": "uint256",
          "name": "_protocolPercentageFee",
          "type": "uint256"
        },
        {
          "internalType": "uint256",
          "name": "_chainId",
          "type": "uint256"
        },
        {
          "internalType": "address",
          "name": "_lockers",
          "type": "address"
        },
        {
          "internalType": "address",
          "name": "_relay",
          "type": "address"
        },
        {
          "internalType": "address",
          "name": "_teleBTC",
          "type": "address"
        },
        {
          "internalType": "address",
          "name": "_treasury",
          "type": "address"
        },
        {
          "internalType": "address",
          "name": "_across",
          "type": "address"
        },
        {
          "internalType": "address",
          "name": "_burnRouter",
          "type": "address"
        }
      ],
      "name": "initialize",
      "outputs": [],
      "stateMutability": "nonpayable",
      "type": "function"
    },
    {
      "inputs": [],
      "name": "instantRouter",
      "outputs": [
        {
          "internalType": "address",
          "name": "",
          "type": "address"
        }
      ],
      "stateMutability": "view",
      "type": "function"
    },
    {
      "inputs": [
        {
          "internalType": "uint256",
          "name": "",
          "type": "uint256"
        }
      ],
      "name": "isChainSupported",
      "outputs": [
        {
          "internalType": "bool",
          "name": "",
          "type": "bool"
        }
      ],
      "stateMutability": "view",
      "type": "function"
    },
    {
      "inputs": [
        {
          "internalType": "bytes32",
          "name": "_txId",
          "type": "bytes32"
        }
      ],
      "name": "isRequestUsed",
      "outputs": [
        {
          "internalType": "bool",
          "name": "",
          "type": "bool"
        }
      ],
      "stateMutability": "view",
      "type": "function"
    },
    {
      "inputs": [
        {
          "internalType": "uint256",
          "name": "",
          "type": "uint256"
        },
        {
          "internalType": "address",
          "name": "",
          "type": "address"
        }
      ],
      "name": "isTokenSupported",
      "outputs": [
        {
          "internalType": "bool",
          "name": "",
          "type": "bool"
        }
      ],
      "stateMutability": "view",
      "type": "function"
    },
    {
      "inputs": [],
      "name": "lockers",
      "outputs": [
        {
          "internalType": "address",
          "name": "",
          "type": "address"
        }
      ],
      "stateMutability": "view",
      "type": "function"
    },
    {
      "inputs": [],
      "name": "owner",
      "outputs": [
        {
          "internalType": "address",
          "name": "",
          "type": "address"
        }
      ],
      "stateMutability": "view",
      "type": "function"
    },
    {
      "inputs": [
        {
          "internalType": "bytes32",
          "name": "",
          "type": "bytes32"
        },
        {
          "internalType": "address",
          "name": "",
          "type": "address"
        }
      ],
      "name": "prefixFillSums",
      "outputs": [
        {
          "internalType": "uint256",
          "name": "currentIndex",
          "type": "uint256"
        }
      ],
      "stateMutability": "view",
      "type": "function"
    },
    {
      "inputs": [],
      "name": "protocolPercentageFee",
      "outputs": [
        {
          "internalType": "uint256",
          "name": "",
          "type": "uint256"
        }
      ],
      "stateMutability": "view",
      "type": "function"
    },
    {
      "inputs": [],
      "name": "relay",
      "outputs": [
        {
          "internalType": "address",
          "name": "",
          "type": "address"
        }
      ],
      "stateMutability": "view",
      "type": "function"
    },
    {
      "inputs": [
        {
          "internalType": "uint256",
          "name": "_chainId",
          "type": "uint256"
        }
      ],
      "name": "removeChain",
      "outputs": [],
      "stateMutability": "nonpayable",
      "type": "function"
    },
    {
      "inputs": [
        {
          "internalType": "uint256",
          "name": "chainId",
          "type": "uint256"
        },
        {
          "internalType": "address",
          "name": "_token",
          "type": "address"
        }
      ],
      "name": "removeToken",
      "outputs": [],
      "stateMutability": "nonpayable",
      "type": "function"
    },
    {
      "inputs": [],
      "name": "renounceOwnership",
      "outputs": [],
      "stateMutability": "nonpayable",
      "type": "function"
    },
    {
      "inputs": [
        {
          "internalType": "bytes32",
          "name": "_txId",
          "type": "bytes32"
        },
        {
          "internalType": "uint256",
          "name": "_outputAmount",
          "type": "uint256"
        },
        {
          "internalType": "uint256",
          "name": "_acrossRelayerFee",
          "type": "uint256"
        },
        {
          "internalType": "address[]",
          "name": "path",
          "type": "address[]"
        },
        {
          "internalType": "bytes32",
          "name": "_r",
          "type": "bytes32"
        },
        {
          "internalType": "bytes32",
          "name": "_s",
          "type": "bytes32"
        },
        {
          "internalType": "uint8",
          "name": "_v",
          "type": "uint8"
        }
      ],
      "name": "retryFailedWrapAndSwap",
      "outputs": [
        {
          "internalType": "bool",
          "name": "",
          "type": "bool"
        }
      ],
      "stateMutability": "nonpayable",
      "type": "function"
    },
    {
      "inputs": [
        {
          "internalType": "address",
          "name": "_across",
          "type": "address"
        }
      ],
      "name": "setAcross",
      "outputs": [],
      "stateMutability": "nonpayable",
      "type": "function"
    },
    {
      "inputs": [
        {
          "internalType": "address",
          "name": "_burnRouter",
          "type": "address"
        }
      ],
      "name": "setBurnRouter",
      "outputs": [],
      "stateMutability": "nonpayable",
      "type": "function"
    },
    {
      "inputs": [
        {
          "internalType": "uint256",
          "name": "_mappedId",
          "type": "uint256"
        },
        {
          "internalType": "uint256",
          "name": "_middleChain",
          "type": "uint256"
        },
        {
          "internalType": "uint256",
          "name": "_destinationChain",
          "type": "uint256"
        }
      ],
      "name": "setChainIdMapping",
      "outputs": [],
      "stateMutability": "nonpayable",
      "type": "function"
    },
    {
      "inputs": [
        {
          "internalType": "uint256",
          "name": "_appId",
          "type": "uint256"
        },
        {
          "internalType": "address",
          "name": "_exchangeConnector",
          "type": "address"
        }
      ],
      "name": "setExchangeConnector",
      "outputs": [],
      "stateMutability": "nonpayable",
      "type": "function"
    },
    {
      "inputs": [
        {
          "internalType": "address",
          "name": "_instantRouter",
          "type": "address"
        }
      ],
      "name": "setInstantRouter",
      "outputs": [],
      "stateMutability": "nonpayable",
      "type": "function"
    },
    {
      "inputs": [
        {
          "internalType": "address",
          "name": "_lockers",
          "type": "address"
        }
      ],
      "name": "setLockers",
      "outputs": [],
      "stateMutability": "nonpayable",
      "type": "function"
    },
    {
      "inputs": [
        {
          "internalType": "uint256",
          "name": "middleChain",
          "type": "uint256"
        },
        {
          "internalType": "uint256",
          "name": "destinationChain",
          "type": "uint256"
        },
        {
          "internalType": "uint256",
          "name": "mappedId",
          "type": "uint256"
        }
      ],
      "name": "setMappingChainId",
      "outputs": [],
      "stateMutability": "nonpayable",
      "type": "function"
    },
    {
      "inputs": [
        {
          "internalType": "uint256",
          "name": "_protocolPercentageFee",
          "type": "uint256"
        }
      ],
      "name": "setProtocolPercentageFee",
      "outputs": [],
      "stateMutability": "nonpayable",
      "type": "function"
    },
    {
      "inputs": [
        {
          "internalType": "address",
          "name": "_relay",
          "type": "address"
        }
      ],
      "name": "setRelay",
      "outputs": [],
      "stateMutability": "nonpayable",
      "type": "function"
    },
    {
      "inputs": [
        {
          "internalType": "uint256",
          "name": "_startingBlockNumber",
          "type": "uint256"
        }
      ],
      "name": "setStartingBlockNumber",
      "outputs": [],
      "stateMutability": "nonpayable",
      "type": "function"
    },
    {
      "inputs": [
        {
          "internalType": "address",
          "name": "_teleBTC",
          "type": "address"
        }
      ],
      "name": "setTeleBTC",
      "outputs": [],
      "stateMutability": "nonpayable",
      "type": "function"
    },
    {
      "inputs": [
        {
          "internalType": "uint256",
          "name": "_thirdPartyId",
          "type": "uint256"
        },
        {
          "internalType": "address",
          "name": "_thirdPartyAddress",
          "type": "address"
        }
      ],
      "name": "setThirdPartyAddress",
      "outputs": [],
      "stateMutability": "nonpayable",
      "type": "function"
    },
    {
      "inputs": [
        {
          "internalType": "uint256",
          "name": "_thirdPartyId",
          "type": "uint256"
        },
        {
          "internalType": "uint256",
          "name": "_thirdPartyFee",
          "type": "uint256"
        }
      ],
      "name": "setThirdPartyFee",
      "outputs": [],
      "stateMutability": "nonpayable",
      "type": "function"
    },
    {
      "inputs": [
        {
          "internalType": "address",
          "name": "_treasury",
          "type": "address"
        }
      ],
      "name": "setTreasury",
      "outputs": [],
      "stateMutability": "nonpayable",
      "type": "function"
    },
    {
      "inputs": [],
      "name": "startingBlockNumber",
      "outputs": [
        {
          "internalType": "uint256",
          "name": "",
          "type": "uint256"
        }
      ],
      "stateMutability": "view",
      "type": "function"
    },
    {
      "inputs": [
        {
          "internalType": "uint256",
          "name": "_chainId",
          "type": "uint256"
        }
      ],
      "name": "supportChain",
      "outputs": [],
      "stateMutability": "nonpayable",
      "type": "function"
    },
    {
      "inputs": [
        {
          "internalType": "uint256",
          "name": "chainId",
          "type": "uint256"
        },
        {
          "internalType": "address",
          "name": "_token",
          "type": "address"
        }
      ],
      "name": "supportToken",
      "outputs": [],
      "stateMutability": "nonpayable",
      "type": "function"
    },
    {
      "inputs": [],
      "name": "teleBTC",
      "outputs": [
        {
          "internalType": "address",
          "name": "",
          "type": "address"
        }
      ],
      "stateMutability": "view",
      "type": "function"
    },
    {
      "inputs": [
        {
          "internalType": "uint256",
          "name": "",
          "type": "uint256"
        }
      ],
      "name": "thirdPartyAddress",
      "outputs": [
        {
          "internalType": "address",
          "name": "",
          "type": "address"
        }
      ],
      "stateMutability": "view",
      "type": "function"
    },
    {
      "inputs": [
        {
          "internalType": "uint256",
          "name": "",
          "type": "uint256"
        }
      ],
      "name": "thirdPartyFee",
      "outputs": [
        {
          "internalType": "uint256",
          "name": "",
          "type": "uint256"
        }
      ],
      "stateMutability": "view",
      "type": "function"
    },
    {
      "inputs": [
        {
          "internalType": "address",
          "name": "newOwner",
          "type": "address"
        }
      ],
      "name": "transferOwnership",
      "outputs": [],
      "stateMutability": "nonpayable",
      "type": "function"
    },
    {
      "inputs": [],
      "name": "treasury",
      "outputs": [
        {
          "internalType": "address",
          "name": "",
          "type": "address"
        }
      ],
      "stateMutability": "view",
      "type": "function"
    },
    {
      "inputs": [
        {
          "internalType": "bytes32",
          "name": "_txId",
          "type": "bytes32"
        },
        {
          "internalType": "uint8",
          "name": "_scriptType",
          "type": "uint8"
        },
        {
          "internalType": "bytes",
          "name": "_userScript",
          "type": "bytes"
        },
        {
          "internalType": "uint256",
          "name": "_acrossRelayerFee",
          "type": "uint256"
        },
        {
          "internalType": "bytes32",
          "name": "_r",
          "type": "bytes32"
        },
        {
          "internalType": "bytes32",
          "name": "_s",
          "type": "bytes32"
        },
        {
          "internalType": "uint8",
          "name": "_v",
          "type": "uint8"
        },
        {
          "internalType": "bytes",
          "name": "_lockerLockingScript",
          "type": "bytes"
        }
      ],
      "name": "withdrawFailedWrapAndSwap",
      "outputs": [
        {
          "internalType": "bool",
          "name": "",
          "type": "bool"
        }
      ],
      "stateMutability": "nonpayable",
      "type": "function"
    },
    {
      "inputs": [],
      "name": "wmatic",
      "outputs": [
        {
          "internalType": "address",
          "name": "",
          "type": "address"
        }
      ],
      "stateMutability": "view",
      "type": "function"
    },
    {
      "inputs": [
        {
          "components": [
            {
              "internalType": "bytes4",
              "name": "version",
              "type": "bytes4"
            },
            {
              "internalType": "bytes",
              "name": "vin",
              "type": "bytes"
            },
            {
              "internalType": "bytes",
              "name": "vout",
              "type": "bytes"
            },
            {
              "internalType": "bytes4",
              "name": "locktime",
              "type": "bytes4"
            },
            {
              "internalType": "uint256",
              "name": "blockNumber",
              "type": "uint256"
            },
            {
              "internalType": "bytes",
              "name": "intermediateNodes",
              "type": "bytes"
            },
            {
              "internalType": "uint256",
              "name": "index",
              "type": "uint256"
            }
          ],
          "internalType": "struct ICcExchangeRouter.TxAndProof",
          "name": "_txAndProof",
          "type": "tuple"
        },
        {
          "internalType": "bytes",
          "name": "_lockerLockingScript",
          "type": "bytes"
        },
        {
          "internalType": "address[]",
          "name": "_path",
          "type": "address[]"
        }
      ],
      "name": "wrapAndSwap",
      "outputs": [
        {
          "internalType": "bool",
          "name": "",
          "type": "bool"
        }
      ],
      "stateMutability": "payable",
      "type": "function"
    },
    {
      "inputs": [],
      "name": "wrappedNativeToken",
      "outputs": [
        {
          "internalType": "address",
          "name": "",
          "type": "address"
        }
      ],
      "stateMutability": "view",
      "type": "function"
    },
    {
      "stateMutability": "payable",
      "type": "receive"
    }
  ],
  "transactionHash": "0x9610a34a0a404a68ef82665f1fd556c0e2033e486f1239c3a0236b42880cd6d3",
  "args": [],
  "numDeployments": 1,
  "solcInputHash": "4dbbda3723d3a5f07b26d477d3c1ab0a",
  "bytecode": "0x608060405234801561001057600080fd5b5061481c806100206000396000f3fe6080604052600436106103385760003560e01c80637f0f1817116101b0578063a9b68271116100ec578063e35a0a8811610095578063ecc92eba1161006f578063ecc92eba14610b15578063f0f4426014610b5c578063f2fde38b14610b7c578063fb41be1614610b9c5761033f565b8063e35a0a8814610a9a578063e45b5c2914610aba578063ea2979ee14610af55761033f565b8063bd51aaa3116100c6578063bd51aaa3146109e7578063c805f68b14610a5a578063cbf50bb614610a7a5761033f565b8063a9b6827114610971578063b14d3532146109a7578063b59589d1146109c75761033f565b80638f9eb78b116101595780639a8a0592116101335780639a8a0592146108fb578063a015f99c14610911578063a2d95f2214610931578063a9ac5919146109515761033f565b80638f9eb78b1461081d578063913967d31461083d57806393c5c73a146108c65761033f565b80638d3d78cd1161018a5780638d3d78cd146107bf5780638d5fc1d4146107df5780638da5cb5b146107ff5761033f565b80637f0f18171461075f57806380bc47261461077f578063870ba6cf1461079f5761033f565b80635279feed1161027f5780636c32b2ec11610228578063715018a611610202578063715018a6146106dc57806375979f79146106f15780637a2181351461072c5780637ed557481461073f5761033f565b80636c32b2ec146106705780636e8adf611461069057806370872aa5146106c65761033f565b806361be10f21161025957806361be10f21461061057806361d027b3146106305780636b2857ef146106505761033f565b80635279feed146105a3578063527b42a6146105c357806359fd0b0c146105e35761033f565b80631e7107c7116102e157806342b5dcd0116102bb57806342b5dcd0146105145780634e63ba951461052a5780635221c1f0146105735761033f565b80631e7107c7146104b4578063292c1d92146104d457806333fe5676146104f45761033f565b80631812adb6116103125780631812adb61461044e5780631876dec4146104725780631dc4b09c146104925761033f565b806306be8b0e146103445780630d6467c0146103e657806317fcb39b146104165761033f565b3661033f57005b600080fd5b34801561035057600080fd5b506103a661035f366004613f32565b60a76020526000908152604090208054600182015460028301546003840154600485015460058601546006870154600790970154959660ff90951695939492939192909188565b604080519889529615156020890152958701949094526060860192909252608085015260a084015260c083015260e0820152610100015b60405180910390f35b3480156103f257600080fd5b5061040661040136600461400d565b610bbc565b60405190151581526020016103dd565b34801561042257600080fd5b5060a954610436906001600160a01b031681565b6040516001600160a01b0390911681526020016103dd565b34801561045a57600080fd5b5061046460025481565b6040519081526020016103dd565b34801561047e57600080fd5b50600554610436906001600160a01b031681565b34801561049e57600080fd5b506104b26104ad366004613e36565b610f54565b005b3480156104c057600080fd5b506104b26104cf366004613f32565b610f68565b3480156104e057600080fd5b5060a854610436906001600160a01b031681565b34801561050057600080fd5b506104b261050f366004613f62565b610f79565b34801561052057600080fd5b5061046460a15481565b34801561053657600080fd5b5061055e610545366004613f32565b60ac602052600090815260409020805460019091015482565b604080519283526020830191909152016103dd565b34801561057f57600080fd5b5061040661058e366004613f32565b60a66020526000908152604090205460ff1681565b3480156105af57600080fd5b506104b26105be366004614216565b610fef565b3480156105cf57600080fd5b506104646105de366004613f32565b611007565b3480156105ef57600080fd5b506104646105fe366004613f32565b60ad6020526000908152604090205481565b34801561061c57600080fd5b506104b261062b366004613e36565b61101f565b34801561063c57600080fd5b50600754610436906001600160a01b031681565b34801561065c57600080fd5b506104b261066b366004613f62565b611030565b34801561067c57600080fd5b5060aa54610436906001600160a01b031681565b34801561069c57600080fd5b506104366106ab366004613f32565b6008602052600090815260409020546001600160a01b031681565b3480156106d257600080fd5b5061046460005481565b3480156106e857600080fd5b506104b261109e565b3480156106fd57600080fd5b5061040661070c366004613f62565b60a560209081526000928352604080842090915290825290205460ff1681565b61040661073a3660046140bf565b6110a8565b34801561074b57600080fd5b506104b261075a366004613f32565b611760565b34801561076b57600080fd5b506104b261077a366004613e36565b611771565b34801561078b57600080fd5b5061040661079a366004613f32565b611782565b3480156107ab57600080fd5b506104b26107ba366004613e36565b6117ab565b3480156107cb57600080fd5b50600654610436906001600160a01b031681565b3480156107eb57600080fd5b506104b26107fa366004613f62565b6117bc565b34801561080b57600080fd5b50603d546001600160a01b0316610436565b34801561082957600080fd5b506104b26108383660046141f5565b6117d2565b34801561084957600080fd5b50610894610858366004613f32565b60a4602052600090815260409020805460018201546002830154600384015460049094015492936001600160a01b039092169290919060ff1685565b604080519586526001600160a01b0390941660208601529284019190915260608301521515608082015260a0016103dd565b3480156108d257600080fd5b5061055e6108e1366004613f32565b600090815260ac6020526040902080546001909101549091565b34801561090757600080fd5b5061046460015481565b34801561091d57600080fd5b506104b261092c366004614241565b6117e4565b34801561093d57600080fd5b5061040661094c366004613f91565b61197b565b34801561095d57600080fd5b506104b261096c366004613f62565b611dfc565b34801561097d57600080fd5b5061043661098c366004613f32565b60ae602052600090815260409020546001600160a01b031681565b3480156109b357600080fd5b506104b26109c2366004613e36565b611e75565b3480156109d357600080fd5b50600354610436906001600160a01b031681565b3480156109f357600080fd5b50610a37610a02366004613f62565b60a260209081526000928352604080842090915290825290208054600182015460029092015490916001600160a01b03169083565b604080519384526001600160a01b039092166020840152908201526060016103dd565b348015610a6657600080fd5b506104b2610a75366004613e36565b611e86565b348015610a8657600080fd5b506104b2610a95366004613f32565b611e97565b348015610aa657600080fd5b50600454610436906001600160a01b031681565b348015610ac657600080fd5b50610464610ad5366004613f62565b60a360209081526000928352604080842090915290825290206001015481565b348015610b0157600080fd5b506104b2610b10366004613f32565b611eea565b348015610b2157600080fd5b506104b2610b30366004614216565b6040805180820182529384526020808501938452600092835260ac905290209151825551600190910155565b348015610b6857600080fd5b506104b2610b77366004613e36565b611f40565b348015610b8857600080fd5b506104b2610b97366004613e36565b611f51565b348015610ba857600080fd5b5060ab54610436906001600160a01b031681565b6000610bc6611fde565b60015460008b815260a7602052604090205414801590610bf8575060008a815260a7602052604090206001015460ff16155b610c535760405162461bcd60e51b815260206004820152602160248201527f45786368616e6765526f757465723a20616c72656164792070726f63657373656044820152601960fa1b60648201526084015b60405180910390fd5b600160a760008c815260200190815260200160002060010160006101000a81548160ff021916908315150217905550600960008b815260200190815260200160002060030160019054906101000a90046001600160a01b03166001600160a01b031673E66AC01F73AE3cE8e7A0CFf5dB5A40388B354e746319e52d54610cfd8d8d8d8d604051602001610ce994939291906144c0565b604051602081830303815290604052612038565b6040516001600160e01b031960e084901b1681526004810191909152602481018a90526044810189905260ff8816606482015260840160206040518083038186803b158015610d4b57600080fd5b505af4158015610d5f573d6000803e3d6000fd5b505050506040513d601f19601f82011682018060405250810190610d839190613e59565b6001600160a01b031614610dd95760405162461bcd60e51b815260206004820152601e60248201527f45786368616e6765526f757465723a20696e76616c6964207369676e657200006044820152606401610c4a565b60065460aa5460008c815260a760205260409081902060020154905163095ea7b360e01b81526001600160a01b039283166004820152602481019190915291169063095ea7b390604401602060405180830381600087803b158015610e3d57600080fd5b505af1158015610e51573d6000803e3d6000fd5b505050506040513d601f19601f82011682018060405250810190610e759190613e75565b5060aa5460008b815260a760205260409020600201546001600160a01b0390911690633fea4367908a60ff8d166005811115610ec157634e487b7160e01b600052602160045260246000fd5b878760006040518763ffffffff1660e01b8152600401610ee696959493929190614650565b602060405180830381600087803b158015610f0057600080fd5b505af1158015610f14573d6000803e3d6000fd5b505050506040513d601f19601f82011682018060405250810190610f389190613f4a565b5060019050610f476001606f55565b9998505050505050505050565b610f5c6120a2565b610f65816120fc565b50565b610f706120a2565b610f65816121bd565b610f816120a2565b604080518381526001600160a01b03831660208201527fb3036f81a7a8205f3b94de16897df636d553839d92289fb7ec72dd2d54132842910160405180910390a1600091825260a5602090815260408084206001600160a01b0390931684529190529020805460ff19169055565b610ff76120a2565b611002828285612239565b505050565b600081815260ac60205260409020600101545b919050565b6110276120a2565b610f65816122a6565b6110386120a2565b60008281526008602090815260409182902080546001600160a01b0319166001600160a01b0385169081179091558251858152918201527f31a8c4e62daac2a3ed5d713004d9ae867d6dcddfa35603db2a4b65d9236b1bc1910160405180910390a15050565b6110a66120a2565b565b60006110b2611fde565b6004546001600160a01b0316336001600160a01b0316146111155760405162461bcd60e51b815260206004820152601e60248201527f45786368616e6765526f757465723a20696e76616c69642073656e64657200006044820152606401610c4a565b6000548560800151101561116b5760405162461bcd60e51b815260206004820152601b60248201527f45786368616e6765526f757465723a206f6c64207265717565737400000000006044820152606401610c4a565b60608501516001600160e01b031916156111ed5760405162461bcd60e51b815260206004820152602160248201527f45786368616e6765526f757465723a206e6f6e2d7a65726f206c6f636b74696d60448201527f65000000000000000000000000000000000000000000000000000000000000006064820152608401610c4a565b6005546040517faff2faa30000000000000000000000000000000000000000000000000000000081526001600160a01b039091169063aff2faa39061123890879087906004016144f3565b60206040518083038186803b15801561125057600080fd5b505afa158015611264573d6000803e3d6000fd5b505050506040513d601f19601f820116820180604052508101906112889190613e75565b6112d45760405162461bcd60e51b815260206004820152601a60248201527f45786368616e6765526f757465723a206e6f74206c6f636b65720000000000006044820152606401610c4a565b600073E66AC01F73AE3cE8e7A0CFf5dB5A40388B354e7463dba71cdf87600960a7600660009054906101000a90046001600160a01b031660a960009054906101000a90046001600160a01b03166127108c8c600360009054906101000a90046001600160a01b03166040518a63ffffffff1660e01b815260040161136099989796959493929190614548565b60206040518083038186803b15801561137857600080fd5b505af415801561138c573d6000803e3d6000fd5b505050506040513d601f19601f820116820180604052508101906113b09190613f4a565b600081815260a760205260408120549192509081906113e390600090815260ac6020526040902080546001909101549091565b9150915060015482146114385760405162461bcd60e51b815260206004820152601b60248201527f45786368616e6765526f757465723a2077726f6e6720636861696e00000000006044820152606401610c4a565b600081815260a6602052604090205460ff166114965760405162461bcd60e51b815260206004820181905260248201527f45786368616e6765526f757465723a20696e76616c696420636861696e2069646044820152606401610c4a565b600083815260096020908152604080832081516101408101835281548152600182015481850152600282015481840152600382015460ff808216151560608401526101009091046001600160a01b03166080830152600483015460a0830152600583015416151560c08201526006820180548451818702810187019095528085529194929360e086019390929083018282801561155c57602002820191906000526020600020905b81546001600160a01b0316815260019091019060200180831161153e575b50505091835250506007820154602080830191909152600892830154604092830152835160009081529290529020549091506001600160a01b0316806115e45760405162461bcd60e51b815260206004820152601d60248201527f45786368616e6765526f757465723a20696e76616c69642061707049640000006044820152606401610c4a565b61162589898080601f016020809104026020016040519081016040528093929190818152602001838380828437600092019190915250899250612367915050565b6101208201511561169e5760405162461bcd60e51b815260206004820152602760248201527f45786368616e6765526f757465723a2066696c6c6572206973206e6f7420737560448201527f70706f72746564000000000000000000000000000000000000000000000000006064820152608401610c4a565b6001548314156116f1576116ec818a8a8080601f0160208091040260200160405190810160405280939291908181526020018383808284376000920191909152508a92508c91506127499050565b611745565b611745818a8a8080601f01602080910402602001604051908101604052809392919081815260200183838082843760009201829052508b815260a760205260409020600301548b93508d925090508861296d565b6001955050505050506117586001606f55565b949350505050565b6117686120a2565b610f6581612c39565b6117796120a2565b610f6581612cf2565b60008181526009602052604081206005015460ff166117a25760006117a5565b60015b92915050565b6117b36120a2565b610f6581612db3565b6117c46120a2565b6117ce8282612e74565b5050565b6117da6120a2565b6117ce8282612f10565b600a54610100900460ff16158080156118045750600a54600160ff909116105b8061181e5750303b15801561181e5750600a5460ff166001145b6118905760405162461bcd60e51b815260206004820152602e60248201527f496e697469616c697a61626c653a20636f6e747261637420697320616c72656160448201527f647920696e697469616c697a65640000000000000000000000000000000000006064820152608401610c4a565b600a805460ff1916600117905580156118b357600a805461ff0019166101001790555b6118bb612f71565b6118c3612fe4565b6001888155600089815260a660205260409020805460ff191690911790556118ea8a6121bd565b6118f389612c39565b6118fc86613057565b61190587613118565b61190e85612cf2565b611917846131d9565b611920836122a6565b611929826120fc565b801561196f57600a805461ff0019169055604051600181527f7f26b83ff96e1f2b6a682f133852f6798a09c465da95921460cefb38474024989060200160405180910390a15b50505050505050505050565b6000611985611fde565b600088815260096020908152604080832081516101408101835281548152600182015481850152600282015481840152600382015460ff808216151560608401526101009091046001600160a01b03166080830152600483015460a0830152600583015416151560c08201526006820180548451818702810187019095528085529194929360e0860193909290830182828015611a4b57602002820191906000526020600020905b81546001600160a01b03168152600190910190602001808311611a2d575b5050505050815260200160078201548152602001600882015481525050905060015460a760008b81526020019081526020016000206000015414158015611aa45750600089815260a7602052604090206001015460ff16155b611afa5760405162461bcd60e51b815260206004820152602160248201527f45786368616e6765526f757465723a20616c72656164792070726f63657373656044820152601960fa1b6064820152608401610c4a565b600089815260a760209081526040918290206001908101805460ff19169091179055608083015191516001600160a01b039092169173E66AC01F73AE3cE8e7A0CFf5dB5A40388B354e74916319e52d5491611b6191610ce9918f918f918f918f91016143c2565b6040516001600160e01b031960e084901b1681526004810191909152602481018990526044810188905260ff8716606482015260840160206040518083038186803b158015611baf57600080fd5b505af4158015611bc3573d6000803e3d6000fd5b505050506040513d601f19601f82011682018060405250810190611be79190613e59565b6001600160a01b031614611c3d5760405162461bcd60e51b815260206004820152601e60248201527f45786368616e6765526f757465723a20696e76616c6964207369676e657200006044820152606401610c4a565b80516000908152600860209081526040808320548c845260a79092528083206002015490517fb0bbcd8800000000000000000000000000000000000000000000000000000000815283926001600160a01b03169163b0bbcd8891611caf91908e908d90309042906001906004016146b2565b600060405180830381600087803b158015611cc957600080fd5b505af1158015611cdd573d6000803e3d6000fd5b505050506040513d6000823e601f3d908101601f19168201604052611d059190810190613e8f565b9150915081611d565760405162461bcd60e51b815260206004820152601b60248201527f45786368616e6765526f757465723a2073776170206661696c656400000000006044820152606401610c4a565b60008b815260a760205260409020548851611de091908a90611d7a9060019061478e565b81518110611d9857634e487b7160e01b600052603260045260246000fd5b60200260200101518360018551611daf919061478e565b81518110611dcd57634e487b7160e01b600052603260045260246000fd5b602002602001015186608001518d61329a565b60019350505050611df16001606f55565b979650505050505050565b611e046120a2565b604080518381526001600160a01b03831660208201527fca37a60f79854243dcab36b6ad6fcaafc7ae13448087ee70547943babc7dccf0910160405180910390a1600091825260a5602090815260408084206001600160a01b0390931684529190529020805460ff19166001179055565b611e7d6120a2565b610f6581613118565b611e8e6120a2565b610f6581613057565b611e9f6120a2565b6040518181527f11a9d1a77f76361ed131c19b1dc5758504c51dbde2e49fc973a0ef9577ad13d59060200160405180910390a1600090815260a660205260409020805460ff19169055565b611ef26120a2565b6040518181527fbba9d55e9fd1a441b1617724e2fdb76777d15ec77ab2b72ac15952cbe97085db9060200160405180910390a1600090815260a660205260409020805460ff19166001179055565b611f486120a2565b610f65816131d9565b611f596120a2565b6001600160a01b038116611fd55760405162461bcd60e51b815260206004820152602660248201527f4f776e61626c653a206e6577206f776e657220697320746865207a65726f206160448201527f64647265737300000000000000000000000000000000000000000000000000006064820152608401610c4a565b610f65816133fc565b6002606f5414156120315760405162461bcd60e51b815260206004820152601f60248201527f5265656e7472616e637947756172643a207265656e7472616e742063616c6c006044820152606401610c4a565b6002606f55565b6000818051906020012060405160200161207e91907f19457468657265756d205369676e6564204d6573736167653a0a3332000000008152601c810191909152603c0190565b604051602081830303815290604052805190602001209050919050565b6001606f55565b603d546001600160a01b031633146110a65760405162461bcd60e51b815260206004820181905260248201527f4f776e61626c653a2063616c6c6572206973206e6f7420746865206f776e65726044820152606401610c4a565b806001600160a01b0381166121535760405162461bcd60e51b815260206004820152601c60248201527f45786368616e6765526f757465723a207a65726f2061646472657373000000006044820152606401610c4a565b60aa54604080516001600160a01b03928316815291841660208301527f5b663d57fa8cf393f8c8019f514b25c1b3223c9324a2ce3efe28ce5aef0e62fe910160405180910390a15060aa80546001600160a01b0319166001600160a01b0392909216919091179055565b60005481116122345760405162461bcd60e51b815260206004820152602960248201527f434345786368616e6765526f757465723a206c6f77207374617274696e67426c60448201527f6f636b4e756d62657200000000000000000000000000000000000000000000006064820152608401610c4a565b600055565b60408051828152602081018590529081018390527fd4d81e1736e6dd2e97d0c6eff0dc7ec7184dec2bd4e03ce98d84d6057a8045c49060600160405180910390a16040805180820182529384526020808501938452600092835260ac905290209151825551600190910155565b806001600160a01b0381166122fd5760405162461bcd60e51b815260206004820152601c60248201527f45786368616e6765526f757465723a207a65726f2061646472657373000000006044820152606401610c4a565b60a854604080516001600160a01b03928316815291841660208301527f06e5f2ca1234f717a2031f662608c02182d4f8bdc3dab013ec4c04eb97553132910160405180910390a15060a880546001600160a01b0319166001600160a01b0392909216919091179055565b6005546000828152600960205260408082206001015490517f1fcfe19c00000000000000000000000000000000000000000000000000000000815291926001600160a01b031691631fcfe19c916123c4918791309160040161451a565b602060405180830381600087803b1580156123de57600080fd5b505af11580156123f2573d6000803e3d6000fd5b505050506040513d601f19601f820116820180604052508101906124169190613f4a565b6002546000848152600960205260409020600101549192506127109161243c919061476f565b612446919061474f565b600083815260a76020908152604080832060058101949094556009808352818420600480820154960154855260ad8452918420549387905290915260010154612710916124929161476f565b61249c919061474f565b600084815260a760209081526040808320600601939093556009905220600101546124c890839061478e565b600084815260a760205260409020600701558015612574576006546001600160a01b031663a9059cbb336040516001600160e01b031960e084901b1681526001600160a01b03909116600482015260248101849052604401602060405180830381600087803b15801561253a57600080fd5b505af115801561254e573d6000803e3d6000fd5b505050506040513d601f19601f820116820180604052508101906125729190613e75565b505b600083815260a760205260409020600501541561262957600654600754600085815260a760205260409081902060050154905163a9059cbb60e01b81526001600160a01b039283166004820152602481019190915291169063a9059cbb90604401602060405180830381600087803b1580156125ef57600080fd5b505af1158015612603573d6000803e3d6000fd5b505050506040513d601f19601f820116820180604052508101906126279190613e75565b505b600083815260a76020526040902060060154156126f55760068054600085815260a760208181526040808420600480820154865260ae845282862054958b905293909252940154935163a9059cbb60e01b81526001600160a01b03928316918101919091526024810193909352169063a9059cbb90604401602060405180830381600087803b1580156126bb57600080fd5b505af11580156126cf573d6000803e3d6000fd5b505050506040513d601f19601f820116820180604052508101906126f39190613e75565b505b600083815260a7602052604090206006810154600590910154829061271a908561478e565b612724919061478e565b61272e919061478e565b600093845260a7602052604090932060020192909255505050565b600180546000848152600960209081526040808320815161014081018352815481529581015486840152600281015486830152600381015460ff808216151560608901526101009091046001600160a01b03166080880152600482015460a0880152600582015416151560c0870152600681018054835181860281018601909452808452949687966128ad9690958c9592949360e086019392909183018282801561281d57602002820191906000526020600020905b81546001600160a01b031681526001909101906020018083116127ff575b505050918352505060078281015460208084019190915260089093015460409283015260008b815260a7845282902082516101008101845281548152600182015460ff161515948101949094526002810154928401929092526003820154606084015260048201546080840152600582015460a0840152600682015460c0840152015460e082015288888c61344e565b91509150816129655760065460008581526009602090815260408083206003015460a79092529182902060020154915163a9059cbb60e01b81526101009091046001600160a01b039081166004830152602482019290925291169063a9059cbb90604401602060405180830381600087803b15801561292b57600080fd5b505af115801561293f573d6000803e3d6000fd5b505050506040513d601f19601f820116820180604052508101906129639190613e75565b505b505050505050565b600084815260096020908152604080832081516101408101835281548152600182015481850152600282015481840152600382015460ff808216151560608401526101009091046001600160a01b03166080830152600483015460a0830152600583015416151560c08201526006820180548451818702810187019095528085528695612ac99589958e9594909360e0860193830182828015612a3957602002820191906000526020600020905b81546001600160a01b03168152600190910190602001808311612a1b575b505050918352505060078281015460208084019190915260089093015460409283015260008d815260a7845282902082516101008101845281548152600182015460ff161515948101949094526002810154928401929092526003820154606084015260048201546080840152600582015460a0840152600682015460c0840152015460e08201528a8a8e61344e565b915091508115612b9457600086815260a7602052604090206001818101805460ff19168217905590548651612b8f928891612b04919061478e565b81518110612b2257634e487b7160e01b600052603260045260246000fd5b60200260200101518360018551612b39919061478e565b81518110612b5757634e487b7160e01b600052603260045260246000fd5b6020026020010151600960008b815260200190815260200160002060030160019054906101000a90046001600160a01b03168861329a565b612c2f565b600654600087815260a760205260409081902060020154905163095ea7b360e01b81526001600160a01b038b81166004830152602482019290925291169063095ea7b390604401602060405180830381600087803b158015612bf557600080fd5b505af1158015612c09573d6000803e3d6000fd5b505050506040513d601f19601f82011682018060405250810190612c2d9190613e75565b505b5050505050505050565b806127101015612cb15760405162461bcd60e51b815260206004820152602560248201527f434345786368616e6765526f757465723a20666565206973206f7574206f662060448201527f72616e67650000000000000000000000000000000000000000000000000000006064820152608401610c4a565b60025460408051918252602082018390527f7d205f60891f60851c61cd244ba387d72b6589e7c0ac41b9d909ab0ce2c2a53b910160405180910390a1600255565b806001600160a01b038116612d495760405162461bcd60e51b815260206004820152601c60248201527f45786368616e6765526f757465723a207a65726f2061646472657373000000006044820152606401610c4a565b600654604080516001600160a01b03928316815291841660208301527f36a4c08a38b736dcecb6c328dba61238529620e83ccb23db2cc43cd34ec26096910160405180910390a150600680546001600160a01b0319166001600160a01b0392909216919091179055565b806001600160a01b038116612e0a5760405162461bcd60e51b815260206004820152601c60248201527f45786368616e6765526f757465723a207a65726f2061646472657373000000006044820152606401610c4a565b600454604080516001600160a01b03928316815291841660208301527f12ad124e13af4c31364ad22aa74320e167b37f005dafb75d71a210c49da3629e910160405180910390a150600480546001600160a01b0319166001600160a01b0392909216919091179055565b600082815260ae6020526040908190205490517f1e73962bcff5b98a9ac70c9b0f71fbb31dc0f5a09348c6d3ceab164169a9e72991612eda9185916001600160a01b03169085909283526001600160a01b03918216602084015216604082015260600190565b60405180910390a1600091825260ae602052604090912080546001600160a01b0319166001600160a01b03909216919091179055565b600082815260ad6020908152604091829020548251858152918201529081018290527f188adabf806a6b6d814acc1dbd9f09e5a251c8c065d6285749a5824e4579b6459060600160405180910390a1600091825260ad602052604090912055565b600a54610100900460ff16612fdc5760405162461bcd60e51b815260206004820152602b60248201527f496e697469616c697a61626c653a20636f6e7472616374206973206e6f74206960448201526a6e697469616c697a696e6760a81b6064820152608401610c4a565b6110a6613bf7565b600a54610100900460ff1661304f5760405162461bcd60e51b815260206004820152602b60248201527f496e697469616c697a61626c653a20636f6e7472616374206973206e6f74206960448201526a6e697469616c697a696e6760a81b6064820152608401610c4a565b6110a6613c6b565b806001600160a01b0381166130ae5760405162461bcd60e51b815260206004820152601c60248201527f45786368616e6765526f757465723a207a65726f2061646472657373000000006044820152606401610c4a565b600354604080516001600160a01b03928316815291841660208301527f4c28a3f61a715259c4dc930c23e7423b8fa52e13232c061a6e488729c66184f4910160405180910390a150600380546001600160a01b0319166001600160a01b0392909216919091179055565b806001600160a01b03811661316f5760405162461bcd60e51b815260206004820152601c60248201527f45786368616e6765526f757465723a207a65726f2061646472657373000000006044820152606401610c4a565b600554604080516001600160a01b03928316815291841660208301527ffa021c2ec0f46429a53e7f88b88065e40001f50c9d38b2e8b713beaf9828d4c3910160405180910390a150600580546001600160a01b0319166001600160a01b0392909216919091179055565b806001600160a01b0381166132305760405162461bcd60e51b815260206004820152601c60248201527f45786368616e6765526f757465723a207a65726f2061646472657373000000006044820152606401610c4a565b600754604080516001600160a01b03928316815291841660208301527f567657fa3f286518b318f4a29870674f433f622fdfc819691acb13105b228225910160405180910390a150600780546001600160a01b0319166001600160a01b0392909216919091179055565b60a85460405163095ea7b360e01b81526001600160a01b039182166004820152602481018590529085169063095ea7b390604401602060405180830381600087803b1580156132e857600080fd5b505af11580156132fc573d6000803e3d6000fd5b505050506040513d601f19601f820116820180604052508101906133209190613e75565b5060a8546001600160a01b0316631186ec3383868661333e8a611007565b6040516001600160e01b031960e087901b1681526001600160a01b03948516600482015293909216602484015260448301526064820152600784900b608482015263ffffffff421660a482015261010060c482015260026101048201527f307800000000000000000000000000000000000000000000000000000000000061012482015260001960e482015261014401600060405180830381600087803b1580156133e857600080fd5b505af1158015612c2d573d6000803e3d6000fd5b603d80546001600160a01b038381166001600160a01b0319831681179093556040519116919082907f8be0079c531659141344cd1fd0a4f28419497f9722a3daafe3b4186f6b6457e090600090a35050565b600060606001548914806134c45750600089815260a5602052604081208551909190869061347e9060019061478e565b8151811061349c57634e487b7160e01b600052603260045260246000fd5b6020908102919091018101516001600160a01b031682528101919091526040016000205460ff165b1561385157600654604087810151905163095ea7b360e01b81526001600160a01b038681166004830152602482019290925291169063095ea7b390604401602060405180830381600087803b15801561351c57600080fd5b505af1158015613530573d6000803e3d6000fd5b505050506040513d601f19601f820116820180604052508101906135549190613e75565b506040517f9b4bca240000000000000000000000000000000000000000000000000000000081526001600160a01b03841690639b4bca249061359a9087906004016144ad565b60206040518083038186803b1580156135b257600080fd5b505afa1580156135c6573d6000803e3d6000fd5b505050506040513d601f19601f820116820180604052508101906135ea9190613e75565b1561384c5760065484516001600160a01b0390911690859060009061361f57634e487b7160e01b600052603260045260246000fd5b60200260200101516001600160a01b03161480156136ba575060e0870151805161364b9060019061478e565b8151811061366957634e487b7160e01b600052603260045260246000fd5b60200260200101516001600160a01b03168460018651613689919061478e565b815181106136a757634e487b7160e01b600052603260045260246000fd5b60200260200101516001600160a01b0316145b6137065760405162461bcd60e51b815260206004820152601e60248201527f436345786368616e6765526f757465723a20696e76616c6964207061746800006044820152606401610c4a565b826001600160a01b031663b0bbcd8887604001518960400151878b608001514260016040518763ffffffff1660e01b8152600401613749969594939291906146b2565b600060405180830381600087803b15801561376357600080fd5b505af1158015613777573d6000803e3d6000fd5b505050506040513d6000823e601f3d908101601f1916820160405261379f9190810190613e8f565b90925090508161384c57826001600160a01b031663b0bbcd88876040015189604001518a60e001518b608001514260016040518763ffffffff1660e01b81526004016137f0969594939291906146b2565b600060405180830381600087803b15801561380a57600080fd5b505af115801561381e573d6000803e3d6000fd5b505050506040513d6000823e601f3d908101601f191682016040526138469190810190613e8f565b90925090505b613856565b600091505b60006040518060a001604052808960a0015181526020018860e0015181526020018860a0015181526020018860c001518152602001886060015181525090508215613a7057336001600160a01b031688610120015189608001516001600160a01b03167f9a89a1f930026d8c37eac8e47828d2019fb5076a7eea6314919dfc8426f894dd600560009054906101000a90046001600160a01b03166001600160a01b031663c4d10b6a8e6040518263ffffffff1660e01b815260040161391b9190614507565b60206040518083038186803b15801561393357600080fd5b505afa158015613947573d6000803e3d6000fd5b505050506040513d601f19601f8201168201806040525081019061396b9190613e59565b604080518082019091526006546001600160a01b031681528a5160208201908c906139989060019061478e565b815181106139b657634e487b7160e01b600052603260045260246000fd5b60200260200101516001600160a01b03166001600160a01b03168152506040518060400160405280896000815181106139ff57634e487b7160e01b600052603260045260246000fd5b602002602001015181526020018960018b51613a1b919061478e565b81518110613a3957634e487b7160e01b600052603260045260246000fd5b60200260200101518152508c8f600001518f608001518a604051613a639796959493929190614413565b60405180910390a4613bea565b336001600160a01b031688610120015189608001516001600160a01b03167f2f2349a4438effe698d654ac41a4f96349f503bd1e6f48dac5c8cd74f8d4d11f600560009054906101000a90046001600160a01b03166001600160a01b031663c4d10b6a8e6040518263ffffffff1660e01b8152600401613af09190614507565b60206040518083038186803b158015613b0857600080fd5b505afa158015613b1c573d6000803e3d6000fd5b505050506040513d601f19601f82011682018060405250810190613b409190613e59565b604080518082019091526006546001600160a01b031681528a5160208201908c90613b6d9060019061478e565b81518110613b8b57634e487b7160e01b600052603260045260246000fd5b60200260200101516001600160a01b03166001600160a01b031681525060405180604001604052808e60400151815260200160008152508c8f600001518f608001518a604051613be19796959493929190614413565b60405180910390a45b5097509795505050505050565b600a54610100900460ff16613c625760405162461bcd60e51b815260206004820152602b60248201527f496e697469616c697a61626c653a20636f6e7472616374206973206e6f74206960448201526a6e697469616c697a696e6760a81b6064820152608401610c4a565b6110a6336133fc565b600a54610100900460ff1661209b5760405162461bcd60e51b815260206004820152602b60248201527f496e697469616c697a61626c653a20636f6e7472616374206973206e6f74206960448201526a6e697469616c697a696e6760a81b6064820152608401610c4a565b600082601f830112613ce6578081fd5b81356020613cfb613cf68361472b565b6146fa565b8281528181019085830183850287018401881015613d17578586fd5b855b85811015613d3e578135613d2c816147d1565b84529284019290840190600101613d19565b5090979650505050505050565b8051801515811461101a57600080fd5b80356001600160e01b03198116811461101a57600080fd5b60008083601f840112613d84578182fd5b50813567ffffffffffffffff811115613d9b578182fd5b602083019150836020828501011115613db357600080fd5b9250929050565b600082601f830112613dca578081fd5b813567ffffffffffffffff811115613de457613de46147bb565b613df7601f8201601f19166020016146fa565b818152846020838601011115613e0b578283fd5b816020850160208301379081016020019190915292915050565b803560ff8116811461101a57600080fd5b600060208284031215613e47578081fd5b8135613e52816147d1565b9392505050565b600060208284031215613e6a578081fd5b8151613e52816147d1565b600060208284031215613e86578081fd5b613e5282613d4b565b60008060408385031215613ea1578081fd5b613eaa83613d4b565b915060208084015167ffffffffffffffff811115613ec6578283fd5b8401601f81018613613ed6578283fd5b8051613ee4613cf68261472b565b81815283810190838501858402850186018a1015613f00578687fd5b8694505b83851015613f22578051835260019490940193918501918501613f04565b5080955050505050509250929050565b600060208284031215613f43578081fd5b5035919050565b600060208284031215613f5b578081fd5b5051919050565b60008060408385031215613f74578182fd5b823591506020830135613f86816147d1565b809150509250929050565b600080600080600080600060e0888a031215613fab578283fd5b873596506020880135955060408801359450606088013567ffffffffffffffff811115613fd6578384fd5b613fe28a828b01613cd6565b9450506080880135925060a08801359150613fff60c08901613e25565b905092959891949750929550565b60008060008060008060008060006101008a8c03121561402b578283fd5b8935985061403b60208b01613e25565b975060408a013567ffffffffffffffff80821115614057578485fd5b6140638d838e01613dba565b985060608c0135975060808c0135965060a08c0135955061408660c08d01613e25565b945060e08c013591508082111561409b578384fd5b506140a88c828d01613d73565b915080935050809150509295985092959850929598565b600080600080606085870312156140d4578182fd5b843567ffffffffffffffff808211156140eb578384fd5b9086019060e082890312156140fe578384fd5b61410860e06146fa565b61411183613d5b565b8152602083013582811115614124578586fd5b6141308a828601613dba565b602083015250604083013582811115614147578586fd5b6141538a828601613dba565b60408301525061416560608401613d5b565b60608201526080830135608082015260a083013582811115614185578586fd5b6141918a828601613dba565b60a08301525060c083013560c08201528096505060208701359150808211156141b8578384fd5b6141c488838901613d73565b909550935060408701359150808211156141dc578283fd5b506141e987828801613cd6565b91505092959194509250565b60008060408385031215614207578182fd5b50508035926020909101359150565b60008060006060848603121561422a578081fd5b505081359360208301359350604090920135919050565b60008060008060008060008060006101208a8c03121561425f578283fd5b8935985060208a0135975060408a0135965060608a013561427f816147d1565b955060808a013561428f816147d1565b945060a08a013561429f816147d1565b935060c08a01356142af816147d1565b925060e08a01356142bf816147d1565b91506101008a01356142d0816147d1565b809150509295985092959850929598565b6000815180845260208085019450808401835b838110156143195781516001600160a01b0316875295820195908201906001016142f4565b509495945050505050565b8060005b6005811015614347578151845260209384019390910190600101614328565b50505050565b60008284528282602086013780602084860101526020601f19601f85011685010190509392505050565b60008151808452815b8181101561439c57602081850181015186830182015201614380565b818111156143ad5782602083870101525b50601f01601f19169290920160200192915050565b600085825260208581840152846040840152606083018451828601845b828110156144045781516001600160a01b0316845292840192908401906001016143df565b50919998505050505050505050565b6001600160a01b03881681526101a0810160208083018960005b60028110156144555781516001600160a01b031683526020830192509083019060010161442d565b505050606083018860005b600281101561447d57815183529183019190830190600101614460565b505050508560a08301528460c08301528360e08301526144a1610100830184614324565b98975050505050505050565b600060208252613e5260208301846142e1565b600085825260ff85166020830152608060408301526144e26080830185614377565b905082606083015295945050505050565b60006020825261175860208301848661434d565b600060208252613e526020830184614377565b60006060825261452d6060830186614377565b6001600160a01b039490941660208301525060400152919050565b600061010082526001600160e01b0319808c511661010084015260208c015160e061012085015261457d6101e0850182614377565b905060408d015160ff198583030161014086015261459b8282614377565b60608f0151909316610160860152505060808c015161018084015260a08c015183820360ff19016101a0850152906145d38183614377565b91505060c08c01516101c08401528a6020840152896040840152614602606084018a6001600160a01b03169052565b6001600160a01b03881660808401528660a084015282810360c084015261462a81868861434d565b91505061464260e08301846001600160a01b03169052565b9a9950505050505050505050565b600087825260a0602083015261466960a0830188614377565b6006871061468557634e487b7160e01b82526021600452602482fd5b866040840152828103606084015261469e81868861434d565b915050826080830152979650505050505050565b600087825286602083015260c060408301526146d160c08301876142e1565b6001600160a01b03959095166060830152506080810192909252151560a0909101529392505050565b604051601f8201601f1916810167ffffffffffffffff81118282101715614723576147236147bb565b604052919050565b600067ffffffffffffffff821115614745576147456147bb565b5060209081020190565b60008261476a57634e487b7160e01b81526012600452602481fd5b500490565b6000816000190483118215151615614789576147896147a5565b500290565b6000828210156147a0576147a06147a5565b500390565b634e487b7160e01b600052601160045260246000fd5b634e487b7160e01b600052604160045260246000fd5b6001600160a01b0381168114610f6557600080fdfea2646970667358221220af52952296658ab74558844b8f584424d9caaa121d01379a54578f9febdb935b64736f6c63430008020033",
  "deployedBytecode": "0x6080604052600436106103385760003560e01c80637f0f1817116101b0578063a9b68271116100ec578063e35a0a8811610095578063ecc92eba1161006f578063ecc92eba14610b15578063f0f4426014610b5c578063f2fde38b14610b7c578063fb41be1614610b9c5761033f565b8063e35a0a8814610a9a578063e45b5c2914610aba578063ea2979ee14610af55761033f565b8063bd51aaa3116100c6578063bd51aaa3146109e7578063c805f68b14610a5a578063cbf50bb614610a7a5761033f565b8063a9b6827114610971578063b14d3532146109a7578063b59589d1146109c75761033f565b80638f9eb78b116101595780639a8a0592116101335780639a8a0592146108fb578063a015f99c14610911578063a2d95f2214610931578063a9ac5919146109515761033f565b80638f9eb78b1461081d578063913967d31461083d57806393c5c73a146108c65761033f565b80638d3d78cd1161018a5780638d3d78cd146107bf5780638d5fc1d4146107df5780638da5cb5b146107ff5761033f565b80637f0f18171461075f57806380bc47261461077f578063870ba6cf1461079f5761033f565b80635279feed1161027f5780636c32b2ec11610228578063715018a611610202578063715018a6146106dc57806375979f79146106f15780637a2181351461072c5780637ed557481461073f5761033f565b80636c32b2ec146106705780636e8adf611461069057806370872aa5146106c65761033f565b806361be10f21161025957806361be10f21461061057806361d027b3146106305780636b2857ef146106505761033f565b80635279feed146105a3578063527b42a6146105c357806359fd0b0c146105e35761033f565b80631e7107c7116102e157806342b5dcd0116102bb57806342b5dcd0146105145780634e63ba951461052a5780635221c1f0146105735761033f565b80631e7107c7146104b4578063292c1d92146104d457806333fe5676146104f45761033f565b80631812adb6116103125780631812adb61461044e5780631876dec4146104725780631dc4b09c146104925761033f565b806306be8b0e146103445780630d6467c0146103e657806317fcb39b146104165761033f565b3661033f57005b600080fd5b34801561035057600080fd5b506103a661035f366004613f32565b60a76020526000908152604090208054600182015460028301546003840154600485015460058601546006870154600790970154959660ff90951695939492939192909188565b604080519889529615156020890152958701949094526060860192909252608085015260a084015260c083015260e0820152610100015b60405180910390f35b3480156103f257600080fd5b5061040661040136600461400d565b610bbc565b60405190151581526020016103dd565b34801561042257600080fd5b5060a954610436906001600160a01b031681565b6040516001600160a01b0390911681526020016103dd565b34801561045a57600080fd5b5061046460025481565b6040519081526020016103dd565b34801561047e57600080fd5b50600554610436906001600160a01b031681565b34801561049e57600080fd5b506104b26104ad366004613e36565b610f54565b005b3480156104c057600080fd5b506104b26104cf366004613f32565b610f68565b3480156104e057600080fd5b5060a854610436906001600160a01b031681565b34801561050057600080fd5b506104b261050f366004613f62565b610f79565b34801561052057600080fd5b5061046460a15481565b34801561053657600080fd5b5061055e610545366004613f32565b60ac602052600090815260409020805460019091015482565b604080519283526020830191909152016103dd565b34801561057f57600080fd5b5061040661058e366004613f32565b60a66020526000908152604090205460ff1681565b3480156105af57600080fd5b506104b26105be366004614216565b610fef565b3480156105cf57600080fd5b506104646105de366004613f32565b611007565b3480156105ef57600080fd5b506104646105fe366004613f32565b60ad6020526000908152604090205481565b34801561061c57600080fd5b506104b261062b366004613e36565b61101f565b34801561063c57600080fd5b50600754610436906001600160a01b031681565b34801561065c57600080fd5b506104b261066b366004613f62565b611030565b34801561067c57600080fd5b5060aa54610436906001600160a01b031681565b34801561069c57600080fd5b506104366106ab366004613f32565b6008602052600090815260409020546001600160a01b031681565b3480156106d257600080fd5b5061046460005481565b3480156106e857600080fd5b506104b261109e565b3480156106fd57600080fd5b5061040661070c366004613f62565b60a560209081526000928352604080842090915290825290205460ff1681565b61040661073a3660046140bf565b6110a8565b34801561074b57600080fd5b506104b261075a366004613f32565b611760565b34801561076b57600080fd5b506104b261077a366004613e36565b611771565b34801561078b57600080fd5b5061040661079a366004613f32565b611782565b3480156107ab57600080fd5b506104b26107ba366004613e36565b6117ab565b3480156107cb57600080fd5b50600654610436906001600160a01b031681565b3480156107eb57600080fd5b506104b26107fa366004613f62565b6117bc565b34801561080b57600080fd5b50603d546001600160a01b0316610436565b34801561082957600080fd5b506104b26108383660046141f5565b6117d2565b34801561084957600080fd5b50610894610858366004613f32565b60a4602052600090815260409020805460018201546002830154600384015460049094015492936001600160a01b039092169290919060ff1685565b604080519586526001600160a01b0390941660208601529284019190915260608301521515608082015260a0016103dd565b3480156108d257600080fd5b5061055e6108e1366004613f32565b600090815260ac6020526040902080546001909101549091565b34801561090757600080fd5b5061046460015481565b34801561091d57600080fd5b506104b261092c366004614241565b6117e4565b34801561093d57600080fd5b5061040661094c366004613f91565b61197b565b34801561095d57600080fd5b506104b261096c366004613f62565b611dfc565b34801561097d57600080fd5b5061043661098c366004613f32565b60ae602052600090815260409020546001600160a01b031681565b3480156109b357600080fd5b506104b26109c2366004613e36565b611e75565b3480156109d357600080fd5b50600354610436906001600160a01b031681565b3480156109f357600080fd5b50610a37610a02366004613f62565b60a260209081526000928352604080842090915290825290208054600182015460029092015490916001600160a01b03169083565b604080519384526001600160a01b039092166020840152908201526060016103dd565b348015610a6657600080fd5b506104b2610a75366004613e36565b611e86565b348015610a8657600080fd5b506104b2610a95366004613f32565b611e97565b348015610aa657600080fd5b50600454610436906001600160a01b031681565b348015610ac657600080fd5b50610464610ad5366004613f62565b60a360209081526000928352604080842090915290825290206001015481565b348015610b0157600080fd5b506104b2610b10366004613f32565b611eea565b348015610b2157600080fd5b506104b2610b30366004614216565b6040805180820182529384526020808501938452600092835260ac905290209151825551600190910155565b348015610b6857600080fd5b506104b2610b77366004613e36565b611f40565b348015610b8857600080fd5b506104b2610b97366004613e36565b611f51565b348015610ba857600080fd5b5060ab54610436906001600160a01b031681565b6000610bc6611fde565b60015460008b815260a7602052604090205414801590610bf8575060008a815260a7602052604090206001015460ff16155b610c535760405162461bcd60e51b815260206004820152602160248201527f45786368616e6765526f757465723a20616c72656164792070726f63657373656044820152601960fa1b60648201526084015b60405180910390fd5b600160a760008c815260200190815260200160002060010160006101000a81548160ff021916908315150217905550600960008b815260200190815260200160002060030160019054906101000a90046001600160a01b03166001600160a01b031673__$5188ca1ef01dc999a9b560e2e2728f759b$__6319e52d54610cfd8d8d8d8d604051602001610ce994939291906144c0565b604051602081830303815290604052612038565b6040516001600160e01b031960e084901b1681526004810191909152602481018a90526044810189905260ff8816606482015260840160206040518083038186803b158015610d4b57600080fd5b505af4158015610d5f573d6000803e3d6000fd5b505050506040513d601f19601f82011682018060405250810190610d839190613e59565b6001600160a01b031614610dd95760405162461bcd60e51b815260206004820152601e60248201527f45786368616e6765526f757465723a20696e76616c6964207369676e657200006044820152606401610c4a565b60065460aa5460008c815260a760205260409081902060020154905163095ea7b360e01b81526001600160a01b039283166004820152602481019190915291169063095ea7b390604401602060405180830381600087803b158015610e3d57600080fd5b505af1158015610e51573d6000803e3d6000fd5b505050506040513d601f19601f82011682018060405250810190610e759190613e75565b5060aa5460008b815260a760205260409020600201546001600160a01b0390911690633fea4367908a60ff8d166005811115610ec157634e487b7160e01b600052602160045260246000fd5b878760006040518763ffffffff1660e01b8152600401610ee696959493929190614650565b602060405180830381600087803b158015610f0057600080fd5b505af1158015610f14573d6000803e3d6000fd5b505050506040513d601f19601f82011682018060405250810190610f389190613f4a565b5060019050610f476001606f55565b9998505050505050505050565b610f5c6120a2565b610f65816120fc565b50565b610f706120a2565b610f65816121bd565b610f816120a2565b604080518381526001600160a01b03831660208201527fb3036f81a7a8205f3b94de16897df636d553839d92289fb7ec72dd2d54132842910160405180910390a1600091825260a5602090815260408084206001600160a01b0390931684529190529020805460ff19169055565b610ff76120a2565b611002828285612239565b505050565b600081815260ac60205260409020600101545b919050565b6110276120a2565b610f65816122a6565b6110386120a2565b60008281526008602090815260409182902080546001600160a01b0319166001600160a01b0385169081179091558251858152918201527f31a8c4e62daac2a3ed5d713004d9ae867d6dcddfa35603db2a4b65d9236b1bc1910160405180910390a15050565b6110a66120a2565b565b60006110b2611fde565b6004546001600160a01b0316336001600160a01b0316146111155760405162461bcd60e51b815260206004820152601e60248201527f45786368616e6765526f757465723a20696e76616c69642073656e64657200006044820152606401610c4a565b6000548560800151101561116b5760405162461bcd60e51b815260206004820152601b60248201527f45786368616e6765526f757465723a206f6c64207265717565737400000000006044820152606401610c4a565b60608501516001600160e01b031916156111ed5760405162461bcd60e51b815260206004820152602160248201527f45786368616e6765526f757465723a206e6f6e2d7a65726f206c6f636b74696d60448201527f65000000000000000000000000000000000000000000000000000000000000006064820152608401610c4a565b6005546040517faff2faa30000000000000000000000000000000000000000000000000000000081526001600160a01b039091169063aff2faa39061123890879087906004016144f3565b60206040518083038186803b15801561125057600080fd5b505afa158015611264573d6000803e3d6000fd5b505050506040513d601f19601f820116820180604052508101906112889190613e75565b6112d45760405162461bcd60e51b815260206004820152601a60248201527f45786368616e6765526f757465723a206e6f74206c6f636b65720000000000006044820152606401610c4a565b600073__$5188ca1ef01dc999a9b560e2e2728f759b$__63dba71cdf87600960a7600660009054906101000a90046001600160a01b031660a960009054906101000a90046001600160a01b03166127108c8c600360009054906101000a90046001600160a01b03166040518a63ffffffff1660e01b815260040161136099989796959493929190614548565b60206040518083038186803b15801561137857600080fd5b505af415801561138c573d6000803e3d6000fd5b505050506040513d601f19601f820116820180604052508101906113b09190613f4a565b600081815260a760205260408120549192509081906113e390600090815260ac6020526040902080546001909101549091565b9150915060015482146114385760405162461bcd60e51b815260206004820152601b60248201527f45786368616e6765526f757465723a2077726f6e6720636861696e00000000006044820152606401610c4a565b600081815260a6602052604090205460ff166114965760405162461bcd60e51b815260206004820181905260248201527f45786368616e6765526f757465723a20696e76616c696420636861696e2069646044820152606401610c4a565b600083815260096020908152604080832081516101408101835281548152600182015481850152600282015481840152600382015460ff808216151560608401526101009091046001600160a01b03166080830152600483015460a0830152600583015416151560c08201526006820180548451818702810187019095528085529194929360e086019390929083018282801561155c57602002820191906000526020600020905b81546001600160a01b0316815260019091019060200180831161153e575b50505091835250506007820154602080830191909152600892830154604092830152835160009081529290529020549091506001600160a01b0316806115e45760405162461bcd60e51b815260206004820152601d60248201527f45786368616e6765526f757465723a20696e76616c69642061707049640000006044820152606401610c4a565b61162589898080601f016020809104026020016040519081016040528093929190818152602001838380828437600092019190915250899250612367915050565b6101208201511561169e5760405162461bcd60e51b815260206004820152602760248201527f45786368616e6765526f757465723a2066696c6c6572206973206e6f7420737560448201527f70706f72746564000000000000000000000000000000000000000000000000006064820152608401610c4a565b6001548314156116f1576116ec818a8a8080601f0160208091040260200160405190810160405280939291908181526020018383808284376000920191909152508a92508c91506127499050565b611745565b611745818a8a8080601f01602080910402602001604051908101604052809392919081815260200183838082843760009201829052508b815260a760205260409020600301548b93508d925090508861296d565b6001955050505050506117586001606f55565b949350505050565b6117686120a2565b610f6581612c39565b6117796120a2565b610f6581612cf2565b60008181526009602052604081206005015460ff166117a25760006117a5565b60015b92915050565b6117b36120a2565b610f6581612db3565b6117c46120a2565b6117ce8282612e74565b5050565b6117da6120a2565b6117ce8282612f10565b600a54610100900460ff16158080156118045750600a54600160ff909116105b8061181e5750303b15801561181e5750600a5460ff166001145b6118905760405162461bcd60e51b815260206004820152602e60248201527f496e697469616c697a61626c653a20636f6e747261637420697320616c72656160448201527f647920696e697469616c697a65640000000000000000000000000000000000006064820152608401610c4a565b600a805460ff1916600117905580156118b357600a805461ff0019166101001790555b6118bb612f71565b6118c3612fe4565b6001888155600089815260a660205260409020805460ff191690911790556118ea8a6121bd565b6118f389612c39565b6118fc86613057565b61190587613118565b61190e85612cf2565b611917846131d9565b611920836122a6565b611929826120fc565b801561196f57600a805461ff0019169055604051600181527f7f26b83ff96e1f2b6a682f133852f6798a09c465da95921460cefb38474024989060200160405180910390a15b50505050505050505050565b6000611985611fde565b600088815260096020908152604080832081516101408101835281548152600182015481850152600282015481840152600382015460ff808216151560608401526101009091046001600160a01b03166080830152600483015460a0830152600583015416151560c08201526006820180548451818702810187019095528085529194929360e0860193909290830182828015611a4b57602002820191906000526020600020905b81546001600160a01b03168152600190910190602001808311611a2d575b5050505050815260200160078201548152602001600882015481525050905060015460a760008b81526020019081526020016000206000015414158015611aa45750600089815260a7602052604090206001015460ff16155b611afa5760405162461bcd60e51b815260206004820152602160248201527f45786368616e6765526f757465723a20616c72656164792070726f63657373656044820152601960fa1b6064820152608401610c4a565b600089815260a760209081526040918290206001908101805460ff19169091179055608083015191516001600160a01b039092169173__$5188ca1ef01dc999a9b560e2e2728f759b$__916319e52d5491611b6191610ce9918f918f918f918f91016143c2565b6040516001600160e01b031960e084901b1681526004810191909152602481018990526044810188905260ff8716606482015260840160206040518083038186803b158015611baf57600080fd5b505af4158015611bc3573d6000803e3d6000fd5b505050506040513d601f19601f82011682018060405250810190611be79190613e59565b6001600160a01b031614611c3d5760405162461bcd60e51b815260206004820152601e60248201527f45786368616e6765526f757465723a20696e76616c6964207369676e657200006044820152606401610c4a565b80516000908152600860209081526040808320548c845260a79092528083206002015490517fb0bbcd8800000000000000000000000000000000000000000000000000000000815283926001600160a01b03169163b0bbcd8891611caf91908e908d90309042906001906004016146b2565b600060405180830381600087803b158015611cc957600080fd5b505af1158015611cdd573d6000803e3d6000fd5b505050506040513d6000823e601f3d908101601f19168201604052611d059190810190613e8f565b9150915081611d565760405162461bcd60e51b815260206004820152601b60248201527f45786368616e6765526f757465723a2073776170206661696c656400000000006044820152606401610c4a565b60008b815260a760205260409020548851611de091908a90611d7a9060019061478e565b81518110611d9857634e487b7160e01b600052603260045260246000fd5b60200260200101518360018551611daf919061478e565b81518110611dcd57634e487b7160e01b600052603260045260246000fd5b602002602001015186608001518d61329a565b60019350505050611df16001606f55565b979650505050505050565b611e046120a2565b604080518381526001600160a01b03831660208201527fca37a60f79854243dcab36b6ad6fcaafc7ae13448087ee70547943babc7dccf0910160405180910390a1600091825260a5602090815260408084206001600160a01b0390931684529190529020805460ff19166001179055565b611e7d6120a2565b610f6581613118565b611e8e6120a2565b610f6581613057565b611e9f6120a2565b6040518181527f11a9d1a77f76361ed131c19b1dc5758504c51dbde2e49fc973a0ef9577ad13d59060200160405180910390a1600090815260a660205260409020805460ff19169055565b611ef26120a2565b6040518181527fbba9d55e9fd1a441b1617724e2fdb76777d15ec77ab2b72ac15952cbe97085db9060200160405180910390a1600090815260a660205260409020805460ff19166001179055565b611f486120a2565b610f65816131d9565b611f596120a2565b6001600160a01b038116611fd55760405162461bcd60e51b815260206004820152602660248201527f4f776e61626c653a206e6577206f776e657220697320746865207a65726f206160448201527f64647265737300000000000000000000000000000000000000000000000000006064820152608401610c4a565b610f65816133fc565b6002606f5414156120315760405162461bcd60e51b815260206004820152601f60248201527f5265656e7472616e637947756172643a207265656e7472616e742063616c6c006044820152606401610c4a565b6002606f55565b6000818051906020012060405160200161207e91907f19457468657265756d205369676e6564204d6573736167653a0a3332000000008152601c810191909152603c0190565b604051602081830303815290604052805190602001209050919050565b6001606f55565b603d546001600160a01b031633146110a65760405162461bcd60e51b815260206004820181905260248201527f4f776e61626c653a2063616c6c6572206973206e6f7420746865206f776e65726044820152606401610c4a565b806001600160a01b0381166121535760405162461bcd60e51b815260206004820152601c60248201527f45786368616e6765526f757465723a207a65726f2061646472657373000000006044820152606401610c4a565b60aa54604080516001600160a01b03928316815291841660208301527f5b663d57fa8cf393f8c8019f514b25c1b3223c9324a2ce3efe28ce5aef0e62fe910160405180910390a15060aa80546001600160a01b0319166001600160a01b0392909216919091179055565b60005481116122345760405162461bcd60e51b815260206004820152602960248201527f434345786368616e6765526f757465723a206c6f77207374617274696e67426c60448201527f6f636b4e756d62657200000000000000000000000000000000000000000000006064820152608401610c4a565b600055565b60408051828152602081018590529081018390527fd4d81e1736e6dd2e97d0c6eff0dc7ec7184dec2bd4e03ce98d84d6057a8045c49060600160405180910390a16040805180820182529384526020808501938452600092835260ac905290209151825551600190910155565b806001600160a01b0381166122fd5760405162461bcd60e51b815260206004820152601c60248201527f45786368616e6765526f757465723a207a65726f2061646472657373000000006044820152606401610c4a565b60a854604080516001600160a01b03928316815291841660208301527f06e5f2ca1234f717a2031f662608c02182d4f8bdc3dab013ec4c04eb97553132910160405180910390a15060a880546001600160a01b0319166001600160a01b0392909216919091179055565b6005546000828152600960205260408082206001015490517f1fcfe19c00000000000000000000000000000000000000000000000000000000815291926001600160a01b031691631fcfe19c916123c4918791309160040161451a565b602060405180830381600087803b1580156123de57600080fd5b505af11580156123f2573d6000803e3d6000fd5b505050506040513d601f19601f820116820180604052508101906124169190613f4a565b6002546000848152600960205260409020600101549192506127109161243c919061476f565b612446919061474f565b600083815260a76020908152604080832060058101949094556009808352818420600480820154960154855260ad8452918420549387905290915260010154612710916124929161476f565b61249c919061474f565b600084815260a760209081526040808320600601939093556009905220600101546124c890839061478e565b600084815260a760205260409020600701558015612574576006546001600160a01b031663a9059cbb336040516001600160e01b031960e084901b1681526001600160a01b03909116600482015260248101849052604401602060405180830381600087803b15801561253a57600080fd5b505af115801561254e573d6000803e3d6000fd5b505050506040513d601f19601f820116820180604052508101906125729190613e75565b505b600083815260a760205260409020600501541561262957600654600754600085815260a760205260409081902060050154905163a9059cbb60e01b81526001600160a01b039283166004820152602481019190915291169063a9059cbb90604401602060405180830381600087803b1580156125ef57600080fd5b505af1158015612603573d6000803e3d6000fd5b505050506040513d601f19601f820116820180604052508101906126279190613e75565b505b600083815260a76020526040902060060154156126f55760068054600085815260a760208181526040808420600480820154865260ae845282862054958b905293909252940154935163a9059cbb60e01b81526001600160a01b03928316918101919091526024810193909352169063a9059cbb90604401602060405180830381600087803b1580156126bb57600080fd5b505af11580156126cf573d6000803e3d6000fd5b505050506040513d601f19601f820116820180604052508101906126f39190613e75565b505b600083815260a7602052604090206006810154600590910154829061271a908561478e565b612724919061478e565b61272e919061478e565b600093845260a7602052604090932060020192909255505050565b600180546000848152600960209081526040808320815161014081018352815481529581015486840152600281015486830152600381015460ff808216151560608901526101009091046001600160a01b03166080880152600482015460a0880152600582015416151560c0870152600681018054835181860281018601909452808452949687966128ad9690958c9592949360e086019392909183018282801561281d57602002820191906000526020600020905b81546001600160a01b031681526001909101906020018083116127ff575b505050918352505060078281015460208084019190915260089093015460409283015260008b815260a7845282902082516101008101845281548152600182015460ff161515948101949094526002810154928401929092526003820154606084015260048201546080840152600582015460a0840152600682015460c0840152015460e082015288888c61344e565b91509150816129655760065460008581526009602090815260408083206003015460a79092529182902060020154915163a9059cbb60e01b81526101009091046001600160a01b039081166004830152602482019290925291169063a9059cbb90604401602060405180830381600087803b15801561292b57600080fd5b505af115801561293f573d6000803e3d6000fd5b505050506040513d601f19601f820116820180604052508101906129639190613e75565b505b505050505050565b600084815260096020908152604080832081516101408101835281548152600182015481850152600282015481840152600382015460ff808216151560608401526101009091046001600160a01b03166080830152600483015460a0830152600583015416151560c08201526006820180548451818702810187019095528085528695612ac99589958e9594909360e0860193830182828015612a3957602002820191906000526020600020905b81546001600160a01b03168152600190910190602001808311612a1b575b505050918352505060078281015460208084019190915260089093015460409283015260008d815260a7845282902082516101008101845281548152600182015460ff161515948101949094526002810154928401929092526003820154606084015260048201546080840152600582015460a0840152600682015460c0840152015460e08201528a8a8e61344e565b915091508115612b9457600086815260a7602052604090206001818101805460ff19168217905590548651612b8f928891612b04919061478e565b81518110612b2257634e487b7160e01b600052603260045260246000fd5b60200260200101518360018551612b39919061478e565b81518110612b5757634e487b7160e01b600052603260045260246000fd5b6020026020010151600960008b815260200190815260200160002060030160019054906101000a90046001600160a01b03168861329a565b612c2f565b600654600087815260a760205260409081902060020154905163095ea7b360e01b81526001600160a01b038b81166004830152602482019290925291169063095ea7b390604401602060405180830381600087803b158015612bf557600080fd5b505af1158015612c09573d6000803e3d6000fd5b505050506040513d601f19601f82011682018060405250810190612c2d9190613e75565b505b5050505050505050565b806127101015612cb15760405162461bcd60e51b815260206004820152602560248201527f434345786368616e6765526f757465723a20666565206973206f7574206f662060448201527f72616e67650000000000000000000000000000000000000000000000000000006064820152608401610c4a565b60025460408051918252602082018390527f7d205f60891f60851c61cd244ba387d72b6589e7c0ac41b9d909ab0ce2c2a53b910160405180910390a1600255565b806001600160a01b038116612d495760405162461bcd60e51b815260206004820152601c60248201527f45786368616e6765526f757465723a207a65726f2061646472657373000000006044820152606401610c4a565b600654604080516001600160a01b03928316815291841660208301527f36a4c08a38b736dcecb6c328dba61238529620e83ccb23db2cc43cd34ec26096910160405180910390a150600680546001600160a01b0319166001600160a01b0392909216919091179055565b806001600160a01b038116612e0a5760405162461bcd60e51b815260206004820152601c60248201527f45786368616e6765526f757465723a207a65726f2061646472657373000000006044820152606401610c4a565b600454604080516001600160a01b03928316815291841660208301527f12ad124e13af4c31364ad22aa74320e167b37f005dafb75d71a210c49da3629e910160405180910390a150600480546001600160a01b0319166001600160a01b0392909216919091179055565b600082815260ae6020526040908190205490517f1e73962bcff5b98a9ac70c9b0f71fbb31dc0f5a09348c6d3ceab164169a9e72991612eda9185916001600160a01b03169085909283526001600160a01b03918216602084015216604082015260600190565b60405180910390a1600091825260ae602052604090912080546001600160a01b0319166001600160a01b03909216919091179055565b600082815260ad6020908152604091829020548251858152918201529081018290527f188adabf806a6b6d814acc1dbd9f09e5a251c8c065d6285749a5824e4579b6459060600160405180910390a1600091825260ad602052604090912055565b600a54610100900460ff16612fdc5760405162461bcd60e51b815260206004820152602b60248201527f496e697469616c697a61626c653a20636f6e7472616374206973206e6f74206960448201526a6e697469616c697a696e6760a81b6064820152608401610c4a565b6110a6613bf7565b600a54610100900460ff1661304f5760405162461bcd60e51b815260206004820152602b60248201527f496e697469616c697a61626c653a20636f6e7472616374206973206e6f74206960448201526a6e697469616c697a696e6760a81b6064820152608401610c4a565b6110a6613c6b565b806001600160a01b0381166130ae5760405162461bcd60e51b815260206004820152601c60248201527f45786368616e6765526f757465723a207a65726f2061646472657373000000006044820152606401610c4a565b600354604080516001600160a01b03928316815291841660208301527f4c28a3f61a715259c4dc930c23e7423b8fa52e13232c061a6e488729c66184f4910160405180910390a150600380546001600160a01b0319166001600160a01b0392909216919091179055565b806001600160a01b03811661316f5760405162461bcd60e51b815260206004820152601c60248201527f45786368616e6765526f757465723a207a65726f2061646472657373000000006044820152606401610c4a565b600554604080516001600160a01b03928316815291841660208301527ffa021c2ec0f46429a53e7f88b88065e40001f50c9d38b2e8b713beaf9828d4c3910160405180910390a150600580546001600160a01b0319166001600160a01b0392909216919091179055565b806001600160a01b0381166132305760405162461bcd60e51b815260206004820152601c60248201527f45786368616e6765526f757465723a207a65726f2061646472657373000000006044820152606401610c4a565b600754604080516001600160a01b03928316815291841660208301527f567657fa3f286518b318f4a29870674f433f622fdfc819691acb13105b228225910160405180910390a150600780546001600160a01b0319166001600160a01b0392909216919091179055565b60a85460405163095ea7b360e01b81526001600160a01b039182166004820152602481018590529085169063095ea7b390604401602060405180830381600087803b1580156132e857600080fd5b505af11580156132fc573d6000803e3d6000fd5b505050506040513d601f19601f820116820180604052508101906133209190613e75565b5060a8546001600160a01b0316631186ec3383868661333e8a611007565b6040516001600160e01b031960e087901b1681526001600160a01b03948516600482015293909216602484015260448301526064820152600784900b608482015263ffffffff421660a482015261010060c482015260026101048201527f307800000000000000000000000000000000000000000000000000000000000061012482015260001960e482015261014401600060405180830381600087803b1580156133e857600080fd5b505af1158015612c2d573d6000803e3d6000fd5b603d80546001600160a01b038381166001600160a01b0319831681179093556040519116919082907f8be0079c531659141344cd1fd0a4f28419497f9722a3daafe3b4186f6b6457e090600090a35050565b600060606001548914806134c45750600089815260a5602052604081208551909190869061347e9060019061478e565b8151811061349c57634e487b7160e01b600052603260045260246000fd5b6020908102919091018101516001600160a01b031682528101919091526040016000205460ff165b1561385157600654604087810151905163095ea7b360e01b81526001600160a01b038681166004830152602482019290925291169063095ea7b390604401602060405180830381600087803b15801561351c57600080fd5b505af1158015613530573d6000803e3d6000fd5b505050506040513d601f19601f820116820180604052508101906135549190613e75565b506040517f9b4bca240000000000000000000000000000000000000000000000000000000081526001600160a01b03841690639b4bca249061359a9087906004016144ad565b60206040518083038186803b1580156135b257600080fd5b505afa1580156135c6573d6000803e3d6000fd5b505050506040513d601f19601f820116820180604052508101906135ea9190613e75565b1561384c5760065484516001600160a01b0390911690859060009061361f57634e487b7160e01b600052603260045260246000fd5b60200260200101516001600160a01b03161480156136ba575060e0870151805161364b9060019061478e565b8151811061366957634e487b7160e01b600052603260045260246000fd5b60200260200101516001600160a01b03168460018651613689919061478e565b815181106136a757634e487b7160e01b600052603260045260246000fd5b60200260200101516001600160a01b0316145b6137065760405162461bcd60e51b815260206004820152601e60248201527f436345786368616e6765526f757465723a20696e76616c6964207061746800006044820152606401610c4a565b826001600160a01b031663b0bbcd8887604001518960400151878b608001514260016040518763ffffffff1660e01b8152600401613749969594939291906146b2565b600060405180830381600087803b15801561376357600080fd5b505af1158015613777573d6000803e3d6000fd5b505050506040513d6000823e601f3d908101601f1916820160405261379f9190810190613e8f565b90925090508161384c57826001600160a01b031663b0bbcd88876040015189604001518a60e001518b608001514260016040518763ffffffff1660e01b81526004016137f0969594939291906146b2565b600060405180830381600087803b15801561380a57600080fd5b505af115801561381e573d6000803e3d6000fd5b505050506040513d6000823e601f3d908101601f191682016040526138469190810190613e8f565b90925090505b613856565b600091505b60006040518060a001604052808960a0015181526020018860e0015181526020018860a0015181526020018860c001518152602001886060015181525090508215613a7057336001600160a01b031688610120015189608001516001600160a01b03167f9a89a1f930026d8c37eac8e47828d2019fb5076a7eea6314919dfc8426f894dd600560009054906101000a90046001600160a01b03166001600160a01b031663c4d10b6a8e6040518263ffffffff1660e01b815260040161391b9190614507565b60206040518083038186803b15801561393357600080fd5b505afa158015613947573d6000803e3d6000fd5b505050506040513d601f19601f8201168201806040525081019061396b9190613e59565b604080518082019091526006546001600160a01b031681528a5160208201908c906139989060019061478e565b815181106139b657634e487b7160e01b600052603260045260246000fd5b60200260200101516001600160a01b03166001600160a01b03168152506040518060400160405280896000815181106139ff57634e487b7160e01b600052603260045260246000fd5b602002602001015181526020018960018b51613a1b919061478e565b81518110613a3957634e487b7160e01b600052603260045260246000fd5b60200260200101518152508c8f600001518f608001518a604051613a639796959493929190614413565b60405180910390a4613bea565b336001600160a01b031688610120015189608001516001600160a01b03167f2f2349a4438effe698d654ac41a4f96349f503bd1e6f48dac5c8cd74f8d4d11f600560009054906101000a90046001600160a01b03166001600160a01b031663c4d10b6a8e6040518263ffffffff1660e01b8152600401613af09190614507565b60206040518083038186803b158015613b0857600080fd5b505afa158015613b1c573d6000803e3d6000fd5b505050506040513d601f19601f82011682018060405250810190613b409190613e59565b604080518082019091526006546001600160a01b031681528a5160208201908c90613b6d9060019061478e565b81518110613b8b57634e487b7160e01b600052603260045260246000fd5b60200260200101516001600160a01b03166001600160a01b031681525060405180604001604052808e60400151815260200160008152508c8f600001518f608001518a604051613be19796959493929190614413565b60405180910390a45b5097509795505050505050565b600a54610100900460ff16613c625760405162461bcd60e51b815260206004820152602b60248201527f496e697469616c697a61626c653a20636f6e7472616374206973206e6f74206960448201526a6e697469616c697a696e6760a81b6064820152608401610c4a565b6110a6336133fc565b600a54610100900460ff1661209b5760405162461bcd60e51b815260206004820152602b60248201527f496e697469616c697a61626c653a20636f6e7472616374206973206e6f74206960448201526a6e697469616c697a696e6760a81b6064820152608401610c4a565b600082601f830112613ce6578081fd5b81356020613cfb613cf68361472b565b6146fa565b8281528181019085830183850287018401881015613d17578586fd5b855b85811015613d3e578135613d2c816147d1565b84529284019290840190600101613d19565b5090979650505050505050565b8051801515811461101a57600080fd5b80356001600160e01b03198116811461101a57600080fd5b60008083601f840112613d84578182fd5b50813567ffffffffffffffff811115613d9b578182fd5b602083019150836020828501011115613db357600080fd5b9250929050565b600082601f830112613dca578081fd5b813567ffffffffffffffff811115613de457613de46147bb565b613df7601f8201601f19166020016146fa565b818152846020838601011115613e0b578283fd5b816020850160208301379081016020019190915292915050565b803560ff8116811461101a57600080fd5b600060208284031215613e47578081fd5b8135613e52816147d1565b9392505050565b600060208284031215613e6a578081fd5b8151613e52816147d1565b600060208284031215613e86578081fd5b613e5282613d4b565b60008060408385031215613ea1578081fd5b613eaa83613d4b565b915060208084015167ffffffffffffffff811115613ec6578283fd5b8401601f81018613613ed6578283fd5b8051613ee4613cf68261472b565b81815283810190838501858402850186018a1015613f00578687fd5b8694505b83851015613f22578051835260019490940193918501918501613f04565b5080955050505050509250929050565b600060208284031215613f43578081fd5b5035919050565b600060208284031215613f5b578081fd5b5051919050565b60008060408385031215613f74578182fd5b823591506020830135613f86816147d1565b809150509250929050565b600080600080600080600060e0888a031215613fab578283fd5b873596506020880135955060408801359450606088013567ffffffffffffffff811115613fd6578384fd5b613fe28a828b01613cd6565b9450506080880135925060a08801359150613fff60c08901613e25565b905092959891949750929550565b60008060008060008060008060006101008a8c03121561402b578283fd5b8935985061403b60208b01613e25565b975060408a013567ffffffffffffffff80821115614057578485fd5b6140638d838e01613dba565b985060608c0135975060808c0135965060a08c0135955061408660c08d01613e25565b945060e08c013591508082111561409b578384fd5b506140a88c828d01613d73565b915080935050809150509295985092959850929598565b600080600080606085870312156140d4578182fd5b843567ffffffffffffffff808211156140eb578384fd5b9086019060e082890312156140fe578384fd5b61410860e06146fa565b61411183613d5b565b8152602083013582811115614124578586fd5b6141308a828601613dba565b602083015250604083013582811115614147578586fd5b6141538a828601613dba565b60408301525061416560608401613d5b565b60608201526080830135608082015260a083013582811115614185578586fd5b6141918a828601613dba565b60a08301525060c083013560c08201528096505060208701359150808211156141b8578384fd5b6141c488838901613d73565b909550935060408701359150808211156141dc578283fd5b506141e987828801613cd6565b91505092959194509250565b60008060408385031215614207578182fd5b50508035926020909101359150565b60008060006060848603121561422a578081fd5b505081359360208301359350604090920135919050565b60008060008060008060008060006101208a8c03121561425f578283fd5b8935985060208a0135975060408a0135965060608a013561427f816147d1565b955060808a013561428f816147d1565b945060a08a013561429f816147d1565b935060c08a01356142af816147d1565b925060e08a01356142bf816147d1565b91506101008a01356142d0816147d1565b809150509295985092959850929598565b6000815180845260208085019450808401835b838110156143195781516001600160a01b0316875295820195908201906001016142f4565b509495945050505050565b8060005b6005811015614347578151845260209384019390910190600101614328565b50505050565b60008284528282602086013780602084860101526020601f19601f85011685010190509392505050565b60008151808452815b8181101561439c57602081850181015186830182015201614380565b818111156143ad5782602083870101525b50601f01601f19169290920160200192915050565b600085825260208581840152846040840152606083018451828601845b828110156144045781516001600160a01b0316845292840192908401906001016143df565b50919998505050505050505050565b6001600160a01b03881681526101a0810160208083018960005b60028110156144555781516001600160a01b031683526020830192509083019060010161442d565b505050606083018860005b600281101561447d57815183529183019190830190600101614460565b505050508560a08301528460c08301528360e08301526144a1610100830184614324565b98975050505050505050565b600060208252613e5260208301846142e1565b600085825260ff85166020830152608060408301526144e26080830185614377565b905082606083015295945050505050565b60006020825261175860208301848661434d565b600060208252613e526020830184614377565b60006060825261452d6060830186614377565b6001600160a01b039490941660208301525060400152919050565b600061010082526001600160e01b0319808c511661010084015260208c015160e061012085015261457d6101e0850182614377565b905060408d015160ff198583030161014086015261459b8282614377565b60608f0151909316610160860152505060808c015161018084015260a08c015183820360ff19016101a0850152906145d38183614377565b91505060c08c01516101c08401528a6020840152896040840152614602606084018a6001600160a01b03169052565b6001600160a01b03881660808401528660a084015282810360c084015261462a81868861434d565b91505061464260e08301846001600160a01b03169052565b9a9950505050505050505050565b600087825260a0602083015261466960a0830188614377565b6006871061468557634e487b7160e01b82526021600452602482fd5b866040840152828103606084015261469e81868861434d565b915050826080830152979650505050505050565b600087825286602083015260c060408301526146d160c08301876142e1565b6001600160a01b03959095166060830152506080810192909252151560a0909101529392505050565b604051601f8201601f1916810167ffffffffffffffff81118282101715614723576147236147bb565b604052919050565b600067ffffffffffffffff821115614745576147456147bb565b5060209081020190565b60008261476a57634e487b7160e01b81526012600452602481fd5b500490565b6000816000190483118215151615614789576147896147a5565b500290565b6000828210156147a0576147a06147a5565b500390565b634e487b7160e01b600052601160045260246000fd5b634e487b7160e01b600052604160045260246000fd5b6001600160a01b0381168114610f6557600080fdfea2646970667358221220af52952296658ab74558844b8f584424d9caaa121d01379a54578f9febdb935b64736f6c63430008020033",
  "libraries": {
    "CcExchangeRouterLib": "0xE66AC01F73AE3cE8e7A0CFf5dB5A40388B354e74"
  },
  "devdoc": {
    "kind": "dev",
    "methods": {
      "initialize(uint256,uint256,uint256,address,address,address,address,address,address)": {
        "params": {
          "_chainId": "Id of the target chain",
          "_lockers": "Lockers' contract address",
          "_protocolPercentageFee": "Percentage amount of protocol fee (min: %0.01)",
          "_relay": "The Relay address to validate data from source chain",
          "_startingBlockNumber": "Requests that are included in a block older                              than _startingBlockNumber cannot be executed",
          "_teleBTC": "TeleportDAO BTC ERC20 token address",
          "_treasury": "Address of treasury that collects protocol fees"
        }
      },
      "isRequestUsed(bytes32)": {
        "details": "It prevents re-submitting an executed request",
        "params": {
          "_txId": "The transaction ID of request on Bitcoin "
        },
        "returns": {
          "_0": "True if the cc exchange request has been already executed"
        }
      },
      "owner()": {
        "details": "Returns the address of the current owner."
      },
      "renounceOwnership()": {
        "details": "Leaves the contract without owner. It will not be possible to call `onlyOwner` functions anymore. Can only be called by the current owner. NOTE: Renouncing ownership will leave the contract without an owner, thereby removing any functionality that is only available to the owner."
      },
      "retryFailedWrapAndSwap(bytes32,uint256,uint256,address[],bytes32,bytes32,uint8)": {
        "params": {
          "_acrossRelayerFee": "Fee that user pays to across relayer",
          "_outputAmount": "Amount of output token",
          "_r": "Signature r",
          "_s": "Signature s",
          "_txId": "The transaction ID of request on Bitcoin",
          "_v": "Signature v",
          "path": "Exchange path from teleBTC to the output token"
        }
      },
      "setChainIdMapping(uint256,uint256,uint256)": {
        "details": "Only owner can call this"
      },
      "setExchangeConnector(uint256,address)": {
        "details": "_exchangeConnector can be set to zero to inactive an app"
      },
      "setInstantRouter(address)": {
        "details": "Only owner can call this",
        "params": {
          "_instantRouter": "The new instantRouter contract address"
        }
      },
      "setThirdPartyAddress(uint256,address)": {
        "details": "Only owner can call this",
        "params": {
          "_thirdPartyAddress": "third party address"
        }
      },
      "setThirdPartyFee(uint256,uint256)": {
        "details": "Only owner can call this",
        "params": {
          "_thirdPartyFee": "third party fee"
        }
      },
      "transferOwnership(address)": {
        "details": "Transfers ownership of the contract to a new account (`newOwner`). Can only be called by the current owner."
      },
      "withdrawFailedWrapAndSwap(bytes32,uint8,bytes,uint256,bytes32,bytes32,uint8,bytes)": {
        "params": {
          "_acrossRelayerFee": "Fee that user pays to across relayer",
          "_lockerLockingScript": "Script hash of locker that user has sent BTC to it",
          "_r": "Signature r",
          "_s": "Signature s",
          "_scriptType": "Script type of the user script",
          "_txId": "The transaction ID of request on Bitcoin",
          "_userScript": "Script hash of the user on Bitcoin",
          "_v": "Signature v"
        },
        "returns": {
          "_0": ""
        }
      },
      "wrapAndSwap((bytes4,bytes,bytes,bytes4,uint256,bytes,uint256),bytes,address[])": {
        "details": "Mints teleBTC for user if exchanging is not successful",
        "params": {
          "_lockerLockingScript": "Script hash of locker that user has sent BTC to it",
          "_path": "(Optional) Exchange path from teleBTC to the output token. This is used if               the default path [teleBTC, wrappedNativeToken, outputToken] not exist or              exchanging using this path fails",
          "_txAndProof": "Transaction and merkle proof data"
        },
        "returns": {
          "_0": "true "
        }
      }
    },
    "version": 1
  },
  "userdoc": {
    "events": {
      "FailedWrapAndSwap(address,address,address[2],uint256[2],uint256,address,bytes32,uint256,uint256,uint256[5])": {
        "notice": "Emits when a cc exchange request fails"
      },
      "FillStarted(bytes32,uint256)": {
        "notice": "Emits when a request is filled for the first time"
      },
      "FillTeleBtcSent(uint256,uint256,address,address,uint256,bytes32,uint256,uint256)": {
        "notice": "Emits when filler withdraws teleBTC"
      },
      "FillTokensReturned(uint256,address,address,uint256,bytes32)": {
        "notice": "Emits when unused tokens withdrawn"
      },
      "NewChainIdMapping(uint256,uint256,uint256)": {
        "notice": "Emits when changes made to chain id mapping"
      },
      "NewFill(address,bytes32,address,uint256)": {
        "notice": "Emits when a new filler fills a request"
      },
      "NewInstantRouter(address,address)": {
        "notice": "Emits when instant router contract updated"
      },
      "NewLockers(address,address)": {
        "notice": "Emits when lockers contract updated"
      },
      "NewProtocolPercentageFee(uint256,uint256)": {
        "notice": "Emits when protocol fee updated"
      },
      "NewRelay(address,address)": {
        "notice": "Emits when relay contract updated"
      },
      "NewTeleBTC(address,address)": {
        "notice": "Emits when telebtc contract updated"
      },
      "NewThirdPartyAddress(uint256,address,address)": {
        "notice": "Emits when changes made to third party address"
      },
      "NewThirdPartyFee(uint256,uint256,uint256)": {
        "notice": "Emits when changes made to third party fee"
      },
      "NewTreasury(address,address)": {
        "notice": "Emits when treasury address updated"
      },
      "NewWrapAndSwap(address,address,address[2],uint256[2],uint256,address,bytes32,uint256,uint256,uint256[5])": {
        "notice": "Emits when a cc exchange request gets done"
      },
      "SetExchangeConnector(uint256,address)": {
        "notice": "Emits when appId for an exchange connector is set"
      }
    },
    "kind": "user",
    "methods": {
      "initialize(uint256,uint256,uint256,address,address,address,address,address,address)": {
        "notice": "Gives default params to initiate cc exchange router"
      },
      "isRequestUsed(bytes32)": {
        "notice": "Checks if a request has been executed before"
      },
      "removeChain(uint256)": {
        "notice": "Removing a chainId"
      },
      "removeToken(uint256,address)": {
        "notice": "Removing a token as supported token on specific chain"
      },
      "retryFailedWrapAndSwap(bytes32,uint256,uint256,address[],bytes32,bytes32,uint8)": {
        "notice": "ETH user whose exchange request failed can retry          to exchange teleBTC for the desired token"
      },
      "setAcross(address)": {
        "notice": "Setter for across"
      },
      "setBurnRouter(address)": {
        "notice": "Setter for burnRouters"
      },
      "setChainIdMapping(uint256,uint256,uint256)": {
        "notice": "Setter for chain id mapping"
      },
      "setExchangeConnector(uint256,address)": {
        "notice": "Sets appId for an exchange connector"
      },
      "setInstantRouter(address)": {
        "notice": "Changes instantRouter contract address"
      },
      "setLockers(address)": {
        "notice": "Updates lockers contract address"
      },
      "setProtocolPercentageFee(uint256)": {
        "notice": "Setter for protocol percentage fee"
      },
      "setRelay(address)": {
        "notice": "Updates relay contract address"
      },
      "setStartingBlockNumber(uint256)": {
        "notice": "Setter for starting block number"
      },
      "setTeleBTC(address)": {
        "notice": "Updates teleBTC contract address"
      },
      "setThirdPartyAddress(uint256,address)": {
        "notice": "Setter for third party address"
      },
      "setThirdPartyFee(uint256,uint256)": {
        "notice": "Setter for third party fee"
      },
      "setTreasury(address)": {
        "notice": "Setter for treasury"
      },
      "supportChain(uint256)": {
        "notice": "Adding a new chainId"
      },
      "supportToken(uint256,address)": {
        "notice": "Adding a token as supported token on specific chain"
      },
      "withdrawFailedWrapAndSwap(bytes32,uint8,bytes,uint256,bytes32,bytes32,uint8,bytes)": {
        "notice": "ETH user whose request failed can redeem teleBTC for native BTC"
      },
      "wrapAndSwap((bytes4,bytes,bytes,bytes4,uint256,bytes,uint256),bytes,address[])": {
        "notice": "Executes a cross-chain exchange request after checking its merkle inclusion proof"
      }
    },
    "version": 1
  },
  "storageLayout": {
    "storage": [
      {
        "astId": 22450,
        "contract": "contracts/routers/CcExchangeRouterLogic.sol:CcExchangeRouterLogic",
        "label": "startingBlockNumber",
        "offset": 0,
        "slot": "0",
        "type": "t_uint256"
      },
      {
        "astId": 22453,
        "contract": "contracts/routers/CcExchangeRouterLogic.sol:CcExchangeRouterLogic",
        "label": "chainId",
        "offset": 0,
        "slot": "1",
        "type": "t_uint256"
      },
      {
        "astId": 22456,
        "contract": "contracts/routers/CcExchangeRouterLogic.sol:CcExchangeRouterLogic",
        "label": "protocolPercentageFee",
        "offset": 0,
        "slot": "2",
        "type": "t_uint256"
      },
      {
        "astId": 22459,
        "contract": "contracts/routers/CcExchangeRouterLogic.sol:CcExchangeRouterLogic",
        "label": "relay",
        "offset": 0,
        "slot": "3",
        "type": "t_address"
      },
      {
        "astId": 22462,
        "contract": "contracts/routers/CcExchangeRouterLogic.sol:CcExchangeRouterLogic",
        "label": "instantRouter",
        "offset": 0,
        "slot": "4",
        "type": "t_address"
      },
      {
        "astId": 22465,
        "contract": "contracts/routers/CcExchangeRouterLogic.sol:CcExchangeRouterLogic",
        "label": "lockers",
        "offset": 0,
        "slot": "5",
        "type": "t_address"
      },
      {
        "astId": 22468,
        "contract": "contracts/routers/CcExchangeRouterLogic.sol:CcExchangeRouterLogic",
        "label": "teleBTC",
        "offset": 0,
        "slot": "6",
        "type": "t_address"
      },
      {
        "astId": 22471,
        "contract": "contracts/routers/CcExchangeRouterLogic.sol:CcExchangeRouterLogic",
        "label": "treasury",
        "offset": 0,
        "slot": "7",
        "type": "t_address"
      },
      {
        "astId": 22476,
        "contract": "contracts/routers/CcExchangeRouterLogic.sol:CcExchangeRouterLogic",
        "label": "exchangeConnector",
        "offset": 0,
        "slot": "8",
        "type": "t_mapping(t_uint256,t_address)"
      },
      {
        "astId": 22481,
        "contract": "contracts/routers/CcExchangeRouterLogic.sol:CcExchangeRouterLogic",
        "label": "ccExchangeRequests",
        "offset": 0,
        "slot": "9",
        "type": "t_mapping(t_bytes32,t_struct(ccExchangeRequest)25632_storage)"
      },
      {
        "astId": 442,
        "contract": "contracts/routers/CcExchangeRouterLogic.sol:CcExchangeRouterLogic",
        "label": "_initialized",
        "offset": 0,
        "slot": "10",
        "type": "t_uint8"
      },
      {
        "astId": 445,
        "contract": "contracts/routers/CcExchangeRouterLogic.sol:CcExchangeRouterLogic",
        "label": "_initializing",
        "offset": 1,
        "slot": "10",
        "type": "t_bool"
      },
      {
        "astId": 1844,
        "contract": "contracts/routers/CcExchangeRouterLogic.sol:CcExchangeRouterLogic",
        "label": "__gap",
        "offset": 0,
        "slot": "11",
        "type": "t_array(t_uint256)50_storage"
      },
      {
        "astId": 314,
        "contract": "contracts/routers/CcExchangeRouterLogic.sol:CcExchangeRouterLogic",
        "label": "_owner",
        "offset": 0,
        "slot": "61",
        "type": "t_address"
      },
      {
        "astId": 434,
        "contract": "contracts/routers/CcExchangeRouterLogic.sol:CcExchangeRouterLogic",
        "label": "__gap",
        "offset": 0,
        "slot": "62",
        "type": "t_array(t_uint256)49_storage"
      },
      {
        "astId": 745,
        "contract": "contracts/routers/CcExchangeRouterLogic.sol:CcExchangeRouterLogic",
        "label": "_status",
        "offset": 0,
        "slot": "111",
        "type": "t_uint256"
      },
      {
        "astId": 803,
        "contract": "contracts/routers/CcExchangeRouterLogic.sol:CcExchangeRouterLogic",
        "label": "__gap",
        "offset": 0,
        "slot": "112",
        "type": "t_array(t_uint256)49_storage"
      },
      {
        "astId": 22495,
        "contract": "contracts/routers/CcExchangeRouterLogic.sol:CcExchangeRouterLogic",
        "label": "fillerWithdrawInterval",
        "offset": 0,
        "slot": "161",
        "type": "t_uint256"
      },
      {
        "astId": 22502,
        "contract": "contracts/routers/CcExchangeRouterLogic.sol:CcExchangeRouterLogic",
        "label": "fillersData",
        "offset": 0,
        "slot": "162",
        "type": "t_mapping(t_bytes32,t_mapping(t_address,t_struct(FillerData)25682_storage))"
      },
      {
        "astId": 22509,
        "contract": "contracts/routers/CcExchangeRouterLogic.sol:CcExchangeRouterLogic",
        "label": "prefixFillSums",
        "offset": 0,
        "slot": "163",
        "type": "t_mapping(t_bytes32,t_mapping(t_address,t_struct(PrefixFillSum)25688_storage))"
      },
      {
        "astId": 22514,
        "contract": "contracts/routers/CcExchangeRouterLogic.sol:CcExchangeRouterLogic",
        "label": "fillsData",
        "offset": 0,
        "slot": "164",
        "type": "t_mapping(t_bytes32,t_struct(FillData)25675_storage)"
      },
      {
        "astId": 22521,
        "contract": "contracts/routers/CcExchangeRouterLogic.sol:CcExchangeRouterLogic",
        "label": "isTokenSupported",
        "offset": 0,
        "slot": "165",
        "type": "t_mapping(t_uint256,t_mapping(t_address,t_bool))"
      },
      {
        "astId": 22526,
        "contract": "contracts/routers/CcExchangeRouterLogic.sol:CcExchangeRouterLogic",
        "label": "isChainSupported",
        "offset": 0,
        "slot": "166",
        "type": "t_mapping(t_uint256,t_bool)"
      },
      {
        "astId": 22531,
        "contract": "contracts/routers/CcExchangeRouterLogic.sol:CcExchangeRouterLogic",
        "label": "extendedCcExchangeRequests",
        "offset": 0,
        "slot": "167",
        "type": "t_mapping(t_bytes32,t_struct(extendedCcExchangeRequest)25649_storage)"
      },
      {
        "astId": 22534,
        "contract": "contracts/routers/CcExchangeRouterLogic.sol:CcExchangeRouterLogic",
        "label": "across",
        "offset": 0,
        "slot": "168",
        "type": "t_address"
      },
      {
        "astId": 22536,
        "contract": "contracts/routers/CcExchangeRouterLogic.sol:CcExchangeRouterLogic",
        "label": "wrappedNativeToken",
        "offset": 0,
        "slot": "169",
        "type": "t_address"
      },
      {
        "astId": 22539,
        "contract": "contracts/routers/CcExchangeRouterLogic.sol:CcExchangeRouterLogic",
        "label": "burnRouter",
        "offset": 0,
        "slot": "170",
        "type": "t_address"
      },
      {
        "astId": 22541,
        "contract": "contracts/routers/CcExchangeRouterLogic.sol:CcExchangeRouterLogic",
        "label": "wmatic",
        "offset": 0,
        "slot": "171",
        "type": "t_address"
      },
      {
        "astId": 22546,
        "contract": "contracts/routers/CcExchangeRouterLogic.sol:CcExchangeRouterLogic",
        "label": "chainIdMapping",
        "offset": 0,
        "slot": "172",
        "type": "t_mapping(t_uint256,t_struct(chainIdStruct)25610_storage)"
      },
      {
        "astId": 22550,
        "contract": "contracts/routers/CcExchangeRouterLogic.sol:CcExchangeRouterLogic",
        "label": "thirdPartyFee",
        "offset": 0,
        "slot": "173",
        "type": "t_mapping(t_uint256,t_uint256)"
      },
      {
        "astId": 22554,
        "contract": "contracts/routers/CcExchangeRouterLogic.sol:CcExchangeRouterLogic",
        "label": "thirdPartyAddress",
        "offset": 0,
        "slot": "174",
        "type": "t_mapping(t_uint256,t_address)"
      }
    ],
    "types": {
      "t_address": {
        "encoding": "inplace",
        "label": "address",
        "numberOfBytes": "20"
      },
      "t_array(t_address)dyn_storage": {
        "base": "t_address",
        "encoding": "dynamic_array",
        "label": "address[]",
        "numberOfBytes": "32"
      },
      "t_array(t_uint256)49_storage": {
        "base": "t_uint256",
        "encoding": "inplace",
        "label": "uint256[49]",
        "numberOfBytes": "1568"
      },
      "t_array(t_uint256)50_storage": {
        "base": "t_uint256",
        "encoding": "inplace",
        "label": "uint256[50]",
        "numberOfBytes": "1600"
      },
      "t_array(t_uint256)dyn_storage": {
        "base": "t_uint256",
        "encoding": "dynamic_array",
        "label": "uint256[]",
        "numberOfBytes": "32"
      },
      "t_bool": {
        "encoding": "inplace",
        "label": "bool",
        "numberOfBytes": "1"
      },
      "t_bytes32": {
        "encoding": "inplace",
        "label": "bytes32",
        "numberOfBytes": "32"
      },
      "t_mapping(t_address,t_bool)": {
        "encoding": "mapping",
        "key": "t_address",
        "label": "mapping(address => bool)",
        "numberOfBytes": "32",
        "value": "t_bool"
      },
      "t_mapping(t_address,t_struct(FillerData)25682_storage)": {
        "encoding": "mapping",
        "key": "t_address",
        "label": "mapping(address => struct ICcExchangeRouter.FillerData)",
        "numberOfBytes": "32",
        "value": "t_struct(FillerData)25682_storage"
      },
      "t_mapping(t_address,t_struct(PrefixFillSum)25688_storage)": {
        "encoding": "mapping",
        "key": "t_address",
        "label": "mapping(address => struct ICcExchangeRouter.PrefixFillSum)",
        "numberOfBytes": "32",
        "value": "t_struct(PrefixFillSum)25688_storage"
      },
      "t_mapping(t_bytes32,t_mapping(t_address,t_struct(FillerData)25682_storage))": {
        "encoding": "mapping",
        "key": "t_bytes32",
        "label": "mapping(bytes32 => mapping(address => struct ICcExchangeRouter.FillerData))",
        "numberOfBytes": "32",
        "value": "t_mapping(t_address,t_struct(FillerData)25682_storage)"
      },
      "t_mapping(t_bytes32,t_mapping(t_address,t_struct(PrefixFillSum)25688_storage))": {
        "encoding": "mapping",
        "key": "t_bytes32",
        "label": "mapping(bytes32 => mapping(address => struct ICcExchangeRouter.PrefixFillSum))",
        "numberOfBytes": "32",
        "value": "t_mapping(t_address,t_struct(PrefixFillSum)25688_storage)"
      },
      "t_mapping(t_bytes32,t_struct(FillData)25675_storage)": {
        "encoding": "mapping",
        "key": "t_bytes32",
        "label": "mapping(bytes32 => struct ICcExchangeRouter.FillData)",
        "numberOfBytes": "32",
        "value": "t_struct(FillData)25675_storage"
      },
      "t_mapping(t_bytes32,t_struct(ccExchangeRequest)25632_storage)": {
        "encoding": "mapping",
        "key": "t_bytes32",
        "label": "mapping(bytes32 => struct ICcExchangeRouter.ccExchangeRequest)",
        "numberOfBytes": "32",
        "value": "t_struct(ccExchangeRequest)25632_storage"
      },
      "t_mapping(t_bytes32,t_struct(extendedCcExchangeRequest)25649_storage)": {
        "encoding": "mapping",
        "key": "t_bytes32",
        "label": "mapping(bytes32 => struct ICcExchangeRouter.extendedCcExchangeRequest)",
        "numberOfBytes": "32",
        "value": "t_struct(extendedCcExchangeRequest)25649_storage"
      },
      "t_mapping(t_uint256,t_address)": {
        "encoding": "mapping",
        "key": "t_uint256",
        "label": "mapping(uint256 => address)",
        "numberOfBytes": "32",
        "value": "t_address"
      },
      "t_mapping(t_uint256,t_bool)": {
        "encoding": "mapping",
        "key": "t_uint256",
        "label": "mapping(uint256 => bool)",
        "numberOfBytes": "32",
        "value": "t_bool"
      },
      "t_mapping(t_uint256,t_mapping(t_address,t_bool))": {
        "encoding": "mapping",
        "key": "t_uint256",
        "label": "mapping(uint256 => mapping(address => bool))",
        "numberOfBytes": "32",
        "value": "t_mapping(t_address,t_bool)"
      },
      "t_mapping(t_uint256,t_struct(chainIdStruct)25610_storage)": {
        "encoding": "mapping",
        "key": "t_uint256",
        "label": "mapping(uint256 => struct ICcExchangeRouter.chainIdStruct)",
        "numberOfBytes": "32",
        "value": "t_struct(chainIdStruct)25610_storage"
      },
      "t_mapping(t_uint256,t_uint256)": {
        "encoding": "mapping",
        "key": "t_uint256",
        "label": "mapping(uint256 => uint256)",
        "numberOfBytes": "32",
        "value": "t_uint256"
      },
      "t_struct(FillData)25675_storage": {
        "encoding": "inplace",
        "label": "struct ICcExchangeRouter.FillData",
        "members": [
          {
            "astId": 25666,
            "contract": "contracts/routers/CcExchangeRouterLogic.sol:CcExchangeRouterLogic",
            "label": "startingTime",
            "offset": 0,
            "slot": "0",
            "type": "t_uint256"
          },
          {
            "astId": 25668,
            "contract": "contracts/routers/CcExchangeRouterLogic.sol:CcExchangeRouterLogic",
            "label": "reqToken",
            "offset": 0,
            "slot": "1",
            "type": "t_address"
          },
          {
            "astId": 25670,
            "contract": "contracts/routers/CcExchangeRouterLogic.sol:CcExchangeRouterLogic",
            "label": "lastUsedIdx",
            "offset": 0,
            "slot": "2",
            "type": "t_uint256"
          },
          {
            "astId": 25672,
            "contract": "contracts/routers/CcExchangeRouterLogic.sol:CcExchangeRouterLogic",
            "label": "remainingAmountOfLastFill",
            "offset": 0,
            "slot": "3",
            "type": "t_uint256"
          },
          {
            "astId": 25674,
            "contract": "contracts/routers/CcExchangeRouterLogic.sol:CcExchangeRouterLogic",
            "label": "isWithdrawnLastFill",
            "offset": 0,
            "slot": "4",
            "type": "t_bool"
          }
        ],
        "numberOfBytes": "160"
      },
      "t_struct(FillerData)25682_storage": {
        "encoding": "inplace",
        "label": "struct ICcExchangeRouter.FillerData",
        "members": [
          {
            "astId": 25677,
            "contract": "contracts/routers/CcExchangeRouterLogic.sol:CcExchangeRouterLogic",
            "label": "index",
            "offset": 0,
            "slot": "0",
            "type": "t_uint256"
          },
          {
            "astId": 25679,
            "contract": "contracts/routers/CcExchangeRouterLogic.sol:CcExchangeRouterLogic",
            "label": "token",
            "offset": 0,
            "slot": "1",
            "type": "t_address"
          },
          {
            "astId": 25681,
            "contract": "contracts/routers/CcExchangeRouterLogic.sol:CcExchangeRouterLogic",
            "label": "amount",
            "offset": 0,
            "slot": "2",
            "type": "t_uint256"
          }
        ],
        "numberOfBytes": "96"
      },
      "t_struct(PrefixFillSum)25688_storage": {
        "encoding": "inplace",
        "label": "struct ICcExchangeRouter.PrefixFillSum",
        "members": [
          {
            "astId": 25685,
            "contract": "contracts/routers/CcExchangeRouterLogic.sol:CcExchangeRouterLogic",
            "label": "prefixSum",
            "offset": 0,
            "slot": "0",
            "type": "t_array(t_uint256)dyn_storage"
          },
          {
            "astId": 25687,
            "contract": "contracts/routers/CcExchangeRouterLogic.sol:CcExchangeRouterLogic",
            "label": "currentIndex",
            "offset": 0,
            "slot": "1",
            "type": "t_uint256"
          }
        ],
        "numberOfBytes": "64"
      },
      "t_struct(ccExchangeRequest)25632_storage": {
        "encoding": "inplace",
        "label": "struct ICcExchangeRouter.ccExchangeRequest",
        "members": [
          {
            "astId": 25612,
            "contract": "contracts/routers/CcExchangeRouterLogic.sol:CcExchangeRouterLogic",
            "label": "appId",
            "offset": 0,
            "slot": "0",
            "type": "t_uint256"
          },
          {
            "astId": 25614,
            "contract": "contracts/routers/CcExchangeRouterLogic.sol:CcExchangeRouterLogic",
            "label": "inputAmount",
            "offset": 0,
            "slot": "1",
            "type": "t_uint256"
          },
          {
            "astId": 25616,
            "contract": "contracts/routers/CcExchangeRouterLogic.sol:CcExchangeRouterLogic",
            "label": "outputAmount",
            "offset": 0,
            "slot": "2",
            "type": "t_uint256"
          },
          {
            "astId": 25618,
            "contract": "contracts/routers/CcExchangeRouterLogic.sol:CcExchangeRouterLogic",
            "label": "isFixedToken",
            "offset": 0,
            "slot": "3",
            "type": "t_bool"
          },
          {
            "astId": 25620,
            "contract": "contracts/routers/CcExchangeRouterLogic.sol:CcExchangeRouterLogic",
            "label": "recipientAddress",
            "offset": 1,
            "slot": "3",
            "type": "t_address"
          },
          {
            "astId": 25622,
            "contract": "contracts/routers/CcExchangeRouterLogic.sol:CcExchangeRouterLogic",
            "label": "fee",
            "offset": 0,
            "slot": "4",
            "type": "t_uint256"
          },
          {
            "astId": 25624,
            "contract": "contracts/routers/CcExchangeRouterLogic.sol:CcExchangeRouterLogic",
            "label": "isUsed",
            "offset": 0,
            "slot": "5",
            "type": "t_bool"
          },
          {
            "astId": 25627,
            "contract": "contracts/routers/CcExchangeRouterLogic.sol:CcExchangeRouterLogic",
            "label": "path",
            "offset": 0,
            "slot": "6",
            "type": "t_array(t_address)dyn_storage"
          },
          {
            "astId": 25629,
            "contract": "contracts/routers/CcExchangeRouterLogic.sol:CcExchangeRouterLogic",
            "label": "deadline",
            "offset": 0,
            "slot": "7",
            "type": "t_uint256"
          },
          {
            "astId": 25631,
            "contract": "contracts/routers/CcExchangeRouterLogic.sol:CcExchangeRouterLogic",
            "label": "speed",
            "offset": 0,
            "slot": "8",
            "type": "t_uint256"
          }
        ],
        "numberOfBytes": "288"
      },
      "t_struct(chainIdStruct)25610_storage": {
        "encoding": "inplace",
        "label": "struct ICcExchangeRouter.chainIdStruct",
        "members": [
          {
            "astId": 25607,
            "contract": "contracts/routers/CcExchangeRouterLogic.sol:CcExchangeRouterLogic",
            "label": "middleChain",
            "offset": 0,
            "slot": "0",
            "type": "t_uint256"
          },
          {
            "astId": 25609,
            "contract": "contracts/routers/CcExchangeRouterLogic.sol:CcExchangeRouterLogic",
            "label": "destinationChain",
            "offset": 0,
            "slot": "1",
            "type": "t_uint256"
          }
        ],
        "numberOfBytes": "64"
      },
      "t_struct(extendedCcExchangeRequest)25649_storage": {
        "encoding": "inplace",
        "label": "struct ICcExchangeRouter.extendedCcExchangeRequest",
        "members": [
          {
            "astId": 25634,
            "contract": "contracts/routers/CcExchangeRouterLogic.sol:CcExchangeRouterLogic",
            "label": "chainId",
            "offset": 0,
            "slot": "0",
            "type": "t_uint256"
          },
          {
            "astId": 25636,
            "contract": "contracts/routers/CcExchangeRouterLogic.sol:CcExchangeRouterLogic",
            "label": "isTransferredToOtherChain",
            "offset": 0,
            "slot": "1",
            "type": "t_bool"
          },
          {
            "astId": 25638,
            "contract": "contracts/routers/CcExchangeRouterLogic.sol:CcExchangeRouterLogic",
            "label": "remainedInputAmount",
            "offset": 0,
            "slot": "2",
            "type": "t_uint256"
          },
          {
            "astId": 25640,
            "contract": "contracts/routers/CcExchangeRouterLogic.sol:CcExchangeRouterLogic",
            "label": "bridgeFee",
            "offset": 0,
            "slot": "3",
            "type": "t_uint256"
          },
          {
            "astId": 25642,
            "contract": "contracts/routers/CcExchangeRouterLogic.sol:CcExchangeRouterLogic",
            "label": "thirdParty",
            "offset": 0,
            "slot": "4",
            "type": "t_uint256"
          },
          {
            "astId": 25644,
            "contract": "contracts/routers/CcExchangeRouterLogic.sol:CcExchangeRouterLogic",
            "label": "protocolFee",
            "offset": 0,
            "slot": "5",
            "type": "t_uint256"
          },
          {
            "astId": 25646,
            "contract": "contracts/routers/CcExchangeRouterLogic.sol:CcExchangeRouterLogic",
            "label": "thirdPartyFee",
            "offset": 0,
            "slot": "6",
            "type": "t_uint256"
          },
          {
            "astId": 25648,
            "contract": "contracts/routers/CcExchangeRouterLogic.sol:CcExchangeRouterLogic",
            "label": "lockerFee",
            "offset": 0,
            "slot": "7",
            "type": "t_uint256"
          }
        ],
        "numberOfBytes": "256"
      },
      "t_uint256": {
        "encoding": "inplace",
        "label": "uint256",
        "numberOfBytes": "32"
      },
      "t_uint8": {
        "encoding": "inplace",
        "label": "uint8",
        "numberOfBytes": "1"
      }
    }
  }
}