{
  "address": "0xCD0961dDC134715a6d4F9FF9E69c4f9AA054578C",
  "abi": [
    {
      "anonymous": false,
      "inputs": [
        {
          "indexed": false,
          "internalType": "bytes",
          "name": "lockerLockingScript",
          "type": "bytes"
        },
        {
          "indexed": false,
          "internalType": "uint256",
          "name": "lockerScriptType",
          "type": "uint256"
        },
        {
          "indexed": false,
          "internalType": "address",
          "name": "lockerTargetAddress",
          "type": "address"
        },
        {
          "indexed": true,
          "internalType": "address",
          "name": "user",
          "type": "address"
        },
        {
          "indexed": false,
          "internalType": "address[2]",
          "name": "inputAndOutputToken",
          "type": "address[2]"
        },
        {
          "indexed": false,
          "internalType": "uint256[2]",
          "name": "inputAndOutputAmount",
          "type": "uint256[2]"
        },
        {
          "indexed": true,
          "internalType": "uint256",
          "name": "speed",
          "type": "uint256"
        },
        {
          "indexed": true,
          "internalType": "address",
          "name": "teleporter",
          "type": "address"
        },
        {
          "indexed": false,
          "internalType": "uint256",
          "name": "teleporterFee",
          "type": "uint256"
        },
        {
          "indexed": false,
          "internalType": "bytes32",
          "name": "bitcoinTxId",
          "type": "bytes32"
        },
        {
          "indexed": false,
          "internalType": "uint256",
          "name": "appId",
          "type": "uint256"
        }
      ],
      "name": "CCExchange",
      "type": "event"
    },
    {
      "anonymous": false,
      "inputs": [
        {
          "indexed": false,
          "internalType": "bytes",
          "name": "lockerLockingScript",
          "type": "bytes"
        },
        {
          "indexed": false,
          "internalType": "uint256",
          "name": "lockerScriptType",
          "type": "uint256"
        },
        {
          "indexed": false,
          "internalType": "address",
          "name": "lockerTargetAddress",
          "type": "address"
        },
        {
          "indexed": true,
          "internalType": "address",
          "name": "recipientAddress",
          "type": "address"
        },
        {
          "indexed": false,
          "internalType": "address[2]",
          "name": "inputAndOutputToken",
          "type": "address[2]"
        },
        {
          "indexed": false,
          "internalType": "uint256[2]",
          "name": "inputAndOutputAmount",
          "type": "uint256[2]"
        },
        {
          "indexed": true,
          "internalType": "uint256",
          "name": "speed",
          "type": "uint256"
        },
        {
          "indexed": true,
          "internalType": "address",
          "name": "teleporter",
          "type": "address"
        },
        {
          "indexed": false,
          "internalType": "uint256",
          "name": "teleporterFee",
          "type": "uint256"
        },
        {
          "indexed": false,
          "internalType": "bytes32",
          "name": "bitcoinTxId",
          "type": "bytes32"
        },
        {
          "indexed": false,
          "internalType": "uint256",
          "name": "appId",
          "type": "uint256"
        }
      ],
      "name": "FailedCCExchange",
      "type": "event"
    },
    {
      "anonymous": false,
      "inputs": [
        {
          "indexed": false,
          "internalType": "uint8",
          "name": "version",
          "type": "uint8"
        }
      ],
      "name": "Initialized",
      "type": "event"
    },
    {
      "anonymous": false,
      "inputs": [
        {
          "indexed": false,
          "internalType": "address",
          "name": "oldInstantRouter",
          "type": "address"
        },
        {
          "indexed": false,
          "internalType": "address",
          "name": "newInstantRouter",
          "type": "address"
        }
      ],
      "name": "NewInstantRouter",
      "type": "event"
    },
    {
      "anonymous": false,
      "inputs": [
        {
          "indexed": false,
          "internalType": "address",
          "name": "oldLockers",
          "type": "address"
        },
        {
          "indexed": false,
          "internalType": "address",
          "name": "newLockers",
          "type": "address"
        }
      ],
      "name": "NewLockers",
      "type": "event"
    },
    {
      "anonymous": false,
      "inputs": [
        {
          "indexed": false,
          "internalType": "uint256",
          "name": "oldProtocolPercentageFee",
          "type": "uint256"
        },
        {
          "indexed": false,
          "internalType": "uint256",
          "name": "newProtocolPercentageFee",
          "type": "uint256"
        }
      ],
      "name": "NewProtocolPercentageFee",
      "type": "event"
    },
    {
      "anonymous": false,
      "inputs": [
        {
          "indexed": false,
          "internalType": "address",
          "name": "oldRelay",
          "type": "address"
        },
        {
          "indexed": false,
          "internalType": "address",
          "name": "newRelay",
          "type": "address"
        }
      ],
      "name": "NewRelay",
      "type": "event"
    },
    {
      "anonymous": false,
      "inputs": [
        {
          "indexed": false,
          "internalType": "address",
          "name": "oldTeleBTC",
          "type": "address"
        },
        {
          "indexed": false,
          "internalType": "address",
          "name": "newTeleBTC",
          "type": "address"
        }
      ],
      "name": "NewTeleBTC",
      "type": "event"
    },
    {
      "anonymous": false,
      "inputs": [
        {
          "indexed": false,
          "internalType": "address",
          "name": "oldTreasury",
          "type": "address"
        },
        {
          "indexed": false,
          "internalType": "address",
          "name": "newTreasury",
          "type": "address"
        }
      ],
      "name": "NewTreasury",
      "type": "event"
    },
    {
      "anonymous": false,
      "inputs": [
        {
          "indexed": true,
          "internalType": "address",
          "name": "previousOwner",
          "type": "address"
        },
        {
          "indexed": true,
          "internalType": "address",
          "name": "newOwner",
          "type": "address"
        }
      ],
      "name": "OwnershipTransferred",
      "type": "event"
    },
    {
      "anonymous": false,
      "inputs": [
        {
          "indexed": false,
          "internalType": "uint256",
          "name": "appId",
          "type": "uint256"
        },
        {
          "indexed": false,
          "internalType": "address",
          "name": "exchangeConnector",
          "type": "address"
        }
      ],
      "name": "SetExchangeConnector",
      "type": "event"
    },
    {
      "inputs": [
        {
          "internalType": "bytes4",
          "name": "_version",
          "type": "bytes4"
        },
        {
          "internalType": "bytes",
          "name": "_vin",
          "type": "bytes"
        },
        {
          "internalType": "bytes",
          "name": "_vout",
          "type": "bytes"
        },
        {
          "internalType": "bytes4",
          "name": "_locktime",
          "type": "bytes4"
        },
        {
          "internalType": "uint256",
          "name": "_blockNumber",
          "type": "uint256"
        },
        {
          "internalType": "bytes",
          "name": "_intermediateNodes",
          "type": "bytes"
        },
        {
          "internalType": "uint256",
          "name": "_index",
          "type": "uint256"
        },
        {
          "internalType": "bytes",
          "name": "_lockerLockingScript",
          "type": "bytes"
        }
      ],
      "name": "ccExchange",
      "outputs": [
        {
          "internalType": "bool",
          "name": "",
          "type": "bool"
        }
      ],
      "stateMutability": "payable",
      "type": "function"
    },
    {
      "inputs": [],
      "name": "chainId",
      "outputs": [
        {
          "internalType": "uint256",
          "name": "",
          "type": "uint256"
        }
      ],
      "stateMutability": "view",
      "type": "function"
    },
    {
      "inputs": [
        {
          "internalType": "uint256",
          "name": "",
          "type": "uint256"
        }
      ],
      "name": "exchangeConnector",
      "outputs": [
        {
          "internalType": "address",
          "name": "",
          "type": "address"
        }
      ],
      "stateMutability": "view",
      "type": "function"
    },
    {
      "inputs": [
        {
          "internalType": "uint256",
          "name": "_startingBlockNumber",
          "type": "uint256"
        },
        {
          "internalType": "uint256",
          "name": "_protocolPercentageFee",
          "type": "uint256"
        },
        {
          "internalType": "uint256",
          "name": "_chainId",
          "type": "uint256"
        },
        {
          "internalType": "address",
          "name": "_lockers",
          "type": "address"
        },
        {
          "internalType": "address",
          "name": "_relay",
          "type": "address"
        },
        {
          "internalType": "address",
          "name": "_teleBTC",
          "type": "address"
        },
        {
          "internalType": "address",
          "name": "_treasury",
          "type": "address"
        }
      ],
      "name": "initialize",
      "outputs": [],
      "stateMutability": "nonpayable",
      "type": "function"
    },
    {
      "inputs": [],
      "name": "instantRouter",
      "outputs": [
        {
          "internalType": "address",
          "name": "",
          "type": "address"
        }
      ],
      "stateMutability": "view",
      "type": "function"
    },
    {
      "inputs": [
        {
          "internalType": "bytes32",
          "name": "_txId",
          "type": "bytes32"
        }
      ],
      "name": "isRequestUsed",
      "outputs": [
        {
          "internalType": "bool",
          "name": "",
          "type": "bool"
        }
      ],
      "stateMutability": "view",
      "type": "function"
    },
    {
      "inputs": [],
      "name": "lockers",
      "outputs": [
        {
          "internalType": "address",
          "name": "",
          "type": "address"
        }
      ],
      "stateMutability": "view",
      "type": "function"
    },
    {
      "inputs": [],
      "name": "owner",
      "outputs": [
        {
          "internalType": "address",
          "name": "",
          "type": "address"
        }
      ],
      "stateMutability": "view",
      "type": "function"
    },
    {
      "inputs": [],
      "name": "protocolPercentageFee",
      "outputs": [
        {
          "internalType": "uint256",
          "name": "",
          "type": "uint256"
        }
      ],
      "stateMutability": "view",
      "type": "function"
    },
    {
      "inputs": [],
      "name": "relay",
      "outputs": [
        {
          "internalType": "address",
          "name": "",
          "type": "address"
        }
      ],
      "stateMutability": "view",
      "type": "function"
    },
    {
      "inputs": [],
      "name": "renounceOwnership",
      "outputs": [],
      "stateMutability": "nonpayable",
      "type": "function"
    },
    {
      "inputs": [
        {
          "internalType": "uint256",
          "name": "_appId",
          "type": "uint256"
        },
        {
          "internalType": "address",
          "name": "_exchangeConnector",
          "type": "address"
        }
      ],
      "name": "setExchangeConnector",
      "outputs": [],
      "stateMutability": "nonpayable",
      "type": "function"
    },
    {
      "inputs": [
        {
          "internalType": "address",
          "name": "_instantRouter",
          "type": "address"
        }
      ],
      "name": "setInstantRouter",
      "outputs": [],
      "stateMutability": "nonpayable",
      "type": "function"
    },
    {
      "inputs": [
        {
          "internalType": "address",
          "name": "_lockers",
          "type": "address"
        }
      ],
      "name": "setLockers",
      "outputs": [],
      "stateMutability": "nonpayable",
      "type": "function"
    },
    {
      "inputs": [
        {
          "internalType": "uint256",
          "name": "_protocolPercentageFee",
          "type": "uint256"
        }
      ],
      "name": "setProtocolPercentageFee",
      "outputs": [],
      "stateMutability": "nonpayable",
      "type": "function"
    },
    {
      "inputs": [
        {
          "internalType": "address",
          "name": "_relay",
          "type": "address"
        }
      ],
      "name": "setRelay",
      "outputs": [],
      "stateMutability": "nonpayable",
      "type": "function"
    },
    {
      "inputs": [
        {
          "internalType": "address",
          "name": "_teleBTC",
          "type": "address"
        }
      ],
      "name": "setTeleBTC",
      "outputs": [],
      "stateMutability": "nonpayable",
      "type": "function"
    },
    {
      "inputs": [
        {
          "internalType": "address",
          "name": "_treasury",
          "type": "address"
        }
      ],
      "name": "setTreasury",
      "outputs": [],
      "stateMutability": "nonpayable",
      "type": "function"
    },
    {
      "inputs": [],
      "name": "startingBlockNumber",
      "outputs": [
        {
          "internalType": "uint256",
          "name": "",
          "type": "uint256"
        }
      ],
      "stateMutability": "view",
      "type": "function"
    },
    {
      "inputs": [],
      "name": "teleBTC",
      "outputs": [
        {
          "internalType": "address",
          "name": "",
          "type": "address"
        }
      ],
      "stateMutability": "view",
      "type": "function"
    },
    {
      "inputs": [
        {
          "internalType": "address",
          "name": "newOwner",
          "type": "address"
        }
      ],
      "name": "transferOwnership",
      "outputs": [],
      "stateMutability": "nonpayable",
      "type": "function"
    },
    {
      "inputs": [],
      "name": "treasury",
      "outputs": [
        {
          "internalType": "address",
          "name": "",
          "type": "address"
        }
      ],
      "stateMutability": "view",
      "type": "function"
    },
    {
      "stateMutability": "payable",
      "type": "receive"
    }
  ],
  "transactionHash": "0xea7d618203c2bc1b5ac2c949e99d14ac75e7d4705c538aaba435d4417e3fd3ec",
  "args": [],
  "numDeployments": 1,
  "solcInputHash": "5efd93c0d7fb6782d4685c9bfa283d96",
  "bytecode": "0x608060405234801561001057600080fd5b506148d5806100206000396000f3fe6080604052600436106101395760003560e01c806380bc4726116100ab578063b14d35321161006f578063b14d353214610360578063b59589d114610380578063c805f68b146103a0578063e35a0a88146103c0578063f0f44260146103e0578063f2fde38b1461040057610140565b806380bc4726146102cc578063870ba6cf146102ec5780638d3d78cd1461030c5780638da5cb5b1461032c5780639a8a05921461034a57610140565b80636b2857ef116100fd5780636b2857ef1461020b5780636e8adf611461022b57806370872aa514610261578063715018a6146102775780637ed557481461028c5780637f0f1817146102ac57610140565b80630fc654071461014557806314e0c15f146101675780631812adb61461018f5780631876dec4146101b357806361d027b3146101eb57610140565b3661014057005b600080fd5b34801561015157600080fd5b506101656101603660046142e1565b610420565b005b61017a6101753660046141bd565b61057c565b60405190151581526020015b60405180910390f35b34801561019b57600080fd5b506101a560025481565b604051908152602001610186565b3480156101bf57600080fd5b506005546101d3906001600160a01b031681565b6040516001600160a01b039091168152602001610186565b3480156101f757600080fd5b506007546101d3906001600160a01b031681565b34801561021757600080fd5b506101656102263660046142b2565b610907565b34801561023757600080fd5b506101d361024636600461418d565b6008602052600090815260409020546001600160a01b031681565b34801561026d57600080fd5b506101a560005481565b34801561028357600080fd5b50610165610975565b34801561029857600080fd5b506101656102a736600461418d565b61097f565b3480156102b857600080fd5b506101656102c7366004614082565b610993565b3480156102d857600080fd5b5061017a6102e736600461418d565b6109a4565b3480156102f857600080fd5b50610165610307366004614082565b6109cf565b34801561031857600080fd5b506006546101d3906001600160a01b031681565b34801561033857600080fd5b50603d546001600160a01b03166101d3565b34801561035657600080fd5b506101a560015481565b34801561036c57600080fd5b5061016561037b366004614082565b6109e0565b34801561038c57600080fd5b506003546101d3906001600160a01b031681565b3480156103ac57600080fd5b506101656103bb366004614082565b6109f1565b3480156103cc57600080fd5b506004546101d3906001600160a01b031681565b3480156103ec57600080fd5b506101656103fb366004614082565b610a02565b34801561040c57600080fd5b5061016561041b366004614082565b610a13565b600a54610100900460ff16158080156104405750600a54600160ff909116105b8061045a5750303b15801561045a5750600a5460ff166001145b6104c25760405162461bcd60e51b815260206004820152602e60248201527f496e697469616c697a61626c653a20636f6e747261637420697320616c72656160448201526d191e481a5b9a5d1a585b1a5e995960921b60648201526084015b60405180910390fd5b600a805460ff1916600117905580156104e557600a805461ff0019166101001790555b6104ed610a89565b6104f5610ab8565b6000889055600186905561050887610ae7565b61051184610b88565b61051a85610c19565b61052383610caa565b61052c82610d3b565b801561057257600a805461ff0019169055604051600181527f7f26b83ff96e1f2b6a682f133852f6798a09c465da95921460cefb38474024989060200160405180910390a15b5050505050505050565b6000610586610dcc565b6000548710156105e45760405162461bcd60e51b8152602060048201526024808201527f434345786368616e6765526f757465723a207265717565737420697320746f6f604482015263081bdb1960e21b60648201526084016104b9565b60006106298d8d8d8d8080601f0160208091040260200160405190810160405280939291908181526020018383808284376000920191909152508f9250610e26915050565b60008181526009602052604090206005015490915060ff16156106a95760405162461bcd60e51b815260206004820152603260248201527f434345786368616e6765526f757465723a20746865207265717565737420686160448201527173206265656e2075736564206265666f726560701b60648201526084016104b9565b6001600160e01b03198916156107115760405162461bcd60e51b815260206004820152602760248201527f434345786368616e6765526f757465723a206c6f636b2074696d65206973206e6044820152666f6e2d7a65726f60c81b60648201526084016104b9565b61079784848080601f016020809104026020016040519081016040528093929190818152602001838380828437600081840152601f19601f820116905080830192505050505050508c8c8080601f016020809104026020016040519081016040528093929190818152602001838380828437600092019190915250869250610f1c915050565b6107da818989898080601f0160208091040260200160405190810160405280939291908181526020018383808284376000920191909152508b9250611474915050565b61084c5760405162461bcd60e51b815260206004820152603860248201527f434345786368616e6765526f757465723a207472616e73616374696f6e20686160448201527f73206e6f74206265656e2066696e616c697a656420796574000000000000000060648201526084016104b9565b6000818152600960205260409020600801546108a8576108a384848080601f0160208091040260200160405190810160405280939291908181526020018383808284376000920191909152508592506115e9915050565b6108e9565b6108e984848080601f0160208091040260200160405190810160405280939291908181526020018383808284376000920191909152508592506120c3915050565b60019150506108f86001606f55565b9b9a5050505050505050505050565b61090f612482565b60008281526008602090815260409182902080546001600160a01b0319166001600160a01b0385169081179091558251858152918201527f31a8c4e62daac2a3ed5d713004d9ae867d6dcddfa35603db2a4b65d9236b1bc1910160405180910390a15050565b61097d612482565b565b610987612482565b61099081610ae7565b50565b61099b612482565b61099081610caa565b60008181526009602052604081206005015460ff166109c45760006109c7565b60015b90505b919050565b6109d7612482565b610990816124dc565b6109e8612482565b61099081610c19565b6109f9612482565b61099081610b88565b610a0a612482565b61099081610d3b565b610a1b612482565b6001600160a01b038116610a805760405162461bcd60e51b815260206004820152602660248201527f4f776e61626c653a206e6577206f776e657220697320746865207a65726f206160448201526564647265737360d01b60648201526084016104b9565b6109908161256d565b600a54610100900460ff16610ab05760405162461bcd60e51b81526004016104b9906145d3565b61097d6125bf565b600a54610100900460ff16610adf5760405162461bcd60e51b81526004016104b9906145d3565b61097d6125ef565b806127101015610b475760405162461bcd60e51b815260206004820152602560248201527f434345786368616e6765526f757465723a20666565206973206f7574206f662060448201526472616e676560d81b60648201526084016104b9565b60025460408051918252602082018390527f7d205f60891f60851c61cd244ba387d72b6589e7c0ac41b9d909ab0ce2c2a53b910160405180910390a1600255565b806001600160a01b038116610baf5760405162461bcd60e51b81526004016104b990614592565b600354604080516001600160a01b03928316815291841660208301527f4c28a3f61a715259c4dc930c23e7423b8fa52e13232c061a6e488729c66184f4910160405180910390a150600380546001600160a01b0319166001600160a01b0392909216919091179055565b806001600160a01b038116610c405760405162461bcd60e51b81526004016104b990614592565b600554604080516001600160a01b03928316815291841660208301527ffa021c2ec0f46429a53e7f88b88065e40001f50c9d38b2e8b713beaf9828d4c3910160405180910390a150600580546001600160a01b0319166001600160a01b0392909216919091179055565b806001600160a01b038116610cd15760405162461bcd60e51b81526004016104b990614592565b600654604080516001600160a01b03928316815291841660208301527f36a4c08a38b736dcecb6c328dba61238529620e83ccb23db2cc43cd34ec26096910160405180910390a150600680546001600160a01b0319166001600160a01b0392909216919091179055565b806001600160a01b038116610d625760405162461bcd60e51b81526004016104b990614592565b600754604080516001600160a01b03928316815291841660208301527f567657fa3f286518b318f4a29870674f433f622fdfc819691acb13105b228225910160405180910390a150600780546001600160a01b0319166001600160a01b0392909216919091179055565b6002606f541415610e1f5760405162461bcd60e51b815260206004820152601f60248201527f5265656e7472616e637947756172643a207265656e7472616e742063616c6c0060448201526064016104b9565b6002606f55565b600080600286868686604051602001610e4294939291906143ca565b60408051601f1981840301815290829052610e5c9161441d565b602060405180830381855afa158015610e79573d6000803e3d6000fd5b5050506040513d601f19601f82011682018060405250810190610e9c91906141a5565b90506000600282604051602001610eb591815260200190565b60408051601f1981840301815290829052610ecf9161441d565b602060405180830381855afa158015610eec573d6000803e3d6000fd5b5050506040513d601f19601f82011682018060405250810190610f0f91906141a5565b925050505b949350505050565b60055460405163aff2faa360e01b81526001600160a01b039091169063aff2faa390610f4c9086906004016144ab565b60206040518083038186803b158015610f6457600080fd5b505afa158015610f78573d6000803e3d6000fd5b505050506040513d601f19601f82011682018060405250810190610f9c91906140ba565b61100e5760405162461bcd60e51b815260206004820152603860248201527f434345786368616e6765526f757465723a206e6f206c6f636b6572207769746860448201527f206769766520736372697074206861736820657869737473000000000000000060648201526084016104b9565b61107160405180610140016040528060008152602001600081526020016000815260200160001515815260200160006001600160a01b03168152602001600081526020016000151581526020016060815260200160008152602001600081525090565b606061107d8486612616565b6001600160401b03909116602084018190529091506110ed5760405162461bcd60e51b815260206004820152602660248201527f434345786368616e6765526f757465723a20696e70757420616d6f756e74206960448201526573207a65726f60d01b60648201526084016104b9565b6110f68161278e565b60ff166001541461115b5760405162461bcd60e51b815260206004820152602960248201527f434345786368616e6765526f757465723a20636861696e206964206973206e6f6044820152681d0818dbdc9c9958dd60ba1b60648201526084016104b9565b611164816127a8565b61ffff1682526000611175826127c3565b9050611180826127de565b6001600160e01b03166040840152611197826127f9565b60ff166111aa57600060608401526111b2565b600160608401525b6111bb82612808565b6001600160a01b03166080840152604080516002808252606082018352600092602083019080368337505060065482519293506001600160a01b03169183915060009061121857634e487b7160e01b600052603260045260246000fd5b60200260200101906001600160a01b031690816001600160a01b031681525050818160018151811061125a57634e487b7160e01b600052603260045260246000fd5b6001600160a01b039092166020928302919091019091015260e0840181905261128283612818565b63ffffffff16610100850152600061129984612833565b61ffff1690506127108111156113095760405162461bcd60e51b815260206004820152602f60248201527f434345786368616e6765526f757465723a2070657263656e746167652066656560448201526e081a5cc81b9bdd0818dbdc9c9958dd608a1b60648201526084016104b9565b61271085602001518261131c9190614740565b6113269190614720565b60a086015261133484612843565b60ff166101208601819052158061135057508461012001516001145b6113ab5760405162461bcd60e51b815260206004820152602660248201527f434345786368616e6765526f757465723a207370656564206973206e6f7420636044820152651bdc9c9958dd60d21b60648201526084016104b9565b600160c0860181815260008881526009602090815260409182902089518155818a015194810194909455908801516002840155606088015160038401805460808b01516001600160a01b031661010002610100600160a81b031993151560ff19928316179390931692909217905560a089015160048501559151600584018054911515919093161790915560e08701518051889392611451926006850192910190613f39565b506101008201516007820155610120909101516008909101555050505050505050565b60035460405163d0a8973960e01b8152600481018590526000602482018190529182916001600160a01b039091169063d0a897399060440160206040518083038186803b1580156114c457600080fd5b505afa1580156114d8573d6000803e3d6000fd5b505050506040513d601f19601f820116820180604052508101906114fc91906141a5565b9050803410156115635760405162461bcd60e51b815260206004820152602c60248201527f434345786368616e6765526f757465723a207061696420666565206973206e6f60448201526b1d081cdd59999a58da595b9d60a21b60648201526084016104b9565b6003546040516000916115c0916001600160a01b0390911690611590908a908a908a908a9060240161447b565b60408051601f198184030181529190526020810180516001600160e01b0316634354da2560e01b17905284612852565b90506115d5336115d08434614788565b612882565b80806020019051810190610f0f91906140ba565b60006115f583836129a0565b60008381526009602090815260408083205483526008909152812054919250906060906001600160a01b03168061167d5760405162461bcd60e51b815260206004820152602660248201527f434345786368616e6765526f757465723a2061707020696420646f65736e277460448201526508195e1a5cdd60d21b60648201526084016104b9565b60065460405163095ea7b360e01b81526001600160a01b038381166004830152602482018790529091169063095ea7b390604401602060405180830381600087803b1580156116cb57600080fd5b505af11580156116df573d6000803e3d6000fd5b505050506040513d601f19601f8201168201806040525081019061170391906140ba565b50600085815260096020908152604080832081516101408101835281548152600182015481850152600282015481840152600382015460ff808216151560608401526101009091046001600160a01b03166080830152600483015460a0830152600583015416151560c08201526006820180548451818702810187019095528085529194929360e08601939092908301828280156117ca57602002820191906000526020600020905b81546001600160a01b031681526001909101906020018083116117ac575b50505091835250506007820154602082015260089091015460409182015260e082015190516326d2f28960e21b81529192506001600160a01b03841691639b4bca249161181991600401614468565b60206040518083038186803b15801561183157600080fd5b505afa158015611845573d6000803e3d6000fd5b505050506040513d601f19601f8201168201806040525081019061186991906140ba565b1561191957816001600160a01b031663b0bbcd888683604001518460e00151856080015186610100015187606001516040518763ffffffff1660e01b81526004016118b99695949392919061461e565b600060405180830381600087803b1580156118d357600080fd5b505af11580156118e7573d6000803e3d6000fd5b505050506040513d6000823e601f3d908101601f1916820160405261190f91908101906140d4565b9094509250611b5f565b60408051600380825260808201909252600091602082016060803683370190505090508160e0015160008151811061196157634e487b7160e01b600052603260045260246000fd5b60200260200101518160008151811061198a57634e487b7160e01b600052603260045260246000fd5b60200260200101906001600160a01b031690816001600160a01b031681525050826001600160a01b03166317fcb39b6040518163ffffffff1660e01b815260040160206040518083038186803b1580156119e357600080fd5b505afa1580156119f7573d6000803e3d6000fd5b505050506040513d601f19601f82011682018060405250810190611a1b919061409e565b81600181518110611a3c57634e487b7160e01b600052603260045260246000fd5b60200260200101906001600160a01b031690816001600160a01b0316815250508160e00151600181518110611a8157634e487b7160e01b600052603260045260246000fd5b602002602001015181600281518110611aaa57634e487b7160e01b600052603260045260246000fd5b6001600160a01b03928316602091820292909201015260408084015160808501516101008601516060870151935163161779b160e31b81529488169463b0bbcd8894611b02948d94909389939192909160040161461e565b600060405180830381600087803b158015611b1c57600080fd5b505af1158015611b30573d6000803e3d6000fd5b505050506040513d6000823e601f3d908101601f19168201604052611b5891908101906140d4565b9095509350505b8315611e2257610120810151608082015160055460405163626885b560e11b81523393926001600160a01b03908116927faabd2491617d55a54050f8b4413d1f212bcb91f448d495fb64fe3bd94baf1b9a928d92600092169063c4d10b6a90611bcc9085906004016144ab565b60206040518083038186803b158015611be457600080fd5b505afa158015611bf8573d6000803e3d6000fd5b505050506040513d601f19601f82011682018060405250810190611c1c919061409e565b60405180604001604052808960e00151600081518110611c4c57634e487b7160e01b600052603260045260246000fd5b60200260200101516001600160a01b03166001600160a01b031681526020018960e00151600181518110611c9057634e487b7160e01b600052603260045260246000fd5b60200260200101516001600160a01b03166001600160a01b031681525060405180604001604052808c600081518110611cd957634e487b7160e01b600052603260045260246000fd5b602002602001015181526020018c60018e51611cf59190614788565b81518110611d1357634e487b7160e01b600052603260045260246000fd5b60200260200101518152508960a001518f8b60000151604051611d3d9897969594939291906144ec565b60405180910390a46060810151611e1d57600654608082015184516001600160a01b039092169163a9059cbb91908690600090611d8a57634e487b7160e01b600052603260045260246000fd5b602002602001015188611d9d9190614788565b6040516001600160e01b031960e085901b1681526001600160a01b0390921660048301526024820152604401602060405180830381600087803b158015611de357600080fd5b505af1158015611df7573d6000803e3d6000fd5b505050506040513d601f19601f82011682018060405250810190611e1b91906140ba565b505b6120ba565b60065460405163095ea7b360e01b81526001600160a01b038481166004830152600060248301529091169063095ea7b390604401602060405180830381600087803b158015611e7057600080fd5b505af1158015611e84573d6000803e3d6000fd5b505050506040513d601f19601f82011682018060405250810190611ea891906140ba565b50600654608082015160405163a9059cbb60e01b81526001600160a01b0391821660048201526024810188905291169063a9059cbb90604401602060405180830381600087803b158015611efb57600080fd5b505af1158015611f0f573d6000803e3d6000fd5b505050506040513d601f19601f82011682018060405250810190611f3391906140ba565b50610120810151608082015160055460405163626885b560e11b81523393926001600160a01b03908116927fb3a2e879f0f08374624d8dbddf7f56f6d95250b9b009208652d6751e6f737e3a928d92600092169063c4d10b6a90611f9b9085906004016144ab565b60206040518083038186803b158015611fb357600080fd5b505afa158015611fc7573d6000803e3d6000fd5b505050506040513d601f19601f82011682018060405250810190611feb919061409e565b60405180604001604052808960e0015160008151811061201b57634e487b7160e01b600052603260045260246000fd5b60200260200101516001600160a01b03166001600160a01b031681526020018960e0015160018151811061205f57634e487b7160e01b600052603260045260246000fd5b60200260200101516001600160a01b03166001600160a01b031681525060405180604001604052808e815260200160008152508960a001518f8b600001516040516120b19897969594939291906144ec565b60405180910390a45b50505050505050565b60006120cf83836129a0565b6006546004805460405163095ea7b360e01b81526001600160a01b03918216928101929092526024820184905292935091169063095ea7b390604401602060405180830381600087803b15801561212557600080fd5b505af1158015612139573d6000803e3d6000fd5b505050506040513d601f19601f8201168201806040525081019061215d91906140ba565b506004805460008481526009602052604090819020600301549051631b6396ab60e31b81526001600160a01b0361010090920482169381019390935260248301849052169063db1cb55890604401602060405180830381600087803b1580156121c557600080fd5b505af11580156121d9573d6000803e3d6000fd5b505050506040513d601f19601f820116820180604052508101906121fd91906140ba565b50600082815260096020908152604080832081516101408101835281548152600182015481850152600282015481840152600382015460ff808216151560608401526101009091046001600160a01b03166080830152600483015460a0830152600583015416151560c08201526006820180548451818702810187019095528085529194929360e08601939092908301828280156122c457602002820191906000526020600020905b81546001600160a01b031681526001909101906020018083116122a6575b505050505081526020016007820154815260200160088201548152505090506122ea3390565b610120820151608083015160055460405163626885b560e11b81526001600160a01b0394851694928316927faabd2491617d55a54050f8b4413d1f212bcb91f448d495fb64fe3bd94baf1b9a928a926000929091169063c4d10b6a906123549085906004016144ab565b60206040518083038186803b15801561236c57600080fd5b505afa158015612380573d6000803e3d6000fd5b505050506040513d601f19601f820116820180604052508101906123a4919061409e565b60405180604001604052808960e001516000815181106123d457634e487b7160e01b600052603260045260246000fd5b60200260200101516001600160a01b03166001600160a01b031681526020018960e0015160018151811061241857634e487b7160e01b600052603260045260246000fd5b60200260200101516001600160a01b03166001600160a01b031681525060405180604001604052808b81526020018a604001518152508960a001518c8b6000015160405161246d9897969594939291906144ec565b60405180910390a450505050565b6001606f55565b603d546001600160a01b0316331461097d5760405162461bcd60e51b815260206004820181905260248201527f4f776e61626c653a2063616c6c6572206973206e6f7420746865206f776e657260448201526064016104b9565b806001600160a01b0381166125035760405162461bcd60e51b81526004016104b990614592565b600454604080516001600160a01b03928316815291841660208301527f12ad124e13af4c31364ad22aa74320e167b37f005dafb75d71a210c49da3629e910160405180910390a150600480546001600160a01b0319166001600160a01b0392909216919091179055565b603d80546001600160a01b038381166001600160a01b0319831681179093556040519116919082907f8be0079c531659141344cd1fd0a4f28419497f9722a3daafe3b4186f6b6457e090600090a35050565b600a54610100900460ff166125e65760405162461bcd60e51b81526004016104b9906145d3565b61097d3361256d565b600a54610100900460ff1661247b5760405162461bcd60e51b81526004016104b9906145d3565b600060608161262d6126288683612bc9565b612bef565b905062ffffff1980821614156126855760405162461bcd60e51b815260206004820152601b60248201527f426974636f696e48656c7065723a20766f7574206973206e756c6c000000000060448201526064016104b9565b6000806000806000612698866000612d19565b6001600160401b0316905060005b81811015612780576126b88782612e62565b95506126c386612f79565b94506126ce86612fd6565b93506126d984613020565b925062ffffff19808416141561275c57896040516020016126fa919061441d565b6040516020818303038152906040528051906020012061271f8662ffffff19166130f2565b60405160200161272f919061441d565b6040516020818303038152906040528051906020012014156127575761275486613142565b98505b61276e565b61276b62ffffff1984166130f2565b97505b806127788161481a565b9150506126a6565b505050505050509250929050565b60008061279d83600080613167565b600101519392505050565b6000806127b88360016002613167565b600201519392505050565b6000806127d383601a602d613167565b601401519392505050565b6000806127ee83602e6049613167565b601c01519392505050565b60008061279d83604e80613167565b6000806127d38360036016613167565b60008061282883604a604d613167565b600401519392505050565b6000806127b88360176018613167565b60008061279d83601980613167565b6060612878848484604051806060016040528060298152602001614877602991396131ec565b90505b9392505050565b804710156128d25760405162461bcd60e51b815260206004820152601d60248201527f416464726573733a20696e73756666696369656e742062616c616e636500000060448201526064016104b9565b6000826001600160a01b03168260405160006040518083038185875af1925050503d806000811461291f576040519150601f19603f3d011682016040523d82523d6000602084013e612924565b606091505b505090508061299b5760405162461bcd60e51b815260206004820152603a60248201527f416464726573733a20756e61626c6520746f2073656e642076616c75652c207260448201527f6563697069656e74206d6179206861766520726576657274656400000000000060648201526084016104b9565b505050565b6005546000828152600960205260408082206001015490516307f3f86760e21b8152919283926001600160a01b0390911691631fcfe19c916129e99188913091906004016144be565b602060405180830381600087803b158015612a0357600080fd5b505af1158015612a17573d6000803e3d6000fd5b505050506040513d601f19601f82011682018060405250810190612a3b91906141a5565b6002546000858152600960205260408120600101549293509161271091612a6191614740565b612a6b9190614720565b6000858152600960205260409020600401549091508015612b1a576006546001600160a01b031663a9059cbb336040516001600160e01b031960e084901b1681526001600160a01b03909116600482015260248101849052604401602060405180830381600087803b158015612ae057600080fd5b505af1158015612af4573d6000803e3d6000fd5b505050506040513d601f19601f82011682018060405250810190612b1891906140ba565b505b8115612baa5760065460075460405163a9059cbb60e01b81526001600160a01b0391821660048201526024810185905291169063a9059cbb90604401602060405180830381600087803b158015612b7057600080fd5b505af1158015612b84573d6000803e3d6000fd5b505050506040513d601f19601f82011682018060405250810190612ba891906140ba565b505b80612bb58385614788565b612bbf9190614788565b9695505050505050565b815160009060208401612be464ffffffffff85168284613309565b925050505b92915050565b60008181612c05815b62ffffff1984169061334d565b50601884901c6001600160601b0316612c245762ffffff199250612d12565b6000612c31856000612d19565b9050601885901c6001600160601b03166001600160401b038216612c5e5762ffffff195b94505050612d12565b6000612c6983613427565b60ff16905060005b836001600160401b0316811015612ce257828210612c995762ffffff19965050505050612d12565b6000612cb7612ca88486614788565b62ffffff198b1690600e613480565b9050612cc2816134b4565b612ccc9084614696565b9250508080612cda9061481a565b915050612c71565b50818114612cf95762ffffff199550505050612d12565b6301000000600160d81b038716600f60d81b1795505050505b5050919050565b600080612d2e62ffffff1985168460016134fd565b905060fc8111612d4957612d418161352d565b915050612be9565b8060fd1415612daf57612d77612d72612d63856001614696565b62ffffff198716906002613599565b61352d565b9150612d8282613427565b60ff16600314612daa57612da8612da362ffffff19861685600360006136e3565b613753565b505b612e5b565b8060fe1415612e0457612dd8612d72612dc9856001614696565b62ffffff198716906004613599565b9150612de382613427565b60ff16600514612daa57612da8612da362ffffff19861685600560006136e3565b8060ff1415612e5b57612e2d612d72612e1e856001614696565b62ffffff198716906008613599565b9150612e3882613427565b60ff16600914612e5b57612e59612da362ffffff19861685600960006136e3565b505b5092915050565b600082600f612e7081612bf8565b506000612e7e866000612d19565b6001600160401b03169050601886901c6001600160601b0316818610612eda5760405162461bcd60e51b81526020600482015260116024820152702b37baba103932b0b21037bb32b9393ab760791b60448201526064016104b9565b6000612ee583613427565b60ff1690506000805b88811015612f3b57612f12612f038486614788565b62ffffff198c1690600e613480565b9150612f1d826134b4565b612f279084614696565b9250612f34600182614696565b9050612eee565b50612f49612ca88385614788565b90506000612f56826134b4565b9050612f6b62ffffff198b168483600d6136e3565b9a9950505050505050505050565b600081600d612f8781612bf8565b506000612f95856008612d19565b9050612fcd612fa382613427565b612fae9060086146d9565b60ff166001600160401b03831660075b62ffffff1989169291906136e3565b95945050505050565b600081600d612fe481612bf8565b506000612ff2856008612d19565b9050612fcd60088261300384613427565b60ff1661301091906146ae565b6001600160401b03166007612fbe565b600081600761302e81612bf8565b50600061303c856000612d19565b90506000613056612d7262ffffff198816600360016134fd565b90506053826001600160401b0316118061307957506004826001600160401b0316105b80613096575061309162ffffff1987166001806134fd565b606a14155b806130c657506130a760038361479f565b6001600160401b03166130c362ffffff198816600360016134fd565b14155b156130d55762ffffff19612c55565b612bbf62ffffff19871660046001600160401b038416600c6136e3565b606060008061310a8460181c6001600160601b031690565b60405193508392506001600160601b031690506131318461312c846020614696565b6137da565b508181016020016040529052919050565b600081600d61315081612bf8565b50610f14612d7262ffffff19861660006008613599565b60606000835b613178846001614696565b8110156131e35785818151811061319f57634e487b7160e01b600052603260045260246000fd5b602001015160f81c60f81b915082826040516020016131bf929190614439565b604051602081830303815290604052925080806131db9061481a565b91505061316d565b50509392505050565b60608247101561324d5760405162461bcd60e51b815260206004820152602660248201527f416464726573733a20696e73756666696369656e742062616c616e636520666f6044820152651c8818d85b1b60d21b60648201526084016104b9565b843b61329b5760405162461bcd60e51b815260206004820152601d60248201527f416464726573733a2063616c6c20746f206e6f6e2d636f6e747261637400000060448201526064016104b9565b600080866001600160a01b031685876040516132b7919061441d565b60006040518083038185875af1925050503d80600081146132f4576040519150601f19603f3d011682016040523d82523d6000602084013e6132f9565b606091505b5091509150610f0f828286613932565b6000806133168385614696565b9050604051811115613326575060005b806133385762ffffff1991505061287b565b5050606092831b9190911790911b1760181b90565b6000613359838361396b565b61342057600061337861336c8560d81c90565b64ffffffffff1661398e565b915050600061338d8464ffffffffff1661398e565b6040517f5479706520617373657274696f6e206661696c65642e20476f7420307800000060208201526001600160b01b031960b086811b8216603d8401526c05c408af0e0cac6e8cac84060f609b1b604784015283901b16605482015290925060009150605e015b60405160208183030381529060405290508060405162461bcd60e51b81526004016104b991906144ab565b5090919050565b600060fc826001600160401b031611613442575060016109ca565b61ffff826001600160401b03161161345c575060036109ca565b63ffffffff826001600160401b031611613478575060056109ca565b5060096109ca565b6000612878848461349a8760181c6001600160601b031690565b6001600160601b03166134ad9190614788565b85856136e3565b600081600e6134c281612bf8565b5060006134d0856008612d19565b9050806001600160401b03166134e582613427565b60ff166134f29190614696565b612fcd906008614696565b600061350a8260206147c7565b61351590600861475f565b60ff16613523858585613a3a565b901c949350505050565b60006001600160401b038211156135955760405162461bcd60e51b815260206004820152602660248201527f53616665436173743a2076616c756520646f65736e27742066697420696e203660448201526534206269747360d01b60648201526084016104b9565b5090565b60006128786135a9858585613a3a565b600881811c7eff00ff00ff00ff00ff00ff00ff00ff00ff00ff00ff00ff00ff00ff00ff00ff167fff00ff00ff00ff00ff00ff00ff00ff00ff00ff00ff00ff00ff00ff00ff00ff009290911b9190911617601081811c7dffff0000ffff0000ffff0000ffff0000ffff0000ffff0000ffff0000ffff167fffff0000ffff0000ffff0000ffff0000ffff0000ffff0000ffff0000ffff00009290911b9190911617602081811c7bffffffff00000000ffffffff00000000ffffffff00000000ffffffff167fffffffff00000000ffffffff00000000ffffffff00000000ffffffff000000009290911b9190911617604081811c77ffffffffffffffff0000000000000000ffffffffffffffff1677ffffffffffffffff0000000000000000ffffffffffffffff199290911b9190911617608081811c91901b1790565b6000806136f98660781c6001600160601b031690565b6001600160601b0316905061370d86613b93565b846137188784614696565b6137229190614696565b11156137355762ffffff19915050610f14565b61373f8582614696565b9050612bbf8364ffffffffff168286613309565b6060600061378761378282613774601887901c6001600160601b0316613bd4565b62ffffff19871691906134fd565b61398e565b6040517f4e6f6e2d6d696e696d616c2076617220696e742e20476f74203078000000000060208201526dffffffffffffffffffffffffffff19607083901b16603b82015290925060009150604d016133f5565b600062ffffff1980841614156138435760405162461bcd60e51b815260206004820152602860248201527f54797065644d656d566965772f636f7079546f202d204e756c6c20706f696e7460448201526732b9103232b932b360c11b60648201526084016104b9565b61384c83613c35565b6138ac5760405162461bcd60e51b815260206004820152602b60248201527f54797065644d656d566965772f636f7079546f202d20496e76616c696420706f60448201526a34b73a32b9103232b932b360a91b60648201526084016104b9565b60006138c18460181c6001600160601b031690565b6001600160601b0316905060006138e18560781c6001600160601b031690565b6001600160601b0316905060006040519050848111156139015760206060fd5b8285848460045afa50612bbf6139178760d81c90565b64ffffffffff60601b606091821b168717901b841760181b90565b6060831561394157508161287b565b8251156139515782518084602001fd5b8160405162461bcd60e51b81526004016104b991906144ab565b60008164ffffffffff1661397f8460d81c90565b64ffffffffff16149392505050565b600080601f5b600f8160ff1611156139ec5760006139ad82600861475f565b60ff1685901c90506139be81613c73565b61ffff16841793508160ff166010146139d957601084901b93505b506139e56001826147c7565b9050613994565b50600f5b60ff8160ff161015613a345760ff600882021684901c613a0f81613c73565b61ffff16831792508160ff16600014613a2a57601083901b92505b50600019016139f0565b50915091565b600060ff8216613a4c5750600061287b565b613a5f8460181c6001600160601b031690565b6001600160601b0316613a7560ff841685614696565b1115613ad957613ac0613a918560781c6001600160601b031690565b6001600160601b0316613aad8660181c6001600160601b031690565b6001600160601b0316858560ff16613ca3565b60405162461bcd60e51b81526004016104b991906144ab565b60208260ff161115613b535760405162461bcd60e51b815260206004820152603a60248201527f54797065644d656d566965772f696e646578202d20417474656d70746564207460448201527f6f20696e646578206d6f7265207468616e20333220627974657300000000000060648201526084016104b9565b600882026000613b6c8660781c6001600160601b031690565b6001600160601b031690506000600160ff1b60001984011d91909501511695945050505050565b6000613ba88260181c6001600160601b031690565b613bbb8360781c6001600160601b031690565b613bc591906146fe565b6001600160601b031692915050565b600060ff8211156135955760405162461bcd60e51b815260206004820152602560248201527f53616665436173743a2076616c756520646f65736e27742066697420696e2038604482015264206269747360d81b60648201526084016104b9565b6000613c418260d81c90565b64ffffffffff1664ffffffffff1415613c5c575060006109ca565b6000613c6783613b93565b60405110199392505050565b6000613c8560048360ff16901c613dcd565b60ff161760081b62ffff0016613c9a82613dcd565b60ff1617919050565b60606000613cb08661398e565b9150506000613cbe8661398e565b9150506000613ccc8661398e565b9150506000613cda8661398e565b604080517f54797065644d656d566965772f696e646578202d204f76657272616e20746865602082015274040ecd2caee5c40a6d8d2c6ca40d2e640c2e84060f605b1b818301526001600160d01b031960d098891b811660558301526e040eed2e8d040d8cadccee8d04060f608b1b605b830181905297891b8116606a8301527f2e20417474656d7074656420746f20696e646578206174206f666673657420306070830152600f60fb1b609083015295881b861660918201526097810196909652951b90921660a68401525050601760f91b60ac8201528151808203608d01815260ad90910190915295945050505050565b600060f08083179060ff82161415613de95760309150506109ca565b8060ff1660f11415613dff5760319150506109ca565b8060ff1660f21415613e155760329150506109ca565b8060ff1660f31415613e2b5760339150506109ca565b8060ff1660f41415613e415760349150506109ca565b8060ff1660f51415613e575760359150506109ca565b8060ff1660f61415613e6d5760369150506109ca565b8060ff1660f71415613e835760379150506109ca565b8060ff1660f81415613e995760389150506109ca565b8060ff1660f91415613eaf5760399150506109ca565b8060ff1660fa1415613ec55760619150506109ca565b8060ff1660fb1415613edb5760629150506109ca565b8060ff1660fc1415613ef15760639150506109ca565b8060ff1660fd1415613f075760649150506109ca565b8060ff1660fe1415613f1d5760659150506109ca565b8060ff1660ff1415613f335760669150506109ca565b50919050565b828054828255906000526020600020908101928215613f8e579160200282015b82811115613f8e57825182546001600160a01b0319166001600160a01b03909116178255602090920191600190910190613f59565b506135959291505b808211156135955760008155600101613f96565b805180151581146109ca57600080fd5b80356001600160e01b0319811681146109ca57600080fd5b60008083601f840112613fe3578182fd5b5081356001600160401b03811115613ff9578182fd5b60208301915083602082850101111561401157600080fd5b9250929050565b600082601f830112614028578081fd5b81356001600160401b038111156140415761404161484b565b614054601f8201601f1916602001614666565b818152846020838601011115614068578283fd5b816020850160208301379081016020019190915292915050565b600060208284031215614093578081fd5b813561287b81614861565b6000602082840312156140af578081fd5b815161287b81614861565b6000602082840312156140cb578081fd5b61287b82613faa565b600080604083850312156140e6578081fd5b6140ef83613faa565b91506020808401516001600160401b038082111561410b578384fd5b818601915086601f83011261411e578384fd5b8151818111156141305761413061484b565b8381029150614140848301614666565b8181528481019084860184860187018b101561415a578788fd5b8795505b8386101561417c57805183526001959095019491860191860161415e565b508096505050505050509250929050565b60006020828403121561419e578081fd5b5035919050565b6000602082840312156141b6578081fd5b5051919050565b60008060008060008060008060008060006101008c8e0312156141de578687fd5b6141e78c613fba565b9a506001600160401b038060208e01351115614201578788fd5b6142118e60208f01358f01614018565b9a508060408e01351115614223578788fd5b6142338e60408f01358f01613fd2565b909a50985061424460608e01613fba565b975060808d013596508060a08e0135111561425d578586fd5b61426d8e60a08f01358f01613fd2565b909650945060c08d0135935060e08d0135811015614289578283fd5b5061429a8d60e08e01358e01613fd2565b81935080925050509295989b509295989b9093969950565b600080604083850312156142c4578182fd5b8235915060208301356142d681614861565b809150509250929050565b600080600080600080600060e0888a0312156142fb578283fd5b873596506020880135955060408801359450606088013561431b81614861565b9350608088013561432b81614861565b925060a088013561433b81614861565b915060c088013561434b81614861565b8091505092959891949750929550565b6000815180845260208085019450808401835b838110156143935781516001600160a01b03168752958201959082019060010161436e565b509495945050505050565b600081518084526143b68160208601602086016147ea565b601f01601f19169290920160200192915050565b600063ffffffff60e01b808716835285516143ec816004860160208a016147ea565b855190840190614403816004840160208a016147ea565b919094169301600481019390935250506008019392505050565b6000825161442f8184602087016147ea565b9190910192915050565b6000835161444b8184602088016147ea565b6001600160f81b0319939093169190920190815260010192915050565b60006020825261287b602083018461435b565b60008582528460208301526080604083015261449a608083018561439e565b905082606083015295945050505050565b60006020825261287b602083018461439e565b6000606082526144d1606083018661439e565b6001600160a01b039490941660208301525060400152919050565b60006101408083526145008184018c61439e565b60208481018c90526001600160a01b038b811660408701529193509150606084018960005b6002811015614544578151841683529184019190840190600101614525565b5050505060a083018760005b600281101561456d57815183529183019190830190600101614550565b505050508460e083015283610100830152826101208301529998505050505050505050565b60208082526021908201527f434345786368616e6765526f757465723a2061646472657373206973207a65726040820152606f60f81b606082015260800190565b6020808252602b908201527f496e697469616c697a61626c653a20636f6e7472616374206973206e6f74206960408201526a6e697469616c697a696e6760a81b606082015260800190565b600087825286602083015260c0604083015261463d60c083018761435b565b6001600160a01b03959095166060830152506080810192909252151560a0909101529392505050565b604051601f8201601f191681016001600160401b038111828210171561468e5761468e61484b565b604052919050565b600082198211156146a9576146a9614835565b500190565b60006001600160401b038083168185168083038211156146d0576146d0614835565b01949350505050565b600060ff821660ff84168060ff038211156146f6576146f6614835565b019392505050565b60006001600160601b038083168185168083038211156146d0576146d0614835565b60008261473b57634e487b7160e01b81526012600452602481fd5b500490565b600081600019048311821515161561475a5761475a614835565b500290565b600060ff821660ff84168160ff048111821515161561478057614780614835565b029392505050565b60008282101561479a5761479a614835565b500390565b60006001600160401b03838116908316818110156147bf576147bf614835565b039392505050565b600060ff821660ff8416808210156147e1576147e1614835565b90039392505050565b60005b838110156148055781810151838201526020016147ed565b83811115614814576000848401525b50505050565b600060001982141561482e5761482e614835565b5060010190565b634e487b7160e01b600052601160045260246000fd5b634e487b7160e01b600052604160045260246000fd5b6001600160a01b038116811461099057600080fdfe416464726573733a206c6f772d6c6576656c2063616c6c20776974682076616c7565206661696c6564a26469706673582212202f0ec48b4477143d2b69e8089723643f52a1f481e6ce77c0c30be4d803ef7c7264736f6c63430008020033",
  "devdoc": {
    "kind": "dev",
    "methods": {
      "ccExchange(bytes4,bytes,bytes,bytes4,uint256,bytes,uint256,bytes)": {
        "details": "Mints teleBTC for user if exchanging is not successful",
        "params": {
          "_blockNumber": "Height of the block containing the user request",
          "_index": "Index of transaction containing the user request in the block",
          "_intermediateNodes": "Merkle inclusion proof for transaction containing the user request",
          "_lockerLockingScript": "Script hash of locker that user has sent BTC to it",
          "_locktime": "Lock time of the transaction containing the user request",
          "_version": "Version of the transaction containing the user request",
          "_vin": "Inputs of the transaction containing the user request",
          "_vout": "Outputs of the transaction containing the user request"
        },
        "returns": {
          "_0": ""
        }
      },
      "initialize(uint256,uint256,uint256,address,address,address,address)": {
        "params": {
          "_chainId": "Id of the underlying chain",
          "_lockers": "Lockers' contract address",
          "_protocolPercentageFee": "Percentage amount of protocol fee (min: %0.01)",
          "_relay": "The Relay address to validate data from source chain",
          "_startingBlockNumber": "Requests that are included in a block older than _startingBlockNumber cannot be executed",
          "_teleBTC": "TeleportDAO BTC ERC20 token address",
          "_treasury": "Address of treasury that collects protocol fees"
        }
      },
      "isRequestUsed(bytes32)": {
        "details": "It prevents re-submitting an executed request",
        "params": {
          "_txId": "The transaction ID of request on source chain "
        },
        "returns": {
          "_0": "True if the cc exchange request has been already executed"
        }
      },
      "owner()": {
        "details": "Returns the address of the current owner."
      },
      "renounceOwnership()": {
        "details": "Leaves the contract without owner. It will not be possible to call `onlyOwner` functions anymore. Can only be called by the current owner. NOTE: Renouncing ownership will leave the contract without an owner, thereby removing any functionality that is only available to the owner."
      },
      "setExchangeConnector(uint256,address)": {
        "details": "Only owner can call this. _exchangeConnector can be set to zero to inactive an app",
        "params": {
          "_appId": "AppId of exchange connector",
          "_exchangeConnector": "Address of exchange connector"
        }
      },
      "setInstantRouter(address)": {
        "details": "Only owner can call this",
        "params": {
          "_instantRouter": "The new instantRouter contract address"
        }
      },
      "setLockers(address)": {
        "details": "Only owner can call this",
        "params": {
          "_lockers": "The new lockers contract address"
        }
      },
      "setProtocolPercentageFee(uint256)": {
        "details": "Only owner can call this",
        "params": {
          "_protocolPercentageFee": "Percentage amount of protocol fee"
        }
      },
      "setRelay(address)": {
        "details": "Only owner can call this",
        "params": {
          "_relay": "The new relay contract address"
        }
      },
      "setTeleBTC(address)": {
        "details": "Only owner can call this",
        "params": {
          "_teleBTC": "The new teleBTC contract address"
        }
      },
      "setTreasury(address)": {
        "details": "Only owner can call this",
        "params": {
          "_treasury": "Treasury address"
        }
      },
      "transferOwnership(address)": {
        "details": "Transfers ownership of the contract to a new account (`newOwner`). Can only be called by the current owner."
      }
    },
    "version": 1
  },
  "userdoc": {
    "events": {
      "CCExchange(bytes,uint256,address,address,address[2],uint256[2],uint256,address,uint256,bytes32,uint256)": {
        "notice": "Emits when a cc exchange request gets done"
      },
      "FailedCCExchange(bytes,uint256,address,address,address[2],uint256[2],uint256,address,uint256,bytes32,uint256)": {
        "notice": "Emits when a cc exchange request fails"
      },
      "NewInstantRouter(address,address)": {
        "notice": "Emits when changes made to InstantRouter address"
      },
      "NewLockers(address,address)": {
        "notice": "Emits when changes made to Lockers address"
      },
      "NewProtocolPercentageFee(uint256,uint256)": {
        "notice": "Emits when changes made to protocol percentage fee"
      },
      "NewRelay(address,address)": {
        "notice": "Emits when changes made to relay address"
      },
      "NewTeleBTC(address,address)": {
        "notice": "Emits when changes made to TeleBTC address"
      },
      "NewTreasury(address,address)": {
        "notice": "Emits when changes made to Treasury address"
      },
      "SetExchangeConnector(uint256,address)": {
        "notice": "Emits when appId for an exchange connector is set"
      }
    },
    "kind": "user",
    "methods": {
      "ccExchange(bytes4,bytes,bytes,bytes4,uint256,bytes,uint256,bytes)": {
        "notice": "Executes a cross-chain exchange request after checking its merkle inclusion proof"
      },
      "initialize(uint256,uint256,uint256,address,address,address,address)": {
        "notice": "Gives default params to initiate cc exchange router"
      },
      "isRequestUsed(bytes32)": {
        "notice": "Check if the cc exchange request has been executed before"
      },
      "setExchangeConnector(uint256,address)": {
        "notice": "Sets appId for an exchange connector"
      },
      "setInstantRouter(address)": {
        "notice": "Changes instantRouter contract address"
      },
      "setLockers(address)": {
        "notice": "Changes lockers contract address"
      },
      "setProtocolPercentageFee(uint256)": {
        "notice": "Setter for protocol percentage fee"
      },
      "setRelay(address)": {
        "notice": "Changes relay contract address"
      },
      "setTeleBTC(address)": {
        "notice": "Changes teleBTC contract address"
      },
      "setTreasury(address)": {
        "notice": "Setter for treasury"
      }
    },
    "version": 1
  },
  "storageLayout": {
    "storage": [
      {
        "astId": 14220,
        "contract": "contracts/routers/CcExchangeRouterLogic.sol:CcExchangeRouterLogic",
        "label": "startingBlockNumber",
        "offset": 0,
        "slot": "0",
        "type": "t_uint256"
      },
      {
        "astId": 14223,
        "contract": "contracts/routers/CcExchangeRouterLogic.sol:CcExchangeRouterLogic",
        "label": "chainId",
        "offset": 0,
        "slot": "1",
        "type": "t_uint256"
      },
      {
        "astId": 14226,
        "contract": "contracts/routers/CcExchangeRouterLogic.sol:CcExchangeRouterLogic",
        "label": "protocolPercentageFee",
        "offset": 0,
        "slot": "2",
        "type": "t_uint256"
      },
      {
        "astId": 14229,
        "contract": "contracts/routers/CcExchangeRouterLogic.sol:CcExchangeRouterLogic",
        "label": "relay",
        "offset": 0,
        "slot": "3",
        "type": "t_address"
      },
      {
        "astId": 14232,
        "contract": "contracts/routers/CcExchangeRouterLogic.sol:CcExchangeRouterLogic",
        "label": "instantRouter",
        "offset": 0,
        "slot": "4",
        "type": "t_address"
      },
      {
        "astId": 14235,
        "contract": "contracts/routers/CcExchangeRouterLogic.sol:CcExchangeRouterLogic",
        "label": "lockers",
        "offset": 0,
        "slot": "5",
        "type": "t_address"
      },
      {
        "astId": 14238,
        "contract": "contracts/routers/CcExchangeRouterLogic.sol:CcExchangeRouterLogic",
        "label": "teleBTC",
        "offset": 0,
        "slot": "6",
        "type": "t_address"
      },
      {
        "astId": 14241,
        "contract": "contracts/routers/CcExchangeRouterLogic.sol:CcExchangeRouterLogic",
        "label": "treasury",
        "offset": 0,
        "slot": "7",
        "type": "t_address"
      },
      {
        "astId": 14246,
        "contract": "contracts/routers/CcExchangeRouterLogic.sol:CcExchangeRouterLogic",
        "label": "exchangeConnector",
        "offset": 0,
        "slot": "8",
        "type": "t_mapping(t_uint256,t_address)"
      },
      {
        "astId": 14251,
        "contract": "contracts/routers/CcExchangeRouterLogic.sol:CcExchangeRouterLogic",
        "label": "ccExchangeRequests",
        "offset": 0,
        "slot": "9",
        "type": "t_mapping(t_bytes32,t_struct(ccExchangeRequest)15723_storage)"
      },
      {
        "astId": 138,
        "contract": "contracts/routers/CcExchangeRouterLogic.sol:CcExchangeRouterLogic",
        "label": "_initialized",
        "offset": 0,
        "slot": "10",
        "type": "t_uint8"
      },
      {
        "astId": 141,
        "contract": "contracts/routers/CcExchangeRouterLogic.sol:CcExchangeRouterLogic",
        "label": "_initializing",
        "offset": 1,
        "slot": "10",
        "type": "t_bool"
      },
      {
        "astId": 825,
        "contract": "contracts/routers/CcExchangeRouterLogic.sol:CcExchangeRouterLogic",
        "label": "__gap",
        "offset": 0,
        "slot": "11",
        "type": "t_array(t_uint256)50_storage"
      },
      {
        "astId": 10,
        "contract": "contracts/routers/CcExchangeRouterLogic.sol:CcExchangeRouterLogic",
        "label": "_owner",
        "offset": 0,
        "slot": "61",
        "type": "t_address"
      },
      {
        "astId": 130,
        "contract": "contracts/routers/CcExchangeRouterLogic.sol:CcExchangeRouterLogic",
        "label": "__gap",
        "offset": 0,
        "slot": "62",
        "type": "t_array(t_uint256)49_storage"
      },
      {
        "astId": 441,
        "contract": "contracts/routers/CcExchangeRouterLogic.sol:CcExchangeRouterLogic",
        "label": "_status",
        "offset": 0,
        "slot": "111",
        "type": "t_uint256"
      },
      {
        "astId": 499,
        "contract": "contracts/routers/CcExchangeRouterLogic.sol:CcExchangeRouterLogic",
        "label": "__gap",
        "offset": 0,
        "slot": "112",
        "type": "t_array(t_uint256)49_storage"
      }
    ],
    "types": {
      "t_address": {
        "encoding": "inplace",
        "label": "address",
        "numberOfBytes": "20"
      },
      "t_array(t_address)dyn_storage": {
        "base": "t_address",
        "encoding": "dynamic_array",
        "label": "address[]",
        "numberOfBytes": "32"
      },
      "t_array(t_uint256)49_storage": {
        "base": "t_uint256",
        "encoding": "inplace",
        "label": "uint256[49]",
        "numberOfBytes": "1568"
      },
      "t_array(t_uint256)50_storage": {
        "base": "t_uint256",
        "encoding": "inplace",
        "label": "uint256[50]",
        "numberOfBytes": "1600"
      },
      "t_bool": {
        "encoding": "inplace",
        "label": "bool",
        "numberOfBytes": "1"
      },
      "t_bytes32": {
        "encoding": "inplace",
        "label": "bytes32",
        "numberOfBytes": "32"
      },
      "t_mapping(t_bytes32,t_struct(ccExchangeRequest)15723_storage)": {
        "encoding": "mapping",
        "key": "t_bytes32",
        "label": "mapping(bytes32 => struct ICcExchangeRouterStorage.ccExchangeRequest)",
        "numberOfBytes": "32",
        "value": "t_struct(ccExchangeRequest)15723_storage"
      },
      "t_mapping(t_uint256,t_address)": {
        "encoding": "mapping",
        "key": "t_uint256",
        "label": "mapping(uint256 => address)",
        "numberOfBytes": "32",
        "value": "t_address"
      },
      "t_struct(ccExchangeRequest)15723_storage": {
        "encoding": "inplace",
        "label": "struct ICcExchangeRouterStorage.ccExchangeRequest",
        "members": [
          {
            "astId": 15703,
            "contract": "contracts/routers/CcExchangeRouterLogic.sol:CcExchangeRouterLogic",
            "label": "appId",
            "offset": 0,
            "slot": "0",
            "type": "t_uint256"
          },
          {
            "astId": 15705,
            "contract": "contracts/routers/CcExchangeRouterLogic.sol:CcExchangeRouterLogic",
            "label": "inputAmount",
            "offset": 0,
            "slot": "1",
            "type": "t_uint256"
          },
          {
            "astId": 15707,
            "contract": "contracts/routers/CcExchangeRouterLogic.sol:CcExchangeRouterLogic",
            "label": "outputAmount",
            "offset": 0,
            "slot": "2",
            "type": "t_uint256"
          },
          {
            "astId": 15709,
            "contract": "contracts/routers/CcExchangeRouterLogic.sol:CcExchangeRouterLogic",
            "label": "isFixedToken",
            "offset": 0,
            "slot": "3",
            "type": "t_bool"
          },
          {
            "astId": 15711,
            "contract": "contracts/routers/CcExchangeRouterLogic.sol:CcExchangeRouterLogic",
            "label": "recipientAddress",
            "offset": 1,
            "slot": "3",
            "type": "t_address"
          },
          {
            "astId": 15713,
            "contract": "contracts/routers/CcExchangeRouterLogic.sol:CcExchangeRouterLogic",
            "label": "fee",
            "offset": 0,
            "slot": "4",
            "type": "t_uint256"
          },
          {
            "astId": 15715,
            "contract": "contracts/routers/CcExchangeRouterLogic.sol:CcExchangeRouterLogic",
            "label": "isUsed",
            "offset": 0,
            "slot": "5",
            "type": "t_bool"
          },
          {
            "astId": 15718,
            "contract": "contracts/routers/CcExchangeRouterLogic.sol:CcExchangeRouterLogic",
            "label": "path",
            "offset": 0,
            "slot": "6",
            "type": "t_array(t_address)dyn_storage"
          },
          {
            "astId": 15720,
            "contract": "contracts/routers/CcExchangeRouterLogic.sol:CcExchangeRouterLogic",
            "label": "deadline",
            "offset": 0,
            "slot": "7",
            "type": "t_uint256"
          },
          {
            "astId": 15722,
            "contract": "contracts/routers/CcExchangeRouterLogic.sol:CcExchangeRouterLogic",
            "label": "speed",
            "offset": 0,
            "slot": "8",
            "type": "t_uint256"
          }
        ],
        "numberOfBytes": "288"
      },
      "t_uint256": {
        "encoding": "inplace",
        "label": "uint256",
        "numberOfBytes": "32"
      },
      "t_uint8": {
        "encoding": "inplace",
        "label": "uint8",
        "numberOfBytes": "1"
      }
    }
  }
}