{
  "address": "0x97753f086e5CBB9B8d01160Cfbc2bd0ADb76c2CC",
  "abi": [
    {
      "anonymous": false,
      "inputs": [
        {
          "indexed": false,
          "internalType": "uint8",
          "name": "version",
          "type": "uint8"
        }
      ],
      "name": "Initialized",
      "type": "event"
    },
    {
      "anonymous": false,
      "inputs": [
        {
          "indexed": false,
          "internalType": "address",
          "name": "oldInstantRouter",
          "type": "address"
        },
        {
          "indexed": false,
          "internalType": "address",
          "name": "newInstantRouter",
          "type": "address"
        }
      ],
      "name": "NewInstantRouter",
      "type": "event"
    },
    {
      "anonymous": false,
      "inputs": [
        {
          "indexed": false,
          "internalType": "address",
          "name": "oldLockers",
          "type": "address"
        },
        {
          "indexed": false,
          "internalType": "address",
          "name": "newLockers",
          "type": "address"
        }
      ],
      "name": "NewLockers",
      "type": "event"
    },
    {
      "anonymous": false,
      "inputs": [
        {
          "indexed": false,
          "internalType": "uint256",
          "name": "oldProtocolPercentageFee",
          "type": "uint256"
        },
        {
          "indexed": false,
          "internalType": "uint256",
          "name": "newProtocolPercentageFee",
          "type": "uint256"
        }
      ],
      "name": "NewProtocolPercentageFee",
      "type": "event"
    },
    {
      "anonymous": false,
      "inputs": [
        {
          "indexed": false,
          "internalType": "address",
          "name": "oldRelay",
          "type": "address"
        },
        {
          "indexed": false,
          "internalType": "address",
          "name": "newRelay",
          "type": "address"
        }
      ],
      "name": "NewRelay",
      "type": "event"
    },
    {
      "anonymous": false,
      "inputs": [
        {
          "indexed": false,
          "internalType": "address",
          "name": "oldTeleBTC",
          "type": "address"
        },
        {
          "indexed": false,
          "internalType": "address",
          "name": "newTeleBTC",
          "type": "address"
        }
      ],
      "name": "NewTeleBTC",
      "type": "event"
    },
    {
      "anonymous": false,
      "inputs": [
        {
          "indexed": false,
          "internalType": "uint256",
          "name": "thirdPartyId",
          "type": "uint256"
        },
        {
          "indexed": false,
          "internalType": "address",
          "name": "oldThirdPartyAddress",
          "type": "address"
        },
        {
          "indexed": false,
          "internalType": "address",
          "name": "newThirdPartyAddress",
          "type": "address"
        }
      ],
      "name": "NewThirdPartyAddress",
      "type": "event"
    },
    {
      "anonymous": false,
      "inputs": [
        {
          "indexed": false,
          "internalType": "uint256",
          "name": "thirdPartyId",
          "type": "uint256"
        },
        {
          "indexed": false,
          "internalType": "uint256",
          "name": "oldThirdPartyFee",
          "type": "uint256"
        },
        {
          "indexed": false,
          "internalType": "uint256",
          "name": "newThirdPartyFee",
          "type": "uint256"
        }
      ],
      "name": "NewThirdPartyFee",
      "type": "event"
    },
    {
      "anonymous": false,
      "inputs": [
        {
          "indexed": false,
          "internalType": "address",
          "name": "oldTreasury",
          "type": "address"
        },
        {
          "indexed": false,
          "internalType": "address",
          "name": "newTreasury",
          "type": "address"
        }
      ],
      "name": "NewTreasury",
      "type": "event"
    },
    {
      "anonymous": false,
      "inputs": [
        {
          "indexed": false,
          "internalType": "bytes32",
          "name": "bitcoinTxId",
          "type": "bytes32"
        },
        {
          "indexed": true,
          "internalType": "bytes",
          "name": "lockerLockingScript",
          "type": "bytes"
        },
        {
          "indexed": false,
          "internalType": "address",
          "name": "lockerTargetAddress",
          "type": "address"
        },
        {
          "indexed": true,
          "internalType": "address",
          "name": "user",
          "type": "address"
        },
        {
          "indexed": false,
          "internalType": "address",
          "name": "teleporter",
          "type": "address"
        },
        {
          "indexed": false,
          "internalType": "uint256[2]",
          "name": "amounts",
          "type": "uint256[2]"
        },
        {
          "indexed": false,
          "internalType": "uint256[4]",
          "name": "fees",
          "type": "uint256[4]"
        },
        {
          "indexed": false,
          "internalType": "uint256",
          "name": "thirdPartyId",
          "type": "uint256"
        },
        {
          "indexed": false,
          "internalType": "uint256",
          "name": "destinationChainId",
          "type": "uint256"
        }
      ],
      "name": "NewWrap",
      "type": "event"
    },
    {
      "anonymous": false,
      "inputs": [
        {
          "indexed": true,
          "internalType": "address",
          "name": "previousOwner",
          "type": "address"
        },
        {
          "indexed": true,
          "internalType": "address",
          "name": "newOwner",
          "type": "address"
        }
      ],
      "name": "OwnershipTransferred",
      "type": "event"
    },
    {
      "inputs": [],
      "name": "appId",
      "outputs": [
        {
          "internalType": "uint256",
          "name": "",
          "type": "uint256"
        }
      ],
      "stateMutability": "view",
      "type": "function"
    },
    {
      "inputs": [
        {
          "internalType": "bytes32",
          "name": "",
          "type": "bytes32"
        }
      ],
      "name": "ccTransferRequests",
      "outputs": [
        {
          "internalType": "uint256",
          "name": "inputAmount",
          "type": "uint256"
        },
        {
          "internalType": "address",
          "name": "recipientAddress",
          "type": "address"
        },
        {
          "internalType": "uint256",
          "name": "fee",
          "type": "uint256"
        },
        {
          "internalType": "uint256",
          "name": "speed",
          "type": "uint256"
        },
        {
          "internalType": "bool",
          "name": "isUsed",
          "type": "bool"
        }
      ],
      "stateMutability": "view",
      "type": "function"
    },
    {
      "inputs": [],
      "name": "chainId",
      "outputs": [
        {
          "internalType": "uint256",
          "name": "",
          "type": "uint256"
        }
      ],
      "stateMutability": "view",
      "type": "function"
    },
    {
      "inputs": [
        {
          "internalType": "uint256",
          "name": "_startingBlockNumber",
          "type": "uint256"
        },
        {
          "internalType": "uint256",
          "name": "_protocolPercentageFee",
          "type": "uint256"
        },
        {
          "internalType": "uint256",
          "name": "_chainId",
          "type": "uint256"
        },
        {
          "internalType": "uint256",
          "name": "_appId",
          "type": "uint256"
        },
        {
          "internalType": "address",
          "name": "_relay",
          "type": "address"
        },
        {
          "internalType": "address",
          "name": "_lockers",
          "type": "address"
        },
        {
          "internalType": "address",
          "name": "_teleBTC",
          "type": "address"
        },
        {
          "internalType": "address",
          "name": "_treasury",
          "type": "address"
        }
      ],
      "name": "initialize",
      "outputs": [],
      "stateMutability": "nonpayable",
      "type": "function"
    },
    {
      "inputs": [],
      "name": "instantRouter",
      "outputs": [
        {
          "internalType": "address",
          "name": "",
          "type": "address"
        }
      ],
      "stateMutability": "view",
      "type": "function"
    },
    {
      "inputs": [
        {
          "internalType": "bytes32",
          "name": "_txId",
          "type": "bytes32"
        }
      ],
      "name": "isRequestUsed",
      "outputs": [
        {
          "internalType": "bool",
          "name": "",
          "type": "bool"
        }
      ],
      "stateMutability": "view",
      "type": "function"
    },
    {
      "inputs": [],
      "name": "lockers",
      "outputs": [
        {
          "internalType": "address",
          "name": "",
          "type": "address"
        }
      ],
      "stateMutability": "view",
      "type": "function"
    },
    {
      "inputs": [],
      "name": "owner",
      "outputs": [
        {
          "internalType": "address",
          "name": "",
          "type": "address"
        }
      ],
      "stateMutability": "view",
      "type": "function"
    },
    {
      "inputs": [],
      "name": "protocolPercentageFee",
      "outputs": [
        {
          "internalType": "uint256",
          "name": "",
          "type": "uint256"
        }
      ],
      "stateMutability": "view",
      "type": "function"
    },
    {
      "inputs": [],
      "name": "relay",
      "outputs": [
        {
          "internalType": "address",
          "name": "",
          "type": "address"
        }
      ],
      "stateMutability": "view",
      "type": "function"
    },
    {
      "inputs": [],
      "name": "renounceOwnership",
      "outputs": [],
      "stateMutability": "nonpayable",
      "type": "function"
    },
    {
      "inputs": [
        {
          "internalType": "address",
          "name": "_instantRouter",
          "type": "address"
        }
      ],
      "name": "setInstantRouter",
      "outputs": [],
      "stateMutability": "nonpayable",
      "type": "function"
    },
    {
      "inputs": [
        {
          "internalType": "address",
          "name": "_lockers",
          "type": "address"
        }
      ],
      "name": "setLockers",
      "outputs": [],
      "stateMutability": "nonpayable",
      "type": "function"
    },
    {
      "inputs": [
        {
          "internalType": "uint256",
          "name": "_protocolPercentageFee",
          "type": "uint256"
        }
      ],
      "name": "setProtocolPercentageFee",
      "outputs": [],
      "stateMutability": "nonpayable",
      "type": "function"
    },
    {
      "inputs": [
        {
          "internalType": "address",
          "name": "_relay",
          "type": "address"
        }
      ],
      "name": "setRelay",
      "outputs": [],
      "stateMutability": "nonpayable",
      "type": "function"
    },
    {
      "inputs": [
        {
          "internalType": "uint256",
          "name": "_startingBlockNumber",
          "type": "uint256"
        }
      ],
      "name": "setStartingBlockNumber",
      "outputs": [],
      "stateMutability": "nonpayable",
      "type": "function"
    },
    {
      "inputs": [
        {
          "internalType": "address",
          "name": "_teleBTC",
          "type": "address"
        }
      ],
      "name": "setTeleBTC",
      "outputs": [],
      "stateMutability": "nonpayable",
      "type": "function"
    },
    {
      "inputs": [
        {
          "internalType": "uint256",
          "name": "_thirdPartyId",
          "type": "uint256"
        },
        {
          "internalType": "address",
          "name": "_thirdPartyAddress",
          "type": "address"
        }
      ],
      "name": "setThirdPartyAddress",
      "outputs": [],
      "stateMutability": "nonpayable",
      "type": "function"
    },
    {
      "inputs": [
        {
          "internalType": "uint256",
          "name": "_thirdPartyId",
          "type": "uint256"
        },
        {
          "internalType": "uint256",
          "name": "_thirdPartyFee",
          "type": "uint256"
        }
      ],
      "name": "setThirdPartyFee",
      "outputs": [],
      "stateMutability": "nonpayable",
      "type": "function"
    },
    {
      "inputs": [
        {
          "internalType": "address",
          "name": "_treasury",
          "type": "address"
        }
      ],
      "name": "setTreasury",
      "outputs": [],
      "stateMutability": "nonpayable",
      "type": "function"
    },
    {
      "inputs": [],
      "name": "startingBlockNumber",
      "outputs": [
        {
          "internalType": "uint256",
          "name": "",
          "type": "uint256"
        }
      ],
      "stateMutability": "view",
      "type": "function"
    },
    {
      "inputs": [],
      "name": "teleBTC",
      "outputs": [
        {
          "internalType": "address",
          "name": "",
          "type": "address"
        }
      ],
      "stateMutability": "view",
      "type": "function"
    },
    {
      "inputs": [
        {
          "internalType": "bytes32",
          "name": "",
          "type": "bytes32"
        }
      ],
      "name": "thirdParty",
      "outputs": [
        {
          "internalType": "uint256",
          "name": "",
          "type": "uint256"
        }
      ],
      "stateMutability": "view",
      "type": "function"
    },
    {
      "inputs": [
        {
          "internalType": "uint256",
          "name": "",
          "type": "uint256"
        }
      ],
      "name": "thirdPartyAddress",
      "outputs": [
        {
          "internalType": "address",
          "name": "",
          "type": "address"
        }
      ],
      "stateMutability": "view",
      "type": "function"
    },
    {
      "inputs": [
        {
          "internalType": "uint256",
          "name": "",
          "type": "uint256"
        }
      ],
      "name": "thirdPartyFee",
      "outputs": [
        {
          "internalType": "uint256",
          "name": "",
          "type": "uint256"
        }
      ],
      "stateMutability": "view",
      "type": "function"
    },
    {
      "inputs": [
        {
          "internalType": "address",
          "name": "newOwner",
          "type": "address"
        }
      ],
      "name": "transferOwnership",
      "outputs": [],
      "stateMutability": "nonpayable",
      "type": "function"
    },
    {
      "inputs": [],
      "name": "treasury",
      "outputs": [
        {
          "internalType": "address",
          "name": "",
          "type": "address"
        }
      ],
      "stateMutability": "view",
      "type": "function"
    },
    {
      "inputs": [
        {
          "components": [
            {
              "internalType": "bytes4",
              "name": "version",
              "type": "bytes4"
            },
            {
              "internalType": "bytes",
              "name": "vin",
              "type": "bytes"
            },
            {
              "internalType": "bytes",
              "name": "vout",
              "type": "bytes"
            },
            {
              "internalType": "bytes4",
              "name": "locktime",
              "type": "bytes4"
            },
            {
              "internalType": "uint256",
              "name": "blockNumber",
              "type": "uint256"
            },
            {
              "internalType": "bytes",
              "name": "intermediateNodes",
              "type": "bytes"
            },
            {
              "internalType": "uint256",
              "name": "index",
              "type": "uint256"
            }
          ],
          "internalType": "struct ICcTransferRouter.TxAndProof",
          "name": "_txAndProof",
          "type": "tuple"
        },
        {
          "internalType": "bytes",
          "name": "_lockerLockingScript",
          "type": "bytes"
        }
      ],
      "name": "wrap",
      "outputs": [
        {
          "internalType": "bool",
          "name": "",
          "type": "bool"
        }
      ],
      "stateMutability": "payable",
      "type": "function"
    },
    {
      "stateMutability": "payable",
      "type": "receive"
    }
  ],
  "transactionHash": "0xf450afd3d1e9969f3aa892abd2fe0a00354a48673d2fab0aaf9c89dcc4c8b23a",
  "args": [],
  "numDeployments": 1,
  "solcInputHash": "ee4f89e045c1fbb865e5813fbe56b800",
  "bytecode": "0x608060405234801561001057600080fd5b50614635806100206000396000f3fe6080604052600436106101bb5760003560e01c80638d3d78cd116100ec578063b59589d11161008a578063e35a0a8811610064578063e35a0a881461054e578063e9770e931461056e578063f0f442601461059b578063f2fde38b146105bb576101c2565b8063b59589d1146104fb578063b866d6ea1461051b578063c805f68b1461052e576101c2565b80638f9eb78b116100c65780638f9eb78b1461046f5780639a8a05921461048f578063a9b68271146104a5578063b14d3532146104db576101c2565b80638d3d78cd146104115780638d5fc1d4146104315780638da5cb5b14610451576101c2565b8063715018a6116101595780637f0f1817116101335780637f0f18171461038b57806380afdea8146103ab57806380bc4726146103c1578063870ba6cf146103f1576101c2565b8063715018a6146102cd578063765f0233146102e25780637ed557481461036b576101c2565b80633a5d4213116101955780633a5d42131461024a57806359fd0b0c1461026a57806361d027b31461029757806370872aa5146102b7576101c2565b80631812adb6146101c75780631876dec4146101f05780631e7107c714610228576101c2565b366101c257005b600080fd5b3480156101d357600080fd5b506101dd60035481565b6040519081526020015b60405180910390f35b3480156101fc57600080fd5b50600554610210906001600160a01b031681565b6040516001600160a01b0390911681526020016101e7565b34801561023457600080fd5b50610248610243366004613dfd565b6105db565b005b34801561025657600080fd5b50610248610265366004613f8f565b6105ef565b34801561027657600080fd5b506101dd610285366004613dfd565b60a16020526000908152604090205481565b3480156102a357600080fd5b50600854610210906001600160a01b031681565b3480156102c357600080fd5b506101dd60005481565b3480156102d957600080fd5b50610248610764565b3480156102ee57600080fd5b506103396102fd366004613dfd565b6009602052600090815260409020805460018201546002830154600384015460049094015492936001600160a01b039092169290919060ff1685565b604080519586526001600160a01b0390941660208601529284019190915260608301521515608082015260a0016101e7565b34801561037757600080fd5b50610248610386366004613dfd565b61076e565b34801561039757600080fd5b506102486103a6366004613da5565b61077f565b3480156103b757600080fd5b506101dd60025481565b3480156103cd57600080fd5b506103e16103dc366004613dfd565b6107f5565b60405190151581526020016101e7565b3480156103fd57600080fd5b5061024861040c366004613da5565b610820565b34801561041d57600080fd5b50600654610210906001600160a01b031681565b34801561043d57600080fd5b5061024861044c366004613f3f565b610892565b34801561045d57600080fd5b50603d546001600160a01b0316610210565b34801561047b57600080fd5b5061024861048a366004613f6e565b6108a4565b34801561049b57600080fd5b506101dd60015481565b3480156104b157600080fd5b506102106104c0366004613dfd565b60a2602052600090815260409020546001600160a01b031681565b3480156104e757600080fd5b506102486104f6366004613da5565b6108b6565b34801561050757600080fd5b50600454610210906001600160a01b031681565b6103e1610529366004613e2d565b610928565b34801561053a57600080fd5b50610248610549366004613da5565b610dcd565b34801561055a57600080fd5b50600754610210906001600160a01b031681565b34801561057a57600080fd5b506101dd610589366004613dfd565b60a36020526000908152604090205481565b3480156105a757600080fd5b506102486105b6366004613da5565b610e3f565b3480156105c757600080fd5b506102486105d6366004613da5565b610eb1565b6105e3610f3e565b6105ec81610f98565b50565b600a54610100900460ff161580801561060f5750600a54600160ff909116105b806106295750303b1580156106295750600a5460ff166001145b6106a05760405162461bcd60e51b815260206004820152602e60248201527f496e697469616c697a61626c653a20636f6e747261637420697320616c72656160448201527f647920696e697469616c697a656400000000000000000000000000000000000060648201526084015b60405180910390fd5b600a805460ff1916600117905580156106c357600a805461ff0019166101001790555b6106cb611014565b6106d3611087565b600187905560028690556106e689610f98565b6106ef886110fa565b6106f8856111b3565b6107018461127e565b61070a83611349565b61071382611414565b801561075957600a805461ff0019169055604051600181527f7f26b83ff96e1f2b6a682f133852f6798a09c465da95921460cefb38474024989060200160405180910390a15b505050505050505050565b61076c610f3e565b565b610776610f3e565b6105ec816110fa565b806001600160a01b0381166107e05760405162461bcd60e51b815260206004820152602160248201527f43435472616e73666572526f757465723a2061646472657373206973207a65726044820152606f60f81b6064820152608401610697565b6107e8610f3e565b6107f182611349565b5050565b60008181526009602052604081206004015460ff16610815576000610818565b60015b90505b919050565b806001600160a01b0381166108815760405162461bcd60e51b815260206004820152602160248201527f43435472616e73666572526f757465723a2061646472657373206973207a65726044820152606f60f81b6064820152608401610697565b610889610f3e565b6107f1826114df565b61089a610f3e565b6107f182826115aa565b6108ac610f3e565b6107f18282611646565b806001600160a01b0381166109175760405162461bcd60e51b815260206004820152602160248201527f43435472616e73666572526f757465723a2061646472657373206973207a65726044820152606f60f81b6064820152608401610697565b61091f610f3e565b6107f18261127e565b60006109326116a7565b6007546001600160a01b0316336001600160a01b0316146109955760405162461bcd60e51b815260206004820181905260248201527f43435472616e73666572526f757465723a20696e76616c69642073656e6465726044820152606401610697565b60005484608001511015610a105760405162461bcd60e51b8152602060048201526024808201527f43435472616e73666572526f757465723a207265717565737420697320746f6f60448201527f206f6c64000000000000000000000000000000000000000000000000000000006064820152608401610697565b6000610a2e8560000151866020015187604001518860600151611701565b60008181526009602052604090206004015490915060ff1615610ab95760405162461bcd60e51b815260206004820152602e60248201527f43435472616e73666572526f757465723a20726571756573742068617320626560448201527f656e2075736564206265666f72650000000000000000000000000000000000006064820152608401610697565b60608501516001600160e01b03191615610b3b5760405162461bcd60e51b815260206004820152602860248201527f43435472616e73666572526f757465723a206c6f636b2074696d65206973206e60448201527f6f6e202d7a65726f0000000000000000000000000000000000000000000000006064820152608401610697565b610b7f84848080601f016020809104026020016040519081016040528093929190818152602001838380828437600092019190915250505050604087015183611866565b610b978186608001518760a001518860c00151611d31565b610c095760405162461bcd60e51b815260206004820152603860248201527f43435472616e73666572526f757465723a207472616e73616374696f6e20686160448201527f73206e6f74206265656e2066696e616c697a65642079657400000000000000006064820152608401610697565b6000806000806000610c5289898080601f0160208091040260200160405190810160405280939291908181526020018383808284376000920191909152508a9250611f07915050565b60008b81526009602052604090819020600101549051959a50939850919650945092506001600160a01b031690610c8c908b908b90614093565b60405180910390207fdebe45dc811f213ee5572218ab9c9e7d78fac393b0ca5c50ea9edbe5c8bcb61788600560009054906101000a90046001600160a01b03166001600160a01b031663c4d10b6a8e8e6040518363ffffffff1660e01b8152600401610cf9929190614353565b60206040518083038186803b158015610d1157600080fd5b505afa158015610d25573d6000803e3d6000fd5b505050506040513d601f19601f82011682018060405250810190610d499190613dc1565b60408051808201825260008d8152600960209081528382205483528083018e905283516080810185528c81528082018b90528085018e9052606081018c90528f835260a390915290839020546001549351610daa9695943394939291614295565b60405180910390a360019650505050505050610dc66001606f55565b9392505050565b806001600160a01b038116610e2e5760405162461bcd60e51b815260206004820152602160248201527f43435472616e73666572526f757465723a2061646472657373206973207a65726044820152606f60f81b6064820152608401610697565b610e36610f3e565b6107f1826111b3565b806001600160a01b038116610ea05760405162461bcd60e51b815260206004820152602160248201527f43435472616e73666572526f757465723a2061646472657373206973207a65726044820152606f60f81b6064820152608401610697565b610ea8610f3e565b6107f182611414565b610eb9610f3e565b6001600160a01b038116610f355760405162461bcd60e51b815260206004820152602660248201527f4f776e61626c653a206e6577206f776e657220697320746865207a65726f206160448201527f64647265737300000000000000000000000000000000000000000000000000006064820152608401610697565b6105ec81611fd0565b603d546001600160a01b0316331461076c5760405162461bcd60e51b815260206004820181905260248201527f4f776e61626c653a2063616c6c6572206973206e6f7420746865206f776e65726044820152606401610697565b600054811161100f5760405162461bcd60e51b815260206004820152602960248201527f43435472616e73666572526f757465723a206c6f77207374617274696e67426c60448201527f6f636b4e756d62657200000000000000000000000000000000000000000000006064820152608401610697565b600055565b600a54610100900460ff1661107f5760405162461bcd60e51b815260206004820152602b60248201527f496e697469616c697a61626c653a20636f6e7472616374206973206e6f74206960448201526a6e697469616c697a696e6760a81b6064820152608401610697565b61076c612022565b600a54610100900460ff166110f25760405162461bcd60e51b815260206004820152602b60248201527f496e697469616c697a61626c653a20636f6e7472616374206973206e6f74206960448201526a6e697469616c697a696e6760a81b6064820152608401610697565b61076c612096565b8061271010156111725760405162461bcd60e51b815260206004820152602e60248201527f43435472616e73666572526f757465723a2070726f746f636f6c20666565206960448201527f73206f7574206f662072616e67650000000000000000000000000000000000006064820152608401610697565b60035460408051918252602082018390527f7d205f60891f60851c61cd244ba387d72b6589e7c0ac41b9d909ab0ce2c2a53b910160405180910390a1600355565b806001600160a01b0381166112145760405162461bcd60e51b815260206004820152602160248201527f43435472616e73666572526f757465723a2061646472657373206973207a65726044820152606f60f81b6064820152608401610697565b600454604080516001600160a01b03928316815291841660208301527f4c28a3f61a715259c4dc930c23e7423b8fa52e13232c061a6e488729c66184f4910160405180910390a150600480546001600160a01b0319166001600160a01b0392909216919091179055565b806001600160a01b0381166112df5760405162461bcd60e51b815260206004820152602160248201527f43435472616e73666572526f757465723a2061646472657373206973207a65726044820152606f60f81b6064820152608401610697565b600554604080516001600160a01b03928316815291841660208301527ffa021c2ec0f46429a53e7f88b88065e40001f50c9d38b2e8b713beaf9828d4c3910160405180910390a150600580546001600160a01b0319166001600160a01b0392909216919091179055565b806001600160a01b0381166113aa5760405162461bcd60e51b815260206004820152602160248201527f43435472616e73666572526f757465723a2061646472657373206973207a65726044820152606f60f81b6064820152608401610697565b600654604080516001600160a01b03928316815291841660208301527f36a4c08a38b736dcecb6c328dba61238529620e83ccb23db2cc43cd34ec26096910160405180910390a150600680546001600160a01b0319166001600160a01b0392909216919091179055565b806001600160a01b0381166114755760405162461bcd60e51b815260206004820152602160248201527f43435472616e73666572526f757465723a2061646472657373206973207a65726044820152606f60f81b6064820152608401610697565b600854604080516001600160a01b03928316815291841660208301527f567657fa3f286518b318f4a29870674f433f622fdfc819691acb13105b228225910160405180910390a150600880546001600160a01b0319166001600160a01b0392909216919091179055565b806001600160a01b0381166115405760405162461bcd60e51b815260206004820152602160248201527f43435472616e73666572526f757465723a2061646472657373206973207a65726044820152606f60f81b6064820152608401610697565b600754604080516001600160a01b03928316815291841660208301527f12ad124e13af4c31364ad22aa74320e167b37f005dafb75d71a210c49da3629e910160405180910390a150600780546001600160a01b0319166001600160a01b0392909216919091179055565b600082815260a26020526040908190205490517f1e73962bcff5b98a9ac70c9b0f71fbb31dc0f5a09348c6d3ceab164169a9e729916116109185916001600160a01b03169085909283526001600160a01b03918216602084015216604082015260600190565b60405180910390a1600091825260a2602052604090912080546001600160a01b0319166001600160a01b03909216919091179055565b600082815260a16020908152604091829020548251858152918201529081018290527f188adabf806a6b6d814acc1dbd9f09e5a251c8c065d6285749a5824e4579b6459060600160405180910390a1600091825260a1602052604090912055565b6002606f5414156116fa5760405162461bcd60e51b815260206004820152601f60248201527f5265656e7472616e637947756172643a207265656e7472616e742063616c6c006044820152606401610697565b6002606f55565b600080611718611713825b8790612101565b612127565b905062ffffff1980821614156117705760405162461bcd60e51b815260206004820152601a60248201527f426974636f696e48656c7065723a2076696e206973206e756c6c0000000000006044820152606401610697565b600060028787878760405160200161178b949392919061403f565b60408051601f19818403018152908290526117a5916140a3565b602060405180830381855afa1580156117c2573d6000803e3d6000fd5b5050506040513d601f19601f820116820180604052508101906117e59190613e15565b905060006002826040516020016117fe91815260200190565b60408051601f1981840301815290829052611818916140a3565b602060405180830381855afa158015611835573d6000803e3d6000fd5b5050506040513d601f19601f820116820180604052508101906118589190613e15565b93505050505b949350505050565b6005546040517faff2faa30000000000000000000000000000000000000000000000000000000081526001600160a01b039091169063aff2faa3906118af908690600401614382565b60206040518083038186803b1580156118c757600080fd5b505afa1580156118db573d6000803e3d6000fd5b505050506040513d601f19601f820116820180604052508101906118ff9190613ddd565b611973576040805162461bcd60e51b81526020600482015260248101919091527f43435472616e73666572526f757465723a206e6f206c6f636b6572207769746860448201527f2074686520676976656e206c6f636b696e6720736372697074206578697374736064820152608401610697565b6119b06040518060a001604052806000815260200160006001600160a01b0316815260200160008152602001600081526020016000151581525090565b60606119bc8486612270565b67ffffffffffffffff90911683528051909150601c14611a1e5760405162461bcd60e51b815260206004820152601d60248201527f43435472616e73666572526f757465723a20696e76616c6964206c656e0000006044820152606401610697565b8151611a925760405162461bcd60e51b815260206004820152602660248201527f43435472616e73666572526f757465723a20696e70757420616d6f756e74206960448201527f73207a65726f00000000000000000000000000000000000000000000000000006064820152608401610697565b600154611a9e826123e8565b61ffff1614611b155760405162461bcd60e51b815260206004820152602960248201527f43435472616e73666572526f757465723a20636861696e206964206973206e6f60448201527f7420636f727265637400000000000000000000000000000000000000000000006064820152608401610697565b600254611b2182612403565b60ff1614611b975760405162461bcd60e51b815260206004820152602760248201527f43435472616e73666572526f757465723a20617070206964206973206e6f742060448201527f636f7272656374000000000000000000000000000000000000000000000000006064820152608401610697565b6000611ba28261241d565b62ffffff1690508260000151811115611bfd5760405162461bcd60e51b815260206004820152601c60248201527f45786368616e6765526f757465724c69623a2077726f6e6720666565000000006044820152606401610697565b60408301819052611c0d82612438565b6001600160a01b03166020840152611c2482612453565b60ff166060840181905215611ca15760405162461bcd60e51b815260206004820152602760248201527f43435472616e73666572526f757465723a207370656564206973206f7574206f60448201527f662072616e6765000000000000000000000000000000000000000000000000006064820152608401610697565b611caa82612462565b600085815260a36020908152604080832060ff949094169093556001608087018181529783526009825291839020865181559086015191810180546001600160a01b0319166001600160a01b03909316929092179091559084015160028201556060909301516003840155505090516004909101805460ff19169115159190911790555050565b600480546040517fd0a897390000000000000000000000000000000000000000000000000000000081529182018590526000602483018190529182916001600160a01b03169063d0a897399060440160206040518083038186803b158015611d9857600080fd5b505afa158015611dac573d6000803e3d6000fd5b505050506040513d601f19601f82011682018060405250810190611dd09190613e15565b905080341015611e485760405162461bcd60e51b815260206004820152602c60248201527f43435472616e73666572526f757465723a207061696420666565206973206e6f60448201527f742073756666696369656e7400000000000000000000000000000000000000006064820152608401610697565b600454604051600091611ed3916001600160a01b0390911690611e75908a908a908a908a90602401614323565b60408051601f198184030181529190526020810180517bffffffffffffffffffffffffffffffffffffffffffffffffffffffff167f4354da250000000000000000000000000000000000000000000000000000000017905284612471565b9050611ee833611ee384346144e7565b612497565b80806020019051810190611efc9190613ddd565b979650505050505050565b6000806000806000611f1987876125b5565b60065460008c8152600960205260409081902060010154905163a9059cbb60e01b81526001600160a01b03918216600482015260248101889052969b509499509297509095509350169063a9059cbb90604401602060405180830381600087803b158015611f8657600080fd5b505af1158015611f9a573d6000803e3d6000fd5b505050506040513d601f19601f82011682018060405250810190611fbe9190613ddd565b509295509295909350565b6001606f55565b603d80546001600160a01b038381166001600160a01b0319831681179093556040519116919082907f8be0079c531659141344cd1fd0a4f28419497f9722a3daafe3b4186f6b6457e090600090a35050565b600a54610100900460ff1661208d5760405162461bcd60e51b815260206004820152602b60248201527f496e697469616c697a61626c653a20636f6e7472616374206973206e6f74206960448201526a6e697469616c697a696e6760a81b6064820152608401610697565b61076c33611fd0565b600a54610100900460ff16611fc95760405162461bcd60e51b815260206004820152602b60248201527f496e697469616c697a61626c653a20636f6e7472616374206973206e6f74206960448201526a6e697469616c697a696e6760a81b6064820152608401610697565b81516000906020840161211c64ffffffffff8516828461290a565b925050505b92915050565b6000818161213d815b62ffffff19841690612951565b50601884901c6001600160601b031661215d5762ffffff195b9250612269565b600061216a856000612a53565b9050601885901c6001600160601b031667ffffffffffffffff82166121985762ffffff195b94505050612269565b60006121a383612b9c565b60ff16905060005b8367ffffffffffffffff16811015612220578282106121d55762ffffff195b965050505050612269565b60006121f56121e484866144e7565b60055b62ffffff198c169190612bf8565b905061220081612c2c565b61220a90846143f4565b92505080806122189061457a565b9150506121ab565b508181146122385762ffffff195b9550505050612269565b61226360065b60d81b7affffffffffffffffffffffffffffffffffffffffffffffff00000089161790565b95505050505b5050919050565b60006060816122866122818261170c565b612c81565b905062ffffff1980821614156122de5760405162461bcd60e51b815260206004820152601b60248201527f426974636f696e48656c7065723a20766f7574206973206e756c6c00000000006044820152606401610697565b60008060008060006122f1866000612a53565b67ffffffffffffffff16905060005b818110156123da576123128782612d74565b955061231d86612e98565b945061232886612eed565b935061233384612f38565b925062ffffff1980841614156123b6578960405160200161235491906140a3565b604051602081830303815290604052805190602001206123798662ffffff1916613060565b60405160200161238991906140a3565b6040516020818303038152906040528051906020012014156123b1576123ae866130b0565b98505b6123c8565b6123c562ffffff198416613060565b97505b806123d28161457a565b915050612300565b505050505050509250929050565b6000806123f883600060016130d5565b600201519392505050565b600080612412836002806130d5565b600101519392505050565b60008061242d83601760196130d5565b600301519392505050565b60008061244883600360166130d5565b601401519392505050565b60008061241283601a806130d5565b60008061241283601b806130d5565b606061185e8484846040518060600160405280602981526020016145d76029913961315a565b804710156124e75760405162461bcd60e51b815260206004820152601d60248201527f416464726573733a20696e73756666696369656e742062616c616e63650000006044820152606401610697565b6000826001600160a01b03168260405160006040518083038185875af1925050503d8060008114612534576040519150601f19603f3d011682016040523d82523d6000602084013e612539565b606091505b50509050806125b05760405162461bcd60e51b815260206004820152603a60248201527f416464726573733a20756e61626c6520746f2073656e642076616c75652c207260448201527f6563697069656e74206d617920686176652072657665727465640000000000006064820152608401610697565b505050565b6005546000828152600960205260408082205490517f1fcfe19c0000000000000000000000000000000000000000000000000000000081529192839283928392839283926001600160a01b0390921691631fcfe19c9161261c918c91309190600401614395565b602060405180830381600087803b15801561263657600080fd5b505af115801561264a573d6000803e3d6000fd5b505050506040513d601f19601f8201168201806040525081019061266e9190613e15565b60035460008981526009602052604090205491925061271091612691919061449f565b61269b919061447f565b6000888152600960208181526040808420600281015460a3845282862054865260a1845291852054948d90529290915290549297509550612710916126e0919061449f565b6126ea919061447f565b6000888152600960205260409020549093506127079082906144e7565b915083156127a3576006546001600160a01b031663a9059cbb336040516001600160e01b031960e084901b1681526001600160a01b03909116600482015260248101879052604401602060405180830381600087803b15801561276957600080fd5b505af115801561277d573d6000803e3d6000fd5b505050506040513d601f19601f820116820180604052508101906127a19190613ddd565b505b84156128335760065460085460405163a9059cbb60e01b81526001600160a01b0391821660048201526024810188905291169063a9059cbb90604401602060405180830381600087803b1580156127f957600080fd5b505af115801561280d573d6000803e3d6000fd5b505050506040513d601f19601f820116820180604052508101906128319190613ddd565b505b82156128dd57600654600088815260a36020908152604080832054835260a29091529081902054905163a9059cbb60e01b81526001600160a01b0391821660048201526024810186905291169063a9059cbb90604401602060405180830381600087803b1580156128a357600080fd5b505af11580156128b7573d6000803e3d6000fd5b505050506040513d601f19601f820116820180604052508101906128db9190613ddd565b505b82846128e987846144e7565b6128f391906144e7565b6128fd91906144e7565b9550509295509295909350565b60008061291783856143f4565b9050604051811115612927575060005b806129395762ffffff19915050610dc6565b606085811b8517901b831760181b5b95945050505050565b600061295d838361328e565b612a4c57600061297c6129708560d81c90565b64ffffffffff166132b1565b91505060006129918464ffffffffff166132b1565b6040517f5479706520617373657274696f6e206661696c65642e20476f7420307800000060208201527fffffffffffffffffffff0000000000000000000000000000000000000000000060b086811b8216603d8401527f2e20457870656374656420307800000000000000000000000000000000000000604784015283901b16605482015290925060009150605e015b60405160208183030381529060405290508060405162461bcd60e51b81526004016106979190614382565b5090919050565b600080612a6862ffffff19851684600161335d565b905060fc8111612a8357612a7b8161338d565b915050612121565b8060fd1415612ae957612ab1612aac612a9d8560016143f4565b62ffffff198716906002613411565b61338d565b9150612abc82612b9c565b60ff16600314612ae457612ae2612add62ffffff1986168560036000613562565b6135d2565b505b612b95565b8060fe1415612b3e57612b12612aac612b038560016143f4565b62ffffff198716906004613411565b9150612b1d82612b9c565b60ff16600514612ae457612ae2612add62ffffff1986168560056000613562565b8060ff1415612b9557612b67612aac612b588560016143f4565b62ffffff198716906008613411565b9150612b7282612b9c565b60ff16600914612b9557612b93612add62ffffff1986168560096000613562565b505b5092915050565b600060fc8267ffffffffffffffff1611612bb85750600161081b565b61ffff8267ffffffffffffffff1611612bd35750600361081b565b63ffffffff8267ffffffffffffffff1611612bf05750600561081b565b50600961081b565b600061185e8484612c128760181c6001600160601b031690565b6001600160601b0316612c2591906144e7565b8585613562565b6000816005612c3a81612130565b506000612c48856024612a53565b90508067ffffffffffffffff16612c5e82612b9c565b60ff16612c6b91906143f4565b612c769060246143f4565b6129489060046143f4565b60008181612c8e81612130565b50601884901c6001600160601b0316612cab5762ffffff19612156565b6000612cb8856000612a53565b9050601885901c6001600160601b031667ffffffffffffffff8216612ce15762ffffff1961218f565b6000612cec83612b9c565b60ff16905060005b8367ffffffffffffffff16811015612d5857828210612d175762ffffff196121ca565b6000612d2d612d2684866144e7565b600e6121e7565b9050612d3881613659565b612d4290846143f4565b9250508080612d509061457a565b915050612cf4565b50818114612d6a5762ffffff1961222e565b612263600f61223e565b600082600f612d8281612130565b506000612d90866000612a53565b67ffffffffffffffff169050601886901c6001600160601b0316818610612df95760405162461bcd60e51b815260206004820152601160248201527f566f75742072656164206f76657272756e0000000000000000000000000000006044820152606401610697565b6000612e0483612b9c565b60ff1690506000805b88811015612e5a57612e31612e2284866144e7565b62ffffff198c1690600e612bf8565b9150612e3c82613659565b612e4690846143f4565b9250612e536001826143f4565b9050612e0d565b50612e68612d2683856144e7565b90506000612e7582613659565b9050612e8a62ffffff198b168483600d613562565b9a9950505050505050505050565b600081600d612ea681612130565b506000612eb4856008612a53565b9050612948612ec282612b9c565b612ecd906008614438565b60ff1667ffffffffffffffff831660075b62ffffff198916929190613562565b600081600d612efb81612130565b506000612f09856008612a53565b9050612948600882612f1a84612b9c565b60ff16612f27919061440c565b67ffffffffffffffff166007612ede565b6000816007612f4681612130565b506000612f54856000612a53565b90506000612f6e612aac62ffffff1988166002600161335d565b9050612f8262ffffff19871660018061335d565b606a141580612fb75750612f976002836144fe565b67ffffffffffffffff16612fb462ffffff1988166002600161335d565b14155b15612fc65762ffffff1961218f565b604d8267ffffffffffffffff1611158015612fec575060048267ffffffffffffffff1610155b6130385760405162461bcd60e51b815260206004820152601f60248201527f426974636f696e48656c7065723a20696e76616c6964206f7072657475726e006044820152606401610697565b61305662ffffff198716600367ffffffffffffffff8416600c613562565b9695505050505050565b60606000806130788460181c6001600160601b031690565b60405193508392506001600160601b0316905061309f8461309a8460206143f4565b6136a3565b508181016020016040529052919050565b600081600d6130be81612130565b5061185e612aac62ffffff19861660006008613411565b60606000835b6130e68460016143f4565b8110156131515785818151811061310d57634e487b7160e01b600052603260045260246000fd5b602001015160f81c60f81b9150828260405160200161312d9291906140bf565b604051602081830303815290604052925080806131499061457a565b9150506130db565b50509392505050565b6060824710156131d25760405162461bcd60e51b815260206004820152602660248201527f416464726573733a20696e73756666696369656e742062616c616e636520666f60448201527f722063616c6c00000000000000000000000000000000000000000000000000006064820152608401610697565b843b6132205760405162461bcd60e51b815260206004820152601d60248201527f416464726573733a2063616c6c20746f206e6f6e2d636f6e74726163740000006044820152606401610697565b600080866001600160a01b0316858760405161323c91906140a3565b60006040518083038185875af1925050503d8060008114613279576040519150601f19603f3d011682016040523d82523d6000602084013e61327e565b606091505b5091509150611efc82828661382b565b60008164ffffffffff166132a28460d81c90565b64ffffffffff16149392505050565b600080601f5b600f8160ff16111561330f5760006132d08260086144be565b60ff1685901c90506132e181613864565b61ffff16841793508160ff166010146132fc57601084901b93505b50613308600182614527565b90506132b7565b50600f5b60ff8160ff1610156133575760ff600882021684901c61333281613864565b61ffff16831792508160ff1660001461334d57601083901b92505b5060001901613313565b50915091565b600061336a826020614527565b6133759060086144be565b60ff16613383858585613894565b901c949350505050565b600067ffffffffffffffff82111561340d5760405162461bcd60e51b815260206004820152602660248201527f53616665436173743a2076616c756520646f65736e27742066697420696e203660448201527f34206269747300000000000000000000000000000000000000000000000000006064820152608401610697565b5090565b600061185e613421858585613894565b600881811c7eff00ff00ff00ff00ff00ff00ff00ff00ff00ff00ff00ff00ff00ff00ff00ff167fff00ff00ff00ff00ff00ff00ff00ff00ff00ff00ff00ff00ff00ff00ff00ff009290911b9190911617601081811c7dffff0000ffff0000ffff0000ffff0000ffff0000ffff0000ffff0000ffff167fffff0000ffff0000ffff0000ffff0000ffff0000ffff0000ffff0000ffff00009290911b9190911617602081811c7bffffffff00000000ffffffff00000000ffffffff00000000ffffffff167fffffffff00000000ffffffff00000000ffffffff00000000ffffffff000000009290911b9190911617604081811c77ffffffffffffffff0000000000000000ffffffffffffffff167fffffffffffffffff0000000000000000ffffffffffffffff00000000000000009290911b9190911617608081811c91901b1790565b6000806135788660781c6001600160601b031690565b6001600160601b0316905061358c86613a09565b8461359787846143f4565b6135a191906143f4565b11156135b45762ffffff1991505061185e565b6135be85826143f4565b90506130568364ffffffffff16828661290a565b60606000613606613601826135f3601887901c6001600160601b0316613a4a565b62ffffff198716919061335d565b6132b1565b6040517f4e6f6e2d6d696e696d616c2076617220696e742e20476f74203078000000000060208201526dffffffffffffffffffffffffffff19607083901b16603b82015290925060009150604d01612a21565b600081600e61366781612130565b506000613675856008612a53565b90508067ffffffffffffffff1661368b82612b9c565b60ff1661369891906143f4565b6129489060086143f4565b600062ffffff1980841614156137215760405162461bcd60e51b815260206004820152602860248201527f54797065644d656d566965772f636f7079546f202d204e756c6c20706f696e7460448201527f65722064657265660000000000000000000000000000000000000000000000006064820152608401610697565b61372a83613ac3565b61379c5760405162461bcd60e51b815260206004820152602b60248201527f54797065644d656d566965772f636f7079546f202d20496e76616c696420706f60448201527f696e7465722064657265660000000000000000000000000000000000000000006064820152608401610697565b60006137b18460181c6001600160601b031690565b6001600160601b0316905060006137d18560781c6001600160601b031690565b6001600160601b0316905060006040519050848111156137f15760206060fd5b8285848460045afa506130566138078760d81c90565b70ffffffffff000000000000000000000000606091821b168717901b841760181b90565b6060831561383a575081610dc6565b82511561384a5782518084602001fd5b8160405162461bcd60e51b81526004016106979190614382565b600061387660048360ff16901c613b01565b60ff161760081b62ffff001661388b82613b01565b60ff1617919050565b600060ff82166138a657506000610dc6565b6138b98460181c6001600160601b031690565b6001600160601b03166138cf60ff8416856143f4565b11156139335761391a6138eb8560781c6001600160601b031690565b6001600160601b03166139078660181c6001600160601b031690565b6001600160601b0316858560ff16613c6d565b60405162461bcd60e51b81526004016106979190614382565b60208260ff1611156139ad5760405162461bcd60e51b815260206004820152603a60248201527f54797065644d656d566965772f696e646578202d20417474656d70746564207460448201527f6f20696e646578206d6f7265207468616e2033322062797465730000000000006064820152608401610697565b6008820260006139c68660781c6001600160601b031690565b6001600160601b0316905060007f800000000000000000000000000000000000000000000000000000000000000060001984011d91909501511695945050505050565b6000613a1e8260181c6001600160601b031690565b613a318360781c6001600160601b031690565b613a3b919061445d565b6001600160601b031692915050565b600060ff82111561340d5760405162461bcd60e51b815260206004820152602560248201527f53616665436173743a2076616c756520646f65736e27742066697420696e203860448201527f20626974730000000000000000000000000000000000000000000000000000006064820152608401610697565b6000613acf8260d81c90565b64ffffffffff1664ffffffffff1415613aea5750600061081b565b6000613af583613a09565b60405110199392505050565b600060f08083179060ff82161415613b1d57603091505061081b565b8060ff1660f11415613b3357603191505061081b565b8060ff1660f21415613b4957603291505061081b565b8060ff1660f31415613b5f57603391505061081b565b8060ff1660f41415613b7557603491505061081b565b8060ff1660f51415613b8b57603591505061081b565b8060ff1660f61415613ba157603691505061081b565b8060ff1660f71415613bb757603791505061081b565b8060ff1660f81415613bcd57603891505061081b565b8060ff1660f91415613be357603991505061081b565b8060ff1660fa1415613bf957606191505061081b565b8060ff1660fb1415613c0f57606291505061081b565b8060ff1660fc1415613c2557606391505061081b565b8060ff1660fd1415613c3b57606491505061081b565b8060ff1660fe1415613c5157606591505061081b565b8060ff1660ff1415613c6757606691505061081b565b50919050565b60606000613c7a866132b1565b9150506000613c88866132b1565b9150506000613c96866132b1565b9150506000613ca4866132b1565b91505083838383604051602001613cbe9493929190614106565b604051602081830303815290604052945050505050949350505050565b80356001600160e01b03198116811461081b57600080fd5b60008083601f840112613d04578182fd5b50813567ffffffffffffffff811115613d1b578182fd5b602083019150836020828501011115613d3357600080fd5b9250929050565b600082601f830112613d4a578081fd5b813567ffffffffffffffff811115613d6457613d646145ab565b613d77601f8201601f19166020016143c3565b818152846020838601011115613d8b578283fd5b816020850160208301379081016020019190915292915050565b600060208284031215613db6578081fd5b8135610dc6816145c1565b600060208284031215613dd2578081fd5b8151610dc6816145c1565b600060208284031215613dee578081fd5b81518015158114610dc6578182fd5b600060208284031215613e0e578081fd5b5035919050565b600060208284031215613e26578081fd5b5051919050565b600080600060408486031215613e41578182fd5b833567ffffffffffffffff80821115613e58578384fd5b9085019060e08288031215613e6b578384fd5b613e7560e06143c3565b613e7e83613cdb565b8152602083013582811115613e91578586fd5b613e9d89828601613d3a565b602083015250604083013582811115613eb4578586fd5b613ec089828601613d3a565b604083015250613ed260608401613cdb565b60608201526080830135608082015260a083013582811115613ef2578586fd5b613efe89828601613d3a565b60a08301525060c083013560c0820152809550506020860135915080821115613f25578384fd5b50613f3286828701613cf3565b9497909650939450505050565b60008060408385031215613f51578182fd5b823591506020830135613f63816145c1565b809150509250929050565b60008060408385031215613f80578182fd5b50508035926020909101359150565b600080600080600080600080610100898b031215613fab578384fd5b883597506020890135965060408901359550606089013594506080890135613fd2816145c1565b935060a0890135613fe2816145c1565b925060c0890135613ff2816145c1565b915060e0890135614002816145c1565b809150509295985092959890939650565b6000815180845261402b81602086016020860161454a565b601f01601f19169290920160200192915050565b60006001600160e01b031980871683528551614062816004860160208a0161454a565b855190840190614079816004840160208a0161454a565b919094169301600481019390935250506008019392505050565b6000828483379101908152919050565b600082516140b581846020870161454a565b9190910192915050565b600083516140d181846020880161454a565b7fff00000000000000000000000000000000000000000000000000000000000000939093169190920190815260010192915050565b60007f54797065644d656d566965772f696e646578202d204f76657272616e2074686582527f20766965772e20536c696365206973206174203078000000000000000000000060208301527fffffffffffff0000000000000000000000000000000000000000000000000000808760d01b1660358401527f2077697468206c656e677468203078000000000000000000000000000000000080603b850152818760d01b16604a8501527f2e20417474656d7074656420746f20696e646578206174206f6666736574203060508501527f7800000000000000000000000000000000000000000000000000000000000000607085015261422c607185018760d01b7fffffffffffff0000000000000000000000000000000000000000000000000000169052565b607784015250614263608683018460d01b7fffffffffffff0000000000000000000000000000000000000000000000000000169052565b507f2e00000000000000000000000000000000000000000000000000000000000000608c820152608d01949350505050565b60006101608201905088825260206001600160a01b03808a1682850152808916604085015250606083018760005b60028110156142e0578151835291830191908301906001016142c3565b50505060a083018660005b6004811015614308578151835291830191908301906001016142eb565b50505050610120820193909352610140015295945050505050565b6000858252846020830152608060408301526143426080830185614013565b905082606083015295945050505050565b60006020825282602083015282846040840137818301604090810191909152601f909201601f19160101919050565b600060208252610dc66020830184614013565b6000606082526143a86060830186614013565b6001600160a01b039490941660208301525060400152919050565b604051601f8201601f1916810167ffffffffffffffff811182821017156143ec576143ec6145ab565b604052919050565b6000821982111561440757614407614595565b500190565b600067ffffffffffffffff80831681851680830382111561442f5761442f614595565b01949350505050565b600060ff821660ff84168060ff0382111561445557614455614595565b019392505050565b60006001600160601b0380831681851680830382111561442f5761442f614595565b60008261449a57634e487b7160e01b81526012600452602481fd5b500490565b60008160001904831182151516156144b9576144b9614595565b500290565b600060ff821660ff84168160ff04811182151516156144df576144df614595565b029392505050565b6000828210156144f9576144f9614595565b500390565b600067ffffffffffffffff8381169083168181101561451f5761451f614595565b039392505050565b600060ff821660ff84168082101561454157614541614595565b90039392505050565b60005b8381101561456557818101518382015260200161454d565b83811115614574576000848401525b50505050565b600060001982141561458e5761458e614595565b5060010190565b634e487b7160e01b600052601160045260246000fd5b634e487b7160e01b600052604160045260246000fd5b6001600160a01b03811681146105ec57600080fdfe416464726573733a206c6f772d6c6576656c2063616c6c20776974682076616c7565206661696c6564a2646970667358221220e02a744de04cc0905b0c88c2041de570a91d90cbd076cc47c279691708e777ac64736f6c63430008020033",
  "devdoc": {
    "kind": "dev",
    "methods": {
      "initialize(uint256,uint256,uint256,uint256,address,address,address,address)": {
        "params": {
          "_appId": "Id of ccTransfer dApp",
          "_chainId": "Id of the underlying chain",
          "_lockers": "Lockers' contract address",
          "_protocolPercentageFee": "Percentage amount of protocol fee (min: %0.01)",
          "_relay": "The Relay address to validate data from source chain",
          "_startingBlockNumber": "Requests that are included in a block older than _startingBlockNumber cannot be executed",
          "_teleBTC": "TeleportDAO BTC ERC20 token address",
          "_treasury": "Address of treasury that collects protocol fees"
        }
      },
      "isRequestUsed(bytes32)": {
        "details": "This is to avoid re-submitting a used request",
        "params": {
          "_txId": "The txId of request on the source chain"
        },
        "returns": {
          "_0": "True if the request has been executed"
        }
      },
      "owner()": {
        "details": "Returns the address of the current owner."
      },
      "renounceOwnership()": {
        "details": "Leaves the contract without owner. It will not be possible to call `onlyOwner` functions anymore. Can only be called by the current owner. NOTE: Renouncing ownership will leave the contract without an owner, thereby removing any functionality that is only available to the owner."
      },
      "setInstantRouter(address)": {
        "details": "Only owner can call this",
        "params": {
          "_instantRouter": "Address of the instant router contract"
        }
      },
      "setLockers(address)": {
        "details": "Only owner can call this",
        "params": {
          "_lockers": "Address of the lockers contract"
        }
      },
      "setProtocolPercentageFee(uint256)": {
        "details": "Only owner can call this",
        "params": {
          "_protocolPercentageFee": "Percentage amount of protocol fee"
        }
      },
      "setRelay(address)": {
        "details": "Only owner can call this",
        "params": {
          "_relay": "Address of the relay contract"
        }
      },
      "setTeleBTC(address)": {
        "details": "Only owner can call this",
        "params": {
          "_teleBTC": "TeleportDAO BTC ERC20 token address"
        }
      },
      "setThirdPartyAddress(uint256,address)": {
        "details": "Only owner can call this",
        "params": {
          "_thirdPartyAddress": "third party address"
        }
      },
      "setThirdPartyFee(uint256,uint256)": {
        "details": "Only owner can call this",
        "params": {
          "_thirdPartyFee": "third party fee"
        }
      },
      "setTreasury(address)": {
        "details": "Only owner can call this",
        "params": {
          "_treasury": "Treasury address"
        }
      },
      "transferOwnership(address)": {
        "details": "Transfers ownership of the contract to a new account (`newOwner`). Can only be called by the current owner."
      },
      "wrap((bytes4,bytes,bytes,bytes4,uint256,bytes,uint256),bytes)": {
        "details": "Validates the transfer request, then,                                     if speed is 1, the request is instant                                     which pays back the loan,                                     if the speed is 0, it is a normal transfer",
        "params": {
          "_lockerLockingScript": "Locking script of locker that user has sent BTC to it",
          "_txAndProof": "Transaction and merkle proof data"
        },
        "returns": {
          "_0": "True if the transfer is successful"
        }
      }
    },
    "version": 1
  },
  "userdoc": {
    "events": {
      "NewInstantRouter(address,address)": {
        "notice": "Emits when changes made to InstantRouter address"
      },
      "NewLockers(address,address)": {
        "notice": "Emits when changes made to Lockers address"
      },
      "NewProtocolPercentageFee(uint256,uint256)": {
        "notice": "Emits when changes made to protocol percentage fee"
      },
      "NewRelay(address,address)": {
        "notice": "Emits when changes made to relay address"
      },
      "NewTeleBTC(address,address)": {
        "notice": "Emits when changes made to TeleBTC address"
      },
      "NewThirdPartyAddress(uint256,address,address)": {
        "notice": "Emits when changes made to third party address"
      },
      "NewThirdPartyFee(uint256,uint256,uint256)": {
        "notice": "Emits when changes made to third party fee"
      },
      "NewTreasury(address,address)": {
        "notice": "Emits when changes made to Treasury address"
      },
      "NewWrap(bytes32,bytes,address,address,address,uint256[2],uint256[4],uint256,uint256)": {
        "notice": "Emits when a cc transfer request gets done"
      }
    },
    "kind": "user",
    "methods": {
      "initialize(uint256,uint256,uint256,uint256,address,address,address,address)": {
        "notice": "Gives default params to initiate cc transfer router"
      },
      "isRequestUsed(bytes32)": {
        "notice": "Check if the request has been executed before"
      },
      "setInstantRouter(address)": {
        "notice": "Setter for instant router"
      },
      "setLockers(address)": {
        "notice": "Setter for lockers"
      },
      "setProtocolPercentageFee(uint256)": {
        "notice": "Setter for protocol percentage fee"
      },
      "setRelay(address)": {
        "notice": "Setter for relay"
      },
      "setStartingBlockNumber(uint256)": {
        "notice": "Setter for starting block number"
      },
      "setTeleBTC(address)": {
        "notice": "Setter for teleBTC"
      },
      "setThirdPartyAddress(uint256,address)": {
        "notice": "Setter for third party address"
      },
      "setThirdPartyFee(uint256,uint256)": {
        "notice": "Setter for third party fee"
      },
      "setTreasury(address)": {
        "notice": "Setter for treasury"
      },
      "wrap((bytes4,bytes,bytes,bytes4,uint256,bytes,uint256),bytes)": {
        "notice": "Executes the cross chain transfer request"
      }
    },
    "version": 1
  },
  "storageLayout": {
    "storage": [
      {
        "astId": 18110,
        "contract": "contracts/routers/CcTransferRouterLogic.sol:CcTransferRouterLogic",
        "label": "startingBlockNumber",
        "offset": 0,
        "slot": "0",
        "type": "t_uint256"
      },
      {
        "astId": 18113,
        "contract": "contracts/routers/CcTransferRouterLogic.sol:CcTransferRouterLogic",
        "label": "chainId",
        "offset": 0,
        "slot": "1",
        "type": "t_uint256"
      },
      {
        "astId": 18116,
        "contract": "contracts/routers/CcTransferRouterLogic.sol:CcTransferRouterLogic",
        "label": "appId",
        "offset": 0,
        "slot": "2",
        "type": "t_uint256"
      },
      {
        "astId": 18119,
        "contract": "contracts/routers/CcTransferRouterLogic.sol:CcTransferRouterLogic",
        "label": "protocolPercentageFee",
        "offset": 0,
        "slot": "3",
        "type": "t_uint256"
      },
      {
        "astId": 18122,
        "contract": "contracts/routers/CcTransferRouterLogic.sol:CcTransferRouterLogic",
        "label": "relay",
        "offset": 0,
        "slot": "4",
        "type": "t_address"
      },
      {
        "astId": 18125,
        "contract": "contracts/routers/CcTransferRouterLogic.sol:CcTransferRouterLogic",
        "label": "lockers",
        "offset": 0,
        "slot": "5",
        "type": "t_address"
      },
      {
        "astId": 18128,
        "contract": "contracts/routers/CcTransferRouterLogic.sol:CcTransferRouterLogic",
        "label": "teleBTC",
        "offset": 0,
        "slot": "6",
        "type": "t_address"
      },
      {
        "astId": 18131,
        "contract": "contracts/routers/CcTransferRouterLogic.sol:CcTransferRouterLogic",
        "label": "instantRouter",
        "offset": 0,
        "slot": "7",
        "type": "t_address"
      },
      {
        "astId": 18134,
        "contract": "contracts/routers/CcTransferRouterLogic.sol:CcTransferRouterLogic",
        "label": "treasury",
        "offset": 0,
        "slot": "8",
        "type": "t_address"
      },
      {
        "astId": 18139,
        "contract": "contracts/routers/CcTransferRouterLogic.sol:CcTransferRouterLogic",
        "label": "ccTransferRequests",
        "offset": 0,
        "slot": "9",
        "type": "t_mapping(t_bytes32,t_struct(ccTransferRequest)20653_storage)"
      },
      {
        "astId": 396,
        "contract": "contracts/routers/CcTransferRouterLogic.sol:CcTransferRouterLogic",
        "label": "_initialized",
        "offset": 0,
        "slot": "10",
        "type": "t_uint8"
      },
      {
        "astId": 399,
        "contract": "contracts/routers/CcTransferRouterLogic.sol:CcTransferRouterLogic",
        "label": "_initializing",
        "offset": 1,
        "slot": "10",
        "type": "t_bool"
      },
      {
        "astId": 1161,
        "contract": "contracts/routers/CcTransferRouterLogic.sol:CcTransferRouterLogic",
        "label": "__gap",
        "offset": 0,
        "slot": "11",
        "type": "t_array(t_uint256)50_storage"
      },
      {
        "astId": 268,
        "contract": "contracts/routers/CcTransferRouterLogic.sol:CcTransferRouterLogic",
        "label": "_owner",
        "offset": 0,
        "slot": "61",
        "type": "t_address"
      },
      {
        "astId": 388,
        "contract": "contracts/routers/CcTransferRouterLogic.sol:CcTransferRouterLogic",
        "label": "__gap",
        "offset": 0,
        "slot": "62",
        "type": "t_array(t_uint256)49_storage"
      },
      {
        "astId": 699,
        "contract": "contracts/routers/CcTransferRouterLogic.sol:CcTransferRouterLogic",
        "label": "_status",
        "offset": 0,
        "slot": "111",
        "type": "t_uint256"
      },
      {
        "astId": 757,
        "contract": "contracts/routers/CcTransferRouterLogic.sol:CcTransferRouterLogic",
        "label": "__gap",
        "offset": 0,
        "slot": "112",
        "type": "t_array(t_uint256)49_storage"
      },
      {
        "astId": 18147,
        "contract": "contracts/routers/CcTransferRouterLogic.sol:CcTransferRouterLogic",
        "label": "thirdPartyFee",
        "offset": 0,
        "slot": "161",
        "type": "t_mapping(t_uint256,t_uint256)"
      },
      {
        "astId": 18151,
        "contract": "contracts/routers/CcTransferRouterLogic.sol:CcTransferRouterLogic",
        "label": "thirdPartyAddress",
        "offset": 0,
        "slot": "162",
        "type": "t_mapping(t_uint256,t_address)"
      },
      {
        "astId": 18155,
        "contract": "contracts/routers/CcTransferRouterLogic.sol:CcTransferRouterLogic",
        "label": "thirdParty",
        "offset": 0,
        "slot": "163",
        "type": "t_mapping(t_bytes32,t_uint256)"
      }
    ],
    "types": {
      "t_address": {
        "encoding": "inplace",
        "label": "address",
        "numberOfBytes": "20"
      },
      "t_array(t_uint256)49_storage": {
        "base": "t_uint256",
        "encoding": "inplace",
        "label": "uint256[49]",
        "numberOfBytes": "1568"
      },
      "t_array(t_uint256)50_storage": {
        "base": "t_uint256",
        "encoding": "inplace",
        "label": "uint256[50]",
        "numberOfBytes": "1600"
      },
      "t_bool": {
        "encoding": "inplace",
        "label": "bool",
        "numberOfBytes": "1"
      },
      "t_bytes32": {
        "encoding": "inplace",
        "label": "bytes32",
        "numberOfBytes": "32"
      },
      "t_mapping(t_bytes32,t_struct(ccTransferRequest)20653_storage)": {
        "encoding": "mapping",
        "key": "t_bytes32",
        "label": "mapping(bytes32 => struct ICcTransferRouter.ccTransferRequest)",
        "numberOfBytes": "32",
        "value": "t_struct(ccTransferRequest)20653_storage"
      },
      "t_mapping(t_bytes32,t_uint256)": {
        "encoding": "mapping",
        "key": "t_bytes32",
        "label": "mapping(bytes32 => uint256)",
        "numberOfBytes": "32",
        "value": "t_uint256"
      },
      "t_mapping(t_uint256,t_address)": {
        "encoding": "mapping",
        "key": "t_uint256",
        "label": "mapping(uint256 => address)",
        "numberOfBytes": "32",
        "value": "t_address"
      },
      "t_mapping(t_uint256,t_uint256)": {
        "encoding": "mapping",
        "key": "t_uint256",
        "label": "mapping(uint256 => uint256)",
        "numberOfBytes": "32",
        "value": "t_uint256"
      },
      "t_struct(ccTransferRequest)20653_storage": {
        "encoding": "inplace",
        "label": "struct ICcTransferRouter.ccTransferRequest",
        "members": [
          {
            "astId": 20644,
            "contract": "contracts/routers/CcTransferRouterLogic.sol:CcTransferRouterLogic",
            "label": "inputAmount",
            "offset": 0,
            "slot": "0",
            "type": "t_uint256"
          },
          {
            "astId": 20646,
            "contract": "contracts/routers/CcTransferRouterLogic.sol:CcTransferRouterLogic",
            "label": "recipientAddress",
            "offset": 0,
            "slot": "1",
            "type": "t_address"
          },
          {
            "astId": 20648,
            "contract": "contracts/routers/CcTransferRouterLogic.sol:CcTransferRouterLogic",
            "label": "fee",
            "offset": 0,
            "slot": "2",
            "type": "t_uint256"
          },
          {
            "astId": 20650,
            "contract": "contracts/routers/CcTransferRouterLogic.sol:CcTransferRouterLogic",
            "label": "speed",
            "offset": 0,
            "slot": "3",
            "type": "t_uint256"
          },
          {
            "astId": 20652,
            "contract": "contracts/routers/CcTransferRouterLogic.sol:CcTransferRouterLogic",
            "label": "isUsed",
            "offset": 0,
            "slot": "4",
            "type": "t_bool"
          }
        ],
        "numberOfBytes": "160"
      },
      "t_uint256": {
        "encoding": "inplace",
        "label": "uint256",
        "numberOfBytes": "32"
      },
      "t_uint8": {
        "encoding": "inplace",
        "label": "uint8",
        "numberOfBytes": "1"
      }
    }
  }
}