{
  "address": "0x92F0F7af04e070fBD782c611285f6197673459C0",
  "abi": [
    {
      "inputs": [
        {
          "internalType": "uint256",
          "name": "_startingBlockNumber",
          "type": "uint256"
        },
        {
          "internalType": "uint256",
          "name": "_protocolPercentageFee",
          "type": "uint256"
        },
        {
          "internalType": "uint256",
          "name": "_chainId",
          "type": "uint256"
        },
        {
          "internalType": "uint256",
          "name": "_appId",
          "type": "uint256"
        },
        {
          "internalType": "address",
          "name": "_relay",
          "type": "address"
        },
        {
          "internalType": "address",
          "name": "_lockers",
          "type": "address"
        },
        {
          "internalType": "address",
          "name": "_teleBTC",
          "type": "address"
        },
        {
          "internalType": "address",
          "name": "_treasury",
          "type": "address"
        }
      ],
      "stateMutability": "nonpayable",
      "type": "constructor"
    },
    {
      "anonymous": false,
      "inputs": [
        {
          "indexed": true,
          "internalType": "address",
          "name": "user",
          "type": "address"
        },
        {
          "indexed": false,
          "internalType": "uint256",
          "name": "inputAmount",
          "type": "uint256"
        },
        {
          "indexed": false,
          "internalType": "uint256",
          "name": "receivedAmount",
          "type": "uint256"
        },
        {
          "indexed": true,
          "internalType": "uint256",
          "name": "speed",
          "type": "uint256"
        },
        {
          "indexed": false,
          "internalType": "address",
          "name": "teleporter",
          "type": "address"
        },
        {
          "indexed": false,
          "internalType": "uint256",
          "name": "teleporterFee",
          "type": "uint256"
        }
      ],
      "name": "CCTransfer",
      "type": "event"
    },
    {
      "anonymous": false,
      "inputs": [
        {
          "indexed": true,
          "internalType": "address",
          "name": "previousOwner",
          "type": "address"
        },
        {
          "indexed": true,
          "internalType": "address",
          "name": "newOwner",
          "type": "address"
        }
      ],
      "name": "OwnershipTransferred",
      "type": "event"
    },
    {
      "inputs": [],
      "name": "appId",
      "outputs": [
        {
          "internalType": "uint256",
          "name": "",
          "type": "uint256"
        }
      ],
      "stateMutability": "view",
      "type": "function"
    },
    {
      "inputs": [
        {
          "internalType": "bytes4",
          "name": "_version",
          "type": "bytes4"
        },
        {
          "internalType": "bytes",
          "name": "_vin",
          "type": "bytes"
        },
        {
          "internalType": "bytes",
          "name": "_vout",
          "type": "bytes"
        },
        {
          "internalType": "bytes4",
          "name": "_locktime",
          "type": "bytes4"
        },
        {
          "internalType": "uint256",
          "name": "_blockNumber",
          "type": "uint256"
        },
        {
          "internalType": "bytes",
          "name": "_intermediateNodes",
          "type": "bytes"
        },
        {
          "internalType": "uint256",
          "name": "_index",
          "type": "uint256"
        },
        {
          "internalType": "bytes",
          "name": "_lockerLockingScript",
          "type": "bytes"
        }
      ],
      "name": "ccTransfer",
      "outputs": [
        {
          "internalType": "bool",
          "name": "",
          "type": "bool"
        }
      ],
      "stateMutability": "payable",
      "type": "function"
    },
    {
      "inputs": [
        {
          "internalType": "bytes32",
          "name": "",
          "type": "bytes32"
        }
      ],
      "name": "ccTransferRequests",
      "outputs": [
        {
          "internalType": "uint256",
          "name": "inputAmount",
          "type": "uint256"
        },
        {
          "internalType": "address",
          "name": "recipientAddress",
          "type": "address"
        },
        {
          "internalType": "uint256",
          "name": "fee",
          "type": "uint256"
        },
        {
          "internalType": "uint256",
          "name": "speed",
          "type": "uint256"
        },
        {
          "internalType": "bool",
          "name": "isUsed",
          "type": "bool"
        }
      ],
      "stateMutability": "view",
      "type": "function"
    },
    {
      "inputs": [],
      "name": "chainId",
      "outputs": [
        {
          "internalType": "uint256",
          "name": "",
          "type": "uint256"
        }
      ],
      "stateMutability": "view",
      "type": "function"
    },
    {
      "inputs": [],
      "name": "instantRouter",
      "outputs": [
        {
          "internalType": "address",
          "name": "",
          "type": "address"
        }
      ],
      "stateMutability": "view",
      "type": "function"
    },
    {
      "inputs": [
        {
          "internalType": "bytes32",
          "name": "_txId",
          "type": "bytes32"
        }
      ],
      "name": "isRequestUsed",
      "outputs": [
        {
          "internalType": "bool",
          "name": "",
          "type": "bool"
        }
      ],
      "stateMutability": "view",
      "type": "function"
    },
    {
      "inputs": [],
      "name": "lockers",
      "outputs": [
        {
          "internalType": "address",
          "name": "",
          "type": "address"
        }
      ],
      "stateMutability": "view",
      "type": "function"
    },
    {
      "inputs": [],
      "name": "owner",
      "outputs": [
        {
          "internalType": "address",
          "name": "",
          "type": "address"
        }
      ],
      "stateMutability": "view",
      "type": "function"
    },
    {
      "inputs": [],
      "name": "protocolPercentageFee",
      "outputs": [
        {
          "internalType": "uint256",
          "name": "",
          "type": "uint256"
        }
      ],
      "stateMutability": "view",
      "type": "function"
    },
    {
      "inputs": [],
      "name": "relay",
      "outputs": [
        {
          "internalType": "address",
          "name": "",
          "type": "address"
        }
      ],
      "stateMutability": "view",
      "type": "function"
    },
    {
      "inputs": [],
      "name": "renounceOwnership",
      "outputs": [],
      "stateMutability": "nonpayable",
      "type": "function"
    },
    {
      "inputs": [
        {
          "internalType": "address",
          "name": "_instantRouter",
          "type": "address"
        }
      ],
      "name": "setInstantRouter",
      "outputs": [],
      "stateMutability": "nonpayable",
      "type": "function"
    },
    {
      "inputs": [
        {
          "internalType": "address",
          "name": "_lockers",
          "type": "address"
        }
      ],
      "name": "setLockers",
      "outputs": [],
      "stateMutability": "nonpayable",
      "type": "function"
    },
    {
      "inputs": [
        {
          "internalType": "uint256",
          "name": "_protocolPercentageFee",
          "type": "uint256"
        }
      ],
      "name": "setProtocolPercentageFee",
      "outputs": [],
      "stateMutability": "nonpayable",
      "type": "function"
    },
    {
      "inputs": [
        {
          "internalType": "address",
          "name": "_relay",
          "type": "address"
        }
      ],
      "name": "setRelay",
      "outputs": [],
      "stateMutability": "nonpayable",
      "type": "function"
    },
    {
      "inputs": [
        {
          "internalType": "address",
          "name": "_teleBTC",
          "type": "address"
        }
      ],
      "name": "setTeleBTC",
      "outputs": [],
      "stateMutability": "nonpayable",
      "type": "function"
    },
    {
      "inputs": [
        {
          "internalType": "address",
          "name": "_treasury",
          "type": "address"
        }
      ],
      "name": "setTreasury",
      "outputs": [],
      "stateMutability": "nonpayable",
      "type": "function"
    },
    {
      "inputs": [],
      "name": "startingBlockNumber",
      "outputs": [
        {
          "internalType": "uint256",
          "name": "",
          "type": "uint256"
        }
      ],
      "stateMutability": "view",
      "type": "function"
    },
    {
      "inputs": [],
      "name": "teleBTC",
      "outputs": [
        {
          "internalType": "address",
          "name": "",
          "type": "address"
        }
      ],
      "stateMutability": "view",
      "type": "function"
    },
    {
      "inputs": [
        {
          "internalType": "address",
          "name": "newOwner",
          "type": "address"
        }
      ],
      "name": "transferOwnership",
      "outputs": [],
      "stateMutability": "nonpayable",
      "type": "function"
    },
    {
      "inputs": [],
      "name": "treasury",
      "outputs": [
        {
          "internalType": "address",
          "name": "",
          "type": "address"
        }
      ],
      "stateMutability": "view",
      "type": "function"
    },
    {
      "stateMutability": "payable",
      "type": "receive"
    }
  ],
  "transactionHash": "0x7c304c535dc8510ede47c8a6b9283201b6f3bacc136cd122068a70a645325297",
  "args": [
    "2349008",
    50,
    3,
    0,
    "0x5f75Eba46183fc15869Fbff63ae9D25c840E4636",
    "0xE29DC49B801E7a11564F1bac8637849490Ea74B8",
    "0x04eD7F8627FFBa12366077F6A176C169cb07126B",
    "0x5364E3557572bd5D5903C0e9C21BE359F2Eac1dA"
  ],
  "numDeployments": 1,
  "solcInputHash": "26638c471352e26dd0e6e105b6c7435b",
  "bytecode": "0x60806040523480156200001157600080fd5b506040516200358a3803806200358a833981016040819052620000349162000185565b6200003f3362000118565b6001805560028890556005879055612710871115620000b55760405162461bcd60e51b815260206004820152602860248201527f43435472616e73666572526f757465723a20696e76616c69642070657263656e604482015267746167652066656560c01b606482015260840160405180910390fd5b600395909555600493909355600680546001600160a01b03199081166001600160a01b03948516179091556007805482169284169290921790915560088054821693831693909317909255600a8054909216921691909117905550620002089050565b600080546001600160a01b038381166001600160a01b0319831681178455604051919092169283917f8be0079c531659141344cd1fd0a4f28419497f9722a3daafe3b4186f6b6457e09190a35050565b80516001600160a01b03811681146200018057600080fd5b919050565b600080600080600080600080610100898b031215620001a2578384fd5b88519750602089015196506040890151955060608901519450620001c960808a0162000168565b9350620001d960a08a0162000168565b9250620001e960c08a0162000168565b9150620001f960e08a0162000168565b90509295985092959890939650565b61337280620002186000396000f3fe60806040526004361061012e5760003560e01c806380bc4726116100ab578063b14d35321161006f578063b14d35321461037e578063b59589d11461039e578063c805f68b146103be578063e35a0a88146103de578063f0f44260146103fe578063f2fde38b1461041e57610135565b806380bc4726146102ea578063870ba6cf1461030a5780638d3d78cd1461032a5780638da5cb5b1461034a5780639a8a05921461036857610135565b8063765f0233116100f2578063765f0233146101e857806378943c73146102715780637ed55748146102945780637f0f1817146102b457806380afdea8146102d457610135565b80631812adb61461013a5780631876dec41461016357806361d027b31461019b57806370872aa5146101bb578063715018a6146101d157610135565b3661013557005b600080fd5b34801561014657600080fd5b5061015060055481565b6040519081526020015b60405180910390f35b34801561016f57600080fd5b50600754610183906001600160a01b031681565b6040516001600160a01b03909116815260200161015a565b3480156101a757600080fd5b50600a54610183906001600160a01b031681565b3480156101c757600080fd5b5061015060025481565b3480156101dd57600080fd5b506101e661043e565b005b3480156101f457600080fd5b5061023f610203366004612e72565b600b602052600090815260409020805460018201546002830154600384015460049094015492936001600160a01b039092169290919060ff1685565b604080519586526001600160a01b0390941660208601529284019190915260608301521515608082015260a00161015a565b61028461027f366004612ea2565b61047d565b604051901515815260200161015a565b3480156102a057600080fd5b506101e66102af366004612e72565b6108ce565b3480156102c057600080fd5b506101e66102cf366004612e2b565b610966565b3480156102e057600080fd5b5061015060045481565b3480156102f657600080fd5b50610284610305366004612e72565b6109da565b34801561031657600080fd5b506101e6610325366004612e2b565b610a05565b34801561033657600080fd5b50600854610183906001600160a01b031681565b34801561035657600080fd5b506000546001600160a01b0316610183565b34801561037457600080fd5b5061015060035481565b34801561038a57600080fd5b506101e6610399366004612e2b565b610a79565b3480156103aa57600080fd5b50600654610183906001600160a01b031681565b3480156103ca57600080fd5b506101e66103d9366004612e2b565b610aed565b3480156103ea57600080fd5b50600954610183906001600160a01b031681565b34801561040a57600080fd5b506101e6610419366004612e2b565b610b61565b34801561042a57600080fd5b506101e6610439366004612e2b565b610bd5565b6000546001600160a01b031633146104715760405162461bcd60e51b815260040161046890613113565b60405180910390fd5b61047b6000610c70565b565b6000600260015414156104d25760405162461bcd60e51b815260206004820152601f60248201527f5265656e7472616e637947756172643a207265656e7472616e742063616c6c006044820152606401610468565b60026001819055548710156105355760405162461bcd60e51b8152602060048201526024808201527f43435472616e73666572526f757465723a207265717565737420697320746f6f604482015263081bdb1960e21b6064820152608401610468565b600061057a8d8d8d8d8080601f0160208091040260200160405190810160405280939291908181526020018383808284376000920191909152508f9250610cc0915050565b6000818152600b602052604090206004015490915060ff16156105f65760405162461bcd60e51b815260206004820152602e60248201527f43435472616e73666572526f757465723a20726571756573742068617320626560448201526d656e2075736564206265666f726560901b6064820152608401610468565b6001600160e01b031989161561065f5760405162461bcd60e51b815260206004820152602860248201527f43435472616e73666572526f757465723a206c6f636b2074696d65206973206e6044820152676f6e202d7a65726f60c01b6064820152608401610468565b6106e584848080601f016020809104026020016040519081016040528093929190818152602001838380828437600081840152601f19601f820116905080830192505050505050508c8c8080601f016020809104026020016040519081016040528093929190818152602001838380828437600092019190915250869250610dc1915050565b610728818989898080601f0160208091040260200160405190810160405280939291908181526020018383808284376000920191909152508b92506111ea915050565b61079a5760405162461bcd60e51b815260206004820152603860248201527f43435472616e73666572526f757465723a207472616e73616374696f6e20686160448201527f73206e6f74206265656e2066696e616c697a65642079657400000000000000006064820152608401610468565b6000818152600b60205260409020600301546108785760006107f385858080601f01602080910402602001604051908101604052809392919081815260200183838082843760009201919091525086925061135f915050565b6000838152600b6020908152604091829020600381015460018201548254600290930154855193845293830186905233838601526060830193909352925193945091926001600160a01b03909116917f08a51b22dd24d38c51ccc9872362ff33007184fcfb312edb79d074a40a8953b2919081900360800190a36001925050506108bb565b60006107f385858080601f01602080910402602001604051908101604052809392919081815260200183838082843760009201919091525086925061140d915050565b600180559b9a5050505050505050505050565b6000546001600160a01b031633146108f85760405162461bcd60e51b815260040161046890613113565b8061271010156109615760405162461bcd60e51b815260206004820152602e60248201527f43435472616e73666572526f757465723a2070726f746f636f6c20666565206960448201526d73206f7574206f662072616e676560901b6064820152608401610468565b600555565b806001600160a01b03811661098d5760405162461bcd60e51b8152600401610468906130d2565b6000546001600160a01b031633146109b75760405162461bcd60e51b815260040161046890613113565b50600880546001600160a01b0319166001600160a01b0392909216919091179055565b6000818152600b602052604081206004015460ff166109fa5760006109fd565b60015b90505b919050565b806001600160a01b038116610a2c5760405162461bcd60e51b8152600401610468906130d2565b6000546001600160a01b03163314610a565760405162461bcd60e51b815260040161046890613113565b50600980546001600160a01b0319166001600160a01b0392909216919091179055565b806001600160a01b038116610aa05760405162461bcd60e51b8152600401610468906130d2565b6000546001600160a01b03163314610aca5760405162461bcd60e51b815260040161046890613113565b50600780546001600160a01b0319166001600160a01b0392909216919091179055565b806001600160a01b038116610b145760405162461bcd60e51b8152600401610468906130d2565b6000546001600160a01b03163314610b3e5760405162461bcd60e51b815260040161046890613113565b50600680546001600160a01b0319166001600160a01b0392909216919091179055565b806001600160a01b038116610b885760405162461bcd60e51b8152600401610468906130d2565b6000546001600160a01b03163314610bb25760405162461bcd60e51b815260040161046890613113565b50600a80546001600160a01b0319166001600160a01b0392909216919091179055565b6000546001600160a01b03163314610bff5760405162461bcd60e51b815260040161046890613113565b6001600160a01b038116610c645760405162461bcd60e51b815260206004820152602660248201527f4f776e61626c653a206e6577206f776e657220697320746865207a65726f206160448201526564647265737360d01b6064820152608401610468565b610c6d81610c70565b50565b600080546001600160a01b038381166001600160a01b0319831681178455604051919092169283917f8be0079c531659141344cd1fd0a4f28419497f9722a3daafe3b4186f6b6457e09190a35050565b600080600286868686604051602001610cdc9493929190612fc3565b60408051601f1981840301815290829052610cf691613016565b602060405180830381855afa158015610d13573d6000803e3d6000fd5b5050506040513d601f19601f82011682018060405250810190610d369190612e8a565b90506000600282604051602001610d4f91815260200190565b60408051601f1981840301815290829052610d6991613016565b602060405180830381855afa158015610d86573d6000803e3d6000fd5b5050506040513d601f19601f82011682018060405250810190610da99190612e8a565b9050610db4816114ef565b925050505b949350505050565b60075460405163aff2faa360e01b81526001600160a01b039091169063aff2faa390610df1908690600401613091565b60206040518083038186803b158015610e0957600080fd5b505afa158015610e1d573d6000803e3d6000fd5b505050506040513d601f19601f82011682018060405250810190610e419190612e52565b610eb5576040805162461bcd60e51b81526020600482015260248101919091527f43435472616e73666572526f757465723a206e6f206c6f636b6572207769746860448201527f2074686520676976656e206c6f636b696e6720736372697074206578697374736064820152608401610468565b610ef26040518060a001604052806000815260200160006001600160a01b0316815260200160008152602001600081526020016000151581525090565b6060610efe848661156f565b6001600160401b03909116808452909150610f6a5760405162461bcd60e51b815260206004820152602660248201527f43435472616e73666572526f757465723a20696e70757420616d6f756e74206960448201526573207a65726f60d01b6064820152608401610468565b600354610f76826116e7565b60ff1614610fd85760405162461bcd60e51b815260206004820152602960248201527f43435472616e73666572526f757465723a20636861696e206964206973206e6f6044820152681d0818dbdc9c9958dd60ba1b6064820152608401610468565b600454610fe482611701565b61ffff16146110455760405162461bcd60e51b815260206004820152602760248201527f43435472616e73666572526f757465723a20617070206964206973206e6f742060448201526618dbdc9c9958dd60ca1b6064820152608401610468565b60006110508261171c565b61ffff1690506127108111156110c15760405162461bcd60e51b815260206004820152603060248201527f43435472616e73666572526f757465723a2070657263656e746167652066656560448201526f206973206f7574206f662072616e676560801b6064820152608401610468565b8251612710906110d190836131f2565b6110db91906131d2565b60408401526110e98261172c565b6001600160a01b0316602084015261110082611747565b60ff1660608401819052158061111a575082606001516001145b6111765760405162461bcd60e51b815260206004820152602760248201527f43435472616e73666572526f757465723a207370656564206973206f7574206f604482015266662072616e676560c81b6064820152608401610468565b50506001608082018181526000938452600b6020908152604094859020845181559084015192810180546001600160a01b0319166001600160a01b0390941693909317909255928201516002820155606090910151600382015590516004909101805460ff19169115159190911790555050565b60065460405163d0a8973960e01b8152600481018590526000602482018190529182916001600160a01b039091169063d0a897399060440160206040518083038186803b15801561123a57600080fd5b505afa15801561124e573d6000803e3d6000fd5b505050506040513d601f19601f820116820180604052508101906112729190612e8a565b9050803410156112d95760405162461bcd60e51b815260206004820152602c60248201527f43435472616e73666572526f757465723a207061696420666565206973206e6f60448201526b1d081cdd59999a58da595b9d60a21b6064820152608401610468565b600654604051600091611336916001600160a01b0390911690611306908a908a908a908a90602401613061565b60408051601f198184030181529190526020810180516001600160e01b0316634354da2560e01b17905284611756565b905061134b33611346843461323a565b611786565b80806020019051810190610db49190612e52565b600061136b83836118a4565b6008546000848152600b60205260409081902060010154905163a9059cbb60e01b81526001600160a01b03918216600482015260248101849052929350169063a9059cbb906044015b602060405180830381600087803b1580156113ce57600080fd5b505af11580156113e2573d6000803e3d6000fd5b505050506040513d601f19601f820116820180604052508101906114069190612e52565b5092915050565b600061141983836118a4565b60085460095460405163095ea7b360e01b81526001600160a01b03918216600482015260248101849052929350169063095ea7b390604401602060405180830381600087803b15801561146b57600080fd5b505af115801561147f573d6000803e3d6000fd5b505050506040513d601f19601f820116820180604052508101906114a39190612e52565b506009546000838152600b602052604090819020600101549051631b6396ab60e31b81526001600160a01b0391821660048201526024810184905291169063db1cb558906044016113b4565b6000606081805b602081101561156357828561150c83601f61323a565b6020811061152a57634e487b7160e01b600052603260045260246000fd5b1a60f81b60405160200161153f929190613032565b6040516020818303038152906040529250808061155b906132cc565b9150506114f6565b50506020015192915050565b60006060816115866115818683611ab9565b611adf565b905062ffffff1980821614156115de5760405162461bcd60e51b815260206004820152601b60248201527f426974636f696e48656c7065723a20766f7574206973206e756c6c00000000006044820152606401610468565b60008060008060006115f1866000611c09565b6001600160401b0316905060005b818110156116d9576116118782611d39565b955061161c86611e50565b945061162786611ead565b935061163284611ef7565b925062ffffff1980841614156116b557896040516020016116539190613016565b604051602081830303815290604052805190602001206116788662ffffff1916611fc6565b6040516020016116889190613016565b6040516020818303038152906040528051906020012014156116b0576116ad86612016565b98505b6116c7565b6116c462ffffff198416611fc6565b97505b806116d1816132cc565b9150506115ff565b505050505050509250929050565b6000806116f683600080612038565b600101519392505050565b6000806117118360016002612038565b600201519392505050565b6000806117118360176018612038565b60008061173c8360036016612038565b601401519392505050565b6000806116f683601980612038565b606061177c848484604051806060016040528060298152602001613314602991396120bd565b90505b9392505050565b804710156117d65760405162461bcd60e51b815260206004820152601d60248201527f416464726573733a20696e73756666696369656e742062616c616e63650000006044820152606401610468565b6000826001600160a01b03168260405160006040518083038185875af1925050503d8060008114611823576040519150601f19603f3d011682016040523d82523d6000602084013e611828565b606091505b505090508061189f5760405162461bcd60e51b815260206004820152603a60248201527f416464726573733a20756e61626c6520746f2073656e642076616c75652c207260448201527f6563697069656e74206d617920686176652072657665727465640000000000006064820152608401610468565b505050565b6007546000828152600b60205260408082205490516307f3f86760e21b8152919283926001600160a01b0390911691631fcfe19c916118ea9188913091906004016130a4565b602060405180830381600087803b15801561190457600080fd5b505af1158015611918573d6000803e3d6000fd5b505050506040513d601f19601f8201168201806040525081019061193c9190612e8a565b6005546000858152600b6020526040812054929350916127109161195f916131f2565b61196991906131d2565b6000858152600b60205260409020600201549091508015611a0a5760085460405163a9059cbb60e01b8152336004820152602481018390526001600160a01b039091169063a9059cbb90604401602060405180830381600087803b1580156119d057600080fd5b505af11580156119e4573d6000803e3d6000fd5b505050506040513d601f19601f82011682018060405250810190611a089190612e52565b505b8115611a9a57600854600a5460405163a9059cbb60e01b81526001600160a01b0391821660048201526024810185905291169063a9059cbb90604401602060405180830381600087803b158015611a6057600080fd5b505af1158015611a74573d6000803e3d6000fd5b505050506040513d601f19601f82011682018060405250810190611a989190612e52565b505b80611aa5838561323a565b611aaf919061323a565b9695505050505050565b815160009060208401611ad464ffffffffff851682846121da565b925050505b92915050565b60008181611af5815b62ffffff1984169061221e565b50601884901c6001600160601b0316611b145762ffffff199250611c02565b6000611b21856000611c09565b9050601885901c6001600160601b03166001600160401b038216611b4e5762ffffff195b94505050611c02565b6000611b59836122f8565b60ff16905060005b836001600160401b0316811015611bd257828210611b895762ffffff19965050505050611c02565b6000611ba7611b98848661323a565b62ffffff198b1690600e612351565b9050611bb281612385565b611bbc9084613148565b9250508080611bca906132cc565b915050611b61565b50818114611be95762ffffff199550505050611c02565b6301000000600160d81b038716600f60d81b1795505050505b5050919050565b600080611c1e62ffffff1985168460016123ce565b905060fc8111611c2f579050611ad9565b8060fd1415611c8d57611c55611c46846001613148565b62ffffff1986169060026123fe565b9150611c60826122f8565b60ff16600314611c8857611c86611c8162ffffff1986168560036000612548565b6125b8565b505b611406565b8060fe1415611cdf57611cb3611ca4846001613148565b62ffffff1986169060046123fe565b9150611cbe826122f8565b60ff16600514611c8857611c86611c8162ffffff1986168560056000612548565b8060ff141561140657611d05611cf6846001613148565b62ffffff1986169060086123fe565b9150611d10826122f8565b60ff1660091461140657611d31611c8162ffffff1986168560096000612548565b505092915050565b600082600f611d4781611ae8565b506000611d55866000611c09565b6001600160401b03169050601886901c6001600160601b0316818610611db15760405162461bcd60e51b81526020600482015260116024820152702b37baba103932b0b21037bb32b9393ab760791b6044820152606401610468565b6000611dbc836122f8565b60ff1690506000805b88811015611e1257611de9611dda848661323a565b62ffffff198c1690600e612351565b9150611df482612385565b611dfe9084613148565b9250611e0b600182613148565b9050611dc5565b50611e20611b98838561323a565b90506000611e2d82612385565b9050611e4262ffffff198b168483600d612548565b9a9950505050505050505050565b600081600d611e5e81611ae8565b506000611e6c856008611c09565b9050611ea4611e7a826122f8565b611e8590600861318b565b60ff166001600160401b03831660075b62ffffff198916929190612548565b95945050505050565b600081600d611ebb81611ae8565b506000611ec9856008611c09565b9050611ea4600882611eda846122f8565b60ff16611ee79190613160565b6001600160401b03166007611e95565b6000816007611f0581611ae8565b506000611f13856000611c09565b90506000611f2a62ffffff198716600260016123ce565b9050604d826001600160401b03161180611f4d57506004826001600160401b0316105b80611f6a5750611f6562ffffff1987166001806123ce565b606a14155b80611f9a5750611f7b600283613251565b6001600160401b0316611f9762ffffff198816600260016123ce565b14155b15611fa95762ffffff19611b45565b611aaf62ffffff19871660036001600160401b038416600c612548565b6060600080611fde8460181c6001600160601b031690565b60405193508392506001600160601b0316905061200584612000846020613148565b612635565b508181016020016040529052919050565b600081600d61202481611ae8565b50610db962ffffff198516600060086123fe565b60606000835b612049846001613148565b8110156120b45785818151811061207057634e487b7160e01b600052603260045260246000fd5b602001015160f81c60f81b91508282604051602001612090929190613032565b604051602081830303815290604052925080806120ac906132cc565b91505061203e565b50509392505050565b60608247101561211e5760405162461bcd60e51b815260206004820152602660248201527f416464726573733a20696e73756666696369656e742062616c616e636520666f6044820152651c8818d85b1b60d21b6064820152608401610468565b843b61216c5760405162461bcd60e51b815260206004820152601d60248201527f416464726573733a2063616c6c20746f206e6f6e2d636f6e74726163740000006044820152606401610468565b600080866001600160a01b031685876040516121889190613016565b60006040518083038185875af1925050503d80600081146121c5576040519150601f19603f3d011682016040523d82523d6000602084013e6121ca565b606091505b5091509150610db482828661278d565b6000806121e78385613148565b90506040518111156121f7575060005b806122095762ffffff1991505061177f565b5050606092831b9190911790911b1760181b90565b600061222a83836127c6565b6122f157600061224961223d8560d81c90565b64ffffffffff166127e9565b915050600061225e8464ffffffffff166127e9565b6040517f5479706520617373657274696f6e206661696c65642e20476f7420307800000060208201526001600160b01b031960b086811b8216603d8401526c05c408af0e0cac6e8cac84060f609b1b604784015283901b16605482015290925060009150605e015b60405160208183030381529060405290508060405162461bcd60e51b81526004016104689190613091565b5090919050565b600060fc826001600160401b03161161231357506001610a00565b61ffff826001600160401b03161161232d57506003610a00565b63ffffffff826001600160401b03161161234957506005610a00565b506009610a00565b600061177c848461236b8760181c6001600160601b031690565b6001600160601b031661237e919061323a565b8585612548565b600081600e61239381611ae8565b5060006123a1856008611c09565b9050806001600160401b03166123b6826122f8565b60ff166123c39190613148565b611ea4906008613148565b60006123db826020613279565b6123e6906008613211565b60ff166123f48585856128a9565b901c949350505050565b600061177c61240e8585856128a9565b600881811c7eff00ff00ff00ff00ff00ff00ff00ff00ff00ff00ff00ff00ff00ff00ff00ff167fff00ff00ff00ff00ff00ff00ff00ff00ff00ff00ff00ff00ff00ff00ff00ff009290911b9190911617601081811c7dffff0000ffff0000ffff0000ffff0000ffff0000ffff0000ffff0000ffff167fffff0000ffff0000ffff0000ffff0000ffff0000ffff0000ffff0000ffff00009290911b9190911617602081811c7bffffffff00000000ffffffff00000000ffffffff00000000ffffffff167fffffffff00000000ffffffff00000000ffffffff00000000ffffffff000000009290911b9190911617604081811c77ffffffffffffffff0000000000000000ffffffffffffffff1677ffffffffffffffff0000000000000000ffffffffffffffff199290911b9190911617608081811c91901b1790565b60008061255e8660781c6001600160601b031690565b6001600160601b0316905061257286612a02565b8461257d8784613148565b6125879190613148565b111561259a5762ffffff19915050610db9565b6125a48582613148565b9050611aaf8364ffffffffff1682866121da565b606060006125e26125dd62ffffff19851683601887901c6001600160601b03166123ce565b6127e9565b6040517f4e6f6e2d6d696e696d616c2076617220696e742e20476f74203078000000000060208201526dffffffffffffffffffffffffffff19607083901b16603b82015290925060009150604d016122c6565b600062ffffff19808416141561269e5760405162461bcd60e51b815260206004820152602860248201527f54797065644d656d566965772f636f7079546f202d204e756c6c20706f696e7460448201526732b9103232b932b360c11b6064820152608401610468565b6126a783612a43565b6127075760405162461bcd60e51b815260206004820152602b60248201527f54797065644d656d566965772f636f7079546f202d20496e76616c696420706f60448201526a34b73a32b9103232b932b360a91b6064820152608401610468565b600061271c8460181c6001600160601b031690565b6001600160601b03169050600061273c8560781c6001600160601b031690565b6001600160601b03169050600060405190508481111561275c5760206060fd5b8285848460045afa50611aaf6127728760d81c90565b64ffffffffff60601b606091821b168717901b841760181b90565b6060831561279c57508161177f565b8251156127ac5782518084602001fd5b8160405162461bcd60e51b81526004016104689190613091565b60008164ffffffffff166127da8460d81c90565b64ffffffffff16149392505050565b600080601f5b600f8160ff161115612847576000612808826008613211565b60ff1685901c905061281981612a81565b61ffff16841793508160ff1660101461283457601084901b93505b50612840600182613279565b90506127ef565b50600f5b60ff8160ff1610156128a3576000612864826008613211565b60ff1685901c905061287581612a81565b61ffff16831792508160ff1660001461289057601083901b92505b5061289c600182613279565b905061284b565b50915091565b600060ff82166128bb5750600061177f565b6128ce8460181c6001600160601b031690565b6001600160601b03166128e460ff841685613148565b11156129485761292f6129008560781c6001600160601b031690565b6001600160601b031661291c8660181c6001600160601b031690565b6001600160601b0316858560ff16612ab1565b60405162461bcd60e51b81526004016104689190613091565b60208260ff1611156129c25760405162461bcd60e51b815260206004820152603a60248201527f54797065644d656d566965772f696e646578202d20417474656d70746564207460448201527f6f20696e646578206d6f7265207468616e2033322062797465730000000000006064820152608401610468565b6008820260006129db8660781c6001600160601b031690565b6001600160601b031690506000600160ff1b60001984011d91909501511695945050505050565b6000612a178260181c6001600160601b031690565b612a2a8360781c6001600160601b031690565b612a3491906131b0565b6001600160601b031692915050565b6000612a4f8260d81c90565b64ffffffffff1664ffffffffff1415612a6a57506000610a00565b6000612a7583612a02565b60405110199392505050565b6000612a9360048360ff16901c612bdb565b60ff161760081b62ffff0016612aa882612bdb565b60ff1617919050565b60606000612abe866127e9565b9150506000612acc866127e9565b9150506000612ada866127e9565b9150506000612ae8866127e9565b604080517f54797065644d656d566965772f696e646578202d204f76657272616e20746865602082015274040ecd2caee5c40a6d8d2c6ca40d2e640c2e84060f605b1b818301526001600160d01b031960d098891b811660558301526e040eed2e8d040d8cadccee8d04060f608b1b605b830181905297891b8116606a8301527f2e20417474656d7074656420746f20696e646578206174206f666673657420306070830152600f60fb1b609083015295881b861660918201526097810196909652951b90921660a68401525050601760f91b60ac8201528151808203608d01815260ad90910190915295945050505050565b600060f08083179060ff82161415612bf7576030915050610a00565b8060ff1660f11415612c0d576031915050610a00565b8060ff1660f21415612c23576032915050610a00565b8060ff1660f31415612c39576033915050610a00565b8060ff1660f41415612c4f576034915050610a00565b8060ff1660f51415612c65576035915050610a00565b8060ff1660f61415612c7b576036915050610a00565b8060ff1660f71415612c91576037915050610a00565b8060ff1660f81415612ca7576038915050610a00565b8060ff1660f91415612cbd576039915050610a00565b8060ff1660fa1415612cd3576061915050610a00565b8060ff1660fb1415612ce9576062915050610a00565b8060ff1660fc1415612cff576063915050610a00565b8060ff1660fd1415612d15576064915050610a00565b8060ff1660fe1415612d2b576065915050610a00565b8060ff1660ff1415612d41576066915050610a00565b50919050565b80356001600160e01b031981168114610a0057600080fd5b60008083601f840112612d70578182fd5b5081356001600160401b03811115612d86578182fd5b602083019150836020828501011115612d9e57600080fd5b9250929050565b600082601f830112612db5578081fd5b81356001600160401b0380821115612dcf57612dcf6132fd565b604051601f8301601f19908116603f01168101908282118183101715612df757612df76132fd565b81604052838152866020858801011115612e0f578485fd5b8360208701602083013792830160200193909352509392505050565b600060208284031215612e3c578081fd5b81356001600160a01b038116811461177f578182fd5b600060208284031215612e63578081fd5b8151801515811461177f578182fd5b600060208284031215612e83578081fd5b5035919050565b600060208284031215612e9b578081fd5b5051919050565b60008060008060008060008060008060006101008c8e031215612ec3578687fd5b612ecc8c612d47565b9a506001600160401b038060208e01351115612ee6578788fd5b612ef68e60208f01358f01612da5565b9a508060408e01351115612f08578788fd5b612f188e60408f01358f01612d5f565b909a509850612f2960608e01612d47565b975060808d013596508060a08e01351115612f42578586fd5b612f528e60a08f01358f01612d5f565b909650945060c08d0135935060e08d0135811015612f6e578283fd5b50612f7f8d60e08e01358e01612d5f565b81935080925050509295989b509295989b9093969950565b60008151808452612faf81602086016020860161329c565b601f01601f19169290920160200192915050565b600063ffffffff60e01b80871683528551612fe5816004860160208a0161329c565b855190840190612ffc816004840160208a0161329c565b919094169301600481019390935250506008019392505050565b6000825161302881846020870161329c565b9190910192915050565b6000835161304481846020880161329c565b6001600160f81b0319939093169190920190815260010192915050565b6000858252846020830152608060408301526130806080830185612f97565b905082606083015295945050505050565b60006020825261177f6020830184612f97565b6000606082526130b76060830186612f97565b6001600160a01b039490941660208301525060400152919050565b60208082526021908201527f43435472616e73666572526f757465723a2061646472657373206973207a65726040820152606f60f81b606082015260800190565b6020808252818101527f4f776e61626c653a2063616c6c6572206973206e6f7420746865206f776e6572604082015260600190565b6000821982111561315b5761315b6132e7565b500190565b60006001600160401b03808316818516808303821115613182576131826132e7565b01949350505050565b600060ff821660ff84168060ff038211156131a8576131a86132e7565b019392505050565b60006001600160601b03808316818516808303821115613182576131826132e7565b6000826131ed57634e487b7160e01b81526012600452602481fd5b500490565b600081600019048311821515161561320c5761320c6132e7565b500290565b600060ff821660ff84168160ff0481118215151615613232576132326132e7565b029392505050565b60008282101561324c5761324c6132e7565b500390565b60006001600160401b0383811690831681811015613271576132716132e7565b039392505050565b600060ff821660ff841680821015613293576132936132e7565b90039392505050565b60005b838110156132b757818101518382015260200161329f565b838111156132c6576000848401525b50505050565b60006000198214156132e0576132e06132e7565b5060010190565b634e487b7160e01b600052601160045260246000fd5b634e487b7160e01b600052604160045260246000fdfe416464726573733a206c6f772d6c6576656c2063616c6c20776974682076616c7565206661696c6564a264697066735822122054fef22a3057c17f0e2e047f25462cbffdbb72842b53c3eb73d3c3126ae0455164736f6c63430008020033",
  "devdoc": {
    "kind": "dev",
    "methods": {
      "ccTransfer(bytes4,bytes,bytes,bytes4,uint256,bytes,uint256,bytes)": {
        "details": "Validates the transfer request, then,                                     if speed is 1, the request is instant                                     which pays back the loan,                                     if the speed is 0, it is a normal transfer",
        "params": {
          "_blockNumber": "The block number of the request tx",
          "_index": "Index of tx in the block",
          "_intermediateNodes": "Merkle proof for tx",
          "_lockerLockingScript": "Locking script of locker that user has sent BTC to it",
          "_locktime": "Bitcoin transaction locktime",
          "_version": "Version of the Bitcoin transaction",
          "_vin": "Transaction inputs",
          "_vout": "Transaction outputs"
        },
        "returns": {
          "_0": "True if the transfer is successful"
        }
      },
      "constructor": {
        "params": {
          "_appId": "Id of ccTransfer dApp",
          "_chainId": "Id of the underlying chain",
          "_lockers": "Lockers' contract address",
          "_protocolPercentageFee": "Percentage amount of protocol fee (min: %0.01)",
          "_relay": "The Relay address to validate data from source chain",
          "_startingBlockNumber": "Requests that are included in a block older than _startingBlockNumber cannot be executed",
          "_teleBTC": "TeleportDAO BTC ERC20 token address",
          "_treasury": "Address of treasury that collects protocol fees"
        }
      },
      "isRequestUsed(bytes32)": {
        "details": "This is to avoid re-submitting a used request",
        "params": {
          "_txId": "The txId of request on the source chain"
        },
        "returns": {
          "_0": "True if the request has been executed"
        }
      },
      "owner()": {
        "details": "Returns the address of the current owner."
      },
      "renounceOwnership()": {
        "details": "Leaves the contract without owner. It will not be possible to call `onlyOwner` functions anymore. Can only be called by the current owner. NOTE: Renouncing ownership will leave the contract without an owner, thereby removing any functionality that is only available to the owner."
      },
      "setInstantRouter(address)": {
        "params": {
          "_instantRouter": "Address of the instant router contract"
        }
      },
      "setLockers(address)": {
        "params": {
          "_lockers": "Address of the lockers contract"
        }
      },
      "setProtocolPercentageFee(uint256)": {
        "details": "Only owner can call this",
        "params": {
          "_protocolPercentageFee": "Percentage amount of protocol fee"
        }
      },
      "setRelay(address)": {
        "params": {
          "_relay": "Address of the relay contract"
        }
      },
      "setTeleBTC(address)": {
        "params": {
          "_teleBTC": "TeleportDAO BTC ERC20 token address"
        }
      },
      "setTreasury(address)": {
        "params": {
          "_treasury": "Treasury address"
        }
      },
      "transferOwnership(address)": {
        "details": "Transfers ownership of the contract to a new account (`newOwner`). Can only be called by the current owner."
      }
    },
    "version": 1
  },
  "userdoc": {
    "events": {
      "CCTransfer(address,uint256,uint256,uint256,address,uint256)": {
        "notice": "Emits when a cc transfer request gets done"
      }
    },
    "kind": "user",
    "methods": {
      "ccTransfer(bytes4,bytes,bytes,bytes4,uint256,bytes,uint256,bytes)": {
        "notice": "Executes the cross chain transfer request"
      },
      "constructor": {
        "notice": "Gives default params to initiate cc transfer router"
      },
      "isRequestUsed(bytes32)": {
        "notice": "Check if the request has been executed before"
      },
      "setInstantRouter(address)": {
        "notice": "Setter for instant router"
      },
      "setLockers(address)": {
        "notice": "Setter for relay"
      },
      "setProtocolPercentageFee(uint256)": {
        "notice": "Setter for protocol percentage fee"
      },
      "setRelay(address)": {
        "notice": "Setter for relay"
      },
      "setTeleBTC(address)": {
        "notice": "Setter for teleBTC"
      },
      "setTreasury(address)": {
        "notice": "Setter for treasury"
      }
    },
    "version": 1
  },
  "storageLayout": {
    "storage": [
      {
        "astId": 807,
        "contract": "contracts/routers/CCTransferRouter.sol:CCTransferRouter",
        "label": "_owner",
        "offset": 0,
        "slot": "0",
        "type": "t_address"
      },
      {
        "astId": 1634,
        "contract": "contracts/routers/CCTransferRouter.sol:CCTransferRouter",
        "label": "_status",
        "offset": 0,
        "slot": "1",
        "type": "t_uint256"
      },
      {
        "astId": 22114,
        "contract": "contracts/routers/CCTransferRouter.sol:CCTransferRouter",
        "label": "startingBlockNumber",
        "offset": 0,
        "slot": "2",
        "type": "t_uint256"
      },
      {
        "astId": 22117,
        "contract": "contracts/routers/CCTransferRouter.sol:CCTransferRouter",
        "label": "chainId",
        "offset": 0,
        "slot": "3",
        "type": "t_uint256"
      },
      {
        "astId": 22120,
        "contract": "contracts/routers/CCTransferRouter.sol:CCTransferRouter",
        "label": "appId",
        "offset": 0,
        "slot": "4",
        "type": "t_uint256"
      },
      {
        "astId": 22123,
        "contract": "contracts/routers/CCTransferRouter.sol:CCTransferRouter",
        "label": "protocolPercentageFee",
        "offset": 0,
        "slot": "5",
        "type": "t_uint256"
      },
      {
        "astId": 22126,
        "contract": "contracts/routers/CCTransferRouter.sol:CCTransferRouter",
        "label": "relay",
        "offset": 0,
        "slot": "6",
        "type": "t_address"
      },
      {
        "astId": 22129,
        "contract": "contracts/routers/CCTransferRouter.sol:CCTransferRouter",
        "label": "lockers",
        "offset": 0,
        "slot": "7",
        "type": "t_address"
      },
      {
        "astId": 22132,
        "contract": "contracts/routers/CCTransferRouter.sol:CCTransferRouter",
        "label": "teleBTC",
        "offset": 0,
        "slot": "8",
        "type": "t_address"
      },
      {
        "astId": 22135,
        "contract": "contracts/routers/CCTransferRouter.sol:CCTransferRouter",
        "label": "instantRouter",
        "offset": 0,
        "slot": "9",
        "type": "t_address"
      },
      {
        "astId": 22138,
        "contract": "contracts/routers/CCTransferRouter.sol:CCTransferRouter",
        "label": "treasury",
        "offset": 0,
        "slot": "10",
        "type": "t_address"
      },
      {
        "astId": 22143,
        "contract": "contracts/routers/CCTransferRouter.sol:CCTransferRouter",
        "label": "ccTransferRequests",
        "offset": 0,
        "slot": "11",
        "type": "t_mapping(t_bytes32,t_struct(ccTransferRequest)24518_storage)"
      }
    ],
    "types": {
      "t_address": {
        "encoding": "inplace",
        "label": "address",
        "numberOfBytes": "20"
      },
      "t_bool": {
        "encoding": "inplace",
        "label": "bool",
        "numberOfBytes": "1"
      },
      "t_bytes32": {
        "encoding": "inplace",
        "label": "bytes32",
        "numberOfBytes": "32"
      },
      "t_mapping(t_bytes32,t_struct(ccTransferRequest)24518_storage)": {
        "encoding": "mapping",
        "key": "t_bytes32",
        "label": "mapping(bytes32 => struct ICCTransferRouter.ccTransferRequest)",
        "numberOfBytes": "32",
        "value": "t_struct(ccTransferRequest)24518_storage"
      },
      "t_struct(ccTransferRequest)24518_storage": {
        "encoding": "inplace",
        "label": "struct ICCTransferRouter.ccTransferRequest",
        "members": [
          {
            "astId": 24509,
            "contract": "contracts/routers/CCTransferRouter.sol:CCTransferRouter",
            "label": "inputAmount",
            "offset": 0,
            "slot": "0",
            "type": "t_uint256"
          },
          {
            "astId": 24511,
            "contract": "contracts/routers/CCTransferRouter.sol:CCTransferRouter",
            "label": "recipientAddress",
            "offset": 0,
            "slot": "1",
            "type": "t_address"
          },
          {
            "astId": 24513,
            "contract": "contracts/routers/CCTransferRouter.sol:CCTransferRouter",
            "label": "fee",
            "offset": 0,
            "slot": "2",
            "type": "t_uint256"
          },
          {
            "astId": 24515,
            "contract": "contracts/routers/CCTransferRouter.sol:CCTransferRouter",
            "label": "speed",
            "offset": 0,
            "slot": "3",
            "type": "t_uint256"
          },
          {
            "astId": 24517,
            "contract": "contracts/routers/CCTransferRouter.sol:CCTransferRouter",
            "label": "isUsed",
            "offset": 0,
            "slot": "4",
            "type": "t_bool"
          }
        ],
        "numberOfBytes": "160"
      },
      "t_uint256": {
        "encoding": "inplace",
        "label": "uint256",
        "numberOfBytes": "32"
      }
    }
  }
}