{
  "address": "0x8cbBaD7ab9f5b008737aBA4889620F4122Ff3742",
  "abi": [
    {
      "inputs": [],
      "stateMutability": "nonpayable",
      "type": "constructor"
    },
    {
      "anonymous": false,
      "inputs": [
        {
          "indexed": false,
          "internalType": "string",
          "name": "name",
          "type": "string"
        },
        {
          "indexed": true,
          "internalType": "address",
          "name": "collateralToken",
          "type": "address"
        },
        {
          "indexed": false,
          "internalType": "uint256",
          "name": "collateralizationRatio",
          "type": "uint256"
        },
        {
          "indexed": false,
          "internalType": "address",
          "name": "collateralPool",
          "type": "address"
        }
      ],
      "name": "CreateCollateralPool",
      "type": "event"
    },
    {
      "anonymous": false,
      "inputs": [
        {
          "indexed": true,
          "internalType": "address",
          "name": "previousOwner",
          "type": "address"
        },
        {
          "indexed": true,
          "internalType": "address",
          "name": "newOwner",
          "type": "address"
        }
      ],
      "name": "OwnershipTransferred",
      "type": "event"
    },
    {
      "anonymous": false,
      "inputs": [
        {
          "indexed": true,
          "internalType": "address",
          "name": "collateralToken",
          "type": "address"
        },
        {
          "indexed": false,
          "internalType": "address",
          "name": "collateralPool",
          "type": "address"
        }
      ],
      "name": "RemoveCollateralPool",
      "type": "event"
    },
    {
      "inputs": [
        {
          "internalType": "uint256",
          "name": "",
          "type": "uint256"
        }
      ],
      "name": "allCollateralPools",
      "outputs": [
        {
          "internalType": "address",
          "name": "",
          "type": "address"
        }
      ],
      "stateMutability": "view",
      "type": "function"
    },
    {
      "inputs": [],
      "name": "allCollateralPoolsLength",
      "outputs": [
        {
          "internalType": "uint256",
          "name": "",
          "type": "uint256"
        }
      ],
      "stateMutability": "view",
      "type": "function"
    },
    {
      "inputs": [
        {
          "internalType": "address",
          "name": "_collateralToken",
          "type": "address"
        },
        {
          "internalType": "uint256",
          "name": "_collateralizationRatio",
          "type": "uint256"
        }
      ],
      "name": "createCollateralPool",
      "outputs": [
        {
          "internalType": "address",
          "name": "",
          "type": "address"
        }
      ],
      "stateMutability": "nonpayable",
      "type": "function"
    },
    {
      "inputs": [
        {
          "internalType": "address",
          "name": "",
          "type": "address"
        }
      ],
      "name": "getCollateralPoolByToken",
      "outputs": [
        {
          "internalType": "address",
          "name": "",
          "type": "address"
        }
      ],
      "stateMutability": "view",
      "type": "function"
    },
    {
      "inputs": [
        {
          "internalType": "address",
          "name": "_collateralToken",
          "type": "address"
        }
      ],
      "name": "isCollateral",
      "outputs": [
        {
          "internalType": "bool",
          "name": "",
          "type": "bool"
        }
      ],
      "stateMutability": "view",
      "type": "function"
    },
    {
      "inputs": [],
      "name": "owner",
      "outputs": [
        {
          "internalType": "address",
          "name": "",
          "type": "address"
        }
      ],
      "stateMutability": "view",
      "type": "function"
    },
    {
      "inputs": [
        {
          "internalType": "address",
          "name": "_collateralToken",
          "type": "address"
        },
        {
          "internalType": "uint256",
          "name": "_index",
          "type": "uint256"
        }
      ],
      "name": "removeCollateralPool",
      "outputs": [
        {
          "internalType": "bool",
          "name": "",
          "type": "bool"
        }
      ],
      "stateMutability": "nonpayable",
      "type": "function"
    },
    {
      "inputs": [],
      "name": "renounceOwnership",
      "outputs": [],
      "stateMutability": "nonpayable",
      "type": "function"
    },
    {
      "inputs": [
        {
          "internalType": "address",
          "name": "newOwner",
          "type": "address"
        }
      ],
      "name": "transferOwnership",
      "outputs": [],
      "stateMutability": "nonpayable",
      "type": "function"
    }
  ],
  "transactionHash": "0x13fe8d854e61ab37c03c8c34bc2c0a101e283250023985d85fa7a6b96561a603",
  "args": [],
  "numDeployments": 1,
  "solcInputHash": "4f511ac1c119e8e9520a01cfa46dea87",
  "bytecode": "0x608060405234801561001057600080fd5b5061001a33610023565b60018055610073565b600080546001600160a01b038381166001600160a01b0319831681178455604051919092169283917f8be0079c531659141344cd1fd0a4f28419497f9722a3daafe3b4186f6b6457e09190a35050565b61278f806100826000396000f3fe60806040523480156200001157600080fd5b5060043610620000a05760003560e01c80638b41c4fe116200006f5780638b41c4fe146200011f5780638da5cb5b1462000136578063dbd248e61462000148578063dc5f013e146200015f578063f2fde38b146200018b57620000a0565b80630ee21e5414620000a55780631b7293cd14620000d15780635df0f55014620000e3578063715018a61462000113575b600080fd5b620000bc620000b636600462000b57565b620001a2565b60405190151581526020015b60405180910390f35b600354604051908152602001620000c8565b620000fa620000f436600462000c5c565b620001d8565b6040516001600160a01b039091168152602001620000c8565b6200011d62000203565b005b620000fa6200013036600462000b7b565b62000247565b6000546001600160a01b0316620000fa565b620000bc6200015936600462000b7b565b62000670565b620000fa6200017036600462000b57565b6002602052600090815260409020546001600160a01b031681565b6200011d6200019c36600462000b57565b62000930565b6001600160a01b0381811660009081526002602052604081205490911615620001cd576001620001d0565b60005b90505b919050565b60038181548110620001e957600080fd5b6000918252602090912001546001600160a01b0316905081565b6000546001600160a01b03163314620002395760405162461bcd60e51b8152600401620002309062000dc8565b60405180910390fd5b620002456000620009d2565b565b6000826001600160a01b038116620002735760405162461bcd60e51b8152600401620002309062000d85565b8260008111620002d05760405162461bcd60e51b815260206004820152602160248201527f436f6c6c61746572616c506f6f6c466163746f72793a207a65726f2076616c756044820152606560f81b606482015260840162000230565b60026001541415620003255760405162461bcd60e51b815260206004820152601f60248201527f5265656e7472616e637947756172643a207265656e7472616e742063616c6c00604482015260640162000230565b60026001556000546001600160a01b03163314620003575760405162461bcd60e51b8152600401620002309062000dc8565b6001600160a01b038581166000908152600260205260409020541615620003df5760405162461bcd60e51b815260206004820152603560248201527f436f6c6c61746572616c506f6f6c466163746f72793a20636f6c6c61746572616044820152746c20706f6f6c20616c72656164792065786973747360581b606482015260840162000230565b6000606080876001600160a01b03166306fdde036040518163ffffffff1660e01b815260040160006040518083038186803b1580156200041e57600080fd5b505afa15801562000433573d6000803e3d6000fd5b505050506040513d6000823e601f3d908101601f191682016040526200045d919081019062000ba7565b6040516020016200046f919062000ccb565b6040516020818303038152906040529150876001600160a01b03166395d89b416040518163ffffffff1660e01b815260040160006040518083038186803b158015620004ba57600080fd5b505afa158015620004cf573d6000803e3d6000fd5b505050506040513d6000823e601f3d908101601f19168201604052620004f9919081019062000ba7565b6040516020016200050b919062000ca3565b6040516020818303038152906040529050818189896040516200052e9062000b31565b6200053d949392919062000d0a565b604051809103906000f0801580156200055a573d6000803e3d6000fd5b5060405163f2fde38b60e01b81523360048201529093506001600160a01b0384169063f2fde38b90602401600060405180830381600087803b158015620005a057600080fd5b505af1158015620005b5573d6000803e3d6000fd5b505050506001600160a01b0388811660008181526002602052604080822080546001600160a01b03199081169589169586179091556003805460018101825593527fc2575a0e9e593c00f959f8c92f12db2869c3395a3b0502d05e2516446f71f85b9092018054909216909317905590517f6e86e4d8eed057ac88a84132c45db161d6c5a1f32b997ed913edf0bef4fb47c290620006599085908b90889062000d50565b60405180910390a250506001805595945050505050565b600060026001541415620006c75760405162461bcd60e51b815260206004820152601f60248201527f5265656e7472616e637947756172643a207265656e7472616e742063616c6c00604482015260640162000230565b6002600155826001600160a01b038116620006f65760405162461bcd60e51b8152600401620002309062000d85565b6000546001600160a01b03163314620007235760405162461bcd60e51b8152600401620002309062000dc8565b6001600160a01b038085166000908152600260205260409020541680620007ab5760405162461bcd60e51b815260206004820152603560248201527f436f6c6c61746572616c506f6f6c466163746f72793a20636f6c6c61746572616044820152741b081c1bdbdb08191bd95cc81b9bdd08195e1a5cdd605a1b606482015260840162000230565b6003548410620008135760405162461bcd60e51b815260206004820152602c60248201527f436f6c6c61746572616c506f6f6c466163746f72793a20696e6465782069732060448201526b6f7574206f662072616e676560a01b606482015260840162000230565b600384815481106200083557634e487b7160e01b600052603260045260246000fd5b6000918252602090912001546001600160a01b03828116911614620008b15760405162461bcd60e51b815260206004820152602b60248201527f436f6c6c61746572616c506f6f6c466163746f72793a20696e6465782069732060448201526a1b9bdd0818dbdc9c9958dd60aa1b606482015260840162000230565b6001600160a01b038516600090815260026020526040902080546001600160a01b0319169055620008e28462000a22565b6040516001600160a01b0382811682528616907fc32b19b2496954379b1aca293ceef03a9f78ec6bd7114c2e7a82dfa6c33017a39060200160405180910390a2505060018080559392505050565b6000546001600160a01b031633146200095d5760405162461bcd60e51b8152600401620002309062000dc8565b6001600160a01b038116620009c45760405162461bcd60e51b815260206004820152602660248201527f4f776e61626c653a206e6577206f776e657220697320746865207a65726f206160448201526564647265737360d01b606482015260840162000230565b620009cf81620009d2565b50565b600080546001600160a01b038381166001600160a01b0319831681178455604051919092169283917f8be0079c531659141344cd1fd0a4f28419497f9722a3daafe3b4186f6b6457e09190a35050565b805b600162000a3060035490565b62000a3c919062000e18565b81101562000aeb57600362000a5382600162000dfd565b8154811062000a7257634e487b7160e01b600052603260045260246000fd5b600091825260209091200154600380546001600160a01b03909216918390811062000aad57634e487b7160e01b600052603260045260246000fd5b600091825260209091200180546001600160a01b0319166001600160a01b03929092169190911790558062000ae28162000e65565b91505062000a24565b50600380548062000b0c57634e487b7160e01b600052603160045260246000fd5b600082815260209020810160001990810180546001600160a01b031916905501905550565b6118aa8062000eb083390190565b80356001600160a01b0381168114620001d357600080fd5b60006020828403121562000b69578081fd5b62000b748262000b3f565b9392505050565b6000806040838503121562000b8e578081fd5b62000b998362000b3f565b946020939093013593505050565b60006020828403121562000bb9578081fd5b815167ffffffffffffffff8082111562000bd1578283fd5b818401915084601f83011262000be5578283fd5b81518181111562000bfa5762000bfa62000e99565b604051601f8201601f19908116603f0116810190838211818310171562000c255762000c2562000e99565b8160405282815287602084870101111562000c3e578586fd5b62000c5183602083016020880162000e32565b979650505050505050565b60006020828403121562000c6e578081fd5b5035919050565b6000815180845262000c8f81602086016020860162000e32565b601f01601f19169290920160200192915050565b6000825162000cb781846020870162000e32565b61043560f41b920191825250600201919050565b6000825162000cdf81846020870162000e32565b602d60f81b9201918252506e10dbdb1b185d195c985b0b541bdbdb608a1b6001820152601001919050565b60006080825262000d1f608083018762000c75565b828103602084015262000d33818762000c75565b6001600160a01b0395909516604084015250506060015292915050565b60006060825262000d65606083018662000c75565b6020830194909452506001600160a01b0391909116604090910152919050565b60208082526023908201527f436f6c6c61746572616c506f6f6c466163746f72793a207a65726f206164647260408201526265737360e81b606082015260800190565b6020808252818101527f4f776e61626c653a2063616c6c6572206973206e6f7420746865206f776e6572604082015260600190565b6000821982111562000e135762000e1362000e83565b500190565b60008282101562000e2d5762000e2d62000e83565b500390565b60005b8381101562000e4f57818101518382015260200162000e35565b8381111562000e5f576000848401525b50505050565b600060001982141562000e7c5762000e7c62000e83565b5060010190565b634e487b7160e01b600052601160045260246000fd5b634e487b7160e01b600052604160045260246000fdfe60806040523480156200001157600080fd5b50604051620018aa380380620018aa833981016040819052620000349162000305565b83836000826003908051906020019062000050929190620001ac565b50815162000066906004906020850190620001ac565b5080156200007a576200007a3382620000c9565b50505062000097620000916200015660201b60201c565b6200015a565b6001600655600780546001600160a01b0319166001600160a01b039390931692909217909155600855506200040c9050565b8060026000828254620000dd919062000394565b90915550506001600160a01b038216600090815260208190526040812080548392906200010c90849062000394565b90915550506040518181526001600160a01b038316906000907fddf252ad1be2c89b69c2b068fc378daa952ba7f163c4a11628f55a4df523b3ef9060200160405180910390a35050565b3390565b600580546001600160a01b038381166001600160a01b0319831681179093556040519116919082907f8be0079c531659141344cd1fd0a4f28419497f9722a3daafe3b4186f6b6457e090600090a35050565b828054620001ba90620003b9565b90600052602060002090601f016020900481019282620001de576000855562000229565b82601f10620001f957805160ff191683800117855562000229565b8280016001018555821562000229579182015b82811115620002295782518255916020019190600101906200020c565b50620002379291506200023b565b5090565b5b808211156200023757600081556001016200023c565b600082601f83011262000263578081fd5b81516001600160401b0380821115620002805762000280620003f6565b604051601f8301601f19908116603f01168101908282118183101715620002ab57620002ab620003f6565b81604052838152602092508683858801011115620002c7578485fd5b8491505b83821015620002ea5785820183015181830184015290820190620002cb565b83821115620002fb57848385830101525b9695505050505050565b600080600080608085870312156200031b578384fd5b84516001600160401b038082111562000332578586fd5b620003408883890162000252565b9550602087015191508082111562000356578485fd5b50620003658782880162000252565b604087015190945090506001600160a01b038116811462000384578283fd5b6060959095015193969295505050565b60008219821115620003b457634e487b7160e01b81526011600452602481fd5b500190565b600281046001821680620003ce57607f821691505b60208210811415620003f057634e487b7160e01b600052602260045260246000fd5b50919050565b634e487b7160e01b600052604160045260246000fd5b61148e806200041c6000396000f3fe608060405234801561001057600080fd5b50600436106101425760003560e01c8063715018a6116100b8578063a9059cbb1161007c578063a9059cbb1461029a578063b2016bd4146102ad578063dcaf9c44146102c0578063dd62ed3e146102c9578063e5829d2014610302578063f2fde38b1461031557610142565b8063715018a6146102485780638da5cb5b1461025257806395d89b41146102775780639840c0511461027f578063a457c2d71461028757610142565b8063313ce5671161010a578063313ce567146101c45780633237c158146101d3578063392f2ddd146101e657806339509351146101f95780636d75b9ee1461020c57806370a082311461021f57610142565b806306fdde0314610147578063095ea7b31461016557806313f5a46e1461018857806318160ddd146101a957806323b872dd146101b1575b600080fd5b61014f610328565b60405161015c9190611247565b60405180910390f35b6101786101733660046111ce565b6103ba565b604051901515815260200161015c565b61019b610196366004611217565b6103d0565b60405190815260200161015c565b60025461019b565b6101786101bf366004611193565b610450565b6040516012815260200161015c565b6101786101e1366004611217565b6104ff565b61019b6101f4366004611217565b6106ea565b6101786102073660046111ce565b610746565b61017861021a3660046111ce565b61077d565b61019b61022d366004611140565b6001600160a01b031660009081526020819052604090205490565b610250610972565b005b6005546001600160a01b03165b6040516001600160a01b03909116815260200161015c565b61014f6109a8565b61019b6109b7565b6101786102953660046111ce565b610a38565b6101786102a83660046111ce565b610ad3565b60075461025f906001600160a01b031681565b61019b60085481565b61019b6102d7366004611161565b6001600160a01b03918216600090815260016020908152604080832093909416825291909152205490565b610250610310366004611217565b610ae0565b610250610323366004611140565b610b67565b60606003805461033790611407565b80601f016020809104026020016040519081016040528092919081815260200182805461036390611407565b80156103b05780601f10610385576101008083540402835291602001916103b0565b820191906000526020600020905b81548152906001019060200180831161039357829003601f168201915b5050505050905090565b60006103c7338484610c02565b50600192915050565b6000806103db6109b7565b116104015760405162461bcd60e51b81526004016103f89061129a565b60405180910390fd5b8161040a6109b7565b10156104285760405162461bcd60e51b81526004016103f8906112e2565b6104306109b7565b6002545b61043e90846113d1565b61044891906113b1565b90505b919050565b6001600160a01b0383166000908152600160209081526040808320338452909152812054828110156104d55760405162461bcd60e51b815260206004820152602860248201527f45524332303a207472616e7366657220616d6f756e74206578636565647320616044820152676c6c6f77616e636560c01b60648201526084016103f8565b6104e0858585610d27565b6104f485336104ef86856113f0565b610c02565b506001949350505050565b600081600081116105225760405162461bcd60e51b81526004016103f890611362565b600260065414156105755760405162461bcd60e51b815260206004820152601f60248201527f5265656e7472616e637947756172643a207265656e7472616e742063616c6c0060448201526064016103f8565b6002600655336000908152602081905260409020548311156105e75760405162461bcd60e51b815260206004820152602560248201527f436f6c6c61746572616c506f6f6c3a2062616c616e6365206973206e6f7420656044820152640dcdeeaced60db1b60648201526084016103f8565b60006105f260025490565b6105fa6109b7565b61060490866113d1565b61060e91906113b1565b905061061a3385610eff565b60075460405163a9059cbb60e01b8152336004820152602481018390526001600160a01b039091169063a9059cbb90604401602060405180830381600087803b15801561066657600080fd5b505af115801561067a573d6000803e3d6000fd5b505050506040513d601f19601f8201168201806040525081019061069e91906111f7565b50604080518281526020810186905233917fdec5d726a70bdc7ab7e167507e34e068ab89db504d9ddcb08618c73a1f10a93e910160405180910390a26001925050506001600655919050565b6000806106f660025490565b116107135760405162461bcd60e51b81526004016103f89061129a565b8161071d60025490565b101561073b5760405162461bcd60e51b81526004016103f8906112e2565b6002546104346109b7565b3360008181526001602090815260408083206001600160a01b038716845290915281205490916103c79185906104ef908690611399565b6000826001600160a01b0381166107d65760405162461bcd60e51b815260206004820152601c60248201527f436f6c6c61746572616c506f6f6c3a207a65726f20616464726573730000000060448201526064016103f8565b82600081116107f75760405162461bcd60e51b81526004016103f890611362565b6002600654141561084a5760405162461bcd60e51b815260206004820152601f60248201527f5265656e7472616e637947756172643a207265656e7472616e742063616c6c0060448201526064016103f8565b6002600655600061085a60025490565b610865575083610887565b61086d6109b7565b60025461087a90876113d1565b61088491906113b1565b90505b6007546040516323b872dd60e01b8152336004820152306024820152604481018790526001600160a01b03909116906323b872dd90606401602060405180830381600087803b1580156108d957600080fd5b505af11580156108ed573d6000803e3d6000fd5b505050506040513d601f19601f8201168201806040525081019061091191906111f7565b5061091c868261104e565b60408051868152602081018390526001600160a01b038816917fe3f4fa74d049cf7d64965afd6ce83c826cd313cec824ecfb9aacf36886090b49910160405180910390a260019350505050600160065592915050565b6005546001600160a01b0316331461099c5760405162461bcd60e51b81526004016103f89061132d565b6109a660006110d7565b565b60606004805461033790611407565b6007546040516370a0823160e01b81523060048201526000916001600160a01b0316906370a082319060240160206040518083038186803b1580156109fb57600080fd5b505afa158015610a0f573d6000803e3d6000fd5b505050506040513d601f19601f82011682018060405250810190610a33919061122f565b905090565b3360009081526001602090815260408083206001600160a01b038616845290915281205482811015610aba5760405162461bcd60e51b815260206004820152602560248201527f45524332303a2064656372656173656420616c6c6f77616e63652062656c6f77604482015264207a65726f60d81b60648201526084016103f8565b610ac933856104ef86856113f0565b5060019392505050565b60006103c7338484610d27565b8060008111610b015760405162461bcd60e51b81526004016103f890611362565b6005546001600160a01b03163314610b2b5760405162461bcd60e51b81526004016103f89061132d565b60088290556040518281527f32ee0fd0bed6a8753cf0220b8f877863f3d7717d635327b185b063950ffab8589060200160405180910390a15050565b6005546001600160a01b03163314610b915760405162461bcd60e51b81526004016103f89061132d565b6001600160a01b038116610bf65760405162461bcd60e51b815260206004820152602660248201527f4f776e61626c653a206e6577206f776e657220697320746865207a65726f206160448201526564647265737360d01b60648201526084016103f8565b610bff816110d7565b50565b6001600160a01b038316610c645760405162461bcd60e51b8152602060048201526024808201527f45524332303a20617070726f76652066726f6d20746865207a65726f206164646044820152637265737360e01b60648201526084016103f8565b6001600160a01b038216610cc55760405162461bcd60e51b815260206004820152602260248201527f45524332303a20617070726f766520746f20746865207a65726f206164647265604482015261737360f01b60648201526084016103f8565b6001600160a01b0383811660008181526001602090815260408083209487168084529482529182902085905590518481527f8c5be1e5ebec7d5bd14f71427d1e84f3dd0314c0f7b2291e5b200ac8c7c3b92591015b60405180910390a3505050565b6001600160a01b038316610d8b5760405162461bcd60e51b815260206004820152602560248201527f45524332303a207472616e736665722066726f6d20746865207a65726f206164604482015264647265737360d81b60648201526084016103f8565b6001600160a01b038216610ded5760405162461bcd60e51b815260206004820152602360248201527f45524332303a207472616e7366657220746f20746865207a65726f206164647260448201526265737360e81b60648201526084016103f8565b6001600160a01b03831660009081526020819052604090205481811015610e655760405162461bcd60e51b815260206004820152602660248201527f45524332303a207472616e7366657220616d6f756e7420657863656564732062604482015265616c616e636560d01b60648201526084016103f8565b610e6f82826113f0565b6001600160a01b038086166000908152602081905260408082209390935590851681529081208054849290610ea5908490611399565b92505081905550826001600160a01b0316846001600160a01b03167fddf252ad1be2c89b69c2b068fc378daa952ba7f163c4a11628f55a4df523b3ef84604051610ef191815260200190565b60405180910390a350505050565b6001600160a01b038216610f5f5760405162461bcd60e51b815260206004820152602160248201527f45524332303a206275726e2066726f6d20746865207a65726f206164647265736044820152607360f81b60648201526084016103f8565b6001600160a01b03821660009081526020819052604090205481811015610fd35760405162461bcd60e51b815260206004820152602260248201527f45524332303a206275726e20616d6f756e7420657863656564732062616c616e604482015261636560f01b60648201526084016103f8565b610fdd82826113f0565b6001600160a01b0384166000908152602081905260408120919091556002805484929061100b9084906113f0565b90915550506040518281526000906001600160a01b038516907fddf252ad1be2c89b69c2b068fc378daa952ba7f163c4a11628f55a4df523b3ef90602001610d1a565b80600260008282546110609190611399565b90915550506001600160a01b0382166000908152602081905260408120805483929061108d908490611399565b90915550506040518181526001600160a01b038316906000907fddf252ad1be2c89b69c2b068fc378daa952ba7f163c4a11628f55a4df523b3ef9060200160405180910390a35050565b600580546001600160a01b038381166001600160a01b0319831681179093556040519116919082907f8be0079c531659141344cd1fd0a4f28419497f9722a3daafe3b4186f6b6457e090600090a35050565b80356001600160a01b038116811461044b57600080fd5b600060208284031215611151578081fd5b61115a82611129565b9392505050565b60008060408385031215611173578081fd5b61117c83611129565b915061118a60208401611129565b90509250929050565b6000806000606084860312156111a7578081fd5b6111b084611129565b92506111be60208501611129565b9150604084013590509250925092565b600080604083850312156111e0578182fd5b6111e983611129565b946020939093013593505050565b600060208284031215611208578081fd5b8151801515811461115a578182fd5b600060208284031215611228578081fd5b5035919050565b600060208284031215611240578081fd5b5051919050565b6000602080835283518082850152825b8181101561127357858101830151858201604001528201611257565b818111156112845783604083870101525b50601f01601f1916929092016040019392505050565b60208082526028908201527f436f6c6c61746572616c506f6f6c3a20636f6c6c61746572616c20706f6f6c20604082015267697320656d70747960c01b606082015260800190565b6020808252602b908201527f436f6c6c61746572616c506f6f6c3a206c6971756964697479206973206e6f7460408201526a081cdd59999a58da595b9d60aa1b606082015260800190565b6020808252818101527f4f776e61626c653a2063616c6c6572206973206e6f7420746865206f776e6572604082015260600190565b6020808252601a908201527f436f6c6c61746572616c506f6f6c3a207a65726f2076616c7565000000000000604082015260600190565b600082198211156113ac576113ac611442565b500190565b6000826113cc57634e487b7160e01b81526012600452602481fd5b500490565b60008160001904831182151516156113eb576113eb611442565b500290565b60008282101561140257611402611442565b500390565b60028104600182168061141b57607f821691505b6020821081141561143c57634e487b7160e01b600052602260045260246000fd5b50919050565b634e487b7160e01b600052601160045260246000fdfea26469706673582212200456e587f8c64d988607d055c404e9cc2ffade7353d552e3b1e10fa974be64fa64736f6c63430008020033a2646970667358221220627caf6514aefb1c64ec457c1badf0465e66af9285902daa5e02e83f7fb3fc9664736f6c63430008020033",
  "devdoc": {
    "kind": "dev",
    "methods": {
      "allCollateralPoolsLength()": {
        "returns": {
          "_0": "Total number of collateral pools"
        }
      },
      "createCollateralPool(address,uint256)": {
        "details": "Only owner can call this",
        "params": {
          "_collateralToken": "Address of underlying collateral token",
          "_collateralizationRatio": "The ratio of over collateralization"
        },
        "returns": {
          "_0": "Address of newly created collateral pool"
        }
      },
      "isCollateral(address)": {
        "params": {
          "_collateralToken": "Address of collateral token"
        },
        "returns": {
          "_0": "True if the corresponding collateral pool exists"
        }
      },
      "owner()": {
        "details": "Returns the address of the current owner."
      },
      "removeCollateralPool(address,uint256)": {
        "details": "Only owner can call this",
        "params": {
          "_collateralToken": "Address of underlying collateral token",
          "_index": "Index of collateral pool in allCollateralPools"
        },
        "returns": {
          "_0": "True if collateral pool is removed successfully"
        }
      },
      "renounceOwnership()": {
        "details": "Leaves the contract without owner. It will not be possible to call `onlyOwner` functions anymore. Can only be called by the current owner. NOTE: Renouncing ownership will leave the contract without an owner, thereby removing any functionality that is only available to the owner."
      },
      "transferOwnership(address)": {
        "details": "Transfers ownership of the contract to a new account (`newOwner`). Can only be called by the current owner."
      }
    },
    "version": 1
  },
  "userdoc": {
    "events": {
      "CreateCollateralPool(string,address,uint256,address)": {
        "notice": "Emits when a collateral pool is created"
      },
      "RemoveCollateralPool(address,address)": {
        "notice": "Emits when a collateral pool is removed"
      }
    },
    "kind": "user",
    "methods": {
      "constructor": {
        "notice": "This contract creates collateral pool for tokens"
      },
      "createCollateralPool(address,uint256)": {
        "notice": "Creates a new collateral pool"
      },
      "isCollateral(address)": {
        "notice": "Checks that whether the token is accepted as collateral or not"
      },
      "removeCollateralPool(address,uint256)": {
        "notice": "Removes an existing collateral pool"
      }
    },
    "version": 1
  },
  "storageLayout": {
    "storage": [
      {
        "astId": 807,
        "contract": "contracts/pools/CollateralPoolFactory.sol:CollateralPoolFactory",
        "label": "_owner",
        "offset": 0,
        "slot": "0",
        "type": "t_address"
      },
      {
        "astId": 1634,
        "contract": "contracts/pools/CollateralPoolFactory.sol:CollateralPoolFactory",
        "label": "_status",
        "offset": 0,
        "slot": "1",
        "type": "t_uint256"
      },
      {
        "astId": 15146,
        "contract": "contracts/pools/CollateralPoolFactory.sol:CollateralPoolFactory",
        "label": "getCollateralPoolByToken",
        "offset": 0,
        "slot": "2",
        "type": "t_mapping(t_address,t_address)"
      },
      {
        "astId": 15150,
        "contract": "contracts/pools/CollateralPoolFactory.sol:CollateralPoolFactory",
        "label": "allCollateralPools",
        "offset": 0,
        "slot": "3",
        "type": "t_array(t_address)dyn_storage"
      }
    ],
    "types": {
      "t_address": {
        "encoding": "inplace",
        "label": "address",
        "numberOfBytes": "20"
      },
      "t_array(t_address)dyn_storage": {
        "base": "t_address",
        "encoding": "dynamic_array",
        "label": "address[]",
        "numberOfBytes": "32"
      },
      "t_mapping(t_address,t_address)": {
        "encoding": "mapping",
        "key": "t_address",
        "label": "mapping(address => address)",
        "numberOfBytes": "32",
        "value": "t_address"
      },
      "t_uint256": {
        "encoding": "inplace",
        "label": "uint256",
        "numberOfBytes": "32"
      }
    }
  }
}