{
  "address": "0x4eb68d409534baa008694a7092E67D6eF275D61b",
  "abi": [
    {
      "anonymous": false,
      "inputs": [
        {
          "indexed": false,
          "internalType": "address",
          "name": "oldAcross",
          "type": "address"
        },
        {
          "indexed": false,
          "internalType": "address",
          "name": "newAcross",
          "type": "address"
        }
      ],
      "name": "AcrossUpdated",
      "type": "event"
    },
    {
      "anonymous": false,
      "inputs": [
        {
          "indexed": false,
          "internalType": "uint8",
          "name": "version",
          "type": "uint8"
        }
      ],
      "name": "Initialized",
      "type": "event"
    },
    {
      "anonymous": false,
      "inputs": [
        {
          "indexed": false,
          "internalType": "address",
          "name": "token",
          "type": "address"
        },
        {
          "indexed": false,
          "internalType": "uint256",
          "name": "minAmount",
          "type": "uint256"
        }
      ],
      "name": "MinAmountUpdated",
      "type": "event"
    },
    {
      "anonymous": false,
      "inputs": [
        {
          "indexed": false,
          "internalType": "uint256",
          "name": "oldMinModifier",
          "type": "uint256"
        },
        {
          "indexed": false,
          "internalType": "uint256",
          "name": "newMinModifier",
          "type": "uint256"
        }
      ],
      "name": "MinModifierUpdated",
      "type": "event"
    },
    {
      "anonymous": false,
      "inputs": [
        {
          "indexed": false,
          "internalType": "uint256",
          "name": "uniqueCounter",
          "type": "uint256"
        },
        {
          "indexed": false,
          "internalType": "string",
          "name": "functionName",
          "type": "string"
        },
        {
          "indexed": false,
          "internalType": "bytes",
          "name": "data",
          "type": "bytes"
        },
        {
          "indexed": false,
          "internalType": "address",
          "name": "sourceChainInputToken",
          "type": "address"
        },
        {
          "indexed": false,
          "internalType": "uint256",
          "name": "amount",
          "type": "uint256"
        }
      ],
      "name": "MsgSent",
      "type": "event"
    },
    {
      "anonymous": false,
      "inputs": [
        {
          "indexed": true,
          "internalType": "address",
          "name": "previousOwner",
          "type": "address"
        },
        {
          "indexed": true,
          "internalType": "address",
          "name": "newOwner",
          "type": "address"
        }
      ],
      "name": "OwnershipTransferred",
      "type": "event"
    },
    {
      "anonymous": false,
      "inputs": [
        {
          "indexed": false,
          "internalType": "address",
          "name": "account",
          "type": "address"
        }
      ],
      "name": "Paused",
      "type": "event"
    },
    {
      "anonymous": false,
      "inputs": [
        {
          "indexed": false,
          "internalType": "address",
          "name": "oldPolygonConnector",
          "type": "address"
        },
        {
          "indexed": false,
          "internalType": "address",
          "name": "newPolygonConnector",
          "type": "address"
        }
      ],
      "name": "PolygonConnectorUpdated",
      "type": "event"
    },
    {
      "anonymous": false,
      "inputs": [
        {
          "indexed": false,
          "internalType": "address",
          "name": "oldPolygonTeleBtc",
          "type": "address"
        },
        {
          "indexed": false,
          "internalType": "address",
          "name": "newPolygonTeleBtc",
          "type": "address"
        }
      ],
      "name": "PolygonTeleBtcUpdated",
      "type": "event"
    },
    {
      "anonymous": false,
      "inputs": [
        {
          "indexed": false,
          "internalType": "address",
          "name": "account",
          "type": "address"
        }
      ],
      "name": "Unpaused",
      "type": "event"
    },
    {
      "anonymous": false,
      "inputs": [
        {
          "indexed": false,
          "internalType": "address",
          "name": "oldWrappedNativeToken",
          "type": "address"
        },
        {
          "indexed": false,
          "internalType": "address",
          "name": "newWrappedNativeToken",
          "type": "address"
        }
      ],
      "name": "WrappedNativeTokenUpdated",
      "type": "event"
    },
    {
      "inputs": [],
      "name": "ETH_ADDR",
      "outputs": [
        {
          "internalType": "address",
          "name": "",
          "type": "address"
        }
      ],
      "stateMutability": "view",
      "type": "function"
    },
    {
      "inputs": [],
      "name": "ONE_HUNDRED_PERCENT",
      "outputs": [
        {
          "internalType": "uint256",
          "name": "",
          "type": "uint256"
        }
      ],
      "stateMutability": "view",
      "type": "function"
    },
    {
      "inputs": [],
      "name": "across",
      "outputs": [
        {
          "internalType": "address",
          "name": "",
          "type": "address"
        }
      ],
      "stateMutability": "view",
      "type": "function"
    },
    {
      "inputs": [
        {
          "internalType": "address",
          "name": "_token",
          "type": "address"
        },
        {
          "internalType": "address",
          "name": "_to",
          "type": "address"
        },
        {
          "internalType": "uint256",
          "name": "_amount",
          "type": "uint256"
        }
      ],
      "name": "emergencyWithdraw",
      "outputs": [],
      "stateMutability": "nonpayable",
      "type": "function"
    },
    {
      "inputs": [
        {
          "internalType": "address",
          "name": "_token",
          "type": "address"
        },
        {
          "internalType": "address",
          "name": "_exchangeConnector",
          "type": "address"
        },
        {
          "internalType": "uint256[]",
          "name": "_amounts",
          "type": "uint256[]"
        },
        {
          "internalType": "address[]",
          "name": "_path",
          "type": "address[]"
        },
        {
          "internalType": "bytes",
          "name": "_userScript",
          "type": "bytes"
        },
        {
          "internalType": "enum ScriptTypes",
          "name": "_scriptType",
          "type": "uint8"
        },
        {
          "internalType": "bytes",
          "name": "_lockerLockingScript",
          "type": "bytes"
        },
        {
          "internalType": "int64",
          "name": "_relayerFeePercentage",
          "type": "int64"
        },
        {
          "internalType": "uint256",
          "name": "thirdParty",
          "type": "uint256"
        }
      ],
      "name": "exchangeForBtcAcross",
      "outputs": [],
      "stateMutability": "payable",
      "type": "function"
    },
    {
      "inputs": [
        {
          "internalType": "address",
          "name": "_polygonTeleBTC",
          "type": "address"
        },
        {
          "internalType": "address",
          "name": "_across",
          "type": "address"
        },
        {
          "internalType": "address",
          "name": "_wrappedNativeToken",
          "type": "address"
        },
        {
          "internalType": "uint256",
          "name": "_targetChainId",
          "type": "uint256"
        }
      ],
      "name": "initialize",
      "outputs": [],
      "stateMutability": "nonpayable",
      "type": "function"
    },
    {
      "inputs": [
        {
          "internalType": "address",
          "name": "",
          "type": "address"
        }
      ],
      "name": "minAmounts",
      "outputs": [
        {
          "internalType": "uint256",
          "name": "",
          "type": "uint256"
        }
      ],
      "stateMutability": "view",
      "type": "function"
    },
    {
      "inputs": [],
      "name": "minModifier",
      "outputs": [
        {
          "internalType": "uint256",
          "name": "",
          "type": "uint256"
        }
      ],
      "stateMutability": "view",
      "type": "function"
    },
    {
      "inputs": [],
      "name": "owner",
      "outputs": [
        {
          "internalType": "address",
          "name": "",
          "type": "address"
        }
      ],
      "stateMutability": "view",
      "type": "function"
    },
    {
      "inputs": [],
      "name": "paused",
      "outputs": [
        {
          "internalType": "bool",
          "name": "",
          "type": "bool"
        }
      ],
      "stateMutability": "view",
      "type": "function"
    },
    {
      "inputs": [],
      "name": "polygonConnectorProxy",
      "outputs": [
        {
          "internalType": "address",
          "name": "",
          "type": "address"
        }
      ],
      "stateMutability": "view",
      "type": "function"
    },
    {
      "inputs": [],
      "name": "polygonTeleBTC",
      "outputs": [
        {
          "internalType": "address",
          "name": "",
          "type": "address"
        }
      ],
      "stateMutability": "view",
      "type": "function"
    },
    {
      "inputs": [],
      "name": "renounceOwnership",
      "outputs": [],
      "stateMutability": "nonpayable",
      "type": "function"
    },
    {
      "inputs": [
        {
          "internalType": "address",
          "name": "_across",
          "type": "address"
        }
      ],
      "name": "setAcross",
      "outputs": [],
      "stateMutability": "nonpayable",
      "type": "function"
    },
    {
      "inputs": [
        {
          "internalType": "address",
          "name": "_token",
          "type": "address"
        },
        {
          "internalType": "uint256",
          "name": "_minAmount",
          "type": "uint256"
        }
      ],
      "name": "setMinAmount",
      "outputs": [],
      "stateMutability": "nonpayable",
      "type": "function"
    },
    {
      "inputs": [
        {
          "internalType": "uint256",
          "name": "_minModifier",
          "type": "uint256"
        }
      ],
      "name": "setMinModifier",
      "outputs": [],
      "stateMutability": "nonpayable",
      "type": "function"
    },
    {
      "inputs": [
        {
          "internalType": "address",
          "name": "_polygonConnectorProxy",
          "type": "address"
        }
      ],
      "name": "setPolygonConnectorProxy",
      "outputs": [],
      "stateMutability": "nonpayable",
      "type": "function"
    },
    {
      "inputs": [
        {
          "internalType": "address",
          "name": "_polygonTeleBTC",
          "type": "address"
        }
      ],
      "name": "setPolygonTeleBTC",
      "outputs": [],
      "stateMutability": "nonpayable",
      "type": "function"
    },
    {
      "inputs": [
        {
          "internalType": "address",
          "name": "_wrappedNativeToken",
          "type": "address"
        }
      ],
      "name": "setWrappedNativeToken",
      "outputs": [],
      "stateMutability": "nonpayable",
      "type": "function"
    },
    {
      "inputs": [],
      "name": "targetChainId",
      "outputs": [
        {
          "internalType": "uint256",
          "name": "",
          "type": "uint256"
        }
      ],
      "stateMutability": "view",
      "type": "function"
    },
    {
      "inputs": [
        {
          "internalType": "address",
          "name": "newOwner",
          "type": "address"
        }
      ],
      "name": "transferOwnership",
      "outputs": [],
      "stateMutability": "nonpayable",
      "type": "function"
    },
    {
      "inputs": [],
      "name": "uniqueCounter",
      "outputs": [
        {
          "internalType": "uint256",
          "name": "",
          "type": "uint256"
        }
      ],
      "stateMutability": "view",
      "type": "function"
    },
    {
      "inputs": [],
      "name": "wrappedNativeToken",
      "outputs": [
        {
          "internalType": "address",
          "name": "",
          "type": "address"
        }
      ],
      "stateMutability": "view",
      "type": "function"
    }
  ],
  "transactionHash": "0x015f59f93c52b4a0c01af9988c9bc8056fa939534b4561ffa38730dea8203fda",
  "args": [],
  "numDeployments": 1,
  "solcInputHash": "4dbbda3723d3a5f07b26d477d3c1ab0a",
  "bytecode": "0x608060405234801561001057600080fd5b50611ce0806100206000396000f3fe6080604052600436106101805760003560e01c80638da5cb5b116100d6578063d5708d5a1161007f578063e63ea40811610059578063e63ea40814610408578063ec464fde14610428578063f2fde38b1461044857610180565b8063d5708d5a146103b2578063da058ae3146103d2578063dd0081c7146103f257610180565b8063be0367b8116100b0578063be0367b81461035c578063cf756fdf1461037c578063d4dfc8c31461039c57610180565b80638da5cb5b146102f15780639c5e52d51461030f578063ac632db21461033c57610180565b806361be10f2116101385780637753f47b116101125780637753f47b146102935780637c9ae564146102bb5780638820bb56146102d157610180565b806361be10f21461024b5780636f84d4b31461026b578063715018a61461027e57610180565b806323d859a01161016957806323d859a0146101e6578063292c1d92146102085780635c975abb1461022857610180565b8063146ffb261461018557806317fcb39b146101ae575b600080fd5b34801561019157600080fd5b5061019b60035481565b6040519081526020015b60405180910390f35b3480156101ba57600080fd5b506004546101ce906001600160a01b031681565b6040516001600160a01b0390911681526020016101a5565b3480156101f257600080fd5b5061020661020136600461171c565b610468565b005b34801561021457600080fd5b506000546101ce906001600160a01b031681565b34801561023457600080fd5b50609f5460ff1660405190151581526020016101a5565b34801561025757600080fd5b5061020661026636600461171c565b61047c565b610206610279366004611780565b61048d565b34801561028a57600080fd5b506102066105ca565b34801561029f57600080fd5b506101ce73eeeeeeeeeeeeeeeeeeeeeeeeeeeeeeeeeeeeeeee81565b3480156102c757600080fd5b5061019b60065481565b3480156102dd57600080fd5b506102066102ec366004611924565b6105de565b3480156102fd57600080fd5b50603b546001600160a01b03166101ce565b34801561031b57600080fd5b5061019b61032a36600461171c565b60056020526000908152604090205481565b34801561034857600080fd5b506001546101ce906001600160a01b031681565b34801561036857600080fd5b506002546101ce906001600160a01b031681565b34801561038857600080fd5b50610206610397366004611736565b6105ef565b3480156103a857600080fd5b5061019b60075481565b3480156103be57600080fd5b506102066103cd3660046118db565b61075f565b3480156103de57600080fd5b506102066103ed36600461171c565b610775565b3480156103fe57600080fd5b5061019b61271081565b34801561041457600080fd5b506102066104233660046118a0565b610786565b34801561043457600080fd5b5061020661044336600461171c565b6108ab565b34801561045457600080fd5b5061020661046336600461171c565b6108bc565b610470610949565b610479816109a3565b50565b610484610949565b61047981610a0c565b610495610a75565b6104a28c8b8b8b8b610acf565b6000600754338d8d8d60018181106104ca57634e487b7160e01b600052603260045260246000fd5b905060200201358c8c8c8c8c8c8b6040516020016104f29b9a99989796959493929190611a8d565b60405160208183030381529060405290507f1d8f6a1003d585cfcda68c8a9a5dfc25915d8c9d21e03f18f8a7916d91e8ddc7600754828f8e8e600081811061054a57634e487b7160e01b600052603260045260246000fd5b905060200201356040516105619493929190611b4f565b60405180910390a16007805490600061057983611c3a565b91905055506105b18d8c8c60008181106105a357634e487b7160e01b600052603260045260246000fd5b905060200201358386610cf3565b506105bc6001606d55565b505050505050505050505050565b6105d2610949565b6105dc6000610fa7565b565b6105e6610949565b61047981610ff9565b600854610100900460ff161580801561060f5750600854600160ff909116105b80610630575061061e3061103a565b158015610630575060085460ff166001145b6106a75760405162461bcd60e51b815260206004820152602e60248201527f496e697469616c697a61626c653a20636f6e747261637420697320616c72656160448201527f647920696e697469616c697a656400000000000000000000000000000000000060648201526084015b60405180910390fd5b6008805460ff1916600117905580156106ca576008805461ff0019166101001790555b6106d261104d565b6106da6110c0565b6106e2611133565b6106eb856111a6565b6106f484610a0c565b6106fd8361120f565b600382905561070d612710610ff9565b60006007558015610758576008805461ff0019169055604051600181527f7f26b83ff96e1f2b6a682f133852f6798a09c465da95921460cefb38474024989060200160405180910390a15b5050505050565b610767610949565b6107718282611278565b5050565b61077d610949565b6104798161120f565b61078e610949565b6001600160a01b03831673eeeeeeeeeeeeeeeeeeeeeeeeeeeeeeeeeeeeeeee1415610809576040516001600160a01b038316908290600081818185875af1925050503d80600081146107fc576040519150601f19603f3d011682016040523d82523d6000602084013e610801565b606091505b5050506108a6565b6040517fa9059cbb0000000000000000000000000000000000000000000000000000000081526001600160a01b0383811660048301526024820183905284169063a9059cbb90604401602060405180830381600087803b15801561086c57600080fd5b505af1158015610880573d6000803e3d6000fd5b505050506040513d601f19601f820116820180604052508101906108a49190611904565b505b505050565b6108b3610949565b610479816111a6565b6108c4610949565b6001600160a01b0381166109405760405162461bcd60e51b815260206004820152602660248201527f4f776e61626c653a206e6577206f776e657220697320746865207a65726f206160448201527f6464726573730000000000000000000000000000000000000000000000000000606482015260840161069e565b61047981610fa7565b603b546001600160a01b031633146105dc5760405162461bcd60e51b815260206004820181905260248201527f4f776e61626c653a2063616c6c6572206973206e6f7420746865206f776e6572604482015260640161069e565b600154604080516001600160a01b03928316815291831660208301527f67ab9e5f2215e43392826b5e9e4e0bf6679e6ea91f307b3162025327bcee07f3910160405180910390a1600180546001600160a01b0319166001600160a01b0392909216919091179055565b600054604080516001600160a01b03928316815291831660208301527f06e5f2ca1234f717a2031f662608c02182d4f8bdc3dab013ec4c04eb97553132910160405180910390a1600080546001600160a01b0319166001600160a01b0392909216919091179055565b6002606d541415610ac85760405162461bcd60e51b815260206004820152601f60248201527f5265656e7472616e637947756172643a207265656e7472616e742063616c6c00604482015260640161069e565b6002606d55565b6001600160a01b038516600090815260056020526040902054610b595760405162461bcd60e51b8152602060048201526024808201527f4574684d616e616765724c6f6769633a20746f6b656e206e6f7420737570706f60448201527f7274656400000000000000000000000000000000000000000000000000000000606482015260840161069e565b6006546001600160a01b03861660009081526005602052604090205461271091610b8291611bd8565b610b8c9190611bb8565b84846000818110610bad57634e487b7160e01b600052603260045260246000fd5b905060200201351015610c025760405162461bcd60e51b815260206004820152601b60248201527f4574684d616e616765724c6f6769633a206c6f7720616d6f756e740000000000604482015260640161069e565b6002546001600160a01b03168282610c1b600182611bf7565b818110610c3857634e487b7160e01b600052603260045260246000fd5b9050602002016020810190610c4d919061171c565b6001600160a01b031614610ca35760405162461bcd60e51b815260206004820152601d60248201527f4574684d616e616765724c6f6769633a20696e76616c69642070617468000000604482015260640161069e565b600283146107585760405162461bcd60e51b815260206004820152601e60248201527f4574684d616e616765724c6f6769633a2077726f6e6720616d6f756e74730000604482015260640161069e565b6001600160a01b03841673eeeeeeeeeeeeeeeeeeeeeeeeeeeeeeeeeeeeeeee1415610d7a57823414610d675760405162461bcd60e51b815260206004820152601c60248201527f4574684d616e616765724c6f6769633a2077726f6e672076616c756500000000604482015260640161069e565b6004546001600160a01b03169350610f09565b3415610dc85760405162461bcd60e51b815260206004820152601c60248201527f4574684d616e616765724c6f6769633a2077726f6e672076616c756500000000604482015260640161069e565b6040517f23b872dd000000000000000000000000000000000000000000000000000000008152336004820152306024820152604481018490526001600160a01b038516906323b872dd90606401602060405180830381600087803b158015610e2f57600080fd5b505af1158015610e43573d6000803e3d6000fd5b505050506040513d601f19601f82011682018060405250810190610e679190611904565b506000546040517f095ea7b30000000000000000000000000000000000000000000000000000000081526001600160a01b039182166004820152602481018590529085169063095ea7b390604401602060405180830381600087803b158015610ecf57600080fd5b505af1158015610ee3573d6000803e3d6000fd5b505050506040513d601f19601f82011682018060405250810190610f079190611904565b505b600054600154600354604051610758936001600160a01b0390811693610f429391169189918991889042908b9060001990602401611a16565b60408051601f198184030181529190526020810180517bffffffffffffffffffffffffffffffffffffffffffffffffffffffff167f1186ec3300000000000000000000000000000000000000000000000000000000179052346112d6565b6001606d55565b603b80546001600160a01b038381166001600160a01b0319831681179093556040519116919082907f8be0079c531659141344cd1fd0a4f28419497f9722a3daafe3b4186f6b6457e090600090a35050565b60065460408051918252602082018390527f5c1bebaca9e5461f515d3939a9ba6c89d486e0b3130fd5f1613bea8312a7349f910160405180910390a1600655565b6001600160a01b0381163b15155b919050565b600854610100900460ff166110b85760405162461bcd60e51b815260206004820152602b60248201527f496e697469616c697a61626c653a20636f6e7472616374206973206e6f74206960448201526a6e697469616c697a696e6760a81b606482015260840161069e565b6105dc611306565b600854610100900460ff1661112b5760405162461bcd60e51b815260206004820152602b60248201527f496e697469616c697a61626c653a20636f6e7472616374206973206e6f74206960448201526a6e697469616c697a696e6760a81b606482015260840161069e565b6105dc61137a565b600854610100900460ff1661119e5760405162461bcd60e51b815260206004820152602b60248201527f496e697469616c697a61626c653a20636f6e7472616374206973206e6f74206960448201526a6e697469616c697a696e6760a81b606482015260840161069e565b6105dc6113e5565b600254604080516001600160a01b03928316815291831660208301527fcce6a91bc875435f68407f052fabbcb2cfda2ae841ac4816acf552714fb30adf910160405180910390a1600280546001600160a01b0319166001600160a01b0392909216919091179055565b600454604080516001600160a01b03928316815291831660208301527fffd9582901c27177dbd18194ae8017f10d8b21f98a0da2ea5197e0b20dc13d70910160405180910390a1600480546001600160a01b0319166001600160a01b0392909216919091179055565b604080516001600160a01b0384168152602081018390527f661459273999943a19efbd948eb50b734e8c71b010cc26221bd1efeffd1dccb5910160405180910390a16001600160a01b03909116600090815260056020526040902055565b60606112fc848484604051806060016040528060298152602001611c826029913961145c565b90505b9392505050565b600854610100900460ff166113715760405162461bcd60e51b815260206004820152602b60248201527f496e697469616c697a61626c653a20636f6e7472616374206973206e6f74206960448201526a6e697469616c697a696e6760a81b606482015260840161069e565b6105dc33610fa7565b600854610100900460ff16610fa05760405162461bcd60e51b815260206004820152602b60248201527f496e697469616c697a61626c653a20636f6e7472616374206973206e6f74206960448201526a6e697469616c697a696e6760a81b606482015260840161069e565b600854610100900460ff166114505760405162461bcd60e51b815260206004820152602b60248201527f496e697469616c697a61626c653a20636f6e7472616374206973206e6f74206960448201526a6e697469616c697a696e6760a81b606482015260840161069e565b609f805460ff19169055565b6060824710156114d45760405162461bcd60e51b815260206004820152602660248201527f416464726573733a20696e73756666696369656e742062616c616e636520666f60448201527f722063616c6c0000000000000000000000000000000000000000000000000000606482015260840161069e565b843b6115225760405162461bcd60e51b815260206004820152601d60248201527f416464726573733a2063616c6c20746f206e6f6e2d636f6e7472616374000000604482015260640161069e565b600080866001600160a01b0316858760405161153e91906119fa565b60006040518083038185875af1925050503d806000811461157b576040519150601f19603f3d011682016040523d82523d6000602084013e611580565b606091505b509150915061159082828661159b565b979650505050505050565b606083156115aa5750816112ff565b8251156115ba5782518084602001fd5b8160405162461bcd60e51b815260040161069e9190611a7a565b80356001600160a01b038116811461104857600080fd5b60008083601f8401126115fc578081fd5b50813567ffffffffffffffff811115611613578182fd5b602083019150836020808302850101111561162d57600080fd5b9250929050565b60008083601f840112611645578182fd5b50813567ffffffffffffffff81111561165c578182fd5b60208301915083602082850101111561162d57600080fd5b600082601f830112611684578081fd5b813567ffffffffffffffff8082111561169f5761169f611c6b565b604051601f8301601f19908116603f011681019082821181831017156116c7576116c7611c6b565b816040528381528660208588010111156116df578485fd5b8360208701602083013792830160200193909352509392505050565b80356006811061104857600080fd5b8035600781900b811461104857600080fd5b60006020828403121561172d578081fd5b6112ff826115d4565b6000806000806080858703121561174b578283fd5b611754856115d4565b9350611762602086016115d4565b9250611770604086016115d4565b9396929550929360600135925050565b6000806000806000806000806000806000806101208d8f0312156117a2578788fd5b6117ab8d6115d4565b9b506117b960208e016115d4565b9a5067ffffffffffffffff60408e013511156117d3578788fd5b6117e38e60408f01358f016115eb565b909a50985067ffffffffffffffff60608e01351115611800578788fd5b6118108e60608f01358f016115eb565b909850965067ffffffffffffffff60808e0135111561182d578586fd5b61183d8e60808f01358f01611674565b955061184b60a08e016116fb565b945067ffffffffffffffff60c08e01351115611865578384fd5b6118758e60c08f01358f01611634565b909450925061188660e08e0161170a565b91506101008d013590509295989b509295989b509295989b565b6000806000606084860312156118b4578283fd5b6118bd846115d4565b92506118cb602085016115d4565b9150604084013590509250925092565b600080604083850312156118ed578182fd5b6118f6836115d4565b946020939093013593505050565b600060208284031215611915578081fd5b815180151581146112ff578182fd5b600060208284031215611935578081fd5b5035919050565b60008284526020808501945082825b85811015611977576001600160a01b03611964836115d4565b168752958201959082019060010161194b565b509495945050505050565b60008284528282602086013780602084860101526020601f19601f85011685010190509392505050565b600081518084526119c4816020860160208601611c0e565b601f01601f19169290920160200192915050565b600681106119f657634e487b7160e01b600052602160045260246000fd5b9052565b60008251611a0c818460208701611c0e565b9190910192915050565b60006101006001600160a01b03808c168452808b166020850152508860408401528760608401528660070b608084015263ffffffff861660a08401528060c0840152611a64818401866119ac565b9150508260e08301529998505050505050505050565b6000602082526112ff60208301846119ac565b6000610140808352601481840152507f65786368616e6765466f724274634163726f73730000000000000000000000006101608301526101808d60208401526001600160a01b03808e166040850152808d166060850152508a60808401528060a0840152611afe8184018a8c61193c565b905082810360c0840152611b1281896119ac565b9050611b2160e08401886119d8565b828103610100840152611b35818688611982565b915050826101208301529c9b505050505050505050505050565b600085825260a06020830152600c60a08301527f7075744269644163726f7373000000000000000000000000000000000000000060c083015260e06040830152611b9c60e08301866119ac565b6001600160a01b03949094166060830152506080015292915050565b600082611bd357634e487b7160e01b81526012600452602481fd5b500490565b6000816000190483118215151615611bf257611bf2611c55565b500290565b600082821015611c0957611c09611c55565b500390565b60005b83811015611c29578181015183820152602001611c11565b838111156108a45750506000910152565b6000600019821415611c4e57611c4e611c55565b5060010190565b634e487b7160e01b600052601160045260246000fd5b634e487b7160e01b600052604160045260246000fdfe416464726573733a206c6f772d6c6576656c2063616c6c20776974682076616c7565206661696c6564a2646970667358221220aeeb315d18a915e92f453cabcc41ed2e2d09d00412f2c0474697332b150da44b64736f6c63430008020033",
  "devdoc": {
    "kind": "dev",
    "methods": {
      "emergencyWithdraw(address,address,uint256)": {
        "details": "Only owner can call this"
      },
      "exchangeForBtcAcross(address,address,uint256[],address[],bytes,uint8,bytes,int64,uint256)": {
        "params": {
          "_amounts": "[inputTokenAmount, teleBTCAmount]",
          "_exchangeConnector": "Address of exchange connector to be used",
          "_lockerLockingScript": "of locker that should execute the burn request",
          "_path": "of exchanging inputToken to teleBTC (these are Polygon token addresses, so _path[0] != _token)",
          "_relayerFeePercentage": "Fee percentage for relayer",
          "_scriptType": "User script type",
          "_token": "Address of input token (on the current chain)",
          "_userScript": "User script hash",
          "thirdParty": "Id of third party"
        }
      },
      "owner()": {
        "details": "Returns the address of the current owner."
      },
      "paused()": {
        "details": "Returns true if the contract is paused, and false otherwise."
      },
      "renounceOwnership()": {
        "details": "Leaves the contract without owner. It will not be possible to call `onlyOwner` functions anymore. Can only be called by the current owner. NOTE: Renouncing ownership will leave the contract without an owner, thereby removing any functionality that is only available to the owner."
      },
      "setMinAmount(address,uint256)": {
        "details": "Exchanging below the min amount is not possible since withdrawing       funds in the case of failure becomes impossible (due to Across bridge fee)"
      },
      "setMinModifier(uint256)": {
        "details": "In the case of network fee changes, instead of       updating min amount for all tokens, we only update this modifier"
      },
      "transferOwnership(address)": {
        "details": "Transfers ownership of the contract to a new account (`newOwner`). Can only be called by the current owner."
      }
    },
    "version": 1
  },
  "userdoc": {
    "kind": "user",
    "methods": {
      "emergencyWithdraw(address,address,uint256)": {
        "notice": "Withdraws tokens in the emergency case"
      },
      "exchangeForBtcAcross(address,address,uint256[],address[],bytes,uint8,bytes,int64,uint256)": {
        "notice": "Requests exchanging token for BTC"
      },
      "setAcross(address)": {
        "notice": "Setter for Across"
      },
      "setMinAmount(address,uint256)": {
        "notice": "Setter for min exchange amount of a token"
      },
      "setMinModifier(uint256)": {
        "notice": "Setter for min amount modifier"
      },
      "setPolygonConnectorProxy(address)": {
        "notice": "Setter for PolygonConnectorProxy"
      },
      "setPolygonTeleBTC(address)": {
        "notice": "Setter for PolygonTeleBTC"
      },
      "setWrappedNativeToken(address)": {
        "notice": "Setter for WrappedNativeToken"
      }
    },
    "version": 1
  },
  "storageLayout": {
    "storage": [
      {
        "astId": 24173,
        "contract": "contracts/routers/EthConnectorLogic.sol:EthConnectorLogic",
        "label": "across",
        "offset": 0,
        "slot": "0",
        "type": "t_address"
      },
      {
        "astId": 24175,
        "contract": "contracts/routers/EthConnectorLogic.sol:EthConnectorLogic",
        "label": "polygonConnectorProxy",
        "offset": 0,
        "slot": "1",
        "type": "t_address"
      },
      {
        "astId": 24177,
        "contract": "contracts/routers/EthConnectorLogic.sol:EthConnectorLogic",
        "label": "polygonTeleBTC",
        "offset": 0,
        "slot": "2",
        "type": "t_address"
      },
      {
        "astId": 24179,
        "contract": "contracts/routers/EthConnectorLogic.sol:EthConnectorLogic",
        "label": "targetChainId",
        "offset": 0,
        "slot": "3",
        "type": "t_uint256"
      },
      {
        "astId": 24181,
        "contract": "contracts/routers/EthConnectorLogic.sol:EthConnectorLogic",
        "label": "wrappedNativeToken",
        "offset": 0,
        "slot": "4",
        "type": "t_address"
      },
      {
        "astId": 24185,
        "contract": "contracts/routers/EthConnectorLogic.sol:EthConnectorLogic",
        "label": "minAmounts",
        "offset": 0,
        "slot": "5",
        "type": "t_mapping(t_address,t_uint256)"
      },
      {
        "astId": 24187,
        "contract": "contracts/routers/EthConnectorLogic.sol:EthConnectorLogic",
        "label": "minModifier",
        "offset": 0,
        "slot": "6",
        "type": "t_uint256"
      },
      {
        "astId": 24189,
        "contract": "contracts/routers/EthConnectorLogic.sol:EthConnectorLogic",
        "label": "uniqueCounter",
        "offset": 0,
        "slot": "7",
        "type": "t_uint256"
      },
      {
        "astId": 442,
        "contract": "contracts/routers/EthConnectorLogic.sol:EthConnectorLogic",
        "label": "_initialized",
        "offset": 0,
        "slot": "8",
        "type": "t_uint8"
      },
      {
        "astId": 445,
        "contract": "contracts/routers/EthConnectorLogic.sol:EthConnectorLogic",
        "label": "_initializing",
        "offset": 1,
        "slot": "8",
        "type": "t_bool"
      },
      {
        "astId": 1844,
        "contract": "contracts/routers/EthConnectorLogic.sol:EthConnectorLogic",
        "label": "__gap",
        "offset": 0,
        "slot": "9",
        "type": "t_array(t_uint256)50_storage"
      },
      {
        "astId": 314,
        "contract": "contracts/routers/EthConnectorLogic.sol:EthConnectorLogic",
        "label": "_owner",
        "offset": 0,
        "slot": "59",
        "type": "t_address"
      },
      {
        "astId": 434,
        "contract": "contracts/routers/EthConnectorLogic.sol:EthConnectorLogic",
        "label": "__gap",
        "offset": 0,
        "slot": "60",
        "type": "t_array(t_uint256)49_storage"
      },
      {
        "astId": 745,
        "contract": "contracts/routers/EthConnectorLogic.sol:EthConnectorLogic",
        "label": "_status",
        "offset": 0,
        "slot": "109",
        "type": "t_uint256"
      },
      {
        "astId": 803,
        "contract": "contracts/routers/EthConnectorLogic.sol:EthConnectorLogic",
        "label": "__gap",
        "offset": 0,
        "slot": "110",
        "type": "t_array(t_uint256)49_storage"
      },
      {
        "astId": 625,
        "contract": "contracts/routers/EthConnectorLogic.sol:EthConnectorLogic",
        "label": "_paused",
        "offset": 0,
        "slot": "159",
        "type": "t_bool"
      },
      {
        "astId": 730,
        "contract": "contracts/routers/EthConnectorLogic.sol:EthConnectorLogic",
        "label": "__gap",
        "offset": 0,
        "slot": "160",
        "type": "t_array(t_uint256)49_storage"
      }
    ],
    "types": {
      "t_address": {
        "encoding": "inplace",
        "label": "address",
        "numberOfBytes": "20"
      },
      "t_array(t_uint256)49_storage": {
        "base": "t_uint256",
        "encoding": "inplace",
        "label": "uint256[49]",
        "numberOfBytes": "1568"
      },
      "t_array(t_uint256)50_storage": {
        "base": "t_uint256",
        "encoding": "inplace",
        "label": "uint256[50]",
        "numberOfBytes": "1600"
      },
      "t_bool": {
        "encoding": "inplace",
        "label": "bool",
        "numberOfBytes": "1"
      },
      "t_mapping(t_address,t_uint256)": {
        "encoding": "mapping",
        "key": "t_address",
        "label": "mapping(address => uint256)",
        "numberOfBytes": "32",
        "value": "t_uint256"
      },
      "t_uint256": {
        "encoding": "inplace",
        "label": "uint256",
        "numberOfBytes": "32"
      },
      "t_uint8": {
        "encoding": "inplace",
        "label": "uint8",
        "numberOfBytes": "1"
      }
    }
  }
}