{
  "address": "0x20f36885DC0bd2A84279Be0857F8951917759a19",
  "abi": [
    {
      "anonymous": false,
      "inputs": [
        {
          "indexed": false,
          "internalType": "int64",
          "name": "oldAcrossFee",
          "type": "int64"
        },
        {
          "indexed": false,
          "internalType": "int64",
          "name": "newAcrossFee",
          "type": "int64"
        }
      ],
      "name": "AcrossRelayerFeeUpdated",
      "type": "event"
    },
    {
      "anonymous": false,
      "inputs": [
        {
          "indexed": false,
          "internalType": "address",
          "name": "oldAcross",
          "type": "address"
        },
        {
          "indexed": false,
          "internalType": "address",
          "name": "newAcross",
          "type": "address"
        }
      ],
      "name": "AcrossUpdated",
      "type": "event"
    },
    {
      "anonymous": false,
      "inputs": [
        {
          "indexed": false,
          "internalType": "address",
          "name": "oldBurnRouter",
          "type": "address"
        },
        {
          "indexed": false,
          "internalType": "address",
          "name": "newBurnRouter",
          "type": "address"
        }
      ],
      "name": "BurnRouterUpdated",
      "type": "event"
    },
    {
      "anonymous": false,
      "inputs": [
        {
          "indexed": false,
          "internalType": "bytes",
          "name": "lockerLockingScript",
          "type": "bytes"
        },
        {
          "indexed": false,
          "internalType": "uint256",
          "name": "lockerScriptType",
          "type": "uint256"
        },
        {
          "indexed": false,
          "internalType": "address",
          "name": "lockerTargetAddress",
          "type": "address"
        },
        {
          "indexed": true,
          "internalType": "address",
          "name": "user",
          "type": "address"
        },
        {
          "indexed": false,
          "internalType": "address[2]",
          "name": "inputAndOutputToken",
          "type": "address[2]"
        },
        {
          "indexed": false,
          "internalType": "uint256[2]",
          "name": "inputAndOutputAmount",
          "type": "uint256[2]"
        },
        {
          "indexed": true,
          "internalType": "uint256",
          "name": "speed",
          "type": "uint256"
        },
        {
          "indexed": true,
          "internalType": "address",
          "name": "teleporter",
          "type": "address"
        },
        {
          "indexed": false,
          "internalType": "uint256",
          "name": "teleporterFee",
          "type": "uint256"
        },
        {
          "indexed": false,
          "internalType": "bytes32",
          "name": "bitcoinTxId",
          "type": "bytes32"
        },
        {
          "indexed": false,
          "internalType": "uint256",
          "name": "appId",
          "type": "uint256"
        }
      ],
      "name": "CCExchange",
      "type": "event"
    },
    {
      "anonymous": false,
      "inputs": [
        {
          "indexed": false,
          "internalType": "address",
          "name": "newExchangeToke",
          "type": "address"
        }
      ],
      "name": "ExchangeTokenAdded",
      "type": "event"
    },
    {
      "anonymous": false,
      "inputs": [
        {
          "indexed": false,
          "internalType": "address",
          "name": "oldExchangeToke",
          "type": "address"
        }
      ],
      "name": "ExchangeTokenRemoved",
      "type": "event"
    },
    {
      "anonymous": false,
      "inputs": [
        {
          "indexed": false,
          "internalType": "bytes",
          "name": "lockerLockingScript",
          "type": "bytes"
        },
        {
          "indexed": false,
          "internalType": "uint256",
          "name": "lockerScriptType",
          "type": "uint256"
        },
        {
          "indexed": false,
          "internalType": "address",
          "name": "lockerTargetAddress",
          "type": "address"
        },
        {
          "indexed": true,
          "internalType": "address",
          "name": "recipientAddress",
          "type": "address"
        },
        {
          "indexed": false,
          "internalType": "address[2]",
          "name": "inputAndOutputToken",
          "type": "address[2]"
        },
        {
          "indexed": false,
          "internalType": "uint256[2]",
          "name": "inputAndOutputAmount",
          "type": "uint256[2]"
        },
        {
          "indexed": true,
          "internalType": "uint256",
          "name": "speed",
          "type": "uint256"
        },
        {
          "indexed": true,
          "internalType": "address",
          "name": "teleporter",
          "type": "address"
        },
        {
          "indexed": false,
          "internalType": "uint256",
          "name": "teleporterFee",
          "type": "uint256"
        },
        {
          "indexed": false,
          "internalType": "bytes32",
          "name": "bitcoinTxId",
          "type": "bytes32"
        },
        {
          "indexed": false,
          "internalType": "uint256",
          "name": "appId",
          "type": "uint256"
        }
      ],
      "name": "FailedCCExchange",
      "type": "event"
    },
    {
      "anonymous": false,
      "inputs": [
        {
          "indexed": false,
          "internalType": "uint8",
          "name": "version",
          "type": "uint8"
        }
      ],
      "name": "Initialized",
      "type": "event"
    },
    {
      "anonymous": false,
      "inputs": [
        {
          "indexed": false,
          "internalType": "address",
          "name": "oldInstantRouter",
          "type": "address"
        },
        {
          "indexed": false,
          "internalType": "address",
          "name": "newInstantRouter",
          "type": "address"
        }
      ],
      "name": "NewInstantRouter",
      "type": "event"
    },
    {
      "anonymous": false,
      "inputs": [
        {
          "indexed": false,
          "internalType": "address",
          "name": "oldLockers",
          "type": "address"
        },
        {
          "indexed": false,
          "internalType": "address",
          "name": "newLockers",
          "type": "address"
        }
      ],
      "name": "NewLockers",
      "type": "event"
    },
    {
      "anonymous": false,
      "inputs": [
        {
          "indexed": false,
          "internalType": "uint256",
          "name": "oldProtocolPercentageFee",
          "type": "uint256"
        },
        {
          "indexed": false,
          "internalType": "uint256",
          "name": "newProtocolPercentageFee",
          "type": "uint256"
        }
      ],
      "name": "NewProtocolPercentageFee",
      "type": "event"
    },
    {
      "anonymous": false,
      "inputs": [
        {
          "indexed": false,
          "internalType": "address",
          "name": "oldRelay",
          "type": "address"
        },
        {
          "indexed": false,
          "internalType": "address",
          "name": "newRelay",
          "type": "address"
        }
      ],
      "name": "NewRelay",
      "type": "event"
    },
    {
      "anonymous": false,
      "inputs": [
        {
          "indexed": false,
          "internalType": "address",
          "name": "oldTeleBTC",
          "type": "address"
        },
        {
          "indexed": false,
          "internalType": "address",
          "name": "newTeleBTC",
          "type": "address"
        }
      ],
      "name": "NewTeleBTC",
      "type": "event"
    },
    {
      "anonymous": false,
      "inputs": [
        {
          "indexed": false,
          "internalType": "address",
          "name": "oldTreasury",
          "type": "address"
        },
        {
          "indexed": false,
          "internalType": "address",
          "name": "newTreasury",
          "type": "address"
        }
      ],
      "name": "NewTreasury",
      "type": "event"
    },
    {
      "anonymous": false,
      "inputs": [
        {
          "indexed": true,
          "internalType": "address",
          "name": "previousOwner",
          "type": "address"
        },
        {
          "indexed": true,
          "internalType": "address",
          "name": "newOwner",
          "type": "address"
        }
      ],
      "name": "OwnershipTransferred",
      "type": "event"
    },
    {
      "anonymous": false,
      "inputs": [
        {
          "indexed": false,
          "internalType": "uint256",
          "name": "appId",
          "type": "uint256"
        },
        {
          "indexed": false,
          "internalType": "address",
          "name": "exchangeConnector",
          "type": "address"
        }
      ],
      "name": "SetExchangeConnector",
      "type": "event"
    },
    {
      "inputs": [],
      "name": "across",
      "outputs": [
        {
          "internalType": "address",
          "name": "",
          "type": "address"
        }
      ],
      "stateMutability": "view",
      "type": "function"
    },
    {
      "inputs": [],
      "name": "acrossRelayerFee",
      "outputs": [
        {
          "internalType": "int64",
          "name": "",
          "type": "int64"
        }
      ],
      "stateMutability": "view",
      "type": "function"
    },
    {
      "inputs": [
        {
          "internalType": "address",
          "name": "_token",
          "type": "address"
        }
      ],
      "name": "addSupportedExchangeToken",
      "outputs": [],
      "stateMutability": "nonpayable",
      "type": "function"
    },
    {
      "inputs": [],
      "name": "burnRouter",
      "outputs": [
        {
          "internalType": "address",
          "name": "",
          "type": "address"
        }
      ],
      "stateMutability": "view",
      "type": "function"
    },
    {
      "inputs": [
        {
          "internalType": "bytes4",
          "name": "_version",
          "type": "bytes4"
        },
        {
          "internalType": "bytes",
          "name": "_vin",
          "type": "bytes"
        },
        {
          "internalType": "bytes",
          "name": "_vout",
          "type": "bytes"
        },
        {
          "internalType": "bytes4",
          "name": "_locktime",
          "type": "bytes4"
        },
        {
          "internalType": "uint256",
          "name": "_blockNumber",
          "type": "uint256"
        },
        {
          "internalType": "bytes",
          "name": "_intermediateNodes",
          "type": "bytes"
        },
        {
          "internalType": "uint256",
          "name": "_index",
          "type": "uint256"
        },
        {
          "internalType": "bytes",
          "name": "_lockerLockingScript",
          "type": "bytes"
        }
      ],
      "name": "ccExchange",
      "outputs": [
        {
          "internalType": "bool",
          "name": "",
          "type": "bool"
        }
      ],
      "stateMutability": "payable",
      "type": "function"
    },
    {
      "inputs": [],
      "name": "chainId",
      "outputs": [
        {
          "internalType": "uint256",
          "name": "",
          "type": "uint256"
        }
      ],
      "stateMutability": "view",
      "type": "function"
    },
    {
      "inputs": [
        {
          "internalType": "uint256",
          "name": "",
          "type": "uint256"
        }
      ],
      "name": "exchangeConnector",
      "outputs": [
        {
          "internalType": "address",
          "name": "",
          "type": "address"
        }
      ],
      "stateMutability": "view",
      "type": "function"
    },
    {
      "inputs": [
        {
          "internalType": "uint256",
          "name": "_startingBlockNumber",
          "type": "uint256"
        },
        {
          "internalType": "uint256",
          "name": "_protocolPercentageFee",
          "type": "uint256"
        },
        {
          "internalType": "uint256",
          "name": "_chainId",
          "type": "uint256"
        },
        {
          "internalType": "address",
          "name": "_lockers",
          "type": "address"
        },
        {
          "internalType": "address",
          "name": "_relay",
          "type": "address"
        },
        {
          "internalType": "address",
          "name": "_teleBTC",
          "type": "address"
        },
        {
          "internalType": "address",
          "name": "_treasury",
          "type": "address"
        },
        {
          "internalType": "address[]",
          "name": "_supportedTokens",
          "type": "address[]"
        },
        {
          "internalType": "address",
          "name": "_across",
          "type": "address"
        },
        {
          "internalType": "address",
          "name": "_burnRouter",
          "type": "address"
        },
        {
          "internalType": "int64",
          "name": "_acrossRelayerFee",
          "type": "int64"
        }
      ],
      "name": "initialize",
      "outputs": [],
      "stateMutability": "nonpayable",
      "type": "function"
    },
    {
      "inputs": [],
      "name": "instantRouter",
      "outputs": [
        {
          "internalType": "address",
          "name": "",
          "type": "address"
        }
      ],
      "stateMutability": "view",
      "type": "function"
    },
    {
      "inputs": [
        {
          "internalType": "address",
          "name": "",
          "type": "address"
        }
      ],
      "name": "isExchangeTokenSupported",
      "outputs": [
        {
          "internalType": "bool",
          "name": "",
          "type": "bool"
        }
      ],
      "stateMutability": "view",
      "type": "function"
    },
    {
      "inputs": [
        {
          "internalType": "bytes32",
          "name": "_txId",
          "type": "bytes32"
        }
      ],
      "name": "isRequestUsed",
      "outputs": [
        {
          "internalType": "bool",
          "name": "",
          "type": "bool"
        }
      ],
      "stateMutability": "view",
      "type": "function"
    },
    {
      "inputs": [],
      "name": "lockers",
      "outputs": [
        {
          "internalType": "address",
          "name": "",
          "type": "address"
        }
      ],
      "stateMutability": "view",
      "type": "function"
    },
    {
      "inputs": [],
      "name": "owner",
      "outputs": [
        {
          "internalType": "address",
          "name": "",
          "type": "address"
        }
      ],
      "stateMutability": "view",
      "type": "function"
    },
    {
      "inputs": [],
      "name": "protocolPercentageFee",
      "outputs": [
        {
          "internalType": "uint256",
          "name": "",
          "type": "uint256"
        }
      ],
      "stateMutability": "view",
      "type": "function"
    },
    {
      "inputs": [
        {
          "internalType": "bytes",
          "name": "_message",
          "type": "bytes"
        },
        {
          "internalType": "bytes32",
          "name": "r",
          "type": "bytes32"
        },
        {
          "internalType": "bytes32",
          "name": "s",
          "type": "bytes32"
        },
        {
          "internalType": "uint8",
          "name": "v",
          "type": "uint8"
        }
      ],
      "name": "reDoFailedCcExchange",
      "outputs": [
        {
          "internalType": "bool",
          "name": "",
          "type": "bool"
        }
      ],
      "stateMutability": "nonpayable",
      "type": "function"
    },
    {
      "inputs": [],
      "name": "relay",
      "outputs": [
        {
          "internalType": "address",
          "name": "",
          "type": "address"
        }
      ],
      "stateMutability": "view",
      "type": "function"
    },
    {
      "inputs": [
        {
          "internalType": "address",
          "name": "_token",
          "type": "address"
        }
      ],
      "name": "removeSupportedExchangeToken",
      "outputs": [],
      "stateMutability": "nonpayable",
      "type": "function"
    },
    {
      "inputs": [],
      "name": "renounceOwnership",
      "outputs": [],
      "stateMutability": "nonpayable",
      "type": "function"
    },
    {
      "inputs": [
        {
          "internalType": "uint256",
          "name": "_appId",
          "type": "uint256"
        },
        {
          "internalType": "address",
          "name": "_exchangeConnector",
          "type": "address"
        }
      ],
      "name": "setExchangeConnector",
      "outputs": [],
      "stateMutability": "nonpayable",
      "type": "function"
    },
    {
      "inputs": [
        {
          "internalType": "address",
          "name": "_instantRouter",
          "type": "address"
        }
      ],
      "name": "setInstantRouter",
      "outputs": [],
      "stateMutability": "nonpayable",
      "type": "function"
    },
    {
      "inputs": [
        {
          "internalType": "address",
          "name": "_lockers",
          "type": "address"
        }
      ],
      "name": "setLockers",
      "outputs": [],
      "stateMutability": "nonpayable",
      "type": "function"
    },
    {
      "inputs": [
        {
          "internalType": "uint256",
          "name": "_protocolPercentageFee",
          "type": "uint256"
        }
      ],
      "name": "setProtocolPercentageFee",
      "outputs": [],
      "stateMutability": "nonpayable",
      "type": "function"
    },
    {
      "inputs": [
        {
          "internalType": "address",
          "name": "_relay",
          "type": "address"
        }
      ],
      "name": "setRelay",
      "outputs": [],
      "stateMutability": "nonpayable",
      "type": "function"
    },
    {
      "inputs": [
        {
          "internalType": "uint256",
          "name": "_startingBlockNumber",
          "type": "uint256"
        }
      ],
      "name": "setStartingBlockNumber",
      "outputs": [],
      "stateMutability": "nonpayable",
      "type": "function"
    },
    {
      "inputs": [
        {
          "internalType": "address",
          "name": "_teleBTC",
          "type": "address"
        }
      ],
      "name": "setTeleBTC",
      "outputs": [],
      "stateMutability": "nonpayable",
      "type": "function"
    },
    {
      "inputs": [
        {
          "internalType": "address",
          "name": "_treasury",
          "type": "address"
        }
      ],
      "name": "setTreasury",
      "outputs": [],
      "stateMutability": "nonpayable",
      "type": "function"
    },
    {
      "inputs": [],
      "name": "startingBlockNumber",
      "outputs": [
        {
          "internalType": "uint256",
          "name": "",
          "type": "uint256"
        }
      ],
      "stateMutability": "view",
      "type": "function"
    },
    {
      "inputs": [],
      "name": "teleBTC",
      "outputs": [
        {
          "internalType": "address",
          "name": "",
          "type": "address"
        }
      ],
      "stateMutability": "view",
      "type": "function"
    },
    {
      "inputs": [
        {
          "internalType": "address",
          "name": "newOwner",
          "type": "address"
        }
      ],
      "name": "transferOwnership",
      "outputs": [],
      "stateMutability": "nonpayable",
      "type": "function"
    },
    {
      "inputs": [],
      "name": "treasury",
      "outputs": [
        {
          "internalType": "address",
          "name": "",
          "type": "address"
        }
      ],
      "stateMutability": "view",
      "type": "function"
    },
    {
      "inputs": [
        {
          "internalType": "address",
          "name": "_across",
          "type": "address"
        }
      ],
      "name": "updateAcross",
      "outputs": [],
      "stateMutability": "nonpayable",
      "type": "function"
    },
    {
      "inputs": [
        {
          "internalType": "int64",
          "name": "_acrossRelayerFee",
          "type": "int64"
        }
      ],
      "name": "updateAcrossRelayerFee",
      "outputs": [],
      "stateMutability": "nonpayable",
      "type": "function"
    },
    {
      "inputs": [
        {
          "internalType": "address",
          "name": "_burnRouter",
          "type": "address"
        }
      ],
      "name": "updateBurnRouter",
      "outputs": [],
      "stateMutability": "nonpayable",
      "type": "function"
    },
    {
      "inputs": [
        {
          "internalType": "bytes",
          "name": "_message",
          "type": "bytes"
        },
        {
          "internalType": "bytes32",
          "name": "r",
          "type": "bytes32"
        },
        {
          "internalType": "bytes32",
          "name": "s",
          "type": "bytes32"
        },
        {
          "internalType": "uint8",
          "name": "v",
          "type": "uint8"
        },
        {
          "internalType": "bytes",
          "name": "_lockerLockingScript",
          "type": "bytes"
        }
      ],
      "name": "withdrawFailedCcExchangeToBTC",
      "outputs": [
        {
          "internalType": "bool",
          "name": "",
          "type": "bool"
        }
      ],
      "stateMutability": "nonpayable",
      "type": "function"
    },
    {
      "stateMutability": "payable",
      "type": "receive"
    }
  ],
  "transactionHash": "0x0f88e3e3ec45017766394746e8ffc5bf006f845b155da6ea501419c7d18208cc",
  "args": [],
  "numDeployments": 1,
  "solcInputHash": "9b54c788feab85ee29ac0bdfbf7b4bd4",
  "bytecode": "0x608060405234801561001057600080fd5b50615c6280620000216000396000f3fe6080604052600436106101fd5760003560e01c80637f0f18171161010d578063b14d3532116100a0578063d123703d1161006f578063d123703d146105e8578063d5480a6614610608578063e35a0a8814610628578063f0f4426014610648578063f2fde38b1461066857610204565b8063b14d353214610558578063b59589d114610578578063bb50024614610598578063c805f68b146105c857610204565b80638da5cb5b116100dc5780638da5cb5b146104e457806397bb2d0b146105025780639a8a0592146105225780639ac5fc2e1461053857610204565b80637f0f18171461046457806380bc472614610484578063870ba6cf146104a45780638d3d78cd146104c457610204565b806347d01c1e116101905780636c32b2ec1161015f5780636c32b2ec146103c35780636e8adf61146103e357806370872aa514610419578063715018a61461042f5780637ed557481461044457610204565b806347d01c1e14610343578063519786dd1461036357806361d027b3146103835780636b2857ef146103a357610204565b80631876dec4116101cc5780631876dec4146102ab5780631e7107c7146102e3578063292c1d9214610303578063373148141461032357610204565b806303173d001461020957806310a80fe21461024257806314e0c15f146102645780631812adb61461028757610204565b3661020457005b600080fd5b34801561021557600080fd5b50600b5461022a90600160a01b900460070b81565b60405160079190910b81526020015b60405180910390f35b34801561024e57600080fd5b5061026261025d36600461547c565b610688565b005b61027761027236600461529f565b61069c565b6040519015158152602001610239565b34801561029357600080fd5b5061029d60025481565b604051908152602001610239565b3480156102b757600080fd5b506005546102cb906001600160a01b031681565b6040516001600160a01b039091168152602001610239565b3480156102ef57600080fd5b506102626102fe36600461526f565b6109c2565b34801561030f57600080fd5b50600b546102cb906001600160a01b031681565b34801561032f57600080fd5b5061026261033e36600461517b565b6109d3565b34801561034f57600080fd5b5061026261035e3660046154c5565b6109e4565b34801561036f57600080fd5b5061027761037e3660046153f2565b610bc8565b34801561038f57600080fd5b506007546102cb906001600160a01b031681565b3480156103af57600080fd5b506102626103be366004615496565b610e94565b3480156103cf57600080fd5b50600c546102cb906001600160a01b031681565b3480156103ef57600080fd5b506102cb6103fe36600461526f565b6008602052600090815260409020546001600160a01b031681565b34801561042557600080fd5b5061029d60005481565b34801561043b57600080fd5b50610262610f02565b34801561045057600080fd5b5061026261045f36600461526f565b610f0c565b34801561047057600080fd5b5061026261047f36600461517b565b610f1d565b34801561049057600080fd5b5061027761049f36600461526f565b610f2e565b3480156104b057600080fd5b506102626104bf36600461517b565b610f59565b3480156104d057600080fd5b506006546102cb906001600160a01b031681565b3480156104f057600080fd5b50603f546001600160a01b03166102cb565b34801561050e57600080fd5b5061026261051d36600461517b565b610f6a565b34801561052e57600080fd5b5061029d60015481565b34801561054457600080fd5b50610277610553366004615394565b610f7b565b34801561056457600080fd5b5061026261057336600461517b565b611490565b34801561058457600080fd5b506003546102cb906001600160a01b031681565b3480156105a457600080fd5b506102776105b336600461517b565b60096020526000908152604090205460ff1681565b3480156105d457600080fd5b506102626105e336600461517b565b6114a1565b3480156105f457600080fd5b5061026261060336600461517b565b6114b2565b34801561061457600080fd5b5061026261062336600461517b565b6114c3565b34801561063457600080fd5b506004546102cb906001600160a01b031681565b34801561065457600080fd5b5061026261066336600461517b565b6114d4565b34801561067457600080fd5b5061026261068336600461517b565b6114e5565b61069061155b565b610699816115b5565b50565b60006106a6611631565b6004546001600160a01b0316336001600160a01b0316146106e25760405162461bcd60e51b81526004016106d990615863565b60405180910390fd5b6000548710156107345760405162461bcd60e51b815260206004820152601a60248201527f434345786368616e67653a2072657175657374206973206f6c6400000000000060448201526064016106d9565b60006107798d8d8d8d8080601f0160208091040260200160405190810160405280939291908181526020018383808284376000920191909152508f925061168b915050565b6000818152600a602052604090206005015490915060ff16156107de5760405162461bcd60e51b815260206004820152601b60248201527f434345786368616e67653a20726571756573742069732075736564000000000060448201526064016106d9565b6001600160e01b03198916156108405760405162461bcd60e51b815260206004820152602160248201527f434345786368616e67653a206c6f636b2074696d65206973206e6f6e2d7a65726044820152606f60f81b60648201526084016106d9565b6108c684848080601f016020809104026020016040519081016040528093929190818152602001838380828437600081840152601f19601f820116905080830192505050505050508c8c8080601f0160208091040260200160405190810160405280939291908181526020018383808284376000920191909152508692506117ee915050565b610909818989898080601f0160208091040260200160405190810160405280939291908181526020018383808284376000920191909152508b9250611d65915050565b6109635760405162461bcd60e51b815260206004820152602560248201527f434345786368616e67653a206e6f6e2d66696e616c697a6564207472616e736160448201526431ba34b7b760d91b60648201526084016106d9565b6109a484848080601f016020809104026020016040519081016040528093929190818152602001838380828437600092019190915250859250611edf915050565b60019150506109b36001607155565b9b9a5050505050505050505050565b6109ca61155b565b6106998161298f565b6109db61155b565b610699816129f1565b600c54600160a81b900460ff1615808015610a0c5750600c546001600160a01b90910460ff16105b80610a2d5750303b158015610a2d5750600c54600160a01b900460ff166001145b610a905760405162461bcd60e51b815260206004820152602e60248201527f496e697469616c697a61626c653a20636f6e747261637420697320616c72656160448201526d191e481a5b9a5d1a585b1a5e995960921b60648201526084016106d9565b600c805460ff60a01b1916600160a01b1790558015610abd57600c805460ff60a81b1916600160a81b1790555b610ac5612a79565b610acd612aaa565b60018a9055610adb8c61298f565b610ae48b612adb565b610aed88612b6e565b610af689612bff565b610aff87612c90565b610b0886612d21565b610b1184612db2565b610b1a83612e43565b610b23826115b5565b60005b8551811015610b7157610b5f868281518110610b5257634e487b7160e01b600052603260045260246000fd5b60200260200101516129f1565b80610b6981615ba7565b915050610b26565b508015610bba57600c805460ff60a81b19169055604051600181527f7f26b83ff96e1f2b6a682f133852f6798a09c465da95921460cefb38474024989060200160405180910390a15b505050505050505050505050565b6000610bd2611631565b6004546001600160a01b0316336001600160a01b031614610c055760405162461bcd60e51b81526004016106d990615863565b6000610c118882612ed4565b90506000610c20896008612ed4565b90506000610c2f8a6010612f36565b90506000610c428b603060ff8616612f94565b9050600560ff85161115610c985760405162461bcd60e51b815260206004820152601f60248201527f434345786368616e67653a20696e76616c69642073637269707420747970650060448201526064016106d9565b6000828152600a602052604090206003015461010090046001600160a01b0316610cc48c8c8c8c6130a3565b6001600160a01b031614610d1a5760405162461bcd60e51b815260206004820152601d60248201527f434345786368616e67653a20696e76616c6964207369676e617475726500000060448201526064016106d9565b600654600c546000848152600a60208190526040918290200154905163095ea7b360e01b81526001600160a01b039283166004820152602481019190915291169063095ea7b390604401602060405180830381600087803b158015610d7e57600080fd5b505af1158015610d92573d6000803e3d6000fd5b505050506040513d601f19601f82011682018060405250810190610db691906151b3565b50600c546000838152600a6020819052604090912001546001600160a01b03909116906343149dba908360ff88166005811115610e0357634e487b7160e01b600052602160045260246000fd5b8b8b6040518663ffffffff1660e01b8152600401610e259594939291906158e5565b602060405180830381600087803b158015610e3f57600080fd5b505af1158015610e53573d6000803e3d6000fd5b505050506040513d601f19601f82011682018060405250810190610e779190615287565b506001945050505050610e8a6001607155565b9695505050505050565b610e9c61155b565b60008281526008602090815260409182902080546001600160a01b0319166001600160a01b0385169081179091558251858152918201527f31a8c4e62daac2a3ed5d713004d9ae867d6dcddfa35603db2a4b65d9236b1bc1910160405180910390a15050565b610f0a61155b565b565b610f1461155b565b61069981612adb565b610f2561155b565b61069981612c90565b6000818152600a602052604081206005015460ff16610f4e576000610f51565b60015b90505b919050565b610f6161155b565b610699816131a5565b610f7261155b565b61069981613236565b6000610f85611631565b6004546001600160a01b0316336001600160a01b031614610fb85760405162461bcd60e51b81526004016106d990615863565b6000610fc48682612f36565b90506000610fd38760206132bb565b90506000610fe28860406132bb565b6000848152600a6020908152604080832081516101808101835281548152600182015481850152600282015481840152600382015460ff808216151560608401526101009091046001600160a01b03166080830152600483015460a0830152600583015416151560c082015260068201805484518187028101870190955280855296975094959094919360e08601939291908301828280156110ad57602002820191906000526020600020905b81546001600160a01b0316815260019091019060200180831161108f575b50505091835250506007820154602082015260088201546040820152600982015460ff1615156060820152600a909101546080918201528101519091506001600160a01b03166110ff8a8a8a8a6130a3565b6001600160a01b0316146111615760405162461bcd60e51b815260206004820152602360248201527f434345786368616e6765526f757465723a20696e76616c6964207369676e617460448201526275726560e81b60648201526084016106d9565b80516000908152600860205260408082205461016084015160e0850151925163161779b160e31b81526060936001600160a01b0390931692839263b0bbcd88926111b6928b9130908c90600190600401615954565b600060405180830381600087803b1580156111d057600080fd5b505af11580156111e4573d6000803e3d6000fd5b505050506040513d6000823e601f3d908101601f1916820160405261120c91908101906151cd565b90935091508261125e5760405162461bcd60e51b815260206004820152601d60248201527f434345786368616e6765526f757465723a2073776170206661696c656400000060448201526064016106d9565b8360e0015160018151811061128357634e487b7160e01b600052603260045260246000fd5b60200260200101516001600160a01b031663095ea7b3600b60009054906101000a90046001600160a01b031684600186516112be9190615b15565b815181106112dc57634e487b7160e01b600052603260045260246000fd5b60200260200101516040518363ffffffff1660e01b81526004016113159291906001600160a01b03929092168252602082015260400190565b602060405180830381600087803b15801561132f57600080fd5b505af1158015611343573d6000803e3d6000fd5b505050506040513d601f19601f8201168201806040525081019061136791906151b3565b506000878152600a60205260409020600901805460ff19166001908117909155600b54608086015160e087015180516060946001600160a01b0390941693631186ec3393929181106113c957634e487b7160e01b600052603260045260246000fd5b602002602001015186600188516113e09190615b15565b815181106113fe57634e487b7160e01b600052603260045260246000fd5b60200260200101516005600b60149054906101000a900460070b42886000196040518963ffffffff1660e01b81526004016114409897969594939291906156ae565b600060405180830381600087803b15801561145a57600080fd5b505af115801561146e573d6000803e3d6000fd5b505050506001985050505050505050506114886001607155565b949350505050565b61149861155b565b61069981612bff565b6114a961155b565b61069981612b6e565b6114ba61155b565b61069981612e43565b6114cb61155b565b61069981612db2565b6114dc61155b565b61069981612d21565b6114ed61155b565b6001600160a01b0381166115525760405162461bcd60e51b815260206004820152602660248201527f4f776e61626c653a206e6577206f776e657220697320746865207a65726f206160448201526564647265737360d01b60648201526084016106d9565b61069981613310565b603f546001600160a01b03163314610f0a5760405162461bcd60e51b815260206004820181905260248201527f4f776e61626c653a2063616c6c6572206973206e6f7420746865206f776e657260448201526064016106d9565b600b5460408051600160a01b909204600790810b810b835283900b60208301527f824d7a5518f579062df87d3c6a0cee49757bfddd5456fc33c9d233d13fc30598910160405180910390a1600b805460079290920b6001600160401b0316600160a01b0267ffffffffffffffff60a01b19909216919091179055565b600260715414156116845760405162461bcd60e51b815260206004820152601f60248201527f5265656e7472616e637947756172643a207265656e7472616e742063616c6c0060448201526064016106d9565b6002607155565b6000806116a261169d825b8790613362565b613386565b905062ffffff1980821614156116fa5760405162461bcd60e51b815260206004820152601a60248201527f426974636f696e48656c7065723a2076696e206973206e756c6c00000000000060448201526064016106d9565b600060028787878760405160200161171594939291906155c4565b60408051601f198184030181529082905261172f91615617565b602060405180830381855afa15801561174c573d6000803e3d6000fd5b5050506040513d601f19601f8201168201806040525081019061176f9190615287565b9050600060028260405160200161178891815260200190565b60408051601f19818403018152908290526117a291615617565b602060405180830381855afa1580156117bf573d6000803e3d6000fd5b5050506040513d601f19601f820116820180604052508101906117e29190615287565b98975050505050505050565b60055460405163aff2faa360e01b81526001600160a01b039091169063aff2faa39061181e908690600401615745565b60206040518083038186803b15801561183657600080fd5b505afa15801561184a573d6000803e3d6000fd5b505050506040513d601f19601f8201168201806040525081019061186e91906151b3565b6118c95760405162461bcd60e51b815260206004820152602660248201527f434345786368616e67653a206e6f206c6f636b657220776974682073637269706044820152650e840d0c2e6d60d31b60648201526084016106d9565b61193c60405180610180016040528060008152602001600081526020016000815260200160001515815260200160006001600160a01b0316815260200160008152602001600015158152602001606081526020016000815260200160008152602001600015158152602001600081525090565b606061194884866134bc565b6001600160401b0390911660208401528051909150604f146119ac5760405162461bcd60e51b815260206004820152601760248201527f434345786368616e67653a20696e76616c6964206c656e00000000000000000060448201526064016106d9565b6000826020015111611a005760405162461bcd60e51b815260206004820152601f60248201527f434345786368616e673a20696e70757420616d6f756e74206973207a65726f0060448201526064016106d9565b611a0981613633565b60ff1660015414611a685760405162461bcd60e51b815260206004820152602360248201527f434345786368616e67653a20636861696e206964206973206e6f7420636f72726044820152621958dd60ea1b60648201526084016106d9565b611a718161364d565b61ffff1682526000611a8282613668565b9050611a8d82613683565b6001600160e01b0316604084015260016060840152611aab8261369e565b6001600160a01b03166080840152604080516002808252606082018352600092602083019080368337505060065482519293506001600160a01b031691839150600090611b0857634e487b7160e01b600052603260045260246000fd5b60200260200101906001600160a01b031690816001600160a01b0316815250508181600181518110611b4a57634e487b7160e01b600052603260045260246000fd5b6001600160a01b039092166020928302919091019091015260e08401819052611b72836136ae565b63ffffffff166101008501526000611b89846136c9565b61ffff169050612710811115611bf35760405162461bcd60e51b815260206004820152602960248201527f434345786368616e67653a2070657263656e7461676520666565206973206e6f6044820152681d0818dbdc9c9958dd60ba1b60648201526084016106d9565b612710856020015182611c069190615acd565b611c109190615aad565b60a0860152611c1e846136d9565b60ff166101208601819052600114611c785760405162461bcd60e51b815260206004820181905260248201527f434345786368616e67653a207370656564206973206e6f7420636f727265637460448201526064016106d9565b600160c086018181526000888152600a602090815260409182902089518155818a015194810194909455908801516002840155606088015160038401805460808b01516001600160a01b031661010002610100600160a81b031993151560ff19928316179390931692909217905560a089015160048501559151600584018054911515919093161790915560e08701518051889392611d1e926006850192910190614f8f565b506101008201516007820155610120820151600882015561014082015160098201805460ff191691151591909117905561016090910151600a909101555050505050505050565b60035460405163d0a8973960e01b8152600481018590526000602482018190529182916001600160a01b039091169063d0a897399060440160206040518083038186803b158015611db557600080fd5b505afa158015611dc9573d6000803e3d6000fd5b505050506040513d601f19601f82011682018060405250810190611ded9190615287565b905080341015611e4e5760405162461bcd60e51b815260206004820152602660248201527f434345786368616e67653a207061696420666565206973206e6f7420737566666044820152651a58da595b9d60d21b60648201526084016106d9565b600354604051600091611eab916001600160a01b0390911690611e7b908a908a908a908a90602401615715565b60408051601f198184030181529190526020810180516001600160e01b0316634354da2560e01b179052846136e8565b9050611ec033611ebb8434615b15565b61370e565b80806020019051810190611ed491906151b3565b979650505050505050565b6000611eeb838361382c565b6000838152600a602081815260408084209283018590559154835260089052812054919250906060906001600160a01b031680611f6a5760405162461bcd60e51b815260206004820152601960248201527f434345786368616e67653a20696e76616c69642061707069640000000000000060448201526064016106d9565b6000858152600a6020908152604080832081516101808101835281548152600182015481850152600282015481840152600382015460ff808216151560608401526101009091046001600160a01b03166080830152600483015460a0830152600583015416151560c08201526006820180548451818702810187019095528085529194929360e086019390929083018282801561203057602002820191906000526020600020905b81546001600160a01b03168152600190910190602001808311612012575b5050509183525050600782015460208201526008820154604082015260098083015460ff1615156060830152600a9092015460809091015260e08201518051929350909160009190600190811061209757634e487b7160e01b600052603260045260246000fd5b6020908102919091018101516001600160a01b031682528101919091526040016000205460ff1661224c57610120810151608082015160055460405163626885b560e11b81523393926001600160a01b03908116927fb3a2e879f0f08374624d8dbddf7f56f6d95250b9b009208652d6751e6f737e3a928d92600092169063c4d10b6a90612129908590600401615745565b60206040518083038186803b15801561214157600080fd5b505afa158015612155573d6000803e3d6000fd5b505050506040513d601f19601f820116820180604052508101906121799190615197565b60405180604001604052808960e001516000815181106121a957634e487b7160e01b600052603260045260246000fd5b60200260200101516001600160a01b03166001600160a01b031681526020018960e001516001815181106121ed57634e487b7160e01b600052603260045260246000fd5b60200260200101516001600160a01b03166001600160a01b031681525060405180604001604052808e815260200160008152508960a001518f8b6000015160405161223f989796959493929190615786565b60405180910390a461297f565b60065460405163095ea7b360e01b81526001600160a01b038481166004830152602482018890529091169063095ea7b390604401602060405180830381600087803b15801561229a57600080fd5b505af11580156122ae573d6000803e3d6000fd5b505050506040513d601f19601f820116820180604052508101906122d291906151b3565b50816001600160a01b031663b0bbcd888683604001518460e001513086610100015160016040518763ffffffff1660e01b815260040161231796959493929190615954565b600060405180830381600087803b15801561233157600080fd5b505af1158015612345573d6000803e3d6000fd5b505050506040513d6000823e601f3d908101601f1916820160405261236d91908101906151cd565b9094509250831561277257610120810151608082015160055460405163626885b560e11b81523393926001600160a01b03908116927faabd2491617d55a54050f8b4413d1f212bcb91f448d495fb64fe3bd94baf1b9a928d92600092169063c4d10b6a906123df908590600401615745565b60206040518083038186803b1580156123f757600080fd5b505afa15801561240b573d6000803e3d6000fd5b505050506040513d601f19601f8201168201806040525081019061242f9190615197565b60405180604001604052808960e0015160008151811061245f57634e487b7160e01b600052603260045260246000fd5b60200260200101516001600160a01b03166001600160a01b031681526020018960e001516001815181106124a357634e487b7160e01b600052603260045260246000fd5b60200260200101516001600160a01b03166001600160a01b031681525060405180604001604052808c6000815181106124ec57634e487b7160e01b600052603260045260246000fd5b602002602001015181526020018c60018e516125089190615b15565b8151811061252657634e487b7160e01b600052603260045260246000fd5b60200260200101518152508960a001518f8b60000151604051612550989796959493929190615786565b60405180910390a48060e0015160018151811061257d57634e487b7160e01b600052603260045260246000fd5b60200260200101516001600160a01b031663095ea7b3600b60009054906101000a90046001600160a01b031685600187516125b89190615b15565b815181106125d657634e487b7160e01b600052603260045260246000fd5b60200260200101516040518363ffffffff1660e01b815260040161260f9291906001600160a01b03929092168252602082015260400190565b602060405180830381600087803b15801561262957600080fd5b505af115801561263d573d6000803e3d6000fd5b505050506040513d601f19601f8201168201806040525081019061266191906151b3565b506000868152600a60205260409020600901805460ff19166001908117909155600b54608083015160e084015180516060946001600160a01b0390941693631186ec3393929181106126c357634e487b7160e01b600052603260045260246000fd5b602002602001015187600189516126da9190615b15565b815181106126f857634e487b7160e01b600052603260045260246000fd5b60200260200101516005600b60149054906101000a900460070b42886000196040518963ffffffff1660e01b815260040161273a9897969594939291906156ae565b600060405180830381600087803b15801561275457600080fd5b505af1158015612768573d6000803e3d6000fd5b505050505061297f565b60065460405163095ea7b360e01b81526001600160a01b038481166004830152600060248301529091169063095ea7b390604401602060405180830381600087803b1580156127c057600080fd5b505af11580156127d4573d6000803e3d6000fd5b505050506040513d601f19601f820116820180604052508101906127f891906151b3565b50610120810151608082015160055460405163626885b560e11b81523393926001600160a01b03908116927fb3a2e879f0f08374624d8dbddf7f56f6d95250b9b009208652d6751e6f737e3a928d92600092169063c4d10b6a90612860908590600401615745565b60206040518083038186803b15801561287857600080fd5b505afa15801561288c573d6000803e3d6000fd5b505050506040513d601f19601f820116820180604052508101906128b09190615197565b60405180604001604052808960e001516000815181106128e057634e487b7160e01b600052603260045260246000fd5b60200260200101516001600160a01b03166001600160a01b031681526020018960e0015160018151811061292457634e487b7160e01b600052603260045260246000fd5b60200260200101516001600160a01b03166001600160a01b031681525060405180604001604052808e815260200160008152508960a001518f8b60000151604051612976989796959493929190615786565b60405180910390a45b50505050505050565b6001607155565b60005481116129ec5760405162461bcd60e51b815260206004820152602360248201527f434345786368616e67653a206c6f77207374617274696e67426c6f636b4e756d6044820152623132b960e91b60648201526084016106d9565b600055565b806001600160a01b038116612a185760405162461bcd60e51b81526004016106d99061582c565b6040516001600160a01b03831681527f11d5479567619e62fec42363fc325ca213d6d84ecc842ea47ee5d4fd5ccd45859060200160405180910390a1506001600160a01b03166000908152600960205260409020805460ff19166001179055565b600c54600160a81b900460ff16612aa25760405162461bcd60e51b81526004016106d99061589a565b610f0a613a4b565b600c54600160a81b900460ff16612ad35760405162461bcd60e51b81526004016106d99061589a565b610f0a613a7d565b806127101015612b2d5760405162461bcd60e51b815260206004820152601f60248201527f434345786368616e67653a20666565206973206f7574206f662072616e67650060448201526064016106d9565b60025460408051918252602082018390527f7d205f60891f60851c61cd244ba387d72b6589e7c0ac41b9d909ab0ce2c2a53b910160405180910390a1600255565b806001600160a01b038116612b955760405162461bcd60e51b81526004016106d99061582c565b600354604080516001600160a01b03928316815291841660208301527f4c28a3f61a715259c4dc930c23e7423b8fa52e13232c061a6e488729c66184f4910160405180910390a150600380546001600160a01b0319166001600160a01b0392909216919091179055565b806001600160a01b038116612c265760405162461bcd60e51b81526004016106d99061582c565b600554604080516001600160a01b03928316815291841660208301527ffa021c2ec0f46429a53e7f88b88065e40001f50c9d38b2e8b713beaf9828d4c3910160405180910390a150600580546001600160a01b0319166001600160a01b0392909216919091179055565b806001600160a01b038116612cb75760405162461bcd60e51b81526004016106d99061582c565b600654604080516001600160a01b03928316815291841660208301527f36a4c08a38b736dcecb6c328dba61238529620e83ccb23db2cc43cd34ec26096910160405180910390a150600680546001600160a01b0319166001600160a01b0392909216919091179055565b806001600160a01b038116612d485760405162461bcd60e51b81526004016106d99061582c565b600754604080516001600160a01b03928316815291841660208301527f567657fa3f286518b318f4a29870674f433f622fdfc819691acb13105b228225910160405180910390a150600780546001600160a01b0319166001600160a01b0392909216919091179055565b806001600160a01b038116612dd95760405162461bcd60e51b81526004016106d99061582c565b600b54604080516001600160a01b03928316815291841660208301527f06e5f2ca1234f717a2031f662608c02182d4f8bdc3dab013ec4c04eb97553132910160405180910390a150600b80546001600160a01b0319166001600160a01b0392909216919091179055565b806001600160a01b038116612e6a5760405162461bcd60e51b81526004016106d99061582c565b600c54604080516001600160a01b03928316815291841660208301527f5b663d57fa8cf393f8c8019f514b25c1b3223c9324a2ce3efe28ce5aef0e62fe910160405180910390a150600c80546001600160a01b0319166001600160a01b0392909216919091179055565b6000612ee1826001615a23565b83511015612f275760405162461bcd60e51b8152602060048201526013602482015272746f55696e74385f6f75744f66426f756e647360681b60448201526064016106d9565b50818101600101515b92915050565b6000612f43826020615a23565b83511015612f8b5760405162461bcd60e51b8152602060048201526015602482015274746f427974657333325f6f75744f66426f756e647360581b60448201526064016106d9565b50016020015190565b606081612fa281601f615a23565b1015612fe15760405162461bcd60e51b815260206004820152600e60248201526d736c6963655f6f766572666c6f7760901b60448201526064016106d9565b612feb8284615a23565b8451101561302f5760405162461bcd60e51b8152602060048201526011602482015270736c6963655f6f75744f66426f756e647360781b60448201526064016106d9565b60608215801561304e5760405191506000825260208201604052613098565b6040519150601f8416801560200281840101858101878315602002848b0101015b8183101561308757805183526020928301920161306f565b5050858452601f01601f1916604052505b5090505b9392505050565b83516020850181902060009182906130ba90613aa6565b826040516020016130cc929190615662565b60408051601f198184030181528282528051602091820120600080855291840180845281905260ff88169284019290925260608301899052608083018890529092509060019060a0016020604051602081039080840390855afa158015613137573d6000803e3d6000fd5b5050604051601f1901519150506001600160a01b038116611ed45760405162461bcd60e51b815260206004820152602260248201527f506f6c79676f6e436f6e6e6563746f724c6f6769633a20496e76616c69642073604482015261696760f01b60648201526084016106d9565b806001600160a01b0381166131cc5760405162461bcd60e51b81526004016106d99061582c565b600454604080516001600160a01b03928316815291841660208301527f12ad124e13af4c31364ad22aa74320e167b37f005dafb75d71a210c49da3629e910160405180910390a150600480546001600160a01b0319166001600160a01b0392909216919091179055565b806001600160a01b03811661325d5760405162461bcd60e51b81526004016106d99061582c565b6040516001600160a01b03831681527fa86ab6df2b525cca70a7f7133c1996c33451409f5303014ebb1e801a807393b19060200160405180910390a1506001600160a01b03166000908152600960205260409020805460ff19169055565b60006132c8826020615a23565b83511015612f8b5760405162461bcd60e51b8152602060048201526015602482015274746f55696e743235365f6f75744f66426f756e647360581b60448201526064016106d9565b603f80546001600160a01b038381166001600160a01b0319831681179093556040519116919082907f8be0079c531659141344cd1fd0a4f28419497f9722a3daafe3b4186f6b6457e090600090a35050565b81516000906020840161337d64ffffffffff85168284613beb565b95945050505050565b6000818161339c815b62ffffff19841690613c2f565b50601884901c6001600160601b03166133bc5762ffffff195b92506134b5565b60006133c9856000613d09565b9050601885901c6001600160601b03166001600160401b0382166133f65762ffffff195b945050506134b5565b600061340183613e52565b60ff16905060005b836001600160401b031681101561347d578282106134325762ffffff195b9650505050506134b5565b60006134526134418486615b15565b60055b62ffffff198c169190613eab565b905061345d81613edf565b6134679084615a23565b925050808061347590615ba7565b915050613409565b508181146134955762ffffff195b95505050506134b5565b6134af60065b60d81b6301000000600160d81b0389161790565b95505050505b5050919050565b60006060816134d26134cd82611696565b613f33565b905062ffffff19808216141561352a5760405162461bcd60e51b815260206004820152601b60248201527f426974636f696e48656c7065723a20766f7574206973206e756c6c000000000060448201526064016106d9565b600080600080600061353d866000613d09565b6001600160401b0316905060005b818110156136255761355d8782614024565b95506135688661413b565b94506135738661418f565b935061357e846141d9565b925062ffffff198084161415613601578960405160200161359f9190615617565b604051602081830303815290604052805190602001206135c48662ffffff19166142f3565b6040516020016135d49190615617565b6040516020818303038152906040528051906020012014156135fc576135f986614343565b98505b613613565b61361062ffffff1984166142f3565b97505b8061361d81615ba7565b91505061354b565b505050505050509250929050565b60008061364283600080614368565b600101519392505050565b60008061365d8360016002614368565b600201519392505050565b60008061367883601a602d614368565b601401519392505050565b60008061369383602e6049614368565b601c01519392505050565b6000806136788360036016614368565b6000806136be83604a604d614368565b600401519392505050565b60008061365d8360176018614368565b60008061364283601980614368565b6060611488848484604051806060016040528060298152602001615c04602991396143ed565b8047101561375e5760405162461bcd60e51b815260206004820152601d60248201527f416464726573733a20696e73756666696369656e742062616c616e636500000060448201526064016106d9565b6000826001600160a01b03168260405160006040518083038185875af1925050503d80600081146137ab576040519150601f19603f3d011682016040523d82523d6000602084013e6137b0565b606091505b50509050806138275760405162461bcd60e51b815260206004820152603a60248201527f416464726573733a20756e61626c6520746f2073656e642076616c75652c207260448201527f6563697069656e74206d6179206861766520726576657274656400000000000060648201526084016106d9565b505050565b6005546000828152600a60205260408082206001015490516307f3f86760e21b8152919283926001600160a01b0390911691631fcfe19c91613875918891309190600401615758565b602060405180830381600087803b15801561388f57600080fd5b505af11580156138a3573d6000803e3d6000fd5b505050506040513d601f19601f820116820180604052508101906138c79190615287565b6002546000858152600a602052604081206001015492935091612710916138ed91615acd565b6138f79190615aad565b6000858152600a602052604090206004015490915080156139a6576006546001600160a01b031663a9059cbb336040516001600160e01b031960e084901b1681526001600160a01b03909116600482015260248101849052604401602060405180830381600087803b15801561396c57600080fd5b505af1158015613980573d6000803e3d6000fd5b505050506040513d601f19601f820116820180604052508101906139a491906151b3565b505b8115613a365760065460075460405163a9059cbb60e01b81526001600160a01b0391821660048201526024810185905291169063a9059cbb90604401602060405180830381600087803b1580156139fc57600080fd5b505af1158015613a10573d6000803e3d6000fd5b505050506040513d601f19601f82011682018060405250810190613a3491906151b3565b505b80613a418385615b15565b610e8a9190615b15565b600c54600160a81b900460ff16613a745760405162461bcd60e51b81526004016106d99061589a565b610f0a33613310565b600c54600160a81b900460ff166129885760405162461bcd60e51b81526004016106d99061589a565b606081613acb57506040805180820190915260018152600360fc1b6020820152610f54565b8160005b8115613af55780613adf81615ba7565b9150613aee9050600a83615aad565b9150613acf565b6000816001600160401b03811115613b1d57634e487b7160e01b600052604160045260246000fd5b6040519080825280601f01601f191660200182016040528015613b47576020820181803683370190505b509050815b8515613be257613b5d600182615b15565b90506000613b6c600a88615aad565b613b7790600a615acd565b613b819088615b15565b613b8c906030615a66565b905060008160f81b905080848481518110613bb757634e487b7160e01b600052603260045260246000fd5b60200101906001600160f81b031916908160001a905350613bd9600a89615aad565b97505050613b4c565b50949350505050565b600080613bf88385615a23565b9050604051811115613c08575060005b80613c1a5762ffffff1991505061309c565b5050606092831b9190911790911b1760181b90565b6000613c3b838361450a565b613d02576000613c5a613c4e8560d81c90565b64ffffffffff1661452d565b9150506000613c6f8464ffffffffff1661452d565b6040517f5479706520617373657274696f6e206661696c65642e20476f7420307800000060208201526001600160b01b031960b086811b8216603d8401526c05c408af0e0cac6e8cac84060f609b1b604784015283901b16605482015290925060009150605e015b60405160208183030381529060405290508060405162461bcd60e51b81526004016106d99190615745565b5090919050565b600080613d1e62ffffff1985168460016145d9565b905060fc8111613d3957613d3181614609565b915050612f30565b8060fd1415613d9f57613d67613d62613d53856001615a23565b62ffffff198716906002614675565b614609565b9150613d7282613e52565b60ff16600314613d9a57613d98613d9362ffffff19861685600360006147bf565b61482f565b505b613e4b565b8060fe1415613df457613dc8613d62613db9856001615a23565b62ffffff198716906004614675565b9150613dd382613e52565b60ff16600514613d9a57613d98613d9362ffffff19861685600560006147bf565b8060ff1415613e4b57613e1d613d62613e0e856001615a23565b62ffffff198716906008614675565b9150613e2882613e52565b60ff16600914613e4b57613e49613d9362ffffff19861685600960006147bf565b505b5092915050565b600060fc826001600160401b031611613e6d57506001610f54565b61ffff826001600160401b031611613e8757506003610f54565b63ffffffff826001600160401b031611613ea357506005610f54565b506009610f54565b60006114888484613ec58760181c6001600160601b031690565b6001600160601b0316613ed89190615b15565b85856147bf565b6000816005613eed8161338f565b506000613efb856024613d09565b9050806001600160401b0316613f1082613e52565b60ff16613f1d9190615a23565b613f28906024615a23565b61337d906004615a23565b60008181613f408161338f565b50601884901c6001600160601b0316613f5d5762ffffff196133b5565b6000613f6a856000613d09565b9050601885901c6001600160601b03166001600160401b038216613f925762ffffff196133ed565b6000613f9d83613e52565b60ff16905060005b836001600160401b031681101561400857828210613fc75762ffffff19613427565b6000613fdd613fd68486615b15565b600e613444565b9050613fe8816148b6565b613ff29084615a23565b925050808061400090615ba7565b915050613fa5565b5081811461401a5762ffffff1961348b565b6134af600f61349b565b600082600f6140328161338f565b506000614040866000613d09565b6001600160401b03169050601886901c6001600160601b031681861061409c5760405162461bcd60e51b81526020600482015260116024820152702b37baba103932b0b21037bb32b9393ab760791b60448201526064016106d9565b60006140a783613e52565b60ff1690506000805b888110156140fd576140d46140c58486615b15565b62ffffff198c1690600e613eab565b91506140df826148b6565b6140e99084615a23565b92506140f6600182615a23565b90506140b0565b5061410b613fd68385615b15565b90506000614118826148b6565b905061412d62ffffff198b168483600d6147bf565b9a9950505050505050505050565b600081600d6141498161338f565b506000614157856008613d09565b905061337d61416582613e52565b614170906008615a66565b60ff166001600160401b03831660075b62ffffff1989169291906147bf565b600081600d61419d8161338f565b5060006141ab856008613d09565b905061337d6008826141bc84613e52565b60ff166141c99190615a3b565b6001600160401b03166007614180565b60008160076141e78161338f565b5060006141f5856000613d09565b9050600061420f613d6262ffffff198816600360016145d9565b905061422362ffffff1987166001806145d9565b606a1415806142575750614238600383615b2c565b6001600160401b031661425462ffffff198816600360016145d9565b14155b156142665762ffffff196133ed565b6053826001600160401b03161115801561428a57506004826001600160401b031610155b6142d65760405162461bcd60e51b815260206004820152601f60248201527f426974636f696e48656c7065723a20696e76616c6964206f7072657475726e0060448201526064016106d9565b610e8a62ffffff19871660046001600160401b038416600c6147bf565b606060008061430b8460181c6001600160601b031690565b60405193508392506001600160601b031690506143328461432d846020615a23565b6148ff565b508181016020016040529052919050565b600081600d6143518161338f565b50611488613d6262ffffff19861660006008614675565b60606000835b614379846001615a23565b8110156143e4578581815181106143a057634e487b7160e01b600052603260045260246000fd5b602001015160f81c60f81b915082826040516020016143c0929190615633565b604051602081830303815290604052925080806143dc90615ba7565b91505061436e565b50509392505050565b60608247101561444e5760405162461bcd60e51b815260206004820152602660248201527f416464726573733a20696e73756666696369656e742062616c616e636520666f6044820152651c8818d85b1b60d21b60648201526084016106d9565b843b61449c5760405162461bcd60e51b815260206004820152601d60248201527f416464726573733a2063616c6c20746f206e6f6e2d636f6e747261637400000060448201526064016106d9565b600080866001600160a01b031685876040516144b89190615617565b60006040518083038185875af1925050503d80600081146144f5576040519150601f19603f3d011682016040523d82523d6000602084013e6144fa565b606091505b5091509150611ed4828286614a57565b60008164ffffffffff1661451e8460d81c90565b64ffffffffff16149392505050565b600080601f5b600f8160ff16111561458b57600061454c826008615aec565b60ff1685901c905061455d81614a90565b61ffff16841793508160ff1660101461457857601084901b93505b50614584600182615b54565b9050614533565b50600f5b60ff8160ff1610156145d35760ff600882021684901c6145ae81614a90565b61ffff16831792508160ff166000146145c957601083901b92505b506000190161458f565b50915091565b60006145e6826020615b54565b6145f1906008615aec565b60ff166145ff858585614ac0565b901c949350505050565b60006001600160401b038211156146715760405162461bcd60e51b815260206004820152602660248201527f53616665436173743a2076616c756520646f65736e27742066697420696e203660448201526534206269747360d01b60648201526084016106d9565b5090565b6000611488614685858585614ac0565b600881811c7eff00ff00ff00ff00ff00ff00ff00ff00ff00ff00ff00ff00ff00ff00ff00ff167fff00ff00ff00ff00ff00ff00ff00ff00ff00ff00ff00ff00ff00ff00ff00ff009290911b9190911617601081811c7dffff0000ffff0000ffff0000ffff0000ffff0000ffff0000ffff0000ffff167fffff0000ffff0000ffff0000ffff0000ffff0000ffff0000ffff0000ffff00009290911b9190911617602081811c7bffffffff00000000ffffffff00000000ffffffff00000000ffffffff167fffffffff00000000ffffffff00000000ffffffff00000000ffffffff000000009290911b9190911617604081811c77ffffffffffffffff0000000000000000ffffffffffffffff1677ffffffffffffffff0000000000000000ffffffffffffffff199290911b9190911617608081811c91901b1790565b6000806147d58660781c6001600160601b031690565b6001600160601b031690506147e986614c19565b846147f48784615a23565b6147fe9190615a23565b11156148115762ffffff19915050611488565b61481b8582615a23565b9050610e8a8364ffffffffff168286613beb565b6060600061486361485e82614850601887901c6001600160601b0316614c5a565b62ffffff19871691906145d9565b61452d565b6040517f4e6f6e2d6d696e696d616c2076617220696e742e20476f74203078000000000060208201526dffffffffffffffffffffffffffff19607083901b16603b82015290925060009150604d01613cd7565b600081600e6148c48161338f565b5060006148d2856008613d09565b9050806001600160401b03166148e782613e52565b60ff166148f49190615a23565b61337d906008615a23565b600062ffffff1980841614156149685760405162461bcd60e51b815260206004820152602860248201527f54797065644d656d566965772f636f7079546f202d204e756c6c20706f696e7460448201526732b9103232b932b360c11b60648201526084016106d9565b61497183614cbb565b6149d15760405162461bcd60e51b815260206004820152602b60248201527f54797065644d656d566965772f636f7079546f202d20496e76616c696420706f60448201526a34b73a32b9103232b932b360a91b60648201526084016106d9565b60006149e68460181c6001600160601b031690565b6001600160601b031690506000614a068560781c6001600160601b031690565b6001600160601b031690506000604051905084811115614a265760206060fd5b8285848460045afa50610e8a614a3c8760d81c90565b64ffffffffff60601b606091821b168717901b841760181b90565b60608315614a6657508161309c565b825115614a765782518084602001fd5b8160405162461bcd60e51b81526004016106d99190615745565b6000614aa260048360ff16901c614cf9565b60ff161760081b62ffff0016614ab782614cf9565b60ff1617919050565b600060ff8216614ad25750600061309c565b614ae58460181c6001600160601b031690565b6001600160601b0316614afb60ff841685615a23565b1115614b5f57614b46614b178560781c6001600160601b031690565b6001600160601b0316614b338660181c6001600160601b031690565b6001600160601b0316858560ff16614e65565b60405162461bcd60e51b81526004016106d99190615745565b60208260ff161115614bd95760405162461bcd60e51b815260206004820152603a60248201527f54797065644d656d566965772f696e646578202d20417474656d70746564207460448201527f6f20696e646578206d6f7265207468616e20333220627974657300000000000060648201526084016106d9565b600882026000614bf28660781c6001600160601b031690565b6001600160601b031690506000600160ff1b60001984011d91909501511695945050505050565b6000614c2e8260181c6001600160601b031690565b614c418360781c6001600160601b031690565b614c4b9190615a8b565b6001600160601b031692915050565b600060ff8211156146715760405162461bcd60e51b815260206004820152602560248201527f53616665436173743a2076616c756520646f65736e27742066697420696e2038604482015264206269747360d81b60648201526084016106d9565b6000614cc78260d81c90565b64ffffffffff1664ffffffffff1415614ce257506000610f54565b6000614ced83614c19565b60405110199392505050565b600060f08083179060ff82161415614d15576030915050610f54565b8060ff1660f11415614d2b576031915050610f54565b8060ff1660f21415614d41576032915050610f54565b8060ff1660f31415614d57576033915050610f54565b8060ff1660f41415614d6d576034915050610f54565b8060ff1660f51415614d83576035915050610f54565b8060ff1660f61415614d99576036915050610f54565b8060ff1660f71415614daf576037915050610f54565b8060ff1660f81415614dc5576038915050610f54565b8060ff1660f91415614ddb576039915050610f54565b8060ff1660fa1415614df1576061915050610f54565b8060ff1660fb1415614e07576062915050610f54565b8060ff1660fc1415614e1d576063915050610f54565b8060ff1660fd1415614e33576064915050610f54565b8060ff1660fe1415614e49576065915050610f54565b8060ff1660ff1415614e5f576066915050610f54565b50919050565b60606000614e728661452d565b9150506000614e808661452d565b9150506000614e8e8661452d565b9150506000614e9c8661452d565b604080517f54797065644d656d566965772f696e646578202d204f76657272616e20746865602082015274040ecd2caee5c40a6d8d2c6ca40d2e640c2e84060f605b1b818301526001600160d01b031960d098891b811660558301526e040eed2e8d040d8cadccee8d04060f608b1b605b830181905297891b8116606a8301527f2e20417474656d7074656420746f20696e646578206174206f666673657420306070830152600f60fb1b609083015295881b861660918201526097810196909652951b90921660a68401525050601760f91b60ac8201528151808203608d01815260ad90910190915295945050505050565b828054828255906000526020600020908101928215614fe4579160200282015b82811115614fe457825182546001600160a01b0319166001600160a01b03909116178255602090920191600190910190614faf565b506146719291505b808211156146715760008155600101614fec565b8035610f5481615bee565b600082601f83011261501b578081fd5b8135602061503061502b83615a00565b6159d0565b828152818101908583018385028701840188101561504c578586fd5b855b8581101561507357813561506181615bee565b8452928401929084019060010161504e565b5090979650505050505050565b80518015158114610f5457600080fd5b80356001600160e01b031981168114610f5457600080fd5b60008083601f8401126150b9578182fd5b5081356001600160401b038111156150cf578182fd5b6020830191508360208285010111156150e757600080fd5b9250929050565b600082601f8301126150fe578081fd5b81356001600160401b0381111561511757615117615bd8565b61512a601f8201601f19166020016159d0565b81815284602083860101111561513e578283fd5b816020850160208301379081016020019190915292915050565b8035600781900b8114610f5457600080fd5b803560ff81168114610f5457600080fd5b60006020828403121561518c578081fd5b813561309c81615bee565b6000602082840312156151a8578081fd5b815161309c81615bee565b6000602082840312156151c4578081fd5b61309c82615080565b600080604083850312156151df578081fd5b6151e883615080565b91506020808401516001600160401b03811115615203578283fd5b8401601f81018613615213578283fd5b805161522161502b82615a00565b81815283810190838501858402850186018a101561523d578687fd5b8694505b8385101561525f578051835260019490940193918501918501615241565b5080955050505050509250929050565b600060208284031215615280578081fd5b5035919050565b600060208284031215615298578081fd5b5051919050565b60008060008060008060008060008060006101008c8e0312156152c0578687fd5b6152c98c615090565b9a506001600160401b038060208e013511156152e3578788fd5b6152f38e60208f01358f016150ee565b9a508060408e01351115615305578788fd5b6153158e60408f01358f016150a8565b909a50985061532660608e01615090565b975060808d013596508060a08e0135111561533f578586fd5b61534f8e60a08f01358f016150a8565b909650945060c08d0135935060e08d013581101561536b578283fd5b5061537c8d60e08e01358e016150a8565b81935080925050509295989b509295989b9093969950565b600080600080608085870312156153a9578384fd5b84356001600160401b038111156153be578485fd5b6153ca878288016150ee565b94505060208501359250604085013591506153e76060860161516a565b905092959194509250565b60008060008060008060a0878903121561540a578384fd5b86356001600160401b0380821115615420578586fd5b61542c8a838b016150ee565b9750602089013596506040890135955061544860608a0161516a565b9450608089013591508082111561545d578384fd5b5061546a89828a016150a8565b979a9699509497509295939492505050565b60006020828403121561548d578081fd5b61309c82615158565b600080604083850312156154a8578182fd5b8235915060208301356154ba81615bee565b809150509250929050565b60008060008060008060008060008060006101608c8e0312156154e6578485fd5b8b359a5060208c0135995060408c0135985060608c013561550681615bee565b975060808c013561551681615bee565b965061552460a08d01615000565b955061553260c08d01615000565b945060e08c01356001600160401b0381111561554c578485fd5b6155588e828f0161500b565b9450506155686101008d01615000565b92506155776101208d01615000565b91506155866101408d01615158565b90509295989b509295989b9093969950565b600081518084526155b0816020860160208601615b77565b601f01601f19169290920160200192915050565b600063ffffffff60e01b808716835285516155e6816004860160208a01615b77565b8551908401906155fd816004840160208a01615b77565b919094169301600481019390935250506008019392505050565b60008251615629818460208701615b77565b9190910192915050565b60008351615645818460208801615b77565b6001600160f81b0319939093169190920190815260010192915050565b60007f19457468657265756d205369676e6564204d6573736167653a0a0000000000008252835161569a81601a850160208801615b77565b601a920191820192909252603a0192915050565b6001600160a01b038981168252881660208201526040810187905260608101869052600785900b608082015263ffffffff841660a082015261010060c082018190526000906156ff83820186615598565b9150508260e08301529998505050505050505050565b6000858252846020830152608060408301526157346080830185615598565b905082606083015295945050505050565b60006020825261309c6020830184615598565b60006060825261576b6060830186615598565b6001600160a01b039490941660208301525060400152919050565b600061014080835261579a8184018c615598565b60208481018c90526001600160a01b038b811660408701529193509150606084018960005b60028110156157de5781518416835291840191908401906001016157bf565b5050505060a083018760005b6002811015615807578151835291830191908301906001016157ea565b505050508460e083015283610100830152826101208301529998505050505050505050565b60208082526018908201527f434345786368616e67653a207a65726f20616464726573730000000000000000604082015260600190565b6020808252601a908201527f434345786368616e67653a20696e76616c69642073656e646572000000000000604082015260600190565b6020808252602b908201527f496e697469616c697a61626c653a20636f6e7472616374206973206e6f74206960408201526a6e697469616c697a696e6760a81b606082015260800190565b6000868252608060208301526158fe6080830187615598565b6006861061591a57634e487b7160e01b82526021600452602482fd5b85604084015282810360608401528381528385602083013781602085830101526020601f19601f8601168201019150509695505050505050565b600060c082018883526020888185015260c0604085015281885180845260e086019150828a019350845b818110156159a35784516001600160a01b03168352938301939183019160010161597e565b50506001600160a01b039790971660608501525050506080810192909252151560a0909101529392505050565b604051601f8201601f191681016001600160401b03811182821017156159f8576159f8615bd8565b604052919050565b60006001600160401b03821115615a1957615a19615bd8565b5060209081020190565b60008219821115615a3657615a36615bc2565b500190565b60006001600160401b03808316818516808303821115615a5d57615a5d615bc2565b01949350505050565b600060ff821660ff84168060ff03821115615a8357615a83615bc2565b019392505050565b60006001600160601b03808316818516808303821115615a5d57615a5d615bc2565b600082615ac857634e487b7160e01b81526012600452602481fd5b500490565b6000816000190483118215151615615ae757615ae7615bc2565b500290565b600060ff821660ff84168160ff0481118215151615615b0d57615b0d615bc2565b029392505050565b600082821015615b2757615b27615bc2565b500390565b60006001600160401b0383811690831681811015615b4c57615b4c615bc2565b039392505050565b600060ff821660ff841680821015615b6e57615b6e615bc2565b90039392505050565b60005b83811015615b92578181015183820152602001615b7a565b83811115615ba1576000848401525b50505050565b6000600019821415615bbb57615bbb615bc2565b5060010190565b634e487b7160e01b600052601160045260246000fd5b634e487b7160e01b600052604160045260246000fd5b6001600160a01b038116811461069957600080fdfe416464726573733a206c6f772d6c6576656c2063616c6c20776974682076616c7565206661696c6564a26469706673582212200ff4f3165c5d04c88cbe41e52d0d950d90a730a072438cdb3f5736a5711a4c0664736f6c63430008020033",
  "devdoc": {
    "kind": "dev",
    "methods": {
      "addSupportedExchangeToken(address)": {
        "details": "Only owner can call this",
        "params": {
          "_token": "Exchange token address"
        }
      },
      "ccExchange(bytes4,bytes,bytes,bytes4,uint256,bytes,uint256,bytes)": {
        "details": "Mints teleBTC for user if exchanging is not successful",
        "params": {
          "_blockNumber": "Height of the block containing the user request",
          "_index": "Index of transaction containing the user request in the block",
          "_intermediateNodes": "Merkle inclusion proof for transaction containing the user request",
          "_lockerLockingScript": "Script hash of locker that user has sent BTC to it",
          "_locktime": "Lock time of the transaction containing the user request",
          "_version": "Version of the transaction containing the user request",
          "_vin": "Inputs of the transaction containing the user request",
          "_vout": "Outputs of the transaction containing the user request"
        },
        "returns": {
          "_0": ""
        }
      },
      "initialize(uint256,uint256,uint256,address,address,address,address,address[],address,address,int64)": {
        "params": {
          "_chainId": "Id of the underlying chain",
          "_lockers": "Lockers' contract address",
          "_protocolPercentageFee": "Percentage amount of protocol fee (min: %0.01)",
          "_relay": "The Relay address to validate data from source chain",
          "_startingBlockNumber": "Requests that are included in a block older than _startingBlockNumber cannot be executed",
          "_teleBTC": "TeleportDAO BTC ERC20 token address",
          "_treasury": "Address of treasury that collects protocol fees"
        }
      },
      "isRequestUsed(bytes32)": {
        "details": "It prevents re-submitting an executed request",
        "params": {
          "_txId": "The transaction ID of request on source chain "
        },
        "returns": {
          "_0": "True if the cc exchange request has been already executed"
        }
      },
      "owner()": {
        "details": "Returns the address of the current owner."
      },
      "reDoFailedCcExchange(bytes,bytes32,bytes32,uint8)": {
        "details": "Mints teleBTC for user if exchanging is not successful",
        "params": {
          "_message": "Version of the transaction containing the user request"
        },
        "returns": {
          "_0": ""
        }
      },
      "removeSupportedExchangeToken(address)": {
        "details": "Only owner can call this",
        "params": {
          "_token": "Exchange token address"
        }
      },
      "renounceOwnership()": {
        "details": "Leaves the contract without owner. It will not be possible to call `onlyOwner` functions anymore. Can only be called by the current owner. NOTE: Renouncing ownership will leave the contract without an owner, thereby removing any functionality that is only available to the owner."
      },
      "setExchangeConnector(uint256,address)": {
        "details": "Only owner can call this. _exchangeConnector can be set to zero to inactive an app",
        "params": {
          "_appId": "AppId of exchange connector",
          "_exchangeConnector": "Address of exchange connector"
        }
      },
      "setInstantRouter(address)": {
        "details": "Only owner can call this",
        "params": {
          "_instantRouter": "The new instantRouter contract address"
        }
      },
      "setLockers(address)": {
        "details": "Only owner can call this",
        "params": {
          "_lockers": "The new lockers contract address"
        }
      },
      "setProtocolPercentageFee(uint256)": {
        "details": "Only owner can call this",
        "params": {
          "_protocolPercentageFee": "Percentage amount of protocol fee"
        }
      },
      "setRelay(address)": {
        "details": "Only owner can call this",
        "params": {
          "_relay": "The new relay contract address"
        }
      },
      "setTeleBTC(address)": {
        "details": "Only owner can call this",
        "params": {
          "_teleBTC": "The new teleBTC contract address"
        }
      },
      "setTreasury(address)": {
        "details": "Only owner can call this",
        "params": {
          "_treasury": "Treasury address"
        }
      },
      "transferOwnership(address)": {
        "details": "Transfers ownership of the contract to a new account (`newOwner`). Can only be called by the current owner."
      },
      "updateAcross(address)": {
        "details": "Only owner can call this",
        "params": {
          "_across": "Across address"
        }
      },
      "updateAcrossRelayerFee(int64)": {
        "details": "Only owner can call this",
        "params": {
          "_acrossRelayerFee": "Across relayer fee"
        }
      },
      "updateBurnRouter(address)": {
        "details": "Only owner can call this",
        "params": {
          "_burnRouter": "BurnRouter address"
        }
      },
      "withdrawFailedCcExchangeToBTC(bytes,bytes32,bytes32,uint8,bytes)": {
        "details": "Mints teleBTC for user if exchanging is not successful",
        "params": {
          "_message": "Version of the transaction containing the user request"
        },
        "returns": {
          "_0": ""
        }
      }
    },
    "version": 1
  },
  "userdoc": {
    "events": {
      "CCExchange(bytes,uint256,address,address,address[2],uint256[2],uint256,address,uint256,bytes32,uint256)": {
        "notice": "Emits when a cc exchange request gets done"
      },
      "FailedCCExchange(bytes,uint256,address,address,address[2],uint256[2],uint256,address,uint256,bytes32,uint256)": {
        "notice": "Emits when a cc exchange request fails"
      },
      "NewInstantRouter(address,address)": {
        "notice": "Emits when changes made to InstantRouter address"
      },
      "NewLockers(address,address)": {
        "notice": "Emits when changes made to Lockers address"
      },
      "NewProtocolPercentageFee(uint256,uint256)": {
        "notice": "Emits when changes made to protocol percentage fee"
      },
      "NewRelay(address,address)": {
        "notice": "Emits when changes made to relay address"
      },
      "NewTeleBTC(address,address)": {
        "notice": "Emits when changes made to TeleBTC address"
      },
      "NewTreasury(address,address)": {
        "notice": "Emits when changes made to Treasury address"
      },
      "SetExchangeConnector(uint256,address)": {
        "notice": "Emits when appId for an exchange connector is set"
      }
    },
    "kind": "user",
    "methods": {
      "addSupportedExchangeToken(address)": {
        "notice": "Setter for a supported exchange token"
      },
      "ccExchange(bytes4,bytes,bytes,bytes4,uint256,bytes,uint256,bytes)": {
        "notice": "Executes a cross-chain exchange request after checking its merkle inclusion proof"
      },
      "initialize(uint256,uint256,uint256,address,address,address,address,address[],address,address,int64)": {
        "notice": "Gives default params to initiate cc exchange router"
      },
      "isRequestUsed(bytes32)": {
        "notice": "Check if the cc exchange request has been executed before"
      },
      "reDoFailedCcExchange(bytes,bytes32,bytes32,uint8)": {
        "notice": "Executes a cross-chain exchange request after checking its merkle inclusion proof"
      },
      "removeSupportedExchangeToken(address)": {
        "notice": "Remover for a supported exchange token"
      },
      "setExchangeConnector(uint256,address)": {
        "notice": "Sets appId for an exchange connector"
      },
      "setInstantRouter(address)": {
        "notice": "Changes instantRouter contract address"
      },
      "setLockers(address)": {
        "notice": "Changes lockers contract address"
      },
      "setProtocolPercentageFee(uint256)": {
        "notice": "Setter for protocol percentage fee"
      },
      "setRelay(address)": {
        "notice": "Changes relay contract address"
      },
      "setStartingBlockNumber(uint256)": {
        "notice": "Setter for starting block number"
      },
      "setTeleBTC(address)": {
        "notice": "Changes teleBTC contract address"
      },
      "setTreasury(address)": {
        "notice": "Setter for treasury"
      },
      "updateAcross(address)": {
        "notice": "Setter for across"
      },
      "updateAcrossRelayerFee(int64)": {
        "notice": "Setter for acrossRelayerFee"
      },
      "updateBurnRouter(address)": {
        "notice": "Setter for burnRouter"
      },
      "withdrawFailedCcExchangeToBTC(bytes,bytes32,bytes32,uint8,bytes)": {
        "notice": "Executes a cross-chain exchange request after checking its merkle inclusion proof"
      }
    },
    "version": 1
  },
  "storageLayout": {
    "storage": [
      {
        "astId": 22969,
        "contract": "contracts/routers/EthCcExchangeRouterLogic.sol:EthCcExchangeRouterLogic",
        "label": "startingBlockNumber",
        "offset": 0,
        "slot": "0",
        "type": "t_uint256"
      },
      {
        "astId": 22972,
        "contract": "contracts/routers/EthCcExchangeRouterLogic.sol:EthCcExchangeRouterLogic",
        "label": "chainId",
        "offset": 0,
        "slot": "1",
        "type": "t_uint256"
      },
      {
        "astId": 22975,
        "contract": "contracts/routers/EthCcExchangeRouterLogic.sol:EthCcExchangeRouterLogic",
        "label": "protocolPercentageFee",
        "offset": 0,
        "slot": "2",
        "type": "t_uint256"
      },
      {
        "astId": 22978,
        "contract": "contracts/routers/EthCcExchangeRouterLogic.sol:EthCcExchangeRouterLogic",
        "label": "relay",
        "offset": 0,
        "slot": "3",
        "type": "t_address"
      },
      {
        "astId": 22981,
        "contract": "contracts/routers/EthCcExchangeRouterLogic.sol:EthCcExchangeRouterLogic",
        "label": "instantRouter",
        "offset": 0,
        "slot": "4",
        "type": "t_address"
      },
      {
        "astId": 22984,
        "contract": "contracts/routers/EthCcExchangeRouterLogic.sol:EthCcExchangeRouterLogic",
        "label": "lockers",
        "offset": 0,
        "slot": "5",
        "type": "t_address"
      },
      {
        "astId": 22987,
        "contract": "contracts/routers/EthCcExchangeRouterLogic.sol:EthCcExchangeRouterLogic",
        "label": "teleBTC",
        "offset": 0,
        "slot": "6",
        "type": "t_address"
      },
      {
        "astId": 22990,
        "contract": "contracts/routers/EthCcExchangeRouterLogic.sol:EthCcExchangeRouterLogic",
        "label": "treasury",
        "offset": 0,
        "slot": "7",
        "type": "t_address"
      },
      {
        "astId": 22995,
        "contract": "contracts/routers/EthCcExchangeRouterLogic.sol:EthCcExchangeRouterLogic",
        "label": "exchangeConnector",
        "offset": 0,
        "slot": "8",
        "type": "t_mapping(t_uint256,t_address)"
      },
      {
        "astId": 23000,
        "contract": "contracts/routers/EthCcExchangeRouterLogic.sol:EthCcExchangeRouterLogic",
        "label": "isExchangeTokenSupported",
        "offset": 0,
        "slot": "9",
        "type": "t_mapping(t_address,t_bool)"
      },
      {
        "astId": 23005,
        "contract": "contracts/routers/EthCcExchangeRouterLogic.sol:EthCcExchangeRouterLogic",
        "label": "ethCcExchangeRequests",
        "offset": 0,
        "slot": "10",
        "type": "t_mapping(t_bytes32,t_struct(ethCcExchangeRequest)23919_storage)"
      },
      {
        "astId": 23008,
        "contract": "contracts/routers/EthCcExchangeRouterLogic.sol:EthCcExchangeRouterLogic",
        "label": "across",
        "offset": 0,
        "slot": "11",
        "type": "t_address"
      },
      {
        "astId": 23011,
        "contract": "contracts/routers/EthCcExchangeRouterLogic.sol:EthCcExchangeRouterLogic",
        "label": "acrossRelayerFee",
        "offset": 20,
        "slot": "11",
        "type": "t_int64"
      },
      {
        "astId": 23014,
        "contract": "contracts/routers/EthCcExchangeRouterLogic.sol:EthCcExchangeRouterLogic",
        "label": "burnRouter",
        "offset": 0,
        "slot": "12",
        "type": "t_address"
      },
      {
        "astId": 442,
        "contract": "contracts/routers/EthCcExchangeRouterLogic.sol:EthCcExchangeRouterLogic",
        "label": "_initialized",
        "offset": 20,
        "slot": "12",
        "type": "t_uint8"
      },
      {
        "astId": 445,
        "contract": "contracts/routers/EthCcExchangeRouterLogic.sol:EthCcExchangeRouterLogic",
        "label": "_initializing",
        "offset": 21,
        "slot": "12",
        "type": "t_bool"
      },
      {
        "astId": 1844,
        "contract": "contracts/routers/EthCcExchangeRouterLogic.sol:EthCcExchangeRouterLogic",
        "label": "__gap",
        "offset": 0,
        "slot": "13",
        "type": "t_array(t_uint256)50_storage"
      },
      {
        "astId": 314,
        "contract": "contracts/routers/EthCcExchangeRouterLogic.sol:EthCcExchangeRouterLogic",
        "label": "_owner",
        "offset": 0,
        "slot": "63",
        "type": "t_address"
      },
      {
        "astId": 434,
        "contract": "contracts/routers/EthCcExchangeRouterLogic.sol:EthCcExchangeRouterLogic",
        "label": "__gap",
        "offset": 0,
        "slot": "64",
        "type": "t_array(t_uint256)49_storage"
      },
      {
        "astId": 745,
        "contract": "contracts/routers/EthCcExchangeRouterLogic.sol:EthCcExchangeRouterLogic",
        "label": "_status",
        "offset": 0,
        "slot": "113",
        "type": "t_uint256"
      },
      {
        "astId": 803,
        "contract": "contracts/routers/EthCcExchangeRouterLogic.sol:EthCcExchangeRouterLogic",
        "label": "__gap",
        "offset": 0,
        "slot": "114",
        "type": "t_array(t_uint256)49_storage"
      }
    ],
    "types": {
      "t_address": {
        "encoding": "inplace",
        "label": "address",
        "numberOfBytes": "20"
      },
      "t_array(t_address)dyn_storage": {
        "base": "t_address",
        "encoding": "dynamic_array",
        "label": "address[]",
        "numberOfBytes": "32"
      },
      "t_array(t_uint256)49_storage": {
        "base": "t_uint256",
        "encoding": "inplace",
        "label": "uint256[49]",
        "numberOfBytes": "1568"
      },
      "t_array(t_uint256)50_storage": {
        "base": "t_uint256",
        "encoding": "inplace",
        "label": "uint256[50]",
        "numberOfBytes": "1600"
      },
      "t_bool": {
        "encoding": "inplace",
        "label": "bool",
        "numberOfBytes": "1"
      },
      "t_bytes32": {
        "encoding": "inplace",
        "label": "bytes32",
        "numberOfBytes": "32"
      },
      "t_int64": {
        "encoding": "inplace",
        "label": "int64",
        "numberOfBytes": "8"
      },
      "t_mapping(t_address,t_bool)": {
        "encoding": "mapping",
        "key": "t_address",
        "label": "mapping(address => bool)",
        "numberOfBytes": "32",
        "value": "t_bool"
      },
      "t_mapping(t_bytes32,t_struct(ethCcExchangeRequest)23919_storage)": {
        "encoding": "mapping",
        "key": "t_bytes32",
        "label": "mapping(bytes32 => struct IEthCcExchangeRouterStorage.ethCcExchangeRequest)",
        "numberOfBytes": "32",
        "value": "t_struct(ethCcExchangeRequest)23919_storage"
      },
      "t_mapping(t_uint256,t_address)": {
        "encoding": "mapping",
        "key": "t_uint256",
        "label": "mapping(uint256 => address)",
        "numberOfBytes": "32",
        "value": "t_address"
      },
      "t_struct(ethCcExchangeRequest)23919_storage": {
        "encoding": "inplace",
        "label": "struct IEthCcExchangeRouterStorage.ethCcExchangeRequest",
        "members": [
          {
            "astId": 23895,
            "contract": "contracts/routers/EthCcExchangeRouterLogic.sol:EthCcExchangeRouterLogic",
            "label": "appId",
            "offset": 0,
            "slot": "0",
            "type": "t_uint256"
          },
          {
            "astId": 23897,
            "contract": "contracts/routers/EthCcExchangeRouterLogic.sol:EthCcExchangeRouterLogic",
            "label": "inputAmount",
            "offset": 0,
            "slot": "1",
            "type": "t_uint256"
          },
          {
            "astId": 23899,
            "contract": "contracts/routers/EthCcExchangeRouterLogic.sol:EthCcExchangeRouterLogic",
            "label": "outputAmount",
            "offset": 0,
            "slot": "2",
            "type": "t_uint256"
          },
          {
            "astId": 23901,
            "contract": "contracts/routers/EthCcExchangeRouterLogic.sol:EthCcExchangeRouterLogic",
            "label": "isFixedToken",
            "offset": 0,
            "slot": "3",
            "type": "t_bool"
          },
          {
            "astId": 23903,
            "contract": "contracts/routers/EthCcExchangeRouterLogic.sol:EthCcExchangeRouterLogic",
            "label": "recipientAddress",
            "offset": 1,
            "slot": "3",
            "type": "t_address"
          },
          {
            "astId": 23905,
            "contract": "contracts/routers/EthCcExchangeRouterLogic.sol:EthCcExchangeRouterLogic",
            "label": "fee",
            "offset": 0,
            "slot": "4",
            "type": "t_uint256"
          },
          {
            "astId": 23907,
            "contract": "contracts/routers/EthCcExchangeRouterLogic.sol:EthCcExchangeRouterLogic",
            "label": "isUsed",
            "offset": 0,
            "slot": "5",
            "type": "t_bool"
          },
          {
            "astId": 23910,
            "contract": "contracts/routers/EthCcExchangeRouterLogic.sol:EthCcExchangeRouterLogic",
            "label": "path",
            "offset": 0,
            "slot": "6",
            "type": "t_array(t_address)dyn_storage"
          },
          {
            "astId": 23912,
            "contract": "contracts/routers/EthCcExchangeRouterLogic.sol:EthCcExchangeRouterLogic",
            "label": "deadline",
            "offset": 0,
            "slot": "7",
            "type": "t_uint256"
          },
          {
            "astId": 23914,
            "contract": "contracts/routers/EthCcExchangeRouterLogic.sol:EthCcExchangeRouterLogic",
            "label": "speed",
            "offset": 0,
            "slot": "8",
            "type": "t_uint256"
          },
          {
            "astId": 23916,
            "contract": "contracts/routers/EthCcExchangeRouterLogic.sol:EthCcExchangeRouterLogic",
            "label": "isTransferedToEth",
            "offset": 0,
            "slot": "9",
            "type": "t_bool"
          },
          {
            "astId": 23918,
            "contract": "contracts/routers/EthCcExchangeRouterLogic.sol:EthCcExchangeRouterLogic",
            "label": "remainedInputAmount",
            "offset": 0,
            "slot": "10",
            "type": "t_uint256"
          }
        ],
        "numberOfBytes": "352"
      },
      "t_uint256": {
        "encoding": "inplace",
        "label": "uint256",
        "numberOfBytes": "32"
      },
      "t_uint8": {
        "encoding": "inplace",
        "label": "uint8",
        "numberOfBytes": "1"
      }
    }
  }
}