{
  "address": "0x757c14D28E945347bCBbA0b2FfE3A9090342fb61",
  "abi": [
    {
      "inputs": [
        {
          "internalType": "address",
          "name": "_teleBTC",
          "type": "address"
        },
        {
          "internalType": "address",
          "name": "_instantRouter",
          "type": "address"
        },
        {
          "internalType": "uint256",
          "name": "_instantPercentageFee",
          "type": "uint256"
        },
        {
          "internalType": "string",
          "name": "_name",
          "type": "string"
        },
        {
          "internalType": "string",
          "name": "_symbol",
          "type": "string"
        }
      ],
      "stateMutability": "nonpayable",
      "type": "constructor"
    },
    {
      "anonymous": false,
      "inputs": [
        {
          "indexed": true,
          "internalType": "address",
          "name": "user",
          "type": "address"
        },
        {
          "indexed": false,
          "internalType": "uint256",
          "name": "teleBTCAmount",
          "type": "uint256"
        },
        {
          "indexed": false,
          "internalType": "uint256",
          "name": "instantPoolTokenAmount",
          "type": "uint256"
        }
      ],
      "name": "AddLiquidity",
      "type": "event"
    },
    {
      "anonymous": false,
      "inputs": [
        {
          "indexed": true,
          "internalType": "address",
          "name": "owner",
          "type": "address"
        },
        {
          "indexed": true,
          "internalType": "address",
          "name": "spender",
          "type": "address"
        },
        {
          "indexed": false,
          "internalType": "uint256",
          "name": "value",
          "type": "uint256"
        }
      ],
      "name": "Approval",
      "type": "event"
    },
    {
      "anonymous": false,
      "inputs": [
        {
          "indexed": true,
          "internalType": "address",
          "name": "instantToken",
          "type": "address"
        }
      ],
      "name": "CreatedInstantPool",
      "type": "event"
    },
    {
      "anonymous": false,
      "inputs": [
        {
          "indexed": true,
          "internalType": "address",
          "name": "user",
          "type": "address"
        },
        {
          "indexed": false,
          "internalType": "uint256",
          "name": "requestedAmount",
          "type": "uint256"
        },
        {
          "indexed": false,
          "internalType": "uint256",
          "name": "instantFee",
          "type": "uint256"
        }
      ],
      "name": "InstantLoan",
      "type": "event"
    },
    {
      "anonymous": false,
      "inputs": [
        {
          "indexed": false,
          "internalType": "uint256",
          "name": "oldInstantPercentageFee",
          "type": "uint256"
        },
        {
          "indexed": false,
          "internalType": "uint256",
          "name": "newInstantPercentageFee",
          "type": "uint256"
        }
      ],
      "name": "NewInstantPercentageFee",
      "type": "event"
    },
    {
      "anonymous": false,
      "inputs": [
        {
          "indexed": false,
          "internalType": "address",
          "name": "oldInstantRouter",
          "type": "address"
        },
        {
          "indexed": false,
          "internalType": "address",
          "name": "newInstaneRouter",
          "type": "address"
        }
      ],
      "name": "NewInstantRouter",
      "type": "event"
    },
    {
      "anonymous": false,
      "inputs": [
        {
          "indexed": false,
          "internalType": "address",
          "name": "oldTeleBTC",
          "type": "address"
        },
        {
          "indexed": false,
          "internalType": "address",
          "name": "newTeleBTC",
          "type": "address"
        }
      ],
      "name": "NewTeleBTC",
      "type": "event"
    },
    {
      "anonymous": false,
      "inputs": [
        {
          "indexed": true,
          "internalType": "address",
          "name": "previousOwner",
          "type": "address"
        },
        {
          "indexed": true,
          "internalType": "address",
          "name": "newOwner",
          "type": "address"
        }
      ],
      "name": "OwnershipTransferred",
      "type": "event"
    },
    {
      "anonymous": false,
      "inputs": [
        {
          "indexed": true,
          "internalType": "address",
          "name": "user",
          "type": "address"
        },
        {
          "indexed": false,
          "internalType": "uint256",
          "name": "teleBTCAmount",
          "type": "uint256"
        },
        {
          "indexed": false,
          "internalType": "uint256",
          "name": "instantPoolTokenAmount",
          "type": "uint256"
        }
      ],
      "name": "RemoveLiquidity",
      "type": "event"
    },
    {
      "anonymous": false,
      "inputs": [
        {
          "indexed": true,
          "internalType": "address",
          "name": "from",
          "type": "address"
        },
        {
          "indexed": true,
          "internalType": "address",
          "name": "to",
          "type": "address"
        },
        {
          "indexed": false,
          "internalType": "uint256",
          "name": "value",
          "type": "uint256"
        }
      ],
      "name": "Transfer",
      "type": "event"
    },
    {
      "inputs": [
        {
          "internalType": "address",
          "name": "_user",
          "type": "address"
        },
        {
          "internalType": "uint256",
          "name": "_amount",
          "type": "uint256"
        }
      ],
      "name": "addLiquidity",
      "outputs": [
        {
          "internalType": "uint256",
          "name": "",
          "type": "uint256"
        }
      ],
      "stateMutability": "nonpayable",
      "type": "function"
    },
    {
      "inputs": [
        {
          "internalType": "uint256",
          "name": "_amount",
          "type": "uint256"
        }
      ],
      "name": "addLiquidityWithoutMint",
      "outputs": [
        {
          "internalType": "bool",
          "name": "",
          "type": "bool"
        }
      ],
      "stateMutability": "nonpayable",
      "type": "function"
    },
    {
      "inputs": [
        {
          "internalType": "address",
          "name": "owner",
          "type": "address"
        },
        {
          "internalType": "address",
          "name": "spender",
          "type": "address"
        }
      ],
      "name": "allowance",
      "outputs": [
        {
          "internalType": "uint256",
          "name": "",
          "type": "uint256"
        }
      ],
      "stateMutability": "view",
      "type": "function"
    },
    {
      "inputs": [
        {
          "internalType": "address",
          "name": "spender",
          "type": "address"
        },
        {
          "internalType": "uint256",
          "name": "amount",
          "type": "uint256"
        }
      ],
      "name": "approve",
      "outputs": [
        {
          "internalType": "bool",
          "name": "",
          "type": "bool"
        }
      ],
      "stateMutability": "nonpayable",
      "type": "function"
    },
    {
      "inputs": [],
      "name": "availableTeleBTC",
      "outputs": [
        {
          "internalType": "uint256",
          "name": "",
          "type": "uint256"
        }
      ],
      "stateMutability": "view",
      "type": "function"
    },
    {
      "inputs": [
        {
          "internalType": "address",
          "name": "account",
          "type": "address"
        }
      ],
      "name": "balanceOf",
      "outputs": [
        {
          "internalType": "uint256",
          "name": "",
          "type": "uint256"
        }
      ],
      "stateMutability": "view",
      "type": "function"
    },
    {
      "inputs": [],
      "name": "decimals",
      "outputs": [
        {
          "internalType": "uint8",
          "name": "",
          "type": "uint8"
        }
      ],
      "stateMutability": "view",
      "type": "function"
    },
    {
      "inputs": [
        {
          "internalType": "address",
          "name": "spender",
          "type": "address"
        },
        {
          "internalType": "uint256",
          "name": "subtractedValue",
          "type": "uint256"
        }
      ],
      "name": "decreaseAllowance",
      "outputs": [
        {
          "internalType": "bool",
          "name": "",
          "type": "bool"
        }
      ],
      "stateMutability": "nonpayable",
      "type": "function"
    },
    {
      "inputs": [
        {
          "internalType": "uint256",
          "name": "_loanAmount",
          "type": "uint256"
        }
      ],
      "name": "getFee",
      "outputs": [
        {
          "internalType": "uint256",
          "name": "",
          "type": "uint256"
        }
      ],
      "stateMutability": "view",
      "type": "function"
    },
    {
      "inputs": [
        {
          "internalType": "address",
          "name": "_user",
          "type": "address"
        },
        {
          "internalType": "uint256",
          "name": "_amount",
          "type": "uint256"
        }
      ],
      "name": "getLoan",
      "outputs": [
        {
          "internalType": "bool",
          "name": "",
          "type": "bool"
        }
      ],
      "stateMutability": "nonpayable",
      "type": "function"
    },
    {
      "inputs": [
        {
          "internalType": "address",
          "name": "spender",
          "type": "address"
        },
        {
          "internalType": "uint256",
          "name": "addedValue",
          "type": "uint256"
        }
      ],
      "name": "increaseAllowance",
      "outputs": [
        {
          "internalType": "bool",
          "name": "",
          "type": "bool"
        }
      ],
      "stateMutability": "nonpayable",
      "type": "function"
    },
    {
      "inputs": [],
      "name": "instantPercentageFee",
      "outputs": [
        {
          "internalType": "uint256",
          "name": "",
          "type": "uint256"
        }
      ],
      "stateMutability": "view",
      "type": "function"
    },
    {
      "inputs": [],
      "name": "instantRouter",
      "outputs": [
        {
          "internalType": "address",
          "name": "",
          "type": "address"
        }
      ],
      "stateMutability": "view",
      "type": "function"
    },
    {
      "inputs": [],
      "name": "name",
      "outputs": [
        {
          "internalType": "string",
          "name": "",
          "type": "string"
        }
      ],
      "stateMutability": "view",
      "type": "function"
    },
    {
      "inputs": [],
      "name": "owner",
      "outputs": [
        {
          "internalType": "address",
          "name": "",
          "type": "address"
        }
      ],
      "stateMutability": "view",
      "type": "function"
    },
    {
      "inputs": [
        {
          "internalType": "address",
          "name": "_user",
          "type": "address"
        },
        {
          "internalType": "uint256",
          "name": "_instantPoolTokenAmount",
          "type": "uint256"
        }
      ],
      "name": "removeLiquidity",
      "outputs": [
        {
          "internalType": "uint256",
          "name": "",
          "type": "uint256"
        }
      ],
      "stateMutability": "nonpayable",
      "type": "function"
    },
    {
      "inputs": [],
      "name": "renounceOwnership",
      "outputs": [],
      "stateMutability": "nonpayable",
      "type": "function"
    },
    {
      "inputs": [
        {
          "internalType": "uint256",
          "name": "_instantPercentageFee",
          "type": "uint256"
        }
      ],
      "name": "setInstantPercentageFee",
      "outputs": [],
      "stateMutability": "nonpayable",
      "type": "function"
    },
    {
      "inputs": [
        {
          "internalType": "address",
          "name": "_instantRouter",
          "type": "address"
        }
      ],
      "name": "setInstantRouter",
      "outputs": [],
      "stateMutability": "nonpayable",
      "type": "function"
    },
    {
      "inputs": [
        {
          "internalType": "address",
          "name": "_teleBTC",
          "type": "address"
        }
      ],
      "name": "setTeleBTC",
      "outputs": [],
      "stateMutability": "nonpayable",
      "type": "function"
    },
    {
      "inputs": [],
      "name": "symbol",
      "outputs": [
        {
          "internalType": "string",
          "name": "",
          "type": "string"
        }
      ],
      "stateMutability": "view",
      "type": "function"
    },
    {
      "inputs": [],
      "name": "teleBTC",
      "outputs": [
        {
          "internalType": "address",
          "name": "",
          "type": "address"
        }
      ],
      "stateMutability": "view",
      "type": "function"
    },
    {
      "inputs": [],
      "name": "totalAddedTeleBTC",
      "outputs": [
        {
          "internalType": "uint256",
          "name": "",
          "type": "uint256"
        }
      ],
      "stateMutability": "view",
      "type": "function"
    },
    {
      "inputs": [],
      "name": "totalSupply",
      "outputs": [
        {
          "internalType": "uint256",
          "name": "",
          "type": "uint256"
        }
      ],
      "stateMutability": "view",
      "type": "function"
    },
    {
      "inputs": [],
      "name": "totalUnpaidLoan",
      "outputs": [
        {
          "internalType": "uint256",
          "name": "",
          "type": "uint256"
        }
      ],
      "stateMutability": "view",
      "type": "function"
    },
    {
      "inputs": [
        {
          "internalType": "address",
          "name": "recipient",
          "type": "address"
        },
        {
          "internalType": "uint256",
          "name": "amount",
          "type": "uint256"
        }
      ],
      "name": "transfer",
      "outputs": [
        {
          "internalType": "bool",
          "name": "",
          "type": "bool"
        }
      ],
      "stateMutability": "nonpayable",
      "type": "function"
    },
    {
      "inputs": [
        {
          "internalType": "address",
          "name": "sender",
          "type": "address"
        },
        {
          "internalType": "address",
          "name": "recipient",
          "type": "address"
        },
        {
          "internalType": "uint256",
          "name": "amount",
          "type": "uint256"
        }
      ],
      "name": "transferFrom",
      "outputs": [
        {
          "internalType": "bool",
          "name": "",
          "type": "bool"
        }
      ],
      "stateMutability": "nonpayable",
      "type": "function"
    },
    {
      "inputs": [
        {
          "internalType": "address",
          "name": "newOwner",
          "type": "address"
        }
      ],
      "name": "transferOwnership",
      "outputs": [],
      "stateMutability": "nonpayable",
      "type": "function"
    }
  ],
  "transactionHash": "0xf0f6d782f1460ace11b3955f5f2389fec2bede043e30c4da5a60704f99e2dfcc",
  "args": [
    "0x0783d8A18461BA80704DF8EcBc41E0eD84CFB84f",
    "0x576b9B0938617fe036842862649afc206b7Af194",
    50,
    "InstantPoolToken",
    "IPT"
  ],
  "numDeployments": 1,
  "solcInputHash": "75de7cb825f3b6d07e1f1f6c98977d78",
  "bytecode": "0x60806040523480156200001157600080fd5b5060405162001f5f38038062001f5f8339810160408190526200003491620004da565b8151829082906200004d90600390602085019062000364565b5080516200006390600490602084019062000364565b505050620000806200007a620000e560201b60201c565b620000e9565b600160065562000090856200013b565b6200009b8462000202565b620000a683620002c5565b6040516001600160a01b038616907fe23e0079f9641e026de850166f88913c635aeec5ccabb427c5775d3717c3216a90600090a25050505050620005c4565b3390565b600580546001600160a01b038381166001600160a01b0319831681179093556040519116919082907f8be0079c531659141344cd1fd0a4f28419497f9722a3daafe3b4186f6b6457e090600090a35050565b806001600160a01b038116620001985760405162461bcd60e51b815260206004820152601960248201527f496e7374616e74506f6f6c3a207a65726f20616464726573730000000000000060448201526064015b60405180910390fd5b600754604080516001600160a01b03928316815291841660208301527f36a4c08a38b736dcecb6c328dba61238529620e83ccb23db2cc43cd34ec26096910160405180910390a150600780546001600160a01b0319166001600160a01b0392909216919091179055565b806001600160a01b0381166200025b5760405162461bcd60e51b815260206004820152601960248201527f496e7374616e74506f6f6c3a207a65726f20616464726573730000000000000060448201526064016200018f565b600a54604080516001600160a01b03928316815291841660208301527f12ad124e13af4c31364ad22aa74320e167b37f005dafb75d71a210c49da3629e910160405180910390a150600a80546001600160a01b0319166001600160a01b0392909216919091179055565b60085460408051918252602082018390527fcf3912ac25e0959b5ddfa4ca255e81306efc617583c3cd678d59d5de59b48480910160405180910390a16127108111156200035f5760405162461bcd60e51b815260206004820152602160248201527f496e7374616e74506f6f6c3a20616d6f756e74206d6f7265207468616e206d616044820152600f60fb1b60648201526084016200018f565b600855565b828054620003729062000571565b90600052602060002090601f016020900481019282620003965760008555620003e1565b82601f10620003b157805160ff1916838001178555620003e1565b82800160010185558215620003e1579182015b82811115620003e1578251825591602001919060010190620003c4565b50620003ef929150620003f3565b5090565b5b80821115620003ef5760008155600101620003f4565b80516001600160a01b03811681146200042257600080fd5b919050565b600082601f83011262000438578081fd5b81516001600160401b0380821115620004555762000455620005ae565b604051601f8301601f19908116603f01168101908282118183101715620004805762000480620005ae565b816040528381526020925086838588010111156200049c578485fd5b8491505b83821015620004bf5785820183015181830184015290820190620004a0565b83821115620004d057848385830101525b9695505050505050565b600080600080600060a08688031215620004f2578081fd5b620004fd866200040a565b94506200050d602087016200040a565b6040870151606088015191955093506001600160401b038082111562000531578283fd5b6200053f89838a0162000427565b9350608088015191508082111562000555578283fd5b50620005648882890162000427565b9150509295509295909350565b6002810460018216806200058657607f821691505b60208210811415620005a857634e487b7160e01b600052602260045260246000fd5b50919050565b634e487b7160e01b600052604160045260246000fd5b61198b80620005d46000396000f3fe608060405234801561001057600080fd5b50600436106101c35760003560e01c80638d3d78cd116100f9578063cfff37f811610097578063e35a0a8811610071578063e35a0a88146103ae578063e49bce3c146103c1578063f2fde38b146103ca578063fcee45f4146103dd576101c3565b8063cfff37f814610359578063dcebe9bb1461036c578063dd62ed3e14610375576101c3565b8063a1c51586116100d3578063a1c515861461030d578063a201ccf614610320578063a457c2d714610333578063a9059cbb14610346576101c3565b80638d3d78cd146102c95780638da5cb5b146102f457806395d89b4114610305576101c3565b80633950935111610166578063715018a611610140578063715018a61461029357806375e670051461029b5780637f0f1817146102a3578063870ba6cf146102b6576101c3565b8063395093511461025a578063566887001461026d57806370a0823114610280576101c3565b806318160ddd116101a257806318160ddd1461021e57806323b872dd1461023057806329894ff114610243578063313ce5671461024b576101c3565b8062440914146101c857806306fdde03146101dd578063095ea7b3146101fb575b600080fd5b6101db6101d6366004611766565b6103f0565b005b6101e561042f565b6040516101f29190611796565b60405180910390f35b61020e61020936600461171d565b6104c1565b60405190151581526020016101f2565b6002545b6040519081526020016101f2565b61020e61023e3660046116e2565b6104d7565b610222610581565b604051601281526020016101f2565b61020e61026836600461171d565b610602565b61022261027b36600461171d565b61063e565b61022261028e36600461168f565b6107c5565b6101db6107e4565b610222610810565b6101db6102b136600461168f565b610842565b6101db6102c436600461168f565b610875565b6007546102dc906001600160a01b031681565b6040516001600160a01b0390911681526020016101f2565b6005546001600160a01b03166102dc565b6101e56108a8565b61020e61031b36600461171d565b6108b7565b61022261032e36600461171d565b610ab1565b61020e61034136600461171d565b610c5d565b61020e61035436600461171d565b610cf6565b61020e610367366004611766565b610d03565b61022260095481565b6102226103833660046116b0565b6001600160a01b03918216600090815260016020908152604080832093909416825291909152205490565b600a546102dc906001600160a01b031681565b61022260085481565b6101db6103d836600461168f565b610e3b565b6102226103eb366004611766565b610ed3565b6005546001600160a01b031633146104235760405162461bcd60e51b815260040161041a9061182a565b60405180910390fd5b61042c81610ef6565b50565b60606003805461043e90611904565b80601f016020809104026020016040519081016040528092919081815260200182805461046a90611904565b80156104b75780601f1061048c576101008083540402835291602001916104b7565b820191906000526020600020905b81548152906001019060200180831161049a57829003601f168201915b5050505050905090565b60006104ce338484610f93565b50600192915050565b60006104e48484846110b8565b6001600160a01b0384166000908152600160209081526040808320338452909152902054828110156105695760405162461bcd60e51b815260206004820152602860248201527f45524332303a207472616e7366657220616d6f756e74206578636565647320616044820152676c6c6f77616e636560c01b606482015260840161041a565b6105768533858403610f93565b506001949350505050565b6007546040516370a0823160e01b81523060048201526000916001600160a01b0316906370a082319060240160206040518083038186803b1580156105c557600080fd5b505afa1580156105d9573d6000803e3d6000fd5b505050506040513d601f19601f820116820180604052508101906105fd919061177e565b905090565b3360008181526001602090815260408083206001600160a01b038716845290915281205490916104ce918590610639908690611896565b610f93565b6000600260065414156106635760405162461bcd60e51b815260040161041a9061185f565b6002600655816106855760405162461bcd60e51b815260040161041a906117e9565b6007546000906001600160a01b03166323b872dd336040516001600160e01b031960e084901b1681526001600160a01b03909116600482015230602482015260448101869052606401602060405180830381600087803b1580156106e857600080fd5b505af11580156106fc573d6000803e3d6000fd5b505050506040513d601f19601f820116820180604052508101906107209190611746565b5060095415806107305750600254155b1561073c575081610759565b60095460025461074c90856118ce565b61075691906118ae565b90505b826009546107679190611896565b6009556107748482611287565b60408051848152602081018390526001600160a01b038616917f06239653922ac7bea6aa2b19dc486b9361821d37712eb796adfd38d81de278ca91015b60405180910390a260016006559392505050565b6001600160a01b0381166000908152602081905260409020545b919050565b6005546001600160a01b0316331461080e5760405162461bcd60e51b815260040161041a9061182a565b565b60008061081b610581565b905080600954101561082e57600061083c565b8060095461083c91906118ed565b91505090565b6005546001600160a01b0316331461086c5760405162461bcd60e51b815260040161041a9061182a565b61042c81611366565b6005546001600160a01b0316331461089f5760405162461bcd60e51b815260040161041a9061182a565b61042c81611423565b60606004805461043e90611904565b6000600260065414156108dc5760405162461bcd60e51b815260040161041a9061185f565b6002600655600a546001600160a01b0316336001600160a01b03161461094f5760405162461bcd60e51b815260206004820152602260248201527f496e7374616e74506f6f6c3a2073656e646572206973206e6f7420616c6c6f77604482015261195960f21b606482015260840161041a565b81610958610581565b10156109b75760405162461bcd60e51b815260206004820152602860248201527f496e7374616e74506f6f6c3a206c6971756964697479206973206e6f7420737560448201526719999a58da595b9d60c21b606482015260840161041a565b6000612710600854846109ca91906118ce565b6109d491906118ae565b60075460405163a9059cbb60e01b81526001600160a01b0387811660048301526024820187905292935091169063a9059cbb90604401602060405180830381600087803b158015610a2457600080fd5b505af1158015610a38573d6000803e3d6000fd5b505050506040513d601f19601f82011682018060405250810190610a5c9190611746565b5060408051848152602081018390526001600160a01b038616917f0b4a3e47d690ec5b072e50757ed5caa5883ea1453ec15bca511e106f721a351f910160405180910390a26001915050600160065592915050565b600060026006541415610ad65760405162461bcd60e51b815260040161041a9061185f565b600260065581610af85760405162461bcd60e51b815260040161041a906117e9565b81610b023361028e565b1015610b5f5760405162461bcd60e51b815260206004820152602660248201527f496e7374616e74506f6f6c3a2062616c616e6365206973206e6f7420737566666044820152651a58da595b9d60d21b606482015260840161041a565b6000610b6a60025490565b600954610b7790856118ce565b610b8191906118ae565b905080600954610b9191906118ed565b600955610b9e33846114e0565b60075460405163a9059cbb60e01b81526001600160a01b038681166004830152602482018490529091169063a9059cbb90604401602060405180830381600087803b158015610bec57600080fd5b505af1158015610c00573d6000803e3d6000fd5b505050506040513d601f19601f82011682018060405250810190610c249190611746565b50604080518281526020810185905233917f0fbf06c058b90cb038a618f8c2acbf6145f8b3570fd1fa56abb8f0f3f05b36e891016107b1565b3360009081526001602090815260408083206001600160a01b038616845290915281205482811015610cdf5760405162461bcd60e51b815260206004820152602560248201527f45524332303a2064656372656173656420616c6c6f77616e63652062656c6f77604482015264207a65726f60d81b606482015260840161041a565b610cec3385858403610f93565b5060019392505050565b60006104ce3384846110b8565b600060026006541415610d285760405162461bcd60e51b815260040161041a9061185f565b600260065581610d4a5760405162461bcd60e51b815260040161041a906117e9565b6007546001600160a01b03166323b872dd336040516001600160e01b031960e084901b1681526001600160a01b03909116600482015230602482015260448101859052606401602060405180830381600087803b158015610daa57600080fd5b505af1158015610dbe573d6000803e3d6000fd5b505050506040513d601f19601f82011682018060405250810190610de29190611746565b5081600954610df19190611896565b600955604080518381526000602082015233917f06239653922ac7bea6aa2b19dc486b9361821d37712eb796adfd38d81de278ca910160405180910390a250600180600655919050565b6005546001600160a01b03163314610e655760405162461bcd60e51b815260040161041a9061182a565b6001600160a01b038116610eca5760405162461bcd60e51b815260206004820152602660248201527f4f776e61626c653a206e6577206f776e657220697320746865207a65726f206160448201526564647265737360d01b606482015260840161041a565b61042c81611626565b600061271060085483610ee691906118ce565b610ef091906118ae565b92915050565b60085460408051918252602082018390527fcf3912ac25e0959b5ddfa4ca255e81306efc617583c3cd678d59d5de59b48480910160405180910390a1612710811115610f8e5760405162461bcd60e51b815260206004820152602160248201527f496e7374616e74506f6f6c3a20616d6f756e74206d6f7265207468616e206d616044820152600f60fb1b606482015260840161041a565b600855565b6001600160a01b038316610ff55760405162461bcd60e51b8152602060048201526024808201527f45524332303a20617070726f76652066726f6d20746865207a65726f206164646044820152637265737360e01b606482015260840161041a565b6001600160a01b0382166110565760405162461bcd60e51b815260206004820152602260248201527f45524332303a20617070726f766520746f20746865207a65726f206164647265604482015261737360f01b606482015260840161041a565b6001600160a01b0383811660008181526001602090815260408083209487168084529482529182902085905590518481527f8c5be1e5ebec7d5bd14f71427d1e84f3dd0314c0f7b2291e5b200ac8c7c3b92591015b60405180910390a3505050565b6001600160a01b03831661111c5760405162461bcd60e51b815260206004820152602560248201527f45524332303a207472616e736665722066726f6d20746865207a65726f206164604482015264647265737360d81b606482015260840161041a565b6001600160a01b03821661117e5760405162461bcd60e51b815260206004820152602360248201527f45524332303a207472616e7366657220746f20746865207a65726f206164647260448201526265737360e81b606482015260840161041a565b6001600160a01b038316600090815260208190526040902054818110156111f65760405162461bcd60e51b815260206004820152602660248201527f45524332303a207472616e7366657220616d6f756e7420657863656564732062604482015265616c616e636560d01b606482015260840161041a565b6001600160a01b0380851660009081526020819052604080822085850390559185168152908120805484929061122d908490611896565b92505081905550826001600160a01b0316846001600160a01b03167fddf252ad1be2c89b69c2b068fc378daa952ba7f163c4a11628f55a4df523b3ef8460405161127991815260200190565b60405180910390a350505050565b6001600160a01b0382166112dd5760405162461bcd60e51b815260206004820152601f60248201527f45524332303a206d696e7420746f20746865207a65726f206164647265737300604482015260640161041a565b80600260008282546112ef9190611896565b90915550506001600160a01b0382166000908152602081905260408120805483929061131c908490611896565b90915550506040518181526001600160a01b038316906000907fddf252ad1be2c89b69c2b068fc378daa952ba7f163c4a11628f55a4df523b3ef9060200160405180910390a35050565b806001600160a01b0381166113b95760405162461bcd60e51b8152602060048201526019602482015278496e7374616e74506f6f6c3a207a65726f206164647265737360381b604482015260640161041a565b600754604080516001600160a01b03928316815291841660208301527f36a4c08a38b736dcecb6c328dba61238529620e83ccb23db2cc43cd34ec26096910160405180910390a150600780546001600160a01b0319166001600160a01b0392909216919091179055565b806001600160a01b0381166114765760405162461bcd60e51b8152602060048201526019602482015278496e7374616e74506f6f6c3a207a65726f206164647265737360381b604482015260640161041a565b600a54604080516001600160a01b03928316815291841660208301527f12ad124e13af4c31364ad22aa74320e167b37f005dafb75d71a210c49da3629e910160405180910390a150600a80546001600160a01b0319166001600160a01b0392909216919091179055565b6001600160a01b0382166115405760405162461bcd60e51b815260206004820152602160248201527f45524332303a206275726e2066726f6d20746865207a65726f206164647265736044820152607360f81b606482015260840161041a565b6001600160a01b038216600090815260208190526040902054818110156115b45760405162461bcd60e51b815260206004820152602260248201527f45524332303a206275726e20616d6f756e7420657863656564732062616c616e604482015261636560f01b606482015260840161041a565b6001600160a01b03831660009081526020819052604081208383039055600280548492906115e39084906118ed565b90915550506040518281526000906001600160a01b038516907fddf252ad1be2c89b69c2b068fc378daa952ba7f163c4a11628f55a4df523b3ef906020016110ab565b600580546001600160a01b038381166001600160a01b0319831681179093556040519116919082907f8be0079c531659141344cd1fd0a4f28419497f9722a3daafe3b4186f6b6457e090600090a35050565b80356001600160a01b03811681146107df57600080fd5b6000602082840312156116a0578081fd5b6116a982611678565b9392505050565b600080604083850312156116c2578081fd5b6116cb83611678565b91506116d960208401611678565b90509250929050565b6000806000606084860312156116f6578081fd5b6116ff84611678565b925061170d60208501611678565b9150604084013590509250925092565b6000806040838503121561172f578182fd5b61173883611678565b946020939093013593505050565b600060208284031215611757578081fd5b815180151581146116a9578182fd5b600060208284031215611777578081fd5b5035919050565b60006020828403121561178f578081fd5b5051919050565b6000602080835283518082850152825b818110156117c2578581018301518582016040015282016117a6565b818111156117d35783604083870101525b50601f01601f1916929092016040019392505050565b60208082526021908201527f496e7374616e74506f6f6c3a20696e70757420616d6f756e74206973207a65726040820152606f60f81b606082015260800190565b6020808252818101527f4f776e61626c653a2063616c6c6572206973206e6f7420746865206f776e6572604082015260600190565b6020808252601f908201527f5265656e7472616e637947756172643a207265656e7472616e742063616c6c00604082015260600190565b600082198211156118a9576118a961193f565b500190565b6000826118c957634e487b7160e01b81526012600452602481fd5b500490565b60008160001904831182151516156118e8576118e861193f565b500290565b6000828210156118ff576118ff61193f565b500390565b60028104600182168061191857607f821691505b6020821081141561193957634e487b7160e01b600052602260045260246000fd5b50919050565b634e487b7160e01b600052601160045260246000fdfea2646970667358221220a000cf66edb979f27e60ae59375f114508e8558756b83289dc5a45c0bee33eab64736f6c63430008020033",
  "devdoc": {
    "kind": "dev",
    "methods": {
      "addLiquidity(address,uint256)": {
        "details": "@param _user          Address of user who receives instant pool token",
        "params": {
          "_amount": "Amount of liquidity that user wants to add"
        },
        "returns": {
          "_0": "Amount of instant pool token that user receives"
        }
      },
      "addLiquidityWithoutMint(uint256)": {
        "details": "Updates totalAddedTeleBTC (transferring teleBTC directly does not update it)",
        "params": {
          "_amount": "Amount of liquidity that user wants to add"
        },
        "returns": {
          "_0": "True if liquidity is added successfully"
        }
      },
      "allowance(address,address)": {
        "details": "See {IERC20-allowance}."
      },
      "approve(address,uint256)": {
        "details": "See {IERC20-approve}. Requirements: - `spender` cannot be the zero address."
      },
      "availableTeleBTC()": {
        "returns": {
          "_0": "Available amount of teleBTC that can be borrowed"
        }
      },
      "balanceOf(address)": {
        "details": "See {IERC20-balanceOf}."
      },
      "decimals()": {
        "details": "Returns the number of decimals used to get its user representation. For example, if `decimals` equals `2`, a balance of `505` tokens should be displayed to a user as `5.05` (`505 / 10 ** 2`). Tokens usually opt for a value of 18, imitating the relationship between Ether and Wei. This is the value {ERC20} uses, unless this function is overridden; NOTE: This information is only used for _display_ purposes: it in no way affects any of the arithmetic of the contract, including {IERC20-balanceOf} and {IERC20-transfer}."
      },
      "decreaseAllowance(address,uint256)": {
        "details": "Atomically decreases the allowance granted to `spender` by the caller. This is an alternative to {approve} that can be used as a mitigation for problems described in {IERC20-approve}. Emits an {Approval} event indicating the updated allowance. Requirements: - `spender` cannot be the zero address. - `spender` must have allowance for the caller of at least `subtractedValue`."
      },
      "getLoan(address,uint256)": {
        "details": "Only instant router contract can call this",
        "params": {
          "_amount": "Amount of requested loan",
          "_user": "Address of user who wants loan"
        },
        "returns": {
          "_0": "Amount of given loan after reducing the fee"
        }
      },
      "increaseAllowance(address,uint256)": {
        "details": "Atomically increases the allowance granted to `spender` by the caller. This is an alternative to {approve} that can be used as a mitigation for problems described in {IERC20-approve}. Emits an {Approval} event indicating the updated allowance. Requirements: - `spender` cannot be the zero address."
      },
      "name()": {
        "details": "Returns the name of the token."
      },
      "owner()": {
        "details": "Returns the address of the current owner."
      },
      "removeLiquidity(address,uint256)": {
        "details": "@param _user                          Address of user who receives teleBTC",
        "params": {
          "_instantPoolTokenAmount": "Amount of instant pool token that is burnt"
        },
        "returns": {
          "_0": "Amount of teleBTC that user receives"
        }
      },
      "renounceOwnership()": {
        "details": "Leaves the contract without owner. It will not be possible to call `onlyOwner` functions anymore. Can only be called by the current owner. NOTE: Renouncing ownership will leave the contract without an owner, thereby removing any functionality that is only available to the owner."
      },
      "setInstantPercentageFee(uint256)": {
        "details": "Only current owner can call this",
        "params": {
          "_instantPercentageFee": "The new percentage fee"
        }
      },
      "setInstantRouter(address)": {
        "details": "Only owner can call this",
        "params": {
          "_instantRouter": "The new instant router contract address"
        }
      },
      "setTeleBTC(address)": {
        "details": "Only owner can call this",
        "params": {
          "_teleBTC": "The new teleBTC contract address"
        }
      },
      "symbol()": {
        "details": "Returns the symbol of the token, usually a shorter version of the name."
      },
      "totalSupply()": {
        "details": "See {IERC20-totalSupply}."
      },
      "totalUnpaidLoan()": {
        "returns": {
          "_0": "Amount of teleBTC that has been borrowed but has not been paid back"
        }
      },
      "transfer(address,uint256)": {
        "details": "See {IERC20-transfer}. Requirements: - `recipient` cannot be the zero address. - the caller must have a balance of at least `amount`."
      },
      "transferFrom(address,address,uint256)": {
        "details": "See {IERC20-transferFrom}. Emits an {Approval} event indicating the updated allowance. This is not required by the EIP. See the note at the beginning of {ERC20}. Requirements: - `sender` and `recipient` cannot be the zero address. - `sender` must have a balance of at least `amount`. - the caller must have allowance for ``sender``'s tokens of at least `amount`."
      },
      "transferOwnership(address)": {
        "details": "Transfers ownership of the contract to a new account (`newOwner`). Can only be called by the current owner."
      }
    },
    "version": 1
  },
  "userdoc": {
    "events": {
      "AddLiquidity(address,uint256,uint256)": {
        "notice": "emits when some liquidity gets added to the pool               "
      },
      "CreatedInstantPool(address)": {
        "notice": "emits when an instant pool is created "
      },
      "InstantLoan(address,uint256,uint256)": {
        "notice": "Gets an instant loan from the contract"
      },
      "NewInstantPercentageFee(uint256,uint256)": {
        "notice": "Emits when changes made to instant percentage fee"
      },
      "NewInstantRouter(address,address)": {
        "notice": "Emits when changes made to instant router address"
      },
      "NewTeleBTC(address,address)": {
        "notice": "Emits when changes made to TeleBTC address"
      },
      "RemoveLiquidity(address,uint256,uint256)": {
        "notice": "Emits when some liquidity gets removed from the pool"
      }
    },
    "kind": "user",
    "methods": {
      "addLiquidity(address,uint256)": {
        "notice": "Adds liquidity to instant pool"
      },
      "addLiquidityWithoutMint(uint256)": {
        "notice": "Adds liquidity to instant pool without minting instant pool tokens"
      },
      "availableTeleBTC()": {
        "notice": "Gives available teleBTC amount"
      },
      "getLoan(address,uint256)": {
        "notice": "Gives loan to user"
      },
      "removeLiquidity(address,uint256)": {
        "notice": "Removes liquidity from instant pool"
      },
      "setInstantPercentageFee(uint256)": {
        "notice": "Changes instant loan fee"
      },
      "setInstantRouter(address)": {
        "notice": "Changes instant router contract address"
      },
      "setTeleBTC(address)": {
        "notice": "Changes teleBTC contract address"
      },
      "totalUnpaidLoan()": {
        "notice": "Gives the unpaid loans amount"
      }
    },
    "version": 1
  },
  "storageLayout": {
    "storage": [
      {
        "astId": 1679,
        "contract": "contracts/pools/InstantPool.sol:InstantPool",
        "label": "_balances",
        "offset": 0,
        "slot": "0",
        "type": "t_mapping(t_address,t_uint256)"
      },
      {
        "astId": 1685,
        "contract": "contracts/pools/InstantPool.sol:InstantPool",
        "label": "_allowances",
        "offset": 0,
        "slot": "1",
        "type": "t_mapping(t_address,t_mapping(t_address,t_uint256))"
      },
      {
        "astId": 1687,
        "contract": "contracts/pools/InstantPool.sol:InstantPool",
        "label": "_totalSupply",
        "offset": 0,
        "slot": "2",
        "type": "t_uint256"
      },
      {
        "astId": 1689,
        "contract": "contracts/pools/InstantPool.sol:InstantPool",
        "label": "_name",
        "offset": 0,
        "slot": "3",
        "type": "t_string_storage"
      },
      {
        "astId": 1691,
        "contract": "contracts/pools/InstantPool.sol:InstantPool",
        "label": "_symbol",
        "offset": 0,
        "slot": "4",
        "type": "t_string_storage"
      },
      {
        "astId": 807,
        "contract": "contracts/pools/InstantPool.sol:InstantPool",
        "label": "_owner",
        "offset": 0,
        "slot": "5",
        "type": "t_address"
      },
      {
        "astId": 1634,
        "contract": "contracts/pools/InstantPool.sol:InstantPool",
        "label": "_status",
        "offset": 0,
        "slot": "6",
        "type": "t_uint256"
      },
      {
        "astId": 14677,
        "contract": "contracts/pools/InstantPool.sol:InstantPool",
        "label": "teleBTC",
        "offset": 0,
        "slot": "7",
        "type": "t_address"
      },
      {
        "astId": 14680,
        "contract": "contracts/pools/InstantPool.sol:InstantPool",
        "label": "instantPercentageFee",
        "offset": 0,
        "slot": "8",
        "type": "t_uint256"
      },
      {
        "astId": 14683,
        "contract": "contracts/pools/InstantPool.sol:InstantPool",
        "label": "totalAddedTeleBTC",
        "offset": 0,
        "slot": "9",
        "type": "t_uint256"
      },
      {
        "astId": 14686,
        "contract": "contracts/pools/InstantPool.sol:InstantPool",
        "label": "instantRouter",
        "offset": 0,
        "slot": "10",
        "type": "t_address"
      }
    ],
    "types": {
      "t_address": {
        "encoding": "inplace",
        "label": "address",
        "numberOfBytes": "20"
      },
      "t_mapping(t_address,t_mapping(t_address,t_uint256))": {
        "encoding": "mapping",
        "key": "t_address",
        "label": "mapping(address => mapping(address => uint256))",
        "numberOfBytes": "32",
        "value": "t_mapping(t_address,t_uint256)"
      },
      "t_mapping(t_address,t_uint256)": {
        "encoding": "mapping",
        "key": "t_address",
        "label": "mapping(address => uint256)",
        "numberOfBytes": "32",
        "value": "t_uint256"
      },
      "t_string_storage": {
        "encoding": "bytes",
        "label": "string",
        "numberOfBytes": "32"
      },
      "t_uint256": {
        "encoding": "inplace",
        "label": "uint256",
        "numberOfBytes": "32"
      }
    }
  }
}