{
  "address": "0x576b9B0938617fe036842862649afc206b7Af194",
  "abi": [
    {
      "inputs": [
        {
          "internalType": "address",
          "name": "_teleBTC",
          "type": "address"
        },
        {
          "internalType": "address",
          "name": "_relay",
          "type": "address"
        },
        {
          "internalType": "address",
          "name": "_priceOracle",
          "type": "address"
        },
        {
          "internalType": "address",
          "name": "_collateralPoolFactory",
          "type": "address"
        },
        {
          "internalType": "uint256",
          "name": "_slasherPercentageReward",
          "type": "uint256"
        },
        {
          "internalType": "uint256",
          "name": "_paybackDeadline",
          "type": "uint256"
        },
        {
          "internalType": "address",
          "name": "_defaultExchangeConnector",
          "type": "address"
        }
      ],
      "stateMutability": "nonpayable",
      "type": "constructor"
    },
    {
      "anonymous": false,
      "inputs": [
        {
          "indexed": true,
          "internalType": "address",
          "name": "user",
          "type": "address"
        },
        {
          "indexed": false,
          "internalType": "address",
          "name": "receiver",
          "type": "address"
        },
        {
          "indexed": false,
          "internalType": "uint256",
          "name": "loanAmount",
          "type": "uint256"
        },
        {
          "indexed": false,
          "internalType": "uint256",
          "name": "instantFee",
          "type": "uint256"
        },
        {
          "indexed": false,
          "internalType": "uint256",
          "name": "amountOut",
          "type": "uint256"
        },
        {
          "indexed": false,
          "internalType": "address[]",
          "name": "path",
          "type": "address[]"
        },
        {
          "indexed": false,
          "internalType": "bool",
          "name": "isFixed",
          "type": "bool"
        },
        {
          "indexed": true,
          "internalType": "uint256",
          "name": "deadline",
          "type": "uint256"
        },
        {
          "indexed": true,
          "internalType": "address",
          "name": "collateralToken",
          "type": "address"
        },
        {
          "indexed": false,
          "internalType": "uint256",
          "name": "lockedCollateralPoolToken",
          "type": "uint256"
        },
        {
          "indexed": false,
          "internalType": "uint256",
          "name": "requestCounterOfUser",
          "type": "uint256"
        }
      ],
      "name": "InstantExchange",
      "type": "event"
    },
    {
      "anonymous": false,
      "inputs": [
        {
          "indexed": true,
          "internalType": "address",
          "name": "user",
          "type": "address"
        },
        {
          "indexed": false,
          "internalType": "address",
          "name": "receiver",
          "type": "address"
        },
        {
          "indexed": false,
          "internalType": "uint256",
          "name": "loanAmount",
          "type": "uint256"
        },
        {
          "indexed": false,
          "internalType": "uint256",
          "name": "instantFee",
          "type": "uint256"
        },
        {
          "indexed": true,
          "internalType": "uint256",
          "name": "deadline",
          "type": "uint256"
        },
        {
          "indexed": true,
          "internalType": "address",
          "name": "collateralToken",
          "type": "address"
        },
        {
          "indexed": false,
          "internalType": "uint256",
          "name": "lockedCollateralPoolToken",
          "type": "uint256"
        },
        {
          "indexed": false,
          "internalType": "uint256",
          "name": "requestCounterOfUser",
          "type": "uint256"
        }
      ],
      "name": "InstantTransfer",
      "type": "event"
    },
    {
      "anonymous": false,
      "inputs": [
        {
          "indexed": false,
          "internalType": "address",
          "name": "oldCollateralPoolFactory",
          "type": "address"
        },
        {
          "indexed": false,
          "internalType": "address",
          "name": "newCollateralPoolFactory",
          "type": "address"
        }
      ],
      "name": "NewCollateralPoolFactory",
      "type": "event"
    },
    {
      "anonymous": false,
      "inputs": [
        {
          "indexed": false,
          "internalType": "address",
          "name": "oldDeafultExchangeConnector",
          "type": "address"
        },
        {
          "indexed": false,
          "internalType": "address",
          "name": "newDeafultExchangeConnector",
          "type": "address"
        }
      ],
      "name": "NewDeafultExchangeConnector",
      "type": "event"
    },
    {
      "anonymous": false,
      "inputs": [
        {
          "indexed": false,
          "internalType": "uint256",
          "name": "oldPaybackDeadline",
          "type": "uint256"
        },
        {
          "indexed": false,
          "internalType": "uint256",
          "name": "newPaybackDeadline",
          "type": "uint256"
        }
      ],
      "name": "NewPaybackDeadline",
      "type": "event"
    },
    {
      "anonymous": false,
      "inputs": [
        {
          "indexed": false,
          "internalType": "address",
          "name": "oldPriceOracle",
          "type": "address"
        },
        {
          "indexed": false,
          "internalType": "address",
          "name": "newPriceOracle",
          "type": "address"
        }
      ],
      "name": "NewPriceOracle",
      "type": "event"
    },
    {
      "anonymous": false,
      "inputs": [
        {
          "indexed": false,
          "internalType": "address",
          "name": "oldRelay",
          "type": "address"
        },
        {
          "indexed": false,
          "internalType": "address",
          "name": "newRelay",
          "type": "address"
        }
      ],
      "name": "NewRelay",
      "type": "event"
    },
    {
      "anonymous": false,
      "inputs": [
        {
          "indexed": false,
          "internalType": "uint256",
          "name": "oldSlasherPercentageReward",
          "type": "uint256"
        },
        {
          "indexed": false,
          "internalType": "uint256",
          "name": "newSlasherPercentageReward",
          "type": "uint256"
        }
      ],
      "name": "NewSlasherPercentageReward",
      "type": "event"
    },
    {
      "anonymous": false,
      "inputs": [
        {
          "indexed": false,
          "internalType": "address",
          "name": "oldTeleBTC",
          "type": "address"
        },
        {
          "indexed": false,
          "internalType": "address",
          "name": "newTeleBTC",
          "type": "address"
        }
      ],
      "name": "NewTeleBTC",
      "type": "event"
    },
    {
      "anonymous": false,
      "inputs": [
        {
          "indexed": false,
          "internalType": "address",
          "name": "oldTeleBTCInstantPool",
          "type": "address"
        },
        {
          "indexed": false,
          "internalType": "address",
          "name": "newTeleBTCInstantPool",
          "type": "address"
        }
      ],
      "name": "NewTeleBTCInstantPool",
      "type": "event"
    },
    {
      "anonymous": false,
      "inputs": [
        {
          "indexed": true,
          "internalType": "address",
          "name": "previousOwner",
          "type": "address"
        },
        {
          "indexed": true,
          "internalType": "address",
          "name": "newOwner",
          "type": "address"
        }
      ],
      "name": "OwnershipTransferred",
      "type": "event"
    },
    {
      "anonymous": false,
      "inputs": [
        {
          "indexed": false,
          "internalType": "address",
          "name": "account",
          "type": "address"
        }
      ],
      "name": "Paused",
      "type": "event"
    },
    {
      "anonymous": false,
      "inputs": [
        {
          "indexed": true,
          "internalType": "address",
          "name": "user",
          "type": "address"
        },
        {
          "indexed": false,
          "internalType": "uint256",
          "name": "paybackAmount",
          "type": "uint256"
        },
        {
          "indexed": true,
          "internalType": "address",
          "name": "collateralToken",
          "type": "address"
        },
        {
          "indexed": false,
          "internalType": "uint256",
          "name": "lockedCollateralPoolToken",
          "type": "uint256"
        },
        {
          "indexed": false,
          "internalType": "uint256",
          "name": "requestCounterOfUser",
          "type": "uint256"
        }
      ],
      "name": "PaybackLoan",
      "type": "event"
    },
    {
      "anonymous": false,
      "inputs": [
        {
          "indexed": true,
          "internalType": "address",
          "name": "user",
          "type": "address"
        },
        {
          "indexed": true,
          "internalType": "address",
          "name": "collateralToken",
          "type": "address"
        },
        {
          "indexed": false,
          "internalType": "uint256",
          "name": "slashedAmount",
          "type": "uint256"
        },
        {
          "indexed": false,
          "internalType": "uint256",
          "name": "paybackAmount",
          "type": "uint256"
        },
        {
          "indexed": true,
          "internalType": "address",
          "name": "slasher",
          "type": "address"
        },
        {
          "indexed": false,
          "internalType": "uint256",
          "name": "slasherReward",
          "type": "uint256"
        },
        {
          "indexed": false,
          "internalType": "uint256",
          "name": "requestCounterOfUser",
          "type": "uint256"
        }
      ],
      "name": "SlashUser",
      "type": "event"
    },
    {
      "anonymous": false,
      "inputs": [
        {
          "indexed": false,
          "internalType": "address",
          "name": "account",
          "type": "address"
        }
      ],
      "name": "Unpaused",
      "type": "event"
    },
    {
      "inputs": [],
      "name": "collateralPoolFactory",
      "outputs": [
        {
          "internalType": "address",
          "name": "",
          "type": "address"
        }
      ],
      "stateMutability": "view",
      "type": "function"
    },
    {
      "inputs": [],
      "name": "defaultExchangeConnector",
      "outputs": [
        {
          "internalType": "address",
          "name": "",
          "type": "address"
        }
      ],
      "stateMutability": "view",
      "type": "function"
    },
    {
      "inputs": [
        {
          "internalType": "address",
          "name": "_user",
          "type": "address"
        },
        {
          "internalType": "uint256",
          "name": "_index",
          "type": "uint256"
        }
      ],
      "name": "getLockedCollateralPoolTokenAmount",
      "outputs": [
        {
          "internalType": "uint256",
          "name": "",
          "type": "uint256"
        }
      ],
      "stateMutability": "view",
      "type": "function"
    },
    {
      "inputs": [
        {
          "internalType": "address",
          "name": "_user",
          "type": "address"
        },
        {
          "internalType": "uint256",
          "name": "_index",
          "type": "uint256"
        }
      ],
      "name": "getUserRequestDeadline",
      "outputs": [
        {
          "internalType": "uint256",
          "name": "",
          "type": "uint256"
        }
      ],
      "stateMutability": "view",
      "type": "function"
    },
    {
      "inputs": [
        {
          "internalType": "address",
          "name": "_user",
          "type": "address"
        }
      ],
      "name": "getUserRequestsLength",
      "outputs": [
        {
          "internalType": "uint256",
          "name": "",
          "type": "uint256"
        }
      ],
      "stateMutability": "view",
      "type": "function"
    },
    {
      "inputs": [
        {
          "internalType": "address",
          "name": "_exchangeConnector",
          "type": "address"
        },
        {
          "internalType": "address",
          "name": "_receiver",
          "type": "address"
        },
        {
          "internalType": "uint256",
          "name": "_loanAmount",
          "type": "uint256"
        },
        {
          "internalType": "uint256",
          "name": "_amountOut",
          "type": "uint256"
        },
        {
          "internalType": "address[]",
          "name": "_path",
          "type": "address[]"
        },
        {
          "internalType": "uint256",
          "name": "_deadline",
          "type": "uint256"
        },
        {
          "internalType": "address",
          "name": "_collateralToken",
          "type": "address"
        },
        {
          "internalType": "bool",
          "name": "_isFixedToken",
          "type": "bool"
        }
      ],
      "name": "instantCCExchange",
      "outputs": [
        {
          "internalType": "uint256[]",
          "name": "_amounts",
          "type": "uint256[]"
        }
      ],
      "stateMutability": "nonpayable",
      "type": "function"
    },
    {
      "inputs": [
        {
          "internalType": "address",
          "name": "_receiver",
          "type": "address"
        },
        {
          "internalType": "uint256",
          "name": "_loanAmount",
          "type": "uint256"
        },
        {
          "internalType": "uint256",
          "name": "_deadline",
          "type": "uint256"
        },
        {
          "internalType": "address",
          "name": "_collateralToken",
          "type": "address"
        }
      ],
      "name": "instantCCTransfer",
      "outputs": [
        {
          "internalType": "bool",
          "name": "",
          "type": "bool"
        }
      ],
      "stateMutability": "nonpayable",
      "type": "function"
    },
    {
      "inputs": [
        {
          "internalType": "address",
          "name": "",
          "type": "address"
        }
      ],
      "name": "instantRequestCounter",
      "outputs": [
        {
          "internalType": "uint256",
          "name": "",
          "type": "uint256"
        }
      ],
      "stateMutability": "view",
      "type": "function"
    },
    {
      "inputs": [
        {
          "internalType": "address",
          "name": "",
          "type": "address"
        },
        {
          "internalType": "uint256",
          "name": "",
          "type": "uint256"
        }
      ],
      "name": "instantRequests",
      "outputs": [
        {
          "internalType": "address",
          "name": "user",
          "type": "address"
        },
        {
          "internalType": "address",
          "name": "collateralPool",
          "type": "address"
        },
        {
          "internalType": "address",
          "name": "collateralToken",
          "type": "address"
        },
        {
          "internalType": "uint256",
          "name": "paybackAmount",
          "type": "uint256"
        },
        {
          "internalType": "uint256",
          "name": "lockedCollateralPoolTokenAmount",
          "type": "uint256"
        },
        {
          "internalType": "uint256",
          "name": "deadline",
          "type": "uint256"
        },
        {
          "internalType": "uint256",
          "name": "requestCounterOfUser",
          "type": "uint256"
        }
      ],
      "stateMutability": "view",
      "type": "function"
    },
    {
      "inputs": [],
      "name": "owner",
      "outputs": [
        {
          "internalType": "address",
          "name": "",
          "type": "address"
        }
      ],
      "stateMutability": "view",
      "type": "function"
    },
    {
      "inputs": [],
      "name": "pause",
      "outputs": [],
      "stateMutability": "nonpayable",
      "type": "function"
    },
    {
      "inputs": [],
      "name": "paused",
      "outputs": [
        {
          "internalType": "bool",
          "name": "",
          "type": "bool"
        }
      ],
      "stateMutability": "view",
      "type": "function"
    },
    {
      "inputs": [
        {
          "internalType": "address",
          "name": "_user",
          "type": "address"
        },
        {
          "internalType": "uint256",
          "name": "_teleBTCAmount",
          "type": "uint256"
        }
      ],
      "name": "payBackLoan",
      "outputs": [
        {
          "internalType": "bool",
          "name": "",
          "type": "bool"
        }
      ],
      "stateMutability": "nonpayable",
      "type": "function"
    },
    {
      "inputs": [],
      "name": "paybackDeadline",
      "outputs": [
        {
          "internalType": "uint256",
          "name": "",
          "type": "uint256"
        }
      ],
      "stateMutability": "view",
      "type": "function"
    },
    {
      "inputs": [],
      "name": "priceOracle",
      "outputs": [
        {
          "internalType": "address",
          "name": "",
          "type": "address"
        }
      ],
      "stateMutability": "view",
      "type": "function"
    },
    {
      "inputs": [],
      "name": "relay",
      "outputs": [
        {
          "internalType": "address",
          "name": "",
          "type": "address"
        }
      ],
      "stateMutability": "view",
      "type": "function"
    },
    {
      "inputs": [],
      "name": "renounceOwnership",
      "outputs": [],
      "stateMutability": "nonpayable",
      "type": "function"
    },
    {
      "inputs": [
        {
          "internalType": "address",
          "name": "_collateralPoolFactory",
          "type": "address"
        }
      ],
      "name": "setCollateralPoolFactory",
      "outputs": [],
      "stateMutability": "nonpayable",
      "type": "function"
    },
    {
      "inputs": [
        {
          "internalType": "address",
          "name": "_defaultExchangeConnector",
          "type": "address"
        }
      ],
      "name": "setDefaultExchangeConnector",
      "outputs": [],
      "stateMutability": "nonpayable",
      "type": "function"
    },
    {
      "inputs": [
        {
          "internalType": "uint256",
          "name": "_paybackDeadline",
          "type": "uint256"
        }
      ],
      "name": "setPaybackDeadline",
      "outputs": [],
      "stateMutability": "nonpayable",
      "type": "function"
    },
    {
      "inputs": [
        {
          "internalType": "address",
          "name": "_priceOracle",
          "type": "address"
        }
      ],
      "name": "setPriceOracle",
      "outputs": [],
      "stateMutability": "nonpayable",
      "type": "function"
    },
    {
      "inputs": [
        {
          "internalType": "address",
          "name": "_relay",
          "type": "address"
        }
      ],
      "name": "setRelay",
      "outputs": [],
      "stateMutability": "nonpayable",
      "type": "function"
    },
    {
      "inputs": [
        {
          "internalType": "uint256",
          "name": "_slasherPercentageReward",
          "type": "uint256"
        }
      ],
      "name": "setSlasherPercentageReward",
      "outputs": [],
      "stateMutability": "nonpayable",
      "type": "function"
    },
    {
      "inputs": [
        {
          "internalType": "address",
          "name": "_teleBTC",
          "type": "address"
        }
      ],
      "name": "setTeleBTC",
      "outputs": [],
      "stateMutability": "nonpayable",
      "type": "function"
    },
    {
      "inputs": [
        {
          "internalType": "address",
          "name": "_teleBTCInstantPool",
          "type": "address"
        }
      ],
      "name": "setTeleBTCInstantPool",
      "outputs": [],
      "stateMutability": "nonpayable",
      "type": "function"
    },
    {
      "inputs": [
        {
          "internalType": "address",
          "name": "_user",
          "type": "address"
        },
        {
          "internalType": "uint256",
          "name": "_requestIndex",
          "type": "uint256"
        }
      ],
      "name": "slashUser",
      "outputs": [
        {
          "internalType": "bool",
          "name": "",
          "type": "bool"
        }
      ],
      "stateMutability": "nonpayable",
      "type": "function"
    },
    {
      "inputs": [],
      "name": "slasherPercentageReward",
      "outputs": [
        {
          "internalType": "uint256",
          "name": "",
          "type": "uint256"
        }
      ],
      "stateMutability": "view",
      "type": "function"
    },
    {
      "inputs": [],
      "name": "teleBTC",
      "outputs": [
        {
          "internalType": "address",
          "name": "",
          "type": "address"
        }
      ],
      "stateMutability": "view",
      "type": "function"
    },
    {
      "inputs": [],
      "name": "teleBTCInstantPool",
      "outputs": [
        {
          "internalType": "address",
          "name": "",
          "type": "address"
        }
      ],
      "stateMutability": "view",
      "type": "function"
    },
    {
      "inputs": [
        {
          "internalType": "address",
          "name": "newOwner",
          "type": "address"
        }
      ],
      "name": "transferOwnership",
      "outputs": [],
      "stateMutability": "nonpayable",
      "type": "function"
    },
    {
      "inputs": [],
      "name": "unpause",
      "outputs": [],
      "stateMutability": "nonpayable",
      "type": "function"
    },
    {
      "stateMutability": "payable",
      "type": "receive"
    }
  ],
  "transactionHash": "0x01cecd4d08527cc97d81d77336be6a664052dc1f99d2b78933a80348d7769c3f",
  "args": [
    "0x0783d8A18461BA80704DF8EcBc41E0eD84CFB84f",
    "0x9De8932342cFa7bBC89d347C24CE59c70A2f2d43",
    "0x49C27D538A8126e3c647ceB72BEde29F6BD6aa55",
    "0xFaB62c83Df7aEB78b2A28ae7b8f9CCfe67A7270F",
    10,
    12,
    "0x42C6349E101D96BeCdE76A42485aa9A894196a78"
  ],
  "numDeployments": 1,
  "solcInputHash": "75de7cb825f3b6d07e1f1f6c98977d78",
  "bytecode": "0x60806040523480156200001157600080fd5b506040516200464838038062004648833981016040819052620000349162000662565b6200003f33620000a7565b600180556002805460ff191690556200005887620000f7565b6200006386620001ad565b6200006e856200025f565b620000798462000311565b6200008483620003c3565b6200008f826200046f565b6200009a8162000593565b50505050505050620006fd565b600080546001600160a01b038381166001600160a01b0319831681178455604051919092169283917f8be0079c531659141344cd1fd0a4f28419497f9722a3daafe3b4186f6b6457e09190a35050565b806001600160a01b038116620001435760405162461bcd60e51b815260206004820152601b60248201526000805160206200462883398151915260448201526064015b60405180910390fd5b600754604080516001600160a01b03928316815291841660208301527f36a4c08a38b736dcecb6c328dba61238529620e83ccb23db2cc43cd34ec26096910160405180910390a150600780546001600160a01b0319166001600160a01b0392909216919091179055565b806001600160a01b038116620001f55760405162461bcd60e51b815260206004820152601b60248201526000805160206200462883398151915260448201526064016200013a565b600954604080516001600160a01b03928316815291841660208301527f4c28a3f61a715259c4dc930c23e7423b8fa52e13232c061a6e488729c66184f4910160405180910390a150600980546001600160a01b0319166001600160a01b0392909216919091179055565b806001600160a01b038116620002a75760405162461bcd60e51b815260206004820152601b60248201526000805160206200462883398151915260448201526064016200013a565b600a54604080516001600160a01b03928316815291841660208301527fd52b2b9b7e9ee655fcb95d2e5b9e0c9f69e7ef2b8e9d2d0ea78402d576d22e22910160405180910390a150600a80546001600160a01b0319166001600160a01b0392909216919091179055565b806001600160a01b038116620003595760405162461bcd60e51b815260206004820152601b60248201526000805160206200462883398151915260448201526064016200013a565b600b54604080516001600160a01b03928316815291841660208301527fd51c31ccb4333b99667a51924b3f89f75c155d6187aff592fa8ef986a20ad09d910160405180910390a150600b80546001600160a01b0319166001600160a01b0392909216919091179055565b6127108111156200042e5760405162461bcd60e51b815260206004820152602e60248201527f496e7374616e74526f757465723a2077726f6e6720736c61736865722070657260448201526d18d95b9d1859d9481c995dd85c9960921b60648201526084016200013a565b60055460408051918252602082018390527fbafa1687bdcc9d362e353e72d948d31c10ccb6cc807954aeb60b22c3d9c1f7fc910160405180910390a1600555565b60095460408051630a072bc560e41b815290516000926001600160a01b03169163a072bc50916004808301926020929190829003018186803b158015620004b557600080fd5b505afa158015620004ca573d6000803e3d6000fd5b505050506040513d601f19601f82011682018060405250810190620004f09190620006e4565b9050808211620005515760405162461bcd60e51b815260206004820152602560248201527f496e7374616e74526f757465723a2077726f6e67207061796261636b20646561604482015264646c696e6560d81b60648201526084016200013a565b60065460408051918252602082018490527f8961dc7f3b9bf9cae4b1bb7adf97b539964e3b1ce06bb594e07eb749abccd154910160405180910390a150600655565b806001600160a01b038116620005db5760405162461bcd60e51b815260206004820152601b60248201526000805160206200462883398151915260448201526064016200013a565b600c54604080516001600160a01b03928316815291841660208301527f945e4e5e18267deafe97ea77aaf26dff7dbaa57d04fe9bc550e0440874040cd0910160405180910390a150600c80546001600160a01b0319166001600160a01b0392909216919091179055565b80516001600160a01b03811681146200065d57600080fd5b919050565b600080600080600080600060e0888a0312156200067d578283fd5b620006888862000645565b9650620006986020890162000645565b9550620006a86040890162000645565b9450620006b86060890162000645565b93506080880151925060a08801519150620006d660c0890162000645565b905092959891949750929550565b600060208284031215620006f6578081fd5b5051919050565b613f1b806200070d6000396000f3fe6080604052600436106101dc5760003560e01c80636dd3d589116101025780638da5cb5b11610095578063c805f68b11610064578063c805f68b146105a2578063d7aa5e7a146105c2578063db1cb558146105e2578063f2fde38b14610602576101e3565b80638da5cb5b146104e857806397091b8914610506578063a36be9a11461056c578063b59589d114610582576101e3565b806378b58675116100d157806378b58675146104735780637f0f1817146104935780638456cb59146104b35780638d3d78cd146104c8576101e3565b80636dd3d589146103f15780636f6ef7c914610411578063715018a61461043e578063763360db14610453576101e3565b80634782bc361161017a5780635c975abb116101495780635c975abb1461036057806369539c7014610384578063697380b2146103a45780636b7b3719146103c4576101e3565b80634782bc36146102e05780634cf46825146103005780634d61878e14610320578063530e784f14610340576101e3565b8063387bb22d116101b6578063387bb22d146102675780633f4ba83a14610295578063419cba7f146102aa57806346e897fd146102c0576101e3565b8063059d0238146101e85780631c9d583c1461020a5780632630c12f1461022a576101e3565b366101e357005b600080fd5b3480156101f457600080fd5b50610208610203366004613801565b610622565b005b34801561021657600080fd5b50610208610225366004613801565b610661565b34801561023657600080fd5b50600a5461024a906001600160a01b031681565b6040516001600160a01b0390911681526020015b60405180910390f35b34801561027357600080fd5b50610287610282366004613801565b610694565b60405190815260200161025e565b3480156102a157600080fd5b506102086106b3565b3480156102b657600080fd5b5061028760055481565b3480156102cc57600080fd5b5060085461024a906001600160a01b031681565b3480156102ec57600080fd5b506102086102fb366004613aa2565b6106e7565b34801561030c57600080fd5b5061020861031b366004613aa2565b61071a565b34801561032c57600080fd5b5061028761033b36600461393e565b61074d565b34801561034c57600080fd5b5061020861035b366004613801565b610806565b34801561036c57600080fd5b5060025460ff165b604051901515815260200161025e565b34801561039057600080fd5b5061028761039f36600461393e565b610839565b3480156103b057600080fd5b506103746103bf366004613969565b6108f2565b3480156103d057600080fd5b506102876103df366004613801565b60046020526000908152604090205481565b3480156103fd57600080fd5b5061020861040c366004613801565b610cad565b34801561041d57600080fd5b5061043161042c366004613839565b610ce0565b60405161025e9190613ba7565b34801561044a57600080fd5b50610208611270565b34801561045f57600080fd5b50600b5461024a906001600160a01b031681565b34801561047f57600080fd5b5061037461048e36600461393e565b61129a565b34801561049f57600080fd5b506102086104ae366004613801565b611d10565b3480156104bf57600080fd5b50610208611d43565b3480156104d457600080fd5b5060075461024a906001600160a01b031681565b3480156104f457600080fd5b506000546001600160a01b031661024a565b34801561051257600080fd5b5061052661052136600461393e565b611d75565b604080516001600160a01b039889168152968816602088015294909616938501939093526060840191909152608083015260a082015260c081019190915260e00161025e565b34801561057857600080fd5b5061028760065481565b34801561058e57600080fd5b5060095461024a906001600160a01b031681565b3480156105ae57600080fd5b506102086105bd366004613801565b611dde565b3480156105ce57600080fd5b50600c5461024a906001600160a01b031681565b3480156105ee57600080fd5b506103746105fd36600461393e565b611e11565b34801561060e57600080fd5b5061020861061d366004613801565b61246c565b6000546001600160a01b031633146106555760405162461bcd60e51b815260040161064c90613cc1565b60405180910390fd5b61065e81612504565b50565b6000546001600160a01b0316331461068b5760405162461bcd60e51b815260040161064c90613cc1565b61065e81612595565b6001600160a01b0381166000908152600360205260409020545b919050565b6000546001600160a01b031633146106dd5760405162461bcd60e51b815260040161064c90613cc1565b6106e5612626565b565b6000546001600160a01b031633146107115760405162461bcd60e51b815260040161064c90613cc1565b61065e816126b9565b6000546001600160a01b031633146107445760405162461bcd60e51b815260040161064c90613cc1565b61065e81612763565b6001600160a01b03821660009081526003602052604081205482106107b45760405162461bcd60e51b815260206004820152601a60248201527f496e7374616e74526f757465723a2077726f6e6720696e646578000000000000604482015260640161064c565b6001600160a01b03831660009081526003602052604090208054839081106107ec57634e487b7160e01b600052603260045260246000fd5b906000526020600020906007020160050154905092915050565b6000546001600160a01b031633146108305760405162461bcd60e51b815260040161064c90613cc1565b61065e81612881565b6001600160a01b03821660009081526003602052604081205482106108a05760405162461bcd60e51b815260206004820152601a60248201527f496e7374616e74526f757465723a2077726f6e6720696e646578000000000000604482015260640161064c565b6001600160a01b03831660009081526003602052604090208054839081106108d857634e487b7160e01b600052603260045260246000fd5b906000526020600020906007020160040154905092915050565b6000600260015414156109175760405162461bcd60e51b815260040161064c90613cf6565b6002600155846001600160a01b0381166109435760405162461bcd60e51b815260040161064c90613c1e565b826001600160a01b03811661096a5760405162461bcd60e51b815260040161064c90613c1e565b60025460ff161561098d5760405162461bcd60e51b815260040161064c90613c55565b428510156109ad5760405162461bcd60e51b815260040161064c90613c7f565b600854604051633f3b917d60e21b8152600481018890526000916001600160a01b03169063fcee45f49060240160206040518083038186803b1580156109f257600080fd5b505afa158015610a06573d6000803e3d6000fd5b505050506040513d601f19601f82011682018060405250810190610a2a9190613aba565b9050610a4033610a3a838a613dca565b87612912565b6008546040516350e28ac360e11b81526001600160a01b038a81166004830152602482018a90529091169063a1c5158690604401602060405180830381600087803b158015610a8e57600080fd5b505af1158015610aa2573d6000803e3d6000fd5b505050506040513d601f19601f82011682018060405250810190610ac691906139b2565b5033600090815260036020526040902080546001600160a01b0387169190610af090600190613e21565b81548110610b0e57634e487b7160e01b600052603260045260246000fd5b906000526020600020906007020160050154610b273390565b6001600160a01b03167f78f6eb344326b271069e0b49a8b066463a9801e7056092522e83ef7b947f0c968b8b8660036000336001600160a01b03166001600160a01b03168152602001908152602001600020600160036000610b863390565b6001600160a01b03168152602081019190915260400160002054610baa9190613e21565b81548110610bc857634e487b7160e01b600052603260045260246000fd5b90600052602060002090600702016004015460036000610be53390565b6001600160a01b03166001600160a01b03168152602001908152602001600020600160036000610c123390565b6001600160a01b03168152602081019190915260400160002054610c369190613e21565b81548110610c5457634e487b7160e01b600052603260045260246000fd5b600091825260209182902060066007909202010154604080516001600160a01b039097168752918601949094528401919091526060830152608082015260a00160405180910390a4505060018080559695505050505050565b6000546001600160a01b03163314610cd75760405162461bcd60e51b815260040161064c90613cc1565b61065e81613048565b606060026001541415610d055760405162461bcd60e51b815260040161064c90613cf6565b6002600155886001600160a01b038116610d315760405162461bcd60e51b815260040161064c90613c1e565b60025460ff1615610d545760405162461bcd60e51b815260040161064c90613c55565b42851015610d745760405162461bcd60e51b815260040161064c90613c7f565b60075486516001600160a01b03909116908790600090610da457634e487b7160e01b600052603260045260246000fd5b60200260200101516001600160a01b0316148015610dc3575060018651115b610e0f5760405162461bcd60e51b815260206004820152601e60248201527f496e7374616e74526f757465723a207061746820697320696e76616c69640000604482015260640161064c565b600854604051633f3b917d60e21b8152600481018a90526000916001600160a01b03169063fcee45f49060240160206040518083038186803b158015610e5457600080fd5b505afa158015610e68573d6000803e3d6000fd5b505050506040513d601f19601f82011682018060405250810190610e8c9190613aba565b9050610e9c33610a3a838c613dca565b6008546040516350e28ac360e11b8152306004820152602481018b90526001600160a01b039091169063a1c5158690604401602060405180830381600087803b158015610ee857600080fd5b505af1158015610efc573d6000803e3d6000fd5b505050506040513d601f19601f82011682018060405250810190610f2091906139b2565b5060075460405163095ea7b360e01b81526001600160a01b038d81166004830152602482018c90529091169063095ea7b390604401602060405180830381600087803b158015610f6f57600080fd5b505af1158015610f83573d6000803e3d6000fd5b505050506040513d601f19601f82011682018060405250810190610fa791906139b2565b5060008b6001600160a01b031663b0bbcd888b8b8b8f8c8b6040518763ffffffff1660e01b8152600401610fe096959493929190613d2d565b600060405180830381600087803b158015610ffa57600080fd5b505af115801561100e573d6000803e3d6000fd5b505050506040513d6000823e601f3d908101601f1916820160405261103691908101906139ce565b9450905060018115151461109f5760405162461bcd60e51b815260206004820152602a60248201527f496e7374616e74526f757465723a2065786368616e676520776173206e6f74206044820152691cdd58d8d95cdcd99d5b60b21b606482015260840161064c565b33600090815260036020526040902080546001600160a01b03881691906110c890600190613e21565b815481106110e657634e487b7160e01b600052603260045260246000fd5b9060005260206000209060070201600501546110ff3390565b6001600160a01b03167f420fb2c476199fbcc4a0ce247fea400eef537161a974799739298de5e80e33a98e8e878f8f8d60036000336001600160a01b03166001600160a01b031681526020019081526020016000206001600360006111613390565b6001600160a01b031681526020810191909152604001600020546111859190613e21565b815481106111a357634e487b7160e01b600052603260045260246000fd5b906000526020600020906007020160040154600360006111c03390565b6001600160a01b03166001600160a01b031681526020019081526020016000206001600360006111ed3390565b6001600160a01b031681526020810191909152604001600020546112119190613e21565b8154811061122f57634e487b7160e01b600052603260045260246000fd5b906000526020600020906007020160060154604051611255989796959493929190613b52565b60405180910390a45050600180555098975050505050505050565b6000546001600160a01b031633146106e55760405162461bcd60e51b815260040161064c90613cc1565b6000600260015414156112bf5760405162461bcd60e51b815260040161064c90613cf6565b6002600155826001600160a01b0381166112eb5760405162461bcd60e51b815260040161064c90613c1e565b6001600160a01b03841660009081526003602052604090205483106113665760405162461bcd60e51b815260206004820152602b60248201527f496e7374616e74526f757465723a207265717565737420696e64657820646f6560448201526a1cc81b9bdd08195e1a5cdd60aa1b606482015260840161064c565b600954604080516302f796d960e41b815290516000926001600160a01b031691632f796d90916004808301926020929190829003018186803b1580156113ab57600080fd5b505afa1580156113bf573d6000803e3d6000fd5b505050506040513d601f19601f820116820180604052508101906113e39190613aba565b6001600160a01b0386166000908152600360205260409020805491925082918690811061142057634e487b7160e01b600052603260045260246000fd5b906000526020600020906007020160050154106114925760405162461bcd60e51b815260206004820152602a60248201527f496e7374616e74526f757465723a20646561646c696e6520686173206e6f74206044820152691c185cdcd959081e595d60b21b606482015260840161064c565b6001600160a01b03851660009081526003602052604081208054869081106114ca57634e487b7160e01b600052603260045260246000fd5b600091825260208083206040805160e081018252600794850290920180546001600160a01b0390811684526001820154811694840194909452600281015484168383018190526003820154606085018190526004808401546080870152600584015460a087015260069093015460c0860152600c54965493516322620c1d60e21b815292830152602482015290831660448201529094508392909116906389883074906064016040805180830381600087803b15801561158957600080fd5b505af115801561159d573d6000803e3d6000fd5b505050506040513d601f19601f820116820180604052508101906115c19190613a75565b909250905060018215151461162c5760405162461bcd60e51b815260206004820152602b60248201527f496e7374616e74526f757465723a206c697175696469747920706f6f6c20646f60448201526a195cdb89dd08195e1a5cdd60aa1b606482015260840161064c565b6020830151608084015160405163392f2ddd60e01b815260048101919091526000916001600160a01b03169063392f2ddd9060240160206040518083038186803b15801561167957600080fd5b505afa15801561168d573d6000803e3d6000fd5b505050506040513d601f19601f820116820180604052508101906116b19190613aba565b60408051600280825260608201835292935060009290916020830190803683370190505090508460400151816000815181106116fd57634e487b7160e01b600052603260045260246000fd5b6001600160a01b03928316602091820292909201015260075482519116908290600190811061173c57634e487b7160e01b600052603260045260246000fd5b60200260200101906001600160a01b031690816001600160a01b03168152505084602001516001600160a01b0316633237c15886608001516040518263ffffffff1660e01b815260040161179291815260200190565b602060405180830381600087803b1580156117ac57600080fd5b505af11580156117c0573d6000803e3d6000fd5b505050506040513d601f19601f820116820180604052508101906117e491906139b2565b50828210611b3d57604085810151600c54915163095ea7b360e01b81526001600160a01b0392831660048201526024810186905291169063095ea7b390604401602060405180830381600087803b15801561183e57600080fd5b505af1158015611852573d6000803e3d6000fd5b505050506040513d601f19601f8201168201806040525081019061187691906139b2565b50600c5460608601516008546001600160a01b039283169263b0bbcd8892879290918691166118a6426001613dca565b60006040518763ffffffff1660e01b81526004016118c996959493929190613d2d565b600060405180830381600087803b1580156118e357600080fd5b505af11580156118f7573d6000803e3d6000fd5b505050506040513d6000823e601f3d908101601f1916820160405261191f91908101906139ce565b5050600061271060055485856119359190613e21565b61193f9190613e02565b6119499190613de2565b90506119643360408801516001600160a01b031690836130d9565b60075460208701516001600160a01b039091169063095ea7b390836119898888613e21565b6119939190613e21565b6040516001600160e01b031960e085901b1681526001600160a01b0390921660048301526024820152604401602060405180830381600087803b1580156119d957600080fd5b505af11580156119ed573d6000803e3d6000fd5b505050506040513d601f19601f82011682018060405250810190611a1191906139b2565b5060208601516001600160a01b0316636d75b9ee8c83611a318888613e21565b611a3b9190613e21565b6040516001600160e01b031960e085901b1681526001600160a01b0390921660048301526024820152604401602060405180830381600087803b158015611a8157600080fd5b505af1158015611a95573d6000803e3d6000fd5b505050506040513d601f19601f82011682018060405250810190611ab991906139b2565b50336001600160a01b031686604001516001600160a01b03168c6001600160a01b03167fc2baf6a73c7688a95aaa152e46e1683e51426f3e2dd2badc3d0c8d7b52e297b8878a60600151868c60c00151604051611b2f949392919093845260208401929092526040830152606082015260800190565b60405180910390a450611cf3565b604085810151600c54915163095ea7b360e01b81526001600160a01b0392831660048201526024810185905291169063095ea7b390604401602060405180830381600087803b158015611b8f57600080fd5b505af1158015611ba3573d6000803e3d6000fd5b505050506040513d601f19601f82011682018060405250810190611bc791906139b2565b50600c546008546001600160a01b039182169163b0bbcd88918591600091869116611bf3426001613dca565b60016040518763ffffffff1660e01b8152600401611c1696959493929190613d2d565b600060405180830381600087803b158015611c3057600080fd5b505af1158015611c44573d6000803e3d6000fd5b505050506040513d6000823e601f3d908101601f19168201604052611c6c91908101906139ce565b5050611c753390565b6001600160a01b031685604001516001600160a01b03168b6001600160a01b03167fc2baf6a73c7688a95aaa152e46e1683e51426f3e2dd2badc3d0c8d7b52e297b885896060015160008b60c00151604051611cea949392919093845260208401929092526040830152606082015260800190565b60405180910390a45b611cfd8a8a613141565b5050600180805598975050505050505050565b6000546001600160a01b03163314611d3a5760405162461bcd60e51b815260040161064c90613cc1565b61065e81613397565b6000546001600160a01b03163314611d6d5760405162461bcd60e51b815260040161064c90613cc1565b6106e5613428565b60036020528160005260406000208181548110611d9157600080fd5b600091825260209091206007909102018054600182015460028301546003840154600485015460058601546006909601546001600160a01b03958616985093851696509190931693909187565b6000546001600160a01b03163314611e085760405162461bcd60e51b815260040161064c90613cc1565b61065e81613480565b600060026001541415611e365760405162461bcd60e51b815260040161064c90613cf6565b6002600155826001600160a01b038116611e625760405162461bcd60e51b815260040161064c90613c1e565b600954604080516302f796d960e41b8152905185926000926001600160a01b0390911691632f796d9091600480820192602092909190829003018186803b158015611eac57600080fd5b505afa158015611ec0573d6000803e3d6000fd5b505050506040513d601f19601f82011682018060405250810190611ee49190613aba565b9050600060015b6001600160a01b038816600090815260036020526040902054811161231c576001600160a01b0388166000908152600360205260409020611f2d600183613e21565b81548110611f4b57634e487b7160e01b600052603260045260246000fd5b9060005260206000209060070201600301548410158015611fbf57506001600160a01b03881660009081526003602052604090208390611f8c600184613e21565b81548110611faa57634e487b7160e01b600052603260045260246000fd5b90600052602060002090600702016005015410155b15612300576001600160a01b0388166000908152600360205260409020611fe7600183613e21565b8154811061200557634e487b7160e01b600052603260045260246000fd5b906000526020600020906007020160030154846120229190613e21565b6001600160a01b0389166000908152600360205260409020909450612048600183613e21565b8154811061206657634e487b7160e01b600052603260045260246000fd5b906000526020600020906007020160030154826120839190613dca565b6001600160a01b03891660009081526003602052604090209092506121479089906120af600185613e21565b815481106120cd57634e487b7160e01b600052603260045260246000fd5b60009182526020808320600460079093020191909101546001600160a01b038d16835260039091526040909120612105600186613e21565b8154811061212357634e487b7160e01b600052603260045260246000fd5b60009182526020909120600160079092020101546001600160a01b031691906130d9565b6001600160a01b038816600090815260036020526040902061216a600183613e21565b8154811061218857634e487b7160e01b600052603260045260246000fd5b60009182526020808320600260079093020191909101546001600160a01b038b8116808552600390935260409093209216917f10230d50e08046aa8fd499b9535a95c9b8d13f9a644a03087f010c0bc3e0deb4906121e7600186613e21565b8154811061220557634e487b7160e01b600052603260045260246000fd5b6000918252602080832060036007909302018201546001600160a01b038f1684529190526040909120612239600187613e21565b8154811061225757634e487b7160e01b600052603260045260246000fd5b60009182526020808320600460079093020191909101546001600160a01b038f1683526003909152604090912061228f600188613e21565b815481106122ad57634e487b7160e01b600052603260045260246000fd5b600091825260209182902060066007909202010154604080519485529184019290925282015260600160405180910390a36122f2886122ed600184613e21565b613141565b806122fc81613e64565b9150505b8361230a5761231c565b8061231481613e7b565b915050611eeb565b506007546001600160a01b03166323b872dd3360085460405160e084901b6001600160e01b03191681526001600160a01b0392831660048201529116602482015260448101849052606401602060405180830381600087803b15801561238157600080fd5b505af1158015612395573d6000803e3d6000fd5b505050506040513d601f19601f820116820180604052508101906123b991906139b2565b50821561245c576007546001600160a01b03166323b872dd336040516001600160e01b031960e084901b1681526001600160a01b039182166004820152908a16602482015260448101869052606401602060405180830381600087803b15801561242257600080fd5b505af1158015612436573d6000803e3d6000fd5b505050506040513d601f19601f8201168201806040525081019061245a91906139b2565b505b5050600180805595945050505050565b6000546001600160a01b031633146124965760405162461bcd60e51b815260040161064c90613cc1565b6001600160a01b0381166124fb5760405162461bcd60e51b815260206004820152602660248201527f4f776e61626c653a206e6577206f776e657220697320746865207a65726f206160448201526564647265737360d01b606482015260840161064c565b61065e81613511565b806001600160a01b03811661252b5760405162461bcd60e51b815260040161064c90613c1e565b600854604080516001600160a01b03928316815291841660208301527f4501c7a19a4c866a4da8d06cf169cf17b87b88dc6c051dbab96d998dbbb133ef910160405180910390a150600880546001600160a01b0319166001600160a01b0392909216919091179055565b806001600160a01b0381166125bc5760405162461bcd60e51b815260040161064c90613c1e565b600c54604080516001600160a01b03928316815291841660208301527f945e4e5e18267deafe97ea77aaf26dff7dbaa57d04fe9bc550e0440874040cd0910160405180910390a150600c80546001600160a01b0319166001600160a01b0392909216919091179055565b60025460ff1661266f5760405162461bcd60e51b815260206004820152601460248201527314185d5cd8589b194e881b9bdd081c185d5cd95960621b604482015260640161064c565b6002805460ff191690557f5db9ee0a495bf2e6ff9c91a7834c1ba4fdd244a5e8aa4e537bd38aeae4b073aa335b6040516001600160a01b03909116815260200160405180910390a1565b6127108111156127225760405162461bcd60e51b815260206004820152602e60248201527f496e7374616e74526f757465723a2077726f6e6720736c61736865722070657260448201526d18d95b9d1859d9481c995dd85c9960921b606482015260840161064c565b60055460408051918252602082018390527fbafa1687bdcc9d362e353e72d948d31c10ccb6cc807954aeb60b22c3d9c1f7fc910160405180910390a1600555565b60095460408051630a072bc560e41b815290516000926001600160a01b03169163a072bc50916004808301926020929190829003018186803b1580156127a857600080fd5b505afa1580156127bc573d6000803e3d6000fd5b505050506040513d601f19601f820116820180604052508101906127e09190613aba565b905080821161283f5760405162461bcd60e51b815260206004820152602560248201527f496e7374616e74526f757465723a2077726f6e67207061796261636b20646561604482015264646c696e6560d81b606482015260840161064c565b60065460408051918252602082018490527f8961dc7f3b9bf9cae4b1bb7adf97b539964e3b1ce06bb594e07eb749abccd154910160405180910390a150600655565b806001600160a01b0381166128a85760405162461bcd60e51b815260040161064c90613c1e565b600a54604080516001600160a01b03928316815291841660208301527fd52b2b9b7e9ee655fcb95d2e5b9e0c9f69e7ef2b8e9d2d0ea78402d576d22e22910160405180910390a150600a80546001600160a01b0319166001600160a01b0392909216919091179055565b806001600160a01b0381166129395760405162461bcd60e51b815260040161064c90613c1e565b600b546040516303b8879560e21b81526001600160a01b03848116600483015290911690630ee21e549060240160206040518083038186803b15801561297e57600080fd5b505afa158015612992573d6000803e3d6000fd5b505050506040513d601f19601f820116820180604052508101906129b691906139b2565b612a1c5760405162461bcd60e51b815260206004820152603160248201527f496e7374616e74526f757465723a20636f6c6c61746572616c20746f6b656e206044820152706973206e6f742061636365707461626c6560781b606482015260840161064c565b6001600160a01b038416600090815260036020526040902054600f11612a935760405162461bcd60e51b815260206004820152602660248201527f496e7374616e74526f757465723a2072656163686564206d6178206c6f616e20604482015265373ab6b132b960d11b606482015260840161064c565b600b54604051636e2f809f60e11b81526001600160a01b038481166004830152600092169063dc5f013e9060240160206040518083038186803b158015612ad957600080fd5b505afa158015612aed573d6000803e3d6000fd5b505050506040513d601f19601f82011682018060405250810190612b11919061381d565b90506000816001600160a01b031663dcaf9c446040518163ffffffff1660e01b815260040160206040518083038186803b158015612b4e57600080fd5b505afa158015612b62573d6000803e3d6000fd5b505050506040513d601f19601f82011682018060405250810190612b869190613aba565b600a546007546040805163313ce56760e01b815290519394506000936001600160a01b03938416936316fac92a938b9391169163313ce56791600480820192602092909190829003018186803b158015612bdf57600080fd5b505afa158015612bf3573d6000803e3d6000fd5b505050506040513d601f19601f82011682018060405250810190612c179190613ad2565b886001600160a01b031663313ce5676040518163ffffffff1660e01b815260040160206040518083038186803b158015612c5057600080fd5b505afa158015612c64573d6000803e3d6000fd5b505050506040513d601f19601f82011682018060405250810190612c889190613ad2565b60075460405160e086901b6001600160e01b0319168152600481019490945260ff9283166024850152911660448301526001600160a01b0390811660648301528816608482015260a40160206040518083038186803b158015612cea57600080fd5b505afa158015612cfe573d6000803e3d6000fd5b505050506040513d601f19601f82011682018060405250810190612d229190613aba565b90506000612710612d338484613e02565b612d3d9190613de2565b6040516309fad23760e11b8152600481018290529091506000906001600160a01b038616906313f5a46e9060240160206040518083038186803b158015612d8357600080fd5b505afa158015612d97573d6000803e3d6000fd5b505050506040513d601f19601f82011682018060405250810190612dbb9190613aba565b9050612dd26001600160a01b0386168a3084613561565b612e2d6040518060e0016040528060006001600160a01b0316815260200160006001600160a01b0316815260200160006001600160a01b03168152602001600081526020016000815260200160008152602001600081525090565b6001600160a01b03808b168252606082018a90526080820183905286811660208084019190915289821660408085019190915260065460095482516302f796d960e41b8152925191941692632f796d909260048082019391829003018186803b158015612e9957600080fd5b505afa158015612ead573d6000803e3d6000fd5b505050506040513d601f19601f82011682018060405250810190612ed19190613aba565b612edb9190613dca565b60a08201526001600160a01b038a16600081815260046020818152604083205460c08601819052939092529052612f13906001613dca565b600460008c6001600160a01b03166001600160a01b0316815260200190815260200160002081905550600360008b6001600160a01b03166001600160a01b0316815260200190815260200160002081908060018154018082558091505060019003906000526020600020906007020160009091909190915060008201518160000160006101000a8154816001600160a01b0302191690836001600160a01b0316021790555060208201518160010160006101000a8154816001600160a01b0302191690836001600160a01b0316021790555060408201518160020160006101000a8154816001600160a01b0302191690836001600160a01b03160217905550606082015181600301556080820151816004015560a0820151816005015560c08201518160060155505050505050505050505050565b806001600160a01b03811661306f5760405162461bcd60e51b815260040161064c90613c1e565b600b54604080516001600160a01b03928316815291841660208301527fd51c31ccb4333b99667a51924b3f89f75c155d6187aff592fa8ef986a20ad09d910160405180910390a150600b80546001600160a01b0319166001600160a01b0392909216919091179055565b6040516001600160a01b03831660248201526044810182905261313c90849063a9059cbb60e01b906064015b60408051601f198184030181529190526020810180516001600160e01b03166001600160e01b03199093169290921790915261359f565b505050565b6001600160a01b03821660009081526003602052604090205481106131b45760405162461bcd60e51b8152602060048201526024808201527f496e7374616e74526f757465723a20696e646578206973206f7574206f6620626044820152631bdd5b9960e21b606482015260840161064c565b805b6001600160a01b0383166000908152600360205260409020546131db90600190613e21565b811015613308576001600160a01b0383166000908152600360205260409020613205826001613dca565b8154811061322357634e487b7160e01b600052603260045260246000fd5b906000526020600020906007020160036000856001600160a01b03166001600160a01b03168152602001908152602001600020828154811061327557634e487b7160e01b600052603260045260246000fd5b60009182526020909120825460079092020180546001600160a01b039283166001600160a01b031991821617825560018085015490830180549185169183169190911790556002808501549083018054919094169116179091556003808301549082015560048083015490820155600580830154908201556006918201549101558061330081613e7b565b9150506131b6565b506001600160a01b038216600090815260036020526040902080548061333e57634e487b7160e01b600052603160045260246000fd5b60008281526020812060076000199093019283020180546001600160a01b031990811682556001820180548216905560028201805490911690556003810182905560048101829055600581018290556006015590555050565b806001600160a01b0381166133be5760405162461bcd60e51b815260040161064c90613c1e565b600754604080516001600160a01b03928316815291841660208301527f36a4c08a38b736dcecb6c328dba61238529620e83ccb23db2cc43cd34ec26096910160405180910390a150600780546001600160a01b0319166001600160a01b0392909216919091179055565b60025460ff161561344b5760405162461bcd60e51b815260040161064c90613c55565b6002805460ff191660011790557f62e78cea01bee320cd4e420270b5ea74000d11b0c9f74754ebdbfc544b05a25861269c3390565b806001600160a01b0381166134a75760405162461bcd60e51b815260040161064c90613c1e565b600954604080516001600160a01b03928316815291841660208301527f4c28a3f61a715259c4dc930c23e7423b8fa52e13232c061a6e488729c66184f4910160405180910390a150600980546001600160a01b0319166001600160a01b0392909216919091179055565b600080546001600160a01b038381166001600160a01b0319831681178455604051919092169283917f8be0079c531659141344cd1fd0a4f28419497f9722a3daafe3b4186f6b6457e09190a35050565b6040516001600160a01b03808516602483015283166044820152606481018290526135999085906323b872dd60e01b90608401613105565b50505050565b60006135f4826040518060400160405280602081526020017f5361666545524332303a206c6f772d6c6576656c2063616c6c206661696c6564815250856001600160a01b03166136719092919063ffffffff16565b80519091501561313c578080602001905181019061361291906139b2565b61313c5760405162461bcd60e51b815260206004820152602a60248201527f5361666545524332303a204552433230206f7065726174696f6e20646964206e6044820152691bdd081cdd58d8d9595960b21b606482015260840161064c565b6060613680848460008561368a565b90505b9392505050565b6060824710156136eb5760405162461bcd60e51b815260206004820152602660248201527f416464726573733a20696e73756666696369656e742062616c616e636520666f6044820152651c8818d85b1b60d21b606482015260840161064c565b843b6137395760405162461bcd60e51b815260206004820152601d60248201527f416464726573733a2063616c6c20746f206e6f6e2d636f6e7472616374000000604482015260640161064c565b600080866001600160a01b031685876040516137559190613b36565b60006040518083038185875af1925050503d8060008114613792576040519150601f19603f3d011682016040523d82523d6000602084013e613797565b606091505b50915091506137a78282866137b2565b979650505050505050565b606083156137c1575081613683565b8251156137d15782518084602001fd5b8160405162461bcd60e51b815260040161064c9190613beb565b80356106ae81613ec2565b80356106ae81613ed7565b600060208284031215613812578081fd5b813561368381613ec2565b60006020828403121561382e578081fd5b815161368381613ec2565b600080600080600080600080610100898b031215613855578384fd5b883561386081613ec2565b975060208981013561387181613ec2565b975060408a0135965060608a0135955060808a013567ffffffffffffffff81111561389a578586fd5b8a01601f81018c136138aa578586fd5b80356138bd6138b882613da6565b613d75565b8082825284820191508484018f8687860287010111156138db57898afd5b8994505b838510156139065780356138f281613ec2565b8352600194909401939185019185016138df565b50975050505060a08a01359350613921905060c08a016137eb565b915061392f60e08a016137f6565b90509295985092959890939650565b60008060408385031215613950578182fd5b823561395b81613ec2565b946020939093013593505050565b6000806000806080858703121561397e578384fd5b843561398981613ec2565b9350602085013592506040850135915060608501356139a781613ec2565b939692955090935050565b6000602082840312156139c3578081fd5b815161368381613ed7565b600080604083850312156139e0578182fd5b82516139eb81613ed7565b8092505060208084015167ffffffffffffffff811115613a09578283fd5b8401601f81018613613a19578283fd5b8051613a276138b882613da6565b81815283810190838501858402850186018a1015613a43578687fd5b8694505b83851015613a65578051835260019490940193918501918501613a47565b5080955050505050509250929050565b60008060408385031215613a87578182fd5b8251613a9281613ed7565b6020939093015192949293505050565b600060208284031215613ab3578081fd5b5035919050565b600060208284031215613acb578081fd5b5051919050565b600060208284031215613ae3578081fd5b815160ff81168114613683578182fd5b6000815180845260208085019450808401835b83811015613b2b5781516001600160a01b031687529582019590820190600101613b06565b509495945050505050565b60008251613b48818460208701613e38565b9190910192915050565b600061010060018060a01b038b168352896020840152886040840152876060840152806080840152613b8681840188613af3565b95151560a0840152505060c081019290925260e09091015295945050505050565b6020808252825182820181905260009190848201906040850190845b81811015613bdf57835183529284019291840191600101613bc3565b50909695505050505050565b6000602082528251806020840152613c0a816040850160208701613e38565b601f01601f19169190910160400192915050565b6020808252601b908201527f496e7374616e74526f757465723a207a65726f20616464726573730000000000604082015260600190565b60208082526010908201526f14185d5cd8589b194e881c185d5cd95960821b604082015260600190565b60208082526022908201527f496e7374616e74526f757465723a20646561646c696e65206861732070617373604082015261195960f21b606082015260800190565b6020808252818101527f4f776e61626c653a2063616c6c6572206973206e6f7420746865206f776e6572604082015260600190565b6020808252601f908201527f5265656e7472616e637947756172643a207265656e7472616e742063616c6c00604082015260600190565b600087825286602083015260c06040830152613d4c60c0830187613af3565b6001600160a01b03959095166060830152506080810192909252151560a0909101529392505050565b604051601f8201601f1916810167ffffffffffffffff81118282101715613d9e57613d9e613eac565b604052919050565b600067ffffffffffffffff821115613dc057613dc0613eac565b5060209081020190565b60008219821115613ddd57613ddd613e96565b500190565b600082613dfd57634e487b7160e01b81526012600452602481fd5b500490565b6000816000190483118215151615613e1c57613e1c613e96565b500290565b600082821015613e3357613e33613e96565b500390565b60005b83811015613e53578181015183820152602001613e3b565b838111156135995750506000910152565b600081613e7357613e73613e96565b506000190190565b6000600019821415613e8f57613e8f613e96565b5060010190565b634e487b7160e01b600052601160045260246000fd5b634e487b7160e01b600052604160045260246000fd5b6001600160a01b038116811461065e57600080fd5b801515811461065e57600080fdfea26469706673582212204adac0d484011446b5e6f136778f8c856273bf1eaa48796549fedf4bf962534b64736f6c63430008020033496e7374616e74526f757465723a207a65726f20616464726573730000000000",
  "devdoc": {
    "kind": "dev",
    "methods": {
      "constructor": {
        "details": "It manages instant pool contract to give loan to users",
        "params": {
          "_collateralPoolFactory": "Address of collateral pool factory contract",
          "_defaultExchangeConnector": "Exchange connector that is used for exchanging user's collateral to teleBTC (in the case of slashing)",
          "_paybackDeadline": "Deadline of paying back the borrowed tokens",
          "_priceOracle": "Address of price oracle contract",
          "_relay": "Address of relay contract",
          "_slasherPercentageReward": "Percentage of total collateral that goes to slasher",
          "_teleBTC": "Address of teleBTC contract"
        }
      },
      "getLockedCollateralPoolTokenAmount(address,uint256)": {
        "params": {
          "_index": "Index of the request in user's request list",
          "_user": "Address of the user"
        },
        "returns": {
          "_0": "Amount of locked collateral pool token (not collateral token)"
        }
      },
      "getUserRequestDeadline(address,uint256)": {
        "params": {
          "_index": "Index of the request in user's request list",
          "_user": "Address of the user"
        },
        "returns": {
          "_0": "Deadline of that request"
        }
      },
      "getUserRequestsLength(address)": {
        "params": {
          "_user": "Address of the user"
        },
        "returns": {
          "_0": "The total number of user's requests"
        }
      },
      "instantCCExchange(address,address,uint256,uint256,address[],uint256,address,bool)": {
        "details": "Locks the required collateral amount of the user. Only works when contract is not paused.",
        "params": {
          "_amountOut": "Amount of the output token",
          "_collateralToken": "Address of collateral token",
          "_deadline": "Deadline for getting the loan",
          "_exchangeConnector": "Address of exchange connector that user wants to exchange the borrowed teleBTC in it",
          "_isFixedToken": "Shows whether input or output is fixed in exchange",
          "_loanAmount": "Amount of the loan",
          "_path": "Path of exchanging tokens",
          "_receiver": "Address of the loan receiver"
        },
        "returns": {
          "_amounts": "         Amounts of tokens involved in the exchange"
        }
      },
      "instantCCTransfer(address,uint256,uint256,address)": {
        "details": "Transfes required collateral pool token of user to itself. Only works when contract is not paused.",
        "params": {
          "_collateralToken": "Address of the collateral token",
          "_deadline": "Deadline for getting the loan",
          "_loanAmount": "Amount of the loan",
          "_receiver": "Address of the loan receiver"
        },
        "returns": {
          "_0": "True if getting loan was successful"
        }
      },
      "owner()": {
        "details": "Returns the address of the current owner."
      },
      "paused()": {
        "details": "Returns true if the contract is paused, and false otherwise."
      },
      "payBackLoan(address,uint256)": {
        "details": "Caller should give allowance for teleBTC to instant router",
        "params": {
          "_teleBTCAmount": "Amount of available teleBTC to pay back loans",
          "_user": "Address of user who wants to pay back loans"
        },
        "returns": {
          "_0": "True if paying back is successful"
        }
      },
      "renounceOwnership()": {
        "details": "Leaves the contract without owner. It will not be possible to call `onlyOwner` functions anymore. Can only be called by the current owner. NOTE: Renouncing ownership will leave the contract without an owner, thereby removing any functionality that is only available to the owner."
      },
      "setCollateralPoolFactory(address)": {
        "details": "Only owner can call this",
        "params": {
          "_collateralPoolFactory": "The new collateral pool factory address"
        }
      },
      "setDefaultExchangeConnector(address)": {
        "details": "Only owner can call this",
        "params": {
          "_defaultExchangeConnector": "The new defaultExchangeConnector address"
        }
      },
      "setPaybackDeadline(uint256)": {
        "details": "Only owner can call this. It should be greater than relay finalization parameter so user has enough time to payback loan",
        "params": {
          "_paybackDeadline": "The new payback deadline"
        }
      },
      "setPriceOracle(address)": {
        "details": "Only owner can call this",
        "params": {
          "_priceOracle": "The new price oracle address"
        }
      },
      "setRelay(address)": {
        "details": "Only owner can call this",
        "params": {
          "_relay": "The new relay address"
        }
      },
      "setSlasherPercentageReward(uint256)": {
        "details": "Only owner can call this",
        "params": {
          "_slasherPercentageReward": "The new slasher reward"
        }
      },
      "setTeleBTC(address)": {
        "details": "Only owner can call this",
        "params": {
          "_teleBTC": "The new teleBTC address"
        }
      },
      "setTeleBTCInstantPool(address)": {
        "details": "Only owner can call this",
        "params": {
          "_teleBTCInstantPool": "The new teleBTC instant pool address"
        }
      },
      "slashUser(address,uint256)": {
        "details": "Buys teleBTC using the collateral and sends it to instant pool",
        "params": {
          "_requestIndex": "Index of the request that have not been paid back before deadline",
          "_user": "Address of the slashed user"
        },
        "returns": {
          "_0": "True if slashing is successful"
        }
      },
      "transferOwnership(address)": {
        "details": "Transfers ownership of the contract to a new account (`newOwner`). Can only be called by the current owner."
      }
    },
    "version": 1
  },
  "userdoc": {
    "events": {
      "InstantExchange(address,address,uint256,uint256,uint256,address[],bool,uint256,address,uint256,uint256)": {
        "notice": "Emits when a user gets loan for exchange"
      },
      "InstantTransfer(address,address,uint256,uint256,uint256,address,uint256,uint256)": {
        "notice": "Emits when a user gets loan for transfer"
      },
      "NewCollateralPoolFactory(address,address)": {
        "notice": "Emits when changes made to collateral pool factory address"
      },
      "NewDeafultExchangeConnector(address,address)": {
        "notice": "Emits when changes made to default exchange connector address"
      },
      "NewPaybackDeadline(uint256,uint256)": {
        "notice": "Emits when changes made to payback deadline"
      },
      "NewPriceOracle(address,address)": {
        "notice": "Emits when changes made to price oracle address"
      },
      "NewRelay(address,address)": {
        "notice": "Emits when changes made to relay address"
      },
      "NewSlasherPercentageReward(uint256,uint256)": {
        "notice": "Emits when changes made to slasher percentage reward"
      },
      "NewTeleBTC(address,address)": {
        "notice": "Emits when changes made to TeleBTC address"
      },
      "NewTeleBTCInstantPool(address,address)": {
        "notice": "Emits when changes made to TeleBTC instant pool address"
      },
      "PaybackLoan(address,uint256,address,uint256,uint256)": {
        "notice": "Emits when a loan gets paid back"
      },
      "SlashUser(address,address,uint256,uint256,address,uint256,uint256)": {
        "notice": "Emits when a user gets slashed"
      }
    },
    "kind": "user",
    "methods": {
      "constructor": {
        "notice": "This contract handles instant transfer and instant exchange requests"
      },
      "getLockedCollateralPoolTokenAmount(address,uint256)": {
        "notice": "Gives the locked collateral pool token corresponding to a request"
      },
      "getUserRequestDeadline(address,uint256)": {
        "notice": "Gives deadline of a specefic request"
      },
      "getUserRequestsLength(address)": {
        "notice": "Gives the total number of user's unpaid loans"
      },
      "instantCCExchange(address,address,uint256,uint256,address[],uint256,address,bool)": {
        "notice": "Exchanges the loan amount (in teleBTC) for the user"
      },
      "instantCCTransfer(address,uint256,uint256,address)": {
        "notice": "Transfers the loan amount (in teleBTC) to the user"
      },
      "pause()": {
        "notice": "Pause the contract"
      },
      "payBackLoan(address,uint256)": {
        "notice": "Settles loans of the user"
      },
      "setCollateralPoolFactory(address)": {
        "notice": "Setter for collateral pool factory"
      },
      "setDefaultExchangeConnector(address)": {
        "notice": "Setter for default exchange connector"
      },
      "setPaybackDeadline(uint256)": {
        "notice": "Setter for payback deadline"
      },
      "setPriceOracle(address)": {
        "notice": "Setter for price oracle"
      },
      "setRelay(address)": {
        "notice": "Setter for relay"
      },
      "setSlasherPercentageReward(uint256)": {
        "notice": "Setter for slasher percentage reward"
      },
      "setTeleBTC(address)": {
        "notice": "Setter for teleBTC"
      },
      "setTeleBTCInstantPool(address)": {
        "notice": "Setter for teleBTC instant pool"
      },
      "slashUser(address,uint256)": {
        "notice": "Slashes collateral of user who did not pay back loan before its deadline"
      },
      "unpause()": {
        "notice": "Unpause the contract"
      }
    },
    "version": 1
  },
  "storageLayout": {
    "storage": [
      {
        "astId": 807,
        "contract": "contracts/routers/InstantRouter.sol:InstantRouter",
        "label": "_owner",
        "offset": 0,
        "slot": "0",
        "type": "t_address"
      },
      {
        "astId": 1634,
        "contract": "contracts/routers/InstantRouter.sol:InstantRouter",
        "label": "_status",
        "offset": 0,
        "slot": "1",
        "type": "t_uint256"
      },
      {
        "astId": 1549,
        "contract": "contracts/routers/InstantRouter.sol:InstantRouter",
        "label": "_paused",
        "offset": 0,
        "slot": "2",
        "type": "t_bool"
      },
      {
        "astId": 21246,
        "contract": "contracts/routers/InstantRouter.sol:InstantRouter",
        "label": "instantRequests",
        "offset": 0,
        "slot": "3",
        "type": "t_mapping(t_address,t_array(t_struct(instantRequest)23424_storage)dyn_storage)"
      },
      {
        "astId": 21250,
        "contract": "contracts/routers/InstantRouter.sol:InstantRouter",
        "label": "instantRequestCounter",
        "offset": 0,
        "slot": "4",
        "type": "t_mapping(t_address,t_uint256)"
      },
      {
        "astId": 21253,
        "contract": "contracts/routers/InstantRouter.sol:InstantRouter",
        "label": "slasherPercentageReward",
        "offset": 0,
        "slot": "5",
        "type": "t_uint256"
      },
      {
        "astId": 21256,
        "contract": "contracts/routers/InstantRouter.sol:InstantRouter",
        "label": "paybackDeadline",
        "offset": 0,
        "slot": "6",
        "type": "t_uint256"
      },
      {
        "astId": 21259,
        "contract": "contracts/routers/InstantRouter.sol:InstantRouter",
        "label": "teleBTC",
        "offset": 0,
        "slot": "7",
        "type": "t_address"
      },
      {
        "astId": 21262,
        "contract": "contracts/routers/InstantRouter.sol:InstantRouter",
        "label": "teleBTCInstantPool",
        "offset": 0,
        "slot": "8",
        "type": "t_address"
      },
      {
        "astId": 21265,
        "contract": "contracts/routers/InstantRouter.sol:InstantRouter",
        "label": "relay",
        "offset": 0,
        "slot": "9",
        "type": "t_address"
      },
      {
        "astId": 21268,
        "contract": "contracts/routers/InstantRouter.sol:InstantRouter",
        "label": "priceOracle",
        "offset": 0,
        "slot": "10",
        "type": "t_address"
      },
      {
        "astId": 21271,
        "contract": "contracts/routers/InstantRouter.sol:InstantRouter",
        "label": "collateralPoolFactory",
        "offset": 0,
        "slot": "11",
        "type": "t_address"
      },
      {
        "astId": 21274,
        "contract": "contracts/routers/InstantRouter.sol:InstantRouter",
        "label": "defaultExchangeConnector",
        "offset": 0,
        "slot": "12",
        "type": "t_address"
      }
    ],
    "types": {
      "t_address": {
        "encoding": "inplace",
        "label": "address",
        "numberOfBytes": "20"
      },
      "t_array(t_struct(instantRequest)23424_storage)dyn_storage": {
        "base": "t_struct(instantRequest)23424_storage",
        "encoding": "dynamic_array",
        "label": "struct IInstantRouter.instantRequest[]",
        "numberOfBytes": "32"
      },
      "t_bool": {
        "encoding": "inplace",
        "label": "bool",
        "numberOfBytes": "1"
      },
      "t_mapping(t_address,t_array(t_struct(instantRequest)23424_storage)dyn_storage)": {
        "encoding": "mapping",
        "key": "t_address",
        "label": "mapping(address => struct IInstantRouter.instantRequest[])",
        "numberOfBytes": "32",
        "value": "t_array(t_struct(instantRequest)23424_storage)dyn_storage"
      },
      "t_mapping(t_address,t_uint256)": {
        "encoding": "mapping",
        "key": "t_address",
        "label": "mapping(address => uint256)",
        "numberOfBytes": "32",
        "value": "t_uint256"
      },
      "t_struct(instantRequest)23424_storage": {
        "encoding": "inplace",
        "label": "struct IInstantRouter.instantRequest",
        "members": [
          {
            "astId": 23411,
            "contract": "contracts/routers/InstantRouter.sol:InstantRouter",
            "label": "user",
            "offset": 0,
            "slot": "0",
            "type": "t_address"
          },
          {
            "astId": 23413,
            "contract": "contracts/routers/InstantRouter.sol:InstantRouter",
            "label": "collateralPool",
            "offset": 0,
            "slot": "1",
            "type": "t_address"
          },
          {
            "astId": 23415,
            "contract": "contracts/routers/InstantRouter.sol:InstantRouter",
            "label": "collateralToken",
            "offset": 0,
            "slot": "2",
            "type": "t_address"
          },
          {
            "astId": 23417,
            "contract": "contracts/routers/InstantRouter.sol:InstantRouter",
            "label": "paybackAmount",
            "offset": 0,
            "slot": "3",
            "type": "t_uint256"
          },
          {
            "astId": 23419,
            "contract": "contracts/routers/InstantRouter.sol:InstantRouter",
            "label": "lockedCollateralPoolTokenAmount",
            "offset": 0,
            "slot": "4",
            "type": "t_uint256"
          },
          {
            "astId": 23421,
            "contract": "contracts/routers/InstantRouter.sol:InstantRouter",
            "label": "deadline",
            "offset": 0,
            "slot": "5",
            "type": "t_uint256"
          },
          {
            "astId": 23423,
            "contract": "contracts/routers/InstantRouter.sol:InstantRouter",
            "label": "requestCounterOfUser",
            "offset": 0,
            "slot": "6",
            "type": "t_uint256"
          }
        ],
        "numberOfBytes": "224"
      },
      "t_uint256": {
        "encoding": "inplace",
        "label": "uint256",
        "numberOfBytes": "32"
      }
    }
  }
}