{
  "address": "0x2d61C159A1ceB63845bcB61DD963ba0d6bA915a7",
  "abi": [
    {
      "inputs": [
        {
          "internalType": "address",
          "name": "_teleBTC",
          "type": "address"
        },
        {
          "internalType": "address",
          "name": "_relay",
          "type": "address"
        },
        {
          "internalType": "address",
          "name": "_priceOracle",
          "type": "address"
        },
        {
          "internalType": "address",
          "name": "_collateralPoolFactory",
          "type": "address"
        },
        {
          "internalType": "uint256",
          "name": "_slasherPercentageReward",
          "type": "uint256"
        },
        {
          "internalType": "uint256",
          "name": "_paybackDeadline",
          "type": "uint256"
        },
        {
          "internalType": "address",
          "name": "_defaultExchangeConnector",
          "type": "address"
        }
      ],
      "stateMutability": "nonpayable",
      "type": "constructor"
    },
    {
      "anonymous": false,
      "inputs": [
        {
          "indexed": true,
          "internalType": "address",
          "name": "user",
          "type": "address"
        },
        {
          "indexed": false,
          "internalType": "address",
          "name": "receiver",
          "type": "address"
        },
        {
          "indexed": false,
          "internalType": "uint256",
          "name": "loanAmount",
          "type": "uint256"
        },
        {
          "indexed": false,
          "internalType": "uint256",
          "name": "instantFee",
          "type": "uint256"
        },
        {
          "indexed": false,
          "internalType": "uint256",
          "name": "amountOut",
          "type": "uint256"
        },
        {
          "indexed": false,
          "internalType": "address[]",
          "name": "path",
          "type": "address[]"
        },
        {
          "indexed": false,
          "internalType": "bool",
          "name": "isFixed",
          "type": "bool"
        },
        {
          "indexed": true,
          "internalType": "uint256",
          "name": "deadline",
          "type": "uint256"
        },
        {
          "indexed": true,
          "internalType": "address",
          "name": "collateralToken",
          "type": "address"
        },
        {
          "indexed": false,
          "internalType": "uint256",
          "name": "lockedCollateralPoolToken",
          "type": "uint256"
        },
        {
          "indexed": false,
          "internalType": "uint256",
          "name": "requestCounterOfUser",
          "type": "uint256"
        }
      ],
      "name": "InstantExchange",
      "type": "event"
    },
    {
      "anonymous": false,
      "inputs": [
        {
          "indexed": true,
          "internalType": "address",
          "name": "user",
          "type": "address"
        },
        {
          "indexed": false,
          "internalType": "address",
          "name": "receiver",
          "type": "address"
        },
        {
          "indexed": false,
          "internalType": "uint256",
          "name": "loanAmount",
          "type": "uint256"
        },
        {
          "indexed": false,
          "internalType": "uint256",
          "name": "instantFee",
          "type": "uint256"
        },
        {
          "indexed": true,
          "internalType": "uint256",
          "name": "deadline",
          "type": "uint256"
        },
        {
          "indexed": true,
          "internalType": "address",
          "name": "collateralToken",
          "type": "address"
        },
        {
          "indexed": false,
          "internalType": "uint256",
          "name": "lockedCollateralPoolToken",
          "type": "uint256"
        },
        {
          "indexed": false,
          "internalType": "uint256",
          "name": "requestCounterOfUser",
          "type": "uint256"
        }
      ],
      "name": "InstantTransfer",
      "type": "event"
    },
    {
      "anonymous": false,
      "inputs": [
        {
          "indexed": true,
          "internalType": "address",
          "name": "previousOwner",
          "type": "address"
        },
        {
          "indexed": true,
          "internalType": "address",
          "name": "newOwner",
          "type": "address"
        }
      ],
      "name": "OwnershipTransferred",
      "type": "event"
    },
    {
      "anonymous": false,
      "inputs": [
        {
          "indexed": false,
          "internalType": "address",
          "name": "account",
          "type": "address"
        }
      ],
      "name": "Paused",
      "type": "event"
    },
    {
      "anonymous": false,
      "inputs": [
        {
          "indexed": true,
          "internalType": "address",
          "name": "user",
          "type": "address"
        },
        {
          "indexed": false,
          "internalType": "uint256",
          "name": "paybackAmount",
          "type": "uint256"
        },
        {
          "indexed": true,
          "internalType": "address",
          "name": "collateralToken",
          "type": "address"
        },
        {
          "indexed": false,
          "internalType": "uint256",
          "name": "lockedCollateralPoolToken",
          "type": "uint256"
        },
        {
          "indexed": false,
          "internalType": "uint256",
          "name": "requestCounterOfUser",
          "type": "uint256"
        }
      ],
      "name": "PaybackLoan",
      "type": "event"
    },
    {
      "anonymous": false,
      "inputs": [
        {
          "indexed": true,
          "internalType": "address",
          "name": "user",
          "type": "address"
        },
        {
          "indexed": true,
          "internalType": "address",
          "name": "collateralToken",
          "type": "address"
        },
        {
          "indexed": false,
          "internalType": "uint256",
          "name": "slashedAmount",
          "type": "uint256"
        },
        {
          "indexed": false,
          "internalType": "uint256",
          "name": "paybackAmount",
          "type": "uint256"
        },
        {
          "indexed": false,
          "internalType": "address",
          "name": "slasher",
          "type": "address"
        },
        {
          "indexed": false,
          "internalType": "uint256",
          "name": "slasherReward",
          "type": "uint256"
        },
        {
          "indexed": false,
          "internalType": "uint256",
          "name": "requestCounterOfUser",
          "type": "uint256"
        }
      ],
      "name": "SlashUser",
      "type": "event"
    },
    {
      "anonymous": false,
      "inputs": [
        {
          "indexed": false,
          "internalType": "address",
          "name": "account",
          "type": "address"
        }
      ],
      "name": "Unpaused",
      "type": "event"
    },
    {
      "inputs": [],
      "name": "collateralPoolFactory",
      "outputs": [
        {
          "internalType": "address",
          "name": "",
          "type": "address"
        }
      ],
      "stateMutability": "view",
      "type": "function"
    },
    {
      "inputs": [],
      "name": "defaultExchangeConnector",
      "outputs": [
        {
          "internalType": "address",
          "name": "",
          "type": "address"
        }
      ],
      "stateMutability": "view",
      "type": "function"
    },
    {
      "inputs": [
        {
          "internalType": "address",
          "name": "_user",
          "type": "address"
        },
        {
          "internalType": "uint256",
          "name": "_index",
          "type": "uint256"
        }
      ],
      "name": "getLockedCollateralPoolTokenAmount",
      "outputs": [
        {
          "internalType": "uint256",
          "name": "",
          "type": "uint256"
        }
      ],
      "stateMutability": "view",
      "type": "function"
    },
    {
      "inputs": [
        {
          "internalType": "address",
          "name": "_user",
          "type": "address"
        },
        {
          "internalType": "uint256",
          "name": "_index",
          "type": "uint256"
        }
      ],
      "name": "getUserRequestDeadline",
      "outputs": [
        {
          "internalType": "uint256",
          "name": "",
          "type": "uint256"
        }
      ],
      "stateMutability": "view",
      "type": "function"
    },
    {
      "inputs": [
        {
          "internalType": "address",
          "name": "_user",
          "type": "address"
        }
      ],
      "name": "getUserRequestsLength",
      "outputs": [
        {
          "internalType": "uint256",
          "name": "",
          "type": "uint256"
        }
      ],
      "stateMutability": "view",
      "type": "function"
    },
    {
      "inputs": [
        {
          "internalType": "address",
          "name": "_exchangeConnector",
          "type": "address"
        },
        {
          "internalType": "address",
          "name": "_receiver",
          "type": "address"
        },
        {
          "internalType": "uint256",
          "name": "_loanAmount",
          "type": "uint256"
        },
        {
          "internalType": "uint256",
          "name": "_amountOut",
          "type": "uint256"
        },
        {
          "internalType": "address[]",
          "name": "_path",
          "type": "address[]"
        },
        {
          "internalType": "uint256",
          "name": "_deadline",
          "type": "uint256"
        },
        {
          "internalType": "address",
          "name": "_collateralToken",
          "type": "address"
        },
        {
          "internalType": "bool",
          "name": "_isFixedToken",
          "type": "bool"
        }
      ],
      "name": "instantCCExchange",
      "outputs": [
        {
          "internalType": "uint256[]",
          "name": "_amounts",
          "type": "uint256[]"
        }
      ],
      "stateMutability": "nonpayable",
      "type": "function"
    },
    {
      "inputs": [
        {
          "internalType": "address",
          "name": "_receiver",
          "type": "address"
        },
        {
          "internalType": "uint256",
          "name": "_loanAmount",
          "type": "uint256"
        },
        {
          "internalType": "uint256",
          "name": "_deadline",
          "type": "uint256"
        },
        {
          "internalType": "address",
          "name": "_collateralToken",
          "type": "address"
        }
      ],
      "name": "instantCCTransfer",
      "outputs": [
        {
          "internalType": "bool",
          "name": "",
          "type": "bool"
        }
      ],
      "stateMutability": "nonpayable",
      "type": "function"
    },
    {
      "inputs": [
        {
          "internalType": "address",
          "name": "",
          "type": "address"
        }
      ],
      "name": "instantRequestCounter",
      "outputs": [
        {
          "internalType": "uint256",
          "name": "",
          "type": "uint256"
        }
      ],
      "stateMutability": "view",
      "type": "function"
    },
    {
      "inputs": [
        {
          "internalType": "address",
          "name": "",
          "type": "address"
        },
        {
          "internalType": "uint256",
          "name": "",
          "type": "uint256"
        }
      ],
      "name": "instantRequests",
      "outputs": [
        {
          "internalType": "address",
          "name": "user",
          "type": "address"
        },
        {
          "internalType": "address",
          "name": "collateralPool",
          "type": "address"
        },
        {
          "internalType": "address",
          "name": "collateralToken",
          "type": "address"
        },
        {
          "internalType": "uint256",
          "name": "paybackAmount",
          "type": "uint256"
        },
        {
          "internalType": "uint256",
          "name": "lockedCollateralPoolTokenAmount",
          "type": "uint256"
        },
        {
          "internalType": "uint256",
          "name": "deadline",
          "type": "uint256"
        },
        {
          "internalType": "uint256",
          "name": "requestCounterOfUser",
          "type": "uint256"
        }
      ],
      "stateMutability": "view",
      "type": "function"
    },
    {
      "inputs": [],
      "name": "owner",
      "outputs": [
        {
          "internalType": "address",
          "name": "",
          "type": "address"
        }
      ],
      "stateMutability": "view",
      "type": "function"
    },
    {
      "inputs": [],
      "name": "pause",
      "outputs": [],
      "stateMutability": "nonpayable",
      "type": "function"
    },
    {
      "inputs": [],
      "name": "paused",
      "outputs": [
        {
          "internalType": "bool",
          "name": "",
          "type": "bool"
        }
      ],
      "stateMutability": "view",
      "type": "function"
    },
    {
      "inputs": [
        {
          "internalType": "address",
          "name": "_user",
          "type": "address"
        },
        {
          "internalType": "uint256",
          "name": "_teleBTCAmount",
          "type": "uint256"
        }
      ],
      "name": "payBackLoan",
      "outputs": [
        {
          "internalType": "bool",
          "name": "",
          "type": "bool"
        }
      ],
      "stateMutability": "nonpayable",
      "type": "function"
    },
    {
      "inputs": [],
      "name": "paybackDeadline",
      "outputs": [
        {
          "internalType": "uint256",
          "name": "",
          "type": "uint256"
        }
      ],
      "stateMutability": "view",
      "type": "function"
    },
    {
      "inputs": [],
      "name": "priceOracle",
      "outputs": [
        {
          "internalType": "address",
          "name": "",
          "type": "address"
        }
      ],
      "stateMutability": "view",
      "type": "function"
    },
    {
      "inputs": [],
      "name": "relay",
      "outputs": [
        {
          "internalType": "address",
          "name": "",
          "type": "address"
        }
      ],
      "stateMutability": "view",
      "type": "function"
    },
    {
      "inputs": [],
      "name": "renounceOwnership",
      "outputs": [],
      "stateMutability": "nonpayable",
      "type": "function"
    },
    {
      "inputs": [
        {
          "internalType": "address",
          "name": "_collateralPoolFactory",
          "type": "address"
        }
      ],
      "name": "setCollateralPoolFactory",
      "outputs": [],
      "stateMutability": "nonpayable",
      "type": "function"
    },
    {
      "inputs": [
        {
          "internalType": "address",
          "name": "_defaultExchangeConnector",
          "type": "address"
        }
      ],
      "name": "setDefaultExchangeConnector",
      "outputs": [],
      "stateMutability": "nonpayable",
      "type": "function"
    },
    {
      "inputs": [
        {
          "internalType": "uint256",
          "name": "_paybackDeadline",
          "type": "uint256"
        }
      ],
      "name": "setPaybackDeadline",
      "outputs": [],
      "stateMutability": "nonpayable",
      "type": "function"
    },
    {
      "inputs": [
        {
          "internalType": "address",
          "name": "_priceOracle",
          "type": "address"
        }
      ],
      "name": "setPriceOracle",
      "outputs": [],
      "stateMutability": "nonpayable",
      "type": "function"
    },
    {
      "inputs": [
        {
          "internalType": "address",
          "name": "_relay",
          "type": "address"
        }
      ],
      "name": "setRelay",
      "outputs": [],
      "stateMutability": "nonpayable",
      "type": "function"
    },
    {
      "inputs": [
        {
          "internalType": "uint256",
          "name": "_slasherPercentageReward",
          "type": "uint256"
        }
      ],
      "name": "setSlasherPercentageReward",
      "outputs": [],
      "stateMutability": "nonpayable",
      "type": "function"
    },
    {
      "inputs": [
        {
          "internalType": "address",
          "name": "_teleBTC",
          "type": "address"
        }
      ],
      "name": "setTeleBTC",
      "outputs": [],
      "stateMutability": "nonpayable",
      "type": "function"
    },
    {
      "inputs": [
        {
          "internalType": "address",
          "name": "_teleBTCInstantPool",
          "type": "address"
        }
      ],
      "name": "setTeleBTCInstantPool",
      "outputs": [],
      "stateMutability": "nonpayable",
      "type": "function"
    },
    {
      "inputs": [
        {
          "internalType": "address",
          "name": "_user",
          "type": "address"
        },
        {
          "internalType": "uint256",
          "name": "_requestIndex",
          "type": "uint256"
        }
      ],
      "name": "slashUser",
      "outputs": [
        {
          "internalType": "bool",
          "name": "",
          "type": "bool"
        }
      ],
      "stateMutability": "nonpayable",
      "type": "function"
    },
    {
      "inputs": [],
      "name": "slasherPercentageReward",
      "outputs": [
        {
          "internalType": "uint256",
          "name": "",
          "type": "uint256"
        }
      ],
      "stateMutability": "view",
      "type": "function"
    },
    {
      "inputs": [],
      "name": "teleBTC",
      "outputs": [
        {
          "internalType": "address",
          "name": "",
          "type": "address"
        }
      ],
      "stateMutability": "view",
      "type": "function"
    },
    {
      "inputs": [],
      "name": "teleBTCInstantPool",
      "outputs": [
        {
          "internalType": "address",
          "name": "",
          "type": "address"
        }
      ],
      "stateMutability": "view",
      "type": "function"
    },
    {
      "inputs": [
        {
          "internalType": "address",
          "name": "newOwner",
          "type": "address"
        }
      ],
      "name": "transferOwnership",
      "outputs": [],
      "stateMutability": "nonpayable",
      "type": "function"
    },
    {
      "inputs": [],
      "name": "unpause",
      "outputs": [],
      "stateMutability": "nonpayable",
      "type": "function"
    },
    {
      "stateMutability": "payable",
      "type": "receive"
    }
  ],
  "transactionHash": "0xe18a5d8d06bc2a3baf88701473151d5be4406e1209029447ae656a780d69dd60",
  "args": [
    "0x14C91369635Fe44580cA45F1ec7D7192B8E6725A",
    "0x875B51a2993d6ef1314a080361455945b3b1fB42",
    "0x76D0155ca88dDF4053Cf8793230eBA5401B67A01",
    "0xfE25dfeb22f5Afd785a120ed1C9dD367DdAdfCD0",
    10,
    12,
    "0x6B683B4a5b9dd44978fC7e0B4A25671EA3AD6FEE"
  ],
  "numDeployments": 1,
  "solcInputHash": "2f4444dfe6cd424b86e802bfeabf20d4",
  "bytecode": "0x60806040523480156200001157600080fd5b5060405162003c7b38038062003c7b8339810160408190526200003491620001a8565b6200003f336200013b565b600180556002805460ff19169055600780546001600160a01b03808a166001600160a01b03199283161790925560098054898416908316179055600a8054888416908316179055600b80549287169290911691909117905560058390556127108311156200010a5760405162461bcd60e51b815260206004820152602e60248201527f496e7374616e74526f757465723a2077726f6e6720736c61736865722070657260448201526d18d95b9d1859d9481c995dd85c9960921b606482015260840160405180910390fd5b600691909155600c80546001600160a01b0319166001600160a01b03909216919091179055506200022a9350505050565b600080546001600160a01b038381166001600160a01b0319831681178455604051919092169283917f8be0079c531659141344cd1fd0a4f28419497f9722a3daafe3b4186f6b6457e09190a35050565b80516001600160a01b0381168114620001a357600080fd5b919050565b600080600080600080600060e0888a031215620001c3578283fd5b620001ce886200018b565b9650620001de602089016200018b565b9550620001ee604089016200018b565b9450620001fe606089016200018b565b93506080880151925060a088015191506200021c60c089016200018b565b905092959891949750929550565b613a41806200023a6000396000f3fe6080604052600436106101dc5760003560e01c80636dd3d589116101025780638da5cb5b11610095578063c805f68b11610064578063c805f68b146105a2578063d7aa5e7a146105c2578063db1cb558146105e2578063f2fde38b14610602576101e3565b80638da5cb5b146104e857806397091b8914610506578063a36be9a11461056c578063b59589d114610582576101e3565b806378b58675116100d157806378b58675146104735780637f0f1817146104935780638456cb59146104b35780638d3d78cd146104c8576101e3565b80636dd3d589146103f15780636f6ef7c914610411578063715018a61461043e578063763360db14610453576101e3565b80634782bc361161017a5780635c975abb116101495780635c975abb1461036057806369539c7014610384578063697380b2146103a45780636b7b3719146103c4576101e3565b80634782bc36146102e05780634cf46825146103005780634d61878e14610320578063530e784f14610340576101e3565b8063387bb22d116101b6578063387bb22d146102675780633f4ba83a14610295578063419cba7f146102aa57806346e897fd146102c0576101e3565b8063059d0238146101e85780631c9d583c1461020a5780632630c12f1461022a576101e3565b366101e357005b600080fd5b3480156101f457600080fd5b5061020861020336600461339b565b610622565b005b34801561021657600080fd5b5061020861022536600461339b565b61069f565b34801561023657600080fd5b50600a5461024a906001600160a01b031681565b6040516001600160a01b0390911681526020015b60405180910390f35b34801561027357600080fd5b5061028761028236600461339b565b610713565b60405190815260200161025e565b3480156102a157600080fd5b50610208610732565b3480156102b657600080fd5b5061028760055481565b3480156102cc57600080fd5b5060085461024a906001600160a01b031681565b3480156102ec57600080fd5b506102086102fb366004613643565b610766565b34801561030c57600080fd5b5061020861031b366004613643565b6107fe565b34801561032c57600080fd5b5061028761033b3660046134df565b61090b565b34801561034c57600080fd5b5061020861035b36600461339b565b6109c4565b34801561036c57600080fd5b5060025460ff165b604051901515815260200161025e565b34801561039057600080fd5b5061028761039f3660046134df565b610a38565b3480156103b057600080fd5b506103746103bf36600461350a565b610af1565b3480156103d057600080fd5b506102876103df36600461339b565b60046020526000908152604090205481565b3480156103fd57600080fd5b5061020861040c36600461339b565b610eac565b34801561041d57600080fd5b5061043161042c3660046133da565b610f20565b60405161025e919061372c565b34801561044a57600080fd5b506102086114b0565b34801561045f57600080fd5b50600b5461024a906001600160a01b031681565b34801561047f57600080fd5b5061037461048e3660046134df565b6114e4565b34801561049f57600080fd5b506102086104ae36600461339b565b611fdb565b3480156104bf57600080fd5b5061020861204f565b3480156104d457600080fd5b5060075461024a906001600160a01b031681565b3480156104f457600080fd5b506000546001600160a01b031661024a565b34801561051257600080fd5b506105266105213660046134df565b612081565b604080516001600160a01b039889168152968816602088015294909616938501939093526060840191909152608083015260a082015260c081019190915260e00161025e565b34801561057857600080fd5b5061028760065481565b34801561058e57600080fd5b5060095461024a906001600160a01b031681565b3480156105ae57600080fd5b506102086105bd36600461339b565b6120ea565b3480156105ce57600080fd5b50600c5461024a906001600160a01b031681565b3480156105ee57600080fd5b506103746105fd3660046134df565b61215e565b34801561060e57600080fd5b5061020861061d36600461339b565b612824565b806001600160a01b0381166106525760405162461bcd60e51b815260040161064990613770565b60405180910390fd5b6000546001600160a01b0316331461067c5760405162461bcd60e51b815260040161064990613813565b50600880546001600160a01b0319166001600160a01b0392909216919091179055565b806001600160a01b0381166106c65760405162461bcd60e51b815260040161064990613770565b6000546001600160a01b031633146106f05760405162461bcd60e51b815260040161064990613813565b50600c80546001600160a01b0319166001600160a01b0392909216919091179055565b6001600160a01b0381166000908152600360205260409020545b919050565b6000546001600160a01b0316331461075c5760405162461bcd60e51b815260040161064990613813565b6107646128bf565b565b6000546001600160a01b031633146107905760405162461bcd60e51b815260040161064990613813565b6127108111156107f95760405162461bcd60e51b815260206004820152602e60248201527f496e7374616e74526f757465723a2077726f6e6720736c61736865722070657260448201526d18d95b9d1859d9481c995dd85c9960921b6064820152608401610649565b600555565b6000546001600160a01b031633146108285760405162461bcd60e51b815260040161064990613813565b60095460408051630a072bc560e41b815290516000926001600160a01b03169163a072bc50916004808301926020929190829003018186803b15801561086d57600080fd5b505afa158015610881573d6000803e3d6000fd5b505050506040513d601f19601f820116820180604052508101906108a5919061365b565b9050808210156109055760405162461bcd60e51b815260206004820152602560248201527f496e7374616e74526f757465723a2077726f6e67207061796261636b20646561604482015264646c696e6560d81b6064820152608401610649565b50600655565b6001600160a01b03821660009081526003602052604081205482106109725760405162461bcd60e51b815260206004820152601a60248201527f496e7374616e74526f757465723a2077726f6e6720696e6465780000000000006044820152606401610649565b6001600160a01b03831660009081526003602052604090208054839081106109aa57634e487b7160e01b600052603260045260246000fd5b906000526020600020906007020160050154905092915050565b806001600160a01b0381166109eb5760405162461bcd60e51b815260040161064990613770565b6000546001600160a01b03163314610a155760405162461bcd60e51b815260040161064990613813565b50600a80546001600160a01b0319166001600160a01b0392909216919091179055565b6001600160a01b0382166000908152600360205260408120548210610a9f5760405162461bcd60e51b815260206004820152601a60248201527f496e7374616e74526f757465723a2077726f6e6720696e6465780000000000006044820152606401610649565b6001600160a01b0383166000908152600360205260409020805483908110610ad757634e487b7160e01b600052603260045260246000fd5b906000526020600020906007020160040154905092915050565b600060026001541415610b165760405162461bcd60e51b815260040161064990613848565b6002600155846001600160a01b038116610b425760405162461bcd60e51b815260040161064990613770565b826001600160a01b038116610b695760405162461bcd60e51b815260040161064990613770565b60025460ff1615610b8c5760405162461bcd60e51b8152600401610649906137a7565b42851015610bac5760405162461bcd60e51b8152600401610649906137d1565b600854604051633f3b917d60e21b8152600481018890526000916001600160a01b03169063fcee45f49060240160206040518083038186803b158015610bf157600080fd5b505afa158015610c05573d6000803e3d6000fd5b505050506040513d601f19601f82011682018060405250810190610c29919061365b565b9050610c3f33610c39838a61391c565b87612952565b6008546040516350e28ac360e11b81526001600160a01b038a81166004830152602482018a90529091169063a1c5158690604401602060405180830381600087803b158015610c8d57600080fd5b505af1158015610ca1573d6000803e3d6000fd5b505050506040513d601f19601f82011682018060405250810190610cc59190613553565b5033600090815260036020526040902080546001600160a01b0387169190610cef90600190613973565b81548110610d0d57634e487b7160e01b600052603260045260246000fd5b906000526020600020906007020160050154610d263390565b6001600160a01b03167f78f6eb344326b271069e0b49a8b066463a9801e7056092522e83ef7b947f0c968b8b8660036000336001600160a01b03166001600160a01b03168152602001908152602001600020600160036000610d853390565b6001600160a01b03168152602081019190915260400160002054610da99190613973565b81548110610dc757634e487b7160e01b600052603260045260246000fd5b90600052602060002090600702016004015460036000610de43390565b6001600160a01b03166001600160a01b03168152602001908152602001600020600160036000610e113390565b6001600160a01b03168152602081019190915260400160002054610e359190613973565b81548110610e5357634e487b7160e01b600052603260045260246000fd5b600091825260209182902060066007909202010154604080516001600160a01b039097168752918601949094528401919091526060830152608082015260a00160405180910390a4505060018080559695505050505050565b806001600160a01b038116610ed35760405162461bcd60e51b815260040161064990613770565b6000546001600160a01b03163314610efd5760405162461bcd60e51b815260040161064990613813565b50600b80546001600160a01b0319166001600160a01b0392909216919091179055565b606060026001541415610f455760405162461bcd60e51b815260040161064990613848565b6002600155886001600160a01b038116610f715760405162461bcd60e51b815260040161064990613770565b60025460ff1615610f945760405162461bcd60e51b8152600401610649906137a7565b42851015610fb45760405162461bcd60e51b8152600401610649906137d1565b60075486516001600160a01b03909116908790600090610fe457634e487b7160e01b600052603260045260246000fd5b60200260200101516001600160a01b0316148015611003575060018651115b61104f5760405162461bcd60e51b815260206004820152601e60248201527f496e7374616e74526f757465723a207061746820697320696e76616c696400006044820152606401610649565b600854604051633f3b917d60e21b8152600481018a90526000916001600160a01b03169063fcee45f49060240160206040518083038186803b15801561109457600080fd5b505afa1580156110a8573d6000803e3d6000fd5b505050506040513d601f19601f820116820180604052508101906110cc919061365b565b90506110dc33610c39838c61391c565b6008546040516350e28ac360e11b8152306004820152602481018b90526001600160a01b039091169063a1c5158690604401602060405180830381600087803b15801561112857600080fd5b505af115801561113c573d6000803e3d6000fd5b505050506040513d601f19601f820116820180604052508101906111609190613553565b5060075460405163095ea7b360e01b81526001600160a01b038d81166004830152602482018c90529091169063095ea7b390604401602060405180830381600087803b1580156111af57600080fd5b505af11580156111c3573d6000803e3d6000fd5b505050506040513d601f19601f820116820180604052508101906111e79190613553565b5060008b6001600160a01b031663b0bbcd888b8b8b8f8c8b6040518763ffffffff1660e01b81526004016112209695949392919061387f565b600060405180830381600087803b15801561123a57600080fd5b505af115801561124e573d6000803e3d6000fd5b505050506040513d6000823e601f3d908101601f19168201604052611276919081019061356f565b945090506001811515146112df5760405162461bcd60e51b815260206004820152602a60248201527f496e7374616e74526f757465723a2065786368616e676520776173206e6f74206044820152691cdd58d8d95cdcd99d5b60b21b6064820152608401610649565b33600090815260036020526040902080546001600160a01b038816919061130890600190613973565b8154811061132657634e487b7160e01b600052603260045260246000fd5b90600052602060002090600702016005015461133f3390565b6001600160a01b03167f420fb2c476199fbcc4a0ce247fea400eef537161a974799739298de5e80e33a98e8e878f8f8d60036000336001600160a01b03166001600160a01b031681526020019081526020016000206001600360006113a13390565b6001600160a01b031681526020810191909152604001600020546113c59190613973565b815481106113e357634e487b7160e01b600052603260045260246000fd5b906000526020600020906007020160040154600360006114003390565b6001600160a01b03166001600160a01b0316815260200190815260200160002060016003600061142d3390565b6001600160a01b031681526020810191909152604001600020546114519190613973565b8154811061146f57634e487b7160e01b600052603260045260246000fd5b9060005260206000209060070201600601546040516114959897969594939291906136d7565b60405180910390a45050600180555098975050505050505050565b6000546001600160a01b031633146114da5760405162461bcd60e51b815260040161064990613813565b6107646000613087565b6000600260015414156115095760405162461bcd60e51b815260040161064990613848565b6002600155826001600160a01b0381166115355760405162461bcd60e51b815260040161064990613770565b6001600160a01b03841660009081526003602052604090205483106115b05760405162461bcd60e51b815260206004820152602b60248201527f496e7374616e74526f757465723a207265717565737420696e64657820646f6560448201526a1cc81b9bdd08195e1a5cdd60aa1b6064820152608401610649565b600954604080516302f796d960e41b815290516000926001600160a01b031691632f796d90916004808301926020929190829003018186803b1580156115f557600080fd5b505afa158015611609573d6000803e3d6000fd5b505050506040513d601f19601f8201168201806040525081019061162d919061365b565b6001600160a01b0386166000908152600360205260409020805491925082918690811061166a57634e487b7160e01b600052603260045260246000fd5b906000526020600020906007020160050154106116dc5760405162461bcd60e51b815260206004820152602a60248201527f496e7374616e74526f757465723a20646561646c696e6520686173206e6f74206044820152691c185cdcd959081e595d60b21b6064820152608401610649565b6001600160a01b038516600090815260036020526040812080548690811061171457634e487b7160e01b600052603260045260246000fd5b600091825260208083206040805160e081018252600794850290920180546001600160a01b0390811684526001820154811694840194909452600281015484168383018190526003820154606085018190526004808401546080870152600584015460a087015260069093015460c0860152600c54965493516322620c1d60e21b815292830152602482015290831660448201529094508392909116906389883074906064016040805180830381600087803b1580156117d357600080fd5b505af11580156117e7573d6000803e3d6000fd5b505050506040513d601f19601f8201168201806040525081019061180b9190613616565b90925090506001821515146118765760405162461bcd60e51b815260206004820152602b60248201527f496e7374616e74526f757465723a206c697175696469747920706f6f6c20646f60448201526a195cdb89dd08195e1a5cdd60aa1b6064820152608401610649565b6020830151608084015160405163392f2ddd60e01b815260048101919091526000916001600160a01b03169063392f2ddd9060240160206040518083038186803b1580156118c357600080fd5b505afa1580156118d7573d6000803e3d6000fd5b505050506040513d601f19601f820116820180604052508101906118fb919061365b565b604080516002808252606082018352929350600092909160208301908036833701905050905084604001518160008151811061194757634e487b7160e01b600052603260045260246000fd5b6001600160a01b03928316602091820292909201015260075482519116908290600190811061198657634e487b7160e01b600052603260045260246000fd5b60200260200101906001600160a01b031690816001600160a01b03168152505084602001516001600160a01b0316633237c15886608001516040518263ffffffff1660e01b81526004016119dc91815260200190565b602060405180830381600087803b1580156119f657600080fd5b505af1158015611a0a573d6000803e3d6000fd5b505050506040513d601f19601f82011682018060405250810190611a2e9190613553565b50828210611e0c57604085810151600c54915163095ea7b360e01b81526001600160a01b0392831660048201526024810186905291169063095ea7b390604401602060405180830381600087803b158015611a8857600080fd5b505af1158015611a9c573d6000803e3d6000fd5b505050506040513d601f19601f82011682018060405250810190611ac09190613553565b50600c5460608601516008546001600160a01b039283169263b0bbcd889287929091869116611af042600161391c565b60006040518763ffffffff1660e01b8152600401611b139695949392919061387f565b600060405180830381600087803b158015611b2d57600080fd5b505af1158015611b41573d6000803e3d6000fd5b505050506040513d6000823e601f3d908101601f19168201604052611b69919081019061356f565b505060006127106005548585611b7f9190613973565b611b899190613954565b611b939190613934565b905085604001516001600160a01b031663a9059cbb611baf3390565b6040516001600160e01b031960e084901b1681526001600160a01b03909116600482015260248101849052604401602060405180830381600087803b158015611bf757600080fd5b505af1158015611c0b573d6000803e3d6000fd5b505050506040513d601f19601f82011682018060405250810190611c2f9190613553565b5060075460208701516001600160a01b039091169063095ea7b39083611c558888613973565b611c5f9190613973565b6040516001600160e01b031960e085901b1681526001600160a01b0390921660048301526024820152604401602060405180830381600087803b158015611ca557600080fd5b505af1158015611cb9573d6000803e3d6000fd5b505050506040513d601f19601f82011682018060405250810190611cdd9190613553565b5060208601516001600160a01b0316636d75b9ee8c83611cfd8888613973565b611d079190613973565b6040516001600160e01b031960e085901b1681526001600160a01b0390921660048301526024820152604401602060405180830381600087803b158015611d4d57600080fd5b505af1158015611d61573d6000803e3d6000fd5b505050506040513d601f19601f82011682018060405250810190611d859190613553565b5085604001516001600160a01b03168b6001600160a01b03167fc2baf6a73c7688a95aaa152e46e1683e51426f3e2dd2badc3d0c8d7b52e297b8868960600151611dcc3390565b60c08c01516040805194855260208501939093526001600160a01b039190911683830152606083018790526080830152519081900360a00190a350611fbe565b604085810151600c54915163095ea7b360e01b81526001600160a01b0392831660048201526024810185905291169063095ea7b390604401602060405180830381600087803b158015611e5e57600080fd5b505af1158015611e72573d6000803e3d6000fd5b505050506040513d601f19601f82011682018060405250810190611e969190613553565b50600c546008546001600160a01b039182169163b0bbcd88918591600091869116611ec242600161391c565b60016040518763ffffffff1660e01b8152600401611ee59695949392919061387f565b600060405180830381600087803b158015611eff57600080fd5b505af1158015611f13573d6000803e3d6000fd5b505050506040513d6000823e601f3d908101601f19168201604052611f3b919081019061356f565b505084604001516001600160a01b03168a6001600160a01b03167fc2baf6a73c7688a95aaa152e46e1683e51426f3e2dd2badc3d0c8d7b52e297b8848860600151611f833390565b60c08b01516040805194855260208501939093526001600160a01b039190911683830152600060608401526080830152519081900360a00190a35b611fc88a8a6130d7565b5050600180805598975050505050505050565b806001600160a01b0381166120025760405162461bcd60e51b815260040161064990613770565b6000546001600160a01b0316331461202c5760405162461bcd60e51b815260040161064990613813565b50600780546001600160a01b0319166001600160a01b0392909216919091179055565b6000546001600160a01b031633146120795760405162461bcd60e51b815260040161064990613813565b61076461332d565b6003602052816000526040600020818154811061209d57600080fd5b600091825260209091206007909102018054600182015460028301546003840154600485015460058601546006909601546001600160a01b03958616985093851696509190931693909187565b806001600160a01b0381166121115760405162461bcd60e51b815260040161064990613770565b6000546001600160a01b0316331461213b5760405162461bcd60e51b815260040161064990613813565b50600980546001600160a01b0319166001600160a01b0392909216919091179055565b6000600260015414156121835760405162461bcd60e51b815260040161064990613848565b6002600155826001600160a01b0381166121af5760405162461bcd60e51b815260040161064990613770565b600954604080516302f796d960e41b8152905185926000926001600160a01b0390911691632f796d9091600480820192602092909190829003018186803b1580156121f957600080fd5b505afa15801561220d573d6000803e3d6000fd5b505050506040513d601f19601f82011682018060405250810190612231919061365b565b905060015b6001600160a01b0387166000908152600360205260409020548111612772576001600160a01b0387166000908152600360205260409020612278600183613973565b8154811061229657634e487b7160e01b600052603260045260246000fd5b906000526020600020906007020160030154831015801561230a57506001600160a01b038716600090815260036020526040902082906122d7600184613973565b815481106122f557634e487b7160e01b600052603260045260246000fd5b90600052602060002090600702016005015410155b15612756576001600160a01b0387166000908152600360205260409020612332600183613973565b8154811061235057634e487b7160e01b600052603260045260246000fd5b9060005260206000209060070201600301548361236d9190613973565b6007549093506001600160a01b03166323b872dd336008546001600160a01b038b811660009081526003602052604090209116906123ac600187613973565b815481106123ca57634e487b7160e01b600052603260045260246000fd5b60009182526020909120600360079092020101546040516001600160e01b031960e086901b1681526001600160a01b0393841660048201529290911660248301526044820152606401602060405180830381600087803b15801561242d57600080fd5b505af1158015612441573d6000803e3d6000fd5b505050506040513d601f19601f820116820180604052508101906124659190613553565b506001600160a01b0387166000908152600360205260409020612489600183613973565b815481106124a757634e487b7160e01b600052603260045260246000fd5b6000918252602080832060016007909302018201546001600160a01b038b811685526003909252604090932092169163a9059cbb918a91906124e99086613973565b8154811061250757634e487b7160e01b600052603260045260246000fd5b9060005260206000209060070201600401546040518363ffffffff1660e01b815260040161254a9291906001600160a01b03929092168252602082015260400190565b602060405180830381600087803b15801561256457600080fd5b505af1158015612578573d6000803e3d6000fd5b505050506040513d601f19601f8201168201806040525081019061259c9190613553565b506001600160a01b03871660009081526003602052604090206125c0600183613973565b815481106125de57634e487b7160e01b600052603260045260246000fd5b60009182526020808320600260079093020191909101546001600160a01b038a8116808552600390935260409093209216917f10230d50e08046aa8fd499b9535a95c9b8d13f9a644a03087f010c0bc3e0deb49061263d600186613973565b8154811061265b57634e487b7160e01b600052603260045260246000fd5b6000918252602080832060036007909302018201546001600160a01b038e168452919052604090912061268f600187613973565b815481106126ad57634e487b7160e01b600052603260045260246000fd5b60009182526020808320600460079093020191909101546001600160a01b038e168352600390915260409091206126e5600188613973565b8154811061270357634e487b7160e01b600052603260045260246000fd5b600091825260209182902060066007909202010154604080519485529184019290925282015260600160405180910390a361274887612743600184613973565b6130d7565b806127528161398a565b9150505b8261276057612772565b8061276a816139a1565b915050612236565b508115612815576007546001600160a01b03166323b872dd336040516001600160e01b031960e084901b1681526001600160a01b039182166004820152908916602482015260448101859052606401602060405180830381600087803b1580156127db57600080fd5b505af11580156127ef573d6000803e3d6000fd5b505050506040513d601f19601f820116820180604052508101906128139190613553565b505b50506001808055949350505050565b6000546001600160a01b0316331461284e5760405162461bcd60e51b815260040161064990613813565b6001600160a01b0381166128b35760405162461bcd60e51b815260206004820152602660248201527f4f776e61626c653a206e6577206f776e657220697320746865207a65726f206160448201526564647265737360d01b6064820152608401610649565b6128bc81613087565b50565b60025460ff166129085760405162461bcd60e51b815260206004820152601460248201527314185d5cd8589b194e881b9bdd081c185d5cd95960621b6044820152606401610649565b6002805460ff191690557f5db9ee0a495bf2e6ff9c91a7834c1ba4fdd244a5e8aa4e537bd38aeae4b073aa335b6040516001600160a01b03909116815260200160405180910390a1565b806001600160a01b0381166129795760405162461bcd60e51b815260040161064990613770565b600b546040516303b8879560e21b81526001600160a01b03848116600483015290911690630ee21e549060240160206040518083038186803b1580156129be57600080fd5b505afa1580156129d2573d6000803e3d6000fd5b505050506040513d601f19601f820116820180604052508101906129f69190613553565b612a5c5760405162461bcd60e51b815260206004820152603160248201527f496e7374616e74526f757465723a20636f6c6c61746572616c20746f6b656e206044820152706973206e6f742061636365707461626c6560781b6064820152608401610649565b600b54604051636e2f809f60e11b81526001600160a01b038481166004830152600092169063dc5f013e9060240160206040518083038186803b158015612aa257600080fd5b505afa158015612ab6573d6000803e3d6000fd5b505050506040513d601f19601f82011682018060405250810190612ada91906133be565b90506000816001600160a01b031663dcaf9c446040518163ffffffff1660e01b815260040160206040518083038186803b158015612b1757600080fd5b505afa158015612b2b573d6000803e3d6000fd5b505050506040513d601f19601f82011682018060405250810190612b4f919061365b565b600a546007546040805163313ce56760e01b815290519394506000936001600160a01b03938416936316fac92a938b9391169163313ce56791600480820192602092909190829003018186803b158015612ba857600080fd5b505afa158015612bbc573d6000803e3d6000fd5b505050506040513d601f19601f82011682018060405250810190612be09190613673565b886001600160a01b031663313ce5676040518163ffffffff1660e01b815260040160206040518083038186803b158015612c1957600080fd5b505afa158015612c2d573d6000803e3d6000fd5b505050506040513d601f19601f82011682018060405250810190612c519190613673565b60075460405160e086901b6001600160e01b0319168152600481019490945260ff9283166024850152911660448301526001600160a01b0390811660648301528816608482015260a40160206040518083038186803b158015612cb357600080fd5b505afa158015612cc7573d6000803e3d6000fd5b505050506040513d601f19601f82011682018060405250810190612ceb919061365b565b90506000612710612cfc8484613954565b612d069190613934565b6040516309fad23760e11b8152600481018290529091506000906001600160a01b038616906313f5a46e9060240160206040518083038186803b158015612d4c57600080fd5b505afa158015612d60573d6000803e3d6000fd5b505050506040513d601f19601f82011682018060405250810190612d84919061365b565b6040516323b872dd60e01b81526001600160a01b038b8116600483015230602483015260448201839052919250908616906323b872dd90606401602060405180830381600087803b158015612dd857600080fd5b505af1158015612dec573d6000803e3d6000fd5b505050506040513d601f19601f82011682018060405250810190612e109190613553565b50612e6c6040518060e0016040528060006001600160a01b0316815260200160006001600160a01b0316815260200160006001600160a01b03168152602001600081526020016000815260200160008152602001600081525090565b6001600160a01b03808b168252606082018a90526080820183905286811660208084019190915289821660408085019190915260065460095482516302f796d960e41b8152925191941692632f796d909260048082019391829003018186803b158015612ed857600080fd5b505afa158015612eec573d6000803e3d6000fd5b505050506040513d601f19601f82011682018060405250810190612f10919061365b565b612f1a919061391c565b60a08201526001600160a01b038a16600081815260046020818152604083205460c08601819052939092529052612f5290600161391c565b600460008c6001600160a01b03166001600160a01b0316815260200190815260200160002081905550600360008b6001600160a01b03166001600160a01b0316815260200190815260200160002081908060018154018082558091505060019003906000526020600020906007020160009091909190915060008201518160000160006101000a8154816001600160a01b0302191690836001600160a01b0316021790555060208201518160010160006101000a8154816001600160a01b0302191690836001600160a01b0316021790555060408201518160020160006101000a8154816001600160a01b0302191690836001600160a01b03160217905550606082015181600301556080820151816004015560a0820151816005015560c08201518160060155505050505050505050505050565b600080546001600160a01b038381166001600160a01b0319831681178455604051919092169283917f8be0079c531659141344cd1fd0a4f28419497f9722a3daafe3b4186f6b6457e09190a35050565b6001600160a01b038216600090815260036020526040902054811061314a5760405162461bcd60e51b8152602060048201526024808201527f496e7374616e74526f757465723a20696e646578206973206f7574206f6620626044820152631bdd5b9960e21b6064820152608401610649565b805b6001600160a01b03831660009081526003602052604090205461317190600190613973565b81101561329e576001600160a01b038316600090815260036020526040902061319b82600161391c565b815481106131b957634e487b7160e01b600052603260045260246000fd5b906000526020600020906007020160036000856001600160a01b03166001600160a01b03168152602001908152602001600020828154811061320b57634e487b7160e01b600052603260045260246000fd5b60009182526020909120825460079092020180546001600160a01b039283166001600160a01b0319918216178255600180850154908301805491851691831691909117905560028085015490830180549190941691161790915560038083015490820155600480830154908201556005808301549082015560069182015491015580613296816139a1565b91505061314c565b506001600160a01b03821660009081526003602052604090208054806132d457634e487b7160e01b600052603160045260246000fd5b60008281526020812060076000199093019283020180546001600160a01b031990811682556001820180548216905560028201805490911690556003810182905560048101829055600581018290556006015590555050565b60025460ff16156133505760405162461bcd60e51b8152600401610649906137a7565b6002805460ff191660011790557f62e78cea01bee320cd4e420270b5ea74000d11b0c9f74754ebdbfc544b05a2586129353390565b803561072d816139e8565b803561072d816139fd565b6000602082840312156133ac578081fd5b81356133b7816139e8565b9392505050565b6000602082840312156133cf578081fd5b81516133b7816139e8565b600080600080600080600080610100898b0312156133f6578384fd5b8835613401816139e8565b9750602089810135613412816139e8565b975060408a0135965060608a0135955060808a013567ffffffffffffffff81111561343b578586fd5b8a01601f81018c1361344b578586fd5b803561345e613459826138f8565b6138c7565b8082825284820191508484018f86878602870101111561347c57898afd5b8994505b838510156134a7578035613493816139e8565b835260019490940193918501918501613480565b50975050505060a08a013593506134c2905060c08a01613385565b91506134d060e08a01613390565b90509295985092959890939650565b600080604083850312156134f1578182fd5b82356134fc816139e8565b946020939093013593505050565b6000806000806080858703121561351f578384fd5b843561352a816139e8565b935060208501359250604085013591506060850135613548816139e8565b939692955090935050565b600060208284031215613564578081fd5b81516133b7816139fd565b60008060408385031215613581578182fd5b825161358c816139fd565b8092505060208084015167ffffffffffffffff8111156135aa578283fd5b8401601f810186136135ba578283fd5b80516135c8613459826138f8565b81815283810190838501858402850186018a10156135e4578687fd5b8694505b838510156136065780518352600194909401939185019185016135e8565b5080955050505050509250929050565b60008060408385031215613628578182fd5b8251613633816139fd565b6020939093015192949293505050565b600060208284031215613654578081fd5b5035919050565b60006020828403121561366c578081fd5b5051919050565b600060208284031215613684578081fd5b815160ff811681146133b7578182fd5b6000815180845260208085019450808401835b838110156136cc5781516001600160a01b0316875295820195908201906001016136a7565b509495945050505050565b600061010060018060a01b038b16835289602084015288604084015287606084015280608084015261370b81840188613694565b95151560a0840152505060c081019290925260e09091015295945050505050565b6020808252825182820181905260009190848201906040850190845b8181101561376457835183529284019291840191600101613748565b50909695505050505050565b6020808252601b908201527f496e7374616e74526f757465723a207a65726f20616464726573730000000000604082015260600190565b60208082526010908201526f14185d5cd8589b194e881c185d5cd95960821b604082015260600190565b60208082526022908201527f496e7374616e74526f757465723a20646561646c696e65206861732070617373604082015261195960f21b606082015260800190565b6020808252818101527f4f776e61626c653a2063616c6c6572206973206e6f7420746865206f776e6572604082015260600190565b6020808252601f908201527f5265656e7472616e637947756172643a207265656e7472616e742063616c6c00604082015260600190565b600087825286602083015260c0604083015261389e60c0830187613694565b6001600160a01b03959095166060830152506080810192909252151560a0909101529392505050565b604051601f8201601f1916810167ffffffffffffffff811182821017156138f0576138f06139d2565b604052919050565b600067ffffffffffffffff821115613912576139126139d2565b5060209081020190565b6000821982111561392f5761392f6139bc565b500190565b60008261394f57634e487b7160e01b81526012600452602481fd5b500490565b600081600019048311821515161561396e5761396e6139bc565b500290565b600082821015613985576139856139bc565b500390565b600081613999576139996139bc565b506000190190565b60006000198214156139b5576139b56139bc565b5060010190565b634e487b7160e01b600052601160045260246000fd5b634e487b7160e01b600052604160045260246000fd5b6001600160a01b03811681146128bc57600080fd5b80151581146128bc57600080fdfea264697066735822122034b6726b30b4f6fdb80d8381e9ffb5d6922b27d1484406ea1cc56172429d9fd464736f6c63430008020033",
  "devdoc": {
    "kind": "dev",
    "methods": {
      "constructor": {
        "details": "It manages instant pool contract to give loan to users",
        "params": {
          "_collateralPoolFactory": "Address of collateral pool factory contrac",
          "_defaultExchangeConnector": "Exchange connector that is used for exchanging user's collateral to teleBTC (in the case of slashing)",
          "_paybackDeadline": "Dealine of paying back the borrowed tokens",
          "_priceOracle": "Address of price oracle contract",
          "_relay": "Address of relay contract",
          "_slasherPercentageReward": "Percentage of total collateral that goes to slasher",
          "_teleBTC": "Address of teleBTC contract"
        }
      },
      "getLockedCollateralPoolTokenAmount(address,uint256)": {
        "params": {
          "_index": "Index of the request in user's request list",
          "_user": "Address of the user"
        },
        "returns": {
          "_0": "Amount of locked collateral pool token (not collateral token)"
        }
      },
      "getUserRequestDeadline(address,uint256)": {
        "params": {
          "_index": "Index of the request in user's request list",
          "_user": "Address of the user"
        },
        "returns": {
          "_0": "Deadline of that request"
        }
      },
      "getUserRequestsLength(address)": {
        "params": {
          "_user": "Address of the user"
        },
        "returns": {
          "_0": "The total number of user's requests"
        }
      },
      "instantCCExchange(address,address,uint256,uint256,address[],uint256,address,bool)": {
        "details": "Locks the required collateral amount of the user. Only works when contract is not paused.",
        "params": {
          "_amountOut": "Amount of the output token",
          "_collateralToken": "Address of collateral token",
          "_deadline": "Deadline for getting the loan",
          "_exchangeConnector": "Address of exchange connector that user wants to exchange the borrowed teleBTC in it",
          "_isFixedToken": "Shows whether input or output is fixed in exchange",
          "_loanAmount": "Amount of the loan",
          "_path": "Path of exchanging tokens",
          "_receiver": "Address of the loan receiver"
        },
        "returns": {
          "_amounts": "         Amounts of tokens involved in the exchange"
        }
      },
      "instantCCTransfer(address,uint256,uint256,address)": {
        "details": "Transfes required collateral pool token of user to itself. Only works when contract is not paused.",
        "params": {
          "_collateralToken": "Address of the collateral token",
          "_deadline": "Deadline for getting the loan",
          "_loanAmount": "Amount of the loan",
          "_receiver": "Address of the loan receiver"
        },
        "returns": {
          "_0": "True if getting loan was successful"
        }
      },
      "owner()": {
        "details": "Returns the address of the current owner."
      },
      "paused()": {
        "details": "Returns true if the contract is paused, and false otherwise."
      },
      "payBackLoan(address,uint256)": {
        "details": "Caller should give allowance for teleBTC to instant router",
        "params": {
          "_teleBTCAmount": "Amount of available teleBTC to pay back loans",
          "_user": "Address of user who wants to pay back loans"
        },
        "returns": {
          "_0": "True if paying back is successful"
        }
      },
      "renounceOwnership()": {
        "details": "Leaves the contract without owner. It will not be possible to call `onlyOwner` functions anymore. Can only be called by the current owner. NOTE: Renouncing ownership will leave the contract without an owner, thereby removing any functionality that is only available to the owner."
      },
      "setCollateralPoolFactory(address)": {
        "details": "Only owner can call this",
        "params": {
          "_collateralPoolFactory": "The new teleBTC instant pool address"
        }
      },
      "setDefaultExchangeConnector(address)": {
        "details": "Only owner can call this",
        "params": {
          "_defaultExchangeConnector": "The new defaultExchangeConnector address"
        }
      },
      "setPaybackDeadline(uint256)": {
        "details": "Only owner can call this. It should be greater than relay finalization parameter so user has enough time to payback loan",
        "params": {
          "_paybackDeadline": "The new payback deadline"
        }
      },
      "setPriceOracle(address)": {
        "details": "Only owner can call this",
        "params": {
          "_priceOracle": "The new teleBTC instant pool address"
        }
      },
      "setRelay(address)": {
        "details": "Only owner can call this",
        "params": {
          "_relay": "The new teleBTC instant pool address"
        }
      },
      "setSlasherPercentageReward(uint256)": {
        "details": "Only owner can call this",
        "params": {
          "_slasherPercentageReward": "The new slasher reward"
        }
      },
      "setTeleBTC(address)": {
        "details": "Only owner can call this",
        "params": {
          "_teleBTC": "The new teleBTC instant pool address"
        }
      },
      "setTeleBTCInstantPool(address)": {
        "details": "Only owner can call this",
        "params": {
          "_teleBTCInstantPool": "The new teleBTC instant pool address"
        }
      },
      "slashUser(address,uint256)": {
        "details": "Buys teleBTC using the collateral and sends it to instant pool",
        "params": {
          "_requestIndex": "Index of the request that have not been paid back before deadline",
          "_user": "Address of the slashed user"
        },
        "returns": {
          "_0": "True if slashing is successful"
        }
      },
      "transferOwnership(address)": {
        "details": "Transfers ownership of the contract to a new account (`newOwner`). Can only be called by the current owner."
      }
    },
    "version": 1
  },
  "userdoc": {
    "events": {
      "InstantExchange(address,address,uint256,uint256,uint256,address[],bool,uint256,address,uint256,uint256)": {
        "notice": "Emits when a user gets loan for exchange"
      },
      "InstantTransfer(address,address,uint256,uint256,uint256,address,uint256,uint256)": {
        "notice": "Emits when a user gets loan for transfer"
      },
      "PaybackLoan(address,uint256,address,uint256,uint256)": {
        "notice": "Emits when a loan gets paid back"
      },
      "SlashUser(address,address,uint256,uint256,address,uint256,uint256)": {
        "notice": "Emits when a user gets slashed"
      }
    },
    "kind": "user",
    "methods": {
      "constructor": {
        "notice": "This contract handles instant transfer and instant exchange requests"
      },
      "getLockedCollateralPoolTokenAmount(address,uint256)": {
        "notice": "Gives the locked collateral pool token corresponding to a request"
      },
      "getUserRequestDeadline(address,uint256)": {
        "notice": "Gives deadline of a specefic request"
      },
      "getUserRequestsLength(address)": {
        "notice": "Gives the total number of user's unpaid loans"
      },
      "instantCCExchange(address,address,uint256,uint256,address[],uint256,address,bool)": {
        "notice": "Exchanges the loan amount (in teleBTC) for the user"
      },
      "instantCCTransfer(address,uint256,uint256,address)": {
        "notice": "Transfers the loan amount (in teleBTC) to the user"
      },
      "pause()": {
        "notice": "Pause the contract"
      },
      "payBackLoan(address,uint256)": {
        "notice": "Settles loans of the user"
      },
      "setCollateralPoolFactory(address)": {
        "notice": "Setter for teleBTC instant pool"
      },
      "setDefaultExchangeConnector(address)": {
        "notice": "Setter for default exchange connector"
      },
      "setPaybackDeadline(uint256)": {
        "notice": "Setter for payback deadline"
      },
      "setPriceOracle(address)": {
        "notice": "Setter for teleBTC instant pool"
      },
      "setRelay(address)": {
        "notice": "Setter for teleBTC instant pool"
      },
      "setSlasherPercentageReward(uint256)": {
        "notice": "Setter for slasher percentage reward"
      },
      "setTeleBTC(address)": {
        "notice": "Setter for teleBTC instant pool"
      },
      "setTeleBTCInstantPool(address)": {
        "notice": "Setter for teleBTC instant pool"
      },
      "slashUser(address,uint256)": {
        "notice": "Slashes collateral of user who did not pay back loan before its deadline"
      },
      "unpause()": {
        "notice": "Unpause the contract"
      }
    },
    "version": 1
  },
  "storageLayout": {
    "storage": [
      {
        "astId": 807,
        "contract": "contracts/routers/InstantRouter.sol:InstantRouter",
        "label": "_owner",
        "offset": 0,
        "slot": "0",
        "type": "t_address"
      },
      {
        "astId": 1634,
        "contract": "contracts/routers/InstantRouter.sol:InstantRouter",
        "label": "_status",
        "offset": 0,
        "slot": "1",
        "type": "t_uint256"
      },
      {
        "astId": 1549,
        "contract": "contracts/routers/InstantRouter.sol:InstantRouter",
        "label": "_paused",
        "offset": 0,
        "slot": "2",
        "type": "t_bool"
      },
      {
        "astId": 23089,
        "contract": "contracts/routers/InstantRouter.sol:InstantRouter",
        "label": "instantRequests",
        "offset": 0,
        "slot": "3",
        "type": "t_mapping(t_address,t_array(t_struct(instantRequest)24982_storage)dyn_storage)"
      },
      {
        "astId": 23093,
        "contract": "contracts/routers/InstantRouter.sol:InstantRouter",
        "label": "instantRequestCounter",
        "offset": 0,
        "slot": "4",
        "type": "t_mapping(t_address,t_uint256)"
      },
      {
        "astId": 23096,
        "contract": "contracts/routers/InstantRouter.sol:InstantRouter",
        "label": "slasherPercentageReward",
        "offset": 0,
        "slot": "5",
        "type": "t_uint256"
      },
      {
        "astId": 23099,
        "contract": "contracts/routers/InstantRouter.sol:InstantRouter",
        "label": "paybackDeadline",
        "offset": 0,
        "slot": "6",
        "type": "t_uint256"
      },
      {
        "astId": 23102,
        "contract": "contracts/routers/InstantRouter.sol:InstantRouter",
        "label": "teleBTC",
        "offset": 0,
        "slot": "7",
        "type": "t_address"
      },
      {
        "astId": 23105,
        "contract": "contracts/routers/InstantRouter.sol:InstantRouter",
        "label": "teleBTCInstantPool",
        "offset": 0,
        "slot": "8",
        "type": "t_address"
      },
      {
        "astId": 23108,
        "contract": "contracts/routers/InstantRouter.sol:InstantRouter",
        "label": "relay",
        "offset": 0,
        "slot": "9",
        "type": "t_address"
      },
      {
        "astId": 23111,
        "contract": "contracts/routers/InstantRouter.sol:InstantRouter",
        "label": "priceOracle",
        "offset": 0,
        "slot": "10",
        "type": "t_address"
      },
      {
        "astId": 23114,
        "contract": "contracts/routers/InstantRouter.sol:InstantRouter",
        "label": "collateralPoolFactory",
        "offset": 0,
        "slot": "11",
        "type": "t_address"
      },
      {
        "astId": 23117,
        "contract": "contracts/routers/InstantRouter.sol:InstantRouter",
        "label": "defaultExchangeConnector",
        "offset": 0,
        "slot": "12",
        "type": "t_address"
      }
    ],
    "types": {
      "t_address": {
        "encoding": "inplace",
        "label": "address",
        "numberOfBytes": "20"
      },
      "t_array(t_struct(instantRequest)24982_storage)dyn_storage": {
        "base": "t_struct(instantRequest)24982_storage",
        "encoding": "dynamic_array",
        "label": "struct IInstantRouter.instantRequest[]",
        "numberOfBytes": "32"
      },
      "t_bool": {
        "encoding": "inplace",
        "label": "bool",
        "numberOfBytes": "1"
      },
      "t_mapping(t_address,t_array(t_struct(instantRequest)24982_storage)dyn_storage)": {
        "encoding": "mapping",
        "key": "t_address",
        "label": "mapping(address => struct IInstantRouter.instantRequest[])",
        "numberOfBytes": "32",
        "value": "t_array(t_struct(instantRequest)24982_storage)dyn_storage"
      },
      "t_mapping(t_address,t_uint256)": {
        "encoding": "mapping",
        "key": "t_address",
        "label": "mapping(address => uint256)",
        "numberOfBytes": "32",
        "value": "t_uint256"
      },
      "t_struct(instantRequest)24982_storage": {
        "encoding": "inplace",
        "label": "struct IInstantRouter.instantRequest",
        "members": [
          {
            "astId": 24969,
            "contract": "contracts/routers/InstantRouter.sol:InstantRouter",
            "label": "user",
            "offset": 0,
            "slot": "0",
            "type": "t_address"
          },
          {
            "astId": 24971,
            "contract": "contracts/routers/InstantRouter.sol:InstantRouter",
            "label": "collateralPool",
            "offset": 0,
            "slot": "1",
            "type": "t_address"
          },
          {
            "astId": 24973,
            "contract": "contracts/routers/InstantRouter.sol:InstantRouter",
            "label": "collateralToken",
            "offset": 0,
            "slot": "2",
            "type": "t_address"
          },
          {
            "astId": 24975,
            "contract": "contracts/routers/InstantRouter.sol:InstantRouter",
            "label": "paybackAmount",
            "offset": 0,
            "slot": "3",
            "type": "t_uint256"
          },
          {
            "astId": 24977,
            "contract": "contracts/routers/InstantRouter.sol:InstantRouter",
            "label": "lockedCollateralPoolTokenAmount",
            "offset": 0,
            "slot": "4",
            "type": "t_uint256"
          },
          {
            "astId": 24979,
            "contract": "contracts/routers/InstantRouter.sol:InstantRouter",
            "label": "deadline",
            "offset": 0,
            "slot": "5",
            "type": "t_uint256"
          },
          {
            "astId": 24981,
            "contract": "contracts/routers/InstantRouter.sol:InstantRouter",
            "label": "requestCounterOfUser",
            "offset": 0,
            "slot": "6",
            "type": "t_uint256"
          }
        ],
        "numberOfBytes": "224"
      },
      "t_uint256": {
        "encoding": "inplace",
        "label": "uint256",
        "numberOfBytes": "32"
      }
    }
  }
}