{
  "address": "0xf0B2b9e77B7E23f5846Fa7836247706CB62eC294",
  "abi": [
    {
      "inputs": [
        {
          "internalType": "address",
          "name": "_teleBTC",
          "type": "address"
        },
        {
          "internalType": "address",
          "name": "_relay",
          "type": "address"
        },
        {
          "internalType": "address",
          "name": "_priceOracle",
          "type": "address"
        },
        {
          "internalType": "address",
          "name": "_collateralPoolFactory",
          "type": "address"
        },
        {
          "internalType": "uint256",
          "name": "_slasherPercentageReward",
          "type": "uint256"
        },
        {
          "internalType": "uint256",
          "name": "_paybackDeadline",
          "type": "uint256"
        },
        {
          "internalType": "address",
          "name": "_defaultExchangeConnector",
          "type": "address"
        }
      ],
      "stateMutability": "nonpayable",
      "type": "constructor"
    },
    {
      "anonymous": false,
      "inputs": [
        {
          "indexed": true,
          "internalType": "address",
          "name": "user",
          "type": "address"
        },
        {
          "indexed": false,
          "internalType": "address",
          "name": "receiver",
          "type": "address"
        },
        {
          "indexed": false,
          "internalType": "uint256",
          "name": "loanAmount",
          "type": "uint256"
        },
        {
          "indexed": false,
          "internalType": "uint256",
          "name": "instantFee",
          "type": "uint256"
        },
        {
          "indexed": false,
          "internalType": "uint256",
          "name": "amountOut",
          "type": "uint256"
        },
        {
          "indexed": false,
          "internalType": "address[]",
          "name": "path",
          "type": "address[]"
        },
        {
          "indexed": false,
          "internalType": "bool",
          "name": "isFixed",
          "type": "bool"
        },
        {
          "indexed": true,
          "internalType": "uint256",
          "name": "deadline",
          "type": "uint256"
        },
        {
          "indexed": true,
          "internalType": "address",
          "name": "collateralToken",
          "type": "address"
        },
        {
          "indexed": false,
          "internalType": "uint256",
          "name": "lockedCollateralPoolToken",
          "type": "uint256"
        }
      ],
      "name": "InstantExchange",
      "type": "event"
    },
    {
      "anonymous": false,
      "inputs": [
        {
          "indexed": true,
          "internalType": "address",
          "name": "user",
          "type": "address"
        },
        {
          "indexed": false,
          "internalType": "address",
          "name": "receiver",
          "type": "address"
        },
        {
          "indexed": false,
          "internalType": "uint256",
          "name": "loanAmount",
          "type": "uint256"
        },
        {
          "indexed": false,
          "internalType": "uint256",
          "name": "instantFee",
          "type": "uint256"
        },
        {
          "indexed": true,
          "internalType": "uint256",
          "name": "deadline",
          "type": "uint256"
        },
        {
          "indexed": true,
          "internalType": "address",
          "name": "collateralToken",
          "type": "address"
        },
        {
          "indexed": false,
          "internalType": "uint256",
          "name": "lockedCollateralPoolToken",
          "type": "uint256"
        }
      ],
      "name": "InstantTransfer",
      "type": "event"
    },
    {
      "anonymous": false,
      "inputs": [
        {
          "indexed": true,
          "internalType": "address",
          "name": "previousOwner",
          "type": "address"
        },
        {
          "indexed": true,
          "internalType": "address",
          "name": "newOwner",
          "type": "address"
        }
      ],
      "name": "OwnershipTransferred",
      "type": "event"
    },
    {
      "anonymous": false,
      "inputs": [
        {
          "indexed": false,
          "internalType": "address",
          "name": "account",
          "type": "address"
        }
      ],
      "name": "Paused",
      "type": "event"
    },
    {
      "anonymous": false,
      "inputs": [
        {
          "indexed": true,
          "internalType": "address",
          "name": "user",
          "type": "address"
        },
        {
          "indexed": false,
          "internalType": "uint256",
          "name": "paybackAmount",
          "type": "uint256"
        },
        {
          "indexed": true,
          "internalType": "address",
          "name": "collateralToken",
          "type": "address"
        },
        {
          "indexed": false,
          "internalType": "uint256",
          "name": "lockedCollateralPoolToken",
          "type": "uint256"
        }
      ],
      "name": "PaybackLoan",
      "type": "event"
    },
    {
      "anonymous": false,
      "inputs": [
        {
          "indexed": true,
          "internalType": "address",
          "name": "user",
          "type": "address"
        },
        {
          "indexed": true,
          "internalType": "address",
          "name": "collateralToken",
          "type": "address"
        },
        {
          "indexed": false,
          "internalType": "uint256",
          "name": "slashedAmount",
          "type": "uint256"
        },
        {
          "indexed": false,
          "internalType": "uint256",
          "name": "paybackAmount",
          "type": "uint256"
        },
        {
          "indexed": false,
          "internalType": "address",
          "name": "slasher",
          "type": "address"
        },
        {
          "indexed": false,
          "internalType": "uint256",
          "name": "slasherReward",
          "type": "uint256"
        }
      ],
      "name": "SlashUser",
      "type": "event"
    },
    {
      "anonymous": false,
      "inputs": [
        {
          "indexed": false,
          "internalType": "address",
          "name": "account",
          "type": "address"
        }
      ],
      "name": "Unpaused",
      "type": "event"
    },
    {
      "inputs": [],
      "name": "collateralPoolFactory",
      "outputs": [
        {
          "internalType": "address",
          "name": "",
          "type": "address"
        }
      ],
      "stateMutability": "view",
      "type": "function"
    },
    {
      "inputs": [],
      "name": "defaultExchangeConnector",
      "outputs": [
        {
          "internalType": "address",
          "name": "",
          "type": "address"
        }
      ],
      "stateMutability": "view",
      "type": "function"
    },
    {
      "inputs": [
        {
          "internalType": "address",
          "name": "_user",
          "type": "address"
        },
        {
          "internalType": "uint256",
          "name": "_index",
          "type": "uint256"
        }
      ],
      "name": "getLockedCollateralPoolTokenAmount",
      "outputs": [
        {
          "internalType": "uint256",
          "name": "",
          "type": "uint256"
        }
      ],
      "stateMutability": "view",
      "type": "function"
    },
    {
      "inputs": [
        {
          "internalType": "address",
          "name": "_user",
          "type": "address"
        },
        {
          "internalType": "uint256",
          "name": "_index",
          "type": "uint256"
        }
      ],
      "name": "getUserRequestDeadline",
      "outputs": [
        {
          "internalType": "uint256",
          "name": "",
          "type": "uint256"
        }
      ],
      "stateMutability": "view",
      "type": "function"
    },
    {
      "inputs": [
        {
          "internalType": "address",
          "name": "_user",
          "type": "address"
        }
      ],
      "name": "getUserRequestsLength",
      "outputs": [
        {
          "internalType": "uint256",
          "name": "",
          "type": "uint256"
        }
      ],
      "stateMutability": "view",
      "type": "function"
    },
    {
      "inputs": [
        {
          "internalType": "address",
          "name": "_exchangeConnector",
          "type": "address"
        },
        {
          "internalType": "address",
          "name": "_receiver",
          "type": "address"
        },
        {
          "internalType": "uint256",
          "name": "_loanAmount",
          "type": "uint256"
        },
        {
          "internalType": "uint256",
          "name": "_amountOut",
          "type": "uint256"
        },
        {
          "internalType": "address[]",
          "name": "_path",
          "type": "address[]"
        },
        {
          "internalType": "uint256",
          "name": "_deadline",
          "type": "uint256"
        },
        {
          "internalType": "address",
          "name": "_collateralToken",
          "type": "address"
        },
        {
          "internalType": "bool",
          "name": "_isFixedToken",
          "type": "bool"
        }
      ],
      "name": "instantCCExchange",
      "outputs": [
        {
          "internalType": "uint256[]",
          "name": "_amounts",
          "type": "uint256[]"
        }
      ],
      "stateMutability": "nonpayable",
      "type": "function"
    },
    {
      "inputs": [
        {
          "internalType": "address",
          "name": "_receiver",
          "type": "address"
        },
        {
          "internalType": "uint256",
          "name": "_loanAmount",
          "type": "uint256"
        },
        {
          "internalType": "uint256",
          "name": "_deadline",
          "type": "uint256"
        },
        {
          "internalType": "address",
          "name": "_collateralToken",
          "type": "address"
        }
      ],
      "name": "instantCCTransfer",
      "outputs": [
        {
          "internalType": "bool",
          "name": "",
          "type": "bool"
        }
      ],
      "stateMutability": "nonpayable",
      "type": "function"
    },
    {
      "inputs": [
        {
          "internalType": "address",
          "name": "",
          "type": "address"
        },
        {
          "internalType": "uint256",
          "name": "",
          "type": "uint256"
        }
      ],
      "name": "instantRequests",
      "outputs": [
        {
          "internalType": "address",
          "name": "user",
          "type": "address"
        },
        {
          "internalType": "address",
          "name": "collateralPool",
          "type": "address"
        },
        {
          "internalType": "address",
          "name": "collateralToken",
          "type": "address"
        },
        {
          "internalType": "uint256",
          "name": "paybackAmount",
          "type": "uint256"
        },
        {
          "internalType": "uint256",
          "name": "lockedCollateralPoolTokenAmount",
          "type": "uint256"
        },
        {
          "internalType": "uint256",
          "name": "deadline",
          "type": "uint256"
        }
      ],
      "stateMutability": "view",
      "type": "function"
    },
    {
      "inputs": [],
      "name": "owner",
      "outputs": [
        {
          "internalType": "address",
          "name": "",
          "type": "address"
        }
      ],
      "stateMutability": "view",
      "type": "function"
    },
    {
      "inputs": [],
      "name": "pause",
      "outputs": [],
      "stateMutability": "nonpayable",
      "type": "function"
    },
    {
      "inputs": [],
      "name": "paused",
      "outputs": [
        {
          "internalType": "bool",
          "name": "",
          "type": "bool"
        }
      ],
      "stateMutability": "view",
      "type": "function"
    },
    {
      "inputs": [
        {
          "internalType": "address",
          "name": "_user",
          "type": "address"
        },
        {
          "internalType": "uint256",
          "name": "_teleBTCAmount",
          "type": "uint256"
        }
      ],
      "name": "payBackLoan",
      "outputs": [
        {
          "internalType": "bool",
          "name": "",
          "type": "bool"
        }
      ],
      "stateMutability": "nonpayable",
      "type": "function"
    },
    {
      "inputs": [],
      "name": "paybackDeadline",
      "outputs": [
        {
          "internalType": "uint256",
          "name": "",
          "type": "uint256"
        }
      ],
      "stateMutability": "view",
      "type": "function"
    },
    {
      "inputs": [],
      "name": "priceOracle",
      "outputs": [
        {
          "internalType": "address",
          "name": "",
          "type": "address"
        }
      ],
      "stateMutability": "view",
      "type": "function"
    },
    {
      "inputs": [],
      "name": "relay",
      "outputs": [
        {
          "internalType": "address",
          "name": "",
          "type": "address"
        }
      ],
      "stateMutability": "view",
      "type": "function"
    },
    {
      "inputs": [],
      "name": "renounceOwnership",
      "outputs": [],
      "stateMutability": "nonpayable",
      "type": "function"
    },
    {
      "inputs": [
        {
          "internalType": "address",
          "name": "_collateralPoolFactory",
          "type": "address"
        }
      ],
      "name": "setCollateralPoolFactory",
      "outputs": [],
      "stateMutability": "nonpayable",
      "type": "function"
    },
    {
      "inputs": [
        {
          "internalType": "address",
          "name": "_defaultExchangeConnector",
          "type": "address"
        }
      ],
      "name": "setDefaultExchangeConnector",
      "outputs": [],
      "stateMutability": "nonpayable",
      "type": "function"
    },
    {
      "inputs": [
        {
          "internalType": "uint256",
          "name": "_paybackDeadline",
          "type": "uint256"
        }
      ],
      "name": "setPaybackDeadline",
      "outputs": [],
      "stateMutability": "nonpayable",
      "type": "function"
    },
    {
      "inputs": [
        {
          "internalType": "address",
          "name": "_priceOracle",
          "type": "address"
        }
      ],
      "name": "setPriceOracle",
      "outputs": [],
      "stateMutability": "nonpayable",
      "type": "function"
    },
    {
      "inputs": [
        {
          "internalType": "address",
          "name": "_relay",
          "type": "address"
        }
      ],
      "name": "setRelay",
      "outputs": [],
      "stateMutability": "nonpayable",
      "type": "function"
    },
    {
      "inputs": [
        {
          "internalType": "uint256",
          "name": "_slasherPercentageReward",
          "type": "uint256"
        }
      ],
      "name": "setSlasherPercentageReward",
      "outputs": [],
      "stateMutability": "nonpayable",
      "type": "function"
    },
    {
      "inputs": [
        {
          "internalType": "address",
          "name": "_teleBTC",
          "type": "address"
        }
      ],
      "name": "setTeleBTC",
      "outputs": [],
      "stateMutability": "nonpayable",
      "type": "function"
    },
    {
      "inputs": [
        {
          "internalType": "address",
          "name": "_teleBTCInstantPool",
          "type": "address"
        }
      ],
      "name": "setTeleBTCInstantPool",
      "outputs": [],
      "stateMutability": "nonpayable",
      "type": "function"
    },
    {
      "inputs": [
        {
          "internalType": "address",
          "name": "_user",
          "type": "address"
        },
        {
          "internalType": "uint256",
          "name": "_requestIndex",
          "type": "uint256"
        }
      ],
      "name": "slashUser",
      "outputs": [
        {
          "internalType": "bool",
          "name": "",
          "type": "bool"
        }
      ],
      "stateMutability": "nonpayable",
      "type": "function"
    },
    {
      "inputs": [],
      "name": "slasherPercentageReward",
      "outputs": [
        {
          "internalType": "uint256",
          "name": "",
          "type": "uint256"
        }
      ],
      "stateMutability": "view",
      "type": "function"
    },
    {
      "inputs": [],
      "name": "teleBTC",
      "outputs": [
        {
          "internalType": "address",
          "name": "",
          "type": "address"
        }
      ],
      "stateMutability": "view",
      "type": "function"
    },
    {
      "inputs": [],
      "name": "teleBTCInstantPool",
      "outputs": [
        {
          "internalType": "address",
          "name": "",
          "type": "address"
        }
      ],
      "stateMutability": "view",
      "type": "function"
    },
    {
      "inputs": [
        {
          "internalType": "address",
          "name": "newOwner",
          "type": "address"
        }
      ],
      "name": "transferOwnership",
      "outputs": [],
      "stateMutability": "nonpayable",
      "type": "function"
    },
    {
      "inputs": [],
      "name": "unpause",
      "outputs": [],
      "stateMutability": "nonpayable",
      "type": "function"
    },
    {
      "stateMutability": "payable",
      "type": "receive"
    }
  ],
  "transactionHash": "0x8a7ab7ccc151d4c473f056596df0be2df583fe8e787378a09496921ff9b3c5bb",
  "args": [
    "0x04eD7F8627FFBa12366077F6A176C169cb07126B",
    "0x5f75Eba46183fc15869Fbff63ae9D25c840E4636",
    "0xF52d695d36000a3c9317E01B5C60642CdD0D65A2",
    "0xcA0e70B96814d2d3644A9AcA0B5b5a769BB7911d",
    10,
    12,
    "0x46c6999f088d5db8899C5d99Ddd30fE0820Ac566"
  ],
  "numDeployments": 1,
  "solcInputHash": "26638c471352e26dd0e6e105b6c7435b",
  "bytecode": "0x60806040523480156200001157600080fd5b5060405162003988380380620039888339810160408190526200003491620001a8565b6200003f336200013b565b600180556002805460ff19169055600680546001600160a01b03808a166001600160a01b0319928316179092556008805489841690831617905560098054888416908316179055600a80549287169290911691909117905560048390556127108311156200010a5760405162461bcd60e51b815260206004820152602e60248201527f496e7374616e74526f757465723a2077726f6e6720736c61736865722070657260448201526d18d95b9d1859d9481c995dd85c9960921b606482015260840160405180910390fd5b600591909155600b80546001600160a01b0319166001600160a01b03909216919091179055506200022a9350505050565b600080546001600160a01b038381166001600160a01b0319831681178455604051919092169283917f8be0079c531659141344cd1fd0a4f28419497f9722a3daafe3b4186f6b6457e09190a35050565b80516001600160a01b0381168114620001a357600080fd5b919050565b600080600080600080600060e0888a031215620001c3578283fd5b620001ce886200018b565b9650620001de602089016200018b565b9550620001ee604089016200018b565b9450620001fe606089016200018b565b93506080880151925060a088015191506200021c60c089016200018b565b905092959891949750929550565b61374e806200023a6000396000f3fe6080604052600436106101d15760003560e01c80636f6ef7c9116100f75780638da5cb5b11610095578063c805f68b11610064578063c805f68b14610562578063d7aa5e7a14610582578063db1cb558146105a2578063f2fde38b146105c2576101d8565b80638da5cb5b146104b057806397091b89146104ce578063a36be9a11461052c578063b59589d114610542576101d8565b806378b58675116100d157806378b586751461043b5780637f0f18171461045b5780638456cb591461047b5780638d3d78cd14610490576101d8565b80636f6ef7c9146103d9578063715018a614610406578063763360db1461041b576101d8565b80634782bc361161016f5780635c975abb1161013e5780635c975abb1461035557806369539c7014610379578063697380b2146103995780636dd3d589146103b9576101d8565b80634782bc36146102d55780634cf46825146102f55780634d61878e14610315578063530e784f14610335576101d8565b8063387bb22d116101ab578063387bb22d1461025c5780633f4ba83a1461028a578063419cba7f1461029f57806346e897fd146102b5576101d8565b8063059d0238146101dd5780631c9d583c146101ff5780632630c12f1461021f576101d8565b366101d857005b600080fd5b3480156101e957600080fd5b506101fd6101f83660046130b4565b6105e2565b005b34801561020b57600080fd5b506101fd61021a3660046130b4565b61065f565b34801561022b57600080fd5b5060095461023f906001600160a01b031681565b6040516001600160a01b0390911681526020015b60405180910390f35b34801561026857600080fd5b5061027c6102773660046130b4565b6106d3565b604051908152602001610253565b34801561029657600080fd5b506101fd6106f2565b3480156102ab57600080fd5b5061027c60045481565b3480156102c157600080fd5b5060075461023f906001600160a01b031681565b3480156102e157600080fd5b506101fd6102f036600461335c565b610726565b34801561030157600080fd5b506101fd61031036600461335c565b6107be565b34801561032157600080fd5b5061027c6103303660046131f8565b6108cb565b34801561034157600080fd5b506101fd6103503660046130b4565b610984565b34801561036157600080fd5b5060025460ff165b6040519015158152602001610253565b34801561038557600080fd5b5061027c6103943660046131f8565b6109f8565b3480156103a557600080fd5b506103696103b4366004613223565b610ab1565b3480156103c557600080fd5b506101fd6103d43660046130b4565b610dd8565b3480156103e557600080fd5b506103f96103f43660046130f3565b610e4c565b6040516102539190613439565b34801561041257600080fd5b506101fd61134f565b34801561042757600080fd5b50600a5461023f906001600160a01b031681565b34801561044757600080fd5b506103696104563660046131f8565b611383565b34801561046757600080fd5b506101fd6104763660046130b4565b611e0f565b34801561048757600080fd5b506101fd611e83565b34801561049c57600080fd5b5060065461023f906001600160a01b031681565b3480156104bc57600080fd5b506000546001600160a01b031661023f565b3480156104da57600080fd5b506104ee6104e93660046131f8565b611eb5565b604080516001600160a01b039788168152958716602087015293909516928401929092526060830152608082015260a081019190915260c001610253565b34801561053857600080fd5b5061027c60055481565b34801561054e57600080fd5b5060085461023f906001600160a01b031681565b34801561056e57600080fd5b506101fd61057d3660046130b4565b611f16565b34801561058e57600080fd5b50600b5461023f906001600160a01b031681565b3480156105ae57600080fd5b506103696105bd3660046131f8565b611f8a565b3480156105ce57600080fd5b506101fd6105dd3660046130b4565b6125fa565b806001600160a01b0381166106125760405162461bcd60e51b81526004016106099061347d565b60405180910390fd5b6000546001600160a01b0316331461063c5760405162461bcd60e51b815260040161060990613520565b50600780546001600160a01b0319166001600160a01b0392909216919091179055565b806001600160a01b0381166106865760405162461bcd60e51b81526004016106099061347d565b6000546001600160a01b031633146106b05760405162461bcd60e51b815260040161060990613520565b50600b80546001600160a01b0319166001600160a01b0392909216919091179055565b6001600160a01b0381166000908152600360205260409020545b919050565b6000546001600160a01b0316331461071c5760405162461bcd60e51b815260040161060990613520565b610724612695565b565b6000546001600160a01b031633146107505760405162461bcd60e51b815260040161060990613520565b6127108111156107b95760405162461bcd60e51b815260206004820152602e60248201527f496e7374616e74526f757465723a2077726f6e6720736c61736865722070657260448201526d18d95b9d1859d9481c995dd85c9960921b6064820152608401610609565b600455565b6000546001600160a01b031633146107e85760405162461bcd60e51b815260040161060990613520565b60085460408051630a072bc560e41b815290516000926001600160a01b03169163a072bc50916004808301926020929190829003018186803b15801561082d57600080fd5b505afa158015610841573d6000803e3d6000fd5b505050506040513d601f19601f820116820180604052508101906108659190613374565b9050808210156108c55760405162461bcd60e51b815260206004820152602560248201527f496e7374616e74526f757465723a2077726f6e67207061796261636b20646561604482015264646c696e6560d81b6064820152608401610609565b50600555565b6001600160a01b03821660009081526003602052604081205482106109325760405162461bcd60e51b815260206004820152601a60248201527f496e7374616e74526f757465723a2077726f6e6720696e6465780000000000006044820152606401610609565b6001600160a01b038316600090815260036020526040902080548390811061096a57634e487b7160e01b600052603260045260246000fd5b906000526020600020906006020160050154905092915050565b806001600160a01b0381166109ab5760405162461bcd60e51b81526004016106099061347d565b6000546001600160a01b031633146109d55760405162461bcd60e51b815260040161060990613520565b50600980546001600160a01b0319166001600160a01b0392909216919091179055565b6001600160a01b0382166000908152600360205260408120548210610a5f5760405162461bcd60e51b815260206004820152601a60248201527f496e7374616e74526f757465723a2077726f6e6720696e6465780000000000006044820152606401610609565b6001600160a01b0383166000908152600360205260409020805483908110610a9757634e487b7160e01b600052603260045260246000fd5b906000526020600020906006020160040154905092915050565b600060026001541415610ad65760405162461bcd60e51b815260040161060990613555565b6002600155846001600160a01b038116610b025760405162461bcd60e51b81526004016106099061347d565b826001600160a01b038116610b295760405162461bcd60e51b81526004016106099061347d565b60025460ff1615610b4c5760405162461bcd60e51b8152600401610609906134b4565b42851015610b6c5760405162461bcd60e51b8152600401610609906134de565b600754604051633f3b917d60e21b8152600481018890526000916001600160a01b03169063fcee45f49060240160206040518083038186803b158015610bb157600080fd5b505afa158015610bc5573d6000803e3d6000fd5b505050506040513d601f19601f82011682018060405250810190610be99190613374565b9050610bff33610bf9838a613629565b87612728565b6007546040516350e28ac360e11b81526001600160a01b038a81166004830152602482018a90529091169063a1c5158690604401602060405180830381600087803b158015610c4d57600080fd5b505af1158015610c61573d6000803e3d6000fd5b505050506040513d601f19601f82011682018060405250810190610c85919061326c565b5033600090815260036020526040902080546001600160a01b0387169190610caf90600190613680565b81548110610ccd57634e487b7160e01b600052603260045260246000fd5b906000526020600020906006020160050154610ce63390565b6001600160a01b03167f6cbcd45e47c0a945676f3fdfa81e4f0dd5f3315732eae250095a9147b9886c6c8b8b8660036000336001600160a01b03166001600160a01b03168152602001908152602001600020600160036000610d453390565b6001600160a01b03168152602081019190915260400160002054610d699190613680565b81548110610d8757634e487b7160e01b600052603260045260246000fd5b600091825260209182902060046006909202010154604080516001600160a01b03909616865291850193909352830152606082015260800160405180910390a4505060018080559695505050505050565b806001600160a01b038116610dff5760405162461bcd60e51b81526004016106099061347d565b6000546001600160a01b03163314610e295760405162461bcd60e51b815260040161060990613520565b50600a80546001600160a01b0319166001600160a01b0392909216919091179055565b606060026001541415610e715760405162461bcd60e51b815260040161060990613555565b6002600155886001600160a01b038116610e9d5760405162461bcd60e51b81526004016106099061347d565b60025460ff1615610ec05760405162461bcd60e51b8152600401610609906134b4565b42851015610ee05760405162461bcd60e51b8152600401610609906134de565b60065486516001600160a01b03909116908790600090610f1057634e487b7160e01b600052603260045260246000fd5b60200260200101516001600160a01b0316148015610f2f575060018651115b610f7b5760405162461bcd60e51b815260206004820152601e60248201527f496e7374616e74526f757465723a207061746820697320696e76616c696400006044820152606401610609565b600754604051633f3b917d60e21b8152600481018a90526000916001600160a01b03169063fcee45f49060240160206040518083038186803b158015610fc057600080fd5b505afa158015610fd4573d6000803e3d6000fd5b505050506040513d601f19601f82011682018060405250810190610ff89190613374565b905061100833610bf9838c613629565b6007546040516350e28ac360e11b8152306004820152602481018b90526001600160a01b039091169063a1c5158690604401602060405180830381600087803b15801561105457600080fd5b505af1158015611068573d6000803e3d6000fd5b505050506040513d601f19601f8201168201806040525081019061108c919061326c565b5060065460405163095ea7b360e01b81526001600160a01b038d81166004830152602482018c90529091169063095ea7b390604401602060405180830381600087803b1580156110db57600080fd5b505af11580156110ef573d6000803e3d6000fd5b505050506040513d601f19601f82011682018060405250810190611113919061326c565b5060008b6001600160a01b031663b0bbcd888b8b8b8f8c8b6040518763ffffffff1660e01b815260040161114c9695949392919061358c565b600060405180830381600087803b15801561116657600080fd5b505af115801561117a573d6000803e3d6000fd5b505050506040513d6000823e601f3d908101601f191682016040526111a29190810190613288565b9450905060018115151461120b5760405162461bcd60e51b815260206004820152602a60248201527f496e7374616e74526f757465723a2065786368616e676520776173206e6f74206044820152691cdd58d8d95cdcd99d5b60b21b6064820152608401610609565b33600090815260036020526040902080546001600160a01b038816919061123490600190613680565b8154811061125257634e487b7160e01b600052603260045260246000fd5b90600052602060002090600602016005015461126b3390565b6001600160a01b03167f9f227756a563d8a9f09961e8a35cb707aab5866ccbd60786b6152279e4a6a79d8e8e878f8f8d60036000336001600160a01b03166001600160a01b031681526020019081526020016000206001600360006112cd3390565b6001600160a01b031681526020810191909152604001600020546112f19190613680565b8154811061130f57634e487b7160e01b600052603260045260246000fd5b90600052602060002090600602016004015460405161133497969594939291906133f0565b60405180910390a45050600180555098975050505050505050565b6000546001600160a01b031633146113795760405162461bcd60e51b815260040161060990613520565b6107246000612db1565b6000600260015414156113a85760405162461bcd60e51b815260040161060990613555565b6002600155826001600160a01b0381166113d45760405162461bcd60e51b81526004016106099061347d565b6001600160a01b038416600090815260036020526040902054831061144f5760405162461bcd60e51b815260206004820152602b60248201527f496e7374616e74526f757465723a207265717565737420696e64657820646f6560448201526a1cc81b9bdd08195e1a5cdd60aa1b6064820152608401610609565b600854604080516302f796d960e41b815290516000926001600160a01b031691632f796d90916004808301926020929190829003018186803b15801561149457600080fd5b505afa1580156114a8573d6000803e3d6000fd5b505050506040513d601f19601f820116820180604052508101906114cc9190613374565b6001600160a01b0386166000908152600360205260409020805491925082918690811061150957634e487b7160e01b600052603260045260246000fd5b9060005260206000209060060201600501541061157b5760405162461bcd60e51b815260206004820152602a60248201527f496e7374616e74526f757465723a20646561646c696e6520686173206e6f74206044820152691c185cdcd959081e595d60b21b6064820152608401610609565b6001600160a01b03851660009081526003602052604081208054869081106115b357634e487b7160e01b600052603260045260246000fd5b9060005260206000209060060201600401549050600060036000886001600160a01b03166001600160a01b03168152602001908152602001600020868154811061160d57634e487b7160e01b600052603260045260246000fd5b60009182526020808320600260069093020191909101546001600160a01b038a811684526003909252604083208054929091169350908890811061166157634e487b7160e01b600052603260045260246000fd5b60009182526020808320600160069093020191909101546001600160a01b038b81168452600390925260408320805492909116935090899081106116b557634e487b7160e01b600052603260045260246000fd5b60009182526020822060069182020160030154600b5491546040516322620c1d60e21b8152600481018390526001600160a01b0388811660248301529182166044820152919450839216906389883074906064016040805180830381600087803b15801561172257600080fd5b505af1158015611736573d6000803e3d6000fd5b505050506040513d601f19601f8201168201806040525081019061175a919061332f565b90925090506001821515146117c55760405162461bcd60e51b815260206004820152602b60248201527f496e7374616e74526f757465723a206c697175696469747920706f6f6c20646f60448201526a195cdb89dd08195e1a5cdd60aa1b6064820152608401610609565b60405163392f2ddd60e01b8152600481018790526000906001600160a01b0386169063392f2ddd9060240160206040518083038186803b15801561180857600080fd5b505afa15801561181c573d6000803e3d6000fd5b505050506040513d601f19601f820116820180604052508101906118409190613374565b6040805160028082526060820183529293506000929091602083019080368337019050509050868160008151811061188857634e487b7160e01b600052603260045260246000fd5b6001600160a01b0392831660209182029290920101526006548251911690829060019081106118c757634e487b7160e01b600052603260045260246000fd5b6001600160a01b039283166020918202929092010152604051630646f82b60e31b8152600481018a905290871690633237c15890602401602060405180830381600087803b15801561191857600080fd5b505af115801561192c573d6000803e3d6000fd5b505050506040513d601f19601f82011682018060405250810190611950919061326c565b50828210611c5557600b5460405163095ea7b360e01b81526001600160a01b039182166004820152602481018590529088169063095ea7b390604401602060405180830381600087803b1580156119a657600080fd5b505af11580156119ba573d6000803e3d6000fd5b505050506040513d601f19601f820116820180604052508101906119de919061326c565b50600b546007546001600160a01b039182169163b0bbcd889186918991869116611a09426001613629565b60006040518763ffffffff1660e01b8152600401611a2c9695949392919061358c565b600060405180830381600087803b158015611a4657600080fd5b505af1158015611a5a573d6000803e3d6000fd5b505050506040513d6000823e601f3d908101601f19168201604052611a829190810190613288565b505060006127106004548585611a989190613680565b611aa29190613661565b611aac9190613641565b90506001600160a01b03881663a9059cbb336040516001600160e01b031960e084901b1681526001600160a01b03909116600482015260248101849052604401602060405180830381600087803b158015611b0657600080fd5b505af1158015611b1a573d6000803e3d6000fd5b505050506040513d601f19601f82011682018060405250810190611b3e919061326c565b506001600160a01b038716636d75b9ee8f83611b5a8888613680565b611b649190613680565b6040516001600160e01b031960e085901b1681526001600160a01b0390921660048301526024820152604401602060405180830381600087803b158015611baa57600080fd5b505af1158015611bbe573d6000803e3d6000fd5b505050506040513d601f19601f82011682018060405250810190611be2919061326c565b50876001600160a01b03168e6001600160a01b03167f470cffa057aa8791c299e511965581b7e2d7703729b4a3def4c175e70913cbf78689611c213390565b6040805193845260208401929092526001600160a01b0316908201526060810185905260800160405180910390a350611def565b600b5460405163095ea7b360e01b81526001600160a01b039182166004820152602481018490529088169063095ea7b390604401602060405180830381600087803b158015611ca357600080fd5b505af1158015611cb7573d6000803e3d6000fd5b505050506040513d601f19601f82011682018060405250810190611cdb919061326c565b50600b546007546001600160a01b039182169163b0bbcd88918591600091869116611d07426001613629565b60016040518763ffffffff1660e01b8152600401611d2a9695949392919061358c565b600060405180830381600087803b158015611d4457600080fd5b505af1158015611d58573d6000803e3d6000fd5b505050506040513d6000823e601f3d908101601f19168201604052611d809190810190613288565b5050866001600160a01b03168d6001600160a01b03167f470cffa057aa8791c299e511965581b7e2d7703729b4a3def4c175e70913cbf78488611dc03390565b6040805193845260208401929092526001600160a01b0316908201526000606082015260800160405180910390a35b611df98d8d612e01565b505060018080559b9a5050505050505050505050565b806001600160a01b038116611e365760405162461bcd60e51b81526004016106099061347d565b6000546001600160a01b03163314611e605760405162461bcd60e51b815260040161060990613520565b50600680546001600160a01b0319166001600160a01b0392909216919091179055565b6000546001600160a01b03163314611ead5760405162461bcd60e51b815260040161060990613520565b610724613046565b60036020528160005260406000208181548110611ed157600080fd5b60009182526020909120600690910201805460018201546002830154600384015460048501546005909501546001600160a01b03948516975092841695509216929086565b806001600160a01b038116611f3d5760405162461bcd60e51b81526004016106099061347d565b6000546001600160a01b03163314611f675760405162461bcd60e51b815260040161060990613520565b50600880546001600160a01b0319166001600160a01b0392909216919091179055565b600060026001541415611faf5760405162461bcd60e51b815260040161060990613555565b6002600155826001600160a01b038116611fdb5760405162461bcd60e51b81526004016106099061347d565b600854604080516302f796d960e41b8152905185926000926001600160a01b0390911691632f796d9091600480820192602092909190829003018186803b15801561202557600080fd5b505afa158015612039573d6000803e3d6000fd5b505050506040513d601f19601f8201168201806040525081019061205d9190613374565b905060015b6001600160a01b0387166000908152600360205260409020548111612548576001600160a01b03871660009081526003602052604090206120a4600183613680565b815481106120c257634e487b7160e01b600052603260045260246000fd5b906000526020600020906006020160030154831015801561213657506001600160a01b03871660009081526003602052604090208290612103600184613680565b8154811061212157634e487b7160e01b600052603260045260246000fd5b90600052602060002090600602016005015410155b1561252c576001600160a01b038716600090815260036020526040902061215e600183613680565b8154811061217c57634e487b7160e01b600052603260045260246000fd5b906000526020600020906006020160030154836121999190613680565b6006549093506001600160a01b03166323b872dd336007546001600160a01b038b811660009081526003602052604090209116906121d8600187613680565b815481106121f657634e487b7160e01b600052603260045260246000fd5b60009182526020909120600360069092020101546040516001600160e01b031960e086901b1681526001600160a01b0393841660048201529290911660248301526044820152606401602060405180830381600087803b15801561225957600080fd5b505af115801561226d573d6000803e3d6000fd5b505050506040513d601f19601f82011682018060405250810190612291919061326c565b506001600160a01b03871660009081526003602052604090206122b5600183613680565b815481106122d357634e487b7160e01b600052603260045260246000fd5b6000918252602080832060016006909302018201546001600160a01b038b811685526003909252604090932092169163a9059cbb918a91906123159086613680565b8154811061233357634e487b7160e01b600052603260045260246000fd5b9060005260206000209060060201600401546040518363ffffffff1660e01b81526004016123769291906001600160a01b03929092168252602082015260400190565b602060405180830381600087803b15801561239057600080fd5b505af11580156123a4573d6000803e3d6000fd5b505050506040513d601f19601f820116820180604052508101906123c8919061326c565b506001600160a01b03871660009081526003602052604090206123ec600183613680565b8154811061240a57634e487b7160e01b600052603260045260246000fd5b60009182526020808320600260069093020191909101546001600160a01b038a8116808552600390935260409093209216917f343bb576b6b598ba7c85893ea7b9f4c8d595035329a0dd23a96aafabb291519d90612469600186613680565b8154811061248757634e487b7160e01b600052603260045260246000fd5b6000918252602080832060036006909302018201546001600160a01b038e16845291905260409091206124bb600187613680565b815481106124d957634e487b7160e01b600052603260045260246000fd5b906000526020600020906006020160040154604051612502929190918252602082015260400190565b60405180910390a361251e87612519600184613680565b612e01565b8061252881613697565b9150505b8261253657612548565b80612540816136ae565b915050612062565b5081156125eb576006546001600160a01b03166323b872dd336040516001600160e01b031960e084901b1681526001600160a01b039182166004820152908916602482015260448101859052606401602060405180830381600087803b1580156125b157600080fd5b505af11580156125c5573d6000803e3d6000fd5b505050506040513d601f19601f820116820180604052508101906125e9919061326c565b505b50506001808055949350505050565b6000546001600160a01b031633146126245760405162461bcd60e51b815260040161060990613520565b6001600160a01b0381166126895760405162461bcd60e51b815260206004820152602660248201527f4f776e61626c653a206e6577206f776e657220697320746865207a65726f206160448201526564647265737360d01b6064820152608401610609565b61269281612db1565b50565b60025460ff166126de5760405162461bcd60e51b815260206004820152601460248201527314185d5cd8589b194e881b9bdd081c185d5cd95960621b6044820152606401610609565b6002805460ff191690557f5db9ee0a495bf2e6ff9c91a7834c1ba4fdd244a5e8aa4e537bd38aeae4b073aa335b6040516001600160a01b03909116815260200160405180910390a1565b806001600160a01b03811661274f5760405162461bcd60e51b81526004016106099061347d565b600a546040516303b8879560e21b81526001600160a01b03848116600483015290911690630ee21e549060240160206040518083038186803b15801561279457600080fd5b505afa1580156127a8573d6000803e3d6000fd5b505050506040513d601f19601f820116820180604052508101906127cc919061326c565b6128325760405162461bcd60e51b815260206004820152603160248201527f496e7374616e74526f757465723a20636f6c6c61746572616c20746f6b656e206044820152706973206e6f742061636365707461626c6560781b6064820152608401610609565b600a54604051636e2f809f60e11b81526001600160a01b038481166004830152600092169063dc5f013e9060240160206040518083038186803b15801561287857600080fd5b505afa15801561288c573d6000803e3d6000fd5b505050506040513d601f19601f820116820180604052508101906128b091906130d7565b90506000816001600160a01b031663dcaf9c446040518163ffffffff1660e01b815260040160206040518083038186803b1580156128ed57600080fd5b505afa158015612901573d6000803e3d6000fd5b505050506040513d601f19601f820116820180604052508101906129259190613374565b6009546006546040805163313ce56760e01b815290519394506000936001600160a01b03938416936316fac92a938b9391169163313ce56791600480820192602092909190829003018186803b15801561297e57600080fd5b505afa158015612992573d6000803e3d6000fd5b505050506040513d601f19601f820116820180604052508101906129b6919061338c565b886001600160a01b031663313ce5676040518163ffffffff1660e01b815260040160206040518083038186803b1580156129ef57600080fd5b505afa158015612a03573d6000803e3d6000fd5b505050506040513d601f19601f82011682018060405250810190612a27919061338c565b60065460405160e086901b6001600160e01b0319168152600481019490945260ff9283166024850152911660448301526001600160a01b0390811660648301528816608482015260a40160206040518083038186803b158015612a8957600080fd5b505afa158015612a9d573d6000803e3d6000fd5b505050506040513d601f19601f82011682018060405250810190612ac19190613374565b90506000612710612ad28484613661565b612adc9190613641565b6040516309fad23760e11b8152600481018290529091506000906001600160a01b038616906313f5a46e9060240160206040518083038186803b158015612b2257600080fd5b505afa158015612b36573d6000803e3d6000fd5b505050506040513d601f19601f82011682018060405250810190612b5a9190613374565b6040516323b872dd60e01b81526001600160a01b038b8116600483015230602483015260448201839052919250908616906323b872dd90606401602060405180830381600087803b158015612bae57600080fd5b505af1158015612bc2573d6000803e3d6000fd5b505050506040513d601f19601f82011682018060405250810190612be6919061326c565b506040805160c081018252600060a08201526001600160a01b038b81168252606082018b9052608082018490528781166020808401919091528a82168385015260055460085485516302f796d960e41b8152955194959194931692632f796d9092600480840193919291829003018186803b158015612c6457600080fd5b505afa158015612c78573d6000803e3d6000fd5b505050506040513d601f19601f82011682018060405250810190612c9c9190613374565b612ca69190613629565b8160a0018181525050600360008b6001600160a01b03166001600160a01b0316815260200190815260200160002081908060018154018082558091505060019003906000526020600020906006020160009091909190915060008201518160000160006101000a8154816001600160a01b0302191690836001600160a01b0316021790555060208201518160010160006101000a8154816001600160a01b0302191690836001600160a01b0316021790555060408201518160020160006101000a8154816001600160a01b0302191690836001600160a01b03160217905550606082015181600301556080820151816004015560a08201518160050155505050505050505050505050565b600080546001600160a01b038381166001600160a01b0319831681178455604051919092169283917f8be0079c531659141344cd1fd0a4f28419497f9722a3daafe3b4186f6b6457e09190a35050565b6001600160a01b0382166000908152600360205260409020548110612e745760405162461bcd60e51b8152602060048201526024808201527f496e7374616e74526f757465723a20696e646578206973206f7574206f6620626044820152631bdd5b9960e21b6064820152608401610609565b805b6001600160a01b038316600090815260036020526040902054612e9b90600190613680565b811015612fbe576001600160a01b0383166000908152600360205260409020612ec5826001613629565b81548110612ee357634e487b7160e01b600052603260045260246000fd5b906000526020600020906006020160036000856001600160a01b03166001600160a01b031681526020019081526020016000208281548110612f3557634e487b7160e01b600052603260045260246000fd5b60009182526020909120825460069092020180546001600160a01b039283166001600160a01b03199182161782556001808501549083018054918516918316919091179055600280850154908301805491909416911617909155600380830154908201556004808301549082015560059182015491015580612fb6816136ae565b915050612e76565b506001600160a01b0382166000908152600360205260409020805480612ff457634e487b7160e01b600052603160045260246000fd5b60008281526020812060066000199093019283020180546001600160a01b0319908116825560018201805482169055600282018054909116905560038101829055600481018290556005015590555050565b60025460ff16156130695760405162461bcd60e51b8152600401610609906134b4565b6002805460ff191660011790557f62e78cea01bee320cd4e420270b5ea74000d11b0c9f74754ebdbfc544b05a25861270b3390565b80356106ed816136f5565b80356106ed8161370a565b6000602082840312156130c5578081fd5b81356130d0816136f5565b9392505050565b6000602082840312156130e8578081fd5b81516130d0816136f5565b600080600080600080600080610100898b03121561310f578384fd5b883561311a816136f5565b975060208981013561312b816136f5565b975060408a0135965060608a0135955060808a013567ffffffffffffffff811115613154578586fd5b8a01601f81018c13613164578586fd5b803561317761317282613605565b6135d4565b8082825284820191508484018f86878602870101111561319557898afd5b8994505b838510156131c05780356131ac816136f5565b835260019490940193918501918501613199565b50975050505060a08a013593506131db905060c08a0161309e565b91506131e960e08a016130a9565b90509295985092959890939650565b6000806040838503121561320a578182fd5b8235613215816136f5565b946020939093013593505050565b60008060008060808587031215613238578384fd5b8435613243816136f5565b935060208501359250604085013591506060850135613261816136f5565b939692955090935050565b60006020828403121561327d578081fd5b81516130d08161370a565b6000806040838503121561329a578182fd5b82516132a58161370a565b8092505060208084015167ffffffffffffffff8111156132c3578283fd5b8401601f810186136132d3578283fd5b80516132e161317282613605565b81815283810190838501858402850186018a10156132fd578687fd5b8694505b8385101561331f578051835260019490940193918501918501613301565b5080955050505050509250929050565b60008060408385031215613341578182fd5b825161334c8161370a565b6020939093015192949293505050565b60006020828403121561336d578081fd5b5035919050565b600060208284031215613385578081fd5b5051919050565b60006020828403121561339d578081fd5b815160ff811681146130d0578182fd5b6000815180845260208085019450808401835b838110156133e55781516001600160a01b0316875295820195908201906001016133c0565b509495945050505050565b600060018060a01b038916825287602083015286604083015285606083015260e0608083015261342360e08301866133ad565b93151560a08301525060c0015295945050505050565b6020808252825182820181905260009190848201906040850190845b8181101561347157835183529284019291840191600101613455565b50909695505050505050565b6020808252601b908201527f496e7374616e74526f757465723a207a65726f20616464726573730000000000604082015260600190565b60208082526010908201526f14185d5cd8589b194e881c185d5cd95960821b604082015260600190565b60208082526022908201527f496e7374616e74526f757465723a20646561646c696e65206861732070617373604082015261195960f21b606082015260800190565b6020808252818101527f4f776e61626c653a2063616c6c6572206973206e6f7420746865206f776e6572604082015260600190565b6020808252601f908201527f5265656e7472616e637947756172643a207265656e7472616e742063616c6c00604082015260600190565b600087825286602083015260c060408301526135ab60c08301876133ad565b6001600160a01b03959095166060830152506080810192909252151560a0909101529392505050565b604051601f8201601f1916810167ffffffffffffffff811182821017156135fd576135fd6136df565b604052919050565b600067ffffffffffffffff82111561361f5761361f6136df565b5060209081020190565b6000821982111561363c5761363c6136c9565b500190565b60008261365c57634e487b7160e01b81526012600452602481fd5b500490565b600081600019048311821515161561367b5761367b6136c9565b500290565b600082821015613692576136926136c9565b500390565b6000816136a6576136a66136c9565b506000190190565b60006000198214156136c2576136c26136c9565b5060010190565b634e487b7160e01b600052601160045260246000fd5b634e487b7160e01b600052604160045260246000fd5b6001600160a01b038116811461269257600080fd5b801515811461269257600080fdfea2646970667358221220de153ee43b425f0fc5c67e85fadb9cc24292a23a99d120913fe51f38006c171164736f6c63430008020033",
  "devdoc": {
    "kind": "dev",
    "methods": {
      "constructor": {
        "details": "It manages instant pool contract to give loan to users",
        "params": {
          "_collateralPoolFactory": "Address of collateral pool factory contrac",
          "_defaultExchangeConnector": "Exchange connector that is used for exchanging user's collateral to teleBTC (in the case of slashing)",
          "_paybackDeadline": "Dealine of paying back the borrowed tokens",
          "_priceOracle": "Address of price oracle contract",
          "_relay": "Address of relay contract",
          "_slasherPercentageReward": "Percentage of total collateral that goes to slasher",
          "_teleBTC": "Address of teleBTC contract"
        }
      },
      "getLockedCollateralPoolTokenAmount(address,uint256)": {
        "params": {
          "_index": "Index of the request in user's request list",
          "_user": "Address of the user"
        },
        "returns": {
          "_0": "Amount of locked collateral pool token (not collateral token)"
        }
      },
      "getUserRequestDeadline(address,uint256)": {
        "params": {
          "_index": "Index of the request in user's request list",
          "_user": "Address of the user"
        },
        "returns": {
          "_0": "Deadline of that request"
        }
      },
      "getUserRequestsLength(address)": {
        "params": {
          "_user": "Address of the user"
        },
        "returns": {
          "_0": "The total number of user's requests"
        }
      },
      "instantCCExchange(address,address,uint256,uint256,address[],uint256,address,bool)": {
        "details": "Locks the required collateral amount of the user. Only works when contract is not paused.",
        "params": {
          "_amountOut": "Amount of the output token",
          "_collateralToken": "Address of collateral token",
          "_deadline": "Deadline for getting the loan",
          "_exchangeConnector": "Address of exchange connector that user wants to exchange the borrowed teleBTC in it",
          "_isFixedToken": "Shows whether input or output is fixed in exchange",
          "_loanAmount": "Amount of the loan",
          "_path": "Path of exchanging tokens",
          "_receiver": "Address of the loan receiver"
        },
        "returns": {
          "_amounts": "         Amounts of tokens involved in the exchange"
        }
      },
      "instantCCTransfer(address,uint256,uint256,address)": {
        "details": "Transfes required collateral pool token of user to itself. Only works when contract is not paused.",
        "params": {
          "_collateralToken": "Address of the collateral token",
          "_deadline": "Deadline for getting the loan",
          "_loanAmount": "Amount of the loan",
          "_receiver": "Address of the loan receiver"
        },
        "returns": {
          "_0": "True if getting loan was successful"
        }
      },
      "owner()": {
        "details": "Returns the address of the current owner."
      },
      "paused()": {
        "details": "Returns true if the contract is paused, and false otherwise."
      },
      "payBackLoan(address,uint256)": {
        "details": "Caller should give allowance for teleBTC to instant router",
        "params": {
          "_teleBTCAmount": "Amount of available teleBTC to pay back loans",
          "_user": "Address of user who wants to pay back loans"
        },
        "returns": {
          "_0": "True if paying back is successful"
        }
      },
      "renounceOwnership()": {
        "details": "Leaves the contract without owner. It will not be possible to call `onlyOwner` functions anymore. Can only be called by the current owner. NOTE: Renouncing ownership will leave the contract without an owner, thereby removing any functionality that is only available to the owner."
      },
      "setCollateralPoolFactory(address)": {
        "details": "Only owner can call this",
        "params": {
          "_collateralPoolFactory": "The new teleBTC instant pool address"
        }
      },
      "setDefaultExchangeConnector(address)": {
        "details": "Only owner can call this",
        "params": {
          "_defaultExchangeConnector": "The new defaultExchangeConnector address"
        }
      },
      "setPaybackDeadline(uint256)": {
        "details": "Only owner can call this. It should be greater than relay finalization parameter so user has enough time to payback loan",
        "params": {
          "_paybackDeadline": "The new payback deadline"
        }
      },
      "setPriceOracle(address)": {
        "details": "Only owner can call this",
        "params": {
          "_priceOracle": "The new teleBTC instant pool address"
        }
      },
      "setRelay(address)": {
        "details": "Only owner can call this",
        "params": {
          "_relay": "The new teleBTC instant pool address"
        }
      },
      "setSlasherPercentageReward(uint256)": {
        "details": "Only owner can call this",
        "params": {
          "_slasherPercentageReward": "The new slasher reward"
        }
      },
      "setTeleBTC(address)": {
        "details": "Only owner can call this",
        "params": {
          "_teleBTC": "The new teleBTC instant pool address"
        }
      },
      "setTeleBTCInstantPool(address)": {
        "details": "Only owner can call this",
        "params": {
          "_teleBTCInstantPool": "The new teleBTC instant pool address"
        }
      },
      "slashUser(address,uint256)": {
        "details": "Buys teleBTC using the collateral and sends it to instant pool",
        "params": {
          "_requestIndex": "Index of the request that have not been paid back before deadline",
          "_user": "Address of the slashed user"
        },
        "returns": {
          "_0": "True if slashing is successful"
        }
      },
      "transferOwnership(address)": {
        "details": "Transfers ownership of the contract to a new account (`newOwner`). Can only be called by the current owner."
      }
    },
    "version": 1
  },
  "userdoc": {
    "events": {
      "InstantExchange(address,address,uint256,uint256,uint256,address[],bool,uint256,address,uint256)": {
        "notice": "Emits when a user gets loan for exchange"
      },
      "InstantTransfer(address,address,uint256,uint256,uint256,address,uint256)": {
        "notice": "Emits when a user gets loan for transfer"
      },
      "PaybackLoan(address,uint256,address,uint256)": {
        "notice": "Emits when a loan gets paid back"
      },
      "SlashUser(address,address,uint256,uint256,address,uint256)": {
        "notice": "Emits when a user gets slashed"
      }
    },
    "kind": "user",
    "methods": {
      "constructor": {
        "notice": "This contract handles instant transfer and instant exchange requests"
      },
      "getLockedCollateralPoolTokenAmount(address,uint256)": {
        "notice": "Gives the locked collateral pool token corresponding to a request"
      },
      "getUserRequestDeadline(address,uint256)": {
        "notice": "Gives deadline of a specefic request"
      },
      "getUserRequestsLength(address)": {
        "notice": "Gives the total number of user's unpaid loans"
      },
      "instantCCExchange(address,address,uint256,uint256,address[],uint256,address,bool)": {
        "notice": "Exchanges the loan amount (in teleBTC) for the user"
      },
      "instantCCTransfer(address,uint256,uint256,address)": {
        "notice": "Transfers the loan amount (in teleBTC) to the user"
      },
      "pause()": {
        "notice": "Pause the contract"
      },
      "payBackLoan(address,uint256)": {
        "notice": "Settles loans of the user"
      },
      "setCollateralPoolFactory(address)": {
        "notice": "Setter for teleBTC instant pool"
      },
      "setDefaultExchangeConnector(address)": {
        "notice": "Setter for default exchange connector"
      },
      "setPaybackDeadline(uint256)": {
        "notice": "Setter for payback deadline"
      },
      "setPriceOracle(address)": {
        "notice": "Setter for teleBTC instant pool"
      },
      "setRelay(address)": {
        "notice": "Setter for teleBTC instant pool"
      },
      "setSlasherPercentageReward(uint256)": {
        "notice": "Setter for slasher percentage reward"
      },
      "setTeleBTC(address)": {
        "notice": "Setter for teleBTC instant pool"
      },
      "setTeleBTCInstantPool(address)": {
        "notice": "Setter for teleBTC instant pool"
      },
      "slashUser(address,uint256)": {
        "notice": "Slashes collateral of user who did not pay back loan before its deadline"
      },
      "unpause()": {
        "notice": "Unpause the contract"
      }
    },
    "version": 1
  },
  "storageLayout": {
    "storage": [
      {
        "astId": 807,
        "contract": "contracts/routers/InstantRouter.sol:InstantRouter",
        "label": "_owner",
        "offset": 0,
        "slot": "0",
        "type": "t_address"
      },
      {
        "astId": 1634,
        "contract": "contracts/routers/InstantRouter.sol:InstantRouter",
        "label": "_status",
        "offset": 0,
        "slot": "1",
        "type": "t_uint256"
      },
      {
        "astId": 1549,
        "contract": "contracts/routers/InstantRouter.sol:InstantRouter",
        "label": "_paused",
        "offset": 0,
        "slot": "2",
        "type": "t_bool"
      },
      {
        "astId": 22882,
        "contract": "contracts/routers/InstantRouter.sol:InstantRouter",
        "label": "instantRequests",
        "offset": 0,
        "slot": "3",
        "type": "t_mapping(t_address,t_array(t_struct(instantRequest)24652_storage)dyn_storage)"
      },
      {
        "astId": 22885,
        "contract": "contracts/routers/InstantRouter.sol:InstantRouter",
        "label": "slasherPercentageReward",
        "offset": 0,
        "slot": "4",
        "type": "t_uint256"
      },
      {
        "astId": 22888,
        "contract": "contracts/routers/InstantRouter.sol:InstantRouter",
        "label": "paybackDeadline",
        "offset": 0,
        "slot": "5",
        "type": "t_uint256"
      },
      {
        "astId": 22891,
        "contract": "contracts/routers/InstantRouter.sol:InstantRouter",
        "label": "teleBTC",
        "offset": 0,
        "slot": "6",
        "type": "t_address"
      },
      {
        "astId": 22894,
        "contract": "contracts/routers/InstantRouter.sol:InstantRouter",
        "label": "teleBTCInstantPool",
        "offset": 0,
        "slot": "7",
        "type": "t_address"
      },
      {
        "astId": 22897,
        "contract": "contracts/routers/InstantRouter.sol:InstantRouter",
        "label": "relay",
        "offset": 0,
        "slot": "8",
        "type": "t_address"
      },
      {
        "astId": 22900,
        "contract": "contracts/routers/InstantRouter.sol:InstantRouter",
        "label": "priceOracle",
        "offset": 0,
        "slot": "9",
        "type": "t_address"
      },
      {
        "astId": 22903,
        "contract": "contracts/routers/InstantRouter.sol:InstantRouter",
        "label": "collateralPoolFactory",
        "offset": 0,
        "slot": "10",
        "type": "t_address"
      },
      {
        "astId": 22906,
        "contract": "contracts/routers/InstantRouter.sol:InstantRouter",
        "label": "defaultExchangeConnector",
        "offset": 0,
        "slot": "11",
        "type": "t_address"
      }
    ],
    "types": {
      "t_address": {
        "encoding": "inplace",
        "label": "address",
        "numberOfBytes": "20"
      },
      "t_array(t_struct(instantRequest)24652_storage)dyn_storage": {
        "base": "t_struct(instantRequest)24652_storage",
        "encoding": "dynamic_array",
        "label": "struct IInstantRouter.instantRequest[]",
        "numberOfBytes": "32"
      },
      "t_bool": {
        "encoding": "inplace",
        "label": "bool",
        "numberOfBytes": "1"
      },
      "t_mapping(t_address,t_array(t_struct(instantRequest)24652_storage)dyn_storage)": {
        "encoding": "mapping",
        "key": "t_address",
        "label": "mapping(address => struct IInstantRouter.instantRequest[])",
        "numberOfBytes": "32",
        "value": "t_array(t_struct(instantRequest)24652_storage)dyn_storage"
      },
      "t_struct(instantRequest)24652_storage": {
        "encoding": "inplace",
        "label": "struct IInstantRouter.instantRequest",
        "members": [
          {
            "astId": 24641,
            "contract": "contracts/routers/InstantRouter.sol:InstantRouter",
            "label": "user",
            "offset": 0,
            "slot": "0",
            "type": "t_address"
          },
          {
            "astId": 24643,
            "contract": "contracts/routers/InstantRouter.sol:InstantRouter",
            "label": "collateralPool",
            "offset": 0,
            "slot": "1",
            "type": "t_address"
          },
          {
            "astId": 24645,
            "contract": "contracts/routers/InstantRouter.sol:InstantRouter",
            "label": "collateralToken",
            "offset": 0,
            "slot": "2",
            "type": "t_address"
          },
          {
            "astId": 24647,
            "contract": "contracts/routers/InstantRouter.sol:InstantRouter",
            "label": "paybackAmount",
            "offset": 0,
            "slot": "3",
            "type": "t_uint256"
          },
          {
            "astId": 24649,
            "contract": "contracts/routers/InstantRouter.sol:InstantRouter",
            "label": "lockedCollateralPoolTokenAmount",
            "offset": 0,
            "slot": "4",
            "type": "t_uint256"
          },
          {
            "astId": 24651,
            "contract": "contracts/routers/InstantRouter.sol:InstantRouter",
            "label": "deadline",
            "offset": 0,
            "slot": "5",
            "type": "t_uint256"
          }
        ],
        "numberOfBytes": "192"
      },
      "t_uint256": {
        "encoding": "inplace",
        "label": "uint256",
        "numberOfBytes": "32"
      }
    }
  }
}