{
  "address": "0x9CA069a3d57f27236c5571a5C9eB5Db9E1C12773",
  "abi": [
    {
      "anonymous": false,
      "inputs": [
        {
          "indexed": true,
          "internalType": "address",
          "name": "lockerTargetAddress",
          "type": "address"
        },
        {
          "indexed": false,
          "internalType": "bytes",
          "name": "lockerLockingScript",
          "type": "bytes"
        },
        {
          "indexed": false,
          "internalType": "uint256",
          "name": "TDTLockedAmount",
          "type": "uint256"
        },
        {
          "indexed": false,
          "internalType": "uint256",
          "name": "nativeTokenLockedAmount",
          "type": "uint256"
        },
        {
          "indexed": false,
          "internalType": "uint256",
          "name": "netMinted",
          "type": "uint256"
        }
      ],
      "name": "ActivateLocker",
      "type": "event"
    },
    {
      "anonymous": false,
      "inputs": [
        {
          "indexed": true,
          "internalType": "address",
          "name": "lockerTargetAddress",
          "type": "address"
        },
        {
          "indexed": false,
          "internalType": "uint256",
          "name": "burntAmount",
          "type": "uint256"
        },
        {
          "indexed": false,
          "internalType": "uint256",
          "name": "lockerFee",
          "type": "uint256"
        },
        {
          "indexed": false,
          "internalType": "uint256",
          "name": "burningTime",
          "type": "uint256"
        }
      ],
      "name": "BurnByLocker",
      "type": "event"
    },
    {
      "anonymous": false,
      "inputs": [
        {
          "indexed": true,
          "internalType": "address",
          "name": "account",
          "type": "address"
        }
      ],
      "name": "BurnerAdded",
      "type": "event"
    },
    {
      "anonymous": false,
      "inputs": [
        {
          "indexed": true,
          "internalType": "address",
          "name": "account",
          "type": "address"
        }
      ],
      "name": "BurnerRemoved",
      "type": "event"
    },
    {
      "anonymous": false,
      "inputs": [
        {
          "indexed": true,
          "internalType": "address",
          "name": "lockerTargetAddress",
          "type": "address"
        },
        {
          "indexed": false,
          "internalType": "uint256",
          "name": "addedCollateral",
          "type": "uint256"
        },
        {
          "indexed": false,
          "internalType": "uint256",
          "name": "totalCollateral",
          "type": "uint256"
        },
        {
          "indexed": false,
          "internalType": "uint256",
          "name": "addingTime",
          "type": "uint256"
        }
      ],
      "name": "CollateralAdded",
      "type": "event"
    },
    {
      "anonymous": false,
      "inputs": [
        {
          "indexed": true,
          "internalType": "address",
          "name": "lockerTargetAddress",
          "type": "address"
        },
        {
          "indexed": false,
          "internalType": "uint256",
          "name": "removedCollateral",
          "type": "uint256"
        },
        {
          "indexed": false,
          "internalType": "uint256",
          "name": "totalCollateral",
          "type": "uint256"
        },
        {
          "indexed": false,
          "internalType": "uint256",
          "name": "removingTime",
          "type": "uint256"
        }
      ],
      "name": "CollateralRemoved",
      "type": "event"
    },
    {
      "anonymous": false,
      "inputs": [
        {
          "indexed": false,
          "internalType": "uint8",
          "name": "version",
          "type": "uint8"
        }
      ],
      "name": "Initialized",
      "type": "event"
    },
    {
      "anonymous": false,
      "inputs": [
        {
          "indexed": true,
          "internalType": "address",
          "name": "lockerTargetAddress",
          "type": "address"
        },
        {
          "indexed": false,
          "internalType": "bytes",
          "name": "lockerLockingScript",
          "type": "bytes"
        },
        {
          "indexed": false,
          "internalType": "uint256",
          "name": "TDTLockedAmount",
          "type": "uint256"
        },
        {
          "indexed": false,
          "internalType": "uint256",
          "name": "nativeTokenLockedAmount",
          "type": "uint256"
        },
        {
          "indexed": false,
          "internalType": "uint256",
          "name": "addingTime",
          "type": "uint256"
        }
      ],
      "name": "LockerAdded",
      "type": "event"
    },
    {
      "anonymous": false,
      "inputs": [
        {
          "indexed": true,
          "internalType": "address",
          "name": "lockerTargetAddress",
          "type": "address"
        },
        {
          "indexed": true,
          "internalType": "address",
          "name": "liquidatorAddress",
          "type": "address"
        },
        {
          "indexed": false,
          "internalType": "uint256",
          "name": "collateralAmount",
          "type": "uint256"
        },
        {
          "indexed": false,
          "internalType": "uint256",
          "name": "teleBTCAmount",
          "type": "uint256"
        },
        {
          "indexed": false,
          "internalType": "uint256",
          "name": "liquidateTime",
          "type": "uint256"
        }
      ],
      "name": "LockerLiquidated",
      "type": "event"
    },
    {
      "anonymous": false,
      "inputs": [
        {
          "indexed": true,
          "internalType": "address",
          "name": "lockerTargetAddress",
          "type": "address"
        },
        {
          "indexed": false,
          "internalType": "bytes",
          "name": "lockerLockingScript",
          "type": "bytes"
        },
        {
          "indexed": false,
          "internalType": "uint256",
          "name": "TDTUnlockedAmount",
          "type": "uint256"
        },
        {
          "indexed": false,
          "internalType": "uint256",
          "name": "nativeTokenUnlockedAmount",
          "type": "uint256"
        }
      ],
      "name": "LockerRemoved",
      "type": "event"
    },
    {
      "anonymous": false,
      "inputs": [
        {
          "indexed": true,
          "internalType": "address",
          "name": "lockerTargetAddress",
          "type": "address"
        },
        {
          "indexed": false,
          "internalType": "uint256",
          "name": "rewardAmount",
          "type": "uint256"
        },
        {
          "indexed": true,
          "internalType": "address",
          "name": "rewardRecipient",
          "type": "address"
        },
        {
          "indexed": false,
          "internalType": "uint256",
          "name": "amount",
          "type": "uint256"
        },
        {
          "indexed": true,
          "internalType": "address",
          "name": "recipient",
          "type": "address"
        },
        {
          "indexed": false,
          "internalType": "uint256",
          "name": "slashedCollateralAmount",
          "type": "uint256"
        },
        {
          "indexed": false,
          "internalType": "uint256",
          "name": "slashTime",
          "type": "uint256"
        },
        {
          "indexed": false,
          "internalType": "bool",
          "name": "isForCCBurn",
          "type": "bool"
        }
      ],
      "name": "LockerSlashed",
      "type": "event"
    },
    {
      "anonymous": false,
      "inputs": [
        {
          "indexed": true,
          "internalType": "address",
          "name": "lockerTargetAddress",
          "type": "address"
        },
        {
          "indexed": true,
          "internalType": "address",
          "name": "buyerAddress",
          "type": "address"
        },
        {
          "indexed": false,
          "internalType": "uint256",
          "name": "slashingAmount",
          "type": "uint256"
        },
        {
          "indexed": false,
          "internalType": "uint256",
          "name": "teleBTCAmount",
          "type": "uint256"
        },
        {
          "indexed": false,
          "internalType": "uint256",
          "name": "slashingTime",
          "type": "uint256"
        }
      ],
      "name": "LockerSlashedCollateralSold",
      "type": "event"
    },
    {
      "anonymous": false,
      "inputs": [
        {
          "indexed": true,
          "internalType": "address",
          "name": "lockerTargetAddress",
          "type": "address"
        },
        {
          "indexed": true,
          "internalType": "address",
          "name": "receiver",
          "type": "address"
        },
        {
          "indexed": false,
          "internalType": "uint256",
          "name": "mintedAmount",
          "type": "uint256"
        },
        {
          "indexed": false,
          "internalType": "uint256",
          "name": "lockerFee",
          "type": "uint256"
        },
        {
          "indexed": false,
          "internalType": "uint256",
          "name": "mintingTime",
          "type": "uint256"
        }
      ],
      "name": "MintByLocker",
      "type": "event"
    },
    {
      "anonymous": false,
      "inputs": [
        {
          "indexed": true,
          "internalType": "address",
          "name": "account",
          "type": "address"
        }
      ],
      "name": "MinterAdded",
      "type": "event"
    },
    {
      "anonymous": false,
      "inputs": [
        {
          "indexed": true,
          "internalType": "address",
          "name": "account",
          "type": "address"
        }
      ],
      "name": "MinterRemoved",
      "type": "event"
    },
    {
      "anonymous": false,
      "inputs": [
        {
          "indexed": false,
          "internalType": "address",
          "name": "oldCCBurnRouter",
          "type": "address"
        },
        {
          "indexed": false,
          "internalType": "address",
          "name": "newCCBurnRouter",
          "type": "address"
        }
      ],
      "name": "NewCCBurnRouter",
      "type": "event"
    },
    {
      "anonymous": false,
      "inputs": [
        {
          "indexed": false,
          "internalType": "uint256",
          "name": "oldCollateralRatio",
          "type": "uint256"
        },
        {
          "indexed": false,
          "internalType": "uint256",
          "name": "newCollateralRatio",
          "type": "uint256"
        }
      ],
      "name": "NewCollateralRatio",
      "type": "event"
    },
    {
      "anonymous": false,
      "inputs": [
        {
          "indexed": false,
          "internalType": "address",
          "name": "oldExchangeConnector",
          "type": "address"
        },
        {
          "indexed": false,
          "internalType": "address",
          "name": "newExchangeConnector",
          "type": "address"
        }
      ],
      "name": "NewExchangeConnector",
      "type": "event"
    },
    {
      "anonymous": false,
      "inputs": [
        {
          "indexed": false,
          "internalType": "uint256",
          "name": "oldLiquidationRatio",
          "type": "uint256"
        },
        {
          "indexed": false,
          "internalType": "uint256",
          "name": "newLiquidationRatio",
          "type": "uint256"
        }
      ],
      "name": "NewLiquidationRatio",
      "type": "event"
    },
    {
      "anonymous": false,
      "inputs": [
        {
          "indexed": false,
          "internalType": "uint256",
          "name": "oldLockerPercentageFee",
          "type": "uint256"
        },
        {
          "indexed": false,
          "internalType": "uint256",
          "name": "newLockerPercentageFee",
          "type": "uint256"
        }
      ],
      "name": "NewLockerPercentageFee",
      "type": "event"
    },
    {
      "anonymous": false,
      "inputs": [
        {
          "indexed": false,
          "internalType": "uint256",
          "name": "oldMinRequiredTDTLockedAmount",
          "type": "uint256"
        },
        {
          "indexed": false,
          "internalType": "uint256",
          "name": "newMinRequiredTDTLockedAmount",
          "type": "uint256"
        }
      ],
      "name": "NewMinRequiredTDTLockedAmount",
      "type": "event"
    },
    {
      "anonymous": false,
      "inputs": [
        {
          "indexed": false,
          "internalType": "uint256",
          "name": "oldMinRequiredTNTLockedAmount",
          "type": "uint256"
        },
        {
          "indexed": false,
          "internalType": "uint256",
          "name": "newMinRequiredTNTLockedAmount",
          "type": "uint256"
        }
      ],
      "name": "NewMinRequiredTNTLockedAmount",
      "type": "event"
    },
    {
      "anonymous": false,
      "inputs": [
        {
          "indexed": false,
          "internalType": "address",
          "name": "oldPriceOracle",
          "type": "address"
        },
        {
          "indexed": false,
          "internalType": "address",
          "name": "newPriceOracle",
          "type": "address"
        }
      ],
      "name": "NewPriceOracle",
      "type": "event"
    },
    {
      "anonymous": false,
      "inputs": [
        {
          "indexed": false,
          "internalType": "uint256",
          "name": "oldPriceWithDiscountRatio",
          "type": "uint256"
        },
        {
          "indexed": false,
          "internalType": "uint256",
          "name": "newPriceWithDiscountRatio",
          "type": "uint256"
        }
      ],
      "name": "NewPriceWithDiscountRatio",
      "type": "event"
    },
    {
      "anonymous": false,
      "inputs": [
        {
          "indexed": false,
          "internalType": "address",
          "name": "oldTeleBTC",
          "type": "address"
        },
        {
          "indexed": false,
          "internalType": "address",
          "name": "newTeleBTC",
          "type": "address"
        }
      ],
      "name": "NewTeleBTC",
      "type": "event"
    },
    {
      "anonymous": false,
      "inputs": [
        {
          "indexed": false,
          "internalType": "address",
          "name": "oldTDTToken",
          "type": "address"
        },
        {
          "indexed": false,
          "internalType": "address",
          "name": "newTDTToken",
          "type": "address"
        }
      ],
      "name": "NewTeleportDAOToken",
      "type": "event"
    },
    {
      "anonymous": false,
      "inputs": [
        {
          "indexed": true,
          "internalType": "address",
          "name": "previousOwner",
          "type": "address"
        },
        {
          "indexed": true,
          "internalType": "address",
          "name": "newOwner",
          "type": "address"
        }
      ],
      "name": "OwnershipTransferred",
      "type": "event"
    },
    {
      "anonymous": false,
      "inputs": [
        {
          "indexed": false,
          "internalType": "address",
          "name": "account",
          "type": "address"
        }
      ],
      "name": "Paused",
      "type": "event"
    },
    {
      "anonymous": false,
      "inputs": [
        {
          "indexed": true,
          "internalType": "address",
          "name": "lockerTargetAddress",
          "type": "address"
        },
        {
          "indexed": false,
          "internalType": "bytes",
          "name": "lockerLockingScript",
          "type": "bytes"
        },
        {
          "indexed": false,
          "internalType": "uint256",
          "name": "TDTLockedAmount",
          "type": "uint256"
        },
        {
          "indexed": false,
          "internalType": "uint256",
          "name": "nativeTokenLockedAmount",
          "type": "uint256"
        }
      ],
      "name": "RequestAddLocker",
      "type": "event"
    },
    {
      "anonymous": false,
      "inputs": [
        {
          "indexed": true,
          "internalType": "address",
          "name": "lockerTargetAddress",
          "type": "address"
        },
        {
          "indexed": true,
          "internalType": "uint256",
          "name": "inactivationTimestamp",
          "type": "uint256"
        },
        {
          "indexed": false,
          "internalType": "bytes",
          "name": "lockerLockingScript",
          "type": "bytes"
        },
        {
          "indexed": false,
          "internalType": "uint256",
          "name": "TDTLockedAmount",
          "type": "uint256"
        },
        {
          "indexed": false,
          "internalType": "uint256",
          "name": "nativeTokenLockedAmount",
          "type": "uint256"
        },
        {
          "indexed": false,
          "internalType": "uint256",
          "name": "netMinted",
          "type": "uint256"
        }
      ],
      "name": "RequestInactivateLocker",
      "type": "event"
    },
    {
      "anonymous": false,
      "inputs": [
        {
          "indexed": true,
          "internalType": "address",
          "name": "lockerTargetAddress",
          "type": "address"
        },
        {
          "indexed": false,
          "internalType": "bytes",
          "name": "lockerLockingScript",
          "type": "bytes"
        },
        {
          "indexed": false,
          "internalType": "uint256",
          "name": "TDTLockedAmount",
          "type": "uint256"
        },
        {
          "indexed": false,
          "internalType": "uint256",
          "name": "nativeTokenLockedAmount",
          "type": "uint256"
        }
      ],
      "name": "RevokeAddLockerRequest",
      "type": "event"
    },
    {
      "anonymous": false,
      "inputs": [
        {
          "indexed": false,
          "internalType": "address",
          "name": "account",
          "type": "address"
        }
      ],
      "name": "Unpaused",
      "type": "event"
    },
    {
      "inputs": [],
      "name": "HEALTH_FACTOR",
      "outputs": [
        {
          "internalType": "uint256",
          "name": "",
          "type": "uint256"
        }
      ],
      "stateMutability": "view",
      "type": "function"
    },
    {
      "inputs": [],
      "name": "INACTIVATION_DELAY",
      "outputs": [
        {
          "internalType": "uint256",
          "name": "",
          "type": "uint256"
        }
      ],
      "stateMutability": "view",
      "type": "function"
    },
    {
      "inputs": [],
      "name": "MAX_LOCKER_FEE",
      "outputs": [
        {
          "internalType": "uint256",
          "name": "",
          "type": "uint256"
        }
      ],
      "stateMutability": "view",
      "type": "function"
    },
    {
      "inputs": [],
      "name": "NATIVE_TOKEN",
      "outputs": [
        {
          "internalType": "address",
          "name": "",
          "type": "address"
        }
      ],
      "stateMutability": "view",
      "type": "function"
    },
    {
      "inputs": [],
      "name": "NATIVE_TOKEN_DECIMAL",
      "outputs": [
        {
          "internalType": "uint256",
          "name": "",
          "type": "uint256"
        }
      ],
      "stateMutability": "view",
      "type": "function"
    },
    {
      "inputs": [],
      "name": "ONE_HUNDRED_PERCENT",
      "outputs": [
        {
          "internalType": "uint256",
          "name": "",
          "type": "uint256"
        }
      ],
      "stateMutability": "view",
      "type": "function"
    },
    {
      "inputs": [],
      "name": "TeleportDAOToken",
      "outputs": [
        {
          "internalType": "address",
          "name": "",
          "type": "address"
        }
      ],
      "stateMutability": "view",
      "type": "function"
    },
    {
      "inputs": [],
      "name": "UPPER_HEALTH_FACTOR",
      "outputs": [
        {
          "internalType": "uint256",
          "name": "",
          "type": "uint256"
        }
      ],
      "stateMutability": "view",
      "type": "function"
    },
    {
      "inputs": [
        {
          "internalType": "address",
          "name": "_account",
          "type": "address"
        }
      ],
      "name": "addBurner",
      "outputs": [],
      "stateMutability": "nonpayable",
      "type": "function"
    },
    {
      "inputs": [
        {
          "internalType": "address",
          "name": "_lockerTargetAddress",
          "type": "address"
        },
        {
          "internalType": "uint256",
          "name": "_addingNativeTokenAmount",
          "type": "uint256"
        }
      ],
      "name": "addCollateral",
      "outputs": [
        {
          "internalType": "bool",
          "name": "",
          "type": "bool"
        }
      ],
      "stateMutability": "payable",
      "type": "function"
    },
    {
      "inputs": [
        {
          "internalType": "address",
          "name": "_lockerTargetAddress",
          "type": "address"
        }
      ],
      "name": "addLocker",
      "outputs": [
        {
          "internalType": "bool",
          "name": "",
          "type": "bool"
        }
      ],
      "stateMutability": "nonpayable",
      "type": "function"
    },
    {
      "inputs": [
        {
          "internalType": "address",
          "name": "_account",
          "type": "address"
        }
      ],
      "name": "addMinter",
      "outputs": [],
      "stateMutability": "nonpayable",
      "type": "function"
    },
    {
      "inputs": [
        {
          "internalType": "bytes",
          "name": "_lockerLockingScript",
          "type": "bytes"
        },
        {
          "internalType": "uint256",
          "name": "_amount",
          "type": "uint256"
        }
      ],
      "name": "burn",
      "outputs": [
        {
          "internalType": "uint256",
          "name": "",
          "type": "uint256"
        }
      ],
      "stateMutability": "nonpayable",
      "type": "function"
    },
    {
      "inputs": [
        {
          "internalType": "address",
          "name": "_lockerTargetAddress",
          "type": "address"
        },
        {
          "internalType": "uint256",
          "name": "_collateralAmount",
          "type": "uint256"
        }
      ],
      "name": "buySlashedCollateralOfLocker",
      "outputs": [
        {
          "internalType": "bool",
          "name": "",
          "type": "bool"
        }
      ],
      "stateMutability": "nonpayable",
      "type": "function"
    },
    {
      "inputs": [],
      "name": "ccBurnRouter",
      "outputs": [
        {
          "internalType": "address",
          "name": "",
          "type": "address"
        }
      ],
      "stateMutability": "view",
      "type": "function"
    },
    {
      "inputs": [],
      "name": "collateralRatio",
      "outputs": [
        {
          "internalType": "uint256",
          "name": "",
          "type": "uint256"
        }
      ],
      "stateMutability": "view",
      "type": "function"
    },
    {
      "inputs": [],
      "name": "exchangeConnector",
      "outputs": [
        {
          "internalType": "address",
          "name": "",
          "type": "address"
        }
      ],
      "stateMutability": "view",
      "type": "function"
    },
    {
      "inputs": [
        {
          "internalType": "address",
          "name": "_lockerTargetAddress",
          "type": "address"
        }
      ],
      "name": "getLockerLockingScript",
      "outputs": [
        {
          "internalType": "bytes",
          "name": "",
          "type": "bytes"
        }
      ],
      "stateMutability": "view",
      "type": "function"
    },
    {
      "inputs": [
        {
          "internalType": "bytes",
          "name": "_lockerLockingScript",
          "type": "bytes"
        }
      ],
      "name": "getLockerTargetAddress",
      "outputs": [
        {
          "internalType": "address",
          "name": "",
          "type": "address"
        }
      ],
      "stateMutability": "view",
      "type": "function"
    },
    {
      "inputs": [],
      "name": "getNumberOfLockers",
      "outputs": [
        {
          "internalType": "uint256",
          "name": "",
          "type": "uint256"
        }
      ],
      "stateMutability": "view",
      "type": "function"
    },
    {
      "inputs": [
        {
          "internalType": "address",
          "name": "_teleBTC",
          "type": "address"
        },
        {
          "internalType": "address",
          "name": "_TeleportDAOToken",
          "type": "address"
        },
        {
          "internalType": "address",
          "name": "_exchangeConnector",
          "type": "address"
        },
        {
          "internalType": "address",
          "name": "_priceOracle",
          "type": "address"
        },
        {
          "internalType": "address",
          "name": "_ccBurnRouter",
          "type": "address"
        },
        {
          "internalType": "uint256",
          "name": "_minRequiredTDTLockedAmount",
          "type": "uint256"
        },
        {
          "internalType": "uint256",
          "name": "_minRequiredTNTLockedAmount",
          "type": "uint256"
        },
        {
          "internalType": "uint256",
          "name": "_collateralRatio",
          "type": "uint256"
        },
        {
          "internalType": "uint256",
          "name": "_liquidationRatio",
          "type": "uint256"
        },
        {
          "internalType": "uint256",
          "name": "_lockerPercentageFee",
          "type": "uint256"
        },
        {
          "internalType": "uint256",
          "name": "_priceWithDiscountRatio",
          "type": "uint256"
        }
      ],
      "name": "initialize",
      "outputs": [],
      "stateMutability": "nonpayable",
      "type": "function"
    },
    {
      "inputs": [
        {
          "internalType": "address",
          "name": "account",
          "type": "address"
        }
      ],
      "name": "isBurner",
      "outputs": [
        {
          "internalType": "bool",
          "name": "",
          "type": "bool"
        }
      ],
      "stateMutability": "view",
      "type": "function"
    },
    {
      "inputs": [
        {
          "internalType": "bytes",
          "name": "_lockerLockingScript",
          "type": "bytes"
        }
      ],
      "name": "isLocker",
      "outputs": [
        {
          "internalType": "bool",
          "name": "",
          "type": "bool"
        }
      ],
      "stateMutability": "view",
      "type": "function"
    },
    {
      "inputs": [
        {
          "internalType": "address",
          "name": "_lockerTargetAddress",
          "type": "address"
        }
      ],
      "name": "isLockerActive",
      "outputs": [
        {
          "internalType": "bool",
          "name": "",
          "type": "bool"
        }
      ],
      "stateMutability": "view",
      "type": "function"
    },
    {
      "inputs": [
        {
          "internalType": "address",
          "name": "account",
          "type": "address"
        }
      ],
      "name": "isMinter",
      "outputs": [
        {
          "internalType": "bool",
          "name": "",
          "type": "bool"
        }
      ],
      "stateMutability": "view",
      "type": "function"
    },
    {
      "inputs": [],
      "name": "libConstants",
      "outputs": [
        {
          "internalType": "uint256",
          "name": "OneHundredPercent",
          "type": "uint256"
        },
        {
          "internalType": "uint256",
          "name": "HealthFactor",
          "type": "uint256"
        },
        {
          "internalType": "uint256",
          "name": "UpperHealthFactor",
          "type": "uint256"
        },
        {
          "internalType": "uint256",
          "name": "MaxLockerFee",
          "type": "uint256"
        },
        {
          "internalType": "uint256",
          "name": "NativeTokenDecimal",
          "type": "uint256"
        },
        {
          "internalType": "address",
          "name": "NativeToken",
          "type": "address"
        }
      ],
      "stateMutability": "view",
      "type": "function"
    },
    {
      "inputs": [],
      "name": "libParams",
      "outputs": [
        {
          "internalType": "address",
          "name": "teleportDAOToken",
          "type": "address"
        },
        {
          "internalType": "address",
          "name": "teleBTC",
          "type": "address"
        },
        {
          "internalType": "address",
          "name": "ccBurnRouter",
          "type": "address"
        },
        {
          "internalType": "address",
          "name": "exchangeConnector",
          "type": "address"
        },
        {
          "internalType": "address",
          "name": "priceOracle",
          "type": "address"
        },
        {
          "internalType": "uint256",
          "name": "minRequiredTDTLockedAmount",
          "type": "uint256"
        },
        {
          "internalType": "uint256",
          "name": "minRequiredTNTLockedAmount",
          "type": "uint256"
        },
        {
          "internalType": "uint256",
          "name": "lockerPercentageFee",
          "type": "uint256"
        },
        {
          "internalType": "uint256",
          "name": "collateralRatio",
          "type": "uint256"
        },
        {
          "internalType": "uint256",
          "name": "liquidationRatio",
          "type": "uint256"
        },
        {
          "internalType": "uint256",
          "name": "priceWithDiscountRatio",
          "type": "uint256"
        },
        {
          "internalType": "uint256",
          "name": "inactivationDelay",
          "type": "uint256"
        }
      ],
      "stateMutability": "view",
      "type": "function"
    },
    {
      "inputs": [
        {
          "internalType": "address",
          "name": "_lockerTargetAddress",
          "type": "address"
        },
        {
          "internalType": "uint256",
          "name": "_collateralAmount",
          "type": "uint256"
        }
      ],
      "name": "liquidateLocker",
      "outputs": [
        {
          "internalType": "bool",
          "name": "",
          "type": "bool"
        }
      ],
      "stateMutability": "nonpayable",
      "type": "function"
    },
    {
      "inputs": [],
      "name": "liquidationRatio",
      "outputs": [
        {
          "internalType": "uint256",
          "name": "",
          "type": "uint256"
        }
      ],
      "stateMutability": "view",
      "type": "function"
    },
    {
      "inputs": [
        {
          "internalType": "address",
          "name": "",
          "type": "address"
        }
      ],
      "name": "lockerInactivationTimestamp",
      "outputs": [
        {
          "internalType": "uint256",
          "name": "",
          "type": "uint256"
        }
      ],
      "stateMutability": "view",
      "type": "function"
    },
    {
      "inputs": [
        {
          "internalType": "address",
          "name": "",
          "type": "address"
        }
      ],
      "name": "lockerLeavingAcceptance",
      "outputs": [
        {
          "internalType": "bool",
          "name": "",
          "type": "bool"
        }
      ],
      "stateMutability": "view",
      "type": "function"
    },
    {
      "inputs": [],
      "name": "lockerPercentageFee",
      "outputs": [
        {
          "internalType": "uint256",
          "name": "",
          "type": "uint256"
        }
      ],
      "stateMutability": "view",
      "type": "function"
    },
    {
      "inputs": [
        {
          "internalType": "bytes",
          "name": "",
          "type": "bytes"
        }
      ],
      "name": "lockerTargetAddress",
      "outputs": [
        {
          "internalType": "address",
          "name": "",
          "type": "address"
        }
      ],
      "stateMutability": "view",
      "type": "function"
    },
    {
      "inputs": [
        {
          "internalType": "address",
          "name": "",
          "type": "address"
        }
      ],
      "name": "lockersMapping",
      "outputs": [
        {
          "internalType": "bytes",
          "name": "lockerLockingScript",
          "type": "bytes"
        },
        {
          "internalType": "enum ScriptTypes",
          "name": "lockerRescueType",
          "type": "uint8"
        },
        {
          "internalType": "bytes",
          "name": "lockerRescueScript",
          "type": "bytes"
        },
        {
          "internalType": "uint256",
          "name": "TDTLockedAmount",
          "type": "uint256"
        },
        {
          "internalType": "uint256",
          "name": "nativeTokenLockedAmount",
          "type": "uint256"
        },
        {
          "internalType": "uint256",
          "name": "netMinted",
          "type": "uint256"
        },
        {
          "internalType": "uint256",
          "name": "slashingTeleBTCAmount",
          "type": "uint256"
        },
        {
          "internalType": "uint256",
          "name": "reservedNativeTokenForSlash",
          "type": "uint256"
        },
        {
          "internalType": "bool",
          "name": "isLocker",
          "type": "bool"
        },
        {
          "internalType": "bool",
          "name": "isCandidate",
          "type": "bool"
        },
        {
          "internalType": "bool",
          "name": "isScriptHash",
          "type": "bool"
        }
      ],
      "stateMutability": "view",
      "type": "function"
    },
    {
      "inputs": [],
      "name": "minRequiredTDTLockedAmount",
      "outputs": [
        {
          "internalType": "uint256",
          "name": "",
          "type": "uint256"
        }
      ],
      "stateMutability": "view",
      "type": "function"
    },
    {
      "inputs": [],
      "name": "minRequiredTNTLockedAmount",
      "outputs": [
        {
          "internalType": "uint256",
          "name": "",
          "type": "uint256"
        }
      ],
      "stateMutability": "view",
      "type": "function"
    },
    {
      "inputs": [
        {
          "internalType": "bytes",
          "name": "_lockerLockingScript",
          "type": "bytes"
        },
        {
          "internalType": "address",
          "name": "_receiver",
          "type": "address"
        },
        {
          "internalType": "uint256",
          "name": "_amount",
          "type": "uint256"
        }
      ],
      "name": "mint",
      "outputs": [
        {
          "internalType": "uint256",
          "name": "",
          "type": "uint256"
        }
      ],
      "stateMutability": "nonpayable",
      "type": "function"
    },
    {
      "inputs": [],
      "name": "owner",
      "outputs": [
        {
          "internalType": "address",
          "name": "",
          "type": "address"
        }
      ],
      "stateMutability": "view",
      "type": "function"
    },
    {
      "inputs": [],
      "name": "pauseLocker",
      "outputs": [],
      "stateMutability": "nonpayable",
      "type": "function"
    },
    {
      "inputs": [],
      "name": "paused",
      "outputs": [
        {
          "internalType": "bool",
          "name": "",
          "type": "bool"
        }
      ],
      "stateMutability": "view",
      "type": "function"
    },
    {
      "inputs": [],
      "name": "priceOfOneUnitOfCollateralInBTC",
      "outputs": [
        {
          "internalType": "uint256",
          "name": "",
          "type": "uint256"
        }
      ],
      "stateMutability": "view",
      "type": "function"
    },
    {
      "inputs": [],
      "name": "priceOracle",
      "outputs": [
        {
          "internalType": "address",
          "name": "",
          "type": "address"
        }
      ],
      "stateMutability": "view",
      "type": "function"
    },
    {
      "inputs": [],
      "name": "priceWithDiscountRatio",
      "outputs": [
        {
          "internalType": "uint256",
          "name": "",
          "type": "uint256"
        }
      ],
      "stateMutability": "view",
      "type": "function"
    },
    {
      "inputs": [
        {
          "internalType": "address",
          "name": "_account",
          "type": "address"
        }
      ],
      "name": "removeBurner",
      "outputs": [],
      "stateMutability": "nonpayable",
      "type": "function"
    },
    {
      "inputs": [
        {
          "internalType": "uint256",
          "name": "_removingNativeTokenAmount",
          "type": "uint256"
        }
      ],
      "name": "removeCollateral",
      "outputs": [
        {
          "internalType": "bool",
          "name": "",
          "type": "bool"
        }
      ],
      "stateMutability": "payable",
      "type": "function"
    },
    {
      "inputs": [
        {
          "internalType": "address",
          "name": "_account",
          "type": "address"
        }
      ],
      "name": "removeMinter",
      "outputs": [],
      "stateMutability": "nonpayable",
      "type": "function"
    },
    {
      "inputs": [],
      "name": "renounceOwnership",
      "outputs": [],
      "stateMutability": "nonpayable",
      "type": "function"
    },
    {
      "inputs": [],
      "name": "requestActivation",
      "outputs": [
        {
          "internalType": "bool",
          "name": "",
          "type": "bool"
        }
      ],
      "stateMutability": "nonpayable",
      "type": "function"
    },
    {
      "inputs": [],
      "name": "requestInactivation",
      "outputs": [
        {
          "internalType": "bool",
          "name": "",
          "type": "bool"
        }
      ],
      "stateMutability": "nonpayable",
      "type": "function"
    },
    {
      "inputs": [
        {
          "internalType": "bytes",
          "name": "_candidateLockingScript",
          "type": "bytes"
        },
        {
          "internalType": "uint256",
          "name": "_lockedTDTAmount",
          "type": "uint256"
        },
        {
          "internalType": "uint256",
          "name": "_lockedNativeTokenAmount",
          "type": "uint256"
        },
        {
          "internalType": "enum ScriptTypes",
          "name": "_lockerRescueType",
          "type": "uint8"
        },
        {
          "internalType": "bytes",
          "name": "_lockerRescueScript",
          "type": "bytes"
        }
      ],
      "name": "requestToBecomeLocker",
      "outputs": [
        {
          "internalType": "bool",
          "name": "",
          "type": "bool"
        }
      ],
      "stateMutability": "payable",
      "type": "function"
    },
    {
      "inputs": [],
      "name": "revokeRequest",
      "outputs": [
        {
          "internalType": "bool",
          "name": "",
          "type": "bool"
        }
      ],
      "stateMutability": "nonpayable",
      "type": "function"
    },
    {
      "inputs": [],
      "name": "selfRemoveLocker",
      "outputs": [
        {
          "internalType": "bool",
          "name": "",
          "type": "bool"
        }
      ],
      "stateMutability": "nonpayable",
      "type": "function"
    },
    {
      "inputs": [
        {
          "internalType": "address",
          "name": "_ccBurnRouter",
          "type": "address"
        }
      ],
      "name": "setCCBurnRouter",
      "outputs": [],
      "stateMutability": "nonpayable",
      "type": "function"
    },
    {
      "inputs": [
        {
          "internalType": "uint256",
          "name": "_collateralRatio",
          "type": "uint256"
        }
      ],
      "name": "setCollateralRatio",
      "outputs": [],
      "stateMutability": "nonpayable",
      "type": "function"
    },
    {
      "inputs": [
        {
          "internalType": "address",
          "name": "_exchangeConnector",
          "type": "address"
        }
      ],
      "name": "setExchangeConnector",
      "outputs": [],
      "stateMutability": "nonpayable",
      "type": "function"
    },
    {
      "inputs": [
        {
          "internalType": "uint256",
          "name": "_liquidationRatio",
          "type": "uint256"
        }
      ],
      "name": "setLiquidationRatio",
      "outputs": [],
      "stateMutability": "nonpayable",
      "type": "function"
    },
    {
      "inputs": [
        {
          "internalType": "uint256",
          "name": "_lockerPercentageFee",
          "type": "uint256"
        }
      ],
      "name": "setLockerPercentageFee",
      "outputs": [],
      "stateMutability": "nonpayable",
      "type": "function"
    },
    {
      "inputs": [
        {
          "internalType": "uint256",
          "name": "_minRequiredTDTLockedAmount",
          "type": "uint256"
        }
      ],
      "name": "setMinRequiredTDTLockedAmount",
      "outputs": [],
      "stateMutability": "nonpayable",
      "type": "function"
    },
    {
      "inputs": [
        {
          "internalType": "uint256",
          "name": "_minRequiredTNTLockedAmount",
          "type": "uint256"
        }
      ],
      "name": "setMinRequiredTNTLockedAmount",
      "outputs": [],
      "stateMutability": "nonpayable",
      "type": "function"
    },
    {
      "inputs": [
        {
          "internalType": "address",
          "name": "_priceOracle",
          "type": "address"
        }
      ],
      "name": "setPriceOracle",
      "outputs": [],
      "stateMutability": "nonpayable",
      "type": "function"
    },
    {
      "inputs": [
        {
          "internalType": "uint256",
          "name": "_priceWithDiscountRatio",
          "type": "uint256"
        }
      ],
      "name": "setPriceWithDiscountRatio",
      "outputs": [],
      "stateMutability": "nonpayable",
      "type": "function"
    },
    {
      "inputs": [
        {
          "internalType": "address",
          "name": "_teleBTC",
          "type": "address"
        }
      ],
      "name": "setTeleBTC",
      "outputs": [],
      "stateMutability": "nonpayable",
      "type": "function"
    },
    {
      "inputs": [
        {
          "internalType": "address",
          "name": "_tdtTokenAddress",
          "type": "address"
        }
      ],
      "name": "setTeleportDAOToken",
      "outputs": [],
      "stateMutability": "nonpayable",
      "type": "function"
    },
    {
      "inputs": [
        {
          "internalType": "address",
          "name": "_lockerTargetAddress",
          "type": "address"
        },
        {
          "internalType": "uint256",
          "name": "_rewardAmount",
          "type": "uint256"
        },
        {
          "internalType": "address",
          "name": "_rewardRecipient",
          "type": "address"
        },
        {
          "internalType": "uint256",
          "name": "_amount",
          "type": "uint256"
        },
        {
          "internalType": "address",
          "name": "_recipient",
          "type": "address"
        }
      ],
      "name": "slashIdleLocker",
      "outputs": [
        {
          "internalType": "bool",
          "name": "",
          "type": "bool"
        }
      ],
      "stateMutability": "nonpayable",
      "type": "function"
    },
    {
      "inputs": [
        {
          "internalType": "address",
          "name": "_lockerTargetAddress",
          "type": "address"
        },
        {
          "internalType": "uint256",
          "name": "_rewardAmount",
          "type": "uint256"
        },
        {
          "internalType": "address",
          "name": "_rewardRecipient",
          "type": "address"
        },
        {
          "internalType": "uint256",
          "name": "_amount",
          "type": "uint256"
        }
      ],
      "name": "slashThiefLocker",
      "outputs": [
        {
          "internalType": "bool",
          "name": "",
          "type": "bool"
        }
      ],
      "stateMutability": "nonpayable",
      "type": "function"
    },
    {
      "inputs": [],
      "name": "teleBTC",
      "outputs": [
        {
          "internalType": "address",
          "name": "",
          "type": "address"
        }
      ],
      "stateMutability": "view",
      "type": "function"
    },
    {
      "inputs": [],
      "name": "totalNumberOfCandidates",
      "outputs": [
        {
          "internalType": "uint256",
          "name": "",
          "type": "uint256"
        }
      ],
      "stateMutability": "view",
      "type": "function"
    },
    {
      "inputs": [],
      "name": "totalNumberOfLockers",
      "outputs": [
        {
          "internalType": "uint256",
          "name": "",
          "type": "uint256"
        }
      ],
      "stateMutability": "view",
      "type": "function"
    },
    {
      "inputs": [
        {
          "internalType": "address",
          "name": "newOwner",
          "type": "address"
        }
      ],
      "name": "transferOwnership",
      "outputs": [],
      "stateMutability": "nonpayable",
      "type": "function"
    },
    {
      "inputs": [],
      "name": "unPauseLocker",
      "outputs": [],
      "stateMutability": "nonpayable",
      "type": "function"
    }
  ],
  "transactionHash": "0x05d86211465caedf17813cbabb1d3f5b17e9881ca0b3a77db16aaf43c91af504",
  "args": [],
  "numDeployments": 1,
  "solcInputHash": "b721f783c7cfe9df8d196e56c18fd3f0",
  "bytecode": "0x608060405234801561001057600080fd5b50615ff480620000216000396000f3fe6080604052600436106104655760003560e01c80637da5f0da11610243578063b4eae1cb11610143578063dd0081c7116100bb578063ee1f1c701161008a578063f2fde38b1161006f578063f2fde38b14610d0c578063f44637ba14610d2c578063ffc9f70414610d4c57610465565b8063ee1f1c7014610cd7578063ef69a7bc14610cf757610465565b8063dd0081c7146106dd578063e85501d814610c97578063e955de4514610cac578063ed110a9c14610cc157610465565b8063c0924b8011610112578063cab1344e116100f7578063cab1344e14610bed578063cdcbc87914610c0d578063dc04442214610c7757610465565b8063c0924b8014610bad578063c4d10b6a14610bcd57610465565b8063b4eae1cb14610a9c578063b734de2614610ab2578063bc805d1d14610ad2578063bd60e79414610ae857610465565b8063983b2d56116101d6578063af1ea795116101a5578063b1016bdf1161018a578063b1016bdf14610a5e578063b291ec1314610a71578063b430225814610a8757610465565b8063af1ea79514610a07578063aff2faa314610a3e57610465565b8063983b2d56146109875780639bf09882146109a7578063a839db24146109c7578063aa271e1a146109e757610465565b80638da5cb5b116102125780638da5cb5b146109095780638fe85fe714610927578063946ce8cd1461094757806396ec39e81461096757610465565b80637da5f0da146108835780637f0f1817146108b357806388aa0a52146108d35780638d3d78cd146108e957610465565b806345cc5890116103695780636136c21f116102e15780636a030fc3116102b05780636d75b9ee116102955780636d75b9ee1461085b578063715018a61461086e578063768ebb12146106dd57610465565b80636a030fc3146108255780636d32395c1461084557610465565b80636136c21f146107ad578063613e2e1e146107da57806363908020146107ef5780636600203d1461080557610465565b80635a8d80b8116103385780635d6464ba1161031d5780635d6464ba146107405780635f04fa261461076d5780636060663e1461078d57610465565b80635a8d80b8146107085780635c975abb1461072857610465565b806345cc58901461069d578063530e784f146106bd57806354509b97146106dd57806359bb9189146106f357610465565b80632f5b04ac116103fc57806338463cff116103cb57806341fae579116103b057806341fae579146106475780634334614a1461065d57806343b937071461067d57610465565b806338463cff146105e657806341f3ec111461060657610465565b80632f5b04ac146105875780633092afd51461059e57806331f7d964146105be5780633237c158146105d357610465565b80631775765f116104385780631775765f1461051c5780631fcfe19c146105325780632630c12f14610552578063264db4ae1461057257610465565b8063028468581461046a5780630c42cbc91461048c578063108f438d146104b45780631697565b146104ec575b600080fd5b34801561047657600080fd5b5061048a6104853660046153c3565b610d61565b005b34801561049857600080fd5b506104a1601281565b6040519081526020015b60405180910390f35b3480156104c057600080fd5b506000546104d4906001600160a01b031681565b6040516001600160a01b0390911681526020016104ab565b3480156104f857600080fd5b5061050c6105073660046154e5565b610e5e565b60405190151581526020016104ab565b34801561052857600080fd5b506104a160095481565b34801561053e57600080fd5b506104a161054d36600461559b565b6110d6565b34801561055e57600080fd5b506004546104d4906001600160a01b031681565b34801561057e57600080fd5b506104a1611582565b34801561059357600080fd5b506104a16205460081565b3480156105aa57600080fd5b5061048a6105b93660046153c3565b611616565b3480156105ca57600080fd5b506104d4600181565b61050c6105e1366004615781565b61170e565b3480156105f257600080fd5b506104a16106013660046155f5565b6119ac565b34801561061257600080fd5b506104d46106213660046156d7565b80516020818301810180516010825292820191909301209152546001600160a01b031681565b34801561065357600080fd5b506104a160055481565b34801561066957600080fd5b5061050c6106783660046153c3565b611e31565b34801561068957600080fd5b5061050c610698366004615479565b611e9d565b3480156106a957600080fd5b5061050c6106b83660046153c3565b612137565b3480156106c957600080fd5b5061048a6106d83660046153c3565b6122ff565b3480156106e957600080fd5b506104a161271081565b3480156106ff57600080fd5b5061050c6123c3565b34801561071457600080fd5b506002546104d4906001600160a01b031681565b34801561073457600080fd5b5060bc5460ff1661050c565b34801561074c57600080fd5b5061076061075b3660046153c3565b612546565b6040516104ab9190615a2b565b34801561077957600080fd5b5061048a6107883660046153dd565b612636565b34801561079957600080fd5b5061048a6107a8366004615781565b61284f565b3480156107b957600080fd5b506104a16107c83660046153c3565b600e6020526000908152604090205481565b3480156107e657600080fd5b5061048a6128ee565b3480156107fb57600080fd5b506104a160075481565b34801561081157600080fd5b5061048a610820366004615781565b612900565b34801561083157600080fd5b5061050c6108403660046153c3565b6129a0565b34801561085157600080fd5b506104a160065481565b61050c610869366004615479565b612a3f565b34801561087a57600080fd5b5061048a612b59565b34801561088f57600080fd5b5061050c61089e3660046153c3565b600f6020526000908152604090205460ff1681565b3480156108bf57600080fd5b5061048a6108ce3660046153c3565b612b61565b3480156108df57600080fd5b506104a1600b5481565b3480156108f557600080fd5b506001546104d4906001600160a01b031681565b34801561091557600080fd5b506058546001600160a01b03166104d4565b34801561093357600080fd5b5061048a610942366004615781565b612c25565b34801561095357600080fd5b5061048a610962366004615781565b612cc5565b34801561097357600080fd5b5061050c610982366004615479565b612d64565b34801561099357600080fd5b5061048a6109a23660046153c3565b6132f6565b3480156109b357600080fd5b5061048a6109c2366004615781565b6133f0565b3480156109d357600080fd5b5061048a6109e2366004615781565b61343e565b3480156109f357600080fd5b5061050c610a023660046153c3565b6134d9565b348015610a1357600080fd5b50610a27610a223660046153c3565b613540565b6040516104ab9b9a99989796959493929190615a3e565b348015610a4a57600080fd5b5061050c610a5936600461555b565b6136b8565b61050c610a6c36600461563f565b613706565b348015610a7d57600080fd5b506104a1600a5481565b348015610a9357600080fd5b5061050c61384c565b348015610aa857600080fd5b506104a160085481565b348015610abe57600080fd5b5061050c610acd3660046154a2565b61393f565b348015610ade57600080fd5b506104a16130d481565b348015610af457600080fd5b50601954601a54601b54601c54601d54601e54601f54602054602154602254602354602454610b3d9b6001600160a01b039081169b81169a81169981169816969594939291908c565b604080516001600160a01b039d8e1681529b8d1660208d0152998c16998b0199909952968a1660608a015298909416608088015260a087019290925260c086015260e0850152610100840152610120830193909352610140820192909252610160810191909152610180016104ab565b348015610bb957600080fd5b506003546104d4906001600160a01b031681565b348015610bd957600080fd5b506104d4610be836600461555b565b613b40565b348015610bf957600080fd5b5061048a610c083660046153c3565b613b75565b348015610c1957600080fd5b50601354601454601554601654601754601854610c419594939291906001600160a01b031686565b60408051968752602087019590955293850192909252606084015260808301526001600160a01b031660a082015260c0016104ab565b348015610c8357600080fd5b5061048a610c923660046153c3565b613c39565b348015610ca357600080fd5b5061050c613cfd565b348015610cb857600080fd5b5061048a614070565b348015610ccd57600080fd5b506104a1600c5481565b348015610ce357600080fd5b5061048a610cf23660046153c3565b614080565b348015610d0357600080fd5b50600c546104a1565b348015610d1857600080fd5b5061048a610d273660046153c3565b6141e6565b348015610d3857600080fd5b5061048a610d473660046153c3565b614276565b348015610d5857600080fd5b5061050c614370565b806001600160a01b038116610dab5760405162461bcd60e51b81526020600482015260186024820152600080516020615f9f83398151915260448201526064015b60405180910390fd5b610db36147da565b610dbc82611e31565b610e145760405162461bcd60e51b815260206004820152602360248201527f4c6f636b6572733a206163636f756e7420646f6573206e6f74206861766520726044820152626f6c6560e81b6064820152608401610da2565b6001600160a01b038216600081815260126020526040808220805460ff19169055517f90eabbc0c667db2a5029ed6bc0f5fe9f356d11684a4ca9fcfaec0e53f12b9c8e9190a25050565b6000610e68614834565b610e7061488e565b6002546001600160a01b0316336001600160a01b031614610ee15760405162461bcd60e51b815260206004820152602560248201527f4c6f636b6572733a206d6573736167652073656e646572206973206e6f74206360448201526431a13ab93760d91b6064820152608401610da2565b6001600160a01b0386166000908152600d602052604080822090517f6fdf700f00000000000000000000000000000000000000000000000000000000815273ab794c3A4E36eD8bFfe8fB72CF871E204C59A96891636fdf700f91610f5291906013906019908c908b90600401615c07565b60206040518083038186803b158015610f6a57600080fd5b505af4158015610f7e573d6000803e3d6000fd5b505050506040513d601f19601f82011682018060405250810190610fa29190615799565b90506001600160a01b0383166108fc610fbb8887615d8f565b610fc58785615edb565b610fcf9190615da7565b6040518115909202916000818181858888f19350505050158015610ff7573d6000803e3d6000fd5b5060006110048786615d8f565b61100e8684615edb565b6110189190615da7565b6110229083615efa565b6040519091506001600160a01b0387169082156108fc029083906000818181858888f1935050505015801561105b573d6000803e3d6000fd5b506040805182815260208101879052908101839052426060820152600160808201526001600160a01b0380861691888216918b16907fab522c1322c34ea455e8f541ecfe1b73a29039f3658bff658cf12c9fd26dc0169060a00160405180910390a46001925050506110cd6001608a55565b95945050505050565b6000826001600160a01b03811661111d5760405162461bcd60e51b81526020600482015260186024820152600080516020615f9f8339815191526044820152606401610da2565b826000811161116e5760405162461bcd60e51b815260206004820152601660248201527f4c6f636b6572733a2076616c7565206973207a65726f000000000000000000006044820152606401610da2565b611176614834565b61117e61488e565b61118733610a02565b6111d35760405162461bcd60e51b815260206004820152601e60248201527f4c6f636b6572733a206f6e6c79206d696e746572732063616e206d696e7400006044820152606401610da2565b6000601088886040516111e7929190615969565b908152604051908190036020019020546001600160a01b031690508061123d5760405162461bcd60e51b81526020600482015260186024820152600080516020615f9f8339815191526044820152606401610da2565b6001600160a01b0381166000908152600d6020526040808220600581015491517f724113de00000000000000000000000000000000000000000000000000000000815273ab794c3A4E36eD8bFfe8fB72CF871E204C59A9689263724113de926112b3929091601391601991908d90600401615c07565b60206040518083038186803b1580156112cb57600080fd5b505af41580156112df573d6000803e3d6000fd5b505050506040513d601f19601f820116820180604052508101906113039190615799565b905061130e826129a0565b61135a5760405162461bcd60e51b815260206004820152601360248201527f4c6f636b6572733a206e6f7420616374697665000000000000000000000000006044820152606401610da2565b6001600160a01b0382166000908152600d6020526040902060050154611381908790615d8f565b6001600160a01b0383166000908152600d6020526040812060050191909155600754612710906113b19089615edb565b6113bb9190615da7565b90508015611464576001546040517f40c10f190000000000000000000000000000000000000000000000000000000081526001600160a01b03858116600483015260248201849052909116906340c10f1990604401602060405180830381600087803b15801561142a57600080fd5b505af115801561143e573d6000803e3d6000fd5b505050506040513d601f19601f82011682018060405250810190611462919061553b565b505b6001546001600160a01b03166340c10f1989611480848b615efa565b6040516001600160e01b031960e085901b1681526001600160a01b0390921660048301526024820152604401602060405180830381600087803b1580156114c657600080fd5b505af11580156114da573d6000803e3d6000fd5b505050506040513d601f19601f820116820180604052508101906114fe919061553b565b50876001600160a01b0316836001600160a01b03167f8ad706b338c5d2a20b0d038b5cfdaf2b2f943f43048723bde0dccdf129598a11898442604051611557939291909283526020830191909152604082015260600190565b60405180910390a36115698188615efa565b95505050506115786001608a55565b5050949350505050565b60405163309376db60e11b815260009073ab794c3A4E36eD8bFfe8fB72CF871E204C59A96890636126edb6906115c090601390601990600401615cf3565b60206040518083038186803b1580156115d857600080fd5b505af41580156115ec573d6000803e3d6000fd5b505050506040513d601f19601f820116820180604052508101906116109190615799565b90505b90565b806001600160a01b03811661165b5760405162461bcd60e51b81526020600482015260186024820152600080516020615f9f8339815191526044820152606401610da2565b6116636147da565b61166c826134d9565b6116c45760405162461bcd60e51b815260206004820152602360248201527f4c6f636b6572733a206163636f756e7420646f6573206e6f74206861766520726044820152626f6c6560e81b6064820152608401610da2565b6001600160a01b038216600081815260116020526040808220805460ff19169055517fe94479a9f7e1952cc78f2d6baab678adc1b772d936c6583def489e524cb666929190a25050565b6000611718614834565b336000908152600d602052604090206008015460ff1661177a5760405162461bcd60e51b815260206004820152601260248201527f4c6f636b6572733a206e6f206c6f636b657200000000000000000000000000006044820152606401610da2565b61178333610840565b156117d05760405162461bcd60e51b815260206004820152601560248201527f4c6f636b6572733a207374696c6c2061637469766500000000000000000000006044820152606401610da2565b60405163309376db60e11b815260009073ab794c3A4E36eD8bFfe8fB72CF871E204C59A96890636126edb69061180e90601390601990600401615cf3565b60206040518083038186803b15801561182657600080fd5b505af415801561183a573d6000803e3d6000fd5b505050506040513d601f19601f8201168201806040525081019061185e9190615799565b336000908152600d6020908152604091829020825160c08082018552601354825260145482850152601554828601526016546060808401919091526017546080808501919091526018546001600160a01b0390811660a080870191909152885161018081018a5260195483168152601a548316818a0152601b54831699810199909952601c54821693890193909352601d541690870152601e5490860152601f5490850152915460e084015260215461010084015260225461012084015260235461014084015260245461016084015292935061193d929184876148e8565b6119473384614ae0565b336000818152600d602090815260409182902060040154825187815291820152428183015290517f93ae1c71197ee1bd2ad44b7d57e7b34ca946aeb88fdb4fc4a45211dbeb2c3cc79181900360600190a260019150506119a76001608a55565b919050565b600081600081116119ff5760405162461bcd60e51b815260206004820152601660248201527f4c6f636b6572733a2076616c7565206973207a65726f000000000000000000006044820152606401610da2565b611a07614834565b611a0f61488e565b611a1833610678565b611a645760405162461bcd60e51b815260206004820152601e60248201527f4c6f636b6572733a206f6e6c79206275726e6572732063616e206275726e00006044820152606401610da2565b600060108686604051611a78929190615969565b908152604051908190036020019020546001546001600160a01b039182169250166323b872dd611aa53390565b6040516001600160e01b031960e084901b1681526001600160a01b03909116600482015230602482015260448101879052606401602060405180830381600087803b158015611af357600080fd5b505af1158015611b07573d6000803e3d6000fd5b505050506040513d601f19601f82011682018060405250810190611b2b919061553b565b611b775760405162461bcd60e51b815260206004820152601c60248201527f4c6f636b6572733a207472616e7366657246726f6d206661696c6564000000006044820152606401610da2565b600061271060075486611b8a9190615edb565b611b949190615da7565b90506000611ba28287615efa565b6001600160a01b0384166000908152600d602052604090206005015490915081811015611c115760405162461bcd60e51b815260206004820152601b60248201527f4c6f636b6572733a20696e73756666696369656e742066756e647300000000006044820152606401610da2565b611c1b8282615efa565b6001600160a01b038581166000908152600d602052604090819020600501929092556001549151630852cd8d60e31b8152600481018590529116906342966c6890602401602060405180830381600087803b158015611c7957600080fd5b505af1158015611c8d573d6000803e3d6000fd5b505050506040513d601f19601f82011682018060405250810190611cb1919061553b565b611cfd5760405162461bcd60e51b815260206004820152601460248201527f4c6f636b6572733a206275726e206661696c65640000000000000000000000006044820152606401610da2565b60015460405163a9059cbb60e01b81526001600160a01b038681166004830152602482018690529091169063a9059cbb90604401602060405180830381600087803b158015611d4b57600080fd5b505af1158015611d5f573d6000803e3d6000fd5b505050506040513d601f19601f82011682018060405250810190611d83919061553b565b611dcf5760405162461bcd60e51b815260206004820152601960248201527f4c6f636b6572733a206c6f636b6572466565206661696c6564000000000000006044820152606401610da2565b6040805188815260208101859052428183015290516001600160a01b038616917f66fb54322c407b04a077a306e72cdd780f0f374ba5dac9f6901a56a6255bc34a919081900360600190a25093505050611e296001608a55565b509392505050565b6000816001600160a01b038116611e785760405162461bcd60e51b81526020600482015260186024820152600080516020615f9f8339815191526044820152606401610da2565b6001600160a01b03831660009081526012602052604090205460ff1691505b50919050565b6000826001600160a01b038116611ee45760405162461bcd60e51b81526020600482015260186024820152600080516020615f9f8339815191526044820152606401610da2565b611eec614834565b611ef461488e565b6001600160a01b0384166000908152600d602052604080822090517ffe48171600000000000000000000000000000000000000000000000000000000815260048101919091526024810185905273ab794c3A4E36eD8bFfe8fB72CF871E204C59A9689063fe4817169060440160206040518083038186803b158015611f7857600080fd5b505af4158015611f8c573d6000803e3d6000fd5b505050506040513d601f19601f82011682018060405250810190611fb09190615799565b6001549091506001600160a01b03166323b872dd336040516001600160e01b031960e084901b1681526001600160a01b03909116600482015230602482015260448101849052606401602060405180830381600087803b15801561201357600080fd5b505af1158015612027573d6000803e3d6000fd5b505050506040513d601f19601f8201168201806040525081019061204b919061553b565b50600154604051630852cd8d60e31b8152600481018390526001600160a01b03909116906342966c6890602401602060405180830381600087803b15801561209257600080fd5b505af11580156120a6573d6000803e3d6000fd5b505050506040513d601f19601f820116820180604052508101906120ca919061553b565b506120d53385614ae0565b60408051858152602081018390524281830152905133916001600160a01b038816917fd03400b15a5f4cddbc57f0e81bca31db33e4d1ed1390211eade3518bce70562e9181900360600190a360019250506121306001608a55565b5092915050565b6000816001600160a01b03811661217e5760405162461bcd60e51b81526020600482015260186024820152600080516020615f9f8339815191526044820152606401610da2565b612186614834565b61218e6147da565b6001600160a01b0383166000908152600d6020526040902060080154610100900460ff166121fe5760405162461bcd60e51b815260206004820152601360248201527f4c6f636b6572733a206e6f2072657175657374000000000000000000000000006044820152606401610da2565b6001600160a01b0383166000908152600d60205260409020600801805461ffff19166001908117909155600b546122359190615efa565b600b55600c54612246906001615d8f565b600c556001600160a01b0383166000908152600d602052604090819020905184916010916122749190615995565b908152604080516020928190038301812080546001600160a01b0319166001600160a01b039586161790559286166000818152600d90935291206003810154600482015492937f3840128cd2c146a0ea7739b8440e824c6d2d498ae32274812561d689d751e75e936122e99392914290615af5565b60405180910390a260019150611e976001608a55565b806001600160a01b0381166123445760405162461bcd60e51b81526020600482015260186024820152600080516020615f9f8339815191526044820152606401610da2565b61234c6147da565b600454604080516001600160a01b03928316815291841660208301527fd52b2b9b7e9ee655fcb95d2e5b9e0c9f69e7ef2b8e9d2d0ea78402d576d22e22910160405180910390a150600480546001600160a01b03199081166001600160a01b039384161791829055601d8054929093169116179055565b60006123cd614834565b336000908152600d602052604090206008015460ff166124445760405162461bcd60e51b815260206004820152602c60248201527f4c6f636b6572733a20696e7075742061646472657373206973206e6f7420612060448201526b3b30b634b2103637b1b5b2b960a11b6064820152608401610da2565b336000908152600e6020526040902054156124c75760405162461bcd60e51b815260206004820152602560248201527f4c6f636b6572733a206c6f636b65722068617320616c7265616479207265717560448201527f65737465640000000000000000000000000000000000000000000000000000006064820152608401610da2565b6124d46205460042615d8f565b336000818152600e60209081526040808320859055600d9091529081902060038101546004820154600583015493517f59e9b7bdd325b1dd9fe5b91f457f74d4b3d58263580ae84d6be1f451bbc2851f9461253194939291615af5565b60405180910390a35060016116136001608a55565b6060816001600160a01b03811661258d5760405162461bcd60e51b81526020600482015260186024820152600080516020615f9f8339815191526044820152606401610da2565b6001600160a01b0383166000908152600d6020526040902080546125b090615f3d565b80601f01602080910402602001604051908101604052809291908181526020018280546125dc90615f3d565b80156126295780601f106125fe57610100808354040283529160200191612629565b820191906000526020600020905b81548152906001019060200180831161260c57829003601f168201915b5050505050915050919050565b602554610100900460ff16158080156126565750602554600160ff909116105b806126705750303b158015612670575060255460ff166001145b6126e25760405162461bcd60e51b815260206004820152602e60248201527f496e697469616c697a61626c653a20636f6e747261637420697320616c72656160448201527f647920696e697469616c697a65640000000000000000000000000000000000006064820152608401610da2565b6025805460ff191660011790558015612705576025805461ff0019166101001790555b61270d614bfe565b612715614c71565b61271d614ce4565b8561276a5760405162461bcd60e51b815260206004820152601760248201527f4c6f636b6572733a20616d6f756e74206973207a65726f0000000000000000006044820152606401610da2565b6127738b613c39565b61277c8c612b61565b61278588614080565b61278e8a613b75565b612797896122ff565b6127a0876133f0565b6127a98661343e565b6127b28561284f565b6127bb84612cc5565b6127c483612900565b6127cd82612c25565b612710601381905560148190556130d46015556016556012601755601880546001600160a01b03191660011790558015612841576025805461ff0019169055604051600181527f7f26b83ff96e1f2b6a682f133852f6798a09c465da95921460cefb38474024989060200160405180910390a15b505050505050505050505050565b6128576147da565b60095481116128a85760405162461bcd60e51b815260206004820152601560248201527f4c6f636b6572733a206d757374204352203e204c5200000000000000000000006044820152606401610da2565b60085460408051918252602082018390527f1e29d1b5c8926360f3ac632d884775772b07f31fec4077d433e58ce823f91347910160405180910390a16008819055602155565b6128f66147da565b6128fe614d57565b565b6129086147da565b61271081111561295a5760405162461bcd60e51b815260206004820152601b60248201527f4c6f636b6572733a20696e76616c6964206c6f636b65722066656500000000006044820152606401610da2565b60075460408051918252602082018390527f44c6802691f6adea249930369a511db979a5e9a3603bdb37ceee1036da80e980910160405180910390a16007819055602055565b6000816001600160a01b0381166129e75760405162461bcd60e51b81526020600482015260186024820152600080516020615f9f8339815191526044820152606401610da2565b6001600160a01b0383166000908152600e6020526040902054612a0d5760019150611e97565b6001600160a01b0383166000908152600e6020526040902054421015612a365760019150611e97565b60009150611e97565b6000612a49614834565b6001600160a01b0383166000908152600d60205260409081902090517fe472566900000000000000000000000000000000000000000000000000000000815234600482015260248101919091526044810183905273ab794c3A4E36eD8bFfe8fB72CF871E204C59A9689063e47256699060640160006040518083038186803b158015612ad457600080fd5b505af4158015612ae8573d6000803e3d6000fd5b505050506001600160a01b0383166000818152600d602090815260409182902060040154825186815291820152428183015290517f2d2b4797badefe26cd5674f9bc2b8f5ed98e2a663e1a977af971254cfefd15ad9181900360600190a2506001612b536001608a55565b92915050565b6128fe6147da565b806001600160a01b038116612ba65760405162461bcd60e51b81526020600482015260186024820152600080516020615f9f8339815191526044820152606401610da2565b612bae6147da565b600154604080516001600160a01b03928316815291841660208301527f36a4c08a38b736dcecb6c328dba61238529620e83ccb23db2cc43cd34ec26096910160405180910390a150600180546001600160a01b03199081166001600160a01b039384161791829055601a8054929093169116179055565b612c2d6147da565b612710811115612c7f5760405162461bcd60e51b815260206004820152601760248201527f4c6f636b6572733a206c657373207468616e20313030250000000000000000006044820152606401610da2565b600a5460408051918252602082018390527f5e4dd01049cdfe5a081b404bff8e27de919fd9c8ae2145007e0921ec227f207a910160405180910390a1600a819055602355565b612ccd6147da565b8060085411612d1e5760405162461bcd60e51b815260206004820152601560248201527f4c6f636b6572733a206d757374204352203e204c5200000000000000000000006044820152606401610da2565b60095460408051918252602082018390527f883242c2a857ca527a432dfca231b1e49233fde2a96802809a0f3866e9f19e13910160405180910390a16009819055602255565b6000826001600160a01b038116612dab5760405162461bcd60e51b81526020600482015260186024820152600080516020615f9f8339815191526044820152606401610da2565b8260008111612dfc5760405162461bcd60e51b815260206004820152601660248201527f4c6f636b6572733a2076616c7565206973207a65726f000000000000000000006044820152606401610da2565b612e04614834565b612e0c61488e565b6001600160a01b0385166000908152600d602052604080822090517f08878a6f00000000000000000000000000000000000000000000000000000000815273ab794c3A4E36eD8bFfe8fB72CF871E204C59A968916308878a6f91612e7b91906013906019908b90600401615ba0565b60206040518083038186803b158015612e9357600080fd5b505af4158015612ea7573d6000803e3d6000fd5b505050506040513d601f19601f82011682018060405250810190612ecb9190615799565b90506000600d6000886001600160a01b03166001600160a01b0316815260200190815260200160002060405180610160016040529081600082018054612f1090615f3d565b80601f0160208091040260200160405190810160405280929190818152602001828054612f3c90615f3d565b8015612f895780601f10612f5e57610100808354040283529160200191612f89565b820191906000526020600020905b815481529060010190602001808311612f6c57829003601f168201915b5050509183525050600182015460209091019060ff166005811115612fbe57634e487b7160e01b600052602160045260246000fd5b6005811115612fdd57634e487b7160e01b600052602160045260246000fd5b8152602001600282018054612ff190615f3d565b80601f016020809104026020016040519081016040528092919081815260200182805461301d90615f3d565b801561306a5780601f1061303f5761010080835404028352916020019161306a565b820191906000526020600020905b81548152906001019060200180831161304d57829003601f168201915b505050918352505060038201546020808301919091526004808401546040808501919091526005850154606085015260068501546080850152600785015460a085015260089094015460ff808216151560c08601526101008083048216151560e0870152620100009092041615159301929092526001600160a01b038b166000908152600d909152919091200154909150613106908790615efa565b6001600160a01b038089166000908152600d60205260409020600401919091556001546131369116333085614da9565b6001546002546040517f095ea7b30000000000000000000000000000000000000000000000000000000081526001600160a01b0391821660048201526024810185905291169063095ea7b390604401602060405180830381600087803b15801561319f57600080fd5b505af11580156131b3573d6000803e3d6000fd5b505050506040513d601f19601f820116820180604052508101906131d7919061553b565b506002546040808301516020840151845192517f3fea43670000000000000000000000000000000000000000000000000000000081526001600160a01b0390941693633fea4367936132359388939092909190600090600401615d44565b602060405180830381600087803b15801561324f57600080fd5b505af1158015613263573d6000803e3d6000fd5b505050506040513d601f19601f820116820180604052508101906132879190615799565b506132923387614ae0565b60408051878152602081018490524281830152905133916001600160a01b038a16917fd63782183ccef603c2adba105774db58e1701ea5e7b3e23eded1b5e967a3654c9181900360600190a36001945050506132ee6001608a55565b505092915050565b806001600160a01b03811661333b5760405162461bcd60e51b81526020600482015260186024820152600080516020615f9f8339815191526044820152606401610da2565b6133436147da565b61334c826134d9565b156133a35760405162461bcd60e51b815260206004820152602160248201527f4c6f636b6572733a206163636f756e7420616c72656164792068617320726f6c6044820152606560f81b6064820152608401610da2565b6001600160a01b038216600081815260116020526040808220805460ff19166001179055517f6ae172837ea30b801fbfcdd4108aa1d5bf8ff775444fd70256b44e6bf3dfc3f69190a25050565b6133f86147da565b60055460408051918252602082018390527f65fb7af72786d428e2b4e9d3d2bd45fdd354f582ccccad2044967440b98e6d7b910160405180910390a16005819055601e55565b6134466147da565b806134935760405162461bcd60e51b815260206004820152601760248201527f4c6f636b6572733a20616d6f756e74206973207a65726f0000000000000000006044820152606401610da2565b60065460408051918252602082018390527f063267aa94de35dcf03acb07931ff2a6eae1ac1ee0be20797c9a6d3b52abf47b910160405180910390a16006819055601f55565b6000816001600160a01b0381166135205760405162461bcd60e51b81526020600482015260186024820152600080516020615f9f8339815191526044820152606401610da2565b50506001600160a01b031660009081526011602052604090205460ff1690565b600d6020526000908152604090208054819061355b90615f3d565b80601f016020809104026020016040519081016040528092919081815260200182805461358790615f3d565b80156135d45780601f106135a9576101008083540402835291602001916135d4565b820191906000526020600020905b8154815290600101906020018083116135b757829003601f168201915b5050506001840154600285018054949560ff9092169491935091506135f890615f3d565b80601f016020809104026020016040519081016040528092919081815260200182805461362490615f3d565b80156136715780601f1061364657610100808354040283529160200191613671565b820191906000526020600020905b81548152906001019060200180831161365457829003601f168201915b5050506003840154600485015460058601546006870154600788015460089098015496979396929550909350919060ff80821691610100810482169162010000909104168b565b6000600d6000601085856040516136d0929190615969565b9081526040805160209281900383019020546001600160a01b0316835290820192909252016000206008015460ff169392505050565b6000613710614834565b73ab794c3A4E36eD8bFfe8fB72CF871E204C59A9686396bd3570600d601960108c8c604051613740929190615969565b908152602001604051809103902060009054906101000a90046001600160a01b03168a8a8e8e8c8c8c6040518b63ffffffff1660e01b815260040161378e9a99989796959493929190615b24565b60006040518083038186803b1580156137a657600080fd5b505af41580156137ba573d6000803e3d6000fd5b505050506137dc6137c83390565b6019546001600160a01b0316903089614da9565b600b546137ea906001615d8f565b600b55336001600160a01b03167fe5f7957016a87f9d7bacdd371a516d7f2c5667aa5676c7e07cc8c0bbc6e5067b8989898960405161382c9493929190615a04565b60405180910390a25060016138416001608a55565b979650505050505050565b6000613856614834565b336000908152600d602052604090206008015460ff166138cd5760405162461bcd60e51b815260206004820152602c60248201527f4c6f636b6572733a20696e7075742061646472657373206973206e6f7420612060448201526b3b30b634b2103637b1b5b2b960a11b6064820152608401610da2565b336000818152600e60209081526040808320839055600d9091529081902060038101546004820154600583015493517ff5c2a2ca5d59b6903bcb66377907e2c66983741a553bae891c485953b2a1f96f9461392a94939291615af5565b60405180910390a25060016116136001608a55565b6000613949614834565b61395161488e565b6002546001600160a01b0316336001600160a01b0316146139c25760405162461bcd60e51b815260206004820152602560248201527f4c6f636b6572733a206d6573736167652073656e646572206973206e6f74206360448201526431a13ab93760d91b6064820152608401610da2565b6001600160a01b0385166000908152600d602052604080822090517f0876af7a000000000000000000000000000000000000000000000000000000008152829173ab794c3A4E36eD8bFfe8fB72CF871E204C59A96891630876af7a91613a36916013906019908c908b908d90600401615c73565b604080518083038186803b158015613a4d57600080fd5b505af4158015613a61573d6000803e3d6000fd5b505050506040513d601f19601f82011682018060405250810190613a8591906157b1565b60405191935091506001600160a01b0386169083156108fc029084906000818181858888f19350505050158015613ac0573d6000803e3d6000fd5b50306001600160a01b038681169089167fab522c1322c34ea455e8f541ecfe1b73a29039f3658bff658cf12c9fd26dc0168588613afd8288615d8f565b604080519384526020840192909252908201524260608201526000608082015260a00160405180910390a4600192505050613b386001608a55565b949350505050565b600060108383604051613b54929190615969565b908152604051908190036020019020546001600160a01b0316905092915050565b806001600160a01b038116613bba5760405162461bcd60e51b81526020600482015260186024820152600080516020615f9f8339815191526044820152606401610da2565b613bc26147da565b600354604080516001600160a01b03928316815291841660208301527f2f0c2c74338b8f7fb04dcfc964c9221eb054ec353c18b9617fe43566e453a23c910160405180910390a150600380546001600160a01b03199081166001600160a01b039384161791829055601c8054929093169116179055565b613c416147da565b806001600160a01b038116613c865760405162461bcd60e51b81526020600482015260186024820152600080516020615f9f8339815191526044820152606401610da2565b600054604080516001600160a01b03928316815291841660208301527ffd88adf2dc0ac6ee5960f2f4273f25017bab8b5efa8889b3cf085ce645c293b2910160405180910390a150600080546001600160a01b03199081166001600160a01b03938416179182905560198054929093169116179055565b6000613d07614834565b336000908152600d6020526040902060080154610100900460ff16613d6e5760405162461bcd60e51b815260206004820152600f60248201527f4c6f636b6572733a206e6f2072657100000000000000000000000000000000006044820152606401610da2565b336000908152600d602052604080822081516101608101909252805482908290613d9790615f3d565b80601f0160208091040260200160405190810160405280929190818152602001828054613dc390615f3d565b8015613e105780601f10613de557610100808354040283529160200191613e10565b820191906000526020600020905b815481529060010190602001808311613df357829003601f168201915b5050509183525050600182015460209091019060ff166005811115613e4557634e487b7160e01b600052602160045260246000fd5b6005811115613e6457634e487b7160e01b600052602160045260246000fd5b8152602001600282018054613e7890615f3d565b80601f0160208091040260200160405190810160405280929190818152602001828054613ea490615f3d565b8015613ef15780601f10613ec657610100808354040283529160200191613ef1565b820191906000526020600020905b815481529060010190602001808311613ed457829003601f168201915b505050918352505060038201546020820152600482015460408201526005820154606082015260068201546080820152600782015460a082015260089091015460ff808216151560c08401526101008083048216151560e0850152620100009092041615159101529050600d6000336001600160a01b031681526020810191909152604001600090812090613f868282615315565b60018201805460ff19169055613fa0600283016000615315565b506000600382018190556004820181905560058201819055600682018190556007820155600801805462ffffff19169055600b54613fe090600190615efa565b600b55614000335b60608301516000546001600160a01b03169190614e48565b61400f335b8260800151614ae0565b336000818152600d6020526040908190206003810154600482015492517f10f84ef0773ba7ade3714f4e500ca17436e6df2b0feb99c754c04f889290cbd493614059939291615ae2565b60405180910390a260019150506116136001608a55565b6140786147da565b6128fe614e78565b806001600160a01b0381166140c55760405162461bcd60e51b81526020600482015260186024820152600080516020615f9f8339815191526044820152606401610da2565b6140cd6147da565b600254604080516001600160a01b03928316815291841660208301527fd86d51326f3c88ea5365fba597a57273ae555e44f4b11658da952320d0beaa75910160405180910390a16002546040516001600160a01b03909116907f90eabbc0c667db2a5029ed6bc0f5fe9f356d11684a4ca9fcfaec0e53f12b9c8e90600090a2600280546001600160a01b03908116600090815260126020526040808220805460ff1916905583546001600160a01b03199081168785161794859055601b8054959094169416841790925590517f86e57fd2b90329052917118de7c3f521f400d439b9650deaa906a25b08b945609190a250506002546001600160a01b03166000908152601260205260409020805460ff19166001179055565b6141ee6147da565b6001600160a01b03811661426a5760405162461bcd60e51b815260206004820152602660248201527f4f776e61626c653a206e6577206f776e657220697320746865207a65726f206160448201527f64647265737300000000000000000000000000000000000000000000000000006064820152608401610da2565b61427381614eb5565b50565b806001600160a01b0381166142bb5760405162461bcd60e51b81526020600482015260186024820152600080516020615f9f8339815191526044820152606401610da2565b6142c36147da565b6142cc82611e31565b156143235760405162461bcd60e51b815260206004820152602160248201527f4c6f636b6572733a206163636f756e7420616c72656164792068617320726f6c6044820152606560f81b6064820152608401610da2565b6001600160a01b038216600081815260126020526040808220805460ff19166001179055517f86e57fd2b90329052917118de7c3f521f400d439b9650deaa906a25b08b945609190a25050565b600061437a614834565b336000908152600d6020526040808220815161016081019092528054829082906143a390615f3d565b80601f01602080910402602001604051908101604052809291908181526020018280546143cf90615f3d565b801561441c5780601f106143f15761010080835404028352916020019161441c565b820191906000526020600020905b8154815290600101906020018083116143ff57829003601f168201915b5050509183525050600182015460209091019060ff16600581111561445157634e487b7160e01b600052602160045260246000fd5b600581111561447057634e487b7160e01b600052602160045260246000fd5b815260200160028201805461448490615f3d565b80601f01602080910402602001604051908101604052809291908181526020018280546144b090615f3d565b80156144fd5780601f106144d2576101008083540402835291602001916144fd565b820191906000526020600020905b8154815290600101906020018083116144e057829003601f168201915b505050918352505060038201546020820152600482015460408201526005820154606082015260068201546080820152600782015460a082015260089091015460ff808216151560c08401526101008083048216151560e085015262010000909204161515918101919091528101519091506145bb5760405162461bcd60e51b815260206004820152601260248201527f4c6f636b6572733a206e6f206c6f636b657200000000000000000000000000006044820152606401610da2565b6145c433610840565b156146115760405162461bcd60e51b815260206004820152601560248201527f4c6f636b6572733a207374696c6c2061637469766500000000000000000000006044820152606401610da2565b60a0810151156146635760405162461bcd60e51b815260206004820152601560248201527f4c6f636b6572733a2030206e6574206d696e74656400000000000000000000006044820152606401610da2565b60c0810151156146b55760405162461bcd60e51b815260206004820152601860248201527f4c6f636b6572733a203020736c617368696e67205442544300000000000000006044820152606401610da2565b336000908152600d60205260409081902090516010916146d491615995565b90815260405190819003602001902080546001600160a01b0319169055600d60006146fc3390565b6001600160a01b0316815260208101919091526040016000908120906147228282615315565b60018201805460ff1916905561473c600283016000615315565b506000600382018190556004820181905560058201819055600682018190556007820155600801805462ffffff19169055600c5461477c90600190615efa565b600c5561478833613fe8565b61479133614005565b336001600160a01b03167f628f3d67160bc1a892a1779c6475e128010a54df63af5dcdbf3c7b06ca5dfa9782600001518360600151846080015160405161405993929190615abd565b6058546001600160a01b031633146128fe5760405162461bcd60e51b815260206004820181905260248201527f4f776e61626c653a2063616c6c6572206973206e6f7420746865206f776e65726044820152606401610da2565b6002608a5414156148875760405162461bcd60e51b815260206004820152601f60248201527f5265656e7472616e637947756172643a207265656e7472616e742063616c6c006044820152606401610da2565b6002608a55565b60bc5460ff16156128fe5760405162461bcd60e51b815260206004820152601060248201527f5061757361626c653a20706175736564000000000000000000000000000000006044820152606401610da2565b6001608a55565b600885015460ff1661493c5760405162461bcd60e51b815260206004820181905260248201527f4c6f636b6572733a206163636f756e74206973206e6f742061206c6f636b65726044820152606401610da2565b600085600501548560800151600a6149549190615e0d565b8561010001516149649190615edb565b86516004890154614976908790615edb565b6149809190615edb565b61498a9190615da7565b6149949190615efa565b90506000838660800151600a6149aa9190615e0d565b6149b49084615edb565b6149be9190615da7565b905080831115614a365760405162461bcd60e51b815260206004820152602b60248201527f4c6f636b6572733a206d6f7265207468616e206d61782072656d6f7661626c6560448201527f20636f6c6c61746572616c0000000000000000000000000000000000000000006064820152608401610da2565b8460c00151838860040154614a4b9190615efa565b1015614abf5760405162461bcd60e51b815260206004820152602160248201527f4c6f636b6572733a206c657373207468616e206d696e20636f6c6c617465726160448201527f6c000000000000000000000000000000000000000000000000000000000000006064820152608401610da2565b828760040154614acf9190615efa565b876004018190555050505050505050565b80471015614b305760405162461bcd60e51b815260206004820152601d60248201527f416464726573733a20696e73756666696369656e742062616c616e63650000006044820152606401610da2565b6000826001600160a01b03168260405160006040518083038185875af1925050503d8060008114614b7d576040519150601f19603f3d011682016040523d82523d6000602084013e614b82565b606091505b5050905080614bf95760405162461bcd60e51b815260206004820152603a60248201527f416464726573733a20756e61626c6520746f2073656e642076616c75652c207260448201527f6563697069656e74206d617920686176652072657665727465640000000000006064820152608401610da2565b505050565b602554610100900460ff16614c695760405162461bcd60e51b815260206004820152602b60248201527f496e697469616c697a61626c653a20636f6e7472616374206973206e6f74206960448201526a6e697469616c697a696e6760a81b6064820152608401610da2565b6128fe614f07565b602554610100900460ff16614cdc5760405162461bcd60e51b815260206004820152602b60248201527f496e697469616c697a61626c653a20636f6e7472616374206973206e6f74206960448201526a6e697469616c697a696e6760a81b6064820152608401610da2565b6128fe614f7b565b602554610100900460ff16614d4f5760405162461bcd60e51b815260206004820152602b60248201527f496e697469616c697a61626c653a20636f6e7472616374206973206e6f74206960448201526a6e697469616c697a696e6760a81b6064820152608401610da2565b6128fe614fe6565b614d5f61505d565b60bc805460ff191690557f5db9ee0a495bf2e6ff9c91a7834c1ba4fdd244a5e8aa4e537bd38aeae4b073aa335b6040516001600160a01b03909116815260200160405180910390a1565b6040516001600160a01b0380851660248301528316604482015260648101829052614e429085907f23b872dd00000000000000000000000000000000000000000000000000000000906084015b60408051601f198184030181529190526020810180517bffffffffffffffffffffffffffffffffffffffffffffffffffffffff166001600160e01b0319909316929092179091526150af565b50505050565b6040516001600160a01b038316602482015260448101829052614bf990849063a9059cbb60e01b90606401614df6565b614e8061488e565b60bc805460ff191660011790557f62e78cea01bee320cd4e420270b5ea74000d11b0c9f74754ebdbfc544b05a258614d8c3390565b605880546001600160a01b038381166001600160a01b0319831681179093556040519116919082907f8be0079c531659141344cd1fd0a4f28419497f9722a3daafe3b4186f6b6457e090600090a35050565b602554610100900460ff16614f725760405162461bcd60e51b815260206004820152602b60248201527f496e697469616c697a61626c653a20636f6e7472616374206973206e6f74206960448201526a6e697469616c697a696e6760a81b6064820152608401610da2565b6128fe33614eb5565b602554610100900460ff166148e15760405162461bcd60e51b815260206004820152602b60248201527f496e697469616c697a61626c653a20636f6e7472616374206973206e6f74206960448201526a6e697469616c697a696e6760a81b6064820152608401610da2565b602554610100900460ff166150515760405162461bcd60e51b815260206004820152602b60248201527f496e697469616c697a61626c653a20636f6e7472616374206973206e6f74206960448201526a6e697469616c697a696e6760a81b6064820152608401610da2565b60bc805460ff19169055565b60bc5460ff166128fe5760405162461bcd60e51b815260206004820152601460248201527f5061757361626c653a206e6f74207061757365640000000000000000000000006044820152606401610da2565b6000615104826040518060400160405280602081526020017f5361666545524332303a206c6f772d6c6576656c2063616c6c206661696c6564815250856001600160a01b03166151949092919063ffffffff16565b805190915015614bf95780806020019051810190615122919061553b565b614bf95760405162461bcd60e51b815260206004820152602a60248201527f5361666545524332303a204552433230206f7065726174696f6e20646964206e60448201527f6f742073756363656564000000000000000000000000000000000000000000006064820152608401610da2565b60606151a384846000856151ad565b90505b9392505050565b6060824710156152255760405162461bcd60e51b815260206004820152602660248201527f416464726573733a20696e73756666696369656e742062616c616e636520666f60448201527f722063616c6c00000000000000000000000000000000000000000000000000006064820152608401610da2565b843b6152735760405162461bcd60e51b815260206004820152601d60248201527f416464726573733a2063616c6c20746f206e6f6e2d636f6e74726163740000006044820152606401610da2565b600080866001600160a01b0316858760405161528f9190615979565b60006040518083038185875af1925050503d80600081146152cc576040519150601f19603f3d011682016040523d82523d6000602084013e6152d1565b606091505b5091509150613841828286606083156152eb5750816151a6565b8251156152fb5782518084602001fd5b8160405162461bcd60e51b8152600401610da29190615a2b565b50805461532190615f3d565b6000825580601f106153335750614273565b601f01602090049060005260206000209081019061427391905b80821115615361576000815560010161534d565b5090565b80356001600160a01b03811681146119a757600080fd5b60008083601f84011261538d578081fd5b50813567ffffffffffffffff8111156153a4578182fd5b6020830191508360208285010111156153bc57600080fd5b9250929050565b6000602082840312156153d4578081fd5b6151a682615365565b60008060008060008060008060008060006101608c8e0312156153fe578687fd5b6154078c615365565b9a5061541560208d01615365565b995061542360408d01615365565b985061543160608d01615365565b975061543f60808d01615365565b9a9d999c50979a96999860a0880135985060c08801359760e081013597506101008101359650610120810135955061014001359350915050565b6000806040838503121561548b578182fd5b61549483615365565b946020939093013593505050565b600080600080608085870312156154b7578384fd5b6154c085615365565b9350602085013592506154d560408601615365565b9396929550929360600135925050565b600080600080600060a086880312156154fc578081fd5b61550586615365565b94506020860135935061551a60408701615365565b92506060860135915061552f60808701615365565b90509295509295909350565b60006020828403121561554c578081fd5b815180151581146151a6578182fd5b6000806020838503121561556d578182fd5b823567ffffffffffffffff811115615583578283fd5b61558f8582860161537c565b90969095509350505050565b600080600080606085870312156155b0578384fd5b843567ffffffffffffffff8111156155c6578485fd5b6155d28782880161537c565b90955093506155e5905060208601615365565b9396929550929360400135925050565b600080600060408486031215615609578283fd5b833567ffffffffffffffff81111561561f578384fd5b61562b8682870161537c565b909790965060209590950135949350505050565b600080600080600080600060a0888a031215615659578283fd5b873567ffffffffffffffff80821115615670578485fd5b61567c8b838c0161537c565b909950975060208a0135965060408a0135955060608a01359150600682106156a2578485fd5b909350608089013590808211156156b7578384fd5b506156c48a828b0161537c565b989b979a50959850939692959293505050565b6000602082840312156156e8578081fd5b813567ffffffffffffffff808211156156ff578283fd5b818401915084601f830112615712578283fd5b81358181111561572457615724615f88565b604051601f8201601f19908116603f0116810190838211818310171561574c5761574c615f88565b81604052828152876020848701011115615764578586fd5b826020860160208301379182016020019490945295945050505050565b600060208284031215615792578081fd5b5035919050565b6000602082840312156157aa578081fd5b5051919050565b600080604083850312156157c3578182fd5b505080516020909101519092909150565b60008284528282602086013780602084860101526020601f19601f85011685010190509392505050565b60008151808452615816816020860160208601615f11565b601f01601f19169290920160200192915050565b6000815461583781615f3d565b808552602060018381168015615854576001811461586857615896565b60ff19851688840152604088019550615896565b866000528260002060005b8581101561588e5781548a8201860152908301908401615873565b890184019650505b505050505092915050565b600681106158bf57634e487b7160e01b600052602160045260246000fd5b9052565b6158e5826158d883546001600160a01b031690565b6001600160a01b03169052565b60018101546001600160a01b0390811660208401526002820154811660408401526003820154811660608401526004820154166080830152600581015460a0830152600681015460c0830152600781015460e083015260088101546101008301526009810154610120830152600a810154610140830152600b015461016090910152565b6000828483379101908152919050565b6000825161598b818460208701615f11565b9190910192915050565b60008083546159a381615f3d565b600182811680156159bb57600181146159cc576159f8565b60ff198416875282870194506159f8565b8786526020808720875b858110156159ef5781548a8201529084019082016159d6565b50505082870194505b50929695505050505050565b600060608252615a186060830186886157d4565b6020830194909452506040015292915050565b6000602082526151a660208301846157fe565b6000610160808352615a528184018f6157fe565b9050615a61602084018e6158a1565b8281036040840152615a73818d6157fe565b606084019b909b525050608081019790975260a087019590955260c086019390935260e0850191909152151561010084015215156101208301521515610140909101529392505050565b600060608252615ad060608301866157fe565b60208301949094525060400152919050565b600060608252615ad0606083018661582a565b600060808252615b08608083018761582a565b6020830195909552506040810192909252606090910152919050565b60006102608c8352615b39602084018d6158c3565b6001600160a01b038b166101a0840152896101c0840152886101e084015280610200840152615b6b818401888a6157d4565b9050615b7b6102208401876158a1565b828103610240840152615b8f8185876157d4565b9d9c50505050505050505050505050565b84815283546020820152600184015460408201526002840154606082015260038401546080820152600484015460a082015260058401546001600160a01b031660c08201526102808101615bf760e08301856158c3565b8261026083015295945050505050565b85815284546020820152600185015460408201526002850154606082015260038501546080820152600485015460a082015260058501546001600160a01b031660c08201526102a08101615c5e60e08301866158c3565b61026082019390935261028001529392505050565b86815285546020820152600186015460408201526002860154606082015260038601546080820152600486015460a082015260058601546001600160a01b031660c08201526102c08101615cca60e08301876158c3565b84610260830152836102808301526001600160a01b0383166102a0830152979650505050505050565b825481526001830154602082015260028301546040820152600383015460608201526004830154608082015260058301546001600160a01b031660a082015261024081016151a660c08301846158c3565b600086825260a06020830152615d5d60a08301876157fe565b615d6a60408401876158a1565b8281036060840152615d7c81866157fe565b9150508260808301529695505050505050565b60008219821115615da257615da2615f72565b500190565b600082615dc257634e487b7160e01b81526012600452602481fd5b500490565b80825b6001808611615dd95750615e04565b818704821115615deb57615deb615f72565b80861615615df857918102915b9490941c938002615dca565b94509492505050565b60006151a66000198484600082615e26575060016151a6565b81615e33575060006151a6565b8160018114615e495760028114615e5357615e80565b60019150506151a6565b60ff841115615e6457615e64615f72565b6001841b915084821115615e7a57615e7a615f72565b506151a6565b5060208310610133831016604e8410600b8410161715615eb3575081810a83811115615eae57615eae615f72565b6151a6565b615ec08484846001615dc7565b808604821115615ed257615ed2615f72565b02949350505050565b6000816000190483118215151615615ef557615ef5615f72565b500290565b600082821015615f0c57615f0c615f72565b500390565b60005b83811015615f2c578181015183820152602001615f14565b83811115614e425750506000910152565b600281046001821680615f5157607f821691505b60208210811415611e9757634e487b7160e01b600052602260045260246000fd5b634e487b7160e01b600052601160045260246000fd5b634e487b7160e01b600052604160045260246000fdfe4c6f636b6572733a2061646472657373206973207a65726f0000000000000000a2646970667358221220f2f6e9ca0da6ac0a0b68a87b11d4572056db361cdc07a29cad79948ba4e2f5c264736f6c63430008020033",
  "deployedBytecode": "0x6080604052600436106104655760003560e01c80637da5f0da11610243578063b4eae1cb11610143578063dd0081c7116100bb578063ee1f1c701161008a578063f2fde38b1161006f578063f2fde38b14610d0c578063f44637ba14610d2c578063ffc9f70414610d4c57610465565b8063ee1f1c7014610cd7578063ef69a7bc14610cf757610465565b8063dd0081c7146106dd578063e85501d814610c97578063e955de4514610cac578063ed110a9c14610cc157610465565b8063c0924b8011610112578063cab1344e116100f7578063cab1344e14610bed578063cdcbc87914610c0d578063dc04442214610c7757610465565b8063c0924b8014610bad578063c4d10b6a14610bcd57610465565b8063b4eae1cb14610a9c578063b734de2614610ab2578063bc805d1d14610ad2578063bd60e79414610ae857610465565b8063983b2d56116101d6578063af1ea795116101a5578063b1016bdf1161018a578063b1016bdf14610a5e578063b291ec1314610a71578063b430225814610a8757610465565b8063af1ea79514610a07578063aff2faa314610a3e57610465565b8063983b2d56146109875780639bf09882146109a7578063a839db24146109c7578063aa271e1a146109e757610465565b80638da5cb5b116102125780638da5cb5b146109095780638fe85fe714610927578063946ce8cd1461094757806396ec39e81461096757610465565b80637da5f0da146108835780637f0f1817146108b357806388aa0a52146108d35780638d3d78cd146108e957610465565b806345cc5890116103695780636136c21f116102e15780636a030fc3116102b05780636d75b9ee116102955780636d75b9ee1461085b578063715018a61461086e578063768ebb12146106dd57610465565b80636a030fc3146108255780636d32395c1461084557610465565b80636136c21f146107ad578063613e2e1e146107da57806363908020146107ef5780636600203d1461080557610465565b80635a8d80b8116103385780635d6464ba1161031d5780635d6464ba146107405780635f04fa261461076d5780636060663e1461078d57610465565b80635a8d80b8146107085780635c975abb1461072857610465565b806345cc58901461069d578063530e784f146106bd57806354509b97146106dd57806359bb9189146106f357610465565b80632f5b04ac116103fc57806338463cff116103cb57806341fae579116103b057806341fae579146106475780634334614a1461065d57806343b937071461067d57610465565b806338463cff146105e657806341f3ec111461060657610465565b80632f5b04ac146105875780633092afd51461059e57806331f7d964146105be5780633237c158146105d357610465565b80631775765f116104385780631775765f1461051c5780631fcfe19c146105325780632630c12f14610552578063264db4ae1461057257610465565b8063028468581461046a5780630c42cbc91461048c578063108f438d146104b45780631697565b146104ec575b600080fd5b34801561047657600080fd5b5061048a6104853660046153c3565b610d61565b005b34801561049857600080fd5b506104a1601281565b6040519081526020015b60405180910390f35b3480156104c057600080fd5b506000546104d4906001600160a01b031681565b6040516001600160a01b0390911681526020016104ab565b3480156104f857600080fd5b5061050c6105073660046154e5565b610e5e565b60405190151581526020016104ab565b34801561052857600080fd5b506104a160095481565b34801561053e57600080fd5b506104a161054d36600461559b565b6110d6565b34801561055e57600080fd5b506004546104d4906001600160a01b031681565b34801561057e57600080fd5b506104a1611582565b34801561059357600080fd5b506104a16205460081565b3480156105aa57600080fd5b5061048a6105b93660046153c3565b611616565b3480156105ca57600080fd5b506104d4600181565b61050c6105e1366004615781565b61170e565b3480156105f257600080fd5b506104a16106013660046155f5565b6119ac565b34801561061257600080fd5b506104d46106213660046156d7565b80516020818301810180516010825292820191909301209152546001600160a01b031681565b34801561065357600080fd5b506104a160055481565b34801561066957600080fd5b5061050c6106783660046153c3565b611e31565b34801561068957600080fd5b5061050c610698366004615479565b611e9d565b3480156106a957600080fd5b5061050c6106b83660046153c3565b612137565b3480156106c957600080fd5b5061048a6106d83660046153c3565b6122ff565b3480156106e957600080fd5b506104a161271081565b3480156106ff57600080fd5b5061050c6123c3565b34801561071457600080fd5b506002546104d4906001600160a01b031681565b34801561073457600080fd5b5060bc5460ff1661050c565b34801561074c57600080fd5b5061076061075b3660046153c3565b612546565b6040516104ab9190615a2b565b34801561077957600080fd5b5061048a6107883660046153dd565b612636565b34801561079957600080fd5b5061048a6107a8366004615781565b61284f565b3480156107b957600080fd5b506104a16107c83660046153c3565b600e6020526000908152604090205481565b3480156107e657600080fd5b5061048a6128ee565b3480156107fb57600080fd5b506104a160075481565b34801561081157600080fd5b5061048a610820366004615781565b612900565b34801561083157600080fd5b5061050c6108403660046153c3565b6129a0565b34801561085157600080fd5b506104a160065481565b61050c610869366004615479565b612a3f565b34801561087a57600080fd5b5061048a612b59565b34801561088f57600080fd5b5061050c61089e3660046153c3565b600f6020526000908152604090205460ff1681565b3480156108bf57600080fd5b5061048a6108ce3660046153c3565b612b61565b3480156108df57600080fd5b506104a1600b5481565b3480156108f557600080fd5b506001546104d4906001600160a01b031681565b34801561091557600080fd5b506058546001600160a01b03166104d4565b34801561093357600080fd5b5061048a610942366004615781565b612c25565b34801561095357600080fd5b5061048a610962366004615781565b612cc5565b34801561097357600080fd5b5061050c610982366004615479565b612d64565b34801561099357600080fd5b5061048a6109a23660046153c3565b6132f6565b3480156109b357600080fd5b5061048a6109c2366004615781565b6133f0565b3480156109d357600080fd5b5061048a6109e2366004615781565b61343e565b3480156109f357600080fd5b5061050c610a023660046153c3565b6134d9565b348015610a1357600080fd5b50610a27610a223660046153c3565b613540565b6040516104ab9b9a99989796959493929190615a3e565b348015610a4a57600080fd5b5061050c610a5936600461555b565b6136b8565b61050c610a6c36600461563f565b613706565b348015610a7d57600080fd5b506104a1600a5481565b348015610a9357600080fd5b5061050c61384c565b348015610aa857600080fd5b506104a160085481565b348015610abe57600080fd5b5061050c610acd3660046154a2565b61393f565b348015610ade57600080fd5b506104a16130d481565b348015610af457600080fd5b50601954601a54601b54601c54601d54601e54601f54602054602154602254602354602454610b3d9b6001600160a01b039081169b81169a81169981169816969594939291908c565b604080516001600160a01b039d8e1681529b8d1660208d0152998c16998b0199909952968a1660608a015298909416608088015260a087019290925260c086015260e0850152610100840152610120830193909352610140820192909252610160810191909152610180016104ab565b348015610bb957600080fd5b506003546104d4906001600160a01b031681565b348015610bd957600080fd5b506104d4610be836600461555b565b613b40565b348015610bf957600080fd5b5061048a610c083660046153c3565b613b75565b348015610c1957600080fd5b50601354601454601554601654601754601854610c419594939291906001600160a01b031686565b60408051968752602087019590955293850192909252606084015260808301526001600160a01b031660a082015260c0016104ab565b348015610c8357600080fd5b5061048a610c923660046153c3565b613c39565b348015610ca357600080fd5b5061050c613cfd565b348015610cb857600080fd5b5061048a614070565b348015610ccd57600080fd5b506104a1600c5481565b348015610ce357600080fd5b5061048a610cf23660046153c3565b614080565b348015610d0357600080fd5b50600c546104a1565b348015610d1857600080fd5b5061048a610d273660046153c3565b6141e6565b348015610d3857600080fd5b5061048a610d473660046153c3565b614276565b348015610d5857600080fd5b5061050c614370565b806001600160a01b038116610dab5760405162461bcd60e51b81526020600482015260186024820152600080516020615f9f83398151915260448201526064015b60405180910390fd5b610db36147da565b610dbc82611e31565b610e145760405162461bcd60e51b815260206004820152602360248201527f4c6f636b6572733a206163636f756e7420646f6573206e6f74206861766520726044820152626f6c6560e81b6064820152608401610da2565b6001600160a01b038216600081815260126020526040808220805460ff19169055517f90eabbc0c667db2a5029ed6bc0f5fe9f356d11684a4ca9fcfaec0e53f12b9c8e9190a25050565b6000610e68614834565b610e7061488e565b6002546001600160a01b0316336001600160a01b031614610ee15760405162461bcd60e51b815260206004820152602560248201527f4c6f636b6572733a206d6573736167652073656e646572206973206e6f74206360448201526431a13ab93760d91b6064820152608401610da2565b6001600160a01b0386166000908152600d602052604080822090517f6fdf700f00000000000000000000000000000000000000000000000000000000815273__$c4b8709fc407821a47433b8892c1b612a0$__91636fdf700f91610f5291906013906019908c908b90600401615c07565b60206040518083038186803b158015610f6a57600080fd5b505af4158015610f7e573d6000803e3d6000fd5b505050506040513d601f19601f82011682018060405250810190610fa29190615799565b90506001600160a01b0383166108fc610fbb8887615d8f565b610fc58785615edb565b610fcf9190615da7565b6040518115909202916000818181858888f19350505050158015610ff7573d6000803e3d6000fd5b5060006110048786615d8f565b61100e8684615edb565b6110189190615da7565b6110229083615efa565b6040519091506001600160a01b0387169082156108fc029083906000818181858888f1935050505015801561105b573d6000803e3d6000fd5b506040805182815260208101879052908101839052426060820152600160808201526001600160a01b0380861691888216918b16907fab522c1322c34ea455e8f541ecfe1b73a29039f3658bff658cf12c9fd26dc0169060a00160405180910390a46001925050506110cd6001608a55565b95945050505050565b6000826001600160a01b03811661111d5760405162461bcd60e51b81526020600482015260186024820152600080516020615f9f8339815191526044820152606401610da2565b826000811161116e5760405162461bcd60e51b815260206004820152601660248201527f4c6f636b6572733a2076616c7565206973207a65726f000000000000000000006044820152606401610da2565b611176614834565b61117e61488e565b61118733610a02565b6111d35760405162461bcd60e51b815260206004820152601e60248201527f4c6f636b6572733a206f6e6c79206d696e746572732063616e206d696e7400006044820152606401610da2565b6000601088886040516111e7929190615969565b908152604051908190036020019020546001600160a01b031690508061123d5760405162461bcd60e51b81526020600482015260186024820152600080516020615f9f8339815191526044820152606401610da2565b6001600160a01b0381166000908152600d6020526040808220600581015491517f724113de00000000000000000000000000000000000000000000000000000000815273__$c4b8709fc407821a47433b8892c1b612a0$__9263724113de926112b3929091601391601991908d90600401615c07565b60206040518083038186803b1580156112cb57600080fd5b505af41580156112df573d6000803e3d6000fd5b505050506040513d601f19601f820116820180604052508101906113039190615799565b905061130e826129a0565b61135a5760405162461bcd60e51b815260206004820152601360248201527f4c6f636b6572733a206e6f7420616374697665000000000000000000000000006044820152606401610da2565b6001600160a01b0382166000908152600d6020526040902060050154611381908790615d8f565b6001600160a01b0383166000908152600d6020526040812060050191909155600754612710906113b19089615edb565b6113bb9190615da7565b90508015611464576001546040517f40c10f190000000000000000000000000000000000000000000000000000000081526001600160a01b03858116600483015260248201849052909116906340c10f1990604401602060405180830381600087803b15801561142a57600080fd5b505af115801561143e573d6000803e3d6000fd5b505050506040513d601f19601f82011682018060405250810190611462919061553b565b505b6001546001600160a01b03166340c10f1989611480848b615efa565b6040516001600160e01b031960e085901b1681526001600160a01b0390921660048301526024820152604401602060405180830381600087803b1580156114c657600080fd5b505af11580156114da573d6000803e3d6000fd5b505050506040513d601f19601f820116820180604052508101906114fe919061553b565b50876001600160a01b0316836001600160a01b03167f8ad706b338c5d2a20b0d038b5cfdaf2b2f943f43048723bde0dccdf129598a11898442604051611557939291909283526020830191909152604082015260600190565b60405180910390a36115698188615efa565b95505050506115786001608a55565b5050949350505050565b60405163309376db60e11b815260009073__$c4b8709fc407821a47433b8892c1b612a0$__90636126edb6906115c090601390601990600401615cf3565b60206040518083038186803b1580156115d857600080fd5b505af41580156115ec573d6000803e3d6000fd5b505050506040513d601f19601f820116820180604052508101906116109190615799565b90505b90565b806001600160a01b03811661165b5760405162461bcd60e51b81526020600482015260186024820152600080516020615f9f8339815191526044820152606401610da2565b6116636147da565b61166c826134d9565b6116c45760405162461bcd60e51b815260206004820152602360248201527f4c6f636b6572733a206163636f756e7420646f6573206e6f74206861766520726044820152626f6c6560e81b6064820152608401610da2565b6001600160a01b038216600081815260116020526040808220805460ff19169055517fe94479a9f7e1952cc78f2d6baab678adc1b772d936c6583def489e524cb666929190a25050565b6000611718614834565b336000908152600d602052604090206008015460ff1661177a5760405162461bcd60e51b815260206004820152601260248201527f4c6f636b6572733a206e6f206c6f636b657200000000000000000000000000006044820152606401610da2565b61178333610840565b156117d05760405162461bcd60e51b815260206004820152601560248201527f4c6f636b6572733a207374696c6c2061637469766500000000000000000000006044820152606401610da2565b60405163309376db60e11b815260009073__$c4b8709fc407821a47433b8892c1b612a0$__90636126edb69061180e90601390601990600401615cf3565b60206040518083038186803b15801561182657600080fd5b505af415801561183a573d6000803e3d6000fd5b505050506040513d601f19601f8201168201806040525081019061185e9190615799565b336000908152600d6020908152604091829020825160c08082018552601354825260145482850152601554828601526016546060808401919091526017546080808501919091526018546001600160a01b0390811660a080870191909152885161018081018a5260195483168152601a548316818a0152601b54831699810199909952601c54821693890193909352601d541690870152601e5490860152601f5490850152915460e084015260215461010084015260225461012084015260235461014084015260245461016084015292935061193d929184876148e8565b6119473384614ae0565b336000818152600d602090815260409182902060040154825187815291820152428183015290517f93ae1c71197ee1bd2ad44b7d57e7b34ca946aeb88fdb4fc4a45211dbeb2c3cc79181900360600190a260019150506119a76001608a55565b919050565b600081600081116119ff5760405162461bcd60e51b815260206004820152601660248201527f4c6f636b6572733a2076616c7565206973207a65726f000000000000000000006044820152606401610da2565b611a07614834565b611a0f61488e565b611a1833610678565b611a645760405162461bcd60e51b815260206004820152601e60248201527f4c6f636b6572733a206f6e6c79206275726e6572732063616e206275726e00006044820152606401610da2565b600060108686604051611a78929190615969565b908152604051908190036020019020546001546001600160a01b039182169250166323b872dd611aa53390565b6040516001600160e01b031960e084901b1681526001600160a01b03909116600482015230602482015260448101879052606401602060405180830381600087803b158015611af357600080fd5b505af1158015611b07573d6000803e3d6000fd5b505050506040513d601f19601f82011682018060405250810190611b2b919061553b565b611b775760405162461bcd60e51b815260206004820152601c60248201527f4c6f636b6572733a207472616e7366657246726f6d206661696c6564000000006044820152606401610da2565b600061271060075486611b8a9190615edb565b611b949190615da7565b90506000611ba28287615efa565b6001600160a01b0384166000908152600d602052604090206005015490915081811015611c115760405162461bcd60e51b815260206004820152601b60248201527f4c6f636b6572733a20696e73756666696369656e742066756e647300000000006044820152606401610da2565b611c1b8282615efa565b6001600160a01b038581166000908152600d602052604090819020600501929092556001549151630852cd8d60e31b8152600481018590529116906342966c6890602401602060405180830381600087803b158015611c7957600080fd5b505af1158015611c8d573d6000803e3d6000fd5b505050506040513d601f19601f82011682018060405250810190611cb1919061553b565b611cfd5760405162461bcd60e51b815260206004820152601460248201527f4c6f636b6572733a206275726e206661696c65640000000000000000000000006044820152606401610da2565b60015460405163a9059cbb60e01b81526001600160a01b038681166004830152602482018690529091169063a9059cbb90604401602060405180830381600087803b158015611d4b57600080fd5b505af1158015611d5f573d6000803e3d6000fd5b505050506040513d601f19601f82011682018060405250810190611d83919061553b565b611dcf5760405162461bcd60e51b815260206004820152601960248201527f4c6f636b6572733a206c6f636b6572466565206661696c6564000000000000006044820152606401610da2565b6040805188815260208101859052428183015290516001600160a01b038616917f66fb54322c407b04a077a306e72cdd780f0f374ba5dac9f6901a56a6255bc34a919081900360600190a25093505050611e296001608a55565b509392505050565b6000816001600160a01b038116611e785760405162461bcd60e51b81526020600482015260186024820152600080516020615f9f8339815191526044820152606401610da2565b6001600160a01b03831660009081526012602052604090205460ff1691505b50919050565b6000826001600160a01b038116611ee45760405162461bcd60e51b81526020600482015260186024820152600080516020615f9f8339815191526044820152606401610da2565b611eec614834565b611ef461488e565b6001600160a01b0384166000908152600d602052604080822090517ffe48171600000000000000000000000000000000000000000000000000000000815260048101919091526024810185905273__$c4b8709fc407821a47433b8892c1b612a0$__9063fe4817169060440160206040518083038186803b158015611f7857600080fd5b505af4158015611f8c573d6000803e3d6000fd5b505050506040513d601f19601f82011682018060405250810190611fb09190615799565b6001549091506001600160a01b03166323b872dd336040516001600160e01b031960e084901b1681526001600160a01b03909116600482015230602482015260448101849052606401602060405180830381600087803b15801561201357600080fd5b505af1158015612027573d6000803e3d6000fd5b505050506040513d601f19601f8201168201806040525081019061204b919061553b565b50600154604051630852cd8d60e31b8152600481018390526001600160a01b03909116906342966c6890602401602060405180830381600087803b15801561209257600080fd5b505af11580156120a6573d6000803e3d6000fd5b505050506040513d601f19601f820116820180604052508101906120ca919061553b565b506120d53385614ae0565b60408051858152602081018390524281830152905133916001600160a01b038816917fd03400b15a5f4cddbc57f0e81bca31db33e4d1ed1390211eade3518bce70562e9181900360600190a360019250506121306001608a55565b5092915050565b6000816001600160a01b03811661217e5760405162461bcd60e51b81526020600482015260186024820152600080516020615f9f8339815191526044820152606401610da2565b612186614834565b61218e6147da565b6001600160a01b0383166000908152600d6020526040902060080154610100900460ff166121fe5760405162461bcd60e51b815260206004820152601360248201527f4c6f636b6572733a206e6f2072657175657374000000000000000000000000006044820152606401610da2565b6001600160a01b0383166000908152600d60205260409020600801805461ffff19166001908117909155600b546122359190615efa565b600b55600c54612246906001615d8f565b600c556001600160a01b0383166000908152600d602052604090819020905184916010916122749190615995565b908152604080516020928190038301812080546001600160a01b0319166001600160a01b039586161790559286166000818152600d90935291206003810154600482015492937f3840128cd2c146a0ea7739b8440e824c6d2d498ae32274812561d689d751e75e936122e99392914290615af5565b60405180910390a260019150611e976001608a55565b806001600160a01b0381166123445760405162461bcd60e51b81526020600482015260186024820152600080516020615f9f8339815191526044820152606401610da2565b61234c6147da565b600454604080516001600160a01b03928316815291841660208301527fd52b2b9b7e9ee655fcb95d2e5b9e0c9f69e7ef2b8e9d2d0ea78402d576d22e22910160405180910390a150600480546001600160a01b03199081166001600160a01b039384161791829055601d8054929093169116179055565b60006123cd614834565b336000908152600d602052604090206008015460ff166124445760405162461bcd60e51b815260206004820152602c60248201527f4c6f636b6572733a20696e7075742061646472657373206973206e6f7420612060448201526b3b30b634b2103637b1b5b2b960a11b6064820152608401610da2565b336000908152600e6020526040902054156124c75760405162461bcd60e51b815260206004820152602560248201527f4c6f636b6572733a206c6f636b65722068617320616c7265616479207265717560448201527f65737465640000000000000000000000000000000000000000000000000000006064820152608401610da2565b6124d46205460042615d8f565b336000818152600e60209081526040808320859055600d9091529081902060038101546004820154600583015493517f59e9b7bdd325b1dd9fe5b91f457f74d4b3d58263580ae84d6be1f451bbc2851f9461253194939291615af5565b60405180910390a35060016116136001608a55565b6060816001600160a01b03811661258d5760405162461bcd60e51b81526020600482015260186024820152600080516020615f9f8339815191526044820152606401610da2565b6001600160a01b0383166000908152600d6020526040902080546125b090615f3d565b80601f01602080910402602001604051908101604052809291908181526020018280546125dc90615f3d565b80156126295780601f106125fe57610100808354040283529160200191612629565b820191906000526020600020905b81548152906001019060200180831161260c57829003601f168201915b5050505050915050919050565b602554610100900460ff16158080156126565750602554600160ff909116105b806126705750303b158015612670575060255460ff166001145b6126e25760405162461bcd60e51b815260206004820152602e60248201527f496e697469616c697a61626c653a20636f6e747261637420697320616c72656160448201527f647920696e697469616c697a65640000000000000000000000000000000000006064820152608401610da2565b6025805460ff191660011790558015612705576025805461ff0019166101001790555b61270d614bfe565b612715614c71565b61271d614ce4565b8561276a5760405162461bcd60e51b815260206004820152601760248201527f4c6f636b6572733a20616d6f756e74206973207a65726f0000000000000000006044820152606401610da2565b6127738b613c39565b61277c8c612b61565b61278588614080565b61278e8a613b75565b612797896122ff565b6127a0876133f0565b6127a98661343e565b6127b28561284f565b6127bb84612cc5565b6127c483612900565b6127cd82612c25565b612710601381905560148190556130d46015556016556012601755601880546001600160a01b03191660011790558015612841576025805461ff0019169055604051600181527f7f26b83ff96e1f2b6a682f133852f6798a09c465da95921460cefb38474024989060200160405180910390a15b505050505050505050505050565b6128576147da565b60095481116128a85760405162461bcd60e51b815260206004820152601560248201527f4c6f636b6572733a206d757374204352203e204c5200000000000000000000006044820152606401610da2565b60085460408051918252602082018390527f1e29d1b5c8926360f3ac632d884775772b07f31fec4077d433e58ce823f91347910160405180910390a16008819055602155565b6128f66147da565b6128fe614d57565b565b6129086147da565b61271081111561295a5760405162461bcd60e51b815260206004820152601b60248201527f4c6f636b6572733a20696e76616c6964206c6f636b65722066656500000000006044820152606401610da2565b60075460408051918252602082018390527f44c6802691f6adea249930369a511db979a5e9a3603bdb37ceee1036da80e980910160405180910390a16007819055602055565b6000816001600160a01b0381166129e75760405162461bcd60e51b81526020600482015260186024820152600080516020615f9f8339815191526044820152606401610da2565b6001600160a01b0383166000908152600e6020526040902054612a0d5760019150611e97565b6001600160a01b0383166000908152600e6020526040902054421015612a365760019150611e97565b60009150611e97565b6000612a49614834565b6001600160a01b0383166000908152600d60205260409081902090517fe472566900000000000000000000000000000000000000000000000000000000815234600482015260248101919091526044810183905273__$c4b8709fc407821a47433b8892c1b612a0$__9063e47256699060640160006040518083038186803b158015612ad457600080fd5b505af4158015612ae8573d6000803e3d6000fd5b505050506001600160a01b0383166000818152600d602090815260409182902060040154825186815291820152428183015290517f2d2b4797badefe26cd5674f9bc2b8f5ed98e2a663e1a977af971254cfefd15ad9181900360600190a2506001612b536001608a55565b92915050565b6128fe6147da565b806001600160a01b038116612ba65760405162461bcd60e51b81526020600482015260186024820152600080516020615f9f8339815191526044820152606401610da2565b612bae6147da565b600154604080516001600160a01b03928316815291841660208301527f36a4c08a38b736dcecb6c328dba61238529620e83ccb23db2cc43cd34ec26096910160405180910390a150600180546001600160a01b03199081166001600160a01b039384161791829055601a8054929093169116179055565b612c2d6147da565b612710811115612c7f5760405162461bcd60e51b815260206004820152601760248201527f4c6f636b6572733a206c657373207468616e20313030250000000000000000006044820152606401610da2565b600a5460408051918252602082018390527f5e4dd01049cdfe5a081b404bff8e27de919fd9c8ae2145007e0921ec227f207a910160405180910390a1600a819055602355565b612ccd6147da565b8060085411612d1e5760405162461bcd60e51b815260206004820152601560248201527f4c6f636b6572733a206d757374204352203e204c5200000000000000000000006044820152606401610da2565b60095460408051918252602082018390527f883242c2a857ca527a432dfca231b1e49233fde2a96802809a0f3866e9f19e13910160405180910390a16009819055602255565b6000826001600160a01b038116612dab5760405162461bcd60e51b81526020600482015260186024820152600080516020615f9f8339815191526044820152606401610da2565b8260008111612dfc5760405162461bcd60e51b815260206004820152601660248201527f4c6f636b6572733a2076616c7565206973207a65726f000000000000000000006044820152606401610da2565b612e04614834565b612e0c61488e565b6001600160a01b0385166000908152600d602052604080822090517f08878a6f00000000000000000000000000000000000000000000000000000000815273__$c4b8709fc407821a47433b8892c1b612a0$__916308878a6f91612e7b91906013906019908b90600401615ba0565b60206040518083038186803b158015612e9357600080fd5b505af4158015612ea7573d6000803e3d6000fd5b505050506040513d601f19601f82011682018060405250810190612ecb9190615799565b90506000600d6000886001600160a01b03166001600160a01b0316815260200190815260200160002060405180610160016040529081600082018054612f1090615f3d565b80601f0160208091040260200160405190810160405280929190818152602001828054612f3c90615f3d565b8015612f895780601f10612f5e57610100808354040283529160200191612f89565b820191906000526020600020905b815481529060010190602001808311612f6c57829003601f168201915b5050509183525050600182015460209091019060ff166005811115612fbe57634e487b7160e01b600052602160045260246000fd5b6005811115612fdd57634e487b7160e01b600052602160045260246000fd5b8152602001600282018054612ff190615f3d565b80601f016020809104026020016040519081016040528092919081815260200182805461301d90615f3d565b801561306a5780601f1061303f5761010080835404028352916020019161306a565b820191906000526020600020905b81548152906001019060200180831161304d57829003601f168201915b505050918352505060038201546020808301919091526004808401546040808501919091526005850154606085015260068501546080850152600785015460a085015260089094015460ff808216151560c08601526101008083048216151560e0870152620100009092041615159301929092526001600160a01b038b166000908152600d909152919091200154909150613106908790615efa565b6001600160a01b038089166000908152600d60205260409020600401919091556001546131369116333085614da9565b6001546002546040517f095ea7b30000000000000000000000000000000000000000000000000000000081526001600160a01b0391821660048201526024810185905291169063095ea7b390604401602060405180830381600087803b15801561319f57600080fd5b505af11580156131b3573d6000803e3d6000fd5b505050506040513d601f19601f820116820180604052508101906131d7919061553b565b506002546040808301516020840151845192517f3fea43670000000000000000000000000000000000000000000000000000000081526001600160a01b0390941693633fea4367936132359388939092909190600090600401615d44565b602060405180830381600087803b15801561324f57600080fd5b505af1158015613263573d6000803e3d6000fd5b505050506040513d601f19601f820116820180604052508101906132879190615799565b506132923387614ae0565b60408051878152602081018490524281830152905133916001600160a01b038a16917fd63782183ccef603c2adba105774db58e1701ea5e7b3e23eded1b5e967a3654c9181900360600190a36001945050506132ee6001608a55565b505092915050565b806001600160a01b03811661333b5760405162461bcd60e51b81526020600482015260186024820152600080516020615f9f8339815191526044820152606401610da2565b6133436147da565b61334c826134d9565b156133a35760405162461bcd60e51b815260206004820152602160248201527f4c6f636b6572733a206163636f756e7420616c72656164792068617320726f6c6044820152606560f81b6064820152608401610da2565b6001600160a01b038216600081815260116020526040808220805460ff19166001179055517f6ae172837ea30b801fbfcdd4108aa1d5bf8ff775444fd70256b44e6bf3dfc3f69190a25050565b6133f86147da565b60055460408051918252602082018390527f65fb7af72786d428e2b4e9d3d2bd45fdd354f582ccccad2044967440b98e6d7b910160405180910390a16005819055601e55565b6134466147da565b806134935760405162461bcd60e51b815260206004820152601760248201527f4c6f636b6572733a20616d6f756e74206973207a65726f0000000000000000006044820152606401610da2565b60065460408051918252602082018390527f063267aa94de35dcf03acb07931ff2a6eae1ac1ee0be20797c9a6d3b52abf47b910160405180910390a16006819055601f55565b6000816001600160a01b0381166135205760405162461bcd60e51b81526020600482015260186024820152600080516020615f9f8339815191526044820152606401610da2565b50506001600160a01b031660009081526011602052604090205460ff1690565b600d6020526000908152604090208054819061355b90615f3d565b80601f016020809104026020016040519081016040528092919081815260200182805461358790615f3d565b80156135d45780601f106135a9576101008083540402835291602001916135d4565b820191906000526020600020905b8154815290600101906020018083116135b757829003601f168201915b5050506001840154600285018054949560ff9092169491935091506135f890615f3d565b80601f016020809104026020016040519081016040528092919081815260200182805461362490615f3d565b80156136715780601f1061364657610100808354040283529160200191613671565b820191906000526020600020905b81548152906001019060200180831161365457829003601f168201915b5050506003840154600485015460058601546006870154600788015460089098015496979396929550909350919060ff80821691610100810482169162010000909104168b565b6000600d6000601085856040516136d0929190615969565b9081526040805160209281900383019020546001600160a01b0316835290820192909252016000206008015460ff169392505050565b6000613710614834565b73__$c4b8709fc407821a47433b8892c1b612a0$__6396bd3570600d601960108c8c604051613740929190615969565b908152602001604051809103902060009054906101000a90046001600160a01b03168a8a8e8e8c8c8c6040518b63ffffffff1660e01b815260040161378e9a99989796959493929190615b24565b60006040518083038186803b1580156137a657600080fd5b505af41580156137ba573d6000803e3d6000fd5b505050506137dc6137c83390565b6019546001600160a01b0316903089614da9565b600b546137ea906001615d8f565b600b55336001600160a01b03167fe5f7957016a87f9d7bacdd371a516d7f2c5667aa5676c7e07cc8c0bbc6e5067b8989898960405161382c9493929190615a04565b60405180910390a25060016138416001608a55565b979650505050505050565b6000613856614834565b336000908152600d602052604090206008015460ff166138cd5760405162461bcd60e51b815260206004820152602c60248201527f4c6f636b6572733a20696e7075742061646472657373206973206e6f7420612060448201526b3b30b634b2103637b1b5b2b960a11b6064820152608401610da2565b336000818152600e60209081526040808320839055600d9091529081902060038101546004820154600583015493517ff5c2a2ca5d59b6903bcb66377907e2c66983741a553bae891c485953b2a1f96f9461392a94939291615af5565b60405180910390a25060016116136001608a55565b6000613949614834565b61395161488e565b6002546001600160a01b0316336001600160a01b0316146139c25760405162461bcd60e51b815260206004820152602560248201527f4c6f636b6572733a206d6573736167652073656e646572206973206e6f74206360448201526431a13ab93760d91b6064820152608401610da2565b6001600160a01b0385166000908152600d602052604080822090517f0876af7a000000000000000000000000000000000000000000000000000000008152829173__$c4b8709fc407821a47433b8892c1b612a0$__91630876af7a91613a36916013906019908c908b908d90600401615c73565b604080518083038186803b158015613a4d57600080fd5b505af4158015613a61573d6000803e3d6000fd5b505050506040513d601f19601f82011682018060405250810190613a8591906157b1565b60405191935091506001600160a01b0386169083156108fc029084906000818181858888f19350505050158015613ac0573d6000803e3d6000fd5b50306001600160a01b038681169089167fab522c1322c34ea455e8f541ecfe1b73a29039f3658bff658cf12c9fd26dc0168588613afd8288615d8f565b604080519384526020840192909252908201524260608201526000608082015260a00160405180910390a4600192505050613b386001608a55565b949350505050565b600060108383604051613b54929190615969565b908152604051908190036020019020546001600160a01b0316905092915050565b806001600160a01b038116613bba5760405162461bcd60e51b81526020600482015260186024820152600080516020615f9f8339815191526044820152606401610da2565b613bc26147da565b600354604080516001600160a01b03928316815291841660208301527f2f0c2c74338b8f7fb04dcfc964c9221eb054ec353c18b9617fe43566e453a23c910160405180910390a150600380546001600160a01b03199081166001600160a01b039384161791829055601c8054929093169116179055565b613c416147da565b806001600160a01b038116613c865760405162461bcd60e51b81526020600482015260186024820152600080516020615f9f8339815191526044820152606401610da2565b600054604080516001600160a01b03928316815291841660208301527ffd88adf2dc0ac6ee5960f2f4273f25017bab8b5efa8889b3cf085ce645c293b2910160405180910390a150600080546001600160a01b03199081166001600160a01b03938416179182905560198054929093169116179055565b6000613d07614834565b336000908152600d6020526040902060080154610100900460ff16613d6e5760405162461bcd60e51b815260206004820152600f60248201527f4c6f636b6572733a206e6f2072657100000000000000000000000000000000006044820152606401610da2565b336000908152600d602052604080822081516101608101909252805482908290613d9790615f3d565b80601f0160208091040260200160405190810160405280929190818152602001828054613dc390615f3d565b8015613e105780601f10613de557610100808354040283529160200191613e10565b820191906000526020600020905b815481529060010190602001808311613df357829003601f168201915b5050509183525050600182015460209091019060ff166005811115613e4557634e487b7160e01b600052602160045260246000fd5b6005811115613e6457634e487b7160e01b600052602160045260246000fd5b8152602001600282018054613e7890615f3d565b80601f0160208091040260200160405190810160405280929190818152602001828054613ea490615f3d565b8015613ef15780601f10613ec657610100808354040283529160200191613ef1565b820191906000526020600020905b815481529060010190602001808311613ed457829003601f168201915b505050918352505060038201546020820152600482015460408201526005820154606082015260068201546080820152600782015460a082015260089091015460ff808216151560c08401526101008083048216151560e0850152620100009092041615159101529050600d6000336001600160a01b031681526020810191909152604001600090812090613f868282615315565b60018201805460ff19169055613fa0600283016000615315565b506000600382018190556004820181905560058201819055600682018190556007820155600801805462ffffff19169055600b54613fe090600190615efa565b600b55614000335b60608301516000546001600160a01b03169190614e48565b61400f335b8260800151614ae0565b336000818152600d6020526040908190206003810154600482015492517f10f84ef0773ba7ade3714f4e500ca17436e6df2b0feb99c754c04f889290cbd493614059939291615ae2565b60405180910390a260019150506116136001608a55565b6140786147da565b6128fe614e78565b806001600160a01b0381166140c55760405162461bcd60e51b81526020600482015260186024820152600080516020615f9f8339815191526044820152606401610da2565b6140cd6147da565b600254604080516001600160a01b03928316815291841660208301527fd86d51326f3c88ea5365fba597a57273ae555e44f4b11658da952320d0beaa75910160405180910390a16002546040516001600160a01b03909116907f90eabbc0c667db2a5029ed6bc0f5fe9f356d11684a4ca9fcfaec0e53f12b9c8e90600090a2600280546001600160a01b03908116600090815260126020526040808220805460ff1916905583546001600160a01b03199081168785161794859055601b8054959094169416841790925590517f86e57fd2b90329052917118de7c3f521f400d439b9650deaa906a25b08b945609190a250506002546001600160a01b03166000908152601260205260409020805460ff19166001179055565b6141ee6147da565b6001600160a01b03811661426a5760405162461bcd60e51b815260206004820152602660248201527f4f776e61626c653a206e6577206f776e657220697320746865207a65726f206160448201527f64647265737300000000000000000000000000000000000000000000000000006064820152608401610da2565b61427381614eb5565b50565b806001600160a01b0381166142bb5760405162461bcd60e51b81526020600482015260186024820152600080516020615f9f8339815191526044820152606401610da2565b6142c36147da565b6142cc82611e31565b156143235760405162461bcd60e51b815260206004820152602160248201527f4c6f636b6572733a206163636f756e7420616c72656164792068617320726f6c6044820152606560f81b6064820152608401610da2565b6001600160a01b038216600081815260126020526040808220805460ff19166001179055517f86e57fd2b90329052917118de7c3f521f400d439b9650deaa906a25b08b945609190a25050565b600061437a614834565b336000908152600d6020526040808220815161016081019092528054829082906143a390615f3d565b80601f01602080910402602001604051908101604052809291908181526020018280546143cf90615f3d565b801561441c5780601f106143f15761010080835404028352916020019161441c565b820191906000526020600020905b8154815290600101906020018083116143ff57829003601f168201915b5050509183525050600182015460209091019060ff16600581111561445157634e487b7160e01b600052602160045260246000fd5b600581111561447057634e487b7160e01b600052602160045260246000fd5b815260200160028201805461448490615f3d565b80601f01602080910402602001604051908101604052809291908181526020018280546144b090615f3d565b80156144fd5780601f106144d2576101008083540402835291602001916144fd565b820191906000526020600020905b8154815290600101906020018083116144e057829003601f168201915b505050918352505060038201546020820152600482015460408201526005820154606082015260068201546080820152600782015460a082015260089091015460ff808216151560c08401526101008083048216151560e085015262010000909204161515918101919091528101519091506145bb5760405162461bcd60e51b815260206004820152601260248201527f4c6f636b6572733a206e6f206c6f636b657200000000000000000000000000006044820152606401610da2565b6145c433610840565b156146115760405162461bcd60e51b815260206004820152601560248201527f4c6f636b6572733a207374696c6c2061637469766500000000000000000000006044820152606401610da2565b60a0810151156146635760405162461bcd60e51b815260206004820152601560248201527f4c6f636b6572733a2030206e6574206d696e74656400000000000000000000006044820152606401610da2565b60c0810151156146b55760405162461bcd60e51b815260206004820152601860248201527f4c6f636b6572733a203020736c617368696e67205442544300000000000000006044820152606401610da2565b336000908152600d60205260409081902090516010916146d491615995565b90815260405190819003602001902080546001600160a01b0319169055600d60006146fc3390565b6001600160a01b0316815260208101919091526040016000908120906147228282615315565b60018201805460ff1916905561473c600283016000615315565b506000600382018190556004820181905560058201819055600682018190556007820155600801805462ffffff19169055600c5461477c90600190615efa565b600c5561478833613fe8565b61479133614005565b336001600160a01b03167f628f3d67160bc1a892a1779c6475e128010a54df63af5dcdbf3c7b06ca5dfa9782600001518360600151846080015160405161405993929190615abd565b6058546001600160a01b031633146128fe5760405162461bcd60e51b815260206004820181905260248201527f4f776e61626c653a2063616c6c6572206973206e6f7420746865206f776e65726044820152606401610da2565b6002608a5414156148875760405162461bcd60e51b815260206004820152601f60248201527f5265656e7472616e637947756172643a207265656e7472616e742063616c6c006044820152606401610da2565b6002608a55565b60bc5460ff16156128fe5760405162461bcd60e51b815260206004820152601060248201527f5061757361626c653a20706175736564000000000000000000000000000000006044820152606401610da2565b6001608a55565b600885015460ff1661493c5760405162461bcd60e51b815260206004820181905260248201527f4c6f636b6572733a206163636f756e74206973206e6f742061206c6f636b65726044820152606401610da2565b600085600501548560800151600a6149549190615e0d565b8561010001516149649190615edb565b86516004890154614976908790615edb565b6149809190615edb565b61498a9190615da7565b6149949190615efa565b90506000838660800151600a6149aa9190615e0d565b6149b49084615edb565b6149be9190615da7565b905080831115614a365760405162461bcd60e51b815260206004820152602b60248201527f4c6f636b6572733a206d6f7265207468616e206d61782072656d6f7661626c6560448201527f20636f6c6c61746572616c0000000000000000000000000000000000000000006064820152608401610da2565b8460c00151838860040154614a4b9190615efa565b1015614abf5760405162461bcd60e51b815260206004820152602160248201527f4c6f636b6572733a206c657373207468616e206d696e20636f6c6c617465726160448201527f6c000000000000000000000000000000000000000000000000000000000000006064820152608401610da2565b828760040154614acf9190615efa565b876004018190555050505050505050565b80471015614b305760405162461bcd60e51b815260206004820152601d60248201527f416464726573733a20696e73756666696369656e742062616c616e63650000006044820152606401610da2565b6000826001600160a01b03168260405160006040518083038185875af1925050503d8060008114614b7d576040519150601f19603f3d011682016040523d82523d6000602084013e614b82565b606091505b5050905080614bf95760405162461bcd60e51b815260206004820152603a60248201527f416464726573733a20756e61626c6520746f2073656e642076616c75652c207260448201527f6563697069656e74206d617920686176652072657665727465640000000000006064820152608401610da2565b505050565b602554610100900460ff16614c695760405162461bcd60e51b815260206004820152602b60248201527f496e697469616c697a61626c653a20636f6e7472616374206973206e6f74206960448201526a6e697469616c697a696e6760a81b6064820152608401610da2565b6128fe614f07565b602554610100900460ff16614cdc5760405162461bcd60e51b815260206004820152602b60248201527f496e697469616c697a61626c653a20636f6e7472616374206973206e6f74206960448201526a6e697469616c697a696e6760a81b6064820152608401610da2565b6128fe614f7b565b602554610100900460ff16614d4f5760405162461bcd60e51b815260206004820152602b60248201527f496e697469616c697a61626c653a20636f6e7472616374206973206e6f74206960448201526a6e697469616c697a696e6760a81b6064820152608401610da2565b6128fe614fe6565b614d5f61505d565b60bc805460ff191690557f5db9ee0a495bf2e6ff9c91a7834c1ba4fdd244a5e8aa4e537bd38aeae4b073aa335b6040516001600160a01b03909116815260200160405180910390a1565b6040516001600160a01b0380851660248301528316604482015260648101829052614e429085907f23b872dd00000000000000000000000000000000000000000000000000000000906084015b60408051601f198184030181529190526020810180517bffffffffffffffffffffffffffffffffffffffffffffffffffffffff166001600160e01b0319909316929092179091526150af565b50505050565b6040516001600160a01b038316602482015260448101829052614bf990849063a9059cbb60e01b90606401614df6565b614e8061488e565b60bc805460ff191660011790557f62e78cea01bee320cd4e420270b5ea74000d11b0c9f74754ebdbfc544b05a258614d8c3390565b605880546001600160a01b038381166001600160a01b0319831681179093556040519116919082907f8be0079c531659141344cd1fd0a4f28419497f9722a3daafe3b4186f6b6457e090600090a35050565b602554610100900460ff16614f725760405162461bcd60e51b815260206004820152602b60248201527f496e697469616c697a61626c653a20636f6e7472616374206973206e6f74206960448201526a6e697469616c697a696e6760a81b6064820152608401610da2565b6128fe33614eb5565b602554610100900460ff166148e15760405162461bcd60e51b815260206004820152602b60248201527f496e697469616c697a61626c653a20636f6e7472616374206973206e6f74206960448201526a6e697469616c697a696e6760a81b6064820152608401610da2565b602554610100900460ff166150515760405162461bcd60e51b815260206004820152602b60248201527f496e697469616c697a61626c653a20636f6e7472616374206973206e6f74206960448201526a6e697469616c697a696e6760a81b6064820152608401610da2565b60bc805460ff19169055565b60bc5460ff166128fe5760405162461bcd60e51b815260206004820152601460248201527f5061757361626c653a206e6f74207061757365640000000000000000000000006044820152606401610da2565b6000615104826040518060400160405280602081526020017f5361666545524332303a206c6f772d6c6576656c2063616c6c206661696c6564815250856001600160a01b03166151949092919063ffffffff16565b805190915015614bf95780806020019051810190615122919061553b565b614bf95760405162461bcd60e51b815260206004820152602a60248201527f5361666545524332303a204552433230206f7065726174696f6e20646964206e60448201527f6f742073756363656564000000000000000000000000000000000000000000006064820152608401610da2565b60606151a384846000856151ad565b90505b9392505050565b6060824710156152255760405162461bcd60e51b815260206004820152602660248201527f416464726573733a20696e73756666696369656e742062616c616e636520666f60448201527f722063616c6c00000000000000000000000000000000000000000000000000006064820152608401610da2565b843b6152735760405162461bcd60e51b815260206004820152601d60248201527f416464726573733a2063616c6c20746f206e6f6e2d636f6e74726163740000006044820152606401610da2565b600080866001600160a01b0316858760405161528f9190615979565b60006040518083038185875af1925050503d80600081146152cc576040519150601f19603f3d011682016040523d82523d6000602084013e6152d1565b606091505b5091509150613841828286606083156152eb5750816151a6565b8251156152fb5782518084602001fd5b8160405162461bcd60e51b8152600401610da29190615a2b565b50805461532190615f3d565b6000825580601f106153335750614273565b601f01602090049060005260206000209081019061427391905b80821115615361576000815560010161534d565b5090565b80356001600160a01b03811681146119a757600080fd5b60008083601f84011261538d578081fd5b50813567ffffffffffffffff8111156153a4578182fd5b6020830191508360208285010111156153bc57600080fd5b9250929050565b6000602082840312156153d4578081fd5b6151a682615365565b60008060008060008060008060008060006101608c8e0312156153fe578687fd5b6154078c615365565b9a5061541560208d01615365565b995061542360408d01615365565b985061543160608d01615365565b975061543f60808d01615365565b9a9d999c50979a96999860a0880135985060c08801359760e081013597506101008101359650610120810135955061014001359350915050565b6000806040838503121561548b578182fd5b61549483615365565b946020939093013593505050565b600080600080608085870312156154b7578384fd5b6154c085615365565b9350602085013592506154d560408601615365565b9396929550929360600135925050565b600080600080600060a086880312156154fc578081fd5b61550586615365565b94506020860135935061551a60408701615365565b92506060860135915061552f60808701615365565b90509295509295909350565b60006020828403121561554c578081fd5b815180151581146151a6578182fd5b6000806020838503121561556d578182fd5b823567ffffffffffffffff811115615583578283fd5b61558f8582860161537c565b90969095509350505050565b600080600080606085870312156155b0578384fd5b843567ffffffffffffffff8111156155c6578485fd5b6155d28782880161537c565b90955093506155e5905060208601615365565b9396929550929360400135925050565b600080600060408486031215615609578283fd5b833567ffffffffffffffff81111561561f578384fd5b61562b8682870161537c565b909790965060209590950135949350505050565b600080600080600080600060a0888a031215615659578283fd5b873567ffffffffffffffff80821115615670578485fd5b61567c8b838c0161537c565b909950975060208a0135965060408a0135955060608a01359150600682106156a2578485fd5b909350608089013590808211156156b7578384fd5b506156c48a828b0161537c565b989b979a50959850939692959293505050565b6000602082840312156156e8578081fd5b813567ffffffffffffffff808211156156ff578283fd5b818401915084601f830112615712578283fd5b81358181111561572457615724615f88565b604051601f8201601f19908116603f0116810190838211818310171561574c5761574c615f88565b81604052828152876020848701011115615764578586fd5b826020860160208301379182016020019490945295945050505050565b600060208284031215615792578081fd5b5035919050565b6000602082840312156157aa578081fd5b5051919050565b600080604083850312156157c3578182fd5b505080516020909101519092909150565b60008284528282602086013780602084860101526020601f19601f85011685010190509392505050565b60008151808452615816816020860160208601615f11565b601f01601f19169290920160200192915050565b6000815461583781615f3d565b808552602060018381168015615854576001811461586857615896565b60ff19851688840152604088019550615896565b866000528260002060005b8581101561588e5781548a8201860152908301908401615873565b890184019650505b505050505092915050565b600681106158bf57634e487b7160e01b600052602160045260246000fd5b9052565b6158e5826158d883546001600160a01b031690565b6001600160a01b03169052565b60018101546001600160a01b0390811660208401526002820154811660408401526003820154811660608401526004820154166080830152600581015460a0830152600681015460c0830152600781015460e083015260088101546101008301526009810154610120830152600a810154610140830152600b015461016090910152565b6000828483379101908152919050565b6000825161598b818460208701615f11565b9190910192915050565b60008083546159a381615f3d565b600182811680156159bb57600181146159cc576159f8565b60ff198416875282870194506159f8565b8786526020808720875b858110156159ef5781548a8201529084019082016159d6565b50505082870194505b50929695505050505050565b600060608252615a186060830186886157d4565b6020830194909452506040015292915050565b6000602082526151a660208301846157fe565b6000610160808352615a528184018f6157fe565b9050615a61602084018e6158a1565b8281036040840152615a73818d6157fe565b606084019b909b525050608081019790975260a087019590955260c086019390935260e0850191909152151561010084015215156101208301521515610140909101529392505050565b600060608252615ad060608301866157fe565b60208301949094525060400152919050565b600060608252615ad0606083018661582a565b600060808252615b08608083018761582a565b6020830195909552506040810192909252606090910152919050565b60006102608c8352615b39602084018d6158c3565b6001600160a01b038b166101a0840152896101c0840152886101e084015280610200840152615b6b818401888a6157d4565b9050615b7b6102208401876158a1565b828103610240840152615b8f8185876157d4565b9d9c50505050505050505050505050565b84815283546020820152600184015460408201526002840154606082015260038401546080820152600484015460a082015260058401546001600160a01b031660c08201526102808101615bf760e08301856158c3565b8261026083015295945050505050565b85815284546020820152600185015460408201526002850154606082015260038501546080820152600485015460a082015260058501546001600160a01b031660c08201526102a08101615c5e60e08301866158c3565b61026082019390935261028001529392505050565b86815285546020820152600186015460408201526002860154606082015260038601546080820152600486015460a082015260058601546001600160a01b031660c08201526102c08101615cca60e08301876158c3565b84610260830152836102808301526001600160a01b0383166102a0830152979650505050505050565b825481526001830154602082015260028301546040820152600383015460608201526004830154608082015260058301546001600160a01b031660a082015261024081016151a660c08301846158c3565b600086825260a06020830152615d5d60a08301876157fe565b615d6a60408401876158a1565b8281036060840152615d7c81866157fe565b9150508260808301529695505050505050565b60008219821115615da257615da2615f72565b500190565b600082615dc257634e487b7160e01b81526012600452602481fd5b500490565b80825b6001808611615dd95750615e04565b818704821115615deb57615deb615f72565b80861615615df857918102915b9490941c938002615dca565b94509492505050565b60006151a66000198484600082615e26575060016151a6565b81615e33575060006151a6565b8160018114615e495760028114615e5357615e80565b60019150506151a6565b60ff841115615e6457615e64615f72565b6001841b915084821115615e7a57615e7a615f72565b506151a6565b5060208310610133831016604e8410600b8410161715615eb3575081810a83811115615eae57615eae615f72565b6151a6565b615ec08484846001615dc7565b808604821115615ed257615ed2615f72565b02949350505050565b6000816000190483118215151615615ef557615ef5615f72565b500290565b600082821015615f0c57615f0c615f72565b500390565b60005b83811015615f2c578181015183820152602001615f14565b83811115614e425750506000910152565b600281046001821680615f5157607f821691505b60208210811415611e9757634e487b7160e01b600052602260045260246000fd5b634e487b7160e01b600052601160045260246000fd5b634e487b7160e01b600052604160045260246000fdfe4c6f636b6572733a2061646472657373206973207a65726f0000000000000000a2646970667358221220f2f6e9ca0da6ac0a0b68a87b11d4572056db361cdc07a29cad79948ba4e2f5c264736f6c63430008020033",
  "libraries": {
    "LockersLib": "0xab794c3A4E36eD8bFfe8fB72CF871E204C59A968"
  },
  "devdoc": {
    "kind": "dev",
    "methods": {
      "addBurner(address)": {
        "details": "Give an account access to burn."
      },
      "addCollateral(address,uint256)": {
        "params": {
          "_addingNativeTokenAmount": "Amount of added collateral",
          "_lockerTargetAddress": "Locker's target chain address"
        },
        "returns": {
          "_0": "True if collateral is added successfully"
        }
      },
      "addLocker(address)": {
        "details": "Only owner can call this                                       When a candidate becomes locker, isCandidate is set to false",
        "params": {
          "_lockerTargetAddress": "Locker's target chain address"
        },
        "returns": {
          "_0": "True if candidate is added successfully"
        }
      },
      "addMinter(address)": {
        "details": "Give an account access to mint."
      },
      "burn(bytes,uint256)": {
        "details": "Burn teleBTC and also get the locker's fee",
        "params": {
          "_amount": "Amount of the teleBTC which is minted, including the locker's fee",
          "_lockerLockingScript": "Locking script of a locker"
        },
        "returns": {
          "_0": "uint                  The amount of teleBTC burnt"
        }
      },
      "buySlashedCollateralOfLocker(address,uint256)": {
        "details": "Users buy the slashed collateral using TeleBTC with discount                                   The paid TeleBTC will be burnt to keep the system safe                                   If all the needed TeleBTC is collected and burnt,                                   the rest of slashed collateral is sent back to locker ",
        "params": {
          "_collateralAmount": "Amount of collateral (TNT) that someone intends to buy with discount",
          "_lockerTargetAddress": "Locker's target chain address"
        },
        "returns": {
          "_0": "True if buying was successful"
        }
      },
      "getLockerLockingScript(address)": {
        "params": {
          "_lockerTargetAddress": "Address of locker on the target chain"
        },
        "returns": {
          "_0": "Bitcoin public key of locker"
        }
      },
      "getNumberOfLockers()": {
        "returns": {
          "_0": "Number of lockers"
        }
      },
      "isBurner(address)": {
        "params": {
          "account": "The account which intended to be checked"
        },
        "returns": {
          "_0": "bool"
        }
      },
      "isLocker(bytes)": {
        "params": {
          "_lockerLockingScript": "Locking script of locker on the target chain"
        },
        "returns": {
          "_0": "True if a locking script is locker"
        }
      },
      "isLockerActive(address)": {
        "details": "We check a locker status in below cases:                                     1. Minting TeleBTC                                     2. Removing locker's collateral                                     3. Removing locker ",
        "params": {
          "_lockerTargetAddress": "Address of locker on the target chain"
        },
        "returns": {
          "_0": "True if the locker is active"
        }
      },
      "isMinter(address)": {
        "params": {
          "account": "The account which intended to be checked"
        },
        "returns": {
          "_0": "bool"
        }
      },
      "liquidateLocker(address,uint256)": {
        "details": "Anyone can liquidate a locker whose health factor                                   is less than 10000 (100%) by providing a sufficient amount of teleBTC",
        "params": {
          "_collateralAmount": "Amount of collateral (TNT) that someone intends to buy with discount",
          "_lockerTargetAddress": "Locker's target chain address"
        },
        "returns": {
          "_0": "True if liquidation was successful"
        }
      },
      "mint(bytes,address,uint256)": {
        "details": "Mint teleBTC for an account and the locker fee as well",
        "params": {
          "_amount": "Amount of the teleBTC which is minted, including the locker's fee",
          "_lockerLockingScript": "Locking script of a locker",
          "_receiver": "Address of the receiver of the minted teleBTCs"
        },
        "returns": {
          "_0": "uint                  The amount of teleBTC minted for the receiver"
        }
      },
      "owner()": {
        "details": "Returns the address of the current owner."
      },
      "pauseLocker()": {
        "details": "Only owner can pause "
      },
      "paused()": {
        "details": "Returns true if the contract is paused, and false otherwise."
      },
      "priceOfOneUnitOfCollateralInBTC()": {
        "details": "Returns the price of one native token (1*10^18) in teleBTC",
        "returns": {
          "_0": "uint The price of one unit of collateral token (native token in teleBTC)"
        }
      },
      "removeBurner(address)": {
        "details": "Remove an account's access to burn."
      },
      "removeCollateral(uint256)": {
        "params": {
          "_removingNativeTokenAmount": "Amount of removed collateral"
        },
        "returns": {
          "_0": "True if collateral is removed successfully"
        }
      },
      "removeMinter(address)": {
        "details": "Remove an account's access to mint."
      },
      "renounceOwnership()": {
        "details": "Leaves the contract without owner. It will not be possible to call `onlyOwner` functions anymore. Can only be called by the current owner. NOTE: Renouncing ownership will leave the contract without an owner, thereby removing any functionality that is only available to the owner."
      },
      "requestActivation()": {
        "details": "Activates the locker so users can mint by this locker                        note: lockerInactivationTimestamp == 0 means that the locker is active",
        "returns": {
          "_0": "True if activated successfully"
        }
      },
      "requestInactivation()": {
        "details": "Deactivates the locker so that no one can mint by this locker:                        1. Locker can be removed after inactivation                        2. Locker can withdraw extra collateral after inactivation",
        "returns": {
          "_0": "True if deactivated successfully"
        }
      },
      "requestToBecomeLocker(bytes,uint256,uint256,uint8,bytes)": {
        "details": "Users mint TeleBTC by sending BTC to locker's locking script                                         In case of liqudation of locker's bond, the burn TeleBTC is sent to                                         locker's rescue script                                         A user should lock enough TDT and TNT to become candidate",
        "params": {
          "_candidateLockingScript": "Locking script of the candidate",
          "_lockedNativeTokenAmount": "Bond amount of locker in native token of the target chain",
          "_lockedTDTAmount": "Bond amount of locker in TDT",
          "_lockerRescueScript": "Rescue script of the locker",
          "_lockerRescueType": "Type of locker's rescue script (e.g. P2SH)"
        },
        "returns": {
          "_0": "True if candidate is added successfully"
        }
      },
      "revokeRequest()": {
        "details": "A user who is still a candidate can revoke his/her request",
        "returns": {
          "_0": "True if candidate is removed successfully"
        }
      },
      "selfRemoveLocker()": {
        "details": "Only locker can call this function                               Checks that net minted TeleBTC of locker is zero                               Sends back available bond of locker (in TDT and TNT)",
        "returns": {
          "_0": "True if locker is removed successfully"
        }
      },
      "setCCBurnRouter(address)": {
        "details": "Only current owner can call this",
        "params": {
          "_ccBurnRouter": "The new cc burn router contract address"
        }
      },
      "setCollateralRatio(uint256)": {
        "details": "Only owner can call this",
        "params": {
          "_collateralRatio": "The new collateral ratio"
        }
      },
      "setExchangeConnector(address)": {
        "details": "Only owner can call this",
        "params": {
          "_exchangeConnector": "The new exchange router contract address"
        }
      },
      "setLiquidationRatio(uint256)": {
        "details": "Only owner can call this",
        "params": {
          "_liquidationRatio": "The new liquidation ratio"
        }
      },
      "setLockerPercentageFee(uint256)": {
        "details": "Only current owner can call this",
        "params": {
          "_lockerPercentageFee": "The new locker percentage fee"
        }
      },
      "setMinRequiredTDTLockedAmount(uint256)": {
        "details": "Only current owner can call this",
        "params": {
          "_minRequiredTDTLockedAmount": "The new required TDT token bond amount"
        }
      },
      "setMinRequiredTNTLockedAmount(uint256)": {
        "details": "Only current owner can call this                 It should be a non-zero value",
        "params": {
          "_minRequiredTNTLockedAmount": "The new required native token bond amount"
        }
      },
      "setPriceOracle(address)": {
        "details": "Only current owner can call this",
        "params": {
          "_priceOracle": "The new price oracle"
        }
      },
      "setPriceWithDiscountRatio(uint256)": {
        "details": "Only current owner can call this",
        "params": {
          "_priceWithDiscountRatio": "The new price with discount ratioo"
        }
      },
      "setTeleBTC(address)": {
        "details": "Only owner can call this",
        "params": {
          "_teleBTC": "The new wrapped token contract address"
        }
      },
      "setTeleportDAOToken(address)": {
        "details": "Only current owner can call this",
        "params": {
          "_tdtTokenAddress": "The new teleportDAO token address"
        }
      },
      "slashIdleLocker(address,uint256,address,uint256,address)": {
        "details": "Only cc burn router can call this                                   Locker is slashed since doesn't provide burn proof                                   before a cc burn request deadline.                                   User who made the cc burn request will receive the slashed bond",
        "params": {
          "_amount": "Amount of TeleBTC that is slashed from lockers",
          "_lockerTargetAddress": "Locker's target chain address",
          "_recipient": "Address of user who receives the slashed amount",
          "_rewardAmount": "Amount of TeleBTC that slasher receives",
          "_rewardRecipient": "Address of slasher who receives reward"
        },
        "returns": {
          "_0": "True if the locker is slashed successfully"
        }
      },
      "slashThiefLocker(address,uint256,address,uint256)": {
        "details": "Only cc burn router can call this                                   Locker is slashed because he/she moved BTC from                                    locker's Bitcoin address without any corresponding burn req                                   The slashed bond will be sold with discount",
        "params": {
          "_amount": "Value of slashed collateral (in TeleBTC)",
          "_lockerTargetAddress": "Locker's target chain address",
          "_rewardAmount": "Value of slashed reward (in TeleBTC)",
          "_rewardRecipient": "Address of slasher who receives reward"
        },
        "returns": {
          "_0": "True if the locker is slashed successfully"
        }
      },
      "transferOwnership(address)": {
        "details": "Transfers ownership of the contract to a new account (`newOwner`). Can only be called by the current owner."
      },
      "unPauseLocker()": {
        "details": "Only owner can pause"
      }
    },
    "version": 1
  },
  "userdoc": {
    "kind": "user",
    "methods": {
      "addCollateral(address,uint256)": {
        "notice": "Increases TNT collateral of the locker"
      },
      "addLocker(address)": {
        "notice": "Approves a candidate request to become locker"
      },
      "burn(bytes,uint256)": {
        "notice": "Burn teleBTC of an account"
      },
      "buySlashedCollateralOfLocker(address,uint256)": {
        "notice": "Sells lockers slashed collateral"
      },
      "getLockerLockingScript(address)": {
        "notice": "Give Bitcoin public key of locker"
      },
      "getNumberOfLockers()": {
        "notice": "Give number of lockers"
      },
      "isBurner(address)": {
        "notice": "Check if an account is burner    "
      },
      "isLocker(bytes)": {
        "notice": "Checks whether a locking script is locker"
      },
      "isLockerActive(address)": {
        "notice": "Returns the Locker status"
      },
      "isMinter(address)": {
        "notice": "Check if an account is minter    "
      },
      "liquidateLocker(address,uint256)": {
        "notice": "Liquidates the locker whose collateral is unhealthy"
      },
      "mint(bytes,address,uint256)": {
        "notice": "Mint teleBTC for an account"
      },
      "pauseLocker()": {
        "notice": "Pause the locker, so only the functions can be called which are whenPaused"
      },
      "removeCollateral(uint256)": {
        "notice": "Decreases TNT collateral of the locker"
      },
      "requestActivation()": {
        "notice": "Requests to activate a locker"
      },
      "requestInactivation()": {
        "notice": "Requests to inactivate a locker"
      },
      "requestToBecomeLocker(bytes,uint256,uint256,uint8,bytes)": {
        "notice": "Adds user to candidates list"
      },
      "revokeRequest()": {
        "notice": "Removes a candidate from candidates list"
      },
      "selfRemoveLocker()": {
        "notice": "Removes a locker from lockers list"
      },
      "setCCBurnRouter(address)": {
        "notice": "Changes cc burn router contract"
      },
      "setCollateralRatio(uint256)": {
        "notice": "Changes collateral ratio"
      },
      "setExchangeConnector(address)": {
        "notice": "Changes exchange connector contract address"
      },
      "setLiquidationRatio(uint256)": {
        "notice": "Changes liquidation ratio"
      },
      "setLockerPercentageFee(uint256)": {
        "notice": "Changes percentage fee of locker"
      },
      "setMinRequiredTDTLockedAmount(uint256)": {
        "notice": "Changes the required TDT token bond amount to become locker"
      },
      "setMinRequiredTNTLockedAmount(uint256)": {
        "notice": "Changes the required native token bond amount to become locker"
      },
      "setPriceOracle(address)": {
        "notice": "Changes the price oracle"
      },
      "setPriceWithDiscountRatio(uint256)": {
        "notice": "Changes price with discount ratio"
      },
      "setTeleBTC(address)": {
        "notice": "Changes wrapped token contract address"
      },
      "setTeleportDAOToken(address)": {
        "notice": "Changes teleportDAO token in lockers "
      },
      "slashIdleLocker(address,uint256,address,uint256,address)": {
        "notice": "Slashes lockers for not executing a cc burn req"
      },
      "slashThiefLocker(address,uint256,address,uint256)": {
        "notice": "Slashes lockers for moving BTC without a good reason"
      },
      "unPauseLocker()": {
        "notice": "Un-pause the locker, so only the functions can be called which are whenNotPaused"
      }
    },
    "version": 1
  },
  "storageLayout": {
    "storage": [
      {
        "astId": 12847,
        "contract": "contracts/lockers/LockersLogic.sol:LockersLogic",
        "label": "TeleportDAOToken",
        "offset": 0,
        "slot": "0",
        "type": "t_address"
      },
      {
        "astId": 12850,
        "contract": "contracts/lockers/LockersLogic.sol:LockersLogic",
        "label": "teleBTC",
        "offset": 0,
        "slot": "1",
        "type": "t_address"
      },
      {
        "astId": 12853,
        "contract": "contracts/lockers/LockersLogic.sol:LockersLogic",
        "label": "ccBurnRouter",
        "offset": 0,
        "slot": "2",
        "type": "t_address"
      },
      {
        "astId": 12856,
        "contract": "contracts/lockers/LockersLogic.sol:LockersLogic",
        "label": "exchangeConnector",
        "offset": 0,
        "slot": "3",
        "type": "t_address"
      },
      {
        "astId": 12859,
        "contract": "contracts/lockers/LockersLogic.sol:LockersLogic",
        "label": "priceOracle",
        "offset": 0,
        "slot": "4",
        "type": "t_address"
      },
      {
        "astId": 12862,
        "contract": "contracts/lockers/LockersLogic.sol:LockersLogic",
        "label": "minRequiredTDTLockedAmount",
        "offset": 0,
        "slot": "5",
        "type": "t_uint256"
      },
      {
        "astId": 12865,
        "contract": "contracts/lockers/LockersLogic.sol:LockersLogic",
        "label": "minRequiredTNTLockedAmount",
        "offset": 0,
        "slot": "6",
        "type": "t_uint256"
      },
      {
        "astId": 12868,
        "contract": "contracts/lockers/LockersLogic.sol:LockersLogic",
        "label": "lockerPercentageFee",
        "offset": 0,
        "slot": "7",
        "type": "t_uint256"
      },
      {
        "astId": 12871,
        "contract": "contracts/lockers/LockersLogic.sol:LockersLogic",
        "label": "collateralRatio",
        "offset": 0,
        "slot": "8",
        "type": "t_uint256"
      },
      {
        "astId": 12874,
        "contract": "contracts/lockers/LockersLogic.sol:LockersLogic",
        "label": "liquidationRatio",
        "offset": 0,
        "slot": "9",
        "type": "t_uint256"
      },
      {
        "astId": 12877,
        "contract": "contracts/lockers/LockersLogic.sol:LockersLogic",
        "label": "priceWithDiscountRatio",
        "offset": 0,
        "slot": "10",
        "type": "t_uint256"
      },
      {
        "astId": 12880,
        "contract": "contracts/lockers/LockersLogic.sol:LockersLogic",
        "label": "totalNumberOfCandidates",
        "offset": 0,
        "slot": "11",
        "type": "t_uint256"
      },
      {
        "astId": 12883,
        "contract": "contracts/lockers/LockersLogic.sol:LockersLogic",
        "label": "totalNumberOfLockers",
        "offset": 0,
        "slot": "12",
        "type": "t_uint256"
      },
      {
        "astId": 12888,
        "contract": "contracts/lockers/LockersLogic.sol:LockersLogic",
        "label": "lockersMapping",
        "offset": 0,
        "slot": "13",
        "type": "t_mapping(t_address,t_struct(locker)19866_storage)"
      },
      {
        "astId": 12892,
        "contract": "contracts/lockers/LockersLogic.sol:LockersLogic",
        "label": "lockerInactivationTimestamp",
        "offset": 0,
        "slot": "14",
        "type": "t_mapping(t_address,t_uint256)"
      },
      {
        "astId": 12896,
        "contract": "contracts/lockers/LockersLogic.sol:LockersLogic",
        "label": "lockerLeavingAcceptance",
        "offset": 0,
        "slot": "15",
        "type": "t_mapping(t_address,t_bool)"
      },
      {
        "astId": 12900,
        "contract": "contracts/lockers/LockersLogic.sol:LockersLogic",
        "label": "lockerTargetAddress",
        "offset": 0,
        "slot": "16",
        "type": "t_mapping(t_bytes_memory_ptr,t_address)"
      },
      {
        "astId": 12904,
        "contract": "contracts/lockers/LockersLogic.sol:LockersLogic",
        "label": "minters",
        "offset": 0,
        "slot": "17",
        "type": "t_mapping(t_address,t_bool)"
      },
      {
        "astId": 12908,
        "contract": "contracts/lockers/LockersLogic.sol:LockersLogic",
        "label": "burners",
        "offset": 0,
        "slot": "18",
        "type": "t_mapping(t_address,t_bool)"
      },
      {
        "astId": 12911,
        "contract": "contracts/lockers/LockersLogic.sol:LockersLogic",
        "label": "libConstants",
        "offset": 0,
        "slot": "19",
        "type": "t_struct(lockersLibConstants)19879_storage"
      },
      {
        "astId": 12914,
        "contract": "contracts/lockers/LockersLogic.sol:LockersLogic",
        "label": "libParams",
        "offset": 0,
        "slot": "25",
        "type": "t_struct(lockersLibParam)19904_storage"
      },
      {
        "astId": 396,
        "contract": "contracts/lockers/LockersLogic.sol:LockersLogic",
        "label": "_initialized",
        "offset": 0,
        "slot": "37",
        "type": "t_uint8"
      },
      {
        "astId": 399,
        "contract": "contracts/lockers/LockersLogic.sol:LockersLogic",
        "label": "_initializing",
        "offset": 1,
        "slot": "37",
        "type": "t_bool"
      },
      {
        "astId": 1161,
        "contract": "contracts/lockers/LockersLogic.sol:LockersLogic",
        "label": "__gap",
        "offset": 0,
        "slot": "38",
        "type": "t_array(t_uint256)50_storage"
      },
      {
        "astId": 268,
        "contract": "contracts/lockers/LockersLogic.sol:LockersLogic",
        "label": "_owner",
        "offset": 0,
        "slot": "88",
        "type": "t_address"
      },
      {
        "astId": 388,
        "contract": "contracts/lockers/LockersLogic.sol:LockersLogic",
        "label": "__gap",
        "offset": 0,
        "slot": "89",
        "type": "t_array(t_uint256)49_storage"
      },
      {
        "astId": 699,
        "contract": "contracts/lockers/LockersLogic.sol:LockersLogic",
        "label": "_status",
        "offset": 0,
        "slot": "138",
        "type": "t_uint256"
      },
      {
        "astId": 757,
        "contract": "contracts/lockers/LockersLogic.sol:LockersLogic",
        "label": "__gap",
        "offset": 0,
        "slot": "139",
        "type": "t_array(t_uint256)49_storage"
      },
      {
        "astId": 579,
        "contract": "contracts/lockers/LockersLogic.sol:LockersLogic",
        "label": "_paused",
        "offset": 0,
        "slot": "188",
        "type": "t_bool"
      },
      {
        "astId": 684,
        "contract": "contracts/lockers/LockersLogic.sol:LockersLogic",
        "label": "__gap",
        "offset": 0,
        "slot": "189",
        "type": "t_array(t_uint256)49_storage"
      }
    ],
    "types": {
      "t_address": {
        "encoding": "inplace",
        "label": "address",
        "numberOfBytes": "20"
      },
      "t_array(t_uint256)49_storage": {
        "base": "t_uint256",
        "encoding": "inplace",
        "label": "uint256[49]",
        "numberOfBytes": "1568"
      },
      "t_array(t_uint256)50_storage": {
        "base": "t_uint256",
        "encoding": "inplace",
        "label": "uint256[50]",
        "numberOfBytes": "1600"
      },
      "t_bool": {
        "encoding": "inplace",
        "label": "bool",
        "numberOfBytes": "1"
      },
      "t_bytes_memory_ptr": {
        "encoding": "bytes",
        "label": "bytes",
        "numberOfBytes": "32"
      },
      "t_bytes_storage": {
        "encoding": "bytes",
        "label": "bytes",
        "numberOfBytes": "32"
      },
      "t_enum(ScriptTypes)7120": {
        "encoding": "inplace",
        "label": "enum ScriptTypes",
        "numberOfBytes": "1"
      },
      "t_mapping(t_address,t_bool)": {
        "encoding": "mapping",
        "key": "t_address",
        "label": "mapping(address => bool)",
        "numberOfBytes": "32",
        "value": "t_bool"
      },
      "t_mapping(t_address,t_struct(locker)19866_storage)": {
        "encoding": "mapping",
        "key": "t_address",
        "label": "mapping(address => struct DataTypes.locker)",
        "numberOfBytes": "32",
        "value": "t_struct(locker)19866_storage"
      },
      "t_mapping(t_address,t_uint256)": {
        "encoding": "mapping",
        "key": "t_address",
        "label": "mapping(address => uint256)",
        "numberOfBytes": "32",
        "value": "t_uint256"
      },
      "t_mapping(t_bytes_memory_ptr,t_address)": {
        "encoding": "mapping",
        "key": "t_bytes_memory_ptr",
        "label": "mapping(bytes => address)",
        "numberOfBytes": "32",
        "value": "t_address"
      },
      "t_struct(locker)19866_storage": {
        "encoding": "inplace",
        "label": "struct DataTypes.locker",
        "members": [
          {
            "astId": 19844,
            "contract": "contracts/lockers/LockersLogic.sol:LockersLogic",
            "label": "lockerLockingScript",
            "offset": 0,
            "slot": "0",
            "type": "t_bytes_storage"
          },
          {
            "astId": 19847,
            "contract": "contracts/lockers/LockersLogic.sol:LockersLogic",
            "label": "lockerRescueType",
            "offset": 0,
            "slot": "1",
            "type": "t_enum(ScriptTypes)7120"
          },
          {
            "astId": 19849,
            "contract": "contracts/lockers/LockersLogic.sol:LockersLogic",
            "label": "lockerRescueScript",
            "offset": 0,
            "slot": "2",
            "type": "t_bytes_storage"
          },
          {
            "astId": 19851,
            "contract": "contracts/lockers/LockersLogic.sol:LockersLogic",
            "label": "TDTLockedAmount",
            "offset": 0,
            "slot": "3",
            "type": "t_uint256"
          },
          {
            "astId": 19853,
            "contract": "contracts/lockers/LockersLogic.sol:LockersLogic",
            "label": "nativeTokenLockedAmount",
            "offset": 0,
            "slot": "4",
            "type": "t_uint256"
          },
          {
            "astId": 19855,
            "contract": "contracts/lockers/LockersLogic.sol:LockersLogic",
            "label": "netMinted",
            "offset": 0,
            "slot": "5",
            "type": "t_uint256"
          },
          {
            "astId": 19857,
            "contract": "contracts/lockers/LockersLogic.sol:LockersLogic",
            "label": "slashingTeleBTCAmount",
            "offset": 0,
            "slot": "6",
            "type": "t_uint256"
          },
          {
            "astId": 19859,
            "contract": "contracts/lockers/LockersLogic.sol:LockersLogic",
            "label": "reservedNativeTokenForSlash",
            "offset": 0,
            "slot": "7",
            "type": "t_uint256"
          },
          {
            "astId": 19861,
            "contract": "contracts/lockers/LockersLogic.sol:LockersLogic",
            "label": "isLocker",
            "offset": 0,
            "slot": "8",
            "type": "t_bool"
          },
          {
            "astId": 19863,
            "contract": "contracts/lockers/LockersLogic.sol:LockersLogic",
            "label": "isCandidate",
            "offset": 1,
            "slot": "8",
            "type": "t_bool"
          },
          {
            "astId": 19865,
            "contract": "contracts/lockers/LockersLogic.sol:LockersLogic",
            "label": "isScriptHash",
            "offset": 2,
            "slot": "8",
            "type": "t_bool"
          }
        ],
        "numberOfBytes": "288"
      },
      "t_struct(lockersLibConstants)19879_storage": {
        "encoding": "inplace",
        "label": "struct DataTypes.lockersLibConstants",
        "members": [
          {
            "astId": 19868,
            "contract": "contracts/lockers/LockersLogic.sol:LockersLogic",
            "label": "OneHundredPercent",
            "offset": 0,
            "slot": "0",
            "type": "t_uint256"
          },
          {
            "astId": 19870,
            "contract": "contracts/lockers/LockersLogic.sol:LockersLogic",
            "label": "HealthFactor",
            "offset": 0,
            "slot": "1",
            "type": "t_uint256"
          },
          {
            "astId": 19872,
            "contract": "contracts/lockers/LockersLogic.sol:LockersLogic",
            "label": "UpperHealthFactor",
            "offset": 0,
            "slot": "2",
            "type": "t_uint256"
          },
          {
            "astId": 19874,
            "contract": "contracts/lockers/LockersLogic.sol:LockersLogic",
            "label": "MaxLockerFee",
            "offset": 0,
            "slot": "3",
            "type": "t_uint256"
          },
          {
            "astId": 19876,
            "contract": "contracts/lockers/LockersLogic.sol:LockersLogic",
            "label": "NativeTokenDecimal",
            "offset": 0,
            "slot": "4",
            "type": "t_uint256"
          },
          {
            "astId": 19878,
            "contract": "contracts/lockers/LockersLogic.sol:LockersLogic",
            "label": "NativeToken",
            "offset": 0,
            "slot": "5",
            "type": "t_address"
          }
        ],
        "numberOfBytes": "192"
      },
      "t_struct(lockersLibParam)19904_storage": {
        "encoding": "inplace",
        "label": "struct DataTypes.lockersLibParam",
        "members": [
          {
            "astId": 19881,
            "contract": "contracts/lockers/LockersLogic.sol:LockersLogic",
            "label": "teleportDAOToken",
            "offset": 0,
            "slot": "0",
            "type": "t_address"
          },
          {
            "astId": 19883,
            "contract": "contracts/lockers/LockersLogic.sol:LockersLogic",
            "label": "teleBTC",
            "offset": 0,
            "slot": "1",
            "type": "t_address"
          },
          {
            "astId": 19885,
            "contract": "contracts/lockers/LockersLogic.sol:LockersLogic",
            "label": "ccBurnRouter",
            "offset": 0,
            "slot": "2",
            "type": "t_address"
          },
          {
            "astId": 19887,
            "contract": "contracts/lockers/LockersLogic.sol:LockersLogic",
            "label": "exchangeConnector",
            "offset": 0,
            "slot": "3",
            "type": "t_address"
          },
          {
            "astId": 19889,
            "contract": "contracts/lockers/LockersLogic.sol:LockersLogic",
            "label": "priceOracle",
            "offset": 0,
            "slot": "4",
            "type": "t_address"
          },
          {
            "astId": 19891,
            "contract": "contracts/lockers/LockersLogic.sol:LockersLogic",
            "label": "minRequiredTDTLockedAmount",
            "offset": 0,
            "slot": "5",
            "type": "t_uint256"
          },
          {
            "astId": 19893,
            "contract": "contracts/lockers/LockersLogic.sol:LockersLogic",
            "label": "minRequiredTNTLockedAmount",
            "offset": 0,
            "slot": "6",
            "type": "t_uint256"
          },
          {
            "astId": 19895,
            "contract": "contracts/lockers/LockersLogic.sol:LockersLogic",
            "label": "lockerPercentageFee",
            "offset": 0,
            "slot": "7",
            "type": "t_uint256"
          },
          {
            "astId": 19897,
            "contract": "contracts/lockers/LockersLogic.sol:LockersLogic",
            "label": "collateralRatio",
            "offset": 0,
            "slot": "8",
            "type": "t_uint256"
          },
          {
            "astId": 19899,
            "contract": "contracts/lockers/LockersLogic.sol:LockersLogic",
            "label": "liquidationRatio",
            "offset": 0,
            "slot": "9",
            "type": "t_uint256"
          },
          {
            "astId": 19901,
            "contract": "contracts/lockers/LockersLogic.sol:LockersLogic",
            "label": "priceWithDiscountRatio",
            "offset": 0,
            "slot": "10",
            "type": "t_uint256"
          },
          {
            "astId": 19903,
            "contract": "contracts/lockers/LockersLogic.sol:LockersLogic",
            "label": "inactivationDelay",
            "offset": 0,
            "slot": "11",
            "type": "t_uint256"
          }
        ],
        "numberOfBytes": "384"
      },
      "t_uint256": {
        "encoding": "inplace",
        "label": "uint256",
        "numberOfBytes": "32"
      },
      "t_uint8": {
        "encoding": "inplace",
        "label": "uint8",
        "numberOfBytes": "1"
      }
    }
  }
}