{
  "address": "0x63b054c9c52d7997b7C9B2054720EE83BD699CFD",
  "abi": [
    {
      "anonymous": false,
      "inputs": [
        {
          "indexed": true,
          "internalType": "address",
          "name": "lockerTargetAddress",
          "type": "address"
        },
        {
          "indexed": false,
          "internalType": "bytes",
          "name": "lockerLockingScript",
          "type": "bytes"
        },
        {
          "indexed": false,
          "internalType": "uint256",
          "name": "TDTLockedAmount",
          "type": "uint256"
        },
        {
          "indexed": false,
          "internalType": "uint256",
          "name": "nativeTokenLockedAmount",
          "type": "uint256"
        },
        {
          "indexed": false,
          "internalType": "uint256",
          "name": "netMinted",
          "type": "uint256"
        }
      ],
      "name": "ActivateLocker",
      "type": "event"
    },
    {
      "anonymous": false,
      "inputs": [
        {
          "indexed": true,
          "internalType": "address",
          "name": "lockerTargetAddress",
          "type": "address"
        },
        {
          "indexed": false,
          "internalType": "uint256",
          "name": "burntAmount",
          "type": "uint256"
        },
        {
          "indexed": false,
          "internalType": "uint256",
          "name": "lockerFee",
          "type": "uint256"
        },
        {
          "indexed": false,
          "internalType": "uint256",
          "name": "burningTime",
          "type": "uint256"
        }
      ],
      "name": "BurnByLocker",
      "type": "event"
    },
    {
      "anonymous": false,
      "inputs": [
        {
          "indexed": true,
          "internalType": "address",
          "name": "account",
          "type": "address"
        }
      ],
      "name": "BurnerAdded",
      "type": "event"
    },
    {
      "anonymous": false,
      "inputs": [
        {
          "indexed": true,
          "internalType": "address",
          "name": "account",
          "type": "address"
        }
      ],
      "name": "BurnerRemoved",
      "type": "event"
    },
    {
      "anonymous": false,
      "inputs": [
        {
          "indexed": true,
          "internalType": "address",
          "name": "lockerTargetAddress",
          "type": "address"
        },
        {
          "indexed": false,
          "internalType": "uint256",
          "name": "addedCollateral",
          "type": "uint256"
        },
        {
          "indexed": false,
          "internalType": "uint256",
          "name": "totalCollateral",
          "type": "uint256"
        },
        {
          "indexed": false,
          "internalType": "uint256",
          "name": "addingTime",
          "type": "uint256"
        }
      ],
      "name": "CollateralAdded",
      "type": "event"
    },
    {
      "anonymous": false,
      "inputs": [
        {
          "indexed": true,
          "internalType": "address",
          "name": "lockerTargetAddress",
          "type": "address"
        },
        {
          "indexed": false,
          "internalType": "uint256",
          "name": "removedCollateral",
          "type": "uint256"
        },
        {
          "indexed": false,
          "internalType": "uint256",
          "name": "totalCollateral",
          "type": "uint256"
        },
        {
          "indexed": false,
          "internalType": "uint256",
          "name": "removingTime",
          "type": "uint256"
        }
      ],
      "name": "CollateralRemoved",
      "type": "event"
    },
    {
      "anonymous": false,
      "inputs": [
        {
          "indexed": false,
          "internalType": "uint8",
          "name": "version",
          "type": "uint8"
        }
      ],
      "name": "Initialized",
      "type": "event"
    },
    {
      "anonymous": false,
      "inputs": [
        {
          "indexed": true,
          "internalType": "address",
          "name": "lockerTargetAddress",
          "type": "address"
        },
        {
          "indexed": false,
          "internalType": "bytes",
          "name": "lockerLockingScript",
          "type": "bytes"
        },
        {
          "indexed": false,
          "internalType": "uint256",
          "name": "TDTLockedAmount",
          "type": "uint256"
        },
        {
          "indexed": false,
          "internalType": "uint256",
          "name": "nativeTokenLockedAmount",
          "type": "uint256"
        },
        {
          "indexed": false,
          "internalType": "uint256",
          "name": "addingTime",
          "type": "uint256"
        }
      ],
      "name": "LockerAdded",
      "type": "event"
    },
    {
      "anonymous": false,
      "inputs": [
        {
          "indexed": true,
          "internalType": "address",
          "name": "lockerTargetAddress",
          "type": "address"
        },
        {
          "indexed": true,
          "internalType": "address",
          "name": "liquidatorAddress",
          "type": "address"
        },
        {
          "indexed": false,
          "internalType": "uint256",
          "name": "collateralAmount",
          "type": "uint256"
        },
        {
          "indexed": false,
          "internalType": "uint256",
          "name": "teleBTCAmount",
          "type": "uint256"
        },
        {
          "indexed": false,
          "internalType": "uint256",
          "name": "liquidateTime",
          "type": "uint256"
        }
      ],
      "name": "LockerLiquidated",
      "type": "event"
    },
    {
      "anonymous": false,
      "inputs": [
        {
          "indexed": true,
          "internalType": "address",
          "name": "lockerTargetAddress",
          "type": "address"
        },
        {
          "indexed": false,
          "internalType": "bytes",
          "name": "lockerLockingScript",
          "type": "bytes"
        },
        {
          "indexed": false,
          "internalType": "uint256",
          "name": "TDTUnlockedAmount",
          "type": "uint256"
        },
        {
          "indexed": false,
          "internalType": "uint256",
          "name": "nativeTokenUnlockedAmount",
          "type": "uint256"
        }
      ],
      "name": "LockerRemoved",
      "type": "event"
    },
    {
      "anonymous": false,
      "inputs": [
        {
          "indexed": true,
          "internalType": "address",
          "name": "lockerTargetAddress",
          "type": "address"
        },
        {
          "indexed": false,
          "internalType": "uint256",
          "name": "rewardAmount",
          "type": "uint256"
        },
        {
          "indexed": true,
          "internalType": "address",
          "name": "rewardRecipient",
          "type": "address"
        },
        {
          "indexed": false,
          "internalType": "uint256",
          "name": "amount",
          "type": "uint256"
        },
        {
          "indexed": true,
          "internalType": "address",
          "name": "recipient",
          "type": "address"
        },
        {
          "indexed": false,
          "internalType": "uint256",
          "name": "slashedCollateralAmount",
          "type": "uint256"
        },
        {
          "indexed": false,
          "internalType": "uint256",
          "name": "slashTime",
          "type": "uint256"
        },
        {
          "indexed": false,
          "internalType": "bool",
          "name": "isForCCBurn",
          "type": "bool"
        }
      ],
      "name": "LockerSlashed",
      "type": "event"
    },
    {
      "anonymous": false,
      "inputs": [
        {
          "indexed": true,
          "internalType": "address",
          "name": "lockerTargetAddress",
          "type": "address"
        },
        {
          "indexed": true,
          "internalType": "address",
          "name": "buyerAddress",
          "type": "address"
        },
        {
          "indexed": false,
          "internalType": "uint256",
          "name": "slashingAmount",
          "type": "uint256"
        },
        {
          "indexed": false,
          "internalType": "uint256",
          "name": "teleBTCAmount",
          "type": "uint256"
        },
        {
          "indexed": false,
          "internalType": "uint256",
          "name": "slashingTime",
          "type": "uint256"
        }
      ],
      "name": "LockerSlashedCollateralSold",
      "type": "event"
    },
    {
      "anonymous": false,
      "inputs": [
        {
          "indexed": true,
          "internalType": "address",
          "name": "lockerTargetAddress",
          "type": "address"
        },
        {
          "indexed": true,
          "internalType": "address",
          "name": "receiver",
          "type": "address"
        },
        {
          "indexed": false,
          "internalType": "uint256",
          "name": "mintedAmount",
          "type": "uint256"
        },
        {
          "indexed": false,
          "internalType": "uint256",
          "name": "lockerFee",
          "type": "uint256"
        },
        {
          "indexed": false,
          "internalType": "uint256",
          "name": "mintingTime",
          "type": "uint256"
        }
      ],
      "name": "MintByLocker",
      "type": "event"
    },
    {
      "anonymous": false,
      "inputs": [
        {
          "indexed": true,
          "internalType": "address",
          "name": "account",
          "type": "address"
        }
      ],
      "name": "MinterAdded",
      "type": "event"
    },
    {
      "anonymous": false,
      "inputs": [
        {
          "indexed": true,
          "internalType": "address",
          "name": "account",
          "type": "address"
        }
      ],
      "name": "MinterRemoved",
      "type": "event"
    },
    {
      "anonymous": false,
      "inputs": [
        {
          "indexed": false,
          "internalType": "address",
          "name": "oldCCBurnRouter",
          "type": "address"
        },
        {
          "indexed": false,
          "internalType": "address",
          "name": "newCCBurnRouter",
          "type": "address"
        }
      ],
      "name": "NewCCBurnRouter",
      "type": "event"
    },
    {
      "anonymous": false,
      "inputs": [
        {
          "indexed": false,
          "internalType": "uint256",
          "name": "oldCollateralRatio",
          "type": "uint256"
        },
        {
          "indexed": false,
          "internalType": "uint256",
          "name": "newCollateralRatio",
          "type": "uint256"
        }
      ],
      "name": "NewCollateralRatio",
      "type": "event"
    },
    {
      "anonymous": false,
      "inputs": [
        {
          "indexed": false,
          "internalType": "address",
          "name": "oldExchangeConnector",
          "type": "address"
        },
        {
          "indexed": false,
          "internalType": "address",
          "name": "newExchangeConnector",
          "type": "address"
        }
      ],
      "name": "NewExchangeConnector",
      "type": "event"
    },
    {
      "anonymous": false,
      "inputs": [
        {
          "indexed": false,
          "internalType": "uint256",
          "name": "oldLiquidationRatio",
          "type": "uint256"
        },
        {
          "indexed": false,
          "internalType": "uint256",
          "name": "newLiquidationRatio",
          "type": "uint256"
        }
      ],
      "name": "NewLiquidationRatio",
      "type": "event"
    },
    {
      "anonymous": false,
      "inputs": [
        {
          "indexed": false,
          "internalType": "uint256",
          "name": "oldLockerPercentageFee",
          "type": "uint256"
        },
        {
          "indexed": false,
          "internalType": "uint256",
          "name": "newLockerPercentageFee",
          "type": "uint256"
        }
      ],
      "name": "NewLockerPercentageFee",
      "type": "event"
    },
    {
      "anonymous": false,
      "inputs": [
        {
          "indexed": false,
          "internalType": "uint256",
          "name": "oldMinRequiredTDTLockedAmount",
          "type": "uint256"
        },
        {
          "indexed": false,
          "internalType": "uint256",
          "name": "newMinRequiredTDTLockedAmount",
          "type": "uint256"
        }
      ],
      "name": "NewMinRequiredTDTLockedAmount",
      "type": "event"
    },
    {
      "anonymous": false,
      "inputs": [
        {
          "indexed": false,
          "internalType": "uint256",
          "name": "oldMinRequiredTNTLockedAmount",
          "type": "uint256"
        },
        {
          "indexed": false,
          "internalType": "uint256",
          "name": "newMinRequiredTNTLockedAmount",
          "type": "uint256"
        }
      ],
      "name": "NewMinRequiredTNTLockedAmount",
      "type": "event"
    },
    {
      "anonymous": false,
      "inputs": [
        {
          "indexed": false,
          "internalType": "address",
          "name": "oldPriceOracle",
          "type": "address"
        },
        {
          "indexed": false,
          "internalType": "address",
          "name": "newPriceOracle",
          "type": "address"
        }
      ],
      "name": "NewPriceOracle",
      "type": "event"
    },
    {
      "anonymous": false,
      "inputs": [
        {
          "indexed": false,
          "internalType": "uint256",
          "name": "oldPriceWithDiscountRatio",
          "type": "uint256"
        },
        {
          "indexed": false,
          "internalType": "uint256",
          "name": "newPriceWithDiscountRatio",
          "type": "uint256"
        }
      ],
      "name": "NewPriceWithDiscountRatio",
      "type": "event"
    },
    {
      "anonymous": false,
      "inputs": [
        {
          "indexed": false,
          "internalType": "address",
          "name": "oldTeleBTC",
          "type": "address"
        },
        {
          "indexed": false,
          "internalType": "address",
          "name": "newTeleBTC",
          "type": "address"
        }
      ],
      "name": "NewTeleBTC",
      "type": "event"
    },
    {
      "anonymous": false,
      "inputs": [
        {
          "indexed": false,
          "internalType": "address",
          "name": "oldTDTToken",
          "type": "address"
        },
        {
          "indexed": false,
          "internalType": "address",
          "name": "newTDTToken",
          "type": "address"
        }
      ],
      "name": "NewTeleportDAOToken",
      "type": "event"
    },
    {
      "anonymous": false,
      "inputs": [
        {
          "indexed": true,
          "internalType": "address",
          "name": "previousOwner",
          "type": "address"
        },
        {
          "indexed": true,
          "internalType": "address",
          "name": "newOwner",
          "type": "address"
        }
      ],
      "name": "OwnershipTransferred",
      "type": "event"
    },
    {
      "anonymous": false,
      "inputs": [
        {
          "indexed": false,
          "internalType": "address",
          "name": "account",
          "type": "address"
        }
      ],
      "name": "Paused",
      "type": "event"
    },
    {
      "anonymous": false,
      "inputs": [
        {
          "indexed": true,
          "internalType": "address",
          "name": "lockerTargetAddress",
          "type": "address"
        },
        {
          "indexed": false,
          "internalType": "bytes",
          "name": "lockerLockingScript",
          "type": "bytes"
        },
        {
          "indexed": false,
          "internalType": "uint256",
          "name": "TDTLockedAmount",
          "type": "uint256"
        },
        {
          "indexed": false,
          "internalType": "uint256",
          "name": "nativeTokenLockedAmount",
          "type": "uint256"
        }
      ],
      "name": "RequestAddLocker",
      "type": "event"
    },
    {
      "anonymous": false,
      "inputs": [
        {
          "indexed": true,
          "internalType": "address",
          "name": "lockerTargetAddress",
          "type": "address"
        },
        {
          "indexed": true,
          "internalType": "uint256",
          "name": "inactivationTimestamp",
          "type": "uint256"
        },
        {
          "indexed": false,
          "internalType": "bytes",
          "name": "lockerLockingScript",
          "type": "bytes"
        },
        {
          "indexed": false,
          "internalType": "uint256",
          "name": "TDTLockedAmount",
          "type": "uint256"
        },
        {
          "indexed": false,
          "internalType": "uint256",
          "name": "nativeTokenLockedAmount",
          "type": "uint256"
        },
        {
          "indexed": false,
          "internalType": "uint256",
          "name": "netMinted",
          "type": "uint256"
        }
      ],
      "name": "RequestInactivateLocker",
      "type": "event"
    },
    {
      "anonymous": false,
      "inputs": [
        {
          "indexed": true,
          "internalType": "address",
          "name": "lockerTargetAddress",
          "type": "address"
        },
        {
          "indexed": false,
          "internalType": "bytes",
          "name": "lockerLockingScript",
          "type": "bytes"
        },
        {
          "indexed": false,
          "internalType": "uint256",
          "name": "TDTLockedAmount",
          "type": "uint256"
        },
        {
          "indexed": false,
          "internalType": "uint256",
          "name": "nativeTokenLockedAmount",
          "type": "uint256"
        }
      ],
      "name": "RevokeAddLockerRequest",
      "type": "event"
    },
    {
      "anonymous": false,
      "inputs": [
        {
          "indexed": false,
          "internalType": "address",
          "name": "account",
          "type": "address"
        }
      ],
      "name": "Unpaused",
      "type": "event"
    },
    {
      "inputs": [],
      "name": "HEALTH_FACTOR",
      "outputs": [
        {
          "internalType": "uint256",
          "name": "",
          "type": "uint256"
        }
      ],
      "stateMutability": "view",
      "type": "function"
    },
    {
      "inputs": [],
      "name": "INACTIVATION_DELAY",
      "outputs": [
        {
          "internalType": "uint256",
          "name": "",
          "type": "uint256"
        }
      ],
      "stateMutability": "view",
      "type": "function"
    },
    {
      "inputs": [],
      "name": "MAX_LOCKER_FEE",
      "outputs": [
        {
          "internalType": "uint256",
          "name": "",
          "type": "uint256"
        }
      ],
      "stateMutability": "view",
      "type": "function"
    },
    {
      "inputs": [],
      "name": "NATIVE_TOKEN",
      "outputs": [
        {
          "internalType": "address",
          "name": "",
          "type": "address"
        }
      ],
      "stateMutability": "view",
      "type": "function"
    },
    {
      "inputs": [],
      "name": "NATIVE_TOKEN_DECIMAL",
      "outputs": [
        {
          "internalType": "uint256",
          "name": "",
          "type": "uint256"
        }
      ],
      "stateMutability": "view",
      "type": "function"
    },
    {
      "inputs": [],
      "name": "ONE_HUNDRED_PERCENT",
      "outputs": [
        {
          "internalType": "uint256",
          "name": "",
          "type": "uint256"
        }
      ],
      "stateMutability": "view",
      "type": "function"
    },
    {
      "inputs": [],
      "name": "TeleportDAOToken",
      "outputs": [
        {
          "internalType": "address",
          "name": "",
          "type": "address"
        }
      ],
      "stateMutability": "view",
      "type": "function"
    },
    {
      "inputs": [],
      "name": "UPPER_HEALTH_FACTOR",
      "outputs": [
        {
          "internalType": "uint256",
          "name": "",
          "type": "uint256"
        }
      ],
      "stateMutability": "view",
      "type": "function"
    },
    {
      "inputs": [
        {
          "internalType": "address",
          "name": "_account",
          "type": "address"
        }
      ],
      "name": "addBurner",
      "outputs": [],
      "stateMutability": "nonpayable",
      "type": "function"
    },
    {
      "inputs": [
        {
          "internalType": "address",
          "name": "_lockerTargetAddress",
          "type": "address"
        },
        {
          "internalType": "uint256",
          "name": "_addingNativeTokenAmount",
          "type": "uint256"
        }
      ],
      "name": "addCollateral",
      "outputs": [
        {
          "internalType": "bool",
          "name": "",
          "type": "bool"
        }
      ],
      "stateMutability": "payable",
      "type": "function"
    },
    {
      "inputs": [
        {
          "internalType": "address",
          "name": "_lockerTargetAddress",
          "type": "address"
        }
      ],
      "name": "addLocker",
      "outputs": [
        {
          "internalType": "bool",
          "name": "",
          "type": "bool"
        }
      ],
      "stateMutability": "nonpayable",
      "type": "function"
    },
    {
      "inputs": [
        {
          "internalType": "address",
          "name": "_account",
          "type": "address"
        }
      ],
      "name": "addMinter",
      "outputs": [],
      "stateMutability": "nonpayable",
      "type": "function"
    },
    {
      "inputs": [
        {
          "internalType": "bytes",
          "name": "_lockerLockingScript",
          "type": "bytes"
        },
        {
          "internalType": "uint256",
          "name": "_amount",
          "type": "uint256"
        }
      ],
      "name": "burn",
      "outputs": [
        {
          "internalType": "uint256",
          "name": "",
          "type": "uint256"
        }
      ],
      "stateMutability": "nonpayable",
      "type": "function"
    },
    {
      "inputs": [
        {
          "internalType": "address",
          "name": "_lockerTargetAddress",
          "type": "address"
        },
        {
          "internalType": "uint256",
          "name": "_collateralAmount",
          "type": "uint256"
        }
      ],
      "name": "buySlashedCollateralOfLocker",
      "outputs": [
        {
          "internalType": "bool",
          "name": "",
          "type": "bool"
        }
      ],
      "stateMutability": "nonpayable",
      "type": "function"
    },
    {
      "inputs": [],
      "name": "ccBurnRouter",
      "outputs": [
        {
          "internalType": "address",
          "name": "",
          "type": "address"
        }
      ],
      "stateMutability": "view",
      "type": "function"
    },
    {
      "inputs": [],
      "name": "collateralRatio",
      "outputs": [
        {
          "internalType": "uint256",
          "name": "",
          "type": "uint256"
        }
      ],
      "stateMutability": "view",
      "type": "function"
    },
    {
      "inputs": [],
      "name": "exchangeConnector",
      "outputs": [
        {
          "internalType": "address",
          "name": "",
          "type": "address"
        }
      ],
      "stateMutability": "view",
      "type": "function"
    },
    {
      "inputs": [
        {
          "internalType": "address",
          "name": "_lockerTargetAddress",
          "type": "address"
        }
      ],
      "name": "getLockerCapacity",
      "outputs": [
        {
          "internalType": "uint256",
          "name": "",
          "type": "uint256"
        }
      ],
      "stateMutability": "view",
      "type": "function"
    },
    {
      "inputs": [
        {
          "internalType": "address",
          "name": "_lockerTargetAddress",
          "type": "address"
        }
      ],
      "name": "getLockerLockingScript",
      "outputs": [
        {
          "internalType": "bytes",
          "name": "",
          "type": "bytes"
        }
      ],
      "stateMutability": "view",
      "type": "function"
    },
    {
      "inputs": [
        {
          "internalType": "bytes",
          "name": "_lockerLockingScript",
          "type": "bytes"
        }
      ],
      "name": "getLockerTargetAddress",
      "outputs": [
        {
          "internalType": "address",
          "name": "",
          "type": "address"
        }
      ],
      "stateMutability": "view",
      "type": "function"
    },
    {
      "inputs": [],
      "name": "getNumberOfLockers",
      "outputs": [
        {
          "internalType": "uint256",
          "name": "",
          "type": "uint256"
        }
      ],
      "stateMutability": "view",
      "type": "function"
    },
    {
      "inputs": [
        {
          "internalType": "address",
          "name": "_teleBTC",
          "type": "address"
        },
        {
          "internalType": "address",
          "name": "_TeleportDAOToken",
          "type": "address"
        },
        {
          "internalType": "address",
          "name": "_exchangeConnector",
          "type": "address"
        },
        {
          "internalType": "address",
          "name": "_priceOracle",
          "type": "address"
        },
        {
          "internalType": "address",
          "name": "_ccBurnRouter",
          "type": "address"
        },
        {
          "internalType": "uint256",
          "name": "_minRequiredTDTLockedAmount",
          "type": "uint256"
        },
        {
          "internalType": "uint256",
          "name": "_minRequiredTNTLockedAmount",
          "type": "uint256"
        },
        {
          "internalType": "uint256",
          "name": "_collateralRatio",
          "type": "uint256"
        },
        {
          "internalType": "uint256",
          "name": "_liquidationRatio",
          "type": "uint256"
        },
        {
          "internalType": "uint256",
          "name": "_lockerPercentageFee",
          "type": "uint256"
        },
        {
          "internalType": "uint256",
          "name": "_priceWithDiscountRatio",
          "type": "uint256"
        }
      ],
      "name": "initialize",
      "outputs": [],
      "stateMutability": "nonpayable",
      "type": "function"
    },
    {
      "inputs": [
        {
          "internalType": "address",
          "name": "account",
          "type": "address"
        }
      ],
      "name": "isBurner",
      "outputs": [
        {
          "internalType": "bool",
          "name": "",
          "type": "bool"
        }
      ],
      "stateMutability": "view",
      "type": "function"
    },
    {
      "inputs": [
        {
          "internalType": "bytes",
          "name": "_lockerLockingScript",
          "type": "bytes"
        }
      ],
      "name": "isLocker",
      "outputs": [
        {
          "internalType": "bool",
          "name": "",
          "type": "bool"
        }
      ],
      "stateMutability": "view",
      "type": "function"
    },
    {
      "inputs": [
        {
          "internalType": "address",
          "name": "_lockerTargetAddress",
          "type": "address"
        }
      ],
      "name": "isLockerActive",
      "outputs": [
        {
          "internalType": "bool",
          "name": "",
          "type": "bool"
        }
      ],
      "stateMutability": "view",
      "type": "function"
    },
    {
      "inputs": [
        {
          "internalType": "address",
          "name": "account",
          "type": "address"
        }
      ],
      "name": "isMinter",
      "outputs": [
        {
          "internalType": "bool",
          "name": "",
          "type": "bool"
        }
      ],
      "stateMutability": "view",
      "type": "function"
    },
    {
      "inputs": [],
      "name": "libConstants",
      "outputs": [
        {
          "internalType": "uint256",
          "name": "OneHundredPercent",
          "type": "uint256"
        },
        {
          "internalType": "uint256",
          "name": "HealthFactor",
          "type": "uint256"
        },
        {
          "internalType": "uint256",
          "name": "UpperHealthFactor",
          "type": "uint256"
        },
        {
          "internalType": "uint256",
          "name": "MaxLockerFee",
          "type": "uint256"
        },
        {
          "internalType": "uint256",
          "name": "NativeTokenDecimal",
          "type": "uint256"
        },
        {
          "internalType": "address",
          "name": "NativeToken",
          "type": "address"
        }
      ],
      "stateMutability": "view",
      "type": "function"
    },
    {
      "inputs": [],
      "name": "libParams",
      "outputs": [
        {
          "internalType": "address",
          "name": "teleportDAOToken",
          "type": "address"
        },
        {
          "internalType": "address",
          "name": "teleBTC",
          "type": "address"
        },
        {
          "internalType": "address",
          "name": "ccBurnRouter",
          "type": "address"
        },
        {
          "internalType": "address",
          "name": "exchangeConnector",
          "type": "address"
        },
        {
          "internalType": "address",
          "name": "priceOracle",
          "type": "address"
        },
        {
          "internalType": "uint256",
          "name": "minRequiredTDTLockedAmount",
          "type": "uint256"
        },
        {
          "internalType": "uint256",
          "name": "minRequiredTNTLockedAmount",
          "type": "uint256"
        },
        {
          "internalType": "uint256",
          "name": "lockerPercentageFee",
          "type": "uint256"
        },
        {
          "internalType": "uint256",
          "name": "collateralRatio",
          "type": "uint256"
        },
        {
          "internalType": "uint256",
          "name": "liquidationRatio",
          "type": "uint256"
        },
        {
          "internalType": "uint256",
          "name": "priceWithDiscountRatio",
          "type": "uint256"
        },
        {
          "internalType": "uint256",
          "name": "inactivationDelay",
          "type": "uint256"
        }
      ],
      "stateMutability": "view",
      "type": "function"
    },
    {
      "inputs": [
        {
          "internalType": "address",
          "name": "_lockerTargetAddress",
          "type": "address"
        },
        {
          "internalType": "uint256",
          "name": "_collateralAmount",
          "type": "uint256"
        }
      ],
      "name": "liquidateLocker",
      "outputs": [
        {
          "internalType": "bool",
          "name": "",
          "type": "bool"
        }
      ],
      "stateMutability": "nonpayable",
      "type": "function"
    },
    {
      "inputs": [],
      "name": "liquidationRatio",
      "outputs": [
        {
          "internalType": "uint256",
          "name": "",
          "type": "uint256"
        }
      ],
      "stateMutability": "view",
      "type": "function"
    },
    {
      "inputs": [
        {
          "internalType": "address",
          "name": "",
          "type": "address"
        }
      ],
      "name": "lockerInactivationTimestamp",
      "outputs": [
        {
          "internalType": "uint256",
          "name": "",
          "type": "uint256"
        }
      ],
      "stateMutability": "view",
      "type": "function"
    },
    {
      "inputs": [
        {
          "internalType": "address",
          "name": "",
          "type": "address"
        }
      ],
      "name": "lockerLeavingAcceptance",
      "outputs": [
        {
          "internalType": "bool",
          "name": "",
          "type": "bool"
        }
      ],
      "stateMutability": "view",
      "type": "function"
    },
    {
      "inputs": [],
      "name": "lockerPercentageFee",
      "outputs": [
        {
          "internalType": "uint256",
          "name": "",
          "type": "uint256"
        }
      ],
      "stateMutability": "view",
      "type": "function"
    },
    {
      "inputs": [
        {
          "internalType": "bytes",
          "name": "",
          "type": "bytes"
        }
      ],
      "name": "lockerTargetAddress",
      "outputs": [
        {
          "internalType": "address",
          "name": "",
          "type": "address"
        }
      ],
      "stateMutability": "view",
      "type": "function"
    },
    {
      "inputs": [
        {
          "internalType": "address",
          "name": "",
          "type": "address"
        }
      ],
      "name": "lockersMapping",
      "outputs": [
        {
          "internalType": "bytes",
          "name": "lockerLockingScript",
          "type": "bytes"
        },
        {
          "internalType": "enum ScriptTypes",
          "name": "lockerRescueType",
          "type": "uint8"
        },
        {
          "internalType": "bytes",
          "name": "lockerRescueScript",
          "type": "bytes"
        },
        {
          "internalType": "uint256",
          "name": "TDTLockedAmount",
          "type": "uint256"
        },
        {
          "internalType": "uint256",
          "name": "nativeTokenLockedAmount",
          "type": "uint256"
        },
        {
          "internalType": "uint256",
          "name": "netMinted",
          "type": "uint256"
        },
        {
          "internalType": "uint256",
          "name": "slashingTeleBTCAmount",
          "type": "uint256"
        },
        {
          "internalType": "uint256",
          "name": "reservedNativeTokenForSlash",
          "type": "uint256"
        },
        {
          "internalType": "bool",
          "name": "isLocker",
          "type": "bool"
        },
        {
          "internalType": "bool",
          "name": "isCandidate",
          "type": "bool"
        },
        {
          "internalType": "bool",
          "name": "isScriptHash",
          "type": "bool"
        }
      ],
      "stateMutability": "view",
      "type": "function"
    },
    {
      "inputs": [],
      "name": "minRequiredTDTLockedAmount",
      "outputs": [
        {
          "internalType": "uint256",
          "name": "",
          "type": "uint256"
        }
      ],
      "stateMutability": "view",
      "type": "function"
    },
    {
      "inputs": [],
      "name": "minRequiredTNTLockedAmount",
      "outputs": [
        {
          "internalType": "uint256",
          "name": "",
          "type": "uint256"
        }
      ],
      "stateMutability": "view",
      "type": "function"
    },
    {
      "inputs": [
        {
          "internalType": "bytes",
          "name": "_lockerLockingScript",
          "type": "bytes"
        },
        {
          "internalType": "address",
          "name": "_receiver",
          "type": "address"
        },
        {
          "internalType": "uint256",
          "name": "_amount",
          "type": "uint256"
        }
      ],
      "name": "mint",
      "outputs": [
        {
          "internalType": "uint256",
          "name": "",
          "type": "uint256"
        }
      ],
      "stateMutability": "nonpayable",
      "type": "function"
    },
    {
      "inputs": [],
      "name": "owner",
      "outputs": [
        {
          "internalType": "address",
          "name": "",
          "type": "address"
        }
      ],
      "stateMutability": "view",
      "type": "function"
    },
    {
      "inputs": [],
      "name": "pauseLocker",
      "outputs": [],
      "stateMutability": "nonpayable",
      "type": "function"
    },
    {
      "inputs": [],
      "name": "paused",
      "outputs": [
        {
          "internalType": "bool",
          "name": "",
          "type": "bool"
        }
      ],
      "stateMutability": "view",
      "type": "function"
    },
    {
      "inputs": [],
      "name": "priceOfOneUnitOfCollateralInBTC",
      "outputs": [
        {
          "internalType": "uint256",
          "name": "",
          "type": "uint256"
        }
      ],
      "stateMutability": "view",
      "type": "function"
    },
    {
      "inputs": [],
      "name": "priceOracle",
      "outputs": [
        {
          "internalType": "address",
          "name": "",
          "type": "address"
        }
      ],
      "stateMutability": "view",
      "type": "function"
    },
    {
      "inputs": [],
      "name": "priceWithDiscountRatio",
      "outputs": [
        {
          "internalType": "uint256",
          "name": "",
          "type": "uint256"
        }
      ],
      "stateMutability": "view",
      "type": "function"
    },
    {
      "inputs": [
        {
          "internalType": "address",
          "name": "_account",
          "type": "address"
        }
      ],
      "name": "removeBurner",
      "outputs": [],
      "stateMutability": "nonpayable",
      "type": "function"
    },
    {
      "inputs": [
        {
          "internalType": "uint256",
          "name": "_removingNativeTokenAmount",
          "type": "uint256"
        }
      ],
      "name": "removeCollateral",
      "outputs": [
        {
          "internalType": "bool",
          "name": "",
          "type": "bool"
        }
      ],
      "stateMutability": "payable",
      "type": "function"
    },
    {
      "inputs": [
        {
          "internalType": "address",
          "name": "_account",
          "type": "address"
        }
      ],
      "name": "removeMinter",
      "outputs": [],
      "stateMutability": "nonpayable",
      "type": "function"
    },
    {
      "inputs": [],
      "name": "renounceOwnership",
      "outputs": [],
      "stateMutability": "nonpayable",
      "type": "function"
    },
    {
      "inputs": [],
      "name": "requestActivation",
      "outputs": [
        {
          "internalType": "bool",
          "name": "",
          "type": "bool"
        }
      ],
      "stateMutability": "nonpayable",
      "type": "function"
    },
    {
      "inputs": [],
      "name": "requestInactivation",
      "outputs": [
        {
          "internalType": "bool",
          "name": "",
          "type": "bool"
        }
      ],
      "stateMutability": "nonpayable",
      "type": "function"
    },
    {
      "inputs": [
        {
          "internalType": "bytes",
          "name": "_candidateLockingScript",
          "type": "bytes"
        },
        {
          "internalType": "uint256",
          "name": "_lockedTDTAmount",
          "type": "uint256"
        },
        {
          "internalType": "uint256",
          "name": "_lockedNativeTokenAmount",
          "type": "uint256"
        },
        {
          "internalType": "enum ScriptTypes",
          "name": "_lockerRescueType",
          "type": "uint8"
        },
        {
          "internalType": "bytes",
          "name": "_lockerRescueScript",
          "type": "bytes"
        }
      ],
      "name": "requestToBecomeLocker",
      "outputs": [
        {
          "internalType": "bool",
          "name": "",
          "type": "bool"
        }
      ],
      "stateMutability": "payable",
      "type": "function"
    },
    {
      "inputs": [],
      "name": "revokeRequest",
      "outputs": [
        {
          "internalType": "bool",
          "name": "",
          "type": "bool"
        }
      ],
      "stateMutability": "nonpayable",
      "type": "function"
    },
    {
      "inputs": [],
      "name": "selfRemoveLocker",
      "outputs": [
        {
          "internalType": "bool",
          "name": "",
          "type": "bool"
        }
      ],
      "stateMutability": "nonpayable",
      "type": "function"
    },
    {
      "inputs": [
        {
          "internalType": "address",
          "name": "_ccBurnRouter",
          "type": "address"
        }
      ],
      "name": "setCCBurnRouter",
      "outputs": [],
      "stateMutability": "nonpayable",
      "type": "function"
    },
    {
      "inputs": [
        {
          "internalType": "uint256",
          "name": "_collateralRatio",
          "type": "uint256"
        }
      ],
      "name": "setCollateralRatio",
      "outputs": [],
      "stateMutability": "nonpayable",
      "type": "function"
    },
    {
      "inputs": [
        {
          "internalType": "address",
          "name": "_exchangeConnector",
          "type": "address"
        }
      ],
      "name": "setExchangeConnector",
      "outputs": [],
      "stateMutability": "nonpayable",
      "type": "function"
    },
    {
      "inputs": [
        {
          "internalType": "uint256",
          "name": "_liquidationRatio",
          "type": "uint256"
        }
      ],
      "name": "setLiquidationRatio",
      "outputs": [],
      "stateMutability": "nonpayable",
      "type": "function"
    },
    {
      "inputs": [
        {
          "internalType": "uint256",
          "name": "_lockerPercentageFee",
          "type": "uint256"
        }
      ],
      "name": "setLockerPercentageFee",
      "outputs": [],
      "stateMutability": "nonpayable",
      "type": "function"
    },
    {
      "inputs": [
        {
          "internalType": "uint256",
          "name": "_minRequiredTDTLockedAmount",
          "type": "uint256"
        }
      ],
      "name": "setMinRequiredTDTLockedAmount",
      "outputs": [],
      "stateMutability": "nonpayable",
      "type": "function"
    },
    {
      "inputs": [
        {
          "internalType": "uint256",
          "name": "_minRequiredTNTLockedAmount",
          "type": "uint256"
        }
      ],
      "name": "setMinRequiredTNTLockedAmount",
      "outputs": [],
      "stateMutability": "nonpayable",
      "type": "function"
    },
    {
      "inputs": [
        {
          "internalType": "address",
          "name": "_priceOracle",
          "type": "address"
        }
      ],
      "name": "setPriceOracle",
      "outputs": [],
      "stateMutability": "nonpayable",
      "type": "function"
    },
    {
      "inputs": [
        {
          "internalType": "uint256",
          "name": "_priceWithDiscountRatio",
          "type": "uint256"
        }
      ],
      "name": "setPriceWithDiscountRatio",
      "outputs": [],
      "stateMutability": "nonpayable",
      "type": "function"
    },
    {
      "inputs": [
        {
          "internalType": "address",
          "name": "_teleBTC",
          "type": "address"
        }
      ],
      "name": "setTeleBTC",
      "outputs": [],
      "stateMutability": "nonpayable",
      "type": "function"
    },
    {
      "inputs": [
        {
          "internalType": "address",
          "name": "_tdtTokenAddress",
          "type": "address"
        }
      ],
      "name": "setTeleportDAOToken",
      "outputs": [],
      "stateMutability": "nonpayable",
      "type": "function"
    },
    {
      "inputs": [
        {
          "internalType": "address",
          "name": "_lockerTargetAddress",
          "type": "address"
        },
        {
          "internalType": "uint256",
          "name": "_rewardAmount",
          "type": "uint256"
        },
        {
          "internalType": "address",
          "name": "_rewardRecipient",
          "type": "address"
        },
        {
          "internalType": "uint256",
          "name": "_amount",
          "type": "uint256"
        },
        {
          "internalType": "address",
          "name": "_recipient",
          "type": "address"
        }
      ],
      "name": "slashIdleLocker",
      "outputs": [
        {
          "internalType": "bool",
          "name": "",
          "type": "bool"
        }
      ],
      "stateMutability": "nonpayable",
      "type": "function"
    },
    {
      "inputs": [
        {
          "internalType": "address",
          "name": "_lockerTargetAddress",
          "type": "address"
        },
        {
          "internalType": "uint256",
          "name": "_rewardAmount",
          "type": "uint256"
        },
        {
          "internalType": "address",
          "name": "_rewardRecipient",
          "type": "address"
        },
        {
          "internalType": "uint256",
          "name": "_amount",
          "type": "uint256"
        }
      ],
      "name": "slashThiefLocker",
      "outputs": [
        {
          "internalType": "bool",
          "name": "",
          "type": "bool"
        }
      ],
      "stateMutability": "nonpayable",
      "type": "function"
    },
    {
      "inputs": [],
      "name": "teleBTC",
      "outputs": [
        {
          "internalType": "address",
          "name": "",
          "type": "address"
        }
      ],
      "stateMutability": "view",
      "type": "function"
    },
    {
      "inputs": [],
      "name": "totalNumberOfCandidates",
      "outputs": [
        {
          "internalType": "uint256",
          "name": "",
          "type": "uint256"
        }
      ],
      "stateMutability": "view",
      "type": "function"
    },
    {
      "inputs": [],
      "name": "totalNumberOfLockers",
      "outputs": [
        {
          "internalType": "uint256",
          "name": "",
          "type": "uint256"
        }
      ],
      "stateMutability": "view",
      "type": "function"
    },
    {
      "inputs": [
        {
          "internalType": "address",
          "name": "newOwner",
          "type": "address"
        }
      ],
      "name": "transferOwnership",
      "outputs": [],
      "stateMutability": "nonpayable",
      "type": "function"
    },
    {
      "inputs": [],
      "name": "unPauseLocker",
      "outputs": [],
      "stateMutability": "nonpayable",
      "type": "function"
    }
  ],
  "transactionHash": "0xa78611ad005ac4da0ded251346fab54245ec13a6b05828679e4f422cffe06d43",
  "args": [],
  "numDeployments": 1,
  "solcInputHash": "be8d75db0385d6f9e450b4e6950966af",
  "bytecode": "0x608060405234801561001057600080fd5b50615bbb80620000216000396000f3fe6080604052600436106104105760003560e01c80637da5f0da1161021e578063b734de2611610123578063dd0081c7116100ab578063ee1f1c701161007a578063ee1f1c7014610ca2578063ef69a7bc14610cc2578063f2fde38b14610cd7578063f44637ba14610cf7578063ffc9f70414610d1757610410565b8063dd0081c714610688578063e85501d814610c62578063e955de4514610c77578063ed110a9c14610c8c57610410565b8063c4d10b6a116100f2578063c4d10b6a14610b78578063cab1344e14610b98578063cdcbc87914610bb8578063d5a38a9114610c22578063dc04442214610c4257610410565b8063b734de2614610a5d578063bc805d1d14610a7d578063bd60e79414610a93578063c0924b8014610b5857610410565b80639bf09882116101a6578063aff2faa311610175578063aff2faa3146109e9578063b1016bdf14610a09578063b291ec1314610a1c578063b430225814610a32578063b4eae1cb14610a4757610410565b80639bf0988214610952578063a839db2414610972578063aa271e1a14610992578063af1ea795146109b257610410565b80638da5cb5b116101ed5780638da5cb5b146108b45780638fe85fe7146108d2578063946ce8cd146108f257806396ec39e814610912578063983b2d561461093257610410565b80637da5f0da1461082e5780637f0f18171461085e57806388aa0a521461087e5780638d3d78cd1461089457610410565b806345cc5890116103245780636136c21f116102ac5780636a030fc31161027b5780636a030fc3146107d05780636d32395c146107f05780636d75b9ee14610806578063715018a614610819578063768ebb121461068857610410565b80636136c21f14610758578063613e2e1e14610785578063639080201461079a5780636600203d146107b057610410565b80635a8d80b8116102f35780635a8d80b8146106b35780635c975abb146106d35780635d6464ba146106eb5780635f04fa26146107185780636060663e1461073857610410565b806345cc589014610648578063530e784f1461066857806354509b971461068857806359bb91891461069e57610410565b80632f5b04ac116103a757806338463cff1161037657806338463cff1461059157806341f3ec11146105b157806341fae579146105f25780634334614a1461060857806343b937071461062857610410565b80632f5b04ac146105325780633092afd51461054957806331f7d964146105695780633237c1581461057e57610410565b80631775765f116103e35780631775765f146104c75780631fcfe19c146104dd5780632630c12f146104fd578063264db4ae1461051d57610410565b806302846858146104155780630c42cbc914610437578063108f438d1461045f5780631697565b14610497575b600080fd5b34801561042157600080fd5b50610435610430366004614e65565b610d2c565b005b34801561044357600080fd5b5061044c601281565b6040519081526020015b60405180910390f35b34801561046b57600080fd5b5060005461047f906001600160a01b031681565b6040516001600160a01b039091168152602001610456565b3480156104a357600080fd5b506104b76104b2366004614f87565b610dd3565b6040519015158152602001610456565b3480156104d357600080fd5b5061044c60095481565b3480156104e957600080fd5b5061044c6104f836600461503d565b61100f565b34801561050957600080fd5b5060045461047f906001600160a01b031681565b34801561052957600080fd5b5061044c6113be565b34801561053e57600080fd5b5061044c6205460081565b34801561055557600080fd5b50610435610564366004614e65565b611451565b34801561057557600080fd5b5061047f600181565b6104b761058c366004615223565b6114ef565b34801561059d57600080fd5b5061044c6105ac366004615097565b61179a565b3480156105bd57600080fd5b5061047f6105cc366004615179565b80516020818301810180516010825292820191909301209152546001600160a01b031681565b3480156105fe57600080fd5b5061044c60055481565b34801561061457600080fd5b506104b7610623366004614e65565b611b28565b34801561063457600080fd5b506104b7610643366004614f1b565b611b76565b34801561065457600080fd5b506104b7610663366004614e65565b611e19565b34801561067457600080fd5b50610435610683366004614e65565b611fc3565b34801561069457600080fd5b5061044c61271081565b3480156106aa57600080fd5b506104b7611fff565b3480156106bf57600080fd5b5060025461047f906001600160a01b031681565b3480156106df57600080fd5b5060bc5460ff166104b7565b3480156106f757600080fd5b5061070b610706366004614e65565b612142565b604051610456919061550e565b34801561072457600080fd5b50610435610733366004614e7f565b612214565b34801561074457600080fd5b50610435610753366004615223565b61241f565b34801561076457600080fd5b5061044c610773366004614e65565b600e6020526000908152604090205481565b34801561079157600080fd5b50610435612433565b3480156107a657600080fd5b5061044c60075481565b3480156107bc57600080fd5b506104356107cb366004615223565b612445565b3480156107dc57600080fd5b506104b76107eb366004614e65565b612456565b3480156107fc57600080fd5b5061044c60065481565b6104b7610814366004614f1b565b6124d7565b34801561082557600080fd5b50610435612630565b34801561083a57600080fd5b506104b7610849366004614e65565b600f6020526000908152604090205460ff1681565b34801561086a57600080fd5b50610435610879366004614e65565b612638565b34801561088a57600080fd5b5061044c600b5481565b3480156108a057600080fd5b5060015461047f906001600160a01b031681565b3480156108c057600080fd5b506058546001600160a01b031661047f565b3480156108de57600080fd5b506104356108ed366004615223565b612670565b3480156108fe57600080fd5b5061043561090d366004615223565b612681565b34801561091e57600080fd5b506104b761092d366004614f1b565b612692565b34801561093e57600080fd5b5061043561094d366004614e65565b612b30565b34801561095e57600080fd5b5061043561096d366004615223565b612bd2565b34801561097e57600080fd5b5061043561098d366004615223565b612be3565b34801561099e57600080fd5b506104b76109ad366004614e65565b612bf4565b3480156109be57600080fd5b506109d26109cd366004614e65565b612c3d565b6040516104569b9a99989796959493929190615521565b3480156109f557600080fd5b506104b7610a04366004614ffd565b612db5565b6104b7610a173660046150e1565b612e03565b348015610a2857600080fd5b5061044c600a5481565b348015610a3e57600080fd5b506104b7612fd3565b348015610a5357600080fd5b5061044c60085481565b348015610a6957600080fd5b506104b7610a78366004614f44565b61309e565b348015610a8957600080fd5b5061044c612ee081565b348015610a9f57600080fd5b50601954601a54601b54601c54601d54601e54601f54602054602154602254602354602454610ae89b6001600160a01b039081169b81169a81169981169816969594939291908c565b604080516001600160a01b039d8e1681529b8d1660208d0152998c16998b0199909952968a1660608a015298909416608088015260a087019290925260c086015260e085015261010084015261012083019390935261014082019290925261016081019190915261018001610456565b348015610b6457600080fd5b5060035461047f906001600160a01b031681565b348015610b8457600080fd5b5061047f610b93366004614ffd565b613261565b348015610ba457600080fd5b50610435610bb3366004614e65565b613296565b348015610bc457600080fd5b50601354601454601554601654601754601854610bec9594939291906001600160a01b031686565b60408051968752602087019590955293850192909252606084015260808301526001600160a01b031660a082015260c001610456565b348015610c2e57600080fd5b5061044c610c3d366004614e65565b6132ce565b348015610c4e57600080fd5b50610435610c5d366004614e65565b6133d0565b348015610c6e57600080fd5b506104b76133e1565b348015610c8357600080fd5b50610435613762565b348015610c9857600080fd5b5061044c600c5481565b348015610cae57600080fd5b50610435610cbd366004614e65565b613772565b348015610cce57600080fd5b50600c5461044c565b348015610ce357600080fd5b50610435610cf2366004614e65565b6137aa565b348015610d0357600080fd5b50610435610d12366004614e65565b613820565b348015610d2357600080fd5b506104b76138c2565b806001600160a01b038116610d5c5760405162461bcd60e51b8152600401610d53906157de565b60405180910390fd5b610d646138ff565b610d6d82611b28565b610d895760405162461bcd60e51b8152600401610d5390615699565b6001600160a01b038216600081815260126020526040808220805460ff19169055517f90eabbc0c667db2a5029ed6bc0f5fe9f356d11684a4ca9fcfaec0e53f12b9c8e9190a25050565b60006002608a541415610df85760405162461bcd60e51b8152600401610d5390615860565b6002608a55610e05613959565b6002546001600160a01b0316336001600160a01b031614610e385760405162461bcd60e51b8152600401610d53906156dc565b6001600160a01b0386166000908152600d60205260408082209051636fdf700f60e01b815273879293B162aC3Ea64F4185747838662e8164d90091636fdf700f91610e9091906013906019908c908b906004016158eb565b60206040518083038186803b158015610ea857600080fd5b505af4158015610ebc573d6000803e3d6000fd5b505050506040513d601f19601f82011682018060405250810190610ee0919061523b565b90506001600160a01b0383166108fc610ef98887615976565b610f038785615ac2565b610f0d919061598e565b6040518115909202916000818181858888f19350505050158015610f35573d6000803e3d6000fd5b506000610f428786615976565b610f4c8684615ac2565b610f56919061598e565b610f609083615ae1565b6040519091506001600160a01b0387169082156108fc029083906000818181858888f19350505050158015610f99573d6000803e3d6000fd5b506040805182815260208101879052908101839052426060820152600160808201526001600160a01b0380861691888216918b16907fab522c1322c34ea455e8f541ecfe1b73a29039f3658bff658cf12c9fd26dc0169060a00160405180910390a46001925050506001608a5595945050505050565b6000826001600160a01b0381166110385760405162461bcd60e51b8152600401610d53906157de565b82600081116110595760405162461bcd60e51b8152600401610d53906157ae565b6002608a54141561107c5760405162461bcd60e51b8152600401610d5390615860565b6002608a55611089613959565b611092336109ad565b6110de5760405162461bcd60e51b815260206004820152601e60248201527f4c6f636b6572733a206f6e6c79206d696e746572732063616e206d696e7400006044820152606401610d53565b6000601088886040516110f292919061544c565b908152604051908190036020019020546001600160a01b031690506000611118826132ce565b90508581101561116a5760405162461bcd60e51b815260206004820152601e60248201527f4c6f636b6572733a20696e73756666696369656e7420636170616369747900006044820152606401610d53565b61117382612456565b6111b55760405162461bcd60e51b81526020600482015260136024820152724c6f636b6572733a206e6f742061637469766560681b6044820152606401610d53565b6001600160a01b0382166000908152600d60205260409020600501546111dc908790615976565b6001600160a01b0383166000908152600d60205260408120600501919091556007546127109061120c9089615ac2565b611216919061598e565b905080156112a6576001546040516340c10f1960e01b81526001600160a01b03858116600483015260248201849052909116906340c10f1990604401602060405180830381600087803b15801561126c57600080fd5b505af1158015611280573d6000803e3d6000fd5b505050506040513d601f19601f820116820180604052508101906112a49190614fdd565b505b6001546001600160a01b03166340c10f19896112c2848b615ae1565b6040516001600160e01b031960e085901b1681526001600160a01b0390921660048301526024820152604401602060405180830381600087803b15801561130857600080fd5b505af115801561131c573d6000803e3d6000fd5b505050506040513d601f19601f820116820180604052508101906113409190614fdd565b50876001600160a01b0316836001600160a01b03167f8ad706b338c5d2a20b0d038b5cfdaf2b2f943f43048723bde0dccdf129598a11898442604051611399939291909283526020830191909152604082015260600190565b60405180910390a36113ab8188615ae1565b6001608a559a9950505050505050505050565b60405163309376db60e11b815260009073879293B162aC3Ea64F4185747838662e8164d90090636126edb6906113fc90601390601990600401615922565b60206040518083038186803b15801561141457600080fd5b505af4158015611428573d6000803e3d6000fd5b505050506040513d601f19601f8201168201806040525081019061144c919061523b565b905090565b806001600160a01b0381166114785760405162461bcd60e51b8152600401610d53906157de565b6114806138ff565b61148982612bf4565b6114a55760405162461bcd60e51b8152600401610d5390615699565b6001600160a01b038216600081815260116020526040808220805460ff19169055517fe94479a9f7e1952cc78f2d6baab678adc1b772d936c6583def489e524cb666929190a25050565b60006002608a5414156115145760405162461bcd60e51b8152600401610d5390615860565b6002608a55336000908152600d602052604090206008015460ff166115705760405162461bcd60e51b81526020600482015260126024820152712637b1b5b2b9399d103737903637b1b5b2b960711b6044820152606401610d53565b611579336107eb565b156115be5760405162461bcd60e51b81526020600482015260156024820152744c6f636b6572733a207374696c6c2061637469766560581b6044820152606401610d53565b60405163309376db60e11b815260009073879293B162aC3Ea64F4185747838662e8164d90090636126edb6906115fc90601390601990600401615922565b60206040518083038186803b15801561161457600080fd5b505af4158015611628573d6000803e3d6000fd5b505050506040513d601f19601f8201168201806040525081019061164c919061523b565b336000908152600d6020908152604091829020825160c08082018552601354825260145482850152601554828601526016546060808401919091526017546080808501919091526018546001600160a01b0390811660a080870191909152885161018081018a5260195483168152601a548316818a0152601b54831699810199909952601c54821693890193909352601d541690870152601e5490860152601f5490850152915460e084015260215461010084015260225461012084015260235461014084015260245461016084015292935061172b9291848761399f565b6117353384613b69565b336000818152600d60209081526040918290206004015482518781529182015242918101919091527f93ae1c71197ee1bd2ad44b7d57e7b34ca946aeb88fdb4fc4a45211dbeb2c3cc7906060015b60405180910390a260019150506001608a55919050565b600081600081116117bd5760405162461bcd60e51b8152600401610d53906157ae565b6002608a5414156117e05760405162461bcd60e51b8152600401610d5390615860565b6002608a556117ed613959565b6117f633610623565b6118425760405162461bcd60e51b815260206004820152601e60248201527f4c6f636b6572733a206f6e6c79206275726e6572732063616e206275726e00006044820152606401610d53565b60006010868660405161185692919061544c565b908152604051908190036020019020546001546001600160a01b039182169250166323b872dd6118833390565b6040516001600160e01b031960e084901b1681526001600160a01b03909116600482015230602482015260448101879052606401602060405180830381600087803b1580156118d157600080fd5b505af11580156118e5573d6000803e3d6000fd5b505050506040513d601f19601f820116820180604052508101906119099190614fdd565b5060006127106007548661191d9190615ac2565b611927919061598e565b905060006119358287615ae1565b6001600160a01b0384166000908152600d6020526040902060050154909150818110156119a45760405162461bcd60e51b815260206004820152601b60248201527f4c6f636b6572733a20696e73756666696369656e742066756e647300000000006044820152606401610d53565b6119ae8282615ae1565b6001600160a01b038581166000908152600d602052604090819020600501929092556001549151630852cd8d60e31b8152600481018590529116906342966c6890602401602060405180830381600087803b158015611a0c57600080fd5b505af1158015611a20573d6000803e3d6000fd5b505050506040513d601f19601f82011682018060405250810190611a449190614fdd565b5060015460405163a9059cbb60e01b81526001600160a01b038681166004830152602482018690529091169063a9059cbb90604401602060405180830381600087803b158015611a9357600080fd5b505af1158015611aa7573d6000803e3d6000fd5b505050506040513d601f19601f82011682018060405250810190611acb9190614fdd565b506040805188815260208101859052428183015290516001600160a01b038616917f66fb54322c407b04a077a306e72cdd780f0f374ba5dac9f6901a56a6255bc34a919081900360600190a2506001608a55979650505050505050565b6000816001600160a01b038116611b515760405162461bcd60e51b8152600401610d53906157de565b6001600160a01b03831660009081526012602052604090205460ff1691505b50919050565b6000826001600160a01b038116611b9f5760405162461bcd60e51b8152600401610d53906157de565b8260008111611bc05760405162461bcd60e51b8152600401610d53906157ae565b6002608a541415611be35760405162461bcd60e51b8152600401610d5390615860565b6002608a55611bf0613959565b6001600160a01b0385166000908152600d60205260408082209051639416385d60e01b815273879293B162aC3Ea64F4185747838662e8164d90091639416385d91611c4691906013906019908b906004016158b9565b60206040518083038186803b158015611c5e57600080fd5b505af4158015611c72573d6000803e3d6000fd5b505050506040513d601f19601f82011682018060405250810190611c96919061523b565b6001549091506001600160a01b03166323b872dd336040516001600160e01b031960e084901b1681526001600160a01b03909116600482015230602482015260448101849052606401602060405180830381600087803b158015611cf957600080fd5b505af1158015611d0d573d6000803e3d6000fd5b505050506040513d601f19601f82011682018060405250810190611d319190614fdd565b50600154604051630852cd8d60e31b8152600481018390526001600160a01b03909116906342966c6890602401602060405180830381600087803b158015611d7857600080fd5b505af1158015611d8c573d6000803e3d6000fd5b505050506040513d601f19601f82011682018060405250810190611db09190614fdd565b50611dbb3386613b69565b60408051868152602081018390524281830152905133916001600160a01b038916917fd03400b15a5f4cddbc57f0e81bca31db33e4d1ed1390211eade3518bce70562e9181900360600190a3600193505050506001608a5592915050565b6000816001600160a01b038116611e425760405162461bcd60e51b8152600401610d53906157de565b6002608a541415611e655760405162461bcd60e51b8152600401610d5390615860565b6002608a55611e726138ff565b6001600160a01b0383166000908152600d6020526040902060080154610100900460ff16611ed85760405162461bcd60e51b8152602060048201526013602482015272131bd8dad95c9cce881b9bc81c995c5d595cdd606a1b6044820152606401610d53565b6001600160a01b0383166000908152600d60205260409020600801805461ffff19166001908117909155600b54611f0f9190615ae1565b600b55600c54611f20906001615976565b600c556001600160a01b0383166000908152600d60205260409081902090518491601091611f4e9190615478565b908152604080516020928190038301812080546001600160a01b0319166001600160a01b039586161790559286166000818152600d90935291206003810154600482015492937f3840128cd2c146a0ea7739b8440e824c6d2d498ae32274812561d689d751e75e9361178393929142906155d8565b806001600160a01b038116611fea5760405162461bcd60e51b8152600401610d53906157de565b611ff26138ff565b611ffb82613c87565b5050565b60006002608a5414156120245760405162461bcd60e51b8152600401610d5390615860565b6002608a55336000908152600d602052604090206008015460ff1661205b5760405162461bcd60e51b8152600401610d5390615762565b336000908152600e6020526040902054156120c65760405162461bcd60e51b815260206004820152602560248201527f4c6f636b6572733a206c6f636b65722068617320616c72656164792072657175604482015264195cdd195960da1b6064820152608401610d53565b6120d36205460042615976565b336000818152600e60209081526040808320859055600d9091529081902060038101546004820154600583015493517f59e9b7bdd325b1dd9fe5b91f457f74d4b3d58263580ae84d6be1f451bbc2851f94612130949392916155d8565b60405180910390a350600180608a5590565b6060816001600160a01b03811661216b5760405162461bcd60e51b8152600401610d53906157de565b6001600160a01b0383166000908152600d60205260409020805461218e90615b24565b80601f01602080910402602001604051908101604052809291908181526020018280546121ba90615b24565b80156122075780601f106121dc57610100808354040283529160200191612207565b820191906000526020600020905b8154815290600101906020018083116121ea57829003601f168201915b5050505050915050919050565b602554610100900460ff16158080156122345750602554600160ff909116105b80612255575061224330613d25565b158015612255575060255460ff166001145b6122b85760405162461bcd60e51b815260206004820152602e60248201527f496e697469616c697a61626c653a20636f6e747261637420697320616c72656160448201526d191e481a5b9a5d1a585b1a5e995960921b6064820152608401610d53565b6025805460ff1916600117905580156122db576025805461ff0019166101001790555b6122e3613d38565b6122eb613d67565b6122f3613d96565b8561233a5760405162461bcd60e51b81526020600482015260176024820152764c6f636b6572733a20616d6f756e74206973207a65726f60481b6044820152606401610d53565b6123438b613dc5565b61234c8c613e63565b61235588613f01565b61235e8a614041565b61236789613c87565b612370876140df565b61237986614125565b612382856141b2565b61238b84614241565b61239483614322565b61239d826143ba565b61271060138190556014819055612ee06015556016556012601755601880546001600160a01b03191660011790558015612411576025805461ff0019169055604051600181527f7f26b83ff96e1f2b6a682f133852f6798a09c465da95921460cefb38474024989060200160405180910390a15b505050505050505050505050565b6124276138ff565b612430816141b2565b50565b61243b6138ff565b612443614452565b565b61244d6138ff565b61243081614322565b6000816001600160a01b03811661247f5760405162461bcd60e51b8152600401610d53906157de565b6001600160a01b0383166000908152600e60205260409020546124a55760019150611b70565b6001600160a01b0383166000908152600e60205260409020544210156124ce5760019150611b70565b60009150611b70565b60006002608a5414156124fc5760405162461bcd60e51b8152600401610d5390615860565b6002608a553482146125455760405162461bcd60e51b81526020600482015260126024820152714c6f636b6572733a206d73672076616c756560701b6044820152606401610d53565b6001600160a01b0383166000908152600d602052604090819020905163015d95e560e01b815260048101919091526024810183905273879293B162aC3Ea64F4185747838662e8164d9009063015d95e59060440160006040518083038186803b1580156125b157600080fd5b505af41580156125c5573d6000803e3d6000fd5b505050506001600160a01b0383166000818152600d602090815260409182902060040154825186815291820152428183015290517f2d2b4797badefe26cd5674f9bc2b8f5ed98e2a663e1a977af971254cfefd15ad9181900360600190a250600180608a5592915050565b6124436138ff565b806001600160a01b03811661265f5760405162461bcd60e51b8152600401610d53906157de565b6126676138ff565b611ffb82613e63565b6126786138ff565b612430816143ba565b6126896138ff565b61243081614241565b6000826001600160a01b0381166126bb5760405162461bcd60e51b8152600401610d53906157de565b82600081116126dc5760405162461bcd60e51b8152600401610d53906157ae565b6002608a5414156126ff5760405162461bcd60e51b8152600401610d5390615860565b6002608a5561270c613959565b6001600160a01b0385166000908152600d602052604080822090516308878a6f60e01b815273879293B162aC3Ea64F4185747838662e8164d900916308878a6f9161276291906013906019908b906004016158b9565b60206040518083038186803b15801561277a57600080fd5b505af415801561278e573d6000803e3d6000fd5b505050506040513d601f19601f820116820180604052508101906127b2919061523b565b90506000600d6000886001600160a01b03166001600160a01b03168152602001908152602001600020604051806101600160405290816000820180546127f790615b24565b80601f016020809104026020016040519081016040528092919081815260200182805461282390615b24565b80156128705780601f1061284557610100808354040283529160200191612870565b820191906000526020600020905b81548152906001019060200180831161285357829003601f168201915b5050509183525050600182015460209091019060ff1660048111156128a557634e487b7160e01b600052602160045260246000fd5b60048111156128c457634e487b7160e01b600052602160045260246000fd5b81526020016002820180546128d890615b24565b80601f016020809104026020016040519081016040528092919081815260200182805461290490615b24565b80156129515780601f1061292657610100808354040283529160200191612951565b820191906000526020600020905b81548152906001019060200180831161293457829003601f168201915b505050918352505060038201546020808301919091526004830154604080840191909152600580850154606085015260068501546080850152600785015460a085015260089094015460ff808216151560c08601526101008083048216151560e0870152620100009092041615159301929092526001600160a01b038b166000908152600d9091522001549091506129ea908390615ae1565b6001600160a01b0388166000908152600d60205260409020600581019190915560040154612a19908790615ae1565b6001600160a01b038089166000908152600d602090815260409182902060049081019490945560025485830151918601518651935163218a4edd60e11b815291909416946343149dba94612a7494899493919290910161593e565b602060405180830381600087803b158015612a8e57600080fd5b505af1158015612aa2573d6000803e3d6000fd5b505050506040513d601f19601f82011682018060405250810190612ac6919061523b565b50612ad13387613b69565b60408051878152602081018490524281830152905133916001600160a01b038a16917fd63782183ccef603c2adba105774db58e1701ea5e7b3e23eded1b5e967a3654c9181900360600190a360019450505050506001608a5592915050565b806001600160a01b038116612b575760405162461bcd60e51b8152600401610d53906157de565b612b5f6138ff565b612b6882612bf4565b15612b855760405162461bcd60e51b8152600401610d5390615721565b6001600160a01b038216600081815260116020526040808220805460ff19166001179055517f6ae172837ea30b801fbfcdd4108aa1d5bf8ff775444fd70256b44e6bf3dfc3f69190a25050565b612bda6138ff565b612430816140df565b612beb6138ff565b61243081614125565b6000816001600160a01b038116612c1d5760405162461bcd60e51b8152600401610d53906157de565b50506001600160a01b031660009081526011602052604090205460ff1690565b600d60205260009081526040902080548190612c5890615b24565b80601f0160208091040260200160405190810160405280929190818152602001828054612c8490615b24565b8015612cd15780601f10612ca657610100808354040283529160200191612cd1565b820191906000526020600020905b815481529060010190602001808311612cb457829003601f168201915b5050506001840154600285018054949560ff909216949193509150612cf590615b24565b80601f0160208091040260200160405190810160405280929190818152602001828054612d2190615b24565b8015612d6e5780601f10612d4357610100808354040283529160200191612d6e565b820191906000526020600020905b815481529060010190602001808311612d5157829003601f168201915b5050506003840154600485015460058601546006870154600788015460089098015496979396929550909350919060ff80821691610100810482169162010000909104168b565b6000600d600060108585604051612dcd92919061544c565b9081526040805160209281900383019020546001600160a01b0316835290820192909252016000206008015460ff169392505050565b60006002608a541415612e285760405162461bcd60e51b8152600401610d5390615860565b6002608a8190555073879293B162aC3Ea64F4185747838662e8164d90063f8d1e63d600d601960108c8c604051612e6092919061544c565b908152604051908190036020018120546001600160e01b031960e086901b168252612e9f9392916001600160a01b03909116908c908c9060040161565c565b60006040518083038186803b158015612eb757600080fd5b505af4158015612ecb573d6000803e3d6000fd5b50505050612eed612ed93390565b6019546001600160a01b03169030896144a4565b600b54612efb906001615976565b600b5560405163b19399d760e01b815273879293B162aC3Ea64F4185747838662e8164d9009063b19399d790612f4490600d908c908c908c908c908c908c908c90600401615607565b60006040518083038186803b158015612f5c57600080fd5b505af4158015612f70573d6000803e3d6000fd5b50505050612f7b3390565b6001600160a01b03167fe5f7957016a87f9d7bacdd371a516d7f2c5667aa5676c7e07cc8c0bbc6e5067b89898989604051612fb994939291906154e7565b60405180910390a250600180608a55979650505050505050565b60006002608a541415612ff85760405162461bcd60e51b8152600401610d5390615860565b6002608a55336000908152600d602052604090206008015460ff1661302f5760405162461bcd60e51b8152600401610d5390615762565b336000818152600e60209081526040808320839055600d9091529081902060038101546004820154600583015493517ff5c2a2ca5d59b6903bcb66377907e2c66983741a553bae891c485953b2a1f96f9461308c949392916155d8565b60405180910390a250600180608a5590565b60006002608a5414156130c35760405162461bcd60e51b8152600401610d5390615860565b6002608a556130d0613959565b6002546001600160a01b0316336001600160a01b0316146131035760405162461bcd60e51b8152600401610d53906156dc565b6001600160a01b0385166000908152600d602052604080822090516336a24a7b60e01b8152829173879293B162aC3Ea64F4185747838662e8164d900916336a24a7b9161315c916013906019908c908b906004016158eb565b604080518083038186803b15801561317357600080fd5b505af4158015613187573d6000803e3d6000fd5b505050506040513d601f19601f820116820180604052508101906131ab9190615253565b60405191935091506001600160a01b0386169083156108fc029084906000818181858888f193505050501580156131e6573d6000803e3d6000fd5b50306001600160a01b038681169089167fab522c1322c34ea455e8f541ecfe1b73a29039f3658bff658cf12c9fd26dc01685886132238288615976565b604080519384526020840192909252908201524260608201526000608082015260a00160405180910390a46001925050506001608a55949350505050565b60006010838360405161327592919061544c565b908152604051908190036020019020546001600160a01b0316905092915050565b806001600160a01b0381166132bd5760405162461bcd60e51b8152600401610d53906157de565b6132c56138ff565b611ffb82614041565b6000816001600160a01b0381166132f75760405162461bcd60e51b8152600401610d53906157de565b6001600160a01b0383166000908152600d60205260409081902060058101546008549251630e19455960e41b81529092916127109173879293B162aC3Ea64F4185747838662e8164d9009163e19455909161335b9190601390601990600401615897565b60206040518083038186803b15801561337357600080fd5b505af4158015613387573d6000803e3d6000fd5b505050506040513d601f19601f820116820180604052508101906133ab919061523b565b6133b59190615ac2565b6133bf919061598e565b6133c99190615ae1565b9392505050565b6133d86138ff565b61243081613dc5565b60006002608a5414156134065760405162461bcd60e51b8152600401610d5390615860565b6002608a55336000908152600d6020526040902060080154610100900460ff166134645760405162461bcd60e51b815260206004820152600f60248201526e4c6f636b6572733a206e6f2072657160881b6044820152606401610d53565b336000908152600d60205260408082208151610160810190925280548290829061348d90615b24565b80601f01602080910402602001604051908101604052809291908181526020018280546134b990615b24565b80156135065780601f106134db57610100808354040283529160200191613506565b820191906000526020600020905b8154815290600101906020018083116134e957829003601f168201915b5050509183525050600182015460209091019060ff16600481111561353b57634e487b7160e01b600052602160045260246000fd5b600481111561355a57634e487b7160e01b600052602160045260246000fd5b815260200160028201805461356e90615b24565b80601f016020809104026020016040519081016040528092919081815260200182805461359a90615b24565b80156135e75780601f106135bc576101008083540402835291602001916135e7565b820191906000526020600020905b8154815290600101906020018083116135ca57829003601f168201915b505050918352505060038201546020820152600482015460408201526005820154606082015260068201546080820152600782015460a082015260089091015460ff808216151560c08401526101008083048216151560e0850152620100009092041615159101529050600d6000336001600160a01b03168152602081019190915260400160009081209061367c8282614db7565b60018201805460ff19169055613696600283016000614db7565b506000600382018190556004820181905560058201819055600682018190556007820155600801805462ffffff19169055600b546136d690600190615ae1565b600b556136f53360608301516000546001600160a01b03169190614515565b613703338260800151613b69565b336000818152600d6020526040908190206003810154600482015492517f10f84ef0773ba7ade3714f4e500ca17436e6df2b0feb99c754c04f889290cbd49361374d9392916155c5565b60405180910390a260019150506001608a5590565b61376a6138ff565b612443614545565b806001600160a01b0381166137995760405162461bcd60e51b8152600401610d53906157de565b6137a16138ff565b611ffb82613f01565b6137b26138ff565b6001600160a01b0381166138175760405162461bcd60e51b815260206004820152602660248201527f4f776e61626c653a206e6577206f776e657220697320746865207a65726f206160448201526564647265737360d01b6064820152608401610d53565b61243081614582565b806001600160a01b0381166138475760405162461bcd60e51b8152600401610d53906157de565b61384f6138ff565b61385882611b28565b156138755760405162461bcd60e51b8152600401610d5390615721565b6001600160a01b038216600081815260126020526040808220805460ff19166001179055517f86e57fd2b90329052917118de7c3f521f400d439b9650deaa906a25b08b945609190a25050565b60006002608a5414156138e75760405162461bcd60e51b8152600401610d5390615860565b6002608a556138f5336145d4565b50600180608a5590565b6058546001600160a01b031633146124435760405162461bcd60e51b815260206004820181905260248201527f4f776e61626c653a2063616c6c6572206973206e6f7420746865206f776e65726044820152606401610d53565b60bc5460ff16156124435760405162461bcd60e51b815260206004820152601060248201526f14185d5cd8589b194e881c185d5cd95960821b6044820152606401610d53565b600885015460ff166139f35760405162461bcd60e51b815260206004820181905260248201527f4c6f636b6572733a206163636f756e74206973206e6f742061206c6f636b65726044820152606401610d53565b600085600501548560800151600a613a0b91906159f4565b856101000151613a1b9190615ac2565b86516004890154613a2d908790615ac2565b613a379190615ac2565b613a41919061598e565b613a4b9190615ae1565b90506000838660800151600a613a6191906159f4565b613a6b9084615ac2565b613a75919061598e565b905080831115613adb5760405162461bcd60e51b815260206004820152602b60248201527f4c6f636b6572733a206d6f7265207468616e206d61782072656d6f7661626c6560448201526a0818dbdb1b185d195c985b60aa1b6064820152608401610d53565b8460c00151838860040154613af09190615ae1565b1015613b485760405162461bcd60e51b815260206004820152602160248201527f4c6f636b6572733a206c657373207468616e206d696e20636f6c6c61746572616044820152601b60fa1b6064820152608401610d53565b828760040154613b589190615ae1565b876004018190555050505050505050565b80471015613bb95760405162461bcd60e51b815260206004820152601d60248201527f416464726573733a20696e73756666696369656e742062616c616e63650000006044820152606401610d53565b6000826001600160a01b03168260405160006040518083038185875af1925050503d8060008114613c06576040519150601f19603f3d011682016040523d82523d6000602084013e613c0b565b606091505b5050905080613c825760405162461bcd60e51b815260206004820152603a60248201527f416464726573733a20756e61626c6520746f2073656e642076616c75652c207260448201527f6563697069656e74206d617920686176652072657665727465640000000000006064820152608401610d53565b505050565b806001600160a01b038116613cae5760405162461bcd60e51b8152600401610d53906157de565b600454604080516001600160a01b03928316815291841660208301527fd52b2b9b7e9ee655fcb95d2e5b9e0c9f69e7ef2b8e9d2d0ea78402d576d22e22910160405180910390a150600480546001600160a01b03199081166001600160a01b039384161791829055601d8054929093169116179055565b6001600160a01b0381163b15155b919050565b602554610100900460ff16613d5f5760405162461bcd60e51b8152600401610d5390615815565b612443614a93565b602554610100900460ff16613d8e5760405162461bcd60e51b8152600401610d5390615815565b612443614ac3565b602554610100900460ff16613dbd5760405162461bcd60e51b8152600401610d5390615815565b612443614af1565b806001600160a01b038116613dec5760405162461bcd60e51b8152600401610d53906157de565b600054604080516001600160a01b03928316815291841660208301527ffd88adf2dc0ac6ee5960f2f4273f25017bab8b5efa8889b3cf085ce645c293b2910160405180910390a150600080546001600160a01b03199081166001600160a01b03938416179182905560198054929093169116179055565b806001600160a01b038116613e8a5760405162461bcd60e51b8152600401610d53906157de565b600154604080516001600160a01b03928316815291841660208301527f36a4c08a38b736dcecb6c328dba61238529620e83ccb23db2cc43cd34ec26096910160405180910390a150600180546001600160a01b03199081166001600160a01b039384161791829055601a8054929093169116179055565b806001600160a01b038116613f285760405162461bcd60e51b8152600401610d53906157de565b600254604080516001600160a01b03928316815291841660208301527fd86d51326f3c88ea5365fba597a57273ae555e44f4b11658da952320d0beaa75910160405180910390a16002546040516001600160a01b03909116907f90eabbc0c667db2a5029ed6bc0f5fe9f356d11684a4ca9fcfaec0e53f12b9c8e90600090a2600280546001600160a01b03908116600090815260126020526040808220805460ff1916905583546001600160a01b03199081168785161794859055601b8054959094169416841790925590517f86e57fd2b90329052917118de7c3f521f400d439b9650deaa906a25b08b945609190a250506002546001600160a01b03166000908152601260205260409020805460ff19166001179055565b806001600160a01b0381166140685760405162461bcd60e51b8152600401610d53906157de565b600354604080516001600160a01b03928316815291841660208301527f2f0c2c74338b8f7fb04dcfc964c9221eb054ec353c18b9617fe43566e453a23c910160405180910390a150600380546001600160a01b03199081166001600160a01b039384161791829055601c8054929093169116179055565b60055460408051918252602082018390527f65fb7af72786d428e2b4e9d3d2bd45fdd354f582ccccad2044967440b98e6d7b910160405180910390a16005819055601e55565b8061416c5760405162461bcd60e51b81526020600482015260176024820152764c6f636b6572733a20616d6f756e74206973207a65726f60481b6044820152606401610d53565b60065460408051918252602082018390527f063267aa94de35dcf03acb07931ff2a6eae1ac1ee0be20797c9a6d3b52abf47b910160405180910390a16006819055601f55565b60095481116141fb5760405162461bcd60e51b81526020600482015260156024820152742637b1b5b2b9399d1036bab9ba1021a9101f10262960591b6044820152606401610d53565b60085460408051918252602082018390527f1e29d1b5c8926360f3ac632d884775772b07f31fec4077d433e58ce823f91347910160405180910390a16008819055602155565b6127108110156142935760405162461bcd60e51b815260206004820152601d60248201527f4c6f636b6572733a2070726f626c656d20696e20435220616e64204c520000006044820152606401610d53565b80600854116142dc5760405162461bcd60e51b81526020600482015260156024820152742637b1b5b2b9399d1036bab9ba1021a9101f10262960591b6044820152606401610d53565b60095460408051918252602082018390527f883242c2a857ca527a432dfca231b1e49233fde2a96802809a0f3866e9f19e13910160405180910390a16009819055602255565b6127108111156143745760405162461bcd60e51b815260206004820152601b60248201527f4c6f636b6572733a20696e76616c6964206c6f636b65722066656500000000006044820152606401610d53565b60075460408051918252602082018390527f44c6802691f6adea249930369a511db979a5e9a3603bdb37ceee1036da80e980910160405180910390a16007819055602055565b61271081111561440c5760405162461bcd60e51b815260206004820152601760248201527f4c6f636b6572733a206c657373207468616e20313030250000000000000000006044820152606401610d53565b600a5460408051918252602082018390527f5e4dd01049cdfe5a081b404bff8e27de919fd9c8ae2145007e0921ec227f207a910160405180910390a1600a819055602355565b61445a614b24565b60bc805460ff191690557f5db9ee0a495bf2e6ff9c91a7834c1ba4fdd244a5e8aa4e537bd38aeae4b073aa335b6040516001600160a01b03909116815260200160405180910390a1565b6040516001600160a01b038085166024830152831660448201526064810182905261450f9085906323b872dd60e01b906084015b60408051601f198184030181529190526020810180516001600160e01b03166001600160e01b031990931692909217909152614b6d565b50505050565b6040516001600160a01b038316602482015260448101829052613c8290849063a9059cbb60e01b906064016144d8565b61454d613959565b60bc805460ff191660011790557f62e78cea01bee320cd4e420270b5ea74000d11b0c9f74754ebdbfc544b05a2586144873390565b605880546001600160a01b038381166001600160a01b0319831681179093556040519116919082907f8be0079c531659141344cd1fd0a4f28419497f9722a3daafe3b4186f6b6457e090600090a35050565b6001600160a01b0381166000908152600d602052604090206008015460ff166146345760405162461bcd60e51b81526020600482015260126024820152712637b1b5b2b9399d103737903637b1b5b2b960711b6044820152606401610d53565b61463d81612456565b156146825760405162461bcd60e51b81526020600482015260156024820152744c6f636b6572733a207374696c6c2061637469766560581b6044820152606401610d53565b6001600160a01b0381166000908152600d6020526040902060050154156146e35760405162461bcd60e51b8152602060048201526015602482015274131bd8dad95c9cce880c081b995d081b5a5b9d1959605a1b6044820152606401610d53565b6001600160a01b0381166000908152600d60205260409020600601541561474c5760405162461bcd60e51b815260206004820152601860248201527f4c6f636b6572733a203020736c617368696e67205442544300000000000000006044820152606401610d53565b6001600160a01b0381166000908152600d60205260408082208151610160810190925280548290829061477e90615b24565b80601f01602080910402602001604051908101604052809291908181526020018280546147aa90615b24565b80156147f75780601f106147cc576101008083540402835291602001916147f7565b820191906000526020600020905b8154815290600101906020018083116147da57829003601f168201915b5050509183525050600182015460209091019060ff16600481111561482c57634e487b7160e01b600052602160045260246000fd5b600481111561484b57634e487b7160e01b600052602160045260246000fd5b815260200160028201805461485f90615b24565b80601f016020809104026020016040519081016040528092919081815260200182805461488b90615b24565b80156148d85780601f106148ad576101008083540402835291602001916148d8565b820191906000526020600020905b8154815290600101906020018083116148bb57829003601f168201915b5050509183525050600382015460208083019190915260048301546040808401919091526005840154606084015260068401546080840152600784015460a084015260089093015460ff808216151560c08501526101008083048216151560e0860152620100009092041615159201919091526001600160a01b0385166000908152600d90915281902090519192506010916149749190615478565b908152604080516020928190038301902080546001600160a01b03191690556001600160a01b0384166000908152600d9092528120906149b48282614db7565b60018201805460ff191690556149ce600283016000614db7565b506000600382018190556004820181905560058201819055600682018190556007820155600801805462ffffff19169055600c54614a0e90600190615ae1565b600c556060810151600054614a30916001600160a01b03909116908490614515565b614a3e828260800151613b69565b816001600160a01b03167f628f3d67160bc1a892a1779c6475e128010a54df63af5dcdbf3c7b06ca5dfa97826000015183606001518460800151604051614a87939291906155a0565b60405180910390a25050565b602554610100900460ff16614aba5760405162461bcd60e51b8152600401610d5390615815565b61244333614582565b602554610100900460ff16614aea5760405162461bcd60e51b8152600401610d5390615815565b6001608a55565b602554610100900460ff16614b185760405162461bcd60e51b8152600401610d5390615815565b60bc805460ff19169055565b60bc5460ff166124435760405162461bcd60e51b815260206004820152601460248201527314185d5cd8589b194e881b9bdd081c185d5cd95960621b6044820152606401610d53565b6000614bc2826040518060400160405280602081526020017f5361666545524332303a206c6f772d6c6576656c2063616c6c206661696c6564815250856001600160a01b0316614c3f9092919063ffffffff16565b805190915015613c825780806020019051810190614be09190614fdd565b613c825760405162461bcd60e51b815260206004820152602a60248201527f5361666545524332303a204552433230206f7065726174696f6e20646964206e6044820152691bdd081cdd58d8d9595960b21b6064820152608401610d53565b6060614c4e8484600085614c56565b949350505050565b606082471015614cb75760405162461bcd60e51b815260206004820152602660248201527f416464726573733a20696e73756666696369656e742062616c616e636520666f6044820152651c8818d85b1b60d21b6064820152608401610d53565b843b614d055760405162461bcd60e51b815260206004820152601d60248201527f416464726573733a2063616c6c20746f206e6f6e2d636f6e74726163740000006044820152606401610d53565b600080866001600160a01b03168587604051614d21919061545c565b60006040518083038185875af1925050503d8060008114614d5e576040519150601f19603f3d011682016040523d82523d6000602084013e614d63565b606091505b5091509150614d73828286614d7e565b979650505050505050565b60608315614d8d5750816133c9565b825115614d9d5782518084602001fd5b8160405162461bcd60e51b8152600401610d53919061550e565b508054614dc390615b24565b6000825580601f10614dd55750612430565b601f01602090049060005260206000209081019061243091905b80821115614e035760008155600101614def565b5090565b80356001600160a01b0381168114613d3357600080fd5b60008083601f840112614e2f578081fd5b50813567ffffffffffffffff811115614e46578182fd5b602083019150836020828501011115614e5e57600080fd5b9250929050565b600060208284031215614e76578081fd5b6133c982614e07565b60008060008060008060008060008060006101608c8e031215614ea0578687fd5b614ea98c614e07565b9a50614eb760208d01614e07565b9950614ec560408d01614e07565b9850614ed360608d01614e07565b9750614ee160808d01614e07565b9a9d999c50979a96999860a0880135985060c08801359760e081013597506101008101359650610120810135955061014001359350915050565b60008060408385031215614f2d578182fd5b614f3683614e07565b946020939093013593505050565b60008060008060808587031215614f59578384fd5b614f6285614e07565b935060208501359250614f7760408601614e07565b9396929550929360600135925050565b600080600080600060a08688031215614f9e578081fd5b614fa786614e07565b945060208601359350614fbc60408701614e07565b925060608601359150614fd160808701614e07565b90509295509295909350565b600060208284031215614fee578081fd5b815180151581146133c9578182fd5b6000806020838503121561500f578182fd5b823567ffffffffffffffff811115615025578283fd5b61503185828601614e1e565b90969095509350505050565b60008060008060608587031215615052578384fd5b843567ffffffffffffffff811115615068578485fd5b61507487828801614e1e565b9095509350615087905060208601614e07565b9396929550929360400135925050565b6000806000604084860312156150ab578283fd5b833567ffffffffffffffff8111156150c1578384fd5b6150cd86828701614e1e565b909790965060209590950135949350505050565b600080600080600080600060a0888a0312156150fb578283fd5b873567ffffffffffffffff80821115615112578485fd5b61511e8b838c01614e1e565b909950975060208a0135965060408a0135955060608a0135915060058210615144578485fd5b90935060808901359080821115615159578384fd5b506151668a828b01614e1e565b989b979a50959850939692959293505050565b60006020828403121561518a578081fd5b813567ffffffffffffffff808211156151a1578283fd5b818401915084601f8301126151b4578283fd5b8135818111156151c6576151c6615b6f565b604051601f8201601f19908116603f011681019083821181831017156151ee576151ee615b6f565b81604052828152876020848701011115615206578586fd5b826020860160208301379182016020019490945295945050505050565b600060208284031215615234578081fd5b5035919050565b60006020828403121561524c578081fd5b5051919050565b60008060408385031215615265578182fd5b505080516020909101519092909150565b60008284528282602086013780602084860101526020601f19601f85011685010190509392505050565b600081518084526152b8816020860160208601615af8565b601f01601f19169290920160200192915050565b600081546152d981615b24565b8085526020600183811680156152f6576001811461530a57615338565b60ff19851688840152604088019550615338565b866000528260002060005b858110156153305781548a8201860152908301908401615315565b890184019650505b505050505092915050565b6005811061536157634e487b7160e01b600052602160045260246000fd5b9052565b8054825260018101546020830152600281015460408301526003810154606083015260048101546080830152600501546001600160a01b031660a090910152565b6153c8826153bb83546001600160a01b031690565b6001600160a01b03169052565b60018101546001600160a01b0390811660208401526002820154811660408401526003820154811660608401526004820154166080830152600581015460a0830152600681015460c0830152600781015460e083015260088101546101008301526009810154610120830152600a810154610140830152600b015461016090910152565b6000828483379101908152919050565b6000825161546e818460208701615af8565b9190910192915050565b600080835461548681615b24565b6001828116801561549e57600181146154af576154db565b60ff198416875282870194506154db565b8786526020808720875b858110156154d25781548a8201529084019082016154b9565b50505082870194505b50929695505050505050565b6000606082526154fb606083018688615276565b6020830194909452506040015292915050565b6000602082526133c960208301846152a0565b60006101608083526155358184018f6152a0565b9050615544602084018e615343565b8281036040840152615556818d6152a0565b606084019b909b525050608081019790975260a087019590955260c086019390935260e0850191909152151561010084015215156101208301521515610140909101529392505050565b6000606082526155b360608301866152a0565b60208301949094525060400152919050565b6000606082526155b360608301866152cc565b6000608082526155eb60808301876152cc565b6020830195909552506040810192909252606090910152919050565b600089825260c0602083015261562160c08301898b615276565b87604084015286606084015261563a6080840187615343565b82810360a084015261564d818587615276565b9b9a5050505050505050505050565b858152610200810161567160208301876153a6565b6001600160a01b03949094166101a08201526101c08101929092526101e09091015292915050565b60208082526023908201527f4c6f636b6572733a206163636f756e7420646f6573206e6f74206861766520726040820152626f6c6560e81b606082015260800190565b60208082526025908201527f4c6f636b6572733a206d6573736167652073656e646572206973206e6f74206360408201526431a13ab93760d91b606082015260800190565b60208082526021908201527f4c6f636b6572733a206163636f756e7420616c72656164792068617320726f6c6040820152606560f81b606082015260800190565b6020808252602c908201527f4c6f636b6572733a20696e7075742061646472657373206973206e6f7420612060408201526b3b30b634b2103637b1b5b2b960a11b606082015260800190565b6020808252601690820152754c6f636b6572733a2076616c7565206973207a65726f60501b604082015260600190565b60208082526018908201527f4c6f636b6572733a2061646472657373206973207a65726f0000000000000000604082015260600190565b6020808252602b908201527f496e697469616c697a61626c653a20636f6e7472616374206973206e6f74206960408201526a6e697469616c697a696e6760a81b606082015260800190565b6020808252601f908201527f5265656e7472616e637947756172643a207265656e7472616e742063616c6c00604082015260600190565b83815261026081016158ac6020830185615365565b614c4e60e08301846153a6565b84815261028081016158ce6020830186615365565b6158db60e08301856153a6565b8261026083015295945050505050565b8581526102a081016159006020830187615365565b61590d60e08301866153a6565b61026082019390935261028001529392505050565b61024081016159318285615365565b6133c960c08301846153a6565b60008582526080602083015261595760808301866152a0565b6159646040840186615343565b8281036060840152614d7381856152a0565b6000821982111561598957615989615b59565b500190565b6000826159a957634e487b7160e01b81526012600452602481fd5b500490565b80825b60018086116159c057506159eb565b8187048211156159d2576159d2615b59565b808616156159df57918102915b9490941c9380026159b1565b94509492505050565b60006133c96000198484600082615a0d575060016133c9565b81615a1a575060006133c9565b8160018114615a305760028114615a3a57615a67565b60019150506133c9565b60ff841115615a4b57615a4b615b59565b6001841b915084821115615a6157615a61615b59565b506133c9565b5060208310610133831016604e8410600b8410161715615a9a575081810a83811115615a9557615a95615b59565b6133c9565b615aa784848460016159ae565b808604821115615ab957615ab9615b59565b02949350505050565b6000816000190483118215151615615adc57615adc615b59565b500290565b600082821015615af357615af3615b59565b500390565b60005b83811015615b13578181015183820152602001615afb565b8381111561450f5750506000910152565b600281046001821680615b3857607f821691505b60208210811415611b7057634e487b7160e01b600052602260045260246000fd5b634e487b7160e01b600052601160045260246000fd5b634e487b7160e01b600052604160045260246000fdfea26469706673582212209b6d672cd871b6cc8db520e842ffd690681493595d2351331885665784b360a164736f6c63430008020033",
  "deployedBytecode": "0x6080604052600436106104105760003560e01c80637da5f0da1161021e578063b734de2611610123578063dd0081c7116100ab578063ee1f1c701161007a578063ee1f1c7014610ca2578063ef69a7bc14610cc2578063f2fde38b14610cd7578063f44637ba14610cf7578063ffc9f70414610d1757610410565b8063dd0081c714610688578063e85501d814610c62578063e955de4514610c77578063ed110a9c14610c8c57610410565b8063c4d10b6a116100f2578063c4d10b6a14610b78578063cab1344e14610b98578063cdcbc87914610bb8578063d5a38a9114610c22578063dc04442214610c4257610410565b8063b734de2614610a5d578063bc805d1d14610a7d578063bd60e79414610a93578063c0924b8014610b5857610410565b80639bf09882116101a6578063aff2faa311610175578063aff2faa3146109e9578063b1016bdf14610a09578063b291ec1314610a1c578063b430225814610a32578063b4eae1cb14610a4757610410565b80639bf0988214610952578063a839db2414610972578063aa271e1a14610992578063af1ea795146109b257610410565b80638da5cb5b116101ed5780638da5cb5b146108b45780638fe85fe7146108d2578063946ce8cd146108f257806396ec39e814610912578063983b2d561461093257610410565b80637da5f0da1461082e5780637f0f18171461085e57806388aa0a521461087e5780638d3d78cd1461089457610410565b806345cc5890116103245780636136c21f116102ac5780636a030fc31161027b5780636a030fc3146107d05780636d32395c146107f05780636d75b9ee14610806578063715018a614610819578063768ebb121461068857610410565b80636136c21f14610758578063613e2e1e14610785578063639080201461079a5780636600203d146107b057610410565b80635a8d80b8116102f35780635a8d80b8146106b35780635c975abb146106d35780635d6464ba146106eb5780635f04fa26146107185780636060663e1461073857610410565b806345cc589014610648578063530e784f1461066857806354509b971461068857806359bb91891461069e57610410565b80632f5b04ac116103a757806338463cff1161037657806338463cff1461059157806341f3ec11146105b157806341fae579146105f25780634334614a1461060857806343b937071461062857610410565b80632f5b04ac146105325780633092afd51461054957806331f7d964146105695780633237c1581461057e57610410565b80631775765f116103e35780631775765f146104c75780631fcfe19c146104dd5780632630c12f146104fd578063264db4ae1461051d57610410565b806302846858146104155780630c42cbc914610437578063108f438d1461045f5780631697565b14610497575b600080fd5b34801561042157600080fd5b50610435610430366004614e65565b610d2c565b005b34801561044357600080fd5b5061044c601281565b6040519081526020015b60405180910390f35b34801561046b57600080fd5b5060005461047f906001600160a01b031681565b6040516001600160a01b039091168152602001610456565b3480156104a357600080fd5b506104b76104b2366004614f87565b610dd3565b6040519015158152602001610456565b3480156104d357600080fd5b5061044c60095481565b3480156104e957600080fd5b5061044c6104f836600461503d565b61100f565b34801561050957600080fd5b5060045461047f906001600160a01b031681565b34801561052957600080fd5b5061044c6113be565b34801561053e57600080fd5b5061044c6205460081565b34801561055557600080fd5b50610435610564366004614e65565b611451565b34801561057557600080fd5b5061047f600181565b6104b761058c366004615223565b6114ef565b34801561059d57600080fd5b5061044c6105ac366004615097565b61179a565b3480156105bd57600080fd5b5061047f6105cc366004615179565b80516020818301810180516010825292820191909301209152546001600160a01b031681565b3480156105fe57600080fd5b5061044c60055481565b34801561061457600080fd5b506104b7610623366004614e65565b611b28565b34801561063457600080fd5b506104b7610643366004614f1b565b611b76565b34801561065457600080fd5b506104b7610663366004614e65565b611e19565b34801561067457600080fd5b50610435610683366004614e65565b611fc3565b34801561069457600080fd5b5061044c61271081565b3480156106aa57600080fd5b506104b7611fff565b3480156106bf57600080fd5b5060025461047f906001600160a01b031681565b3480156106df57600080fd5b5060bc5460ff166104b7565b3480156106f757600080fd5b5061070b610706366004614e65565b612142565b604051610456919061550e565b34801561072457600080fd5b50610435610733366004614e7f565b612214565b34801561074457600080fd5b50610435610753366004615223565b61241f565b34801561076457600080fd5b5061044c610773366004614e65565b600e6020526000908152604090205481565b34801561079157600080fd5b50610435612433565b3480156107a657600080fd5b5061044c60075481565b3480156107bc57600080fd5b506104356107cb366004615223565b612445565b3480156107dc57600080fd5b506104b76107eb366004614e65565b612456565b3480156107fc57600080fd5b5061044c60065481565b6104b7610814366004614f1b565b6124d7565b34801561082557600080fd5b50610435612630565b34801561083a57600080fd5b506104b7610849366004614e65565b600f6020526000908152604090205460ff1681565b34801561086a57600080fd5b50610435610879366004614e65565b612638565b34801561088a57600080fd5b5061044c600b5481565b3480156108a057600080fd5b5060015461047f906001600160a01b031681565b3480156108c057600080fd5b506058546001600160a01b031661047f565b3480156108de57600080fd5b506104356108ed366004615223565b612670565b3480156108fe57600080fd5b5061043561090d366004615223565b612681565b34801561091e57600080fd5b506104b761092d366004614f1b565b612692565b34801561093e57600080fd5b5061043561094d366004614e65565b612b30565b34801561095e57600080fd5b5061043561096d366004615223565b612bd2565b34801561097e57600080fd5b5061043561098d366004615223565b612be3565b34801561099e57600080fd5b506104b76109ad366004614e65565b612bf4565b3480156109be57600080fd5b506109d26109cd366004614e65565b612c3d565b6040516104569b9a99989796959493929190615521565b3480156109f557600080fd5b506104b7610a04366004614ffd565b612db5565b6104b7610a173660046150e1565b612e03565b348015610a2857600080fd5b5061044c600a5481565b348015610a3e57600080fd5b506104b7612fd3565b348015610a5357600080fd5b5061044c60085481565b348015610a6957600080fd5b506104b7610a78366004614f44565b61309e565b348015610a8957600080fd5b5061044c612ee081565b348015610a9f57600080fd5b50601954601a54601b54601c54601d54601e54601f54602054602154602254602354602454610ae89b6001600160a01b039081169b81169a81169981169816969594939291908c565b604080516001600160a01b039d8e1681529b8d1660208d0152998c16998b0199909952968a1660608a015298909416608088015260a087019290925260c086015260e085015261010084015261012083019390935261014082019290925261016081019190915261018001610456565b348015610b6457600080fd5b5060035461047f906001600160a01b031681565b348015610b8457600080fd5b5061047f610b93366004614ffd565b613261565b348015610ba457600080fd5b50610435610bb3366004614e65565b613296565b348015610bc457600080fd5b50601354601454601554601654601754601854610bec9594939291906001600160a01b031686565b60408051968752602087019590955293850192909252606084015260808301526001600160a01b031660a082015260c001610456565b348015610c2e57600080fd5b5061044c610c3d366004614e65565b6132ce565b348015610c4e57600080fd5b50610435610c5d366004614e65565b6133d0565b348015610c6e57600080fd5b506104b76133e1565b348015610c8357600080fd5b50610435613762565b348015610c9857600080fd5b5061044c600c5481565b348015610cae57600080fd5b50610435610cbd366004614e65565b613772565b348015610cce57600080fd5b50600c5461044c565b348015610ce357600080fd5b50610435610cf2366004614e65565b6137aa565b348015610d0357600080fd5b50610435610d12366004614e65565b613820565b348015610d2357600080fd5b506104b76138c2565b806001600160a01b038116610d5c5760405162461bcd60e51b8152600401610d53906157de565b60405180910390fd5b610d646138ff565b610d6d82611b28565b610d895760405162461bcd60e51b8152600401610d5390615699565b6001600160a01b038216600081815260126020526040808220805460ff19169055517f90eabbc0c667db2a5029ed6bc0f5fe9f356d11684a4ca9fcfaec0e53f12b9c8e9190a25050565b60006002608a541415610df85760405162461bcd60e51b8152600401610d5390615860565b6002608a55610e05613959565b6002546001600160a01b0316336001600160a01b031614610e385760405162461bcd60e51b8152600401610d53906156dc565b6001600160a01b0386166000908152600d60205260408082209051636fdf700f60e01b815273__$c4b8709fc407821a47433b8892c1b612a0$__91636fdf700f91610e9091906013906019908c908b906004016158eb565b60206040518083038186803b158015610ea857600080fd5b505af4158015610ebc573d6000803e3d6000fd5b505050506040513d601f19601f82011682018060405250810190610ee0919061523b565b90506001600160a01b0383166108fc610ef98887615976565b610f038785615ac2565b610f0d919061598e565b6040518115909202916000818181858888f19350505050158015610f35573d6000803e3d6000fd5b506000610f428786615976565b610f4c8684615ac2565b610f56919061598e565b610f609083615ae1565b6040519091506001600160a01b0387169082156108fc029083906000818181858888f19350505050158015610f99573d6000803e3d6000fd5b506040805182815260208101879052908101839052426060820152600160808201526001600160a01b0380861691888216918b16907fab522c1322c34ea455e8f541ecfe1b73a29039f3658bff658cf12c9fd26dc0169060a00160405180910390a46001925050506001608a5595945050505050565b6000826001600160a01b0381166110385760405162461bcd60e51b8152600401610d53906157de565b82600081116110595760405162461bcd60e51b8152600401610d53906157ae565b6002608a54141561107c5760405162461bcd60e51b8152600401610d5390615860565b6002608a55611089613959565b611092336109ad565b6110de5760405162461bcd60e51b815260206004820152601e60248201527f4c6f636b6572733a206f6e6c79206d696e746572732063616e206d696e7400006044820152606401610d53565b6000601088886040516110f292919061544c565b908152604051908190036020019020546001600160a01b031690506000611118826132ce565b90508581101561116a5760405162461bcd60e51b815260206004820152601e60248201527f4c6f636b6572733a20696e73756666696369656e7420636170616369747900006044820152606401610d53565b61117382612456565b6111b55760405162461bcd60e51b81526020600482015260136024820152724c6f636b6572733a206e6f742061637469766560681b6044820152606401610d53565b6001600160a01b0382166000908152600d60205260409020600501546111dc908790615976565b6001600160a01b0383166000908152600d60205260408120600501919091556007546127109061120c9089615ac2565b611216919061598e565b905080156112a6576001546040516340c10f1960e01b81526001600160a01b03858116600483015260248201849052909116906340c10f1990604401602060405180830381600087803b15801561126c57600080fd5b505af1158015611280573d6000803e3d6000fd5b505050506040513d601f19601f820116820180604052508101906112a49190614fdd565b505b6001546001600160a01b03166340c10f19896112c2848b615ae1565b6040516001600160e01b031960e085901b1681526001600160a01b0390921660048301526024820152604401602060405180830381600087803b15801561130857600080fd5b505af115801561131c573d6000803e3d6000fd5b505050506040513d601f19601f820116820180604052508101906113409190614fdd565b50876001600160a01b0316836001600160a01b03167f8ad706b338c5d2a20b0d038b5cfdaf2b2f943f43048723bde0dccdf129598a11898442604051611399939291909283526020830191909152604082015260600190565b60405180910390a36113ab8188615ae1565b6001608a559a9950505050505050505050565b60405163309376db60e11b815260009073__$c4b8709fc407821a47433b8892c1b612a0$__90636126edb6906113fc90601390601990600401615922565b60206040518083038186803b15801561141457600080fd5b505af4158015611428573d6000803e3d6000fd5b505050506040513d601f19601f8201168201806040525081019061144c919061523b565b905090565b806001600160a01b0381166114785760405162461bcd60e51b8152600401610d53906157de565b6114806138ff565b61148982612bf4565b6114a55760405162461bcd60e51b8152600401610d5390615699565b6001600160a01b038216600081815260116020526040808220805460ff19169055517fe94479a9f7e1952cc78f2d6baab678adc1b772d936c6583def489e524cb666929190a25050565b60006002608a5414156115145760405162461bcd60e51b8152600401610d5390615860565b6002608a55336000908152600d602052604090206008015460ff166115705760405162461bcd60e51b81526020600482015260126024820152712637b1b5b2b9399d103737903637b1b5b2b960711b6044820152606401610d53565b611579336107eb565b156115be5760405162461bcd60e51b81526020600482015260156024820152744c6f636b6572733a207374696c6c2061637469766560581b6044820152606401610d53565b60405163309376db60e11b815260009073__$c4b8709fc407821a47433b8892c1b612a0$__90636126edb6906115fc90601390601990600401615922565b60206040518083038186803b15801561161457600080fd5b505af4158015611628573d6000803e3d6000fd5b505050506040513d601f19601f8201168201806040525081019061164c919061523b565b336000908152600d6020908152604091829020825160c08082018552601354825260145482850152601554828601526016546060808401919091526017546080808501919091526018546001600160a01b0390811660a080870191909152885161018081018a5260195483168152601a548316818a0152601b54831699810199909952601c54821693890193909352601d541690870152601e5490860152601f5490850152915460e084015260215461010084015260225461012084015260235461014084015260245461016084015292935061172b9291848761399f565b6117353384613b69565b336000818152600d60209081526040918290206004015482518781529182015242918101919091527f93ae1c71197ee1bd2ad44b7d57e7b34ca946aeb88fdb4fc4a45211dbeb2c3cc7906060015b60405180910390a260019150506001608a55919050565b600081600081116117bd5760405162461bcd60e51b8152600401610d53906157ae565b6002608a5414156117e05760405162461bcd60e51b8152600401610d5390615860565b6002608a556117ed613959565b6117f633610623565b6118425760405162461bcd60e51b815260206004820152601e60248201527f4c6f636b6572733a206f6e6c79206275726e6572732063616e206275726e00006044820152606401610d53565b60006010868660405161185692919061544c565b908152604051908190036020019020546001546001600160a01b039182169250166323b872dd6118833390565b6040516001600160e01b031960e084901b1681526001600160a01b03909116600482015230602482015260448101879052606401602060405180830381600087803b1580156118d157600080fd5b505af11580156118e5573d6000803e3d6000fd5b505050506040513d601f19601f820116820180604052508101906119099190614fdd565b5060006127106007548661191d9190615ac2565b611927919061598e565b905060006119358287615ae1565b6001600160a01b0384166000908152600d6020526040902060050154909150818110156119a45760405162461bcd60e51b815260206004820152601b60248201527f4c6f636b6572733a20696e73756666696369656e742066756e647300000000006044820152606401610d53565b6119ae8282615ae1565b6001600160a01b038581166000908152600d602052604090819020600501929092556001549151630852cd8d60e31b8152600481018590529116906342966c6890602401602060405180830381600087803b158015611a0c57600080fd5b505af1158015611a20573d6000803e3d6000fd5b505050506040513d601f19601f82011682018060405250810190611a449190614fdd565b5060015460405163a9059cbb60e01b81526001600160a01b038681166004830152602482018690529091169063a9059cbb90604401602060405180830381600087803b158015611a9357600080fd5b505af1158015611aa7573d6000803e3d6000fd5b505050506040513d601f19601f82011682018060405250810190611acb9190614fdd565b506040805188815260208101859052428183015290516001600160a01b038616917f66fb54322c407b04a077a306e72cdd780f0f374ba5dac9f6901a56a6255bc34a919081900360600190a2506001608a55979650505050505050565b6000816001600160a01b038116611b515760405162461bcd60e51b8152600401610d53906157de565b6001600160a01b03831660009081526012602052604090205460ff1691505b50919050565b6000826001600160a01b038116611b9f5760405162461bcd60e51b8152600401610d53906157de565b8260008111611bc05760405162461bcd60e51b8152600401610d53906157ae565b6002608a541415611be35760405162461bcd60e51b8152600401610d5390615860565b6002608a55611bf0613959565b6001600160a01b0385166000908152600d60205260408082209051639416385d60e01b815273__$c4b8709fc407821a47433b8892c1b612a0$__91639416385d91611c4691906013906019908b906004016158b9565b60206040518083038186803b158015611c5e57600080fd5b505af4158015611c72573d6000803e3d6000fd5b505050506040513d601f19601f82011682018060405250810190611c96919061523b565b6001549091506001600160a01b03166323b872dd336040516001600160e01b031960e084901b1681526001600160a01b03909116600482015230602482015260448101849052606401602060405180830381600087803b158015611cf957600080fd5b505af1158015611d0d573d6000803e3d6000fd5b505050506040513d601f19601f82011682018060405250810190611d319190614fdd565b50600154604051630852cd8d60e31b8152600481018390526001600160a01b03909116906342966c6890602401602060405180830381600087803b158015611d7857600080fd5b505af1158015611d8c573d6000803e3d6000fd5b505050506040513d601f19601f82011682018060405250810190611db09190614fdd565b50611dbb3386613b69565b60408051868152602081018390524281830152905133916001600160a01b038916917fd03400b15a5f4cddbc57f0e81bca31db33e4d1ed1390211eade3518bce70562e9181900360600190a3600193505050506001608a5592915050565b6000816001600160a01b038116611e425760405162461bcd60e51b8152600401610d53906157de565b6002608a541415611e655760405162461bcd60e51b8152600401610d5390615860565b6002608a55611e726138ff565b6001600160a01b0383166000908152600d6020526040902060080154610100900460ff16611ed85760405162461bcd60e51b8152602060048201526013602482015272131bd8dad95c9cce881b9bc81c995c5d595cdd606a1b6044820152606401610d53565b6001600160a01b0383166000908152600d60205260409020600801805461ffff19166001908117909155600b54611f0f9190615ae1565b600b55600c54611f20906001615976565b600c556001600160a01b0383166000908152600d60205260409081902090518491601091611f4e9190615478565b908152604080516020928190038301812080546001600160a01b0319166001600160a01b039586161790559286166000818152600d90935291206003810154600482015492937f3840128cd2c146a0ea7739b8440e824c6d2d498ae32274812561d689d751e75e9361178393929142906155d8565b806001600160a01b038116611fea5760405162461bcd60e51b8152600401610d53906157de565b611ff26138ff565b611ffb82613c87565b5050565b60006002608a5414156120245760405162461bcd60e51b8152600401610d5390615860565b6002608a55336000908152600d602052604090206008015460ff1661205b5760405162461bcd60e51b8152600401610d5390615762565b336000908152600e6020526040902054156120c65760405162461bcd60e51b815260206004820152602560248201527f4c6f636b6572733a206c6f636b65722068617320616c72656164792072657175604482015264195cdd195960da1b6064820152608401610d53565b6120d36205460042615976565b336000818152600e60209081526040808320859055600d9091529081902060038101546004820154600583015493517f59e9b7bdd325b1dd9fe5b91f457f74d4b3d58263580ae84d6be1f451bbc2851f94612130949392916155d8565b60405180910390a350600180608a5590565b6060816001600160a01b03811661216b5760405162461bcd60e51b8152600401610d53906157de565b6001600160a01b0383166000908152600d60205260409020805461218e90615b24565b80601f01602080910402602001604051908101604052809291908181526020018280546121ba90615b24565b80156122075780601f106121dc57610100808354040283529160200191612207565b820191906000526020600020905b8154815290600101906020018083116121ea57829003601f168201915b5050505050915050919050565b602554610100900460ff16158080156122345750602554600160ff909116105b80612255575061224330613d25565b158015612255575060255460ff166001145b6122b85760405162461bcd60e51b815260206004820152602e60248201527f496e697469616c697a61626c653a20636f6e747261637420697320616c72656160448201526d191e481a5b9a5d1a585b1a5e995960921b6064820152608401610d53565b6025805460ff1916600117905580156122db576025805461ff0019166101001790555b6122e3613d38565b6122eb613d67565b6122f3613d96565b8561233a5760405162461bcd60e51b81526020600482015260176024820152764c6f636b6572733a20616d6f756e74206973207a65726f60481b6044820152606401610d53565b6123438b613dc5565b61234c8c613e63565b61235588613f01565b61235e8a614041565b61236789613c87565b612370876140df565b61237986614125565b612382856141b2565b61238b84614241565b61239483614322565b61239d826143ba565b61271060138190556014819055612ee06015556016556012601755601880546001600160a01b03191660011790558015612411576025805461ff0019169055604051600181527f7f26b83ff96e1f2b6a682f133852f6798a09c465da95921460cefb38474024989060200160405180910390a15b505050505050505050505050565b6124276138ff565b612430816141b2565b50565b61243b6138ff565b612443614452565b565b61244d6138ff565b61243081614322565b6000816001600160a01b03811661247f5760405162461bcd60e51b8152600401610d53906157de565b6001600160a01b0383166000908152600e60205260409020546124a55760019150611b70565b6001600160a01b0383166000908152600e60205260409020544210156124ce5760019150611b70565b60009150611b70565b60006002608a5414156124fc5760405162461bcd60e51b8152600401610d5390615860565b6002608a553482146125455760405162461bcd60e51b81526020600482015260126024820152714c6f636b6572733a206d73672076616c756560701b6044820152606401610d53565b6001600160a01b0383166000908152600d602052604090819020905163015d95e560e01b815260048101919091526024810183905273__$c4b8709fc407821a47433b8892c1b612a0$__9063015d95e59060440160006040518083038186803b1580156125b157600080fd5b505af41580156125c5573d6000803e3d6000fd5b505050506001600160a01b0383166000818152600d602090815260409182902060040154825186815291820152428183015290517f2d2b4797badefe26cd5674f9bc2b8f5ed98e2a663e1a977af971254cfefd15ad9181900360600190a250600180608a5592915050565b6124436138ff565b806001600160a01b03811661265f5760405162461bcd60e51b8152600401610d53906157de565b6126676138ff565b611ffb82613e63565b6126786138ff565b612430816143ba565b6126896138ff565b61243081614241565b6000826001600160a01b0381166126bb5760405162461bcd60e51b8152600401610d53906157de565b82600081116126dc5760405162461bcd60e51b8152600401610d53906157ae565b6002608a5414156126ff5760405162461bcd60e51b8152600401610d5390615860565b6002608a5561270c613959565b6001600160a01b0385166000908152600d602052604080822090516308878a6f60e01b815273__$c4b8709fc407821a47433b8892c1b612a0$__916308878a6f9161276291906013906019908b906004016158b9565b60206040518083038186803b15801561277a57600080fd5b505af415801561278e573d6000803e3d6000fd5b505050506040513d601f19601f820116820180604052508101906127b2919061523b565b90506000600d6000886001600160a01b03166001600160a01b03168152602001908152602001600020604051806101600160405290816000820180546127f790615b24565b80601f016020809104026020016040519081016040528092919081815260200182805461282390615b24565b80156128705780601f1061284557610100808354040283529160200191612870565b820191906000526020600020905b81548152906001019060200180831161285357829003601f168201915b5050509183525050600182015460209091019060ff1660048111156128a557634e487b7160e01b600052602160045260246000fd5b60048111156128c457634e487b7160e01b600052602160045260246000fd5b81526020016002820180546128d890615b24565b80601f016020809104026020016040519081016040528092919081815260200182805461290490615b24565b80156129515780601f1061292657610100808354040283529160200191612951565b820191906000526020600020905b81548152906001019060200180831161293457829003601f168201915b505050918352505060038201546020808301919091526004830154604080840191909152600580850154606085015260068501546080850152600785015460a085015260089094015460ff808216151560c08601526101008083048216151560e0870152620100009092041615159301929092526001600160a01b038b166000908152600d9091522001549091506129ea908390615ae1565b6001600160a01b0388166000908152600d60205260409020600581019190915560040154612a19908790615ae1565b6001600160a01b038089166000908152600d602090815260409182902060049081019490945560025485830151918601518651935163218a4edd60e11b815291909416946343149dba94612a7494899493919290910161593e565b602060405180830381600087803b158015612a8e57600080fd5b505af1158015612aa2573d6000803e3d6000fd5b505050506040513d601f19601f82011682018060405250810190612ac6919061523b565b50612ad13387613b69565b60408051878152602081018490524281830152905133916001600160a01b038a16917fd63782183ccef603c2adba105774db58e1701ea5e7b3e23eded1b5e967a3654c9181900360600190a360019450505050506001608a5592915050565b806001600160a01b038116612b575760405162461bcd60e51b8152600401610d53906157de565b612b5f6138ff565b612b6882612bf4565b15612b855760405162461bcd60e51b8152600401610d5390615721565b6001600160a01b038216600081815260116020526040808220805460ff19166001179055517f6ae172837ea30b801fbfcdd4108aa1d5bf8ff775444fd70256b44e6bf3dfc3f69190a25050565b612bda6138ff565b612430816140df565b612beb6138ff565b61243081614125565b6000816001600160a01b038116612c1d5760405162461bcd60e51b8152600401610d53906157de565b50506001600160a01b031660009081526011602052604090205460ff1690565b600d60205260009081526040902080548190612c5890615b24565b80601f0160208091040260200160405190810160405280929190818152602001828054612c8490615b24565b8015612cd15780601f10612ca657610100808354040283529160200191612cd1565b820191906000526020600020905b815481529060010190602001808311612cb457829003601f168201915b5050506001840154600285018054949560ff909216949193509150612cf590615b24565b80601f0160208091040260200160405190810160405280929190818152602001828054612d2190615b24565b8015612d6e5780601f10612d4357610100808354040283529160200191612d6e565b820191906000526020600020905b815481529060010190602001808311612d5157829003601f168201915b5050506003840154600485015460058601546006870154600788015460089098015496979396929550909350919060ff80821691610100810482169162010000909104168b565b6000600d600060108585604051612dcd92919061544c565b9081526040805160209281900383019020546001600160a01b0316835290820192909252016000206008015460ff169392505050565b60006002608a541415612e285760405162461bcd60e51b8152600401610d5390615860565b6002608a8190555073__$c4b8709fc407821a47433b8892c1b612a0$__63f8d1e63d600d601960108c8c604051612e6092919061544c565b908152604051908190036020018120546001600160e01b031960e086901b168252612e9f9392916001600160a01b03909116908c908c9060040161565c565b60006040518083038186803b158015612eb757600080fd5b505af4158015612ecb573d6000803e3d6000fd5b50505050612eed612ed93390565b6019546001600160a01b03169030896144a4565b600b54612efb906001615976565b600b5560405163b19399d760e01b815273__$c4b8709fc407821a47433b8892c1b612a0$__9063b19399d790612f4490600d908c908c908c908c908c908c908c90600401615607565b60006040518083038186803b158015612f5c57600080fd5b505af4158015612f70573d6000803e3d6000fd5b50505050612f7b3390565b6001600160a01b03167fe5f7957016a87f9d7bacdd371a516d7f2c5667aa5676c7e07cc8c0bbc6e5067b89898989604051612fb994939291906154e7565b60405180910390a250600180608a55979650505050505050565b60006002608a541415612ff85760405162461bcd60e51b8152600401610d5390615860565b6002608a55336000908152600d602052604090206008015460ff1661302f5760405162461bcd60e51b8152600401610d5390615762565b336000818152600e60209081526040808320839055600d9091529081902060038101546004820154600583015493517ff5c2a2ca5d59b6903bcb66377907e2c66983741a553bae891c485953b2a1f96f9461308c949392916155d8565b60405180910390a250600180608a5590565b60006002608a5414156130c35760405162461bcd60e51b8152600401610d5390615860565b6002608a556130d0613959565b6002546001600160a01b0316336001600160a01b0316146131035760405162461bcd60e51b8152600401610d53906156dc565b6001600160a01b0385166000908152600d602052604080822090516336a24a7b60e01b8152829173__$c4b8709fc407821a47433b8892c1b612a0$__916336a24a7b9161315c916013906019908c908b906004016158eb565b604080518083038186803b15801561317357600080fd5b505af4158015613187573d6000803e3d6000fd5b505050506040513d601f19601f820116820180604052508101906131ab9190615253565b60405191935091506001600160a01b0386169083156108fc029084906000818181858888f193505050501580156131e6573d6000803e3d6000fd5b50306001600160a01b038681169089167fab522c1322c34ea455e8f541ecfe1b73a29039f3658bff658cf12c9fd26dc01685886132238288615976565b604080519384526020840192909252908201524260608201526000608082015260a00160405180910390a46001925050506001608a55949350505050565b60006010838360405161327592919061544c565b908152604051908190036020019020546001600160a01b0316905092915050565b806001600160a01b0381166132bd5760405162461bcd60e51b8152600401610d53906157de565b6132c56138ff565b611ffb82614041565b6000816001600160a01b0381166132f75760405162461bcd60e51b8152600401610d53906157de565b6001600160a01b0383166000908152600d60205260409081902060058101546008549251630e19455960e41b81529092916127109173__$c4b8709fc407821a47433b8892c1b612a0$__9163e19455909161335b9190601390601990600401615897565b60206040518083038186803b15801561337357600080fd5b505af4158015613387573d6000803e3d6000fd5b505050506040513d601f19601f820116820180604052508101906133ab919061523b565b6133b59190615ac2565b6133bf919061598e565b6133c99190615ae1565b9392505050565b6133d86138ff565b61243081613dc5565b60006002608a5414156134065760405162461bcd60e51b8152600401610d5390615860565b6002608a55336000908152600d6020526040902060080154610100900460ff166134645760405162461bcd60e51b815260206004820152600f60248201526e4c6f636b6572733a206e6f2072657160881b6044820152606401610d53565b336000908152600d60205260408082208151610160810190925280548290829061348d90615b24565b80601f01602080910402602001604051908101604052809291908181526020018280546134b990615b24565b80156135065780601f106134db57610100808354040283529160200191613506565b820191906000526020600020905b8154815290600101906020018083116134e957829003601f168201915b5050509183525050600182015460209091019060ff16600481111561353b57634e487b7160e01b600052602160045260246000fd5b600481111561355a57634e487b7160e01b600052602160045260246000fd5b815260200160028201805461356e90615b24565b80601f016020809104026020016040519081016040528092919081815260200182805461359a90615b24565b80156135e75780601f106135bc576101008083540402835291602001916135e7565b820191906000526020600020905b8154815290600101906020018083116135ca57829003601f168201915b505050918352505060038201546020820152600482015460408201526005820154606082015260068201546080820152600782015460a082015260089091015460ff808216151560c08401526101008083048216151560e0850152620100009092041615159101529050600d6000336001600160a01b03168152602081019190915260400160009081209061367c8282614db7565b60018201805460ff19169055613696600283016000614db7565b506000600382018190556004820181905560058201819055600682018190556007820155600801805462ffffff19169055600b546136d690600190615ae1565b600b556136f53360608301516000546001600160a01b03169190614515565b613703338260800151613b69565b336000818152600d6020526040908190206003810154600482015492517f10f84ef0773ba7ade3714f4e500ca17436e6df2b0feb99c754c04f889290cbd49361374d9392916155c5565b60405180910390a260019150506001608a5590565b61376a6138ff565b612443614545565b806001600160a01b0381166137995760405162461bcd60e51b8152600401610d53906157de565b6137a16138ff565b611ffb82613f01565b6137b26138ff565b6001600160a01b0381166138175760405162461bcd60e51b815260206004820152602660248201527f4f776e61626c653a206e6577206f776e657220697320746865207a65726f206160448201526564647265737360d01b6064820152608401610d53565b61243081614582565b806001600160a01b0381166138475760405162461bcd60e51b8152600401610d53906157de565b61384f6138ff565b61385882611b28565b156138755760405162461bcd60e51b8152600401610d5390615721565b6001600160a01b038216600081815260126020526040808220805460ff19166001179055517f86e57fd2b90329052917118de7c3f521f400d439b9650deaa906a25b08b945609190a25050565b60006002608a5414156138e75760405162461bcd60e51b8152600401610d5390615860565b6002608a556138f5336145d4565b50600180608a5590565b6058546001600160a01b031633146124435760405162461bcd60e51b815260206004820181905260248201527f4f776e61626c653a2063616c6c6572206973206e6f7420746865206f776e65726044820152606401610d53565b60bc5460ff16156124435760405162461bcd60e51b815260206004820152601060248201526f14185d5cd8589b194e881c185d5cd95960821b6044820152606401610d53565b600885015460ff166139f35760405162461bcd60e51b815260206004820181905260248201527f4c6f636b6572733a206163636f756e74206973206e6f742061206c6f636b65726044820152606401610d53565b600085600501548560800151600a613a0b91906159f4565b856101000151613a1b9190615ac2565b86516004890154613a2d908790615ac2565b613a379190615ac2565b613a41919061598e565b613a4b9190615ae1565b90506000838660800151600a613a6191906159f4565b613a6b9084615ac2565b613a75919061598e565b905080831115613adb5760405162461bcd60e51b815260206004820152602b60248201527f4c6f636b6572733a206d6f7265207468616e206d61782072656d6f7661626c6560448201526a0818dbdb1b185d195c985b60aa1b6064820152608401610d53565b8460c00151838860040154613af09190615ae1565b1015613b485760405162461bcd60e51b815260206004820152602160248201527f4c6f636b6572733a206c657373207468616e206d696e20636f6c6c61746572616044820152601b60fa1b6064820152608401610d53565b828760040154613b589190615ae1565b876004018190555050505050505050565b80471015613bb95760405162461bcd60e51b815260206004820152601d60248201527f416464726573733a20696e73756666696369656e742062616c616e63650000006044820152606401610d53565b6000826001600160a01b03168260405160006040518083038185875af1925050503d8060008114613c06576040519150601f19603f3d011682016040523d82523d6000602084013e613c0b565b606091505b5050905080613c825760405162461bcd60e51b815260206004820152603a60248201527f416464726573733a20756e61626c6520746f2073656e642076616c75652c207260448201527f6563697069656e74206d617920686176652072657665727465640000000000006064820152608401610d53565b505050565b806001600160a01b038116613cae5760405162461bcd60e51b8152600401610d53906157de565b600454604080516001600160a01b03928316815291841660208301527fd52b2b9b7e9ee655fcb95d2e5b9e0c9f69e7ef2b8e9d2d0ea78402d576d22e22910160405180910390a150600480546001600160a01b03199081166001600160a01b039384161791829055601d8054929093169116179055565b6001600160a01b0381163b15155b919050565b602554610100900460ff16613d5f5760405162461bcd60e51b8152600401610d5390615815565b612443614a93565b602554610100900460ff16613d8e5760405162461bcd60e51b8152600401610d5390615815565b612443614ac3565b602554610100900460ff16613dbd5760405162461bcd60e51b8152600401610d5390615815565b612443614af1565b806001600160a01b038116613dec5760405162461bcd60e51b8152600401610d53906157de565b600054604080516001600160a01b03928316815291841660208301527ffd88adf2dc0ac6ee5960f2f4273f25017bab8b5efa8889b3cf085ce645c293b2910160405180910390a150600080546001600160a01b03199081166001600160a01b03938416179182905560198054929093169116179055565b806001600160a01b038116613e8a5760405162461bcd60e51b8152600401610d53906157de565b600154604080516001600160a01b03928316815291841660208301527f36a4c08a38b736dcecb6c328dba61238529620e83ccb23db2cc43cd34ec26096910160405180910390a150600180546001600160a01b03199081166001600160a01b039384161791829055601a8054929093169116179055565b806001600160a01b038116613f285760405162461bcd60e51b8152600401610d53906157de565b600254604080516001600160a01b03928316815291841660208301527fd86d51326f3c88ea5365fba597a57273ae555e44f4b11658da952320d0beaa75910160405180910390a16002546040516001600160a01b03909116907f90eabbc0c667db2a5029ed6bc0f5fe9f356d11684a4ca9fcfaec0e53f12b9c8e90600090a2600280546001600160a01b03908116600090815260126020526040808220805460ff1916905583546001600160a01b03199081168785161794859055601b8054959094169416841790925590517f86e57fd2b90329052917118de7c3f521f400d439b9650deaa906a25b08b945609190a250506002546001600160a01b03166000908152601260205260409020805460ff19166001179055565b806001600160a01b0381166140685760405162461bcd60e51b8152600401610d53906157de565b600354604080516001600160a01b03928316815291841660208301527f2f0c2c74338b8f7fb04dcfc964c9221eb054ec353c18b9617fe43566e453a23c910160405180910390a150600380546001600160a01b03199081166001600160a01b039384161791829055601c8054929093169116179055565b60055460408051918252602082018390527f65fb7af72786d428e2b4e9d3d2bd45fdd354f582ccccad2044967440b98e6d7b910160405180910390a16005819055601e55565b8061416c5760405162461bcd60e51b81526020600482015260176024820152764c6f636b6572733a20616d6f756e74206973207a65726f60481b6044820152606401610d53565b60065460408051918252602082018390527f063267aa94de35dcf03acb07931ff2a6eae1ac1ee0be20797c9a6d3b52abf47b910160405180910390a16006819055601f55565b60095481116141fb5760405162461bcd60e51b81526020600482015260156024820152742637b1b5b2b9399d1036bab9ba1021a9101f10262960591b6044820152606401610d53565b60085460408051918252602082018390527f1e29d1b5c8926360f3ac632d884775772b07f31fec4077d433e58ce823f91347910160405180910390a16008819055602155565b6127108110156142935760405162461bcd60e51b815260206004820152601d60248201527f4c6f636b6572733a2070726f626c656d20696e20435220616e64204c520000006044820152606401610d53565b80600854116142dc5760405162461bcd60e51b81526020600482015260156024820152742637b1b5b2b9399d1036bab9ba1021a9101f10262960591b6044820152606401610d53565b60095460408051918252602082018390527f883242c2a857ca527a432dfca231b1e49233fde2a96802809a0f3866e9f19e13910160405180910390a16009819055602255565b6127108111156143745760405162461bcd60e51b815260206004820152601b60248201527f4c6f636b6572733a20696e76616c6964206c6f636b65722066656500000000006044820152606401610d53565b60075460408051918252602082018390527f44c6802691f6adea249930369a511db979a5e9a3603bdb37ceee1036da80e980910160405180910390a16007819055602055565b61271081111561440c5760405162461bcd60e51b815260206004820152601760248201527f4c6f636b6572733a206c657373207468616e20313030250000000000000000006044820152606401610d53565b600a5460408051918252602082018390527f5e4dd01049cdfe5a081b404bff8e27de919fd9c8ae2145007e0921ec227f207a910160405180910390a1600a819055602355565b61445a614b24565b60bc805460ff191690557f5db9ee0a495bf2e6ff9c91a7834c1ba4fdd244a5e8aa4e537bd38aeae4b073aa335b6040516001600160a01b03909116815260200160405180910390a1565b6040516001600160a01b038085166024830152831660448201526064810182905261450f9085906323b872dd60e01b906084015b60408051601f198184030181529190526020810180516001600160e01b03166001600160e01b031990931692909217909152614b6d565b50505050565b6040516001600160a01b038316602482015260448101829052613c8290849063a9059cbb60e01b906064016144d8565b61454d613959565b60bc805460ff191660011790557f62e78cea01bee320cd4e420270b5ea74000d11b0c9f74754ebdbfc544b05a2586144873390565b605880546001600160a01b038381166001600160a01b0319831681179093556040519116919082907f8be0079c531659141344cd1fd0a4f28419497f9722a3daafe3b4186f6b6457e090600090a35050565b6001600160a01b0381166000908152600d602052604090206008015460ff166146345760405162461bcd60e51b81526020600482015260126024820152712637b1b5b2b9399d103737903637b1b5b2b960711b6044820152606401610d53565b61463d81612456565b156146825760405162461bcd60e51b81526020600482015260156024820152744c6f636b6572733a207374696c6c2061637469766560581b6044820152606401610d53565b6001600160a01b0381166000908152600d6020526040902060050154156146e35760405162461bcd60e51b8152602060048201526015602482015274131bd8dad95c9cce880c081b995d081b5a5b9d1959605a1b6044820152606401610d53565b6001600160a01b0381166000908152600d60205260409020600601541561474c5760405162461bcd60e51b815260206004820152601860248201527f4c6f636b6572733a203020736c617368696e67205442544300000000000000006044820152606401610d53565b6001600160a01b0381166000908152600d60205260408082208151610160810190925280548290829061477e90615b24565b80601f01602080910402602001604051908101604052809291908181526020018280546147aa90615b24565b80156147f75780601f106147cc576101008083540402835291602001916147f7565b820191906000526020600020905b8154815290600101906020018083116147da57829003601f168201915b5050509183525050600182015460209091019060ff16600481111561482c57634e487b7160e01b600052602160045260246000fd5b600481111561484b57634e487b7160e01b600052602160045260246000fd5b815260200160028201805461485f90615b24565b80601f016020809104026020016040519081016040528092919081815260200182805461488b90615b24565b80156148d85780601f106148ad576101008083540402835291602001916148d8565b820191906000526020600020905b8154815290600101906020018083116148bb57829003601f168201915b5050509183525050600382015460208083019190915260048301546040808401919091526005840154606084015260068401546080840152600784015460a084015260089093015460ff808216151560c08501526101008083048216151560e0860152620100009092041615159201919091526001600160a01b0385166000908152600d90915281902090519192506010916149749190615478565b908152604080516020928190038301902080546001600160a01b03191690556001600160a01b0384166000908152600d9092528120906149b48282614db7565b60018201805460ff191690556149ce600283016000614db7565b506000600382018190556004820181905560058201819055600682018190556007820155600801805462ffffff19169055600c54614a0e90600190615ae1565b600c556060810151600054614a30916001600160a01b03909116908490614515565b614a3e828260800151613b69565b816001600160a01b03167f628f3d67160bc1a892a1779c6475e128010a54df63af5dcdbf3c7b06ca5dfa97826000015183606001518460800151604051614a87939291906155a0565b60405180910390a25050565b602554610100900460ff16614aba5760405162461bcd60e51b8152600401610d5390615815565b61244333614582565b602554610100900460ff16614aea5760405162461bcd60e51b8152600401610d5390615815565b6001608a55565b602554610100900460ff16614b185760405162461bcd60e51b8152600401610d5390615815565b60bc805460ff19169055565b60bc5460ff166124435760405162461bcd60e51b815260206004820152601460248201527314185d5cd8589b194e881b9bdd081c185d5cd95960621b6044820152606401610d53565b6000614bc2826040518060400160405280602081526020017f5361666545524332303a206c6f772d6c6576656c2063616c6c206661696c6564815250856001600160a01b0316614c3f9092919063ffffffff16565b805190915015613c825780806020019051810190614be09190614fdd565b613c825760405162461bcd60e51b815260206004820152602a60248201527f5361666545524332303a204552433230206f7065726174696f6e20646964206e6044820152691bdd081cdd58d8d9595960b21b6064820152608401610d53565b6060614c4e8484600085614c56565b949350505050565b606082471015614cb75760405162461bcd60e51b815260206004820152602660248201527f416464726573733a20696e73756666696369656e742062616c616e636520666f6044820152651c8818d85b1b60d21b6064820152608401610d53565b843b614d055760405162461bcd60e51b815260206004820152601d60248201527f416464726573733a2063616c6c20746f206e6f6e2d636f6e74726163740000006044820152606401610d53565b600080866001600160a01b03168587604051614d21919061545c565b60006040518083038185875af1925050503d8060008114614d5e576040519150601f19603f3d011682016040523d82523d6000602084013e614d63565b606091505b5091509150614d73828286614d7e565b979650505050505050565b60608315614d8d5750816133c9565b825115614d9d5782518084602001fd5b8160405162461bcd60e51b8152600401610d53919061550e565b508054614dc390615b24565b6000825580601f10614dd55750612430565b601f01602090049060005260206000209081019061243091905b80821115614e035760008155600101614def565b5090565b80356001600160a01b0381168114613d3357600080fd5b60008083601f840112614e2f578081fd5b50813567ffffffffffffffff811115614e46578182fd5b602083019150836020828501011115614e5e57600080fd5b9250929050565b600060208284031215614e76578081fd5b6133c982614e07565b60008060008060008060008060008060006101608c8e031215614ea0578687fd5b614ea98c614e07565b9a50614eb760208d01614e07565b9950614ec560408d01614e07565b9850614ed360608d01614e07565b9750614ee160808d01614e07565b9a9d999c50979a96999860a0880135985060c08801359760e081013597506101008101359650610120810135955061014001359350915050565b60008060408385031215614f2d578182fd5b614f3683614e07565b946020939093013593505050565b60008060008060808587031215614f59578384fd5b614f6285614e07565b935060208501359250614f7760408601614e07565b9396929550929360600135925050565b600080600080600060a08688031215614f9e578081fd5b614fa786614e07565b945060208601359350614fbc60408701614e07565b925060608601359150614fd160808701614e07565b90509295509295909350565b600060208284031215614fee578081fd5b815180151581146133c9578182fd5b6000806020838503121561500f578182fd5b823567ffffffffffffffff811115615025578283fd5b61503185828601614e1e565b90969095509350505050565b60008060008060608587031215615052578384fd5b843567ffffffffffffffff811115615068578485fd5b61507487828801614e1e565b9095509350615087905060208601614e07565b9396929550929360400135925050565b6000806000604084860312156150ab578283fd5b833567ffffffffffffffff8111156150c1578384fd5b6150cd86828701614e1e565b909790965060209590950135949350505050565b600080600080600080600060a0888a0312156150fb578283fd5b873567ffffffffffffffff80821115615112578485fd5b61511e8b838c01614e1e565b909950975060208a0135965060408a0135955060608a0135915060058210615144578485fd5b90935060808901359080821115615159578384fd5b506151668a828b01614e1e565b989b979a50959850939692959293505050565b60006020828403121561518a578081fd5b813567ffffffffffffffff808211156151a1578283fd5b818401915084601f8301126151b4578283fd5b8135818111156151c6576151c6615b6f565b604051601f8201601f19908116603f011681019083821181831017156151ee576151ee615b6f565b81604052828152876020848701011115615206578586fd5b826020860160208301379182016020019490945295945050505050565b600060208284031215615234578081fd5b5035919050565b60006020828403121561524c578081fd5b5051919050565b60008060408385031215615265578182fd5b505080516020909101519092909150565b60008284528282602086013780602084860101526020601f19601f85011685010190509392505050565b600081518084526152b8816020860160208601615af8565b601f01601f19169290920160200192915050565b600081546152d981615b24565b8085526020600183811680156152f6576001811461530a57615338565b60ff19851688840152604088019550615338565b866000528260002060005b858110156153305781548a8201860152908301908401615315565b890184019650505b505050505092915050565b6005811061536157634e487b7160e01b600052602160045260246000fd5b9052565b8054825260018101546020830152600281015460408301526003810154606083015260048101546080830152600501546001600160a01b031660a090910152565b6153c8826153bb83546001600160a01b031690565b6001600160a01b03169052565b60018101546001600160a01b0390811660208401526002820154811660408401526003820154811660608401526004820154166080830152600581015460a0830152600681015460c0830152600781015460e083015260088101546101008301526009810154610120830152600a810154610140830152600b015461016090910152565b6000828483379101908152919050565b6000825161546e818460208701615af8565b9190910192915050565b600080835461548681615b24565b6001828116801561549e57600181146154af576154db565b60ff198416875282870194506154db565b8786526020808720875b858110156154d25781548a8201529084019082016154b9565b50505082870194505b50929695505050505050565b6000606082526154fb606083018688615276565b6020830194909452506040015292915050565b6000602082526133c960208301846152a0565b60006101608083526155358184018f6152a0565b9050615544602084018e615343565b8281036040840152615556818d6152a0565b606084019b909b525050608081019790975260a087019590955260c086019390935260e0850191909152151561010084015215156101208301521515610140909101529392505050565b6000606082526155b360608301866152a0565b60208301949094525060400152919050565b6000606082526155b360608301866152cc565b6000608082526155eb60808301876152cc565b6020830195909552506040810192909252606090910152919050565b600089825260c0602083015261562160c08301898b615276565b87604084015286606084015261563a6080840187615343565b82810360a084015261564d818587615276565b9b9a5050505050505050505050565b858152610200810161567160208301876153a6565b6001600160a01b03949094166101a08201526101c08101929092526101e09091015292915050565b60208082526023908201527f4c6f636b6572733a206163636f756e7420646f6573206e6f74206861766520726040820152626f6c6560e81b606082015260800190565b60208082526025908201527f4c6f636b6572733a206d6573736167652073656e646572206973206e6f74206360408201526431a13ab93760d91b606082015260800190565b60208082526021908201527f4c6f636b6572733a206163636f756e7420616c72656164792068617320726f6c6040820152606560f81b606082015260800190565b6020808252602c908201527f4c6f636b6572733a20696e7075742061646472657373206973206e6f7420612060408201526b3b30b634b2103637b1b5b2b960a11b606082015260800190565b6020808252601690820152754c6f636b6572733a2076616c7565206973207a65726f60501b604082015260600190565b60208082526018908201527f4c6f636b6572733a2061646472657373206973207a65726f0000000000000000604082015260600190565b6020808252602b908201527f496e697469616c697a61626c653a20636f6e7472616374206973206e6f74206960408201526a6e697469616c697a696e6760a81b606082015260800190565b6020808252601f908201527f5265656e7472616e637947756172643a207265656e7472616e742063616c6c00604082015260600190565b83815261026081016158ac6020830185615365565b614c4e60e08301846153a6565b84815261028081016158ce6020830186615365565b6158db60e08301856153a6565b8261026083015295945050505050565b8581526102a081016159006020830187615365565b61590d60e08301866153a6565b61026082019390935261028001529392505050565b61024081016159318285615365565b6133c960c08301846153a6565b60008582526080602083015261595760808301866152a0565b6159646040840186615343565b8281036060840152614d7381856152a0565b6000821982111561598957615989615b59565b500190565b6000826159a957634e487b7160e01b81526012600452602481fd5b500490565b80825b60018086116159c057506159eb565b8187048211156159d2576159d2615b59565b808616156159df57918102915b9490941c9380026159b1565b94509492505050565b60006133c96000198484600082615a0d575060016133c9565b81615a1a575060006133c9565b8160018114615a305760028114615a3a57615a67565b60019150506133c9565b60ff841115615a4b57615a4b615b59565b6001841b915084821115615a6157615a61615b59565b506133c9565b5060208310610133831016604e8410600b8410161715615a9a575081810a83811115615a9557615a95615b59565b6133c9565b615aa784848460016159ae565b808604821115615ab957615ab9615b59565b02949350505050565b6000816000190483118215151615615adc57615adc615b59565b500290565b600082821015615af357615af3615b59565b500390565b60005b83811015615b13578181015183820152602001615afb565b8381111561450f5750506000910152565b600281046001821680615b3857607f821691505b60208210811415611b7057634e487b7160e01b600052602260045260246000fd5b634e487b7160e01b600052601160045260246000fd5b634e487b7160e01b600052604160045260246000fdfea26469706673582212209b6d672cd871b6cc8db520e842ffd690681493595d2351331885665784b360a164736f6c63430008020033",
  "libraries": {
    "LockersLib": "0x879293B162aC3Ea64F4185747838662e8164d900"
  },
  "devdoc": {
    "kind": "dev",
    "methods": {
      "addBurner(address)": {
        "details": "Give an account access to burn."
      },
      "addCollateral(address,uint256)": {
        "params": {
          "_addingNativeTokenAmount": "Amount of added collateral",
          "_lockerTargetAddress": "Locker's target chain address"
        },
        "returns": {
          "_0": "True if collateral is added successfully"
        }
      },
      "addLocker(address)": {
        "details": "Only owner can call this                                       When a candidate becomes locker, isCandidate is set to false",
        "params": {
          "_lockerTargetAddress": "Locker's target chain address"
        },
        "returns": {
          "_0": "True if candidate is added successfully"
        }
      },
      "addMinter(address)": {
        "details": "Give an account access to mint."
      },
      "burn(bytes,uint256)": {
        "details": "Burn teleBTC and also get the locker's fee",
        "params": {
          "_amount": "Amount of the teleBTC which is minted, including the locker's fee",
          "_lockerLockingScript": "Locking script of a locker"
        },
        "returns": {
          "_0": "uint                  The amount of teleBTC burnt"
        }
      },
      "buySlashedCollateralOfLocker(address,uint256)": {
        "details": "Users buy the slashed collateral using TeleBTC with discount                                   The paid TeleBTC will be burnt to keep the system safe                                   If all the needed TeleBTC is collected and burnt,                                   the rest of slashed collateral is sent back to locker ",
        "params": {
          "_collateralAmount": "Amount of collateral (TNT) that someone intends to buy with discount",
          "_lockerTargetAddress": "Locker's target chain address"
        },
        "returns": {
          "_0": "True if buying was successful"
        }
      },
      "getLockerCapacity(address)": {
        "details": "Net minted amount is total minted minus total burnt for the locker",
        "params": {
          "_lockerTargetAddress": "Address of locker on the target chain"
        },
        "returns": {
          "_0": "The net minted of the locker"
        }
      },
      "getLockerLockingScript(address)": {
        "params": {
          "_lockerTargetAddress": "Address of locker on the target chain"
        },
        "returns": {
          "_0": "Bitcoin public key of locker"
        }
      },
      "getNumberOfLockers()": {
        "returns": {
          "_0": "Number of lockers"
        }
      },
      "isBurner(address)": {
        "params": {
          "account": "The account which intended to be checked"
        },
        "returns": {
          "_0": "bool"
        }
      },
      "isLocker(bytes)": {
        "params": {
          "_lockerLockingScript": "Locking script of locker on the target chain"
        },
        "returns": {
          "_0": "True if a locking script is locker"
        }
      },
      "isLockerActive(address)": {
        "details": "We check a locker status in below cases:                                     1. Minting TeleBTC                                     2. Removing locker's collateral                                     3. Removing locker ",
        "params": {
          "_lockerTargetAddress": "Address of locker on the target chain"
        },
        "returns": {
          "_0": "True if the locker is active"
        }
      },
      "isMinter(address)": {
        "params": {
          "account": "The account which intended to be checked"
        },
        "returns": {
          "_0": "bool"
        }
      },
      "liquidateLocker(address,uint256)": {
        "details": "Anyone can liquidate a locker whose health factor                                   is less than 10000 (100%) by providing a sufficient amount of teleBTC",
        "params": {
          "_collateralAmount": "Amount of collateral (TNT) that someone intends to buy with discount",
          "_lockerTargetAddress": "Locker's target chain address"
        },
        "returns": {
          "_0": "True if liquidation was successful"
        }
      },
      "mint(bytes,address,uint256)": {
        "details": "Mint teleBTC for an account and the locker fee as well",
        "params": {
          "_amount": "Amount of the teleBTC which is minted, including the locker's fee",
          "_lockerLockingScript": "Locking script of a locker",
          "_receiver": "Address of the receiver of the minted teleBTCs"
        },
        "returns": {
          "_0": "uint                  The amount of teleBTC minted for the receiver"
        }
      },
      "owner()": {
        "details": "Returns the address of the current owner."
      },
      "pauseLocker()": {
        "details": "Only owner can pause "
      },
      "paused()": {
        "details": "Returns true if the contract is paused, and false otherwise."
      },
      "priceOfOneUnitOfCollateralInBTC()": {
        "details": "Returns the price of one native token (1*10^18) in teleBTC",
        "returns": {
          "_0": "uint The price of one unit of collateral token (native token in teleBTC)"
        }
      },
      "removeBurner(address)": {
        "details": "Remove an account's access to burn."
      },
      "removeCollateral(uint256)": {
        "params": {
          "_removingNativeTokenAmount": "Amount of removed collateral"
        },
        "returns": {
          "_0": "True if collateral is removed successfully"
        }
      },
      "removeMinter(address)": {
        "details": "Remove an account's access to mint."
      },
      "renounceOwnership()": {
        "details": "Leaves the contract without owner. It will not be possible to call `onlyOwner` functions anymore. Can only be called by the current owner. NOTE: Renouncing ownership will leave the contract without an owner, thereby removing any functionality that is only available to the owner."
      },
      "requestActivation()": {
        "details": "Activates the locker so users can mint by this locker                        note: lockerInactivationTimestamp == 0 means that the locker is active",
        "returns": {
          "_0": "True if activated successfully"
        }
      },
      "requestInactivation()": {
        "details": "Deactivates the locker so that no one can mint by this locker:                        1. Locker can be removed after inactivation                        2. Locker can withdraw extra collateral after inactivation",
        "returns": {
          "_0": "True if deactivated successfully"
        }
      },
      "requestToBecomeLocker(bytes,uint256,uint256,uint8,bytes)": {
        "details": "Users mint TeleBTC by sending BTC to locker's locking script                                         In case of liqudation of locker's bond, the burn TeleBTC is sent to                                         locker's rescue script                                         A user should lock enough TDT and TNT to become candidate",
        "params": {
          "_candidateLockingScript": "Locking script of the candidate",
          "_lockedNativeTokenAmount": "Bond amount of locker in native token of the target chain",
          "_lockedTDTAmount": "Bond amount of locker in TDT",
          "_lockerRescueScript": "Rescue script of the locker",
          "_lockerRescueType": "Type of locker's rescue script (e.g. P2SH)"
        },
        "returns": {
          "_0": "True if candidate is added successfully"
        }
      },
      "revokeRequest()": {
        "details": "A user who is still a candidate can revoke his/her request",
        "returns": {
          "_0": "True if candidate is removed successfully"
        }
      },
      "selfRemoveLocker()": {
        "details": "Only locker can call this function",
        "returns": {
          "_0": "True if locker is removed successfully"
        }
      },
      "setCCBurnRouter(address)": {
        "details": "Only current owner can call this",
        "params": {
          "_ccBurnRouter": "The new cc burn router contract address"
        }
      },
      "setCollateralRatio(uint256)": {
        "details": "Only owner can call this",
        "params": {
          "_collateralRatio": "The new collateral ratio"
        }
      },
      "setExchangeConnector(address)": {
        "details": "Only owner can call this",
        "params": {
          "_exchangeConnector": "The new exchange router contract address"
        }
      },
      "setLiquidationRatio(uint256)": {
        "details": "Only owner can call this",
        "params": {
          "_liquidationRatio": "The new liquidation ratio"
        }
      },
      "setLockerPercentageFee(uint256)": {
        "details": "Only current owner can call this",
        "params": {
          "_lockerPercentageFee": "The new locker percentage fee"
        }
      },
      "setMinRequiredTDTLockedAmount(uint256)": {
        "details": "Only current owner can call this",
        "params": {
          "_minRequiredTDTLockedAmount": "The new required TDT token bond amount"
        }
      },
      "setMinRequiredTNTLockedAmount(uint256)": {
        "details": "Only current owner can call this                 It should be a non-zero value",
        "params": {
          "_minRequiredTNTLockedAmount": "The new required native token bond amount"
        }
      },
      "setPriceOracle(address)": {
        "details": "Only current owner can call this",
        "params": {
          "_priceOracle": "The new price oracle"
        }
      },
      "setPriceWithDiscountRatio(uint256)": {
        "details": "Only current owner can call this",
        "params": {
          "_priceWithDiscountRatio": "The new price with discount ratioo"
        }
      },
      "setTeleBTC(address)": {
        "details": "Only owner can call this",
        "params": {
          "_teleBTC": "The new wrapped token contract address"
        }
      },
      "setTeleportDAOToken(address)": {
        "details": "Only current owner can call this",
        "params": {
          "_tdtTokenAddress": "The new teleportDAO token address"
        }
      },
      "slashIdleLocker(address,uint256,address,uint256,address)": {
        "details": "Only cc burn router can call this                                   Locker is slashed since doesn't provide burn proof                                   before a cc burn request deadline.                                   User who made the cc burn request will receive the slashed bond",
        "params": {
          "_amount": "Amount of TeleBTC that is slashed from lockers",
          "_lockerTargetAddress": "Locker's target chain address",
          "_recipient": "Address of user who receives the slashed amount",
          "_rewardAmount": "Amount of TeleBTC that slasher receives",
          "_rewardRecipient": "Address of slasher who receives reward"
        },
        "returns": {
          "_0": "True if the locker is slashed successfully"
        }
      },
      "slashThiefLocker(address,uint256,address,uint256)": {
        "details": "Only cc burn router can call this                                   Locker is slashed because he/she moved BTC from                                    locker's Bitcoin address without any corresponding burn req                                   The slashed bond will be sold with discount",
        "params": {
          "_amount": "Value of slashed collateral (in TeleBTC)",
          "_lockerTargetAddress": "Locker's target chain address",
          "_rewardAmount": "Value of slashed reward (in TeleBTC)",
          "_rewardRecipient": "Address of slasher who receives reward"
        },
        "returns": {
          "_0": "True if the locker is slashed successfully"
        }
      },
      "transferOwnership(address)": {
        "details": "Transfers ownership of the contract to a new account (`newOwner`). Can only be called by the current owner."
      },
      "unPauseLocker()": {
        "details": "Only owner can pause"
      }
    },
    "version": 1
  },
  "userdoc": {
    "kind": "user",
    "methods": {
      "addCollateral(address,uint256)": {
        "notice": "Increases TNT collateral of the locker"
      },
      "addLocker(address)": {
        "notice": "Approves a candidate request to become locker"
      },
      "burn(bytes,uint256)": {
        "notice": "Burn teleBTC of an account"
      },
      "buySlashedCollateralOfLocker(address,uint256)": {
        "notice": "Sells lockers slashed collateral"
      },
      "getLockerCapacity(address)": {
        "notice": "Get how much the locker can mint"
      },
      "getLockerLockingScript(address)": {
        "notice": "Give Bitcoin public key of locker"
      },
      "getNumberOfLockers()": {
        "notice": "Give number of lockers"
      },
      "isBurner(address)": {
        "notice": "Check if an account is burner    "
      },
      "isLocker(bytes)": {
        "notice": "Checks whether a locking script is locker"
      },
      "isLockerActive(address)": {
        "notice": "Returns the Locker status"
      },
      "isMinter(address)": {
        "notice": "Check if an account is minter    "
      },
      "liquidateLocker(address,uint256)": {
        "notice": "Liquidates the locker whose collateral is unhealthy"
      },
      "mint(bytes,address,uint256)": {
        "notice": "Mint teleBTC for an account"
      },
      "pauseLocker()": {
        "notice": "Pause the locker, so only the functions can be called which are whenPaused"
      },
      "removeCollateral(uint256)": {
        "notice": "Decreases TNT collateral of the locker"
      },
      "requestActivation()": {
        "notice": "Requests to activate a locker"
      },
      "requestInactivation()": {
        "notice": "Requests to inactivate a locker"
      },
      "requestToBecomeLocker(bytes,uint256,uint256,uint8,bytes)": {
        "notice": "Adds user to candidates list"
      },
      "revokeRequest()": {
        "notice": "Removes a candidate from candidates list"
      },
      "selfRemoveLocker()": {
        "notice": "Removes a locker from lockers list"
      },
      "setCCBurnRouter(address)": {
        "notice": "Changes cc burn router contract"
      },
      "setCollateralRatio(uint256)": {
        "notice": "Changes collateral ratio"
      },
      "setExchangeConnector(address)": {
        "notice": "Changes exchange connector contract address"
      },
      "setLiquidationRatio(uint256)": {
        "notice": "Changes liquidation ratio"
      },
      "setLockerPercentageFee(uint256)": {
        "notice": "Changes percentage fee of locker"
      },
      "setMinRequiredTDTLockedAmount(uint256)": {
        "notice": "Changes the required TDT token bond amount to become locker"
      },
      "setMinRequiredTNTLockedAmount(uint256)": {
        "notice": "Changes the required native token bond amount to become locker"
      },
      "setPriceOracle(address)": {
        "notice": "Changes the price oracle"
      },
      "setPriceWithDiscountRatio(uint256)": {
        "notice": "Changes price with discount ratio"
      },
      "setTeleBTC(address)": {
        "notice": "Changes wrapped token contract address"
      },
      "setTeleportDAOToken(address)": {
        "notice": "Changes teleportDAO token in lockers "
      },
      "slashIdleLocker(address,uint256,address,uint256,address)": {
        "notice": "Slashes lockers for not executing a cc burn req"
      },
      "slashThiefLocker(address,uint256,address,uint256)": {
        "notice": "Slashes lockers for moving BTC without a good reason"
      },
      "unPauseLocker()": {
        "notice": "Un-pause the locker, so only the functions can be called which are whenNotPaused"
      }
    },
    "version": 1
  },
  "storageLayout": {
    "storage": [
      {
        "astId": 12359,
        "contract": "contracts/lockers/LockersLogic.sol:LockersLogic",
        "label": "TeleportDAOToken",
        "offset": 0,
        "slot": "0",
        "type": "t_address"
      },
      {
        "astId": 12362,
        "contract": "contracts/lockers/LockersLogic.sol:LockersLogic",
        "label": "teleBTC",
        "offset": 0,
        "slot": "1",
        "type": "t_address"
      },
      {
        "astId": 12365,
        "contract": "contracts/lockers/LockersLogic.sol:LockersLogic",
        "label": "ccBurnRouter",
        "offset": 0,
        "slot": "2",
        "type": "t_address"
      },
      {
        "astId": 12368,
        "contract": "contracts/lockers/LockersLogic.sol:LockersLogic",
        "label": "exchangeConnector",
        "offset": 0,
        "slot": "3",
        "type": "t_address"
      },
      {
        "astId": 12371,
        "contract": "contracts/lockers/LockersLogic.sol:LockersLogic",
        "label": "priceOracle",
        "offset": 0,
        "slot": "4",
        "type": "t_address"
      },
      {
        "astId": 12374,
        "contract": "contracts/lockers/LockersLogic.sol:LockersLogic",
        "label": "minRequiredTDTLockedAmount",
        "offset": 0,
        "slot": "5",
        "type": "t_uint256"
      },
      {
        "astId": 12377,
        "contract": "contracts/lockers/LockersLogic.sol:LockersLogic",
        "label": "minRequiredTNTLockedAmount",
        "offset": 0,
        "slot": "6",
        "type": "t_uint256"
      },
      {
        "astId": 12380,
        "contract": "contracts/lockers/LockersLogic.sol:LockersLogic",
        "label": "lockerPercentageFee",
        "offset": 0,
        "slot": "7",
        "type": "t_uint256"
      },
      {
        "astId": 12383,
        "contract": "contracts/lockers/LockersLogic.sol:LockersLogic",
        "label": "collateralRatio",
        "offset": 0,
        "slot": "8",
        "type": "t_uint256"
      },
      {
        "astId": 12386,
        "contract": "contracts/lockers/LockersLogic.sol:LockersLogic",
        "label": "liquidationRatio",
        "offset": 0,
        "slot": "9",
        "type": "t_uint256"
      },
      {
        "astId": 12389,
        "contract": "contracts/lockers/LockersLogic.sol:LockersLogic",
        "label": "priceWithDiscountRatio",
        "offset": 0,
        "slot": "10",
        "type": "t_uint256"
      },
      {
        "astId": 12392,
        "contract": "contracts/lockers/LockersLogic.sol:LockersLogic",
        "label": "totalNumberOfCandidates",
        "offset": 0,
        "slot": "11",
        "type": "t_uint256"
      },
      {
        "astId": 12395,
        "contract": "contracts/lockers/LockersLogic.sol:LockersLogic",
        "label": "totalNumberOfLockers",
        "offset": 0,
        "slot": "12",
        "type": "t_uint256"
      },
      {
        "astId": 12400,
        "contract": "contracts/lockers/LockersLogic.sol:LockersLogic",
        "label": "lockersMapping",
        "offset": 0,
        "slot": "13",
        "type": "t_mapping(t_address,t_struct(locker)24292_storage)"
      },
      {
        "astId": 12404,
        "contract": "contracts/lockers/LockersLogic.sol:LockersLogic",
        "label": "lockerInactivationTimestamp",
        "offset": 0,
        "slot": "14",
        "type": "t_mapping(t_address,t_uint256)"
      },
      {
        "astId": 12408,
        "contract": "contracts/lockers/LockersLogic.sol:LockersLogic",
        "label": "lockerLeavingAcceptance",
        "offset": 0,
        "slot": "15",
        "type": "t_mapping(t_address,t_bool)"
      },
      {
        "astId": 12412,
        "contract": "contracts/lockers/LockersLogic.sol:LockersLogic",
        "label": "lockerTargetAddress",
        "offset": 0,
        "slot": "16",
        "type": "t_mapping(t_bytes_memory_ptr,t_address)"
      },
      {
        "astId": 12416,
        "contract": "contracts/lockers/LockersLogic.sol:LockersLogic",
        "label": "minters",
        "offset": 0,
        "slot": "17",
        "type": "t_mapping(t_address,t_bool)"
      },
      {
        "astId": 12420,
        "contract": "contracts/lockers/LockersLogic.sol:LockersLogic",
        "label": "burners",
        "offset": 0,
        "slot": "18",
        "type": "t_mapping(t_address,t_bool)"
      },
      {
        "astId": 12423,
        "contract": "contracts/lockers/LockersLogic.sol:LockersLogic",
        "label": "libConstants",
        "offset": 0,
        "slot": "19",
        "type": "t_struct(lockersLibConstants)24305_storage"
      },
      {
        "astId": 12426,
        "contract": "contracts/lockers/LockersLogic.sol:LockersLogic",
        "label": "libParams",
        "offset": 0,
        "slot": "25",
        "type": "t_struct(lockersLibParam)24330_storage"
      },
      {
        "astId": 184,
        "contract": "contracts/lockers/LockersLogic.sol:LockersLogic",
        "label": "_initialized",
        "offset": 0,
        "slot": "37",
        "type": "t_uint8"
      },
      {
        "astId": 187,
        "contract": "contracts/lockers/LockersLogic.sol:LockersLogic",
        "label": "_initializing",
        "offset": 1,
        "slot": "37",
        "type": "t_bool"
      },
      {
        "astId": 798,
        "contract": "contracts/lockers/LockersLogic.sol:LockersLogic",
        "label": "__gap",
        "offset": 0,
        "slot": "38",
        "type": "t_array(t_uint256)50_storage"
      },
      {
        "astId": 56,
        "contract": "contracts/lockers/LockersLogic.sol:LockersLogic",
        "label": "_owner",
        "offset": 0,
        "slot": "88",
        "type": "t_address"
      },
      {
        "astId": 176,
        "contract": "contracts/lockers/LockersLogic.sol:LockersLogic",
        "label": "__gap",
        "offset": 0,
        "slot": "89",
        "type": "t_array(t_uint256)49_storage"
      },
      {
        "astId": 469,
        "contract": "contracts/lockers/LockersLogic.sol:LockersLogic",
        "label": "_status",
        "offset": 0,
        "slot": "138",
        "type": "t_uint256"
      },
      {
        "astId": 513,
        "contract": "contracts/lockers/LockersLogic.sol:LockersLogic",
        "label": "__gap",
        "offset": 0,
        "slot": "139",
        "type": "t_array(t_uint256)49_storage"
      },
      {
        "astId": 349,
        "contract": "contracts/lockers/LockersLogic.sol:LockersLogic",
        "label": "_paused",
        "offset": 0,
        "slot": "188",
        "type": "t_bool"
      },
      {
        "astId": 454,
        "contract": "contracts/lockers/LockersLogic.sol:LockersLogic",
        "label": "__gap",
        "offset": 0,
        "slot": "189",
        "type": "t_array(t_uint256)49_storage"
      }
    ],
    "types": {
      "t_address": {
        "encoding": "inplace",
        "label": "address",
        "numberOfBytes": "20"
      },
      "t_array(t_uint256)49_storage": {
        "base": "t_uint256",
        "encoding": "inplace",
        "label": "uint256[49]",
        "numberOfBytes": "1568"
      },
      "t_array(t_uint256)50_storage": {
        "base": "t_uint256",
        "encoding": "inplace",
        "label": "uint256[50]",
        "numberOfBytes": "1600"
      },
      "t_bool": {
        "encoding": "inplace",
        "label": "bool",
        "numberOfBytes": "1"
      },
      "t_bytes_memory_ptr": {
        "encoding": "bytes",
        "label": "bytes",
        "numberOfBytes": "32"
      },
      "t_bytes_storage": {
        "encoding": "bytes",
        "label": "bytes",
        "numberOfBytes": "32"
      },
      "t_enum(ScriptTypes)24339": {
        "encoding": "inplace",
        "label": "enum ScriptTypes",
        "numberOfBytes": "1"
      },
      "t_mapping(t_address,t_bool)": {
        "encoding": "mapping",
        "key": "t_address",
        "label": "mapping(address => bool)",
        "numberOfBytes": "32",
        "value": "t_bool"
      },
      "t_mapping(t_address,t_struct(locker)24292_storage)": {
        "encoding": "mapping",
        "key": "t_address",
        "label": "mapping(address => struct DataTypes.locker)",
        "numberOfBytes": "32",
        "value": "t_struct(locker)24292_storage"
      },
      "t_mapping(t_address,t_uint256)": {
        "encoding": "mapping",
        "key": "t_address",
        "label": "mapping(address => uint256)",
        "numberOfBytes": "32",
        "value": "t_uint256"
      },
      "t_mapping(t_bytes_memory_ptr,t_address)": {
        "encoding": "mapping",
        "key": "t_bytes_memory_ptr",
        "label": "mapping(bytes => address)",
        "numberOfBytes": "32",
        "value": "t_address"
      },
      "t_struct(locker)24292_storage": {
        "encoding": "inplace",
        "label": "struct DataTypes.locker",
        "members": [
          {
            "astId": 24270,
            "contract": "contracts/lockers/LockersLogic.sol:LockersLogic",
            "label": "lockerLockingScript",
            "offset": 0,
            "slot": "0",
            "type": "t_bytes_storage"
          },
          {
            "astId": 24273,
            "contract": "contracts/lockers/LockersLogic.sol:LockersLogic",
            "label": "lockerRescueType",
            "offset": 0,
            "slot": "1",
            "type": "t_enum(ScriptTypes)24339"
          },
          {
            "astId": 24275,
            "contract": "contracts/lockers/LockersLogic.sol:LockersLogic",
            "label": "lockerRescueScript",
            "offset": 0,
            "slot": "2",
            "type": "t_bytes_storage"
          },
          {
            "astId": 24277,
            "contract": "contracts/lockers/LockersLogic.sol:LockersLogic",
            "label": "TDTLockedAmount",
            "offset": 0,
            "slot": "3",
            "type": "t_uint256"
          },
          {
            "astId": 24279,
            "contract": "contracts/lockers/LockersLogic.sol:LockersLogic",
            "label": "nativeTokenLockedAmount",
            "offset": 0,
            "slot": "4",
            "type": "t_uint256"
          },
          {
            "astId": 24281,
            "contract": "contracts/lockers/LockersLogic.sol:LockersLogic",
            "label": "netMinted",
            "offset": 0,
            "slot": "5",
            "type": "t_uint256"
          },
          {
            "astId": 24283,
            "contract": "contracts/lockers/LockersLogic.sol:LockersLogic",
            "label": "slashingTeleBTCAmount",
            "offset": 0,
            "slot": "6",
            "type": "t_uint256"
          },
          {
            "astId": 24285,
            "contract": "contracts/lockers/LockersLogic.sol:LockersLogic",
            "label": "reservedNativeTokenForSlash",
            "offset": 0,
            "slot": "7",
            "type": "t_uint256"
          },
          {
            "astId": 24287,
            "contract": "contracts/lockers/LockersLogic.sol:LockersLogic",
            "label": "isLocker",
            "offset": 0,
            "slot": "8",
            "type": "t_bool"
          },
          {
            "astId": 24289,
            "contract": "contracts/lockers/LockersLogic.sol:LockersLogic",
            "label": "isCandidate",
            "offset": 1,
            "slot": "8",
            "type": "t_bool"
          },
          {
            "astId": 24291,
            "contract": "contracts/lockers/LockersLogic.sol:LockersLogic",
            "label": "isScriptHash",
            "offset": 2,
            "slot": "8",
            "type": "t_bool"
          }
        ],
        "numberOfBytes": "288"
      },
      "t_struct(lockersLibConstants)24305_storage": {
        "encoding": "inplace",
        "label": "struct DataTypes.lockersLibConstants",
        "members": [
          {
            "astId": 24294,
            "contract": "contracts/lockers/LockersLogic.sol:LockersLogic",
            "label": "OneHundredPercent",
            "offset": 0,
            "slot": "0",
            "type": "t_uint256"
          },
          {
            "astId": 24296,
            "contract": "contracts/lockers/LockersLogic.sol:LockersLogic",
            "label": "HealthFactor",
            "offset": 0,
            "slot": "1",
            "type": "t_uint256"
          },
          {
            "astId": 24298,
            "contract": "contracts/lockers/LockersLogic.sol:LockersLogic",
            "label": "UpperHealthFactor",
            "offset": 0,
            "slot": "2",
            "type": "t_uint256"
          },
          {
            "astId": 24300,
            "contract": "contracts/lockers/LockersLogic.sol:LockersLogic",
            "label": "MaxLockerFee",
            "offset": 0,
            "slot": "3",
            "type": "t_uint256"
          },
          {
            "astId": 24302,
            "contract": "contracts/lockers/LockersLogic.sol:LockersLogic",
            "label": "NativeTokenDecimal",
            "offset": 0,
            "slot": "4",
            "type": "t_uint256"
          },
          {
            "astId": 24304,
            "contract": "contracts/lockers/LockersLogic.sol:LockersLogic",
            "label": "NativeToken",
            "offset": 0,
            "slot": "5",
            "type": "t_address"
          }
        ],
        "numberOfBytes": "192"
      },
      "t_struct(lockersLibParam)24330_storage": {
        "encoding": "inplace",
        "label": "struct DataTypes.lockersLibParam",
        "members": [
          {
            "astId": 24307,
            "contract": "contracts/lockers/LockersLogic.sol:LockersLogic",
            "label": "teleportDAOToken",
            "offset": 0,
            "slot": "0",
            "type": "t_address"
          },
          {
            "astId": 24309,
            "contract": "contracts/lockers/LockersLogic.sol:LockersLogic",
            "label": "teleBTC",
            "offset": 0,
            "slot": "1",
            "type": "t_address"
          },
          {
            "astId": 24311,
            "contract": "contracts/lockers/LockersLogic.sol:LockersLogic",
            "label": "ccBurnRouter",
            "offset": 0,
            "slot": "2",
            "type": "t_address"
          },
          {
            "astId": 24313,
            "contract": "contracts/lockers/LockersLogic.sol:LockersLogic",
            "label": "exchangeConnector",
            "offset": 0,
            "slot": "3",
            "type": "t_address"
          },
          {
            "astId": 24315,
            "contract": "contracts/lockers/LockersLogic.sol:LockersLogic",
            "label": "priceOracle",
            "offset": 0,
            "slot": "4",
            "type": "t_address"
          },
          {
            "astId": 24317,
            "contract": "contracts/lockers/LockersLogic.sol:LockersLogic",
            "label": "minRequiredTDTLockedAmount",
            "offset": 0,
            "slot": "5",
            "type": "t_uint256"
          },
          {
            "astId": 24319,
            "contract": "contracts/lockers/LockersLogic.sol:LockersLogic",
            "label": "minRequiredTNTLockedAmount",
            "offset": 0,
            "slot": "6",
            "type": "t_uint256"
          },
          {
            "astId": 24321,
            "contract": "contracts/lockers/LockersLogic.sol:LockersLogic",
            "label": "lockerPercentageFee",
            "offset": 0,
            "slot": "7",
            "type": "t_uint256"
          },
          {
            "astId": 24323,
            "contract": "contracts/lockers/LockersLogic.sol:LockersLogic",
            "label": "collateralRatio",
            "offset": 0,
            "slot": "8",
            "type": "t_uint256"
          },
          {
            "astId": 24325,
            "contract": "contracts/lockers/LockersLogic.sol:LockersLogic",
            "label": "liquidationRatio",
            "offset": 0,
            "slot": "9",
            "type": "t_uint256"
          },
          {
            "astId": 24327,
            "contract": "contracts/lockers/LockersLogic.sol:LockersLogic",
            "label": "priceWithDiscountRatio",
            "offset": 0,
            "slot": "10",
            "type": "t_uint256"
          },
          {
            "astId": 24329,
            "contract": "contracts/lockers/LockersLogic.sol:LockersLogic",
            "label": "inactivationDelay",
            "offset": 0,
            "slot": "11",
            "type": "t_uint256"
          }
        ],
        "numberOfBytes": "384"
      },
      "t_uint256": {
        "encoding": "inplace",
        "label": "uint256",
        "numberOfBytes": "32"
      },
      "t_uint8": {
        "encoding": "inplace",
        "label": "uint8",
        "numberOfBytes": "1"
      }
    }
  }
}