{
  "address": "0x5A7724eF4d630e2432aEBB3FBE6aB9fc34E4B2DB",
  "abi": [
    {
      "anonymous": false,
      "inputs": [
        {
          "indexed": true,
          "internalType": "address",
          "name": "lockerTargetAddress",
          "type": "address"
        },
        {
          "indexed": false,
          "internalType": "uint256",
          "name": "burntAmount",
          "type": "uint256"
        },
        {
          "indexed": false,
          "internalType": "uint256",
          "name": "lockerFee",
          "type": "uint256"
        },
        {
          "indexed": false,
          "internalType": "uint256",
          "name": "burningTime",
          "type": "uint256"
        }
      ],
      "name": "BurnByLocker",
      "type": "event"
    },
    {
      "anonymous": false,
      "inputs": [
        {
          "indexed": true,
          "internalType": "address",
          "name": "lockerTargetAddress",
          "type": "address"
        },
        {
          "indexed": false,
          "internalType": "uint256",
          "name": "addedCollateral",
          "type": "uint256"
        },
        {
          "indexed": false,
          "internalType": "uint256",
          "name": "totalCollateral",
          "type": "uint256"
        },
        {
          "indexed": false,
          "internalType": "uint256",
          "name": "addingTime",
          "type": "uint256"
        }
      ],
      "name": "CollateralAdded",
      "type": "event"
    },
    {
      "anonymous": false,
      "inputs": [
        {
          "indexed": true,
          "internalType": "address",
          "name": "lockerTargetAddress",
          "type": "address"
        },
        {
          "indexed": false,
          "internalType": "uint256",
          "name": "removedCollateral",
          "type": "uint256"
        },
        {
          "indexed": false,
          "internalType": "uint256",
          "name": "totalCollateral",
          "type": "uint256"
        },
        {
          "indexed": false,
          "internalType": "uint256",
          "name": "removingTime",
          "type": "uint256"
        }
      ],
      "name": "CollateralRemoved",
      "type": "event"
    },
    {
      "anonymous": false,
      "inputs": [
        {
          "indexed": false,
          "internalType": "uint8",
          "name": "version",
          "type": "uint8"
        }
      ],
      "name": "Initialized",
      "type": "event"
    },
    {
      "anonymous": false,
      "inputs": [
        {
          "indexed": true,
          "internalType": "address",
          "name": "lockerTargetAddress",
          "type": "address"
        },
        {
          "indexed": false,
          "internalType": "bytes",
          "name": "lockerLockingScript",
          "type": "bytes"
        },
        {
          "indexed": false,
          "internalType": "uint256",
          "name": "TDTLockedAmount",
          "type": "uint256"
        },
        {
          "indexed": false,
          "internalType": "uint256",
          "name": "nativeTokenLockedAmount",
          "type": "uint256"
        },
        {
          "indexed": false,
          "internalType": "uint256",
          "name": "addingTime",
          "type": "uint256"
        }
      ],
      "name": "LockerAdded",
      "type": "event"
    },
    {
      "anonymous": false,
      "inputs": [
        {
          "indexed": true,
          "internalType": "address",
          "name": "lockerTargetAddress",
          "type": "address"
        },
        {
          "indexed": false,
          "internalType": "address",
          "name": "liquidatorAddress",
          "type": "address"
        },
        {
          "indexed": false,
          "internalType": "uint256",
          "name": "collateralAmount",
          "type": "uint256"
        },
        {
          "indexed": false,
          "internalType": "uint256",
          "name": "teleBTCAmount",
          "type": "uint256"
        },
        {
          "indexed": false,
          "internalType": "uint256",
          "name": "liquidateTime",
          "type": "uint256"
        }
      ],
      "name": "LockerLiquidated",
      "type": "event"
    },
    {
      "anonymous": false,
      "inputs": [
        {
          "indexed": true,
          "internalType": "address",
          "name": "lockerTargetAddress",
          "type": "address"
        },
        {
          "indexed": false,
          "internalType": "bytes",
          "name": "lockerLockingScript",
          "type": "bytes"
        },
        {
          "indexed": false,
          "internalType": "uint256",
          "name": "TDTUnlockedAmount",
          "type": "uint256"
        },
        {
          "indexed": false,
          "internalType": "uint256",
          "name": "nativeTokenUnlockedAmount",
          "type": "uint256"
        }
      ],
      "name": "LockerRemoved",
      "type": "event"
    },
    {
      "anonymous": false,
      "inputs": [
        {
          "indexed": true,
          "internalType": "address",
          "name": "lockerTargetAddress",
          "type": "address"
        },
        {
          "indexed": false,
          "internalType": "uint256",
          "name": "rewardAmount",
          "type": "uint256"
        },
        {
          "indexed": false,
          "internalType": "address",
          "name": "rewardRecipient",
          "type": "address"
        },
        {
          "indexed": false,
          "internalType": "uint256",
          "name": "amount",
          "type": "uint256"
        },
        {
          "indexed": false,
          "internalType": "address",
          "name": "recipient",
          "type": "address"
        },
        {
          "indexed": false,
          "internalType": "uint256",
          "name": "slashedCollateralAmount",
          "type": "uint256"
        },
        {
          "indexed": false,
          "internalType": "uint256",
          "name": "slashTime",
          "type": "uint256"
        },
        {
          "indexed": false,
          "internalType": "bool",
          "name": "isForCCBurn",
          "type": "bool"
        }
      ],
      "name": "LockerSlashed",
      "type": "event"
    },
    {
      "anonymous": false,
      "inputs": [
        {
          "indexed": true,
          "internalType": "address",
          "name": "lockerTargetAddress",
          "type": "address"
        },
        {
          "indexed": false,
          "internalType": "address",
          "name": "buyerAddress",
          "type": "address"
        },
        {
          "indexed": false,
          "internalType": "uint256",
          "name": "slashingAmount",
          "type": "uint256"
        },
        {
          "indexed": false,
          "internalType": "uint256",
          "name": "teleBTCAmount",
          "type": "uint256"
        },
        {
          "indexed": false,
          "internalType": "uint256",
          "name": "slashingTime",
          "type": "uint256"
        }
      ],
      "name": "LockerSlashedCollateralSold",
      "type": "event"
    },
    {
      "anonymous": false,
      "inputs": [
        {
          "indexed": true,
          "internalType": "address",
          "name": "lockerTargetAddress",
          "type": "address"
        },
        {
          "indexed": false,
          "internalType": "address",
          "name": "receiver",
          "type": "address"
        },
        {
          "indexed": false,
          "internalType": "uint256",
          "name": "mintedAmount",
          "type": "uint256"
        },
        {
          "indexed": false,
          "internalType": "uint256",
          "name": "lockerFee",
          "type": "uint256"
        },
        {
          "indexed": false,
          "internalType": "uint256",
          "name": "mintingTime",
          "type": "uint256"
        }
      ],
      "name": "MintByLocker",
      "type": "event"
    },
    {
      "anonymous": false,
      "inputs": [
        {
          "indexed": true,
          "internalType": "address",
          "name": "previousOwner",
          "type": "address"
        },
        {
          "indexed": true,
          "internalType": "address",
          "name": "newOwner",
          "type": "address"
        }
      ],
      "name": "OwnershipTransferred",
      "type": "event"
    },
    {
      "anonymous": false,
      "inputs": [
        {
          "indexed": false,
          "internalType": "address",
          "name": "account",
          "type": "address"
        }
      ],
      "name": "Paused",
      "type": "event"
    },
    {
      "anonymous": false,
      "inputs": [
        {
          "indexed": true,
          "internalType": "address",
          "name": "lockerTargetAddress",
          "type": "address"
        },
        {
          "indexed": false,
          "internalType": "bytes",
          "name": "lockerLockingScript",
          "type": "bytes"
        },
        {
          "indexed": false,
          "internalType": "uint256",
          "name": "TDTLockedAmount",
          "type": "uint256"
        },
        {
          "indexed": false,
          "internalType": "uint256",
          "name": "nativeTokenLockedAmount",
          "type": "uint256"
        }
      ],
      "name": "RequestAddLocker",
      "type": "event"
    },
    {
      "anonymous": false,
      "inputs": [
        {
          "indexed": true,
          "internalType": "address",
          "name": "lockerTargetAddress",
          "type": "address"
        },
        {
          "indexed": false,
          "internalType": "bytes",
          "name": "lockerLockingScript",
          "type": "bytes"
        },
        {
          "indexed": false,
          "internalType": "uint256",
          "name": "TDTUnlockedAmount",
          "type": "uint256"
        },
        {
          "indexed": false,
          "internalType": "uint256",
          "name": "nativeTokenUnlockedAmount",
          "type": "uint256"
        },
        {
          "indexed": false,
          "internalType": "uint256",
          "name": "netMinted",
          "type": "uint256"
        }
      ],
      "name": "RequestRemoveLocker",
      "type": "event"
    },
    {
      "anonymous": false,
      "inputs": [
        {
          "indexed": true,
          "internalType": "address",
          "name": "lockerTargetAddress",
          "type": "address"
        },
        {
          "indexed": false,
          "internalType": "bytes",
          "name": "lockerLockingScript",
          "type": "bytes"
        },
        {
          "indexed": false,
          "internalType": "uint256",
          "name": "TDTLockedAmount",
          "type": "uint256"
        },
        {
          "indexed": false,
          "internalType": "uint256",
          "name": "nativeTokenLockedAmount",
          "type": "uint256"
        }
      ],
      "name": "RevokeAddLockerRequest",
      "type": "event"
    },
    {
      "anonymous": false,
      "inputs": [
        {
          "indexed": false,
          "internalType": "address",
          "name": "account",
          "type": "address"
        }
      ],
      "name": "Unpaused",
      "type": "event"
    },
    {
      "inputs": [],
      "name": "HEALTH_FACTOR",
      "outputs": [
        {
          "internalType": "uint256",
          "name": "",
          "type": "uint256"
        }
      ],
      "stateMutability": "view",
      "type": "function"
    },
    {
      "inputs": [],
      "name": "MAX_LOCKER_FEE",
      "outputs": [
        {
          "internalType": "uint256",
          "name": "",
          "type": "uint256"
        }
      ],
      "stateMutability": "view",
      "type": "function"
    },
    {
      "inputs": [],
      "name": "NATIVE_TOKEN",
      "outputs": [
        {
          "internalType": "address",
          "name": "",
          "type": "address"
        }
      ],
      "stateMutability": "view",
      "type": "function"
    },
    {
      "inputs": [],
      "name": "NATIVE_TOKEN_DECIMAL",
      "outputs": [
        {
          "internalType": "uint256",
          "name": "",
          "type": "uint256"
        }
      ],
      "stateMutability": "view",
      "type": "function"
    },
    {
      "inputs": [],
      "name": "ONE_HUNDRED_PERCENT",
      "outputs": [
        {
          "internalType": "uint256",
          "name": "",
          "type": "uint256"
        }
      ],
      "stateMutability": "view",
      "type": "function"
    },
    {
      "inputs": [],
      "name": "TeleportDAOToken",
      "outputs": [
        {
          "internalType": "address",
          "name": "",
          "type": "address"
        }
      ],
      "stateMutability": "view",
      "type": "function"
    },
    {
      "inputs": [],
      "name": "UPPER_HEALTH_FACTOR",
      "outputs": [
        {
          "internalType": "uint256",
          "name": "",
          "type": "uint256"
        }
      ],
      "stateMutability": "view",
      "type": "function"
    },
    {
      "inputs": [
        {
          "internalType": "address",
          "name": "_account",
          "type": "address"
        }
      ],
      "name": "addBurner",
      "outputs": [],
      "stateMutability": "nonpayable",
      "type": "function"
    },
    {
      "inputs": [
        {
          "internalType": "address",
          "name": "_lockerTargetAddress",
          "type": "address"
        },
        {
          "internalType": "uint256",
          "name": "_addingNativeTokenAmount",
          "type": "uint256"
        }
      ],
      "name": "addCollateral",
      "outputs": [
        {
          "internalType": "bool",
          "name": "",
          "type": "bool"
        }
      ],
      "stateMutability": "payable",
      "type": "function"
    },
    {
      "inputs": [
        {
          "internalType": "address",
          "name": "_lockerTargetAddress",
          "type": "address"
        }
      ],
      "name": "addLocker",
      "outputs": [
        {
          "internalType": "bool",
          "name": "",
          "type": "bool"
        }
      ],
      "stateMutability": "nonpayable",
      "type": "function"
    },
    {
      "inputs": [
        {
          "internalType": "address",
          "name": "_account",
          "type": "address"
        }
      ],
      "name": "addMinter",
      "outputs": [],
      "stateMutability": "nonpayable",
      "type": "function"
    },
    {
      "inputs": [
        {
          "internalType": "bytes",
          "name": "_lockerLockingScript",
          "type": "bytes"
        },
        {
          "internalType": "uint256",
          "name": "_amount",
          "type": "uint256"
        }
      ],
      "name": "burn",
      "outputs": [
        {
          "internalType": "uint256",
          "name": "",
          "type": "uint256"
        }
      ],
      "stateMutability": "nonpayable",
      "type": "function"
    },
    {
      "inputs": [
        {
          "internalType": "address",
          "name": "_lockerTargetAddress",
          "type": "address"
        },
        {
          "internalType": "uint256",
          "name": "_collateralAmount",
          "type": "uint256"
        }
      ],
      "name": "buySlashedCollateralOfLocker",
      "outputs": [
        {
          "internalType": "bool",
          "name": "",
          "type": "bool"
        }
      ],
      "stateMutability": "nonpayable",
      "type": "function"
    },
    {
      "inputs": [],
      "name": "ccBurnRouter",
      "outputs": [
        {
          "internalType": "address",
          "name": "",
          "type": "address"
        }
      ],
      "stateMutability": "view",
      "type": "function"
    },
    {
      "inputs": [],
      "name": "collateralRatio",
      "outputs": [
        {
          "internalType": "uint256",
          "name": "",
          "type": "uint256"
        }
      ],
      "stateMutability": "view",
      "type": "function"
    },
    {
      "inputs": [],
      "name": "exchangeConnector",
      "outputs": [
        {
          "internalType": "address",
          "name": "",
          "type": "address"
        }
      ],
      "stateMutability": "view",
      "type": "function"
    },
    {
      "inputs": [
        {
          "internalType": "address",
          "name": "_lockerTargetAddress",
          "type": "address"
        }
      ],
      "name": "getLockerCapacity",
      "outputs": [
        {
          "internalType": "uint256",
          "name": "",
          "type": "uint256"
        }
      ],
      "stateMutability": "view",
      "type": "function"
    },
    {
      "inputs": [
        {
          "internalType": "address",
          "name": "_lockerTargetAddress",
          "type": "address"
        }
      ],
      "name": "getLockerLockingScript",
      "outputs": [
        {
          "internalType": "bytes",
          "name": "",
          "type": "bytes"
        }
      ],
      "stateMutability": "view",
      "type": "function"
    },
    {
      "inputs": [
        {
          "internalType": "bytes",
          "name": "_lockerLockingScript",
          "type": "bytes"
        }
      ],
      "name": "getLockerTargetAddress",
      "outputs": [
        {
          "internalType": "address",
          "name": "",
          "type": "address"
        }
      ],
      "stateMutability": "view",
      "type": "function"
    },
    {
      "inputs": [],
      "name": "getNumberOfLockers",
      "outputs": [
        {
          "internalType": "uint256",
          "name": "",
          "type": "uint256"
        }
      ],
      "stateMutability": "view",
      "type": "function"
    },
    {
      "inputs": [
        {
          "internalType": "address",
          "name": "_TeleportDAOToken",
          "type": "address"
        },
        {
          "internalType": "address",
          "name": "_exchangeConnector",
          "type": "address"
        },
        {
          "internalType": "address",
          "name": "_priceOracle",
          "type": "address"
        },
        {
          "internalType": "uint256",
          "name": "_minRequiredTDTLockedAmount",
          "type": "uint256"
        },
        {
          "internalType": "uint256",
          "name": "_minRequiredTNTLockedAmount",
          "type": "uint256"
        },
        {
          "internalType": "uint256",
          "name": "_collateralRatio",
          "type": "uint256"
        },
        {
          "internalType": "uint256",
          "name": "_liquidationRatio",
          "type": "uint256"
        },
        {
          "internalType": "uint256",
          "name": "_lockerPercentageFee",
          "type": "uint256"
        },
        {
          "internalType": "uint256",
          "name": "_priceWithDiscountRatio",
          "type": "uint256"
        }
      ],
      "name": "initialize",
      "outputs": [],
      "stateMutability": "nonpayable",
      "type": "function"
    },
    {
      "inputs": [
        {
          "internalType": "address",
          "name": "_lockerTargetAddress",
          "type": "address"
        }
      ],
      "name": "isActive",
      "outputs": [
        {
          "internalType": "bool",
          "name": "",
          "type": "bool"
        }
      ],
      "stateMutability": "view",
      "type": "function"
    },
    {
      "inputs": [
        {
          "internalType": "address",
          "name": "account",
          "type": "address"
        }
      ],
      "name": "isBurner",
      "outputs": [
        {
          "internalType": "bool",
          "name": "",
          "type": "bool"
        }
      ],
      "stateMutability": "view",
      "type": "function"
    },
    {
      "inputs": [
        {
          "internalType": "bytes",
          "name": "_lockerLockingScript",
          "type": "bytes"
        }
      ],
      "name": "isLocker",
      "outputs": [
        {
          "internalType": "bool",
          "name": "",
          "type": "bool"
        }
      ],
      "stateMutability": "view",
      "type": "function"
    },
    {
      "inputs": [
        {
          "internalType": "address",
          "name": "account",
          "type": "address"
        }
      ],
      "name": "isMinter",
      "outputs": [
        {
          "internalType": "bool",
          "name": "",
          "type": "bool"
        }
      ],
      "stateMutability": "view",
      "type": "function"
    },
    {
      "inputs": [],
      "name": "libConstants",
      "outputs": [
        {
          "internalType": "uint256",
          "name": "OneHundredPercent",
          "type": "uint256"
        },
        {
          "internalType": "uint256",
          "name": "HealthFactor",
          "type": "uint256"
        },
        {
          "internalType": "uint256",
          "name": "UpperHealthFactor",
          "type": "uint256"
        },
        {
          "internalType": "uint256",
          "name": "MaxLockerFee",
          "type": "uint256"
        },
        {
          "internalType": "uint256",
          "name": "NativeTokenDecimal",
          "type": "uint256"
        },
        {
          "internalType": "address",
          "name": "NativeToken",
          "type": "address"
        }
      ],
      "stateMutability": "view",
      "type": "function"
    },
    {
      "inputs": [],
      "name": "libParams",
      "outputs": [
        {
          "internalType": "address",
          "name": "teleportDAOToken",
          "type": "address"
        },
        {
          "internalType": "address",
          "name": "teleBTC",
          "type": "address"
        },
        {
          "internalType": "address",
          "name": "ccBurnRouter",
          "type": "address"
        },
        {
          "internalType": "address",
          "name": "exchangeConnector",
          "type": "address"
        },
        {
          "internalType": "address",
          "name": "priceOracle",
          "type": "address"
        },
        {
          "internalType": "uint256",
          "name": "minRequiredTDTLockedAmount",
          "type": "uint256"
        },
        {
          "internalType": "uint256",
          "name": "minRequiredTNTLockedAmount",
          "type": "uint256"
        },
        {
          "internalType": "uint256",
          "name": "lockerPercentageFee",
          "type": "uint256"
        },
        {
          "internalType": "uint256",
          "name": "collateralRatio",
          "type": "uint256"
        },
        {
          "internalType": "uint256",
          "name": "liquidationRatio",
          "type": "uint256"
        },
        {
          "internalType": "uint256",
          "name": "priceWithDiscountRatio",
          "type": "uint256"
        }
      ],
      "stateMutability": "view",
      "type": "function"
    },
    {
      "inputs": [
        {
          "internalType": "address",
          "name": "_lockerTargetAddress",
          "type": "address"
        },
        {
          "internalType": "uint256",
          "name": "_collateralAmount",
          "type": "uint256"
        }
      ],
      "name": "liquidateLocker",
      "outputs": [
        {
          "internalType": "bool",
          "name": "",
          "type": "bool"
        }
      ],
      "stateMutability": "nonpayable",
      "type": "function"
    },
    {
      "inputs": [],
      "name": "liquidationRatio",
      "outputs": [
        {
          "internalType": "uint256",
          "name": "",
          "type": "uint256"
        }
      ],
      "stateMutability": "view",
      "type": "function"
    },
    {
      "inputs": [
        {
          "internalType": "address",
          "name": "",
          "type": "address"
        }
      ],
      "name": "lockerLeavingAcceptance",
      "outputs": [
        {
          "internalType": "bool",
          "name": "",
          "type": "bool"
        }
      ],
      "stateMutability": "view",
      "type": "function"
    },
    {
      "inputs": [
        {
          "internalType": "address",
          "name": "",
          "type": "address"
        }
      ],
      "name": "lockerLeavingRequests",
      "outputs": [
        {
          "internalType": "bool",
          "name": "",
          "type": "bool"
        }
      ],
      "stateMutability": "view",
      "type": "function"
    },
    {
      "inputs": [],
      "name": "lockerPercentageFee",
      "outputs": [
        {
          "internalType": "uint256",
          "name": "",
          "type": "uint256"
        }
      ],
      "stateMutability": "view",
      "type": "function"
    },
    {
      "inputs": [
        {
          "internalType": "bytes",
          "name": "",
          "type": "bytes"
        }
      ],
      "name": "lockerTargetAddress",
      "outputs": [
        {
          "internalType": "address",
          "name": "",
          "type": "address"
        }
      ],
      "stateMutability": "view",
      "type": "function"
    },
    {
      "inputs": [
        {
          "internalType": "address",
          "name": "",
          "type": "address"
        }
      ],
      "name": "lockersMapping",
      "outputs": [
        {
          "internalType": "bytes",
          "name": "lockerLockingScript",
          "type": "bytes"
        },
        {
          "internalType": "enum ScriptTypes",
          "name": "lockerRescueType",
          "type": "uint8"
        },
        {
          "internalType": "bytes",
          "name": "lockerRescueScript",
          "type": "bytes"
        },
        {
          "internalType": "uint256",
          "name": "TDTLockedAmount",
          "type": "uint256"
        },
        {
          "internalType": "uint256",
          "name": "nativeTokenLockedAmount",
          "type": "uint256"
        },
        {
          "internalType": "uint256",
          "name": "netMinted",
          "type": "uint256"
        },
        {
          "internalType": "uint256",
          "name": "slashingTeleBTCAmount",
          "type": "uint256"
        },
        {
          "internalType": "uint256",
          "name": "reservedNativeTokenForSlash",
          "type": "uint256"
        },
        {
          "internalType": "bool",
          "name": "isLocker",
          "type": "bool"
        },
        {
          "internalType": "bool",
          "name": "isCandidate",
          "type": "bool"
        },
        {
          "internalType": "bool",
          "name": "isScriptHash",
          "type": "bool"
        },
        {
          "internalType": "bool",
          "name": "isActive",
          "type": "bool"
        }
      ],
      "stateMutability": "view",
      "type": "function"
    },
    {
      "inputs": [],
      "name": "minRequiredTDTLockedAmount",
      "outputs": [
        {
          "internalType": "uint256",
          "name": "",
          "type": "uint256"
        }
      ],
      "stateMutability": "view",
      "type": "function"
    },
    {
      "inputs": [],
      "name": "minRequiredTNTLockedAmount",
      "outputs": [
        {
          "internalType": "uint256",
          "name": "",
          "type": "uint256"
        }
      ],
      "stateMutability": "view",
      "type": "function"
    },
    {
      "inputs": [
        {
          "internalType": "bytes",
          "name": "_lockerLockingScript",
          "type": "bytes"
        },
        {
          "internalType": "address",
          "name": "_receiver",
          "type": "address"
        },
        {
          "internalType": "uint256",
          "name": "_amount",
          "type": "uint256"
        }
      ],
      "name": "mint",
      "outputs": [
        {
          "internalType": "uint256",
          "name": "",
          "type": "uint256"
        }
      ],
      "stateMutability": "nonpayable",
      "type": "function"
    },
    {
      "inputs": [],
      "name": "owner",
      "outputs": [
        {
          "internalType": "address",
          "name": "",
          "type": "address"
        }
      ],
      "stateMutability": "view",
      "type": "function"
    },
    {
      "inputs": [
        {
          "internalType": "address",
          "name": "_lockerTargetAddress",
          "type": "address"
        }
      ],
      "name": "ownerRemoveLocker",
      "outputs": [
        {
          "internalType": "bool",
          "name": "",
          "type": "bool"
        }
      ],
      "stateMutability": "nonpayable",
      "type": "function"
    },
    {
      "inputs": [],
      "name": "pauseLocker",
      "outputs": [],
      "stateMutability": "nonpayable",
      "type": "function"
    },
    {
      "inputs": [],
      "name": "paused",
      "outputs": [
        {
          "internalType": "bool",
          "name": "",
          "type": "bool"
        }
      ],
      "stateMutability": "view",
      "type": "function"
    },
    {
      "inputs": [],
      "name": "priceOfOneUnitOfCollateralInBTC",
      "outputs": [
        {
          "internalType": "uint256",
          "name": "",
          "type": "uint256"
        }
      ],
      "stateMutability": "view",
      "type": "function"
    },
    {
      "inputs": [],
      "name": "priceOracle",
      "outputs": [
        {
          "internalType": "address",
          "name": "",
          "type": "address"
        }
      ],
      "stateMutability": "view",
      "type": "function"
    },
    {
      "inputs": [],
      "name": "priceWithDiscountRatio",
      "outputs": [
        {
          "internalType": "uint256",
          "name": "",
          "type": "uint256"
        }
      ],
      "stateMutability": "view",
      "type": "function"
    },
    {
      "inputs": [
        {
          "internalType": "address",
          "name": "_account",
          "type": "address"
        }
      ],
      "name": "removeBurner",
      "outputs": [],
      "stateMutability": "nonpayable",
      "type": "function"
    },
    {
      "inputs": [
        {
          "internalType": "uint256",
          "name": "_removingNativeTokenAmount",
          "type": "uint256"
        }
      ],
      "name": "removeCollateral",
      "outputs": [
        {
          "internalType": "bool",
          "name": "",
          "type": "bool"
        }
      ],
      "stateMutability": "payable",
      "type": "function"
    },
    {
      "inputs": [
        {
          "internalType": "address",
          "name": "_account",
          "type": "address"
        }
      ],
      "name": "removeMinter",
      "outputs": [],
      "stateMutability": "nonpayable",
      "type": "function"
    },
    {
      "inputs": [],
      "name": "renounceOwnership",
      "outputs": [],
      "stateMutability": "nonpayable",
      "type": "function"
    },
    {
      "inputs": [
        {
          "internalType": "bytes",
          "name": "_candidateLockingScript",
          "type": "bytes"
        },
        {
          "internalType": "uint256",
          "name": "_lockedTDTAmount",
          "type": "uint256"
        },
        {
          "internalType": "uint256",
          "name": "_lockedNativeTokenAmount",
          "type": "uint256"
        },
        {
          "internalType": "enum ScriptTypes",
          "name": "_lockerRescueType",
          "type": "uint8"
        },
        {
          "internalType": "bytes",
          "name": "_lockerRescueScript",
          "type": "bytes"
        }
      ],
      "name": "requestToBecomeLocker",
      "outputs": [
        {
          "internalType": "bool",
          "name": "",
          "type": "bool"
        }
      ],
      "stateMutability": "payable",
      "type": "function"
    },
    {
      "inputs": [],
      "name": "requestToRemoveLocker",
      "outputs": [
        {
          "internalType": "bool",
          "name": "",
          "type": "bool"
        }
      ],
      "stateMutability": "nonpayable",
      "type": "function"
    },
    {
      "inputs": [],
      "name": "revokeRequest",
      "outputs": [
        {
          "internalType": "bool",
          "name": "",
          "type": "bool"
        }
      ],
      "stateMutability": "nonpayable",
      "type": "function"
    },
    {
      "inputs": [],
      "name": "selfRemoveLocker",
      "outputs": [
        {
          "internalType": "bool",
          "name": "",
          "type": "bool"
        }
      ],
      "stateMutability": "nonpayable",
      "type": "function"
    },
    {
      "inputs": [
        {
          "internalType": "address",
          "name": "_ccBurnRouter",
          "type": "address"
        }
      ],
      "name": "setCCBurnRouter",
      "outputs": [],
      "stateMutability": "nonpayable",
      "type": "function"
    },
    {
      "inputs": [
        {
          "internalType": "uint256",
          "name": "_collateralRatio",
          "type": "uint256"
        }
      ],
      "name": "setCollateralRatio",
      "outputs": [],
      "stateMutability": "nonpayable",
      "type": "function"
    },
    {
      "inputs": [
        {
          "internalType": "address",
          "name": "_exchangeConnector",
          "type": "address"
        }
      ],
      "name": "setExchangeConnector",
      "outputs": [],
      "stateMutability": "nonpayable",
      "type": "function"
    },
    {
      "inputs": [
        {
          "internalType": "uint256",
          "name": "_liquidationRatio",
          "type": "uint256"
        }
      ],
      "name": "setLiquidationRatio",
      "outputs": [],
      "stateMutability": "nonpayable",
      "type": "function"
    },
    {
      "inputs": [
        {
          "internalType": "uint256",
          "name": "_lockerPercentageFee",
          "type": "uint256"
        }
      ],
      "name": "setLockerPercentageFee",
      "outputs": [],
      "stateMutability": "nonpayable",
      "type": "function"
    },
    {
      "inputs": [
        {
          "internalType": "uint256",
          "name": "_minRequiredTDTLockedAmount",
          "type": "uint256"
        }
      ],
      "name": "setMinRequiredTDTLockedAmount",
      "outputs": [],
      "stateMutability": "nonpayable",
      "type": "function"
    },
    {
      "inputs": [
        {
          "internalType": "uint256",
          "name": "_minRequiredTNTLockedAmount",
          "type": "uint256"
        }
      ],
      "name": "setMinRequiredTNTLockedAmount",
      "outputs": [],
      "stateMutability": "nonpayable",
      "type": "function"
    },
    {
      "inputs": [
        {
          "internalType": "address",
          "name": "_priceOracle",
          "type": "address"
        }
      ],
      "name": "setPriceOracle",
      "outputs": [],
      "stateMutability": "nonpayable",
      "type": "function"
    },
    {
      "inputs": [
        {
          "internalType": "address",
          "name": "_teleBTC",
          "type": "address"
        }
      ],
      "name": "setTeleBTC",
      "outputs": [],
      "stateMutability": "nonpayable",
      "type": "function"
    },
    {
      "inputs": [
        {
          "internalType": "address",
          "name": "_lockerTargetAddress",
          "type": "address"
        },
        {
          "internalType": "uint256",
          "name": "_rewardAmount",
          "type": "uint256"
        },
        {
          "internalType": "address",
          "name": "_rewardRecipient",
          "type": "address"
        },
        {
          "internalType": "uint256",
          "name": "_amount",
          "type": "uint256"
        },
        {
          "internalType": "address",
          "name": "_recipient",
          "type": "address"
        }
      ],
      "name": "slashIdleLocker",
      "outputs": [
        {
          "internalType": "bool",
          "name": "",
          "type": "bool"
        }
      ],
      "stateMutability": "nonpayable",
      "type": "function"
    },
    {
      "inputs": [
        {
          "internalType": "address",
          "name": "_lockerTargetAddress",
          "type": "address"
        },
        {
          "internalType": "uint256",
          "name": "_rewardAmount",
          "type": "uint256"
        },
        {
          "internalType": "address",
          "name": "_rewardRecipient",
          "type": "address"
        },
        {
          "internalType": "uint256",
          "name": "_amount",
          "type": "uint256"
        }
      ],
      "name": "slashTheifLocker",
      "outputs": [
        {
          "internalType": "bool",
          "name": "",
          "type": "bool"
        }
      ],
      "stateMutability": "nonpayable",
      "type": "function"
    },
    {
      "inputs": [],
      "name": "teleBTC",
      "outputs": [
        {
          "internalType": "address",
          "name": "",
          "type": "address"
        }
      ],
      "stateMutability": "view",
      "type": "function"
    },
    {
      "inputs": [],
      "name": "totalNumberOfCandidates",
      "outputs": [
        {
          "internalType": "uint256",
          "name": "",
          "type": "uint256"
        }
      ],
      "stateMutability": "view",
      "type": "function"
    },
    {
      "inputs": [],
      "name": "totalNumberOfLockers",
      "outputs": [
        {
          "internalType": "uint256",
          "name": "",
          "type": "uint256"
        }
      ],
      "stateMutability": "view",
      "type": "function"
    },
    {
      "inputs": [
        {
          "internalType": "address",
          "name": "newOwner",
          "type": "address"
        }
      ],
      "name": "transferOwnership",
      "outputs": [],
      "stateMutability": "nonpayable",
      "type": "function"
    },
    {
      "inputs": [],
      "name": "unPauseLocker",
      "outputs": [],
      "stateMutability": "nonpayable",
      "type": "function"
    }
  ],
  "transactionHash": "0xd37c49023604441da6df99476c861099fcf9e3d9d66ab244c04118e3c20403bd",
  "args": [],
  "numDeployments": 1,
  "solcInputHash": "9f351ffd31e086ceb13234f9dcc8dc9a",
  "bytecode": "0x608060405234801561001057600080fd5b50615dc580620000216000396000f3fe6080604052600436106103ef5760003560e01c806388aa0a5211610208578063bd60e79411610118578063dd0081c7116100ab578063ee1f1c701161007a578063ee1f1c7014610c2f578063ef69a7bc14610c4f578063f2fde38b14610c64578063f44637ba14610c84578063ffc9f70414610ca4576103ef565b8063dd0081c7146106a0578063e85501d814610bef578063e955de4514610c04578063ed110a9c14610c19576103ef565b8063ca666b84116100e7578063ca666b8414610b30578063cab1344e14610b45578063cdcbc87914610b65578063d5a38a9114610bcf576103ef565b8063bd60e79414610a15578063c0924b8014610ad0578063c4d10b6a14610af0578063c6de080e14610b10576103ef565b8063a839db241161019b578063b1016bdf1161016a578063b1016bdf146109a0578063b291ec13146109b3578063b4eae1cb146109c9578063bb4a2509146109df578063bc805d1d146109ff576103ef565b8063a839db2414610908578063aa271e1a14610928578063af1ea79514610948578063aff2faa314610980576103ef565b806396ec39e8116101d757806396ec39e814610888578063983b2d56146108a85780639bf09882146108c85780639f8a13d7146108e8576103ef565b806388aa0a52146108145780638d3d78cd1461082a5780638da5cb5b1461084a578063946ce8cd14610868576103ef565b806343b9370711610303578063613e2e1e116102965780636d75b9ee116102655780636d75b9ee1461079c578063715018a6146107af578063768ebb12146106a05780637da5f0da146107c45780637f0f1817146107f4576103ef565b8063613e2e1e1461073b57806363908020146107505780636600203d146107665780636d32395c14610786576103ef565b80635a8d80b8116102d25780635a8d80b8146106b65780635c975abb146106d65780635d6464ba146106ee5780636060663e1461071b576103ef565b806343b937071461064057806345cc589014610660578063530e784f1461068057806354509b97146106a0576103ef565b8063264db4ae1161038657806333c99e1d1161035557806333c99e1d1461058957806338463cff146105a957806341f3ec11146105c957806341fae5791461060a5780634334614a14610620576103ef565b8063264db4ae1461052c5780633092afd51461054157806331f7d964146105615780633237c15814610576576103ef565b80631697565b116103c25780631697565b146104b65780631775765f146104d65780631fcfe19c146104ec5780632630c12f1461050c576103ef565b806302846858146103f4578063043fd54b146104165780630c42cbc91461045b578063108f438d1461047e575b600080fd5b34801561040057600080fd5b5061041461040f36600461500b565b610cb9565b005b34801561042257600080fd5b5061044661043136600461500b565b60d76020526000908152604090205460ff1681565b60405190151581526020015b60405180910390f35b34801561046757600080fd5b50610470601281565b604051908152602001610452565b34801561048a57600080fd5b5060c95461049e906001600160a01b031681565b6040516001600160a01b039091168152602001610452565b3480156104c257600080fd5b506104466104d136600461510b565b610d38565b3480156104e257600080fd5b5061047060d25481565b3480156104f857600080fd5b506104706105073660046151c1565b6110a7565b34801561051857600080fd5b5060cd5461049e906001600160a01b031681565b34801561053857600080fd5b506104706113f2565b34801561054d57600080fd5b5061041461055c36600461500b565b61152b565b34801561056d57600080fd5b5061049e600181565b6104466105843660046153a7565b6115a1565b34801561059557600080fd5b506104466105a43660046150c8565b61172a565b3480156105b557600080fd5b506104706105c436600461521b565b611a47565b3480156105d557600080fd5b5061049e6105e43660046152fd565b805160208183018101805160d9825292820191909301209152546001600160a01b031681565b34801561061657600080fd5b5061047060ce5481565b34801561062c57600080fd5b5061044661063b36600461500b565b611dd5565b34801561064c57600080fd5b5061044661065b36600461509f565b611e23565b34801561066c57600080fd5b5061044661067b36600461500b565b612428565b34801561068c57600080fd5b5061041461069b36600461500b565b6125e0565b3480156106ac57600080fd5b5061047061271081565b3480156106c257600080fd5b5060cb5461049e906001600160a01b031681565b3480156106e257600080fd5b5060975460ff16610446565b3480156106fa57600080fd5b5061070e61070936600461500b565b61263f565b60405161045291906156bf565b34801561072757600080fd5b506104146107363660046153a7565b612711565b34801561074757600080fd5b50610414612781565b34801561075c57600080fd5b5061047060d05481565b34801561077257600080fd5b506104146107813660046153a7565b612793565b34801561079257600080fd5b5061047060cf5481565b6104466107aa36600461509f565b6127f7565b3480156107bb57600080fd5b50610414612950565b3480156107d057600080fd5b506104466107df36600461500b565b60d86020526000908152604090205460ff1681565b34801561080057600080fd5b5061041461080f36600461500b565b612962565b34801561082057600080fd5b5061047060d45481565b34801561083657600080fd5b5060ca5461049e906001600160a01b031681565b34801561085657600080fd5b506033546001600160a01b031661049e565b34801561087457600080fd5b506104146108833660046153a7565b6129c1565b34801561089457600080fd5b506104466108a336600461509f565b6129d3565b3480156108b457600080fd5b506104146108c336600461500b565b613074565b3480156108d457600080fd5b506104146108e33660046153a7565b6130ee565b3480156108f457600080fd5b5061044661090336600461500b565b613100565b34801561091457600080fd5b506104146109233660046153a7565b613153565b34801561093457600080fd5b5061044661094336600461500b565b613165565b34801561095457600080fd5b5061096861096336600461500b565b6131ae565b6040516104529c9b9a999897969594939291906156d2565b34801561098c57600080fd5b5061044661099b366004615181565b61332f565b6104466109ae366004615265565b61337d565b3480156109bf57600080fd5b5061047060d35481565b3480156109d557600080fd5b5061047060d15481565b3480156109eb57600080fd5b506104146109fa366004615025565b6138db565b348015610a0b57600080fd5b50610470612ee081565b348015610a2157600080fd5b5060e25460e35460e45460e55460e65460e75460e85460e95460ea5460eb5460ec54610a669a6001600160a01b039081169a811699811698811697169594939291908b565b604080516001600160a01b039c8d1681529a8c1660208c0152988b16988a0198909852958916606089015297909316608087015260a086019190915260c085015260e084015261010083019390935261012082019290925261014081019190915261016001610452565b348015610adc57600080fd5b5060cc5461049e906001600160a01b031681565b348015610afc57600080fd5b5061049e610b0b366004615181565b613c57565b348015610b1c57600080fd5b50610446610b2b36600461500b565b613c8c565b348015610b3c57600080fd5b50610446613cfd565b348015610b5157600080fd5b50610414610b6036600461500b565b613de2565b348015610b7157600080fd5b5060dc5460dd5460de5460df5460e05460e154610b999594939291906001600160a01b031686565b60408051968752602087019590955293850192909252606084015260808301526001600160a01b031660a082015260c001610452565b348015610bdb57600080fd5b50610470610bea36600461500b565b613e41565b348015610bfb57600080fd5b50610446613eba565b348015610c1057600080fd5b506104146142c9565b348015610c2557600080fd5b5061047060d55481565b348015610c3b57600080fd5b50610414610c4a36600461500b565b6142d9565b348015610c5b57600080fd5b5060d554610470565b348015610c7057600080fd5b50610414610c7f36600461500b565b614338565b348015610c9057600080fd5b50610414610c9f36600461500b565b6143b1565b348015610cb057600080fd5b5061044661442b565b806001600160a01b038116610ce95760405162461bcd60e51b8152600401610ce090615904565b60405180910390fd5b610cf1614470565b610cfa82611dd5565b610d165760405162461bcd60e51b8152600401610ce0906157bf565b506001600160a01b0316600090815260db60205260409020805460ff19169055565b600060026065541415610d5d5760405162461bcd60e51b8152600401610ce090615986565b6002606555610d6a6144ca565b60cb546001600160a01b0316336001600160a01b031614610d9d5760405162461bcd60e51b8152600401610ce090615802565b6001600160a01b038616600090815260d6602052604090206008015460ff16610dd85760405162461bcd60e51b8152600401610ce090615888565b60cd546000906001600160a01b03166316fac92a610df68689615bac565b60ca60009054906101000a90046001600160a01b03166001600160a01b031663313ce5676040518163ffffffff1660e01b815260040160206040518083038186803b158015610e4457600080fd5b505afa158015610e58573d6000803e3d6000fd5b505050506040513d601f19601f82011682018060405250810190610e7c91906153fa565b60ca5460405160e085901b6001600160e01b0319168152600481019390935260ff9091166024830152601260448301526001600160a01b031660648201526001608482015260a40160206040518083038186803b158015610edc57600080fd5b505afa158015610ef0573d6000803e3d6000fd5b505050506040513d601f19601f82011682018060405250810190610f1491906153bf565b6001600160a01b038816600090815260d66020526040902060040154909150811115610f5857506001600160a01b038616600090815260d660205260409020600401545b6001600160a01b038716600090815260d66020526040902060040154610f7f908290615d17565b6001600160a01b03808916600090815260d6602052604090206004019190915583166108fc610fae8887615bac565b610fb88785615cf8565b610fc29190615bc4565b6040518115909202916000818181858888f19350505050158015610fea573d6000803e3d6000fd5b506000610ff78786615bac565b6110018884615cf8565b61100b9190615bc4565b6040519091506001600160a01b0387169082156108fc029083906000818181858888f19350505050158015611044573d6000803e3d6000fd5b50876001600160a01b03167fab522c1322c34ea455e8f541ecfe1b73a29039f3658bff658cf12c9fd26dc016828888888742600160405161108b9796959493929190615b28565b60405180910390a2600192505050600160655595945050505050565b6000826001600160a01b0381166110d05760405162461bcd60e51b8152600401610ce090615904565b82600081116110f15760405162461bcd60e51b8152600401610ce0906158d4565b600260655414156111145760405162461bcd60e51b8152600401610ce090615986565b60026065556111216144ca565b61112a33610943565b6111765760405162461bcd60e51b815260206004820152601e60248201527f4c6f636b6572733a206f6e6c79206d696e746572732063616e206d696e7400006044820152606401610ce0565b600060d9888860405161118a9291906155db565b908152604051908190036020019020546001600160a01b0316905060006111b082613e41565b9050858110156112025760405162461bcd60e51b815260206004820152601e60248201527f4c6f636b6572733a20696e73756666696369656e7420636170616369747900006044820152606401610ce0565b6001600160a01b038216600090815260d66020526040902060050154611229908790615bac565b6001600160a01b038316600090815260d6602052604081206005019190915560d054612710906112599089615cf8565b6112639190615bc4565b905080156112f35760ca546040516340c10f1960e01b81526001600160a01b03858116600483015260248201849052909116906340c10f1990604401602060405180830381600087803b1580156112b957600080fd5b505af11580156112cd573d6000803e3d6000fd5b505050506040513d601f19601f820116820180604052508101906112f19190615161565b505b60ca546001600160a01b03166340c10f198961130f848b615d17565b6040516001600160e01b031960e085901b1681526001600160a01b0390921660048301526024820152604401602060405180830381600087803b15801561135557600080fd5b505af1158015611369573d6000803e3d6000fd5b505050506040513d601f19601f8201168201806040525081019061138d9190615161565b50826001600160a01b03167f8ad706b338c5d2a20b0d038b5cfdaf2b2f943f43048723bde0dccdf129598a11898984426040516113cd949392919061565a565b60405180910390a26113df8188615d17565b60016065559a9950505050505050505050565b60cd546000906001600160a01b03166316fac92a6114126012600a615c2a565b60ca546040805163313ce56760e01b815290516012926001600160a01b03169163313ce567916004808301926020929190829003018186803b15801561145757600080fd5b505afa15801561146b573d6000803e3d6000fd5b505050506040513d601f19601f8201168201806040525081019061148f91906153fa565b60ca5460405160e086901b6001600160e01b03191681526004810194909452602484019290925260ff166044830152600160648301526001600160a01b0316608482015260a40160206040518083038186803b1580156114ee57600080fd5b505afa158015611502573d6000803e3d6000fd5b505050506040513d601f19601f8201168201806040525081019061152691906153bf565b905090565b806001600160a01b0381166115525760405162461bcd60e51b8152600401610ce090615904565b61155a614470565b61156382613165565b61157f5760405162461bcd60e51b8152600401610ce0906157bf565b506001600160a01b0316600090815260da60205260409020805460ff19169055565b6000600260655414156115c65760405162461bcd60e51b8152600401610ce090615986565b600260655560006115d56113f2565b33600090815260d66020908152604091829020825160c0808201855260dc54825260dd548285015260de548286015260df5460608084019190915260e0805460808086019190915260e1546001600160a01b0390811660a080880191909152895161016081018b5260e2548316815260e35483169981019990995260e45482169989019990995260e55481169388019390935260e6549092169186019190915260e7549585019590955260e8549084015260e9549383019390935260ea5461010083015260eb5461012083015260ec546101408301529293506116bb9291908487614510565b6116c5338461466d565b33600081815260d660209081526040918290206004015482518781529182015242918101919091527f93ae1c71197ee1bd2ad44b7d57e7b34ca946aeb88fdb4fc4a45211dbeb2c3cc7906060015b60405180910390a260019150506001606555919050565b60006002606554141561174f5760405162461bcd60e51b8152600401610ce090615986565b600260655561175c6144ca565b60cb546001600160a01b0316336001600160a01b03161461178f5760405162461bcd60e51b8152600401610ce090615802565b6001600160a01b038516600090815260d6602052604090206008015460ff166117ca5760405162461bcd60e51b8152600401610ce090615888565b60cd5460ca546040805163313ce56760e01b815290516000936001600160a01b03908116936316fac92a938893919092169163313ce567916004808301926020929190829003018186803b15801561182157600080fd5b505afa158015611835573d6000803e3d6000fd5b505050506040513d601f19601f8201168201806040525081019061185991906153fa565b60ca5460405160e085901b6001600160e01b0319168152600481019390935260ff9091166024830152601260448301526001600160a01b031660648201526001608482015260a40160206040518083038186803b1580156118b957600080fd5b505afa1580156118cd573d6000803e3d6000fd5b505050506040513d601f19601f820116820180604052508101906118f191906153bf565b6001600160a01b038716600090815260d66020526040808220905163abb4649b60e01b81529293509091829173AC615Ea4036CD4808547a80C31Af94D29fC1E9909163abb4649b916119519160dc9060e29089908e908d90600401615ab6565b604080518083038186803b15801561196857600080fd5b505af415801561197c573d6000803e3d6000fd5b505050506040513d601f19601f820116820180604052508101906119a091906153d7565b60405191935091506001600160a01b0387169083156108fc029084906000818181858888f193505050501580156119db573d6000803e3d6000fd5b506001600160a01b0388167fab522c1322c34ea455e8f541ecfe1b73a29039f3658bff658cf12c9fd26dc01683888830611a158488615bac565b426000604051611a2b9796959493929190615b28565b60405180910390a2600193505050506001606555949350505050565b60008160008111611a6a5760405162461bcd60e51b8152600401610ce0906158d4565b60026065541415611a8d5760405162461bcd60e51b8152600401610ce090615986565b6002606555611a9a6144ca565b611aa33361063b565b611aef5760405162461bcd60e51b815260206004820152601e60248201527f4c6f636b6572733a206f6e6c79206275726e6572732063616e206275726e00006044820152606401610ce0565b600060d98686604051611b039291906155db565b9081526040519081900360200190205460ca546001600160a01b039182169250166323b872dd611b303390565b6040516001600160e01b031960e084901b1681526001600160a01b03909116600482015230602482015260448101879052606401602060405180830381600087803b158015611b7e57600080fd5b505af1158015611b92573d6000803e3d6000fd5b505050506040513d601f19601f82011682018060405250810190611bb69190615161565b50600061271060d05486611bca9190615cf8565b611bd49190615bc4565b90506000611be28287615d17565b6001600160a01b038416600090815260d6602052604090206005015490915081811015611c515760405162461bcd60e51b815260206004820152601b60248201527f4c6f636b6572733a20696e73756666696369656e742066756e647300000000006044820152606401610ce0565b611c5b8282615d17565b6001600160a01b03858116600090815260d66020526040908190206005019290925560ca549151630852cd8d60e31b8152600481018590529116906342966c6890602401602060405180830381600087803b158015611cb957600080fd5b505af1158015611ccd573d6000803e3d6000fd5b505050506040513d601f19601f82011682018060405250810190611cf19190615161565b5060ca5460405163a9059cbb60e01b81526001600160a01b038681166004830152602482018690529091169063a9059cbb90604401602060405180830381600087803b158015611d4057600080fd5b505af1158015611d54573d6000803e3d6000fd5b505050506040513d601f19601f82011682018060405250810190611d789190615161565b506040805188815260208101859052428183015290516001600160a01b038616917f66fb54322c407b04a077a306e72cdd780f0f374ba5dac9f6901a56a6255bc34a919081900360600190a2506001606555979650505050505050565b6000816001600160a01b038116611dfe5760405162461bcd60e51b8152600401610ce090615904565b6001600160a01b038316600090815260db602052604090205460ff1691505b50919050565b6000826001600160a01b038116611e4c5760405162461bcd60e51b8152600401610ce090615904565b8260008111611e6d5760405162461bcd60e51b8152600401610ce0906158d4565b60026065541415611e905760405162461bcd60e51b8152600401610ce090615986565b6002606555611e9d6144ca565b6001600160a01b038516600090815260d6602052604090206008015460ff16611ed85760405162461bcd60e51b8152600401610ce090615888565b6001600160a01b038516600090815260d6602052604080822081516101808101909252805482908290611f0a90615d2e565b80601f0160208091040260200160405190810160405280929190818152602001828054611f3690615d2e565b8015611f835780601f10611f5857610100808354040283529160200191611f83565b820191906000526020600020905b815481529060010190602001808311611f6657829003601f168201915b5050509183525050600182015460209091019060ff166004811115611fb857634e487b7160e01b600052602160045260246000fd5b6004811115611fd757634e487b7160e01b600052602160045260246000fd5b8152602001600282018054611feb90615d2e565b80601f016020809104026020016040519081016040528092919081815260200182805461201790615d2e565b80156120645780601f1061203957610100808354040283529160200191612064565b820191906000526020600020905b81548152906001019060200180831161204757829003601f168201915b505050918352505060038201546020820152600482015460408201526005820154606082015260068201546080820152600782015460a082015260089091015460ff808216151560c08401526101008083048216151560e08086019190915262010000840483161515918501919091526301000000909204161515610120909201919091528101519091508511156121545760405162461bcd60e51b815260206004820152602d60248201527f4c6f636b6572733a206e6f7420656e6f75676820736c617368656420636f6c6c60448201526c61746572616c20746f2062757960981b6064820152608401610ce0565b600061215e6113f2565b9050600073AC615Ea4036CD4808547a80C31Af94D29fC1E99063d061362360dc60e28a866040518563ffffffff1660e01b81526004016121a19493929190615af8565b60206040518083038186803b1580156121b957600080fd5b505af41580156121cd573d6000803e3d6000fd5b505050506040513d601f19601f820116820180604052508101906121f191906153bf565b90508260c0015181111561223d5760405162461bcd60e51b8152602060048201526013602482015272098dec6d6cae4e67440c6c2dce840e6d8c2e6d606b1b6044820152606401610ce0565b6001600160a01b038816600090815260d66020526040902060060154612264908290615d17565b6001600160a01b038916600090815260d660205260409020600681019190915560070154612293908890615d17565b6001600160a01b03898116600090815260d6602052604090206007019190915560ca54166323b872dd336040516001600160e01b031960e084901b1681526001600160a01b03909116600482015230602482015260448101849052606401602060405180830381600087803b15801561230b57600080fd5b505af115801561231f573d6000803e3d6000fd5b505050506040513d601f19601f820116820180604052508101906123439190615161565b5060ca54604051630852cd8d60e31b8152600481018390526001600160a01b03909116906342966c6890602401602060405180830381600087803b15801561238a57600080fd5b505af115801561239e573d6000803e3d6000fd5b505050506040513d601f19601f820116820180604052508101906123c29190615161565b506123cd338861466d565b6001600160a01b0388167fd03400b15a5f4cddbc57f0e81bca31db33e4d1ed1390211eade3518bce70562e3389844260405161240c949392919061565a565b60405180910390a2600195505050505050600160655592915050565b6000816001600160a01b0381166124515760405162461bcd60e51b8152600401610ce090615904565b600260655414156124745760405162461bcd60e51b8152600401610ce090615986565b6002606555612481614470565b6001600160a01b038316600090815260d66020526040902060080154610100900460ff166124e75760405162461bcd60e51b8152602060048201526013602482015272131bd8dad95c9cce881b9bc81c995c5d595cdd606a1b6044820152606401610ce0565b6001600160a01b038316600090815260d66020526040902060080180546301000000600161ffff19909216821763ff00000019161790915560d45461252c9190615d17565b60d45560d55461253d906001615bac565b60d5556001600160a01b038316600090815260d66020526040908190209051849160d99161256b91906155eb565b908152604080516020928190038301812080546001600160a01b0319166001600160a01b03958616179055928616600081815260d690935291206003810154600482015492937f3840128cd2c146a0ea7739b8440e824c6d2d498ae32274812561d689d751e75e936117139392914290615790565b806001600160a01b0381166126075760405162461bcd60e51b8152600401610ce090615904565b61260f614470565b5060cd80546001600160a01b03199081166001600160a01b03938416179182905560e68054929093169116179055565b6060816001600160a01b0381166126685760405162461bcd60e51b8152600401610ce090615904565b6001600160a01b038316600090815260d660205260409020805461268b90615d2e565b80601f01602080910402602001604051908101604052809291908181526020018280546126b790615d2e565b80156127045780601f106126d957610100808354040283529160200191612704565b820191906000526020600020905b8154815290600101906020018083116126e757829003601f168201915b5050505050915050919050565b612719614470565b60d2548110156127775760405162461bcd60e51b815260206004820152602360248201527f4c6f636b6572733a204352206d7573742062652067726561746572207468616e60448201526210262960e91b6064820152608401610ce0565b60d181905560ea55565b612789614470565b61279161478b565b565b61279b614470565b6127108111156127ed5760405162461bcd60e51b815260206004820152601b60248201527f4c6f636b6572733a20696e76616c6964206c6f636b65722066656500000000006044820152606401610ce0565b60d081905560e955565b60006002606554141561281c5760405162461bcd60e51b8152600401610ce090615986565b60026065553482146128655760405162461bcd60e51b81526020600482015260126024820152714c6f636b6572733a206d73672076616c756560701b6044820152606401610ce0565b6001600160a01b038316600090815260d6602052604090819020905163015d95e560e01b815260048101919091526024810183905273AC615Ea4036CD4808547a80C31Af94D29fC1E9909063015d95e59060440160006040518083038186803b1580156128d157600080fd5b505af41580156128e5573d6000803e3d6000fd5b505050506001600160a01b038316600081815260d6602090815260409182902060040154825186815291820152428183015290517f2d2b4797badefe26cd5674f9bc2b8f5ed98e2a663e1a977af971254cfefd15ad9181900360600190a25060018060655592915050565b612958614470565b61279160006147dd565b806001600160a01b0381166129895760405162461bcd60e51b8152600401610ce090615904565b612991614470565b5060ca80546001600160a01b03199081166001600160a01b03938416179182905560e38054929093169116179055565b6129c9614470565b60d281905560eb55565b6000826001600160a01b0381166129fc5760405162461bcd60e51b8152600401610ce090615904565b8260008111612a1d5760405162461bcd60e51b8152600401610ce0906158d4565b60026065541415612a405760405162461bcd60e51b8152600401610ce090615986565b6002606555612a4d6144ca565b6001600160a01b038516600090815260d6602052604090206008015460ff16612a885760405162461bcd60e51b8152600401610ce090615888565b6001600160a01b038516600090815260d6602052604080822081516101808101909252805482908290612aba90615d2e565b80601f0160208091040260200160405190810160405280929190818152602001828054612ae690615d2e565b8015612b335780601f10612b0857610100808354040283529160200191612b33565b820191906000526020600020905b815481529060010190602001808311612b1657829003601f168201915b5050509183525050600182015460209091019060ff166004811115612b6857634e487b7160e01b600052602160045260246000fd5b6004811115612b8757634e487b7160e01b600052602160045260246000fd5b8152602001600282018054612b9b90615d2e565b80601f0160208091040260200160405190810160405280929190818152602001828054612bc790615d2e565b8015612c145780601f10612be957610100808354040283529160200191612c14565b820191906000526020600020905b815481529060010190602001808311612bf757829003601f168201915b505050918352505060038201546020820152600482015460408201526005820154606082015260068201546080820152600782015460a082015260089091015460ff808216151560c08401526101008083048216151560e0850152620100008304821615159084015263010000009091041615156101209091015290506000612c9b6113f2565b905061271073AC615Ea4036CD4808547a80C31Af94D29fC1E9906329bb9f998460dc60e2866040518563ffffffff1660e01b8152600401612cdf94939291906159bd565b60206040518083038186803b158015612cf757600080fd5b505af4158015612d0b573d6000803e3d6000fd5b505050506040513d601f19601f82011682018060405250810190612d2f91906153bf565b10612d725760405162461bcd60e51b81526020600482015260136024820152724c6f636b6572733a206973206865616c74687960681b6044820152606401610ce0565b604051634d69520760e01b815260009073AC615Ea4036CD4808547a80C31Af94D29fC1E99090634d69520790612db490869060dc9060e29088906004016159bd565b60206040518083038186803b158015612dcc57600080fd5b505af4158015612de0573d6000803e3d6000fd5b505050506040513d601f19601f82011682018060405250810190612e0491906153bf565b90508260800151811115612e19575060808201515b80871115612e775760405162461bcd60e51b815260206004820152602560248201527f4c6f636b6572733a206e6f7420656e6f75676820636f6c6c61746572616c20746044820152646f2062757960d81b6064820152608401610ce0565b60405163d061362360e01b815260009073AC615Ea4036CD4808547a80C31Af94D29fC1E9909063d061362390612eb99060dc9060e2908d908990600401615af8565b60206040518083038186803b158015612ed157600080fd5b505af4158015612ee5573d6000803e3d6000fd5b505050506040513d601f19601f82011682018060405250810190612f0991906153bf565b60cb5460408087015160208801518851925163218a4edd60e11b81529495506001600160a01b03909316936343149dba93612f4993879392600401615b69565b602060405180830381600087803b158015612f6357600080fd5b505af1158015612f77573d6000803e3d6000fd5b505050506040513d601f19601f82011682018060405250810190612f9b91906153bf565b506001600160a01b038916600090815260d66020526040902060050154612fc3908290615d17565b6001600160a01b038a16600090815260d660205260409020600581019190915560040154612ff2908990615d17565b6001600160a01b038a16600090815260d66020526040902060040155613018338961466d565b6001600160a01b0389167fd63782183ccef603c2adba105774db58e1701ea5e7b3e23eded1b5e967a3654c338a8442604051613057949392919061565a565b60405180910390a260019650505050505050600160655592915050565b806001600160a01b03811661309b5760405162461bcd60e51b8152600401610ce090615904565b6130a3614470565b6130ac82613165565b156130c95760405162461bcd60e51b8152600401610ce090615847565b506001600160a01b0316600090815260da60205260409020805460ff19166001179055565b6130f6614470565b60ce81905560e755565b6000816001600160a01b0381166131295760405162461bcd60e51b8152600401610ce090615904565b50506001600160a01b0316600090815260d660205260409020600801546301000000900460ff1690565b61315b614470565b60cf81905560e855565b6000816001600160a01b03811661318e5760405162461bcd60e51b8152600401610ce090615904565b50506001600160a01b0316600090815260da602052604090205460ff1690565b60d6602052600090815260409020805481906131c990615d2e565b80601f01602080910402602001604051908101604052809291908181526020018280546131f590615d2e565b80156132425780601f1061321757610100808354040283529160200191613242565b820191906000526020600020905b81548152906001019060200180831161322557829003601f168201915b5050506001840154600285018054949560ff90921694919350915061326690615d2e565b80601f016020809104026020016040519081016040528092919081815260200182805461329290615d2e565b80156132df5780601f106132b4576101008083540402835291602001916132df565b820191906000526020600020905b8154815290600101906020018083116132c257829003601f168201915b5050506003840154600485015460058601546006870154600788015460089098015496979396929550909350919060ff80821691610100810482169162010000820481169163010000009004168c565b600060d6600060d985856040516133479291906155db565b9081526040805160209281900383019020546001600160a01b0316835290820192909252016000206008015460ff169392505050565b6000600260655414156133a25760405162461bcd60e51b8152600401610ce090615986565b600260655533600090815260d66020526040902060080154610100900460ff16156134075760405162461bcd60e51b81526020600482015260156024820152744c6f636b6572733a2069732063616e64696461746560581b6044820152606401610ce0565b33600090815260d6602052604090206008015460ff161561345f5760405162461bcd60e51b81526020600482015260126024820152712637b1b5b2b9399d1034b9903637b1b5b2b960711b6044820152606401610ce0565b60ce548610156134a45760405162461bcd60e51b815260206004820152601060248201526f131bd8dad95c9cce881b1bddc815111560821b6044820152606401610ce0565b60cf5485101580156134b557508434145b6134f45760405162461bcd60e51b815260206004820152601060248201526f131bd8dad95c9cce881b1bddc815139560821b6044820152606401610ce0565b60006001600160a01b031660d989896040516135119291906155db565b908152604051908190036020019020546001600160a01b0316146135775760405162461bcd60e51b815260206004820152601c60248201527f4c6f636b6572733a2075736564206c6f636b696e6720736372697074000000006044820152606401610ce0565b60c9546001600160a01b03166323b872dd336040516001600160e01b031960e084901b1681526001600160a01b03909116600482015230602482015260448101899052606401602060405180830381600087803b1580156135d757600080fd5b505af11580156135eb573d6000803e3d6000fd5b505050506040513d601f19601f8201168201806040525081019061360f9190615161565b61361857600080fd5b6136856040805161018081019091526060815260208101600081526020016060815260200160008152602001600081526020016000815260200160008152602001600081526020016000151581526020016000151581526020016000151581526020016000151581525090565b88888080601f01602080910402602001604051908101604052809392919081815260200183838082843760009201919091525050509082525060608101879052608081018690526001610120820152602081018560048111156136f857634e487b7160e01b600052602160045260246000fd5b9081600481111561371957634e487b7160e01b600052602160045260246000fd5b8152505083838080601f016020809104026020016040519081016040528093929190818152602001838380828437600092018290525060408681019590955233815260d6602090815294902085518051879692955061377e9450859350910190614edc565b50602082015160018083018054909160ff19909116908360048111156137b457634e487b7160e01b600052602160045260246000fd5b0217905550604082015180516137d4916002840191602090910190614edc565b50606082015160038201556080820151600482015560a0820151600582015560c0820151600682015560e08201516007820155610100808301516008909201805461012085015161014086015161016090960151151563010000000263ff00000019961515620100000262ff00001992151590950261ff001996151560ff1990941693909317959095169190911716919091179290921617905560d45461387c906001615bac565b60d455336001600160a01b03167fe5f7957016a87f9d7bacdd371a516d7f2c5667aa5676c7e07cc8c0bbc6e5067b8a8a8a8a6040516138be9493929190615680565b60405180910390a260019150506001606555979650505050505050565b600054610100900460ff16158080156138fb5750600054600160ff909116105b8061391c575061390a3061482f565b15801561391c575060005460ff166001145b61397f5760405162461bcd60e51b815260206004820152602e60248201527f496e697469616c697a61626c653a20636f6e747261637420697320616c72656160448201526d191e481a5b9a5d1a585b1a5e995960921b6064820152608401610ce0565b6000805460ff1916600117905580156139a2576000805461ff0019166101001790555b6139aa614842565b6139b2614871565b6139ba6148a0565b6001600160a01b038a16158015906139da57506001600160a01b03891615155b80156139ee57506001600160a01b03881615155b613a0a5760405162461bcd60e51b8152600401610ce090615904565b86151580613a1757508515155b613a635760405162461bcd60e51b815260206004820152601760248201527f4c6f636b6572733a20616d6f756e74206973207a65726f0000000000000000006044820152606401610ce0565b838510158015613a7557506127108410155b613ac15760405162461bcd60e51b815260206004820152601d60248201527f4c6f636b6572733a2070726f626c656d20696e20435220616e64204c520000006044820152606401610ce0565b612710821115613b135760405162461bcd60e51b815260206004820152601760248201527f4c6f636b6572733a206c657373207468616e20313030250000000000000000006044820152606401610ce0565b60c980546001600160a01b03808d166001600160a01b0319928316179283905560cc80548d8316908416179081905560cd80548d8416908516179081905560ce8c905560cf8b905560d18a905560d289905560d088905560d387905561271060dc81905560dd819055612ee060de5560df55601260e05560e180548516600117905560e2805485169584169590951790945560ca5460e38054851691841691909117905560cb5460e48054851691841691909117905560e58054841691831691909117905560e68054909216921691909117905560e787905560e886905560e983905560ea85905560eb84905560ec8290558015613c4b576000805461ff0019169055604051600181527f7f26b83ff96e1f2b6a682f133852f6798a09c465da95921460cefb38474024989060200160405180910390a15b50505050505050505050565b600060d98383604051613c6b9291906155db565b908152604051908190036020019020546001600160a01b0316905092915050565b6000816001600160a01b038116613cb55760405162461bcd60e51b8152600401610ce090615904565b60026065541415613cd85760405162461bcd60e51b8152600401610ce090615986565b6002606555613ce5614470565b613cee836148cf565b60019150506001606555919050565b600060026065541415613d225760405162461bcd60e51b8152600401610ce090615986565b600260655533600090815260d6602052604090206008015460ff16613d595760405162461bcd60e51b8152600401610ce090615888565b33600081815260d66020818152604080842060088101805463ff0000001916905560d7835293819020805460ff1916600117905591905260038201546004830154600584015492517f2cf13a17a26f23ac9b786e628031eac7ebf6bb0b34e3f477f340079eb68d9a3e94613dd09490939291615790565b60405180910390a25060018060655590565b806001600160a01b038116613e095760405162461bcd60e51b8152600401610ce090615904565b613e11614470565b5060cc80546001600160a01b03199081166001600160a01b03938416179182905560e58054929093169116179055565b6000816001600160a01b038116613e6a5760405162461bcd60e51b8152600401610ce090615904565b6001600160a01b038316600090815260d6602052604090206005015460d154612710613e9586614d74565b613e9f9190615cf8565b613ea99190615bc4565b613eb39190615d17565b9392505050565b600060026065541415613edf5760405162461bcd60e51b8152600401610ce090615986565b600260655533600090815260d66020526040902060080154610100900460ff16613f3d5760405162461bcd60e51b815260206004820152600f60248201526e4c6f636b6572733a206e6f2072657160881b6044820152606401610ce0565b33600090815260d6602052604080822081516101808101909252805482908290613f6690615d2e565b80601f0160208091040260200160405190810160405280929190818152602001828054613f9290615d2e565b8015613fdf5780601f10613fb457610100808354040283529160200191613fdf565b820191906000526020600020905b815481529060010190602001808311613fc257829003601f168201915b5050509183525050600182015460209091019060ff16600481111561401457634e487b7160e01b600052602160045260246000fd5b600481111561403357634e487b7160e01b600052602160045260246000fd5b815260200160028201805461404790615d2e565b80601f016020809104026020016040519081016040528092919081815260200182805461407390615d2e565b80156140c05780601f10614095576101008083540402835291602001916140c0565b820191906000526020600020905b8154815290600101906020018083116140a357829003601f168201915b505050918352505060038201546020820152600482015460408201526005820154606082015260068201546080820152600782015460a082015260089091015460ff808216151560c08401526101008083048216151560e08501526201000083048216151590840152630100000090910416151561012090910152905060d66000336001600160a01b0316815260208101919091526040016000908120906141688282614f60565b60018201805460ff19169055614182600283016000614f60565b506000600382018190556004820181905560058201819055600682018190556007820155600801805463ffffffff1916905560d4546141c390600190615d17565b60d45560c9546001600160a01b031663a9059cbb3360608401516040516001600160e01b031960e085901b1681526001600160a01b0390921660048301526024820152604401602060405180830381600087803b15801561422357600080fd5b505af1158015614237573d6000803e3d6000fd5b505050506040513d601f19601f8201168201806040525081019061425b9190615161565b5061426a33826080015161466d565b33600081815260d66020526040908190206003810154600482015492517f10f84ef0773ba7ade3714f4e500ca17436e6df2b0feb99c754c04f889290cbd4936142b493929161577d565b60405180910390a26001915050600160655590565b6142d1614470565b612791614dc5565b806001600160a01b0381166143005760405162461bcd60e51b8152600401610ce090615904565b614308614470565b5060cb80546001600160a01b03199081166001600160a01b03938416179182905560e48054929093169116179055565b614340614470565b6001600160a01b0381166143a55760405162461bcd60e51b815260206004820152602660248201527f4f776e61626c653a206e6577206f776e657220697320746865207a65726f206160448201526564647265737360d01b6064820152608401610ce0565b6143ae816147dd565b50565b806001600160a01b0381166143d85760405162461bcd60e51b8152600401610ce090615904565b6143e0614470565b6143e982611dd5565b156144065760405162461bcd60e51b8152600401610ce090615847565b506001600160a01b0316600090815260db60205260409020805460ff19166001179055565b6000600260655414156144505760405162461bcd60e51b8152600401610ce090615986565b600260655561445d6144ca565b614466336148cf565b5060018060655590565b6033546001600160a01b031633146127915760405162461bcd60e51b815260206004820181905260248201527f4f776e61626c653a2063616c6c6572206973206e6f7420746865206f776e65726044820152606401610ce0565b60975460ff16156127915760405162461bcd60e51b815260206004820152601060248201526f14185d5cd8589b194e881c185d5cd95960821b6044820152606401610ce0565b600885015460ff166145645760405162461bcd60e51b815260206004820181905260248201527f4c6f636b6572733a206163636f756e74206973206e6f742061206c6f636b65726044820152606401610ce0565b600085600501548560800151600a61457c9190615c2a565b85610100015161458c9190615cf8565b8651600489015461459e908790615cf8565b6145a89190615cf8565b6145b29190615bc4565b6145bc9190615d17565b90506000838660800151600a6145d29190615c2a565b6145dc9084615cf8565b6145e69190615bc4565b90508083111561464c5760405162461bcd60e51b815260206004820152602b60248201527f4c6f636b6572733a206d6f7265207468616e206d61782072656d6f7661626c6560448201526a0818dbdb1b185d195c985b60aa1b6064820152608401610ce0565b82876004015461465c9190615d17565b876004018190555050505050505050565b804710156146bd5760405162461bcd60e51b815260206004820152601d60248201527f416464726573733a20696e73756666696369656e742062616c616e63650000006044820152606401610ce0565b6000826001600160a01b03168260405160006040518083038185875af1925050503d806000811461470a576040519150601f19603f3d011682016040523d82523d6000602084013e61470f565b606091505b50509050806147865760405162461bcd60e51b815260206004820152603a60248201527f416464726573733a20756e61626c6520746f2073656e642076616c75652c207260448201527f6563697069656e74206d617920686176652072657665727465640000000000006064820152608401610ce0565b505050565b614793614e02565b6097805460ff191690557f5db9ee0a495bf2e6ff9c91a7834c1ba4fdd244a5e8aa4e537bd38aeae4b073aa335b6040516001600160a01b03909116815260200160405180910390a1565b603380546001600160a01b038381166001600160a01b0319831681179093556040519116919082907f8be0079c531659141344cd1fd0a4f28419497f9722a3daafe3b4186f6b6457e090600090a35050565b6001600160a01b0381163b15155b919050565b600054610100900460ff166148695760405162461bcd60e51b8152600401610ce09061593b565b612791614e4b565b600054610100900460ff166148985760405162461bcd60e51b8152600401610ce09061593b565b612791614e7b565b600054610100900460ff166148c75760405162461bcd60e51b8152600401610ce09061593b565b612791614ea9565b6001600160a01b038116600090815260d6602052604090206008015460ff1661492f5760405162461bcd60e51b81526020600482015260126024820152712637b1b5b2b9399d103737903637b1b5b2b960711b6044820152606401610ce0565b6001600160a01b038116600090815260d7602052604090205460ff166149905760405162461bcd60e51b81526020600482015260166024820152754c6f636b6572733a206e6f2072656d6f76652072657160501b6044820152606401610ce0565b6001600160a01b038116600090815260d66020526040902060050154156149f15760405162461bcd60e51b8152602060048201526015602482015274131bd8dad95c9cce880c081b995d081b5a5b9d1959605a1b6044820152606401610ce0565b6001600160a01b038116600090815260d6602052604080822081516101808101909252805482908290614a2390615d2e565b80601f0160208091040260200160405190810160405280929190818152602001828054614a4f90615d2e565b8015614a9c5780601f10614a7157610100808354040283529160200191614a9c565b820191906000526020600020905b815481529060010190602001808311614a7f57829003601f168201915b5050509183525050600182015460209091019060ff166004811115614ad157634e487b7160e01b600052602160045260246000fd5b6004811115614af057634e487b7160e01b600052602160045260246000fd5b8152602001600282018054614b0490615d2e565b80601f0160208091040260200160405190810160405280929190818152602001828054614b3090615d2e565b8015614b7d5780601f10614b5257610100808354040283529160200191614b7d565b820191906000526020600020905b815481529060010190602001808311614b6057829003601f168201915b5050509183525050600382015460208083019190915260048301546040808401919091526005840154606084015260068401546080840152600784015460a084015260089093015460ff808216151560c08501526101008083048216151560e086015262010000830482161515908501526301000000909104161515610120909201919091526001600160a01b038516600090815260d6909152908120919250614c278282614f60565b60018201805460ff19169055614c41600283016000614f60565b506000600382018190556004820181905560058201819055600682018190556007820155600801805463ffffffff1916905560d554614c8290600190615d17565b60d55560c954606082015160405163a9059cbb60e01b81526001600160a01b038581166004830152602482019290925291169063a9059cbb90604401602060405180830381600087803b158015614cd857600080fd5b505af1158015614cec573d6000803e3d6000fd5b505050506040513d601f19601f82011682018060405250810190614d109190615161565b50614d1f82826080015161466d565b816001600160a01b03167f628f3d67160bc1a892a1779c6475e128010a54df63af5dcdbf3c7b06ca5dfa97826000015183606001518460800151604051614d6893929190615758565b60405180910390a25050565b6001600160a01b038116600090815260d66020526040812060040154600a90670de0b6b3a764000090614dab906305f5e100615cf8565b614db59190615bc4565b614dbf9190615bc4565b92915050565b614dcd6144ca565b6097805460ff191660011790557f62e78cea01bee320cd4e420270b5ea74000d11b0c9f74754ebdbfc544b05a2586147c03390565b60975460ff166127915760405162461bcd60e51b815260206004820152601460248201527314185d5cd8589b194e881b9bdd081c185d5cd95960621b6044820152606401610ce0565b600054610100900460ff16614e725760405162461bcd60e51b8152600401610ce09061593b565b612791336147dd565b600054610100900460ff16614ea25760405162461bcd60e51b8152600401610ce09061593b565b6001606555565b600054610100900460ff16614ed05760405162461bcd60e51b8152600401610ce09061593b565b6097805460ff19169055565b828054614ee890615d2e565b90600052602060002090601f016020900481019282614f0a5760008555614f50565b82601f10614f2357805160ff1916838001178555614f50565b82800160010185558215614f50579182015b82811115614f50578251825591602001919060010190614f35565b50614f5c929150614f98565b5090565b508054614f6c90615d2e565b6000825580601f10614f7e57506143ae565b601f0160209004906000526020600020908101906143ae91905b5b80821115614f5c5760008155600101614f99565b80356001600160a01b038116811461483d57600080fd5b60008083601f840112614fd5578081fd5b50813567ffffffffffffffff811115614fec578182fd5b60208301915083602082850101111561500457600080fd5b9250929050565b60006020828403121561501c578081fd5b613eb382614fad565b60008060008060008060008060006101208a8c031215615043578485fd5b61504c8a614fad565b985061505a60208b01614fad565b975061506860408b01614fad565b989b979a5097986060810135985060808101359760a0820135975060c0820135965060e08201359550610100909101359350915050565b600080604083850312156150b1578182fd5b6150ba83614fad565b946020939093013593505050565b600080600080608085870312156150dd578384fd5b6150e685614fad565b9350602085013592506150fb60408601614fad565b9396929550929360600135925050565b600080600080600060a08688031215615122578081fd5b61512b86614fad565b94506020860135935061514060408701614fad565b92506060860135915061515560808701614fad565b90509295509295909350565b600060208284031215615172578081fd5b81518015158114613eb3578182fd5b60008060208385031215615193578182fd5b823567ffffffffffffffff8111156151a9578283fd5b6151b585828601614fc4565b90969095509350505050565b600080600080606085870312156151d6578384fd5b843567ffffffffffffffff8111156151ec578485fd5b6151f887828801614fc4565b909550935061520b905060208601614fad565b9396929550929360400135925050565b60008060006040848603121561522f578283fd5b833567ffffffffffffffff811115615245578384fd5b61525186828701614fc4565b909790965060209590950135949350505050565b600080600080600080600060a0888a03121561527f578283fd5b873567ffffffffffffffff80821115615296578485fd5b6152a28b838c01614fc4565b909950975060208a0135965060408a0135955060608a01359150600582106152c8578485fd5b909350608089013590808211156152dd578384fd5b506152ea8a828b01614fc4565b989b979a50959850939692959293505050565b60006020828403121561530e578081fd5b813567ffffffffffffffff80821115615325578283fd5b818401915084601f830112615338578283fd5b81358181111561534a5761534a615d79565b604051601f8201601f19908116603f0116810190838211818310171561537257615372615d79565b8160405282815287602084870101111561538a578586fd5b826020860160208301379182016020019490945295945050505050565b6000602082840312156153b8578081fd5b5035919050565b6000602082840312156153d0578081fd5b5051919050565b600080604083850312156153e9578182fd5b505080516020909101519092909150565b60006020828403121561540b578081fd5b815160ff81168114613eb3578182fd5b60008151808452815b8181101561544057602081850181015186830182015201615424565b818111156154515782602083870101525b50601f01601f19169290920160200192915050565b6000815461547381615d2e565b80855260206001838116801561549057600181146154a4576154d2565b60ff198516888401526040880195506154d2565b866000528260002060005b858110156154ca5781548a82018601529083019084016154af565b890184019650505b505050505092915050565b600581106154fb57634e487b7160e01b600052602160045260246000fd5b9052565b8054825260018101546020830152600281015460408301526003810154606083015260048101546080830152600501546001600160a01b031660a090910152565b6155628261555583546001600160a01b031690565b6001600160a01b03169052565b60018101546001600160a01b0390811660208401526002820154811660408401526003820154811660608401526004820154166080830152600581015460a0830152600681015460c0830152600781015460e083015260088101546101008301526009810154610120830152600a015461014090910152565b6000828483379101908152919050565b60008083546155f981615d2e565b6001828116801561561157600181146156225761564e565b60ff1984168752828701945061564e565b8786526020808720875b858110156156455781548a82015290840190820161562c565b50505082870194505b50929695505050505050565b6001600160a01b0394909416845260208401929092526040830152606082015260800190565b6000606082528460608301528486608084013780608086840101526080601f19601f870116830101905083602083015282604083015295945050505050565b600060208252613eb3602083018461541b565b600061018082526156e761018083018f61541b565b6156f4602084018f6154dd565b8281036040840152615706818e61541b565b606084019c909c525050608081019890985260a088019690965260c087019490945260e08601929092521515610100850152151561012084015215156101408301521515610160909101529392505050565b60006060825261576b606083018661541b565b60208301949094525060400152919050565b60006060825261576b6060830186615466565b6000608082526157a36080830187615466565b6020830195909552506040810192909252606090910152919050565b60208082526023908201527f4c6f636b6572733a206163636f756e7420646f6573206e6f74206861766520726040820152626f6c6560e81b606082015260800190565b60208082526025908201527f4c6f636b6572733a206d6573736167652073656e646572206973206e6f74206360408201526431a13ab93760d91b606082015260800190565b60208082526021908201527f4c6f636b6572733a206163636f756e7420616c72656164792068617320726f6c6040820152606560f81b606082015260800190565b6020808252602c908201527f4c6f636b6572733a20696e7075742061646472657373206973206e6f7420612060408201526b3b30b634b2103637b1b5b2b960a11b606082015260800190565b6020808252601690820152754c6f636b6572733a2076616c7565206973207a65726f60501b604082015260600190565b60208082526018908201527f4c6f636b6572733a2061646472657373206973207a65726f0000000000000000604082015260600190565b6020808252602b908201527f496e697469616c697a61626c653a20636f6e7472616374206973206e6f74206960408201526a6e697469616c697a696e6760a81b606082015260800190565b6020808252601f908201527f5265656e7472616e637947756172643a207265656e7472616e742063616c6c00604082015260600190565b60006102608083528651610180828501526159dc6103e085018261541b565b91505060208701516159f26102808501826154dd565b50604087015183820361025f19016102a0850152615a10828261541b565b91505060608701516102c084015260808701516102e084015260a087015161030084015260c087015161032084015260e0870151610340840152610100870151615a5f61036085018215159052565b50610120870151151561038084015261014087015115156103a084015261016087015115156103c08401529050615a9960208301866154ff565b615aa660e0830185615540565b8261024083015295945050505050565b8681526102a08101615acb60208301886154ff565b615ad860e0830187615540565b846102408301528361026083015282610280830152979650505050505050565b6102608101615b0782876154ff565b615b1460c0830186615540565b610220820193909352610240015292915050565b9687526001600160a01b0395861660208801526040870194909452919093166060850152608084019290925260a0830191909152151560c082015260e00190565b600085825260806020830152615b82608083018661541b565b615b8f60408401866154dd565b8281036060840152615ba1818561541b565b979650505050505050565b60008219821115615bbf57615bbf615d63565b500190565b600082615bdf57634e487b7160e01b81526012600452602481fd5b500490565b80825b6001808611615bf65750615c21565b818704821115615c0857615c08615d63565b80861615615c1557918102915b9490941c938002615be7565b94509492505050565b6000613eb36000198484600082615c4357506001613eb3565b81615c5057506000613eb3565b8160018114615c665760028114615c7057615c9d565b6001915050613eb3565b60ff841115615c8157615c81615d63565b6001841b915084821115615c9757615c97615d63565b50613eb3565b5060208310610133831016604e8410600b8410161715615cd0575081810a83811115615ccb57615ccb615d63565b613eb3565b615cdd8484846001615be4565b808604821115615cef57615cef615d63565b02949350505050565b6000816000190483118215151615615d1257615d12615d63565b500290565b600082821015615d2957615d29615d63565b500390565b600281046001821680615d4257607f821691505b60208210811415611e1d57634e487b7160e01b600052602260045260246000fd5b634e487b7160e01b600052601160045260246000fd5b634e487b7160e01b600052604160045260246000fdfea26469706673582212208683ef3f03db975fd74fb8a1900a543e3dc4819959276e129d40d4b516ed262864736f6c63430008020033",
  "deployedBytecode": "0x6080604052600436106103ef5760003560e01c806388aa0a5211610208578063bd60e79411610118578063dd0081c7116100ab578063ee1f1c701161007a578063ee1f1c7014610c2f578063ef69a7bc14610c4f578063f2fde38b14610c64578063f44637ba14610c84578063ffc9f70414610ca4576103ef565b8063dd0081c7146106a0578063e85501d814610bef578063e955de4514610c04578063ed110a9c14610c19576103ef565b8063ca666b84116100e7578063ca666b8414610b30578063cab1344e14610b45578063cdcbc87914610b65578063d5a38a9114610bcf576103ef565b8063bd60e79414610a15578063c0924b8014610ad0578063c4d10b6a14610af0578063c6de080e14610b10576103ef565b8063a839db241161019b578063b1016bdf1161016a578063b1016bdf146109a0578063b291ec13146109b3578063b4eae1cb146109c9578063bb4a2509146109df578063bc805d1d146109ff576103ef565b8063a839db2414610908578063aa271e1a14610928578063af1ea79514610948578063aff2faa314610980576103ef565b806396ec39e8116101d757806396ec39e814610888578063983b2d56146108a85780639bf09882146108c85780639f8a13d7146108e8576103ef565b806388aa0a52146108145780638d3d78cd1461082a5780638da5cb5b1461084a578063946ce8cd14610868576103ef565b806343b9370711610303578063613e2e1e116102965780636d75b9ee116102655780636d75b9ee1461079c578063715018a6146107af578063768ebb12146106a05780637da5f0da146107c45780637f0f1817146107f4576103ef565b8063613e2e1e1461073b57806363908020146107505780636600203d146107665780636d32395c14610786576103ef565b80635a8d80b8116102d25780635a8d80b8146106b65780635c975abb146106d65780635d6464ba146106ee5780636060663e1461071b576103ef565b806343b937071461064057806345cc589014610660578063530e784f1461068057806354509b97146106a0576103ef565b8063264db4ae1161038657806333c99e1d1161035557806333c99e1d1461058957806338463cff146105a957806341f3ec11146105c957806341fae5791461060a5780634334614a14610620576103ef565b8063264db4ae1461052c5780633092afd51461054157806331f7d964146105615780633237c15814610576576103ef565b80631697565b116103c25780631697565b146104b65780631775765f146104d65780631fcfe19c146104ec5780632630c12f1461050c576103ef565b806302846858146103f4578063043fd54b146104165780630c42cbc91461045b578063108f438d1461047e575b600080fd5b34801561040057600080fd5b5061041461040f36600461500b565b610cb9565b005b34801561042257600080fd5b5061044661043136600461500b565b60d76020526000908152604090205460ff1681565b60405190151581526020015b60405180910390f35b34801561046757600080fd5b50610470601281565b604051908152602001610452565b34801561048a57600080fd5b5060c95461049e906001600160a01b031681565b6040516001600160a01b039091168152602001610452565b3480156104c257600080fd5b506104466104d136600461510b565b610d38565b3480156104e257600080fd5b5061047060d25481565b3480156104f857600080fd5b506104706105073660046151c1565b6110a7565b34801561051857600080fd5b5060cd5461049e906001600160a01b031681565b34801561053857600080fd5b506104706113f2565b34801561054d57600080fd5b5061041461055c36600461500b565b61152b565b34801561056d57600080fd5b5061049e600181565b6104466105843660046153a7565b6115a1565b34801561059557600080fd5b506104466105a43660046150c8565b61172a565b3480156105b557600080fd5b506104706105c436600461521b565b611a47565b3480156105d557600080fd5b5061049e6105e43660046152fd565b805160208183018101805160d9825292820191909301209152546001600160a01b031681565b34801561061657600080fd5b5061047060ce5481565b34801561062c57600080fd5b5061044661063b36600461500b565b611dd5565b34801561064c57600080fd5b5061044661065b36600461509f565b611e23565b34801561066c57600080fd5b5061044661067b36600461500b565b612428565b34801561068c57600080fd5b5061041461069b36600461500b565b6125e0565b3480156106ac57600080fd5b5061047061271081565b3480156106c257600080fd5b5060cb5461049e906001600160a01b031681565b3480156106e257600080fd5b5060975460ff16610446565b3480156106fa57600080fd5b5061070e61070936600461500b565b61263f565b60405161045291906156bf565b34801561072757600080fd5b506104146107363660046153a7565b612711565b34801561074757600080fd5b50610414612781565b34801561075c57600080fd5b5061047060d05481565b34801561077257600080fd5b506104146107813660046153a7565b612793565b34801561079257600080fd5b5061047060cf5481565b6104466107aa36600461509f565b6127f7565b3480156107bb57600080fd5b50610414612950565b3480156107d057600080fd5b506104466107df36600461500b565b60d86020526000908152604090205460ff1681565b34801561080057600080fd5b5061041461080f36600461500b565b612962565b34801561082057600080fd5b5061047060d45481565b34801561083657600080fd5b5060ca5461049e906001600160a01b031681565b34801561085657600080fd5b506033546001600160a01b031661049e565b34801561087457600080fd5b506104146108833660046153a7565b6129c1565b34801561089457600080fd5b506104466108a336600461509f565b6129d3565b3480156108b457600080fd5b506104146108c336600461500b565b613074565b3480156108d457600080fd5b506104146108e33660046153a7565b6130ee565b3480156108f457600080fd5b5061044661090336600461500b565b613100565b34801561091457600080fd5b506104146109233660046153a7565b613153565b34801561093457600080fd5b5061044661094336600461500b565b613165565b34801561095457600080fd5b5061096861096336600461500b565b6131ae565b6040516104529c9b9a999897969594939291906156d2565b34801561098c57600080fd5b5061044661099b366004615181565b61332f565b6104466109ae366004615265565b61337d565b3480156109bf57600080fd5b5061047060d35481565b3480156109d557600080fd5b5061047060d15481565b3480156109eb57600080fd5b506104146109fa366004615025565b6138db565b348015610a0b57600080fd5b50610470612ee081565b348015610a2157600080fd5b5060e25460e35460e45460e55460e65460e75460e85460e95460ea5460eb5460ec54610a669a6001600160a01b039081169a811699811698811697169594939291908b565b604080516001600160a01b039c8d1681529a8c1660208c0152988b16988a0198909852958916606089015297909316608087015260a086019190915260c085015260e084015261010083019390935261012082019290925261014081019190915261016001610452565b348015610adc57600080fd5b5060cc5461049e906001600160a01b031681565b348015610afc57600080fd5b5061049e610b0b366004615181565b613c57565b348015610b1c57600080fd5b50610446610b2b36600461500b565b613c8c565b348015610b3c57600080fd5b50610446613cfd565b348015610b5157600080fd5b50610414610b6036600461500b565b613de2565b348015610b7157600080fd5b5060dc5460dd5460de5460df5460e05460e154610b999594939291906001600160a01b031686565b60408051968752602087019590955293850192909252606084015260808301526001600160a01b031660a082015260c001610452565b348015610bdb57600080fd5b50610470610bea36600461500b565b613e41565b348015610bfb57600080fd5b50610446613eba565b348015610c1057600080fd5b506104146142c9565b348015610c2557600080fd5b5061047060d55481565b348015610c3b57600080fd5b50610414610c4a36600461500b565b6142d9565b348015610c5b57600080fd5b5060d554610470565b348015610c7057600080fd5b50610414610c7f36600461500b565b614338565b348015610c9057600080fd5b50610414610c9f36600461500b565b6143b1565b348015610cb057600080fd5b5061044661442b565b806001600160a01b038116610ce95760405162461bcd60e51b8152600401610ce090615904565b60405180910390fd5b610cf1614470565b610cfa82611dd5565b610d165760405162461bcd60e51b8152600401610ce0906157bf565b506001600160a01b0316600090815260db60205260409020805460ff19169055565b600060026065541415610d5d5760405162461bcd60e51b8152600401610ce090615986565b6002606555610d6a6144ca565b60cb546001600160a01b0316336001600160a01b031614610d9d5760405162461bcd60e51b8152600401610ce090615802565b6001600160a01b038616600090815260d6602052604090206008015460ff16610dd85760405162461bcd60e51b8152600401610ce090615888565b60cd546000906001600160a01b03166316fac92a610df68689615bac565b60ca60009054906101000a90046001600160a01b03166001600160a01b031663313ce5676040518163ffffffff1660e01b815260040160206040518083038186803b158015610e4457600080fd5b505afa158015610e58573d6000803e3d6000fd5b505050506040513d601f19601f82011682018060405250810190610e7c91906153fa565b60ca5460405160e085901b6001600160e01b0319168152600481019390935260ff9091166024830152601260448301526001600160a01b031660648201526001608482015260a40160206040518083038186803b158015610edc57600080fd5b505afa158015610ef0573d6000803e3d6000fd5b505050506040513d601f19601f82011682018060405250810190610f1491906153bf565b6001600160a01b038816600090815260d66020526040902060040154909150811115610f5857506001600160a01b038616600090815260d660205260409020600401545b6001600160a01b038716600090815260d66020526040902060040154610f7f908290615d17565b6001600160a01b03808916600090815260d6602052604090206004019190915583166108fc610fae8887615bac565b610fb88785615cf8565b610fc29190615bc4565b6040518115909202916000818181858888f19350505050158015610fea573d6000803e3d6000fd5b506000610ff78786615bac565b6110018884615cf8565b61100b9190615bc4565b6040519091506001600160a01b0387169082156108fc029083906000818181858888f19350505050158015611044573d6000803e3d6000fd5b50876001600160a01b03167fab522c1322c34ea455e8f541ecfe1b73a29039f3658bff658cf12c9fd26dc016828888888742600160405161108b9796959493929190615b28565b60405180910390a2600192505050600160655595945050505050565b6000826001600160a01b0381166110d05760405162461bcd60e51b8152600401610ce090615904565b82600081116110f15760405162461bcd60e51b8152600401610ce0906158d4565b600260655414156111145760405162461bcd60e51b8152600401610ce090615986565b60026065556111216144ca565b61112a33610943565b6111765760405162461bcd60e51b815260206004820152601e60248201527f4c6f636b6572733a206f6e6c79206d696e746572732063616e206d696e7400006044820152606401610ce0565b600060d9888860405161118a9291906155db565b908152604051908190036020019020546001600160a01b0316905060006111b082613e41565b9050858110156112025760405162461bcd60e51b815260206004820152601e60248201527f4c6f636b6572733a20696e73756666696369656e7420636170616369747900006044820152606401610ce0565b6001600160a01b038216600090815260d66020526040902060050154611229908790615bac565b6001600160a01b038316600090815260d6602052604081206005019190915560d054612710906112599089615cf8565b6112639190615bc4565b905080156112f35760ca546040516340c10f1960e01b81526001600160a01b03858116600483015260248201849052909116906340c10f1990604401602060405180830381600087803b1580156112b957600080fd5b505af11580156112cd573d6000803e3d6000fd5b505050506040513d601f19601f820116820180604052508101906112f19190615161565b505b60ca546001600160a01b03166340c10f198961130f848b615d17565b6040516001600160e01b031960e085901b1681526001600160a01b0390921660048301526024820152604401602060405180830381600087803b15801561135557600080fd5b505af1158015611369573d6000803e3d6000fd5b505050506040513d601f19601f8201168201806040525081019061138d9190615161565b50826001600160a01b03167f8ad706b338c5d2a20b0d038b5cfdaf2b2f943f43048723bde0dccdf129598a11898984426040516113cd949392919061565a565b60405180910390a26113df8188615d17565b60016065559a9950505050505050505050565b60cd546000906001600160a01b03166316fac92a6114126012600a615c2a565b60ca546040805163313ce56760e01b815290516012926001600160a01b03169163313ce567916004808301926020929190829003018186803b15801561145757600080fd5b505afa15801561146b573d6000803e3d6000fd5b505050506040513d601f19601f8201168201806040525081019061148f91906153fa565b60ca5460405160e086901b6001600160e01b03191681526004810194909452602484019290925260ff166044830152600160648301526001600160a01b0316608482015260a40160206040518083038186803b1580156114ee57600080fd5b505afa158015611502573d6000803e3d6000fd5b505050506040513d601f19601f8201168201806040525081019061152691906153bf565b905090565b806001600160a01b0381166115525760405162461bcd60e51b8152600401610ce090615904565b61155a614470565b61156382613165565b61157f5760405162461bcd60e51b8152600401610ce0906157bf565b506001600160a01b0316600090815260da60205260409020805460ff19169055565b6000600260655414156115c65760405162461bcd60e51b8152600401610ce090615986565b600260655560006115d56113f2565b33600090815260d66020908152604091829020825160c0808201855260dc54825260dd548285015260de548286015260df5460608084019190915260e0805460808086019190915260e1546001600160a01b0390811660a080880191909152895161016081018b5260e2548316815260e35483169981019990995260e45482169989019990995260e55481169388019390935260e6549092169186019190915260e7549585019590955260e8549084015260e9549383019390935260ea5461010083015260eb5461012083015260ec546101408301529293506116bb9291908487614510565b6116c5338461466d565b33600081815260d660209081526040918290206004015482518781529182015242918101919091527f93ae1c71197ee1bd2ad44b7d57e7b34ca946aeb88fdb4fc4a45211dbeb2c3cc7906060015b60405180910390a260019150506001606555919050565b60006002606554141561174f5760405162461bcd60e51b8152600401610ce090615986565b600260655561175c6144ca565b60cb546001600160a01b0316336001600160a01b03161461178f5760405162461bcd60e51b8152600401610ce090615802565b6001600160a01b038516600090815260d6602052604090206008015460ff166117ca5760405162461bcd60e51b8152600401610ce090615888565b60cd5460ca546040805163313ce56760e01b815290516000936001600160a01b03908116936316fac92a938893919092169163313ce567916004808301926020929190829003018186803b15801561182157600080fd5b505afa158015611835573d6000803e3d6000fd5b505050506040513d601f19601f8201168201806040525081019061185991906153fa565b60ca5460405160e085901b6001600160e01b0319168152600481019390935260ff9091166024830152601260448301526001600160a01b031660648201526001608482015260a40160206040518083038186803b1580156118b957600080fd5b505afa1580156118cd573d6000803e3d6000fd5b505050506040513d601f19601f820116820180604052508101906118f191906153bf565b6001600160a01b038716600090815260d66020526040808220905163abb4649b60e01b81529293509091829173__$c4b8709fc407821a47433b8892c1b612a0$__9163abb4649b916119519160dc9060e29089908e908d90600401615ab6565b604080518083038186803b15801561196857600080fd5b505af415801561197c573d6000803e3d6000fd5b505050506040513d601f19601f820116820180604052508101906119a091906153d7565b60405191935091506001600160a01b0387169083156108fc029084906000818181858888f193505050501580156119db573d6000803e3d6000fd5b506001600160a01b0388167fab522c1322c34ea455e8f541ecfe1b73a29039f3658bff658cf12c9fd26dc01683888830611a158488615bac565b426000604051611a2b9796959493929190615b28565b60405180910390a2600193505050506001606555949350505050565b60008160008111611a6a5760405162461bcd60e51b8152600401610ce0906158d4565b60026065541415611a8d5760405162461bcd60e51b8152600401610ce090615986565b6002606555611a9a6144ca565b611aa33361063b565b611aef5760405162461bcd60e51b815260206004820152601e60248201527f4c6f636b6572733a206f6e6c79206275726e6572732063616e206275726e00006044820152606401610ce0565b600060d98686604051611b039291906155db565b9081526040519081900360200190205460ca546001600160a01b039182169250166323b872dd611b303390565b6040516001600160e01b031960e084901b1681526001600160a01b03909116600482015230602482015260448101879052606401602060405180830381600087803b158015611b7e57600080fd5b505af1158015611b92573d6000803e3d6000fd5b505050506040513d601f19601f82011682018060405250810190611bb69190615161565b50600061271060d05486611bca9190615cf8565b611bd49190615bc4565b90506000611be28287615d17565b6001600160a01b038416600090815260d6602052604090206005015490915081811015611c515760405162461bcd60e51b815260206004820152601b60248201527f4c6f636b6572733a20696e73756666696369656e742066756e647300000000006044820152606401610ce0565b611c5b8282615d17565b6001600160a01b03858116600090815260d66020526040908190206005019290925560ca549151630852cd8d60e31b8152600481018590529116906342966c6890602401602060405180830381600087803b158015611cb957600080fd5b505af1158015611ccd573d6000803e3d6000fd5b505050506040513d601f19601f82011682018060405250810190611cf19190615161565b5060ca5460405163a9059cbb60e01b81526001600160a01b038681166004830152602482018690529091169063a9059cbb90604401602060405180830381600087803b158015611d4057600080fd5b505af1158015611d54573d6000803e3d6000fd5b505050506040513d601f19601f82011682018060405250810190611d789190615161565b506040805188815260208101859052428183015290516001600160a01b038616917f66fb54322c407b04a077a306e72cdd780f0f374ba5dac9f6901a56a6255bc34a919081900360600190a2506001606555979650505050505050565b6000816001600160a01b038116611dfe5760405162461bcd60e51b8152600401610ce090615904565b6001600160a01b038316600090815260db602052604090205460ff1691505b50919050565b6000826001600160a01b038116611e4c5760405162461bcd60e51b8152600401610ce090615904565b8260008111611e6d5760405162461bcd60e51b8152600401610ce0906158d4565b60026065541415611e905760405162461bcd60e51b8152600401610ce090615986565b6002606555611e9d6144ca565b6001600160a01b038516600090815260d6602052604090206008015460ff16611ed85760405162461bcd60e51b8152600401610ce090615888565b6001600160a01b038516600090815260d6602052604080822081516101808101909252805482908290611f0a90615d2e565b80601f0160208091040260200160405190810160405280929190818152602001828054611f3690615d2e565b8015611f835780601f10611f5857610100808354040283529160200191611f83565b820191906000526020600020905b815481529060010190602001808311611f6657829003601f168201915b5050509183525050600182015460209091019060ff166004811115611fb857634e487b7160e01b600052602160045260246000fd5b6004811115611fd757634e487b7160e01b600052602160045260246000fd5b8152602001600282018054611feb90615d2e565b80601f016020809104026020016040519081016040528092919081815260200182805461201790615d2e565b80156120645780601f1061203957610100808354040283529160200191612064565b820191906000526020600020905b81548152906001019060200180831161204757829003601f168201915b505050918352505060038201546020820152600482015460408201526005820154606082015260068201546080820152600782015460a082015260089091015460ff808216151560c08401526101008083048216151560e08086019190915262010000840483161515918501919091526301000000909204161515610120909201919091528101519091508511156121545760405162461bcd60e51b815260206004820152602d60248201527f4c6f636b6572733a206e6f7420656e6f75676820736c617368656420636f6c6c60448201526c61746572616c20746f2062757960981b6064820152608401610ce0565b600061215e6113f2565b9050600073__$c4b8709fc407821a47433b8892c1b612a0$__63d061362360dc60e28a866040518563ffffffff1660e01b81526004016121a19493929190615af8565b60206040518083038186803b1580156121b957600080fd5b505af41580156121cd573d6000803e3d6000fd5b505050506040513d601f19601f820116820180604052508101906121f191906153bf565b90508260c0015181111561223d5760405162461bcd60e51b8152602060048201526013602482015272098dec6d6cae4e67440c6c2dce840e6d8c2e6d606b1b6044820152606401610ce0565b6001600160a01b038816600090815260d66020526040902060060154612264908290615d17565b6001600160a01b038916600090815260d660205260409020600681019190915560070154612293908890615d17565b6001600160a01b03898116600090815260d6602052604090206007019190915560ca54166323b872dd336040516001600160e01b031960e084901b1681526001600160a01b03909116600482015230602482015260448101849052606401602060405180830381600087803b15801561230b57600080fd5b505af115801561231f573d6000803e3d6000fd5b505050506040513d601f19601f820116820180604052508101906123439190615161565b5060ca54604051630852cd8d60e31b8152600481018390526001600160a01b03909116906342966c6890602401602060405180830381600087803b15801561238a57600080fd5b505af115801561239e573d6000803e3d6000fd5b505050506040513d601f19601f820116820180604052508101906123c29190615161565b506123cd338861466d565b6001600160a01b0388167fd03400b15a5f4cddbc57f0e81bca31db33e4d1ed1390211eade3518bce70562e3389844260405161240c949392919061565a565b60405180910390a2600195505050505050600160655592915050565b6000816001600160a01b0381166124515760405162461bcd60e51b8152600401610ce090615904565b600260655414156124745760405162461bcd60e51b8152600401610ce090615986565b6002606555612481614470565b6001600160a01b038316600090815260d66020526040902060080154610100900460ff166124e75760405162461bcd60e51b8152602060048201526013602482015272131bd8dad95c9cce881b9bc81c995c5d595cdd606a1b6044820152606401610ce0565b6001600160a01b038316600090815260d66020526040902060080180546301000000600161ffff19909216821763ff00000019161790915560d45461252c9190615d17565b60d45560d55461253d906001615bac565b60d5556001600160a01b038316600090815260d66020526040908190209051849160d99161256b91906155eb565b908152604080516020928190038301812080546001600160a01b0319166001600160a01b03958616179055928616600081815260d690935291206003810154600482015492937f3840128cd2c146a0ea7739b8440e824c6d2d498ae32274812561d689d751e75e936117139392914290615790565b806001600160a01b0381166126075760405162461bcd60e51b8152600401610ce090615904565b61260f614470565b5060cd80546001600160a01b03199081166001600160a01b03938416179182905560e68054929093169116179055565b6060816001600160a01b0381166126685760405162461bcd60e51b8152600401610ce090615904565b6001600160a01b038316600090815260d660205260409020805461268b90615d2e565b80601f01602080910402602001604051908101604052809291908181526020018280546126b790615d2e565b80156127045780601f106126d957610100808354040283529160200191612704565b820191906000526020600020905b8154815290600101906020018083116126e757829003601f168201915b5050505050915050919050565b612719614470565b60d2548110156127775760405162461bcd60e51b815260206004820152602360248201527f4c6f636b6572733a204352206d7573742062652067726561746572207468616e60448201526210262960e91b6064820152608401610ce0565b60d181905560ea55565b612789614470565b61279161478b565b565b61279b614470565b6127108111156127ed5760405162461bcd60e51b815260206004820152601b60248201527f4c6f636b6572733a20696e76616c6964206c6f636b65722066656500000000006044820152606401610ce0565b60d081905560e955565b60006002606554141561281c5760405162461bcd60e51b8152600401610ce090615986565b60026065553482146128655760405162461bcd60e51b81526020600482015260126024820152714c6f636b6572733a206d73672076616c756560701b6044820152606401610ce0565b6001600160a01b038316600090815260d6602052604090819020905163015d95e560e01b815260048101919091526024810183905273__$c4b8709fc407821a47433b8892c1b612a0$__9063015d95e59060440160006040518083038186803b1580156128d157600080fd5b505af41580156128e5573d6000803e3d6000fd5b505050506001600160a01b038316600081815260d6602090815260409182902060040154825186815291820152428183015290517f2d2b4797badefe26cd5674f9bc2b8f5ed98e2a663e1a977af971254cfefd15ad9181900360600190a25060018060655592915050565b612958614470565b61279160006147dd565b806001600160a01b0381166129895760405162461bcd60e51b8152600401610ce090615904565b612991614470565b5060ca80546001600160a01b03199081166001600160a01b03938416179182905560e38054929093169116179055565b6129c9614470565b60d281905560eb55565b6000826001600160a01b0381166129fc5760405162461bcd60e51b8152600401610ce090615904565b8260008111612a1d5760405162461bcd60e51b8152600401610ce0906158d4565b60026065541415612a405760405162461bcd60e51b8152600401610ce090615986565b6002606555612a4d6144ca565b6001600160a01b038516600090815260d6602052604090206008015460ff16612a885760405162461bcd60e51b8152600401610ce090615888565b6001600160a01b038516600090815260d6602052604080822081516101808101909252805482908290612aba90615d2e565b80601f0160208091040260200160405190810160405280929190818152602001828054612ae690615d2e565b8015612b335780601f10612b0857610100808354040283529160200191612b33565b820191906000526020600020905b815481529060010190602001808311612b1657829003601f168201915b5050509183525050600182015460209091019060ff166004811115612b6857634e487b7160e01b600052602160045260246000fd5b6004811115612b8757634e487b7160e01b600052602160045260246000fd5b8152602001600282018054612b9b90615d2e565b80601f0160208091040260200160405190810160405280929190818152602001828054612bc790615d2e565b8015612c145780601f10612be957610100808354040283529160200191612c14565b820191906000526020600020905b815481529060010190602001808311612bf757829003601f168201915b505050918352505060038201546020820152600482015460408201526005820154606082015260068201546080820152600782015460a082015260089091015460ff808216151560c08401526101008083048216151560e0850152620100008304821615159084015263010000009091041615156101209091015290506000612c9b6113f2565b905061271073__$c4b8709fc407821a47433b8892c1b612a0$__6329bb9f998460dc60e2866040518563ffffffff1660e01b8152600401612cdf94939291906159bd565b60206040518083038186803b158015612cf757600080fd5b505af4158015612d0b573d6000803e3d6000fd5b505050506040513d601f19601f82011682018060405250810190612d2f91906153bf565b10612d725760405162461bcd60e51b81526020600482015260136024820152724c6f636b6572733a206973206865616c74687960681b6044820152606401610ce0565b604051634d69520760e01b815260009073__$c4b8709fc407821a47433b8892c1b612a0$__90634d69520790612db490869060dc9060e29088906004016159bd565b60206040518083038186803b158015612dcc57600080fd5b505af4158015612de0573d6000803e3d6000fd5b505050506040513d601f19601f82011682018060405250810190612e0491906153bf565b90508260800151811115612e19575060808201515b80871115612e775760405162461bcd60e51b815260206004820152602560248201527f4c6f636b6572733a206e6f7420656e6f75676820636f6c6c61746572616c20746044820152646f2062757960d81b6064820152608401610ce0565b60405163d061362360e01b815260009073__$c4b8709fc407821a47433b8892c1b612a0$__9063d061362390612eb99060dc9060e2908d908990600401615af8565b60206040518083038186803b158015612ed157600080fd5b505af4158015612ee5573d6000803e3d6000fd5b505050506040513d601f19601f82011682018060405250810190612f0991906153bf565b60cb5460408087015160208801518851925163218a4edd60e11b81529495506001600160a01b03909316936343149dba93612f4993879392600401615b69565b602060405180830381600087803b158015612f6357600080fd5b505af1158015612f77573d6000803e3d6000fd5b505050506040513d601f19601f82011682018060405250810190612f9b91906153bf565b506001600160a01b038916600090815260d66020526040902060050154612fc3908290615d17565b6001600160a01b038a16600090815260d660205260409020600581019190915560040154612ff2908990615d17565b6001600160a01b038a16600090815260d66020526040902060040155613018338961466d565b6001600160a01b0389167fd63782183ccef603c2adba105774db58e1701ea5e7b3e23eded1b5e967a3654c338a8442604051613057949392919061565a565b60405180910390a260019650505050505050600160655592915050565b806001600160a01b03811661309b5760405162461bcd60e51b8152600401610ce090615904565b6130a3614470565b6130ac82613165565b156130c95760405162461bcd60e51b8152600401610ce090615847565b506001600160a01b0316600090815260da60205260409020805460ff19166001179055565b6130f6614470565b60ce81905560e755565b6000816001600160a01b0381166131295760405162461bcd60e51b8152600401610ce090615904565b50506001600160a01b0316600090815260d660205260409020600801546301000000900460ff1690565b61315b614470565b60cf81905560e855565b6000816001600160a01b03811661318e5760405162461bcd60e51b8152600401610ce090615904565b50506001600160a01b0316600090815260da602052604090205460ff1690565b60d6602052600090815260409020805481906131c990615d2e565b80601f01602080910402602001604051908101604052809291908181526020018280546131f590615d2e565b80156132425780601f1061321757610100808354040283529160200191613242565b820191906000526020600020905b81548152906001019060200180831161322557829003601f168201915b5050506001840154600285018054949560ff90921694919350915061326690615d2e565b80601f016020809104026020016040519081016040528092919081815260200182805461329290615d2e565b80156132df5780601f106132b4576101008083540402835291602001916132df565b820191906000526020600020905b8154815290600101906020018083116132c257829003601f168201915b5050506003840154600485015460058601546006870154600788015460089098015496979396929550909350919060ff80821691610100810482169162010000820481169163010000009004168c565b600060d6600060d985856040516133479291906155db565b9081526040805160209281900383019020546001600160a01b0316835290820192909252016000206008015460ff169392505050565b6000600260655414156133a25760405162461bcd60e51b8152600401610ce090615986565b600260655533600090815260d66020526040902060080154610100900460ff16156134075760405162461bcd60e51b81526020600482015260156024820152744c6f636b6572733a2069732063616e64696461746560581b6044820152606401610ce0565b33600090815260d6602052604090206008015460ff161561345f5760405162461bcd60e51b81526020600482015260126024820152712637b1b5b2b9399d1034b9903637b1b5b2b960711b6044820152606401610ce0565b60ce548610156134a45760405162461bcd60e51b815260206004820152601060248201526f131bd8dad95c9cce881b1bddc815111560821b6044820152606401610ce0565b60cf5485101580156134b557508434145b6134f45760405162461bcd60e51b815260206004820152601060248201526f131bd8dad95c9cce881b1bddc815139560821b6044820152606401610ce0565b60006001600160a01b031660d989896040516135119291906155db565b908152604051908190036020019020546001600160a01b0316146135775760405162461bcd60e51b815260206004820152601c60248201527f4c6f636b6572733a2075736564206c6f636b696e6720736372697074000000006044820152606401610ce0565b60c9546001600160a01b03166323b872dd336040516001600160e01b031960e084901b1681526001600160a01b03909116600482015230602482015260448101899052606401602060405180830381600087803b1580156135d757600080fd5b505af11580156135eb573d6000803e3d6000fd5b505050506040513d601f19601f8201168201806040525081019061360f9190615161565b61361857600080fd5b6136856040805161018081019091526060815260208101600081526020016060815260200160008152602001600081526020016000815260200160008152602001600081526020016000151581526020016000151581526020016000151581526020016000151581525090565b88888080601f01602080910402602001604051908101604052809392919081815260200183838082843760009201919091525050509082525060608101879052608081018690526001610120820152602081018560048111156136f857634e487b7160e01b600052602160045260246000fd5b9081600481111561371957634e487b7160e01b600052602160045260246000fd5b8152505083838080601f016020809104026020016040519081016040528093929190818152602001838380828437600092018290525060408681019590955233815260d6602090815294902085518051879692955061377e9450859350910190614edc565b50602082015160018083018054909160ff19909116908360048111156137b457634e487b7160e01b600052602160045260246000fd5b0217905550604082015180516137d4916002840191602090910190614edc565b50606082015160038201556080820151600482015560a0820151600582015560c0820151600682015560e08201516007820155610100808301516008909201805461012085015161014086015161016090960151151563010000000263ff00000019961515620100000262ff00001992151590950261ff001996151560ff1990941693909317959095169190911716919091179290921617905560d45461387c906001615bac565b60d455336001600160a01b03167fe5f7957016a87f9d7bacdd371a516d7f2c5667aa5676c7e07cc8c0bbc6e5067b8a8a8a8a6040516138be9493929190615680565b60405180910390a260019150506001606555979650505050505050565b600054610100900460ff16158080156138fb5750600054600160ff909116105b8061391c575061390a3061482f565b15801561391c575060005460ff166001145b61397f5760405162461bcd60e51b815260206004820152602e60248201527f496e697469616c697a61626c653a20636f6e747261637420697320616c72656160448201526d191e481a5b9a5d1a585b1a5e995960921b6064820152608401610ce0565b6000805460ff1916600117905580156139a2576000805461ff0019166101001790555b6139aa614842565b6139b2614871565b6139ba6148a0565b6001600160a01b038a16158015906139da57506001600160a01b03891615155b80156139ee57506001600160a01b03881615155b613a0a5760405162461bcd60e51b8152600401610ce090615904565b86151580613a1757508515155b613a635760405162461bcd60e51b815260206004820152601760248201527f4c6f636b6572733a20616d6f756e74206973207a65726f0000000000000000006044820152606401610ce0565b838510158015613a7557506127108410155b613ac15760405162461bcd60e51b815260206004820152601d60248201527f4c6f636b6572733a2070726f626c656d20696e20435220616e64204c520000006044820152606401610ce0565b612710821115613b135760405162461bcd60e51b815260206004820152601760248201527f4c6f636b6572733a206c657373207468616e20313030250000000000000000006044820152606401610ce0565b60c980546001600160a01b03808d166001600160a01b0319928316179283905560cc80548d8316908416179081905560cd80548d8416908516179081905560ce8c905560cf8b905560d18a905560d289905560d088905560d387905561271060dc81905560dd819055612ee060de5560df55601260e05560e180548516600117905560e2805485169584169590951790945560ca5460e38054851691841691909117905560cb5460e48054851691841691909117905560e58054841691831691909117905560e68054909216921691909117905560e787905560e886905560e983905560ea85905560eb84905560ec8290558015613c4b576000805461ff0019169055604051600181527f7f26b83ff96e1f2b6a682f133852f6798a09c465da95921460cefb38474024989060200160405180910390a15b50505050505050505050565b600060d98383604051613c6b9291906155db565b908152604051908190036020019020546001600160a01b0316905092915050565b6000816001600160a01b038116613cb55760405162461bcd60e51b8152600401610ce090615904565b60026065541415613cd85760405162461bcd60e51b8152600401610ce090615986565b6002606555613ce5614470565b613cee836148cf565b60019150506001606555919050565b600060026065541415613d225760405162461bcd60e51b8152600401610ce090615986565b600260655533600090815260d6602052604090206008015460ff16613d595760405162461bcd60e51b8152600401610ce090615888565b33600081815260d66020818152604080842060088101805463ff0000001916905560d7835293819020805460ff1916600117905591905260038201546004830154600584015492517f2cf13a17a26f23ac9b786e628031eac7ebf6bb0b34e3f477f340079eb68d9a3e94613dd09490939291615790565b60405180910390a25060018060655590565b806001600160a01b038116613e095760405162461bcd60e51b8152600401610ce090615904565b613e11614470565b5060cc80546001600160a01b03199081166001600160a01b03938416179182905560e58054929093169116179055565b6000816001600160a01b038116613e6a5760405162461bcd60e51b8152600401610ce090615904565b6001600160a01b038316600090815260d6602052604090206005015460d154612710613e9586614d74565b613e9f9190615cf8565b613ea99190615bc4565b613eb39190615d17565b9392505050565b600060026065541415613edf5760405162461bcd60e51b8152600401610ce090615986565b600260655533600090815260d66020526040902060080154610100900460ff16613f3d5760405162461bcd60e51b815260206004820152600f60248201526e4c6f636b6572733a206e6f2072657160881b6044820152606401610ce0565b33600090815260d6602052604080822081516101808101909252805482908290613f6690615d2e565b80601f0160208091040260200160405190810160405280929190818152602001828054613f9290615d2e565b8015613fdf5780601f10613fb457610100808354040283529160200191613fdf565b820191906000526020600020905b815481529060010190602001808311613fc257829003601f168201915b5050509183525050600182015460209091019060ff16600481111561401457634e487b7160e01b600052602160045260246000fd5b600481111561403357634e487b7160e01b600052602160045260246000fd5b815260200160028201805461404790615d2e565b80601f016020809104026020016040519081016040528092919081815260200182805461407390615d2e565b80156140c05780601f10614095576101008083540402835291602001916140c0565b820191906000526020600020905b8154815290600101906020018083116140a357829003601f168201915b505050918352505060038201546020820152600482015460408201526005820154606082015260068201546080820152600782015460a082015260089091015460ff808216151560c08401526101008083048216151560e08501526201000083048216151590840152630100000090910416151561012090910152905060d66000336001600160a01b0316815260208101919091526040016000908120906141688282614f60565b60018201805460ff19169055614182600283016000614f60565b506000600382018190556004820181905560058201819055600682018190556007820155600801805463ffffffff1916905560d4546141c390600190615d17565b60d45560c9546001600160a01b031663a9059cbb3360608401516040516001600160e01b031960e085901b1681526001600160a01b0390921660048301526024820152604401602060405180830381600087803b15801561422357600080fd5b505af1158015614237573d6000803e3d6000fd5b505050506040513d601f19601f8201168201806040525081019061425b9190615161565b5061426a33826080015161466d565b33600081815260d66020526040908190206003810154600482015492517f10f84ef0773ba7ade3714f4e500ca17436e6df2b0feb99c754c04f889290cbd4936142b493929161577d565b60405180910390a26001915050600160655590565b6142d1614470565b612791614dc5565b806001600160a01b0381166143005760405162461bcd60e51b8152600401610ce090615904565b614308614470565b5060cb80546001600160a01b03199081166001600160a01b03938416179182905560e48054929093169116179055565b614340614470565b6001600160a01b0381166143a55760405162461bcd60e51b815260206004820152602660248201527f4f776e61626c653a206e6577206f776e657220697320746865207a65726f206160448201526564647265737360d01b6064820152608401610ce0565b6143ae816147dd565b50565b806001600160a01b0381166143d85760405162461bcd60e51b8152600401610ce090615904565b6143e0614470565b6143e982611dd5565b156144065760405162461bcd60e51b8152600401610ce090615847565b506001600160a01b0316600090815260db60205260409020805460ff19166001179055565b6000600260655414156144505760405162461bcd60e51b8152600401610ce090615986565b600260655561445d6144ca565b614466336148cf565b5060018060655590565b6033546001600160a01b031633146127915760405162461bcd60e51b815260206004820181905260248201527f4f776e61626c653a2063616c6c6572206973206e6f7420746865206f776e65726044820152606401610ce0565b60975460ff16156127915760405162461bcd60e51b815260206004820152601060248201526f14185d5cd8589b194e881c185d5cd95960821b6044820152606401610ce0565b600885015460ff166145645760405162461bcd60e51b815260206004820181905260248201527f4c6f636b6572733a206163636f756e74206973206e6f742061206c6f636b65726044820152606401610ce0565b600085600501548560800151600a61457c9190615c2a565b85610100015161458c9190615cf8565b8651600489015461459e908790615cf8565b6145a89190615cf8565b6145b29190615bc4565b6145bc9190615d17565b90506000838660800151600a6145d29190615c2a565b6145dc9084615cf8565b6145e69190615bc4565b90508083111561464c5760405162461bcd60e51b815260206004820152602b60248201527f4c6f636b6572733a206d6f7265207468616e206d61782072656d6f7661626c6560448201526a0818dbdb1b185d195c985b60aa1b6064820152608401610ce0565b82876004015461465c9190615d17565b876004018190555050505050505050565b804710156146bd5760405162461bcd60e51b815260206004820152601d60248201527f416464726573733a20696e73756666696369656e742062616c616e63650000006044820152606401610ce0565b6000826001600160a01b03168260405160006040518083038185875af1925050503d806000811461470a576040519150601f19603f3d011682016040523d82523d6000602084013e61470f565b606091505b50509050806147865760405162461bcd60e51b815260206004820152603a60248201527f416464726573733a20756e61626c6520746f2073656e642076616c75652c207260448201527f6563697069656e74206d617920686176652072657665727465640000000000006064820152608401610ce0565b505050565b614793614e02565b6097805460ff191690557f5db9ee0a495bf2e6ff9c91a7834c1ba4fdd244a5e8aa4e537bd38aeae4b073aa335b6040516001600160a01b03909116815260200160405180910390a1565b603380546001600160a01b038381166001600160a01b0319831681179093556040519116919082907f8be0079c531659141344cd1fd0a4f28419497f9722a3daafe3b4186f6b6457e090600090a35050565b6001600160a01b0381163b15155b919050565b600054610100900460ff166148695760405162461bcd60e51b8152600401610ce09061593b565b612791614e4b565b600054610100900460ff166148985760405162461bcd60e51b8152600401610ce09061593b565b612791614e7b565b600054610100900460ff166148c75760405162461bcd60e51b8152600401610ce09061593b565b612791614ea9565b6001600160a01b038116600090815260d6602052604090206008015460ff1661492f5760405162461bcd60e51b81526020600482015260126024820152712637b1b5b2b9399d103737903637b1b5b2b960711b6044820152606401610ce0565b6001600160a01b038116600090815260d7602052604090205460ff166149905760405162461bcd60e51b81526020600482015260166024820152754c6f636b6572733a206e6f2072656d6f76652072657160501b6044820152606401610ce0565b6001600160a01b038116600090815260d66020526040902060050154156149f15760405162461bcd60e51b8152602060048201526015602482015274131bd8dad95c9cce880c081b995d081b5a5b9d1959605a1b6044820152606401610ce0565b6001600160a01b038116600090815260d6602052604080822081516101808101909252805482908290614a2390615d2e565b80601f0160208091040260200160405190810160405280929190818152602001828054614a4f90615d2e565b8015614a9c5780601f10614a7157610100808354040283529160200191614a9c565b820191906000526020600020905b815481529060010190602001808311614a7f57829003601f168201915b5050509183525050600182015460209091019060ff166004811115614ad157634e487b7160e01b600052602160045260246000fd5b6004811115614af057634e487b7160e01b600052602160045260246000fd5b8152602001600282018054614b0490615d2e565b80601f0160208091040260200160405190810160405280929190818152602001828054614b3090615d2e565b8015614b7d5780601f10614b5257610100808354040283529160200191614b7d565b820191906000526020600020905b815481529060010190602001808311614b6057829003601f168201915b5050509183525050600382015460208083019190915260048301546040808401919091526005840154606084015260068401546080840152600784015460a084015260089093015460ff808216151560c08501526101008083048216151560e086015262010000830482161515908501526301000000909104161515610120909201919091526001600160a01b038516600090815260d6909152908120919250614c278282614f60565b60018201805460ff19169055614c41600283016000614f60565b506000600382018190556004820181905560058201819055600682018190556007820155600801805463ffffffff1916905560d554614c8290600190615d17565b60d55560c954606082015160405163a9059cbb60e01b81526001600160a01b038581166004830152602482019290925291169063a9059cbb90604401602060405180830381600087803b158015614cd857600080fd5b505af1158015614cec573d6000803e3d6000fd5b505050506040513d601f19601f82011682018060405250810190614d109190615161565b50614d1f82826080015161466d565b816001600160a01b03167f628f3d67160bc1a892a1779c6475e128010a54df63af5dcdbf3c7b06ca5dfa97826000015183606001518460800151604051614d6893929190615758565b60405180910390a25050565b6001600160a01b038116600090815260d66020526040812060040154600a90670de0b6b3a764000090614dab906305f5e100615cf8565b614db59190615bc4565b614dbf9190615bc4565b92915050565b614dcd6144ca565b6097805460ff191660011790557f62e78cea01bee320cd4e420270b5ea74000d11b0c9f74754ebdbfc544b05a2586147c03390565b60975460ff166127915760405162461bcd60e51b815260206004820152601460248201527314185d5cd8589b194e881b9bdd081c185d5cd95960621b6044820152606401610ce0565b600054610100900460ff16614e725760405162461bcd60e51b8152600401610ce09061593b565b612791336147dd565b600054610100900460ff16614ea25760405162461bcd60e51b8152600401610ce09061593b565b6001606555565b600054610100900460ff16614ed05760405162461bcd60e51b8152600401610ce09061593b565b6097805460ff19169055565b828054614ee890615d2e565b90600052602060002090601f016020900481019282614f0a5760008555614f50565b82601f10614f2357805160ff1916838001178555614f50565b82800160010185558215614f50579182015b82811115614f50578251825591602001919060010190614f35565b50614f5c929150614f98565b5090565b508054614f6c90615d2e565b6000825580601f10614f7e57506143ae565b601f0160209004906000526020600020908101906143ae91905b5b80821115614f5c5760008155600101614f99565b80356001600160a01b038116811461483d57600080fd5b60008083601f840112614fd5578081fd5b50813567ffffffffffffffff811115614fec578182fd5b60208301915083602082850101111561500457600080fd5b9250929050565b60006020828403121561501c578081fd5b613eb382614fad565b60008060008060008060008060006101208a8c031215615043578485fd5b61504c8a614fad565b985061505a60208b01614fad565b975061506860408b01614fad565b989b979a5097986060810135985060808101359760a0820135975060c0820135965060e08201359550610100909101359350915050565b600080604083850312156150b1578182fd5b6150ba83614fad565b946020939093013593505050565b600080600080608085870312156150dd578384fd5b6150e685614fad565b9350602085013592506150fb60408601614fad565b9396929550929360600135925050565b600080600080600060a08688031215615122578081fd5b61512b86614fad565b94506020860135935061514060408701614fad565b92506060860135915061515560808701614fad565b90509295509295909350565b600060208284031215615172578081fd5b81518015158114613eb3578182fd5b60008060208385031215615193578182fd5b823567ffffffffffffffff8111156151a9578283fd5b6151b585828601614fc4565b90969095509350505050565b600080600080606085870312156151d6578384fd5b843567ffffffffffffffff8111156151ec578485fd5b6151f887828801614fc4565b909550935061520b905060208601614fad565b9396929550929360400135925050565b60008060006040848603121561522f578283fd5b833567ffffffffffffffff811115615245578384fd5b61525186828701614fc4565b909790965060209590950135949350505050565b600080600080600080600060a0888a03121561527f578283fd5b873567ffffffffffffffff80821115615296578485fd5b6152a28b838c01614fc4565b909950975060208a0135965060408a0135955060608a01359150600582106152c8578485fd5b909350608089013590808211156152dd578384fd5b506152ea8a828b01614fc4565b989b979a50959850939692959293505050565b60006020828403121561530e578081fd5b813567ffffffffffffffff80821115615325578283fd5b818401915084601f830112615338578283fd5b81358181111561534a5761534a615d79565b604051601f8201601f19908116603f0116810190838211818310171561537257615372615d79565b8160405282815287602084870101111561538a578586fd5b826020860160208301379182016020019490945295945050505050565b6000602082840312156153b8578081fd5b5035919050565b6000602082840312156153d0578081fd5b5051919050565b600080604083850312156153e9578182fd5b505080516020909101519092909150565b60006020828403121561540b578081fd5b815160ff81168114613eb3578182fd5b60008151808452815b8181101561544057602081850181015186830182015201615424565b818111156154515782602083870101525b50601f01601f19169290920160200192915050565b6000815461547381615d2e565b80855260206001838116801561549057600181146154a4576154d2565b60ff198516888401526040880195506154d2565b866000528260002060005b858110156154ca5781548a82018601529083019084016154af565b890184019650505b505050505092915050565b600581106154fb57634e487b7160e01b600052602160045260246000fd5b9052565b8054825260018101546020830152600281015460408301526003810154606083015260048101546080830152600501546001600160a01b031660a090910152565b6155628261555583546001600160a01b031690565b6001600160a01b03169052565b60018101546001600160a01b0390811660208401526002820154811660408401526003820154811660608401526004820154166080830152600581015460a0830152600681015460c0830152600781015460e083015260088101546101008301526009810154610120830152600a015461014090910152565b6000828483379101908152919050565b60008083546155f981615d2e565b6001828116801561561157600181146156225761564e565b60ff1984168752828701945061564e565b8786526020808720875b858110156156455781548a82015290840190820161562c565b50505082870194505b50929695505050505050565b6001600160a01b0394909416845260208401929092526040830152606082015260800190565b6000606082528460608301528486608084013780608086840101526080601f19601f870116830101905083602083015282604083015295945050505050565b600060208252613eb3602083018461541b565b600061018082526156e761018083018f61541b565b6156f4602084018f6154dd565b8281036040840152615706818e61541b565b606084019c909c525050608081019890985260a088019690965260c087019490945260e08601929092521515610100850152151561012084015215156101408301521515610160909101529392505050565b60006060825261576b606083018661541b565b60208301949094525060400152919050565b60006060825261576b6060830186615466565b6000608082526157a36080830187615466565b6020830195909552506040810192909252606090910152919050565b60208082526023908201527f4c6f636b6572733a206163636f756e7420646f6573206e6f74206861766520726040820152626f6c6560e81b606082015260800190565b60208082526025908201527f4c6f636b6572733a206d6573736167652073656e646572206973206e6f74206360408201526431a13ab93760d91b606082015260800190565b60208082526021908201527f4c6f636b6572733a206163636f756e7420616c72656164792068617320726f6c6040820152606560f81b606082015260800190565b6020808252602c908201527f4c6f636b6572733a20696e7075742061646472657373206973206e6f7420612060408201526b3b30b634b2103637b1b5b2b960a11b606082015260800190565b6020808252601690820152754c6f636b6572733a2076616c7565206973207a65726f60501b604082015260600190565b60208082526018908201527f4c6f636b6572733a2061646472657373206973207a65726f0000000000000000604082015260600190565b6020808252602b908201527f496e697469616c697a61626c653a20636f6e7472616374206973206e6f74206960408201526a6e697469616c697a696e6760a81b606082015260800190565b6020808252601f908201527f5265656e7472616e637947756172643a207265656e7472616e742063616c6c00604082015260600190565b60006102608083528651610180828501526159dc6103e085018261541b565b91505060208701516159f26102808501826154dd565b50604087015183820361025f19016102a0850152615a10828261541b565b91505060608701516102c084015260808701516102e084015260a087015161030084015260c087015161032084015260e0870151610340840152610100870151615a5f61036085018215159052565b50610120870151151561038084015261014087015115156103a084015261016087015115156103c08401529050615a9960208301866154ff565b615aa660e0830185615540565b8261024083015295945050505050565b8681526102a08101615acb60208301886154ff565b615ad860e0830187615540565b846102408301528361026083015282610280830152979650505050505050565b6102608101615b0782876154ff565b615b1460c0830186615540565b610220820193909352610240015292915050565b9687526001600160a01b0395861660208801526040870194909452919093166060850152608084019290925260a0830191909152151560c082015260e00190565b600085825260806020830152615b82608083018661541b565b615b8f60408401866154dd565b8281036060840152615ba1818561541b565b979650505050505050565b60008219821115615bbf57615bbf615d63565b500190565b600082615bdf57634e487b7160e01b81526012600452602481fd5b500490565b80825b6001808611615bf65750615c21565b818704821115615c0857615c08615d63565b80861615615c1557918102915b9490941c938002615be7565b94509492505050565b6000613eb36000198484600082615c4357506001613eb3565b81615c5057506000613eb3565b8160018114615c665760028114615c7057615c9d565b6001915050613eb3565b60ff841115615c8157615c81615d63565b6001841b915084821115615c9757615c97615d63565b50613eb3565b5060208310610133831016604e8410600b8410161715615cd0575081810a83811115615ccb57615ccb615d63565b613eb3565b615cdd8484846001615be4565b808604821115615cef57615cef615d63565b02949350505050565b6000816000190483118215151615615d1257615d12615d63565b500290565b600082821015615d2957615d29615d63565b500390565b600281046001821680615d4257607f821691505b60208210811415611e1d57634e487b7160e01b600052602260045260246000fd5b634e487b7160e01b600052601160045260246000fd5b634e487b7160e01b600052604160045260246000fdfea26469706673582212208683ef3f03db975fd74fb8a1900a543e3dc4819959276e129d40d4b516ed262864736f6c63430008020033",
  "libraries": {
    "LockersLib": "0xAC615Ea4036CD4808547a80C31Af94D29fC1E990"
  },
  "devdoc": {
    "kind": "dev",
    "methods": {
      "addBurner(address)": {
        "details": "Give an account access to burn."
      },
      "addCollateral(address,uint256)": {
        "params": {
          "_addingNativeTokenAmount": "Amount of added collateral",
          "_lockerTargetAddress": "Locker's target chain address"
        },
        "returns": {
          "_0": "True if collateral is added successfully"
        }
      },
      "addLocker(address)": {
        "details": "Only owner can call this                                       When a candidate becomes locker, isCandidate is set to false",
        "params": {
          "_lockerTargetAddress": "Locker's target chain address"
        },
        "returns": {
          "_0": "True if candidate is added successfully"
        }
      },
      "addMinter(address)": {
        "details": "Give an account access to mint."
      },
      "burn(bytes,uint256)": {
        "details": "Burn teleBTC and also get the locker's fee",
        "params": {
          "_amount": "Amount of the teleBTC which is minted, including the locker's fee",
          "_lockerLockingScript": "Locking script of a locker"
        },
        "returns": {
          "_0": "uint                  The amount of teleBTC burned the"
        }
      },
      "buySlashedCollateralOfLocker(address,uint256)": {
        "details": "Users buy the slashed collateral using TeleBTC with discount                                   The paid TeleBTC will be burnt to keep the system safe                                   If all the needed TeleBTC is collected and burnt,                                   the rest of slashed collateral is sent back to locker",
        "params": {
          "_collateralAmount": "Amount of collateral (TNT) that someone is intend to buy with discount",
          "_lockerTargetAddress": "Locker's target chain address"
        },
        "returns": {
          "_0": "True is buying was successful"
        }
      },
      "getLockerCapacity(address)": {
        "details": "Net minted amount is total minted minus total burnt for the locker",
        "params": {
          "_lockerTargetAddress": "Address of locker on the target chain"
        },
        "returns": {
          "_0": "The net minted of the locker"
        }
      },
      "getLockerLockingScript(address)": {
        "details": "@param _lockerTargetAddress         Address of locker on the target chain",
        "returns": {
          "_0": "Bitcoin public key of locker"
        }
      },
      "getNumberOfLockers()": {
        "details": "@return                           Number of lockers"
      },
      "isActive(address)": {
        "details": "An active locker is not in the process of being removed and has enough capacity to mint more tokens (minted - burnt << their collateral)",
        "params": {
          "_lockerTargetAddress": "Address of locker on the target chain"
        },
        "returns": {
          "_0": "True if the locker is active and accepts mint requests"
        }
      },
      "isBurner(address)": {
        "details": "Check if an account is burner.",
        "returns": {
          "_0": "bool"
        }
      },
      "isLocker(bytes)": {
        "details": "@param _lockerTargetAddress       Address of locker on the target chain",
        "returns": {
          "_0": "True if user is locker"
        }
      },
      "isMinter(address)": {
        "details": "Check if an account is minter.",
        "returns": {
          "_0": "bool"
        }
      },
      "liquidateLocker(address,uint256)": {
        "details": "Anyone can liquidate a locker which its health factor                                   is less than 10000 (100%) by providing a sufficient amount of teleBTC",
        "params": {
          "_collateralAmount": "Amount of collateral (TNT) that someone is intend to buy with discount",
          "_lockerTargetAddress": "Locker's target chain address"
        },
        "returns": {
          "_0": "True is liquidation was successful"
        }
      },
      "mint(bytes,address,uint256)": {
        "details": "Mint teleBTC for an account and got the locker fee as well",
        "params": {
          "_amount": "Amount of the teleBTC which is minted, including the locker's fee",
          "_lockerLockingScript": "Locking script of a locker",
          "_receiver": "Address of the receiver of the minted teleBTCs"
        },
        "returns": {
          "_0": "uint                  The amount of teleBTC minted for the receiver"
        }
      },
      "owner()": {
        "details": "Returns the address of the current owner."
      },
      "ownerRemoveLocker(address)": {
        "details": "Only owner can call this function                               Removing conditions should be satisfied",
        "params": {
          "_lockerTargetAddress": "Target address of locker to be removed"
        },
        "returns": {
          "_0": "True if locker is removed successfully"
        }
      },
      "pauseLocker()": {
        "details": "@param"
      },
      "paused()": {
        "details": "Returns true if the contract is paused, and false otherwise."
      },
      "priceOfOneUnitOfCollateralInBTC()": {
        "details": "Returns the price of one native token (1*10^18) in teleBTC",
        "returns": {
          "_0": "uint"
        }
      },
      "removeBurner(address)": {
        "details": "Remove an account's access to burn."
      },
      "removeCollateral(uint256)": {
        "params": {
          "_removingNativeTokenAmount": "Amount of removed collateral"
        },
        "returns": {
          "_0": "True if collateral is removed successfully"
        }
      },
      "removeMinter(address)": {
        "details": "Remove an account's access to mint."
      },
      "renounceOwnership()": {
        "details": "Leaves the contract without owner. It will not be possible to call `onlyOwner` functions anymore. Can only be called by the current owner. NOTE: Renouncing ownership will leave the contract without an owner, thereby removing any functionality that is only available to the owner."
      },
      "requestToBecomeLocker(bytes,uint256,uint256,uint8,bytes)": {
        "details": "Users mint TeleBTC by sending BTC to locker's locking script                                         In case of liqudation of locker's bond, the burn TeleBTC is sent to                                         locker's rescue script                                         A user should lock enough TDT and TNT to become candidate",
        "params": {
          "_candidateLockingScript": "Locking script of the candidate",
          "_lockedNativeTokenAmount": "Bond amount of locker in native token of the target chain",
          "_lockedTDTAmount": "Bond amount of locker in TDT",
          "_lockerRescueScript": "Rescue script of the locker",
          "_lockerRescueType": "Type of locker's rescue script (e.g. P2SH)"
        },
        "returns": {
          "_0": "True if candidate is added successfully"
        }
      },
      "requestToRemoveLocker()": {
        "details": "Deactivates the status of the locker so that no                        one is allowed to send mint requests to this locker.                        It gives time to the locker to burn the required amount                        of teleBTC to make itself eligible to be removed.                        Sets isActive of locker to false",
        "returns": {
          "_0": "True if deactivated successfully"
        }
      },
      "revokeRequest()": {
        "details": "A user who is still a candidate can revoke his/her request",
        "returns": {
          "_0": "True if candidate is removed successfully"
        }
      },
      "selfRemoveLocker()": {
        "details": "Only locker can call this function                               Removing conditions should be satisfied",
        "returns": {
          "_0": "True if locker is removed successfully"
        }
      },
      "setCCBurnRouter(address)": {
        "details": "Only current owner can call this",
        "params": {
          "_ccBurnRouter": "The new cc burn router contract address"
        }
      },
      "setCollateralRatio(uint256)": {
        "details": "Only owner can call this",
        "params": {
          "_collateralRatio": "The new collateral ratio"
        }
      },
      "setExchangeConnector(address)": {
        "details": "Only owner can call this",
        "params": {
          "_exchangeConnector": "The new exchange router contract address"
        }
      },
      "setLiquidationRatio(uint256)": {
        "details": "Only owner can call this",
        "params": {
          "_liquidationRatio": "The new liquidation ratio"
        }
      },
      "setLockerPercentageFee(uint256)": {
        "details": "Only current owner can call this",
        "params": {
          "_lockerPercentageFee": "The new locker percentage fee"
        }
      },
      "setMinRequiredTDTLockedAmount(uint256)": {
        "details": "Only current owner can call this",
        "params": {
          "_minRequiredTDTLockedAmount": "The new required bond amount"
        }
      },
      "setMinRequiredTNTLockedAmount(uint256)": {
        "details": "Only current owner can call this",
        "params": {
          "_minRequiredTNTLockedAmount": "The new required bond amount"
        }
      },
      "setPriceOracle(address)": {
        "details": "Only current owner can call this",
        "params": {
          "_priceOracle": "The new price oracle"
        }
      },
      "setTeleBTC(address)": {
        "details": "Only owner can call this",
        "params": {
          "_teleBTC": "The new wrapped token contract address"
        }
      },
      "slashIdleLocker(address,uint256,address,uint256,address)": {
        "details": "Only cc burn router can call this                                   Locker is slashed since doesn't provide burn proof                                   before a cc burn request deadline.                                   User who made the cc burn request will receive the slashed bond",
        "params": {
          "_amount": "Amount of TeleBTC that is slashed from lockers",
          "_lockerTargetAddress": "Locker's target chain address",
          "_recipient": "Address of user who receives the slashed amount",
          "_rewardAmount": "Address of slasher who receives reward"
        },
        "returns": {
          "_0": "True if the locker is slashed successfully"
        }
      },
      "slashTheifLocker(address,uint256,address,uint256)": {
        "details": "Only cc burn router can call this                                   Locker is slashed because he/she moved BTC from                                   locker's Bitcoin address without any corresponding burn req                                   The slashed bond will be sold with discount",
        "params": {
          "_amount": "Value of slashed collateral (in TeleBTC)",
          "_lockerTargetAddress": "Locker's target chain address",
          "_rewardAmount": "Value of slashed reward (in TeleBTC)",
          "_rewardRecipient": "Address of slasher who receives reward"
        },
        "returns": {
          "_0": "True if the locker is slashed successfully"
        }
      },
      "transferOwnership(address)": {
        "details": "Transfers ownership of the contract to a new account (`newOwner`). Can only be called by the current owner."
      },
      "unPauseLocker()": {
        "details": "@param"
      }
    },
    "version": 1
  },
  "userdoc": {
    "kind": "user",
    "methods": {
      "addCollateral(address,uint256)": {
        "notice": "Increases TNT collateral of the locker"
      },
      "addLocker(address)": {
        "notice": "Approves a candidate request to become locker"
      },
      "burn(bytes,uint256)": {
        "notice": "Burn teleBTC of an account"
      },
      "buySlashedCollateralOfLocker(address,uint256)": {
        "notice": "Sells lockers slashed collateral"
      },
      "getLockerCapacity(address)": {
        "notice": "Get how much net this locker has minted"
      },
      "getLockerLockingScript(address)": {
        "notice": "Give Bitcoin public key of locker"
      },
      "getNumberOfLockers()": {
        "notice": "Give number of lockers"
      },
      "isActive(address)": {
        "notice": "Tells if a locker is active or not"
      },
      "isLocker(bytes)": {
        "notice": "Checks whether an address is locker"
      },
      "liquidateLocker(address,uint256)": {
        "notice": "Liquidates the locker whose collateral is unhealthy"
      },
      "mint(bytes,address,uint256)": {
        "notice": "Mint teleBTC for an account"
      },
      "ownerRemoveLocker(address)": {
        "notice": "Removes a locker from lockers list"
      },
      "pauseLocker()": {
        "notice": "Pause the locker, so only the functions can be called which are whenPaused"
      },
      "removeCollateral(uint256)": {
        "notice": "Decreases TNT collateral of the locker"
      },
      "requestToBecomeLocker(bytes,uint256,uint256,uint8,bytes)": {
        "notice": "Adds user to candidates list"
      },
      "requestToRemoveLocker()": {
        "notice": "Requests to remove a locker from lockers list"
      },
      "revokeRequest()": {
        "notice": "Removes a candidate from candidates list"
      },
      "selfRemoveLocker()": {
        "notice": "Removes a locker from lockers list"
      },
      "setCCBurnRouter(address)": {
        "notice": "Changes cc burn router contract"
      },
      "setCollateralRatio(uint256)": {
        "notice": "Changes collateral ratio"
      },
      "setExchangeConnector(address)": {
        "notice": "Changes exchange router contract address and updates wrapped avax addresses"
      },
      "setLiquidationRatio(uint256)": {
        "notice": "Changes liquidation ratio"
      },
      "setLockerPercentageFee(uint256)": {
        "notice": "Changes percentage fee of locker"
      },
      "setMinRequiredTDTLockedAmount(uint256)": {
        "notice": "Changes the required bond amount to become locker"
      },
      "setMinRequiredTNTLockedAmount(uint256)": {
        "notice": "Changes the required bond amount to become locker"
      },
      "setPriceOracle(address)": {
        "notice": "Changes the price oracle"
      },
      "setTeleBTC(address)": {
        "notice": "Changes wrapped token contract address"
      },
      "slashIdleLocker(address,uint256,address,uint256,address)": {
        "notice": "Slashes lockers for not executing a cc burn req"
      },
      "slashTheifLocker(address,uint256,address,uint256)": {
        "notice": "Slashes lockers for moving BTC without a good reason"
      },
      "unPauseLocker()": {
        "notice": "Un-pause the locker, so only the functions can be called which are whenNotPaused"
      }
    },
    "version": 1
  },
  "storageLayout": {
    "storage": [
      {
        "astId": 184,
        "contract": "contracts/lockers/LockersLogicTestnet.sol:LockersLogicTestnet",
        "label": "_initialized",
        "offset": 0,
        "slot": "0",
        "type": "t_uint8"
      },
      {
        "astId": 187,
        "contract": "contracts/lockers/LockersLogicTestnet.sol:LockersLogicTestnet",
        "label": "_initializing",
        "offset": 1,
        "slot": "0",
        "type": "t_bool"
      },
      {
        "astId": 798,
        "contract": "contracts/lockers/LockersLogicTestnet.sol:LockersLogicTestnet",
        "label": "__gap",
        "offset": 0,
        "slot": "1",
        "type": "t_array(t_uint256)50_storage"
      },
      {
        "astId": 56,
        "contract": "contracts/lockers/LockersLogicTestnet.sol:LockersLogicTestnet",
        "label": "_owner",
        "offset": 0,
        "slot": "51",
        "type": "t_address"
      },
      {
        "astId": 176,
        "contract": "contracts/lockers/LockersLogicTestnet.sol:LockersLogicTestnet",
        "label": "__gap",
        "offset": 0,
        "slot": "52",
        "type": "t_array(t_uint256)49_storage"
      },
      {
        "astId": 469,
        "contract": "contracts/lockers/LockersLogicTestnet.sol:LockersLogicTestnet",
        "label": "_status",
        "offset": 0,
        "slot": "101",
        "type": "t_uint256"
      },
      {
        "astId": 513,
        "contract": "contracts/lockers/LockersLogicTestnet.sol:LockersLogicTestnet",
        "label": "__gap",
        "offset": 0,
        "slot": "102",
        "type": "t_array(t_uint256)49_storage"
      },
      {
        "astId": 349,
        "contract": "contracts/lockers/LockersLogicTestnet.sol:LockersLogicTestnet",
        "label": "_paused",
        "offset": 0,
        "slot": "151",
        "type": "t_bool"
      },
      {
        "astId": 454,
        "contract": "contracts/lockers/LockersLogicTestnet.sol:LockersLogicTestnet",
        "label": "__gap",
        "offset": 0,
        "slot": "152",
        "type": "t_array(t_uint256)49_storage"
      },
      {
        "astId": 11139,
        "contract": "contracts/lockers/LockersLogicTestnet.sol:LockersLogicTestnet",
        "label": "TeleportDAOToken",
        "offset": 0,
        "slot": "201",
        "type": "t_address"
      },
      {
        "astId": 11142,
        "contract": "contracts/lockers/LockersLogicTestnet.sol:LockersLogicTestnet",
        "label": "teleBTC",
        "offset": 0,
        "slot": "202",
        "type": "t_address"
      },
      {
        "astId": 11145,
        "contract": "contracts/lockers/LockersLogicTestnet.sol:LockersLogicTestnet",
        "label": "ccBurnRouter",
        "offset": 0,
        "slot": "203",
        "type": "t_address"
      },
      {
        "astId": 11148,
        "contract": "contracts/lockers/LockersLogicTestnet.sol:LockersLogicTestnet",
        "label": "exchangeConnector",
        "offset": 0,
        "slot": "204",
        "type": "t_address"
      },
      {
        "astId": 11151,
        "contract": "contracts/lockers/LockersLogicTestnet.sol:LockersLogicTestnet",
        "label": "priceOracle",
        "offset": 0,
        "slot": "205",
        "type": "t_address"
      },
      {
        "astId": 11154,
        "contract": "contracts/lockers/LockersLogicTestnet.sol:LockersLogicTestnet",
        "label": "minRequiredTDTLockedAmount",
        "offset": 0,
        "slot": "206",
        "type": "t_uint256"
      },
      {
        "astId": 11157,
        "contract": "contracts/lockers/LockersLogicTestnet.sol:LockersLogicTestnet",
        "label": "minRequiredTNTLockedAmount",
        "offset": 0,
        "slot": "207",
        "type": "t_uint256"
      },
      {
        "astId": 11160,
        "contract": "contracts/lockers/LockersLogicTestnet.sol:LockersLogicTestnet",
        "label": "lockerPercentageFee",
        "offset": 0,
        "slot": "208",
        "type": "t_uint256"
      },
      {
        "astId": 11163,
        "contract": "contracts/lockers/LockersLogicTestnet.sol:LockersLogicTestnet",
        "label": "collateralRatio",
        "offset": 0,
        "slot": "209",
        "type": "t_uint256"
      },
      {
        "astId": 11166,
        "contract": "contracts/lockers/LockersLogicTestnet.sol:LockersLogicTestnet",
        "label": "liquidationRatio",
        "offset": 0,
        "slot": "210",
        "type": "t_uint256"
      },
      {
        "astId": 11169,
        "contract": "contracts/lockers/LockersLogicTestnet.sol:LockersLogicTestnet",
        "label": "priceWithDiscountRatio",
        "offset": 0,
        "slot": "211",
        "type": "t_uint256"
      },
      {
        "astId": 11172,
        "contract": "contracts/lockers/LockersLogicTestnet.sol:LockersLogicTestnet",
        "label": "totalNumberOfCandidates",
        "offset": 0,
        "slot": "212",
        "type": "t_uint256"
      },
      {
        "astId": 11175,
        "contract": "contracts/lockers/LockersLogicTestnet.sol:LockersLogicTestnet",
        "label": "totalNumberOfLockers",
        "offset": 0,
        "slot": "213",
        "type": "t_uint256"
      },
      {
        "astId": 11180,
        "contract": "contracts/lockers/LockersLogicTestnet.sol:LockersLogicTestnet",
        "label": "lockersMapping",
        "offset": 0,
        "slot": "214",
        "type": "t_mapping(t_address,t_struct(locker)25176_storage)"
      },
      {
        "astId": 11184,
        "contract": "contracts/lockers/LockersLogicTestnet.sol:LockersLogicTestnet",
        "label": "lockerLeavingRequests",
        "offset": 0,
        "slot": "215",
        "type": "t_mapping(t_address,t_bool)"
      },
      {
        "astId": 11188,
        "contract": "contracts/lockers/LockersLogicTestnet.sol:LockersLogicTestnet",
        "label": "lockerLeavingAcceptance",
        "offset": 0,
        "slot": "216",
        "type": "t_mapping(t_address,t_bool)"
      },
      {
        "astId": 11192,
        "contract": "contracts/lockers/LockersLogicTestnet.sol:LockersLogicTestnet",
        "label": "lockerTargetAddress",
        "offset": 0,
        "slot": "217",
        "type": "t_mapping(t_bytes_memory_ptr,t_address)"
      },
      {
        "astId": 11196,
        "contract": "contracts/lockers/LockersLogicTestnet.sol:LockersLogicTestnet",
        "label": "minters",
        "offset": 0,
        "slot": "218",
        "type": "t_mapping(t_address,t_bool)"
      },
      {
        "astId": 11200,
        "contract": "contracts/lockers/LockersLogicTestnet.sol:LockersLogicTestnet",
        "label": "burners",
        "offset": 0,
        "slot": "219",
        "type": "t_mapping(t_address,t_bool)"
      },
      {
        "astId": 11203,
        "contract": "contracts/lockers/LockersLogicTestnet.sol:LockersLogicTestnet",
        "label": "libConstants",
        "offset": 0,
        "slot": "220",
        "type": "t_struct(lockersLibConstants)25189_storage"
      },
      {
        "astId": 11206,
        "contract": "contracts/lockers/LockersLogicTestnet.sol:LockersLogicTestnet",
        "label": "libParams",
        "offset": 0,
        "slot": "226",
        "type": "t_struct(lockersLibParam)25212_storage"
      }
    ],
    "types": {
      "t_address": {
        "encoding": "inplace",
        "label": "address",
        "numberOfBytes": "20"
      },
      "t_array(t_uint256)49_storage": {
        "base": "t_uint256",
        "encoding": "inplace",
        "label": "uint256[49]",
        "numberOfBytes": "1568"
      },
      "t_array(t_uint256)50_storage": {
        "base": "t_uint256",
        "encoding": "inplace",
        "label": "uint256[50]",
        "numberOfBytes": "1600"
      },
      "t_bool": {
        "encoding": "inplace",
        "label": "bool",
        "numberOfBytes": "1"
      },
      "t_bytes_memory_ptr": {
        "encoding": "bytes",
        "label": "bytes",
        "numberOfBytes": "32"
      },
      "t_bytes_storage": {
        "encoding": "bytes",
        "label": "bytes",
        "numberOfBytes": "32"
      },
      "t_enum(ScriptTypes)25221": {
        "encoding": "inplace",
        "label": "enum ScriptTypes",
        "numberOfBytes": "1"
      },
      "t_mapping(t_address,t_bool)": {
        "encoding": "mapping",
        "key": "t_address",
        "label": "mapping(address => bool)",
        "numberOfBytes": "32",
        "value": "t_bool"
      },
      "t_mapping(t_address,t_struct(locker)25176_storage)": {
        "encoding": "mapping",
        "key": "t_address",
        "label": "mapping(address => struct DataTypes.locker)",
        "numberOfBytes": "32",
        "value": "t_struct(locker)25176_storage"
      },
      "t_mapping(t_bytes_memory_ptr,t_address)": {
        "encoding": "mapping",
        "key": "t_bytes_memory_ptr",
        "label": "mapping(bytes => address)",
        "numberOfBytes": "32",
        "value": "t_address"
      },
      "t_struct(locker)25176_storage": {
        "encoding": "inplace",
        "label": "struct DataTypes.locker",
        "members": [
          {
            "astId": 25152,
            "contract": "contracts/lockers/LockersLogicTestnet.sol:LockersLogicTestnet",
            "label": "lockerLockingScript",
            "offset": 0,
            "slot": "0",
            "type": "t_bytes_storage"
          },
          {
            "astId": 25155,
            "contract": "contracts/lockers/LockersLogicTestnet.sol:LockersLogicTestnet",
            "label": "lockerRescueType",
            "offset": 0,
            "slot": "1",
            "type": "t_enum(ScriptTypes)25221"
          },
          {
            "astId": 25157,
            "contract": "contracts/lockers/LockersLogicTestnet.sol:LockersLogicTestnet",
            "label": "lockerRescueScript",
            "offset": 0,
            "slot": "2",
            "type": "t_bytes_storage"
          },
          {
            "astId": 25159,
            "contract": "contracts/lockers/LockersLogicTestnet.sol:LockersLogicTestnet",
            "label": "TDTLockedAmount",
            "offset": 0,
            "slot": "3",
            "type": "t_uint256"
          },
          {
            "astId": 25161,
            "contract": "contracts/lockers/LockersLogicTestnet.sol:LockersLogicTestnet",
            "label": "nativeTokenLockedAmount",
            "offset": 0,
            "slot": "4",
            "type": "t_uint256"
          },
          {
            "astId": 25163,
            "contract": "contracts/lockers/LockersLogicTestnet.sol:LockersLogicTestnet",
            "label": "netMinted",
            "offset": 0,
            "slot": "5",
            "type": "t_uint256"
          },
          {
            "astId": 25165,
            "contract": "contracts/lockers/LockersLogicTestnet.sol:LockersLogicTestnet",
            "label": "slashingTeleBTCAmount",
            "offset": 0,
            "slot": "6",
            "type": "t_uint256"
          },
          {
            "astId": 25167,
            "contract": "contracts/lockers/LockersLogicTestnet.sol:LockersLogicTestnet",
            "label": "reservedNativeTokenForSlash",
            "offset": 0,
            "slot": "7",
            "type": "t_uint256"
          },
          {
            "astId": 25169,
            "contract": "contracts/lockers/LockersLogicTestnet.sol:LockersLogicTestnet",
            "label": "isLocker",
            "offset": 0,
            "slot": "8",
            "type": "t_bool"
          },
          {
            "astId": 25171,
            "contract": "contracts/lockers/LockersLogicTestnet.sol:LockersLogicTestnet",
            "label": "isCandidate",
            "offset": 1,
            "slot": "8",
            "type": "t_bool"
          },
          {
            "astId": 25173,
            "contract": "contracts/lockers/LockersLogicTestnet.sol:LockersLogicTestnet",
            "label": "isScriptHash",
            "offset": 2,
            "slot": "8",
            "type": "t_bool"
          },
          {
            "astId": 25175,
            "contract": "contracts/lockers/LockersLogicTestnet.sol:LockersLogicTestnet",
            "label": "isActive",
            "offset": 3,
            "slot": "8",
            "type": "t_bool"
          }
        ],
        "numberOfBytes": "288"
      },
      "t_struct(lockersLibConstants)25189_storage": {
        "encoding": "inplace",
        "label": "struct DataTypes.lockersLibConstants",
        "members": [
          {
            "astId": 25178,
            "contract": "contracts/lockers/LockersLogicTestnet.sol:LockersLogicTestnet",
            "label": "OneHundredPercent",
            "offset": 0,
            "slot": "0",
            "type": "t_uint256"
          },
          {
            "astId": 25180,
            "contract": "contracts/lockers/LockersLogicTestnet.sol:LockersLogicTestnet",
            "label": "HealthFactor",
            "offset": 0,
            "slot": "1",
            "type": "t_uint256"
          },
          {
            "astId": 25182,
            "contract": "contracts/lockers/LockersLogicTestnet.sol:LockersLogicTestnet",
            "label": "UpperHealthFactor",
            "offset": 0,
            "slot": "2",
            "type": "t_uint256"
          },
          {
            "astId": 25184,
            "contract": "contracts/lockers/LockersLogicTestnet.sol:LockersLogicTestnet",
            "label": "MaxLockerFee",
            "offset": 0,
            "slot": "3",
            "type": "t_uint256"
          },
          {
            "astId": 25186,
            "contract": "contracts/lockers/LockersLogicTestnet.sol:LockersLogicTestnet",
            "label": "NativeTokenDecimal",
            "offset": 0,
            "slot": "4",
            "type": "t_uint256"
          },
          {
            "astId": 25188,
            "contract": "contracts/lockers/LockersLogicTestnet.sol:LockersLogicTestnet",
            "label": "NativeToken",
            "offset": 0,
            "slot": "5",
            "type": "t_address"
          }
        ],
        "numberOfBytes": "192"
      },
      "t_struct(lockersLibParam)25212_storage": {
        "encoding": "inplace",
        "label": "struct DataTypes.lockersLibParam",
        "members": [
          {
            "astId": 25191,
            "contract": "contracts/lockers/LockersLogicTestnet.sol:LockersLogicTestnet",
            "label": "teleportDAOToken",
            "offset": 0,
            "slot": "0",
            "type": "t_address"
          },
          {
            "astId": 25193,
            "contract": "contracts/lockers/LockersLogicTestnet.sol:LockersLogicTestnet",
            "label": "teleBTC",
            "offset": 0,
            "slot": "1",
            "type": "t_address"
          },
          {
            "astId": 25195,
            "contract": "contracts/lockers/LockersLogicTestnet.sol:LockersLogicTestnet",
            "label": "ccBurnRouter",
            "offset": 0,
            "slot": "2",
            "type": "t_address"
          },
          {
            "astId": 25197,
            "contract": "contracts/lockers/LockersLogicTestnet.sol:LockersLogicTestnet",
            "label": "exchangeConnector",
            "offset": 0,
            "slot": "3",
            "type": "t_address"
          },
          {
            "astId": 25199,
            "contract": "contracts/lockers/LockersLogicTestnet.sol:LockersLogicTestnet",
            "label": "priceOracle",
            "offset": 0,
            "slot": "4",
            "type": "t_address"
          },
          {
            "astId": 25201,
            "contract": "contracts/lockers/LockersLogicTestnet.sol:LockersLogicTestnet",
            "label": "minRequiredTDTLockedAmount",
            "offset": 0,
            "slot": "5",
            "type": "t_uint256"
          },
          {
            "astId": 25203,
            "contract": "contracts/lockers/LockersLogicTestnet.sol:LockersLogicTestnet",
            "label": "minRequiredTNTLockedAmount",
            "offset": 0,
            "slot": "6",
            "type": "t_uint256"
          },
          {
            "astId": 25205,
            "contract": "contracts/lockers/LockersLogicTestnet.sol:LockersLogicTestnet",
            "label": "lockerPercentageFee",
            "offset": 0,
            "slot": "7",
            "type": "t_uint256"
          },
          {
            "astId": 25207,
            "contract": "contracts/lockers/LockersLogicTestnet.sol:LockersLogicTestnet",
            "label": "collateralRatio",
            "offset": 0,
            "slot": "8",
            "type": "t_uint256"
          },
          {
            "astId": 25209,
            "contract": "contracts/lockers/LockersLogicTestnet.sol:LockersLogicTestnet",
            "label": "liquidationRatio",
            "offset": 0,
            "slot": "9",
            "type": "t_uint256"
          },
          {
            "astId": 25211,
            "contract": "contracts/lockers/LockersLogicTestnet.sol:LockersLogicTestnet",
            "label": "priceWithDiscountRatio",
            "offset": 0,
            "slot": "10",
            "type": "t_uint256"
          }
        ],
        "numberOfBytes": "352"
      },
      "t_uint256": {
        "encoding": "inplace",
        "label": "uint256",
        "numberOfBytes": "32"
      },
      "t_uint8": {
        "encoding": "inplace",
        "label": "uint8",
        "numberOfBytes": "1"
      }
    }
  }
}