{
  "address": "0x75Ae39c4dB0D8f09B0217f100F5EC9929e57A532",
  "abi": [
    {
      "anonymous": false,
      "inputs": [
        {
          "indexed": true,
          "internalType": "address",
          "name": "lockerTargetAddress",
          "type": "address"
        },
        {
          "indexed": false,
          "internalType": "uint256",
          "name": "burntAmount",
          "type": "uint256"
        },
        {
          "indexed": false,
          "internalType": "uint256",
          "name": "lockerFee",
          "type": "uint256"
        },
        {
          "indexed": false,
          "internalType": "uint256",
          "name": "burningTime",
          "type": "uint256"
        }
      ],
      "name": "BurnByLocker",
      "type": "event"
    },
    {
      "anonymous": false,
      "inputs": [
        {
          "indexed": true,
          "internalType": "address",
          "name": "account",
          "type": "address"
        }
      ],
      "name": "BurnerAdded",
      "type": "event"
    },
    {
      "anonymous": false,
      "inputs": [
        {
          "indexed": true,
          "internalType": "address",
          "name": "account",
          "type": "address"
        }
      ],
      "name": "BurnerRemoved",
      "type": "event"
    },
    {
      "anonymous": false,
      "inputs": [
        {
          "indexed": true,
          "internalType": "address",
          "name": "lockerTargetAddress",
          "type": "address"
        },
        {
          "indexed": false,
          "internalType": "uint256",
          "name": "addedCollateral",
          "type": "uint256"
        },
        {
          "indexed": false,
          "internalType": "uint256",
          "name": "totalCollateral",
          "type": "uint256"
        },
        {
          "indexed": false,
          "internalType": "uint256",
          "name": "addingTime",
          "type": "uint256"
        }
      ],
      "name": "CollateralAdded",
      "type": "event"
    },
    {
      "anonymous": false,
      "inputs": [
        {
          "indexed": true,
          "internalType": "address",
          "name": "lockerTargetAddress",
          "type": "address"
        },
        {
          "indexed": false,
          "internalType": "uint256",
          "name": "removedCollateral",
          "type": "uint256"
        },
        {
          "indexed": false,
          "internalType": "uint256",
          "name": "totalCollateral",
          "type": "uint256"
        },
        {
          "indexed": false,
          "internalType": "uint256",
          "name": "removingTime",
          "type": "uint256"
        }
      ],
      "name": "CollateralRemoved",
      "type": "event"
    },
    {
      "anonymous": false,
      "inputs": [
        {
          "indexed": false,
          "internalType": "uint8",
          "name": "version",
          "type": "uint8"
        }
      ],
      "name": "Initialized",
      "type": "event"
    },
    {
      "anonymous": false,
      "inputs": [
        {
          "indexed": true,
          "internalType": "address",
          "name": "lockerTargetAddress",
          "type": "address"
        },
        {
          "indexed": false,
          "internalType": "bytes",
          "name": "lockerLockingScript",
          "type": "bytes"
        },
        {
          "indexed": false,
          "internalType": "uint256",
          "name": "TDTLockedAmount",
          "type": "uint256"
        },
        {
          "indexed": false,
          "internalType": "uint256",
          "name": "nativeTokenLockedAmount",
          "type": "uint256"
        },
        {
          "indexed": false,
          "internalType": "uint256",
          "name": "addingTime",
          "type": "uint256"
        }
      ],
      "name": "LockerAdded",
      "type": "event"
    },
    {
      "anonymous": false,
      "inputs": [
        {
          "indexed": true,
          "internalType": "address",
          "name": "lockerTargetAddress",
          "type": "address"
        },
        {
          "indexed": true,
          "internalType": "address",
          "name": "liquidatorAddress",
          "type": "address"
        },
        {
          "indexed": false,
          "internalType": "uint256",
          "name": "collateralAmount",
          "type": "uint256"
        },
        {
          "indexed": false,
          "internalType": "uint256",
          "name": "teleBTCAmount",
          "type": "uint256"
        },
        {
          "indexed": false,
          "internalType": "uint256",
          "name": "liquidateTime",
          "type": "uint256"
        }
      ],
      "name": "LockerLiquidated",
      "type": "event"
    },
    {
      "anonymous": false,
      "inputs": [
        {
          "indexed": true,
          "internalType": "address",
          "name": "lockerTargetAddress",
          "type": "address"
        },
        {
          "indexed": false,
          "internalType": "bytes",
          "name": "lockerLockingScript",
          "type": "bytes"
        },
        {
          "indexed": false,
          "internalType": "uint256",
          "name": "TDTUnlockedAmount",
          "type": "uint256"
        },
        {
          "indexed": false,
          "internalType": "uint256",
          "name": "nativeTokenUnlockedAmount",
          "type": "uint256"
        }
      ],
      "name": "LockerRemoved",
      "type": "event"
    },
    {
      "anonymous": false,
      "inputs": [
        {
          "indexed": true,
          "internalType": "address",
          "name": "lockerTargetAddress",
          "type": "address"
        },
        {
          "indexed": false,
          "internalType": "uint256",
          "name": "rewardAmount",
          "type": "uint256"
        },
        {
          "indexed": true,
          "internalType": "address",
          "name": "rewardRecipient",
          "type": "address"
        },
        {
          "indexed": false,
          "internalType": "uint256",
          "name": "amount",
          "type": "uint256"
        },
        {
          "indexed": true,
          "internalType": "address",
          "name": "recipient",
          "type": "address"
        },
        {
          "indexed": false,
          "internalType": "uint256",
          "name": "slashedCollateralAmount",
          "type": "uint256"
        },
        {
          "indexed": false,
          "internalType": "uint256",
          "name": "slashTime",
          "type": "uint256"
        },
        {
          "indexed": false,
          "internalType": "bool",
          "name": "isForCCBurn",
          "type": "bool"
        }
      ],
      "name": "LockerSlashed",
      "type": "event"
    },
    {
      "anonymous": false,
      "inputs": [
        {
          "indexed": true,
          "internalType": "address",
          "name": "lockerTargetAddress",
          "type": "address"
        },
        {
          "indexed": true,
          "internalType": "address",
          "name": "buyerAddress",
          "type": "address"
        },
        {
          "indexed": false,
          "internalType": "uint256",
          "name": "slashingAmount",
          "type": "uint256"
        },
        {
          "indexed": false,
          "internalType": "uint256",
          "name": "teleBTCAmount",
          "type": "uint256"
        },
        {
          "indexed": false,
          "internalType": "uint256",
          "name": "slashingTime",
          "type": "uint256"
        }
      ],
      "name": "LockerSlashedCollateralSold",
      "type": "event"
    },
    {
      "anonymous": false,
      "inputs": [
        {
          "indexed": true,
          "internalType": "address",
          "name": "lockerTargetAddress",
          "type": "address"
        },
        {
          "indexed": true,
          "internalType": "address",
          "name": "receiver",
          "type": "address"
        },
        {
          "indexed": false,
          "internalType": "uint256",
          "name": "mintedAmount",
          "type": "uint256"
        },
        {
          "indexed": false,
          "internalType": "uint256",
          "name": "lockerFee",
          "type": "uint256"
        },
        {
          "indexed": false,
          "internalType": "uint256",
          "name": "mintingTime",
          "type": "uint256"
        }
      ],
      "name": "MintByLocker",
      "type": "event"
    },
    {
      "anonymous": false,
      "inputs": [
        {
          "indexed": true,
          "internalType": "address",
          "name": "account",
          "type": "address"
        }
      ],
      "name": "MinterAdded",
      "type": "event"
    },
    {
      "anonymous": false,
      "inputs": [
        {
          "indexed": true,
          "internalType": "address",
          "name": "account",
          "type": "address"
        }
      ],
      "name": "MinterRemoved",
      "type": "event"
    },
    {
      "anonymous": false,
      "inputs": [
        {
          "indexed": false,
          "internalType": "address",
          "name": "oldCCBurnRouter",
          "type": "address"
        },
        {
          "indexed": false,
          "internalType": "address",
          "name": "newCCBurnRouter",
          "type": "address"
        }
      ],
      "name": "NewCCBurnRouter",
      "type": "event"
    },
    {
      "anonymous": false,
      "inputs": [
        {
          "indexed": false,
          "internalType": "uint256",
          "name": "oldCollateralRatio",
          "type": "uint256"
        },
        {
          "indexed": false,
          "internalType": "uint256",
          "name": "newCollateralRatio",
          "type": "uint256"
        }
      ],
      "name": "NewCollateralRatio",
      "type": "event"
    },
    {
      "anonymous": false,
      "inputs": [
        {
          "indexed": false,
          "internalType": "address",
          "name": "oldExchangeConnector",
          "type": "address"
        },
        {
          "indexed": false,
          "internalType": "address",
          "name": "newExchangeConnector",
          "type": "address"
        }
      ],
      "name": "NewExchangeConnector",
      "type": "event"
    },
    {
      "anonymous": false,
      "inputs": [
        {
          "indexed": false,
          "internalType": "uint256",
          "name": "oldLiquidationRatio",
          "type": "uint256"
        },
        {
          "indexed": false,
          "internalType": "uint256",
          "name": "newLiquidationRatio",
          "type": "uint256"
        }
      ],
      "name": "NewLiquidationRatio",
      "type": "event"
    },
    {
      "anonymous": false,
      "inputs": [
        {
          "indexed": false,
          "internalType": "uint256",
          "name": "oldLockerPercentageFee",
          "type": "uint256"
        },
        {
          "indexed": false,
          "internalType": "uint256",
          "name": "newLockerPercentageFee",
          "type": "uint256"
        }
      ],
      "name": "NewLockerPercentageFee",
      "type": "event"
    },
    {
      "anonymous": false,
      "inputs": [
        {
          "indexed": false,
          "internalType": "uint256",
          "name": "oldMinLeavingIntervalTime",
          "type": "uint256"
        },
        {
          "indexed": false,
          "internalType": "uint256",
          "name": "newMinLeavingIntervalTime",
          "type": "uint256"
        }
      ],
      "name": "NewMinLeavingIntervalTime",
      "type": "event"
    },
    {
      "anonymous": false,
      "inputs": [
        {
          "indexed": false,
          "internalType": "uint256",
          "name": "oldMinRequiredTDTLockedAmount",
          "type": "uint256"
        },
        {
          "indexed": false,
          "internalType": "uint256",
          "name": "newMinRequiredTDTLockedAmount",
          "type": "uint256"
        }
      ],
      "name": "NewMinRequiredTDTLockedAmount",
      "type": "event"
    },
    {
      "anonymous": false,
      "inputs": [
        {
          "indexed": false,
          "internalType": "uint256",
          "name": "oldMinRequiredTNTLockedAmount",
          "type": "uint256"
        },
        {
          "indexed": false,
          "internalType": "uint256",
          "name": "newMinRequiredTNTLockedAmount",
          "type": "uint256"
        }
      ],
      "name": "NewMinRequiredTNTLockedAmount",
      "type": "event"
    },
    {
      "anonymous": false,
      "inputs": [
        {
          "indexed": false,
          "internalType": "address",
          "name": "oldPriceOracle",
          "type": "address"
        },
        {
          "indexed": false,
          "internalType": "address",
          "name": "newPriceOracle",
          "type": "address"
        }
      ],
      "name": "NewPriceOracle",
      "type": "event"
    },
    {
      "anonymous": false,
      "inputs": [
        {
          "indexed": false,
          "internalType": "uint256",
          "name": "oldPriceWithDiscountRatio",
          "type": "uint256"
        },
        {
          "indexed": false,
          "internalType": "uint256",
          "name": "newPriceWithDiscountRatio",
          "type": "uint256"
        }
      ],
      "name": "NewPriceWithDiscountRatio",
      "type": "event"
    },
    {
      "anonymous": false,
      "inputs": [
        {
          "indexed": false,
          "internalType": "address",
          "name": "oldTeleBTC",
          "type": "address"
        },
        {
          "indexed": false,
          "internalType": "address",
          "name": "newTeleBTC",
          "type": "address"
        }
      ],
      "name": "NewTeleBTC",
      "type": "event"
    },
    {
      "anonymous": false,
      "inputs": [
        {
          "indexed": false,
          "internalType": "address",
          "name": "oldTDTToken",
          "type": "address"
        },
        {
          "indexed": false,
          "internalType": "address",
          "name": "newTDTToken",
          "type": "address"
        }
      ],
      "name": "NewTeleportDAOToken",
      "type": "event"
    },
    {
      "anonymous": false,
      "inputs": [
        {
          "indexed": true,
          "internalType": "address",
          "name": "previousOwner",
          "type": "address"
        },
        {
          "indexed": true,
          "internalType": "address",
          "name": "newOwner",
          "type": "address"
        }
      ],
      "name": "OwnershipTransferred",
      "type": "event"
    },
    {
      "anonymous": false,
      "inputs": [
        {
          "indexed": false,
          "internalType": "address",
          "name": "account",
          "type": "address"
        }
      ],
      "name": "Paused",
      "type": "event"
    },
    {
      "anonymous": false,
      "inputs": [
        {
          "indexed": true,
          "internalType": "address",
          "name": "lockerTargetAddress",
          "type": "address"
        },
        {
          "indexed": false,
          "internalType": "bytes",
          "name": "lockerLockingScript",
          "type": "bytes"
        },
        {
          "indexed": false,
          "internalType": "uint256",
          "name": "TDTLockedAmount",
          "type": "uint256"
        },
        {
          "indexed": false,
          "internalType": "uint256",
          "name": "nativeTokenLockedAmount",
          "type": "uint256"
        }
      ],
      "name": "RequestAddLocker",
      "type": "event"
    },
    {
      "anonymous": false,
      "inputs": [
        {
          "indexed": true,
          "internalType": "address",
          "name": "lockerTargetAddress",
          "type": "address"
        },
        {
          "indexed": false,
          "internalType": "bytes",
          "name": "lockerLockingScript",
          "type": "bytes"
        },
        {
          "indexed": false,
          "internalType": "uint256",
          "name": "TDTUnlockedAmount",
          "type": "uint256"
        },
        {
          "indexed": false,
          "internalType": "uint256",
          "name": "nativeTokenUnlockedAmount",
          "type": "uint256"
        },
        {
          "indexed": false,
          "internalType": "uint256",
          "name": "netMinted",
          "type": "uint256"
        }
      ],
      "name": "RequestRemoveLocker",
      "type": "event"
    },
    {
      "anonymous": false,
      "inputs": [
        {
          "indexed": true,
          "internalType": "address",
          "name": "lockerTargetAddress",
          "type": "address"
        },
        {
          "indexed": false,
          "internalType": "bytes",
          "name": "lockerLockingScript",
          "type": "bytes"
        },
        {
          "indexed": false,
          "internalType": "uint256",
          "name": "TDTLockedAmount",
          "type": "uint256"
        },
        {
          "indexed": false,
          "internalType": "uint256",
          "name": "nativeTokenLockedAmount",
          "type": "uint256"
        }
      ],
      "name": "RevokeAddLockerRequest",
      "type": "event"
    },
    {
      "anonymous": false,
      "inputs": [
        {
          "indexed": false,
          "internalType": "address",
          "name": "account",
          "type": "address"
        }
      ],
      "name": "Unpaused",
      "type": "event"
    },
    {
      "inputs": [],
      "name": "HEALTH_FACTOR",
      "outputs": [
        {
          "internalType": "uint256",
          "name": "",
          "type": "uint256"
        }
      ],
      "stateMutability": "view",
      "type": "function"
    },
    {
      "inputs": [],
      "name": "MAX_LOCKER_FEE",
      "outputs": [
        {
          "internalType": "uint256",
          "name": "",
          "type": "uint256"
        }
      ],
      "stateMutability": "view",
      "type": "function"
    },
    {
      "inputs": [],
      "name": "NATIVE_TOKEN",
      "outputs": [
        {
          "internalType": "address",
          "name": "",
          "type": "address"
        }
      ],
      "stateMutability": "view",
      "type": "function"
    },
    {
      "inputs": [],
      "name": "NATIVE_TOKEN_DECIMAL",
      "outputs": [
        {
          "internalType": "uint256",
          "name": "",
          "type": "uint256"
        }
      ],
      "stateMutability": "view",
      "type": "function"
    },
    {
      "inputs": [],
      "name": "ONE_HUNDRED_PERCENT",
      "outputs": [
        {
          "internalType": "uint256",
          "name": "",
          "type": "uint256"
        }
      ],
      "stateMutability": "view",
      "type": "function"
    },
    {
      "inputs": [],
      "name": "TeleportDAOToken",
      "outputs": [
        {
          "internalType": "address",
          "name": "",
          "type": "address"
        }
      ],
      "stateMutability": "view",
      "type": "function"
    },
    {
      "inputs": [],
      "name": "UPPER_HEALTH_FACTOR",
      "outputs": [
        {
          "internalType": "uint256",
          "name": "",
          "type": "uint256"
        }
      ],
      "stateMutability": "view",
      "type": "function"
    },
    {
      "inputs": [
        {
          "internalType": "address",
          "name": "_account",
          "type": "address"
        }
      ],
      "name": "addBurner",
      "outputs": [],
      "stateMutability": "nonpayable",
      "type": "function"
    },
    {
      "inputs": [
        {
          "internalType": "address",
          "name": "_lockerTargetAddress",
          "type": "address"
        },
        {
          "internalType": "uint256",
          "name": "_addingNativeTokenAmount",
          "type": "uint256"
        }
      ],
      "name": "addCollateral",
      "outputs": [
        {
          "internalType": "bool",
          "name": "",
          "type": "bool"
        }
      ],
      "stateMutability": "payable",
      "type": "function"
    },
    {
      "inputs": [
        {
          "internalType": "address",
          "name": "_lockerTargetAddress",
          "type": "address"
        }
      ],
      "name": "addLocker",
      "outputs": [
        {
          "internalType": "bool",
          "name": "",
          "type": "bool"
        }
      ],
      "stateMutability": "nonpayable",
      "type": "function"
    },
    {
      "inputs": [
        {
          "internalType": "address",
          "name": "_account",
          "type": "address"
        }
      ],
      "name": "addMinter",
      "outputs": [],
      "stateMutability": "nonpayable",
      "type": "function"
    },
    {
      "inputs": [
        {
          "internalType": "bytes",
          "name": "_lockerLockingScript",
          "type": "bytes"
        },
        {
          "internalType": "uint256",
          "name": "_amount",
          "type": "uint256"
        }
      ],
      "name": "burn",
      "outputs": [
        {
          "internalType": "uint256",
          "name": "",
          "type": "uint256"
        }
      ],
      "stateMutability": "nonpayable",
      "type": "function"
    },
    {
      "inputs": [
        {
          "internalType": "address",
          "name": "_lockerTargetAddress",
          "type": "address"
        },
        {
          "internalType": "uint256",
          "name": "_collateralAmount",
          "type": "uint256"
        }
      ],
      "name": "buySlashedCollateralOfLocker",
      "outputs": [
        {
          "internalType": "bool",
          "name": "",
          "type": "bool"
        }
      ],
      "stateMutability": "nonpayable",
      "type": "function"
    },
    {
      "inputs": [],
      "name": "ccBurnRouter",
      "outputs": [
        {
          "internalType": "address",
          "name": "",
          "type": "address"
        }
      ],
      "stateMutability": "view",
      "type": "function"
    },
    {
      "inputs": [],
      "name": "collateralRatio",
      "outputs": [
        {
          "internalType": "uint256",
          "name": "",
          "type": "uint256"
        }
      ],
      "stateMutability": "view",
      "type": "function"
    },
    {
      "inputs": [],
      "name": "exchangeConnector",
      "outputs": [
        {
          "internalType": "address",
          "name": "",
          "type": "address"
        }
      ],
      "stateMutability": "view",
      "type": "function"
    },
    {
      "inputs": [
        {
          "internalType": "address",
          "name": "_lockerTargetAddress",
          "type": "address"
        }
      ],
      "name": "getLockerCapacity",
      "outputs": [
        {
          "internalType": "uint256",
          "name": "",
          "type": "uint256"
        }
      ],
      "stateMutability": "view",
      "type": "function"
    },
    {
      "inputs": [
        {
          "internalType": "address",
          "name": "_lockerTargetAddress",
          "type": "address"
        }
      ],
      "name": "getLockerLockingScript",
      "outputs": [
        {
          "internalType": "bytes",
          "name": "",
          "type": "bytes"
        }
      ],
      "stateMutability": "view",
      "type": "function"
    },
    {
      "inputs": [
        {
          "internalType": "bytes",
          "name": "_lockerLockingScript",
          "type": "bytes"
        }
      ],
      "name": "getLockerTargetAddress",
      "outputs": [
        {
          "internalType": "address",
          "name": "",
          "type": "address"
        }
      ],
      "stateMutability": "view",
      "type": "function"
    },
    {
      "inputs": [],
      "name": "getNumberOfLockers",
      "outputs": [
        {
          "internalType": "uint256",
          "name": "",
          "type": "uint256"
        }
      ],
      "stateMutability": "view",
      "type": "function"
    },
    {
      "inputs": [
        {
          "internalType": "address",
          "name": "_teleBTC",
          "type": "address"
        },
        {
          "internalType": "address",
          "name": "_TeleportDAOToken",
          "type": "address"
        },
        {
          "internalType": "address",
          "name": "_exchangeConnector",
          "type": "address"
        },
        {
          "internalType": "address",
          "name": "_priceOracle",
          "type": "address"
        },
        {
          "internalType": "address",
          "name": "_ccBurnRouter",
          "type": "address"
        },
        {
          "internalType": "uint256",
          "name": "_minRequiredTDTLockedAmount",
          "type": "uint256"
        },
        {
          "internalType": "uint256",
          "name": "_minRequiredTNTLockedAmount",
          "type": "uint256"
        },
        {
          "internalType": "uint256",
          "name": "_collateralRatio",
          "type": "uint256"
        },
        {
          "internalType": "uint256",
          "name": "_liquidationRatio",
          "type": "uint256"
        },
        {
          "internalType": "uint256",
          "name": "_lockerPercentageFee",
          "type": "uint256"
        },
        {
          "internalType": "uint256",
          "name": "_priceWithDiscountRatio",
          "type": "uint256"
        },
        {
          "internalType": "uint256",
          "name": "_minLeavingIntervalTime",
          "type": "uint256"
        }
      ],
      "name": "initialize",
      "outputs": [],
      "stateMutability": "nonpayable",
      "type": "function"
    },
    {
      "inputs": [
        {
          "internalType": "address",
          "name": "_lockerTargetAddress",
          "type": "address"
        }
      ],
      "name": "isActive",
      "outputs": [
        {
          "internalType": "bool",
          "name": "",
          "type": "bool"
        }
      ],
      "stateMutability": "view",
      "type": "function"
    },
    {
      "inputs": [
        {
          "internalType": "address",
          "name": "account",
          "type": "address"
        }
      ],
      "name": "isBurner",
      "outputs": [
        {
          "internalType": "bool",
          "name": "",
          "type": "bool"
        }
      ],
      "stateMutability": "view",
      "type": "function"
    },
    {
      "inputs": [
        {
          "internalType": "bytes",
          "name": "_lockerLockingScript",
          "type": "bytes"
        }
      ],
      "name": "isLocker",
      "outputs": [
        {
          "internalType": "bool",
          "name": "",
          "type": "bool"
        }
      ],
      "stateMutability": "view",
      "type": "function"
    },
    {
      "inputs": [
        {
          "internalType": "address",
          "name": "account",
          "type": "address"
        }
      ],
      "name": "isMinter",
      "outputs": [
        {
          "internalType": "bool",
          "name": "",
          "type": "bool"
        }
      ],
      "stateMutability": "view",
      "type": "function"
    },
    {
      "inputs": [],
      "name": "libConstants",
      "outputs": [
        {
          "internalType": "uint256",
          "name": "OneHundredPercent",
          "type": "uint256"
        },
        {
          "internalType": "uint256",
          "name": "HealthFactor",
          "type": "uint256"
        },
        {
          "internalType": "uint256",
          "name": "UpperHealthFactor",
          "type": "uint256"
        },
        {
          "internalType": "uint256",
          "name": "MaxLockerFee",
          "type": "uint256"
        },
        {
          "internalType": "uint256",
          "name": "NativeTokenDecimal",
          "type": "uint256"
        },
        {
          "internalType": "address",
          "name": "NativeToken",
          "type": "address"
        }
      ],
      "stateMutability": "view",
      "type": "function"
    },
    {
      "inputs": [],
      "name": "libParams",
      "outputs": [
        {
          "internalType": "address",
          "name": "teleportDAOToken",
          "type": "address"
        },
        {
          "internalType": "address",
          "name": "teleBTC",
          "type": "address"
        },
        {
          "internalType": "address",
          "name": "ccBurnRouter",
          "type": "address"
        },
        {
          "internalType": "address",
          "name": "exchangeConnector",
          "type": "address"
        },
        {
          "internalType": "address",
          "name": "priceOracle",
          "type": "address"
        },
        {
          "internalType": "uint256",
          "name": "minRequiredTDTLockedAmount",
          "type": "uint256"
        },
        {
          "internalType": "uint256",
          "name": "minRequiredTNTLockedAmount",
          "type": "uint256"
        },
        {
          "internalType": "uint256",
          "name": "lockerPercentageFee",
          "type": "uint256"
        },
        {
          "internalType": "uint256",
          "name": "collateralRatio",
          "type": "uint256"
        },
        {
          "internalType": "uint256",
          "name": "liquidationRatio",
          "type": "uint256"
        },
        {
          "internalType": "uint256",
          "name": "priceWithDiscountRatio",
          "type": "uint256"
        },
        {
          "internalType": "uint256",
          "name": "minLeavingIntervalTime",
          "type": "uint256"
        }
      ],
      "stateMutability": "view",
      "type": "function"
    },
    {
      "inputs": [
        {
          "internalType": "address",
          "name": "_lockerTargetAddress",
          "type": "address"
        },
        {
          "internalType": "uint256",
          "name": "_collateralAmount",
          "type": "uint256"
        }
      ],
      "name": "liquidateLocker",
      "outputs": [
        {
          "internalType": "bool",
          "name": "",
          "type": "bool"
        }
      ],
      "stateMutability": "nonpayable",
      "type": "function"
    },
    {
      "inputs": [],
      "name": "liquidationRatio",
      "outputs": [
        {
          "internalType": "uint256",
          "name": "",
          "type": "uint256"
        }
      ],
      "stateMutability": "view",
      "type": "function"
    },
    {
      "inputs": [
        {
          "internalType": "address",
          "name": "",
          "type": "address"
        }
      ],
      "name": "lockerLeavingAcceptance",
      "outputs": [
        {
          "internalType": "bool",
          "name": "",
          "type": "bool"
        }
      ],
      "stateMutability": "view",
      "type": "function"
    },
    {
      "inputs": [
        {
          "internalType": "address",
          "name": "",
          "type": "address"
        }
      ],
      "name": "lockerLeavingRequests",
      "outputs": [
        {
          "internalType": "bool",
          "name": "",
          "type": "bool"
        }
      ],
      "stateMutability": "view",
      "type": "function"
    },
    {
      "inputs": [
        {
          "internalType": "address",
          "name": "",
          "type": "address"
        }
      ],
      "name": "lockerLeavingRequestsTimestamp",
      "outputs": [
        {
          "internalType": "uint256",
          "name": "",
          "type": "uint256"
        }
      ],
      "stateMutability": "view",
      "type": "function"
    },
    {
      "inputs": [],
      "name": "lockerPercentageFee",
      "outputs": [
        {
          "internalType": "uint256",
          "name": "",
          "type": "uint256"
        }
      ],
      "stateMutability": "view",
      "type": "function"
    },
    {
      "inputs": [
        {
          "internalType": "bytes",
          "name": "",
          "type": "bytes"
        }
      ],
      "name": "lockerTargetAddress",
      "outputs": [
        {
          "internalType": "address",
          "name": "",
          "type": "address"
        }
      ],
      "stateMutability": "view",
      "type": "function"
    },
    {
      "inputs": [
        {
          "internalType": "address",
          "name": "",
          "type": "address"
        }
      ],
      "name": "lockersMapping",
      "outputs": [
        {
          "internalType": "bytes",
          "name": "lockerLockingScript",
          "type": "bytes"
        },
        {
          "internalType": "enum ScriptTypes",
          "name": "lockerRescueType",
          "type": "uint8"
        },
        {
          "internalType": "bytes",
          "name": "lockerRescueScript",
          "type": "bytes"
        },
        {
          "internalType": "uint256",
          "name": "TDTLockedAmount",
          "type": "uint256"
        },
        {
          "internalType": "uint256",
          "name": "nativeTokenLockedAmount",
          "type": "uint256"
        },
        {
          "internalType": "uint256",
          "name": "netMinted",
          "type": "uint256"
        },
        {
          "internalType": "uint256",
          "name": "slashingTeleBTCAmount",
          "type": "uint256"
        },
        {
          "internalType": "uint256",
          "name": "reservedNativeTokenForSlash",
          "type": "uint256"
        },
        {
          "internalType": "bool",
          "name": "isLocker",
          "type": "bool"
        },
        {
          "internalType": "bool",
          "name": "isCandidate",
          "type": "bool"
        },
        {
          "internalType": "bool",
          "name": "isScriptHash",
          "type": "bool"
        },
        {
          "internalType": "bool",
          "name": "isActive",
          "type": "bool"
        }
      ],
      "stateMutability": "view",
      "type": "function"
    },
    {
      "inputs": [],
      "name": "minLeavingIntervalTime",
      "outputs": [
        {
          "internalType": "uint256",
          "name": "",
          "type": "uint256"
        }
      ],
      "stateMutability": "view",
      "type": "function"
    },
    {
      "inputs": [],
      "name": "minRequiredTDTLockedAmount",
      "outputs": [
        {
          "internalType": "uint256",
          "name": "",
          "type": "uint256"
        }
      ],
      "stateMutability": "view",
      "type": "function"
    },
    {
      "inputs": [],
      "name": "minRequiredTNTLockedAmount",
      "outputs": [
        {
          "internalType": "uint256",
          "name": "",
          "type": "uint256"
        }
      ],
      "stateMutability": "view",
      "type": "function"
    },
    {
      "inputs": [
        {
          "internalType": "bytes",
          "name": "_lockerLockingScript",
          "type": "bytes"
        },
        {
          "internalType": "address",
          "name": "_receiver",
          "type": "address"
        },
        {
          "internalType": "uint256",
          "name": "_amount",
          "type": "uint256"
        }
      ],
      "name": "mint",
      "outputs": [
        {
          "internalType": "uint256",
          "name": "",
          "type": "uint256"
        }
      ],
      "stateMutability": "nonpayable",
      "type": "function"
    },
    {
      "inputs": [],
      "name": "owner",
      "outputs": [
        {
          "internalType": "address",
          "name": "",
          "type": "address"
        }
      ],
      "stateMutability": "view",
      "type": "function"
    },
    {
      "inputs": [
        {
          "internalType": "address",
          "name": "_lockerTargetAddress",
          "type": "address"
        }
      ],
      "name": "ownerRemoveLocker",
      "outputs": [
        {
          "internalType": "bool",
          "name": "",
          "type": "bool"
        }
      ],
      "stateMutability": "nonpayable",
      "type": "function"
    },
    {
      "inputs": [],
      "name": "pauseLocker",
      "outputs": [],
      "stateMutability": "nonpayable",
      "type": "function"
    },
    {
      "inputs": [],
      "name": "paused",
      "outputs": [
        {
          "internalType": "bool",
          "name": "",
          "type": "bool"
        }
      ],
      "stateMutability": "view",
      "type": "function"
    },
    {
      "inputs": [],
      "name": "priceOfOneUnitOfCollateralInBTC",
      "outputs": [
        {
          "internalType": "uint256",
          "name": "",
          "type": "uint256"
        }
      ],
      "stateMutability": "view",
      "type": "function"
    },
    {
      "inputs": [],
      "name": "priceOracle",
      "outputs": [
        {
          "internalType": "address",
          "name": "",
          "type": "address"
        }
      ],
      "stateMutability": "view",
      "type": "function"
    },
    {
      "inputs": [],
      "name": "priceWithDiscountRatio",
      "outputs": [
        {
          "internalType": "uint256",
          "name": "",
          "type": "uint256"
        }
      ],
      "stateMutability": "view",
      "type": "function"
    },
    {
      "inputs": [
        {
          "internalType": "address",
          "name": "_account",
          "type": "address"
        }
      ],
      "name": "removeBurner",
      "outputs": [],
      "stateMutability": "nonpayable",
      "type": "function"
    },
    {
      "inputs": [
        {
          "internalType": "uint256",
          "name": "_removingNativeTokenAmount",
          "type": "uint256"
        }
      ],
      "name": "removeCollateral",
      "outputs": [
        {
          "internalType": "bool",
          "name": "",
          "type": "bool"
        }
      ],
      "stateMutability": "payable",
      "type": "function"
    },
    {
      "inputs": [
        {
          "internalType": "address",
          "name": "_account",
          "type": "address"
        }
      ],
      "name": "removeMinter",
      "outputs": [],
      "stateMutability": "nonpayable",
      "type": "function"
    },
    {
      "inputs": [],
      "name": "renounceOwnership",
      "outputs": [],
      "stateMutability": "nonpayable",
      "type": "function"
    },
    {
      "inputs": [
        {
          "internalType": "bytes",
          "name": "_candidateLockingScript",
          "type": "bytes"
        },
        {
          "internalType": "uint256",
          "name": "_lockedTDTAmount",
          "type": "uint256"
        },
        {
          "internalType": "uint256",
          "name": "_lockedNativeTokenAmount",
          "type": "uint256"
        },
        {
          "internalType": "enum ScriptTypes",
          "name": "_lockerRescueType",
          "type": "uint8"
        },
        {
          "internalType": "bytes",
          "name": "_lockerRescueScript",
          "type": "bytes"
        }
      ],
      "name": "requestToBecomeLocker",
      "outputs": [
        {
          "internalType": "bool",
          "name": "",
          "type": "bool"
        }
      ],
      "stateMutability": "payable",
      "type": "function"
    },
    {
      "inputs": [],
      "name": "requestToRemoveLocker",
      "outputs": [
        {
          "internalType": "bool",
          "name": "",
          "type": "bool"
        }
      ],
      "stateMutability": "nonpayable",
      "type": "function"
    },
    {
      "inputs": [],
      "name": "revokeRequest",
      "outputs": [
        {
          "internalType": "bool",
          "name": "",
          "type": "bool"
        }
      ],
      "stateMutability": "nonpayable",
      "type": "function"
    },
    {
      "inputs": [],
      "name": "selfRemoveLocker",
      "outputs": [
        {
          "internalType": "bool",
          "name": "",
          "type": "bool"
        }
      ],
      "stateMutability": "nonpayable",
      "type": "function"
    },
    {
      "inputs": [
        {
          "internalType": "address",
          "name": "_ccBurnRouter",
          "type": "address"
        }
      ],
      "name": "setCCBurnRouter",
      "outputs": [],
      "stateMutability": "nonpayable",
      "type": "function"
    },
    {
      "inputs": [
        {
          "internalType": "uint256",
          "name": "_collateralRatio",
          "type": "uint256"
        }
      ],
      "name": "setCollateralRatio",
      "outputs": [],
      "stateMutability": "nonpayable",
      "type": "function"
    },
    {
      "inputs": [
        {
          "internalType": "address",
          "name": "_exchangeConnector",
          "type": "address"
        }
      ],
      "name": "setExchangeConnector",
      "outputs": [],
      "stateMutability": "nonpayable",
      "type": "function"
    },
    {
      "inputs": [
        {
          "internalType": "uint256",
          "name": "_liquidationRatio",
          "type": "uint256"
        }
      ],
      "name": "setLiquidationRatio",
      "outputs": [],
      "stateMutability": "nonpayable",
      "type": "function"
    },
    {
      "inputs": [
        {
          "internalType": "uint256",
          "name": "_lockerPercentageFee",
          "type": "uint256"
        }
      ],
      "name": "setLockerPercentageFee",
      "outputs": [],
      "stateMutability": "nonpayable",
      "type": "function"
    },
    {
      "inputs": [
        {
          "internalType": "uint256",
          "name": "_minLeavingIntervalTime",
          "type": "uint256"
        }
      ],
      "name": "setMinLeavingIntervalTime",
      "outputs": [],
      "stateMutability": "nonpayable",
      "type": "function"
    },
    {
      "inputs": [
        {
          "internalType": "uint256",
          "name": "_minRequiredTDTLockedAmount",
          "type": "uint256"
        }
      ],
      "name": "setMinRequiredTDTLockedAmount",
      "outputs": [],
      "stateMutability": "nonpayable",
      "type": "function"
    },
    {
      "inputs": [
        {
          "internalType": "uint256",
          "name": "_minRequiredTNTLockedAmount",
          "type": "uint256"
        }
      ],
      "name": "setMinRequiredTNTLockedAmount",
      "outputs": [],
      "stateMutability": "nonpayable",
      "type": "function"
    },
    {
      "inputs": [
        {
          "internalType": "address",
          "name": "_priceOracle",
          "type": "address"
        }
      ],
      "name": "setPriceOracle",
      "outputs": [],
      "stateMutability": "nonpayable",
      "type": "function"
    },
    {
      "inputs": [
        {
          "internalType": "uint256",
          "name": "_priceWithDiscountRatio",
          "type": "uint256"
        }
      ],
      "name": "setPriceWithDiscountRatio",
      "outputs": [],
      "stateMutability": "nonpayable",
      "type": "function"
    },
    {
      "inputs": [
        {
          "internalType": "address",
          "name": "_teleBTC",
          "type": "address"
        }
      ],
      "name": "setTeleBTC",
      "outputs": [],
      "stateMutability": "nonpayable",
      "type": "function"
    },
    {
      "inputs": [
        {
          "internalType": "address",
          "name": "_tdtTokenAddress",
          "type": "address"
        }
      ],
      "name": "setTeleportDAOToken",
      "outputs": [],
      "stateMutability": "nonpayable",
      "type": "function"
    },
    {
      "inputs": [
        {
          "internalType": "address",
          "name": "_lockerTargetAddress",
          "type": "address"
        },
        {
          "internalType": "uint256",
          "name": "_rewardAmount",
          "type": "uint256"
        },
        {
          "internalType": "address",
          "name": "_rewardRecipient",
          "type": "address"
        },
        {
          "internalType": "uint256",
          "name": "_amount",
          "type": "uint256"
        },
        {
          "internalType": "address",
          "name": "_recipient",
          "type": "address"
        }
      ],
      "name": "slashIdleLocker",
      "outputs": [
        {
          "internalType": "bool",
          "name": "",
          "type": "bool"
        }
      ],
      "stateMutability": "nonpayable",
      "type": "function"
    },
    {
      "inputs": [
        {
          "internalType": "address",
          "name": "_lockerTargetAddress",
          "type": "address"
        },
        {
          "internalType": "uint256",
          "name": "_rewardAmount",
          "type": "uint256"
        },
        {
          "internalType": "address",
          "name": "_rewardRecipient",
          "type": "address"
        },
        {
          "internalType": "uint256",
          "name": "_amount",
          "type": "uint256"
        }
      ],
      "name": "slashThiefLocker",
      "outputs": [
        {
          "internalType": "bool",
          "name": "",
          "type": "bool"
        }
      ],
      "stateMutability": "nonpayable",
      "type": "function"
    },
    {
      "inputs": [],
      "name": "teleBTC",
      "outputs": [
        {
          "internalType": "address",
          "name": "",
          "type": "address"
        }
      ],
      "stateMutability": "view",
      "type": "function"
    },
    {
      "inputs": [],
      "name": "totalNumberOfCandidates",
      "outputs": [
        {
          "internalType": "uint256",
          "name": "",
          "type": "uint256"
        }
      ],
      "stateMutability": "view",
      "type": "function"
    },
    {
      "inputs": [],
      "name": "totalNumberOfLockers",
      "outputs": [
        {
          "internalType": "uint256",
          "name": "",
          "type": "uint256"
        }
      ],
      "stateMutability": "view",
      "type": "function"
    },
    {
      "inputs": [
        {
          "internalType": "address",
          "name": "newOwner",
          "type": "address"
        }
      ],
      "name": "transferOwnership",
      "outputs": [],
      "stateMutability": "nonpayable",
      "type": "function"
    },
    {
      "inputs": [],
      "name": "unPauseLocker",
      "outputs": [],
      "stateMutability": "nonpayable",
      "type": "function"
    }
  ],
  "transactionHash": "0x11f5f8f7b40c05a7a1a418dd3ebe9642b00c0dbda9b25b54c9eaf5568a956f25",
  "args": [],
  "numDeployments": 1,
  "solcInputHash": "75de7cb825f3b6d07e1f1f6c98977d78",
  "bytecode": "0x608060405234801561001057600080fd5b50615b4f80620000216000396000f3fe6080604052600436106104265760003560e01c80638d3d78cd11610229578063c0924b801161012e578063e85501d8116100b6578063f2fde38b1161007a578063f2fde38b14610d12578063f3cc6e6914610d32578063f44637ba14610d48578063f6e684cd14610d68578063ffc9f70414610d8857610426565b8063e85501d814610c9d578063e955de4514610cb2578063ed110a9c14610cc7578063ee1f1c7014610cdd578063ef69a7bc14610cfd57610426565b8063cab1344e116100fd578063cab1344e14610bd3578063cdcbc87914610bf3578063d5a38a9114610c5d578063dc04442214610c7d578063dd0081c7146106e457610426565b8063c0924b8014610b5e578063c4d10b6a14610b7e578063c6de080e14610b9e578063ca666b8414610bbe57610426565b8063aa271e1a116101b1578063b291ec1311610180578063b291ec1314610a37578063b4eae1cb14610a4d578063b734de2614610a63578063bc805d1d14610a83578063bd60e79414610a9957610426565b8063aa271e1a146109ac578063af1ea795146109cc578063aff2faa314610a04578063b1016bdf14610a2457610426565b806396ec39e8116101f857806396ec39e81461090c578063983b2d561461092c5780639bf098821461094c5780639f8a13d71461096c578063a839db241461098c57610426565b80638d3d78cd1461088e5780638da5cb5b146108ae5780638fe85fe7146108cc578063946ce8cd146108ec57610426565b806345cc58901161032f5780636600203d116102b7578063715018a611610286578063715018a614610813578063768ebb12146106e45780637da5f0da146108285780637f0f18171461085857806388aa0a521461087857610426565b80636600203d146107aa5780636d32395c146107ca5780636d75b9ee146107e057806370c102f7146107f357610426565b80635c975abb116102fe5780635c975abb1461071a5780635d6464ba146107325780636060663e1461075f578063613e2e1e1461077f578063639080201461079457610426565b806345cc5890146106a4578063530e784f146106c457806354509b97146106e45780635a8d80b8146106fa57610426565b806329186111116103b257806338463cff1161038157806338463cff146105ed57806341f3ec111461060d57806341fae5791461064e5780634334614a1461066457806343b937071461068457610426565b806329186111146105785780633092afd5146105a557806331f7d964146105c55780633237c158146105da57610426565b80631697565b116103f95780631697565b146104ed5780631775765f1461050d5780631fcfe19c146105235780632630c12f14610543578063264db4ae1461056357610426565b8063028468581461042b578063043fd54b1461044d5780630c42cbc914610492578063108f438d146104b5575b600080fd5b34801561043757600080fd5b5061044b610446366004614dbd565b610d9d565b005b34801561045957600080fd5b5061047d610468366004614dbd565b600f6020526000908152604090205460ff1681565b60405190151581526020015b60405180910390f35b34801561049e57600080fd5b506104a7601281565b604051908152602001610489565b3480156104c157600080fd5b506000546104d5906001600160a01b031681565b6040516001600160a01b039091168152602001610489565b3480156104f957600080fd5b5061047d610508366004614ee8565b610e44565b34801561051957600080fd5b506104a760095481565b34801561052f57600080fd5b506104a761053e366004614f9e565b611084565b34801561054f57600080fd5b506004546104d5906001600160a01b031681565b34801561056f57600080fd5b506104a7611450565b34801561058457600080fd5b506104a7610593366004614dbd565b60106020526000908152604090205481565b3480156105b157600080fd5b5061044b6105c0366004614dbd565b6114e3565b3480156105d157600080fd5b506104d5600181565b61047d6105e8366004615184565b611581565b3480156105f957600080fd5b506104a7610608366004614ff8565b61178d565b34801561061957600080fd5b506104d56106283660046150da565b80516020818301810180516012825292820191909301209152546001600160a01b031681565b34801561065a57600080fd5b506104a760055481565b34801561067057600080fd5b5061047d61067f366004614dbd565b611b1b565b34801561069057600080fd5b5061047d61069f366004614e7c565b611b69565b3480156106b057600080fd5b5061047d6106bf366004614dbd565b611e0c565b3480156106d057600080fd5b5061044b6106df366004614dbd565b611fc4565b3480156106f057600080fd5b506104a761271081565b34801561070657600080fd5b506002546104d5906001600160a01b031681565b34801561072657600080fd5b5060be5460ff1661047d565b34801561073e57600080fd5b5061075261074d366004614dbd565b612000565b604051610489919061546f565b34801561076b57600080fd5b5061044b61077a366004615184565b6120d2565b34801561078b57600080fd5b5061044b6120e6565b3480156107a057600080fd5b506104a760075481565b3480156107b657600080fd5b5061044b6107c5366004615184565b6120f8565b3480156107d657600080fd5b506104a760065481565b61047d6107ee366004614e7c565b612109565b3480156107ff57600080fd5b5061044b61080e366004615184565b612262565b34801561081f57600080fd5b5061044b612273565b34801561083457600080fd5b5061047d610843366004614dbd565b60116020526000908152604090205460ff1681565b34801561086457600080fd5b5061044b610873366004614dbd565b61227b565b34801561088457600080fd5b506104a7600b5481565b34801561089a57600080fd5b506001546104d5906001600160a01b031681565b3480156108ba57600080fd5b50605a546001600160a01b03166104d5565b3480156108d857600080fd5b5061044b6108e7366004615184565b6122b3565b3480156108f857600080fd5b5061044b610907366004615184565b6122c4565b34801561091857600080fd5b5061047d610927366004614e7c565b6122d5565b34801561093857600080fd5b5061044b610947366004614dbd565b612786565b34801561095857600080fd5b5061044b610967366004615184565b612828565b34801561097857600080fd5b5061047d610987366004614dbd565b612839565b34801561099857600080fd5b5061044b6109a7366004615184565b61288c565b3480156109b857600080fd5b5061047d6109c7366004614dbd565b61289d565b3480156109d857600080fd5b506109ec6109e7366004614dbd565b6128e6565b6040516104899c9b9a99989796959493929190615482565b348015610a1057600080fd5b5061047d610a1f366004614f5e565b612a67565b61047d610a32366004615042565b612ab5565b348015610a4357600080fd5b506104a7600a5481565b348015610a5957600080fd5b506104a760085481565b348015610a6f57600080fd5b5061047d610a7e366004614ea5565b612c88565b348015610a8f57600080fd5b506104a7612ee081565b348015610aa557600080fd5b50601b54601c54601d54601e54601f54602054602154602254602354602454602554602654610aee9b6001600160a01b039081169b81169a81169981169816969594939291908c565b604080516001600160a01b039d8e1681529b8d1660208d0152998c16998b0199909952968a1660608a015298909416608088015260a087019290925260c086015260e085015261010084015261012083019390935261014082019290925261016081019190915261018001610489565b348015610b6a57600080fd5b506003546104d5906001600160a01b031681565b348015610b8a57600080fd5b506104d5610b99366004614f5e565b612e4c565b348015610baa57600080fd5b5061047d610bb9366004614dbd565b612e81565b348015610bca57600080fd5b5061047d612ef2565b348015610bdf57600080fd5b5061044b610bee366004614dbd565b613026565b348015610bff57600080fd5b50601554601654601754601854601954601a54610c279594939291906001600160a01b031686565b60408051968752602087019590955293850192909252606084015260808301526001600160a01b031660a082015260c001610489565b348015610c6957600080fd5b506104a7610c78366004614dbd565b61305e565b348015610c8957600080fd5b5061044b610c98366004614dbd565b613160565b348015610ca957600080fd5b5061047d613171565b348015610cbe57600080fd5b5061044b613506565b348015610cd357600080fd5b506104a7600c5481565b348015610ce957600080fd5b5061044b610cf8366004614dbd565b613516565b348015610d0957600080fd5b50600c546104a7565b348015610d1e57600080fd5b5061044b610d2d366004614dbd565b61354e565b348015610d3e57600080fd5b506104a7600d5481565b348015610d5457600080fd5b5061044b610d63366004614dbd565b6135c4565b348015610d7457600080fd5b5061044b610d83366004614dd7565b613666565b348015610d9457600080fd5b5061047d61388d565b806001600160a01b038116610dcd5760405162461bcd60e51b8152600401610dc490615708565b60405180910390fd5b610dd56138d2565b610dde82611b1b565b610dfa5760405162461bcd60e51b8152600401610dc49061560f565b6001600160a01b038216600081815260146020526040808220805460ff19169055517f90eabbc0c667db2a5029ed6bc0f5fe9f356d11684a4ca9fcfaec0e53f12b9c8e9190a25050565b60006002608c541415610e695760405162461bcd60e51b8152600401610dc49061578a565b6002608c55610e7661392c565b6002546001600160a01b0316336001600160a01b031614610ea95760405162461bcd60e51b8152600401610dc490615652565b6001600160a01b0386166000908152600e602052604080822090516350e8e06960e01b815273f56835e827756be8B18B0ef6e56765af02C2Ed5b916350e8e06991610f059190601590601b908c908c908c908c90600401615860565b60206040518083038186803b158015610f1d57600080fd5b505af4158015610f31573d6000803e3d6000fd5b505050506040513d601f19601f82011682018060405250810190610f55919061519c565b90506001600160a01b0383166108fc610f6e888761590a565b610f788785615a56565b610f829190615922565b6040518115909202916000818181858888f19350505050158015610faa573d6000803e3d6000fd5b506000610fb7878661590a565b610fc18684615a56565b610fcb9190615922565b610fd59083615a75565b6040519091506001600160a01b0387169082156108fc029083906000818181858888f1935050505015801561100e573d6000803e3d6000fd5b506040805182815260208101879052908101839052426060820152600160808201526001600160a01b0380861691888216918b16907fab522c1322c34ea455e8f541ecfe1b73a29039f3658bff658cf12c9fd26dc0169060a00160405180910390a46001925050506001608c5595945050505050565b6000826001600160a01b0381166110ad5760405162461bcd60e51b8152600401610dc490615708565b82600081116110ce5760405162461bcd60e51b8152600401610dc4906156d8565b6002608c5414156110f15760405162461bcd60e51b8152600401610dc49061578a565b6002608c556110fe61392c565b611107336109c7565b6111535760405162461bcd60e51b815260206004820152601e60248201527f4c6f636b6572733a206f6e6c79206d696e746572732063616e206d696e7400006044820152606401610dc4565b6000601288886040516111679291906153ad565b908152604051908190036020019020546001600160a01b03169050600061118d8261305e565b9050858110156111df5760405162461bcd60e51b815260206004820152601e60248201527f4c6f636b6572733a20696e73756666696369656e7420636170616369747900006044820152606401610dc4565b6001600160a01b0382166000908152600e60205260409020600801546301000000900460ff166112475760405162461bcd60e51b81526020600482015260136024820152724c6f636b6572733a206e6f742061637469766560681b6044820152606401610dc4565b6001600160a01b0382166000908152600e602052604090206005015461126e90879061590a565b6001600160a01b0383166000908152600e60205260408120600501919091556007546127109061129e9089615a56565b6112a89190615922565b90508015611338576001546040516340c10f1960e01b81526001600160a01b03858116600483015260248201849052909116906340c10f1990604401602060405180830381600087803b1580156112fe57600080fd5b505af1158015611312573d6000803e3d6000fd5b505050506040513d601f19601f820116820180604052508101906113369190614f3e565b505b6001546001600160a01b03166340c10f1989611354848b615a75565b6040516001600160e01b031960e085901b1681526001600160a01b0390921660048301526024820152604401602060405180830381600087803b15801561139a57600080fd5b505af11580156113ae573d6000803e3d6000fd5b505050506040513d601f19601f820116820180604052508101906113d29190614f3e565b50876001600160a01b0316836001600160a01b03167f8ad706b338c5d2a20b0d038b5cfdaf2b2f943f43048723bde0dccdf129598a1189844260405161142b939291909283526020830191909152604082015260600190565b60405180910390a361143d8188615a75565b6001608c559a9950505050505050505050565b60405163309376db60e11b815260009073f56835e827756be8B18B0ef6e56765af02C2Ed5b90636126edb69061148e90601590601b906004016158b6565b60206040518083038186803b1580156114a657600080fd5b505af41580156114ba573d6000803e3d6000fd5b505050506040513d601f19601f820116820180604052508101906114de919061519c565b905090565b806001600160a01b03811661150a5760405162461bcd60e51b8152600401610dc490615708565b6115126138d2565b61151b8261289d565b6115375760405162461bcd60e51b8152600401610dc49061560f565b6001600160a01b038216600081815260136020526040808220805460ff19169055517fe94479a9f7e1952cc78f2d6baab678adc1b772d936c6583def489e524cb666929190a25050565b60006002608c5414156115a65760405162461bcd60e51b8152600401610dc49061578a565b6002608c5560405163309376db60e11b815260009073f56835e827756be8B18B0ef6e56765af02C2Ed5b90636126edb6906115e990601590601b906004016158b6565b60206040518083038186803b15801561160157600080fd5b505af4158015611615573d6000803e3d6000fd5b505050506040513d601f19601f82011682018060405250810190611639919061519c565b336000908152600e6020908152604091829020825160c0808201855260155482526016548285015260175482860152601854606080840191909152601954608080850191909152601a546001600160a01b0390811660a080870191909152885161018081018a52601b5483168152601c548316818a0152601d54831699810199909952601e54821693890193909352601f5416908701529354938501939093526021549284019290925260225460e084015260235461010084015260245461012084015260255461014084015260265461016084015292935061171e92918487613972565b6117283384613acf565b336000818152600e60209081526040918290206004015482518781529182015242918101919091527f93ae1c71197ee1bd2ad44b7d57e7b34ca946aeb88fdb4fc4a45211dbeb2c3cc7906060015b60405180910390a260019150506001608c55919050565b600081600081116117b05760405162461bcd60e51b8152600401610dc4906156d8565b6002608c5414156117d35760405162461bcd60e51b8152600401610dc49061578a565b6002608c556117e061392c565b6117e93361067f565b6118355760405162461bcd60e51b815260206004820152601e60248201527f4c6f636b6572733a206f6e6c79206275726e6572732063616e206275726e00006044820152606401610dc4565b6000601286866040516118499291906153ad565b908152604051908190036020019020546001546001600160a01b039182169250166323b872dd6118763390565b6040516001600160e01b031960e084901b1681526001600160a01b03909116600482015230602482015260448101879052606401602060405180830381600087803b1580156118c457600080fd5b505af11580156118d8573d6000803e3d6000fd5b505050506040513d601f19601f820116820180604052508101906118fc9190614f3e565b506000612710600754866119109190615a56565b61191a9190615922565b905060006119288287615a75565b6001600160a01b0384166000908152600e6020526040902060050154909150818110156119975760405162461bcd60e51b815260206004820152601b60248201527f4c6f636b6572733a20696e73756666696369656e742066756e647300000000006044820152606401610dc4565b6119a18282615a75565b6001600160a01b038581166000908152600e602052604090819020600501929092556001549151630852cd8d60e31b8152600481018590529116906342966c6890602401602060405180830381600087803b1580156119ff57600080fd5b505af1158015611a13573d6000803e3d6000fd5b505050506040513d601f19601f82011682018060405250810190611a379190614f3e565b5060015460405163a9059cbb60e01b81526001600160a01b038681166004830152602482018690529091169063a9059cbb90604401602060405180830381600087803b158015611a8657600080fd5b505af1158015611a9a573d6000803e3d6000fd5b505050506040513d601f19601f82011682018060405250810190611abe9190614f3e565b506040805188815260208101859052428183015290516001600160a01b038616917f66fb54322c407b04a077a306e72cdd780f0f374ba5dac9f6901a56a6255bc34a919081900360600190a2506001608c55979650505050505050565b6000816001600160a01b038116611b445760405162461bcd60e51b8152600401610dc490615708565b6001600160a01b03831660009081526014602052604090205460ff1691505b50919050565b6000826001600160a01b038116611b925760405162461bcd60e51b8152600401610dc490615708565b8260008111611bb35760405162461bcd60e51b8152600401610dc4906156d8565b6002608c541415611bd65760405162461bcd60e51b8152600401610dc49061578a565b6002608c55611be361392c565b6001600160a01b0385166000908152600e60205260408082209051639416385d60e01b815273f56835e827756be8B18B0ef6e56765af02C2Ed5b91639416385d91611c399190601590601b908b906004016157e3565b60206040518083038186803b158015611c5157600080fd5b505af4158015611c65573d6000803e3d6000fd5b505050506040513d601f19601f82011682018060405250810190611c89919061519c565b6001549091506001600160a01b03166323b872dd336040516001600160e01b031960e084901b1681526001600160a01b03909116600482015230602482015260448101849052606401602060405180830381600087803b158015611cec57600080fd5b505af1158015611d00573d6000803e3d6000fd5b505050506040513d601f19601f82011682018060405250810190611d249190614f3e565b50600154604051630852cd8d60e31b8152600481018390526001600160a01b03909116906342966c6890602401602060405180830381600087803b158015611d6b57600080fd5b505af1158015611d7f573d6000803e3d6000fd5b505050506040513d601f19601f82011682018060405250810190611da39190614f3e565b50611dae3386613acf565b60408051868152602081018390524281830152905133916001600160a01b038916917fd03400b15a5f4cddbc57f0e81bca31db33e4d1ed1390211eade3518bce70562e9181900360600190a3600193505050506001608c5592915050565b6000816001600160a01b038116611e355760405162461bcd60e51b8152600401610dc490615708565b6002608c541415611e585760405162461bcd60e51b8152600401610dc49061578a565b6002608c55611e656138d2565b6001600160a01b0383166000908152600e6020526040902060080154610100900460ff16611ecb5760405162461bcd60e51b8152602060048201526013602482015272131bd8dad95c9cce881b9bc81c995c5d595cdd606a1b6044820152606401610dc4565b6001600160a01b0383166000908152600e6020526040902060080180546301000000600161ffff19909216821763ff000000191617909155600b54611f109190615a75565b600b55600c54611f2190600161590a565b600c556001600160a01b0383166000908152600e60205260409081902090518491601291611f4f91906153d9565b908152604080516020928190038301812080546001600160a01b0319166001600160a01b039586161790559286166000818152600e90935291206003810154600482015492937f3840128cd2c146a0ea7739b8440e824c6d2d498ae32274812561d689d751e75e936117769392914290615540565b806001600160a01b038116611feb5760405162461bcd60e51b8152600401610dc490615708565b611ff36138d2565b611ffc82613bed565b5050565b6060816001600160a01b0381166120295760405162461bcd60e51b8152600401610dc490615708565b6001600160a01b0383166000908152600e60205260409020805461204c90615ab8565b80601f016020809104026020016040519081016040528092919081815260200182805461207890615ab8565b80156120c55780601f1061209a576101008083540402835291602001916120c5565b820191906000526020600020905b8154815290600101906020018083116120a857829003601f168201915b5050505050915050919050565b6120da6138d2565b6120e381613c8b565b50565b6120ee6138d2565b6120f6613d2f565b565b6121006138d2565b6120e381613d81565b60006002608c54141561212e5760405162461bcd60e51b8152600401610dc49061578a565b6002608c553482146121775760405162461bcd60e51b81526020600482015260126024820152714c6f636b6572733a206d73672076616c756560701b6044820152606401610dc4565b6001600160a01b0383166000908152600e602052604090819020905163015d95e560e01b815260048101919091526024810183905273f56835e827756be8B18B0ef6e56765af02C2Ed5b9063015d95e59060440160006040518083038186803b1580156121e357600080fd5b505af41580156121f7573d6000803e3d6000fd5b505050506001600160a01b0383166000818152600e602090815260409182902060040154825186815291820152428183015290517f2d2b4797badefe26cd5674f9bc2b8f5ed98e2a663e1a977af971254cfefd15ad9181900360600190a250600180608c5592915050565b61226a6138d2565b6120e381613e19565b6120f66138d2565b806001600160a01b0381166122a25760405162461bcd60e51b8152600401610dc490615708565b6122aa6138d2565b611ffc82613e5f565b6122bb6138d2565b6120e381613efd565b6122cc6138d2565b6120e381613f95565b6000826001600160a01b0381166122fe5760405162461bcd60e51b8152600401610dc490615708565b826000811161231f5760405162461bcd60e51b8152600401610dc4906156d8565b6002608c5414156123425760405162461bcd60e51b8152600401610dc49061578a565b6002608c5561234f61392c565b6001600160a01b0385166000908152600e602052604080822090516308878a6f60e01b815273f56835e827756be8B18B0ef6e56765af02C2Ed5b916308878a6f916123a59190601590601b908b906004016157e3565b60206040518083038186803b1580156123bd57600080fd5b505af41580156123d1573d6000803e3d6000fd5b505050506040513d601f19601f820116820180604052508101906123f5919061519c565b90506000600e6000886001600160a01b03166001600160a01b031681526020019081526020016000206040518061018001604052908160008201805461243a90615ab8565b80601f016020809104026020016040519081016040528092919081815260200182805461246690615ab8565b80156124b35780601f10612488576101008083540402835291602001916124b3565b820191906000526020600020905b81548152906001019060200180831161249657829003601f168201915b5050509183525050600182015460209091019060ff1660048111156124e857634e487b7160e01b600052602160045260246000fd5b600481111561250757634e487b7160e01b600052602160045260246000fd5b815260200160028201805461251b90615ab8565b80601f016020809104026020016040519081016040528092919081815260200182805461254790615ab8565b80156125945780601f1061256957610100808354040283529160200191612594565b820191906000526020600020905b81548152906001019060200180831161257757829003601f168201915b505050918352505060038201546020808301919091526004830154604080840191909152600580850154606085015260068501546080850152600785015460a085015260089094015460ff808216151560c08601526101008083048216151560e087015262010000830482161515908601526301000000909104161515610120909301929092526001600160a01b038b166000908152600e909152200154909150612640908390615a75565b6001600160a01b0388166000908152600e6020526040902060058101919091556004015461266f908790615a75565b6001600160a01b038089166000908152600e602090815260409182902060049081019490945560025485830151918601518651935163218a4edd60e11b815291909416946343149dba946126ca9489949391929091016158d2565b602060405180830381600087803b1580156126e457600080fd5b505af11580156126f8573d6000803e3d6000fd5b505050506040513d601f19601f8201168201806040525081019061271c919061519c565b506127273387613acf565b60408051878152602081018490524281830152905133916001600160a01b038a16917fd63782183ccef603c2adba105774db58e1701ea5e7b3e23eded1b5e967a3654c9181900360600190a360019450505050506001608c5592915050565b806001600160a01b0381166127ad5760405162461bcd60e51b8152600401610dc490615708565b6127b56138d2565b6127be8261289d565b156127db5760405162461bcd60e51b8152600401610dc490615697565b6001600160a01b038216600081815260136020526040808220805460ff19166001179055517f6ae172837ea30b801fbfcdd4108aa1d5bf8ff775444fd70256b44e6bf3dfc3f69190a25050565b6128306138d2565b6120e38161402d565b6000816001600160a01b0381166128625760405162461bcd60e51b8152600401610dc490615708565b50506001600160a01b03166000908152600e60205260409020600801546301000000900460ff1690565b6128946138d2565b6120e381614073565b6000816001600160a01b0381166128c65760405162461bcd60e51b8152600401610dc490615708565b50506001600160a01b031660009081526013602052604090205460ff1690565b600e6020526000908152604090208054819061290190615ab8565b80601f016020809104026020016040519081016040528092919081815260200182805461292d90615ab8565b801561297a5780601f1061294f5761010080835404028352916020019161297a565b820191906000526020600020905b81548152906001019060200180831161295d57829003601f168201915b5050506001840154600285018054949560ff90921694919350915061299e90615ab8565b80601f01602080910402602001604051908101604052809291908181526020018280546129ca90615ab8565b8015612a175780601f106129ec57610100808354040283529160200191612a17565b820191906000526020600020905b8154815290600101906020018083116129fa57829003601f168201915b5050506003840154600485015460058601546006870154600788015460089098015496979396929550909350919060ff80821691610100810482169162010000820481169163010000009004168c565b6000600e600060128585604051612a7f9291906153ad565b9081526040805160209281900383019020546001600160a01b0316835290820192909252016000206008015460ff169392505050565b60006002608c541415612ada5760405162461bcd60e51b8152600401610dc49061578a565b6002608c8190555073f56835e827756be8B18B0ef6e56765af02C2Ed5b633819c390600e6015601b60128d8d604051612b149291906153ad565b908152604051908190036020018120546001600160e01b031960e087901b168252612b54949392916001600160a01b03909116908d908d906004016155c4565b60006040518083038186803b158015612b6c57600080fd5b505af4158015612b80573d6000803e3d6000fd5b50505050612ba2612b8e3390565b601b546001600160a01b03169030896140b9565b600b54612bb090600161590a565b600b5560405163b19399d760e01b815273f56835e827756be8B18B0ef6e56765af02C2Ed5b9063b19399d790612bf990600e908c908c908c908c908c908c908c9060040161556f565b60006040518083038186803b158015612c1157600080fd5b505af4158015612c25573d6000803e3d6000fd5b50505050612c303390565b6001600160a01b03167fe5f7957016a87f9d7bacdd371a516d7f2c5667aa5676c7e07cc8c0bbc6e5067b89898989604051612c6e9493929190615448565b60405180910390a250600180608c55979650505050505050565b60006002608c541415612cad5760405162461bcd60e51b8152600401610dc49061578a565b6002608c55612cba61392c565b6002546001600160a01b0316336001600160a01b031614612ced5760405162461bcd60e51b8152600401610dc490615652565b6001600160a01b0385166000908152600e602052604080822090516267f5ad60e41b8152829173f56835e827756be8B18B0ef6e56765af02C2Ed5b9163067f5ad091612d4791601590601b908c908c908c90600401615815565b604080518083038186803b158015612d5e57600080fd5b505af4158015612d72573d6000803e3d6000fd5b505050506040513d601f19601f82011682018060405250810190612d9691906151b4565b60405191935091506001600160a01b0386169083156108fc029084906000818181858888f19350505050158015612dd1573d6000803e3d6000fd5b50306001600160a01b038681169089167fab522c1322c34ea455e8f541ecfe1b73a29039f3658bff658cf12c9fd26dc0168588612e0e828861590a565b604080519384526020840192909252908201524260608201526000608082015260a00160405180910390a46001925050506001608c55949350505050565b600060128383604051612e609291906153ad565b908152604051908190036020019020546001600160a01b0316905092915050565b6000816001600160a01b038116612eaa5760405162461bcd60e51b8152600401610dc490615708565b6002608c541415612ecd5760405162461bcd60e51b8152600401610dc49061578a565b6002608c55612eda6138d2565b612ee38361412a565b60019150506001608c55919050565b60006002608c541415612f175760405162461bcd60e51b8152600401610dc49061578a565b6002608c55336000908152600e602052604090206008015460ff16612f935760405162461bcd60e51b815260206004820152602c60248201527f4c6f636b6572733a20696e7075742061646472657373206973206e6f7420612060448201526b3b30b634b2103637b1b5b2b960a11b6064820152608401610dc4565b336000818152600e6020818152604080842060088101805463ff00000019169055600f8352818520805460ff19166001179055601083529381902042905591905260038201546004830154600584015492517f2cf13a17a26f23ac9b786e628031eac7ebf6bb0b34e3f477f340079eb68d9a3e946130149490939291615540565b60405180910390a250600180608c5590565b806001600160a01b03811661304d5760405162461bcd60e51b8152600401610dc490615708565b6130556138d2565b611ffc82614610565b6000816001600160a01b0381166130875760405162461bcd60e51b8152600401610dc490615708565b6001600160a01b0383166000908152600e60205260409081902060058101546008549251630e19455960e41b81529092916127109173f56835e827756be8B18B0ef6e56765af02C2Ed5b9163e1945590916130eb9190601590601b906004016157c1565b60206040518083038186803b15801561310357600080fd5b505af4158015613117573d6000803e3d6000fd5b505050506040513d601f19601f8201168201806040525081019061313b919061519c565b6131459190615a56565b61314f9190615922565b6131599190615a75565b9392505050565b6131686138d2565b6120e3816146ae565b60006002608c5414156131965760405162461bcd60e51b8152600401610dc49061578a565b6002608c55336000908152600e6020526040902060080154610100900460ff166131f45760405162461bcd60e51b815260206004820152600f60248201526e4c6f636b6572733a206e6f2072657160881b6044820152606401610dc4565b336000908152600e60205260408082208151610180810190925280548290829061321d90615ab8565b80601f016020809104026020016040519081016040528092919081815260200182805461324990615ab8565b80156132965780601f1061326b57610100808354040283529160200191613296565b820191906000526020600020905b81548152906001019060200180831161327957829003601f168201915b5050509183525050600182015460209091019060ff1660048111156132cb57634e487b7160e01b600052602160045260246000fd5b60048111156132ea57634e487b7160e01b600052602160045260246000fd5b81526020016002820180546132fe90615ab8565b80601f016020809104026020016040519081016040528092919081815260200182805461332a90615ab8565b80156133775780601f1061334c57610100808354040283529160200191613377565b820191906000526020600020905b81548152906001019060200180831161335a57829003601f168201915b505050918352505060038201546020820152600482015460408201526005820154606082015260068201546080820152600782015460a082015260089091015460ff808216151560c08401526101008083048216151560e085015262010000830482161515908401526301000000909104161515610120909101529050600e6000336001600160a01b03168152602081019190915260400160009081209061341f8282614d0f565b60018201805460ff19169055613439600283016000614d0f565b506000600382018190556004820181905560058201819055600682018190556007820155600801805463ffffffff19169055600b5461347a90600190615a75565b600b556134993360608301516000546001600160a01b0316919061474c565b6134a7338260800151613acf565b336000818152600e6020526040908190206003810154600482015492517f10f84ef0773ba7ade3714f4e500ca17436e6df2b0feb99c754c04f889290cbd4936134f193929161552d565b60405180910390a260019150506001608c5590565b61350e6138d2565b6120f661477c565b806001600160a01b03811661353d5760405162461bcd60e51b8152600401610dc490615708565b6135456138d2565b611ffc826147b9565b6135566138d2565b6001600160a01b0381166135bb5760405162461bcd60e51b815260206004820152602660248201527f4f776e61626c653a206e6577206f776e657220697320746865207a65726f206160448201526564647265737360d01b6064820152608401610dc4565b6120e3816148f9565b806001600160a01b0381166135eb5760405162461bcd60e51b8152600401610dc490615708565b6135f36138d2565b6135fc82611b1b565b156136195760405162461bcd60e51b8152600401610dc490615697565b6001600160a01b038216600081815260146020526040808220805460ff19166001179055517f86e57fd2b90329052917118de7c3f521f400d439b9650deaa906a25b08b945609190a25050565b602754610100900460ff16158080156136865750602754600160ff909116105b806136a757506136953061494b565b1580156136a7575060275460ff166001145b61370a5760405162461bcd60e51b815260206004820152602e60248201527f496e697469616c697a61626c653a20636f6e747261637420697320616c72656160448201526d191e481a5b9a5d1a585b1a5e995960921b6064820152608401610dc4565b6027805460ff19166001179055801561372d576027805461ff0019166101001790555b61373561495e565b61373d61498d565b6137456149bc565b8715158061375257508615155b61379e5760405162461bcd60e51b815260206004820152601760248201527f4c6f636b6572733a20616d6f756e74206973207a65726f0000000000000000006044820152606401610dc4565b6137a78c6146ae565b6137b08d613e5f565b6137b9896147b9565b6137c28b614610565b6137cb8a613bed565b6137d48861402d565b6137dd87614073565b6137e685613f95565b6137ef86613c8b565b6137f884613d81565b61380183613efd565b61380a82613e19565b61271060158190556016819055612ee06017556018556012601955601a80546001600160a01b0319166001179055801561387e576027805461ff0019169055604051600181527f7f26b83ff96e1f2b6a682f133852f6798a09c465da95921460cefb38474024989060200160405180910390a15b50505050505050505050505050565b60006002608c5414156138b25760405162461bcd60e51b8152600401610dc49061578a565b6002608c556138bf61392c565b6138c83361412a565b50600180608c5590565b605a546001600160a01b031633146120f65760405162461bcd60e51b815260206004820181905260248201527f4f776e61626c653a2063616c6c6572206973206e6f7420746865206f776e65726044820152606401610dc4565b60be5460ff16156120f65760405162461bcd60e51b815260206004820152601060248201526f14185d5cd8589b194e881c185d5cd95960821b6044820152606401610dc4565b600885015460ff166139c65760405162461bcd60e51b815260206004820181905260248201527f4c6f636b6572733a206163636f756e74206973206e6f742061206c6f636b65726044820152606401610dc4565b600085600501548560800151600a6139de9190615988565b8561010001516139ee9190615a56565b86516004890154613a00908790615a56565b613a0a9190615a56565b613a149190615922565b613a1e9190615a75565b90506000838660800151600a613a349190615988565b613a3e9084615a56565b613a489190615922565b905080831115613aae5760405162461bcd60e51b815260206004820152602b60248201527f4c6f636b6572733a206d6f7265207468616e206d61782072656d6f7661626c6560448201526a0818dbdb1b185d195c985b60aa1b6064820152608401610dc4565b828760040154613abe9190615a75565b876004018190555050505050505050565b80471015613b1f5760405162461bcd60e51b815260206004820152601d60248201527f416464726573733a20696e73756666696369656e742062616c616e63650000006044820152606401610dc4565b6000826001600160a01b03168260405160006040518083038185875af1925050503d8060008114613b6c576040519150601f19603f3d011682016040523d82523d6000602084013e613b71565b606091505b5050905080613be85760405162461bcd60e51b815260206004820152603a60248201527f416464726573733a20756e61626c6520746f2073656e642076616c75652c207260448201527f6563697069656e74206d617920686176652072657665727465640000000000006064820152608401610dc4565b505050565b806001600160a01b038116613c145760405162461bcd60e51b8152600401610dc490615708565b600454604080516001600160a01b03928316815291841660208301527fd52b2b9b7e9ee655fcb95d2e5b9e0c9f69e7ef2b8e9d2d0ea78402d576d22e22910160405180910390a150600480546001600160a01b03199081166001600160a01b039384161791829055601f8054929093169116179055565b600954811015613ce95760405162461bcd60e51b815260206004820152602360248201527f4c6f636b6572733a204352206d7573742062652067726561746572207468616e60448201526210262960e91b6064820152608401610dc4565b60085460408051918252602082018390527f1e29d1b5c8926360f3ac632d884775772b07f31fec4077d433e58ce823f91347910160405180910390a16008819055602355565b613d376149eb565b60be805460ff191690557f5db9ee0a495bf2e6ff9c91a7834c1ba4fdd244a5e8aa4e537bd38aeae4b073aa335b6040516001600160a01b03909116815260200160405180910390a1565b612710811115613dd35760405162461bcd60e51b815260206004820152601b60248201527f4c6f636b6572733a20696e76616c6964206c6f636b65722066656500000000006044820152606401610dc4565b60075460408051918252602082018390527f44c6802691f6adea249930369a511db979a5e9a3603bdb37ceee1036da80e980910160405180910390a16007819055602255565b600d5460408051918252602082018390527ff38e885b98a4effb359301b3c600b61ed62388371a8add443e2cca425463b84b910160405180910390a1600d819055602655565b806001600160a01b038116613e865760405162461bcd60e51b8152600401610dc490615708565b600154604080516001600160a01b03928316815291841660208301527f36a4c08a38b736dcecb6c328dba61238529620e83ccb23db2cc43cd34ec26096910160405180910390a150600180546001600160a01b03199081166001600160a01b039384161791829055601c8054929093169116179055565b612710811115613f4f5760405162461bcd60e51b815260206004820152601760248201527f4c6f636b6572733a206c657373207468616e20313030250000000000000000006044820152606401610dc4565b600a5460408051918252602082018390527f5e4dd01049cdfe5a081b404bff8e27de919fd9c8ae2145007e0921ec227f207a910160405180910390a1600a819055602555565b612710811015613fe75760405162461bcd60e51b815260206004820152601d60248201527f4c6f636b6572733a2070726f626c656d20696e20435220616e64204c520000006044820152606401610dc4565b60095460408051918252602082018390527f883242c2a857ca527a432dfca231b1e49233fde2a96802809a0f3866e9f19e13910160405180910390a16009819055602455565b60055460408051918252602082018390527f65fb7af72786d428e2b4e9d3d2bd45fdd354f582ccccad2044967440b98e6d7b910160405180910390a16005819055602055565b60065460408051918252602082018390527f063267aa94de35dcf03acb07931ff2a6eae1ac1ee0be20797c9a6d3b52abf47b910160405180910390a16006819055602155565b6040516001600160a01b03808516602483015283166044820152606481018290526141249085906323b872dd60e01b906084015b60408051601f198184030181529190526020810180516001600160e01b03166001600160e01b031990931692909217909152614a34565b50505050565b6001600160a01b0381166000908152600e602052604090206008015460ff1661418a5760405162461bcd60e51b81526020600482015260126024820152712637b1b5b2b9399d103737903637b1b5b2b960711b6044820152606401610dc4565b6001600160a01b0381166000908152600f602052604090205460ff166141eb5760405162461bcd60e51b81526020600482015260166024820152754c6f636b6572733a206e6f2072656d6f76652072657160501b6044820152606401610dc4565b600d546001600160a01b03821660009081526010602052604090205442916142129161590a565b106142545760405162461bcd60e51b81526020600482015260126024820152714c6f636b6572733a2077616974206d6f726560701b6044820152606401610dc4565b6001600160a01b0381166000908152600e6020526040902060050154156142b55760405162461bcd60e51b8152602060048201526015602482015274131bd8dad95c9cce880c081b995d081b5a5b9d1959605a1b6044820152606401610dc4565b6001600160a01b0381166000908152600e6020526040808220815161018081019092528054829082906142e790615ab8565b80601f016020809104026020016040519081016040528092919081815260200182805461431390615ab8565b80156143605780601f1061433557610100808354040283529160200191614360565b820191906000526020600020905b81548152906001019060200180831161434357829003601f168201915b5050509183525050600182015460209091019060ff16600481111561439557634e487b7160e01b600052602160045260246000fd5b60048111156143b457634e487b7160e01b600052602160045260246000fd5b81526020016002820180546143c890615ab8565b80601f01602080910402602001604051908101604052809291908181526020018280546143f490615ab8565b80156144415780601f1061441657610100808354040283529160200191614441565b820191906000526020600020905b81548152906001019060200180831161442457829003601f168201915b5050509183525050600382015460208083019190915260048301546040808401919091526005840154606084015260068401546080840152600784015460a084015260089093015460ff808216151560c08501526101008083048216151560e086015262010000830482161515908501526301000000909104161515610120909201919091526001600160a01b0385166000908152600e90915281902090519192506012916144f091906153d9565b908152604080516020928190038301902080546001600160a01b03191690556001600160a01b0384166000908152600e9092528120906145308282614d0f565b60018201805460ff1916905561454a600283016000614d0f565b506000600382018190556004820181905560058201819055600682018190556007820155600801805463ffffffff19169055600c5461458b90600190615a75565b600c5560608101516000546145ad916001600160a01b0390911690849061474c565b6145bb828260800151613acf565b816001600160a01b03167f628f3d67160bc1a892a1779c6475e128010a54df63af5dcdbf3c7b06ca5dfa9782600001518360600151846080015160405161460493929190615508565b60405180910390a25050565b806001600160a01b0381166146375760405162461bcd60e51b8152600401610dc490615708565b600354604080516001600160a01b03928316815291841660208301527f2f0c2c74338b8f7fb04dcfc964c9221eb054ec353c18b9617fe43566e453a23c910160405180910390a150600380546001600160a01b03199081166001600160a01b039384161791829055601e8054929093169116179055565b806001600160a01b0381166146d55760405162461bcd60e51b8152600401610dc490615708565b600054604080516001600160a01b03928316815291841660208301527ffd88adf2dc0ac6ee5960f2f4273f25017bab8b5efa8889b3cf085ce645c293b2910160405180910390a150600080546001600160a01b03199081166001600160a01b039384161791829055601b8054929093169116179055565b6040516001600160a01b038316602482015260448101829052613be890849063a9059cbb60e01b906064016140ed565b61478461392c565b60be805460ff191660011790557f62e78cea01bee320cd4e420270b5ea74000d11b0c9f74754ebdbfc544b05a258613d643390565b806001600160a01b0381166147e05760405162461bcd60e51b8152600401610dc490615708565b600254604080516001600160a01b03928316815291841660208301527fd86d51326f3c88ea5365fba597a57273ae555e44f4b11658da952320d0beaa75910160405180910390a16002546040516001600160a01b03909116907f90eabbc0c667db2a5029ed6bc0f5fe9f356d11684a4ca9fcfaec0e53f12b9c8e90600090a2600280546001600160a01b03908116600090815260146020526040808220805460ff1916905583546001600160a01b03199081168785161794859055601d8054959094169416841790925590517f86e57fd2b90329052917118de7c3f521f400d439b9650deaa906a25b08b945609190a250506002546001600160a01b03166000908152601460205260409020805460ff19166001179055565b605a80546001600160a01b038381166001600160a01b0319831681179093556040519116919082907f8be0079c531659141344cd1fd0a4f28419497f9722a3daafe3b4186f6b6457e090600090a35050565b6001600160a01b0381163b15155b919050565b602754610100900460ff166149855760405162461bcd60e51b8152600401610dc49061573f565b6120f6614b06565b602754610100900460ff166149b45760405162461bcd60e51b8152600401610dc49061573f565b6120f6614b36565b602754610100900460ff166149e35760405162461bcd60e51b8152600401610dc49061573f565b6120f6614b64565b60be5460ff166120f65760405162461bcd60e51b815260206004820152601460248201527314185d5cd8589b194e881b9bdd081c185d5cd95960621b6044820152606401610dc4565b6000614a89826040518060400160405280602081526020017f5361666545524332303a206c6f772d6c6576656c2063616c6c206661696c6564815250856001600160a01b0316614b979092919063ffffffff16565b805190915015613be85780806020019051810190614aa79190614f3e565b613be85760405162461bcd60e51b815260206004820152602a60248201527f5361666545524332303a204552433230206f7065726174696f6e20646964206e6044820152691bdd081cdd58d8d9595960b21b6064820152608401610dc4565b602754610100900460ff16614b2d5760405162461bcd60e51b8152600401610dc49061573f565b6120f6336148f9565b602754610100900460ff16614b5d5760405162461bcd60e51b8152600401610dc49061573f565b6001608c55565b602754610100900460ff16614b8b5760405162461bcd60e51b8152600401610dc49061573f565b60be805460ff19169055565b6060614ba68484600085614bae565b949350505050565b606082471015614c0f5760405162461bcd60e51b815260206004820152602660248201527f416464726573733a20696e73756666696369656e742062616c616e636520666f6044820152651c8818d85b1b60d21b6064820152608401610dc4565b843b614c5d5760405162461bcd60e51b815260206004820152601d60248201527f416464726573733a2063616c6c20746f206e6f6e2d636f6e74726163740000006044820152606401610dc4565b600080866001600160a01b03168587604051614c7991906153bd565b60006040518083038185875af1925050503d8060008114614cb6576040519150601f19603f3d011682016040523d82523d6000602084013e614cbb565b606091505b5091509150614ccb828286614cd6565b979650505050505050565b60608315614ce5575081613159565b825115614cf55782518084602001fd5b8160405162461bcd60e51b8152600401610dc4919061546f565b508054614d1b90615ab8565b6000825580601f10614d2d57506120e3565b601f0160209004906000526020600020908101906120e391905b80821115614d5b5760008155600101614d47565b5090565b80356001600160a01b038116811461495957600080fd5b60008083601f840112614d87578081fd5b50813567ffffffffffffffff811115614d9e578182fd5b602083019150836020828501011115614db657600080fd5b9250929050565b600060208284031215614dce578081fd5b61315982614d5f565b6000806000806000806000806000806000806101808d8f031215614df9578788fd5b614e028d614d5f565b9b50614e1060208e01614d5f565b9a50614e1e60408e01614d5f565b9950614e2c60608e01614d5f565b9850614e3a60808e01614d5f565b9b9e9a9d50989b979a9960a0890135995060c08901359860e0810135985061010081013597506101208101359650610140810135955061016001359350915050565b60008060408385031215614e8e578182fd5b614e9783614d5f565b946020939093013593505050565b60008060008060808587031215614eba578384fd5b614ec385614d5f565b935060208501359250614ed860408601614d5f565b9396929550929360600135925050565b600080600080600060a08688031215614eff578081fd5b614f0886614d5f565b945060208601359350614f1d60408701614d5f565b925060608601359150614f3260808701614d5f565b90509295509295909350565b600060208284031215614f4f578081fd5b81518015158114613159578182fd5b60008060208385031215614f70578182fd5b823567ffffffffffffffff811115614f86578283fd5b614f9285828601614d76565b90969095509350505050565b60008060008060608587031215614fb3578384fd5b843567ffffffffffffffff811115614fc9578485fd5b614fd587828801614d76565b9095509350614fe8905060208601614d5f565b9396929550929360400135925050565b60008060006040848603121561500c578283fd5b833567ffffffffffffffff811115615022578384fd5b61502e86828701614d76565b909790965060209590950135949350505050565b600080600080600080600060a0888a03121561505c578283fd5b873567ffffffffffffffff80821115615073578485fd5b61507f8b838c01614d76565b909950975060208a0135965060408a0135955060608a01359150600582106150a5578485fd5b909350608089013590808211156150ba578384fd5b506150c78a828b01614d76565b989b979a50959850939692959293505050565b6000602082840312156150eb578081fd5b813567ffffffffffffffff80821115615102578283fd5b818401915084601f830112615115578283fd5b81358181111561512757615127615b03565b604051601f8201601f19908116603f0116810190838211818310171561514f5761514f615b03565b81604052828152876020848701011115615167578586fd5b826020860160208301379182016020019490945295945050505050565b600060208284031215615195578081fd5b5035919050565b6000602082840312156151ad578081fd5b5051919050565b600080604083850312156151c6578182fd5b505080516020909101519092909150565b60008284528282602086013780602084860101526020601f19601f85011685010190509392505050565b60008151808452615219816020860160208601615a8c565b601f01601f19169290920160200192915050565b6000815461523a81615ab8565b808552602060018381168015615257576001811461526b57615299565b60ff19851688840152604088019550615299565b866000528260002060005b858110156152915781548a8201860152908301908401615276565b890184019650505b505050505092915050565b600581106152c257634e487b7160e01b600052602160045260246000fd5b9052565b8054825260018101546020830152600281015460408301526003810154606083015260048101546080830152600501546001600160a01b031660a090910152565b6153298261531c83546001600160a01b031690565b6001600160a01b03169052565b60018101546001600160a01b0390811660208401526002820154811660408401526003820154811660608401526004820154166080830152600581015460a0830152600681015460c0830152600781015460e083015260088101546101008301526009810154610120830152600a810154610140830152600b015461016090910152565b6000828483379101908152919050565b600082516153cf818460208701615a8c565b9190910192915050565b60008083546153e781615ab8565b600182811680156153ff57600181146154105761543c565b60ff1984168752828701945061543c565b8786526020808720875b858110156154335781548a82015290840190820161541a565b50505082870194505b50929695505050505050565b60006060825261545c6060830186886151d7565b6020830194909452506040015292915050565b6000602082526131596020830184615201565b6000610180825261549761018083018f615201565b6154a4602084018f6152a4565b82810360408401526154b6818e615201565b606084019c909c525050608081019890985260a088019690965260c087019490945260e08601929092521515610100850152151561012084015215156101408301521515610160909101529392505050565b60006060825261551b6060830186615201565b60208301949094525060400152919050565b60006060825261551b606083018661522d565b600060808252615553608083018761522d565b6020830195909552506040810192909252606090910152919050565b600089825260c0602083015261558960c08301898b6151d7565b8760408401528660608401526155a260808401876152a4565b82810360a08401526155b58185876151d7565b9b9a5050505050505050505050565b8681526102c081016155d960208301886152c6565b6155e660e0830187615307565b6001600160a01b03949094166102608201526102808101929092526102a0909101529392505050565b60208082526023908201527f4c6f636b6572733a206163636f756e7420646f6573206e6f74206861766520726040820152626f6c6560e81b606082015260800190565b60208082526025908201527f4c6f636b6572733a206d6573736167652073656e646572206973206e6f74206360408201526431a13ab93760d91b606082015260800190565b60208082526021908201527f4c6f636b6572733a206163636f756e7420616c72656164792068617320726f6c6040820152606560f81b606082015260800190565b6020808252601690820152754c6f636b6572733a2076616c7565206973207a65726f60501b604082015260600190565b60208082526018908201527f4c6f636b6572733a2061646472657373206973207a65726f0000000000000000604082015260600190565b6020808252602b908201527f496e697469616c697a61626c653a20636f6e7472616374206973206e6f74206960408201526a6e697469616c697a696e6760a81b606082015260800190565b6020808252601f908201527f5265656e7472616e637947756172643a207265656e7472616e742063616c6c00604082015260600190565b83815261026081016157d660208301856152c6565b614ba660e0830184615307565b84815261028081016157f860208301866152c6565b61580560e0830185615307565b8261026083015295945050505050565b8681526102c0810161582a60208301886152c6565b61583760e0830187615307565b6102608201949094526001600160a01b03929092166102808301526102a0909101529392505050565b8781526102e0810161587560208301896152c6565b61588260e0830188615307565b6102608201959095526001600160a01b039384166102808201526102a08101929092529091166102c0909101529392505050565b61024081016158c582856152c6565b61315960c0830184615307565b6000858252608060208301526158eb6080830186615201565b6158f860408401866152a4565b8281036060840152614ccb8185615201565b6000821982111561591d5761591d615aed565b500190565b60008261593d57634e487b7160e01b81526012600452602481fd5b500490565b80825b6001808611615954575061597f565b81870482111561596657615966615aed565b8086161561597357918102915b9490941c938002615945565b94509492505050565b600061315960001984846000826159a157506001613159565b816159ae57506000613159565b81600181146159c457600281146159ce576159fb565b6001915050613159565b60ff8411156159df576159df615aed565b6001841b9150848211156159f5576159f5615aed565b50613159565b5060208310610133831016604e8410600b8410161715615a2e575081810a83811115615a2957615a29615aed565b613159565b615a3b8484846001615942565b808604821115615a4d57615a4d615aed565b02949350505050565b6000816000190483118215151615615a7057615a70615aed565b500290565b600082821015615a8757615a87615aed565b500390565b60005b83811015615aa7578181015183820152602001615a8f565b838111156141245750506000910152565b600281046001821680615acc57607f821691505b60208210811415611b6357634e487b7160e01b600052602260045260246000fd5b634e487b7160e01b600052601160045260246000fd5b634e487b7160e01b600052604160045260246000fdfea2646970667358221220e7e957a5d73ade32e5d07745a8fc41439ddb98575ece06928137a6697e067d7964736f6c63430008020033",
  "deployedBytecode": "0x6080604052600436106104265760003560e01c80638d3d78cd11610229578063c0924b801161012e578063e85501d8116100b6578063f2fde38b1161007a578063f2fde38b14610d12578063f3cc6e6914610d32578063f44637ba14610d48578063f6e684cd14610d68578063ffc9f70414610d8857610426565b8063e85501d814610c9d578063e955de4514610cb2578063ed110a9c14610cc7578063ee1f1c7014610cdd578063ef69a7bc14610cfd57610426565b8063cab1344e116100fd578063cab1344e14610bd3578063cdcbc87914610bf3578063d5a38a9114610c5d578063dc04442214610c7d578063dd0081c7146106e457610426565b8063c0924b8014610b5e578063c4d10b6a14610b7e578063c6de080e14610b9e578063ca666b8414610bbe57610426565b8063aa271e1a116101b1578063b291ec1311610180578063b291ec1314610a37578063b4eae1cb14610a4d578063b734de2614610a63578063bc805d1d14610a83578063bd60e79414610a9957610426565b8063aa271e1a146109ac578063af1ea795146109cc578063aff2faa314610a04578063b1016bdf14610a2457610426565b806396ec39e8116101f857806396ec39e81461090c578063983b2d561461092c5780639bf098821461094c5780639f8a13d71461096c578063a839db241461098c57610426565b80638d3d78cd1461088e5780638da5cb5b146108ae5780638fe85fe7146108cc578063946ce8cd146108ec57610426565b806345cc58901161032f5780636600203d116102b7578063715018a611610286578063715018a614610813578063768ebb12146106e45780637da5f0da146108285780637f0f18171461085857806388aa0a521461087857610426565b80636600203d146107aa5780636d32395c146107ca5780636d75b9ee146107e057806370c102f7146107f357610426565b80635c975abb116102fe5780635c975abb1461071a5780635d6464ba146107325780636060663e1461075f578063613e2e1e1461077f578063639080201461079457610426565b806345cc5890146106a4578063530e784f146106c457806354509b97146106e45780635a8d80b8146106fa57610426565b806329186111116103b257806338463cff1161038157806338463cff146105ed57806341f3ec111461060d57806341fae5791461064e5780634334614a1461066457806343b937071461068457610426565b806329186111146105785780633092afd5146105a557806331f7d964146105c55780633237c158146105da57610426565b80631697565b116103f95780631697565b146104ed5780631775765f1461050d5780631fcfe19c146105235780632630c12f14610543578063264db4ae1461056357610426565b8063028468581461042b578063043fd54b1461044d5780630c42cbc914610492578063108f438d146104b5575b600080fd5b34801561043757600080fd5b5061044b610446366004614dbd565b610d9d565b005b34801561045957600080fd5b5061047d610468366004614dbd565b600f6020526000908152604090205460ff1681565b60405190151581526020015b60405180910390f35b34801561049e57600080fd5b506104a7601281565b604051908152602001610489565b3480156104c157600080fd5b506000546104d5906001600160a01b031681565b6040516001600160a01b039091168152602001610489565b3480156104f957600080fd5b5061047d610508366004614ee8565b610e44565b34801561051957600080fd5b506104a760095481565b34801561052f57600080fd5b506104a761053e366004614f9e565b611084565b34801561054f57600080fd5b506004546104d5906001600160a01b031681565b34801561056f57600080fd5b506104a7611450565b34801561058457600080fd5b506104a7610593366004614dbd565b60106020526000908152604090205481565b3480156105b157600080fd5b5061044b6105c0366004614dbd565b6114e3565b3480156105d157600080fd5b506104d5600181565b61047d6105e8366004615184565b611581565b3480156105f957600080fd5b506104a7610608366004614ff8565b61178d565b34801561061957600080fd5b506104d56106283660046150da565b80516020818301810180516012825292820191909301209152546001600160a01b031681565b34801561065a57600080fd5b506104a760055481565b34801561067057600080fd5b5061047d61067f366004614dbd565b611b1b565b34801561069057600080fd5b5061047d61069f366004614e7c565b611b69565b3480156106b057600080fd5b5061047d6106bf366004614dbd565b611e0c565b3480156106d057600080fd5b5061044b6106df366004614dbd565b611fc4565b3480156106f057600080fd5b506104a761271081565b34801561070657600080fd5b506002546104d5906001600160a01b031681565b34801561072657600080fd5b5060be5460ff1661047d565b34801561073e57600080fd5b5061075261074d366004614dbd565b612000565b604051610489919061546f565b34801561076b57600080fd5b5061044b61077a366004615184565b6120d2565b34801561078b57600080fd5b5061044b6120e6565b3480156107a057600080fd5b506104a760075481565b3480156107b657600080fd5b5061044b6107c5366004615184565b6120f8565b3480156107d657600080fd5b506104a760065481565b61047d6107ee366004614e7c565b612109565b3480156107ff57600080fd5b5061044b61080e366004615184565b612262565b34801561081f57600080fd5b5061044b612273565b34801561083457600080fd5b5061047d610843366004614dbd565b60116020526000908152604090205460ff1681565b34801561086457600080fd5b5061044b610873366004614dbd565b61227b565b34801561088457600080fd5b506104a7600b5481565b34801561089a57600080fd5b506001546104d5906001600160a01b031681565b3480156108ba57600080fd5b50605a546001600160a01b03166104d5565b3480156108d857600080fd5b5061044b6108e7366004615184565b6122b3565b3480156108f857600080fd5b5061044b610907366004615184565b6122c4565b34801561091857600080fd5b5061047d610927366004614e7c565b6122d5565b34801561093857600080fd5b5061044b610947366004614dbd565b612786565b34801561095857600080fd5b5061044b610967366004615184565b612828565b34801561097857600080fd5b5061047d610987366004614dbd565b612839565b34801561099857600080fd5b5061044b6109a7366004615184565b61288c565b3480156109b857600080fd5b5061047d6109c7366004614dbd565b61289d565b3480156109d857600080fd5b506109ec6109e7366004614dbd565b6128e6565b6040516104899c9b9a99989796959493929190615482565b348015610a1057600080fd5b5061047d610a1f366004614f5e565b612a67565b61047d610a32366004615042565b612ab5565b348015610a4357600080fd5b506104a7600a5481565b348015610a5957600080fd5b506104a760085481565b348015610a6f57600080fd5b5061047d610a7e366004614ea5565b612c88565b348015610a8f57600080fd5b506104a7612ee081565b348015610aa557600080fd5b50601b54601c54601d54601e54601f54602054602154602254602354602454602554602654610aee9b6001600160a01b039081169b81169a81169981169816969594939291908c565b604080516001600160a01b039d8e1681529b8d1660208d0152998c16998b0199909952968a1660608a015298909416608088015260a087019290925260c086015260e085015261010084015261012083019390935261014082019290925261016081019190915261018001610489565b348015610b6a57600080fd5b506003546104d5906001600160a01b031681565b348015610b8a57600080fd5b506104d5610b99366004614f5e565b612e4c565b348015610baa57600080fd5b5061047d610bb9366004614dbd565b612e81565b348015610bca57600080fd5b5061047d612ef2565b348015610bdf57600080fd5b5061044b610bee366004614dbd565b613026565b348015610bff57600080fd5b50601554601654601754601854601954601a54610c279594939291906001600160a01b031686565b60408051968752602087019590955293850192909252606084015260808301526001600160a01b031660a082015260c001610489565b348015610c6957600080fd5b506104a7610c78366004614dbd565b61305e565b348015610c8957600080fd5b5061044b610c98366004614dbd565b613160565b348015610ca957600080fd5b5061047d613171565b348015610cbe57600080fd5b5061044b613506565b348015610cd357600080fd5b506104a7600c5481565b348015610ce957600080fd5b5061044b610cf8366004614dbd565b613516565b348015610d0957600080fd5b50600c546104a7565b348015610d1e57600080fd5b5061044b610d2d366004614dbd565b61354e565b348015610d3e57600080fd5b506104a7600d5481565b348015610d5457600080fd5b5061044b610d63366004614dbd565b6135c4565b348015610d7457600080fd5b5061044b610d83366004614dd7565b613666565b348015610d9457600080fd5b5061047d61388d565b806001600160a01b038116610dcd5760405162461bcd60e51b8152600401610dc490615708565b60405180910390fd5b610dd56138d2565b610dde82611b1b565b610dfa5760405162461bcd60e51b8152600401610dc49061560f565b6001600160a01b038216600081815260146020526040808220805460ff19169055517f90eabbc0c667db2a5029ed6bc0f5fe9f356d11684a4ca9fcfaec0e53f12b9c8e9190a25050565b60006002608c541415610e695760405162461bcd60e51b8152600401610dc49061578a565b6002608c55610e7661392c565b6002546001600160a01b0316336001600160a01b031614610ea95760405162461bcd60e51b8152600401610dc490615652565b6001600160a01b0386166000908152600e602052604080822090516350e8e06960e01b815273__$c4b8709fc407821a47433b8892c1b612a0$__916350e8e06991610f059190601590601b908c908c908c908c90600401615860565b60206040518083038186803b158015610f1d57600080fd5b505af4158015610f31573d6000803e3d6000fd5b505050506040513d601f19601f82011682018060405250810190610f55919061519c565b90506001600160a01b0383166108fc610f6e888761590a565b610f788785615a56565b610f829190615922565b6040518115909202916000818181858888f19350505050158015610faa573d6000803e3d6000fd5b506000610fb7878661590a565b610fc18684615a56565b610fcb9190615922565b610fd59083615a75565b6040519091506001600160a01b0387169082156108fc029083906000818181858888f1935050505015801561100e573d6000803e3d6000fd5b506040805182815260208101879052908101839052426060820152600160808201526001600160a01b0380861691888216918b16907fab522c1322c34ea455e8f541ecfe1b73a29039f3658bff658cf12c9fd26dc0169060a00160405180910390a46001925050506001608c5595945050505050565b6000826001600160a01b0381166110ad5760405162461bcd60e51b8152600401610dc490615708565b82600081116110ce5760405162461bcd60e51b8152600401610dc4906156d8565b6002608c5414156110f15760405162461bcd60e51b8152600401610dc49061578a565b6002608c556110fe61392c565b611107336109c7565b6111535760405162461bcd60e51b815260206004820152601e60248201527f4c6f636b6572733a206f6e6c79206d696e746572732063616e206d696e7400006044820152606401610dc4565b6000601288886040516111679291906153ad565b908152604051908190036020019020546001600160a01b03169050600061118d8261305e565b9050858110156111df5760405162461bcd60e51b815260206004820152601e60248201527f4c6f636b6572733a20696e73756666696369656e7420636170616369747900006044820152606401610dc4565b6001600160a01b0382166000908152600e60205260409020600801546301000000900460ff166112475760405162461bcd60e51b81526020600482015260136024820152724c6f636b6572733a206e6f742061637469766560681b6044820152606401610dc4565b6001600160a01b0382166000908152600e602052604090206005015461126e90879061590a565b6001600160a01b0383166000908152600e60205260408120600501919091556007546127109061129e9089615a56565b6112a89190615922565b90508015611338576001546040516340c10f1960e01b81526001600160a01b03858116600483015260248201849052909116906340c10f1990604401602060405180830381600087803b1580156112fe57600080fd5b505af1158015611312573d6000803e3d6000fd5b505050506040513d601f19601f820116820180604052508101906113369190614f3e565b505b6001546001600160a01b03166340c10f1989611354848b615a75565b6040516001600160e01b031960e085901b1681526001600160a01b0390921660048301526024820152604401602060405180830381600087803b15801561139a57600080fd5b505af11580156113ae573d6000803e3d6000fd5b505050506040513d601f19601f820116820180604052508101906113d29190614f3e565b50876001600160a01b0316836001600160a01b03167f8ad706b338c5d2a20b0d038b5cfdaf2b2f943f43048723bde0dccdf129598a1189844260405161142b939291909283526020830191909152604082015260600190565b60405180910390a361143d8188615a75565b6001608c559a9950505050505050505050565b60405163309376db60e11b815260009073__$c4b8709fc407821a47433b8892c1b612a0$__90636126edb69061148e90601590601b906004016158b6565b60206040518083038186803b1580156114a657600080fd5b505af41580156114ba573d6000803e3d6000fd5b505050506040513d601f19601f820116820180604052508101906114de919061519c565b905090565b806001600160a01b03811661150a5760405162461bcd60e51b8152600401610dc490615708565b6115126138d2565b61151b8261289d565b6115375760405162461bcd60e51b8152600401610dc49061560f565b6001600160a01b038216600081815260136020526040808220805460ff19169055517fe94479a9f7e1952cc78f2d6baab678adc1b772d936c6583def489e524cb666929190a25050565b60006002608c5414156115a65760405162461bcd60e51b8152600401610dc49061578a565b6002608c5560405163309376db60e11b815260009073__$c4b8709fc407821a47433b8892c1b612a0$__90636126edb6906115e990601590601b906004016158b6565b60206040518083038186803b15801561160157600080fd5b505af4158015611615573d6000803e3d6000fd5b505050506040513d601f19601f82011682018060405250810190611639919061519c565b336000908152600e6020908152604091829020825160c0808201855260155482526016548285015260175482860152601854606080840191909152601954608080850191909152601a546001600160a01b0390811660a080870191909152885161018081018a52601b5483168152601c548316818a0152601d54831699810199909952601e54821693890193909352601f5416908701529354938501939093526021549284019290925260225460e084015260235461010084015260245461012084015260255461014084015260265461016084015292935061171e92918487613972565b6117283384613acf565b336000818152600e60209081526040918290206004015482518781529182015242918101919091527f93ae1c71197ee1bd2ad44b7d57e7b34ca946aeb88fdb4fc4a45211dbeb2c3cc7906060015b60405180910390a260019150506001608c55919050565b600081600081116117b05760405162461bcd60e51b8152600401610dc4906156d8565b6002608c5414156117d35760405162461bcd60e51b8152600401610dc49061578a565b6002608c556117e061392c565b6117e93361067f565b6118355760405162461bcd60e51b815260206004820152601e60248201527f4c6f636b6572733a206f6e6c79206275726e6572732063616e206275726e00006044820152606401610dc4565b6000601286866040516118499291906153ad565b908152604051908190036020019020546001546001600160a01b039182169250166323b872dd6118763390565b6040516001600160e01b031960e084901b1681526001600160a01b03909116600482015230602482015260448101879052606401602060405180830381600087803b1580156118c457600080fd5b505af11580156118d8573d6000803e3d6000fd5b505050506040513d601f19601f820116820180604052508101906118fc9190614f3e565b506000612710600754866119109190615a56565b61191a9190615922565b905060006119288287615a75565b6001600160a01b0384166000908152600e6020526040902060050154909150818110156119975760405162461bcd60e51b815260206004820152601b60248201527f4c6f636b6572733a20696e73756666696369656e742066756e647300000000006044820152606401610dc4565b6119a18282615a75565b6001600160a01b038581166000908152600e602052604090819020600501929092556001549151630852cd8d60e31b8152600481018590529116906342966c6890602401602060405180830381600087803b1580156119ff57600080fd5b505af1158015611a13573d6000803e3d6000fd5b505050506040513d601f19601f82011682018060405250810190611a379190614f3e565b5060015460405163a9059cbb60e01b81526001600160a01b038681166004830152602482018690529091169063a9059cbb90604401602060405180830381600087803b158015611a8657600080fd5b505af1158015611a9a573d6000803e3d6000fd5b505050506040513d601f19601f82011682018060405250810190611abe9190614f3e565b506040805188815260208101859052428183015290516001600160a01b038616917f66fb54322c407b04a077a306e72cdd780f0f374ba5dac9f6901a56a6255bc34a919081900360600190a2506001608c55979650505050505050565b6000816001600160a01b038116611b445760405162461bcd60e51b8152600401610dc490615708565b6001600160a01b03831660009081526014602052604090205460ff1691505b50919050565b6000826001600160a01b038116611b925760405162461bcd60e51b8152600401610dc490615708565b8260008111611bb35760405162461bcd60e51b8152600401610dc4906156d8565b6002608c541415611bd65760405162461bcd60e51b8152600401610dc49061578a565b6002608c55611be361392c565b6001600160a01b0385166000908152600e60205260408082209051639416385d60e01b815273__$c4b8709fc407821a47433b8892c1b612a0$__91639416385d91611c399190601590601b908b906004016157e3565b60206040518083038186803b158015611c5157600080fd5b505af4158015611c65573d6000803e3d6000fd5b505050506040513d601f19601f82011682018060405250810190611c89919061519c565b6001549091506001600160a01b03166323b872dd336040516001600160e01b031960e084901b1681526001600160a01b03909116600482015230602482015260448101849052606401602060405180830381600087803b158015611cec57600080fd5b505af1158015611d00573d6000803e3d6000fd5b505050506040513d601f19601f82011682018060405250810190611d249190614f3e565b50600154604051630852cd8d60e31b8152600481018390526001600160a01b03909116906342966c6890602401602060405180830381600087803b158015611d6b57600080fd5b505af1158015611d7f573d6000803e3d6000fd5b505050506040513d601f19601f82011682018060405250810190611da39190614f3e565b50611dae3386613acf565b60408051868152602081018390524281830152905133916001600160a01b038916917fd03400b15a5f4cddbc57f0e81bca31db33e4d1ed1390211eade3518bce70562e9181900360600190a3600193505050506001608c5592915050565b6000816001600160a01b038116611e355760405162461bcd60e51b8152600401610dc490615708565b6002608c541415611e585760405162461bcd60e51b8152600401610dc49061578a565b6002608c55611e656138d2565b6001600160a01b0383166000908152600e6020526040902060080154610100900460ff16611ecb5760405162461bcd60e51b8152602060048201526013602482015272131bd8dad95c9cce881b9bc81c995c5d595cdd606a1b6044820152606401610dc4565b6001600160a01b0383166000908152600e6020526040902060080180546301000000600161ffff19909216821763ff000000191617909155600b54611f109190615a75565b600b55600c54611f2190600161590a565b600c556001600160a01b0383166000908152600e60205260409081902090518491601291611f4f91906153d9565b908152604080516020928190038301812080546001600160a01b0319166001600160a01b039586161790559286166000818152600e90935291206003810154600482015492937f3840128cd2c146a0ea7739b8440e824c6d2d498ae32274812561d689d751e75e936117769392914290615540565b806001600160a01b038116611feb5760405162461bcd60e51b8152600401610dc490615708565b611ff36138d2565b611ffc82613bed565b5050565b6060816001600160a01b0381166120295760405162461bcd60e51b8152600401610dc490615708565b6001600160a01b0383166000908152600e60205260409020805461204c90615ab8565b80601f016020809104026020016040519081016040528092919081815260200182805461207890615ab8565b80156120c55780601f1061209a576101008083540402835291602001916120c5565b820191906000526020600020905b8154815290600101906020018083116120a857829003601f168201915b5050505050915050919050565b6120da6138d2565b6120e381613c8b565b50565b6120ee6138d2565b6120f6613d2f565b565b6121006138d2565b6120e381613d81565b60006002608c54141561212e5760405162461bcd60e51b8152600401610dc49061578a565b6002608c553482146121775760405162461bcd60e51b81526020600482015260126024820152714c6f636b6572733a206d73672076616c756560701b6044820152606401610dc4565b6001600160a01b0383166000908152600e602052604090819020905163015d95e560e01b815260048101919091526024810183905273__$c4b8709fc407821a47433b8892c1b612a0$__9063015d95e59060440160006040518083038186803b1580156121e357600080fd5b505af41580156121f7573d6000803e3d6000fd5b505050506001600160a01b0383166000818152600e602090815260409182902060040154825186815291820152428183015290517f2d2b4797badefe26cd5674f9bc2b8f5ed98e2a663e1a977af971254cfefd15ad9181900360600190a250600180608c5592915050565b61226a6138d2565b6120e381613e19565b6120f66138d2565b806001600160a01b0381166122a25760405162461bcd60e51b8152600401610dc490615708565b6122aa6138d2565b611ffc82613e5f565b6122bb6138d2565b6120e381613efd565b6122cc6138d2565b6120e381613f95565b6000826001600160a01b0381166122fe5760405162461bcd60e51b8152600401610dc490615708565b826000811161231f5760405162461bcd60e51b8152600401610dc4906156d8565b6002608c5414156123425760405162461bcd60e51b8152600401610dc49061578a565b6002608c5561234f61392c565b6001600160a01b0385166000908152600e602052604080822090516308878a6f60e01b815273__$c4b8709fc407821a47433b8892c1b612a0$__916308878a6f916123a59190601590601b908b906004016157e3565b60206040518083038186803b1580156123bd57600080fd5b505af41580156123d1573d6000803e3d6000fd5b505050506040513d601f19601f820116820180604052508101906123f5919061519c565b90506000600e6000886001600160a01b03166001600160a01b031681526020019081526020016000206040518061018001604052908160008201805461243a90615ab8565b80601f016020809104026020016040519081016040528092919081815260200182805461246690615ab8565b80156124b35780601f10612488576101008083540402835291602001916124b3565b820191906000526020600020905b81548152906001019060200180831161249657829003601f168201915b5050509183525050600182015460209091019060ff1660048111156124e857634e487b7160e01b600052602160045260246000fd5b600481111561250757634e487b7160e01b600052602160045260246000fd5b815260200160028201805461251b90615ab8565b80601f016020809104026020016040519081016040528092919081815260200182805461254790615ab8565b80156125945780601f1061256957610100808354040283529160200191612594565b820191906000526020600020905b81548152906001019060200180831161257757829003601f168201915b505050918352505060038201546020808301919091526004830154604080840191909152600580850154606085015260068501546080850152600785015460a085015260089094015460ff808216151560c08601526101008083048216151560e087015262010000830482161515908601526301000000909104161515610120909301929092526001600160a01b038b166000908152600e909152200154909150612640908390615a75565b6001600160a01b0388166000908152600e6020526040902060058101919091556004015461266f908790615a75565b6001600160a01b038089166000908152600e602090815260409182902060049081019490945560025485830151918601518651935163218a4edd60e11b815291909416946343149dba946126ca9489949391929091016158d2565b602060405180830381600087803b1580156126e457600080fd5b505af11580156126f8573d6000803e3d6000fd5b505050506040513d601f19601f8201168201806040525081019061271c919061519c565b506127273387613acf565b60408051878152602081018490524281830152905133916001600160a01b038a16917fd63782183ccef603c2adba105774db58e1701ea5e7b3e23eded1b5e967a3654c9181900360600190a360019450505050506001608c5592915050565b806001600160a01b0381166127ad5760405162461bcd60e51b8152600401610dc490615708565b6127b56138d2565b6127be8261289d565b156127db5760405162461bcd60e51b8152600401610dc490615697565b6001600160a01b038216600081815260136020526040808220805460ff19166001179055517f6ae172837ea30b801fbfcdd4108aa1d5bf8ff775444fd70256b44e6bf3dfc3f69190a25050565b6128306138d2565b6120e38161402d565b6000816001600160a01b0381166128625760405162461bcd60e51b8152600401610dc490615708565b50506001600160a01b03166000908152600e60205260409020600801546301000000900460ff1690565b6128946138d2565b6120e381614073565b6000816001600160a01b0381166128c65760405162461bcd60e51b8152600401610dc490615708565b50506001600160a01b031660009081526013602052604090205460ff1690565b600e6020526000908152604090208054819061290190615ab8565b80601f016020809104026020016040519081016040528092919081815260200182805461292d90615ab8565b801561297a5780601f1061294f5761010080835404028352916020019161297a565b820191906000526020600020905b81548152906001019060200180831161295d57829003601f168201915b5050506001840154600285018054949560ff90921694919350915061299e90615ab8565b80601f01602080910402602001604051908101604052809291908181526020018280546129ca90615ab8565b8015612a175780601f106129ec57610100808354040283529160200191612a17565b820191906000526020600020905b8154815290600101906020018083116129fa57829003601f168201915b5050506003840154600485015460058601546006870154600788015460089098015496979396929550909350919060ff80821691610100810482169162010000820481169163010000009004168c565b6000600e600060128585604051612a7f9291906153ad565b9081526040805160209281900383019020546001600160a01b0316835290820192909252016000206008015460ff169392505050565b60006002608c541415612ada5760405162461bcd60e51b8152600401610dc49061578a565b6002608c8190555073__$c4b8709fc407821a47433b8892c1b612a0$__633819c390600e6015601b60128d8d604051612b149291906153ad565b908152604051908190036020018120546001600160e01b031960e087901b168252612b54949392916001600160a01b03909116908d908d906004016155c4565b60006040518083038186803b158015612b6c57600080fd5b505af4158015612b80573d6000803e3d6000fd5b50505050612ba2612b8e3390565b601b546001600160a01b03169030896140b9565b600b54612bb090600161590a565b600b5560405163b19399d760e01b815273__$c4b8709fc407821a47433b8892c1b612a0$__9063b19399d790612bf990600e908c908c908c908c908c908c908c9060040161556f565b60006040518083038186803b158015612c1157600080fd5b505af4158015612c25573d6000803e3d6000fd5b50505050612c303390565b6001600160a01b03167fe5f7957016a87f9d7bacdd371a516d7f2c5667aa5676c7e07cc8c0bbc6e5067b89898989604051612c6e9493929190615448565b60405180910390a250600180608c55979650505050505050565b60006002608c541415612cad5760405162461bcd60e51b8152600401610dc49061578a565b6002608c55612cba61392c565b6002546001600160a01b0316336001600160a01b031614612ced5760405162461bcd60e51b8152600401610dc490615652565b6001600160a01b0385166000908152600e602052604080822090516267f5ad60e41b8152829173__$c4b8709fc407821a47433b8892c1b612a0$__9163067f5ad091612d4791601590601b908c908c908c90600401615815565b604080518083038186803b158015612d5e57600080fd5b505af4158015612d72573d6000803e3d6000fd5b505050506040513d601f19601f82011682018060405250810190612d9691906151b4565b60405191935091506001600160a01b0386169083156108fc029084906000818181858888f19350505050158015612dd1573d6000803e3d6000fd5b50306001600160a01b038681169089167fab522c1322c34ea455e8f541ecfe1b73a29039f3658bff658cf12c9fd26dc0168588612e0e828861590a565b604080519384526020840192909252908201524260608201526000608082015260a00160405180910390a46001925050506001608c55949350505050565b600060128383604051612e609291906153ad565b908152604051908190036020019020546001600160a01b0316905092915050565b6000816001600160a01b038116612eaa5760405162461bcd60e51b8152600401610dc490615708565b6002608c541415612ecd5760405162461bcd60e51b8152600401610dc49061578a565b6002608c55612eda6138d2565b612ee38361412a565b60019150506001608c55919050565b60006002608c541415612f175760405162461bcd60e51b8152600401610dc49061578a565b6002608c55336000908152600e602052604090206008015460ff16612f935760405162461bcd60e51b815260206004820152602c60248201527f4c6f636b6572733a20696e7075742061646472657373206973206e6f7420612060448201526b3b30b634b2103637b1b5b2b960a11b6064820152608401610dc4565b336000818152600e6020818152604080842060088101805463ff00000019169055600f8352818520805460ff19166001179055601083529381902042905591905260038201546004830154600584015492517f2cf13a17a26f23ac9b786e628031eac7ebf6bb0b34e3f477f340079eb68d9a3e946130149490939291615540565b60405180910390a250600180608c5590565b806001600160a01b03811661304d5760405162461bcd60e51b8152600401610dc490615708565b6130556138d2565b611ffc82614610565b6000816001600160a01b0381166130875760405162461bcd60e51b8152600401610dc490615708565b6001600160a01b0383166000908152600e60205260409081902060058101546008549251630e19455960e41b81529092916127109173__$c4b8709fc407821a47433b8892c1b612a0$__9163e1945590916130eb9190601590601b906004016157c1565b60206040518083038186803b15801561310357600080fd5b505af4158015613117573d6000803e3d6000fd5b505050506040513d601f19601f8201168201806040525081019061313b919061519c565b6131459190615a56565b61314f9190615922565b6131599190615a75565b9392505050565b6131686138d2565b6120e3816146ae565b60006002608c5414156131965760405162461bcd60e51b8152600401610dc49061578a565b6002608c55336000908152600e6020526040902060080154610100900460ff166131f45760405162461bcd60e51b815260206004820152600f60248201526e4c6f636b6572733a206e6f2072657160881b6044820152606401610dc4565b336000908152600e60205260408082208151610180810190925280548290829061321d90615ab8565b80601f016020809104026020016040519081016040528092919081815260200182805461324990615ab8565b80156132965780601f1061326b57610100808354040283529160200191613296565b820191906000526020600020905b81548152906001019060200180831161327957829003601f168201915b5050509183525050600182015460209091019060ff1660048111156132cb57634e487b7160e01b600052602160045260246000fd5b60048111156132ea57634e487b7160e01b600052602160045260246000fd5b81526020016002820180546132fe90615ab8565b80601f016020809104026020016040519081016040528092919081815260200182805461332a90615ab8565b80156133775780601f1061334c57610100808354040283529160200191613377565b820191906000526020600020905b81548152906001019060200180831161335a57829003601f168201915b505050918352505060038201546020820152600482015460408201526005820154606082015260068201546080820152600782015460a082015260089091015460ff808216151560c08401526101008083048216151560e085015262010000830482161515908401526301000000909104161515610120909101529050600e6000336001600160a01b03168152602081019190915260400160009081209061341f8282614d0f565b60018201805460ff19169055613439600283016000614d0f565b506000600382018190556004820181905560058201819055600682018190556007820155600801805463ffffffff19169055600b5461347a90600190615a75565b600b556134993360608301516000546001600160a01b0316919061474c565b6134a7338260800151613acf565b336000818152600e6020526040908190206003810154600482015492517f10f84ef0773ba7ade3714f4e500ca17436e6df2b0feb99c754c04f889290cbd4936134f193929161552d565b60405180910390a260019150506001608c5590565b61350e6138d2565b6120f661477c565b806001600160a01b03811661353d5760405162461bcd60e51b8152600401610dc490615708565b6135456138d2565b611ffc826147b9565b6135566138d2565b6001600160a01b0381166135bb5760405162461bcd60e51b815260206004820152602660248201527f4f776e61626c653a206e6577206f776e657220697320746865207a65726f206160448201526564647265737360d01b6064820152608401610dc4565b6120e3816148f9565b806001600160a01b0381166135eb5760405162461bcd60e51b8152600401610dc490615708565b6135f36138d2565b6135fc82611b1b565b156136195760405162461bcd60e51b8152600401610dc490615697565b6001600160a01b038216600081815260146020526040808220805460ff19166001179055517f86e57fd2b90329052917118de7c3f521f400d439b9650deaa906a25b08b945609190a25050565b602754610100900460ff16158080156136865750602754600160ff909116105b806136a757506136953061494b565b1580156136a7575060275460ff166001145b61370a5760405162461bcd60e51b815260206004820152602e60248201527f496e697469616c697a61626c653a20636f6e747261637420697320616c72656160448201526d191e481a5b9a5d1a585b1a5e995960921b6064820152608401610dc4565b6027805460ff19166001179055801561372d576027805461ff0019166101001790555b61373561495e565b61373d61498d565b6137456149bc565b8715158061375257508615155b61379e5760405162461bcd60e51b815260206004820152601760248201527f4c6f636b6572733a20616d6f756e74206973207a65726f0000000000000000006044820152606401610dc4565b6137a78c6146ae565b6137b08d613e5f565b6137b9896147b9565b6137c28b614610565b6137cb8a613bed565b6137d48861402d565b6137dd87614073565b6137e685613f95565b6137ef86613c8b565b6137f884613d81565b61380183613efd565b61380a82613e19565b61271060158190556016819055612ee06017556018556012601955601a80546001600160a01b0319166001179055801561387e576027805461ff0019169055604051600181527f7f26b83ff96e1f2b6a682f133852f6798a09c465da95921460cefb38474024989060200160405180910390a15b50505050505050505050505050565b60006002608c5414156138b25760405162461bcd60e51b8152600401610dc49061578a565b6002608c556138bf61392c565b6138c83361412a565b50600180608c5590565b605a546001600160a01b031633146120f65760405162461bcd60e51b815260206004820181905260248201527f4f776e61626c653a2063616c6c6572206973206e6f7420746865206f776e65726044820152606401610dc4565b60be5460ff16156120f65760405162461bcd60e51b815260206004820152601060248201526f14185d5cd8589b194e881c185d5cd95960821b6044820152606401610dc4565b600885015460ff166139c65760405162461bcd60e51b815260206004820181905260248201527f4c6f636b6572733a206163636f756e74206973206e6f742061206c6f636b65726044820152606401610dc4565b600085600501548560800151600a6139de9190615988565b8561010001516139ee9190615a56565b86516004890154613a00908790615a56565b613a0a9190615a56565b613a149190615922565b613a1e9190615a75565b90506000838660800151600a613a349190615988565b613a3e9084615a56565b613a489190615922565b905080831115613aae5760405162461bcd60e51b815260206004820152602b60248201527f4c6f636b6572733a206d6f7265207468616e206d61782072656d6f7661626c6560448201526a0818dbdb1b185d195c985b60aa1b6064820152608401610dc4565b828760040154613abe9190615a75565b876004018190555050505050505050565b80471015613b1f5760405162461bcd60e51b815260206004820152601d60248201527f416464726573733a20696e73756666696369656e742062616c616e63650000006044820152606401610dc4565b6000826001600160a01b03168260405160006040518083038185875af1925050503d8060008114613b6c576040519150601f19603f3d011682016040523d82523d6000602084013e613b71565b606091505b5050905080613be85760405162461bcd60e51b815260206004820152603a60248201527f416464726573733a20756e61626c6520746f2073656e642076616c75652c207260448201527f6563697069656e74206d617920686176652072657665727465640000000000006064820152608401610dc4565b505050565b806001600160a01b038116613c145760405162461bcd60e51b8152600401610dc490615708565b600454604080516001600160a01b03928316815291841660208301527fd52b2b9b7e9ee655fcb95d2e5b9e0c9f69e7ef2b8e9d2d0ea78402d576d22e22910160405180910390a150600480546001600160a01b03199081166001600160a01b039384161791829055601f8054929093169116179055565b600954811015613ce95760405162461bcd60e51b815260206004820152602360248201527f4c6f636b6572733a204352206d7573742062652067726561746572207468616e60448201526210262960e91b6064820152608401610dc4565b60085460408051918252602082018390527f1e29d1b5c8926360f3ac632d884775772b07f31fec4077d433e58ce823f91347910160405180910390a16008819055602355565b613d376149eb565b60be805460ff191690557f5db9ee0a495bf2e6ff9c91a7834c1ba4fdd244a5e8aa4e537bd38aeae4b073aa335b6040516001600160a01b03909116815260200160405180910390a1565b612710811115613dd35760405162461bcd60e51b815260206004820152601b60248201527f4c6f636b6572733a20696e76616c6964206c6f636b65722066656500000000006044820152606401610dc4565b60075460408051918252602082018390527f44c6802691f6adea249930369a511db979a5e9a3603bdb37ceee1036da80e980910160405180910390a16007819055602255565b600d5460408051918252602082018390527ff38e885b98a4effb359301b3c600b61ed62388371a8add443e2cca425463b84b910160405180910390a1600d819055602655565b806001600160a01b038116613e865760405162461bcd60e51b8152600401610dc490615708565b600154604080516001600160a01b03928316815291841660208301527f36a4c08a38b736dcecb6c328dba61238529620e83ccb23db2cc43cd34ec26096910160405180910390a150600180546001600160a01b03199081166001600160a01b039384161791829055601c8054929093169116179055565b612710811115613f4f5760405162461bcd60e51b815260206004820152601760248201527f4c6f636b6572733a206c657373207468616e20313030250000000000000000006044820152606401610dc4565b600a5460408051918252602082018390527f5e4dd01049cdfe5a081b404bff8e27de919fd9c8ae2145007e0921ec227f207a910160405180910390a1600a819055602555565b612710811015613fe75760405162461bcd60e51b815260206004820152601d60248201527f4c6f636b6572733a2070726f626c656d20696e20435220616e64204c520000006044820152606401610dc4565b60095460408051918252602082018390527f883242c2a857ca527a432dfca231b1e49233fde2a96802809a0f3866e9f19e13910160405180910390a16009819055602455565b60055460408051918252602082018390527f65fb7af72786d428e2b4e9d3d2bd45fdd354f582ccccad2044967440b98e6d7b910160405180910390a16005819055602055565b60065460408051918252602082018390527f063267aa94de35dcf03acb07931ff2a6eae1ac1ee0be20797c9a6d3b52abf47b910160405180910390a16006819055602155565b6040516001600160a01b03808516602483015283166044820152606481018290526141249085906323b872dd60e01b906084015b60408051601f198184030181529190526020810180516001600160e01b03166001600160e01b031990931692909217909152614a34565b50505050565b6001600160a01b0381166000908152600e602052604090206008015460ff1661418a5760405162461bcd60e51b81526020600482015260126024820152712637b1b5b2b9399d103737903637b1b5b2b960711b6044820152606401610dc4565b6001600160a01b0381166000908152600f602052604090205460ff166141eb5760405162461bcd60e51b81526020600482015260166024820152754c6f636b6572733a206e6f2072656d6f76652072657160501b6044820152606401610dc4565b600d546001600160a01b03821660009081526010602052604090205442916142129161590a565b106142545760405162461bcd60e51b81526020600482015260126024820152714c6f636b6572733a2077616974206d6f726560701b6044820152606401610dc4565b6001600160a01b0381166000908152600e6020526040902060050154156142b55760405162461bcd60e51b8152602060048201526015602482015274131bd8dad95c9cce880c081b995d081b5a5b9d1959605a1b6044820152606401610dc4565b6001600160a01b0381166000908152600e6020526040808220815161018081019092528054829082906142e790615ab8565b80601f016020809104026020016040519081016040528092919081815260200182805461431390615ab8565b80156143605780601f1061433557610100808354040283529160200191614360565b820191906000526020600020905b81548152906001019060200180831161434357829003601f168201915b5050509183525050600182015460209091019060ff16600481111561439557634e487b7160e01b600052602160045260246000fd5b60048111156143b457634e487b7160e01b600052602160045260246000fd5b81526020016002820180546143c890615ab8565b80601f01602080910402602001604051908101604052809291908181526020018280546143f490615ab8565b80156144415780601f1061441657610100808354040283529160200191614441565b820191906000526020600020905b81548152906001019060200180831161442457829003601f168201915b5050509183525050600382015460208083019190915260048301546040808401919091526005840154606084015260068401546080840152600784015460a084015260089093015460ff808216151560c08501526101008083048216151560e086015262010000830482161515908501526301000000909104161515610120909201919091526001600160a01b0385166000908152600e90915281902090519192506012916144f091906153d9565b908152604080516020928190038301902080546001600160a01b03191690556001600160a01b0384166000908152600e9092528120906145308282614d0f565b60018201805460ff1916905561454a600283016000614d0f565b506000600382018190556004820181905560058201819055600682018190556007820155600801805463ffffffff19169055600c5461458b90600190615a75565b600c5560608101516000546145ad916001600160a01b0390911690849061474c565b6145bb828260800151613acf565b816001600160a01b03167f628f3d67160bc1a892a1779c6475e128010a54df63af5dcdbf3c7b06ca5dfa9782600001518360600151846080015160405161460493929190615508565b60405180910390a25050565b806001600160a01b0381166146375760405162461bcd60e51b8152600401610dc490615708565b600354604080516001600160a01b03928316815291841660208301527f2f0c2c74338b8f7fb04dcfc964c9221eb054ec353c18b9617fe43566e453a23c910160405180910390a150600380546001600160a01b03199081166001600160a01b039384161791829055601e8054929093169116179055565b806001600160a01b0381166146d55760405162461bcd60e51b8152600401610dc490615708565b600054604080516001600160a01b03928316815291841660208301527ffd88adf2dc0ac6ee5960f2f4273f25017bab8b5efa8889b3cf085ce645c293b2910160405180910390a150600080546001600160a01b03199081166001600160a01b039384161791829055601b8054929093169116179055565b6040516001600160a01b038316602482015260448101829052613be890849063a9059cbb60e01b906064016140ed565b61478461392c565b60be805460ff191660011790557f62e78cea01bee320cd4e420270b5ea74000d11b0c9f74754ebdbfc544b05a258613d643390565b806001600160a01b0381166147e05760405162461bcd60e51b8152600401610dc490615708565b600254604080516001600160a01b03928316815291841660208301527fd86d51326f3c88ea5365fba597a57273ae555e44f4b11658da952320d0beaa75910160405180910390a16002546040516001600160a01b03909116907f90eabbc0c667db2a5029ed6bc0f5fe9f356d11684a4ca9fcfaec0e53f12b9c8e90600090a2600280546001600160a01b03908116600090815260146020526040808220805460ff1916905583546001600160a01b03199081168785161794859055601d8054959094169416841790925590517f86e57fd2b90329052917118de7c3f521f400d439b9650deaa906a25b08b945609190a250506002546001600160a01b03166000908152601460205260409020805460ff19166001179055565b605a80546001600160a01b038381166001600160a01b0319831681179093556040519116919082907f8be0079c531659141344cd1fd0a4f28419497f9722a3daafe3b4186f6b6457e090600090a35050565b6001600160a01b0381163b15155b919050565b602754610100900460ff166149855760405162461bcd60e51b8152600401610dc49061573f565b6120f6614b06565b602754610100900460ff166149b45760405162461bcd60e51b8152600401610dc49061573f565b6120f6614b36565b602754610100900460ff166149e35760405162461bcd60e51b8152600401610dc49061573f565b6120f6614b64565b60be5460ff166120f65760405162461bcd60e51b815260206004820152601460248201527314185d5cd8589b194e881b9bdd081c185d5cd95960621b6044820152606401610dc4565b6000614a89826040518060400160405280602081526020017f5361666545524332303a206c6f772d6c6576656c2063616c6c206661696c6564815250856001600160a01b0316614b979092919063ffffffff16565b805190915015613be85780806020019051810190614aa79190614f3e565b613be85760405162461bcd60e51b815260206004820152602a60248201527f5361666545524332303a204552433230206f7065726174696f6e20646964206e6044820152691bdd081cdd58d8d9595960b21b6064820152608401610dc4565b602754610100900460ff16614b2d5760405162461bcd60e51b8152600401610dc49061573f565b6120f6336148f9565b602754610100900460ff16614b5d5760405162461bcd60e51b8152600401610dc49061573f565b6001608c55565b602754610100900460ff16614b8b5760405162461bcd60e51b8152600401610dc49061573f565b60be805460ff19169055565b6060614ba68484600085614bae565b949350505050565b606082471015614c0f5760405162461bcd60e51b815260206004820152602660248201527f416464726573733a20696e73756666696369656e742062616c616e636520666f6044820152651c8818d85b1b60d21b6064820152608401610dc4565b843b614c5d5760405162461bcd60e51b815260206004820152601d60248201527f416464726573733a2063616c6c20746f206e6f6e2d636f6e74726163740000006044820152606401610dc4565b600080866001600160a01b03168587604051614c7991906153bd565b60006040518083038185875af1925050503d8060008114614cb6576040519150601f19603f3d011682016040523d82523d6000602084013e614cbb565b606091505b5091509150614ccb828286614cd6565b979650505050505050565b60608315614ce5575081613159565b825115614cf55782518084602001fd5b8160405162461bcd60e51b8152600401610dc4919061546f565b508054614d1b90615ab8565b6000825580601f10614d2d57506120e3565b601f0160209004906000526020600020908101906120e391905b80821115614d5b5760008155600101614d47565b5090565b80356001600160a01b038116811461495957600080fd5b60008083601f840112614d87578081fd5b50813567ffffffffffffffff811115614d9e578182fd5b602083019150836020828501011115614db657600080fd5b9250929050565b600060208284031215614dce578081fd5b61315982614d5f565b6000806000806000806000806000806000806101808d8f031215614df9578788fd5b614e028d614d5f565b9b50614e1060208e01614d5f565b9a50614e1e60408e01614d5f565b9950614e2c60608e01614d5f565b9850614e3a60808e01614d5f565b9b9e9a9d50989b979a9960a0890135995060c08901359860e0810135985061010081013597506101208101359650610140810135955061016001359350915050565b60008060408385031215614e8e578182fd5b614e9783614d5f565b946020939093013593505050565b60008060008060808587031215614eba578384fd5b614ec385614d5f565b935060208501359250614ed860408601614d5f565b9396929550929360600135925050565b600080600080600060a08688031215614eff578081fd5b614f0886614d5f565b945060208601359350614f1d60408701614d5f565b925060608601359150614f3260808701614d5f565b90509295509295909350565b600060208284031215614f4f578081fd5b81518015158114613159578182fd5b60008060208385031215614f70578182fd5b823567ffffffffffffffff811115614f86578283fd5b614f9285828601614d76565b90969095509350505050565b60008060008060608587031215614fb3578384fd5b843567ffffffffffffffff811115614fc9578485fd5b614fd587828801614d76565b9095509350614fe8905060208601614d5f565b9396929550929360400135925050565b60008060006040848603121561500c578283fd5b833567ffffffffffffffff811115615022578384fd5b61502e86828701614d76565b909790965060209590950135949350505050565b600080600080600080600060a0888a03121561505c578283fd5b873567ffffffffffffffff80821115615073578485fd5b61507f8b838c01614d76565b909950975060208a0135965060408a0135955060608a01359150600582106150a5578485fd5b909350608089013590808211156150ba578384fd5b506150c78a828b01614d76565b989b979a50959850939692959293505050565b6000602082840312156150eb578081fd5b813567ffffffffffffffff80821115615102578283fd5b818401915084601f830112615115578283fd5b81358181111561512757615127615b03565b604051601f8201601f19908116603f0116810190838211818310171561514f5761514f615b03565b81604052828152876020848701011115615167578586fd5b826020860160208301379182016020019490945295945050505050565b600060208284031215615195578081fd5b5035919050565b6000602082840312156151ad578081fd5b5051919050565b600080604083850312156151c6578182fd5b505080516020909101519092909150565b60008284528282602086013780602084860101526020601f19601f85011685010190509392505050565b60008151808452615219816020860160208601615a8c565b601f01601f19169290920160200192915050565b6000815461523a81615ab8565b808552602060018381168015615257576001811461526b57615299565b60ff19851688840152604088019550615299565b866000528260002060005b858110156152915781548a8201860152908301908401615276565b890184019650505b505050505092915050565b600581106152c257634e487b7160e01b600052602160045260246000fd5b9052565b8054825260018101546020830152600281015460408301526003810154606083015260048101546080830152600501546001600160a01b031660a090910152565b6153298261531c83546001600160a01b031690565b6001600160a01b03169052565b60018101546001600160a01b0390811660208401526002820154811660408401526003820154811660608401526004820154166080830152600581015460a0830152600681015460c0830152600781015460e083015260088101546101008301526009810154610120830152600a810154610140830152600b015461016090910152565b6000828483379101908152919050565b600082516153cf818460208701615a8c565b9190910192915050565b60008083546153e781615ab8565b600182811680156153ff57600181146154105761543c565b60ff1984168752828701945061543c565b8786526020808720875b858110156154335781548a82015290840190820161541a565b50505082870194505b50929695505050505050565b60006060825261545c6060830186886151d7565b6020830194909452506040015292915050565b6000602082526131596020830184615201565b6000610180825261549761018083018f615201565b6154a4602084018f6152a4565b82810360408401526154b6818e615201565b606084019c909c525050608081019890985260a088019690965260c087019490945260e08601929092521515610100850152151561012084015215156101408301521515610160909101529392505050565b60006060825261551b6060830186615201565b60208301949094525060400152919050565b60006060825261551b606083018661522d565b600060808252615553608083018761522d565b6020830195909552506040810192909252606090910152919050565b600089825260c0602083015261558960c08301898b6151d7565b8760408401528660608401526155a260808401876152a4565b82810360a08401526155b58185876151d7565b9b9a5050505050505050505050565b8681526102c081016155d960208301886152c6565b6155e660e0830187615307565b6001600160a01b03949094166102608201526102808101929092526102a0909101529392505050565b60208082526023908201527f4c6f636b6572733a206163636f756e7420646f6573206e6f74206861766520726040820152626f6c6560e81b606082015260800190565b60208082526025908201527f4c6f636b6572733a206d6573736167652073656e646572206973206e6f74206360408201526431a13ab93760d91b606082015260800190565b60208082526021908201527f4c6f636b6572733a206163636f756e7420616c72656164792068617320726f6c6040820152606560f81b606082015260800190565b6020808252601690820152754c6f636b6572733a2076616c7565206973207a65726f60501b604082015260600190565b60208082526018908201527f4c6f636b6572733a2061646472657373206973207a65726f0000000000000000604082015260600190565b6020808252602b908201527f496e697469616c697a61626c653a20636f6e7472616374206973206e6f74206960408201526a6e697469616c697a696e6760a81b606082015260800190565b6020808252601f908201527f5265656e7472616e637947756172643a207265656e7472616e742063616c6c00604082015260600190565b83815261026081016157d660208301856152c6565b614ba660e0830184615307565b84815261028081016157f860208301866152c6565b61580560e0830185615307565b8261026083015295945050505050565b8681526102c0810161582a60208301886152c6565b61583760e0830187615307565b6102608201949094526001600160a01b03929092166102808301526102a0909101529392505050565b8781526102e0810161587560208301896152c6565b61588260e0830188615307565b6102608201959095526001600160a01b039384166102808201526102a08101929092529091166102c0909101529392505050565b61024081016158c582856152c6565b61315960c0830184615307565b6000858252608060208301526158eb6080830186615201565b6158f860408401866152a4565b8281036060840152614ccb8185615201565b6000821982111561591d5761591d615aed565b500190565b60008261593d57634e487b7160e01b81526012600452602481fd5b500490565b80825b6001808611615954575061597f565b81870482111561596657615966615aed565b8086161561597357918102915b9490941c938002615945565b94509492505050565b600061315960001984846000826159a157506001613159565b816159ae57506000613159565b81600181146159c457600281146159ce576159fb565b6001915050613159565b60ff8411156159df576159df615aed565b6001841b9150848211156159f5576159f5615aed565b50613159565b5060208310610133831016604e8410600b8410161715615a2e575081810a83811115615a2957615a29615aed565b613159565b615a3b8484846001615942565b808604821115615a4d57615a4d615aed565b02949350505050565b6000816000190483118215151615615a7057615a70615aed565b500290565b600082821015615a8757615a87615aed565b500390565b60005b83811015615aa7578181015183820152602001615a8f565b838111156141245750506000910152565b600281046001821680615acc57607f821691505b60208210811415611b6357634e487b7160e01b600052602260045260246000fd5b634e487b7160e01b600052601160045260246000fd5b634e487b7160e01b600052604160045260246000fdfea2646970667358221220e7e957a5d73ade32e5d07745a8fc41439ddb98575ece06928137a6697e067d7964736f6c63430008020033",
  "libraries": {
    "LockersLib": "0xf56835e827756be8B18B0ef6e56765af02C2Ed5b"
  },
  "devdoc": {
    "kind": "dev",
    "methods": {
      "addBurner(address)": {
        "details": "Give an account access to burn."
      },
      "addCollateral(address,uint256)": {
        "params": {
          "_addingNativeTokenAmount": "Amount of added collateral",
          "_lockerTargetAddress": "Locker's target chain address"
        },
        "returns": {
          "_0": "True if collateral is added successfully"
        }
      },
      "addLocker(address)": {
        "details": "Only owner can call this                                       When a candidate becomes locker, isCandidate is set to false",
        "params": {
          "_lockerTargetAddress": "Locker's target chain address"
        },
        "returns": {
          "_0": "True if candidate is added successfully"
        }
      },
      "addMinter(address)": {
        "details": "Give an account access to mint."
      },
      "burn(bytes,uint256)": {
        "details": "Burn teleBTC and also get the locker's fee",
        "params": {
          "_amount": "Amount of the teleBTC which is minted, including the locker's fee",
          "_lockerLockingScript": "Locking script of a locker"
        },
        "returns": {
          "_0": "uint                  The amount of teleBTC burnt"
        }
      },
      "buySlashedCollateralOfLocker(address,uint256)": {
        "details": "Users buy the slashed collateral using TeleBTC with discount                                   The paid TeleBTC will be burnt to keep the system safe                                   If all the needed TeleBTC is collected and burnt,                                   the rest of slashed collateral is sent back to locker ",
        "params": {
          "_collateralAmount": "Amount of collateral (TNT) that someone intends to buy with discount",
          "_lockerTargetAddress": "Locker's target chain address"
        },
        "returns": {
          "_0": "True if buying was successful"
        }
      },
      "getLockerCapacity(address)": {
        "details": "Net minted amount is total minted minus total burnt for the locker",
        "params": {
          "_lockerTargetAddress": "Address of locker on the target chain"
        },
        "returns": {
          "_0": "The net minted of the locker"
        }
      },
      "getLockerLockingScript(address)": {
        "params": {
          "_lockerTargetAddress": "Address of locker on the target chain"
        },
        "returns": {
          "_0": "Bitcoin public key of locker"
        }
      },
      "getNumberOfLockers()": {
        "returns": {
          "_0": "Number of lockers"
        }
      },
      "isActive(address)": {
        "details": "An active locker is not in the process of being removed and has enough capacity to mint more tokens (minted - burnt << their collateral)",
        "params": {
          "_lockerTargetAddress": "Address of locker on the target chain"
        },
        "returns": {
          "_0": "True if the locker is active and accepts mint requests"
        }
      },
      "isBurner(address)": {
        "params": {
          "account": "The account which intended to be checked"
        },
        "returns": {
          "_0": "bool"
        }
      },
      "isLocker(bytes)": {
        "params": {
          "_lockerLockingScript": "Locking script of locker on the target chain"
        },
        "returns": {
          "_0": "True if a locking script is locker"
        }
      },
      "isMinter(address)": {
        "params": {
          "account": "The account which intended to be checked"
        },
        "returns": {
          "_0": "bool"
        }
      },
      "liquidateLocker(address,uint256)": {
        "details": "Anyone can liquidate a locker whose health factor                                   is less than 10000 (100%) by providing a sufficient amount of teleBTC",
        "params": {
          "_collateralAmount": "Amount of collateral (TNT) that someone intends to buy with discount",
          "_lockerTargetAddress": "Locker's target chain address"
        },
        "returns": {
          "_0": "True if liquidation was successful"
        }
      },
      "mint(bytes,address,uint256)": {
        "details": "Mint teleBTC for an account and the locker fee as well",
        "params": {
          "_amount": "Amount of the teleBTC which is minted, including the locker's fee",
          "_lockerLockingScript": "Locking script of a locker",
          "_receiver": "Address of the receiver of the minted teleBTCs"
        },
        "returns": {
          "_0": "uint                  The amount of teleBTC minted for the receiver"
        }
      },
      "owner()": {
        "details": "Returns the address of the current owner."
      },
      "ownerRemoveLocker(address)": {
        "details": "Only owner can call this function                               Removing conditions should be satisfied",
        "params": {
          "_lockerTargetAddress": "Target address of locker to be removed"
        },
        "returns": {
          "_0": "True if locker is removed successfully"
        }
      },
      "pauseLocker()": {
        "details": "Only owner can pause "
      },
      "paused()": {
        "details": "Returns true if the contract is paused, and false otherwise."
      },
      "priceOfOneUnitOfCollateralInBTC()": {
        "details": "Returns the price of one native token (1*10^18) in teleBTC",
        "returns": {
          "_0": "uint The price of one unit of collateral token (native token in teleBTC)"
        }
      },
      "removeBurner(address)": {
        "details": "Remove an account's access to burn."
      },
      "removeCollateral(uint256)": {
        "params": {
          "_removingNativeTokenAmount": "Amount of removed collateral"
        },
        "returns": {
          "_0": "True if collateral is removed successfully"
        }
      },
      "removeMinter(address)": {
        "details": "Remove an account's access to mint."
      },
      "renounceOwnership()": {
        "details": "Leaves the contract without owner. It will not be possible to call `onlyOwner` functions anymore. Can only be called by the current owner. NOTE: Renouncing ownership will leave the contract without an owner, thereby removing any functionality that is only available to the owner."
      },
      "requestToBecomeLocker(bytes,uint256,uint256,uint8,bytes)": {
        "details": "Users mint TeleBTC by sending BTC to locker's locking script                                         In case of liqudation of locker's bond, the burn TeleBTC is sent to                                         locker's rescue script                                         A user should lock enough TDT and TNT to become candidate",
        "params": {
          "_candidateLockingScript": "Locking script of the candidate",
          "_lockedNativeTokenAmount": "Bond amount of locker in native token of the target chain",
          "_lockedTDTAmount": "Bond amount of locker in TDT",
          "_lockerRescueScript": "Rescue script of the locker",
          "_lockerRescueType": "Type of locker's rescue script (e.g. P2SH)"
        },
        "returns": {
          "_0": "True if candidate is added successfully"
        }
      },
      "requestToRemoveLocker()": {
        "details": "Deactivates the status of the locker so that no                        one is allowed to send mint requests to this locker.                        It gives time to the locker to burn the required amount                        of teleBTC to make itself eligible to be removed.                        Sets isActive of locker to false",
        "returns": {
          "_0": "True if deactivated successfully"
        }
      },
      "revokeRequest()": {
        "details": "A user who is still a candidate can revoke his/her request",
        "returns": {
          "_0": "True if candidate is removed successfully"
        }
      },
      "selfRemoveLocker()": {
        "details": "Only locker can call this function                               Removing conditions should be satisfied",
        "returns": {
          "_0": "True if locker is removed successfully"
        }
      },
      "setCCBurnRouter(address)": {
        "details": "Only current owner can call this",
        "params": {
          "_ccBurnRouter": "The new cc burn router contract address"
        }
      },
      "setCollateralRatio(uint256)": {
        "details": "Only owner can call this",
        "params": {
          "_collateralRatio": "The new collateral ratio"
        }
      },
      "setExchangeConnector(address)": {
        "details": "Only owner can call this",
        "params": {
          "_exchangeConnector": "The new exchange router contract address"
        }
      },
      "setLiquidationRatio(uint256)": {
        "details": "Only owner can call this",
        "params": {
          "_liquidationRatio": "The new liquidation ratio"
        }
      },
      "setLockerPercentageFee(uint256)": {
        "details": "Only current owner can call this",
        "params": {
          "_lockerPercentageFee": "The new locker percentage fee"
        }
      },
      "setMinLeavingIntervalTime(uint256)": {
        "details": "Only owner can call this",
        "params": {
          "_minLeavingIntervalTime": "The new minimum leaving interval"
        }
      },
      "setMinRequiredTDTLockedAmount(uint256)": {
        "details": "Only current owner can call this",
        "params": {
          "_minRequiredTDTLockedAmount": "The new required TDT token bond amount"
        }
      },
      "setMinRequiredTNTLockedAmount(uint256)": {
        "details": "Only current owner can call this",
        "params": {
          "_minRequiredTNTLockedAmount": "The new required native token bond amount"
        }
      },
      "setPriceOracle(address)": {
        "details": "Only current owner can call this",
        "params": {
          "_priceOracle": "The new price oracle"
        }
      },
      "setPriceWithDiscountRatio(uint256)": {
        "details": "Only current owner can call this",
        "params": {
          "_priceWithDiscountRatio": "The new price with discount ratioo"
        }
      },
      "setTeleBTC(address)": {
        "details": "Only owner can call this",
        "params": {
          "_teleBTC": "The new wrapped token contract address"
        }
      },
      "setTeleportDAOToken(address)": {
        "details": "Only current owner can call this",
        "params": {
          "_tdtTokenAddress": "The new teleportDAO token address"
        }
      },
      "slashIdleLocker(address,uint256,address,uint256,address)": {
        "details": "Only cc burn router can call this                                   Locker is slashed since doesn't provide burn proof                                   before a cc burn request deadline.                                   User who made the cc burn request will receive the slashed bond",
        "params": {
          "_amount": "Amount of TeleBTC that is slashed from lockers",
          "_lockerTargetAddress": "Locker's target chain address",
          "_recipient": "Address of user who receives the slashed amount",
          "_rewardAmount": "Amount of TeleBTC that slasher receives",
          "_rewardRecipient": "Address of slasher who receives reward"
        },
        "returns": {
          "_0": "True if the locker is slashed successfully"
        }
      },
      "slashThiefLocker(address,uint256,address,uint256)": {
        "details": "Only cc burn router can call this                                   Locker is slashed because he/she moved BTC from                                    locker's Bitcoin address without any corresponding burn req                                   The slashed bond will be sold with discount",
        "params": {
          "_amount": "Value of slashed collateral (in TeleBTC)",
          "_lockerTargetAddress": "Locker's target chain address",
          "_rewardAmount": "Value of slashed reward (in TeleBTC)",
          "_rewardRecipient": "Address of slasher who receives reward"
        },
        "returns": {
          "_0": "True if the locker is slashed successfully"
        }
      },
      "transferOwnership(address)": {
        "details": "Transfers ownership of the contract to a new account (`newOwner`). Can only be called by the current owner."
      },
      "unPauseLocker()": {
        "details": "Only owner can pause"
      }
    },
    "version": 1
  },
  "userdoc": {
    "kind": "user",
    "methods": {
      "addCollateral(address,uint256)": {
        "notice": "Increases TNT collateral of the locker"
      },
      "addLocker(address)": {
        "notice": "Approves a candidate request to become locker"
      },
      "burn(bytes,uint256)": {
        "notice": "Burn teleBTC of an account"
      },
      "buySlashedCollateralOfLocker(address,uint256)": {
        "notice": "Sells lockers slashed collateral"
      },
      "getLockerCapacity(address)": {
        "notice": "Get how much net this locker has minted"
      },
      "getLockerLockingScript(address)": {
        "notice": "Give Bitcoin public key of locker"
      },
      "getNumberOfLockers()": {
        "notice": "Give number of lockers"
      },
      "isActive(address)": {
        "notice": "Tells if a locker is active or not"
      },
      "isBurner(address)": {
        "notice": "Check if an account is burner    "
      },
      "isLocker(bytes)": {
        "notice": "Checks whether a locking script is locker"
      },
      "isMinter(address)": {
        "notice": "Check if an account is minter    "
      },
      "liquidateLocker(address,uint256)": {
        "notice": "Liquidates the locker whose collateral is unhealthy"
      },
      "mint(bytes,address,uint256)": {
        "notice": "Mint teleBTC for an account"
      },
      "ownerRemoveLocker(address)": {
        "notice": "Removes a locker from lockers list"
      },
      "pauseLocker()": {
        "notice": "Pause the locker, so only the functions can be called which are whenPaused"
      },
      "removeCollateral(uint256)": {
        "notice": "Decreases TNT collateral of the locker"
      },
      "requestToBecomeLocker(bytes,uint256,uint256,uint8,bytes)": {
        "notice": "Adds user to candidates list"
      },
      "requestToRemoveLocker()": {
        "notice": "Requests to remove a locker from lockers list"
      },
      "revokeRequest()": {
        "notice": "Removes a candidate from candidates list"
      },
      "selfRemoveLocker()": {
        "notice": "Removes a locker from lockers list"
      },
      "setCCBurnRouter(address)": {
        "notice": "Changes cc burn router contract"
      },
      "setCollateralRatio(uint256)": {
        "notice": "Changes collateral ratio"
      },
      "setExchangeConnector(address)": {
        "notice": "Changes exchange connector contract address"
      },
      "setLiquidationRatio(uint256)": {
        "notice": "Changes liquidation ratio"
      },
      "setLockerPercentageFee(uint256)": {
        "notice": "Changes percentage fee of locker"
      },
      "setMinLeavingIntervalTime(uint256)": {
        "notice": "Changes minimum leaving interval"
      },
      "setMinRequiredTDTLockedAmount(uint256)": {
        "notice": "Changes the required TDT token bond amount to become locker"
      },
      "setMinRequiredTNTLockedAmount(uint256)": {
        "notice": "Changes the required native token bond amount to become locker"
      },
      "setPriceOracle(address)": {
        "notice": "Changes the price oracle"
      },
      "setPriceWithDiscountRatio(uint256)": {
        "notice": "Changes price with discount ratio"
      },
      "setTeleBTC(address)": {
        "notice": "Changes wrapped token contract address"
      },
      "setTeleportDAOToken(address)": {
        "notice": "Changes teleportDAO token in lockers "
      },
      "slashIdleLocker(address,uint256,address,uint256,address)": {
        "notice": "Slashes lockers for not executing a cc burn req"
      },
      "slashThiefLocker(address,uint256,address,uint256)": {
        "notice": "Slashes lockers for moving BTC without a good reason"
      },
      "unPauseLocker()": {
        "notice": "Un-pause the locker, so only the functions can be called which are whenNotPaused"
      }
    },
    "version": 1
  },
  "storageLayout": {
    "storage": [
      {
        "astId": 12311,
        "contract": "contracts/lockers/LockersLogic.sol:LockersLogic",
        "label": "TeleportDAOToken",
        "offset": 0,
        "slot": "0",
        "type": "t_address"
      },
      {
        "astId": 12314,
        "contract": "contracts/lockers/LockersLogic.sol:LockersLogic",
        "label": "teleBTC",
        "offset": 0,
        "slot": "1",
        "type": "t_address"
      },
      {
        "astId": 12317,
        "contract": "contracts/lockers/LockersLogic.sol:LockersLogic",
        "label": "ccBurnRouter",
        "offset": 0,
        "slot": "2",
        "type": "t_address"
      },
      {
        "astId": 12320,
        "contract": "contracts/lockers/LockersLogic.sol:LockersLogic",
        "label": "exchangeConnector",
        "offset": 0,
        "slot": "3",
        "type": "t_address"
      },
      {
        "astId": 12323,
        "contract": "contracts/lockers/LockersLogic.sol:LockersLogic",
        "label": "priceOracle",
        "offset": 0,
        "slot": "4",
        "type": "t_address"
      },
      {
        "astId": 12326,
        "contract": "contracts/lockers/LockersLogic.sol:LockersLogic",
        "label": "minRequiredTDTLockedAmount",
        "offset": 0,
        "slot": "5",
        "type": "t_uint256"
      },
      {
        "astId": 12329,
        "contract": "contracts/lockers/LockersLogic.sol:LockersLogic",
        "label": "minRequiredTNTLockedAmount",
        "offset": 0,
        "slot": "6",
        "type": "t_uint256"
      },
      {
        "astId": 12332,
        "contract": "contracts/lockers/LockersLogic.sol:LockersLogic",
        "label": "lockerPercentageFee",
        "offset": 0,
        "slot": "7",
        "type": "t_uint256"
      },
      {
        "astId": 12335,
        "contract": "contracts/lockers/LockersLogic.sol:LockersLogic",
        "label": "collateralRatio",
        "offset": 0,
        "slot": "8",
        "type": "t_uint256"
      },
      {
        "astId": 12338,
        "contract": "contracts/lockers/LockersLogic.sol:LockersLogic",
        "label": "liquidationRatio",
        "offset": 0,
        "slot": "9",
        "type": "t_uint256"
      },
      {
        "astId": 12341,
        "contract": "contracts/lockers/LockersLogic.sol:LockersLogic",
        "label": "priceWithDiscountRatio",
        "offset": 0,
        "slot": "10",
        "type": "t_uint256"
      },
      {
        "astId": 12344,
        "contract": "contracts/lockers/LockersLogic.sol:LockersLogic",
        "label": "totalNumberOfCandidates",
        "offset": 0,
        "slot": "11",
        "type": "t_uint256"
      },
      {
        "astId": 12347,
        "contract": "contracts/lockers/LockersLogic.sol:LockersLogic",
        "label": "totalNumberOfLockers",
        "offset": 0,
        "slot": "12",
        "type": "t_uint256"
      },
      {
        "astId": 12350,
        "contract": "contracts/lockers/LockersLogic.sol:LockersLogic",
        "label": "minLeavingIntervalTime",
        "offset": 0,
        "slot": "13",
        "type": "t_uint256"
      },
      {
        "astId": 12355,
        "contract": "contracts/lockers/LockersLogic.sol:LockersLogic",
        "label": "lockersMapping",
        "offset": 0,
        "slot": "14",
        "type": "t_mapping(t_address,t_struct(locker)23750_storage)"
      },
      {
        "astId": 12359,
        "contract": "contracts/lockers/LockersLogic.sol:LockersLogic",
        "label": "lockerLeavingRequests",
        "offset": 0,
        "slot": "15",
        "type": "t_mapping(t_address,t_bool)"
      },
      {
        "astId": 12363,
        "contract": "contracts/lockers/LockersLogic.sol:LockersLogic",
        "label": "lockerLeavingRequestsTimestamp",
        "offset": 0,
        "slot": "16",
        "type": "t_mapping(t_address,t_uint256)"
      },
      {
        "astId": 12367,
        "contract": "contracts/lockers/LockersLogic.sol:LockersLogic",
        "label": "lockerLeavingAcceptance",
        "offset": 0,
        "slot": "17",
        "type": "t_mapping(t_address,t_bool)"
      },
      {
        "astId": 12371,
        "contract": "contracts/lockers/LockersLogic.sol:LockersLogic",
        "label": "lockerTargetAddress",
        "offset": 0,
        "slot": "18",
        "type": "t_mapping(t_bytes_memory_ptr,t_address)"
      },
      {
        "astId": 12375,
        "contract": "contracts/lockers/LockersLogic.sol:LockersLogic",
        "label": "minters",
        "offset": 0,
        "slot": "19",
        "type": "t_mapping(t_address,t_bool)"
      },
      {
        "astId": 12379,
        "contract": "contracts/lockers/LockersLogic.sol:LockersLogic",
        "label": "burners",
        "offset": 0,
        "slot": "20",
        "type": "t_mapping(t_address,t_bool)"
      },
      {
        "astId": 12382,
        "contract": "contracts/lockers/LockersLogic.sol:LockersLogic",
        "label": "libConstants",
        "offset": 0,
        "slot": "21",
        "type": "t_struct(lockersLibConstants)23763_storage"
      },
      {
        "astId": 12385,
        "contract": "contracts/lockers/LockersLogic.sol:LockersLogic",
        "label": "libParams",
        "offset": 0,
        "slot": "27",
        "type": "t_struct(lockersLibParam)23788_storage"
      },
      {
        "astId": 184,
        "contract": "contracts/lockers/LockersLogic.sol:LockersLogic",
        "label": "_initialized",
        "offset": 0,
        "slot": "39",
        "type": "t_uint8"
      },
      {
        "astId": 187,
        "contract": "contracts/lockers/LockersLogic.sol:LockersLogic",
        "label": "_initializing",
        "offset": 1,
        "slot": "39",
        "type": "t_bool"
      },
      {
        "astId": 798,
        "contract": "contracts/lockers/LockersLogic.sol:LockersLogic",
        "label": "__gap",
        "offset": 0,
        "slot": "40",
        "type": "t_array(t_uint256)50_storage"
      },
      {
        "astId": 56,
        "contract": "contracts/lockers/LockersLogic.sol:LockersLogic",
        "label": "_owner",
        "offset": 0,
        "slot": "90",
        "type": "t_address"
      },
      {
        "astId": 176,
        "contract": "contracts/lockers/LockersLogic.sol:LockersLogic",
        "label": "__gap",
        "offset": 0,
        "slot": "91",
        "type": "t_array(t_uint256)49_storage"
      },
      {
        "astId": 469,
        "contract": "contracts/lockers/LockersLogic.sol:LockersLogic",
        "label": "_status",
        "offset": 0,
        "slot": "140",
        "type": "t_uint256"
      },
      {
        "astId": 513,
        "contract": "contracts/lockers/LockersLogic.sol:LockersLogic",
        "label": "__gap",
        "offset": 0,
        "slot": "141",
        "type": "t_array(t_uint256)49_storage"
      },
      {
        "astId": 349,
        "contract": "contracts/lockers/LockersLogic.sol:LockersLogic",
        "label": "_paused",
        "offset": 0,
        "slot": "190",
        "type": "t_bool"
      },
      {
        "astId": 454,
        "contract": "contracts/lockers/LockersLogic.sol:LockersLogic",
        "label": "__gap",
        "offset": 0,
        "slot": "191",
        "type": "t_array(t_uint256)49_storage"
      }
    ],
    "types": {
      "t_address": {
        "encoding": "inplace",
        "label": "address",
        "numberOfBytes": "20"
      },
      "t_array(t_uint256)49_storage": {
        "base": "t_uint256",
        "encoding": "inplace",
        "label": "uint256[49]",
        "numberOfBytes": "1568"
      },
      "t_array(t_uint256)50_storage": {
        "base": "t_uint256",
        "encoding": "inplace",
        "label": "uint256[50]",
        "numberOfBytes": "1600"
      },
      "t_bool": {
        "encoding": "inplace",
        "label": "bool",
        "numberOfBytes": "1"
      },
      "t_bytes_memory_ptr": {
        "encoding": "bytes",
        "label": "bytes",
        "numberOfBytes": "32"
      },
      "t_bytes_storage": {
        "encoding": "bytes",
        "label": "bytes",
        "numberOfBytes": "32"
      },
      "t_enum(ScriptTypes)23797": {
        "encoding": "inplace",
        "label": "enum ScriptTypes",
        "numberOfBytes": "1"
      },
      "t_mapping(t_address,t_bool)": {
        "encoding": "mapping",
        "key": "t_address",
        "label": "mapping(address => bool)",
        "numberOfBytes": "32",
        "value": "t_bool"
      },
      "t_mapping(t_address,t_struct(locker)23750_storage)": {
        "encoding": "mapping",
        "key": "t_address",
        "label": "mapping(address => struct DataTypes.locker)",
        "numberOfBytes": "32",
        "value": "t_struct(locker)23750_storage"
      },
      "t_mapping(t_address,t_uint256)": {
        "encoding": "mapping",
        "key": "t_address",
        "label": "mapping(address => uint256)",
        "numberOfBytes": "32",
        "value": "t_uint256"
      },
      "t_mapping(t_bytes_memory_ptr,t_address)": {
        "encoding": "mapping",
        "key": "t_bytes_memory_ptr",
        "label": "mapping(bytes => address)",
        "numberOfBytes": "32",
        "value": "t_address"
      },
      "t_struct(locker)23750_storage": {
        "encoding": "inplace",
        "label": "struct DataTypes.locker",
        "members": [
          {
            "astId": 23726,
            "contract": "contracts/lockers/LockersLogic.sol:LockersLogic",
            "label": "lockerLockingScript",
            "offset": 0,
            "slot": "0",
            "type": "t_bytes_storage"
          },
          {
            "astId": 23729,
            "contract": "contracts/lockers/LockersLogic.sol:LockersLogic",
            "label": "lockerRescueType",
            "offset": 0,
            "slot": "1",
            "type": "t_enum(ScriptTypes)23797"
          },
          {
            "astId": 23731,
            "contract": "contracts/lockers/LockersLogic.sol:LockersLogic",
            "label": "lockerRescueScript",
            "offset": 0,
            "slot": "2",
            "type": "t_bytes_storage"
          },
          {
            "astId": 23733,
            "contract": "contracts/lockers/LockersLogic.sol:LockersLogic",
            "label": "TDTLockedAmount",
            "offset": 0,
            "slot": "3",
            "type": "t_uint256"
          },
          {
            "astId": 23735,
            "contract": "contracts/lockers/LockersLogic.sol:LockersLogic",
            "label": "nativeTokenLockedAmount",
            "offset": 0,
            "slot": "4",
            "type": "t_uint256"
          },
          {
            "astId": 23737,
            "contract": "contracts/lockers/LockersLogic.sol:LockersLogic",
            "label": "netMinted",
            "offset": 0,
            "slot": "5",
            "type": "t_uint256"
          },
          {
            "astId": 23739,
            "contract": "contracts/lockers/LockersLogic.sol:LockersLogic",
            "label": "slashingTeleBTCAmount",
            "offset": 0,
            "slot": "6",
            "type": "t_uint256"
          },
          {
            "astId": 23741,
            "contract": "contracts/lockers/LockersLogic.sol:LockersLogic",
            "label": "reservedNativeTokenForSlash",
            "offset": 0,
            "slot": "7",
            "type": "t_uint256"
          },
          {
            "astId": 23743,
            "contract": "contracts/lockers/LockersLogic.sol:LockersLogic",
            "label": "isLocker",
            "offset": 0,
            "slot": "8",
            "type": "t_bool"
          },
          {
            "astId": 23745,
            "contract": "contracts/lockers/LockersLogic.sol:LockersLogic",
            "label": "isCandidate",
            "offset": 1,
            "slot": "8",
            "type": "t_bool"
          },
          {
            "astId": 23747,
            "contract": "contracts/lockers/LockersLogic.sol:LockersLogic",
            "label": "isScriptHash",
            "offset": 2,
            "slot": "8",
            "type": "t_bool"
          },
          {
            "astId": 23749,
            "contract": "contracts/lockers/LockersLogic.sol:LockersLogic",
            "label": "isActive",
            "offset": 3,
            "slot": "8",
            "type": "t_bool"
          }
        ],
        "numberOfBytes": "288"
      },
      "t_struct(lockersLibConstants)23763_storage": {
        "encoding": "inplace",
        "label": "struct DataTypes.lockersLibConstants",
        "members": [
          {
            "astId": 23752,
            "contract": "contracts/lockers/LockersLogic.sol:LockersLogic",
            "label": "OneHundredPercent",
            "offset": 0,
            "slot": "0",
            "type": "t_uint256"
          },
          {
            "astId": 23754,
            "contract": "contracts/lockers/LockersLogic.sol:LockersLogic",
            "label": "HealthFactor",
            "offset": 0,
            "slot": "1",
            "type": "t_uint256"
          },
          {
            "astId": 23756,
            "contract": "contracts/lockers/LockersLogic.sol:LockersLogic",
            "label": "UpperHealthFactor",
            "offset": 0,
            "slot": "2",
            "type": "t_uint256"
          },
          {
            "astId": 23758,
            "contract": "contracts/lockers/LockersLogic.sol:LockersLogic",
            "label": "MaxLockerFee",
            "offset": 0,
            "slot": "3",
            "type": "t_uint256"
          },
          {
            "astId": 23760,
            "contract": "contracts/lockers/LockersLogic.sol:LockersLogic",
            "label": "NativeTokenDecimal",
            "offset": 0,
            "slot": "4",
            "type": "t_uint256"
          },
          {
            "astId": 23762,
            "contract": "contracts/lockers/LockersLogic.sol:LockersLogic",
            "label": "NativeToken",
            "offset": 0,
            "slot": "5",
            "type": "t_address"
          }
        ],
        "numberOfBytes": "192"
      },
      "t_struct(lockersLibParam)23788_storage": {
        "encoding": "inplace",
        "label": "struct DataTypes.lockersLibParam",
        "members": [
          {
            "astId": 23765,
            "contract": "contracts/lockers/LockersLogic.sol:LockersLogic",
            "label": "teleportDAOToken",
            "offset": 0,
            "slot": "0",
            "type": "t_address"
          },
          {
            "astId": 23767,
            "contract": "contracts/lockers/LockersLogic.sol:LockersLogic",
            "label": "teleBTC",
            "offset": 0,
            "slot": "1",
            "type": "t_address"
          },
          {
            "astId": 23769,
            "contract": "contracts/lockers/LockersLogic.sol:LockersLogic",
            "label": "ccBurnRouter",
            "offset": 0,
            "slot": "2",
            "type": "t_address"
          },
          {
            "astId": 23771,
            "contract": "contracts/lockers/LockersLogic.sol:LockersLogic",
            "label": "exchangeConnector",
            "offset": 0,
            "slot": "3",
            "type": "t_address"
          },
          {
            "astId": 23773,
            "contract": "contracts/lockers/LockersLogic.sol:LockersLogic",
            "label": "priceOracle",
            "offset": 0,
            "slot": "4",
            "type": "t_address"
          },
          {
            "astId": 23775,
            "contract": "contracts/lockers/LockersLogic.sol:LockersLogic",
            "label": "minRequiredTDTLockedAmount",
            "offset": 0,
            "slot": "5",
            "type": "t_uint256"
          },
          {
            "astId": 23777,
            "contract": "contracts/lockers/LockersLogic.sol:LockersLogic",
            "label": "minRequiredTNTLockedAmount",
            "offset": 0,
            "slot": "6",
            "type": "t_uint256"
          },
          {
            "astId": 23779,
            "contract": "contracts/lockers/LockersLogic.sol:LockersLogic",
            "label": "lockerPercentageFee",
            "offset": 0,
            "slot": "7",
            "type": "t_uint256"
          },
          {
            "astId": 23781,
            "contract": "contracts/lockers/LockersLogic.sol:LockersLogic",
            "label": "collateralRatio",
            "offset": 0,
            "slot": "8",
            "type": "t_uint256"
          },
          {
            "astId": 23783,
            "contract": "contracts/lockers/LockersLogic.sol:LockersLogic",
            "label": "liquidationRatio",
            "offset": 0,
            "slot": "9",
            "type": "t_uint256"
          },
          {
            "astId": 23785,
            "contract": "contracts/lockers/LockersLogic.sol:LockersLogic",
            "label": "priceWithDiscountRatio",
            "offset": 0,
            "slot": "10",
            "type": "t_uint256"
          },
          {
            "astId": 23787,
            "contract": "contracts/lockers/LockersLogic.sol:LockersLogic",
            "label": "minLeavingIntervalTime",
            "offset": 0,
            "slot": "11",
            "type": "t_uint256"
          }
        ],
        "numberOfBytes": "384"
      },
      "t_uint256": {
        "encoding": "inplace",
        "label": "uint256",
        "numberOfBytes": "32"
      },
      "t_uint8": {
        "encoding": "inplace",
        "label": "uint8",
        "numberOfBytes": "1"
      }
    }
  }
}