{
  "address": "0x013F6D7B4C6aa1A0573C7151D397695376676a29",
  "abi": [
    {
      "anonymous": false,
      "inputs": [
        {
          "indexed": false,
          "internalType": "address",
          "name": "oldAcross",
          "type": "address"
        },
        {
          "indexed": false,
          "internalType": "address",
          "name": "newAcross",
          "type": "address"
        }
      ],
      "name": "AcrossUpdated",
      "type": "event"
    },
    {
      "anonymous": false,
      "inputs": [
        {
          "indexed": false,
          "internalType": "address",
          "name": "oldBurnRouter",
          "type": "address"
        },
        {
          "indexed": false,
          "internalType": "address",
          "name": "newBurnRouter",
          "type": "address"
        }
      ],
      "name": "BurnRouterUpdated",
      "type": "event"
    },
    {
      "anonymous": false,
      "inputs": [
        {
          "indexed": false,
          "internalType": "address",
          "name": "oldEthConnector",
          "type": "address"
        },
        {
          "indexed": false,
          "internalType": "address",
          "name": "newEthConnector",
          "type": "address"
        }
      ],
      "name": "EthConnectorUpdated",
      "type": "event"
    },
    {
      "anonymous": false,
      "inputs": [
        {
          "indexed": false,
          "internalType": "address",
          "name": "exchangeConnector",
          "type": "address"
        },
        {
          "indexed": false,
          "internalType": "address",
          "name": "inputToken",
          "type": "address"
        },
        {
          "indexed": false,
          "internalType": "uint256",
          "name": "inputAmount",
          "type": "uint256"
        },
        {
          "indexed": true,
          "internalType": "address",
          "name": "userTargetAddress",
          "type": "address"
        },
        {
          "indexed": false,
          "internalType": "bytes",
          "name": "userScript",
          "type": "bytes"
        },
        {
          "indexed": false,
          "internalType": "enum ScriptTypes",
          "name": "scriptType",
          "type": "uint8"
        },
        {
          "indexed": false,
          "internalType": "address[]",
          "name": "path",
          "type": "address[]"
        }
      ],
      "name": "FailedBurn",
      "type": "event"
    },
    {
      "anonymous": false,
      "inputs": [
        {
          "indexed": false,
          "internalType": "uint8",
          "name": "version",
          "type": "uint8"
        }
      ],
      "name": "Initialized",
      "type": "event"
    },
    {
      "anonymous": false,
      "inputs": [
        {
          "indexed": false,
          "internalType": "address",
          "name": "oldLockersProxy",
          "type": "address"
        },
        {
          "indexed": false,
          "internalType": "address",
          "name": "newLockersProxy",
          "type": "address"
        }
      ],
      "name": "LockersProxyUpdated",
      "type": "event"
    },
    {
      "anonymous": false,
      "inputs": [
        {
          "indexed": false,
          "internalType": "uint256",
          "name": "uniqueCounter",
          "type": "uint256"
        },
        {
          "indexed": false,
          "internalType": "string",
          "name": "functionName",
          "type": "string"
        },
        {
          "indexed": false,
          "internalType": "bytes",
          "name": "data",
          "type": "bytes"
        }
      ],
      "name": "MsgReceived",
      "type": "event"
    },
    {
      "anonymous": false,
      "inputs": [
        {
          "indexed": false,
          "internalType": "address",
          "name": "exchangeConnector",
          "type": "address"
        },
        {
          "indexed": false,
          "internalType": "address",
          "name": "inputToken",
          "type": "address"
        },
        {
          "indexed": false,
          "internalType": "uint256",
          "name": "inputAmount",
          "type": "uint256"
        },
        {
          "indexed": true,
          "internalType": "address",
          "name": "userTargetAddress",
          "type": "address"
        },
        {
          "indexed": false,
          "internalType": "bytes",
          "name": "userScript",
          "type": "bytes"
        },
        {
          "indexed": false,
          "internalType": "enum ScriptTypes",
          "name": "scriptType",
          "type": "uint8"
        },
        {
          "indexed": false,
          "internalType": "address",
          "name": "lockerTargetAddress",
          "type": "address"
        },
        {
          "indexed": false,
          "internalType": "uint256",
          "name": "requestIdOfLocker",
          "type": "uint256"
        },
        {
          "indexed": false,
          "internalType": "address[]",
          "name": "path",
          "type": "address[]"
        }
      ],
      "name": "NewBurn",
      "type": "event"
    },
    {
      "anonymous": false,
      "inputs": [
        {
          "indexed": true,
          "internalType": "address",
          "name": "previousOwner",
          "type": "address"
        },
        {
          "indexed": true,
          "internalType": "address",
          "name": "newOwner",
          "type": "address"
        }
      ],
      "name": "OwnershipTransferred",
      "type": "event"
    },
    {
      "anonymous": false,
      "inputs": [
        {
          "indexed": false,
          "internalType": "address",
          "name": "account",
          "type": "address"
        }
      ],
      "name": "Paused",
      "type": "event"
    },
    {
      "anonymous": false,
      "inputs": [
        {
          "indexed": false,
          "internalType": "address",
          "name": "account",
          "type": "address"
        }
      ],
      "name": "Unpaused",
      "type": "event"
    },
    {
      "inputs": [],
      "name": "ETH_ADDR",
      "outputs": [
        {
          "internalType": "address",
          "name": "",
          "type": "address"
        }
      ],
      "stateMutability": "view",
      "type": "function"
    },
    {
      "inputs": [],
      "name": "across",
      "outputs": [
        {
          "internalType": "address",
          "name": "",
          "type": "address"
        }
      ],
      "stateMutability": "view",
      "type": "function"
    },
    {
      "inputs": [],
      "name": "acrossV3",
      "outputs": [
        {
          "internalType": "address",
          "name": "",
          "type": "address"
        }
      ],
      "stateMutability": "view",
      "type": "function"
    },
    {
      "inputs": [],
      "name": "burnRouterProxy",
      "outputs": [
        {
          "internalType": "address",
          "name": "",
          "type": "address"
        }
      ],
      "stateMutability": "view",
      "type": "function"
    },
    {
      "inputs": [
        {
          "internalType": "address",
          "name": "_token",
          "type": "address"
        },
        {
          "internalType": "address",
          "name": "_to",
          "type": "address"
        },
        {
          "internalType": "uint256",
          "name": "_amount",
          "type": "uint256"
        }
      ],
      "name": "emergencyWithdraw",
      "outputs": [],
      "stateMutability": "nonpayable",
      "type": "function"
    },
    {
      "inputs": [],
      "name": "ethConnectorProxy",
      "outputs": [
        {
          "internalType": "address",
          "name": "",
          "type": "address"
        }
      ],
      "stateMutability": "view",
      "type": "function"
    },
    {
      "inputs": [
        {
          "internalType": "address",
          "name": "",
          "type": "address"
        },
        {
          "internalType": "address",
          "name": "",
          "type": "address"
        }
      ],
      "name": "failedReqs",
      "outputs": [
        {
          "internalType": "uint256",
          "name": "",
          "type": "uint256"
        }
      ],
      "stateMutability": "view",
      "type": "function"
    },
    {
      "inputs": [
        {
          "internalType": "address",
          "name": "_tokenSent",
          "type": "address"
        },
        {
          "internalType": "uint256",
          "name": "_amount",
          "type": "uint256"
        },
        {
          "internalType": "bool",
          "name": "_fillCompleted",
          "type": "bool"
        },
        {
          "internalType": "address",
          "name": "_relayer",
          "type": "address"
        },
        {
          "internalType": "bytes",
          "name": "_message",
          "type": "bytes"
        }
      ],
      "name": "handleAcrossMessage",
      "outputs": [],
      "stateMutability": "nonpayable",
      "type": "function"
    },
    {
      "inputs": [
        {
          "internalType": "address",
          "name": "_tokenSent",
          "type": "address"
        },
        {
          "internalType": "uint256",
          "name": "_amount",
          "type": "uint256"
        },
        {
          "internalType": "address",
          "name": "_relayer",
          "type": "address"
        },
        {
          "internalType": "bytes",
          "name": "_message",
          "type": "bytes"
        }
      ],
      "name": "handleV3AcrossMessage",
      "outputs": [],
      "stateMutability": "nonpayable",
      "type": "function"
    },
    {
      "inputs": [
        {
          "internalType": "address",
          "name": "_lockersProxy",
          "type": "address"
        },
        {
          "internalType": "address",
          "name": "_burnRouterProxy",
          "type": "address"
        },
        {
          "internalType": "address",
          "name": "_across",
          "type": "address"
        },
        {
          "internalType": "address",
          "name": "_acrossV3",
          "type": "address"
        },
        {
          "internalType": "uint256",
          "name": "_sourceChainId",
          "type": "uint256"
        }
      ],
      "name": "initialize",
      "outputs": [],
      "stateMutability": "nonpayable",
      "type": "function"
    },
    {
      "inputs": [],
      "name": "lockersProxy",
      "outputs": [
        {
          "internalType": "address",
          "name": "",
          "type": "address"
        }
      ],
      "stateMutability": "view",
      "type": "function"
    },
    {
      "inputs": [],
      "name": "owner",
      "outputs": [
        {
          "internalType": "address",
          "name": "",
          "type": "address"
        }
      ],
      "stateMutability": "view",
      "type": "function"
    },
    {
      "inputs": [],
      "name": "paused",
      "outputs": [
        {
          "internalType": "bool",
          "name": "",
          "type": "bool"
        }
      ],
      "stateMutability": "view",
      "type": "function"
    },
    {
      "inputs": [],
      "name": "renounceOwnership",
      "outputs": [],
      "stateMutability": "nonpayable",
      "type": "function"
    },
    {
      "inputs": [
        {
          "internalType": "bytes",
          "name": "_message",
          "type": "bytes"
        },
        {
          "internalType": "uint8",
          "name": "_v",
          "type": "uint8"
        },
        {
          "internalType": "bytes32",
          "name": "_r",
          "type": "bytes32"
        },
        {
          "internalType": "bytes32",
          "name": "_s",
          "type": "bytes32"
        }
      ],
      "name": "retrySwapAndUnwrap",
      "outputs": [],
      "stateMutability": "nonpayable",
      "type": "function"
    },
    {
      "inputs": [
        {
          "internalType": "address",
          "name": "_across",
          "type": "address"
        }
      ],
      "name": "setAcross",
      "outputs": [],
      "stateMutability": "nonpayable",
      "type": "function"
    },
    {
      "inputs": [
        {
          "internalType": "address",
          "name": "_acrossV3",
          "type": "address"
        }
      ],
      "name": "setAcrossV3",
      "outputs": [],
      "stateMutability": "nonpayable",
      "type": "function"
    },
    {
      "inputs": [
        {
          "internalType": "address",
          "name": "_burnRouterProxy",
          "type": "address"
        }
      ],
      "name": "setBurnRouterProxy",
      "outputs": [],
      "stateMutability": "nonpayable",
      "type": "function"
    },
    {
      "inputs": [
        {
          "internalType": "address",
          "name": "_ethConnectorProxy",
          "type": "address"
        }
      ],
      "name": "setEthConnectorProxy",
      "outputs": [],
      "stateMutability": "nonpayable",
      "type": "function"
    },
    {
      "inputs": [
        {
          "internalType": "address",
          "name": "_lockersProxy",
          "type": "address"
        }
      ],
      "name": "setLockersProxy",
      "outputs": [],
      "stateMutability": "nonpayable",
      "type": "function"
    },
    {
      "inputs": [],
      "name": "sourceChainId",
      "outputs": [
        {
          "internalType": "uint256",
          "name": "",
          "type": "uint256"
        }
      ],
      "stateMutability": "view",
      "type": "function"
    },
    {
      "inputs": [
        {
          "internalType": "address",
          "name": "newOwner",
          "type": "address"
        }
      ],
      "name": "transferOwnership",
      "outputs": [],
      "stateMutability": "nonpayable",
      "type": "function"
    },
    {
      "inputs": [
        {
          "internalType": "bytes",
          "name": "_message",
          "type": "bytes"
        },
        {
          "internalType": "uint8",
          "name": "_v",
          "type": "uint8"
        },
        {
          "internalType": "bytes32",
          "name": "_r",
          "type": "bytes32"
        },
        {
          "internalType": "bytes32",
          "name": "_s",
          "type": "bytes32"
        }
      ],
      "name": "withdrawFundsToEth",
      "outputs": [],
      "stateMutability": "nonpayable",
      "type": "function"
    }
  ],
  "transactionHash": "0x71131aabfe8b2bcfea02c1b1024c6935c5ffdeb69b6fe36ff28500475f38506d",
  "args": [],
  "numDeployments": 1,
  "solcInputHash": "b721f783c7cfe9df8d196e56c18fd3f0",
  "bytecode": "0x608060405234801561001057600080fd5b5061260f806100206000396000f3fe608060405234801561001057600080fd5b506004361061018d5760003560e01c80637753f47b116100e3578063c67684eb1161008c578063f2fde38b11610066578063f2fde38b14610347578063f374be5f1461035a578063f7013ef61461036d5761018d565b8063c67684eb1461030e578063cf25685414610321578063e63ea408146103345761018d565b80638da5cb5b116100bd5780638da5cb5b146102d75780639d28a644146102e8578063b4af0a27146102fb5761018d565b80637753f47b1461027e5780637c5a4ccb1461029957806384308271146102c45761018d565b80633f8c6ae0116101455780635c975abb1161011f5780635c975abb1461024d57806361be10f214610263578063715018a6146102765761018d565b80633f8c6ae0146102145780634d6e8f9d14610227578063598418881461023a5761018d565b8063292c1d9211610176578063292c1d92146101c3578063296079f1146101ee5780633a5be8cb146102015761018d565b80630ea1f938146101925780631544298e146101a7575b600080fd5b6101a56101a0366004611f9d565b610380565b005b6101b060055481565b6040519081526020015b60405180910390f35b6003546101d6906001600160a01b031681565b6040516001600160a01b0390911681526020016101ba565b6000546101d6906001600160a01b031681565b6101a561020f366004611f33565b6104c5565b6001546101d6906001600160a01b031681565b6101a5610235366004611d07565b6105de565b6101a5610248366004611d07565b610608565b609e5460ff1660405190151581526020016101ba565b6101a5610271366004611d07565b610632565b6101a561065c565b6101d673eeeeeeeeeeeeeeeeeeeeeeeeeeeeeeeeeeeeeeee81565b6101b06102a7366004611e58565b600660209081526000928352604080842090915290825290205481565b6101a56102d2366004611d07565b610670565b603a546001600160a01b03166101d6565b6101a56102f6366004611d07565b61069a565b6002546101d6906001600160a01b031681565b6004546101d6906001600160a01b031681565b6101a561032f366004612036565b6106c4565b6101a5610342366004611ef3565b610b41565b6101a5610355366004611d07565b610c64565b6101a5610368366004612036565b610cf4565b6101a561037b366004611e90565b610e0e565b610388610f99565b6003546001600160a01b0316331461040d5760405162461bcd60e51b815260206004820152602160248201527f506f6c79676f6e436f6e6e6563746f724c6f6769633a206e6f74206163726f7360448201527f730000000000000000000000000000000000000000000000000000000000000060648201526084015b60405180910390fd5b600080828060200190518101906104249190612098565b915091507ff457ed8068d0e1536c9c3ee16b7aa6f7f3558fd38686e45061863a066bf8aa0d81838560405161045b939291906124a1565b60405180910390a16104a2826040518060400160405280601481526020017f65786368616e6765466f724274634163726f7373000000000000000000000000815250610ff3565b156104b2576104b286848961104c565b50506104be6001606c55565b5050505050565b6104cd610f99565b6004546001600160a01b031633146105275760405162461bcd60e51b815260206004820181905260248201527f506f6c79436f6e6e6563746f724c6f6769633a206e6f74206163726f737356336044820152606401610404565b6000808280602001905181019061053e9190612098565b915091507ff457ed8068d0e1536c9c3ee16b7aa6f7f3558fd38686e45061863a066bf8aa0d818385604051610575939291906124a1565b60405180910390a16105bc826040518060400160405280601481526020017f65786368616e6765466f724274634163726f7373000000000000000000000000815250610ff3565b156105cc576105cc85848861104c565b50506105d86001606c55565b50505050565b6105e66115f0565b600180546001600160a01b0319166001600160a01b0392909216919091179055565b6106106115f0565b600080546001600160a01b0319166001600160a01b0392909216919091179055565b61063a6115f0565b600380546001600160a01b0319166001600160a01b0392909216919091179055565b6106646115f0565b61066e600061164a565b565b6106786115f0565b600480546001600160a01b0319166001600160a01b0392909216919091179055565b6106a26115f0565b600280546001600160a01b0319166001600160a01b0392909216919091179055565b6106cc610f99565b6000806000806000806000808b8060200190518101906106ec9190611d46565b97509750975097509750975097509750600061070a8d8c8c8f61169c565b905060008811801561074157506001600160a01b038082166000908152600660209081526040808320938d16835292905220548811155b6107985760405162461bcd60e51b815260206004820152602260248201527f506f6c79676f6e436f6e6e6563746f724c6f6769633a206c6f772062616c616e604482015261636560f01b6064820152608401610404565b6001600160a01b038082166000908152600660209081526040808320938d16835292905290812080548a92906107cf908490612547565b9091555050604080516002808252606082018352600092602083019080368337019050509050888160008151811061081757634e487b7160e01b600052603260045260246000fd5b602002602001018181525050868160018151811061084557634e487b7160e01b600052603260045260246000fd5b6020026020010181815250508260008151811061087257634e487b7160e01b600052603260045260246000fd5b602090810291909101015160015460405163095ea7b360e01b81526001600160a01b039182166004820152602481018c905291169063095ea7b390604401602060405180830381600087803b1580156108ca57600080fd5b505af11580156108de573d6000803e3d6000fd5b505050506040513d601f19601f82011682018060405250810190610902919061201a565b50600180546040516344dd6aa560e01b81526001600160a01b03909116916344dd6aa591610944918c91869190899042908e908e908e906000906004016123fc565b602060405180830381600087803b15801561095e57600080fd5b505af1158015610972573d6000803e3d6000fd5b505050506040513d601f19601f8201168201806040525081019061099691906121d6565b50600080546040517fc4d10b6a0000000000000000000000000000000000000000000000000000000081526001600160a01b039091169063c4d10b6a906109e190889060040161248e565b60206040518083038186803b1580156109f957600080fd5b505afa158015610a0d573d6000803e3d6000fd5b505050506040513d601f19601f82011682018060405250810190610a319190611d2a565b9050826001600160a01b03167f8fa5daae7a5c2fc114239650d841eda356c27403e56f9a5ca6f0e3f689286d758a8d8d8b8b8760018060009054906101000a90046001600160a01b03166001600160a01b031663930a60e88b6040518263ffffffff1660e01b8152600401610ab591906001600160a01b0391909116815260200190565b60206040518083038186803b158015610acd57600080fd5b505afa158015610ae1573d6000803e3d6000fd5b505050506040513d601f19601f82011682018060405250810190610b0591906121d6565b610b0f9190612547565b8c604051610b249897969594939291906122ca565b60405180910390a250505050505050505050506105d86001606c55565b610b496115f0565b6001600160a01b03831673eeeeeeeeeeeeeeeeeeeeeeeeeeeeeeeeeeeeeeee1415610bc4576040516001600160a01b038316908290600081818185875af1925050503d8060008114610bb7576040519150601f19603f3d011682016040523d82523d6000602084013e610bbc565b606091505b505050610c5f565b6040517fa9059cbb0000000000000000000000000000000000000000000000000000000081526001600160a01b0383811660048301526024820183905284169063a9059cbb90604401602060405180830381600087803b158015610c2757600080fd5b505af1158015610c3b573d6000803e3d6000fd5b505050506040513d601f19601f820116820180604052508101906105d8919061201a565b505050565b610c6c6115f0565b6001600160a01b038116610ce85760405162461bcd60e51b815260206004820152602660248201527f4f776e61626c653a206e6577206f776e657220697320746865207a65726f206160448201527f64647265737300000000000000000000000000000000000000000000000000006064820152608401610404565b610cf18161164a565b50565b610cfc610f99565b600080600086806020019051810190610d159190611e10565b9250925092506000610d298887878a61169c565b9050600083118015610d6057506001600160a01b038082166000908152600660209081526040808320938816835292905220548311155b610db75760405162461bcd60e51b815260206004820152602260248201527f506f6c79676f6e436f6e6e6563746f724c6f6769633a206c6f772062616c616e604482015261636560f01b6064820152608401610404565b610dc3818585856117e7565b6001600160a01b03808216600090815260066020908152604080832093881683529290529081208054859290610dfa908490612547565b90915550506001606c55506105d892505050565b600754610100900460ff1615808015610e2e5750600754600160ff909116105b80610e4f5750610e3d30611904565b158015610e4f575060075460ff166001145b610ec15760405162461bcd60e51b815260206004820152602e60248201527f496e697469616c697a61626c653a20636f6e747261637420697320616c72656160448201527f647920696e697469616c697a65640000000000000000000000000000000000006064820152608401610404565b6007805460ff191660011790558015610ee4576007805461ff0019166101001790555b610eec611917565b610ef461198a565b610efc6119fd565b600080546001600160a01b038089166001600160a01b0319928316179092556001805488841690831617905560038054878416908316179055600480549286169290911691909117905560058290558015610f91576007805461ff0019169055604051600181527f7f26b83ff96e1f2b6a682f133852f6798a09c465da95921460cefb38474024989060200160405180910390a15b505050505050565b6002606c541415610fec5760405162461bcd60e51b815260206004820152601f60248201527f5265656e7472616e637947756172643a207265656e7472616e742063616c6c006044820152606401610404565b6002606c55565b60008160405160200161100691906122ae565b604051602081830303815290604052805190602001208360405160200161102d91906122ae565b6040516020818303038152906040528051906020012014905092915050565b6000806000806000806000808980602001905181019061106c91906120dd565b9950995099509950995099509950995050506000600267ffffffffffffffff8111156110a857634e487b7160e01b600052604160045260246000fd5b6040519080825280602002602001820160405280156110d1578160200160208202803683370190505b5090508b816000815181106110f657634e487b7160e01b600052603260045260246000fd5b602002602001018181525050868160018151811061112457634e487b7160e01b600052603260045260246000fd5b6020026020010181815250508560008151811061115157634e487b7160e01b600052603260045260246000fd5b602090810291909101015160015460405163095ea7b360e01b81526001600160a01b039182166004820152602481018f905291169063095ea7b390604401602060405180830381600087803b1580156111a957600080fd5b505af11580156111bd573d6000803e3d6000fd5b505050506040513d601f19601f820116820180604052508101906111e1919061201a565b50600180546040516344dd6aa560e01b81526001600160a01b03909116916344dd6aa591611222918c918691908c9042908d908d908d908d906004016123fc565b602060405180830381600087803b15801561123c57600080fd5b505af192505050801561126c575060408051601f3d908101601f19168201909252611269918101906121d6565b60015b6113b0578560008151811061129157634e487b7160e01b600052603260045260246000fd5b602090810291909101015160015460405163095ea7b360e01b81526001600160a01b0391821660048201526000602482015291169063095ea7b390604401602060405180830381600087803b1580156112e957600080fd5b505af11580156112fd573d6000803e3d6000fd5b505050506040513d601f19601f82011682018060405250810190611321919061201a565b506001600160a01b03808a166000908152600660209081526040808320938e16835292905290812080548e929061135990849061252f565b92505081905550886001600160a01b03167f2956c7201c919e433f35527008c29ca742eb150853d79f5cc6546e8c3bc046af898c8f89898c6040516113a39695949392919061233a565b60405180910390a26115db565b50886001600160a01b03167f8fa5daae7a5c2fc114239650d841eda356c27403e56f9a5ca6f0e3f689286d75898c8f898960008054906101000a90046001600160a01b03166001600160a01b031663c4d10b6a8b6040518263ffffffff1660e01b8152600401611420919061248e565b60206040518083038186803b15801561143857600080fd5b505afa15801561144c573d6000803e3d6000fd5b505050506040513d601f19601f820116820180604052508101906114709190611d2a565b60018060009054906101000a90046001600160a01b03166001600160a01b031663930a60e860008054906101000a90046001600160a01b03166001600160a01b031663c4d10b6a8f6040518263ffffffff1660e01b81526004016114d4919061248e565b60206040518083038186803b1580156114ec57600080fd5b505afa158015611500573d6000803e3d6000fd5b505050506040513d601f19601f820116820180604052508101906115249190611d2a565b6040517fffffffff0000000000000000000000000000000000000000000000000000000060e084901b1681526001600160a01b03909116600482015260240160206040518083038186803b15801561157b57600080fd5b505afa15801561158f573d6000803e3d6000fd5b505050506040513d601f19601f820116820180604052508101906115b391906121d6565b6115bd9190612547565b8e6040516115d29897969594939291906122ca565b60405180910390a25b505050505050505050505050565b6001606c55565b603a546001600160a01b0316331461066e5760405162461bcd60e51b815260206004820181905260248201527f4f776e61626c653a2063616c6c6572206973206e6f7420746865206f776e65726044820152606401610404565b603a80546001600160a01b038381166001600160a01b0319831681179093556040519116919082907f8be0079c531659141344cd1fd0a4f28419497f9722a3daafe3b4186f6b6457e090600090a35050565b600080858051906020012090506000816040516020016116e891907f19457468657265756d205369676e6564204d6573736167653a0a3332000000008152601c810191909152603c0190565b60408051601f198184030181528282528051602091820120600080855291840180845281905260ff88169284019290925260608301899052608083018890529092509060019060a0016020604051602081039080840390855afa158015611753573d6000803e3d6000fd5b5050604051601f1901519150506001600160a01b0381166117dc5760405162461bcd60e51b815260206004820152602260248201527f506f6c79676f6e436f6e6e6563746f724c6f6769633a20496e76616c6964207360448201527f69670000000000000000000000000000000000000000000000000000000000006064820152608401610404565b979650505050505050565b60035460405163095ea7b360e01b81526001600160a01b0391821660048201526024810184905260609185169063095ea7b390604401602060405180830381600087803b15801561183757600080fd5b505af115801561184b573d6000803e3d6000fd5b505050506040513d601f19601f8201168201806040525081019061186f919061201a565b506003546005546040517f1186ec330000000000000000000000000000000000000000000000000000000081526001600160a01b0390921691631186ec33916118cb9189918991899190899042908a9060001990600401612398565b600060405180830381600087803b1580156118e557600080fd5b505af11580156118f9573d6000803e3d6000fd5b505050505050505050565b6001600160a01b0381163b15155b919050565b600754610100900460ff166119825760405162461bcd60e51b815260206004820152602b60248201527f496e697469616c697a61626c653a20636f6e7472616374206973206e6f74206960448201526a6e697469616c697a696e6760a81b6064820152608401610404565b61066e611a70565b600754610100900460ff166119f55760405162461bcd60e51b815260206004820152602b60248201527f496e697469616c697a61626c653a20636f6e7472616374206973206e6f74206960448201526a6e697469616c697a696e6760a81b6064820152608401610404565b61066e611ae4565b600754610100900460ff16611a685760405162461bcd60e51b815260206004820152602b60248201527f496e697469616c697a61626c653a20636f6e7472616374206973206e6f74206960448201526a6e697469616c697a696e6760a81b6064820152608401610404565b61066e611b4f565b600754610100900460ff16611adb5760405162461bcd60e51b815260206004820152602b60248201527f496e697469616c697a61626c653a20636f6e7472616374206973206e6f74206960448201526a6e697469616c697a696e6760a81b6064820152608401610404565b61066e3361164a565b600754610100900460ff166115e95760405162461bcd60e51b815260206004820152602b60248201527f496e697469616c697a61626c653a20636f6e7472616374206973206e6f74206960448201526a6e697469616c697a696e6760a81b6064820152608401610404565b600754610100900460ff16611bba5760405162461bcd60e51b815260206004820152602b60248201527f496e697469616c697a61626c653a20636f6e7472616374206973206e6f74206960448201526a6e697469616c697a696e6760a81b6064820152608401610404565b609e805460ff19169055565b8051611912816125b6565b600082601f830112611be1578081fd5b8151602067ffffffffffffffff821115611bfd57611bfd6125a0565b808202611c0b8282016124d6565b838152828101908684018388018501891015611c25578687fd5b8693505b85841015611c50578051611c3c816125b6565b835260019390930192918401918401611c29565b50979650505050505050565b600082601f830112611c6c578081fd5b8135611c7f611c7a82612507565b6124d6565b818152846020838601011115611c93578283fd5b816020850160208301379081016020019190915292915050565b600082601f830112611cbd578081fd5b8151611ccb611c7a82612507565b818152846020838601011115611cdf578283fd5b611cf082602083016020870161255e565b949350505050565b80516006811061191257600080fd5b600060208284031215611d18578081fd5b8135611d23816125b6565b9392505050565b600060208284031215611d3b578081fd5b8151611d23816125b6565b600080600080600080600080610100898b031215611d62578384fd5b611d6b89611bc6565b975060208901519650611d8060408a01611bc6565b955060608901519450608089015167ffffffffffffffff80821115611da3578586fd5b611daf8c838d01611cad565b9550611dbd60a08c01611cf8565b945060c08b0151915080821115611dd2578384fd5b611dde8c838d01611cad565b935060e08b0151915080821115611df3578283fd5b50611e008b828c01611bd1565b9150509295985092959890939650565b600080600060608486031215611e24578283fd5b8351611e2f816125b6565b809350506020840151915060408401518060070b8114611e4d578182fd5b809150509250925092565b60008060408385031215611e6a578182fd5b8235611e75816125b6565b91506020830135611e85816125b6565b809150509250929050565b600080600080600060a08688031215611ea7578081fd5b8535611eb2816125b6565b94506020860135611ec2816125b6565b93506040860135611ed2816125b6565b92506060860135611ee2816125b6565b949793965091946080013592915050565b600080600060608486031215611f07578081fd5b8335611f12816125b6565b92506020840135611f22816125b6565b929592945050506040919091013590565b60008060008060808587031215611f48578182fd5b8435611f53816125b6565b9350602085013592506040850135611f6a816125b6565b9150606085013567ffffffffffffffff811115611f85578182fd5b611f9187828801611c5c565b91505092959194509250565b600080600080600060a08688031215611fb4578283fd5b8535611fbf816125b6565b9450602086013593506040860135611fd6816125cb565b92506060860135611fe6816125b6565b9150608086013567ffffffffffffffff811115612001578182fd5b61200d88828901611c5c565b9150509295509295909350565b60006020828403121561202b578081fd5b8151611d23816125cb565b6000806000806080858703121561204b578182fd5b843567ffffffffffffffff811115612061578283fd5b61206d87828801611c5c565b945050602085013560ff81168114612083578283fd5b93969395505050506040820135916060013590565b600080604083850312156120aa578182fd5b825167ffffffffffffffff8111156120c0578283fd5b6120cc85828601611cad565b925050602083015190509250929050565b6000806000806000806000806000806101408b8d0312156120fc578384fd5b8a5167ffffffffffffffff80821115612113578586fd5b61211f8e838f01611cad565b9b5060208d01519a5061213460408e01611bc6565b995061214260608e01611bc6565b985060808d0151975060a08d015191508082111561215e578586fd5b61216a8e838f01611bd1565b965060c08d015191508082111561217f578586fd5b61218b8e838f01611cad565b955061219960e08e01611cf8565b94506101008d01519150808211156121af578384fd5b506121bc8d828e01611cad565b9250506101208b015190509295989b9194979a5092959850565b6000602082840312156121e7578081fd5b5051919050565b6000815180845260208085019450808401835b838110156122265781516001600160a01b031687529582019590820190600101612201565b509495945050505050565b6000815180845260208085019450808401835b8381101561222657815187529582019590820190600101612244565b6000815180845261227881602086016020860161255e565b601f01601f19169290920160200192915050565b600681106122aa57634e487b7160e01b600052602160045260246000fd5b9052565b600082516122c081846020870161255e565b9190910192915050565b60006101006001600160a01b03808c168452808b1660208501528960408501528160608501526122fc8285018a612260565b915061230b608085018961228c565b861660a084015260c0830185905282810360e084015261232b81856121ee565b9b9a5050505050505050505050565b60006001600160a01b03808916835280881660208401525085604083015260c0606083015261236c60c0830186612260565b612379608084018661228c565b82810360a084015261238b81856121ee565b9998505050505050505050565b60006101006001600160a01b03808c168452808b166020850152508860408401528760608401528660070b608084015263ffffffff861660a08401528060c08401526123e681840186612260565b9150508260e08301529998505050505050505050565b60006101206001600160a01b038c16835280602084015261241f8184018c612231565b90508915156040840152828103606084015261243b818a6121ee565b905087608084015282810360a08401526124558188612260565b905061246460c084018761228c565b82810360e08401526124768186612260565b915050826101008301529a9950505050505050505050565b600060208252611d236020830184612260565b6000848252606060208301526124ba6060830185612260565b82810360408401526124cc8185612260565b9695505050505050565b604051601f8201601f1916810167ffffffffffffffff811182821017156124ff576124ff6125a0565b604052919050565b600067ffffffffffffffff821115612521576125216125a0565b50601f01601f191660200190565b600082198211156125425761254261258a565b500190565b6000828210156125595761255961258a565b500390565b60005b83811015612579578181015183820152602001612561565b838111156105d85750506000910152565b634e487b7160e01b600052601160045260246000fd5b634e487b7160e01b600052604160045260246000fd5b6001600160a01b0381168114610cf157600080fd5b8015158114610cf157600080fdfea26469706673582212208525e533e80535f121399e094c56e1abef1acffd833f8941f324374a150fcd9864736f6c63430008020033",
  "devdoc": {
    "kind": "dev",
    "methods": {
      "emergencyWithdraw(address,address,uint256)": {
        "details": "Only owner can call this"
      },
      "handleAcrossMessage(address,uint256,bool,address,bytes)": {
        "details": "Only Across can call this. Will be reverted if tokens have not been received fully yet.",
        "params": {
          "_amount": "Amount received by the contract (after reducing fees)",
          "_fillCompleted": "True if all tokens have been received",
          "_message": "that user sent (from Ethereum)",
          "_relayer": "Addres of relayer who submitted the request",
          "_tokenSent": "Address of exchanging token"
        }
      },
      "owner()": {
        "details": "Returns the address of the current owner."
      },
      "paused()": {
        "details": "Returns true if the contract is paused, and false otherwise."
      },
      "renounceOwnership()": {
        "details": "Leaves the contract without owner. It will not be possible to call `onlyOwner` functions anymore. Can only be called by the current owner. NOTE: Renouncing ownership will leave the contract without an owner, thereby removing any functionality that is only available to the owner."
      },
      "retrySwapAndUnwrap(bytes,uint8,bytes32,bytes32)": {
        "details": "User signs a message for retrying its request",
        "params": {
          "_message": "The signed message",
          "_r": "Signature r",
          "_s": "Signature s",
          "_v": "Signature v"
        }
      },
      "transferOwnership(address)": {
        "details": "Transfers ownership of the contract to a new account (`newOwner`). Can only be called by the current owner."
      },
      "withdrawFundsToEth(bytes,uint8,bytes32,bytes32)": {
        "details": "User signs a message requesting for withdrawing a bid",
        "params": {
          "_message": "The signed message",
          "_r": "Signature r",
          "_s": "Signature s",
          "_v": "Signature v"
        }
      }
    },
    "version": 1
  },
  "userdoc": {
    "kind": "user",
    "methods": {
      "emergencyWithdraw(address,address,uint256)": {
        "notice": "Withdraws tokens in the emergency case"
      },
      "handleAcrossMessage(address,uint256,bool,address,bytes)": {
        "notice": "Processes requests coming from Ethereum (using Across)"
      },
      "handleV3AcrossMessage(address,uint256,address,bytes)": {
        "notice": "Process requests coming from Ethereum (using Across V3)"
      },
      "retrySwapAndUnwrap(bytes,uint8,bytes32,bytes32)": {
        "notice": "Retry failed exchange and burn requests"
      },
      "setAcross(address)": {
        "notice": "Setter for Across"
      },
      "setAcrossV3(address)": {
        "notice": "Setter for AcrossV3"
      },
      "setBurnRouterProxy(address)": {
        "notice": "Setter for BurnRouterProxy"
      },
      "setEthConnectorProxy(address)": {
        "notice": "Setter for EthConnectorProxy"
      },
      "setLockersProxy(address)": {
        "notice": "Setter for LockersProxy"
      },
      "withdrawFundsToEth(bytes,uint8,bytes32,bytes32)": {
        "notice": "Withdraws user's bid"
      }
    },
    "version": 1
  },
  "storageLayout": {
    "storage": [
      {
        "astId": 18600,
        "contract": "contracts/routers/PolyConnectorLogic.sol:PolyConnectorLogic",
        "label": "lockersProxy",
        "offset": 0,
        "slot": "0",
        "type": "t_address"
      },
      {
        "astId": 18602,
        "contract": "contracts/routers/PolyConnectorLogic.sol:PolyConnectorLogic",
        "label": "burnRouterProxy",
        "offset": 0,
        "slot": "1",
        "type": "t_address"
      },
      {
        "astId": 18604,
        "contract": "contracts/routers/PolyConnectorLogic.sol:PolyConnectorLogic",
        "label": "ethConnectorProxy",
        "offset": 0,
        "slot": "2",
        "type": "t_address"
      },
      {
        "astId": 18606,
        "contract": "contracts/routers/PolyConnectorLogic.sol:PolyConnectorLogic",
        "label": "across",
        "offset": 0,
        "slot": "3",
        "type": "t_address"
      },
      {
        "astId": 18608,
        "contract": "contracts/routers/PolyConnectorLogic.sol:PolyConnectorLogic",
        "label": "acrossV3",
        "offset": 0,
        "slot": "4",
        "type": "t_address"
      },
      {
        "astId": 18610,
        "contract": "contracts/routers/PolyConnectorLogic.sol:PolyConnectorLogic",
        "label": "sourceChainId",
        "offset": 0,
        "slot": "5",
        "type": "t_uint256"
      },
      {
        "astId": 18616,
        "contract": "contracts/routers/PolyConnectorLogic.sol:PolyConnectorLogic",
        "label": "failedReqs",
        "offset": 0,
        "slot": "6",
        "type": "t_mapping(t_address,t_mapping(t_address,t_uint256))"
      },
      {
        "astId": 396,
        "contract": "contracts/routers/PolyConnectorLogic.sol:PolyConnectorLogic",
        "label": "_initialized",
        "offset": 0,
        "slot": "7",
        "type": "t_uint8"
      },
      {
        "astId": 399,
        "contract": "contracts/routers/PolyConnectorLogic.sol:PolyConnectorLogic",
        "label": "_initializing",
        "offset": 1,
        "slot": "7",
        "type": "t_bool"
      },
      {
        "astId": 1161,
        "contract": "contracts/routers/PolyConnectorLogic.sol:PolyConnectorLogic",
        "label": "__gap",
        "offset": 0,
        "slot": "8",
        "type": "t_array(t_uint256)50_storage"
      },
      {
        "astId": 268,
        "contract": "contracts/routers/PolyConnectorLogic.sol:PolyConnectorLogic",
        "label": "_owner",
        "offset": 0,
        "slot": "58",
        "type": "t_address"
      },
      {
        "astId": 388,
        "contract": "contracts/routers/PolyConnectorLogic.sol:PolyConnectorLogic",
        "label": "__gap",
        "offset": 0,
        "slot": "59",
        "type": "t_array(t_uint256)49_storage"
      },
      {
        "astId": 699,
        "contract": "contracts/routers/PolyConnectorLogic.sol:PolyConnectorLogic",
        "label": "_status",
        "offset": 0,
        "slot": "108",
        "type": "t_uint256"
      },
      {
        "astId": 757,
        "contract": "contracts/routers/PolyConnectorLogic.sol:PolyConnectorLogic",
        "label": "__gap",
        "offset": 0,
        "slot": "109",
        "type": "t_array(t_uint256)49_storage"
      },
      {
        "astId": 579,
        "contract": "contracts/routers/PolyConnectorLogic.sol:PolyConnectorLogic",
        "label": "_paused",
        "offset": 0,
        "slot": "158",
        "type": "t_bool"
      },
      {
        "astId": 684,
        "contract": "contracts/routers/PolyConnectorLogic.sol:PolyConnectorLogic",
        "label": "__gap",
        "offset": 0,
        "slot": "159",
        "type": "t_array(t_uint256)49_storage"
      }
    ],
    "types": {
      "t_address": {
        "encoding": "inplace",
        "label": "address",
        "numberOfBytes": "20"
      },
      "t_array(t_uint256)49_storage": {
        "base": "t_uint256",
        "encoding": "inplace",
        "label": "uint256[49]",
        "numberOfBytes": "1568"
      },
      "t_array(t_uint256)50_storage": {
        "base": "t_uint256",
        "encoding": "inplace",
        "label": "uint256[50]",
        "numberOfBytes": "1600"
      },
      "t_bool": {
        "encoding": "inplace",
        "label": "bool",
        "numberOfBytes": "1"
      },
      "t_mapping(t_address,t_mapping(t_address,t_uint256))": {
        "encoding": "mapping",
        "key": "t_address",
        "label": "mapping(address => mapping(address => uint256))",
        "numberOfBytes": "32",
        "value": "t_mapping(t_address,t_uint256)"
      },
      "t_mapping(t_address,t_uint256)": {
        "encoding": "mapping",
        "key": "t_address",
        "label": "mapping(address => uint256)",
        "numberOfBytes": "32",
        "value": "t_uint256"
      },
      "t_uint256": {
        "encoding": "inplace",
        "label": "uint256",
        "numberOfBytes": "32"
      },
      "t_uint8": {
        "encoding": "inplace",
        "label": "uint8",
        "numberOfBytes": "1"
      }
    }
  }
}