{
  "address": "0xF52d695d36000a3c9317E01B5C60642CdD0D65A2",
  "abi": [
    {
      "inputs": [
        {
          "internalType": "uint256",
          "name": "_acceptableDelay",
          "type": "uint256"
        },
        {
          "internalType": "address",
          "name": "_oracleNativeToken",
          "type": "address"
        }
      ],
      "stateMutability": "nonpayable",
      "type": "constructor"
    },
    {
      "anonymous": false,
      "inputs": [
        {
          "indexed": false,
          "internalType": "address",
          "name": "exchangeRouter",
          "type": "address"
        },
        {
          "indexed": false,
          "internalType": "address",
          "name": "exchangeConnector",
          "type": "address"
        }
      ],
      "name": "ExchangeConnectorAdded",
      "type": "event"
    },
    {
      "anonymous": false,
      "inputs": [
        {
          "indexed": false,
          "internalType": "address",
          "name": "exchangeRouter",
          "type": "address"
        }
      ],
      "name": "ExchangeConnectorRemoved",
      "type": "event"
    },
    {
      "anonymous": false,
      "inputs": [
        {
          "indexed": true,
          "internalType": "address",
          "name": "previousOwner",
          "type": "address"
        },
        {
          "indexed": true,
          "internalType": "address",
          "name": "newOwner",
          "type": "address"
        }
      ],
      "name": "OwnershipTransferred",
      "type": "event"
    },
    {
      "anonymous": false,
      "inputs": [
        {
          "indexed": false,
          "internalType": "address",
          "name": "_firstToken",
          "type": "address"
        },
        {
          "indexed": false,
          "internalType": "address",
          "name": "_secondToken",
          "type": "address"
        },
        {
          "indexed": false,
          "internalType": "address",
          "name": "_priceProxyAddress",
          "type": "address"
        }
      ],
      "name": "SetPriceProxy",
      "type": "event"
    },
    {
      "inputs": [
        {
          "internalType": "address",
          "name": "",
          "type": "address"
        },
        {
          "internalType": "address",
          "name": "",
          "type": "address"
        }
      ],
      "name": "ChainlinkPriceProxy",
      "outputs": [
        {
          "internalType": "address",
          "name": "",
          "type": "address"
        }
      ],
      "stateMutability": "view",
      "type": "function"
    },
    {
      "inputs": [],
      "name": "NATIVE_TOKEN",
      "outputs": [
        {
          "internalType": "address",
          "name": "",
          "type": "address"
        }
      ],
      "stateMutability": "view",
      "type": "function"
    },
    {
      "inputs": [],
      "name": "acceptableDelay",
      "outputs": [
        {
          "internalType": "uint256",
          "name": "",
          "type": "uint256"
        }
      ],
      "stateMutability": "view",
      "type": "function"
    },
    {
      "inputs": [
        {
          "internalType": "address",
          "name": "_exchangeRouter",
          "type": "address"
        },
        {
          "internalType": "address",
          "name": "_exchangeConnector",
          "type": "address"
        }
      ],
      "name": "addExchangeConnector",
      "outputs": [],
      "stateMutability": "nonpayable",
      "type": "function"
    },
    {
      "inputs": [
        {
          "internalType": "uint256",
          "name": "_inputAmount",
          "type": "uint256"
        },
        {
          "internalType": "uint256",
          "name": "_inputDecimals",
          "type": "uint256"
        },
        {
          "internalType": "uint256",
          "name": "_outputDecimals",
          "type": "uint256"
        },
        {
          "internalType": "address",
          "name": "_inputToken",
          "type": "address"
        },
        {
          "internalType": "address",
          "name": "_outputToken",
          "type": "address"
        }
      ],
      "name": "equivalentOutputAmount",
      "outputs": [
        {
          "internalType": "uint256",
          "name": "",
          "type": "uint256"
        }
      ],
      "stateMutability": "view",
      "type": "function"
    },
    {
      "inputs": [
        {
          "internalType": "address",
          "name": "_exchangeRouter",
          "type": "address"
        },
        {
          "internalType": "uint256",
          "name": "_inputAmount",
          "type": "uint256"
        },
        {
          "internalType": "address",
          "name": "_inputToken",
          "type": "address"
        },
        {
          "internalType": "address",
          "name": "_outputToken",
          "type": "address"
        }
      ],
      "name": "equivalentOutputAmountFromExchange",
      "outputs": [
        {
          "internalType": "uint256",
          "name": "",
          "type": "uint256"
        }
      ],
      "stateMutability": "view",
      "type": "function"
    },
    {
      "inputs": [
        {
          "internalType": "uint256",
          "name": "_inputAmount",
          "type": "uint256"
        },
        {
          "internalType": "uint256",
          "name": "_inputDecimals",
          "type": "uint256"
        },
        {
          "internalType": "uint256",
          "name": "_outputDecimals",
          "type": "uint256"
        },
        {
          "internalType": "address",
          "name": "_inputToken",
          "type": "address"
        },
        {
          "internalType": "address",
          "name": "_outputToken",
          "type": "address"
        }
      ],
      "name": "equivalentOutputAmountFromOracle",
      "outputs": [
        {
          "internalType": "uint256",
          "name": "_outputAmount",
          "type": "uint256"
        }
      ],
      "stateMutability": "view",
      "type": "function"
    },
    {
      "inputs": [
        {
          "internalType": "address",
          "name": "",
          "type": "address"
        }
      ],
      "name": "exchangeConnector",
      "outputs": [
        {
          "internalType": "address",
          "name": "",
          "type": "address"
        }
      ],
      "stateMutability": "view",
      "type": "function"
    },
    {
      "inputs": [
        {
          "internalType": "uint256",
          "name": "",
          "type": "uint256"
        }
      ],
      "name": "exchangeRoutersList",
      "outputs": [
        {
          "internalType": "address",
          "name": "",
          "type": "address"
        }
      ],
      "stateMutability": "view",
      "type": "function"
    },
    {
      "inputs": [],
      "name": "getExchangeRoutersListLength",
      "outputs": [
        {
          "internalType": "uint256",
          "name": "",
          "type": "uint256"
        }
      ],
      "stateMutability": "view",
      "type": "function"
    },
    {
      "inputs": [],
      "name": "oracleNativeToken",
      "outputs": [
        {
          "internalType": "address",
          "name": "",
          "type": "address"
        }
      ],
      "stateMutability": "view",
      "type": "function"
    },
    {
      "inputs": [],
      "name": "owner",
      "outputs": [
        {
          "internalType": "address",
          "name": "",
          "type": "address"
        }
      ],
      "stateMutability": "view",
      "type": "function"
    },
    {
      "inputs": [
        {
          "internalType": "uint256",
          "name": "_exchangeRouterIndex",
          "type": "uint256"
        }
      ],
      "name": "removeExchangeConnector",
      "outputs": [],
      "stateMutability": "nonpayable",
      "type": "function"
    },
    {
      "inputs": [],
      "name": "renounceOwnership",
      "outputs": [],
      "stateMutability": "nonpayable",
      "type": "function"
    },
    {
      "inputs": [
        {
          "internalType": "uint256",
          "name": "_acceptableDelay",
          "type": "uint256"
        }
      ],
      "name": "setAcceptableDelay",
      "outputs": [],
      "stateMutability": "nonpayable",
      "type": "function"
    },
    {
      "inputs": [
        {
          "internalType": "address",
          "name": "_oracleNativeToken",
          "type": "address"
        }
      ],
      "name": "setOracleNativeToken",
      "outputs": [],
      "stateMutability": "nonpayable",
      "type": "function"
    },
    {
      "inputs": [
        {
          "internalType": "address",
          "name": "_firstToken",
          "type": "address"
        },
        {
          "internalType": "address",
          "name": "_secondToken",
          "type": "address"
        },
        {
          "internalType": "address",
          "name": "_priceProxyAddress",
          "type": "address"
        }
      ],
      "name": "setPriceProxy",
      "outputs": [],
      "stateMutability": "nonpayable",
      "type": "function"
    },
    {
      "inputs": [
        {
          "internalType": "address",
          "name": "newOwner",
          "type": "address"
        }
      ],
      "name": "transferOwnership",
      "outputs": [],
      "stateMutability": "nonpayable",
      "type": "function"
    }
  ],
  "transactionHash": "0xb7da5bcf77345b9153ccff811717b9f4843c1ac203dbbd1c1de7e7a28fefe53e",
  "args": [
    1000,
    "0x35E8E86889c04999682B5Bf661f0EC6a96F22a56"
  ],
  "numDeployments": 1,
  "solcInputHash": "26638c471352e26dd0e6e105b6c7435b",
  "bytecode": "0x608060405234801561001057600080fd5b50604051611a14380380611a1483398101604081905261002f916100b2565b61003833610062565b600491909155600580546001600160a01b0319166001600160a01b039092169190911790556100ed565b600080546001600160a01b038381166001600160a01b0319831681178455604051919092169283917f8be0079c531659141344cd1fd0a4f28419497f9722a3daafe3b4186f6b6457e09190a35050565b600080604083850312156100c4578182fd5b825160208401519092506001600160a01b03811681146100e2578182fd5b809150509250929050565b611918806100fc6000396000f3fe608060405234801561001057600080fd5b50600436106101165760003560e01c80638b2c3c0d116100a2578063de03d10d11610071578063de03d10d14610254578063e70f330314610267578063f2e0b6a51461027a578063f2fde38b1461028d578063f4fe5e6f146102a057610116565b80638b2c3c0d146101f45780638da5cb5b14610207578063ab44048414610218578063d86faec71461022b57610116565b806331f7d964116100e957806331f7d9641461017c5780636fbd06571461019c578063715018a6146101af5780638593c3d0146101b7578063862efd4b146101eb57610116565b806304c955441461011b578063092307da1461013057806316fac92a146101565780631d4a7b2114610169575b600080fd5b61012e61012936600461143d565b6102a8565b005b61014361013e3660046114fe565b610325565b6040519081526020015b60405180910390f35b610143610164366004611599565b6103fc565b61012e610177366004611581565b6105b5565b610184600181565b6040516001600160a01b03909116815260200161014d565b600554610184906001600160a01b031681565b61012e6105e4565b6101846101c536600461147c565b60016020908152600092835260408084209091529082529020546001600160a01b031681565b61014360045481565b61012e6102023660046114b4565b61061a565b6000546001600160a01b0316610184565b610143610226366004611599565b610715565b61018461023936600461143d565b6002602052600090815260409020546001600160a01b031681565b61012e610262366004611581565b6107e7565b610184610275366004611581565b61090e565b61012e61028836600461147c565b610938565b61012e61029b36600461143d565b610ad1565b600354610143565b806001600160a01b0381166102d85760405162461bcd60e51b81526004016102cf9061165e565b60405180910390fd5b6000546001600160a01b031633146103025760405162461bcd60e51b81526004016102cf90611695565b50600580546001600160a01b0319166001600160a01b0392909216919091179055565b6000826001600160a01b03811661034e5760405162461bcd60e51b81526004016102cf9061165e565b826001600160a01b0381166103755760405162461bcd60e51b81526004016102cf9061165e565b60008061038489898989610b6c565b90925090506001821515146103f05760405162461bcd60e51b815260206004820152602c60248201527f50726963654f7261636c653a205061697220646f6573206e6f7420657869737460448201526b206f6e2065786368616e676560a01b60648201526084016102cf565b98975050505050505050565b6000826001600160a01b0381166104255760405162461bcd60e51b81526004016102cf9061165e565b826001600160a01b03811661044c5760405162461bcd60e51b81526004016102cf9061165e565b600080600061045e8b8b8b8b8b610e4b565b9194509250905060018315151480156104895750600454610487610482428461182c565b6112b4565b105b15610498575093506105aa9050565b600080600185151514156104ad575082905060015b60005b600354811015610537576104fb600382815481106104de57634e487b7160e01b600052603260045260246000fd5b6000918252602090912001546001600160a01b03168f8d8d610b6c565b909650945060018615151415610525576105168260016116ca565b915061052285846116ca565b92505b8061052f81611882565b9150506104b0565b50600081116105985760405162461bcd60e51b815260206004820152602760248201527f50726963654f7261636c653a206e6f207072696365206665656420697320617660448201526661696c61626c6560c81b60648201526084016102cf565b6105a281836116e2565b975050505050505b505095945050505050565b6000546001600160a01b031633146105df5760405162461bcd60e51b81526004016102cf90611695565b600455565b6000546001600160a01b0316331461060e5760405162461bcd60e51b81526004016102cf90611695565b61061860006112d6565b565b826001600160a01b0381166106415760405162461bcd60e51b81526004016102cf9061165e565b826001600160a01b0381166106685760405162461bcd60e51b81526004016102cf9061165e565b6000546001600160a01b031633146106925760405162461bcd60e51b81526004016102cf90611695565b6001600160a01b0385811660008181526001602090815260408083208986168085529083529281902080546001600160a01b03191695891695861790558051938452908301919091528101919091527f6abcc480f7f47354dfac3d61ab87879f4acf371d04837e85d7b977ab6aa2b4e09060600160405180910390a15050505050565b6000826001600160a01b03811661073e5760405162461bcd60e51b81526004016102cf9061165e565b826001600160a01b0381166107655760405162461bcd60e51b81526004016102cf9061165e565b60006107748989898989610e4b565b50945090506001811515146107db5760405162461bcd60e51b815260206004820152602760248201527f50726963654f7261636c653a2050726963652070726f787920646f6573206e6f6044820152661d08195e1a5cdd60ca1b60648201526084016102cf565b50505095945050505050565b6000546001600160a01b031633146108115760405162461bcd60e51b81526004016102cf90611695565b600354811061086d5760405162461bcd60e51b815260206004820152602260248201527f50726963654f7261636c653a20496e646578206973206f7574206f6620626f756044820152611b9960f21b60648201526084016102cf565b60006003828154811061089057634e487b7160e01b600052603260045260246000fd5b6000918252602090912001546001600160a01b031690506108b082611326565b6001600160a01b03811660008181526002602090815260409182902080546001600160a01b031916905590519182527fd4c309ca8e170bf136bae67942030e0ac2e3992e9ea36936196c38be6d67a47d910160405180910390a15050565b6003818154811061091e57600080fd5b6000918252602090912001546001600160a01b0316905081565b816001600160a01b03811661095f5760405162461bcd60e51b81526004016102cf9061165e565b816001600160a01b0381166109865760405162461bcd60e51b81526004016102cf9061165e565b6000546001600160a01b031633146109b05760405162461bcd60e51b81526004016102cf90611695565b6001600160a01b038481166000908152600260205260409020541615610a2c5760405162461bcd60e51b815260206004820152602b60248201527f50726963654f7261636c653a2065786368616e676520726f7574657220616c7260448201526a656164792065786973747360a81b60648201526084016102cf565b60038054600181019091557fc2575a0e9e593c00f959f8c92f12db2869c3395a3b0502d05e2516446f71f85b0180546001600160a01b038681166001600160a01b0319928316811790935560008381526002602090815260409182902080549389169390941683179093558051938452918301527f19dd93282347163d78a1e91a8278207144203887305da5724821079ffcc138ad910160405180910390a150505050565b6000546001600160a01b03163314610afb5760405162461bcd60e51b81526004016102cf90611695565b6001600160a01b038116610b605760405162461bcd60e51b815260206004820152602660248201527f4f776e61626c653a206e6577206f776e657220697320746865207a65726f206160448201526564647265737360d01b60648201526084016102cf565b610b69816112d6565b50565b6000806001600160a01b03841660011415610cb4576001600160a01b0380871660009081526002602090815260408083205481516317fcb39b60e01b81529151939416926317fcb39b92600480840193919291829003018186803b158015610bd357600080fd5b505afa158015610be7573d6000803e3d6000fd5b505050506040513d601f19601f82011682018060405250810190610c0b9190611460565b6001600160a01b038881166000908152600260205260409081902054905163df71d7f360e01b8152600481018a905283831660248201528783166044820152929350169063df71d7f3906064015b604080518083038186803b158015610c7057600080fd5b505afa158015610c84573d6000803e3d6000fd5b505050506040513d601f19601f82011682018060405250810190610ca89190611550565b9093509150610e429050565b6001600160a01b03831660011415610da2576001600160a01b0380871660009081526002602090815260408083205481516317fcb39b60e01b81529151939416926317fcb39b92600480840193919291829003018186803b158015610d1857600080fd5b505afa158015610d2c573d6000803e3d6000fd5b505050506040513d601f19601f82011682018060405250810190610d509190611460565b6001600160a01b038881166000908152600260205260409081902054905163df71d7f360e01b8152600481018a905288831660248201528383166044820152929350169063df71d7f390606401610c59565b6001600160a01b038681166000908152600260205260409081902054905163df71d7f360e01b8152600481018890528683166024820152858316604482015291169063df71d7f390606401604080518083038186803b158015610e0457600080fd5b505afa158015610e18573d6000803e3d6000fd5b505050506040513d601f19601f82011682018060405250810190610e3c9190611550565b90925090505b94509492505050565b6000808080806001600160a01b03871660011415610e72576005546001600160a01b031696505b6001600160a01b03861660011415610e93576005546001600160a01b031695505b6001600160a01b0387811660009081526001602090815260408083208a8516845290915290205416156110a2576001600160a01b0380881660009081526001602090815260408083208a8516845290915290819020548151633fabe5a360e21b8152915192169163feaf968c9160048082019260a092909190829003018186803b158015610f2057600080fd5b505afa158015610f34573d6000803e3d6000fd5b505050506040513d601f19601f82011682018060405250810190610f5891906115ee565b506001600160a01b03808c1660009081526001602090815260408083208e8516845282529182902054825163313ce56760e01b81529251949a5095975094909116945063313ce5679360048083019450909291829003018186803b158015610fbf57600080fd5b505afa158015610fd3573d6000803e3d6000fd5b505050506040513d601f19601f82011682018060405250810190610ff7919061163d565b60ff169150806110435760405162461bcd60e51b815260206004820152601760248201527650726963654f7261636c653a207a65726f20707269636560481b60448201526064016102cf565b61104d89836116ca565b6110589060016116ca565b61106390600a61173f565b61106e8960016116ca565b61107990600a61173f565b6110838c8461180d565b61108d919061180d565b61109791906116e2565b9350600194506112a6565b6001600160a01b0386811660009081526001602090815260408083208b851684529091529020541615611294576001600160a01b0380871660009081526001602090815260408083208b8516845290915290819020548151633fabe5a360e21b8152915192169163feaf968c9160048082019260a092909190829003018186803b15801561112f57600080fd5b505afa158015611143573d6000803e3d6000fd5b505050506040513d601f19601f8201168201806040525081019061116791906115ee565b506001600160a01b03808b1660009081526001602090815260408083208f8516845282529182902054825163313ce56760e01b81529251949a5095975094909116945063313ce5679360048083019450909291829003018186803b1580156111ce57600080fd5b505afa1580156111e2573d6000803e3d6000fd5b505050506040513d601f19601f82011682018060405250810190611206919061163d565b60ff169150806112525760405162461bcd60e51b815260206004820152601760248201527650726963654f7261636c653a207a65726f20707269636560481b60448201526064016102cf565b8061125e8a60016116ca565b61126990600a61173f565b611273919061180d565b8a61127e8a856116ca565b6112899060016116ca565b61108390600a61173f565b600080600094509450945050506112a9565b50505b955095509592505050565b6000808212156112cc576112c78261189d565b6112ce565b815b90505b919050565b600080546001600160a01b038381166001600160a01b0319831681178455604051919092169283917f8be0079c531659141344cd1fd0a4f28419497f9722a3daafe3b4186f6b6457e09190a35050565b805b6003546113379060019061186b565b8110156113de57600361134b8260016116ca565b8154811061136957634e487b7160e01b600052603260045260246000fd5b600091825260209091200154600380546001600160a01b0390921691839081106113a357634e487b7160e01b600052603260045260246000fd5b600091825260209091200180546001600160a01b0319166001600160a01b0392909216919091179055806113d681611882565b915050611328565b5060038054806113fe57634e487b7160e01b600052603160045260246000fd5b600082815260209020810160001990810180546001600160a01b031916905501905550565b805169ffffffffffffffffffff811681146112d157600080fd5b60006020828403121561144e578081fd5b8135611459816118cd565b9392505050565b600060208284031215611471578081fd5b8151611459816118cd565b6000806040838503121561148e578081fd5b8235611499816118cd565b915060208301356114a9816118cd565b809150509250929050565b6000806000606084860312156114c8578081fd5b83356114d3816118cd565b925060208401356114e3816118cd565b915060408401356114f3816118cd565b809150509250925092565b60008060008060808587031215611513578081fd5b843561151e816118cd565b9350602085013592506040850135611535816118cd565b91506060850135611545816118cd565b939692955090935050565b60008060408385031215611562578182fd5b82518015158114611571578283fd5b6020939093015192949293505050565b600060208284031215611592578081fd5b5035919050565b600080600080600060a086880312156115b0578081fd5b85359450602086013593506040860135925060608601356115d0816118cd565b915060808601356115e0816118cd565b809150509295509295909350565b600080600080600060a08688031215611605578081fd5b61160e86611423565b945060208601519350604086015192506060860151915061163160808701611423565b90509295509295909350565b60006020828403121561164e578081fd5b815160ff81168114611459578182fd5b60208082526019908201527f50726963654f7261636c653a207a65726f206164647265737300000000000000604082015260600190565b6020808252818101527f4f776e61626c653a2063616c6c6572206973206e6f7420746865206f776e6572604082015260600190565b600082198211156116dd576116dd6118b7565b500190565b6000826116fd57634e487b7160e01b81526012600452602481fd5b500490565b80825b60018086116117145750610e42565b818704821115611726576117266118b7565b8086161561173357918102915b9490941c938002611705565b6000611459600019848460008261175857506001611459565b8161176557506000611459565b816001811461177b5760028114611785576117b2565b6001915050611459565b60ff841115611796576117966118b7565b6001841b9150848211156117ac576117ac6118b7565b50611459565b5060208310610133831016604e8410600b84101617156117e5575081810a838111156117e0576117e06118b7565b611459565b6117f28484846001611702565b808604821115611804576118046118b7565b02949350505050565b6000816000190483118215151615611827576118276118b7565b500290565b60008083128015600160ff1b85018412161561184a5761184a6118b7565b6001600160ff1b0384018313811615611865576118656118b7565b50500390565b60008282101561187d5761187d6118b7565b500390565b6000600019821415611896576118966118b7565b5060010190565b6000600160ff1b8214156118b3576118b36118b7565b0390565b634e487b7160e01b600052601160045260246000fd5b6001600160a01b0381168114610b6957600080fdfea26469706673582212206682e0eb703c9cb1cc75d965a2bc9dca77eea69715bb5094fc5748508b4e1ea764736f6c63430008020033",
  "devdoc": {
    "kind": "dev",
    "methods": {
      "addExchangeConnector(address,address)": {
        "details": "Only owner can call this",
        "params": {
          "_exchangeConnector": "New exchange connector contract address",
          "_exchangeRouter": "Exchange router contract address"
        }
      },
      "constructor": {
        "params": {
          "_acceptableDelay": "Maximum acceptable delay for data given from Chainlink"
        }
      },
      "equivalentOutputAmount(uint256,uint256,uint256,address,address)": {
        "details": "First we try to get the output amount from Chain Link                                 Only if the price is not available or out-of-date we will                                  reach to exchange routers",
        "params": {
          "_inputAmount": "Amount of the input token",
          "_inputDecimals": "Number of input token decimals",
          "_inputToken": "Address of the input token",
          "_outputDecimals": "Number of output token decimals",
          "_outputToken": "Address of output token"
        },
        "returns": {
          "_0": "Amount of the output token"
        }
      },
      "equivalentOutputAmountFromExchange(address,uint256,address,address)": {
        "details": "Input amount should have the same decimal as input token                                 Output amount has the same decimal as output token",
        "params": {
          "_exchangeRouter": "Address of the exchange router we are reading the price from",
          "_inputAmount": "Amount of the input token",
          "_inputToken": "Address of the input token",
          "_outputToken": "Address of output token"
        },
        "returns": {
          "_0": "Amount of the output token"
        }
      },
      "equivalentOutputAmountFromOracle(uint256,uint256,uint256,address,address)": {
        "details": "The oracle is ChainLink",
        "params": {
          "_inputAmount": "Amount of the input token",
          "_inputDecimals": "Number of input token decimals",
          "_inputToken": "Address of the input token",
          "_outputDecimals": "Number of output token decimals",
          "_outputToken": "Address of output token"
        },
        "returns": {
          "_outputAmount": "          Amount of the output token"
        }
      },
      "owner()": {
        "details": "Returns the address of the current owner."
      },
      "removeExchangeConnector(uint256)": {
        "details": "Only owner can call this",
        "params": {
          "_exchangeRouterIndex": "The exchange router index in the list"
        }
      },
      "renounceOwnership()": {
        "details": "Leaves the contract without owner. It will not be possible to call `onlyOwner` functions anymore. Can only be called by the current owner. NOTE: Renouncing ownership will leave the contract without an owner, thereby removing any functionality that is only available to the owner."
      },
      "setAcceptableDelay(uint256)": {
        "details": "If oracle data has not been updated for a while,                              we will get data from exchange routers",
        "params": {
          "_acceptableDelay": "Maximum acceptable delay (in seconds)"
        }
      },
      "setPriceProxy(address,address,address)": {
        "details": "Only owner can call this                             This price proxy gives exchange rate of _firstToken/_secondToken                             Setting price proxy address to zero means that we remove it",
        "params": {
          "_firstToken": "Address of the first token",
          "_priceProxyAddress": "The address of the proxy price",
          "_secondToken": "Address of the second token"
        }
      },
      "transferOwnership(address)": {
        "details": "Transfers ownership of the contract to a new account (`newOwner`). Can only be called by the current owner."
      }
    },
    "stateVariables": {
      "ChainlinkPriceProxy": {
        "params": {
          "_firstToken": "Address of the first token",
          "_secondToken": "Address of the second token"
        },
        "return": "Address of price proxy contract"
      },
      "exchangeConnector": {
        "params": {
          "_exchangeRouter": "Address of exchange router"
        },
        "return": "Address of exchange connector"
      },
      "exchangeRoutersList": {
        "params": {
          "_index": "Index of exchange router"
        },
        "return": "Address of exchange router"
      }
    },
    "version": 1
  },
  "userdoc": {
    "events": {
      "ExchangeConnectorAdded(address,address)": {
        "notice": "Emits when new exchange router is added"
      },
      "ExchangeConnectorRemoved(address)": {
        "notice": "Emits when an exchange router is removed"
      },
      "SetPriceProxy(address,address,address)": {
        "notice": "Emits when a price proxy is set"
      }
    },
    "kind": "user",
    "methods": {
      "ChainlinkPriceProxy(address,address)": {
        "notice": "Gives price proxy address for a pair of tokens"
      },
      "addExchangeConnector(address,address)": {
        "notice": "Adds an exchange connector"
      },
      "constructor": {
        "notice": "This contract is used to get relative price of two assets from Chainlink and available exchanges "
      },
      "equivalentOutputAmount(uint256,uint256,uint256,address,address)": {
        "notice": "Finds amount of output token that has same value as the input amount of the input token"
      },
      "equivalentOutputAmountFromExchange(address,uint256,address,address)": {
        "notice": "Finds amount of output token that has same value                                  as the input amount of the input token"
      },
      "equivalentOutputAmountFromOracle(uint256,uint256,uint256,address,address)": {
        "notice": "Finds amount of output token that has equal value                                 as the input amount of the input token"
      },
      "exchangeConnector(address)": {
        "notice": "Gives exchange connector address for an exchange router"
      },
      "exchangeRoutersList(uint256)": {
        "notice": "Gives address of an exchange router from exchange routers list"
      },
      "getExchangeRoutersListLength()": {
        "notice": "Getter for the length of exchange router list"
      },
      "removeExchangeConnector(uint256)": {
        "notice": "Removes an exchange connector"
      },
      "setAcceptableDelay(uint256)": {
        "notice": "Sets acceptable delay for oracle responses"
      },
      "setOracleNativeToken(address)": {
        "notice": "Sets oracle native token address"
      },
      "setPriceProxy(address,address,address)": {
        "notice": "Sets a price proxy for a pair of tokens"
      }
    },
    "version": 1
  },
  "storageLayout": {
    "storage": [
      {
        "astId": 807,
        "contract": "contracts/oracle/PriceOracle.sol:PriceOracle",
        "label": "_owner",
        "offset": 0,
        "slot": "0",
        "type": "t_address"
      },
      {
        "astId": 13815,
        "contract": "contracts/oracle/PriceOracle.sol:PriceOracle",
        "label": "ChainlinkPriceProxy",
        "offset": 0,
        "slot": "1",
        "type": "t_mapping(t_address,t_mapping(t_address,t_address))"
      },
      {
        "astId": 13820,
        "contract": "contracts/oracle/PriceOracle.sol:PriceOracle",
        "label": "exchangeConnector",
        "offset": 0,
        "slot": "2",
        "type": "t_mapping(t_address,t_address)"
      },
      {
        "astId": 13824,
        "contract": "contracts/oracle/PriceOracle.sol:PriceOracle",
        "label": "exchangeRoutersList",
        "offset": 0,
        "slot": "3",
        "type": "t_array(t_address)dyn_storage"
      },
      {
        "astId": 13827,
        "contract": "contracts/oracle/PriceOracle.sol:PriceOracle",
        "label": "acceptableDelay",
        "offset": 0,
        "slot": "4",
        "type": "t_uint256"
      },
      {
        "astId": 13836,
        "contract": "contracts/oracle/PriceOracle.sol:PriceOracle",
        "label": "oracleNativeToken",
        "offset": 0,
        "slot": "5",
        "type": "t_address"
      }
    ],
    "types": {
      "t_address": {
        "encoding": "inplace",
        "label": "address",
        "numberOfBytes": "20"
      },
      "t_array(t_address)dyn_storage": {
        "base": "t_address",
        "encoding": "dynamic_array",
        "label": "address[]",
        "numberOfBytes": "32"
      },
      "t_mapping(t_address,t_address)": {
        "encoding": "mapping",
        "key": "t_address",
        "label": "mapping(address => address)",
        "numberOfBytes": "32",
        "value": "t_address"
      },
      "t_mapping(t_address,t_mapping(t_address,t_address))": {
        "encoding": "mapping",
        "key": "t_address",
        "label": "mapping(address => mapping(address => address))",
        "numberOfBytes": "32",
        "value": "t_mapping(t_address,t_address)"
      },
      "t_uint256": {
        "encoding": "inplace",
        "label": "uint256",
        "numberOfBytes": "32"
      }
    }
  }
}