{
  "address": "0xb0C3b1392E32E0d55F127783256c2a1c83106B6B",
  "abi": [
    {
      "inputs": [
        {
          "internalType": "address",
          "name": "_relay",
          "type": "address"
        },
        {
          "internalType": "uint256",
          "name": "_blockNumber",
          "type": "uint256"
        }
      ],
      "name": "getFinalizedBlockHeaderFee",
      "outputs": [
        {
          "internalType": "uint256",
          "name": "",
          "type": "uint256"
        }
      ],
      "stateMutability": "view",
      "type": "function"
    }
  ],
  "transactionHash": "0x7b86cb5c5a214215a933cf1045bede38784feffd7df2b854bec706bc3e636006",
  "args": [],
  "numDeployments": 1,
  "solcInputHash": "4250fa7c67ddf8f7bd4b6e4d44c524b4",
  "bytecode": "0x61076161003a600b82828239805160001a60731461002d57634e487b7160e01b600052600060045260246000fd5b30600052607381538281f3fe73000000000000000000000000000000000000000030146080604052600436106100405760003560e01c80637ebc2327146100455780638d9da5991461007a575b600080fd5b81801561005157600080fd5b506100656100603660046104d7565b61009b565b60405190151581526020015b60405180910390f35b61008d6100883660046105ad565b610179565b604051908152602001610071565b6000806100a88786610179565b9050803410156100f75760405162461bcd60e51b8152602060048201526015602482015274426974636f696e52656c61793a206c6f772066656560581b60448201526064015b60405180910390fd5b600061014488888888886040516024016101149493929190610656565b60408051601f198184030181529190526020810180516001600160e01b0316634354da2560e01b17905284610202565b9050610159336101548434610699565b610230565b8080602001905181019061016d91906105d6565b98975050505050505050565b60405163d0a8973960e01b815260048101829052600060248201819052906001600160a01b0384169063d0a897399060440160206040518083038186803b1580156101c357600080fd5b505afa1580156101d7573d6000803e3d6000fd5b505050506040513d601f19601f820116820180604052508101906101fb91906105f6565b9392505050565b60606102288484846040518060600160405280602981526020016107036029913961034e565b949350505050565b804710156102805760405162461bcd60e51b815260206004820152601d60248201527f416464726573733a20696e73756666696369656e742062616c616e636500000060448201526064016100ee565b6000826001600160a01b03168260405160006040518083038185875af1925050503d80600081146102cd576040519150601f19603f3d011682016040523d82523d6000602084013e6102d2565b606091505b50509050806103495760405162461bcd60e51b815260206004820152603a60248201527f416464726573733a20756e61626c6520746f2073656e642076616c75652c207260448201527f6563697069656e74206d6179206861766520726576657274656400000000000060648201526084016100ee565b505050565b6060824710156103af5760405162461bcd60e51b815260206004820152602660248201527f416464726573733a20696e73756666696369656e742062616c616e636520666f6044820152651c8818d85b1b60d21b60648201526084016100ee565b6103b88561047d565b6104045760405162461bcd60e51b815260206004820152601d60248201527f416464726573733a2063616c6c20746f206e6f6e2d636f6e747261637400000060448201526064016100ee565b600080866001600160a01b03168587604051610420919061063a565b60006040518083038185875af1925050503d806000811461045d576040519150601f19603f3d011682016040523d82523d6000602084013e610462565b606091505b5091509150610472828286610487565b979650505050505050565b803b15155b919050565b606083156104965750816101fb565b8251156104a65782518084602001fd5b8160405162461bcd60e51b81526004016100ee9190610686565b80356001600160a01b038116811461048257600080fd5b600080600080600060a086880312156104ee578081fd5b6104f7866104c0565b94506020860135935060408601359250606086013567ffffffffffffffff80821115610521578283fd5b818801915088601f830112610534578283fd5b813581811115610546576105466106ec565b604051601f8201601f19908116603f0116810190838211818310171561056e5761056e6106ec565b816040528281528b6020848701011115610586578586fd5b82602086016020830137918201602001949094529699959850939660800135949350505050565b600080604083850312156105bf578182fd5b6105c8836104c0565b946020939093013593505050565b6000602082840312156105e7578081fd5b815180151581146101fb578182fd5b600060208284031215610607578081fd5b5051919050565b600081518084526106268160208601602086016106bc565b601f01601f19169290920160200192915050565b6000825161064c8184602087016106bc565b9190910192915050565b600085825284602083015260806040830152610675608083018561060e565b905082606083015295945050505050565b6000602082526101fb602083018461060e565b6000828210156106b757634e487b7160e01b81526011600452602481fd5b500390565b60005b838110156106d75781810151838201526020016106bf565b838111156106e6576000848401525b50505050565b634e487b7160e01b600052604160045260246000fdfe416464726573733a206c6f772d6c6576656c2063616c6c20776974682076616c7565206661696c6564a2646970667358221220ea5af80a4574548d02036c6b2caf335e8d41790bfa9459edf41f6695b050926f64736f6c63430008020033",
  "devdoc": {
    "kind": "dev",
    "methods": {
      "isConfirmed(address,bytes32,uint256,bytes,uint256)": {
        "details": "Calls the relay contract to check Merkle inclusion proof",
        "params": {
          "_blockNumber": "Height of the block containing the transaction",
          "_index": "Index of transaction in the block",
          "_intermediateNodes": "Merkle inclusion proof for the transaction",
          "_relay": "Address of Relay contract",
          "_txId": "of the transaction"
        },
        "returns": {
          "_0": "True if the transaction was included in the block"
        }
      }
    },
    "version": 1
  },
  "userdoc": {
    "kind": "user",
    "methods": {
      "isConfirmed(address,bytes32,uint256,bytes,uint256)": {
        "notice": "Checks inclusion of the transaction in the specified block"
      }
    },
    "version": 1
  },
  "storageLayout": {
    "storage": [],
    "types": null
  }
}