{
  "address": "0xb59c657aD6FcA988E52172B5Fc3F8935F04f938d",
  "abi": [
    {
      "inputs": [
        {
          "internalType": "string[]",
          "name": "tokenName",
          "type": "string[]"
        },
        {
          "internalType": "address[]",
          "name": "tokenAddress",
          "type": "address[]"
        },
        {
          "internalType": "address",
          "name": "_teleBTC",
          "type": "address"
        }
      ],
      "stateMutability": "nonpayable",
      "type": "constructor"
    },
    {
      "anonymous": false,
      "inputs": [
        {
          "indexed": true,
          "internalType": "address",
          "name": "previousOwner",
          "type": "address"
        },
        {
          "indexed": true,
          "internalType": "address",
          "name": "newOwner",
          "type": "address"
        }
      ],
      "name": "OwnershipTransferred",
      "type": "event"
    },
    {
      "anonymous": false,
      "inputs": [
        {
          "indexed": false,
          "internalType": "address",
          "name": "account",
          "type": "address"
        }
      ],
      "name": "Paused",
      "type": "event"
    },
    {
      "anonymous": false,
      "inputs": [
        {
          "indexed": false,
          "internalType": "address",
          "name": "account",
          "type": "address"
        }
      ],
      "name": "Unpaused",
      "type": "event"
    },
    {
      "inputs": [
        {
          "internalType": "address",
          "name": "account",
          "type": "address"
        },
        {
          "internalType": "string",
          "name": "tokenName",
          "type": "string"
        },
        {
          "internalType": "uint256",
          "name": "tokenAmount",
          "type": "uint256"
        }
      ],
      "name": "addBurner",
      "outputs": [],
      "stateMutability": "nonpayable",
      "type": "function"
    },
    {
      "inputs": [
        {
          "internalType": "address",
          "name": "account",
          "type": "address"
        },
        {
          "internalType": "string",
          "name": "tokenName",
          "type": "string"
        },
        {
          "internalType": "uint256",
          "name": "tokenAmount",
          "type": "uint256"
        },
        {
          "internalType": "uint256",
          "name": "teleBTCAmount",
          "type": "uint256"
        }
      ],
      "name": "addTeleBTCSeller",
      "outputs": [],
      "stateMutability": "nonpayable",
      "type": "function"
    },
    {
      "inputs": [
        {
          "internalType": "address",
          "name": "",
          "type": "address"
        }
      ],
      "name": "burner",
      "outputs": [
        {
          "internalType": "string",
          "name": "tokenName",
          "type": "string"
        },
        {
          "internalType": "uint256",
          "name": "tokenAmount",
          "type": "uint256"
        }
      ],
      "stateMutability": "view",
      "type": "function"
    },
    {
      "inputs": [
        {
          "internalType": "string",
          "name": "tokenName",
          "type": "string"
        },
        {
          "internalType": "address",
          "name": "tokenAddress",
          "type": "address"
        }
      ],
      "name": "changeToken",
      "outputs": [],
      "stateMutability": "nonpayable",
      "type": "function"
    },
    {
      "inputs": [],
      "name": "owner",
      "outputs": [
        {
          "internalType": "address",
          "name": "",
          "type": "address"
        }
      ],
      "stateMutability": "view",
      "type": "function"
    },
    {
      "inputs": [],
      "name": "pause",
      "outputs": [],
      "stateMutability": "nonpayable",
      "type": "function"
    },
    {
      "inputs": [],
      "name": "paused",
      "outputs": [
        {
          "internalType": "bool",
          "name": "",
          "type": "bool"
        }
      ],
      "stateMutability": "view",
      "type": "function"
    },
    {
      "inputs": [
        {
          "internalType": "address",
          "name": "account",
          "type": "address"
        }
      ],
      "name": "refund",
      "outputs": [],
      "stateMutability": "payable",
      "type": "function"
    },
    {
      "inputs": [],
      "name": "renounceOwnership",
      "outputs": [],
      "stateMutability": "nonpayable",
      "type": "function"
    },
    {
      "inputs": [
        {
          "internalType": "address",
          "name": "account",
          "type": "address"
        }
      ],
      "name": "sellTeleBTC",
      "outputs": [],
      "stateMutability": "payable",
      "type": "function"
    },
    {
      "inputs": [
        {
          "internalType": "address",
          "name": "",
          "type": "address"
        }
      ],
      "name": "seller",
      "outputs": [
        {
          "internalType": "string",
          "name": "tokenName",
          "type": "string"
        },
        {
          "internalType": "uint256",
          "name": "tokenAmount",
          "type": "uint256"
        },
        {
          "internalType": "uint256",
          "name": "teleBTCAmount",
          "type": "uint256"
        }
      ],
      "stateMutability": "view",
      "type": "function"
    },
    {
      "inputs": [],
      "name": "teleBTC",
      "outputs": [
        {
          "internalType": "address",
          "name": "",
          "type": "address"
        }
      ],
      "stateMutability": "view",
      "type": "function"
    },
    {
      "inputs": [
        {
          "internalType": "string",
          "name": "",
          "type": "string"
        }
      ],
      "name": "tokenMapping",
      "outputs": [
        {
          "internalType": "address",
          "name": "",
          "type": "address"
        }
      ],
      "stateMutability": "view",
      "type": "function"
    },
    {
      "inputs": [
        {
          "internalType": "address",
          "name": "newOwner",
          "type": "address"
        }
      ],
      "name": "transferOwnership",
      "outputs": [],
      "stateMutability": "nonpayable",
      "type": "function"
    },
    {
      "inputs": [],
      "name": "unpause",
      "outputs": [],
      "stateMutability": "nonpayable",
      "type": "function"
    },
    {
      "inputs": [
        {
          "internalType": "string",
          "name": "tokenName",
          "type": "string"
        },
        {
          "internalType": "uint256",
          "name": "tokenAmount",
          "type": "uint256"
        }
      ],
      "name": "withdrawToken",
      "outputs": [],
      "stateMutability": "nonpayable",
      "type": "function"
    }
  ],
  "transactionHash": "0xc8633a268eb35bd1cc6360458e8a8f04d74be3dc889b255ce90c405cf225bb56",
  "args": [
    [
      "WMATIC"
    ],
    [
      "0x9c3C9283D3e44854697Cd22D3Faa240Cfb032889"
    ],
    "0x6c26d5e3daf7aF200eF50D97aD974e12860689e3"
  ],
  "numDeployments": 1,
  "solcInputHash": "f356620a9d245c9fc119929ed1a30a43",
  "bytecode": "0x60806040523480156200001157600080fd5b50604051620019833803806200198383398101604081905262000034916200026b565b6200003f3362000181565b600180556002805460ff191690558151835114620000a35760405162461bcd60e51b815260206004820152601860248201527f496e76616c696420696e70757420706172616d65746572730000000000000000604482015260640160405180910390fd5b60005b83518110156200015757828181518110620000d157634e487b7160e01b600052603260045260246000fd5b60200260200101516005858381518110620000fc57634e487b7160e01b600052603260045260246000fd5b602002602001015160405162000113919062000391565b90815260405190819003602001902080546001600160a01b03929092166001600160a01b0319909216919091179055806200014e816200043b565b915050620000a6565b50600680546001600160a01b0319166001600160a01b039290921691909117905550620004799050565b600080546001600160a01b038381166001600160a01b0319831681178455604051919092169283917f8be0079c531659141344cd1fd0a4f28419497f9722a3daafe3b4186f6b6457e09190a35050565b80516001600160a01b0381168114620001e957600080fd5b919050565b600082601f830112620001ff578081fd5b81516020620002186200021283620003e2565b620003af565b828152818101908583018385028701840188101562000235578586fd5b855b858110156200025e576200024b82620001d1565b8452928401929084019060010162000237565b5090979650505050505050565b60008060006060848603121562000280578283fd5b83516001600160401b038082111562000297578485fd5b818601915086601f830112620002ab578485fd5b81516020620002be6200021283620003e2565b82815281810190858301895b858110156200034d57815188018d603f820112620002e6578b8cfd5b8581015188811115620002fd57620002fd62000463565b62000311601f8201601f19168801620003af565b8181528f604083850101111562000326578d8efd5b62000338828983016040860162000408565b865250509284019290840190600101620002ca565b50509189015191975090935050508082111562000368578384fd5b506200037786828701620001ee565b9250506200038860408501620001d1565b90509250925092565b60008251620003a581846020870162000408565b9190910192915050565b604051601f8201601f191681016001600160401b0381118282101715620003da57620003da62000463565b604052919050565b60006001600160401b03821115620003fe57620003fe62000463565b5060209081020190565b60005b83811015620004255781810151838201526020016200040b565b8381111562000435576000848401525b50505050565b60006000198214156200045c57634e487b7160e01b81526011600452602481fd5b5060010190565b634e487b7160e01b600052604160045260246000fd5b6114fa80620004896000396000f3fe6080604052600436106100f35760003560e01c80638da5cb5b1161008a578063cd78393911610059578063cd7839391461028b578063e88ad953146102ab578063f2fde38b146102ec578063fa89401a1461030c576100f3565b80638da5cb5b1461020c578063bb67f74a1461022a578063c39bf4c514610258578063c97a413a1461026b576100f3565b8063715018a6116100c6578063715018a61461018a5780638456cb591461019f5780638520b456146101b45780638d3d78cd146101d4576100f3565b806339b9c30c146100f85780633f4ba83a1461013057806345199147146101475780635c975abb14610167575b600080fd5b34801561010457600080fd5b5061011861011336600461109f565b61031f565b60405161012793929190611378565b60405180910390f35b34801561013c57600080fd5b506101456103c9565b005b34801561015357600080fd5b506101456101623660046111cc565b610406565b34801561017357600080fd5b5060025460ff166040519015158152602001610127565b34801561019657600080fd5b50610145610474565b3480156101ab57600080fd5b506101456104a8565b3480156101c057600080fd5b506101456101cf3660046110c0565b6104da565b3480156101e057600080fd5b506006546101f4906001600160a01b031681565b6040516001600160a01b039091168152602001610127565b34801561021857600080fd5b506000546001600160a01b03166101f4565b34801561023657600080fd5b5061024a61024536600461109f565b610557565b604051610127929190611356565b61014561026636600461109f565b6105fb565b34801561027757600080fd5b50610145610286366004611218565b61091e565b34801561029757600080fd5b506101456102a6366004611115565b610ad6565b3480156102b757600080fd5b506101f46102c6366004611191565b80516020818301810180516005825292820191909301209152546001600160a01b031681565b3480156102f857600080fd5b5061014561030736600461109f565b610b64565b61014561031a36600461109f565b610bff565b60036020526000908152604090208054819061033a90611473565b80601f016020809104026020016040519081016040528092919081815260200182805461036690611473565b80156103b35780601f10610388576101008083540402835291602001916103b3565b820191906000526020600020905b81548152906001019060200180831161039657829003601f168201915b5050505050908060010154908060020154905083565b6000546001600160a01b031633146103fc5760405162461bcd60e51b81526004016103f39061140e565b60405180910390fd5b610404610e28565b565b6000546001600160a01b031633146104305760405162461bcd60e51b81526004016103f39061140e565b80600583604051610441919061129f565b90815260405190819003602001902080546001600160a01b03929092166001600160a01b03199092169190911790555050565b6000546001600160a01b0316331461049e5760405162461bcd60e51b81526004016103f39061140e565b6104046000610ebb565b6000546001600160a01b031633146104d25760405162461bcd60e51b81526004016103f39061140e565b610404610f0b565b6000546001600160a01b031633146105045760405162461bcd60e51b81526004016103f39061140e565b60408051808201825283815260208082018490526001600160a01b0386166000908152600482529290922081518051929391926105449284920190610f63565b5060208201518160010155905050505050565b60046020526000908152604090208054819061057290611473565b80601f016020809104026020016040519081016040528092919081815260200182805461059e90611473565b80156105eb5780601f106105c0576101008083540402835291602001916105eb565b820191906000526020600020905b8154815290600101906020018083116105ce57829003601f168201915b5050505050908060010154905082565b6002600154141561064e5760405162461bcd60e51b815260206004820152601f60248201527f5265656e7472616e637947756172643a207265656e7472616e742063616c6c0060448201526064016103f3565b600260015561065f60025460ff1690565b1561067c5760405162461bcd60e51b81526004016103f3906113e4565b6001600160a01b03811633146106c05760405162461bcd60e51b81526020600482015260096024820152683737ba1037bbb732b960b91b60448201526064016103f3565b6001600160a01b0381166000908152600360205260409020600101546107155760405162461bcd60e51b815260206004820152600a6024820152693737ba1039b2b63632b960b11b60448201526064016103f3565b6006546001600160a01b03828116600081815260036020526040908190206002015490516323b872dd60e01b8152600481019290925230602483015260448201529116906323b872dd90606401602060405180830381600087803b15801561077c57600080fd5b505af1158015610790573d6000803e3d6000fd5b505050506040513d601f19601f820116820180604052508101906107b49190611171565b61080f5760405162461bcd60e51b815260206004820152602660248201527f556e61626c6520746f207472616e736665722054656c6542544320746f20636f6044820152651b9d1c9858dd60d21b60648201526084016103f3565b6001600160a01b038116600090815260036020526040908190209051600591610837916112bb565b9081526040805160209281900383018120546001600160a01b0385811660008181526003909652939094206001015463a9059cbb60e01b83526004830193909352602482019290925291169063a9059cbb90604401602060405180830381600087803b1580156108a657600080fd5b505af11580156108ba573d6000803e3d6000fd5b505050506040513d601f19601f820116820180604052508101906108de9190611171565b6108fa5760405162461bcd60e51b81526004016103f39061139d565b6001600160a01b031660009081526003602052604081206001908101919091558055565b6000546001600160a01b031633146109485760405162461bcd60e51b81526004016103f39061140e565b80600583604051610959919061129f565b908152604051908190036020018120546370a0823160e01b82523060048301526001600160a01b0316906370a082319060240160206040518083038186803b1580156109a457600080fd5b505afa1580156109b8573d6000803e3d6000fd5b505050506040513d601f19601f820116820180604052508101906109dc919061125b565b1015610a355760405162461bcd60e51b815260206004820152602260248201527f4e6f7420656e6f7567682062616c616e636520696e2074686520636f6e74726160448201526118dd60f21b60648201526084016103f3565b600582604051610a45919061129f565b9081526040519081900360200181205463a9059cbb60e01b8252336004830152602482018390526001600160a01b03169063a9059cbb90604401602060405180830381600087803b158015610a9957600080fd5b505af1158015610aad573d6000803e3d6000fd5b505050506040513d601f19601f82011682018060405250810190610ad19190611171565b505050565b6000546001600160a01b03163314610b005760405162461bcd60e51b81526004016103f39061140e565b6040805160608101825284815260208082018590528183018490526001600160a01b038716600090815260038252929092208151805192939192610b479284920190610f63565b506020820151600182015560409091015160029091015550505050565b6000546001600160a01b03163314610b8e5760405162461bcd60e51b81526004016103f39061140e565b6001600160a01b038116610bf35760405162461bcd60e51b815260206004820152602660248201527f4f776e61626c653a206e6577206f776e657220697320746865207a65726f206160448201526564647265737360d01b60648201526084016103f3565b610bfc81610ebb565b50565b60026001541415610c525760405162461bcd60e51b815260206004820152601f60248201527f5265656e7472616e637947756172643a207265656e7472616e742063616c6c0060448201526064016103f3565b6002600155610c6360025460ff1690565b15610c805760405162461bcd60e51b81526004016103f3906113e4565b6001600160a01b0381163314610cc45760405162461bcd60e51b81526020600482015260096024820152683737ba1037bbb732b960b91b60448201526064016103f3565b6001600160a01b038116600090815260046020526040902060010154610d195760405162461bcd60e51b815260206004820152600a6024820152693737ba10313ab93732b960b11b60448201526064016103f3565b6001600160a01b038116600090815260046020526040908190209051600591610d41916112bb565b9081526040805160209281900383018120546001600160a01b038581166000818152600496879052949094206001015463a9059cbb60e01b845294830193909352602482019390935291169063a9059cbb90604401602060405180830381600087803b158015610db057600080fd5b505af1158015610dc4573d6000803e3d6000fd5b505050506040513d601f19601f82011682018060405250810190610de89190611171565b610e045760405162461bcd60e51b81526004016103f39061139d565b6001600160a01b031660009081526004602052604081206001908101919091558055565b60025460ff16610e715760405162461bcd60e51b815260206004820152601460248201527314185d5cd8589b194e881b9bdd081c185d5cd95960621b60448201526064016103f3565b6002805460ff191690557f5db9ee0a495bf2e6ff9c91a7834c1ba4fdd244a5e8aa4e537bd38aeae4b073aa335b6040516001600160a01b03909116815260200160405180910390a1565b600080546001600160a01b038381166001600160a01b0319831681178455604051919092169283917f8be0079c531659141344cd1fd0a4f28419497f9722a3daafe3b4186f6b6457e09190a35050565b60025460ff1615610f2e5760405162461bcd60e51b81526004016103f3906113e4565b6002805460ff191660011790557f62e78cea01bee320cd4e420270b5ea74000d11b0c9f74754ebdbfc544b05a258610e9e3390565b828054610f6f90611473565b90600052602060002090601f016020900481019282610f915760008555610fd7565b82601f10610faa57805160ff1916838001178555610fd7565b82800160010185558215610fd7579182015b82811115610fd7578251825591602001919060010190610fbc565b50610fe3929150610fe7565b5090565b5b80821115610fe35760008155600101610fe8565b80356001600160a01b038116811461101357600080fd5b919050565b600082601f830112611028578081fd5b813567ffffffffffffffff80821115611043576110436114ae565b604051601f8301601f19908116603f0116810190828211818310171561106b5761106b6114ae565b81604052838152866020858801011115611083578485fd5b8360208701602083013792830160200193909352509392505050565b6000602082840312156110b0578081fd5b6110b982610ffc565b9392505050565b6000806000606084860312156110d4578182fd5b6110dd84610ffc565b9250602084013567ffffffffffffffff8111156110f8578283fd5b61110486828701611018565b925050604084013590509250925092565b6000806000806080858703121561112a578081fd5b61113385610ffc565b9350602085013567ffffffffffffffff81111561114e578182fd5b61115a87828801611018565b949794965050505060408301359260600135919050565b600060208284031215611182578081fd5b815180151581146110b9578182fd5b6000602082840312156111a2578081fd5b813567ffffffffffffffff8111156111b8578182fd5b6111c484828501611018565b949350505050565b600080604083850312156111de578182fd5b823567ffffffffffffffff8111156111f4578283fd5b61120085828601611018565b92505061120f60208401610ffc565b90509250929050565b6000806040838503121561122a578182fd5b823567ffffffffffffffff811115611240578283fd5b61124c85828601611018565b95602094909401359450505050565b60006020828403121561126c578081fd5b5051919050565b6000815180845261128b816020860160208601611443565b601f01601f19169290920160200192915050565b600082516112b1818460208701611443565b9190910192915050565b81546000908190600281046001808316806112d757607f831692505b60208084108214156112f757634e487b7160e01b87526022600452602487fd5b81801561130b576001811461131c57611348565b60ff19861689528489019650611348565b60008a815260209020885b868110156113405781548b820152908501908301611327565b505084890196505b509498975050505050505050565b6000604082526113696040830185611273565b90508260208301529392505050565b60006060825261138b6060830186611273565b60208301949094525060400152919050565b60208082526027908201527f556e61626c6520746f207472616e7366657220746f6b656e20746f20746865206040820152661858d8dbdd5b9d60ca1b606082015260800190565b60208082526010908201526f14185d5cd8589b194e881c185d5cd95960821b604082015260600190565b6020808252818101527f4f776e61626c653a2063616c6c6572206973206e6f7420746865206f776e6572604082015260600190565b60005b8381101561145e578181015183820152602001611446565b8381111561146d576000848401525b50505050565b60028104600182168061148757607f821691505b602082108114156114a857634e487b7160e01b600052602260045260246000fd5b50919050565b634e487b7160e01b600052604160045260246000fdfea26469706673582212209367d92864ff1467c40d379edced0c42bcfcc52fed43f78ea87595b61a367e3064736f6c63430008020033",
  "devdoc": {
    "kind": "dev",
    "methods": {
      "owner()": {
        "details": "Returns the address of the current owner."
      },
      "paused()": {
        "details": "Returns true if the contract is paused, and false otherwise."
      },
      "renounceOwnership()": {
        "details": "Leaves the contract without owner. It will not be possible to call `onlyOwner` functions anymore. Can only be called by the current owner. NOTE: Renouncing ownership will leave the contract without an owner, thereby removing any functionality that is only available to the owner."
      },
      "transferOwnership(address)": {
        "details": "Transfers ownership of the contract to a new account (`newOwner`). Can only be called by the current owner."
      }
    },
    "version": 1
  },
  "userdoc": {
    "kind": "user",
    "methods": {},
    "version": 1
  },
  "storageLayout": {
    "storage": [
      {
        "astId": 1595,
        "contract": "contracts/erc20/Returner.sol:Returner",
        "label": "_owner",
        "offset": 0,
        "slot": "0",
        "type": "t_address"
      },
      {
        "astId": 2422,
        "contract": "contracts/erc20/Returner.sol:Returner",
        "label": "_status",
        "offset": 0,
        "slot": "1",
        "type": "t_uint256"
      },
      {
        "astId": 2337,
        "contract": "contracts/erc20/Returner.sol:Returner",
        "label": "_paused",
        "offset": 0,
        "slot": "2",
        "type": "t_bool"
      },
      {
        "astId": 10659,
        "contract": "contracts/erc20/Returner.sol:Returner",
        "label": "seller",
        "offset": 0,
        "slot": "3",
        "type": "t_mapping(t_address,t_struct(SellerParams)10654_storage)"
      },
      {
        "astId": 10669,
        "contract": "contracts/erc20/Returner.sol:Returner",
        "label": "burner",
        "offset": 0,
        "slot": "4",
        "type": "t_mapping(t_address,t_struct(BurnerParams)10664_storage)"
      },
      {
        "astId": 10673,
        "contract": "contracts/erc20/Returner.sol:Returner",
        "label": "tokenMapping",
        "offset": 0,
        "slot": "5",
        "type": "t_mapping(t_string_memory_ptr,t_address)"
      },
      {
        "astId": 10675,
        "contract": "contracts/erc20/Returner.sol:Returner",
        "label": "teleBTC",
        "offset": 0,
        "slot": "6",
        "type": "t_address"
      }
    ],
    "types": {
      "t_address": {
        "encoding": "inplace",
        "label": "address",
        "numberOfBytes": "20"
      },
      "t_bool": {
        "encoding": "inplace",
        "label": "bool",
        "numberOfBytes": "1"
      },
      "t_mapping(t_address,t_struct(BurnerParams)10664_storage)": {
        "encoding": "mapping",
        "key": "t_address",
        "label": "mapping(address => struct Returner.BurnerParams)",
        "numberOfBytes": "32",
        "value": "t_struct(BurnerParams)10664_storage"
      },
      "t_mapping(t_address,t_struct(SellerParams)10654_storage)": {
        "encoding": "mapping",
        "key": "t_address",
        "label": "mapping(address => struct Returner.SellerParams)",
        "numberOfBytes": "32",
        "value": "t_struct(SellerParams)10654_storage"
      },
      "t_mapping(t_string_memory_ptr,t_address)": {
        "encoding": "mapping",
        "key": "t_string_memory_ptr",
        "label": "mapping(string => address)",
        "numberOfBytes": "32",
        "value": "t_address"
      },
      "t_string_memory_ptr": {
        "encoding": "bytes",
        "label": "string",
        "numberOfBytes": "32"
      },
      "t_string_storage": {
        "encoding": "bytes",
        "label": "string",
        "numberOfBytes": "32"
      },
      "t_struct(BurnerParams)10664_storage": {
        "encoding": "inplace",
        "label": "struct Returner.BurnerParams",
        "members": [
          {
            "astId": 10661,
            "contract": "contracts/erc20/Returner.sol:Returner",
            "label": "tokenName",
            "offset": 0,
            "slot": "0",
            "type": "t_string_storage"
          },
          {
            "astId": 10663,
            "contract": "contracts/erc20/Returner.sol:Returner",
            "label": "tokenAmount",
            "offset": 0,
            "slot": "1",
            "type": "t_uint256"
          }
        ],
        "numberOfBytes": "64"
      },
      "t_struct(SellerParams)10654_storage": {
        "encoding": "inplace",
        "label": "struct Returner.SellerParams",
        "members": [
          {
            "astId": 10649,
            "contract": "contracts/erc20/Returner.sol:Returner",
            "label": "tokenName",
            "offset": 0,
            "slot": "0",
            "type": "t_string_storage"
          },
          {
            "astId": 10651,
            "contract": "contracts/erc20/Returner.sol:Returner",
            "label": "tokenAmount",
            "offset": 0,
            "slot": "1",
            "type": "t_uint256"
          },
          {
            "astId": 10653,
            "contract": "contracts/erc20/Returner.sol:Returner",
            "label": "teleBTCAmount",
            "offset": 0,
            "slot": "2",
            "type": "t_uint256"
          }
        ],
        "numberOfBytes": "96"
      },
      "t_uint256": {
        "encoding": "inplace",
        "label": "uint256",
        "numberOfBytes": "32"
      }
    }
  }
}