{
  "address": "0x9a0a8607c09e495b13c34c3526b9567824c00098",
  "abi": [
    {
      "anonymous": false,
      "inputs": [
        {
          "indexed": true,
          "internalType": "address",
          "name": "owner",
          "type": "address"
        },
        {
          "indexed": true,
          "internalType": "address",
          "name": "spender",
          "type": "address"
        },
        {
          "indexed": false,
          "internalType": "uint256",
          "name": "value",
          "type": "uint256"
        }
      ],
      "name": "Approval",
      "type": "event"
    },
    {
      "anonymous": false,
      "inputs": [
        {
          "indexed": true,
          "internalType": "address",
          "name": "newBlackLister",
          "type": "address"
        }
      ],
      "name": "BlackListerAdded",
      "type": "event"
    },
    {
      "anonymous": false,
      "inputs": [
        {
          "indexed": true,
          "internalType": "address",
          "name": "blackLister",
          "type": "address"
        }
      ],
      "name": "BlackListerRemoved",
      "type": "event"
    },
    {
      "anonymous": false,
      "inputs": [
        {
          "indexed": true,
          "internalType": "address",
          "name": "account",
          "type": "address"
        }
      ],
      "name": "Blacklisted",
      "type": "event"
    },
    {
      "anonymous": false,
      "inputs": [
        {
          "indexed": true,
          "internalType": "address",
          "name": "doer",
          "type": "address"
        },
        {
          "indexed": true,
          "internalType": "address",
          "name": "burner",
          "type": "address"
        },
        {
          "indexed": false,
          "internalType": "uint256",
          "name": "value",
          "type": "uint256"
        }
      ],
      "name": "Burn",
      "type": "event"
    },
    {
      "anonymous": false,
      "inputs": [
        {
          "indexed": true,
          "internalType": "address",
          "name": "newBurner",
          "type": "address"
        }
      ],
      "name": "BurnerAdded",
      "type": "event"
    },
    {
      "anonymous": false,
      "inputs": [
        {
          "indexed": true,
          "internalType": "address",
          "name": "burner",
          "type": "address"
        }
      ],
      "name": "BurnerRemoved",
      "type": "event"
    },
    {
      "anonymous": false,
      "inputs": [
        {
          "indexed": false,
          "internalType": "uint8",
          "name": "version",
          "type": "uint8"
        }
      ],
      "name": "Initialized",
      "type": "event"
    },
    {
      "anonymous": false,
      "inputs": [
        {
          "indexed": true,
          "internalType": "address",
          "name": "doer",
          "type": "address"
        },
        {
          "indexed": true,
          "internalType": "address",
          "name": "receiver",
          "type": "address"
        },
        {
          "indexed": false,
          "internalType": "uint256",
          "name": "value",
          "type": "uint256"
        }
      ],
      "name": "Mint",
      "type": "event"
    },
    {
      "anonymous": false,
      "inputs": [
        {
          "indexed": true,
          "internalType": "address",
          "name": "newMinter",
          "type": "address"
        }
      ],
      "name": "MinterAdded",
      "type": "event"
    },
    {
      "anonymous": false,
      "inputs": [
        {
          "indexed": true,
          "internalType": "address",
          "name": "minter",
          "type": "address"
        }
      ],
      "name": "MinterRemoved",
      "type": "event"
    },
    {
      "anonymous": false,
      "inputs": [
        {
          "indexed": false,
          "internalType": "uint256",
          "name": "oldEpochLength",
          "type": "uint256"
        },
        {
          "indexed": false,
          "internalType": "uint256",
          "name": "newEpochLength",
          "type": "uint256"
        }
      ],
      "name": "NewEpochLength",
      "type": "event"
    },
    {
      "anonymous": false,
      "inputs": [
        {
          "indexed": false,
          "internalType": "uint256",
          "name": "oldMintLimit",
          "type": "uint256"
        },
        {
          "indexed": false,
          "internalType": "uint256",
          "name": "newMintLimit",
          "type": "uint256"
        }
      ],
      "name": "NewMintLimit",
      "type": "event"
    },
    {
      "anonymous": false,
      "inputs": [
        {
          "indexed": true,
          "internalType": "address",
          "name": "previousOwner",
          "type": "address"
        },
        {
          "indexed": true,
          "internalType": "address",
          "name": "newOwner",
          "type": "address"
        }
      ],
      "name": "OwnershipTransferred",
      "type": "event"
    },
    {
      "anonymous": false,
      "inputs": [
        {
          "indexed": true,
          "internalType": "address",
          "name": "from",
          "type": "address"
        },
        {
          "indexed": true,
          "internalType": "address",
          "name": "to",
          "type": "address"
        },
        {
          "indexed": false,
          "internalType": "uint256",
          "name": "value",
          "type": "uint256"
        }
      ],
      "name": "Transfer",
      "type": "event"
    },
    {
      "anonymous": false,
      "inputs": [
        {
          "indexed": true,
          "internalType": "address",
          "name": "account",
          "type": "address"
        }
      ],
      "name": "UnBlacklisted",
      "type": "event"
    },
    {
      "inputs": [
        {
          "internalType": "address",
          "name": "account",
          "type": "address"
        }
      ],
      "name": "addBlackLister",
      "outputs": [],
      "stateMutability": "nonpayable",
      "type": "function"
    },
    {
      "inputs": [
        {
          "internalType": "address",
          "name": "account",
          "type": "address"
        }
      ],
      "name": "addBurner",
      "outputs": [],
      "stateMutability": "nonpayable",
      "type": "function"
    },
    {
      "inputs": [
        {
          "internalType": "address",
          "name": "account",
          "type": "address"
        }
      ],
      "name": "addMinter",
      "outputs": [],
      "stateMutability": "nonpayable",
      "type": "function"
    },
    {
      "inputs": [
        {
          "internalType": "address",
          "name": "owner",
          "type": "address"
        },
        {
          "internalType": "address",
          "name": "spender",
          "type": "address"
        }
      ],
      "name": "allowance",
      "outputs": [
        {
          "internalType": "uint256",
          "name": "",
          "type": "uint256"
        }
      ],
      "stateMutability": "view",
      "type": "function"
    },
    {
      "inputs": [
        {
          "internalType": "address",
          "name": "spender",
          "type": "address"
        },
        {
          "internalType": "uint256",
          "name": "amount",
          "type": "uint256"
        }
      ],
      "name": "approve",
      "outputs": [
        {
          "internalType": "bool",
          "name": "",
          "type": "bool"
        }
      ],
      "stateMutability": "nonpayable",
      "type": "function"
    },
    {
      "inputs": [
        {
          "internalType": "address",
          "name": "account",
          "type": "address"
        }
      ],
      "name": "balanceOf",
      "outputs": [
        {
          "internalType": "uint256",
          "name": "",
          "type": "uint256"
        }
      ],
      "stateMutability": "view",
      "type": "function"
    },
    {
      "inputs": [
        {
          "internalType": "address",
          "name": "_account",
          "type": "address"
        }
      ],
      "name": "blacklist",
      "outputs": [],
      "stateMutability": "nonpayable",
      "type": "function"
    },
    {
      "inputs": [
        {
          "internalType": "address",
          "name": "",
          "type": "address"
        }
      ],
      "name": "blacklisters",
      "outputs": [
        {
          "internalType": "bool",
          "name": "",
          "type": "bool"
        }
      ],
      "stateMutability": "view",
      "type": "function"
    },
    {
      "inputs": [
        {
          "internalType": "uint256",
          "name": "_amount",
          "type": "uint256"
        }
      ],
      "name": "burn",
      "outputs": [
        {
          "internalType": "bool",
          "name": "",
          "type": "bool"
        }
      ],
      "stateMutability": "nonpayable",
      "type": "function"
    },
    {
      "inputs": [
        {
          "internalType": "address",
          "name": "",
          "type": "address"
        }
      ],
      "name": "burners",
      "outputs": [
        {
          "internalType": "bool",
          "name": "",
          "type": "bool"
        }
      ],
      "stateMutability": "view",
      "type": "function"
    },
    {
      "inputs": [],
      "name": "decimals",
      "outputs": [
        {
          "internalType": "uint8",
          "name": "",
          "type": "uint8"
        }
      ],
      "stateMutability": "view",
      "type": "function"
    },
    {
      "inputs": [
        {
          "internalType": "address",
          "name": "spender",
          "type": "address"
        },
        {
          "internalType": "uint256",
          "name": "subtractedValue",
          "type": "uint256"
        }
      ],
      "name": "decreaseAllowance",
      "outputs": [
        {
          "internalType": "bool",
          "name": "",
          "type": "bool"
        }
      ],
      "stateMutability": "nonpayable",
      "type": "function"
    },
    {
      "inputs": [],
      "name": "epochLength",
      "outputs": [
        {
          "internalType": "uint256",
          "name": "",
          "type": "uint256"
        }
      ],
      "stateMutability": "view",
      "type": "function"
    },
    {
      "inputs": [
        {
          "internalType": "address",
          "name": "spender",
          "type": "address"
        },
        {
          "internalType": "uint256",
          "name": "addedValue",
          "type": "uint256"
        }
      ],
      "name": "increaseAllowance",
      "outputs": [
        {
          "internalType": "bool",
          "name": "",
          "type": "bool"
        }
      ],
      "stateMutability": "nonpayable",
      "type": "function"
    },
    {
      "inputs": [
        {
          "internalType": "string",
          "name": "_name",
          "type": "string"
        },
        {
          "internalType": "string",
          "name": "_symbol",
          "type": "string"
        }
      ],
      "name": "initialize",
      "outputs": [],
      "stateMutability": "nonpayable",
      "type": "function"
    },
    {
      "inputs": [
        {
          "internalType": "address",
          "name": "account",
          "type": "address"
        }
      ],
      "name": "isBlackListed",
      "outputs": [
        {
          "internalType": "bool",
          "name": "",
          "type": "bool"
        }
      ],
      "stateMutability": "view",
      "type": "function"
    },
    {
      "inputs": [],
      "name": "lastEpoch",
      "outputs": [
        {
          "internalType": "uint256",
          "name": "",
          "type": "uint256"
        }
      ],
      "stateMutability": "view",
      "type": "function"
    },
    {
      "inputs": [],
      "name": "lastMintLimit",
      "outputs": [
        {
          "internalType": "uint256",
          "name": "",
          "type": "uint256"
        }
      ],
      "stateMutability": "view",
      "type": "function"
    },
    {
      "inputs": [],
      "name": "maxMintLimit",
      "outputs": [
        {
          "internalType": "uint256",
          "name": "",
          "type": "uint256"
        }
      ],
      "stateMutability": "view",
      "type": "function"
    },
    {
      "inputs": [
        {
          "internalType": "address",
          "name": "_receiver",
          "type": "address"
        },
        {
          "internalType": "uint256",
          "name": "_amount",
          "type": "uint256"
        }
      ],
      "name": "mint",
      "outputs": [
        {
          "internalType": "bool",
          "name": "",
          "type": "bool"
        }
      ],
      "stateMutability": "nonpayable",
      "type": "function"
    },
    {
      "inputs": [
        {
          "internalType": "address",
          "name": "",
          "type": "address"
        }
      ],
      "name": "minters",
      "outputs": [
        {
          "internalType": "bool",
          "name": "",
          "type": "bool"
        }
      ],
      "stateMutability": "view",
      "type": "function"
    },
    {
      "inputs": [],
      "name": "name",
      "outputs": [
        {
          "internalType": "string",
          "name": "",
          "type": "string"
        }
      ],
      "stateMutability": "view",
      "type": "function"
    },
    {
      "inputs": [],
      "name": "owner",
      "outputs": [
        {
          "internalType": "address",
          "name": "",
          "type": "address"
        }
      ],
      "stateMutability": "view",
      "type": "function"
    },
    {
      "inputs": [
        {
          "internalType": "address",
          "name": "_user",
          "type": "address"
        },
        {
          "internalType": "uint256",
          "name": "_amount",
          "type": "uint256"
        }
      ],
      "name": "ownerBurn",
      "outputs": [
        {
          "internalType": "bool",
          "name": "",
          "type": "bool"
        }
      ],
      "stateMutability": "nonpayable",
      "type": "function"
    },
    {
      "inputs": [
        {
          "internalType": "address",
          "name": "account",
          "type": "address"
        }
      ],
      "name": "removeBlackLister",
      "outputs": [],
      "stateMutability": "nonpayable",
      "type": "function"
    },
    {
      "inputs": [
        {
          "internalType": "address",
          "name": "account",
          "type": "address"
        }
      ],
      "name": "removeBurner",
      "outputs": [],
      "stateMutability": "nonpayable",
      "type": "function"
    },
    {
      "inputs": [
        {
          "internalType": "address",
          "name": "account",
          "type": "address"
        }
      ],
      "name": "removeMinter",
      "outputs": [],
      "stateMutability": "nonpayable",
      "type": "function"
    },
    {
      "inputs": [],
      "name": "renounceOwnership",
      "outputs": [],
      "stateMutability": "nonpayable",
      "type": "function"
    },
    {
      "inputs": [
        {
          "internalType": "uint256",
          "name": "_length",
          "type": "uint256"
        }
      ],
      "name": "setEpochLength",
      "outputs": [],
      "stateMutability": "nonpayable",
      "type": "function"
    },
    {
      "inputs": [
        {
          "internalType": "uint256",
          "name": "_mintLimit",
          "type": "uint256"
        }
      ],
      "name": "setMaxMintLimit",
      "outputs": [],
      "stateMutability": "nonpayable",
      "type": "function"
    },
    {
      "inputs": [],
      "name": "symbol",
      "outputs": [
        {
          "internalType": "string",
          "name": "",
          "type": "string"
        }
      ],
      "stateMutability": "view",
      "type": "function"
    },
    {
      "inputs": [],
      "name": "totalSupply",
      "outputs": [
        {
          "internalType": "uint256",
          "name": "",
          "type": "uint256"
        }
      ],
      "stateMutability": "view",
      "type": "function"
    },
    {
      "inputs": [
        {
          "internalType": "address",
          "name": "to",
          "type": "address"
        },
        {
          "internalType": "uint256",
          "name": "amount",
          "type": "uint256"
        }
      ],
      "name": "transfer",
      "outputs": [
        {
          "internalType": "bool",
          "name": "",
          "type": "bool"
        }
      ],
      "stateMutability": "nonpayable",
      "type": "function"
    },
    {
      "inputs": [
        {
          "internalType": "address",
          "name": "from",
          "type": "address"
        },
        {
          "internalType": "address",
          "name": "to",
          "type": "address"
        },
        {
          "internalType": "uint256",
          "name": "amount",
          "type": "uint256"
        }
      ],
      "name": "transferFrom",
      "outputs": [
        {
          "internalType": "bool",
          "name": "",
          "type": "bool"
        }
      ],
      "stateMutability": "nonpayable",
      "type": "function"
    },
    {
      "inputs": [
        {
          "internalType": "address",
          "name": "newOwner",
          "type": "address"
        }
      ],
      "name": "transferOwnership",
      "outputs": [],
      "stateMutability": "nonpayable",
      "type": "function"
    },
    {
      "inputs": [
        {
          "internalType": "address",
          "name": "_account",
          "type": "address"
        }
      ],
      "name": "unBlacklist",
      "outputs": [],
      "stateMutability": "nonpayable",
      "type": "function"
    }
  ],
  "transactionHash": "0xa2743fd322db9f6c7738eb594650d0a1676e9302e4b5711d7416ba48de544882",
  "args": [],
  "numDeployments": 1,
  "solcInputHash": "3d62e281d24c4e907d9804e17a5978b8",
  "bytecode": "0x608060405234801561001057600080fd5b50611ef6806100206000396000f3fe608060405234801561001057600080fd5b506004361061021c5760003560e01c806370a0823111610125578063a9a99c0d116100ad578063f2fde38b1161007c578063f2fde38b1461049f578063f44637ba146104b2578063f46eccc4146104c5578063f926b50c146104e8578063f9f92be4146104fb5761021c565b8063a9a99c0d1461043a578063c00017861461044d578063dd62ed3e14610460578063e47d6060146104735761021c565b80638da5cb5b116100f45780638da5cb5b146103de57806395d89b41146103f9578063983b2d5614610401578063a457c2d714610414578063a9059cbb146104275761021c565b806370a082311461039157806370e2f827146103ba578063715018a6146103c357806379de8d35146103cb5761021c565b80632f99582a116101a857806340c10f191161017757806340c10f191461033c57806342966c681461034f5780634cd88b761461036257806354eea7961461037557806357d775f8146103885761021c565b80632f99582a146102fe5780633092afd514610307578063313ce5671461031a57806339509351146103295761021c565b8063095ea7b3116101ef578063095ea7b31461029a5780630cb13b2e146102ad57806318160ddd146102d05780631a895266146102d857806323b872dd146102eb5761021c565b8063028468581461022157806303d41e0e1461023657806306a4c9831461026e57806306fdde0314610285575b600080fd5b61023461022f366004611b9f565b61050e565b005b610259610244366004611b9f565b60ca6020526000908152604090205460ff1681565b60405190151581526020015b60405180910390f35b61027760d05481565b604051908152602001610265565b61028d61058d565b6040516102659190611ccf565b6102596102a8366004611c2d565b61061f565b6102596102bb366004611b9f565b60cb6020526000908152604090205460ff1681565b603554610277565b6102346102e6366004611b9f565b610639565b6102596102f9366004611bf2565b6106ea565b61027760ce5481565b610234610315366004611b9f565b61070e565b60405160088152602001610265565b610259610337366004611c2d565b610784565b61025961034a366004611c2d565b6107a6565b61025961035d366004611cb7565b61092d565b610234610370366004611c56565b6109df565b610234610383366004611cb7565b610b17565b61027760cf5481565b61027761039f366004611b9f565b6001600160a01b031660009081526033602052604090205490565b61027760cd5481565b610234610bab565b6102346103d9366004611b9f565b610bb5565b6065546040516001600160a01b039091168152602001610265565b61028d610c2b565b61023461040f366004611b9f565b610c3a565b610259610422366004611c2d565b610cb4565b610259610435366004611c2d565b610d2f565b610234610448366004611b9f565b610d3d565b61025961045b366004611c2d565b610db7565b61027761046e366004611bc0565b610e9c565b610259610481366004611b9f565b6001600160a01b0316600090815260cc602052604090205460ff1690565b6102346104ad366004611b9f565b610ec7565b6102346104c0366004611b9f565b610f3d565b6102596104d3366004611b9f565b60c96020526000908152604090205460ff1681565b6102346104f6366004611cb7565b610fb7565b610234610509366004611b9f565b611000565b6105166110b0565b61051f8161110a565b6105445760405162461bcd60e51b815260040161053b90611d51565b60405180910390fd5b6001600160a01b038116600081815260ca6020526040808220805460ff19169055517f90eabbc0c667db2a5029ed6bc0f5fe9f356d11684a4ca9fcfaec0e53f12b9c8e9190a250565b60606036805461059c90611e59565b80601f01602080910402602001604051908101604052809291908181526020018280546105c890611e59565b80156106155780601f106105ea57610100808354040283529160200191610615565b820191906000526020600020905b8154815290600101906020018083116105f857829003601f168201915b5050505050905090565b60003361062d818585611151565b60019150505b92915050565b610641611275565b61064b335b6112cf565b6106975760405162461bcd60e51b815260206004820152601a60248201527f54656c654254433a206f6e6c7920626c61636b6c697374657273000000000000604482015260640161053b565b6001600160a01b038116600081815260cc6020526040808220805460ff19169055517f117e3210bb9aa7d9baff172026820255c6f6c30ba8999d1c2fd88e2848137c4e9190a26106e76001609755565b50565b6000336106f885828561131d565b610703858585611397565b506001949350505050565b6107166110b0565b61071f8161154d565b61073b5760405162461bcd60e51b815260040161053b90611d51565b6001600160a01b038116600081815260c96020526040808220805460ff19169055517fe94479a9f7e1952cc78f2d6baab678adc1b772d936c6583def489e524cb666929190a250565b60003361062d8185856107978383610e9c565b6107a19190611e0a565b611151565b60006107b0611275565b6107b93361154d565b6108055760405162461bcd60e51b815260206004820152601e60248201527f54656c654254433a206f6e6c79206d696e746572732063616e206d696e740000604482015260640161053b565b60cd548211156108745760405162461bcd60e51b815260206004820152603460248201527f54656c654254433a206d696e7420616d6f756e74206973206d6f7265207468616044820152731b881b585e1a5b5d5b481b5a5b9d081b1a5b5a5d60621b606482015260840161053b565b61087d82611594565b6108d55760405162461bcd60e51b815260206004820152602360248201527f54656c654254433a2072656163686564206d6178696d756d206d696e74206c696044820152621b5a5d60ea1b606482015260840161053b565b6108df8383611602565b6040518281526001600160a01b0384169033907fab8530f87dc9b59234c4623bf917212bb2536d647574c8e7e5da92c2ede0c9f8906020015b60405180910390a35060016106336001609755565b6000610937611275565b6109403361110a565b61098c5760405162461bcd60e51b815260206004820152601e60248201527f54656c654254433a206f6e6c79206275726e6572732063616e206275726e0000604482015260640161053b565b61099633836116d0565b604051828152339081907fbac40739b0d4ca32fa2d82fc91630465ba3eddd1598da6fca393b26fb63b94539060200160405180910390a35060016109da6001609755565b919050565b600054610100900460ff16158080156109ff5750600054600160ff909116105b80610a195750303b158015610a19575060005460ff166001145b610a7c5760405162461bcd60e51b815260206004820152602e60248201527f496e697469616c697a61626c653a20636f6e747261637420697320616c72656160448201526d191e481a5b9a5d1a585b1a5e995960921b606482015260840161053b565b6000805460ff191660011790558015610a9f576000805461ff0019166101001790555b610aa98383611810565b610ab1611841565b610ab9611870565b6305f5e10060cd81905560ce556107d060cf558015610b12576000805461ff0019169055604051600181527f7f26b83ff96e1f2b6a682f133852f6798a09c465da95921460cefb38474024989060200160405180910390a15b505050565b610b1f6110b0565b8060008111610b695760405162461bcd60e51b815260206004820152601660248201527554656c654254433a2076616c7565206973207a65726f60501b604482015260640161053b565b60cf5460408051918252602082018490527fd077b1717c042dc03e7eb68030220b62f703db305be2ffb5b9e1d91b639a63f9910160405180910390a15060cf55565b610bb36110b0565b565b610bbd6110b0565b610bc6816112cf565b610be25760405162461bcd60e51b815260040161053b90611d51565b6001600160a01b038116600081815260cb6020526040808220805460ff19169055517f607ec77f7f06689ae7a01995caa85bbfcf586a9139e10f97347c90aa8cadd5099190a250565b60606037805461059c90611e59565b610c426110b0565b610c4b8161154d565b15610c685760405162461bcd60e51b815260040161053b90611dd3565b6001600160a01b038116600081815260c96020526040808220805460ff19166001179055517f6ae172837ea30b801fbfcdd4108aa1d5bf8ff775444fd70256b44e6bf3dfc3f69190a250565b60003381610cc28286610e9c565b905083811015610d225760405162461bcd60e51b815260206004820152602560248201527f45524332303a2064656372656173656420616c6c6f77616e63652062656c6f77604482015264207a65726f60d81b606482015260840161053b565b6107038286868403611151565b60003361062d818585611397565b610d456110b0565b610d4e816112cf565b15610d6b5760405162461bcd60e51b815260040161053b90611dd3565b6001600160a01b038116600081815260cb6020526040808220805460ff19166001179055517fb41bc3cdd4276b81dcdeb2f03c2457457661be122c22ade780eacc9398e975829190a250565b6000610dc1611275565b610dc96110b0565b6001600160a01b038316600090815260cc602052604090205460ff1615610e3c576001600160a01b038316600090815260cc60205260409020805460ff19169055610e1483836116d0565b6001600160a01b038316600090815260cc60205260409020805460ff19166001179055610e46565b610e4683836116d0565b826001600160a01b0316610e626065546001600160a01b031690565b6001600160a01b03167fbac40739b0d4ca32fa2d82fc91630465ba3eddd1598da6fca393b26fb63b94538460405161091891815260200190565b6001600160a01b03918216600090815260346020908152604080832093909416825291909152205490565b610ecf6110b0565b6001600160a01b038116610f345760405162461bcd60e51b815260206004820152602660248201527f4f776e61626c653a206e6577206f776e657220697320746865207a65726f206160448201526564647265737360d01b606482015260840161053b565b6106e78161189f565b610f456110b0565b610f4e8161110a565b15610f6b5760405162461bcd60e51b815260040161053b90611dd3565b6001600160a01b038116600081815260ca6020526040808220805460ff19166001179055517f86e57fd2b90329052917118de7c3f521f400d439b9650deaa906a25b08b945609190a250565b610fbf6110b0565b60cd5460408051918252602082018390527f36ab29917278ebced3c63670f7872f78555ed7cdb4aa5184a159eb978be79508910160405180910390a160cd55565b611008611275565b61101133610646565b61105d5760405162461bcd60e51b815260206004820152601a60248201527f54656c654254433a206f6e6c7920626c61636b6c697374657273000000000000604482015260640161053b565b6001600160a01b038116600081815260cc6020526040808220805460ff19166001179055517fffa4e6181777692565cf28528fc88fd1516ea86b56da075235fa575af6a4b8559190a26106e76001609755565b6065546001600160a01b03163314610bb35760405162461bcd60e51b815260206004820181905260248201527f4f776e61626c653a2063616c6c6572206973206e6f7420746865206f776e6572604482015260640161053b565b60006001600160a01b0382166111325760405162461bcd60e51b815260040161053b90611d22565b506001600160a01b0316600090815260ca602052604090205460ff1690565b6001600160a01b0383166111b35760405162461bcd60e51b8152602060048201526024808201527f45524332303a20617070726f76652066726f6d20746865207a65726f206164646044820152637265737360e01b606482015260840161053b565b6001600160a01b0382166112145760405162461bcd60e51b815260206004820152602260248201527f45524332303a20617070726f766520746f20746865207a65726f206164647265604482015261737360f01b606482015260840161053b565b6001600160a01b0383811660008181526034602090815260408083209487168084529482529182902085905590518481527f8c5be1e5ebec7d5bd14f71427d1e84f3dd0314c0f7b2291e5b200ac8c7c3b925910160405180910390a3505050565b600260975414156112c85760405162461bcd60e51b815260206004820152601f60248201527f5265656e7472616e637947756172643a207265656e7472616e742063616c6c00604482015260640161053b565b6002609755565b60006001600160a01b0382166112f75760405162461bcd60e51b815260040161053b90611d22565b506001600160a01b0316600090815260cb602052604090205460ff1690565b6001609755565b60006113298484610e9c565b9050600019811461139157818110156113845760405162461bcd60e51b815260206004820152601d60248201527f45524332303a20696e73756666696369656e7420616c6c6f77616e6365000000604482015260640161053b565b6113918484848403611151565b50505050565b6001600160a01b0383166113fb5760405162461bcd60e51b815260206004820152602560248201527f45524332303a207472616e736665722066726f6d20746865207a65726f206164604482015264647265737360d81b606482015260840161053b565b6001600160a01b03821661145d5760405162461bcd60e51b815260206004820152602360248201527f45524332303a207472616e7366657220746f20746865207a65726f206164647260448201526265737360e81b606482015260840161053b565b6114688383836118f1565b6001600160a01b038316600090815260336020526040902054818110156114e05760405162461bcd60e51b815260206004820152602660248201527f45524332303a207472616e7366657220616d6f756e7420657863656564732062604482015265616c616e636560d01b606482015260840161053b565b6001600160a01b0380851660008181526033602052604080822086860390559286168082529083902080548601905591517fddf252ad1be2c89b69c2b068fc378daa952ba7f163c4a11628f55a4df523b3ef906115409086815260200190565b60405180910390a3611391565b60006001600160a01b0382166115755760405162461bcd60e51b815260040161053b90611d22565b506001600160a01b0316600090815260c9602052604090205460ff1690565b60008060cf54436115a59190611e22565b905060d0548114156115e25760ce548311156115c55760009150506109da565b8260ce60008282546115d79190611e42565b909155506115f99050565b60d081905560cd546115f5908490611e42565b60ce555b50600192915050565b6001600160a01b0382166116585760405162461bcd60e51b815260206004820152601f60248201527f45524332303a206d696e7420746f20746865207a65726f206164647265737300604482015260640161053b565b611664600083836118f1565b80603560008282546116769190611e0a565b90915550506001600160a01b0382166000818152603360209081526040808320805486019055518481527fddf252ad1be2c89b69c2b068fc378daa952ba7f163c4a11628f55a4df523b3ef910160405180910390a35b5050565b6001600160a01b0382166117305760405162461bcd60e51b815260206004820152602160248201527f45524332303a206275726e2066726f6d20746865207a65726f206164647265736044820152607360f81b606482015260840161053b565b61173c826000836118f1565b6001600160a01b038216600090815260336020526040902054818110156117b05760405162461bcd60e51b815260206004820152602260248201527f45524332303a206275726e20616d6f756e7420657863656564732062616c616e604482015261636560f01b606482015260840161053b565b6001600160a01b03831660008181526033602090815260408083208686039055603580548790039055518581529192917fddf252ad1be2c89b69c2b068fc378daa952ba7f163c4a11628f55a4df523b3ef910160405180910390a3610b12565b600054610100900460ff166118375760405162461bcd60e51b815260040161053b90611d88565b6116cc82826119c3565b600054610100900460ff166118685760405162461bcd60e51b815260040161053b90611d88565b610bb3611a11565b600054610100900460ff166118975760405162461bcd60e51b815260040161053b90611d88565b610bb3611a41565b606580546001600160a01b038381166001600160a01b0319831681179093556040519116919082907f8be0079c531659141344cd1fd0a4f28419497f9722a3daafe3b4186f6b6457e090600090a35050565b6001600160a01b038316600090815260cc602052604090205460ff161561195a5760405162461bcd60e51b815260206004820152601c60248201527f54656c654254433a2066726f6d20697320626c61636b6c697374656400000000604482015260640161053b565b6001600160a01b038216600090815260cc602052604090205460ff1615610b125760405162461bcd60e51b815260206004820152601a60248201527f54656c654254433a20746f20697320626c61636b6c6973746564000000000000604482015260640161053b565b600054610100900460ff166119ea5760405162461bcd60e51b815260040161053b90611d88565b81516119fd906036906020850190611a68565b508051610b12906037906020840190611a68565b600054610100900460ff16611a385760405162461bcd60e51b815260040161053b90611d88565b610bb33361189f565b600054610100900460ff166113165760405162461bcd60e51b815260040161053b90611d88565b828054611a7490611e59565b90600052602060002090601f016020900481019282611a965760008555611adc565b82601f10611aaf57805160ff1916838001178555611adc565b82800160010185558215611adc579182015b82811115611adc578251825591602001919060010190611ac1565b50611ae8929150611aec565b5090565b5b80821115611ae85760008155600101611aed565b80356001600160a01b03811681146109da57600080fd5b600082601f830112611b28578081fd5b813567ffffffffffffffff80821115611b4357611b43611eaa565b604051601f8301601f19908116603f01168101908282118183101715611b6b57611b6b611eaa565b81604052838152866020858801011115611b83578485fd5b8360208701602083013792830160200193909352509392505050565b600060208284031215611bb0578081fd5b611bb982611b01565b9392505050565b60008060408385031215611bd2578081fd5b611bdb83611b01565b9150611be960208401611b01565b90509250929050565b600080600060608486031215611c06578081fd5b611c0f84611b01565b9250611c1d60208501611b01565b9150604084013590509250925092565b60008060408385031215611c3f578182fd5b611c4883611b01565b946020939093013593505050565b60008060408385031215611c68578182fd5b823567ffffffffffffffff80821115611c7f578384fd5b611c8b86838701611b18565b93506020850135915080821115611ca0578283fd5b50611cad85828601611b18565b9150509250929050565b600060208284031215611cc8578081fd5b5035919050565b6000602080835283518082850152825b81811015611cfb57858101830151858201604001528201611cdf565b81811115611d0c5783604083870101525b50601f01601f1916929092016040019392505050565b60208082526015908201527454656c654254433a207a65726f206164647265737360581b604082015260600190565b6020808252601b908201527f54656c654254433a20646f6573206e6f74206861766520726f6c650000000000604082015260600190565b6020808252602b908201527f496e697469616c697a61626c653a20636f6e7472616374206973206e6f74206960408201526a6e697469616c697a696e6760a81b606082015260800190565b60208082526019908201527f54656c654254433a20616c72656164792068617320726f6c6500000000000000604082015260600190565b60008219821115611e1d57611e1d611e94565b500190565b600082611e3d57634e487b7160e01b81526012600452602481fd5b500490565b600082821015611e5457611e54611e94565b500390565b600281046001821680611e6d57607f821691505b60208210811415611e8e57634e487b7160e01b600052602260045260246000fd5b50919050565b634e487b7160e01b600052601160045260246000fd5b634e487b7160e01b600052604160045260246000fdfea26469706673582212202ce6b1c8aa24b381fea8b236c813e20f575406b5c9cfbf45cd42c213317e482964736f6c63430008020033",
  "devdoc": {
    "kind": "dev",
    "methods": {
      "addBlackLister(address)": {
        "details": "Only owner can call this function",
        "params": {
          "account": "The account which intended to be added to blacklisters"
        }
      },
      "addBurner(address)": {
        "details": "Only owner can call this function",
        "params": {
          "account": "The account which intended to be added to burners"
        }
      },
      "addMinter(address)": {
        "details": "Only owner can call this function",
        "params": {
          "account": "The account which intended to be added to minters"
        }
      },
      "allowance(address,address)": {
        "details": "See {IERC20-allowance}."
      },
      "approve(address,uint256)": {
        "details": "See {IERC20-approve}. NOTE: If `amount` is the maximum `uint256`, the allowance is not updated on `transferFrom`. This is semantically equivalent to an infinite approval. Requirements: - `spender` cannot be the zero address."
      },
      "balanceOf(address)": {
        "details": "See {IERC20-balanceOf}."
      },
      "blacklist(address)": {
        "details": "Only Blacklisters can call this",
        "params": {
          "_account": "Account blacklisted"
        }
      },
      "burn(uint256)": {
        "details": "Only burners can call this",
        "params": {
          "_amount": "Amount of burnt tokens"
        }
      },
      "decreaseAllowance(address,uint256)": {
        "details": "Atomically decreases the allowance granted to `spender` by the caller. This is an alternative to {approve} that can be used as a mitigation for problems described in {IERC20-approve}. Emits an {Approval} event indicating the updated allowance. Requirements: - `spender` cannot be the zero address. - `spender` must have allowance for the caller of at least `subtractedValue`."
      },
      "increaseAllowance(address,uint256)": {
        "details": "Atomically increases the allowance granted to `spender` by the caller. This is an alternative to {approve} that can be used as a mitigation for problems described in {IERC20-approve}. Emits an {Approval} event indicating the updated allowance. Requirements: - `spender` cannot be the zero address."
      },
      "isBlackListed(address)": {
        "details": "Check if an account is blacklisted.",
        "returns": {
          "_0": "bool"
        }
      },
      "mint(address,uint256)": {
        "details": "Only minters can call this",
        "params": {
          "_amount": "Amount of minted tokens",
          "_receiver": "Address of token's receiver"
        }
      },
      "name()": {
        "details": "Returns the name of the token."
      },
      "owner()": {
        "details": "Returns the address of the current owner."
      },
      "ownerBurn(address,uint256)": {
        "details": "Only owner can call this",
        "params": {
          "_amount": "Amount of burnt tokens",
          "_user": "Address of user whose teleBTC is burnt"
        }
      },
      "removeBlackLister(address)": {
        "details": "Only owner can call this function",
        "params": {
          "account": "The account which intended to be removed from blacklisters"
        }
      },
      "removeBurner(address)": {
        "details": "Only owner can call this function",
        "params": {
          "account": "The account which intended to be removed from burners"
        }
      },
      "removeMinter(address)": {
        "details": "Only owner can call this function",
        "params": {
          "account": "The account which intended to be removed from minters"
        }
      },
      "renounceOwnership()": {
        "details": "Leaves the contract without owner. It will not be possible to call `onlyOwner` functions anymore. Can only be called by the current owner. NOTE: Renouncing ownership will leave the contract without an owner, thereby removing any functionality that is only available to the owner."
      },
      "setEpochLength(uint256)": {
        "details": "change blocks number per epoch."
      },
      "setMaxMintLimit(uint256)": {
        "details": "change maximum mint limit per epoch."
      },
      "symbol()": {
        "details": "Returns the symbol of the token, usually a shorter version of the name."
      },
      "totalSupply()": {
        "details": "See {IERC20-totalSupply}."
      },
      "transfer(address,uint256)": {
        "details": "See {IERC20-transfer}. Requirements: - `to` cannot be the zero address. - the caller must have a balance of at least `amount`."
      },
      "transferFrom(address,address,uint256)": {
        "details": "See {IERC20-transferFrom}. Emits an {Approval} event indicating the updated allowance. This is not required by the EIP. See the note at the beginning of {ERC20}. NOTE: Does not update the allowance if the current allowance is the maximum `uint256`. Requirements: - `from` and `to` cannot be the zero address. - `from` must have a balance of at least `amount`. - the caller must have allowance for ``from``'s tokens of at least `amount`."
      },
      "transferOwnership(address)": {
        "details": "Transfers ownership of the contract to a new account (`newOwner`). Can only be called by the current owner."
      },
      "unBlacklist(address)": {
        "details": "Only Blacklisters can call this",
        "params": {
          "_account": "Account unblacklisted"
        }
      }
    },
    "version": 1
  },
  "userdoc": {
    "kind": "user",
    "methods": {
      "addBlackLister(address)": {
        "notice": "Adds a blacklister"
      },
      "addBurner(address)": {
        "notice": "Adds a burner"
      },
      "addMinter(address)": {
        "notice": "Adds a minter"
      },
      "blacklist(address)": {
        "notice": "Blacklist an account"
      },
      "burn(uint256)": {
        "notice": "Burns TeleBTC tokens of msg.sender"
      },
      "mint(address,uint256)": {
        "notice": "Mints TeleBTC tokens for _receiver"
      },
      "ownerBurn(address,uint256)": {
        "notice": "Burns TeleBTC tokens of user"
      },
      "removeBlackLister(address)": {
        "notice": "Removes a blacklister"
      },
      "removeBurner(address)": {
        "notice": "Removes a burner"
      },
      "removeMinter(address)": {
        "notice": "Removes a minter"
      },
      "unBlacklist(address)": {
        "notice": "UnBlacklist an account"
      }
    },
    "version": 1
  },
  "storageLayout": {
    "storage": [
      {
        "astId": 184,
        "contract": "contracts/erc20/TeleBTCLogic.sol:TeleBTCLogic",
        "label": "_initialized",
        "offset": 0,
        "slot": "0",
        "type": "t_uint8"
      },
      {
        "astId": 187,
        "contract": "contracts/erc20/TeleBTCLogic.sol:TeleBTCLogic",
        "label": "_initializing",
        "offset": 1,
        "slot": "0",
        "type": "t_bool"
      },
      {
        "astId": 1586,
        "contract": "contracts/erc20/TeleBTCLogic.sol:TeleBTCLogic",
        "label": "__gap",
        "offset": 0,
        "slot": "1",
        "type": "t_array(t_uint256)50_storage"
      },
      {
        "astId": 565,
        "contract": "contracts/erc20/TeleBTCLogic.sol:TeleBTCLogic",
        "label": "_balances",
        "offset": 0,
        "slot": "51",
        "type": "t_mapping(t_address,t_uint256)"
      },
      {
        "astId": 571,
        "contract": "contracts/erc20/TeleBTCLogic.sol:TeleBTCLogic",
        "label": "_allowances",
        "offset": 0,
        "slot": "52",
        "type": "t_mapping(t_address,t_mapping(t_address,t_uint256))"
      },
      {
        "astId": 573,
        "contract": "contracts/erc20/TeleBTCLogic.sol:TeleBTCLogic",
        "label": "_totalSupply",
        "offset": 0,
        "slot": "53",
        "type": "t_uint256"
      },
      {
        "astId": 575,
        "contract": "contracts/erc20/TeleBTCLogic.sol:TeleBTCLogic",
        "label": "_name",
        "offset": 0,
        "slot": "54",
        "type": "t_string_storage"
      },
      {
        "astId": 577,
        "contract": "contracts/erc20/TeleBTCLogic.sol:TeleBTCLogic",
        "label": "_symbol",
        "offset": 0,
        "slot": "55",
        "type": "t_string_storage"
      },
      {
        "astId": 1157,
        "contract": "contracts/erc20/TeleBTCLogic.sol:TeleBTCLogic",
        "label": "__gap",
        "offset": 0,
        "slot": "56",
        "type": "t_array(t_uint256)45_storage"
      },
      {
        "astId": 56,
        "contract": "contracts/erc20/TeleBTCLogic.sol:TeleBTCLogic",
        "label": "_owner",
        "offset": 0,
        "slot": "101",
        "type": "t_address"
      },
      {
        "astId": 176,
        "contract": "contracts/erc20/TeleBTCLogic.sol:TeleBTCLogic",
        "label": "__gap",
        "offset": 0,
        "slot": "102",
        "type": "t_array(t_uint256)49_storage"
      },
      {
        "astId": 487,
        "contract": "contracts/erc20/TeleBTCLogic.sol:TeleBTCLogic",
        "label": "_status",
        "offset": 0,
        "slot": "151",
        "type": "t_uint256"
      },
      {
        "astId": 545,
        "contract": "contracts/erc20/TeleBTCLogic.sol:TeleBTCLogic",
        "label": "__gap",
        "offset": 0,
        "slot": "152",
        "type": "t_array(t_uint256)49_storage"
      },
      {
        "astId": 11047,
        "contract": "contracts/erc20/TeleBTCLogic.sol:TeleBTCLogic",
        "label": "minters",
        "offset": 0,
        "slot": "201",
        "type": "t_mapping(t_address,t_bool)"
      },
      {
        "astId": 11051,
        "contract": "contracts/erc20/TeleBTCLogic.sol:TeleBTCLogic",
        "label": "burners",
        "offset": 0,
        "slot": "202",
        "type": "t_mapping(t_address,t_bool)"
      },
      {
        "astId": 11055,
        "contract": "contracts/erc20/TeleBTCLogic.sol:TeleBTCLogic",
        "label": "blacklisters",
        "offset": 0,
        "slot": "203",
        "type": "t_mapping(t_address,t_bool)"
      },
      {
        "astId": 11059,
        "contract": "contracts/erc20/TeleBTCLogic.sol:TeleBTCLogic",
        "label": "blacklisted",
        "offset": 0,
        "slot": "204",
        "type": "t_mapping(t_address,t_bool)"
      },
      {
        "astId": 11061,
        "contract": "contracts/erc20/TeleBTCLogic.sol:TeleBTCLogic",
        "label": "maxMintLimit",
        "offset": 0,
        "slot": "205",
        "type": "t_uint256"
      },
      {
        "astId": 11063,
        "contract": "contracts/erc20/TeleBTCLogic.sol:TeleBTCLogic",
        "label": "lastMintLimit",
        "offset": 0,
        "slot": "206",
        "type": "t_uint256"
      },
      {
        "astId": 11065,
        "contract": "contracts/erc20/TeleBTCLogic.sol:TeleBTCLogic",
        "label": "epochLength",
        "offset": 0,
        "slot": "207",
        "type": "t_uint256"
      },
      {
        "astId": 11067,
        "contract": "contracts/erc20/TeleBTCLogic.sol:TeleBTCLogic",
        "label": "lastEpoch",
        "offset": 0,
        "slot": "208",
        "type": "t_uint256"
      }
    ],
    "types": {
      "t_address": {
        "encoding": "inplace",
        "label": "address",
        "numberOfBytes": "20"
      },
      "t_array(t_uint256)45_storage": {
        "base": "t_uint256",
        "encoding": "inplace",
        "label": "uint256[45]",
        "numberOfBytes": "1440"
      },
      "t_array(t_uint256)49_storage": {
        "base": "t_uint256",
        "encoding": "inplace",
        "label": "uint256[49]",
        "numberOfBytes": "1568"
      },
      "t_array(t_uint256)50_storage": {
        "base": "t_uint256",
        "encoding": "inplace",
        "label": "uint256[50]",
        "numberOfBytes": "1600"
      },
      "t_bool": {
        "encoding": "inplace",
        "label": "bool",
        "numberOfBytes": "1"
      },
      "t_mapping(t_address,t_bool)": {
        "encoding": "mapping",
        "key": "t_address",
        "label": "mapping(address => bool)",
        "numberOfBytes": "32",
        "value": "t_bool"
      },
      "t_mapping(t_address,t_mapping(t_address,t_uint256))": {
        "encoding": "mapping",
        "key": "t_address",
        "label": "mapping(address => mapping(address => uint256))",
        "numberOfBytes": "32",
        "value": "t_mapping(t_address,t_uint256)"
      },
      "t_mapping(t_address,t_uint256)": {
        "encoding": "mapping",
        "key": "t_address",
        "label": "mapping(address => uint256)",
        "numberOfBytes": "32",
        "value": "t_uint256"
      },
      "t_string_storage": {
        "encoding": "bytes",
        "label": "string",
        "numberOfBytes": "32"
      },
      "t_uint256": {
        "encoding": "inplace",
        "label": "uint256",
        "numberOfBytes": "32"
      },
      "t_uint8": {
        "encoding": "inplace",
        "label": "uint8",
        "numberOfBytes": "1"
      }
    }
  }
}