{
  "address": "0x14C91369635Fe44580cA45F1ec7D7192B8E6725A",
  "abi": [
    {
      "inputs": [
        {
          "internalType": "string",
          "name": "_name",
          "type": "string"
        },
        {
          "internalType": "string",
          "name": "_symbol",
          "type": "string"
        }
      ],
      "stateMutability": "nonpayable",
      "type": "constructor"
    },
    {
      "anonymous": false,
      "inputs": [
        {
          "indexed": true,
          "internalType": "address",
          "name": "owner",
          "type": "address"
        },
        {
          "indexed": true,
          "internalType": "address",
          "name": "spender",
          "type": "address"
        },
        {
          "indexed": false,
          "internalType": "uint256",
          "name": "value",
          "type": "uint256"
        }
      ],
      "name": "Approval",
      "type": "event"
    },
    {
      "anonymous": false,
      "inputs": [
        {
          "indexed": true,
          "internalType": "address",
          "name": "doer",
          "type": "address"
        },
        {
          "indexed": true,
          "internalType": "address",
          "name": "burner",
          "type": "address"
        },
        {
          "indexed": false,
          "internalType": "uint256",
          "name": "value",
          "type": "uint256"
        }
      ],
      "name": "Burn",
      "type": "event"
    },
    {
      "anonymous": false,
      "inputs": [
        {
          "indexed": true,
          "internalType": "address",
          "name": "burner",
          "type": "address"
        }
      ],
      "name": "BurnerRemoved",
      "type": "event"
    },
    {
      "anonymous": false,
      "inputs": [
        {
          "indexed": true,
          "internalType": "address",
          "name": "doer",
          "type": "address"
        },
        {
          "indexed": true,
          "internalType": "address",
          "name": "receiver",
          "type": "address"
        },
        {
          "indexed": false,
          "internalType": "uint256",
          "name": "value",
          "type": "uint256"
        }
      ],
      "name": "Mint",
      "type": "event"
    },
    {
      "anonymous": false,
      "inputs": [
        {
          "indexed": true,
          "internalType": "address",
          "name": "minter",
          "type": "address"
        }
      ],
      "name": "MinterRemoved",
      "type": "event"
    },
    {
      "anonymous": false,
      "inputs": [
        {
          "indexed": true,
          "internalType": "address",
          "name": "newBurner",
          "type": "address"
        }
      ],
      "name": "NewBurnerAdded",
      "type": "event"
    },
    {
      "anonymous": false,
      "inputs": [
        {
          "indexed": true,
          "internalType": "address",
          "name": "newMinter",
          "type": "address"
        }
      ],
      "name": "NewMinterAdded",
      "type": "event"
    },
    {
      "anonymous": false,
      "inputs": [
        {
          "indexed": true,
          "internalType": "address",
          "name": "previousOwner",
          "type": "address"
        },
        {
          "indexed": true,
          "internalType": "address",
          "name": "newOwner",
          "type": "address"
        }
      ],
      "name": "OwnershipTransferred",
      "type": "event"
    },
    {
      "anonymous": false,
      "inputs": [
        {
          "indexed": true,
          "internalType": "address",
          "name": "from",
          "type": "address"
        },
        {
          "indexed": true,
          "internalType": "address",
          "name": "to",
          "type": "address"
        },
        {
          "indexed": false,
          "internalType": "uint256",
          "name": "value",
          "type": "uint256"
        }
      ],
      "name": "Transfer",
      "type": "event"
    },
    {
      "inputs": [
        {
          "internalType": "address",
          "name": "account",
          "type": "address"
        }
      ],
      "name": "addBurner",
      "outputs": [],
      "stateMutability": "nonpayable",
      "type": "function"
    },
    {
      "inputs": [
        {
          "internalType": "address",
          "name": "account",
          "type": "address"
        }
      ],
      "name": "addMinter",
      "outputs": [],
      "stateMutability": "nonpayable",
      "type": "function"
    },
    {
      "inputs": [
        {
          "internalType": "address",
          "name": "owner",
          "type": "address"
        },
        {
          "internalType": "address",
          "name": "spender",
          "type": "address"
        }
      ],
      "name": "allowance",
      "outputs": [
        {
          "internalType": "uint256",
          "name": "",
          "type": "uint256"
        }
      ],
      "stateMutability": "view",
      "type": "function"
    },
    {
      "inputs": [
        {
          "internalType": "address",
          "name": "spender",
          "type": "address"
        },
        {
          "internalType": "uint256",
          "name": "amount",
          "type": "uint256"
        }
      ],
      "name": "approve",
      "outputs": [
        {
          "internalType": "bool",
          "name": "",
          "type": "bool"
        }
      ],
      "stateMutability": "nonpayable",
      "type": "function"
    },
    {
      "inputs": [
        {
          "internalType": "address",
          "name": "account",
          "type": "address"
        }
      ],
      "name": "balanceOf",
      "outputs": [
        {
          "internalType": "uint256",
          "name": "",
          "type": "uint256"
        }
      ],
      "stateMutability": "view",
      "type": "function"
    },
    {
      "inputs": [
        {
          "internalType": "uint256",
          "name": "_amount",
          "type": "uint256"
        }
      ],
      "name": "burn",
      "outputs": [
        {
          "internalType": "bool",
          "name": "",
          "type": "bool"
        }
      ],
      "stateMutability": "nonpayable",
      "type": "function"
    },
    {
      "inputs": [
        {
          "internalType": "address",
          "name": "",
          "type": "address"
        }
      ],
      "name": "burners",
      "outputs": [
        {
          "internalType": "bool",
          "name": "",
          "type": "bool"
        }
      ],
      "stateMutability": "view",
      "type": "function"
    },
    {
      "inputs": [],
      "name": "decimals",
      "outputs": [
        {
          "internalType": "uint8",
          "name": "",
          "type": "uint8"
        }
      ],
      "stateMutability": "view",
      "type": "function"
    },
    {
      "inputs": [
        {
          "internalType": "address",
          "name": "spender",
          "type": "address"
        },
        {
          "internalType": "uint256",
          "name": "subtractedValue",
          "type": "uint256"
        }
      ],
      "name": "decreaseAllowance",
      "outputs": [
        {
          "internalType": "bool",
          "name": "",
          "type": "bool"
        }
      ],
      "stateMutability": "nonpayable",
      "type": "function"
    },
    {
      "inputs": [
        {
          "internalType": "address",
          "name": "spender",
          "type": "address"
        },
        {
          "internalType": "uint256",
          "name": "addedValue",
          "type": "uint256"
        }
      ],
      "name": "increaseAllowance",
      "outputs": [
        {
          "internalType": "bool",
          "name": "",
          "type": "bool"
        }
      ],
      "stateMutability": "nonpayable",
      "type": "function"
    },
    {
      "inputs": [
        {
          "internalType": "address",
          "name": "_receiver",
          "type": "address"
        },
        {
          "internalType": "uint256",
          "name": "_amount",
          "type": "uint256"
        }
      ],
      "name": "mint",
      "outputs": [
        {
          "internalType": "bool",
          "name": "",
          "type": "bool"
        }
      ],
      "stateMutability": "nonpayable",
      "type": "function"
    },
    {
      "inputs": [],
      "name": "mintTestToken",
      "outputs": [],
      "stateMutability": "nonpayable",
      "type": "function"
    },
    {
      "inputs": [
        {
          "internalType": "address",
          "name": "",
          "type": "address"
        }
      ],
      "name": "minters",
      "outputs": [
        {
          "internalType": "bool",
          "name": "",
          "type": "bool"
        }
      ],
      "stateMutability": "view",
      "type": "function"
    },
    {
      "inputs": [],
      "name": "name",
      "outputs": [
        {
          "internalType": "string",
          "name": "",
          "type": "string"
        }
      ],
      "stateMutability": "view",
      "type": "function"
    },
    {
      "inputs": [],
      "name": "owner",
      "outputs": [
        {
          "internalType": "address",
          "name": "",
          "type": "address"
        }
      ],
      "stateMutability": "view",
      "type": "function"
    },
    {
      "inputs": [
        {
          "internalType": "address",
          "name": "account",
          "type": "address"
        }
      ],
      "name": "removeBurner",
      "outputs": [],
      "stateMutability": "nonpayable",
      "type": "function"
    },
    {
      "inputs": [
        {
          "internalType": "address",
          "name": "account",
          "type": "address"
        }
      ],
      "name": "removeMinter",
      "outputs": [],
      "stateMutability": "nonpayable",
      "type": "function"
    },
    {
      "inputs": [],
      "name": "renounceOwnership",
      "outputs": [],
      "stateMutability": "nonpayable",
      "type": "function"
    },
    {
      "inputs": [],
      "name": "symbol",
      "outputs": [
        {
          "internalType": "string",
          "name": "",
          "type": "string"
        }
      ],
      "stateMutability": "view",
      "type": "function"
    },
    {
      "inputs": [],
      "name": "totalSupply",
      "outputs": [
        {
          "internalType": "uint256",
          "name": "",
          "type": "uint256"
        }
      ],
      "stateMutability": "view",
      "type": "function"
    },
    {
      "inputs": [
        {
          "internalType": "address",
          "name": "recipient",
          "type": "address"
        },
        {
          "internalType": "uint256",
          "name": "amount",
          "type": "uint256"
        }
      ],
      "name": "transfer",
      "outputs": [
        {
          "internalType": "bool",
          "name": "",
          "type": "bool"
        }
      ],
      "stateMutability": "nonpayable",
      "type": "function"
    },
    {
      "inputs": [
        {
          "internalType": "address",
          "name": "sender",
          "type": "address"
        },
        {
          "internalType": "address",
          "name": "recipient",
          "type": "address"
        },
        {
          "internalType": "uint256",
          "name": "amount",
          "type": "uint256"
        }
      ],
      "name": "transferFrom",
      "outputs": [
        {
          "internalType": "bool",
          "name": "",
          "type": "bool"
        }
      ],
      "stateMutability": "nonpayable",
      "type": "function"
    },
    {
      "inputs": [
        {
          "internalType": "address",
          "name": "newOwner",
          "type": "address"
        }
      ],
      "name": "transferOwnership",
      "outputs": [],
      "stateMutability": "nonpayable",
      "type": "function"
    }
  ],
  "transactionHash": "0x23d95e1eb3b686368364a37a7d339f30e931a44585126be9e0b1d55250414cfc",
  "args": [
    "TeleBitcoin",
    "TBTC"
  ],
  "numDeployments": 1,
  "solcInputHash": "2848391b5bbfb867fde3687fafd37af2",
  "bytecode": "0x60806040523480156200001157600080fd5b506040516200176f3803806200176f8339810160408190526200003491620002e0565b8181600082600390805190602001906200005092919062000187565b5081516200006690600490602085019062000187565b5080156200007a576200007a3382620000a4565b50505062000097620000916200013160201b60201c565b62000135565b50506001600655620003bf565b8060026000828254620000b8919062000347565b90915550506001600160a01b03821660009081526020819052604081208054839290620000e790849062000347565b90915550506040518181526001600160a01b038316906000907fddf252ad1be2c89b69c2b068fc378daa952ba7f163c4a11628f55a4df523b3ef9060200160405180910390a35050565b3390565b600580546001600160a01b038381166001600160a01b0319831681179093556040519116919082907f8be0079c531659141344cd1fd0a4f28419497f9722a3daafe3b4186f6b6457e090600090a35050565b82805462000195906200036c565b90600052602060002090601f016020900481019282620001b9576000855562000204565b82601f10620001d457805160ff191683800117855562000204565b8280016001018555821562000204579182015b8281111562000204578251825591602001919060010190620001e7565b506200021292915062000216565b5090565b5b8082111562000212576000815560010162000217565b600082601f8301126200023e578081fd5b81516001600160401b03808211156200025b576200025b620003a9565b604051601f8301601f19908116603f01168101908282118183101715620002865762000286620003a9565b81604052838152602092508683858801011115620002a2578485fd5b8491505b83821015620002c55785820183015181830184015290820190620002a6565b83821115620002d657848385830101525b9695505050505050565b60008060408385031215620002f3578182fd5b82516001600160401b03808211156200030a578384fd5b62000318868387016200022d565b935060208501519150808211156200032e578283fd5b506200033d858286016200022d565b9150509250929050565b600082198211156200036757634e487b7160e01b81526011600452602481fd5b500190565b6002810460018216806200038157607f821691505b60208210811415620003a357634e487b7160e01b600052602260045260246000fd5b50919050565b634e487b7160e01b600052604160045260246000fd5b6113a080620003cf6000396000f3fe608060405234801561001057600080fd5b506004361061014d5760003560e01c806370a08231116100c3578063a9059cbb1161007c578063a9059cbb146102ab578063d11ee8ef146102be578063dd62ed3e146102c6578063f2fde38b146102ff578063f44637ba14610312578063f46eccc4146103255761014d565b806370a0823114610247578063715018a61461025a5780638da5cb5b1461026257806395d89b411461027d578063983b2d5614610285578063a457c2d7146102985761014d565b806323b872dd1161011557806323b872dd146101d95780633092afd5146101ec578063313ce567146101ff578063395093511461020e57806340c10f191461022157806342966c68146102345761014d565b8063028468581461015257806303d41e0e1461016757806306fdde031461019f578063095ea7b3146101b457806318160ddd146101c7575b600080fd5b6101656101603660046110cb565b610348565b005b61018a6101753660046110cb565b60086020526000908152604090205460ff1681565b60405190151581526020015b60405180910390f35b6101a76103e9565b604051610196919061119a565b61018a6101c2366004611159565b61047b565b6002545b604051908152602001610196565b61018a6101e736600461111e565b610491565b6101656101fa3660046110cb565b610540565b60405160088152602001610196565b61018a61021c366004611159565b6105d8565b61018a61022f366004611159565b61060f565b61018a610242366004611182565b610715565b6101cb6102553660046110cb565b610811565b610165610830565b6005546040516001600160a01b039091168152602001610196565b6101a7610866565b6101656102933660046110cb565b610875565b61018a6102a6366004611159565b610911565b61018a6102b9366004611159565b6109ac565b6101656109b9565b6101cb6102d43660046110ec565b6001600160a01b03918216600090815260016020908152604080832093909416825291909152205490565b61016561030d3660046110cb565b6109c8565b6101656103203660046110cb565b610a63565b61018a6103333660046110cb565b60076020526000908152604090205460ff1681565b6005546001600160a01b0316331461037b5760405162461bcd60e51b815260040161037290611274565b60405180910390fd5b61038481610aff565b6103a05760405162461bcd60e51b815260040161037290611231565b6001600160a01b038116600081815260086020526040808220805460ff19169055517f90eabbc0c667db2a5029ed6bc0f5fe9f356d11684a4ca9fcfaec0e53f12b9c8e9190a250565b6060600380546103f890611319565b80601f016020809104026020016040519081016040528092919081815260200182805461042490611319565b80156104715780601f1061044657610100808354040283529160200191610471565b820191906000526020600020905b81548152906001019060200180831161045457829003601f168201915b5050505050905090565b6000610488338484610b46565b50600192915050565b6001600160a01b0383166000908152600160209081526040808320338452909152812054828110156105165760405162461bcd60e51b815260206004820152602860248201527f45524332303a207472616e7366657220616d6f756e74206578636565647320616044820152676c6c6f77616e636560c01b6064820152608401610372565b610521858585610c6b565b61053585336105308685611302565b610b46565b506001949350505050565b6005546001600160a01b0316331461056a5760405162461bcd60e51b815260040161037290611274565b61057381610e43565b61058f5760405162461bcd60e51b815260040161037290611231565b6001600160a01b038116600081815260076020526040808220805460ff19169055517fe94479a9f7e1952cc78f2d6baab678adc1b772d936c6583def489e524cb666929190a250565b3360008181526001602090815260408083206001600160a01b038716845290915281205490916104889185906105309086906112ea565b6000600260065414156106645760405162461bcd60e51b815260206004820152601f60248201527f5265656e7472616e637947756172643a207265656e7472616e742063616c6c006044820152606401610372565b600260065561067233610e43565b6106be5760405162461bcd60e51b815260206004820152601e60248201527f54656c654254433a206f6e6c79206d696e746572732063616e206d696e7400006044820152606401610372565b6106c88383610e8a565b6040518281526001600160a01b0384169033907fab8530f87dc9b59234c4623bf917212bb2536d647574c8e7e5da92c2ede0c9f89060200160405180910390a35060018060065592915050565b60006002600654141561076a5760405162461bcd60e51b815260206004820152601f60248201527f5265656e7472616e637947756172643a207265656e7472616e742063616c6c006044820152606401610372565b600260065561077833610aff565b6107c45760405162461bcd60e51b815260206004820152601e60248201527f54656c654254433a206f6e6c79206275726e6572732063616e206275726e00006044820152606401610372565b6107ce3383610f13565b604051828152339081907fbac40739b0d4ca32fa2d82fc91630465ba3eddd1598da6fca393b26fb63b94539060200160405180910390a350600180600655919050565b6001600160a01b0381166000908152602081905260409020545b919050565b6005546001600160a01b0316331461085a5760405162461bcd60e51b815260040161037290611274565b6108646000611062565b565b6060600480546103f890611319565b6005546001600160a01b0316331461089f5760405162461bcd60e51b815260040161037290611274565b6108a881610e43565b156108c55760405162461bcd60e51b8152600401610372906112a9565b6001600160a01b038116600081815260076020526040808220805460ff19166001179055517f6e6d648561472c2014294b7290b34f250935221baad78290c092619d640cdb4f9190a250565b3360009081526001602090815260408083206001600160a01b0386168452909152812054828110156109935760405162461bcd60e51b815260206004820152602560248201527f45524332303a2064656372656173656420616c6c6f77616e63652062656c6f77604482015264207a65726f60d81b6064820152608401610372565b6109a233856105308685611302565b5060019392505050565b6000610488338484610c6b565b610864336402540be400610e8a565b6005546001600160a01b031633146109f25760405162461bcd60e51b815260040161037290611274565b6001600160a01b038116610a575760405162461bcd60e51b815260206004820152602660248201527f4f776e61626c653a206e6577206f776e657220697320746865207a65726f206160448201526564647265737360d01b6064820152608401610372565b610a6081611062565b50565b6005546001600160a01b03163314610a8d5760405162461bcd60e51b815260040161037290611274565b610a9681610aff565b15610ab35760405162461bcd60e51b8152600401610372906112a9565b6001600160a01b038116600081815260086020526040808220805460ff19166001179055517fd111b496a92d518ff1a7755d2a6cd6d7f993de0eea5809bb834eed592e617c1b9190a250565b60006001600160a01b038216610b275760405162461bcd60e51b8152600401610372906111ed565b506001600160a01b031660009081526008602052604090205460ff1690565b6001600160a01b038316610ba85760405162461bcd60e51b8152602060048201526024808201527f45524332303a20617070726f76652066726f6d20746865207a65726f206164646044820152637265737360e01b6064820152608401610372565b6001600160a01b038216610c095760405162461bcd60e51b815260206004820152602260248201527f45524332303a20617070726f766520746f20746865207a65726f206164647265604482015261737360f01b6064820152608401610372565b6001600160a01b0383811660008181526001602090815260408083209487168084529482529182902085905590518481527f8c5be1e5ebec7d5bd14f71427d1e84f3dd0314c0f7b2291e5b200ac8c7c3b92591015b60405180910390a3505050565b6001600160a01b038316610ccf5760405162461bcd60e51b815260206004820152602560248201527f45524332303a207472616e736665722066726f6d20746865207a65726f206164604482015264647265737360d81b6064820152608401610372565b6001600160a01b038216610d315760405162461bcd60e51b815260206004820152602360248201527f45524332303a207472616e7366657220746f20746865207a65726f206164647260448201526265737360e81b6064820152608401610372565b6001600160a01b03831660009081526020819052604090205481811015610da95760405162461bcd60e51b815260206004820152602660248201527f45524332303a207472616e7366657220616d6f756e7420657863656564732062604482015265616c616e636560d01b6064820152608401610372565b610db38282611302565b6001600160a01b038086166000908152602081905260408082209390935590851681529081208054849290610de99084906112ea565b92505081905550826001600160a01b0316846001600160a01b03167fddf252ad1be2c89b69c2b068fc378daa952ba7f163c4a11628f55a4df523b3ef84604051610e3591815260200190565b60405180910390a350505050565b60006001600160a01b038216610e6b5760405162461bcd60e51b8152600401610372906111ed565b506001600160a01b031660009081526007602052604090205460ff1690565b8060026000828254610e9c91906112ea565b90915550506001600160a01b03821660009081526020819052604081208054839290610ec99084906112ea565b90915550506040518181526001600160a01b038316906000907fddf252ad1be2c89b69c2b068fc378daa952ba7f163c4a11628f55a4df523b3ef9060200160405180910390a35050565b6001600160a01b038216610f735760405162461bcd60e51b815260206004820152602160248201527f45524332303a206275726e2066726f6d20746865207a65726f206164647265736044820152607360f81b6064820152608401610372565b6001600160a01b03821660009081526020819052604090205481811015610fe75760405162461bcd60e51b815260206004820152602260248201527f45524332303a206275726e20616d6f756e7420657863656564732062616c616e604482015261636560f01b6064820152608401610372565b610ff18282611302565b6001600160a01b0384166000908152602081905260408120919091556002805484929061101f908490611302565b90915550506040518281526000906001600160a01b038516907fddf252ad1be2c89b69c2b068fc378daa952ba7f163c4a11628f55a4df523b3ef90602001610c5e565b600580546001600160a01b038381166001600160a01b0319831681179093556040519116919082907f8be0079c531659141344cd1fd0a4f28419497f9722a3daafe3b4186f6b6457e090600090a35050565b80356001600160a01b038116811461082b57600080fd5b6000602082840312156110dc578081fd5b6110e5826110b4565b9392505050565b600080604083850312156110fe578081fd5b611107836110b4565b9150611115602084016110b4565b90509250929050565b600080600060608486031215611132578081fd5b61113b846110b4565b9250611149602085016110b4565b9150604084013590509250925092565b6000806040838503121561116b578182fd5b611174836110b4565b946020939093013593505050565b600060208284031215611193578081fd5b5035919050565b6000602080835283518082850152825b818110156111c6578581018301518582016040015282016111aa565b818111156111d75783604083870101525b50601f01601f1916929092016040019392505050565b60208082526024908201527f54656c654254433a206163636f756e7420697320746865207a65726f206164646040820152637265737360e01b606082015260800190565b60208082526023908201527f54656c654254433a206163636f756e7420646f6573206e6f74206861766520726040820152626f6c6560e81b606082015260800190565b6020808252818101527f4f776e61626c653a2063616c6c6572206973206e6f7420746865206f776e6572604082015260600190565b60208082526021908201527f54656c654254433a206163636f756e7420616c72656164792068617320726f6c6040820152606560f81b606082015260800190565b600082198211156112fd576112fd611354565b500190565b60008282101561131457611314611354565b500390565b60028104600182168061132d57607f821691505b6020821081141561134e57634e487b7160e01b600052602260045260246000fd5b50919050565b634e487b7160e01b600052601160045260246000fdfea2646970667358221220d3568fcafa18825647aa7fb1a805f5351a6cf1c968a7ee2587872f0667463ab364736f6c63430008020033",
  "devdoc": {
    "kind": "dev",
    "methods": {
      "addBurner(address)": {
        "details": "Give an account access to burn."
      },
      "addMinter(address)": {
        "details": "Give an account access to mint."
      },
      "allowance(address,address)": {
        "details": "See {IERC20-allowance}."
      },
      "approve(address,uint256)": {
        "details": "See {IERC20-approve}. Requirements: - `spender` cannot be the zero address."
      },
      "balanceOf(address)": {
        "details": "See {IERC20-balanceOf}."
      },
      "burn(uint256)": {
        "details": "Only burners can call this",
        "params": {
          "_amount": "Amount of burnt tokens"
        }
      },
      "decreaseAllowance(address,uint256)": {
        "details": "Atomically decreases the allowance granted to `spender` by the caller. This is an alternative to {approve} that can be used as a mitigation for problems described in {IERC20-approve}. Emits an {Approval} event indicating the updated allowance. Requirements: - `spender` cannot be the zero address. - `spender` must have allowance for the caller of at least `subtractedValue`."
      },
      "increaseAllowance(address,uint256)": {
        "details": "Atomically increases the allowance granted to `spender` by the caller. This is an alternative to {approve} that can be used as a mitigation for problems described in {IERC20-approve}. Emits an {Approval} event indicating the updated allowance. Requirements: - `spender` cannot be the zero address."
      },
      "mint(address,uint256)": {
        "details": "Only minters can call this",
        "params": {
          "_amount": "Amount of minted tokens",
          "_receiver": "Address of token's receiver"
        }
      },
      "name()": {
        "details": "Returns the name of the token."
      },
      "owner()": {
        "details": "Returns the address of the current owner."
      },
      "removeBurner(address)": {
        "details": "Remove an account's access to burn."
      },
      "removeMinter(address)": {
        "details": "Remove an account's access to mint."
      },
      "renounceOwnership()": {
        "details": "Leaves the contract without owner. It will not be possible to call `onlyOwner` functions anymore. Can only be called by the current owner. NOTE: Renouncing ownership will leave the contract without an owner, thereby removing any functionality that is only available to the owner."
      },
      "symbol()": {
        "details": "Returns the symbol of the token, usually a shorter version of the name."
      },
      "totalSupply()": {
        "details": "See {IERC20-totalSupply}."
      },
      "transfer(address,uint256)": {
        "details": "See {IERC20-transfer}. Requirements: - `recipient` cannot be the zero address. - the caller must have a balance of at least `amount`."
      },
      "transferFrom(address,address,uint256)": {
        "details": "See {IERC20-transferFrom}. Emits an {Approval} event indicating the updated allowance. This is not required by the EIP. See the note at the beginning of {ERC20}. Requirements: - `sender` and `recipient` cannot be the zero address. - `sender` must have a balance of at least `amount`. - the caller must have allowance for ``sender``'s tokens of at least `amount`."
      },
      "transferOwnership(address)": {
        "details": "Transfers ownership of the contract to a new account (`newOwner`). Can only be called by the current owner."
      }
    },
    "version": 1
  },
  "userdoc": {
    "kind": "user",
    "methods": {
      "burn(uint256)": {
        "notice": "Burns TeleBTC tokens of msg.sender"
      },
      "mint(address,uint256)": {
        "notice": "Mints TeleBTC tokens for _receiver"
      },
      "mintTestToken()": {
        "notice": "Mints TeleBTC just for test"
      }
    },
    "version": 1
  },
  "storageLayout": {
    "storage": [
      {
        "astId": 3140,
        "contract": "contracts/erc20/TeleBTC.sol:TeleBTC",
        "label": "_balances",
        "offset": 0,
        "slot": "0",
        "type": "t_mapping(t_address,t_uint256)"
      },
      {
        "astId": 3146,
        "contract": "contracts/erc20/TeleBTC.sol:TeleBTC",
        "label": "_allowances",
        "offset": 0,
        "slot": "1",
        "type": "t_mapping(t_address,t_mapping(t_address,t_uint256))"
      },
      {
        "astId": 3148,
        "contract": "contracts/erc20/TeleBTC.sol:TeleBTC",
        "label": "_totalSupply",
        "offset": 0,
        "slot": "2",
        "type": "t_uint256"
      },
      {
        "astId": 3150,
        "contract": "contracts/erc20/TeleBTC.sol:TeleBTC",
        "label": "_name",
        "offset": 0,
        "slot": "3",
        "type": "t_string_storage"
      },
      {
        "astId": 3152,
        "contract": "contracts/erc20/TeleBTC.sol:TeleBTC",
        "label": "_symbol",
        "offset": 0,
        "slot": "4",
        "type": "t_string_storage"
      },
      {
        "astId": 807,
        "contract": "contracts/erc20/TeleBTC.sol:TeleBTC",
        "label": "_owner",
        "offset": 0,
        "slot": "5",
        "type": "t_address"
      },
      {
        "astId": 1634,
        "contract": "contracts/erc20/TeleBTC.sol:TeleBTC",
        "label": "_status",
        "offset": 0,
        "slot": "6",
        "type": "t_uint256"
      },
      {
        "astId": 3721,
        "contract": "contracts/erc20/TeleBTC.sol:TeleBTC",
        "label": "minters",
        "offset": 0,
        "slot": "7",
        "type": "t_mapping(t_address,t_bool)"
      },
      {
        "astId": 3725,
        "contract": "contracts/erc20/TeleBTC.sol:TeleBTC",
        "label": "burners",
        "offset": 0,
        "slot": "8",
        "type": "t_mapping(t_address,t_bool)"
      }
    ],
    "types": {
      "t_address": {
        "encoding": "inplace",
        "label": "address",
        "numberOfBytes": "20"
      },
      "t_bool": {
        "encoding": "inplace",
        "label": "bool",
        "numberOfBytes": "1"
      },
      "t_mapping(t_address,t_bool)": {
        "encoding": "mapping",
        "key": "t_address",
        "label": "mapping(address => bool)",
        "numberOfBytes": "32",
        "value": "t_bool"
      },
      "t_mapping(t_address,t_mapping(t_address,t_uint256))": {
        "encoding": "mapping",
        "key": "t_address",
        "label": "mapping(address => mapping(address => uint256))",
        "numberOfBytes": "32",
        "value": "t_mapping(t_address,t_uint256)"
      },
      "t_mapping(t_address,t_uint256)": {
        "encoding": "mapping",
        "key": "t_address",
        "label": "mapping(address => uint256)",
        "numberOfBytes": "32",
        "value": "t_uint256"
      },
      "t_string_storage": {
        "encoding": "bytes",
        "label": "string",
        "numberOfBytes": "32"
      },
      "t_uint256": {
        "encoding": "inplace",
        "label": "uint256",
        "numberOfBytes": "32"
      }
    }
  }
}