{
  "address": "0x0783d8A18461BA80704DF8EcBc41E0eD84CFB84f",
  "abi": [
    {
      "inputs": [
        {
          "internalType": "string",
          "name": "_name",
          "type": "string"
        },
        {
          "internalType": "string",
          "name": "_symbol",
          "type": "string"
        }
      ],
      "stateMutability": "nonpayable",
      "type": "constructor"
    },
    {
      "anonymous": false,
      "inputs": [
        {
          "indexed": true,
          "internalType": "address",
          "name": "owner",
          "type": "address"
        },
        {
          "indexed": true,
          "internalType": "address",
          "name": "spender",
          "type": "address"
        },
        {
          "indexed": false,
          "internalType": "uint256",
          "name": "value",
          "type": "uint256"
        }
      ],
      "name": "Approval",
      "type": "event"
    },
    {
      "anonymous": false,
      "inputs": [
        {
          "indexed": true,
          "internalType": "address",
          "name": "doer",
          "type": "address"
        },
        {
          "indexed": true,
          "internalType": "address",
          "name": "burner",
          "type": "address"
        },
        {
          "indexed": false,
          "internalType": "uint256",
          "name": "value",
          "type": "uint256"
        }
      ],
      "name": "Burn",
      "type": "event"
    },
    {
      "anonymous": false,
      "inputs": [
        {
          "indexed": true,
          "internalType": "address",
          "name": "newBurner",
          "type": "address"
        }
      ],
      "name": "BurnerAdded",
      "type": "event"
    },
    {
      "anonymous": false,
      "inputs": [
        {
          "indexed": true,
          "internalType": "address",
          "name": "burner",
          "type": "address"
        }
      ],
      "name": "BurnerRemoved",
      "type": "event"
    },
    {
      "anonymous": false,
      "inputs": [
        {
          "indexed": true,
          "internalType": "address",
          "name": "doer",
          "type": "address"
        },
        {
          "indexed": true,
          "internalType": "address",
          "name": "receiver",
          "type": "address"
        },
        {
          "indexed": false,
          "internalType": "uint256",
          "name": "value",
          "type": "uint256"
        }
      ],
      "name": "Mint",
      "type": "event"
    },
    {
      "anonymous": false,
      "inputs": [
        {
          "indexed": true,
          "internalType": "address",
          "name": "newMinter",
          "type": "address"
        }
      ],
      "name": "MinterAdded",
      "type": "event"
    },
    {
      "anonymous": false,
      "inputs": [
        {
          "indexed": true,
          "internalType": "address",
          "name": "minter",
          "type": "address"
        }
      ],
      "name": "MinterRemoved",
      "type": "event"
    },
    {
      "anonymous": false,
      "inputs": [
        {
          "indexed": false,
          "internalType": "uint256",
          "name": "oldEpochLength",
          "type": "uint256"
        },
        {
          "indexed": false,
          "internalType": "uint256",
          "name": "newEpochLength",
          "type": "uint256"
        }
      ],
      "name": "NewEpochLength",
      "type": "event"
    },
    {
      "anonymous": false,
      "inputs": [
        {
          "indexed": false,
          "internalType": "uint256",
          "name": "oldMintLimit",
          "type": "uint256"
        },
        {
          "indexed": false,
          "internalType": "uint256",
          "name": "newMintLimit",
          "type": "uint256"
        }
      ],
      "name": "NewMintLimit",
      "type": "event"
    },
    {
      "anonymous": false,
      "inputs": [
        {
          "indexed": true,
          "internalType": "address",
          "name": "previousOwner",
          "type": "address"
        },
        {
          "indexed": true,
          "internalType": "address",
          "name": "newOwner",
          "type": "address"
        }
      ],
      "name": "OwnershipTransferred",
      "type": "event"
    },
    {
      "anonymous": false,
      "inputs": [
        {
          "indexed": true,
          "internalType": "address",
          "name": "from",
          "type": "address"
        },
        {
          "indexed": true,
          "internalType": "address",
          "name": "to",
          "type": "address"
        },
        {
          "indexed": false,
          "internalType": "uint256",
          "name": "value",
          "type": "uint256"
        }
      ],
      "name": "Transfer",
      "type": "event"
    },
    {
      "inputs": [
        {
          "internalType": "address",
          "name": "account",
          "type": "address"
        }
      ],
      "name": "addBurner",
      "outputs": [],
      "stateMutability": "nonpayable",
      "type": "function"
    },
    {
      "inputs": [
        {
          "internalType": "address",
          "name": "account",
          "type": "address"
        }
      ],
      "name": "addMinter",
      "outputs": [],
      "stateMutability": "nonpayable",
      "type": "function"
    },
    {
      "inputs": [
        {
          "internalType": "address",
          "name": "owner",
          "type": "address"
        },
        {
          "internalType": "address",
          "name": "spender",
          "type": "address"
        }
      ],
      "name": "allowance",
      "outputs": [
        {
          "internalType": "uint256",
          "name": "",
          "type": "uint256"
        }
      ],
      "stateMutability": "view",
      "type": "function"
    },
    {
      "inputs": [
        {
          "internalType": "address",
          "name": "spender",
          "type": "address"
        },
        {
          "internalType": "uint256",
          "name": "amount",
          "type": "uint256"
        }
      ],
      "name": "approve",
      "outputs": [
        {
          "internalType": "bool",
          "name": "",
          "type": "bool"
        }
      ],
      "stateMutability": "nonpayable",
      "type": "function"
    },
    {
      "inputs": [
        {
          "internalType": "address",
          "name": "account",
          "type": "address"
        }
      ],
      "name": "balanceOf",
      "outputs": [
        {
          "internalType": "uint256",
          "name": "",
          "type": "uint256"
        }
      ],
      "stateMutability": "view",
      "type": "function"
    },
    {
      "inputs": [
        {
          "internalType": "uint256",
          "name": "_amount",
          "type": "uint256"
        }
      ],
      "name": "burn",
      "outputs": [
        {
          "internalType": "bool",
          "name": "",
          "type": "bool"
        }
      ],
      "stateMutability": "nonpayable",
      "type": "function"
    },
    {
      "inputs": [
        {
          "internalType": "address",
          "name": "",
          "type": "address"
        }
      ],
      "name": "burners",
      "outputs": [
        {
          "internalType": "bool",
          "name": "",
          "type": "bool"
        }
      ],
      "stateMutability": "view",
      "type": "function"
    },
    {
      "inputs": [],
      "name": "decimals",
      "outputs": [
        {
          "internalType": "uint8",
          "name": "",
          "type": "uint8"
        }
      ],
      "stateMutability": "view",
      "type": "function"
    },
    {
      "inputs": [
        {
          "internalType": "address",
          "name": "spender",
          "type": "address"
        },
        {
          "internalType": "uint256",
          "name": "subtractedValue",
          "type": "uint256"
        }
      ],
      "name": "decreaseAllowance",
      "outputs": [
        {
          "internalType": "bool",
          "name": "",
          "type": "bool"
        }
      ],
      "stateMutability": "nonpayable",
      "type": "function"
    },
    {
      "inputs": [],
      "name": "epochLength",
      "outputs": [
        {
          "internalType": "uint256",
          "name": "",
          "type": "uint256"
        }
      ],
      "stateMutability": "view",
      "type": "function"
    },
    {
      "inputs": [
        {
          "internalType": "address",
          "name": "spender",
          "type": "address"
        },
        {
          "internalType": "uint256",
          "name": "addedValue",
          "type": "uint256"
        }
      ],
      "name": "increaseAllowance",
      "outputs": [
        {
          "internalType": "bool",
          "name": "",
          "type": "bool"
        }
      ],
      "stateMutability": "nonpayable",
      "type": "function"
    },
    {
      "inputs": [],
      "name": "lastEpoch",
      "outputs": [
        {
          "internalType": "uint256",
          "name": "",
          "type": "uint256"
        }
      ],
      "stateMutability": "view",
      "type": "function"
    },
    {
      "inputs": [],
      "name": "lastMintLimit",
      "outputs": [
        {
          "internalType": "uint256",
          "name": "",
          "type": "uint256"
        }
      ],
      "stateMutability": "view",
      "type": "function"
    },
    {
      "inputs": [],
      "name": "maxmimumMintLimit",
      "outputs": [
        {
          "internalType": "uint256",
          "name": "",
          "type": "uint256"
        }
      ],
      "stateMutability": "view",
      "type": "function"
    },
    {
      "inputs": [
        {
          "internalType": "address",
          "name": "_receiver",
          "type": "address"
        },
        {
          "internalType": "uint256",
          "name": "_amount",
          "type": "uint256"
        }
      ],
      "name": "mint",
      "outputs": [
        {
          "internalType": "bool",
          "name": "",
          "type": "bool"
        }
      ],
      "stateMutability": "nonpayable",
      "type": "function"
    },
    {
      "inputs": [
        {
          "internalType": "address",
          "name": "",
          "type": "address"
        }
      ],
      "name": "minters",
      "outputs": [
        {
          "internalType": "bool",
          "name": "",
          "type": "bool"
        }
      ],
      "stateMutability": "view",
      "type": "function"
    },
    {
      "inputs": [],
      "name": "name",
      "outputs": [
        {
          "internalType": "string",
          "name": "",
          "type": "string"
        }
      ],
      "stateMutability": "view",
      "type": "function"
    },
    {
      "inputs": [],
      "name": "owner",
      "outputs": [
        {
          "internalType": "address",
          "name": "",
          "type": "address"
        }
      ],
      "stateMutability": "view",
      "type": "function"
    },
    {
      "inputs": [
        {
          "internalType": "address",
          "name": "account",
          "type": "address"
        }
      ],
      "name": "removeBurner",
      "outputs": [],
      "stateMutability": "nonpayable",
      "type": "function"
    },
    {
      "inputs": [
        {
          "internalType": "address",
          "name": "account",
          "type": "address"
        }
      ],
      "name": "removeMinter",
      "outputs": [],
      "stateMutability": "nonpayable",
      "type": "function"
    },
    {
      "inputs": [],
      "name": "renounceOwnership",
      "outputs": [],
      "stateMutability": "nonpayable",
      "type": "function"
    },
    {
      "inputs": [
        {
          "internalType": "uint256",
          "name": "_length",
          "type": "uint256"
        }
      ],
      "name": "setEpochLength",
      "outputs": [],
      "stateMutability": "nonpayable",
      "type": "function"
    },
    {
      "inputs": [
        {
          "internalType": "uint256",
          "name": "_mintLimit",
          "type": "uint256"
        }
      ],
      "name": "setMaxmimumMintLimit",
      "outputs": [],
      "stateMutability": "nonpayable",
      "type": "function"
    },
    {
      "inputs": [],
      "name": "symbol",
      "outputs": [
        {
          "internalType": "string",
          "name": "",
          "type": "string"
        }
      ],
      "stateMutability": "view",
      "type": "function"
    },
    {
      "inputs": [],
      "name": "totalSupply",
      "outputs": [
        {
          "internalType": "uint256",
          "name": "",
          "type": "uint256"
        }
      ],
      "stateMutability": "view",
      "type": "function"
    },
    {
      "inputs": [
        {
          "internalType": "address",
          "name": "recipient",
          "type": "address"
        },
        {
          "internalType": "uint256",
          "name": "amount",
          "type": "uint256"
        }
      ],
      "name": "transfer",
      "outputs": [
        {
          "internalType": "bool",
          "name": "",
          "type": "bool"
        }
      ],
      "stateMutability": "nonpayable",
      "type": "function"
    },
    {
      "inputs": [
        {
          "internalType": "address",
          "name": "sender",
          "type": "address"
        },
        {
          "internalType": "address",
          "name": "recipient",
          "type": "address"
        },
        {
          "internalType": "uint256",
          "name": "amount",
          "type": "uint256"
        }
      ],
      "name": "transferFrom",
      "outputs": [
        {
          "internalType": "bool",
          "name": "",
          "type": "bool"
        }
      ],
      "stateMutability": "nonpayable",
      "type": "function"
    },
    {
      "inputs": [
        {
          "internalType": "address",
          "name": "newOwner",
          "type": "address"
        }
      ],
      "name": "transferOwnership",
      "outputs": [],
      "stateMutability": "nonpayable",
      "type": "function"
    }
  ],
  "transactionHash": "0x046de716cc77018d2d7b0a9b8658d3de52cd12b893bb2de021dcaf8f6c3e4e6f",
  "args": [
    "TeleBitcoin",
    "TBTC"
  ],
  "numDeployments": 1,
  "solcInputHash": "75de7cb825f3b6d07e1f1f6c98977d78",
  "bytecode": "0x60806040523480156200001157600080fd5b5060405162001a2338038062001a23833981016040819052620000349162000250565b8151829082906200004d906003906020850190620000f7565b50805162000063906004906020840190620000f7565b505050620000806200007a620000a160201b60201c565b620000a5565b505060016006556404a817c8006009819055600a556107d0600b556200030a565b3390565b600580546001600160a01b038381166001600160a01b0319831681179093556040519116919082907f8be0079c531659141344cd1fd0a4f28419497f9722a3daafe3b4186f6b6457e090600090a35050565b8280546200010590620002b7565b90600052602060002090601f01602090048101928262000129576000855562000174565b82601f106200014457805160ff191683800117855562000174565b8280016001018555821562000174579182015b828111156200017457825182559160200191906001019062000157565b506200018292915062000186565b5090565b5b8082111562000182576000815560010162000187565b600082601f830112620001ae578081fd5b81516001600160401b0380821115620001cb57620001cb620002f4565b604051601f8301601f19908116603f01168101908282118183101715620001f657620001f6620002f4565b8160405283815260209250868385880101111562000212578485fd5b8491505b8382101562000235578582018301518183018401529082019062000216565b838211156200024657848385830101525b9695505050505050565b6000806040838503121562000263578182fd5b82516001600160401b03808211156200027a578384fd5b62000288868387016200019d565b935060208501519150808211156200029e578283fd5b50620002ad858286016200019d565b9150509250929050565b600281046001821680620002cc57607f821691505b60208210811415620002ee57634e487b7160e01b600052602260045260246000fd5b50919050565b634e487b7160e01b600052604160045260246000fd5b611709806200031a6000396000f3fe608060405234801561001057600080fd5b50600436106101c45760003560e01c806357d775f8116100f9578063983b2d5611610097578063dd62ed3e11610071578063dd62ed3e14610383578063f2fde38b146103bc578063f44637ba146103cf578063f46eccc4146103e2576101c4565b8063983b2d561461034a578063a457c2d71461035d578063a9059cbb14610370576101c4565b8063715018a6116100d3578063715018a61461030c5780637714b366146103145780638da5cb5b1461032757806395d89b4114610342576101c4565b806357d775f8146102e75780635cbae7b6146102f057806370a08231146102f9576101c4565b80632f99582a116101665780633950935111610140578063395093511461029b57806340c10f19146102ae57806342966c68146102c157806354eea796146102d4576101c4565b80632f99582a146102705780633092afd514610279578063313ce5671461028c576101c4565b806306fdde03116101a257806306fdde031461022d578063095ea7b31461024257806318160ddd1461025557806323b872dd1461025d576101c4565b806302846858146101c957806303d41e0e146101de57806306a4c98314610216575b600080fd5b6101dc6101d7366004611414565b610405565b005b6102016101ec366004611414565b60086020526000908152604090205460ff1681565b60405190151581526020015b60405180910390f35b61021f600c5481565b60405190815260200161020d565b6102356104a6565b60405161020d91906114e3565b6102016102503660046114a2565b610538565b60025461021f565b61020161026b366004611467565b61054e565b61021f600a5481565b6101dc610287366004611414565b6105f8565b6040516008815260200161020d565b6102016102a93660046114a2565b610690565b6102016102bc3660046114a2565b6106cc565b6102016102cf3660046114cb565b6108a7565b6101dc6102e23660046114cb565b6109a3565b61021f600b5481565b61021f60095481565b61021f610307366004611414565b610a59565b6101dc610a78565b6101dc6103223660046114cb565b610aa4565b6005546040516001600160a01b03909116815260200161020d565b610235610b0f565b6101dc610358366004611414565b610b1e565b61020161036b3660046114a2565b610bba565b61020161037e3660046114a2565b610c53565b61021f610391366004611435565b6001600160a01b03918216600090815260016020908152604080832093909416825291909152205490565b6101dc6103ca366004611414565b610c60565b6101dc6103dd366004611414565b610cfb565b6102016103f0366004611414565b60076020526000908152604090205460ff1681565b6005546001600160a01b031633146104385760405162461bcd60e51b815260040161042f906115bd565b60405180910390fd5b61044181610d97565b61045d5760405162461bcd60e51b815260040161042f9061157a565b6001600160a01b038116600081815260086020526040808220805460ff19169055517f90eabbc0c667db2a5029ed6bc0f5fe9f356d11684a4ca9fcfaec0e53f12b9c8e9190a250565b6060600380546104b590611682565b80601f01602080910402602001604051908101604052809291908181526020018280546104e190611682565b801561052e5780601f106105035761010080835404028352916020019161052e565b820191906000526020600020905b81548152906001019060200180831161051157829003601f168201915b5050505050905090565b6000610545338484610dde565b50600192915050565b600061055b848484610f03565b6001600160a01b0384166000908152600160209081526040808320338452909152902054828110156105e05760405162461bcd60e51b815260206004820152602860248201527f45524332303a207472616e7366657220616d6f756e74206578636565647320616044820152676c6c6f77616e636560c01b606482015260840161042f565b6105ed8533858403610dde565b506001949350505050565b6005546001600160a01b031633146106225760405162461bcd60e51b815260040161042f906115bd565b61062b816110d2565b6106475760405162461bcd60e51b815260040161042f9061157a565b6001600160a01b038116600081815260076020526040808220805460ff19169055517fe94479a9f7e1952cc78f2d6baab678adc1b772d936c6583def489e524cb666929190a250565b3360008181526001602090815260408083206001600160a01b038716845290915281205490916105459185906106c7908690611633565b610dde565b6000600260065414156107215760405162461bcd60e51b815260206004820152601f60248201527f5265656e7472616e637947756172643a207265656e7472616e742063616c6c00604482015260640161042f565b600260065561072f336110d2565b61077b5760405162461bcd60e51b815260206004820152601e60248201527f54656c654254433a206f6e6c79206d696e746572732063616e206d696e740000604482015260640161042f565b6009548211156107ea5760405162461bcd60e51b815260206004820152603460248201527f54656c654254433a206d696e7420616d6f756e74206973206d6f7265207468616044820152731b881b585e1a5b5d5b481b5a5b9d081b1a5b5a5d60621b606482015260840161042f565b6107f382611119565b15156001146108505760405162461bcd60e51b815260206004820152602360248201527f54656c654254433a2072656163686564206d6178696d756d206d696e74206c696044820152621b5a5d60ea1b606482015260840161042f565b61085a8383611186565b6040518281526001600160a01b0384169033907fab8530f87dc9b59234c4623bf917212bb2536d647574c8e7e5da92c2ede0c9f89060200160405180910390a35060018060065592915050565b6000600260065414156108fc5760405162461bcd60e51b815260206004820152601f60248201527f5265656e7472616e637947756172643a207265656e7472616e742063616c6c00604482015260640161042f565b600260065561090a33610d97565b6109565760405162461bcd60e51b815260206004820152601e60248201527f54656c654254433a206f6e6c79206275726e6572732063616e206275726e0000604482015260640161042f565b6109603383611265565b604051828152339081907fbac40739b0d4ca32fa2d82fc91630465ba3eddd1598da6fca393b26fb63b94539060200160405180910390a350600180600655919050565b6005546001600160a01b031633146109cd5760405162461bcd60e51b815260040161042f906115bd565b8060008111610a175760405162461bcd60e51b815260206004820152601660248201527554656c654254433a2076616c7565206973207a65726f60501b604482015260640161042f565b600b5460408051918252602082018490527fd077b1717c042dc03e7eb68030220b62f703db305be2ffb5b9e1d91b639a63f9910160405180910390a150600b55565b6001600160a01b0381166000908152602081905260409020545b919050565b6005546001600160a01b03163314610aa25760405162461bcd60e51b815260040161042f906115bd565b565b6005546001600160a01b03163314610ace5760405162461bcd60e51b815260040161042f906115bd565b60095460408051918252602082018390527f36ab29917278ebced3c63670f7872f78555ed7cdb4aa5184a159eb978be79508910160405180910390a1600955565b6060600480546104b590611682565b6005546001600160a01b03163314610b485760405162461bcd60e51b815260040161042f906115bd565b610b51816110d2565b15610b6e5760405162461bcd60e51b815260040161042f906115f2565b6001600160a01b038116600081815260076020526040808220805460ff19166001179055517f6ae172837ea30b801fbfcdd4108aa1d5bf8ff775444fd70256b44e6bf3dfc3f69190a250565b3360009081526001602090815260408083206001600160a01b038616845290915281205482811015610c3c5760405162461bcd60e51b815260206004820152602560248201527f45524332303a2064656372656173656420616c6c6f77616e63652062656c6f77604482015264207a65726f60d81b606482015260840161042f565b610c493385858403610dde565b5060019392505050565b6000610545338484610f03565b6005546001600160a01b03163314610c8a5760405162461bcd60e51b815260040161042f906115bd565b6001600160a01b038116610cef5760405162461bcd60e51b815260206004820152602660248201527f4f776e61626c653a206e6577206f776e657220697320746865207a65726f206160448201526564647265737360d01b606482015260840161042f565b610cf8816113ab565b50565b6005546001600160a01b03163314610d255760405162461bcd60e51b815260040161042f906115bd565b610d2e81610d97565b15610d4b5760405162461bcd60e51b815260040161042f906115f2565b6001600160a01b038116600081815260086020526040808220805460ff19166001179055517f86e57fd2b90329052917118de7c3f521f400d439b9650deaa906a25b08b945609190a250565b60006001600160a01b038216610dbf5760405162461bcd60e51b815260040161042f90611536565b506001600160a01b031660009081526008602052604090205460ff1690565b6001600160a01b038316610e405760405162461bcd60e51b8152602060048201526024808201527f45524332303a20617070726f76652066726f6d20746865207a65726f206164646044820152637265737360e01b606482015260840161042f565b6001600160a01b038216610ea15760405162461bcd60e51b815260206004820152602260248201527f45524332303a20617070726f766520746f20746865207a65726f206164647265604482015261737360f01b606482015260840161042f565b6001600160a01b0383811660008181526001602090815260408083209487168084529482529182902085905590518481527f8c5be1e5ebec7d5bd14f71427d1e84f3dd0314c0f7b2291e5b200ac8c7c3b92591015b60405180910390a3505050565b6001600160a01b038316610f675760405162461bcd60e51b815260206004820152602560248201527f45524332303a207472616e736665722066726f6d20746865207a65726f206164604482015264647265737360d81b606482015260840161042f565b6001600160a01b038216610fc95760405162461bcd60e51b815260206004820152602360248201527f45524332303a207472616e7366657220746f20746865207a65726f206164647260448201526265737360e81b606482015260840161042f565b6001600160a01b038316600090815260208190526040902054818110156110415760405162461bcd60e51b815260206004820152602660248201527f45524332303a207472616e7366657220616d6f756e7420657863656564732062604482015265616c616e636560d01b606482015260840161042f565b6001600160a01b03808516600090815260208190526040808220858503905591851681529081208054849290611078908490611633565b92505081905550826001600160a01b0316846001600160a01b03167fddf252ad1be2c89b69c2b068fc378daa952ba7f163c4a11628f55a4df523b3ef846040516110c491815260200190565b60405180910390a350505050565b60006001600160a01b0382166110fa5760405162461bcd60e51b815260040161042f90611536565b506001600160a01b031660009081526007602052604090205460ff1690565b600080600b544361112a919061164b565b9050600c5481141561116757600a5483111561114a576000915050610a73565b82600a600082825461115c919061166b565b909155506105459050565b600c81905560095461117a90849061166b565b600a5550600192915050565b6001600160a01b0382166111dc5760405162461bcd60e51b815260206004820152601f60248201527f45524332303a206d696e7420746f20746865207a65726f206164647265737300604482015260640161042f565b80600260008282546111ee9190611633565b90915550506001600160a01b0382166000908152602081905260408120805483929061121b908490611633565b90915550506040518181526001600160a01b038316906000907fddf252ad1be2c89b69c2b068fc378daa952ba7f163c4a11628f55a4df523b3ef9060200160405180910390a35050565b6001600160a01b0382166112c55760405162461bcd60e51b815260206004820152602160248201527f45524332303a206275726e2066726f6d20746865207a65726f206164647265736044820152607360f81b606482015260840161042f565b6001600160a01b038216600090815260208190526040902054818110156113395760405162461bcd60e51b815260206004820152602260248201527f45524332303a206275726e20616d6f756e7420657863656564732062616c616e604482015261636560f01b606482015260840161042f565b6001600160a01b038316600090815260208190526040812083830390556002805484929061136890849061166b565b90915550506040518281526000906001600160a01b038516907fddf252ad1be2c89b69c2b068fc378daa952ba7f163c4a11628f55a4df523b3ef90602001610ef6565b600580546001600160a01b038381166001600160a01b0319831681179093556040519116919082907f8be0079c531659141344cd1fd0a4f28419497f9722a3daafe3b4186f6b6457e090600090a35050565b80356001600160a01b0381168114610a7357600080fd5b600060208284031215611425578081fd5b61142e826113fd565b9392505050565b60008060408385031215611447578081fd5b611450836113fd565b915061145e602084016113fd565b90509250929050565b60008060006060848603121561147b578081fd5b611484846113fd565b9250611492602085016113fd565b9150604084013590509250925092565b600080604083850312156114b4578182fd5b6114bd836113fd565b946020939093013593505050565b6000602082840312156114dc578081fd5b5035919050565b6000602080835283518082850152825b8181101561150f578581018301518582016040015282016114f3565b818111156115205783604083870101525b50601f01601f1916929092016040019392505050565b60208082526024908201527f54656c654254433a206163636f756e7420697320746865207a65726f206164646040820152637265737360e01b606082015260800190565b60208082526023908201527f54656c654254433a206163636f756e7420646f6573206e6f74206861766520726040820152626f6c6560e81b606082015260800190565b6020808252818101527f4f776e61626c653a2063616c6c6572206973206e6f7420746865206f776e6572604082015260600190565b60208082526021908201527f54656c654254433a206163636f756e7420616c72656164792068617320726f6c6040820152606560f81b606082015260800190565b60008219821115611646576116466116bd565b500190565b60008261166657634e487b7160e01b81526012600452602481fd5b500490565b60008282101561167d5761167d6116bd565b500390565b60028104600182168061169657607f821691505b602082108114156116b757634e487b7160e01b600052602260045260246000fd5b50919050565b634e487b7160e01b600052601160045260246000fdfea2646970667358221220047a9802f1eeb55b53baf8fd352a9774668d47d22f0877772c26a111d5b2433a64736f6c63430008020033",
  "devdoc": {
    "kind": "dev",
    "methods": {
      "addBurner(address)": {
        "details": "Only owner can call this function",
        "params": {
          "account": "The account which intended to be added to burners"
        }
      },
      "addMinter(address)": {
        "details": "Only owner can call this function",
        "params": {
          "account": "The account which intended to be added to minters"
        }
      },
      "allowance(address,address)": {
        "details": "See {IERC20-allowance}."
      },
      "approve(address,uint256)": {
        "details": "See {IERC20-approve}. Requirements: - `spender` cannot be the zero address."
      },
      "balanceOf(address)": {
        "details": "See {IERC20-balanceOf}."
      },
      "burn(uint256)": {
        "details": "Only burners can call this",
        "params": {
          "_amount": "Amount of burnt tokens"
        }
      },
      "decreaseAllowance(address,uint256)": {
        "details": "Atomically decreases the allowance granted to `spender` by the caller. This is an alternative to {approve} that can be used as a mitigation for problems described in {IERC20-approve}. Emits an {Approval} event indicating the updated allowance. Requirements: - `spender` cannot be the zero address. - `spender` must have allowance for the caller of at least `subtractedValue`."
      },
      "increaseAllowance(address,uint256)": {
        "details": "Atomically increases the allowance granted to `spender` by the caller. This is an alternative to {approve} that can be used as a mitigation for problems described in {IERC20-approve}. Emits an {Approval} event indicating the updated allowance. Requirements: - `spender` cannot be the zero address."
      },
      "mint(address,uint256)": {
        "details": "Only minters can call this",
        "params": {
          "_amount": "Amount of minted tokens",
          "_receiver": "Address of token's receiver"
        }
      },
      "name()": {
        "details": "Returns the name of the token."
      },
      "owner()": {
        "details": "Returns the address of the current owner."
      },
      "removeBurner(address)": {
        "details": "Only owner can call this function",
        "params": {
          "account": "The account which intended to be removed from burners"
        }
      },
      "removeMinter(address)": {
        "details": "Only owner can call this function",
        "params": {
          "account": "The account which intended to be removed from minters"
        }
      },
      "renounceOwnership()": {
        "details": "Leaves the contract without owner. It will not be possible to call `onlyOwner` functions anymore. Can only be called by the current owner. NOTE: Renouncing ownership will leave the contract without an owner, thereby removing any functionality that is only available to the owner."
      },
      "setEpochLength(uint256)": {
        "details": "change blocks number per epoch."
      },
      "setMaxmimumMintLimit(uint256)": {
        "details": "change maximum mint limit per epoch."
      },
      "symbol()": {
        "details": "Returns the symbol of the token, usually a shorter version of the name."
      },
      "totalSupply()": {
        "details": "See {IERC20-totalSupply}."
      },
      "transfer(address,uint256)": {
        "details": "See {IERC20-transfer}. Requirements: - `recipient` cannot be the zero address. - the caller must have a balance of at least `amount`."
      },
      "transferFrom(address,address,uint256)": {
        "details": "See {IERC20-transferFrom}. Emits an {Approval} event indicating the updated allowance. This is not required by the EIP. See the note at the beginning of {ERC20}. Requirements: - `sender` and `recipient` cannot be the zero address. - `sender` must have a balance of at least `amount`. - the caller must have allowance for ``sender``'s tokens of at least `amount`."
      },
      "transferOwnership(address)": {
        "details": "Transfers ownership of the contract to a new account (`newOwner`). Can only be called by the current owner."
      }
    },
    "version": 1
  },
  "userdoc": {
    "kind": "user",
    "methods": {
      "addBurner(address)": {
        "notice": "Adds a burner"
      },
      "addMinter(address)": {
        "notice": "Adds a minter"
      },
      "burn(uint256)": {
        "notice": "Burns TeleBTC tokens of msg.sender"
      },
      "mint(address,uint256)": {
        "notice": "Mints TeleBTC tokens for _receiver"
      },
      "removeBurner(address)": {
        "notice": "Removes a burner"
      },
      "removeMinter(address)": {
        "notice": "Removes a minter"
      }
    },
    "version": 1
  },
  "storageLayout": {
    "storage": [
      {
        "astId": 1679,
        "contract": "contracts/erc20/TeleBTC.sol:TeleBTC",
        "label": "_balances",
        "offset": 0,
        "slot": "0",
        "type": "t_mapping(t_address,t_uint256)"
      },
      {
        "astId": 1685,
        "contract": "contracts/erc20/TeleBTC.sol:TeleBTC",
        "label": "_allowances",
        "offset": 0,
        "slot": "1",
        "type": "t_mapping(t_address,t_mapping(t_address,t_uint256))"
      },
      {
        "astId": 1687,
        "contract": "contracts/erc20/TeleBTC.sol:TeleBTC",
        "label": "_totalSupply",
        "offset": 0,
        "slot": "2",
        "type": "t_uint256"
      },
      {
        "astId": 1689,
        "contract": "contracts/erc20/TeleBTC.sol:TeleBTC",
        "label": "_name",
        "offset": 0,
        "slot": "3",
        "type": "t_string_storage"
      },
      {
        "astId": 1691,
        "contract": "contracts/erc20/TeleBTC.sol:TeleBTC",
        "label": "_symbol",
        "offset": 0,
        "slot": "4",
        "type": "t_string_storage"
      },
      {
        "astId": 807,
        "contract": "contracts/erc20/TeleBTC.sol:TeleBTC",
        "label": "_owner",
        "offset": 0,
        "slot": "5",
        "type": "t_address"
      },
      {
        "astId": 1634,
        "contract": "contracts/erc20/TeleBTC.sol:TeleBTC",
        "label": "_status",
        "offset": 0,
        "slot": "6",
        "type": "t_uint256"
      },
      {
        "astId": 4503,
        "contract": "contracts/erc20/TeleBTC.sol:TeleBTC",
        "label": "minters",
        "offset": 0,
        "slot": "7",
        "type": "t_mapping(t_address,t_bool)"
      },
      {
        "astId": 4507,
        "contract": "contracts/erc20/TeleBTC.sol:TeleBTC",
        "label": "burners",
        "offset": 0,
        "slot": "8",
        "type": "t_mapping(t_address,t_bool)"
      },
      {
        "astId": 4509,
        "contract": "contracts/erc20/TeleBTC.sol:TeleBTC",
        "label": "maxmimumMintLimit",
        "offset": 0,
        "slot": "9",
        "type": "t_uint256"
      },
      {
        "astId": 4511,
        "contract": "contracts/erc20/TeleBTC.sol:TeleBTC",
        "label": "lastMintLimit",
        "offset": 0,
        "slot": "10",
        "type": "t_uint256"
      },
      {
        "astId": 4513,
        "contract": "contracts/erc20/TeleBTC.sol:TeleBTC",
        "label": "epochLength",
        "offset": 0,
        "slot": "11",
        "type": "t_uint256"
      },
      {
        "astId": 4515,
        "contract": "contracts/erc20/TeleBTC.sol:TeleBTC",
        "label": "lastEpoch",
        "offset": 0,
        "slot": "12",
        "type": "t_uint256"
      }
    ],
    "types": {
      "t_address": {
        "encoding": "inplace",
        "label": "address",
        "numberOfBytes": "20"
      },
      "t_bool": {
        "encoding": "inplace",
        "label": "bool",
        "numberOfBytes": "1"
      },
      "t_mapping(t_address,t_bool)": {
        "encoding": "mapping",
        "key": "t_address",
        "label": "mapping(address => bool)",
        "numberOfBytes": "32",
        "value": "t_bool"
      },
      "t_mapping(t_address,t_mapping(t_address,t_uint256))": {
        "encoding": "mapping",
        "key": "t_address",
        "label": "mapping(address => mapping(address => uint256))",
        "numberOfBytes": "32",
        "value": "t_mapping(t_address,t_uint256)"
      },
      "t_mapping(t_address,t_uint256)": {
        "encoding": "mapping",
        "key": "t_address",
        "label": "mapping(address => uint256)",
        "numberOfBytes": "32",
        "value": "t_uint256"
      },
      "t_string_storage": {
        "encoding": "bytes",
        "label": "string",
        "numberOfBytes": "32"
      },
      "t_uint256": {
        "encoding": "inplace",
        "label": "uint256",
        "numberOfBytes": "32"
      }
    }
  }
}