{
  "address": "0xC11c131117844056318B903f30fF8FdE004CC55f",
  "abi": [
    {
      "inputs": [
        {
          "internalType": "address",
          "name": "_token",
          "type": "address"
        }
      ],
      "stateMutability": "nonpayable",
      "type": "constructor"
    },
    {
      "anonymous": false,
      "inputs": [
        {
          "indexed": false,
          "internalType": "address",
          "name": "transferOperator",
          "type": "address"
        }
      ],
      "name": "NewOperator",
      "type": "event"
    },
    {
      "anonymous": false,
      "inputs": [
        {
          "indexed": true,
          "internalType": "address",
          "name": "previousOwner",
          "type": "address"
        },
        {
          "indexed": true,
          "internalType": "address",
          "name": "newOwner",
          "type": "address"
        }
      ],
      "name": "OwnershipTransferred",
      "type": "event"
    },
    {
      "anonymous": false,
      "inputs": [
        {
          "indexed": true,
          "internalType": "address",
          "name": "owner",
          "type": "address"
        },
        {
          "indexed": false,
          "internalType": "uint256",
          "name": "stakeAmount",
          "type": "uint256"
        }
      ],
      "name": "WithdrawToken",
      "type": "event"
    },
    {
      "inputs": [
        {
          "internalType": "address[]",
          "name": "tokenHolders",
          "type": "address[]"
        },
        {
          "internalType": "uint256[]",
          "name": "amounts",
          "type": "uint256[]"
        }
      ],
      "name": "batchTransfer",
      "outputs": [],
      "stateMutability": "nonpayable",
      "type": "function"
    },
    {
      "inputs": [],
      "name": "owner",
      "outputs": [
        {
          "internalType": "address",
          "name": "",
          "type": "address"
        }
      ],
      "stateMutability": "view",
      "type": "function"
    },
    {
      "inputs": [],
      "name": "renounceOwnership",
      "outputs": [],
      "stateMutability": "nonpayable",
      "type": "function"
    },
    {
      "inputs": [],
      "name": "token",
      "outputs": [
        {
          "internalType": "contract ERC20",
          "name": "",
          "type": "address"
        }
      ],
      "stateMutability": "view",
      "type": "function"
    },
    {
      "inputs": [],
      "name": "transferOperator",
      "outputs": [
        {
          "internalType": "address",
          "name": "",
          "type": "address"
        }
      ],
      "stateMutability": "view",
      "type": "function"
    },
    {
      "inputs": [
        {
          "internalType": "address",
          "name": "newOwner",
          "type": "address"
        }
      ],
      "name": "transferOwnership",
      "outputs": [],
      "stateMutability": "nonpayable",
      "type": "function"
    },
    {
      "inputs": [
        {
          "internalType": "address",
          "name": "newOperator",
          "type": "address"
        }
      ],
      "name": "updateOperator",
      "outputs": [],
      "stateMutability": "nonpayable",
      "type": "function"
    },
    {
      "inputs": [
        {
          "internalType": "uint256",
          "name": "value",
          "type": "uint256"
        }
      ],
      "name": "withdrawToken",
      "outputs": [],
      "stateMutability": "nonpayable",
      "type": "function"
    }
  ],
  "transactionHash": "0x1886596f089e95368dd2f176880d730c29cbe31736c6fbe7f9f8246f337c52b4",
  "args": [
    "0x515D720B9D219f1931205D5B8D842bE1Fe2FeBDE"
  ],
  "numDeployments": 1,
  "solcInputHash": "8dd98dc4aa991c32d33e9715c7f5b702",
  "bytecode": "0x608060405234801561001057600080fd5b50604051610a2c380380610a2c83398101604081905261002f916100b6565b61003833610066565b600180546001600160a01b039092166001600160a01b031992831617905560028054909116331790556100e4565b600080546001600160a01b038381166001600160a01b0319831681178455604051919092169283917f8be0079c531659141344cd1fd0a4f28419497f9722a3daafe3b4186f6b6457e09190a35050565b6000602082840312156100c7578081fd5b81516001600160a01b03811681146100dd578182fd5b9392505050565b610939806100f36000396000f3fe608060405234801561001057600080fd5b50600436106100885760003560e01c8063ac7475ed1161005b578063ac7475ed146100e6578063d0835895146100f9578063f2fde38b1461010c578063fc0c546a1461011f57610088565b806350baa6221461008d578063715018a6146100a257806388d695b2146100aa5780638da5cb5b146100bd575b600080fd5b6100a061009b366004610832565b610132565b005b6100a0610357565b6100a06100b83660046107a9565b61038d565b6000546001600160a01b03165b6040516001600160a01b03909116815260200160405180910390f35b6100a06100f436600461077b565b610573565b6002546100ca906001600160a01b031681565b6100a061011a36600461077b565b610647565b6001546100ca906001600160a01b031681565b6002546001600160a01b031633146101655760405162461bcd60e51b815260040161015c90610897565b60405180910390fd5b6001546040516370a0823160e01b815230600482015282916001600160a01b0316906370a082319060240160206040518083038186803b1580156101a857600080fd5b505afa1580156101bc573d6000803e3d6000fd5b505050506040513d601f19601f820116820180604052508101906101e0919061084a565b10156102395760405162461bcd60e51b815260206004820152602260248201527f4e6f7420656e6f7567682062616c616e636520696e2074686520636f6e74726160448201526118dd60f21b606482015260840161015c565b60015460405163a9059cbb60e01b8152336004820152602481018390526001600160a01b039091169063a9059cbb90604401602060405180830381600087803b15801561028557600080fd5b505af1158015610299573d6000803e3d6000fd5b505050506040513d601f19601f820116820180604052508101906102bd9190610812565b61031f5760405162461bcd60e51b815260206004820152602d60248201527f556e61626c6520746f207472616e7366657220746f6b656e20746f207468652060448201526c1bdddb995c881858d8dbdd5b9d609a1b606482015260840161015c565b60405181815233907f992ee874049a42cae0757a765cd7f641b6028cc35c3478bde8330bf417c3a7a99060200160405180910390a250565b6000546001600160a01b031633146103815760405162461bcd60e51b815260040161015c90610862565b61038b60006106e2565b565b6002546001600160a01b031633146103b75760405162461bcd60e51b815260040161015c90610897565b8281146104065760405162461bcd60e51b815260206004820152601860248201527f496e76616c696420696e70757420706172616d65746572730000000000000000604482015260640161015c565b60005b8381101561056c576001546001600160a01b031663a9059cbb86868481811061044257634e487b7160e01b600052603260045260246000fd5b9050602002016020810190610457919061077b565b85858581811061047757634e487b7160e01b600052603260045260246000fd5b6040516001600160e01b031960e087901b1681526001600160a01b0390941660048501526020029190910135602483015250604401602060405180830381600087803b1580156104c657600080fd5b505af11580156104da573d6000803e3d6000fd5b505050506040513d601f19601f820116820180604052508101906104fe9190610812565b61055a5760405162461bcd60e51b815260206004820152602760248201527f556e61626c6520746f207472616e7366657220746f6b656e20746f20746865206044820152661858d8dbdd5b9d60ca1b606482015260840161015c565b80610564816108dc565b915050610409565b5050505050565b6000546001600160a01b0316331461059d5760405162461bcd60e51b815260040161015c90610862565b6001600160a01b0381166105f35760405162461bcd60e51b815260206004820152601860248201527f496e76616c6964206f70657261746f7220616464726573730000000000000000604482015260640161015c565b600280546001600160a01b0319166001600160a01b0383169081179091556040519081527fda12ee837e6978172aaf54b16145ffe08414fd8710092ef033c71b8eb6ec189a9060200160405180910390a150565b6000546001600160a01b031633146106715760405162461bcd60e51b815260040161015c90610862565b6001600160a01b0381166106d65760405162461bcd60e51b815260206004820152602660248201527f4f776e61626c653a206e6577206f776e657220697320746865207a65726f206160448201526564647265737360d01b606482015260840161015c565b6106df816106e2565b50565b600080546001600160a01b038381166001600160a01b0319831681178455604051919092169283917f8be0079c531659141344cd1fd0a4f28419497f9722a3daafe3b4186f6b6457e09190a35050565b60008083601f840112610743578182fd5b50813567ffffffffffffffff81111561075a578182fd5b602083019150836020808302850101111561077457600080fd5b9250929050565b60006020828403121561078c578081fd5b81356001600160a01b03811681146107a2578182fd5b9392505050565b600080600080604085870312156107be578283fd5b843567ffffffffffffffff808211156107d5578485fd5b6107e188838901610732565b909650945060208701359150808211156107f9578384fd5b5061080687828801610732565b95989497509550505050565b600060208284031215610823578081fd5b815180151581146107a2578182fd5b600060208284031215610843578081fd5b5035919050565b60006020828403121561085b578081fd5b5051919050565b6020808252818101527f4f776e61626c653a2063616c6c6572206973206e6f7420746865206f776e6572604082015260600190565b60208082526025908201527f4f6e6c79206f70657261746f722063616e2063616c6c20746869732066756e636040820152643a34b7b71760d91b606082015260800190565b60006000198214156108fc57634e487b7160e01b81526011600452602481fd5b506001019056fea264697066735822122040b0236e83cc33ca134854683accbe205063f2beae438ca302da3358d3456c4d64736f6c63430008020033",
  "devdoc": {
    "kind": "dev",
    "methods": {
      "owner()": {
        "details": "Returns the address of the current owner."
      },
      "renounceOwnership()": {
        "details": "Leaves the contract without owner. It will not be possible to call `onlyOwner` functions anymore. Can only be called by the current owner. NOTE: Renouncing ownership will leave the contract without an owner, thereby removing any functionality that is only available to the owner."
      },
      "transferOwnership(address)": {
        "details": "Transfers ownership of the contract to a new account (`newOwner`). Can only be called by the current owner."
      }
    },
    "version": 1
  },
  "userdoc": {
    "kind": "user",
    "methods": {},
    "version": 1
  },
  "storageLayout": {
    "storage": [
      {
        "astId": 880,
        "contract": "contracts/erc20/TokenBatchTransfer.sol:TokenBatchTransfer",
        "label": "_owner",
        "offset": 0,
        "slot": "0",
        "type": "t_address"
      },
      {
        "astId": 9367,
        "contract": "contracts/erc20/TokenBatchTransfer.sol:TokenBatchTransfer",
        "label": "token",
        "offset": 0,
        "slot": "1",
        "type": "t_contract(ERC20)2282"
      },
      {
        "astId": 9369,
        "contract": "contracts/erc20/TokenBatchTransfer.sol:TokenBatchTransfer",
        "label": "transferOperator",
        "offset": 0,
        "slot": "2",
        "type": "t_address"
      }
    ],
    "types": {
      "t_address": {
        "encoding": "inplace",
        "label": "address",
        "numberOfBytes": "20"
      },
      "t_contract(ERC20)2282": {
        "encoding": "inplace",
        "label": "contract ERC20",
        "numberOfBytes": "20"
      }
    }
  }
}