{
  "address": "0x463f8028562bbBC705f5e4639d7694E05340D8e9",
  "abi": [
    {
      "inputs": [
        {
          "internalType": "string",
          "name": "_name",
          "type": "string"
        },
        {
          "internalType": "address",
          "name": "_exchangeRouter",
          "type": "address"
        }
      ],
      "stateMutability": "nonpayable",
      "type": "constructor"
    },
    {
      "anonymous": false,
      "inputs": [
        {
          "indexed": true,
          "internalType": "address",
          "name": "previousOwner",
          "type": "address"
        },
        {
          "indexed": true,
          "internalType": "address",
          "name": "newOwner",
          "type": "address"
        }
      ],
      "name": "OwnershipTransferred",
      "type": "event"
    },
    {
      "anonymous": false,
      "inputs": [
        {
          "indexed": false,
          "internalType": "address[]",
          "name": "path",
          "type": "address[]"
        },
        {
          "indexed": false,
          "internalType": "uint256[]",
          "name": "amounts",
          "type": "uint256[]"
        },
        {
          "indexed": false,
          "internalType": "address",
          "name": "receiver",
          "type": "address"
        }
      ],
      "name": "Swap",
      "type": "event"
    },
    {
      "inputs": [],
      "name": "exchangeRouter",
      "outputs": [
        {
          "internalType": "address",
          "name": "",
          "type": "address"
        }
      ],
      "stateMutability": "view",
      "type": "function"
    },
    {
      "inputs": [
        {
          "internalType": "uint256",
          "name": "_outputAmount",
          "type": "uint256"
        },
        {
          "internalType": "address",
          "name": "_inputToken",
          "type": "address"
        },
        {
          "internalType": "address",
          "name": "_outputToken",
          "type": "address"
        }
      ],
      "name": "getInputAmount",
      "outputs": [
        {
          "internalType": "bool",
          "name": "",
          "type": "bool"
        },
        {
          "internalType": "uint256",
          "name": "",
          "type": "uint256"
        }
      ],
      "stateMutability": "view",
      "type": "function"
    },
    {
      "inputs": [
        {
          "internalType": "uint256",
          "name": "_inputAmount",
          "type": "uint256"
        },
        {
          "internalType": "address",
          "name": "_inputToken",
          "type": "address"
        },
        {
          "internalType": "address",
          "name": "_outputToken",
          "type": "address"
        }
      ],
      "name": "getOutputAmount",
      "outputs": [
        {
          "internalType": "bool",
          "name": "",
          "type": "bool"
        },
        {
          "internalType": "uint256",
          "name": "",
          "type": "uint256"
        }
      ],
      "stateMutability": "view",
      "type": "function"
    },
    {
      "inputs": [
        {
          "internalType": "address[]",
          "name": "_path",
          "type": "address[]"
        }
      ],
      "name": "isPathValid",
      "outputs": [
        {
          "internalType": "bool",
          "name": "_result",
          "type": "bool"
        }
      ],
      "stateMutability": "view",
      "type": "function"
    },
    {
      "inputs": [],
      "name": "liquidityPoolFactory",
      "outputs": [
        {
          "internalType": "address",
          "name": "",
          "type": "address"
        }
      ],
      "stateMutability": "view",
      "type": "function"
    },
    {
      "inputs": [],
      "name": "name",
      "outputs": [
        {
          "internalType": "string",
          "name": "",
          "type": "string"
        }
      ],
      "stateMutability": "view",
      "type": "function"
    },
    {
      "inputs": [],
      "name": "owner",
      "outputs": [
        {
          "internalType": "address",
          "name": "",
          "type": "address"
        }
      ],
      "stateMutability": "view",
      "type": "function"
    },
    {
      "inputs": [],
      "name": "renounceOwnership",
      "outputs": [],
      "stateMutability": "nonpayable",
      "type": "function"
    },
    {
      "inputs": [
        {
          "internalType": "address",
          "name": "_exchangeRouter",
          "type": "address"
        }
      ],
      "name": "setExchangeRouter",
      "outputs": [],
      "stateMutability": "nonpayable",
      "type": "function"
    },
    {
      "inputs": [],
      "name": "setLiquidityPoolFactory",
      "outputs": [],
      "stateMutability": "nonpayable",
      "type": "function"
    },
    {
      "inputs": [],
      "name": "setWrappedNativeToken",
      "outputs": [],
      "stateMutability": "nonpayable",
      "type": "function"
    },
    {
      "inputs": [
        {
          "internalType": "uint256",
          "name": "_inputAmount",
          "type": "uint256"
        },
        {
          "internalType": "uint256",
          "name": "_outputAmount",
          "type": "uint256"
        },
        {
          "internalType": "address[]",
          "name": "_path",
          "type": "address[]"
        },
        {
          "internalType": "address",
          "name": "_to",
          "type": "address"
        },
        {
          "internalType": "uint256",
          "name": "_deadline",
          "type": "uint256"
        },
        {
          "internalType": "bool",
          "name": "_isFixedToken",
          "type": "bool"
        }
      ],
      "name": "swap",
      "outputs": [
        {
          "internalType": "bool",
          "name": "_result",
          "type": "bool"
        },
        {
          "internalType": "uint256[]",
          "name": "_amounts",
          "type": "uint256[]"
        }
      ],
      "stateMutability": "nonpayable",
      "type": "function"
    },
    {
      "inputs": [
        {
          "internalType": "address",
          "name": "newOwner",
          "type": "address"
        }
      ],
      "name": "transferOwnership",
      "outputs": [],
      "stateMutability": "nonpayable",
      "type": "function"
    },
    {
      "inputs": [],
      "name": "wrappedNativeToken",
      "outputs": [
        {
          "internalType": "address",
          "name": "",
          "type": "address"
        }
      ],
      "stateMutability": "view",
      "type": "function"
    }
  ],
  "transactionHash": "0xa7c7d1c3f329e5b05807c4060c4a06ff873a2d6166262f5e3e009d0ca99c3552",
  "args": [
    "QuickswapV2",
    "0x8954AfA98594b838bda56FE4C12a09D7739D179b"
  ],
  "numDeployments": 1,
  "solcInputHash": "1ba4f48c1d751eec06ff21409e32d272",
  "bytecode": "0x60806040523480156200001157600080fd5b5060405162002851380380620028518339810160408190526200003491620002e5565b6200003f33620001ae565b60018055815162000058906002906020850190620001fe565b50600380546001600160a01b0319166001600160a01b0383811691909117918290556040805163c45a015560e01b81529051929091169163c45a015591600480820192602092909190829003018186803b158015620000b657600080fd5b505afa158015620000cb573d6000803e3d6000fd5b505050506040513d601f19601f82011682018060405250810190620000f19190620002c1565b600480546001600160a01b0319166001600160a01b03928316178155600354604080516315ab88c960e31b81529051919093169263ad5c46489281810192602092909190829003018186803b1580156200014a57600080fd5b505afa1580156200015f573d6000803e3d6000fd5b505050506040513d601f19601f82011682018060405250810190620001859190620002c1565b600580546001600160a01b0319166001600160a01b039290921691909117905550620004239050565b600080546001600160a01b038381166001600160a01b0319831681178455604051919092169283917f8be0079c531659141344cd1fd0a4f28419497f9722a3daafe3b4186f6b6457e09190a35050565b8280546200020c90620003d0565b90600052602060002090601f0160209004810192826200023057600085556200027b565b82601f106200024b57805160ff19168380011785556200027b565b828001600101855582156200027b579182015b828111156200027b5782518255916020019190600101906200025e565b50620002899291506200028d565b5090565b5b808211156200028957600081556001016200028e565b80516001600160a01b0381168114620002bc57600080fd5b919050565b600060208284031215620002d3578081fd5b620002de82620002a4565b9392505050565b60008060408385031215620002f8578081fd5b82516001600160401b03808211156200030f578283fd5b818501915085601f83011262000323578283fd5b8151818111156200033857620003386200040d565b604051601f8201601f19908116603f011681019083821181831017156200036357620003636200040d565b816040528281526020935088848487010111156200037f578586fd5b8591505b82821015620003a2578482018401518183018501529083019062000383565b82821115620003b357858484830101525b9550620003c5915050858201620002a4565b925050509250929050565b600281046001821680620003e557607f821691505b602082108114156200040757634e487b7160e01b600052602260045260246000fd5b50919050565b634e487b7160e01b600052604160045260246000fd5b61241e80620004336000396000f3fe608060405234801561001057600080fd5b50600436106100ea5760003560e01c80638da5cb5b1161008c578063b23e4fc611610066578063b23e4fc6146101ef578063df71d7f3146101f7578063e75d75d51461020a578063f2fde38b1461021d576100ea565b80638da5cb5b1461019a5780639b4bca24146101ab578063b0bbcd88146101ce576100ea565b80631cb85818116100c85780631cb8581814610142578063715018a614610155578063838b7ccb1461015d5780638988307414610170576100ea565b806306fdde03146100ef5780631580b5e51461010d57806317fcb39b14610117575b600080fd5b6100f7610230565b6040516101049190612217565b60405180910390f35b6101156102be565b005b60055461012a906001600160a01b031681565b6040516001600160a01b039091168152602001610104565b60035461012a906001600160a01b031681565b6101156103c5565b61011561016b366004611f66565b610421565b61018361017e36600461208c565b61064c565b604080519215158352602083019190915201610104565b6000546001600160a01b031661012a565b6101be6101b9366004611fa5565b610b06565b6040519015158152602001610104565b6101e16101dc3660046120cd565b610c63565b6040516101049291906121fc565b610115611587565b61018361020536600461208c565b611689565b60045461012a906001600160a01b031681565b61011561022b366004611f66565b611be2565b6002805461023d90612343565b80601f016020809104026020016040519081016040528092919081815260200182805461026990612343565b80156102b65780601f1061028b576101008083540402835291602001916102b6565b820191906000526020600020905b81548152906001019060200180831161029957829003601f168201915b505050505081565b6000546001600160a01b0316331461031d5760405162461bcd60e51b815260206004820181905260248201527f4f776e61626c653a2063616c6c6572206973206e6f7420746865206f776e657260448201526064015b60405180910390fd5b600360009054906101000a90046001600160a01b03166001600160a01b031663ad5c46486040518163ffffffff1660e01b815260040160206040518083038186803b15801561036b57600080fd5b505afa15801561037f573d6000803e3d6000fd5b505050506040513d601f19601f820116820180604052508101906103a39190611f89565b600580546001600160a01b0319166001600160a01b0392909216919091179055565b6000546001600160a01b0316331461041f5760405162461bcd60e51b815260206004820181905260248201527f4f776e61626c653a2063616c6c6572206973206e6f7420746865206f776e65726044820152606401610314565b565b806001600160a01b0381166104785760405162461bcd60e51b815260206004820181905260248201527f556e69737761705632436f6e6e6563746f723a207a65726f20616464726573736044820152606401610314565b6000546001600160a01b031633146104d25760405162461bcd60e51b815260206004820181905260248201527f4f776e61626c653a2063616c6c6572206973206e6f7420746865206f776e65726044820152606401610314565b600380546001600160a01b0319166001600160a01b038481169190911791829055604080517fc45a01550000000000000000000000000000000000000000000000000000000081529051929091169163c45a015591600480820192602092909190829003018186803b15801561054757600080fd5b505afa15801561055b573d6000803e3d6000fd5b505050506040513d601f19601f8201168201806040525081019061057f9190611f89565b600480546001600160a01b0319166001600160a01b03928316178155600354604080517fad5c46480000000000000000000000000000000000000000000000000000000081529051919093169263ad5c46489281810192602092909190829003018186803b1580156105f057600080fd5b505afa158015610604573d6000803e3d6000fd5b505050506040513d601f19601f820116820180604052508101906106289190611f89565b600580546001600160a01b0319166001600160a01b03929092169190911790555050565b600080836001600160a01b0381166106a65760405162461bcd60e51b815260206004820181905260248201527f556e69737761705632436f6e6e6563746f723a207a65726f20616464726573736044820152606401610314565b836001600160a01b0381166106fd5760405162461bcd60e51b815260206004820181905260248201527f556e69737761705632436f6e6e6563746f723a207a65726f20616464726573736044820152606401610314565b6004805460405163e6a4390560e01b81526001600160a01b038981169382019390935287831660248201526000929091169063e6a439059060440160206040518083038186803b15801561075057600080fd5b505afa158015610764573d6000803e3d6000fd5b505050506040513d601f19601f820116820180604052508101906107889190611f89565b90506001600160a01b038116610a77576004805460055460405163e6a4390560e01b81526001600160a01b038b81169482019490945290831660248201526000929091169063e6a439059060440160206040518083038186803b1580156107ee57600080fd5b505afa158015610802573d6000803e3d6000fd5b505050506040513d601f19601f820116820180604052508101906108269190611f89565b6001600160a01b031614806108ce57506004805460055460405163e6a4390560e01b81526001600160a01b0391821693810193909352888116602484015260009291169063e6a439059060440160206040518083038186803b15801561088b57600080fd5b505afa15801561089f573d6000803e3d6000fd5b505050506040513d601f19601f820116820180604052508101906108c39190611f89565b6001600160a01b0316145b156108e0576000809450945050610afc565b6040805160038082526080820190925260009160208201606080368337019050509050878160008151811061092557634e487b7160e01b600052603260045260246000fd5b6001600160a01b03928316602091820292909201015260055482519116908290600190811061096457634e487b7160e01b600052603260045260246000fd5b60200260200101906001600160a01b031690816001600160a01b03168152505086816002815181106109a657634e487b7160e01b600052603260045260246000fd5b6001600160a01b0392831660209182029290920101526003546040516307c0329d60e21b81526000929190911690631f00ca74906109ea908d90869060040161226a565b60006040518083038186803b158015610a0257600080fd5b505afa158015610a16573d6000803e3d6000fd5b505050506040513d6000823e601f3d908101601f19168201604052610a3e9190810190611fe0565b9050600181600081518110610a6357634e487b7160e01b600052603260045260246000fd5b602002602001015196509650505050610afc565b6040805160028082526060820183526000926020830190803683370190505090508781600081518110610aba57634e487b7160e01b600052603260045260246000fd5b60200260200101906001600160a01b031690816001600160a01b03168152505086816001815181106109a657634e487b7160e01b600052603260045260246000fd5b5050935093915050565b600080600283511015610b1d576000915050610c5e565b60005b60018451610b2e919061232c565b811015610c575760045484516001600160a01b039091169063e6a4390590869084908110610b6c57634e487b7160e01b600052603260045260246000fd5b602002602001015186846001610b829190612314565b81518110610ba057634e487b7160e01b600052603260045260246000fd5b60200260200101516040518363ffffffff1660e01b8152600401610bda9291906001600160a01b0392831681529116602082015260400190565b60206040518083038186803b158015610bf257600080fd5b505afa158015610c06573d6000803e3d6000fd5b505050506040513d601f19601f82011682018060405250810190610c2a9190611f89565b91506001600160a01b038216610c4557600092505050610c5e565b80610c4f8161237e565b915050610b20565b5060019150505b919050565b6000606060026001541415610cba5760405162461bcd60e51b815260206004820152601f60248201527f5265656e7472616e637947756172643a207265656e7472616e742063616c6c006044820152606401610314565b6002600155846001600160a01b038116610d165760405162461bcd60e51b815260206004820181905260248201527f556e69737761705632436f6e6e6563746f723a207a65726f20616464726573736044820152606401610314565b865160021415610f4c5760045487516000916001600160a01b03169063e6a43905908a908490610d5657634e487b7160e01b600052603260045260246000fd5b60200260200101518a600181518110610d7f57634e487b7160e01b600052603260045260246000fd5b60200260200101516040518363ffffffff1660e01b8152600401610db99291906001600160a01b0392831681529116602082015260400190565b60206040518083038186803b158015610dd157600080fd5b505afa158015610de5573d6000803e3d6000fd5b505050506040513d601f19601f82011682018060405250810190610e099190611f89565b90506001600160a01b038116610f4a57604080516003808252608082019092526000916020820160608036833701905050905088600081518110610e5d57634e487b7160e01b600052603260045260246000fd5b602002602001015181600081518110610e8657634e487b7160e01b600052603260045260246000fd5b6001600160a01b039283166020918202929092010152600554825191169082906001908110610ec557634e487b7160e01b600052603260045260246000fd5b60200260200101906001600160a01b031690816001600160a01b03168152505088600181518110610f0657634e487b7160e01b600052603260045260246000fd5b602002602001015181600281518110610f2f57634e487b7160e01b600052603260045260246000fd5b6001600160a01b039092166020928302919091019091015297505b505b6000610f5b8a8a8a8989611cc4565b909450905083156115745787600081518110610f8757634e487b7160e01b600052603260045260246000fd5b60200260200101516001600160a01b03166323b872dd610fa43390565b6040517fffffffff0000000000000000000000000000000000000000000000000000000060e084901b1681526001600160a01b03909116600482015230602482015260448101849052606401602060405180830381600087803b15801561100a57600080fd5b505af115801561101e573d6000803e3d6000fd5b505050506040513d601f19601f820116820180604052508101906110429190612070565b508760008151811061106457634e487b7160e01b600052603260045260246000fd5b60209081029190910101516003546040517f095ea7b30000000000000000000000000000000000000000000000000000000081526001600160a01b0391821660048201526024810184905291169063095ea7b390604401602060405180830381600087803b1580156110d557600080fd5b505af11580156110e9573d6000803e3d6000fd5b505050506040513d601f19601f8201168201806040525081019061110d9190612070565b5084158015611168575060055488516001600160a01b039091169089906111369060019061232c565b8151811061115457634e487b7160e01b600052603260045260246000fd5b60200260200101516001600160a01b031614155b15611217576003546040517f8803dbee0000000000000000000000000000000000000000000000000000000081526001600160a01b0390911690638803dbee906111be908c908e908d908d908d90600401612283565b600060405180830381600087803b1580156111d857600080fd5b505af11580156111ec573d6000803e3d6000fd5b505050506040513d6000823e601f3d908101601f191682016040526112149190810190611fe0565b92505b84158015611270575060055488516001600160a01b0390911690899061123f9060019061232c565b8151811061125d57634e487b7160e01b600052603260045260246000fd5b60200260200101516001600160a01b0316145b1561131f576003546040517f4a25d94a0000000000000000000000000000000000000000000000000000000081526001600160a01b0390911690634a25d94a906112c6908c908e908d908d908d90600401612283565b600060405180830381600087803b1580156112e057600080fd5b505af11580156112f4573d6000803e3d6000fd5b505050506040513d6000823e601f3d908101601f1916820160405261131c9190810190611fe0565b92505b600185151514801561137d575060055488516001600160a01b0390911690899061134b9060019061232c565b8151811061136957634e487b7160e01b600052603260045260246000fd5b60200260200101516001600160a01b031614155b1561142c576003546040517f38ed17390000000000000000000000000000000000000000000000000000000081526001600160a01b03909116906338ed1739906113d3908d908d908d908d908d90600401612283565b600060405180830381600087803b1580156113ed57600080fd5b505af1158015611401573d6000803e3d6000fd5b505050506040513d6000823e601f3d908101601f191682016040526114299190810190611fe0565b92505b6001851515148015611489575060055488516001600160a01b039091169089906114589060019061232c565b8151811061147657634e487b7160e01b600052603260045260246000fd5b60200260200101516001600160a01b0316145b15611538576003546040517f18cbafe50000000000000000000000000000000000000000000000000000000081526001600160a01b03909116906318cbafe5906114df908d908d908d908d908d90600401612283565b600060405180830381600087803b1580156114f957600080fd5b505af115801561150d573d6000803e3d6000fd5b505050506040513d6000823e601f3d908101601f191682016040526115359190810190611fe0565b92505b7fe1010d0ab476908054981d12fbb96915efcceb8d57a09ae8ca62f4bda731837388848960405161156b939291906121bd565b60405180910390a15b5050600180559097909650945050505050565b6000546001600160a01b031633146115e15760405162461bcd60e51b815260206004820181905260248201527f4f776e61626c653a2063616c6c6572206973206e6f7420746865206f776e65726044820152606401610314565b600360009054906101000a90046001600160a01b03166001600160a01b031663c45a01556040518163ffffffff1660e01b815260040160206040518083038186803b15801561162f57600080fd5b505afa158015611643573d6000803e3d6000fd5b505050506040513d601f19601f820116820180604052508101906116679190611f89565b600480546001600160a01b0319166001600160a01b0392909216919091179055565b600080836001600160a01b0381166116e35760405162461bcd60e51b815260206004820181905260248201527f556e69737761705632436f6e6e6563746f723a207a65726f20616464726573736044820152606401610314565b836001600160a01b03811661173a5760405162461bcd60e51b815260206004820181905260248201527f556e69737761705632436f6e6e6563746f723a207a65726f20616464726573736044820152606401610314565b6004805460405163e6a4390560e01b81526001600160a01b038981169382019390935287831660248201526000929091169063e6a439059060440160206040518083038186803b15801561178d57600080fd5b505afa1580156117a1573d6000803e3d6000fd5b505050506040513d601f19601f820116820180604052508101906117c59190611f89565b90506001600160a01b038116611aa0576004805460055460405163e6a4390560e01b81526001600160a01b038b81169482019490945290831660248201526000929091169063e6a439059060440160206040518083038186803b15801561182b57600080fd5b505afa15801561183f573d6000803e3d6000fd5b505050506040513d601f19601f820116820180604052508101906118639190611f89565b6001600160a01b0316148061190b57506004805460055460405163e6a4390560e01b81526001600160a01b0391821693810193909352888116602484015260009291169063e6a439059060440160206040518083038186803b1580156118c857600080fd5b505afa1580156118dc573d6000803e3d6000fd5b505050506040513d601f19601f820116820180604052508101906119009190611f89565b6001600160a01b0316145b1561191d576000809450945050610afc565b6040805160038082526080820190925260009160208201606080368337019050509050878160008151811061196257634e487b7160e01b600052603260045260246000fd5b6001600160a01b0392831660209182029290920101526005548251911690829060019081106119a157634e487b7160e01b600052603260045260246000fd5b60200260200101906001600160a01b031690816001600160a01b03168152505086816002815181106119e357634e487b7160e01b600052603260045260246000fd5b6001600160a01b03928316602091820292909201015260035460405163d06ca61f60e01b8152600092919091169063d06ca61f90611a27908d90869060040161226a565b60006040518083038186803b158015611a3f57600080fd5b505afa158015611a53573d6000803e3d6000fd5b505050506040513d6000823e601f3d908101601f19168201604052611a7b9190810190611fe0565b9050600181600281518110610a6357634e487b7160e01b600052603260045260246000fd5b6040805160028082526060820183526000926020830190803683370190505090508781600081518110611ae357634e487b7160e01b600052603260045260246000fd5b60200260200101906001600160a01b031690816001600160a01b0316815250508681600181518110611b2557634e487b7160e01b600052603260045260246000fd5b6001600160a01b03928316602091820292909201015260035460405163d06ca61f60e01b8152600092919091169063d06ca61f90611b69908d90869060040161226a565b60006040518083038186803b158015611b8157600080fd5b505afa158015611b95573d6000803e3d6000fd5b505050506040513d6000823e601f3d908101601f19168201604052611bbd9190810190611fe0565b9050600181600181518110610a6357634e487b7160e01b600052603260045260246000fd5b6000546001600160a01b03163314611c3c5760405162461bcd60e51b815260206004820181905260248201527f4f776e61626c653a2063616c6c6572206973206e6f7420746865206f776e65726044820152606401610314565b6001600160a01b038116611cb85760405162461bcd60e51b815260206004820152602660248201527f4f776e61626c653a206e6577206f776e657220697320746865207a65726f206160448201527f64647265737300000000000000000000000000000000000000000000000000006064820152608401610314565b611cc181611ea1565b50565b60008042841015611cda57506000905080611e97565b611ce385610b06565b611cf257506000905080611e97565b60035460405163d06ca61f60e01b81526000916001600160a01b03169063d06ca61f90611d25908b908a9060040161226a565b60006040518083038186803b158015611d3d57600080fd5b505afa158015611d51573d6000803e3d6000fd5b505050506040513d6000823e601f3d908101601f19168201604052611d799190810190611fe0565b90508060018751611d8a919061232c565b81518110611da857634e487b7160e01b600052603260045260246000fd5b6020026020010151871115611dc4576000809250925050611e97565b60018415151415611ddc576001889250925050611e97565b6003546040516307c0329d60e21b81526000916001600160a01b031690631f00ca7490611e0f908b908b9060040161226a565b60006040518083038186803b158015611e2757600080fd5b505afa158015611e3b573d6000803e3d6000fd5b505050506040513d6000823e601f3d908101601f19168201604052611e639190810190611fe0565b9050600181600081518110611e8857634e487b7160e01b600052603260045260246000fd5b60200260200101519350935050505b9550959350505050565b600080546001600160a01b038381166001600160a01b0319831681178455604051919092169283917f8be0079c531659141344cd1fd0a4f28419497f9722a3daafe3b4186f6b6457e09190a35050565b600082601f830112611f01578081fd5b81356020611f16611f11836122f0565b6122bf565b8281528181019085830183850287018401881015611f32578586fd5b855b85811015611f59578135611f47816123c5565b84529284019290840190600101611f34565b5090979650505050505050565b600060208284031215611f77578081fd5b8135611f82816123c5565b9392505050565b600060208284031215611f9a578081fd5b8151611f82816123c5565b600060208284031215611fb6578081fd5b813567ffffffffffffffff811115611fcc578182fd5b611fd884828501611ef1565b949350505050565b60006020808385031215611ff2578182fd5b825167ffffffffffffffff811115612008578283fd5b8301601f81018513612018578283fd5b8051612026611f11826122f0565b8181528381019083850185840285018601891015612042578687fd5b8694505b83851015612064578051835260019490940193918501918501612046565b50979650505050505050565b600060208284031215612081578081fd5b8151611f82816123da565b6000806000606084860312156120a0578182fd5b8335925060208401356120b2816123c5565b915060408401356120c2816123c5565b809150509250925092565b60008060008060008060c087890312156120e5578182fd5b8635955060208701359450604087013567ffffffffffffffff811115612109578283fd5b61211589828a01611ef1565b9450506060870135612126816123c5565b92506080870135915060a087013561213d816123da565b809150509295509295509295565b6000815180845260208085019450808401835b838110156121835781516001600160a01b03168752958201959082019060010161215e565b509495945050505050565b6000815180845260208085019450808401835b83811015612183578151875295820195908201906001016121a1565b6000606082526121d0606083018661214b565b82810360208401526121e2818661218e565b9150506001600160a01b0383166040830152949350505050565b6000831515825260406020830152611fd8604083018461218e565b6000602080835283518082850152825b8181101561224357858101830151858201604001528201612227565b818111156122545783604083870101525b50601f01601f1916929092016040019392505050565b600083825260406020830152611fd8604083018461214b565b600086825285602083015260a060408301526122a260a083018661214b565b6001600160a01b0394909416606083015250608001529392505050565b604051601f8201601f1916810167ffffffffffffffff811182821017156122e8576122e86123af565b604052919050565b600067ffffffffffffffff82111561230a5761230a6123af565b5060209081020190565b6000821982111561232757612327612399565b500190565b60008282101561233e5761233e612399565b500390565b60028104600182168061235757607f821691505b6020821081141561237857634e487b7160e01b600052602260045260246000fd5b50919050565b600060001982141561239257612392612399565b5060010190565b634e487b7160e01b600052601160045260246000fd5b634e487b7160e01b600052604160045260246000fd5b6001600160a01b0381168114611cc157600080fd5b8015158114611cc157600080fdfea26469706673582212205055394c0f92f2478e82a7c459b40e0072f6053171ae2ece47020f66d52b942e64736f6c63430008020033",
  "devdoc": {
    "kind": "dev",
    "methods": {
      "constructor": {
        "params": {
          "_exchangeRouter": "Address of the DEX router contract",
          "_name": "Name of the underlying DEX"
        }
      },
      "getInputAmount(uint256,address,address)": {
        "details": "Returns (false, 0) if liquidity pool of inputToken-outputToken doesn't exist                             Returns (false, 0) if desired output amount is greater than or equal to output reserve",
        "params": {
          "_inputToken": "Address of the input token",
          "_outputAmount": "Desired output amount",
          "_outputToken": "Address of the output token"
        }
      },
      "getOutputAmount(uint256,address,address)": {
        "details": "Returns (false, 0) if liquidity pool of inputToken-outputToken doesn't exist",
        "params": {
          "_inputAmount": "Amount of input token",
          "_inputToken": "Address of the input token",
          "_outputToken": "Address of the output token"
        }
      },
      "isPathValid(address[])": {
        "params": {
          "_path": "List of tokens that are used for exchanging"
        }
      },
      "owner()": {
        "details": "Returns the address of the current owner."
      },
      "renounceOwnership()": {
        "details": "Leaves the contract without owner. It will not be possible to call `onlyOwner` functions anymore. Can only be called by the current owner. NOTE: Renouncing ownership will leave the contract without an owner, thereby removing any functionality that is only available to the owner."
      },
      "setExchangeRouter(address)": {
        "details": "Gets address of liquidity pool factory from new exchange router",
        "params": {
          "_exchangeRouter": "Address of the new exchange router contract"
        }
      },
      "setLiquidityPoolFactory()": {
        "details": "Gets address from exchange router"
      },
      "setWrappedNativeToken()": {
        "details": "Gets address from exchange router"
      },
      "swap(uint256,uint256,address[],address,uint256,bool)": {
        "details": "Checks exchange conditions before exchanging                             We assume that the input token is not WETH (it is teleBTC)",
        "params": {
          "_deadline": "Deadline of exchanging tokens",
          "_inputAmount": "Amount of input token",
          "_isFixedToken": "True if the input token amount is fixed",
          "_outputAmount": "Amount of output token",
          "_path": "List of tokens that are used for exchanging",
          "_to": "Receiver address"
        },
        "returns": {
          "_amounts": "           Amounts of tokens that are involved in exchanging",
          "_result": "            True if the exchange is successful"
        }
      },
      "transferOwnership(address)": {
        "details": "Transfers ownership of the contract to a new account (`newOwner`). Can only be called by the current owner."
      }
    },
    "version": 1
  },
  "userdoc": {
    "kind": "user",
    "methods": {
      "constructor": {
        "notice": "This contract is used for interacting with UniswapV2 contract"
      },
      "getInputAmount(uint256,address,address)": {
        "notice": "Returns required input amount to get desired output amount"
      },
      "getOutputAmount(uint256,address,address)": {
        "notice": "Returns amount of output token that user receives "
      },
      "isPathValid(address[])": {
        "notice": "Returns true if the exchange path is valid"
      },
      "setExchangeRouter(address)": {
        "notice": "Setter for exchange router"
      },
      "setLiquidityPoolFactory()": {
        "notice": "Setter for liquidity pool factory"
      },
      "setWrappedNativeToken()": {
        "notice": "Setter for wrapped native token"
      },
      "swap(uint256,uint256,address[],address,uint256,bool)": {
        "notice": "Exchanges input token for output token through exchange router"
      }
    },
    "version": 1
  },
  "storageLayout": {
    "storage": [
      {
        "astId": 1853,
        "contract": "contracts/connectors/UniswapV2Connector.sol:UniswapV2Connector",
        "label": "_owner",
        "offset": 0,
        "slot": "0",
        "type": "t_address"
      },
      {
        "astId": 2680,
        "contract": "contracts/connectors/UniswapV2Connector.sol:UniswapV2Connector",
        "label": "_status",
        "offset": 0,
        "slot": "1",
        "type": "t_uint256"
      },
      {
        "astId": 10447,
        "contract": "contracts/connectors/UniswapV2Connector.sol:UniswapV2Connector",
        "label": "name",
        "offset": 0,
        "slot": "2",
        "type": "t_string_storage"
      },
      {
        "astId": 10450,
        "contract": "contracts/connectors/UniswapV2Connector.sol:UniswapV2Connector",
        "label": "exchangeRouter",
        "offset": 0,
        "slot": "3",
        "type": "t_address"
      },
      {
        "astId": 10453,
        "contract": "contracts/connectors/UniswapV2Connector.sol:UniswapV2Connector",
        "label": "liquidityPoolFactory",
        "offset": 0,
        "slot": "4",
        "type": "t_address"
      },
      {
        "astId": 10456,
        "contract": "contracts/connectors/UniswapV2Connector.sol:UniswapV2Connector",
        "label": "wrappedNativeToken",
        "offset": 0,
        "slot": "5",
        "type": "t_address"
      }
    ],
    "types": {
      "t_address": {
        "encoding": "inplace",
        "label": "address",
        "numberOfBytes": "20"
      },
      "t_string_storage": {
        "encoding": "bytes",
        "label": "string",
        "numberOfBytes": "32"
      },
      "t_uint256": {
        "encoding": "inplace",
        "label": "uint256",
        "numberOfBytes": "32"
      }
    }
  }
}