{
  "address": "0x75E6d0de46a72edFa66290A04d336BB875b56B7C",
  "abi": [
    {
      "inputs": [
        {
          "internalType": "string",
          "name": "_name",
          "type": "string"
        },
        {
          "internalType": "address",
          "name": "_exchangeRouter",
          "type": "address"
        }
      ],
      "stateMutability": "nonpayable",
      "type": "constructor"
    },
    {
      "anonymous": false,
      "inputs": [
        {
          "indexed": true,
          "internalType": "address",
          "name": "previousOwner",
          "type": "address"
        },
        {
          "indexed": true,
          "internalType": "address",
          "name": "newOwner",
          "type": "address"
        }
      ],
      "name": "OwnershipTransferred",
      "type": "event"
    },
    {
      "anonymous": false,
      "inputs": [
        {
          "indexed": false,
          "internalType": "address[]",
          "name": "path",
          "type": "address[]"
        },
        {
          "indexed": false,
          "internalType": "uint256[]",
          "name": "amounts",
          "type": "uint256[]"
        },
        {
          "indexed": false,
          "internalType": "address",
          "name": "receiver",
          "type": "address"
        }
      ],
      "name": "Swap",
      "type": "event"
    },
    {
      "inputs": [],
      "name": "exchangeRouter",
      "outputs": [
        {
          "internalType": "address",
          "name": "",
          "type": "address"
        }
      ],
      "stateMutability": "view",
      "type": "function"
    },
    {
      "inputs": [
        {
          "internalType": "uint256",
          "name": "_outputAmount",
          "type": "uint256"
        },
        {
          "internalType": "address",
          "name": "_inputToken",
          "type": "address"
        },
        {
          "internalType": "address",
          "name": "_outputToken",
          "type": "address"
        }
      ],
      "name": "getInputAmount",
      "outputs": [
        {
          "internalType": "bool",
          "name": "",
          "type": "bool"
        },
        {
          "internalType": "uint256",
          "name": "",
          "type": "uint256"
        }
      ],
      "stateMutability": "view",
      "type": "function"
    },
    {
      "inputs": [
        {
          "internalType": "uint256",
          "name": "_inputAmount",
          "type": "uint256"
        },
        {
          "internalType": "address",
          "name": "_inputToken",
          "type": "address"
        },
        {
          "internalType": "address",
          "name": "_outputToken",
          "type": "address"
        }
      ],
      "name": "getOutputAmount",
      "outputs": [
        {
          "internalType": "bool",
          "name": "",
          "type": "bool"
        },
        {
          "internalType": "uint256",
          "name": "",
          "type": "uint256"
        }
      ],
      "stateMutability": "view",
      "type": "function"
    },
    {
      "inputs": [
        {
          "internalType": "address[]",
          "name": "_path",
          "type": "address[]"
        }
      ],
      "name": "isPathValid",
      "outputs": [
        {
          "internalType": "bool",
          "name": "_result",
          "type": "bool"
        }
      ],
      "stateMutability": "view",
      "type": "function"
    },
    {
      "inputs": [],
      "name": "liquidityPoolFactory",
      "outputs": [
        {
          "internalType": "address",
          "name": "",
          "type": "address"
        }
      ],
      "stateMutability": "view",
      "type": "function"
    },
    {
      "inputs": [],
      "name": "name",
      "outputs": [
        {
          "internalType": "string",
          "name": "",
          "type": "string"
        }
      ],
      "stateMutability": "view",
      "type": "function"
    },
    {
      "inputs": [],
      "name": "owner",
      "outputs": [
        {
          "internalType": "address",
          "name": "",
          "type": "address"
        }
      ],
      "stateMutability": "view",
      "type": "function"
    },
    {
      "inputs": [],
      "name": "renounceOwnership",
      "outputs": [],
      "stateMutability": "nonpayable",
      "type": "function"
    },
    {
      "inputs": [
        {
          "internalType": "address",
          "name": "_exchangeRouter",
          "type": "address"
        }
      ],
      "name": "setExchangeRouter",
      "outputs": [],
      "stateMutability": "nonpayable",
      "type": "function"
    },
    {
      "inputs": [],
      "name": "setLiquidityPoolFactory",
      "outputs": [],
      "stateMutability": "nonpayable",
      "type": "function"
    },
    {
      "inputs": [],
      "name": "setWrappedNativeToken",
      "outputs": [],
      "stateMutability": "nonpayable",
      "type": "function"
    },
    {
      "inputs": [
        {
          "internalType": "uint256",
          "name": "_inputAmount",
          "type": "uint256"
        },
        {
          "internalType": "uint256",
          "name": "_outputAmount",
          "type": "uint256"
        },
        {
          "internalType": "address[]",
          "name": "_path",
          "type": "address[]"
        },
        {
          "internalType": "address",
          "name": "_to",
          "type": "address"
        },
        {
          "internalType": "uint256",
          "name": "_deadline",
          "type": "uint256"
        },
        {
          "internalType": "bool",
          "name": "_isFixedToken",
          "type": "bool"
        }
      ],
      "name": "swap",
      "outputs": [
        {
          "internalType": "bool",
          "name": "_result",
          "type": "bool"
        },
        {
          "internalType": "uint256[]",
          "name": "_amounts",
          "type": "uint256[]"
        }
      ],
      "stateMutability": "nonpayable",
      "type": "function"
    },
    {
      "inputs": [
        {
          "internalType": "address",
          "name": "newOwner",
          "type": "address"
        }
      ],
      "name": "transferOwnership",
      "outputs": [],
      "stateMutability": "nonpayable",
      "type": "function"
    },
    {
      "inputs": [],
      "name": "wrappedNativeToken",
      "outputs": [
        {
          "internalType": "address",
          "name": "",
          "type": "address"
        }
      ],
      "stateMutability": "view",
      "type": "function"
    }
  ],
  "transactionHash": "0xbdfede058102c38cb144c64f8f3394d0ce76ee5c9c1d8348d60ec85dc0158bba",
  "args": [
    "TheConnector",
    "0x1957fb0854FAe36d8286123748A363114568E078"
  ],
  "numDeployments": 1,
  "solcInputHash": "75de7cb825f3b6d07e1f1f6c98977d78",
  "bytecode": "0x60806040523480156200001157600080fd5b5060405162001fdd38038062001fdd8339810160408190526200003491620002e5565b6200003f33620001ae565b60018055815162000058906002906020850190620001fe565b50600380546001600160a01b0319166001600160a01b0383811691909117918290556040805163c45a015560e01b81529051929091169163c45a015591600480820192602092909190829003018186803b158015620000b657600080fd5b505afa158015620000cb573d6000803e3d6000fd5b505050506040513d601f19601f82011682018060405250810190620000f19190620002c1565b600480546001600160a01b0319166001600160a01b03928316178155600354604080516315ab88c960e31b81529051919093169263ad5c46489281810192602092909190829003018186803b1580156200014a57600080fd5b505afa1580156200015f573d6000803e3d6000fd5b505050506040513d601f19601f82011682018060405250810190620001859190620002c1565b600580546001600160a01b0319166001600160a01b039290921691909117905550620004239050565b600080546001600160a01b038381166001600160a01b0319831681178455604051919092169283917f8be0079c531659141344cd1fd0a4f28419497f9722a3daafe3b4186f6b6457e09190a35050565b8280546200020c90620003d0565b90600052602060002090601f0160209004810192826200023057600085556200027b565b82601f106200024b57805160ff19168380011785556200027b565b828001600101855582156200027b579182015b828111156200027b5782518255916020019190600101906200025e565b50620002899291506200028d565b5090565b5b808211156200028957600081556001016200028e565b80516001600160a01b0381168114620002bc57600080fd5b919050565b600060208284031215620002d3578081fd5b620002de82620002a4565b9392505050565b60008060408385031215620002f8578081fd5b82516001600160401b03808211156200030f578283fd5b818501915085601f83011262000323578283fd5b8151818111156200033857620003386200040d565b604051601f8201601f19908116603f011681019083821181831017156200036357620003636200040d565b816040528281526020935088848487010111156200037f578586fd5b8591505b82821015620003a2578482018401518183018501529083019062000383565b82821115620003b357858484830101525b9550620003c5915050858201620002a4565b925050509250929050565b600281046001821680620003e557607f821691505b602082108114156200040757634e487b7160e01b600052602260045260246000fd5b50919050565b634e487b7160e01b600052604160045260246000fd5b611baa80620004336000396000f3fe608060405234801561001057600080fd5b50600436106100ea5760003560e01c80638da5cb5b1161008c578063b23e4fc611610066578063b23e4fc6146101ef578063df71d7f3146101f7578063e75d75d51461020a578063f2fde38b1461021d576100ea565b80638da5cb5b1461019a5780639b4bca24146101ab578063b0bbcd88146101ce576100ea565b80631cb85818116100c85780631cb8581814610142578063715018a614610155578063838b7ccb1461015d5780638988307414610170576100ea565b806306fdde03146100ef5780631580b5e51461010d57806317fcb39b14610117575b600080fd5b6100f7610230565b6040516101049190611939565b60405180910390f35b6101156102be565b005b60055461012a906001600160a01b031681565b6040516001600160a01b039091168152602001610104565b60035461012a906001600160a01b031681565b610115610399565b61011561016b366004611646565b6103c5565b61018361017e3660046117ba565b61055e565b604080519215158352602083019190915201610104565b6000546001600160a01b031661012a565b6101be6101b9366004611685565b610849565b6040519015158152602001610104565b6101e16101dc3660046117f0565b6109a6565b60405161010492919061191e565b610115610fcf565b6101836102053660046117ba565b6110a1565b60045461012a906001600160a01b031681565b61011561022b366004611646565b6112f2565b6002805461023d90611acf565b80601f016020809104026020016040519081016040528092919081815260200182805461026990611acf565b80156102b65780601f1061028b576101008083540402835291602001916102b6565b820191906000526020600020905b81548152906001019060200180831161029957829003601f168201915b505050505081565b6000546001600160a01b031633146102f15760405162461bcd60e51b81526004016102e89061198c565b60405180910390fd5b600360009054906101000a90046001600160a01b03166001600160a01b031663ad5c46486040518163ffffffff1660e01b815260040160206040518083038186803b15801561033f57600080fd5b505afa158015610353573d6000803e3d6000fd5b505050506040513d601f19601f820116820180604052508101906103779190611669565b600580546001600160a01b0319166001600160a01b0392909216919091179055565b6000546001600160a01b031633146103c35760405162461bcd60e51b81526004016102e89061198c565b565b806001600160a01b0381166103ec5760405162461bcd60e51b81526004016102e8906119c1565b6000546001600160a01b031633146104165760405162461bcd60e51b81526004016102e89061198c565b600380546001600160a01b0319166001600160a01b0384811691909117918290556040805163c45a015560e01b81529051929091169163c45a015591600480820192602092909190829003018186803b15801561047257600080fd5b505afa158015610486573d6000803e3d6000fd5b505050506040513d601f19601f820116820180604052508101906104aa9190611669565b600480546001600160a01b0319166001600160a01b03928316178155600354604080516315ab88c960e31b81529051919093169263ad5c46489281810192602092909190829003018186803b15801561050257600080fd5b505afa158015610516573d6000803e3d6000fd5b505050506040513d601f19601f8201168201806040525081019061053a9190611669565b600580546001600160a01b0319166001600160a01b03929092169190911790555050565b600080836001600160a01b0381166105885760405162461bcd60e51b81526004016102e8906119c1565b836001600160a01b0381166105af5760405162461bcd60e51b81526004016102e8906119c1565b6004805460405163e6a4390560e01b81526001600160a01b038981169382019390935287831660248201526000929091169063e6a439059060440160206040518083038186803b15801561060257600080fd5b505afa158015610616573d6000803e3d6000fd5b505050506040513d601f19601f8201168201806040525081019061063a9190611669565b90506001600160a01b03811661065757600080945094505061083f565b6000816001600160a01b0316630902f1ac6040518163ffffffff1660e01b815260040160606040518083038186803b15801561069257600080fd5b505afa1580156106a6573d6000803e3d6000fd5b505050506040513d601f19601f820116820180604052508101906106ca919061176c565b506001600160701b03169150508089106106ec5760008095509550505061083f565b604080516002808252606082018352600092602083019080368337019050509050888160008151811061072f57634e487b7160e01b600052603260045260246000fd5b60200260200101906001600160a01b031690816001600160a01b031681525050878160018151811061077157634e487b7160e01b600052603260045260246000fd5b6001600160a01b0392831660209182029290920101526003546040516307c0329d60e21b81526000929190911690631f00ca74906107b5908e9086906004016119f6565b60006040518083038186803b1580156107cd57600080fd5b505afa1580156107e1573d6000803e3d6000fd5b505050506040513d6000823e601f3d908101601f1916820160405261080991908101906116c0565b905060018160008151811061082e57634e487b7160e01b600052603260045260246000fd5b602002602001015197509750505050505b5050935093915050565b6000806002835110156108605760009150506109a1565b60005b600184516108719190611ab8565b81101561099a5760045484516001600160a01b039091169063e6a43905908690849081106108af57634e487b7160e01b600052603260045260246000fd5b6020026020010151868460016108c59190611aa0565b815181106108e357634e487b7160e01b600052603260045260246000fd5b60200260200101516040518363ffffffff1660e01b815260040161091d9291906001600160a01b0392831681529116602082015260400190565b60206040518083038186803b15801561093557600080fd5b505afa158015610949573d6000803e3d6000fd5b505050506040513d601f19601f8201168201806040525081019061096d9190611669565b91506001600160a01b038216610988576000925050506109a1565b8061099281611b0a565b915050610863565b5060019150505b919050565b60006060600260015414156109fd5760405162461bcd60e51b815260206004820152601f60248201527f5265656e7472616e637947756172643a207265656e7472616e742063616c6c0060448201526064016102e8565b6002600155846001600160a01b038116610a295760405162461bcd60e51b81526004016102e8906119c1565b6000610a388a8a8a898961138d565b90945090508315610fbc5787600081518110610a6457634e487b7160e01b600052603260045260246000fd5b60200260200101516001600160a01b03166323b872dd610a813390565b6040516001600160e01b031960e084901b1681526001600160a01b03909116600482015230602482015260448101849052606401602060405180830381600087803b158015610acf57600080fd5b505af1158015610ae3573d6000803e3d6000fd5b505050506040513d601f19601f82011682018060405250810190610b079190611750565b5087600081518110610b2957634e487b7160e01b600052603260045260246000fd5b602090810291909101015160035460405163095ea7b360e01b81526001600160a01b0391821660048201526024810184905291169063095ea7b390604401602060405180830381600087803b158015610b8157600080fd5b505af1158015610b95573d6000803e3d6000fd5b505050506040513d601f19601f82011682018060405250810190610bb99190611750565b5084158015610c14575060055488516001600160a01b03909116908990610be290600190611ab8565b81518110610c0057634e487b7160e01b600052603260045260246000fd5b60200260200101516001600160a01b031614155b15610caa57600354604051634401edf760e11b81526001600160a01b0390911690638803dbee90610c51908c908e908d908d908d90600401611a0f565b600060405180830381600087803b158015610c6b57600080fd5b505af1158015610c7f573d6000803e3d6000fd5b505050506040513d6000823e601f3d908101601f19168201604052610ca791908101906116c0565b92505b84158015610d03575060055488516001600160a01b03909116908990610cd290600190611ab8565b81518110610cf057634e487b7160e01b600052603260045260246000fd5b60200260200101516001600160a01b0316145b15610d9957600354604051632512eca560e11b81526001600160a01b0390911690634a25d94a90610d40908c908e908d908d908d90600401611a0f565b600060405180830381600087803b158015610d5a57600080fd5b505af1158015610d6e573d6000803e3d6000fd5b505050506040513d6000823e601f3d908101601f19168201604052610d9691908101906116c0565b92505b6001851515148015610df7575060055488516001600160a01b03909116908990610dc590600190611ab8565b81518110610de357634e487b7160e01b600052603260045260246000fd5b60200260200101516001600160a01b031614155b15610e8d576003546040516338ed173960e01b81526001600160a01b03909116906338ed173990610e34908d908d908d908d908d90600401611a0f565b600060405180830381600087803b158015610e4e57600080fd5b505af1158015610e62573d6000803e3d6000fd5b505050506040513d6000823e601f3d908101601f19168201604052610e8a91908101906116c0565b92505b6001851515148015610eea575060055488516001600160a01b03909116908990610eb990600190611ab8565b81518110610ed757634e487b7160e01b600052603260045260246000fd5b60200260200101516001600160a01b0316145b15610f80576003546040516318cbafe560e01b81526001600160a01b03909116906318cbafe590610f27908d908d908d908d908d90600401611a0f565b600060405180830381600087803b158015610f4157600080fd5b505af1158015610f55573d6000803e3d6000fd5b505050506040513d6000823e601f3d908101601f19168201604052610f7d91908101906116c0565b92505b7fe1010d0ab476908054981d12fbb96915efcceb8d57a09ae8ca62f4bda7318373888489604051610fb3939291906118e0565b60405180910390a15b5050600180559097909650945050505050565b6000546001600160a01b03163314610ff95760405162461bcd60e51b81526004016102e89061198c565b600360009054906101000a90046001600160a01b03166001600160a01b031663c45a01556040518163ffffffff1660e01b815260040160206040518083038186803b15801561104757600080fd5b505afa15801561105b573d6000803e3d6000fd5b505050506040513d601f19601f8201168201806040525081019061107f9190611669565b600480546001600160a01b0319166001600160a01b0392909216919091179055565b600080836001600160a01b0381166110cb5760405162461bcd60e51b81526004016102e8906119c1565b836001600160a01b0381166110f25760405162461bcd60e51b81526004016102e8906119c1565b6004805460405163e6a4390560e01b81526001600160a01b038981169382019390935287831660248201526000929091169063e6a439059060440160206040518083038186803b15801561114557600080fd5b505afa158015611159573d6000803e3d6000fd5b505050506040513d601f19601f8201168201806040525081019061117d9190611669565b6001600160a01b03161415611198576000809350935061083f565b60408051600280825260608201835260009260208301908036833701905050905086816000815181106111db57634e487b7160e01b600052603260045260246000fd5b60200260200101906001600160a01b031690816001600160a01b031681525050858160018151811061121d57634e487b7160e01b600052603260045260246000fd5b6001600160a01b03928316602091820292909201015260035460405163d06ca61f60e01b8152600092919091169063d06ca61f90611261908c9086906004016119f6565b60006040518083038186803b15801561127957600080fd5b505afa15801561128d573d6000803e3d6000fd5b505050506040513d6000823e601f3d908101601f191682016040526112b591908101906116c0565b90506001816001815181106112da57634e487b7160e01b600052603260045260246000fd5b60200260200101519550955050505050935093915050565b6000546001600160a01b0316331461131c5760405162461bcd60e51b81526004016102e89061198c565b6001600160a01b0381166113815760405162461bcd60e51b815260206004820152602660248201527f4f776e61626c653a206e6577206f776e657220697320746865207a65726f206160448201526564647265737360d01b60648201526084016102e8565b61138a8161156a565b50565b600080428410156113a357506000905080611560565b6113ac85610849565b6113bb57506000905080611560565b60035460405163d06ca61f60e01b81526000916001600160a01b03169063d06ca61f906113ee908b908a906004016119f6565b60006040518083038186803b15801561140657600080fd5b505afa15801561141a573d6000803e3d6000fd5b505050506040513d6000823e601f3d908101601f1916820160405261144291908101906116c0565b905080600187516114539190611ab8565b8151811061147157634e487b7160e01b600052603260045260246000fd5b602002602001015187111561148d576000809250925050611560565b600184151514156114a5576001889250925050611560565b6003546040516307c0329d60e21b81526000916001600160a01b031690631f00ca74906114d8908b908b906004016119f6565b60006040518083038186803b1580156114f057600080fd5b505afa158015611504573d6000803e3d6000fd5b505050506040513d6000823e601f3d908101601f1916820160405261152c91908101906116c0565b905060018160008151811061155157634e487b7160e01b600052603260045260246000fd5b60200260200101519350935050505b9550959350505050565b600080546001600160a01b038381166001600160a01b0319831681178455604051919092169283917f8be0079c531659141344cd1fd0a4f28419497f9722a3daafe3b4186f6b6457e09190a35050565b600082601f8301126115ca578081fd5b813560206115df6115da83611a7c565b611a4b565b82815281810190858301838502870184018810156115fb578586fd5b855b8581101561162257813561161081611b51565b845292840192908401906001016115fd565b5090979650505050505050565b80516001600160701b03811681146109a157600080fd5b600060208284031215611657578081fd5b813561166281611b51565b9392505050565b60006020828403121561167a578081fd5b815161166281611b51565b600060208284031215611696578081fd5b813567ffffffffffffffff8111156116ac578182fd5b6116b8848285016115ba565b949350505050565b600060208083850312156116d2578182fd5b825167ffffffffffffffff8111156116e8578283fd5b8301601f810185136116f8578283fd5b80516117066115da82611a7c565b8181528381019083850185840285018601891015611722578687fd5b8694505b83851015611744578051835260019490940193918501918501611726565b50979650505050505050565b600060208284031215611761578081fd5b815161166281611b66565b600080600060608486031215611780578182fd5b6117898461162f565b92506117976020850161162f565b9150604084015163ffffffff811681146117af578182fd5b809150509250925092565b6000806000606084860312156117ce578283fd5b8335925060208401356117e081611b51565b915060408401356117af81611b51565b60008060008060008060c08789031215611808578182fd5b8635955060208701359450604087013567ffffffffffffffff81111561182c578283fd5b61183889828a016115ba565b945050606087013561184981611b51565b92506080870135915060a087013561186081611b66565b809150509295509295509295565b6000815180845260208085019450808401835b838110156118a65781516001600160a01b031687529582019590820190600101611881565b509495945050505050565b6000815180845260208085019450808401835b838110156118a6578151875295820195908201906001016118c4565b6000606082526118f3606083018661186e565b828103602084015261190581866118b1565b91505060018060a01b0383166040830152949350505050565b60008315158252604060208301526116b860408301846118b1565b6000602080835283518082850152825b8181101561196557858101830151858201604001528201611949565b818111156119765783604083870101525b50601f01601f1916929092016040019392505050565b6020808252818101527f4f776e61626c653a2063616c6c6572206973206e6f7420746865206f776e6572604082015260600190565b6020808252818101527f556e69737761705632436f6e6e6563746f723a207a65726f2061646472657373604082015260600190565b6000838252604060208301526116b8604083018461186e565b600086825285602083015260a06040830152611a2e60a083018661186e565b6001600160a01b0394909416606083015250608001529392505050565b604051601f8201601f1916810167ffffffffffffffff81118282101715611a7457611a74611b3b565b604052919050565b600067ffffffffffffffff821115611a9657611a96611b3b565b5060209081020190565b60008219821115611ab357611ab3611b25565b500190565b600082821015611aca57611aca611b25565b500390565b600281046001821680611ae357607f821691505b60208210811415611b0457634e487b7160e01b600052602260045260246000fd5b50919050565b6000600019821415611b1e57611b1e611b25565b5060010190565b634e487b7160e01b600052601160045260246000fd5b634e487b7160e01b600052604160045260246000fd5b6001600160a01b038116811461138a57600080fd5b801515811461138a57600080fdfea264697066735822122092bb46cc02986063966b1e9a015bffbb8723386a9c6446a0fb8305e02501cef064736f6c63430008020033",
  "devdoc": {
    "kind": "dev",
    "methods": {
      "constructor": {
        "params": {
          "_exchangeRouter": "Address of the DEX router contract",
          "_name": "Name of the underlying DEX"
        }
      },
      "getInputAmount(uint256,address,address)": {
        "details": "Returns (false, 0) if liquidity pool of inputToken-outputToken doesn't exist                             Returns (false, 0) if desired output amount is greater than or equal to output reserve",
        "params": {
          "_inputToken": "Address of the input token",
          "_outputAmount": "Desired output amount",
          "_outputToken": "Address of the output token"
        }
      },
      "getOutputAmount(uint256,address,address)": {
        "details": "Returns (false, 0) if liquidity pool of inputToken-outputToken doesn't exist",
        "params": {
          "_inputAmount": "Amount of input token",
          "_inputToken": "Address of the input token",
          "_outputToken": "Address of the output token"
        }
      },
      "isPathValid(address[])": {
        "params": {
          "_path": "List of tokens that are used for exchanging"
        }
      },
      "owner()": {
        "details": "Returns the address of the current owner."
      },
      "renounceOwnership()": {
        "details": "Leaves the contract without owner. It will not be possible to call `onlyOwner` functions anymore. Can only be called by the current owner. NOTE: Renouncing ownership will leave the contract without an owner, thereby removing any functionality that is only available to the owner."
      },
      "setExchangeRouter(address)": {
        "details": "Gets address of liquidity pool factory from new exchange router",
        "params": {
          "_exchangeRouter": "Address of the new exchange router contract"
        }
      },
      "setLiquidityPoolFactory()": {
        "details": "Gets address from exchange router"
      },
      "setWrappedNativeToken()": {
        "details": "Gets address from exchange router"
      },
      "swap(uint256,uint256,address[],address,uint256,bool)": {
        "details": "Checks exchange conditions before exchanging                             We assume that the input token is not WETH (it is teleBTC)",
        "params": {
          "_deadline": "Deadline of exchanging tokens",
          "_inputAmount": "Amount of input token",
          "_isFixedToken": "True if the input token amount is fixed",
          "_outputAmount": "Amount of output token",
          "_path": "List of tokens that are used for exchanging",
          "_to": "Receiver address"
        },
        "returns": {
          "_amounts": "           Amounts of tokens that are involved in exchanging",
          "_result": "            True if the exchange is successful"
        }
      },
      "transferOwnership(address)": {
        "details": "Transfers ownership of the contract to a new account (`newOwner`). Can only be called by the current owner."
      }
    },
    "version": 1
  },
  "userdoc": {
    "kind": "user",
    "methods": {
      "constructor": {
        "notice": "This contract is used for interacting with UniswapV2 contract"
      },
      "getInputAmount(uint256,address,address)": {
        "notice": "Returns required input amount to get desired output amount"
      },
      "getOutputAmount(uint256,address,address)": {
        "notice": "Returns amount of output token that user receives "
      },
      "isPathValid(address[])": {
        "notice": "Returns true if the exchange path is valid"
      },
      "setExchangeRouter(address)": {
        "notice": "Setter for exchange router"
      },
      "setLiquidityPoolFactory()": {
        "notice": "Setter for liquidity pool factory"
      },
      "setWrappedNativeToken()": {
        "notice": "Setter for wrapped native token"
      },
      "swap(uint256,uint256,address[],address,uint256,bool)": {
        "notice": "Exchanges input token for output token through exchange router"
      }
    },
    "version": 1
  },
  "storageLayout": {
    "storage": [
      {
        "astId": 807,
        "contract": "contracts/connectors/UniswapV2Connector.sol:UniswapV2Connector",
        "label": "_owner",
        "offset": 0,
        "slot": "0",
        "type": "t_address"
      },
      {
        "astId": 1634,
        "contract": "contracts/connectors/UniswapV2Connector.sol:UniswapV2Connector",
        "label": "_status",
        "offset": 0,
        "slot": "1",
        "type": "t_uint256"
      },
      {
        "astId": 3647,
        "contract": "contracts/connectors/UniswapV2Connector.sol:UniswapV2Connector",
        "label": "name",
        "offset": 0,
        "slot": "2",
        "type": "t_string_storage"
      },
      {
        "astId": 3650,
        "contract": "contracts/connectors/UniswapV2Connector.sol:UniswapV2Connector",
        "label": "exchangeRouter",
        "offset": 0,
        "slot": "3",
        "type": "t_address"
      },
      {
        "astId": 3653,
        "contract": "contracts/connectors/UniswapV2Connector.sol:UniswapV2Connector",
        "label": "liquidityPoolFactory",
        "offset": 0,
        "slot": "4",
        "type": "t_address"
      },
      {
        "astId": 3656,
        "contract": "contracts/connectors/UniswapV2Connector.sol:UniswapV2Connector",
        "label": "wrappedNativeToken",
        "offset": 0,
        "slot": "5",
        "type": "t_address"
      }
    ],
    "types": {
      "t_address": {
        "encoding": "inplace",
        "label": "address",
        "numberOfBytes": "20"
      },
      "t_string_storage": {
        "encoding": "bytes",
        "label": "string",
        "numberOfBytes": "32"
      },
      "t_uint256": {
        "encoding": "inplace",
        "label": "uint256",
        "numberOfBytes": "32"
      }
    }
  }
}