{
  "address": "0xE371a3BD0eA2F457B24a50657db289DB3B4f7cCB",
  "abi": [
    {
      "anonymous": false,
      "inputs": [
        {
          "indexed": false,
          "internalType": "bytes",
          "name": "lockerLockingScript",
          "type": "bytes"
        },
        {
          "indexed": false,
          "internalType": "uint256",
          "name": "lockerScriptType",
          "type": "uint256"
        },
        {
          "indexed": false,
          "internalType": "address",
          "name": "lockerTargetAddress",
          "type": "address"
        },
        {
          "indexed": true,
          "internalType": "address",
          "name": "user",
          "type": "address"
        },
        {
          "indexed": false,
          "internalType": "address[2]",
          "name": "inputAndOutputToken",
          "type": "address[2]"
        },
        {
          "indexed": false,
          "internalType": "uint256[2]",
          "name": "inputAndOutputAmount",
          "type": "uint256[2]"
        },
        {
          "indexed": true,
          "internalType": "uint256",
          "name": "speed",
          "type": "uint256"
        },
        {
          "indexed": true,
          "internalType": "address",
          "name": "teleporter",
          "type": "address"
        },
        {
          "indexed": false,
          "internalType": "uint256",
          "name": "teleporterFee",
          "type": "uint256"
        },
        {
          "indexed": false,
          "internalType": "bytes32",
          "name": "bitcoinTxId",
          "type": "bytes32"
        },
        {
          "indexed": false,
          "internalType": "uint256",
          "name": "appId",
          "type": "uint256"
        }
      ],
      "name": "CCExchange",
      "type": "event"
    },
    {
      "anonymous": false,
      "inputs": [
        {
          "indexed": false,
          "internalType": "bytes",
          "name": "lockerLockingScript",
          "type": "bytes"
        },
        {
          "indexed": false,
          "internalType": "uint256",
          "name": "lockerScriptType",
          "type": "uint256"
        },
        {
          "indexed": false,
          "internalType": "address",
          "name": "lockerTargetAddress",
          "type": "address"
        },
        {
          "indexed": true,
          "internalType": "address",
          "name": "recipientAddress",
          "type": "address"
        },
        {
          "indexed": false,
          "internalType": "address[2]",
          "name": "inputAndOutputToken",
          "type": "address[2]"
        },
        {
          "indexed": false,
          "internalType": "uint256[2]",
          "name": "inputAndOutputAmount",
          "type": "uint256[2]"
        },
        {
          "indexed": true,
          "internalType": "uint256",
          "name": "speed",
          "type": "uint256"
        },
        {
          "indexed": true,
          "internalType": "address",
          "name": "teleporter",
          "type": "address"
        },
        {
          "indexed": false,
          "internalType": "uint256",
          "name": "teleporterFee",
          "type": "uint256"
        },
        {
          "indexed": false,
          "internalType": "bytes32",
          "name": "bitcoinTxId",
          "type": "bytes32"
        },
        {
          "indexed": false,
          "internalType": "uint256",
          "name": "appId",
          "type": "uint256"
        }
      ],
      "name": "FailedCCExchange",
      "type": "event"
    },
    {
      "anonymous": false,
      "inputs": [
        {
          "indexed": false,
          "internalType": "uint8",
          "name": "version",
          "type": "uint8"
        }
      ],
      "name": "Initialized",
      "type": "event"
    },
    {
      "anonymous": false,
      "inputs": [
        {
          "indexed": false,
          "internalType": "address",
          "name": "oldInstantRouter",
          "type": "address"
        },
        {
          "indexed": false,
          "internalType": "address",
          "name": "newInstantRouter",
          "type": "address"
        }
      ],
      "name": "NewInstantRouter",
      "type": "event"
    },
    {
      "anonymous": false,
      "inputs": [
        {
          "indexed": false,
          "internalType": "address",
          "name": "oldLockers",
          "type": "address"
        },
        {
          "indexed": false,
          "internalType": "address",
          "name": "newLockers",
          "type": "address"
        }
      ],
      "name": "NewLockers",
      "type": "event"
    },
    {
      "anonymous": false,
      "inputs": [
        {
          "indexed": false,
          "internalType": "uint256",
          "name": "oldProtocolPercentageFee",
          "type": "uint256"
        },
        {
          "indexed": false,
          "internalType": "uint256",
          "name": "newProtocolPercentageFee",
          "type": "uint256"
        }
      ],
      "name": "NewProtocolPercentageFee",
      "type": "event"
    },
    {
      "anonymous": false,
      "inputs": [
        {
          "indexed": false,
          "internalType": "address",
          "name": "oldRelay",
          "type": "address"
        },
        {
          "indexed": false,
          "internalType": "address",
          "name": "newRelay",
          "type": "address"
        }
      ],
      "name": "NewRelay",
      "type": "event"
    },
    {
      "anonymous": false,
      "inputs": [
        {
          "indexed": false,
          "internalType": "address",
          "name": "oldTeleBTC",
          "type": "address"
        },
        {
          "indexed": false,
          "internalType": "address",
          "name": "newTeleBTC",
          "type": "address"
        }
      ],
      "name": "NewTeleBTC",
      "type": "event"
    },
    {
      "anonymous": false,
      "inputs": [
        {
          "indexed": false,
          "internalType": "address",
          "name": "oldTreasury",
          "type": "address"
        },
        {
          "indexed": false,
          "internalType": "address",
          "name": "newTreasury",
          "type": "address"
        }
      ],
      "name": "NewTreasury",
      "type": "event"
    },
    {
      "anonymous": false,
      "inputs": [
        {
          "indexed": true,
          "internalType": "address",
          "name": "previousOwner",
          "type": "address"
        },
        {
          "indexed": true,
          "internalType": "address",
          "name": "newOwner",
          "type": "address"
        }
      ],
      "name": "OwnershipTransferred",
      "type": "event"
    },
    {
      "anonymous": false,
      "inputs": [
        {
          "indexed": false,
          "internalType": "uint256",
          "name": "appId",
          "type": "uint256"
        },
        {
          "indexed": false,
          "internalType": "address",
          "name": "exchangeConnector",
          "type": "address"
        }
      ],
      "name": "SetExchangeConnector",
      "type": "event"
    },
    {
      "inputs": [
        {
          "internalType": "bytes4",
          "name": "_version",
          "type": "bytes4"
        },
        {
          "internalType": "bytes",
          "name": "_vin",
          "type": "bytes"
        },
        {
          "internalType": "bytes",
          "name": "_vout",
          "type": "bytes"
        },
        {
          "internalType": "bytes4",
          "name": "_locktime",
          "type": "bytes4"
        },
        {
          "internalType": "uint256",
          "name": "_blockNumber",
          "type": "uint256"
        },
        {
          "internalType": "bytes",
          "name": "_intermediateNodes",
          "type": "bytes"
        },
        {
          "internalType": "uint256",
          "name": "_index",
          "type": "uint256"
        },
        {
          "internalType": "bytes",
          "name": "_lockerLockingScript",
          "type": "bytes"
        }
      ],
      "name": "ccExchange",
      "outputs": [
        {
          "internalType": "bool",
          "name": "",
          "type": "bool"
        }
      ],
      "stateMutability": "payable",
      "type": "function"
    },
    {
      "inputs": [],
      "name": "chainId",
      "outputs": [
        {
          "internalType": "uint256",
          "name": "",
          "type": "uint256"
        }
      ],
      "stateMutability": "view",
      "type": "function"
    },
    {
      "inputs": [
        {
          "internalType": "uint256",
          "name": "",
          "type": "uint256"
        }
      ],
      "name": "exchangeConnector",
      "outputs": [
        {
          "internalType": "address",
          "name": "",
          "type": "address"
        }
      ],
      "stateMutability": "view",
      "type": "function"
    },
    {
      "inputs": [
        {
          "internalType": "uint256",
          "name": "_startingBlockNumber",
          "type": "uint256"
        },
        {
          "internalType": "uint256",
          "name": "_protocolPercentageFee",
          "type": "uint256"
        },
        {
          "internalType": "uint256",
          "name": "_chainId",
          "type": "uint256"
        },
        {
          "internalType": "address",
          "name": "_lockers",
          "type": "address"
        },
        {
          "internalType": "address",
          "name": "_relay",
          "type": "address"
        },
        {
          "internalType": "address",
          "name": "_teleBTC",
          "type": "address"
        },
        {
          "internalType": "address",
          "name": "_treasury",
          "type": "address"
        }
      ],
      "name": "initialize",
      "outputs": [],
      "stateMutability": "nonpayable",
      "type": "function"
    },
    {
      "inputs": [],
      "name": "instantRouter",
      "outputs": [
        {
          "internalType": "address",
          "name": "",
          "type": "address"
        }
      ],
      "stateMutability": "view",
      "type": "function"
    },
    {
      "inputs": [
        {
          "internalType": "bytes32",
          "name": "_txId",
          "type": "bytes32"
        }
      ],
      "name": "isRequestUsed",
      "outputs": [
        {
          "internalType": "bool",
          "name": "",
          "type": "bool"
        }
      ],
      "stateMutability": "view",
      "type": "function"
    },
    {
      "inputs": [],
      "name": "lockers",
      "outputs": [
        {
          "internalType": "address",
          "name": "",
          "type": "address"
        }
      ],
      "stateMutability": "view",
      "type": "function"
    },
    {
      "inputs": [],
      "name": "owner",
      "outputs": [
        {
          "internalType": "address",
          "name": "",
          "type": "address"
        }
      ],
      "stateMutability": "view",
      "type": "function"
    },
    {
      "inputs": [],
      "name": "protocolPercentageFee",
      "outputs": [
        {
          "internalType": "uint256",
          "name": "",
          "type": "uint256"
        }
      ],
      "stateMutability": "view",
      "type": "function"
    },
    {
      "inputs": [],
      "name": "relay",
      "outputs": [
        {
          "internalType": "address",
          "name": "",
          "type": "address"
        }
      ],
      "stateMutability": "view",
      "type": "function"
    },
    {
      "inputs": [],
      "name": "renounceOwnership",
      "outputs": [],
      "stateMutability": "nonpayable",
      "type": "function"
    },
    {
      "inputs": [
        {
          "internalType": "uint256",
          "name": "_appId",
          "type": "uint256"
        },
        {
          "internalType": "address",
          "name": "_exchangeConnector",
          "type": "address"
        }
      ],
      "name": "setExchangeConnector",
      "outputs": [],
      "stateMutability": "nonpayable",
      "type": "function"
    },
    {
      "inputs": [
        {
          "internalType": "address",
          "name": "_instantRouter",
          "type": "address"
        }
      ],
      "name": "setInstantRouter",
      "outputs": [],
      "stateMutability": "nonpayable",
      "type": "function"
    },
    {
      "inputs": [
        {
          "internalType": "address",
          "name": "_lockers",
          "type": "address"
        }
      ],
      "name": "setLockers",
      "outputs": [],
      "stateMutability": "nonpayable",
      "type": "function"
    },
    {
      "inputs": [
        {
          "internalType": "uint256",
          "name": "_protocolPercentageFee",
          "type": "uint256"
        }
      ],
      "name": "setProtocolPercentageFee",
      "outputs": [],
      "stateMutability": "nonpayable",
      "type": "function"
    },
    {
      "inputs": [
        {
          "internalType": "address",
          "name": "_relay",
          "type": "address"
        }
      ],
      "name": "setRelay",
      "outputs": [],
      "stateMutability": "nonpayable",
      "type": "function"
    },
    {
      "inputs": [
        {
          "internalType": "address",
          "name": "_teleBTC",
          "type": "address"
        }
      ],
      "name": "setTeleBTC",
      "outputs": [],
      "stateMutability": "nonpayable",
      "type": "function"
    },
    {
      "inputs": [
        {
          "internalType": "address",
          "name": "_treasury",
          "type": "address"
        }
      ],
      "name": "setTreasury",
      "outputs": [],
      "stateMutability": "nonpayable",
      "type": "function"
    },
    {
      "inputs": [],
      "name": "startingBlockNumber",
      "outputs": [
        {
          "internalType": "uint256",
          "name": "",
          "type": "uint256"
        }
      ],
      "stateMutability": "view",
      "type": "function"
    },
    {
      "inputs": [],
      "name": "teleBTC",
      "outputs": [
        {
          "internalType": "address",
          "name": "",
          "type": "address"
        }
      ],
      "stateMutability": "view",
      "type": "function"
    },
    {
      "inputs": [
        {
          "internalType": "address",
          "name": "newOwner",
          "type": "address"
        }
      ],
      "name": "transferOwnership",
      "outputs": [],
      "stateMutability": "nonpayable",
      "type": "function"
    },
    {
      "inputs": [],
      "name": "treasury",
      "outputs": [
        {
          "internalType": "address",
          "name": "",
          "type": "address"
        }
      ],
      "stateMutability": "view",
      "type": "function"
    },
    {
      "stateMutability": "payable",
      "type": "receive"
    }
  ],
  "transactionHash": "0xa91c72bd6ba4682bc4e5bd5372537303982fb95310abfb467115b48ccf4f9134",
  "args": [],
  "numDeployments": 1,
  "solcInputHash": "bf1c856d93baeff641b95c725d4fb9a3",
  "bytecode": "0x608060405234801561001057600080fd5b506144d7806100206000396000f3fe6080604052600436106101395760003560e01c806380bc4726116100ab578063b14d35321161006f578063b14d353214610360578063b59589d114610380578063c805f68b146103a0578063e35a0a88146103c0578063f0f44260146103e0578063f2fde38b1461040057610140565b806380bc4726146102cc578063870ba6cf146102ec5780638d3d78cd1461030c5780638da5cb5b1461032c5780639a8a05921461034a57610140565b80636b2857ef116100fd5780636b2857ef1461020b5780636e8adf611461022b57806370872aa514610261578063715018a6146102775780637ed557481461028c5780637f0f1817146102ac57610140565b80630fc654071461014557806314e0c15f146101675780631812adb61461018f5780631876dec4146101b357806361d027b3146101eb57610140565b3661014057005b600080fd5b34801561015157600080fd5b50610165610160366004613ee3565b610420565b005b61017a610175366004613dbf565b61057c565b60405190151581526020015b60405180910390f35b34801561019b57600080fd5b506101a560025481565b604051908152602001610186565b3480156101bf57600080fd5b506005546101d3906001600160a01b031681565b6040516001600160a01b039091168152602001610186565b3480156101f757600080fd5b506007546101d3906001600160a01b031681565b34801561021757600080fd5b50610165610226366004613eb4565b6108c1565b34801561023757600080fd5b506101d3610246366004613d8f565b6008602052600090815260409020546001600160a01b031681565b34801561026d57600080fd5b506101a560005481565b34801561028357600080fd5b5061016561092f565b34801561029857600080fd5b506101656102a7366004613d8f565b610939565b3480156102b857600080fd5b506101656102c7366004613c84565b61094d565b3480156102d857600080fd5b5061017a6102e7366004613d8f565b61095e565b3480156102f857600080fd5b50610165610307366004613c84565b610989565b34801561031857600080fd5b506006546101d3906001600160a01b031681565b34801561033857600080fd5b50603d546001600160a01b03166101d3565b34801561035657600080fd5b506101a560015481565b34801561036c57600080fd5b5061016561037b366004613c84565b61099a565b34801561038c57600080fd5b506003546101d3906001600160a01b031681565b3480156103ac57600080fd5b506101656103bb366004613c84565b6109ab565b3480156103cc57600080fd5b506004546101d3906001600160a01b031681565b3480156103ec57600080fd5b506101656103fb366004613c84565b6109bc565b34801561040c57600080fd5b5061016561041b366004613c84565b6109cd565b600a54610100900460ff16158080156104405750600a54600160ff909116105b8061045a5750303b15801561045a5750600a5460ff166001145b6104c25760405162461bcd60e51b815260206004820152602e60248201527f496e697469616c697a61626c653a20636f6e747261637420697320616c72656160448201526d191e481a5b9a5d1a585b1a5e995960921b60648201526084015b60405180910390fd5b600a805460ff1916600117905580156104e557600a805461ff0019166101001790555b6104ed610a43565b6104f5610a72565b6000889055600186905561050887610aa1565b61051184610b42565b61051a85610bd3565b61052383610c64565b61052c82610cf5565b801561057257600a805461ff0019169055604051600181527f7f26b83ff96e1f2b6a682f133852f6798a09c465da95921460cefb38474024989060200160405180910390a15b5050505050505050565b6000610586610d86565b6000548710156105e45760405162461bcd60e51b8152602060048201526024808201527f434345786368616e6765526f757465723a207265717565737420697320746f6f604482015263081bdb1960e21b60648201526084016104b9565b60006106298d8d8d8d8080601f0160208091040260200160405190810160405280939291908181526020018383808284376000920191909152508f9250610de0915050565b60008181526009602052604090206005015490915060ff16156106a95760405162461bcd60e51b815260206004820152603260248201527f434345786368616e6765526f757465723a20746865207265717565737420686160448201527173206265656e2075736564206265666f726560701b60648201526084016104b9565b6001600160e01b03198916156107115760405162461bcd60e51b815260206004820152602760248201527f434345786368616e6765526f757465723a206c6f636b2074696d65206973206e6044820152666f6e2d7a65726f60c81b60648201526084016104b9565b61079784848080601f016020809104026020016040519081016040528093929190818152602001838380828437600081840152601f19601f820116905080830192505050505050508c8c8080601f016020809104026020016040519081016040528093929190818152602001838380828437600092019190915250869250610ed6915050565b6107da818989898080601f0160208091040260200160405190810160405280939291908181526020018383808284376000920191909152508b925061142e915050565b61084c5760405162461bcd60e51b815260206004820152603860248201527f434345786368616e6765526f757465723a207472616e73616374696f6e20686160448201527f73206e6f74206265656e2066696e616c697a656420796574000000000000000060648201526084016104b9565b6000818152600960205260409020600801546108a3576108a384848080601f0160208091040260200160405190810160405280939291908181526020018383808284376000920191909152508592506115a3915050565b60019150506108b26001606f55565b9b9a5050505050505050505050565b6108c9612084565b60008281526008602090815260409182902080546001600160a01b0319166001600160a01b0385169081179091558251858152918201527f31a8c4e62daac2a3ed5d713004d9ae867d6dcddfa35603db2a4b65d9236b1bc1910160405180910390a15050565b610937612084565b565b610941612084565b61094a81610aa1565b50565b610955612084565b61094a81610c64565b60008181526009602052604081206005015460ff1661097e576000610981565b60015b90505b919050565b610991612084565b61094a816120de565b6109a2612084565b61094a81610bd3565b6109b3612084565b61094a81610b42565b6109c4612084565b61094a81610cf5565b6109d5612084565b6001600160a01b038116610a3a5760405162461bcd60e51b815260206004820152602660248201527f4f776e61626c653a206e6577206f776e657220697320746865207a65726f206160448201526564647265737360d01b60648201526084016104b9565b61094a8161216f565b600a54610100900460ff16610a6a5760405162461bcd60e51b81526004016104b9906141d5565b6109376121c1565b600a54610100900460ff16610a995760405162461bcd60e51b81526004016104b9906141d5565b6109376121f1565b806127101015610b015760405162461bcd60e51b815260206004820152602560248201527f434345786368616e6765526f757465723a20666565206973206f7574206f662060448201526472616e676560d81b60648201526084016104b9565b60025460408051918252602082018390527f7d205f60891f60851c61cd244ba387d72b6589e7c0ac41b9d909ab0ce2c2a53b910160405180910390a1600255565b806001600160a01b038116610b695760405162461bcd60e51b81526004016104b990614194565b600354604080516001600160a01b03928316815291841660208301527f4c28a3f61a715259c4dc930c23e7423b8fa52e13232c061a6e488729c66184f4910160405180910390a150600380546001600160a01b0319166001600160a01b0392909216919091179055565b806001600160a01b038116610bfa5760405162461bcd60e51b81526004016104b990614194565b600554604080516001600160a01b03928316815291841660208301527ffa021c2ec0f46429a53e7f88b88065e40001f50c9d38b2e8b713beaf9828d4c3910160405180910390a150600580546001600160a01b0319166001600160a01b0392909216919091179055565b806001600160a01b038116610c8b5760405162461bcd60e51b81526004016104b990614194565b600654604080516001600160a01b03928316815291841660208301527f36a4c08a38b736dcecb6c328dba61238529620e83ccb23db2cc43cd34ec26096910160405180910390a150600680546001600160a01b0319166001600160a01b0392909216919091179055565b806001600160a01b038116610d1c5760405162461bcd60e51b81526004016104b990614194565b600754604080516001600160a01b03928316815291841660208301527f567657fa3f286518b318f4a29870674f433f622fdfc819691acb13105b228225910160405180910390a150600780546001600160a01b0319166001600160a01b0392909216919091179055565b6002606f541415610dd95760405162461bcd60e51b815260206004820152601f60248201527f5265656e7472616e637947756172643a207265656e7472616e742063616c6c0060448201526064016104b9565b6002606f55565b600080600286868686604051602001610dfc9493929190613fcc565b60408051601f1981840301815290829052610e169161401f565b602060405180830381855afa158015610e33573d6000803e3d6000fd5b5050506040513d601f19601f82011682018060405250810190610e569190613da7565b90506000600282604051602001610e6f91815260200190565b60408051601f1981840301815290829052610e899161401f565b602060405180830381855afa158015610ea6573d6000803e3d6000fd5b5050506040513d601f19601f82011682018060405250810190610ec99190613da7565b925050505b949350505050565b60055460405163aff2faa360e01b81526001600160a01b039091169063aff2faa390610f069086906004016140ad565b60206040518083038186803b158015610f1e57600080fd5b505afa158015610f32573d6000803e3d6000fd5b505050506040513d601f19601f82011682018060405250810190610f569190613cbc565b610fc85760405162461bcd60e51b815260206004820152603860248201527f434345786368616e6765526f757465723a206e6f206c6f636b6572207769746860448201527f206769766520736372697074206861736820657869737473000000000000000060648201526084016104b9565b61102b60405180610140016040528060008152602001600081526020016000815260200160001515815260200160006001600160a01b03168152602001600081526020016000151581526020016060815260200160008152602001600081525090565b60606110378486612218565b6001600160401b03909116602084018190529091506110a75760405162461bcd60e51b815260206004820152602660248201527f434345786368616e6765526f757465723a20696e70757420616d6f756e74206960448201526573207a65726f60d01b60648201526084016104b9565b6110b081612390565b60ff16600154146111155760405162461bcd60e51b815260206004820152602960248201527f434345786368616e6765526f757465723a20636861696e206964206973206e6f6044820152681d0818dbdc9c9958dd60ba1b60648201526084016104b9565b61111e816123aa565b61ffff168252600061112f826123c5565b905061113a826123e0565b6001600160e01b03166040840152611151826123fb565b60ff16611164576000606084015261116c565b600160608401525b6111758261240a565b6001600160a01b03166080840152604080516002808252606082018352600092602083019080368337505060065482519293506001600160a01b0316918391506000906111d257634e487b7160e01b600052603260045260246000fd5b60200260200101906001600160a01b031690816001600160a01b031681525050818160018151811061121457634e487b7160e01b600052603260045260246000fd5b6001600160a01b039092166020928302919091019091015260e0840181905261123c8361241a565b63ffffffff16610100850152600061125384612435565b61ffff1690506127108111156112c35760405162461bcd60e51b815260206004820152602f60248201527f434345786368616e6765526f757465723a2070657263656e746167652066656560448201526e081a5cc81b9bdd0818dbdc9c9958dd608a1b60648201526084016104b9565b6127108560200151826112d69190614342565b6112e09190614322565b60a08601526112ee84612445565b60ff166101208601819052158061130a57508461012001516001145b6113655760405162461bcd60e51b815260206004820152602660248201527f434345786368616e6765526f757465723a207370656564206973206e6f7420636044820152651bdc9c9958dd60d21b60648201526084016104b9565b600160c0860181815260008881526009602090815260409182902089518155818a015194810194909455908801516002840155606088015160038401805460808b01516001600160a01b031661010002610100600160a81b031993151560ff19928316179390931692909217905560a089015160048501559151600584018054911515919093161790915560e0870151805188939261140b926006850192910190613b3b565b506101008201516007820155610120909101516008909101555050505050505050565b60035460405163d0a8973960e01b8152600481018590526000602482018190529182916001600160a01b039091169063d0a897399060440160206040518083038186803b15801561147e57600080fd5b505afa158015611492573d6000803e3d6000fd5b505050506040513d601f19601f820116820180604052508101906114b69190613da7565b90508034101561151d5760405162461bcd60e51b815260206004820152602c60248201527f434345786368616e6765526f757465723a207061696420666565206973206e6f60448201526b1d081cdd59999a58da595b9d60a21b60648201526084016104b9565b60035460405160009161157a916001600160a01b039091169061154a908a908a908a908a9060240161407d565b60408051601f198184030181529190526020810180516001600160e01b0316634354da2560e01b17905284612454565b905061158f3361158a843461438a565b612484565b80806020019051810190610ec99190613cbc565b60006115af83836125a2565b60008381526009602090815260408083205483526008909152812054919250906060906001600160a01b0316806116375760405162461bcd60e51b815260206004820152602660248201527f434345786368616e6765526f757465723a2061707020696420646f65736e277460448201526508195e1a5cdd60d21b60648201526084016104b9565b60065460405163095ea7b360e01b81526001600160a01b038381166004830152602482018790529091169063095ea7b390604401602060405180830381600087803b15801561168557600080fd5b505af1158015611699573d6000803e3d6000fd5b505050506040513d601f19601f820116820180604052508101906116bd9190613cbc565b50600085815260096020908152604080832081516101408101835281548152600182015481850152600282015481840152600382015460ff808216151560608401526101009091046001600160a01b03166080830152600483015460a0830152600583015416151560c08201526006820180548451818702810187019095528085529194929360e086019390929083018282801561178457602002820191906000526020600020905b81546001600160a01b03168152600190910190602001808311611766575b50505091835250506007820154602082015260089091015460409182015260e082015190516326d2f28960e21b81529192506001600160a01b03841691639b4bca24916117d39160040161406a565b60206040518083038186803b1580156117eb57600080fd5b505afa1580156117ff573d6000803e3d6000fd5b505050506040513d601f19601f820116820180604052508101906118239190613cbc565b156118d357816001600160a01b031663b0bbcd888683604001518460e00151856080015186610100015187606001516040518763ffffffff1660e01b815260040161187396959493929190614220565b600060405180830381600087803b15801561188d57600080fd5b505af11580156118a1573d6000803e3d6000fd5b505050506040513d6000823e601f3d908101601f191682016040526118c99190810190613cd6565b9094509250611b19565b60408051600380825260808201909252600091602082016060803683370190505090508160e0015160008151811061191b57634e487b7160e01b600052603260045260246000fd5b60200260200101518160008151811061194457634e487b7160e01b600052603260045260246000fd5b60200260200101906001600160a01b031690816001600160a01b031681525050826001600160a01b03166317fcb39b6040518163ffffffff1660e01b815260040160206040518083038186803b15801561199d57600080fd5b505afa1580156119b1573d6000803e3d6000fd5b505050506040513d601f19601f820116820180604052508101906119d59190613ca0565b816001815181106119f657634e487b7160e01b600052603260045260246000fd5b60200260200101906001600160a01b031690816001600160a01b0316815250508160e00151600181518110611a3b57634e487b7160e01b600052603260045260246000fd5b602002602001015181600281518110611a6457634e487b7160e01b600052603260045260246000fd5b6001600160a01b03928316602091820292909201015260408084015160808501516101008601516060870151935163161779b160e31b81529488169463b0bbcd8894611abc948d949093899391929091600401614220565b600060405180830381600087803b158015611ad657600080fd5b505af1158015611aea573d6000803e3d6000fd5b505050506040513d6000823e601f3d908101601f19168201604052611b129190810190613cd6565b9095509350505b8315611ddc57610120810151608082015160055460405163626885b560e11b81523393926001600160a01b03908116927faabd2491617d55a54050f8b4413d1f212bcb91f448d495fb64fe3bd94baf1b9a928d92600092169063c4d10b6a90611b869085906004016140ad565b60206040518083038186803b158015611b9e57600080fd5b505afa158015611bb2573d6000803e3d6000fd5b505050506040513d601f19601f82011682018060405250810190611bd69190613ca0565b60405180604001604052808960e00151600081518110611c0657634e487b7160e01b600052603260045260246000fd5b60200260200101516001600160a01b03166001600160a01b031681526020018960e00151600181518110611c4a57634e487b7160e01b600052603260045260246000fd5b60200260200101516001600160a01b03166001600160a01b031681525060405180604001604052808c600081518110611c9357634e487b7160e01b600052603260045260246000fd5b602002602001015181526020018c60018e51611caf919061438a565b81518110611ccd57634e487b7160e01b600052603260045260246000fd5b60200260200101518152508960a001518f8b60000151604051611cf79897969594939291906140ee565b60405180910390a46060810151611dd757600654608082015184516001600160a01b039092169163a9059cbb91908690600090611d4457634e487b7160e01b600052603260045260246000fd5b602002602001015188611d57919061438a565b6040516001600160e01b031960e085901b1681526001600160a01b0390921660048301526024820152604401602060405180830381600087803b158015611d9d57600080fd5b505af1158015611db1573d6000803e3d6000fd5b505050506040513d601f19601f82011682018060405250810190611dd59190613cbc565b505b612074565b60065460405163095ea7b360e01b81526001600160a01b038481166004830152600060248301529091169063095ea7b390604401602060405180830381600087803b158015611e2a57600080fd5b505af1158015611e3e573d6000803e3d6000fd5b505050506040513d601f19601f82011682018060405250810190611e629190613cbc565b50600654608082015160405163a9059cbb60e01b81526001600160a01b0391821660048201526024810188905291169063a9059cbb90604401602060405180830381600087803b158015611eb557600080fd5b505af1158015611ec9573d6000803e3d6000fd5b505050506040513d601f19601f82011682018060405250810190611eed9190613cbc565b50610120810151608082015160055460405163626885b560e11b81523393926001600160a01b03908116927fb3a2e879f0f08374624d8dbddf7f56f6d95250b9b009208652d6751e6f737e3a928d92600092169063c4d10b6a90611f559085906004016140ad565b60206040518083038186803b158015611f6d57600080fd5b505afa158015611f81573d6000803e3d6000fd5b505050506040513d601f19601f82011682018060405250810190611fa59190613ca0565b60405180604001604052808960e00151600081518110611fd557634e487b7160e01b600052603260045260246000fd5b60200260200101516001600160a01b03166001600160a01b031681526020018960e0015160018151811061201957634e487b7160e01b600052603260045260246000fd5b60200260200101516001600160a01b03166001600160a01b031681525060405180604001604052808e815260200160008152508960a001518f8b6000015160405161206b9897969594939291906140ee565b60405180910390a45b50505050505050565b6001606f55565b603d546001600160a01b031633146109375760405162461bcd60e51b815260206004820181905260248201527f4f776e61626c653a2063616c6c6572206973206e6f7420746865206f776e657260448201526064016104b9565b806001600160a01b0381166121055760405162461bcd60e51b81526004016104b990614194565b600454604080516001600160a01b03928316815291841660208301527f12ad124e13af4c31364ad22aa74320e167b37f005dafb75d71a210c49da3629e910160405180910390a150600480546001600160a01b0319166001600160a01b0392909216919091179055565b603d80546001600160a01b038381166001600160a01b0319831681179093556040519116919082907f8be0079c531659141344cd1fd0a4f28419497f9722a3daafe3b4186f6b6457e090600090a35050565b600a54610100900460ff166121e85760405162461bcd60e51b81526004016104b9906141d5565b6109373361216f565b600a54610100900460ff1661207d5760405162461bcd60e51b81526004016104b9906141d5565b600060608161222f61222a86836127cb565b6127f1565b905062ffffff1980821614156122875760405162461bcd60e51b815260206004820152601b60248201527f426974636f696e48656c7065723a20766f7574206973206e756c6c000000000060448201526064016104b9565b600080600080600061229a86600061291b565b6001600160401b0316905060005b81811015612382576122ba8782612a64565b95506122c586612b7b565b94506122d086612bd8565b93506122db84612c22565b925062ffffff19808416141561235e57896040516020016122fc919061401f565b604051602081830303815290604052805190602001206123218662ffffff1916612cf4565b604051602001612331919061401f565b6040516020818303038152906040528051906020012014156123595761235686612d44565b98505b612370565b61236d62ffffff198416612cf4565b97505b8061237a8161441c565b9150506122a8565b505050505050509250929050565b60008061239f83600080612d69565b600101519392505050565b6000806123ba8360016002612d69565b600201519392505050565b6000806123d583601a602d612d69565b601401519392505050565b6000806123f083602e6049612d69565b601c01519392505050565b60008061239f83604e80612d69565b6000806123d58360036016612d69565b60008061242a83604a604d612d69565b600401519392505050565b6000806123ba8360176018612d69565b60008061239f83601980612d69565b606061247a84848460405180606001604052806029815260200161447960299139612dee565b90505b9392505050565b804710156124d45760405162461bcd60e51b815260206004820152601d60248201527f416464726573733a20696e73756666696369656e742062616c616e636500000060448201526064016104b9565b6000826001600160a01b03168260405160006040518083038185875af1925050503d8060008114612521576040519150601f19603f3d011682016040523d82523d6000602084013e612526565b606091505b505090508061259d5760405162461bcd60e51b815260206004820152603a60248201527f416464726573733a20756e61626c6520746f2073656e642076616c75652c207260448201527f6563697069656e74206d6179206861766520726576657274656400000000000060648201526084016104b9565b505050565b6005546000828152600960205260408082206001015490516307f3f86760e21b8152919283926001600160a01b0390911691631fcfe19c916125eb9188913091906004016140c0565b602060405180830381600087803b15801561260557600080fd5b505af1158015612619573d6000803e3d6000fd5b505050506040513d601f19601f8201168201806040525081019061263d9190613da7565b600254600085815260096020526040812060010154929350916127109161266391614342565b61266d9190614322565b600085815260096020526040902060040154909150801561271c576006546001600160a01b031663a9059cbb336040516001600160e01b031960e084901b1681526001600160a01b03909116600482015260248101849052604401602060405180830381600087803b1580156126e257600080fd5b505af11580156126f6573d6000803e3d6000fd5b505050506040513d601f19601f8201168201806040525081019061271a9190613cbc565b505b81156127ac5760065460075460405163a9059cbb60e01b81526001600160a01b0391821660048201526024810185905291169063a9059cbb90604401602060405180830381600087803b15801561277257600080fd5b505af1158015612786573d6000803e3d6000fd5b505050506040513d601f19601f820116820180604052508101906127aa9190613cbc565b505b806127b7838561438a565b6127c1919061438a565b9695505050505050565b8151600090602084016127e664ffffffffff85168284612f0b565b925050505b92915050565b60008181612807815b62ffffff19841690612f4f565b50601884901c6001600160601b03166128265762ffffff199250612914565b600061283385600061291b565b9050601885901c6001600160601b03166001600160401b0382166128605762ffffff195b94505050612914565b600061286b83613029565b60ff16905060005b836001600160401b03168110156128e45782821061289b5762ffffff19965050505050612914565b60006128b96128aa848661438a565b62ffffff198b1690600e613082565b90506128c4816130b6565b6128ce9084614298565b92505080806128dc9061441c565b915050612873565b508181146128fb5762ffffff199550505050612914565b6301000000600160d81b038716600f60d81b1795505050505b5050919050565b60008061293062ffffff1985168460016130ff565b905060fc811161294b576129438161312f565b9150506127eb565b8060fd14156129b157612979612974612965856001614298565b62ffffff19871690600261319b565b61312f565b915061298482613029565b60ff166003146129ac576129aa6129a562ffffff19861685600360006132e5565b613355565b505b612a5d565b8060fe1415612a06576129da6129746129cb856001614298565b62ffffff19871690600461319b565b91506129e582613029565b60ff166005146129ac576129aa6129a562ffffff19861685600560006132e5565b8060ff1415612a5d57612a2f612974612a20856001614298565b62ffffff19871690600861319b565b9150612a3a82613029565b60ff16600914612a5d57612a5b6129a562ffffff19861685600960006132e5565b505b5092915050565b600082600f612a72816127fa565b506000612a8086600061291b565b6001600160401b03169050601886901c6001600160601b0316818610612adc5760405162461bcd60e51b81526020600482015260116024820152702b37baba103932b0b21037bb32b9393ab760791b60448201526064016104b9565b6000612ae783613029565b60ff1690506000805b88811015612b3d57612b14612b05848661438a565b62ffffff198c1690600e613082565b9150612b1f826130b6565b612b299084614298565b9250612b36600182614298565b9050612af0565b50612b4b6128aa838561438a565b90506000612b58826130b6565b9050612b6d62ffffff198b168483600d6132e5565b9a9950505050505050505050565b600081600d612b89816127fa565b506000612b9785600861291b565b9050612bcf612ba582613029565b612bb09060086142db565b60ff166001600160401b03831660075b62ffffff1989169291906132e5565b95945050505050565b600081600d612be6816127fa565b506000612bf485600861291b565b9050612bcf600882612c0584613029565b60ff16612c1291906142b0565b6001600160401b03166007612bc0565b6000816007612c30816127fa565b506000612c3e85600061291b565b90506000612c5861297462ffffff198816600360016130ff565b90506053826001600160401b03161180612c7b57506004826001600160401b0316105b80612c985750612c9362ffffff1987166001806130ff565b606a14155b80612cc85750612ca96003836143a1565b6001600160401b0316612cc562ffffff198816600360016130ff565b14155b15612cd75762ffffff19612857565b6127c162ffffff19871660046001600160401b038416600c6132e5565b6060600080612d0c8460181c6001600160601b031690565b60405193508392506001600160601b03169050612d3384612d2e846020614298565b6133dc565b508181016020016040529052919050565b600081600d612d52816127fa565b50610ece61297462ffffff1986166000600861319b565b60606000835b612d7a846001614298565b811015612de557858181518110612da157634e487b7160e01b600052603260045260246000fd5b602001015160f81c60f81b91508282604051602001612dc192919061403b565b60405160208183030381529060405292508080612ddd9061441c565b915050612d6f565b50509392505050565b606082471015612e4f5760405162461bcd60e51b815260206004820152602660248201527f416464726573733a20696e73756666696369656e742062616c616e636520666f6044820152651c8818d85b1b60d21b60648201526084016104b9565b843b612e9d5760405162461bcd60e51b815260206004820152601d60248201527f416464726573733a2063616c6c20746f206e6f6e2d636f6e747261637400000060448201526064016104b9565b600080866001600160a01b03168587604051612eb9919061401f565b60006040518083038185875af1925050503d8060008114612ef6576040519150601f19603f3d011682016040523d82523d6000602084013e612efb565b606091505b5091509150610ec9828286613534565b600080612f188385614298565b9050604051811115612f28575060005b80612f3a5762ffffff1991505061247d565b5050606092831b9190911790911b1760181b90565b6000612f5b838361356d565b613022576000612f7a612f6e8560d81c90565b64ffffffffff16613590565b9150506000612f8f8464ffffffffff16613590565b6040517f5479706520617373657274696f6e206661696c65642e20476f7420307800000060208201526001600160b01b031960b086811b8216603d8401526c05c408af0e0cac6e8cac84060f609b1b604784015283901b16605482015290925060009150605e015b60405160208183030381529060405290508060405162461bcd60e51b81526004016104b991906140ad565b5090919050565b600060fc826001600160401b03161161304457506001610984565b61ffff826001600160401b03161161305e57506003610984565b63ffffffff826001600160401b03161161307a57506005610984565b506009610984565b600061247a848461309c8760181c6001600160601b031690565b6001600160601b03166130af919061438a565b85856132e5565b600081600e6130c4816127fa565b5060006130d285600861291b565b9050806001600160401b03166130e782613029565b60ff166130f49190614298565b612bcf906008614298565b600061310c8260206143c9565b613117906008614361565b60ff1661312585858561363c565b901c949350505050565b60006001600160401b038211156131975760405162461bcd60e51b815260206004820152602660248201527f53616665436173743a2076616c756520646f65736e27742066697420696e203660448201526534206269747360d01b60648201526084016104b9565b5090565b600061247a6131ab85858561363c565b600881811c7eff00ff00ff00ff00ff00ff00ff00ff00ff00ff00ff00ff00ff00ff00ff00ff167fff00ff00ff00ff00ff00ff00ff00ff00ff00ff00ff00ff00ff00ff00ff00ff009290911b9190911617601081811c7dffff0000ffff0000ffff0000ffff0000ffff0000ffff0000ffff0000ffff167fffff0000ffff0000ffff0000ffff0000ffff0000ffff0000ffff0000ffff00009290911b9190911617602081811c7bffffffff00000000ffffffff00000000ffffffff00000000ffffffff167fffffffff00000000ffffffff00000000ffffffff00000000ffffffff000000009290911b9190911617604081811c77ffffffffffffffff0000000000000000ffffffffffffffff1677ffffffffffffffff0000000000000000ffffffffffffffff199290911b9190911617608081811c91901b1790565b6000806132fb8660781c6001600160601b031690565b6001600160601b0316905061330f86613795565b8461331a8784614298565b6133249190614298565b11156133375762ffffff19915050610ece565b6133418582614298565b90506127c18364ffffffffff168286612f0b565b6060600061338961338482613376601887901c6001600160601b03166137d6565b62ffffff19871691906130ff565b613590565b6040517f4e6f6e2d6d696e696d616c2076617220696e742e20476f74203078000000000060208201526dffffffffffffffffffffffffffff19607083901b16603b82015290925060009150604d01612ff7565b600062ffffff1980841614156134455760405162461bcd60e51b815260206004820152602860248201527f54797065644d656d566965772f636f7079546f202d204e756c6c20706f696e7460448201526732b9103232b932b360c11b60648201526084016104b9565b61344e83613837565b6134ae5760405162461bcd60e51b815260206004820152602b60248201527f54797065644d656d566965772f636f7079546f202d20496e76616c696420706f60448201526a34b73a32b9103232b932b360a91b60648201526084016104b9565b60006134c38460181c6001600160601b031690565b6001600160601b0316905060006134e38560781c6001600160601b031690565b6001600160601b0316905060006040519050848111156135035760206060fd5b8285848460045afa506127c16135198760d81c90565b64ffffffffff60601b606091821b168717901b841760181b90565b6060831561354357508161247d565b8251156135535782518084602001fd5b8160405162461bcd60e51b81526004016104b991906140ad565b60008164ffffffffff166135818460d81c90565b64ffffffffff16149392505050565b600080601f5b600f8160ff1611156135ee5760006135af826008614361565b60ff1685901c90506135c081613875565b61ffff16841793508160ff166010146135db57601084901b93505b506135e76001826143c9565b9050613596565b50600f5b60ff8160ff1610156136365760ff600882021684901c61361181613875565b61ffff16831792508160ff1660001461362c57601083901b92505b50600019016135f2565b50915091565b600060ff821661364e5750600061247d565b6136618460181c6001600160601b031690565b6001600160601b031661367760ff841685614298565b11156136db576136c26136938560781c6001600160601b031690565b6001600160601b03166136af8660181c6001600160601b031690565b6001600160601b0316858560ff166138a5565b60405162461bcd60e51b81526004016104b991906140ad565b60208260ff1611156137555760405162461bcd60e51b815260206004820152603a60248201527f54797065644d656d566965772f696e646578202d20417474656d70746564207460448201527f6f20696e646578206d6f7265207468616e20333220627974657300000000000060648201526084016104b9565b60088202600061376e8660781c6001600160601b031690565b6001600160601b031690506000600160ff1b60001984011d91909501511695945050505050565b60006137aa8260181c6001600160601b031690565b6137bd8360781c6001600160601b031690565b6137c79190614300565b6001600160601b031692915050565b600060ff8211156131975760405162461bcd60e51b815260206004820152602560248201527f53616665436173743a2076616c756520646f65736e27742066697420696e2038604482015264206269747360d81b60648201526084016104b9565b60006138438260d81c90565b64ffffffffff1664ffffffffff141561385e57506000610984565b600061386983613795565b60405110199392505050565b600061388760048360ff16901c6139cf565b60ff161760081b62ffff001661389c826139cf565b60ff1617919050565b606060006138b286613590565b91505060006138c086613590565b91505060006138ce86613590565b91505060006138dc86613590565b604080517f54797065644d656d566965772f696e646578202d204f76657272616e20746865602082015274040ecd2caee5c40a6d8d2c6ca40d2e640c2e84060f605b1b818301526001600160d01b031960d098891b811660558301526e040eed2e8d040d8cadccee8d04060f608b1b605b830181905297891b8116606a8301527f2e20417474656d7074656420746f20696e646578206174206f666673657420306070830152600f60fb1b609083015295881b861660918201526097810196909652951b90921660a68401525050601760f91b60ac8201528151808203608d01815260ad90910190915295945050505050565b600060f08083179060ff821614156139eb576030915050610984565b8060ff1660f11415613a01576031915050610984565b8060ff1660f21415613a17576032915050610984565b8060ff1660f31415613a2d576033915050610984565b8060ff1660f41415613a43576034915050610984565b8060ff1660f51415613a59576035915050610984565b8060ff1660f61415613a6f576036915050610984565b8060ff1660f71415613a85576037915050610984565b8060ff1660f81415613a9b576038915050610984565b8060ff1660f91415613ab1576039915050610984565b8060ff1660fa1415613ac7576061915050610984565b8060ff1660fb1415613add576062915050610984565b8060ff1660fc1415613af3576063915050610984565b8060ff1660fd1415613b09576064915050610984565b8060ff1660fe1415613b1f576065915050610984565b8060ff1660ff1415613b35576066915050610984565b50919050565b828054828255906000526020600020908101928215613b90579160200282015b82811115613b9057825182546001600160a01b0319166001600160a01b03909116178255602090920191600190910190613b5b565b506131979291505b808211156131975760008155600101613b98565b8051801515811461098457600080fd5b80356001600160e01b03198116811461098457600080fd5b60008083601f840112613be5578182fd5b5081356001600160401b03811115613bfb578182fd5b602083019150836020828501011115613c1357600080fd5b9250929050565b600082601f830112613c2a578081fd5b81356001600160401b03811115613c4357613c4361444d565b613c56601f8201601f1916602001614268565b818152846020838601011115613c6a578283fd5b816020850160208301379081016020019190915292915050565b600060208284031215613c95578081fd5b813561247d81614463565b600060208284031215613cb1578081fd5b815161247d81614463565b600060208284031215613ccd578081fd5b61247d82613bac565b60008060408385031215613ce8578081fd5b613cf183613bac565b91506020808401516001600160401b0380821115613d0d578384fd5b818601915086601f830112613d20578384fd5b815181811115613d3257613d3261444d565b8381029150613d42848301614268565b8181528481019084860184860187018b1015613d5c578788fd5b8795505b83861015613d7e578051835260019590950194918601918601613d60565b508096505050505050509250929050565b600060208284031215613da0578081fd5b5035919050565b600060208284031215613db8578081fd5b5051919050565b60008060008060008060008060008060006101008c8e031215613de0578687fd5b613de98c613bbc565b9a506001600160401b038060208e01351115613e03578788fd5b613e138e60208f01358f01613c1a565b9a508060408e01351115613e25578788fd5b613e358e60408f01358f01613bd4565b909a509850613e4660608e01613bbc565b975060808d013596508060a08e01351115613e5f578586fd5b613e6f8e60a08f01358f01613bd4565b909650945060c08d0135935060e08d0135811015613e8b578283fd5b50613e9c8d60e08e01358e01613bd4565b81935080925050509295989b509295989b9093969950565b60008060408385031215613ec6578182fd5b823591506020830135613ed881614463565b809150509250929050565b600080600080600080600060e0888a031215613efd578283fd5b8735965060208801359550604088013594506060880135613f1d81614463565b93506080880135613f2d81614463565b925060a0880135613f3d81614463565b915060c0880135613f4d81614463565b8091505092959891949750929550565b6000815180845260208085019450808401835b83811015613f955781516001600160a01b031687529582019590820190600101613f70565b509495945050505050565b60008151808452613fb88160208601602086016143ec565b601f01601f19169290920160200192915050565b600063ffffffff60e01b80871683528551613fee816004860160208a016143ec565b855190840190614005816004840160208a016143ec565b919094169301600481019390935250506008019392505050565b600082516140318184602087016143ec565b9190910192915050565b6000835161404d8184602088016143ec565b6001600160f81b0319939093169190920190815260010192915050565b60006020825261247d6020830184613f5d565b60008582528460208301526080604083015261409c6080830185613fa0565b905082606083015295945050505050565b60006020825261247d6020830184613fa0565b6000606082526140d36060830186613fa0565b6001600160a01b039490941660208301525060400152919050565b60006101408083526141028184018c613fa0565b60208481018c90526001600160a01b038b811660408701529193509150606084018960005b6002811015614146578151841683529184019190840190600101614127565b5050505060a083018760005b600281101561416f57815183529183019190830190600101614152565b505050508460e083015283610100830152826101208301529998505050505050505050565b60208082526021908201527f434345786368616e6765526f757465723a2061646472657373206973207a65726040820152606f60f81b606082015260800190565b6020808252602b908201527f496e697469616c697a61626c653a20636f6e7472616374206973206e6f74206960408201526a6e697469616c697a696e6760a81b606082015260800190565b600087825286602083015260c0604083015261423f60c0830187613f5d565b6001600160a01b03959095166060830152506080810192909252151560a0909101529392505050565b604051601f8201601f191681016001600160401b03811182821017156142905761429061444d565b604052919050565b600082198211156142ab576142ab614437565b500190565b60006001600160401b038083168185168083038211156142d2576142d2614437565b01949350505050565b600060ff821660ff84168060ff038211156142f8576142f8614437565b019392505050565b60006001600160601b038083168185168083038211156142d2576142d2614437565b60008261433d57634e487b7160e01b81526012600452602481fd5b500490565b600081600019048311821515161561435c5761435c614437565b500290565b600060ff821660ff84168160ff048111821515161561438257614382614437565b029392505050565b60008282101561439c5761439c614437565b500390565b60006001600160401b03838116908316818110156143c1576143c1614437565b039392505050565b600060ff821660ff8416808210156143e3576143e3614437565b90039392505050565b60005b838110156144075781810151838201526020016143ef565b83811115614416576000848401525b50505050565b600060001982141561443057614430614437565b5060010190565b634e487b7160e01b600052601160045260246000fd5b634e487b7160e01b600052604160045260246000fd5b6001600160a01b038116811461094a57600080fdfe416464726573733a206c6f772d6c6576656c2063616c6c20776974682076616c7565206661696c6564a2646970667358221220bdf7ff01d8e6ed88c35903aa59a46015783bef64192ec9ddbb9a79e41dd15f4964736f6c63430008020033",
  "devdoc": {
    "kind": "dev",
    "methods": {
      "ccExchange(bytes4,bytes,bytes,bytes4,uint256,bytes,uint256,bytes)": {
        "details": "Mints teleBTC for user if exchanging is not successful",
        "params": {
          "_blockNumber": "Height of the block containing the user request",
          "_index": "Index of transaction containing the user request in the block",
          "_intermediateNodes": "Merkle inclusion proof for transaction containing the user request",
          "_lockerLockingScript": "Script hash of locker that user has sent BTC to it",
          "_locktime": "Lock time of the transaction containing the user request",
          "_version": "Version of the transaction containing the user request",
          "_vin": "Inputs of the transaction containing the user request",
          "_vout": "Outputs of the transaction containing the user request"
        },
        "returns": {
          "_0": ""
        }
      },
      "initialize(uint256,uint256,uint256,address,address,address,address)": {
        "params": {
          "_chainId": "Id of the underlying chain",
          "_lockers": "Lockers' contract address",
          "_protocolPercentageFee": "Percentage amount of protocol fee (min: %0.01)",
          "_relay": "The Relay address to validate data from source chain",
          "_startingBlockNumber": "Requests that are included in a block older than _startingBlockNumber cannot be executed",
          "_teleBTC": "TeleportDAO BTC ERC20 token address",
          "_treasury": "Address of treasury that collects protocol fees"
        }
      },
      "isRequestUsed(bytes32)": {
        "details": "It prevents re-submitting an executed request",
        "params": {
          "_txId": "The transaction ID of request on source chain "
        },
        "returns": {
          "_0": "True if the cc exchange request has been already executed"
        }
      },
      "owner()": {
        "details": "Returns the address of the current owner."
      },
      "renounceOwnership()": {
        "details": "Leaves the contract without owner. It will not be possible to call `onlyOwner` functions anymore. Can only be called by the current owner. NOTE: Renouncing ownership will leave the contract without an owner, thereby removing any functionality that is only available to the owner."
      },
      "setExchangeConnector(uint256,address)": {
        "details": "Only owner can call this. _exchangeConnector can be set to zero to inactive an app",
        "params": {
          "_appId": "AppId of exchange connector",
          "_exchangeConnector": "Address of exchange connector"
        }
      },
      "setInstantRouter(address)": {
        "details": "Only owner can call this",
        "params": {
          "_instantRouter": "The new instantRouter contract address"
        }
      },
      "setLockers(address)": {
        "details": "Only owner can call this",
        "params": {
          "_lockers": "The new lockers contract address"
        }
      },
      "setProtocolPercentageFee(uint256)": {
        "details": "Only owner can call this",
        "params": {
          "_protocolPercentageFee": "Percentage amount of protocol fee"
        }
      },
      "setRelay(address)": {
        "details": "Only owner can call this",
        "params": {
          "_relay": "The new relay contract address"
        }
      },
      "setTeleBTC(address)": {
        "details": "Only owner can call this",
        "params": {
          "_teleBTC": "The new teleBTC contract address"
        }
      },
      "setTreasury(address)": {
        "details": "Only owner can call this",
        "params": {
          "_treasury": "Treasury address"
        }
      },
      "transferOwnership(address)": {
        "details": "Transfers ownership of the contract to a new account (`newOwner`). Can only be called by the current owner."
      }
    },
    "version": 1
  },
  "userdoc": {
    "events": {
      "CCExchange(bytes,uint256,address,address,address[2],uint256[2],uint256,address,uint256,bytes32,uint256)": {
        "notice": "Emits when a cc exchange request gets done"
      },
      "FailedCCExchange(bytes,uint256,address,address,address[2],uint256[2],uint256,address,uint256,bytes32,uint256)": {
        "notice": "Emits when a cc exchange request fails"
      },
      "NewInstantRouter(address,address)": {
        "notice": "Emits when changes made to InstantRouter address"
      },
      "NewLockers(address,address)": {
        "notice": "Emits when changes made to Lockers address"
      },
      "NewProtocolPercentageFee(uint256,uint256)": {
        "notice": "Emits when changes made to protocol percentage fee"
      },
      "NewRelay(address,address)": {
        "notice": "Emits when changes made to relay address"
      },
      "NewTeleBTC(address,address)": {
        "notice": "Emits when changes made to TeleBTC address"
      },
      "NewTreasury(address,address)": {
        "notice": "Emits when changes made to Treasury address"
      },
      "SetExchangeConnector(uint256,address)": {
        "notice": "Emits when appId for an exchange connector is set"
      }
    },
    "kind": "user",
    "methods": {
      "ccExchange(bytes4,bytes,bytes,bytes4,uint256,bytes,uint256,bytes)": {
        "notice": "Executes a cross-chain exchange request after checking its merkle inclusion proof"
      },
      "initialize(uint256,uint256,uint256,address,address,address,address)": {
        "notice": "Gives default params to initiate cc exchange router"
      },
      "isRequestUsed(bytes32)": {
        "notice": "Check if the cc exchange request has been executed before"
      },
      "setExchangeConnector(uint256,address)": {
        "notice": "Sets appId for an exchange connector"
      },
      "setInstantRouter(address)": {
        "notice": "Changes instantRouter contract address"
      },
      "setLockers(address)": {
        "notice": "Changes lockers contract address"
      },
      "setProtocolPercentageFee(uint256)": {
        "notice": "Setter for protocol percentage fee"
      },
      "setRelay(address)": {
        "notice": "Changes relay contract address"
      },
      "setTeleBTC(address)": {
        "notice": "Changes teleBTC contract address"
      },
      "setTreasury(address)": {
        "notice": "Setter for treasury"
      }
    },
    "version": 1
  },
  "storageLayout": {
    "storage": [
      {
        "astId": 18635,
        "contract": "contracts/routers/CcExchangeRouterLogic.sol:CcExchangeRouterLogic",
        "label": "startingBlockNumber",
        "offset": 0,
        "slot": "0",
        "type": "t_uint256"
      },
      {
        "astId": 18638,
        "contract": "contracts/routers/CcExchangeRouterLogic.sol:CcExchangeRouterLogic",
        "label": "chainId",
        "offset": 0,
        "slot": "1",
        "type": "t_uint256"
      },
      {
        "astId": 18641,
        "contract": "contracts/routers/CcExchangeRouterLogic.sol:CcExchangeRouterLogic",
        "label": "protocolPercentageFee",
        "offset": 0,
        "slot": "2",
        "type": "t_uint256"
      },
      {
        "astId": 18644,
        "contract": "contracts/routers/CcExchangeRouterLogic.sol:CcExchangeRouterLogic",
        "label": "relay",
        "offset": 0,
        "slot": "3",
        "type": "t_address"
      },
      {
        "astId": 18647,
        "contract": "contracts/routers/CcExchangeRouterLogic.sol:CcExchangeRouterLogic",
        "label": "instantRouter",
        "offset": 0,
        "slot": "4",
        "type": "t_address"
      },
      {
        "astId": 18650,
        "contract": "contracts/routers/CcExchangeRouterLogic.sol:CcExchangeRouterLogic",
        "label": "lockers",
        "offset": 0,
        "slot": "5",
        "type": "t_address"
      },
      {
        "astId": 18653,
        "contract": "contracts/routers/CcExchangeRouterLogic.sol:CcExchangeRouterLogic",
        "label": "teleBTC",
        "offset": 0,
        "slot": "6",
        "type": "t_address"
      },
      {
        "astId": 18656,
        "contract": "contracts/routers/CcExchangeRouterLogic.sol:CcExchangeRouterLogic",
        "label": "treasury",
        "offset": 0,
        "slot": "7",
        "type": "t_address"
      },
      {
        "astId": 18661,
        "contract": "contracts/routers/CcExchangeRouterLogic.sol:CcExchangeRouterLogic",
        "label": "exchangeConnector",
        "offset": 0,
        "slot": "8",
        "type": "t_mapping(t_uint256,t_address)"
      },
      {
        "astId": 18666,
        "contract": "contracts/routers/CcExchangeRouterLogic.sol:CcExchangeRouterLogic",
        "label": "ccExchangeRequests",
        "offset": 0,
        "slot": "9",
        "type": "t_mapping(t_bytes32,t_struct(ccExchangeRequest)20070_storage)"
      },
      {
        "astId": 184,
        "contract": "contracts/routers/CcExchangeRouterLogic.sol:CcExchangeRouterLogic",
        "label": "_initialized",
        "offset": 0,
        "slot": "10",
        "type": "t_uint8"
      },
      {
        "astId": 187,
        "contract": "contracts/routers/CcExchangeRouterLogic.sol:CcExchangeRouterLogic",
        "label": "_initializing",
        "offset": 1,
        "slot": "10",
        "type": "t_bool"
      },
      {
        "astId": 871,
        "contract": "contracts/routers/CcExchangeRouterLogic.sol:CcExchangeRouterLogic",
        "label": "__gap",
        "offset": 0,
        "slot": "11",
        "type": "t_array(t_uint256)50_storage"
      },
      {
        "astId": 56,
        "contract": "contracts/routers/CcExchangeRouterLogic.sol:CcExchangeRouterLogic",
        "label": "_owner",
        "offset": 0,
        "slot": "61",
        "type": "t_address"
      },
      {
        "astId": 176,
        "contract": "contracts/routers/CcExchangeRouterLogic.sol:CcExchangeRouterLogic",
        "label": "__gap",
        "offset": 0,
        "slot": "62",
        "type": "t_array(t_uint256)49_storage"
      },
      {
        "astId": 487,
        "contract": "contracts/routers/CcExchangeRouterLogic.sol:CcExchangeRouterLogic",
        "label": "_status",
        "offset": 0,
        "slot": "111",
        "type": "t_uint256"
      },
      {
        "astId": 545,
        "contract": "contracts/routers/CcExchangeRouterLogic.sol:CcExchangeRouterLogic",
        "label": "__gap",
        "offset": 0,
        "slot": "112",
        "type": "t_array(t_uint256)49_storage"
      }
    ],
    "types": {
      "t_address": {
        "encoding": "inplace",
        "label": "address",
        "numberOfBytes": "20"
      },
      "t_array(t_address)dyn_storage": {
        "base": "t_address",
        "encoding": "dynamic_array",
        "label": "address[]",
        "numberOfBytes": "32"
      },
      "t_array(t_uint256)49_storage": {
        "base": "t_uint256",
        "encoding": "inplace",
        "label": "uint256[49]",
        "numberOfBytes": "1568"
      },
      "t_array(t_uint256)50_storage": {
        "base": "t_uint256",
        "encoding": "inplace",
        "label": "uint256[50]",
        "numberOfBytes": "1600"
      },
      "t_bool": {
        "encoding": "inplace",
        "label": "bool",
        "numberOfBytes": "1"
      },
      "t_bytes32": {
        "encoding": "inplace",
        "label": "bytes32",
        "numberOfBytes": "32"
      },
      "t_mapping(t_bytes32,t_struct(ccExchangeRequest)20070_storage)": {
        "encoding": "mapping",
        "key": "t_bytes32",
        "label": "mapping(bytes32 => struct ICcExchangeRouterStorage.ccExchangeRequest)",
        "numberOfBytes": "32",
        "value": "t_struct(ccExchangeRequest)20070_storage"
      },
      "t_mapping(t_uint256,t_address)": {
        "encoding": "mapping",
        "key": "t_uint256",
        "label": "mapping(uint256 => address)",
        "numberOfBytes": "32",
        "value": "t_address"
      },
      "t_struct(ccExchangeRequest)20070_storage": {
        "encoding": "inplace",
        "label": "struct ICcExchangeRouterStorage.ccExchangeRequest",
        "members": [
          {
            "astId": 20050,
            "contract": "contracts/routers/CcExchangeRouterLogic.sol:CcExchangeRouterLogic",
            "label": "appId",
            "offset": 0,
            "slot": "0",
            "type": "t_uint256"
          },
          {
            "astId": 20052,
            "contract": "contracts/routers/CcExchangeRouterLogic.sol:CcExchangeRouterLogic",
            "label": "inputAmount",
            "offset": 0,
            "slot": "1",
            "type": "t_uint256"
          },
          {
            "astId": 20054,
            "contract": "contracts/routers/CcExchangeRouterLogic.sol:CcExchangeRouterLogic",
            "label": "outputAmount",
            "offset": 0,
            "slot": "2",
            "type": "t_uint256"
          },
          {
            "astId": 20056,
            "contract": "contracts/routers/CcExchangeRouterLogic.sol:CcExchangeRouterLogic",
            "label": "isFixedToken",
            "offset": 0,
            "slot": "3",
            "type": "t_bool"
          },
          {
            "astId": 20058,
            "contract": "contracts/routers/CcExchangeRouterLogic.sol:CcExchangeRouterLogic",
            "label": "recipientAddress",
            "offset": 1,
            "slot": "3",
            "type": "t_address"
          },
          {
            "astId": 20060,
            "contract": "contracts/routers/CcExchangeRouterLogic.sol:CcExchangeRouterLogic",
            "label": "fee",
            "offset": 0,
            "slot": "4",
            "type": "t_uint256"
          },
          {
            "astId": 20062,
            "contract": "contracts/routers/CcExchangeRouterLogic.sol:CcExchangeRouterLogic",
            "label": "isUsed",
            "offset": 0,
            "slot": "5",
            "type": "t_bool"
          },
          {
            "astId": 20065,
            "contract": "contracts/routers/CcExchangeRouterLogic.sol:CcExchangeRouterLogic",
            "label": "path",
            "offset": 0,
            "slot": "6",
            "type": "t_array(t_address)dyn_storage"
          },
          {
            "astId": 20067,
            "contract": "contracts/routers/CcExchangeRouterLogic.sol:CcExchangeRouterLogic",
            "label": "deadline",
            "offset": 0,
            "slot": "7",
            "type": "t_uint256"
          },
          {
            "astId": 20069,
            "contract": "contracts/routers/CcExchangeRouterLogic.sol:CcExchangeRouterLogic",
            "label": "speed",
            "offset": 0,
            "slot": "8",
            "type": "t_uint256"
          }
        ],
        "numberOfBytes": "288"
      },
      "t_uint256": {
        "encoding": "inplace",
        "label": "uint256",
        "numberOfBytes": "32"
      },
      "t_uint8": {
        "encoding": "inplace",
        "label": "uint8",
        "numberOfBytes": "1"
      }
    }
  }
}