{
  "address": "0x423A067699ccF73CF1fE62ef93abecca48a67863",
  "abi": [
    {
      "inputs": [],
      "name": "ZeroAddress",
      "type": "error"
    },
    {
      "anonymous": false,
      "inputs": [
        {
          "indexed": false,
          "internalType": "address",
          "name": "oldAcross",
          "type": "address"
        },
        {
          "indexed": false,
          "internalType": "address",
          "name": "newAcross",
          "type": "address"
        }
      ],
      "name": "AcrossUpdated",
      "type": "event"
    },
    {
      "anonymous": false,
      "inputs": [
        {
          "indexed": false,
          "internalType": "uint8",
          "name": "version",
          "type": "uint8"
        }
      ],
      "name": "Initialized",
      "type": "event"
    },
    {
      "anonymous": false,
      "inputs": [
        {
          "indexed": false,
          "internalType": "uint256",
          "name": "uniqueCounter",
          "type": "uint256"
        },
        {
          "indexed": false,
          "internalType": "bytes",
          "name": "data",
          "type": "bytes"
        },
        {
          "indexed": false,
          "internalType": "address",
          "name": "sourceChainInputToken",
          "type": "address"
        },
        {
          "indexed": false,
          "internalType": "uint256",
          "name": "amount",
          "type": "uint256"
        }
      ],
      "name": "MsgSent",
      "type": "event"
    },
    {
      "anonymous": false,
      "inputs": [
        {
          "indexed": true,
          "internalType": "address",
          "name": "previousOwner",
          "type": "address"
        },
        {
          "indexed": true,
          "internalType": "address",
          "name": "newOwner",
          "type": "address"
        }
      ],
      "name": "OwnershipTransferred",
      "type": "event"
    },
    {
      "anonymous": false,
      "inputs": [
        {
          "indexed": false,
          "internalType": "address",
          "name": "account",
          "type": "address"
        }
      ],
      "name": "Paused",
      "type": "event"
    },
    {
      "anonymous": false,
      "inputs": [
        {
          "indexed": false,
          "internalType": "address",
          "name": "oldTargetChainConnector",
          "type": "address"
        },
        {
          "indexed": false,
          "internalType": "address",
          "name": "newTargetChainConnector",
          "type": "address"
        }
      ],
      "name": "TargetChainConnectorUpdated",
      "type": "event"
    },
    {
      "anonymous": false,
      "inputs": [
        {
          "indexed": false,
          "internalType": "address",
          "name": "oldTeleBtc",
          "type": "address"
        },
        {
          "indexed": false,
          "internalType": "address",
          "name": "newTeleBtc",
          "type": "address"
        }
      ],
      "name": "TargetChainTeleBTCUpdated",
      "type": "event"
    },
    {
      "anonymous": false,
      "inputs": [
        {
          "indexed": false,
          "internalType": "address",
          "name": "account",
          "type": "address"
        }
      ],
      "name": "Unpaused",
      "type": "event"
    },
    {
      "anonymous": false,
      "inputs": [
        {
          "indexed": false,
          "internalType": "address",
          "name": "oldWrappedNativeToken",
          "type": "address"
        },
        {
          "indexed": false,
          "internalType": "address",
          "name": "newWrappedNativeToken",
          "type": "address"
        }
      ],
      "name": "WrappedNativeTokenUpdated",
      "type": "event"
    },
    {
      "inputs": [],
      "name": "ETH_ADDR",
      "outputs": [
        {
          "internalType": "address",
          "name": "",
          "type": "address"
        }
      ],
      "stateMutability": "view",
      "type": "function"
    },
    {
      "inputs": [],
      "name": "ONE_HUNDRED_PERCENT",
      "outputs": [
        {
          "internalType": "uint256",
          "name": "",
          "type": "uint256"
        }
      ],
      "stateMutability": "view",
      "type": "function"
    },
    {
      "inputs": [],
      "name": "across",
      "outputs": [
        {
          "internalType": "address",
          "name": "",
          "type": "address"
        }
      ],
      "stateMutability": "view",
      "type": "function"
    },
    {
      "inputs": [],
      "name": "currChainId",
      "outputs": [
        {
          "internalType": "uint256",
          "name": "",
          "type": "uint256"
        }
      ],
      "stateMutability": "view",
      "type": "function"
    },
    {
      "inputs": [
        {
          "internalType": "address",
          "name": "_token",
          "type": "address"
        },
        {
          "internalType": "address",
          "name": "_to",
          "type": "address"
        },
        {
          "internalType": "uint256",
          "name": "_amount",
          "type": "uint256"
        }
      ],
      "name": "emergencyWithdraw",
      "outputs": [],
      "stateMutability": "nonpayable",
      "type": "function"
    },
    {
      "inputs": [
        {
          "internalType": "address",
          "name": "_targetChainTeleBTC",
          "type": "address"
        },
        {
          "internalType": "address",
          "name": "_across",
          "type": "address"
        },
        {
          "internalType": "address",
          "name": "_wrappedNativeToken",
          "type": "address"
        },
        {
          "internalType": "uint256",
          "name": "_targetChainId",
          "type": "uint256"
        },
        {
          "internalType": "uint256",
          "name": "_currChainId",
          "type": "uint256"
        }
      ],
      "name": "initialize",
      "outputs": [],
      "stateMutability": "nonpayable",
      "type": "function"
    },
    {
      "inputs": [],
      "name": "owner",
      "outputs": [
        {
          "internalType": "address",
          "name": "",
          "type": "address"
        }
      ],
      "stateMutability": "view",
      "type": "function"
    },
    {
      "inputs": [],
      "name": "paused",
      "outputs": [
        {
          "internalType": "bool",
          "name": "",
          "type": "bool"
        }
      ],
      "stateMutability": "view",
      "type": "function"
    },
    {
      "inputs": [],
      "name": "renounceOwnership",
      "outputs": [],
      "stateMutability": "nonpayable",
      "type": "function"
    },
    {
      "inputs": [
        {
          "internalType": "address",
          "name": "_across",
          "type": "address"
        }
      ],
      "name": "setAcross",
      "outputs": [],
      "stateMutability": "nonpayable",
      "type": "function"
    },
    {
      "inputs": [
        {
          "internalType": "address",
          "name": "_targetChainConnectorProxy",
          "type": "address"
        }
      ],
      "name": "setTargetChainConnectorProxy",
      "outputs": [],
      "stateMutability": "nonpayable",
      "type": "function"
    },
    {
      "inputs": [
        {
          "internalType": "address",
          "name": "_targetChainTeleBTC",
          "type": "address"
        }
      ],
      "name": "setTargetChainTeleBTC",
      "outputs": [],
      "stateMutability": "nonpayable",
      "type": "function"
    },
    {
      "inputs": [
        {
          "internalType": "address",
          "name": "_wrappedNativeToken",
          "type": "address"
        }
      ],
      "name": "setWrappedNativeToken",
      "outputs": [],
      "stateMutability": "nonpayable",
      "type": "function"
    },
    {
      "inputs": [
        {
          "internalType": "address",
          "name": "_token",
          "type": "address"
        },
        {
          "internalType": "address",
          "name": "_exchangeConnector",
          "type": "address"
        },
        {
          "internalType": "uint256[]",
          "name": "_amounts",
          "type": "uint256[]"
        },
        {
          "internalType": "address[]",
          "name": "_path",
          "type": "address[]"
        },
        {
          "internalType": "bytes",
          "name": "_userScript",
          "type": "bytes"
        },
        {
          "internalType": "enum ScriptTypes",
          "name": "_scriptType",
          "type": "uint8"
        },
        {
          "internalType": "bytes",
          "name": "_lockerLockingScript",
          "type": "bytes"
        },
        {
          "internalType": "int64",
          "name": "_relayerFeePercentage",
          "type": "int64"
        },
        {
          "internalType": "uint256",
          "name": "_thirdParty",
          "type": "uint256"
        }
      ],
      "name": "swapAndUnwrap",
      "outputs": [],
      "stateMutability": "payable",
      "type": "function"
    },
    {
      "inputs": [],
      "name": "targetChainConnectorProxy",
      "outputs": [
        {
          "internalType": "address",
          "name": "",
          "type": "address"
        }
      ],
      "stateMutability": "view",
      "type": "function"
    },
    {
      "inputs": [],
      "name": "targetChainId",
      "outputs": [
        {
          "internalType": "uint256",
          "name": "",
          "type": "uint256"
        }
      ],
      "stateMutability": "view",
      "type": "function"
    },
    {
      "inputs": [],
      "name": "targetChainTeleBTC",
      "outputs": [
        {
          "internalType": "address",
          "name": "",
          "type": "address"
        }
      ],
      "stateMutability": "view",
      "type": "function"
    },
    {
      "inputs": [
        {
          "internalType": "address",
          "name": "newOwner",
          "type": "address"
        }
      ],
      "name": "transferOwnership",
      "outputs": [],
      "stateMutability": "nonpayable",
      "type": "function"
    },
    {
      "inputs": [],
      "name": "uniqueCounter",
      "outputs": [
        {
          "internalType": "uint256",
          "name": "",
          "type": "uint256"
        }
      ],
      "stateMutability": "view",
      "type": "function"
    },
    {
      "inputs": [],
      "name": "wrappedNativeToken",
      "outputs": [
        {
          "internalType": "address",
          "name": "",
          "type": "address"
        }
      ],
      "stateMutability": "view",
      "type": "function"
    },
    {
      "stateMutability": "payable",
      "type": "receive"
    }
  ],
  "transactionHash": "0xbd10f22240a5574c662d3b8cd916ede8c852805dfce3b4e4b85044172bf81a9b",
  "args": [],
  "numDeployments": 1,
  "solcInputHash": "4cbcba5302c0eac2e495d8f535f065be",
  "bytecode": "0x608060405234801561001057600080fd5b506117f7806100206000396000f3fe6080604052600436106100f35760003560e01c8063146ffb26146100ff57806317fcb39b14610128578063292c1d92146101605780634d5f71bb146101805780635c975abb146101a057806361be10f2146101c3578063715018a6146101e5578063754d1461146101fa5780637753f47b1461021a5780638da5cb5b14610242578063a197cbe614610257578063a6b63eb814610277578063c4a86b3114610297578063d4dfc8c3146102b7578063d83f0fc5146102cd578063da058ae3146102e3578063dd0081c714610303578063e11b22ee14610319578063e63ea4081461032c578063f2fde38b1461034c57600080fd5b366100fa57005b600080fd5b34801561010b57600080fd5b5061011560cc5481565b6040519081526020015b60405180910390f35b34801561013457600080fd5b5060cd54610148906001600160a01b031681565b6040516001600160a01b03909116815260200161011f565b34801561016c57600080fd5b5060c954610148906001600160a01b031681565b34801561018c57600080fd5b5060ca54610148906001600160a01b031681565b3480156101ac57600080fd5b5060975460ff16604051901515815260200161011f565b3480156101cf57600080fd5b506101e36101de366004611225565b61036c565b005b3480156101f157600080fd5b506101e3610380565b34801561020657600080fd5b506101e3610215366004611225565b610394565b34801561022657600080fd5b5061014873eeeeeeeeeeeeeeeeeeeeeeeeeeeeeeeeeeeeeeee81565b34801561024e57600080fd5b506101486103a5565b34801561026357600080fd5b506101e3610272366004611225565b6103b4565b34801561028357600080fd5b506101e361029236600461123f565b6103c5565b3480156102a357600080fd5b5060cb54610148906001600160a01b031681565b3480156102c357600080fd5b5061011560ce5481565b3480156102d957600080fd5b5061011560cf5481565b3480156102ef57600080fd5b506101e36102fe366004611225565b61051a565b34801561030f57600080fd5b5061011561271081565b6101e3610327366004611293565b61052b565b34801561033857600080fd5b506101e36103473660046113af565b610671565b34801561035857600080fd5b506101e3610367366004611225565b61076d565b6103746107e3565b61037d81610842565b50565b6103886107e3565b61039260006108d4565b565b61039c6107e3565b61037d81610926565b6033546001600160a01b031690565b6103bc6107e3565b61037d816109b8565b600054610100900460ff16158080156103e55750600054600160ff909116105b806103ff5750303b1580156103ff575060005460ff166001145b6104675760405162461bcd60e51b815260206004820152602e60248201527f496e697469616c697a61626c653a20636f6e747261637420697320616c72656160448201526d191e481a5b9a5d1a585b1a5e995960921b60648201526084015b60405180910390fd5b6000805460ff19166001179055801561048a576000805461ff0019166101001790555b610492610a4a565b61049a610a79565b6104a2610aa8565b6104ab86610926565b6104b485610842565b6104bd84610ad7565b60cc83905560cf829055600060ce558015610512576000805461ff0019169055604051600181527f7f26b83ff96e1f2b6a682f133852f6798a09c465da95921460cefb38474024989060200160405180910390a15b505050505050565b6105226107e3565b61037d81610ad7565b610533610b69565b61053f8a8a8a8a610bc3565b600060ce5460cf5461054e3390565b8e8e8e600181811061057057634e487b7160e01b600052603260045260246000fd5b905060200201358d8d8d8d8d8d8c6040516020016105999c9b9a9998979695949392919061159d565b60405160208183030381529060405290507fe69fe079b662ff18874cc35b6a12c636af0eca0fd56cbd0cee7ddec918aea82760ce54828f8e8e60008181106105f157634e487b7160e01b600052603260045260246000fd5b9050602002013560405161060894939291906116d9565b60405180910390a160ce805490600061062083611751565b91905055506106588d8c8c600081811061064a57634e487b7160e01b600052603260045260246000fd5b905060200201358386610cb4565b506106636001606555565b505050505050505050505050565b6106796107e3565b6001600160a01b03831673eeeeeeeeeeeeeeeeeeeeeeeeeeeeeeeeeeeeeeee14156106e7576040516001600160a01b038316908290600081818185875af1925050503d8060008114610512576040519150601f19603f3d011682016040523d82523d6000602084013e610512565b60405163a9059cbb60e01b81526001600160a01b0384169063a9059cbb906107159085908590600401611571565b602060405180830381600087803b15801561072f57600080fd5b505af1158015610743573d6000803e3d6000fd5b505050506040513d601f19601f8201168201806040525081019061076791906113ea565b50505050565b6107756107e3565b6001600160a01b0381166107da5760405162461bcd60e51b815260206004820152602660248201527f4f776e61626c653a206e6577206f776e657220697320746865207a65726f206160448201526564647265737360d01b606482015260840161045e565b61037d816108d4565b336107ec6103a5565b6001600160a01b0316146103925760405162461bcd60e51b815260206004820181905260248201527f4f776e61626c653a2063616c6c6572206973206e6f7420746865206f776e6572604482015260640161045e565b806001600160a01b03811661086a5760405163d92e233d60e01b815260040160405180910390fd5b60c9546040517f06e5f2ca1234f717a2031f662608c02182d4f8bdc3dab013ec4c04eb97553132916108a9916001600160a01b039091169085906114f0565b60405180910390a15060c980546001600160a01b0319166001600160a01b0392909216919091179055565b603380546001600160a01b038381166001600160a01b0319831681179093556040519116919082907f8be0079c531659141344cd1fd0a4f28419497f9722a3daafe3b4186f6b6457e090600090a35050565b806001600160a01b03811661094e5760405163d92e233d60e01b815260040160405180910390fd5b60cb546040517f37b4bc62091d0acd3300990bd241557cbc8040fde4cf701b91d8bac7a69e01609161098d916001600160a01b039091169085906114f0565b60405180910390a15060cb80546001600160a01b0319166001600160a01b0392909216919091179055565b806001600160a01b0381166109e05760405163d92e233d60e01b815260040160405180910390fd5b60ca546040517fbac4f45eeeeb3c9688d046eddcdd28783777a2aa7beffcdf0acb76487d79636491610a1f916001600160a01b039091169085906114f0565b60405180910390a15060ca80546001600160a01b0319166001600160a01b0392909216919091179055565b600054610100900460ff16610a715760405162461bcd60e51b815260040161045e9061168e565b610392610ebf565b600054610100900460ff16610aa05760405162461bcd60e51b815260040161045e9061168e565b610392610eef565b600054610100900460ff16610acf5760405162461bcd60e51b815260040161045e9061168e565b610392610f16565b806001600160a01b038116610aff5760405163d92e233d60e01b815260040160405180910390fd5b60cd546040517fffd9582901c27177dbd18194ae8017f10d8b21f98a0da2ea5197e0b20dc13d7091610b3e916001600160a01b039091169085906114f0565b60405180910390a15060cd80546001600160a01b0319166001600160a01b0392909216919091179055565b60026065541415610bbc5760405162461bcd60e51b815260206004820152601f60248201527f5265656e7472616e637947756172643a207265656e7472616e742063616c6c00604482015260640161045e565b6002606555565b60cb546001600160a01b03168282610bdc60018261170e565b818110610bf957634e487b7160e01b600052603260045260246000fd5b9050602002016020810190610c0e9190611225565b6001600160a01b031614610c645760405162461bcd60e51b815260206004820152601d60248201527f4574684d616e616765724c6f6769633a20696e76616c69642070617468000000604482015260640161045e565b600283146107675760405162461bcd60e51b815260206004820152601e60248201527f4574684d616e616765724c6f6769633a2077726f6e6720616d6f756e74730000604482015260640161045e565b6001600160a01b03841673eeeeeeeeeeeeeeeeeeeeeeeeeeeeeeeeeeeeeeee1415610d0b57823414610cf85760405162461bcd60e51b815260040161045e90611658565b60cd546001600160a01b03169350610e48565b3415610d295760405162461bcd60e51b815260040161045e90611658565b6001600160a01b0384166323b872dd336040516001600160e01b031960e084901b1681526001600160a01b03909116600482015230602482015260448101869052606401602060405180830381600087803b158015610d8757600080fd5b505af1158015610d9b573d6000803e3d6000fd5b505050506040513d601f19601f82011682018060405250810190610dbf91906113ea565b5060c95460405163095ea7b360e01b81526001600160a01b038681169263095ea7b392610df492909116908790600401611571565b602060405180830381600087803b158015610e0e57600080fd5b505af1158015610e22573d6000803e3d6000fd5b505050506040513d601f19601f82011682018060405250810190610e4691906113ea565b505b60c95460ca5460cc54604051610eb1936001600160a01b0390811693610e819391169189918991889042908b906000199060240161150a565b60408051601f198184030181529190526020810180516001600160e01b0316631186ec3360e01b17905234610f49565b5050505050565b6001606555565b600054610100900460ff16610ee65760405162461bcd60e51b815260040161045e9061168e565b610392336108d4565b600054610100900460ff16610eb85760405162461bcd60e51b815260040161045e9061168e565b600054610100900460ff16610f3d5760405162461bcd60e51b815260040161045e9061168e565b6097805460ff19169055565b6060610f6f84848460405180606001604052806029815260200161179960299139610f79565b90505b9392505050565b606082471015610fda5760405162461bcd60e51b815260206004820152602660248201527f416464726573733a20696e73756666696369656e742062616c616e636520666f6044820152651c8818d85b1b60d21b606482015260840161045e565b843b6110285760405162461bcd60e51b815260206004820152601d60248201527f416464726573733a2063616c6c20746f206e6f6e2d636f6e7472616374000000604482015260640161045e565b600080866001600160a01b0316858760405161104491906114d4565b60006040518083038185875af1925050503d8060008114611081576040519150601f19603f3d011682016040523d82523d6000602084013e611086565b606091505b50915091506110968282866110a1565b979650505050505050565b606083156110b0575081610f72565b8251156110c05782518084602001fd5b8160405162461bcd60e51b815260040161045e919061158a565b80356001600160a01b03811681146110f157600080fd5b919050565b60008083601f840112611107578081fd5b5081356001600160401b0381111561111d578182fd5b6020830191508360208260051b850101111561113857600080fd5b9250929050565b60008083601f840112611150578182fd5b5081356001600160401b03811115611166578182fd5b60208301915083602082850101111561113857600080fd5b600082601f83011261118e578081fd5b81356001600160401b03808211156111a8576111a8611782565b604051601f8301601f19908116603f011681019082821181831017156111d0576111d0611782565b816040528381528660208588010111156111e8578485fd5b8360208701602083013792830160200193909352509392505050565b8035600681106110f157600080fd5b8035600781900b81146110f157600080fd5b600060208284031215611236578081fd5b610f72826110da565b600080600080600060a08688031215611256578081fd5b61125f866110da565b945061126d602087016110da565b935061127b604087016110da565b94979396509394606081013594506080013592915050565b6000806000806000806000806000806000806101208d8f0312156112b5578687fd5b6112be8d6110da565b9b506112cc60208e016110da565b9a506001600160401b0360408e013511156112e5578687fd5b6112f58e60408f01358f016110f6565b909a5098506001600160401b0360608e01351115611311578687fd5b6113218e60608f01358f016110f6565b90985096506001600160401b0360808e0135111561133d578586fd5b61134d8e60808f01358f0161117e565b955061135b60a08e01611204565b94506001600160401b0360c08e01351115611374578384fd5b6113848e60c08f01358f0161113f565b909450925061139560e08e01611213565b91506101008d013590509295989b509295989b509295989b565b6000806000606084860312156113c3578283fd5b6113cc846110da565b92506113da602085016110da565b9150604084013590509250925092565b6000602082840312156113fb578081fd5b81518015158114610f72578182fd5b6001600160a01b03169052565b81835260006020808501945082825b85811015611452576001600160a01b0361143f836110da565b1687529582019590820190600101611426565b509495945050505050565b81835281816020850137506000828201602090810191909152601f909101601f19169091010190565b6000815180845261149e816020860160208601611725565b601f01601f19169290920160200192915050565b600681106114d057634e487b7160e01b600052602160045260246000fd5b9052565b600082516114e6818460208701611725565b9190910192915050565b6001600160a01b0392831681529116602082015260400190565b6001600160a01b038981168252881660208201526040810187905260608101869052600785900b608082015263ffffffff841660a082015261010060c0820181905260009061155b83820186611486565b9150508260e08301529998505050505050505050565b6001600160a01b03929092168252602082015260400190565b602081526000610f726020830184611486565b6000610160808352600d81840152506c073776170416e64556e7772617609c1b6101808301526101a08e60208401528d60408401526115df606084018e61140a565b6115ec608084018d61140a565b8a60a08401528060c08401526116058184018a8c611417565b905082810360e08401526116198189611486565b90506116296101008401886114b2565b82810361012084015261163d81868861145d565b915050826101408301529d9c50505050505050505050505050565b6020808252601c908201527b4574684d616e616765724c6f6769633a2077726f6e672076616c756560201b604082015260600190565b6020808252602b908201527f496e697469616c697a61626c653a20636f6e7472616374206973206e6f74206960408201526a6e697469616c697a696e6760a81b606082015260800190565b8481526080602082015260006116f26080830186611486565b6001600160a01b03949094166040830152506060015292915050565b6000828210156117205761172061176c565b500390565b60005b83811015611740578181015183820152602001611728565b838111156107675750506000910152565b60006000198214156117655761176561176c565b5060010190565b634e487b7160e01b600052601160045260246000fd5b634e487b7160e01b600052604160045260246000fdfe416464726573733a206c6f772d6c6576656c2063616c6c20776974682076616c7565206661696c6564a2646970667358221220f2dc3426af9da2d67ac32ffd7696a9623c37fee37c3171f052cb6c0412aec87964736f6c63430008040033",
  "devdoc": {
    "kind": "dev",
    "methods": {
      "emergencyWithdraw(address,address,uint256)": {
        "details": "Only owner can call this"
      },
      "owner()": {
        "details": "Returns the address of the current owner."
      },
      "paused()": {
        "details": "Returns true if the contract is paused, and false otherwise."
      },
      "renounceOwnership()": {
        "details": "Leaves the contract without owner. It will not be possible to call `onlyOwner` functions. Can only be called by the current owner. NOTE: Renouncing ownership will leave the contract without an owner, thereby disabling any functionality that is only available to the owner."
      },
      "swapAndUnwrap(address,address,uint256[],address[],bytes,uint8,bytes,int64,uint256)": {
        "details": "To find teleBTCAmount, _relayerFeePercentage should be reduced from the inputTokenAmount",
        "params": {
          "_amounts": "[inputTokenAmount, teleBTCAmount]",
          "_exchangeConnector": "Address of exchange connector to be used",
          "_lockerLockingScript": "of locker that should execute the burn request",
          "_path": "of exchanging inputToken to teleBTC (these are Polygon token addresses, so _path[0] != _token)",
          "_relayerFeePercentage": "Fee percentage for relayer",
          "_scriptType": "User script type",
          "_thirdParty": "Id of third party",
          "_token": "Address of input token (on the current chain)",
          "_userScript": "User script hash"
        }
      },
      "transferOwnership(address)": {
        "details": "Transfers ownership of the contract to a new account (`newOwner`). Can only be called by the current owner."
      }
    },
    "version": 1
  },
  "userdoc": {
    "kind": "user",
    "methods": {
      "emergencyWithdraw(address,address,uint256)": {
        "notice": "Withdraws tokens in the emergency case"
      },
      "setAcross(address)": {
        "notice": "Setter for Across"
      },
      "setTargetChainConnectorProxy(address)": {
        "notice": "Setter for TargetChainConnectorProxy"
      },
      "setTargetChainTeleBTC(address)": {
        "notice": "Setter for TargetChainTeleBTC"
      },
      "setWrappedNativeToken(address)": {
        "notice": "Setter for WrappedNativeToken"
      },
      "swapAndUnwrap(address,address,uint256[],address[],bytes,uint8,bytes,int64,uint256)": {
        "notice": "Requests exchanging token for BTC"
      }
    },
    "version": 1
  },
  "storageLayout": {
    "storage": [
      {
        "astId": 326,
        "contract": "contracts/connectors/EthConnectorLogic.sol:EthConnectorLogic",
        "label": "_initialized",
        "offset": 0,
        "slot": "0",
        "type": "t_uint8"
      },
      {
        "astId": 329,
        "contract": "contracts/connectors/EthConnectorLogic.sol:EthConnectorLogic",
        "label": "_initializing",
        "offset": 1,
        "slot": "0",
        "type": "t_bool"
      },
      {
        "astId": 1797,
        "contract": "contracts/connectors/EthConnectorLogic.sol:EthConnectorLogic",
        "label": "__gap",
        "offset": 0,
        "slot": "1",
        "type": "t_array(t_uint256)50_storage"
      },
      {
        "astId": 198,
        "contract": "contracts/connectors/EthConnectorLogic.sol:EthConnectorLogic",
        "label": "_owner",
        "offset": 0,
        "slot": "51",
        "type": "t_address"
      },
      {
        "astId": 318,
        "contract": "contracts/connectors/EthConnectorLogic.sol:EthConnectorLogic",
        "label": "__gap",
        "offset": 0,
        "slot": "52",
        "type": "t_array(t_uint256)49_storage"
      },
      {
        "astId": 631,
        "contract": "contracts/connectors/EthConnectorLogic.sol:EthConnectorLogic",
        "label": "_status",
        "offset": 0,
        "slot": "101",
        "type": "t_uint256"
      },
      {
        "astId": 700,
        "contract": "contracts/connectors/EthConnectorLogic.sol:EthConnectorLogic",
        "label": "__gap",
        "offset": 0,
        "slot": "102",
        "type": "t_array(t_uint256)49_storage"
      },
      {
        "astId": 510,
        "contract": "contracts/connectors/EthConnectorLogic.sol:EthConnectorLogic",
        "label": "_paused",
        "offset": 0,
        "slot": "151",
        "type": "t_bool"
      },
      {
        "astId": 615,
        "contract": "contracts/connectors/EthConnectorLogic.sol:EthConnectorLogic",
        "label": "__gap",
        "offset": 0,
        "slot": "152",
        "type": "t_array(t_uint256)49_storage"
      },
      {
        "astId": 9468,
        "contract": "contracts/connectors/EthConnectorLogic.sol:EthConnectorLogic",
        "label": "across",
        "offset": 0,
        "slot": "201",
        "type": "t_address"
      },
      {
        "astId": 9470,
        "contract": "contracts/connectors/EthConnectorLogic.sol:EthConnectorLogic",
        "label": "targetChainConnectorProxy",
        "offset": 0,
        "slot": "202",
        "type": "t_address"
      },
      {
        "astId": 9472,
        "contract": "contracts/connectors/EthConnectorLogic.sol:EthConnectorLogic",
        "label": "targetChainTeleBTC",
        "offset": 0,
        "slot": "203",
        "type": "t_address"
      },
      {
        "astId": 9474,
        "contract": "contracts/connectors/EthConnectorLogic.sol:EthConnectorLogic",
        "label": "targetChainId",
        "offset": 0,
        "slot": "204",
        "type": "t_uint256"
      },
      {
        "astId": 9476,
        "contract": "contracts/connectors/EthConnectorLogic.sol:EthConnectorLogic",
        "label": "wrappedNativeToken",
        "offset": 0,
        "slot": "205",
        "type": "t_address"
      },
      {
        "astId": 9478,
        "contract": "contracts/connectors/EthConnectorLogic.sol:EthConnectorLogic",
        "label": "uniqueCounter",
        "offset": 0,
        "slot": "206",
        "type": "t_uint256"
      },
      {
        "astId": 9480,
        "contract": "contracts/connectors/EthConnectorLogic.sol:EthConnectorLogic",
        "label": "currChainId",
        "offset": 0,
        "slot": "207",
        "type": "t_uint256"
      }
    ],
    "types": {
      "t_address": {
        "encoding": "inplace",
        "label": "address",
        "numberOfBytes": "20"
      },
      "t_array(t_uint256)49_storage": {
        "base": "t_uint256",
        "encoding": "inplace",
        "label": "uint256[49]",
        "numberOfBytes": "1568"
      },
      "t_array(t_uint256)50_storage": {
        "base": "t_uint256",
        "encoding": "inplace",
        "label": "uint256[50]",
        "numberOfBytes": "1600"
      },
      "t_bool": {
        "encoding": "inplace",
        "label": "bool",
        "numberOfBytes": "1"
      },
      "t_uint256": {
        "encoding": "inplace",
        "label": "uint256",
        "numberOfBytes": "32"
      },
      "t_uint8": {
        "encoding": "inplace",
        "label": "uint8",
        "numberOfBytes": "1"
      }
    }
  }
}