{
  "address": "0xE0e8Ce753346fb381C3BA5D9ecdC41BF213439EC",
  "abi": [
    {
      "inputs": [],
      "name": "ZeroAddress",
      "type": "error"
    },
    {
      "anonymous": false,
      "inputs": [
        {
          "indexed": false,
          "internalType": "address",
          "name": "oldAcross",
          "type": "address"
        },
        {
          "indexed": false,
          "internalType": "address",
          "name": "newAcross",
          "type": "address"
        }
      ],
      "name": "AcrossUpdated",
      "type": "event"
    },
    {
      "anonymous": false,
      "inputs": [
        {
          "indexed": false,
          "internalType": "uint8",
          "name": "version",
          "type": "uint8"
        }
      ],
      "name": "Initialized",
      "type": "event"
    },
    {
      "anonymous": false,
      "inputs": [
        {
          "indexed": false,
          "internalType": "uint256",
          "name": "uniqueCounter",
          "type": "uint256"
        },
        {
          "indexed": false,
          "internalType": "bytes",
          "name": "data",
          "type": "bytes"
        },
        {
          "indexed": false,
          "internalType": "address",
          "name": "sourceChainInputToken",
          "type": "address"
        },
        {
          "indexed": false,
          "internalType": "uint256",
          "name": "amount",
          "type": "uint256"
        }
      ],
      "name": "MsgSent",
      "type": "event"
    },
    {
      "anonymous": false,
      "inputs": [
        {
          "indexed": false,
          "internalType": "uint256",
          "name": "uniqueCounter",
          "type": "uint256"
        },
        {
          "indexed": false,
          "internalType": "bytes",
          "name": "data",
          "type": "bytes"
        },
        {
          "indexed": false,
          "internalType": "address",
          "name": "sourceChainInputToken",
          "type": "address"
        },
        {
          "indexed": false,
          "internalType": "uint256",
          "name": "amount",
          "type": "uint256"
        }
      ],
      "name": "MsgSentRune",
      "type": "event"
    },
    {
      "anonymous": false,
      "inputs": [
        {
          "indexed": true,
          "internalType": "address",
          "name": "previousOwner",
          "type": "address"
        },
        {
          "indexed": true,
          "internalType": "address",
          "name": "newOwner",
          "type": "address"
        }
      ],
      "name": "OwnershipTransferred",
      "type": "event"
    },
    {
      "anonymous": false,
      "inputs": [
        {
          "indexed": false,
          "internalType": "address",
          "name": "account",
          "type": "address"
        }
      ],
      "name": "Paused",
      "type": "event"
    },
    {
      "anonymous": false,
      "inputs": [
        {
          "indexed": false,
          "internalType": "address",
          "name": "oldTargetChainConnector",
          "type": "address"
        },
        {
          "indexed": false,
          "internalType": "address",
          "name": "newTargetChainConnector",
          "type": "address"
        }
      ],
      "name": "TargetChainConnectorUpdated",
      "type": "event"
    },
    {
      "anonymous": false,
      "inputs": [
        {
          "indexed": false,
          "internalType": "address",
          "name": "oldTeleBtc",
          "type": "address"
        },
        {
          "indexed": false,
          "internalType": "address",
          "name": "newTeleBtc",
          "type": "address"
        }
      ],
      "name": "TargetChainTeleBTCUpdated",
      "type": "event"
    },
    {
      "anonymous": false,
      "inputs": [
        {
          "indexed": false,
          "internalType": "address",
          "name": "account",
          "type": "address"
        }
      ],
      "name": "Unpaused",
      "type": "event"
    },
    {
      "anonymous": false,
      "inputs": [
        {
          "indexed": false,
          "internalType": "address",
          "name": "oldWrappedNativeToken",
          "type": "address"
        },
        {
          "indexed": false,
          "internalType": "address",
          "name": "newWrappedNativeToken",
          "type": "address"
        }
      ],
      "name": "WrappedNativeTokenUpdated",
      "type": "event"
    },
    {
      "inputs": [],
      "name": "ETH_ADDR",
      "outputs": [
        {
          "internalType": "address",
          "name": "",
          "type": "address"
        }
      ],
      "stateMutability": "view",
      "type": "function"
    },
    {
      "inputs": [],
      "name": "ONE_HUNDRED_PERCENT",
      "outputs": [
        {
          "internalType": "uint256",
          "name": "",
          "type": "uint256"
        }
      ],
      "stateMutability": "view",
      "type": "function"
    },
    {
      "inputs": [],
      "name": "across",
      "outputs": [
        {
          "internalType": "address",
          "name": "",
          "type": "address"
        }
      ],
      "stateMutability": "view",
      "type": "function"
    },
    {
      "inputs": [],
      "name": "currChainId",
      "outputs": [
        {
          "internalType": "uint256",
          "name": "",
          "type": "uint256"
        }
      ],
      "stateMutability": "view",
      "type": "function"
    },
    {
      "inputs": [
        {
          "internalType": "address",
          "name": "_token",
          "type": "address"
        },
        {
          "internalType": "address",
          "name": "_to",
          "type": "address"
        },
        {
          "internalType": "uint256",
          "name": "_amount",
          "type": "uint256"
        }
      ],
      "name": "emergencyWithdraw",
      "outputs": [],
      "stateMutability": "nonpayable",
      "type": "function"
    },
    {
      "inputs": [
        {
          "internalType": "address",
          "name": "_targetChainTeleBTC",
          "type": "address"
        },
        {
          "internalType": "address",
          "name": "_across",
          "type": "address"
        },
        {
          "internalType": "address",
          "name": "_wrappedNativeToken",
          "type": "address"
        },
        {
          "internalType": "uint256",
          "name": "_targetChainId",
          "type": "uint256"
        },
        {
          "internalType": "uint256",
          "name": "_currChainId",
          "type": "uint256"
        }
      ],
      "name": "initialize",
      "outputs": [],
      "stateMutability": "nonpayable",
      "type": "function"
    },
    {
      "inputs": [],
      "name": "owner",
      "outputs": [
        {
          "internalType": "address",
          "name": "",
          "type": "address"
        }
      ],
      "stateMutability": "view",
      "type": "function"
    },
    {
      "inputs": [],
      "name": "paused",
      "outputs": [
        {
          "internalType": "bool",
          "name": "",
          "type": "bool"
        }
      ],
      "stateMutability": "view",
      "type": "function"
    },
    {
      "inputs": [],
      "name": "renounceOwnership",
      "outputs": [],
      "stateMutability": "nonpayable",
      "type": "function"
    },
    {
      "inputs": [
        {
          "internalType": "address",
          "name": "_across",
          "type": "address"
        }
      ],
      "name": "setAcross",
      "outputs": [],
      "stateMutability": "nonpayable",
      "type": "function"
    },
    {
      "inputs": [
        {
          "internalType": "address",
          "name": "_targetChainConnectorProxy",
          "type": "address"
        }
      ],
      "name": "setTargetChainConnectorProxy",
      "outputs": [],
      "stateMutability": "nonpayable",
      "type": "function"
    },
    {
      "inputs": [
        {
          "internalType": "address",
          "name": "_targetChainTeleBTC",
          "type": "address"
        }
      ],
      "name": "setTargetChainTeleBTC",
      "outputs": [],
      "stateMutability": "nonpayable",
      "type": "function"
    },
    {
      "inputs": [
        {
          "internalType": "address",
          "name": "_wrappedNativeToken",
          "type": "address"
        }
      ],
      "name": "setWrappedNativeToken",
      "outputs": [],
      "stateMutability": "nonpayable",
      "type": "function"
    },
    {
      "inputs": [
        {
          "internalType": "address",
          "name": "_token",
          "type": "address"
        },
        {
          "internalType": "address",
          "name": "_exchangeConnector",
          "type": "address"
        },
        {
          "internalType": "uint256[]",
          "name": "_amounts",
          "type": "uint256[]"
        },
        {
          "internalType": "bool",
          "name": "_isInputFixed",
          "type": "bool"
        },
        {
          "internalType": "address[]",
          "name": "_path",
          "type": "address[]"
        },
        {
          "components": [
            {
              "internalType": "bytes",
              "name": "userScript",
              "type": "bytes"
            },
            {
              "internalType": "enum ScriptTypes",
              "name": "scriptType",
              "type": "uint8"
            },
            {
              "internalType": "bytes",
              "name": "lockerLockingScript",
              "type": "bytes"
            }
          ],
          "internalType": "struct IEthConnector.UserAndLockerScript",
          "name": "_userAndLockerScript",
          "type": "tuple"
        },
        {
          "internalType": "int64",
          "name": "_relayerFeePercentage",
          "type": "int64"
        },
        {
          "internalType": "uint256",
          "name": "_thirdParty",
          "type": "uint256"
        }
      ],
      "name": "swapAndUnwrap",
      "outputs": [],
      "stateMutability": "payable",
      "type": "function"
    },
    {
      "inputs": [
        {
          "internalType": "address",
          "name": "_token",
          "type": "address"
        },
        {
          "internalType": "uint256",
          "name": "_appId",
          "type": "uint256"
        },
        {
          "internalType": "uint256[]",
          "name": "_amounts",
          "type": "uint256[]"
        },
        {
          "internalType": "uint256",
          "name": "_internalId",
          "type": "uint256"
        },
        {
          "internalType": "address[]",
          "name": "_path",
          "type": "address[]"
        },
        {
          "components": [
            {
              "internalType": "bytes",
              "name": "userScript",
              "type": "bytes"
            },
            {
              "internalType": "enum ScriptTypes",
              "name": "scriptType",
              "type": "uint8"
            }
          ],
          "internalType": "struct IEthConnector.UserScript",
          "name": "_userScript",
          "type": "tuple"
        },
        {
          "internalType": "int64",
          "name": "_relayerFeePercentage",
          "type": "int64"
        },
        {
          "internalType": "uint256",
          "name": "_thirdParty",
          "type": "uint256"
        }
      ],
      "name": "swapAndUnwrapRune",
      "outputs": [],
      "stateMutability": "payable",
      "type": "function"
    },
    {
      "inputs": [],
      "name": "targetChainConnectorProxy",
      "outputs": [
        {
          "internalType": "address",
          "name": "",
          "type": "address"
        }
      ],
      "stateMutability": "view",
      "type": "function"
    },
    {
      "inputs": [],
      "name": "targetChainId",
      "outputs": [
        {
          "internalType": "uint256",
          "name": "",
          "type": "uint256"
        }
      ],
      "stateMutability": "view",
      "type": "function"
    },
    {
      "inputs": [],
      "name": "targetChainTeleBTC",
      "outputs": [
        {
          "internalType": "address",
          "name": "",
          "type": "address"
        }
      ],
      "stateMutability": "view",
      "type": "function"
    },
    {
      "inputs": [
        {
          "internalType": "address",
          "name": "newOwner",
          "type": "address"
        }
      ],
      "name": "transferOwnership",
      "outputs": [],
      "stateMutability": "nonpayable",
      "type": "function"
    },
    {
      "inputs": [],
      "name": "uniqueCounter",
      "outputs": [
        {
          "internalType": "uint256",
          "name": "",
          "type": "uint256"
        }
      ],
      "stateMutability": "view",
      "type": "function"
    },
    {
      "inputs": [],
      "name": "unwrapFee",
      "outputs": [
        {
          "internalType": "uint256",
          "name": "",
          "type": "uint256"
        }
      ],
      "stateMutability": "view",
      "type": "function"
    },
    {
      "inputs": [],
      "name": "wrappedNativeToken",
      "outputs": [
        {
          "internalType": "address",
          "name": "",
          "type": "address"
        }
      ],
      "stateMutability": "view",
      "type": "function"
    },
    {
      "stateMutability": "payable",
      "type": "receive"
    }
  ],
  "transactionHash": "0xcf53a8912d352fb0a0fe3a793e57081234e6ffd7fe3c7838ffd21c22edb73006",
  "args": [],
  "numDeployments": 1,
  "solcInputHash": "9fc62f700e06e7f59225fe23592581cc",
  "bytecode": "0x608060405234801561001057600080fd5b50611b65806100206000396000f3fe6080604052600436106101095760003560e01c8063146ffb261461011557806317fcb39b1461013e578063201c527c14610176578063292c1d921461018b5780634d5f71bb146101ab5780635c975abb146101cb57806361be10f2146101ee578063715018a61461020e578063754d1461146102235780637753f47b1461024357806389fa612c1461026b5780638da5cb5b1461027e5780639aed427914610293578063a197cbe6146102a9578063a6b63eb8146102c9578063c4a86b31146102e9578063d4dfc8c314610309578063d83f0fc51461031f578063da058ae314610335578063dd0081c714610355578063e63ea4081461036b578063f2fde38b1461038b57600080fd5b3661011057005b600080fd5b34801561012157600080fd5b5061012b60cc5481565b6040519081526020015b60405180910390f35b34801561014a57600080fd5b5060cd5461015e906001600160a01b031681565b6040516001600160a01b039091168152602001610135565b610189610184366004611401565b6103ab565b005b34801561019757600080fd5b5060c95461015e906001600160a01b031681565b3480156101b757600080fd5b5060ca5461015e906001600160a01b031681565b3480156101d757600080fd5b5060975460ff166040519015158152602001610135565b3480156101fa57600080fd5b50610189610209366004611393565b610576565b34801561021a57600080fd5b5061018961058a565b34801561022f57600080fd5b5061018961023e366004611393565b61059e565b34801561024f57600080fd5b5061015e73eeeeeeeeeeeeeeeeeeeeeeeeeeeeeeeeeeeeeeee81565b61018961027936600461151a565b6105af565b34801561028a57600080fd5b5061015e610703565b34801561029f57600080fd5b5061012b60d05481565b3480156102b557600080fd5b506101896102c4366004611393565b610712565b3480156102d557600080fd5b506101896102e43660046113ad565b610723565b3480156102f557600080fd5b5060cb5461015e906001600160a01b031681565b34801561031557600080fd5b5061012b60ce5481565b34801561032b57600080fd5b5061012b60cf5481565b34801561034157600080fd5b50610189610350366004611393565b610873565b34801561036157600080fd5b5061012b61271081565b34801561037757600080fd5b506101896103863660046114df565b610884565b34801561039757600080fd5b506101896103a6366004611393565b610913565b6103b3610989565b6001600160a01b038a1673eeeeeeeeeeeeeeeeeeeeeeeeeeeeeeeeeeeeeeee141561042c57878760008181106103f957634e487b7160e01b600052603260045260246000fd5b9050602002013534146104275760405162461bcd60e51b815260040161041e90611988565b60405180910390fd5b61044a565b341561044a5760405162461bcd60e51b815260040161041e90611952565b600060ce5460cf546104593390565b8c8c8c600181811061047b57634e487b7160e01b600052603260045260246000fd5b905060200201358b8b8b8b8a6040516020016104a09a999897969594939291906117e4565b60405160208183030381529060405290507fe69fe079b662ff18874cc35b6a12c636af0eca0fd56cbd0cee7ddec918aea82760ce54828d8c8c60008181106104f857634e487b7160e01b600052603260045260246000fd5b9050602002013560405161050f9493929190611a0a565b60405180910390a160ce805490600061052783611ac7565b919050555061055f8b8a8a600081811061055157634e487b7160e01b600052603260045260246000fd5b9050602002013583866109e3565b5061056a6001606555565b50505050505050505050565b61057e610ac1565b61058781610b20565b50565b610592610ac1565b61059c6000610bb2565b565b6105a6610ac1565b61058781610c04565b6105b7610989565b6001600160a01b038a1673eeeeeeeeeeeeeeeeeeeeeeeeeeeeeeeeeeeeeeee14156106345760d0548888600081811061060057634e487b7160e01b600052603260045260246000fd5b905060200201356106119190611a83565b341461062f5760405162461bcd60e51b815260040161041e90611988565b610655565b60d05434146106555760405162461bcd60e51b815260040161041e90611952565b600060ce5460cf546106643390565b8c8c8c600181811061068657634e487b7160e01b600052603260045260246000fd5b905060200201358b8b8b8b8a6040516020016106ab9a99989796959493929190611883565b60405160208183030381529060405290507f049299c569714e65d7d663734f646c72701fb3b0b4928b18a22ef12e71cbb05760ce54828d8c8c60008181106104f857634e487b7160e01b600052603260045260246000fd5b6033546001600160a01b031690565b61071a610ac1565b61058781610c96565b600054610100900460ff16158080156107435750600054600160ff909116105b8061075d5750303b15801561075d575060005460ff166001145b6107c05760405162461bcd60e51b815260206004820152602e60248201527f496e697469616c697a61626c653a20636f6e747261637420697320616c72656160448201526d191e481a5b9a5d1a585b1a5e995960921b606482015260840161041e565b6000805460ff1916600117905580156107e3576000805461ff0019166101001790555b6107eb610d28565b6107f3610d57565b6107fb610d86565b61080486610c04565b61080d85610b20565b61081684610db5565b60cc83905560cf829055600060ce55801561086b576000805461ff0019169055604051600181527f7f26b83ff96e1f2b6a682f133852f6798a09c465da95921460cefb38474024989060200160405180910390a15b505050505050565b61087b610ac1565b61058781610db5565b61088c610ac1565b6001600160a01b03831673eeeeeeeeeeeeeeeeeeeeeeeeeeeeeeeeeeeeeeee14156108fa576040516001600160a01b038316908290600081818185875af1925050503d806000811461086b576040519150601f19603f3d011682016040523d82523d6000602084013e61086b565b61090e6001600160a01b0384168383610e47565b505050565b61091b610ac1565b6001600160a01b0381166109805760405162461bcd60e51b815260206004820152602660248201527f4f776e61626c653a206e6577206f776e657220697320746865207a65726f206160448201526564647265737360d01b606482015260840161041e565b61058781610bb2565b600260655414156109dc5760405162461bcd60e51b815260206004820152601f60248201527f5265656e7472616e637947756172643a207265656e7472616e742063616c6c00604482015260640161041e565b6002606555565b6001600160a01b03841673eeeeeeeeeeeeeeeeeeeeeeeeeeeeeeeeeeeeeeee1415610a1b5760cd546001600160a01b03169350610a4a565b610a306001600160a01b038516333086610e9d565b60c954610a4a906001600160a01b03868116911685610edb565b60c95460ca5460cc54604051610ab3936001600160a01b0390811693610a839391169189918991889042908b9060001990602401611751565b60408051601f198184030181529190526020810180516001600160e01b0316631186ec3360e01b17905234610fed565b5050505050565b6001606555565b33610aca610703565b6001600160a01b03161461059c5760405162461bcd60e51b815260206004820181905260248201527f4f776e61626c653a2063616c6c6572206973206e6f7420746865206f776e6572604482015260640161041e565b806001600160a01b038116610b485760405163d92e233d60e01b815260040160405180910390fd5b60c9546040517f06e5f2ca1234f717a2031f662608c02182d4f8bdc3dab013ec4c04eb9755313291610b87916001600160a01b03909116908590611737565b60405180910390a15060c980546001600160a01b0319166001600160a01b0392909216919091179055565b603380546001600160a01b038381166001600160a01b0319831681179093556040519116919082907f8be0079c531659141344cd1fd0a4f28419497f9722a3daafe3b4186f6b6457e090600090a35050565b806001600160a01b038116610c2c5760405163d92e233d60e01b815260040160405180910390fd5b60cb546040517f37b4bc62091d0acd3300990bd241557cbc8040fde4cf701b91d8bac7a69e016091610c6b916001600160a01b03909116908590611737565b60405180910390a15060cb80546001600160a01b0319166001600160a01b0392909216919091179055565b806001600160a01b038116610cbe5760405163d92e233d60e01b815260040160405180910390fd5b60ca546040517fbac4f45eeeeb3c9688d046eddcdd28783777a2aa7beffcdf0acb76487d79636491610cfd916001600160a01b03909116908590611737565b60405180910390a15060ca80546001600160a01b0319166001600160a01b0392909216919091179055565b600054610100900460ff16610d4f5760405162461bcd60e51b815260040161041e906119bf565b61059c61101d565b600054610100900460ff16610d7e5760405162461bcd60e51b815260040161041e906119bf565b61059c61104d565b600054610100900460ff16610dad5760405162461bcd60e51b815260040161041e906119bf565b61059c611074565b806001600160a01b038116610ddd5760405163d92e233d60e01b815260040160405180910390fd5b60cd546040517fffd9582901c27177dbd18194ae8017f10d8b21f98a0da2ea5197e0b20dc13d7091610e1c916001600160a01b03909116908590611737565b60405180910390a15060cd80546001600160a01b0319166001600160a01b0392909216919091179055565b61090e8363a9059cbb60e01b8484604051602401610e669291906117b8565b60408051601f198184030181529190526020810180516001600160e01b03166001600160e01b0319909316929092179091526110a7565b6040516001600160a01b0380851660248301528316604482015260648101829052610ed59085906323b872dd60e01b90608401610e66565b50505050565b801580610f635750604051636eb1769f60e11b81526001600160a01b0384169063dd62ed3e90610f119030908690600401611737565b60206040518083038186803b158015610f2957600080fd5b505afa158015610f3d573d6000803e3d6000fd5b505050506040513d601f19601f82011682018060405250810190610f6191906115dc565b155b610fce5760405162461bcd60e51b815260206004820152603660248201527f5361666545524332303a20617070726f76652066726f6d206e6f6e2d7a65726f60448201527520746f206e6f6e2d7a65726f20616c6c6f77616e636560501b606482015260840161041e565b61090e8363095ea7b360e01b8484604051602401610e669291906117b8565b6060611013848484604051806060016040528060298152602001611b0760299139611179565b90505b9392505050565b600054610100900460ff166110445760405162461bcd60e51b815260040161041e906119bf565b61059c33610bb2565b600054610100900460ff16610aba5760405162461bcd60e51b815260040161041e906119bf565b600054610100900460ff1661109b5760405162461bcd60e51b815260040161041e906119bf565b6097805460ff19169055565b60006110fc826040518060400160405280602081526020017f5361666545524332303a206c6f772d6c6576656c2063616c6c206661696c6564815250856001600160a01b03166112a19092919063ffffffff16565b80519091501561090e578080602001905181019061111a91906115c0565b61090e5760405162461bcd60e51b815260206004820152602a60248201527f5361666545524332303a204552433230206f7065726174696f6e20646964206e6044820152691bdd081cdd58d8d9595960b21b606482015260840161041e565b6060824710156111da5760405162461bcd60e51b815260206004820152602660248201527f416464726573733a20696e73756666696369656e742062616c616e636520666f6044820152651c8818d85b1b60d21b606482015260840161041e565b843b6112285760405162461bcd60e51b815260206004820152601d60248201527f416464726573733a2063616c6c20746f206e6f6e2d636f6e7472616374000000604482015260640161041e565b600080866001600160a01b03168587604051611244919061171b565b60006040518083038185875af1925050503d8060008114611281576040519150601f19603f3d011682016040523d82523d6000602084013e611286565b606091505b50915091506112968282866112b0565b979650505050505050565b60606110138484600085611179565b606083156112bf575081611016565b8251156112cf5782518084602001fd5b8160405162461bcd60e51b815260040161041e91906117d1565b80356001600160a01b038116811461130057600080fd5b919050565b60008083601f840112611316578182fd5b5081356001600160401b0381111561132c578182fd5b6020830191508360208260051b850101111561134757600080fd5b9250929050565b803561130081611af8565b8035600781900b811461130057600080fd5b60006060828403121561137c578081fd5b50919050565b60006040828403121561137c578081fd5b6000602082840312156113a4578081fd5b611016826112e9565b600080600080600060a086880312156113c4578081fd5b6113cd866112e9565b94506113db602087016112e9565b93506113e9604087016112e9565b94979396509394606081013594506080013592915050565b6000806000806000806000806000806101008b8d031215611420578485fd5b6114298b6112e9565b995061143760208c016112e9565b985060408b01356001600160401b0380821115611452578687fd5b61145e8e838f01611305565b909a50985088915061147260608e0161134e565b975060808d0135915080821115611487578687fd5b6114938e838f01611305565b909750955060a08d01359150808211156114ab578485fd5b506114b88d828e0161136b565b9350506114c760c08c01611359565b915060e08b013590509295989b9194979a5092959850565b6000806000606084860312156114f3578283fd5b6114fc846112e9565b925061150a602085016112e9565b9150604084013590509250925092565b6000806000806000806000806000806101008b8d031215611539578586fd5b6115428b6112e9565b995060208b0135985060408b01356001600160401b0380821115611564578788fd5b6115708e838f01611305565b909a50985060608d0135975060808d013591508082111561158f578687fd5b61159b8e838f01611305565b909750955060a08d01359150808211156115b3578485fd5b506114b88d828e01611382565b6000602082840312156115d1578081fd5b815161101681611af8565b6000602082840312156115ed578081fd5b5051919050565b81835260006020808501945082825b8581101561162f576001600160a01b0361161c836112e9565b1687529582019590820190600101611603565b509495945050505050565b81835281816020850137506000828201602090810191909152601f909101601f19169091010190565b6000815180845261167b816020860160208601611a9b565b601f01601f19169290920160200192915050565b600681106116ad57634e487b7160e01b600052602160045260246000fd5b9052565b60006116bd8283611a3f565b606085526116cf60608601828461163a565b9150506020830135600681106116e3578283fd5b6116f0602086018261168f565b506116fe6040840184611a3f565b858303604087015261171183828461163a565b9695505050505050565b6000825161172d818460208701611a9b565b9190910192915050565b6001600160a01b0392831681529116602082015260400190565b6001600160a01b038981168252881660208201526040810187905260608101869052600785900b608082015263ffffffff841660a082015261010060c082018190526000906117a283820186611663565b9150508260e08301529998505050505050505050565b6001600160a01b03929092168252602082015260400190565b6020815260006110166020830184611663565b610140808252600d908201526c073776170416e64556e7772617609c1b610160820152602081018b9052604081018a90526001600160a01b0389811660608301528816608082015260a0810187905285151560c082015261018060e0820181905260009061185581840187896115f4565b905082810361010084015261186a81866116b1565b915050826101208301529b9a5050505050505050505050565b6000610140808352601181840152507073776170416e64556e7772617052756e6560781b6101608301526101808c60208401528b604084015260018060a01b038b1660608401528960808401528860a08401528760c08401528060e08401526118ef81840187896115f4565b90508281036101008401526119048586611a3f565b6040835261191660408401828461163a565b91505060208601356006811061192a578384fd5b611937602084018261168f565b506101209390930193909352509a9950505050505050505050565b6020808252601c908201527b457468436f6e6e6563746f724c6f6769633a2077726f6e672066656560201b604082015260600190565b6020808252601e908201527f457468436f6e6e6563746f724c6f6769633a2077726f6e672076616c75650000604082015260600190565b6020808252602b908201527f496e697469616c697a61626c653a20636f6e7472616374206973206e6f74206960408201526a6e697469616c697a696e6760a81b606082015260800190565b848152608060208201526000611a236080830186611663565b6001600160a01b03949094166040830152506060015292915050565b6000808335601e19843603018112611a55578283fd5b83016020810192503590506001600160401b03811115611a7457600080fd5b80360383131561134757600080fd5b60008219821115611a9657611a96611ae2565b500190565b60005b83811015611ab6578181015183820152602001611a9e565b83811115610ed55750506000910152565b6000600019821415611adb57611adb611ae2565b5060010190565b634e487b7160e01b600052601160045260246000fd5b801515811461058757600080fdfe416464726573733a206c6f772d6c6576656c2063616c6c20776974682076616c7565206661696c6564a2646970667358221220f17b3618134e2874ae9c90cfbe1d4071d2b91d3f4450dbfbe7f0fd211bf767b564736f6c63430008040033",
  "devdoc": {
    "kind": "dev",
    "methods": {
      "emergencyWithdraw(address,address,uint256)": {
        "details": "Only owner can call this"
      },
      "owner()": {
        "details": "Returns the address of the current owner."
      },
      "paused()": {
        "details": "Returns true if the contract is paused, and false otherwise."
      },
      "renounceOwnership()": {
        "details": "Leaves the contract without owner. It will not be possible to call `onlyOwner` functions. Can only be called by the current owner. NOTE: Renouncing ownership will leave the contract without an owner, thereby disabling any functionality that is only available to the owner."
      },
      "swapAndUnwrap(address,address,uint256[],bool,address[],(bytes,uint8,bytes),int64,uint256)": {
        "details": "To find teleBTCAmount, _relayerFeePercentage should be reduced from the inputTokenAmount",
        "params": {
          "_amounts": "[inputTokenAmount, teleBTCAmount]",
          "_exchangeConnector": "Address of exchange connector to be used",
          "_path": "of exchanging inputToken to teleBTC (these are Polygon token addresses, so _path[0] != _token)",
          "_relayerFeePercentage": "Fee percentage for relayer",
          "_thirdParty": "Id of third party",
          "_token": "Address of input token (on the current chain)"
        }
      },
      "swapAndUnwrapRune(address,uint256,uint256[],uint256,address[],(bytes,uint8),int64,uint256)": {
        "details": "To find runeAmount, _relayerFeePercentage should be reduced from the inputTokenAmount",
        "params": {
          "_token": "Address of input token (on the current chain)"
        }
      },
      "transferOwnership(address)": {
        "details": "Transfers ownership of the contract to a new account (`newOwner`). Can only be called by the current owner."
      }
    },
    "version": 1
  },
  "userdoc": {
    "kind": "user",
    "methods": {
      "emergencyWithdraw(address,address,uint256)": {
        "notice": "Withdraw tokens in the emergency case"
      },
      "setAcross(address)": {
        "notice": "Setter for Across"
      },
      "setTargetChainConnectorProxy(address)": {
        "notice": "Setter for TargetChainConnectorProxy"
      },
      "setTargetChainTeleBTC(address)": {
        "notice": "Setter for TargetChainTeleBTC"
      },
      "setWrappedNativeToken(address)": {
        "notice": "Setter for WrappedNativeToken"
      },
      "swapAndUnwrap(address,address,uint256[],bool,address[],(bytes,uint8,bytes),int64,uint256)": {
        "notice": "Request exchanging token for BTC"
      },
      "swapAndUnwrapRune(address,uint256,uint256[],uint256,address[],(bytes,uint8),int64,uint256)": {
        "notice": "Request exchanging token for RUNE"
      }
    },
    "version": 1
  },
  "storageLayout": {
    "storage": [
      {
        "astId": 139,
        "contract": "contracts/chain_connectors/EthConnectorLogic.sol:EthConnectorLogic",
        "label": "_initialized",
        "offset": 0,
        "slot": "0",
        "type": "t_uint8"
      },
      {
        "astId": 142,
        "contract": "contracts/chain_connectors/EthConnectorLogic.sol:EthConnectorLogic",
        "label": "_initializing",
        "offset": 1,
        "slot": "0",
        "type": "t_bool"
      },
      {
        "astId": 894,
        "contract": "contracts/chain_connectors/EthConnectorLogic.sol:EthConnectorLogic",
        "label": "__gap",
        "offset": 0,
        "slot": "1",
        "type": "t_array(t_uint256)50_storage"
      },
      {
        "astId": 11,
        "contract": "contracts/chain_connectors/EthConnectorLogic.sol:EthConnectorLogic",
        "label": "_owner",
        "offset": 0,
        "slot": "51",
        "type": "t_address"
      },
      {
        "astId": 131,
        "contract": "contracts/chain_connectors/EthConnectorLogic.sol:EthConnectorLogic",
        "label": "__gap",
        "offset": 0,
        "slot": "52",
        "type": "t_array(t_uint256)49_storage"
      },
      {
        "astId": 444,
        "contract": "contracts/chain_connectors/EthConnectorLogic.sol:EthConnectorLogic",
        "label": "_status",
        "offset": 0,
        "slot": "101",
        "type": "t_uint256"
      },
      {
        "astId": 513,
        "contract": "contracts/chain_connectors/EthConnectorLogic.sol:EthConnectorLogic",
        "label": "__gap",
        "offset": 0,
        "slot": "102",
        "type": "t_array(t_uint256)49_storage"
      },
      {
        "astId": 323,
        "contract": "contracts/chain_connectors/EthConnectorLogic.sol:EthConnectorLogic",
        "label": "_paused",
        "offset": 0,
        "slot": "151",
        "type": "t_bool"
      },
      {
        "astId": 428,
        "contract": "contracts/chain_connectors/EthConnectorLogic.sol:EthConnectorLogic",
        "label": "__gap",
        "offset": 0,
        "slot": "152",
        "type": "t_array(t_uint256)49_storage"
      },
      {
        "astId": 2031,
        "contract": "contracts/chain_connectors/EthConnectorLogic.sol:EthConnectorLogic",
        "label": "across",
        "offset": 0,
        "slot": "201",
        "type": "t_address"
      },
      {
        "astId": 2033,
        "contract": "contracts/chain_connectors/EthConnectorLogic.sol:EthConnectorLogic",
        "label": "targetChainConnectorProxy",
        "offset": 0,
        "slot": "202",
        "type": "t_address"
      },
      {
        "astId": 2035,
        "contract": "contracts/chain_connectors/EthConnectorLogic.sol:EthConnectorLogic",
        "label": "targetChainTeleBTC",
        "offset": 0,
        "slot": "203",
        "type": "t_address"
      },
      {
        "astId": 2037,
        "contract": "contracts/chain_connectors/EthConnectorLogic.sol:EthConnectorLogic",
        "label": "targetChainId",
        "offset": 0,
        "slot": "204",
        "type": "t_uint256"
      },
      {
        "astId": 2039,
        "contract": "contracts/chain_connectors/EthConnectorLogic.sol:EthConnectorLogic",
        "label": "wrappedNativeToken",
        "offset": 0,
        "slot": "205",
        "type": "t_address"
      },
      {
        "astId": 2041,
        "contract": "contracts/chain_connectors/EthConnectorLogic.sol:EthConnectorLogic",
        "label": "uniqueCounter",
        "offset": 0,
        "slot": "206",
        "type": "t_uint256"
      },
      {
        "astId": 2043,
        "contract": "contracts/chain_connectors/EthConnectorLogic.sol:EthConnectorLogic",
        "label": "currChainId",
        "offset": 0,
        "slot": "207",
        "type": "t_uint256"
      },
      {
        "astId": 2045,
        "contract": "contracts/chain_connectors/EthConnectorLogic.sol:EthConnectorLogic",
        "label": "unwrapFee",
        "offset": 0,
        "slot": "208",
        "type": "t_uint256"
      }
    ],
    "types": {
      "t_address": {
        "encoding": "inplace",
        "label": "address",
        "numberOfBytes": "20"
      },
      "t_array(t_uint256)49_storage": {
        "base": "t_uint256",
        "encoding": "inplace",
        "label": "uint256[49]",
        "numberOfBytes": "1568"
      },
      "t_array(t_uint256)50_storage": {
        "base": "t_uint256",
        "encoding": "inplace",
        "label": "uint256[50]",
        "numberOfBytes": "1600"
      },
      "t_bool": {
        "encoding": "inplace",
        "label": "bool",
        "numberOfBytes": "1"
      },
      "t_uint256": {
        "encoding": "inplace",
        "label": "uint256",
        "numberOfBytes": "32"
      },
      "t_uint8": {
        "encoding": "inplace",
        "label": "uint8",
        "numberOfBytes": "1"
      }
    }
  }
}