{
  "address": "0xDd833309e9E9EAd3a7c4520D53e02e685C3751eB",
  "abi": [
    {
      "inputs": [],
      "name": "ZeroAddress",
      "type": "error"
    },
    {
      "anonymous": false,
      "inputs": [
        {
          "indexed": false,
          "internalType": "address",
          "name": "oldAcross",
          "type": "address"
        },
        {
          "indexed": false,
          "internalType": "address",
          "name": "newAcross",
          "type": "address"
        }
      ],
      "name": "AcrossUpdated",
      "type": "event"
    },
    {
      "anonymous": false,
      "inputs": [
        {
          "indexed": false,
          "internalType": "uint8",
          "name": "version",
          "type": "uint8"
        }
      ],
      "name": "Initialized",
      "type": "event"
    },
    {
      "anonymous": false,
      "inputs": [
        {
          "indexed": false,
          "internalType": "uint256",
          "name": "uniqueCounter",
          "type": "uint256"
        },
        {
          "indexed": false,
          "internalType": "bytes",
          "name": "data",
          "type": "bytes"
        },
        {
          "indexed": false,
          "internalType": "address",
          "name": "sourceChainInputToken",
          "type": "address"
        },
        {
          "indexed": false,
          "internalType": "uint256",
          "name": "amount",
          "type": "uint256"
        }
      ],
      "name": "MsgSent",
      "type": "event"
    },
    {
      "anonymous": false,
      "inputs": [
        {
          "indexed": true,
          "internalType": "address",
          "name": "previousOwner",
          "type": "address"
        },
        {
          "indexed": true,
          "internalType": "address",
          "name": "newOwner",
          "type": "address"
        }
      ],
      "name": "OwnershipTransferred",
      "type": "event"
    },
    {
      "anonymous": false,
      "inputs": [
        {
          "indexed": false,
          "internalType": "address",
          "name": "account",
          "type": "address"
        }
      ],
      "name": "Paused",
      "type": "event"
    },
    {
      "anonymous": false,
      "inputs": [
        {
          "indexed": false,
          "internalType": "address",
          "name": "oldTargetChainConnector",
          "type": "address"
        },
        {
          "indexed": false,
          "internalType": "address",
          "name": "newTargetChainConnector",
          "type": "address"
        }
      ],
      "name": "TargetChainConnectorUpdated",
      "type": "event"
    },
    {
      "anonymous": false,
      "inputs": [
        {
          "indexed": false,
          "internalType": "address",
          "name": "oldTeleBtc",
          "type": "address"
        },
        {
          "indexed": false,
          "internalType": "address",
          "name": "newTeleBtc",
          "type": "address"
        }
      ],
      "name": "TargetChainTeleBTCUpdated",
      "type": "event"
    },
    {
      "anonymous": false,
      "inputs": [
        {
          "indexed": false,
          "internalType": "address",
          "name": "account",
          "type": "address"
        }
      ],
      "name": "Unpaused",
      "type": "event"
    },
    {
      "anonymous": false,
      "inputs": [
        {
          "indexed": false,
          "internalType": "address",
          "name": "oldWrappedNativeToken",
          "type": "address"
        },
        {
          "indexed": false,
          "internalType": "address",
          "name": "newWrappedNativeToken",
          "type": "address"
        }
      ],
      "name": "WrappedNativeTokenUpdated",
      "type": "event"
    },
    {
      "inputs": [],
      "name": "ETH_ADDR",
      "outputs": [
        {
          "internalType": "address",
          "name": "",
          "type": "address"
        }
      ],
      "stateMutability": "view",
      "type": "function"
    },
    {
      "inputs": [],
      "name": "ONE_HUNDRED_PERCENT",
      "outputs": [
        {
          "internalType": "uint256",
          "name": "",
          "type": "uint256"
        }
      ],
      "stateMutability": "view",
      "type": "function"
    },
    {
      "inputs": [],
      "name": "across",
      "outputs": [
        {
          "internalType": "address",
          "name": "",
          "type": "address"
        }
      ],
      "stateMutability": "view",
      "type": "function"
    },
    {
      "inputs": [],
      "name": "currChainId",
      "outputs": [
        {
          "internalType": "uint256",
          "name": "",
          "type": "uint256"
        }
      ],
      "stateMutability": "view",
      "type": "function"
    },
    {
      "inputs": [
        {
          "internalType": "address",
          "name": "_token",
          "type": "address"
        },
        {
          "internalType": "address",
          "name": "_to",
          "type": "address"
        },
        {
          "internalType": "uint256",
          "name": "_amount",
          "type": "uint256"
        }
      ],
      "name": "emergencyWithdraw",
      "outputs": [],
      "stateMutability": "nonpayable",
      "type": "function"
    },
    {
      "inputs": [
        {
          "internalType": "address",
          "name": "_targetChainTeleBTC",
          "type": "address"
        },
        {
          "internalType": "address",
          "name": "_across",
          "type": "address"
        },
        {
          "internalType": "address",
          "name": "_wrappedNativeToken",
          "type": "address"
        },
        {
          "internalType": "uint256",
          "name": "_targetChainId",
          "type": "uint256"
        },
        {
          "internalType": "uint256",
          "name": "_currChainId",
          "type": "uint256"
        }
      ],
      "name": "initialize",
      "outputs": [],
      "stateMutability": "nonpayable",
      "type": "function"
    },
    {
      "inputs": [],
      "name": "owner",
      "outputs": [
        {
          "internalType": "address",
          "name": "",
          "type": "address"
        }
      ],
      "stateMutability": "view",
      "type": "function"
    },
    {
      "inputs": [],
      "name": "paused",
      "outputs": [
        {
          "internalType": "bool",
          "name": "",
          "type": "bool"
        }
      ],
      "stateMutability": "view",
      "type": "function"
    },
    {
      "inputs": [],
      "name": "renounceOwnership",
      "outputs": [],
      "stateMutability": "nonpayable",
      "type": "function"
    },
    {
      "inputs": [
        {
          "internalType": "address",
          "name": "_across",
          "type": "address"
        }
      ],
      "name": "setAcross",
      "outputs": [],
      "stateMutability": "nonpayable",
      "type": "function"
    },
    {
      "inputs": [
        {
          "internalType": "address",
          "name": "_targetChainConnectorProxy",
          "type": "address"
        }
      ],
      "name": "setTargetChainConnectorProxy",
      "outputs": [],
      "stateMutability": "nonpayable",
      "type": "function"
    },
    {
      "inputs": [
        {
          "internalType": "address",
          "name": "_targetChainTeleBTC",
          "type": "address"
        }
      ],
      "name": "setTargetChainTeleBTC",
      "outputs": [],
      "stateMutability": "nonpayable",
      "type": "function"
    },
    {
      "inputs": [
        {
          "internalType": "address",
          "name": "_wrappedNativeToken",
          "type": "address"
        }
      ],
      "name": "setWrappedNativeToken",
      "outputs": [],
      "stateMutability": "nonpayable",
      "type": "function"
    },
    {
      "inputs": [
        {
          "internalType": "address",
          "name": "_token",
          "type": "address"
        },
        {
          "internalType": "address",
          "name": "_exchangeConnector",
          "type": "address"
        },
        {
          "internalType": "uint256[]",
          "name": "_amounts",
          "type": "uint256[]"
        },
        {
          "internalType": "bool",
          "name": "_isInputFixed",
          "type": "bool"
        },
        {
          "internalType": "address[]",
          "name": "_path",
          "type": "address[]"
        },
        {
          "components": [
            {
              "internalType": "bytes",
              "name": "userScript",
              "type": "bytes"
            },
            {
              "internalType": "enum ScriptTypes",
              "name": "scriptType",
              "type": "uint8"
            },
            {
              "internalType": "bytes",
              "name": "lockerLockingScript",
              "type": "bytes"
            }
          ],
          "internalType": "struct IEthConnector.UserAndLockerScript",
          "name": "_scripts",
          "type": "tuple"
        },
        {
          "internalType": "int64",
          "name": "_relayerFeePercentage",
          "type": "int64"
        },
        {
          "internalType": "uint256",
          "name": "_thirdParty",
          "type": "uint256"
        }
      ],
      "name": "swapAndUnwrap",
      "outputs": [],
      "stateMutability": "payable",
      "type": "function"
    },
    {
      "inputs": [],
      "name": "targetChainConnectorProxy",
      "outputs": [
        {
          "internalType": "address",
          "name": "",
          "type": "address"
        }
      ],
      "stateMutability": "view",
      "type": "function"
    },
    {
      "inputs": [],
      "name": "targetChainId",
      "outputs": [
        {
          "internalType": "uint256",
          "name": "",
          "type": "uint256"
        }
      ],
      "stateMutability": "view",
      "type": "function"
    },
    {
      "inputs": [],
      "name": "targetChainTeleBTC",
      "outputs": [
        {
          "internalType": "address",
          "name": "",
          "type": "address"
        }
      ],
      "stateMutability": "view",
      "type": "function"
    },
    {
      "inputs": [
        {
          "internalType": "address",
          "name": "newOwner",
          "type": "address"
        }
      ],
      "name": "transferOwnership",
      "outputs": [],
      "stateMutability": "nonpayable",
      "type": "function"
    },
    {
      "inputs": [],
      "name": "uniqueCounter",
      "outputs": [
        {
          "internalType": "uint256",
          "name": "",
          "type": "uint256"
        }
      ],
      "stateMutability": "view",
      "type": "function"
    },
    {
      "inputs": [],
      "name": "wrappedNativeToken",
      "outputs": [
        {
          "internalType": "address",
          "name": "",
          "type": "address"
        }
      ],
      "stateMutability": "view",
      "type": "function"
    },
    {
      "stateMutability": "payable",
      "type": "receive"
    }
  ],
  "transactionHash": "0x09e8369a4bdaa2243079659655407966967706bb6728c590ebe284ed4bcba8ee",
  "args": [],
  "numDeployments": 1,
  "solcInputHash": "d87e2a3ed034a2a1cc9735132711be52",
  "bytecode": "0x608060405234801561001057600080fd5b5061174f806100206000396000f3fe6080604052600436106100f35760003560e01c8063146ffb26146100ff57806317fcb39b14610128578063201c527c14610160578063292c1d92146101755780634d5f71bb146101955780635c975abb146101b557806361be10f2146101d8578063715018a6146101f8578063754d14611461020d5780637753f47b1461022d5780638da5cb5b14610255578063a197cbe61461026a578063a6b63eb81461028a578063c4a86b31146102aa578063d4dfc8c3146102ca578063d83f0fc5146102e0578063da058ae3146102f6578063dd0081c714610316578063e63ea4081461032c578063f2fde38b1461034c57600080fd5b366100fa57005b600080fd5b34801561010b57600080fd5b5061011560cc5481565b6040519081526020015b60405180910390f35b34801561013457600080fd5b5060cd54610148906001600160a01b031681565b6040516001600160a01b03909116815260200161011f565b61017361016e3660046111db565b61036c565b005b34801561018157600080fd5b5060c954610148906001600160a01b031681565b3480156101a157600080fd5b5060ca54610148906001600160a01b031681565b3480156101c157600080fd5b5060975460ff16604051901515815260200161011f565b3480156101e457600080fd5b506101736101f336600461116d565b6104ac565b34801561020457600080fd5b506101736104c0565b34801561021957600080fd5b5061017361022836600461116d565b6104d4565b34801561023957600080fd5b5061014873eeeeeeeeeeeeeeeeeeeeeeeeeeeeeeeeeeeeeeee81565b34801561026157600080fd5b506101486104e5565b34801561027657600080fd5b5061017361028536600461116d565b6104f4565b34801561029657600080fd5b506101736102a5366004611187565b610505565b3480156102b657600080fd5b5060cb54610148906001600160a01b031681565b3480156102d657600080fd5b5061011560ce5481565b3480156102ec57600080fd5b5061011560cf5481565b34801561030257600080fd5b5061017361031136600461116d565b61065a565b34801561032257600080fd5b5061011561271081565b34801561033857600080fd5b506101736103473660046112b9565b61066b565b34801561035857600080fd5b5061017361036736600461116d565b610767565b6103746107dd565b61038088888787610837565b600060ce5460cf5461038f3390565b8c8c8c60018181106103b157634e487b7160e01b600052603260045260246000fd5b905060200201358b8b8b8b8a6040516020016103d69a999897969594939291906114d5565b60405160208183030381529060405290507fe69fe079b662ff18874cc35b6a12c636af0eca0fd56cbd0cee7ddec918aea82760ce54828d8c8c600081811061042e57634e487b7160e01b600052603260045260246000fd5b9050602002013560405161044594939291906115f5565b60405180910390a160ce805490600061045d836116b1565b91905055506104958b8a8a600081811061048757634e487b7160e01b600052603260045260246000fd5b905060200201358386610928565b506104a06001606555565b50505050505050505050565b6104b4610b33565b6104bd81610b92565b50565b6104c8610b33565b6104d26000610c24565b565b6104dc610b33565b6104bd81610c76565b6033546001600160a01b031690565b6104fc610b33565b6104bd81610d08565b600054610100900460ff16158080156105255750600054600160ff909116105b8061053f5750303b15801561053f575060005460ff166001145b6105a75760405162461bcd60e51b815260206004820152602e60248201527f496e697469616c697a61626c653a20636f6e747261637420697320616c72656160448201526d191e481a5b9a5d1a585b1a5e995960921b60648201526084015b60405180910390fd5b6000805460ff1916600117905580156105ca576000805461ff0019166101001790555b6105d2610d9a565b6105da610dc9565b6105e2610df8565b6105eb86610c76565b6105f485610b92565b6105fd84610e27565b60cc83905560cf829055600060ce558015610652576000805461ff0019169055604051600181527f7f26b83ff96e1f2b6a682f133852f6798a09c465da95921460cefb38474024989060200160405180910390a15b505050505050565b610662610b33565b6104bd81610e27565b610673610b33565b6001600160a01b03831673eeeeeeeeeeeeeeeeeeeeeeeeeeeeeeeeeeeeeeee14156106e1576040516001600160a01b038316908290600081818185875af1925050503d8060008114610652576040519150601f19603f3d011682016040523d82523d6000602084013e610652565b60405163a9059cbb60e01b81526001600160a01b0384169063a9059cbb9061070f90859085906004016114a9565b602060405180830381600087803b15801561072957600080fd5b505af115801561073d573d6000803e3d6000fd5b505050506040513d601f19601f8201168201806040525081019061076191906112f4565b50505050565b61076f610b33565b6001600160a01b0381166107d45760405162461bcd60e51b815260206004820152602660248201527f4f776e61626c653a206e6577206f776e657220697320746865207a65726f206160448201526564647265737360d01b606482015260840161059e565b6104bd81610c24565b600260655414156108305760405162461bcd60e51b815260206004820152601f60248201527f5265656e7472616e637947756172643a207265656e7472616e742063616c6c00604482015260640161059e565b6002606555565b60cb546001600160a01b0316828261085060018261166e565b81811061086d57634e487b7160e01b600052603260045260246000fd5b9050602002016020810190610882919061116d565b6001600160a01b0316146108d85760405162461bcd60e51b815260206004820152601d60248201527f4574684d616e616765724c6f6769633a20696e76616c69642070617468000000604482015260640161059e565b600283146107615760405162461bcd60e51b815260206004820152601e60248201527f4574684d616e616765724c6f6769633a2077726f6e6720616d6f756e74730000604482015260640161059e565b6001600160a01b03841673eeeeeeeeeeeeeeeeeeeeeeeeeeeeeeeeeeeeeeee141561097f5782341461096c5760405162461bcd60e51b815260040161059e90611574565b60cd546001600160a01b03169350610abc565b341561099d5760405162461bcd60e51b815260040161059e90611574565b6001600160a01b0384166323b872dd336040516001600160e01b031960e084901b1681526001600160a01b03909116600482015230602482015260448101869052606401602060405180830381600087803b1580156109fb57600080fd5b505af1158015610a0f573d6000803e3d6000fd5b505050506040513d601f19601f82011682018060405250810190610a3391906112f4565b5060c95460405163095ea7b360e01b81526001600160a01b038681169263095ea7b392610a68929091169087906004016114a9565b602060405180830381600087803b158015610a8257600080fd5b505af1158015610a96573d6000803e3d6000fd5b505050506040513d601f19601f82011682018060405250810190610aba91906112f4565b505b60c95460ca5460cc54604051610b25936001600160a01b0390811693610af59391169189918991889042908b9060001990602401611442565b60408051601f198184030181529190526020810180516001600160e01b0316631186ec3360e01b17905234610eb9565b5050505050565b6001606555565b33610b3c6104e5565b6001600160a01b0316146104d25760405162461bcd60e51b815260206004820181905260248201527f4f776e61626c653a2063616c6c6572206973206e6f7420746865206f776e6572604482015260640161059e565b806001600160a01b038116610bba5760405163d92e233d60e01b815260040160405180910390fd5b60c9546040517f06e5f2ca1234f717a2031f662608c02182d4f8bdc3dab013ec4c04eb9755313291610bf9916001600160a01b03909116908590611428565b60405180910390a15060c980546001600160a01b0319166001600160a01b0392909216919091179055565b603380546001600160a01b038381166001600160a01b0319831681179093556040519116919082907f8be0079c531659141344cd1fd0a4f28419497f9722a3daafe3b4186f6b6457e090600090a35050565b806001600160a01b038116610c9e5760405163d92e233d60e01b815260040160405180910390fd5b60cb546040517f37b4bc62091d0acd3300990bd241557cbc8040fde4cf701b91d8bac7a69e016091610cdd916001600160a01b03909116908590611428565b60405180910390a15060cb80546001600160a01b0319166001600160a01b0392909216919091179055565b806001600160a01b038116610d305760405163d92e233d60e01b815260040160405180910390fd5b60ca546040517fbac4f45eeeeb3c9688d046eddcdd28783777a2aa7beffcdf0acb76487d79636491610d6f916001600160a01b03909116908590611428565b60405180910390a15060ca80546001600160a01b0319166001600160a01b0392909216919091179055565b600054610100900460ff16610dc15760405162461bcd60e51b815260040161059e906115aa565b6104d2610ee9565b600054610100900460ff16610df05760405162461bcd60e51b815260040161059e906115aa565b6104d2610f19565b600054610100900460ff16610e1f5760405162461bcd60e51b815260040161059e906115aa565b6104d2610f40565b806001600160a01b038116610e4f5760405163d92e233d60e01b815260040160405180910390fd5b60cd546040517fffd9582901c27177dbd18194ae8017f10d8b21f98a0da2ea5197e0b20dc13d7091610e8e916001600160a01b03909116908590611428565b60405180910390a15060cd80546001600160a01b0319166001600160a01b0392909216919091179055565b6060610edf8484846040518060600160405280602981526020016116f160299139610f73565b90505b9392505050565b600054610100900460ff16610f105760405162461bcd60e51b815260040161059e906115aa565b6104d233610c24565b600054610100900460ff16610b2c5760405162461bcd60e51b815260040161059e906115aa565b600054610100900460ff16610f675760405162461bcd60e51b815260040161059e906115aa565b6097805460ff19169055565b606082471015610fd45760405162461bcd60e51b815260206004820152602660248201527f416464726573733a20696e73756666696369656e742062616c616e636520666f6044820152651c8818d85b1b60d21b606482015260840161059e565b843b6110225760405162461bcd60e51b815260206004820152601d60248201527f416464726573733a2063616c6c20746f206e6f6e2d636f6e7472616374000000604482015260640161059e565b600080866001600160a01b0316858760405161103e919061140c565b60006040518083038185875af1925050503d806000811461107b576040519150601f19603f3d011682016040523d82523d6000602084013e611080565b606091505b509150915061109082828661109b565b979650505050505050565b606083156110aa575081610ee2565b8251156110ba5782518084602001fd5b8160405162461bcd60e51b815260040161059e91906114c2565b80356001600160a01b03811681146110eb57600080fd5b919050565b60008083601f840112611101578182fd5b5081356001600160401b03811115611117578182fd5b6020830191508360208260051b850101111561113257600080fd5b9250929050565b80356110eb816116e2565b8035600781900b81146110eb57600080fd5b600060608284031215611167578081fd5b50919050565b60006020828403121561117e578081fd5b610ee2826110d4565b600080600080600060a0868803121561119e578081fd5b6111a7866110d4565b94506111b5602087016110d4565b93506111c3604087016110d4565b94979396509394606081013594506080013592915050565b6000806000806000806000806000806101008b8d0312156111fa578485fd5b6112038b6110d4565b995061121160208c016110d4565b985060408b01356001600160401b038082111561122c578687fd5b6112388e838f016110f0565b909a50985088915061124c60608e01611139565b975060808d0135915080821115611261578687fd5b61126d8e838f016110f0565b909750955060a08d0135915080821115611285578485fd5b506112928d828e01611156565b9350506112a160c08c01611144565b915060e08b013590509295989b9194979a5092959850565b6000806000606084860312156112cd578283fd5b6112d6846110d4565b92506112e4602085016110d4565b9150604084013590509250925092565b600060208284031215611305578081fd5b8151610ee2816116e2565b81835260006020808501945082825b8581101561134b576001600160a01b03611338836110d4565b168752958201959082019060010161131f565b509495945050505050565b81835281816020850137506000828201602090810191909152601f909101601f19169091010190565b60008151808452611397816020860160208601611685565b601f01601f19169290920160200192915050565b60006113b7828361162a565b606085526113c9606086018284611356565b9150506020830135600681106113dd578283fd5b60208501526113ef604084018461162a565b8583036040870152611402838284611356565b9695505050505050565b6000825161141e818460208701611685565b9190910192915050565b6001600160a01b0392831681529116602082015260400190565b6001600160a01b038981168252881660208201526040810187905260608101869052600785900b608082015263ffffffff841660a082015261010060c082018190526000906114938382018661137f565b9150508260e08301529998505050505050505050565b6001600160a01b03929092168252602082015260400190565b602081526000610ee2602083018461137f565b610140808252600d908201526c073776170416e64556e7772617609c1b610160820152602081018b9052604081018a90526001600160a01b0389811660608301528816608082015260a0810187905285151560c082015261018060e082018190526000906115468184018789611310565b905082810361010084015261155b81866113ab565b915050826101208301529b9a5050505050505050505050565b6020808252601c908201527b4574684d616e616765724c6f6769633a2077726f6e672076616c756560201b604082015260600190565b6020808252602b908201527f496e697469616c697a61626c653a20636f6e7472616374206973206e6f74206960408201526a6e697469616c697a696e6760a81b606082015260800190565b84815260806020820152600061160e608083018661137f565b6001600160a01b03949094166040830152506060015292915050565b6000808335601e19843603018112611640578283fd5b83016020810192503590506001600160401b0381111561165f57600080fd5b80360383131561113257600080fd5b600082821015611680576116806116cc565b500390565b60005b838110156116a0578181015183820152602001611688565b838111156107615750506000910152565b60006000198214156116c5576116c56116cc565b5060010190565b634e487b7160e01b600052601160045260246000fd5b80151581146104bd57600080fdfe416464726573733a206c6f772d6c6576656c2063616c6c20776974682076616c7565206661696c6564a2646970667358221220d79e2f9fd5a2d92bb64312b9ba17b9a62e031b68ba3e6dec92538ecf41de626864736f6c63430008040033",
  "devdoc": {
    "kind": "dev",
    "methods": {
      "emergencyWithdraw(address,address,uint256)": {
        "details": "Only owner can call this"
      },
      "owner()": {
        "details": "Returns the address of the current owner."
      },
      "paused()": {
        "details": "Returns true if the contract is paused, and false otherwise."
      },
      "renounceOwnership()": {
        "details": "Leaves the contract without owner. It will not be possible to call `onlyOwner` functions. Can only be called by the current owner. NOTE: Renouncing ownership will leave the contract without an owner, thereby disabling any functionality that is only available to the owner."
      },
      "swapAndUnwrap(address,address,uint256[],bool,address[],(bytes,uint8,bytes),int64,uint256)": {
        "details": "To find teleBTCAmount, _relayerFeePercentage should be reduced from the inputTokenAmount",
        "params": {
          "_amounts": "[inputTokenAmount, teleBTCAmount]",
          "_exchangeConnector": "Address of exchange connector to be used",
          "_path": "of exchanging inputToken to teleBTC (these are Polygon token addresses, so _path[0] != _token)",
          "_relayerFeePercentage": "Fee percentage for relayer",
          "_thirdParty": "Id of third party",
          "_token": "Address of input token (on the current chain)"
        }
      },
      "transferOwnership(address)": {
        "details": "Transfers ownership of the contract to a new account (`newOwner`). Can only be called by the current owner."
      }
    },
    "version": 1
  },
  "userdoc": {
    "kind": "user",
    "methods": {
      "emergencyWithdraw(address,address,uint256)": {
        "notice": "Withdraw tokens in the emergency case"
      },
      "setAcross(address)": {
        "notice": "Setter for Across"
      },
      "setTargetChainConnectorProxy(address)": {
        "notice": "Setter for TargetChainConnectorProxy"
      },
      "setTargetChainTeleBTC(address)": {
        "notice": "Setter for TargetChainTeleBTC"
      },
      "setWrappedNativeToken(address)": {
        "notice": "Setter for WrappedNativeToken"
      },
      "swapAndUnwrap(address,address,uint256[],bool,address[],(bytes,uint8,bytes),int64,uint256)": {
        "notice": "Request exchanging token for BTC"
      }
    },
    "version": 1
  },
  "storageLayout": {
    "storage": [
      {
        "astId": 326,
        "contract": "contracts/connectors/EthConnectorLogic.sol:EthConnectorLogic",
        "label": "_initialized",
        "offset": 0,
        "slot": "0",
        "type": "t_uint8"
      },
      {
        "astId": 329,
        "contract": "contracts/connectors/EthConnectorLogic.sol:EthConnectorLogic",
        "label": "_initializing",
        "offset": 1,
        "slot": "0",
        "type": "t_bool"
      },
      {
        "astId": 1797,
        "contract": "contracts/connectors/EthConnectorLogic.sol:EthConnectorLogic",
        "label": "__gap",
        "offset": 0,
        "slot": "1",
        "type": "t_array(t_uint256)50_storage"
      },
      {
        "astId": 198,
        "contract": "contracts/connectors/EthConnectorLogic.sol:EthConnectorLogic",
        "label": "_owner",
        "offset": 0,
        "slot": "51",
        "type": "t_address"
      },
      {
        "astId": 318,
        "contract": "contracts/connectors/EthConnectorLogic.sol:EthConnectorLogic",
        "label": "__gap",
        "offset": 0,
        "slot": "52",
        "type": "t_array(t_uint256)49_storage"
      },
      {
        "astId": 631,
        "contract": "contracts/connectors/EthConnectorLogic.sol:EthConnectorLogic",
        "label": "_status",
        "offset": 0,
        "slot": "101",
        "type": "t_uint256"
      },
      {
        "astId": 700,
        "contract": "contracts/connectors/EthConnectorLogic.sol:EthConnectorLogic",
        "label": "__gap",
        "offset": 0,
        "slot": "102",
        "type": "t_array(t_uint256)49_storage"
      },
      {
        "astId": 510,
        "contract": "contracts/connectors/EthConnectorLogic.sol:EthConnectorLogic",
        "label": "_paused",
        "offset": 0,
        "slot": "151",
        "type": "t_bool"
      },
      {
        "astId": 615,
        "contract": "contracts/connectors/EthConnectorLogic.sol:EthConnectorLogic",
        "label": "__gap",
        "offset": 0,
        "slot": "152",
        "type": "t_array(t_uint256)49_storage"
      },
      {
        "astId": 9465,
        "contract": "contracts/connectors/EthConnectorLogic.sol:EthConnectorLogic",
        "label": "across",
        "offset": 0,
        "slot": "201",
        "type": "t_address"
      },
      {
        "astId": 9467,
        "contract": "contracts/connectors/EthConnectorLogic.sol:EthConnectorLogic",
        "label": "targetChainConnectorProxy",
        "offset": 0,
        "slot": "202",
        "type": "t_address"
      },
      {
        "astId": 9469,
        "contract": "contracts/connectors/EthConnectorLogic.sol:EthConnectorLogic",
        "label": "targetChainTeleBTC",
        "offset": 0,
        "slot": "203",
        "type": "t_address"
      },
      {
        "astId": 9471,
        "contract": "contracts/connectors/EthConnectorLogic.sol:EthConnectorLogic",
        "label": "targetChainId",
        "offset": 0,
        "slot": "204",
        "type": "t_uint256"
      },
      {
        "astId": 9473,
        "contract": "contracts/connectors/EthConnectorLogic.sol:EthConnectorLogic",
        "label": "wrappedNativeToken",
        "offset": 0,
        "slot": "205",
        "type": "t_address"
      },
      {
        "astId": 9475,
        "contract": "contracts/connectors/EthConnectorLogic.sol:EthConnectorLogic",
        "label": "uniqueCounter",
        "offset": 0,
        "slot": "206",
        "type": "t_uint256"
      },
      {
        "astId": 9477,
        "contract": "contracts/connectors/EthConnectorLogic.sol:EthConnectorLogic",
        "label": "currChainId",
        "offset": 0,
        "slot": "207",
        "type": "t_uint256"
      }
    ],
    "types": {
      "t_address": {
        "encoding": "inplace",
        "label": "address",
        "numberOfBytes": "20"
      },
      "t_array(t_uint256)49_storage": {
        "base": "t_uint256",
        "encoding": "inplace",
        "label": "uint256[49]",
        "numberOfBytes": "1568"
      },
      "t_array(t_uint256)50_storage": {
        "base": "t_uint256",
        "encoding": "inplace",
        "label": "uint256[50]",
        "numberOfBytes": "1600"
      },
      "t_bool": {
        "encoding": "inplace",
        "label": "bool",
        "numberOfBytes": "1"
      },
      "t_uint256": {
        "encoding": "inplace",
        "label": "uint256",
        "numberOfBytes": "32"
      },
      "t_uint8": {
        "encoding": "inplace",
        "label": "uint8",
        "numberOfBytes": "1"
      }
    }
  }
}